{
	"Smart Contracts/26_OptimisticL2RollUps.sol": {
		"OptimisticRollupSimulation": {
			"abi": [
				{
					"inputs": [
						{
							"internalType": "address",
							"name": "initialSequencer",
							"type": "address"
						},
						{
							"internalType": "address",
							"name": "initialFraudVerifier",
							"type": "address"
						},
						{
							"internalType": "uint256",
							"name": "_challengeWindow",
							"type": "uint256"
						},
						{
							"internalType": "uint256",
							"name": "_sequencerBond",
							"type": "uint256"
						},
						{
							"internalType": "uint256",
							"name": "_challengerBond",
							"type": "uint256"
						},
						{
							"internalType": "bytes32",
							"name": "genesisStateRoot",
							"type": "bytes32"
						}
					],
					"stateMutability": "nonpayable",
					"type": "constructor"
				},
				{
					"inputs": [],
					"name": "AlreadyChallenged",
					"type": "error"
				},
				{
					"inputs": [],
					"name": "BadBatch",
					"type": "error"
				},
				{
					"inputs": [],
					"name": "BatchAlreadyFinalized",
					"type": "error"
				},
				{
					"inputs": [],
					"name": "BatchNotFinalized",
					"type": "error"
				},
				{
					"inputs": [],
					"name": "BatchNotFound",
					"type": "error"
				},
				{
					"inputs": [],
					"name": "ChallengePeriodActive",
					"type": "error"
				},
				{
					"inputs": [],
					"name": "ChallengePeriodOver",
					"type": "error"
				},
				{
					"inputs": [],
					"name": "InvalidProof",
					"type": "error"
				},
				{
					"inputs": [],
					"name": "NotChallenger",
					"type": "error"
				},
				{
					"inputs": [],
					"name": "NotSequencer",
					"type": "error"
				},
				{
					"inputs": [],
					"name": "TransferFailed",
					"type": "error"
				},
				{
					"inputs": [],
					"name": "WithdrawalAlreadyClaimed",
					"type": "error"
				},
				{
					"inputs": [],
					"name": "ZeroAmount",
					"type": "error"
				},
				{
					"anonymous": false,
					"inputs": [
						{
							"indexed": true,
							"internalType": "uint256",
							"name": "batchId",
							"type": "uint256"
						},
						{
							"indexed": true,
							"internalType": "address",
							"name": "challenger",
							"type": "address"
						}
					],
					"name": "BatchChallenged",
					"type": "event"
				},
				{
					"anonymous": false,
					"inputs": [
						{
							"indexed": true,
							"internalType": "uint256",
							"name": "batchId",
							"type": "uint256"
						},
						{
							"indexed": true,
							"internalType": "bytes32",
							"name": "newStateRoot",
							"type": "bytes32"
						}
					],
					"name": "BatchFinalized",
					"type": "event"
				},
				{
					"anonymous": false,
					"inputs": [
						{
							"indexed": true,
							"internalType": "uint256",
							"name": "batchId",
							"type": "uint256"
						},
						{
							"indexed": true,
							"internalType": "bytes32",
							"name": "prevStateRoot",
							"type": "bytes32"
						},
						{
							"indexed": true,
							"internalType": "bytes32",
							"name": "newStateRoot",
							"type": "bytes32"
						},
						{
							"indexed": false,
							"internalType": "bytes32",
							"name": "txDataHash",
							"type": "bytes32"
						},
						{
							"indexed": false,
							"internalType": "bytes32",
							"name": "withdrawalRoot",
							"type": "bytes32"
						}
					],
					"name": "BatchSubmitted",
					"type": "event"
				},
				{
					"anonymous": false,
					"inputs": [
						{
							"indexed": true,
							"internalType": "address",
							"name": "who",
							"type": "address"
						},
						{
							"indexed": false,
							"internalType": "uint256",
							"name": "amount",
							"type": "uint256"
						}
					],
					"name": "Bonded",
					"type": "event"
				},
				{
					"anonymous": false,
					"inputs": [
						{
							"indexed": true,
							"internalType": "uint256",
							"name": "batchId",
							"type": "uint256"
						},
						{
							"indexed": false,
							"internalType": "bool",
							"name": "fraudProven",
							"type": "bool"
						}
					],
					"name": "ChallengeResolved",
					"type": "event"
				},
				{
					"anonymous": false,
					"inputs": [
						{
							"indexed": true,
							"internalType": "address",
							"name": "user",
							"type": "address"
						},
						{
							"indexed": true,
							"internalType": "address",
							"name": "token",
							"type": "address"
						},
						{
							"indexed": false,
							"internalType": "uint256",
							"name": "amount",
							"type": "uint256"
						},
						{
							"indexed": true,
							"internalType": "uint256",
							"name": "nonce",
							"type": "uint256"
						}
					],
					"name": "DepositERC20",
					"type": "event"
				},
				{
					"anonymous": false,
					"inputs": [
						{
							"indexed": true,
							"internalType": "address",
							"name": "user",
							"type": "address"
						},
						{
							"indexed": false,
							"internalType": "uint256",
							"name": "amount",
							"type": "uint256"
						},
						{
							"indexed": true,
							"internalType": "uint256",
							"name": "nonce",
							"type": "uint256"
						}
					],
					"name": "DepositETH",
					"type": "event"
				},
				{
					"anonymous": false,
					"inputs": [
						{
							"indexed": true,
							"internalType": "address",
							"name": "verifier",
							"type": "address"
						}
					],
					"name": "FraudVerifierUpdated",
					"type": "event"
				},
				{
					"anonymous": false,
					"inputs": [
						{
							"indexed": true,
							"internalType": "address",
							"name": "oldOwner",
							"type": "address"
						},
						{
							"indexed": true,
							"internalType": "address",
							"name": "newOwner",
							"type": "address"
						}
					],
					"name": "OwnershipTransferred",
					"type": "event"
				},
				{
					"anonymous": false,
					"inputs": [
						{
							"indexed": false,
							"internalType": "uint256",
							"name": "challengeWindow",
							"type": "uint256"
						},
						{
							"indexed": false,
							"internalType": "uint256",
							"name": "sequencerBond",
							"type": "uint256"
						},
						{
							"indexed": false,
							"internalType": "uint256",
							"name": "challengerBond",
							"type": "uint256"
						}
					],
					"name": "ParamsUpdated",
					"type": "event"
				},
				{
					"anonymous": false,
					"inputs": [
						{
							"indexed": true,
							"internalType": "address",
							"name": "by",
							"type": "address"
						}
					],
					"name": "Paused",
					"type": "event"
				},
				{
					"anonymous": false,
					"inputs": [
						{
							"indexed": true,
							"internalType": "address",
							"name": "oldSequencer",
							"type": "address"
						},
						{
							"indexed": true,
							"internalType": "address",
							"name": "newSequencer",
							"type": "address"
						}
					],
					"name": "SequencerUpdated",
					"type": "event"
				},
				{
					"anonymous": false,
					"inputs": [
						{
							"indexed": true,
							"internalType": "address",
							"name": "who",
							"type": "address"
						},
						{
							"indexed": false,
							"internalType": "uint256",
							"name": "amount",
							"type": "uint256"
						}
					],
					"name": "Unbonded",
					"type": "event"
				},
				{
					"anonymous": false,
					"inputs": [
						{
							"indexed": true,
							"internalType": "address",
							"name": "by",
							"type": "address"
						}
					],
					"name": "Unpaused",
					"type": "event"
				},
				{
					"anonymous": false,
					"inputs": [
						{
							"indexed": true,
							"internalType": "uint256",
							"name": "batchId",
							"type": "uint256"
						},
						{
							"indexed": true,
							"internalType": "address",
							"name": "user",
							"type": "address"
						},
						{
							"indexed": true,
							"internalType": "address",
							"name": "token",
							"type": "address"
						},
						{
							"indexed": false,
							"internalType": "uint256",
							"name": "amount",
							"type": "uint256"
						},
						{
							"indexed": false,
							"internalType": "uint256",
							"name": "nonce",
							"type": "uint256"
						}
					],
					"name": "WithdrawalClaimed",
					"type": "event"
				},
				{
					"inputs": [
						{
							"internalType": "uint256",
							"name": "batchId",
							"type": "uint256"
						}
					],
					"name": "batchStatus",
					"outputs": [
						{
							"internalType": "bool",
							"name": "exists",
							"type": "bool"
						},
						{
							"internalType": "bool",
							"name": "challenged",
							"type": "bool"
						},
						{
							"internalType": "bool",
							"name": "finalized",
							"type": "bool"
						},
						{
							"internalType": "uint256",
							"name": "submittedAt",
							"type": "uint256"
						},
						{
							"internalType": "uint256",
							"name": "challengeEndsAt",
							"type": "uint256"
						},
						{
							"internalType": "bytes32",
							"name": "prevRoot",
							"type": "bytes32"
						},
						{
							"internalType": "bytes32",
							"name": "newRoot",
							"type": "bytes32"
						},
						{
							"internalType": "bytes32",
							"name": "txHash",
							"type": "bytes32"
						},
						{
							"internalType": "bytes32",
							"name": "withdrawalRoot",
							"type": "bytes32"
						},
						{
							"internalType": "address",
							"name": "challenger",
							"type": "address"
						}
					],
					"stateMutability": "view",
					"type": "function"
				},
				{
					"inputs": [
						{
							"internalType": "uint256",
							"name": "",
							"type": "uint256"
						}
					],
					"name": "batches",
					"outputs": [
						{
							"internalType": "bytes32",
							"name": "prevStateRoot",
							"type": "bytes32"
						},
						{
							"internalType": "bytes32",
							"name": "newStateRoot",
							"type": "bytes32"
						},
						{
							"internalType": "bytes32",
							"name": "txDataHash",
							"type": "bytes32"
						},
						{
							"internalType": "bytes32",
							"name": "withdrawalRoot",
							"type": "bytes32"
						},
						{
							"internalType": "uint64",
							"name": "submittedAt",
							"type": "uint64"
						},
						{
							"internalType": "bool",
							"name": "challenged",
							"type": "bool"
						},
						{
							"internalType": "bool",
							"name": "finalized",
							"type": "bool"
						},
						{
							"internalType": "address",
							"name": "challenger",
							"type": "address"
						}
					],
					"stateMutability": "view",
					"type": "function"
				},
				{
					"inputs": [],
					"name": "bond",
					"outputs": [],
					"stateMutability": "payable",
					"type": "function"
				},
				{
					"inputs": [
						{
							"internalType": "address",
							"name": "",
							"type": "address"
						}
					],
					"name": "bonds",
					"outputs": [
						{
							"internalType": "uint256",
							"name": "",
							"type": "uint256"
						}
					],
					"stateMutability": "view",
					"type": "function"
				},
				{
					"inputs": [
						{
							"internalType": "uint256",
							"name": "batchId",
							"type": "uint256"
						}
					],
					"name": "challengeBatch",
					"outputs": [],
					"stateMutability": "nonpayable",
					"type": "function"
				},
				{
					"inputs": [],
					"name": "challengeWindow",
					"outputs": [
						{
							"internalType": "uint256",
							"name": "",
							"type": "uint256"
						}
					],
					"stateMutability": "view",
					"type": "function"
				},
				{
					"inputs": [],
					"name": "challengerBond",
					"outputs": [
						{
							"internalType": "uint256",
							"name": "",
							"type": "uint256"
						}
					],
					"stateMutability": "view",
					"type": "function"
				},
				{
					"inputs": [
						{
							"internalType": "uint256",
							"name": "batchId",
							"type": "uint256"
						},
						{
							"internalType": "address",
							"name": "token",
							"type": "address"
						},
						{
							"internalType": "uint256",
							"name": "amount",
							"type": "uint256"
						},
						{
							"internalType": "uint256",
							"name": "nonce",
							"type": "uint256"
						},
						{
							"internalType": "bytes32[]",
							"name": "merkleProof",
							"type": "bytes32[]"
						}
					],
					"name": "claimWithdrawal",
					"outputs": [],
					"stateMutability": "nonpayable",
					"type": "function"
				},
				{
					"inputs": [],
					"name": "currentStateRoot",
					"outputs": [
						{
							"internalType": "bytes32",
							"name": "",
							"type": "bytes32"
						}
					],
					"stateMutability": "view",
					"type": "function"
				},
				{
					"inputs": [
						{
							"internalType": "address",
							"name": "token",
							"type": "address"
						},
						{
							"internalType": "uint256",
							"name": "amount",
							"type": "uint256"
						}
					],
					"name": "depositERC20",
					"outputs": [],
					"stateMutability": "nonpayable",
					"type": "function"
				},
				{
					"inputs": [],
					"name": "depositETH",
					"outputs": [],
					"stateMutability": "payable",
					"type": "function"
				},
				{
					"inputs": [],
					"name": "depositNonce",
					"outputs": [
						{
							"internalType": "uint256",
							"name": "",
							"type": "uint256"
						}
					],
					"stateMutability": "view",
					"type": "function"
				},
				{
					"inputs": [
						{
							"internalType": "uint256",
							"name": "batchId",
							"type": "uint256"
						}
					],
					"name": "finalizeBatch",
					"outputs": [],
					"stateMutability": "nonpayable",
					"type": "function"
				},
				{
					"inputs": [],
					"name": "fraudVerifier",
					"outputs": [
						{
							"internalType": "contract IFraudProofVerifier",
							"name": "",
							"type": "address"
						}
					],
					"stateMutability": "view",
					"type": "function"
				},
				{
					"inputs": [],
					"name": "latestBatchId",
					"outputs": [
						{
							"internalType": "uint256",
							"name": "",
							"type": "uint256"
						}
					],
					"stateMutability": "view",
					"type": "function"
				},
				{
					"inputs": [],
					"name": "owner",
					"outputs": [
						{
							"internalType": "address",
							"name": "",
							"type": "address"
						}
					],
					"stateMutability": "view",
					"type": "function"
				},
				{
					"inputs": [],
					"name": "pause",
					"outputs": [],
					"stateMutability": "nonpayable",
					"type": "function"
				},
				{
					"inputs": [],
					"name": "paused",
					"outputs": [
						{
							"internalType": "bool",
							"name": "",
							"type": "bool"
						}
					],
					"stateMutability": "view",
					"type": "function"
				},
				{
					"inputs": [
						{
							"internalType": "uint256",
							"name": "batchId",
							"type": "uint256"
						},
						{
							"internalType": "bytes",
							"name": "proof",
							"type": "bytes"
						}
					],
					"name": "resolveChallenge",
					"outputs": [],
					"stateMutability": "nonpayable",
					"type": "function"
				},
				{
					"inputs": [],
					"name": "sequencer",
					"outputs": [
						{
							"internalType": "address",
							"name": "",
							"type": "address"
						}
					],
					"stateMutability": "view",
					"type": "function"
				},
				{
					"inputs": [],
					"name": "sequencerBond",
					"outputs": [
						{
							"internalType": "uint256",
							"name": "",
							"type": "uint256"
						}
					],
					"stateMutability": "view",
					"type": "function"
				},
				{
					"inputs": [
						{
							"internalType": "address",
							"name": "verifier",
							"type": "address"
						}
					],
					"name": "setFraudVerifier",
					"outputs": [],
					"stateMutability": "nonpayable",
					"type": "function"
				},
				{
					"inputs": [
						{
							"internalType": "uint256",
							"name": "_challengeWindow",
							"type": "uint256"
						},
						{
							"internalType": "uint256",
							"name": "_sequencerBond",
							"type": "uint256"
						},
						{
							"internalType": "uint256",
							"name": "_challengerBond",
							"type": "uint256"
						}
					],
					"name": "setParams",
					"outputs": [],
					"stateMutability": "nonpayable",
					"type": "function"
				},
				{
					"inputs": [
						{
							"internalType": "address",
							"name": "newSequencer",
							"type": "address"
						}
					],
					"name": "setSequencer",
					"outputs": [],
					"stateMutability": "nonpayable",
					"type": "function"
				},
				{
					"inputs": [
						{
							"internalType": "bytes32",
							"name": "newStateRoot",
							"type": "bytes32"
						},
						{
							"internalType": "bytes32",
							"name": "txDataHash",
							"type": "bytes32"
						},
						{
							"internalType": "bytes32",
							"name": "withdrawalRoot",
							"type": "bytes32"
						}
					],
					"name": "submitBatch",
					"outputs": [],
					"stateMutability": "nonpayable",
					"type": "function"
				},
				{
					"inputs": [
						{
							"internalType": "address",
							"name": "newOwner",
							"type": "address"
						}
					],
					"name": "transferOwnership",
					"outputs": [],
					"stateMutability": "nonpayable",
					"type": "function"
				},
				{
					"inputs": [
						{
							"internalType": "uint256",
							"name": "amount",
							"type": "uint256"
						}
					],
					"name": "unbond",
					"outputs": [],
					"stateMutability": "nonpayable",
					"type": "function"
				},
				{
					"inputs": [],
					"name": "unpause",
					"outputs": [],
					"stateMutability": "nonpayable",
					"type": "function"
				},
				{
					"inputs": [
						{
							"internalType": "uint256",
							"name": "",
							"type": "uint256"
						},
						{
							"internalType": "bytes32",
							"name": "",
							"type": "bytes32"
						}
					],
					"name": "withdrawalClaimed",
					"outputs": [
						{
							"internalType": "bool",
							"name": "",
							"type": "bool"
						}
					],
					"stateMutability": "view",
					"type": "function"
				},
				{
					"stateMutability": "payable",
					"type": "receive"
				}
			],
			"devdoc": {
				"kind": "dev",
				"methods": {},
				"version": 1
			},
			"evm": {
				"assembly": "    /* \"Smart Contracts/26_OptimisticL2RollUps.sol\":2734:14109  contract OptimisticRollupSimulation is Pausable, ReentrancyGuard {... */\n  mstore(0x40, 0x80)\n    /* \"Smart Contracts/26_OptimisticL2RollUps.sol\":5624:6216  constructor(... */\n  callvalue\n  dup1\n  iszero\n  tag_1\n  jumpi\n  revert(0x00, 0x00)\ntag_1:\n  pop\n  mload(0x40)\n  sub(codesize, bytecodeSize)\n  dup1\n  bytecodeSize\n  dup4\n  codecopy\n  dup2\n  dup2\n  add\n  0x40\n  mstore\n  dup2\n  add\n  swap1\n  tag_2\n  swap2\n  swap1\n  tag_3\n  jump\t// in\ntag_2:\n    /* \"Smart Contracts/26_OptimisticL2RollUps.sol\":1960:1970  msg.sender */\n  caller\n    /* \"Smart Contracts/26_OptimisticL2RollUps.sol\":1952:1957  owner */\n  0x00\n  0x00\n    /* \"Smart Contracts/26_OptimisticL2RollUps.sol\":1952:1970  owner = msg.sender */\n  0x0100\n  exp\n  dup2\n  sload\n  dup2\n  0xffffffffffffffffffffffffffffffffffffffff\n  mul\n  not\n  and\n  swap1\n  dup4\n  0xffffffffffffffffffffffffffffffffffffffff\n  and\n  mul\n  or\n  swap1\n  sstore\n  pop\n    /* \"Smart Contracts/26_OptimisticL2RollUps.sol\":2019:2029  msg.sender */\n  caller\n    /* \"Smart Contracts/26_OptimisticL2RollUps.sol\":1986:2030  OwnershipTransferred(address(0), msg.sender) */\n  0xffffffffffffffffffffffffffffffffffffffff\n  and\n    /* \"Smart Contracts/26_OptimisticL2RollUps.sol\":2015:2016  0 */\n  0x00\n    /* \"Smart Contracts/26_OptimisticL2RollUps.sol\":1986:2030  OwnershipTransferred(address(0), msg.sender) */\n  0xffffffffffffffffffffffffffffffffffffffff\n  and\n  0x8be0079c531659141344cd1fd0a4f28419497f9722a3daafe3b4186f6b6457e0\n  mload(0x40)\n  mload(0x40)\n  dup1\n  swap2\n  sub\n  swap1\n  log3\n    /* \"Smart Contracts/26_OptimisticL2RollUps.sol\":1629:1630  1 */\n  0x01\n    /* \"Smart Contracts/26_OptimisticL2RollUps.sol\":1619:1626  _status */\n  dup1\n    /* \"Smart Contracts/26_OptimisticL2RollUps.sol\":1619:1630  _status = 1 */\n  dup2\n  swap1\n  sstore\n  pop\n    /* \"Smart Contracts/26_OptimisticL2RollUps.sol\":5901:5902  0 */\n  0x00\n    /* \"Smart Contracts/26_OptimisticL2RollUps.sol\":5873:5903  initialSequencer != address(0) */\n  0xffffffffffffffffffffffffffffffffffffffff\n  and\n    /* \"Smart Contracts/26_OptimisticL2RollUps.sol\":5873:5889  initialSequencer */\n  dup7\n    /* \"Smart Contracts/26_OptimisticL2RollUps.sol\":5873:5903  initialSequencer != address(0) */\n  0xffffffffffffffffffffffffffffffffffffffff\n  and\n  sub\n    /* \"Smart Contracts/26_OptimisticL2RollUps.sol\":5865:5922  require(initialSequencer != address(0), \"ZERO_SEQUENCER\") */\n  tag_10\n  jumpi\n  mload(0x40)\n  0x08c379a000000000000000000000000000000000000000000000000000000000\n  dup2\n  mstore\n  0x04\n  add\n  tag_11\n  swap1\n  tag_12\n  jump\t// in\ntag_11:\n  mload(0x40)\n  dup1\n  swap2\n  sub\n  swap1\n  revert\ntag_10:\n    /* \"Smart Contracts/26_OptimisticL2RollUps.sol\":5945:5961  initialSequencer */\n  dup6\n    /* \"Smart Contracts/26_OptimisticL2RollUps.sol\":5933:5942  sequencer */\n  0x02\n  0x00\n    /* \"Smart Contracts/26_OptimisticL2RollUps.sol\":5933:5961  sequencer = initialSequencer */\n  0x0100\n  exp\n  dup2\n  sload\n  dup2\n  0xffffffffffffffffffffffffffffffffffffffff\n  mul\n  not\n  and\n  swap1\n  dup4\n  0xffffffffffffffffffffffffffffffffffffffff\n  and\n  mul\n  or\n  swap1\n  sstore\n  pop\n    /* \"Smart Contracts/26_OptimisticL2RollUps.sol\":6008:6028  initialFraudVerifier */\n  dup5\n    /* \"Smart Contracts/26_OptimisticL2RollUps.sol\":5972:5985  fraudVerifier */\n  0x03\n  0x00\n    /* \"Smart Contracts/26_OptimisticL2RollUps.sol\":5972:6029  fraudVerifier = IFraudProofVerifier(initialFraudVerifier) */\n  0x0100\n  exp\n  dup2\n  sload\n  dup2\n  0xffffffffffffffffffffffffffffffffffffffff\n  mul\n  not\n  and\n  swap1\n  dup4\n  0xffffffffffffffffffffffffffffffffffffffff\n  and\n  mul\n  or\n  swap1\n  sstore\n  pop\n    /* \"Smart Contracts/26_OptimisticL2RollUps.sol\":6060:6076  _challengeWindow */\n  dup4\n    /* \"Smart Contracts/26_OptimisticL2RollUps.sol\":6042:6057  challengeWindow */\n  0x06\n    /* \"Smart Contracts/26_OptimisticL2RollUps.sol\":6042:6076  challengeWindow = _challengeWindow */\n  dup2\n  swap1\n  sstore\n  pop\n    /* \"Smart Contracts/26_OptimisticL2RollUps.sol\":6103:6117  _sequencerBond */\n  dup3\n    /* \"Smart Contracts/26_OptimisticL2RollUps.sol\":6087:6100  sequencerBond */\n  0x04\n    /* \"Smart Contracts/26_OptimisticL2RollUps.sol\":6087:6117  sequencerBond = _sequencerBond */\n  dup2\n  swap1\n  sstore\n  pop\n    /* \"Smart Contracts/26_OptimisticL2RollUps.sol\":6145:6160  _challengerBond */\n  dup2\n    /* \"Smart Contracts/26_OptimisticL2RollUps.sol\":6128:6142  challengerBond */\n  0x05\n    /* \"Smart Contracts/26_OptimisticL2RollUps.sol\":6128:6160  challengerBond = _challengerBond */\n  dup2\n  swap1\n  sstore\n  pop\n    /* \"Smart Contracts/26_OptimisticL2RollUps.sol\":6192:6208  genesisStateRoot */\n  dup1\n    /* \"Smart Contracts/26_OptimisticL2RollUps.sol\":6173:6189  currentStateRoot */\n  0x0a\n    /* \"Smart Contracts/26_OptimisticL2RollUps.sol\":6173:6208  currentStateRoot = genesisStateRoot */\n  dup2\n  swap1\n  sstore\n  pop\n    /* \"Smart Contracts/26_OptimisticL2RollUps.sol\":5624:6216  constructor(... */\n  pop\n  pop\n  pop\n  pop\n  pop\n  pop\n    /* \"Smart Contracts/26_OptimisticL2RollUps.sol\":2734:14109  contract OptimisticRollupSimulation is Pausable, ReentrancyGuard {... */\n  jump(tag_13)\n    /* \"#utility.yul\":88:205   */\ntag_15:\n    /* \"#utility.yul\":197:198   */\n  0x00\n    /* \"#utility.yul\":194:195   */\n  0x00\n    /* \"#utility.yul\":187:199   */\n  revert\n    /* \"#utility.yul\":334:460   */\ntag_17:\n    /* \"#utility.yul\":371:378   */\n  0x00\n    /* \"#utility.yul\":411:453   */\n  0xffffffffffffffffffffffffffffffffffffffff\n    /* \"#utility.yul\":404:409   */\n  dup3\n    /* \"#utility.yul\":400:454   */\n  and\n    /* \"#utility.yul\":389:454   */\n  swap1\n  pop\n    /* \"#utility.yul\":334:460   */\n  swap2\n  swap1\n  pop\n  jump\t// out\n    /* \"#utility.yul\":466:562   */\ntag_18:\n    /* \"#utility.yul\":503:510   */\n  0x00\n    /* \"#utility.yul\":532:556   */\n  tag_36\n    /* \"#utility.yul\":550:555   */\n  dup3\n    /* \"#utility.yul\":532:556   */\n  tag_17\n  jump\t// in\ntag_36:\n    /* \"#utility.yul\":521:556   */\n  swap1\n  pop\n    /* \"#utility.yul\":466:562   */\n  swap2\n  swap1\n  pop\n  jump\t// out\n    /* \"#utility.yul\":568:690   */\ntag_19:\n    /* \"#utility.yul\":641:665   */\n  tag_38\n    /* \"#utility.yul\":659:664   */\n  dup2\n    /* \"#utility.yul\":641:665   */\n  tag_18\n  jump\t// in\ntag_38:\n    /* \"#utility.yul\":634:639   */\n  dup2\n    /* \"#utility.yul\":631:666   */\n  eq\n    /* \"#utility.yul\":621:684   */\n  tag_39\n  jumpi\n    /* \"#utility.yul\":680:681   */\n  0x00\n    /* \"#utility.yul\":677:678   */\n  0x00\n    /* \"#utility.yul\":670:682   */\n  revert\n    /* \"#utility.yul\":621:684   */\ntag_39:\n    /* \"#utility.yul\":568:690   */\n  pop\n  jump\t// out\n    /* \"#utility.yul\":696:839   */\ntag_20:\n    /* \"#utility.yul\":753:758   */\n  0x00\n    /* \"#utility.yul\":784:790   */\n  dup2\n    /* \"#utility.yul\":778:791   */\n  mload\n    /* \"#utility.yul\":769:791   */\n  swap1\n  pop\n    /* \"#utility.yul\":800:833   */\n  tag_41\n    /* \"#utility.yul\":827:832   */\n  dup2\n    /* \"#utility.yul\":800:833   */\n  tag_19\n  jump\t// in\ntag_41:\n    /* \"#utility.yul\":696:839   */\n  swap3\n  swap2\n  pop\n  pop\n  jump\t// out\n    /* \"#utility.yul\":845:922   */\ntag_21:\n    /* \"#utility.yul\":882:889   */\n  0x00\n    /* \"#utility.yul\":911:916   */\n  dup2\n    /* \"#utility.yul\":900:916   */\n  swap1\n  pop\n    /* \"#utility.yul\":845:922   */\n  swap2\n  swap1\n  pop\n  jump\t// out\n    /* \"#utility.yul\":928:1050   */\ntag_22:\n    /* \"#utility.yul\":1001:1025   */\n  tag_44\n    /* \"#utility.yul\":1019:1024   */\n  dup2\n    /* \"#utility.yul\":1001:1025   */\n  tag_21\n  jump\t// in\ntag_44:\n    /* \"#utility.yul\":994:999   */\n  dup2\n    /* \"#utility.yul\":991:1026   */\n  eq\n    /* \"#utility.yul\":981:1044   */\n  tag_45\n  jumpi\n    /* \"#utility.yul\":1040:1041   */\n  0x00\n    /* \"#utility.yul\":1037:1038   */\n  0x00\n    /* \"#utility.yul\":1030:1042   */\n  revert\n    /* \"#utility.yul\":981:1044   */\ntag_45:\n    /* \"#utility.yul\":928:1050   */\n  pop\n  jump\t// out\n    /* \"#utility.yul\":1056:1199   */\ntag_23:\n    /* \"#utility.yul\":1113:1118   */\n  0x00\n    /* \"#utility.yul\":1144:1150   */\n  dup2\n    /* \"#utility.yul\":1138:1151   */\n  mload\n    /* \"#utility.yul\":1129:1151   */\n  swap1\n  pop\n    /* \"#utility.yul\":1160:1193   */\n  tag_47\n    /* \"#utility.yul\":1187:1192   */\n  dup2\n    /* \"#utility.yul\":1160:1193   */\n  tag_22\n  jump\t// in\ntag_47:\n    /* \"#utility.yul\":1056:1199   */\n  swap3\n  swap2\n  pop\n  pop\n  jump\t// out\n    /* \"#utility.yul\":1205:1282   */\ntag_24:\n    /* \"#utility.yul\":1242:1249   */\n  0x00\n    /* \"#utility.yul\":1271:1276   */\n  dup2\n    /* \"#utility.yul\":1260:1276   */\n  swap1\n  pop\n    /* \"#utility.yul\":1205:1282   */\n  swap2\n  swap1\n  pop\n  jump\t// out\n    /* \"#utility.yul\":1288:1410   */\ntag_25:\n    /* \"#utility.yul\":1361:1385   */\n  tag_50\n    /* \"#utility.yul\":1379:1384   */\n  dup2\n    /* \"#utility.yul\":1361:1385   */\n  tag_24\n  jump\t// in\ntag_50:\n    /* \"#utility.yul\":1354:1359   */\n  dup2\n    /* \"#utility.yul\":1351:1386   */\n  eq\n    /* \"#utility.yul\":1341:1404   */\n  tag_51\n  jumpi\n    /* \"#utility.yul\":1400:1401   */\n  0x00\n    /* \"#utility.yul\":1397:1398   */\n  0x00\n    /* \"#utility.yul\":1390:1402   */\n  revert\n    /* \"#utility.yul\":1341:1404   */\ntag_51:\n    /* \"#utility.yul\":1288:1410   */\n  pop\n  jump\t// out\n    /* \"#utility.yul\":1416:1559   */\ntag_26:\n    /* \"#utility.yul\":1473:1478   */\n  0x00\n    /* \"#utility.yul\":1504:1510   */\n  dup2\n    /* \"#utility.yul\":1498:1511   */\n  mload\n    /* \"#utility.yul\":1489:1511   */\n  swap1\n  pop\n    /* \"#utility.yul\":1520:1553   */\n  tag_53\n    /* \"#utility.yul\":1547:1552   */\n  dup2\n    /* \"#utility.yul\":1520:1553   */\n  tag_25\n  jump\t// in\ntag_53:\n    /* \"#utility.yul\":1416:1559   */\n  swap3\n  swap2\n  pop\n  pop\n  jump\t// out\n    /* \"#utility.yul\":1565:2699   */\ntag_3:\n    /* \"#utility.yul\":1680:1686   */\n  0x00\n    /* \"#utility.yul\":1688:1694   */\n  0x00\n    /* \"#utility.yul\":1696:1702   */\n  0x00\n    /* \"#utility.yul\":1704:1710   */\n  0x00\n    /* \"#utility.yul\":1712:1718   */\n  0x00\n    /* \"#utility.yul\":1720:1726   */\n  0x00\n    /* \"#utility.yul\":1769:1772   */\n  0xc0\n    /* \"#utility.yul\":1757:1766   */\n  dup8\n    /* \"#utility.yul\":1748:1755   */\n  dup10\n    /* \"#utility.yul\":1744:1767   */\n  sub\n    /* \"#utility.yul\":1740:1773   */\n  slt\n    /* \"#utility.yul\":1737:1857   */\n  iszero\n  tag_55\n  jumpi\n    /* \"#utility.yul\":1776:1855   */\n  tag_56\n  tag_15\n  jump\t// in\ntag_56:\n    /* \"#utility.yul\":1737:1857   */\ntag_55:\n    /* \"#utility.yul\":1896:1897   */\n  0x00\n    /* \"#utility.yul\":1921:1985   */\n  tag_57\n    /* \"#utility.yul\":1977:1984   */\n  dup10\n    /* \"#utility.yul\":1968:1974   */\n  dup3\n    /* \"#utility.yul\":1957:1966   */\n  dup11\n    /* \"#utility.yul\":1953:1975   */\n  add\n    /* \"#utility.yul\":1921:1985   */\n  tag_20\n  jump\t// in\ntag_57:\n    /* \"#utility.yul\":1911:1985   */\n  swap7\n  pop\n    /* \"#utility.yul\":1867:1995   */\n  pop\n    /* \"#utility.yul\":2034:2036   */\n  0x20\n    /* \"#utility.yul\":2060:2124   */\n  tag_58\n    /* \"#utility.yul\":2116:2123   */\n  dup10\n    /* \"#utility.yul\":2107:2113   */\n  dup3\n    /* \"#utility.yul\":2096:2105   */\n  dup11\n    /* \"#utility.yul\":2092:2114   */\n  add\n    /* \"#utility.yul\":2060:2124   */\n  tag_20\n  jump\t// in\ntag_58:\n    /* \"#utility.yul\":2050:2124   */\n  swap6\n  pop\n    /* \"#utility.yul\":2005:2134   */\n  pop\n    /* \"#utility.yul\":2173:2175   */\n  0x40\n    /* \"#utility.yul\":2199:2263   */\n  tag_59\n    /* \"#utility.yul\":2255:2262   */\n  dup10\n    /* \"#utility.yul\":2246:2252   */\n  dup3\n    /* \"#utility.yul\":2235:2244   */\n  dup11\n    /* \"#utility.yul\":2231:2253   */\n  add\n    /* \"#utility.yul\":2199:2263   */\n  tag_23\n  jump\t// in\ntag_59:\n    /* \"#utility.yul\":2189:2263   */\n  swap5\n  pop\n    /* \"#utility.yul\":2144:2273   */\n  pop\n    /* \"#utility.yul\":2312:2314   */\n  0x60\n    /* \"#utility.yul\":2338:2402   */\n  tag_60\n    /* \"#utility.yul\":2394:2401   */\n  dup10\n    /* \"#utility.yul\":2385:2391   */\n  dup3\n    /* \"#utility.yul\":2374:2383   */\n  dup11\n    /* \"#utility.yul\":2370:2392   */\n  add\n    /* \"#utility.yul\":2338:2402   */\n  tag_23\n  jump\t// in\ntag_60:\n    /* \"#utility.yul\":2328:2402   */\n  swap4\n  pop\n    /* \"#utility.yul\":2283:2412   */\n  pop\n    /* \"#utility.yul\":2451:2454   */\n  0x80\n    /* \"#utility.yul\":2478:2542   */\n  tag_61\n    /* \"#utility.yul\":2534:2541   */\n  dup10\n    /* \"#utility.yul\":2525:2531   */\n  dup3\n    /* \"#utility.yul\":2514:2523   */\n  dup11\n    /* \"#utility.yul\":2510:2532   */\n  add\n    /* \"#utility.yul\":2478:2542   */\n  tag_23\n  jump\t// in\ntag_61:\n    /* \"#utility.yul\":2468:2542   */\n  swap3\n  pop\n    /* \"#utility.yul\":2422:2552   */\n  pop\n    /* \"#utility.yul\":2591:2594   */\n  0xa0\n    /* \"#utility.yul\":2618:2682   */\n  tag_62\n    /* \"#utility.yul\":2674:2681   */\n  dup10\n    /* \"#utility.yul\":2665:2671   */\n  dup3\n    /* \"#utility.yul\":2654:2663   */\n  dup11\n    /* \"#utility.yul\":2650:2672   */\n  add\n    /* \"#utility.yul\":2618:2682   */\n  tag_26\n  jump\t// in\ntag_62:\n    /* \"#utility.yul\":2608:2682   */\n  swap2\n  pop\n    /* \"#utility.yul\":2562:2692   */\n  pop\n    /* \"#utility.yul\":1565:2699   */\n  swap3\n  swap6\n  pop\n  swap3\n  swap6\n  pop\n  swap3\n  swap6\n  jump\t// out\n    /* \"#utility.yul\":2705:2874   */\ntag_27:\n    /* \"#utility.yul\":2789:2800   */\n  0x00\n    /* \"#utility.yul\":2823:2829   */\n  dup3\n    /* \"#utility.yul\":2818:2821   */\n  dup3\n    /* \"#utility.yul\":2811:2830   */\n  mstore\n    /* \"#utility.yul\":2863:2867   */\n  0x20\n    /* \"#utility.yul\":2858:2861   */\n  dup3\n    /* \"#utility.yul\":2854:2868   */\n  add\n    /* \"#utility.yul\":2839:2868   */\n  swap1\n  pop\n    /* \"#utility.yul\":2705:2874   */\n  swap3\n  swap2\n  pop\n  pop\n  jump\t// out\n    /* \"#utility.yul\":2880:3044   */\ntag_28:\n    /* \"#utility.yul\":3020:3036   */\n  0x5a45524f5f53455155454e434552000000000000000000000000000000000000\n    /* \"#utility.yul\":3016:3017   */\n  0x00\n    /* \"#utility.yul\":3008:3014   */\n  dup3\n    /* \"#utility.yul\":3004:3018   */\n  add\n    /* \"#utility.yul\":2997:3037   */\n  mstore\n    /* \"#utility.yul\":2880:3044   */\n  pop\n  jump\t// out\n    /* \"#utility.yul\":3050:3416   */\ntag_29:\n    /* \"#utility.yul\":3192:3195   */\n  0x00\n    /* \"#utility.yul\":3213:3280   */\n  tag_66\n    /* \"#utility.yul\":3277:3279   */\n  0x0e\n    /* \"#utility.yul\":3272:3275   */\n  dup4\n    /* \"#utility.yul\":3213:3280   */\n  tag_27\n  jump\t// in\ntag_66:\n    /* \"#utility.yul\":3206:3280   */\n  swap2\n  pop\n    /* \"#utility.yul\":3289:3382   */\n  tag_67\n    /* \"#utility.yul\":3378:3381   */\n  dup3\n    /* \"#utility.yul\":3289:3382   */\n  tag_28\n  jump\t// in\ntag_67:\n    /* \"#utility.yul\":3407:3409   */\n  0x20\n    /* \"#utility.yul\":3402:3405   */\n  dup3\n    /* \"#utility.yul\":3398:3410   */\n  add\n    /* \"#utility.yul\":3391:3410   */\n  swap1\n  pop\n    /* \"#utility.yul\":3050:3416   */\n  swap2\n  swap1\n  pop\n  jump\t// out\n    /* \"#utility.yul\":3422:3841   */\ntag_12:\n    /* \"#utility.yul\":3588:3592   */\n  0x00\n    /* \"#utility.yul\":3626:3628   */\n  0x20\n    /* \"#utility.yul\":3615:3624   */\n  dup3\n    /* \"#utility.yul\":3611:3629   */\n  add\n    /* \"#utility.yul\":3603:3629   */\n  swap1\n  pop\n    /* \"#utility.yul\":3675:3684   */\n  dup2\n    /* \"#utility.yul\":3669:3673   */\n  dup2\n    /* \"#utility.yul\":3665:3685   */\n  sub\n    /* \"#utility.yul\":3661:3662   */\n  0x00\n    /* \"#utility.yul\":3650:3659   */\n  dup4\n    /* \"#utility.yul\":3646:3663   */\n  add\n    /* \"#utility.yul\":3639:3686   */\n  mstore\n    /* \"#utility.yul\":3703:3834   */\n  tag_69\n    /* \"#utility.yul\":3829:3833   */\n  dup2\n    /* \"#utility.yul\":3703:3834   */\n  tag_29\n  jump\t// in\ntag_69:\n    /* \"#utility.yul\":3695:3834   */\n  swap1\n  pop\n    /* \"#utility.yul\":3422:3841   */\n  swap2\n  swap1\n  pop\n  jump\t// out\n    /* \"Smart Contracts/26_OptimisticL2RollUps.sol\":2734:14109  contract OptimisticRollupSimulation is Pausable, ReentrancyGuard {... */\ntag_13:\n  dataSize(sub_0)\n  dup1\n  dataOffset(sub_0)\n  0x00\n  codecopy\n  0x00\n  return\nstop\n\nsub_0: assembly {\n        /* \"Smart Contracts/26_OptimisticL2RollUps.sol\":2734:14109  contract OptimisticRollupSimulation is Pausable, ReentrancyGuard {... */\n      mstore(0x40, 0x80)\n      jumpi(tag_1, lt(calldatasize, 0x04))\n      shr(0xe0, calldataload(0x00))\n      dup1\n      0x7b6605c5\n      gt\n      tag_32\n      jumpi\n      dup1\n      0xac2eba98\n      gt\n      tag_33\n      jumpi\n      dup1\n      0xe7b417a6\n      gt\n      tag_34\n      jumpi\n      dup1\n      0xe7b417a6\n      eq\n      tag_28\n      jumpi\n      dup1\n      0xf2fde38b\n      eq\n      tag_29\n      jumpi\n      dup1\n      0xf6326fb3\n      eq\n      tag_30\n      jumpi\n      dup1\n      0xfe10d774\n      eq\n      tag_31\n      jumpi\n      jump(tag_2)\n    tag_34:\n      dup1\n      0xac2eba98\n      eq\n      tag_24\n      jumpi\n      dup1\n      0xb32c4d8d\n      eq\n      tag_25\n      jumpi\n      dup1\n      0xde35f5cb\n      eq\n      tag_26\n      jumpi\n      dup1\n      0xe33491a7\n      eq\n      tag_27\n      jumpi\n      jump(tag_2)\n    tag_33:\n      dup1\n      0x8da5cb5b\n      gt\n      tag_35\n      jumpi\n      dup1\n      0x8da5cb5b\n      eq\n      tag_20\n      jumpi\n      dup1\n      0x8fe0c544\n      eq\n      tag_21\n      jumpi\n      dup1\n      0x97feb926\n      eq\n      tag_22\n      jumpi\n      dup1\n      0xa8608d18\n      eq\n      tag_23\n      jumpi\n      jump(tag_2)\n    tag_35:\n      dup1\n      0x7b6605c5\n      eq\n      tag_17\n      jumpi\n      dup1\n      0x8456cb59\n      eq\n      tag_18\n      jumpi\n      dup1\n      0x861a1412\n      eq\n      tag_19\n      jumpi\n      jump(tag_2)\n    tag_32:\n      dup1\n      0x5a0ce676\n      gt\n      tag_36\n      jumpi\n      dup1\n      0x5c975abb\n      gt\n      tag_37\n      jumpi\n      dup1\n      0x5c975abb\n      eq\n      tag_13\n      jumpi\n      dup1\n      0x64c9ec6f\n      eq\n      tag_14\n      jumpi\n      dup1\n      0x67f4f4eb\n      eq\n      tag_15\n      jumpi\n      dup1\n      0x68ccdc86\n      eq\n      tag_16\n      jumpi\n      jump(tag_2)\n    tag_37:\n      dup1\n      0x5a0ce676\n      eq\n      tag_10\n      jumpi\n      dup1\n      0x5c0b2cd3\n      eq\n      tag_11\n      jumpi\n      dup1\n      0x5c1bba38\n      eq\n      tag_12\n      jumpi\n      jump(tag_2)\n    tag_36:\n      dup1\n      0x27de9e32\n      gt\n      tag_38\n      jumpi\n      dup1\n      0x27de9e32\n      eq\n      tag_6\n      jumpi\n      dup1\n      0x3f4ba83a\n      eq\n      tag_7\n      jumpi\n      dup1\n      0x4d4e7019\n      eq\n      tag_8\n      jumpi\n      dup1\n      0x57348b83\n      eq\n      tag_9\n      jumpi\n      jump(tag_2)\n    tag_38:\n      dup1\n      0x129d8000\n      eq\n      tag_3\n      jumpi\n      dup1\n      0x147e4e8f\n      eq\n      tag_4\n      jumpi\n      dup1\n      0x2547fa3e\n      eq\n      tag_5\n      jumpi\n      jump(tag_2)\n    tag_1:\n      jumpi(tag_2, calldatasize)\n      stop\n    tag_2:\n      revert(0x00, 0x00)\n        /* \"Smart Contracts/26_OptimisticL2RollUps.sol\":11978:13119  function claimWithdrawal(... */\n    tag_3:\n      callvalue\n      dup1\n      iszero\n      tag_41\n      jumpi\n      revert(0x00, 0x00)\n    tag_41:\n      pop\n      tag_42\n      0x04\n      dup1\n      calldatasize\n      sub\n      dup2\n      add\n      swap1\n      tag_43\n      swap2\n      swap1\n      tag_44\n      jump\t// in\n    tag_43:\n      tag_45\n      jump\t// in\n    tag_42:\n      stop\n        /* \"Smart Contracts/26_OptimisticL2RollUps.sol\":13169:13993  function batchStatus(uint256 batchId) external view returns (... */\n    tag_4:\n      callvalue\n      dup1\n      iszero\n      tag_46\n      jumpi\n      revert(0x00, 0x00)\n    tag_46:\n      pop\n      tag_47\n      0x04\n      dup1\n      calldatasize\n      sub\n      dup2\n      add\n      swap1\n      tag_48\n      swap2\n      swap1\n      tag_49\n      jump\t// in\n    tag_48:\n      tag_50\n      jump\t// in\n    tag_47:\n      mload(0x40)\n      tag_51\n      swap11\n      swap10\n      swap9\n      swap8\n      swap7\n      swap6\n      swap5\n      swap4\n      swap3\n      swap2\n      swap1\n      tag_52\n      jump\t// in\n    tag_51:\n      mload(0x40)\n      dup1\n      swap2\n      sub\n      swap1\n      return\n        /* \"Smart Contracts/26_OptimisticL2RollUps.sol\":6269:6491  function setSequencer(address newSequencer) external onlyOwner {... */\n    tag_5:\n      callvalue\n      dup1\n      iszero\n      tag_53\n      jumpi\n      revert(0x00, 0x00)\n    tag_53:\n      pop\n      tag_54\n      0x04\n      dup1\n      calldatasize\n      sub\n      dup2\n      add\n      swap1\n      tag_55\n      swap2\n      swap1\n      tag_56\n      jump\t// in\n    tag_55:\n      tag_57\n      jump\t// in\n    tag_54:\n      stop\n        /* \"Smart Contracts/26_OptimisticL2RollUps.sol\":7255:7587  function unbond(uint256 amount) external whenNotPaused nonReentrant {... */\n    tag_6:\n      callvalue\n      dup1\n      iszero\n      tag_58\n      jumpi\n      revert(0x00, 0x00)\n    tag_58:\n      pop\n      tag_59\n      0x04\n      dup1\n      calldatasize\n      sub\n      dup2\n      add\n      swap1\n      tag_60\n      swap2\n      swap1\n      tag_49\n      jump\t// in\n    tag_60:\n      tag_61\n      jump\t// in\n    tag_59:\n      stop\n        /* \"Smart Contracts/26_OptimisticL2RollUps.sol\":2643:2727  function unpause() external onlyOwner { paused = false; emit Unpaused(msg.sender); } */\n    tag_7:\n      callvalue\n      dup1\n      iszero\n      tag_62\n      jumpi\n      revert(0x00, 0x00)\n    tag_62:\n      pop\n      tag_63\n      tag_64\n      jump\t// in\n    tag_63:\n      stop\n        /* \"Smart Contracts/26_OptimisticL2RollUps.sol\":3924:3952  uint256 public latestBatchId */\n    tag_8:\n      callvalue\n      dup1\n      iszero\n      tag_65\n      jumpi\n      revert(0x00, 0x00)\n    tag_65:\n      pop\n      tag_66\n      tag_67\n      jump\t// in\n    tag_66:\n      mload(0x40)\n      tag_68\n      swap2\n      swap1\n      tag_69\n      jump\t// in\n    tag_68:\n      mload(0x40)\n      dup1\n      swap2\n      sub\n      swap1\n      return\n        /* \"Smart Contracts/26_OptimisticL2RollUps.sol\":5167:5236  mapping(uint256 => mapping(bytes32 => bool)) public withdrawalClaimed */\n    tag_9:\n      callvalue\n      dup1\n      iszero\n      tag_70\n      jumpi\n      revert(0x00, 0x00)\n    tag_70:\n      pop\n      tag_71\n      0x04\n      dup1\n      calldatasize\n      sub\n      dup2\n      add\n      swap1\n      tag_72\n      swap2\n      swap1\n      tag_73\n      jump\t// in\n    tag_72:\n      tag_74\n      jump\t// in\n    tag_71:\n      mload(0x40)\n      tag_75\n      swap2\n      swap1\n      tag_76\n      jump\t// in\n    tag_75:\n      mload(0x40)\n      dup1\n      swap2\n      sub\n      swap1\n      return\n        /* \"Smart Contracts/26_OptimisticL2RollUps.sol\":6680:7010  function setParams(uint256 _challengeWindow, uint256 _sequencerBond, uint256 _challengerBond) external onlyOwner {... */\n    tag_10:\n      callvalue\n      dup1\n      iszero\n      tag_77\n      jumpi\n      revert(0x00, 0x00)\n    tag_77:\n      pop\n      tag_78\n      0x04\n      dup1\n      calldatasize\n      sub\n      dup2\n      add\n      swap1\n      tag_79\n      swap2\n      swap1\n      tag_80\n      jump\t// in\n    tag_79:\n      tag_81\n      jump\t// in\n    tag_78:\n      stop\n        /* \"Smart Contracts/26_OptimisticL2RollUps.sol\":3356:3396  IFraudProofVerifier public fraudVerifier */\n    tag_11:\n      callvalue\n      dup1\n      iszero\n      tag_82\n      jumpi\n      revert(0x00, 0x00)\n    tag_82:\n      pop\n      tag_83\n      tag_84\n      jump\t// in\n    tag_83:\n      mload(0x40)\n      tag_85\n      swap2\n      swap1\n      tag_86\n      jump\t// in\n    tag_85:\n      mload(0x40)\n      dup1\n      swap2\n      sub\n      swap1\n      return\n        /* \"Smart Contracts/26_OptimisticL2RollUps.sol\":3325:3349  address public sequencer */\n    tag_12:\n      callvalue\n      dup1\n      iszero\n      tag_87\n      jumpi\n      revert(0x00, 0x00)\n    tag_87:\n      pop\n      tag_88\n      tag_89\n      jump\t// in\n    tag_88:\n      mload(0x40)\n      tag_90\n      swap2\n      swap1\n      tag_91\n      jump\t// in\n    tag_90:\n      mload(0x40)\n      dup1\n      swap2\n      sub\n      swap1\n      return\n        /* \"Smart Contracts/26_OptimisticL2RollUps.sol\":2384:2402  bool public paused */\n    tag_13:\n      callvalue\n      dup1\n      iszero\n      tag_92\n      jumpi\n      revert(0x00, 0x00)\n    tag_92:\n      pop\n      tag_93\n      tag_94\n      jump\t// in\n    tag_93:\n      mload(0x40)\n      tag_95\n      swap2\n      swap1\n      tag_76\n      jump\t// in\n    tag_95:\n      mload(0x40)\n      dup1\n      swap2\n      sub\n      swap1\n      return\n        /* \"Smart Contracts/26_OptimisticL2RollUps.sol\":7056:7247  function bond() external payable whenNotPaused {... */\n    tag_14:\n      tag_96\n      tag_97\n      jump\t// in\n    tag_96:\n      stop\n        /* \"Smart Contracts/26_OptimisticL2RollUps.sol\":8362:9235  function submitBatch(... */\n    tag_15:\n      callvalue\n      dup1\n      iszero\n      tag_98\n      jumpi\n      revert(0x00, 0x00)\n    tag_98:\n      pop\n      tag_99\n      0x04\n      dup1\n      calldatasize\n      sub\n      dup2\n      add\n      swap1\n      tag_100\n      swap2\n      swap1\n      tag_101\n      jump\t// in\n    tag_100:\n      tag_102\n      jump\t// in\n    tag_99:\n      stop\n        /* \"Smart Contracts/26_OptimisticL2RollUps.sol\":3488:3517  uint256 public challengerBond */\n    tag_16:\n      callvalue\n      dup1\n      iszero\n      tag_103\n      jumpi\n      revert(0x00, 0x00)\n    tag_103:\n      pop\n      tag_104\n      tag_105\n      jump\t// in\n    tag_104:\n      mload(0x40)\n      tag_106\n      swap2\n      swap1\n      tag_69\n      jump\t// in\n    tag_106:\n      mload(0x40)\n      dup1\n      swap2\n      sub\n      swap1\n      return\n        /* \"Smart Contracts/26_OptimisticL2RollUps.sol\":9885:11397  function resolveChallenge(uint256 batchId, bytes calldata proof) external whenNotPaused {... */\n    tag_17:\n      callvalue\n      dup1\n      iszero\n      tag_107\n      jumpi\n      revert(0x00, 0x00)\n    tag_107:\n      pop\n      tag_108\n      0x04\n      dup1\n      calldatasize\n      sub\n      dup2\n      add\n      swap1\n      tag_109\n      swap2\n      swap1\n      tag_110\n      jump\t// in\n    tag_109:\n      tag_111\n      jump\t// in\n    tag_108:\n      stop\n        /* \"Smart Contracts/26_OptimisticL2RollUps.sol\":2558:2637  function pause() external onlyOwner { paused = true; emit Paused(msg.sender); } */\n    tag_18:\n      callvalue\n      dup1\n      iszero\n      tag_112\n      jumpi\n      revert(0x00, 0x00)\n    tag_112:\n      pop\n      tag_113\n      tag_114\n      jump\t// in\n    tag_113:\n      stop\n        /* \"Smart Contracts/26_OptimisticL2RollUps.sol\":3524:3554  uint256 public challengeWindow */\n    tag_19:\n      callvalue\n      dup1\n      iszero\n      tag_115\n      jumpi\n      revert(0x00, 0x00)\n    tag_115:\n      pop\n      tag_116\n      tag_117\n      jump\t// in\n    tag_116:\n      mload(0x40)\n      tag_118\n      swap2\n      swap1\n      tag_69\n      jump\t// in\n    tag_118:\n      mload(0x40)\n      dup1\n      swap2\n      sub\n      swap1\n      return\n        /* \"Smart Contracts/26_OptimisticL2RollUps.sol\":1813:1833  address public owner */\n    tag_20:\n      callvalue\n      dup1\n      iszero\n      tag_119\n      jumpi\n      revert(0x00, 0x00)\n    tag_119:\n      pop\n      tag_120\n      tag_121\n      jump\t// in\n    tag_120:\n      mload(0x40)\n      tag_122\n      swap2\n      swap1\n      tag_91\n      jump\t// in\n    tag_122:\n      mload(0x40)\n      dup1\n      swap2\n      sub\n      swap1\n      return\n        /* \"Smart Contracts/26_OptimisticL2RollUps.sol\":9283:9877  function challengeBatch(uint256 batchId) external whenNotPaused {... */\n    tag_21:\n      callvalue\n      dup1\n      iszero\n      tag_123\n      jumpi\n      revert(0x00, 0x00)\n    tag_123:\n      pop\n      tag_124\n      0x04\n      dup1\n      calldatasize\n      sub\n      dup2\n      add\n      swap1\n      tag_125\n      swap2\n      swap1\n      tag_49\n      jump\t// in\n    tag_125:\n      tag_126\n      jump\t// in\n    tag_124:\n      stop\n        /* \"Smart Contracts/26_OptimisticL2RollUps.sol\":7842:8193  function depositERC20(address token, uint256 amount) external whenNotPaused {... */\n    tag_22:\n      callvalue\n      dup1\n      iszero\n      tag_127\n      jumpi\n      revert(0x00, 0x00)\n    tag_127:\n      pop\n      tag_128\n      0x04\n      dup1\n      calldatasize\n      sub\n      dup2\n      add\n      swap1\n      tag_129\n      swap2\n      swap1\n      tag_130\n      jump\t// in\n    tag_129:\n      tag_131\n      jump\t// in\n    tag_128:\n      stop\n        /* \"Smart Contracts/26_OptimisticL2RollUps.sol\":3453:3481  uint256 public sequencerBond */\n    tag_23:\n      callvalue\n      dup1\n      iszero\n      tag_132\n      jumpi\n      revert(0x00, 0x00)\n    tag_132:\n      pop\n      tag_133\n      tag_134\n      jump\t// in\n    tag_133:\n      mload(0x40)\n      tag_135\n      swap2\n      swap1\n      tag_69\n      jump\t// in\n    tag_135:\n      mload(0x40)\n      dup1\n      swap2\n      sub\n      swap1\n      return\n        /* \"Smart Contracts/26_OptimisticL2RollUps.sol\":4008:4039  bytes32 public currentStateRoot */\n    tag_24:\n      callvalue\n      dup1\n      iszero\n      tag_136\n      jumpi\n      revert(0x00, 0x00)\n    tag_136:\n      pop\n      tag_137\n      tag_138\n      jump\t// in\n    tag_137:\n      mload(0x40)\n      tag_139\n      swap2\n      swap1\n      tag_140\n      jump\t// in\n    tag_139:\n      mload(0x40)\n      dup1\n      swap2\n      sub\n      swap1\n      return\n        /* \"Smart Contracts/26_OptimisticL2RollUps.sol\":3959:3999  mapping(uint256 => Batch) public batches */\n    tag_25:\n      callvalue\n      dup1\n      iszero\n      tag_141\n      jumpi\n      revert(0x00, 0x00)\n    tag_141:\n      pop\n      tag_142\n      0x04\n      dup1\n      calldatasize\n      sub\n      dup2\n      add\n      swap1\n      tag_143\n      swap2\n      swap1\n      tag_49\n      jump\t// in\n    tag_143:\n      tag_144\n      jump\t// in\n    tag_142:\n      mload(0x40)\n      tag_145\n      swap9\n      swap8\n      swap7\n      swap6\n      swap5\n      swap4\n      swap3\n      swap2\n      swap1\n      tag_146\n      jump\t// in\n    tag_145:\n      mload(0x40)\n      dup1\n      swap2\n      sub\n      swap1\n      return\n        /* \"Smart Contracts/26_OptimisticL2RollUps.sol\":4087:4114  uint256 public depositNonce */\n    tag_26:\n      callvalue\n      dup1\n      iszero\n      tag_147\n      jumpi\n      revert(0x00, 0x00)\n    tag_147:\n      pop\n      tag_148\n      tag_149\n      jump\t// in\n    tag_148:\n      mload(0x40)\n      tag_150\n      swap2\n      swap1\n      tag_69\n      jump\t// in\n    tag_150:\n      mload(0x40)\n      dup1\n      swap2\n      sub\n      swap1\n      return\n        /* \"Smart Contracts/26_OptimisticL2RollUps.sol\":11448:11928  function finalizeBatch(uint256 batchId) external whenNotPaused {... */\n    tag_27:\n      callvalue\n      dup1\n      iszero\n      tag_151\n      jumpi\n      revert(0x00, 0x00)\n    tag_151:\n      pop\n      tag_152\n      0x04\n      dup1\n      calldatasize\n      sub\n      dup2\n      add\n      swap1\n      tag_153\n      swap2\n      swap1\n      tag_49\n      jump\t// in\n    tag_153:\n      tag_154\n      jump\t// in\n    tag_152:\n      stop\n        /* \"Smart Contracts/26_OptimisticL2RollUps.sol\":6499:6672  function setFraudVerifier(address verifier) external onlyOwner {... */\n    tag_28:\n      callvalue\n      dup1\n      iszero\n      tag_155\n      jumpi\n      revert(0x00, 0x00)\n    tag_155:\n      pop\n      tag_156\n      0x04\n      dup1\n      calldatasize\n      sub\n      dup2\n      add\n      swap1\n      tag_157\n      swap2\n      swap1\n      tag_56\n      jump\t// in\n    tag_157:\n      tag_158\n      jump\t// in\n    tag_156:\n      stop\n        /* \"Smart Contracts/26_OptimisticL2RollUps.sol\":2125:2332  function transferOwnership(address newOwner) external onlyOwner {... */\n    tag_29:\n      callvalue\n      dup1\n      iszero\n      tag_159\n      jumpi\n      revert(0x00, 0x00)\n    tag_159:\n      pop\n      tag_160\n      0x04\n      dup1\n      calldatasize\n      sub\n      dup2\n      add\n      swap1\n      tag_161\n      swap2\n      swap1\n      tag_56\n      jump\t// in\n    tag_161:\n      tag_162\n      jump\t// in\n    tag_160:\n      stop\n        /* \"Smart Contracts/26_OptimisticL2RollUps.sol\":7634:7834  function depositETH() external payable whenNotPaused {... */\n    tag_30:\n      tag_163\n      tag_164\n      jump\t// in\n    tag_163:\n      stop\n        /* \"Smart Contracts/26_OptimisticL2RollUps.sol\":3563:3603  mapping(address => uint256) public bonds */\n    tag_31:\n      callvalue\n      dup1\n      iszero\n      tag_165\n      jumpi\n      revert(0x00, 0x00)\n    tag_165:\n      pop\n      tag_166\n      0x04\n      dup1\n      calldatasize\n      sub\n      dup2\n      add\n      swap1\n      tag_167\n      swap2\n      swap1\n      tag_56\n      jump\t// in\n    tag_167:\n      tag_168\n      jump\t// in\n    tag_166:\n      mload(0x40)\n      tag_169\n      swap2\n      swap1\n      tag_69\n      jump\t// in\n    tag_169:\n      mload(0x40)\n      dup1\n      swap2\n      sub\n      swap1\n      return\n        /* \"Smart Contracts/26_OptimisticL2RollUps.sol\":11978:13119  function claimWithdrawal(... */\n    tag_45:\n        /* \"Smart Contracts/26_OptimisticL2RollUps.sol\":2527:2533  paused */\n      0x00\n      0x14\n      swap1\n      sload\n      swap1\n      0x0100\n      exp\n      swap1\n      div\n      0xff\n      and\n        /* \"Smart Contracts/26_OptimisticL2RollUps.sol\":2526:2533  !paused */\n      iszero\n        /* \"Smart Contracts/26_OptimisticL2RollUps.sol\":2518:2544  require(!paused, \"PAUSED\") */\n      tag_171\n      jumpi\n      mload(0x40)\n      0x08c379a000000000000000000000000000000000000000000000000000000000\n      dup2\n      mstore\n      0x04\n      add\n      tag_172\n      swap1\n      tag_173\n      jump\t// in\n    tag_172:\n      mload(0x40)\n      dup1\n      swap2\n      sub\n      swap1\n      revert\n    tag_171:\n        /* \"Smart Contracts/26_OptimisticL2RollUps.sol\":1693:1694  1 */\n      0x01\n        /* \"Smart Contracts/26_OptimisticL2RollUps.sol\":1682:1689  _status */\n      dup1\n      sload\n        /* \"Smart Contracts/26_OptimisticL2RollUps.sol\":1682:1694  _status == 1 */\n      eq\n        /* \"Smart Contracts/26_OptimisticL2RollUps.sol\":1674:1709  require(_status == 1, \"REENTRANCY\") */\n      tag_175\n      jumpi\n      mload(0x40)\n      0x08c379a000000000000000000000000000000000000000000000000000000000\n      dup2\n      mstore\n      0x04\n      add\n      tag_176\n      swap1\n      tag_177\n      jump\t// in\n    tag_176:\n      mload(0x40)\n      dup1\n      swap2\n      sub\n      swap1\n      revert\n    tag_175:\n        /* \"Smart Contracts/26_OptimisticL2RollUps.sol\":1730:1731  2 */\n      0x02\n        /* \"Smart Contracts/26_OptimisticL2RollUps.sol\":1720:1727  _status */\n      0x01\n        /* \"Smart Contracts/26_OptimisticL2RollUps.sol\":1720:1731  _status = 2 */\n      dup2\n      swap1\n      sstore\n      pop\n        /* \"Smart Contracts/26_OptimisticL2RollUps.sol\":12225:12240  Batch storage b */\n      0x00\n        /* \"Smart Contracts/26_OptimisticL2RollUps.sol\":12243:12250  batches */\n      0x09\n        /* \"Smart Contracts/26_OptimisticL2RollUps.sol\":12243:12259  batches[batchId] */\n      0x00\n        /* \"Smart Contracts/26_OptimisticL2RollUps.sol\":12251:12258  batchId */\n      dup9\n        /* \"Smart Contracts/26_OptimisticL2RollUps.sol\":12243:12259  batches[batchId] */\n      dup2\n      mstore\n      0x20\n      add\n      swap1\n      dup2\n      mstore\n      0x20\n      add\n      0x00\n      keccak256\n        /* \"Smart Contracts/26_OptimisticL2RollUps.sol\":12225:12259  Batch storage b = batches[batchId] */\n      swap1\n      pop\n        /* \"Smart Contracts/26_OptimisticL2RollUps.sol\":12291:12292  0 */\n      0x00\n        /* \"Smart Contracts/26_OptimisticL2RollUps.sol\":12274:12275  b */\n      dup2\n        /* \"Smart Contracts/26_OptimisticL2RollUps.sol\":12274:12287  b.submittedAt */\n      0x04\n      add\n      0x00\n      swap1\n      sload\n      swap1\n      0x0100\n      exp\n      swap1\n      div\n      0xffffffffffffffff\n      and\n        /* \"Smart Contracts/26_OptimisticL2RollUps.sol\":12274:12292  b.submittedAt == 0 */\n      0xffffffffffffffff\n      and\n      sub\n        /* \"Smart Contracts/26_OptimisticL2RollUps.sol\":12270:12316  if (b.submittedAt == 0) revert BatchNotFound() */\n      tag_179\n      jumpi\n        /* \"Smart Contracts/26_OptimisticL2RollUps.sol\":12301:12316  BatchNotFound() */\n      mload(0x40)\n      0x9e15e1bc00000000000000000000000000000000000000000000000000000000\n      dup2\n      mstore\n      0x04\n      add\n      mload(0x40)\n      dup1\n      swap2\n      sub\n      swap1\n      revert\n        /* \"Smart Contracts/26_OptimisticL2RollUps.sol\":12270:12316  if (b.submittedAt == 0) revert BatchNotFound() */\n    tag_179:\n        /* \"Smart Contracts/26_OptimisticL2RollUps.sol\":12332:12333  b */\n      dup1\n        /* \"Smart Contracts/26_OptimisticL2RollUps.sol\":12332:12343  b.finalized */\n      0x04\n      add\n      0x09\n      swap1\n      sload\n      swap1\n      0x0100\n      exp\n      swap1\n      div\n      0xff\n      and\n        /* \"Smart Contracts/26_OptimisticL2RollUps.sol\":12327:12371  if (!b.finalized) revert BatchNotFinalized() */\n      tag_180\n      jumpi\n        /* \"Smart Contracts/26_OptimisticL2RollUps.sol\":12352:12371  BatchNotFinalized() */\n      mload(0x40)\n      0x5565870f00000000000000000000000000000000000000000000000000000000\n      dup2\n      mstore\n      0x04\n      add\n      mload(0x40)\n      dup1\n      swap2\n      sub\n      swap1\n      revert\n        /* \"Smart Contracts/26_OptimisticL2RollUps.sol\":12327:12371  if (!b.finalized) revert BatchNotFinalized() */\n    tag_180:\n        /* \"Smart Contracts/26_OptimisticL2RollUps.sol\":12396:12397  0 */\n      0x00\n        /* \"Smart Contracts/26_OptimisticL2RollUps.sol\":12386:12392  amount */\n      dup6\n        /* \"Smart Contracts/26_OptimisticL2RollUps.sol\":12386:12397  amount == 0 */\n      sub\n        /* \"Smart Contracts/26_OptimisticL2RollUps.sol\":12382:12418  if (amount == 0) revert ZeroAmount() */\n      tag_181\n      jumpi\n        /* \"Smart Contracts/26_OptimisticL2RollUps.sol\":12406:12418  ZeroAmount() */\n      mload(0x40)\n      0x1f2a200500000000000000000000000000000000000000000000000000000000\n      dup2\n      mstore\n      0x04\n      add\n      mload(0x40)\n      dup1\n      swap2\n      sub\n      swap1\n      revert\n        /* \"Smart Contracts/26_OptimisticL2RollUps.sol\":12382:12418  if (amount == 0) revert ZeroAmount() */\n    tag_181:\n        /* \"Smart Contracts/26_OptimisticL2RollUps.sol\":12431:12443  bytes32 leaf */\n      0x00\n        /* \"Smart Contracts/26_OptimisticL2RollUps.sol\":12473:12483  msg.sender */\n      caller\n        /* \"Smart Contracts/26_OptimisticL2RollUps.sol\":12485:12490  token */\n      dup8\n        /* \"Smart Contracts/26_OptimisticL2RollUps.sol\":12492:12498  amount */\n      dup8\n        /* \"Smart Contracts/26_OptimisticL2RollUps.sol\":12500:12505  nonce */\n      dup8\n        /* \"Smart Contracts/26_OptimisticL2RollUps.sol\":12456:12506  abi.encodePacked(msg.sender, token, amount, nonce) */\n      add(0x20, mload(0x40))\n      tag_182\n      swap5\n      swap4\n      swap3\n      swap2\n      swap1\n      tag_183\n      jump\t// in\n    tag_182:\n      mload(0x40)\n      0x20\n      dup2\n      dup4\n      sub\n      sub\n      dup2\n      mstore\n      swap1\n      0x40\n      mstore\n        /* \"Smart Contracts/26_OptimisticL2RollUps.sol\":12446:12507  keccak256(abi.encodePacked(msg.sender, token, amount, nonce)) */\n      dup1\n      mload\n      swap1\n      0x20\n      add\n      keccak256\n        /* \"Smart Contracts/26_OptimisticL2RollUps.sol\":12431:12507  bytes32 leaf = keccak256(abi.encodePacked(msg.sender, token, amount, nonce)) */\n      swap1\n      pop\n        /* \"Smart Contracts/26_OptimisticL2RollUps.sol\":12524:12541  withdrawalClaimed */\n      0x0c\n        /* \"Smart Contracts/26_OptimisticL2RollUps.sol\":12524:12550  withdrawalClaimed[batchId] */\n      0x00\n        /* \"Smart Contracts/26_OptimisticL2RollUps.sol\":12542:12549  batchId */\n      dup10\n        /* \"Smart Contracts/26_OptimisticL2RollUps.sol\":12524:12550  withdrawalClaimed[batchId] */\n      dup2\n      mstore\n      0x20\n      add\n      swap1\n      dup2\n      mstore\n      0x20\n      add\n      0x00\n      keccak256\n        /* \"Smart Contracts/26_OptimisticL2RollUps.sol\":12524:12556  withdrawalClaimed[batchId][leaf] */\n      0x00\n        /* \"Smart Contracts/26_OptimisticL2RollUps.sol\":12551:12555  leaf */\n      dup3\n        /* \"Smart Contracts/26_OptimisticL2RollUps.sol\":12524:12556  withdrawalClaimed[batchId][leaf] */\n      dup2\n      mstore\n      0x20\n      add\n      swap1\n      dup2\n      mstore\n      0x20\n      add\n      0x00\n      keccak256\n      0x00\n      swap1\n      sload\n      swap1\n      0x0100\n      exp\n      swap1\n      div\n      0xff\n      and\n        /* \"Smart Contracts/26_OptimisticL2RollUps.sol\":12520:12591  if (withdrawalClaimed[batchId][leaf]) revert WithdrawalAlreadyClaimed() */\n      iszero\n      tag_184\n      jumpi\n        /* \"Smart Contracts/26_OptimisticL2RollUps.sol\":12565:12591  WithdrawalAlreadyClaimed() */\n      mload(0x40)\n      0x2f29b3db00000000000000000000000000000000000000000000000000000000\n      dup2\n      mstore\n      0x04\n      add\n      mload(0x40)\n      dup1\n      swap2\n      sub\n      swap1\n      revert\n        /* \"Smart Contracts/26_OptimisticL2RollUps.sol\":12520:12591  if (withdrawalClaimed[batchId][leaf]) revert WithdrawalAlreadyClaimed() */\n    tag_184:\n        /* \"Smart Contracts/26_OptimisticL2RollUps.sol\":12607:12665  MerkleProofLib.verify(merkleProof, b.withdrawalRoot, leaf) */\n      tag_185\n        /* \"Smart Contracts/26_OptimisticL2RollUps.sol\":12629:12640  merkleProof */\n      dup5\n      dup5\n        /* \"Smart Contracts/26_OptimisticL2RollUps.sol\":12642:12643  b */\n      dup5\n        /* \"Smart Contracts/26_OptimisticL2RollUps.sol\":12642:12658  b.withdrawalRoot */\n      0x03\n      add\n      sload\n        /* \"Smart Contracts/26_OptimisticL2RollUps.sol\":12660:12664  leaf */\n      dup5\n        /* \"Smart Contracts/26_OptimisticL2RollUps.sol\":12607:12628  MerkleProofLib.verify */\n      tag_186\n        /* \"Smart Contracts/26_OptimisticL2RollUps.sol\":12607:12665  MerkleProofLib.verify(merkleProof, b.withdrawalRoot, leaf) */\n      jump\t// in\n    tag_185:\n        /* \"Smart Contracts/26_OptimisticL2RollUps.sol\":12602:12688  if (!MerkleProofLib.verify(merkleProof, b.withdrawalRoot, leaf)) revert InvalidProof() */\n      tag_187\n      jumpi\n        /* \"Smart Contracts/26_OptimisticL2RollUps.sol\":12674:12688  InvalidProof() */\n      mload(0x40)\n      0x09bde33900000000000000000000000000000000000000000000000000000000\n      dup2\n      mstore\n      0x04\n      add\n      mload(0x40)\n      dup1\n      swap2\n      sub\n      swap1\n      revert\n        /* \"Smart Contracts/26_OptimisticL2RollUps.sol\":12602:12688  if (!MerkleProofLib.verify(merkleProof, b.withdrawalRoot, leaf)) revert InvalidProof() */\n    tag_187:\n        /* \"Smart Contracts/26_OptimisticL2RollUps.sol\":12736:12740  true */\n      0x01\n        /* \"Smart Contracts/26_OptimisticL2RollUps.sol\":12701:12718  withdrawalClaimed */\n      0x0c\n        /* \"Smart Contracts/26_OptimisticL2RollUps.sol\":12701:12727  withdrawalClaimed[batchId] */\n      0x00\n        /* \"Smart Contracts/26_OptimisticL2RollUps.sol\":12719:12726  batchId */\n      dup11\n        /* \"Smart Contracts/26_OptimisticL2RollUps.sol\":12701:12727  withdrawalClaimed[batchId] */\n      dup2\n      mstore\n      0x20\n      add\n      swap1\n      dup2\n      mstore\n      0x20\n      add\n      0x00\n      keccak256\n        /* \"Smart Contracts/26_OptimisticL2RollUps.sol\":12701:12733  withdrawalClaimed[batchId][leaf] */\n      0x00\n        /* \"Smart Contracts/26_OptimisticL2RollUps.sol\":12728:12732  leaf */\n      dup4\n        /* \"Smart Contracts/26_OptimisticL2RollUps.sol\":12701:12733  withdrawalClaimed[batchId][leaf] */\n      dup2\n      mstore\n      0x20\n      add\n      swap1\n      dup2\n      mstore\n      0x20\n      add\n      0x00\n      keccak256\n      0x00\n        /* \"Smart Contracts/26_OptimisticL2RollUps.sol\":12701:12740  withdrawalClaimed[batchId][leaf] = true */\n      0x0100\n      exp\n      dup2\n      sload\n      dup2\n      0xff\n      mul\n      not\n      and\n      swap1\n      dup4\n      iszero\n      iszero\n      mul\n      or\n      swap1\n      sstore\n      pop\n        /* \"Smart Contracts/26_OptimisticL2RollUps.sol\":12774:12775  0 */\n      0x00\n        /* \"Smart Contracts/26_OptimisticL2RollUps.sol\":12757:12776  token == address(0) */\n      0xffffffffffffffffffffffffffffffffffffffff\n      and\n        /* \"Smart Contracts/26_OptimisticL2RollUps.sol\":12757:12762  token */\n      dup8\n        /* \"Smart Contracts/26_OptimisticL2RollUps.sol\":12757:12776  token == address(0) */\n      0xffffffffffffffffffffffffffffffffffffffff\n      and\n      sub\n        /* \"Smart Contracts/26_OptimisticL2RollUps.sol\":12753:13034  if (token == address(0)) {... */\n      tag_188\n      jumpi\n        /* \"Smart Contracts/26_OptimisticL2RollUps.sol\":12794:12801  bool ok */\n      0x00\n        /* \"Smart Contracts/26_OptimisticL2RollUps.sol\":12807:12817  msg.sender */\n      caller\n        /* \"Smart Contracts/26_OptimisticL2RollUps.sol\":12807:12822  msg.sender.call */\n      0xffffffffffffffffffffffffffffffffffffffff\n      and\n        /* \"Smart Contracts/26_OptimisticL2RollUps.sol\":12830:12836  amount */\n      dup8\n        /* \"Smart Contracts/26_OptimisticL2RollUps.sol\":12807:12841  msg.sender.call{value: amount}(\"\") */\n      mload(0x40)\n      tag_189\n      swap1\n      tag_190\n      jump\t// in\n    tag_189:\n      0x00\n      mload(0x40)\n      dup1\n      dup4\n      sub\n      dup2\n      dup6\n      dup8\n      gas\n      call\n      swap3\n      pop\n      pop\n      pop\n      returndatasize\n      dup1\n      0x00\n      dup2\n      eq\n      tag_193\n      jumpi\n      mload(0x40)\n      swap2\n      pop\n      and(add(returndatasize, 0x3f), not(0x1f))\n      dup3\n      add\n      0x40\n      mstore\n      returndatasize\n      dup3\n      mstore\n      returndatasize\n      0x00\n      0x20\n      dup5\n      add\n      returndatacopy\n      jump(tag_192)\n    tag_193:\n      0x60\n      swap2\n      pop\n    tag_192:\n      pop\n        /* \"Smart Contracts/26_OptimisticL2RollUps.sol\":12793:12841  (bool ok, ) = msg.sender.call{value: amount}(\"\") */\n      pop\n      swap1\n      pop\n        /* \"Smart Contracts/26_OptimisticL2RollUps.sol\":12861:12863  ok */\n      dup1\n        /* \"Smart Contracts/26_OptimisticL2RollUps.sol\":12856:12888  if (!ok) revert TransferFailed() */\n      tag_194\n      jumpi\n        /* \"Smart Contracts/26_OptimisticL2RollUps.sol\":12872:12888  TransferFailed() */\n      mload(0x40)\n      0x90b8ec1800000000000000000000000000000000000000000000000000000000\n      dup2\n      mstore\n      0x04\n      add\n      mload(0x40)\n      dup1\n      swap2\n      sub\n      swap1\n      revert\n        /* \"Smart Contracts/26_OptimisticL2RollUps.sol\":12856:12888  if (!ok) revert TransferFailed() */\n    tag_194:\n        /* \"Smart Contracts/26_OptimisticL2RollUps.sol\":12778:12900  {... */\n      pop\n        /* \"Smart Contracts/26_OptimisticL2RollUps.sol\":12753:13034  if (token == address(0)) {... */\n      jump(tag_195)\n    tag_188:\n        /* \"Smart Contracts/26_OptimisticL2RollUps.sol\":12921:12929  bool ok2 */\n      0x00\n        /* \"Smart Contracts/26_OptimisticL2RollUps.sol\":12939:12944  token */\n      dup8\n        /* \"Smart Contracts/26_OptimisticL2RollUps.sol\":12932:12954  IERC20(token).transfer */\n      0xffffffffffffffffffffffffffffffffffffffff\n      and\n      0xa9059cbb\n        /* \"Smart Contracts/26_OptimisticL2RollUps.sol\":12955:12965  msg.sender */\n      caller\n        /* \"Smart Contracts/26_OptimisticL2RollUps.sol\":12967:12973  amount */\n      dup10\n        /* \"Smart Contracts/26_OptimisticL2RollUps.sol\":12932:12974  IERC20(token).transfer(msg.sender, amount) */\n      mload(0x40)\n      dup4\n      0xffffffff\n      and\n      0xe0\n      shl\n      dup2\n      mstore\n      0x04\n      add\n      tag_196\n      swap3\n      swap2\n      swap1\n      tag_197\n      jump\t// in\n    tag_196:\n      0x20\n      mload(0x40)\n      dup1\n      dup4\n      sub\n      dup2\n      0x00\n      dup8\n      gas\n      call\n      iszero\n      dup1\n      iszero\n      tag_199\n      jumpi\n      returndatacopy(0x00, 0x00, returndatasize)\n      revert(0x00, returndatasize)\n    tag_199:\n      pop\n      pop\n      pop\n      pop\n      mload(0x40)\n      returndatasize\n      not(0x1f)\n      0x1f\n      dup3\n      add\n      and\n      dup3\n      add\n      dup1\n      0x40\n      mstore\n      pop\n      dup2\n      add\n      swap1\n      tag_200\n      swap2\n      swap1\n      tag_201\n      jump\t// in\n    tag_200:\n        /* \"Smart Contracts/26_OptimisticL2RollUps.sol\":12921:12974  bool ok2 = IERC20(token).transfer(msg.sender, amount) */\n      swap1\n      pop\n        /* \"Smart Contracts/26_OptimisticL2RollUps.sol\":12994:12997  ok2 */\n      dup1\n        /* \"Smart Contracts/26_OptimisticL2RollUps.sol\":12989:13022  if (!ok2) revert TransferFailed() */\n      tag_202\n      jumpi\n        /* \"Smart Contracts/26_OptimisticL2RollUps.sol\":13006:13022  TransferFailed() */\n      mload(0x40)\n      0x90b8ec1800000000000000000000000000000000000000000000000000000000\n      dup2\n      mstore\n      0x04\n      add\n      mload(0x40)\n      dup1\n      swap2\n      sub\n      swap1\n      revert\n        /* \"Smart Contracts/26_OptimisticL2RollUps.sol\":12989:13022  if (!ok2) revert TransferFailed() */\n    tag_202:\n        /* \"Smart Contracts/26_OptimisticL2RollUps.sol\":12906:13034  {... */\n      pop\n        /* \"Smart Contracts/26_OptimisticL2RollUps.sol\":12753:13034  if (token == address(0)) {... */\n    tag_195:\n        /* \"Smart Contracts/26_OptimisticL2RollUps.sol\":13090:13095  token */\n      dup7\n        /* \"Smart Contracts/26_OptimisticL2RollUps.sol\":13051:13111  WithdrawalClaimed(batchId, msg.sender, token, amount, nonce) */\n      0xffffffffffffffffffffffffffffffffffffffff\n      and\n        /* \"Smart Contracts/26_OptimisticL2RollUps.sol\":13078:13088  msg.sender */\n      caller\n        /* \"Smart Contracts/26_OptimisticL2RollUps.sol\":13051:13111  WithdrawalClaimed(batchId, msg.sender, token, amount, nonce) */\n      0xffffffffffffffffffffffffffffffffffffffff\n      and\n        /* \"Smart Contracts/26_OptimisticL2RollUps.sol\":13069:13076  batchId */\n      dup10\n        /* \"Smart Contracts/26_OptimisticL2RollUps.sol\":13051:13111  WithdrawalClaimed(batchId, msg.sender, token, amount, nonce) */\n      0x8c6f1f453248546230edca559f3fcddbea2f6c7c33a0f7899c403d78dfb642f2\n        /* \"Smart Contracts/26_OptimisticL2RollUps.sol\":13097:13103  amount */\n      dup10\n        /* \"Smart Contracts/26_OptimisticL2RollUps.sol\":13105:13110  nonce */\n      dup10\n        /* \"Smart Contracts/26_OptimisticL2RollUps.sol\":13051:13111  WithdrawalClaimed(batchId, msg.sender, token, amount, nonce) */\n      mload(0x40)\n      tag_203\n      swap3\n      swap2\n      swap1\n      tag_204\n      jump\t// in\n    tag_203:\n      mload(0x40)\n      dup1\n      swap2\n      sub\n      swap1\n      log4\n        /* \"Smart Contracts/26_OptimisticL2RollUps.sol\":12214:13119  {... */\n      pop\n      pop\n        /* \"Smart Contracts/26_OptimisticL2RollUps.sol\":1764:1765  1 */\n      0x01\n        /* \"Smart Contracts/26_OptimisticL2RollUps.sol\":1754:1761  _status */\n      dup1\n        /* \"Smart Contracts/26_OptimisticL2RollUps.sol\":1754:1765  _status = 1 */\n      dup2\n      swap1\n      sstore\n      pop\n        /* \"Smart Contracts/26_OptimisticL2RollUps.sol\":11978:13119  function claimWithdrawal(... */\n      pop\n      pop\n      pop\n      pop\n      pop\n      pop\n      jump\t// out\n        /* \"Smart Contracts/26_OptimisticL2RollUps.sol\":13169:13993  function batchStatus(uint256 batchId) external view returns (... */\n    tag_50:\n        /* \"Smart Contracts/26_OptimisticL2RollUps.sol\":13240:13251  bool exists */\n      0x00\n        /* \"Smart Contracts/26_OptimisticL2RollUps.sol\":13262:13277  bool challenged */\n      0x00\n        /* \"Smart Contracts/26_OptimisticL2RollUps.sol\":13288:13302  bool finalized */\n      0x00\n        /* \"Smart Contracts/26_OptimisticL2RollUps.sol\":13313:13332  uint256 submittedAt */\n      0x00\n        /* \"Smart Contracts/26_OptimisticL2RollUps.sol\":13343:13366  uint256 challengeEndsAt */\n      0x00\n        /* \"Smart Contracts/26_OptimisticL2RollUps.sol\":13377:13393  bytes32 prevRoot */\n      0x00\n        /* \"Smart Contracts/26_OptimisticL2RollUps.sol\":13404:13419  bytes32 newRoot */\n      0x00\n        /* \"Smart Contracts/26_OptimisticL2RollUps.sol\":13430:13444  bytes32 txHash */\n      0x00\n        /* \"Smart Contracts/26_OptimisticL2RollUps.sol\":13455:13477  bytes32 withdrawalRoot */\n      0x00\n        /* \"Smart Contracts/26_OptimisticL2RollUps.sol\":13488:13506  address challenger */\n      0x00\n        /* \"Smart Contracts/26_OptimisticL2RollUps.sol\":13525:13540  Batch storage b */\n      0x00\n        /* \"Smart Contracts/26_OptimisticL2RollUps.sol\":13543:13550  batches */\n      0x09\n        /* \"Smart Contracts/26_OptimisticL2RollUps.sol\":13543:13559  batches[batchId] */\n      0x00\n        /* \"Smart Contracts/26_OptimisticL2RollUps.sol\":13551:13558  batchId */\n      dup14\n        /* \"Smart Contracts/26_OptimisticL2RollUps.sol\":13543:13559  batches[batchId] */\n      dup2\n      mstore\n      0x20\n      add\n      swap1\n      dup2\n      mstore\n      0x20\n      add\n      0x00\n      keccak256\n        /* \"Smart Contracts/26_OptimisticL2RollUps.sol\":13525:13559  Batch storage b = batches[batchId] */\n      swap1\n      pop\n        /* \"Smart Contracts/26_OptimisticL2RollUps.sol\":13597:13598  0 */\n      0x00\n        /* \"Smart Contracts/26_OptimisticL2RollUps.sol\":13580:13581  b */\n      dup2\n        /* \"Smart Contracts/26_OptimisticL2RollUps.sol\":13580:13593  b.submittedAt */\n      0x04\n      add\n      0x00\n      swap1\n      sload\n      swap1\n      0x0100\n      exp\n      swap1\n      div\n      0xffffffffffffffff\n      and\n        /* \"Smart Contracts/26_OptimisticL2RollUps.sol\":13580:13598  b.submittedAt != 0 */\n      0xffffffffffffffff\n      and\n      eq\n      iszero\n        /* \"Smart Contracts/26_OptimisticL2RollUps.sol\":13570:13599  exists = (b.submittedAt != 0) */\n      swap11\n      pop\n        /* \"Smart Contracts/26_OptimisticL2RollUps.sol\":13623:13624  b */\n      dup1\n        /* \"Smart Contracts/26_OptimisticL2RollUps.sol\":13623:13635  b.challenged */\n      0x04\n      add\n      0x08\n      swap1\n      sload\n      swap1\n      0x0100\n      exp\n      swap1\n      div\n      0xff\n      and\n        /* \"Smart Contracts/26_OptimisticL2RollUps.sol\":13610:13635  challenged = b.challenged */\n      swap10\n      pop\n        /* \"Smart Contracts/26_OptimisticL2RollUps.sol\":13658:13659  b */\n      dup1\n        /* \"Smart Contracts/26_OptimisticL2RollUps.sol\":13658:13669  b.finalized */\n      0x04\n      add\n      0x09\n      swap1\n      sload\n      swap1\n      0x0100\n      exp\n      swap1\n      div\n      0xff\n      and\n        /* \"Smart Contracts/26_OptimisticL2RollUps.sol\":13646:13669  finalized = b.finalized */\n      swap9\n      pop\n        /* \"Smart Contracts/26_OptimisticL2RollUps.sol\":13694:13695  b */\n      dup1\n        /* \"Smart Contracts/26_OptimisticL2RollUps.sol\":13694:13707  b.submittedAt */\n      0x04\n      add\n      0x00\n      swap1\n      sload\n      swap1\n      0x0100\n      exp\n      swap1\n      div\n      0xffffffffffffffff\n      and\n        /* \"Smart Contracts/26_OptimisticL2RollUps.sol\":13680:13707  submittedAt = b.submittedAt */\n      0xffffffffffffffff\n      and\n      swap8\n      pop\n        /* \"Smart Contracts/26_OptimisticL2RollUps.sol\":13753:13754  0 */\n      0x00\n        /* \"Smart Contracts/26_OptimisticL2RollUps.sol\":13736:13737  b */\n      dup2\n        /* \"Smart Contracts/26_OptimisticL2RollUps.sol\":13736:13749  b.submittedAt */\n      0x04\n      add\n      0x00\n      swap1\n      sload\n      swap1\n      0x0100\n      exp\n      swap1\n      div\n      0xffffffffffffffff\n      and\n        /* \"Smart Contracts/26_OptimisticL2RollUps.sol\":13736:13754  b.submittedAt == 0 */\n      0xffffffffffffffff\n      and\n      eq\n        /* \"Smart Contracts/26_OptimisticL2RollUps.sol\":13736:13801  b.submittedAt == 0 ? 0 : uint256(b.submittedAt) + challengeWindow */\n      tag_206\n      jumpi\n        /* \"Smart Contracts/26_OptimisticL2RollUps.sol\":13786:13801  challengeWindow */\n      sload(0x06)\n        /* \"Smart Contracts/26_OptimisticL2RollUps.sol\":13769:13770  b */\n      dup2\n        /* \"Smart Contracts/26_OptimisticL2RollUps.sol\":13769:13782  b.submittedAt */\n      0x04\n      add\n      0x00\n      swap1\n      sload\n      swap1\n      0x0100\n      exp\n      swap1\n      div\n      0xffffffffffffffff\n      and\n        /* \"Smart Contracts/26_OptimisticL2RollUps.sol\":13761:13783  uint256(b.submittedAt) */\n      0xffffffffffffffff\n      and\n        /* \"Smart Contracts/26_OptimisticL2RollUps.sol\":13761:13801  uint256(b.submittedAt) + challengeWindow */\n      tag_207\n      swap2\n      swap1\n      tag_208\n      jump\t// in\n    tag_207:\n        /* \"Smart Contracts/26_OptimisticL2RollUps.sol\":13736:13801  b.submittedAt == 0 ? 0 : uint256(b.submittedAt) + challengeWindow */\n      jump(tag_209)\n    tag_206:\n        /* \"Smart Contracts/26_OptimisticL2RollUps.sol\":13757:13758  0 */\n      0x00\n        /* \"Smart Contracts/26_OptimisticL2RollUps.sol\":13736:13801  b.submittedAt == 0 ? 0 : uint256(b.submittedAt) + challengeWindow */\n    tag_209:\n        /* \"Smart Contracts/26_OptimisticL2RollUps.sol\":13718:13801  challengeEndsAt = b.submittedAt == 0 ? 0 : uint256(b.submittedAt) + challengeWindow */\n      swap7\n      pop\n        /* \"Smart Contracts/26_OptimisticL2RollUps.sol\":13823:13824  b */\n      dup1\n        /* \"Smart Contracts/26_OptimisticL2RollUps.sol\":13823:13838  b.prevStateRoot */\n      0x00\n      add\n      sload\n        /* \"Smart Contracts/26_OptimisticL2RollUps.sol\":13812:13838  prevRoot = b.prevStateRoot */\n      swap6\n      pop\n        /* \"Smart Contracts/26_OptimisticL2RollUps.sol\":13859:13860  b */\n      dup1\n        /* \"Smart Contracts/26_OptimisticL2RollUps.sol\":13859:13873  b.newStateRoot */\n      0x01\n      add\n      sload\n        /* \"Smart Contracts/26_OptimisticL2RollUps.sol\":13849:13873  newRoot = b.newStateRoot */\n      swap5\n      pop\n        /* \"Smart Contracts/26_OptimisticL2RollUps.sol\":13893:13894  b */\n      dup1\n        /* \"Smart Contracts/26_OptimisticL2RollUps.sol\":13893:13905  b.txDataHash */\n      0x02\n      add\n      sload\n        /* \"Smart Contracts/26_OptimisticL2RollUps.sol\":13884:13905  txHash = b.txDataHash */\n      swap4\n      pop\n        /* \"Smart Contracts/26_OptimisticL2RollUps.sol\":13933:13934  b */\n      dup1\n        /* \"Smart Contracts/26_OptimisticL2RollUps.sol\":13933:13949  b.withdrawalRoot */\n      0x03\n      add\n      sload\n        /* \"Smart Contracts/26_OptimisticL2RollUps.sol\":13916:13949  withdrawalRoot = b.withdrawalRoot */\n      swap3\n      pop\n        /* \"Smart Contracts/26_OptimisticL2RollUps.sol\":13973:13974  b */\n      dup1\n        /* \"Smart Contracts/26_OptimisticL2RollUps.sol\":13973:13985  b.challenger */\n      0x04\n      add\n      0x0a\n      swap1\n      sload\n      swap1\n      0x0100\n      exp\n      swap1\n      div\n      0xffffffffffffffffffffffffffffffffffffffff\n      and\n        /* \"Smart Contracts/26_OptimisticL2RollUps.sol\":13960:13985  challenger = b.challenger */\n      swap2\n      pop\n        /* \"Smart Contracts/26_OptimisticL2RollUps.sol\":13514:13993  {... */\n      pop\n        /* \"Smart Contracts/26_OptimisticL2RollUps.sol\":13169:13993  function batchStatus(uint256 batchId) external view returns (... */\n      swap2\n      swap4\n      swap6\n      swap8\n      swap10\n      pop\n      swap2\n      swap4\n      swap6\n      swap8\n      swap10\n      jump\t// out\n        /* \"Smart Contracts/26_OptimisticL2RollUps.sol\":6269:6491  function setSequencer(address newSequencer) external onlyOwner {... */\n    tag_57:\n        /* \"Smart Contracts/26_OptimisticL2RollUps.sol\":2091:2096  owner */\n      0x00\n      0x00\n      swap1\n      sload\n      swap1\n      0x0100\n      exp\n      swap1\n      div\n      0xffffffffffffffffffffffffffffffffffffffff\n      and\n        /* \"Smart Contracts/26_OptimisticL2RollUps.sol\":2077:2096  msg.sender == owner */\n      0xffffffffffffffffffffffffffffffffffffffff\n      and\n        /* \"Smart Contracts/26_OptimisticL2RollUps.sol\":2077:2087  msg.sender */\n      caller\n        /* \"Smart Contracts/26_OptimisticL2RollUps.sol\":2077:2096  msg.sender == owner */\n      0xffffffffffffffffffffffffffffffffffffffff\n      and\n      eq\n        /* \"Smart Contracts/26_OptimisticL2RollUps.sol\":2069:2111  require(msg.sender == owner, \"ONLY_OWNER\") */\n      tag_211\n      jumpi\n      mload(0x40)\n      0x08c379a000000000000000000000000000000000000000000000000000000000\n      dup2\n      mstore\n      0x04\n      add\n      tag_212\n      swap1\n      tag_213\n      jump\t// in\n    tag_212:\n      mload(0x40)\n      dup1\n      swap2\n      sub\n      swap1\n      revert\n    tag_211:\n        /* \"Smart Contracts/26_OptimisticL2RollUps.sol\":6375:6376  0 */\n      0x00\n        /* \"Smart Contracts/26_OptimisticL2RollUps.sol\":6351:6377  newSequencer != address(0) */\n      0xffffffffffffffffffffffffffffffffffffffff\n      and\n        /* \"Smart Contracts/26_OptimisticL2RollUps.sol\":6351:6363  newSequencer */\n      dup2\n        /* \"Smart Contracts/26_OptimisticL2RollUps.sol\":6351:6377  newSequencer != address(0) */\n      0xffffffffffffffffffffffffffffffffffffffff\n      and\n      sub\n        /* \"Smart Contracts/26_OptimisticL2RollUps.sol\":6343:6391  require(newSequencer != address(0), \"ZERO_ADDR\") */\n      tag_215\n      jumpi\n      mload(0x40)\n      0x08c379a000000000000000000000000000000000000000000000000000000000\n      dup2\n      mstore\n      0x04\n      add\n      tag_216\n      swap1\n      tag_217\n      jump\t// in\n    tag_216:\n      mload(0x40)\n      dup1\n      swap2\n      sub\n      swap1\n      revert\n    tag_215:\n        /* \"Smart Contracts/26_OptimisticL2RollUps.sol\":6435:6447  newSequencer */\n      dup1\n        /* \"Smart Contracts/26_OptimisticL2RollUps.sol\":6407:6448  SequencerUpdated(sequencer, newSequencer) */\n      0xffffffffffffffffffffffffffffffffffffffff\n      and\n        /* \"Smart Contracts/26_OptimisticL2RollUps.sol\":6424:6433  sequencer */\n      0x02\n      0x00\n      swap1\n      sload\n      swap1\n      0x0100\n      exp\n      swap1\n      div\n      0xffffffffffffffffffffffffffffffffffffffff\n      and\n        /* \"Smart Contracts/26_OptimisticL2RollUps.sol\":6407:6448  SequencerUpdated(sequencer, newSequencer) */\n      0xffffffffffffffffffffffffffffffffffffffff\n      and\n      0xcd58b762453bd126b48db83f2cecd464f5281dd7e5e6824b528c09d0482984d6\n      mload(0x40)\n      mload(0x40)\n      dup1\n      swap2\n      sub\n      swap1\n      log3\n        /* \"Smart Contracts/26_OptimisticL2RollUps.sol\":6471:6483  newSequencer */\n      dup1\n        /* \"Smart Contracts/26_OptimisticL2RollUps.sol\":6459:6468  sequencer */\n      0x02\n      0x00\n        /* \"Smart Contracts/26_OptimisticL2RollUps.sol\":6459:6483  sequencer = newSequencer */\n      0x0100\n      exp\n      dup2\n      sload\n      dup2\n      0xffffffffffffffffffffffffffffffffffffffff\n      mul\n      not\n      and\n      swap1\n      dup4\n      0xffffffffffffffffffffffffffffffffffffffff\n      and\n      mul\n      or\n      swap1\n      sstore\n      pop\n        /* \"Smart Contracts/26_OptimisticL2RollUps.sol\":6269:6491  function setSequencer(address newSequencer) external onlyOwner {... */\n      pop\n      jump\t// out\n        /* \"Smart Contracts/26_OptimisticL2RollUps.sol\":7255:7587  function unbond(uint256 amount) external whenNotPaused nonReentrant {... */\n    tag_61:\n        /* \"Smart Contracts/26_OptimisticL2RollUps.sol\":2527:2533  paused */\n      0x00\n      0x14\n      swap1\n      sload\n      swap1\n      0x0100\n      exp\n      swap1\n      div\n      0xff\n      and\n        /* \"Smart Contracts/26_OptimisticL2RollUps.sol\":2526:2533  !paused */\n      iszero\n        /* \"Smart Contracts/26_OptimisticL2RollUps.sol\":2518:2544  require(!paused, \"PAUSED\") */\n      tag_219\n      jumpi\n      mload(0x40)\n      0x08c379a000000000000000000000000000000000000000000000000000000000\n      dup2\n      mstore\n      0x04\n      add\n      tag_220\n      swap1\n      tag_173\n      jump\t// in\n    tag_220:\n      mload(0x40)\n      dup1\n      swap2\n      sub\n      swap1\n      revert\n    tag_219:\n        /* \"Smart Contracts/26_OptimisticL2RollUps.sol\":1693:1694  1 */\n      0x01\n        /* \"Smart Contracts/26_OptimisticL2RollUps.sol\":1682:1689  _status */\n      dup1\n      sload\n        /* \"Smart Contracts/26_OptimisticL2RollUps.sol\":1682:1694  _status == 1 */\n      eq\n        /* \"Smart Contracts/26_OptimisticL2RollUps.sol\":1674:1709  require(_status == 1, \"REENTRANCY\") */\n      tag_222\n      jumpi\n      mload(0x40)\n      0x08c379a000000000000000000000000000000000000000000000000000000000\n      dup2\n      mstore\n      0x04\n      add\n      tag_223\n      swap1\n      tag_177\n      jump\t// in\n    tag_223:\n      mload(0x40)\n      dup1\n      swap2\n      sub\n      swap1\n      revert\n    tag_222:\n        /* \"Smart Contracts/26_OptimisticL2RollUps.sol\":1730:1731  2 */\n      0x02\n        /* \"Smart Contracts/26_OptimisticL2RollUps.sol\":1720:1727  _status */\n      0x01\n        /* \"Smart Contracts/26_OptimisticL2RollUps.sol\":1720:1731  _status = 2 */\n      dup2\n      swap1\n      sstore\n      pop\n        /* \"Smart Contracts/26_OptimisticL2RollUps.sol\":7363:7369  amount */\n      dup1\n        /* \"Smart Contracts/26_OptimisticL2RollUps.sol\":7342:7347  bonds */\n      0x07\n        /* \"Smart Contracts/26_OptimisticL2RollUps.sol\":7342:7359  bonds[msg.sender] */\n      0x00\n        /* \"Smart Contracts/26_OptimisticL2RollUps.sol\":7348:7358  msg.sender */\n      caller\n        /* \"Smart Contracts/26_OptimisticL2RollUps.sol\":7342:7359  bonds[msg.sender] */\n      0xffffffffffffffffffffffffffffffffffffffff\n      and\n      0xffffffffffffffffffffffffffffffffffffffff\n      and\n      dup2\n      mstore\n      0x20\n      add\n      swap1\n      dup2\n      mstore\n      0x20\n      add\n      0x00\n      keccak256\n      sload\n        /* \"Smart Contracts/26_OptimisticL2RollUps.sol\":7342:7369  bonds[msg.sender] >= amount */\n      lt\n      iszero\n        /* \"Smart Contracts/26_OptimisticL2RollUps.sol\":7334:7391  require(bonds[msg.sender] >= amount, \"INSUFFICIENT_BOND\") */\n      tag_225\n      jumpi\n      mload(0x40)\n      0x08c379a000000000000000000000000000000000000000000000000000000000\n      dup2\n      mstore\n      0x04\n      add\n      tag_226\n      swap1\n      tag_227\n      jump\t// in\n    tag_226:\n      mload(0x40)\n      dup1\n      swap2\n      sub\n      swap1\n      revert\n    tag_225:\n        /* \"Smart Contracts/26_OptimisticL2RollUps.sol\":7423:7429  amount */\n      dup1\n        /* \"Smart Contracts/26_OptimisticL2RollUps.sol\":7402:7407  bonds */\n      0x07\n        /* \"Smart Contracts/26_OptimisticL2RollUps.sol\":7402:7419  bonds[msg.sender] */\n      0x00\n        /* \"Smart Contracts/26_OptimisticL2RollUps.sol\":7408:7418  msg.sender */\n      caller\n        /* \"Smart Contracts/26_OptimisticL2RollUps.sol\":7402:7419  bonds[msg.sender] */\n      0xffffffffffffffffffffffffffffffffffffffff\n      and\n      0xffffffffffffffffffffffffffffffffffffffff\n      and\n      dup2\n      mstore\n      0x20\n      add\n      swap1\n      dup2\n      mstore\n      0x20\n      add\n      0x00\n      keccak256\n      0x00\n        /* \"Smart Contracts/26_OptimisticL2RollUps.sol\":7402:7429  bonds[msg.sender] -= amount */\n      dup3\n      dup3\n      sload\n      tag_228\n      swap2\n      swap1\n      tag_229\n      jump\t// in\n    tag_228:\n      swap3\n      pop\n      pop\n      dup2\n      swap1\n      sstore\n      pop\n        /* \"Smart Contracts/26_OptimisticL2RollUps.sol\":7443:7450  bool ok */\n      0x00\n        /* \"Smart Contracts/26_OptimisticL2RollUps.sol\":7456:7466  msg.sender */\n      caller\n        /* \"Smart Contracts/26_OptimisticL2RollUps.sol\":7456:7471  msg.sender.call */\n      0xffffffffffffffffffffffffffffffffffffffff\n      and\n        /* \"Smart Contracts/26_OptimisticL2RollUps.sol\":7479:7485  amount */\n      dup3\n        /* \"Smart Contracts/26_OptimisticL2RollUps.sol\":7456:7490  msg.sender.call{value: amount}(\"\") */\n      mload(0x40)\n      tag_230\n      swap1\n      tag_190\n      jump\t// in\n    tag_230:\n      0x00\n      mload(0x40)\n      dup1\n      dup4\n      sub\n      dup2\n      dup6\n      dup8\n      gas\n      call\n      swap3\n      pop\n      pop\n      pop\n      returndatasize\n      dup1\n      0x00\n      dup2\n      eq\n      tag_233\n      jumpi\n      mload(0x40)\n      swap2\n      pop\n      and(add(returndatasize, 0x3f), not(0x1f))\n      dup3\n      add\n      0x40\n      mstore\n      returndatasize\n      dup3\n      mstore\n      returndatasize\n      0x00\n      0x20\n      dup5\n      add\n      returndatacopy\n      jump(tag_232)\n    tag_233:\n      0x60\n      swap2\n      pop\n    tag_232:\n      pop\n        /* \"Smart Contracts/26_OptimisticL2RollUps.sol\":7442:7490  (bool ok, ) = msg.sender.call{value: amount}(\"\") */\n      pop\n      swap1\n      pop\n        /* \"Smart Contracts/26_OptimisticL2RollUps.sol\":7506:7508  ok */\n      dup1\n        /* \"Smart Contracts/26_OptimisticL2RollUps.sol\":7501:7533  if (!ok) revert TransferFailed() */\n      tag_234\n      jumpi\n        /* \"Smart Contracts/26_OptimisticL2RollUps.sol\":7517:7533  TransferFailed() */\n      mload(0x40)\n      0x90b8ec1800000000000000000000000000000000000000000000000000000000\n      dup2\n      mstore\n      0x04\n      add\n      mload(0x40)\n      dup1\n      swap2\n      sub\n      swap1\n      revert\n        /* \"Smart Contracts/26_OptimisticL2RollUps.sol\":7501:7533  if (!ok) revert TransferFailed() */\n    tag_234:\n        /* \"Smart Contracts/26_OptimisticL2RollUps.sol\":7560:7570  msg.sender */\n      caller\n        /* \"Smart Contracts/26_OptimisticL2RollUps.sol\":7551:7579  Unbonded(msg.sender, amount) */\n      0xffffffffffffffffffffffffffffffffffffffff\n      and\n      0xd24dbf5e9299ce53c3aa9f7227ff1cc8441c2faae04509aa370ca3703385d6b4\n        /* \"Smart Contracts/26_OptimisticL2RollUps.sol\":7572:7578  amount */\n      dup4\n        /* \"Smart Contracts/26_OptimisticL2RollUps.sol\":7551:7579  Unbonded(msg.sender, amount) */\n      mload(0x40)\n      tag_235\n      swap2\n      swap1\n      tag_69\n      jump\t// in\n    tag_235:\n      mload(0x40)\n      dup1\n      swap2\n      sub\n      swap1\n      log2\n        /* \"Smart Contracts/26_OptimisticL2RollUps.sol\":7323:7587  {... */\n      pop\n        /* \"Smart Contracts/26_OptimisticL2RollUps.sol\":1764:1765  1 */\n      0x01\n        /* \"Smart Contracts/26_OptimisticL2RollUps.sol\":1754:1761  _status */\n      dup1\n        /* \"Smart Contracts/26_OptimisticL2RollUps.sol\":1754:1765  _status = 1 */\n      dup2\n      swap1\n      sstore\n      pop\n        /* \"Smart Contracts/26_OptimisticL2RollUps.sol\":7255:7587  function unbond(uint256 amount) external whenNotPaused nonReentrant {... */\n      pop\n      jump\t// out\n        /* \"Smart Contracts/26_OptimisticL2RollUps.sol\":2643:2727  function unpause() external onlyOwner { paused = false; emit Unpaused(msg.sender); } */\n    tag_64:\n        /* \"Smart Contracts/26_OptimisticL2RollUps.sol\":2091:2096  owner */\n      0x00\n      0x00\n      swap1\n      sload\n      swap1\n      0x0100\n      exp\n      swap1\n      div\n      0xffffffffffffffffffffffffffffffffffffffff\n      and\n        /* \"Smart Contracts/26_OptimisticL2RollUps.sol\":2077:2096  msg.sender == owner */\n      0xffffffffffffffffffffffffffffffffffffffff\n      and\n        /* \"Smart Contracts/26_OptimisticL2RollUps.sol\":2077:2087  msg.sender */\n      caller\n        /* \"Smart Contracts/26_OptimisticL2RollUps.sol\":2077:2096  msg.sender == owner */\n      0xffffffffffffffffffffffffffffffffffffffff\n      and\n      eq\n        /* \"Smart Contracts/26_OptimisticL2RollUps.sol\":2069:2111  require(msg.sender == owner, \"ONLY_OWNER\") */\n      tag_237\n      jumpi\n      mload(0x40)\n      0x08c379a000000000000000000000000000000000000000000000000000000000\n      dup2\n      mstore\n      0x04\n      add\n      tag_238\n      swap1\n      tag_213\n      jump\t// in\n    tag_238:\n      mload(0x40)\n      dup1\n      swap2\n      sub\n      swap1\n      revert\n    tag_237:\n        /* \"Smart Contracts/26_OptimisticL2RollUps.sol\":2692:2697  false */\n      0x00\n        /* \"Smart Contracts/26_OptimisticL2RollUps.sol\":2683:2689  paused */\n      0x00\n      0x14\n        /* \"Smart Contracts/26_OptimisticL2RollUps.sol\":2683:2697  paused = false */\n      0x0100\n      exp\n      dup2\n      sload\n      dup2\n      0xff\n      mul\n      not\n      and\n      swap1\n      dup4\n      iszero\n      iszero\n      mul\n      or\n      swap1\n      sstore\n      pop\n        /* \"Smart Contracts/26_OptimisticL2RollUps.sol\":2713:2723  msg.sender */\n      caller\n        /* \"Smart Contracts/26_OptimisticL2RollUps.sol\":2704:2724  Unpaused(msg.sender) */\n      0xffffffffffffffffffffffffffffffffffffffff\n      and\n      0x5db9ee0a495bf2e6ff9c91a7834c1ba4fdd244a5e8aa4e537bd38aeae4b073aa\n      mload(0x40)\n      mload(0x40)\n      dup1\n      swap2\n      sub\n      swap1\n      log2\n        /* \"Smart Contracts/26_OptimisticL2RollUps.sol\":2643:2727  function unpause() external onlyOwner { paused = false; emit Unpaused(msg.sender); } */\n      jump\t// out\n        /* \"Smart Contracts/26_OptimisticL2RollUps.sol\":3924:3952  uint256 public latestBatchId */\n    tag_67:\n      sload(0x08)\n      dup2\n      jump\t// out\n        /* \"Smart Contracts/26_OptimisticL2RollUps.sol\":5167:5236  mapping(uint256 => mapping(bytes32 => bool)) public withdrawalClaimed */\n    tag_74:\n      mstore(0x20, 0x0c)\n      dup2\n      0x00\n      mstore\n      mstore(0x20, keccak256(0x00, 0x40))\n      dup1\n      0x00\n      mstore\n      keccak256(0x00, 0x40)\n      0x00\n      swap2\n      pop\n      swap2\n      pop\n      swap1\n      sload\n      swap1\n      0x0100\n      exp\n      swap1\n      div\n      0xff\n      and\n      dup2\n      jump\t// out\n        /* \"Smart Contracts/26_OptimisticL2RollUps.sol\":6680:7010  function setParams(uint256 _challengeWindow, uint256 _sequencerBond, uint256 _challengerBond) external onlyOwner {... */\n    tag_81:\n        /* \"Smart Contracts/26_OptimisticL2RollUps.sol\":2091:2096  owner */\n      0x00\n      0x00\n      swap1\n      sload\n      swap1\n      0x0100\n      exp\n      swap1\n      div\n      0xffffffffffffffffffffffffffffffffffffffff\n      and\n        /* \"Smart Contracts/26_OptimisticL2RollUps.sol\":2077:2096  msg.sender == owner */\n      0xffffffffffffffffffffffffffffffffffffffff\n      and\n        /* \"Smart Contracts/26_OptimisticL2RollUps.sol\":2077:2087  msg.sender */\n      caller\n        /* \"Smart Contracts/26_OptimisticL2RollUps.sol\":2077:2096  msg.sender == owner */\n      0xffffffffffffffffffffffffffffffffffffffff\n      and\n      eq\n        /* \"Smart Contracts/26_OptimisticL2RollUps.sol\":2069:2111  require(msg.sender == owner, \"ONLY_OWNER\") */\n      tag_241\n      jumpi\n      mload(0x40)\n      0x08c379a000000000000000000000000000000000000000000000000000000000\n      dup2\n      mstore\n      0x04\n      add\n      tag_242\n      swap1\n      tag_213\n      jump\t// in\n    tag_242:\n      mload(0x40)\n      dup1\n      swap2\n      sub\n      swap1\n      revert\n    tag_241:\n        /* \"Smart Contracts/26_OptimisticL2RollUps.sol\":6822:6838  _challengeWindow */\n      dup3\n        /* \"Smart Contracts/26_OptimisticL2RollUps.sol\":6804:6819  challengeWindow */\n      0x06\n        /* \"Smart Contracts/26_OptimisticL2RollUps.sol\":6804:6838  challengeWindow = _challengeWindow */\n      dup2\n      swap1\n      sstore\n      pop\n        /* \"Smart Contracts/26_OptimisticL2RollUps.sol\":6865:6879  _sequencerBond */\n      dup2\n        /* \"Smart Contracts/26_OptimisticL2RollUps.sol\":6849:6862  sequencerBond */\n      0x04\n        /* \"Smart Contracts/26_OptimisticL2RollUps.sol\":6849:6879  sequencerBond = _sequencerBond */\n      dup2\n      swap1\n      sstore\n      pop\n        /* \"Smart Contracts/26_OptimisticL2RollUps.sol\":6907:6922  _challengerBond */\n      dup1\n        /* \"Smart Contracts/26_OptimisticL2RollUps.sol\":6890:6904  challengerBond */\n      0x05\n        /* \"Smart Contracts/26_OptimisticL2RollUps.sol\":6890:6922  challengerBond = _challengerBond */\n      dup2\n      swap1\n      sstore\n      pop\n        /* \"Smart Contracts/26_OptimisticL2RollUps.sol\":6938:7002  ParamsUpdated(_challengeWindow, _sequencerBond, _challengerBond) */\n      0x0cba168cfa7900657e5f8cc53d6f52ebbfa3a9f568941b465cc4f731c60c95b2\n        /* \"Smart Contracts/26_OptimisticL2RollUps.sol\":6952:6968  _challengeWindow */\n      dup4\n        /* \"Smart Contracts/26_OptimisticL2RollUps.sol\":6970:6984  _sequencerBond */\n      dup4\n        /* \"Smart Contracts/26_OptimisticL2RollUps.sol\":6986:7001  _challengerBond */\n      dup4\n        /* \"Smart Contracts/26_OptimisticL2RollUps.sol\":6938:7002  ParamsUpdated(_challengeWindow, _sequencerBond, _challengerBond) */\n      mload(0x40)\n      tag_244\n      swap4\n      swap3\n      swap2\n      swap1\n      tag_245\n      jump\t// in\n    tag_244:\n      mload(0x40)\n      dup1\n      swap2\n      sub\n      swap1\n      log1\n        /* \"Smart Contracts/26_OptimisticL2RollUps.sol\":6680:7010  function setParams(uint256 _challengeWindow, uint256 _sequencerBond, uint256 _challengerBond) external onlyOwner {... */\n      pop\n      pop\n      pop\n      jump\t// out\n        /* \"Smart Contracts/26_OptimisticL2RollUps.sol\":3356:3396  IFraudProofVerifier public fraudVerifier */\n    tag_84:\n      0x03\n      0x00\n      swap1\n      sload\n      swap1\n      0x0100\n      exp\n      swap1\n      div\n      0xffffffffffffffffffffffffffffffffffffffff\n      and\n      dup2\n      jump\t// out\n        /* \"Smart Contracts/26_OptimisticL2RollUps.sol\":3325:3349  address public sequencer */\n    tag_89:\n      0x02\n      0x00\n      swap1\n      sload\n      swap1\n      0x0100\n      exp\n      swap1\n      div\n      0xffffffffffffffffffffffffffffffffffffffff\n      and\n      dup2\n      jump\t// out\n        /* \"Smart Contracts/26_OptimisticL2RollUps.sol\":2384:2402  bool public paused */\n    tag_94:\n      0x00\n      0x14\n      swap1\n      sload\n      swap1\n      0x0100\n      exp\n      swap1\n      div\n      0xff\n      and\n      dup2\n      jump\t// out\n        /* \"Smart Contracts/26_OptimisticL2RollUps.sol\":7056:7247  function bond() external payable whenNotPaused {... */\n    tag_97:\n        /* \"Smart Contracts/26_OptimisticL2RollUps.sol\":2527:2533  paused */\n      0x00\n      0x14\n      swap1\n      sload\n      swap1\n      0x0100\n      exp\n      swap1\n      div\n      0xff\n      and\n        /* \"Smart Contracts/26_OptimisticL2RollUps.sol\":2526:2533  !paused */\n      iszero\n        /* \"Smart Contracts/26_OptimisticL2RollUps.sol\":2518:2544  require(!paused, \"PAUSED\") */\n      tag_247\n      jumpi\n      mload(0x40)\n      0x08c379a000000000000000000000000000000000000000000000000000000000\n      dup2\n      mstore\n      0x04\n      add\n      tag_248\n      swap1\n      tag_173\n      jump\t// in\n    tag_248:\n      mload(0x40)\n      dup1\n      swap2\n      sub\n      swap1\n      revert\n    tag_247:\n        /* \"Smart Contracts/26_OptimisticL2RollUps.sol\":7131:7132  0 */\n      0x00\n        /* \"Smart Contracts/26_OptimisticL2RollUps.sol\":7118:7127  msg.value */\n      callvalue\n        /* \"Smart Contracts/26_OptimisticL2RollUps.sol\":7118:7132  msg.value == 0 */\n      sub\n        /* \"Smart Contracts/26_OptimisticL2RollUps.sol\":7114:7153  if (msg.value == 0) revert ZeroAmount() */\n      tag_250\n      jumpi\n        /* \"Smart Contracts/26_OptimisticL2RollUps.sol\":7141:7153  ZeroAmount() */\n      mload(0x40)\n      0x1f2a200500000000000000000000000000000000000000000000000000000000\n      dup2\n      mstore\n      0x04\n      add\n      mload(0x40)\n      dup1\n      swap2\n      sub\n      swap1\n      revert\n        /* \"Smart Contracts/26_OptimisticL2RollUps.sol\":7114:7153  if (msg.value == 0) revert ZeroAmount() */\n    tag_250:\n        /* \"Smart Contracts/26_OptimisticL2RollUps.sol\":7185:7194  msg.value */\n      callvalue\n        /* \"Smart Contracts/26_OptimisticL2RollUps.sol\":7164:7169  bonds */\n      0x07\n        /* \"Smart Contracts/26_OptimisticL2RollUps.sol\":7164:7181  bonds[msg.sender] */\n      0x00\n        /* \"Smart Contracts/26_OptimisticL2RollUps.sol\":7170:7180  msg.sender */\n      caller\n        /* \"Smart Contracts/26_OptimisticL2RollUps.sol\":7164:7181  bonds[msg.sender] */\n      0xffffffffffffffffffffffffffffffffffffffff\n      and\n      0xffffffffffffffffffffffffffffffffffffffff\n      and\n      dup2\n      mstore\n      0x20\n      add\n      swap1\n      dup2\n      mstore\n      0x20\n      add\n      0x00\n      keccak256\n      0x00\n        /* \"Smart Contracts/26_OptimisticL2RollUps.sol\":7164:7194  bonds[msg.sender] += msg.value */\n      dup3\n      dup3\n      sload\n      tag_251\n      swap2\n      swap1\n      tag_208\n      jump\t// in\n    tag_251:\n      swap3\n      pop\n      pop\n      dup2\n      swap1\n      sstore\n      pop\n        /* \"Smart Contracts/26_OptimisticL2RollUps.sol\":7217:7227  msg.sender */\n      caller\n        /* \"Smart Contracts/26_OptimisticL2RollUps.sol\":7210:7239  Bonded(msg.sender, msg.value) */\n      0xffffffffffffffffffffffffffffffffffffffff\n      and\n      0xd0a009034e24a39106653c4903cf28b1947b8a9964d03206648e0f0a5de74a46\n        /* \"Smart Contracts/26_OptimisticL2RollUps.sol\":7229:7238  msg.value */\n      callvalue\n        /* \"Smart Contracts/26_OptimisticL2RollUps.sol\":7210:7239  Bonded(msg.sender, msg.value) */\n      mload(0x40)\n      tag_252\n      swap2\n      swap1\n      tag_69\n      jump\t// in\n    tag_252:\n      mload(0x40)\n      dup1\n      swap2\n      sub\n      swap1\n      log2\n        /* \"Smart Contracts/26_OptimisticL2RollUps.sol\":7056:7247  function bond() external payable whenNotPaused {... */\n      jump\t// out\n        /* \"Smart Contracts/26_OptimisticL2RollUps.sol\":8362:9235  function submitBatch(... */\n    tag_102:\n        /* \"Smart Contracts/26_OptimisticL2RollUps.sol\":2527:2533  paused */\n      0x00\n      0x14\n      swap1\n      sload\n      swap1\n      0x0100\n      exp\n      swap1\n      div\n      0xff\n      and\n        /* \"Smart Contracts/26_OptimisticL2RollUps.sol\":2526:2533  !paused */\n      iszero\n        /* \"Smart Contracts/26_OptimisticL2RollUps.sol\":2518:2544  require(!paused, \"PAUSED\") */\n      tag_254\n      jumpi\n      mload(0x40)\n      0x08c379a000000000000000000000000000000000000000000000000000000000\n      dup2\n      mstore\n      0x04\n      add\n      tag_255\n      swap1\n      tag_173\n      jump\t// in\n    tag_255:\n      mload(0x40)\n      dup1\n      swap2\n      sub\n      swap1\n      revert\n    tag_254:\n        /* \"Smart Contracts/26_OptimisticL2RollUps.sol\":8302:8311  sequencer */\n      0x02\n      0x00\n      swap1\n      sload\n      swap1\n      0x0100\n      exp\n      swap1\n      div\n      0xffffffffffffffffffffffffffffffffffffffff\n      and\n        /* \"Smart Contracts/26_OptimisticL2RollUps.sol\":8288:8311  msg.sender != sequencer */\n      0xffffffffffffffffffffffffffffffffffffffff\n      and\n        /* \"Smart Contracts/26_OptimisticL2RollUps.sol\":8288:8298  msg.sender */\n      caller\n        /* \"Smart Contracts/26_OptimisticL2RollUps.sol\":8288:8311  msg.sender != sequencer */\n      0xffffffffffffffffffffffffffffffffffffffff\n      and\n      eq\n        /* \"Smart Contracts/26_OptimisticL2RollUps.sol\":8284:8334  if (msg.sender != sequencer) revert NotSequencer() */\n      tag_257\n      jumpi\n        /* \"Smart Contracts/26_OptimisticL2RollUps.sol\":8320:8334  NotSequencer() */\n      mload(0x40)\n      0x53e2827c00000000000000000000000000000000000000000000000000000000\n      dup2\n      mstore\n      0x04\n      add\n      mload(0x40)\n      dup1\n      swap2\n      sub\n      swap1\n      revert\n        /* \"Smart Contracts/26_OptimisticL2RollUps.sol\":8284:8334  if (msg.sender != sequencer) revert NotSequencer() */\n    tag_257:\n        /* \"Smart Contracts/26_OptimisticL2RollUps.sol\":8560:8573  sequencerBond */\n      sload(0x04)\n        /* \"Smart Contracts/26_OptimisticL2RollUps.sol\":8539:8544  bonds */\n      0x07\n        /* \"Smart Contracts/26_OptimisticL2RollUps.sol\":8539:8556  bonds[msg.sender] */\n      0x00\n        /* \"Smart Contracts/26_OptimisticL2RollUps.sol\":8545:8555  msg.sender */\n      caller\n        /* \"Smart Contracts/26_OptimisticL2RollUps.sol\":8539:8556  bonds[msg.sender] */\n      0xffffffffffffffffffffffffffffffffffffffff\n      and\n      0xffffffffffffffffffffffffffffffffffffffff\n      and\n      dup2\n      mstore\n      0x20\n      add\n      swap1\n      dup2\n      mstore\n      0x20\n      add\n      0x00\n      keccak256\n      sload\n        /* \"Smart Contracts/26_OptimisticL2RollUps.sol\":8539:8573  bonds[msg.sender] >= sequencerBond */\n      lt\n      iszero\n        /* \"Smart Contracts/26_OptimisticL2RollUps.sol\":8531:8596  require(bonds[msg.sender] >= sequencerBond, \"SEQUENCER_BOND_LOW\") */\n      tag_259\n      jumpi\n      mload(0x40)\n      0x08c379a000000000000000000000000000000000000000000000000000000000\n      dup2\n      mstore\n      0x04\n      add\n      tag_260\n      swap1\n      tag_261\n      jump\t// in\n    tag_260:\n      mload(0x40)\n      dup1\n      swap2\n      sub\n      swap1\n      revert\n    tag_259:\n        /* \"Smart Contracts/26_OptimisticL2RollUps.sol\":8637:8638  0 */\n      0x00\n        /* \"Smart Contracts/26_OptimisticL2RollUps.sol\":8629:8639  bytes32(0) */\n      0x00\n      shl\n        /* \"Smart Contracts/26_OptimisticL2RollUps.sol\":8613:8625  newStateRoot */\n      dup4\n        /* \"Smart Contracts/26_OptimisticL2RollUps.sol\":8613:8639  newStateRoot == bytes32(0) */\n      sub\n        /* \"Smart Contracts/26_OptimisticL2RollUps.sol\":8609:8658  if (newStateRoot == bytes32(0)) revert BadBatch() */\n      tag_262\n      jumpi\n        /* \"Smart Contracts/26_OptimisticL2RollUps.sol\":8648:8658  BadBatch() */\n      mload(0x40)\n      0x86bdc25c00000000000000000000000000000000000000000000000000000000\n      dup2\n      mstore\n      0x04\n      add\n      mload(0x40)\n      dup1\n      swap2\n      sub\n      swap1\n      revert\n        /* \"Smart Contracts/26_OptimisticL2RollUps.sol\":8609:8658  if (newStateRoot == bytes32(0)) revert BadBatch() */\n    tag_262:\n        /* \"Smart Contracts/26_OptimisticL2RollUps.sol\":8695:8696  0 */\n      0x00\n        /* \"Smart Contracts/26_OptimisticL2RollUps.sol\":8687:8697  bytes32(0) */\n      0x00\n      shl\n        /* \"Smart Contracts/26_OptimisticL2RollUps.sol\":8673:8683  txDataHash */\n      dup3\n        /* \"Smart Contracts/26_OptimisticL2RollUps.sol\":8673:8697  txDataHash == bytes32(0) */\n      sub\n        /* \"Smart Contracts/26_OptimisticL2RollUps.sol\":8669:8716  if (txDataHash == bytes32(0)) revert BadBatch() */\n      tag_263\n      jumpi\n        /* \"Smart Contracts/26_OptimisticL2RollUps.sol\":8706:8716  BadBatch() */\n      mload(0x40)\n      0x86bdc25c00000000000000000000000000000000000000000000000000000000\n      dup2\n      mstore\n      0x04\n      add\n      mload(0x40)\n      dup1\n      swap2\n      sub\n      swap1\n      revert\n        /* \"Smart Contracts/26_OptimisticL2RollUps.sol\":8669:8716  if (txDataHash == bytes32(0)) revert BadBatch() */\n    tag_263:\n        /* \"Smart Contracts/26_OptimisticL2RollUps.sol\":8729:8744  uint256 batchId */\n      0x00\n        /* \"Smart Contracts/26_OptimisticL2RollUps.sol\":8749:8762  latestBatchId */\n      0x08\n      0x00\n        /* \"Smart Contracts/26_OptimisticL2RollUps.sol\":8747:8762  ++latestBatchId */\n      dup2\n      sload\n      tag_264\n      swap1\n      tag_265\n      jump\t// in\n    tag_264:\n      swap2\n      swap1\n      pop\n      dup2\n      swap1\n      sstore\n        /* \"Smart Contracts/26_OptimisticL2RollUps.sol\":8729:8762  uint256 batchId = ++latestBatchId */\n      swap1\n      pop\n        /* \"Smart Contracts/26_OptimisticL2RollUps.sol\":8773:8788  Batch storage b */\n      0x00\n        /* \"Smart Contracts/26_OptimisticL2RollUps.sol\":8791:8798  batches */\n      0x09\n        /* \"Smart Contracts/26_OptimisticL2RollUps.sol\":8791:8807  batches[batchId] */\n      0x00\n        /* \"Smart Contracts/26_OptimisticL2RollUps.sol\":8799:8806  batchId */\n      dup4\n        /* \"Smart Contracts/26_OptimisticL2RollUps.sol\":8791:8807  batches[batchId] */\n      dup2\n      mstore\n      0x20\n      add\n      swap1\n      dup2\n      mstore\n      0x20\n      add\n      0x00\n      keccak256\n        /* \"Smart Contracts/26_OptimisticL2RollUps.sol\":8773:8807  Batch storage b = batches[batchId] */\n      swap1\n      pop\n        /* \"Smart Contracts/26_OptimisticL2RollUps.sol\":8838:8854  currentStateRoot */\n      sload(0x0a)\n        /* \"Smart Contracts/26_OptimisticL2RollUps.sol\":8820:8821  b */\n      dup2\n        /* \"Smart Contracts/26_OptimisticL2RollUps.sol\":8820:8835  b.prevStateRoot */\n      0x00\n      add\n        /* \"Smart Contracts/26_OptimisticL2RollUps.sol\":8820:8854  b.prevStateRoot = currentStateRoot */\n      dup2\n      swap1\n      sstore\n      pop\n        /* \"Smart Contracts/26_OptimisticL2RollUps.sol\":8882:8894  newStateRoot */\n      dup5\n        /* \"Smart Contracts/26_OptimisticL2RollUps.sol\":8865:8866  b */\n      dup2\n        /* \"Smart Contracts/26_OptimisticL2RollUps.sol\":8865:8879  b.newStateRoot */\n      0x01\n      add\n        /* \"Smart Contracts/26_OptimisticL2RollUps.sol\":8865:8894  b.newStateRoot = newStateRoot */\n      dup2\n      swap1\n      sstore\n      pop\n        /* \"Smart Contracts/26_OptimisticL2RollUps.sol\":8920:8930  txDataHash */\n      dup4\n        /* \"Smart Contracts/26_OptimisticL2RollUps.sol\":8905:8906  b */\n      dup2\n        /* \"Smart Contracts/26_OptimisticL2RollUps.sol\":8905:8917  b.txDataHash */\n      0x02\n      add\n        /* \"Smart Contracts/26_OptimisticL2RollUps.sol\":8905:8930  b.txDataHash = txDataHash */\n      dup2\n      swap1\n      sstore\n      pop\n        /* \"Smart Contracts/26_OptimisticL2RollUps.sol\":8960:8974  withdrawalRoot */\n      dup3\n        /* \"Smart Contracts/26_OptimisticL2RollUps.sol\":8941:8942  b */\n      dup2\n        /* \"Smart Contracts/26_OptimisticL2RollUps.sol\":8941:8957  b.withdrawalRoot */\n      0x03\n      add\n        /* \"Smart Contracts/26_OptimisticL2RollUps.sol\":8941:8974  b.withdrawalRoot = withdrawalRoot */\n      dup2\n      swap1\n      sstore\n      pop\n        /* \"Smart Contracts/26_OptimisticL2RollUps.sol\":9008:9023  block.timestamp */\n      timestamp\n        /* \"Smart Contracts/26_OptimisticL2RollUps.sol\":8985:8986  b */\n      dup2\n        /* \"Smart Contracts/26_OptimisticL2RollUps.sol\":8985:8998  b.submittedAt */\n      0x04\n      add\n      0x00\n        /* \"Smart Contracts/26_OptimisticL2RollUps.sol\":8985:9024  b.submittedAt = uint64(block.timestamp) */\n      0x0100\n      exp\n      dup2\n      sload\n      dup2\n      0xffffffffffffffff\n      mul\n      not\n      and\n      swap1\n      dup4\n      0xffffffffffffffff\n      and\n      mul\n      or\n      swap1\n      sstore\n      pop\n        /* \"Smart Contracts/26_OptimisticL2RollUps.sol\":9083:9084  b */\n      dup1\n        /* \"Smart Contracts/26_OptimisticL2RollUps.sol\":9083:9097  b.newStateRoot */\n      0x01\n      add\n      sload\n        /* \"Smart Contracts/26_OptimisticL2RollUps.sol\":9066:9067  b */\n      dup2\n        /* \"Smart Contracts/26_OptimisticL2RollUps.sol\":9066:9081  b.prevStateRoot */\n      0x00\n      add\n      sload\n        /* \"Smart Contracts/26_OptimisticL2RollUps.sol\":9057:9064  batchId */\n      dup4\n        /* \"Smart Contracts/26_OptimisticL2RollUps.sol\":9042:9126  BatchSubmitted(batchId, b.prevStateRoot, b.newStateRoot, txDataHash, withdrawalRoot) */\n      0x65300ce317ab79e5474eefcb0c14e8d429b3e59746933dbb8e07f051347c4190\n        /* \"Smart Contracts/26_OptimisticL2RollUps.sol\":9099:9109  txDataHash */\n      dup8\n        /* \"Smart Contracts/26_OptimisticL2RollUps.sol\":9111:9125  withdrawalRoot */\n      dup8\n        /* \"Smart Contracts/26_OptimisticL2RollUps.sol\":9042:9126  BatchSubmitted(batchId, b.prevStateRoot, b.newStateRoot, txDataHash, withdrawalRoot) */\n      mload(0x40)\n      tag_266\n      swap3\n      swap2\n      swap1\n      tag_267\n      jump\t// in\n    tag_266:\n      mload(0x40)\n      dup1\n      swap2\n      sub\n      swap1\n      log4\n        /* \"Smart Contracts/26_OptimisticL2RollUps.sol\":9215:9227  newStateRoot */\n      dup5\n        /* \"Smart Contracts/26_OptimisticL2RollUps.sol\":9196:9212  currentStateRoot */\n      0x0a\n        /* \"Smart Contracts/26_OptimisticL2RollUps.sol\":9196:9227  currentStateRoot = newStateRoot */\n      dup2\n      swap1\n      sstore\n      pop\n        /* \"Smart Contracts/26_OptimisticL2RollUps.sol\":8520:9235  {... */\n      pop\n      pop\n        /* \"Smart Contracts/26_OptimisticL2RollUps.sol\":8362:9235  function submitBatch(... */\n      pop\n      pop\n      pop\n      jump\t// out\n        /* \"Smart Contracts/26_OptimisticL2RollUps.sol\":3488:3517  uint256 public challengerBond */\n    tag_105:\n      sload(0x05)\n      dup2\n      jump\t// out\n        /* \"Smart Contracts/26_OptimisticL2RollUps.sol\":9885:11397  function resolveChallenge(uint256 batchId, bytes calldata proof) external whenNotPaused {... */\n    tag_111:\n        /* \"Smart Contracts/26_OptimisticL2RollUps.sol\":2527:2533  paused */\n      0x00\n      0x14\n      swap1\n      sload\n      swap1\n      0x0100\n      exp\n      swap1\n      div\n      0xff\n      and\n        /* \"Smart Contracts/26_OptimisticL2RollUps.sol\":2526:2533  !paused */\n      iszero\n        /* \"Smart Contracts/26_OptimisticL2RollUps.sol\":2518:2544  require(!paused, \"PAUSED\") */\n      tag_269\n      jumpi\n      mload(0x40)\n      0x08c379a000000000000000000000000000000000000000000000000000000000\n      dup2\n      mstore\n      0x04\n      add\n      tag_270\n      swap1\n      tag_173\n      jump\t// in\n    tag_270:\n      mload(0x40)\n      dup1\n      swap2\n      sub\n      swap1\n      revert\n    tag_269:\n        /* \"Smart Contracts/26_OptimisticL2RollUps.sol\":9984:9999  Batch storage b */\n      0x00\n        /* \"Smart Contracts/26_OptimisticL2RollUps.sol\":10002:10009  batches */\n      0x09\n        /* \"Smart Contracts/26_OptimisticL2RollUps.sol\":10002:10018  batches[batchId] */\n      0x00\n        /* \"Smart Contracts/26_OptimisticL2RollUps.sol\":10010:10017  batchId */\n      dup6\n        /* \"Smart Contracts/26_OptimisticL2RollUps.sol\":10002:10018  batches[batchId] */\n      dup2\n      mstore\n      0x20\n      add\n      swap1\n      dup2\n      mstore\n      0x20\n      add\n      0x00\n      keccak256\n        /* \"Smart Contracts/26_OptimisticL2RollUps.sol\":9984:10018  Batch storage b = batches[batchId] */\n      swap1\n      pop\n        /* \"Smart Contracts/26_OptimisticL2RollUps.sol\":10050:10051  0 */\n      0x00\n        /* \"Smart Contracts/26_OptimisticL2RollUps.sol\":10033:10034  b */\n      dup2\n        /* \"Smart Contracts/26_OptimisticL2RollUps.sol\":10033:10046  b.submittedAt */\n      0x04\n      add\n      0x00\n      swap1\n      sload\n      swap1\n      0x0100\n      exp\n      swap1\n      div\n      0xffffffffffffffff\n      and\n        /* \"Smart Contracts/26_OptimisticL2RollUps.sol\":10033:10051  b.submittedAt == 0 */\n      0xffffffffffffffff\n      and\n      sub\n        /* \"Smart Contracts/26_OptimisticL2RollUps.sol\":10029:10075  if (b.submittedAt == 0) revert BatchNotFound() */\n      tag_272\n      jumpi\n        /* \"Smart Contracts/26_OptimisticL2RollUps.sol\":10060:10075  BatchNotFound() */\n      mload(0x40)\n      0x9e15e1bc00000000000000000000000000000000000000000000000000000000\n      dup2\n      mstore\n      0x04\n      add\n      mload(0x40)\n      dup1\n      swap2\n      sub\n      swap1\n      revert\n        /* \"Smart Contracts/26_OptimisticL2RollUps.sol\":10029:10075  if (b.submittedAt == 0) revert BatchNotFound() */\n    tag_272:\n        /* \"Smart Contracts/26_OptimisticL2RollUps.sol\":10091:10092  b */\n      dup1\n        /* \"Smart Contracts/26_OptimisticL2RollUps.sol\":10091:10103  b.challenged */\n      0x04\n      add\n      0x08\n      swap1\n      sload\n      swap1\n      0x0100\n      exp\n      swap1\n      div\n      0xff\n      and\n        /* \"Smart Contracts/26_OptimisticL2RollUps.sol\":10086:10127  if (!b.challenged) revert NotChallenger() */\n      tag_273\n      jumpi\n        /* \"Smart Contracts/26_OptimisticL2RollUps.sol\":10112:10127  NotChallenger() */\n      mload(0x40)\n      0xd44be46e00000000000000000000000000000000000000000000000000000000\n      dup2\n      mstore\n      0x04\n      add\n      mload(0x40)\n      dup1\n      swap2\n      sub\n      swap1\n      revert\n        /* \"Smart Contracts/26_OptimisticL2RollUps.sol\":10086:10127  if (!b.challenged) revert NotChallenger() */\n    tag_273:\n        /* \"Smart Contracts/26_OptimisticL2RollUps.sol\":10142:10143  b */\n      dup1\n        /* \"Smart Contracts/26_OptimisticL2RollUps.sol\":10142:10153  b.finalized */\n      0x04\n      add\n      0x09\n      swap1\n      sload\n      swap1\n      0x0100\n      exp\n      swap1\n      div\n      0xff\n      and\n        /* \"Smart Contracts/26_OptimisticL2RollUps.sol\":10138:10185  if (b.finalized) revert BatchAlreadyFinalized() */\n      iszero\n      tag_274\n      jumpi\n        /* \"Smart Contracts/26_OptimisticL2RollUps.sol\":10162:10185  BatchAlreadyFinalized() */\n      mload(0x40)\n      0x8a66d60700000000000000000000000000000000000000000000000000000000\n      dup2\n      mstore\n      0x04\n      add\n      mload(0x40)\n      dup1\n      swap2\n      sub\n      swap1\n      revert\n        /* \"Smart Contracts/26_OptimisticL2RollUps.sol\":10138:10185  if (b.finalized) revert BatchAlreadyFinalized() */\n    tag_274:\n        /* \"Smart Contracts/26_OptimisticL2RollUps.sol\":10216:10217  b */\n      dup1\n        /* \"Smart Contracts/26_OptimisticL2RollUps.sol\":10216:10228  b.challenger */\n      0x04\n      add\n      0x0a\n      swap1\n      sload\n      swap1\n      0x0100\n      exp\n      swap1\n      div\n      0xffffffffffffffffffffffffffffffffffffffff\n      and\n        /* \"Smart Contracts/26_OptimisticL2RollUps.sol\":10202:10228  msg.sender != b.challenger */\n      0xffffffffffffffffffffffffffffffffffffffff\n      and\n        /* \"Smart Contracts/26_OptimisticL2RollUps.sol\":10202:10212  msg.sender */\n      caller\n        /* \"Smart Contracts/26_OptimisticL2RollUps.sol\":10202:10228  msg.sender != b.challenger */\n      0xffffffffffffffffffffffffffffffffffffffff\n      and\n      eq\n      iszero\n        /* \"Smart Contracts/26_OptimisticL2RollUps.sol\":10202:10251  msg.sender != b.challenger && msg.sender != owner */\n      dup1\n      iszero\n      tag_275\n      jumpi\n      pop\n        /* \"Smart Contracts/26_OptimisticL2RollUps.sol\":10246:10251  owner */\n      0x00\n      0x00\n      swap1\n      sload\n      swap1\n      0x0100\n      exp\n      swap1\n      div\n      0xffffffffffffffffffffffffffffffffffffffff\n      and\n        /* \"Smart Contracts/26_OptimisticL2RollUps.sol\":10232:10251  msg.sender != owner */\n      0xffffffffffffffffffffffffffffffffffffffff\n      and\n        /* \"Smart Contracts/26_OptimisticL2RollUps.sol\":10232:10242  msg.sender */\n      caller\n        /* \"Smart Contracts/26_OptimisticL2RollUps.sol\":10232:10251  msg.sender != owner */\n      0xffffffffffffffffffffffffffffffffffffffff\n      and\n      eq\n      iszero\n        /* \"Smart Contracts/26_OptimisticL2RollUps.sol\":10202:10251  msg.sender != b.challenger && msg.sender != owner */\n    tag_275:\n        /* \"Smart Contracts/26_OptimisticL2RollUps.sol\":10198:10275  if (msg.sender != b.challenger && msg.sender != owner) revert NotChallenger() */\n      iszero\n      tag_276\n      jumpi\n        /* \"Smart Contracts/26_OptimisticL2RollUps.sol\":10260:10275  NotChallenger() */\n      mload(0x40)\n      0xd44be46e00000000000000000000000000000000000000000000000000000000\n      dup2\n      mstore\n      0x04\n      add\n      mload(0x40)\n      dup1\n      swap2\n      sub\n      swap1\n      revert\n        /* \"Smart Contracts/26_OptimisticL2RollUps.sol\":10198:10275  if (msg.sender != b.challenger && msg.sender != owner) revert NotChallenger() */\n    tag_276:\n        /* \"Smart Contracts/26_OptimisticL2RollUps.sol\":10326:10327  0 */\n      0x00\n        /* \"Smart Contracts/26_OptimisticL2RollUps.sol\":10292:10328  address(fraudVerifier) == address(0) */\n      0xffffffffffffffffffffffffffffffffffffffff\n      and\n        /* \"Smart Contracts/26_OptimisticL2RollUps.sol\":10300:10313  fraudVerifier */\n      0x03\n      0x00\n      swap1\n      sload\n      swap1\n      0x0100\n      exp\n      swap1\n      div\n      0xffffffffffffffffffffffffffffffffffffffff\n      and\n        /* \"Smart Contracts/26_OptimisticL2RollUps.sol\":10292:10328  address(fraudVerifier) == address(0) */\n      0xffffffffffffffffffffffffffffffffffffffff\n      and\n      sub\n        /* \"Smart Contracts/26_OptimisticL2RollUps.sol\":10288:10351  if (address(fraudVerifier) == address(0)) revert InvalidProof() */\n      tag_277\n      jumpi\n        /* \"Smart Contracts/26_OptimisticL2RollUps.sol\":10337:10351  InvalidProof() */\n      mload(0x40)\n      0x09bde33900000000000000000000000000000000000000000000000000000000\n      dup2\n      mstore\n      0x04\n      add\n      mload(0x40)\n      dup1\n      swap2\n      sub\n      swap1\n      revert\n        /* \"Smart Contracts/26_OptimisticL2RollUps.sol\":10288:10351  if (address(fraudVerifier) == address(0)) revert InvalidProof() */\n    tag_277:\n        /* \"Smart Contracts/26_OptimisticL2RollUps.sol\":10364:10380  bool fraudProven */\n      0x00\n        /* \"Smart Contracts/26_OptimisticL2RollUps.sol\":10383:10396  fraudVerifier */\n      0x03\n      0x00\n      swap1\n      sload\n      swap1\n      0x0100\n      exp\n      swap1\n      div\n      0xffffffffffffffffffffffffffffffffffffffff\n      and\n        /* \"Smart Contracts/26_OptimisticL2RollUps.sol\":10383:10410  fraudVerifier.verifiesFraud */\n      0xffffffffffffffffffffffffffffffffffffffff\n      and\n      0x8606d488\n        /* \"Smart Contracts/26_OptimisticL2RollUps.sol\":10411:10416  proof */\n      dup6\n      dup6\n        /* \"Smart Contracts/26_OptimisticL2RollUps.sol\":10418:10419  b */\n      dup6\n        /* \"Smart Contracts/26_OptimisticL2RollUps.sol\":10418:10430  b.txDataHash */\n      0x02\n      add\n      sload\n        /* \"Smart Contracts/26_OptimisticL2RollUps.sol\":10432:10433  b */\n      dup7\n        /* \"Smart Contracts/26_OptimisticL2RollUps.sol\":10432:10447  b.prevStateRoot */\n      0x00\n      add\n      sload\n        /* \"Smart Contracts/26_OptimisticL2RollUps.sol\":10449:10450  b */\n      dup8\n        /* \"Smart Contracts/26_OptimisticL2RollUps.sol\":10449:10463  b.newStateRoot */\n      0x01\n      add\n      sload\n        /* \"Smart Contracts/26_OptimisticL2RollUps.sol\":10383:10464  fraudVerifier.verifiesFraud(proof, b.txDataHash, b.prevStateRoot, b.newStateRoot) */\n      mload(0x40)\n      dup7\n      0xffffffff\n      and\n      0xe0\n      shl\n      dup2\n      mstore\n      0x04\n      add\n      tag_278\n      swap6\n      swap5\n      swap4\n      swap3\n      swap2\n      swap1\n      tag_279\n      jump\t// in\n    tag_278:\n      0x20\n      mload(0x40)\n      dup1\n      dup4\n      sub\n      dup2\n      dup7\n      gas\n      staticcall\n      iszero\n      dup1\n      iszero\n      tag_281\n      jumpi\n      returndatacopy(0x00, 0x00, returndatasize)\n      revert(0x00, returndatasize)\n    tag_281:\n      pop\n      pop\n      pop\n      pop\n      mload(0x40)\n      returndatasize\n      not(0x1f)\n      0x1f\n      dup3\n      add\n      and\n      dup3\n      add\n      dup1\n      0x40\n      mstore\n      pop\n      dup2\n      add\n      swap1\n      tag_282\n      swap2\n      swap1\n      tag_201\n      jump\t// in\n    tag_282:\n        /* \"Smart Contracts/26_OptimisticL2RollUps.sol\":10364:10464  bool fraudProven = fraudVerifier.verifiesFraud(proof, b.txDataHash, b.prevStateRoot, b.newStateRoot) */\n      swap1\n      pop\n        /* \"Smart Contracts/26_OptimisticL2RollUps.sol\":10481:10492  fraudProven */\n      dup1\n        /* \"Smart Contracts/26_OptimisticL2RollUps.sol\":10477:11300  if (fraudProven) {... */\n      iszero\n      tag_283\n      jumpi\n        /* \"Smart Contracts/26_OptimisticL2RollUps.sol\":10578:10597  uint256 slashAmount */\n      0x00\n        /* \"Smart Contracts/26_OptimisticL2RollUps.sol\":10616:10617  2 */\n      0x02\n        /* \"Smart Contracts/26_OptimisticL2RollUps.sol\":10600:10613  sequencerBond */\n      sload(0x04)\n        /* \"Smart Contracts/26_OptimisticL2RollUps.sol\":10600:10617  sequencerBond / 2 */\n      tag_284\n      swap2\n      swap1\n      tag_285\n      jump\t// in\n    tag_284:\n        /* \"Smart Contracts/26_OptimisticL2RollUps.sol\":10578:10617  uint256 slashAmount = sequencerBond / 2 */\n      swap1\n      pop\n        /* \"Smart Contracts/26_OptimisticL2RollUps.sol\":10634:10649  uint256 seqBond */\n      0x00\n        /* \"Smart Contracts/26_OptimisticL2RollUps.sol\":10652:10657  bonds */\n      0x07\n        /* \"Smart Contracts/26_OptimisticL2RollUps.sol\":10652:10668  bonds[sequencer] */\n      0x00\n        /* \"Smart Contracts/26_OptimisticL2RollUps.sol\":10658:10667  sequencer */\n      0x02\n      0x00\n      swap1\n      sload\n      swap1\n      0x0100\n      exp\n      swap1\n      div\n      0xffffffffffffffffffffffffffffffffffffffff\n      and\n        /* \"Smart Contracts/26_OptimisticL2RollUps.sol\":10652:10668  bonds[sequencer] */\n      0xffffffffffffffffffffffffffffffffffffffff\n      and\n      0xffffffffffffffffffffffffffffffffffffffff\n      and\n      dup2\n      mstore\n      0x20\n      add\n      swap1\n      dup2\n      mstore\n      0x20\n      add\n      0x00\n      keccak256\n      sload\n        /* \"Smart Contracts/26_OptimisticL2RollUps.sol\":10634:10668  uint256 seqBond = bonds[sequencer] */\n      swap1\n      pop\n        /* \"Smart Contracts/26_OptimisticL2RollUps.sol\":10683:10702  uint256 actualSlash */\n      0x00\n        /* \"Smart Contracts/26_OptimisticL2RollUps.sol\":10719:10726  seqBond */\n      dup2\n        /* \"Smart Contracts/26_OptimisticL2RollUps.sol\":10705:10716  slashAmount */\n      dup4\n        /* \"Smart Contracts/26_OptimisticL2RollUps.sol\":10705:10726  slashAmount > seqBond */\n      gt\n        /* \"Smart Contracts/26_OptimisticL2RollUps.sol\":10705:10750  slashAmount > seqBond ? seqBond : slashAmount */\n      tag_286\n      jumpi\n        /* \"Smart Contracts/26_OptimisticL2RollUps.sol\":10739:10750  slashAmount */\n      dup3\n        /* \"Smart Contracts/26_OptimisticL2RollUps.sol\":10705:10750  slashAmount > seqBond ? seqBond : slashAmount */\n      jump(tag_287)\n    tag_286:\n        /* \"Smart Contracts/26_OptimisticL2RollUps.sol\":10729:10736  seqBond */\n      dup2\n        /* \"Smart Contracts/26_OptimisticL2RollUps.sol\":10705:10750  slashAmount > seqBond ? seqBond : slashAmount */\n    tag_287:\n        /* \"Smart Contracts/26_OptimisticL2RollUps.sol\":10683:10750  uint256 actualSlash = slashAmount > seqBond ? seqBond : slashAmount */\n      swap1\n      pop\n        /* \"Smart Contracts/26_OptimisticL2RollUps.sol\":10785:10786  0 */\n      0x00\n        /* \"Smart Contracts/26_OptimisticL2RollUps.sol\":10771:10782  actualSlash */\n      dup2\n        /* \"Smart Contracts/26_OptimisticL2RollUps.sol\":10771:10786  actualSlash > 0 */\n      gt\n        /* \"Smart Contracts/26_OptimisticL2RollUps.sol\":10767:10916  if (actualSlash > 0) {... */\n      iszero\n      tag_288\n      jumpi\n        /* \"Smart Contracts/26_OptimisticL2RollUps.sol\":10836:10847  actualSlash */\n      dup1\n        /* \"Smart Contracts/26_OptimisticL2RollUps.sol\":10826:10833  seqBond */\n      dup3\n        /* \"Smart Contracts/26_OptimisticL2RollUps.sol\":10826:10847  seqBond - actualSlash */\n      tag_289\n      swap2\n      swap1\n      tag_229\n      jump\t// in\n    tag_289:\n        /* \"Smart Contracts/26_OptimisticL2RollUps.sol\":10807:10812  bonds */\n      0x07\n        /* \"Smart Contracts/26_OptimisticL2RollUps.sol\":10807:10823  bonds[sequencer] */\n      0x00\n        /* \"Smart Contracts/26_OptimisticL2RollUps.sol\":10813:10822  sequencer */\n      0x02\n      0x00\n      swap1\n      sload\n      swap1\n      0x0100\n      exp\n      swap1\n      div\n      0xffffffffffffffffffffffffffffffffffffffff\n      and\n        /* \"Smart Contracts/26_OptimisticL2RollUps.sol\":10807:10823  bonds[sequencer] */\n      0xffffffffffffffffffffffffffffffffffffffff\n      and\n      0xffffffffffffffffffffffffffffffffffffffff\n      and\n      dup2\n      mstore\n      0x20\n      add\n      swap1\n      dup2\n      mstore\n      0x20\n      add\n      0x00\n      keccak256\n        /* \"Smart Contracts/26_OptimisticL2RollUps.sol\":10807:10847  bonds[sequencer] = seqBond - actualSlash */\n      dup2\n      swap1\n      sstore\n      pop\n        /* \"Smart Contracts/26_OptimisticL2RollUps.sol\":10889:10900  actualSlash */\n      dup1\n        /* \"Smart Contracts/26_OptimisticL2RollUps.sol\":10866:10871  bonds */\n      0x07\n        /* \"Smart Contracts/26_OptimisticL2RollUps.sol\":10866:10885  bonds[b.challenger] */\n      0x00\n        /* \"Smart Contracts/26_OptimisticL2RollUps.sol\":10872:10873  b */\n      dup8\n        /* \"Smart Contracts/26_OptimisticL2RollUps.sol\":10872:10884  b.challenger */\n      0x04\n      add\n      0x0a\n      swap1\n      sload\n      swap1\n      0x0100\n      exp\n      swap1\n      div\n      0xffffffffffffffffffffffffffffffffffffffff\n      and\n        /* \"Smart Contracts/26_OptimisticL2RollUps.sol\":10866:10885  bonds[b.challenger] */\n      0xffffffffffffffffffffffffffffffffffffffff\n      and\n      0xffffffffffffffffffffffffffffffffffffffff\n      and\n      dup2\n      mstore\n      0x20\n      add\n      swap1\n      dup2\n      mstore\n      0x20\n      add\n      0x00\n      keccak256\n      0x00\n        /* \"Smart Contracts/26_OptimisticL2RollUps.sol\":10866:10900  bonds[b.challenger] += actualSlash */\n      dup3\n      dup3\n      sload\n      tag_290\n      swap2\n      swap1\n      tag_208\n      jump\t// in\n    tag_290:\n      swap3\n      pop\n      pop\n      dup2\n      swap1\n      sstore\n      pop\n        /* \"Smart Contracts/26_OptimisticL2RollUps.sol\":10767:10916  if (actualSlash > 0) {... */\n    tag_288:\n        /* \"Smart Contracts/26_OptimisticL2RollUps.sol\":10494:11003  {... */\n      pop\n      pop\n      pop\n        /* \"Smart Contracts/26_OptimisticL2RollUps.sol\":10477:11300  if (fraudProven) {... */\n      jump(tag_291)\n    tag_283:\n        /* \"Smart Contracts/26_OptimisticL2RollUps.sol\":11078:11093  uint256 penalty */\n      0x00\n        /* \"Smart Contracts/26_OptimisticL2RollUps.sol\":11113:11115  10 */\n      0x0a\n        /* \"Smart Contracts/26_OptimisticL2RollUps.sol\":11096:11110  challengerBond */\n      sload(0x05)\n        /* \"Smart Contracts/26_OptimisticL2RollUps.sol\":11096:11115  challengerBond / 10 */\n      tag_292\n      swap2\n      swap1\n      tag_285\n      jump\t// in\n    tag_292:\n        /* \"Smart Contracts/26_OptimisticL2RollUps.sol\":11078:11115  uint256 penalty = challengerBond / 10 */\n      swap1\n      pop\n        /* \"Smart Contracts/26_OptimisticL2RollUps.sol\":11130:11143  uint256 cBond */\n      0x00\n        /* \"Smart Contracts/26_OptimisticL2RollUps.sol\":11146:11151  bonds */\n      0x07\n        /* \"Smart Contracts/26_OptimisticL2RollUps.sol\":11146:11165  bonds[b.challenger] */\n      0x00\n        /* \"Smart Contracts/26_OptimisticL2RollUps.sol\":11152:11153  b */\n      dup6\n        /* \"Smart Contracts/26_OptimisticL2RollUps.sol\":11152:11164  b.challenger */\n      0x04\n      add\n      0x0a\n      swap1\n      sload\n      swap1\n      0x0100\n      exp\n      swap1\n      div\n      0xffffffffffffffffffffffffffffffffffffffff\n      and\n        /* \"Smart Contracts/26_OptimisticL2RollUps.sol\":11146:11165  bonds[b.challenger] */\n      0xffffffffffffffffffffffffffffffffffffffff\n      and\n      0xffffffffffffffffffffffffffffffffffffffff\n      and\n      dup2\n      mstore\n      0x20\n      add\n      swap1\n      dup2\n      mstore\n      0x20\n      add\n      0x00\n      keccak256\n      sload\n        /* \"Smart Contracts/26_OptimisticL2RollUps.sol\":11130:11165  uint256 cBond = bonds[b.challenger] */\n      swap1\n      pop\n        /* \"Smart Contracts/26_OptimisticL2RollUps.sol\":11194:11195  0 */\n      0x00\n        /* \"Smart Contracts/26_OptimisticL2RollUps.sol\":11184:11191  penalty */\n      dup3\n        /* \"Smart Contracts/26_OptimisticL2RollUps.sol\":11184:11195  penalty > 0 */\n      gt\n        /* \"Smart Contracts/26_OptimisticL2RollUps.sol\":11184:11215  penalty > 0 && cBond >= penalty */\n      dup1\n      iszero\n      tag_293\n      jumpi\n      pop\n        /* \"Smart Contracts/26_OptimisticL2RollUps.sol\":11208:11215  penalty */\n      dup2\n        /* \"Smart Contracts/26_OptimisticL2RollUps.sol\":11199:11204  cBond */\n      dup2\n        /* \"Smart Contracts/26_OptimisticL2RollUps.sol\":11199:11215  cBond >= penalty */\n      lt\n      iszero\n        /* \"Smart Contracts/26_OptimisticL2RollUps.sol\":11184:11215  penalty > 0 && cBond >= penalty */\n    tag_293:\n        /* \"Smart Contracts/26_OptimisticL2RollUps.sol\":11180:11289  if (penalty > 0 && cBond >= penalty) {... */\n      iszero\n      tag_294\n      jumpi\n        /* \"Smart Contracts/26_OptimisticL2RollUps.sol\":11266:11273  penalty */\n      dup2\n        /* \"Smart Contracts/26_OptimisticL2RollUps.sol\":11258:11263  cBond */\n      dup2\n        /* \"Smart Contracts/26_OptimisticL2RollUps.sol\":11258:11273  cBond - penalty */\n      tag_295\n      swap2\n      swap1\n      tag_229\n      jump\t// in\n    tag_295:\n        /* \"Smart Contracts/26_OptimisticL2RollUps.sol\":11236:11241  bonds */\n      0x07\n        /* \"Smart Contracts/26_OptimisticL2RollUps.sol\":11236:11255  bonds[b.challenger] */\n      0x00\n        /* \"Smart Contracts/26_OptimisticL2RollUps.sol\":11242:11243  b */\n      dup7\n        /* \"Smart Contracts/26_OptimisticL2RollUps.sol\":11242:11254  b.challenger */\n      0x04\n      add\n      0x0a\n      swap1\n      sload\n      swap1\n      0x0100\n      exp\n      swap1\n      div\n      0xffffffffffffffffffffffffffffffffffffffff\n      and\n        /* \"Smart Contracts/26_OptimisticL2RollUps.sol\":11236:11255  bonds[b.challenger] */\n      0xffffffffffffffffffffffffffffffffffffffff\n      and\n      0xffffffffffffffffffffffffffffffffffffffff\n      and\n      dup2\n      mstore\n      0x20\n      add\n      swap1\n      dup2\n      mstore\n      0x20\n      add\n      0x00\n      keccak256\n        /* \"Smart Contracts/26_OptimisticL2RollUps.sol\":11236:11273  bonds[b.challenger] = cBond - penalty */\n      dup2\n      swap1\n      sstore\n      pop\n        /* \"Smart Contracts/26_OptimisticL2RollUps.sol\":11180:11289  if (penalty > 0 && cBond >= penalty) {... */\n    tag_294:\n        /* \"Smart Contracts/26_OptimisticL2RollUps.sol\":11009:11300  {... */\n      pop\n      pop\n        /* \"Smart Contracts/26_OptimisticL2RollUps.sol\":10477:11300  if (fraudProven) {... */\n    tag_291:\n        /* \"Smart Contracts/26_OptimisticL2RollUps.sol\":11327:11332  false */\n      0x00\n        /* \"Smart Contracts/26_OptimisticL2RollUps.sol\":11312:11313  b */\n      dup3\n        /* \"Smart Contracts/26_OptimisticL2RollUps.sol\":11312:11324  b.challenged */\n      0x04\n      add\n      0x08\n        /* \"Smart Contracts/26_OptimisticL2RollUps.sol\":11312:11332  b.challenged = false */\n      0x0100\n      exp\n      dup2\n      sload\n      dup2\n      0xff\n      mul\n      not\n      and\n      swap1\n      dup4\n      iszero\n      iszero\n      mul\n      or\n      swap1\n      sstore\n      pop\n        /* \"Smart Contracts/26_OptimisticL2RollUps.sol\":11368:11375  batchId */\n      dup5\n        /* \"Smart Contracts/26_OptimisticL2RollUps.sol\":11350:11389  ChallengeResolved(batchId, fraudProven) */\n      0x1c13286911ea61ab9e07cf462b69b2c12954593a03380a618afdf62d227021ae\n        /* \"Smart Contracts/26_OptimisticL2RollUps.sol\":11377:11388  fraudProven */\n      dup3\n        /* \"Smart Contracts/26_OptimisticL2RollUps.sol\":11350:11389  ChallengeResolved(batchId, fraudProven) */\n      mload(0x40)\n      tag_296\n      swap2\n      swap1\n      tag_76\n      jump\t// in\n    tag_296:\n      mload(0x40)\n      dup1\n      swap2\n      sub\n      swap1\n      log2\n        /* \"Smart Contracts/26_OptimisticL2RollUps.sol\":9973:11397  {... */\n      pop\n      pop\n        /* \"Smart Contracts/26_OptimisticL2RollUps.sol\":9885:11397  function resolveChallenge(uint256 batchId, bytes calldata proof) external whenNotPaused {... */\n      pop\n      pop\n      pop\n      jump\t// out\n        /* \"Smart Contracts/26_OptimisticL2RollUps.sol\":2558:2637  function pause() external onlyOwner { paused = true; emit Paused(msg.sender); } */\n    tag_114:\n        /* \"Smart Contracts/26_OptimisticL2RollUps.sol\":2091:2096  owner */\n      0x00\n      0x00\n      swap1\n      sload\n      swap1\n      0x0100\n      exp\n      swap1\n      div\n      0xffffffffffffffffffffffffffffffffffffffff\n      and\n        /* \"Smart Contracts/26_OptimisticL2RollUps.sol\":2077:2096  msg.sender == owner */\n      0xffffffffffffffffffffffffffffffffffffffff\n      and\n        /* \"Smart Contracts/26_OptimisticL2RollUps.sol\":2077:2087  msg.sender */\n      caller\n        /* \"Smart Contracts/26_OptimisticL2RollUps.sol\":2077:2096  msg.sender == owner */\n      0xffffffffffffffffffffffffffffffffffffffff\n      and\n      eq\n        /* \"Smart Contracts/26_OptimisticL2RollUps.sol\":2069:2111  require(msg.sender == owner, \"ONLY_OWNER\") */\n      tag_298\n      jumpi\n      mload(0x40)\n      0x08c379a000000000000000000000000000000000000000000000000000000000\n      dup2\n      mstore\n      0x04\n      add\n      tag_299\n      swap1\n      tag_213\n      jump\t// in\n    tag_299:\n      mload(0x40)\n      dup1\n      swap2\n      sub\n      swap1\n      revert\n    tag_298:\n        /* \"Smart Contracts/26_OptimisticL2RollUps.sol\":2605:2609  true */\n      0x01\n        /* \"Smart Contracts/26_OptimisticL2RollUps.sol\":2596:2602  paused */\n      0x00\n      0x14\n        /* \"Smart Contracts/26_OptimisticL2RollUps.sol\":2596:2609  paused = true */\n      0x0100\n      exp\n      dup2\n      sload\n      dup2\n      0xff\n      mul\n      not\n      and\n      swap1\n      dup4\n      iszero\n      iszero\n      mul\n      or\n      swap1\n      sstore\n      pop\n        /* \"Smart Contracts/26_OptimisticL2RollUps.sol\":2623:2633  msg.sender */\n      caller\n        /* \"Smart Contracts/26_OptimisticL2RollUps.sol\":2616:2634  Paused(msg.sender) */\n      0xffffffffffffffffffffffffffffffffffffffff\n      and\n      0x62e78cea01bee320cd4e420270b5ea74000d11b0c9f74754ebdbfc544b05a258\n      mload(0x40)\n      mload(0x40)\n      dup1\n      swap2\n      sub\n      swap1\n      log2\n        /* \"Smart Contracts/26_OptimisticL2RollUps.sol\":2558:2637  function pause() external onlyOwner { paused = true; emit Paused(msg.sender); } */\n      jump\t// out\n        /* \"Smart Contracts/26_OptimisticL2RollUps.sol\":3524:3554  uint256 public challengeWindow */\n    tag_117:\n      sload(0x06)\n      dup2\n      jump\t// out\n        /* \"Smart Contracts/26_OptimisticL2RollUps.sol\":1813:1833  address public owner */\n    tag_121:\n      0x00\n      0x00\n      swap1\n      sload\n      swap1\n      0x0100\n      exp\n      swap1\n      div\n      0xffffffffffffffffffffffffffffffffffffffff\n      and\n      dup2\n      jump\t// out\n        /* \"Smart Contracts/26_OptimisticL2RollUps.sol\":9283:9877  function challengeBatch(uint256 batchId) external whenNotPaused {... */\n    tag_126:\n        /* \"Smart Contracts/26_OptimisticL2RollUps.sol\":2527:2533  paused */\n      0x00\n      0x14\n      swap1\n      sload\n      swap1\n      0x0100\n      exp\n      swap1\n      div\n      0xff\n      and\n        /* \"Smart Contracts/26_OptimisticL2RollUps.sol\":2526:2533  !paused */\n      iszero\n        /* \"Smart Contracts/26_OptimisticL2RollUps.sol\":2518:2544  require(!paused, \"PAUSED\") */\n      tag_302\n      jumpi\n      mload(0x40)\n      0x08c379a000000000000000000000000000000000000000000000000000000000\n      dup2\n      mstore\n      0x04\n      add\n      tag_303\n      swap1\n      tag_173\n      jump\t// in\n    tag_303:\n      mload(0x40)\n      dup1\n      swap2\n      sub\n      swap1\n      revert\n    tag_302:\n        /* \"Smart Contracts/26_OptimisticL2RollUps.sol\":9358:9373  Batch storage b */\n      0x00\n        /* \"Smart Contracts/26_OptimisticL2RollUps.sol\":9376:9383  batches */\n      0x09\n        /* \"Smart Contracts/26_OptimisticL2RollUps.sol\":9376:9392  batches[batchId] */\n      0x00\n        /* \"Smart Contracts/26_OptimisticL2RollUps.sol\":9384:9391  batchId */\n      dup4\n        /* \"Smart Contracts/26_OptimisticL2RollUps.sol\":9376:9392  batches[batchId] */\n      dup2\n      mstore\n      0x20\n      add\n      swap1\n      dup2\n      mstore\n      0x20\n      add\n      0x00\n      keccak256\n        /* \"Smart Contracts/26_OptimisticL2RollUps.sol\":9358:9392  Batch storage b = batches[batchId] */\n      swap1\n      pop\n        /* \"Smart Contracts/26_OptimisticL2RollUps.sol\":9424:9425  0 */\n      0x00\n        /* \"Smart Contracts/26_OptimisticL2RollUps.sol\":9407:9408  b */\n      dup2\n        /* \"Smart Contracts/26_OptimisticL2RollUps.sol\":9407:9420  b.submittedAt */\n      0x04\n      add\n      0x00\n      swap1\n      sload\n      swap1\n      0x0100\n      exp\n      swap1\n      div\n      0xffffffffffffffff\n      and\n        /* \"Smart Contracts/26_OptimisticL2RollUps.sol\":9407:9425  b.submittedAt == 0 */\n      0xffffffffffffffff\n      and\n      sub\n        /* \"Smart Contracts/26_OptimisticL2RollUps.sol\":9403:9449  if (b.submittedAt == 0) revert BatchNotFound() */\n      tag_305\n      jumpi\n        /* \"Smart Contracts/26_OptimisticL2RollUps.sol\":9434:9449  BatchNotFound() */\n      mload(0x40)\n      0x9e15e1bc00000000000000000000000000000000000000000000000000000000\n      dup2\n      mstore\n      0x04\n      add\n      mload(0x40)\n      dup1\n      swap2\n      sub\n      swap1\n      revert\n        /* \"Smart Contracts/26_OptimisticL2RollUps.sol\":9403:9449  if (b.submittedAt == 0) revert BatchNotFound() */\n    tag_305:\n        /* \"Smart Contracts/26_OptimisticL2RollUps.sol\":9464:9465  b */\n      dup1\n        /* \"Smart Contracts/26_OptimisticL2RollUps.sol\":9464:9475  b.finalized */\n      0x04\n      add\n      0x09\n      swap1\n      sload\n      swap1\n      0x0100\n      exp\n      swap1\n      div\n      0xff\n      and\n        /* \"Smart Contracts/26_OptimisticL2RollUps.sol\":9460:9507  if (b.finalized) revert BatchAlreadyFinalized() */\n      iszero\n      tag_306\n      jumpi\n        /* \"Smart Contracts/26_OptimisticL2RollUps.sol\":9484:9507  BatchAlreadyFinalized() */\n      mload(0x40)\n      0x8a66d60700000000000000000000000000000000000000000000000000000000\n      dup2\n      mstore\n      0x04\n      add\n      mload(0x40)\n      dup1\n      swap2\n      sub\n      swap1\n      revert\n        /* \"Smart Contracts/26_OptimisticL2RollUps.sol\":9460:9507  if (b.finalized) revert BatchAlreadyFinalized() */\n    tag_306:\n        /* \"Smart Contracts/26_OptimisticL2RollUps.sol\":9522:9523  b */\n      dup1\n        /* \"Smart Contracts/26_OptimisticL2RollUps.sol\":9522:9534  b.challenged */\n      0x04\n      add\n      0x08\n      swap1\n      sload\n      swap1\n      0x0100\n      exp\n      swap1\n      div\n      0xff\n      and\n        /* \"Smart Contracts/26_OptimisticL2RollUps.sol\":9518:9562  if (b.challenged) revert AlreadyChallenged() */\n      iszero\n      tag_307\n      jumpi\n        /* \"Smart Contracts/26_OptimisticL2RollUps.sol\":9543:9562  AlreadyChallenged() */\n      mload(0x40)\n      0xf1082a9300000000000000000000000000000000000000000000000000000000\n      dup2\n      mstore\n      0x04\n      add\n      mload(0x40)\n      dup1\n      swap2\n      sub\n      swap1\n      revert\n        /* \"Smart Contracts/26_OptimisticL2RollUps.sol\":9518:9562  if (b.challenged) revert AlreadyChallenged() */\n    tag_307:\n        /* \"Smart Contracts/26_OptimisticL2RollUps.sol\":9622:9637  challengeWindow */\n      sload(0x06)\n        /* \"Smart Contracts/26_OptimisticL2RollUps.sol\":9605:9606  b */\n      dup2\n        /* \"Smart Contracts/26_OptimisticL2RollUps.sol\":9605:9618  b.submittedAt */\n      0x04\n      add\n      0x00\n      swap1\n      sload\n      swap1\n      0x0100\n      exp\n      swap1\n      div\n      0xffffffffffffffff\n      and\n        /* \"Smart Contracts/26_OptimisticL2RollUps.sol\":9597:9619  uint256(b.submittedAt) */\n      0xffffffffffffffff\n      and\n        /* \"Smart Contracts/26_OptimisticL2RollUps.sol\":9597:9637  uint256(b.submittedAt) + challengeWindow */\n      tag_308\n      swap2\n      swap1\n      tag_208\n      jump\t// in\n    tag_308:\n        /* \"Smart Contracts/26_OptimisticL2RollUps.sol\":9579:9594  block.timestamp */\n      timestamp\n        /* \"Smart Contracts/26_OptimisticL2RollUps.sol\":9579:9637  block.timestamp > uint256(b.submittedAt) + challengeWindow */\n      gt\n        /* \"Smart Contracts/26_OptimisticL2RollUps.sol\":9575:9667  if (block.timestamp > uint256(b.submittedAt) + challengeWindow) revert ChallengePeriodOver() */\n      iszero\n      tag_309\n      jumpi\n        /* \"Smart Contracts/26_OptimisticL2RollUps.sol\":9646:9667  ChallengePeriodOver() */\n      mload(0x40)\n      0xf541751000000000000000000000000000000000000000000000000000000000\n      dup2\n      mstore\n      0x04\n      add\n      mload(0x40)\n      dup1\n      swap2\n      sub\n      swap1\n      revert\n        /* \"Smart Contracts/26_OptimisticL2RollUps.sol\":9575:9667  if (block.timestamp > uint256(b.submittedAt) + challengeWindow) revert ChallengePeriodOver() */\n    tag_309:\n        /* \"Smart Contracts/26_OptimisticL2RollUps.sol\":9709:9723  challengerBond */\n      sload(0x05)\n        /* \"Smart Contracts/26_OptimisticL2RollUps.sol\":9688:9693  bonds */\n      0x07\n        /* \"Smart Contracts/26_OptimisticL2RollUps.sol\":9688:9705  bonds[msg.sender] */\n      0x00\n        /* \"Smart Contracts/26_OptimisticL2RollUps.sol\":9694:9704  msg.sender */\n      caller\n        /* \"Smart Contracts/26_OptimisticL2RollUps.sol\":9688:9705  bonds[msg.sender] */\n      0xffffffffffffffffffffffffffffffffffffffff\n      and\n      0xffffffffffffffffffffffffffffffffffffffff\n      and\n      dup2\n      mstore\n      0x20\n      add\n      swap1\n      dup2\n      mstore\n      0x20\n      add\n      0x00\n      keccak256\n      sload\n        /* \"Smart Contracts/26_OptimisticL2RollUps.sol\":9688:9723  bonds[msg.sender] >= challengerBond */\n      lt\n      iszero\n        /* \"Smart Contracts/26_OptimisticL2RollUps.sol\":9680:9747  require(bonds[msg.sender] >= challengerBond, \"CHALLENGER_BOND_LOW\") */\n      tag_310\n      jumpi\n      mload(0x40)\n      0x08c379a000000000000000000000000000000000000000000000000000000000\n      dup2\n      mstore\n      0x04\n      add\n      tag_311\n      swap1\n      tag_312\n      jump\t// in\n    tag_311:\n      mload(0x40)\n      dup1\n      swap2\n      sub\n      swap1\n      revert\n    tag_310:\n        /* \"Smart Contracts/26_OptimisticL2RollUps.sol\":9775:9779  true */\n      0x01\n        /* \"Smart Contracts/26_OptimisticL2RollUps.sol\":9760:9761  b */\n      dup2\n        /* \"Smart Contracts/26_OptimisticL2RollUps.sol\":9760:9772  b.challenged */\n      0x04\n      add\n      0x08\n        /* \"Smart Contracts/26_OptimisticL2RollUps.sol\":9760:9779  b.challenged = true */\n      0x0100\n      exp\n      dup2\n      sload\n      dup2\n      0xff\n      mul\n      not\n      and\n      swap1\n      dup4\n      iszero\n      iszero\n      mul\n      or\n      swap1\n      sstore\n      pop\n        /* \"Smart Contracts/26_OptimisticL2RollUps.sol\":9805:9815  msg.sender */\n      caller\n        /* \"Smart Contracts/26_OptimisticL2RollUps.sol\":9790:9791  b */\n      dup2\n        /* \"Smart Contracts/26_OptimisticL2RollUps.sol\":9790:9802  b.challenger */\n      0x04\n      add\n      0x0a\n        /* \"Smart Contracts/26_OptimisticL2RollUps.sol\":9790:9815  b.challenger = msg.sender */\n      0x0100\n      exp\n      dup2\n      sload\n      dup2\n      0xffffffffffffffffffffffffffffffffffffffff\n      mul\n      not\n      and\n      swap1\n      dup4\n      0xffffffffffffffffffffffffffffffffffffffff\n      and\n      mul\n      or\n      swap1\n      sstore\n      pop\n        /* \"Smart Contracts/26_OptimisticL2RollUps.sol\":9858:9868  msg.sender */\n      caller\n        /* \"Smart Contracts/26_OptimisticL2RollUps.sol\":9833:9869  BatchChallenged(batchId, msg.sender) */\n      0xffffffffffffffffffffffffffffffffffffffff\n      and\n        /* \"Smart Contracts/26_OptimisticL2RollUps.sol\":9849:9856  batchId */\n      dup3\n        /* \"Smart Contracts/26_OptimisticL2RollUps.sol\":9833:9869  BatchChallenged(batchId, msg.sender) */\n      0x341905abd65f49eb35219139a0ccdce4a6d57d73972347db266f11adcb5a8c89\n      mload(0x40)\n      mload(0x40)\n      dup1\n      swap2\n      sub\n      swap1\n      log3\n        /* \"Smart Contracts/26_OptimisticL2RollUps.sol\":9347:9877  {... */\n      pop\n        /* \"Smart Contracts/26_OptimisticL2RollUps.sol\":9283:9877  function challengeBatch(uint256 batchId) external whenNotPaused {... */\n      pop\n      jump\t// out\n        /* \"Smart Contracts/26_OptimisticL2RollUps.sol\":7842:8193  function depositERC20(address token, uint256 amount) external whenNotPaused {... */\n    tag_131:\n        /* \"Smart Contracts/26_OptimisticL2RollUps.sol\":2527:2533  paused */\n      0x00\n      0x14\n      swap1\n      sload\n      swap1\n      0x0100\n      exp\n      swap1\n      div\n      0xff\n      and\n        /* \"Smart Contracts/26_OptimisticL2RollUps.sol\":2526:2533  !paused */\n      iszero\n        /* \"Smart Contracts/26_OptimisticL2RollUps.sol\":2518:2544  require(!paused, \"PAUSED\") */\n      tag_314\n      jumpi\n      mload(0x40)\n      0x08c379a000000000000000000000000000000000000000000000000000000000\n      dup2\n      mstore\n      0x04\n      add\n      tag_315\n      swap1\n      tag_173\n      jump\t// in\n    tag_315:\n      mload(0x40)\n      dup1\n      swap2\n      sub\n      swap1\n      revert\n    tag_314:\n        /* \"Smart Contracts/26_OptimisticL2RollUps.sol\":7943:7944  0 */\n      0x00\n        /* \"Smart Contracts/26_OptimisticL2RollUps.sol\":7933:7939  amount */\n      dup2\n        /* \"Smart Contracts/26_OptimisticL2RollUps.sol\":7933:7944  amount == 0 */\n      sub\n        /* \"Smart Contracts/26_OptimisticL2RollUps.sol\":7929:7965  if (amount == 0) revert ZeroAmount() */\n      tag_317\n      jumpi\n        /* \"Smart Contracts/26_OptimisticL2RollUps.sol\":7953:7965  ZeroAmount() */\n      mload(0x40)\n      0x1f2a200500000000000000000000000000000000000000000000000000000000\n      dup2\n      mstore\n      0x04\n      add\n      mload(0x40)\n      dup1\n      swap2\n      sub\n      swap1\n      revert\n        /* \"Smart Contracts/26_OptimisticL2RollUps.sol\":7929:7965  if (amount == 0) revert ZeroAmount() */\n    tag_317:\n        /* \"Smart Contracts/26_OptimisticL2RollUps.sol\":7976:7983  bool ok */\n      0x00\n        /* \"Smart Contracts/26_OptimisticL2RollUps.sol\":7993:7998  token */\n      dup3\n        /* \"Smart Contracts/26_OptimisticL2RollUps.sol\":7986:8012  IERC20(token).transferFrom */\n      0xffffffffffffffffffffffffffffffffffffffff\n      and\n      0x23b872dd\n        /* \"Smart Contracts/26_OptimisticL2RollUps.sol\":8013:8023  msg.sender */\n      caller\n        /* \"Smart Contracts/26_OptimisticL2RollUps.sol\":8033:8037  this */\n      address\n        /* \"Smart Contracts/26_OptimisticL2RollUps.sol\":8040:8046  amount */\n      dup6\n        /* \"Smart Contracts/26_OptimisticL2RollUps.sol\":7986:8047  IERC20(token).transferFrom(msg.sender, address(this), amount) */\n      mload(0x40)\n      dup5\n      0xffffffff\n      and\n      0xe0\n      shl\n      dup2\n      mstore\n      0x04\n      add\n      tag_318\n      swap4\n      swap3\n      swap2\n      swap1\n      tag_319\n      jump\t// in\n    tag_318:\n      0x20\n      mload(0x40)\n      dup1\n      dup4\n      sub\n      dup2\n      0x00\n      dup8\n      gas\n      call\n      iszero\n      dup1\n      iszero\n      tag_321\n      jumpi\n      returndatacopy(0x00, 0x00, returndatasize)\n      revert(0x00, returndatasize)\n    tag_321:\n      pop\n      pop\n      pop\n      pop\n      mload(0x40)\n      returndatasize\n      not(0x1f)\n      0x1f\n      dup3\n      add\n      and\n      dup3\n      add\n      dup1\n      0x40\n      mstore\n      pop\n      dup2\n      add\n      swap1\n      tag_322\n      swap2\n      swap1\n      tag_201\n      jump\t// in\n    tag_322:\n        /* \"Smart Contracts/26_OptimisticL2RollUps.sol\":7976:8047  bool ok = IERC20(token).transferFrom(msg.sender, address(this), amount) */\n      swap1\n      pop\n        /* \"Smart Contracts/26_OptimisticL2RollUps.sol\":8063:8065  ok */\n      dup1\n        /* \"Smart Contracts/26_OptimisticL2RollUps.sol\":8058:8090  if (!ok) revert TransferFailed() */\n      tag_323\n      jumpi\n        /* \"Smart Contracts/26_OptimisticL2RollUps.sol\":8074:8090  TransferFailed() */\n      mload(0x40)\n      0x90b8ec1800000000000000000000000000000000000000000000000000000000\n      dup2\n      mstore\n      0x04\n      add\n      mload(0x40)\n      dup1\n      swap2\n      sub\n      swap1\n      revert\n        /* \"Smart Contracts/26_OptimisticL2RollUps.sol\":8058:8090  if (!ok) revert TransferFailed() */\n    tag_323:\n        /* \"Smart Contracts/26_OptimisticL2RollUps.sol\":8101:8110  uint256 n */\n      0x00\n        /* \"Smart Contracts/26_OptimisticL2RollUps.sol\":8115:8127  depositNonce */\n      0x0b\n      0x00\n        /* \"Smart Contracts/26_OptimisticL2RollUps.sol\":8113:8127  ++depositNonce */\n      dup2\n      sload\n      tag_324\n      swap1\n      tag_265\n      jump\t// in\n    tag_324:\n      swap2\n      swap1\n      pop\n      dup2\n      swap1\n      sstore\n        /* \"Smart Contracts/26_OptimisticL2RollUps.sol\":8101:8127  uint256 n = ++depositNonce */\n      swap1\n      pop\n        /* \"Smart Contracts/26_OptimisticL2RollUps.sol\":8183:8184  n */\n      dup1\n        /* \"Smart Contracts/26_OptimisticL2RollUps.sol\":8168:8173  token */\n      dup5\n        /* \"Smart Contracts/26_OptimisticL2RollUps.sol\":8143:8185  DepositERC20(msg.sender, token, amount, n) */\n      0xffffffffffffffffffffffffffffffffffffffff\n      and\n        /* \"Smart Contracts/26_OptimisticL2RollUps.sol\":8156:8166  msg.sender */\n      caller\n        /* \"Smart Contracts/26_OptimisticL2RollUps.sol\":8143:8185  DepositERC20(msg.sender, token, amount, n) */\n      0xffffffffffffffffffffffffffffffffffffffff\n      and\n      0x228adef123a7fe6b727889b4d24b39b39de663428214fd757c6c501fb98d8494\n        /* \"Smart Contracts/26_OptimisticL2RollUps.sol\":8175:8181  amount */\n      dup7\n        /* \"Smart Contracts/26_OptimisticL2RollUps.sol\":8143:8185  DepositERC20(msg.sender, token, amount, n) */\n      mload(0x40)\n      tag_325\n      swap2\n      swap1\n      tag_69\n      jump\t// in\n    tag_325:\n      mload(0x40)\n      dup1\n      swap2\n      sub\n      swap1\n      log4\n        /* \"Smart Contracts/26_OptimisticL2RollUps.sol\":7918:8193  {... */\n      pop\n      pop\n        /* \"Smart Contracts/26_OptimisticL2RollUps.sol\":7842:8193  function depositERC20(address token, uint256 amount) external whenNotPaused {... */\n      pop\n      pop\n      jump\t// out\n        /* \"Smart Contracts/26_OptimisticL2RollUps.sol\":3453:3481  uint256 public sequencerBond */\n    tag_134:\n      sload(0x04)\n      dup2\n      jump\t// out\n        /* \"Smart Contracts/26_OptimisticL2RollUps.sol\":4008:4039  bytes32 public currentStateRoot */\n    tag_138:\n      sload(0x0a)\n      dup2\n      jump\t// out\n        /* \"Smart Contracts/26_OptimisticL2RollUps.sol\":3959:3999  mapping(uint256 => Batch) public batches */\n    tag_144:\n      mstore(0x20, 0x09)\n      dup1\n      0x00\n      mstore\n      keccak256(0x00, 0x40)\n      0x00\n      swap2\n      pop\n      swap1\n      pop\n      dup1\n      0x00\n      add\n      sload\n      swap1\n      dup1\n      0x01\n      add\n      sload\n      swap1\n      dup1\n      0x02\n      add\n      sload\n      swap1\n      dup1\n      0x03\n      add\n      sload\n      swap1\n      dup1\n      0x04\n      add\n      0x00\n      swap1\n      sload\n      swap1\n      0x0100\n      exp\n      swap1\n      div\n      0xffffffffffffffff\n      and\n      swap1\n      dup1\n      0x04\n      add\n      0x08\n      swap1\n      sload\n      swap1\n      0x0100\n      exp\n      swap1\n      div\n      0xff\n      and\n      swap1\n      dup1\n      0x04\n      add\n      0x09\n      swap1\n      sload\n      swap1\n      0x0100\n      exp\n      swap1\n      div\n      0xff\n      and\n      swap1\n      dup1\n      0x04\n      add\n      0x0a\n      swap1\n      sload\n      swap1\n      0x0100\n      exp\n      swap1\n      div\n      0xffffffffffffffffffffffffffffffffffffffff\n      and\n      swap1\n      pop\n      dup9\n      jump\t// out\n        /* \"Smart Contracts/26_OptimisticL2RollUps.sol\":4087:4114  uint256 public depositNonce */\n    tag_149:\n      sload(0x0b)\n      dup2\n      jump\t// out\n        /* \"Smart Contracts/26_OptimisticL2RollUps.sol\":11448:11928  function finalizeBatch(uint256 batchId) external whenNotPaused {... */\n    tag_154:\n        /* \"Smart Contracts/26_OptimisticL2RollUps.sol\":2527:2533  paused */\n      0x00\n      0x14\n      swap1\n      sload\n      swap1\n      0x0100\n      exp\n      swap1\n      div\n      0xff\n      and\n        /* \"Smart Contracts/26_OptimisticL2RollUps.sol\":2526:2533  !paused */\n      iszero\n        /* \"Smart Contracts/26_OptimisticL2RollUps.sol\":2518:2544  require(!paused, \"PAUSED\") */\n      tag_327\n      jumpi\n      mload(0x40)\n      0x08c379a000000000000000000000000000000000000000000000000000000000\n      dup2\n      mstore\n      0x04\n      add\n      tag_328\n      swap1\n      tag_173\n      jump\t// in\n    tag_328:\n      mload(0x40)\n      dup1\n      swap2\n      sub\n      swap1\n      revert\n    tag_327:\n        /* \"Smart Contracts/26_OptimisticL2RollUps.sol\":11522:11537  Batch storage b */\n      0x00\n        /* \"Smart Contracts/26_OptimisticL2RollUps.sol\":11540:11547  batches */\n      0x09\n        /* \"Smart Contracts/26_OptimisticL2RollUps.sol\":11540:11556  batches[batchId] */\n      0x00\n        /* \"Smart Contracts/26_OptimisticL2RollUps.sol\":11548:11555  batchId */\n      dup4\n        /* \"Smart Contracts/26_OptimisticL2RollUps.sol\":11540:11556  batches[batchId] */\n      dup2\n      mstore\n      0x20\n      add\n      swap1\n      dup2\n      mstore\n      0x20\n      add\n      0x00\n      keccak256\n        /* \"Smart Contracts/26_OptimisticL2RollUps.sol\":11522:11556  Batch storage b = batches[batchId] */\n      swap1\n      pop\n        /* \"Smart Contracts/26_OptimisticL2RollUps.sol\":11588:11589  0 */\n      0x00\n        /* \"Smart Contracts/26_OptimisticL2RollUps.sol\":11571:11572  b */\n      dup2\n        /* \"Smart Contracts/26_OptimisticL2RollUps.sol\":11571:11584  b.submittedAt */\n      0x04\n      add\n      0x00\n      swap1\n      sload\n      swap1\n      0x0100\n      exp\n      swap1\n      div\n      0xffffffffffffffff\n      and\n        /* \"Smart Contracts/26_OptimisticL2RollUps.sol\":11571:11589  b.submittedAt == 0 */\n      0xffffffffffffffff\n      and\n      sub\n        /* \"Smart Contracts/26_OptimisticL2RollUps.sol\":11567:11613  if (b.submittedAt == 0) revert BatchNotFound() */\n      tag_330\n      jumpi\n        /* \"Smart Contracts/26_OptimisticL2RollUps.sol\":11598:11613  BatchNotFound() */\n      mload(0x40)\n      0x9e15e1bc00000000000000000000000000000000000000000000000000000000\n      dup2\n      mstore\n      0x04\n      add\n      mload(0x40)\n      dup1\n      swap2\n      sub\n      swap1\n      revert\n        /* \"Smart Contracts/26_OptimisticL2RollUps.sol\":11567:11613  if (b.submittedAt == 0) revert BatchNotFound() */\n    tag_330:\n        /* \"Smart Contracts/26_OptimisticL2RollUps.sol\":11628:11629  b */\n      dup1\n        /* \"Smart Contracts/26_OptimisticL2RollUps.sol\":11628:11639  b.finalized */\n      0x04\n      add\n      0x09\n      swap1\n      sload\n      swap1\n      0x0100\n      exp\n      swap1\n      div\n      0xff\n      and\n        /* \"Smart Contracts/26_OptimisticL2RollUps.sol\":11624:11671  if (b.finalized) revert BatchAlreadyFinalized() */\n      iszero\n      tag_331\n      jumpi\n        /* \"Smart Contracts/26_OptimisticL2RollUps.sol\":11648:11671  BatchAlreadyFinalized() */\n      mload(0x40)\n      0x8a66d60700000000000000000000000000000000000000000000000000000000\n      dup2\n      mstore\n      0x04\n      add\n      mload(0x40)\n      dup1\n      swap2\n      sub\n      swap1\n      revert\n        /* \"Smart Contracts/26_OptimisticL2RollUps.sol\":11624:11671  if (b.finalized) revert BatchAlreadyFinalized() */\n    tag_331:\n        /* \"Smart Contracts/26_OptimisticL2RollUps.sol\":11732:11747  challengeWindow */\n      sload(0x06)\n        /* \"Smart Contracts/26_OptimisticL2RollUps.sol\":11715:11716  b */\n      dup2\n        /* \"Smart Contracts/26_OptimisticL2RollUps.sol\":11715:11728  b.submittedAt */\n      0x04\n      add\n      0x00\n      swap1\n      sload\n      swap1\n      0x0100\n      exp\n      swap1\n      div\n      0xffffffffffffffff\n      and\n        /* \"Smart Contracts/26_OptimisticL2RollUps.sol\":11707:11729  uint256(b.submittedAt) */\n      0xffffffffffffffff\n      and\n        /* \"Smart Contracts/26_OptimisticL2RollUps.sol\":11707:11747  uint256(b.submittedAt) + challengeWindow */\n      tag_332\n      swap2\n      swap1\n      tag_208\n      jump\t// in\n    tag_332:\n        /* \"Smart Contracts/26_OptimisticL2RollUps.sol\":11688:11703  block.timestamp */\n      timestamp\n        /* \"Smart Contracts/26_OptimisticL2RollUps.sol\":11688:11747  block.timestamp <= uint256(b.submittedAt) + challengeWindow */\n      gt\n        /* \"Smart Contracts/26_OptimisticL2RollUps.sol\":11684:11779  if (block.timestamp <= uint256(b.submittedAt) + challengeWindow) revert ChallengePeriodActive() */\n      tag_333\n      jumpi\n        /* \"Smart Contracts/26_OptimisticL2RollUps.sol\":11756:11779  ChallengePeriodActive() */\n      mload(0x40)\n      0xc970363200000000000000000000000000000000000000000000000000000000\n      dup2\n      mstore\n      0x04\n      add\n      mload(0x40)\n      dup1\n      swap2\n      sub\n      swap1\n      revert\n        /* \"Smart Contracts/26_OptimisticL2RollUps.sol\":11684:11779  if (block.timestamp <= uint256(b.submittedAt) + challengeWindow) revert ChallengePeriodActive() */\n    tag_333:\n        /* \"Smart Contracts/26_OptimisticL2RollUps.sol\":11794:11795  b */\n      dup1\n        /* \"Smart Contracts/26_OptimisticL2RollUps.sol\":11794:11806  b.challenged */\n      0x04\n      add\n      0x08\n      swap1\n      sload\n      swap1\n      0x0100\n      exp\n      swap1\n      div\n      0xff\n      and\n        /* \"Smart Contracts/26_OptimisticL2RollUps.sol\":11790:11834  if (b.challenged) revert AlreadyChallenged() */\n      iszero\n      tag_334\n      jumpi\n        /* \"Smart Contracts/26_OptimisticL2RollUps.sol\":11815:11834  AlreadyChallenged() */\n      mload(0x40)\n      0xf1082a9300000000000000000000000000000000000000000000000000000000\n      dup2\n      mstore\n      0x04\n      add\n      mload(0x40)\n      dup1\n      swap2\n      sub\n      swap1\n      revert\n        /* \"Smart Contracts/26_OptimisticL2RollUps.sol\":11790:11834  if (b.challenged) revert AlreadyChallenged() */\n    tag_334:\n        /* \"Smart Contracts/26_OptimisticL2RollUps.sol\":11861:11865  true */\n      0x01\n        /* \"Smart Contracts/26_OptimisticL2RollUps.sol\":11847:11848  b */\n      dup2\n        /* \"Smart Contracts/26_OptimisticL2RollUps.sol\":11847:11858  b.finalized */\n      0x04\n      add\n      0x09\n        /* \"Smart Contracts/26_OptimisticL2RollUps.sol\":11847:11865  b.finalized = true */\n      0x0100\n      exp\n      dup2\n      sload\n      dup2\n      0xff\n      mul\n      not\n      and\n      swap1\n      dup4\n      iszero\n      iszero\n      mul\n      or\n      swap1\n      sstore\n      pop\n        /* \"Smart Contracts/26_OptimisticL2RollUps.sol\":11905:11906  b */\n      dup1\n        /* \"Smart Contracts/26_OptimisticL2RollUps.sol\":11905:11919  b.newStateRoot */\n      0x01\n      add\n      sload\n        /* \"Smart Contracts/26_OptimisticL2RollUps.sol\":11896:11903  batchId */\n      dup3\n        /* \"Smart Contracts/26_OptimisticL2RollUps.sol\":11881:11920  BatchFinalized(batchId, b.newStateRoot) */\n      0xa3ea0288fb824a30cae7f7d72a9e887bd0926c40c8438c43b49cfca687b0df52\n      mload(0x40)\n      mload(0x40)\n      dup1\n      swap2\n      sub\n      swap1\n      log3\n        /* \"Smart Contracts/26_OptimisticL2RollUps.sol\":11511:11928  {... */\n      pop\n        /* \"Smart Contracts/26_OptimisticL2RollUps.sol\":11448:11928  function finalizeBatch(uint256 batchId) external whenNotPaused {... */\n      pop\n      jump\t// out\n        /* \"Smart Contracts/26_OptimisticL2RollUps.sol\":6499:6672  function setFraudVerifier(address verifier) external onlyOwner {... */\n    tag_158:\n        /* \"Smart Contracts/26_OptimisticL2RollUps.sol\":2091:2096  owner */\n      0x00\n      0x00\n      swap1\n      sload\n      swap1\n      0x0100\n      exp\n      swap1\n      div\n      0xffffffffffffffffffffffffffffffffffffffff\n      and\n        /* \"Smart Contracts/26_OptimisticL2RollUps.sol\":2077:2096  msg.sender == owner */\n      0xffffffffffffffffffffffffffffffffffffffff\n      and\n        /* \"Smart Contracts/26_OptimisticL2RollUps.sol\":2077:2087  msg.sender */\n      caller\n        /* \"Smart Contracts/26_OptimisticL2RollUps.sol\":2077:2096  msg.sender == owner */\n      0xffffffffffffffffffffffffffffffffffffffff\n      and\n      eq\n        /* \"Smart Contracts/26_OptimisticL2RollUps.sol\":2069:2111  require(msg.sender == owner, \"ONLY_OWNER\") */\n      tag_336\n      jumpi\n      mload(0x40)\n      0x08c379a000000000000000000000000000000000000000000000000000000000\n      dup2\n      mstore\n      0x04\n      add\n      tag_337\n      swap1\n      tag_213\n      jump\t// in\n    tag_337:\n      mload(0x40)\n      dup1\n      swap2\n      sub\n      swap1\n      revert\n    tag_336:\n        /* \"Smart Contracts/26_OptimisticL2RollUps.sol\":6609:6617  verifier */\n      dup1\n        /* \"Smart Contracts/26_OptimisticL2RollUps.sol\":6573:6586  fraudVerifier */\n      0x03\n      0x00\n        /* \"Smart Contracts/26_OptimisticL2RollUps.sol\":6573:6618  fraudVerifier = IFraudProofVerifier(verifier) */\n      0x0100\n      exp\n      dup2\n      sload\n      dup2\n      0xffffffffffffffffffffffffffffffffffffffff\n      mul\n      not\n      and\n      swap1\n      dup4\n      0xffffffffffffffffffffffffffffffffffffffff\n      and\n      mul\n      or\n      swap1\n      sstore\n      pop\n        /* \"Smart Contracts/26_OptimisticL2RollUps.sol\":6655:6663  verifier */\n      dup1\n        /* \"Smart Contracts/26_OptimisticL2RollUps.sol\":6634:6664  FraudVerifierUpdated(verifier) */\n      0xffffffffffffffffffffffffffffffffffffffff\n      and\n      0x8f188b15032cf36df69a7f5f4bd1583e05704dbb1504feabf2a98d125fc9b235\n      mload(0x40)\n      mload(0x40)\n      dup1\n      swap2\n      sub\n      swap1\n      log2\n        /* \"Smart Contracts/26_OptimisticL2RollUps.sol\":6499:6672  function setFraudVerifier(address verifier) external onlyOwner {... */\n      pop\n      jump\t// out\n        /* \"Smart Contracts/26_OptimisticL2RollUps.sol\":2125:2332  function transferOwnership(address newOwner) external onlyOwner {... */\n    tag_162:\n        /* \"Smart Contracts/26_OptimisticL2RollUps.sol\":2091:2096  owner */\n      0x00\n      0x00\n      swap1\n      sload\n      swap1\n      0x0100\n      exp\n      swap1\n      div\n      0xffffffffffffffffffffffffffffffffffffffff\n      and\n        /* \"Smart Contracts/26_OptimisticL2RollUps.sol\":2077:2096  msg.sender == owner */\n      0xffffffffffffffffffffffffffffffffffffffff\n      and\n        /* \"Smart Contracts/26_OptimisticL2RollUps.sol\":2077:2087  msg.sender */\n      caller\n        /* \"Smart Contracts/26_OptimisticL2RollUps.sol\":2077:2096  msg.sender == owner */\n      0xffffffffffffffffffffffffffffffffffffffff\n      and\n      eq\n        /* \"Smart Contracts/26_OptimisticL2RollUps.sol\":2069:2111  require(msg.sender == owner, \"ONLY_OWNER\") */\n      tag_340\n      jumpi\n      mload(0x40)\n      0x08c379a000000000000000000000000000000000000000000000000000000000\n      dup2\n      mstore\n      0x04\n      add\n      tag_341\n      swap1\n      tag_213\n      jump\t// in\n    tag_341:\n      mload(0x40)\n      dup1\n      swap2\n      sub\n      swap1\n      revert\n    tag_340:\n        /* \"Smart Contracts/26_OptimisticL2RollUps.sol\":2228:2229  0 */\n      0x00\n        /* \"Smart Contracts/26_OptimisticL2RollUps.sol\":2208:2230  newOwner != address(0) */\n      0xffffffffffffffffffffffffffffffffffffffff\n      and\n        /* \"Smart Contracts/26_OptimisticL2RollUps.sol\":2208:2216  newOwner */\n      dup2\n        /* \"Smart Contracts/26_OptimisticL2RollUps.sol\":2208:2230  newOwner != address(0) */\n      0xffffffffffffffffffffffffffffffffffffffff\n      and\n      sub\n        /* \"Smart Contracts/26_OptimisticL2RollUps.sol\":2200:2244  require(newOwner != address(0), \"ZERO_ADDR\") */\n      tag_343\n      jumpi\n      mload(0x40)\n      0x08c379a000000000000000000000000000000000000000000000000000000000\n      dup2\n      mstore\n      0x04\n      add\n      tag_344\n      swap1\n      tag_217\n      jump\t// in\n    tag_344:\n      mload(0x40)\n      dup1\n      swap2\n      sub\n      swap1\n      revert\n    tag_343:\n        /* \"Smart Contracts/26_OptimisticL2RollUps.sol\":2288:2296  newOwner */\n      dup1\n        /* \"Smart Contracts/26_OptimisticL2RollUps.sol\":2260:2297  OwnershipTransferred(owner, newOwner) */\n      0xffffffffffffffffffffffffffffffffffffffff\n      and\n        /* \"Smart Contracts/26_OptimisticL2RollUps.sol\":2281:2286  owner */\n      0x00\n      0x00\n      swap1\n      sload\n      swap1\n      0x0100\n      exp\n      swap1\n      div\n      0xffffffffffffffffffffffffffffffffffffffff\n      and\n        /* \"Smart Contracts/26_OptimisticL2RollUps.sol\":2260:2297  OwnershipTransferred(owner, newOwner) */\n      0xffffffffffffffffffffffffffffffffffffffff\n      and\n      0x8be0079c531659141344cd1fd0a4f28419497f9722a3daafe3b4186f6b6457e0\n      mload(0x40)\n      mload(0x40)\n      dup1\n      swap2\n      sub\n      swap1\n      log3\n        /* \"Smart Contracts/26_OptimisticL2RollUps.sol\":2316:2324  newOwner */\n      dup1\n        /* \"Smart Contracts/26_OptimisticL2RollUps.sol\":2308:2313  owner */\n      0x00\n      0x00\n        /* \"Smart Contracts/26_OptimisticL2RollUps.sol\":2308:2324  owner = newOwner */\n      0x0100\n      exp\n      dup2\n      sload\n      dup2\n      0xffffffffffffffffffffffffffffffffffffffff\n      mul\n      not\n      and\n      swap1\n      dup4\n      0xffffffffffffffffffffffffffffffffffffffff\n      and\n      mul\n      or\n      swap1\n      sstore\n      pop\n        /* \"Smart Contracts/26_OptimisticL2RollUps.sol\":2125:2332  function transferOwnership(address newOwner) external onlyOwner {... */\n      pop\n      jump\t// out\n        /* \"Smart Contracts/26_OptimisticL2RollUps.sol\":7634:7834  function depositETH() external payable whenNotPaused {... */\n    tag_164:\n        /* \"Smart Contracts/26_OptimisticL2RollUps.sol\":2527:2533  paused */\n      0x00\n      0x14\n      swap1\n      sload\n      swap1\n      0x0100\n      exp\n      swap1\n      div\n      0xff\n      and\n        /* \"Smart Contracts/26_OptimisticL2RollUps.sol\":2526:2533  !paused */\n      iszero\n        /* \"Smart Contracts/26_OptimisticL2RollUps.sol\":2518:2544  require(!paused, \"PAUSED\") */\n      tag_346\n      jumpi\n      mload(0x40)\n      0x08c379a000000000000000000000000000000000000000000000000000000000\n      dup2\n      mstore\n      0x04\n      add\n      tag_347\n      swap1\n      tag_173\n      jump\t// in\n    tag_347:\n      mload(0x40)\n      dup1\n      swap2\n      sub\n      swap1\n      revert\n    tag_346:\n        /* \"Smart Contracts/26_OptimisticL2RollUps.sol\":7715:7716  0 */\n      0x00\n        /* \"Smart Contracts/26_OptimisticL2RollUps.sol\":7702:7711  msg.value */\n      callvalue\n        /* \"Smart Contracts/26_OptimisticL2RollUps.sol\":7702:7716  msg.value == 0 */\n      sub\n        /* \"Smart Contracts/26_OptimisticL2RollUps.sol\":7698:7737  if (msg.value == 0) revert ZeroAmount() */\n      tag_349\n      jumpi\n        /* \"Smart Contracts/26_OptimisticL2RollUps.sol\":7725:7737  ZeroAmount() */\n      mload(0x40)\n      0x1f2a200500000000000000000000000000000000000000000000000000000000\n      dup2\n      mstore\n      0x04\n      add\n      mload(0x40)\n      dup1\n      swap2\n      sub\n      swap1\n      revert\n        /* \"Smart Contracts/26_OptimisticL2RollUps.sol\":7698:7737  if (msg.value == 0) revert ZeroAmount() */\n    tag_349:\n        /* \"Smart Contracts/26_OptimisticL2RollUps.sol\":7748:7757  uint256 n */\n      0x00\n        /* \"Smart Contracts/26_OptimisticL2RollUps.sol\":7762:7774  depositNonce */\n      0x0b\n      0x00\n        /* \"Smart Contracts/26_OptimisticL2RollUps.sol\":7760:7774  ++depositNonce */\n      dup2\n      sload\n      tag_350\n      swap1\n      tag_265\n      jump\t// in\n    tag_350:\n      swap2\n      swap1\n      pop\n      dup2\n      swap1\n      sstore\n        /* \"Smart Contracts/26_OptimisticL2RollUps.sol\":7748:7774  uint256 n = ++depositNonce */\n      swap1\n      pop\n        /* \"Smart Contracts/26_OptimisticL2RollUps.sol\":7824:7825  n */\n      dup1\n        /* \"Smart Contracts/26_OptimisticL2RollUps.sol\":7801:7811  msg.sender */\n      caller\n        /* \"Smart Contracts/26_OptimisticL2RollUps.sol\":7790:7826  DepositETH(msg.sender, msg.value, n) */\n      0xffffffffffffffffffffffffffffffffffffffff\n      and\n      0x57e8e547a3ef8d890c570ca885b0a8c441be3070e36b7ad4c7d6b9d9316ff2ce\n        /* \"Smart Contracts/26_OptimisticL2RollUps.sol\":7813:7822  msg.value */\n      callvalue\n        /* \"Smart Contracts/26_OptimisticL2RollUps.sol\":7790:7826  DepositETH(msg.sender, msg.value, n) */\n      mload(0x40)\n      tag_351\n      swap2\n      swap1\n      tag_69\n      jump\t// in\n    tag_351:\n      mload(0x40)\n      dup1\n      swap2\n      sub\n      swap1\n      log3\n        /* \"Smart Contracts/26_OptimisticL2RollUps.sol\":7687:7834  {... */\n      pop\n        /* \"Smart Contracts/26_OptimisticL2RollUps.sol\":7634:7834  function depositETH() external payable whenNotPaused {... */\n      jump\t// out\n        /* \"Smart Contracts/26_OptimisticL2RollUps.sol\":3563:3603  mapping(address => uint256) public bonds */\n    tag_168:\n      mstore(0x20, 0x07)\n      dup1\n      0x00\n      mstore\n      keccak256(0x00, 0x40)\n      0x00\n      swap2\n      pop\n      swap1\n      pop\n      sload\n      dup2\n      jump\t// out\n        /* \"Smart Contracts/26_OptimisticL2RollUps.sol\":1212:1525  function verify(bytes32[] calldata proof, bytes32 root, bytes32 leaf) internal pure returns (bool) {... */\n    tag_186:\n        /* \"Smart Contracts/26_OptimisticL2RollUps.sol\":1305:1309  bool */\n      0x00\n        /* \"Smart Contracts/26_OptimisticL2RollUps.sol\":1322:1338  bytes32 computed */\n      0x00\n        /* \"Smart Contracts/26_OptimisticL2RollUps.sol\":1341:1345  leaf */\n      dup3\n        /* \"Smart Contracts/26_OptimisticL2RollUps.sol\":1322:1345  bytes32 computed = leaf */\n      swap1\n      pop\n        /* \"Smart Contracts/26_OptimisticL2RollUps.sol\":1361:1370  uint256 i */\n      0x00\n        /* \"Smart Contracts/26_OptimisticL2RollUps.sol\":1373:1374  0 */\n      0x00\n        /* \"Smart Contracts/26_OptimisticL2RollUps.sol\":1361:1374  uint256 i = 0 */\n      swap1\n      pop\n        /* \"Smart Contracts/26_OptimisticL2RollUps.sol\":1356:1484  for (uint256 i = 0; i < proof.length; i++) {... */\n    tag_353:\n        /* \"Smart Contracts/26_OptimisticL2RollUps.sol\":1380:1385  proof */\n      dup7\n      dup7\n        /* \"Smart Contracts/26_OptimisticL2RollUps.sol\":1380:1392  proof.length */\n      swap1\n      pop\n        /* \"Smart Contracts/26_OptimisticL2RollUps.sol\":1376:1377  i */\n      dup2\n        /* \"Smart Contracts/26_OptimisticL2RollUps.sol\":1376:1392  i < proof.length */\n      lt\n        /* \"Smart Contracts/26_OptimisticL2RollUps.sol\":1356:1484  for (uint256 i = 0; i < proof.length; i++) {... */\n      iszero\n      tag_354\n      jumpi\n        /* \"Smart Contracts/26_OptimisticL2RollUps.sol\":1452:1460  computed */\n      dup2\n        /* \"Smart Contracts/26_OptimisticL2RollUps.sol\":1462:1467  proof */\n      dup8\n      dup8\n        /* \"Smart Contracts/26_OptimisticL2RollUps.sol\":1468:1469  i */\n      dup4\n        /* \"Smart Contracts/26_OptimisticL2RollUps.sol\":1462:1470  proof[i] */\n      dup2\n      dup2\n      lt\n      tag_356\n      jumpi\n      tag_357\n      tag_358\n      jump\t// in\n    tag_357:\n    tag_356:\n      swap1\n      pop\n      0x20\n      mul\n      add\n      calldataload\n        /* \"Smart Contracts/26_OptimisticL2RollUps.sol\":1435:1471  abi.encodePacked(computed, proof[i]) */\n      add(0x20, mload(0x40))\n      tag_359\n      swap3\n      swap2\n      swap1\n      tag_360\n      jump\t// in\n    tag_359:\n      mload(0x40)\n      0x20\n      dup2\n      dup4\n      sub\n      sub\n      dup2\n      mstore\n      swap1\n      0x40\n      mstore\n        /* \"Smart Contracts/26_OptimisticL2RollUps.sol\":1425:1472  keccak256(abi.encodePacked(computed, proof[i])) */\n      dup1\n      mload\n      swap1\n      0x20\n      add\n      keccak256\n        /* \"Smart Contracts/26_OptimisticL2RollUps.sol\":1414:1472  computed = keccak256(abi.encodePacked(computed, proof[i])) */\n      swap2\n      pop\n        /* \"Smart Contracts/26_OptimisticL2RollUps.sol\":1394:1397  i++ */\n      dup1\n      dup1\n      0x01\n      add\n      swap2\n      pop\n      pop\n        /* \"Smart Contracts/26_OptimisticL2RollUps.sol\":1356:1484  for (uint256 i = 0; i < proof.length; i++) {... */\n      jump(tag_353)\n    tag_354:\n      pop\n        /* \"Smart Contracts/26_OptimisticL2RollUps.sol\":1513:1517  root */\n      dup4\n        /* \"Smart Contracts/26_OptimisticL2RollUps.sol\":1501:1509  computed */\n      dup2\n        /* \"Smart Contracts/26_OptimisticL2RollUps.sol\":1501:1517  computed == root */\n      eq\n        /* \"Smart Contracts/26_OptimisticL2RollUps.sol\":1494:1517  return computed == root */\n      swap2\n      pop\n      pop\n        /* \"Smart Contracts/26_OptimisticL2RollUps.sol\":1212:1525  function verify(bytes32[] calldata proof, bytes32 root, bytes32 leaf) internal pure returns (bool) {... */\n      swap5\n      swap4\n      pop\n      pop\n      pop\n      pop\n      jump\t// out\n        /* \"#utility.yul\":88:205   */\n    tag_362:\n        /* \"#utility.yul\":197:198   */\n      0x00\n        /* \"#utility.yul\":194:195   */\n      0x00\n        /* \"#utility.yul\":187:199   */\n      revert\n        /* \"#utility.yul\":211:328   */\n    tag_363:\n        /* \"#utility.yul\":320:321   */\n      0x00\n        /* \"#utility.yul\":317:318   */\n      0x00\n        /* \"#utility.yul\":310:322   */\n      revert\n        /* \"#utility.yul\":334:411   */\n    tag_364:\n        /* \"#utility.yul\":371:378   */\n      0x00\n        /* \"#utility.yul\":400:405   */\n      dup2\n        /* \"#utility.yul\":389:405   */\n      swap1\n      pop\n        /* \"#utility.yul\":334:411   */\n      swap2\n      swap1\n      pop\n      jump\t// out\n        /* \"#utility.yul\":417:539   */\n    tag_365:\n        /* \"#utility.yul\":490:514   */\n      tag_431\n        /* \"#utility.yul\":508:513   */\n      dup2\n        /* \"#utility.yul\":490:514   */\n      tag_364\n      jump\t// in\n    tag_431:\n        /* \"#utility.yul\":483:488   */\n      dup2\n        /* \"#utility.yul\":480:515   */\n      eq\n        /* \"#utility.yul\":470:533   */\n      tag_432\n      jumpi\n        /* \"#utility.yul\":529:530   */\n      0x00\n        /* \"#utility.yul\":526:527   */\n      0x00\n        /* \"#utility.yul\":519:531   */\n      revert\n        /* \"#utility.yul\":470:533   */\n    tag_432:\n        /* \"#utility.yul\":417:539   */\n      pop\n      jump\t// out\n        /* \"#utility.yul\":545:684   */\n    tag_366:\n        /* \"#utility.yul\":591:596   */\n      0x00\n        /* \"#utility.yul\":629:635   */\n      dup2\n        /* \"#utility.yul\":616:636   */\n      calldataload\n        /* \"#utility.yul\":607:636   */\n      swap1\n      pop\n        /* \"#utility.yul\":645:678   */\n      tag_434\n        /* \"#utility.yul\":672:677   */\n      dup2\n        /* \"#utility.yul\":645:678   */\n      tag_365\n      jump\t// in\n    tag_434:\n        /* \"#utility.yul\":545:684   */\n      swap3\n      swap2\n      pop\n      pop\n      jump\t// out\n        /* \"#utility.yul\":690:816   */\n    tag_367:\n        /* \"#utility.yul\":727:734   */\n      0x00\n        /* \"#utility.yul\":767:809   */\n      0xffffffffffffffffffffffffffffffffffffffff\n        /* \"#utility.yul\":760:765   */\n      dup3\n        /* \"#utility.yul\":756:810   */\n      and\n        /* \"#utility.yul\":745:810   */\n      swap1\n      pop\n        /* \"#utility.yul\":690:816   */\n      swap2\n      swap1\n      pop\n      jump\t// out\n        /* \"#utility.yul\":822:918   */\n    tag_368:\n        /* \"#utility.yul\":859:866   */\n      0x00\n        /* \"#utility.yul\":888:912   */\n      tag_437\n        /* \"#utility.yul\":906:911   */\n      dup3\n        /* \"#utility.yul\":888:912   */\n      tag_367\n      jump\t// in\n    tag_437:\n        /* \"#utility.yul\":877:912   */\n      swap1\n      pop\n        /* \"#utility.yul\":822:918   */\n      swap2\n      swap1\n      pop\n      jump\t// out\n        /* \"#utility.yul\":924:1046   */\n    tag_369:\n        /* \"#utility.yul\":997:1021   */\n      tag_439\n        /* \"#utility.yul\":1015:1020   */\n      dup2\n        /* \"#utility.yul\":997:1021   */\n      tag_368\n      jump\t// in\n    tag_439:\n        /* \"#utility.yul\":990:995   */\n      dup2\n        /* \"#utility.yul\":987:1022   */\n      eq\n        /* \"#utility.yul\":977:1040   */\n      tag_440\n      jumpi\n        /* \"#utility.yul\":1036:1037   */\n      0x00\n        /* \"#utility.yul\":1033:1034   */\n      0x00\n        /* \"#utility.yul\":1026:1038   */\n      revert\n        /* \"#utility.yul\":977:1040   */\n    tag_440:\n        /* \"#utility.yul\":924:1046   */\n      pop\n      jump\t// out\n        /* \"#utility.yul\":1052:1191   */\n    tag_370:\n        /* \"#utility.yul\":1098:1103   */\n      0x00\n        /* \"#utility.yul\":1136:1142   */\n      dup2\n        /* \"#utility.yul\":1123:1143   */\n      calldataload\n        /* \"#utility.yul\":1114:1143   */\n      swap1\n      pop\n        /* \"#utility.yul\":1152:1185   */\n      tag_442\n        /* \"#utility.yul\":1179:1184   */\n      dup2\n        /* \"#utility.yul\":1152:1185   */\n      tag_369\n      jump\t// in\n    tag_442:\n        /* \"#utility.yul\":1052:1191   */\n      swap3\n      swap2\n      pop\n      pop\n      jump\t// out\n        /* \"#utility.yul\":1197:1314   */\n    tag_371:\n        /* \"#utility.yul\":1306:1307   */\n      0x00\n        /* \"#utility.yul\":1303:1304   */\n      0x00\n        /* \"#utility.yul\":1296:1308   */\n      revert\n        /* \"#utility.yul\":1320:1437   */\n    tag_372:\n        /* \"#utility.yul\":1429:1430   */\n      0x00\n        /* \"#utility.yul\":1426:1427   */\n      0x00\n        /* \"#utility.yul\":1419:1431   */\n      revert\n        /* \"#utility.yul\":1443:1560   */\n    tag_373:\n        /* \"#utility.yul\":1552:1553   */\n      0x00\n        /* \"#utility.yul\":1549:1550   */\n      0x00\n        /* \"#utility.yul\":1542:1554   */\n      revert\n        /* \"#utility.yul\":1583:2151   */\n    tag_374:\n        /* \"#utility.yul\":1656:1664   */\n      0x00\n        /* \"#utility.yul\":1666:1672   */\n      0x00\n        /* \"#utility.yul\":1716:1719   */\n      dup4\n        /* \"#utility.yul\":1709:1713   */\n      0x1f\n        /* \"#utility.yul\":1701:1707   */\n      dup5\n        /* \"#utility.yul\":1697:1714   */\n      add\n        /* \"#utility.yul\":1693:1720   */\n      slt\n        /* \"#utility.yul\":1683:1805   */\n      tag_447\n      jumpi\n        /* \"#utility.yul\":1724:1803   */\n      tag_448\n      tag_371\n      jump\t// in\n    tag_448:\n        /* \"#utility.yul\":1683:1805   */\n    tag_447:\n        /* \"#utility.yul\":1837:1843   */\n      dup3\n        /* \"#utility.yul\":1824:1844   */\n      calldataload\n        /* \"#utility.yul\":1814:1844   */\n      swap1\n      pop\n        /* \"#utility.yul\":1867:1885   */\n      0xffffffffffffffff\n        /* \"#utility.yul\":1859:1865   */\n      dup2\n        /* \"#utility.yul\":1856:1886   */\n      gt\n        /* \"#utility.yul\":1853:1970   */\n      iszero\n      tag_449\n      jumpi\n        /* \"#utility.yul\":1889:1968   */\n      tag_450\n      tag_372\n      jump\t// in\n    tag_450:\n        /* \"#utility.yul\":1853:1970   */\n    tag_449:\n        /* \"#utility.yul\":2003:2007   */\n      0x20\n        /* \"#utility.yul\":1995:2001   */\n      dup4\n        /* \"#utility.yul\":1991:2008   */\n      add\n        /* \"#utility.yul\":1979:2008   */\n      swap2\n      pop\n        /* \"#utility.yul\":2057:2060   */\n      dup4\n        /* \"#utility.yul\":2049:2053   */\n      0x20\n        /* \"#utility.yul\":2041:2047   */\n      dup3\n        /* \"#utility.yul\":2037:2054   */\n      mul\n        /* \"#utility.yul\":2027:2035   */\n      dup4\n        /* \"#utility.yul\":2023:2055   */\n      add\n        /* \"#utility.yul\":2020:2061   */\n      gt\n        /* \"#utility.yul\":2017:2145   */\n      iszero\n      tag_451\n      jumpi\n        /* \"#utility.yul\":2064:2143   */\n      tag_452\n      tag_373\n      jump\t// in\n    tag_452:\n        /* \"#utility.yul\":2017:2145   */\n    tag_451:\n        /* \"#utility.yul\":1583:2151   */\n      swap3\n      pop\n      swap3\n      swap1\n      pop\n      jump\t// out\n        /* \"#utility.yul\":2157:3298   */\n    tag_44:\n        /* \"#utility.yul\":2279:2285   */\n      0x00\n        /* \"#utility.yul\":2287:2293   */\n      0x00\n        /* \"#utility.yul\":2295:2301   */\n      0x00\n        /* \"#utility.yul\":2303:2309   */\n      0x00\n        /* \"#utility.yul\":2311:2317   */\n      0x00\n        /* \"#utility.yul\":2319:2325   */\n      0x00\n        /* \"#utility.yul\":2368:2371   */\n      0xa0\n        /* \"#utility.yul\":2356:2365   */\n      dup8\n        /* \"#utility.yul\":2347:2354   */\n      dup10\n        /* \"#utility.yul\":2343:2366   */\n      sub\n        /* \"#utility.yul\":2339:2372   */\n      slt\n        /* \"#utility.yul\":2336:2456   */\n      iszero\n      tag_454\n      jumpi\n        /* \"#utility.yul\":2375:2454   */\n      tag_455\n      tag_362\n      jump\t// in\n    tag_455:\n        /* \"#utility.yul\":2336:2456   */\n    tag_454:\n        /* \"#utility.yul\":2495:2496   */\n      0x00\n        /* \"#utility.yul\":2520:2573   */\n      tag_456\n        /* \"#utility.yul\":2565:2572   */\n      dup10\n        /* \"#utility.yul\":2556:2562   */\n      dup3\n        /* \"#utility.yul\":2545:2554   */\n      dup11\n        /* \"#utility.yul\":2541:2563   */\n      add\n        /* \"#utility.yul\":2520:2573   */\n      tag_366\n      jump\t// in\n    tag_456:\n        /* \"#utility.yul\":2510:2573   */\n      swap7\n      pop\n        /* \"#utility.yul\":2466:2583   */\n      pop\n        /* \"#utility.yul\":2622:2624   */\n      0x20\n        /* \"#utility.yul\":2648:2701   */\n      tag_457\n        /* \"#utility.yul\":2693:2700   */\n      dup10\n        /* \"#utility.yul\":2684:2690   */\n      dup3\n        /* \"#utility.yul\":2673:2682   */\n      dup11\n        /* \"#utility.yul\":2669:2691   */\n      add\n        /* \"#utility.yul\":2648:2701   */\n      tag_370\n      jump\t// in\n    tag_457:\n        /* \"#utility.yul\":2638:2701   */\n      swap6\n      pop\n        /* \"#utility.yul\":2593:2711   */\n      pop\n        /* \"#utility.yul\":2750:2752   */\n      0x40\n        /* \"#utility.yul\":2776:2829   */\n      tag_458\n        /* \"#utility.yul\":2821:2828   */\n      dup10\n        /* \"#utility.yul\":2812:2818   */\n      dup3\n        /* \"#utility.yul\":2801:2810   */\n      dup11\n        /* \"#utility.yul\":2797:2819   */\n      add\n        /* \"#utility.yul\":2776:2829   */\n      tag_366\n      jump\t// in\n    tag_458:\n        /* \"#utility.yul\":2766:2829   */\n      swap5\n      pop\n        /* \"#utility.yul\":2721:2839   */\n      pop\n        /* \"#utility.yul\":2878:2880   */\n      0x60\n        /* \"#utility.yul\":2904:2957   */\n      tag_459\n        /* \"#utility.yul\":2949:2956   */\n      dup10\n        /* \"#utility.yul\":2940:2946   */\n      dup3\n        /* \"#utility.yul\":2929:2938   */\n      dup11\n        /* \"#utility.yul\":2925:2947   */\n      add\n        /* \"#utility.yul\":2904:2957   */\n      tag_366\n      jump\t// in\n    tag_459:\n        /* \"#utility.yul\":2894:2957   */\n      swap4\n      pop\n        /* \"#utility.yul\":2849:2967   */\n      pop\n        /* \"#utility.yul\":3034:3037   */\n      0x80\n        /* \"#utility.yul\":3023:3032   */\n      dup8\n        /* \"#utility.yul\":3019:3038   */\n      add\n        /* \"#utility.yul\":3006:3039   */\n      calldataload\n        /* \"#utility.yul\":3066:3084   */\n      0xffffffffffffffff\n        /* \"#utility.yul\":3058:3064   */\n      dup2\n        /* \"#utility.yul\":3055:3085   */\n      gt\n        /* \"#utility.yul\":3052:3169   */\n      iszero\n      tag_460\n      jumpi\n        /* \"#utility.yul\":3088:3167   */\n      tag_461\n      tag_363\n      jump\t// in\n    tag_461:\n        /* \"#utility.yul\":3052:3169   */\n    tag_460:\n        /* \"#utility.yul\":3201:3281   */\n      tag_462\n        /* \"#utility.yul\":3273:3280   */\n      dup10\n        /* \"#utility.yul\":3264:3270   */\n      dup3\n        /* \"#utility.yul\":3253:3262   */\n      dup11\n        /* \"#utility.yul\":3249:3271   */\n      add\n        /* \"#utility.yul\":3201:3281   */\n      tag_374\n      jump\t// in\n    tag_462:\n        /* \"#utility.yul\":3183:3281   */\n      swap3\n      pop\n      swap3\n      pop\n        /* \"#utility.yul\":2977:3291   */\n      pop\n        /* \"#utility.yul\":2157:3298   */\n      swap3\n      swap6\n      pop\n      swap3\n      swap6\n      pop\n      swap3\n      swap6\n      jump\t// out\n        /* \"#utility.yul\":3304:3633   */\n    tag_49:\n        /* \"#utility.yul\":3363:3369   */\n      0x00\n        /* \"#utility.yul\":3412:3414   */\n      0x20\n        /* \"#utility.yul\":3400:3409   */\n      dup3\n        /* \"#utility.yul\":3391:3398   */\n      dup5\n        /* \"#utility.yul\":3387:3410   */\n      sub\n        /* \"#utility.yul\":3383:3415   */\n      slt\n        /* \"#utility.yul\":3380:3499   */\n      iszero\n      tag_464\n      jumpi\n        /* \"#utility.yul\":3418:3497   */\n      tag_465\n      tag_362\n      jump\t// in\n    tag_465:\n        /* \"#utility.yul\":3380:3499   */\n    tag_464:\n        /* \"#utility.yul\":3538:3539   */\n      0x00\n        /* \"#utility.yul\":3563:3616   */\n      tag_466\n        /* \"#utility.yul\":3608:3615   */\n      dup5\n        /* \"#utility.yul\":3599:3605   */\n      dup3\n        /* \"#utility.yul\":3588:3597   */\n      dup6\n        /* \"#utility.yul\":3584:3606   */\n      add\n        /* \"#utility.yul\":3563:3616   */\n      tag_366\n      jump\t// in\n    tag_466:\n        /* \"#utility.yul\":3553:3616   */\n      swap2\n      pop\n        /* \"#utility.yul\":3509:3626   */\n      pop\n        /* \"#utility.yul\":3304:3633   */\n      swap3\n      swap2\n      pop\n      pop\n      jump\t// out\n        /* \"#utility.yul\":3639:3729   */\n    tag_375:\n        /* \"#utility.yul\":3673:3680   */\n      0x00\n        /* \"#utility.yul\":3716:3721   */\n      dup2\n        /* \"#utility.yul\":3709:3722   */\n      iszero\n        /* \"#utility.yul\":3702:3723   */\n      iszero\n        /* \"#utility.yul\":3691:3723   */\n      swap1\n      pop\n        /* \"#utility.yul\":3639:3729   */\n      swap2\n      swap1\n      pop\n      jump\t// out\n        /* \"#utility.yul\":3735:3844   */\n    tag_376:\n        /* \"#utility.yul\":3816:3837   */\n      tag_469\n        /* \"#utility.yul\":3831:3836   */\n      dup2\n        /* \"#utility.yul\":3816:3837   */\n      tag_375\n      jump\t// in\n    tag_469:\n        /* \"#utility.yul\":3811:3814   */\n      dup3\n        /* \"#utility.yul\":3804:3838   */\n      mstore\n        /* \"#utility.yul\":3735:3844   */\n      pop\n      pop\n      jump\t// out\n        /* \"#utility.yul\":3850:3968   */\n    tag_377:\n        /* \"#utility.yul\":3937:3961   */\n      tag_471\n        /* \"#utility.yul\":3955:3960   */\n      dup2\n        /* \"#utility.yul\":3937:3961   */\n      tag_364\n      jump\t// in\n    tag_471:\n        /* \"#utility.yul\":3932:3935   */\n      dup3\n        /* \"#utility.yul\":3925:3962   */\n      mstore\n        /* \"#utility.yul\":3850:3968   */\n      pop\n      pop\n      jump\t// out\n        /* \"#utility.yul\":3974:4051   */\n    tag_378:\n        /* \"#utility.yul\":4011:4018   */\n      0x00\n        /* \"#utility.yul\":4040:4045   */\n      dup2\n        /* \"#utility.yul\":4029:4045   */\n      swap1\n      pop\n        /* \"#utility.yul\":3974:4051   */\n      swap2\n      swap1\n      pop\n      jump\t// out\n        /* \"#utility.yul\":4057:4175   */\n    tag_379:\n        /* \"#utility.yul\":4144:4168   */\n      tag_474\n        /* \"#utility.yul\":4162:4167   */\n      dup2\n        /* \"#utility.yul\":4144:4168   */\n      tag_378\n      jump\t// in\n    tag_474:\n        /* \"#utility.yul\":4139:4142   */\n      dup3\n        /* \"#utility.yul\":4132:4169   */\n      mstore\n        /* \"#utility.yul\":4057:4175   */\n      pop\n      pop\n      jump\t// out\n        /* \"#utility.yul\":4181:4299   */\n    tag_380:\n        /* \"#utility.yul\":4268:4292   */\n      tag_476\n        /* \"#utility.yul\":4286:4291   */\n      dup2\n        /* \"#utility.yul\":4268:4292   */\n      tag_368\n      jump\t// in\n    tag_476:\n        /* \"#utility.yul\":4263:4266   */\n      dup3\n        /* \"#utility.yul\":4256:4293   */\n      mstore\n        /* \"#utility.yul\":4181:4299   */\n      pop\n      pop\n      jump\t// out\n        /* \"#utility.yul\":4305:5488   */\n    tag_52:\n        /* \"#utility.yul\":4632:4636   */\n      0x00\n        /* \"#utility.yul\":4670:4673   */\n      0x0140\n        /* \"#utility.yul\":4659:4668   */\n      dup3\n        /* \"#utility.yul\":4655:4674   */\n      add\n        /* \"#utility.yul\":4647:4674   */\n      swap1\n      pop\n        /* \"#utility.yul\":4684:4749   */\n      tag_478\n        /* \"#utility.yul\":4746:4747   */\n      0x00\n        /* \"#utility.yul\":4735:4744   */\n      dup4\n        /* \"#utility.yul\":4731:4748   */\n      add\n        /* \"#utility.yul\":4722:4728   */\n      dup14\n        /* \"#utility.yul\":4684:4749   */\n      tag_376\n      jump\t// in\n    tag_478:\n        /* \"#utility.yul\":4759:4825   */\n      tag_479\n        /* \"#utility.yul\":4821:4823   */\n      0x20\n        /* \"#utility.yul\":4810:4819   */\n      dup4\n        /* \"#utility.yul\":4806:4824   */\n      add\n        /* \"#utility.yul\":4797:4803   */\n      dup13\n        /* \"#utility.yul\":4759:4825   */\n      tag_376\n      jump\t// in\n    tag_479:\n        /* \"#utility.yul\":4835:4901   */\n      tag_480\n        /* \"#utility.yul\":4897:4899   */\n      0x40\n        /* \"#utility.yul\":4886:4895   */\n      dup4\n        /* \"#utility.yul\":4882:4900   */\n      add\n        /* \"#utility.yul\":4873:4879   */\n      dup12\n        /* \"#utility.yul\":4835:4901   */\n      tag_376\n      jump\t// in\n    tag_480:\n        /* \"#utility.yul\":4911:4983   */\n      tag_481\n        /* \"#utility.yul\":4979:4981   */\n      0x60\n        /* \"#utility.yul\":4968:4977   */\n      dup4\n        /* \"#utility.yul\":4964:4982   */\n      add\n        /* \"#utility.yul\":4955:4961   */\n      dup11\n        /* \"#utility.yul\":4911:4983   */\n      tag_377\n      jump\t// in\n    tag_481:\n        /* \"#utility.yul\":4993:5066   */\n      tag_482\n        /* \"#utility.yul\":5061:5064   */\n      0x80\n        /* \"#utility.yul\":5050:5059   */\n      dup4\n        /* \"#utility.yul\":5046:5065   */\n      add\n        /* \"#utility.yul\":5037:5043   */\n      dup10\n        /* \"#utility.yul\":4993:5066   */\n      tag_377\n      jump\t// in\n    tag_482:\n        /* \"#utility.yul\":5076:5149   */\n      tag_483\n        /* \"#utility.yul\":5144:5147   */\n      0xa0\n        /* \"#utility.yul\":5133:5142   */\n      dup4\n        /* \"#utility.yul\":5129:5148   */\n      add\n        /* \"#utility.yul\":5120:5126   */\n      dup9\n        /* \"#utility.yul\":5076:5149   */\n      tag_379\n      jump\t// in\n    tag_483:\n        /* \"#utility.yul\":5159:5232   */\n      tag_484\n        /* \"#utility.yul\":5227:5230   */\n      0xc0\n        /* \"#utility.yul\":5216:5225   */\n      dup4\n        /* \"#utility.yul\":5212:5231   */\n      add\n        /* \"#utility.yul\":5203:5209   */\n      dup8\n        /* \"#utility.yul\":5159:5232   */\n      tag_379\n      jump\t// in\n    tag_484:\n        /* \"#utility.yul\":5242:5315   */\n      tag_485\n        /* \"#utility.yul\":5310:5313   */\n      0xe0\n        /* \"#utility.yul\":5299:5308   */\n      dup4\n        /* \"#utility.yul\":5295:5314   */\n      add\n        /* \"#utility.yul\":5286:5292   */\n      dup7\n        /* \"#utility.yul\":5242:5315   */\n      tag_379\n      jump\t// in\n    tag_485:\n        /* \"#utility.yul\":5325:5398   */\n      tag_486\n        /* \"#utility.yul\":5393:5396   */\n      0x0100\n        /* \"#utility.yul\":5382:5391   */\n      dup4\n        /* \"#utility.yul\":5378:5397   */\n      add\n        /* \"#utility.yul\":5369:5375   */\n      dup6\n        /* \"#utility.yul\":5325:5398   */\n      tag_379\n      jump\t// in\n    tag_486:\n        /* \"#utility.yul\":5408:5481   */\n      tag_487\n        /* \"#utility.yul\":5476:5479   */\n      0x0120\n        /* \"#utility.yul\":5465:5474   */\n      dup4\n        /* \"#utility.yul\":5461:5480   */\n      add\n        /* \"#utility.yul\":5452:5458   */\n      dup5\n        /* \"#utility.yul\":5408:5481   */\n      tag_380\n      jump\t// in\n    tag_487:\n        /* \"#utility.yul\":4305:5488   */\n      swap12\n      swap11\n      pop\n      pop\n      pop\n      pop\n      pop\n      pop\n      pop\n      pop\n      pop\n      pop\n      pop\n      jump\t// out\n        /* \"#utility.yul\":5494:5823   */\n    tag_56:\n        /* \"#utility.yul\":5553:5559   */\n      0x00\n        /* \"#utility.yul\":5602:5604   */\n      0x20\n        /* \"#utility.yul\":5590:5599   */\n      dup3\n        /* \"#utility.yul\":5581:5588   */\n      dup5\n        /* \"#utility.yul\":5577:5600   */\n      sub\n        /* \"#utility.yul\":5573:5605   */\n      slt\n        /* \"#utility.yul\":5570:5689   */\n      iszero\n      tag_489\n      jumpi\n        /* \"#utility.yul\":5608:5687   */\n      tag_490\n      tag_362\n      jump\t// in\n    tag_490:\n        /* \"#utility.yul\":5570:5689   */\n    tag_489:\n        /* \"#utility.yul\":5728:5729   */\n      0x00\n        /* \"#utility.yul\":5753:5806   */\n      tag_491\n        /* \"#utility.yul\":5798:5805   */\n      dup5\n        /* \"#utility.yul\":5789:5795   */\n      dup3\n        /* \"#utility.yul\":5778:5787   */\n      dup6\n        /* \"#utility.yul\":5774:5796   */\n      add\n        /* \"#utility.yul\":5753:5806   */\n      tag_370\n      jump\t// in\n    tag_491:\n        /* \"#utility.yul\":5743:5806   */\n      swap2\n      pop\n        /* \"#utility.yul\":5699:5816   */\n      pop\n        /* \"#utility.yul\":5494:5823   */\n      swap3\n      swap2\n      pop\n      pop\n      jump\t// out\n        /* \"#utility.yul\":5829:6051   */\n    tag_69:\n        /* \"#utility.yul\":5922:5926   */\n      0x00\n        /* \"#utility.yul\":5960:5962   */\n      0x20\n        /* \"#utility.yul\":5949:5958   */\n      dup3\n        /* \"#utility.yul\":5945:5963   */\n      add\n        /* \"#utility.yul\":5937:5963   */\n      swap1\n      pop\n        /* \"#utility.yul\":5973:6044   */\n      tag_493\n        /* \"#utility.yul\":6041:6042   */\n      0x00\n        /* \"#utility.yul\":6030:6039   */\n      dup4\n        /* \"#utility.yul\":6026:6043   */\n      add\n        /* \"#utility.yul\":6017:6023   */\n      dup5\n        /* \"#utility.yul\":5973:6044   */\n      tag_377\n      jump\t// in\n    tag_493:\n        /* \"#utility.yul\":5829:6051   */\n      swap3\n      swap2\n      pop\n      pop\n      jump\t// out\n        /* \"#utility.yul\":6057:6179   */\n    tag_381:\n        /* \"#utility.yul\":6130:6154   */\n      tag_495\n        /* \"#utility.yul\":6148:6153   */\n      dup2\n        /* \"#utility.yul\":6130:6154   */\n      tag_378\n      jump\t// in\n    tag_495:\n        /* \"#utility.yul\":6123:6128   */\n      dup2\n        /* \"#utility.yul\":6120:6155   */\n      eq\n        /* \"#utility.yul\":6110:6173   */\n      tag_496\n      jumpi\n        /* \"#utility.yul\":6169:6170   */\n      0x00\n        /* \"#utility.yul\":6166:6167   */\n      0x00\n        /* \"#utility.yul\":6159:6171   */\n      revert\n        /* \"#utility.yul\":6110:6173   */\n    tag_496:\n        /* \"#utility.yul\":6057:6179   */\n      pop\n      jump\t// out\n        /* \"#utility.yul\":6185:6324   */\n    tag_382:\n        /* \"#utility.yul\":6231:6236   */\n      0x00\n        /* \"#utility.yul\":6269:6275   */\n      dup2\n        /* \"#utility.yul\":6256:6276   */\n      calldataload\n        /* \"#utility.yul\":6247:6276   */\n      swap1\n      pop\n        /* \"#utility.yul\":6285:6318   */\n      tag_498\n        /* \"#utility.yul\":6312:6317   */\n      dup2\n        /* \"#utility.yul\":6285:6318   */\n      tag_381\n      jump\t// in\n    tag_498:\n        /* \"#utility.yul\":6185:6324   */\n      swap3\n      swap2\n      pop\n      pop\n      jump\t// out\n        /* \"#utility.yul\":6330:6804   */\n    tag_73:\n        /* \"#utility.yul\":6398:6404   */\n      0x00\n        /* \"#utility.yul\":6406:6412   */\n      0x00\n        /* \"#utility.yul\":6455:6457   */\n      0x40\n        /* \"#utility.yul\":6443:6452   */\n      dup4\n        /* \"#utility.yul\":6434:6441   */\n      dup6\n        /* \"#utility.yul\":6430:6453   */\n      sub\n        /* \"#utility.yul\":6426:6458   */\n      slt\n        /* \"#utility.yul\":6423:6542   */\n      iszero\n      tag_500\n      jumpi\n        /* \"#utility.yul\":6461:6540   */\n      tag_501\n      tag_362\n      jump\t// in\n    tag_501:\n        /* \"#utility.yul\":6423:6542   */\n    tag_500:\n        /* \"#utility.yul\":6581:6582   */\n      0x00\n        /* \"#utility.yul\":6606:6659   */\n      tag_502\n        /* \"#utility.yul\":6651:6658   */\n      dup6\n        /* \"#utility.yul\":6642:6648   */\n      dup3\n        /* \"#utility.yul\":6631:6640   */\n      dup7\n        /* \"#utility.yul\":6627:6649   */\n      add\n        /* \"#utility.yul\":6606:6659   */\n      tag_366\n      jump\t// in\n    tag_502:\n        /* \"#utility.yul\":6596:6659   */\n      swap3\n      pop\n        /* \"#utility.yul\":6552:6669   */\n      pop\n        /* \"#utility.yul\":6708:6710   */\n      0x20\n        /* \"#utility.yul\":6734:6787   */\n      tag_503\n        /* \"#utility.yul\":6779:6786   */\n      dup6\n        /* \"#utility.yul\":6770:6776   */\n      dup3\n        /* \"#utility.yul\":6759:6768   */\n      dup7\n        /* \"#utility.yul\":6755:6777   */\n      add\n        /* \"#utility.yul\":6734:6787   */\n      tag_382\n      jump\t// in\n    tag_503:\n        /* \"#utility.yul\":6724:6787   */\n      swap2\n      pop\n        /* \"#utility.yul\":6679:6797   */\n      pop\n        /* \"#utility.yul\":6330:6804   */\n      swap3\n      pop\n      swap3\n      swap1\n      pop\n      jump\t// out\n        /* \"#utility.yul\":6810:7020   */\n    tag_76:\n        /* \"#utility.yul\":6897:6901   */\n      0x00\n        /* \"#utility.yul\":6935:6937   */\n      0x20\n        /* \"#utility.yul\":6924:6933   */\n      dup3\n        /* \"#utility.yul\":6920:6938   */\n      add\n        /* \"#utility.yul\":6912:6938   */\n      swap1\n      pop\n        /* \"#utility.yul\":6948:7013   */\n      tag_505\n        /* \"#utility.yul\":7010:7011   */\n      0x00\n        /* \"#utility.yul\":6999:7008   */\n      dup4\n        /* \"#utility.yul\":6995:7012   */\n      add\n        /* \"#utility.yul\":6986:6992   */\n      dup5\n        /* \"#utility.yul\":6948:7013   */\n      tag_376\n      jump\t// in\n    tag_505:\n        /* \"#utility.yul\":6810:7020   */\n      swap3\n      swap2\n      pop\n      pop\n      jump\t// out\n        /* \"#utility.yul\":7026:7645   */\n    tag_80:\n        /* \"#utility.yul\":7103:7109   */\n      0x00\n        /* \"#utility.yul\":7111:7117   */\n      0x00\n        /* \"#utility.yul\":7119:7125   */\n      0x00\n        /* \"#utility.yul\":7168:7170   */\n      0x60\n        /* \"#utility.yul\":7156:7165   */\n      dup5\n        /* \"#utility.yul\":7147:7154   */\n      dup7\n        /* \"#utility.yul\":7143:7166   */\n      sub\n        /* \"#utility.yul\":7139:7171   */\n      slt\n        /* \"#utility.yul\":7136:7255   */\n      iszero\n      tag_507\n      jumpi\n        /* \"#utility.yul\":7174:7253   */\n      tag_508\n      tag_362\n      jump\t// in\n    tag_508:\n        /* \"#utility.yul\":7136:7255   */\n    tag_507:\n        /* \"#utility.yul\":7294:7295   */\n      0x00\n        /* \"#utility.yul\":7319:7372   */\n      tag_509\n        /* \"#utility.yul\":7364:7371   */\n      dup7\n        /* \"#utility.yul\":7355:7361   */\n      dup3\n        /* \"#utility.yul\":7344:7353   */\n      dup8\n        /* \"#utility.yul\":7340:7362   */\n      add\n        /* \"#utility.yul\":7319:7372   */\n      tag_366\n      jump\t// in\n    tag_509:\n        /* \"#utility.yul\":7309:7372   */\n      swap4\n      pop\n        /* \"#utility.yul\":7265:7382   */\n      pop\n        /* \"#utility.yul\":7421:7423   */\n      0x20\n        /* \"#utility.yul\":7447:7500   */\n      tag_510\n        /* \"#utility.yul\":7492:7499   */\n      dup7\n        /* \"#utility.yul\":7483:7489   */\n      dup3\n        /* \"#utility.yul\":7472:7481   */\n      dup8\n        /* \"#utility.yul\":7468:7490   */\n      add\n        /* \"#utility.yul\":7447:7500   */\n      tag_366\n      jump\t// in\n    tag_510:\n        /* \"#utility.yul\":7437:7500   */\n      swap3\n      pop\n        /* \"#utility.yul\":7392:7510   */\n      pop\n        /* \"#utility.yul\":7549:7551   */\n      0x40\n        /* \"#utility.yul\":7575:7628   */\n      tag_511\n        /* \"#utility.yul\":7620:7627   */\n      dup7\n        /* \"#utility.yul\":7611:7617   */\n      dup3\n        /* \"#utility.yul\":7600:7609   */\n      dup8\n        /* \"#utility.yul\":7596:7618   */\n      add\n        /* \"#utility.yul\":7575:7628   */\n      tag_366\n      jump\t// in\n    tag_511:\n        /* \"#utility.yul\":7565:7628   */\n      swap2\n      pop\n        /* \"#utility.yul\":7520:7638   */\n      pop\n        /* \"#utility.yul\":7026:7645   */\n      swap3\n      pop\n      swap3\n      pop\n      swap3\n      jump\t// out\n        /* \"#utility.yul\":7651:7711   */\n    tag_383:\n        /* \"#utility.yul\":7679:7682   */\n      0x00\n        /* \"#utility.yul\":7700:7705   */\n      dup2\n        /* \"#utility.yul\":7693:7705   */\n      swap1\n      pop\n        /* \"#utility.yul\":7651:7711   */\n      swap2\n      swap1\n      pop\n      jump\t// out\n        /* \"#utility.yul\":7717:7859   */\n    tag_384:\n        /* \"#utility.yul\":7767:7776   */\n      0x00\n        /* \"#utility.yul\":7800:7853   */\n      tag_514\n        /* \"#utility.yul\":7818:7852   */\n      tag_515\n        /* \"#utility.yul\":7827:7851   */\n      tag_516\n        /* \"#utility.yul\":7845:7850   */\n      dup5\n        /* \"#utility.yul\":7827:7851   */\n      tag_367\n      jump\t// in\n    tag_516:\n        /* \"#utility.yul\":7818:7852   */\n      tag_383\n      jump\t// in\n    tag_515:\n        /* \"#utility.yul\":7800:7853   */\n      tag_367\n      jump\t// in\n    tag_514:\n        /* \"#utility.yul\":7787:7853   */\n      swap1\n      pop\n        /* \"#utility.yul\":7717:7859   */\n      swap2\n      swap1\n      pop\n      jump\t// out\n        /* \"#utility.yul\":7865:7991   */\n    tag_385:\n        /* \"#utility.yul\":7915:7924   */\n      0x00\n        /* \"#utility.yul\":7948:7985   */\n      tag_518\n        /* \"#utility.yul\":7979:7984   */\n      dup3\n        /* \"#utility.yul\":7948:7985   */\n      tag_384\n      jump\t// in\n    tag_518:\n        /* \"#utility.yul\":7935:7985   */\n      swap1\n      pop\n        /* \"#utility.yul\":7865:7991   */\n      swap2\n      swap1\n      pop\n      jump\t// out\n        /* \"#utility.yul\":7997:8149   */\n    tag_386:\n        /* \"#utility.yul\":8073:8082   */\n      0x00\n        /* \"#utility.yul\":8106:8143   */\n      tag_520\n        /* \"#utility.yul\":8137:8142   */\n      dup3\n        /* \"#utility.yul\":8106:8143   */\n      tag_385\n      jump\t// in\n    tag_520:\n        /* \"#utility.yul\":8093:8143   */\n      swap1\n      pop\n        /* \"#utility.yul\":7997:8149   */\n      swap2\n      swap1\n      pop\n      jump\t// out\n        /* \"#utility.yul\":8155:8338   */\n    tag_387:\n        /* \"#utility.yul\":8268:8331   */\n      tag_522\n        /* \"#utility.yul\":8325:8330   */\n      dup2\n        /* \"#utility.yul\":8268:8331   */\n      tag_386\n      jump\t// in\n    tag_522:\n        /* \"#utility.yul\":8263:8266   */\n      dup3\n        /* \"#utility.yul\":8256:8332   */\n      mstore\n        /* \"#utility.yul\":8155:8338   */\n      pop\n      pop\n      jump\t// out\n        /* \"#utility.yul\":8344:8618   */\n    tag_86:\n        /* \"#utility.yul\":8463:8467   */\n      0x00\n        /* \"#utility.yul\":8501:8503   */\n      0x20\n        /* \"#utility.yul\":8490:8499   */\n      dup3\n        /* \"#utility.yul\":8486:8504   */\n      add\n        /* \"#utility.yul\":8478:8504   */\n      swap1\n      pop\n        /* \"#utility.yul\":8514:8611   */\n      tag_524\n        /* \"#utility.yul\":8608:8609   */\n      0x00\n        /* \"#utility.yul\":8597:8606   */\n      dup4\n        /* \"#utility.yul\":8593:8610   */\n      add\n        /* \"#utility.yul\":8584:8590   */\n      dup5\n        /* \"#utility.yul\":8514:8611   */\n      tag_387\n      jump\t// in\n    tag_524:\n        /* \"#utility.yul\":8344:8618   */\n      swap3\n      swap2\n      pop\n      pop\n      jump\t// out\n        /* \"#utility.yul\":8624:8846   */\n    tag_91:\n        /* \"#utility.yul\":8717:8721   */\n      0x00\n        /* \"#utility.yul\":8755:8757   */\n      0x20\n        /* \"#utility.yul\":8744:8753   */\n      dup3\n        /* \"#utility.yul\":8740:8758   */\n      add\n        /* \"#utility.yul\":8732:8758   */\n      swap1\n      pop\n        /* \"#utility.yul\":8768:8839   */\n      tag_526\n        /* \"#utility.yul\":8836:8837   */\n      0x00\n        /* \"#utility.yul\":8825:8834   */\n      dup4\n        /* \"#utility.yul\":8821:8838   */\n      add\n        /* \"#utility.yul\":8812:8818   */\n      dup5\n        /* \"#utility.yul\":8768:8839   */\n      tag_380\n      jump\t// in\n    tag_526:\n        /* \"#utility.yul\":8624:8846   */\n      swap3\n      swap2\n      pop\n      pop\n      jump\t// out\n        /* \"#utility.yul\":8852:9471   */\n    tag_101:\n        /* \"#utility.yul\":8929:8935   */\n      0x00\n        /* \"#utility.yul\":8937:8943   */\n      0x00\n        /* \"#utility.yul\":8945:8951   */\n      0x00\n        /* \"#utility.yul\":8994:8996   */\n      0x60\n        /* \"#utility.yul\":8982:8991   */\n      dup5\n        /* \"#utility.yul\":8973:8980   */\n      dup7\n        /* \"#utility.yul\":8969:8992   */\n      sub\n        /* \"#utility.yul\":8965:8997   */\n      slt\n        /* \"#utility.yul\":8962:9081   */\n      iszero\n      tag_528\n      jumpi\n        /* \"#utility.yul\":9000:9079   */\n      tag_529\n      tag_362\n      jump\t// in\n    tag_529:\n        /* \"#utility.yul\":8962:9081   */\n    tag_528:\n        /* \"#utility.yul\":9120:9121   */\n      0x00\n        /* \"#utility.yul\":9145:9198   */\n      tag_530\n        /* \"#utility.yul\":9190:9197   */\n      dup7\n        /* \"#utility.yul\":9181:9187   */\n      dup3\n        /* \"#utility.yul\":9170:9179   */\n      dup8\n        /* \"#utility.yul\":9166:9188   */\n      add\n        /* \"#utility.yul\":9145:9198   */\n      tag_382\n      jump\t// in\n    tag_530:\n        /* \"#utility.yul\":9135:9198   */\n      swap4\n      pop\n        /* \"#utility.yul\":9091:9208   */\n      pop\n        /* \"#utility.yul\":9247:9249   */\n      0x20\n        /* \"#utility.yul\":9273:9326   */\n      tag_531\n        /* \"#utility.yul\":9318:9325   */\n      dup7\n        /* \"#utility.yul\":9309:9315   */\n      dup3\n        /* \"#utility.yul\":9298:9307   */\n      dup8\n        /* \"#utility.yul\":9294:9316   */\n      add\n        /* \"#utility.yul\":9273:9326   */\n      tag_382\n      jump\t// in\n    tag_531:\n        /* \"#utility.yul\":9263:9326   */\n      swap3\n      pop\n        /* \"#utility.yul\":9218:9336   */\n      pop\n        /* \"#utility.yul\":9375:9377   */\n      0x40\n        /* \"#utility.yul\":9401:9454   */\n      tag_532\n        /* \"#utility.yul\":9446:9453   */\n      dup7\n        /* \"#utility.yul\":9437:9443   */\n      dup3\n        /* \"#utility.yul\":9426:9435   */\n      dup8\n        /* \"#utility.yul\":9422:9444   */\n      add\n        /* \"#utility.yul\":9401:9454   */\n      tag_382\n      jump\t// in\n    tag_532:\n        /* \"#utility.yul\":9391:9454   */\n      swap2\n      pop\n        /* \"#utility.yul\":9346:9464   */\n      pop\n        /* \"#utility.yul\":8852:9471   */\n      swap3\n      pop\n      swap3\n      pop\n      swap3\n      jump\t// out\n        /* \"#utility.yul\":9490:10042   */\n    tag_388:\n        /* \"#utility.yul\":9547:9555   */\n      0x00\n        /* \"#utility.yul\":9557:9563   */\n      0x00\n        /* \"#utility.yul\":9607:9610   */\n      dup4\n        /* \"#utility.yul\":9600:9604   */\n      0x1f\n        /* \"#utility.yul\":9592:9598   */\n      dup5\n        /* \"#utility.yul\":9588:9605   */\n      add\n        /* \"#utility.yul\":9584:9611   */\n      slt\n        /* \"#utility.yul\":9574:9696   */\n      tag_534\n      jumpi\n        /* \"#utility.yul\":9615:9694   */\n      tag_535\n      tag_371\n      jump\t// in\n    tag_535:\n        /* \"#utility.yul\":9574:9696   */\n    tag_534:\n        /* \"#utility.yul\":9728:9734   */\n      dup3\n        /* \"#utility.yul\":9715:9735   */\n      calldataload\n        /* \"#utility.yul\":9705:9735   */\n      swap1\n      pop\n        /* \"#utility.yul\":9758:9776   */\n      0xffffffffffffffff\n        /* \"#utility.yul\":9750:9756   */\n      dup2\n        /* \"#utility.yul\":9747:9777   */\n      gt\n        /* \"#utility.yul\":9744:9861   */\n      iszero\n      tag_536\n      jumpi\n        /* \"#utility.yul\":9780:9859   */\n      tag_537\n      tag_372\n      jump\t// in\n    tag_537:\n        /* \"#utility.yul\":9744:9861   */\n    tag_536:\n        /* \"#utility.yul\":9894:9898   */\n      0x20\n        /* \"#utility.yul\":9886:9892   */\n      dup4\n        /* \"#utility.yul\":9882:9899   */\n      add\n        /* \"#utility.yul\":9870:9899   */\n      swap2\n      pop\n        /* \"#utility.yul\":9948:9951   */\n      dup4\n        /* \"#utility.yul\":9940:9944   */\n      0x01\n        /* \"#utility.yul\":9932:9938   */\n      dup3\n        /* \"#utility.yul\":9928:9945   */\n      mul\n        /* \"#utility.yul\":9918:9926   */\n      dup4\n        /* \"#utility.yul\":9914:9946   */\n      add\n        /* \"#utility.yul\":9911:9952   */\n      gt\n        /* \"#utility.yul\":9908:10036   */\n      iszero\n      tag_538\n      jumpi\n        /* \"#utility.yul\":9955:10034   */\n      tag_539\n      tag_373\n      jump\t// in\n    tag_539:\n        /* \"#utility.yul\":9908:10036   */\n    tag_538:\n        /* \"#utility.yul\":9490:10042   */\n      swap3\n      pop\n      swap3\n      swap1\n      pop\n      jump\t// out\n        /* \"#utility.yul\":10048:10720   */\n    tag_110:\n        /* \"#utility.yul\":10127:10133   */\n      0x00\n        /* \"#utility.yul\":10135:10141   */\n      0x00\n        /* \"#utility.yul\":10143:10149   */\n      0x00\n        /* \"#utility.yul\":10192:10194   */\n      0x40\n        /* \"#utility.yul\":10180:10189   */\n      dup5\n        /* \"#utility.yul\":10171:10178   */\n      dup7\n        /* \"#utility.yul\":10167:10190   */\n      sub\n        /* \"#utility.yul\":10163:10195   */\n      slt\n        /* \"#utility.yul\":10160:10279   */\n      iszero\n      tag_541\n      jumpi\n        /* \"#utility.yul\":10198:10277   */\n      tag_542\n      tag_362\n      jump\t// in\n    tag_542:\n        /* \"#utility.yul\":10160:10279   */\n    tag_541:\n        /* \"#utility.yul\":10318:10319   */\n      0x00\n        /* \"#utility.yul\":10343:10396   */\n      tag_543\n        /* \"#utility.yul\":10388:10395   */\n      dup7\n        /* \"#utility.yul\":10379:10385   */\n      dup3\n        /* \"#utility.yul\":10368:10377   */\n      dup8\n        /* \"#utility.yul\":10364:10386   */\n      add\n        /* \"#utility.yul\":10343:10396   */\n      tag_366\n      jump\t// in\n    tag_543:\n        /* \"#utility.yul\":10333:10396   */\n      swap4\n      pop\n        /* \"#utility.yul\":10289:10406   */\n      pop\n        /* \"#utility.yul\":10473:10475   */\n      0x20\n        /* \"#utility.yul\":10462:10471   */\n      dup5\n        /* \"#utility.yul\":10458:10476   */\n      add\n        /* \"#utility.yul\":10445:10477   */\n      calldataload\n        /* \"#utility.yul\":10504:10522   */\n      0xffffffffffffffff\n        /* \"#utility.yul\":10496:10502   */\n      dup2\n        /* \"#utility.yul\":10493:10523   */\n      gt\n        /* \"#utility.yul\":10490:10607   */\n      iszero\n      tag_544\n      jumpi\n        /* \"#utility.yul\":10526:10605   */\n      tag_545\n      tag_363\n      jump\t// in\n    tag_545:\n        /* \"#utility.yul\":10490:10607   */\n    tag_544:\n        /* \"#utility.yul\":10639:10703   */\n      tag_546\n        /* \"#utility.yul\":10695:10702   */\n      dup7\n        /* \"#utility.yul\":10686:10692   */\n      dup3\n        /* \"#utility.yul\":10675:10684   */\n      dup8\n        /* \"#utility.yul\":10671:10693   */\n      add\n        /* \"#utility.yul\":10639:10703   */\n      tag_388\n      jump\t// in\n    tag_546:\n        /* \"#utility.yul\":10621:10703   */\n      swap3\n      pop\n      swap3\n      pop\n        /* \"#utility.yul\":10416:10713   */\n      pop\n        /* \"#utility.yul\":10048:10720   */\n      swap3\n      pop\n      swap3\n      pop\n      swap3\n      jump\t// out\n        /* \"#utility.yul\":10726:11200   */\n    tag_130:\n        /* \"#utility.yul\":10794:10800   */\n      0x00\n        /* \"#utility.yul\":10802:10808   */\n      0x00\n        /* \"#utility.yul\":10851:10853   */\n      0x40\n        /* \"#utility.yul\":10839:10848   */\n      dup4\n        /* \"#utility.yul\":10830:10837   */\n      dup6\n        /* \"#utility.yul\":10826:10849   */\n      sub\n        /* \"#utility.yul\":10822:10854   */\n      slt\n        /* \"#utility.yul\":10819:10938   */\n      iszero\n      tag_548\n      jumpi\n        /* \"#utility.yul\":10857:10936   */\n      tag_549\n      tag_362\n      jump\t// in\n    tag_549:\n        /* \"#utility.yul\":10819:10938   */\n    tag_548:\n        /* \"#utility.yul\":10977:10978   */\n      0x00\n        /* \"#utility.yul\":11002:11055   */\n      tag_550\n        /* \"#utility.yul\":11047:11054   */\n      dup6\n        /* \"#utility.yul\":11038:11044   */\n      dup3\n        /* \"#utility.yul\":11027:11036   */\n      dup7\n        /* \"#utility.yul\":11023:11045   */\n      add\n        /* \"#utility.yul\":11002:11055   */\n      tag_370\n      jump\t// in\n    tag_550:\n        /* \"#utility.yul\":10992:11055   */\n      swap3\n      pop\n        /* \"#utility.yul\":10948:11065   */\n      pop\n        /* \"#utility.yul\":11104:11106   */\n      0x20\n        /* \"#utility.yul\":11130:11183   */\n      tag_551\n        /* \"#utility.yul\":11175:11182   */\n      dup6\n        /* \"#utility.yul\":11166:11172   */\n      dup3\n        /* \"#utility.yul\":11155:11164   */\n      dup7\n        /* \"#utility.yul\":11151:11173   */\n      add\n        /* \"#utility.yul\":11130:11183   */\n      tag_366\n      jump\t// in\n    tag_551:\n        /* \"#utility.yul\":11120:11183   */\n      swap2\n      pop\n        /* \"#utility.yul\":11075:11193   */\n      pop\n        /* \"#utility.yul\":10726:11200   */\n      swap3\n      pop\n      swap3\n      swap1\n      pop\n      jump\t// out\n        /* \"#utility.yul\":11206:11428   */\n    tag_140:\n        /* \"#utility.yul\":11299:11303   */\n      0x00\n        /* \"#utility.yul\":11337:11339   */\n      0x20\n        /* \"#utility.yul\":11326:11335   */\n      dup3\n        /* \"#utility.yul\":11322:11340   */\n      add\n        /* \"#utility.yul\":11314:11340   */\n      swap1\n      pop\n        /* \"#utility.yul\":11350:11421   */\n      tag_553\n        /* \"#utility.yul\":11418:11419   */\n      0x00\n        /* \"#utility.yul\":11407:11416   */\n      dup4\n        /* \"#utility.yul\":11403:11420   */\n      add\n        /* \"#utility.yul\":11394:11400   */\n      dup5\n        /* \"#utility.yul\":11350:11421   */\n      tag_379\n      jump\t// in\n    tag_553:\n        /* \"#utility.yul\":11206:11428   */\n      swap3\n      swap2\n      pop\n      pop\n      jump\t// out\n        /* \"#utility.yul\":11434:11535   */\n    tag_389:\n        /* \"#utility.yul\":11470:11477   */\n      0x00\n        /* \"#utility.yul\":11510:11528   */\n      0xffffffffffffffff\n        /* \"#utility.yul\":11503:11508   */\n      dup3\n        /* \"#utility.yul\":11499:11529   */\n      and\n        /* \"#utility.yul\":11488:11529   */\n      swap1\n      pop\n        /* \"#utility.yul\":11434:11535   */\n      swap2\n      swap1\n      pop\n      jump\t// out\n        /* \"#utility.yul\":11541:11656   */\n    tag_390:\n        /* \"#utility.yul\":11626:11649   */\n      tag_556\n        /* \"#utility.yul\":11643:11648   */\n      dup2\n        /* \"#utility.yul\":11626:11649   */\n      tag_389\n      jump\t// in\n    tag_556:\n        /* \"#utility.yul\":11621:11624   */\n      dup3\n        /* \"#utility.yul\":11614:11650   */\n      mstore\n        /* \"#utility.yul\":11541:11656   */\n      pop\n      pop\n      jump\t// out\n        /* \"#utility.yul\":11662:12631   */\n    tag_146:\n        /* \"#utility.yul\":11937:11941   */\n      0x00\n        /* \"#utility.yul\":11975:11978   */\n      0x0100\n        /* \"#utility.yul\":11964:11973   */\n      dup3\n        /* \"#utility.yul\":11960:11979   */\n      add\n        /* \"#utility.yul\":11952:11979   */\n      swap1\n      pop\n        /* \"#utility.yul\":11989:12060   */\n      tag_558\n        /* \"#utility.yul\":12057:12058   */\n      0x00\n        /* \"#utility.yul\":12046:12055   */\n      dup4\n        /* \"#utility.yul\":12042:12059   */\n      add\n        /* \"#utility.yul\":12033:12039   */\n      dup12\n        /* \"#utility.yul\":11989:12060   */\n      tag_379\n      jump\t// in\n    tag_558:\n        /* \"#utility.yul\":12070:12142   */\n      tag_559\n        /* \"#utility.yul\":12138:12140   */\n      0x20\n        /* \"#utility.yul\":12127:12136   */\n      dup4\n        /* \"#utility.yul\":12123:12141   */\n      add\n        /* \"#utility.yul\":12114:12120   */\n      dup11\n        /* \"#utility.yul\":12070:12142   */\n      tag_379\n      jump\t// in\n    tag_559:\n        /* \"#utility.yul\":12152:12224   */\n      tag_560\n        /* \"#utility.yul\":12220:12222   */\n      0x40\n        /* \"#utility.yul\":12209:12218   */\n      dup4\n        /* \"#utility.yul\":12205:12223   */\n      add\n        /* \"#utility.yul\":12196:12202   */\n      dup10\n        /* \"#utility.yul\":12152:12224   */\n      tag_379\n      jump\t// in\n    tag_560:\n        /* \"#utility.yul\":12234:12306   */\n      tag_561\n        /* \"#utility.yul\":12302:12304   */\n      0x60\n        /* \"#utility.yul\":12291:12300   */\n      dup4\n        /* \"#utility.yul\":12287:12305   */\n      add\n        /* \"#utility.yul\":12278:12284   */\n      dup9\n        /* \"#utility.yul\":12234:12306   */\n      tag_379\n      jump\t// in\n    tag_561:\n        /* \"#utility.yul\":12316:12387   */\n      tag_562\n        /* \"#utility.yul\":12382:12385   */\n      0x80\n        /* \"#utility.yul\":12371:12380   */\n      dup4\n        /* \"#utility.yul\":12367:12386   */\n      add\n        /* \"#utility.yul\":12358:12364   */\n      dup8\n        /* \"#utility.yul\":12316:12387   */\n      tag_390\n      jump\t// in\n    tag_562:\n        /* \"#utility.yul\":12397:12464   */\n      tag_563\n        /* \"#utility.yul\":12459:12462   */\n      0xa0\n        /* \"#utility.yul\":12448:12457   */\n      dup4\n        /* \"#utility.yul\":12444:12463   */\n      add\n        /* \"#utility.yul\":12435:12441   */\n      dup7\n        /* \"#utility.yul\":12397:12464   */\n      tag_376\n      jump\t// in\n    tag_563:\n        /* \"#utility.yul\":12474:12541   */\n      tag_564\n        /* \"#utility.yul\":12536:12539   */\n      0xc0\n        /* \"#utility.yul\":12525:12534   */\n      dup4\n        /* \"#utility.yul\":12521:12540   */\n      add\n        /* \"#utility.yul\":12512:12518   */\n      dup6\n        /* \"#utility.yul\":12474:12541   */\n      tag_376\n      jump\t// in\n    tag_564:\n        /* \"#utility.yul\":12551:12624   */\n      tag_565\n        /* \"#utility.yul\":12619:12622   */\n      0xe0\n        /* \"#utility.yul\":12608:12617   */\n      dup4\n        /* \"#utility.yul\":12604:12623   */\n      add\n        /* \"#utility.yul\":12595:12601   */\n      dup5\n        /* \"#utility.yul\":12551:12624   */\n      tag_380\n      jump\t// in\n    tag_565:\n        /* \"#utility.yul\":11662:12631   */\n      swap10\n      swap9\n      pop\n      pop\n      pop\n      pop\n      pop\n      pop\n      pop\n      pop\n      pop\n      jump\t// out\n        /* \"#utility.yul\":12637:12806   */\n    tag_391:\n        /* \"#utility.yul\":12721:12732   */\n      0x00\n        /* \"#utility.yul\":12755:12761   */\n      dup3\n        /* \"#utility.yul\":12750:12753   */\n      dup3\n        /* \"#utility.yul\":12743:12762   */\n      mstore\n        /* \"#utility.yul\":12795:12799   */\n      0x20\n        /* \"#utility.yul\":12790:12793   */\n      dup3\n        /* \"#utility.yul\":12786:12800   */\n      add\n        /* \"#utility.yul\":12771:12800   */\n      swap1\n      pop\n        /* \"#utility.yul\":12637:12806   */\n      swap3\n      swap2\n      pop\n      pop\n      jump\t// out\n        /* \"#utility.yul\":12812:12968   */\n    tag_392:\n        /* \"#utility.yul\":12952:12960   */\n      0x5041555345440000000000000000000000000000000000000000000000000000\n        /* \"#utility.yul\":12948:12949   */\n      0x00\n        /* \"#utility.yul\":12940:12946   */\n      dup3\n        /* \"#utility.yul\":12936:12950   */\n      add\n        /* \"#utility.yul\":12929:12961   */\n      mstore\n        /* \"#utility.yul\":12812:12968   */\n      pop\n      jump\t// out\n        /* \"#utility.yul\":12974:13339   */\n    tag_393:\n        /* \"#utility.yul\":13116:13119   */\n      0x00\n        /* \"#utility.yul\":13137:13203   */\n      tag_569\n        /* \"#utility.yul\":13201:13202   */\n      0x06\n        /* \"#utility.yul\":13196:13199   */\n      dup4\n        /* \"#utility.yul\":13137:13203   */\n      tag_391\n      jump\t// in\n    tag_569:\n        /* \"#utility.yul\":13130:13203   */\n      swap2\n      pop\n        /* \"#utility.yul\":13212:13305   */\n      tag_570\n        /* \"#utility.yul\":13301:13304   */\n      dup3\n        /* \"#utility.yul\":13212:13305   */\n      tag_392\n      jump\t// in\n    tag_570:\n        /* \"#utility.yul\":13330:13332   */\n      0x20\n        /* \"#utility.yul\":13325:13328   */\n      dup3\n        /* \"#utility.yul\":13321:13333   */\n      add\n        /* \"#utility.yul\":13314:13333   */\n      swap1\n      pop\n        /* \"#utility.yul\":12974:13339   */\n      swap2\n      swap1\n      pop\n      jump\t// out\n        /* \"#utility.yul\":13345:13764   */\n    tag_173:\n        /* \"#utility.yul\":13511:13515   */\n      0x00\n        /* \"#utility.yul\":13549:13551   */\n      0x20\n        /* \"#utility.yul\":13538:13547   */\n      dup3\n        /* \"#utility.yul\":13534:13552   */\n      add\n        /* \"#utility.yul\":13526:13552   */\n      swap1\n      pop\n        /* \"#utility.yul\":13598:13607   */\n      dup2\n        /* \"#utility.yul\":13592:13596   */\n      dup2\n        /* \"#utility.yul\":13588:13608   */\n      sub\n        /* \"#utility.yul\":13584:13585   */\n      0x00\n        /* \"#utility.yul\":13573:13582   */\n      dup4\n        /* \"#utility.yul\":13569:13586   */\n      add\n        /* \"#utility.yul\":13562:13609   */\n      mstore\n        /* \"#utility.yul\":13626:13757   */\n      tag_572\n        /* \"#utility.yul\":13752:13756   */\n      dup2\n        /* \"#utility.yul\":13626:13757   */\n      tag_393\n      jump\t// in\n    tag_572:\n        /* \"#utility.yul\":13618:13757   */\n      swap1\n      pop\n        /* \"#utility.yul\":13345:13764   */\n      swap2\n      swap1\n      pop\n      jump\t// out\n        /* \"#utility.yul\":13770:13930   */\n    tag_394:\n        /* \"#utility.yul\":13910:13922   */\n      0x5245454e5452414e435900000000000000000000000000000000000000000000\n        /* \"#utility.yul\":13906:13907   */\n      0x00\n        /* \"#utility.yul\":13898:13904   */\n      dup3\n        /* \"#utility.yul\":13894:13908   */\n      add\n        /* \"#utility.yul\":13887:13923   */\n      mstore\n        /* \"#utility.yul\":13770:13930   */\n      pop\n      jump\t// out\n        /* \"#utility.yul\":13936:14302   */\n    tag_395:\n        /* \"#utility.yul\":14078:14081   */\n      0x00\n        /* \"#utility.yul\":14099:14166   */\n      tag_575\n        /* \"#utility.yul\":14163:14165   */\n      0x0a\n        /* \"#utility.yul\":14158:14161   */\n      dup4\n        /* \"#utility.yul\":14099:14166   */\n      tag_391\n      jump\t// in\n    tag_575:\n        /* \"#utility.yul\":14092:14166   */\n      swap2\n      pop\n        /* \"#utility.yul\":14175:14268   */\n      tag_576\n        /* \"#utility.yul\":14264:14267   */\n      dup3\n        /* \"#utility.yul\":14175:14268   */\n      tag_394\n      jump\t// in\n    tag_576:\n        /* \"#utility.yul\":14293:14295   */\n      0x20\n        /* \"#utility.yul\":14288:14291   */\n      dup3\n        /* \"#utility.yul\":14284:14296   */\n      add\n        /* \"#utility.yul\":14277:14296   */\n      swap1\n      pop\n        /* \"#utility.yul\":13936:14302   */\n      swap2\n      swap1\n      pop\n      jump\t// out\n        /* \"#utility.yul\":14308:14727   */\n    tag_177:\n        /* \"#utility.yul\":14474:14478   */\n      0x00\n        /* \"#utility.yul\":14512:14514   */\n      0x20\n        /* \"#utility.yul\":14501:14510   */\n      dup3\n        /* \"#utility.yul\":14497:14515   */\n      add\n        /* \"#utility.yul\":14489:14515   */\n      swap1\n      pop\n        /* \"#utility.yul\":14561:14570   */\n      dup2\n        /* \"#utility.yul\":14555:14559   */\n      dup2\n        /* \"#utility.yul\":14551:14571   */\n      sub\n        /* \"#utility.yul\":14547:14548   */\n      0x00\n        /* \"#utility.yul\":14536:14545   */\n      dup4\n        /* \"#utility.yul\":14532:14549   */\n      add\n        /* \"#utility.yul\":14525:14572   */\n      mstore\n        /* \"#utility.yul\":14589:14720   */\n      tag_578\n        /* \"#utility.yul\":14715:14719   */\n      dup2\n        /* \"#utility.yul\":14589:14720   */\n      tag_395\n      jump\t// in\n    tag_578:\n        /* \"#utility.yul\":14581:14720   */\n      swap1\n      pop\n        /* \"#utility.yul\":14308:14727   */\n      swap2\n      swap1\n      pop\n      jump\t// out\n        /* \"#utility.yul\":14733:14827   */\n    tag_396:\n        /* \"#utility.yul\":14766:14774   */\n      0x00\n        /* \"#utility.yul\":14814:14819   */\n      dup2\n        /* \"#utility.yul\":14810:14812   */\n      0x60\n        /* \"#utility.yul\":14806:14820   */\n      shl\n        /* \"#utility.yul\":14785:14820   */\n      swap1\n      pop\n        /* \"#utility.yul\":14733:14827   */\n      swap2\n      swap1\n      pop\n      jump\t// out\n        /* \"#utility.yul\":14833:14927   */\n    tag_397:\n        /* \"#utility.yul\":14872:14879   */\n      0x00\n        /* \"#utility.yul\":14901:14921   */\n      tag_581\n        /* \"#utility.yul\":14915:14920   */\n      dup3\n        /* \"#utility.yul\":14901:14921   */\n      tag_396\n      jump\t// in\n    tag_581:\n        /* \"#utility.yul\":14890:14921   */\n      swap1\n      pop\n        /* \"#utility.yul\":14833:14927   */\n      swap2\n      swap1\n      pop\n      jump\t// out\n        /* \"#utility.yul\":14933:15033   */\n    tag_398:\n        /* \"#utility.yul\":14972:14979   */\n      0x00\n        /* \"#utility.yul\":15001:15027   */\n      tag_583\n        /* \"#utility.yul\":15021:15026   */\n      dup3\n        /* \"#utility.yul\":15001:15027   */\n      tag_397\n      jump\t// in\n    tag_583:\n        /* \"#utility.yul\":14990:15027   */\n      swap1\n      pop\n        /* \"#utility.yul\":14933:15033   */\n      swap2\n      swap1\n      pop\n      jump\t// out\n        /* \"#utility.yul\":15039:15196   */\n    tag_399:\n        /* \"#utility.yul\":15144:15189   */\n      tag_585\n        /* \"#utility.yul\":15164:15188   */\n      tag_586\n        /* \"#utility.yul\":15182:15187   */\n      dup3\n        /* \"#utility.yul\":15164:15188   */\n      tag_368\n      jump\t// in\n    tag_586:\n        /* \"#utility.yul\":15144:15189   */\n      tag_398\n      jump\t// in\n    tag_585:\n        /* \"#utility.yul\":15139:15142   */\n      dup3\n        /* \"#utility.yul\":15132:15190   */\n      mstore\n        /* \"#utility.yul\":15039:15196   */\n      pop\n      pop\n      jump\t// out\n        /* \"#utility.yul\":15202:15281   */\n    tag_400:\n        /* \"#utility.yul\":15241:15248   */\n      0x00\n        /* \"#utility.yul\":15270:15275   */\n      dup2\n        /* \"#utility.yul\":15259:15275   */\n      swap1\n      pop\n        /* \"#utility.yul\":15202:15281   */\n      swap2\n      swap1\n      pop\n      jump\t// out\n        /* \"#utility.yul\":15287:15444   */\n    tag_401:\n        /* \"#utility.yul\":15392:15437   */\n      tag_589\n        /* \"#utility.yul\":15412:15436   */\n      tag_590\n        /* \"#utility.yul\":15430:15435   */\n      dup3\n        /* \"#utility.yul\":15412:15436   */\n      tag_364\n      jump\t// in\n    tag_590:\n        /* \"#utility.yul\":15392:15437   */\n      tag_400\n      jump\t// in\n    tag_589:\n        /* \"#utility.yul\":15387:15390   */\n      dup3\n        /* \"#utility.yul\":15380:15438   */\n      mstore\n        /* \"#utility.yul\":15287:15444   */\n      pop\n      pop\n      jump\t// out\n        /* \"#utility.yul\":15450:16129   */\n    tag_183:\n        /* \"#utility.yul\":15646:15649   */\n      0x00\n        /* \"#utility.yul\":15661:15736   */\n      tag_592\n        /* \"#utility.yul\":15732:15735   */\n      dup3\n        /* \"#utility.yul\":15723:15729   */\n      dup8\n        /* \"#utility.yul\":15661:15736   */\n      tag_399\n      jump\t// in\n    tag_592:\n        /* \"#utility.yul\":15761:15763   */\n      0x14\n        /* \"#utility.yul\":15756:15759   */\n      dup3\n        /* \"#utility.yul\":15752:15764   */\n      add\n        /* \"#utility.yul\":15745:15764   */\n      swap2\n      pop\n        /* \"#utility.yul\":15774:15849   */\n      tag_593\n        /* \"#utility.yul\":15845:15848   */\n      dup3\n        /* \"#utility.yul\":15836:15842   */\n      dup7\n        /* \"#utility.yul\":15774:15849   */\n      tag_399\n      jump\t// in\n    tag_593:\n        /* \"#utility.yul\":15874:15876   */\n      0x14\n        /* \"#utility.yul\":15869:15872   */\n      dup3\n        /* \"#utility.yul\":15865:15877   */\n      add\n        /* \"#utility.yul\":15858:15877   */\n      swap2\n      pop\n        /* \"#utility.yul\":15887:15962   */\n      tag_594\n        /* \"#utility.yul\":15958:15961   */\n      dup3\n        /* \"#utility.yul\":15949:15955   */\n      dup6\n        /* \"#utility.yul\":15887:15962   */\n      tag_401\n      jump\t// in\n    tag_594:\n        /* \"#utility.yul\":15987:15989   */\n      0x20\n        /* \"#utility.yul\":15982:15985   */\n      dup3\n        /* \"#utility.yul\":15978:15990   */\n      add\n        /* \"#utility.yul\":15971:15990   */\n      swap2\n      pop\n        /* \"#utility.yul\":16000:16075   */\n      tag_595\n        /* \"#utility.yul\":16071:16074   */\n      dup3\n        /* \"#utility.yul\":16062:16068   */\n      dup5\n        /* \"#utility.yul\":16000:16075   */\n      tag_401\n      jump\t// in\n    tag_595:\n        /* \"#utility.yul\":16100:16102   */\n      0x20\n        /* \"#utility.yul\":16095:16098   */\n      dup3\n        /* \"#utility.yul\":16091:16103   */\n      add\n        /* \"#utility.yul\":16084:16103   */\n      swap2\n      pop\n        /* \"#utility.yul\":16120:16123   */\n      dup2\n        /* \"#utility.yul\":16113:16123   */\n      swap1\n      pop\n        /* \"#utility.yul\":15450:16129   */\n      swap6\n      swap5\n      pop\n      pop\n      pop\n      pop\n      pop\n      jump\t// out\n        /* \"#utility.yul\":16135:16282   */\n    tag_402:\n        /* \"#utility.yul\":16236:16247   */\n      0x00\n        /* \"#utility.yul\":16273:16276   */\n      dup2\n        /* \"#utility.yul\":16258:16276   */\n      swap1\n      pop\n        /* \"#utility.yul\":16135:16282   */\n      swap3\n      swap2\n      pop\n      pop\n      jump\t// out\n        /* \"#utility.yul\":16288:16402   */\n    tag_403:\n      pop\n      jump\t// out\n        /* \"#utility.yul\":16408:16806   */\n    tag_404:\n        /* \"#utility.yul\":16567:16570   */\n      0x00\n        /* \"#utility.yul\":16588:16671   */\n      tag_599\n        /* \"#utility.yul\":16669:16670   */\n      0x00\n        /* \"#utility.yul\":16664:16667   */\n      dup4\n        /* \"#utility.yul\":16588:16671   */\n      tag_402\n      jump\t// in\n    tag_599:\n        /* \"#utility.yul\":16581:16671   */\n      swap2\n      pop\n        /* \"#utility.yul\":16680:16773   */\n      tag_600\n        /* \"#utility.yul\":16769:16772   */\n      dup3\n        /* \"#utility.yul\":16680:16773   */\n      tag_403\n      jump\t// in\n    tag_600:\n        /* \"#utility.yul\":16798:16799   */\n      0x00\n        /* \"#utility.yul\":16793:16796   */\n      dup3\n        /* \"#utility.yul\":16789:16800   */\n      add\n        /* \"#utility.yul\":16782:16800   */\n      swap1\n      pop\n        /* \"#utility.yul\":16408:16806   */\n      swap2\n      swap1\n      pop\n      jump\t// out\n        /* \"#utility.yul\":16812:17191   */\n    tag_190:\n        /* \"#utility.yul\":16996:16999   */\n      0x00\n        /* \"#utility.yul\":17018:17165   */\n      tag_602\n        /* \"#utility.yul\":17161:17164   */\n      dup3\n        /* \"#utility.yul\":17018:17165   */\n      tag_404\n      jump\t// in\n    tag_602:\n        /* \"#utility.yul\":17011:17165   */\n      swap2\n      pop\n        /* \"#utility.yul\":17182:17185   */\n      dup2\n        /* \"#utility.yul\":17175:17185   */\n      swap1\n      pop\n        /* \"#utility.yul\":16812:17191   */\n      swap2\n      swap1\n      pop\n      jump\t// out\n        /* \"#utility.yul\":17197:17529   */\n    tag_197:\n        /* \"#utility.yul\":17318:17322   */\n      0x00\n        /* \"#utility.yul\":17356:17358   */\n      0x40\n        /* \"#utility.yul\":17345:17354   */\n      dup3\n        /* \"#utility.yul\":17341:17359   */\n      add\n        /* \"#utility.yul\":17333:17359   */\n      swap1\n      pop\n        /* \"#utility.yul\":17369:17440   */\n      tag_604\n        /* \"#utility.yul\":17437:17438   */\n      0x00\n        /* \"#utility.yul\":17426:17435   */\n      dup4\n        /* \"#utility.yul\":17422:17439   */\n      add\n        /* \"#utility.yul\":17413:17419   */\n      dup6\n        /* \"#utility.yul\":17369:17440   */\n      tag_380\n      jump\t// in\n    tag_604:\n        /* \"#utility.yul\":17450:17522   */\n      tag_605\n        /* \"#utility.yul\":17518:17520   */\n      0x20\n        /* \"#utility.yul\":17507:17516   */\n      dup4\n        /* \"#utility.yul\":17503:17521   */\n      add\n        /* \"#utility.yul\":17494:17500   */\n      dup5\n        /* \"#utility.yul\":17450:17522   */\n      tag_377\n      jump\t// in\n    tag_605:\n        /* \"#utility.yul\":17197:17529   */\n      swap4\n      swap3\n      pop\n      pop\n      pop\n      jump\t// out\n        /* \"#utility.yul\":17535:17651   */\n    tag_405:\n        /* \"#utility.yul\":17605:17626   */\n      tag_607\n        /* \"#utility.yul\":17620:17625   */\n      dup2\n        /* \"#utility.yul\":17605:17626   */\n      tag_375\n      jump\t// in\n    tag_607:\n        /* \"#utility.yul\":17598:17603   */\n      dup2\n        /* \"#utility.yul\":17595:17627   */\n      eq\n        /* \"#utility.yul\":17585:17645   */\n      tag_608\n      jumpi\n        /* \"#utility.yul\":17641:17642   */\n      0x00\n        /* \"#utility.yul\":17638:17639   */\n      0x00\n        /* \"#utility.yul\":17631:17643   */\n      revert\n        /* \"#utility.yul\":17585:17645   */\n    tag_608:\n        /* \"#utility.yul\":17535:17651   */\n      pop\n      jump\t// out\n        /* \"#utility.yul\":17657:17794   */\n    tag_406:\n        /* \"#utility.yul\":17711:17716   */\n      0x00\n        /* \"#utility.yul\":17742:17748   */\n      dup2\n        /* \"#utility.yul\":17736:17749   */\n      mload\n        /* \"#utility.yul\":17727:17749   */\n      swap1\n      pop\n        /* \"#utility.yul\":17758:17788   */\n      tag_610\n        /* \"#utility.yul\":17782:17787   */\n      dup2\n        /* \"#utility.yul\":17758:17788   */\n      tag_405\n      jump\t// in\n    tag_610:\n        /* \"#utility.yul\":17657:17794   */\n      swap3\n      swap2\n      pop\n      pop\n      jump\t// out\n        /* \"#utility.yul\":17800:18145   */\n    tag_201:\n        /* \"#utility.yul\":17867:17873   */\n      0x00\n        /* \"#utility.yul\":17916:17918   */\n      0x20\n        /* \"#utility.yul\":17904:17913   */\n      dup3\n        /* \"#utility.yul\":17895:17902   */\n      dup5\n        /* \"#utility.yul\":17891:17914   */\n      sub\n        /* \"#utility.yul\":17887:17919   */\n      slt\n        /* \"#utility.yul\":17884:18003   */\n      iszero\n      tag_612\n      jumpi\n        /* \"#utility.yul\":17922:18001   */\n      tag_613\n      tag_362\n      jump\t// in\n    tag_613:\n        /* \"#utility.yul\":17884:18003   */\n    tag_612:\n        /* \"#utility.yul\":18042:18043   */\n      0x00\n        /* \"#utility.yul\":18067:18128   */\n      tag_614\n        /* \"#utility.yul\":18120:18127   */\n      dup5\n        /* \"#utility.yul\":18111:18117   */\n      dup3\n        /* \"#utility.yul\":18100:18109   */\n      dup6\n        /* \"#utility.yul\":18096:18118   */\n      add\n        /* \"#utility.yul\":18067:18128   */\n      tag_406\n      jump\t// in\n    tag_614:\n        /* \"#utility.yul\":18057:18128   */\n      swap2\n      pop\n        /* \"#utility.yul\":18013:18138   */\n      pop\n        /* \"#utility.yul\":17800:18145   */\n      swap3\n      swap2\n      pop\n      pop\n      jump\t// out\n        /* \"#utility.yul\":18151:18483   */\n    tag_204:\n        /* \"#utility.yul\":18272:18276   */\n      0x00\n        /* \"#utility.yul\":18310:18312   */\n      0x40\n        /* \"#utility.yul\":18299:18308   */\n      dup3\n        /* \"#utility.yul\":18295:18313   */\n      add\n        /* \"#utility.yul\":18287:18313   */\n      swap1\n      pop\n        /* \"#utility.yul\":18323:18394   */\n      tag_616\n        /* \"#utility.yul\":18391:18392   */\n      0x00\n        /* \"#utility.yul\":18380:18389   */\n      dup4\n        /* \"#utility.yul\":18376:18393   */\n      add\n        /* \"#utility.yul\":18367:18373   */\n      dup6\n        /* \"#utility.yul\":18323:18394   */\n      tag_377\n      jump\t// in\n    tag_616:\n        /* \"#utility.yul\":18404:18476   */\n      tag_617\n        /* \"#utility.yul\":18472:18474   */\n      0x20\n        /* \"#utility.yul\":18461:18470   */\n      dup4\n        /* \"#utility.yul\":18457:18475   */\n      add\n        /* \"#utility.yul\":18448:18454   */\n      dup5\n        /* \"#utility.yul\":18404:18476   */\n      tag_377\n      jump\t// in\n    tag_617:\n        /* \"#utility.yul\":18151:18483   */\n      swap4\n      swap3\n      pop\n      pop\n      pop\n      jump\t// out\n        /* \"#utility.yul\":18489:18669   */\n    tag_407:\n        /* \"#utility.yul\":18537:18614   */\n      0x4e487b7100000000000000000000000000000000000000000000000000000000\n        /* \"#utility.yul\":18534:18535   */\n      0x00\n        /* \"#utility.yul\":18527:18615   */\n      mstore\n        /* \"#utility.yul\":18634:18638   */\n      0x11\n        /* \"#utility.yul\":18631:18632   */\n      0x04\n        /* \"#utility.yul\":18624:18639   */\n      mstore\n        /* \"#utility.yul\":18658:18662   */\n      0x24\n        /* \"#utility.yul\":18655:18656   */\n      0x00\n        /* \"#utility.yul\":18648:18663   */\n      revert\n        /* \"#utility.yul\":18675:18866   */\n    tag_208:\n        /* \"#utility.yul\":18715:18718   */\n      0x00\n        /* \"#utility.yul\":18734:18754   */\n      tag_620\n        /* \"#utility.yul\":18752:18753   */\n      dup3\n        /* \"#utility.yul\":18734:18754   */\n      tag_364\n      jump\t// in\n    tag_620:\n        /* \"#utility.yul\":18729:18754   */\n      swap2\n      pop\n        /* \"#utility.yul\":18768:18788   */\n      tag_621\n        /* \"#utility.yul\":18786:18787   */\n      dup4\n        /* \"#utility.yul\":18768:18788   */\n      tag_364\n      jump\t// in\n    tag_621:\n        /* \"#utility.yul\":18763:18788   */\n      swap3\n      pop\n        /* \"#utility.yul\":18811:18812   */\n      dup3\n        /* \"#utility.yul\":18808:18809   */\n      dup3\n        /* \"#utility.yul\":18804:18813   */\n      add\n        /* \"#utility.yul\":18797:18813   */\n      swap1\n      pop\n        /* \"#utility.yul\":18832:18835   */\n      dup1\n        /* \"#utility.yul\":18829:18830   */\n      dup3\n        /* \"#utility.yul\":18826:18836   */\n      gt\n        /* \"#utility.yul\":18823:18859   */\n      iszero\n      tag_622\n      jumpi\n        /* \"#utility.yul\":18839:18857   */\n      tag_623\n      tag_407\n      jump\t// in\n    tag_623:\n        /* \"#utility.yul\":18823:18859   */\n    tag_622:\n        /* \"#utility.yul\":18675:18866   */\n      swap3\n      swap2\n      pop\n      pop\n      jump\t// out\n        /* \"#utility.yul\":18872:19032   */\n    tag_408:\n        /* \"#utility.yul\":19012:19024   */\n      0x4f4e4c595f4f574e455200000000000000000000000000000000000000000000\n        /* \"#utility.yul\":19008:19009   */\n      0x00\n        /* \"#utility.yul\":19000:19006   */\n      dup3\n        /* \"#utility.yul\":18996:19010   */\n      add\n        /* \"#utility.yul\":18989:19025   */\n      mstore\n        /* \"#utility.yul\":18872:19032   */\n      pop\n      jump\t// out\n        /* \"#utility.yul\":19038:19404   */\n    tag_409:\n        /* \"#utility.yul\":19180:19183   */\n      0x00\n        /* \"#utility.yul\":19201:19268   */\n      tag_626\n        /* \"#utility.yul\":19265:19267   */\n      0x0a\n        /* \"#utility.yul\":19260:19263   */\n      dup4\n        /* \"#utility.yul\":19201:19268   */\n      tag_391\n      jump\t// in\n    tag_626:\n        /* \"#utility.yul\":19194:19268   */\n      swap2\n      pop\n        /* \"#utility.yul\":19277:19370   */\n      tag_627\n        /* \"#utility.yul\":19366:19369   */\n      dup3\n        /* \"#utility.yul\":19277:19370   */\n      tag_408\n      jump\t// in\n    tag_627:\n        /* \"#utility.yul\":19395:19397   */\n      0x20\n        /* \"#utility.yul\":19390:19393   */\n      dup3\n        /* \"#utility.yul\":19386:19398   */\n      add\n        /* \"#utility.yul\":19379:19398   */\n      swap1\n      pop\n        /* \"#utility.yul\":19038:19404   */\n      swap2\n      swap1\n      pop\n      jump\t// out\n        /* \"#utility.yul\":19410:19829   */\n    tag_213:\n        /* \"#utility.yul\":19576:19580   */\n      0x00\n        /* \"#utility.yul\":19614:19616   */\n      0x20\n        /* \"#utility.yul\":19603:19612   */\n      dup3\n        /* \"#utility.yul\":19599:19617   */\n      add\n        /* \"#utility.yul\":19591:19617   */\n      swap1\n      pop\n        /* \"#utility.yul\":19663:19672   */\n      dup2\n        /* \"#utility.yul\":19657:19661   */\n      dup2\n        /* \"#utility.yul\":19653:19673   */\n      sub\n        /* \"#utility.yul\":19649:19650   */\n      0x00\n        /* \"#utility.yul\":19638:19647   */\n      dup4\n        /* \"#utility.yul\":19634:19651   */\n      add\n        /* \"#utility.yul\":19627:19674   */\n      mstore\n        /* \"#utility.yul\":19691:19822   */\n      tag_629\n        /* \"#utility.yul\":19817:19821   */\n      dup2\n        /* \"#utility.yul\":19691:19822   */\n      tag_409\n      jump\t// in\n    tag_629:\n        /* \"#utility.yul\":19683:19822   */\n      swap1\n      pop\n        /* \"#utility.yul\":19410:19829   */\n      swap2\n      swap1\n      pop\n      jump\t// out\n        /* \"#utility.yul\":19835:19994   */\n    tag_410:\n        /* \"#utility.yul\":19975:19986   */\n      0x5a45524f5f414444520000000000000000000000000000000000000000000000\n        /* \"#utility.yul\":19971:19972   */\n      0x00\n        /* \"#utility.yul\":19963:19969   */\n      dup3\n        /* \"#utility.yul\":19959:19973   */\n      add\n        /* \"#utility.yul\":19952:19987   */\n      mstore\n        /* \"#utility.yul\":19835:19994   */\n      pop\n      jump\t// out\n        /* \"#utility.yul\":20000:20365   */\n    tag_411:\n        /* \"#utility.yul\":20142:20145   */\n      0x00\n        /* \"#utility.yul\":20163:20229   */\n      tag_632\n        /* \"#utility.yul\":20227:20228   */\n      0x09\n        /* \"#utility.yul\":20222:20225   */\n      dup4\n        /* \"#utility.yul\":20163:20229   */\n      tag_391\n      jump\t// in\n    tag_632:\n        /* \"#utility.yul\":20156:20229   */\n      swap2\n      pop\n        /* \"#utility.yul\":20238:20331   */\n      tag_633\n        /* \"#utility.yul\":20327:20330   */\n      dup3\n        /* \"#utility.yul\":20238:20331   */\n      tag_410\n      jump\t// in\n    tag_633:\n        /* \"#utility.yul\":20356:20358   */\n      0x20\n        /* \"#utility.yul\":20351:20354   */\n      dup3\n        /* \"#utility.yul\":20347:20359   */\n      add\n        /* \"#utility.yul\":20340:20359   */\n      swap1\n      pop\n        /* \"#utility.yul\":20000:20365   */\n      swap2\n      swap1\n      pop\n      jump\t// out\n        /* \"#utility.yul\":20371:20790   */\n    tag_217:\n        /* \"#utility.yul\":20537:20541   */\n      0x00\n        /* \"#utility.yul\":20575:20577   */\n      0x20\n        /* \"#utility.yul\":20564:20573   */\n      dup3\n        /* \"#utility.yul\":20560:20578   */\n      add\n        /* \"#utility.yul\":20552:20578   */\n      swap1\n      pop\n        /* \"#utility.yul\":20624:20633   */\n      dup2\n        /* \"#utility.yul\":20618:20622   */\n      dup2\n        /* \"#utility.yul\":20614:20634   */\n      sub\n        /* \"#utility.yul\":20610:20611   */\n      0x00\n        /* \"#utility.yul\":20599:20608   */\n      dup4\n        /* \"#utility.yul\":20595:20612   */\n      add\n        /* \"#utility.yul\":20588:20635   */\n      mstore\n        /* \"#utility.yul\":20652:20783   */\n      tag_635\n        /* \"#utility.yul\":20778:20782   */\n      dup2\n        /* \"#utility.yul\":20652:20783   */\n      tag_411\n      jump\t// in\n    tag_635:\n        /* \"#utility.yul\":20644:20783   */\n      swap1\n      pop\n        /* \"#utility.yul\":20371:20790   */\n      swap2\n      swap1\n      pop\n      jump\t// out\n        /* \"#utility.yul\":20796:20963   */\n    tag_412:\n        /* \"#utility.yul\":20936:20955   */\n      0x494e53554646494349454e545f424f4e44000000000000000000000000000000\n        /* \"#utility.yul\":20932:20933   */\n      0x00\n        /* \"#utility.yul\":20924:20930   */\n      dup3\n        /* \"#utility.yul\":20920:20934   */\n      add\n        /* \"#utility.yul\":20913:20956   */\n      mstore\n        /* \"#utility.yul\":20796:20963   */\n      pop\n      jump\t// out\n        /* \"#utility.yul\":20969:21335   */\n    tag_413:\n        /* \"#utility.yul\":21111:21114   */\n      0x00\n        /* \"#utility.yul\":21132:21199   */\n      tag_638\n        /* \"#utility.yul\":21196:21198   */\n      0x11\n        /* \"#utility.yul\":21191:21194   */\n      dup4\n        /* \"#utility.yul\":21132:21199   */\n      tag_391\n      jump\t// in\n    tag_638:\n        /* \"#utility.yul\":21125:21199   */\n      swap2\n      pop\n        /* \"#utility.yul\":21208:21301   */\n      tag_639\n        /* \"#utility.yul\":21297:21300   */\n      dup3\n        /* \"#utility.yul\":21208:21301   */\n      tag_412\n      jump\t// in\n    tag_639:\n        /* \"#utility.yul\":21326:21328   */\n      0x20\n        /* \"#utility.yul\":21321:21324   */\n      dup3\n        /* \"#utility.yul\":21317:21329   */\n      add\n        /* \"#utility.yul\":21310:21329   */\n      swap1\n      pop\n        /* \"#utility.yul\":20969:21335   */\n      swap2\n      swap1\n      pop\n      jump\t// out\n        /* \"#utility.yul\":21341:21760   */\n    tag_227:\n        /* \"#utility.yul\":21507:21511   */\n      0x00\n        /* \"#utility.yul\":21545:21547   */\n      0x20\n        /* \"#utility.yul\":21534:21543   */\n      dup3\n        /* \"#utility.yul\":21530:21548   */\n      add\n        /* \"#utility.yul\":21522:21548   */\n      swap1\n      pop\n        /* \"#utility.yul\":21594:21603   */\n      dup2\n        /* \"#utility.yul\":21588:21592   */\n      dup2\n        /* \"#utility.yul\":21584:21604   */\n      sub\n        /* \"#utility.yul\":21580:21581   */\n      0x00\n        /* \"#utility.yul\":21569:21578   */\n      dup4\n        /* \"#utility.yul\":21565:21582   */\n      add\n        /* \"#utility.yul\":21558:21605   */\n      mstore\n        /* \"#utility.yul\":21622:21753   */\n      tag_641\n        /* \"#utility.yul\":21748:21752   */\n      dup2\n        /* \"#utility.yul\":21622:21753   */\n      tag_413\n      jump\t// in\n    tag_641:\n        /* \"#utility.yul\":21614:21753   */\n      swap1\n      pop\n        /* \"#utility.yul\":21341:21760   */\n      swap2\n      swap1\n      pop\n      jump\t// out\n        /* \"#utility.yul\":21766:21960   */\n    tag_229:\n        /* \"#utility.yul\":21806:21810   */\n      0x00\n        /* \"#utility.yul\":21826:21846   */\n      tag_643\n        /* \"#utility.yul\":21844:21845   */\n      dup3\n        /* \"#utility.yul\":21826:21846   */\n      tag_364\n      jump\t// in\n    tag_643:\n        /* \"#utility.yul\":21821:21846   */\n      swap2\n      pop\n        /* \"#utility.yul\":21860:21880   */\n      tag_644\n        /* \"#utility.yul\":21878:21879   */\n      dup4\n        /* \"#utility.yul\":21860:21880   */\n      tag_364\n      jump\t// in\n    tag_644:\n        /* \"#utility.yul\":21855:21880   */\n      swap3\n      pop\n        /* \"#utility.yul\":21904:21905   */\n      dup3\n        /* \"#utility.yul\":21901:21902   */\n      dup3\n        /* \"#utility.yul\":21897:21906   */\n      sub\n        /* \"#utility.yul\":21889:21906   */\n      swap1\n      pop\n        /* \"#utility.yul\":21928:21929   */\n      dup2\n        /* \"#utility.yul\":21922:21926   */\n      dup2\n        /* \"#utility.yul\":21919:21930   */\n      gt\n        /* \"#utility.yul\":21916:21953   */\n      iszero\n      tag_645\n      jumpi\n        /* \"#utility.yul\":21933:21951   */\n      tag_646\n      tag_407\n      jump\t// in\n    tag_646:\n        /* \"#utility.yul\":21916:21953   */\n    tag_645:\n        /* \"#utility.yul\":21766:21960   */\n      swap3\n      swap2\n      pop\n      pop\n      jump\t// out\n        /* \"#utility.yul\":21966:22408   */\n    tag_245:\n        /* \"#utility.yul\":22115:22119   */\n      0x00\n        /* \"#utility.yul\":22153:22155   */\n      0x60\n        /* \"#utility.yul\":22142:22151   */\n      dup3\n        /* \"#utility.yul\":22138:22156   */\n      add\n        /* \"#utility.yul\":22130:22156   */\n      swap1\n      pop\n        /* \"#utility.yul\":22166:22237   */\n      tag_648\n        /* \"#utility.yul\":22234:22235   */\n      0x00\n        /* \"#utility.yul\":22223:22232   */\n      dup4\n        /* \"#utility.yul\":22219:22236   */\n      add\n        /* \"#utility.yul\":22210:22216   */\n      dup7\n        /* \"#utility.yul\":22166:22237   */\n      tag_377\n      jump\t// in\n    tag_648:\n        /* \"#utility.yul\":22247:22319   */\n      tag_649\n        /* \"#utility.yul\":22315:22317   */\n      0x20\n        /* \"#utility.yul\":22304:22313   */\n      dup4\n        /* \"#utility.yul\":22300:22318   */\n      add\n        /* \"#utility.yul\":22291:22297   */\n      dup6\n        /* \"#utility.yul\":22247:22319   */\n      tag_377\n      jump\t// in\n    tag_649:\n        /* \"#utility.yul\":22329:22401   */\n      tag_650\n        /* \"#utility.yul\":22397:22399   */\n      0x40\n        /* \"#utility.yul\":22386:22395   */\n      dup4\n        /* \"#utility.yul\":22382:22400   */\n      add\n        /* \"#utility.yul\":22373:22379   */\n      dup5\n        /* \"#utility.yul\":22329:22401   */\n      tag_377\n      jump\t// in\n    tag_650:\n        /* \"#utility.yul\":21966:22408   */\n      swap5\n      swap4\n      pop\n      pop\n      pop\n      pop\n      jump\t// out\n        /* \"#utility.yul\":22414:22582   */\n    tag_414:\n        /* \"#utility.yul\":22554:22574   */\n      0x53455155454e4345525f424f4e445f4c4f570000000000000000000000000000\n        /* \"#utility.yul\":22550:22551   */\n      0x00\n        /* \"#utility.yul\":22542:22548   */\n      dup3\n        /* \"#utility.yul\":22538:22552   */\n      add\n        /* \"#utility.yul\":22531:22575   */\n      mstore\n        /* \"#utility.yul\":22414:22582   */\n      pop\n      jump\t// out\n        /* \"#utility.yul\":22588:22954   */\n    tag_415:\n        /* \"#utility.yul\":22730:22733   */\n      0x00\n        /* \"#utility.yul\":22751:22818   */\n      tag_653\n        /* \"#utility.yul\":22815:22817   */\n      0x12\n        /* \"#utility.yul\":22810:22813   */\n      dup4\n        /* \"#utility.yul\":22751:22818   */\n      tag_391\n      jump\t// in\n    tag_653:\n        /* \"#utility.yul\":22744:22818   */\n      swap2\n      pop\n        /* \"#utility.yul\":22827:22920   */\n      tag_654\n        /* \"#utility.yul\":22916:22919   */\n      dup3\n        /* \"#utility.yul\":22827:22920   */\n      tag_414\n      jump\t// in\n    tag_654:\n        /* \"#utility.yul\":22945:22947   */\n      0x20\n        /* \"#utility.yul\":22940:22943   */\n      dup3\n        /* \"#utility.yul\":22936:22948   */\n      add\n        /* \"#utility.yul\":22929:22948   */\n      swap1\n      pop\n        /* \"#utility.yul\":22588:22954   */\n      swap2\n      swap1\n      pop\n      jump\t// out\n        /* \"#utility.yul\":22960:23379   */\n    tag_261:\n        /* \"#utility.yul\":23126:23130   */\n      0x00\n        /* \"#utility.yul\":23164:23166   */\n      0x20\n        /* \"#utility.yul\":23153:23162   */\n      dup3\n        /* \"#utility.yul\":23149:23167   */\n      add\n        /* \"#utility.yul\":23141:23167   */\n      swap1\n      pop\n        /* \"#utility.yul\":23213:23222   */\n      dup2\n        /* \"#utility.yul\":23207:23211   */\n      dup2\n        /* \"#utility.yul\":23203:23223   */\n      sub\n        /* \"#utility.yul\":23199:23200   */\n      0x00\n        /* \"#utility.yul\":23188:23197   */\n      dup4\n        /* \"#utility.yul\":23184:23201   */\n      add\n        /* \"#utility.yul\":23177:23224   */\n      mstore\n        /* \"#utility.yul\":23241:23372   */\n      tag_656\n        /* \"#utility.yul\":23367:23371   */\n      dup2\n        /* \"#utility.yul\":23241:23372   */\n      tag_415\n      jump\t// in\n    tag_656:\n        /* \"#utility.yul\":23233:23372   */\n      swap1\n      pop\n        /* \"#utility.yul\":22960:23379   */\n      swap2\n      swap1\n      pop\n      jump\t// out\n        /* \"#utility.yul\":23385:23618   */\n    tag_265:\n        /* \"#utility.yul\":23424:23427   */\n      0x00\n        /* \"#utility.yul\":23447:23471   */\n      tag_658\n        /* \"#utility.yul\":23465:23470   */\n      dup3\n        /* \"#utility.yul\":23447:23471   */\n      tag_364\n      jump\t// in\n    tag_658:\n        /* \"#utility.yul\":23438:23471   */\n      swap2\n      pop\n        /* \"#utility.yul\":23493:23559   */\n      0xffffffffffffffffffffffffffffffffffffffffffffffffffffffffffffffff\n        /* \"#utility.yul\":23486:23491   */\n      dup3\n        /* \"#utility.yul\":23483:23560   */\n      sub\n        /* \"#utility.yul\":23480:23583   */\n      tag_659\n      jumpi\n        /* \"#utility.yul\":23563:23581   */\n      tag_660\n      tag_407\n      jump\t// in\n    tag_660:\n        /* \"#utility.yul\":23480:23583   */\n    tag_659:\n        /* \"#utility.yul\":23610:23611   */\n      0x01\n        /* \"#utility.yul\":23603:23608   */\n      dup3\n        /* \"#utility.yul\":23599:23612   */\n      add\n        /* \"#utility.yul\":23592:23612   */\n      swap1\n      pop\n        /* \"#utility.yul\":23385:23618   */\n      swap2\n      swap1\n      pop\n      jump\t// out\n        /* \"#utility.yul\":23624:23956   */\n    tag_267:\n        /* \"#utility.yul\":23745:23749   */\n      0x00\n        /* \"#utility.yul\":23783:23785   */\n      0x40\n        /* \"#utility.yul\":23772:23781   */\n      dup3\n        /* \"#utility.yul\":23768:23786   */\n      add\n        /* \"#utility.yul\":23760:23786   */\n      swap1\n      pop\n        /* \"#utility.yul\":23796:23867   */\n      tag_662\n        /* \"#utility.yul\":23864:23865   */\n      0x00\n        /* \"#utility.yul\":23853:23862   */\n      dup4\n        /* \"#utility.yul\":23849:23866   */\n      add\n        /* \"#utility.yul\":23840:23846   */\n      dup6\n        /* \"#utility.yul\":23796:23867   */\n      tag_379\n      jump\t// in\n    tag_662:\n        /* \"#utility.yul\":23877:23949   */\n      tag_663\n        /* \"#utility.yul\":23945:23947   */\n      0x20\n        /* \"#utility.yul\":23934:23943   */\n      dup4\n        /* \"#utility.yul\":23930:23948   */\n      add\n        /* \"#utility.yul\":23921:23927   */\n      dup5\n        /* \"#utility.yul\":23877:23949   */\n      tag_379\n      jump\t// in\n    tag_663:\n        /* \"#utility.yul\":23624:23956   */\n      swap4\n      swap3\n      pop\n      pop\n      pop\n      jump\t// out\n        /* \"#utility.yul\":23962:24130   */\n    tag_416:\n        /* \"#utility.yul\":24045:24056   */\n      0x00\n        /* \"#utility.yul\":24079:24085   */\n      dup3\n        /* \"#utility.yul\":24074:24077   */\n      dup3\n        /* \"#utility.yul\":24067:24086   */\n      mstore\n        /* \"#utility.yul\":24119:24123   */\n      0x20\n        /* \"#utility.yul\":24114:24117   */\n      dup3\n        /* \"#utility.yul\":24110:24124   */\n      add\n        /* \"#utility.yul\":24095:24124   */\n      swap1\n      pop\n        /* \"#utility.yul\":23962:24130   */\n      swap3\n      swap2\n      pop\n      pop\n      jump\t// out\n        /* \"#utility.yul\":24136:24284   */\n    tag_417:\n        /* \"#utility.yul\":24234:24240   */\n      dup3\n        /* \"#utility.yul\":24229:24232   */\n      dup2\n        /* \"#utility.yul\":24224:24227   */\n      dup4\n        /* \"#utility.yul\":24211:24241   */\n      calldatacopy\n        /* \"#utility.yul\":24275:24276   */\n      0x00\n        /* \"#utility.yul\":24266:24272   */\n      dup4\n        /* \"#utility.yul\":24261:24264   */\n      dup4\n        /* \"#utility.yul\":24257:24273   */\n      add\n        /* \"#utility.yul\":24250:24277   */\n      mstore\n        /* \"#utility.yul\":24136:24284   */\n      pop\n      pop\n      pop\n      jump\t// out\n        /* \"#utility.yul\":24290:24392   */\n    tag_418:\n        /* \"#utility.yul\":24331:24337   */\n      0x00\n        /* \"#utility.yul\":24382:24384   */\n      0x1f\n        /* \"#utility.yul\":24378:24385   */\n      not\n        /* \"#utility.yul\":24373:24375   */\n      0x1f\n        /* \"#utility.yul\":24366:24371   */\n      dup4\n        /* \"#utility.yul\":24362:24376   */\n      add\n        /* \"#utility.yul\":24358:24386   */\n      and\n        /* \"#utility.yul\":24348:24386   */\n      swap1\n      pop\n        /* \"#utility.yul\":24290:24392   */\n      swap2\n      swap1\n      pop\n      jump\t// out\n        /* \"#utility.yul\":24420:24734   */\n    tag_419:\n        /* \"#utility.yul\":24516:24519   */\n      0x00\n        /* \"#utility.yul\":24537:24607   */\n      tag_668\n        /* \"#utility.yul\":24600:24606   */\n      dup4\n        /* \"#utility.yul\":24595:24598   */\n      dup6\n        /* \"#utility.yul\":24537:24607   */\n      tag_416\n      jump\t// in\n    tag_668:\n        /* \"#utility.yul\":24530:24607   */\n      swap4\n      pop\n        /* \"#utility.yul\":24617:24673   */\n      tag_669\n        /* \"#utility.yul\":24666:24672   */\n      dup4\n        /* \"#utility.yul\":24661:24664   */\n      dup6\n        /* \"#utility.yul\":24654:24659   */\n      dup5\n        /* \"#utility.yul\":24617:24673   */\n      tag_417\n      jump\t// in\n    tag_669:\n        /* \"#utility.yul\":24698:24727   */\n      tag_670\n        /* \"#utility.yul\":24720:24726   */\n      dup4\n        /* \"#utility.yul\":24698:24727   */\n      tag_418\n      jump\t// in\n    tag_670:\n        /* \"#utility.yul\":24693:24696   */\n      dup5\n        /* \"#utility.yul\":24689:24728   */\n      add\n        /* \"#utility.yul\":24682:24728   */\n      swap1\n      pop\n        /* \"#utility.yul\":24420:24734   */\n      swap4\n      swap3\n      pop\n      pop\n      pop\n      jump\t// out\n        /* \"#utility.yul\":24740:25400   */\n    tag_279:\n        /* \"#utility.yul\":24945:24949   */\n      0x00\n        /* \"#utility.yul\":24983:24986   */\n      0x80\n        /* \"#utility.yul\":24972:24981   */\n      dup3\n        /* \"#utility.yul\":24968:24987   */\n      add\n        /* \"#utility.yul\":24960:24987   */\n      swap1\n      pop\n        /* \"#utility.yul\":25033:25042   */\n      dup2\n        /* \"#utility.yul\":25027:25031   */\n      dup2\n        /* \"#utility.yul\":25023:25043   */\n      sub\n        /* \"#utility.yul\":25019:25020   */\n      0x00\n        /* \"#utility.yul\":25008:25017   */\n      dup4\n        /* \"#utility.yul\":25004:25021   */\n      add\n        /* \"#utility.yul\":24997:25044   */\n      mstore\n        /* \"#utility.yul\":25061:25147   */\n      tag_672\n        /* \"#utility.yul\":25142:25146   */\n      dup2\n        /* \"#utility.yul\":25133:25139   */\n      dup8\n        /* \"#utility.yul\":25125:25131   */\n      dup10\n        /* \"#utility.yul\":25061:25147   */\n      tag_419\n      jump\t// in\n    tag_672:\n        /* \"#utility.yul\":25053:25147   */\n      swap1\n      pop\n        /* \"#utility.yul\":25157:25229   */\n      tag_673\n        /* \"#utility.yul\":25225:25227   */\n      0x20\n        /* \"#utility.yul\":25214:25223   */\n      dup4\n        /* \"#utility.yul\":25210:25228   */\n      add\n        /* \"#utility.yul\":25201:25207   */\n      dup7\n        /* \"#utility.yul\":25157:25229   */\n      tag_379\n      jump\t// in\n    tag_673:\n        /* \"#utility.yul\":25239:25311   */\n      tag_674\n        /* \"#utility.yul\":25307:25309   */\n      0x40\n        /* \"#utility.yul\":25296:25305   */\n      dup4\n        /* \"#utility.yul\":25292:25310   */\n      add\n        /* \"#utility.yul\":25283:25289   */\n      dup6\n        /* \"#utility.yul\":25239:25311   */\n      tag_379\n      jump\t// in\n    tag_674:\n        /* \"#utility.yul\":25321:25393   */\n      tag_675\n        /* \"#utility.yul\":25389:25391   */\n      0x60\n        /* \"#utility.yul\":25378:25387   */\n      dup4\n        /* \"#utility.yul\":25374:25392   */\n      add\n        /* \"#utility.yul\":25365:25371   */\n      dup5\n        /* \"#utility.yul\":25321:25393   */\n      tag_379\n      jump\t// in\n    tag_675:\n        /* \"#utility.yul\":24740:25400   */\n      swap7\n      swap6\n      pop\n      pop\n      pop\n      pop\n      pop\n      pop\n      jump\t// out\n        /* \"#utility.yul\":25406:25586   */\n    tag_420:\n        /* \"#utility.yul\":25454:25531   */\n      0x4e487b7100000000000000000000000000000000000000000000000000000000\n        /* \"#utility.yul\":25451:25452   */\n      0x00\n        /* \"#utility.yul\":25444:25532   */\n      mstore\n        /* \"#utility.yul\":25551:25555   */\n      0x12\n        /* \"#utility.yul\":25548:25549   */\n      0x04\n        /* \"#utility.yul\":25541:25556   */\n      mstore\n        /* \"#utility.yul\":25575:25579   */\n      0x24\n        /* \"#utility.yul\":25572:25573   */\n      0x00\n        /* \"#utility.yul\":25565:25580   */\n      revert\n        /* \"#utility.yul\":25592:25777   */\n    tag_285:\n        /* \"#utility.yul\":25632:25633   */\n      0x00\n        /* \"#utility.yul\":25649:25669   */\n      tag_678\n        /* \"#utility.yul\":25667:25668   */\n      dup3\n        /* \"#utility.yul\":25649:25669   */\n      tag_364\n      jump\t// in\n    tag_678:\n        /* \"#utility.yul\":25644:25669   */\n      swap2\n      pop\n        /* \"#utility.yul\":25683:25703   */\n      tag_679\n        /* \"#utility.yul\":25701:25702   */\n      dup4\n        /* \"#utility.yul\":25683:25703   */\n      tag_364\n      jump\t// in\n    tag_679:\n        /* \"#utility.yul\":25678:25703   */\n      swap3\n      pop\n        /* \"#utility.yul\":25722:25723   */\n      dup3\n        /* \"#utility.yul\":25712:25747   */\n      tag_680\n      jumpi\n        /* \"#utility.yul\":25727:25745   */\n      tag_681\n      tag_420\n      jump\t// in\n    tag_681:\n        /* \"#utility.yul\":25712:25747   */\n    tag_680:\n        /* \"#utility.yul\":25769:25770   */\n      dup3\n        /* \"#utility.yul\":25766:25767   */\n      dup3\n        /* \"#utility.yul\":25762:25771   */\n      div\n        /* \"#utility.yul\":25757:25771   */\n      swap1\n      pop\n        /* \"#utility.yul\":25592:25777   */\n      swap3\n      swap2\n      pop\n      pop\n      jump\t// out\n        /* \"#utility.yul\":25783:25952   */\n    tag_421:\n        /* \"#utility.yul\":25923:25944   */\n      0x4348414c4c454e4745525f424f4e445f4c4f5700000000000000000000000000\n        /* \"#utility.yul\":25919:25920   */\n      0x00\n        /* \"#utility.yul\":25911:25917   */\n      dup3\n        /* \"#utility.yul\":25907:25921   */\n      add\n        /* \"#utility.yul\":25900:25945   */\n      mstore\n        /* \"#utility.yul\":25783:25952   */\n      pop\n      jump\t// out\n        /* \"#utility.yul\":25958:26324   */\n    tag_422:\n        /* \"#utility.yul\":26100:26103   */\n      0x00\n        /* \"#utility.yul\":26121:26188   */\n      tag_684\n        /* \"#utility.yul\":26185:26187   */\n      0x13\n        /* \"#utility.yul\":26180:26183   */\n      dup4\n        /* \"#utility.yul\":26121:26188   */\n      tag_391\n      jump\t// in\n    tag_684:\n        /* \"#utility.yul\":26114:26188   */\n      swap2\n      pop\n        /* \"#utility.yul\":26197:26290   */\n      tag_685\n        /* \"#utility.yul\":26286:26289   */\n      dup3\n        /* \"#utility.yul\":26197:26290   */\n      tag_421\n      jump\t// in\n    tag_685:\n        /* \"#utility.yul\":26315:26317   */\n      0x20\n        /* \"#utility.yul\":26310:26313   */\n      dup3\n        /* \"#utility.yul\":26306:26318   */\n      add\n        /* \"#utility.yul\":26299:26318   */\n      swap1\n      pop\n        /* \"#utility.yul\":25958:26324   */\n      swap2\n      swap1\n      pop\n      jump\t// out\n        /* \"#utility.yul\":26330:26749   */\n    tag_312:\n        /* \"#utility.yul\":26496:26500   */\n      0x00\n        /* \"#utility.yul\":26534:26536   */\n      0x20\n        /* \"#utility.yul\":26523:26532   */\n      dup3\n        /* \"#utility.yul\":26519:26537   */\n      add\n        /* \"#utility.yul\":26511:26537   */\n      swap1\n      pop\n        /* \"#utility.yul\":26583:26592   */\n      dup2\n        /* \"#utility.yul\":26577:26581   */\n      dup2\n        /* \"#utility.yul\":26573:26593   */\n      sub\n        /* \"#utility.yul\":26569:26570   */\n      0x00\n        /* \"#utility.yul\":26558:26567   */\n      dup4\n        /* \"#utility.yul\":26554:26571   */\n      add\n        /* \"#utility.yul\":26547:26594   */\n      mstore\n        /* \"#utility.yul\":26611:26742   */\n      tag_687\n        /* \"#utility.yul\":26737:26741   */\n      dup2\n        /* \"#utility.yul\":26611:26742   */\n      tag_422\n      jump\t// in\n    tag_687:\n        /* \"#utility.yul\":26603:26742   */\n      swap1\n      pop\n        /* \"#utility.yul\":26330:26749   */\n      swap2\n      swap1\n      pop\n      jump\t// out\n        /* \"#utility.yul\":26755:27197   */\n    tag_319:\n        /* \"#utility.yul\":26904:26908   */\n      0x00\n        /* \"#utility.yul\":26942:26944   */\n      0x60\n        /* \"#utility.yul\":26931:26940   */\n      dup3\n        /* \"#utility.yul\":26927:26945   */\n      add\n        /* \"#utility.yul\":26919:26945   */\n      swap1\n      pop\n        /* \"#utility.yul\":26955:27026   */\n      tag_689\n        /* \"#utility.yul\":27023:27024   */\n      0x00\n        /* \"#utility.yul\":27012:27021   */\n      dup4\n        /* \"#utility.yul\":27008:27025   */\n      add\n        /* \"#utility.yul\":26999:27005   */\n      dup7\n        /* \"#utility.yul\":26955:27026   */\n      tag_380\n      jump\t// in\n    tag_689:\n        /* \"#utility.yul\":27036:27108   */\n      tag_690\n        /* \"#utility.yul\":27104:27106   */\n      0x20\n        /* \"#utility.yul\":27093:27102   */\n      dup4\n        /* \"#utility.yul\":27089:27107   */\n      add\n        /* \"#utility.yul\":27080:27086   */\n      dup6\n        /* \"#utility.yul\":27036:27108   */\n      tag_380\n      jump\t// in\n    tag_690:\n        /* \"#utility.yul\":27118:27190   */\n      tag_691\n        /* \"#utility.yul\":27186:27188   */\n      0x40\n        /* \"#utility.yul\":27175:27184   */\n      dup4\n        /* \"#utility.yul\":27171:27189   */\n      add\n        /* \"#utility.yul\":27162:27168   */\n      dup5\n        /* \"#utility.yul\":27118:27190   */\n      tag_377\n      jump\t// in\n    tag_691:\n        /* \"#utility.yul\":26755:27197   */\n      swap5\n      swap4\n      pop\n      pop\n      pop\n      pop\n      jump\t// out\n        /* \"#utility.yul\":27203:27383   */\n    tag_358:\n        /* \"#utility.yul\":27251:27328   */\n      0x4e487b7100000000000000000000000000000000000000000000000000000000\n        /* \"#utility.yul\":27248:27249   */\n      0x00\n        /* \"#utility.yul\":27241:27329   */\n      mstore\n        /* \"#utility.yul\":27348:27352   */\n      0x32\n        /* \"#utility.yul\":27345:27346   */\n      0x04\n        /* \"#utility.yul\":27338:27353   */\n      mstore\n        /* \"#utility.yul\":27372:27376   */\n      0x24\n        /* \"#utility.yul\":27369:27370   */\n      0x00\n        /* \"#utility.yul\":27362:27377   */\n      revert\n        /* \"#utility.yul\":27389:27468   */\n    tag_423:\n        /* \"#utility.yul\":27428:27435   */\n      0x00\n        /* \"#utility.yul\":27457:27462   */\n      dup2\n        /* \"#utility.yul\":27446:27462   */\n      swap1\n      pop\n        /* \"#utility.yul\":27389:27468   */\n      swap2\n      swap1\n      pop\n      jump\t// out\n        /* \"#utility.yul\":27474:27631   */\n    tag_424:\n        /* \"#utility.yul\":27579:27624   */\n      tag_695\n        /* \"#utility.yul\":27599:27623   */\n      tag_696\n        /* \"#utility.yul\":27617:27622   */\n      dup3\n        /* \"#utility.yul\":27599:27623   */\n      tag_378\n      jump\t// in\n    tag_696:\n        /* \"#utility.yul\":27579:27624   */\n      tag_423\n      jump\t// in\n    tag_695:\n        /* \"#utility.yul\":27574:27577   */\n      dup3\n        /* \"#utility.yul\":27567:27625   */\n      mstore\n        /* \"#utility.yul\":27474:27631   */\n      pop\n      pop\n      jump\t// out\n        /* \"#utility.yul\":27637:28034   */\n    tag_360:\n        /* \"#utility.yul\":27777:27780   */\n      0x00\n        /* \"#utility.yul\":27792:27867   */\n      tag_698\n        /* \"#utility.yul\":27863:27866   */\n      dup3\n        /* \"#utility.yul\":27854:27860   */\n      dup6\n        /* \"#utility.yul\":27792:27867   */\n      tag_424\n      jump\t// in\n    tag_698:\n        /* \"#utility.yul\":27892:27894   */\n      0x20\n        /* \"#utility.yul\":27887:27890   */\n      dup3\n        /* \"#utility.yul\":27883:27895   */\n      add\n        /* \"#utility.yul\":27876:27895   */\n      swap2\n      pop\n        /* \"#utility.yul\":27905:27980   */\n      tag_699\n        /* \"#utility.yul\":27976:27979   */\n      dup3\n        /* \"#utility.yul\":27967:27973   */\n      dup5\n        /* \"#utility.yul\":27905:27980   */\n      tag_424\n      jump\t// in\n    tag_699:\n        /* \"#utility.yul\":28005:28007   */\n      0x20\n        /* \"#utility.yul\":28000:28003   */\n      dup3\n        /* \"#utility.yul\":27996:28008   */\n      add\n        /* \"#utility.yul\":27989:28008   */\n      swap2\n      pop\n        /* \"#utility.yul\":28025:28028   */\n      dup2\n        /* \"#utility.yul\":28018:28028   */\n      swap1\n      pop\n        /* \"#utility.yul\":27637:28034   */\n      swap4\n      swap3\n      pop\n      pop\n      pop\n      jump\t// out\n\n    auxdata: 0xa2646970667358221220164cae0a0a0aeaf94c71d49db46260798ca59b804a9859b80077163d80dc888f64736f6c634300081e0033\n}\n",
				"bytecode": {
					"linkReferences": {},
					"object": "608060405234801561000f575f5ffd5b50604051613b11380380613b11833981810160405281019061003191906102aa565b335f5f6101000a81548173ffffffffffffffffffffffffffffffffffffffff021916908373ffffffffffffffffffffffffffffffffffffffff1602179055503373ffffffffffffffffffffffffffffffffffffffff165f73ffffffffffffffffffffffffffffffffffffffff167f8be0079c531659141344cd1fd0a4f28419497f9722a3daafe3b4186f6b6457e060405160405180910390a3600180819055505f73ffffffffffffffffffffffffffffffffffffffff168673ffffffffffffffffffffffffffffffffffffffff160361013f576040517f08c379a00000000000000000000000000000000000000000000000000000000081526004016101369061038d565b60405180910390fd5b8560025f6101000a81548173ffffffffffffffffffffffffffffffffffffffff021916908373ffffffffffffffffffffffffffffffffffffffff1602179055508460035f6101000a81548173ffffffffffffffffffffffffffffffffffffffff021916908373ffffffffffffffffffffffffffffffffffffffff16021790555083600681905550826004819055508160058190555080600a819055505050505050506103ab565b5f5ffd5b5f73ffffffffffffffffffffffffffffffffffffffff82169050919050565b5f610213826101ea565b9050919050565b61022381610209565b811461022d575f5ffd5b50565b5f8151905061023e8161021a565b92915050565b5f819050919050565b61025681610244565b8114610260575f5ffd5b50565b5f815190506102718161024d565b92915050565b5f819050919050565b61028981610277565b8114610293575f5ffd5b50565b5f815190506102a481610280565b92915050565b5f5f5f5f5f5f60c087890312156102c4576102c36101e6565b5b5f6102d189828a01610230565b96505060206102e289828a01610230565b95505060406102f389828a01610263565b945050606061030489828a01610263565b935050608061031589828a01610263565b92505060a061032689828a01610296565b9150509295509295509295565b5f82825260208201905092915050565b7f5a45524f5f53455155454e4345520000000000000000000000000000000000005f82015250565b5f610377600e83610333565b915061038282610343565b602082019050919050565b5f6020820190508181035f8301526103a48161036b565b9050919050565b613759806103b85f395ff3fe6080604052600436106101c5575f3560e01c80637b6605c5116100f6578063ac2eba9811610094578063e7b417a611610063578063e7b417a6146105d6578063f2fde38b146105fe578063f6326fb314610626578063fe10d77414610630576101cc565b8063ac2eba9814610517578063b32c4d8d14610541578063de35f5cb14610584578063e33491a7146105ae576101cc565b80638da5cb5b116100d05780638da5cb5b146104735780638fe0c5441461049d57806397feb926146104c5578063a8608d18146104ed576101cc565b80637b6605c51461040b5780638456cb5914610433578063861a141214610449576101cc565b80635a0ce676116101635780635c975abb1161013d5780635c975abb1461038557806364c9ec6f146103af57806367f4f4eb146103b957806368ccdc86146103e1576101cc565b80635a0ce676146103095780635c0b2cd3146103315780635c1bba381461035b576101cc565b806327de9e321161019f57806327de9e32146102655780633f4ba83a1461028d5780634d4e7019146102a357806357348b83146102cd576101cc565b8063129d8000146101d0578063147e4e8f146101f85780632547fa3e1461023d576101cc565b366101cc57005b5f5ffd5b3480156101db575f5ffd5b506101f660048036038101906101f19190612a7b565b61066c565b005b348015610203575f5ffd5b5061021e60048036038101906102199190612b11565b610b10565b6040516102349a99989796959493929190612b8c565b60405180910390f35b348015610248575f5ffd5b50610263600480360381019061025e9190612c26565b610c51565b005b348015610270575f5ffd5b5061028b60048036038101906102869190612b11565b610e0b565b005b348015610298575f5ffd5b506102a1611071565b005b3480156102ae575f5ffd5b506102b761115d565b6040516102c49190612c51565b60405180910390f35b3480156102d8575f5ffd5b506102f360048036038101906102ee9190612c94565b611163565b6040516103009190612cd2565b60405180910390f35b348015610314575f5ffd5b5061032f600480360381019061032a9190612ceb565b61118d565b005b34801561033c575f5ffd5b50610345611270565b6040516103529190612d96565b60405180910390f35b348015610366575f5ffd5b5061036f611295565b60405161037c9190612daf565b60405180910390f35b348015610390575f5ffd5b506103996112ba565b6040516103a69190612cd2565b60405180910390f35b6103b76112cc565b005b3480156103c4575f5ffd5b506103df60048036038101906103da9190612dc8565b6113f7565b005b3480156103ec575f5ffd5b506103f561168f565b6040516104029190612c51565b60405180910390f35b348015610416575f5ffd5b50610431600480360381019061042c9190612e6d565b611695565b005b34801561043e575f5ffd5b50610447611cd8565b005b348015610454575f5ffd5b5061045d611dc5565b60405161046a9190612c51565b60405180910390f35b34801561047e575f5ffd5b50610487611dcb565b6040516104949190612daf565b60405180910390f35b3480156104a8575f5ffd5b506104c360048036038101906104be9190612b11565b611def565b005b3480156104d0575f5ffd5b506104eb60048036038101906104e69190612eca565b6120d0565b005b3480156104f8575f5ffd5b50610501612292565b60405161050e9190612c51565b60405180910390f35b348015610522575f5ffd5b5061052b612298565b6040516105389190612f08565b60405180910390f35b34801561054c575f5ffd5b5061056760048036038101906105629190612b11565b61229e565b60405161057b989796959493929190612f43565b60405180910390f35b34801561058f575f5ffd5b5061059861232f565b6040516105a59190612c51565b60405180910390f35b3480156105b9575f5ffd5b506105d460048036038101906105cf9190612b11565b612335565b005b3480156105e1575f5ffd5b506105fc60048036038101906105f79190612c26565b61253e565b005b348015610609575f5ffd5b50610624600480360381019061061f9190612c26565b612652565b005b61062e61280a565b005b34801561063b575f5ffd5b5061065660048036038101906106519190612c26565b6128fb565b6040516106639190612c51565b60405180910390f35b5f60149054906101000a900460ff16156106bb576040517f08c379a00000000000000000000000000000000000000000000000000000000081526004016106b290613019565b60405180910390fd5b60018054146106ff576040517f08c379a00000000000000000000000000000000000000000000000000000000081526004016106f690613081565b60405180910390fd5b60026001819055505f60095f8881526020019081526020015f2090505f816004015f9054906101000a900467ffffffffffffffff1667ffffffffffffffff1603610775576040517f9e15e1bc00000000000000000000000000000000000000000000000000000000815260040160405180910390fd5b8060040160099054906101000a900460ff166107bd576040517f5565870f00000000000000000000000000000000000000000000000000000000815260040160405180910390fd5b5f85036107f6576040517f1f2a200500000000000000000000000000000000000000000000000000000000815260040160405180910390fd5b5f3387878760405160200161080e9493929190613104565b604051602081830303815290604052805190602001209050600c5f8981526020019081526020015f205f8281526020019081526020015f205f9054906101000a900460ff161561088a576040517f2f29b3db00000000000000000000000000000000000000000000000000000000815260040160405180910390fd5b61089a8484846003015484612910565b6108d0576040517f09bde33900000000000000000000000000000000000000000000000000000000815260040160405180910390fd5b6001600c5f8a81526020019081526020015f205f8381526020019081526020015f205f6101000a81548160ff0219169083151502179055505f73ffffffffffffffffffffffffffffffffffffffff168773ffffffffffffffffffffffffffffffffffffffff16036109e0575f3373ffffffffffffffffffffffffffffffffffffffff16876040516109609061317e565b5f6040518083038185875af1925050503d805f811461099a576040519150601f19603f3d011682016040523d82523d5f602084013e61099f565b606091505b50509050806109da576040517f90b8ec1800000000000000000000000000000000000000000000000000000000815260040160405180910390fd5b50610a97565b5f8773ffffffffffffffffffffffffffffffffffffffff1663a9059cbb33896040518363ffffffff1660e01b8152600401610a1c929190613192565b6020604051808303815f875af1158015610a38573d5f5f3e3d5ffd5b505050506040513d601f19601f82011682018060405250810190610a5c91906131e3565b905080610a95576040517f90b8ec1800000000000000000000000000000000000000000000000000000000815260040160405180910390fd5b505b8673ffffffffffffffffffffffffffffffffffffffff163373ffffffffffffffffffffffffffffffffffffffff16897f8c6f1f453248546230edca559f3fcddbea2f6c7c33a0f7899c403d78dfb642f28989604051610af792919061320e565b60405180910390a4505060018081905550505050505050565b5f5f5f5f5f5f5f5f5f5f5f60095f8d81526020019081526020015f2090505f816004015f9054906101000a900467ffffffffffffffff1667ffffffffffffffff1614159a508060040160089054906101000a900460ff1699508060040160099054906101000a900460ff169850806004015f9054906101000a900467ffffffffffffffff1667ffffffffffffffff1697505f816004015f9054906101000a900467ffffffffffffffff1667ffffffffffffffff1614610bfd57600654816004015f9054906101000a900467ffffffffffffffff1667ffffffffffffffff16610bf89190613262565b610bff565b5f5b9650805f0154955080600101549450806002015493508060030154925080600401600a9054906101000a900473ffffffffffffffffffffffffffffffffffffffff169150509193959799509193959799565b5f5f9054906101000a900473ffffffffffffffffffffffffffffffffffffffff1673ffffffffffffffffffffffffffffffffffffffff163373ffffffffffffffffffffffffffffffffffffffff1614610cdf576040517f08c379a0000000000000000000000000000000000000000000000000000000008152600401610cd6906132df565b60405180910390fd5b5f73ffffffffffffffffffffffffffffffffffffffff168173ffffffffffffffffffffffffffffffffffffffff1603610d4d576040517f08c379a0000000000000000000000000000000000000000000000000000000008152600401610d4490613347565b60405180910390fd5b8073ffffffffffffffffffffffffffffffffffffffff1660025f9054906101000a900473ffffffffffffffffffffffffffffffffffffffff1673ffffffffffffffffffffffffffffffffffffffff167fcd58b762453bd126b48db83f2cecd464f5281dd7e5e6824b528c09d0482984d660405160405180910390a38060025f6101000a81548173ffffffffffffffffffffffffffffffffffffffff021916908373ffffffffffffffffffffffffffffffffffffffff16021790555050565b5f60149054906101000a900460ff1615610e5a576040517f08c379a0000000000000000000000000000000000000000000000000000000008152600401610e5190613019565b60405180910390fd5b6001805414610e9e576040517f08c379a0000000000000000000000000000000000000000000000000000000008152600401610e9590613081565b60405180910390fd5b60026001819055508060075f3373ffffffffffffffffffffffffffffffffffffffff1673ffffffffffffffffffffffffffffffffffffffff1681526020019081526020015f20541015610f26576040517f08c379a0000000000000000000000000000000000000000000000000000000008152600401610f1d906133af565b60405180910390fd5b8060075f3373ffffffffffffffffffffffffffffffffffffffff1673ffffffffffffffffffffffffffffffffffffffff1681526020019081526020015f205f828254610f7291906133cd565b925050819055505f3373ffffffffffffffffffffffffffffffffffffffff1682604051610f9e9061317e565b5f6040518083038185875af1925050503d805f8114610fd8576040519150601f19603f3d011682016040523d82523d5f602084013e610fdd565b606091505b5050905080611018576040517f90b8ec1800000000000000000000000000000000000000000000000000000000815260040160405180910390fd5b3373ffffffffffffffffffffffffffffffffffffffff167fd24dbf5e9299ce53c3aa9f7227ff1cc8441c2faae04509aa370ca3703385d6b48360405161105e9190612c51565b60405180910390a2506001808190555050565b5f5f9054906101000a900473ffffffffffffffffffffffffffffffffffffffff1673ffffffffffffffffffffffffffffffffffffffff163373ffffffffffffffffffffffffffffffffffffffff16146110ff576040517f08c379a00000000000000000000000000000000000000000000000000000000081526004016110f6906132df565b60405180910390fd5b5f5f60146101000a81548160ff0219169083151502179055503373ffffffffffffffffffffffffffffffffffffffff167f5db9ee0a495bf2e6ff9c91a7834c1ba4fdd244a5e8aa4e537bd38aeae4b073aa60405160405180910390a2565b60085481565b600c602052815f5260405f20602052805f5260405f205f915091509054906101000a900460ff1681565b5f5f9054906101000a900473ffffffffffffffffffffffffffffffffffffffff1673ffffffffffffffffffffffffffffffffffffffff163373ffffffffffffffffffffffffffffffffffffffff161461121b576040517f08c379a0000000000000000000000000000000000000000000000000000000008152600401611212906132df565b60405180910390fd5b8260068190555081600481905550806005819055507f0cba168cfa7900657e5f8cc53d6f52ebbfa3a9f568941b465cc4f731c60c95b283838360405161126393929190613400565b60405180910390a1505050565b60035f9054906101000a900473ffffffffffffffffffffffffffffffffffffffff1681565b60025f9054906101000a900473ffffffffffffffffffffffffffffffffffffffff1681565b5f60149054906101000a900460ff1681565b5f60149054906101000a900460ff161561131b576040517f08c379a000000000000000000000000000000000000000000000000000000000815260040161131290613019565b60405180910390fd5b5f3403611354576040517f1f2a200500000000000000000000000000000000000000000000000000000000815260040160405180910390fd5b3460075f3373ffffffffffffffffffffffffffffffffffffffff1673ffffffffffffffffffffffffffffffffffffffff1681526020019081526020015f205f8282546113a09190613262565b925050819055503373ffffffffffffffffffffffffffffffffffffffff167fd0a009034e24a39106653c4903cf28b1947b8a9964d03206648e0f0a5de74a46346040516113ed9190612c51565b60405180910390a2565b5f60149054906101000a900460ff1615611446576040517f08c379a000000000000000000000000000000000000000000000000000000000815260040161143d90613019565b60405180910390fd5b60025f9054906101000a900473ffffffffffffffffffffffffffffffffffffffff1673ffffffffffffffffffffffffffffffffffffffff163373ffffffffffffffffffffffffffffffffffffffff16146114cc576040517f53e2827c00000000000000000000000000000000000000000000000000000000815260040160405180910390fd5b60045460075f3373ffffffffffffffffffffffffffffffffffffffff1673ffffffffffffffffffffffffffffffffffffffff1681526020019081526020015f2054101561154e576040517f08c379a00000000000000000000000000000000000000000000000000000000081526004016115459061347f565b60405180910390fd5b5f5f1b8303611589576040517f86bdc25c00000000000000000000000000000000000000000000000000000000815260040160405180910390fd5b5f5f1b82036115c4576040517f86bdc25c00000000000000000000000000000000000000000000000000000000815260040160405180910390fd5b5f60085f81546115d39061349d565b91905081905590505f60095f8381526020019081526020015f209050600a54815f018190555084816001018190555083816002018190555082816003018190555042816004015f6101000a81548167ffffffffffffffff021916908367ffffffffffffffff1602179055508060010154815f0154837f65300ce317ab79e5474eefcb0c14e8d429b3e59746933dbb8e07f051347c419087876040516116799291906134e4565b60405180910390a484600a819055505050505050565b60055481565b5f60149054906101000a900460ff16156116e4576040517f08c379a00000000000000000000000000000000000000000000000000000000081526004016116db90613019565b60405180910390fd5b5f60095f8581526020019081526020015f2090505f816004015f9054906101000a900467ffffffffffffffff1667ffffffffffffffff1603611752576040517f9e15e1bc00000000000000000000000000000000000000000000000000000000815260040160405180910390fd5b8060040160089054906101000a900460ff1661179a576040517fd44be46e00000000000000000000000000000000000000000000000000000000815260040160405180910390fd5b8060040160099054906101000a900460ff16156117e3576040517f8a66d60700000000000000000000000000000000000000000000000000000000815260040160405180910390fd5b80600401600a9054906101000a900473ffffffffffffffffffffffffffffffffffffffff1673ffffffffffffffffffffffffffffffffffffffff163373ffffffffffffffffffffffffffffffffffffffff161415801561188f57505f5f9054906101000a900473ffffffffffffffffffffffffffffffffffffffff1673ffffffffffffffffffffffffffffffffffffffff163373ffffffffffffffffffffffffffffffffffffffff1614155b156118c6576040517fd44be46e00000000000000000000000000000000000000000000000000000000815260040160405180910390fd5b5f73ffffffffffffffffffffffffffffffffffffffff1660035f9054906101000a900473ffffffffffffffffffffffffffffffffffffffff1673ffffffffffffffffffffffffffffffffffffffff160361194c576040517f09bde33900000000000000000000000000000000000000000000000000000000815260040160405180910390fd5b5f60035f9054906101000a900473ffffffffffffffffffffffffffffffffffffffff1673ffffffffffffffffffffffffffffffffffffffff16638606d48885858560020154865f015487600101546040518663ffffffff1660e01b81526004016119ba959493929190613565565b602060405180830381865afa1580156119d5573d5f5f3e3d5ffd5b505050506040513d601f19601f820116820180604052508101906119f991906131e3565b90508015611b7d575f6002600454611a1191906135de565b90505f60075f60025f9054906101000a900473ffffffffffffffffffffffffffffffffffffffff1673ffffffffffffffffffffffffffffffffffffffff1673ffffffffffffffffffffffffffffffffffffffff1681526020019081526020015f205490505f818311611a835782611a85565b815b90505f811115611b75578082611a9b91906133cd565b60075f60025f9054906101000a900473ffffffffffffffffffffffffffffffffffffffff1673ffffffffffffffffffffffffffffffffffffffff1673ffffffffffffffffffffffffffffffffffffffff1681526020019081526020015f20819055508060075f87600401600a9054906101000a900473ffffffffffffffffffffffffffffffffffffffff1673ffffffffffffffffffffffffffffffffffffffff1673ffffffffffffffffffffffffffffffffffffffff1681526020019081526020015f205f828254611b6d9190613262565b925050819055505b505050611c7d565b5f600a600554611b8d91906135de565b90505f60075f85600401600a9054906101000a900473ffffffffffffffffffffffffffffffffffffffff1673ffffffffffffffffffffffffffffffffffffffff1673ffffffffffffffffffffffffffffffffffffffff1681526020019081526020015f205490505f82118015611c035750818110155b15611c7a578181611c1491906133cd565b60075f86600401600a9054906101000a900473ffffffffffffffffffffffffffffffffffffffff1673ffffffffffffffffffffffffffffffffffffffff1673ffffffffffffffffffffffffffffffffffffffff1681526020019081526020015f20819055505b50505b5f8260040160086101000a81548160ff021916908315150217905550847f1c13286911ea61ab9e07cf462b69b2c12954593a03380a618afdf62d227021ae82604051611cc99190612cd2565b60405180910390a25050505050565b5f5f9054906101000a900473ffffffffffffffffffffffffffffffffffffffff1673ffffffffffffffffffffffffffffffffffffffff163373ffffffffffffffffffffffffffffffffffffffff1614611d66576040517f08c379a0000000000000000000000000000000000000000000000000000000008152600401611d5d906132df565b60405180910390fd5b60015f60146101000a81548160ff0219169083151502179055503373ffffffffffffffffffffffffffffffffffffffff167f62e78cea01bee320cd4e420270b5ea74000d11b0c9f74754ebdbfc544b05a25860405160405180910390a2565b60065481565b5f5f9054906101000a900473ffffffffffffffffffffffffffffffffffffffff1681565b5f60149054906101000a900460ff1615611e3e576040517f08c379a0000000000000000000000000000000000000000000000000000000008152600401611e3590613019565b60405180910390fd5b5f60095f8381526020019081526020015f2090505f816004015f9054906101000a900467ffffffffffffffff1667ffffffffffffffff1603611eac576040517f9e15e1bc00000000000000000000000000000000000000000000000000000000815260040160405180910390fd5b8060040160099054906101000a900460ff1615611ef5576040517f8a66d60700000000000000000000000000000000000000000000000000000000815260040160405180910390fd5b8060040160089054906101000a900460ff1615611f3e576040517ff1082a9300000000000000000000000000000000000000000000000000000000815260040160405180910390fd5b600654816004015f9054906101000a900467ffffffffffffffff1667ffffffffffffffff16611f6d9190613262565b421115611fa6576040517ff541751000000000000000000000000000000000000000000000000000000000815260040160405180910390fd5b60055460075f3373ffffffffffffffffffffffffffffffffffffffff1673ffffffffffffffffffffffffffffffffffffffff1681526020019081526020015f20541015612028576040517f08c379a000000000000000000000000000000000000000000000000000000000815260040161201f90613658565b60405180910390fd5b60018160040160086101000a81548160ff0219169083151502179055503381600401600a6101000a81548173ffffffffffffffffffffffffffffffffffffffff021916908373ffffffffffffffffffffffffffffffffffffffff1602179055503373ffffffffffffffffffffffffffffffffffffffff16827f341905abd65f49eb35219139a0ccdce4a6d57d73972347db266f11adcb5a8c8960405160405180910390a35050565b5f60149054906101000a900460ff161561211f576040517f08c379a000000000000000000000000000000000000000000000000000000000815260040161211690613019565b60405180910390fd5b5f8103612158576040517f1f2a200500000000000000000000000000000000000000000000000000000000815260040160405180910390fd5b5f8273ffffffffffffffffffffffffffffffffffffffff166323b872dd3330856040518463ffffffff1660e01b815260040161219693929190613676565b6020604051808303815f875af11580156121b2573d5f5f3e3d5ffd5b505050506040513d601f19601f820116820180604052508101906121d691906131e3565b90508061220f576040517f90b8ec1800000000000000000000000000000000000000000000000000000000815260040160405180910390fd5b5f600b5f815461221e9061349d565b9190508190559050808473ffffffffffffffffffffffffffffffffffffffff163373ffffffffffffffffffffffffffffffffffffffff167f228adef123a7fe6b727889b4d24b39b39de663428214fd757c6c501fb98d8494866040516122849190612c51565b60405180910390a450505050565b60045481565b600a5481565b6009602052805f5260405f205f91509050805f015490806001015490806002015490806003015490806004015f9054906101000a900467ffffffffffffffff16908060040160089054906101000a900460ff16908060040160099054906101000a900460ff169080600401600a9054906101000a900473ffffffffffffffffffffffffffffffffffffffff16905088565b600b5481565b5f60149054906101000a900460ff1615612384576040517f08c379a000000000000000000000000000000000000000000000000000000000815260040161237b90613019565b60405180910390fd5b5f60095f8381526020019081526020015f2090505f816004015f9054906101000a900467ffffffffffffffff1667ffffffffffffffff16036123f2576040517f9e15e1bc00000000000000000000000000000000000000000000000000000000815260040160405180910390fd5b8060040160099054906101000a900460ff161561243b576040517f8a66d60700000000000000000000000000000000000000000000000000000000815260040160405180910390fd5b600654816004015f9054906101000a900467ffffffffffffffff1667ffffffffffffffff1661246a9190613262565b42116124a2576040517fc970363200000000000000000000000000000000000000000000000000000000815260040160405180910390fd5b8060040160089054906101000a900460ff16156124eb576040517ff1082a9300000000000000000000000000000000000000000000000000000000815260040160405180910390fd5b60018160040160096101000a81548160ff0219169083151502179055508060010154827fa3ea0288fb824a30cae7f7d72a9e887bd0926c40c8438c43b49cfca687b0df5260405160405180910390a35050565b5f5f9054906101000a900473ffffffffffffffffffffffffffffffffffffffff1673ffffffffffffffffffffffffffffffffffffffff163373ffffffffffffffffffffffffffffffffffffffff16146125cc576040517f08c379a00000000000000000000000000000000000000000000000000000000081526004016125c3906132df565b60405180910390fd5b8060035f6101000a81548173ffffffffffffffffffffffffffffffffffffffff021916908373ffffffffffffffffffffffffffffffffffffffff1602179055508073ffffffffffffffffffffffffffffffffffffffff167f8f188b15032cf36df69a7f5f4bd1583e05704dbb1504feabf2a98d125fc9b23560405160405180910390a250565b5f5f9054906101000a900473ffffffffffffffffffffffffffffffffffffffff1673ffffffffffffffffffffffffffffffffffffffff163373ffffffffffffffffffffffffffffffffffffffff16146126e0576040517f08c379a00000000000000000000000000000000000000000000000000000000081526004016126d7906132df565b60405180910390fd5b5f73ffffffffffffffffffffffffffffffffffffffff168173ffffffffffffffffffffffffffffffffffffffff160361274e576040517f08c379a000000000000000000000000000000000000000000000000000000000815260040161274590613347565b60405180910390fd5b8073ffffffffffffffffffffffffffffffffffffffff165f5f9054906101000a900473ffffffffffffffffffffffffffffffffffffffff1673ffffffffffffffffffffffffffffffffffffffff167f8be0079c531659141344cd1fd0a4f28419497f9722a3daafe3b4186f6b6457e060405160405180910390a3805f5f6101000a81548173ffffffffffffffffffffffffffffffffffffffff021916908373ffffffffffffffffffffffffffffffffffffffff16021790555050565b5f60149054906101000a900460ff1615612859576040517f08c379a000000000000000000000000000000000000000000000000000000000815260040161285090613019565b60405180910390fd5b5f3403612892576040517f1f2a200500000000000000000000000000000000000000000000000000000000815260040160405180910390fd5b5f600b5f81546128a19061349d565b9190508190559050803373ffffffffffffffffffffffffffffffffffffffff167f57e8e547a3ef8d890c570ca885b0a8c441be3070e36b7ad4c7d6b9d9316ff2ce346040516128f09190612c51565b60405180910390a350565b6007602052805f5260405f205f915090505481565b5f5f8290505f5f90505b868690508110156129765781878783818110612939576129386136ab565b5b905060200201356040516020016129519291906136f8565b604051602081830303815290604052805190602001209150808060010191505061291a565b50838114915050949350505050565b5f5ffd5b5f5ffd5b5f819050919050565b61299f8161298d565b81146129a9575f5ffd5b50565b5f813590506129ba81612996565b92915050565b5f73ffffffffffffffffffffffffffffffffffffffff82169050919050565b5f6129e9826129c0565b9050919050565b6129f9816129df565b8114612a03575f5ffd5b50565b5f81359050612a14816129f0565b92915050565b5f5ffd5b5f5ffd5b5f5ffd5b5f5f83601f840112612a3b57612a3a612a1a565b5b8235905067ffffffffffffffff811115612a5857612a57612a1e565b5b602083019150836020820283011115612a7457612a73612a22565b5b9250929050565b5f5f5f5f5f5f60a08789031215612a9557612a94612985565b5b5f612aa289828a016129ac565b9650506020612ab389828a01612a06565b9550506040612ac489828a016129ac565b9450506060612ad589828a016129ac565b935050608087013567ffffffffffffffff811115612af657612af5612989565b5b612b0289828a01612a26565b92509250509295509295509295565b5f60208284031215612b2657612b25612985565b5b5f612b33848285016129ac565b91505092915050565b5f8115159050919050565b612b5081612b3c565b82525050565b612b5f8161298d565b82525050565b5f819050919050565b612b7781612b65565b82525050565b612b86816129df565b82525050565b5f61014082019050612ba05f83018d612b47565b612bad602083018c612b47565b612bba604083018b612b47565b612bc7606083018a612b56565b612bd46080830189612b56565b612be160a0830188612b6e565b612bee60c0830187612b6e565b612bfb60e0830186612b6e565b612c09610100830185612b6e565b612c17610120830184612b7d565b9b9a5050505050505050505050565b5f60208284031215612c3b57612c3a612985565b5b5f612c4884828501612a06565b91505092915050565b5f602082019050612c645f830184612b56565b92915050565b612c7381612b65565b8114612c7d575f5ffd5b50565b5f81359050612c8e81612c6a565b92915050565b5f5f60408385031215612caa57612ca9612985565b5b5f612cb7858286016129ac565b9250506020612cc885828601612c80565b9150509250929050565b5f602082019050612ce55f830184612b47565b92915050565b5f5f5f60608486031215612d0257612d01612985565b5b5f612d0f868287016129ac565b9350506020612d20868287016129ac565b9250506040612d31868287016129ac565b9150509250925092565b5f819050919050565b5f612d5e612d59612d54846129c0565b612d3b565b6129c0565b9050919050565b5f612d6f82612d44565b9050919050565b5f612d8082612d65565b9050919050565b612d9081612d76565b82525050565b5f602082019050612da95f830184612d87565b92915050565b5f602082019050612dc25f830184612b7d565b92915050565b5f5f5f60608486031215612ddf57612dde612985565b5b5f612dec86828701612c80565b9350506020612dfd86828701612c80565b9250506040612e0e86828701612c80565b9150509250925092565b5f5f83601f840112612e2d57612e2c612a1a565b5b8235905067ffffffffffffffff811115612e4a57612e49612a1e565b5b602083019150836001820283011115612e6657612e65612a22565b5b9250929050565b5f5f5f60408486031215612e8457612e83612985565b5b5f612e91868287016129ac565b935050602084013567ffffffffffffffff811115612eb257612eb1612989565b5b612ebe86828701612e18565b92509250509250925092565b5f5f60408385031215612ee057612edf612985565b5b5f612eed85828601612a06565b9250506020612efe858286016129ac565b9150509250929050565b5f602082019050612f1b5f830184612b6e565b92915050565b5f67ffffffffffffffff82169050919050565b612f3d81612f21565b82525050565b5f61010082019050612f575f83018b612b6e565b612f64602083018a612b6e565b612f716040830189612b6e565b612f7e6060830188612b6e565b612f8b6080830187612f34565b612f9860a0830186612b47565b612fa560c0830185612b47565b612fb260e0830184612b7d565b9998505050505050505050565b5f82825260208201905092915050565b7f50415553454400000000000000000000000000000000000000000000000000005f82015250565b5f613003600683612fbf565b915061300e82612fcf565b602082019050919050565b5f6020820190508181035f83015261303081612ff7565b9050919050565b7f5245454e5452414e4359000000000000000000000000000000000000000000005f82015250565b5f61306b600a83612fbf565b915061307682613037565b602082019050919050565b5f6020820190508181035f8301526130988161305f565b9050919050565b5f8160601b9050919050565b5f6130b58261309f565b9050919050565b5f6130c6826130ab565b9050919050565b6130de6130d9826129df565b6130bc565b82525050565b5f819050919050565b6130fe6130f98261298d565b6130e4565b82525050565b5f61310f82876130cd565b60148201915061311f82866130cd565b60148201915061312f82856130ed565b60208201915061313f82846130ed565b60208201915081905095945050505050565b5f81905092915050565b50565b5f6131695f83613151565b91506131748261315b565b5f82019050919050565b5f6131888261315e565b9150819050919050565b5f6040820190506131a55f830185612b7d565b6131b26020830184612b56565b9392505050565b6131c281612b3c565b81146131cc575f5ffd5b50565b5f815190506131dd816131b9565b92915050565b5f602082840312156131f8576131f7612985565b5b5f613205848285016131cf565b91505092915050565b5f6040820190506132215f830185612b56565b61322e6020830184612b56565b9392505050565b7f4e487b71000000000000000000000000000000000000000000000000000000005f52601160045260245ffd5b5f61326c8261298d565b91506132778361298d565b925082820190508082111561328f5761328e613235565b5b92915050565b7f4f4e4c595f4f574e4552000000000000000000000000000000000000000000005f82015250565b5f6132c9600a83612fbf565b91506132d482613295565b602082019050919050565b5f6020820190508181035f8301526132f6816132bd565b9050919050565b7f5a45524f5f4144445200000000000000000000000000000000000000000000005f82015250565b5f613331600983612fbf565b915061333c826132fd565b602082019050919050565b5f6020820190508181035f83015261335e81613325565b9050919050565b7f494e53554646494349454e545f424f4e440000000000000000000000000000005f82015250565b5f613399601183612fbf565b91506133a482613365565b602082019050919050565b5f6020820190508181035f8301526133c68161338d565b9050919050565b5f6133d78261298d565b91506133e28361298d565b92508282039050818111156133fa576133f9613235565b5b92915050565b5f6060820190506134135f830186612b56565b6134206020830185612b56565b61342d6040830184612b56565b949350505050565b7f53455155454e4345525f424f4e445f4c4f5700000000000000000000000000005f82015250565b5f613469601283612fbf565b915061347482613435565b602082019050919050565b5f6020820190508181035f8301526134968161345d565b9050919050565b5f6134a78261298d565b91507fffffffffffffffffffffffffffffffffffffffffffffffffffffffffffffffff82036134d9576134d8613235565b5b600182019050919050565b5f6040820190506134f75f830185612b6e565b6135046020830184612b6e565b9392505050565b5f82825260208201905092915050565b828183375f83830152505050565b5f601f19601f8301169050919050565b5f613544838561350b565b935061355183858461351b565b61355a83613529565b840190509392505050565b5f6080820190508181035f83015261357e818789613539565b905061358d6020830186612b6e565b61359a6040830185612b6e565b6135a76060830184612b6e565b9695505050505050565b7f4e487b71000000000000000000000000000000000000000000000000000000005f52601260045260245ffd5b5f6135e88261298d565b91506135f38361298d565b925082613603576136026135b1565b5b828204905092915050565b7f4348414c4c454e4745525f424f4e445f4c4f57000000000000000000000000005f82015250565b5f613642601383612fbf565b915061364d8261360e565b602082019050919050565b5f6020820190508181035f83015261366f81613636565b9050919050565b5f6060820190506136895f830186612b7d565b6136966020830185612b7d565b6136a36040830184612b56565b949350505050565b7f4e487b71000000000000000000000000000000000000000000000000000000005f52603260045260245ffd5b5f819050919050565b6136f26136ed82612b65565b6136d8565b82525050565b5f61370382856136e1565b60208201915061371382846136e1565b602082019150819050939250505056fea2646970667358221220164cae0a0a0aeaf94c71d49db46260798ca59b804a9859b80077163d80dc888f64736f6c634300081e0033",
					"opcodes": "PUSH1 0x80 PUSH1 0x40 MSTORE CALLVALUE DUP1 ISZERO PUSH2 0xF JUMPI PUSH0 PUSH0 REVERT JUMPDEST POP PUSH1 0x40 MLOAD PUSH2 0x3B11 CODESIZE SUB DUP1 PUSH2 0x3B11 DUP4 CODECOPY DUP2 DUP2 ADD PUSH1 0x40 MSTORE DUP2 ADD SWAP1 PUSH2 0x31 SWAP2 SWAP1 PUSH2 0x2AA JUMP JUMPDEST CALLER PUSH0 PUSH0 PUSH2 0x100 EXP DUP2 SLOAD DUP2 PUSH20 0xFFFFFFFFFFFFFFFFFFFFFFFFFFFFFFFFFFFFFFFF MUL NOT AND SWAP1 DUP4 PUSH20 0xFFFFFFFFFFFFFFFFFFFFFFFFFFFFFFFFFFFFFFFF AND MUL OR SWAP1 SSTORE POP CALLER PUSH20 0xFFFFFFFFFFFFFFFFFFFFFFFFFFFFFFFFFFFFFFFF AND PUSH0 PUSH20 0xFFFFFFFFFFFFFFFFFFFFFFFFFFFFFFFFFFFFFFFF AND PUSH32 0x8BE0079C531659141344CD1FD0A4F28419497F9722A3DAAFE3B4186F6B6457E0 PUSH1 0x40 MLOAD PUSH1 0x40 MLOAD DUP1 SWAP2 SUB SWAP1 LOG3 PUSH1 0x1 DUP1 DUP2 SWAP1 SSTORE POP PUSH0 PUSH20 0xFFFFFFFFFFFFFFFFFFFFFFFFFFFFFFFFFFFFFFFF AND DUP7 PUSH20 0xFFFFFFFFFFFFFFFFFFFFFFFFFFFFFFFFFFFFFFFF AND SUB PUSH2 0x13F JUMPI PUSH1 0x40 MLOAD PUSH32 0x8C379A000000000000000000000000000000000000000000000000000000000 DUP2 MSTORE PUSH1 0x4 ADD PUSH2 0x136 SWAP1 PUSH2 0x38D JUMP JUMPDEST PUSH1 0x40 MLOAD DUP1 SWAP2 SUB SWAP1 REVERT JUMPDEST DUP6 PUSH1 0x2 PUSH0 PUSH2 0x100 EXP DUP2 SLOAD DUP2 PUSH20 0xFFFFFFFFFFFFFFFFFFFFFFFFFFFFFFFFFFFFFFFF MUL NOT AND SWAP1 DUP4 PUSH20 0xFFFFFFFFFFFFFFFFFFFFFFFFFFFFFFFFFFFFFFFF AND MUL OR SWAP1 SSTORE POP DUP5 PUSH1 0x3 PUSH0 PUSH2 0x100 EXP DUP2 SLOAD DUP2 PUSH20 0xFFFFFFFFFFFFFFFFFFFFFFFFFFFFFFFFFFFFFFFF MUL NOT AND SWAP1 DUP4 PUSH20 0xFFFFFFFFFFFFFFFFFFFFFFFFFFFFFFFFFFFFFFFF AND MUL OR SWAP1 SSTORE POP DUP4 PUSH1 0x6 DUP2 SWAP1 SSTORE POP DUP3 PUSH1 0x4 DUP2 SWAP1 SSTORE POP DUP2 PUSH1 0x5 DUP2 SWAP1 SSTORE POP DUP1 PUSH1 0xA DUP2 SWAP1 SSTORE POP POP POP POP POP POP POP PUSH2 0x3AB JUMP JUMPDEST PUSH0 PUSH0 REVERT JUMPDEST PUSH0 PUSH20 0xFFFFFFFFFFFFFFFFFFFFFFFFFFFFFFFFFFFFFFFF DUP3 AND SWAP1 POP SWAP2 SWAP1 POP JUMP JUMPDEST PUSH0 PUSH2 0x213 DUP3 PUSH2 0x1EA JUMP JUMPDEST SWAP1 POP SWAP2 SWAP1 POP JUMP JUMPDEST PUSH2 0x223 DUP2 PUSH2 0x209 JUMP JUMPDEST DUP2 EQ PUSH2 0x22D JUMPI PUSH0 PUSH0 REVERT JUMPDEST POP JUMP JUMPDEST PUSH0 DUP2 MLOAD SWAP1 POP PUSH2 0x23E DUP2 PUSH2 0x21A JUMP JUMPDEST SWAP3 SWAP2 POP POP JUMP JUMPDEST PUSH0 DUP2 SWAP1 POP SWAP2 SWAP1 POP JUMP JUMPDEST PUSH2 0x256 DUP2 PUSH2 0x244 JUMP JUMPDEST DUP2 EQ PUSH2 0x260 JUMPI PUSH0 PUSH0 REVERT JUMPDEST POP JUMP JUMPDEST PUSH0 DUP2 MLOAD SWAP1 POP PUSH2 0x271 DUP2 PUSH2 0x24D JUMP JUMPDEST SWAP3 SWAP2 POP POP JUMP JUMPDEST PUSH0 DUP2 SWAP1 POP SWAP2 SWAP1 POP JUMP JUMPDEST PUSH2 0x289 DUP2 PUSH2 0x277 JUMP JUMPDEST DUP2 EQ PUSH2 0x293 JUMPI PUSH0 PUSH0 REVERT JUMPDEST POP JUMP JUMPDEST PUSH0 DUP2 MLOAD SWAP1 POP PUSH2 0x2A4 DUP2 PUSH2 0x280 JUMP JUMPDEST SWAP3 SWAP2 POP POP JUMP JUMPDEST PUSH0 PUSH0 PUSH0 PUSH0 PUSH0 PUSH0 PUSH1 0xC0 DUP8 DUP10 SUB SLT ISZERO PUSH2 0x2C4 JUMPI PUSH2 0x2C3 PUSH2 0x1E6 JUMP JUMPDEST JUMPDEST PUSH0 PUSH2 0x2D1 DUP10 DUP3 DUP11 ADD PUSH2 0x230 JUMP JUMPDEST SWAP7 POP POP PUSH1 0x20 PUSH2 0x2E2 DUP10 DUP3 DUP11 ADD PUSH2 0x230 JUMP JUMPDEST SWAP6 POP POP PUSH1 0x40 PUSH2 0x2F3 DUP10 DUP3 DUP11 ADD PUSH2 0x263 JUMP JUMPDEST SWAP5 POP POP PUSH1 0x60 PUSH2 0x304 DUP10 DUP3 DUP11 ADD PUSH2 0x263 JUMP JUMPDEST SWAP4 POP POP PUSH1 0x80 PUSH2 0x315 DUP10 DUP3 DUP11 ADD PUSH2 0x263 JUMP JUMPDEST SWAP3 POP POP PUSH1 0xA0 PUSH2 0x326 DUP10 DUP3 DUP11 ADD PUSH2 0x296 JUMP JUMPDEST SWAP2 POP POP SWAP3 SWAP6 POP SWAP3 SWAP6 POP SWAP3 SWAP6 JUMP JUMPDEST PUSH0 DUP3 DUP3 MSTORE PUSH1 0x20 DUP3 ADD SWAP1 POP SWAP3 SWAP2 POP POP JUMP JUMPDEST PUSH32 0x5A45524F5F53455155454E434552000000000000000000000000000000000000 PUSH0 DUP3 ADD MSTORE POP JUMP JUMPDEST PUSH0 PUSH2 0x377 PUSH1 0xE DUP4 PUSH2 0x333 JUMP JUMPDEST SWAP2 POP PUSH2 0x382 DUP3 PUSH2 0x343 JUMP JUMPDEST PUSH1 0x20 DUP3 ADD SWAP1 POP SWAP2 SWAP1 POP JUMP JUMPDEST PUSH0 PUSH1 0x20 DUP3 ADD SWAP1 POP DUP2 DUP2 SUB PUSH0 DUP4 ADD MSTORE PUSH2 0x3A4 DUP2 PUSH2 0x36B JUMP JUMPDEST SWAP1 POP SWAP2 SWAP1 POP JUMP JUMPDEST PUSH2 0x3759 DUP1 PUSH2 0x3B8 PUSH0 CODECOPY PUSH0 RETURN INVALID PUSH1 0x80 PUSH1 0x40 MSTORE PUSH1 0x4 CALLDATASIZE LT PUSH2 0x1C5 JUMPI PUSH0 CALLDATALOAD PUSH1 0xE0 SHR DUP1 PUSH4 0x7B6605C5 GT PUSH2 0xF6 JUMPI DUP1 PUSH4 0xAC2EBA98 GT PUSH2 0x94 JUMPI DUP1 PUSH4 0xE7B417A6 GT PUSH2 0x63 JUMPI DUP1 PUSH4 0xE7B417A6 EQ PUSH2 0x5D6 JUMPI DUP1 PUSH4 0xF2FDE38B EQ PUSH2 0x5FE JUMPI DUP1 PUSH4 0xF6326FB3 EQ PUSH2 0x626 JUMPI DUP1 PUSH4 0xFE10D774 EQ PUSH2 0x630 JUMPI PUSH2 0x1CC JUMP JUMPDEST DUP1 PUSH4 0xAC2EBA98 EQ PUSH2 0x517 JUMPI DUP1 PUSH4 0xB32C4D8D EQ PUSH2 0x541 JUMPI DUP1 PUSH4 0xDE35F5CB EQ PUSH2 0x584 JUMPI DUP1 PUSH4 0xE33491A7 EQ PUSH2 0x5AE JUMPI PUSH2 0x1CC JUMP JUMPDEST DUP1 PUSH4 0x8DA5CB5B GT PUSH2 0xD0 JUMPI DUP1 PUSH4 0x8DA5CB5B EQ PUSH2 0x473 JUMPI DUP1 PUSH4 0x8FE0C544 EQ PUSH2 0x49D JUMPI DUP1 PUSH4 0x97FEB926 EQ PUSH2 0x4C5 JUMPI DUP1 PUSH4 0xA8608D18 EQ PUSH2 0x4ED JUMPI PUSH2 0x1CC JUMP JUMPDEST DUP1 PUSH4 0x7B6605C5 EQ PUSH2 0x40B JUMPI DUP1 PUSH4 0x8456CB59 EQ PUSH2 0x433 JUMPI DUP1 PUSH4 0x861A1412 EQ PUSH2 0x449 JUMPI PUSH2 0x1CC JUMP JUMPDEST DUP1 PUSH4 0x5A0CE676 GT PUSH2 0x163 JUMPI DUP1 PUSH4 0x5C975ABB GT PUSH2 0x13D JUMPI DUP1 PUSH4 0x5C975ABB EQ PUSH2 0x385 JUMPI DUP1 PUSH4 0x64C9EC6F EQ PUSH2 0x3AF JUMPI DUP1 PUSH4 0x67F4F4EB EQ PUSH2 0x3B9 JUMPI DUP1 PUSH4 0x68CCDC86 EQ PUSH2 0x3E1 JUMPI PUSH2 0x1CC JUMP JUMPDEST DUP1 PUSH4 0x5A0CE676 EQ PUSH2 0x309 JUMPI DUP1 PUSH4 0x5C0B2CD3 EQ PUSH2 0x331 JUMPI DUP1 PUSH4 0x5C1BBA38 EQ PUSH2 0x35B JUMPI PUSH2 0x1CC JUMP JUMPDEST DUP1 PUSH4 0x27DE9E32 GT PUSH2 0x19F JUMPI DUP1 PUSH4 0x27DE9E32 EQ PUSH2 0x265 JUMPI DUP1 PUSH4 0x3F4BA83A EQ PUSH2 0x28D JUMPI DUP1 PUSH4 0x4D4E7019 EQ PUSH2 0x2A3 JUMPI DUP1 PUSH4 0x57348B83 EQ PUSH2 0x2CD JUMPI PUSH2 0x1CC JUMP JUMPDEST DUP1 PUSH4 0x129D8000 EQ PUSH2 0x1D0 JUMPI DUP1 PUSH4 0x147E4E8F EQ PUSH2 0x1F8 JUMPI DUP1 PUSH4 0x2547FA3E EQ PUSH2 0x23D JUMPI PUSH2 0x1CC JUMP JUMPDEST CALLDATASIZE PUSH2 0x1CC JUMPI STOP JUMPDEST PUSH0 PUSH0 REVERT JUMPDEST CALLVALUE DUP1 ISZERO PUSH2 0x1DB JUMPI PUSH0 PUSH0 REVERT JUMPDEST POP PUSH2 0x1F6 PUSH1 0x4 DUP1 CALLDATASIZE SUB DUP2 ADD SWAP1 PUSH2 0x1F1 SWAP2 SWAP1 PUSH2 0x2A7B JUMP JUMPDEST PUSH2 0x66C JUMP JUMPDEST STOP JUMPDEST CALLVALUE DUP1 ISZERO PUSH2 0x203 JUMPI PUSH0 PUSH0 REVERT JUMPDEST POP PUSH2 0x21E PUSH1 0x4 DUP1 CALLDATASIZE SUB DUP2 ADD SWAP1 PUSH2 0x219 SWAP2 SWAP1 PUSH2 0x2B11 JUMP JUMPDEST PUSH2 0xB10 JUMP JUMPDEST PUSH1 0x40 MLOAD PUSH2 0x234 SWAP11 SWAP10 SWAP9 SWAP8 SWAP7 SWAP6 SWAP5 SWAP4 SWAP3 SWAP2 SWAP1 PUSH2 0x2B8C JUMP JUMPDEST PUSH1 0x40 MLOAD DUP1 SWAP2 SUB SWAP1 RETURN JUMPDEST CALLVALUE DUP1 ISZERO PUSH2 0x248 JUMPI PUSH0 PUSH0 REVERT JUMPDEST POP PUSH2 0x263 PUSH1 0x4 DUP1 CALLDATASIZE SUB DUP2 ADD SWAP1 PUSH2 0x25E SWAP2 SWAP1 PUSH2 0x2C26 JUMP JUMPDEST PUSH2 0xC51 JUMP JUMPDEST STOP JUMPDEST CALLVALUE DUP1 ISZERO PUSH2 0x270 JUMPI PUSH0 PUSH0 REVERT JUMPDEST POP PUSH2 0x28B PUSH1 0x4 DUP1 CALLDATASIZE SUB DUP2 ADD SWAP1 PUSH2 0x286 SWAP2 SWAP1 PUSH2 0x2B11 JUMP JUMPDEST PUSH2 0xE0B JUMP JUMPDEST STOP JUMPDEST CALLVALUE DUP1 ISZERO PUSH2 0x298 JUMPI PUSH0 PUSH0 REVERT JUMPDEST POP PUSH2 0x2A1 PUSH2 0x1071 JUMP JUMPDEST STOP JUMPDEST CALLVALUE DUP1 ISZERO PUSH2 0x2AE JUMPI PUSH0 PUSH0 REVERT JUMPDEST POP PUSH2 0x2B7 PUSH2 0x115D JUMP JUMPDEST PUSH1 0x40 MLOAD PUSH2 0x2C4 SWAP2 SWAP1 PUSH2 0x2C51 JUMP JUMPDEST PUSH1 0x40 MLOAD DUP1 SWAP2 SUB SWAP1 RETURN JUMPDEST CALLVALUE DUP1 ISZERO PUSH2 0x2D8 JUMPI PUSH0 PUSH0 REVERT JUMPDEST POP PUSH2 0x2F3 PUSH1 0x4 DUP1 CALLDATASIZE SUB DUP2 ADD SWAP1 PUSH2 0x2EE SWAP2 SWAP1 PUSH2 0x2C94 JUMP JUMPDEST PUSH2 0x1163 JUMP JUMPDEST PUSH1 0x40 MLOAD PUSH2 0x300 SWAP2 SWAP1 PUSH2 0x2CD2 JUMP JUMPDEST PUSH1 0x40 MLOAD DUP1 SWAP2 SUB SWAP1 RETURN JUMPDEST CALLVALUE DUP1 ISZERO PUSH2 0x314 JUMPI PUSH0 PUSH0 REVERT JUMPDEST POP PUSH2 0x32F PUSH1 0x4 DUP1 CALLDATASIZE SUB DUP2 ADD SWAP1 PUSH2 0x32A SWAP2 SWAP1 PUSH2 0x2CEB JUMP JUMPDEST PUSH2 0x118D JUMP JUMPDEST STOP JUMPDEST CALLVALUE DUP1 ISZERO PUSH2 0x33C JUMPI PUSH0 PUSH0 REVERT JUMPDEST POP PUSH2 0x345 PUSH2 0x1270 JUMP JUMPDEST PUSH1 0x40 MLOAD PUSH2 0x352 SWAP2 SWAP1 PUSH2 0x2D96 JUMP JUMPDEST PUSH1 0x40 MLOAD DUP1 SWAP2 SUB SWAP1 RETURN JUMPDEST CALLVALUE DUP1 ISZERO PUSH2 0x366 JUMPI PUSH0 PUSH0 REVERT JUMPDEST POP PUSH2 0x36F PUSH2 0x1295 JUMP JUMPDEST PUSH1 0x40 MLOAD PUSH2 0x37C SWAP2 SWAP1 PUSH2 0x2DAF JUMP JUMPDEST PUSH1 0x40 MLOAD DUP1 SWAP2 SUB SWAP1 RETURN JUMPDEST CALLVALUE DUP1 ISZERO PUSH2 0x390 JUMPI PUSH0 PUSH0 REVERT JUMPDEST POP PUSH2 0x399 PUSH2 0x12BA JUMP JUMPDEST PUSH1 0x40 MLOAD PUSH2 0x3A6 SWAP2 SWAP1 PUSH2 0x2CD2 JUMP JUMPDEST PUSH1 0x40 MLOAD DUP1 SWAP2 SUB SWAP1 RETURN JUMPDEST PUSH2 0x3B7 PUSH2 0x12CC JUMP JUMPDEST STOP JUMPDEST CALLVALUE DUP1 ISZERO PUSH2 0x3C4 JUMPI PUSH0 PUSH0 REVERT JUMPDEST POP PUSH2 0x3DF PUSH1 0x4 DUP1 CALLDATASIZE SUB DUP2 ADD SWAP1 PUSH2 0x3DA SWAP2 SWAP1 PUSH2 0x2DC8 JUMP JUMPDEST PUSH2 0x13F7 JUMP JUMPDEST STOP JUMPDEST CALLVALUE DUP1 ISZERO PUSH2 0x3EC JUMPI PUSH0 PUSH0 REVERT JUMPDEST POP PUSH2 0x3F5 PUSH2 0x168F JUMP JUMPDEST PUSH1 0x40 MLOAD PUSH2 0x402 SWAP2 SWAP1 PUSH2 0x2C51 JUMP JUMPDEST PUSH1 0x40 MLOAD DUP1 SWAP2 SUB SWAP1 RETURN JUMPDEST CALLVALUE DUP1 ISZERO PUSH2 0x416 JUMPI PUSH0 PUSH0 REVERT JUMPDEST POP PUSH2 0x431 PUSH1 0x4 DUP1 CALLDATASIZE SUB DUP2 ADD SWAP1 PUSH2 0x42C SWAP2 SWAP1 PUSH2 0x2E6D JUMP JUMPDEST PUSH2 0x1695 JUMP JUMPDEST STOP JUMPDEST CALLVALUE DUP1 ISZERO PUSH2 0x43E JUMPI PUSH0 PUSH0 REVERT JUMPDEST POP PUSH2 0x447 PUSH2 0x1CD8 JUMP JUMPDEST STOP JUMPDEST CALLVALUE DUP1 ISZERO PUSH2 0x454 JUMPI PUSH0 PUSH0 REVERT JUMPDEST POP PUSH2 0x45D PUSH2 0x1DC5 JUMP JUMPDEST PUSH1 0x40 MLOAD PUSH2 0x46A SWAP2 SWAP1 PUSH2 0x2C51 JUMP JUMPDEST PUSH1 0x40 MLOAD DUP1 SWAP2 SUB SWAP1 RETURN JUMPDEST CALLVALUE DUP1 ISZERO PUSH2 0x47E JUMPI PUSH0 PUSH0 REVERT JUMPDEST POP PUSH2 0x487 PUSH2 0x1DCB JUMP JUMPDEST PUSH1 0x40 MLOAD PUSH2 0x494 SWAP2 SWAP1 PUSH2 0x2DAF JUMP JUMPDEST PUSH1 0x40 MLOAD DUP1 SWAP2 SUB SWAP1 RETURN JUMPDEST CALLVALUE DUP1 ISZERO PUSH2 0x4A8 JUMPI PUSH0 PUSH0 REVERT JUMPDEST POP PUSH2 0x4C3 PUSH1 0x4 DUP1 CALLDATASIZE SUB DUP2 ADD SWAP1 PUSH2 0x4BE SWAP2 SWAP1 PUSH2 0x2B11 JUMP JUMPDEST PUSH2 0x1DEF JUMP JUMPDEST STOP JUMPDEST CALLVALUE DUP1 ISZERO PUSH2 0x4D0 JUMPI PUSH0 PUSH0 REVERT JUMPDEST POP PUSH2 0x4EB PUSH1 0x4 DUP1 CALLDATASIZE SUB DUP2 ADD SWAP1 PUSH2 0x4E6 SWAP2 SWAP1 PUSH2 0x2ECA JUMP JUMPDEST PUSH2 0x20D0 JUMP JUMPDEST STOP JUMPDEST CALLVALUE DUP1 ISZERO PUSH2 0x4F8 JUMPI PUSH0 PUSH0 REVERT JUMPDEST POP PUSH2 0x501 PUSH2 0x2292 JUMP JUMPDEST PUSH1 0x40 MLOAD PUSH2 0x50E SWAP2 SWAP1 PUSH2 0x2C51 JUMP JUMPDEST PUSH1 0x40 MLOAD DUP1 SWAP2 SUB SWAP1 RETURN JUMPDEST CALLVALUE DUP1 ISZERO PUSH2 0x522 JUMPI PUSH0 PUSH0 REVERT JUMPDEST POP PUSH2 0x52B PUSH2 0x2298 JUMP JUMPDEST PUSH1 0x40 MLOAD PUSH2 0x538 SWAP2 SWAP1 PUSH2 0x2F08 JUMP JUMPDEST PUSH1 0x40 MLOAD DUP1 SWAP2 SUB SWAP1 RETURN JUMPDEST CALLVALUE DUP1 ISZERO PUSH2 0x54C JUMPI PUSH0 PUSH0 REVERT JUMPDEST POP PUSH2 0x567 PUSH1 0x4 DUP1 CALLDATASIZE SUB DUP2 ADD SWAP1 PUSH2 0x562 SWAP2 SWAP1 PUSH2 0x2B11 JUMP JUMPDEST PUSH2 0x229E JUMP JUMPDEST PUSH1 0x40 MLOAD PUSH2 0x57B SWAP9 SWAP8 SWAP7 SWAP6 SWAP5 SWAP4 SWAP3 SWAP2 SWAP1 PUSH2 0x2F43 JUMP JUMPDEST PUSH1 0x40 MLOAD DUP1 SWAP2 SUB SWAP1 RETURN JUMPDEST CALLVALUE DUP1 ISZERO PUSH2 0x58F JUMPI PUSH0 PUSH0 REVERT JUMPDEST POP PUSH2 0x598 PUSH2 0x232F JUMP JUMPDEST PUSH1 0x40 MLOAD PUSH2 0x5A5 SWAP2 SWAP1 PUSH2 0x2C51 JUMP JUMPDEST PUSH1 0x40 MLOAD DUP1 SWAP2 SUB SWAP1 RETURN JUMPDEST CALLVALUE DUP1 ISZERO PUSH2 0x5B9 JUMPI PUSH0 PUSH0 REVERT JUMPDEST POP PUSH2 0x5D4 PUSH1 0x4 DUP1 CALLDATASIZE SUB DUP2 ADD SWAP1 PUSH2 0x5CF SWAP2 SWAP1 PUSH2 0x2B11 JUMP JUMPDEST PUSH2 0x2335 JUMP JUMPDEST STOP JUMPDEST CALLVALUE DUP1 ISZERO PUSH2 0x5E1 JUMPI PUSH0 PUSH0 REVERT JUMPDEST POP PUSH2 0x5FC PUSH1 0x4 DUP1 CALLDATASIZE SUB DUP2 ADD SWAP1 PUSH2 0x5F7 SWAP2 SWAP1 PUSH2 0x2C26 JUMP JUMPDEST PUSH2 0x253E JUMP JUMPDEST STOP JUMPDEST CALLVALUE DUP1 ISZERO PUSH2 0x609 JUMPI PUSH0 PUSH0 REVERT JUMPDEST POP PUSH2 0x624 PUSH1 0x4 DUP1 CALLDATASIZE SUB DUP2 ADD SWAP1 PUSH2 0x61F SWAP2 SWAP1 PUSH2 0x2C26 JUMP JUMPDEST PUSH2 0x2652 JUMP JUMPDEST STOP JUMPDEST PUSH2 0x62E PUSH2 0x280A JUMP JUMPDEST STOP JUMPDEST CALLVALUE DUP1 ISZERO PUSH2 0x63B JUMPI PUSH0 PUSH0 REVERT JUMPDEST POP PUSH2 0x656 PUSH1 0x4 DUP1 CALLDATASIZE SUB DUP2 ADD SWAP1 PUSH2 0x651 SWAP2 SWAP1 PUSH2 0x2C26 JUMP JUMPDEST PUSH2 0x28FB JUMP JUMPDEST PUSH1 0x40 MLOAD PUSH2 0x663 SWAP2 SWAP1 PUSH2 0x2C51 JUMP JUMPDEST PUSH1 0x40 MLOAD DUP1 SWAP2 SUB SWAP1 RETURN JUMPDEST PUSH0 PUSH1 0x14 SWAP1 SLOAD SWAP1 PUSH2 0x100 EXP SWAP1 DIV PUSH1 0xFF AND ISZERO PUSH2 0x6BB JUMPI PUSH1 0x40 MLOAD PUSH32 0x8C379A000000000000000000000000000000000000000000000000000000000 DUP2 MSTORE PUSH1 0x4 ADD PUSH2 0x6B2 SWAP1 PUSH2 0x3019 JUMP JUMPDEST PUSH1 0x40 MLOAD DUP1 SWAP2 SUB SWAP1 REVERT JUMPDEST PUSH1 0x1 DUP1 SLOAD EQ PUSH2 0x6FF JUMPI PUSH1 0x40 MLOAD PUSH32 0x8C379A000000000000000000000000000000000000000000000000000000000 DUP2 MSTORE PUSH1 0x4 ADD PUSH2 0x6F6 SWAP1 PUSH2 0x3081 JUMP JUMPDEST PUSH1 0x40 MLOAD DUP1 SWAP2 SUB SWAP1 REVERT JUMPDEST PUSH1 0x2 PUSH1 0x1 DUP2 SWAP1 SSTORE POP PUSH0 PUSH1 0x9 PUSH0 DUP9 DUP2 MSTORE PUSH1 0x20 ADD SWAP1 DUP2 MSTORE PUSH1 0x20 ADD PUSH0 KECCAK256 SWAP1 POP PUSH0 DUP2 PUSH1 0x4 ADD PUSH0 SWAP1 SLOAD SWAP1 PUSH2 0x100 EXP SWAP1 DIV PUSH8 0xFFFFFFFFFFFFFFFF AND PUSH8 0xFFFFFFFFFFFFFFFF AND SUB PUSH2 0x775 JUMPI PUSH1 0x40 MLOAD PUSH32 0x9E15E1BC00000000000000000000000000000000000000000000000000000000 DUP2 MSTORE PUSH1 0x4 ADD PUSH1 0x40 MLOAD DUP1 SWAP2 SUB SWAP1 REVERT JUMPDEST DUP1 PUSH1 0x4 ADD PUSH1 0x9 SWAP1 SLOAD SWAP1 PUSH2 0x100 EXP SWAP1 DIV PUSH1 0xFF AND PUSH2 0x7BD JUMPI PUSH1 0x40 MLOAD PUSH32 0x5565870F00000000000000000000000000000000000000000000000000000000 DUP2 MSTORE PUSH1 0x4 ADD PUSH1 0x40 MLOAD DUP1 SWAP2 SUB SWAP1 REVERT JUMPDEST PUSH0 DUP6 SUB PUSH2 0x7F6 JUMPI PUSH1 0x40 MLOAD PUSH32 0x1F2A200500000000000000000000000000000000000000000000000000000000 DUP2 MSTORE PUSH1 0x4 ADD PUSH1 0x40 MLOAD DUP1 SWAP2 SUB SWAP1 REVERT JUMPDEST PUSH0 CALLER DUP8 DUP8 DUP8 PUSH1 0x40 MLOAD PUSH1 0x20 ADD PUSH2 0x80E SWAP5 SWAP4 SWAP3 SWAP2 SWAP1 PUSH2 0x3104 JUMP JUMPDEST PUSH1 0x40 MLOAD PUSH1 0x20 DUP2 DUP4 SUB SUB DUP2 MSTORE SWAP1 PUSH1 0x40 MSTORE DUP1 MLOAD SWAP1 PUSH1 0x20 ADD KECCAK256 SWAP1 POP PUSH1 0xC PUSH0 DUP10 DUP2 MSTORE PUSH1 0x20 ADD SWAP1 DUP2 MSTORE PUSH1 0x20 ADD PUSH0 KECCAK256 PUSH0 DUP3 DUP2 MSTORE PUSH1 0x20 ADD SWAP1 DUP2 MSTORE PUSH1 0x20 ADD PUSH0 KECCAK256 PUSH0 SWAP1 SLOAD SWAP1 PUSH2 0x100 EXP SWAP1 DIV PUSH1 0xFF AND ISZERO PUSH2 0x88A JUMPI PUSH1 0x40 MLOAD PUSH32 0x2F29B3DB00000000000000000000000000000000000000000000000000000000 DUP2 MSTORE PUSH1 0x4 ADD PUSH1 0x40 MLOAD DUP1 SWAP2 SUB SWAP1 REVERT JUMPDEST PUSH2 0x89A DUP5 DUP5 DUP5 PUSH1 0x3 ADD SLOAD DUP5 PUSH2 0x2910 JUMP JUMPDEST PUSH2 0x8D0 JUMPI PUSH1 0x40 MLOAD PUSH32 0x9BDE33900000000000000000000000000000000000000000000000000000000 DUP2 MSTORE PUSH1 0x4 ADD PUSH1 0x40 MLOAD DUP1 SWAP2 SUB SWAP1 REVERT JUMPDEST PUSH1 0x1 PUSH1 0xC PUSH0 DUP11 DUP2 MSTORE PUSH1 0x20 ADD SWAP1 DUP2 MSTORE PUSH1 0x20 ADD PUSH0 KECCAK256 PUSH0 DUP4 DUP2 MSTORE PUSH1 0x20 ADD SWAP1 DUP2 MSTORE PUSH1 0x20 ADD PUSH0 KECCAK256 PUSH0 PUSH2 0x100 EXP DUP2 SLOAD DUP2 PUSH1 0xFF MUL NOT AND SWAP1 DUP4 ISZERO ISZERO MUL OR SWAP1 SSTORE POP PUSH0 PUSH20 0xFFFFFFFFFFFFFFFFFFFFFFFFFFFFFFFFFFFFFFFF AND DUP8 PUSH20 0xFFFFFFFFFFFFFFFFFFFFFFFFFFFFFFFFFFFFFFFF AND SUB PUSH2 0x9E0 JUMPI PUSH0 CALLER PUSH20 0xFFFFFFFFFFFFFFFFFFFFFFFFFFFFFFFFFFFFFFFF AND DUP8 PUSH1 0x40 MLOAD PUSH2 0x960 SWAP1 PUSH2 0x317E JUMP JUMPDEST PUSH0 PUSH1 0x40 MLOAD DUP1 DUP4 SUB DUP2 DUP6 DUP8 GAS CALL SWAP3 POP POP POP RETURNDATASIZE DUP1 PUSH0 DUP2 EQ PUSH2 0x99A JUMPI PUSH1 0x40 MLOAD SWAP2 POP PUSH1 0x1F NOT PUSH1 0x3F RETURNDATASIZE ADD AND DUP3 ADD PUSH1 0x40 MSTORE RETURNDATASIZE DUP3 MSTORE RETURNDATASIZE PUSH0 PUSH1 0x20 DUP5 ADD RETURNDATACOPY PUSH2 0x99F JUMP JUMPDEST PUSH1 0x60 SWAP2 POP JUMPDEST POP POP SWAP1 POP DUP1 PUSH2 0x9DA JUMPI PUSH1 0x40 MLOAD PUSH32 0x90B8EC1800000000000000000000000000000000000000000000000000000000 DUP2 MSTORE PUSH1 0x4 ADD PUSH1 0x40 MLOAD DUP1 SWAP2 SUB SWAP1 REVERT JUMPDEST POP PUSH2 0xA97 JUMP JUMPDEST PUSH0 DUP8 PUSH20 0xFFFFFFFFFFFFFFFFFFFFFFFFFFFFFFFFFFFFFFFF AND PUSH4 0xA9059CBB CALLER DUP10 PUSH1 0x40 MLOAD DUP4 PUSH4 0xFFFFFFFF AND PUSH1 0xE0 SHL DUP2 MSTORE PUSH1 0x4 ADD PUSH2 0xA1C SWAP3 SWAP2 SWAP1 PUSH2 0x3192 JUMP JUMPDEST PUSH1 0x20 PUSH1 0x40 MLOAD DUP1 DUP4 SUB DUP2 PUSH0 DUP8 GAS CALL ISZERO DUP1 ISZERO PUSH2 0xA38 JUMPI RETURNDATASIZE PUSH0 PUSH0 RETURNDATACOPY RETURNDATASIZE PUSH0 REVERT JUMPDEST POP POP POP POP PUSH1 0x40 MLOAD RETURNDATASIZE PUSH1 0x1F NOT PUSH1 0x1F DUP3 ADD AND DUP3 ADD DUP1 PUSH1 0x40 MSTORE POP DUP2 ADD SWAP1 PUSH2 0xA5C SWAP2 SWAP1 PUSH2 0x31E3 JUMP JUMPDEST SWAP1 POP DUP1 PUSH2 0xA95 JUMPI PUSH1 0x40 MLOAD PUSH32 0x90B8EC1800000000000000000000000000000000000000000000000000000000 DUP2 MSTORE PUSH1 0x4 ADD PUSH1 0x40 MLOAD DUP1 SWAP2 SUB SWAP1 REVERT JUMPDEST POP JUMPDEST DUP7 PUSH20 0xFFFFFFFFFFFFFFFFFFFFFFFFFFFFFFFFFFFFFFFF AND CALLER PUSH20 0xFFFFFFFFFFFFFFFFFFFFFFFFFFFFFFFFFFFFFFFF AND DUP10 PUSH32 0x8C6F1F453248546230EDCA559F3FCDDBEA2F6C7C33A0F7899C403D78DFB642F2 DUP10 DUP10 PUSH1 0x40 MLOAD PUSH2 0xAF7 SWAP3 SWAP2 SWAP1 PUSH2 0x320E JUMP JUMPDEST PUSH1 0x40 MLOAD DUP1 SWAP2 SUB SWAP1 LOG4 POP POP PUSH1 0x1 DUP1 DUP2 SWAP1 SSTORE POP POP POP POP POP POP POP JUMP JUMPDEST PUSH0 PUSH0 PUSH0 PUSH0 PUSH0 PUSH0 PUSH0 PUSH0 PUSH0 PUSH0 PUSH0 PUSH1 0x9 PUSH0 DUP14 DUP2 MSTORE PUSH1 0x20 ADD SWAP1 DUP2 MSTORE PUSH1 0x20 ADD PUSH0 KECCAK256 SWAP1 POP PUSH0 DUP2 PUSH1 0x4 ADD PUSH0 SWAP1 SLOAD SWAP1 PUSH2 0x100 EXP SWAP1 DIV PUSH8 0xFFFFFFFFFFFFFFFF AND PUSH8 0xFFFFFFFFFFFFFFFF AND EQ ISZERO SWAP11 POP DUP1 PUSH1 0x4 ADD PUSH1 0x8 SWAP1 SLOAD SWAP1 PUSH2 0x100 EXP SWAP1 DIV PUSH1 0xFF AND SWAP10 POP DUP1 PUSH1 0x4 ADD PUSH1 0x9 SWAP1 SLOAD SWAP1 PUSH2 0x100 EXP SWAP1 DIV PUSH1 0xFF AND SWAP9 POP DUP1 PUSH1 0x4 ADD PUSH0 SWAP1 SLOAD SWAP1 PUSH2 0x100 EXP SWAP1 DIV PUSH8 0xFFFFFFFFFFFFFFFF AND PUSH8 0xFFFFFFFFFFFFFFFF AND SWAP8 POP PUSH0 DUP2 PUSH1 0x4 ADD PUSH0 SWAP1 SLOAD SWAP1 PUSH2 0x100 EXP SWAP1 DIV PUSH8 0xFFFFFFFFFFFFFFFF AND PUSH8 0xFFFFFFFFFFFFFFFF AND EQ PUSH2 0xBFD JUMPI PUSH1 0x6 SLOAD DUP2 PUSH1 0x4 ADD PUSH0 SWAP1 SLOAD SWAP1 PUSH2 0x100 EXP SWAP1 DIV PUSH8 0xFFFFFFFFFFFFFFFF AND PUSH8 0xFFFFFFFFFFFFFFFF AND PUSH2 0xBF8 SWAP2 SWAP1 PUSH2 0x3262 JUMP JUMPDEST PUSH2 0xBFF JUMP JUMPDEST PUSH0 JUMPDEST SWAP7 POP DUP1 PUSH0 ADD SLOAD SWAP6 POP DUP1 PUSH1 0x1 ADD SLOAD SWAP5 POP DUP1 PUSH1 0x2 ADD SLOAD SWAP4 POP DUP1 PUSH1 0x3 ADD SLOAD SWAP3 POP DUP1 PUSH1 0x4 ADD PUSH1 0xA SWAP1 SLOAD SWAP1 PUSH2 0x100 EXP SWAP1 DIV PUSH20 0xFFFFFFFFFFFFFFFFFFFFFFFFFFFFFFFFFFFFFFFF AND SWAP2 POP POP SWAP2 SWAP4 SWAP6 SWAP8 SWAP10 POP SWAP2 SWAP4 SWAP6 SWAP8 SWAP10 JUMP JUMPDEST PUSH0 PUSH0 SWAP1 SLOAD SWAP1 PUSH2 0x100 EXP SWAP1 DIV PUSH20 0xFFFFFFFFFFFFFFFFFFFFFFFFFFFFFFFFFFFFFFFF AND PUSH20 0xFFFFFFFFFFFFFFFFFFFFFFFFFFFFFFFFFFFFFFFF AND CALLER PUSH20 0xFFFFFFFFFFFFFFFFFFFFFFFFFFFFFFFFFFFFFFFF AND EQ PUSH2 0xCDF JUMPI PUSH1 0x40 MLOAD PUSH32 0x8C379A000000000000000000000000000000000000000000000000000000000 DUP2 MSTORE PUSH1 0x4 ADD PUSH2 0xCD6 SWAP1 PUSH2 0x32DF JUMP JUMPDEST PUSH1 0x40 MLOAD DUP1 SWAP2 SUB SWAP1 REVERT JUMPDEST PUSH0 PUSH20 0xFFFFFFFFFFFFFFFFFFFFFFFFFFFFFFFFFFFFFFFF AND DUP2 PUSH20 0xFFFFFFFFFFFFFFFFFFFFFFFFFFFFFFFFFFFFFFFF AND SUB PUSH2 0xD4D JUMPI PUSH1 0x40 MLOAD PUSH32 0x8C379A000000000000000000000000000000000000000000000000000000000 DUP2 MSTORE PUSH1 0x4 ADD PUSH2 0xD44 SWAP1 PUSH2 0x3347 JUMP JUMPDEST PUSH1 0x40 MLOAD DUP1 SWAP2 SUB SWAP1 REVERT JUMPDEST DUP1 PUSH20 0xFFFFFFFFFFFFFFFFFFFFFFFFFFFFFFFFFFFFFFFF AND PUSH1 0x2 PUSH0 SWAP1 SLOAD SWAP1 PUSH2 0x100 EXP SWAP1 DIV PUSH20 0xFFFFFFFFFFFFFFFFFFFFFFFFFFFFFFFFFFFFFFFF AND PUSH20 0xFFFFFFFFFFFFFFFFFFFFFFFFFFFFFFFFFFFFFFFF AND PUSH32 0xCD58B762453BD126B48DB83F2CECD464F5281DD7E5E6824B528C09D0482984D6 PUSH1 0x40 MLOAD PUSH1 0x40 MLOAD DUP1 SWAP2 SUB SWAP1 LOG3 DUP1 PUSH1 0x2 PUSH0 PUSH2 0x100 EXP DUP2 SLOAD DUP2 PUSH20 0xFFFFFFFFFFFFFFFFFFFFFFFFFFFFFFFFFFFFFFFF MUL NOT AND SWAP1 DUP4 PUSH20 0xFFFFFFFFFFFFFFFFFFFFFFFFFFFFFFFFFFFFFFFF AND MUL OR SWAP1 SSTORE POP POP JUMP JUMPDEST PUSH0 PUSH1 0x14 SWAP1 SLOAD SWAP1 PUSH2 0x100 EXP SWAP1 DIV PUSH1 0xFF AND ISZERO PUSH2 0xE5A JUMPI PUSH1 0x40 MLOAD PUSH32 0x8C379A000000000000000000000000000000000000000000000000000000000 DUP2 MSTORE PUSH1 0x4 ADD PUSH2 0xE51 SWAP1 PUSH2 0x3019 JUMP JUMPDEST PUSH1 0x40 MLOAD DUP1 SWAP2 SUB SWAP1 REVERT JUMPDEST PUSH1 0x1 DUP1 SLOAD EQ PUSH2 0xE9E JUMPI PUSH1 0x40 MLOAD PUSH32 0x8C379A000000000000000000000000000000000000000000000000000000000 DUP2 MSTORE PUSH1 0x4 ADD PUSH2 0xE95 SWAP1 PUSH2 0x3081 JUMP JUMPDEST PUSH1 0x40 MLOAD DUP1 SWAP2 SUB SWAP1 REVERT JUMPDEST PUSH1 0x2 PUSH1 0x1 DUP2 SWAP1 SSTORE POP DUP1 PUSH1 0x7 PUSH0 CALLER PUSH20 0xFFFFFFFFFFFFFFFFFFFFFFFFFFFFFFFFFFFFFFFF AND PUSH20 0xFFFFFFFFFFFFFFFFFFFFFFFFFFFFFFFFFFFFFFFF AND DUP2 MSTORE PUSH1 0x20 ADD SWAP1 DUP2 MSTORE PUSH1 0x20 ADD PUSH0 KECCAK256 SLOAD LT ISZERO PUSH2 0xF26 JUMPI PUSH1 0x40 MLOAD PUSH32 0x8C379A000000000000000000000000000000000000000000000000000000000 DUP2 MSTORE PUSH1 0x4 ADD PUSH2 0xF1D SWAP1 PUSH2 0x33AF JUMP JUMPDEST PUSH1 0x40 MLOAD DUP1 SWAP2 SUB SWAP1 REVERT JUMPDEST DUP1 PUSH1 0x7 PUSH0 CALLER PUSH20 0xFFFFFFFFFFFFFFFFFFFFFFFFFFFFFFFFFFFFFFFF AND PUSH20 0xFFFFFFFFFFFFFFFFFFFFFFFFFFFFFFFFFFFFFFFF AND DUP2 MSTORE PUSH1 0x20 ADD SWAP1 DUP2 MSTORE PUSH1 0x20 ADD PUSH0 KECCAK256 PUSH0 DUP3 DUP3 SLOAD PUSH2 0xF72 SWAP2 SWAP1 PUSH2 0x33CD JUMP JUMPDEST SWAP3 POP POP DUP2 SWAP1 SSTORE POP PUSH0 CALLER PUSH20 0xFFFFFFFFFFFFFFFFFFFFFFFFFFFFFFFFFFFFFFFF AND DUP3 PUSH1 0x40 MLOAD PUSH2 0xF9E SWAP1 PUSH2 0x317E JUMP JUMPDEST PUSH0 PUSH1 0x40 MLOAD DUP1 DUP4 SUB DUP2 DUP6 DUP8 GAS CALL SWAP3 POP POP POP RETURNDATASIZE DUP1 PUSH0 DUP2 EQ PUSH2 0xFD8 JUMPI PUSH1 0x40 MLOAD SWAP2 POP PUSH1 0x1F NOT PUSH1 0x3F RETURNDATASIZE ADD AND DUP3 ADD PUSH1 0x40 MSTORE RETURNDATASIZE DUP3 MSTORE RETURNDATASIZE PUSH0 PUSH1 0x20 DUP5 ADD RETURNDATACOPY PUSH2 0xFDD JUMP JUMPDEST PUSH1 0x60 SWAP2 POP JUMPDEST POP POP SWAP1 POP DUP1 PUSH2 0x1018 JUMPI PUSH1 0x40 MLOAD PUSH32 0x90B8EC1800000000000000000000000000000000000000000000000000000000 DUP2 MSTORE PUSH1 0x4 ADD PUSH1 0x40 MLOAD DUP1 SWAP2 SUB SWAP1 REVERT JUMPDEST CALLER PUSH20 0xFFFFFFFFFFFFFFFFFFFFFFFFFFFFFFFFFFFFFFFF AND PUSH32 0xD24DBF5E9299CE53C3AA9F7227FF1CC8441C2FAAE04509AA370CA3703385D6B4 DUP4 PUSH1 0x40 MLOAD PUSH2 0x105E SWAP2 SWAP1 PUSH2 0x2C51 JUMP JUMPDEST PUSH1 0x40 MLOAD DUP1 SWAP2 SUB SWAP1 LOG2 POP PUSH1 0x1 DUP1 DUP2 SWAP1 SSTORE POP POP JUMP JUMPDEST PUSH0 PUSH0 SWAP1 SLOAD SWAP1 PUSH2 0x100 EXP SWAP1 DIV PUSH20 0xFFFFFFFFFFFFFFFFFFFFFFFFFFFFFFFFFFFFFFFF AND PUSH20 0xFFFFFFFFFFFFFFFFFFFFFFFFFFFFFFFFFFFFFFFF AND CALLER PUSH20 0xFFFFFFFFFFFFFFFFFFFFFFFFFFFFFFFFFFFFFFFF AND EQ PUSH2 0x10FF JUMPI PUSH1 0x40 MLOAD PUSH32 0x8C379A000000000000000000000000000000000000000000000000000000000 DUP2 MSTORE PUSH1 0x4 ADD PUSH2 0x10F6 SWAP1 PUSH2 0x32DF JUMP JUMPDEST PUSH1 0x40 MLOAD DUP1 SWAP2 SUB SWAP1 REVERT JUMPDEST PUSH0 PUSH0 PUSH1 0x14 PUSH2 0x100 EXP DUP2 SLOAD DUP2 PUSH1 0xFF MUL NOT AND SWAP1 DUP4 ISZERO ISZERO MUL OR SWAP1 SSTORE POP CALLER PUSH20 0xFFFFFFFFFFFFFFFFFFFFFFFFFFFFFFFFFFFFFFFF AND PUSH32 0x5DB9EE0A495BF2E6FF9C91A7834C1BA4FDD244A5E8AA4E537BD38AEAE4B073AA PUSH1 0x40 MLOAD PUSH1 0x40 MLOAD DUP1 SWAP2 SUB SWAP1 LOG2 JUMP JUMPDEST PUSH1 0x8 SLOAD DUP2 JUMP JUMPDEST PUSH1 0xC PUSH1 0x20 MSTORE DUP2 PUSH0 MSTORE PUSH1 0x40 PUSH0 KECCAK256 PUSH1 0x20 MSTORE DUP1 PUSH0 MSTORE PUSH1 0x40 PUSH0 KECCAK256 PUSH0 SWAP2 POP SWAP2 POP SWAP1 SLOAD SWAP1 PUSH2 0x100 EXP SWAP1 DIV PUSH1 0xFF AND DUP2 JUMP JUMPDEST PUSH0 PUSH0 SWAP1 SLOAD SWAP1 PUSH2 0x100 EXP SWAP1 DIV PUSH20 0xFFFFFFFFFFFFFFFFFFFFFFFFFFFFFFFFFFFFFFFF AND PUSH20 0xFFFFFFFFFFFFFFFFFFFFFFFFFFFFFFFFFFFFFFFF AND CALLER PUSH20 0xFFFFFFFFFFFFFFFFFFFFFFFFFFFFFFFFFFFFFFFF AND EQ PUSH2 0x121B JUMPI PUSH1 0x40 MLOAD PUSH32 0x8C379A000000000000000000000000000000000000000000000000000000000 DUP2 MSTORE PUSH1 0x4 ADD PUSH2 0x1212 SWAP1 PUSH2 0x32DF JUMP JUMPDEST PUSH1 0x40 MLOAD DUP1 SWAP2 SUB SWAP1 REVERT JUMPDEST DUP3 PUSH1 0x6 DUP2 SWAP1 SSTORE POP DUP2 PUSH1 0x4 DUP2 SWAP1 SSTORE POP DUP1 PUSH1 0x5 DUP2 SWAP1 SSTORE POP PUSH32 0xCBA168CFA7900657E5F8CC53D6F52EBBFA3A9F568941B465CC4F731C60C95B2 DUP4 DUP4 DUP4 PUSH1 0x40 MLOAD PUSH2 0x1263 SWAP4 SWAP3 SWAP2 SWAP1 PUSH2 0x3400 JUMP JUMPDEST PUSH1 0x40 MLOAD DUP1 SWAP2 SUB SWAP1 LOG1 POP POP POP JUMP JUMPDEST PUSH1 0x3 PUSH0 SWAP1 SLOAD SWAP1 PUSH2 0x100 EXP SWAP1 DIV PUSH20 0xFFFFFFFFFFFFFFFFFFFFFFFFFFFFFFFFFFFFFFFF AND DUP2 JUMP JUMPDEST PUSH1 0x2 PUSH0 SWAP1 SLOAD SWAP1 PUSH2 0x100 EXP SWAP1 DIV PUSH20 0xFFFFFFFFFFFFFFFFFFFFFFFFFFFFFFFFFFFFFFFF AND DUP2 JUMP JUMPDEST PUSH0 PUSH1 0x14 SWAP1 SLOAD SWAP1 PUSH2 0x100 EXP SWAP1 DIV PUSH1 0xFF AND DUP2 JUMP JUMPDEST PUSH0 PUSH1 0x14 SWAP1 SLOAD SWAP1 PUSH2 0x100 EXP SWAP1 DIV PUSH1 0xFF AND ISZERO PUSH2 0x131B JUMPI PUSH1 0x40 MLOAD PUSH32 0x8C379A000000000000000000000000000000000000000000000000000000000 DUP2 MSTORE PUSH1 0x4 ADD PUSH2 0x1312 SWAP1 PUSH2 0x3019 JUMP JUMPDEST PUSH1 0x40 MLOAD DUP1 SWAP2 SUB SWAP1 REVERT JUMPDEST PUSH0 CALLVALUE SUB PUSH2 0x1354 JUMPI PUSH1 0x40 MLOAD PUSH32 0x1F2A200500000000000000000000000000000000000000000000000000000000 DUP2 MSTORE PUSH1 0x4 ADD PUSH1 0x40 MLOAD DUP1 SWAP2 SUB SWAP1 REVERT JUMPDEST CALLVALUE PUSH1 0x7 PUSH0 CALLER PUSH20 0xFFFFFFFFFFFFFFFFFFFFFFFFFFFFFFFFFFFFFFFF AND PUSH20 0xFFFFFFFFFFFFFFFFFFFFFFFFFFFFFFFFFFFFFFFF AND DUP2 MSTORE PUSH1 0x20 ADD SWAP1 DUP2 MSTORE PUSH1 0x20 ADD PUSH0 KECCAK256 PUSH0 DUP3 DUP3 SLOAD PUSH2 0x13A0 SWAP2 SWAP1 PUSH2 0x3262 JUMP JUMPDEST SWAP3 POP POP DUP2 SWAP1 SSTORE POP CALLER PUSH20 0xFFFFFFFFFFFFFFFFFFFFFFFFFFFFFFFFFFFFFFFF AND PUSH32 0xD0A009034E24A39106653C4903CF28B1947B8A9964D03206648E0F0A5DE74A46 CALLVALUE PUSH1 0x40 MLOAD PUSH2 0x13ED SWAP2 SWAP1 PUSH2 0x2C51 JUMP JUMPDEST PUSH1 0x40 MLOAD DUP1 SWAP2 SUB SWAP1 LOG2 JUMP JUMPDEST PUSH0 PUSH1 0x14 SWAP1 SLOAD SWAP1 PUSH2 0x100 EXP SWAP1 DIV PUSH1 0xFF AND ISZERO PUSH2 0x1446 JUMPI PUSH1 0x40 MLOAD PUSH32 0x8C379A000000000000000000000000000000000000000000000000000000000 DUP2 MSTORE PUSH1 0x4 ADD PUSH2 0x143D SWAP1 PUSH2 0x3019 JUMP JUMPDEST PUSH1 0x40 MLOAD DUP1 SWAP2 SUB SWAP1 REVERT JUMPDEST PUSH1 0x2 PUSH0 SWAP1 SLOAD SWAP1 PUSH2 0x100 EXP SWAP1 DIV PUSH20 0xFFFFFFFFFFFFFFFFFFFFFFFFFFFFFFFFFFFFFFFF AND PUSH20 0xFFFFFFFFFFFFFFFFFFFFFFFFFFFFFFFFFFFFFFFF AND CALLER PUSH20 0xFFFFFFFFFFFFFFFFFFFFFFFFFFFFFFFFFFFFFFFF AND EQ PUSH2 0x14CC JUMPI PUSH1 0x40 MLOAD PUSH32 0x53E2827C00000000000000000000000000000000000000000000000000000000 DUP2 MSTORE PUSH1 0x4 ADD PUSH1 0x40 MLOAD DUP1 SWAP2 SUB SWAP1 REVERT JUMPDEST PUSH1 0x4 SLOAD PUSH1 0x7 PUSH0 CALLER PUSH20 0xFFFFFFFFFFFFFFFFFFFFFFFFFFFFFFFFFFFFFFFF AND PUSH20 0xFFFFFFFFFFFFFFFFFFFFFFFFFFFFFFFFFFFFFFFF AND DUP2 MSTORE PUSH1 0x20 ADD SWAP1 DUP2 MSTORE PUSH1 0x20 ADD PUSH0 KECCAK256 SLOAD LT ISZERO PUSH2 0x154E JUMPI PUSH1 0x40 MLOAD PUSH32 0x8C379A000000000000000000000000000000000000000000000000000000000 DUP2 MSTORE PUSH1 0x4 ADD PUSH2 0x1545 SWAP1 PUSH2 0x347F JUMP JUMPDEST PUSH1 0x40 MLOAD DUP1 SWAP2 SUB SWAP1 REVERT JUMPDEST PUSH0 PUSH0 SHL DUP4 SUB PUSH2 0x1589 JUMPI PUSH1 0x40 MLOAD PUSH32 0x86BDC25C00000000000000000000000000000000000000000000000000000000 DUP2 MSTORE PUSH1 0x4 ADD PUSH1 0x40 MLOAD DUP1 SWAP2 SUB SWAP1 REVERT JUMPDEST PUSH0 PUSH0 SHL DUP3 SUB PUSH2 0x15C4 JUMPI PUSH1 0x40 MLOAD PUSH32 0x86BDC25C00000000000000000000000000000000000000000000000000000000 DUP2 MSTORE PUSH1 0x4 ADD PUSH1 0x40 MLOAD DUP1 SWAP2 SUB SWAP1 REVERT JUMPDEST PUSH0 PUSH1 0x8 PUSH0 DUP2 SLOAD PUSH2 0x15D3 SWAP1 PUSH2 0x349D JUMP JUMPDEST SWAP2 SWAP1 POP DUP2 SWAP1 SSTORE SWAP1 POP PUSH0 PUSH1 0x9 PUSH0 DUP4 DUP2 MSTORE PUSH1 0x20 ADD SWAP1 DUP2 MSTORE PUSH1 0x20 ADD PUSH0 KECCAK256 SWAP1 POP PUSH1 0xA SLOAD DUP2 PUSH0 ADD DUP2 SWAP1 SSTORE POP DUP5 DUP2 PUSH1 0x1 ADD DUP2 SWAP1 SSTORE POP DUP4 DUP2 PUSH1 0x2 ADD DUP2 SWAP1 SSTORE POP DUP3 DUP2 PUSH1 0x3 ADD DUP2 SWAP1 SSTORE POP TIMESTAMP DUP2 PUSH1 0x4 ADD PUSH0 PUSH2 0x100 EXP DUP2 SLOAD DUP2 PUSH8 0xFFFFFFFFFFFFFFFF MUL NOT AND SWAP1 DUP4 PUSH8 0xFFFFFFFFFFFFFFFF AND MUL OR SWAP1 SSTORE POP DUP1 PUSH1 0x1 ADD SLOAD DUP2 PUSH0 ADD SLOAD DUP4 PUSH32 0x65300CE317AB79E5474EEFCB0C14E8D429B3E59746933DBB8E07F051347C4190 DUP8 DUP8 PUSH1 0x40 MLOAD PUSH2 0x1679 SWAP3 SWAP2 SWAP1 PUSH2 0x34E4 JUMP JUMPDEST PUSH1 0x40 MLOAD DUP1 SWAP2 SUB SWAP1 LOG4 DUP5 PUSH1 0xA DUP2 SWAP1 SSTORE POP POP POP POP POP POP JUMP JUMPDEST PUSH1 0x5 SLOAD DUP2 JUMP JUMPDEST PUSH0 PUSH1 0x14 SWAP1 SLOAD SWAP1 PUSH2 0x100 EXP SWAP1 DIV PUSH1 0xFF AND ISZERO PUSH2 0x16E4 JUMPI PUSH1 0x40 MLOAD PUSH32 0x8C379A000000000000000000000000000000000000000000000000000000000 DUP2 MSTORE PUSH1 0x4 ADD PUSH2 0x16DB SWAP1 PUSH2 0x3019 JUMP JUMPDEST PUSH1 0x40 MLOAD DUP1 SWAP2 SUB SWAP1 REVERT JUMPDEST PUSH0 PUSH1 0x9 PUSH0 DUP6 DUP2 MSTORE PUSH1 0x20 ADD SWAP1 DUP2 MSTORE PUSH1 0x20 ADD PUSH0 KECCAK256 SWAP1 POP PUSH0 DUP2 PUSH1 0x4 ADD PUSH0 SWAP1 SLOAD SWAP1 PUSH2 0x100 EXP SWAP1 DIV PUSH8 0xFFFFFFFFFFFFFFFF AND PUSH8 0xFFFFFFFFFFFFFFFF AND SUB PUSH2 0x1752 JUMPI PUSH1 0x40 MLOAD PUSH32 0x9E15E1BC00000000000000000000000000000000000000000000000000000000 DUP2 MSTORE PUSH1 0x4 ADD PUSH1 0x40 MLOAD DUP1 SWAP2 SUB SWAP1 REVERT JUMPDEST DUP1 PUSH1 0x4 ADD PUSH1 0x8 SWAP1 SLOAD SWAP1 PUSH2 0x100 EXP SWAP1 DIV PUSH1 0xFF AND PUSH2 0x179A JUMPI PUSH1 0x40 MLOAD PUSH32 0xD44BE46E00000000000000000000000000000000000000000000000000000000 DUP2 MSTORE PUSH1 0x4 ADD PUSH1 0x40 MLOAD DUP1 SWAP2 SUB SWAP1 REVERT JUMPDEST DUP1 PUSH1 0x4 ADD PUSH1 0x9 SWAP1 SLOAD SWAP1 PUSH2 0x100 EXP SWAP1 DIV PUSH1 0xFF AND ISZERO PUSH2 0x17E3 JUMPI PUSH1 0x40 MLOAD PUSH32 0x8A66D60700000000000000000000000000000000000000000000000000000000 DUP2 MSTORE PUSH1 0x4 ADD PUSH1 0x40 MLOAD DUP1 SWAP2 SUB SWAP1 REVERT JUMPDEST DUP1 PUSH1 0x4 ADD PUSH1 0xA SWAP1 SLOAD SWAP1 PUSH2 0x100 EXP SWAP1 DIV PUSH20 0xFFFFFFFFFFFFFFFFFFFFFFFFFFFFFFFFFFFFFFFF AND PUSH20 0xFFFFFFFFFFFFFFFFFFFFFFFFFFFFFFFFFFFFFFFF AND CALLER PUSH20 0xFFFFFFFFFFFFFFFFFFFFFFFFFFFFFFFFFFFFFFFF AND EQ ISZERO DUP1 ISZERO PUSH2 0x188F JUMPI POP PUSH0 PUSH0 SWAP1 SLOAD SWAP1 PUSH2 0x100 EXP SWAP1 DIV PUSH20 0xFFFFFFFFFFFFFFFFFFFFFFFFFFFFFFFFFFFFFFFF AND PUSH20 0xFFFFFFFFFFFFFFFFFFFFFFFFFFFFFFFFFFFFFFFF AND CALLER PUSH20 0xFFFFFFFFFFFFFFFFFFFFFFFFFFFFFFFFFFFFFFFF AND EQ ISZERO JUMPDEST ISZERO PUSH2 0x18C6 JUMPI PUSH1 0x40 MLOAD PUSH32 0xD44BE46E00000000000000000000000000000000000000000000000000000000 DUP2 MSTORE PUSH1 0x4 ADD PUSH1 0x40 MLOAD DUP1 SWAP2 SUB SWAP1 REVERT JUMPDEST PUSH0 PUSH20 0xFFFFFFFFFFFFFFFFFFFFFFFFFFFFFFFFFFFFFFFF AND PUSH1 0x3 PUSH0 SWAP1 SLOAD SWAP1 PUSH2 0x100 EXP SWAP1 DIV PUSH20 0xFFFFFFFFFFFFFFFFFFFFFFFFFFFFFFFFFFFFFFFF AND PUSH20 0xFFFFFFFFFFFFFFFFFFFFFFFFFFFFFFFFFFFFFFFF AND SUB PUSH2 0x194C JUMPI PUSH1 0x40 MLOAD PUSH32 0x9BDE33900000000000000000000000000000000000000000000000000000000 DUP2 MSTORE PUSH1 0x4 ADD PUSH1 0x40 MLOAD DUP1 SWAP2 SUB SWAP1 REVERT JUMPDEST PUSH0 PUSH1 0x3 PUSH0 SWAP1 SLOAD SWAP1 PUSH2 0x100 EXP SWAP1 DIV PUSH20 0xFFFFFFFFFFFFFFFFFFFFFFFFFFFFFFFFFFFFFFFF AND PUSH20 0xFFFFFFFFFFFFFFFFFFFFFFFFFFFFFFFFFFFFFFFF AND PUSH4 0x8606D488 DUP6 DUP6 DUP6 PUSH1 0x2 ADD SLOAD DUP7 PUSH0 ADD SLOAD DUP8 PUSH1 0x1 ADD SLOAD PUSH1 0x40 MLOAD DUP7 PUSH4 0xFFFFFFFF AND PUSH1 0xE0 SHL DUP2 MSTORE PUSH1 0x4 ADD PUSH2 0x19BA SWAP6 SWAP5 SWAP4 SWAP3 SWAP2 SWAP1 PUSH2 0x3565 JUMP JUMPDEST PUSH1 0x20 PUSH1 0x40 MLOAD DUP1 DUP4 SUB DUP2 DUP7 GAS STATICCALL ISZERO DUP1 ISZERO PUSH2 0x19D5 JUMPI RETURNDATASIZE PUSH0 PUSH0 RETURNDATACOPY RETURNDATASIZE PUSH0 REVERT JUMPDEST POP POP POP POP PUSH1 0x40 MLOAD RETURNDATASIZE PUSH1 0x1F NOT PUSH1 0x1F DUP3 ADD AND DUP3 ADD DUP1 PUSH1 0x40 MSTORE POP DUP2 ADD SWAP1 PUSH2 0x19F9 SWAP2 SWAP1 PUSH2 0x31E3 JUMP JUMPDEST SWAP1 POP DUP1 ISZERO PUSH2 0x1B7D JUMPI PUSH0 PUSH1 0x2 PUSH1 0x4 SLOAD PUSH2 0x1A11 SWAP2 SWAP1 PUSH2 0x35DE JUMP JUMPDEST SWAP1 POP PUSH0 PUSH1 0x7 PUSH0 PUSH1 0x2 PUSH0 SWAP1 SLOAD SWAP1 PUSH2 0x100 EXP SWAP1 DIV PUSH20 0xFFFFFFFFFFFFFFFFFFFFFFFFFFFFFFFFFFFFFFFF AND PUSH20 0xFFFFFFFFFFFFFFFFFFFFFFFFFFFFFFFFFFFFFFFF AND PUSH20 0xFFFFFFFFFFFFFFFFFFFFFFFFFFFFFFFFFFFFFFFF AND DUP2 MSTORE PUSH1 0x20 ADD SWAP1 DUP2 MSTORE PUSH1 0x20 ADD PUSH0 KECCAK256 SLOAD SWAP1 POP PUSH0 DUP2 DUP4 GT PUSH2 0x1A83 JUMPI DUP3 PUSH2 0x1A85 JUMP JUMPDEST DUP2 JUMPDEST SWAP1 POP PUSH0 DUP2 GT ISZERO PUSH2 0x1B75 JUMPI DUP1 DUP3 PUSH2 0x1A9B SWAP2 SWAP1 PUSH2 0x33CD JUMP JUMPDEST PUSH1 0x7 PUSH0 PUSH1 0x2 PUSH0 SWAP1 SLOAD SWAP1 PUSH2 0x100 EXP SWAP1 DIV PUSH20 0xFFFFFFFFFFFFFFFFFFFFFFFFFFFFFFFFFFFFFFFF AND PUSH20 0xFFFFFFFFFFFFFFFFFFFFFFFFFFFFFFFFFFFFFFFF AND PUSH20 0xFFFFFFFFFFFFFFFFFFFFFFFFFFFFFFFFFFFFFFFF AND DUP2 MSTORE PUSH1 0x20 ADD SWAP1 DUP2 MSTORE PUSH1 0x20 ADD PUSH0 KECCAK256 DUP2 SWAP1 SSTORE POP DUP1 PUSH1 0x7 PUSH0 DUP8 PUSH1 0x4 ADD PUSH1 0xA SWAP1 SLOAD SWAP1 PUSH2 0x100 EXP SWAP1 DIV PUSH20 0xFFFFFFFFFFFFFFFFFFFFFFFFFFFFFFFFFFFFFFFF AND PUSH20 0xFFFFFFFFFFFFFFFFFFFFFFFFFFFFFFFFFFFFFFFF AND PUSH20 0xFFFFFFFFFFFFFFFFFFFFFFFFFFFFFFFFFFFFFFFF AND DUP2 MSTORE PUSH1 0x20 ADD SWAP1 DUP2 MSTORE PUSH1 0x20 ADD PUSH0 KECCAK256 PUSH0 DUP3 DUP3 SLOAD PUSH2 0x1B6D SWAP2 SWAP1 PUSH2 0x3262 JUMP JUMPDEST SWAP3 POP POP DUP2 SWAP1 SSTORE POP JUMPDEST POP POP POP PUSH2 0x1C7D JUMP JUMPDEST PUSH0 PUSH1 0xA PUSH1 0x5 SLOAD PUSH2 0x1B8D SWAP2 SWAP1 PUSH2 0x35DE JUMP JUMPDEST SWAP1 POP PUSH0 PUSH1 0x7 PUSH0 DUP6 PUSH1 0x4 ADD PUSH1 0xA SWAP1 SLOAD SWAP1 PUSH2 0x100 EXP SWAP1 DIV PUSH20 0xFFFFFFFFFFFFFFFFFFFFFFFFFFFFFFFFFFFFFFFF AND PUSH20 0xFFFFFFFFFFFFFFFFFFFFFFFFFFFFFFFFFFFFFFFF AND PUSH20 0xFFFFFFFFFFFFFFFFFFFFFFFFFFFFFFFFFFFFFFFF AND DUP2 MSTORE PUSH1 0x20 ADD SWAP1 DUP2 MSTORE PUSH1 0x20 ADD PUSH0 KECCAK256 SLOAD SWAP1 POP PUSH0 DUP3 GT DUP1 ISZERO PUSH2 0x1C03 JUMPI POP DUP2 DUP2 LT ISZERO JUMPDEST ISZERO PUSH2 0x1C7A JUMPI DUP2 DUP2 PUSH2 0x1C14 SWAP2 SWAP1 PUSH2 0x33CD JUMP JUMPDEST PUSH1 0x7 PUSH0 DUP7 PUSH1 0x4 ADD PUSH1 0xA SWAP1 SLOAD SWAP1 PUSH2 0x100 EXP SWAP1 DIV PUSH20 0xFFFFFFFFFFFFFFFFFFFFFFFFFFFFFFFFFFFFFFFF AND PUSH20 0xFFFFFFFFFFFFFFFFFFFFFFFFFFFFFFFFFFFFFFFF AND PUSH20 0xFFFFFFFFFFFFFFFFFFFFFFFFFFFFFFFFFFFFFFFF AND DUP2 MSTORE PUSH1 0x20 ADD SWAP1 DUP2 MSTORE PUSH1 0x20 ADD PUSH0 KECCAK256 DUP2 SWAP1 SSTORE POP JUMPDEST POP POP JUMPDEST PUSH0 DUP3 PUSH1 0x4 ADD PUSH1 0x8 PUSH2 0x100 EXP DUP2 SLOAD DUP2 PUSH1 0xFF MUL NOT AND SWAP1 DUP4 ISZERO ISZERO MUL OR SWAP1 SSTORE POP DUP5 PUSH32 0x1C13286911EA61AB9E07CF462B69B2C12954593A03380A618AFDF62D227021AE DUP3 PUSH1 0x40 MLOAD PUSH2 0x1CC9 SWAP2 SWAP1 PUSH2 0x2CD2 JUMP JUMPDEST PUSH1 0x40 MLOAD DUP1 SWAP2 SUB SWAP1 LOG2 POP POP POP POP POP JUMP JUMPDEST PUSH0 PUSH0 SWAP1 SLOAD SWAP1 PUSH2 0x100 EXP SWAP1 DIV PUSH20 0xFFFFFFFFFFFFFFFFFFFFFFFFFFFFFFFFFFFFFFFF AND PUSH20 0xFFFFFFFFFFFFFFFFFFFFFFFFFFFFFFFFFFFFFFFF AND CALLER PUSH20 0xFFFFFFFFFFFFFFFFFFFFFFFFFFFFFFFFFFFFFFFF AND EQ PUSH2 0x1D66 JUMPI PUSH1 0x40 MLOAD PUSH32 0x8C379A000000000000000000000000000000000000000000000000000000000 DUP2 MSTORE PUSH1 0x4 ADD PUSH2 0x1D5D SWAP1 PUSH2 0x32DF JUMP JUMPDEST PUSH1 0x40 MLOAD DUP1 SWAP2 SUB SWAP1 REVERT JUMPDEST PUSH1 0x1 PUSH0 PUSH1 0x14 PUSH2 0x100 EXP DUP2 SLOAD DUP2 PUSH1 0xFF MUL NOT AND SWAP1 DUP4 ISZERO ISZERO MUL OR SWAP1 SSTORE POP CALLER PUSH20 0xFFFFFFFFFFFFFFFFFFFFFFFFFFFFFFFFFFFFFFFF AND PUSH32 0x62E78CEA01BEE320CD4E420270B5EA74000D11B0C9F74754EBDBFC544B05A258 PUSH1 0x40 MLOAD PUSH1 0x40 MLOAD DUP1 SWAP2 SUB SWAP1 LOG2 JUMP JUMPDEST PUSH1 0x6 SLOAD DUP2 JUMP JUMPDEST PUSH0 PUSH0 SWAP1 SLOAD SWAP1 PUSH2 0x100 EXP SWAP1 DIV PUSH20 0xFFFFFFFFFFFFFFFFFFFFFFFFFFFFFFFFFFFFFFFF AND DUP2 JUMP JUMPDEST PUSH0 PUSH1 0x14 SWAP1 SLOAD SWAP1 PUSH2 0x100 EXP SWAP1 DIV PUSH1 0xFF AND ISZERO PUSH2 0x1E3E JUMPI PUSH1 0x40 MLOAD PUSH32 0x8C379A000000000000000000000000000000000000000000000000000000000 DUP2 MSTORE PUSH1 0x4 ADD PUSH2 0x1E35 SWAP1 PUSH2 0x3019 JUMP JUMPDEST PUSH1 0x40 MLOAD DUP1 SWAP2 SUB SWAP1 REVERT JUMPDEST PUSH0 PUSH1 0x9 PUSH0 DUP4 DUP2 MSTORE PUSH1 0x20 ADD SWAP1 DUP2 MSTORE PUSH1 0x20 ADD PUSH0 KECCAK256 SWAP1 POP PUSH0 DUP2 PUSH1 0x4 ADD PUSH0 SWAP1 SLOAD SWAP1 PUSH2 0x100 EXP SWAP1 DIV PUSH8 0xFFFFFFFFFFFFFFFF AND PUSH8 0xFFFFFFFFFFFFFFFF AND SUB PUSH2 0x1EAC JUMPI PUSH1 0x40 MLOAD PUSH32 0x9E15E1BC00000000000000000000000000000000000000000000000000000000 DUP2 MSTORE PUSH1 0x4 ADD PUSH1 0x40 MLOAD DUP1 SWAP2 SUB SWAP1 REVERT JUMPDEST DUP1 PUSH1 0x4 ADD PUSH1 0x9 SWAP1 SLOAD SWAP1 PUSH2 0x100 EXP SWAP1 DIV PUSH1 0xFF AND ISZERO PUSH2 0x1EF5 JUMPI PUSH1 0x40 MLOAD PUSH32 0x8A66D60700000000000000000000000000000000000000000000000000000000 DUP2 MSTORE PUSH1 0x4 ADD PUSH1 0x40 MLOAD DUP1 SWAP2 SUB SWAP1 REVERT JUMPDEST DUP1 PUSH1 0x4 ADD PUSH1 0x8 SWAP1 SLOAD SWAP1 PUSH2 0x100 EXP SWAP1 DIV PUSH1 0xFF AND ISZERO PUSH2 0x1F3E JUMPI PUSH1 0x40 MLOAD PUSH32 0xF1082A9300000000000000000000000000000000000000000000000000000000 DUP2 MSTORE PUSH1 0x4 ADD PUSH1 0x40 MLOAD DUP1 SWAP2 SUB SWAP1 REVERT JUMPDEST PUSH1 0x6 SLOAD DUP2 PUSH1 0x4 ADD PUSH0 SWAP1 SLOAD SWAP1 PUSH2 0x100 EXP SWAP1 DIV PUSH8 0xFFFFFFFFFFFFFFFF AND PUSH8 0xFFFFFFFFFFFFFFFF AND PUSH2 0x1F6D SWAP2 SWAP1 PUSH2 0x3262 JUMP JUMPDEST TIMESTAMP GT ISZERO PUSH2 0x1FA6 JUMPI PUSH1 0x40 MLOAD PUSH32 0xF541751000000000000000000000000000000000000000000000000000000000 DUP2 MSTORE PUSH1 0x4 ADD PUSH1 0x40 MLOAD DUP1 SWAP2 SUB SWAP1 REVERT JUMPDEST PUSH1 0x5 SLOAD PUSH1 0x7 PUSH0 CALLER PUSH20 0xFFFFFFFFFFFFFFFFFFFFFFFFFFFFFFFFFFFFFFFF AND PUSH20 0xFFFFFFFFFFFFFFFFFFFFFFFFFFFFFFFFFFFFFFFF AND DUP2 MSTORE PUSH1 0x20 ADD SWAP1 DUP2 MSTORE PUSH1 0x20 ADD PUSH0 KECCAK256 SLOAD LT ISZERO PUSH2 0x2028 JUMPI PUSH1 0x40 MLOAD PUSH32 0x8C379A000000000000000000000000000000000000000000000000000000000 DUP2 MSTORE PUSH1 0x4 ADD PUSH2 0x201F SWAP1 PUSH2 0x3658 JUMP JUMPDEST PUSH1 0x40 MLOAD DUP1 SWAP2 SUB SWAP1 REVERT JUMPDEST PUSH1 0x1 DUP2 PUSH1 0x4 ADD PUSH1 0x8 PUSH2 0x100 EXP DUP2 SLOAD DUP2 PUSH1 0xFF MUL NOT AND SWAP1 DUP4 ISZERO ISZERO MUL OR SWAP1 SSTORE POP CALLER DUP2 PUSH1 0x4 ADD PUSH1 0xA PUSH2 0x100 EXP DUP2 SLOAD DUP2 PUSH20 0xFFFFFFFFFFFFFFFFFFFFFFFFFFFFFFFFFFFFFFFF MUL NOT AND SWAP1 DUP4 PUSH20 0xFFFFFFFFFFFFFFFFFFFFFFFFFFFFFFFFFFFFFFFF AND MUL OR SWAP1 SSTORE POP CALLER PUSH20 0xFFFFFFFFFFFFFFFFFFFFFFFFFFFFFFFFFFFFFFFF AND DUP3 PUSH32 0x341905ABD65F49EB35219139A0CCDCE4A6D57D73972347DB266F11ADCB5A8C89 PUSH1 0x40 MLOAD PUSH1 0x40 MLOAD DUP1 SWAP2 SUB SWAP1 LOG3 POP POP JUMP JUMPDEST PUSH0 PUSH1 0x14 SWAP1 SLOAD SWAP1 PUSH2 0x100 EXP SWAP1 DIV PUSH1 0xFF AND ISZERO PUSH2 0x211F JUMPI PUSH1 0x40 MLOAD PUSH32 0x8C379A000000000000000000000000000000000000000000000000000000000 DUP2 MSTORE PUSH1 0x4 ADD PUSH2 0x2116 SWAP1 PUSH2 0x3019 JUMP JUMPDEST PUSH1 0x40 MLOAD DUP1 SWAP2 SUB SWAP1 REVERT JUMPDEST PUSH0 DUP2 SUB PUSH2 0x2158 JUMPI PUSH1 0x40 MLOAD PUSH32 0x1F2A200500000000000000000000000000000000000000000000000000000000 DUP2 MSTORE PUSH1 0x4 ADD PUSH1 0x40 MLOAD DUP1 SWAP2 SUB SWAP1 REVERT JUMPDEST PUSH0 DUP3 PUSH20 0xFFFFFFFFFFFFFFFFFFFFFFFFFFFFFFFFFFFFFFFF AND PUSH4 0x23B872DD CALLER ADDRESS DUP6 PUSH1 0x40 MLOAD DUP5 PUSH4 0xFFFFFFFF AND PUSH1 0xE0 SHL DUP2 MSTORE PUSH1 0x4 ADD PUSH2 0x2196 SWAP4 SWAP3 SWAP2 SWAP1 PUSH2 0x3676 JUMP JUMPDEST PUSH1 0x20 PUSH1 0x40 MLOAD DUP1 DUP4 SUB DUP2 PUSH0 DUP8 GAS CALL ISZERO DUP1 ISZERO PUSH2 0x21B2 JUMPI RETURNDATASIZE PUSH0 PUSH0 RETURNDATACOPY RETURNDATASIZE PUSH0 REVERT JUMPDEST POP POP POP POP PUSH1 0x40 MLOAD RETURNDATASIZE PUSH1 0x1F NOT PUSH1 0x1F DUP3 ADD AND DUP3 ADD DUP1 PUSH1 0x40 MSTORE POP DUP2 ADD SWAP1 PUSH2 0x21D6 SWAP2 SWAP1 PUSH2 0x31E3 JUMP JUMPDEST SWAP1 POP DUP1 PUSH2 0x220F JUMPI PUSH1 0x40 MLOAD PUSH32 0x90B8EC1800000000000000000000000000000000000000000000000000000000 DUP2 MSTORE PUSH1 0x4 ADD PUSH1 0x40 MLOAD DUP1 SWAP2 SUB SWAP1 REVERT JUMPDEST PUSH0 PUSH1 0xB PUSH0 DUP2 SLOAD PUSH2 0x221E SWAP1 PUSH2 0x349D JUMP JUMPDEST SWAP2 SWAP1 POP DUP2 SWAP1 SSTORE SWAP1 POP DUP1 DUP5 PUSH20 0xFFFFFFFFFFFFFFFFFFFFFFFFFFFFFFFFFFFFFFFF AND CALLER PUSH20 0xFFFFFFFFFFFFFFFFFFFFFFFFFFFFFFFFFFFFFFFF AND PUSH32 0x228ADEF123A7FE6B727889B4D24B39B39DE663428214FD757C6C501FB98D8494 DUP7 PUSH1 0x40 MLOAD PUSH2 0x2284 SWAP2 SWAP1 PUSH2 0x2C51 JUMP JUMPDEST PUSH1 0x40 MLOAD DUP1 SWAP2 SUB SWAP1 LOG4 POP POP POP POP JUMP JUMPDEST PUSH1 0x4 SLOAD DUP2 JUMP JUMPDEST PUSH1 0xA SLOAD DUP2 JUMP JUMPDEST PUSH1 0x9 PUSH1 0x20 MSTORE DUP1 PUSH0 MSTORE PUSH1 0x40 PUSH0 KECCAK256 PUSH0 SWAP2 POP SWAP1 POP DUP1 PUSH0 ADD SLOAD SWAP1 DUP1 PUSH1 0x1 ADD SLOAD SWAP1 DUP1 PUSH1 0x2 ADD SLOAD SWAP1 DUP1 PUSH1 0x3 ADD SLOAD SWAP1 DUP1 PUSH1 0x4 ADD PUSH0 SWAP1 SLOAD SWAP1 PUSH2 0x100 EXP SWAP1 DIV PUSH8 0xFFFFFFFFFFFFFFFF AND SWAP1 DUP1 PUSH1 0x4 ADD PUSH1 0x8 SWAP1 SLOAD SWAP1 PUSH2 0x100 EXP SWAP1 DIV PUSH1 0xFF AND SWAP1 DUP1 PUSH1 0x4 ADD PUSH1 0x9 SWAP1 SLOAD SWAP1 PUSH2 0x100 EXP SWAP1 DIV PUSH1 0xFF AND SWAP1 DUP1 PUSH1 0x4 ADD PUSH1 0xA SWAP1 SLOAD SWAP1 PUSH2 0x100 EXP SWAP1 DIV PUSH20 0xFFFFFFFFFFFFFFFFFFFFFFFFFFFFFFFFFFFFFFFF AND SWAP1 POP DUP9 JUMP JUMPDEST PUSH1 0xB SLOAD DUP2 JUMP JUMPDEST PUSH0 PUSH1 0x14 SWAP1 SLOAD SWAP1 PUSH2 0x100 EXP SWAP1 DIV PUSH1 0xFF AND ISZERO PUSH2 0x2384 JUMPI PUSH1 0x40 MLOAD PUSH32 0x8C379A000000000000000000000000000000000000000000000000000000000 DUP2 MSTORE PUSH1 0x4 ADD PUSH2 0x237B SWAP1 PUSH2 0x3019 JUMP JUMPDEST PUSH1 0x40 MLOAD DUP1 SWAP2 SUB SWAP1 REVERT JUMPDEST PUSH0 PUSH1 0x9 PUSH0 DUP4 DUP2 MSTORE PUSH1 0x20 ADD SWAP1 DUP2 MSTORE PUSH1 0x20 ADD PUSH0 KECCAK256 SWAP1 POP PUSH0 DUP2 PUSH1 0x4 ADD PUSH0 SWAP1 SLOAD SWAP1 PUSH2 0x100 EXP SWAP1 DIV PUSH8 0xFFFFFFFFFFFFFFFF AND PUSH8 0xFFFFFFFFFFFFFFFF AND SUB PUSH2 0x23F2 JUMPI PUSH1 0x40 MLOAD PUSH32 0x9E15E1BC00000000000000000000000000000000000000000000000000000000 DUP2 MSTORE PUSH1 0x4 ADD PUSH1 0x40 MLOAD DUP1 SWAP2 SUB SWAP1 REVERT JUMPDEST DUP1 PUSH1 0x4 ADD PUSH1 0x9 SWAP1 SLOAD SWAP1 PUSH2 0x100 EXP SWAP1 DIV PUSH1 0xFF AND ISZERO PUSH2 0x243B JUMPI PUSH1 0x40 MLOAD PUSH32 0x8A66D60700000000000000000000000000000000000000000000000000000000 DUP2 MSTORE PUSH1 0x4 ADD PUSH1 0x40 MLOAD DUP1 SWAP2 SUB SWAP1 REVERT JUMPDEST PUSH1 0x6 SLOAD DUP2 PUSH1 0x4 ADD PUSH0 SWAP1 SLOAD SWAP1 PUSH2 0x100 EXP SWAP1 DIV PUSH8 0xFFFFFFFFFFFFFFFF AND PUSH8 0xFFFFFFFFFFFFFFFF AND PUSH2 0x246A SWAP2 SWAP1 PUSH2 0x3262 JUMP JUMPDEST TIMESTAMP GT PUSH2 0x24A2 JUMPI PUSH1 0x40 MLOAD PUSH32 0xC970363200000000000000000000000000000000000000000000000000000000 DUP2 MSTORE PUSH1 0x4 ADD PUSH1 0x40 MLOAD DUP1 SWAP2 SUB SWAP1 REVERT JUMPDEST DUP1 PUSH1 0x4 ADD PUSH1 0x8 SWAP1 SLOAD SWAP1 PUSH2 0x100 EXP SWAP1 DIV PUSH1 0xFF AND ISZERO PUSH2 0x24EB JUMPI PUSH1 0x40 MLOAD PUSH32 0xF1082A9300000000000000000000000000000000000000000000000000000000 DUP2 MSTORE PUSH1 0x4 ADD PUSH1 0x40 MLOAD DUP1 SWAP2 SUB SWAP1 REVERT JUMPDEST PUSH1 0x1 DUP2 PUSH1 0x4 ADD PUSH1 0x9 PUSH2 0x100 EXP DUP2 SLOAD DUP2 PUSH1 0xFF MUL NOT AND SWAP1 DUP4 ISZERO ISZERO MUL OR SWAP1 SSTORE POP DUP1 PUSH1 0x1 ADD SLOAD DUP3 PUSH32 0xA3EA0288FB824A30CAE7F7D72A9E887BD0926C40C8438C43B49CFCA687B0DF52 PUSH1 0x40 MLOAD PUSH1 0x40 MLOAD DUP1 SWAP2 SUB SWAP1 LOG3 POP POP JUMP JUMPDEST PUSH0 PUSH0 SWAP1 SLOAD SWAP1 PUSH2 0x100 EXP SWAP1 DIV PUSH20 0xFFFFFFFFFFFFFFFFFFFFFFFFFFFFFFFFFFFFFFFF AND PUSH20 0xFFFFFFFFFFFFFFFFFFFFFFFFFFFFFFFFFFFFFFFF AND CALLER PUSH20 0xFFFFFFFFFFFFFFFFFFFFFFFFFFFFFFFFFFFFFFFF AND EQ PUSH2 0x25CC JUMPI PUSH1 0x40 MLOAD PUSH32 0x8C379A000000000000000000000000000000000000000000000000000000000 DUP2 MSTORE PUSH1 0x4 ADD PUSH2 0x25C3 SWAP1 PUSH2 0x32DF JUMP JUMPDEST PUSH1 0x40 MLOAD DUP1 SWAP2 SUB SWAP1 REVERT JUMPDEST DUP1 PUSH1 0x3 PUSH0 PUSH2 0x100 EXP DUP2 SLOAD DUP2 PUSH20 0xFFFFFFFFFFFFFFFFFFFFFFFFFFFFFFFFFFFFFFFF MUL NOT AND SWAP1 DUP4 PUSH20 0xFFFFFFFFFFFFFFFFFFFFFFFFFFFFFFFFFFFFFFFF AND MUL OR SWAP1 SSTORE POP DUP1 PUSH20 0xFFFFFFFFFFFFFFFFFFFFFFFFFFFFFFFFFFFFFFFF AND PUSH32 0x8F188B15032CF36DF69A7F5F4BD1583E05704DBB1504FEABF2A98D125FC9B235 PUSH1 0x40 MLOAD PUSH1 0x40 MLOAD DUP1 SWAP2 SUB SWAP1 LOG2 POP JUMP JUMPDEST PUSH0 PUSH0 SWAP1 SLOAD SWAP1 PUSH2 0x100 EXP SWAP1 DIV PUSH20 0xFFFFFFFFFFFFFFFFFFFFFFFFFFFFFFFFFFFFFFFF AND PUSH20 0xFFFFFFFFFFFFFFFFFFFFFFFFFFFFFFFFFFFFFFFF AND CALLER PUSH20 0xFFFFFFFFFFFFFFFFFFFFFFFFFFFFFFFFFFFFFFFF AND EQ PUSH2 0x26E0 JUMPI PUSH1 0x40 MLOAD PUSH32 0x8C379A000000000000000000000000000000000000000000000000000000000 DUP2 MSTORE PUSH1 0x4 ADD PUSH2 0x26D7 SWAP1 PUSH2 0x32DF JUMP JUMPDEST PUSH1 0x40 MLOAD DUP1 SWAP2 SUB SWAP1 REVERT JUMPDEST PUSH0 PUSH20 0xFFFFFFFFFFFFFFFFFFFFFFFFFFFFFFFFFFFFFFFF AND DUP2 PUSH20 0xFFFFFFFFFFFFFFFFFFFFFFFFFFFFFFFFFFFFFFFF AND SUB PUSH2 0x274E JUMPI PUSH1 0x40 MLOAD PUSH32 0x8C379A000000000000000000000000000000000000000000000000000000000 DUP2 MSTORE PUSH1 0x4 ADD PUSH2 0x2745 SWAP1 PUSH2 0x3347 JUMP JUMPDEST PUSH1 0x40 MLOAD DUP1 SWAP2 SUB SWAP1 REVERT JUMPDEST DUP1 PUSH20 0xFFFFFFFFFFFFFFFFFFFFFFFFFFFFFFFFFFFFFFFF AND PUSH0 PUSH0 SWAP1 SLOAD SWAP1 PUSH2 0x100 EXP SWAP1 DIV PUSH20 0xFFFFFFFFFFFFFFFFFFFFFFFFFFFFFFFFFFFFFFFF AND PUSH20 0xFFFFFFFFFFFFFFFFFFFFFFFFFFFFFFFFFFFFFFFF AND PUSH32 0x8BE0079C531659141344CD1FD0A4F28419497F9722A3DAAFE3B4186F6B6457E0 PUSH1 0x40 MLOAD PUSH1 0x40 MLOAD DUP1 SWAP2 SUB SWAP1 LOG3 DUP1 PUSH0 PUSH0 PUSH2 0x100 EXP DUP2 SLOAD DUP2 PUSH20 0xFFFFFFFFFFFFFFFFFFFFFFFFFFFFFFFFFFFFFFFF MUL NOT AND SWAP1 DUP4 PUSH20 0xFFFFFFFFFFFFFFFFFFFFFFFFFFFFFFFFFFFFFFFF AND MUL OR SWAP1 SSTORE POP POP JUMP JUMPDEST PUSH0 PUSH1 0x14 SWAP1 SLOAD SWAP1 PUSH2 0x100 EXP SWAP1 DIV PUSH1 0xFF AND ISZERO PUSH2 0x2859 JUMPI PUSH1 0x40 MLOAD PUSH32 0x8C379A000000000000000000000000000000000000000000000000000000000 DUP2 MSTORE PUSH1 0x4 ADD PUSH2 0x2850 SWAP1 PUSH2 0x3019 JUMP JUMPDEST PUSH1 0x40 MLOAD DUP1 SWAP2 SUB SWAP1 REVERT JUMPDEST PUSH0 CALLVALUE SUB PUSH2 0x2892 JUMPI PUSH1 0x40 MLOAD PUSH32 0x1F2A200500000000000000000000000000000000000000000000000000000000 DUP2 MSTORE PUSH1 0x4 ADD PUSH1 0x40 MLOAD DUP1 SWAP2 SUB SWAP1 REVERT JUMPDEST PUSH0 PUSH1 0xB PUSH0 DUP2 SLOAD PUSH2 0x28A1 SWAP1 PUSH2 0x349D JUMP JUMPDEST SWAP2 SWAP1 POP DUP2 SWAP1 SSTORE SWAP1 POP DUP1 CALLER PUSH20 0xFFFFFFFFFFFFFFFFFFFFFFFFFFFFFFFFFFFFFFFF AND PUSH32 0x57E8E547A3EF8D890C570CA885B0A8C441BE3070E36B7AD4C7D6B9D9316FF2CE CALLVALUE PUSH1 0x40 MLOAD PUSH2 0x28F0 SWAP2 SWAP1 PUSH2 0x2C51 JUMP JUMPDEST PUSH1 0x40 MLOAD DUP1 SWAP2 SUB SWAP1 LOG3 POP JUMP JUMPDEST PUSH1 0x7 PUSH1 0x20 MSTORE DUP1 PUSH0 MSTORE PUSH1 0x40 PUSH0 KECCAK256 PUSH0 SWAP2 POP SWAP1 POP SLOAD DUP2 JUMP JUMPDEST PUSH0 PUSH0 DUP3 SWAP1 POP PUSH0 PUSH0 SWAP1 POP JUMPDEST DUP7 DUP7 SWAP1 POP DUP2 LT ISZERO PUSH2 0x2976 JUMPI DUP2 DUP8 DUP8 DUP4 DUP2 DUP2 LT PUSH2 0x2939 JUMPI PUSH2 0x2938 PUSH2 0x36AB JUMP JUMPDEST JUMPDEST SWAP1 POP PUSH1 0x20 MUL ADD CALLDATALOAD PUSH1 0x40 MLOAD PUSH1 0x20 ADD PUSH2 0x2951 SWAP3 SWAP2 SWAP1 PUSH2 0x36F8 JUMP JUMPDEST PUSH1 0x40 MLOAD PUSH1 0x20 DUP2 DUP4 SUB SUB DUP2 MSTORE SWAP1 PUSH1 0x40 MSTORE DUP1 MLOAD SWAP1 PUSH1 0x20 ADD KECCAK256 SWAP2 POP DUP1 DUP1 PUSH1 0x1 ADD SWAP2 POP POP PUSH2 0x291A JUMP JUMPDEST POP DUP4 DUP2 EQ SWAP2 POP POP SWAP5 SWAP4 POP POP POP POP JUMP JUMPDEST PUSH0 PUSH0 REVERT JUMPDEST PUSH0 PUSH0 REVERT JUMPDEST PUSH0 DUP2 SWAP1 POP SWAP2 SWAP1 POP JUMP JUMPDEST PUSH2 0x299F DUP2 PUSH2 0x298D JUMP JUMPDEST DUP2 EQ PUSH2 0x29A9 JUMPI PUSH0 PUSH0 REVERT JUMPDEST POP JUMP JUMPDEST PUSH0 DUP2 CALLDATALOAD SWAP1 POP PUSH2 0x29BA DUP2 PUSH2 0x2996 JUMP JUMPDEST SWAP3 SWAP2 POP POP JUMP JUMPDEST PUSH0 PUSH20 0xFFFFFFFFFFFFFFFFFFFFFFFFFFFFFFFFFFFFFFFF DUP3 AND SWAP1 POP SWAP2 SWAP1 POP JUMP JUMPDEST PUSH0 PUSH2 0x29E9 DUP3 PUSH2 0x29C0 JUMP JUMPDEST SWAP1 POP SWAP2 SWAP1 POP JUMP JUMPDEST PUSH2 0x29F9 DUP2 PUSH2 0x29DF JUMP JUMPDEST DUP2 EQ PUSH2 0x2A03 JUMPI PUSH0 PUSH0 REVERT JUMPDEST POP JUMP JUMPDEST PUSH0 DUP2 CALLDATALOAD SWAP1 POP PUSH2 0x2A14 DUP2 PUSH2 0x29F0 JUMP JUMPDEST SWAP3 SWAP2 POP POP JUMP JUMPDEST PUSH0 PUSH0 REVERT JUMPDEST PUSH0 PUSH0 REVERT JUMPDEST PUSH0 PUSH0 REVERT JUMPDEST PUSH0 PUSH0 DUP4 PUSH1 0x1F DUP5 ADD SLT PUSH2 0x2A3B JUMPI PUSH2 0x2A3A PUSH2 0x2A1A JUMP JUMPDEST JUMPDEST DUP3 CALLDATALOAD SWAP1 POP PUSH8 0xFFFFFFFFFFFFFFFF DUP2 GT ISZERO PUSH2 0x2A58 JUMPI PUSH2 0x2A57 PUSH2 0x2A1E JUMP JUMPDEST JUMPDEST PUSH1 0x20 DUP4 ADD SWAP2 POP DUP4 PUSH1 0x20 DUP3 MUL DUP4 ADD GT ISZERO PUSH2 0x2A74 JUMPI PUSH2 0x2A73 PUSH2 0x2A22 JUMP JUMPDEST JUMPDEST SWAP3 POP SWAP3 SWAP1 POP JUMP JUMPDEST PUSH0 PUSH0 PUSH0 PUSH0 PUSH0 PUSH0 PUSH1 0xA0 DUP8 DUP10 SUB SLT ISZERO PUSH2 0x2A95 JUMPI PUSH2 0x2A94 PUSH2 0x2985 JUMP JUMPDEST JUMPDEST PUSH0 PUSH2 0x2AA2 DUP10 DUP3 DUP11 ADD PUSH2 0x29AC JUMP JUMPDEST SWAP7 POP POP PUSH1 0x20 PUSH2 0x2AB3 DUP10 DUP3 DUP11 ADD PUSH2 0x2A06 JUMP JUMPDEST SWAP6 POP POP PUSH1 0x40 PUSH2 0x2AC4 DUP10 DUP3 DUP11 ADD PUSH2 0x29AC JUMP JUMPDEST SWAP5 POP POP PUSH1 0x60 PUSH2 0x2AD5 DUP10 DUP3 DUP11 ADD PUSH2 0x29AC JUMP JUMPDEST SWAP4 POP POP PUSH1 0x80 DUP8 ADD CALLDATALOAD PUSH8 0xFFFFFFFFFFFFFFFF DUP2 GT ISZERO PUSH2 0x2AF6 JUMPI PUSH2 0x2AF5 PUSH2 0x2989 JUMP JUMPDEST JUMPDEST PUSH2 0x2B02 DUP10 DUP3 DUP11 ADD PUSH2 0x2A26 JUMP JUMPDEST SWAP3 POP SWAP3 POP POP SWAP3 SWAP6 POP SWAP3 SWAP6 POP SWAP3 SWAP6 JUMP JUMPDEST PUSH0 PUSH1 0x20 DUP3 DUP5 SUB SLT ISZERO PUSH2 0x2B26 JUMPI PUSH2 0x2B25 PUSH2 0x2985 JUMP JUMPDEST JUMPDEST PUSH0 PUSH2 0x2B33 DUP5 DUP3 DUP6 ADD PUSH2 0x29AC JUMP JUMPDEST SWAP2 POP POP SWAP3 SWAP2 POP POP JUMP JUMPDEST PUSH0 DUP2 ISZERO ISZERO SWAP1 POP SWAP2 SWAP1 POP JUMP JUMPDEST PUSH2 0x2B50 DUP2 PUSH2 0x2B3C JUMP JUMPDEST DUP3 MSTORE POP POP JUMP JUMPDEST PUSH2 0x2B5F DUP2 PUSH2 0x298D JUMP JUMPDEST DUP3 MSTORE POP POP JUMP JUMPDEST PUSH0 DUP2 SWAP1 POP SWAP2 SWAP1 POP JUMP JUMPDEST PUSH2 0x2B77 DUP2 PUSH2 0x2B65 JUMP JUMPDEST DUP3 MSTORE POP POP JUMP JUMPDEST PUSH2 0x2B86 DUP2 PUSH2 0x29DF JUMP JUMPDEST DUP3 MSTORE POP POP JUMP JUMPDEST PUSH0 PUSH2 0x140 DUP3 ADD SWAP1 POP PUSH2 0x2BA0 PUSH0 DUP4 ADD DUP14 PUSH2 0x2B47 JUMP JUMPDEST PUSH2 0x2BAD PUSH1 0x20 DUP4 ADD DUP13 PUSH2 0x2B47 JUMP JUMPDEST PUSH2 0x2BBA PUSH1 0x40 DUP4 ADD DUP12 PUSH2 0x2B47 JUMP JUMPDEST PUSH2 0x2BC7 PUSH1 0x60 DUP4 ADD DUP11 PUSH2 0x2B56 JUMP JUMPDEST PUSH2 0x2BD4 PUSH1 0x80 DUP4 ADD DUP10 PUSH2 0x2B56 JUMP JUMPDEST PUSH2 0x2BE1 PUSH1 0xA0 DUP4 ADD DUP9 PUSH2 0x2B6E JUMP JUMPDEST PUSH2 0x2BEE PUSH1 0xC0 DUP4 ADD DUP8 PUSH2 0x2B6E JUMP JUMPDEST PUSH2 0x2BFB PUSH1 0xE0 DUP4 ADD DUP7 PUSH2 0x2B6E JUMP JUMPDEST PUSH2 0x2C09 PUSH2 0x100 DUP4 ADD DUP6 PUSH2 0x2B6E JUMP JUMPDEST PUSH2 0x2C17 PUSH2 0x120 DUP4 ADD DUP5 PUSH2 0x2B7D JUMP JUMPDEST SWAP12 SWAP11 POP POP POP POP POP POP POP POP POP POP POP JUMP JUMPDEST PUSH0 PUSH1 0x20 DUP3 DUP5 SUB SLT ISZERO PUSH2 0x2C3B JUMPI PUSH2 0x2C3A PUSH2 0x2985 JUMP JUMPDEST JUMPDEST PUSH0 PUSH2 0x2C48 DUP5 DUP3 DUP6 ADD PUSH2 0x2A06 JUMP JUMPDEST SWAP2 POP POP SWAP3 SWAP2 POP POP JUMP JUMPDEST PUSH0 PUSH1 0x20 DUP3 ADD SWAP1 POP PUSH2 0x2C64 PUSH0 DUP4 ADD DUP5 PUSH2 0x2B56 JUMP JUMPDEST SWAP3 SWAP2 POP POP JUMP JUMPDEST PUSH2 0x2C73 DUP2 PUSH2 0x2B65 JUMP JUMPDEST DUP2 EQ PUSH2 0x2C7D JUMPI PUSH0 PUSH0 REVERT JUMPDEST POP JUMP JUMPDEST PUSH0 DUP2 CALLDATALOAD SWAP1 POP PUSH2 0x2C8E DUP2 PUSH2 0x2C6A JUMP JUMPDEST SWAP3 SWAP2 POP POP JUMP JUMPDEST PUSH0 PUSH0 PUSH1 0x40 DUP4 DUP6 SUB SLT ISZERO PUSH2 0x2CAA JUMPI PUSH2 0x2CA9 PUSH2 0x2985 JUMP JUMPDEST JUMPDEST PUSH0 PUSH2 0x2CB7 DUP6 DUP3 DUP7 ADD PUSH2 0x29AC JUMP JUMPDEST SWAP3 POP POP PUSH1 0x20 PUSH2 0x2CC8 DUP6 DUP3 DUP7 ADD PUSH2 0x2C80 JUMP JUMPDEST SWAP2 POP POP SWAP3 POP SWAP3 SWAP1 POP JUMP JUMPDEST PUSH0 PUSH1 0x20 DUP3 ADD SWAP1 POP PUSH2 0x2CE5 PUSH0 DUP4 ADD DUP5 PUSH2 0x2B47 JUMP JUMPDEST SWAP3 SWAP2 POP POP JUMP JUMPDEST PUSH0 PUSH0 PUSH0 PUSH1 0x60 DUP5 DUP7 SUB SLT ISZERO PUSH2 0x2D02 JUMPI PUSH2 0x2D01 PUSH2 0x2985 JUMP JUMPDEST JUMPDEST PUSH0 PUSH2 0x2D0F DUP7 DUP3 DUP8 ADD PUSH2 0x29AC JUMP JUMPDEST SWAP4 POP POP PUSH1 0x20 PUSH2 0x2D20 DUP7 DUP3 DUP8 ADD PUSH2 0x29AC JUMP JUMPDEST SWAP3 POP POP PUSH1 0x40 PUSH2 0x2D31 DUP7 DUP3 DUP8 ADD PUSH2 0x29AC JUMP JUMPDEST SWAP2 POP POP SWAP3 POP SWAP3 POP SWAP3 JUMP JUMPDEST PUSH0 DUP2 SWAP1 POP SWAP2 SWAP1 POP JUMP JUMPDEST PUSH0 PUSH2 0x2D5E PUSH2 0x2D59 PUSH2 0x2D54 DUP5 PUSH2 0x29C0 JUMP JUMPDEST PUSH2 0x2D3B JUMP JUMPDEST PUSH2 0x29C0 JUMP JUMPDEST SWAP1 POP SWAP2 SWAP1 POP JUMP JUMPDEST PUSH0 PUSH2 0x2D6F DUP3 PUSH2 0x2D44 JUMP JUMPDEST SWAP1 POP SWAP2 SWAP1 POP JUMP JUMPDEST PUSH0 PUSH2 0x2D80 DUP3 PUSH2 0x2D65 JUMP JUMPDEST SWAP1 POP SWAP2 SWAP1 POP JUMP JUMPDEST PUSH2 0x2D90 DUP2 PUSH2 0x2D76 JUMP JUMPDEST DUP3 MSTORE POP POP JUMP JUMPDEST PUSH0 PUSH1 0x20 DUP3 ADD SWAP1 POP PUSH2 0x2DA9 PUSH0 DUP4 ADD DUP5 PUSH2 0x2D87 JUMP JUMPDEST SWAP3 SWAP2 POP POP JUMP JUMPDEST PUSH0 PUSH1 0x20 DUP3 ADD SWAP1 POP PUSH2 0x2DC2 PUSH0 DUP4 ADD DUP5 PUSH2 0x2B7D JUMP JUMPDEST SWAP3 SWAP2 POP POP JUMP JUMPDEST PUSH0 PUSH0 PUSH0 PUSH1 0x60 DUP5 DUP7 SUB SLT ISZERO PUSH2 0x2DDF JUMPI PUSH2 0x2DDE PUSH2 0x2985 JUMP JUMPDEST JUMPDEST PUSH0 PUSH2 0x2DEC DUP7 DUP3 DUP8 ADD PUSH2 0x2C80 JUMP JUMPDEST SWAP4 POP POP PUSH1 0x20 PUSH2 0x2DFD DUP7 DUP3 DUP8 ADD PUSH2 0x2C80 JUMP JUMPDEST SWAP3 POP POP PUSH1 0x40 PUSH2 0x2E0E DUP7 DUP3 DUP8 ADD PUSH2 0x2C80 JUMP JUMPDEST SWAP2 POP POP SWAP3 POP SWAP3 POP SWAP3 JUMP JUMPDEST PUSH0 PUSH0 DUP4 PUSH1 0x1F DUP5 ADD SLT PUSH2 0x2E2D JUMPI PUSH2 0x2E2C PUSH2 0x2A1A JUMP JUMPDEST JUMPDEST DUP3 CALLDATALOAD SWAP1 POP PUSH8 0xFFFFFFFFFFFFFFFF DUP2 GT ISZERO PUSH2 0x2E4A JUMPI PUSH2 0x2E49 PUSH2 0x2A1E JUMP JUMPDEST JUMPDEST PUSH1 0x20 DUP4 ADD SWAP2 POP DUP4 PUSH1 0x1 DUP3 MUL DUP4 ADD GT ISZERO PUSH2 0x2E66 JUMPI PUSH2 0x2E65 PUSH2 0x2A22 JUMP JUMPDEST JUMPDEST SWAP3 POP SWAP3 SWAP1 POP JUMP JUMPDEST PUSH0 PUSH0 PUSH0 PUSH1 0x40 DUP5 DUP7 SUB SLT ISZERO PUSH2 0x2E84 JUMPI PUSH2 0x2E83 PUSH2 0x2985 JUMP JUMPDEST JUMPDEST PUSH0 PUSH2 0x2E91 DUP7 DUP3 DUP8 ADD PUSH2 0x29AC JUMP JUMPDEST SWAP4 POP POP PUSH1 0x20 DUP5 ADD CALLDATALOAD PUSH8 0xFFFFFFFFFFFFFFFF DUP2 GT ISZERO PUSH2 0x2EB2 JUMPI PUSH2 0x2EB1 PUSH2 0x2989 JUMP JUMPDEST JUMPDEST PUSH2 0x2EBE DUP7 DUP3 DUP8 ADD PUSH2 0x2E18 JUMP JUMPDEST SWAP3 POP SWAP3 POP POP SWAP3 POP SWAP3 POP SWAP3 JUMP JUMPDEST PUSH0 PUSH0 PUSH1 0x40 DUP4 DUP6 SUB SLT ISZERO PUSH2 0x2EE0 JUMPI PUSH2 0x2EDF PUSH2 0x2985 JUMP JUMPDEST JUMPDEST PUSH0 PUSH2 0x2EED DUP6 DUP3 DUP7 ADD PUSH2 0x2A06 JUMP JUMPDEST SWAP3 POP POP PUSH1 0x20 PUSH2 0x2EFE DUP6 DUP3 DUP7 ADD PUSH2 0x29AC JUMP JUMPDEST SWAP2 POP POP SWAP3 POP SWAP3 SWAP1 POP JUMP JUMPDEST PUSH0 PUSH1 0x20 DUP3 ADD SWAP1 POP PUSH2 0x2F1B PUSH0 DUP4 ADD DUP5 PUSH2 0x2B6E JUMP JUMPDEST SWAP3 SWAP2 POP POP JUMP JUMPDEST PUSH0 PUSH8 0xFFFFFFFFFFFFFFFF DUP3 AND SWAP1 POP SWAP2 SWAP1 POP JUMP JUMPDEST PUSH2 0x2F3D DUP2 PUSH2 0x2F21 JUMP JUMPDEST DUP3 MSTORE POP POP JUMP JUMPDEST PUSH0 PUSH2 0x100 DUP3 ADD SWAP1 POP PUSH2 0x2F57 PUSH0 DUP4 ADD DUP12 PUSH2 0x2B6E JUMP JUMPDEST PUSH2 0x2F64 PUSH1 0x20 DUP4 ADD DUP11 PUSH2 0x2B6E JUMP JUMPDEST PUSH2 0x2F71 PUSH1 0x40 DUP4 ADD DUP10 PUSH2 0x2B6E JUMP JUMPDEST PUSH2 0x2F7E PUSH1 0x60 DUP4 ADD DUP9 PUSH2 0x2B6E JUMP JUMPDEST PUSH2 0x2F8B PUSH1 0x80 DUP4 ADD DUP8 PUSH2 0x2F34 JUMP JUMPDEST PUSH2 0x2F98 PUSH1 0xA0 DUP4 ADD DUP7 PUSH2 0x2B47 JUMP JUMPDEST PUSH2 0x2FA5 PUSH1 0xC0 DUP4 ADD DUP6 PUSH2 0x2B47 JUMP JUMPDEST PUSH2 0x2FB2 PUSH1 0xE0 DUP4 ADD DUP5 PUSH2 0x2B7D JUMP JUMPDEST SWAP10 SWAP9 POP POP POP POP POP POP POP POP POP JUMP JUMPDEST PUSH0 DUP3 DUP3 MSTORE PUSH1 0x20 DUP3 ADD SWAP1 POP SWAP3 SWAP2 POP POP JUMP JUMPDEST PUSH32 0x5041555345440000000000000000000000000000000000000000000000000000 PUSH0 DUP3 ADD MSTORE POP JUMP JUMPDEST PUSH0 PUSH2 0x3003 PUSH1 0x6 DUP4 PUSH2 0x2FBF JUMP JUMPDEST SWAP2 POP PUSH2 0x300E DUP3 PUSH2 0x2FCF JUMP JUMPDEST PUSH1 0x20 DUP3 ADD SWAP1 POP SWAP2 SWAP1 POP JUMP JUMPDEST PUSH0 PUSH1 0x20 DUP3 ADD SWAP1 POP DUP2 DUP2 SUB PUSH0 DUP4 ADD MSTORE PUSH2 0x3030 DUP2 PUSH2 0x2FF7 JUMP JUMPDEST SWAP1 POP SWAP2 SWAP1 POP JUMP JUMPDEST PUSH32 0x5245454E5452414E435900000000000000000000000000000000000000000000 PUSH0 DUP3 ADD MSTORE POP JUMP JUMPDEST PUSH0 PUSH2 0x306B PUSH1 0xA DUP4 PUSH2 0x2FBF JUMP JUMPDEST SWAP2 POP PUSH2 0x3076 DUP3 PUSH2 0x3037 JUMP JUMPDEST PUSH1 0x20 DUP3 ADD SWAP1 POP SWAP2 SWAP1 POP JUMP JUMPDEST PUSH0 PUSH1 0x20 DUP3 ADD SWAP1 POP DUP2 DUP2 SUB PUSH0 DUP4 ADD MSTORE PUSH2 0x3098 DUP2 PUSH2 0x305F JUMP JUMPDEST SWAP1 POP SWAP2 SWAP1 POP JUMP JUMPDEST PUSH0 DUP2 PUSH1 0x60 SHL SWAP1 POP SWAP2 SWAP1 POP JUMP JUMPDEST PUSH0 PUSH2 0x30B5 DUP3 PUSH2 0x309F JUMP JUMPDEST SWAP1 POP SWAP2 SWAP1 POP JUMP JUMPDEST PUSH0 PUSH2 0x30C6 DUP3 PUSH2 0x30AB JUMP JUMPDEST SWAP1 POP SWAP2 SWAP1 POP JUMP JUMPDEST PUSH2 0x30DE PUSH2 0x30D9 DUP3 PUSH2 0x29DF JUMP JUMPDEST PUSH2 0x30BC JUMP JUMPDEST DUP3 MSTORE POP POP JUMP JUMPDEST PUSH0 DUP2 SWAP1 POP SWAP2 SWAP1 POP JUMP JUMPDEST PUSH2 0x30FE PUSH2 0x30F9 DUP3 PUSH2 0x298D JUMP JUMPDEST PUSH2 0x30E4 JUMP JUMPDEST DUP3 MSTORE POP POP JUMP JUMPDEST PUSH0 PUSH2 0x310F DUP3 DUP8 PUSH2 0x30CD JUMP JUMPDEST PUSH1 0x14 DUP3 ADD SWAP2 POP PUSH2 0x311F DUP3 DUP7 PUSH2 0x30CD JUMP JUMPDEST PUSH1 0x14 DUP3 ADD SWAP2 POP PUSH2 0x312F DUP3 DUP6 PUSH2 0x30ED JUMP JUMPDEST PUSH1 0x20 DUP3 ADD SWAP2 POP PUSH2 0x313F DUP3 DUP5 PUSH2 0x30ED JUMP JUMPDEST PUSH1 0x20 DUP3 ADD SWAP2 POP DUP2 SWAP1 POP SWAP6 SWAP5 POP POP POP POP POP JUMP JUMPDEST PUSH0 DUP2 SWAP1 POP SWAP3 SWAP2 POP POP JUMP JUMPDEST POP JUMP JUMPDEST PUSH0 PUSH2 0x3169 PUSH0 DUP4 PUSH2 0x3151 JUMP JUMPDEST SWAP2 POP PUSH2 0x3174 DUP3 PUSH2 0x315B JUMP JUMPDEST PUSH0 DUP3 ADD SWAP1 POP SWAP2 SWAP1 POP JUMP JUMPDEST PUSH0 PUSH2 0x3188 DUP3 PUSH2 0x315E JUMP JUMPDEST SWAP2 POP DUP2 SWAP1 POP SWAP2 SWAP1 POP JUMP JUMPDEST PUSH0 PUSH1 0x40 DUP3 ADD SWAP1 POP PUSH2 0x31A5 PUSH0 DUP4 ADD DUP6 PUSH2 0x2B7D JUMP JUMPDEST PUSH2 0x31B2 PUSH1 0x20 DUP4 ADD DUP5 PUSH2 0x2B56 JUMP JUMPDEST SWAP4 SWAP3 POP POP POP JUMP JUMPDEST PUSH2 0x31C2 DUP2 PUSH2 0x2B3C JUMP JUMPDEST DUP2 EQ PUSH2 0x31CC JUMPI PUSH0 PUSH0 REVERT JUMPDEST POP JUMP JUMPDEST PUSH0 DUP2 MLOAD SWAP1 POP PUSH2 0x31DD DUP2 PUSH2 0x31B9 JUMP JUMPDEST SWAP3 SWAP2 POP POP JUMP JUMPDEST PUSH0 PUSH1 0x20 DUP3 DUP5 SUB SLT ISZERO PUSH2 0x31F8 JUMPI PUSH2 0x31F7 PUSH2 0x2985 JUMP JUMPDEST JUMPDEST PUSH0 PUSH2 0x3205 DUP5 DUP3 DUP6 ADD PUSH2 0x31CF JUMP JUMPDEST SWAP2 POP POP SWAP3 SWAP2 POP POP JUMP JUMPDEST PUSH0 PUSH1 0x40 DUP3 ADD SWAP1 POP PUSH2 0x3221 PUSH0 DUP4 ADD DUP6 PUSH2 0x2B56 JUMP JUMPDEST PUSH2 0x322E PUSH1 0x20 DUP4 ADD DUP5 PUSH2 0x2B56 JUMP JUMPDEST SWAP4 SWAP3 POP POP POP JUMP JUMPDEST PUSH32 0x4E487B7100000000000000000000000000000000000000000000000000000000 PUSH0 MSTORE PUSH1 0x11 PUSH1 0x4 MSTORE PUSH1 0x24 PUSH0 REVERT JUMPDEST PUSH0 PUSH2 0x326C DUP3 PUSH2 0x298D JUMP JUMPDEST SWAP2 POP PUSH2 0x3277 DUP4 PUSH2 0x298D JUMP JUMPDEST SWAP3 POP DUP3 DUP3 ADD SWAP1 POP DUP1 DUP3 GT ISZERO PUSH2 0x328F JUMPI PUSH2 0x328E PUSH2 0x3235 JUMP JUMPDEST JUMPDEST SWAP3 SWAP2 POP POP JUMP JUMPDEST PUSH32 0x4F4E4C595F4F574E455200000000000000000000000000000000000000000000 PUSH0 DUP3 ADD MSTORE POP JUMP JUMPDEST PUSH0 PUSH2 0x32C9 PUSH1 0xA DUP4 PUSH2 0x2FBF JUMP JUMPDEST SWAP2 POP PUSH2 0x32D4 DUP3 PUSH2 0x3295 JUMP JUMPDEST PUSH1 0x20 DUP3 ADD SWAP1 POP SWAP2 SWAP1 POP JUMP JUMPDEST PUSH0 PUSH1 0x20 DUP3 ADD SWAP1 POP DUP2 DUP2 SUB PUSH0 DUP4 ADD MSTORE PUSH2 0x32F6 DUP2 PUSH2 0x32BD JUMP JUMPDEST SWAP1 POP SWAP2 SWAP1 POP JUMP JUMPDEST PUSH32 0x5A45524F5F414444520000000000000000000000000000000000000000000000 PUSH0 DUP3 ADD MSTORE POP JUMP JUMPDEST PUSH0 PUSH2 0x3331 PUSH1 0x9 DUP4 PUSH2 0x2FBF JUMP JUMPDEST SWAP2 POP PUSH2 0x333C DUP3 PUSH2 0x32FD JUMP JUMPDEST PUSH1 0x20 DUP3 ADD SWAP1 POP SWAP2 SWAP1 POP JUMP JUMPDEST PUSH0 PUSH1 0x20 DUP3 ADD SWAP1 POP DUP2 DUP2 SUB PUSH0 DUP4 ADD MSTORE PUSH2 0x335E DUP2 PUSH2 0x3325 JUMP JUMPDEST SWAP1 POP SWAP2 SWAP1 POP JUMP JUMPDEST PUSH32 0x494E53554646494349454E545F424F4E44000000000000000000000000000000 PUSH0 DUP3 ADD MSTORE POP JUMP JUMPDEST PUSH0 PUSH2 0x3399 PUSH1 0x11 DUP4 PUSH2 0x2FBF JUMP JUMPDEST SWAP2 POP PUSH2 0x33A4 DUP3 PUSH2 0x3365 JUMP JUMPDEST PUSH1 0x20 DUP3 ADD SWAP1 POP SWAP2 SWAP1 POP JUMP JUMPDEST PUSH0 PUSH1 0x20 DUP3 ADD SWAP1 POP DUP2 DUP2 SUB PUSH0 DUP4 ADD MSTORE PUSH2 0x33C6 DUP2 PUSH2 0x338D JUMP JUMPDEST SWAP1 POP SWAP2 SWAP1 POP JUMP JUMPDEST PUSH0 PUSH2 0x33D7 DUP3 PUSH2 0x298D JUMP JUMPDEST SWAP2 POP PUSH2 0x33E2 DUP4 PUSH2 0x298D JUMP JUMPDEST SWAP3 POP DUP3 DUP3 SUB SWAP1 POP DUP2 DUP2 GT ISZERO PUSH2 0x33FA JUMPI PUSH2 0x33F9 PUSH2 0x3235 JUMP JUMPDEST JUMPDEST SWAP3 SWAP2 POP POP JUMP JUMPDEST PUSH0 PUSH1 0x60 DUP3 ADD SWAP1 POP PUSH2 0x3413 PUSH0 DUP4 ADD DUP7 PUSH2 0x2B56 JUMP JUMPDEST PUSH2 0x3420 PUSH1 0x20 DUP4 ADD DUP6 PUSH2 0x2B56 JUMP JUMPDEST PUSH2 0x342D PUSH1 0x40 DUP4 ADD DUP5 PUSH2 0x2B56 JUMP JUMPDEST SWAP5 SWAP4 POP POP POP POP JUMP JUMPDEST PUSH32 0x53455155454E4345525F424F4E445F4C4F570000000000000000000000000000 PUSH0 DUP3 ADD MSTORE POP JUMP JUMPDEST PUSH0 PUSH2 0x3469 PUSH1 0x12 DUP4 PUSH2 0x2FBF JUMP JUMPDEST SWAP2 POP PUSH2 0x3474 DUP3 PUSH2 0x3435 JUMP JUMPDEST PUSH1 0x20 DUP3 ADD SWAP1 POP SWAP2 SWAP1 POP JUMP JUMPDEST PUSH0 PUSH1 0x20 DUP3 ADD SWAP1 POP DUP2 DUP2 SUB PUSH0 DUP4 ADD MSTORE PUSH2 0x3496 DUP2 PUSH2 0x345D JUMP JUMPDEST SWAP1 POP SWAP2 SWAP1 POP JUMP JUMPDEST PUSH0 PUSH2 0x34A7 DUP3 PUSH2 0x298D JUMP JUMPDEST SWAP2 POP PUSH32 0xFFFFFFFFFFFFFFFFFFFFFFFFFFFFFFFFFFFFFFFFFFFFFFFFFFFFFFFFFFFFFFFF DUP3 SUB PUSH2 0x34D9 JUMPI PUSH2 0x34D8 PUSH2 0x3235 JUMP JUMPDEST JUMPDEST PUSH1 0x1 DUP3 ADD SWAP1 POP SWAP2 SWAP1 POP JUMP JUMPDEST PUSH0 PUSH1 0x40 DUP3 ADD SWAP1 POP PUSH2 0x34F7 PUSH0 DUP4 ADD DUP6 PUSH2 0x2B6E JUMP JUMPDEST PUSH2 0x3504 PUSH1 0x20 DUP4 ADD DUP5 PUSH2 0x2B6E JUMP JUMPDEST SWAP4 SWAP3 POP POP POP JUMP JUMPDEST PUSH0 DUP3 DUP3 MSTORE PUSH1 0x20 DUP3 ADD SWAP1 POP SWAP3 SWAP2 POP POP JUMP JUMPDEST DUP3 DUP2 DUP4 CALLDATACOPY PUSH0 DUP4 DUP4 ADD MSTORE POP POP POP JUMP JUMPDEST PUSH0 PUSH1 0x1F NOT PUSH1 0x1F DUP4 ADD AND SWAP1 POP SWAP2 SWAP1 POP JUMP JUMPDEST PUSH0 PUSH2 0x3544 DUP4 DUP6 PUSH2 0x350B JUMP JUMPDEST SWAP4 POP PUSH2 0x3551 DUP4 DUP6 DUP5 PUSH2 0x351B JUMP JUMPDEST PUSH2 0x355A DUP4 PUSH2 0x3529 JUMP JUMPDEST DUP5 ADD SWAP1 POP SWAP4 SWAP3 POP POP POP JUMP JUMPDEST PUSH0 PUSH1 0x80 DUP3 ADD SWAP1 POP DUP2 DUP2 SUB PUSH0 DUP4 ADD MSTORE PUSH2 0x357E DUP2 DUP8 DUP10 PUSH2 0x3539 JUMP JUMPDEST SWAP1 POP PUSH2 0x358D PUSH1 0x20 DUP4 ADD DUP7 PUSH2 0x2B6E JUMP JUMPDEST PUSH2 0x359A PUSH1 0x40 DUP4 ADD DUP6 PUSH2 0x2B6E JUMP JUMPDEST PUSH2 0x35A7 PUSH1 0x60 DUP4 ADD DUP5 PUSH2 0x2B6E JUMP JUMPDEST SWAP7 SWAP6 POP POP POP POP POP POP JUMP JUMPDEST PUSH32 0x4E487B7100000000000000000000000000000000000000000000000000000000 PUSH0 MSTORE PUSH1 0x12 PUSH1 0x4 MSTORE PUSH1 0x24 PUSH0 REVERT JUMPDEST PUSH0 PUSH2 0x35E8 DUP3 PUSH2 0x298D JUMP JUMPDEST SWAP2 POP PUSH2 0x35F3 DUP4 PUSH2 0x298D JUMP JUMPDEST SWAP3 POP DUP3 PUSH2 0x3603 JUMPI PUSH2 0x3602 PUSH2 0x35B1 JUMP JUMPDEST JUMPDEST DUP3 DUP3 DIV SWAP1 POP SWAP3 SWAP2 POP POP JUMP JUMPDEST PUSH32 0x4348414C4C454E4745525F424F4E445F4C4F5700000000000000000000000000 PUSH0 DUP3 ADD MSTORE POP JUMP JUMPDEST PUSH0 PUSH2 0x3642 PUSH1 0x13 DUP4 PUSH2 0x2FBF JUMP JUMPDEST SWAP2 POP PUSH2 0x364D DUP3 PUSH2 0x360E JUMP JUMPDEST PUSH1 0x20 DUP3 ADD SWAP1 POP SWAP2 SWAP1 POP JUMP JUMPDEST PUSH0 PUSH1 0x20 DUP3 ADD SWAP1 POP DUP2 DUP2 SUB PUSH0 DUP4 ADD MSTORE PUSH2 0x366F DUP2 PUSH2 0x3636 JUMP JUMPDEST SWAP1 POP SWAP2 SWAP1 POP JUMP JUMPDEST PUSH0 PUSH1 0x60 DUP3 ADD SWAP1 POP PUSH2 0x3689 PUSH0 DUP4 ADD DUP7 PUSH2 0x2B7D JUMP JUMPDEST PUSH2 0x3696 PUSH1 0x20 DUP4 ADD DUP6 PUSH2 0x2B7D JUMP JUMPDEST PUSH2 0x36A3 PUSH1 0x40 DUP4 ADD DUP5 PUSH2 0x2B56 JUMP JUMPDEST SWAP5 SWAP4 POP POP POP POP JUMP JUMPDEST PUSH32 0x4E487B7100000000000000000000000000000000000000000000000000000000 PUSH0 MSTORE PUSH1 0x32 PUSH1 0x4 MSTORE PUSH1 0x24 PUSH0 REVERT JUMPDEST PUSH0 DUP2 SWAP1 POP SWAP2 SWAP1 POP JUMP JUMPDEST PUSH2 0x36F2 PUSH2 0x36ED DUP3 PUSH2 0x2B65 JUMP JUMPDEST PUSH2 0x36D8 JUMP JUMPDEST DUP3 MSTORE POP POP JUMP JUMPDEST PUSH0 PUSH2 0x3703 DUP3 DUP6 PUSH2 0x36E1 JUMP JUMPDEST PUSH1 0x20 DUP3 ADD SWAP2 POP PUSH2 0x3713 DUP3 DUP5 PUSH2 0x36E1 JUMP JUMPDEST PUSH1 0x20 DUP3 ADD SWAP2 POP DUP2 SWAP1 POP SWAP4 SWAP3 POP POP POP JUMP INVALID LOG2 PUSH5 0x6970667358 0x22 SLT KECCAK256 AND 0x4C 0xAE EXP EXP EXP 0xEA EXTDELEGATECALL 0x4C PUSH18 0xD49DB46260798CA59B804A9859B80077163D DUP1 0xDC DUP9 DUP16 PUSH5 0x736F6C6343 STOP ADDMOD 0x1E STOP CALLER "
				},
				"gasEstimates": {
					"creation": {
						"codeDepositCost": "2833800",
						"executionCost": "infinite",
						"totalCost": "infinite"
					},
					"external": {
						"batchStatus(uint256)": "infinite",
						"batches(uint256)": "infinite",
						"bond()": "infinite",
						"bonds(address)": "2912",
						"challengeBatch(uint256)": "infinite",
						"challengeWindow()": "2515",
						"challengerBond()": "2536",
						"claimWithdrawal(uint256,address,uint256,uint256,bytes32[])": "infinite",
						"currentStateRoot()": "2470",
						"depositERC20(address,uint256)": "infinite",
						"depositETH()": "infinite",
						"depositNonce()": "2514",
						"finalizeBatch(uint256)": "infinite",
						"fraudVerifier()": "infinite",
						"latestBatchId()": "2515",
						"owner()": "2552",
						"pause()": "27855",
						"paused()": "2561",
						"resolveChallenge(uint256,bytes)": "infinite",
						"sequencer()": "2598",
						"sequencerBond()": "2536",
						"setFraudVerifier(address)": "28088",
						"setParams(uint256,uint256,uint256)": "infinite",
						"setSequencer(address)": "30688",
						"submitBatch(bytes32,bytes32,bytes32)": "infinite",
						"transferOwnership(address)": "30661",
						"unbond(uint256)": "infinite",
						"unpause()": "27854",
						"withdrawalClaimed(uint256,bytes32)": "3134"
					}
				},
				"methodIdentifiers": {
					"batchStatus(uint256)": "147e4e8f",
					"batches(uint256)": "b32c4d8d",
					"bond()": "64c9ec6f",
					"bonds(address)": "fe10d774",
					"challengeBatch(uint256)": "8fe0c544",
					"challengeWindow()": "861a1412",
					"challengerBond()": "68ccdc86",
					"claimWithdrawal(uint256,address,uint256,uint256,bytes32[])": "129d8000",
					"currentStateRoot()": "ac2eba98",
					"depositERC20(address,uint256)": "97feb926",
					"depositETH()": "f6326fb3",
					"depositNonce()": "de35f5cb",
					"finalizeBatch(uint256)": "e33491a7",
					"fraudVerifier()": "5c0b2cd3",
					"latestBatchId()": "4d4e7019",
					"owner()": "8da5cb5b",
					"pause()": "8456cb59",
					"paused()": "5c975abb",
					"resolveChallenge(uint256,bytes)": "7b6605c5",
					"sequencer()": "5c1bba38",
					"sequencerBond()": "a8608d18",
					"setFraudVerifier(address)": "e7b417a6",
					"setParams(uint256,uint256,uint256)": "5a0ce676",
					"setSequencer(address)": "2547fa3e",
					"submitBatch(bytes32,bytes32,bytes32)": "67f4f4eb",
					"transferOwnership(address)": "f2fde38b",
					"unbond(uint256)": "27de9e32",
					"unpause()": "3f4ba83a",
					"withdrawalClaimed(uint256,bytes32)": "57348b83"
				}
			},
			"storageLayout": {
				"storage": [
					{
						"astId": 117,
						"contract": "Smart Contracts/26_OptimisticL2RollUps.sol:OptimisticRollupSimulation",
						"label": "owner",
						"offset": 0,
						"slot": "0",
						"type": "t_address"
					},
					{
						"astId": 185,
						"contract": "Smart Contracts/26_OptimisticL2RollUps.sol:OptimisticRollupSimulation",
						"label": "paused",
						"offset": 20,
						"slot": "0",
						"type": "t_bool"
					},
					{
						"astId": 87,
						"contract": "Smart Contracts/26_OptimisticL2RollUps.sol:OptimisticRollupSimulation",
						"label": "_status",
						"offset": 0,
						"slot": "1",
						"type": "t_uint256"
					},
					{
						"astId": 266,
						"contract": "Smart Contracts/26_OptimisticL2RollUps.sol:OptimisticRollupSimulation",
						"label": "sequencer",
						"offset": 0,
						"slot": "2",
						"type": "t_address"
					},
					{
						"astId": 269,
						"contract": "Smart Contracts/26_OptimisticL2RollUps.sol:OptimisticRollupSimulation",
						"label": "fraudVerifier",
						"offset": 0,
						"slot": "3",
						"type": "t_contract(IFraudProofVerifier)37"
					},
					{
						"astId": 271,
						"contract": "Smart Contracts/26_OptimisticL2RollUps.sol:OptimisticRollupSimulation",
						"label": "sequencerBond",
						"offset": 0,
						"slot": "4",
						"type": "t_uint256"
					},
					{
						"astId": 273,
						"contract": "Smart Contracts/26_OptimisticL2RollUps.sol:OptimisticRollupSimulation",
						"label": "challengerBond",
						"offset": 0,
						"slot": "5",
						"type": "t_uint256"
					},
					{
						"astId": 275,
						"contract": "Smart Contracts/26_OptimisticL2RollUps.sol:OptimisticRollupSimulation",
						"label": "challengeWindow",
						"offset": 0,
						"slot": "6",
						"type": "t_uint256"
					},
					{
						"astId": 279,
						"contract": "Smart Contracts/26_OptimisticL2RollUps.sol:OptimisticRollupSimulation",
						"label": "bonds",
						"offset": 0,
						"slot": "7",
						"type": "t_mapping(t_address,t_uint256)"
					},
					{
						"astId": 298,
						"contract": "Smart Contracts/26_OptimisticL2RollUps.sol:OptimisticRollupSimulation",
						"label": "latestBatchId",
						"offset": 0,
						"slot": "8",
						"type": "t_uint256"
					},
					{
						"astId": 303,
						"contract": "Smart Contracts/26_OptimisticL2RollUps.sol:OptimisticRollupSimulation",
						"label": "batches",
						"offset": 0,
						"slot": "9",
						"type": "t_mapping(t_uint256,t_struct(Batch)296_storage)"
					},
					{
						"astId": 305,
						"contract": "Smart Contracts/26_OptimisticL2RollUps.sol:OptimisticRollupSimulation",
						"label": "currentStateRoot",
						"offset": 0,
						"slot": "10",
						"type": "t_bytes32"
					},
					{
						"astId": 307,
						"contract": "Smart Contracts/26_OptimisticL2RollUps.sol:OptimisticRollupSimulation",
						"label": "depositNonce",
						"offset": 0,
						"slot": "11",
						"type": "t_uint256"
					},
					{
						"astId": 379,
						"contract": "Smart Contracts/26_OptimisticL2RollUps.sol:OptimisticRollupSimulation",
						"label": "withdrawalClaimed",
						"offset": 0,
						"slot": "12",
						"type": "t_mapping(t_uint256,t_mapping(t_bytes32,t_bool))"
					}
				],
				"types": {
					"t_address": {
						"encoding": "inplace",
						"label": "address",
						"numberOfBytes": "20"
					},
					"t_bool": {
						"encoding": "inplace",
						"label": "bool",
						"numberOfBytes": "1"
					},
					"t_bytes32": {
						"encoding": "inplace",
						"label": "bytes32",
						"numberOfBytes": "32"
					},
					"t_contract(IFraudProofVerifier)37": {
						"encoding": "inplace",
						"label": "contract IFraudProofVerifier",
						"numberOfBytes": "20"
					},
					"t_mapping(t_address,t_uint256)": {
						"encoding": "mapping",
						"key": "t_address",
						"label": "mapping(address => uint256)",
						"numberOfBytes": "32",
						"value": "t_uint256"
					},
					"t_mapping(t_bytes32,t_bool)": {
						"encoding": "mapping",
						"key": "t_bytes32",
						"label": "mapping(bytes32 => bool)",
						"numberOfBytes": "32",
						"value": "t_bool"
					},
					"t_mapping(t_uint256,t_mapping(t_bytes32,t_bool))": {
						"encoding": "mapping",
						"key": "t_uint256",
						"label": "mapping(uint256 => mapping(bytes32 => bool))",
						"numberOfBytes": "32",
						"value": "t_mapping(t_bytes32,t_bool)"
					},
					"t_mapping(t_uint256,t_struct(Batch)296_storage)": {
						"encoding": "mapping",
						"key": "t_uint256",
						"label": "mapping(uint256 => struct OptimisticRollupSimulation.Batch)",
						"numberOfBytes": "32",
						"value": "t_struct(Batch)296_storage"
					},
					"t_struct(Batch)296_storage": {
						"encoding": "inplace",
						"label": "struct OptimisticRollupSimulation.Batch",
						"members": [
							{
								"astId": 281,
								"contract": "Smart Contracts/26_OptimisticL2RollUps.sol:OptimisticRollupSimulation",
								"label": "prevStateRoot",
								"offset": 0,
								"slot": "0",
								"type": "t_bytes32"
							},
							{
								"astId": 283,
								"contract": "Smart Contracts/26_OptimisticL2RollUps.sol:OptimisticRollupSimulation",
								"label": "newStateRoot",
								"offset": 0,
								"slot": "1",
								"type": "t_bytes32"
							},
							{
								"astId": 285,
								"contract": "Smart Contracts/26_OptimisticL2RollUps.sol:OptimisticRollupSimulation",
								"label": "txDataHash",
								"offset": 0,
								"slot": "2",
								"type": "t_bytes32"
							},
							{
								"astId": 287,
								"contract": "Smart Contracts/26_OptimisticL2RollUps.sol:OptimisticRollupSimulation",
								"label": "withdrawalRoot",
								"offset": 0,
								"slot": "3",
								"type": "t_bytes32"
							},
							{
								"astId": 289,
								"contract": "Smart Contracts/26_OptimisticL2RollUps.sol:OptimisticRollupSimulation",
								"label": "submittedAt",
								"offset": 0,
								"slot": "4",
								"type": "t_uint64"
							},
							{
								"astId": 291,
								"contract": "Smart Contracts/26_OptimisticL2RollUps.sol:OptimisticRollupSimulation",
								"label": "challenged",
								"offset": 8,
								"slot": "4",
								"type": "t_bool"
							},
							{
								"astId": 293,
								"contract": "Smart Contracts/26_OptimisticL2RollUps.sol:OptimisticRollupSimulation",
								"label": "finalized",
								"offset": 9,
								"slot": "4",
								"type": "t_bool"
							},
							{
								"astId": 295,
								"contract": "Smart Contracts/26_OptimisticL2RollUps.sol:OptimisticRollupSimulation",
								"label": "challenger",
								"offset": 10,
								"slot": "4",
								"type": "t_address"
							}
						],
						"numberOfBytes": "160"
					},
					"t_uint256": {
						"encoding": "inplace",
						"label": "uint256",
						"numberOfBytes": "32"
					},
					"t_uint64": {
						"encoding": "inplace",
						"label": "uint64",
						"numberOfBytes": "8"
					}
				}
			},
			"userdoc": {
				"kind": "user",
				"methods": {},
				"version": 1
			}
		}
	}
}