{
	"Smart Contracts/27_OptimisticL2RollUps.sol": {
		"OptimisticRollupSimulation": {
			"abi": [
				{
					"inputs": [
						{
							"internalType": "address",
							"name": "initialSequencer",
							"type": "address"
						},
						{
							"internalType": "address",
							"name": "initialFraudVerifier",
							"type": "address"
						},
						{
							"internalType": "uint256",
							"name": "_challengeWindow",
							"type": "uint256"
						},
						{
							"internalType": "uint256",
							"name": "_sequencerBond",
							"type": "uint256"
						},
						{
							"internalType": "uint256",
							"name": "_challengerBond",
							"type": "uint256"
						},
						{
							"internalType": "bytes32",
							"name": "genesisStateRoot",
							"type": "bytes32"
						}
					],
					"stateMutability": "nonpayable",
					"type": "constructor"
				},
				{
					"inputs": [],
					"name": "AlreadyChallenged",
					"type": "error"
				},
				{
					"inputs": [],
					"name": "BadBatch",
					"type": "error"
				},
				{
					"inputs": [],
					"name": "BatchAlreadyFinalized",
					"type": "error"
				},
				{
					"inputs": [],
					"name": "BatchNotFinalized",
					"type": "error"
				},
				{
					"inputs": [],
					"name": "BatchNotFound",
					"type": "error"
				},
				{
					"inputs": [],
					"name": "ChallengePeriodActive",
					"type": "error"
				},
				{
					"inputs": [],
					"name": "ChallengePeriodOver",
					"type": "error"
				},
				{
					"inputs": [],
					"name": "InvalidProof",
					"type": "error"
				},
				{
					"inputs": [],
					"name": "NotChallenger",
					"type": "error"
				},
				{
					"inputs": [],
					"name": "NotSequencer",
					"type": "error"
				},
				{
					"inputs": [
						{
							"internalType": "address",
							"name": "owner",
							"type": "address"
						}
					],
					"name": "OwnableInvalidOwner",
					"type": "error"
				},
				{
					"inputs": [
						{
							"internalType": "address",
							"name": "account",
							"type": "address"
						}
					],
					"name": "OwnableUnauthorizedAccount",
					"type": "error"
				},
				{
					"inputs": [
						{
							"internalType": "address",
							"name": "token",
							"type": "address"
						}
					],
					"name": "SafeERC20FailedOperation",
					"type": "error"
				},
				{
					"inputs": [],
					"name": "TransferFailed",
					"type": "error"
				},
				{
					"inputs": [],
					"name": "WithdrawalAlreadyClaimed",
					"type": "error"
				},
				{
					"inputs": [],
					"name": "ZeroAmount",
					"type": "error"
				},
				{
					"anonymous": false,
					"inputs": [
						{
							"indexed": true,
							"internalType": "uint256",
							"name": "batchId",
							"type": "uint256"
						},
						{
							"indexed": true,
							"internalType": "address",
							"name": "challenger",
							"type": "address"
						}
					],
					"name": "BatchChallenged",
					"type": "event"
				},
				{
					"anonymous": false,
					"inputs": [
						{
							"indexed": true,
							"internalType": "uint256",
							"name": "batchId",
							"type": "uint256"
						},
						{
							"indexed": true,
							"internalType": "bytes32",
							"name": "newStateRoot",
							"type": "bytes32"
						}
					],
					"name": "BatchFinalized",
					"type": "event"
				},
				{
					"anonymous": false,
					"inputs": [
						{
							"indexed": true,
							"internalType": "uint256",
							"name": "batchId",
							"type": "uint256"
						},
						{
							"indexed": true,
							"internalType": "bytes32",
							"name": "prevStateRoot",
							"type": "bytes32"
						},
						{
							"indexed": true,
							"internalType": "bytes32",
							"name": "newStateRoot",
							"type": "bytes32"
						},
						{
							"indexed": false,
							"internalType": "bytes32",
							"name": "txDataHash",
							"type": "bytes32"
						},
						{
							"indexed": false,
							"internalType": "bytes32",
							"name": "withdrawalRoot",
							"type": "bytes32"
						}
					],
					"name": "BatchSubmitted",
					"type": "event"
				},
				{
					"anonymous": false,
					"inputs": [
						{
							"indexed": true,
							"internalType": "address",
							"name": "who",
							"type": "address"
						},
						{
							"indexed": false,
							"internalType": "uint256",
							"name": "amount",
							"type": "uint256"
						}
					],
					"name": "Bonded",
					"type": "event"
				},
				{
					"anonymous": false,
					"inputs": [
						{
							"indexed": true,
							"internalType": "uint256",
							"name": "batchId",
							"type": "uint256"
						},
						{
							"indexed": false,
							"internalType": "bool",
							"name": "fraudProven",
							"type": "bool"
						}
					],
					"name": "ChallengeResolved",
					"type": "event"
				},
				{
					"anonymous": false,
					"inputs": [
						{
							"indexed": true,
							"internalType": "address",
							"name": "user",
							"type": "address"
						},
						{
							"indexed": true,
							"internalType": "address",
							"name": "token",
							"type": "address"
						},
						{
							"indexed": false,
							"internalType": "uint256",
							"name": "amount",
							"type": "uint256"
						},
						{
							"indexed": true,
							"internalType": "uint256",
							"name": "nonce",
							"type": "uint256"
						}
					],
					"name": "DepositERC20",
					"type": "event"
				},
				{
					"anonymous": false,
					"inputs": [
						{
							"indexed": true,
							"internalType": "address",
							"name": "user",
							"type": "address"
						},
						{
							"indexed": false,
							"internalType": "uint256",
							"name": "amount",
							"type": "uint256"
						},
						{
							"indexed": true,
							"internalType": "uint256",
							"name": "nonce",
							"type": "uint256"
						}
					],
					"name": "DepositETH",
					"type": "event"
				},
				{
					"anonymous": false,
					"inputs": [
						{
							"indexed": true,
							"internalType": "address",
							"name": "verifier",
							"type": "address"
						}
					],
					"name": "FraudVerifierUpdated",
					"type": "event"
				},
				{
					"anonymous": false,
					"inputs": [
						{
							"indexed": true,
							"internalType": "address",
							"name": "previousOwner",
							"type": "address"
						},
						{
							"indexed": true,
							"internalType": "address",
							"name": "newOwner",
							"type": "address"
						}
					],
					"name": "OwnershipTransferred",
					"type": "event"
				},
				{
					"anonymous": false,
					"inputs": [
						{
							"indexed": false,
							"internalType": "uint256",
							"name": "challengeWindow",
							"type": "uint256"
						},
						{
							"indexed": false,
							"internalType": "uint256",
							"name": "sequencerBond",
							"type": "uint256"
						},
						{
							"indexed": false,
							"internalType": "uint256",
							"name": "challengerBond",
							"type": "uint256"
						}
					],
					"name": "ParamsUpdated",
					"type": "event"
				},
				{
					"anonymous": false,
					"inputs": [
						{
							"indexed": false,
							"internalType": "address",
							"name": "account",
							"type": "address"
						}
					],
					"name": "Paused",
					"type": "event"
				},
				{
					"anonymous": false,
					"inputs": [
						{
							"indexed": true,
							"internalType": "address",
							"name": "oldSequencer",
							"type": "address"
						},
						{
							"indexed": true,
							"internalType": "address",
							"name": "newSequencer",
							"type": "address"
						}
					],
					"name": "SequencerUpdated",
					"type": "event"
				},
				{
					"anonymous": false,
					"inputs": [
						{
							"indexed": true,
							"internalType": "address",
							"name": "who",
							"type": "address"
						},
						{
							"indexed": false,
							"internalType": "uint256",
							"name": "amount",
							"type": "uint256"
						}
					],
					"name": "Unbonded",
					"type": "event"
				},
				{
					"anonymous": false,
					"inputs": [
						{
							"indexed": false,
							"internalType": "address",
							"name": "account",
							"type": "address"
						}
					],
					"name": "Unpaused",
					"type": "event"
				},
				{
					"anonymous": false,
					"inputs": [
						{
							"indexed": true,
							"internalType": "uint256",
							"name": "batchId",
							"type": "uint256"
						},
						{
							"indexed": true,
							"internalType": "address",
							"name": "user",
							"type": "address"
						},
						{
							"indexed": true,
							"internalType": "address",
							"name": "token",
							"type": "address"
						},
						{
							"indexed": false,
							"internalType": "uint256",
							"name": "amount",
							"type": "uint256"
						},
						{
							"indexed": false,
							"internalType": "uint256",
							"name": "nonce",
							"type": "uint256"
						}
					],
					"name": "WithdrawalClaimed",
					"type": "event"
				},
				{
					"inputs": [
						{
							"internalType": "uint256",
							"name": "batchId",
							"type": "uint256"
						}
					],
					"name": "batchStatus",
					"outputs": [
						{
							"internalType": "bool",
							"name": "exists",
							"type": "bool"
						},
						{
							"internalType": "bool",
							"name": "challenged",
							"type": "bool"
						},
						{
							"internalType": "bool",
							"name": "finalized",
							"type": "bool"
						},
						{
							"internalType": "uint256",
							"name": "submittedAt",
							"type": "uint256"
						},
						{
							"internalType": "uint256",
							"name": "challengeEndsAt",
							"type": "uint256"
						},
						{
							"internalType": "bytes32",
							"name": "prevRoot",
							"type": "bytes32"
						},
						{
							"internalType": "bytes32",
							"name": "newRoot",
							"type": "bytes32"
						},
						{
							"internalType": "bytes32",
							"name": "txHash",
							"type": "bytes32"
						},
						{
							"internalType": "bytes32",
							"name": "withdrawalRoot",
							"type": "bytes32"
						},
						{
							"internalType": "address",
							"name": "challenger",
							"type": "address"
						}
					],
					"stateMutability": "view",
					"type": "function"
				},
				{
					"inputs": [
						{
							"internalType": "uint256",
							"name": "",
							"type": "uint256"
						}
					],
					"name": "batches",
					"outputs": [
						{
							"internalType": "bytes32",
							"name": "prevStateRoot",
							"type": "bytes32"
						},
						{
							"internalType": "bytes32",
							"name": "newStateRoot",
							"type": "bytes32"
						},
						{
							"internalType": "bytes32",
							"name": "txDataHash",
							"type": "bytes32"
						},
						{
							"internalType": "bytes32",
							"name": "withdrawalRoot",
							"type": "bytes32"
						},
						{
							"internalType": "uint64",
							"name": "submittedAt",
							"type": "uint64"
						},
						{
							"internalType": "bool",
							"name": "challenged",
							"type": "bool"
						},
						{
							"internalType": "bool",
							"name": "finalized",
							"type": "bool"
						},
						{
							"internalType": "address",
							"name": "challenger",
							"type": "address"
						}
					],
					"stateMutability": "view",
					"type": "function"
				},
				{
					"inputs": [],
					"name": "bond",
					"outputs": [],
					"stateMutability": "payable",
					"type": "function"
				},
				{
					"inputs": [
						{
							"internalType": "address",
							"name": "",
							"type": "address"
						}
					],
					"name": "bonds",
					"outputs": [
						{
							"internalType": "uint256",
							"name": "",
							"type": "uint256"
						}
					],
					"stateMutability": "view",
					"type": "function"
				},
				{
					"inputs": [
						{
							"internalType": "uint256",
							"name": "batchId",
							"type": "uint256"
						}
					],
					"name": "challengeBatch",
					"outputs": [],
					"stateMutability": "nonpayable",
					"type": "function"
				},
				{
					"inputs": [],
					"name": "challengeWindow",
					"outputs": [
						{
							"internalType": "uint256",
							"name": "",
							"type": "uint256"
						}
					],
					"stateMutability": "view",
					"type": "function"
				},
				{
					"inputs": [],
					"name": "challengerBond",
					"outputs": [
						{
							"internalType": "uint256",
							"name": "",
							"type": "uint256"
						}
					],
					"stateMutability": "view",
					"type": "function"
				},
				{
					"inputs": [
						{
							"internalType": "uint256",
							"name": "batchId",
							"type": "uint256"
						},
						{
							"internalType": "address",
							"name": "token",
							"type": "address"
						},
						{
							"internalType": "uint256",
							"name": "amount",
							"type": "uint256"
						},
						{
							"internalType": "uint256",
							"name": "nonce",
							"type": "uint256"
						},
						{
							"internalType": "bytes32[]",
							"name": "merkleProof",
							"type": "bytes32[]"
						}
					],
					"name": "claimWithdrawal",
					"outputs": [],
					"stateMutability": "nonpayable",
					"type": "function"
				},
				{
					"inputs": [],
					"name": "currentStateRoot",
					"outputs": [
						{
							"internalType": "bytes32",
							"name": "",
							"type": "bytes32"
						}
					],
					"stateMutability": "view",
					"type": "function"
				},
				{
					"inputs": [
						{
							"internalType": "address",
							"name": "token",
							"type": "address"
						},
						{
							"internalType": "uint256",
							"name": "amount",
							"type": "uint256"
						}
					],
					"name": "depositERC20",
					"outputs": [],
					"stateMutability": "nonpayable",
					"type": "function"
				},
				{
					"inputs": [],
					"name": "depositETH",
					"outputs": [],
					"stateMutability": "payable",
					"type": "function"
				},
				{
					"inputs": [],
					"name": "depositNonce",
					"outputs": [
						{
							"internalType": "uint256",
							"name": "",
							"type": "uint256"
						}
					],
					"stateMutability": "view",
					"type": "function"
				},
				{
					"inputs": [
						{
							"internalType": "uint256",
							"name": "batchId",
							"type": "uint256"
						}
					],
					"name": "finalizeBatch",
					"outputs": [],
					"stateMutability": "nonpayable",
					"type": "function"
				},
				{
					"inputs": [],
					"name": "fraudVerifier",
					"outputs": [
						{
							"internalType": "contract IFraudProofVerifier",
							"name": "",
							"type": "address"
						}
					],
					"stateMutability": "view",
					"type": "function"
				},
				{
					"inputs": [],
					"name": "latestBatchId",
					"outputs": [
						{
							"internalType": "uint256",
							"name": "",
							"type": "uint256"
						}
					],
					"stateMutability": "view",
					"type": "function"
				},
				{
					"inputs": [],
					"name": "owner",
					"outputs": [
						{
							"internalType": "address",
							"name": "",
							"type": "address"
						}
					],
					"stateMutability": "view",
					"type": "function"
				},
				{
					"inputs": [],
					"name": "pause",
					"outputs": [],
					"stateMutability": "nonpayable",
					"type": "function"
				},
				{
					"inputs": [],
					"name": "paused",
					"outputs": [
						{
							"internalType": "bool",
							"name": "",
							"type": "bool"
						}
					],
					"stateMutability": "view",
					"type": "function"
				},
				{
					"inputs": [],
					"name": "renounceOwnership",
					"outputs": [],
					"stateMutability": "nonpayable",
					"type": "function"
				},
				{
					"inputs": [
						{
							"internalType": "uint256",
							"name": "batchId",
							"type": "uint256"
						},
						{
							"internalType": "bytes",
							"name": "proof",
							"type": "bytes"
						}
					],
					"name": "resolveChallenge",
					"outputs": [],
					"stateMutability": "nonpayable",
					"type": "function"
				},
				{
					"inputs": [],
					"name": "sequencer",
					"outputs": [
						{
							"internalType": "address",
							"name": "",
							"type": "address"
						}
					],
					"stateMutability": "view",
					"type": "function"
				},
				{
					"inputs": [],
					"name": "sequencerBond",
					"outputs": [
						{
							"internalType": "uint256",
							"name": "",
							"type": "uint256"
						}
					],
					"stateMutability": "view",
					"type": "function"
				},
				{
					"inputs": [
						{
							"internalType": "address",
							"name": "verifier",
							"type": "address"
						}
					],
					"name": "setFraudVerifier",
					"outputs": [],
					"stateMutability": "nonpayable",
					"type": "function"
				},
				{
					"inputs": [
						{
							"internalType": "uint256",
							"name": "_challengeWindow",
							"type": "uint256"
						},
						{
							"internalType": "uint256",
							"name": "_sequencerBond",
							"type": "uint256"
						},
						{
							"internalType": "uint256",
							"name": "_challengerBond",
							"type": "uint256"
						}
					],
					"name": "setParams",
					"outputs": [],
					"stateMutability": "nonpayable",
					"type": "function"
				},
				{
					"inputs": [
						{
							"internalType": "address",
							"name": "newSequencer",
							"type": "address"
						}
					],
					"name": "setSequencer",
					"outputs": [],
					"stateMutability": "nonpayable",
					"type": "function"
				},
				{
					"inputs": [
						{
							"internalType": "bytes32",
							"name": "newStateRoot",
							"type": "bytes32"
						},
						{
							"internalType": "bytes32",
							"name": "txDataHash",
							"type": "bytes32"
						},
						{
							"internalType": "bytes32",
							"name": "withdrawalRoot",
							"type": "bytes32"
						}
					],
					"name": "submitBatch",
					"outputs": [],
					"stateMutability": "nonpayable",
					"type": "function"
				},
				{
					"inputs": [
						{
							"internalType": "address",
							"name": "newOwner",
							"type": "address"
						}
					],
					"name": "transferOwnership",
					"outputs": [],
					"stateMutability": "nonpayable",
					"type": "function"
				},
				{
					"inputs": [
						{
							"internalType": "uint256",
							"name": "amount",
							"type": "uint256"
						}
					],
					"name": "unbond",
					"outputs": [],
					"stateMutability": "nonpayable",
					"type": "function"
				},
				{
					"inputs": [],
					"name": "unpause",
					"outputs": [],
					"stateMutability": "nonpayable",
					"type": "function"
				},
				{
					"inputs": [
						{
							"internalType": "uint256",
							"name": "",
							"type": "uint256"
						},
						{
							"internalType": "bytes32",
							"name": "",
							"type": "bytes32"
						}
					],
					"name": "withdrawalClaimed",
					"outputs": [
						{
							"internalType": "bool",
							"name": "",
							"type": "bool"
						}
					],
					"stateMutability": "view",
					"type": "function"
				},
				{
					"stateMutability": "payable",
					"type": "receive"
				}
			],
			"devdoc": {
				"errors": {
					"OwnableInvalidOwner(address)": [
						{
							"details": "The owner is not a valid owner account. (eg. `address(0)`)"
						}
					],
					"OwnableUnauthorizedAccount(address)": [
						{
							"details": "The caller account is not authorized to perform an operation."
						}
					],
					"SafeERC20FailedOperation(address)": [
						{
							"details": "An operation with an ERC-20 token failed."
						}
					]
				},
				"events": {
					"Paused(address)": {
						"details": "Emitted when the pause is triggered by `account`."
					},
					"Unpaused(address)": {
						"details": "Emitted when the pause is lifted by `account`."
					}
				},
				"kind": "dev",
				"methods": {
					"owner()": {
						"details": "Returns the address of the current owner."
					},
					"paused()": {
						"details": "Returns true if the contract is paused, and false otherwise."
					},
					"renounceOwnership()": {
						"details": "Leaves the contract without owner. It will not be possible to call `onlyOwner` functions. Can only be called by the current owner. NOTE: Renouncing ownership will leave the contract without an owner, thereby disabling any functionality that is only available to the owner."
					},
					"transferOwnership(address)": {
						"details": "Transfers ownership of the contract to a new account (`newOwner`). Can only be called by the current owner."
					}
				},
				"version": 1
			},
			"evm": {
				"assembly": "    /* \"Smart Contracts/27_OptimisticL2RollUps.sol\":1323:12734  contract OptimisticRollupSimulation is Ownable, Pausable, ReentrancyGuard {... */\n  mstore(0x40, 0x80)\n    /* \"Smart Contracts/27_OptimisticL2RollUps.sol\":4129:4743  constructor(... */\n  callvalue\n  dup1\n  iszero\n  tag_1\n  jumpi\n  revert(0x00, 0x00)\ntag_1:\n  pop\n  mload(0x40)\n  sub(codesize, bytecodeSize)\n  dup1\n  bytecodeSize\n  dup4\n  codecopy\n  dup2\n  dup2\n  add\n  0x40\n  mstore\n  dup2\n  add\n  swap1\n  tag_2\n  swap2\n  swap1\n  tag_3\n  jump\t// in\ntag_2:\n    /* \"Smart Contracts/27_OptimisticL2RollUps.sol\":4367:4377  msg.sender */\n  caller\n    /* \"@openzeppelin/contracts/access/Ownable.sol\":1297:1298  0 */\n  0x00\n    /* \"@openzeppelin/contracts/access/Ownable.sol\":1273:1299  initialOwner == address(0) */\n  0xffffffffffffffffffffffffffffffffffffffff\n  and\n    /* \"@openzeppelin/contracts/access/Ownable.sol\":1273:1285  initialOwner */\n  dup2\n    /* \"@openzeppelin/contracts/access/Ownable.sol\":1273:1299  initialOwner == address(0) */\n  0xffffffffffffffffffffffffffffffffffffffff\n  and\n  sub\n    /* \"@openzeppelin/contracts/access/Ownable.sol\":1269:1364  if (initialOwner == address(0)) {... */\n  tag_9\n  jumpi\n    /* \"@openzeppelin/contracts/access/Ownable.sol\":1350:1351  0 */\n  0x00\n    /* \"@openzeppelin/contracts/access/Ownable.sol\":1322:1353  OwnableInvalidOwner(address(0)) */\n  mload(0x40)\n  0x1e4fbdf700000000000000000000000000000000000000000000000000000000\n  dup2\n  mstore\n  0x04\n  add\n  tag_10\n  swap2\n  swap1\n  tag_11\n  jump\t// in\ntag_10:\n  mload(0x40)\n  dup1\n  swap2\n  sub\n  swap1\n  revert\n    /* \"@openzeppelin/contracts/access/Ownable.sol\":1269:1364  if (initialOwner == address(0)) {... */\ntag_9:\n    /* \"@openzeppelin/contracts/access/Ownable.sol\":1373:1405  _transferOwnership(initialOwner) */\n  tag_12\n    /* \"@openzeppelin/contracts/access/Ownable.sol\":1392:1404  initialOwner */\n  dup2\n    /* \"@openzeppelin/contracts/access/Ownable.sol\":1373:1391  _transferOwnership */\n  shl(0x20, tag_13)\n    /* \"@openzeppelin/contracts/access/Ownable.sol\":1373:1405  _transferOwnership(initialOwner) */\n  0x20\n  shr\n  jump\t// in\ntag_12:\n    /* \"@openzeppelin/contracts/access/Ownable.sol\":1225:1412  constructor(address initialOwner) {... */\n  pop\n    /* \"@openzeppelin/contracts/security/Pausable.sol\":1006:1011  false */\n  0x00\n    /* \"@openzeppelin/contracts/security/Pausable.sol\":996:1003  _paused */\n  0x00\n  0x14\n    /* \"@openzeppelin/contracts/security/Pausable.sol\":996:1011  _paused = false */\n  0x0100\n  exp\n  dup2\n  sload\n  dup2\n  0xff\n  mul\n  not\n  and\n  swap1\n  dup4\n  iszero\n  iszero\n  mul\n  or\n  swap1\n  sstore\n  pop\n    /* \"@openzeppelin/contracts/security/ReentrancyGuard.sol\":1716:1717  1 */\n  0x01\n    /* \"@openzeppelin/contracts/security/ReentrancyGuard.sol\":1821:1828  _status */\n  dup1\n    /* \"@openzeppelin/contracts/security/ReentrancyGuard.sol\":1821:1843  _status = _NOT_ENTERED */\n  dup2\n  swap1\n  sstore\n  pop\n    /* \"Smart Contracts/27_OptimisticL2RollUps.sol\":4426:4427  0 */\n  0x00\n    /* \"Smart Contracts/27_OptimisticL2RollUps.sol\":4398:4428  initialSequencer != address(0) */\n  0xffffffffffffffffffffffffffffffffffffffff\n  and\n    /* \"Smart Contracts/27_OptimisticL2RollUps.sol\":4398:4414  initialSequencer */\n  dup7\n    /* \"Smart Contracts/27_OptimisticL2RollUps.sol\":4398:4428  initialSequencer != address(0) */\n  0xffffffffffffffffffffffffffffffffffffffff\n  and\n  sub\n    /* \"Smart Contracts/27_OptimisticL2RollUps.sol\":4390:4447  require(initialSequencer != address(0), \"ZERO_SEQUENCER\") */\n  tag_17\n  jumpi\n  mload(0x40)\n  0x08c379a000000000000000000000000000000000000000000000000000000000\n  dup2\n  mstore\n  0x04\n  add\n  tag_18\n  swap1\n  tag_19\n  jump\t// in\ntag_18:\n  mload(0x40)\n  dup1\n  swap2\n  sub\n  swap1\n  revert\ntag_17:\n    /* \"Smart Contracts/27_OptimisticL2RollUps.sol\":4472:4488  initialSequencer */\n  dup6\n    /* \"Smart Contracts/27_OptimisticL2RollUps.sol\":4460:4469  sequencer */\n  0x02\n  0x00\n    /* \"Smart Contracts/27_OptimisticL2RollUps.sol\":4460:4488  sequencer = initialSequencer */\n  0x0100\n  exp\n  dup2\n  sload\n  dup2\n  0xffffffffffffffffffffffffffffffffffffffff\n  mul\n  not\n  and\n  swap1\n  dup4\n  0xffffffffffffffffffffffffffffffffffffffff\n  and\n  mul\n  or\n  swap1\n  sstore\n  pop\n    /* \"Smart Contracts/27_OptimisticL2RollUps.sol\":4535:4555  initialFraudVerifier */\n  dup5\n    /* \"Smart Contracts/27_OptimisticL2RollUps.sol\":4499:4512  fraudVerifier */\n  0x03\n  0x00\n    /* \"Smart Contracts/27_OptimisticL2RollUps.sol\":4499:4556  fraudVerifier = IFraudProofVerifier(initialFraudVerifier) */\n  0x0100\n  exp\n  dup2\n  sload\n  dup2\n  0xffffffffffffffffffffffffffffffffffffffff\n  mul\n  not\n  and\n  swap1\n  dup4\n  0xffffffffffffffffffffffffffffffffffffffff\n  and\n  mul\n  or\n  swap1\n  sstore\n  pop\n    /* \"Smart Contracts/27_OptimisticL2RollUps.sol\":4587:4603  _challengeWindow */\n  dup4\n    /* \"Smart Contracts/27_OptimisticL2RollUps.sol\":4569:4584  challengeWindow */\n  0x06\n    /* \"Smart Contracts/27_OptimisticL2RollUps.sol\":4569:4603  challengeWindow = _challengeWindow */\n  dup2\n  swap1\n  sstore\n  pop\n    /* \"Smart Contracts/27_OptimisticL2RollUps.sol\":4630:4644  _sequencerBond */\n  dup3\n    /* \"Smart Contracts/27_OptimisticL2RollUps.sol\":4614:4627  sequencerBond */\n  0x04\n    /* \"Smart Contracts/27_OptimisticL2RollUps.sol\":4614:4644  sequencerBond = _sequencerBond */\n  dup2\n  swap1\n  sstore\n  pop\n    /* \"Smart Contracts/27_OptimisticL2RollUps.sol\":4672:4687  _challengerBond */\n  dup2\n    /* \"Smart Contracts/27_OptimisticL2RollUps.sol\":4655:4669  challengerBond */\n  0x05\n    /* \"Smart Contracts/27_OptimisticL2RollUps.sol\":4655:4687  challengerBond = _challengerBond */\n  dup2\n  swap1\n  sstore\n  pop\n    /* \"Smart Contracts/27_OptimisticL2RollUps.sol\":4719:4735  genesisStateRoot */\n  dup1\n    /* \"Smart Contracts/27_OptimisticL2RollUps.sol\":4700:4716  currentStateRoot */\n  0x0a\n    /* \"Smart Contracts/27_OptimisticL2RollUps.sol\":4700:4735  currentStateRoot = genesisStateRoot */\n  dup2\n  swap1\n  sstore\n  pop\n    /* \"Smart Contracts/27_OptimisticL2RollUps.sol\":4129:4743  constructor(... */\n  pop\n  pop\n  pop\n  pop\n  pop\n  pop\n    /* \"Smart Contracts/27_OptimisticL2RollUps.sol\":1323:12734  contract OptimisticRollupSimulation is Ownable, Pausable, ReentrancyGuard {... */\n  jump(tag_20)\n    /* \"@openzeppelin/contracts/access/Ownable.sol\":2912:3099  function _transferOwnership(address newOwner) internal virtual {... */\ntag_13:\n    /* \"@openzeppelin/contracts/access/Ownable.sol\":2985:3001  address oldOwner */\n  0x00\n    /* \"@openzeppelin/contracts/access/Ownable.sol\":3004:3010  _owner */\n  0x00\n  0x00\n  swap1\n  sload\n  swap1\n  0x0100\n  exp\n  swap1\n  div\n  0xffffffffffffffffffffffffffffffffffffffff\n  and\n    /* \"@openzeppelin/contracts/access/Ownable.sol\":2985:3010  address oldOwner = _owner */\n  swap1\n  pop\n    /* \"@openzeppelin/contracts/access/Ownable.sol\":3029:3037  newOwner */\n  dup2\n    /* \"@openzeppelin/contracts/access/Ownable.sol\":3020:3026  _owner */\n  0x00\n  0x00\n    /* \"@openzeppelin/contracts/access/Ownable.sol\":3020:3037  _owner = newOwner */\n  0x0100\n  exp\n  dup2\n  sload\n  dup2\n  0xffffffffffffffffffffffffffffffffffffffff\n  mul\n  not\n  and\n  swap1\n  dup4\n  0xffffffffffffffffffffffffffffffffffffffff\n  and\n  mul\n  or\n  swap1\n  sstore\n  pop\n    /* \"@openzeppelin/contracts/access/Ownable.sol\":3083:3091  newOwner */\n  dup2\n    /* \"@openzeppelin/contracts/access/Ownable.sol\":3052:3092  OwnershipTransferred(oldOwner, newOwner) */\n  0xffffffffffffffffffffffffffffffffffffffff\n  and\n    /* \"@openzeppelin/contracts/access/Ownable.sol\":3073:3081  oldOwner */\n  dup2\n    /* \"@openzeppelin/contracts/access/Ownable.sol\":3052:3092  OwnershipTransferred(oldOwner, newOwner) */\n  0xffffffffffffffffffffffffffffffffffffffff\n  and\n  0x8be0079c531659141344cd1fd0a4f28419497f9722a3daafe3b4186f6b6457e0\n  mload(0x40)\n  mload(0x40)\n  dup1\n  swap2\n  sub\n  swap1\n  log3\n    /* \"@openzeppelin/contracts/access/Ownable.sol\":2975:3099  {... */\n  pop\n    /* \"@openzeppelin/contracts/access/Ownable.sol\":2912:3099  function _transferOwnership(address newOwner) internal virtual {... */\n  pop\n  jump\t// out\n    /* \"#utility.yul\":88:205   */\ntag_23:\n    /* \"#utility.yul\":197:198   */\n  0x00\n    /* \"#utility.yul\":194:195   */\n  0x00\n    /* \"#utility.yul\":187:199   */\n  revert\n    /* \"#utility.yul\":334:460   */\ntag_25:\n    /* \"#utility.yul\":371:378   */\n  0x00\n    /* \"#utility.yul\":411:453   */\n  0xffffffffffffffffffffffffffffffffffffffff\n    /* \"#utility.yul\":404:409   */\n  dup3\n    /* \"#utility.yul\":400:454   */\n  and\n    /* \"#utility.yul\":389:454   */\n  swap1\n  pop\n    /* \"#utility.yul\":334:460   */\n  swap2\n  swap1\n  pop\n  jump\t// out\n    /* \"#utility.yul\":466:562   */\ntag_26:\n    /* \"#utility.yul\":503:510   */\n  0x00\n    /* \"#utility.yul\":532:556   */\n  tag_45\n    /* \"#utility.yul\":550:555   */\n  dup3\n    /* \"#utility.yul\":532:556   */\n  tag_25\n  jump\t// in\ntag_45:\n    /* \"#utility.yul\":521:556   */\n  swap1\n  pop\n    /* \"#utility.yul\":466:562   */\n  swap2\n  swap1\n  pop\n  jump\t// out\n    /* \"#utility.yul\":568:690   */\ntag_27:\n    /* \"#utility.yul\":641:665   */\n  tag_47\n    /* \"#utility.yul\":659:664   */\n  dup2\n    /* \"#utility.yul\":641:665   */\n  tag_26\n  jump\t// in\ntag_47:\n    /* \"#utility.yul\":634:639   */\n  dup2\n    /* \"#utility.yul\":631:666   */\n  eq\n    /* \"#utility.yul\":621:684   */\n  tag_48\n  jumpi\n    /* \"#utility.yul\":680:681   */\n  0x00\n    /* \"#utility.yul\":677:678   */\n  0x00\n    /* \"#utility.yul\":670:682   */\n  revert\n    /* \"#utility.yul\":621:684   */\ntag_48:\n    /* \"#utility.yul\":568:690   */\n  pop\n  jump\t// out\n    /* \"#utility.yul\":696:839   */\ntag_28:\n    /* \"#utility.yul\":753:758   */\n  0x00\n    /* \"#utility.yul\":784:790   */\n  dup2\n    /* \"#utility.yul\":778:791   */\n  mload\n    /* \"#utility.yul\":769:791   */\n  swap1\n  pop\n    /* \"#utility.yul\":800:833   */\n  tag_50\n    /* \"#utility.yul\":827:832   */\n  dup2\n    /* \"#utility.yul\":800:833   */\n  tag_27\n  jump\t// in\ntag_50:\n    /* \"#utility.yul\":696:839   */\n  swap3\n  swap2\n  pop\n  pop\n  jump\t// out\n    /* \"#utility.yul\":845:922   */\ntag_29:\n    /* \"#utility.yul\":882:889   */\n  0x00\n    /* \"#utility.yul\":911:916   */\n  dup2\n    /* \"#utility.yul\":900:916   */\n  swap1\n  pop\n    /* \"#utility.yul\":845:922   */\n  swap2\n  swap1\n  pop\n  jump\t// out\n    /* \"#utility.yul\":928:1050   */\ntag_30:\n    /* \"#utility.yul\":1001:1025   */\n  tag_53\n    /* \"#utility.yul\":1019:1024   */\n  dup2\n    /* \"#utility.yul\":1001:1025   */\n  tag_29\n  jump\t// in\ntag_53:\n    /* \"#utility.yul\":994:999   */\n  dup2\n    /* \"#utility.yul\":991:1026   */\n  eq\n    /* \"#utility.yul\":981:1044   */\n  tag_54\n  jumpi\n    /* \"#utility.yul\":1040:1041   */\n  0x00\n    /* \"#utility.yul\":1037:1038   */\n  0x00\n    /* \"#utility.yul\":1030:1042   */\n  revert\n    /* \"#utility.yul\":981:1044   */\ntag_54:\n    /* \"#utility.yul\":928:1050   */\n  pop\n  jump\t// out\n    /* \"#utility.yul\":1056:1199   */\ntag_31:\n    /* \"#utility.yul\":1113:1118   */\n  0x00\n    /* \"#utility.yul\":1144:1150   */\n  dup2\n    /* \"#utility.yul\":1138:1151   */\n  mload\n    /* \"#utility.yul\":1129:1151   */\n  swap1\n  pop\n    /* \"#utility.yul\":1160:1193   */\n  tag_56\n    /* \"#utility.yul\":1187:1192   */\n  dup2\n    /* \"#utility.yul\":1160:1193   */\n  tag_30\n  jump\t// in\ntag_56:\n    /* \"#utility.yul\":1056:1199   */\n  swap3\n  swap2\n  pop\n  pop\n  jump\t// out\n    /* \"#utility.yul\":1205:1282   */\ntag_32:\n    /* \"#utility.yul\":1242:1249   */\n  0x00\n    /* \"#utility.yul\":1271:1276   */\n  dup2\n    /* \"#utility.yul\":1260:1276   */\n  swap1\n  pop\n    /* \"#utility.yul\":1205:1282   */\n  swap2\n  swap1\n  pop\n  jump\t// out\n    /* \"#utility.yul\":1288:1410   */\ntag_33:\n    /* \"#utility.yul\":1361:1385   */\n  tag_59\n    /* \"#utility.yul\":1379:1384   */\n  dup2\n    /* \"#utility.yul\":1361:1385   */\n  tag_32\n  jump\t// in\ntag_59:\n    /* \"#utility.yul\":1354:1359   */\n  dup2\n    /* \"#utility.yul\":1351:1386   */\n  eq\n    /* \"#utility.yul\":1341:1404   */\n  tag_60\n  jumpi\n    /* \"#utility.yul\":1400:1401   */\n  0x00\n    /* \"#utility.yul\":1397:1398   */\n  0x00\n    /* \"#utility.yul\":1390:1402   */\n  revert\n    /* \"#utility.yul\":1341:1404   */\ntag_60:\n    /* \"#utility.yul\":1288:1410   */\n  pop\n  jump\t// out\n    /* \"#utility.yul\":1416:1559   */\ntag_34:\n    /* \"#utility.yul\":1473:1478   */\n  0x00\n    /* \"#utility.yul\":1504:1510   */\n  dup2\n    /* \"#utility.yul\":1498:1511   */\n  mload\n    /* \"#utility.yul\":1489:1511   */\n  swap1\n  pop\n    /* \"#utility.yul\":1520:1553   */\n  tag_62\n    /* \"#utility.yul\":1547:1552   */\n  dup2\n    /* \"#utility.yul\":1520:1553   */\n  tag_33\n  jump\t// in\ntag_62:\n    /* \"#utility.yul\":1416:1559   */\n  swap3\n  swap2\n  pop\n  pop\n  jump\t// out\n    /* \"#utility.yul\":1565:2699   */\ntag_3:\n    /* \"#utility.yul\":1680:1686   */\n  0x00\n    /* \"#utility.yul\":1688:1694   */\n  0x00\n    /* \"#utility.yul\":1696:1702   */\n  0x00\n    /* \"#utility.yul\":1704:1710   */\n  0x00\n    /* \"#utility.yul\":1712:1718   */\n  0x00\n    /* \"#utility.yul\":1720:1726   */\n  0x00\n    /* \"#utility.yul\":1769:1772   */\n  0xc0\n    /* \"#utility.yul\":1757:1766   */\n  dup8\n    /* \"#utility.yul\":1748:1755   */\n  dup10\n    /* \"#utility.yul\":1744:1767   */\n  sub\n    /* \"#utility.yul\":1740:1773   */\n  slt\n    /* \"#utility.yul\":1737:1857   */\n  iszero\n  tag_64\n  jumpi\n    /* \"#utility.yul\":1776:1855   */\n  tag_65\n  tag_23\n  jump\t// in\ntag_65:\n    /* \"#utility.yul\":1737:1857   */\ntag_64:\n    /* \"#utility.yul\":1896:1897   */\n  0x00\n    /* \"#utility.yul\":1921:1985   */\n  tag_66\n    /* \"#utility.yul\":1977:1984   */\n  dup10\n    /* \"#utility.yul\":1968:1974   */\n  dup3\n    /* \"#utility.yul\":1957:1966   */\n  dup11\n    /* \"#utility.yul\":1953:1975   */\n  add\n    /* \"#utility.yul\":1921:1985   */\n  tag_28\n  jump\t// in\ntag_66:\n    /* \"#utility.yul\":1911:1985   */\n  swap7\n  pop\n    /* \"#utility.yul\":1867:1995   */\n  pop\n    /* \"#utility.yul\":2034:2036   */\n  0x20\n    /* \"#utility.yul\":2060:2124   */\n  tag_67\n    /* \"#utility.yul\":2116:2123   */\n  dup10\n    /* \"#utility.yul\":2107:2113   */\n  dup3\n    /* \"#utility.yul\":2096:2105   */\n  dup11\n    /* \"#utility.yul\":2092:2114   */\n  add\n    /* \"#utility.yul\":2060:2124   */\n  tag_28\n  jump\t// in\ntag_67:\n    /* \"#utility.yul\":2050:2124   */\n  swap6\n  pop\n    /* \"#utility.yul\":2005:2134   */\n  pop\n    /* \"#utility.yul\":2173:2175   */\n  0x40\n    /* \"#utility.yul\":2199:2263   */\n  tag_68\n    /* \"#utility.yul\":2255:2262   */\n  dup10\n    /* \"#utility.yul\":2246:2252   */\n  dup3\n    /* \"#utility.yul\":2235:2244   */\n  dup11\n    /* \"#utility.yul\":2231:2253   */\n  add\n    /* \"#utility.yul\":2199:2263   */\n  tag_31\n  jump\t// in\ntag_68:\n    /* \"#utility.yul\":2189:2263   */\n  swap5\n  pop\n    /* \"#utility.yul\":2144:2273   */\n  pop\n    /* \"#utility.yul\":2312:2314   */\n  0x60\n    /* \"#utility.yul\":2338:2402   */\n  tag_69\n    /* \"#utility.yul\":2394:2401   */\n  dup10\n    /* \"#utility.yul\":2385:2391   */\n  dup3\n    /* \"#utility.yul\":2374:2383   */\n  dup11\n    /* \"#utility.yul\":2370:2392   */\n  add\n    /* \"#utility.yul\":2338:2402   */\n  tag_31\n  jump\t// in\ntag_69:\n    /* \"#utility.yul\":2328:2402   */\n  swap4\n  pop\n    /* \"#utility.yul\":2283:2412   */\n  pop\n    /* \"#utility.yul\":2451:2454   */\n  0x80\n    /* \"#utility.yul\":2478:2542   */\n  tag_70\n    /* \"#utility.yul\":2534:2541   */\n  dup10\n    /* \"#utility.yul\":2525:2531   */\n  dup3\n    /* \"#utility.yul\":2514:2523   */\n  dup11\n    /* \"#utility.yul\":2510:2532   */\n  add\n    /* \"#utility.yul\":2478:2542   */\n  tag_31\n  jump\t// in\ntag_70:\n    /* \"#utility.yul\":2468:2542   */\n  swap3\n  pop\n    /* \"#utility.yul\":2422:2552   */\n  pop\n    /* \"#utility.yul\":2591:2594   */\n  0xa0\n    /* \"#utility.yul\":2618:2682   */\n  tag_71\n    /* \"#utility.yul\":2674:2681   */\n  dup10\n    /* \"#utility.yul\":2665:2671   */\n  dup3\n    /* \"#utility.yul\":2654:2663   */\n  dup11\n    /* \"#utility.yul\":2650:2672   */\n  add\n    /* \"#utility.yul\":2618:2682   */\n  tag_34\n  jump\t// in\ntag_71:\n    /* \"#utility.yul\":2608:2682   */\n  swap2\n  pop\n    /* \"#utility.yul\":2562:2692   */\n  pop\n    /* \"#utility.yul\":1565:2699   */\n  swap3\n  swap6\n  pop\n  swap3\n  swap6\n  pop\n  swap3\n  swap6\n  jump\t// out\n    /* \"#utility.yul\":2705:2823   */\ntag_35:\n    /* \"#utility.yul\":2792:2816   */\n  tag_73\n    /* \"#utility.yul\":2810:2815   */\n  dup2\n    /* \"#utility.yul\":2792:2816   */\n  tag_26\n  jump\t// in\ntag_73:\n    /* \"#utility.yul\":2787:2790   */\n  dup3\n    /* \"#utility.yul\":2780:2817   */\n  mstore\n    /* \"#utility.yul\":2705:2823   */\n  pop\n  pop\n  jump\t// out\n    /* \"#utility.yul\":2829:3051   */\ntag_11:\n    /* \"#utility.yul\":2922:2926   */\n  0x00\n    /* \"#utility.yul\":2960:2962   */\n  0x20\n    /* \"#utility.yul\":2949:2958   */\n  dup3\n    /* \"#utility.yul\":2945:2963   */\n  add\n    /* \"#utility.yul\":2937:2963   */\n  swap1\n  pop\n    /* \"#utility.yul\":2973:3044   */\n  tag_75\n    /* \"#utility.yul\":3041:3042   */\n  0x00\n    /* \"#utility.yul\":3030:3039   */\n  dup4\n    /* \"#utility.yul\":3026:3043   */\n  add\n    /* \"#utility.yul\":3017:3023   */\n  dup5\n    /* \"#utility.yul\":2973:3044   */\n  tag_35\n  jump\t// in\ntag_75:\n    /* \"#utility.yul\":2829:3051   */\n  swap3\n  swap2\n  pop\n  pop\n  jump\t// out\n    /* \"#utility.yul\":3057:3226   */\ntag_36:\n    /* \"#utility.yul\":3141:3152   */\n  0x00\n    /* \"#utility.yul\":3175:3181   */\n  dup3\n    /* \"#utility.yul\":3170:3173   */\n  dup3\n    /* \"#utility.yul\":3163:3182   */\n  mstore\n    /* \"#utility.yul\":3215:3219   */\n  0x20\n    /* \"#utility.yul\":3210:3213   */\n  dup3\n    /* \"#utility.yul\":3206:3220   */\n  add\n    /* \"#utility.yul\":3191:3220   */\n  swap1\n  pop\n    /* \"#utility.yul\":3057:3226   */\n  swap3\n  swap2\n  pop\n  pop\n  jump\t// out\n    /* \"#utility.yul\":3232:3396   */\ntag_37:\n    /* \"#utility.yul\":3372:3388   */\n  0x5a45524f5f53455155454e434552000000000000000000000000000000000000\n    /* \"#utility.yul\":3368:3369   */\n  0x00\n    /* \"#utility.yul\":3360:3366   */\n  dup3\n    /* \"#utility.yul\":3356:3370   */\n  add\n    /* \"#utility.yul\":3349:3389   */\n  mstore\n    /* \"#utility.yul\":3232:3396   */\n  pop\n  jump\t// out\n    /* \"#utility.yul\":3402:3768   */\ntag_38:\n    /* \"#utility.yul\":3544:3547   */\n  0x00\n    /* \"#utility.yul\":3565:3632   */\n  tag_79\n    /* \"#utility.yul\":3629:3631   */\n  0x0e\n    /* \"#utility.yul\":3624:3627   */\n  dup4\n    /* \"#utility.yul\":3565:3632   */\n  tag_36\n  jump\t// in\ntag_79:\n    /* \"#utility.yul\":3558:3632   */\n  swap2\n  pop\n    /* \"#utility.yul\":3641:3734   */\n  tag_80\n    /* \"#utility.yul\":3730:3733   */\n  dup3\n    /* \"#utility.yul\":3641:3734   */\n  tag_37\n  jump\t// in\ntag_80:\n    /* \"#utility.yul\":3759:3761   */\n  0x20\n    /* \"#utility.yul\":3754:3757   */\n  dup3\n    /* \"#utility.yul\":3750:3762   */\n  add\n    /* \"#utility.yul\":3743:3762   */\n  swap1\n  pop\n    /* \"#utility.yul\":3402:3768   */\n  swap2\n  swap1\n  pop\n  jump\t// out\n    /* \"#utility.yul\":3774:4193   */\ntag_19:\n    /* \"#utility.yul\":3940:3944   */\n  0x00\n    /* \"#utility.yul\":3978:3980   */\n  0x20\n    /* \"#utility.yul\":3967:3976   */\n  dup3\n    /* \"#utility.yul\":3963:3981   */\n  add\n    /* \"#utility.yul\":3955:3981   */\n  swap1\n  pop\n    /* \"#utility.yul\":4027:4036   */\n  dup2\n    /* \"#utility.yul\":4021:4025   */\n  dup2\n    /* \"#utility.yul\":4017:4037   */\n  sub\n    /* \"#utility.yul\":4013:4014   */\n  0x00\n    /* \"#utility.yul\":4002:4011   */\n  dup4\n    /* \"#utility.yul\":3998:4015   */\n  add\n    /* \"#utility.yul\":3991:4038   */\n  mstore\n    /* \"#utility.yul\":4055:4186   */\n  tag_82\n    /* \"#utility.yul\":4181:4185   */\n  dup2\n    /* \"#utility.yul\":4055:4186   */\n  tag_38\n  jump\t// in\ntag_82:\n    /* \"#utility.yul\":4047:4186   */\n  swap1\n  pop\n    /* \"#utility.yul\":3774:4193   */\n  swap2\n  swap1\n  pop\n  jump\t// out\n    /* \"Smart Contracts/27_OptimisticL2RollUps.sol\":1323:12734  contract OptimisticRollupSimulation is Ownable, Pausable, ReentrancyGuard {... */\ntag_20:\n  dataSize(sub_0)\n  dup1\n  dataOffset(sub_0)\n  0x00\n  codecopy\n  0x00\n  return\nstop\n\nsub_0: assembly {\n        /* \"Smart Contracts/27_OptimisticL2RollUps.sol\":1323:12734  contract OptimisticRollupSimulation is Ownable, Pausable, ReentrancyGuard {... */\n      mstore(0x40, 0x80)\n      jumpi(tag_1, lt(calldatasize, 0x04))\n      shr(0xe0, calldataload(0x00))\n      dup1\n      0x7b6605c5\n      gt\n      tag_33\n      jumpi\n      dup1\n      0xac2eba98\n      gt\n      tag_34\n      jumpi\n      dup1\n      0xe7b417a6\n      gt\n      tag_35\n      jumpi\n      dup1\n      0xe7b417a6\n      eq\n      tag_29\n      jumpi\n      dup1\n      0xf2fde38b\n      eq\n      tag_30\n      jumpi\n      dup1\n      0xf6326fb3\n      eq\n      tag_31\n      jumpi\n      dup1\n      0xfe10d774\n      eq\n      tag_32\n      jumpi\n      jump(tag_2)\n    tag_35:\n      dup1\n      0xac2eba98\n      eq\n      tag_25\n      jumpi\n      dup1\n      0xb32c4d8d\n      eq\n      tag_26\n      jumpi\n      dup1\n      0xde35f5cb\n      eq\n      tag_27\n      jumpi\n      dup1\n      0xe33491a7\n      eq\n      tag_28\n      jumpi\n      jump(tag_2)\n    tag_34:\n      dup1\n      0x8da5cb5b\n      gt\n      tag_36\n      jumpi\n      dup1\n      0x8da5cb5b\n      eq\n      tag_21\n      jumpi\n      dup1\n      0x8fe0c544\n      eq\n      tag_22\n      jumpi\n      dup1\n      0x97feb926\n      eq\n      tag_23\n      jumpi\n      dup1\n      0xa8608d18\n      eq\n      tag_24\n      jumpi\n      jump(tag_2)\n    tag_36:\n      dup1\n      0x7b6605c5\n      eq\n      tag_18\n      jumpi\n      dup1\n      0x8456cb59\n      eq\n      tag_19\n      jumpi\n      dup1\n      0x861a1412\n      eq\n      tag_20\n      jumpi\n      jump(tag_2)\n    tag_33:\n      dup1\n      0x5a0ce676\n      gt\n      tag_37\n      jumpi\n      dup1\n      0x64c9ec6f\n      gt\n      tag_38\n      jumpi\n      dup1\n      0x64c9ec6f\n      eq\n      tag_14\n      jumpi\n      dup1\n      0x67f4f4eb\n      eq\n      tag_15\n      jumpi\n      dup1\n      0x68ccdc86\n      eq\n      tag_16\n      jumpi\n      dup1\n      0x715018a6\n      eq\n      tag_17\n      jumpi\n      jump(tag_2)\n    tag_38:\n      dup1\n      0x5a0ce676\n      eq\n      tag_10\n      jumpi\n      dup1\n      0x5c0b2cd3\n      eq\n      tag_11\n      jumpi\n      dup1\n      0x5c1bba38\n      eq\n      tag_12\n      jumpi\n      dup1\n      0x5c975abb\n      eq\n      tag_13\n      jumpi\n      jump(tag_2)\n    tag_37:\n      dup1\n      0x27de9e32\n      gt\n      tag_39\n      jumpi\n      dup1\n      0x27de9e32\n      eq\n      tag_6\n      jumpi\n      dup1\n      0x3f4ba83a\n      eq\n      tag_7\n      jumpi\n      dup1\n      0x4d4e7019\n      eq\n      tag_8\n      jumpi\n      dup1\n      0x57348b83\n      eq\n      tag_9\n      jumpi\n      jump(tag_2)\n    tag_39:\n      dup1\n      0x129d8000\n      eq\n      tag_3\n      jumpi\n      dup1\n      0x147e4e8f\n      eq\n      tag_4\n      jumpi\n      dup1\n      0x2547fa3e\n      eq\n      tag_5\n      jumpi\n      jump(tag_2)\n    tag_1:\n      jumpi(tag_2, calldatasize)\n      stop\n    tag_2:\n      revert(0x00, 0x00)\n        /* \"Smart Contracts/27_OptimisticL2RollUps.sol\":10738:11820  function claimWithdrawal(... */\n    tag_3:\n      callvalue\n      dup1\n      iszero\n      tag_42\n      jumpi\n      revert(0x00, 0x00)\n    tag_42:\n      pop\n      tag_43\n      0x04\n      dup1\n      calldatasize\n      sub\n      dup2\n      add\n      swap1\n      tag_44\n      swap2\n      swap1\n      tag_45\n      jump\t// in\n    tag_44:\n      tag_46\n      jump\t// in\n    tag_43:\n      stop\n        /* \"Smart Contracts/27_OptimisticL2RollUps.sol\":11870:12694  function batchStatus(uint256 batchId) external view returns (... */\n    tag_4:\n      callvalue\n      dup1\n      iszero\n      tag_47\n      jumpi\n      revert(0x00, 0x00)\n    tag_47:\n      pop\n      tag_48\n      0x04\n      dup1\n      calldatasize\n      sub\n      dup2\n      add\n      swap1\n      tag_49\n      swap2\n      swap1\n      tag_50\n      jump\t// in\n    tag_49:\n      tag_51\n      jump\t// in\n    tag_48:\n      mload(0x40)\n      tag_52\n      swap11\n      swap10\n      swap9\n      swap8\n      swap7\n      swap6\n      swap5\n      swap4\n      swap3\n      swap2\n      swap1\n      tag_53\n      jump\t// in\n    tag_52:\n      mload(0x40)\n      dup1\n      swap2\n      sub\n      swap1\n      return\n        /* \"Smart Contracts/27_OptimisticL2RollUps.sol\":4796:5018  function setSequencer(address newSequencer) external onlyOwner {... */\n    tag_5:\n      callvalue\n      dup1\n      iszero\n      tag_54\n      jumpi\n      revert(0x00, 0x00)\n    tag_54:\n      pop\n      tag_55\n      0x04\n      dup1\n      calldatasize\n      sub\n      dup2\n      add\n      swap1\n      tag_56\n      swap2\n      swap1\n      tag_57\n      jump\t// in\n    tag_56:\n      tag_58\n      jump\t// in\n    tag_55:\n      stop\n        /* \"Smart Contracts/27_OptimisticL2RollUps.sol\":5898:6230  function unbond(uint256 amount) external whenNotPaused nonReentrant {... */\n    tag_6:\n      callvalue\n      dup1\n      iszero\n      tag_59\n      jumpi\n      revert(0x00, 0x00)\n    tag_59:\n      pop\n      tag_60\n      0x04\n      dup1\n      calldatasize\n      sub\n      dup2\n      add\n      swap1\n      tag_61\n      swap2\n      swap1\n      tag_50\n      jump\t// in\n    tag_61:\n      tag_62\n      jump\t// in\n    tag_60:\n      stop\n        /* \"Smart Contracts/27_OptimisticL2RollUps.sol\":5600:5653  function unpause() external onlyOwner { _unpause(); } */\n    tag_7:\n      callvalue\n      dup1\n      iszero\n      tag_63\n      jumpi\n      revert(0x00, 0x00)\n    tag_63:\n      pop\n      tag_64\n      tag_65\n      jump\t// in\n    tag_64:\n      stop\n        /* \"Smart Contracts/27_OptimisticL2RollUps.sol\":2490:2518  uint256 public latestBatchId */\n    tag_8:\n      callvalue\n      dup1\n      iszero\n      tag_66\n      jumpi\n      revert(0x00, 0x00)\n    tag_66:\n      pop\n      tag_67\n      tag_68\n      jump\t// in\n    tag_67:\n      mload(0x40)\n      tag_69\n      swap2\n      swap1\n      tag_70\n      jump\t// in\n    tag_69:\n      mload(0x40)\n      dup1\n      swap2\n      sub\n      swap1\n      return\n        /* \"Smart Contracts/27_OptimisticL2RollUps.sol\":3672:3741  mapping(uint256 => mapping(bytes32 => bool)) public withdrawalClaimed */\n    tag_9:\n      callvalue\n      dup1\n      iszero\n      tag_71\n      jumpi\n      revert(0x00, 0x00)\n    tag_71:\n      pop\n      tag_72\n      0x04\n      dup1\n      calldatasize\n      sub\n      dup2\n      add\n      swap1\n      tag_73\n      swap2\n      swap1\n      tag_74\n      jump\t// in\n    tag_73:\n      tag_75\n      jump\t// in\n    tag_72:\n      mload(0x40)\n      tag_76\n      swap2\n      swap1\n      tag_77\n      jump\t// in\n    tag_76:\n      mload(0x40)\n      dup1\n      swap2\n      sub\n      swap1\n      return\n        /* \"Smart Contracts/27_OptimisticL2RollUps.sol\":5207:5537  function setParams(uint256 _challengeWindow, uint256 _sequencerBond, uint256 _challengerBond) external onlyOwner {... */\n    tag_10:\n      callvalue\n      dup1\n      iszero\n      tag_78\n      jumpi\n      revert(0x00, 0x00)\n    tag_78:\n      pop\n      tag_79\n      0x04\n      dup1\n      calldatasize\n      sub\n      dup2\n      add\n      swap1\n      tag_80\n      swap2\n      swap1\n      tag_81\n      jump\t// in\n    tag_80:\n      tag_82\n      jump\t// in\n    tag_79:\n      stop\n        /* \"Smart Contracts/27_OptimisticL2RollUps.sol\":1904:1944  IFraudProofVerifier public fraudVerifier */\n    tag_11:\n      callvalue\n      dup1\n      iszero\n      tag_83\n      jumpi\n      revert(0x00, 0x00)\n    tag_83:\n      pop\n      tag_84\n      tag_85\n      jump\t// in\n    tag_84:\n      mload(0x40)\n      tag_86\n      swap2\n      swap1\n      tag_87\n      jump\t// in\n    tag_86:\n      mload(0x40)\n      dup1\n      swap2\n      sub\n      swap1\n      return\n        /* \"Smart Contracts/27_OptimisticL2RollUps.sol\":1873:1897  address public sequencer */\n    tag_12:\n      callvalue\n      dup1\n      iszero\n      tag_88\n      jumpi\n      revert(0x00, 0x00)\n    tag_88:\n      pop\n      tag_89\n      tag_90\n      jump\t// in\n    tag_89:\n      mload(0x40)\n      tag_91\n      swap2\n      swap1\n      tag_92\n      jump\t// in\n    tag_91:\n      mload(0x40)\n      dup1\n      swap2\n      sub\n      swap1\n      return\n        /* \"@openzeppelin/contracts/security/Pausable.sol\":1615:1699  function paused() public view virtual returns (bool) {... */\n    tag_13:\n      callvalue\n      dup1\n      iszero\n      tag_93\n      jumpi\n      revert(0x00, 0x00)\n    tag_93:\n      pop\n      tag_94\n      tag_95\n      jump\t// in\n    tag_94:\n      mload(0x40)\n      tag_96\n      swap2\n      swap1\n      tag_77\n      jump\t// in\n    tag_96:\n      mload(0x40)\n      dup1\n      swap2\n      sub\n      swap1\n      return\n        /* \"Smart Contracts/27_OptimisticL2RollUps.sol\":5699:5890  function bond() external payable whenNotPaused {... */\n    tag_14:\n      tag_97\n      tag_98\n      jump\t// in\n    tag_97:\n      stop\n        /* \"Smart Contracts/27_OptimisticL2RollUps.sol\":6956:7787  function submitBatch(... */\n    tag_15:\n      callvalue\n      dup1\n      iszero\n      tag_99\n      jumpi\n      revert(0x00, 0x00)\n    tag_99:\n      pop\n      tag_100\n      0x04\n      dup1\n      calldatasize\n      sub\n      dup2\n      add\n      swap1\n      tag_101\n      swap2\n      swap1\n      tag_102\n      jump\t// in\n    tag_101:\n      tag_103\n      jump\t// in\n    tag_100:\n      stop\n        /* \"Smart Contracts/27_OptimisticL2RollUps.sol\":2036:2065  uint256 public challengerBond */\n    tag_16:\n      callvalue\n      dup1\n      iszero\n      tag_104\n      jumpi\n      revert(0x00, 0x00)\n    tag_104:\n      pop\n      tag_105\n      tag_106\n      jump\t// in\n    tag_105:\n      mload(0x40)\n      tag_107\n      swap2\n      swap1\n      tag_70\n      jump\t// in\n    tag_107:\n      mload(0x40)\n      dup1\n      swap2\n      sub\n      swap1\n      return\n        /* \"@openzeppelin/contracts/access/Ownable.sol\":2293:2394  function renounceOwnership() public virtual onlyOwner {... */\n    tag_17:\n      callvalue\n      dup1\n      iszero\n      tag_108\n      jumpi\n      revert(0x00, 0x00)\n    tag_108:\n      pop\n      tag_109\n      tag_110\n      jump\t// in\n    tag_109:\n      stop\n        /* \"Smart Contracts/27_OptimisticL2RollUps.sol\":8435:10007  function resolveChallenge(uint256 batchId, bytes calldata proof) external whenNotPaused {... */\n    tag_18:\n      callvalue\n      dup1\n      iszero\n      tag_111\n      jumpi\n      revert(0x00, 0x00)\n    tag_111:\n      pop\n      tag_112\n      0x04\n      dup1\n      calldatasize\n      sub\n      dup2\n      add\n      swap1\n      tag_113\n      swap2\n      swap1\n      tag_114\n      jump\t// in\n    tag_113:\n      tag_115\n      jump\t// in\n    tag_112:\n      stop\n        /* \"Smart Contracts/27_OptimisticL2RollUps.sol\":5545:5594  function pause() external onlyOwner { _pause(); } */\n    tag_19:\n      callvalue\n      dup1\n      iszero\n      tag_116\n      jumpi\n      revert(0x00, 0x00)\n    tag_116:\n      pop\n      tag_117\n      tag_118\n      jump\t// in\n    tag_117:\n      stop\n        /* \"Smart Contracts/27_OptimisticL2RollUps.sol\":2072:2102  uint256 public challengeWindow */\n    tag_20:\n      callvalue\n      dup1\n      iszero\n      tag_119\n      jumpi\n      revert(0x00, 0x00)\n    tag_119:\n      pop\n      tag_120\n      tag_121\n      jump\t// in\n    tag_120:\n      mload(0x40)\n      tag_122\n      swap2\n      swap1\n      tag_70\n      jump\t// in\n    tag_122:\n      mload(0x40)\n      dup1\n      swap2\n      sub\n      swap1\n      return\n        /* \"@openzeppelin/contracts/access/Ownable.sol\":1638:1723  function owner() public view virtual returns (address) {... */\n    tag_21:\n      callvalue\n      dup1\n      iszero\n      tag_123\n      jumpi\n      revert(0x00, 0x00)\n    tag_123:\n      pop\n      tag_124\n      tag_125\n      jump\t// in\n    tag_124:\n      mload(0x40)\n      tag_126\n      swap2\n      swap1\n      tag_92\n      jump\t// in\n    tag_126:\n      mload(0x40)\n      dup1\n      swap2\n      sub\n      swap1\n      return\n        /* \"Smart Contracts/27_OptimisticL2RollUps.sol\":7835:8427  function challengeBatch(uint256 batchId) external whenNotPaused {... */\n    tag_22:\n      callvalue\n      dup1\n      iszero\n      tag_127\n      jumpi\n      revert(0x00, 0x00)\n    tag_127:\n      pop\n      tag_128\n      0x04\n      dup1\n      calldatasize\n      sub\n      dup2\n      add\n      swap1\n      tag_129\n      swap2\n      swap1\n      tag_50\n      jump\t// in\n    tag_129:\n      tag_130\n      jump\t// in\n    tag_128:\n      stop\n        /* \"Smart Contracts/27_OptimisticL2RollUps.sol\":6485:6787  function depositERC20(address token, uint256 amount) external whenNotPaused {... */\n    tag_23:\n      callvalue\n      dup1\n      iszero\n      tag_131\n      jumpi\n      revert(0x00, 0x00)\n    tag_131:\n      pop\n      tag_132\n      0x04\n      dup1\n      calldatasize\n      sub\n      dup2\n      add\n      swap1\n      tag_133\n      swap2\n      swap1\n      tag_134\n      jump\t// in\n    tag_133:\n      tag_135\n      jump\t// in\n    tag_132:\n      stop\n        /* \"Smart Contracts/27_OptimisticL2RollUps.sol\":2001:2029  uint256 public sequencerBond */\n    tag_24:\n      callvalue\n      dup1\n      iszero\n      tag_136\n      jumpi\n      revert(0x00, 0x00)\n    tag_136:\n      pop\n      tag_137\n      tag_138\n      jump\t// in\n    tag_137:\n      mload(0x40)\n      tag_139\n      swap2\n      swap1\n      tag_70\n      jump\t// in\n    tag_139:\n      mload(0x40)\n      dup1\n      swap2\n      sub\n      swap1\n      return\n        /* \"Smart Contracts/27_OptimisticL2RollUps.sol\":2574:2605  bytes32 public currentStateRoot */\n    tag_25:\n      callvalue\n      dup1\n      iszero\n      tag_140\n      jumpi\n      revert(0x00, 0x00)\n    tag_140:\n      pop\n      tag_141\n      tag_142\n      jump\t// in\n    tag_141:\n      mload(0x40)\n      tag_143\n      swap2\n      swap1\n      tag_144\n      jump\t// in\n    tag_143:\n      mload(0x40)\n      dup1\n      swap2\n      sub\n      swap1\n      return\n        /* \"Smart Contracts/27_OptimisticL2RollUps.sol\":2525:2565  mapping(uint256 => Batch) public batches */\n    tag_26:\n      callvalue\n      dup1\n      iszero\n      tag_145\n      jumpi\n      revert(0x00, 0x00)\n    tag_145:\n      pop\n      tag_146\n      0x04\n      dup1\n      calldatasize\n      sub\n      dup2\n      add\n      swap1\n      tag_147\n      swap2\n      swap1\n      tag_50\n      jump\t// in\n    tag_147:\n      tag_148\n      jump\t// in\n    tag_146:\n      mload(0x40)\n      tag_149\n      swap9\n      swap8\n      swap7\n      swap6\n      swap5\n      swap4\n      swap3\n      swap2\n      swap1\n      tag_150\n      jump\t// in\n    tag_149:\n      mload(0x40)\n      dup1\n      swap2\n      sub\n      swap1\n      return\n        /* \"Smart Contracts/27_OptimisticL2RollUps.sol\":2653:2680  uint256 public depositNonce */\n    tag_27:\n      callvalue\n      dup1\n      iszero\n      tag_151\n      jumpi\n      revert(0x00, 0x00)\n    tag_151:\n      pop\n      tag_152\n      tag_153\n      jump\t// in\n    tag_152:\n      mload(0x40)\n      tag_154\n      swap2\n      swap1\n      tag_70\n      jump\t// in\n    tag_154:\n      mload(0x40)\n      dup1\n      swap2\n      sub\n      swap1\n      return\n        /* \"Smart Contracts/27_OptimisticL2RollUps.sol\":10058:10538  function finalizeBatch(uint256 batchId) external whenNotPaused {... */\n    tag_28:\n      callvalue\n      dup1\n      iszero\n      tag_155\n      jumpi\n      revert(0x00, 0x00)\n    tag_155:\n      pop\n      tag_156\n      0x04\n      dup1\n      calldatasize\n      sub\n      dup2\n      add\n      swap1\n      tag_157\n      swap2\n      swap1\n      tag_50\n      jump\t// in\n    tag_157:\n      tag_158\n      jump\t// in\n    tag_156:\n      stop\n        /* \"Smart Contracts/27_OptimisticL2RollUps.sol\":5026:5199  function setFraudVerifier(address verifier) external onlyOwner {... */\n    tag_29:\n      callvalue\n      dup1\n      iszero\n      tag_159\n      jumpi\n      revert(0x00, 0x00)\n    tag_159:\n      pop\n      tag_160\n      0x04\n      dup1\n      calldatasize\n      sub\n      dup2\n      add\n      swap1\n      tag_161\n      swap2\n      swap1\n      tag_57\n      jump\t// in\n    tag_161:\n      tag_162\n      jump\t// in\n    tag_160:\n      stop\n        /* \"@openzeppelin/contracts/access/Ownable.sol\":2543:2758  function transferOwnership(address newOwner) public virtual onlyOwner {... */\n    tag_30:\n      callvalue\n      dup1\n      iszero\n      tag_163\n      jumpi\n      revert(0x00, 0x00)\n    tag_163:\n      pop\n      tag_164\n      0x04\n      dup1\n      calldatasize\n      sub\n      dup2\n      add\n      swap1\n      tag_165\n      swap2\n      swap1\n      tag_57\n      jump\t// in\n    tag_165:\n      tag_166\n      jump\t// in\n    tag_164:\n      stop\n        /* \"Smart Contracts/27_OptimisticL2RollUps.sol\":6277:6477  function depositETH() external payable whenNotPaused {... */\n    tag_31:\n      tag_167\n      tag_168\n      jump\t// in\n    tag_167:\n      stop\n        /* \"Smart Contracts/27_OptimisticL2RollUps.sol\":2129:2169  mapping(address => uint256) public bonds */\n    tag_32:\n      callvalue\n      dup1\n      iszero\n      tag_169\n      jumpi\n      revert(0x00, 0x00)\n    tag_169:\n      pop\n      tag_170\n      0x04\n      dup1\n      calldatasize\n      sub\n      dup2\n      add\n      swap1\n      tag_171\n      swap2\n      swap1\n      tag_57\n      jump\t// in\n    tag_171:\n      tag_172\n      jump\t// in\n    tag_170:\n      mload(0x40)\n      tag_173\n      swap2\n      swap1\n      tag_70\n      jump\t// in\n    tag_173:\n      mload(0x40)\n      dup1\n      swap2\n      sub\n      swap1\n      return\n        /* \"Smart Contracts/27_OptimisticL2RollUps.sol\":10738:11820  function claimWithdrawal(... */\n    tag_46:\n        /* \"@openzeppelin/contracts/security/Pausable.sol\":1239:1258  _requireNotPaused() */\n      tag_175\n        /* \"@openzeppelin/contracts/security/Pausable.sol\":1239:1256  _requireNotPaused */\n      tag_176\n        /* \"@openzeppelin/contracts/security/Pausable.sol\":1239:1258  _requireNotPaused() */\n      jump\t// in\n    tag_175:\n        /* \"@openzeppelin/contracts/security/ReentrancyGuard.sol\":2261:2282  _nonReentrantBefore() */\n      tag_178\n        /* \"@openzeppelin/contracts/security/ReentrancyGuard.sol\":2261:2280  _nonReentrantBefore */\n      tag_179\n        /* \"@openzeppelin/contracts/security/ReentrancyGuard.sol\":2261:2282  _nonReentrantBefore() */\n      jump\t// in\n    tag_178:\n        /* \"Smart Contracts/27_OptimisticL2RollUps.sol\":10984:10999  Batch storage b */\n      0x00\n        /* \"Smart Contracts/27_OptimisticL2RollUps.sol\":11002:11009  batches */\n      0x09\n        /* \"Smart Contracts/27_OptimisticL2RollUps.sol\":11002:11018  batches[batchId] */\n      0x00\n        /* \"Smart Contracts/27_OptimisticL2RollUps.sol\":11010:11017  batchId */\n      dup9\n        /* \"Smart Contracts/27_OptimisticL2RollUps.sol\":11002:11018  batches[batchId] */\n      dup2\n      mstore\n      0x20\n      add\n      swap1\n      dup2\n      mstore\n      0x20\n      add\n      0x00\n      keccak256\n        /* \"Smart Contracts/27_OptimisticL2RollUps.sol\":10984:11018  Batch storage b = batches[batchId] */\n      swap1\n      pop\n        /* \"Smart Contracts/27_OptimisticL2RollUps.sol\":11050:11051  0 */\n      0x00\n        /* \"Smart Contracts/27_OptimisticL2RollUps.sol\":11033:11034  b */\n      dup2\n        /* \"Smart Contracts/27_OptimisticL2RollUps.sol\":11033:11046  b.submittedAt */\n      0x04\n      add\n      0x00\n      swap1\n      sload\n      swap1\n      0x0100\n      exp\n      swap1\n      div\n      0xffffffffffffffff\n      and\n        /* \"Smart Contracts/27_OptimisticL2RollUps.sol\":11033:11051  b.submittedAt == 0 */\n      0xffffffffffffffff\n      and\n      sub\n        /* \"Smart Contracts/27_OptimisticL2RollUps.sol\":11029:11075  if (b.submittedAt == 0) revert BatchNotFound() */\n      tag_181\n      jumpi\n        /* \"Smart Contracts/27_OptimisticL2RollUps.sol\":11060:11075  BatchNotFound() */\n      mload(0x40)\n      0x9e15e1bc00000000000000000000000000000000000000000000000000000000\n      dup2\n      mstore\n      0x04\n      add\n      mload(0x40)\n      dup1\n      swap2\n      sub\n      swap1\n      revert\n        /* \"Smart Contracts/27_OptimisticL2RollUps.sol\":11029:11075  if (b.submittedAt == 0) revert BatchNotFound() */\n    tag_181:\n        /* \"Smart Contracts/27_OptimisticL2RollUps.sol\":11091:11092  b */\n      dup1\n        /* \"Smart Contracts/27_OptimisticL2RollUps.sol\":11091:11102  b.finalized */\n      0x04\n      add\n      0x09\n      swap1\n      sload\n      swap1\n      0x0100\n      exp\n      swap1\n      div\n      0xff\n      and\n        /* \"Smart Contracts/27_OptimisticL2RollUps.sol\":11086:11130  if (!b.finalized) revert BatchNotFinalized() */\n      tag_182\n      jumpi\n        /* \"Smart Contracts/27_OptimisticL2RollUps.sol\":11111:11130  BatchNotFinalized() */\n      mload(0x40)\n      0x5565870f00000000000000000000000000000000000000000000000000000000\n      dup2\n      mstore\n      0x04\n      add\n      mload(0x40)\n      dup1\n      swap2\n      sub\n      swap1\n      revert\n        /* \"Smart Contracts/27_OptimisticL2RollUps.sol\":11086:11130  if (!b.finalized) revert BatchNotFinalized() */\n    tag_182:\n        /* \"Smart Contracts/27_OptimisticL2RollUps.sol\":11155:11156  0 */\n      0x00\n        /* \"Smart Contracts/27_OptimisticL2RollUps.sol\":11145:11151  amount */\n      dup6\n        /* \"Smart Contracts/27_OptimisticL2RollUps.sol\":11145:11156  amount == 0 */\n      sub\n        /* \"Smart Contracts/27_OptimisticL2RollUps.sol\":11141:11177  if (amount == 0) revert ZeroAmount() */\n      tag_183\n      jumpi\n        /* \"Smart Contracts/27_OptimisticL2RollUps.sol\":11165:11177  ZeroAmount() */\n      mload(0x40)\n      0x1f2a200500000000000000000000000000000000000000000000000000000000\n      dup2\n      mstore\n      0x04\n      add\n      mload(0x40)\n      dup1\n      swap2\n      sub\n      swap1\n      revert\n        /* \"Smart Contracts/27_OptimisticL2RollUps.sol\":11141:11177  if (amount == 0) revert ZeroAmount() */\n    tag_183:\n        /* \"Smart Contracts/27_OptimisticL2RollUps.sol\":11190:11202  bytes32 leaf */\n      0x00\n        /* \"Smart Contracts/27_OptimisticL2RollUps.sol\":11232:11242  msg.sender */\n      caller\n        /* \"Smart Contracts/27_OptimisticL2RollUps.sol\":11244:11249  token */\n      dup8\n        /* \"Smart Contracts/27_OptimisticL2RollUps.sol\":11251:11257  amount */\n      dup8\n        /* \"Smart Contracts/27_OptimisticL2RollUps.sol\":11259:11264  nonce */\n      dup8\n        /* \"Smart Contracts/27_OptimisticL2RollUps.sol\":11215:11265  abi.encodePacked(msg.sender, token, amount, nonce) */\n      add(0x20, mload(0x40))\n      tag_184\n      swap5\n      swap4\n      swap3\n      swap2\n      swap1\n      tag_185\n      jump\t// in\n    tag_184:\n      mload(0x40)\n      0x20\n      dup2\n      dup4\n      sub\n      sub\n      dup2\n      mstore\n      swap1\n      0x40\n      mstore\n        /* \"Smart Contracts/27_OptimisticL2RollUps.sol\":11205:11266  keccak256(abi.encodePacked(msg.sender, token, amount, nonce)) */\n      dup1\n      mload\n      swap1\n      0x20\n      add\n      keccak256\n        /* \"Smart Contracts/27_OptimisticL2RollUps.sol\":11190:11266  bytes32 leaf = keccak256(abi.encodePacked(msg.sender, token, amount, nonce)) */\n      swap1\n      pop\n        /* \"Smart Contracts/27_OptimisticL2RollUps.sol\":11283:11300  withdrawalClaimed */\n      0x0c\n        /* \"Smart Contracts/27_OptimisticL2RollUps.sol\":11283:11309  withdrawalClaimed[batchId] */\n      0x00\n        /* \"Smart Contracts/27_OptimisticL2RollUps.sol\":11301:11308  batchId */\n      dup10\n        /* \"Smart Contracts/27_OptimisticL2RollUps.sol\":11283:11309  withdrawalClaimed[batchId] */\n      dup2\n      mstore\n      0x20\n      add\n      swap1\n      dup2\n      mstore\n      0x20\n      add\n      0x00\n      keccak256\n        /* \"Smart Contracts/27_OptimisticL2RollUps.sol\":11283:11315  withdrawalClaimed[batchId][leaf] */\n      0x00\n        /* \"Smart Contracts/27_OptimisticL2RollUps.sol\":11310:11314  leaf */\n      dup3\n        /* \"Smart Contracts/27_OptimisticL2RollUps.sol\":11283:11315  withdrawalClaimed[batchId][leaf] */\n      dup2\n      mstore\n      0x20\n      add\n      swap1\n      dup2\n      mstore\n      0x20\n      add\n      0x00\n      keccak256\n      0x00\n      swap1\n      sload\n      swap1\n      0x0100\n      exp\n      swap1\n      div\n      0xff\n      and\n        /* \"Smart Contracts/27_OptimisticL2RollUps.sol\":11279:11350  if (withdrawalClaimed[batchId][leaf]) revert WithdrawalAlreadyClaimed() */\n      iszero\n      tag_186\n      jumpi\n        /* \"Smart Contracts/27_OptimisticL2RollUps.sol\":11324:11350  WithdrawalAlreadyClaimed() */\n      mload(0x40)\n      0x2f29b3db00000000000000000000000000000000000000000000000000000000\n      dup2\n      mstore\n      0x04\n      add\n      mload(0x40)\n      dup1\n      swap2\n      sub\n      swap1\n      revert\n        /* \"Smart Contracts/27_OptimisticL2RollUps.sol\":11279:11350  if (withdrawalClaimed[batchId][leaf]) revert WithdrawalAlreadyClaimed() */\n    tag_186:\n        /* \"Smart Contracts/27_OptimisticL2RollUps.sol\":11366:11421  MerkleProof.verify(merkleProof, b.withdrawalRoot, leaf) */\n      tag_187\n        /* \"Smart Contracts/27_OptimisticL2RollUps.sol\":11385:11396  merkleProof */\n      dup5\n      dup5\n        /* \"Smart Contracts/27_OptimisticL2RollUps.sol\":11366:11421  MerkleProof.verify(merkleProof, b.withdrawalRoot, leaf) */\n      dup1\n      dup1\n      0x20\n      mul\n      0x20\n      add\n      mload(0x40)\n      swap1\n      dup2\n      add\n      0x40\n      mstore\n      dup1\n      swap4\n      swap3\n      swap2\n      swap1\n      dup2\n      dup2\n      mstore\n      0x20\n      add\n      dup4\n      dup4\n      0x20\n      mul\n      dup1\n      dup3\n      dup5\n      calldatacopy\n      0x00\n      dup2\n      dup5\n      add\n      mstore\n      not(0x1f)\n      0x1f\n      dup3\n      add\n      and\n      swap1\n      pop\n      dup1\n      dup4\n      add\n      swap3\n      pop\n      pop\n      pop\n      pop\n      pop\n      pop\n      pop\n        /* \"Smart Contracts/27_OptimisticL2RollUps.sol\":11398:11399  b */\n      dup4\n        /* \"Smart Contracts/27_OptimisticL2RollUps.sol\":11398:11414  b.withdrawalRoot */\n      0x03\n      add\n      sload\n        /* \"Smart Contracts/27_OptimisticL2RollUps.sol\":11416:11420  leaf */\n      dup4\n        /* \"Smart Contracts/27_OptimisticL2RollUps.sol\":11366:11384  MerkleProof.verify */\n      tag_188\n        /* \"Smart Contracts/27_OptimisticL2RollUps.sol\":11366:11421  MerkleProof.verify(merkleProof, b.withdrawalRoot, leaf) */\n      jump\t// in\n    tag_187:\n        /* \"Smart Contracts/27_OptimisticL2RollUps.sol\":11361:11444  if (!MerkleProof.verify(merkleProof, b.withdrawalRoot, leaf)) revert InvalidProof() */\n      tag_189\n      jumpi\n        /* \"Smart Contracts/27_OptimisticL2RollUps.sol\":11430:11444  InvalidProof() */\n      mload(0x40)\n      0x09bde33900000000000000000000000000000000000000000000000000000000\n      dup2\n      mstore\n      0x04\n      add\n      mload(0x40)\n      dup1\n      swap2\n      sub\n      swap1\n      revert\n        /* \"Smart Contracts/27_OptimisticL2RollUps.sol\":11361:11444  if (!MerkleProof.verify(merkleProof, b.withdrawalRoot, leaf)) revert InvalidProof() */\n    tag_189:\n        /* \"Smart Contracts/27_OptimisticL2RollUps.sol\":11492:11496  true */\n      0x01\n        /* \"Smart Contracts/27_OptimisticL2RollUps.sol\":11457:11474  withdrawalClaimed */\n      0x0c\n        /* \"Smart Contracts/27_OptimisticL2RollUps.sol\":11457:11483  withdrawalClaimed[batchId] */\n      0x00\n        /* \"Smart Contracts/27_OptimisticL2RollUps.sol\":11475:11482  batchId */\n      dup11\n        /* \"Smart Contracts/27_OptimisticL2RollUps.sol\":11457:11483  withdrawalClaimed[batchId] */\n      dup2\n      mstore\n      0x20\n      add\n      swap1\n      dup2\n      mstore\n      0x20\n      add\n      0x00\n      keccak256\n        /* \"Smart Contracts/27_OptimisticL2RollUps.sol\":11457:11489  withdrawalClaimed[batchId][leaf] */\n      0x00\n        /* \"Smart Contracts/27_OptimisticL2RollUps.sol\":11484:11488  leaf */\n      dup4\n        /* \"Smart Contracts/27_OptimisticL2RollUps.sol\":11457:11489  withdrawalClaimed[batchId][leaf] */\n      dup2\n      mstore\n      0x20\n      add\n      swap1\n      dup2\n      mstore\n      0x20\n      add\n      0x00\n      keccak256\n      0x00\n        /* \"Smart Contracts/27_OptimisticL2RollUps.sol\":11457:11496  withdrawalClaimed[batchId][leaf] = true */\n      0x0100\n      exp\n      dup2\n      sload\n      dup2\n      0xff\n      mul\n      not\n      and\n      swap1\n      dup4\n      iszero\n      iszero\n      mul\n      or\n      swap1\n      sstore\n      pop\n        /* \"Smart Contracts/27_OptimisticL2RollUps.sol\":11530:11531  0 */\n      0x00\n        /* \"Smart Contracts/27_OptimisticL2RollUps.sol\":11513:11532  token == address(0) */\n      0xffffffffffffffffffffffffffffffffffffffff\n      and\n        /* \"Smart Contracts/27_OptimisticL2RollUps.sol\":11513:11518  token */\n      dup8\n        /* \"Smart Contracts/27_OptimisticL2RollUps.sol\":11513:11532  token == address(0) */\n      0xffffffffffffffffffffffffffffffffffffffff\n      and\n      sub\n        /* \"Smart Contracts/27_OptimisticL2RollUps.sol\":11509:11735  if (token == address(0)) {... */\n      tag_190\n      jumpi\n        /* \"Smart Contracts/27_OptimisticL2RollUps.sol\":11550:11557  bool ok */\n      0x00\n        /* \"Smart Contracts/27_OptimisticL2RollUps.sol\":11563:11573  msg.sender */\n      caller\n        /* \"Smart Contracts/27_OptimisticL2RollUps.sol\":11563:11578  msg.sender.call */\n      0xffffffffffffffffffffffffffffffffffffffff\n      and\n        /* \"Smart Contracts/27_OptimisticL2RollUps.sol\":11586:11592  amount */\n      dup8\n        /* \"Smart Contracts/27_OptimisticL2RollUps.sol\":11563:11597  msg.sender.call{value: amount}(\"\") */\n      mload(0x40)\n      tag_191\n      swap1\n      tag_192\n      jump\t// in\n    tag_191:\n      0x00\n      mload(0x40)\n      dup1\n      dup4\n      sub\n      dup2\n      dup6\n      dup8\n      gas\n      call\n      swap3\n      pop\n      pop\n      pop\n      returndatasize\n      dup1\n      0x00\n      dup2\n      eq\n      tag_195\n      jumpi\n      mload(0x40)\n      swap2\n      pop\n      and(add(returndatasize, 0x3f), not(0x1f))\n      dup3\n      add\n      0x40\n      mstore\n      returndatasize\n      dup3\n      mstore\n      returndatasize\n      0x00\n      0x20\n      dup5\n      add\n      returndatacopy\n      jump(tag_194)\n    tag_195:\n      0x60\n      swap2\n      pop\n    tag_194:\n      pop\n        /* \"Smart Contracts/27_OptimisticL2RollUps.sol\":11549:11597  (bool ok, ) = msg.sender.call{value: amount}(\"\") */\n      pop\n      swap1\n      pop\n        /* \"Smart Contracts/27_OptimisticL2RollUps.sol\":11617:11619  ok */\n      dup1\n        /* \"Smart Contracts/27_OptimisticL2RollUps.sol\":11612:11644  if (!ok) revert TransferFailed() */\n      tag_196\n      jumpi\n        /* \"Smart Contracts/27_OptimisticL2RollUps.sol\":11628:11644  TransferFailed() */\n      mload(0x40)\n      0x90b8ec1800000000000000000000000000000000000000000000000000000000\n      dup2\n      mstore\n      0x04\n      add\n      mload(0x40)\n      dup1\n      swap2\n      sub\n      swap1\n      revert\n        /* \"Smart Contracts/27_OptimisticL2RollUps.sol\":11612:11644  if (!ok) revert TransferFailed() */\n    tag_196:\n        /* \"Smart Contracts/27_OptimisticL2RollUps.sol\":11534:11656  {... */\n      pop\n        /* \"Smart Contracts/27_OptimisticL2RollUps.sol\":11509:11735  if (token == address(0)) {... */\n      jump(tag_197)\n    tag_190:\n        /* \"Smart Contracts/27_OptimisticL2RollUps.sol\":11677:11723  IERC20(token).safeTransfer(msg.sender, amount) */\n      tag_198\n        /* \"Smart Contracts/27_OptimisticL2RollUps.sol\":11704:11714  msg.sender */\n      caller\n        /* \"Smart Contracts/27_OptimisticL2RollUps.sol\":11716:11722  amount */\n      dup8\n        /* \"Smart Contracts/27_OptimisticL2RollUps.sol\":11684:11689  token */\n      dup10\n        /* \"Smart Contracts/27_OptimisticL2RollUps.sol\":11677:11703  IERC20(token).safeTransfer */\n      0xffffffffffffffffffffffffffffffffffffffff\n      and\n      tag_199\n      swap1\n        /* \"Smart Contracts/27_OptimisticL2RollUps.sol\":11677:11723  IERC20(token).safeTransfer(msg.sender, amount) */\n      swap3\n      swap2\n      swap1\n      0xffffffff\n      and\n      jump\t// in\n    tag_198:\n        /* \"Smart Contracts/27_OptimisticL2RollUps.sol\":11509:11735  if (token == address(0)) {... */\n    tag_197:\n        /* \"Smart Contracts/27_OptimisticL2RollUps.sol\":11791:11796  token */\n      dup7\n        /* \"Smart Contracts/27_OptimisticL2RollUps.sol\":11752:11812  WithdrawalClaimed(batchId, msg.sender, token, amount, nonce) */\n      0xffffffffffffffffffffffffffffffffffffffff\n      and\n        /* \"Smart Contracts/27_OptimisticL2RollUps.sol\":11779:11789  msg.sender */\n      caller\n        /* \"Smart Contracts/27_OptimisticL2RollUps.sol\":11752:11812  WithdrawalClaimed(batchId, msg.sender, token, amount, nonce) */\n      0xffffffffffffffffffffffffffffffffffffffff\n      and\n        /* \"Smart Contracts/27_OptimisticL2RollUps.sol\":11770:11777  batchId */\n      dup10\n        /* \"Smart Contracts/27_OptimisticL2RollUps.sol\":11752:11812  WithdrawalClaimed(batchId, msg.sender, token, amount, nonce) */\n      0x8c6f1f453248546230edca559f3fcddbea2f6c7c33a0f7899c403d78dfb642f2\n        /* \"Smart Contracts/27_OptimisticL2RollUps.sol\":11798:11804  amount */\n      dup10\n        /* \"Smart Contracts/27_OptimisticL2RollUps.sol\":11806:11811  nonce */\n      dup10\n        /* \"Smart Contracts/27_OptimisticL2RollUps.sol\":11752:11812  WithdrawalClaimed(batchId, msg.sender, token, amount, nonce) */\n      mload(0x40)\n      tag_200\n      swap3\n      swap2\n      swap1\n      tag_201\n      jump\t// in\n    tag_200:\n      mload(0x40)\n      dup1\n      swap2\n      sub\n      swap1\n      log4\n        /* \"Smart Contracts/27_OptimisticL2RollUps.sol\":10973:11820  {... */\n      pop\n      pop\n        /* \"@openzeppelin/contracts/security/ReentrancyGuard.sol\":2303:2323  _nonReentrantAfter() */\n      tag_202\n        /* \"@openzeppelin/contracts/security/ReentrancyGuard.sol\":2303:2321  _nonReentrantAfter */\n      tag_203\n        /* \"@openzeppelin/contracts/security/ReentrancyGuard.sol\":2303:2323  _nonReentrantAfter() */\n      jump\t// in\n    tag_202:\n        /* \"Smart Contracts/27_OptimisticL2RollUps.sol\":10738:11820  function claimWithdrawal(... */\n      pop\n      pop\n      pop\n      pop\n      pop\n      pop\n      jump\t// out\n        /* \"Smart Contracts/27_OptimisticL2RollUps.sol\":11870:12694  function batchStatus(uint256 batchId) external view returns (... */\n    tag_51:\n        /* \"Smart Contracts/27_OptimisticL2RollUps.sol\":11941:11952  bool exists */\n      0x00\n        /* \"Smart Contracts/27_OptimisticL2RollUps.sol\":11963:11978  bool challenged */\n      0x00\n        /* \"Smart Contracts/27_OptimisticL2RollUps.sol\":11989:12003  bool finalized */\n      0x00\n        /* \"Smart Contracts/27_OptimisticL2RollUps.sol\":12014:12033  uint256 submittedAt */\n      0x00\n        /* \"Smart Contracts/27_OptimisticL2RollUps.sol\":12044:12067  uint256 challengeEndsAt */\n      0x00\n        /* \"Smart Contracts/27_OptimisticL2RollUps.sol\":12078:12094  bytes32 prevRoot */\n      0x00\n        /* \"Smart Contracts/27_OptimisticL2RollUps.sol\":12105:12120  bytes32 newRoot */\n      0x00\n        /* \"Smart Contracts/27_OptimisticL2RollUps.sol\":12131:12145  bytes32 txHash */\n      0x00\n        /* \"Smart Contracts/27_OptimisticL2RollUps.sol\":12156:12178  bytes32 withdrawalRoot */\n      0x00\n        /* \"Smart Contracts/27_OptimisticL2RollUps.sol\":12189:12207  address challenger */\n      0x00\n        /* \"Smart Contracts/27_OptimisticL2RollUps.sol\":12226:12241  Batch storage b */\n      0x00\n        /* \"Smart Contracts/27_OptimisticL2RollUps.sol\":12244:12251  batches */\n      0x09\n        /* \"Smart Contracts/27_OptimisticL2RollUps.sol\":12244:12260  batches[batchId] */\n      0x00\n        /* \"Smart Contracts/27_OptimisticL2RollUps.sol\":12252:12259  batchId */\n      dup14\n        /* \"Smart Contracts/27_OptimisticL2RollUps.sol\":12244:12260  batches[batchId] */\n      dup2\n      mstore\n      0x20\n      add\n      swap1\n      dup2\n      mstore\n      0x20\n      add\n      0x00\n      keccak256\n        /* \"Smart Contracts/27_OptimisticL2RollUps.sol\":12226:12260  Batch storage b = batches[batchId] */\n      swap1\n      pop\n        /* \"Smart Contracts/27_OptimisticL2RollUps.sol\":12298:12299  0 */\n      0x00\n        /* \"Smart Contracts/27_OptimisticL2RollUps.sol\":12281:12282  b */\n      dup2\n        /* \"Smart Contracts/27_OptimisticL2RollUps.sol\":12281:12294  b.submittedAt */\n      0x04\n      add\n      0x00\n      swap1\n      sload\n      swap1\n      0x0100\n      exp\n      swap1\n      div\n      0xffffffffffffffff\n      and\n        /* \"Smart Contracts/27_OptimisticL2RollUps.sol\":12281:12299  b.submittedAt != 0 */\n      0xffffffffffffffff\n      and\n      eq\n      iszero\n        /* \"Smart Contracts/27_OptimisticL2RollUps.sol\":12271:12300  exists = (b.submittedAt != 0) */\n      swap11\n      pop\n        /* \"Smart Contracts/27_OptimisticL2RollUps.sol\":12324:12325  b */\n      dup1\n        /* \"Smart Contracts/27_OptimisticL2RollUps.sol\":12324:12336  b.challenged */\n      0x04\n      add\n      0x08\n      swap1\n      sload\n      swap1\n      0x0100\n      exp\n      swap1\n      div\n      0xff\n      and\n        /* \"Smart Contracts/27_OptimisticL2RollUps.sol\":12311:12336  challenged = b.challenged */\n      swap10\n      pop\n        /* \"Smart Contracts/27_OptimisticL2RollUps.sol\":12359:12360  b */\n      dup1\n        /* \"Smart Contracts/27_OptimisticL2RollUps.sol\":12359:12370  b.finalized */\n      0x04\n      add\n      0x09\n      swap1\n      sload\n      swap1\n      0x0100\n      exp\n      swap1\n      div\n      0xff\n      and\n        /* \"Smart Contracts/27_OptimisticL2RollUps.sol\":12347:12370  finalized = b.finalized */\n      swap9\n      pop\n        /* \"Smart Contracts/27_OptimisticL2RollUps.sol\":12395:12396  b */\n      dup1\n        /* \"Smart Contracts/27_OptimisticL2RollUps.sol\":12395:12408  b.submittedAt */\n      0x04\n      add\n      0x00\n      swap1\n      sload\n      swap1\n      0x0100\n      exp\n      swap1\n      div\n      0xffffffffffffffff\n      and\n        /* \"Smart Contracts/27_OptimisticL2RollUps.sol\":12381:12408  submittedAt = b.submittedAt */\n      0xffffffffffffffff\n      and\n      swap8\n      pop\n        /* \"Smart Contracts/27_OptimisticL2RollUps.sol\":12454:12455  0 */\n      0x00\n        /* \"Smart Contracts/27_OptimisticL2RollUps.sol\":12437:12438  b */\n      dup2\n        /* \"Smart Contracts/27_OptimisticL2RollUps.sol\":12437:12450  b.submittedAt */\n      0x04\n      add\n      0x00\n      swap1\n      sload\n      swap1\n      0x0100\n      exp\n      swap1\n      div\n      0xffffffffffffffff\n      and\n        /* \"Smart Contracts/27_OptimisticL2RollUps.sol\":12437:12455  b.submittedAt == 0 */\n      0xffffffffffffffff\n      and\n      eq\n        /* \"Smart Contracts/27_OptimisticL2RollUps.sol\":12437:12502  b.submittedAt == 0 ? 0 : uint256(b.submittedAt) + challengeWindow */\n      tag_205\n      jumpi\n        /* \"Smart Contracts/27_OptimisticL2RollUps.sol\":12487:12502  challengeWindow */\n      sload(0x06)\n        /* \"Smart Contracts/27_OptimisticL2RollUps.sol\":12470:12471  b */\n      dup2\n        /* \"Smart Contracts/27_OptimisticL2RollUps.sol\":12470:12483  b.submittedAt */\n      0x04\n      add\n      0x00\n      swap1\n      sload\n      swap1\n      0x0100\n      exp\n      swap1\n      div\n      0xffffffffffffffff\n      and\n        /* \"Smart Contracts/27_OptimisticL2RollUps.sol\":12462:12484  uint256(b.submittedAt) */\n      0xffffffffffffffff\n      and\n        /* \"Smart Contracts/27_OptimisticL2RollUps.sol\":12462:12502  uint256(b.submittedAt) + challengeWindow */\n      tag_206\n      swap2\n      swap1\n      tag_207\n      jump\t// in\n    tag_206:\n        /* \"Smart Contracts/27_OptimisticL2RollUps.sol\":12437:12502  b.submittedAt == 0 ? 0 : uint256(b.submittedAt) + challengeWindow */\n      jump(tag_208)\n    tag_205:\n        /* \"Smart Contracts/27_OptimisticL2RollUps.sol\":12458:12459  0 */\n      0x00\n        /* \"Smart Contracts/27_OptimisticL2RollUps.sol\":12437:12502  b.submittedAt == 0 ? 0 : uint256(b.submittedAt) + challengeWindow */\n    tag_208:\n        /* \"Smart Contracts/27_OptimisticL2RollUps.sol\":12419:12502  challengeEndsAt = b.submittedAt == 0 ? 0 : uint256(b.submittedAt) + challengeWindow */\n      swap7\n      pop\n        /* \"Smart Contracts/27_OptimisticL2RollUps.sol\":12524:12525  b */\n      dup1\n        /* \"Smart Contracts/27_OptimisticL2RollUps.sol\":12524:12539  b.prevStateRoot */\n      0x00\n      add\n      sload\n        /* \"Smart Contracts/27_OptimisticL2RollUps.sol\":12513:12539  prevRoot = b.prevStateRoot */\n      swap6\n      pop\n        /* \"Smart Contracts/27_OptimisticL2RollUps.sol\":12560:12561  b */\n      dup1\n        /* \"Smart Contracts/27_OptimisticL2RollUps.sol\":12560:12574  b.newStateRoot */\n      0x01\n      add\n      sload\n        /* \"Smart Contracts/27_OptimisticL2RollUps.sol\":12550:12574  newRoot = b.newStateRoot */\n      swap5\n      pop\n        /* \"Smart Contracts/27_OptimisticL2RollUps.sol\":12594:12595  b */\n      dup1\n        /* \"Smart Contracts/27_OptimisticL2RollUps.sol\":12594:12606  b.txDataHash */\n      0x02\n      add\n      sload\n        /* \"Smart Contracts/27_OptimisticL2RollUps.sol\":12585:12606  txHash = b.txDataHash */\n      swap4\n      pop\n        /* \"Smart Contracts/27_OptimisticL2RollUps.sol\":12634:12635  b */\n      dup1\n        /* \"Smart Contracts/27_OptimisticL2RollUps.sol\":12634:12650  b.withdrawalRoot */\n      0x03\n      add\n      sload\n        /* \"Smart Contracts/27_OptimisticL2RollUps.sol\":12617:12650  withdrawalRoot = b.withdrawalRoot */\n      swap3\n      pop\n        /* \"Smart Contracts/27_OptimisticL2RollUps.sol\":12674:12675  b */\n      dup1\n        /* \"Smart Contracts/27_OptimisticL2RollUps.sol\":12674:12686  b.challenger */\n      0x04\n      add\n      0x0a\n      swap1\n      sload\n      swap1\n      0x0100\n      exp\n      swap1\n      div\n      0xffffffffffffffffffffffffffffffffffffffff\n      and\n        /* \"Smart Contracts/27_OptimisticL2RollUps.sol\":12661:12686  challenger = b.challenger */\n      swap2\n      pop\n        /* \"Smart Contracts/27_OptimisticL2RollUps.sol\":12215:12694  {... */\n      pop\n        /* \"Smart Contracts/27_OptimisticL2RollUps.sol\":11870:12694  function batchStatus(uint256 batchId) external view returns (... */\n      swap2\n      swap4\n      swap6\n      swap8\n      swap10\n      pop\n      swap2\n      swap4\n      swap6\n      swap8\n      swap10\n      jump\t// out\n        /* \"Smart Contracts/27_OptimisticL2RollUps.sol\":4796:5018  function setSequencer(address newSequencer) external onlyOwner {... */\n    tag_58:\n        /* \"@openzeppelin/contracts/access/Ownable.sol\":1531:1544  _checkOwner() */\n      tag_210\n        /* \"@openzeppelin/contracts/access/Ownable.sol\":1531:1542  _checkOwner */\n      tag_211\n        /* \"@openzeppelin/contracts/access/Ownable.sol\":1531:1544  _checkOwner() */\n      jump\t// in\n    tag_210:\n        /* \"Smart Contracts/27_OptimisticL2RollUps.sol\":4902:4903  0 */\n      0x00\n        /* \"Smart Contracts/27_OptimisticL2RollUps.sol\":4878:4904  newSequencer != address(0) */\n      0xffffffffffffffffffffffffffffffffffffffff\n      and\n        /* \"Smart Contracts/27_OptimisticL2RollUps.sol\":4878:4890  newSequencer */\n      dup2\n        /* \"Smart Contracts/27_OptimisticL2RollUps.sol\":4878:4904  newSequencer != address(0) */\n      0xffffffffffffffffffffffffffffffffffffffff\n      and\n      sub\n        /* \"Smart Contracts/27_OptimisticL2RollUps.sol\":4870:4918  require(newSequencer != address(0), \"ZERO_ADDR\") */\n      tag_213\n      jumpi\n      mload(0x40)\n      0x08c379a000000000000000000000000000000000000000000000000000000000\n      dup2\n      mstore\n      0x04\n      add\n      tag_214\n      swap1\n      tag_215\n      jump\t// in\n    tag_214:\n      mload(0x40)\n      dup1\n      swap2\n      sub\n      swap1\n      revert\n    tag_213:\n        /* \"Smart Contracts/27_OptimisticL2RollUps.sol\":4962:4974  newSequencer */\n      dup1\n        /* \"Smart Contracts/27_OptimisticL2RollUps.sol\":4934:4975  SequencerUpdated(sequencer, newSequencer) */\n      0xffffffffffffffffffffffffffffffffffffffff\n      and\n        /* \"Smart Contracts/27_OptimisticL2RollUps.sol\":4951:4960  sequencer */\n      0x02\n      0x00\n      swap1\n      sload\n      swap1\n      0x0100\n      exp\n      swap1\n      div\n      0xffffffffffffffffffffffffffffffffffffffff\n      and\n        /* \"Smart Contracts/27_OptimisticL2RollUps.sol\":4934:4975  SequencerUpdated(sequencer, newSequencer) */\n      0xffffffffffffffffffffffffffffffffffffffff\n      and\n      0xcd58b762453bd126b48db83f2cecd464f5281dd7e5e6824b528c09d0482984d6\n      mload(0x40)\n      mload(0x40)\n      dup1\n      swap2\n      sub\n      swap1\n      log3\n        /* \"Smart Contracts/27_OptimisticL2RollUps.sol\":4998:5010  newSequencer */\n      dup1\n        /* \"Smart Contracts/27_OptimisticL2RollUps.sol\":4986:4995  sequencer */\n      0x02\n      0x00\n        /* \"Smart Contracts/27_OptimisticL2RollUps.sol\":4986:5010  sequencer = newSequencer */\n      0x0100\n      exp\n      dup2\n      sload\n      dup2\n      0xffffffffffffffffffffffffffffffffffffffff\n      mul\n      not\n      and\n      swap1\n      dup4\n      0xffffffffffffffffffffffffffffffffffffffff\n      and\n      mul\n      or\n      swap1\n      sstore\n      pop\n        /* \"Smart Contracts/27_OptimisticL2RollUps.sol\":4796:5018  function setSequencer(address newSequencer) external onlyOwner {... */\n      pop\n      jump\t// out\n        /* \"Smart Contracts/27_OptimisticL2RollUps.sol\":5898:6230  function unbond(uint256 amount) external whenNotPaused nonReentrant {... */\n    tag_62:\n        /* \"@openzeppelin/contracts/security/Pausable.sol\":1239:1258  _requireNotPaused() */\n      tag_217\n        /* \"@openzeppelin/contracts/security/Pausable.sol\":1239:1256  _requireNotPaused */\n      tag_176\n        /* \"@openzeppelin/contracts/security/Pausable.sol\":1239:1258  _requireNotPaused() */\n      jump\t// in\n    tag_217:\n        /* \"@openzeppelin/contracts/security/ReentrancyGuard.sol\":2261:2282  _nonReentrantBefore() */\n      tag_219\n        /* \"@openzeppelin/contracts/security/ReentrancyGuard.sol\":2261:2280  _nonReentrantBefore */\n      tag_179\n        /* \"@openzeppelin/contracts/security/ReentrancyGuard.sol\":2261:2282  _nonReentrantBefore() */\n      jump\t// in\n    tag_219:\n        /* \"Smart Contracts/27_OptimisticL2RollUps.sol\":6006:6012  amount */\n      dup1\n        /* \"Smart Contracts/27_OptimisticL2RollUps.sol\":5985:5990  bonds */\n      0x07\n        /* \"Smart Contracts/27_OptimisticL2RollUps.sol\":5985:6002  bonds[msg.sender] */\n      0x00\n        /* \"Smart Contracts/27_OptimisticL2RollUps.sol\":5991:6001  msg.sender */\n      caller\n        /* \"Smart Contracts/27_OptimisticL2RollUps.sol\":5985:6002  bonds[msg.sender] */\n      0xffffffffffffffffffffffffffffffffffffffff\n      and\n      0xffffffffffffffffffffffffffffffffffffffff\n      and\n      dup2\n      mstore\n      0x20\n      add\n      swap1\n      dup2\n      mstore\n      0x20\n      add\n      0x00\n      keccak256\n      sload\n        /* \"Smart Contracts/27_OptimisticL2RollUps.sol\":5985:6012  bonds[msg.sender] >= amount */\n      lt\n      iszero\n        /* \"Smart Contracts/27_OptimisticL2RollUps.sol\":5977:6034  require(bonds[msg.sender] >= amount, \"INSUFFICIENT_BOND\") */\n      tag_221\n      jumpi\n      mload(0x40)\n      0x08c379a000000000000000000000000000000000000000000000000000000000\n      dup2\n      mstore\n      0x04\n      add\n      tag_222\n      swap1\n      tag_223\n      jump\t// in\n    tag_222:\n      mload(0x40)\n      dup1\n      swap2\n      sub\n      swap1\n      revert\n    tag_221:\n        /* \"Smart Contracts/27_OptimisticL2RollUps.sol\":6066:6072  amount */\n      dup1\n        /* \"Smart Contracts/27_OptimisticL2RollUps.sol\":6045:6050  bonds */\n      0x07\n        /* \"Smart Contracts/27_OptimisticL2RollUps.sol\":6045:6062  bonds[msg.sender] */\n      0x00\n        /* \"Smart Contracts/27_OptimisticL2RollUps.sol\":6051:6061  msg.sender */\n      caller\n        /* \"Smart Contracts/27_OptimisticL2RollUps.sol\":6045:6062  bonds[msg.sender] */\n      0xffffffffffffffffffffffffffffffffffffffff\n      and\n      0xffffffffffffffffffffffffffffffffffffffff\n      and\n      dup2\n      mstore\n      0x20\n      add\n      swap1\n      dup2\n      mstore\n      0x20\n      add\n      0x00\n      keccak256\n      0x00\n        /* \"Smart Contracts/27_OptimisticL2RollUps.sol\":6045:6072  bonds[msg.sender] -= amount */\n      dup3\n      dup3\n      sload\n      tag_224\n      swap2\n      swap1\n      tag_225\n      jump\t// in\n    tag_224:\n      swap3\n      pop\n      pop\n      dup2\n      swap1\n      sstore\n      pop\n        /* \"Smart Contracts/27_OptimisticL2RollUps.sol\":6086:6093  bool ok */\n      0x00\n        /* \"Smart Contracts/27_OptimisticL2RollUps.sol\":6099:6109  msg.sender */\n      caller\n        /* \"Smart Contracts/27_OptimisticL2RollUps.sol\":6099:6114  msg.sender.call */\n      0xffffffffffffffffffffffffffffffffffffffff\n      and\n        /* \"Smart Contracts/27_OptimisticL2RollUps.sol\":6122:6128  amount */\n      dup3\n        /* \"Smart Contracts/27_OptimisticL2RollUps.sol\":6099:6133  msg.sender.call{value: amount}(\"\") */\n      mload(0x40)\n      tag_226\n      swap1\n      tag_192\n      jump\t// in\n    tag_226:\n      0x00\n      mload(0x40)\n      dup1\n      dup4\n      sub\n      dup2\n      dup6\n      dup8\n      gas\n      call\n      swap3\n      pop\n      pop\n      pop\n      returndatasize\n      dup1\n      0x00\n      dup2\n      eq\n      tag_229\n      jumpi\n      mload(0x40)\n      swap2\n      pop\n      and(add(returndatasize, 0x3f), not(0x1f))\n      dup3\n      add\n      0x40\n      mstore\n      returndatasize\n      dup3\n      mstore\n      returndatasize\n      0x00\n      0x20\n      dup5\n      add\n      returndatacopy\n      jump(tag_228)\n    tag_229:\n      0x60\n      swap2\n      pop\n    tag_228:\n      pop\n        /* \"Smart Contracts/27_OptimisticL2RollUps.sol\":6085:6133  (bool ok, ) = msg.sender.call{value: amount}(\"\") */\n      pop\n      swap1\n      pop\n        /* \"Smart Contracts/27_OptimisticL2RollUps.sol\":6149:6151  ok */\n      dup1\n        /* \"Smart Contracts/27_OptimisticL2RollUps.sol\":6144:6176  if (!ok) revert TransferFailed() */\n      tag_230\n      jumpi\n        /* \"Smart Contracts/27_OptimisticL2RollUps.sol\":6160:6176  TransferFailed() */\n      mload(0x40)\n      0x90b8ec1800000000000000000000000000000000000000000000000000000000\n      dup2\n      mstore\n      0x04\n      add\n      mload(0x40)\n      dup1\n      swap2\n      sub\n      swap1\n      revert\n        /* \"Smart Contracts/27_OptimisticL2RollUps.sol\":6144:6176  if (!ok) revert TransferFailed() */\n    tag_230:\n        /* \"Smart Contracts/27_OptimisticL2RollUps.sol\":6203:6213  msg.sender */\n      caller\n        /* \"Smart Contracts/27_OptimisticL2RollUps.sol\":6194:6222  Unbonded(msg.sender, amount) */\n      0xffffffffffffffffffffffffffffffffffffffff\n      and\n      0xd24dbf5e9299ce53c3aa9f7227ff1cc8441c2faae04509aa370ca3703385d6b4\n        /* \"Smart Contracts/27_OptimisticL2RollUps.sol\":6215:6221  amount */\n      dup4\n        /* \"Smart Contracts/27_OptimisticL2RollUps.sol\":6194:6222  Unbonded(msg.sender, amount) */\n      mload(0x40)\n      tag_231\n      swap2\n      swap1\n      tag_70\n      jump\t// in\n    tag_231:\n      mload(0x40)\n      dup1\n      swap2\n      sub\n      swap1\n      log2\n        /* \"Smart Contracts/27_OptimisticL2RollUps.sol\":5966:6230  {... */\n      pop\n        /* \"@openzeppelin/contracts/security/ReentrancyGuard.sol\":2303:2323  _nonReentrantAfter() */\n      tag_232\n        /* \"@openzeppelin/contracts/security/ReentrancyGuard.sol\":2303:2321  _nonReentrantAfter */\n      tag_203\n        /* \"@openzeppelin/contracts/security/ReentrancyGuard.sol\":2303:2323  _nonReentrantAfter() */\n      jump\t// in\n    tag_232:\n        /* \"Smart Contracts/27_OptimisticL2RollUps.sol\":5898:6230  function unbond(uint256 amount) external whenNotPaused nonReentrant {... */\n      pop\n      jump\t// out\n        /* \"Smart Contracts/27_OptimisticL2RollUps.sol\":5600:5653  function unpause() external onlyOwner { _unpause(); } */\n    tag_65:\n        /* \"@openzeppelin/contracts/access/Ownable.sol\":1531:1544  _checkOwner() */\n      tag_234\n        /* \"@openzeppelin/contracts/access/Ownable.sol\":1531:1542  _checkOwner */\n      tag_211\n        /* \"@openzeppelin/contracts/access/Ownable.sol\":1531:1544  _checkOwner() */\n      jump\t// in\n    tag_234:\n        /* \"Smart Contracts/27_OptimisticL2RollUps.sol\":5640:5650  _unpause() */\n      tag_236\n        /* \"Smart Contracts/27_OptimisticL2RollUps.sol\":5640:5648  _unpause */\n      tag_237\n        /* \"Smart Contracts/27_OptimisticL2RollUps.sol\":5640:5650  _unpause() */\n      jump\t// in\n    tag_236:\n        /* \"Smart Contracts/27_OptimisticL2RollUps.sol\":5600:5653  function unpause() external onlyOwner { _unpause(); } */\n      jump\t// out\n        /* \"Smart Contracts/27_OptimisticL2RollUps.sol\":2490:2518  uint256 public latestBatchId */\n    tag_68:\n      sload(0x08)\n      dup2\n      jump\t// out\n        /* \"Smart Contracts/27_OptimisticL2RollUps.sol\":3672:3741  mapping(uint256 => mapping(bytes32 => bool)) public withdrawalClaimed */\n    tag_75:\n      mstore(0x20, 0x0c)\n      dup2\n      0x00\n      mstore\n      mstore(0x20, keccak256(0x00, 0x40))\n      dup1\n      0x00\n      mstore\n      keccak256(0x00, 0x40)\n      0x00\n      swap2\n      pop\n      swap2\n      pop\n      swap1\n      sload\n      swap1\n      0x0100\n      exp\n      swap1\n      div\n      0xff\n      and\n      dup2\n      jump\t// out\n        /* \"Smart Contracts/27_OptimisticL2RollUps.sol\":5207:5537  function setParams(uint256 _challengeWindow, uint256 _sequencerBond, uint256 _challengerBond) external onlyOwner {... */\n    tag_82:\n        /* \"@openzeppelin/contracts/access/Ownable.sol\":1531:1544  _checkOwner() */\n      tag_239\n        /* \"@openzeppelin/contracts/access/Ownable.sol\":1531:1542  _checkOwner */\n      tag_211\n        /* \"@openzeppelin/contracts/access/Ownable.sol\":1531:1544  _checkOwner() */\n      jump\t// in\n    tag_239:\n        /* \"Smart Contracts/27_OptimisticL2RollUps.sol\":5349:5365  _challengeWindow */\n      dup3\n        /* \"Smart Contracts/27_OptimisticL2RollUps.sol\":5331:5346  challengeWindow */\n      0x06\n        /* \"Smart Contracts/27_OptimisticL2RollUps.sol\":5331:5365  challengeWindow = _challengeWindow */\n      dup2\n      swap1\n      sstore\n      pop\n        /* \"Smart Contracts/27_OptimisticL2RollUps.sol\":5392:5406  _sequencerBond */\n      dup2\n        /* \"Smart Contracts/27_OptimisticL2RollUps.sol\":5376:5389  sequencerBond */\n      0x04\n        /* \"Smart Contracts/27_OptimisticL2RollUps.sol\":5376:5406  sequencerBond = _sequencerBond */\n      dup2\n      swap1\n      sstore\n      pop\n        /* \"Smart Contracts/27_OptimisticL2RollUps.sol\":5434:5449  _challengerBond */\n      dup1\n        /* \"Smart Contracts/27_OptimisticL2RollUps.sol\":5417:5431  challengerBond */\n      0x05\n        /* \"Smart Contracts/27_OptimisticL2RollUps.sol\":5417:5449  challengerBond = _challengerBond */\n      dup2\n      swap1\n      sstore\n      pop\n        /* \"Smart Contracts/27_OptimisticL2RollUps.sol\":5465:5529  ParamsUpdated(_challengeWindow, _sequencerBond, _challengerBond) */\n      0x0cba168cfa7900657e5f8cc53d6f52ebbfa3a9f568941b465cc4f731c60c95b2\n        /* \"Smart Contracts/27_OptimisticL2RollUps.sol\":5479:5495  _challengeWindow */\n      dup4\n        /* \"Smart Contracts/27_OptimisticL2RollUps.sol\":5497:5511  _sequencerBond */\n      dup4\n        /* \"Smart Contracts/27_OptimisticL2RollUps.sol\":5513:5528  _challengerBond */\n      dup4\n        /* \"Smart Contracts/27_OptimisticL2RollUps.sol\":5465:5529  ParamsUpdated(_challengeWindow, _sequencerBond, _challengerBond) */\n      mload(0x40)\n      tag_241\n      swap4\n      swap3\n      swap2\n      swap1\n      tag_242\n      jump\t// in\n    tag_241:\n      mload(0x40)\n      dup1\n      swap2\n      sub\n      swap1\n      log1\n        /* \"Smart Contracts/27_OptimisticL2RollUps.sol\":5207:5537  function setParams(uint256 _challengeWindow, uint256 _sequencerBond, uint256 _challengerBond) external onlyOwner {... */\n      pop\n      pop\n      pop\n      jump\t// out\n        /* \"Smart Contracts/27_OptimisticL2RollUps.sol\":1904:1944  IFraudProofVerifier public fraudVerifier */\n    tag_85:\n      0x03\n      0x00\n      swap1\n      sload\n      swap1\n      0x0100\n      exp\n      swap1\n      div\n      0xffffffffffffffffffffffffffffffffffffffff\n      and\n      dup2\n      jump\t// out\n        /* \"Smart Contracts/27_OptimisticL2RollUps.sol\":1873:1897  address public sequencer */\n    tag_90:\n      0x02\n      0x00\n      swap1\n      sload\n      swap1\n      0x0100\n      exp\n      swap1\n      div\n      0xffffffffffffffffffffffffffffffffffffffff\n      and\n      dup2\n      jump\t// out\n        /* \"@openzeppelin/contracts/security/Pausable.sol\":1615:1699  function paused() public view virtual returns (bool) {... */\n    tag_95:\n        /* \"@openzeppelin/contracts/security/Pausable.sol\":1662:1666  bool */\n      0x00\n        /* \"@openzeppelin/contracts/security/Pausable.sol\":1685:1692  _paused */\n      0x00\n      0x14\n      swap1\n      sload\n      swap1\n      0x0100\n      exp\n      swap1\n      div\n      0xff\n      and\n        /* \"@openzeppelin/contracts/security/Pausable.sol\":1678:1692  return _paused */\n      swap1\n      pop\n        /* \"@openzeppelin/contracts/security/Pausable.sol\":1615:1699  function paused() public view virtual returns (bool) {... */\n      swap1\n      jump\t// out\n        /* \"Smart Contracts/27_OptimisticL2RollUps.sol\":5699:5890  function bond() external payable whenNotPaused {... */\n    tag_98:\n        /* \"@openzeppelin/contracts/security/Pausable.sol\":1239:1258  _requireNotPaused() */\n      tag_245\n        /* \"@openzeppelin/contracts/security/Pausable.sol\":1239:1256  _requireNotPaused */\n      tag_176\n        /* \"@openzeppelin/contracts/security/Pausable.sol\":1239:1258  _requireNotPaused() */\n      jump\t// in\n    tag_245:\n        /* \"Smart Contracts/27_OptimisticL2RollUps.sol\":5774:5775  0 */\n      0x00\n        /* \"Smart Contracts/27_OptimisticL2RollUps.sol\":5761:5770  msg.value */\n      callvalue\n        /* \"Smart Contracts/27_OptimisticL2RollUps.sol\":5761:5775  msg.value == 0 */\n      sub\n        /* \"Smart Contracts/27_OptimisticL2RollUps.sol\":5757:5796  if (msg.value == 0) revert ZeroAmount() */\n      tag_247\n      jumpi\n        /* \"Smart Contracts/27_OptimisticL2RollUps.sol\":5784:5796  ZeroAmount() */\n      mload(0x40)\n      0x1f2a200500000000000000000000000000000000000000000000000000000000\n      dup2\n      mstore\n      0x04\n      add\n      mload(0x40)\n      dup1\n      swap2\n      sub\n      swap1\n      revert\n        /* \"Smart Contracts/27_OptimisticL2RollUps.sol\":5757:5796  if (msg.value == 0) revert ZeroAmount() */\n    tag_247:\n        /* \"Smart Contracts/27_OptimisticL2RollUps.sol\":5828:5837  msg.value */\n      callvalue\n        /* \"Smart Contracts/27_OptimisticL2RollUps.sol\":5807:5812  bonds */\n      0x07\n        /* \"Smart Contracts/27_OptimisticL2RollUps.sol\":5807:5824  bonds[msg.sender] */\n      0x00\n        /* \"Smart Contracts/27_OptimisticL2RollUps.sol\":5813:5823  msg.sender */\n      caller\n        /* \"Smart Contracts/27_OptimisticL2RollUps.sol\":5807:5824  bonds[msg.sender] */\n      0xffffffffffffffffffffffffffffffffffffffff\n      and\n      0xffffffffffffffffffffffffffffffffffffffff\n      and\n      dup2\n      mstore\n      0x20\n      add\n      swap1\n      dup2\n      mstore\n      0x20\n      add\n      0x00\n      keccak256\n      0x00\n        /* \"Smart Contracts/27_OptimisticL2RollUps.sol\":5807:5837  bonds[msg.sender] += msg.value */\n      dup3\n      dup3\n      sload\n      tag_248\n      swap2\n      swap1\n      tag_207\n      jump\t// in\n    tag_248:\n      swap3\n      pop\n      pop\n      dup2\n      swap1\n      sstore\n      pop\n        /* \"Smart Contracts/27_OptimisticL2RollUps.sol\":5860:5870  msg.sender */\n      caller\n        /* \"Smart Contracts/27_OptimisticL2RollUps.sol\":5853:5882  Bonded(msg.sender, msg.value) */\n      0xffffffffffffffffffffffffffffffffffffffff\n      and\n      0xd0a009034e24a39106653c4903cf28b1947b8a9964d03206648e0f0a5de74a46\n        /* \"Smart Contracts/27_OptimisticL2RollUps.sol\":5872:5881  msg.value */\n      callvalue\n        /* \"Smart Contracts/27_OptimisticL2RollUps.sol\":5853:5882  Bonded(msg.sender, msg.value) */\n      mload(0x40)\n      tag_249\n      swap2\n      swap1\n      tag_70\n      jump\t// in\n    tag_249:\n      mload(0x40)\n      dup1\n      swap2\n      sub\n      swap1\n      log2\n        /* \"Smart Contracts/27_OptimisticL2RollUps.sol\":5699:5890  function bond() external payable whenNotPaused {... */\n      jump\t// out\n        /* \"Smart Contracts/27_OptimisticL2RollUps.sol\":6956:7787  function submitBatch(... */\n    tag_103:\n        /* \"@openzeppelin/contracts/security/Pausable.sol\":1239:1258  _requireNotPaused() */\n      tag_251\n        /* \"@openzeppelin/contracts/security/Pausable.sol\":1239:1256  _requireNotPaused */\n      tag_176\n        /* \"@openzeppelin/contracts/security/Pausable.sol\":1239:1258  _requireNotPaused() */\n      jump\t// in\n    tag_251:\n        /* \"Smart Contracts/27_OptimisticL2RollUps.sol\":6896:6905  sequencer */\n      0x02\n      0x00\n      swap1\n      sload\n      swap1\n      0x0100\n      exp\n      swap1\n      div\n      0xffffffffffffffffffffffffffffffffffffffff\n      and\n        /* \"Smart Contracts/27_OptimisticL2RollUps.sol\":6882:6905  msg.sender != sequencer */\n      0xffffffffffffffffffffffffffffffffffffffff\n      and\n        /* \"Smart Contracts/27_OptimisticL2RollUps.sol\":6882:6892  msg.sender */\n      caller\n        /* \"Smart Contracts/27_OptimisticL2RollUps.sol\":6882:6905  msg.sender != sequencer */\n      0xffffffffffffffffffffffffffffffffffffffff\n      and\n      eq\n        /* \"Smart Contracts/27_OptimisticL2RollUps.sol\":6878:6928  if (msg.sender != sequencer) revert NotSequencer() */\n      tag_253\n      jumpi\n        /* \"Smart Contracts/27_OptimisticL2RollUps.sol\":6914:6928  NotSequencer() */\n      mload(0x40)\n      0x53e2827c00000000000000000000000000000000000000000000000000000000\n      dup2\n      mstore\n      0x04\n      add\n      mload(0x40)\n      dup1\n      swap2\n      sub\n      swap1\n      revert\n        /* \"Smart Contracts/27_OptimisticL2RollUps.sol\":6878:6928  if (msg.sender != sequencer) revert NotSequencer() */\n    tag_253:\n        /* \"Smart Contracts/27_OptimisticL2RollUps.sol\":7154:7167  sequencerBond */\n      sload(0x04)\n        /* \"Smart Contracts/27_OptimisticL2RollUps.sol\":7133:7138  bonds */\n      0x07\n        /* \"Smart Contracts/27_OptimisticL2RollUps.sol\":7133:7150  bonds[msg.sender] */\n      0x00\n        /* \"Smart Contracts/27_OptimisticL2RollUps.sol\":7139:7149  msg.sender */\n      caller\n        /* \"Smart Contracts/27_OptimisticL2RollUps.sol\":7133:7150  bonds[msg.sender] */\n      0xffffffffffffffffffffffffffffffffffffffff\n      and\n      0xffffffffffffffffffffffffffffffffffffffff\n      and\n      dup2\n      mstore\n      0x20\n      add\n      swap1\n      dup2\n      mstore\n      0x20\n      add\n      0x00\n      keccak256\n      sload\n        /* \"Smart Contracts/27_OptimisticL2RollUps.sol\":7133:7167  bonds[msg.sender] >= sequencerBond */\n      lt\n      iszero\n        /* \"Smart Contracts/27_OptimisticL2RollUps.sol\":7125:7190  require(bonds[msg.sender] >= sequencerBond, \"SEQUENCER_BOND_LOW\") */\n      tag_255\n      jumpi\n      mload(0x40)\n      0x08c379a000000000000000000000000000000000000000000000000000000000\n      dup2\n      mstore\n      0x04\n      add\n      tag_256\n      swap1\n      tag_257\n      jump\t// in\n    tag_256:\n      mload(0x40)\n      dup1\n      swap2\n      sub\n      swap1\n      revert\n    tag_255:\n        /* \"Smart Contracts/27_OptimisticL2RollUps.sol\":7229:7230  0 */\n      0x00\n        /* \"Smart Contracts/27_OptimisticL2RollUps.sol\":7221:7231  bytes32(0) */\n      0x00\n      shl\n        /* \"Smart Contracts/27_OptimisticL2RollUps.sol\":7205:7217  newStateRoot */\n      dup4\n        /* \"Smart Contracts/27_OptimisticL2RollUps.sol\":7205:7231  newStateRoot == bytes32(0) */\n      eq\n        /* \"Smart Contracts/27_OptimisticL2RollUps.sol\":7205:7259  newStateRoot == bytes32(0) || txDataHash == bytes32(0) */\n      dup1\n      tag_258\n      jumpi\n      pop\n        /* \"Smart Contracts/27_OptimisticL2RollUps.sol\":7257:7258  0 */\n      0x00\n        /* \"Smart Contracts/27_OptimisticL2RollUps.sol\":7249:7259  bytes32(0) */\n      0x00\n      shl\n        /* \"Smart Contracts/27_OptimisticL2RollUps.sol\":7235:7245  txDataHash */\n      dup3\n        /* \"Smart Contracts/27_OptimisticL2RollUps.sol\":7235:7259  txDataHash == bytes32(0) */\n      eq\n        /* \"Smart Contracts/27_OptimisticL2RollUps.sol\":7205:7259  newStateRoot == bytes32(0) || txDataHash == bytes32(0) */\n    tag_258:\n        /* \"Smart Contracts/27_OptimisticL2RollUps.sol\":7201:7278  if (newStateRoot == bytes32(0) || txDataHash == bytes32(0)) revert BadBatch() */\n      iszero\n      tag_259\n      jumpi\n        /* \"Smart Contracts/27_OptimisticL2RollUps.sol\":7268:7278  BadBatch() */\n      mload(0x40)\n      0x86bdc25c00000000000000000000000000000000000000000000000000000000\n      dup2\n      mstore\n      0x04\n      add\n      mload(0x40)\n      dup1\n      swap2\n      sub\n      swap1\n      revert\n        /* \"Smart Contracts/27_OptimisticL2RollUps.sol\":7201:7278  if (newStateRoot == bytes32(0) || txDataHash == bytes32(0)) revert BadBatch() */\n    tag_259:\n        /* \"Smart Contracts/27_OptimisticL2RollUps.sol\":7291:7306  uint256 batchId */\n      0x00\n        /* \"Smart Contracts/27_OptimisticL2RollUps.sol\":7311:7324  latestBatchId */\n      0x08\n      0x00\n        /* \"Smart Contracts/27_OptimisticL2RollUps.sol\":7309:7324  ++latestBatchId */\n      dup2\n      sload\n      tag_260\n      swap1\n      tag_261\n      jump\t// in\n    tag_260:\n      swap2\n      swap1\n      pop\n      dup2\n      swap1\n      sstore\n        /* \"Smart Contracts/27_OptimisticL2RollUps.sol\":7291:7324  uint256 batchId = ++latestBatchId */\n      swap1\n      pop\n        /* \"Smart Contracts/27_OptimisticL2RollUps.sol\":7335:7350  Batch storage b */\n      0x00\n        /* \"Smart Contracts/27_OptimisticL2RollUps.sol\":7353:7360  batches */\n      0x09\n        /* \"Smart Contracts/27_OptimisticL2RollUps.sol\":7353:7369  batches[batchId] */\n      0x00\n        /* \"Smart Contracts/27_OptimisticL2RollUps.sol\":7361:7368  batchId */\n      dup4\n        /* \"Smart Contracts/27_OptimisticL2RollUps.sol\":7353:7369  batches[batchId] */\n      dup2\n      mstore\n      0x20\n      add\n      swap1\n      dup2\n      mstore\n      0x20\n      add\n      0x00\n      keccak256\n        /* \"Smart Contracts/27_OptimisticL2RollUps.sol\":7335:7369  Batch storage b = batches[batchId] */\n      swap1\n      pop\n        /* \"Smart Contracts/27_OptimisticL2RollUps.sol\":7400:7416  currentStateRoot */\n      sload(0x0a)\n        /* \"Smart Contracts/27_OptimisticL2RollUps.sol\":7382:7383  b */\n      dup2\n        /* \"Smart Contracts/27_OptimisticL2RollUps.sol\":7382:7397  b.prevStateRoot */\n      0x00\n      add\n        /* \"Smart Contracts/27_OptimisticL2RollUps.sol\":7382:7416  b.prevStateRoot = currentStateRoot */\n      dup2\n      swap1\n      sstore\n      pop\n        /* \"Smart Contracts/27_OptimisticL2RollUps.sol\":7444:7456  newStateRoot */\n      dup5\n        /* \"Smart Contracts/27_OptimisticL2RollUps.sol\":7427:7428  b */\n      dup2\n        /* \"Smart Contracts/27_OptimisticL2RollUps.sol\":7427:7441  b.newStateRoot */\n      0x01\n      add\n        /* \"Smart Contracts/27_OptimisticL2RollUps.sol\":7427:7456  b.newStateRoot = newStateRoot */\n      dup2\n      swap1\n      sstore\n      pop\n        /* \"Smart Contracts/27_OptimisticL2RollUps.sol\":7482:7492  txDataHash */\n      dup4\n        /* \"Smart Contracts/27_OptimisticL2RollUps.sol\":7467:7468  b */\n      dup2\n        /* \"Smart Contracts/27_OptimisticL2RollUps.sol\":7467:7479  b.txDataHash */\n      0x02\n      add\n        /* \"Smart Contracts/27_OptimisticL2RollUps.sol\":7467:7492  b.txDataHash = txDataHash */\n      dup2\n      swap1\n      sstore\n      pop\n        /* \"Smart Contracts/27_OptimisticL2RollUps.sol\":7522:7536  withdrawalRoot */\n      dup3\n        /* \"Smart Contracts/27_OptimisticL2RollUps.sol\":7503:7504  b */\n      dup2\n        /* \"Smart Contracts/27_OptimisticL2RollUps.sol\":7503:7519  b.withdrawalRoot */\n      0x03\n      add\n        /* \"Smart Contracts/27_OptimisticL2RollUps.sol\":7503:7536  b.withdrawalRoot = withdrawalRoot */\n      dup2\n      swap1\n      sstore\n      pop\n        /* \"Smart Contracts/27_OptimisticL2RollUps.sol\":7570:7585  block.timestamp */\n      timestamp\n        /* \"Smart Contracts/27_OptimisticL2RollUps.sol\":7547:7548  b */\n      dup2\n        /* \"Smart Contracts/27_OptimisticL2RollUps.sol\":7547:7560  b.submittedAt */\n      0x04\n      add\n      0x00\n        /* \"Smart Contracts/27_OptimisticL2RollUps.sol\":7547:7586  b.submittedAt = uint64(block.timestamp) */\n      0x0100\n      exp\n      dup2\n      sload\n      dup2\n      0xffffffffffffffff\n      mul\n      not\n      and\n      swap1\n      dup4\n      0xffffffffffffffff\n      and\n      mul\n      or\n      swap1\n      sstore\n      pop\n        /* \"Smart Contracts/27_OptimisticL2RollUps.sol\":7645:7646  b */\n      dup1\n        /* \"Smart Contracts/27_OptimisticL2RollUps.sol\":7645:7659  b.newStateRoot */\n      0x01\n      add\n      sload\n        /* \"Smart Contracts/27_OptimisticL2RollUps.sol\":7628:7629  b */\n      dup2\n        /* \"Smart Contracts/27_OptimisticL2RollUps.sol\":7628:7643  b.prevStateRoot */\n      0x00\n      add\n      sload\n        /* \"Smart Contracts/27_OptimisticL2RollUps.sol\":7619:7626  batchId */\n      dup4\n        /* \"Smart Contracts/27_OptimisticL2RollUps.sol\":7604:7688  BatchSubmitted(batchId, b.prevStateRoot, b.newStateRoot, txDataHash, withdrawalRoot) */\n      0x65300ce317ab79e5474eefcb0c14e8d429b3e59746933dbb8e07f051347c4190\n        /* \"Smart Contracts/27_OptimisticL2RollUps.sol\":7661:7671  txDataHash */\n      dup8\n        /* \"Smart Contracts/27_OptimisticL2RollUps.sol\":7673:7687  withdrawalRoot */\n      dup8\n        /* \"Smart Contracts/27_OptimisticL2RollUps.sol\":7604:7688  BatchSubmitted(batchId, b.prevStateRoot, b.newStateRoot, txDataHash, withdrawalRoot) */\n      mload(0x40)\n      tag_262\n      swap3\n      swap2\n      swap1\n      tag_263\n      jump\t// in\n    tag_262:\n      mload(0x40)\n      dup1\n      swap2\n      sub\n      swap1\n      log4\n        /* \"Smart Contracts/27_OptimisticL2RollUps.sol\":7767:7779  newStateRoot */\n      dup5\n        /* \"Smart Contracts/27_OptimisticL2RollUps.sol\":7748:7764  currentStateRoot */\n      0x0a\n        /* \"Smart Contracts/27_OptimisticL2RollUps.sol\":7748:7779  currentStateRoot = newStateRoot */\n      dup2\n      swap1\n      sstore\n      pop\n        /* \"Smart Contracts/27_OptimisticL2RollUps.sol\":7114:7787  {... */\n      pop\n      pop\n        /* \"Smart Contracts/27_OptimisticL2RollUps.sol\":6956:7787  function submitBatch(... */\n      pop\n      pop\n      pop\n      jump\t// out\n        /* \"Smart Contracts/27_OptimisticL2RollUps.sol\":2036:2065  uint256 public challengerBond */\n    tag_106:\n      sload(0x05)\n      dup2\n      jump\t// out\n        /* \"@openzeppelin/contracts/access/Ownable.sol\":2293:2394  function renounceOwnership() public virtual onlyOwner {... */\n    tag_110:\n        /* \"@openzeppelin/contracts/access/Ownable.sol\":1531:1544  _checkOwner() */\n      tag_265\n        /* \"@openzeppelin/contracts/access/Ownable.sol\":1531:1542  _checkOwner */\n      tag_211\n        /* \"@openzeppelin/contracts/access/Ownable.sol\":1531:1544  _checkOwner() */\n      jump\t// in\n    tag_265:\n        /* \"@openzeppelin/contracts/access/Ownable.sol\":2357:2387  _transferOwnership(address(0)) */\n      tag_267\n        /* \"@openzeppelin/contracts/access/Ownable.sol\":2384:2385  0 */\n      0x00\n        /* \"@openzeppelin/contracts/access/Ownable.sol\":2357:2375  _transferOwnership */\n      tag_268\n        /* \"@openzeppelin/contracts/access/Ownable.sol\":2357:2387  _transferOwnership(address(0)) */\n      jump\t// in\n    tag_267:\n        /* \"@openzeppelin/contracts/access/Ownable.sol\":2293:2394  function renounceOwnership() public virtual onlyOwner {... */\n      jump\t// out\n        /* \"Smart Contracts/27_OptimisticL2RollUps.sol\":8435:10007  function resolveChallenge(uint256 batchId, bytes calldata proof) external whenNotPaused {... */\n    tag_115:\n        /* \"@openzeppelin/contracts/security/Pausable.sol\":1239:1258  _requireNotPaused() */\n      tag_270\n        /* \"@openzeppelin/contracts/security/Pausable.sol\":1239:1256  _requireNotPaused */\n      tag_176\n        /* \"@openzeppelin/contracts/security/Pausable.sol\":1239:1258  _requireNotPaused() */\n      jump\t// in\n    tag_270:\n        /* \"Smart Contracts/27_OptimisticL2RollUps.sol\":8534:8549  Batch storage b */\n      0x00\n        /* \"Smart Contracts/27_OptimisticL2RollUps.sol\":8552:8559  batches */\n      0x09\n        /* \"Smart Contracts/27_OptimisticL2RollUps.sol\":8552:8568  batches[batchId] */\n      0x00\n        /* \"Smart Contracts/27_OptimisticL2RollUps.sol\":8560:8567  batchId */\n      dup6\n        /* \"Smart Contracts/27_OptimisticL2RollUps.sol\":8552:8568  batches[batchId] */\n      dup2\n      mstore\n      0x20\n      add\n      swap1\n      dup2\n      mstore\n      0x20\n      add\n      0x00\n      keccak256\n        /* \"Smart Contracts/27_OptimisticL2RollUps.sol\":8534:8568  Batch storage b = batches[batchId] */\n      swap1\n      pop\n        /* \"Smart Contracts/27_OptimisticL2RollUps.sol\":8600:8601  0 */\n      0x00\n        /* \"Smart Contracts/27_OptimisticL2RollUps.sol\":8583:8584  b */\n      dup2\n        /* \"Smart Contracts/27_OptimisticL2RollUps.sol\":8583:8596  b.submittedAt */\n      0x04\n      add\n      0x00\n      swap1\n      sload\n      swap1\n      0x0100\n      exp\n      swap1\n      div\n      0xffffffffffffffff\n      and\n        /* \"Smart Contracts/27_OptimisticL2RollUps.sol\":8583:8601  b.submittedAt == 0 */\n      0xffffffffffffffff\n      and\n      sub\n        /* \"Smart Contracts/27_OptimisticL2RollUps.sol\":8579:8625  if (b.submittedAt == 0) revert BatchNotFound() */\n      tag_272\n      jumpi\n        /* \"Smart Contracts/27_OptimisticL2RollUps.sol\":8610:8625  BatchNotFound() */\n      mload(0x40)\n      0x9e15e1bc00000000000000000000000000000000000000000000000000000000\n      dup2\n      mstore\n      0x04\n      add\n      mload(0x40)\n      dup1\n      swap2\n      sub\n      swap1\n      revert\n        /* \"Smart Contracts/27_OptimisticL2RollUps.sol\":8579:8625  if (b.submittedAt == 0) revert BatchNotFound() */\n    tag_272:\n        /* \"Smart Contracts/27_OptimisticL2RollUps.sol\":8641:8642  b */\n      dup1\n        /* \"Smart Contracts/27_OptimisticL2RollUps.sol\":8641:8653  b.challenged */\n      0x04\n      add\n      0x08\n      swap1\n      sload\n      swap1\n      0x0100\n      exp\n      swap1\n      div\n      0xff\n      and\n        /* \"Smart Contracts/27_OptimisticL2RollUps.sol\":8636:8677  if (!b.challenged) revert NotChallenger() */\n      tag_273\n      jumpi\n        /* \"Smart Contracts/27_OptimisticL2RollUps.sol\":8662:8677  NotChallenger() */\n      mload(0x40)\n      0xd44be46e00000000000000000000000000000000000000000000000000000000\n      dup2\n      mstore\n      0x04\n      add\n      mload(0x40)\n      dup1\n      swap2\n      sub\n      swap1\n      revert\n        /* \"Smart Contracts/27_OptimisticL2RollUps.sol\":8636:8677  if (!b.challenged) revert NotChallenger() */\n    tag_273:\n        /* \"Smart Contracts/27_OptimisticL2RollUps.sol\":8692:8693  b */\n      dup1\n        /* \"Smart Contracts/27_OptimisticL2RollUps.sol\":8692:8703  b.finalized */\n      0x04\n      add\n      0x09\n      swap1\n      sload\n      swap1\n      0x0100\n      exp\n      swap1\n      div\n      0xff\n      and\n        /* \"Smart Contracts/27_OptimisticL2RollUps.sol\":8688:8735  if (b.finalized) revert BatchAlreadyFinalized() */\n      iszero\n      tag_274\n      jumpi\n        /* \"Smart Contracts/27_OptimisticL2RollUps.sol\":8712:8735  BatchAlreadyFinalized() */\n      mload(0x40)\n      0x8a66d60700000000000000000000000000000000000000000000000000000000\n      dup2\n      mstore\n      0x04\n      add\n      mload(0x40)\n      dup1\n      swap2\n      sub\n      swap1\n      revert\n        /* \"Smart Contracts/27_OptimisticL2RollUps.sol\":8688:8735  if (b.finalized) revert BatchAlreadyFinalized() */\n    tag_274:\n        /* \"Smart Contracts/27_OptimisticL2RollUps.sol\":8832:8833  b */\n      dup1\n        /* \"Smart Contracts/27_OptimisticL2RollUps.sol\":8832:8844  b.challenger */\n      0x04\n      add\n      0x0a\n      swap1\n      sload\n      swap1\n      0x0100\n      exp\n      swap1\n      div\n      0xffffffffffffffffffffffffffffffffffffffff\n      and\n        /* \"Smart Contracts/27_OptimisticL2RollUps.sol\":8818:8844  msg.sender != b.challenger */\n      0xffffffffffffffffffffffffffffffffffffffff\n      and\n        /* \"Smart Contracts/27_OptimisticL2RollUps.sol\":8818:8828  msg.sender */\n      caller\n        /* \"Smart Contracts/27_OptimisticL2RollUps.sol\":8818:8844  msg.sender != b.challenger */\n      0xffffffffffffffffffffffffffffffffffffffff\n      and\n      eq\n      iszero\n        /* \"Smart Contracts/27_OptimisticL2RollUps.sol\":8818:8869  msg.sender != b.challenger && msg.sender != owner() */\n      dup1\n      iszero\n      tag_275\n      jumpi\n      pop\n        /* \"Smart Contracts/27_OptimisticL2RollUps.sol\":8862:8869  owner() */\n      tag_276\n        /* \"Smart Contracts/27_OptimisticL2RollUps.sol\":8862:8867  owner */\n      tag_125\n        /* \"Smart Contracts/27_OptimisticL2RollUps.sol\":8862:8869  owner() */\n      jump\t// in\n    tag_276:\n        /* \"Smart Contracts/27_OptimisticL2RollUps.sol\":8848:8869  msg.sender != owner() */\n      0xffffffffffffffffffffffffffffffffffffffff\n      and\n        /* \"Smart Contracts/27_OptimisticL2RollUps.sol\":8848:8858  msg.sender */\n      caller\n        /* \"Smart Contracts/27_OptimisticL2RollUps.sol\":8848:8869  msg.sender != owner() */\n      0xffffffffffffffffffffffffffffffffffffffff\n      and\n      eq\n      iszero\n        /* \"Smart Contracts/27_OptimisticL2RollUps.sol\":8818:8869  msg.sender != b.challenger && msg.sender != owner() */\n    tag_275:\n        /* \"Smart Contracts/27_OptimisticL2RollUps.sol\":8814:8893  if (msg.sender != b.challenger && msg.sender != owner()) revert NotChallenger() */\n      iszero\n      tag_277\n      jumpi\n        /* \"Smart Contracts/27_OptimisticL2RollUps.sol\":8878:8893  NotChallenger() */\n      mload(0x40)\n      0xd44be46e00000000000000000000000000000000000000000000000000000000\n      dup2\n      mstore\n      0x04\n      add\n      mload(0x40)\n      dup1\n      swap2\n      sub\n      swap1\n      revert\n        /* \"Smart Contracts/27_OptimisticL2RollUps.sol\":8814:8893  if (msg.sender != b.challenger && msg.sender != owner()) revert NotChallenger() */\n    tag_277:\n        /* \"Smart Contracts/27_OptimisticL2RollUps.sol\":8944:8945  0 */\n      0x00\n        /* \"Smart Contracts/27_OptimisticL2RollUps.sol\":8910:8946  address(fraudVerifier) == address(0) */\n      0xffffffffffffffffffffffffffffffffffffffff\n      and\n        /* \"Smart Contracts/27_OptimisticL2RollUps.sol\":8918:8931  fraudVerifier */\n      0x03\n      0x00\n      swap1\n      sload\n      swap1\n      0x0100\n      exp\n      swap1\n      div\n      0xffffffffffffffffffffffffffffffffffffffff\n      and\n        /* \"Smart Contracts/27_OptimisticL2RollUps.sol\":8910:8946  address(fraudVerifier) == address(0) */\n      0xffffffffffffffffffffffffffffffffffffffff\n      and\n      sub\n        /* \"Smart Contracts/27_OptimisticL2RollUps.sol\":8906:8969  if (address(fraudVerifier) == address(0)) revert InvalidProof() */\n      tag_278\n      jumpi\n        /* \"Smart Contracts/27_OptimisticL2RollUps.sol\":8955:8969  InvalidProof() */\n      mload(0x40)\n      0x09bde33900000000000000000000000000000000000000000000000000000000\n      dup2\n      mstore\n      0x04\n      add\n      mload(0x40)\n      dup1\n      swap2\n      sub\n      swap1\n      revert\n        /* \"Smart Contracts/27_OptimisticL2RollUps.sol\":8906:8969  if (address(fraudVerifier) == address(0)) revert InvalidProof() */\n    tag_278:\n        /* \"Smart Contracts/27_OptimisticL2RollUps.sol\":8982:8998  bool fraudProven */\n      0x00\n        /* \"Smart Contracts/27_OptimisticL2RollUps.sol\":9001:9014  fraudVerifier */\n      0x03\n      0x00\n      swap1\n      sload\n      swap1\n      0x0100\n      exp\n      swap1\n      div\n      0xffffffffffffffffffffffffffffffffffffffff\n      and\n        /* \"Smart Contracts/27_OptimisticL2RollUps.sol\":9001:9028  fraudVerifier.verifiesFraud */\n      0xffffffffffffffffffffffffffffffffffffffff\n      and\n      0x8606d488\n        /* \"Smart Contracts/27_OptimisticL2RollUps.sol\":9029:9034  proof */\n      dup6\n      dup6\n        /* \"Smart Contracts/27_OptimisticL2RollUps.sol\":9036:9037  b */\n      dup6\n        /* \"Smart Contracts/27_OptimisticL2RollUps.sol\":9036:9048  b.txDataHash */\n      0x02\n      add\n      sload\n        /* \"Smart Contracts/27_OptimisticL2RollUps.sol\":9050:9051  b */\n      dup7\n        /* \"Smart Contracts/27_OptimisticL2RollUps.sol\":9050:9065  b.prevStateRoot */\n      0x00\n      add\n      sload\n        /* \"Smart Contracts/27_OptimisticL2RollUps.sol\":9067:9068  b */\n      dup8\n        /* \"Smart Contracts/27_OptimisticL2RollUps.sol\":9067:9081  b.newStateRoot */\n      0x01\n      add\n      sload\n        /* \"Smart Contracts/27_OptimisticL2RollUps.sol\":9001:9082  fraudVerifier.verifiesFraud(proof, b.txDataHash, b.prevStateRoot, b.newStateRoot) */\n      mload(0x40)\n      dup7\n      0xffffffff\n      and\n      0xe0\n      shl\n      dup2\n      mstore\n      0x04\n      add\n      tag_279\n      swap6\n      swap5\n      swap4\n      swap3\n      swap2\n      swap1\n      tag_280\n      jump\t// in\n    tag_279:\n      0x20\n      mload(0x40)\n      dup1\n      dup4\n      sub\n      dup2\n      dup7\n      gas\n      staticcall\n      iszero\n      dup1\n      iszero\n      tag_282\n      jumpi\n      returndatacopy(0x00, 0x00, returndatasize)\n      revert(0x00, returndatasize)\n    tag_282:\n      pop\n      pop\n      pop\n      pop\n      mload(0x40)\n      returndatasize\n      not(0x1f)\n      0x1f\n      dup3\n      add\n      and\n      dup3\n      add\n      dup1\n      0x40\n      mstore\n      pop\n      dup2\n      add\n      swap1\n      tag_283\n      swap2\n      swap1\n      tag_284\n      jump\t// in\n    tag_283:\n        /* \"Smart Contracts/27_OptimisticL2RollUps.sol\":8982:9082  bool fraudProven = fraudVerifier.verifiesFraud(proof, b.txDataHash, b.prevStateRoot, b.newStateRoot) */\n      swap1\n      pop\n        /* \"Smart Contracts/27_OptimisticL2RollUps.sol\":9099:9110  fraudProven */\n      dup1\n        /* \"Smart Contracts/27_OptimisticL2RollUps.sol\":9095:9910  if (fraudProven) {... */\n      iszero\n      tag_285\n      jumpi\n        /* \"Smart Contracts/27_OptimisticL2RollUps.sol\":9196:9215  uint256 slashAmount */\n      0x00\n        /* \"Smart Contracts/27_OptimisticL2RollUps.sol\":9234:9235  2 */\n      0x02\n        /* \"Smart Contracts/27_OptimisticL2RollUps.sol\":9218:9231  sequencerBond */\n      sload(0x04)\n        /* \"Smart Contracts/27_OptimisticL2RollUps.sol\":9218:9235  sequencerBond / 2 */\n      tag_286\n      swap2\n      swap1\n      tag_287\n      jump\t// in\n    tag_286:\n        /* \"Smart Contracts/27_OptimisticL2RollUps.sol\":9196:9235  uint256 slashAmount = sequencerBond / 2 */\n      swap1\n      pop\n        /* \"Smart Contracts/27_OptimisticL2RollUps.sol\":9252:9267  uint256 seqBond */\n      0x00\n        /* \"Smart Contracts/27_OptimisticL2RollUps.sol\":9270:9275  bonds */\n      0x07\n        /* \"Smart Contracts/27_OptimisticL2RollUps.sol\":9270:9286  bonds[sequencer] */\n      0x00\n        /* \"Smart Contracts/27_OptimisticL2RollUps.sol\":9276:9285  sequencer */\n      0x02\n      0x00\n      swap1\n      sload\n      swap1\n      0x0100\n      exp\n      swap1\n      div\n      0xffffffffffffffffffffffffffffffffffffffff\n      and\n        /* \"Smart Contracts/27_OptimisticL2RollUps.sol\":9270:9286  bonds[sequencer] */\n      0xffffffffffffffffffffffffffffffffffffffff\n      and\n      0xffffffffffffffffffffffffffffffffffffffff\n      and\n      dup2\n      mstore\n      0x20\n      add\n      swap1\n      dup2\n      mstore\n      0x20\n      add\n      0x00\n      keccak256\n      sload\n        /* \"Smart Contracts/27_OptimisticL2RollUps.sol\":9252:9286  uint256 seqBond = bonds[sequencer] */\n      swap1\n      pop\n        /* \"Smart Contracts/27_OptimisticL2RollUps.sol\":9301:9320  uint256 actualSlash */\n      0x00\n        /* \"Smart Contracts/27_OptimisticL2RollUps.sol\":9337:9344  seqBond */\n      dup2\n        /* \"Smart Contracts/27_OptimisticL2RollUps.sol\":9323:9334  slashAmount */\n      dup4\n        /* \"Smart Contracts/27_OptimisticL2RollUps.sol\":9323:9344  slashAmount > seqBond */\n      gt\n        /* \"Smart Contracts/27_OptimisticL2RollUps.sol\":9323:9368  slashAmount > seqBond ? seqBond : slashAmount */\n      tag_288\n      jumpi\n        /* \"Smart Contracts/27_OptimisticL2RollUps.sol\":9357:9368  slashAmount */\n      dup3\n        /* \"Smart Contracts/27_OptimisticL2RollUps.sol\":9323:9368  slashAmount > seqBond ? seqBond : slashAmount */\n      jump(tag_289)\n    tag_288:\n        /* \"Smart Contracts/27_OptimisticL2RollUps.sol\":9347:9354  seqBond */\n      dup2\n        /* \"Smart Contracts/27_OptimisticL2RollUps.sol\":9323:9368  slashAmount > seqBond ? seqBond : slashAmount */\n    tag_289:\n        /* \"Smart Contracts/27_OptimisticL2RollUps.sol\":9301:9368  uint256 actualSlash = slashAmount > seqBond ? seqBond : slashAmount */\n      swap1\n      pop\n        /* \"Smart Contracts/27_OptimisticL2RollUps.sol\":9403:9404  0 */\n      0x00\n        /* \"Smart Contracts/27_OptimisticL2RollUps.sol\":9389:9400  actualSlash */\n      dup2\n        /* \"Smart Contracts/27_OptimisticL2RollUps.sol\":9389:9404  actualSlash > 0 */\n      gt\n        /* \"Smart Contracts/27_OptimisticL2RollUps.sol\":9385:9534  if (actualSlash > 0) {... */\n      iszero\n      tag_290\n      jumpi\n        /* \"Smart Contracts/27_OptimisticL2RollUps.sol\":9454:9465  actualSlash */\n      dup1\n        /* \"Smart Contracts/27_OptimisticL2RollUps.sol\":9444:9451  seqBond */\n      dup3\n        /* \"Smart Contracts/27_OptimisticL2RollUps.sol\":9444:9465  seqBond - actualSlash */\n      tag_291\n      swap2\n      swap1\n      tag_225\n      jump\t// in\n    tag_291:\n        /* \"Smart Contracts/27_OptimisticL2RollUps.sol\":9425:9430  bonds */\n      0x07\n        /* \"Smart Contracts/27_OptimisticL2RollUps.sol\":9425:9441  bonds[sequencer] */\n      0x00\n        /* \"Smart Contracts/27_OptimisticL2RollUps.sol\":9431:9440  sequencer */\n      0x02\n      0x00\n      swap1\n      sload\n      swap1\n      0x0100\n      exp\n      swap1\n      div\n      0xffffffffffffffffffffffffffffffffffffffff\n      and\n        /* \"Smart Contracts/27_OptimisticL2RollUps.sol\":9425:9441  bonds[sequencer] */\n      0xffffffffffffffffffffffffffffffffffffffff\n      and\n      0xffffffffffffffffffffffffffffffffffffffff\n      and\n      dup2\n      mstore\n      0x20\n      add\n      swap1\n      dup2\n      mstore\n      0x20\n      add\n      0x00\n      keccak256\n        /* \"Smart Contracts/27_OptimisticL2RollUps.sol\":9425:9465  bonds[sequencer] = seqBond - actualSlash */\n      dup2\n      swap1\n      sstore\n      pop\n        /* \"Smart Contracts/27_OptimisticL2RollUps.sol\":9507:9518  actualSlash */\n      dup1\n        /* \"Smart Contracts/27_OptimisticL2RollUps.sol\":9484:9489  bonds */\n      0x07\n        /* \"Smart Contracts/27_OptimisticL2RollUps.sol\":9484:9503  bonds[b.challenger] */\n      0x00\n        /* \"Smart Contracts/27_OptimisticL2RollUps.sol\":9490:9491  b */\n      dup8\n        /* \"Smart Contracts/27_OptimisticL2RollUps.sol\":9490:9502  b.challenger */\n      0x04\n      add\n      0x0a\n      swap1\n      sload\n      swap1\n      0x0100\n      exp\n      swap1\n      div\n      0xffffffffffffffffffffffffffffffffffffffff\n      and\n        /* \"Smart Contracts/27_OptimisticL2RollUps.sol\":9484:9503  bonds[b.challenger] */\n      0xffffffffffffffffffffffffffffffffffffffff\n      and\n      0xffffffffffffffffffffffffffffffffffffffff\n      and\n      dup2\n      mstore\n      0x20\n      add\n      swap1\n      dup2\n      mstore\n      0x20\n      add\n      0x00\n      keccak256\n      0x00\n        /* \"Smart Contracts/27_OptimisticL2RollUps.sol\":9484:9518  bonds[b.challenger] += actualSlash */\n      dup3\n      dup3\n      sload\n      tag_292\n      swap2\n      swap1\n      tag_207\n      jump\t// in\n    tag_292:\n      swap3\n      pop\n      pop\n      dup2\n      swap1\n      sstore\n      pop\n        /* \"Smart Contracts/27_OptimisticL2RollUps.sol\":9385:9534  if (actualSlash > 0) {... */\n    tag_290:\n        /* \"Smart Contracts/27_OptimisticL2RollUps.sol\":9112:9606  {... */\n      pop\n      pop\n      pop\n        /* \"Smart Contracts/27_OptimisticL2RollUps.sol\":9095:9910  if (fraudProven) {... */\n      jump(tag_293)\n    tag_285:\n        /* \"Smart Contracts/27_OptimisticL2RollUps.sol\":9688:9703  uint256 penalty */\n      0x00\n        /* \"Smart Contracts/27_OptimisticL2RollUps.sol\":9723:9725  10 */\n      0x0a\n        /* \"Smart Contracts/27_OptimisticL2RollUps.sol\":9706:9720  challengerBond */\n      sload(0x05)\n        /* \"Smart Contracts/27_OptimisticL2RollUps.sol\":9706:9725  challengerBond / 10 */\n      tag_294\n      swap2\n      swap1\n      tag_287\n      jump\t// in\n    tag_294:\n        /* \"Smart Contracts/27_OptimisticL2RollUps.sol\":9688:9725  uint256 penalty = challengerBond / 10 */\n      swap1\n      pop\n        /* \"Smart Contracts/27_OptimisticL2RollUps.sol\":9740:9753  uint256 cBond */\n      0x00\n        /* \"Smart Contracts/27_OptimisticL2RollUps.sol\":9756:9761  bonds */\n      0x07\n        /* \"Smart Contracts/27_OptimisticL2RollUps.sol\":9756:9775  bonds[b.challenger] */\n      0x00\n        /* \"Smart Contracts/27_OptimisticL2RollUps.sol\":9762:9763  b */\n      dup6\n        /* \"Smart Contracts/27_OptimisticL2RollUps.sol\":9762:9774  b.challenger */\n      0x04\n      add\n      0x0a\n      swap1\n      sload\n      swap1\n      0x0100\n      exp\n      swap1\n      div\n      0xffffffffffffffffffffffffffffffffffffffff\n      and\n        /* \"Smart Contracts/27_OptimisticL2RollUps.sol\":9756:9775  bonds[b.challenger] */\n      0xffffffffffffffffffffffffffffffffffffffff\n      and\n      0xffffffffffffffffffffffffffffffffffffffff\n      and\n      dup2\n      mstore\n      0x20\n      add\n      swap1\n      dup2\n      mstore\n      0x20\n      add\n      0x00\n      keccak256\n      sload\n        /* \"Smart Contracts/27_OptimisticL2RollUps.sol\":9740:9775  uint256 cBond = bonds[b.challenger] */\n      swap1\n      pop\n        /* \"Smart Contracts/27_OptimisticL2RollUps.sol\":9804:9805  0 */\n      0x00\n        /* \"Smart Contracts/27_OptimisticL2RollUps.sol\":9794:9801  penalty */\n      dup3\n        /* \"Smart Contracts/27_OptimisticL2RollUps.sol\":9794:9805  penalty > 0 */\n      gt\n        /* \"Smart Contracts/27_OptimisticL2RollUps.sol\":9794:9825  penalty > 0 && cBond >= penalty */\n      dup1\n      iszero\n      tag_295\n      jumpi\n      pop\n        /* \"Smart Contracts/27_OptimisticL2RollUps.sol\":9818:9825  penalty */\n      dup2\n        /* \"Smart Contracts/27_OptimisticL2RollUps.sol\":9809:9814  cBond */\n      dup2\n        /* \"Smart Contracts/27_OptimisticL2RollUps.sol\":9809:9825  cBond >= penalty */\n      lt\n      iszero\n        /* \"Smart Contracts/27_OptimisticL2RollUps.sol\":9794:9825  penalty > 0 && cBond >= penalty */\n    tag_295:\n        /* \"Smart Contracts/27_OptimisticL2RollUps.sol\":9790:9899  if (penalty > 0 && cBond >= penalty) {... */\n      iszero\n      tag_296\n      jumpi\n        /* \"Smart Contracts/27_OptimisticL2RollUps.sol\":9876:9883  penalty */\n      dup2\n        /* \"Smart Contracts/27_OptimisticL2RollUps.sol\":9868:9873  cBond */\n      dup2\n        /* \"Smart Contracts/27_OptimisticL2RollUps.sol\":9868:9883  cBond - penalty */\n      tag_297\n      swap2\n      swap1\n      tag_225\n      jump\t// in\n    tag_297:\n        /* \"Smart Contracts/27_OptimisticL2RollUps.sol\":9846:9851  bonds */\n      0x07\n        /* \"Smart Contracts/27_OptimisticL2RollUps.sol\":9846:9865  bonds[b.challenger] */\n      0x00\n        /* \"Smart Contracts/27_OptimisticL2RollUps.sol\":9852:9853  b */\n      dup7\n        /* \"Smart Contracts/27_OptimisticL2RollUps.sol\":9852:9864  b.challenger */\n      0x04\n      add\n      0x0a\n      swap1\n      sload\n      swap1\n      0x0100\n      exp\n      swap1\n      div\n      0xffffffffffffffffffffffffffffffffffffffff\n      and\n        /* \"Smart Contracts/27_OptimisticL2RollUps.sol\":9846:9865  bonds[b.challenger] */\n      0xffffffffffffffffffffffffffffffffffffffff\n      and\n      0xffffffffffffffffffffffffffffffffffffffff\n      and\n      dup2\n      mstore\n      0x20\n      add\n      swap1\n      dup2\n      mstore\n      0x20\n      add\n      0x00\n      keccak256\n        /* \"Smart Contracts/27_OptimisticL2RollUps.sol\":9846:9883  bonds[b.challenger] = cBond - penalty */\n      dup2\n      swap1\n      sstore\n      pop\n        /* \"Smart Contracts/27_OptimisticL2RollUps.sol\":9790:9899  if (penalty > 0 && cBond >= penalty) {... */\n    tag_296:\n        /* \"Smart Contracts/27_OptimisticL2RollUps.sol\":9612:9910  {... */\n      pop\n      pop\n        /* \"Smart Contracts/27_OptimisticL2RollUps.sol\":9095:9910  if (fraudProven) {... */\n    tag_293:\n        /* \"Smart Contracts/27_OptimisticL2RollUps.sol\":9937:9942  false */\n      0x00\n        /* \"Smart Contracts/27_OptimisticL2RollUps.sol\":9922:9923  b */\n      dup3\n        /* \"Smart Contracts/27_OptimisticL2RollUps.sol\":9922:9934  b.challenged */\n      0x04\n      add\n      0x08\n        /* \"Smart Contracts/27_OptimisticL2RollUps.sol\":9922:9942  b.challenged = false */\n      0x0100\n      exp\n      dup2\n      sload\n      dup2\n      0xff\n      mul\n      not\n      and\n      swap1\n      dup4\n      iszero\n      iszero\n      mul\n      or\n      swap1\n      sstore\n      pop\n        /* \"Smart Contracts/27_OptimisticL2RollUps.sol\":9978:9985  batchId */\n      dup5\n        /* \"Smart Contracts/27_OptimisticL2RollUps.sol\":9960:9999  ChallengeResolved(batchId, fraudProven) */\n      0x1c13286911ea61ab9e07cf462b69b2c12954593a03380a618afdf62d227021ae\n        /* \"Smart Contracts/27_OptimisticL2RollUps.sol\":9987:9998  fraudProven */\n      dup3\n        /* \"Smart Contracts/27_OptimisticL2RollUps.sol\":9960:9999  ChallengeResolved(batchId, fraudProven) */\n      mload(0x40)\n      tag_298\n      swap2\n      swap1\n      tag_77\n      jump\t// in\n    tag_298:\n      mload(0x40)\n      dup1\n      swap2\n      sub\n      swap1\n      log2\n        /* \"Smart Contracts/27_OptimisticL2RollUps.sol\":8523:10007  {... */\n      pop\n      pop\n        /* \"Smart Contracts/27_OptimisticL2RollUps.sol\":8435:10007  function resolveChallenge(uint256 batchId, bytes calldata proof) external whenNotPaused {... */\n      pop\n      pop\n      pop\n      jump\t// out\n        /* \"Smart Contracts/27_OptimisticL2RollUps.sol\":5545:5594  function pause() external onlyOwner { _pause(); } */\n    tag_118:\n        /* \"@openzeppelin/contracts/access/Ownable.sol\":1531:1544  _checkOwner() */\n      tag_300\n        /* \"@openzeppelin/contracts/access/Ownable.sol\":1531:1542  _checkOwner */\n      tag_211\n        /* \"@openzeppelin/contracts/access/Ownable.sol\":1531:1544  _checkOwner() */\n      jump\t// in\n    tag_300:\n        /* \"Smart Contracts/27_OptimisticL2RollUps.sol\":5583:5591  _pause() */\n      tag_302\n        /* \"Smart Contracts/27_OptimisticL2RollUps.sol\":5583:5589  _pause */\n      tag_303\n        /* \"Smart Contracts/27_OptimisticL2RollUps.sol\":5583:5591  _pause() */\n      jump\t// in\n    tag_302:\n        /* \"Smart Contracts/27_OptimisticL2RollUps.sol\":5545:5594  function pause() external onlyOwner { _pause(); } */\n      jump\t// out\n        /* \"Smart Contracts/27_OptimisticL2RollUps.sol\":2072:2102  uint256 public challengeWindow */\n    tag_121:\n      sload(0x06)\n      dup2\n      jump\t// out\n        /* \"@openzeppelin/contracts/access/Ownable.sol\":1638:1723  function owner() public view virtual returns (address) {... */\n    tag_125:\n        /* \"@openzeppelin/contracts/access/Ownable.sol\":1684:1691  address */\n      0x00\n        /* \"@openzeppelin/contracts/access/Ownable.sol\":1710:1716  _owner */\n      0x00\n      0x00\n      swap1\n      sload\n      swap1\n      0x0100\n      exp\n      swap1\n      div\n      0xffffffffffffffffffffffffffffffffffffffff\n      and\n        /* \"@openzeppelin/contracts/access/Ownable.sol\":1703:1716  return _owner */\n      swap1\n      pop\n        /* \"@openzeppelin/contracts/access/Ownable.sol\":1638:1723  function owner() public view virtual returns (address) {... */\n      swap1\n      jump\t// out\n        /* \"Smart Contracts/27_OptimisticL2RollUps.sol\":7835:8427  function challengeBatch(uint256 batchId) external whenNotPaused {... */\n    tag_130:\n        /* \"@openzeppelin/contracts/security/Pausable.sol\":1239:1258  _requireNotPaused() */\n      tag_306\n        /* \"@openzeppelin/contracts/security/Pausable.sol\":1239:1256  _requireNotPaused */\n      tag_176\n        /* \"@openzeppelin/contracts/security/Pausable.sol\":1239:1258  _requireNotPaused() */\n      jump\t// in\n    tag_306:\n        /* \"Smart Contracts/27_OptimisticL2RollUps.sol\":7910:7925  Batch storage b */\n      0x00\n        /* \"Smart Contracts/27_OptimisticL2RollUps.sol\":7928:7935  batches */\n      0x09\n        /* \"Smart Contracts/27_OptimisticL2RollUps.sol\":7928:7944  batches[batchId] */\n      0x00\n        /* \"Smart Contracts/27_OptimisticL2RollUps.sol\":7936:7943  batchId */\n      dup4\n        /* \"Smart Contracts/27_OptimisticL2RollUps.sol\":7928:7944  batches[batchId] */\n      dup2\n      mstore\n      0x20\n      add\n      swap1\n      dup2\n      mstore\n      0x20\n      add\n      0x00\n      keccak256\n        /* \"Smart Contracts/27_OptimisticL2RollUps.sol\":7910:7944  Batch storage b = batches[batchId] */\n      swap1\n      pop\n        /* \"Smart Contracts/27_OptimisticL2RollUps.sol\":7976:7977  0 */\n      0x00\n        /* \"Smart Contracts/27_OptimisticL2RollUps.sol\":7959:7960  b */\n      dup2\n        /* \"Smart Contracts/27_OptimisticL2RollUps.sol\":7959:7972  b.submittedAt */\n      0x04\n      add\n      0x00\n      swap1\n      sload\n      swap1\n      0x0100\n      exp\n      swap1\n      div\n      0xffffffffffffffff\n      and\n        /* \"Smart Contracts/27_OptimisticL2RollUps.sol\":7959:7977  b.submittedAt == 0 */\n      0xffffffffffffffff\n      and\n      sub\n        /* \"Smart Contracts/27_OptimisticL2RollUps.sol\":7955:8001  if (b.submittedAt == 0) revert BatchNotFound() */\n      tag_308\n      jumpi\n        /* \"Smart Contracts/27_OptimisticL2RollUps.sol\":7986:8001  BatchNotFound() */\n      mload(0x40)\n      0x9e15e1bc00000000000000000000000000000000000000000000000000000000\n      dup2\n      mstore\n      0x04\n      add\n      mload(0x40)\n      dup1\n      swap2\n      sub\n      swap1\n      revert\n        /* \"Smart Contracts/27_OptimisticL2RollUps.sol\":7955:8001  if (b.submittedAt == 0) revert BatchNotFound() */\n    tag_308:\n        /* \"Smart Contracts/27_OptimisticL2RollUps.sol\":8016:8017  b */\n      dup1\n        /* \"Smart Contracts/27_OptimisticL2RollUps.sol\":8016:8027  b.finalized */\n      0x04\n      add\n      0x09\n      swap1\n      sload\n      swap1\n      0x0100\n      exp\n      swap1\n      div\n      0xff\n      and\n        /* \"Smart Contracts/27_OptimisticL2RollUps.sol\":8012:8059  if (b.finalized) revert BatchAlreadyFinalized() */\n      iszero\n      tag_309\n      jumpi\n        /* \"Smart Contracts/27_OptimisticL2RollUps.sol\":8036:8059  BatchAlreadyFinalized() */\n      mload(0x40)\n      0x8a66d60700000000000000000000000000000000000000000000000000000000\n      dup2\n      mstore\n      0x04\n      add\n      mload(0x40)\n      dup1\n      swap2\n      sub\n      swap1\n      revert\n        /* \"Smart Contracts/27_OptimisticL2RollUps.sol\":8012:8059  if (b.finalized) revert BatchAlreadyFinalized() */\n    tag_309:\n        /* \"Smart Contracts/27_OptimisticL2RollUps.sol\":8074:8075  b */\n      dup1\n        /* \"Smart Contracts/27_OptimisticL2RollUps.sol\":8074:8086  b.challenged */\n      0x04\n      add\n      0x08\n      swap1\n      sload\n      swap1\n      0x0100\n      exp\n      swap1\n      div\n      0xff\n      and\n        /* \"Smart Contracts/27_OptimisticL2RollUps.sol\":8070:8114  if (b.challenged) revert AlreadyChallenged() */\n      iszero\n      tag_310\n      jumpi\n        /* \"Smart Contracts/27_OptimisticL2RollUps.sol\":8095:8114  AlreadyChallenged() */\n      mload(0x40)\n      0xf1082a9300000000000000000000000000000000000000000000000000000000\n      dup2\n      mstore\n      0x04\n      add\n      mload(0x40)\n      dup1\n      swap2\n      sub\n      swap1\n      revert\n        /* \"Smart Contracts/27_OptimisticL2RollUps.sol\":8070:8114  if (b.challenged) revert AlreadyChallenged() */\n    tag_310:\n        /* \"Smart Contracts/27_OptimisticL2RollUps.sol\":8174:8189  challengeWindow */\n      sload(0x06)\n        /* \"Smart Contracts/27_OptimisticL2RollUps.sol\":8157:8158  b */\n      dup2\n        /* \"Smart Contracts/27_OptimisticL2RollUps.sol\":8157:8170  b.submittedAt */\n      0x04\n      add\n      0x00\n      swap1\n      sload\n      swap1\n      0x0100\n      exp\n      swap1\n      div\n      0xffffffffffffffff\n      and\n        /* \"Smart Contracts/27_OptimisticL2RollUps.sol\":8149:8171  uint256(b.submittedAt) */\n      0xffffffffffffffff\n      and\n        /* \"Smart Contracts/27_OptimisticL2RollUps.sol\":8149:8189  uint256(b.submittedAt) + challengeWindow */\n      tag_311\n      swap2\n      swap1\n      tag_207\n      jump\t// in\n    tag_311:\n        /* \"Smart Contracts/27_OptimisticL2RollUps.sol\":8131:8146  block.timestamp */\n      timestamp\n        /* \"Smart Contracts/27_OptimisticL2RollUps.sol\":8131:8189  block.timestamp > uint256(b.submittedAt) + challengeWindow */\n      gt\n        /* \"Smart Contracts/27_OptimisticL2RollUps.sol\":8127:8219  if (block.timestamp > uint256(b.submittedAt) + challengeWindow) revert ChallengePeriodOver() */\n      iszero\n      tag_312\n      jumpi\n        /* \"Smart Contracts/27_OptimisticL2RollUps.sol\":8198:8219  ChallengePeriodOver() */\n      mload(0x40)\n      0xf541751000000000000000000000000000000000000000000000000000000000\n      dup2\n      mstore\n      0x04\n      add\n      mload(0x40)\n      dup1\n      swap2\n      sub\n      swap1\n      revert\n        /* \"Smart Contracts/27_OptimisticL2RollUps.sol\":8127:8219  if (block.timestamp > uint256(b.submittedAt) + challengeWindow) revert ChallengePeriodOver() */\n    tag_312:\n        /* \"Smart Contracts/27_OptimisticL2RollUps.sol\":8259:8273  challengerBond */\n      sload(0x05)\n        /* \"Smart Contracts/27_OptimisticL2RollUps.sol\":8238:8243  bonds */\n      0x07\n        /* \"Smart Contracts/27_OptimisticL2RollUps.sol\":8238:8255  bonds[msg.sender] */\n      0x00\n        /* \"Smart Contracts/27_OptimisticL2RollUps.sol\":8244:8254  msg.sender */\n      caller\n        /* \"Smart Contracts/27_OptimisticL2RollUps.sol\":8238:8255  bonds[msg.sender] */\n      0xffffffffffffffffffffffffffffffffffffffff\n      and\n      0xffffffffffffffffffffffffffffffffffffffff\n      and\n      dup2\n      mstore\n      0x20\n      add\n      swap1\n      dup2\n      mstore\n      0x20\n      add\n      0x00\n      keccak256\n      sload\n        /* \"Smart Contracts/27_OptimisticL2RollUps.sol\":8238:8273  bonds[msg.sender] >= challengerBond */\n      lt\n      iszero\n        /* \"Smart Contracts/27_OptimisticL2RollUps.sol\":8230:8297  require(bonds[msg.sender] >= challengerBond, \"CHALLENGER_BOND_LOW\") */\n      tag_313\n      jumpi\n      mload(0x40)\n      0x08c379a000000000000000000000000000000000000000000000000000000000\n      dup2\n      mstore\n      0x04\n      add\n      tag_314\n      swap1\n      tag_315\n      jump\t// in\n    tag_314:\n      mload(0x40)\n      dup1\n      swap2\n      sub\n      swap1\n      revert\n    tag_313:\n        /* \"Smart Contracts/27_OptimisticL2RollUps.sol\":8325:8329  true */\n      0x01\n        /* \"Smart Contracts/27_OptimisticL2RollUps.sol\":8310:8311  b */\n      dup2\n        /* \"Smart Contracts/27_OptimisticL2RollUps.sol\":8310:8322  b.challenged */\n      0x04\n      add\n      0x08\n        /* \"Smart Contracts/27_OptimisticL2RollUps.sol\":8310:8329  b.challenged = true */\n      0x0100\n      exp\n      dup2\n      sload\n      dup2\n      0xff\n      mul\n      not\n      and\n      swap1\n      dup4\n      iszero\n      iszero\n      mul\n      or\n      swap1\n      sstore\n      pop\n        /* \"Smart Contracts/27_OptimisticL2RollUps.sol\":8355:8365  msg.sender */\n      caller\n        /* \"Smart Contracts/27_OptimisticL2RollUps.sol\":8340:8341  b */\n      dup2\n        /* \"Smart Contracts/27_OptimisticL2RollUps.sol\":8340:8352  b.challenger */\n      0x04\n      add\n      0x0a\n        /* \"Smart Contracts/27_OptimisticL2RollUps.sol\":8340:8365  b.challenger = msg.sender */\n      0x0100\n      exp\n      dup2\n      sload\n      dup2\n      0xffffffffffffffffffffffffffffffffffffffff\n      mul\n      not\n      and\n      swap1\n      dup4\n      0xffffffffffffffffffffffffffffffffffffffff\n      and\n      mul\n      or\n      swap1\n      sstore\n      pop\n        /* \"Smart Contracts/27_OptimisticL2RollUps.sol\":8408:8418  msg.sender */\n      caller\n        /* \"Smart Contracts/27_OptimisticL2RollUps.sol\":8383:8419  BatchChallenged(batchId, msg.sender) */\n      0xffffffffffffffffffffffffffffffffffffffff\n      and\n        /* \"Smart Contracts/27_OptimisticL2RollUps.sol\":8399:8406  batchId */\n      dup3\n        /* \"Smart Contracts/27_OptimisticL2RollUps.sol\":8383:8419  BatchChallenged(batchId, msg.sender) */\n      0x341905abd65f49eb35219139a0ccdce4a6d57d73972347db266f11adcb5a8c89\n      mload(0x40)\n      mload(0x40)\n      dup1\n      swap2\n      sub\n      swap1\n      log3\n        /* \"Smart Contracts/27_OptimisticL2RollUps.sol\":7899:8427  {... */\n      pop\n        /* \"Smart Contracts/27_OptimisticL2RollUps.sol\":7835:8427  function challengeBatch(uint256 batchId) external whenNotPaused {... */\n      pop\n      jump\t// out\n        /* \"Smart Contracts/27_OptimisticL2RollUps.sol\":6485:6787  function depositERC20(address token, uint256 amount) external whenNotPaused {... */\n    tag_135:\n        /* \"@openzeppelin/contracts/security/Pausable.sol\":1239:1258  _requireNotPaused() */\n      tag_317\n        /* \"@openzeppelin/contracts/security/Pausable.sol\":1239:1256  _requireNotPaused */\n      tag_176\n        /* \"@openzeppelin/contracts/security/Pausable.sol\":1239:1258  _requireNotPaused() */\n      jump\t// in\n    tag_317:\n        /* \"Smart Contracts/27_OptimisticL2RollUps.sol\":6586:6587  0 */\n      0x00\n        /* \"Smart Contracts/27_OptimisticL2RollUps.sol\":6576:6582  amount */\n      dup2\n        /* \"Smart Contracts/27_OptimisticL2RollUps.sol\":6576:6587  amount == 0 */\n      sub\n        /* \"Smart Contracts/27_OptimisticL2RollUps.sol\":6572:6608  if (amount == 0) revert ZeroAmount() */\n      tag_319\n      jumpi\n        /* \"Smart Contracts/27_OptimisticL2RollUps.sol\":6596:6608  ZeroAmount() */\n      mload(0x40)\n      0x1f2a200500000000000000000000000000000000000000000000000000000000\n      dup2\n      mstore\n      0x04\n      add\n      mload(0x40)\n      dup1\n      swap2\n      sub\n      swap1\n      revert\n        /* \"Smart Contracts/27_OptimisticL2RollUps.sol\":6572:6608  if (amount == 0) revert ZeroAmount() */\n    tag_319:\n        /* \"Smart Contracts/27_OptimisticL2RollUps.sol\":6619:6684  IERC20(token).safeTransferFrom(msg.sender, address(this), amount) */\n      tag_320\n        /* \"Smart Contracts/27_OptimisticL2RollUps.sol\":6650:6660  msg.sender */\n      caller\n        /* \"Smart Contracts/27_OptimisticL2RollUps.sol\":6670:6674  this */\n      address\n        /* \"Smart Contracts/27_OptimisticL2RollUps.sol\":6677:6683  amount */\n      dup4\n        /* \"Smart Contracts/27_OptimisticL2RollUps.sol\":6626:6631  token */\n      dup6\n        /* \"Smart Contracts/27_OptimisticL2RollUps.sol\":6619:6649  IERC20(token).safeTransferFrom */\n      0xffffffffffffffffffffffffffffffffffffffff\n      and\n      tag_321\n      swap1\n        /* \"Smart Contracts/27_OptimisticL2RollUps.sol\":6619:6684  IERC20(token).safeTransferFrom(msg.sender, address(this), amount) */\n      swap4\n      swap3\n      swap2\n      swap1\n      0xffffffff\n      and\n      jump\t// in\n    tag_320:\n        /* \"Smart Contracts/27_OptimisticL2RollUps.sol\":6695:6704  uint256 n */\n      0x00\n        /* \"Smart Contracts/27_OptimisticL2RollUps.sol\":6709:6721  depositNonce */\n      0x0b\n      0x00\n        /* \"Smart Contracts/27_OptimisticL2RollUps.sol\":6707:6721  ++depositNonce */\n      dup2\n      sload\n      tag_322\n      swap1\n      tag_261\n      jump\t// in\n    tag_322:\n      swap2\n      swap1\n      pop\n      dup2\n      swap1\n      sstore\n        /* \"Smart Contracts/27_OptimisticL2RollUps.sol\":6695:6721  uint256 n = ++depositNonce */\n      swap1\n      pop\n        /* \"Smart Contracts/27_OptimisticL2RollUps.sol\":6777:6778  n */\n      dup1\n        /* \"Smart Contracts/27_OptimisticL2RollUps.sol\":6762:6767  token */\n      dup4\n        /* \"Smart Contracts/27_OptimisticL2RollUps.sol\":6737:6779  DepositERC20(msg.sender, token, amount, n) */\n      0xffffffffffffffffffffffffffffffffffffffff\n      and\n        /* \"Smart Contracts/27_OptimisticL2RollUps.sol\":6750:6760  msg.sender */\n      caller\n        /* \"Smart Contracts/27_OptimisticL2RollUps.sol\":6737:6779  DepositERC20(msg.sender, token, amount, n) */\n      0xffffffffffffffffffffffffffffffffffffffff\n      and\n      0x228adef123a7fe6b727889b4d24b39b39de663428214fd757c6c501fb98d8494\n        /* \"Smart Contracts/27_OptimisticL2RollUps.sol\":6769:6775  amount */\n      dup6\n        /* \"Smart Contracts/27_OptimisticL2RollUps.sol\":6737:6779  DepositERC20(msg.sender, token, amount, n) */\n      mload(0x40)\n      tag_323\n      swap2\n      swap1\n      tag_70\n      jump\t// in\n    tag_323:\n      mload(0x40)\n      dup1\n      swap2\n      sub\n      swap1\n      log4\n        /* \"Smart Contracts/27_OptimisticL2RollUps.sol\":6561:6787  {... */\n      pop\n        /* \"Smart Contracts/27_OptimisticL2RollUps.sol\":6485:6787  function depositERC20(address token, uint256 amount) external whenNotPaused {... */\n      pop\n      pop\n      jump\t// out\n        /* \"Smart Contracts/27_OptimisticL2RollUps.sol\":2001:2029  uint256 public sequencerBond */\n    tag_138:\n      sload(0x04)\n      dup2\n      jump\t// out\n        /* \"Smart Contracts/27_OptimisticL2RollUps.sol\":2574:2605  bytes32 public currentStateRoot */\n    tag_142:\n      sload(0x0a)\n      dup2\n      jump\t// out\n        /* \"Smart Contracts/27_OptimisticL2RollUps.sol\":2525:2565  mapping(uint256 => Batch) public batches */\n    tag_148:\n      mstore(0x20, 0x09)\n      dup1\n      0x00\n      mstore\n      keccak256(0x00, 0x40)\n      0x00\n      swap2\n      pop\n      swap1\n      pop\n      dup1\n      0x00\n      add\n      sload\n      swap1\n      dup1\n      0x01\n      add\n      sload\n      swap1\n      dup1\n      0x02\n      add\n      sload\n      swap1\n      dup1\n      0x03\n      add\n      sload\n      swap1\n      dup1\n      0x04\n      add\n      0x00\n      swap1\n      sload\n      swap1\n      0x0100\n      exp\n      swap1\n      div\n      0xffffffffffffffff\n      and\n      swap1\n      dup1\n      0x04\n      add\n      0x08\n      swap1\n      sload\n      swap1\n      0x0100\n      exp\n      swap1\n      div\n      0xff\n      and\n      swap1\n      dup1\n      0x04\n      add\n      0x09\n      swap1\n      sload\n      swap1\n      0x0100\n      exp\n      swap1\n      div\n      0xff\n      and\n      swap1\n      dup1\n      0x04\n      add\n      0x0a\n      swap1\n      sload\n      swap1\n      0x0100\n      exp\n      swap1\n      div\n      0xffffffffffffffffffffffffffffffffffffffff\n      and\n      swap1\n      pop\n      dup9\n      jump\t// out\n        /* \"Smart Contracts/27_OptimisticL2RollUps.sol\":2653:2680  uint256 public depositNonce */\n    tag_153:\n      sload(0x0b)\n      dup2\n      jump\t// out\n        /* \"Smart Contracts/27_OptimisticL2RollUps.sol\":10058:10538  function finalizeBatch(uint256 batchId) external whenNotPaused {... */\n    tag_158:\n        /* \"@openzeppelin/contracts/security/Pausable.sol\":1239:1258  _requireNotPaused() */\n      tag_325\n        /* \"@openzeppelin/contracts/security/Pausable.sol\":1239:1256  _requireNotPaused */\n      tag_176\n        /* \"@openzeppelin/contracts/security/Pausable.sol\":1239:1258  _requireNotPaused() */\n      jump\t// in\n    tag_325:\n        /* \"Smart Contracts/27_OptimisticL2RollUps.sol\":10132:10147  Batch storage b */\n      0x00\n        /* \"Smart Contracts/27_OptimisticL2RollUps.sol\":10150:10157  batches */\n      0x09\n        /* \"Smart Contracts/27_OptimisticL2RollUps.sol\":10150:10166  batches[batchId] */\n      0x00\n        /* \"Smart Contracts/27_OptimisticL2RollUps.sol\":10158:10165  batchId */\n      dup4\n        /* \"Smart Contracts/27_OptimisticL2RollUps.sol\":10150:10166  batches[batchId] */\n      dup2\n      mstore\n      0x20\n      add\n      swap1\n      dup2\n      mstore\n      0x20\n      add\n      0x00\n      keccak256\n        /* \"Smart Contracts/27_OptimisticL2RollUps.sol\":10132:10166  Batch storage b = batches[batchId] */\n      swap1\n      pop\n        /* \"Smart Contracts/27_OptimisticL2RollUps.sol\":10198:10199  0 */\n      0x00\n        /* \"Smart Contracts/27_OptimisticL2RollUps.sol\":10181:10182  b */\n      dup2\n        /* \"Smart Contracts/27_OptimisticL2RollUps.sol\":10181:10194  b.submittedAt */\n      0x04\n      add\n      0x00\n      swap1\n      sload\n      swap1\n      0x0100\n      exp\n      swap1\n      div\n      0xffffffffffffffff\n      and\n        /* \"Smart Contracts/27_OptimisticL2RollUps.sol\":10181:10199  b.submittedAt == 0 */\n      0xffffffffffffffff\n      and\n      sub\n        /* \"Smart Contracts/27_OptimisticL2RollUps.sol\":10177:10223  if (b.submittedAt == 0) revert BatchNotFound() */\n      tag_327\n      jumpi\n        /* \"Smart Contracts/27_OptimisticL2RollUps.sol\":10208:10223  BatchNotFound() */\n      mload(0x40)\n      0x9e15e1bc00000000000000000000000000000000000000000000000000000000\n      dup2\n      mstore\n      0x04\n      add\n      mload(0x40)\n      dup1\n      swap2\n      sub\n      swap1\n      revert\n        /* \"Smart Contracts/27_OptimisticL2RollUps.sol\":10177:10223  if (b.submittedAt == 0) revert BatchNotFound() */\n    tag_327:\n        /* \"Smart Contracts/27_OptimisticL2RollUps.sol\":10238:10239  b */\n      dup1\n        /* \"Smart Contracts/27_OptimisticL2RollUps.sol\":10238:10249  b.finalized */\n      0x04\n      add\n      0x09\n      swap1\n      sload\n      swap1\n      0x0100\n      exp\n      swap1\n      div\n      0xff\n      and\n        /* \"Smart Contracts/27_OptimisticL2RollUps.sol\":10234:10281  if (b.finalized) revert BatchAlreadyFinalized() */\n      iszero\n      tag_328\n      jumpi\n        /* \"Smart Contracts/27_OptimisticL2RollUps.sol\":10258:10281  BatchAlreadyFinalized() */\n      mload(0x40)\n      0x8a66d60700000000000000000000000000000000000000000000000000000000\n      dup2\n      mstore\n      0x04\n      add\n      mload(0x40)\n      dup1\n      swap2\n      sub\n      swap1\n      revert\n        /* \"Smart Contracts/27_OptimisticL2RollUps.sol\":10234:10281  if (b.finalized) revert BatchAlreadyFinalized() */\n    tag_328:\n        /* \"Smart Contracts/27_OptimisticL2RollUps.sol\":10342:10357  challengeWindow */\n      sload(0x06)\n        /* \"Smart Contracts/27_OptimisticL2RollUps.sol\":10325:10326  b */\n      dup2\n        /* \"Smart Contracts/27_OptimisticL2RollUps.sol\":10325:10338  b.submittedAt */\n      0x04\n      add\n      0x00\n      swap1\n      sload\n      swap1\n      0x0100\n      exp\n      swap1\n      div\n      0xffffffffffffffff\n      and\n        /* \"Smart Contracts/27_OptimisticL2RollUps.sol\":10317:10339  uint256(b.submittedAt) */\n      0xffffffffffffffff\n      and\n        /* \"Smart Contracts/27_OptimisticL2RollUps.sol\":10317:10357  uint256(b.submittedAt) + challengeWindow */\n      tag_329\n      swap2\n      swap1\n      tag_207\n      jump\t// in\n    tag_329:\n        /* \"Smart Contracts/27_OptimisticL2RollUps.sol\":10298:10313  block.timestamp */\n      timestamp\n        /* \"Smart Contracts/27_OptimisticL2RollUps.sol\":10298:10357  block.timestamp <= uint256(b.submittedAt) + challengeWindow */\n      gt\n        /* \"Smart Contracts/27_OptimisticL2RollUps.sol\":10294:10389  if (block.timestamp <= uint256(b.submittedAt) + challengeWindow) revert ChallengePeriodActive() */\n      tag_330\n      jumpi\n        /* \"Smart Contracts/27_OptimisticL2RollUps.sol\":10366:10389  ChallengePeriodActive() */\n      mload(0x40)\n      0xc970363200000000000000000000000000000000000000000000000000000000\n      dup2\n      mstore\n      0x04\n      add\n      mload(0x40)\n      dup1\n      swap2\n      sub\n      swap1\n      revert\n        /* \"Smart Contracts/27_OptimisticL2RollUps.sol\":10294:10389  if (block.timestamp <= uint256(b.submittedAt) + challengeWindow) revert ChallengePeriodActive() */\n    tag_330:\n        /* \"Smart Contracts/27_OptimisticL2RollUps.sol\":10404:10405  b */\n      dup1\n        /* \"Smart Contracts/27_OptimisticL2RollUps.sol\":10404:10416  b.challenged */\n      0x04\n      add\n      0x08\n      swap1\n      sload\n      swap1\n      0x0100\n      exp\n      swap1\n      div\n      0xff\n      and\n        /* \"Smart Contracts/27_OptimisticL2RollUps.sol\":10400:10444  if (b.challenged) revert AlreadyChallenged() */\n      iszero\n      tag_331\n      jumpi\n        /* \"Smart Contracts/27_OptimisticL2RollUps.sol\":10425:10444  AlreadyChallenged() */\n      mload(0x40)\n      0xf1082a9300000000000000000000000000000000000000000000000000000000\n      dup2\n      mstore\n      0x04\n      add\n      mload(0x40)\n      dup1\n      swap2\n      sub\n      swap1\n      revert\n        /* \"Smart Contracts/27_OptimisticL2RollUps.sol\":10400:10444  if (b.challenged) revert AlreadyChallenged() */\n    tag_331:\n        /* \"Smart Contracts/27_OptimisticL2RollUps.sol\":10471:10475  true */\n      0x01\n        /* \"Smart Contracts/27_OptimisticL2RollUps.sol\":10457:10458  b */\n      dup2\n        /* \"Smart Contracts/27_OptimisticL2RollUps.sol\":10457:10468  b.finalized */\n      0x04\n      add\n      0x09\n        /* \"Smart Contracts/27_OptimisticL2RollUps.sol\":10457:10475  b.finalized = true */\n      0x0100\n      exp\n      dup2\n      sload\n      dup2\n      0xff\n      mul\n      not\n      and\n      swap1\n      dup4\n      iszero\n      iszero\n      mul\n      or\n      swap1\n      sstore\n      pop\n        /* \"Smart Contracts/27_OptimisticL2RollUps.sol\":10515:10516  b */\n      dup1\n        /* \"Smart Contracts/27_OptimisticL2RollUps.sol\":10515:10529  b.newStateRoot */\n      0x01\n      add\n      sload\n        /* \"Smart Contracts/27_OptimisticL2RollUps.sol\":10506:10513  batchId */\n      dup3\n        /* \"Smart Contracts/27_OptimisticL2RollUps.sol\":10491:10530  BatchFinalized(batchId, b.newStateRoot) */\n      0xa3ea0288fb824a30cae7f7d72a9e887bd0926c40c8438c43b49cfca687b0df52\n      mload(0x40)\n      mload(0x40)\n      dup1\n      swap2\n      sub\n      swap1\n      log3\n        /* \"Smart Contracts/27_OptimisticL2RollUps.sol\":10121:10538  {... */\n      pop\n        /* \"Smart Contracts/27_OptimisticL2RollUps.sol\":10058:10538  function finalizeBatch(uint256 batchId) external whenNotPaused {... */\n      pop\n      jump\t// out\n        /* \"Smart Contracts/27_OptimisticL2RollUps.sol\":5026:5199  function setFraudVerifier(address verifier) external onlyOwner {... */\n    tag_162:\n        /* \"@openzeppelin/contracts/access/Ownable.sol\":1531:1544  _checkOwner() */\n      tag_333\n        /* \"@openzeppelin/contracts/access/Ownable.sol\":1531:1542  _checkOwner */\n      tag_211\n        /* \"@openzeppelin/contracts/access/Ownable.sol\":1531:1544  _checkOwner() */\n      jump\t// in\n    tag_333:\n        /* \"Smart Contracts/27_OptimisticL2RollUps.sol\":5136:5144  verifier */\n      dup1\n        /* \"Smart Contracts/27_OptimisticL2RollUps.sol\":5100:5113  fraudVerifier */\n      0x03\n      0x00\n        /* \"Smart Contracts/27_OptimisticL2RollUps.sol\":5100:5145  fraudVerifier = IFraudProofVerifier(verifier) */\n      0x0100\n      exp\n      dup2\n      sload\n      dup2\n      0xffffffffffffffffffffffffffffffffffffffff\n      mul\n      not\n      and\n      swap1\n      dup4\n      0xffffffffffffffffffffffffffffffffffffffff\n      and\n      mul\n      or\n      swap1\n      sstore\n      pop\n        /* \"Smart Contracts/27_OptimisticL2RollUps.sol\":5182:5190  verifier */\n      dup1\n        /* \"Smart Contracts/27_OptimisticL2RollUps.sol\":5161:5191  FraudVerifierUpdated(verifier) */\n      0xffffffffffffffffffffffffffffffffffffffff\n      and\n      0x8f188b15032cf36df69a7f5f4bd1583e05704dbb1504feabf2a98d125fc9b235\n      mload(0x40)\n      mload(0x40)\n      dup1\n      swap2\n      sub\n      swap1\n      log2\n        /* \"Smart Contracts/27_OptimisticL2RollUps.sol\":5026:5199  function setFraudVerifier(address verifier) external onlyOwner {... */\n      pop\n      jump\t// out\n        /* \"@openzeppelin/contracts/access/Ownable.sol\":2543:2758  function transferOwnership(address newOwner) public virtual onlyOwner {... */\n    tag_166:\n        /* \"@openzeppelin/contracts/access/Ownable.sol\":1531:1544  _checkOwner() */\n      tag_336\n        /* \"@openzeppelin/contracts/access/Ownable.sol\":1531:1542  _checkOwner */\n      tag_211\n        /* \"@openzeppelin/contracts/access/Ownable.sol\":1531:1544  _checkOwner() */\n      jump\t// in\n    tag_336:\n        /* \"@openzeppelin/contracts/access/Ownable.sol\":2647:2648  0 */\n      0x00\n        /* \"@openzeppelin/contracts/access/Ownable.sol\":2627:2649  newOwner == address(0) */\n      0xffffffffffffffffffffffffffffffffffffffff\n      and\n        /* \"@openzeppelin/contracts/access/Ownable.sol\":2627:2635  newOwner */\n      dup2\n        /* \"@openzeppelin/contracts/access/Ownable.sol\":2627:2649  newOwner == address(0) */\n      0xffffffffffffffffffffffffffffffffffffffff\n      and\n      sub\n        /* \"@openzeppelin/contracts/access/Ownable.sol\":2623:2714  if (newOwner == address(0)) {... */\n      tag_338\n      jumpi\n        /* \"@openzeppelin/contracts/access/Ownable.sol\":2700:2701  0 */\n      0x00\n        /* \"@openzeppelin/contracts/access/Ownable.sol\":2672:2703  OwnableInvalidOwner(address(0)) */\n      mload(0x40)\n      0x1e4fbdf700000000000000000000000000000000000000000000000000000000\n      dup2\n      mstore\n      0x04\n      add\n      tag_339\n      swap2\n      swap1\n      tag_92\n      jump\t// in\n    tag_339:\n      mload(0x40)\n      dup1\n      swap2\n      sub\n      swap1\n      revert\n        /* \"@openzeppelin/contracts/access/Ownable.sol\":2623:2714  if (newOwner == address(0)) {... */\n    tag_338:\n        /* \"@openzeppelin/contracts/access/Ownable.sol\":2723:2751  _transferOwnership(newOwner) */\n      tag_340\n        /* \"@openzeppelin/contracts/access/Ownable.sol\":2742:2750  newOwner */\n      dup2\n        /* \"@openzeppelin/contracts/access/Ownable.sol\":2723:2741  _transferOwnership */\n      tag_268\n        /* \"@openzeppelin/contracts/access/Ownable.sol\":2723:2751  _transferOwnership(newOwner) */\n      jump\t// in\n    tag_340:\n        /* \"@openzeppelin/contracts/access/Ownable.sol\":2543:2758  function transferOwnership(address newOwner) public virtual onlyOwner {... */\n      pop\n      jump\t// out\n        /* \"Smart Contracts/27_OptimisticL2RollUps.sol\":6277:6477  function depositETH() external payable whenNotPaused {... */\n    tag_168:\n        /* \"@openzeppelin/contracts/security/Pausable.sol\":1239:1258  _requireNotPaused() */\n      tag_342\n        /* \"@openzeppelin/contracts/security/Pausable.sol\":1239:1256  _requireNotPaused */\n      tag_176\n        /* \"@openzeppelin/contracts/security/Pausable.sol\":1239:1258  _requireNotPaused() */\n      jump\t// in\n    tag_342:\n        /* \"Smart Contracts/27_OptimisticL2RollUps.sol\":6358:6359  0 */\n      0x00\n        /* \"Smart Contracts/27_OptimisticL2RollUps.sol\":6345:6354  msg.value */\n      callvalue\n        /* \"Smart Contracts/27_OptimisticL2RollUps.sol\":6345:6359  msg.value == 0 */\n      sub\n        /* \"Smart Contracts/27_OptimisticL2RollUps.sol\":6341:6380  if (msg.value == 0) revert ZeroAmount() */\n      tag_344\n      jumpi\n        /* \"Smart Contracts/27_OptimisticL2RollUps.sol\":6368:6380  ZeroAmount() */\n      mload(0x40)\n      0x1f2a200500000000000000000000000000000000000000000000000000000000\n      dup2\n      mstore\n      0x04\n      add\n      mload(0x40)\n      dup1\n      swap2\n      sub\n      swap1\n      revert\n        /* \"Smart Contracts/27_OptimisticL2RollUps.sol\":6341:6380  if (msg.value == 0) revert ZeroAmount() */\n    tag_344:\n        /* \"Smart Contracts/27_OptimisticL2RollUps.sol\":6391:6400  uint256 n */\n      0x00\n        /* \"Smart Contracts/27_OptimisticL2RollUps.sol\":6405:6417  depositNonce */\n      0x0b\n      0x00\n        /* \"Smart Contracts/27_OptimisticL2RollUps.sol\":6403:6417  ++depositNonce */\n      dup2\n      sload\n      tag_345\n      swap1\n      tag_261\n      jump\t// in\n    tag_345:\n      swap2\n      swap1\n      pop\n      dup2\n      swap1\n      sstore\n        /* \"Smart Contracts/27_OptimisticL2RollUps.sol\":6391:6417  uint256 n = ++depositNonce */\n      swap1\n      pop\n        /* \"Smart Contracts/27_OptimisticL2RollUps.sol\":6467:6468  n */\n      dup1\n        /* \"Smart Contracts/27_OptimisticL2RollUps.sol\":6444:6454  msg.sender */\n      caller\n        /* \"Smart Contracts/27_OptimisticL2RollUps.sol\":6433:6469  DepositETH(msg.sender, msg.value, n) */\n      0xffffffffffffffffffffffffffffffffffffffff\n      and\n      0x57e8e547a3ef8d890c570ca885b0a8c441be3070e36b7ad4c7d6b9d9316ff2ce\n        /* \"Smart Contracts/27_OptimisticL2RollUps.sol\":6456:6465  msg.value */\n      callvalue\n        /* \"Smart Contracts/27_OptimisticL2RollUps.sol\":6433:6469  DepositETH(msg.sender, msg.value, n) */\n      mload(0x40)\n      tag_346\n      swap2\n      swap1\n      tag_70\n      jump\t// in\n    tag_346:\n      mload(0x40)\n      dup1\n      swap2\n      sub\n      swap1\n      log3\n        /* \"Smart Contracts/27_OptimisticL2RollUps.sol\":6330:6477  {... */\n      pop\n        /* \"Smart Contracts/27_OptimisticL2RollUps.sol\":6277:6477  function depositETH() external payable whenNotPaused {... */\n      jump\t// out\n        /* \"Smart Contracts/27_OptimisticL2RollUps.sol\":2129:2169  mapping(address => uint256) public bonds */\n    tag_172:\n      mstore(0x20, 0x07)\n      dup1\n      0x00\n      mstore\n      keccak256(0x00, 0x40)\n      0x00\n      swap2\n      pop\n      swap1\n      pop\n      sload\n      dup2\n      jump\t// out\n        /* \"@openzeppelin/contracts/security/Pausable.sol\":1767:1873  function _requireNotPaused() internal view virtual {... */\n    tag_176:\n        /* \"@openzeppelin/contracts/security/Pausable.sol\":1837:1845  paused() */\n      tag_348\n        /* \"@openzeppelin/contracts/security/Pausable.sol\":1837:1843  paused */\n      tag_95\n        /* \"@openzeppelin/contracts/security/Pausable.sol\":1837:1845  paused() */\n      jump\t// in\n    tag_348:\n        /* \"@openzeppelin/contracts/security/Pausable.sol\":1836:1845  !paused() */\n      iszero\n        /* \"@openzeppelin/contracts/security/Pausable.sol\":1828:1866  require(!paused(), \"Pausable: paused\") */\n      tag_349\n      jumpi\n      mload(0x40)\n      0x08c379a000000000000000000000000000000000000000000000000000000000\n      dup2\n      mstore\n      0x04\n      add\n      tag_350\n      swap1\n      tag_351\n      jump\t// in\n    tag_350:\n      mload(0x40)\n      dup1\n      swap2\n      sub\n      swap1\n      revert\n    tag_349:\n        /* \"@openzeppelin/contracts/security/Pausable.sol\":1767:1873  function _requireNotPaused() internal view virtual {... */\n      jump\t// out\n        /* \"@openzeppelin/contracts/security/ReentrancyGuard.sol\":2336:2623  function _nonReentrantBefore() private {... */\n    tag_179:\n        /* \"@openzeppelin/contracts/security/ReentrancyGuard.sol\":1759:1760  2 */\n      0x02\n        /* \"@openzeppelin/contracts/security/ReentrancyGuard.sol\":2468:2475  _status */\n      sload(0x01)\n        /* \"@openzeppelin/contracts/security/ReentrancyGuard.sol\":2468:2487  _status != _ENTERED */\n      sub\n        /* \"@openzeppelin/contracts/security/ReentrancyGuard.sol\":2460:2523  require(_status != _ENTERED, \"ReentrancyGuard: reentrant call\") */\n      tag_353\n      jumpi\n      mload(0x40)\n      0x08c379a000000000000000000000000000000000000000000000000000000000\n      dup2\n      mstore\n      0x04\n      add\n      tag_354\n      swap1\n      tag_355\n      jump\t// in\n    tag_354:\n      mload(0x40)\n      dup1\n      swap2\n      sub\n      swap1\n      revert\n    tag_353:\n        /* \"@openzeppelin/contracts/security/ReentrancyGuard.sol\":1759:1760  2 */\n      0x02\n        /* \"@openzeppelin/contracts/security/ReentrancyGuard.sol\":2598:2605  _status */\n      0x01\n        /* \"@openzeppelin/contracts/security/ReentrancyGuard.sol\":2598:2616  _status = _ENTERED */\n      dup2\n      swap1\n      sstore\n      pop\n        /* \"@openzeppelin/contracts/security/ReentrancyGuard.sol\":2336:2623  function _nonReentrantBefore() private {... */\n      jump\t// out\n        /* \"@openzeppelin/contracts/utils/cryptography/MerkleProof.sol\":1902:2056  function verify(bytes32[] memory proof, bytes32 root, bytes32 leaf) internal pure returns (bool) {... */\n    tag_188:\n        /* \"@openzeppelin/contracts/utils/cryptography/MerkleProof.sol\":1993:1997  bool */\n      0x00\n        /* \"@openzeppelin/contracts/utils/cryptography/MerkleProof.sol\":2045:2049  root */\n      dup3\n        /* \"@openzeppelin/contracts/utils/cryptography/MerkleProof.sol\":2016:2041  processProof(proof, leaf) */\n      tag_357\n        /* \"@openzeppelin/contracts/utils/cryptography/MerkleProof.sol\":2029:2034  proof */\n      dup6\n        /* \"@openzeppelin/contracts/utils/cryptography/MerkleProof.sol\":2036:2040  leaf */\n      dup5\n        /* \"@openzeppelin/contracts/utils/cryptography/MerkleProof.sol\":2016:2028  processProof */\n      tag_358\n        /* \"@openzeppelin/contracts/utils/cryptography/MerkleProof.sol\":2016:2041  processProof(proof, leaf) */\n      jump\t// in\n    tag_357:\n        /* \"@openzeppelin/contracts/utils/cryptography/MerkleProof.sol\":2016:2049  processProof(proof, leaf) == root */\n      eq\n        /* \"@openzeppelin/contracts/utils/cryptography/MerkleProof.sol\":2009:2049  return processProof(proof, leaf) == root */\n      swap1\n      pop\n        /* \"@openzeppelin/contracts/utils/cryptography/MerkleProof.sol\":1902:2056  function verify(bytes32[] memory proof, bytes32 root, bytes32 leaf) internal pure returns (bool) {... */\n      swap4\n      swap3\n      pop\n      pop\n      pop\n      jump\t// out\n        /* \"@openzeppelin/contracts/token/ERC20/utils/SafeERC20.sol\":1219:1379  function safeTransfer(IERC20 token, address to, uint256 value) internal {... */\n    tag_199:\n        /* \"@openzeppelin/contracts/token/ERC20/utils/SafeERC20.sol\":1301:1372  _callOptionalReturn(token, abi.encodeCall(token.transfer, (to, value))) */\n      tag_360\n        /* \"@openzeppelin/contracts/token/ERC20/utils/SafeERC20.sol\":1321:1326  token */\n      dup4\n        /* \"@openzeppelin/contracts/token/ERC20/utils/SafeERC20.sol\":1343:1348  token */\n      dup5\n        /* \"@openzeppelin/contracts/token/ERC20/utils/SafeERC20.sol\":1343:1357  token.transfer */\n      0xffffffffffffffffffffffffffffffffffffffff\n      and\n      0xa9059cbb\n        /* \"@openzeppelin/contracts/token/ERC20/utils/SafeERC20.sol\":1360:1362  to */\n      dup6\n        /* \"@openzeppelin/contracts/token/ERC20/utils/SafeERC20.sol\":1364:1369  value */\n      dup6\n        /* \"@openzeppelin/contracts/token/ERC20/utils/SafeERC20.sol\":1328:1371  abi.encodeCall(token.transfer, (to, value)) */\n      add(0x24, mload(0x40))\n      tag_361\n      swap3\n      swap2\n      swap1\n      tag_362\n      jump\t// in\n    tag_361:\n      mload(0x40)\n      0x20\n      dup2\n      dup4\n      sub\n      sub\n      dup2\n      mstore\n      swap1\n      0x40\n      mstore\n      swap2\n      pop\n      0xe0\n      shl\n      0x20\n      dup3\n      add\n      dup1\n      mload\n      0xffffffffffffffffffffffffffffffffffffffffffffffffffffffff\n      dup4\n      dup2\n      dup4\n      and\n      or\n      dup4\n      mstore\n      pop\n      pop\n      pop\n      pop\n        /* \"@openzeppelin/contracts/token/ERC20/utils/SafeERC20.sol\":1301:1320  _callOptionalReturn */\n      tag_363\n        /* \"@openzeppelin/contracts/token/ERC20/utils/SafeERC20.sol\":1301:1372  _callOptionalReturn(token, abi.encodeCall(token.transfer, (to, value))) */\n      jump\t// in\n    tag_360:\n        /* \"@openzeppelin/contracts/token/ERC20/utils/SafeERC20.sol\":1219:1379  function safeTransfer(IERC20 token, address to, uint256 value) internal {... */\n      pop\n      pop\n      pop\n      jump\t// out\n        /* \"@openzeppelin/contracts/security/ReentrancyGuard.sol\":2629:2838  function _nonReentrantAfter() private {... */\n    tag_203:\n        /* \"@openzeppelin/contracts/security/ReentrancyGuard.sol\":1716:1717  1 */\n      0x01\n        /* \"@openzeppelin/contracts/security/ReentrancyGuard.sol\":2809:2816  _status */\n      dup1\n        /* \"@openzeppelin/contracts/security/ReentrancyGuard.sol\":2809:2831  _status = _NOT_ENTERED */\n      dup2\n      swap1\n      sstore\n      pop\n        /* \"@openzeppelin/contracts/security/ReentrancyGuard.sol\":2629:2838  function _nonReentrantAfter() private {... */\n      jump\t// out\n        /* \"@openzeppelin/contracts/access/Ownable.sol\":1796:1958  function _checkOwner() internal view virtual {... */\n    tag_211:\n        /* \"@openzeppelin/contracts/access/Ownable.sol\":1866:1878  _msgSender() */\n      tag_366\n        /* \"@openzeppelin/contracts/access/Ownable.sol\":1866:1876  _msgSender */\n      tag_367\n        /* \"@openzeppelin/contracts/access/Ownable.sol\":1866:1878  _msgSender() */\n      jump\t// in\n    tag_366:\n        /* \"@openzeppelin/contracts/access/Ownable.sol\":1855:1878  owner() != _msgSender() */\n      0xffffffffffffffffffffffffffffffffffffffff\n      and\n        /* \"@openzeppelin/contracts/access/Ownable.sol\":1855:1862  owner() */\n      tag_368\n        /* \"@openzeppelin/contracts/access/Ownable.sol\":1855:1860  owner */\n      tag_125\n        /* \"@openzeppelin/contracts/access/Ownable.sol\":1855:1862  owner() */\n      jump\t// in\n    tag_368:\n        /* \"@openzeppelin/contracts/access/Ownable.sol\":1855:1878  owner() != _msgSender() */\n      0xffffffffffffffffffffffffffffffffffffffff\n      and\n      eq\n        /* \"@openzeppelin/contracts/access/Ownable.sol\":1851:1952  if (owner() != _msgSender()) {... */\n      tag_369\n      jumpi\n        /* \"@openzeppelin/contracts/access/Ownable.sol\":1928:1940  _msgSender() */\n      tag_370\n        /* \"@openzeppelin/contracts/access/Ownable.sol\":1928:1938  _msgSender */\n      tag_367\n        /* \"@openzeppelin/contracts/access/Ownable.sol\":1928:1940  _msgSender() */\n      jump\t// in\n    tag_370:\n        /* \"@openzeppelin/contracts/access/Ownable.sol\":1901:1941  OwnableUnauthorizedAccount(_msgSender()) */\n      mload(0x40)\n      0x118cdaa700000000000000000000000000000000000000000000000000000000\n      dup2\n      mstore\n      0x04\n      add\n      tag_371\n      swap2\n      swap1\n      tag_92\n      jump\t// in\n    tag_371:\n      mload(0x40)\n      dup1\n      swap2\n      sub\n      swap1\n      revert\n        /* \"@openzeppelin/contracts/access/Ownable.sol\":1851:1952  if (owner() != _msgSender()) {... */\n    tag_369:\n        /* \"@openzeppelin/contracts/access/Ownable.sol\":1796:1958  function _checkOwner() internal view virtual {... */\n      jump\t// out\n        /* \"@openzeppelin/contracts/security/Pausable.sol\":2433:2550  function _unpause() internal virtual whenPaused {... */\n    tag_237:\n        /* \"@openzeppelin/contracts/security/Pausable.sol\":1486:1502  _requirePaused() */\n      tag_373\n        /* \"@openzeppelin/contracts/security/Pausable.sol\":1486:1500  _requirePaused */\n      tag_374\n        /* \"@openzeppelin/contracts/security/Pausable.sol\":1486:1502  _requirePaused() */\n      jump\t// in\n    tag_373:\n        /* \"@openzeppelin/contracts/security/Pausable.sol\":2501:2506  false */\n      0x00\n        /* \"@openzeppelin/contracts/security/Pausable.sol\":2491:2498  _paused */\n      0x00\n      0x14\n        /* \"@openzeppelin/contracts/security/Pausable.sol\":2491:2506  _paused = false */\n      0x0100\n      exp\n      dup2\n      sload\n      dup2\n      0xff\n      mul\n      not\n      and\n      swap1\n      dup4\n      iszero\n      iszero\n      mul\n      or\n      swap1\n      sstore\n      pop\n        /* \"@openzeppelin/contracts/security/Pausable.sol\":2521:2543  Unpaused(_msgSender()) */\n      0x5db9ee0a495bf2e6ff9c91a7834c1ba4fdd244a5e8aa4e537bd38aeae4b073aa\n        /* \"@openzeppelin/contracts/security/Pausable.sol\":2530:2542  _msgSender() */\n      tag_376\n        /* \"@openzeppelin/contracts/security/Pausable.sol\":2530:2540  _msgSender */\n      tag_367\n        /* \"@openzeppelin/contracts/security/Pausable.sol\":2530:2542  _msgSender() */\n      jump\t// in\n    tag_376:\n        /* \"@openzeppelin/contracts/security/Pausable.sol\":2521:2543  Unpaused(_msgSender()) */\n      mload(0x40)\n      tag_377\n      swap2\n      swap1\n      tag_92\n      jump\t// in\n    tag_377:\n      mload(0x40)\n      dup1\n      swap2\n      sub\n      swap1\n      log1\n        /* \"@openzeppelin/contracts/security/Pausable.sol\":2433:2550  function _unpause() internal virtual whenPaused {... */\n      jump\t// out\n        /* \"@openzeppelin/contracts/access/Ownable.sol\":2912:3099  function _transferOwnership(address newOwner) internal virtual {... */\n    tag_268:\n        /* \"@openzeppelin/contracts/access/Ownable.sol\":2985:3001  address oldOwner */\n      0x00\n        /* \"@openzeppelin/contracts/access/Ownable.sol\":3004:3010  _owner */\n      0x00\n      0x00\n      swap1\n      sload\n      swap1\n      0x0100\n      exp\n      swap1\n      div\n      0xffffffffffffffffffffffffffffffffffffffff\n      and\n        /* \"@openzeppelin/contracts/access/Ownable.sol\":2985:3010  address oldOwner = _owner */\n      swap1\n      pop\n        /* \"@openzeppelin/contracts/access/Ownable.sol\":3029:3037  newOwner */\n      dup2\n        /* \"@openzeppelin/contracts/access/Ownable.sol\":3020:3026  _owner */\n      0x00\n      0x00\n        /* \"@openzeppelin/contracts/access/Ownable.sol\":3020:3037  _owner = newOwner */\n      0x0100\n      exp\n      dup2\n      sload\n      dup2\n      0xffffffffffffffffffffffffffffffffffffffff\n      mul\n      not\n      and\n      swap1\n      dup4\n      0xffffffffffffffffffffffffffffffffffffffff\n      and\n      mul\n      or\n      swap1\n      sstore\n      pop\n        /* \"@openzeppelin/contracts/access/Ownable.sol\":3083:3091  newOwner */\n      dup2\n        /* \"@openzeppelin/contracts/access/Ownable.sol\":3052:3092  OwnershipTransferred(oldOwner, newOwner) */\n      0xffffffffffffffffffffffffffffffffffffffff\n      and\n        /* \"@openzeppelin/contracts/access/Ownable.sol\":3073:3081  oldOwner */\n      dup2\n        /* \"@openzeppelin/contracts/access/Ownable.sol\":3052:3092  OwnershipTransferred(oldOwner, newOwner) */\n      0xffffffffffffffffffffffffffffffffffffffff\n      and\n      0x8be0079c531659141344cd1fd0a4f28419497f9722a3daafe3b4186f6b6457e0\n      mload(0x40)\n      mload(0x40)\n      dup1\n      swap2\n      sub\n      swap1\n      log3\n        /* \"@openzeppelin/contracts/access/Ownable.sol\":2975:3099  {... */\n      pop\n        /* \"@openzeppelin/contracts/access/Ownable.sol\":2912:3099  function _transferOwnership(address newOwner) internal virtual {... */\n      pop\n      jump\t// out\n        /* \"@openzeppelin/contracts/security/Pausable.sol\":2186:2301  function _pause() internal virtual whenNotPaused {... */\n    tag_303:\n        /* \"@openzeppelin/contracts/security/Pausable.sol\":1239:1258  _requireNotPaused() */\n      tag_380\n        /* \"@openzeppelin/contracts/security/Pausable.sol\":1239:1256  _requireNotPaused */\n      tag_176\n        /* \"@openzeppelin/contracts/security/Pausable.sol\":1239:1258  _requireNotPaused() */\n      jump\t// in\n    tag_380:\n        /* \"@openzeppelin/contracts/security/Pausable.sol\":2255:2259  true */\n      0x01\n        /* \"@openzeppelin/contracts/security/Pausable.sol\":2245:2252  _paused */\n      0x00\n      0x14\n        /* \"@openzeppelin/contracts/security/Pausable.sol\":2245:2259  _paused = true */\n      0x0100\n      exp\n      dup2\n      sload\n      dup2\n      0xff\n      mul\n      not\n      and\n      swap1\n      dup4\n      iszero\n      iszero\n      mul\n      or\n      swap1\n      sstore\n      pop\n        /* \"@openzeppelin/contracts/security/Pausable.sol\":2274:2294  Paused(_msgSender()) */\n      0x62e78cea01bee320cd4e420270b5ea74000d11b0c9f74754ebdbfc544b05a258\n        /* \"@openzeppelin/contracts/security/Pausable.sol\":2281:2293  _msgSender() */\n      tag_382\n        /* \"@openzeppelin/contracts/security/Pausable.sol\":2281:2291  _msgSender */\n      tag_367\n        /* \"@openzeppelin/contracts/security/Pausable.sol\":2281:2293  _msgSender() */\n      jump\t// in\n    tag_382:\n        /* \"@openzeppelin/contracts/security/Pausable.sol\":2274:2294  Paused(_msgSender()) */\n      mload(0x40)\n      tag_383\n      swap2\n      swap1\n      tag_92\n      jump\t// in\n    tag_383:\n      mload(0x40)\n      dup1\n      swap2\n      sub\n      swap1\n      log1\n        /* \"@openzeppelin/contracts/security/Pausable.sol\":2186:2301  function _pause() internal virtual whenNotPaused {... */\n      jump\t// out\n        /* \"@openzeppelin/contracts/token/ERC20/utils/SafeERC20.sol\":1618:1806  function safeTransferFrom(IERC20 token, address from, address to, uint256 value) internal {... */\n    tag_321:\n        /* \"@openzeppelin/contracts/token/ERC20/utils/SafeERC20.sol\":1718:1799  _callOptionalReturn(token, abi.encodeCall(token.transferFrom, (from, to, value))) */\n      tag_385\n        /* \"@openzeppelin/contracts/token/ERC20/utils/SafeERC20.sol\":1738:1743  token */\n      dup5\n        /* \"@openzeppelin/contracts/token/ERC20/utils/SafeERC20.sol\":1760:1765  token */\n      dup6\n        /* \"@openzeppelin/contracts/token/ERC20/utils/SafeERC20.sol\":1760:1778  token.transferFrom */\n      0xffffffffffffffffffffffffffffffffffffffff\n      and\n      0x23b872dd\n        /* \"@openzeppelin/contracts/token/ERC20/utils/SafeERC20.sol\":1781:1785  from */\n      dup7\n        /* \"@openzeppelin/contracts/token/ERC20/utils/SafeERC20.sol\":1787:1789  to */\n      dup7\n        /* \"@openzeppelin/contracts/token/ERC20/utils/SafeERC20.sol\":1791:1796  value */\n      dup7\n        /* \"@openzeppelin/contracts/token/ERC20/utils/SafeERC20.sol\":1745:1798  abi.encodeCall(token.transferFrom, (from, to, value)) */\n      add(0x24, mload(0x40))\n      tag_386\n      swap4\n      swap3\n      swap2\n      swap1\n      tag_387\n      jump\t// in\n    tag_386:\n      mload(0x40)\n      0x20\n      dup2\n      dup4\n      sub\n      sub\n      dup2\n      mstore\n      swap1\n      0x40\n      mstore\n      swap2\n      pop\n      0xe0\n      shl\n      0x20\n      dup3\n      add\n      dup1\n      mload\n      0xffffffffffffffffffffffffffffffffffffffffffffffffffffffff\n      dup4\n      dup2\n      dup4\n      and\n      or\n      dup4\n      mstore\n      pop\n      pop\n      pop\n      pop\n        /* \"@openzeppelin/contracts/token/ERC20/utils/SafeERC20.sol\":1718:1737  _callOptionalReturn */\n      tag_363\n        /* \"@openzeppelin/contracts/token/ERC20/utils/SafeERC20.sol\":1718:1799  _callOptionalReturn(token, abi.encodeCall(token.transferFrom, (from, to, value))) */\n      jump\t// in\n    tag_385:\n        /* \"@openzeppelin/contracts/token/ERC20/utils/SafeERC20.sol\":1618:1806  function safeTransferFrom(IERC20 token, address from, address to, uint256 value) internal {... */\n      pop\n      pop\n      pop\n      pop\n      jump\t// out\n        /* \"@openzeppelin/contracts/utils/cryptography/MerkleProof.sol\":2457:2765  function processProof(bytes32[] memory proof, bytes32 leaf) internal pure returns (bytes32) {... */\n    tag_358:\n        /* \"@openzeppelin/contracts/utils/cryptography/MerkleProof.sol\":2540:2547  bytes32 */\n      0x00\n        /* \"@openzeppelin/contracts/utils/cryptography/MerkleProof.sol\":2559:2579  bytes32 computedHash */\n      0x00\n        /* \"@openzeppelin/contracts/utils/cryptography/MerkleProof.sol\":2582:2586  leaf */\n      dup3\n        /* \"@openzeppelin/contracts/utils/cryptography/MerkleProof.sol\":2559:2586  bytes32 computedHash = leaf */\n      swap1\n      pop\n        /* \"@openzeppelin/contracts/utils/cryptography/MerkleProof.sol\":2601:2610  uint256 i */\n      0x00\n        /* \"@openzeppelin/contracts/utils/cryptography/MerkleProof.sol\":2613:2614  0 */\n      0x00\n        /* \"@openzeppelin/contracts/utils/cryptography/MerkleProof.sol\":2601:2614  uint256 i = 0 */\n      swap1\n      pop\n        /* \"@openzeppelin/contracts/utils/cryptography/MerkleProof.sol\":2596:2730  for (uint256 i = 0; i < proof.length; i++) {... */\n    tag_389:\n        /* \"@openzeppelin/contracts/utils/cryptography/MerkleProof.sol\":2620:2625  proof */\n      dup5\n        /* \"@openzeppelin/contracts/utils/cryptography/MerkleProof.sol\":2620:2632  proof.length */\n      mload\n        /* \"@openzeppelin/contracts/utils/cryptography/MerkleProof.sol\":2616:2617  i */\n      dup2\n        /* \"@openzeppelin/contracts/utils/cryptography/MerkleProof.sol\":2616:2632  i < proof.length */\n      lt\n        /* \"@openzeppelin/contracts/utils/cryptography/MerkleProof.sol\":2596:2730  for (uint256 i = 0; i < proof.length; i++) {... */\n      iszero\n      tag_390\n      jumpi\n        /* \"@openzeppelin/contracts/utils/cryptography/MerkleProof.sol\":2668:2719  Hashes.commutativeKeccak256(computedHash, proof[i]) */\n      tag_392\n        /* \"@openzeppelin/contracts/utils/cryptography/MerkleProof.sol\":2696:2708  computedHash */\n      dup3\n        /* \"@openzeppelin/contracts/utils/cryptography/MerkleProof.sol\":2710:2715  proof */\n      dup7\n        /* \"@openzeppelin/contracts/utils/cryptography/MerkleProof.sol\":2716:2717  i */\n      dup4\n        /* \"@openzeppelin/contracts/utils/cryptography/MerkleProof.sol\":2710:2718  proof[i] */\n      dup2\n      mload\n      dup2\n      lt\n      tag_393\n      jumpi\n      tag_394\n      tag_395\n      jump\t// in\n    tag_394:\n    tag_393:\n      0x20\n      mul\n      0x20\n      add\n      add\n      mload\n        /* \"@openzeppelin/contracts/utils/cryptography/MerkleProof.sol\":2668:2695  Hashes.commutativeKeccak256 */\n      tag_396\n        /* \"@openzeppelin/contracts/utils/cryptography/MerkleProof.sol\":2668:2719  Hashes.commutativeKeccak256(computedHash, proof[i]) */\n      jump\t// in\n    tag_392:\n        /* \"@openzeppelin/contracts/utils/cryptography/MerkleProof.sol\":2653:2719  computedHash = Hashes.commutativeKeccak256(computedHash, proof[i]) */\n      swap2\n      pop\n        /* \"@openzeppelin/contracts/utils/cryptography/MerkleProof.sol\":2634:2637  i++ */\n      dup1\n      dup1\n      0x01\n      add\n      swap2\n      pop\n      pop\n        /* \"@openzeppelin/contracts/utils/cryptography/MerkleProof.sol\":2596:2730  for (uint256 i = 0; i < proof.length; i++) {... */\n      jump(tag_389)\n    tag_390:\n      pop\n        /* \"@openzeppelin/contracts/utils/cryptography/MerkleProof.sol\":2746:2758  computedHash */\n      dup1\n        /* \"@openzeppelin/contracts/utils/cryptography/MerkleProof.sol\":2739:2758  return computedHash */\n      swap2\n      pop\n      pop\n        /* \"@openzeppelin/contracts/utils/cryptography/MerkleProof.sol\":2457:2765  function processProof(bytes32[] memory proof, bytes32 leaf) internal pure returns (bytes32) {... */\n      swap3\n      swap2\n      pop\n      pop\n      jump\t// out\n        /* \"@openzeppelin/contracts/token/ERC20/utils/SafeERC20.sol\":8370:9090  function _callOptionalReturn(IERC20 token, bytes memory data) private {... */\n    tag_363:\n        /* \"@openzeppelin/contracts/token/ERC20/utils/SafeERC20.sol\":8450:8468  uint256 returnSize */\n      0x00\n        /* \"@openzeppelin/contracts/token/ERC20/utils/SafeERC20.sol\":8478:8497  uint256 returnValue */\n      0x00\n        /* \"@openzeppelin/contracts/token/ERC20/utils/SafeERC20.sol\":8616:8620  0x20 */\n      0x20\n        /* \"@openzeppelin/contracts/token/ERC20/utils/SafeERC20.sol\":8613:8614  0 */\n      0x00\n        /* \"@openzeppelin/contracts/token/ERC20/utils/SafeERC20.sol\":8606:8610  data */\n      dup5\n        /* \"@openzeppelin/contracts/token/ERC20/utils/SafeERC20.sol\":8600:8611  mload(data) */\n      mload\n        /* \"@openzeppelin/contracts/token/ERC20/utils/SafeERC20.sol\":8593:8597  0x20 */\n      0x20\n        /* \"@openzeppelin/contracts/token/ERC20/utils/SafeERC20.sol\":8587:8591  data */\n      dup7\n        /* \"@openzeppelin/contracts/token/ERC20/utils/SafeERC20.sol\":8583:8598  add(data, 0x20) */\n      add\n        /* \"@openzeppelin/contracts/token/ERC20/utils/SafeERC20.sol\":8580:8581  0 */\n      0x00\n        /* \"@openzeppelin/contracts/token/ERC20/utils/SafeERC20.sol\":8573:8578  token */\n      dup9\n        /* \"@openzeppelin/contracts/token/ERC20/utils/SafeERC20.sol\":8566:8571  gas() */\n      gas\n        /* \"@openzeppelin/contracts/token/ERC20/utils/SafeERC20.sol\":8561:8621  call(gas(), token, 0, add(data, 0x20), mload(data), 0, 0x20) */\n      call\n        /* \"@openzeppelin/contracts/token/ERC20/utils/SafeERC20.sol\":8673:8680  success */\n      dup1\n        /* \"@openzeppelin/contracts/token/ERC20/utils/SafeERC20.sol\":8663:8839  if iszero(success) {... */\n      tag_398\n      jumpi\n        /* \"@openzeppelin/contracts/token/ERC20/utils/SafeERC20.sol\":8717:8721  0x40 */\n      0x40\n        /* \"@openzeppelin/contracts/token/ERC20/utils/SafeERC20.sol\":8711:8722  mload(0x40) */\n      mload\n        /* \"@openzeppelin/contracts/token/ERC20/utils/SafeERC20.sol\":8762:8778  returndatasize() */\n      returndatasize\n        /* \"@openzeppelin/contracts/token/ERC20/utils/SafeERC20.sol\":8759:8760  0 */\n      0x00\n        /* \"@openzeppelin/contracts/token/ERC20/utils/SafeERC20.sol\":8754:8757  ptr */\n      dup3\n        /* \"@openzeppelin/contracts/token/ERC20/utils/SafeERC20.sol\":8739:8779  returndatacopy(ptr, 0, returndatasize()) */\n      returndatacopy\n        /* \"@openzeppelin/contracts/token/ERC20/utils/SafeERC20.sol\":8808:8824  returndatasize() */\n      returndatasize\n        /* \"@openzeppelin/contracts/token/ERC20/utils/SafeERC20.sol\":8803:8806  ptr */\n      dup2\n        /* \"@openzeppelin/contracts/token/ERC20/utils/SafeERC20.sol\":8796:8825  revert(ptr, returndatasize()) */\n      revert\n        /* \"@openzeppelin/contracts/token/ERC20/utils/SafeERC20.sol\":8663:8839  if iszero(success) {... */\n    tag_398:\n        /* \"@openzeppelin/contracts/token/ERC20/utils/SafeERC20.sol\":8866:8882  returndatasize() */\n      returndatasize\n        /* \"@openzeppelin/contracts/token/ERC20/utils/SafeERC20.sol\":8852:8882  returnSize := returndatasize() */\n      swap3\n      pop\n        /* \"@openzeppelin/contracts/token/ERC20/utils/SafeERC20.sol\":8916:8917  0 */\n      0x00\n        /* \"@openzeppelin/contracts/token/ERC20/utils/SafeERC20.sol\":8910:8918  mload(0) */\n      mload\n        /* \"@openzeppelin/contracts/token/ERC20/utils/SafeERC20.sol\":8895:8918  returnValue := mload(0) */\n      swap2\n      pop\n        /* \"@openzeppelin/contracts/token/ERC20/utils/SafeERC20.sol\":8532:8928  {... */\n      pop\n        /* \"@openzeppelin/contracts/token/ERC20/utils/SafeERC20.sol\":8956:8957  0 */\n      0x00\n        /* \"@openzeppelin/contracts/token/ERC20/utils/SafeERC20.sol\":8942:8952  returnSize */\n      dup3\n        /* \"@openzeppelin/contracts/token/ERC20/utils/SafeERC20.sol\":8942:8957  returnSize == 0 */\n      eq\n        /* \"@openzeppelin/contracts/token/ERC20/utils/SafeERC20.sol\":8942:9010  returnSize == 0 ? address(token).code.length == 0 : returnValue != 1 */\n      tag_399\n      jumpi\n        /* \"@openzeppelin/contracts/token/ERC20/utils/SafeERC20.sol\":9009:9010  1 */\n      0x01\n        /* \"@openzeppelin/contracts/token/ERC20/utils/SafeERC20.sol\":8994:9005  returnValue */\n      dup2\n        /* \"@openzeppelin/contracts/token/ERC20/utils/SafeERC20.sol\":8994:9010  returnValue != 1 */\n      eq\n      iszero\n        /* \"@openzeppelin/contracts/token/ERC20/utils/SafeERC20.sol\":8942:9010  returnSize == 0 ? address(token).code.length == 0 : returnValue != 1 */\n      jump(tag_400)\n    tag_399:\n        /* \"@openzeppelin/contracts/token/ERC20/utils/SafeERC20.sol\":8990:8991  0 */\n      0x00\n        /* \"@openzeppelin/contracts/token/ERC20/utils/SafeERC20.sol\":8968:8973  token */\n      dup5\n        /* \"@openzeppelin/contracts/token/ERC20/utils/SafeERC20.sol\":8960:8986  address(token).code.length */\n      0xffffffffffffffffffffffffffffffffffffffff\n      and\n      extcodesize\n        /* \"@openzeppelin/contracts/token/ERC20/utils/SafeERC20.sol\":8960:8991  address(token).code.length == 0 */\n      eq\n        /* \"@openzeppelin/contracts/token/ERC20/utils/SafeERC20.sol\":8942:9010  returnSize == 0 ? address(token).code.length == 0 : returnValue != 1 */\n    tag_400:\n        /* \"@openzeppelin/contracts/token/ERC20/utils/SafeERC20.sol\":8938:9084  if (returnSize == 0 ? address(token).code.length == 0 : returnValue != 1) {... */\n      iszero\n      tag_401\n      jumpi\n        /* \"@openzeppelin/contracts/token/ERC20/utils/SafeERC20.sol\":9066:9071  token */\n      dup4\n        /* \"@openzeppelin/contracts/token/ERC20/utils/SafeERC20.sol\":9033:9073  SafeERC20FailedOperation(address(token)) */\n      mload(0x40)\n      0x5274afe700000000000000000000000000000000000000000000000000000000\n      dup2\n      mstore\n      0x04\n      add\n      tag_402\n      swap2\n      swap1\n      tag_92\n      jump\t// in\n    tag_402:\n      mload(0x40)\n      dup1\n      swap2\n      sub\n      swap1\n      revert\n        /* \"@openzeppelin/contracts/token/ERC20/utils/SafeERC20.sol\":8938:9084  if (returnSize == 0 ? address(token).code.length == 0 : returnValue != 1) {... */\n    tag_401:\n        /* \"@openzeppelin/contracts/token/ERC20/utils/SafeERC20.sol\":8440:9090  {... */\n      pop\n      pop\n        /* \"@openzeppelin/contracts/token/ERC20/utils/SafeERC20.sol\":8370:9090  function _callOptionalReturn(IERC20 token, bytes memory data) private {... */\n      pop\n      pop\n      jump\t// out\n        /* \"@openzeppelin/contracts/utils/Context.sol\":656:752  function _msgSender() internal view virtual returns (address) {... */\n    tag_367:\n        /* \"@openzeppelin/contracts/utils/Context.sol\":709:716  address */\n      0x00\n        /* \"@openzeppelin/contracts/utils/Context.sol\":735:745  msg.sender */\n      caller\n        /* \"@openzeppelin/contracts/utils/Context.sol\":728:745  return msg.sender */\n      swap1\n      pop\n        /* \"@openzeppelin/contracts/utils/Context.sol\":656:752  function _msgSender() internal view virtual returns (address) {... */\n      swap1\n      jump\t// out\n        /* \"@openzeppelin/contracts/security/Pausable.sol\":1945:2051  function _requirePaused() internal view virtual {... */\n    tag_374:\n        /* \"@openzeppelin/contracts/security/Pausable.sol\":2011:2019  paused() */\n      tag_405\n        /* \"@openzeppelin/contracts/security/Pausable.sol\":2011:2017  paused */\n      tag_95\n        /* \"@openzeppelin/contracts/security/Pausable.sol\":2011:2019  paused() */\n      jump\t// in\n    tag_405:\n        /* \"@openzeppelin/contracts/security/Pausable.sol\":2003:2044  require(paused(), \"Pausable: not paused\") */\n      tag_406\n      jumpi\n      mload(0x40)\n      0x08c379a000000000000000000000000000000000000000000000000000000000\n      dup2\n      mstore\n      0x04\n      add\n      tag_407\n      swap1\n      tag_408\n      jump\t// in\n    tag_407:\n      mload(0x40)\n      dup1\n      swap2\n      sub\n      swap1\n      revert\n    tag_406:\n        /* \"@openzeppelin/contracts/security/Pausable.sol\":1945:2051  function _requirePaused() internal view virtual {... */\n      jump\t// out\n        /* \"@openzeppelin/contracts/utils/cryptography/Hashes.sol\":504:671  function commutativeKeccak256(bytes32 a, bytes32 b) internal pure returns (bytes32) {... */\n    tag_396:\n        /* \"@openzeppelin/contracts/utils/cryptography/Hashes.sol\":579:586  bytes32 */\n      0x00\n        /* \"@openzeppelin/contracts/utils/cryptography/Hashes.sol\":609:610  b */\n      dup2\n        /* \"@openzeppelin/contracts/utils/cryptography/Hashes.sol\":605:606  a */\n      dup4\n        /* \"@openzeppelin/contracts/utils/cryptography/Hashes.sol\":605:610  a < b */\n      lt\n        /* \"@openzeppelin/contracts/utils/cryptography/Hashes.sol\":605:664  a < b ? efficientKeccak256(a, b) : efficientKeccak256(b, a) */\n      tag_410\n      jumpi\n        /* \"@openzeppelin/contracts/utils/cryptography/Hashes.sol\":640:664  efficientKeccak256(b, a) */\n      tag_411\n        /* \"@openzeppelin/contracts/utils/cryptography/Hashes.sol\":659:660  b */\n      dup3\n        /* \"@openzeppelin/contracts/utils/cryptography/Hashes.sol\":662:663  a */\n      dup5\n        /* \"@openzeppelin/contracts/utils/cryptography/Hashes.sol\":640:658  efficientKeccak256 */\n      tag_412\n        /* \"@openzeppelin/contracts/utils/cryptography/Hashes.sol\":640:664  efficientKeccak256(b, a) */\n      jump\t// in\n    tag_411:\n        /* \"@openzeppelin/contracts/utils/cryptography/Hashes.sol\":605:664  a < b ? efficientKeccak256(a, b) : efficientKeccak256(b, a) */\n      jump(tag_413)\n    tag_410:\n        /* \"@openzeppelin/contracts/utils/cryptography/Hashes.sol\":613:637  efficientKeccak256(a, b) */\n      tag_414\n        /* \"@openzeppelin/contracts/utils/cryptography/Hashes.sol\":632:633  a */\n      dup4\n        /* \"@openzeppelin/contracts/utils/cryptography/Hashes.sol\":635:636  b */\n      dup4\n        /* \"@openzeppelin/contracts/utils/cryptography/Hashes.sol\":613:631  efficientKeccak256 */\n      tag_412\n        /* \"@openzeppelin/contracts/utils/cryptography/Hashes.sol\":613:637  efficientKeccak256(a, b) */\n      jump\t// in\n    tag_414:\n        /* \"@openzeppelin/contracts/utils/cryptography/Hashes.sol\":605:664  a < b ? efficientKeccak256(a, b) : efficientKeccak256(b, a) */\n    tag_413:\n        /* \"@openzeppelin/contracts/utils/cryptography/Hashes.sol\":598:664  return a < b ? efficientKeccak256(a, b) : efficientKeccak256(b, a) */\n      swap1\n      pop\n        /* \"@openzeppelin/contracts/utils/cryptography/Hashes.sol\":504:671  function commutativeKeccak256(bytes32 a, bytes32 b) internal pure returns (bytes32) {... */\n      swap3\n      swap2\n      pop\n      pop\n      jump\t// out\n        /* \"@openzeppelin/contracts/utils/cryptography/Hashes.sol\":791:1030  function efficientKeccak256(bytes32 a, bytes32 b) internal pure returns (bytes32 value) {... */\n    tag_412:\n        /* \"@openzeppelin/contracts/utils/cryptography/Hashes.sol\":864:877  bytes32 value */\n      0x00\n        /* \"@openzeppelin/contracts/utils/cryptography/Hashes.sol\":941:942  a */\n      dup3\n        /* \"@openzeppelin/contracts/utils/cryptography/Hashes.sol\":935:939  0x00 */\n      0x00\n        /* \"@openzeppelin/contracts/utils/cryptography/Hashes.sol\":928:943  mstore(0x00, a) */\n      mstore\n        /* \"@openzeppelin/contracts/utils/cryptography/Hashes.sol\":969:970  b */\n      dup2\n        /* \"@openzeppelin/contracts/utils/cryptography/Hashes.sol\":963:967  0x20 */\n      0x20\n        /* \"@openzeppelin/contracts/utils/cryptography/Hashes.sol\":956:971  mstore(0x20, b) */\n      mstore\n        /* \"@openzeppelin/contracts/utils/cryptography/Hashes.sol\":1009:1013  0x40 */\n      0x40\n        /* \"@openzeppelin/contracts/utils/cryptography/Hashes.sol\":1003:1007  0x00 */\n      0x00\n        /* \"@openzeppelin/contracts/utils/cryptography/Hashes.sol\":993:1014  keccak256(0x00, 0x40) */\n      keccak256\n        /* \"@openzeppelin/contracts/utils/cryptography/Hashes.sol\":984:1014  value := keccak256(0x00, 0x40) */\n      swap1\n      pop\n        /* \"@openzeppelin/contracts/utils/cryptography/Hashes.sol\":791:1030  function efficientKeccak256(bytes32 a, bytes32 b) internal pure returns (bytes32 value) {... */\n      swap3\n      swap2\n      pop\n      pop\n      jump\t// out\n        /* \"#utility.yul\":88:205   */\n    tag_417:\n        /* \"#utility.yul\":197:198   */\n      0x00\n        /* \"#utility.yul\":194:195   */\n      0x00\n        /* \"#utility.yul\":187:199   */\n      revert\n        /* \"#utility.yul\":211:328   */\n    tag_418:\n        /* \"#utility.yul\":320:321   */\n      0x00\n        /* \"#utility.yul\":317:318   */\n      0x00\n        /* \"#utility.yul\":310:322   */\n      revert\n        /* \"#utility.yul\":334:411   */\n    tag_419:\n        /* \"#utility.yul\":371:378   */\n      0x00\n        /* \"#utility.yul\":400:405   */\n      dup2\n        /* \"#utility.yul\":389:405   */\n      swap1\n      pop\n        /* \"#utility.yul\":334:411   */\n      swap2\n      swap1\n      pop\n      jump\t// out\n        /* \"#utility.yul\":417:539   */\n    tag_420:\n        /* \"#utility.yul\":490:514   */\n      tag_484\n        /* \"#utility.yul\":508:513   */\n      dup2\n        /* \"#utility.yul\":490:514   */\n      tag_419\n      jump\t// in\n    tag_484:\n        /* \"#utility.yul\":483:488   */\n      dup2\n        /* \"#utility.yul\":480:515   */\n      eq\n        /* \"#utility.yul\":470:533   */\n      tag_485\n      jumpi\n        /* \"#utility.yul\":529:530   */\n      0x00\n        /* \"#utility.yul\":526:527   */\n      0x00\n        /* \"#utility.yul\":519:531   */\n      revert\n        /* \"#utility.yul\":470:533   */\n    tag_485:\n        /* \"#utility.yul\":417:539   */\n      pop\n      jump\t// out\n        /* \"#utility.yul\":545:684   */\n    tag_421:\n        /* \"#utility.yul\":591:596   */\n      0x00\n        /* \"#utility.yul\":629:635   */\n      dup2\n        /* \"#utility.yul\":616:636   */\n      calldataload\n        /* \"#utility.yul\":607:636   */\n      swap1\n      pop\n        /* \"#utility.yul\":645:678   */\n      tag_487\n        /* \"#utility.yul\":672:677   */\n      dup2\n        /* \"#utility.yul\":645:678   */\n      tag_420\n      jump\t// in\n    tag_487:\n        /* \"#utility.yul\":545:684   */\n      swap3\n      swap2\n      pop\n      pop\n      jump\t// out\n        /* \"#utility.yul\":690:816   */\n    tag_422:\n        /* \"#utility.yul\":727:734   */\n      0x00\n        /* \"#utility.yul\":767:809   */\n      0xffffffffffffffffffffffffffffffffffffffff\n        /* \"#utility.yul\":760:765   */\n      dup3\n        /* \"#utility.yul\":756:810   */\n      and\n        /* \"#utility.yul\":745:810   */\n      swap1\n      pop\n        /* \"#utility.yul\":690:816   */\n      swap2\n      swap1\n      pop\n      jump\t// out\n        /* \"#utility.yul\":822:918   */\n    tag_423:\n        /* \"#utility.yul\":859:866   */\n      0x00\n        /* \"#utility.yul\":888:912   */\n      tag_490\n        /* \"#utility.yul\":906:911   */\n      dup3\n        /* \"#utility.yul\":888:912   */\n      tag_422\n      jump\t// in\n    tag_490:\n        /* \"#utility.yul\":877:912   */\n      swap1\n      pop\n        /* \"#utility.yul\":822:918   */\n      swap2\n      swap1\n      pop\n      jump\t// out\n        /* \"#utility.yul\":924:1046   */\n    tag_424:\n        /* \"#utility.yul\":997:1021   */\n      tag_492\n        /* \"#utility.yul\":1015:1020   */\n      dup2\n        /* \"#utility.yul\":997:1021   */\n      tag_423\n      jump\t// in\n    tag_492:\n        /* \"#utility.yul\":990:995   */\n      dup2\n        /* \"#utility.yul\":987:1022   */\n      eq\n        /* \"#utility.yul\":977:1040   */\n      tag_493\n      jumpi\n        /* \"#utility.yul\":1036:1037   */\n      0x00\n        /* \"#utility.yul\":1033:1034   */\n      0x00\n        /* \"#utility.yul\":1026:1038   */\n      revert\n        /* \"#utility.yul\":977:1040   */\n    tag_493:\n        /* \"#utility.yul\":924:1046   */\n      pop\n      jump\t// out\n        /* \"#utility.yul\":1052:1191   */\n    tag_425:\n        /* \"#utility.yul\":1098:1103   */\n      0x00\n        /* \"#utility.yul\":1136:1142   */\n      dup2\n        /* \"#utility.yul\":1123:1143   */\n      calldataload\n        /* \"#utility.yul\":1114:1143   */\n      swap1\n      pop\n        /* \"#utility.yul\":1152:1185   */\n      tag_495\n        /* \"#utility.yul\":1179:1184   */\n      dup2\n        /* \"#utility.yul\":1152:1185   */\n      tag_424\n      jump\t// in\n    tag_495:\n        /* \"#utility.yul\":1052:1191   */\n      swap3\n      swap2\n      pop\n      pop\n      jump\t// out\n        /* \"#utility.yul\":1197:1314   */\n    tag_426:\n        /* \"#utility.yul\":1306:1307   */\n      0x00\n        /* \"#utility.yul\":1303:1304   */\n      0x00\n        /* \"#utility.yul\":1296:1308   */\n      revert\n        /* \"#utility.yul\":1320:1437   */\n    tag_427:\n        /* \"#utility.yul\":1429:1430   */\n      0x00\n        /* \"#utility.yul\":1426:1427   */\n      0x00\n        /* \"#utility.yul\":1419:1431   */\n      revert\n        /* \"#utility.yul\":1443:1560   */\n    tag_428:\n        /* \"#utility.yul\":1552:1553   */\n      0x00\n        /* \"#utility.yul\":1549:1550   */\n      0x00\n        /* \"#utility.yul\":1542:1554   */\n      revert\n        /* \"#utility.yul\":1583:2151   */\n    tag_429:\n        /* \"#utility.yul\":1656:1664   */\n      0x00\n        /* \"#utility.yul\":1666:1672   */\n      0x00\n        /* \"#utility.yul\":1716:1719   */\n      dup4\n        /* \"#utility.yul\":1709:1713   */\n      0x1f\n        /* \"#utility.yul\":1701:1707   */\n      dup5\n        /* \"#utility.yul\":1697:1714   */\n      add\n        /* \"#utility.yul\":1693:1720   */\n      slt\n        /* \"#utility.yul\":1683:1805   */\n      tag_500\n      jumpi\n        /* \"#utility.yul\":1724:1803   */\n      tag_501\n      tag_426\n      jump\t// in\n    tag_501:\n        /* \"#utility.yul\":1683:1805   */\n    tag_500:\n        /* \"#utility.yul\":1837:1843   */\n      dup3\n        /* \"#utility.yul\":1824:1844   */\n      calldataload\n        /* \"#utility.yul\":1814:1844   */\n      swap1\n      pop\n        /* \"#utility.yul\":1867:1885   */\n      0xffffffffffffffff\n        /* \"#utility.yul\":1859:1865   */\n      dup2\n        /* \"#utility.yul\":1856:1886   */\n      gt\n        /* \"#utility.yul\":1853:1970   */\n      iszero\n      tag_502\n      jumpi\n        /* \"#utility.yul\":1889:1968   */\n      tag_503\n      tag_427\n      jump\t// in\n    tag_503:\n        /* \"#utility.yul\":1853:1970   */\n    tag_502:\n        /* \"#utility.yul\":2003:2007   */\n      0x20\n        /* \"#utility.yul\":1995:2001   */\n      dup4\n        /* \"#utility.yul\":1991:2008   */\n      add\n        /* \"#utility.yul\":1979:2008   */\n      swap2\n      pop\n        /* \"#utility.yul\":2057:2060   */\n      dup4\n        /* \"#utility.yul\":2049:2053   */\n      0x20\n        /* \"#utility.yul\":2041:2047   */\n      dup3\n        /* \"#utility.yul\":2037:2054   */\n      mul\n        /* \"#utility.yul\":2027:2035   */\n      dup4\n        /* \"#utility.yul\":2023:2055   */\n      add\n        /* \"#utility.yul\":2020:2061   */\n      gt\n        /* \"#utility.yul\":2017:2145   */\n      iszero\n      tag_504\n      jumpi\n        /* \"#utility.yul\":2064:2143   */\n      tag_505\n      tag_428\n      jump\t// in\n    tag_505:\n        /* \"#utility.yul\":2017:2145   */\n    tag_504:\n        /* \"#utility.yul\":1583:2151   */\n      swap3\n      pop\n      swap3\n      swap1\n      pop\n      jump\t// out\n        /* \"#utility.yul\":2157:3298   */\n    tag_45:\n        /* \"#utility.yul\":2279:2285   */\n      0x00\n        /* \"#utility.yul\":2287:2293   */\n      0x00\n        /* \"#utility.yul\":2295:2301   */\n      0x00\n        /* \"#utility.yul\":2303:2309   */\n      0x00\n        /* \"#utility.yul\":2311:2317   */\n      0x00\n        /* \"#utility.yul\":2319:2325   */\n      0x00\n        /* \"#utility.yul\":2368:2371   */\n      0xa0\n        /* \"#utility.yul\":2356:2365   */\n      dup8\n        /* \"#utility.yul\":2347:2354   */\n      dup10\n        /* \"#utility.yul\":2343:2366   */\n      sub\n        /* \"#utility.yul\":2339:2372   */\n      slt\n        /* \"#utility.yul\":2336:2456   */\n      iszero\n      tag_507\n      jumpi\n        /* \"#utility.yul\":2375:2454   */\n      tag_508\n      tag_417\n      jump\t// in\n    tag_508:\n        /* \"#utility.yul\":2336:2456   */\n    tag_507:\n        /* \"#utility.yul\":2495:2496   */\n      0x00\n        /* \"#utility.yul\":2520:2573   */\n      tag_509\n        /* \"#utility.yul\":2565:2572   */\n      dup10\n        /* \"#utility.yul\":2556:2562   */\n      dup3\n        /* \"#utility.yul\":2545:2554   */\n      dup11\n        /* \"#utility.yul\":2541:2563   */\n      add\n        /* \"#utility.yul\":2520:2573   */\n      tag_421\n      jump\t// in\n    tag_509:\n        /* \"#utility.yul\":2510:2573   */\n      swap7\n      pop\n        /* \"#utility.yul\":2466:2583   */\n      pop\n        /* \"#utility.yul\":2622:2624   */\n      0x20\n        /* \"#utility.yul\":2648:2701   */\n      tag_510\n        /* \"#utility.yul\":2693:2700   */\n      dup10\n        /* \"#utility.yul\":2684:2690   */\n      dup3\n        /* \"#utility.yul\":2673:2682   */\n      dup11\n        /* \"#utility.yul\":2669:2691   */\n      add\n        /* \"#utility.yul\":2648:2701   */\n      tag_425\n      jump\t// in\n    tag_510:\n        /* \"#utility.yul\":2638:2701   */\n      swap6\n      pop\n        /* \"#utility.yul\":2593:2711   */\n      pop\n        /* \"#utility.yul\":2750:2752   */\n      0x40\n        /* \"#utility.yul\":2776:2829   */\n      tag_511\n        /* \"#utility.yul\":2821:2828   */\n      dup10\n        /* \"#utility.yul\":2812:2818   */\n      dup3\n        /* \"#utility.yul\":2801:2810   */\n      dup11\n        /* \"#utility.yul\":2797:2819   */\n      add\n        /* \"#utility.yul\":2776:2829   */\n      tag_421\n      jump\t// in\n    tag_511:\n        /* \"#utility.yul\":2766:2829   */\n      swap5\n      pop\n        /* \"#utility.yul\":2721:2839   */\n      pop\n        /* \"#utility.yul\":2878:2880   */\n      0x60\n        /* \"#utility.yul\":2904:2957   */\n      tag_512\n        /* \"#utility.yul\":2949:2956   */\n      dup10\n        /* \"#utility.yul\":2940:2946   */\n      dup3\n        /* \"#utility.yul\":2929:2938   */\n      dup11\n        /* \"#utility.yul\":2925:2947   */\n      add\n        /* \"#utility.yul\":2904:2957   */\n      tag_421\n      jump\t// in\n    tag_512:\n        /* \"#utility.yul\":2894:2957   */\n      swap4\n      pop\n        /* \"#utility.yul\":2849:2967   */\n      pop\n        /* \"#utility.yul\":3034:3037   */\n      0x80\n        /* \"#utility.yul\":3023:3032   */\n      dup8\n        /* \"#utility.yul\":3019:3038   */\n      add\n        /* \"#utility.yul\":3006:3039   */\n      calldataload\n        /* \"#utility.yul\":3066:3084   */\n      0xffffffffffffffff\n        /* \"#utility.yul\":3058:3064   */\n      dup2\n        /* \"#utility.yul\":3055:3085   */\n      gt\n        /* \"#utility.yul\":3052:3169   */\n      iszero\n      tag_513\n      jumpi\n        /* \"#utility.yul\":3088:3167   */\n      tag_514\n      tag_418\n      jump\t// in\n    tag_514:\n        /* \"#utility.yul\":3052:3169   */\n    tag_513:\n        /* \"#utility.yul\":3201:3281   */\n      tag_515\n        /* \"#utility.yul\":3273:3280   */\n      dup10\n        /* \"#utility.yul\":3264:3270   */\n      dup3\n        /* \"#utility.yul\":3253:3262   */\n      dup11\n        /* \"#utility.yul\":3249:3271   */\n      add\n        /* \"#utility.yul\":3201:3281   */\n      tag_429\n      jump\t// in\n    tag_515:\n        /* \"#utility.yul\":3183:3281   */\n      swap3\n      pop\n      swap3\n      pop\n        /* \"#utility.yul\":2977:3291   */\n      pop\n        /* \"#utility.yul\":2157:3298   */\n      swap3\n      swap6\n      pop\n      swap3\n      swap6\n      pop\n      swap3\n      swap6\n      jump\t// out\n        /* \"#utility.yul\":3304:3633   */\n    tag_50:\n        /* \"#utility.yul\":3363:3369   */\n      0x00\n        /* \"#utility.yul\":3412:3414   */\n      0x20\n        /* \"#utility.yul\":3400:3409   */\n      dup3\n        /* \"#utility.yul\":3391:3398   */\n      dup5\n        /* \"#utility.yul\":3387:3410   */\n      sub\n        /* \"#utility.yul\":3383:3415   */\n      slt\n        /* \"#utility.yul\":3380:3499   */\n      iszero\n      tag_517\n      jumpi\n        /* \"#utility.yul\":3418:3497   */\n      tag_518\n      tag_417\n      jump\t// in\n    tag_518:\n        /* \"#utility.yul\":3380:3499   */\n    tag_517:\n        /* \"#utility.yul\":3538:3539   */\n      0x00\n        /* \"#utility.yul\":3563:3616   */\n      tag_519\n        /* \"#utility.yul\":3608:3615   */\n      dup5\n        /* \"#utility.yul\":3599:3605   */\n      dup3\n        /* \"#utility.yul\":3588:3597   */\n      dup6\n        /* \"#utility.yul\":3584:3606   */\n      add\n        /* \"#utility.yul\":3563:3616   */\n      tag_421\n      jump\t// in\n    tag_519:\n        /* \"#utility.yul\":3553:3616   */\n      swap2\n      pop\n        /* \"#utility.yul\":3509:3626   */\n      pop\n        /* \"#utility.yul\":3304:3633   */\n      swap3\n      swap2\n      pop\n      pop\n      jump\t// out\n        /* \"#utility.yul\":3639:3729   */\n    tag_430:\n        /* \"#utility.yul\":3673:3680   */\n      0x00\n        /* \"#utility.yul\":3716:3721   */\n      dup2\n        /* \"#utility.yul\":3709:3722   */\n      iszero\n        /* \"#utility.yul\":3702:3723   */\n      iszero\n        /* \"#utility.yul\":3691:3723   */\n      swap1\n      pop\n        /* \"#utility.yul\":3639:3729   */\n      swap2\n      swap1\n      pop\n      jump\t// out\n        /* \"#utility.yul\":3735:3844   */\n    tag_431:\n        /* \"#utility.yul\":3816:3837   */\n      tag_522\n        /* \"#utility.yul\":3831:3836   */\n      dup2\n        /* \"#utility.yul\":3816:3837   */\n      tag_430\n      jump\t// in\n    tag_522:\n        /* \"#utility.yul\":3811:3814   */\n      dup3\n        /* \"#utility.yul\":3804:3838   */\n      mstore\n        /* \"#utility.yul\":3735:3844   */\n      pop\n      pop\n      jump\t// out\n        /* \"#utility.yul\":3850:3968   */\n    tag_432:\n        /* \"#utility.yul\":3937:3961   */\n      tag_524\n        /* \"#utility.yul\":3955:3960   */\n      dup2\n        /* \"#utility.yul\":3937:3961   */\n      tag_419\n      jump\t// in\n    tag_524:\n        /* \"#utility.yul\":3932:3935   */\n      dup3\n        /* \"#utility.yul\":3925:3962   */\n      mstore\n        /* \"#utility.yul\":3850:3968   */\n      pop\n      pop\n      jump\t// out\n        /* \"#utility.yul\":3974:4051   */\n    tag_433:\n        /* \"#utility.yul\":4011:4018   */\n      0x00\n        /* \"#utility.yul\":4040:4045   */\n      dup2\n        /* \"#utility.yul\":4029:4045   */\n      swap1\n      pop\n        /* \"#utility.yul\":3974:4051   */\n      swap2\n      swap1\n      pop\n      jump\t// out\n        /* \"#utility.yul\":4057:4175   */\n    tag_434:\n        /* \"#utility.yul\":4144:4168   */\n      tag_527\n        /* \"#utility.yul\":4162:4167   */\n      dup2\n        /* \"#utility.yul\":4144:4168   */\n      tag_433\n      jump\t// in\n    tag_527:\n        /* \"#utility.yul\":4139:4142   */\n      dup3\n        /* \"#utility.yul\":4132:4169   */\n      mstore\n        /* \"#utility.yul\":4057:4175   */\n      pop\n      pop\n      jump\t// out\n        /* \"#utility.yul\":4181:4299   */\n    tag_435:\n        /* \"#utility.yul\":4268:4292   */\n      tag_529\n        /* \"#utility.yul\":4286:4291   */\n      dup2\n        /* \"#utility.yul\":4268:4292   */\n      tag_423\n      jump\t// in\n    tag_529:\n        /* \"#utility.yul\":4263:4266   */\n      dup3\n        /* \"#utility.yul\":4256:4293   */\n      mstore\n        /* \"#utility.yul\":4181:4299   */\n      pop\n      pop\n      jump\t// out\n        /* \"#utility.yul\":4305:5488   */\n    tag_53:\n        /* \"#utility.yul\":4632:4636   */\n      0x00\n        /* \"#utility.yul\":4670:4673   */\n      0x0140\n        /* \"#utility.yul\":4659:4668   */\n      dup3\n        /* \"#utility.yul\":4655:4674   */\n      add\n        /* \"#utility.yul\":4647:4674   */\n      swap1\n      pop\n        /* \"#utility.yul\":4684:4749   */\n      tag_531\n        /* \"#utility.yul\":4746:4747   */\n      0x00\n        /* \"#utility.yul\":4735:4744   */\n      dup4\n        /* \"#utility.yul\":4731:4748   */\n      add\n        /* \"#utility.yul\":4722:4728   */\n      dup14\n        /* \"#utility.yul\":4684:4749   */\n      tag_431\n      jump\t// in\n    tag_531:\n        /* \"#utility.yul\":4759:4825   */\n      tag_532\n        /* \"#utility.yul\":4821:4823   */\n      0x20\n        /* \"#utility.yul\":4810:4819   */\n      dup4\n        /* \"#utility.yul\":4806:4824   */\n      add\n        /* \"#utility.yul\":4797:4803   */\n      dup13\n        /* \"#utility.yul\":4759:4825   */\n      tag_431\n      jump\t// in\n    tag_532:\n        /* \"#utility.yul\":4835:4901   */\n      tag_533\n        /* \"#utility.yul\":4897:4899   */\n      0x40\n        /* \"#utility.yul\":4886:4895   */\n      dup4\n        /* \"#utility.yul\":4882:4900   */\n      add\n        /* \"#utility.yul\":4873:4879   */\n      dup12\n        /* \"#utility.yul\":4835:4901   */\n      tag_431\n      jump\t// in\n    tag_533:\n        /* \"#utility.yul\":4911:4983   */\n      tag_534\n        /* \"#utility.yul\":4979:4981   */\n      0x60\n        /* \"#utility.yul\":4968:4977   */\n      dup4\n        /* \"#utility.yul\":4964:4982   */\n      add\n        /* \"#utility.yul\":4955:4961   */\n      dup11\n        /* \"#utility.yul\":4911:4983   */\n      tag_432\n      jump\t// in\n    tag_534:\n        /* \"#utility.yul\":4993:5066   */\n      tag_535\n        /* \"#utility.yul\":5061:5064   */\n      0x80\n        /* \"#utility.yul\":5050:5059   */\n      dup4\n        /* \"#utility.yul\":5046:5065   */\n      add\n        /* \"#utility.yul\":5037:5043   */\n      dup10\n        /* \"#utility.yul\":4993:5066   */\n      tag_432\n      jump\t// in\n    tag_535:\n        /* \"#utility.yul\":5076:5149   */\n      tag_536\n        /* \"#utility.yul\":5144:5147   */\n      0xa0\n        /* \"#utility.yul\":5133:5142   */\n      dup4\n        /* \"#utility.yul\":5129:5148   */\n      add\n        /* \"#utility.yul\":5120:5126   */\n      dup9\n        /* \"#utility.yul\":5076:5149   */\n      tag_434\n      jump\t// in\n    tag_536:\n        /* \"#utility.yul\":5159:5232   */\n      tag_537\n        /* \"#utility.yul\":5227:5230   */\n      0xc0\n        /* \"#utility.yul\":5216:5225   */\n      dup4\n        /* \"#utility.yul\":5212:5231   */\n      add\n        /* \"#utility.yul\":5203:5209   */\n      dup8\n        /* \"#utility.yul\":5159:5232   */\n      tag_434\n      jump\t// in\n    tag_537:\n        /* \"#utility.yul\":5242:5315   */\n      tag_538\n        /* \"#utility.yul\":5310:5313   */\n      0xe0\n        /* \"#utility.yul\":5299:5308   */\n      dup4\n        /* \"#utility.yul\":5295:5314   */\n      add\n        /* \"#utility.yul\":5286:5292   */\n      dup7\n        /* \"#utility.yul\":5242:5315   */\n      tag_434\n      jump\t// in\n    tag_538:\n        /* \"#utility.yul\":5325:5398   */\n      tag_539\n        /* \"#utility.yul\":5393:5396   */\n      0x0100\n        /* \"#utility.yul\":5382:5391   */\n      dup4\n        /* \"#utility.yul\":5378:5397   */\n      add\n        /* \"#utility.yul\":5369:5375   */\n      dup6\n        /* \"#utility.yul\":5325:5398   */\n      tag_434\n      jump\t// in\n    tag_539:\n        /* \"#utility.yul\":5408:5481   */\n      tag_540\n        /* \"#utility.yul\":5476:5479   */\n      0x0120\n        /* \"#utility.yul\":5465:5474   */\n      dup4\n        /* \"#utility.yul\":5461:5480   */\n      add\n        /* \"#utility.yul\":5452:5458   */\n      dup5\n        /* \"#utility.yul\":5408:5481   */\n      tag_435\n      jump\t// in\n    tag_540:\n        /* \"#utility.yul\":4305:5488   */\n      swap12\n      swap11\n      pop\n      pop\n      pop\n      pop\n      pop\n      pop\n      pop\n      pop\n      pop\n      pop\n      pop\n      jump\t// out\n        /* \"#utility.yul\":5494:5823   */\n    tag_57:\n        /* \"#utility.yul\":5553:5559   */\n      0x00\n        /* \"#utility.yul\":5602:5604   */\n      0x20\n        /* \"#utility.yul\":5590:5599   */\n      dup3\n        /* \"#utility.yul\":5581:5588   */\n      dup5\n        /* \"#utility.yul\":5577:5600   */\n      sub\n        /* \"#utility.yul\":5573:5605   */\n      slt\n        /* \"#utility.yul\":5570:5689   */\n      iszero\n      tag_542\n      jumpi\n        /* \"#utility.yul\":5608:5687   */\n      tag_543\n      tag_417\n      jump\t// in\n    tag_543:\n        /* \"#utility.yul\":5570:5689   */\n    tag_542:\n        /* \"#utility.yul\":5728:5729   */\n      0x00\n        /* \"#utility.yul\":5753:5806   */\n      tag_544\n        /* \"#utility.yul\":5798:5805   */\n      dup5\n        /* \"#utility.yul\":5789:5795   */\n      dup3\n        /* \"#utility.yul\":5778:5787   */\n      dup6\n        /* \"#utility.yul\":5774:5796   */\n      add\n        /* \"#utility.yul\":5753:5806   */\n      tag_425\n      jump\t// in\n    tag_544:\n        /* \"#utility.yul\":5743:5806   */\n      swap2\n      pop\n        /* \"#utility.yul\":5699:5816   */\n      pop\n        /* \"#utility.yul\":5494:5823   */\n      swap3\n      swap2\n      pop\n      pop\n      jump\t// out\n        /* \"#utility.yul\":5829:6051   */\n    tag_70:\n        /* \"#utility.yul\":5922:5926   */\n      0x00\n        /* \"#utility.yul\":5960:5962   */\n      0x20\n        /* \"#utility.yul\":5949:5958   */\n      dup3\n        /* \"#utility.yul\":5945:5963   */\n      add\n        /* \"#utility.yul\":5937:5963   */\n      swap1\n      pop\n        /* \"#utility.yul\":5973:6044   */\n      tag_546\n        /* \"#utility.yul\":6041:6042   */\n      0x00\n        /* \"#utility.yul\":6030:6039   */\n      dup4\n        /* \"#utility.yul\":6026:6043   */\n      add\n        /* \"#utility.yul\":6017:6023   */\n      dup5\n        /* \"#utility.yul\":5973:6044   */\n      tag_432\n      jump\t// in\n    tag_546:\n        /* \"#utility.yul\":5829:6051   */\n      swap3\n      swap2\n      pop\n      pop\n      jump\t// out\n        /* \"#utility.yul\":6057:6179   */\n    tag_436:\n        /* \"#utility.yul\":6130:6154   */\n      tag_548\n        /* \"#utility.yul\":6148:6153   */\n      dup2\n        /* \"#utility.yul\":6130:6154   */\n      tag_433\n      jump\t// in\n    tag_548:\n        /* \"#utility.yul\":6123:6128   */\n      dup2\n        /* \"#utility.yul\":6120:6155   */\n      eq\n        /* \"#utility.yul\":6110:6173   */\n      tag_549\n      jumpi\n        /* \"#utility.yul\":6169:6170   */\n      0x00\n        /* \"#utility.yul\":6166:6167   */\n      0x00\n        /* \"#utility.yul\":6159:6171   */\n      revert\n        /* \"#utility.yul\":6110:6173   */\n    tag_549:\n        /* \"#utility.yul\":6057:6179   */\n      pop\n      jump\t// out\n        /* \"#utility.yul\":6185:6324   */\n    tag_437:\n        /* \"#utility.yul\":6231:6236   */\n      0x00\n        /* \"#utility.yul\":6269:6275   */\n      dup2\n        /* \"#utility.yul\":6256:6276   */\n      calldataload\n        /* \"#utility.yul\":6247:6276   */\n      swap1\n      pop\n        /* \"#utility.yul\":6285:6318   */\n      tag_551\n        /* \"#utility.yul\":6312:6317   */\n      dup2\n        /* \"#utility.yul\":6285:6318   */\n      tag_436\n      jump\t// in\n    tag_551:\n        /* \"#utility.yul\":6185:6324   */\n      swap3\n      swap2\n      pop\n      pop\n      jump\t// out\n        /* \"#utility.yul\":6330:6804   */\n    tag_74:\n        /* \"#utility.yul\":6398:6404   */\n      0x00\n        /* \"#utility.yul\":6406:6412   */\n      0x00\n        /* \"#utility.yul\":6455:6457   */\n      0x40\n        /* \"#utility.yul\":6443:6452   */\n      dup4\n        /* \"#utility.yul\":6434:6441   */\n      dup6\n        /* \"#utility.yul\":6430:6453   */\n      sub\n        /* \"#utility.yul\":6426:6458   */\n      slt\n        /* \"#utility.yul\":6423:6542   */\n      iszero\n      tag_553\n      jumpi\n        /* \"#utility.yul\":6461:6540   */\n      tag_554\n      tag_417\n      jump\t// in\n    tag_554:\n        /* \"#utility.yul\":6423:6542   */\n    tag_553:\n        /* \"#utility.yul\":6581:6582   */\n      0x00\n        /* \"#utility.yul\":6606:6659   */\n      tag_555\n        /* \"#utility.yul\":6651:6658   */\n      dup6\n        /* \"#utility.yul\":6642:6648   */\n      dup3\n        /* \"#utility.yul\":6631:6640   */\n      dup7\n        /* \"#utility.yul\":6627:6649   */\n      add\n        /* \"#utility.yul\":6606:6659   */\n      tag_421\n      jump\t// in\n    tag_555:\n        /* \"#utility.yul\":6596:6659   */\n      swap3\n      pop\n        /* \"#utility.yul\":6552:6669   */\n      pop\n        /* \"#utility.yul\":6708:6710   */\n      0x20\n        /* \"#utility.yul\":6734:6787   */\n      tag_556\n        /* \"#utility.yul\":6779:6786   */\n      dup6\n        /* \"#utility.yul\":6770:6776   */\n      dup3\n        /* \"#utility.yul\":6759:6768   */\n      dup7\n        /* \"#utility.yul\":6755:6777   */\n      add\n        /* \"#utility.yul\":6734:6787   */\n      tag_437\n      jump\t// in\n    tag_556:\n        /* \"#utility.yul\":6724:6787   */\n      swap2\n      pop\n        /* \"#utility.yul\":6679:6797   */\n      pop\n        /* \"#utility.yul\":6330:6804   */\n      swap3\n      pop\n      swap3\n      swap1\n      pop\n      jump\t// out\n        /* \"#utility.yul\":6810:7020   */\n    tag_77:\n        /* \"#utility.yul\":6897:6901   */\n      0x00\n        /* \"#utility.yul\":6935:6937   */\n      0x20\n        /* \"#utility.yul\":6924:6933   */\n      dup3\n        /* \"#utility.yul\":6920:6938   */\n      add\n        /* \"#utility.yul\":6912:6938   */\n      swap1\n      pop\n        /* \"#utility.yul\":6948:7013   */\n      tag_558\n        /* \"#utility.yul\":7010:7011   */\n      0x00\n        /* \"#utility.yul\":6999:7008   */\n      dup4\n        /* \"#utility.yul\":6995:7012   */\n      add\n        /* \"#utility.yul\":6986:6992   */\n      dup5\n        /* \"#utility.yul\":6948:7013   */\n      tag_431\n      jump\t// in\n    tag_558:\n        /* \"#utility.yul\":6810:7020   */\n      swap3\n      swap2\n      pop\n      pop\n      jump\t// out\n        /* \"#utility.yul\":7026:7645   */\n    tag_81:\n        /* \"#utility.yul\":7103:7109   */\n      0x00\n        /* \"#utility.yul\":7111:7117   */\n      0x00\n        /* \"#utility.yul\":7119:7125   */\n      0x00\n        /* \"#utility.yul\":7168:7170   */\n      0x60\n        /* \"#utility.yul\":7156:7165   */\n      dup5\n        /* \"#utility.yul\":7147:7154   */\n      dup7\n        /* \"#utility.yul\":7143:7166   */\n      sub\n        /* \"#utility.yul\":7139:7171   */\n      slt\n        /* \"#utility.yul\":7136:7255   */\n      iszero\n      tag_560\n      jumpi\n        /* \"#utility.yul\":7174:7253   */\n      tag_561\n      tag_417\n      jump\t// in\n    tag_561:\n        /* \"#utility.yul\":7136:7255   */\n    tag_560:\n        /* \"#utility.yul\":7294:7295   */\n      0x00\n        /* \"#utility.yul\":7319:7372   */\n      tag_562\n        /* \"#utility.yul\":7364:7371   */\n      dup7\n        /* \"#utility.yul\":7355:7361   */\n      dup3\n        /* \"#utility.yul\":7344:7353   */\n      dup8\n        /* \"#utility.yul\":7340:7362   */\n      add\n        /* \"#utility.yul\":7319:7372   */\n      tag_421\n      jump\t// in\n    tag_562:\n        /* \"#utility.yul\":7309:7372   */\n      swap4\n      pop\n        /* \"#utility.yul\":7265:7382   */\n      pop\n        /* \"#utility.yul\":7421:7423   */\n      0x20\n        /* \"#utility.yul\":7447:7500   */\n      tag_563\n        /* \"#utility.yul\":7492:7499   */\n      dup7\n        /* \"#utility.yul\":7483:7489   */\n      dup3\n        /* \"#utility.yul\":7472:7481   */\n      dup8\n        /* \"#utility.yul\":7468:7490   */\n      add\n        /* \"#utility.yul\":7447:7500   */\n      tag_421\n      jump\t// in\n    tag_563:\n        /* \"#utility.yul\":7437:7500   */\n      swap3\n      pop\n        /* \"#utility.yul\":7392:7510   */\n      pop\n        /* \"#utility.yul\":7549:7551   */\n      0x40\n        /* \"#utility.yul\":7575:7628   */\n      tag_564\n        /* \"#utility.yul\":7620:7627   */\n      dup7\n        /* \"#utility.yul\":7611:7617   */\n      dup3\n        /* \"#utility.yul\":7600:7609   */\n      dup8\n        /* \"#utility.yul\":7596:7618   */\n      add\n        /* \"#utility.yul\":7575:7628   */\n      tag_421\n      jump\t// in\n    tag_564:\n        /* \"#utility.yul\":7565:7628   */\n      swap2\n      pop\n        /* \"#utility.yul\":7520:7638   */\n      pop\n        /* \"#utility.yul\":7026:7645   */\n      swap3\n      pop\n      swap3\n      pop\n      swap3\n      jump\t// out\n        /* \"#utility.yul\":7651:7711   */\n    tag_438:\n        /* \"#utility.yul\":7679:7682   */\n      0x00\n        /* \"#utility.yul\":7700:7705   */\n      dup2\n        /* \"#utility.yul\":7693:7705   */\n      swap1\n      pop\n        /* \"#utility.yul\":7651:7711   */\n      swap2\n      swap1\n      pop\n      jump\t// out\n        /* \"#utility.yul\":7717:7859   */\n    tag_439:\n        /* \"#utility.yul\":7767:7776   */\n      0x00\n        /* \"#utility.yul\":7800:7853   */\n      tag_567\n        /* \"#utility.yul\":7818:7852   */\n      tag_568\n        /* \"#utility.yul\":7827:7851   */\n      tag_569\n        /* \"#utility.yul\":7845:7850   */\n      dup5\n        /* \"#utility.yul\":7827:7851   */\n      tag_422\n      jump\t// in\n    tag_569:\n        /* \"#utility.yul\":7818:7852   */\n      tag_438\n      jump\t// in\n    tag_568:\n        /* \"#utility.yul\":7800:7853   */\n      tag_422\n      jump\t// in\n    tag_567:\n        /* \"#utility.yul\":7787:7853   */\n      swap1\n      pop\n        /* \"#utility.yul\":7717:7859   */\n      swap2\n      swap1\n      pop\n      jump\t// out\n        /* \"#utility.yul\":7865:7991   */\n    tag_440:\n        /* \"#utility.yul\":7915:7924   */\n      0x00\n        /* \"#utility.yul\":7948:7985   */\n      tag_571\n        /* \"#utility.yul\":7979:7984   */\n      dup3\n        /* \"#utility.yul\":7948:7985   */\n      tag_439\n      jump\t// in\n    tag_571:\n        /* \"#utility.yul\":7935:7985   */\n      swap1\n      pop\n        /* \"#utility.yul\":7865:7991   */\n      swap2\n      swap1\n      pop\n      jump\t// out\n        /* \"#utility.yul\":7997:8151   */\n    tag_441:\n        /* \"#utility.yul\":8075:8084   */\n      0x00\n        /* \"#utility.yul\":8108:8145   */\n      tag_573\n        /* \"#utility.yul\":8139:8144   */\n      dup3\n        /* \"#utility.yul\":8108:8145   */\n      tag_440\n      jump\t// in\n    tag_573:\n        /* \"#utility.yul\":8095:8145   */\n      swap1\n      pop\n        /* \"#utility.yul\":7997:8151   */\n      swap2\n      swap1\n      pop\n      jump\t// out\n        /* \"#utility.yul\":8157:8344   */\n    tag_442:\n        /* \"#utility.yul\":8272:8337   */\n      tag_575\n        /* \"#utility.yul\":8331:8336   */\n      dup2\n        /* \"#utility.yul\":8272:8337   */\n      tag_441\n      jump\t// in\n    tag_575:\n        /* \"#utility.yul\":8267:8270   */\n      dup3\n        /* \"#utility.yul\":8260:8338   */\n      mstore\n        /* \"#utility.yul\":8157:8344   */\n      pop\n      pop\n      jump\t// out\n        /* \"#utility.yul\":8350:8628   */\n    tag_87:\n        /* \"#utility.yul\":8471:8475   */\n      0x00\n        /* \"#utility.yul\":8509:8511   */\n      0x20\n        /* \"#utility.yul\":8498:8507   */\n      dup3\n        /* \"#utility.yul\":8494:8512   */\n      add\n        /* \"#utility.yul\":8486:8512   */\n      swap1\n      pop\n        /* \"#utility.yul\":8522:8621   */\n      tag_577\n        /* \"#utility.yul\":8618:8619   */\n      0x00\n        /* \"#utility.yul\":8607:8616   */\n      dup4\n        /* \"#utility.yul\":8603:8620   */\n      add\n        /* \"#utility.yul\":8594:8600   */\n      dup5\n        /* \"#utility.yul\":8522:8621   */\n      tag_442\n      jump\t// in\n    tag_577:\n        /* \"#utility.yul\":8350:8628   */\n      swap3\n      swap2\n      pop\n      pop\n      jump\t// out\n        /* \"#utility.yul\":8634:8856   */\n    tag_92:\n        /* \"#utility.yul\":8727:8731   */\n      0x00\n        /* \"#utility.yul\":8765:8767   */\n      0x20\n        /* \"#utility.yul\":8754:8763   */\n      dup3\n        /* \"#utility.yul\":8750:8768   */\n      add\n        /* \"#utility.yul\":8742:8768   */\n      swap1\n      pop\n        /* \"#utility.yul\":8778:8849   */\n      tag_579\n        /* \"#utility.yul\":8846:8847   */\n      0x00\n        /* \"#utility.yul\":8835:8844   */\n      dup4\n        /* \"#utility.yul\":8831:8848   */\n      add\n        /* \"#utility.yul\":8822:8828   */\n      dup5\n        /* \"#utility.yul\":8778:8849   */\n      tag_435\n      jump\t// in\n    tag_579:\n        /* \"#utility.yul\":8634:8856   */\n      swap3\n      swap2\n      pop\n      pop\n      jump\t// out\n        /* \"#utility.yul\":8862:9481   */\n    tag_102:\n        /* \"#utility.yul\":8939:8945   */\n      0x00\n        /* \"#utility.yul\":8947:8953   */\n      0x00\n        /* \"#utility.yul\":8955:8961   */\n      0x00\n        /* \"#utility.yul\":9004:9006   */\n      0x60\n        /* \"#utility.yul\":8992:9001   */\n      dup5\n        /* \"#utility.yul\":8983:8990   */\n      dup7\n        /* \"#utility.yul\":8979:9002   */\n      sub\n        /* \"#utility.yul\":8975:9007   */\n      slt\n        /* \"#utility.yul\":8972:9091   */\n      iszero\n      tag_581\n      jumpi\n        /* \"#utility.yul\":9010:9089   */\n      tag_582\n      tag_417\n      jump\t// in\n    tag_582:\n        /* \"#utility.yul\":8972:9091   */\n    tag_581:\n        /* \"#utility.yul\":9130:9131   */\n      0x00\n        /* \"#utility.yul\":9155:9208   */\n      tag_583\n        /* \"#utility.yul\":9200:9207   */\n      dup7\n        /* \"#utility.yul\":9191:9197   */\n      dup3\n        /* \"#utility.yul\":9180:9189   */\n      dup8\n        /* \"#utility.yul\":9176:9198   */\n      add\n        /* \"#utility.yul\":9155:9208   */\n      tag_437\n      jump\t// in\n    tag_583:\n        /* \"#utility.yul\":9145:9208   */\n      swap4\n      pop\n        /* \"#utility.yul\":9101:9218   */\n      pop\n        /* \"#utility.yul\":9257:9259   */\n      0x20\n        /* \"#utility.yul\":9283:9336   */\n      tag_584\n        /* \"#utility.yul\":9328:9335   */\n      dup7\n        /* \"#utility.yul\":9319:9325   */\n      dup3\n        /* \"#utility.yul\":9308:9317   */\n      dup8\n        /* \"#utility.yul\":9304:9326   */\n      add\n        /* \"#utility.yul\":9283:9336   */\n      tag_437\n      jump\t// in\n    tag_584:\n        /* \"#utility.yul\":9273:9336   */\n      swap3\n      pop\n        /* \"#utility.yul\":9228:9346   */\n      pop\n        /* \"#utility.yul\":9385:9387   */\n      0x40\n        /* \"#utility.yul\":9411:9464   */\n      tag_585\n        /* \"#utility.yul\":9456:9463   */\n      dup7\n        /* \"#utility.yul\":9447:9453   */\n      dup3\n        /* \"#utility.yul\":9436:9445   */\n      dup8\n        /* \"#utility.yul\":9432:9454   */\n      add\n        /* \"#utility.yul\":9411:9464   */\n      tag_437\n      jump\t// in\n    tag_585:\n        /* \"#utility.yul\":9401:9464   */\n      swap2\n      pop\n        /* \"#utility.yul\":9356:9474   */\n      pop\n        /* \"#utility.yul\":8862:9481   */\n      swap3\n      pop\n      swap3\n      pop\n      swap3\n      jump\t// out\n        /* \"#utility.yul\":9500:10052   */\n    tag_443:\n        /* \"#utility.yul\":9557:9565   */\n      0x00\n        /* \"#utility.yul\":9567:9573   */\n      0x00\n        /* \"#utility.yul\":9617:9620   */\n      dup4\n        /* \"#utility.yul\":9610:9614   */\n      0x1f\n        /* \"#utility.yul\":9602:9608   */\n      dup5\n        /* \"#utility.yul\":9598:9615   */\n      add\n        /* \"#utility.yul\":9594:9621   */\n      slt\n        /* \"#utility.yul\":9584:9706   */\n      tag_587\n      jumpi\n        /* \"#utility.yul\":9625:9704   */\n      tag_588\n      tag_426\n      jump\t// in\n    tag_588:\n        /* \"#utility.yul\":9584:9706   */\n    tag_587:\n        /* \"#utility.yul\":9738:9744   */\n      dup3\n        /* \"#utility.yul\":9725:9745   */\n      calldataload\n        /* \"#utility.yul\":9715:9745   */\n      swap1\n      pop\n        /* \"#utility.yul\":9768:9786   */\n      0xffffffffffffffff\n        /* \"#utility.yul\":9760:9766   */\n      dup2\n        /* \"#utility.yul\":9757:9787   */\n      gt\n        /* \"#utility.yul\":9754:9871   */\n      iszero\n      tag_589\n      jumpi\n        /* \"#utility.yul\":9790:9869   */\n      tag_590\n      tag_427\n      jump\t// in\n    tag_590:\n        /* \"#utility.yul\":9754:9871   */\n    tag_589:\n        /* \"#utility.yul\":9904:9908   */\n      0x20\n        /* \"#utility.yul\":9896:9902   */\n      dup4\n        /* \"#utility.yul\":9892:9909   */\n      add\n        /* \"#utility.yul\":9880:9909   */\n      swap2\n      pop\n        /* \"#utility.yul\":9958:9961   */\n      dup4\n        /* \"#utility.yul\":9950:9954   */\n      0x01\n        /* \"#utility.yul\":9942:9948   */\n      dup3\n        /* \"#utility.yul\":9938:9955   */\n      mul\n        /* \"#utility.yul\":9928:9936   */\n      dup4\n        /* \"#utility.yul\":9924:9956   */\n      add\n        /* \"#utility.yul\":9921:9962   */\n      gt\n        /* \"#utility.yul\":9918:10046   */\n      iszero\n      tag_591\n      jumpi\n        /* \"#utility.yul\":9965:10044   */\n      tag_592\n      tag_428\n      jump\t// in\n    tag_592:\n        /* \"#utility.yul\":9918:10046   */\n    tag_591:\n        /* \"#utility.yul\":9500:10052   */\n      swap3\n      pop\n      swap3\n      swap1\n      pop\n      jump\t// out\n        /* \"#utility.yul\":10058:10730   */\n    tag_114:\n        /* \"#utility.yul\":10137:10143   */\n      0x00\n        /* \"#utility.yul\":10145:10151   */\n      0x00\n        /* \"#utility.yul\":10153:10159   */\n      0x00\n        /* \"#utility.yul\":10202:10204   */\n      0x40\n        /* \"#utility.yul\":10190:10199   */\n      dup5\n        /* \"#utility.yul\":10181:10188   */\n      dup7\n        /* \"#utility.yul\":10177:10200   */\n      sub\n        /* \"#utility.yul\":10173:10205   */\n      slt\n        /* \"#utility.yul\":10170:10289   */\n      iszero\n      tag_594\n      jumpi\n        /* \"#utility.yul\":10208:10287   */\n      tag_595\n      tag_417\n      jump\t// in\n    tag_595:\n        /* \"#utility.yul\":10170:10289   */\n    tag_594:\n        /* \"#utility.yul\":10328:10329   */\n      0x00\n        /* \"#utility.yul\":10353:10406   */\n      tag_596\n        /* \"#utility.yul\":10398:10405   */\n      dup7\n        /* \"#utility.yul\":10389:10395   */\n      dup3\n        /* \"#utility.yul\":10378:10387   */\n      dup8\n        /* \"#utility.yul\":10374:10396   */\n      add\n        /* \"#utility.yul\":10353:10406   */\n      tag_421\n      jump\t// in\n    tag_596:\n        /* \"#utility.yul\":10343:10406   */\n      swap4\n      pop\n        /* \"#utility.yul\":10299:10416   */\n      pop\n        /* \"#utility.yul\":10483:10485   */\n      0x20\n        /* \"#utility.yul\":10472:10481   */\n      dup5\n        /* \"#utility.yul\":10468:10486   */\n      add\n        /* \"#utility.yul\":10455:10487   */\n      calldataload\n        /* \"#utility.yul\":10514:10532   */\n      0xffffffffffffffff\n        /* \"#utility.yul\":10506:10512   */\n      dup2\n        /* \"#utility.yul\":10503:10533   */\n      gt\n        /* \"#utility.yul\":10500:10617   */\n      iszero\n      tag_597\n      jumpi\n        /* \"#utility.yul\":10536:10615   */\n      tag_598\n      tag_418\n      jump\t// in\n    tag_598:\n        /* \"#utility.yul\":10500:10617   */\n    tag_597:\n        /* \"#utility.yul\":10649:10713   */\n      tag_599\n        /* \"#utility.yul\":10705:10712   */\n      dup7\n        /* \"#utility.yul\":10696:10702   */\n      dup3\n        /* \"#utility.yul\":10685:10694   */\n      dup8\n        /* \"#utility.yul\":10681:10703   */\n      add\n        /* \"#utility.yul\":10649:10713   */\n      tag_443\n      jump\t// in\n    tag_599:\n        /* \"#utility.yul\":10631:10713   */\n      swap3\n      pop\n      swap3\n      pop\n        /* \"#utility.yul\":10426:10723   */\n      pop\n        /* \"#utility.yul\":10058:10730   */\n      swap3\n      pop\n      swap3\n      pop\n      swap3\n      jump\t// out\n        /* \"#utility.yul\":10736:11210   */\n    tag_134:\n        /* \"#utility.yul\":10804:10810   */\n      0x00\n        /* \"#utility.yul\":10812:10818   */\n      0x00\n        /* \"#utility.yul\":10861:10863   */\n      0x40\n        /* \"#utility.yul\":10849:10858   */\n      dup4\n        /* \"#utility.yul\":10840:10847   */\n      dup6\n        /* \"#utility.yul\":10836:10859   */\n      sub\n        /* \"#utility.yul\":10832:10864   */\n      slt\n        /* \"#utility.yul\":10829:10948   */\n      iszero\n      tag_601\n      jumpi\n        /* \"#utility.yul\":10867:10946   */\n      tag_602\n      tag_417\n      jump\t// in\n    tag_602:\n        /* \"#utility.yul\":10829:10948   */\n    tag_601:\n        /* \"#utility.yul\":10987:10988   */\n      0x00\n        /* \"#utility.yul\":11012:11065   */\n      tag_603\n        /* \"#utility.yul\":11057:11064   */\n      dup6\n        /* \"#utility.yul\":11048:11054   */\n      dup3\n        /* \"#utility.yul\":11037:11046   */\n      dup7\n        /* \"#utility.yul\":11033:11055   */\n      add\n        /* \"#utility.yul\":11012:11065   */\n      tag_425\n      jump\t// in\n    tag_603:\n        /* \"#utility.yul\":11002:11065   */\n      swap3\n      pop\n        /* \"#utility.yul\":10958:11075   */\n      pop\n        /* \"#utility.yul\":11114:11116   */\n      0x20\n        /* \"#utility.yul\":11140:11193   */\n      tag_604\n        /* \"#utility.yul\":11185:11192   */\n      dup6\n        /* \"#utility.yul\":11176:11182   */\n      dup3\n        /* \"#utility.yul\":11165:11174   */\n      dup7\n        /* \"#utility.yul\":11161:11183   */\n      add\n        /* \"#utility.yul\":11140:11193   */\n      tag_421\n      jump\t// in\n    tag_604:\n        /* \"#utility.yul\":11130:11193   */\n      swap2\n      pop\n        /* \"#utility.yul\":11085:11203   */\n      pop\n        /* \"#utility.yul\":10736:11210   */\n      swap3\n      pop\n      swap3\n      swap1\n      pop\n      jump\t// out\n        /* \"#utility.yul\":11216:11438   */\n    tag_144:\n        /* \"#utility.yul\":11309:11313   */\n      0x00\n        /* \"#utility.yul\":11347:11349   */\n      0x20\n        /* \"#utility.yul\":11336:11345   */\n      dup3\n        /* \"#utility.yul\":11332:11350   */\n      add\n        /* \"#utility.yul\":11324:11350   */\n      swap1\n      pop\n        /* \"#utility.yul\":11360:11431   */\n      tag_606\n        /* \"#utility.yul\":11428:11429   */\n      0x00\n        /* \"#utility.yul\":11417:11426   */\n      dup4\n        /* \"#utility.yul\":11413:11430   */\n      add\n        /* \"#utility.yul\":11404:11410   */\n      dup5\n        /* \"#utility.yul\":11360:11431   */\n      tag_434\n      jump\t// in\n    tag_606:\n        /* \"#utility.yul\":11216:11438   */\n      swap3\n      swap2\n      pop\n      pop\n      jump\t// out\n        /* \"#utility.yul\":11444:11545   */\n    tag_444:\n        /* \"#utility.yul\":11480:11487   */\n      0x00\n        /* \"#utility.yul\":11520:11538   */\n      0xffffffffffffffff\n        /* \"#utility.yul\":11513:11518   */\n      dup3\n        /* \"#utility.yul\":11509:11539   */\n      and\n        /* \"#utility.yul\":11498:11539   */\n      swap1\n      pop\n        /* \"#utility.yul\":11444:11545   */\n      swap2\n      swap1\n      pop\n      jump\t// out\n        /* \"#utility.yul\":11551:11666   */\n    tag_445:\n        /* \"#utility.yul\":11636:11659   */\n      tag_609\n        /* \"#utility.yul\":11653:11658   */\n      dup2\n        /* \"#utility.yul\":11636:11659   */\n      tag_444\n      jump\t// in\n    tag_609:\n        /* \"#utility.yul\":11631:11634   */\n      dup3\n        /* \"#utility.yul\":11624:11660   */\n      mstore\n        /* \"#utility.yul\":11551:11666   */\n      pop\n      pop\n      jump\t// out\n        /* \"#utility.yul\":11672:12641   */\n    tag_150:\n        /* \"#utility.yul\":11947:11951   */\n      0x00\n        /* \"#utility.yul\":11985:11988   */\n      0x0100\n        /* \"#utility.yul\":11974:11983   */\n      dup3\n        /* \"#utility.yul\":11970:11989   */\n      add\n        /* \"#utility.yul\":11962:11989   */\n      swap1\n      pop\n        /* \"#utility.yul\":11999:12070   */\n      tag_611\n        /* \"#utility.yul\":12067:12068   */\n      0x00\n        /* \"#utility.yul\":12056:12065   */\n      dup4\n        /* \"#utility.yul\":12052:12069   */\n      add\n        /* \"#utility.yul\":12043:12049   */\n      dup12\n        /* \"#utility.yul\":11999:12070   */\n      tag_434\n      jump\t// in\n    tag_611:\n        /* \"#utility.yul\":12080:12152   */\n      tag_612\n        /* \"#utility.yul\":12148:12150   */\n      0x20\n        /* \"#utility.yul\":12137:12146   */\n      dup4\n        /* \"#utility.yul\":12133:12151   */\n      add\n        /* \"#utility.yul\":12124:12130   */\n      dup11\n        /* \"#utility.yul\":12080:12152   */\n      tag_434\n      jump\t// in\n    tag_612:\n        /* \"#utility.yul\":12162:12234   */\n      tag_613\n        /* \"#utility.yul\":12230:12232   */\n      0x40\n        /* \"#utility.yul\":12219:12228   */\n      dup4\n        /* \"#utility.yul\":12215:12233   */\n      add\n        /* \"#utility.yul\":12206:12212   */\n      dup10\n        /* \"#utility.yul\":12162:12234   */\n      tag_434\n      jump\t// in\n    tag_613:\n        /* \"#utility.yul\":12244:12316   */\n      tag_614\n        /* \"#utility.yul\":12312:12314   */\n      0x60\n        /* \"#utility.yul\":12301:12310   */\n      dup4\n        /* \"#utility.yul\":12297:12315   */\n      add\n        /* \"#utility.yul\":12288:12294   */\n      dup9\n        /* \"#utility.yul\":12244:12316   */\n      tag_434\n      jump\t// in\n    tag_614:\n        /* \"#utility.yul\":12326:12397   */\n      tag_615\n        /* \"#utility.yul\":12392:12395   */\n      0x80\n        /* \"#utility.yul\":12381:12390   */\n      dup4\n        /* \"#utility.yul\":12377:12396   */\n      add\n        /* \"#utility.yul\":12368:12374   */\n      dup8\n        /* \"#utility.yul\":12326:12397   */\n      tag_445\n      jump\t// in\n    tag_615:\n        /* \"#utility.yul\":12407:12474   */\n      tag_616\n        /* \"#utility.yul\":12469:12472   */\n      0xa0\n        /* \"#utility.yul\":12458:12467   */\n      dup4\n        /* \"#utility.yul\":12454:12473   */\n      add\n        /* \"#utility.yul\":12445:12451   */\n      dup7\n        /* \"#utility.yul\":12407:12474   */\n      tag_431\n      jump\t// in\n    tag_616:\n        /* \"#utility.yul\":12484:12551   */\n      tag_617\n        /* \"#utility.yul\":12546:12549   */\n      0xc0\n        /* \"#utility.yul\":12535:12544   */\n      dup4\n        /* \"#utility.yul\":12531:12550   */\n      add\n        /* \"#utility.yul\":12522:12528   */\n      dup6\n        /* \"#utility.yul\":12484:12551   */\n      tag_431\n      jump\t// in\n    tag_617:\n        /* \"#utility.yul\":12561:12634   */\n      tag_618\n        /* \"#utility.yul\":12629:12632   */\n      0xe0\n        /* \"#utility.yul\":12618:12627   */\n      dup4\n        /* \"#utility.yul\":12614:12633   */\n      add\n        /* \"#utility.yul\":12605:12611   */\n      dup5\n        /* \"#utility.yul\":12561:12634   */\n      tag_435\n      jump\t// in\n    tag_618:\n        /* \"#utility.yul\":11672:12641   */\n      swap10\n      swap9\n      pop\n      pop\n      pop\n      pop\n      pop\n      pop\n      pop\n      pop\n      pop\n      jump\t// out\n        /* \"#utility.yul\":12647:12741   */\n    tag_446:\n        /* \"#utility.yul\":12680:12688   */\n      0x00\n        /* \"#utility.yul\":12728:12733   */\n      dup2\n        /* \"#utility.yul\":12724:12726   */\n      0x60\n        /* \"#utility.yul\":12720:12734   */\n      shl\n        /* \"#utility.yul\":12699:12734   */\n      swap1\n      pop\n        /* \"#utility.yul\":12647:12741   */\n      swap2\n      swap1\n      pop\n      jump\t// out\n        /* \"#utility.yul\":12747:12841   */\n    tag_447:\n        /* \"#utility.yul\":12786:12793   */\n      0x00\n        /* \"#utility.yul\":12815:12835   */\n      tag_621\n        /* \"#utility.yul\":12829:12834   */\n      dup3\n        /* \"#utility.yul\":12815:12835   */\n      tag_446\n      jump\t// in\n    tag_621:\n        /* \"#utility.yul\":12804:12835   */\n      swap1\n      pop\n        /* \"#utility.yul\":12747:12841   */\n      swap2\n      swap1\n      pop\n      jump\t// out\n        /* \"#utility.yul\":12847:12947   */\n    tag_448:\n        /* \"#utility.yul\":12886:12893   */\n      0x00\n        /* \"#utility.yul\":12915:12941   */\n      tag_623\n        /* \"#utility.yul\":12935:12940   */\n      dup3\n        /* \"#utility.yul\":12915:12941   */\n      tag_447\n      jump\t// in\n    tag_623:\n        /* \"#utility.yul\":12904:12941   */\n      swap1\n      pop\n        /* \"#utility.yul\":12847:12947   */\n      swap2\n      swap1\n      pop\n      jump\t// out\n        /* \"#utility.yul\":12953:13110   */\n    tag_449:\n        /* \"#utility.yul\":13058:13103   */\n      tag_625\n        /* \"#utility.yul\":13078:13102   */\n      tag_626\n        /* \"#utility.yul\":13096:13101   */\n      dup3\n        /* \"#utility.yul\":13078:13102   */\n      tag_423\n      jump\t// in\n    tag_626:\n        /* \"#utility.yul\":13058:13103   */\n      tag_448\n      jump\t// in\n    tag_625:\n        /* \"#utility.yul\":13053:13056   */\n      dup3\n        /* \"#utility.yul\":13046:13104   */\n      mstore\n        /* \"#utility.yul\":12953:13110   */\n      pop\n      pop\n      jump\t// out\n        /* \"#utility.yul\":13116:13195   */\n    tag_450:\n        /* \"#utility.yul\":13155:13162   */\n      0x00\n        /* \"#utility.yul\":13184:13189   */\n      dup2\n        /* \"#utility.yul\":13173:13189   */\n      swap1\n      pop\n        /* \"#utility.yul\":13116:13195   */\n      swap2\n      swap1\n      pop\n      jump\t// out\n        /* \"#utility.yul\":13201:13358   */\n    tag_451:\n        /* \"#utility.yul\":13306:13351   */\n      tag_629\n        /* \"#utility.yul\":13326:13350   */\n      tag_630\n        /* \"#utility.yul\":13344:13349   */\n      dup3\n        /* \"#utility.yul\":13326:13350   */\n      tag_419\n      jump\t// in\n    tag_630:\n        /* \"#utility.yul\":13306:13351   */\n      tag_450\n      jump\t// in\n    tag_629:\n        /* \"#utility.yul\":13301:13304   */\n      dup3\n        /* \"#utility.yul\":13294:13352   */\n      mstore\n        /* \"#utility.yul\":13201:13358   */\n      pop\n      pop\n      jump\t// out\n        /* \"#utility.yul\":13364:14043   */\n    tag_185:\n        /* \"#utility.yul\":13560:13563   */\n      0x00\n        /* \"#utility.yul\":13575:13650   */\n      tag_632\n        /* \"#utility.yul\":13646:13649   */\n      dup3\n        /* \"#utility.yul\":13637:13643   */\n      dup8\n        /* \"#utility.yul\":13575:13650   */\n      tag_449\n      jump\t// in\n    tag_632:\n        /* \"#utility.yul\":13675:13677   */\n      0x14\n        /* \"#utility.yul\":13670:13673   */\n      dup3\n        /* \"#utility.yul\":13666:13678   */\n      add\n        /* \"#utility.yul\":13659:13678   */\n      swap2\n      pop\n        /* \"#utility.yul\":13688:13763   */\n      tag_633\n        /* \"#utility.yul\":13759:13762   */\n      dup3\n        /* \"#utility.yul\":13750:13756   */\n      dup7\n        /* \"#utility.yul\":13688:13763   */\n      tag_449\n      jump\t// in\n    tag_633:\n        /* \"#utility.yul\":13788:13790   */\n      0x14\n        /* \"#utility.yul\":13783:13786   */\n      dup3\n        /* \"#utility.yul\":13779:13791   */\n      add\n        /* \"#utility.yul\":13772:13791   */\n      swap2\n      pop\n        /* \"#utility.yul\":13801:13876   */\n      tag_634\n        /* \"#utility.yul\":13872:13875   */\n      dup3\n        /* \"#utility.yul\":13863:13869   */\n      dup6\n        /* \"#utility.yul\":13801:13876   */\n      tag_451\n      jump\t// in\n    tag_634:\n        /* \"#utility.yul\":13901:13903   */\n      0x20\n        /* \"#utility.yul\":13896:13899   */\n      dup3\n        /* \"#utility.yul\":13892:13904   */\n      add\n        /* \"#utility.yul\":13885:13904   */\n      swap2\n      pop\n        /* \"#utility.yul\":13914:13989   */\n      tag_635\n        /* \"#utility.yul\":13985:13988   */\n      dup3\n        /* \"#utility.yul\":13976:13982   */\n      dup5\n        /* \"#utility.yul\":13914:13989   */\n      tag_451\n      jump\t// in\n    tag_635:\n        /* \"#utility.yul\":14014:14016   */\n      0x20\n        /* \"#utility.yul\":14009:14012   */\n      dup3\n        /* \"#utility.yul\":14005:14017   */\n      add\n        /* \"#utility.yul\":13998:14017   */\n      swap2\n      pop\n        /* \"#utility.yul\":14034:14037   */\n      dup2\n        /* \"#utility.yul\":14027:14037   */\n      swap1\n      pop\n        /* \"#utility.yul\":13364:14043   */\n      swap6\n      swap5\n      pop\n      pop\n      pop\n      pop\n      pop\n      jump\t// out\n        /* \"#utility.yul\":14049:14196   */\n    tag_452:\n        /* \"#utility.yul\":14150:14161   */\n      0x00\n        /* \"#utility.yul\":14187:14190   */\n      dup2\n        /* \"#utility.yul\":14172:14190   */\n      swap1\n      pop\n        /* \"#utility.yul\":14049:14196   */\n      swap3\n      swap2\n      pop\n      pop\n      jump\t// out\n        /* \"#utility.yul\":14202:14316   */\n    tag_453:\n      pop\n      jump\t// out\n        /* \"#utility.yul\":14322:14720   */\n    tag_454:\n        /* \"#utility.yul\":14481:14484   */\n      0x00\n        /* \"#utility.yul\":14502:14585   */\n      tag_639\n        /* \"#utility.yul\":14583:14584   */\n      0x00\n        /* \"#utility.yul\":14578:14581   */\n      dup4\n        /* \"#utility.yul\":14502:14585   */\n      tag_452\n      jump\t// in\n    tag_639:\n        /* \"#utility.yul\":14495:14585   */\n      swap2\n      pop\n        /* \"#utility.yul\":14594:14687   */\n      tag_640\n        /* \"#utility.yul\":14683:14686   */\n      dup3\n        /* \"#utility.yul\":14594:14687   */\n      tag_453\n      jump\t// in\n    tag_640:\n        /* \"#utility.yul\":14712:14713   */\n      0x00\n        /* \"#utility.yul\":14707:14710   */\n      dup3\n        /* \"#utility.yul\":14703:14714   */\n      add\n        /* \"#utility.yul\":14696:14714   */\n      swap1\n      pop\n        /* \"#utility.yul\":14322:14720   */\n      swap2\n      swap1\n      pop\n      jump\t// out\n        /* \"#utility.yul\":14726:15105   */\n    tag_192:\n        /* \"#utility.yul\":14910:14913   */\n      0x00\n        /* \"#utility.yul\":14932:15079   */\n      tag_642\n        /* \"#utility.yul\":15075:15078   */\n      dup3\n        /* \"#utility.yul\":14932:15079   */\n      tag_454\n      jump\t// in\n    tag_642:\n        /* \"#utility.yul\":14925:15079   */\n      swap2\n      pop\n        /* \"#utility.yul\":15096:15099   */\n      dup2\n        /* \"#utility.yul\":15089:15099   */\n      swap1\n      pop\n        /* \"#utility.yul\":14726:15105   */\n      swap2\n      swap1\n      pop\n      jump\t// out\n        /* \"#utility.yul\":15111:15443   */\n    tag_201:\n        /* \"#utility.yul\":15232:15236   */\n      0x00\n        /* \"#utility.yul\":15270:15272   */\n      0x40\n        /* \"#utility.yul\":15259:15268   */\n      dup3\n        /* \"#utility.yul\":15255:15273   */\n      add\n        /* \"#utility.yul\":15247:15273   */\n      swap1\n      pop\n        /* \"#utility.yul\":15283:15354   */\n      tag_644\n        /* \"#utility.yul\":15351:15352   */\n      0x00\n        /* \"#utility.yul\":15340:15349   */\n      dup4\n        /* \"#utility.yul\":15336:15353   */\n      add\n        /* \"#utility.yul\":15327:15333   */\n      dup6\n        /* \"#utility.yul\":15283:15354   */\n      tag_432\n      jump\t// in\n    tag_644:\n        /* \"#utility.yul\":15364:15436   */\n      tag_645\n        /* \"#utility.yul\":15432:15434   */\n      0x20\n        /* \"#utility.yul\":15421:15430   */\n      dup4\n        /* \"#utility.yul\":15417:15435   */\n      add\n        /* \"#utility.yul\":15408:15414   */\n      dup5\n        /* \"#utility.yul\":15364:15436   */\n      tag_432\n      jump\t// in\n    tag_645:\n        /* \"#utility.yul\":15111:15443   */\n      swap4\n      swap3\n      pop\n      pop\n      pop\n      jump\t// out\n        /* \"#utility.yul\":15449:15629   */\n    tag_455:\n        /* \"#utility.yul\":15497:15574   */\n      0x4e487b7100000000000000000000000000000000000000000000000000000000\n        /* \"#utility.yul\":15494:15495   */\n      0x00\n        /* \"#utility.yul\":15487:15575   */\n      mstore\n        /* \"#utility.yul\":15594:15598   */\n      0x11\n        /* \"#utility.yul\":15591:15592   */\n      0x04\n        /* \"#utility.yul\":15584:15599   */\n      mstore\n        /* \"#utility.yul\":15618:15622   */\n      0x24\n        /* \"#utility.yul\":15615:15616   */\n      0x00\n        /* \"#utility.yul\":15608:15623   */\n      revert\n        /* \"#utility.yul\":15635:15826   */\n    tag_207:\n        /* \"#utility.yul\":15675:15678   */\n      0x00\n        /* \"#utility.yul\":15694:15714   */\n      tag_648\n        /* \"#utility.yul\":15712:15713   */\n      dup3\n        /* \"#utility.yul\":15694:15714   */\n      tag_419\n      jump\t// in\n    tag_648:\n        /* \"#utility.yul\":15689:15714   */\n      swap2\n      pop\n        /* \"#utility.yul\":15728:15748   */\n      tag_649\n        /* \"#utility.yul\":15746:15747   */\n      dup4\n        /* \"#utility.yul\":15728:15748   */\n      tag_419\n      jump\t// in\n    tag_649:\n        /* \"#utility.yul\":15723:15748   */\n      swap3\n      pop\n        /* \"#utility.yul\":15771:15772   */\n      dup3\n        /* \"#utility.yul\":15768:15769   */\n      dup3\n        /* \"#utility.yul\":15764:15773   */\n      add\n        /* \"#utility.yul\":15757:15773   */\n      swap1\n      pop\n        /* \"#utility.yul\":15792:15795   */\n      dup1\n        /* \"#utility.yul\":15789:15790   */\n      dup3\n        /* \"#utility.yul\":15786:15796   */\n      gt\n        /* \"#utility.yul\":15783:15819   */\n      iszero\n      tag_650\n      jumpi\n        /* \"#utility.yul\":15799:15817   */\n      tag_651\n      tag_455\n      jump\t// in\n    tag_651:\n        /* \"#utility.yul\":15783:15819   */\n    tag_650:\n        /* \"#utility.yul\":15635:15826   */\n      swap3\n      swap2\n      pop\n      pop\n      jump\t// out\n        /* \"#utility.yul\":15832:16001   */\n    tag_456:\n        /* \"#utility.yul\":15916:15927   */\n      0x00\n        /* \"#utility.yul\":15950:15956   */\n      dup3\n        /* \"#utility.yul\":15945:15948   */\n      dup3\n        /* \"#utility.yul\":15938:15957   */\n      mstore\n        /* \"#utility.yul\":15990:15994   */\n      0x20\n        /* \"#utility.yul\":15985:15988   */\n      dup3\n        /* \"#utility.yul\":15981:15995   */\n      add\n        /* \"#utility.yul\":15966:15995   */\n      swap1\n      pop\n        /* \"#utility.yul\":15832:16001   */\n      swap3\n      swap2\n      pop\n      pop\n      jump\t// out\n        /* \"#utility.yul\":16007:16166   */\n    tag_457:\n        /* \"#utility.yul\":16147:16158   */\n      0x5a45524f5f414444520000000000000000000000000000000000000000000000\n        /* \"#utility.yul\":16143:16144   */\n      0x00\n        /* \"#utility.yul\":16135:16141   */\n      dup3\n        /* \"#utility.yul\":16131:16145   */\n      add\n        /* \"#utility.yul\":16124:16159   */\n      mstore\n        /* \"#utility.yul\":16007:16166   */\n      pop\n      jump\t// out\n        /* \"#utility.yul\":16172:16537   */\n    tag_458:\n        /* \"#utility.yul\":16314:16317   */\n      0x00\n        /* \"#utility.yul\":16335:16401   */\n      tag_655\n        /* \"#utility.yul\":16399:16400   */\n      0x09\n        /* \"#utility.yul\":16394:16397   */\n      dup4\n        /* \"#utility.yul\":16335:16401   */\n      tag_456\n      jump\t// in\n    tag_655:\n        /* \"#utility.yul\":16328:16401   */\n      swap2\n      pop\n        /* \"#utility.yul\":16410:16503   */\n      tag_656\n        /* \"#utility.yul\":16499:16502   */\n      dup3\n        /* \"#utility.yul\":16410:16503   */\n      tag_457\n      jump\t// in\n    tag_656:\n        /* \"#utility.yul\":16528:16530   */\n      0x20\n        /* \"#utility.yul\":16523:16526   */\n      dup3\n        /* \"#utility.yul\":16519:16531   */\n      add\n        /* \"#utility.yul\":16512:16531   */\n      swap1\n      pop\n        /* \"#utility.yul\":16172:16537   */\n      swap2\n      swap1\n      pop\n      jump\t// out\n        /* \"#utility.yul\":16543:16962   */\n    tag_215:\n        /* \"#utility.yul\":16709:16713   */\n      0x00\n        /* \"#utility.yul\":16747:16749   */\n      0x20\n        /* \"#utility.yul\":16736:16745   */\n      dup3\n        /* \"#utility.yul\":16732:16750   */\n      add\n        /* \"#utility.yul\":16724:16750   */\n      swap1\n      pop\n        /* \"#utility.yul\":16796:16805   */\n      dup2\n        /* \"#utility.yul\":16790:16794   */\n      dup2\n        /* \"#utility.yul\":16786:16806   */\n      sub\n        /* \"#utility.yul\":16782:16783   */\n      0x00\n        /* \"#utility.yul\":16771:16780   */\n      dup4\n        /* \"#utility.yul\":16767:16784   */\n      add\n        /* \"#utility.yul\":16760:16807   */\n      mstore\n        /* \"#utility.yul\":16824:16955   */\n      tag_658\n        /* \"#utility.yul\":16950:16954   */\n      dup2\n        /* \"#utility.yul\":16824:16955   */\n      tag_458\n      jump\t// in\n    tag_658:\n        /* \"#utility.yul\":16816:16955   */\n      swap1\n      pop\n        /* \"#utility.yul\":16543:16962   */\n      swap2\n      swap1\n      pop\n      jump\t// out\n        /* \"#utility.yul\":16968:17135   */\n    tag_459:\n        /* \"#utility.yul\":17108:17127   */\n      0x494e53554646494349454e545f424f4e44000000000000000000000000000000\n        /* \"#utility.yul\":17104:17105   */\n      0x00\n        /* \"#utility.yul\":17096:17102   */\n      dup3\n        /* \"#utility.yul\":17092:17106   */\n      add\n        /* \"#utility.yul\":17085:17128   */\n      mstore\n        /* \"#utility.yul\":16968:17135   */\n      pop\n      jump\t// out\n        /* \"#utility.yul\":17141:17507   */\n    tag_460:\n        /* \"#utility.yul\":17283:17286   */\n      0x00\n        /* \"#utility.yul\":17304:17371   */\n      tag_661\n        /* \"#utility.yul\":17368:17370   */\n      0x11\n        /* \"#utility.yul\":17363:17366   */\n      dup4\n        /* \"#utility.yul\":17304:17371   */\n      tag_456\n      jump\t// in\n    tag_661:\n        /* \"#utility.yul\":17297:17371   */\n      swap2\n      pop\n        /* \"#utility.yul\":17380:17473   */\n      tag_662\n        /* \"#utility.yul\":17469:17472   */\n      dup3\n        /* \"#utility.yul\":17380:17473   */\n      tag_459\n      jump\t// in\n    tag_662:\n        /* \"#utility.yul\":17498:17500   */\n      0x20\n        /* \"#utility.yul\":17493:17496   */\n      dup3\n        /* \"#utility.yul\":17489:17501   */\n      add\n        /* \"#utility.yul\":17482:17501   */\n      swap1\n      pop\n        /* \"#utility.yul\":17141:17507   */\n      swap2\n      swap1\n      pop\n      jump\t// out\n        /* \"#utility.yul\":17513:17932   */\n    tag_223:\n        /* \"#utility.yul\":17679:17683   */\n      0x00\n        /* \"#utility.yul\":17717:17719   */\n      0x20\n        /* \"#utility.yul\":17706:17715   */\n      dup3\n        /* \"#utility.yul\":17702:17720   */\n      add\n        /* \"#utility.yul\":17694:17720   */\n      swap1\n      pop\n        /* \"#utility.yul\":17766:17775   */\n      dup2\n        /* \"#utility.yul\":17760:17764   */\n      dup2\n        /* \"#utility.yul\":17756:17776   */\n      sub\n        /* \"#utility.yul\":17752:17753   */\n      0x00\n        /* \"#utility.yul\":17741:17750   */\n      dup4\n        /* \"#utility.yul\":17737:17754   */\n      add\n        /* \"#utility.yul\":17730:17777   */\n      mstore\n        /* \"#utility.yul\":17794:17925   */\n      tag_664\n        /* \"#utility.yul\":17920:17924   */\n      dup2\n        /* \"#utility.yul\":17794:17925   */\n      tag_460\n      jump\t// in\n    tag_664:\n        /* \"#utility.yul\":17786:17925   */\n      swap1\n      pop\n        /* \"#utility.yul\":17513:17932   */\n      swap2\n      swap1\n      pop\n      jump\t// out\n        /* \"#utility.yul\":17938:18132   */\n    tag_225:\n        /* \"#utility.yul\":17978:17982   */\n      0x00\n        /* \"#utility.yul\":17998:18018   */\n      tag_666\n        /* \"#utility.yul\":18016:18017   */\n      dup3\n        /* \"#utility.yul\":17998:18018   */\n      tag_419\n      jump\t// in\n    tag_666:\n        /* \"#utility.yul\":17993:18018   */\n      swap2\n      pop\n        /* \"#utility.yul\":18032:18052   */\n      tag_667\n        /* \"#utility.yul\":18050:18051   */\n      dup4\n        /* \"#utility.yul\":18032:18052   */\n      tag_419\n      jump\t// in\n    tag_667:\n        /* \"#utility.yul\":18027:18052   */\n      swap3\n      pop\n        /* \"#utility.yul\":18076:18077   */\n      dup3\n        /* \"#utility.yul\":18073:18074   */\n      dup3\n        /* \"#utility.yul\":18069:18078   */\n      sub\n        /* \"#utility.yul\":18061:18078   */\n      swap1\n      pop\n        /* \"#utility.yul\":18100:18101   */\n      dup2\n        /* \"#utility.yul\":18094:18098   */\n      dup2\n        /* \"#utility.yul\":18091:18102   */\n      gt\n        /* \"#utility.yul\":18088:18125   */\n      iszero\n      tag_668\n      jumpi\n        /* \"#utility.yul\":18105:18123   */\n      tag_669\n      tag_455\n      jump\t// in\n    tag_669:\n        /* \"#utility.yul\":18088:18125   */\n    tag_668:\n        /* \"#utility.yul\":17938:18132   */\n      swap3\n      swap2\n      pop\n      pop\n      jump\t// out\n        /* \"#utility.yul\":18138:18580   */\n    tag_242:\n        /* \"#utility.yul\":18287:18291   */\n      0x00\n        /* \"#utility.yul\":18325:18327   */\n      0x60\n        /* \"#utility.yul\":18314:18323   */\n      dup3\n        /* \"#utility.yul\":18310:18328   */\n      add\n        /* \"#utility.yul\":18302:18328   */\n      swap1\n      pop\n        /* \"#utility.yul\":18338:18409   */\n      tag_671\n        /* \"#utility.yul\":18406:18407   */\n      0x00\n        /* \"#utility.yul\":18395:18404   */\n      dup4\n        /* \"#utility.yul\":18391:18408   */\n      add\n        /* \"#utility.yul\":18382:18388   */\n      dup7\n        /* \"#utility.yul\":18338:18409   */\n      tag_432\n      jump\t// in\n    tag_671:\n        /* \"#utility.yul\":18419:18491   */\n      tag_672\n        /* \"#utility.yul\":18487:18489   */\n      0x20\n        /* \"#utility.yul\":18476:18485   */\n      dup4\n        /* \"#utility.yul\":18472:18490   */\n      add\n        /* \"#utility.yul\":18463:18469   */\n      dup6\n        /* \"#utility.yul\":18419:18491   */\n      tag_432\n      jump\t// in\n    tag_672:\n        /* \"#utility.yul\":18501:18573   */\n      tag_673\n        /* \"#utility.yul\":18569:18571   */\n      0x40\n        /* \"#utility.yul\":18558:18567   */\n      dup4\n        /* \"#utility.yul\":18554:18572   */\n      add\n        /* \"#utility.yul\":18545:18551   */\n      dup5\n        /* \"#utility.yul\":18501:18573   */\n      tag_432\n      jump\t// in\n    tag_673:\n        /* \"#utility.yul\":18138:18580   */\n      swap5\n      swap4\n      pop\n      pop\n      pop\n      pop\n      jump\t// out\n        /* \"#utility.yul\":18586:18754   */\n    tag_461:\n        /* \"#utility.yul\":18726:18746   */\n      0x53455155454e4345525f424f4e445f4c4f570000000000000000000000000000\n        /* \"#utility.yul\":18722:18723   */\n      0x00\n        /* \"#utility.yul\":18714:18720   */\n      dup3\n        /* \"#utility.yul\":18710:18724   */\n      add\n        /* \"#utility.yul\":18703:18747   */\n      mstore\n        /* \"#utility.yul\":18586:18754   */\n      pop\n      jump\t// out\n        /* \"#utility.yul\":18760:19126   */\n    tag_462:\n        /* \"#utility.yul\":18902:18905   */\n      0x00\n        /* \"#utility.yul\":18923:18990   */\n      tag_676\n        /* \"#utility.yul\":18987:18989   */\n      0x12\n        /* \"#utility.yul\":18982:18985   */\n      dup4\n        /* \"#utility.yul\":18923:18990   */\n      tag_456\n      jump\t// in\n    tag_676:\n        /* \"#utility.yul\":18916:18990   */\n      swap2\n      pop\n        /* \"#utility.yul\":18999:19092   */\n      tag_677\n        /* \"#utility.yul\":19088:19091   */\n      dup3\n        /* \"#utility.yul\":18999:19092   */\n      tag_461\n      jump\t// in\n    tag_677:\n        /* \"#utility.yul\":19117:19119   */\n      0x20\n        /* \"#utility.yul\":19112:19115   */\n      dup3\n        /* \"#utility.yul\":19108:19120   */\n      add\n        /* \"#utility.yul\":19101:19120   */\n      swap1\n      pop\n        /* \"#utility.yul\":18760:19126   */\n      swap2\n      swap1\n      pop\n      jump\t// out\n        /* \"#utility.yul\":19132:19551   */\n    tag_257:\n        /* \"#utility.yul\":19298:19302   */\n      0x00\n        /* \"#utility.yul\":19336:19338   */\n      0x20\n        /* \"#utility.yul\":19325:19334   */\n      dup3\n        /* \"#utility.yul\":19321:19339   */\n      add\n        /* \"#utility.yul\":19313:19339   */\n      swap1\n      pop\n        /* \"#utility.yul\":19385:19394   */\n      dup2\n        /* \"#utility.yul\":19379:19383   */\n      dup2\n        /* \"#utility.yul\":19375:19395   */\n      sub\n        /* \"#utility.yul\":19371:19372   */\n      0x00\n        /* \"#utility.yul\":19360:19369   */\n      dup4\n        /* \"#utility.yul\":19356:19373   */\n      add\n        /* \"#utility.yul\":19349:19396   */\n      mstore\n        /* \"#utility.yul\":19413:19544   */\n      tag_679\n        /* \"#utility.yul\":19539:19543   */\n      dup2\n        /* \"#utility.yul\":19413:19544   */\n      tag_462\n      jump\t// in\n    tag_679:\n        /* \"#utility.yul\":19405:19544   */\n      swap1\n      pop\n        /* \"#utility.yul\":19132:19551   */\n      swap2\n      swap1\n      pop\n      jump\t// out\n        /* \"#utility.yul\":19557:19790   */\n    tag_261:\n        /* \"#utility.yul\":19596:19599   */\n      0x00\n        /* \"#utility.yul\":19619:19643   */\n      tag_681\n        /* \"#utility.yul\":19637:19642   */\n      dup3\n        /* \"#utility.yul\":19619:19643   */\n      tag_419\n      jump\t// in\n    tag_681:\n        /* \"#utility.yul\":19610:19643   */\n      swap2\n      pop\n        /* \"#utility.yul\":19665:19731   */\n      0xffffffffffffffffffffffffffffffffffffffffffffffffffffffffffffffff\n        /* \"#utility.yul\":19658:19663   */\n      dup3\n        /* \"#utility.yul\":19655:19732   */\n      sub\n        /* \"#utility.yul\":19652:19755   */\n      tag_682\n      jumpi\n        /* \"#utility.yul\":19735:19753   */\n      tag_683\n      tag_455\n      jump\t// in\n    tag_683:\n        /* \"#utility.yul\":19652:19755   */\n    tag_682:\n        /* \"#utility.yul\":19782:19783   */\n      0x01\n        /* \"#utility.yul\":19775:19780   */\n      dup3\n        /* \"#utility.yul\":19771:19784   */\n      add\n        /* \"#utility.yul\":19764:19784   */\n      swap1\n      pop\n        /* \"#utility.yul\":19557:19790   */\n      swap2\n      swap1\n      pop\n      jump\t// out\n        /* \"#utility.yul\":19796:20128   */\n    tag_263:\n        /* \"#utility.yul\":19917:19921   */\n      0x00\n        /* \"#utility.yul\":19955:19957   */\n      0x40\n        /* \"#utility.yul\":19944:19953   */\n      dup3\n        /* \"#utility.yul\":19940:19958   */\n      add\n        /* \"#utility.yul\":19932:19958   */\n      swap1\n      pop\n        /* \"#utility.yul\":19968:20039   */\n      tag_685\n        /* \"#utility.yul\":20036:20037   */\n      0x00\n        /* \"#utility.yul\":20025:20034   */\n      dup4\n        /* \"#utility.yul\":20021:20038   */\n      add\n        /* \"#utility.yul\":20012:20018   */\n      dup6\n        /* \"#utility.yul\":19968:20039   */\n      tag_434\n      jump\t// in\n    tag_685:\n        /* \"#utility.yul\":20049:20121   */\n      tag_686\n        /* \"#utility.yul\":20117:20119   */\n      0x20\n        /* \"#utility.yul\":20106:20115   */\n      dup4\n        /* \"#utility.yul\":20102:20120   */\n      add\n        /* \"#utility.yul\":20093:20099   */\n      dup5\n        /* \"#utility.yul\":20049:20121   */\n      tag_434\n      jump\t// in\n    tag_686:\n        /* \"#utility.yul\":19796:20128   */\n      swap4\n      swap3\n      pop\n      pop\n      pop\n      jump\t// out\n        /* \"#utility.yul\":20134:20302   */\n    tag_463:\n        /* \"#utility.yul\":20217:20228   */\n      0x00\n        /* \"#utility.yul\":20251:20257   */\n      dup3\n        /* \"#utility.yul\":20246:20249   */\n      dup3\n        /* \"#utility.yul\":20239:20258   */\n      mstore\n        /* \"#utility.yul\":20291:20295   */\n      0x20\n        /* \"#utility.yul\":20286:20289   */\n      dup3\n        /* \"#utility.yul\":20282:20296   */\n      add\n        /* \"#utility.yul\":20267:20296   */\n      swap1\n      pop\n        /* \"#utility.yul\":20134:20302   */\n      swap3\n      swap2\n      pop\n      pop\n      jump\t// out\n        /* \"#utility.yul\":20308:20456   */\n    tag_464:\n        /* \"#utility.yul\":20406:20412   */\n      dup3\n        /* \"#utility.yul\":20401:20404   */\n      dup2\n        /* \"#utility.yul\":20396:20399   */\n      dup4\n        /* \"#utility.yul\":20383:20413   */\n      calldatacopy\n        /* \"#utility.yul\":20447:20448   */\n      0x00\n        /* \"#utility.yul\":20438:20444   */\n      dup4\n        /* \"#utility.yul\":20433:20436   */\n      dup4\n        /* \"#utility.yul\":20429:20445   */\n      add\n        /* \"#utility.yul\":20422:20449   */\n      mstore\n        /* \"#utility.yul\":20308:20456   */\n      pop\n      pop\n      pop\n      jump\t// out\n        /* \"#utility.yul\":20462:20564   */\n    tag_465:\n        /* \"#utility.yul\":20503:20509   */\n      0x00\n        /* \"#utility.yul\":20554:20556   */\n      0x1f\n        /* \"#utility.yul\":20550:20557   */\n      not\n        /* \"#utility.yul\":20545:20547   */\n      0x1f\n        /* \"#utility.yul\":20538:20543   */\n      dup4\n        /* \"#utility.yul\":20534:20548   */\n      add\n        /* \"#utility.yul\":20530:20558   */\n      and\n        /* \"#utility.yul\":20520:20558   */\n      swap1\n      pop\n        /* \"#utility.yul\":20462:20564   */\n      swap2\n      swap1\n      pop\n      jump\t// out\n        /* \"#utility.yul\":20592:20906   */\n    tag_466:\n        /* \"#utility.yul\":20688:20691   */\n      0x00\n        /* \"#utility.yul\":20709:20779   */\n      tag_691\n        /* \"#utility.yul\":20772:20778   */\n      dup4\n        /* \"#utility.yul\":20767:20770   */\n      dup6\n        /* \"#utility.yul\":20709:20779   */\n      tag_463\n      jump\t// in\n    tag_691:\n        /* \"#utility.yul\":20702:20779   */\n      swap4\n      pop\n        /* \"#utility.yul\":20789:20845   */\n      tag_692\n        /* \"#utility.yul\":20838:20844   */\n      dup4\n        /* \"#utility.yul\":20833:20836   */\n      dup6\n        /* \"#utility.yul\":20826:20831   */\n      dup5\n        /* \"#utility.yul\":20789:20845   */\n      tag_464\n      jump\t// in\n    tag_692:\n        /* \"#utility.yul\":20870:20899   */\n      tag_693\n        /* \"#utility.yul\":20892:20898   */\n      dup4\n        /* \"#utility.yul\":20870:20899   */\n      tag_465\n      jump\t// in\n    tag_693:\n        /* \"#utility.yul\":20865:20868   */\n      dup5\n        /* \"#utility.yul\":20861:20900   */\n      add\n        /* \"#utility.yul\":20854:20900   */\n      swap1\n      pop\n        /* \"#utility.yul\":20592:20906   */\n      swap4\n      swap3\n      pop\n      pop\n      pop\n      jump\t// out\n        /* \"#utility.yul\":20912:21572   */\n    tag_280:\n        /* \"#utility.yul\":21117:21121   */\n      0x00\n        /* \"#utility.yul\":21155:21158   */\n      0x80\n        /* \"#utility.yul\":21144:21153   */\n      dup3\n        /* \"#utility.yul\":21140:21159   */\n      add\n        /* \"#utility.yul\":21132:21159   */\n      swap1\n      pop\n        /* \"#utility.yul\":21205:21214   */\n      dup2\n        /* \"#utility.yul\":21199:21203   */\n      dup2\n        /* \"#utility.yul\":21195:21215   */\n      sub\n        /* \"#utility.yul\":21191:21192   */\n      0x00\n        /* \"#utility.yul\":21180:21189   */\n      dup4\n        /* \"#utility.yul\":21176:21193   */\n      add\n        /* \"#utility.yul\":21169:21216   */\n      mstore\n        /* \"#utility.yul\":21233:21319   */\n      tag_695\n        /* \"#utility.yul\":21314:21318   */\n      dup2\n        /* \"#utility.yul\":21305:21311   */\n      dup8\n        /* \"#utility.yul\":21297:21303   */\n      dup10\n        /* \"#utility.yul\":21233:21319   */\n      tag_466\n      jump\t// in\n    tag_695:\n        /* \"#utility.yul\":21225:21319   */\n      swap1\n      pop\n        /* \"#utility.yul\":21329:21401   */\n      tag_696\n        /* \"#utility.yul\":21397:21399   */\n      0x20\n        /* \"#utility.yul\":21386:21395   */\n      dup4\n        /* \"#utility.yul\":21382:21400   */\n      add\n        /* \"#utility.yul\":21373:21379   */\n      dup7\n        /* \"#utility.yul\":21329:21401   */\n      tag_434\n      jump\t// in\n    tag_696:\n        /* \"#utility.yul\":21411:21483   */\n      tag_697\n        /* \"#utility.yul\":21479:21481   */\n      0x40\n        /* \"#utility.yul\":21468:21477   */\n      dup4\n        /* \"#utility.yul\":21464:21482   */\n      add\n        /* \"#utility.yul\":21455:21461   */\n      dup6\n        /* \"#utility.yul\":21411:21483   */\n      tag_434\n      jump\t// in\n    tag_697:\n        /* \"#utility.yul\":21493:21565   */\n      tag_698\n        /* \"#utility.yul\":21561:21563   */\n      0x60\n        /* \"#utility.yul\":21550:21559   */\n      dup4\n        /* \"#utility.yul\":21546:21564   */\n      add\n        /* \"#utility.yul\":21537:21543   */\n      dup5\n        /* \"#utility.yul\":21493:21565   */\n      tag_434\n      jump\t// in\n    tag_698:\n        /* \"#utility.yul\":20912:21572   */\n      swap7\n      swap6\n      pop\n      pop\n      pop\n      pop\n      pop\n      pop\n      jump\t// out\n        /* \"#utility.yul\":21578:21694   */\n    tag_467:\n        /* \"#utility.yul\":21648:21669   */\n      tag_700\n        /* \"#utility.yul\":21663:21668   */\n      dup2\n        /* \"#utility.yul\":21648:21669   */\n      tag_430\n      jump\t// in\n    tag_700:\n        /* \"#utility.yul\":21641:21646   */\n      dup2\n        /* \"#utility.yul\":21638:21670   */\n      eq\n        /* \"#utility.yul\":21628:21688   */\n      tag_701\n      jumpi\n        /* \"#utility.yul\":21684:21685   */\n      0x00\n        /* \"#utility.yul\":21681:21682   */\n      0x00\n        /* \"#utility.yul\":21674:21686   */\n      revert\n        /* \"#utility.yul\":21628:21688   */\n    tag_701:\n        /* \"#utility.yul\":21578:21694   */\n      pop\n      jump\t// out\n        /* \"#utility.yul\":21700:21837   */\n    tag_468:\n        /* \"#utility.yul\":21754:21759   */\n      0x00\n        /* \"#utility.yul\":21785:21791   */\n      dup2\n        /* \"#utility.yul\":21779:21792   */\n      mload\n        /* \"#utility.yul\":21770:21792   */\n      swap1\n      pop\n        /* \"#utility.yul\":21801:21831   */\n      tag_703\n        /* \"#utility.yul\":21825:21830   */\n      dup2\n        /* \"#utility.yul\":21801:21831   */\n      tag_467\n      jump\t// in\n    tag_703:\n        /* \"#utility.yul\":21700:21837   */\n      swap3\n      swap2\n      pop\n      pop\n      jump\t// out\n        /* \"#utility.yul\":21843:22188   */\n    tag_284:\n        /* \"#utility.yul\":21910:21916   */\n      0x00\n        /* \"#utility.yul\":21959:21961   */\n      0x20\n        /* \"#utility.yul\":21947:21956   */\n      dup3\n        /* \"#utility.yul\":21938:21945   */\n      dup5\n        /* \"#utility.yul\":21934:21957   */\n      sub\n        /* \"#utility.yul\":21930:21962   */\n      slt\n        /* \"#utility.yul\":21927:22046   */\n      iszero\n      tag_705\n      jumpi\n        /* \"#utility.yul\":21965:22044   */\n      tag_706\n      tag_417\n      jump\t// in\n    tag_706:\n        /* \"#utility.yul\":21927:22046   */\n    tag_705:\n        /* \"#utility.yul\":22085:22086   */\n      0x00\n        /* \"#utility.yul\":22110:22171   */\n      tag_707\n        /* \"#utility.yul\":22163:22170   */\n      dup5\n        /* \"#utility.yul\":22154:22160   */\n      dup3\n        /* \"#utility.yul\":22143:22152   */\n      dup6\n        /* \"#utility.yul\":22139:22161   */\n      add\n        /* \"#utility.yul\":22110:22171   */\n      tag_468\n      jump\t// in\n    tag_707:\n        /* \"#utility.yul\":22100:22171   */\n      swap2\n      pop\n        /* \"#utility.yul\":22056:22181   */\n      pop\n        /* \"#utility.yul\":21843:22188   */\n      swap3\n      swap2\n      pop\n      pop\n      jump\t// out\n        /* \"#utility.yul\":22194:22374   */\n    tag_469:\n        /* \"#utility.yul\":22242:22319   */\n      0x4e487b7100000000000000000000000000000000000000000000000000000000\n        /* \"#utility.yul\":22239:22240   */\n      0x00\n        /* \"#utility.yul\":22232:22320   */\n      mstore\n        /* \"#utility.yul\":22339:22343   */\n      0x12\n        /* \"#utility.yul\":22336:22337   */\n      0x04\n        /* \"#utility.yul\":22329:22344   */\n      mstore\n        /* \"#utility.yul\":22363:22367   */\n      0x24\n        /* \"#utility.yul\":22360:22361   */\n      0x00\n        /* \"#utility.yul\":22353:22368   */\n      revert\n        /* \"#utility.yul\":22380:22565   */\n    tag_287:\n        /* \"#utility.yul\":22420:22421   */\n      0x00\n        /* \"#utility.yul\":22437:22457   */\n      tag_710\n        /* \"#utility.yul\":22455:22456   */\n      dup3\n        /* \"#utility.yul\":22437:22457   */\n      tag_419\n      jump\t// in\n    tag_710:\n        /* \"#utility.yul\":22432:22457   */\n      swap2\n      pop\n        /* \"#utility.yul\":22471:22491   */\n      tag_711\n        /* \"#utility.yul\":22489:22490   */\n      dup4\n        /* \"#utility.yul\":22471:22491   */\n      tag_419\n      jump\t// in\n    tag_711:\n        /* \"#utility.yul\":22466:22491   */\n      swap3\n      pop\n        /* \"#utility.yul\":22510:22511   */\n      dup3\n        /* \"#utility.yul\":22500:22535   */\n      tag_712\n      jumpi\n        /* \"#utility.yul\":22515:22533   */\n      tag_713\n      tag_469\n      jump\t// in\n    tag_713:\n        /* \"#utility.yul\":22500:22535   */\n    tag_712:\n        /* \"#utility.yul\":22557:22558   */\n      dup3\n        /* \"#utility.yul\":22554:22555   */\n      dup3\n        /* \"#utility.yul\":22550:22559   */\n      div\n        /* \"#utility.yul\":22545:22559   */\n      swap1\n      pop\n        /* \"#utility.yul\":22380:22565   */\n      swap3\n      swap2\n      pop\n      pop\n      jump\t// out\n        /* \"#utility.yul\":22571:22740   */\n    tag_470:\n        /* \"#utility.yul\":22711:22732   */\n      0x4348414c4c454e4745525f424f4e445f4c4f5700000000000000000000000000\n        /* \"#utility.yul\":22707:22708   */\n      0x00\n        /* \"#utility.yul\":22699:22705   */\n      dup3\n        /* \"#utility.yul\":22695:22709   */\n      add\n        /* \"#utility.yul\":22688:22733   */\n      mstore\n        /* \"#utility.yul\":22571:22740   */\n      pop\n      jump\t// out\n        /* \"#utility.yul\":22746:23112   */\n    tag_471:\n        /* \"#utility.yul\":22888:22891   */\n      0x00\n        /* \"#utility.yul\":22909:22976   */\n      tag_716\n        /* \"#utility.yul\":22973:22975   */\n      0x13\n        /* \"#utility.yul\":22968:22971   */\n      dup4\n        /* \"#utility.yul\":22909:22976   */\n      tag_456\n      jump\t// in\n    tag_716:\n        /* \"#utility.yul\":22902:22976   */\n      swap2\n      pop\n        /* \"#utility.yul\":22985:23078   */\n      tag_717\n        /* \"#utility.yul\":23074:23077   */\n      dup3\n        /* \"#utility.yul\":22985:23078   */\n      tag_470\n      jump\t// in\n    tag_717:\n        /* \"#utility.yul\":23103:23105   */\n      0x20\n        /* \"#utility.yul\":23098:23101   */\n      dup3\n        /* \"#utility.yul\":23094:23106   */\n      add\n        /* \"#utility.yul\":23087:23106   */\n      swap1\n      pop\n        /* \"#utility.yul\":22746:23112   */\n      swap2\n      swap1\n      pop\n      jump\t// out\n        /* \"#utility.yul\":23118:23537   */\n    tag_315:\n        /* \"#utility.yul\":23284:23288   */\n      0x00\n        /* \"#utility.yul\":23322:23324   */\n      0x20\n        /* \"#utility.yul\":23311:23320   */\n      dup3\n        /* \"#utility.yul\":23307:23325   */\n      add\n        /* \"#utility.yul\":23299:23325   */\n      swap1\n      pop\n        /* \"#utility.yul\":23371:23380   */\n      dup2\n        /* \"#utility.yul\":23365:23369   */\n      dup2\n        /* \"#utility.yul\":23361:23381   */\n      sub\n        /* \"#utility.yul\":23357:23358   */\n      0x00\n        /* \"#utility.yul\":23346:23355   */\n      dup4\n        /* \"#utility.yul\":23342:23359   */\n      add\n        /* \"#utility.yul\":23335:23382   */\n      mstore\n        /* \"#utility.yul\":23399:23530   */\n      tag_719\n        /* \"#utility.yul\":23525:23529   */\n      dup2\n        /* \"#utility.yul\":23399:23530   */\n      tag_471\n      jump\t// in\n    tag_719:\n        /* \"#utility.yul\":23391:23530   */\n      swap1\n      pop\n        /* \"#utility.yul\":23118:23537   */\n      swap2\n      swap1\n      pop\n      jump\t// out\n        /* \"#utility.yul\":23543:23709   */\n    tag_472:\n        /* \"#utility.yul\":23683:23701   */\n      0x5061757361626c653a2070617573656400000000000000000000000000000000\n        /* \"#utility.yul\":23679:23680   */\n      0x00\n        /* \"#utility.yul\":23671:23677   */\n      dup3\n        /* \"#utility.yul\":23667:23681   */\n      add\n        /* \"#utility.yul\":23660:23702   */\n      mstore\n        /* \"#utility.yul\":23543:23709   */\n      pop\n      jump\t// out\n        /* \"#utility.yul\":23715:24081   */\n    tag_473:\n        /* \"#utility.yul\":23857:23860   */\n      0x00\n        /* \"#utility.yul\":23878:23945   */\n      tag_722\n        /* \"#utility.yul\":23942:23944   */\n      0x10\n        /* \"#utility.yul\":23937:23940   */\n      dup4\n        /* \"#utility.yul\":23878:23945   */\n      tag_456\n      jump\t// in\n    tag_722:\n        /* \"#utility.yul\":23871:23945   */\n      swap2\n      pop\n        /* \"#utility.yul\":23954:24047   */\n      tag_723\n        /* \"#utility.yul\":24043:24046   */\n      dup3\n        /* \"#utility.yul\":23954:24047   */\n      tag_472\n      jump\t// in\n    tag_723:\n        /* \"#utility.yul\":24072:24074   */\n      0x20\n        /* \"#utility.yul\":24067:24070   */\n      dup3\n        /* \"#utility.yul\":24063:24075   */\n      add\n        /* \"#utility.yul\":24056:24075   */\n      swap1\n      pop\n        /* \"#utility.yul\":23715:24081   */\n      swap2\n      swap1\n      pop\n      jump\t// out\n        /* \"#utility.yul\":24087:24506   */\n    tag_351:\n        /* \"#utility.yul\":24253:24257   */\n      0x00\n        /* \"#utility.yul\":24291:24293   */\n      0x20\n        /* \"#utility.yul\":24280:24289   */\n      dup3\n        /* \"#utility.yul\":24276:24294   */\n      add\n        /* \"#utility.yul\":24268:24294   */\n      swap1\n      pop\n        /* \"#utility.yul\":24340:24349   */\n      dup2\n        /* \"#utility.yul\":24334:24338   */\n      dup2\n        /* \"#utility.yul\":24330:24350   */\n      sub\n        /* \"#utility.yul\":24326:24327   */\n      0x00\n        /* \"#utility.yul\":24315:24324   */\n      dup4\n        /* \"#utility.yul\":24311:24328   */\n      add\n        /* \"#utility.yul\":24304:24351   */\n      mstore\n        /* \"#utility.yul\":24368:24499   */\n      tag_725\n        /* \"#utility.yul\":24494:24498   */\n      dup2\n        /* \"#utility.yul\":24368:24499   */\n      tag_473\n      jump\t// in\n    tag_725:\n        /* \"#utility.yul\":24360:24499   */\n      swap1\n      pop\n        /* \"#utility.yul\":24087:24506   */\n      swap2\n      swap1\n      pop\n      jump\t// out\n        /* \"#utility.yul\":24512:24693   */\n    tag_474:\n        /* \"#utility.yul\":24652:24685   */\n      0x5265656e7472616e637947756172643a207265656e7472616e742063616c6c00\n        /* \"#utility.yul\":24648:24649   */\n      0x00\n        /* \"#utility.yul\":24640:24646   */\n      dup3\n        /* \"#utility.yul\":24636:24650   */\n      add\n        /* \"#utility.yul\":24629:24686   */\n      mstore\n        /* \"#utility.yul\":24512:24693   */\n      pop\n      jump\t// out\n        /* \"#utility.yul\":24699:25065   */\n    tag_475:\n        /* \"#utility.yul\":24841:24844   */\n      0x00\n        /* \"#utility.yul\":24862:24929   */\n      tag_728\n        /* \"#utility.yul\":24926:24928   */\n      0x1f\n        /* \"#utility.yul\":24921:24924   */\n      dup4\n        /* \"#utility.yul\":24862:24929   */\n      tag_456\n      jump\t// in\n    tag_728:\n        /* \"#utility.yul\":24855:24929   */\n      swap2\n      pop\n        /* \"#utility.yul\":24938:25031   */\n      tag_729\n        /* \"#utility.yul\":25027:25030   */\n      dup3\n        /* \"#utility.yul\":24938:25031   */\n      tag_474\n      jump\t// in\n    tag_729:\n        /* \"#utility.yul\":25056:25058   */\n      0x20\n        /* \"#utility.yul\":25051:25054   */\n      dup3\n        /* \"#utility.yul\":25047:25059   */\n      add\n        /* \"#utility.yul\":25040:25059   */\n      swap1\n      pop\n        /* \"#utility.yul\":24699:25065   */\n      swap2\n      swap1\n      pop\n      jump\t// out\n        /* \"#utility.yul\":25071:25490   */\n    tag_355:\n        /* \"#utility.yul\":25237:25241   */\n      0x00\n        /* \"#utility.yul\":25275:25277   */\n      0x20\n        /* \"#utility.yul\":25264:25273   */\n      dup3\n        /* \"#utility.yul\":25260:25278   */\n      add\n        /* \"#utility.yul\":25252:25278   */\n      swap1\n      pop\n        /* \"#utility.yul\":25324:25333   */\n      dup2\n        /* \"#utility.yul\":25318:25322   */\n      dup2\n        /* \"#utility.yul\":25314:25334   */\n      sub\n        /* \"#utility.yul\":25310:25311   */\n      0x00\n        /* \"#utility.yul\":25299:25308   */\n      dup4\n        /* \"#utility.yul\":25295:25312   */\n      add\n        /* \"#utility.yul\":25288:25335   */\n      mstore\n        /* \"#utility.yul\":25352:25483   */\n      tag_731\n        /* \"#utility.yul\":25478:25482   */\n      dup2\n        /* \"#utility.yul\":25352:25483   */\n      tag_475\n      jump\t// in\n    tag_731:\n        /* \"#utility.yul\":25344:25483   */\n      swap1\n      pop\n        /* \"#utility.yul\":25071:25490   */\n      swap2\n      swap1\n      pop\n      jump\t// out\n        /* \"#utility.yul\":25496:25828   */\n    tag_362:\n        /* \"#utility.yul\":25617:25621   */\n      0x00\n        /* \"#utility.yul\":25655:25657   */\n      0x40\n        /* \"#utility.yul\":25644:25653   */\n      dup3\n        /* \"#utility.yul\":25640:25658   */\n      add\n        /* \"#utility.yul\":25632:25658   */\n      swap1\n      pop\n        /* \"#utility.yul\":25668:25739   */\n      tag_733\n        /* \"#utility.yul\":25736:25737   */\n      0x00\n        /* \"#utility.yul\":25725:25734   */\n      dup4\n        /* \"#utility.yul\":25721:25738   */\n      add\n        /* \"#utility.yul\":25712:25718   */\n      dup6\n        /* \"#utility.yul\":25668:25739   */\n      tag_435\n      jump\t// in\n    tag_733:\n        /* \"#utility.yul\":25749:25821   */\n      tag_734\n        /* \"#utility.yul\":25817:25819   */\n      0x20\n        /* \"#utility.yul\":25806:25815   */\n      dup4\n        /* \"#utility.yul\":25802:25820   */\n      add\n        /* \"#utility.yul\":25793:25799   */\n      dup5\n        /* \"#utility.yul\":25749:25821   */\n      tag_432\n      jump\t// in\n    tag_734:\n        /* \"#utility.yul\":25496:25828   */\n      swap4\n      swap3\n      pop\n      pop\n      pop\n      jump\t// out\n        /* \"#utility.yul\":25834:26276   */\n    tag_387:\n        /* \"#utility.yul\":25983:25987   */\n      0x00\n        /* \"#utility.yul\":26021:26023   */\n      0x60\n        /* \"#utility.yul\":26010:26019   */\n      dup3\n        /* \"#utility.yul\":26006:26024   */\n      add\n        /* \"#utility.yul\":25998:26024   */\n      swap1\n      pop\n        /* \"#utility.yul\":26034:26105   */\n      tag_736\n        /* \"#utility.yul\":26102:26103   */\n      0x00\n        /* \"#utility.yul\":26091:26100   */\n      dup4\n        /* \"#utility.yul\":26087:26104   */\n      add\n        /* \"#utility.yul\":26078:26084   */\n      dup7\n        /* \"#utility.yul\":26034:26105   */\n      tag_435\n      jump\t// in\n    tag_736:\n        /* \"#utility.yul\":26115:26187   */\n      tag_737\n        /* \"#utility.yul\":26183:26185   */\n      0x20\n        /* \"#utility.yul\":26172:26181   */\n      dup4\n        /* \"#utility.yul\":26168:26186   */\n      add\n        /* \"#utility.yul\":26159:26165   */\n      dup6\n        /* \"#utility.yul\":26115:26187   */\n      tag_435\n      jump\t// in\n    tag_737:\n        /* \"#utility.yul\":26197:26269   */\n      tag_738\n        /* \"#utility.yul\":26265:26267   */\n      0x40\n        /* \"#utility.yul\":26254:26263   */\n      dup4\n        /* \"#utility.yul\":26250:26268   */\n      add\n        /* \"#utility.yul\":26241:26247   */\n      dup5\n        /* \"#utility.yul\":26197:26269   */\n      tag_432\n      jump\t// in\n    tag_738:\n        /* \"#utility.yul\":25834:26276   */\n      swap5\n      swap4\n      pop\n      pop\n      pop\n      pop\n      jump\t// out\n        /* \"#utility.yul\":26282:26462   */\n    tag_395:\n        /* \"#utility.yul\":26330:26407   */\n      0x4e487b7100000000000000000000000000000000000000000000000000000000\n        /* \"#utility.yul\":26327:26328   */\n      0x00\n        /* \"#utility.yul\":26320:26408   */\n      mstore\n        /* \"#utility.yul\":26427:26431   */\n      0x32\n        /* \"#utility.yul\":26424:26425   */\n      0x04\n        /* \"#utility.yul\":26417:26432   */\n      mstore\n        /* \"#utility.yul\":26451:26455   */\n      0x24\n        /* \"#utility.yul\":26448:26449   */\n      0x00\n        /* \"#utility.yul\":26441:26456   */\n      revert\n        /* \"#utility.yul\":26468:26638   */\n    tag_476:\n        /* \"#utility.yul\":26608:26630   */\n      0x5061757361626c653a206e6f7420706175736564000000000000000000000000\n        /* \"#utility.yul\":26604:26605   */\n      0x00\n        /* \"#utility.yul\":26596:26602   */\n      dup3\n        /* \"#utility.yul\":26592:26606   */\n      add\n        /* \"#utility.yul\":26585:26631   */\n      mstore\n        /* \"#utility.yul\":26468:26638   */\n      pop\n      jump\t// out\n        /* \"#utility.yul\":26644:27010   */\n    tag_477:\n        /* \"#utility.yul\":26786:26789   */\n      0x00\n        /* \"#utility.yul\":26807:26874   */\n      tag_742\n        /* \"#utility.yul\":26871:26873   */\n      0x14\n        /* \"#utility.yul\":26866:26869   */\n      dup4\n        /* \"#utility.yul\":26807:26874   */\n      tag_456\n      jump\t// in\n    tag_742:\n        /* \"#utility.yul\":26800:26874   */\n      swap2\n      pop\n        /* \"#utility.yul\":26883:26976   */\n      tag_743\n        /* \"#utility.yul\":26972:26975   */\n      dup3\n        /* \"#utility.yul\":26883:26976   */\n      tag_476\n      jump\t// in\n    tag_743:\n        /* \"#utility.yul\":27001:27003   */\n      0x20\n        /* \"#utility.yul\":26996:26999   */\n      dup3\n        /* \"#utility.yul\":26992:27004   */\n      add\n        /* \"#utility.yul\":26985:27004   */\n      swap1\n      pop\n        /* \"#utility.yul\":26644:27010   */\n      swap2\n      swap1\n      pop\n      jump\t// out\n        /* \"#utility.yul\":27016:27435   */\n    tag_408:\n        /* \"#utility.yul\":27182:27186   */\n      0x00\n        /* \"#utility.yul\":27220:27222   */\n      0x20\n        /* \"#utility.yul\":27209:27218   */\n      dup3\n        /* \"#utility.yul\":27205:27223   */\n      add\n        /* \"#utility.yul\":27197:27223   */\n      swap1\n      pop\n        /* \"#utility.yul\":27269:27278   */\n      dup2\n        /* \"#utility.yul\":27263:27267   */\n      dup2\n        /* \"#utility.yul\":27259:27279   */\n      sub\n        /* \"#utility.yul\":27255:27256   */\n      0x00\n        /* \"#utility.yul\":27244:27253   */\n      dup4\n        /* \"#utility.yul\":27240:27257   */\n      add\n        /* \"#utility.yul\":27233:27280   */\n      mstore\n        /* \"#utility.yul\":27297:27428   */\n      tag_745\n        /* \"#utility.yul\":27423:27427   */\n      dup2\n        /* \"#utility.yul\":27297:27428   */\n      tag_477\n      jump\t// in\n    tag_745:\n        /* \"#utility.yul\":27289:27428   */\n      swap1\n      pop\n        /* \"#utility.yul\":27016:27435   */\n      swap2\n      swap1\n      pop\n      jump\t// out\n\n    auxdata: 0xa264697066735822122032f30b9008de80e6e0a0886a2777a8e58c583064b60aa81da317eadb478286d364736f6c634300081e0033\n}\n",
				"bytecode": {
					"linkReferences": {},
					"object": "608060405234801561000f575f5ffd5b506040516138153803806138158339818101604052810190610031919061036c565b335f73ffffffffffffffffffffffffffffffffffffffff168173ffffffffffffffffffffffffffffffffffffffff16036100a2575f6040517f1e4fbdf70000000000000000000000000000000000000000000000000000000081526004016100999190610404565b60405180910390fd5b6100b1816101e760201b60201c565b505f5f60146101000a81548160ff021916908315150217905550600180819055505f73ffffffffffffffffffffffffffffffffffffffff168673ffffffffffffffffffffffffffffffffffffffff1603610140576040517f08c379a000000000000000000000000000000000000000000000000000000000815260040161013790610477565b60405180910390fd5b8560025f6101000a81548173ffffffffffffffffffffffffffffffffffffffff021916908373ffffffffffffffffffffffffffffffffffffffff1602179055508460035f6101000a81548173ffffffffffffffffffffffffffffffffffffffff021916908373ffffffffffffffffffffffffffffffffffffffff16021790555083600681905550826004819055508160058190555080600a81905550505050505050610495565b5f5f5f9054906101000a900473ffffffffffffffffffffffffffffffffffffffff169050815f5f6101000a81548173ffffffffffffffffffffffffffffffffffffffff021916908373ffffffffffffffffffffffffffffffffffffffff1602179055508173ffffffffffffffffffffffffffffffffffffffff168173ffffffffffffffffffffffffffffffffffffffff167f8be0079c531659141344cd1fd0a4f28419497f9722a3daafe3b4186f6b6457e060405160405180910390a35050565b5f5ffd5b5f73ffffffffffffffffffffffffffffffffffffffff82169050919050565b5f6102d5826102ac565b9050919050565b6102e5816102cb565b81146102ef575f5ffd5b50565b5f81519050610300816102dc565b92915050565b5f819050919050565b61031881610306565b8114610322575f5ffd5b50565b5f815190506103338161030f565b92915050565b5f819050919050565b61034b81610339565b8114610355575f5ffd5b50565b5f8151905061036681610342565b92915050565b5f5f5f5f5f5f60c08789031215610386576103856102a8565b5b5f61039389828a016102f2565b96505060206103a489828a016102f2565b95505060406103b589828a01610325565b94505060606103c689828a01610325565b93505060806103d789828a01610325565b92505060a06103e889828a01610358565b9150509295509295509295565b6103fe816102cb565b82525050565b5f6020820190506104175f8301846103f5565b92915050565b5f82825260208201905092915050565b7f5a45524f5f53455155454e4345520000000000000000000000000000000000005f82015250565b5f610461600e8361041d565b915061046c8261042d565b602082019050919050565b5f6020820190508181035f83015261048e81610455565b9050919050565b613373806104a25f395ff3fe6080604052600436106101d0575f3560e01c80637b6605c5116100f6578063ac2eba9811610094578063e7b417a611610063578063e7b417a6146105f7578063f2fde38b1461061f578063f6326fb314610647578063fe10d77414610651576101d7565b8063ac2eba9814610538578063b32c4d8d14610562578063de35f5cb146105a5578063e33491a7146105cf576101d7565b80638da5cb5b116100d05780638da5cb5b146104945780638fe0c544146104be57806397feb926146104e6578063a8608d181461050e576101d7565b80637b6605c51461042c5780638456cb5914610454578063861a14121461046a576101d7565b80635a0ce6761161016e57806364c9ec6f1161013d57806364c9ec6f146103ba57806367f4f4eb146103c457806368ccdc86146103ec578063715018a614610416576101d7565b80635a0ce676146103145780635c0b2cd31461033c5780635c1bba38146103665780635c975abb14610390576101d7565b806327de9e32116101aa57806327de9e32146102705780633f4ba83a146102985780634d4e7019146102ae57806357348b83146102d8576101d7565b8063129d8000146101db578063147e4e8f146102035780632547fa3e14610248576101d7565b366101d757005b5f5ffd5b3480156101e6575f5ffd5b5061020160048036038101906101fc91906126e0565b61068d565b005b34801561020e575f5ffd5b5061022960048036038101906102249190612776565b610a5b565b60405161023f9a999897969594939291906127f1565b60405180910390f35b348015610253575f5ffd5b5061026e6004803603810190610269919061288b565b610b9c565b005b34801561027b575f5ffd5b5061029660048036038101906102919190612776565b610cd0565b005b3480156102a3575f5ffd5b506102ac610eac565b005b3480156102b9575f5ffd5b506102c2610ebe565b6040516102cf91906128b6565b60405180910390f35b3480156102e3575f5ffd5b506102fe60048036038101906102f991906128f9565b610ec4565b60405161030b9190612937565b60405180910390f35b34801561031f575f5ffd5b5061033a60048036038101906103359190612950565b610eee565b005b348015610347575f5ffd5b50610350610f4b565b60405161035d91906129fb565b60405180910390f35b348015610371575f5ffd5b5061037a610f70565b6040516103879190612a14565b60405180910390f35b34801561039b575f5ffd5b506103a4610f95565b6040516103b19190612937565b60405180910390f35b6103c2610faa565b005b3480156103cf575f5ffd5b506103ea60048036038101906103e59190612a2d565b61108e565b005b3480156103f7575f5ffd5b506104006112b1565b60405161040d91906128b6565b60405180910390f35b348015610421575f5ffd5b5061042a6112b7565b005b348015610437575f5ffd5b50610452600480360381019061044d9190612ad2565b6112ca565b005b34801561045f575f5ffd5b506104686118ad565b005b348015610475575f5ffd5b5061047e6118bf565b60405161048b91906128b6565b60405180910390f35b34801561049f575f5ffd5b506104a86118c5565b6040516104b59190612a14565b60405180910390f35b3480156104c9575f5ffd5b506104e460048036038101906104df9190612776565b6118ec565b005b3480156104f1575f5ffd5b5061050c60048036038101906105079190612b2f565b611b86565b005b348015610519575f5ffd5b50610522611c76565b60405161052f91906128b6565b60405180910390f35b348015610543575f5ffd5b5061054c611c7c565b6040516105599190612b6d565b60405180910390f35b34801561056d575f5ffd5b5061058860048036038101906105839190612776565b611c82565b60405161059c989796959493929190612ba8565b60405180910390f35b3480156105b0575f5ffd5b506105b9611d13565b6040516105c691906128b6565b60405180910390f35b3480156105da575f5ffd5b506105f560048036038101906105f09190612776565b611d19565b005b348015610602575f5ffd5b5061061d6004803603810190610618919061288b565b611edb565b005b34801561062a575f5ffd5b506106456004803603810190610640919061288b565b611f69565b005b61064f611fed565b005b34801561065c575f5ffd5b506106776004803603810190610672919061288b565b612097565b60405161068491906128b6565b60405180910390f35b6106956120ac565b61069d6120f6565b5f60095f8881526020019081526020015f2090505f816004015f9054906101000a900467ffffffffffffffff1667ffffffffffffffff160361070b576040517f9e15e1bc00000000000000000000000000000000000000000000000000000000815260040160405180910390fd5b8060040160099054906101000a900460ff16610753576040517f5565870f00000000000000000000000000000000000000000000000000000000815260040160405180910390fd5b5f850361078c576040517f1f2a200500000000000000000000000000000000000000000000000000000000815260040160405180910390fd5b5f338787876040516020016107a49493929190612c89565b604051602081830303815290604052805190602001209050600c5f8981526020019081526020015f205f8281526020019081526020015f205f9054906101000a900460ff1615610820576040517f2f29b3db00000000000000000000000000000000000000000000000000000000815260040160405180910390fd5b61086f8484808060200260200160405190810160405280939291908181526020018383602002808284375f81840152601f19601f82011690508083019250505050505050836003015483612145565b6108a5576040517f09bde33900000000000000000000000000000000000000000000000000000000815260040160405180910390fd5b6001600c5f8a81526020019081526020015f205f8381526020019081526020015f205f6101000a81548160ff0219169083151502179055505f73ffffffffffffffffffffffffffffffffffffffff168773ffffffffffffffffffffffffffffffffffffffff16036109b5575f3373ffffffffffffffffffffffffffffffffffffffff168760405161093590612d03565b5f6040518083038185875af1925050503d805f811461096f576040519150601f19603f3d011682016040523d82523d5f602084013e610974565b606091505b50509050806109af576040517f90b8ec1800000000000000000000000000000000000000000000000000000000815260040160405180910390fd5b506109e1565b6109e033878973ffffffffffffffffffffffffffffffffffffffff1661215b9092919063ffffffff16565b5b8673ffffffffffffffffffffffffffffffffffffffff163373ffffffffffffffffffffffffffffffffffffffff16897f8c6f1f453248546230edca559f3fcddbea2f6c7c33a0f7899c403d78dfb642f28989604051610a41929190612d17565b60405180910390a45050610a536121da565b505050505050565b5f5f5f5f5f5f5f5f5f5f5f60095f8d81526020019081526020015f2090505f816004015f9054906101000a900467ffffffffffffffff1667ffffffffffffffff1614159a508060040160089054906101000a900460ff1699508060040160099054906101000a900460ff169850806004015f9054906101000a900467ffffffffffffffff1667ffffffffffffffff1697505f816004015f9054906101000a900467ffffffffffffffff1667ffffffffffffffff1614610b4857600654816004015f9054906101000a900467ffffffffffffffff1667ffffffffffffffff16610b439190612d6b565b610b4a565b5f5b9650805f0154955080600101549450806002015493508060030154925080600401600a9054906101000a900473ffffffffffffffffffffffffffffffffffffffff169150509193959799509193959799565b610ba46121e3565b5f73ffffffffffffffffffffffffffffffffffffffff168173ffffffffffffffffffffffffffffffffffffffff1603610c12576040517f08c379a0000000000000000000000000000000000000000000000000000000008152600401610c0990612df8565b60405180910390fd5b8073ffffffffffffffffffffffffffffffffffffffff1660025f9054906101000a900473ffffffffffffffffffffffffffffffffffffffff1673ffffffffffffffffffffffffffffffffffffffff167fcd58b762453bd126b48db83f2cecd464f5281dd7e5e6824b528c09d0482984d660405160405180910390a38060025f6101000a81548173ffffffffffffffffffffffffffffffffffffffff021916908373ffffffffffffffffffffffffffffffffffffffff16021790555050565b610cd86120ac565b610ce06120f6565b8060075f3373ffffffffffffffffffffffffffffffffffffffff1673ffffffffffffffffffffffffffffffffffffffff1681526020019081526020015f20541015610d60576040517f08c379a0000000000000000000000000000000000000000000000000000000008152600401610d5790612e60565b60405180910390fd5b8060075f3373ffffffffffffffffffffffffffffffffffffffff1673ffffffffffffffffffffffffffffffffffffffff1681526020019081526020015f205f828254610dac9190612e7e565b925050819055505f3373ffffffffffffffffffffffffffffffffffffffff1682604051610dd890612d03565b5f6040518083038185875af1925050503d805f8114610e12576040519150601f19603f3d011682016040523d82523d5f602084013e610e17565b606091505b5050905080610e52576040517f90b8ec1800000000000000000000000000000000000000000000000000000000815260040160405180910390fd5b3373ffffffffffffffffffffffffffffffffffffffff167fd24dbf5e9299ce53c3aa9f7227ff1cc8441c2faae04509aa370ca3703385d6b483604051610e9891906128b6565b60405180910390a250610ea96121da565b50565b610eb46121e3565b610ebc61226a565b565b60085481565b600c602052815f5260405f20602052805f5260405f205f915091509054906101000a900460ff1681565b610ef66121e3565b8260068190555081600481905550806005819055507f0cba168cfa7900657e5f8cc53d6f52ebbfa3a9f568941b465cc4f731c60c95b2838383604051610f3e93929190612eb1565b60405180910390a1505050565b60035f9054906101000a900473ffffffffffffffffffffffffffffffffffffffff1681565b60025f9054906101000a900473ffffffffffffffffffffffffffffffffffffffff1681565b5f5f60149054906101000a900460ff16905090565b610fb26120ac565b5f3403610feb576040517f1f2a200500000000000000000000000000000000000000000000000000000000815260040160405180910390fd5b3460075f3373ffffffffffffffffffffffffffffffffffffffff1673ffffffffffffffffffffffffffffffffffffffff1681526020019081526020015f205f8282546110379190612d6b565b925050819055503373ffffffffffffffffffffffffffffffffffffffff167fd0a009034e24a39106653c4903cf28b1947b8a9964d03206648e0f0a5de74a463460405161108491906128b6565b60405180910390a2565b6110966120ac565b60025f9054906101000a900473ffffffffffffffffffffffffffffffffffffffff1673ffffffffffffffffffffffffffffffffffffffff163373ffffffffffffffffffffffffffffffffffffffff161461111c576040517f53e2827c00000000000000000000000000000000000000000000000000000000815260040160405180910390fd5b60045460075f3373ffffffffffffffffffffffffffffffffffffffff1673ffffffffffffffffffffffffffffffffffffffff1681526020019081526020015f2054101561119e576040517f08c379a000000000000000000000000000000000000000000000000000000000815260040161119590612f30565b60405180910390fd5b5f5f1b8314806111af57505f5f1b82145b156111e6576040517f86bdc25c00000000000000000000000000000000000000000000000000000000815260040160405180910390fd5b5f60085f81546111f590612f4e565b91905081905590505f60095f8381526020019081526020015f209050600a54815f018190555084816001018190555083816002018190555082816003018190555042816004015f6101000a81548167ffffffffffffffff021916908367ffffffffffffffff1602179055508060010154815f0154837f65300ce317ab79e5474eefcb0c14e8d429b3e59746933dbb8e07f051347c4190878760405161129b929190612f95565b60405180910390a484600a819055505050505050565b60055481565b6112bf6121e3565b6112c85f6122cb565b565b6112d26120ac565b5f60095f8581526020019081526020015f2090505f816004015f9054906101000a900467ffffffffffffffff1667ffffffffffffffff1603611340576040517f9e15e1bc00000000000000000000000000000000000000000000000000000000815260040160405180910390fd5b8060040160089054906101000a900460ff16611388576040517fd44be46e00000000000000000000000000000000000000000000000000000000815260040160405180910390fd5b8060040160099054906101000a900460ff16156113d1576040517f8a66d60700000000000000000000000000000000000000000000000000000000815260040160405180910390fd5b80600401600a9054906101000a900473ffffffffffffffffffffffffffffffffffffffff1673ffffffffffffffffffffffffffffffffffffffff163373ffffffffffffffffffffffffffffffffffffffff161415801561146457506114346118c5565b73ffffffffffffffffffffffffffffffffffffffff163373ffffffffffffffffffffffffffffffffffffffff1614155b1561149b576040517fd44be46e00000000000000000000000000000000000000000000000000000000815260040160405180910390fd5b5f73ffffffffffffffffffffffffffffffffffffffff1660035f9054906101000a900473ffffffffffffffffffffffffffffffffffffffff1673ffffffffffffffffffffffffffffffffffffffff1603611521576040517f09bde33900000000000000000000000000000000000000000000000000000000815260040160405180910390fd5b5f60035f9054906101000a900473ffffffffffffffffffffffffffffffffffffffff1673ffffffffffffffffffffffffffffffffffffffff16638606d48885858560020154865f015487600101546040518663ffffffff1660e01b815260040161158f959493929190613016565b602060405180830381865afa1580156115aa573d5f5f3e3d5ffd5b505050506040513d601f19601f820116820180604052508101906115ce919061308c565b90508015611752575f60026004546115e691906130e4565b90505f60075f60025f9054906101000a900473ffffffffffffffffffffffffffffffffffffffff1673ffffffffffffffffffffffffffffffffffffffff1673ffffffffffffffffffffffffffffffffffffffff1681526020019081526020015f205490505f818311611658578261165a565b815b90505f81111561174a5780826116709190612e7e565b60075f60025f9054906101000a900473ffffffffffffffffffffffffffffffffffffffff1673ffffffffffffffffffffffffffffffffffffffff1673ffffffffffffffffffffffffffffffffffffffff1681526020019081526020015f20819055508060075f87600401600a9054906101000a900473ffffffffffffffffffffffffffffffffffffffff1673ffffffffffffffffffffffffffffffffffffffff1673ffffffffffffffffffffffffffffffffffffffff1681526020019081526020015f205f8282546117429190612d6b565b925050819055505b505050611852565b5f600a60055461176291906130e4565b90505f60075f85600401600a9054906101000a900473ffffffffffffffffffffffffffffffffffffffff1673ffffffffffffffffffffffffffffffffffffffff1673ffffffffffffffffffffffffffffffffffffffff1681526020019081526020015f205490505f821180156117d85750818110155b1561184f5781816117e99190612e7e565b60075f86600401600a9054906101000a900473ffffffffffffffffffffffffffffffffffffffff1673ffffffffffffffffffffffffffffffffffffffff1673ffffffffffffffffffffffffffffffffffffffff1681526020019081526020015f20819055505b50505b5f8260040160086101000a81548160ff021916908315150217905550847f1c13286911ea61ab9e07cf462b69b2c12954593a03380a618afdf62d227021ae8260405161189e9190612937565b60405180910390a25050505050565b6118b56121e3565b6118bd61238c565b565b60065481565b5f5f5f9054906101000a900473ffffffffffffffffffffffffffffffffffffffff16905090565b6118f46120ac565b5f60095f8381526020019081526020015f2090505f816004015f9054906101000a900467ffffffffffffffff1667ffffffffffffffff1603611962576040517f9e15e1bc00000000000000000000000000000000000000000000000000000000815260040160405180910390fd5b8060040160099054906101000a900460ff16156119ab576040517f8a66d60700000000000000000000000000000000000000000000000000000000815260040160405180910390fd5b8060040160089054906101000a900460ff16156119f4576040517ff1082a9300000000000000000000000000000000000000000000000000000000815260040160405180910390fd5b600654816004015f9054906101000a900467ffffffffffffffff1667ffffffffffffffff16611a239190612d6b565b421115611a5c576040517ff541751000000000000000000000000000000000000000000000000000000000815260040160405180910390fd5b60055460075f3373ffffffffffffffffffffffffffffffffffffffff1673ffffffffffffffffffffffffffffffffffffffff1681526020019081526020015f20541015611ade576040517f08c379a0000000000000000000000000000000000000000000000000000000008152600401611ad59061315e565b60405180910390fd5b60018160040160086101000a81548160ff0219169083151502179055503381600401600a6101000a81548173ffffffffffffffffffffffffffffffffffffffff021916908373ffffffffffffffffffffffffffffffffffffffff1602179055503373ffffffffffffffffffffffffffffffffffffffff16827f341905abd65f49eb35219139a0ccdce4a6d57d73972347db266f11adcb5a8c8960405160405180910390a35050565b611b8e6120ac565b5f8103611bc7576040517f1f2a200500000000000000000000000000000000000000000000000000000000815260040160405180910390fd5b611bf43330838573ffffffffffffffffffffffffffffffffffffffff166123ee909392919063ffffffff16565b5f600b5f8154611c0390612f4e565b9190508190559050808373ffffffffffffffffffffffffffffffffffffffff163373ffffffffffffffffffffffffffffffffffffffff167f228adef123a7fe6b727889b4d24b39b39de663428214fd757c6c501fb98d849485604051611c6991906128b6565b60405180910390a4505050565b60045481565b600a5481565b6009602052805f5260405f205f91509050805f015490806001015490806002015490806003015490806004015f9054906101000a900467ffffffffffffffff16908060040160089054906101000a900460ff16908060040160099054906101000a900460ff169080600401600a9054906101000a900473ffffffffffffffffffffffffffffffffffffffff16905088565b600b5481565b611d216120ac565b5f60095f8381526020019081526020015f2090505f816004015f9054906101000a900467ffffffffffffffff1667ffffffffffffffff1603611d8f576040517f9e15e1bc00000000000000000000000000000000000000000000000000000000815260040160405180910390fd5b8060040160099054906101000a900460ff1615611dd8576040517f8a66d60700000000000000000000000000000000000000000000000000000000815260040160405180910390fd5b600654816004015f9054906101000a900467ffffffffffffffff1667ffffffffffffffff16611e079190612d6b565b4211611e3f576040517fc970363200000000000000000000000000000000000000000000000000000000815260040160405180910390fd5b8060040160089054906101000a900460ff1615611e88576040517ff1082a9300000000000000000000000000000000000000000000000000000000815260040160405180910390fd5b60018160040160096101000a81548160ff0219169083151502179055508060010154827fa3ea0288fb824a30cae7f7d72a9e887bd0926c40c8438c43b49cfca687b0df5260405160405180910390a35050565b611ee36121e3565b8060035f6101000a81548173ffffffffffffffffffffffffffffffffffffffff021916908373ffffffffffffffffffffffffffffffffffffffff1602179055508073ffffffffffffffffffffffffffffffffffffffff167f8f188b15032cf36df69a7f5f4bd1583e05704dbb1504feabf2a98d125fc9b23560405160405180910390a250565b611f716121e3565b5f73ffffffffffffffffffffffffffffffffffffffff168173ffffffffffffffffffffffffffffffffffffffff1603611fe1575f6040517f1e4fbdf7000000000000000000000000000000000000000000000000000000008152600401611fd89190612a14565b60405180910390fd5b611fea816122cb565b50565b611ff56120ac565b5f340361202e576040517f1f2a200500000000000000000000000000000000000000000000000000000000815260040160405180910390fd5b5f600b5f815461203d90612f4e565b9190508190559050803373ffffffffffffffffffffffffffffffffffffffff167f57e8e547a3ef8d890c570ca885b0a8c441be3070e36b7ad4c7d6b9d9316ff2ce3460405161208c91906128b6565b60405180910390a350565b6007602052805f5260405f205f915090505481565b6120b4610f95565b156120f4576040517f08c379a00000000000000000000000000000000000000000000000000000000081526004016120eb906131c6565b60405180910390fd5b565b60026001540361213b576040517f08c379a00000000000000000000000000000000000000000000000000000000081526004016121329061322e565b60405180910390fd5b6002600181905550565b5f826121518584612470565b1490509392505050565b6121d5838473ffffffffffffffffffffffffffffffffffffffff1663a9059cbb858560405160240161218e92919061324c565b604051602081830303815290604052915060e01b6020820180517bffffffffffffffffffffffffffffffffffffffffffffffffffffffff83818316178352505050506124c1565b505050565b60018081905550565b6121eb61255c565b73ffffffffffffffffffffffffffffffffffffffff166122096118c5565b73ffffffffffffffffffffffffffffffffffffffff16146122685761222c61255c565b6040517f118cdaa700000000000000000000000000000000000000000000000000000000815260040161225f9190612a14565b60405180910390fd5b565b612272612563565b5f5f60146101000a81548160ff0219169083151502179055507f5db9ee0a495bf2e6ff9c91a7834c1ba4fdd244a5e8aa4e537bd38aeae4b073aa6122b461255c565b6040516122c19190612a14565b60405180910390a1565b5f5f5f9054906101000a900473ffffffffffffffffffffffffffffffffffffffff169050815f5f6101000a81548173ffffffffffffffffffffffffffffffffffffffff021916908373ffffffffffffffffffffffffffffffffffffffff1602179055508173ffffffffffffffffffffffffffffffffffffffff168173ffffffffffffffffffffffffffffffffffffffff167f8be0079c531659141344cd1fd0a4f28419497f9722a3daafe3b4186f6b6457e060405160405180910390a35050565b6123946120ac565b60015f60146101000a81548160ff0219169083151502179055507f62e78cea01bee320cd4e420270b5ea74000d11b0c9f74754ebdbfc544b05a2586123d761255c565b6040516123e49190612a14565b60405180910390a1565b61246a848573ffffffffffffffffffffffffffffffffffffffff166323b872dd86868660405160240161242393929190613273565b604051602081830303815290604052915060e01b6020820180517bffffffffffffffffffffffffffffffffffffffffffffffffffffffff83818316178352505050506124c1565b50505050565b5f5f8290505f5f90505b84518110156124b6576124a78286838151811061249a576124996132a8565b5b60200260200101516125ac565b9150808060010191505061247a565b508091505092915050565b5f5f60205f8451602086015f885af1806124e0576040513d5f823e3d81fd5b3d92505f519150505f82146124f9576001811415612514565b5f8473ffffffffffffffffffffffffffffffffffffffff163b145b1561255657836040517f5274afe700000000000000000000000000000000000000000000000000000000815260040161254d9190612a14565b60405180910390fd5b50505050565b5f33905090565b61256b610f95565b6125aa576040517f08c379a00000000000000000000000000000000000000000000000000000000081526004016125a19061331f565b60405180910390fd5b565b5f8183106125c3576125be82846125d6565b6125ce565b6125cd83836125d6565b5b905092915050565b5f825f528160205260405f20905092915050565b5f5ffd5b5f5ffd5b5f819050919050565b612604816125f2565b811461260e575f5ffd5b50565b5f8135905061261f816125fb565b92915050565b5f73ffffffffffffffffffffffffffffffffffffffff82169050919050565b5f61264e82612625565b9050919050565b61265e81612644565b8114612668575f5ffd5b50565b5f8135905061267981612655565b92915050565b5f5ffd5b5f5ffd5b5f5ffd5b5f5f83601f8401126126a05761269f61267f565b5b8235905067ffffffffffffffff8111156126bd576126bc612683565b5b6020830191508360208202830111156126d9576126d8612687565b5b9250929050565b5f5f5f5f5f5f60a087890312156126fa576126f96125ea565b5b5f61270789828a01612611565b965050602061271889828a0161266b565b955050604061272989828a01612611565b945050606061273a89828a01612611565b935050608087013567ffffffffffffffff81111561275b5761275a6125ee565b5b61276789828a0161268b565b92509250509295509295509295565b5f6020828403121561278b5761278a6125ea565b5b5f61279884828501612611565b91505092915050565b5f8115159050919050565b6127b5816127a1565b82525050565b6127c4816125f2565b82525050565b5f819050919050565b6127dc816127ca565b82525050565b6127eb81612644565b82525050565b5f610140820190506128055f83018d6127ac565b612812602083018c6127ac565b61281f604083018b6127ac565b61282c606083018a6127bb565b61283960808301896127bb565b61284660a08301886127d3565b61285360c08301876127d3565b61286060e08301866127d3565b61286e6101008301856127d3565b61287c6101208301846127e2565b9b9a5050505050505050505050565b5f602082840312156128a05761289f6125ea565b5b5f6128ad8482850161266b565b91505092915050565b5f6020820190506128c95f8301846127bb565b92915050565b6128d8816127ca565b81146128e2575f5ffd5b50565b5f813590506128f3816128cf565b92915050565b5f5f6040838503121561290f5761290e6125ea565b5b5f61291c85828601612611565b925050602061292d858286016128e5565b9150509250929050565b5f60208201905061294a5f8301846127ac565b92915050565b5f5f5f60608486031215612967576129666125ea565b5b5f61297486828701612611565b935050602061298586828701612611565b925050604061299686828701612611565b9150509250925092565b5f819050919050565b5f6129c36129be6129b984612625565b6129a0565b612625565b9050919050565b5f6129d4826129a9565b9050919050565b5f6129e5826129ca565b9050919050565b6129f5816129db565b82525050565b5f602082019050612a0e5f8301846129ec565b92915050565b5f602082019050612a275f8301846127e2565b92915050565b5f5f5f60608486031215612a4457612a436125ea565b5b5f612a51868287016128e5565b9350506020612a62868287016128e5565b9250506040612a73868287016128e5565b9150509250925092565b5f5f83601f840112612a9257612a9161267f565b5b8235905067ffffffffffffffff811115612aaf57612aae612683565b5b602083019150836001820283011115612acb57612aca612687565b5b9250929050565b5f5f5f60408486031215612ae957612ae86125ea565b5b5f612af686828701612611565b935050602084013567ffffffffffffffff811115612b1757612b166125ee565b5b612b2386828701612a7d565b92509250509250925092565b5f5f60408385031215612b4557612b446125ea565b5b5f612b528582860161266b565b9250506020612b6385828601612611565b9150509250929050565b5f602082019050612b805f8301846127d3565b92915050565b5f67ffffffffffffffff82169050919050565b612ba281612b86565b82525050565b5f61010082019050612bbc5f83018b6127d3565b612bc9602083018a6127d3565b612bd660408301896127d3565b612be360608301886127d3565b612bf06080830187612b99565b612bfd60a08301866127ac565b612c0a60c08301856127ac565b612c1760e08301846127e2565b9998505050505050505050565b5f8160601b9050919050565b5f612c3a82612c24565b9050919050565b5f612c4b82612c30565b9050919050565b612c63612c5e82612644565b612c41565b82525050565b5f819050919050565b612c83612c7e826125f2565b612c69565b82525050565b5f612c948287612c52565b601482019150612ca48286612c52565b601482019150612cb48285612c72565b602082019150612cc48284612c72565b60208201915081905095945050505050565b5f81905092915050565b50565b5f612cee5f83612cd6565b9150612cf982612ce0565b5f82019050919050565b5f612d0d82612ce3565b9150819050919050565b5f604082019050612d2a5f8301856127bb565b612d3760208301846127bb565b9392505050565b7f4e487b71000000000000000000000000000000000000000000000000000000005f52601160045260245ffd5b5f612d75826125f2565b9150612d80836125f2565b9250828201905080821115612d9857612d97612d3e565b5b92915050565b5f82825260208201905092915050565b7f5a45524f5f4144445200000000000000000000000000000000000000000000005f82015250565b5f612de2600983612d9e565b9150612ded82612dae565b602082019050919050565b5f6020820190508181035f830152612e0f81612dd6565b9050919050565b7f494e53554646494349454e545f424f4e440000000000000000000000000000005f82015250565b5f612e4a601183612d9e565b9150612e5582612e16565b602082019050919050565b5f6020820190508181035f830152612e7781612e3e565b9050919050565b5f612e88826125f2565b9150612e93836125f2565b9250828203905081811115612eab57612eaa612d3e565b5b92915050565b5f606082019050612ec45f8301866127bb565b612ed160208301856127bb565b612ede60408301846127bb565b949350505050565b7f53455155454e4345525f424f4e445f4c4f5700000000000000000000000000005f82015250565b5f612f1a601283612d9e565b9150612f2582612ee6565b602082019050919050565b5f6020820190508181035f830152612f4781612f0e565b9050919050565b5f612f58826125f2565b91507fffffffffffffffffffffffffffffffffffffffffffffffffffffffffffffffff8203612f8a57612f89612d3e565b5b600182019050919050565b5f604082019050612fa85f8301856127d3565b612fb560208301846127d3565b9392505050565b5f82825260208201905092915050565b828183375f83830152505050565b5f601f19601f8301169050919050565b5f612ff58385612fbc565b9350613002838584612fcc565b61300b83612fda565b840190509392505050565b5f6080820190508181035f83015261302f818789612fea565b905061303e60208301866127d3565b61304b60408301856127d3565b61305860608301846127d3565b9695505050505050565b61306b816127a1565b8114613075575f5ffd5b50565b5f8151905061308681613062565b92915050565b5f602082840312156130a1576130a06125ea565b5b5f6130ae84828501613078565b91505092915050565b7f4e487b71000000000000000000000000000000000000000000000000000000005f52601260045260245ffd5b5f6130ee826125f2565b91506130f9836125f2565b925082613109576131086130b7565b5b828204905092915050565b7f4348414c4c454e4745525f424f4e445f4c4f57000000000000000000000000005f82015250565b5f613148601383612d9e565b915061315382613114565b602082019050919050565b5f6020820190508181035f8301526131758161313c565b9050919050565b7f5061757361626c653a20706175736564000000000000000000000000000000005f82015250565b5f6131b0601083612d9e565b91506131bb8261317c565b602082019050919050565b5f6020820190508181035f8301526131dd816131a4565b9050919050565b7f5265656e7472616e637947756172643a207265656e7472616e742063616c6c005f82015250565b5f613218601f83612d9e565b9150613223826131e4565b602082019050919050565b5f6020820190508181035f8301526132458161320c565b9050919050565b5f60408201905061325f5f8301856127e2565b61326c60208301846127bb565b9392505050565b5f6060820190506132865f8301866127e2565b61329360208301856127e2565b6132a060408301846127bb565b949350505050565b7f4e487b71000000000000000000000000000000000000000000000000000000005f52603260045260245ffd5b7f5061757361626c653a206e6f74207061757365640000000000000000000000005f82015250565b5f613309601483612d9e565b9150613314826132d5565b602082019050919050565b5f6020820190508181035f830152613336816132fd565b905091905056fea264697066735822122032f30b9008de80e6e0a0886a2777a8e58c583064b60aa81da317eadb478286d364736f6c634300081e0033",
					"opcodes": "PUSH1 0x80 PUSH1 0x40 MSTORE CALLVALUE DUP1 ISZERO PUSH2 0xF JUMPI PUSH0 PUSH0 REVERT JUMPDEST POP PUSH1 0x40 MLOAD PUSH2 0x3815 CODESIZE SUB DUP1 PUSH2 0x3815 DUP4 CODECOPY DUP2 DUP2 ADD PUSH1 0x40 MSTORE DUP2 ADD SWAP1 PUSH2 0x31 SWAP2 SWAP1 PUSH2 0x36C JUMP JUMPDEST CALLER PUSH0 PUSH20 0xFFFFFFFFFFFFFFFFFFFFFFFFFFFFFFFFFFFFFFFF AND DUP2 PUSH20 0xFFFFFFFFFFFFFFFFFFFFFFFFFFFFFFFFFFFFFFFF AND SUB PUSH2 0xA2 JUMPI PUSH0 PUSH1 0x40 MLOAD PUSH32 0x1E4FBDF700000000000000000000000000000000000000000000000000000000 DUP2 MSTORE PUSH1 0x4 ADD PUSH2 0x99 SWAP2 SWAP1 PUSH2 0x404 JUMP JUMPDEST PUSH1 0x40 MLOAD DUP1 SWAP2 SUB SWAP1 REVERT JUMPDEST PUSH2 0xB1 DUP2 PUSH2 0x1E7 PUSH1 0x20 SHL PUSH1 0x20 SHR JUMP JUMPDEST POP PUSH0 PUSH0 PUSH1 0x14 PUSH2 0x100 EXP DUP2 SLOAD DUP2 PUSH1 0xFF MUL NOT AND SWAP1 DUP4 ISZERO ISZERO MUL OR SWAP1 SSTORE POP PUSH1 0x1 DUP1 DUP2 SWAP1 SSTORE POP PUSH0 PUSH20 0xFFFFFFFFFFFFFFFFFFFFFFFFFFFFFFFFFFFFFFFF AND DUP7 PUSH20 0xFFFFFFFFFFFFFFFFFFFFFFFFFFFFFFFFFFFFFFFF AND SUB PUSH2 0x140 JUMPI PUSH1 0x40 MLOAD PUSH32 0x8C379A000000000000000000000000000000000000000000000000000000000 DUP2 MSTORE PUSH1 0x4 ADD PUSH2 0x137 SWAP1 PUSH2 0x477 JUMP JUMPDEST PUSH1 0x40 MLOAD DUP1 SWAP2 SUB SWAP1 REVERT JUMPDEST DUP6 PUSH1 0x2 PUSH0 PUSH2 0x100 EXP DUP2 SLOAD DUP2 PUSH20 0xFFFFFFFFFFFFFFFFFFFFFFFFFFFFFFFFFFFFFFFF MUL NOT AND SWAP1 DUP4 PUSH20 0xFFFFFFFFFFFFFFFFFFFFFFFFFFFFFFFFFFFFFFFF AND MUL OR SWAP1 SSTORE POP DUP5 PUSH1 0x3 PUSH0 PUSH2 0x100 EXP DUP2 SLOAD DUP2 PUSH20 0xFFFFFFFFFFFFFFFFFFFFFFFFFFFFFFFFFFFFFFFF MUL NOT AND SWAP1 DUP4 PUSH20 0xFFFFFFFFFFFFFFFFFFFFFFFFFFFFFFFFFFFFFFFF AND MUL OR SWAP1 SSTORE POP DUP4 PUSH1 0x6 DUP2 SWAP1 SSTORE POP DUP3 PUSH1 0x4 DUP2 SWAP1 SSTORE POP DUP2 PUSH1 0x5 DUP2 SWAP1 SSTORE POP DUP1 PUSH1 0xA DUP2 SWAP1 SSTORE POP POP POP POP POP POP POP PUSH2 0x495 JUMP JUMPDEST PUSH0 PUSH0 PUSH0 SWAP1 SLOAD SWAP1 PUSH2 0x100 EXP SWAP1 DIV PUSH20 0xFFFFFFFFFFFFFFFFFFFFFFFFFFFFFFFFFFFFFFFF AND SWAP1 POP DUP2 PUSH0 PUSH0 PUSH2 0x100 EXP DUP2 SLOAD DUP2 PUSH20 0xFFFFFFFFFFFFFFFFFFFFFFFFFFFFFFFFFFFFFFFF MUL NOT AND SWAP1 DUP4 PUSH20 0xFFFFFFFFFFFFFFFFFFFFFFFFFFFFFFFFFFFFFFFF AND MUL OR SWAP1 SSTORE POP DUP2 PUSH20 0xFFFFFFFFFFFFFFFFFFFFFFFFFFFFFFFFFFFFFFFF AND DUP2 PUSH20 0xFFFFFFFFFFFFFFFFFFFFFFFFFFFFFFFFFFFFFFFF AND PUSH32 0x8BE0079C531659141344CD1FD0A4F28419497F9722A3DAAFE3B4186F6B6457E0 PUSH1 0x40 MLOAD PUSH1 0x40 MLOAD DUP1 SWAP2 SUB SWAP1 LOG3 POP POP JUMP JUMPDEST PUSH0 PUSH0 REVERT JUMPDEST PUSH0 PUSH20 0xFFFFFFFFFFFFFFFFFFFFFFFFFFFFFFFFFFFFFFFF DUP3 AND SWAP1 POP SWAP2 SWAP1 POP JUMP JUMPDEST PUSH0 PUSH2 0x2D5 DUP3 PUSH2 0x2AC JUMP JUMPDEST SWAP1 POP SWAP2 SWAP1 POP JUMP JUMPDEST PUSH2 0x2E5 DUP2 PUSH2 0x2CB JUMP JUMPDEST DUP2 EQ PUSH2 0x2EF JUMPI PUSH0 PUSH0 REVERT JUMPDEST POP JUMP JUMPDEST PUSH0 DUP2 MLOAD SWAP1 POP PUSH2 0x300 DUP2 PUSH2 0x2DC JUMP JUMPDEST SWAP3 SWAP2 POP POP JUMP JUMPDEST PUSH0 DUP2 SWAP1 POP SWAP2 SWAP1 POP JUMP JUMPDEST PUSH2 0x318 DUP2 PUSH2 0x306 JUMP JUMPDEST DUP2 EQ PUSH2 0x322 JUMPI PUSH0 PUSH0 REVERT JUMPDEST POP JUMP JUMPDEST PUSH0 DUP2 MLOAD SWAP1 POP PUSH2 0x333 DUP2 PUSH2 0x30F JUMP JUMPDEST SWAP3 SWAP2 POP POP JUMP JUMPDEST PUSH0 DUP2 SWAP1 POP SWAP2 SWAP1 POP JUMP JUMPDEST PUSH2 0x34B DUP2 PUSH2 0x339 JUMP JUMPDEST DUP2 EQ PUSH2 0x355 JUMPI PUSH0 PUSH0 REVERT JUMPDEST POP JUMP JUMPDEST PUSH0 DUP2 MLOAD SWAP1 POP PUSH2 0x366 DUP2 PUSH2 0x342 JUMP JUMPDEST SWAP3 SWAP2 POP POP JUMP JUMPDEST PUSH0 PUSH0 PUSH0 PUSH0 PUSH0 PUSH0 PUSH1 0xC0 DUP8 DUP10 SUB SLT ISZERO PUSH2 0x386 JUMPI PUSH2 0x385 PUSH2 0x2A8 JUMP JUMPDEST JUMPDEST PUSH0 PUSH2 0x393 DUP10 DUP3 DUP11 ADD PUSH2 0x2F2 JUMP JUMPDEST SWAP7 POP POP PUSH1 0x20 PUSH2 0x3A4 DUP10 DUP3 DUP11 ADD PUSH2 0x2F2 JUMP JUMPDEST SWAP6 POP POP PUSH1 0x40 PUSH2 0x3B5 DUP10 DUP3 DUP11 ADD PUSH2 0x325 JUMP JUMPDEST SWAP5 POP POP PUSH1 0x60 PUSH2 0x3C6 DUP10 DUP3 DUP11 ADD PUSH2 0x325 JUMP JUMPDEST SWAP4 POP POP PUSH1 0x80 PUSH2 0x3D7 DUP10 DUP3 DUP11 ADD PUSH2 0x325 JUMP JUMPDEST SWAP3 POP POP PUSH1 0xA0 PUSH2 0x3E8 DUP10 DUP3 DUP11 ADD PUSH2 0x358 JUMP JUMPDEST SWAP2 POP POP SWAP3 SWAP6 POP SWAP3 SWAP6 POP SWAP3 SWAP6 JUMP JUMPDEST PUSH2 0x3FE DUP2 PUSH2 0x2CB JUMP JUMPDEST DUP3 MSTORE POP POP JUMP JUMPDEST PUSH0 PUSH1 0x20 DUP3 ADD SWAP1 POP PUSH2 0x417 PUSH0 DUP4 ADD DUP5 PUSH2 0x3F5 JUMP JUMPDEST SWAP3 SWAP2 POP POP JUMP JUMPDEST PUSH0 DUP3 DUP3 MSTORE PUSH1 0x20 DUP3 ADD SWAP1 POP SWAP3 SWAP2 POP POP JUMP JUMPDEST PUSH32 0x5A45524F5F53455155454E434552000000000000000000000000000000000000 PUSH0 DUP3 ADD MSTORE POP JUMP JUMPDEST PUSH0 PUSH2 0x461 PUSH1 0xE DUP4 PUSH2 0x41D JUMP JUMPDEST SWAP2 POP PUSH2 0x46C DUP3 PUSH2 0x42D JUMP JUMPDEST PUSH1 0x20 DUP3 ADD SWAP1 POP SWAP2 SWAP1 POP JUMP JUMPDEST PUSH0 PUSH1 0x20 DUP3 ADD SWAP1 POP DUP2 DUP2 SUB PUSH0 DUP4 ADD MSTORE PUSH2 0x48E DUP2 PUSH2 0x455 JUMP JUMPDEST SWAP1 POP SWAP2 SWAP1 POP JUMP JUMPDEST PUSH2 0x3373 DUP1 PUSH2 0x4A2 PUSH0 CODECOPY PUSH0 RETURN INVALID PUSH1 0x80 PUSH1 0x40 MSTORE PUSH1 0x4 CALLDATASIZE LT PUSH2 0x1D0 JUMPI PUSH0 CALLDATALOAD PUSH1 0xE0 SHR DUP1 PUSH4 0x7B6605C5 GT PUSH2 0xF6 JUMPI DUP1 PUSH4 0xAC2EBA98 GT PUSH2 0x94 JUMPI DUP1 PUSH4 0xE7B417A6 GT PUSH2 0x63 JUMPI DUP1 PUSH4 0xE7B417A6 EQ PUSH2 0x5F7 JUMPI DUP1 PUSH4 0xF2FDE38B EQ PUSH2 0x61F JUMPI DUP1 PUSH4 0xF6326FB3 EQ PUSH2 0x647 JUMPI DUP1 PUSH4 0xFE10D774 EQ PUSH2 0x651 JUMPI PUSH2 0x1D7 JUMP JUMPDEST DUP1 PUSH4 0xAC2EBA98 EQ PUSH2 0x538 JUMPI DUP1 PUSH4 0xB32C4D8D EQ PUSH2 0x562 JUMPI DUP1 PUSH4 0xDE35F5CB EQ PUSH2 0x5A5 JUMPI DUP1 PUSH4 0xE33491A7 EQ PUSH2 0x5CF JUMPI PUSH2 0x1D7 JUMP JUMPDEST DUP1 PUSH4 0x8DA5CB5B GT PUSH2 0xD0 JUMPI DUP1 PUSH4 0x8DA5CB5B EQ PUSH2 0x494 JUMPI DUP1 PUSH4 0x8FE0C544 EQ PUSH2 0x4BE JUMPI DUP1 PUSH4 0x97FEB926 EQ PUSH2 0x4E6 JUMPI DUP1 PUSH4 0xA8608D18 EQ PUSH2 0x50E JUMPI PUSH2 0x1D7 JUMP JUMPDEST DUP1 PUSH4 0x7B6605C5 EQ PUSH2 0x42C JUMPI DUP1 PUSH4 0x8456CB59 EQ PUSH2 0x454 JUMPI DUP1 PUSH4 0x861A1412 EQ PUSH2 0x46A JUMPI PUSH2 0x1D7 JUMP JUMPDEST DUP1 PUSH4 0x5A0CE676 GT PUSH2 0x16E JUMPI DUP1 PUSH4 0x64C9EC6F GT PUSH2 0x13D JUMPI DUP1 PUSH4 0x64C9EC6F EQ PUSH2 0x3BA JUMPI DUP1 PUSH4 0x67F4F4EB EQ PUSH2 0x3C4 JUMPI DUP1 PUSH4 0x68CCDC86 EQ PUSH2 0x3EC JUMPI DUP1 PUSH4 0x715018A6 EQ PUSH2 0x416 JUMPI PUSH2 0x1D7 JUMP JUMPDEST DUP1 PUSH4 0x5A0CE676 EQ PUSH2 0x314 JUMPI DUP1 PUSH4 0x5C0B2CD3 EQ PUSH2 0x33C JUMPI DUP1 PUSH4 0x5C1BBA38 EQ PUSH2 0x366 JUMPI DUP1 PUSH4 0x5C975ABB EQ PUSH2 0x390 JUMPI PUSH2 0x1D7 JUMP JUMPDEST DUP1 PUSH4 0x27DE9E32 GT PUSH2 0x1AA JUMPI DUP1 PUSH4 0x27DE9E32 EQ PUSH2 0x270 JUMPI DUP1 PUSH4 0x3F4BA83A EQ PUSH2 0x298 JUMPI DUP1 PUSH4 0x4D4E7019 EQ PUSH2 0x2AE JUMPI DUP1 PUSH4 0x57348B83 EQ PUSH2 0x2D8 JUMPI PUSH2 0x1D7 JUMP JUMPDEST DUP1 PUSH4 0x129D8000 EQ PUSH2 0x1DB JUMPI DUP1 PUSH4 0x147E4E8F EQ PUSH2 0x203 JUMPI DUP1 PUSH4 0x2547FA3E EQ PUSH2 0x248 JUMPI PUSH2 0x1D7 JUMP JUMPDEST CALLDATASIZE PUSH2 0x1D7 JUMPI STOP JUMPDEST PUSH0 PUSH0 REVERT JUMPDEST CALLVALUE DUP1 ISZERO PUSH2 0x1E6 JUMPI PUSH0 PUSH0 REVERT JUMPDEST POP PUSH2 0x201 PUSH1 0x4 DUP1 CALLDATASIZE SUB DUP2 ADD SWAP1 PUSH2 0x1FC SWAP2 SWAP1 PUSH2 0x26E0 JUMP JUMPDEST PUSH2 0x68D JUMP JUMPDEST STOP JUMPDEST CALLVALUE DUP1 ISZERO PUSH2 0x20E JUMPI PUSH0 PUSH0 REVERT JUMPDEST POP PUSH2 0x229 PUSH1 0x4 DUP1 CALLDATASIZE SUB DUP2 ADD SWAP1 PUSH2 0x224 SWAP2 SWAP1 PUSH2 0x2776 JUMP JUMPDEST PUSH2 0xA5B JUMP JUMPDEST PUSH1 0x40 MLOAD PUSH2 0x23F SWAP11 SWAP10 SWAP9 SWAP8 SWAP7 SWAP6 SWAP5 SWAP4 SWAP3 SWAP2 SWAP1 PUSH2 0x27F1 JUMP JUMPDEST PUSH1 0x40 MLOAD DUP1 SWAP2 SUB SWAP1 RETURN JUMPDEST CALLVALUE DUP1 ISZERO PUSH2 0x253 JUMPI PUSH0 PUSH0 REVERT JUMPDEST POP PUSH2 0x26E PUSH1 0x4 DUP1 CALLDATASIZE SUB DUP2 ADD SWAP1 PUSH2 0x269 SWAP2 SWAP1 PUSH2 0x288B JUMP JUMPDEST PUSH2 0xB9C JUMP JUMPDEST STOP JUMPDEST CALLVALUE DUP1 ISZERO PUSH2 0x27B JUMPI PUSH0 PUSH0 REVERT JUMPDEST POP PUSH2 0x296 PUSH1 0x4 DUP1 CALLDATASIZE SUB DUP2 ADD SWAP1 PUSH2 0x291 SWAP2 SWAP1 PUSH2 0x2776 JUMP JUMPDEST PUSH2 0xCD0 JUMP JUMPDEST STOP JUMPDEST CALLVALUE DUP1 ISZERO PUSH2 0x2A3 JUMPI PUSH0 PUSH0 REVERT JUMPDEST POP PUSH2 0x2AC PUSH2 0xEAC JUMP JUMPDEST STOP JUMPDEST CALLVALUE DUP1 ISZERO PUSH2 0x2B9 JUMPI PUSH0 PUSH0 REVERT JUMPDEST POP PUSH2 0x2C2 PUSH2 0xEBE JUMP JUMPDEST PUSH1 0x40 MLOAD PUSH2 0x2CF SWAP2 SWAP1 PUSH2 0x28B6 JUMP JUMPDEST PUSH1 0x40 MLOAD DUP1 SWAP2 SUB SWAP1 RETURN JUMPDEST CALLVALUE DUP1 ISZERO PUSH2 0x2E3 JUMPI PUSH0 PUSH0 REVERT JUMPDEST POP PUSH2 0x2FE PUSH1 0x4 DUP1 CALLDATASIZE SUB DUP2 ADD SWAP1 PUSH2 0x2F9 SWAP2 SWAP1 PUSH2 0x28F9 JUMP JUMPDEST PUSH2 0xEC4 JUMP JUMPDEST PUSH1 0x40 MLOAD PUSH2 0x30B SWAP2 SWAP1 PUSH2 0x2937 JUMP JUMPDEST PUSH1 0x40 MLOAD DUP1 SWAP2 SUB SWAP1 RETURN JUMPDEST CALLVALUE DUP1 ISZERO PUSH2 0x31F JUMPI PUSH0 PUSH0 REVERT JUMPDEST POP PUSH2 0x33A PUSH1 0x4 DUP1 CALLDATASIZE SUB DUP2 ADD SWAP1 PUSH2 0x335 SWAP2 SWAP1 PUSH2 0x2950 JUMP JUMPDEST PUSH2 0xEEE JUMP JUMPDEST STOP JUMPDEST CALLVALUE DUP1 ISZERO PUSH2 0x347 JUMPI PUSH0 PUSH0 REVERT JUMPDEST POP PUSH2 0x350 PUSH2 0xF4B JUMP JUMPDEST PUSH1 0x40 MLOAD PUSH2 0x35D SWAP2 SWAP1 PUSH2 0x29FB JUMP JUMPDEST PUSH1 0x40 MLOAD DUP1 SWAP2 SUB SWAP1 RETURN JUMPDEST CALLVALUE DUP1 ISZERO PUSH2 0x371 JUMPI PUSH0 PUSH0 REVERT JUMPDEST POP PUSH2 0x37A PUSH2 0xF70 JUMP JUMPDEST PUSH1 0x40 MLOAD PUSH2 0x387 SWAP2 SWAP1 PUSH2 0x2A14 JUMP JUMPDEST PUSH1 0x40 MLOAD DUP1 SWAP2 SUB SWAP1 RETURN JUMPDEST CALLVALUE DUP1 ISZERO PUSH2 0x39B JUMPI PUSH0 PUSH0 REVERT JUMPDEST POP PUSH2 0x3A4 PUSH2 0xF95 JUMP JUMPDEST PUSH1 0x40 MLOAD PUSH2 0x3B1 SWAP2 SWAP1 PUSH2 0x2937 JUMP JUMPDEST PUSH1 0x40 MLOAD DUP1 SWAP2 SUB SWAP1 RETURN JUMPDEST PUSH2 0x3C2 PUSH2 0xFAA JUMP JUMPDEST STOP JUMPDEST CALLVALUE DUP1 ISZERO PUSH2 0x3CF JUMPI PUSH0 PUSH0 REVERT JUMPDEST POP PUSH2 0x3EA PUSH1 0x4 DUP1 CALLDATASIZE SUB DUP2 ADD SWAP1 PUSH2 0x3E5 SWAP2 SWAP1 PUSH2 0x2A2D JUMP JUMPDEST PUSH2 0x108E JUMP JUMPDEST STOP JUMPDEST CALLVALUE DUP1 ISZERO PUSH2 0x3F7 JUMPI PUSH0 PUSH0 REVERT JUMPDEST POP PUSH2 0x400 PUSH2 0x12B1 JUMP JUMPDEST PUSH1 0x40 MLOAD PUSH2 0x40D SWAP2 SWAP1 PUSH2 0x28B6 JUMP JUMPDEST PUSH1 0x40 MLOAD DUP1 SWAP2 SUB SWAP1 RETURN JUMPDEST CALLVALUE DUP1 ISZERO PUSH2 0x421 JUMPI PUSH0 PUSH0 REVERT JUMPDEST POP PUSH2 0x42A PUSH2 0x12B7 JUMP JUMPDEST STOP JUMPDEST CALLVALUE DUP1 ISZERO PUSH2 0x437 JUMPI PUSH0 PUSH0 REVERT JUMPDEST POP PUSH2 0x452 PUSH1 0x4 DUP1 CALLDATASIZE SUB DUP2 ADD SWAP1 PUSH2 0x44D SWAP2 SWAP1 PUSH2 0x2AD2 JUMP JUMPDEST PUSH2 0x12CA JUMP JUMPDEST STOP JUMPDEST CALLVALUE DUP1 ISZERO PUSH2 0x45F JUMPI PUSH0 PUSH0 REVERT JUMPDEST POP PUSH2 0x468 PUSH2 0x18AD JUMP JUMPDEST STOP JUMPDEST CALLVALUE DUP1 ISZERO PUSH2 0x475 JUMPI PUSH0 PUSH0 REVERT JUMPDEST POP PUSH2 0x47E PUSH2 0x18BF JUMP JUMPDEST PUSH1 0x40 MLOAD PUSH2 0x48B SWAP2 SWAP1 PUSH2 0x28B6 JUMP JUMPDEST PUSH1 0x40 MLOAD DUP1 SWAP2 SUB SWAP1 RETURN JUMPDEST CALLVALUE DUP1 ISZERO PUSH2 0x49F JUMPI PUSH0 PUSH0 REVERT JUMPDEST POP PUSH2 0x4A8 PUSH2 0x18C5 JUMP JUMPDEST PUSH1 0x40 MLOAD PUSH2 0x4B5 SWAP2 SWAP1 PUSH2 0x2A14 JUMP JUMPDEST PUSH1 0x40 MLOAD DUP1 SWAP2 SUB SWAP1 RETURN JUMPDEST CALLVALUE DUP1 ISZERO PUSH2 0x4C9 JUMPI PUSH0 PUSH0 REVERT JUMPDEST POP PUSH2 0x4E4 PUSH1 0x4 DUP1 CALLDATASIZE SUB DUP2 ADD SWAP1 PUSH2 0x4DF SWAP2 SWAP1 PUSH2 0x2776 JUMP JUMPDEST PUSH2 0x18EC JUMP JUMPDEST STOP JUMPDEST CALLVALUE DUP1 ISZERO PUSH2 0x4F1 JUMPI PUSH0 PUSH0 REVERT JUMPDEST POP PUSH2 0x50C PUSH1 0x4 DUP1 CALLDATASIZE SUB DUP2 ADD SWAP1 PUSH2 0x507 SWAP2 SWAP1 PUSH2 0x2B2F JUMP JUMPDEST PUSH2 0x1B86 JUMP JUMPDEST STOP JUMPDEST CALLVALUE DUP1 ISZERO PUSH2 0x519 JUMPI PUSH0 PUSH0 REVERT JUMPDEST POP PUSH2 0x522 PUSH2 0x1C76 JUMP JUMPDEST PUSH1 0x40 MLOAD PUSH2 0x52F SWAP2 SWAP1 PUSH2 0x28B6 JUMP JUMPDEST PUSH1 0x40 MLOAD DUP1 SWAP2 SUB SWAP1 RETURN JUMPDEST CALLVALUE DUP1 ISZERO PUSH2 0x543 JUMPI PUSH0 PUSH0 REVERT JUMPDEST POP PUSH2 0x54C PUSH2 0x1C7C JUMP JUMPDEST PUSH1 0x40 MLOAD PUSH2 0x559 SWAP2 SWAP1 PUSH2 0x2B6D JUMP JUMPDEST PUSH1 0x40 MLOAD DUP1 SWAP2 SUB SWAP1 RETURN JUMPDEST CALLVALUE DUP1 ISZERO PUSH2 0x56D JUMPI PUSH0 PUSH0 REVERT JUMPDEST POP PUSH2 0x588 PUSH1 0x4 DUP1 CALLDATASIZE SUB DUP2 ADD SWAP1 PUSH2 0x583 SWAP2 SWAP1 PUSH2 0x2776 JUMP JUMPDEST PUSH2 0x1C82 JUMP JUMPDEST PUSH1 0x40 MLOAD PUSH2 0x59C SWAP9 SWAP8 SWAP7 SWAP6 SWAP5 SWAP4 SWAP3 SWAP2 SWAP1 PUSH2 0x2BA8 JUMP JUMPDEST PUSH1 0x40 MLOAD DUP1 SWAP2 SUB SWAP1 RETURN JUMPDEST CALLVALUE DUP1 ISZERO PUSH2 0x5B0 JUMPI PUSH0 PUSH0 REVERT JUMPDEST POP PUSH2 0x5B9 PUSH2 0x1D13 JUMP JUMPDEST PUSH1 0x40 MLOAD PUSH2 0x5C6 SWAP2 SWAP1 PUSH2 0x28B6 JUMP JUMPDEST PUSH1 0x40 MLOAD DUP1 SWAP2 SUB SWAP1 RETURN JUMPDEST CALLVALUE DUP1 ISZERO PUSH2 0x5DA JUMPI PUSH0 PUSH0 REVERT JUMPDEST POP PUSH2 0x5F5 PUSH1 0x4 DUP1 CALLDATASIZE SUB DUP2 ADD SWAP1 PUSH2 0x5F0 SWAP2 SWAP1 PUSH2 0x2776 JUMP JUMPDEST PUSH2 0x1D19 JUMP JUMPDEST STOP JUMPDEST CALLVALUE DUP1 ISZERO PUSH2 0x602 JUMPI PUSH0 PUSH0 REVERT JUMPDEST POP PUSH2 0x61D PUSH1 0x4 DUP1 CALLDATASIZE SUB DUP2 ADD SWAP1 PUSH2 0x618 SWAP2 SWAP1 PUSH2 0x288B JUMP JUMPDEST PUSH2 0x1EDB JUMP JUMPDEST STOP JUMPDEST CALLVALUE DUP1 ISZERO PUSH2 0x62A JUMPI PUSH0 PUSH0 REVERT JUMPDEST POP PUSH2 0x645 PUSH1 0x4 DUP1 CALLDATASIZE SUB DUP2 ADD SWAP1 PUSH2 0x640 SWAP2 SWAP1 PUSH2 0x288B JUMP JUMPDEST PUSH2 0x1F69 JUMP JUMPDEST STOP JUMPDEST PUSH2 0x64F PUSH2 0x1FED JUMP JUMPDEST STOP JUMPDEST CALLVALUE DUP1 ISZERO PUSH2 0x65C JUMPI PUSH0 PUSH0 REVERT JUMPDEST POP PUSH2 0x677 PUSH1 0x4 DUP1 CALLDATASIZE SUB DUP2 ADD SWAP1 PUSH2 0x672 SWAP2 SWAP1 PUSH2 0x288B JUMP JUMPDEST PUSH2 0x2097 JUMP JUMPDEST PUSH1 0x40 MLOAD PUSH2 0x684 SWAP2 SWAP1 PUSH2 0x28B6 JUMP JUMPDEST PUSH1 0x40 MLOAD DUP1 SWAP2 SUB SWAP1 RETURN JUMPDEST PUSH2 0x695 PUSH2 0x20AC JUMP JUMPDEST PUSH2 0x69D PUSH2 0x20F6 JUMP JUMPDEST PUSH0 PUSH1 0x9 PUSH0 DUP9 DUP2 MSTORE PUSH1 0x20 ADD SWAP1 DUP2 MSTORE PUSH1 0x20 ADD PUSH0 KECCAK256 SWAP1 POP PUSH0 DUP2 PUSH1 0x4 ADD PUSH0 SWAP1 SLOAD SWAP1 PUSH2 0x100 EXP SWAP1 DIV PUSH8 0xFFFFFFFFFFFFFFFF AND PUSH8 0xFFFFFFFFFFFFFFFF AND SUB PUSH2 0x70B JUMPI PUSH1 0x40 MLOAD PUSH32 0x9E15E1BC00000000000000000000000000000000000000000000000000000000 DUP2 MSTORE PUSH1 0x4 ADD PUSH1 0x40 MLOAD DUP1 SWAP2 SUB SWAP1 REVERT JUMPDEST DUP1 PUSH1 0x4 ADD PUSH1 0x9 SWAP1 SLOAD SWAP1 PUSH2 0x100 EXP SWAP1 DIV PUSH1 0xFF AND PUSH2 0x753 JUMPI PUSH1 0x40 MLOAD PUSH32 0x5565870F00000000000000000000000000000000000000000000000000000000 DUP2 MSTORE PUSH1 0x4 ADD PUSH1 0x40 MLOAD DUP1 SWAP2 SUB SWAP1 REVERT JUMPDEST PUSH0 DUP6 SUB PUSH2 0x78C JUMPI PUSH1 0x40 MLOAD PUSH32 0x1F2A200500000000000000000000000000000000000000000000000000000000 DUP2 MSTORE PUSH1 0x4 ADD PUSH1 0x40 MLOAD DUP1 SWAP2 SUB SWAP1 REVERT JUMPDEST PUSH0 CALLER DUP8 DUP8 DUP8 PUSH1 0x40 MLOAD PUSH1 0x20 ADD PUSH2 0x7A4 SWAP5 SWAP4 SWAP3 SWAP2 SWAP1 PUSH2 0x2C89 JUMP JUMPDEST PUSH1 0x40 MLOAD PUSH1 0x20 DUP2 DUP4 SUB SUB DUP2 MSTORE SWAP1 PUSH1 0x40 MSTORE DUP1 MLOAD SWAP1 PUSH1 0x20 ADD KECCAK256 SWAP1 POP PUSH1 0xC PUSH0 DUP10 DUP2 MSTORE PUSH1 0x20 ADD SWAP1 DUP2 MSTORE PUSH1 0x20 ADD PUSH0 KECCAK256 PUSH0 DUP3 DUP2 MSTORE PUSH1 0x20 ADD SWAP1 DUP2 MSTORE PUSH1 0x20 ADD PUSH0 KECCAK256 PUSH0 SWAP1 SLOAD SWAP1 PUSH2 0x100 EXP SWAP1 DIV PUSH1 0xFF AND ISZERO PUSH2 0x820 JUMPI PUSH1 0x40 MLOAD PUSH32 0x2F29B3DB00000000000000000000000000000000000000000000000000000000 DUP2 MSTORE PUSH1 0x4 ADD PUSH1 0x40 MLOAD DUP1 SWAP2 SUB SWAP1 REVERT JUMPDEST PUSH2 0x86F DUP5 DUP5 DUP1 DUP1 PUSH1 0x20 MUL PUSH1 0x20 ADD PUSH1 0x40 MLOAD SWAP1 DUP2 ADD PUSH1 0x40 MSTORE DUP1 SWAP4 SWAP3 SWAP2 SWAP1 DUP2 DUP2 MSTORE PUSH1 0x20 ADD DUP4 DUP4 PUSH1 0x20 MUL DUP1 DUP3 DUP5 CALLDATACOPY PUSH0 DUP2 DUP5 ADD MSTORE PUSH1 0x1F NOT PUSH1 0x1F DUP3 ADD AND SWAP1 POP DUP1 DUP4 ADD SWAP3 POP POP POP POP POP POP POP DUP4 PUSH1 0x3 ADD SLOAD DUP4 PUSH2 0x2145 JUMP JUMPDEST PUSH2 0x8A5 JUMPI PUSH1 0x40 MLOAD PUSH32 0x9BDE33900000000000000000000000000000000000000000000000000000000 DUP2 MSTORE PUSH1 0x4 ADD PUSH1 0x40 MLOAD DUP1 SWAP2 SUB SWAP1 REVERT JUMPDEST PUSH1 0x1 PUSH1 0xC PUSH0 DUP11 DUP2 MSTORE PUSH1 0x20 ADD SWAP1 DUP2 MSTORE PUSH1 0x20 ADD PUSH0 KECCAK256 PUSH0 DUP4 DUP2 MSTORE PUSH1 0x20 ADD SWAP1 DUP2 MSTORE PUSH1 0x20 ADD PUSH0 KECCAK256 PUSH0 PUSH2 0x100 EXP DUP2 SLOAD DUP2 PUSH1 0xFF MUL NOT AND SWAP1 DUP4 ISZERO ISZERO MUL OR SWAP1 SSTORE POP PUSH0 PUSH20 0xFFFFFFFFFFFFFFFFFFFFFFFFFFFFFFFFFFFFFFFF AND DUP8 PUSH20 0xFFFFFFFFFFFFFFFFFFFFFFFFFFFFFFFFFFFFFFFF AND SUB PUSH2 0x9B5 JUMPI PUSH0 CALLER PUSH20 0xFFFFFFFFFFFFFFFFFFFFFFFFFFFFFFFFFFFFFFFF AND DUP8 PUSH1 0x40 MLOAD PUSH2 0x935 SWAP1 PUSH2 0x2D03 JUMP JUMPDEST PUSH0 PUSH1 0x40 MLOAD DUP1 DUP4 SUB DUP2 DUP6 DUP8 GAS CALL SWAP3 POP POP POP RETURNDATASIZE DUP1 PUSH0 DUP2 EQ PUSH2 0x96F JUMPI PUSH1 0x40 MLOAD SWAP2 POP PUSH1 0x1F NOT PUSH1 0x3F RETURNDATASIZE ADD AND DUP3 ADD PUSH1 0x40 MSTORE RETURNDATASIZE DUP3 MSTORE RETURNDATASIZE PUSH0 PUSH1 0x20 DUP5 ADD RETURNDATACOPY PUSH2 0x974 JUMP JUMPDEST PUSH1 0x60 SWAP2 POP JUMPDEST POP POP SWAP1 POP DUP1 PUSH2 0x9AF JUMPI PUSH1 0x40 MLOAD PUSH32 0x90B8EC1800000000000000000000000000000000000000000000000000000000 DUP2 MSTORE PUSH1 0x4 ADD PUSH1 0x40 MLOAD DUP1 SWAP2 SUB SWAP1 REVERT JUMPDEST POP PUSH2 0x9E1 JUMP JUMPDEST PUSH2 0x9E0 CALLER DUP8 DUP10 PUSH20 0xFFFFFFFFFFFFFFFFFFFFFFFFFFFFFFFFFFFFFFFF AND PUSH2 0x215B SWAP1 SWAP3 SWAP2 SWAP1 PUSH4 0xFFFFFFFF AND JUMP JUMPDEST JUMPDEST DUP7 PUSH20 0xFFFFFFFFFFFFFFFFFFFFFFFFFFFFFFFFFFFFFFFF AND CALLER PUSH20 0xFFFFFFFFFFFFFFFFFFFFFFFFFFFFFFFFFFFFFFFF AND DUP10 PUSH32 0x8C6F1F453248546230EDCA559F3FCDDBEA2F6C7C33A0F7899C403D78DFB642F2 DUP10 DUP10 PUSH1 0x40 MLOAD PUSH2 0xA41 SWAP3 SWAP2 SWAP1 PUSH2 0x2D17 JUMP JUMPDEST PUSH1 0x40 MLOAD DUP1 SWAP2 SUB SWAP1 LOG4 POP POP PUSH2 0xA53 PUSH2 0x21DA JUMP JUMPDEST POP POP POP POP POP POP JUMP JUMPDEST PUSH0 PUSH0 PUSH0 PUSH0 PUSH0 PUSH0 PUSH0 PUSH0 PUSH0 PUSH0 PUSH0 PUSH1 0x9 PUSH0 DUP14 DUP2 MSTORE PUSH1 0x20 ADD SWAP1 DUP2 MSTORE PUSH1 0x20 ADD PUSH0 KECCAK256 SWAP1 POP PUSH0 DUP2 PUSH1 0x4 ADD PUSH0 SWAP1 SLOAD SWAP1 PUSH2 0x100 EXP SWAP1 DIV PUSH8 0xFFFFFFFFFFFFFFFF AND PUSH8 0xFFFFFFFFFFFFFFFF AND EQ ISZERO SWAP11 POP DUP1 PUSH1 0x4 ADD PUSH1 0x8 SWAP1 SLOAD SWAP1 PUSH2 0x100 EXP SWAP1 DIV PUSH1 0xFF AND SWAP10 POP DUP1 PUSH1 0x4 ADD PUSH1 0x9 SWAP1 SLOAD SWAP1 PUSH2 0x100 EXP SWAP1 DIV PUSH1 0xFF AND SWAP9 POP DUP1 PUSH1 0x4 ADD PUSH0 SWAP1 SLOAD SWAP1 PUSH2 0x100 EXP SWAP1 DIV PUSH8 0xFFFFFFFFFFFFFFFF AND PUSH8 0xFFFFFFFFFFFFFFFF AND SWAP8 POP PUSH0 DUP2 PUSH1 0x4 ADD PUSH0 SWAP1 SLOAD SWAP1 PUSH2 0x100 EXP SWAP1 DIV PUSH8 0xFFFFFFFFFFFFFFFF AND PUSH8 0xFFFFFFFFFFFFFFFF AND EQ PUSH2 0xB48 JUMPI PUSH1 0x6 SLOAD DUP2 PUSH1 0x4 ADD PUSH0 SWAP1 SLOAD SWAP1 PUSH2 0x100 EXP SWAP1 DIV PUSH8 0xFFFFFFFFFFFFFFFF AND PUSH8 0xFFFFFFFFFFFFFFFF AND PUSH2 0xB43 SWAP2 SWAP1 PUSH2 0x2D6B JUMP JUMPDEST PUSH2 0xB4A JUMP JUMPDEST PUSH0 JUMPDEST SWAP7 POP DUP1 PUSH0 ADD SLOAD SWAP6 POP DUP1 PUSH1 0x1 ADD SLOAD SWAP5 POP DUP1 PUSH1 0x2 ADD SLOAD SWAP4 POP DUP1 PUSH1 0x3 ADD SLOAD SWAP3 POP DUP1 PUSH1 0x4 ADD PUSH1 0xA SWAP1 SLOAD SWAP1 PUSH2 0x100 EXP SWAP1 DIV PUSH20 0xFFFFFFFFFFFFFFFFFFFFFFFFFFFFFFFFFFFFFFFF AND SWAP2 POP POP SWAP2 SWAP4 SWAP6 SWAP8 SWAP10 POP SWAP2 SWAP4 SWAP6 SWAP8 SWAP10 JUMP JUMPDEST PUSH2 0xBA4 PUSH2 0x21E3 JUMP JUMPDEST PUSH0 PUSH20 0xFFFFFFFFFFFFFFFFFFFFFFFFFFFFFFFFFFFFFFFF AND DUP2 PUSH20 0xFFFFFFFFFFFFFFFFFFFFFFFFFFFFFFFFFFFFFFFF AND SUB PUSH2 0xC12 JUMPI PUSH1 0x40 MLOAD PUSH32 0x8C379A000000000000000000000000000000000000000000000000000000000 DUP2 MSTORE PUSH1 0x4 ADD PUSH2 0xC09 SWAP1 PUSH2 0x2DF8 JUMP JUMPDEST PUSH1 0x40 MLOAD DUP1 SWAP2 SUB SWAP1 REVERT JUMPDEST DUP1 PUSH20 0xFFFFFFFFFFFFFFFFFFFFFFFFFFFFFFFFFFFFFFFF AND PUSH1 0x2 PUSH0 SWAP1 SLOAD SWAP1 PUSH2 0x100 EXP SWAP1 DIV PUSH20 0xFFFFFFFFFFFFFFFFFFFFFFFFFFFFFFFFFFFFFFFF AND PUSH20 0xFFFFFFFFFFFFFFFFFFFFFFFFFFFFFFFFFFFFFFFF AND PUSH32 0xCD58B762453BD126B48DB83F2CECD464F5281DD7E5E6824B528C09D0482984D6 PUSH1 0x40 MLOAD PUSH1 0x40 MLOAD DUP1 SWAP2 SUB SWAP1 LOG3 DUP1 PUSH1 0x2 PUSH0 PUSH2 0x100 EXP DUP2 SLOAD DUP2 PUSH20 0xFFFFFFFFFFFFFFFFFFFFFFFFFFFFFFFFFFFFFFFF MUL NOT AND SWAP1 DUP4 PUSH20 0xFFFFFFFFFFFFFFFFFFFFFFFFFFFFFFFFFFFFFFFF AND MUL OR SWAP1 SSTORE POP POP JUMP JUMPDEST PUSH2 0xCD8 PUSH2 0x20AC JUMP JUMPDEST PUSH2 0xCE0 PUSH2 0x20F6 JUMP JUMPDEST DUP1 PUSH1 0x7 PUSH0 CALLER PUSH20 0xFFFFFFFFFFFFFFFFFFFFFFFFFFFFFFFFFFFFFFFF AND PUSH20 0xFFFFFFFFFFFFFFFFFFFFFFFFFFFFFFFFFFFFFFFF AND DUP2 MSTORE PUSH1 0x20 ADD SWAP1 DUP2 MSTORE PUSH1 0x20 ADD PUSH0 KECCAK256 SLOAD LT ISZERO PUSH2 0xD60 JUMPI PUSH1 0x40 MLOAD PUSH32 0x8C379A000000000000000000000000000000000000000000000000000000000 DUP2 MSTORE PUSH1 0x4 ADD PUSH2 0xD57 SWAP1 PUSH2 0x2E60 JUMP JUMPDEST PUSH1 0x40 MLOAD DUP1 SWAP2 SUB SWAP1 REVERT JUMPDEST DUP1 PUSH1 0x7 PUSH0 CALLER PUSH20 0xFFFFFFFFFFFFFFFFFFFFFFFFFFFFFFFFFFFFFFFF AND PUSH20 0xFFFFFFFFFFFFFFFFFFFFFFFFFFFFFFFFFFFFFFFF AND DUP2 MSTORE PUSH1 0x20 ADD SWAP1 DUP2 MSTORE PUSH1 0x20 ADD PUSH0 KECCAK256 PUSH0 DUP3 DUP3 SLOAD PUSH2 0xDAC SWAP2 SWAP1 PUSH2 0x2E7E JUMP JUMPDEST SWAP3 POP POP DUP2 SWAP1 SSTORE POP PUSH0 CALLER PUSH20 0xFFFFFFFFFFFFFFFFFFFFFFFFFFFFFFFFFFFFFFFF AND DUP3 PUSH1 0x40 MLOAD PUSH2 0xDD8 SWAP1 PUSH2 0x2D03 JUMP JUMPDEST PUSH0 PUSH1 0x40 MLOAD DUP1 DUP4 SUB DUP2 DUP6 DUP8 GAS CALL SWAP3 POP POP POP RETURNDATASIZE DUP1 PUSH0 DUP2 EQ PUSH2 0xE12 JUMPI PUSH1 0x40 MLOAD SWAP2 POP PUSH1 0x1F NOT PUSH1 0x3F RETURNDATASIZE ADD AND DUP3 ADD PUSH1 0x40 MSTORE RETURNDATASIZE DUP3 MSTORE RETURNDATASIZE PUSH0 PUSH1 0x20 DUP5 ADD RETURNDATACOPY PUSH2 0xE17 JUMP JUMPDEST PUSH1 0x60 SWAP2 POP JUMPDEST POP POP SWAP1 POP DUP1 PUSH2 0xE52 JUMPI PUSH1 0x40 MLOAD PUSH32 0x90B8EC1800000000000000000000000000000000000000000000000000000000 DUP2 MSTORE PUSH1 0x4 ADD PUSH1 0x40 MLOAD DUP1 SWAP2 SUB SWAP1 REVERT JUMPDEST CALLER PUSH20 0xFFFFFFFFFFFFFFFFFFFFFFFFFFFFFFFFFFFFFFFF AND PUSH32 0xD24DBF5E9299CE53C3AA9F7227FF1CC8441C2FAAE04509AA370CA3703385D6B4 DUP4 PUSH1 0x40 MLOAD PUSH2 0xE98 SWAP2 SWAP1 PUSH2 0x28B6 JUMP JUMPDEST PUSH1 0x40 MLOAD DUP1 SWAP2 SUB SWAP1 LOG2 POP PUSH2 0xEA9 PUSH2 0x21DA JUMP JUMPDEST POP JUMP JUMPDEST PUSH2 0xEB4 PUSH2 0x21E3 JUMP JUMPDEST PUSH2 0xEBC PUSH2 0x226A JUMP JUMPDEST JUMP JUMPDEST PUSH1 0x8 SLOAD DUP2 JUMP JUMPDEST PUSH1 0xC PUSH1 0x20 MSTORE DUP2 PUSH0 MSTORE PUSH1 0x40 PUSH0 KECCAK256 PUSH1 0x20 MSTORE DUP1 PUSH0 MSTORE PUSH1 0x40 PUSH0 KECCAK256 PUSH0 SWAP2 POP SWAP2 POP SWAP1 SLOAD SWAP1 PUSH2 0x100 EXP SWAP1 DIV PUSH1 0xFF AND DUP2 JUMP JUMPDEST PUSH2 0xEF6 PUSH2 0x21E3 JUMP JUMPDEST DUP3 PUSH1 0x6 DUP2 SWAP1 SSTORE POP DUP2 PUSH1 0x4 DUP2 SWAP1 SSTORE POP DUP1 PUSH1 0x5 DUP2 SWAP1 SSTORE POP PUSH32 0xCBA168CFA7900657E5F8CC53D6F52EBBFA3A9F568941B465CC4F731C60C95B2 DUP4 DUP4 DUP4 PUSH1 0x40 MLOAD PUSH2 0xF3E SWAP4 SWAP3 SWAP2 SWAP1 PUSH2 0x2EB1 JUMP JUMPDEST PUSH1 0x40 MLOAD DUP1 SWAP2 SUB SWAP1 LOG1 POP POP POP JUMP JUMPDEST PUSH1 0x3 PUSH0 SWAP1 SLOAD SWAP1 PUSH2 0x100 EXP SWAP1 DIV PUSH20 0xFFFFFFFFFFFFFFFFFFFFFFFFFFFFFFFFFFFFFFFF AND DUP2 JUMP JUMPDEST PUSH1 0x2 PUSH0 SWAP1 SLOAD SWAP1 PUSH2 0x100 EXP SWAP1 DIV PUSH20 0xFFFFFFFFFFFFFFFFFFFFFFFFFFFFFFFFFFFFFFFF AND DUP2 JUMP JUMPDEST PUSH0 PUSH0 PUSH1 0x14 SWAP1 SLOAD SWAP1 PUSH2 0x100 EXP SWAP1 DIV PUSH1 0xFF AND SWAP1 POP SWAP1 JUMP JUMPDEST PUSH2 0xFB2 PUSH2 0x20AC JUMP JUMPDEST PUSH0 CALLVALUE SUB PUSH2 0xFEB JUMPI PUSH1 0x40 MLOAD PUSH32 0x1F2A200500000000000000000000000000000000000000000000000000000000 DUP2 MSTORE PUSH1 0x4 ADD PUSH1 0x40 MLOAD DUP1 SWAP2 SUB SWAP1 REVERT JUMPDEST CALLVALUE PUSH1 0x7 PUSH0 CALLER PUSH20 0xFFFFFFFFFFFFFFFFFFFFFFFFFFFFFFFFFFFFFFFF AND PUSH20 0xFFFFFFFFFFFFFFFFFFFFFFFFFFFFFFFFFFFFFFFF AND DUP2 MSTORE PUSH1 0x20 ADD SWAP1 DUP2 MSTORE PUSH1 0x20 ADD PUSH0 KECCAK256 PUSH0 DUP3 DUP3 SLOAD PUSH2 0x1037 SWAP2 SWAP1 PUSH2 0x2D6B JUMP JUMPDEST SWAP3 POP POP DUP2 SWAP1 SSTORE POP CALLER PUSH20 0xFFFFFFFFFFFFFFFFFFFFFFFFFFFFFFFFFFFFFFFF AND PUSH32 0xD0A009034E24A39106653C4903CF28B1947B8A9964D03206648E0F0A5DE74A46 CALLVALUE PUSH1 0x40 MLOAD PUSH2 0x1084 SWAP2 SWAP1 PUSH2 0x28B6 JUMP JUMPDEST PUSH1 0x40 MLOAD DUP1 SWAP2 SUB SWAP1 LOG2 JUMP JUMPDEST PUSH2 0x1096 PUSH2 0x20AC JUMP JUMPDEST PUSH1 0x2 PUSH0 SWAP1 SLOAD SWAP1 PUSH2 0x100 EXP SWAP1 DIV PUSH20 0xFFFFFFFFFFFFFFFFFFFFFFFFFFFFFFFFFFFFFFFF AND PUSH20 0xFFFFFFFFFFFFFFFFFFFFFFFFFFFFFFFFFFFFFFFF AND CALLER PUSH20 0xFFFFFFFFFFFFFFFFFFFFFFFFFFFFFFFFFFFFFFFF AND EQ PUSH2 0x111C JUMPI PUSH1 0x40 MLOAD PUSH32 0x53E2827C00000000000000000000000000000000000000000000000000000000 DUP2 MSTORE PUSH1 0x4 ADD PUSH1 0x40 MLOAD DUP1 SWAP2 SUB SWAP1 REVERT JUMPDEST PUSH1 0x4 SLOAD PUSH1 0x7 PUSH0 CALLER PUSH20 0xFFFFFFFFFFFFFFFFFFFFFFFFFFFFFFFFFFFFFFFF AND PUSH20 0xFFFFFFFFFFFFFFFFFFFFFFFFFFFFFFFFFFFFFFFF AND DUP2 MSTORE PUSH1 0x20 ADD SWAP1 DUP2 MSTORE PUSH1 0x20 ADD PUSH0 KECCAK256 SLOAD LT ISZERO PUSH2 0x119E JUMPI PUSH1 0x40 MLOAD PUSH32 0x8C379A000000000000000000000000000000000000000000000000000000000 DUP2 MSTORE PUSH1 0x4 ADD PUSH2 0x1195 SWAP1 PUSH2 0x2F30 JUMP JUMPDEST PUSH1 0x40 MLOAD DUP1 SWAP2 SUB SWAP1 REVERT JUMPDEST PUSH0 PUSH0 SHL DUP4 EQ DUP1 PUSH2 0x11AF JUMPI POP PUSH0 PUSH0 SHL DUP3 EQ JUMPDEST ISZERO PUSH2 0x11E6 JUMPI PUSH1 0x40 MLOAD PUSH32 0x86BDC25C00000000000000000000000000000000000000000000000000000000 DUP2 MSTORE PUSH1 0x4 ADD PUSH1 0x40 MLOAD DUP1 SWAP2 SUB SWAP1 REVERT JUMPDEST PUSH0 PUSH1 0x8 PUSH0 DUP2 SLOAD PUSH2 0x11F5 SWAP1 PUSH2 0x2F4E JUMP JUMPDEST SWAP2 SWAP1 POP DUP2 SWAP1 SSTORE SWAP1 POP PUSH0 PUSH1 0x9 PUSH0 DUP4 DUP2 MSTORE PUSH1 0x20 ADD SWAP1 DUP2 MSTORE PUSH1 0x20 ADD PUSH0 KECCAK256 SWAP1 POP PUSH1 0xA SLOAD DUP2 PUSH0 ADD DUP2 SWAP1 SSTORE POP DUP5 DUP2 PUSH1 0x1 ADD DUP2 SWAP1 SSTORE POP DUP4 DUP2 PUSH1 0x2 ADD DUP2 SWAP1 SSTORE POP DUP3 DUP2 PUSH1 0x3 ADD DUP2 SWAP1 SSTORE POP TIMESTAMP DUP2 PUSH1 0x4 ADD PUSH0 PUSH2 0x100 EXP DUP2 SLOAD DUP2 PUSH8 0xFFFFFFFFFFFFFFFF MUL NOT AND SWAP1 DUP4 PUSH8 0xFFFFFFFFFFFFFFFF AND MUL OR SWAP1 SSTORE POP DUP1 PUSH1 0x1 ADD SLOAD DUP2 PUSH0 ADD SLOAD DUP4 PUSH32 0x65300CE317AB79E5474EEFCB0C14E8D429B3E59746933DBB8E07F051347C4190 DUP8 DUP8 PUSH1 0x40 MLOAD PUSH2 0x129B SWAP3 SWAP2 SWAP1 PUSH2 0x2F95 JUMP JUMPDEST PUSH1 0x40 MLOAD DUP1 SWAP2 SUB SWAP1 LOG4 DUP5 PUSH1 0xA DUP2 SWAP1 SSTORE POP POP POP POP POP POP JUMP JUMPDEST PUSH1 0x5 SLOAD DUP2 JUMP JUMPDEST PUSH2 0x12BF PUSH2 0x21E3 JUMP JUMPDEST PUSH2 0x12C8 PUSH0 PUSH2 0x22CB JUMP JUMPDEST JUMP JUMPDEST PUSH2 0x12D2 PUSH2 0x20AC JUMP JUMPDEST PUSH0 PUSH1 0x9 PUSH0 DUP6 DUP2 MSTORE PUSH1 0x20 ADD SWAP1 DUP2 MSTORE PUSH1 0x20 ADD PUSH0 KECCAK256 SWAP1 POP PUSH0 DUP2 PUSH1 0x4 ADD PUSH0 SWAP1 SLOAD SWAP1 PUSH2 0x100 EXP SWAP1 DIV PUSH8 0xFFFFFFFFFFFFFFFF AND PUSH8 0xFFFFFFFFFFFFFFFF AND SUB PUSH2 0x1340 JUMPI PUSH1 0x40 MLOAD PUSH32 0x9E15E1BC00000000000000000000000000000000000000000000000000000000 DUP2 MSTORE PUSH1 0x4 ADD PUSH1 0x40 MLOAD DUP1 SWAP2 SUB SWAP1 REVERT JUMPDEST DUP1 PUSH1 0x4 ADD PUSH1 0x8 SWAP1 SLOAD SWAP1 PUSH2 0x100 EXP SWAP1 DIV PUSH1 0xFF AND PUSH2 0x1388 JUMPI PUSH1 0x40 MLOAD PUSH32 0xD44BE46E00000000000000000000000000000000000000000000000000000000 DUP2 MSTORE PUSH1 0x4 ADD PUSH1 0x40 MLOAD DUP1 SWAP2 SUB SWAP1 REVERT JUMPDEST DUP1 PUSH1 0x4 ADD PUSH1 0x9 SWAP1 SLOAD SWAP1 PUSH2 0x100 EXP SWAP1 DIV PUSH1 0xFF AND ISZERO PUSH2 0x13D1 JUMPI PUSH1 0x40 MLOAD PUSH32 0x8A66D60700000000000000000000000000000000000000000000000000000000 DUP2 MSTORE PUSH1 0x4 ADD PUSH1 0x40 MLOAD DUP1 SWAP2 SUB SWAP1 REVERT JUMPDEST DUP1 PUSH1 0x4 ADD PUSH1 0xA SWAP1 SLOAD SWAP1 PUSH2 0x100 EXP SWAP1 DIV PUSH20 0xFFFFFFFFFFFFFFFFFFFFFFFFFFFFFFFFFFFFFFFF AND PUSH20 0xFFFFFFFFFFFFFFFFFFFFFFFFFFFFFFFFFFFFFFFF AND CALLER PUSH20 0xFFFFFFFFFFFFFFFFFFFFFFFFFFFFFFFFFFFFFFFF AND EQ ISZERO DUP1 ISZERO PUSH2 0x1464 JUMPI POP PUSH2 0x1434 PUSH2 0x18C5 JUMP JUMPDEST PUSH20 0xFFFFFFFFFFFFFFFFFFFFFFFFFFFFFFFFFFFFFFFF AND CALLER PUSH20 0xFFFFFFFFFFFFFFFFFFFFFFFFFFFFFFFFFFFFFFFF AND EQ ISZERO JUMPDEST ISZERO PUSH2 0x149B JUMPI PUSH1 0x40 MLOAD PUSH32 0xD44BE46E00000000000000000000000000000000000000000000000000000000 DUP2 MSTORE PUSH1 0x4 ADD PUSH1 0x40 MLOAD DUP1 SWAP2 SUB SWAP1 REVERT JUMPDEST PUSH0 PUSH20 0xFFFFFFFFFFFFFFFFFFFFFFFFFFFFFFFFFFFFFFFF AND PUSH1 0x3 PUSH0 SWAP1 SLOAD SWAP1 PUSH2 0x100 EXP SWAP1 DIV PUSH20 0xFFFFFFFFFFFFFFFFFFFFFFFFFFFFFFFFFFFFFFFF AND PUSH20 0xFFFFFFFFFFFFFFFFFFFFFFFFFFFFFFFFFFFFFFFF AND SUB PUSH2 0x1521 JUMPI PUSH1 0x40 MLOAD PUSH32 0x9BDE33900000000000000000000000000000000000000000000000000000000 DUP2 MSTORE PUSH1 0x4 ADD PUSH1 0x40 MLOAD DUP1 SWAP2 SUB SWAP1 REVERT JUMPDEST PUSH0 PUSH1 0x3 PUSH0 SWAP1 SLOAD SWAP1 PUSH2 0x100 EXP SWAP1 DIV PUSH20 0xFFFFFFFFFFFFFFFFFFFFFFFFFFFFFFFFFFFFFFFF AND PUSH20 0xFFFFFFFFFFFFFFFFFFFFFFFFFFFFFFFFFFFFFFFF AND PUSH4 0x8606D488 DUP6 DUP6 DUP6 PUSH1 0x2 ADD SLOAD DUP7 PUSH0 ADD SLOAD DUP8 PUSH1 0x1 ADD SLOAD PUSH1 0x40 MLOAD DUP7 PUSH4 0xFFFFFFFF AND PUSH1 0xE0 SHL DUP2 MSTORE PUSH1 0x4 ADD PUSH2 0x158F SWAP6 SWAP5 SWAP4 SWAP3 SWAP2 SWAP1 PUSH2 0x3016 JUMP JUMPDEST PUSH1 0x20 PUSH1 0x40 MLOAD DUP1 DUP4 SUB DUP2 DUP7 GAS STATICCALL ISZERO DUP1 ISZERO PUSH2 0x15AA JUMPI RETURNDATASIZE PUSH0 PUSH0 RETURNDATACOPY RETURNDATASIZE PUSH0 REVERT JUMPDEST POP POP POP POP PUSH1 0x40 MLOAD RETURNDATASIZE PUSH1 0x1F NOT PUSH1 0x1F DUP3 ADD AND DUP3 ADD DUP1 PUSH1 0x40 MSTORE POP DUP2 ADD SWAP1 PUSH2 0x15CE SWAP2 SWAP1 PUSH2 0x308C JUMP JUMPDEST SWAP1 POP DUP1 ISZERO PUSH2 0x1752 JUMPI PUSH0 PUSH1 0x2 PUSH1 0x4 SLOAD PUSH2 0x15E6 SWAP2 SWAP1 PUSH2 0x30E4 JUMP JUMPDEST SWAP1 POP PUSH0 PUSH1 0x7 PUSH0 PUSH1 0x2 PUSH0 SWAP1 SLOAD SWAP1 PUSH2 0x100 EXP SWAP1 DIV PUSH20 0xFFFFFFFFFFFFFFFFFFFFFFFFFFFFFFFFFFFFFFFF AND PUSH20 0xFFFFFFFFFFFFFFFFFFFFFFFFFFFFFFFFFFFFFFFF AND PUSH20 0xFFFFFFFFFFFFFFFFFFFFFFFFFFFFFFFFFFFFFFFF AND DUP2 MSTORE PUSH1 0x20 ADD SWAP1 DUP2 MSTORE PUSH1 0x20 ADD PUSH0 KECCAK256 SLOAD SWAP1 POP PUSH0 DUP2 DUP4 GT PUSH2 0x1658 JUMPI DUP3 PUSH2 0x165A JUMP JUMPDEST DUP2 JUMPDEST SWAP1 POP PUSH0 DUP2 GT ISZERO PUSH2 0x174A JUMPI DUP1 DUP3 PUSH2 0x1670 SWAP2 SWAP1 PUSH2 0x2E7E JUMP JUMPDEST PUSH1 0x7 PUSH0 PUSH1 0x2 PUSH0 SWAP1 SLOAD SWAP1 PUSH2 0x100 EXP SWAP1 DIV PUSH20 0xFFFFFFFFFFFFFFFFFFFFFFFFFFFFFFFFFFFFFFFF AND PUSH20 0xFFFFFFFFFFFFFFFFFFFFFFFFFFFFFFFFFFFFFFFF AND PUSH20 0xFFFFFFFFFFFFFFFFFFFFFFFFFFFFFFFFFFFFFFFF AND DUP2 MSTORE PUSH1 0x20 ADD SWAP1 DUP2 MSTORE PUSH1 0x20 ADD PUSH0 KECCAK256 DUP2 SWAP1 SSTORE POP DUP1 PUSH1 0x7 PUSH0 DUP8 PUSH1 0x4 ADD PUSH1 0xA SWAP1 SLOAD SWAP1 PUSH2 0x100 EXP SWAP1 DIV PUSH20 0xFFFFFFFFFFFFFFFFFFFFFFFFFFFFFFFFFFFFFFFF AND PUSH20 0xFFFFFFFFFFFFFFFFFFFFFFFFFFFFFFFFFFFFFFFF AND PUSH20 0xFFFFFFFFFFFFFFFFFFFFFFFFFFFFFFFFFFFFFFFF AND DUP2 MSTORE PUSH1 0x20 ADD SWAP1 DUP2 MSTORE PUSH1 0x20 ADD PUSH0 KECCAK256 PUSH0 DUP3 DUP3 SLOAD PUSH2 0x1742 SWAP2 SWAP1 PUSH2 0x2D6B JUMP JUMPDEST SWAP3 POP POP DUP2 SWAP1 SSTORE POP JUMPDEST POP POP POP PUSH2 0x1852 JUMP JUMPDEST PUSH0 PUSH1 0xA PUSH1 0x5 SLOAD PUSH2 0x1762 SWAP2 SWAP1 PUSH2 0x30E4 JUMP JUMPDEST SWAP1 POP PUSH0 PUSH1 0x7 PUSH0 DUP6 PUSH1 0x4 ADD PUSH1 0xA SWAP1 SLOAD SWAP1 PUSH2 0x100 EXP SWAP1 DIV PUSH20 0xFFFFFFFFFFFFFFFFFFFFFFFFFFFFFFFFFFFFFFFF AND PUSH20 0xFFFFFFFFFFFFFFFFFFFFFFFFFFFFFFFFFFFFFFFF AND PUSH20 0xFFFFFFFFFFFFFFFFFFFFFFFFFFFFFFFFFFFFFFFF AND DUP2 MSTORE PUSH1 0x20 ADD SWAP1 DUP2 MSTORE PUSH1 0x20 ADD PUSH0 KECCAK256 SLOAD SWAP1 POP PUSH0 DUP3 GT DUP1 ISZERO PUSH2 0x17D8 JUMPI POP DUP2 DUP2 LT ISZERO JUMPDEST ISZERO PUSH2 0x184F JUMPI DUP2 DUP2 PUSH2 0x17E9 SWAP2 SWAP1 PUSH2 0x2E7E JUMP JUMPDEST PUSH1 0x7 PUSH0 DUP7 PUSH1 0x4 ADD PUSH1 0xA SWAP1 SLOAD SWAP1 PUSH2 0x100 EXP SWAP1 DIV PUSH20 0xFFFFFFFFFFFFFFFFFFFFFFFFFFFFFFFFFFFFFFFF AND PUSH20 0xFFFFFFFFFFFFFFFFFFFFFFFFFFFFFFFFFFFFFFFF AND PUSH20 0xFFFFFFFFFFFFFFFFFFFFFFFFFFFFFFFFFFFFFFFF AND DUP2 MSTORE PUSH1 0x20 ADD SWAP1 DUP2 MSTORE PUSH1 0x20 ADD PUSH0 KECCAK256 DUP2 SWAP1 SSTORE POP JUMPDEST POP POP JUMPDEST PUSH0 DUP3 PUSH1 0x4 ADD PUSH1 0x8 PUSH2 0x100 EXP DUP2 SLOAD DUP2 PUSH1 0xFF MUL NOT AND SWAP1 DUP4 ISZERO ISZERO MUL OR SWAP1 SSTORE POP DUP5 PUSH32 0x1C13286911EA61AB9E07CF462B69B2C12954593A03380A618AFDF62D227021AE DUP3 PUSH1 0x40 MLOAD PUSH2 0x189E SWAP2 SWAP1 PUSH2 0x2937 JUMP JUMPDEST PUSH1 0x40 MLOAD DUP1 SWAP2 SUB SWAP1 LOG2 POP POP POP POP POP JUMP JUMPDEST PUSH2 0x18B5 PUSH2 0x21E3 JUMP JUMPDEST PUSH2 0x18BD PUSH2 0x238C JUMP JUMPDEST JUMP JUMPDEST PUSH1 0x6 SLOAD DUP2 JUMP JUMPDEST PUSH0 PUSH0 PUSH0 SWAP1 SLOAD SWAP1 PUSH2 0x100 EXP SWAP1 DIV PUSH20 0xFFFFFFFFFFFFFFFFFFFFFFFFFFFFFFFFFFFFFFFF AND SWAP1 POP SWAP1 JUMP JUMPDEST PUSH2 0x18F4 PUSH2 0x20AC JUMP JUMPDEST PUSH0 PUSH1 0x9 PUSH0 DUP4 DUP2 MSTORE PUSH1 0x20 ADD SWAP1 DUP2 MSTORE PUSH1 0x20 ADD PUSH0 KECCAK256 SWAP1 POP PUSH0 DUP2 PUSH1 0x4 ADD PUSH0 SWAP1 SLOAD SWAP1 PUSH2 0x100 EXP SWAP1 DIV PUSH8 0xFFFFFFFFFFFFFFFF AND PUSH8 0xFFFFFFFFFFFFFFFF AND SUB PUSH2 0x1962 JUMPI PUSH1 0x40 MLOAD PUSH32 0x9E15E1BC00000000000000000000000000000000000000000000000000000000 DUP2 MSTORE PUSH1 0x4 ADD PUSH1 0x40 MLOAD DUP1 SWAP2 SUB SWAP1 REVERT JUMPDEST DUP1 PUSH1 0x4 ADD PUSH1 0x9 SWAP1 SLOAD SWAP1 PUSH2 0x100 EXP SWAP1 DIV PUSH1 0xFF AND ISZERO PUSH2 0x19AB JUMPI PUSH1 0x40 MLOAD PUSH32 0x8A66D60700000000000000000000000000000000000000000000000000000000 DUP2 MSTORE PUSH1 0x4 ADD PUSH1 0x40 MLOAD DUP1 SWAP2 SUB SWAP1 REVERT JUMPDEST DUP1 PUSH1 0x4 ADD PUSH1 0x8 SWAP1 SLOAD SWAP1 PUSH2 0x100 EXP SWAP1 DIV PUSH1 0xFF AND ISZERO PUSH2 0x19F4 JUMPI PUSH1 0x40 MLOAD PUSH32 0xF1082A9300000000000000000000000000000000000000000000000000000000 DUP2 MSTORE PUSH1 0x4 ADD PUSH1 0x40 MLOAD DUP1 SWAP2 SUB SWAP1 REVERT JUMPDEST PUSH1 0x6 SLOAD DUP2 PUSH1 0x4 ADD PUSH0 SWAP1 SLOAD SWAP1 PUSH2 0x100 EXP SWAP1 DIV PUSH8 0xFFFFFFFFFFFFFFFF AND PUSH8 0xFFFFFFFFFFFFFFFF AND PUSH2 0x1A23 SWAP2 SWAP1 PUSH2 0x2D6B JUMP JUMPDEST TIMESTAMP GT ISZERO PUSH2 0x1A5C JUMPI PUSH1 0x40 MLOAD PUSH32 0xF541751000000000000000000000000000000000000000000000000000000000 DUP2 MSTORE PUSH1 0x4 ADD PUSH1 0x40 MLOAD DUP1 SWAP2 SUB SWAP1 REVERT JUMPDEST PUSH1 0x5 SLOAD PUSH1 0x7 PUSH0 CALLER PUSH20 0xFFFFFFFFFFFFFFFFFFFFFFFFFFFFFFFFFFFFFFFF AND PUSH20 0xFFFFFFFFFFFFFFFFFFFFFFFFFFFFFFFFFFFFFFFF AND DUP2 MSTORE PUSH1 0x20 ADD SWAP1 DUP2 MSTORE PUSH1 0x20 ADD PUSH0 KECCAK256 SLOAD LT ISZERO PUSH2 0x1ADE JUMPI PUSH1 0x40 MLOAD PUSH32 0x8C379A000000000000000000000000000000000000000000000000000000000 DUP2 MSTORE PUSH1 0x4 ADD PUSH2 0x1AD5 SWAP1 PUSH2 0x315E JUMP JUMPDEST PUSH1 0x40 MLOAD DUP1 SWAP2 SUB SWAP1 REVERT JUMPDEST PUSH1 0x1 DUP2 PUSH1 0x4 ADD PUSH1 0x8 PUSH2 0x100 EXP DUP2 SLOAD DUP2 PUSH1 0xFF MUL NOT AND SWAP1 DUP4 ISZERO ISZERO MUL OR SWAP1 SSTORE POP CALLER DUP2 PUSH1 0x4 ADD PUSH1 0xA PUSH2 0x100 EXP DUP2 SLOAD DUP2 PUSH20 0xFFFFFFFFFFFFFFFFFFFFFFFFFFFFFFFFFFFFFFFF MUL NOT AND SWAP1 DUP4 PUSH20 0xFFFFFFFFFFFFFFFFFFFFFFFFFFFFFFFFFFFFFFFF AND MUL OR SWAP1 SSTORE POP CALLER PUSH20 0xFFFFFFFFFFFFFFFFFFFFFFFFFFFFFFFFFFFFFFFF AND DUP3 PUSH32 0x341905ABD65F49EB35219139A0CCDCE4A6D57D73972347DB266F11ADCB5A8C89 PUSH1 0x40 MLOAD PUSH1 0x40 MLOAD DUP1 SWAP2 SUB SWAP1 LOG3 POP POP JUMP JUMPDEST PUSH2 0x1B8E PUSH2 0x20AC JUMP JUMPDEST PUSH0 DUP2 SUB PUSH2 0x1BC7 JUMPI PUSH1 0x40 MLOAD PUSH32 0x1F2A200500000000000000000000000000000000000000000000000000000000 DUP2 MSTORE PUSH1 0x4 ADD PUSH1 0x40 MLOAD DUP1 SWAP2 SUB SWAP1 REVERT JUMPDEST PUSH2 0x1BF4 CALLER ADDRESS DUP4 DUP6 PUSH20 0xFFFFFFFFFFFFFFFFFFFFFFFFFFFFFFFFFFFFFFFF AND PUSH2 0x23EE SWAP1 SWAP4 SWAP3 SWAP2 SWAP1 PUSH4 0xFFFFFFFF AND JUMP JUMPDEST PUSH0 PUSH1 0xB PUSH0 DUP2 SLOAD PUSH2 0x1C03 SWAP1 PUSH2 0x2F4E JUMP JUMPDEST SWAP2 SWAP1 POP DUP2 SWAP1 SSTORE SWAP1 POP DUP1 DUP4 PUSH20 0xFFFFFFFFFFFFFFFFFFFFFFFFFFFFFFFFFFFFFFFF AND CALLER PUSH20 0xFFFFFFFFFFFFFFFFFFFFFFFFFFFFFFFFFFFFFFFF AND PUSH32 0x228ADEF123A7FE6B727889B4D24B39B39DE663428214FD757C6C501FB98D8494 DUP6 PUSH1 0x40 MLOAD PUSH2 0x1C69 SWAP2 SWAP1 PUSH2 0x28B6 JUMP JUMPDEST PUSH1 0x40 MLOAD DUP1 SWAP2 SUB SWAP1 LOG4 POP POP POP JUMP JUMPDEST PUSH1 0x4 SLOAD DUP2 JUMP JUMPDEST PUSH1 0xA SLOAD DUP2 JUMP JUMPDEST PUSH1 0x9 PUSH1 0x20 MSTORE DUP1 PUSH0 MSTORE PUSH1 0x40 PUSH0 KECCAK256 PUSH0 SWAP2 POP SWAP1 POP DUP1 PUSH0 ADD SLOAD SWAP1 DUP1 PUSH1 0x1 ADD SLOAD SWAP1 DUP1 PUSH1 0x2 ADD SLOAD SWAP1 DUP1 PUSH1 0x3 ADD SLOAD SWAP1 DUP1 PUSH1 0x4 ADD PUSH0 SWAP1 SLOAD SWAP1 PUSH2 0x100 EXP SWAP1 DIV PUSH8 0xFFFFFFFFFFFFFFFF AND SWAP1 DUP1 PUSH1 0x4 ADD PUSH1 0x8 SWAP1 SLOAD SWAP1 PUSH2 0x100 EXP SWAP1 DIV PUSH1 0xFF AND SWAP1 DUP1 PUSH1 0x4 ADD PUSH1 0x9 SWAP1 SLOAD SWAP1 PUSH2 0x100 EXP SWAP1 DIV PUSH1 0xFF AND SWAP1 DUP1 PUSH1 0x4 ADD PUSH1 0xA SWAP1 SLOAD SWAP1 PUSH2 0x100 EXP SWAP1 DIV PUSH20 0xFFFFFFFFFFFFFFFFFFFFFFFFFFFFFFFFFFFFFFFF AND SWAP1 POP DUP9 JUMP JUMPDEST PUSH1 0xB SLOAD DUP2 JUMP JUMPDEST PUSH2 0x1D21 PUSH2 0x20AC JUMP JUMPDEST PUSH0 PUSH1 0x9 PUSH0 DUP4 DUP2 MSTORE PUSH1 0x20 ADD SWAP1 DUP2 MSTORE PUSH1 0x20 ADD PUSH0 KECCAK256 SWAP1 POP PUSH0 DUP2 PUSH1 0x4 ADD PUSH0 SWAP1 SLOAD SWAP1 PUSH2 0x100 EXP SWAP1 DIV PUSH8 0xFFFFFFFFFFFFFFFF AND PUSH8 0xFFFFFFFFFFFFFFFF AND SUB PUSH2 0x1D8F JUMPI PUSH1 0x40 MLOAD PUSH32 0x9E15E1BC00000000000000000000000000000000000000000000000000000000 DUP2 MSTORE PUSH1 0x4 ADD PUSH1 0x40 MLOAD DUP1 SWAP2 SUB SWAP1 REVERT JUMPDEST DUP1 PUSH1 0x4 ADD PUSH1 0x9 SWAP1 SLOAD SWAP1 PUSH2 0x100 EXP SWAP1 DIV PUSH1 0xFF AND ISZERO PUSH2 0x1DD8 JUMPI PUSH1 0x40 MLOAD PUSH32 0x8A66D60700000000000000000000000000000000000000000000000000000000 DUP2 MSTORE PUSH1 0x4 ADD PUSH1 0x40 MLOAD DUP1 SWAP2 SUB SWAP1 REVERT JUMPDEST PUSH1 0x6 SLOAD DUP2 PUSH1 0x4 ADD PUSH0 SWAP1 SLOAD SWAP1 PUSH2 0x100 EXP SWAP1 DIV PUSH8 0xFFFFFFFFFFFFFFFF AND PUSH8 0xFFFFFFFFFFFFFFFF AND PUSH2 0x1E07 SWAP2 SWAP1 PUSH2 0x2D6B JUMP JUMPDEST TIMESTAMP GT PUSH2 0x1E3F JUMPI PUSH1 0x40 MLOAD PUSH32 0xC970363200000000000000000000000000000000000000000000000000000000 DUP2 MSTORE PUSH1 0x4 ADD PUSH1 0x40 MLOAD DUP1 SWAP2 SUB SWAP1 REVERT JUMPDEST DUP1 PUSH1 0x4 ADD PUSH1 0x8 SWAP1 SLOAD SWAP1 PUSH2 0x100 EXP SWAP1 DIV PUSH1 0xFF AND ISZERO PUSH2 0x1E88 JUMPI PUSH1 0x40 MLOAD PUSH32 0xF1082A9300000000000000000000000000000000000000000000000000000000 DUP2 MSTORE PUSH1 0x4 ADD PUSH1 0x40 MLOAD DUP1 SWAP2 SUB SWAP1 REVERT JUMPDEST PUSH1 0x1 DUP2 PUSH1 0x4 ADD PUSH1 0x9 PUSH2 0x100 EXP DUP2 SLOAD DUP2 PUSH1 0xFF MUL NOT AND SWAP1 DUP4 ISZERO ISZERO MUL OR SWAP1 SSTORE POP DUP1 PUSH1 0x1 ADD SLOAD DUP3 PUSH32 0xA3EA0288FB824A30CAE7F7D72A9E887BD0926C40C8438C43B49CFCA687B0DF52 PUSH1 0x40 MLOAD PUSH1 0x40 MLOAD DUP1 SWAP2 SUB SWAP1 LOG3 POP POP JUMP JUMPDEST PUSH2 0x1EE3 PUSH2 0x21E3 JUMP JUMPDEST DUP1 PUSH1 0x3 PUSH0 PUSH2 0x100 EXP DUP2 SLOAD DUP2 PUSH20 0xFFFFFFFFFFFFFFFFFFFFFFFFFFFFFFFFFFFFFFFF MUL NOT AND SWAP1 DUP4 PUSH20 0xFFFFFFFFFFFFFFFFFFFFFFFFFFFFFFFFFFFFFFFF AND MUL OR SWAP1 SSTORE POP DUP1 PUSH20 0xFFFFFFFFFFFFFFFFFFFFFFFFFFFFFFFFFFFFFFFF AND PUSH32 0x8F188B15032CF36DF69A7F5F4BD1583E05704DBB1504FEABF2A98D125FC9B235 PUSH1 0x40 MLOAD PUSH1 0x40 MLOAD DUP1 SWAP2 SUB SWAP1 LOG2 POP JUMP JUMPDEST PUSH2 0x1F71 PUSH2 0x21E3 JUMP JUMPDEST PUSH0 PUSH20 0xFFFFFFFFFFFFFFFFFFFFFFFFFFFFFFFFFFFFFFFF AND DUP2 PUSH20 0xFFFFFFFFFFFFFFFFFFFFFFFFFFFFFFFFFFFFFFFF AND SUB PUSH2 0x1FE1 JUMPI PUSH0 PUSH1 0x40 MLOAD PUSH32 0x1E4FBDF700000000000000000000000000000000000000000000000000000000 DUP2 MSTORE PUSH1 0x4 ADD PUSH2 0x1FD8 SWAP2 SWAP1 PUSH2 0x2A14 JUMP JUMPDEST PUSH1 0x40 MLOAD DUP1 SWAP2 SUB SWAP1 REVERT JUMPDEST PUSH2 0x1FEA DUP2 PUSH2 0x22CB JUMP JUMPDEST POP JUMP JUMPDEST PUSH2 0x1FF5 PUSH2 0x20AC JUMP JUMPDEST PUSH0 CALLVALUE SUB PUSH2 0x202E JUMPI PUSH1 0x40 MLOAD PUSH32 0x1F2A200500000000000000000000000000000000000000000000000000000000 DUP2 MSTORE PUSH1 0x4 ADD PUSH1 0x40 MLOAD DUP1 SWAP2 SUB SWAP1 REVERT JUMPDEST PUSH0 PUSH1 0xB PUSH0 DUP2 SLOAD PUSH2 0x203D SWAP1 PUSH2 0x2F4E JUMP JUMPDEST SWAP2 SWAP1 POP DUP2 SWAP1 SSTORE SWAP1 POP DUP1 CALLER PUSH20 0xFFFFFFFFFFFFFFFFFFFFFFFFFFFFFFFFFFFFFFFF AND PUSH32 0x57E8E547A3EF8D890C570CA885B0A8C441BE3070E36B7AD4C7D6B9D9316FF2CE CALLVALUE PUSH1 0x40 MLOAD PUSH2 0x208C SWAP2 SWAP1 PUSH2 0x28B6 JUMP JUMPDEST PUSH1 0x40 MLOAD DUP1 SWAP2 SUB SWAP1 LOG3 POP JUMP JUMPDEST PUSH1 0x7 PUSH1 0x20 MSTORE DUP1 PUSH0 MSTORE PUSH1 0x40 PUSH0 KECCAK256 PUSH0 SWAP2 POP SWAP1 POP SLOAD DUP2 JUMP JUMPDEST PUSH2 0x20B4 PUSH2 0xF95 JUMP JUMPDEST ISZERO PUSH2 0x20F4 JUMPI PUSH1 0x40 MLOAD PUSH32 0x8C379A000000000000000000000000000000000000000000000000000000000 DUP2 MSTORE PUSH1 0x4 ADD PUSH2 0x20EB SWAP1 PUSH2 0x31C6 JUMP JUMPDEST PUSH1 0x40 MLOAD DUP1 SWAP2 SUB SWAP1 REVERT JUMPDEST JUMP JUMPDEST PUSH1 0x2 PUSH1 0x1 SLOAD SUB PUSH2 0x213B JUMPI PUSH1 0x40 MLOAD PUSH32 0x8C379A000000000000000000000000000000000000000000000000000000000 DUP2 MSTORE PUSH1 0x4 ADD PUSH2 0x2132 SWAP1 PUSH2 0x322E JUMP JUMPDEST PUSH1 0x40 MLOAD DUP1 SWAP2 SUB SWAP1 REVERT JUMPDEST PUSH1 0x2 PUSH1 0x1 DUP2 SWAP1 SSTORE POP JUMP JUMPDEST PUSH0 DUP3 PUSH2 0x2151 DUP6 DUP5 PUSH2 0x2470 JUMP JUMPDEST EQ SWAP1 POP SWAP4 SWAP3 POP POP POP JUMP JUMPDEST PUSH2 0x21D5 DUP4 DUP5 PUSH20 0xFFFFFFFFFFFFFFFFFFFFFFFFFFFFFFFFFFFFFFFF AND PUSH4 0xA9059CBB DUP6 DUP6 PUSH1 0x40 MLOAD PUSH1 0x24 ADD PUSH2 0x218E SWAP3 SWAP2 SWAP1 PUSH2 0x324C JUMP JUMPDEST PUSH1 0x40 MLOAD PUSH1 0x20 DUP2 DUP4 SUB SUB DUP2 MSTORE SWAP1 PUSH1 0x40 MSTORE SWAP2 POP PUSH1 0xE0 SHL PUSH1 0x20 DUP3 ADD DUP1 MLOAD PUSH28 0xFFFFFFFFFFFFFFFFFFFFFFFFFFFFFFFFFFFFFFFFFFFFFFFFFFFFFFFF DUP4 DUP2 DUP4 AND OR DUP4 MSTORE POP POP POP POP PUSH2 0x24C1 JUMP JUMPDEST POP POP POP JUMP JUMPDEST PUSH1 0x1 DUP1 DUP2 SWAP1 SSTORE POP JUMP JUMPDEST PUSH2 0x21EB PUSH2 0x255C JUMP JUMPDEST PUSH20 0xFFFFFFFFFFFFFFFFFFFFFFFFFFFFFFFFFFFFFFFF AND PUSH2 0x2209 PUSH2 0x18C5 JUMP JUMPDEST PUSH20 0xFFFFFFFFFFFFFFFFFFFFFFFFFFFFFFFFFFFFFFFF AND EQ PUSH2 0x2268 JUMPI PUSH2 0x222C PUSH2 0x255C JUMP JUMPDEST PUSH1 0x40 MLOAD PUSH32 0x118CDAA700000000000000000000000000000000000000000000000000000000 DUP2 MSTORE PUSH1 0x4 ADD PUSH2 0x225F SWAP2 SWAP1 PUSH2 0x2A14 JUMP JUMPDEST PUSH1 0x40 MLOAD DUP1 SWAP2 SUB SWAP1 REVERT JUMPDEST JUMP JUMPDEST PUSH2 0x2272 PUSH2 0x2563 JUMP JUMPDEST PUSH0 PUSH0 PUSH1 0x14 PUSH2 0x100 EXP DUP2 SLOAD DUP2 PUSH1 0xFF MUL NOT AND SWAP1 DUP4 ISZERO ISZERO MUL OR SWAP1 SSTORE POP PUSH32 0x5DB9EE0A495BF2E6FF9C91A7834C1BA4FDD244A5E8AA4E537BD38AEAE4B073AA PUSH2 0x22B4 PUSH2 0x255C JUMP JUMPDEST PUSH1 0x40 MLOAD PUSH2 0x22C1 SWAP2 SWAP1 PUSH2 0x2A14 JUMP JUMPDEST PUSH1 0x40 MLOAD DUP1 SWAP2 SUB SWAP1 LOG1 JUMP JUMPDEST PUSH0 PUSH0 PUSH0 SWAP1 SLOAD SWAP1 PUSH2 0x100 EXP SWAP1 DIV PUSH20 0xFFFFFFFFFFFFFFFFFFFFFFFFFFFFFFFFFFFFFFFF AND SWAP1 POP DUP2 PUSH0 PUSH0 PUSH2 0x100 EXP DUP2 SLOAD DUP2 PUSH20 0xFFFFFFFFFFFFFFFFFFFFFFFFFFFFFFFFFFFFFFFF MUL NOT AND SWAP1 DUP4 PUSH20 0xFFFFFFFFFFFFFFFFFFFFFFFFFFFFFFFFFFFFFFFF AND MUL OR SWAP1 SSTORE POP DUP2 PUSH20 0xFFFFFFFFFFFFFFFFFFFFFFFFFFFFFFFFFFFFFFFF AND DUP2 PUSH20 0xFFFFFFFFFFFFFFFFFFFFFFFFFFFFFFFFFFFFFFFF AND PUSH32 0x8BE0079C531659141344CD1FD0A4F28419497F9722A3DAAFE3B4186F6B6457E0 PUSH1 0x40 MLOAD PUSH1 0x40 MLOAD DUP1 SWAP2 SUB SWAP1 LOG3 POP POP JUMP JUMPDEST PUSH2 0x2394 PUSH2 0x20AC JUMP JUMPDEST PUSH1 0x1 PUSH0 PUSH1 0x14 PUSH2 0x100 EXP DUP2 SLOAD DUP2 PUSH1 0xFF MUL NOT AND SWAP1 DUP4 ISZERO ISZERO MUL OR SWAP1 SSTORE POP PUSH32 0x62E78CEA01BEE320CD4E420270B5EA74000D11B0C9F74754EBDBFC544B05A258 PUSH2 0x23D7 PUSH2 0x255C JUMP JUMPDEST PUSH1 0x40 MLOAD PUSH2 0x23E4 SWAP2 SWAP1 PUSH2 0x2A14 JUMP JUMPDEST PUSH1 0x40 MLOAD DUP1 SWAP2 SUB SWAP1 LOG1 JUMP JUMPDEST PUSH2 0x246A DUP5 DUP6 PUSH20 0xFFFFFFFFFFFFFFFFFFFFFFFFFFFFFFFFFFFFFFFF AND PUSH4 0x23B872DD DUP7 DUP7 DUP7 PUSH1 0x40 MLOAD PUSH1 0x24 ADD PUSH2 0x2423 SWAP4 SWAP3 SWAP2 SWAP1 PUSH2 0x3273 JUMP JUMPDEST PUSH1 0x40 MLOAD PUSH1 0x20 DUP2 DUP4 SUB SUB DUP2 MSTORE SWAP1 PUSH1 0x40 MSTORE SWAP2 POP PUSH1 0xE0 SHL PUSH1 0x20 DUP3 ADD DUP1 MLOAD PUSH28 0xFFFFFFFFFFFFFFFFFFFFFFFFFFFFFFFFFFFFFFFFFFFFFFFFFFFFFFFF DUP4 DUP2 DUP4 AND OR DUP4 MSTORE POP POP POP POP PUSH2 0x24C1 JUMP JUMPDEST POP POP POP POP JUMP JUMPDEST PUSH0 PUSH0 DUP3 SWAP1 POP PUSH0 PUSH0 SWAP1 POP JUMPDEST DUP5 MLOAD DUP2 LT ISZERO PUSH2 0x24B6 JUMPI PUSH2 0x24A7 DUP3 DUP7 DUP4 DUP2 MLOAD DUP2 LT PUSH2 0x249A JUMPI PUSH2 0x2499 PUSH2 0x32A8 JUMP JUMPDEST JUMPDEST PUSH1 0x20 MUL PUSH1 0x20 ADD ADD MLOAD PUSH2 0x25AC JUMP JUMPDEST SWAP2 POP DUP1 DUP1 PUSH1 0x1 ADD SWAP2 POP POP PUSH2 0x247A JUMP JUMPDEST POP DUP1 SWAP2 POP POP SWAP3 SWAP2 POP POP JUMP JUMPDEST PUSH0 PUSH0 PUSH1 0x20 PUSH0 DUP5 MLOAD PUSH1 0x20 DUP7 ADD PUSH0 DUP9 GAS CALL DUP1 PUSH2 0x24E0 JUMPI PUSH1 0x40 MLOAD RETURNDATASIZE PUSH0 DUP3 RETURNDATACOPY RETURNDATASIZE DUP2 REVERT JUMPDEST RETURNDATASIZE SWAP3 POP PUSH0 MLOAD SWAP2 POP POP PUSH0 DUP3 EQ PUSH2 0x24F9 JUMPI PUSH1 0x1 DUP2 EQ ISZERO PUSH2 0x2514 JUMP JUMPDEST PUSH0 DUP5 PUSH20 0xFFFFFFFFFFFFFFFFFFFFFFFFFFFFFFFFFFFFFFFF AND EXTCODESIZE EQ JUMPDEST ISZERO PUSH2 0x2556 JUMPI DUP4 PUSH1 0x40 MLOAD PUSH32 0x5274AFE700000000000000000000000000000000000000000000000000000000 DUP2 MSTORE PUSH1 0x4 ADD PUSH2 0x254D SWAP2 SWAP1 PUSH2 0x2A14 JUMP JUMPDEST PUSH1 0x40 MLOAD DUP1 SWAP2 SUB SWAP1 REVERT JUMPDEST POP POP POP POP JUMP JUMPDEST PUSH0 CALLER SWAP1 POP SWAP1 JUMP JUMPDEST PUSH2 0x256B PUSH2 0xF95 JUMP JUMPDEST PUSH2 0x25AA JUMPI PUSH1 0x40 MLOAD PUSH32 0x8C379A000000000000000000000000000000000000000000000000000000000 DUP2 MSTORE PUSH1 0x4 ADD PUSH2 0x25A1 SWAP1 PUSH2 0x331F JUMP JUMPDEST PUSH1 0x40 MLOAD DUP1 SWAP2 SUB SWAP1 REVERT JUMPDEST JUMP JUMPDEST PUSH0 DUP2 DUP4 LT PUSH2 0x25C3 JUMPI PUSH2 0x25BE DUP3 DUP5 PUSH2 0x25D6 JUMP JUMPDEST PUSH2 0x25CE JUMP JUMPDEST PUSH2 0x25CD DUP4 DUP4 PUSH2 0x25D6 JUMP JUMPDEST JUMPDEST SWAP1 POP SWAP3 SWAP2 POP POP JUMP JUMPDEST PUSH0 DUP3 PUSH0 MSTORE DUP2 PUSH1 0x20 MSTORE PUSH1 0x40 PUSH0 KECCAK256 SWAP1 POP SWAP3 SWAP2 POP POP JUMP JUMPDEST PUSH0 PUSH0 REVERT JUMPDEST PUSH0 PUSH0 REVERT JUMPDEST PUSH0 DUP2 SWAP1 POP SWAP2 SWAP1 POP JUMP JUMPDEST PUSH2 0x2604 DUP2 PUSH2 0x25F2 JUMP JUMPDEST DUP2 EQ PUSH2 0x260E JUMPI PUSH0 PUSH0 REVERT JUMPDEST POP JUMP JUMPDEST PUSH0 DUP2 CALLDATALOAD SWAP1 POP PUSH2 0x261F DUP2 PUSH2 0x25FB JUMP JUMPDEST SWAP3 SWAP2 POP POP JUMP JUMPDEST PUSH0 PUSH20 0xFFFFFFFFFFFFFFFFFFFFFFFFFFFFFFFFFFFFFFFF DUP3 AND SWAP1 POP SWAP2 SWAP1 POP JUMP JUMPDEST PUSH0 PUSH2 0x264E DUP3 PUSH2 0x2625 JUMP JUMPDEST SWAP1 POP SWAP2 SWAP1 POP JUMP JUMPDEST PUSH2 0x265E DUP2 PUSH2 0x2644 JUMP JUMPDEST DUP2 EQ PUSH2 0x2668 JUMPI PUSH0 PUSH0 REVERT JUMPDEST POP JUMP JUMPDEST PUSH0 DUP2 CALLDATALOAD SWAP1 POP PUSH2 0x2679 DUP2 PUSH2 0x2655 JUMP JUMPDEST SWAP3 SWAP2 POP POP JUMP JUMPDEST PUSH0 PUSH0 REVERT JUMPDEST PUSH0 PUSH0 REVERT JUMPDEST PUSH0 PUSH0 REVERT JUMPDEST PUSH0 PUSH0 DUP4 PUSH1 0x1F DUP5 ADD SLT PUSH2 0x26A0 JUMPI PUSH2 0x269F PUSH2 0x267F JUMP JUMPDEST JUMPDEST DUP3 CALLDATALOAD SWAP1 POP PUSH8 0xFFFFFFFFFFFFFFFF DUP2 GT ISZERO PUSH2 0x26BD JUMPI PUSH2 0x26BC PUSH2 0x2683 JUMP JUMPDEST JUMPDEST PUSH1 0x20 DUP4 ADD SWAP2 POP DUP4 PUSH1 0x20 DUP3 MUL DUP4 ADD GT ISZERO PUSH2 0x26D9 JUMPI PUSH2 0x26D8 PUSH2 0x2687 JUMP JUMPDEST JUMPDEST SWAP3 POP SWAP3 SWAP1 POP JUMP JUMPDEST PUSH0 PUSH0 PUSH0 PUSH0 PUSH0 PUSH0 PUSH1 0xA0 DUP8 DUP10 SUB SLT ISZERO PUSH2 0x26FA JUMPI PUSH2 0x26F9 PUSH2 0x25EA JUMP JUMPDEST JUMPDEST PUSH0 PUSH2 0x2707 DUP10 DUP3 DUP11 ADD PUSH2 0x2611 JUMP JUMPDEST SWAP7 POP POP PUSH1 0x20 PUSH2 0x2718 DUP10 DUP3 DUP11 ADD PUSH2 0x266B JUMP JUMPDEST SWAP6 POP POP PUSH1 0x40 PUSH2 0x2729 DUP10 DUP3 DUP11 ADD PUSH2 0x2611 JUMP JUMPDEST SWAP5 POP POP PUSH1 0x60 PUSH2 0x273A DUP10 DUP3 DUP11 ADD PUSH2 0x2611 JUMP JUMPDEST SWAP4 POP POP PUSH1 0x80 DUP8 ADD CALLDATALOAD PUSH8 0xFFFFFFFFFFFFFFFF DUP2 GT ISZERO PUSH2 0x275B JUMPI PUSH2 0x275A PUSH2 0x25EE JUMP JUMPDEST JUMPDEST PUSH2 0x2767 DUP10 DUP3 DUP11 ADD PUSH2 0x268B JUMP JUMPDEST SWAP3 POP SWAP3 POP POP SWAP3 SWAP6 POP SWAP3 SWAP6 POP SWAP3 SWAP6 JUMP JUMPDEST PUSH0 PUSH1 0x20 DUP3 DUP5 SUB SLT ISZERO PUSH2 0x278B JUMPI PUSH2 0x278A PUSH2 0x25EA JUMP JUMPDEST JUMPDEST PUSH0 PUSH2 0x2798 DUP5 DUP3 DUP6 ADD PUSH2 0x2611 JUMP JUMPDEST SWAP2 POP POP SWAP3 SWAP2 POP POP JUMP JUMPDEST PUSH0 DUP2 ISZERO ISZERO SWAP1 POP SWAP2 SWAP1 POP JUMP JUMPDEST PUSH2 0x27B5 DUP2 PUSH2 0x27A1 JUMP JUMPDEST DUP3 MSTORE POP POP JUMP JUMPDEST PUSH2 0x27C4 DUP2 PUSH2 0x25F2 JUMP JUMPDEST DUP3 MSTORE POP POP JUMP JUMPDEST PUSH0 DUP2 SWAP1 POP SWAP2 SWAP1 POP JUMP JUMPDEST PUSH2 0x27DC DUP2 PUSH2 0x27CA JUMP JUMPDEST DUP3 MSTORE POP POP JUMP JUMPDEST PUSH2 0x27EB DUP2 PUSH2 0x2644 JUMP JUMPDEST DUP3 MSTORE POP POP JUMP JUMPDEST PUSH0 PUSH2 0x140 DUP3 ADD SWAP1 POP PUSH2 0x2805 PUSH0 DUP4 ADD DUP14 PUSH2 0x27AC JUMP JUMPDEST PUSH2 0x2812 PUSH1 0x20 DUP4 ADD DUP13 PUSH2 0x27AC JUMP JUMPDEST PUSH2 0x281F PUSH1 0x40 DUP4 ADD DUP12 PUSH2 0x27AC JUMP JUMPDEST PUSH2 0x282C PUSH1 0x60 DUP4 ADD DUP11 PUSH2 0x27BB JUMP JUMPDEST PUSH2 0x2839 PUSH1 0x80 DUP4 ADD DUP10 PUSH2 0x27BB JUMP JUMPDEST PUSH2 0x2846 PUSH1 0xA0 DUP4 ADD DUP9 PUSH2 0x27D3 JUMP JUMPDEST PUSH2 0x2853 PUSH1 0xC0 DUP4 ADD DUP8 PUSH2 0x27D3 JUMP JUMPDEST PUSH2 0x2860 PUSH1 0xE0 DUP4 ADD DUP7 PUSH2 0x27D3 JUMP JUMPDEST PUSH2 0x286E PUSH2 0x100 DUP4 ADD DUP6 PUSH2 0x27D3 JUMP JUMPDEST PUSH2 0x287C PUSH2 0x120 DUP4 ADD DUP5 PUSH2 0x27E2 JUMP JUMPDEST SWAP12 SWAP11 POP POP POP POP POP POP POP POP POP POP POP JUMP JUMPDEST PUSH0 PUSH1 0x20 DUP3 DUP5 SUB SLT ISZERO PUSH2 0x28A0 JUMPI PUSH2 0x289F PUSH2 0x25EA JUMP JUMPDEST JUMPDEST PUSH0 PUSH2 0x28AD DUP5 DUP3 DUP6 ADD PUSH2 0x266B JUMP JUMPDEST SWAP2 POP POP SWAP3 SWAP2 POP POP JUMP JUMPDEST PUSH0 PUSH1 0x20 DUP3 ADD SWAP1 POP PUSH2 0x28C9 PUSH0 DUP4 ADD DUP5 PUSH2 0x27BB JUMP JUMPDEST SWAP3 SWAP2 POP POP JUMP JUMPDEST PUSH2 0x28D8 DUP2 PUSH2 0x27CA JUMP JUMPDEST DUP2 EQ PUSH2 0x28E2 JUMPI PUSH0 PUSH0 REVERT JUMPDEST POP JUMP JUMPDEST PUSH0 DUP2 CALLDATALOAD SWAP1 POP PUSH2 0x28F3 DUP2 PUSH2 0x28CF JUMP JUMPDEST SWAP3 SWAP2 POP POP JUMP JUMPDEST PUSH0 PUSH0 PUSH1 0x40 DUP4 DUP6 SUB SLT ISZERO PUSH2 0x290F JUMPI PUSH2 0x290E PUSH2 0x25EA JUMP JUMPDEST JUMPDEST PUSH0 PUSH2 0x291C DUP6 DUP3 DUP7 ADD PUSH2 0x2611 JUMP JUMPDEST SWAP3 POP POP PUSH1 0x20 PUSH2 0x292D DUP6 DUP3 DUP7 ADD PUSH2 0x28E5 JUMP JUMPDEST SWAP2 POP POP SWAP3 POP SWAP3 SWAP1 POP JUMP JUMPDEST PUSH0 PUSH1 0x20 DUP3 ADD SWAP1 POP PUSH2 0x294A PUSH0 DUP4 ADD DUP5 PUSH2 0x27AC JUMP JUMPDEST SWAP3 SWAP2 POP POP JUMP JUMPDEST PUSH0 PUSH0 PUSH0 PUSH1 0x60 DUP5 DUP7 SUB SLT ISZERO PUSH2 0x2967 JUMPI PUSH2 0x2966 PUSH2 0x25EA JUMP JUMPDEST JUMPDEST PUSH0 PUSH2 0x2974 DUP7 DUP3 DUP8 ADD PUSH2 0x2611 JUMP JUMPDEST SWAP4 POP POP PUSH1 0x20 PUSH2 0x2985 DUP7 DUP3 DUP8 ADD PUSH2 0x2611 JUMP JUMPDEST SWAP3 POP POP PUSH1 0x40 PUSH2 0x2996 DUP7 DUP3 DUP8 ADD PUSH2 0x2611 JUMP JUMPDEST SWAP2 POP POP SWAP3 POP SWAP3 POP SWAP3 JUMP JUMPDEST PUSH0 DUP2 SWAP1 POP SWAP2 SWAP1 POP JUMP JUMPDEST PUSH0 PUSH2 0x29C3 PUSH2 0x29BE PUSH2 0x29B9 DUP5 PUSH2 0x2625 JUMP JUMPDEST PUSH2 0x29A0 JUMP JUMPDEST PUSH2 0x2625 JUMP JUMPDEST SWAP1 POP SWAP2 SWAP1 POP JUMP JUMPDEST PUSH0 PUSH2 0x29D4 DUP3 PUSH2 0x29A9 JUMP JUMPDEST SWAP1 POP SWAP2 SWAP1 POP JUMP JUMPDEST PUSH0 PUSH2 0x29E5 DUP3 PUSH2 0x29CA JUMP JUMPDEST SWAP1 POP SWAP2 SWAP1 POP JUMP JUMPDEST PUSH2 0x29F5 DUP2 PUSH2 0x29DB JUMP JUMPDEST DUP3 MSTORE POP POP JUMP JUMPDEST PUSH0 PUSH1 0x20 DUP3 ADD SWAP1 POP PUSH2 0x2A0E PUSH0 DUP4 ADD DUP5 PUSH2 0x29EC JUMP JUMPDEST SWAP3 SWAP2 POP POP JUMP JUMPDEST PUSH0 PUSH1 0x20 DUP3 ADD SWAP1 POP PUSH2 0x2A27 PUSH0 DUP4 ADD DUP5 PUSH2 0x27E2 JUMP JUMPDEST SWAP3 SWAP2 POP POP JUMP JUMPDEST PUSH0 PUSH0 PUSH0 PUSH1 0x60 DUP5 DUP7 SUB SLT ISZERO PUSH2 0x2A44 JUMPI PUSH2 0x2A43 PUSH2 0x25EA JUMP JUMPDEST JUMPDEST PUSH0 PUSH2 0x2A51 DUP7 DUP3 DUP8 ADD PUSH2 0x28E5 JUMP JUMPDEST SWAP4 POP POP PUSH1 0x20 PUSH2 0x2A62 DUP7 DUP3 DUP8 ADD PUSH2 0x28E5 JUMP JUMPDEST SWAP3 POP POP PUSH1 0x40 PUSH2 0x2A73 DUP7 DUP3 DUP8 ADD PUSH2 0x28E5 JUMP JUMPDEST SWAP2 POP POP SWAP3 POP SWAP3 POP SWAP3 JUMP JUMPDEST PUSH0 PUSH0 DUP4 PUSH1 0x1F DUP5 ADD SLT PUSH2 0x2A92 JUMPI PUSH2 0x2A91 PUSH2 0x267F JUMP JUMPDEST JUMPDEST DUP3 CALLDATALOAD SWAP1 POP PUSH8 0xFFFFFFFFFFFFFFFF DUP2 GT ISZERO PUSH2 0x2AAF JUMPI PUSH2 0x2AAE PUSH2 0x2683 JUMP JUMPDEST JUMPDEST PUSH1 0x20 DUP4 ADD SWAP2 POP DUP4 PUSH1 0x1 DUP3 MUL DUP4 ADD GT ISZERO PUSH2 0x2ACB JUMPI PUSH2 0x2ACA PUSH2 0x2687 JUMP JUMPDEST JUMPDEST SWAP3 POP SWAP3 SWAP1 POP JUMP JUMPDEST PUSH0 PUSH0 PUSH0 PUSH1 0x40 DUP5 DUP7 SUB SLT ISZERO PUSH2 0x2AE9 JUMPI PUSH2 0x2AE8 PUSH2 0x25EA JUMP JUMPDEST JUMPDEST PUSH0 PUSH2 0x2AF6 DUP7 DUP3 DUP8 ADD PUSH2 0x2611 JUMP JUMPDEST SWAP4 POP POP PUSH1 0x20 DUP5 ADD CALLDATALOAD PUSH8 0xFFFFFFFFFFFFFFFF DUP2 GT ISZERO PUSH2 0x2B17 JUMPI PUSH2 0x2B16 PUSH2 0x25EE JUMP JUMPDEST JUMPDEST PUSH2 0x2B23 DUP7 DUP3 DUP8 ADD PUSH2 0x2A7D JUMP JUMPDEST SWAP3 POP SWAP3 POP POP SWAP3 POP SWAP3 POP SWAP3 JUMP JUMPDEST PUSH0 PUSH0 PUSH1 0x40 DUP4 DUP6 SUB SLT ISZERO PUSH2 0x2B45 JUMPI PUSH2 0x2B44 PUSH2 0x25EA JUMP JUMPDEST JUMPDEST PUSH0 PUSH2 0x2B52 DUP6 DUP3 DUP7 ADD PUSH2 0x266B JUMP JUMPDEST SWAP3 POP POP PUSH1 0x20 PUSH2 0x2B63 DUP6 DUP3 DUP7 ADD PUSH2 0x2611 JUMP JUMPDEST SWAP2 POP POP SWAP3 POP SWAP3 SWAP1 POP JUMP JUMPDEST PUSH0 PUSH1 0x20 DUP3 ADD SWAP1 POP PUSH2 0x2B80 PUSH0 DUP4 ADD DUP5 PUSH2 0x27D3 JUMP JUMPDEST SWAP3 SWAP2 POP POP JUMP JUMPDEST PUSH0 PUSH8 0xFFFFFFFFFFFFFFFF DUP3 AND SWAP1 POP SWAP2 SWAP1 POP JUMP JUMPDEST PUSH2 0x2BA2 DUP2 PUSH2 0x2B86 JUMP JUMPDEST DUP3 MSTORE POP POP JUMP JUMPDEST PUSH0 PUSH2 0x100 DUP3 ADD SWAP1 POP PUSH2 0x2BBC PUSH0 DUP4 ADD DUP12 PUSH2 0x27D3 JUMP JUMPDEST PUSH2 0x2BC9 PUSH1 0x20 DUP4 ADD DUP11 PUSH2 0x27D3 JUMP JUMPDEST PUSH2 0x2BD6 PUSH1 0x40 DUP4 ADD DUP10 PUSH2 0x27D3 JUMP JUMPDEST PUSH2 0x2BE3 PUSH1 0x60 DUP4 ADD DUP9 PUSH2 0x27D3 JUMP JUMPDEST PUSH2 0x2BF0 PUSH1 0x80 DUP4 ADD DUP8 PUSH2 0x2B99 JUMP JUMPDEST PUSH2 0x2BFD PUSH1 0xA0 DUP4 ADD DUP7 PUSH2 0x27AC JUMP JUMPDEST PUSH2 0x2C0A PUSH1 0xC0 DUP4 ADD DUP6 PUSH2 0x27AC JUMP JUMPDEST PUSH2 0x2C17 PUSH1 0xE0 DUP4 ADD DUP5 PUSH2 0x27E2 JUMP JUMPDEST SWAP10 SWAP9 POP POP POP POP POP POP POP POP POP JUMP JUMPDEST PUSH0 DUP2 PUSH1 0x60 SHL SWAP1 POP SWAP2 SWAP1 POP JUMP JUMPDEST PUSH0 PUSH2 0x2C3A DUP3 PUSH2 0x2C24 JUMP JUMPDEST SWAP1 POP SWAP2 SWAP1 POP JUMP JUMPDEST PUSH0 PUSH2 0x2C4B DUP3 PUSH2 0x2C30 JUMP JUMPDEST SWAP1 POP SWAP2 SWAP1 POP JUMP JUMPDEST PUSH2 0x2C63 PUSH2 0x2C5E DUP3 PUSH2 0x2644 JUMP JUMPDEST PUSH2 0x2C41 JUMP JUMPDEST DUP3 MSTORE POP POP JUMP JUMPDEST PUSH0 DUP2 SWAP1 POP SWAP2 SWAP1 POP JUMP JUMPDEST PUSH2 0x2C83 PUSH2 0x2C7E DUP3 PUSH2 0x25F2 JUMP JUMPDEST PUSH2 0x2C69 JUMP JUMPDEST DUP3 MSTORE POP POP JUMP JUMPDEST PUSH0 PUSH2 0x2C94 DUP3 DUP8 PUSH2 0x2C52 JUMP JUMPDEST PUSH1 0x14 DUP3 ADD SWAP2 POP PUSH2 0x2CA4 DUP3 DUP7 PUSH2 0x2C52 JUMP JUMPDEST PUSH1 0x14 DUP3 ADD SWAP2 POP PUSH2 0x2CB4 DUP3 DUP6 PUSH2 0x2C72 JUMP JUMPDEST PUSH1 0x20 DUP3 ADD SWAP2 POP PUSH2 0x2CC4 DUP3 DUP5 PUSH2 0x2C72 JUMP JUMPDEST PUSH1 0x20 DUP3 ADD SWAP2 POP DUP2 SWAP1 POP SWAP6 SWAP5 POP POP POP POP POP JUMP JUMPDEST PUSH0 DUP2 SWAP1 POP SWAP3 SWAP2 POP POP JUMP JUMPDEST POP JUMP JUMPDEST PUSH0 PUSH2 0x2CEE PUSH0 DUP4 PUSH2 0x2CD6 JUMP JUMPDEST SWAP2 POP PUSH2 0x2CF9 DUP3 PUSH2 0x2CE0 JUMP JUMPDEST PUSH0 DUP3 ADD SWAP1 POP SWAP2 SWAP1 POP JUMP JUMPDEST PUSH0 PUSH2 0x2D0D DUP3 PUSH2 0x2CE3 JUMP JUMPDEST SWAP2 POP DUP2 SWAP1 POP SWAP2 SWAP1 POP JUMP JUMPDEST PUSH0 PUSH1 0x40 DUP3 ADD SWAP1 POP PUSH2 0x2D2A PUSH0 DUP4 ADD DUP6 PUSH2 0x27BB JUMP JUMPDEST PUSH2 0x2D37 PUSH1 0x20 DUP4 ADD DUP5 PUSH2 0x27BB JUMP JUMPDEST SWAP4 SWAP3 POP POP POP JUMP JUMPDEST PUSH32 0x4E487B7100000000000000000000000000000000000000000000000000000000 PUSH0 MSTORE PUSH1 0x11 PUSH1 0x4 MSTORE PUSH1 0x24 PUSH0 REVERT JUMPDEST PUSH0 PUSH2 0x2D75 DUP3 PUSH2 0x25F2 JUMP JUMPDEST SWAP2 POP PUSH2 0x2D80 DUP4 PUSH2 0x25F2 JUMP JUMPDEST SWAP3 POP DUP3 DUP3 ADD SWAP1 POP DUP1 DUP3 GT ISZERO PUSH2 0x2D98 JUMPI PUSH2 0x2D97 PUSH2 0x2D3E JUMP JUMPDEST JUMPDEST SWAP3 SWAP2 POP POP JUMP JUMPDEST PUSH0 DUP3 DUP3 MSTORE PUSH1 0x20 DUP3 ADD SWAP1 POP SWAP3 SWAP2 POP POP JUMP JUMPDEST PUSH32 0x5A45524F5F414444520000000000000000000000000000000000000000000000 PUSH0 DUP3 ADD MSTORE POP JUMP JUMPDEST PUSH0 PUSH2 0x2DE2 PUSH1 0x9 DUP4 PUSH2 0x2D9E JUMP JUMPDEST SWAP2 POP PUSH2 0x2DED DUP3 PUSH2 0x2DAE JUMP JUMPDEST PUSH1 0x20 DUP3 ADD SWAP1 POP SWAP2 SWAP1 POP JUMP JUMPDEST PUSH0 PUSH1 0x20 DUP3 ADD SWAP1 POP DUP2 DUP2 SUB PUSH0 DUP4 ADD MSTORE PUSH2 0x2E0F DUP2 PUSH2 0x2DD6 JUMP JUMPDEST SWAP1 POP SWAP2 SWAP1 POP JUMP JUMPDEST PUSH32 0x494E53554646494349454E545F424F4E44000000000000000000000000000000 PUSH0 DUP3 ADD MSTORE POP JUMP JUMPDEST PUSH0 PUSH2 0x2E4A PUSH1 0x11 DUP4 PUSH2 0x2D9E JUMP JUMPDEST SWAP2 POP PUSH2 0x2E55 DUP3 PUSH2 0x2E16 JUMP JUMPDEST PUSH1 0x20 DUP3 ADD SWAP1 POP SWAP2 SWAP1 POP JUMP JUMPDEST PUSH0 PUSH1 0x20 DUP3 ADD SWAP1 POP DUP2 DUP2 SUB PUSH0 DUP4 ADD MSTORE PUSH2 0x2E77 DUP2 PUSH2 0x2E3E JUMP JUMPDEST SWAP1 POP SWAP2 SWAP1 POP JUMP JUMPDEST PUSH0 PUSH2 0x2E88 DUP3 PUSH2 0x25F2 JUMP JUMPDEST SWAP2 POP PUSH2 0x2E93 DUP4 PUSH2 0x25F2 JUMP JUMPDEST SWAP3 POP DUP3 DUP3 SUB SWAP1 POP DUP2 DUP2 GT ISZERO PUSH2 0x2EAB JUMPI PUSH2 0x2EAA PUSH2 0x2D3E JUMP JUMPDEST JUMPDEST SWAP3 SWAP2 POP POP JUMP JUMPDEST PUSH0 PUSH1 0x60 DUP3 ADD SWAP1 POP PUSH2 0x2EC4 PUSH0 DUP4 ADD DUP7 PUSH2 0x27BB JUMP JUMPDEST PUSH2 0x2ED1 PUSH1 0x20 DUP4 ADD DUP6 PUSH2 0x27BB JUMP JUMPDEST PUSH2 0x2EDE PUSH1 0x40 DUP4 ADD DUP5 PUSH2 0x27BB JUMP JUMPDEST SWAP5 SWAP4 POP POP POP POP JUMP JUMPDEST PUSH32 0x53455155454E4345525F424F4E445F4C4F570000000000000000000000000000 PUSH0 DUP3 ADD MSTORE POP JUMP JUMPDEST PUSH0 PUSH2 0x2F1A PUSH1 0x12 DUP4 PUSH2 0x2D9E JUMP JUMPDEST SWAP2 POP PUSH2 0x2F25 DUP3 PUSH2 0x2EE6 JUMP JUMPDEST PUSH1 0x20 DUP3 ADD SWAP1 POP SWAP2 SWAP1 POP JUMP JUMPDEST PUSH0 PUSH1 0x20 DUP3 ADD SWAP1 POP DUP2 DUP2 SUB PUSH0 DUP4 ADD MSTORE PUSH2 0x2F47 DUP2 PUSH2 0x2F0E JUMP JUMPDEST SWAP1 POP SWAP2 SWAP1 POP JUMP JUMPDEST PUSH0 PUSH2 0x2F58 DUP3 PUSH2 0x25F2 JUMP JUMPDEST SWAP2 POP PUSH32 0xFFFFFFFFFFFFFFFFFFFFFFFFFFFFFFFFFFFFFFFFFFFFFFFFFFFFFFFFFFFFFFFF DUP3 SUB PUSH2 0x2F8A JUMPI PUSH2 0x2F89 PUSH2 0x2D3E JUMP JUMPDEST JUMPDEST PUSH1 0x1 DUP3 ADD SWAP1 POP SWAP2 SWAP1 POP JUMP JUMPDEST PUSH0 PUSH1 0x40 DUP3 ADD SWAP1 POP PUSH2 0x2FA8 PUSH0 DUP4 ADD DUP6 PUSH2 0x27D3 JUMP JUMPDEST PUSH2 0x2FB5 PUSH1 0x20 DUP4 ADD DUP5 PUSH2 0x27D3 JUMP JUMPDEST SWAP4 SWAP3 POP POP POP JUMP JUMPDEST PUSH0 DUP3 DUP3 MSTORE PUSH1 0x20 DUP3 ADD SWAP1 POP SWAP3 SWAP2 POP POP JUMP JUMPDEST DUP3 DUP2 DUP4 CALLDATACOPY PUSH0 DUP4 DUP4 ADD MSTORE POP POP POP JUMP JUMPDEST PUSH0 PUSH1 0x1F NOT PUSH1 0x1F DUP4 ADD AND SWAP1 POP SWAP2 SWAP1 POP JUMP JUMPDEST PUSH0 PUSH2 0x2FF5 DUP4 DUP6 PUSH2 0x2FBC JUMP JUMPDEST SWAP4 POP PUSH2 0x3002 DUP4 DUP6 DUP5 PUSH2 0x2FCC JUMP JUMPDEST PUSH2 0x300B DUP4 PUSH2 0x2FDA JUMP JUMPDEST DUP5 ADD SWAP1 POP SWAP4 SWAP3 POP POP POP JUMP JUMPDEST PUSH0 PUSH1 0x80 DUP3 ADD SWAP1 POP DUP2 DUP2 SUB PUSH0 DUP4 ADD MSTORE PUSH2 0x302F DUP2 DUP8 DUP10 PUSH2 0x2FEA JUMP JUMPDEST SWAP1 POP PUSH2 0x303E PUSH1 0x20 DUP4 ADD DUP7 PUSH2 0x27D3 JUMP JUMPDEST PUSH2 0x304B PUSH1 0x40 DUP4 ADD DUP6 PUSH2 0x27D3 JUMP JUMPDEST PUSH2 0x3058 PUSH1 0x60 DUP4 ADD DUP5 PUSH2 0x27D3 JUMP JUMPDEST SWAP7 SWAP6 POP POP POP POP POP POP JUMP JUMPDEST PUSH2 0x306B DUP2 PUSH2 0x27A1 JUMP JUMPDEST DUP2 EQ PUSH2 0x3075 JUMPI PUSH0 PUSH0 REVERT JUMPDEST POP JUMP JUMPDEST PUSH0 DUP2 MLOAD SWAP1 POP PUSH2 0x3086 DUP2 PUSH2 0x3062 JUMP JUMPDEST SWAP3 SWAP2 POP POP JUMP JUMPDEST PUSH0 PUSH1 0x20 DUP3 DUP5 SUB SLT ISZERO PUSH2 0x30A1 JUMPI PUSH2 0x30A0 PUSH2 0x25EA JUMP JUMPDEST JUMPDEST PUSH0 PUSH2 0x30AE DUP5 DUP3 DUP6 ADD PUSH2 0x3078 JUMP JUMPDEST SWAP2 POP POP SWAP3 SWAP2 POP POP JUMP JUMPDEST PUSH32 0x4E487B7100000000000000000000000000000000000000000000000000000000 PUSH0 MSTORE PUSH1 0x12 PUSH1 0x4 MSTORE PUSH1 0x24 PUSH0 REVERT JUMPDEST PUSH0 PUSH2 0x30EE DUP3 PUSH2 0x25F2 JUMP JUMPDEST SWAP2 POP PUSH2 0x30F9 DUP4 PUSH2 0x25F2 JUMP JUMPDEST SWAP3 POP DUP3 PUSH2 0x3109 JUMPI PUSH2 0x3108 PUSH2 0x30B7 JUMP JUMPDEST JUMPDEST DUP3 DUP3 DIV SWAP1 POP SWAP3 SWAP2 POP POP JUMP JUMPDEST PUSH32 0x4348414C4C454E4745525F424F4E445F4C4F5700000000000000000000000000 PUSH0 DUP3 ADD MSTORE POP JUMP JUMPDEST PUSH0 PUSH2 0x3148 PUSH1 0x13 DUP4 PUSH2 0x2D9E JUMP JUMPDEST SWAP2 POP PUSH2 0x3153 DUP3 PUSH2 0x3114 JUMP JUMPDEST PUSH1 0x20 DUP3 ADD SWAP1 POP SWAP2 SWAP1 POP JUMP JUMPDEST PUSH0 PUSH1 0x20 DUP3 ADD SWAP1 POP DUP2 DUP2 SUB PUSH0 DUP4 ADD MSTORE PUSH2 0x3175 DUP2 PUSH2 0x313C JUMP JUMPDEST SWAP1 POP SWAP2 SWAP1 POP JUMP JUMPDEST PUSH32 0x5061757361626C653A2070617573656400000000000000000000000000000000 PUSH0 DUP3 ADD MSTORE POP JUMP JUMPDEST PUSH0 PUSH2 0x31B0 PUSH1 0x10 DUP4 PUSH2 0x2D9E JUMP JUMPDEST SWAP2 POP PUSH2 0x31BB DUP3 PUSH2 0x317C JUMP JUMPDEST PUSH1 0x20 DUP3 ADD SWAP1 POP SWAP2 SWAP1 POP JUMP JUMPDEST PUSH0 PUSH1 0x20 DUP3 ADD SWAP1 POP DUP2 DUP2 SUB PUSH0 DUP4 ADD MSTORE PUSH2 0x31DD DUP2 PUSH2 0x31A4 JUMP JUMPDEST SWAP1 POP SWAP2 SWAP1 POP JUMP JUMPDEST PUSH32 0x5265656E7472616E637947756172643A207265656E7472616E742063616C6C00 PUSH0 DUP3 ADD MSTORE POP JUMP JUMPDEST PUSH0 PUSH2 0x3218 PUSH1 0x1F DUP4 PUSH2 0x2D9E JUMP JUMPDEST SWAP2 POP PUSH2 0x3223 DUP3 PUSH2 0x31E4 JUMP JUMPDEST PUSH1 0x20 DUP3 ADD SWAP1 POP SWAP2 SWAP1 POP JUMP JUMPDEST PUSH0 PUSH1 0x20 DUP3 ADD SWAP1 POP DUP2 DUP2 SUB PUSH0 DUP4 ADD MSTORE PUSH2 0x3245 DUP2 PUSH2 0x320C JUMP JUMPDEST SWAP1 POP SWAP2 SWAP1 POP JUMP JUMPDEST PUSH0 PUSH1 0x40 DUP3 ADD SWAP1 POP PUSH2 0x325F PUSH0 DUP4 ADD DUP6 PUSH2 0x27E2 JUMP JUMPDEST PUSH2 0x326C PUSH1 0x20 DUP4 ADD DUP5 PUSH2 0x27BB JUMP JUMPDEST SWAP4 SWAP3 POP POP POP JUMP JUMPDEST PUSH0 PUSH1 0x60 DUP3 ADD SWAP1 POP PUSH2 0x3286 PUSH0 DUP4 ADD DUP7 PUSH2 0x27E2 JUMP JUMPDEST PUSH2 0x3293 PUSH1 0x20 DUP4 ADD DUP6 PUSH2 0x27E2 JUMP JUMPDEST PUSH2 0x32A0 PUSH1 0x40 DUP4 ADD DUP5 PUSH2 0x27BB JUMP JUMPDEST SWAP5 SWAP4 POP POP POP POP JUMP JUMPDEST PUSH32 0x4E487B7100000000000000000000000000000000000000000000000000000000 PUSH0 MSTORE PUSH1 0x32 PUSH1 0x4 MSTORE PUSH1 0x24 PUSH0 REVERT JUMPDEST PUSH32 0x5061757361626C653A206E6F7420706175736564000000000000000000000000 PUSH0 DUP3 ADD MSTORE POP JUMP JUMPDEST PUSH0 PUSH2 0x3309 PUSH1 0x14 DUP4 PUSH2 0x2D9E JUMP JUMPDEST SWAP2 POP PUSH2 0x3314 DUP3 PUSH2 0x32D5 JUMP JUMPDEST PUSH1 0x20 DUP3 ADD SWAP1 POP SWAP2 SWAP1 POP JUMP JUMPDEST PUSH0 PUSH1 0x20 DUP3 ADD SWAP1 POP DUP2 DUP2 SUB PUSH0 DUP4 ADD MSTORE PUSH2 0x3336 DUP2 PUSH2 0x32FD JUMP JUMPDEST SWAP1 POP SWAP2 SWAP1 POP JUMP INVALID LOG2 PUSH5 0x6970667358 0x22 SLT KECCAK256 ORIGIN RETURN SIGNEXTEND SWAP1 ADDMOD 0xDE DUP1 DUPN 0xE0 LOG0 DUP9 PUSH11 0x2777A8E58C583064B60AA8 SAR LOG3 OR 0xEA 0xDB SELFBALANCE DUP3 DUP7 0xD3 PUSH5 0x736F6C6343 STOP ADDMOD 0x1E STOP CALLER "
				},
				"gasEstimates": {
					"creation": {
						"codeDepositCost": "2634200",
						"executionCost": "infinite",
						"totalCost": "infinite"
					},
					"external": {
						"batchStatus(uint256)": "infinite",
						"batches(uint256)": "infinite",
						"bond()": "infinite",
						"bonds(address)": "2912",
						"challengeBatch(uint256)": "infinite",
						"challengeWindow()": "2515",
						"challengerBond()": "2514",
						"claimWithdrawal(uint256,address,uint256,uint256,bytes32[])": "infinite",
						"currentStateRoot()": "2470",
						"depositERC20(address,uint256)": "infinite",
						"depositETH()": "infinite",
						"depositNonce()": "2514",
						"finalizeBatch(uint256)": "infinite",
						"fraudVerifier()": "infinite",
						"latestBatchId()": "2515",
						"owner()": "2559",
						"pause()": "infinite",
						"paused()": "2635",
						"renounceOwnership()": "infinite",
						"resolveChallenge(uint256,bytes)": "infinite",
						"sequencer()": "2598",
						"sequencerBond()": "2536",
						"setFraudVerifier(address)": "infinite",
						"setParams(uint256,uint256,uint256)": "infinite",
						"setSequencer(address)": "infinite",
						"submitBatch(bytes32,bytes32,bytes32)": "infinite",
						"transferOwnership(address)": "infinite",
						"unbond(uint256)": "infinite",
						"unpause()": "infinite",
						"withdrawalClaimed(uint256,bytes32)": "3134"
					}
				},
				"methodIdentifiers": {
					"batchStatus(uint256)": "147e4e8f",
					"batches(uint256)": "b32c4d8d",
					"bond()": "64c9ec6f",
					"bonds(address)": "fe10d774",
					"challengeBatch(uint256)": "8fe0c544",
					"challengeWindow()": "861a1412",
					"challengerBond()": "68ccdc86",
					"claimWithdrawal(uint256,address,uint256,uint256,bytes32[])": "129d8000",
					"currentStateRoot()": "ac2eba98",
					"depositERC20(address,uint256)": "97feb926",
					"depositETH()": "f6326fb3",
					"depositNonce()": "de35f5cb",
					"finalizeBatch(uint256)": "e33491a7",
					"fraudVerifier()": "5c0b2cd3",
					"latestBatchId()": "4d4e7019",
					"owner()": "8da5cb5b",
					"pause()": "8456cb59",
					"paused()": "5c975abb",
					"renounceOwnership()": "715018a6",
					"resolveChallenge(uint256,bytes)": "7b6605c5",
					"sequencer()": "5c1bba38",
					"sequencerBond()": "a8608d18",
					"setFraudVerifier(address)": "e7b417a6",
					"setParams(uint256,uint256,uint256)": "5a0ce676",
					"setSequencer(address)": "2547fa3e",
					"submitBatch(bytes32,bytes32,bytes32)": "67f4f4eb",
					"transferOwnership(address)": "f2fde38b",
					"unbond(uint256)": "27de9e32",
					"unpause()": "3f4ba83a",
					"withdrawalClaimed(uint256,bytes32)": "57348b83"
				}
			},
			"storageLayout": {
				"storage": [
					{
						"astId": 8,
						"contract": "Smart Contracts/27_OptimisticL2RollUps.sol:OptimisticRollupSimulation",
						"label": "_owner",
						"offset": 0,
						"slot": "0",
						"type": "t_address"
					},
					{
						"astId": 255,
						"contract": "Smart Contracts/27_OptimisticL2RollUps.sol:OptimisticRollupSimulation",
						"label": "_paused",
						"offset": 20,
						"slot": "0",
						"type": "t_bool"
					},
					{
						"astId": 356,
						"contract": "Smart Contracts/27_OptimisticL2RollUps.sol:OptimisticRollupSimulation",
						"label": "_status",
						"offset": 0,
						"slot": "1",
						"type": "t_uint256"
					},
					{
						"astId": 2167,
						"contract": "Smart Contracts/27_OptimisticL2RollUps.sol:OptimisticRollupSimulation",
						"label": "sequencer",
						"offset": 0,
						"slot": "2",
						"type": "t_address"
					},
					{
						"astId": 2170,
						"contract": "Smart Contracts/27_OptimisticL2RollUps.sol:OptimisticRollupSimulation",
						"label": "fraudVerifier",
						"offset": 0,
						"slot": "3",
						"type": "t_contract(IFraudProofVerifier)2129"
					},
					{
						"astId": 2172,
						"contract": "Smart Contracts/27_OptimisticL2RollUps.sol:OptimisticRollupSimulation",
						"label": "sequencerBond",
						"offset": 0,
						"slot": "4",
						"type": "t_uint256"
					},
					{
						"astId": 2174,
						"contract": "Smart Contracts/27_OptimisticL2RollUps.sol:OptimisticRollupSimulation",
						"label": "challengerBond",
						"offset": 0,
						"slot": "5",
						"type": "t_uint256"
					},
					{
						"astId": 2176,
						"contract": "Smart Contracts/27_OptimisticL2RollUps.sol:OptimisticRollupSimulation",
						"label": "challengeWindow",
						"offset": 0,
						"slot": "6",
						"type": "t_uint256"
					},
					{
						"astId": 2180,
						"contract": "Smart Contracts/27_OptimisticL2RollUps.sol:OptimisticRollupSimulation",
						"label": "bonds",
						"offset": 0,
						"slot": "7",
						"type": "t_mapping(t_address,t_uint256)"
					},
					{
						"astId": 2199,
						"contract": "Smart Contracts/27_OptimisticL2RollUps.sol:OptimisticRollupSimulation",
						"label": "latestBatchId",
						"offset": 0,
						"slot": "8",
						"type": "t_uint256"
					},
					{
						"astId": 2204,
						"contract": "Smart Contracts/27_OptimisticL2RollUps.sol:OptimisticRollupSimulation",
						"label": "batches",
						"offset": 0,
						"slot": "9",
						"type": "t_mapping(t_uint256,t_struct(Batch)2197_storage)"
					},
					{
						"astId": 2206,
						"contract": "Smart Contracts/27_OptimisticL2RollUps.sol:OptimisticRollupSimulation",
						"label": "currentStateRoot",
						"offset": 0,
						"slot": "10",
						"type": "t_bytes32"
					},
					{
						"astId": 2208,
						"contract": "Smart Contracts/27_OptimisticL2RollUps.sol:OptimisticRollupSimulation",
						"label": "depositNonce",
						"offset": 0,
						"slot": "11",
						"type": "t_uint256"
					},
					{
						"astId": 2280,
						"contract": "Smart Contracts/27_OptimisticL2RollUps.sol:OptimisticRollupSimulation",
						"label": "withdrawalClaimed",
						"offset": 0,
						"slot": "12",
						"type": "t_mapping(t_uint256,t_mapping(t_bytes32,t_bool))"
					}
				],
				"types": {
					"t_address": {
						"encoding": "inplace",
						"label": "address",
						"numberOfBytes": "20"
					},
					"t_bool": {
						"encoding": "inplace",
						"label": "bool",
						"numberOfBytes": "1"
					},
					"t_bytes32": {
						"encoding": "inplace",
						"label": "bytes32",
						"numberOfBytes": "32"
					},
					"t_contract(IFraudProofVerifier)2129": {
						"encoding": "inplace",
						"label": "contract IFraudProofVerifier",
						"numberOfBytes": "20"
					},
					"t_mapping(t_address,t_uint256)": {
						"encoding": "mapping",
						"key": "t_address",
						"label": "mapping(address => uint256)",
						"numberOfBytes": "32",
						"value": "t_uint256"
					},
					"t_mapping(t_bytes32,t_bool)": {
						"encoding": "mapping",
						"key": "t_bytes32",
						"label": "mapping(bytes32 => bool)",
						"numberOfBytes": "32",
						"value": "t_bool"
					},
					"t_mapping(t_uint256,t_mapping(t_bytes32,t_bool))": {
						"encoding": "mapping",
						"key": "t_uint256",
						"label": "mapping(uint256 => mapping(bytes32 => bool))",
						"numberOfBytes": "32",
						"value": "t_mapping(t_bytes32,t_bool)"
					},
					"t_mapping(t_uint256,t_struct(Batch)2197_storage)": {
						"encoding": "mapping",
						"key": "t_uint256",
						"label": "mapping(uint256 => struct OptimisticRollupSimulation.Batch)",
						"numberOfBytes": "32",
						"value": "t_struct(Batch)2197_storage"
					},
					"t_struct(Batch)2197_storage": {
						"encoding": "inplace",
						"label": "struct OptimisticRollupSimulation.Batch",
						"members": [
							{
								"astId": 2182,
								"contract": "Smart Contracts/27_OptimisticL2RollUps.sol:OptimisticRollupSimulation",
								"label": "prevStateRoot",
								"offset": 0,
								"slot": "0",
								"type": "t_bytes32"
							},
							{
								"astId": 2184,
								"contract": "Smart Contracts/27_OptimisticL2RollUps.sol:OptimisticRollupSimulation",
								"label": "newStateRoot",
								"offset": 0,
								"slot": "1",
								"type": "t_bytes32"
							},
							{
								"astId": 2186,
								"contract": "Smart Contracts/27_OptimisticL2RollUps.sol:OptimisticRollupSimulation",
								"label": "txDataHash",
								"offset": 0,
								"slot": "2",
								"type": "t_bytes32"
							},
							{
								"astId": 2188,
								"contract": "Smart Contracts/27_OptimisticL2RollUps.sol:OptimisticRollupSimulation",
								"label": "withdrawalRoot",
								"offset": 0,
								"slot": "3",
								"type": "t_bytes32"
							},
							{
								"astId": 2190,
								"contract": "Smart Contracts/27_OptimisticL2RollUps.sol:OptimisticRollupSimulation",
								"label": "submittedAt",
								"offset": 0,
								"slot": "4",
								"type": "t_uint64"
							},
							{
								"astId": 2192,
								"contract": "Smart Contracts/27_OptimisticL2RollUps.sol:OptimisticRollupSimulation",
								"label": "challenged",
								"offset": 8,
								"slot": "4",
								"type": "t_bool"
							},
							{
								"astId": 2194,
								"contract": "Smart Contracts/27_OptimisticL2RollUps.sol:OptimisticRollupSimulation",
								"label": "finalized",
								"offset": 9,
								"slot": "4",
								"type": "t_bool"
							},
							{
								"astId": 2196,
								"contract": "Smart Contracts/27_OptimisticL2RollUps.sol:OptimisticRollupSimulation",
								"label": "challenger",
								"offset": 10,
								"slot": "4",
								"type": "t_address"
							}
						],
						"numberOfBytes": "160"
					},
					"t_uint256": {
						"encoding": "inplace",
						"label": "uint256",
						"numberOfBytes": "32"
					},
					"t_uint64": {
						"encoding": "inplace",
						"label": "uint64",
						"numberOfBytes": "8"
					}
				}
			},
			"userdoc": {
				"kind": "user",
				"methods": {
					"claimWithdrawal(uint256,address,uint256,uint256,bytes32[])": {
						"notice": "Leaf format (must match your off-chain Merkle tree): leaf = keccak256(abi.encodePacked(user, token, amount, nonce))"
					}
				},
				"version": 1
			}
		}
	}
}