{
	"Smart Contracts/20_PriceFeedCustomer.sol": {
		"PriceFeedConsumer": {
			"abi": [
				{
					"inputs": [
						{
							"internalType": "address",
							"name": "_priceFeedAddress",
							"type": "address"
						}
					],
					"stateMutability": "nonpayable",
					"type": "constructor"
				},
				{
					"inputs": [],
					"name": "getDecimals",
					"outputs": [
						{
							"internalType": "uint8",
							"name": "",
							"type": "uint8"
						}
					],
					"stateMutability": "view",
					"type": "function"
				},
				{
					"inputs": [],
					"name": "getLastUpdatedTime",
					"outputs": [
						{
							"internalType": "uint256",
							"name": "",
							"type": "uint256"
						}
					],
					"stateMutability": "view",
					"type": "function"
				},
				{
					"inputs": [],
					"name": "getLatestPrice",
					"outputs": [
						{
							"internalType": "int256",
							"name": "",
							"type": "int256"
						}
					],
					"stateMutability": "view",
					"type": "function"
				},
				{
					"inputs": [],
					"name": "getReadablePrice",
					"outputs": [
						{
							"internalType": "int256",
							"name": "",
							"type": "int256"
						}
					],
					"stateMutability": "view",
					"type": "function"
				},
				{
					"inputs": [],
					"name": "priceFeed",
					"outputs": [
						{
							"internalType": "contract AggregatorV3Interface",
							"name": "",
							"type": "address"
						}
					],
					"stateMutability": "view",
					"type": "function"
				}
			],
			"devdoc": {
				"kind": "dev",
				"methods": {},
				"version": 1
			},
			"evm": {
				"assembly": "    /* \"Smart Contracts/20_PriceFeedCustomer.sol\":141:1130  contract PriceFeedConsumer {... */\n  mstore(0x40, 0x80)\n    /* \"Smart Contracts/20_PriceFeedCustomer.sol\":224:334  constructor(address _priceFeedAddress) {... */\n  callvalue\n  dup1\n  iszero\n  tag_1\n  jumpi\n  revert(0x00, 0x00)\ntag_1:\n  pop\n  mload(0x40)\n  sub(codesize, bytecodeSize)\n  dup1\n  bytecodeSize\n  dup4\n  codecopy\n  dup2\n  dup2\n  add\n  0x40\n  mstore\n  dup2\n  add\n  swap1\n  tag_2\n  swap2\n  swap1\n  tag_3\n  jump\t// in\ntag_2:\n    /* \"Smart Contracts/20_PriceFeedCustomer.sol\":308:325  _priceFeedAddress */\n  dup1\n    /* \"Smart Contracts/20_PriceFeedCustomer.sol\":274:283  priceFeed */\n  0x00\n  0x00\n    /* \"Smart Contracts/20_PriceFeedCustomer.sol\":274:326  priceFeed = AggregatorV3Interface(_priceFeedAddress) */\n  0x0100\n  exp\n  dup2\n  sload\n  dup2\n  0xffffffffffffffffffffffffffffffffffffffff\n  mul\n  not\n  and\n  swap1\n  dup4\n  0xffffffffffffffffffffffffffffffffffffffff\n  and\n  mul\n  or\n  swap1\n  sstore\n  pop\n    /* \"Smart Contracts/20_PriceFeedCustomer.sol\":224:334  constructor(address _priceFeedAddress) {... */\n  pop\n    /* \"Smart Contracts/20_PriceFeedCustomer.sol\":141:1130  contract PriceFeedConsumer {... */\n  jump(tag_6)\n    /* \"#utility.yul\":88:205   */\ntag_8:\n    /* \"#utility.yul\":197:198   */\n  0x00\n    /* \"#utility.yul\":194:195   */\n  0x00\n    /* \"#utility.yul\":187:199   */\n  revert\n    /* \"#utility.yul\":334:460   */\ntag_10:\n    /* \"#utility.yul\":371:378   */\n  0x00\n    /* \"#utility.yul\":411:453   */\n  0xffffffffffffffffffffffffffffffffffffffff\n    /* \"#utility.yul\":404:409   */\n  dup3\n    /* \"#utility.yul\":400:454   */\n  and\n    /* \"#utility.yul\":389:454   */\n  swap1\n  pop\n    /* \"#utility.yul\":334:460   */\n  swap2\n  swap1\n  pop\n  jump\t// out\n    /* \"#utility.yul\":466:562   */\ntag_11:\n    /* \"#utility.yul\":503:510   */\n  0x00\n    /* \"#utility.yul\":532:556   */\n  tag_20\n    /* \"#utility.yul\":550:555   */\n  dup3\n    /* \"#utility.yul\":532:556   */\n  tag_10\n  jump\t// in\ntag_20:\n    /* \"#utility.yul\":521:556   */\n  swap1\n  pop\n    /* \"#utility.yul\":466:562   */\n  swap2\n  swap1\n  pop\n  jump\t// out\n    /* \"#utility.yul\":568:690   */\ntag_12:\n    /* \"#utility.yul\":641:665   */\n  tag_22\n    /* \"#utility.yul\":659:664   */\n  dup2\n    /* \"#utility.yul\":641:665   */\n  tag_11\n  jump\t// in\ntag_22:\n    /* \"#utility.yul\":634:639   */\n  dup2\n    /* \"#utility.yul\":631:666   */\n  eq\n    /* \"#utility.yul\":621:684   */\n  tag_23\n  jumpi\n    /* \"#utility.yul\":680:681   */\n  0x00\n    /* \"#utility.yul\":677:678   */\n  0x00\n    /* \"#utility.yul\":670:682   */\n  revert\n    /* \"#utility.yul\":621:684   */\ntag_23:\n    /* \"#utility.yul\":568:690   */\n  pop\n  jump\t// out\n    /* \"#utility.yul\":696:839   */\ntag_13:\n    /* \"#utility.yul\":753:758   */\n  0x00\n    /* \"#utility.yul\":784:790   */\n  dup2\n    /* \"#utility.yul\":778:791   */\n  mload\n    /* \"#utility.yul\":769:791   */\n  swap1\n  pop\n    /* \"#utility.yul\":800:833   */\n  tag_25\n    /* \"#utility.yul\":827:832   */\n  dup2\n    /* \"#utility.yul\":800:833   */\n  tag_12\n  jump\t// in\ntag_25:\n    /* \"#utility.yul\":696:839   */\n  swap3\n  swap2\n  pop\n  pop\n  jump\t// out\n    /* \"#utility.yul\":845:1196   */\ntag_3:\n    /* \"#utility.yul\":915:921   */\n  0x00\n    /* \"#utility.yul\":964:966   */\n  0x20\n    /* \"#utility.yul\":952:961   */\n  dup3\n    /* \"#utility.yul\":943:950   */\n  dup5\n    /* \"#utility.yul\":939:962   */\n  sub\n    /* \"#utility.yul\":935:967   */\n  slt\n    /* \"#utility.yul\":932:1051   */\n  iszero\n  tag_27\n  jumpi\n    /* \"#utility.yul\":970:1049   */\n  tag_28\n  tag_8\n  jump\t// in\ntag_28:\n    /* \"#utility.yul\":932:1051   */\ntag_27:\n    /* \"#utility.yul\":1090:1091   */\n  0x00\n    /* \"#utility.yul\":1115:1179   */\n  tag_29\n    /* \"#utility.yul\":1171:1178   */\n  dup5\n    /* \"#utility.yul\":1162:1168   */\n  dup3\n    /* \"#utility.yul\":1151:1160   */\n  dup6\n    /* \"#utility.yul\":1147:1169   */\n  add\n    /* \"#utility.yul\":1115:1179   */\n  tag_13\n  jump\t// in\ntag_29:\n    /* \"#utility.yul\":1105:1179   */\n  swap2\n  pop\n    /* \"#utility.yul\":1061:1189   */\n  pop\n    /* \"#utility.yul\":845:1196   */\n  swap3\n  swap2\n  pop\n  pop\n  jump\t// out\n    /* \"Smart Contracts/20_PriceFeedCustomer.sol\":141:1130  contract PriceFeedConsumer {... */\ntag_6:\n  dataSize(sub_0)\n  dup1\n  dataOffset(sub_0)\n  0x00\n  codecopy\n  0x00\n  return\nstop\n\nsub_0: assembly {\n        /* \"Smart Contracts/20_PriceFeedCustomer.sol\":141:1130  contract PriceFeedConsumer {... */\n      mstore(0x40, 0x80)\n      callvalue\n      dup1\n      iszero\n      tag_1\n      jumpi\n      revert(0x00, 0x00)\n    tag_1:\n      pop\n      jumpi(tag_2, lt(calldatasize, 0x04))\n      shr(0xe0, calldataload(0x00))\n      dup1\n      0x13d77aba\n      eq\n      tag_3\n      jumpi\n      dup1\n      0x741bef1a\n      eq\n      tag_4\n      jumpi\n      dup1\n      0x8e15f473\n      eq\n      tag_5\n      jumpi\n      dup1\n      0xb4b970f8\n      eq\n      tag_6\n      jumpi\n      dup1\n      0xf0141d84\n      eq\n      tag_7\n      jumpi\n    tag_2:\n      revert(0x00, 0x00)\n        /* \"Smart Contracts/20_PriceFeedCustomer.sol\":929:1127  function getReadablePrice() public view returns (int256) {... */\n    tag_3:\n      tag_8\n      tag_9\n      jump\t// in\n    tag_8:\n      mload(0x40)\n      tag_10\n      swap2\n      swap1\n      tag_11\n      jump\t// in\n    tag_10:\n      mload(0x40)\n      dup1\n      swap2\n      sub\n      swap1\n      return\n        /* \"Smart Contracts/20_PriceFeedCustomer.sol\":177:215  AggregatorV3Interface public priceFeed */\n    tag_4:\n      tag_12\n      tag_13\n      jump\t// in\n    tag_12:\n      mload(0x40)\n      tag_14\n      swap2\n      swap1\n      tag_15\n      jump\t// in\n    tag_14:\n      mload(0x40)\n      dup1\n      swap2\n      sub\n      swap1\n      return\n        /* \"Smart Contracts/20_PriceFeedCustomer.sol\":342:645  function getLatestPrice() public view returns (int256) {... */\n    tag_5:\n      tag_16\n      tag_17\n      jump\t// in\n    tag_16:\n      mload(0x40)\n      tag_18\n      swap2\n      swap1\n      tag_11\n      jump\t// in\n    tag_18:\n      mload(0x40)\n      dup1\n      swap2\n      sub\n      swap1\n      return\n        /* \"Smart Contracts/20_PriceFeedCustomer.sol\":758:921  function getLastUpdatedTime() public view returns (uint256) {... */\n    tag_6:\n      tag_19\n      tag_20\n      jump\t// in\n    tag_19:\n      mload(0x40)\n      tag_21\n      swap2\n      swap1\n      tag_22\n      jump\t// in\n    tag_21:\n      mload(0x40)\n      dup1\n      swap2\n      sub\n      swap1\n      return\n        /* \"Smart Contracts/20_PriceFeedCustomer.sol\":653:750  function getDecimals() public view returns (uint8) {... */\n    tag_7:\n      tag_23\n      tag_24\n      jump\t// in\n    tag_23:\n      mload(0x40)\n      tag_25\n      swap2\n      swap1\n      tag_26\n      jump\t// in\n    tag_25:\n      mload(0x40)\n      dup1\n      swap2\n      sub\n      swap1\n      return\n        /* \"Smart Contracts/20_PriceFeedCustomer.sol\":929:1127  function getReadablePrice() public view returns (int256) {... */\n    tag_9:\n        /* \"Smart Contracts/20_PriceFeedCustomer.sol\":978:984  int256 */\n      0x00\n        /* \"Smart Contracts/20_PriceFeedCustomer.sol\":997:1009  int256 price */\n      0x00\n        /* \"Smart Contracts/20_PriceFeedCustomer.sol\":1012:1028  getLatestPrice() */\n      tag_28\n        /* \"Smart Contracts/20_PriceFeedCustomer.sol\":1012:1026  getLatestPrice */\n      tag_17\n        /* \"Smart Contracts/20_PriceFeedCustomer.sol\":1012:1028  getLatestPrice() */\n      jump\t// in\n    tag_28:\n        /* \"Smart Contracts/20_PriceFeedCustomer.sol\":997:1028  int256 price = getLatestPrice() */\n      swap1\n      pop\n        /* \"Smart Contracts/20_PriceFeedCustomer.sol\":1039:1053  uint8 decimals */\n      0x00\n        /* \"Smart Contracts/20_PriceFeedCustomer.sol\":1056:1069  getDecimals() */\n      tag_29\n        /* \"Smart Contracts/20_PriceFeedCustomer.sol\":1056:1067  getDecimals */\n      tag_24\n        /* \"Smart Contracts/20_PriceFeedCustomer.sol\":1056:1069  getDecimals() */\n      jump\t// in\n    tag_29:\n        /* \"Smart Contracts/20_PriceFeedCustomer.sol\":1039:1069  uint8 decimals = getDecimals() */\n      swap1\n      pop\n        /* \"Smart Contracts/20_PriceFeedCustomer.sol\":1110:1118  decimals */\n      dup1\n        /* \"Smart Contracts/20_PriceFeedCustomer.sol\":1104:1106  10 */\n      0x0a\n        /* \"Smart Contracts/20_PriceFeedCustomer.sol\":1104:1118  10 ** decimals */\n      tag_30\n      swap2\n      swap1\n      tag_31\n      jump\t// in\n    tag_30:\n        /* \"Smart Contracts/20_PriceFeedCustomer.sol\":1089:1094  price */\n      dup3\n        /* \"Smart Contracts/20_PriceFeedCustomer.sol\":1089:1119  price / int256(10 ** decimals) */\n      tag_32\n      swap2\n      swap1\n      tag_33\n      jump\t// in\n    tag_32:\n        /* \"Smart Contracts/20_PriceFeedCustomer.sol\":1082:1119  return price / int256(10 ** decimals) */\n      swap3\n      pop\n      pop\n      pop\n        /* \"Smart Contracts/20_PriceFeedCustomer.sol\":929:1127  function getReadablePrice() public view returns (int256) {... */\n      swap1\n      jump\t// out\n        /* \"Smart Contracts/20_PriceFeedCustomer.sol\":177:215  AggregatorV3Interface public priceFeed */\n    tag_13:\n      0x00\n      0x00\n      swap1\n      sload\n      swap1\n      0x0100\n      exp\n      swap1\n      div\n      0xffffffffffffffffffffffffffffffffffffffff\n      and\n      dup2\n      jump\t// out\n        /* \"Smart Contracts/20_PriceFeedCustomer.sol\":342:645  function getLatestPrice() public view returns (int256) {... */\n    tag_17:\n        /* \"Smart Contracts/20_PriceFeedCustomer.sol\":389:395  int256 */\n      0x00\n        /* \"Smart Contracts/20_PriceFeedCustomer.sol\":439:451  int256 price */\n      0x00\n        /* \"Smart Contracts/20_PriceFeedCustomer.sol\":483:500  uint256 updatedAt */\n      0x00\n        /* \"Smart Contracts/20_PriceFeedCustomer.sol\":530:539  priceFeed */\n      0x00\n      0x00\n      swap1\n      sload\n      swap1\n      0x0100\n      exp\n      swap1\n      div\n      0xffffffffffffffffffffffffffffffffffffffff\n      and\n        /* \"Smart Contracts/20_PriceFeedCustomer.sol\":530:555  priceFeed.latestRoundData */\n      0xffffffffffffffffffffffffffffffffffffffff\n      and\n      0xfeaf968c\n        /* \"Smart Contracts/20_PriceFeedCustomer.sol\":530:557  priceFeed.latestRoundData() */\n      mload(0x40)\n      dup2\n      0xffffffff\n      and\n      0xe0\n      shl\n      dup2\n      mstore\n      0x04\n      add\n      0xa0\n      mload(0x40)\n      dup1\n      dup4\n      sub\n      dup2\n      dup7\n      gas\n      staticcall\n      iszero\n      dup1\n      iszero\n      tag_36\n      jumpi\n      returndatacopy(0x00, 0x00, returndatasize)\n      revert(0x00, returndatasize)\n    tag_36:\n      pop\n      pop\n      pop\n      pop\n      mload(0x40)\n      returndatasize\n      not(0x1f)\n      0x1f\n      dup3\n      add\n      and\n      dup3\n      add\n      dup1\n      0x40\n      mstore\n      pop\n      dup2\n      add\n      swap1\n      tag_37\n      swap2\n      swap1\n      tag_38\n      jump\t// in\n    tag_37:\n        /* \"Smart Contracts/20_PriceFeedCustomer.sol\":408:557  (... */\n      pop\n      swap4\n      pop\n      pop\n      swap3\n      pop\n      pop\n        /* \"Smart Contracts/20_PriceFeedCustomer.sol\":590:591  0 */\n      0x00\n        /* \"Smart Contracts/20_PriceFeedCustomer.sol\":578:587  updatedAt */\n      dup2\n        /* \"Smart Contracts/20_PriceFeedCustomer.sol\":578:591  updatedAt > 0 */\n      gt\n        /* \"Smart Contracts/20_PriceFeedCustomer.sol\":570:614  require(updatedAt > 0, \"Invalid price data\") */\n      tag_39\n      jumpi\n      mload(0x40)\n      0x08c379a000000000000000000000000000000000000000000000000000000000\n      dup2\n      mstore\n      0x04\n      add\n      tag_40\n      swap1\n      tag_41\n      jump\t// in\n    tag_40:\n      mload(0x40)\n      dup1\n      swap2\n      sub\n      swap1\n      revert\n    tag_39:\n        /* \"Smart Contracts/20_PriceFeedCustomer.sol\":632:637  price */\n      dup2\n        /* \"Smart Contracts/20_PriceFeedCustomer.sol\":625:637  return price */\n      swap3\n      pop\n      pop\n      pop\n        /* \"Smart Contracts/20_PriceFeedCustomer.sol\":342:645  function getLatestPrice() public view returns (int256) {... */\n      swap1\n      jump\t// out\n        /* \"Smart Contracts/20_PriceFeedCustomer.sol\":758:921  function getLastUpdatedTime() public view returns (uint256) {... */\n    tag_20:\n        /* \"Smart Contracts/20_PriceFeedCustomer.sol\":809:816  uint256 */\n      0x00\n        /* \"Smart Contracts/20_PriceFeedCustomer.sol\":836:853  uint256 updatedAt */\n      0x00\n        /* \"Smart Contracts/20_PriceFeedCustomer.sol\":859:868  priceFeed */\n      0x00\n      0x00\n      swap1\n      sload\n      swap1\n      0x0100\n      exp\n      swap1\n      div\n      0xffffffffffffffffffffffffffffffffffffffff\n      and\n        /* \"Smart Contracts/20_PriceFeedCustomer.sol\":859:884  priceFeed.latestRoundData */\n      0xffffffffffffffffffffffffffffffffffffffff\n      and\n      0xfeaf968c\n        /* \"Smart Contracts/20_PriceFeedCustomer.sol\":859:886  priceFeed.latestRoundData() */\n      mload(0x40)\n      dup2\n      0xffffffff\n      and\n      0xe0\n      shl\n      dup2\n      mstore\n      0x04\n      add\n      0xa0\n      mload(0x40)\n      dup1\n      dup4\n      sub\n      dup2\n      dup7\n      gas\n      staticcall\n      iszero\n      dup1\n      iszero\n      tag_44\n      jumpi\n      returndatacopy(0x00, 0x00, returndatasize)\n      revert(0x00, returndatasize)\n    tag_44:\n      pop\n      pop\n      pop\n      pop\n      mload(0x40)\n      returndatasize\n      not(0x1f)\n      0x1f\n      dup3\n      add\n      and\n      dup3\n      add\n      dup1\n      0x40\n      mstore\n      pop\n      dup2\n      add\n      swap1\n      tag_45\n      swap2\n      swap1\n      tag_38\n      jump\t// in\n    tag_45:\n        /* \"Smart Contracts/20_PriceFeedCustomer.sol\":829:886  (, , , uint256 updatedAt, ) = priceFeed.latestRoundData() */\n      pop\n      swap4\n      pop\n      pop\n      pop\n      pop\n        /* \"Smart Contracts/20_PriceFeedCustomer.sol\":904:913  updatedAt */\n      dup1\n        /* \"Smart Contracts/20_PriceFeedCustomer.sol\":897:913  return updatedAt */\n      swap2\n      pop\n      pop\n        /* \"Smart Contracts/20_PriceFeedCustomer.sol\":758:921  function getLastUpdatedTime() public view returns (uint256) {... */\n      swap1\n      jump\t// out\n        /* \"Smart Contracts/20_PriceFeedCustomer.sol\":653:750  function getDecimals() public view returns (uint8) {... */\n    tag_24:\n        /* \"Smart Contracts/20_PriceFeedCustomer.sol\":697:702  uint8 */\n      0x00\n        /* \"Smart Contracts/20_PriceFeedCustomer.sol\":722:731  priceFeed */\n      0x00\n      0x00\n      swap1\n      sload\n      swap1\n      0x0100\n      exp\n      swap1\n      div\n      0xffffffffffffffffffffffffffffffffffffffff\n      and\n        /* \"Smart Contracts/20_PriceFeedCustomer.sol\":722:740  priceFeed.decimals */\n      0xffffffffffffffffffffffffffffffffffffffff\n      and\n      0x313ce567\n        /* \"Smart Contracts/20_PriceFeedCustomer.sol\":722:742  priceFeed.decimals() */\n      mload(0x40)\n      dup2\n      0xffffffff\n      and\n      0xe0\n      shl\n      dup2\n      mstore\n      0x04\n      add\n      0x20\n      mload(0x40)\n      dup1\n      dup4\n      sub\n      dup2\n      dup7\n      gas\n      staticcall\n      iszero\n      dup1\n      iszero\n      tag_48\n      jumpi\n      returndatacopy(0x00, 0x00, returndatasize)\n      revert(0x00, returndatasize)\n    tag_48:\n      pop\n      pop\n      pop\n      pop\n      mload(0x40)\n      returndatasize\n      not(0x1f)\n      0x1f\n      dup3\n      add\n      and\n      dup3\n      add\n      dup1\n      0x40\n      mstore\n      pop\n      dup2\n      add\n      swap1\n      tag_49\n      swap2\n      swap1\n      tag_50\n      jump\t// in\n    tag_49:\n        /* \"Smart Contracts/20_PriceFeedCustomer.sol\":715:742  return priceFeed.decimals() */\n      swap1\n      pop\n        /* \"Smart Contracts/20_PriceFeedCustomer.sol\":653:750  function getDecimals() public view returns (uint8) {... */\n      swap1\n      jump\t// out\n        /* \"#utility.yul\":7:83   */\n    tag_51:\n        /* \"#utility.yul\":43:50   */\n      0x00\n        /* \"#utility.yul\":72:77   */\n      dup2\n        /* \"#utility.yul\":61:77   */\n      swap1\n      pop\n        /* \"#utility.yul\":7:83   */\n      swap2\n      swap1\n      pop\n      jump\t// out\n        /* \"#utility.yul\":89:204   */\n    tag_52:\n        /* \"#utility.yul\":174:197   */\n      tag_86\n        /* \"#utility.yul\":191:196   */\n      dup2\n        /* \"#utility.yul\":174:197   */\n      tag_51\n      jump\t// in\n    tag_86:\n        /* \"#utility.yul\":169:172   */\n      dup3\n        /* \"#utility.yul\":162:198   */\n      mstore\n        /* \"#utility.yul\":89:204   */\n      pop\n      pop\n      jump\t// out\n        /* \"#utility.yul\":210:428   */\n    tag_11:\n        /* \"#utility.yul\":301:305   */\n      0x00\n        /* \"#utility.yul\":339:341   */\n      0x20\n        /* \"#utility.yul\":328:337   */\n      dup3\n        /* \"#utility.yul\":324:342   */\n      add\n        /* \"#utility.yul\":316:342   */\n      swap1\n      pop\n        /* \"#utility.yul\":352:421   */\n      tag_88\n        /* \"#utility.yul\":418:419   */\n      0x00\n        /* \"#utility.yul\":407:416   */\n      dup4\n        /* \"#utility.yul\":403:420   */\n      add\n        /* \"#utility.yul\":394:400   */\n      dup5\n        /* \"#utility.yul\":352:421   */\n      tag_52\n      jump\t// in\n    tag_88:\n        /* \"#utility.yul\":210:428   */\n      swap3\n      swap2\n      pop\n      pop\n      jump\t// out\n        /* \"#utility.yul\":434:560   */\n    tag_53:\n        /* \"#utility.yul\":471:478   */\n      0x00\n        /* \"#utility.yul\":511:553   */\n      0xffffffffffffffffffffffffffffffffffffffff\n        /* \"#utility.yul\":504:509   */\n      dup3\n        /* \"#utility.yul\":500:554   */\n      and\n        /* \"#utility.yul\":489:554   */\n      swap1\n      pop\n        /* \"#utility.yul\":434:560   */\n      swap2\n      swap1\n      pop\n      jump\t// out\n        /* \"#utility.yul\":566:626   */\n    tag_54:\n        /* \"#utility.yul\":594:597   */\n      0x00\n        /* \"#utility.yul\":615:620   */\n      dup2\n        /* \"#utility.yul\":608:620   */\n      swap1\n      pop\n        /* \"#utility.yul\":566:626   */\n      swap2\n      swap1\n      pop\n      jump\t// out\n        /* \"#utility.yul\":632:774   */\n    tag_55:\n        /* \"#utility.yul\":682:691   */\n      0x00\n        /* \"#utility.yul\":715:768   */\n      tag_92\n        /* \"#utility.yul\":733:767   */\n      tag_93\n        /* \"#utility.yul\":742:766   */\n      tag_94\n        /* \"#utility.yul\":760:765   */\n      dup5\n        /* \"#utility.yul\":742:766   */\n      tag_53\n      jump\t// in\n    tag_94:\n        /* \"#utility.yul\":733:767   */\n      tag_54\n      jump\t// in\n    tag_93:\n        /* \"#utility.yul\":715:768   */\n      tag_53\n      jump\t// in\n    tag_92:\n        /* \"#utility.yul\":702:768   */\n      swap1\n      pop\n        /* \"#utility.yul\":632:774   */\n      swap2\n      swap1\n      pop\n      jump\t// out\n        /* \"#utility.yul\":780:906   */\n    tag_56:\n        /* \"#utility.yul\":830:839   */\n      0x00\n        /* \"#utility.yul\":863:900   */\n      tag_96\n        /* \"#utility.yul\":894:899   */\n      dup3\n        /* \"#utility.yul\":863:900   */\n      tag_55\n      jump\t// in\n    tag_96:\n        /* \"#utility.yul\":850:900   */\n      swap1\n      pop\n        /* \"#utility.yul\":780:906   */\n      swap2\n      swap1\n      pop\n      jump\t// out\n        /* \"#utility.yul\":912:1066   */\n    tag_57:\n        /* \"#utility.yul\":990:999   */\n      0x00\n        /* \"#utility.yul\":1023:1060   */\n      tag_98\n        /* \"#utility.yul\":1054:1059   */\n      dup3\n        /* \"#utility.yul\":1023:1060   */\n      tag_56\n      jump\t// in\n    tag_98:\n        /* \"#utility.yul\":1010:1060   */\n      swap1\n      pop\n        /* \"#utility.yul\":912:1066   */\n      swap2\n      swap1\n      pop\n      jump\t// out\n        /* \"#utility.yul\":1072:1259   */\n    tag_58:\n        /* \"#utility.yul\":1187:1252   */\n      tag_100\n        /* \"#utility.yul\":1246:1251   */\n      dup2\n        /* \"#utility.yul\":1187:1252   */\n      tag_57\n      jump\t// in\n    tag_100:\n        /* \"#utility.yul\":1182:1185   */\n      dup3\n        /* \"#utility.yul\":1175:1253   */\n      mstore\n        /* \"#utility.yul\":1072:1259   */\n      pop\n      pop\n      jump\t// out\n        /* \"#utility.yul\":1265:1543   */\n    tag_15:\n        /* \"#utility.yul\":1386:1390   */\n      0x00\n        /* \"#utility.yul\":1424:1426   */\n      0x20\n        /* \"#utility.yul\":1413:1422   */\n      dup3\n        /* \"#utility.yul\":1409:1427   */\n      add\n        /* \"#utility.yul\":1401:1427   */\n      swap1\n      pop\n        /* \"#utility.yul\":1437:1536   */\n      tag_102\n        /* \"#utility.yul\":1533:1534   */\n      0x00\n        /* \"#utility.yul\":1522:1531   */\n      dup4\n        /* \"#utility.yul\":1518:1535   */\n      add\n        /* \"#utility.yul\":1509:1515   */\n      dup5\n        /* \"#utility.yul\":1437:1536   */\n      tag_58\n      jump\t// in\n    tag_102:\n        /* \"#utility.yul\":1265:1543   */\n      swap3\n      swap2\n      pop\n      pop\n      jump\t// out\n        /* \"#utility.yul\":1549:1626   */\n    tag_59:\n        /* \"#utility.yul\":1586:1593   */\n      0x00\n        /* \"#utility.yul\":1615:1620   */\n      dup2\n        /* \"#utility.yul\":1604:1620   */\n      swap1\n      pop\n        /* \"#utility.yul\":1549:1626   */\n      swap2\n      swap1\n      pop\n      jump\t// out\n        /* \"#utility.yul\":1632:1750   */\n    tag_60:\n        /* \"#utility.yul\":1719:1743   */\n      tag_105\n        /* \"#utility.yul\":1737:1742   */\n      dup2\n        /* \"#utility.yul\":1719:1743   */\n      tag_59\n      jump\t// in\n    tag_105:\n        /* \"#utility.yul\":1714:1717   */\n      dup3\n        /* \"#utility.yul\":1707:1744   */\n      mstore\n        /* \"#utility.yul\":1632:1750   */\n      pop\n      pop\n      jump\t// out\n        /* \"#utility.yul\":1756:1978   */\n    tag_22:\n        /* \"#utility.yul\":1849:1853   */\n      0x00\n        /* \"#utility.yul\":1887:1889   */\n      0x20\n        /* \"#utility.yul\":1876:1885   */\n      dup3\n        /* \"#utility.yul\":1872:1890   */\n      add\n        /* \"#utility.yul\":1864:1890   */\n      swap1\n      pop\n        /* \"#utility.yul\":1900:1971   */\n      tag_107\n        /* \"#utility.yul\":1968:1969   */\n      0x00\n        /* \"#utility.yul\":1957:1966   */\n      dup4\n        /* \"#utility.yul\":1953:1970   */\n      add\n        /* \"#utility.yul\":1944:1950   */\n      dup5\n        /* \"#utility.yul\":1900:1971   */\n      tag_60\n      jump\t// in\n    tag_107:\n        /* \"#utility.yul\":1756:1978   */\n      swap3\n      swap2\n      pop\n      pop\n      jump\t// out\n        /* \"#utility.yul\":1984:2070   */\n    tag_61:\n        /* \"#utility.yul\":2019:2026   */\n      0x00\n        /* \"#utility.yul\":2059:2063   */\n      0xff\n        /* \"#utility.yul\":2052:2057   */\n      dup3\n        /* \"#utility.yul\":2048:2064   */\n      and\n        /* \"#utility.yul\":2037:2064   */\n      swap1\n      pop\n        /* \"#utility.yul\":1984:2070   */\n      swap2\n      swap1\n      pop\n      jump\t// out\n        /* \"#utility.yul\":2076:2188   */\n    tag_62:\n        /* \"#utility.yul\":2159:2181   */\n      tag_110\n        /* \"#utility.yul\":2175:2180   */\n      dup2\n        /* \"#utility.yul\":2159:2181   */\n      tag_61\n      jump\t// in\n    tag_110:\n        /* \"#utility.yul\":2154:2157   */\n      dup3\n        /* \"#utility.yul\":2147:2182   */\n      mstore\n        /* \"#utility.yul\":2076:2188   */\n      pop\n      pop\n      jump\t// out\n        /* \"#utility.yul\":2194:2408   */\n    tag_26:\n        /* \"#utility.yul\":2283:2287   */\n      0x00\n        /* \"#utility.yul\":2321:2323   */\n      0x20\n        /* \"#utility.yul\":2310:2319   */\n      dup3\n        /* \"#utility.yul\":2306:2324   */\n      add\n        /* \"#utility.yul\":2298:2324   */\n      swap1\n      pop\n        /* \"#utility.yul\":2334:2401   */\n      tag_112\n        /* \"#utility.yul\":2398:2399   */\n      0x00\n        /* \"#utility.yul\":2387:2396   */\n      dup4\n        /* \"#utility.yul\":2383:2400   */\n      add\n        /* \"#utility.yul\":2374:2380   */\n      dup5\n        /* \"#utility.yul\":2334:2401   */\n      tag_62\n      jump\t// in\n    tag_112:\n        /* \"#utility.yul\":2194:2408   */\n      swap3\n      swap2\n      pop\n      pop\n      jump\t// out\n        /* \"#utility.yul\":2414:2594   */\n    tag_63:\n        /* \"#utility.yul\":2462:2539   */\n      0x4e487b7100000000000000000000000000000000000000000000000000000000\n        /* \"#utility.yul\":2459:2460   */\n      0x00\n        /* \"#utility.yul\":2452:2540   */\n      mstore\n        /* \"#utility.yul\":2559:2563   */\n      0x11\n        /* \"#utility.yul\":2556:2557   */\n      0x04\n        /* \"#utility.yul\":2549:2564   */\n      mstore\n        /* \"#utility.yul\":2583:2587   */\n      0x24\n        /* \"#utility.yul\":2580:2581   */\n      0x00\n        /* \"#utility.yul\":2573:2588   */\n      revert\n        /* \"#utility.yul\":2600:2702   */\n    tag_64:\n        /* \"#utility.yul\":2642:2650   */\n      0x00\n        /* \"#utility.yul\":2689:2694   */\n      dup2\n        /* \"#utility.yul\":2686:2687   */\n      0x01\n        /* \"#utility.yul\":2682:2695   */\n      shr\n        /* \"#utility.yul\":2661:2695   */\n      swap1\n      pop\n        /* \"#utility.yul\":2600:2702   */\n      swap2\n      swap1\n      pop\n      jump\t// out\n        /* \"#utility.yul\":2708:3556   */\n    tag_65:\n        /* \"#utility.yul\":2769:2774   */\n      0x00\n        /* \"#utility.yul\":2776:2780   */\n      0x00\n        /* \"#utility.yul\":2800:2806   */\n      dup3\n        /* \"#utility.yul\":2791:2806   */\n      swap2\n      pop\n        /* \"#utility.yul\":2824:2829   */\n      dup4\n        /* \"#utility.yul\":2815:2829   */\n      swap1\n      pop\n        /* \"#utility.yul\":2838:3550   */\n    tag_116:\n        /* \"#utility.yul\":2859:2860   */\n      0x01\n        /* \"#utility.yul\":2849:2857   */\n      dup6\n        /* \"#utility.yul\":2846:2861   */\n      gt\n        /* \"#utility.yul\":2838:3550   */\n      iszero\n      tag_118\n      jumpi\n        /* \"#utility.yul\":2954:2958   */\n      dup1\n        /* \"#utility.yul\":2949:2952   */\n      dup7\n        /* \"#utility.yul\":2945:2959   */\n      div\n        /* \"#utility.yul\":2939:2943   */\n      dup2\n        /* \"#utility.yul\":2936:2960   */\n      gt\n        /* \"#utility.yul\":2933:2983   */\n      iszero\n      tag_119\n      jumpi\n        /* \"#utility.yul\":2963:2981   */\n      tag_120\n      tag_63\n      jump\t// in\n    tag_120:\n        /* \"#utility.yul\":2933:2983   */\n    tag_119:\n        /* \"#utility.yul\":3013:3014   */\n      0x01\n        /* \"#utility.yul\":3003:3011   */\n      dup6\n        /* \"#utility.yul\":2999:3015   */\n      and\n        /* \"#utility.yul\":2996:3447   */\n      iszero\n      tag_121\n      jumpi\n        /* \"#utility.yul\":3428:3432   */\n      dup1\n        /* \"#utility.yul\":3421:3426   */\n      dup3\n        /* \"#utility.yul\":3417:3433   */\n      mul\n        /* \"#utility.yul\":3408:3433   */\n      swap2\n      pop\n        /* \"#utility.yul\":2996:3447   */\n    tag_121:\n        /* \"#utility.yul\":3478:3482   */\n      dup1\n        /* \"#utility.yul\":3472:3476   */\n      dup2\n        /* \"#utility.yul\":3468:3483   */\n      mul\n        /* \"#utility.yul\":3460:3483   */\n      swap1\n      pop\n        /* \"#utility.yul\":3508:3540   */\n      tag_122\n        /* \"#utility.yul\":3531:3539   */\n      dup6\n        /* \"#utility.yul\":3508:3540   */\n      tag_64\n      jump\t// in\n    tag_122:\n        /* \"#utility.yul\":3496:3540   */\n      swap5\n      pop\n        /* \"#utility.yul\":2838:3550   */\n      jump(tag_116)\n    tag_118:\n        /* \"#utility.yul\":2708:3556   */\n      swap5\n      pop\n      swap5\n      swap3\n      pop\n      pop\n      pop\n      jump\t// out\n        /* \"#utility.yul\":3562:4635   */\n    tag_66:\n        /* \"#utility.yul\":3616:3621   */\n      0x00\n        /* \"#utility.yul\":3807:3815   */\n      dup3\n        /* \"#utility.yul\":3797:3837   */\n      tag_124\n      jumpi\n        /* \"#utility.yul\":3828:3829   */\n      0x01\n        /* \"#utility.yul\":3819:3829   */\n      swap1\n      pop\n        /* \"#utility.yul\":3830:3835   */\n      jump(tag_123)\n        /* \"#utility.yul\":3797:3837   */\n    tag_124:\n        /* \"#utility.yul\":3856:3860   */\n      dup2\n        /* \"#utility.yul\":3846:3882   */\n      tag_125\n      jumpi\n        /* \"#utility.yul\":3873:3874   */\n      0x00\n        /* \"#utility.yul\":3864:3874   */\n      swap1\n      pop\n        /* \"#utility.yul\":3875:3880   */\n      jump(tag_123)\n        /* \"#utility.yul\":3846:3882   */\n    tag_125:\n        /* \"#utility.yul\":3942:3946   */\n      dup2\n        /* \"#utility.yul\":3990:3991   */\n      0x01\n        /* \"#utility.yul\":3985:4012   */\n      dup2\n      eq\n      tag_127\n      jumpi\n        /* \"#utility.yul\":4026:4027   */\n      0x02\n        /* \"#utility.yul\":4021:4212   */\n      dup2\n      eq\n      tag_128\n      jumpi\n        /* \"#utility.yul\":3935:4212   */\n      jump(tag_126)\n        /* \"#utility.yul\":3985:4012   */\n    tag_127:\n        /* \"#utility.yul\":4003:4004   */\n      0x01\n        /* \"#utility.yul\":3994:4004   */\n      swap2\n      pop\n        /* \"#utility.yul\":4005:4010   */\n      pop\n      jump(tag_123)\n        /* \"#utility.yul\":4021:4212   */\n    tag_128:\n        /* \"#utility.yul\":4066:4069   */\n      0xff\n        /* \"#utility.yul\":4056:4064   */\n      dup5\n        /* \"#utility.yul\":4053:4070   */\n      gt\n        /* \"#utility.yul\":4050:4093   */\n      iszero\n      tag_129\n      jumpi\n        /* \"#utility.yul\":4073:4091   */\n      tag_130\n      tag_63\n      jump\t// in\n    tag_130:\n        /* \"#utility.yul\":4050:4093   */\n    tag_129:\n        /* \"#utility.yul\":4122:4130   */\n      dup4\n        /* \"#utility.yul\":4119:4120   */\n      0x02\n        /* \"#utility.yul\":4115:4131   */\n      exp\n        /* \"#utility.yul\":4106:4131   */\n      swap2\n      pop\n        /* \"#utility.yul\":4157:4160   */\n      dup5\n        /* \"#utility.yul\":4150:4155   */\n      dup3\n        /* \"#utility.yul\":4147:4161   */\n      gt\n        /* \"#utility.yul\":4144:4184   */\n      iszero\n      tag_131\n      jumpi\n        /* \"#utility.yul\":4164:4182   */\n      tag_132\n      tag_63\n      jump\t// in\n    tag_132:\n        /* \"#utility.yul\":4144:4184   */\n    tag_131:\n        /* \"#utility.yul\":4197:4202   */\n      pop\n      jump(tag_123)\n        /* \"#utility.yul\":3935:4212   */\n    tag_126:\n      pop\n        /* \"#utility.yul\":4321:4323   */\n      0x20\n        /* \"#utility.yul\":4311:4319   */\n      dup4\n        /* \"#utility.yul\":4308:4324   */\n      lt\n        /* \"#utility.yul\":4302:4305   */\n      0x0133\n        /* \"#utility.yul\":4296:4300   */\n      dup4\n        /* \"#utility.yul\":4293:4306   */\n      lt\n        /* \"#utility.yul\":4289:4325   */\n      and\n        /* \"#utility.yul\":4271:4273   */\n      0x4e\n        /* \"#utility.yul\":4261:4269   */\n      dup5\n        /* \"#utility.yul\":4258:4274   */\n      lt\n        /* \"#utility.yul\":4253:4255   */\n      0x0b\n        /* \"#utility.yul\":4247:4251   */\n      dup5\n        /* \"#utility.yul\":4244:4256   */\n      lt\n        /* \"#utility.yul\":4240:4275   */\n      and\n        /* \"#utility.yul\":4224:4335   */\n      or\n        /* \"#utility.yul\":4221:4467   */\n      iszero\n      tag_133\n      jumpi\n        /* \"#utility.yul\":4377:4385   */\n      dup3\n        /* \"#utility.yul\":4371:4375   */\n      dup3\n        /* \"#utility.yul\":4367:4386   */\n      exp\n        /* \"#utility.yul\":4358:4386   */\n      swap1\n      pop\n        /* \"#utility.yul\":4412:4415   */\n      dup4\n        /* \"#utility.yul\":4405:4410   */\n      dup2\n        /* \"#utility.yul\":4402:4416   */\n      gt\n        /* \"#utility.yul\":4399:4439   */\n      iszero\n      tag_134\n      jumpi\n        /* \"#utility.yul\":4419:4437   */\n      tag_135\n      tag_63\n      jump\t// in\n    tag_135:\n        /* \"#utility.yul\":4399:4439   */\n    tag_134:\n        /* \"#utility.yul\":4452:4457   */\n      jump(tag_123)\n        /* \"#utility.yul\":4221:4467   */\n    tag_133:\n        /* \"#utility.yul\":4492:4534   */\n      tag_136\n        /* \"#utility.yul\":4530:4533   */\n      dup5\n        /* \"#utility.yul\":4520:4528   */\n      dup5\n        /* \"#utility.yul\":4514:4518   */\n      dup5\n        /* \"#utility.yul\":4511:4512   */\n      0x01\n        /* \"#utility.yul\":4492:4534   */\n      tag_65\n      jump\t// in\n    tag_136:\n        /* \"#utility.yul\":4477:4534   */\n      swap3\n      pop\n      swap1\n      pop\n        /* \"#utility.yul\":4566:4570   */\n      dup2\n        /* \"#utility.yul\":4561:4564   */\n      dup5\n        /* \"#utility.yul\":4557:4571   */\n      div\n        /* \"#utility.yul\":4550:4555   */\n      dup2\n        /* \"#utility.yul\":4547:4572   */\n      gt\n        /* \"#utility.yul\":4544:4595   */\n      iszero\n      tag_137\n      jumpi\n        /* \"#utility.yul\":4575:4593   */\n      tag_138\n      tag_63\n      jump\t// in\n    tag_138:\n        /* \"#utility.yul\":4544:4595   */\n    tag_137:\n        /* \"#utility.yul\":4624:4628   */\n      dup2\n        /* \"#utility.yul\":4617:4622   */\n      dup2\n        /* \"#utility.yul\":4613:4629   */\n      mul\n        /* \"#utility.yul\":4604:4629   */\n      swap1\n      pop\n        /* \"#utility.yul\":3562:4635   */\n    tag_123:\n      swap4\n      swap3\n      pop\n      pop\n      pop\n      jump\t// out\n        /* \"#utility.yul\":4641:4922   */\n    tag_31:\n        /* \"#utility.yul\":4699:4704   */\n      0x00\n        /* \"#utility.yul\":4723:4746   */\n      tag_140\n        /* \"#utility.yul\":4741:4745   */\n      dup3\n        /* \"#utility.yul\":4723:4746   */\n      tag_59\n      jump\t// in\n    tag_140:\n        /* \"#utility.yul\":4715:4746   */\n      swap2\n      pop\n        /* \"#utility.yul\":4767:4792   */\n      tag_141\n        /* \"#utility.yul\":4783:4791   */\n      dup4\n        /* \"#utility.yul\":4767:4792   */\n      tag_61\n      jump\t// in\n    tag_141:\n        /* \"#utility.yul\":4755:4792   */\n      swap3\n      pop\n        /* \"#utility.yul\":4811:4915   */\n      tag_142\n        /* \"#utility.yul\":4848:4914   */\n      0xffffffffffffffffffffffffffffffffffffffffffffffffffffffffffffffff\n        /* \"#utility.yul\":4838:4846   */\n      dup5\n        /* \"#utility.yul\":4832:4836   */\n      dup5\n        /* \"#utility.yul\":4811:4915   */\n      tag_66\n      jump\t// in\n    tag_142:\n        /* \"#utility.yul\":4802:4915   */\n      swap1\n      pop\n        /* \"#utility.yul\":4641:4922   */\n      swap3\n      swap2\n      pop\n      pop\n      jump\t// out\n        /* \"#utility.yul\":4928:5108   */\n    tag_67:\n        /* \"#utility.yul\":4976:5053   */\n      0x4e487b7100000000000000000000000000000000000000000000000000000000\n        /* \"#utility.yul\":4973:4974   */\n      0x00\n        /* \"#utility.yul\":4966:5054   */\n      mstore\n        /* \"#utility.yul\":5073:5077   */\n      0x12\n        /* \"#utility.yul\":5070:5071   */\n      0x04\n        /* \"#utility.yul\":5063:5078   */\n      mstore\n        /* \"#utility.yul\":5097:5101   */\n      0x24\n        /* \"#utility.yul\":5094:5095   */\n      0x00\n        /* \"#utility.yul\":5087:5102   */\n      revert\n        /* \"#utility.yul\":5114:5499   */\n    tag_33:\n        /* \"#utility.yul\":5153:5154   */\n      0x00\n        /* \"#utility.yul\":5170:5189   */\n      tag_145\n        /* \"#utility.yul\":5187:5188   */\n      dup3\n        /* \"#utility.yul\":5170:5189   */\n      tag_51\n      jump\t// in\n    tag_145:\n        /* \"#utility.yul\":5165:5189   */\n      swap2\n      pop\n        /* \"#utility.yul\":5203:5222   */\n      tag_146\n        /* \"#utility.yul\":5220:5221   */\n      dup4\n        /* \"#utility.yul\":5203:5222   */\n      tag_51\n      jump\t// in\n    tag_146:\n        /* \"#utility.yul\":5198:5222   */\n      swap3\n      pop\n        /* \"#utility.yul\":5241:5242   */\n      dup3\n        /* \"#utility.yul\":5231:5266   */\n      tag_147\n      jumpi\n        /* \"#utility.yul\":5246:5264   */\n      tag_148\n      tag_67\n      jump\t// in\n    tag_148:\n        /* \"#utility.yul\":5231:5266   */\n    tag_147:\n        /* \"#utility.yul\":5432:5433   */\n      0x01\n        /* \"#utility.yul\":5429:5430   */\n      0x00\n        /* \"#utility.yul\":5425:5434   */\n      sub\n        /* \"#utility.yul\":5422:5423   */\n      dup4\n        /* \"#utility.yul\":5419:5435   */\n      eq\n        /* \"#utility.yul\":5338:5404   */\n      0x8000000000000000000000000000000000000000000000000000000000000000\n        /* \"#utility.yul\":5335:5336   */\n      dup4\n        /* \"#utility.yul\":5332:5405   */\n      eq\n        /* \"#utility.yul\":5315:5445   */\n      and\n        /* \"#utility.yul\":5312:5468   */\n      iszero\n      tag_149\n      jumpi\n        /* \"#utility.yul\":5448:5466   */\n      tag_150\n      tag_63\n      jump\t// in\n    tag_150:\n        /* \"#utility.yul\":5312:5468   */\n    tag_149:\n        /* \"#utility.yul\":5491:5492   */\n      dup3\n        /* \"#utility.yul\":5488:5489   */\n      dup3\n        /* \"#utility.yul\":5483:5493   */\n      sdiv\n        /* \"#utility.yul\":5478:5493   */\n      swap1\n      pop\n        /* \"#utility.yul\":5114:5499   */\n      swap3\n      swap2\n      pop\n      pop\n      jump\t// out\n        /* \"#utility.yul\":5586:5703   */\n    tag_69:\n        /* \"#utility.yul\":5695:5696   */\n      0x00\n        /* \"#utility.yul\":5692:5693   */\n      0x00\n        /* \"#utility.yul\":5685:5697   */\n      revert\n        /* \"#utility.yul\":5832:5937   */\n    tag_71:\n        /* \"#utility.yul\":5868:5875   */\n      0x00\n        /* \"#utility.yul\":5908:5930   */\n      0xffffffffffffffffffff\n        /* \"#utility.yul\":5901:5906   */\n      dup3\n        /* \"#utility.yul\":5897:5931   */\n      and\n        /* \"#utility.yul\":5886:5931   */\n      swap1\n      pop\n        /* \"#utility.yul\":5832:5937   */\n      swap2\n      swap1\n      pop\n      jump\t// out\n        /* \"#utility.yul\":5943:6063   */\n    tag_72:\n        /* \"#utility.yul\":6015:6038   */\n      tag_156\n        /* \"#utility.yul\":6032:6037   */\n      dup2\n        /* \"#utility.yul\":6015:6038   */\n      tag_71\n      jump\t// in\n    tag_156:\n        /* \"#utility.yul\":6008:6013   */\n      dup2\n        /* \"#utility.yul\":6005:6039   */\n      eq\n        /* \"#utility.yul\":5995:6057   */\n      tag_157\n      jumpi\n        /* \"#utility.yul\":6053:6054   */\n      0x00\n        /* \"#utility.yul\":6050:6051   */\n      0x00\n        /* \"#utility.yul\":6043:6055   */\n      revert\n        /* \"#utility.yul\":5995:6057   */\n    tag_157:\n        /* \"#utility.yul\":5943:6063   */\n      pop\n      jump\t// out\n        /* \"#utility.yul\":6069:6210   */\n    tag_73:\n        /* \"#utility.yul\":6125:6130   */\n      0x00\n        /* \"#utility.yul\":6156:6162   */\n      dup2\n        /* \"#utility.yul\":6150:6163   */\n      mload\n        /* \"#utility.yul\":6141:6163   */\n      swap1\n      pop\n        /* \"#utility.yul\":6172:6204   */\n      tag_159\n        /* \"#utility.yul\":6198:6203   */\n      dup2\n        /* \"#utility.yul\":6172:6204   */\n      tag_72\n      jump\t// in\n    tag_159:\n        /* \"#utility.yul\":6069:6210   */\n      swap3\n      swap2\n      pop\n      pop\n      jump\t// out\n        /* \"#utility.yul\":6216:6336   */\n    tag_74:\n        /* \"#utility.yul\":6288:6311   */\n      tag_161\n        /* \"#utility.yul\":6305:6310   */\n      dup2\n        /* \"#utility.yul\":6288:6311   */\n      tag_51\n      jump\t// in\n    tag_161:\n        /* \"#utility.yul\":6281:6286   */\n      dup2\n        /* \"#utility.yul\":6278:6312   */\n      eq\n        /* \"#utility.yul\":6268:6330   */\n      tag_162\n      jumpi\n        /* \"#utility.yul\":6326:6327   */\n      0x00\n        /* \"#utility.yul\":6323:6324   */\n      0x00\n        /* \"#utility.yul\":6316:6328   */\n      revert\n        /* \"#utility.yul\":6268:6330   */\n    tag_162:\n        /* \"#utility.yul\":6216:6336   */\n      pop\n      jump\t// out\n        /* \"#utility.yul\":6342:6483   */\n    tag_75:\n        /* \"#utility.yul\":6398:6403   */\n      0x00\n        /* \"#utility.yul\":6429:6435   */\n      dup2\n        /* \"#utility.yul\":6423:6436   */\n      mload\n        /* \"#utility.yul\":6414:6436   */\n      swap1\n      pop\n        /* \"#utility.yul\":6445:6477   */\n      tag_164\n        /* \"#utility.yul\":6471:6476   */\n      dup2\n        /* \"#utility.yul\":6445:6477   */\n      tag_74\n      jump\t// in\n    tag_164:\n        /* \"#utility.yul\":6342:6483   */\n      swap3\n      swap2\n      pop\n      pop\n      jump\t// out\n        /* \"#utility.yul\":6489:6611   */\n    tag_76:\n        /* \"#utility.yul\":6562:6586   */\n      tag_166\n        /* \"#utility.yul\":6580:6585   */\n      dup2\n        /* \"#utility.yul\":6562:6586   */\n      tag_59\n      jump\t// in\n    tag_166:\n        /* \"#utility.yul\":6555:6560   */\n      dup2\n        /* \"#utility.yul\":6552:6587   */\n      eq\n        /* \"#utility.yul\":6542:6605   */\n      tag_167\n      jumpi\n        /* \"#utility.yul\":6601:6602   */\n      0x00\n        /* \"#utility.yul\":6598:6599   */\n      0x00\n        /* \"#utility.yul\":6591:6603   */\n      revert\n        /* \"#utility.yul\":6542:6605   */\n    tag_167:\n        /* \"#utility.yul\":6489:6611   */\n      pop\n      jump\t// out\n        /* \"#utility.yul\":6617:6760   */\n    tag_77:\n        /* \"#utility.yul\":6674:6679   */\n      0x00\n        /* \"#utility.yul\":6705:6711   */\n      dup2\n        /* \"#utility.yul\":6699:6712   */\n      mload\n        /* \"#utility.yul\":6690:6712   */\n      swap1\n      pop\n        /* \"#utility.yul\":6721:6754   */\n      tag_169\n        /* \"#utility.yul\":6748:6753   */\n      dup2\n        /* \"#utility.yul\":6721:6754   */\n      tag_76\n      jump\t// in\n    tag_169:\n        /* \"#utility.yul\":6617:6760   */\n      swap3\n      swap2\n      pop\n      pop\n      jump\t// out\n        /* \"#utility.yul\":6766:7737   */\n    tag_38:\n        /* \"#utility.yul\":6869:6875   */\n      0x00\n        /* \"#utility.yul\":6877:6883   */\n      0x00\n        /* \"#utility.yul\":6885:6891   */\n      0x00\n        /* \"#utility.yul\":6893:6899   */\n      0x00\n        /* \"#utility.yul\":6901:6907   */\n      0x00\n        /* \"#utility.yul\":6950:6953   */\n      0xa0\n        /* \"#utility.yul\":6938:6947   */\n      dup7\n        /* \"#utility.yul\":6929:6936   */\n      dup9\n        /* \"#utility.yul\":6925:6948   */\n      sub\n        /* \"#utility.yul\":6921:6954   */\n      slt\n        /* \"#utility.yul\":6918:7038   */\n      iszero\n      tag_171\n      jumpi\n        /* \"#utility.yul\":6957:7036   */\n      tag_172\n      tag_69\n      jump\t// in\n    tag_172:\n        /* \"#utility.yul\":6918:7038   */\n    tag_171:\n        /* \"#utility.yul\":7077:7078   */\n      0x00\n        /* \"#utility.yul\":7102:7165   */\n      tag_173\n        /* \"#utility.yul\":7157:7164   */\n      dup9\n        /* \"#utility.yul\":7148:7154   */\n      dup3\n        /* \"#utility.yul\":7137:7146   */\n      dup10\n        /* \"#utility.yul\":7133:7155   */\n      add\n        /* \"#utility.yul\":7102:7165   */\n      tag_73\n      jump\t// in\n    tag_173:\n        /* \"#utility.yul\":7092:7165   */\n      swap6\n      pop\n        /* \"#utility.yul\":7048:7175   */\n      pop\n        /* \"#utility.yul\":7214:7216   */\n      0x20\n        /* \"#utility.yul\":7240:7303   */\n      tag_174\n        /* \"#utility.yul\":7295:7302   */\n      dup9\n        /* \"#utility.yul\":7286:7292   */\n      dup3\n        /* \"#utility.yul\":7275:7284   */\n      dup10\n        /* \"#utility.yul\":7271:7293   */\n      add\n        /* \"#utility.yul\":7240:7303   */\n      tag_75\n      jump\t// in\n    tag_174:\n        /* \"#utility.yul\":7230:7303   */\n      swap5\n      pop\n        /* \"#utility.yul\":7185:7313   */\n      pop\n        /* \"#utility.yul\":7352:7354   */\n      0x40\n        /* \"#utility.yul\":7378:7442   */\n      tag_175\n        /* \"#utility.yul\":7434:7441   */\n      dup9\n        /* \"#utility.yul\":7425:7431   */\n      dup3\n        /* \"#utility.yul\":7414:7423   */\n      dup10\n        /* \"#utility.yul\":7410:7432   */\n      add\n        /* \"#utility.yul\":7378:7442   */\n      tag_77\n      jump\t// in\n    tag_175:\n        /* \"#utility.yul\":7368:7442   */\n      swap4\n      pop\n        /* \"#utility.yul\":7323:7452   */\n      pop\n        /* \"#utility.yul\":7491:7493   */\n      0x60\n        /* \"#utility.yul\":7517:7581   */\n      tag_176\n        /* \"#utility.yul\":7573:7580   */\n      dup9\n        /* \"#utility.yul\":7564:7570   */\n      dup3\n        /* \"#utility.yul\":7553:7562   */\n      dup10\n        /* \"#utility.yul\":7549:7571   */\n      add\n        /* \"#utility.yul\":7517:7581   */\n      tag_77\n      jump\t// in\n    tag_176:\n        /* \"#utility.yul\":7507:7581   */\n      swap3\n      pop\n        /* \"#utility.yul\":7462:7591   */\n      pop\n        /* \"#utility.yul\":7630:7633   */\n      0x80\n        /* \"#utility.yul\":7657:7720   */\n      tag_177\n        /* \"#utility.yul\":7712:7719   */\n      dup9\n        /* \"#utility.yul\":7703:7709   */\n      dup3\n        /* \"#utility.yul\":7692:7701   */\n      dup10\n        /* \"#utility.yul\":7688:7710   */\n      add\n        /* \"#utility.yul\":7657:7720   */\n      tag_73\n      jump\t// in\n    tag_177:\n        /* \"#utility.yul\":7647:7720   */\n      swap2\n      pop\n        /* \"#utility.yul\":7601:7730   */\n      pop\n        /* \"#utility.yul\":6766:7737   */\n      swap3\n      swap6\n      pop\n      swap3\n      swap6\n      swap1\n      swap4\n      pop\n      jump\t// out\n        /* \"#utility.yul\":7743:7912   */\n    tag_78:\n        /* \"#utility.yul\":7827:7838   */\n      0x00\n        /* \"#utility.yul\":7861:7867   */\n      dup3\n        /* \"#utility.yul\":7856:7859   */\n      dup3\n        /* \"#utility.yul\":7849:7868   */\n      mstore\n        /* \"#utility.yul\":7901:7905   */\n      0x20\n        /* \"#utility.yul\":7896:7899   */\n      dup3\n        /* \"#utility.yul\":7892:7906   */\n      add\n        /* \"#utility.yul\":7877:7906   */\n      swap1\n      pop\n        /* \"#utility.yul\":7743:7912   */\n      swap3\n      swap2\n      pop\n      pop\n      jump\t// out\n        /* \"#utility.yul\":7918:8086   */\n    tag_79:\n        /* \"#utility.yul\":8058:8078   */\n      0x496e76616c696420707269636520646174610000000000000000000000000000\n        /* \"#utility.yul\":8054:8055   */\n      0x00\n        /* \"#utility.yul\":8046:8052   */\n      dup3\n        /* \"#utility.yul\":8042:8056   */\n      add\n        /* \"#utility.yul\":8035:8079   */\n      mstore\n        /* \"#utility.yul\":7918:8086   */\n      pop\n      jump\t// out\n        /* \"#utility.yul\":8092:8458   */\n    tag_80:\n        /* \"#utility.yul\":8234:8237   */\n      0x00\n        /* \"#utility.yul\":8255:8322   */\n      tag_181\n        /* \"#utility.yul\":8319:8321   */\n      0x12\n        /* \"#utility.yul\":8314:8317   */\n      dup4\n        /* \"#utility.yul\":8255:8322   */\n      tag_78\n      jump\t// in\n    tag_181:\n        /* \"#utility.yul\":8248:8322   */\n      swap2\n      pop\n        /* \"#utility.yul\":8331:8424   */\n      tag_182\n        /* \"#utility.yul\":8420:8423   */\n      dup3\n        /* \"#utility.yul\":8331:8424   */\n      tag_79\n      jump\t// in\n    tag_182:\n        /* \"#utility.yul\":8449:8451   */\n      0x20\n        /* \"#utility.yul\":8444:8447   */\n      dup3\n        /* \"#utility.yul\":8440:8452   */\n      add\n        /* \"#utility.yul\":8433:8452   */\n      swap1\n      pop\n        /* \"#utility.yul\":8092:8458   */\n      swap2\n      swap1\n      pop\n      jump\t// out\n        /* \"#utility.yul\":8464:8883   */\n    tag_41:\n        /* \"#utility.yul\":8630:8634   */\n      0x00\n        /* \"#utility.yul\":8668:8670   */\n      0x20\n        /* \"#utility.yul\":8657:8666   */\n      dup3\n        /* \"#utility.yul\":8653:8671   */\n      add\n        /* \"#utility.yul\":8645:8671   */\n      swap1\n      pop\n        /* \"#utility.yul\":8717:8726   */\n      dup2\n        /* \"#utility.yul\":8711:8715   */\n      dup2\n        /* \"#utility.yul\":8707:8727   */\n      sub\n        /* \"#utility.yul\":8703:8704   */\n      0x00\n        /* \"#utility.yul\":8692:8701   */\n      dup4\n        /* \"#utility.yul\":8688:8705   */\n      add\n        /* \"#utility.yul\":8681:8728   */\n      mstore\n        /* \"#utility.yul\":8745:8876   */\n      tag_184\n        /* \"#utility.yul\":8871:8875   */\n      dup2\n        /* \"#utility.yul\":8745:8876   */\n      tag_80\n      jump\t// in\n    tag_184:\n        /* \"#utility.yul\":8737:8876   */\n      swap1\n      pop\n        /* \"#utility.yul\":8464:8883   */\n      swap2\n      swap1\n      pop\n      jump\t// out\n        /* \"#utility.yul\":8889:9007   */\n    tag_81:\n        /* \"#utility.yul\":8960:8982   */\n      tag_186\n        /* \"#utility.yul\":8976:8981   */\n      dup2\n        /* \"#utility.yul\":8960:8982   */\n      tag_61\n      jump\t// in\n    tag_186:\n        /* \"#utility.yul\":8953:8958   */\n      dup2\n        /* \"#utility.yul\":8950:8983   */\n      eq\n        /* \"#utility.yul\":8940:9001   */\n      tag_187\n      jumpi\n        /* \"#utility.yul\":8997:8998   */\n      0x00\n        /* \"#utility.yul\":8994:8995   */\n      0x00\n        /* \"#utility.yul\":8987:8999   */\n      revert\n        /* \"#utility.yul\":8940:9001   */\n    tag_187:\n        /* \"#utility.yul\":8889:9007   */\n      pop\n      jump\t// out\n        /* \"#utility.yul\":9013:9152   */\n    tag_82:\n        /* \"#utility.yul\":9068:9073   */\n      0x00\n        /* \"#utility.yul\":9099:9105   */\n      dup2\n        /* \"#utility.yul\":9093:9106   */\n      mload\n        /* \"#utility.yul\":9084:9106   */\n      swap1\n      pop\n        /* \"#utility.yul\":9115:9146   */\n      tag_189\n        /* \"#utility.yul\":9140:9145   */\n      dup2\n        /* \"#utility.yul\":9115:9146   */\n      tag_81\n      jump\t// in\n    tag_189:\n        /* \"#utility.yul\":9013:9152   */\n      swap3\n      swap2\n      pop\n      pop\n      jump\t// out\n        /* \"#utility.yul\":9158:9505   */\n    tag_50:\n        /* \"#utility.yul\":9226:9232   */\n      0x00\n        /* \"#utility.yul\":9275:9277   */\n      0x20\n        /* \"#utility.yul\":9263:9272   */\n      dup3\n        /* \"#utility.yul\":9254:9261   */\n      dup5\n        /* \"#utility.yul\":9250:9273   */\n      sub\n        /* \"#utility.yul\":9246:9278   */\n      slt\n        /* \"#utility.yul\":9243:9362   */\n      iszero\n      tag_191\n      jumpi\n        /* \"#utility.yul\":9281:9360   */\n      tag_192\n      tag_69\n      jump\t// in\n    tag_192:\n        /* \"#utility.yul\":9243:9362   */\n    tag_191:\n        /* \"#utility.yul\":9401:9402   */\n      0x00\n        /* \"#utility.yul\":9426:9488   */\n      tag_193\n        /* \"#utility.yul\":9480:9487   */\n      dup5\n        /* \"#utility.yul\":9471:9477   */\n      dup3\n        /* \"#utility.yul\":9460:9469   */\n      dup6\n        /* \"#utility.yul\":9456:9478   */\n      add\n        /* \"#utility.yul\":9426:9488   */\n      tag_82\n      jump\t// in\n    tag_193:\n        /* \"#utility.yul\":9416:9488   */\n      swap2\n      pop\n        /* \"#utility.yul\":9372:9498   */\n      pop\n        /* \"#utility.yul\":9158:9505   */\n      swap3\n      swap2\n      pop\n      pop\n      jump\t// out\n\n    auxdata: 0xa2646970667358221220db2c3ef0946ae628b22b2b7e5e874fe8cb7885f67491ccce5501f3847af404af64736f6c634300081e0033\n}\n",
				"bytecode": {
					"linkReferences": {},
					"object": "608060405234801561000f575f5ffd5b506040516109da3803806109da833981810160405281019061003191906100d4565b805f5f6101000a81548173ffffffffffffffffffffffffffffffffffffffff021916908373ffffffffffffffffffffffffffffffffffffffff160217905550506100ff565b5f5ffd5b5f73ffffffffffffffffffffffffffffffffffffffff82169050919050565b5f6100a38261007a565b9050919050565b6100b381610099565b81146100bd575f5ffd5b50565b5f815190506100ce816100aa565b92915050565b5f602082840312156100e9576100e8610076565b5b5f6100f6848285016100c0565b91505092915050565b6108ce8061010c5f395ff3fe608060405234801561000f575f5ffd5b5060043610610055575f3560e01c806313d77aba14610059578063741bef1a146100775780638e15f47314610095578063b4b970f8146100b3578063f0141d84146100d1575b5f5ffd5b6100616100ef565b60405161006e9190610371565b60405180910390f35b61007f610125565b60405161008c9190610404565b60405180910390f35b61009d610149565b6040516100aa9190610371565b60405180910390f35b6100bb61022a565b6040516100c89190610435565b60405180910390f35b6100d96102c6565b6040516100e69190610469565b60405180910390f35b5f5f6100f9610149565b90505f6101046102c6565b905080600a61011391906105de565b8261011e9190610655565b9250505090565b5f5f9054906101000a900473ffffffffffffffffffffffffffffffffffffffff1681565b5f5f5f5f5f9054906101000a900473ffffffffffffffffffffffffffffffffffffffff1673ffffffffffffffffffffffffffffffffffffffff1663feaf968c6040518163ffffffff1660e01b815260040160a060405180830381865afa1580156101b5573d5f5f3e3d5ffd5b505050506040513d601f19601f820116820180604052508101906101d99190610754565b509350509250505f8111610222576040517f08c379a000000000000000000000000000000000000000000000000000000000815260040161021990610825565b60405180910390fd5b819250505090565b5f5f5f5f9054906101000a900473ffffffffffffffffffffffffffffffffffffffff1673ffffffffffffffffffffffffffffffffffffffff1663feaf968c6040518163ffffffff1660e01b815260040160a060405180830381865afa158015610295573d5f5f3e3d5ffd5b505050506040513d601f19601f820116820180604052508101906102b99190610754565b5093505050508091505090565b5f5f5f9054906101000a900473ffffffffffffffffffffffffffffffffffffffff1673ffffffffffffffffffffffffffffffffffffffff1663313ce5676040518163ffffffff1660e01b8152600401602060405180830381865afa158015610330573d5f5f3e3d5ffd5b505050506040513d601f19601f82011682018060405250810190610354919061086d565b905090565b5f819050919050565b61036b81610359565b82525050565b5f6020820190506103845f830184610362565b92915050565b5f73ffffffffffffffffffffffffffffffffffffffff82169050919050565b5f819050919050565b5f6103cc6103c76103c28461038a565b6103a9565b61038a565b9050919050565b5f6103dd826103b2565b9050919050565b5f6103ee826103d3565b9050919050565b6103fe816103e4565b82525050565b5f6020820190506104175f8301846103f5565b92915050565b5f819050919050565b61042f8161041d565b82525050565b5f6020820190506104485f830184610426565b92915050565b5f60ff82169050919050565b6104638161044e565b82525050565b5f60208201905061047c5f83018461045a565b92915050565b7f4e487b71000000000000000000000000000000000000000000000000000000005f52601160045260245ffd5b5f8160011c9050919050565b5f5f8291508390505b6001851115610504578086048111156104e0576104df610482565b5b60018516156104ef5780820291505b80810290506104fd856104af565b94506104c4565b94509492505050565b5f8261051c57600190506105d7565b81610529575f90506105d7565b816001811461053f576002811461054957610578565b60019150506105d7565b60ff84111561055b5761055a610482565b5b8360020a91508482111561057257610571610482565b5b506105d7565b5060208310610133831016604e8410600b84101617156105ad5782820a9050838111156105a8576105a7610482565b5b6105d7565b6105ba84848460016104bb565b925090508184048111156105d1576105d0610482565b5b81810290505b9392505050565b5f6105e88261041d565b91506105f38361044e565b92506106207fffffffffffffffffffffffffffffffffffffffffffffffffffffffffffffffff848461050d565b905092915050565b7f4e487b71000000000000000000000000000000000000000000000000000000005f52601260045260245ffd5b5f61065f82610359565b915061066a83610359565b92508261067a57610679610628565b5b60015f0383147f8000000000000000000000000000000000000000000000000000000000000000831416156106b2576106b1610482565b5b828205905092915050565b5f5ffd5b5f69ffffffffffffffffffff82169050919050565b6106df816106c1565b81146106e9575f5ffd5b50565b5f815190506106fa816106d6565b92915050565b61070981610359565b8114610713575f5ffd5b50565b5f8151905061072481610700565b92915050565b6107338161041d565b811461073d575f5ffd5b50565b5f8151905061074e8161072a565b92915050565b5f5f5f5f5f60a0868803121561076d5761076c6106bd565b5b5f61077a888289016106ec565b955050602061078b88828901610716565b945050604061079c88828901610740565b93505060606107ad88828901610740565b92505060806107be888289016106ec565b9150509295509295909350565b5f82825260208201905092915050565b7f496e76616c6964207072696365206461746100000000000000000000000000005f82015250565b5f61080f6012836107cb565b915061081a826107db565b602082019050919050565b5f6020820190508181035f83015261083c81610803565b9050919050565b61084c8161044e565b8114610856575f5ffd5b50565b5f8151905061086781610843565b92915050565b5f60208284031215610882576108816106bd565b5b5f61088f84828501610859565b9150509291505056fea2646970667358221220db2c3ef0946ae628b22b2b7e5e874fe8cb7885f67491ccce5501f3847af404af64736f6c634300081e0033",
					"opcodes": "PUSH1 0x80 PUSH1 0x40 MSTORE CALLVALUE DUP1 ISZERO PUSH2 0xF JUMPI PUSH0 PUSH0 REVERT JUMPDEST POP PUSH1 0x40 MLOAD PUSH2 0x9DA CODESIZE SUB DUP1 PUSH2 0x9DA DUP4 CODECOPY DUP2 DUP2 ADD PUSH1 0x40 MSTORE DUP2 ADD SWAP1 PUSH2 0x31 SWAP2 SWAP1 PUSH2 0xD4 JUMP JUMPDEST DUP1 PUSH0 PUSH0 PUSH2 0x100 EXP DUP2 SLOAD DUP2 PUSH20 0xFFFFFFFFFFFFFFFFFFFFFFFFFFFFFFFFFFFFFFFF MUL NOT AND SWAP1 DUP4 PUSH20 0xFFFFFFFFFFFFFFFFFFFFFFFFFFFFFFFFFFFFFFFF AND MUL OR SWAP1 SSTORE POP POP PUSH2 0xFF JUMP JUMPDEST PUSH0 PUSH0 REVERT JUMPDEST PUSH0 PUSH20 0xFFFFFFFFFFFFFFFFFFFFFFFFFFFFFFFFFFFFFFFF DUP3 AND SWAP1 POP SWAP2 SWAP1 POP JUMP JUMPDEST PUSH0 PUSH2 0xA3 DUP3 PUSH2 0x7A JUMP JUMPDEST SWAP1 POP SWAP2 SWAP1 POP JUMP JUMPDEST PUSH2 0xB3 DUP2 PUSH2 0x99 JUMP JUMPDEST DUP2 EQ PUSH2 0xBD JUMPI PUSH0 PUSH0 REVERT JUMPDEST POP JUMP JUMPDEST PUSH0 DUP2 MLOAD SWAP1 POP PUSH2 0xCE DUP2 PUSH2 0xAA JUMP JUMPDEST SWAP3 SWAP2 POP POP JUMP JUMPDEST PUSH0 PUSH1 0x20 DUP3 DUP5 SUB SLT ISZERO PUSH2 0xE9 JUMPI PUSH2 0xE8 PUSH2 0x76 JUMP JUMPDEST JUMPDEST PUSH0 PUSH2 0xF6 DUP5 DUP3 DUP6 ADD PUSH2 0xC0 JUMP JUMPDEST SWAP2 POP POP SWAP3 SWAP2 POP POP JUMP JUMPDEST PUSH2 0x8CE DUP1 PUSH2 0x10C PUSH0 CODECOPY PUSH0 RETURN INVALID PUSH1 0x80 PUSH1 0x40 MSTORE CALLVALUE DUP1 ISZERO PUSH2 0xF JUMPI PUSH0 PUSH0 REVERT JUMPDEST POP PUSH1 0x4 CALLDATASIZE LT PUSH2 0x55 JUMPI PUSH0 CALLDATALOAD PUSH1 0xE0 SHR DUP1 PUSH4 0x13D77ABA EQ PUSH2 0x59 JUMPI DUP1 PUSH4 0x741BEF1A EQ PUSH2 0x77 JUMPI DUP1 PUSH4 0x8E15F473 EQ PUSH2 0x95 JUMPI DUP1 PUSH4 0xB4B970F8 EQ PUSH2 0xB3 JUMPI DUP1 PUSH4 0xF0141D84 EQ PUSH2 0xD1 JUMPI JUMPDEST PUSH0 PUSH0 REVERT JUMPDEST PUSH2 0x61 PUSH2 0xEF JUMP JUMPDEST PUSH1 0x40 MLOAD PUSH2 0x6E SWAP2 SWAP1 PUSH2 0x371 JUMP JUMPDEST PUSH1 0x40 MLOAD DUP1 SWAP2 SUB SWAP1 RETURN JUMPDEST PUSH2 0x7F PUSH2 0x125 JUMP JUMPDEST PUSH1 0x40 MLOAD PUSH2 0x8C SWAP2 SWAP1 PUSH2 0x404 JUMP JUMPDEST PUSH1 0x40 MLOAD DUP1 SWAP2 SUB SWAP1 RETURN JUMPDEST PUSH2 0x9D PUSH2 0x149 JUMP JUMPDEST PUSH1 0x40 MLOAD PUSH2 0xAA SWAP2 SWAP1 PUSH2 0x371 JUMP JUMPDEST PUSH1 0x40 MLOAD DUP1 SWAP2 SUB SWAP1 RETURN JUMPDEST PUSH2 0xBB PUSH2 0x22A JUMP JUMPDEST PUSH1 0x40 MLOAD PUSH2 0xC8 SWAP2 SWAP1 PUSH2 0x435 JUMP JUMPDEST PUSH1 0x40 MLOAD DUP1 SWAP2 SUB SWAP1 RETURN JUMPDEST PUSH2 0xD9 PUSH2 0x2C6 JUMP JUMPDEST PUSH1 0x40 MLOAD PUSH2 0xE6 SWAP2 SWAP1 PUSH2 0x469 JUMP JUMPDEST PUSH1 0x40 MLOAD DUP1 SWAP2 SUB SWAP1 RETURN JUMPDEST PUSH0 PUSH0 PUSH2 0xF9 PUSH2 0x149 JUMP JUMPDEST SWAP1 POP PUSH0 PUSH2 0x104 PUSH2 0x2C6 JUMP JUMPDEST SWAP1 POP DUP1 PUSH1 0xA PUSH2 0x113 SWAP2 SWAP1 PUSH2 0x5DE JUMP JUMPDEST DUP3 PUSH2 0x11E SWAP2 SWAP1 PUSH2 0x655 JUMP JUMPDEST SWAP3 POP POP POP SWAP1 JUMP JUMPDEST PUSH0 PUSH0 SWAP1 SLOAD SWAP1 PUSH2 0x100 EXP SWAP1 DIV PUSH20 0xFFFFFFFFFFFFFFFFFFFFFFFFFFFFFFFFFFFFFFFF AND DUP2 JUMP JUMPDEST PUSH0 PUSH0 PUSH0 PUSH0 PUSH0 SWAP1 SLOAD SWAP1 PUSH2 0x100 EXP SWAP1 DIV PUSH20 0xFFFFFFFFFFFFFFFFFFFFFFFFFFFFFFFFFFFFFFFF AND PUSH20 0xFFFFFFFFFFFFFFFFFFFFFFFFFFFFFFFFFFFFFFFF AND PUSH4 0xFEAF968C PUSH1 0x40 MLOAD DUP2 PUSH4 0xFFFFFFFF AND PUSH1 0xE0 SHL DUP2 MSTORE PUSH1 0x4 ADD PUSH1 0xA0 PUSH1 0x40 MLOAD DUP1 DUP4 SUB DUP2 DUP7 GAS STATICCALL ISZERO DUP1 ISZERO PUSH2 0x1B5 JUMPI RETURNDATASIZE PUSH0 PUSH0 RETURNDATACOPY RETURNDATASIZE PUSH0 REVERT JUMPDEST POP POP POP POP PUSH1 0x40 MLOAD RETURNDATASIZE PUSH1 0x1F NOT PUSH1 0x1F DUP3 ADD AND DUP3 ADD DUP1 PUSH1 0x40 MSTORE POP DUP2 ADD SWAP1 PUSH2 0x1D9 SWAP2 SWAP1 PUSH2 0x754 JUMP JUMPDEST POP SWAP4 POP POP SWAP3 POP POP PUSH0 DUP2 GT PUSH2 0x222 JUMPI PUSH1 0x40 MLOAD PUSH32 0x8C379A000000000000000000000000000000000000000000000000000000000 DUP2 MSTORE PUSH1 0x4 ADD PUSH2 0x219 SWAP1 PUSH2 0x825 JUMP JUMPDEST PUSH1 0x40 MLOAD DUP1 SWAP2 SUB SWAP1 REVERT JUMPDEST DUP2 SWAP3 POP POP POP SWAP1 JUMP JUMPDEST PUSH0 PUSH0 PUSH0 PUSH0 SWAP1 SLOAD SWAP1 PUSH2 0x100 EXP SWAP1 DIV PUSH20 0xFFFFFFFFFFFFFFFFFFFFFFFFFFFFFFFFFFFFFFFF AND PUSH20 0xFFFFFFFFFFFFFFFFFFFFFFFFFFFFFFFFFFFFFFFF AND PUSH4 0xFEAF968C PUSH1 0x40 MLOAD DUP2 PUSH4 0xFFFFFFFF AND PUSH1 0xE0 SHL DUP2 MSTORE PUSH1 0x4 ADD PUSH1 0xA0 PUSH1 0x40 MLOAD DUP1 DUP4 SUB DUP2 DUP7 GAS STATICCALL ISZERO DUP1 ISZERO PUSH2 0x295 JUMPI RETURNDATASIZE PUSH0 PUSH0 RETURNDATACOPY RETURNDATASIZE PUSH0 REVERT JUMPDEST POP POP POP POP PUSH1 0x40 MLOAD RETURNDATASIZE PUSH1 0x1F NOT PUSH1 0x1F DUP3 ADD AND DUP3 ADD DUP1 PUSH1 0x40 MSTORE POP DUP2 ADD SWAP1 PUSH2 0x2B9 SWAP2 SWAP1 PUSH2 0x754 JUMP JUMPDEST POP SWAP4 POP POP POP POP DUP1 SWAP2 POP POP SWAP1 JUMP JUMPDEST PUSH0 PUSH0 PUSH0 SWAP1 SLOAD SWAP1 PUSH2 0x100 EXP SWAP1 DIV PUSH20 0xFFFFFFFFFFFFFFFFFFFFFFFFFFFFFFFFFFFFFFFF AND PUSH20 0xFFFFFFFFFFFFFFFFFFFFFFFFFFFFFFFFFFFFFFFF AND PUSH4 0x313CE567 PUSH1 0x40 MLOAD DUP2 PUSH4 0xFFFFFFFF AND PUSH1 0xE0 SHL DUP2 MSTORE PUSH1 0x4 ADD PUSH1 0x20 PUSH1 0x40 MLOAD DUP1 DUP4 SUB DUP2 DUP7 GAS STATICCALL ISZERO DUP1 ISZERO PUSH2 0x330 JUMPI RETURNDATASIZE PUSH0 PUSH0 RETURNDATACOPY RETURNDATASIZE PUSH0 REVERT JUMPDEST POP POP POP POP PUSH1 0x40 MLOAD RETURNDATASIZE PUSH1 0x1F NOT PUSH1 0x1F DUP3 ADD AND DUP3 ADD DUP1 PUSH1 0x40 MSTORE POP DUP2 ADD SWAP1 PUSH2 0x354 SWAP2 SWAP1 PUSH2 0x86D JUMP JUMPDEST SWAP1 POP SWAP1 JUMP JUMPDEST PUSH0 DUP2 SWAP1 POP SWAP2 SWAP1 POP JUMP JUMPDEST PUSH2 0x36B DUP2 PUSH2 0x359 JUMP JUMPDEST DUP3 MSTORE POP POP JUMP JUMPDEST PUSH0 PUSH1 0x20 DUP3 ADD SWAP1 POP PUSH2 0x384 PUSH0 DUP4 ADD DUP5 PUSH2 0x362 JUMP JUMPDEST SWAP3 SWAP2 POP POP JUMP JUMPDEST PUSH0 PUSH20 0xFFFFFFFFFFFFFFFFFFFFFFFFFFFFFFFFFFFFFFFF DUP3 AND SWAP1 POP SWAP2 SWAP1 POP JUMP JUMPDEST PUSH0 DUP2 SWAP1 POP SWAP2 SWAP1 POP JUMP JUMPDEST PUSH0 PUSH2 0x3CC PUSH2 0x3C7 PUSH2 0x3C2 DUP5 PUSH2 0x38A JUMP JUMPDEST PUSH2 0x3A9 JUMP JUMPDEST PUSH2 0x38A JUMP JUMPDEST SWAP1 POP SWAP2 SWAP1 POP JUMP JUMPDEST PUSH0 PUSH2 0x3DD DUP3 PUSH2 0x3B2 JUMP JUMPDEST SWAP1 POP SWAP2 SWAP1 POP JUMP JUMPDEST PUSH0 PUSH2 0x3EE DUP3 PUSH2 0x3D3 JUMP JUMPDEST SWAP1 POP SWAP2 SWAP1 POP JUMP JUMPDEST PUSH2 0x3FE DUP2 PUSH2 0x3E4 JUMP JUMPDEST DUP3 MSTORE POP POP JUMP JUMPDEST PUSH0 PUSH1 0x20 DUP3 ADD SWAP1 POP PUSH2 0x417 PUSH0 DUP4 ADD DUP5 PUSH2 0x3F5 JUMP JUMPDEST SWAP3 SWAP2 POP POP JUMP JUMPDEST PUSH0 DUP2 SWAP1 POP SWAP2 SWAP1 POP JUMP JUMPDEST PUSH2 0x42F DUP2 PUSH2 0x41D JUMP JUMPDEST DUP3 MSTORE POP POP JUMP JUMPDEST PUSH0 PUSH1 0x20 DUP3 ADD SWAP1 POP PUSH2 0x448 PUSH0 DUP4 ADD DUP5 PUSH2 0x426 JUMP JUMPDEST SWAP3 SWAP2 POP POP JUMP JUMPDEST PUSH0 PUSH1 0xFF DUP3 AND SWAP1 POP SWAP2 SWAP1 POP JUMP JUMPDEST PUSH2 0x463 DUP2 PUSH2 0x44E JUMP JUMPDEST DUP3 MSTORE POP POP JUMP JUMPDEST PUSH0 PUSH1 0x20 DUP3 ADD SWAP1 POP PUSH2 0x47C PUSH0 DUP4 ADD DUP5 PUSH2 0x45A JUMP JUMPDEST SWAP3 SWAP2 POP POP JUMP JUMPDEST PUSH32 0x4E487B7100000000000000000000000000000000000000000000000000000000 PUSH0 MSTORE PUSH1 0x11 PUSH1 0x4 MSTORE PUSH1 0x24 PUSH0 REVERT JUMPDEST PUSH0 DUP2 PUSH1 0x1 SHR SWAP1 POP SWAP2 SWAP1 POP JUMP JUMPDEST PUSH0 PUSH0 DUP3 SWAP2 POP DUP4 SWAP1 POP JUMPDEST PUSH1 0x1 DUP6 GT ISZERO PUSH2 0x504 JUMPI DUP1 DUP7 DIV DUP2 GT ISZERO PUSH2 0x4E0 JUMPI PUSH2 0x4DF PUSH2 0x482 JUMP JUMPDEST JUMPDEST PUSH1 0x1 DUP6 AND ISZERO PUSH2 0x4EF JUMPI DUP1 DUP3 MUL SWAP2 POP JUMPDEST DUP1 DUP2 MUL SWAP1 POP PUSH2 0x4FD DUP6 PUSH2 0x4AF JUMP JUMPDEST SWAP5 POP PUSH2 0x4C4 JUMP JUMPDEST SWAP5 POP SWAP5 SWAP3 POP POP POP JUMP JUMPDEST PUSH0 DUP3 PUSH2 0x51C JUMPI PUSH1 0x1 SWAP1 POP PUSH2 0x5D7 JUMP JUMPDEST DUP2 PUSH2 0x529 JUMPI PUSH0 SWAP1 POP PUSH2 0x5D7 JUMP JUMPDEST DUP2 PUSH1 0x1 DUP2 EQ PUSH2 0x53F JUMPI PUSH1 0x2 DUP2 EQ PUSH2 0x549 JUMPI PUSH2 0x578 JUMP JUMPDEST PUSH1 0x1 SWAP2 POP POP PUSH2 0x5D7 JUMP JUMPDEST PUSH1 0xFF DUP5 GT ISZERO PUSH2 0x55B JUMPI PUSH2 0x55A PUSH2 0x482 JUMP JUMPDEST JUMPDEST DUP4 PUSH1 0x2 EXP SWAP2 POP DUP5 DUP3 GT ISZERO PUSH2 0x572 JUMPI PUSH2 0x571 PUSH2 0x482 JUMP JUMPDEST JUMPDEST POP PUSH2 0x5D7 JUMP JUMPDEST POP PUSH1 0x20 DUP4 LT PUSH2 0x133 DUP4 LT AND PUSH1 0x4E DUP5 LT PUSH1 0xB DUP5 LT AND OR ISZERO PUSH2 0x5AD JUMPI DUP3 DUP3 EXP SWAP1 POP DUP4 DUP2 GT ISZERO PUSH2 0x5A8 JUMPI PUSH2 0x5A7 PUSH2 0x482 JUMP JUMPDEST JUMPDEST PUSH2 0x5D7 JUMP JUMPDEST PUSH2 0x5BA DUP5 DUP5 DUP5 PUSH1 0x1 PUSH2 0x4BB JUMP JUMPDEST SWAP3 POP SWAP1 POP DUP2 DUP5 DIV DUP2 GT ISZERO PUSH2 0x5D1 JUMPI PUSH2 0x5D0 PUSH2 0x482 JUMP JUMPDEST JUMPDEST DUP2 DUP2 MUL SWAP1 POP JUMPDEST SWAP4 SWAP3 POP POP POP JUMP JUMPDEST PUSH0 PUSH2 0x5E8 DUP3 PUSH2 0x41D JUMP JUMPDEST SWAP2 POP PUSH2 0x5F3 DUP4 PUSH2 0x44E JUMP JUMPDEST SWAP3 POP PUSH2 0x620 PUSH32 0xFFFFFFFFFFFFFFFFFFFFFFFFFFFFFFFFFFFFFFFFFFFFFFFFFFFFFFFFFFFFFFFF DUP5 DUP5 PUSH2 0x50D JUMP JUMPDEST SWAP1 POP SWAP3 SWAP2 POP POP JUMP JUMPDEST PUSH32 0x4E487B7100000000000000000000000000000000000000000000000000000000 PUSH0 MSTORE PUSH1 0x12 PUSH1 0x4 MSTORE PUSH1 0x24 PUSH0 REVERT JUMPDEST PUSH0 PUSH2 0x65F DUP3 PUSH2 0x359 JUMP JUMPDEST SWAP2 POP PUSH2 0x66A DUP4 PUSH2 0x359 JUMP JUMPDEST SWAP3 POP DUP3 PUSH2 0x67A JUMPI PUSH2 0x679 PUSH2 0x628 JUMP JUMPDEST JUMPDEST PUSH1 0x1 PUSH0 SUB DUP4 EQ PUSH32 0x8000000000000000000000000000000000000000000000000000000000000000 DUP4 EQ AND ISZERO PUSH2 0x6B2 JUMPI PUSH2 0x6B1 PUSH2 0x482 JUMP JUMPDEST JUMPDEST DUP3 DUP3 SDIV SWAP1 POP SWAP3 SWAP2 POP POP JUMP JUMPDEST PUSH0 PUSH0 REVERT JUMPDEST PUSH0 PUSH10 0xFFFFFFFFFFFFFFFFFFFF DUP3 AND SWAP1 POP SWAP2 SWAP1 POP JUMP JUMPDEST PUSH2 0x6DF DUP2 PUSH2 0x6C1 JUMP JUMPDEST DUP2 EQ PUSH2 0x6E9 JUMPI PUSH0 PUSH0 REVERT JUMPDEST POP JUMP JUMPDEST PUSH0 DUP2 MLOAD SWAP1 POP PUSH2 0x6FA DUP2 PUSH2 0x6D6 JUMP JUMPDEST SWAP3 SWAP2 POP POP JUMP JUMPDEST PUSH2 0x709 DUP2 PUSH2 0x359 JUMP JUMPDEST DUP2 EQ PUSH2 0x713 JUMPI PUSH0 PUSH0 REVERT JUMPDEST POP JUMP JUMPDEST PUSH0 DUP2 MLOAD SWAP1 POP PUSH2 0x724 DUP2 PUSH2 0x700 JUMP JUMPDEST SWAP3 SWAP2 POP POP JUMP JUMPDEST PUSH2 0x733 DUP2 PUSH2 0x41D JUMP JUMPDEST DUP2 EQ PUSH2 0x73D JUMPI PUSH0 PUSH0 REVERT JUMPDEST POP JUMP JUMPDEST PUSH0 DUP2 MLOAD SWAP1 POP PUSH2 0x74E DUP2 PUSH2 0x72A JUMP JUMPDEST SWAP3 SWAP2 POP POP JUMP JUMPDEST PUSH0 PUSH0 PUSH0 PUSH0 PUSH0 PUSH1 0xA0 DUP7 DUP9 SUB SLT ISZERO PUSH2 0x76D JUMPI PUSH2 0x76C PUSH2 0x6BD JUMP JUMPDEST JUMPDEST PUSH0 PUSH2 0x77A DUP9 DUP3 DUP10 ADD PUSH2 0x6EC JUMP JUMPDEST SWAP6 POP POP PUSH1 0x20 PUSH2 0x78B DUP9 DUP3 DUP10 ADD PUSH2 0x716 JUMP JUMPDEST SWAP5 POP POP PUSH1 0x40 PUSH2 0x79C DUP9 DUP3 DUP10 ADD PUSH2 0x740 JUMP JUMPDEST SWAP4 POP POP PUSH1 0x60 PUSH2 0x7AD DUP9 DUP3 DUP10 ADD PUSH2 0x740 JUMP JUMPDEST SWAP3 POP POP PUSH1 0x80 PUSH2 0x7BE DUP9 DUP3 DUP10 ADD PUSH2 0x6EC JUMP JUMPDEST SWAP2 POP POP SWAP3 SWAP6 POP SWAP3 SWAP6 SWAP1 SWAP4 POP JUMP JUMPDEST PUSH0 DUP3 DUP3 MSTORE PUSH1 0x20 DUP3 ADD SWAP1 POP SWAP3 SWAP2 POP POP JUMP JUMPDEST PUSH32 0x496E76616C696420707269636520646174610000000000000000000000000000 PUSH0 DUP3 ADD MSTORE POP JUMP JUMPDEST PUSH0 PUSH2 0x80F PUSH1 0x12 DUP4 PUSH2 0x7CB JUMP JUMPDEST SWAP2 POP PUSH2 0x81A DUP3 PUSH2 0x7DB JUMP JUMPDEST PUSH1 0x20 DUP3 ADD SWAP1 POP SWAP2 SWAP1 POP JUMP JUMPDEST PUSH0 PUSH1 0x20 DUP3 ADD SWAP1 POP DUP2 DUP2 SUB PUSH0 DUP4 ADD MSTORE PUSH2 0x83C DUP2 PUSH2 0x803 JUMP JUMPDEST SWAP1 POP SWAP2 SWAP1 POP JUMP JUMPDEST PUSH2 0x84C DUP2 PUSH2 0x44E JUMP JUMPDEST DUP2 EQ PUSH2 0x856 JUMPI PUSH0 PUSH0 REVERT JUMPDEST POP JUMP JUMPDEST PUSH0 DUP2 MLOAD SWAP1 POP PUSH2 0x867 DUP2 PUSH2 0x843 JUMP JUMPDEST SWAP3 SWAP2 POP POP JUMP JUMPDEST PUSH0 PUSH1 0x20 DUP3 DUP5 SUB SLT ISZERO PUSH2 0x882 JUMPI PUSH2 0x881 PUSH2 0x6BD JUMP JUMPDEST JUMPDEST PUSH0 PUSH2 0x88F DUP5 DUP3 DUP6 ADD PUSH2 0x859 JUMP JUMPDEST SWAP2 POP POP SWAP3 SWAP2 POP POP JUMP INVALID LOG2 PUSH5 0x6970667358 0x22 SLT KECCAK256 0xDB 0x2C RETURNDATACOPY CREATE SWAP5 PUSH11 0xE628B22B2B7E5E874FE8CB PUSH25 0x85F67491CCCE5501F3847AF404AF64736F6C634300081E0033 "
				},
				"gasEstimates": {
					"creation": {
						"codeDepositCost": "450800",
						"executionCost": "infinite",
						"totalCost": "infinite"
					},
					"external": {
						"getDecimals()": "infinite",
						"getLastUpdatedTime()": "infinite",
						"getLatestPrice()": "infinite",
						"getReadablePrice()": "infinite",
						"priceFeed()": "infinite"
					}
				},
				"methodIdentifiers": {
					"getDecimals()": "f0141d84",
					"getLastUpdatedTime()": "b4b970f8",
					"getLatestPrice()": "8e15f473",
					"getReadablePrice()": "13d77aba",
					"priceFeed()": "741bef1a"
				}
			},
			"storageLayout": {
				"storage": [
					{
						"astId": 51,
						"contract": "Smart Contracts/20_PriceFeedCustomer.sol:PriceFeedConsumer",
						"label": "priceFeed",
						"offset": 0,
						"slot": "0",
						"type": "t_contract(AggregatorV3Interface)45"
					}
				],
				"types": {
					"t_contract(AggregatorV3Interface)45": {
						"encoding": "inplace",
						"label": "contract AggregatorV3Interface",
						"numberOfBytes": "20"
					}
				}
			},
			"userdoc": {
				"kind": "user",
				"methods": {},
				"version": 1
			}
		}
	}
}