{
	"Smart Contracts/2_DAOVotingSystem.sol": {
		"VotingSystem": {
			"abi": [
				{
					"inputs": [],
					"stateMutability": "nonpayable",
					"type": "constructor"
				},
				{
					"inputs": [
						{
							"internalType": "uint256",
							"name": "_proposalId",
							"type": "uint256"
						}
					],
					"name": "closeProposal",
					"outputs": [],
					"stateMutability": "nonpayable",
					"type": "function"
				},
				{
					"inputs": [
						{
							"internalType": "string",
							"name": "_description",
							"type": "string"
						}
					],
					"name": "createProposal",
					"outputs": [],
					"stateMutability": "nonpayable",
					"type": "function"
				},
				{
					"inputs": [
						{
							"internalType": "uint256",
							"name": "_proposalId",
							"type": "uint256"
						}
					],
					"name": "getProposal",
					"outputs": [
						{
							"internalType": "string",
							"name": "",
							"type": "string"
						},
						{
							"internalType": "uint256",
							"name": "",
							"type": "uint256"
						},
						{
							"internalType": "uint256",
							"name": "",
							"type": "uint256"
						},
						{
							"internalType": "bool",
							"name": "",
							"type": "bool"
						}
					],
					"stateMutability": "view",
					"type": "function"
				},
				{
					"inputs": [
						{
							"internalType": "uint256",
							"name": "",
							"type": "uint256"
						},
						{
							"internalType": "address",
							"name": "",
							"type": "address"
						}
					],
					"name": "hasVoted",
					"outputs": [
						{
							"internalType": "bool",
							"name": "",
							"type": "bool"
						}
					],
					"stateMutability": "view",
					"type": "function"
				},
				{
					"inputs": [],
					"name": "owner",
					"outputs": [
						{
							"internalType": "address",
							"name": "",
							"type": "address"
						}
					],
					"stateMutability": "view",
					"type": "function"
				},
				{
					"inputs": [],
					"name": "proposalCount",
					"outputs": [
						{
							"internalType": "uint256",
							"name": "",
							"type": "uint256"
						}
					],
					"stateMutability": "view",
					"type": "function"
				},
				{
					"inputs": [
						{
							"internalType": "uint256",
							"name": "",
							"type": "uint256"
						}
					],
					"name": "proposals",
					"outputs": [
						{
							"internalType": "uint256",
							"name": "id",
							"type": "uint256"
						},
						{
							"internalType": "string",
							"name": "description",
							"type": "string"
						},
						{
							"internalType": "uint256",
							"name": "yesVote",
							"type": "uint256"
						},
						{
							"internalType": "uint256",
							"name": "noVote",
							"type": "uint256"
						},
						{
							"internalType": "bool",
							"name": "isActive",
							"type": "bool"
						}
					],
					"stateMutability": "view",
					"type": "function"
				},
				{
					"inputs": [
						{
							"internalType": "uint256",
							"name": "_proposalId",
							"type": "uint256"
						},
						{
							"internalType": "bool",
							"name": "_support",
							"type": "bool"
						}
					],
					"name": "vote",
					"outputs": [],
					"stateMutability": "nonpayable",
					"type": "function"
				}
			],
			"devdoc": {
				"kind": "dev",
				"methods": {},
				"version": 1
			},
			"evm": {
				"assembly": "    /* \"Smart Contracts/2_DAOVotingSystem.sol\":60:1799  contract VotingSystem {... */\n  mstore(0x40, 0x80)\n    /* \"Smart Contracts/2_DAOVotingSystem.sol\":120:171  constructor() {... */\n  callvalue\n  dup1\n  iszero\n  tag_1\n  jumpi\n  revert(0x00, 0x00)\ntag_1:\n  pop\n    /* \"Smart Contracts/2_DAOVotingSystem.sol\":153:163  msg.sender */\n  caller\n    /* \"Smart Contracts/2_DAOVotingSystem.sol\":145:150  owner */\n  0x00\n  0x00\n    /* \"Smart Contracts/2_DAOVotingSystem.sol\":145:163  owner = msg.sender */\n  0x0100\n  exp\n  dup2\n  sload\n  dup2\n  0xffffffffffffffffffffffffffffffffffffffff\n  mul\n  not\n  and\n  swap1\n  dup4\n  0xffffffffffffffffffffffffffffffffffffffff\n  and\n  mul\n  or\n  swap1\n  sstore\n  pop\n    /* \"Smart Contracts/2_DAOVotingSystem.sol\":60:1799  contract VotingSystem {... */\n  dataSize(sub_0)\n  dup1\n  dataOffset(sub_0)\n  0x00\n  codecopy\n  0x00\n  return\nstop\n\nsub_0: assembly {\n        /* \"Smart Contracts/2_DAOVotingSystem.sol\":60:1799  contract VotingSystem {... */\n      mstore(0x40, 0x80)\n      callvalue\n      dup1\n      iszero\n      tag_1\n      jumpi\n      revert(0x00, 0x00)\n    tag_1:\n      pop\n      jumpi(tag_2, lt(calldatasize, 0x04))\n      shr(0xe0, calldataload(0x00))\n      dup1\n      0x8da5cb5b\n      gt\n      tag_11\n      jumpi\n      dup1\n      0x8da5cb5b\n      eq\n      tag_7\n      jumpi\n      dup1\n      0xc7f758a8\n      eq\n      tag_8\n      jumpi\n      dup1\n      0xc9d27afe\n      eq\n      tag_9\n      jumpi\n      dup1\n      0xda35c664\n      eq\n      tag_10\n      jumpi\n      jump(tag_2)\n    tag_11:\n      dup1\n      0x013cf08b\n      eq\n      tag_3\n      jumpi\n      dup1\n      0x0386a016\n      eq\n      tag_4\n      jumpi\n      dup1\n      0x43859632\n      eq\n      tag_5\n      jumpi\n      dup1\n      0x49c2a1a6\n      eq\n      tag_6\n      jumpi\n    tag_2:\n      revert(0x00, 0x00)\n        /* \"Smart Contracts/2_DAOVotingSystem.sol\":489:531  mapping(uint => Proposal) public proposals */\n    tag_3:\n      tag_12\n      0x04\n      dup1\n      calldatasize\n      sub\n      dup2\n      add\n      swap1\n      tag_13\n      swap2\n      swap1\n      tag_14\n      jump\t// in\n    tag_13:\n      tag_15\n      jump\t// in\n    tag_12:\n      mload(0x40)\n      tag_16\n      swap6\n      swap5\n      swap4\n      swap3\n      swap2\n      swap1\n      tag_17\n      jump\t// in\n    tag_16:\n      mload(0x40)\n      dup1\n      swap2\n      sub\n      swap1\n      return\n        /* \"Smart Contracts/2_DAOVotingSystem.sol\":1321:1438  function closeProposal(uint _proposalId) public checkOwner {... */\n    tag_4:\n      tag_18\n      0x04\n      dup1\n      calldatasize\n      sub\n      dup2\n      add\n      swap1\n      tag_19\n      swap2\n      swap1\n      tag_14\n      jump\t// in\n    tag_19:\n      tag_20\n      jump\t// in\n    tag_18:\n      stop\n        /* \"Smart Contracts/2_DAOVotingSystem.sol\":538:595  mapping(uint => mapping(address => bool)) public hasVoted */\n    tag_5:\n      tag_21\n      0x04\n      dup1\n      calldatasize\n      sub\n      dup2\n      add\n      swap1\n      tag_22\n      swap2\n      swap1\n      tag_23\n      jump\t// in\n    tag_22:\n      tag_24\n      jump\t// in\n    tag_21:\n      mload(0x40)\n      tag_25\n      swap2\n      swap1\n      tag_26\n      jump\t// in\n    tag_25:\n      mload(0x40)\n      dup1\n      swap2\n      sub\n      swap1\n      return\n        /* \"Smart Contracts/2_DAOVotingSystem.sol\":604:871  function createProposal(string memory _description) public checkOwner {... */\n    tag_6:\n      tag_27\n      0x04\n      dup1\n      calldatasize\n      sub\n      dup2\n      add\n      swap1\n      tag_28\n      swap2\n      swap1\n      tag_29\n      jump\t// in\n    tag_28:\n      tag_30\n      jump\t// in\n    tag_27:\n      stop\n        /* \"Smart Contracts/2_DAOVotingSystem.sol\":91:111  address public owner */\n    tag_7:\n      tag_31\n      tag_32\n      jump\t// in\n    tag_31:\n      mload(0x40)\n      tag_33\n      swap2\n      swap1\n      tag_34\n      jump\t// in\n    tag_33:\n      mload(0x40)\n      dup1\n      swap2\n      sub\n      swap1\n      return\n        /* \"Smart Contracts/2_DAOVotingSystem.sol\":1446:1796  function getProposal(uint _proposalId)... */\n    tag_8:\n      tag_35\n      0x04\n      dup1\n      calldatasize\n      sub\n      dup2\n      add\n      swap1\n      tag_36\n      swap2\n      swap1\n      tag_14\n      jump\t// in\n    tag_36:\n      tag_37\n      jump\t// in\n    tag_35:\n      mload(0x40)\n      tag_38\n      swap5\n      swap4\n      swap3\n      swap2\n      swap1\n      tag_39\n      jump\t// in\n    tag_38:\n      mload(0x40)\n      dup1\n      swap2\n      sub\n      swap1\n      return\n        /* \"Smart Contracts/2_DAOVotingSystem.sol\":879:1313  function vote(uint _proposalId, bool _support) public {... */\n    tag_9:\n      tag_40\n      0x04\n      dup1\n      calldatasize\n      sub\n      dup2\n      add\n      swap1\n      tag_41\n      swap2\n      swap1\n      tag_42\n      jump\t// in\n    tag_41:\n      tag_43\n      jump\t// in\n    tag_40:\n      stop\n        /* \"Smart Contracts/2_DAOVotingSystem.sol\":457:482  uint public proposalCount */\n    tag_10:\n      tag_44\n      tag_45\n      jump\t// in\n    tag_44:\n      mload(0x40)\n      tag_46\n      swap2\n      swap1\n      tag_47\n      jump\t// in\n    tag_46:\n      mload(0x40)\n      dup1\n      swap2\n      sub\n      swap1\n      return\n        /* \"Smart Contracts/2_DAOVotingSystem.sol\":489:531  mapping(uint => Proposal) public proposals */\n    tag_15:\n      mstore(0x20, 0x02)\n      dup1\n      0x00\n      mstore\n      keccak256(0x00, 0x40)\n      0x00\n      swap2\n      pop\n      swap1\n      pop\n      dup1\n      0x00\n      add\n      sload\n      swap1\n      dup1\n      0x01\n      add\n      dup1\n      sload\n      tag_48\n      swap1\n      tag_49\n      jump\t// in\n    tag_48:\n      dup1\n      0x1f\n      add\n      0x20\n      dup1\n      swap2\n      div\n      mul\n      0x20\n      add\n      mload(0x40)\n      swap1\n      dup2\n      add\n      0x40\n      mstore\n      dup1\n      swap3\n      swap2\n      swap1\n      dup2\n      dup2\n      mstore\n      0x20\n      add\n      dup3\n      dup1\n      sload\n      tag_50\n      swap1\n      tag_49\n      jump\t// in\n    tag_50:\n      dup1\n      iszero\n      tag_51\n      jumpi\n      dup1\n      0x1f\n      lt\n      tag_52\n      jumpi\n      0x0100\n      dup1\n      dup4\n      sload\n      div\n      mul\n      dup4\n      mstore\n      swap2\n      0x20\n      add\n      swap2\n      jump(tag_51)\n    tag_52:\n      dup3\n      add\n      swap2\n      swap1\n      0x00\n      mstore\n      keccak256(0x00, 0x20)\n      swap1\n    tag_53:\n      dup2\n      sload\n      dup2\n      mstore\n      swap1\n      0x01\n      add\n      swap1\n      0x20\n      add\n      dup1\n      dup4\n      gt\n      tag_53\n      jumpi\n      dup3\n      swap1\n      sub\n      0x1f\n      and\n      dup3\n      add\n      swap2\n    tag_51:\n      pop\n      pop\n      pop\n      pop\n      pop\n      swap1\n      dup1\n      0x02\n      add\n      sload\n      swap1\n      dup1\n      0x03\n      add\n      sload\n      swap1\n      dup1\n      0x04\n      add\n      0x00\n      swap1\n      sload\n      swap1\n      0x0100\n      exp\n      swap1\n      div\n      0xff\n      and\n      swap1\n      pop\n      dup6\n      jump\t// out\n        /* \"Smart Contracts/2_DAOVotingSystem.sol\":1321:1438  function closeProposal(uint _proposalId) public checkOwner {... */\n    tag_20:\n        /* \"Smart Contracts/2_DAOVotingSystem.sol\":234:239  owner */\n      0x00\n      0x00\n      swap1\n      sload\n      swap1\n      0x0100\n      exp\n      swap1\n      div\n      0xffffffffffffffffffffffffffffffffffffffff\n      and\n        /* \"Smart Contracts/2_DAOVotingSystem.sol\":220:239  msg.sender == owner */\n      0xffffffffffffffffffffffffffffffffffffffff\n      and\n        /* \"Smart Contracts/2_DAOVotingSystem.sol\":220:230  msg.sender */\n      caller\n        /* \"Smart Contracts/2_DAOVotingSystem.sol\":220:239  msg.sender == owner */\n      0xffffffffffffffffffffffffffffffffffffffff\n      and\n      eq\n        /* \"Smart Contracts/2_DAOVotingSystem.sol\":212:281  require(msg.sender == owner, \"Only the owner can call this function\") */\n      tag_55\n      jumpi\n      mload(0x40)\n      0x08c379a000000000000000000000000000000000000000000000000000000000\n      dup2\n      mstore\n      0x04\n      add\n      tag_56\n      swap1\n      tag_57\n      jump\t// in\n    tag_56:\n      mload(0x40)\n      dup1\n      swap2\n      sub\n      swap1\n      revert\n    tag_55:\n        /* \"Smart Contracts/2_DAOVotingSystem.sol\":1425:1430  false */\n      0x00\n        /* \"Smart Contracts/2_DAOVotingSystem.sol\":1391:1400  proposals */\n      0x02\n        /* \"Smart Contracts/2_DAOVotingSystem.sol\":1391:1413  proposals[_proposalId] */\n      0x00\n        /* \"Smart Contracts/2_DAOVotingSystem.sol\":1401:1412  _proposalId */\n      dup4\n        /* \"Smart Contracts/2_DAOVotingSystem.sol\":1391:1413  proposals[_proposalId] */\n      dup2\n      mstore\n      0x20\n      add\n      swap1\n      dup2\n      mstore\n      0x20\n      add\n      0x00\n      keccak256\n        /* \"Smart Contracts/2_DAOVotingSystem.sol\":1391:1422  proposals[_proposalId].isActive */\n      0x04\n      add\n      0x00\n        /* \"Smart Contracts/2_DAOVotingSystem.sol\":1391:1430  proposals[_proposalId].isActive = false */\n      0x0100\n      exp\n      dup2\n      sload\n      dup2\n      0xff\n      mul\n      not\n      and\n      swap1\n      dup4\n      iszero\n      iszero\n      mul\n      or\n      swap1\n      sstore\n      pop\n        /* \"Smart Contracts/2_DAOVotingSystem.sol\":1321:1438  function closeProposal(uint _proposalId) public checkOwner {... */\n      pop\n      jump\t// out\n        /* \"Smart Contracts/2_DAOVotingSystem.sol\":538:595  mapping(uint => mapping(address => bool)) public hasVoted */\n    tag_24:\n      mstore(0x20, 0x03)\n      dup2\n      0x00\n      mstore\n      mstore(0x20, keccak256(0x00, 0x40))\n      dup1\n      0x00\n      mstore\n      keccak256(0x00, 0x40)\n      0x00\n      swap2\n      pop\n      swap2\n      pop\n      swap1\n      sload\n      swap1\n      0x0100\n      exp\n      swap1\n      div\n      0xff\n      and\n      dup2\n      jump\t// out\n        /* \"Smart Contracts/2_DAOVotingSystem.sol\":604:871  function createProposal(string memory _description) public checkOwner {... */\n    tag_30:\n        /* \"Smart Contracts/2_DAOVotingSystem.sol\":234:239  owner */\n      0x00\n      0x00\n      swap1\n      sload\n      swap1\n      0x0100\n      exp\n      swap1\n      div\n      0xffffffffffffffffffffffffffffffffffffffff\n      and\n        /* \"Smart Contracts/2_DAOVotingSystem.sol\":220:239  msg.sender == owner */\n      0xffffffffffffffffffffffffffffffffffffffff\n      and\n        /* \"Smart Contracts/2_DAOVotingSystem.sol\":220:230  msg.sender */\n      caller\n        /* \"Smart Contracts/2_DAOVotingSystem.sol\":220:239  msg.sender == owner */\n      0xffffffffffffffffffffffffffffffffffffffff\n      and\n      eq\n        /* \"Smart Contracts/2_DAOVotingSystem.sol\":212:281  require(msg.sender == owner, \"Only the owner can call this function\") */\n      tag_60\n      jumpi\n      mload(0x40)\n      0x08c379a000000000000000000000000000000000000000000000000000000000\n      dup2\n      mstore\n      0x04\n      add\n      tag_61\n      swap1\n      tag_57\n      jump\t// in\n    tag_61:\n      mload(0x40)\n      dup1\n      swap2\n      sub\n      swap1\n      revert\n    tag_60:\n        /* \"Smart Contracts/2_DAOVotingSystem.sol\":685:698  proposalCount */\n      0x01\n      0x00\n        /* \"Smart Contracts/2_DAOVotingSystem.sol\":685:700  proposalCount++ */\n      dup2\n      sload\n      dup1\n      swap3\n      swap2\n      swap1\n      tag_63\n      swap1\n      tag_64\n      jump\t// in\n    tag_63:\n      swap2\n      swap1\n      pop\n      sstore\n      pop\n        /* \"Smart Contracts/2_DAOVotingSystem.sol\":738:863  Proposal(... */\n      mload(0x40)\n      dup1\n      0xa0\n      add\n      0x40\n      mstore\n      dup1\n        /* \"Smart Contracts/2_DAOVotingSystem.sol\":761:774  proposalCount */\n      sload(0x01)\n        /* \"Smart Contracts/2_DAOVotingSystem.sol\":738:863  Proposal(... */\n      dup2\n      mstore\n      0x20\n      add\n        /* \"Smart Contracts/2_DAOVotingSystem.sol\":789:801  _description */\n      dup3\n        /* \"Smart Contracts/2_DAOVotingSystem.sol\":738:863  Proposal(... */\n      dup2\n      mstore\n      0x20\n      add\n        /* \"Smart Contracts/2_DAOVotingSystem.sol\":816:817  0 */\n      0x00\n        /* \"Smart Contracts/2_DAOVotingSystem.sol\":738:863  Proposal(... */\n      dup2\n      mstore\n      0x20\n      add\n        /* \"Smart Contracts/2_DAOVotingSystem.sol\":832:833  0 */\n      0x00\n        /* \"Smart Contracts/2_DAOVotingSystem.sol\":738:863  Proposal(... */\n      dup2\n      mstore\n      0x20\n      add\n        /* \"Smart Contracts/2_DAOVotingSystem.sol\":848:852  true */\n      0x01\n        /* \"Smart Contracts/2_DAOVotingSystem.sol\":738:863  Proposal(... */\n      iszero\n      iszero\n      dup2\n      mstore\n      pop\n        /* \"Smart Contracts/2_DAOVotingSystem.sol\":711:720  proposals */\n      0x02\n        /* \"Smart Contracts/2_DAOVotingSystem.sol\":711:735  proposals[proposalCount] */\n      0x00\n        /* \"Smart Contracts/2_DAOVotingSystem.sol\":721:734  proposalCount */\n      sload(0x01)\n        /* \"Smart Contracts/2_DAOVotingSystem.sol\":711:735  proposals[proposalCount] */\n      dup2\n      mstore\n      0x20\n      add\n      swap1\n      dup2\n      mstore\n      0x20\n      add\n      0x00\n      keccak256\n        /* \"Smart Contracts/2_DAOVotingSystem.sol\":711:863  proposals[proposalCount] = Proposal(... */\n      0x00\n      dup3\n      add\n      mload\n      dup2\n      0x00\n      add\n      sstore\n      0x20\n      dup3\n      add\n      mload\n      dup2\n      0x01\n      add\n      swap1\n      dup2\n      tag_65\n      swap2\n      swap1\n      tag_66\n      jump\t// in\n    tag_65:\n      pop\n      0x40\n      dup3\n      add\n      mload\n      dup2\n      0x02\n      add\n      sstore\n      0x60\n      dup3\n      add\n      mload\n      dup2\n      0x03\n      add\n      sstore\n      0x80\n      dup3\n      add\n      mload\n      dup2\n      0x04\n      add\n      exp(0x0100, 0x00)\n      dup2\n      sload\n      dup2\n      0xff\n      mul\n      not\n      and\n      swap1\n      dup4\n      iszero\n      iszero\n      mul\n      or\n      swap1\n      sstore\n      pop\n      swap1\n      pop\n      pop\n        /* \"Smart Contracts/2_DAOVotingSystem.sol\":604:871  function createProposal(string memory _description) public checkOwner {... */\n      pop\n      jump\t// out\n        /* \"Smart Contracts/2_DAOVotingSystem.sol\":91:111  address public owner */\n    tag_32:\n      0x00\n      0x00\n      swap1\n      sload\n      swap1\n      0x0100\n      exp\n      swap1\n      div\n      0xffffffffffffffffffffffffffffffffffffffff\n      and\n      dup2\n      jump\t// out\n        /* \"Smart Contracts/2_DAOVotingSystem.sol\":1446:1796  function getProposal(uint _proposalId)... */\n    tag_37:\n        /* \"Smart Contracts/2_DAOVotingSystem.sol\":1533:1546  string memory */\n      0x60\n        /* \"Smart Contracts/2_DAOVotingSystem.sol\":1548:1552  uint */\n      0x00\n        /* \"Smart Contracts/2_DAOVotingSystem.sol\":1554:1558  uint */\n      0x00\n        /* \"Smart Contracts/2_DAOVotingSystem.sol\":1560:1564  bool */\n      0x00\n        /* \"Smart Contracts/2_DAOVotingSystem.sol\":1582:1606  Proposal memory proposal */\n      0x00\n        /* \"Smart Contracts/2_DAOVotingSystem.sol\":1609:1618  proposals */\n      0x02\n        /* \"Smart Contracts/2_DAOVotingSystem.sol\":1609:1631  proposals[_proposalId] */\n      0x00\n        /* \"Smart Contracts/2_DAOVotingSystem.sol\":1619:1630  _proposalId */\n      dup8\n        /* \"Smart Contracts/2_DAOVotingSystem.sol\":1609:1631  proposals[_proposalId] */\n      dup2\n      mstore\n      0x20\n      add\n      swap1\n      dup2\n      mstore\n      0x20\n      add\n      0x00\n      keccak256\n        /* \"Smart Contracts/2_DAOVotingSystem.sol\":1582:1631  Proposal memory proposal = proposals[_proposalId] */\n      mload(0x40)\n      dup1\n      0xa0\n      add\n      0x40\n      mstore\n      swap1\n      dup2\n      0x00\n      dup3\n      add\n      sload\n      dup2\n      mstore\n      0x20\n      add\n      0x01\n      dup3\n      add\n      dup1\n      sload\n      tag_68\n      swap1\n      tag_49\n      jump\t// in\n    tag_68:\n      dup1\n      0x1f\n      add\n      0x20\n      dup1\n      swap2\n      div\n      mul\n      0x20\n      add\n      mload(0x40)\n      swap1\n      dup2\n      add\n      0x40\n      mstore\n      dup1\n      swap3\n      swap2\n      swap1\n      dup2\n      dup2\n      mstore\n      0x20\n      add\n      dup3\n      dup1\n      sload\n      tag_69\n      swap1\n      tag_49\n      jump\t// in\n    tag_69:\n      dup1\n      iszero\n      tag_70\n      jumpi\n      dup1\n      0x1f\n      lt\n      tag_71\n      jumpi\n      0x0100\n      dup1\n      dup4\n      sload\n      div\n      mul\n      dup4\n      mstore\n      swap2\n      0x20\n      add\n      swap2\n      jump(tag_70)\n    tag_71:\n      dup3\n      add\n      swap2\n      swap1\n      0x00\n      mstore\n      keccak256(0x00, 0x20)\n      swap1\n    tag_72:\n      dup2\n      sload\n      dup2\n      mstore\n      swap1\n      0x01\n      add\n      swap1\n      0x20\n      add\n      dup1\n      dup4\n      gt\n      tag_72\n      jumpi\n      dup3\n      swap1\n      sub\n      0x1f\n      and\n      dup3\n      add\n      swap2\n    tag_70:\n      pop\n      pop\n      pop\n      pop\n      pop\n      dup2\n      mstore\n      0x20\n      add\n      0x02\n      dup3\n      add\n      sload\n      dup2\n      mstore\n      0x20\n      add\n      0x03\n      dup3\n      add\n      sload\n      dup2\n      mstore\n      0x20\n      add\n      0x04\n      dup3\n      add\n      0x00\n      swap1\n      sload\n      swap1\n      0x0100\n      exp\n      swap1\n      div\n      0xff\n      and\n      iszero\n      iszero\n      iszero\n      iszero\n      dup2\n      mstore\n      pop\n      pop\n      swap1\n      pop\n        /* \"Smart Contracts/2_DAOVotingSystem.sol\":1664:1672  proposal */\n      dup1\n        /* \"Smart Contracts/2_DAOVotingSystem.sol\":1664:1684  proposal.description */\n      0x20\n      add\n      mload\n        /* \"Smart Contracts/2_DAOVotingSystem.sol\":1699:1707  proposal */\n      dup2\n        /* \"Smart Contracts/2_DAOVotingSystem.sol\":1699:1715  proposal.yesVote */\n      0x40\n      add\n      mload\n        /* \"Smart Contracts/2_DAOVotingSystem.sol\":1730:1738  proposal */\n      dup3\n        /* \"Smart Contracts/2_DAOVotingSystem.sol\":1730:1745  proposal.noVote */\n      0x60\n      add\n      mload\n        /* \"Smart Contracts/2_DAOVotingSystem.sol\":1760:1768  proposal */\n      dup4\n        /* \"Smart Contracts/2_DAOVotingSystem.sol\":1760:1777  proposal.isActive */\n      0x80\n      add\n      mload\n        /* \"Smart Contracts/2_DAOVotingSystem.sol\":1642:1788  return (... */\n      swap5\n      pop\n      swap5\n      pop\n      swap5\n      pop\n      swap5\n      pop\n      pop\n        /* \"Smart Contracts/2_DAOVotingSystem.sol\":1446:1796  function getProposal(uint _proposalId)... */\n      swap2\n      swap4\n      pop\n      swap2\n      swap4\n      jump\t// out\n        /* \"Smart Contracts/2_DAOVotingSystem.sol\":879:1313  function vote(uint _proposalId, bool _support) public {... */\n    tag_43:\n        /* \"Smart Contracts/2_DAOVotingSystem.sol\":944:969  Proposal storage proposal */\n      0x00\n        /* \"Smart Contracts/2_DAOVotingSystem.sol\":972:981  proposals */\n      0x02\n        /* \"Smart Contracts/2_DAOVotingSystem.sol\":972:994  proposals[_proposalId] */\n      0x00\n        /* \"Smart Contracts/2_DAOVotingSystem.sol\":982:993  _proposalId */\n      dup5\n        /* \"Smart Contracts/2_DAOVotingSystem.sol\":972:994  proposals[_proposalId] */\n      dup2\n      mstore\n      0x20\n      add\n      swap1\n      dup2\n      mstore\n      0x20\n      add\n      0x00\n      keccak256\n        /* \"Smart Contracts/2_DAOVotingSystem.sol\":944:994  Proposal storage proposal = proposals[_proposalId] */\n      swap1\n      pop\n        /* \"Smart Contracts/2_DAOVotingSystem.sol\":1013:1021  proposal */\n      dup1\n        /* \"Smart Contracts/2_DAOVotingSystem.sol\":1013:1030  proposal.isActive */\n      0x04\n      add\n      0x00\n      swap1\n      sload\n      swap1\n      0x0100\n      exp\n      swap1\n      div\n      0xff\n      and\n        /* \"Smart Contracts/2_DAOVotingSystem.sol\":1005:1051  require(proposal.isActive, \"Voting is closed\") */\n      tag_74\n      jumpi\n      mload(0x40)\n      0x08c379a000000000000000000000000000000000000000000000000000000000\n      dup2\n      mstore\n      0x04\n      add\n      tag_75\n      swap1\n      tag_76\n      jump\t// in\n    tag_75:\n      mload(0x40)\n      dup1\n      swap2\n      sub\n      swap1\n      revert\n    tag_74:\n        /* \"Smart Contracts/2_DAOVotingSystem.sol\":1071:1079  hasVoted */\n      0x03\n        /* \"Smart Contracts/2_DAOVotingSystem.sol\":1071:1092  hasVoted[_proposalId] */\n      0x00\n        /* \"Smart Contracts/2_DAOVotingSystem.sol\":1080:1091  _proposalId */\n      dup5\n        /* \"Smart Contracts/2_DAOVotingSystem.sol\":1071:1092  hasVoted[_proposalId] */\n      dup2\n      mstore\n      0x20\n      add\n      swap1\n      dup2\n      mstore\n      0x20\n      add\n      0x00\n      keccak256\n        /* \"Smart Contracts/2_DAOVotingSystem.sol\":1071:1104  hasVoted[_proposalId][msg.sender] */\n      0x00\n        /* \"Smart Contracts/2_DAOVotingSystem.sol\":1093:1103  msg.sender */\n      caller\n        /* \"Smart Contracts/2_DAOVotingSystem.sol\":1071:1104  hasVoted[_proposalId][msg.sender] */\n      0xffffffffffffffffffffffffffffffffffffffff\n      and\n      0xffffffffffffffffffffffffffffffffffffffff\n      and\n      dup2\n      mstore\n      0x20\n      add\n      swap1\n      dup2\n      mstore\n      0x20\n      add\n      0x00\n      keccak256\n      0x00\n      swap1\n      sload\n      swap1\n      0x0100\n      exp\n      swap1\n      div\n      0xff\n      and\n        /* \"Smart Contracts/2_DAOVotingSystem.sol\":1070:1104  !hasVoted[_proposalId][msg.sender] */\n      iszero\n        /* \"Smart Contracts/2_DAOVotingSystem.sol\":1062:1131  require(!hasVoted[_proposalId][msg.sender], \"You have already voted\") */\n      tag_77\n      jumpi\n      mload(0x40)\n      0x08c379a000000000000000000000000000000000000000000000000000000000\n      dup2\n      mstore\n      0x04\n      add\n      tag_78\n      swap1\n      tag_79\n      jump\t// in\n    tag_78:\n      mload(0x40)\n      dup1\n      swap2\n      sub\n      swap1\n      revert\n    tag_77:\n        /* \"Smart Contracts/2_DAOVotingSystem.sol\":1180:1184  true */\n      0x01\n        /* \"Smart Contracts/2_DAOVotingSystem.sol\":1144:1152  hasVoted */\n      0x03\n        /* \"Smart Contracts/2_DAOVotingSystem.sol\":1144:1165  hasVoted[_proposalId] */\n      0x00\n        /* \"Smart Contracts/2_DAOVotingSystem.sol\":1153:1164  _proposalId */\n      dup6\n        /* \"Smart Contracts/2_DAOVotingSystem.sol\":1144:1165  hasVoted[_proposalId] */\n      dup2\n      mstore\n      0x20\n      add\n      swap1\n      dup2\n      mstore\n      0x20\n      add\n      0x00\n      keccak256\n        /* \"Smart Contracts/2_DAOVotingSystem.sol\":1144:1177  hasVoted[_proposalId][msg.sender] */\n      0x00\n        /* \"Smart Contracts/2_DAOVotingSystem.sol\":1166:1176  msg.sender */\n      caller\n        /* \"Smart Contracts/2_DAOVotingSystem.sol\":1144:1177  hasVoted[_proposalId][msg.sender] */\n      0xffffffffffffffffffffffffffffffffffffffff\n      and\n      0xffffffffffffffffffffffffffffffffffffffff\n      and\n      dup2\n      mstore\n      0x20\n      add\n      swap1\n      dup2\n      mstore\n      0x20\n      add\n      0x00\n      keccak256\n      0x00\n        /* \"Smart Contracts/2_DAOVotingSystem.sol\":1144:1184  hasVoted[_proposalId][msg.sender] = true */\n      0x0100\n      exp\n      dup2\n      sload\n      dup2\n      0xff\n      mul\n      not\n      and\n      swap1\n      dup4\n      iszero\n      iszero\n      mul\n      or\n      swap1\n      sstore\n      pop\n        /* \"Smart Contracts/2_DAOVotingSystem.sol\":1201:1209  _support */\n      dup2\n        /* \"Smart Contracts/2_DAOVotingSystem.sol\":1197:1306  if (_support) {... */\n      iszero\n      tag_80\n      jumpi\n        /* \"Smart Contracts/2_DAOVotingSystem.sol\":1226:1234  proposal */\n      dup1\n        /* \"Smart Contracts/2_DAOVotingSystem.sol\":1226:1242  proposal.yesVote */\n      0x02\n      add\n      0x00\n        /* \"Smart Contracts/2_DAOVotingSystem.sol\":1226:1244  proposal.yesVote++ */\n      dup2\n      sload\n      dup1\n      swap3\n      swap2\n      swap1\n      tag_81\n      swap1\n      tag_64\n      jump\t// in\n    tag_81:\n      swap2\n      swap1\n      pop\n      sstore\n      pop\n        /* \"Smart Contracts/2_DAOVotingSystem.sol\":1197:1306  if (_support) {... */\n      jump(tag_82)\n    tag_80:\n        /* \"Smart Contracts/2_DAOVotingSystem.sol\":1277:1285  proposal */\n      dup1\n        /* \"Smart Contracts/2_DAOVotingSystem.sol\":1277:1292  proposal.noVote */\n      0x03\n      add\n      0x00\n        /* \"Smart Contracts/2_DAOVotingSystem.sol\":1277:1294  proposal.noVote++ */\n      dup2\n      sload\n      dup1\n      swap3\n      swap2\n      swap1\n      tag_83\n      swap1\n      tag_64\n      jump\t// in\n    tag_83:\n      swap2\n      swap1\n      pop\n      sstore\n      pop\n        /* \"Smart Contracts/2_DAOVotingSystem.sol\":1197:1306  if (_support) {... */\n    tag_82:\n        /* \"Smart Contracts/2_DAOVotingSystem.sol\":933:1313  {... */\n      pop\n        /* \"Smart Contracts/2_DAOVotingSystem.sol\":879:1313  function vote(uint _proposalId, bool _support) public {... */\n      pop\n      pop\n      jump\t// out\n        /* \"Smart Contracts/2_DAOVotingSystem.sol\":457:482  uint public proposalCount */\n    tag_45:\n      sload(0x01)\n      dup2\n      jump\t// out\n        /* \"#utility.yul\":7:82   */\n    tag_84:\n        /* \"#utility.yul\":40:46   */\n      0x00\n        /* \"#utility.yul\":73:75   */\n      0x40\n        /* \"#utility.yul\":67:76   */\n      mload\n        /* \"#utility.yul\":57:76   */\n      swap1\n      pop\n        /* \"#utility.yul\":7:82   */\n      swap1\n      jump\t// out\n        /* \"#utility.yul\":88:205   */\n    tag_85:\n        /* \"#utility.yul\":197:198   */\n      0x00\n        /* \"#utility.yul\":194:195   */\n      0x00\n        /* \"#utility.yul\":187:199   */\n      revert\n        /* \"#utility.yul\":211:328   */\n    tag_86:\n        /* \"#utility.yul\":320:321   */\n      0x00\n        /* \"#utility.yul\":317:318   */\n      0x00\n        /* \"#utility.yul\":310:322   */\n      revert\n        /* \"#utility.yul\":334:411   */\n    tag_87:\n        /* \"#utility.yul\":371:378   */\n      0x00\n        /* \"#utility.yul\":400:405   */\n      dup2\n        /* \"#utility.yul\":389:405   */\n      swap1\n      pop\n        /* \"#utility.yul\":334:411   */\n      swap2\n      swap1\n      pop\n      jump\t// out\n        /* \"#utility.yul\":417:539   */\n    tag_88:\n        /* \"#utility.yul\":490:514   */\n      tag_143\n        /* \"#utility.yul\":508:513   */\n      dup2\n        /* \"#utility.yul\":490:514   */\n      tag_87\n      jump\t// in\n    tag_143:\n        /* \"#utility.yul\":483:488   */\n      dup2\n        /* \"#utility.yul\":480:515   */\n      eq\n        /* \"#utility.yul\":470:533   */\n      tag_144\n      jumpi\n        /* \"#utility.yul\":529:530   */\n      0x00\n        /* \"#utility.yul\":526:527   */\n      0x00\n        /* \"#utility.yul\":519:531   */\n      revert\n        /* \"#utility.yul\":470:533   */\n    tag_144:\n        /* \"#utility.yul\":417:539   */\n      pop\n      jump\t// out\n        /* \"#utility.yul\":545:684   */\n    tag_89:\n        /* \"#utility.yul\":591:596   */\n      0x00\n        /* \"#utility.yul\":629:635   */\n      dup2\n        /* \"#utility.yul\":616:636   */\n      calldataload\n        /* \"#utility.yul\":607:636   */\n      swap1\n      pop\n        /* \"#utility.yul\":645:678   */\n      tag_146\n        /* \"#utility.yul\":672:677   */\n      dup2\n        /* \"#utility.yul\":645:678   */\n      tag_88\n      jump\t// in\n    tag_146:\n        /* \"#utility.yul\":545:684   */\n      swap3\n      swap2\n      pop\n      pop\n      jump\t// out\n        /* \"#utility.yul\":690:1019   */\n    tag_14:\n        /* \"#utility.yul\":749:755   */\n      0x00\n        /* \"#utility.yul\":798:800   */\n      0x20\n        /* \"#utility.yul\":786:795   */\n      dup3\n        /* \"#utility.yul\":777:784   */\n      dup5\n        /* \"#utility.yul\":773:796   */\n      sub\n        /* \"#utility.yul\":769:801   */\n      slt\n        /* \"#utility.yul\":766:885   */\n      iszero\n      tag_148\n      jumpi\n        /* \"#utility.yul\":804:883   */\n      tag_149\n      tag_85\n      jump\t// in\n    tag_149:\n        /* \"#utility.yul\":766:885   */\n    tag_148:\n        /* \"#utility.yul\":924:925   */\n      0x00\n        /* \"#utility.yul\":949:1002   */\n      tag_150\n        /* \"#utility.yul\":994:1001   */\n      dup5\n        /* \"#utility.yul\":985:991   */\n      dup3\n        /* \"#utility.yul\":974:983   */\n      dup6\n        /* \"#utility.yul\":970:992   */\n      add\n        /* \"#utility.yul\":949:1002   */\n      tag_89\n      jump\t// in\n    tag_150:\n        /* \"#utility.yul\":939:1002   */\n      swap2\n      pop\n        /* \"#utility.yul\":895:1012   */\n      pop\n        /* \"#utility.yul\":690:1019   */\n      swap3\n      swap2\n      pop\n      pop\n      jump\t// out\n        /* \"#utility.yul\":1025:1143   */\n    tag_90:\n        /* \"#utility.yul\":1112:1136   */\n      tag_152\n        /* \"#utility.yul\":1130:1135   */\n      dup2\n        /* \"#utility.yul\":1112:1136   */\n      tag_87\n      jump\t// in\n    tag_152:\n        /* \"#utility.yul\":1107:1110   */\n      dup3\n        /* \"#utility.yul\":1100:1137   */\n      mstore\n        /* \"#utility.yul\":1025:1143   */\n      pop\n      pop\n      jump\t// out\n        /* \"#utility.yul\":1149:1248   */\n    tag_91:\n        /* \"#utility.yul\":1201:1207   */\n      0x00\n        /* \"#utility.yul\":1235:1240   */\n      dup2\n        /* \"#utility.yul\":1229:1241   */\n      mload\n        /* \"#utility.yul\":1219:1241   */\n      swap1\n      pop\n        /* \"#utility.yul\":1149:1248   */\n      swap2\n      swap1\n      pop\n      jump\t// out\n        /* \"#utility.yul\":1254:1423   */\n    tag_92:\n        /* \"#utility.yul\":1338:1349   */\n      0x00\n        /* \"#utility.yul\":1372:1378   */\n      dup3\n        /* \"#utility.yul\":1367:1370   */\n      dup3\n        /* \"#utility.yul\":1360:1379   */\n      mstore\n        /* \"#utility.yul\":1412:1416   */\n      0x20\n        /* \"#utility.yul\":1407:1410   */\n      dup3\n        /* \"#utility.yul\":1403:1417   */\n      add\n        /* \"#utility.yul\":1388:1417   */\n      swap1\n      pop\n        /* \"#utility.yul\":1254:1423   */\n      swap3\n      swap2\n      pop\n      pop\n      jump\t// out\n        /* \"#utility.yul\":1429:1568   */\n    tag_93:\n        /* \"#utility.yul\":1518:1524   */\n      dup3\n        /* \"#utility.yul\":1513:1516   */\n      dup2\n        /* \"#utility.yul\":1508:1511   */\n      dup4\n        /* \"#utility.yul\":1502:1525   */\n      mcopy\n        /* \"#utility.yul\":1559:1560   */\n      0x00\n        /* \"#utility.yul\":1550:1556   */\n      dup4\n        /* \"#utility.yul\":1545:1548   */\n      dup4\n        /* \"#utility.yul\":1541:1557   */\n      add\n        /* \"#utility.yul\":1534:1561   */\n      mstore\n        /* \"#utility.yul\":1429:1568   */\n      pop\n      pop\n      pop\n      jump\t// out\n        /* \"#utility.yul\":1574:1676   */\n    tag_94:\n        /* \"#utility.yul\":1615:1621   */\n      0x00\n        /* \"#utility.yul\":1666:1668   */\n      0x1f\n        /* \"#utility.yul\":1662:1669   */\n      not\n        /* \"#utility.yul\":1657:1659   */\n      0x1f\n        /* \"#utility.yul\":1650:1655   */\n      dup4\n        /* \"#utility.yul\":1646:1660   */\n      add\n        /* \"#utility.yul\":1642:1670   */\n      and\n        /* \"#utility.yul\":1632:1670   */\n      swap1\n      pop\n        /* \"#utility.yul\":1574:1676   */\n      swap2\n      swap1\n      pop\n      jump\t// out\n        /* \"#utility.yul\":1682:2059   */\n    tag_95:\n        /* \"#utility.yul\":1770:1773   */\n      0x00\n        /* \"#utility.yul\":1798:1837   */\n      tag_158\n        /* \"#utility.yul\":1831:1836   */\n      dup3\n        /* \"#utility.yul\":1798:1837   */\n      tag_91\n      jump\t// in\n    tag_158:\n        /* \"#utility.yul\":1853:1924   */\n      tag_159\n        /* \"#utility.yul\":1917:1923   */\n      dup2\n        /* \"#utility.yul\":1912:1915   */\n      dup6\n        /* \"#utility.yul\":1853:1924   */\n      tag_92\n      jump\t// in\n    tag_159:\n        /* \"#utility.yul\":1846:1924   */\n      swap4\n      pop\n        /* \"#utility.yul\":1933:1998   */\n      tag_160\n        /* \"#utility.yul\":1991:1997   */\n      dup2\n        /* \"#utility.yul\":1986:1989   */\n      dup6\n        /* \"#utility.yul\":1979:1983   */\n      0x20\n        /* \"#utility.yul\":1972:1977   */\n      dup7\n        /* \"#utility.yul\":1968:1984   */\n      add\n        /* \"#utility.yul\":1933:1998   */\n      tag_93\n      jump\t// in\n    tag_160:\n        /* \"#utility.yul\":2023:2052   */\n      tag_161\n        /* \"#utility.yul\":2045:2051   */\n      dup2\n        /* \"#utility.yul\":2023:2052   */\n      tag_94\n      jump\t// in\n    tag_161:\n        /* \"#utility.yul\":2018:2021   */\n      dup5\n        /* \"#utility.yul\":2014:2053   */\n      add\n        /* \"#utility.yul\":2007:2053   */\n      swap2\n      pop\n        /* \"#utility.yul\":1774:2059   */\n      pop\n        /* \"#utility.yul\":1682:2059   */\n      swap3\n      swap2\n      pop\n      pop\n      jump\t// out\n        /* \"#utility.yul\":2065:2155   */\n    tag_96:\n        /* \"#utility.yul\":2099:2106   */\n      0x00\n        /* \"#utility.yul\":2142:2147   */\n      dup2\n        /* \"#utility.yul\":2135:2148   */\n      iszero\n        /* \"#utility.yul\":2128:2149   */\n      iszero\n        /* \"#utility.yul\":2117:2149   */\n      swap1\n      pop\n        /* \"#utility.yul\":2065:2155   */\n      swap2\n      swap1\n      pop\n      jump\t// out\n        /* \"#utility.yul\":2161:2270   */\n    tag_97:\n        /* \"#utility.yul\":2242:2263   */\n      tag_164\n        /* \"#utility.yul\":2257:2262   */\n      dup2\n        /* \"#utility.yul\":2242:2263   */\n      tag_96\n      jump\t// in\n    tag_164:\n        /* \"#utility.yul\":2237:2240   */\n      dup3\n        /* \"#utility.yul\":2230:2264   */\n      mstore\n        /* \"#utility.yul\":2161:2270   */\n      pop\n      pop\n      jump\t// out\n        /* \"#utility.yul\":2276:3019   */\n    tag_17:\n        /* \"#utility.yul\":2495:2499   */\n      0x00\n        /* \"#utility.yul\":2533:2536   */\n      0xa0\n        /* \"#utility.yul\":2522:2531   */\n      dup3\n        /* \"#utility.yul\":2518:2537   */\n      add\n        /* \"#utility.yul\":2510:2537   */\n      swap1\n      pop\n        /* \"#utility.yul\":2547:2618   */\n      tag_166\n        /* \"#utility.yul\":2615:2616   */\n      0x00\n        /* \"#utility.yul\":2604:2613   */\n      dup4\n        /* \"#utility.yul\":2600:2617   */\n      add\n        /* \"#utility.yul\":2591:2597   */\n      dup9\n        /* \"#utility.yul\":2547:2618   */\n      tag_90\n      jump\t// in\n    tag_166:\n        /* \"#utility.yul\":2665:2674   */\n      dup2\n        /* \"#utility.yul\":2659:2663   */\n      dup2\n        /* \"#utility.yul\":2655:2675   */\n      sub\n        /* \"#utility.yul\":2650:2652   */\n      0x20\n        /* \"#utility.yul\":2639:2648   */\n      dup4\n        /* \"#utility.yul\":2635:2653   */\n      add\n        /* \"#utility.yul\":2628:2676   */\n      mstore\n        /* \"#utility.yul\":2693:2771   */\n      tag_167\n        /* \"#utility.yul\":2766:2770   */\n      dup2\n        /* \"#utility.yul\":2757:2763   */\n      dup8\n        /* \"#utility.yul\":2693:2771   */\n      tag_95\n      jump\t// in\n    tag_167:\n        /* \"#utility.yul\":2685:2771   */\n      swap1\n      pop\n        /* \"#utility.yul\":2781:2853   */\n      tag_168\n        /* \"#utility.yul\":2849:2851   */\n      0x40\n        /* \"#utility.yul\":2838:2847   */\n      dup4\n        /* \"#utility.yul\":2834:2852   */\n      add\n        /* \"#utility.yul\":2825:2831   */\n      dup7\n        /* \"#utility.yul\":2781:2853   */\n      tag_90\n      jump\t// in\n    tag_168:\n        /* \"#utility.yul\":2863:2935   */\n      tag_169\n        /* \"#utility.yul\":2931:2933   */\n      0x60\n        /* \"#utility.yul\":2920:2929   */\n      dup4\n        /* \"#utility.yul\":2916:2934   */\n      add\n        /* \"#utility.yul\":2907:2913   */\n      dup6\n        /* \"#utility.yul\":2863:2935   */\n      tag_90\n      jump\t// in\n    tag_169:\n        /* \"#utility.yul\":2945:3012   */\n      tag_170\n        /* \"#utility.yul\":3007:3010   */\n      0x80\n        /* \"#utility.yul\":2996:3005   */\n      dup4\n        /* \"#utility.yul\":2992:3011   */\n      add\n        /* \"#utility.yul\":2983:2989   */\n      dup5\n        /* \"#utility.yul\":2945:3012   */\n      tag_97\n      jump\t// in\n    tag_170:\n        /* \"#utility.yul\":2276:3019   */\n      swap7\n      swap6\n      pop\n      pop\n      pop\n      pop\n      pop\n      pop\n      jump\t// out\n        /* \"#utility.yul\":3025:3151   */\n    tag_98:\n        /* \"#utility.yul\":3062:3069   */\n      0x00\n        /* \"#utility.yul\":3102:3144   */\n      0xffffffffffffffffffffffffffffffffffffffff\n        /* \"#utility.yul\":3095:3100   */\n      dup3\n        /* \"#utility.yul\":3091:3145   */\n      and\n        /* \"#utility.yul\":3080:3145   */\n      swap1\n      pop\n        /* \"#utility.yul\":3025:3151   */\n      swap2\n      swap1\n      pop\n      jump\t// out\n        /* \"#utility.yul\":3157:3253   */\n    tag_99:\n        /* \"#utility.yul\":3194:3201   */\n      0x00\n        /* \"#utility.yul\":3223:3247   */\n      tag_173\n        /* \"#utility.yul\":3241:3246   */\n      dup3\n        /* \"#utility.yul\":3223:3247   */\n      tag_98\n      jump\t// in\n    tag_173:\n        /* \"#utility.yul\":3212:3247   */\n      swap1\n      pop\n        /* \"#utility.yul\":3157:3253   */\n      swap2\n      swap1\n      pop\n      jump\t// out\n        /* \"#utility.yul\":3259:3381   */\n    tag_100:\n        /* \"#utility.yul\":3332:3356   */\n      tag_175\n        /* \"#utility.yul\":3350:3355   */\n      dup2\n        /* \"#utility.yul\":3332:3356   */\n      tag_99\n      jump\t// in\n    tag_175:\n        /* \"#utility.yul\":3325:3330   */\n      dup2\n        /* \"#utility.yul\":3322:3357   */\n      eq\n        /* \"#utility.yul\":3312:3375   */\n      tag_176\n      jumpi\n        /* \"#utility.yul\":3371:3372   */\n      0x00\n        /* \"#utility.yul\":3368:3369   */\n      0x00\n        /* \"#utility.yul\":3361:3373   */\n      revert\n        /* \"#utility.yul\":3312:3375   */\n    tag_176:\n        /* \"#utility.yul\":3259:3381   */\n      pop\n      jump\t// out\n        /* \"#utility.yul\":3387:3526   */\n    tag_101:\n        /* \"#utility.yul\":3433:3438   */\n      0x00\n        /* \"#utility.yul\":3471:3477   */\n      dup2\n        /* \"#utility.yul\":3458:3478   */\n      calldataload\n        /* \"#utility.yul\":3449:3478   */\n      swap1\n      pop\n        /* \"#utility.yul\":3487:3520   */\n      tag_178\n        /* \"#utility.yul\":3514:3519   */\n      dup2\n        /* \"#utility.yul\":3487:3520   */\n      tag_100\n      jump\t// in\n    tag_178:\n        /* \"#utility.yul\":3387:3526   */\n      swap3\n      swap2\n      pop\n      pop\n      jump\t// out\n        /* \"#utility.yul\":3532:4006   */\n    tag_23:\n        /* \"#utility.yul\":3600:3606   */\n      0x00\n        /* \"#utility.yul\":3608:3614   */\n      0x00\n        /* \"#utility.yul\":3657:3659   */\n      0x40\n        /* \"#utility.yul\":3645:3654   */\n      dup4\n        /* \"#utility.yul\":3636:3643   */\n      dup6\n        /* \"#utility.yul\":3632:3655   */\n      sub\n        /* \"#utility.yul\":3628:3660   */\n      slt\n        /* \"#utility.yul\":3625:3744   */\n      iszero\n      tag_180\n      jumpi\n        /* \"#utility.yul\":3663:3742   */\n      tag_181\n      tag_85\n      jump\t// in\n    tag_181:\n        /* \"#utility.yul\":3625:3744   */\n    tag_180:\n        /* \"#utility.yul\":3783:3784   */\n      0x00\n        /* \"#utility.yul\":3808:3861   */\n      tag_182\n        /* \"#utility.yul\":3853:3860   */\n      dup6\n        /* \"#utility.yul\":3844:3850   */\n      dup3\n        /* \"#utility.yul\":3833:3842   */\n      dup7\n        /* \"#utility.yul\":3829:3851   */\n      add\n        /* \"#utility.yul\":3808:3861   */\n      tag_89\n      jump\t// in\n    tag_182:\n        /* \"#utility.yul\":3798:3861   */\n      swap3\n      pop\n        /* \"#utility.yul\":3754:3871   */\n      pop\n        /* \"#utility.yul\":3910:3912   */\n      0x20\n        /* \"#utility.yul\":3936:3989   */\n      tag_183\n        /* \"#utility.yul\":3981:3988   */\n      dup6\n        /* \"#utility.yul\":3972:3978   */\n      dup3\n        /* \"#utility.yul\":3961:3970   */\n      dup7\n        /* \"#utility.yul\":3957:3979   */\n      add\n        /* \"#utility.yul\":3936:3989   */\n      tag_101\n      jump\t// in\n    tag_183:\n        /* \"#utility.yul\":3926:3989   */\n      swap2\n      pop\n        /* \"#utility.yul\":3881:3999   */\n      pop\n        /* \"#utility.yul\":3532:4006   */\n      swap3\n      pop\n      swap3\n      swap1\n      pop\n      jump\t// out\n        /* \"#utility.yul\":4012:4222   */\n    tag_26:\n        /* \"#utility.yul\":4099:4103   */\n      0x00\n        /* \"#utility.yul\":4137:4139   */\n      0x20\n        /* \"#utility.yul\":4126:4135   */\n      dup3\n        /* \"#utility.yul\":4122:4140   */\n      add\n        /* \"#utility.yul\":4114:4140   */\n      swap1\n      pop\n        /* \"#utility.yul\":4150:4215   */\n      tag_185\n        /* \"#utility.yul\":4212:4213   */\n      0x00\n        /* \"#utility.yul\":4201:4210   */\n      dup4\n        /* \"#utility.yul\":4197:4214   */\n      add\n        /* \"#utility.yul\":4188:4194   */\n      dup5\n        /* \"#utility.yul\":4150:4215   */\n      tag_97\n      jump\t// in\n    tag_185:\n        /* \"#utility.yul\":4012:4222   */\n      swap3\n      swap2\n      pop\n      pop\n      jump\t// out\n        /* \"#utility.yul\":4228:4345   */\n    tag_102:\n        /* \"#utility.yul\":4337:4338   */\n      0x00\n        /* \"#utility.yul\":4334:4335   */\n      0x00\n        /* \"#utility.yul\":4327:4339   */\n      revert\n        /* \"#utility.yul\":4351:4468   */\n    tag_103:\n        /* \"#utility.yul\":4460:4461   */\n      0x00\n        /* \"#utility.yul\":4457:4458   */\n      0x00\n        /* \"#utility.yul\":4450:4462   */\n      revert\n        /* \"#utility.yul\":4474:4654   */\n    tag_104:\n        /* \"#utility.yul\":4522:4599   */\n      0x4e487b7100000000000000000000000000000000000000000000000000000000\n        /* \"#utility.yul\":4519:4520   */\n      0x00\n        /* \"#utility.yul\":4512:4600   */\n      mstore\n        /* \"#utility.yul\":4619:4623   */\n      0x41\n        /* \"#utility.yul\":4616:4617   */\n      0x04\n        /* \"#utility.yul\":4609:4624   */\n      mstore\n        /* \"#utility.yul\":4643:4647   */\n      0x24\n        /* \"#utility.yul\":4640:4641   */\n      0x00\n        /* \"#utility.yul\":4633:4648   */\n      revert\n        /* \"#utility.yul\":4660:4941   */\n    tag_105:\n        /* \"#utility.yul\":4743:4770   */\n      tag_190\n        /* \"#utility.yul\":4765:4769   */\n      dup3\n        /* \"#utility.yul\":4743:4770   */\n      tag_94\n      jump\t// in\n    tag_190:\n        /* \"#utility.yul\":4735:4741   */\n      dup2\n        /* \"#utility.yul\":4731:4771   */\n      add\n        /* \"#utility.yul\":4873:4879   */\n      dup2\n        /* \"#utility.yul\":4861:4871   */\n      dup2\n        /* \"#utility.yul\":4858:4880   */\n      lt\n        /* \"#utility.yul\":4837:4855   */\n      0xffffffffffffffff\n        /* \"#utility.yul\":4825:4835   */\n      dup3\n        /* \"#utility.yul\":4822:4856   */\n      gt\n        /* \"#utility.yul\":4819:4881   */\n      or\n        /* \"#utility.yul\":4816:4904   */\n      iszero\n      tag_191\n      jumpi\n        /* \"#utility.yul\":4884:4902   */\n      tag_192\n      tag_104\n      jump\t// in\n    tag_192:\n        /* \"#utility.yul\":4816:4904   */\n    tag_191:\n        /* \"#utility.yul\":4924:4934   */\n      dup1\n        /* \"#utility.yul\":4920:4922   */\n      0x40\n        /* \"#utility.yul\":4913:4935   */\n      mstore\n        /* \"#utility.yul\":4703:4941   */\n      pop\n        /* \"#utility.yul\":4660:4941   */\n      pop\n      pop\n      jump\t// out\n        /* \"#utility.yul\":4947:5076   */\n    tag_106:\n        /* \"#utility.yul\":4981:4987   */\n      0x00\n        /* \"#utility.yul\":5008:5028   */\n      tag_194\n      tag_84\n      jump\t// in\n    tag_194:\n        /* \"#utility.yul\":4998:5028   */\n      swap1\n      pop\n        /* \"#utility.yul\":5037:5070   */\n      tag_195\n        /* \"#utility.yul\":5065:5069   */\n      dup3\n        /* \"#utility.yul\":5057:5063   */\n      dup3\n        /* \"#utility.yul\":5037:5070   */\n      tag_105\n      jump\t// in\n    tag_195:\n        /* \"#utility.yul\":4947:5076   */\n      swap2\n      swap1\n      pop\n      jump\t// out\n        /* \"#utility.yul\":5082:5390   */\n    tag_107:\n        /* \"#utility.yul\":5144:5148   */\n      0x00\n        /* \"#utility.yul\":5234:5252   */\n      0xffffffffffffffff\n        /* \"#utility.yul\":5226:5232   */\n      dup3\n        /* \"#utility.yul\":5223:5253   */\n      gt\n        /* \"#utility.yul\":5220:5276   */\n      iszero\n      tag_197\n      jumpi\n        /* \"#utility.yul\":5256:5274   */\n      tag_198\n      tag_104\n      jump\t// in\n    tag_198:\n        /* \"#utility.yul\":5220:5276   */\n    tag_197:\n        /* \"#utility.yul\":5294:5323   */\n      tag_199\n        /* \"#utility.yul\":5316:5322   */\n      dup3\n        /* \"#utility.yul\":5294:5323   */\n      tag_94\n      jump\t// in\n    tag_199:\n        /* \"#utility.yul\":5286:5323   */\n      swap1\n      pop\n        /* \"#utility.yul\":5378:5382   */\n      0x20\n        /* \"#utility.yul\":5372:5376   */\n      dup2\n        /* \"#utility.yul\":5368:5383   */\n      add\n        /* \"#utility.yul\":5360:5383   */\n      swap1\n      pop\n        /* \"#utility.yul\":5082:5390   */\n      swap2\n      swap1\n      pop\n      jump\t// out\n        /* \"#utility.yul\":5396:5544   */\n    tag_108:\n        /* \"#utility.yul\":5494:5500   */\n      dup3\n        /* \"#utility.yul\":5489:5492   */\n      dup2\n        /* \"#utility.yul\":5484:5487   */\n      dup4\n        /* \"#utility.yul\":5471:5501   */\n      calldatacopy\n        /* \"#utility.yul\":5535:5536   */\n      0x00\n        /* \"#utility.yul\":5526:5532   */\n      dup4\n        /* \"#utility.yul\":5521:5524   */\n      dup4\n        /* \"#utility.yul\":5517:5533   */\n      add\n        /* \"#utility.yul\":5510:5537   */\n      mstore\n        /* \"#utility.yul\":5396:5544   */\n      pop\n      pop\n      pop\n      jump\t// out\n        /* \"#utility.yul\":5550:5975   */\n    tag_109:\n        /* \"#utility.yul\":5628:5633   */\n      0x00\n        /* \"#utility.yul\":5653:5719   */\n      tag_202\n        /* \"#utility.yul\":5669:5718   */\n      tag_203\n        /* \"#utility.yul\":5711:5717   */\n      dup5\n        /* \"#utility.yul\":5669:5718   */\n      tag_107\n      jump\t// in\n    tag_203:\n        /* \"#utility.yul\":5653:5719   */\n      tag_106\n      jump\t// in\n    tag_202:\n        /* \"#utility.yul\":5644:5719   */\n      swap1\n      pop\n        /* \"#utility.yul\":5742:5748   */\n      dup3\n        /* \"#utility.yul\":5735:5740   */\n      dup2\n        /* \"#utility.yul\":5728:5749   */\n      mstore\n        /* \"#utility.yul\":5780:5784   */\n      0x20\n        /* \"#utility.yul\":5773:5778   */\n      dup2\n        /* \"#utility.yul\":5769:5785   */\n      add\n        /* \"#utility.yul\":5818:5821   */\n      dup5\n        /* \"#utility.yul\":5809:5815   */\n      dup5\n        /* \"#utility.yul\":5804:5807   */\n      dup5\n        /* \"#utility.yul\":5800:5816   */\n      add\n        /* \"#utility.yul\":5797:5822   */\n      gt\n        /* \"#utility.yul\":5794:5906   */\n      iszero\n      tag_204\n      jumpi\n        /* \"#utility.yul\":5825:5904   */\n      tag_205\n      tag_103\n      jump\t// in\n    tag_205:\n        /* \"#utility.yul\":5794:5906   */\n    tag_204:\n        /* \"#utility.yul\":5915:5969   */\n      tag_206\n        /* \"#utility.yul\":5962:5968   */\n      dup5\n        /* \"#utility.yul\":5957:5960   */\n      dup3\n        /* \"#utility.yul\":5952:5955   */\n      dup6\n        /* \"#utility.yul\":5915:5969   */\n      tag_108\n      jump\t// in\n    tag_206:\n        /* \"#utility.yul\":5634:5975   */\n      pop\n        /* \"#utility.yul\":5550:5975   */\n      swap4\n      swap3\n      pop\n      pop\n      pop\n      jump\t// out\n        /* \"#utility.yul\":5995:6335   */\n    tag_110:\n        /* \"#utility.yul\":6051:6056   */\n      0x00\n        /* \"#utility.yul\":6100:6103   */\n      dup3\n        /* \"#utility.yul\":6093:6097   */\n      0x1f\n        /* \"#utility.yul\":6085:6091   */\n      dup4\n        /* \"#utility.yul\":6081:6098   */\n      add\n        /* \"#utility.yul\":6077:6104   */\n      slt\n        /* \"#utility.yul\":6067:6189   */\n      tag_208\n      jumpi\n        /* \"#utility.yul\":6108:6187   */\n      tag_209\n      tag_102\n      jump\t// in\n    tag_209:\n        /* \"#utility.yul\":6067:6189   */\n    tag_208:\n        /* \"#utility.yul\":6225:6231   */\n      dup2\n        /* \"#utility.yul\":6212:6232   */\n      calldataload\n        /* \"#utility.yul\":6250:6329   */\n      tag_210\n        /* \"#utility.yul\":6325:6328   */\n      dup5\n        /* \"#utility.yul\":6317:6323   */\n      dup3\n        /* \"#utility.yul\":6310:6314   */\n      0x20\n        /* \"#utility.yul\":6302:6308   */\n      dup7\n        /* \"#utility.yul\":6298:6315   */\n      add\n        /* \"#utility.yul\":6250:6329   */\n      tag_109\n      jump\t// in\n    tag_210:\n        /* \"#utility.yul\":6241:6329   */\n      swap2\n      pop\n        /* \"#utility.yul\":6057:6335   */\n      pop\n        /* \"#utility.yul\":5995:6335   */\n      swap3\n      swap2\n      pop\n      pop\n      jump\t// out\n        /* \"#utility.yul\":6341:6850   */\n    tag_29:\n        /* \"#utility.yul\":6410:6416   */\n      0x00\n        /* \"#utility.yul\":6459:6461   */\n      0x20\n        /* \"#utility.yul\":6447:6456   */\n      dup3\n        /* \"#utility.yul\":6438:6445   */\n      dup5\n        /* \"#utility.yul\":6434:6457   */\n      sub\n        /* \"#utility.yul\":6430:6462   */\n      slt\n        /* \"#utility.yul\":6427:6546   */\n      iszero\n      tag_212\n      jumpi\n        /* \"#utility.yul\":6465:6544   */\n      tag_213\n      tag_85\n      jump\t// in\n    tag_213:\n        /* \"#utility.yul\":6427:6546   */\n    tag_212:\n        /* \"#utility.yul\":6613:6614   */\n      0x00\n        /* \"#utility.yul\":6602:6611   */\n      dup3\n        /* \"#utility.yul\":6598:6615   */\n      add\n        /* \"#utility.yul\":6585:6616   */\n      calldataload\n        /* \"#utility.yul\":6643:6661   */\n      0xffffffffffffffff\n        /* \"#utility.yul\":6635:6641   */\n      dup2\n        /* \"#utility.yul\":6632:6662   */\n      gt\n        /* \"#utility.yul\":6629:6746   */\n      iszero\n      tag_214\n      jumpi\n        /* \"#utility.yul\":6665:6744   */\n      tag_215\n      tag_86\n      jump\t// in\n    tag_215:\n        /* \"#utility.yul\":6629:6746   */\n    tag_214:\n        /* \"#utility.yul\":6770:6833   */\n      tag_216\n        /* \"#utility.yul\":6825:6832   */\n      dup5\n        /* \"#utility.yul\":6816:6822   */\n      dup3\n        /* \"#utility.yul\":6805:6814   */\n      dup6\n        /* \"#utility.yul\":6801:6823   */\n      add\n        /* \"#utility.yul\":6770:6833   */\n      tag_110\n      jump\t// in\n    tag_216:\n        /* \"#utility.yul\":6760:6833   */\n      swap2\n      pop\n        /* \"#utility.yul\":6556:6843   */\n      pop\n        /* \"#utility.yul\":6341:6850   */\n      swap3\n      swap2\n      pop\n      pop\n      jump\t// out\n        /* \"#utility.yul\":6856:6974   */\n    tag_111:\n        /* \"#utility.yul\":6943:6967   */\n      tag_218\n        /* \"#utility.yul\":6961:6966   */\n      dup2\n        /* \"#utility.yul\":6943:6967   */\n      tag_99\n      jump\t// in\n    tag_218:\n        /* \"#utility.yul\":6938:6941   */\n      dup3\n        /* \"#utility.yul\":6931:6968   */\n      mstore\n        /* \"#utility.yul\":6856:6974   */\n      pop\n      pop\n      jump\t// out\n        /* \"#utility.yul\":6980:7202   */\n    tag_34:\n        /* \"#utility.yul\":7073:7077   */\n      0x00\n        /* \"#utility.yul\":7111:7113   */\n      0x20\n        /* \"#utility.yul\":7100:7109   */\n      dup3\n        /* \"#utility.yul\":7096:7114   */\n      add\n        /* \"#utility.yul\":7088:7114   */\n      swap1\n      pop\n        /* \"#utility.yul\":7124:7195   */\n      tag_220\n        /* \"#utility.yul\":7192:7193   */\n      0x00\n        /* \"#utility.yul\":7181:7190   */\n      dup4\n        /* \"#utility.yul\":7177:7194   */\n      add\n        /* \"#utility.yul\":7168:7174   */\n      dup5\n        /* \"#utility.yul\":7124:7195   */\n      tag_111\n      jump\t// in\n    tag_220:\n        /* \"#utility.yul\":6980:7202   */\n      swap3\n      swap2\n      pop\n      pop\n      jump\t// out\n        /* \"#utility.yul\":7208:7840   */\n    tag_39:\n        /* \"#utility.yul\":7399:7403   */\n      0x00\n        /* \"#utility.yul\":7437:7440   */\n      0x80\n        /* \"#utility.yul\":7426:7435   */\n      dup3\n        /* \"#utility.yul\":7422:7441   */\n      add\n        /* \"#utility.yul\":7414:7441   */\n      swap1\n      pop\n        /* \"#utility.yul\":7487:7496   */\n      dup2\n        /* \"#utility.yul\":7481:7485   */\n      dup2\n        /* \"#utility.yul\":7477:7497   */\n      sub\n        /* \"#utility.yul\":7473:7474   */\n      0x00\n        /* \"#utility.yul\":7462:7471   */\n      dup4\n        /* \"#utility.yul\":7458:7475   */\n      add\n        /* \"#utility.yul\":7451:7498   */\n      mstore\n        /* \"#utility.yul\":7515:7593   */\n      tag_222\n        /* \"#utility.yul\":7588:7592   */\n      dup2\n        /* \"#utility.yul\":7579:7585   */\n      dup8\n        /* \"#utility.yul\":7515:7593   */\n      tag_95\n      jump\t// in\n    tag_222:\n        /* \"#utility.yul\":7507:7593   */\n      swap1\n      pop\n        /* \"#utility.yul\":7603:7675   */\n      tag_223\n        /* \"#utility.yul\":7671:7673   */\n      0x20\n        /* \"#utility.yul\":7660:7669   */\n      dup4\n        /* \"#utility.yul\":7656:7674   */\n      add\n        /* \"#utility.yul\":7647:7653   */\n      dup7\n        /* \"#utility.yul\":7603:7675   */\n      tag_90\n      jump\t// in\n    tag_223:\n        /* \"#utility.yul\":7685:7757   */\n      tag_224\n        /* \"#utility.yul\":7753:7755   */\n      0x40\n        /* \"#utility.yul\":7742:7751   */\n      dup4\n        /* \"#utility.yul\":7738:7756   */\n      add\n        /* \"#utility.yul\":7729:7735   */\n      dup6\n        /* \"#utility.yul\":7685:7757   */\n      tag_90\n      jump\t// in\n    tag_224:\n        /* \"#utility.yul\":7767:7833   */\n      tag_225\n        /* \"#utility.yul\":7829:7831   */\n      0x60\n        /* \"#utility.yul\":7818:7827   */\n      dup4\n        /* \"#utility.yul\":7814:7832   */\n      add\n        /* \"#utility.yul\":7805:7811   */\n      dup5\n        /* \"#utility.yul\":7767:7833   */\n      tag_97\n      jump\t// in\n    tag_225:\n        /* \"#utility.yul\":7208:7840   */\n      swap6\n      swap5\n      pop\n      pop\n      pop\n      pop\n      pop\n      jump\t// out\n        /* \"#utility.yul\":7846:7962   */\n    tag_112:\n        /* \"#utility.yul\":7916:7937   */\n      tag_227\n        /* \"#utility.yul\":7931:7936   */\n      dup2\n        /* \"#utility.yul\":7916:7937   */\n      tag_96\n      jump\t// in\n    tag_227:\n        /* \"#utility.yul\":7909:7914   */\n      dup2\n        /* \"#utility.yul\":7906:7938   */\n      eq\n        /* \"#utility.yul\":7896:7956   */\n      tag_228\n      jumpi\n        /* \"#utility.yul\":7952:7953   */\n      0x00\n        /* \"#utility.yul\":7949:7950   */\n      0x00\n        /* \"#utility.yul\":7942:7954   */\n      revert\n        /* \"#utility.yul\":7896:7956   */\n    tag_228:\n        /* \"#utility.yul\":7846:7962   */\n      pop\n      jump\t// out\n        /* \"#utility.yul\":7968:8101   */\n    tag_113:\n        /* \"#utility.yul\":8011:8016   */\n      0x00\n        /* \"#utility.yul\":8049:8055   */\n      dup2\n        /* \"#utility.yul\":8036:8056   */\n      calldataload\n        /* \"#utility.yul\":8027:8056   */\n      swap1\n      pop\n        /* \"#utility.yul\":8065:8095   */\n      tag_230\n        /* \"#utility.yul\":8089:8094   */\n      dup2\n        /* \"#utility.yul\":8065:8095   */\n      tag_112\n      jump\t// in\n    tag_230:\n        /* \"#utility.yul\":7968:8101   */\n      swap3\n      swap2\n      pop\n      pop\n      jump\t// out\n        /* \"#utility.yul\":8107:8575   */\n    tag_42:\n        /* \"#utility.yul\":8172:8178   */\n      0x00\n        /* \"#utility.yul\":8180:8186   */\n      0x00\n        /* \"#utility.yul\":8229:8231   */\n      0x40\n        /* \"#utility.yul\":8217:8226   */\n      dup4\n        /* \"#utility.yul\":8208:8215   */\n      dup6\n        /* \"#utility.yul\":8204:8227   */\n      sub\n        /* \"#utility.yul\":8200:8232   */\n      slt\n        /* \"#utility.yul\":8197:8316   */\n      iszero\n      tag_232\n      jumpi\n        /* \"#utility.yul\":8235:8314   */\n      tag_233\n      tag_85\n      jump\t// in\n    tag_233:\n        /* \"#utility.yul\":8197:8316   */\n    tag_232:\n        /* \"#utility.yul\":8355:8356   */\n      0x00\n        /* \"#utility.yul\":8380:8433   */\n      tag_234\n        /* \"#utility.yul\":8425:8432   */\n      dup6\n        /* \"#utility.yul\":8416:8422   */\n      dup3\n        /* \"#utility.yul\":8405:8414   */\n      dup7\n        /* \"#utility.yul\":8401:8423   */\n      add\n        /* \"#utility.yul\":8380:8433   */\n      tag_89\n      jump\t// in\n    tag_234:\n        /* \"#utility.yul\":8370:8433   */\n      swap3\n      pop\n        /* \"#utility.yul\":8326:8443   */\n      pop\n        /* \"#utility.yul\":8482:8484   */\n      0x20\n        /* \"#utility.yul\":8508:8558   */\n      tag_235\n        /* \"#utility.yul\":8550:8557   */\n      dup6\n        /* \"#utility.yul\":8541:8547   */\n      dup3\n        /* \"#utility.yul\":8530:8539   */\n      dup7\n        /* \"#utility.yul\":8526:8548   */\n      add\n        /* \"#utility.yul\":8508:8558   */\n      tag_113\n      jump\t// in\n    tag_235:\n        /* \"#utility.yul\":8498:8558   */\n      swap2\n      pop\n        /* \"#utility.yul\":8453:8568   */\n      pop\n        /* \"#utility.yul\":8107:8575   */\n      swap3\n      pop\n      swap3\n      swap1\n      pop\n      jump\t// out\n        /* \"#utility.yul\":8581:8803   */\n    tag_47:\n        /* \"#utility.yul\":8674:8678   */\n      0x00\n        /* \"#utility.yul\":8712:8714   */\n      0x20\n        /* \"#utility.yul\":8701:8710   */\n      dup3\n        /* \"#utility.yul\":8697:8715   */\n      add\n        /* \"#utility.yul\":8689:8715   */\n      swap1\n      pop\n        /* \"#utility.yul\":8725:8796   */\n      tag_237\n        /* \"#utility.yul\":8793:8794   */\n      0x00\n        /* \"#utility.yul\":8782:8791   */\n      dup4\n        /* \"#utility.yul\":8778:8795   */\n      add\n        /* \"#utility.yul\":8769:8775   */\n      dup5\n        /* \"#utility.yul\":8725:8796   */\n      tag_90\n      jump\t// in\n    tag_237:\n        /* \"#utility.yul\":8581:8803   */\n      swap3\n      swap2\n      pop\n      pop\n      jump\t// out\n        /* \"#utility.yul\":8809:8989   */\n    tag_114:\n        /* \"#utility.yul\":8857:8934   */\n      0x4e487b7100000000000000000000000000000000000000000000000000000000\n        /* \"#utility.yul\":8854:8855   */\n      0x00\n        /* \"#utility.yul\":8847:8935   */\n      mstore\n        /* \"#utility.yul\":8954:8958   */\n      0x22\n        /* \"#utility.yul\":8951:8952   */\n      0x04\n        /* \"#utility.yul\":8944:8959   */\n      mstore\n        /* \"#utility.yul\":8978:8982   */\n      0x24\n        /* \"#utility.yul\":8975:8976   */\n      0x00\n        /* \"#utility.yul\":8968:8983   */\n      revert\n        /* \"#utility.yul\":8995:9315   */\n    tag_49:\n        /* \"#utility.yul\":9039:9045   */\n      0x00\n        /* \"#utility.yul\":9076:9077   */\n      0x02\n        /* \"#utility.yul\":9070:9074   */\n      dup3\n        /* \"#utility.yul\":9066:9078   */\n      div\n        /* \"#utility.yul\":9056:9078   */\n      swap1\n      pop\n        /* \"#utility.yul\":9123:9124   */\n      0x01\n        /* \"#utility.yul\":9117:9121   */\n      dup3\n        /* \"#utility.yul\":9113:9125   */\n      and\n        /* \"#utility.yul\":9144:9162   */\n      dup1\n        /* \"#utility.yul\":9134:9215   */\n      tag_240\n      jumpi\n        /* \"#utility.yul\":9200:9204   */\n      0x7f\n        /* \"#utility.yul\":9192:9198   */\n      dup3\n        /* \"#utility.yul\":9188:9205   */\n      and\n        /* \"#utility.yul\":9178:9205   */\n      swap2\n      pop\n        /* \"#utility.yul\":9134:9215   */\n    tag_240:\n        /* \"#utility.yul\":9262:9264   */\n      0x20\n        /* \"#utility.yul\":9254:9260   */\n      dup3\n        /* \"#utility.yul\":9251:9265   */\n      lt\n        /* \"#utility.yul\":9231:9249   */\n      dup2\n        /* \"#utility.yul\":9228:9266   */\n      sub\n        /* \"#utility.yul\":9225:9309   */\n      tag_241\n      jumpi\n        /* \"#utility.yul\":9281:9299   */\n      tag_242\n      tag_114\n      jump\t// in\n    tag_242:\n        /* \"#utility.yul\":9225:9309   */\n    tag_241:\n        /* \"#utility.yul\":9046:9315   */\n      pop\n        /* \"#utility.yul\":8995:9315   */\n      swap2\n      swap1\n      pop\n      jump\t// out\n        /* \"#utility.yul\":9321:9545   */\n    tag_115:\n        /* \"#utility.yul\":9461:9495   */\n      0x4f6e6c7920746865206f776e65722063616e2063616c6c20746869732066756e\n        /* \"#utility.yul\":9457:9458   */\n      0x00\n        /* \"#utility.yul\":9449:9455   */\n      dup3\n        /* \"#utility.yul\":9445:9459   */\n      add\n        /* \"#utility.yul\":9438:9496   */\n      mstore\n        /* \"#utility.yul\":9530:9537   */\n      0x6374696f6e000000000000000000000000000000000000000000000000000000\n        /* \"#utility.yul\":9525:9527   */\n      0x20\n        /* \"#utility.yul\":9517:9523   */\n      dup3\n        /* \"#utility.yul\":9513:9528   */\n      add\n        /* \"#utility.yul\":9506:9538   */\n      mstore\n        /* \"#utility.yul\":9321:9545   */\n      pop\n      jump\t// out\n        /* \"#utility.yul\":9551:9917   */\n    tag_116:\n        /* \"#utility.yul\":9693:9696   */\n      0x00\n        /* \"#utility.yul\":9714:9781   */\n      tag_245\n        /* \"#utility.yul\":9778:9780   */\n      0x25\n        /* \"#utility.yul\":9773:9776   */\n      dup4\n        /* \"#utility.yul\":9714:9781   */\n      tag_92\n      jump\t// in\n    tag_245:\n        /* \"#utility.yul\":9707:9781   */\n      swap2\n      pop\n        /* \"#utility.yul\":9790:9883   */\n      tag_246\n        /* \"#utility.yul\":9879:9882   */\n      dup3\n        /* \"#utility.yul\":9790:9883   */\n      tag_115\n      jump\t// in\n    tag_246:\n        /* \"#utility.yul\":9908:9910   */\n      0x40\n        /* \"#utility.yul\":9903:9906   */\n      dup3\n        /* \"#utility.yul\":9899:9911   */\n      add\n        /* \"#utility.yul\":9892:9911   */\n      swap1\n      pop\n        /* \"#utility.yul\":9551:9917   */\n      swap2\n      swap1\n      pop\n      jump\t// out\n        /* \"#utility.yul\":9923:10342   */\n    tag_57:\n        /* \"#utility.yul\":10089:10093   */\n      0x00\n        /* \"#utility.yul\":10127:10129   */\n      0x20\n        /* \"#utility.yul\":10116:10125   */\n      dup3\n        /* \"#utility.yul\":10112:10130   */\n      add\n        /* \"#utility.yul\":10104:10130   */\n      swap1\n      pop\n        /* \"#utility.yul\":10176:10185   */\n      dup2\n        /* \"#utility.yul\":10170:10174   */\n      dup2\n        /* \"#utility.yul\":10166:10186   */\n      sub\n        /* \"#utility.yul\":10162:10163   */\n      0x00\n        /* \"#utility.yul\":10151:10160   */\n      dup4\n        /* \"#utility.yul\":10147:10164   */\n      add\n        /* \"#utility.yul\":10140:10187   */\n      mstore\n        /* \"#utility.yul\":10204:10335   */\n      tag_248\n        /* \"#utility.yul\":10330:10334   */\n      dup2\n        /* \"#utility.yul\":10204:10335   */\n      tag_116\n      jump\t// in\n    tag_248:\n        /* \"#utility.yul\":10196:10335   */\n      swap1\n      pop\n        /* \"#utility.yul\":9923:10342   */\n      swap2\n      swap1\n      pop\n      jump\t// out\n        /* \"#utility.yul\":10348:10528   */\n    tag_117:\n        /* \"#utility.yul\":10396:10473   */\n      0x4e487b7100000000000000000000000000000000000000000000000000000000\n        /* \"#utility.yul\":10393:10394   */\n      0x00\n        /* \"#utility.yul\":10386:10474   */\n      mstore\n        /* \"#utility.yul\":10493:10497   */\n      0x11\n        /* \"#utility.yul\":10490:10491   */\n      0x04\n        /* \"#utility.yul\":10483:10498   */\n      mstore\n        /* \"#utility.yul\":10517:10521   */\n      0x24\n        /* \"#utility.yul\":10514:10515   */\n      0x00\n        /* \"#utility.yul\":10507:10522   */\n      revert\n        /* \"#utility.yul\":10534:10767   */\n    tag_64:\n        /* \"#utility.yul\":10573:10576   */\n      0x00\n        /* \"#utility.yul\":10596:10620   */\n      tag_251\n        /* \"#utility.yul\":10614:10619   */\n      dup3\n        /* \"#utility.yul\":10596:10620   */\n      tag_87\n      jump\t// in\n    tag_251:\n        /* \"#utility.yul\":10587:10620   */\n      swap2\n      pop\n        /* \"#utility.yul\":10642:10708   */\n      0xffffffffffffffffffffffffffffffffffffffffffffffffffffffffffffffff\n        /* \"#utility.yul\":10635:10640   */\n      dup3\n        /* \"#utility.yul\":10632:10709   */\n      sub\n        /* \"#utility.yul\":10629:10732   */\n      tag_252\n      jumpi\n        /* \"#utility.yul\":10712:10730   */\n      tag_253\n      tag_117\n      jump\t// in\n    tag_253:\n        /* \"#utility.yul\":10629:10732   */\n    tag_252:\n        /* \"#utility.yul\":10759:10760   */\n      0x01\n        /* \"#utility.yul\":10752:10757   */\n      dup3\n        /* \"#utility.yul\":10748:10761   */\n      add\n        /* \"#utility.yul\":10741:10761   */\n      swap1\n      pop\n        /* \"#utility.yul\":10534:10767   */\n      swap2\n      swap1\n      pop\n      jump\t// out\n        /* \"#utility.yul\":10773:10914   */\n    tag_118:\n        /* \"#utility.yul\":10822:10826   */\n      0x00\n        /* \"#utility.yul\":10845:10848   */\n      dup2\n        /* \"#utility.yul\":10837:10848   */\n      swap1\n      pop\n        /* \"#utility.yul\":10868:10871   */\n      dup2\n        /* \"#utility.yul\":10865:10866   */\n      0x00\n        /* \"#utility.yul\":10858:10872   */\n      mstore\n        /* \"#utility.yul\":10902:10906   */\n      0x20\n        /* \"#utility.yul\":10899:10900   */\n      0x00\n        /* \"#utility.yul\":10889:10907   */\n      keccak256\n        /* \"#utility.yul\":10881:10907   */\n      swap1\n      pop\n        /* \"#utility.yul\":10773:10914   */\n      swap2\n      swap1\n      pop\n      jump\t// out\n        /* \"#utility.yul\":10920:11013   */\n    tag_119:\n        /* \"#utility.yul\":10957:10963   */\n      0x00\n        /* \"#utility.yul\":11004:11006   */\n      0x20\n        /* \"#utility.yul\":10999:11001   */\n      0x1f\n        /* \"#utility.yul\":10992:10997   */\n      dup4\n        /* \"#utility.yul\":10988:11002   */\n      add\n        /* \"#utility.yul\":10984:11007   */\n      div\n        /* \"#utility.yul\":10974:11007   */\n      swap1\n      pop\n        /* \"#utility.yul\":10920:11013   */\n      swap2\n      swap1\n      pop\n      jump\t// out\n        /* \"#utility.yul\":11019:11126   */\n    tag_120:\n        /* \"#utility.yul\":11063:11071   */\n      0x00\n        /* \"#utility.yul\":11113:11118   */\n      dup3\n        /* \"#utility.yul\":11107:11111   */\n      dup3\n        /* \"#utility.yul\":11103:11119   */\n      shl\n        /* \"#utility.yul\":11082:11119   */\n      swap1\n      pop\n        /* \"#utility.yul\":11019:11126   */\n      swap3\n      swap2\n      pop\n      pop\n      jump\t// out\n        /* \"#utility.yul\":11132:11525   */\n    tag_121:\n        /* \"#utility.yul\":11201:11207   */\n      0x00\n        /* \"#utility.yul\":11251:11252   */\n      0x08\n        /* \"#utility.yul\":11239:11249   */\n      dup4\n        /* \"#utility.yul\":11235:11253   */\n      mul\n        /* \"#utility.yul\":11274:11371   */\n      tag_258\n        /* \"#utility.yul\":11304:11370   */\n      0xffffffffffffffffffffffffffffffffffffffffffffffffffffffffffffffff\n        /* \"#utility.yul\":11293:11302   */\n      dup3\n        /* \"#utility.yul\":11274:11371   */\n      tag_120\n      jump\t// in\n    tag_258:\n        /* \"#utility.yul\":11392:11431   */\n      tag_259\n        /* \"#utility.yul\":11422:11430   */\n      dup7\n        /* \"#utility.yul\":11411:11420   */\n      dup4\n        /* \"#utility.yul\":11392:11431   */\n      tag_120\n      jump\t// in\n    tag_259:\n        /* \"#utility.yul\":11380:11431   */\n      swap6\n      pop\n        /* \"#utility.yul\":11464:11468   */\n      dup1\n        /* \"#utility.yul\":11460:11469   */\n      not\n        /* \"#utility.yul\":11453:11458   */\n      dup5\n        /* \"#utility.yul\":11449:11470   */\n      and\n        /* \"#utility.yul\":11440:11470   */\n      swap4\n      pop\n        /* \"#utility.yul\":11513:11517   */\n      dup1\n        /* \"#utility.yul\":11503:11511   */\n      dup7\n        /* \"#utility.yul\":11499:11518   */\n      and\n        /* \"#utility.yul\":11492:11497   */\n      dup5\n        /* \"#utility.yul\":11489:11519   */\n      or\n        /* \"#utility.yul\":11479:11519   */\n      swap3\n      pop\n        /* \"#utility.yul\":11208:11525   */\n      pop\n      pop\n        /* \"#utility.yul\":11132:11525   */\n      swap4\n      swap3\n      pop\n      pop\n      pop\n      jump\t// out\n        /* \"#utility.yul\":11531:11591   */\n    tag_122:\n        /* \"#utility.yul\":11559:11562   */\n      0x00\n        /* \"#utility.yul\":11580:11585   */\n      dup2\n        /* \"#utility.yul\":11573:11585   */\n      swap1\n      pop\n        /* \"#utility.yul\":11531:11591   */\n      swap2\n      swap1\n      pop\n      jump\t// out\n        /* \"#utility.yul\":11597:11739   */\n    tag_123:\n        /* \"#utility.yul\":11647:11656   */\n      0x00\n        /* \"#utility.yul\":11680:11733   */\n      tag_262\n        /* \"#utility.yul\":11698:11732   */\n      tag_263\n        /* \"#utility.yul\":11707:11731   */\n      tag_264\n        /* \"#utility.yul\":11725:11730   */\n      dup5\n        /* \"#utility.yul\":11707:11731   */\n      tag_87\n      jump\t// in\n    tag_264:\n        /* \"#utility.yul\":11698:11732   */\n      tag_122\n      jump\t// in\n    tag_263:\n        /* \"#utility.yul\":11680:11733   */\n      tag_87\n      jump\t// in\n    tag_262:\n        /* \"#utility.yul\":11667:11733   */\n      swap1\n      pop\n        /* \"#utility.yul\":11597:11739   */\n      swap2\n      swap1\n      pop\n      jump\t// out\n        /* \"#utility.yul\":11745:11820   */\n    tag_124:\n        /* \"#utility.yul\":11788:11791   */\n      0x00\n        /* \"#utility.yul\":11809:11814   */\n      dup2\n        /* \"#utility.yul\":11802:11814   */\n      swap1\n      pop\n        /* \"#utility.yul\":11745:11820   */\n      swap2\n      swap1\n      pop\n      jump\t// out\n        /* \"#utility.yul\":11826:12095   */\n    tag_125:\n        /* \"#utility.yul\":11936:11975   */\n      tag_267\n        /* \"#utility.yul\":11967:11974   */\n      dup4\n        /* \"#utility.yul\":11936:11975   */\n      tag_123\n      jump\t// in\n    tag_267:\n        /* \"#utility.yul\":11997:12088   */\n      tag_268\n        /* \"#utility.yul\":12046:12087   */\n      tag_269\n        /* \"#utility.yul\":12070:12086   */\n      dup3\n        /* \"#utility.yul\":12046:12087   */\n      tag_124\n      jump\t// in\n    tag_269:\n        /* \"#utility.yul\":12038:12044   */\n      dup5\n        /* \"#utility.yul\":12031:12035   */\n      dup5\n        /* \"#utility.yul\":12025:12036   */\n      sload\n        /* \"#utility.yul\":11997:12088   */\n      tag_121\n      jump\t// in\n    tag_268:\n        /* \"#utility.yul\":11991:11995   */\n      dup3\n        /* \"#utility.yul\":11984:12089   */\n      sstore\n        /* \"#utility.yul\":11902:12095   */\n      pop\n        /* \"#utility.yul\":11826:12095   */\n      pop\n      pop\n      pop\n      jump\t// out\n        /* \"#utility.yul\":12101:12174   */\n    tag_126:\n        /* \"#utility.yul\":12146:12149   */\n      0x00\n        /* \"#utility.yul\":12167:12168   */\n      0x00\n        /* \"#utility.yul\":12160:12168   */\n      swap1\n      pop\n        /* \"#utility.yul\":12101:12174   */\n      swap1\n      jump\t// out\n        /* \"#utility.yul\":12180:12369   */\n    tag_127:\n        /* \"#utility.yul\":12257:12289   */\n      tag_272\n      tag_126\n      jump\t// in\n    tag_272:\n        /* \"#utility.yul\":12298:12363   */\n      tag_273\n        /* \"#utility.yul\":12356:12362   */\n      dup2\n        /* \"#utility.yul\":12348:12354   */\n      dup5\n        /* \"#utility.yul\":12342:12346   */\n      dup5\n        /* \"#utility.yul\":12298:12363   */\n      tag_125\n      jump\t// in\n    tag_273:\n        /* \"#utility.yul\":12233:12369   */\n      pop\n        /* \"#utility.yul\":12180:12369   */\n      pop\n      pop\n      jump\t// out\n        /* \"#utility.yul\":12375:12561   */\n    tag_128:\n        /* \"#utility.yul\":12435:12555   */\n    tag_275:\n        /* \"#utility.yul\":12452:12455   */\n      dup2\n        /* \"#utility.yul\":12445:12450   */\n      dup2\n        /* \"#utility.yul\":12442:12456   */\n      lt\n        /* \"#utility.yul\":12435:12555   */\n      iszero\n      tag_277\n      jumpi\n        /* \"#utility.yul\":12506:12545   */\n      tag_278\n        /* \"#utility.yul\":12543:12544   */\n      0x00\n        /* \"#utility.yul\":12536:12541   */\n      dup3\n        /* \"#utility.yul\":12506:12545   */\n      tag_127\n      jump\t// in\n    tag_278:\n        /* \"#utility.yul\":12479:12480   */\n      0x01\n        /* \"#utility.yul\":12472:12477   */\n      dup2\n        /* \"#utility.yul\":12468:12481   */\n      add\n        /* \"#utility.yul\":12459:12481   */\n      swap1\n      pop\n        /* \"#utility.yul\":12435:12555   */\n      jump(tag_275)\n    tag_277:\n        /* \"#utility.yul\":12375:12561   */\n      pop\n      pop\n      jump\t// out\n        /* \"#utility.yul\":12567:13110   */\n    tag_129:\n        /* \"#utility.yul\":12668:12670   */\n      0x1f\n        /* \"#utility.yul\":12663:12666   */\n      dup3\n        /* \"#utility.yul\":12660:12671   */\n      gt\n        /* \"#utility.yul\":12657:13103   */\n      iszero\n      tag_280\n      jumpi\n        /* \"#utility.yul\":12702:12740   */\n      tag_281\n        /* \"#utility.yul\":12734:12739   */\n      dup2\n        /* \"#utility.yul\":12702:12740   */\n      tag_118\n      jump\t// in\n    tag_281:\n        /* \"#utility.yul\":12786:12815   */\n      tag_282\n        /* \"#utility.yul\":12804:12814   */\n      dup5\n        /* \"#utility.yul\":12786:12815   */\n      tag_119\n      jump\t// in\n    tag_282:\n        /* \"#utility.yul\":12776:12784   */\n      dup2\n        /* \"#utility.yul\":12772:12816   */\n      add\n        /* \"#utility.yul\":12969:12971   */\n      0x20\n        /* \"#utility.yul\":12957:12967   */\n      dup6\n        /* \"#utility.yul\":12954:12972   */\n      lt\n        /* \"#utility.yul\":12951:13000   */\n      iszero\n      tag_283\n      jumpi\n        /* \"#utility.yul\":12990:12998   */\n      dup2\n        /* \"#utility.yul\":12975:12998   */\n      swap1\n      pop\n        /* \"#utility.yul\":12951:13000   */\n    tag_283:\n        /* \"#utility.yul\":13013:13093   */\n      tag_284\n        /* \"#utility.yul\":13069:13091   */\n      tag_285\n        /* \"#utility.yul\":13087:13090   */\n      dup6\n        /* \"#utility.yul\":13069:13091   */\n      tag_119\n      jump\t// in\n    tag_285:\n        /* \"#utility.yul\":13059:13067   */\n      dup4\n        /* \"#utility.yul\":13055:13092   */\n      add\n        /* \"#utility.yul\":13042:13053   */\n      dup3\n        /* \"#utility.yul\":13013:13093   */\n      tag_128\n      jump\t// in\n    tag_284:\n        /* \"#utility.yul\":12672:13103   */\n      pop\n      pop\n        /* \"#utility.yul\":12657:13103   */\n    tag_280:\n        /* \"#utility.yul\":12567:13110   */\n      pop\n      pop\n      pop\n      jump\t// out\n        /* \"#utility.yul\":13116:13233   */\n    tag_130:\n        /* \"#utility.yul\":13170:13178   */\n      0x00\n        /* \"#utility.yul\":13220:13225   */\n      dup3\n        /* \"#utility.yul\":13214:13218   */\n      dup3\n        /* \"#utility.yul\":13210:13226   */\n      shr\n        /* \"#utility.yul\":13189:13226   */\n      swap1\n      pop\n        /* \"#utility.yul\":13116:13233   */\n      swap3\n      swap2\n      pop\n      pop\n      jump\t// out\n        /* \"#utility.yul\":13239:13408   */\n    tag_131:\n        /* \"#utility.yul\":13283:13289   */\n      0x00\n        /* \"#utility.yul\":13316:13367   */\n      tag_288\n        /* \"#utility.yul\":13364:13365   */\n      0x00\n        /* \"#utility.yul\":13360:13366   */\n      not\n        /* \"#utility.yul\":13352:13357   */\n      dup5\n        /* \"#utility.yul\":13349:13350   */\n      0x08\n        /* \"#utility.yul\":13345:13358   */\n      mul\n        /* \"#utility.yul\":13316:13367   */\n      tag_130\n      jump\t// in\n    tag_288:\n        /* \"#utility.yul\":13312:13368   */\n      not\n        /* \"#utility.yul\":13397:13401   */\n      dup1\n        /* \"#utility.yul\":13391:13395   */\n      dup4\n        /* \"#utility.yul\":13387:13402   */\n      and\n        /* \"#utility.yul\":13377:13402   */\n      swap2\n      pop\n        /* \"#utility.yul\":13290:13408   */\n      pop\n        /* \"#utility.yul\":13239:13408   */\n      swap3\n      swap2\n      pop\n      pop\n      jump\t// out\n        /* \"#utility.yul\":13413:13708   */\n    tag_132:\n        /* \"#utility.yul\":13489:13493   */\n      0x00\n        /* \"#utility.yul\":13635:13664   */\n      tag_290\n        /* \"#utility.yul\":13660:13663   */\n      dup4\n        /* \"#utility.yul\":13654:13658   */\n      dup4\n        /* \"#utility.yul\":13635:13664   */\n      tag_131\n      jump\t// in\n    tag_290:\n        /* \"#utility.yul\":13627:13664   */\n      swap2\n      pop\n        /* \"#utility.yul\":13697:13700   */\n      dup3\n        /* \"#utility.yul\":13694:13695   */\n      0x02\n        /* \"#utility.yul\":13690:13701   */\n      mul\n        /* \"#utility.yul\":13684:13688   */\n      dup3\n        /* \"#utility.yul\":13681:13702   */\n      or\n        /* \"#utility.yul\":13673:13702   */\n      swap1\n      pop\n        /* \"#utility.yul\":13413:13708   */\n      swap3\n      swap2\n      pop\n      pop\n      jump\t// out\n        /* \"#utility.yul\":13713:15108   */\n    tag_66:\n        /* \"#utility.yul\":13830:13867   */\n      tag_292\n        /* \"#utility.yul\":13863:13866   */\n      dup3\n        /* \"#utility.yul\":13830:13867   */\n      tag_91\n      jump\t// in\n    tag_292:\n        /* \"#utility.yul\":13932:13950   */\n      0xffffffffffffffff\n        /* \"#utility.yul\":13924:13930   */\n      dup2\n        /* \"#utility.yul\":13921:13951   */\n      gt\n        /* \"#utility.yul\":13918:13974   */\n      iszero\n      tag_293\n      jumpi\n        /* \"#utility.yul\":13954:13972   */\n      tag_294\n      tag_104\n      jump\t// in\n    tag_294:\n        /* \"#utility.yul\":13918:13974   */\n    tag_293:\n        /* \"#utility.yul\":13998:14036   */\n      tag_295\n        /* \"#utility.yul\":14030:14034   */\n      dup3\n        /* \"#utility.yul\":14024:14035   */\n      sload\n        /* \"#utility.yul\":13998:14036   */\n      tag_49\n      jump\t// in\n    tag_295:\n        /* \"#utility.yul\":14083:14150   */\n      tag_296\n        /* \"#utility.yul\":14143:14149   */\n      dup3\n        /* \"#utility.yul\":14135:14141   */\n      dup3\n        /* \"#utility.yul\":14129:14133   */\n      dup6\n        /* \"#utility.yul\":14083:14150   */\n      tag_129\n      jump\t// in\n    tag_296:\n        /* \"#utility.yul\":14177:14178   */\n      0x00\n        /* \"#utility.yul\":14201:14205   */\n      0x20\n        /* \"#utility.yul\":14188:14205   */\n      swap1\n      pop\n        /* \"#utility.yul\":14233:14235   */\n      0x1f\n        /* \"#utility.yul\":14225:14231   */\n      dup4\n        /* \"#utility.yul\":14222:14236   */\n      gt\n        /* \"#utility.yul\":14250:14251   */\n      0x01\n        /* \"#utility.yul\":14245:14863   */\n      dup2\n      eq\n      tag_298\n      jumpi\n        /* \"#utility.yul\":14907:14908   */\n      0x00\n        /* \"#utility.yul\":14924:14930   */\n      dup5\n        /* \"#utility.yul\":14921:14998   */\n      iszero\n      tag_299\n      jumpi\n        /* \"#utility.yul\":14973:14982   */\n      dup3\n        /* \"#utility.yul\":14968:14971   */\n      dup8\n        /* \"#utility.yul\":14964:14983   */\n      add\n        /* \"#utility.yul\":14958:14984   */\n      mload\n        /* \"#utility.yul\":14949:14984   */\n      swap1\n      pop\n        /* \"#utility.yul\":14921:14998   */\n    tag_299:\n        /* \"#utility.yul\":15024:15091   */\n      tag_300\n        /* \"#utility.yul\":15084:15090   */\n      dup6\n        /* \"#utility.yul\":15077:15082   */\n      dup3\n        /* \"#utility.yul\":15024:15091   */\n      tag_132\n      jump\t// in\n    tag_300:\n        /* \"#utility.yul\":15018:15022   */\n      dup7\n        /* \"#utility.yul\":15011:15092   */\n      sstore\n        /* \"#utility.yul\":14880:15102   */\n      pop\n        /* \"#utility.yul\":14215:15102   */\n      jump(tag_297)\n        /* \"#utility.yul\":14245:14863   */\n    tag_298:\n        /* \"#utility.yul\":14297:14301   */\n      0x1f\n        /* \"#utility.yul\":14293:14302   */\n      not\n        /* \"#utility.yul\":14285:14291   */\n      dup5\n        /* \"#utility.yul\":14281:14303   */\n      and\n        /* \"#utility.yul\":14331:14368   */\n      tag_301\n        /* \"#utility.yul\":14363:14367   */\n      dup7\n        /* \"#utility.yul\":14331:14368   */\n      tag_118\n      jump\t// in\n    tag_301:\n        /* \"#utility.yul\":14390:14391   */\n      0x00\n        /* \"#utility.yul\":14404:14612   */\n    tag_302:\n        /* \"#utility.yul\":14418:14425   */\n      dup3\n        /* \"#utility.yul\":14415:14416   */\n      dup2\n        /* \"#utility.yul\":14412:14426   */\n      lt\n        /* \"#utility.yul\":14404:14612   */\n      iszero\n      tag_304\n      jumpi\n        /* \"#utility.yul\":14497:14506   */\n      dup5\n        /* \"#utility.yul\":14492:14495   */\n      dup10\n        /* \"#utility.yul\":14488:14507   */\n      add\n        /* \"#utility.yul\":14482:14508   */\n      mload\n        /* \"#utility.yul\":14474:14480   */\n      dup3\n        /* \"#utility.yul\":14467:14509   */\n      sstore\n        /* \"#utility.yul\":14548:14549   */\n      0x01\n        /* \"#utility.yul\":14540:14546   */\n      dup3\n        /* \"#utility.yul\":14536:14550   */\n      add\n        /* \"#utility.yul\":14526:14550   */\n      swap2\n      pop\n        /* \"#utility.yul\":14595:14597   */\n      0x20\n        /* \"#utility.yul\":14584:14593   */\n      dup6\n        /* \"#utility.yul\":14580:14598   */\n      add\n        /* \"#utility.yul\":14567:14598   */\n      swap5\n      pop\n        /* \"#utility.yul\":14441:14445   */\n      0x20\n        /* \"#utility.yul\":14438:14439   */\n      dup2\n        /* \"#utility.yul\":14434:14446   */\n      add\n        /* \"#utility.yul\":14429:14446   */\n      swap1\n      pop\n        /* \"#utility.yul\":14404:14612   */\n      jump(tag_302)\n    tag_304:\n        /* \"#utility.yul\":14640:14646   */\n      dup7\n        /* \"#utility.yul\":14631:14638   */\n      dup4\n        /* \"#utility.yul\":14628:14647   */\n      lt\n        /* \"#utility.yul\":14625:14804   */\n      iszero\n      tag_305\n      jumpi\n        /* \"#utility.yul\":14698:14707   */\n      dup5\n        /* \"#utility.yul\":14693:14696   */\n      dup10\n        /* \"#utility.yul\":14689:14708   */\n      add\n        /* \"#utility.yul\":14683:14709   */\n      mload\n        /* \"#utility.yul\":14741:14789   */\n      tag_306\n        /* \"#utility.yul\":14783:14787   */\n      0x1f\n        /* \"#utility.yul\":14775:14781   */\n      dup10\n        /* \"#utility.yul\":14771:14788   */\n      and\n        /* \"#utility.yul\":14760:14769   */\n      dup3\n        /* \"#utility.yul\":14741:14789   */\n      tag_131\n      jump\t// in\n    tag_306:\n        /* \"#utility.yul\":14733:14739   */\n      dup4\n        /* \"#utility.yul\":14726:14790   */\n      sstore\n        /* \"#utility.yul\":14648:14804   */\n      pop\n        /* \"#utility.yul\":14625:14804   */\n    tag_305:\n        /* \"#utility.yul\":14850:14851   */\n      0x01\n        /* \"#utility.yul\":14846:14847   */\n      0x02\n        /* \"#utility.yul\":14838:14844   */\n      dup9\n        /* \"#utility.yul\":14834:14848   */\n      mul\n        /* \"#utility.yul\":14830:14852   */\n      add\n        /* \"#utility.yul\":14824:14828   */\n      dup9\n        /* \"#utility.yul\":14817:14853   */\n      sstore\n        /* \"#utility.yul\":14252:14863   */\n      pop\n      pop\n      pop\n        /* \"#utility.yul\":14215:15102   */\n    tag_297:\n      pop\n        /* \"#utility.yul\":13805:15108   */\n      pop\n      pop\n      pop\n        /* \"#utility.yul\":13713:15108   */\n      pop\n      pop\n      jump\t// out\n        /* \"#utility.yul\":15114:15280   */\n    tag_133:\n        /* \"#utility.yul\":15254:15272   */\n      0x566f74696e6720697320636c6f73656400000000000000000000000000000000\n        /* \"#utility.yul\":15250:15251   */\n      0x00\n        /* \"#utility.yul\":15242:15248   */\n      dup3\n        /* \"#utility.yul\":15238:15252   */\n      add\n        /* \"#utility.yul\":15231:15273   */\n      mstore\n        /* \"#utility.yul\":15114:15280   */\n      pop\n      jump\t// out\n        /* \"#utility.yul\":15286:15652   */\n    tag_134:\n        /* \"#utility.yul\":15428:15431   */\n      0x00\n        /* \"#utility.yul\":15449:15516   */\n      tag_309\n        /* \"#utility.yul\":15513:15515   */\n      0x10\n        /* \"#utility.yul\":15508:15511   */\n      dup4\n        /* \"#utility.yul\":15449:15516   */\n      tag_92\n      jump\t// in\n    tag_309:\n        /* \"#utility.yul\":15442:15516   */\n      swap2\n      pop\n        /* \"#utility.yul\":15525:15618   */\n      tag_310\n        /* \"#utility.yul\":15614:15617   */\n      dup3\n        /* \"#utility.yul\":15525:15618   */\n      tag_133\n      jump\t// in\n    tag_310:\n        /* \"#utility.yul\":15643:15645   */\n      0x20\n        /* \"#utility.yul\":15638:15641   */\n      dup3\n        /* \"#utility.yul\":15634:15646   */\n      add\n        /* \"#utility.yul\":15627:15646   */\n      swap1\n      pop\n        /* \"#utility.yul\":15286:15652   */\n      swap2\n      swap1\n      pop\n      jump\t// out\n        /* \"#utility.yul\":15658:16077   */\n    tag_76:\n        /* \"#utility.yul\":15824:15828   */\n      0x00\n        /* \"#utility.yul\":15862:15864   */\n      0x20\n        /* \"#utility.yul\":15851:15860   */\n      dup3\n        /* \"#utility.yul\":15847:15865   */\n      add\n        /* \"#utility.yul\":15839:15865   */\n      swap1\n      pop\n        /* \"#utility.yul\":15911:15920   */\n      dup2\n        /* \"#utility.yul\":15905:15909   */\n      dup2\n        /* \"#utility.yul\":15901:15921   */\n      sub\n        /* \"#utility.yul\":15897:15898   */\n      0x00\n        /* \"#utility.yul\":15886:15895   */\n      dup4\n        /* \"#utility.yul\":15882:15899   */\n      add\n        /* \"#utility.yul\":15875:15922   */\n      mstore\n        /* \"#utility.yul\":15939:16070   */\n      tag_312\n        /* \"#utility.yul\":16065:16069   */\n      dup2\n        /* \"#utility.yul\":15939:16070   */\n      tag_134\n      jump\t// in\n    tag_312:\n        /* \"#utility.yul\":15931:16070   */\n      swap1\n      pop\n        /* \"#utility.yul\":15658:16077   */\n      swap2\n      swap1\n      pop\n      jump\t// out\n        /* \"#utility.yul\":16083:16255   */\n    tag_135:\n        /* \"#utility.yul\":16223:16247   */\n      0x596f75206861766520616c726561647920766f74656400000000000000000000\n        /* \"#utility.yul\":16219:16220   */\n      0x00\n        /* \"#utility.yul\":16211:16217   */\n      dup3\n        /* \"#utility.yul\":16207:16221   */\n      add\n        /* \"#utility.yul\":16200:16248   */\n      mstore\n        /* \"#utility.yul\":16083:16255   */\n      pop\n      jump\t// out\n        /* \"#utility.yul\":16261:16627   */\n    tag_136:\n        /* \"#utility.yul\":16403:16406   */\n      0x00\n        /* \"#utility.yul\":16424:16491   */\n      tag_315\n        /* \"#utility.yul\":16488:16490   */\n      0x16\n        /* \"#utility.yul\":16483:16486   */\n      dup4\n        /* \"#utility.yul\":16424:16491   */\n      tag_92\n      jump\t// in\n    tag_315:\n        /* \"#utility.yul\":16417:16491   */\n      swap2\n      pop\n        /* \"#utility.yul\":16500:16593   */\n      tag_316\n        /* \"#utility.yul\":16589:16592   */\n      dup3\n        /* \"#utility.yul\":16500:16593   */\n      tag_135\n      jump\t// in\n    tag_316:\n        /* \"#utility.yul\":16618:16620   */\n      0x20\n        /* \"#utility.yul\":16613:16616   */\n      dup3\n        /* \"#utility.yul\":16609:16621   */\n      add\n        /* \"#utility.yul\":16602:16621   */\n      swap1\n      pop\n        /* \"#utility.yul\":16261:16627   */\n      swap2\n      swap1\n      pop\n      jump\t// out\n        /* \"#utility.yul\":16633:17052   */\n    tag_79:\n        /* \"#utility.yul\":16799:16803   */\n      0x00\n        /* \"#utility.yul\":16837:16839   */\n      0x20\n        /* \"#utility.yul\":16826:16835   */\n      dup3\n        /* \"#utility.yul\":16822:16840   */\n      add\n        /* \"#utility.yul\":16814:16840   */\n      swap1\n      pop\n        /* \"#utility.yul\":16886:16895   */\n      dup2\n        /* \"#utility.yul\":16880:16884   */\n      dup2\n        /* \"#utility.yul\":16876:16896   */\n      sub\n        /* \"#utility.yul\":16872:16873   */\n      0x00\n        /* \"#utility.yul\":16861:16870   */\n      dup4\n        /* \"#utility.yul\":16857:16874   */\n      add\n        /* \"#utility.yul\":16850:16897   */\n      mstore\n        /* \"#utility.yul\":16914:17045   */\n      tag_318\n        /* \"#utility.yul\":17040:17044   */\n      dup2\n        /* \"#utility.yul\":16914:17045   */\n      tag_136\n      jump\t// in\n    tag_318:\n        /* \"#utility.yul\":16906:17045   */\n      swap1\n      pop\n        /* \"#utility.yul\":16633:17052   */\n      swap2\n      swap1\n      pop\n      jump\t// out\n\n    auxdata: 0xa2646970667358221220dae1ae748cf572f68f6c35a8ab67927eea401a89041549d4235c2ccba4a6cc6f64736f6c634300081e0033\n}\n",
				"bytecode": {
					"linkReferences": {},
					"object": "6080604052348015600e575f5ffd5b50335f5f6101000a81548173ffffffffffffffffffffffffffffffffffffffff021916908373ffffffffffffffffffffffffffffffffffffffff1602179055506110be8061005b5f395ff3fe608060405234801561000f575f5ffd5b5060043610610086575f3560e01c80638da5cb5b116100595780638da5cb5b14610126578063c7f758a814610144578063c9d27afe14610177578063da35c6641461019357610086565b8063013cf08b1461008a5780630386a016146100be57806343859632146100da57806349c2a1a61461010a575b5f5ffd5b6100a4600480360381019061009f91906107b7565b6101b1565b6040516100b595949392919061087b565b60405180910390f35b6100d860048036038101906100d391906107b7565b610275565b005b6100f460048036038101906100ef919061092d565b610331565b604051610101919061096b565b60405180910390f35b610124600480360381019061011f9190610ab0565b61035b565b005b61012e610496565b60405161013b9190610b06565b60405180910390f35b61015e600480360381019061015991906107b7565b6104ba565b60405161016e9493929190610b1f565b60405180910390f35b610191600480360381019061018c9190610b93565b6105c9565b005b61019b61076d565b6040516101a89190610bd1565b60405180910390f35b6002602052805f5260405f205f91509050805f0154908060010180546101d690610c17565b80601f016020809104026020016040519081016040528092919081815260200182805461020290610c17565b801561024d5780601f106102245761010080835404028352916020019161024d565b820191905f5260205f20905b81548152906001019060200180831161023057829003601f168201915b505050505090806002015490806003015490806004015f9054906101000a900460ff16905085565b5f5f9054906101000a900473ffffffffffffffffffffffffffffffffffffffff1673ffffffffffffffffffffffffffffffffffffffff163373ffffffffffffffffffffffffffffffffffffffff1614610303576040517f08c379a00000000000000000000000000000000000000000000000000000000081526004016102fa90610cb7565b60405180910390fd5b5f60025f8381526020019081526020015f206004015f6101000a81548160ff02191690831515021790555050565b6003602052815f5260405f20602052805f5260405f205f915091509054906101000a900460ff1681565b5f5f9054906101000a900473ffffffffffffffffffffffffffffffffffffffff1673ffffffffffffffffffffffffffffffffffffffff163373ffffffffffffffffffffffffffffffffffffffff16146103e9576040517f08c379a00000000000000000000000000000000000000000000000000000000081526004016103e090610cb7565b60405180910390fd5b60015f8154809291906103fb90610d02565b91905055506040518060a0016040528060015481526020018281526020015f81526020015f81526020016001151581525060025f60015481526020019081526020015f205f820151815f0155602082015181600101908161045c9190610ee9565b5060408201518160020155606082015181600301556080820151816004015f6101000a81548160ff02191690831515021790555090505050565b5f5f9054906101000a900473ffffffffffffffffffffffffffffffffffffffff1681565b60605f5f5f5f60025f8781526020019081526020015f206040518060a00160405290815f82015481526020016001820180546104f590610c17565b80601f016020809104026020016040519081016040528092919081815260200182805461052190610c17565b801561056c5780601f106105435761010080835404028352916020019161056c565b820191905f5260205f20905b81548152906001019060200180831161054f57829003601f168201915b505050505081526020016002820154815260200160038201548152602001600482015f9054906101000a900460ff161515151581525050905080602001518160400151826060015183608001519450945094509450509193509193565b5f60025f8481526020019081526020015f209050806004015f9054906101000a900460ff1661062d576040517f08c379a000000000000000000000000000000000000000000000000000000000815260040161062490611002565b60405180910390fd5b60035f8481526020019081526020015f205f3373ffffffffffffffffffffffffffffffffffffffff1673ffffffffffffffffffffffffffffffffffffffff1681526020019081526020015f205f9054906101000a900460ff16156106c6576040517f08c379a00000000000000000000000000000000000000000000000000000000081526004016106bd9061106a565b60405180910390fd5b600160035f8581526020019081526020015f205f3373ffffffffffffffffffffffffffffffffffffffff1673ffffffffffffffffffffffffffffffffffffffff1681526020019081526020015f205f6101000a81548160ff021916908315150217905550811561074e57806002015f81548092919061074490610d02565b9190505550610768565b806003015f81548092919061076290610d02565b91905055505b505050565b60015481565b5f604051905090565b5f5ffd5b5f5ffd5b5f819050919050565b61079681610784565b81146107a0575f5ffd5b50565b5f813590506107b18161078d565b92915050565b5f602082840312156107cc576107cb61077c565b5b5f6107d9848285016107a3565b91505092915050565b6107eb81610784565b82525050565b5f81519050919050565b5f82825260208201905092915050565b8281835e5f83830152505050565b5f601f19601f8301169050919050565b5f610833826107f1565b61083d81856107fb565b935061084d81856020860161080b565b61085681610819565b840191505092915050565b5f8115159050919050565b61087581610861565b82525050565b5f60a08201905061088e5f8301886107e2565b81810360208301526108a08187610829565b90506108af60408301866107e2565b6108bc60608301856107e2565b6108c9608083018461086c565b9695505050505050565b5f73ffffffffffffffffffffffffffffffffffffffff82169050919050565b5f6108fc826108d3565b9050919050565b61090c816108f2565b8114610916575f5ffd5b50565b5f8135905061092781610903565b92915050565b5f5f604083850312156109435761094261077c565b5b5f610950858286016107a3565b925050602061096185828601610919565b9150509250929050565b5f60208201905061097e5f83018461086c565b92915050565b5f5ffd5b5f5ffd5b7f4e487b71000000000000000000000000000000000000000000000000000000005f52604160045260245ffd5b6109c282610819565b810181811067ffffffffffffffff821117156109e1576109e061098c565b5b80604052505050565b5f6109f3610773565b90506109ff82826109b9565b919050565b5f67ffffffffffffffff821115610a1e57610a1d61098c565b5b610a2782610819565b9050602081019050919050565b828183375f83830152505050565b5f610a54610a4f84610a04565b6109ea565b905082815260208101848484011115610a7057610a6f610988565b5b610a7b848285610a34565b509392505050565b5f82601f830112610a9757610a96610984565b5b8135610aa7848260208601610a42565b91505092915050565b5f60208284031215610ac557610ac461077c565b5b5f82013567ffffffffffffffff811115610ae257610ae1610780565b5b610aee84828501610a83565b91505092915050565b610b00816108f2565b82525050565b5f602082019050610b195f830184610af7565b92915050565b5f6080820190508181035f830152610b378187610829565b9050610b4660208301866107e2565b610b5360408301856107e2565b610b60606083018461086c565b95945050505050565b610b7281610861565b8114610b7c575f5ffd5b50565b5f81359050610b8d81610b69565b92915050565b5f5f60408385031215610ba957610ba861077c565b5b5f610bb6858286016107a3565b9250506020610bc785828601610b7f565b9150509250929050565b5f602082019050610be45f8301846107e2565b92915050565b7f4e487b71000000000000000000000000000000000000000000000000000000005f52602260045260245ffd5b5f6002820490506001821680610c2e57607f821691505b602082108103610c4157610c40610bea565b5b50919050565b7f4f6e6c7920746865206f776e65722063616e2063616c6c20746869732066756e5f8201527f6374696f6e000000000000000000000000000000000000000000000000000000602082015250565b5f610ca16025836107fb565b9150610cac82610c47565b604082019050919050565b5f6020820190508181035f830152610cce81610c95565b9050919050565b7f4e487b71000000000000000000000000000000000000000000000000000000005f52601160045260245ffd5b5f610d0c82610784565b91507fffffffffffffffffffffffffffffffffffffffffffffffffffffffffffffffff8203610d3e57610d3d610cd5565b5b600182019050919050565b5f819050815f5260205f209050919050565b5f6020601f8301049050919050565b5f82821b905092915050565b5f60088302610da57fffffffffffffffffffffffffffffffffffffffffffffffffffffffffffffffff82610d6a565b610daf8683610d6a565b95508019841693508086168417925050509392505050565b5f819050919050565b5f610dea610de5610de084610784565b610dc7565b610784565b9050919050565b5f819050919050565b610e0383610dd0565b610e17610e0f82610df1565b848454610d76565b825550505050565b5f5f905090565b610e2e610e1f565b610e39818484610dfa565b505050565b5b81811015610e5c57610e515f82610e26565b600181019050610e3f565b5050565b601f821115610ea157610e7281610d49565b610e7b84610d5b565b81016020851015610e8a578190505b610e9e610e9685610d5b565b830182610e3e565b50505b505050565b5f82821c905092915050565b5f610ec15f1984600802610ea6565b1980831691505092915050565b5f610ed98383610eb2565b9150826002028217905092915050565b610ef2826107f1565b67ffffffffffffffff811115610f0b57610f0a61098c565b5b610f158254610c17565b610f20828285610e60565b5f60209050601f831160018114610f51575f8415610f3f578287015190505b610f498582610ece565b865550610fb0565b601f198416610f5f86610d49565b5f5b82811015610f8657848901518255600182019150602085019450602081019050610f61565b86831015610fa35784890151610f9f601f891682610eb2565b8355505b6001600288020188555050505b505050505050565b7f566f74696e6720697320636c6f736564000000000000000000000000000000005f82015250565b5f610fec6010836107fb565b9150610ff782610fb8565b602082019050919050565b5f6020820190508181035f83015261101981610fe0565b9050919050565b7f596f75206861766520616c726561647920766f746564000000000000000000005f82015250565b5f6110546016836107fb565b915061105f82611020565b602082019050919050565b5f6020820190508181035f83015261108181611048565b905091905056fea2646970667358221220dae1ae748cf572f68f6c35a8ab67927eea401a89041549d4235c2ccba4a6cc6f64736f6c634300081e0033",
					"opcodes": "PUSH1 0x80 PUSH1 0x40 MSTORE CALLVALUE DUP1 ISZERO PUSH1 0xE JUMPI PUSH0 PUSH0 REVERT JUMPDEST POP CALLER PUSH0 PUSH0 PUSH2 0x100 EXP DUP2 SLOAD DUP2 PUSH20 0xFFFFFFFFFFFFFFFFFFFFFFFFFFFFFFFFFFFFFFFF MUL NOT AND SWAP1 DUP4 PUSH20 0xFFFFFFFFFFFFFFFFFFFFFFFFFFFFFFFFFFFFFFFF AND MUL OR SWAP1 SSTORE POP PUSH2 0x10BE DUP1 PUSH2 0x5B PUSH0 CODECOPY PUSH0 RETURN INVALID PUSH1 0x80 PUSH1 0x40 MSTORE CALLVALUE DUP1 ISZERO PUSH2 0xF JUMPI PUSH0 PUSH0 REVERT JUMPDEST POP PUSH1 0x4 CALLDATASIZE LT PUSH2 0x86 JUMPI PUSH0 CALLDATALOAD PUSH1 0xE0 SHR DUP1 PUSH4 0x8DA5CB5B GT PUSH2 0x59 JUMPI DUP1 PUSH4 0x8DA5CB5B EQ PUSH2 0x126 JUMPI DUP1 PUSH4 0xC7F758A8 EQ PUSH2 0x144 JUMPI DUP1 PUSH4 0xC9D27AFE EQ PUSH2 0x177 JUMPI DUP1 PUSH4 0xDA35C664 EQ PUSH2 0x193 JUMPI PUSH2 0x86 JUMP JUMPDEST DUP1 PUSH4 0x13CF08B EQ PUSH2 0x8A JUMPI DUP1 PUSH4 0x386A016 EQ PUSH2 0xBE JUMPI DUP1 PUSH4 0x43859632 EQ PUSH2 0xDA JUMPI DUP1 PUSH4 0x49C2A1A6 EQ PUSH2 0x10A JUMPI JUMPDEST PUSH0 PUSH0 REVERT JUMPDEST PUSH2 0xA4 PUSH1 0x4 DUP1 CALLDATASIZE SUB DUP2 ADD SWAP1 PUSH2 0x9F SWAP2 SWAP1 PUSH2 0x7B7 JUMP JUMPDEST PUSH2 0x1B1 JUMP JUMPDEST PUSH1 0x40 MLOAD PUSH2 0xB5 SWAP6 SWAP5 SWAP4 SWAP3 SWAP2 SWAP1 PUSH2 0x87B JUMP JUMPDEST PUSH1 0x40 MLOAD DUP1 SWAP2 SUB SWAP1 RETURN JUMPDEST PUSH2 0xD8 PUSH1 0x4 DUP1 CALLDATASIZE SUB DUP2 ADD SWAP1 PUSH2 0xD3 SWAP2 SWAP1 PUSH2 0x7B7 JUMP JUMPDEST PUSH2 0x275 JUMP JUMPDEST STOP JUMPDEST PUSH2 0xF4 PUSH1 0x4 DUP1 CALLDATASIZE SUB DUP2 ADD SWAP1 PUSH2 0xEF SWAP2 SWAP1 PUSH2 0x92D JUMP JUMPDEST PUSH2 0x331 JUMP JUMPDEST PUSH1 0x40 MLOAD PUSH2 0x101 SWAP2 SWAP1 PUSH2 0x96B JUMP JUMPDEST PUSH1 0x40 MLOAD DUP1 SWAP2 SUB SWAP1 RETURN JUMPDEST PUSH2 0x124 PUSH1 0x4 DUP1 CALLDATASIZE SUB DUP2 ADD SWAP1 PUSH2 0x11F SWAP2 SWAP1 PUSH2 0xAB0 JUMP JUMPDEST PUSH2 0x35B JUMP JUMPDEST STOP JUMPDEST PUSH2 0x12E PUSH2 0x496 JUMP JUMPDEST PUSH1 0x40 MLOAD PUSH2 0x13B SWAP2 SWAP1 PUSH2 0xB06 JUMP JUMPDEST PUSH1 0x40 MLOAD DUP1 SWAP2 SUB SWAP1 RETURN JUMPDEST PUSH2 0x15E PUSH1 0x4 DUP1 CALLDATASIZE SUB DUP2 ADD SWAP1 PUSH2 0x159 SWAP2 SWAP1 PUSH2 0x7B7 JUMP JUMPDEST PUSH2 0x4BA JUMP JUMPDEST PUSH1 0x40 MLOAD PUSH2 0x16E SWAP5 SWAP4 SWAP3 SWAP2 SWAP1 PUSH2 0xB1F JUMP JUMPDEST PUSH1 0x40 MLOAD DUP1 SWAP2 SUB SWAP1 RETURN JUMPDEST PUSH2 0x191 PUSH1 0x4 DUP1 CALLDATASIZE SUB DUP2 ADD SWAP1 PUSH2 0x18C SWAP2 SWAP1 PUSH2 0xB93 JUMP JUMPDEST PUSH2 0x5C9 JUMP JUMPDEST STOP JUMPDEST PUSH2 0x19B PUSH2 0x76D JUMP JUMPDEST PUSH1 0x40 MLOAD PUSH2 0x1A8 SWAP2 SWAP1 PUSH2 0xBD1 JUMP JUMPDEST PUSH1 0x40 MLOAD DUP1 SWAP2 SUB SWAP1 RETURN JUMPDEST PUSH1 0x2 PUSH1 0x20 MSTORE DUP1 PUSH0 MSTORE PUSH1 0x40 PUSH0 KECCAK256 PUSH0 SWAP2 POP SWAP1 POP DUP1 PUSH0 ADD SLOAD SWAP1 DUP1 PUSH1 0x1 ADD DUP1 SLOAD PUSH2 0x1D6 SWAP1 PUSH2 0xC17 JUMP JUMPDEST DUP1 PUSH1 0x1F ADD PUSH1 0x20 DUP1 SWAP2 DIV MUL PUSH1 0x20 ADD PUSH1 0x40 MLOAD SWAP1 DUP2 ADD PUSH1 0x40 MSTORE DUP1 SWAP3 SWAP2 SWAP1 DUP2 DUP2 MSTORE PUSH1 0x20 ADD DUP3 DUP1 SLOAD PUSH2 0x202 SWAP1 PUSH2 0xC17 JUMP JUMPDEST DUP1 ISZERO PUSH2 0x24D JUMPI DUP1 PUSH1 0x1F LT PUSH2 0x224 JUMPI PUSH2 0x100 DUP1 DUP4 SLOAD DIV MUL DUP4 MSTORE SWAP2 PUSH1 0x20 ADD SWAP2 PUSH2 0x24D JUMP JUMPDEST DUP3 ADD SWAP2 SWAP1 PUSH0 MSTORE PUSH1 0x20 PUSH0 KECCAK256 SWAP1 JUMPDEST DUP2 SLOAD DUP2 MSTORE SWAP1 PUSH1 0x1 ADD SWAP1 PUSH1 0x20 ADD DUP1 DUP4 GT PUSH2 0x230 JUMPI DUP3 SWAP1 SUB PUSH1 0x1F AND DUP3 ADD SWAP2 JUMPDEST POP POP POP POP POP SWAP1 DUP1 PUSH1 0x2 ADD SLOAD SWAP1 DUP1 PUSH1 0x3 ADD SLOAD SWAP1 DUP1 PUSH1 0x4 ADD PUSH0 SWAP1 SLOAD SWAP1 PUSH2 0x100 EXP SWAP1 DIV PUSH1 0xFF AND SWAP1 POP DUP6 JUMP JUMPDEST PUSH0 PUSH0 SWAP1 SLOAD SWAP1 PUSH2 0x100 EXP SWAP1 DIV PUSH20 0xFFFFFFFFFFFFFFFFFFFFFFFFFFFFFFFFFFFFFFFF AND PUSH20 0xFFFFFFFFFFFFFFFFFFFFFFFFFFFFFFFFFFFFFFFF AND CALLER PUSH20 0xFFFFFFFFFFFFFFFFFFFFFFFFFFFFFFFFFFFFFFFF AND EQ PUSH2 0x303 JUMPI PUSH1 0x40 MLOAD PUSH32 0x8C379A000000000000000000000000000000000000000000000000000000000 DUP2 MSTORE PUSH1 0x4 ADD PUSH2 0x2FA SWAP1 PUSH2 0xCB7 JUMP JUMPDEST PUSH1 0x40 MLOAD DUP1 SWAP2 SUB SWAP1 REVERT JUMPDEST PUSH0 PUSH1 0x2 PUSH0 DUP4 DUP2 MSTORE PUSH1 0x20 ADD SWAP1 DUP2 MSTORE PUSH1 0x20 ADD PUSH0 KECCAK256 PUSH1 0x4 ADD PUSH0 PUSH2 0x100 EXP DUP2 SLOAD DUP2 PUSH1 0xFF MUL NOT AND SWAP1 DUP4 ISZERO ISZERO MUL OR SWAP1 SSTORE POP POP JUMP JUMPDEST PUSH1 0x3 PUSH1 0x20 MSTORE DUP2 PUSH0 MSTORE PUSH1 0x40 PUSH0 KECCAK256 PUSH1 0x20 MSTORE DUP1 PUSH0 MSTORE PUSH1 0x40 PUSH0 KECCAK256 PUSH0 SWAP2 POP SWAP2 POP SWAP1 SLOAD SWAP1 PUSH2 0x100 EXP SWAP1 DIV PUSH1 0xFF AND DUP2 JUMP JUMPDEST PUSH0 PUSH0 SWAP1 SLOAD SWAP1 PUSH2 0x100 EXP SWAP1 DIV PUSH20 0xFFFFFFFFFFFFFFFFFFFFFFFFFFFFFFFFFFFFFFFF AND PUSH20 0xFFFFFFFFFFFFFFFFFFFFFFFFFFFFFFFFFFFFFFFF AND CALLER PUSH20 0xFFFFFFFFFFFFFFFFFFFFFFFFFFFFFFFFFFFFFFFF AND EQ PUSH2 0x3E9 JUMPI PUSH1 0x40 MLOAD PUSH32 0x8C379A000000000000000000000000000000000000000000000000000000000 DUP2 MSTORE PUSH1 0x4 ADD PUSH2 0x3E0 SWAP1 PUSH2 0xCB7 JUMP JUMPDEST PUSH1 0x40 MLOAD DUP1 SWAP2 SUB SWAP1 REVERT JUMPDEST PUSH1 0x1 PUSH0 DUP2 SLOAD DUP1 SWAP3 SWAP2 SWAP1 PUSH2 0x3FB SWAP1 PUSH2 0xD02 JUMP JUMPDEST SWAP2 SWAP1 POP SSTORE POP PUSH1 0x40 MLOAD DUP1 PUSH1 0xA0 ADD PUSH1 0x40 MSTORE DUP1 PUSH1 0x1 SLOAD DUP2 MSTORE PUSH1 0x20 ADD DUP3 DUP2 MSTORE PUSH1 0x20 ADD PUSH0 DUP2 MSTORE PUSH1 0x20 ADD PUSH0 DUP2 MSTORE PUSH1 0x20 ADD PUSH1 0x1 ISZERO ISZERO DUP2 MSTORE POP PUSH1 0x2 PUSH0 PUSH1 0x1 SLOAD DUP2 MSTORE PUSH1 0x20 ADD SWAP1 DUP2 MSTORE PUSH1 0x20 ADD PUSH0 KECCAK256 PUSH0 DUP3 ADD MLOAD DUP2 PUSH0 ADD SSTORE PUSH1 0x20 DUP3 ADD MLOAD DUP2 PUSH1 0x1 ADD SWAP1 DUP2 PUSH2 0x45C SWAP2 SWAP1 PUSH2 0xEE9 JUMP JUMPDEST POP PUSH1 0x40 DUP3 ADD MLOAD DUP2 PUSH1 0x2 ADD SSTORE PUSH1 0x60 DUP3 ADD MLOAD DUP2 PUSH1 0x3 ADD SSTORE PUSH1 0x80 DUP3 ADD MLOAD DUP2 PUSH1 0x4 ADD PUSH0 PUSH2 0x100 EXP DUP2 SLOAD DUP2 PUSH1 0xFF MUL NOT AND SWAP1 DUP4 ISZERO ISZERO MUL OR SWAP1 SSTORE POP SWAP1 POP POP POP JUMP JUMPDEST PUSH0 PUSH0 SWAP1 SLOAD SWAP1 PUSH2 0x100 EXP SWAP1 DIV PUSH20 0xFFFFFFFFFFFFFFFFFFFFFFFFFFFFFFFFFFFFFFFF AND DUP2 JUMP JUMPDEST PUSH1 0x60 PUSH0 PUSH0 PUSH0 PUSH0 PUSH1 0x2 PUSH0 DUP8 DUP2 MSTORE PUSH1 0x20 ADD SWAP1 DUP2 MSTORE PUSH1 0x20 ADD PUSH0 KECCAK256 PUSH1 0x40 MLOAD DUP1 PUSH1 0xA0 ADD PUSH1 0x40 MSTORE SWAP1 DUP2 PUSH0 DUP3 ADD SLOAD DUP2 MSTORE PUSH1 0x20 ADD PUSH1 0x1 DUP3 ADD DUP1 SLOAD PUSH2 0x4F5 SWAP1 PUSH2 0xC17 JUMP JUMPDEST DUP1 PUSH1 0x1F ADD PUSH1 0x20 DUP1 SWAP2 DIV MUL PUSH1 0x20 ADD PUSH1 0x40 MLOAD SWAP1 DUP2 ADD PUSH1 0x40 MSTORE DUP1 SWAP3 SWAP2 SWAP1 DUP2 DUP2 MSTORE PUSH1 0x20 ADD DUP3 DUP1 SLOAD PUSH2 0x521 SWAP1 PUSH2 0xC17 JUMP JUMPDEST DUP1 ISZERO PUSH2 0x56C JUMPI DUP1 PUSH1 0x1F LT PUSH2 0x543 JUMPI PUSH2 0x100 DUP1 DUP4 SLOAD DIV MUL DUP4 MSTORE SWAP2 PUSH1 0x20 ADD SWAP2 PUSH2 0x56C JUMP JUMPDEST DUP3 ADD SWAP2 SWAP1 PUSH0 MSTORE PUSH1 0x20 PUSH0 KECCAK256 SWAP1 JUMPDEST DUP2 SLOAD DUP2 MSTORE SWAP1 PUSH1 0x1 ADD SWAP1 PUSH1 0x20 ADD DUP1 DUP4 GT PUSH2 0x54F JUMPI DUP3 SWAP1 SUB PUSH1 0x1F AND DUP3 ADD SWAP2 JUMPDEST POP POP POP POP POP DUP2 MSTORE PUSH1 0x20 ADD PUSH1 0x2 DUP3 ADD SLOAD DUP2 MSTORE PUSH1 0x20 ADD PUSH1 0x3 DUP3 ADD SLOAD DUP2 MSTORE PUSH1 0x20 ADD PUSH1 0x4 DUP3 ADD PUSH0 SWAP1 SLOAD SWAP1 PUSH2 0x100 EXP SWAP1 DIV PUSH1 0xFF AND ISZERO ISZERO ISZERO ISZERO DUP2 MSTORE POP POP SWAP1 POP DUP1 PUSH1 0x20 ADD MLOAD DUP2 PUSH1 0x40 ADD MLOAD DUP3 PUSH1 0x60 ADD MLOAD DUP4 PUSH1 0x80 ADD MLOAD SWAP5 POP SWAP5 POP SWAP5 POP SWAP5 POP POP SWAP2 SWAP4 POP SWAP2 SWAP4 JUMP JUMPDEST PUSH0 PUSH1 0x2 PUSH0 DUP5 DUP2 MSTORE PUSH1 0x20 ADD SWAP1 DUP2 MSTORE PUSH1 0x20 ADD PUSH0 KECCAK256 SWAP1 POP DUP1 PUSH1 0x4 ADD PUSH0 SWAP1 SLOAD SWAP1 PUSH2 0x100 EXP SWAP1 DIV PUSH1 0xFF AND PUSH2 0x62D JUMPI PUSH1 0x40 MLOAD PUSH32 0x8C379A000000000000000000000000000000000000000000000000000000000 DUP2 MSTORE PUSH1 0x4 ADD PUSH2 0x624 SWAP1 PUSH2 0x1002 JUMP JUMPDEST PUSH1 0x40 MLOAD DUP1 SWAP2 SUB SWAP1 REVERT JUMPDEST PUSH1 0x3 PUSH0 DUP5 DUP2 MSTORE PUSH1 0x20 ADD SWAP1 DUP2 MSTORE PUSH1 0x20 ADD PUSH0 KECCAK256 PUSH0 CALLER PUSH20 0xFFFFFFFFFFFFFFFFFFFFFFFFFFFFFFFFFFFFFFFF AND PUSH20 0xFFFFFFFFFFFFFFFFFFFFFFFFFFFFFFFFFFFFFFFF AND DUP2 MSTORE PUSH1 0x20 ADD SWAP1 DUP2 MSTORE PUSH1 0x20 ADD PUSH0 KECCAK256 PUSH0 SWAP1 SLOAD SWAP1 PUSH2 0x100 EXP SWAP1 DIV PUSH1 0xFF AND ISZERO PUSH2 0x6C6 JUMPI PUSH1 0x40 MLOAD PUSH32 0x8C379A000000000000000000000000000000000000000000000000000000000 DUP2 MSTORE PUSH1 0x4 ADD PUSH2 0x6BD SWAP1 PUSH2 0x106A JUMP JUMPDEST PUSH1 0x40 MLOAD DUP1 SWAP2 SUB SWAP1 REVERT JUMPDEST PUSH1 0x1 PUSH1 0x3 PUSH0 DUP6 DUP2 MSTORE PUSH1 0x20 ADD SWAP1 DUP2 MSTORE PUSH1 0x20 ADD PUSH0 KECCAK256 PUSH0 CALLER PUSH20 0xFFFFFFFFFFFFFFFFFFFFFFFFFFFFFFFFFFFFFFFF AND PUSH20 0xFFFFFFFFFFFFFFFFFFFFFFFFFFFFFFFFFFFFFFFF AND DUP2 MSTORE PUSH1 0x20 ADD SWAP1 DUP2 MSTORE PUSH1 0x20 ADD PUSH0 KECCAK256 PUSH0 PUSH2 0x100 EXP DUP2 SLOAD DUP2 PUSH1 0xFF MUL NOT AND SWAP1 DUP4 ISZERO ISZERO MUL OR SWAP1 SSTORE POP DUP2 ISZERO PUSH2 0x74E JUMPI DUP1 PUSH1 0x2 ADD PUSH0 DUP2 SLOAD DUP1 SWAP3 SWAP2 SWAP1 PUSH2 0x744 SWAP1 PUSH2 0xD02 JUMP JUMPDEST SWAP2 SWAP1 POP SSTORE POP PUSH2 0x768 JUMP JUMPDEST DUP1 PUSH1 0x3 ADD PUSH0 DUP2 SLOAD DUP1 SWAP3 SWAP2 SWAP1 PUSH2 0x762 SWAP1 PUSH2 0xD02 JUMP JUMPDEST SWAP2 SWAP1 POP SSTORE POP JUMPDEST POP POP POP JUMP JUMPDEST PUSH1 0x1 SLOAD DUP2 JUMP JUMPDEST PUSH0 PUSH1 0x40 MLOAD SWAP1 POP SWAP1 JUMP JUMPDEST PUSH0 PUSH0 REVERT JUMPDEST PUSH0 PUSH0 REVERT JUMPDEST PUSH0 DUP2 SWAP1 POP SWAP2 SWAP1 POP JUMP JUMPDEST PUSH2 0x796 DUP2 PUSH2 0x784 JUMP JUMPDEST DUP2 EQ PUSH2 0x7A0 JUMPI PUSH0 PUSH0 REVERT JUMPDEST POP JUMP JUMPDEST PUSH0 DUP2 CALLDATALOAD SWAP1 POP PUSH2 0x7B1 DUP2 PUSH2 0x78D JUMP JUMPDEST SWAP3 SWAP2 POP POP JUMP JUMPDEST PUSH0 PUSH1 0x20 DUP3 DUP5 SUB SLT ISZERO PUSH2 0x7CC JUMPI PUSH2 0x7CB PUSH2 0x77C JUMP JUMPDEST JUMPDEST PUSH0 PUSH2 0x7D9 DUP5 DUP3 DUP6 ADD PUSH2 0x7A3 JUMP JUMPDEST SWAP2 POP POP SWAP3 SWAP2 POP POP JUMP JUMPDEST PUSH2 0x7EB DUP2 PUSH2 0x784 JUMP JUMPDEST DUP3 MSTORE POP POP JUMP JUMPDEST PUSH0 DUP2 MLOAD SWAP1 POP SWAP2 SWAP1 POP JUMP JUMPDEST PUSH0 DUP3 DUP3 MSTORE PUSH1 0x20 DUP3 ADD SWAP1 POP SWAP3 SWAP2 POP POP JUMP JUMPDEST DUP3 DUP2 DUP4 MCOPY PUSH0 DUP4 DUP4 ADD MSTORE POP POP POP JUMP JUMPDEST PUSH0 PUSH1 0x1F NOT PUSH1 0x1F DUP4 ADD AND SWAP1 POP SWAP2 SWAP1 POP JUMP JUMPDEST PUSH0 PUSH2 0x833 DUP3 PUSH2 0x7F1 JUMP JUMPDEST PUSH2 0x83D DUP2 DUP6 PUSH2 0x7FB JUMP JUMPDEST SWAP4 POP PUSH2 0x84D DUP2 DUP6 PUSH1 0x20 DUP7 ADD PUSH2 0x80B JUMP JUMPDEST PUSH2 0x856 DUP2 PUSH2 0x819 JUMP JUMPDEST DUP5 ADD SWAP2 POP POP SWAP3 SWAP2 POP POP JUMP JUMPDEST PUSH0 DUP2 ISZERO ISZERO SWAP1 POP SWAP2 SWAP1 POP JUMP JUMPDEST PUSH2 0x875 DUP2 PUSH2 0x861 JUMP JUMPDEST DUP3 MSTORE POP POP JUMP JUMPDEST PUSH0 PUSH1 0xA0 DUP3 ADD SWAP1 POP PUSH2 0x88E PUSH0 DUP4 ADD DUP9 PUSH2 0x7E2 JUMP JUMPDEST DUP2 DUP2 SUB PUSH1 0x20 DUP4 ADD MSTORE PUSH2 0x8A0 DUP2 DUP8 PUSH2 0x829 JUMP JUMPDEST SWAP1 POP PUSH2 0x8AF PUSH1 0x40 DUP4 ADD DUP7 PUSH2 0x7E2 JUMP JUMPDEST PUSH2 0x8BC PUSH1 0x60 DUP4 ADD DUP6 PUSH2 0x7E2 JUMP JUMPDEST PUSH2 0x8C9 PUSH1 0x80 DUP4 ADD DUP5 PUSH2 0x86C JUMP JUMPDEST SWAP7 SWAP6 POP POP POP POP POP POP JUMP JUMPDEST PUSH0 PUSH20 0xFFFFFFFFFFFFFFFFFFFFFFFFFFFFFFFFFFFFFFFF DUP3 AND SWAP1 POP SWAP2 SWAP1 POP JUMP JUMPDEST PUSH0 PUSH2 0x8FC DUP3 PUSH2 0x8D3 JUMP JUMPDEST SWAP1 POP SWAP2 SWAP1 POP JUMP JUMPDEST PUSH2 0x90C DUP2 PUSH2 0x8F2 JUMP JUMPDEST DUP2 EQ PUSH2 0x916 JUMPI PUSH0 PUSH0 REVERT JUMPDEST POP JUMP JUMPDEST PUSH0 DUP2 CALLDATALOAD SWAP1 POP PUSH2 0x927 DUP2 PUSH2 0x903 JUMP JUMPDEST SWAP3 SWAP2 POP POP JUMP JUMPDEST PUSH0 PUSH0 PUSH1 0x40 DUP4 DUP6 SUB SLT ISZERO PUSH2 0x943 JUMPI PUSH2 0x942 PUSH2 0x77C JUMP JUMPDEST JUMPDEST PUSH0 PUSH2 0x950 DUP6 DUP3 DUP7 ADD PUSH2 0x7A3 JUMP JUMPDEST SWAP3 POP POP PUSH1 0x20 PUSH2 0x961 DUP6 DUP3 DUP7 ADD PUSH2 0x919 JUMP JUMPDEST SWAP2 POP POP SWAP3 POP SWAP3 SWAP1 POP JUMP JUMPDEST PUSH0 PUSH1 0x20 DUP3 ADD SWAP1 POP PUSH2 0x97E PUSH0 DUP4 ADD DUP5 PUSH2 0x86C JUMP JUMPDEST SWAP3 SWAP2 POP POP JUMP JUMPDEST PUSH0 PUSH0 REVERT JUMPDEST PUSH0 PUSH0 REVERT JUMPDEST PUSH32 0x4E487B7100000000000000000000000000000000000000000000000000000000 PUSH0 MSTORE PUSH1 0x41 PUSH1 0x4 MSTORE PUSH1 0x24 PUSH0 REVERT JUMPDEST PUSH2 0x9C2 DUP3 PUSH2 0x819 JUMP JUMPDEST DUP2 ADD DUP2 DUP2 LT PUSH8 0xFFFFFFFFFFFFFFFF DUP3 GT OR ISZERO PUSH2 0x9E1 JUMPI PUSH2 0x9E0 PUSH2 0x98C JUMP JUMPDEST JUMPDEST DUP1 PUSH1 0x40 MSTORE POP POP POP JUMP JUMPDEST PUSH0 PUSH2 0x9F3 PUSH2 0x773 JUMP JUMPDEST SWAP1 POP PUSH2 0x9FF DUP3 DUP3 PUSH2 0x9B9 JUMP JUMPDEST SWAP2 SWAP1 POP JUMP JUMPDEST PUSH0 PUSH8 0xFFFFFFFFFFFFFFFF DUP3 GT ISZERO PUSH2 0xA1E JUMPI PUSH2 0xA1D PUSH2 0x98C JUMP JUMPDEST JUMPDEST PUSH2 0xA27 DUP3 PUSH2 0x819 JUMP JUMPDEST SWAP1 POP PUSH1 0x20 DUP2 ADD SWAP1 POP SWAP2 SWAP1 POP JUMP JUMPDEST DUP3 DUP2 DUP4 CALLDATACOPY PUSH0 DUP4 DUP4 ADD MSTORE POP POP POP JUMP JUMPDEST PUSH0 PUSH2 0xA54 PUSH2 0xA4F DUP5 PUSH2 0xA04 JUMP JUMPDEST PUSH2 0x9EA JUMP JUMPDEST SWAP1 POP DUP3 DUP2 MSTORE PUSH1 0x20 DUP2 ADD DUP5 DUP5 DUP5 ADD GT ISZERO PUSH2 0xA70 JUMPI PUSH2 0xA6F PUSH2 0x988 JUMP JUMPDEST JUMPDEST PUSH2 0xA7B DUP5 DUP3 DUP6 PUSH2 0xA34 JUMP JUMPDEST POP SWAP4 SWAP3 POP POP POP JUMP JUMPDEST PUSH0 DUP3 PUSH1 0x1F DUP4 ADD SLT PUSH2 0xA97 JUMPI PUSH2 0xA96 PUSH2 0x984 JUMP JUMPDEST JUMPDEST DUP2 CALLDATALOAD PUSH2 0xAA7 DUP5 DUP3 PUSH1 0x20 DUP7 ADD PUSH2 0xA42 JUMP JUMPDEST SWAP2 POP POP SWAP3 SWAP2 POP POP JUMP JUMPDEST PUSH0 PUSH1 0x20 DUP3 DUP5 SUB SLT ISZERO PUSH2 0xAC5 JUMPI PUSH2 0xAC4 PUSH2 0x77C JUMP JUMPDEST JUMPDEST PUSH0 DUP3 ADD CALLDATALOAD PUSH8 0xFFFFFFFFFFFFFFFF DUP2 GT ISZERO PUSH2 0xAE2 JUMPI PUSH2 0xAE1 PUSH2 0x780 JUMP JUMPDEST JUMPDEST PUSH2 0xAEE DUP5 DUP3 DUP6 ADD PUSH2 0xA83 JUMP JUMPDEST SWAP2 POP POP SWAP3 SWAP2 POP POP JUMP JUMPDEST PUSH2 0xB00 DUP2 PUSH2 0x8F2 JUMP JUMPDEST DUP3 MSTORE POP POP JUMP JUMPDEST PUSH0 PUSH1 0x20 DUP3 ADD SWAP1 POP PUSH2 0xB19 PUSH0 DUP4 ADD DUP5 PUSH2 0xAF7 JUMP JUMPDEST SWAP3 SWAP2 POP POP JUMP JUMPDEST PUSH0 PUSH1 0x80 DUP3 ADD SWAP1 POP DUP2 DUP2 SUB PUSH0 DUP4 ADD MSTORE PUSH2 0xB37 DUP2 DUP8 PUSH2 0x829 JUMP JUMPDEST SWAP1 POP PUSH2 0xB46 PUSH1 0x20 DUP4 ADD DUP7 PUSH2 0x7E2 JUMP JUMPDEST PUSH2 0xB53 PUSH1 0x40 DUP4 ADD DUP6 PUSH2 0x7E2 JUMP JUMPDEST PUSH2 0xB60 PUSH1 0x60 DUP4 ADD DUP5 PUSH2 0x86C JUMP JUMPDEST SWAP6 SWAP5 POP POP POP POP POP JUMP JUMPDEST PUSH2 0xB72 DUP2 PUSH2 0x861 JUMP JUMPDEST DUP2 EQ PUSH2 0xB7C JUMPI PUSH0 PUSH0 REVERT JUMPDEST POP JUMP JUMPDEST PUSH0 DUP2 CALLDATALOAD SWAP1 POP PUSH2 0xB8D DUP2 PUSH2 0xB69 JUMP JUMPDEST SWAP3 SWAP2 POP POP JUMP JUMPDEST PUSH0 PUSH0 PUSH1 0x40 DUP4 DUP6 SUB SLT ISZERO PUSH2 0xBA9 JUMPI PUSH2 0xBA8 PUSH2 0x77C JUMP JUMPDEST JUMPDEST PUSH0 PUSH2 0xBB6 DUP6 DUP3 DUP7 ADD PUSH2 0x7A3 JUMP JUMPDEST SWAP3 POP POP PUSH1 0x20 PUSH2 0xBC7 DUP6 DUP3 DUP7 ADD PUSH2 0xB7F JUMP JUMPDEST SWAP2 POP POP SWAP3 POP SWAP3 SWAP1 POP JUMP JUMPDEST PUSH0 PUSH1 0x20 DUP3 ADD SWAP1 POP PUSH2 0xBE4 PUSH0 DUP4 ADD DUP5 PUSH2 0x7E2 JUMP JUMPDEST SWAP3 SWAP2 POP POP JUMP JUMPDEST PUSH32 0x4E487B7100000000000000000000000000000000000000000000000000000000 PUSH0 MSTORE PUSH1 0x22 PUSH1 0x4 MSTORE PUSH1 0x24 PUSH0 REVERT JUMPDEST PUSH0 PUSH1 0x2 DUP3 DIV SWAP1 POP PUSH1 0x1 DUP3 AND DUP1 PUSH2 0xC2E JUMPI PUSH1 0x7F DUP3 AND SWAP2 POP JUMPDEST PUSH1 0x20 DUP3 LT DUP2 SUB PUSH2 0xC41 JUMPI PUSH2 0xC40 PUSH2 0xBEA JUMP JUMPDEST JUMPDEST POP SWAP2 SWAP1 POP JUMP JUMPDEST PUSH32 0x4F6E6C7920746865206F776E65722063616E2063616C6C20746869732066756E PUSH0 DUP3 ADD MSTORE PUSH32 0x6374696F6E000000000000000000000000000000000000000000000000000000 PUSH1 0x20 DUP3 ADD MSTORE POP JUMP JUMPDEST PUSH0 PUSH2 0xCA1 PUSH1 0x25 DUP4 PUSH2 0x7FB JUMP JUMPDEST SWAP2 POP PUSH2 0xCAC DUP3 PUSH2 0xC47 JUMP JUMPDEST PUSH1 0x40 DUP3 ADD SWAP1 POP SWAP2 SWAP1 POP JUMP JUMPDEST PUSH0 PUSH1 0x20 DUP3 ADD SWAP1 POP DUP2 DUP2 SUB PUSH0 DUP4 ADD MSTORE PUSH2 0xCCE DUP2 PUSH2 0xC95 JUMP JUMPDEST SWAP1 POP SWAP2 SWAP1 POP JUMP JUMPDEST PUSH32 0x4E487B7100000000000000000000000000000000000000000000000000000000 PUSH0 MSTORE PUSH1 0x11 PUSH1 0x4 MSTORE PUSH1 0x24 PUSH0 REVERT JUMPDEST PUSH0 PUSH2 0xD0C DUP3 PUSH2 0x784 JUMP JUMPDEST SWAP2 POP PUSH32 0xFFFFFFFFFFFFFFFFFFFFFFFFFFFFFFFFFFFFFFFFFFFFFFFFFFFFFFFFFFFFFFFF DUP3 SUB PUSH2 0xD3E JUMPI PUSH2 0xD3D PUSH2 0xCD5 JUMP JUMPDEST JUMPDEST PUSH1 0x1 DUP3 ADD SWAP1 POP SWAP2 SWAP1 POP JUMP JUMPDEST PUSH0 DUP2 SWAP1 POP DUP2 PUSH0 MSTORE PUSH1 0x20 PUSH0 KECCAK256 SWAP1 POP SWAP2 SWAP1 POP JUMP JUMPDEST PUSH0 PUSH1 0x20 PUSH1 0x1F DUP4 ADD DIV SWAP1 POP SWAP2 SWAP1 POP JUMP JUMPDEST PUSH0 DUP3 DUP3 SHL SWAP1 POP SWAP3 SWAP2 POP POP JUMP JUMPDEST PUSH0 PUSH1 0x8 DUP4 MUL PUSH2 0xDA5 PUSH32 0xFFFFFFFFFFFFFFFFFFFFFFFFFFFFFFFFFFFFFFFFFFFFFFFFFFFFFFFFFFFFFFFF DUP3 PUSH2 0xD6A JUMP JUMPDEST PUSH2 0xDAF DUP7 DUP4 PUSH2 0xD6A JUMP JUMPDEST SWAP6 POP DUP1 NOT DUP5 AND SWAP4 POP DUP1 DUP7 AND DUP5 OR SWAP3 POP POP POP SWAP4 SWAP3 POP POP POP JUMP JUMPDEST PUSH0 DUP2 SWAP1 POP SWAP2 SWAP1 POP JUMP JUMPDEST PUSH0 PUSH2 0xDEA PUSH2 0xDE5 PUSH2 0xDE0 DUP5 PUSH2 0x784 JUMP JUMPDEST PUSH2 0xDC7 JUMP JUMPDEST PUSH2 0x784 JUMP JUMPDEST SWAP1 POP SWAP2 SWAP1 POP JUMP JUMPDEST PUSH0 DUP2 SWAP1 POP SWAP2 SWAP1 POP JUMP JUMPDEST PUSH2 0xE03 DUP4 PUSH2 0xDD0 JUMP JUMPDEST PUSH2 0xE17 PUSH2 0xE0F DUP3 PUSH2 0xDF1 JUMP JUMPDEST DUP5 DUP5 SLOAD PUSH2 0xD76 JUMP JUMPDEST DUP3 SSTORE POP POP POP POP JUMP JUMPDEST PUSH0 PUSH0 SWAP1 POP SWAP1 JUMP JUMPDEST PUSH2 0xE2E PUSH2 0xE1F JUMP JUMPDEST PUSH2 0xE39 DUP2 DUP5 DUP5 PUSH2 0xDFA JUMP JUMPDEST POP POP POP JUMP JUMPDEST JUMPDEST DUP2 DUP2 LT ISZERO PUSH2 0xE5C JUMPI PUSH2 0xE51 PUSH0 DUP3 PUSH2 0xE26 JUMP JUMPDEST PUSH1 0x1 DUP2 ADD SWAP1 POP PUSH2 0xE3F JUMP JUMPDEST POP POP JUMP JUMPDEST PUSH1 0x1F DUP3 GT ISZERO PUSH2 0xEA1 JUMPI PUSH2 0xE72 DUP2 PUSH2 0xD49 JUMP JUMPDEST PUSH2 0xE7B DUP5 PUSH2 0xD5B JUMP JUMPDEST DUP2 ADD PUSH1 0x20 DUP6 LT ISZERO PUSH2 0xE8A JUMPI DUP2 SWAP1 POP JUMPDEST PUSH2 0xE9E PUSH2 0xE96 DUP6 PUSH2 0xD5B JUMP JUMPDEST DUP4 ADD DUP3 PUSH2 0xE3E JUMP JUMPDEST POP POP JUMPDEST POP POP POP JUMP JUMPDEST PUSH0 DUP3 DUP3 SHR SWAP1 POP SWAP3 SWAP2 POP POP JUMP JUMPDEST PUSH0 PUSH2 0xEC1 PUSH0 NOT DUP5 PUSH1 0x8 MUL PUSH2 0xEA6 JUMP JUMPDEST NOT DUP1 DUP4 AND SWAP2 POP POP SWAP3 SWAP2 POP POP JUMP JUMPDEST PUSH0 PUSH2 0xED9 DUP4 DUP4 PUSH2 0xEB2 JUMP JUMPDEST SWAP2 POP DUP3 PUSH1 0x2 MUL DUP3 OR SWAP1 POP SWAP3 SWAP2 POP POP JUMP JUMPDEST PUSH2 0xEF2 DUP3 PUSH2 0x7F1 JUMP JUMPDEST PUSH8 0xFFFFFFFFFFFFFFFF DUP2 GT ISZERO PUSH2 0xF0B JUMPI PUSH2 0xF0A PUSH2 0x98C JUMP JUMPDEST JUMPDEST PUSH2 0xF15 DUP3 SLOAD PUSH2 0xC17 JUMP JUMPDEST PUSH2 0xF20 DUP3 DUP3 DUP6 PUSH2 0xE60 JUMP JUMPDEST PUSH0 PUSH1 0x20 SWAP1 POP PUSH1 0x1F DUP4 GT PUSH1 0x1 DUP2 EQ PUSH2 0xF51 JUMPI PUSH0 DUP5 ISZERO PUSH2 0xF3F JUMPI DUP3 DUP8 ADD MLOAD SWAP1 POP JUMPDEST PUSH2 0xF49 DUP6 DUP3 PUSH2 0xECE JUMP JUMPDEST DUP7 SSTORE POP PUSH2 0xFB0 JUMP JUMPDEST PUSH1 0x1F NOT DUP5 AND PUSH2 0xF5F DUP7 PUSH2 0xD49 JUMP JUMPDEST PUSH0 JUMPDEST DUP3 DUP2 LT ISZERO PUSH2 0xF86 JUMPI DUP5 DUP10 ADD MLOAD DUP3 SSTORE PUSH1 0x1 DUP3 ADD SWAP2 POP PUSH1 0x20 DUP6 ADD SWAP5 POP PUSH1 0x20 DUP2 ADD SWAP1 POP PUSH2 0xF61 JUMP JUMPDEST DUP7 DUP4 LT ISZERO PUSH2 0xFA3 JUMPI DUP5 DUP10 ADD MLOAD PUSH2 0xF9F PUSH1 0x1F DUP10 AND DUP3 PUSH2 0xEB2 JUMP JUMPDEST DUP4 SSTORE POP JUMPDEST PUSH1 0x1 PUSH1 0x2 DUP9 MUL ADD DUP9 SSTORE POP POP POP JUMPDEST POP POP POP POP POP POP JUMP JUMPDEST PUSH32 0x566F74696E6720697320636C6F73656400000000000000000000000000000000 PUSH0 DUP3 ADD MSTORE POP JUMP JUMPDEST PUSH0 PUSH2 0xFEC PUSH1 0x10 DUP4 PUSH2 0x7FB JUMP JUMPDEST SWAP2 POP PUSH2 0xFF7 DUP3 PUSH2 0xFB8 JUMP JUMPDEST PUSH1 0x20 DUP3 ADD SWAP1 POP SWAP2 SWAP1 POP JUMP JUMPDEST PUSH0 PUSH1 0x20 DUP3 ADD SWAP1 POP DUP2 DUP2 SUB PUSH0 DUP4 ADD MSTORE PUSH2 0x1019 DUP2 PUSH2 0xFE0 JUMP JUMPDEST SWAP1 POP SWAP2 SWAP1 POP JUMP JUMPDEST PUSH32 0x596F75206861766520616C726561647920766F74656400000000000000000000 PUSH0 DUP3 ADD MSTORE POP JUMP JUMPDEST PUSH0 PUSH2 0x1054 PUSH1 0x16 DUP4 PUSH2 0x7FB JUMP JUMPDEST SWAP2 POP PUSH2 0x105F DUP3 PUSH2 0x1020 JUMP JUMPDEST PUSH1 0x20 DUP3 ADD SWAP1 POP SWAP2 SWAP1 POP JUMP JUMPDEST PUSH0 PUSH1 0x20 DUP3 ADD SWAP1 POP DUP2 DUP2 SUB PUSH0 DUP4 ADD MSTORE PUSH2 0x1081 DUP2 PUSH2 0x1048 JUMP JUMPDEST SWAP1 POP SWAP2 SWAP1 POP JUMP INVALID LOG2 PUSH5 0x6970667358 0x22 SLT KECCAK256 0xDA RJUMPI 0xAE74 DUP13 CREATE2 PUSH19 0xF68F6C35A8AB67927EEA401A89041549D4235C 0x2C 0xCB LOG4 0xA6 0xCC PUSH16 0x64736F6C634300081E00330000000000 "
				},
				"gasEstimates": {
					"creation": {
						"codeDepositCost": "857200",
						"executionCost": "25152",
						"totalCost": "882352"
					},
					"external": {
						"closeProposal(uint256)": "26939",
						"createProposal(string)": "infinite",
						"getProposal(uint256)": "infinite",
						"hasVoted(uint256,address)": "3115",
						"owner()": "2507",
						"proposalCount()": "2491",
						"proposals(uint256)": "infinite",
						"vote(uint256,bool)": "infinite"
					}
				},
				"methodIdentifiers": {
					"closeProposal(uint256)": "0386a016",
					"createProposal(string)": "49c2a1a6",
					"getProposal(uint256)": "c7f758a8",
					"hasVoted(uint256,address)": "43859632",
					"owner()": "8da5cb5b",
					"proposalCount()": "da35c664",
					"proposals(uint256)": "013cf08b",
					"vote(uint256,bool)": "c9d27afe"
				}
			},
			"storageLayout": {
				"storage": [
					{
						"astId": 3,
						"contract": "Smart Contracts/2_DAOVotingSystem.sol:VotingSystem",
						"label": "owner",
						"offset": 0,
						"slot": "0",
						"type": "t_address"
					},
					{
						"astId": 37,
						"contract": "Smart Contracts/2_DAOVotingSystem.sol:VotingSystem",
						"label": "proposalCount",
						"offset": 0,
						"slot": "1",
						"type": "t_uint256"
					},
					{
						"astId": 42,
						"contract": "Smart Contracts/2_DAOVotingSystem.sol:VotingSystem",
						"label": "proposals",
						"offset": 0,
						"slot": "2",
						"type": "t_mapping(t_uint256,t_struct(Proposal)35_storage)"
					},
					{
						"astId": 48,
						"contract": "Smart Contracts/2_DAOVotingSystem.sol:VotingSystem",
						"label": "hasVoted",
						"offset": 0,
						"slot": "3",
						"type": "t_mapping(t_uint256,t_mapping(t_address,t_bool))"
					}
				],
				"types": {
					"t_address": {
						"encoding": "inplace",
						"label": "address",
						"numberOfBytes": "20"
					},
					"t_bool": {
						"encoding": "inplace",
						"label": "bool",
						"numberOfBytes": "1"
					},
					"t_mapping(t_address,t_bool)": {
						"encoding": "mapping",
						"key": "t_address",
						"label": "mapping(address => bool)",
						"numberOfBytes": "32",
						"value": "t_bool"
					},
					"t_mapping(t_uint256,t_mapping(t_address,t_bool))": {
						"encoding": "mapping",
						"key": "t_uint256",
						"label": "mapping(uint256 => mapping(address => bool))",
						"numberOfBytes": "32",
						"value": "t_mapping(t_address,t_bool)"
					},
					"t_mapping(t_uint256,t_struct(Proposal)35_storage)": {
						"encoding": "mapping",
						"key": "t_uint256",
						"label": "mapping(uint256 => struct VotingSystem.Proposal)",
						"numberOfBytes": "32",
						"value": "t_struct(Proposal)35_storage"
					},
					"t_string_storage": {
						"encoding": "bytes",
						"label": "string",
						"numberOfBytes": "32"
					},
					"t_struct(Proposal)35_storage": {
						"encoding": "inplace",
						"label": "struct VotingSystem.Proposal",
						"members": [
							{
								"astId": 26,
								"contract": "Smart Contracts/2_DAOVotingSystem.sol:VotingSystem",
								"label": "id",
								"offset": 0,
								"slot": "0",
								"type": "t_uint256"
							},
							{
								"astId": 28,
								"contract": "Smart Contracts/2_DAOVotingSystem.sol:VotingSystem",
								"label": "description",
								"offset": 0,
								"slot": "1",
								"type": "t_string_storage"
							},
							{
								"astId": 30,
								"contract": "Smart Contracts/2_DAOVotingSystem.sol:VotingSystem",
								"label": "yesVote",
								"offset": 0,
								"slot": "2",
								"type": "t_uint256"
							},
							{
								"astId": 32,
								"contract": "Smart Contracts/2_DAOVotingSystem.sol:VotingSystem",
								"label": "noVote",
								"offset": 0,
								"slot": "3",
								"type": "t_uint256"
							},
							{
								"astId": 34,
								"contract": "Smart Contracts/2_DAOVotingSystem.sol:VotingSystem",
								"label": "isActive",
								"offset": 0,
								"slot": "4",
								"type": "t_bool"
							}
						],
						"numberOfBytes": "160"
					},
					"t_uint256": {
						"encoding": "inplace",
						"label": "uint256",
						"numberOfBytes": "32"
					}
				}
			},
			"userdoc": {
				"kind": "user",
				"methods": {},
				"version": 1
			}
		}
	}
}