{
	"Smart Contracts/12_Staking.sol": {
		"Staking": {
			"abi": [
				{
					"inputs": [
						{
							"internalType": "address",
							"name": "_stakingToken",
							"type": "address"
						},
						{
							"internalType": "address",
							"name": "_rewardToken",
							"type": "address"
						},
						{
							"internalType": "uint256",
							"name": "_rewardRate",
							"type": "uint256"
						}
					],
					"stateMutability": "nonpayable",
					"type": "constructor"
				},
				{
					"inputs": [
						{
							"internalType": "address",
							"name": "user",
							"type": "address"
						}
					],
					"name": "earned",
					"outputs": [
						{
							"internalType": "uint256",
							"name": "",
							"type": "uint256"
						}
					],
					"stateMutability": "view",
					"type": "function"
				},
				{
					"inputs": [
						{
							"internalType": "address",
							"name": "",
							"type": "address"
						}
					],
					"name": "lastUpdateTime",
					"outputs": [
						{
							"internalType": "uint256",
							"name": "",
							"type": "uint256"
						}
					],
					"stateMutability": "view",
					"type": "function"
				},
				{
					"inputs": [],
					"name": "rewardRate",
					"outputs": [
						{
							"internalType": "uint256",
							"name": "",
							"type": "uint256"
						}
					],
					"stateMutability": "view",
					"type": "function"
				},
				{
					"inputs": [],
					"name": "rewardToken",
					"outputs": [
						{
							"internalType": "contract IERC20",
							"name": "",
							"type": "address"
						}
					],
					"stateMutability": "view",
					"type": "function"
				},
				{
					"inputs": [
						{
							"internalType": "address",
							"name": "",
							"type": "address"
						}
					],
					"name": "rewards",
					"outputs": [
						{
							"internalType": "uint256",
							"name": "",
							"type": "uint256"
						}
					],
					"stateMutability": "view",
					"type": "function"
				},
				{
					"inputs": [
						{
							"internalType": "uint256",
							"name": "amount",
							"type": "uint256"
						}
					],
					"name": "stake",
					"outputs": [],
					"stateMutability": "nonpayable",
					"type": "function"
				},
				{
					"inputs": [
						{
							"internalType": "address",
							"name": "",
							"type": "address"
						}
					],
					"name": "stakedBalance",
					"outputs": [
						{
							"internalType": "uint256",
							"name": "",
							"type": "uint256"
						}
					],
					"stateMutability": "view",
					"type": "function"
				},
				{
					"inputs": [],
					"name": "stakingToken",
					"outputs": [
						{
							"internalType": "contract IERC20",
							"name": "",
							"type": "address"
						}
					],
					"stateMutability": "view",
					"type": "function"
				},
				{
					"inputs": [],
					"name": "totalStaked",
					"outputs": [
						{
							"internalType": "uint256",
							"name": "",
							"type": "uint256"
						}
					],
					"stateMutability": "view",
					"type": "function"
				},
				{
					"inputs": [
						{
							"internalType": "uint256",
							"name": "amount",
							"type": "uint256"
						}
					],
					"name": "unstake",
					"outputs": [],
					"stateMutability": "nonpayable",
					"type": "function"
				}
			],
			"devdoc": {
				"kind": "dev",
				"methods": {},
				"version": 1
			},
			"evm": {
				"assembly": "    /* \"Smart Contracts/12_Staking.sol\":184:1807  contract Staking is ReentrancyGuard{... */\n  mstore(0x40, 0x80)\n    /* \"Smart Contracts/12_Staking.sol\":522:734  constructor(address _stakingToken, address _rewardToken, uint256 _rewardRate){... */\n  callvalue\n  dup1\n  iszero\n  tag_1\n  jumpi\n  revert(0x00, 0x00)\ntag_1:\n  pop\n  mload(0x40)\n  sub(codesize, bytecodeSize)\n  dup1\n  bytecodeSize\n  dup4\n  codecopy\n  dup2\n  dup2\n  add\n  0x40\n  mstore\n  dup2\n  add\n  swap1\n  tag_2\n  swap2\n  swap1\n  tag_3\n  jump\t// in\ntag_2:\n    /* \"@openzeppelin/contracts/security/ReentrancyGuard.sol\":1716:1717  1 */\n  0x01\n    /* \"@openzeppelin/contracts/security/ReentrancyGuard.sol\":1821:1828  _status */\n  0x00\n    /* \"@openzeppelin/contracts/security/ReentrancyGuard.sol\":1821:1843  _status = _NOT_ENTERED */\n  dup2\n  swap1\n  sstore\n  pop\n    /* \"Smart Contracts/12_Staking.sol\":632:645  _stakingToken */\n  dup3\n    /* \"Smart Contracts/12_Staking.sol\":610:622  stakingToken */\n  0x01\n  0x00\n    /* \"Smart Contracts/12_Staking.sol\":610:646  stakingToken = IERC20(_stakingToken) */\n  0x0100\n  exp\n  dup2\n  sload\n  dup2\n  0xffffffffffffffffffffffffffffffffffffffff\n  mul\n  not\n  and\n  swap1\n  dup4\n  0xffffffffffffffffffffffffffffffffffffffff\n  and\n  mul\n  or\n  swap1\n  sstore\n  pop\n    /* \"Smart Contracts/12_Staking.sol\":678:690  _rewardToken */\n  dup2\n    /* \"Smart Contracts/12_Staking.sol\":657:668  rewardToken */\n  0x02\n  0x00\n    /* \"Smart Contracts/12_Staking.sol\":657:691  rewardToken = IERC20(_rewardToken) */\n  0x0100\n  exp\n  dup2\n  sload\n  dup2\n  0xffffffffffffffffffffffffffffffffffffffff\n  mul\n  not\n  and\n  swap1\n  dup4\n  0xffffffffffffffffffffffffffffffffffffffff\n  and\n  mul\n  or\n  swap1\n  sstore\n  pop\n    /* \"Smart Contracts/12_Staking.sol\":715:726  _rewardRate */\n  dup1\n    /* \"Smart Contracts/12_Staking.sol\":702:712  rewardRate */\n  0x03\n    /* \"Smart Contracts/12_Staking.sol\":702:726  rewardRate = _rewardRate */\n  dup2\n  swap1\n  sstore\n  pop\n    /* \"Smart Contracts/12_Staking.sol\":522:734  constructor(address _stakingToken, address _rewardToken, uint256 _rewardRate){... */\n  pop\n  pop\n  pop\n    /* \"Smart Contracts/12_Staking.sol\":184:1807  contract Staking is ReentrancyGuard{... */\n  jump(tag_8)\n    /* \"#utility.yul\":88:205   */\ntag_10:\n    /* \"#utility.yul\":197:198   */\n  0x00\n    /* \"#utility.yul\":194:195   */\n  0x00\n    /* \"#utility.yul\":187:199   */\n  revert\n    /* \"#utility.yul\":334:460   */\ntag_12:\n    /* \"#utility.yul\":371:378   */\n  0x00\n    /* \"#utility.yul\":411:453   */\n  0xffffffffffffffffffffffffffffffffffffffff\n    /* \"#utility.yul\":404:409   */\n  dup3\n    /* \"#utility.yul\":400:454   */\n  and\n    /* \"#utility.yul\":389:454   */\n  swap1\n  pop\n    /* \"#utility.yul\":334:460   */\n  swap2\n  swap1\n  pop\n  jump\t// out\n    /* \"#utility.yul\":466:562   */\ntag_13:\n    /* \"#utility.yul\":503:510   */\n  0x00\n    /* \"#utility.yul\":532:556   */\n  tag_25\n    /* \"#utility.yul\":550:555   */\n  dup3\n    /* \"#utility.yul\":532:556   */\n  tag_12\n  jump\t// in\ntag_25:\n    /* \"#utility.yul\":521:556   */\n  swap1\n  pop\n    /* \"#utility.yul\":466:562   */\n  swap2\n  swap1\n  pop\n  jump\t// out\n    /* \"#utility.yul\":568:690   */\ntag_14:\n    /* \"#utility.yul\":641:665   */\n  tag_27\n    /* \"#utility.yul\":659:664   */\n  dup2\n    /* \"#utility.yul\":641:665   */\n  tag_13\n  jump\t// in\ntag_27:\n    /* \"#utility.yul\":634:639   */\n  dup2\n    /* \"#utility.yul\":631:666   */\n  eq\n    /* \"#utility.yul\":621:684   */\n  tag_28\n  jumpi\n    /* \"#utility.yul\":680:681   */\n  0x00\n    /* \"#utility.yul\":677:678   */\n  0x00\n    /* \"#utility.yul\":670:682   */\n  revert\n    /* \"#utility.yul\":621:684   */\ntag_28:\n    /* \"#utility.yul\":568:690   */\n  pop\n  jump\t// out\n    /* \"#utility.yul\":696:839   */\ntag_15:\n    /* \"#utility.yul\":753:758   */\n  0x00\n    /* \"#utility.yul\":784:790   */\n  dup2\n    /* \"#utility.yul\":778:791   */\n  mload\n    /* \"#utility.yul\":769:791   */\n  swap1\n  pop\n    /* \"#utility.yul\":800:833   */\n  tag_30\n    /* \"#utility.yul\":827:832   */\n  dup2\n    /* \"#utility.yul\":800:833   */\n  tag_14\n  jump\t// in\ntag_30:\n    /* \"#utility.yul\":696:839   */\n  swap3\n  swap2\n  pop\n  pop\n  jump\t// out\n    /* \"#utility.yul\":845:922   */\ntag_16:\n    /* \"#utility.yul\":882:889   */\n  0x00\n    /* \"#utility.yul\":911:916   */\n  dup2\n    /* \"#utility.yul\":900:916   */\n  swap1\n  pop\n    /* \"#utility.yul\":845:922   */\n  swap2\n  swap1\n  pop\n  jump\t// out\n    /* \"#utility.yul\":928:1050   */\ntag_17:\n    /* \"#utility.yul\":1001:1025   */\n  tag_33\n    /* \"#utility.yul\":1019:1024   */\n  dup2\n    /* \"#utility.yul\":1001:1025   */\n  tag_16\n  jump\t// in\ntag_33:\n    /* \"#utility.yul\":994:999   */\n  dup2\n    /* \"#utility.yul\":991:1026   */\n  eq\n    /* \"#utility.yul\":981:1044   */\n  tag_34\n  jumpi\n    /* \"#utility.yul\":1040:1041   */\n  0x00\n    /* \"#utility.yul\":1037:1038   */\n  0x00\n    /* \"#utility.yul\":1030:1042   */\n  revert\n    /* \"#utility.yul\":981:1044   */\ntag_34:\n    /* \"#utility.yul\":928:1050   */\n  pop\n  jump\t// out\n    /* \"#utility.yul\":1056:1199   */\ntag_18:\n    /* \"#utility.yul\":1113:1118   */\n  0x00\n    /* \"#utility.yul\":1144:1150   */\n  dup2\n    /* \"#utility.yul\":1138:1151   */\n  mload\n    /* \"#utility.yul\":1129:1151   */\n  swap1\n  pop\n    /* \"#utility.yul\":1160:1193   */\n  tag_36\n    /* \"#utility.yul\":1187:1192   */\n  dup2\n    /* \"#utility.yul\":1160:1193   */\n  tag_17\n  jump\t// in\ntag_36:\n    /* \"#utility.yul\":1056:1199   */\n  swap3\n  swap2\n  pop\n  pop\n  jump\t// out\n    /* \"#utility.yul\":1205:1868   */\ntag_3:\n    /* \"#utility.yul\":1293:1299   */\n  0x00\n    /* \"#utility.yul\":1301:1307   */\n  0x00\n    /* \"#utility.yul\":1309:1315   */\n  0x00\n    /* \"#utility.yul\":1358:1360   */\n  0x60\n    /* \"#utility.yul\":1346:1355   */\n  dup5\n    /* \"#utility.yul\":1337:1344   */\n  dup7\n    /* \"#utility.yul\":1333:1356   */\n  sub\n    /* \"#utility.yul\":1329:1361   */\n  slt\n    /* \"#utility.yul\":1326:1445   */\n  iszero\n  tag_38\n  jumpi\n    /* \"#utility.yul\":1364:1443   */\n  tag_39\n  tag_10\n  jump\t// in\ntag_39:\n    /* \"#utility.yul\":1326:1445   */\ntag_38:\n    /* \"#utility.yul\":1484:1485   */\n  0x00\n    /* \"#utility.yul\":1509:1573   */\n  tag_40\n    /* \"#utility.yul\":1565:1572   */\n  dup7\n    /* \"#utility.yul\":1556:1562   */\n  dup3\n    /* \"#utility.yul\":1545:1554   */\n  dup8\n    /* \"#utility.yul\":1541:1563   */\n  add\n    /* \"#utility.yul\":1509:1573   */\n  tag_15\n  jump\t// in\ntag_40:\n    /* \"#utility.yul\":1499:1573   */\n  swap4\n  pop\n    /* \"#utility.yul\":1455:1583   */\n  pop\n    /* \"#utility.yul\":1622:1624   */\n  0x20\n    /* \"#utility.yul\":1648:1712   */\n  tag_41\n    /* \"#utility.yul\":1704:1711   */\n  dup7\n    /* \"#utility.yul\":1695:1701   */\n  dup3\n    /* \"#utility.yul\":1684:1693   */\n  dup8\n    /* \"#utility.yul\":1680:1702   */\n  add\n    /* \"#utility.yul\":1648:1712   */\n  tag_15\n  jump\t// in\ntag_41:\n    /* \"#utility.yul\":1638:1712   */\n  swap3\n  pop\n    /* \"#utility.yul\":1593:1722   */\n  pop\n    /* \"#utility.yul\":1761:1763   */\n  0x40\n    /* \"#utility.yul\":1787:1851   */\n  tag_42\n    /* \"#utility.yul\":1843:1850   */\n  dup7\n    /* \"#utility.yul\":1834:1840   */\n  dup3\n    /* \"#utility.yul\":1823:1832   */\n  dup8\n    /* \"#utility.yul\":1819:1841   */\n  add\n    /* \"#utility.yul\":1787:1851   */\n  tag_18\n  jump\t// in\ntag_42:\n    /* \"#utility.yul\":1777:1851   */\n  swap2\n  pop\n    /* \"#utility.yul\":1732:1861   */\n  pop\n    /* \"#utility.yul\":1205:1868   */\n  swap3\n  pop\n  swap3\n  pop\n  swap3\n  jump\t// out\n    /* \"Smart Contracts/12_Staking.sol\":184:1807  contract Staking is ReentrancyGuard{... */\ntag_8:\n  dataSize(sub_0)\n  dup1\n  dataOffset(sub_0)\n  0x00\n  codecopy\n  0x00\n  return\nstop\n\nsub_0: assembly {\n        /* \"Smart Contracts/12_Staking.sol\":184:1807  contract Staking is ReentrancyGuard{... */\n      mstore(0x40, 0x80)\n      callvalue\n      dup1\n      iszero\n      tag_1\n      jumpi\n      revert(0x00, 0x00)\n    tag_1:\n      pop\n      jumpi(tag_2, lt(calldatasize, 0x04))\n      shr(0xe0, calldataload(0x00))\n      dup1\n      0x72f702f3\n      gt\n      tag_13\n      jumpi\n      dup1\n      0x72f702f3\n      eq\n      tag_8\n      jumpi\n      dup1\n      0x7b0a47ee\n      eq\n      tag_9\n      jumpi\n      dup1\n      0x817b1cd2\n      eq\n      tag_10\n      jumpi\n      dup1\n      0xa694fc3a\n      eq\n      tag_11\n      jumpi\n      dup1\n      0xf7c618c1\n      eq\n      tag_12\n      jumpi\n      jump(tag_2)\n    tag_13:\n      dup1\n      0x8cc262\n      eq\n      tag_3\n      jumpi\n      dup1\n      0x0700037d\n      eq\n      tag_4\n      jumpi\n      dup1\n      0x2ce9aead\n      eq\n      tag_5\n      jumpi\n      dup1\n      0x2e17de78\n      eq\n      tag_6\n      jumpi\n      dup1\n      0x60217267\n      eq\n      tag_7\n      jumpi\n    tag_2:\n      revert(0x00, 0x00)\n        /* \"Smart Contracts/12_Staking.sol\":742:947  function earned(address user) public view returns (uint256){... */\n    tag_3:\n      tag_14\n      0x04\n      dup1\n      calldatasize\n      sub\n      dup2\n      add\n      swap1\n      tag_15\n      swap2\n      swap1\n      tag_16\n      jump\t// in\n    tag_15:\n      tag_17\n      jump\t// in\n    tag_14:\n      mload(0x40)\n      tag_18\n      swap2\n      swap1\n      tag_19\n      jump\t// in\n    tag_18:\n      mload(0x40)\n      dup1\n      swap2\n      sub\n      swap1\n      return\n        /* \"Smart Contracts/12_Staking.sol\":471:513  mapping(address => uint256) public rewards */\n    tag_4:\n      tag_20\n      0x04\n      dup1\n      calldatasize\n      sub\n      dup2\n      add\n      swap1\n      tag_21\n      swap2\n      swap1\n      tag_16\n      jump\t// in\n    tag_21:\n      tag_22\n      jump\t// in\n    tag_20:\n      mload(0x40)\n      tag_23\n      swap2\n      swap1\n      tag_19\n      jump\t// in\n    tag_23:\n      mload(0x40)\n      dup1\n      swap2\n      sub\n      swap1\n      return\n        /* \"Smart Contracts/12_Staking.sol\":415:464  mapping(address => uint256) public lastUpdateTime */\n    tag_5:\n      tag_24\n      0x04\n      dup1\n      calldatasize\n      sub\n      dup2\n      add\n      swap1\n      tag_25\n      swap2\n      swap1\n      tag_16\n      jump\t// in\n    tag_25:\n      tag_26\n      jump\t// in\n    tag_24:\n      mload(0x40)\n      tag_27\n      swap2\n      swap1\n      tag_19\n      jump\t// in\n    tag_27:\n      mload(0x40)\n      dup1\n      swap2\n      sub\n      swap1\n      return\n        /* \"Smart Contracts/12_Staking.sol\":1453:1802  function unstake(uint256 amount) external nonReentrant updateReward(msg.sender) {... */\n    tag_6:\n      tag_28\n      0x04\n      dup1\n      calldatasize\n      sub\n      dup2\n      add\n      swap1\n      tag_29\n      swap2\n      swap1\n      tag_30\n      jump\t// in\n    tag_29:\n      tag_31\n      jump\t// in\n    tag_28:\n      stop\n        /* \"Smart Contracts/12_Staking.sol\":360:408  mapping(address => uint256) public stakedBalance */\n    tag_7:\n      tag_32\n      0x04\n      dup1\n      calldatasize\n      sub\n      dup2\n      add\n      swap1\n      tag_33\n      swap2\n      swap1\n      tag_16\n      jump\t// in\n    tag_33:\n      tag_34\n      jump\t// in\n    tag_32:\n      mload(0x40)\n      tag_35\n      swap2\n      swap1\n      tag_19\n      jump\t// in\n    tag_35:\n      mload(0x40)\n      dup1\n      swap2\n      sub\n      swap1\n      return\n        /* \"Smart Contracts/12_Staking.sol\":226:252  IERC20 public stakingToken */\n    tag_8:\n      tag_36\n      tag_37\n      jump\t// in\n    tag_36:\n      mload(0x40)\n      tag_38\n      swap2\n      swap1\n      tag_39\n      jump\t// in\n    tag_38:\n      mload(0x40)\n      dup1\n      swap2\n      sub\n      swap1\n      return\n        /* \"Smart Contracts/12_Staking.sol\":293:318  uint256 public rewardRate */\n    tag_9:\n      tag_40\n      tag_41\n      jump\t// in\n    tag_40:\n      mload(0x40)\n      tag_42\n      swap2\n      swap1\n      tag_19\n      jump\t// in\n    tag_42:\n      mload(0x40)\n      dup1\n      swap2\n      sub\n      swap1\n      return\n        /* \"Smart Contracts/12_Staking.sol\":325:351  uint256 public totalStaked */\n    tag_10:\n      tag_43\n      tag_44\n      jump\t// in\n    tag_43:\n      mload(0x40)\n      tag_45\n      swap2\n      swap1\n      tag_19\n      jump\t// in\n    tag_45:\n      mload(0x40)\n      dup1\n      swap2\n      sub\n      swap1\n      return\n        /* \"Smart Contracts/12_Staking.sol\":1161:1445  function stake(uint256 amount) external nonReentrant updateReward(msg.sender){... */\n    tag_11:\n      tag_46\n      0x04\n      dup1\n      calldatasize\n      sub\n      dup2\n      add\n      swap1\n      tag_47\n      swap2\n      swap1\n      tag_30\n      jump\t// in\n    tag_47:\n      tag_48\n      jump\t// in\n    tag_46:\n      stop\n        /* \"Smart Contracts/12_Staking.sol\":259:284  IERC20 public rewardToken */\n    tag_12:\n      tag_49\n      tag_50\n      jump\t// in\n    tag_49:\n      mload(0x40)\n      tag_51\n      swap2\n      swap1\n      tag_39\n      jump\t// in\n    tag_51:\n      mload(0x40)\n      dup1\n      swap2\n      sub\n      swap1\n      return\n        /* \"Smart Contracts/12_Staking.sol\":742:947  function earned(address user) public view returns (uint256){... */\n    tag_17:\n        /* \"Smart Contracts/12_Staking.sol\":793:800  uint256 */\n      0x00\n        /* \"Smart Contracts/12_Staking.sol\":812:828  uint256 timeDiff */\n      0x00\n        /* \"Smart Contracts/12_Staking.sol\":849:863  lastUpdateTime */\n      0x06\n        /* \"Smart Contracts/12_Staking.sol\":849:869  lastUpdateTime[user] */\n      0x00\n        /* \"Smart Contracts/12_Staking.sol\":864:868  user */\n      dup5\n        /* \"Smart Contracts/12_Staking.sol\":849:869  lastUpdateTime[user] */\n      0xffffffffffffffffffffffffffffffffffffffff\n      and\n      0xffffffffffffffffffffffffffffffffffffffff\n      and\n      dup2\n      mstore\n      0x20\n      add\n      swap1\n      dup2\n      mstore\n      0x20\n      add\n      0x00\n      keccak256\n      sload\n        /* \"Smart Contracts/12_Staking.sol\":831:846  block.timestamp */\n      timestamp\n        /* \"Smart Contracts/12_Staking.sol\":831:869  block.timestamp - lastUpdateTime[user] */\n      tag_53\n      swap2\n      swap1\n      tag_54\n      jump\t// in\n    tag_53:\n        /* \"Smart Contracts/12_Staking.sol\":812:869  uint256 timeDiff = block.timestamp - lastUpdateTime[user] */\n      swap1\n      pop\n        /* \"Smart Contracts/12_Staking.sol\":935:939  1e18 */\n      0x0de0b6b3a7640000\n        /* \"Smart Contracts/12_Staking.sol\":923:931  timeDiff */\n      dup2\n        /* \"Smart Contracts/12_Staking.sol\":910:920  rewardRate */\n      sload(0x03)\n        /* \"Smart Contracts/12_Staking.sol\":888:901  stakedBalance */\n      0x05\n        /* \"Smart Contracts/12_Staking.sol\":888:907  stakedBalance[user] */\n      0x00\n        /* \"Smart Contracts/12_Staking.sol\":902:906  user */\n      dup8\n        /* \"Smart Contracts/12_Staking.sol\":888:907  stakedBalance[user] */\n      0xffffffffffffffffffffffffffffffffffffffff\n      and\n      0xffffffffffffffffffffffffffffffffffffffff\n      and\n      dup2\n      mstore\n      0x20\n      add\n      swap1\n      dup2\n      mstore\n      0x20\n      add\n      0x00\n      keccak256\n      sload\n        /* \"Smart Contracts/12_Staking.sol\":888:920  stakedBalance[user] * rewardRate */\n      tag_55\n      swap2\n      swap1\n      tag_56\n      jump\t// in\n    tag_55:\n        /* \"Smart Contracts/12_Staking.sol\":888:931  stakedBalance[user] * rewardRate * timeDiff */\n      tag_57\n      swap2\n      swap1\n      tag_56\n      jump\t// in\n    tag_57:\n        /* \"Smart Contracts/12_Staking.sol\":887:939  (stakedBalance[user] * rewardRate * timeDiff) / 1e18 */\n      tag_58\n      swap2\n      swap1\n      tag_59\n      jump\t// in\n    tag_58:\n        /* \"Smart Contracts/12_Staking.sol\":880:939  return (stakedBalance[user] * rewardRate * timeDiff) / 1e18 */\n      swap2\n      pop\n      pop\n        /* \"Smart Contracts/12_Staking.sol\":742:947  function earned(address user) public view returns (uint256){... */\n      swap2\n      swap1\n      pop\n      jump\t// out\n        /* \"Smart Contracts/12_Staking.sol\":471:513  mapping(address => uint256) public rewards */\n    tag_22:\n      mstore(0x20, 0x07)\n      dup1\n      0x00\n      mstore\n      keccak256(0x00, 0x40)\n      0x00\n      swap2\n      pop\n      swap1\n      pop\n      sload\n      dup2\n      jump\t// out\n        /* \"Smart Contracts/12_Staking.sol\":415:464  mapping(address => uint256) public lastUpdateTime */\n    tag_26:\n      mstore(0x20, 0x06)\n      dup1\n      0x00\n      mstore\n      keccak256(0x00, 0x40)\n      0x00\n      swap2\n      pop\n      swap1\n      pop\n      sload\n      dup2\n      jump\t// out\n        /* \"Smart Contracts/12_Staking.sol\":1453:1802  function unstake(uint256 amount) external nonReentrant updateReward(msg.sender) {... */\n    tag_31:\n        /* \"@openzeppelin/contracts/security/ReentrancyGuard.sol\":2261:2282  _nonReentrantBefore() */\n      tag_61\n        /* \"@openzeppelin/contracts/security/ReentrancyGuard.sol\":2261:2280  _nonReentrantBefore */\n      tag_62\n        /* \"@openzeppelin/contracts/security/ReentrancyGuard.sol\":2261:2282  _nonReentrantBefore() */\n      jump\t// in\n    tag_61:\n        /* \"Smart Contracts/12_Staking.sol\":1521:1531  msg.sender */\n      caller\n        /* \"Smart Contracts/12_Staking.sol\":1021:1022  0 */\n      0x00\n        /* \"Smart Contracts/12_Staking.sol\":1005:1023  user != address(0) */\n      0xffffffffffffffffffffffffffffffffffffffff\n      and\n        /* \"Smart Contracts/12_Staking.sol\":1005:1009  user */\n      dup2\n        /* \"Smart Contracts/12_Staking.sol\":1005:1023  user != address(0) */\n      0xffffffffffffffffffffffffffffffffffffffff\n      and\n      eq\n        /* \"Smart Contracts/12_Staking.sol\":1001:1134  if (user != address(0)) {... */\n      tag_64\n      jumpi\n        /* \"Smart Contracts/12_Staking.sol\":1057:1069  earned(user) */\n      tag_65\n        /* \"Smart Contracts/12_Staking.sol\":1064:1068  user */\n      dup2\n        /* \"Smart Contracts/12_Staking.sol\":1057:1063  earned */\n      tag_17\n        /* \"Smart Contracts/12_Staking.sol\":1057:1069  earned(user) */\n      jump\t// in\n    tag_65:\n        /* \"Smart Contracts/12_Staking.sol\":1040:1047  rewards */\n      0x07\n        /* \"Smart Contracts/12_Staking.sol\":1040:1053  rewards[user] */\n      0x00\n        /* \"Smart Contracts/12_Staking.sol\":1048:1052  user */\n      dup4\n        /* \"Smart Contracts/12_Staking.sol\":1040:1053  rewards[user] */\n      0xffffffffffffffffffffffffffffffffffffffff\n      and\n      0xffffffffffffffffffffffffffffffffffffffff\n      and\n      dup2\n      mstore\n      0x20\n      add\n      swap1\n      dup2\n      mstore\n      0x20\n      add\n      0x00\n      keccak256\n      0x00\n        /* \"Smart Contracts/12_Staking.sol\":1040:1069  rewards[user] += earned(user) */\n      dup3\n      dup3\n      sload\n      tag_66\n      swap2\n      swap1\n      tag_67\n      jump\t// in\n    tag_66:\n      swap3\n      pop\n      pop\n      dup2\n      swap1\n      sstore\n      pop\n        /* \"Smart Contracts/12_Staking.sol\":1107:1122  block.timestamp */\n      timestamp\n        /* \"Smart Contracts/12_Staking.sol\":1084:1098  lastUpdateTime */\n      0x06\n        /* \"Smart Contracts/12_Staking.sol\":1084:1104  lastUpdateTime[user] */\n      0x00\n        /* \"Smart Contracts/12_Staking.sol\":1099:1103  user */\n      dup4\n        /* \"Smart Contracts/12_Staking.sol\":1084:1104  lastUpdateTime[user] */\n      0xffffffffffffffffffffffffffffffffffffffff\n      and\n      0xffffffffffffffffffffffffffffffffffffffff\n      and\n      dup2\n      mstore\n      0x20\n      add\n      swap1\n      dup2\n      mstore\n      0x20\n      add\n      0x00\n      keccak256\n        /* \"Smart Contracts/12_Staking.sol\":1084:1122  lastUpdateTime[user] = block.timestamp */\n      dup2\n      swap1\n      sstore\n      pop\n        /* \"Smart Contracts/12_Staking.sol\":1001:1134  if (user != address(0)) {... */\n    tag_64:\n        /* \"Smart Contracts/12_Staking.sol\":1561:1562  0 */\n      0x00\n        /* \"Smart Contracts/12_Staking.sol\":1552:1558  amount */\n      dup3\n        /* \"Smart Contracts/12_Staking.sol\":1552:1562  amount > 0 */\n      gt\n        /* \"Smart Contracts/12_Staking.sol\":1544:1583  require(amount > 0, \"Cannot unstake 0\") */\n      tag_69\n      jumpi\n      mload(0x40)\n      0x08c379a000000000000000000000000000000000000000000000000000000000\n      dup2\n      mstore\n      0x04\n      add\n      tag_70\n      swap1\n      tag_71\n      jump\t// in\n    tag_70:\n      mload(0x40)\n      dup1\n      swap2\n      sub\n      swap1\n      revert\n    tag_69:\n        /* \"Smart Contracts/12_Staking.sol\":1631:1637  amount */\n      dup2\n        /* \"Smart Contracts/12_Staking.sol\":1602:1615  stakedBalance */\n      0x05\n        /* \"Smart Contracts/12_Staking.sol\":1602:1627  stakedBalance[msg.sender] */\n      0x00\n        /* \"Smart Contracts/12_Staking.sol\":1616:1626  msg.sender */\n      caller\n        /* \"Smart Contracts/12_Staking.sol\":1602:1627  stakedBalance[msg.sender] */\n      0xffffffffffffffffffffffffffffffffffffffff\n      and\n      0xffffffffffffffffffffffffffffffffffffffff\n      and\n      dup2\n      mstore\n      0x20\n      add\n      swap1\n      dup2\n      mstore\n      0x20\n      add\n      0x00\n      keccak256\n      sload\n        /* \"Smart Contracts/12_Staking.sol\":1602:1637  stakedBalance[msg.sender] >= amount */\n      lt\n      iszero\n        /* \"Smart Contracts/12_Staking.sol\":1594:1660  require(stakedBalance[msg.sender] >= amount, \"Insufficient stake\") */\n      tag_72\n      jumpi\n      mload(0x40)\n      0x08c379a000000000000000000000000000000000000000000000000000000000\n      dup2\n      mstore\n      0x04\n      add\n      tag_73\n      swap1\n      tag_74\n      jump\t// in\n    tag_73:\n      mload(0x40)\n      dup1\n      swap2\n      sub\n      swap1\n      revert\n    tag_72:\n        /* \"Smart Contracts/12_Staking.sol\":1702:1708  amount */\n      dup2\n        /* \"Smart Contracts/12_Staking.sol\":1673:1686  stakedBalance */\n      0x05\n        /* \"Smart Contracts/12_Staking.sol\":1673:1698  stakedBalance[msg.sender] */\n      0x00\n        /* \"Smart Contracts/12_Staking.sol\":1687:1697  msg.sender */\n      caller\n        /* \"Smart Contracts/12_Staking.sol\":1673:1698  stakedBalance[msg.sender] */\n      0xffffffffffffffffffffffffffffffffffffffff\n      and\n      0xffffffffffffffffffffffffffffffffffffffff\n      and\n      dup2\n      mstore\n      0x20\n      add\n      swap1\n      dup2\n      mstore\n      0x20\n      add\n      0x00\n      keccak256\n      0x00\n        /* \"Smart Contracts/12_Staking.sol\":1673:1708  stakedBalance[msg.sender] -= amount */\n      dup3\n      dup3\n      sload\n      tag_75\n      swap2\n      swap1\n      tag_54\n      jump\t// in\n    tag_75:\n      swap3\n      pop\n      pop\n      dup2\n      swap1\n      sstore\n      pop\n        /* \"Smart Contracts/12_Staking.sol\":1734:1740  amount */\n      dup2\n        /* \"Smart Contracts/12_Staking.sol\":1719:1730  totalStaked */\n      0x04\n      0x00\n        /* \"Smart Contracts/12_Staking.sol\":1719:1740  totalStaked -= amount */\n      dup3\n      dup3\n      sload\n      tag_76\n      swap2\n      swap1\n      tag_54\n      jump\t// in\n    tag_76:\n      swap3\n      pop\n      pop\n      dup2\n      swap1\n      sstore\n      pop\n        /* \"Smart Contracts/12_Staking.sol\":1753:1765  stakingToken */\n      0x01\n      0x00\n      swap1\n      sload\n      swap1\n      0x0100\n      exp\n      swap1\n      div\n      0xffffffffffffffffffffffffffffffffffffffff\n      and\n        /* \"Smart Contracts/12_Staking.sol\":1753:1774  stakingToken.transfer */\n      0xffffffffffffffffffffffffffffffffffffffff\n      and\n      0xa9059cbb\n        /* \"Smart Contracts/12_Staking.sol\":1775:1785  msg.sender */\n      caller\n        /* \"Smart Contracts/12_Staking.sol\":1787:1793  amount */\n      dup5\n        /* \"Smart Contracts/12_Staking.sol\":1753:1794  stakingToken.transfer(msg.sender, amount) */\n      mload(0x40)\n      dup4\n      0xffffffff\n      and\n      0xe0\n      shl\n      dup2\n      mstore\n      0x04\n      add\n      tag_77\n      swap3\n      swap2\n      swap1\n      tag_78\n      jump\t// in\n    tag_77:\n      0x20\n      mload(0x40)\n      dup1\n      dup4\n      sub\n      dup2\n      0x00\n      dup8\n      gas\n      call\n      iszero\n      dup1\n      iszero\n      tag_80\n      jumpi\n      returndatacopy(0x00, 0x00, returndatasize)\n      revert(0x00, returndatasize)\n    tag_80:\n      pop\n      pop\n      pop\n      pop\n      mload(0x40)\n      returndatasize\n      not(0x1f)\n      0x1f\n      dup3\n      add\n      and\n      dup3\n      add\n      dup1\n      0x40\n      mstore\n      pop\n      dup2\n      add\n      swap1\n      tag_81\n      swap2\n      swap1\n      tag_82\n      jump\t// in\n    tag_81:\n      pop\n        /* \"@openzeppelin/contracts/security/ReentrancyGuard.sol\":2292:2293  _ */\n      pop\n        /* \"@openzeppelin/contracts/security/ReentrancyGuard.sol\":2303:2323  _nonReentrantAfter() */\n      tag_83\n        /* \"@openzeppelin/contracts/security/ReentrancyGuard.sol\":2303:2321  _nonReentrantAfter */\n      tag_84\n        /* \"@openzeppelin/contracts/security/ReentrancyGuard.sol\":2303:2323  _nonReentrantAfter() */\n      jump\t// in\n    tag_83:\n        /* \"Smart Contracts/12_Staking.sol\":1453:1802  function unstake(uint256 amount) external nonReentrant updateReward(msg.sender) {... */\n      pop\n      jump\t// out\n        /* \"Smart Contracts/12_Staking.sol\":360:408  mapping(address => uint256) public stakedBalance */\n    tag_34:\n      mstore(0x20, 0x05)\n      dup1\n      0x00\n      mstore\n      keccak256(0x00, 0x40)\n      0x00\n      swap2\n      pop\n      swap1\n      pop\n      sload\n      dup2\n      jump\t// out\n        /* \"Smart Contracts/12_Staking.sol\":226:252  IERC20 public stakingToken */\n    tag_37:\n      0x01\n      0x00\n      swap1\n      sload\n      swap1\n      0x0100\n      exp\n      swap1\n      div\n      0xffffffffffffffffffffffffffffffffffffffff\n      and\n      dup2\n      jump\t// out\n        /* \"Smart Contracts/12_Staking.sol\":293:318  uint256 public rewardRate */\n    tag_41:\n      sload(0x03)\n      dup2\n      jump\t// out\n        /* \"Smart Contracts/12_Staking.sol\":325:351  uint256 public totalStaked */\n    tag_44:\n      sload(0x04)\n      dup2\n      jump\t// out\n        /* \"Smart Contracts/12_Staking.sol\":1161:1445  function stake(uint256 amount) external nonReentrant updateReward(msg.sender){... */\n    tag_48:\n        /* \"@openzeppelin/contracts/security/ReentrancyGuard.sol\":2261:2282  _nonReentrantBefore() */\n      tag_86\n        /* \"@openzeppelin/contracts/security/ReentrancyGuard.sol\":2261:2280  _nonReentrantBefore */\n      tag_62\n        /* \"@openzeppelin/contracts/security/ReentrancyGuard.sol\":2261:2282  _nonReentrantBefore() */\n      jump\t// in\n    tag_86:\n        /* \"Smart Contracts/12_Staking.sol\":1227:1237  msg.sender */\n      caller\n        /* \"Smart Contracts/12_Staking.sol\":1021:1022  0 */\n      0x00\n        /* \"Smart Contracts/12_Staking.sol\":1005:1023  user != address(0) */\n      0xffffffffffffffffffffffffffffffffffffffff\n      and\n        /* \"Smart Contracts/12_Staking.sol\":1005:1009  user */\n      dup2\n        /* \"Smart Contracts/12_Staking.sol\":1005:1023  user != address(0) */\n      0xffffffffffffffffffffffffffffffffffffffff\n      and\n      eq\n        /* \"Smart Contracts/12_Staking.sol\":1001:1134  if (user != address(0)) {... */\n      tag_88\n      jumpi\n        /* \"Smart Contracts/12_Staking.sol\":1057:1069  earned(user) */\n      tag_89\n        /* \"Smart Contracts/12_Staking.sol\":1064:1068  user */\n      dup2\n        /* \"Smart Contracts/12_Staking.sol\":1057:1063  earned */\n      tag_17\n        /* \"Smart Contracts/12_Staking.sol\":1057:1069  earned(user) */\n      jump\t// in\n    tag_89:\n        /* \"Smart Contracts/12_Staking.sol\":1040:1047  rewards */\n      0x07\n        /* \"Smart Contracts/12_Staking.sol\":1040:1053  rewards[user] */\n      0x00\n        /* \"Smart Contracts/12_Staking.sol\":1048:1052  user */\n      dup4\n        /* \"Smart Contracts/12_Staking.sol\":1040:1053  rewards[user] */\n      0xffffffffffffffffffffffffffffffffffffffff\n      and\n      0xffffffffffffffffffffffffffffffffffffffff\n      and\n      dup2\n      mstore\n      0x20\n      add\n      swap1\n      dup2\n      mstore\n      0x20\n      add\n      0x00\n      keccak256\n      0x00\n        /* \"Smart Contracts/12_Staking.sol\":1040:1069  rewards[user] += earned(user) */\n      dup3\n      dup3\n      sload\n      tag_90\n      swap2\n      swap1\n      tag_67\n      jump\t// in\n    tag_90:\n      swap3\n      pop\n      pop\n      dup2\n      swap1\n      sstore\n      pop\n        /* \"Smart Contracts/12_Staking.sol\":1107:1122  block.timestamp */\n      timestamp\n        /* \"Smart Contracts/12_Staking.sol\":1084:1098  lastUpdateTime */\n      0x06\n        /* \"Smart Contracts/12_Staking.sol\":1084:1104  lastUpdateTime[user] */\n      0x00\n        /* \"Smart Contracts/12_Staking.sol\":1099:1103  user */\n      dup4\n        /* \"Smart Contracts/12_Staking.sol\":1084:1104  lastUpdateTime[user] */\n      0xffffffffffffffffffffffffffffffffffffffff\n      and\n      0xffffffffffffffffffffffffffffffffffffffff\n      and\n      dup2\n      mstore\n      0x20\n      add\n      swap1\n      dup2\n      mstore\n      0x20\n      add\n      0x00\n      keccak256\n        /* \"Smart Contracts/12_Staking.sol\":1084:1122  lastUpdateTime[user] = block.timestamp */\n      dup2\n      swap1\n      sstore\n      pop\n        /* \"Smart Contracts/12_Staking.sol\":1001:1134  if (user != address(0)) {... */\n    tag_88:\n        /* \"Smart Contracts/12_Staking.sol\":1266:1267  0 */\n      0x00\n        /* \"Smart Contracts/12_Staking.sol\":1257:1263  amount */\n      dup3\n        /* \"Smart Contracts/12_Staking.sol\":1257:1267  amount > 0 */\n      gt\n        /* \"Smart Contracts/12_Staking.sol\":1249:1286  require(amount > 0, \"Cannot stake 0\") */\n      tag_92\n      jumpi\n      mload(0x40)\n      0x08c379a000000000000000000000000000000000000000000000000000000000\n      dup2\n      mstore\n      0x04\n      add\n      tag_93\n      swap1\n      tag_94\n      jump\t// in\n    tag_93:\n      mload(0x40)\n      dup1\n      swap2\n      sub\n      swap1\n      revert\n    tag_92:\n        /* \"Smart Contracts/12_Staking.sol\":1297:1309  stakingToken */\n      0x01\n      0x00\n      swap1\n      sload\n      swap1\n      0x0100\n      exp\n      swap1\n      div\n      0xffffffffffffffffffffffffffffffffffffffff\n      and\n        /* \"Smart Contracts/12_Staking.sol\":1297:1322  stakingToken.transferFrom */\n      0xffffffffffffffffffffffffffffffffffffffff\n      and\n      0x23b872dd\n        /* \"Smart Contracts/12_Staking.sol\":1323:1333  msg.sender */\n      caller\n        /* \"Smart Contracts/12_Staking.sol\":1343:1347  this */\n      address\n        /* \"Smart Contracts/12_Staking.sol\":1350:1356  amount */\n      dup6\n        /* \"Smart Contracts/12_Staking.sol\":1297:1357  stakingToken.transferFrom(msg.sender, address(this), amount) */\n      mload(0x40)\n      dup5\n      0xffffffff\n      and\n      0xe0\n      shl\n      dup2\n      mstore\n      0x04\n      add\n      tag_95\n      swap4\n      swap3\n      swap2\n      swap1\n      tag_96\n      jump\t// in\n    tag_95:\n      0x20\n      mload(0x40)\n      dup1\n      dup4\n      sub\n      dup2\n      0x00\n      dup8\n      gas\n      call\n      iszero\n      dup1\n      iszero\n      tag_98\n      jumpi\n      returndatacopy(0x00, 0x00, returndatasize)\n      revert(0x00, returndatasize)\n    tag_98:\n      pop\n      pop\n      pop\n      pop\n      mload(0x40)\n      returndatasize\n      not(0x1f)\n      0x1f\n      dup3\n      add\n      and\n      dup3\n      add\n      dup1\n      0x40\n      mstore\n      pop\n      dup2\n      add\n      swap1\n      tag_99\n      swap2\n      swap1\n      tag_82\n      jump\t// in\n    tag_99:\n      pop\n        /* \"Smart Contracts/12_Staking.sol\":1399:1405  amount */\n      dup2\n        /* \"Smart Contracts/12_Staking.sol\":1370:1383  stakedBalance */\n      0x05\n        /* \"Smart Contracts/12_Staking.sol\":1370:1395  stakedBalance[msg.sender] */\n      0x00\n        /* \"Smart Contracts/12_Staking.sol\":1384:1394  msg.sender */\n      caller\n        /* \"Smart Contracts/12_Staking.sol\":1370:1395  stakedBalance[msg.sender] */\n      0xffffffffffffffffffffffffffffffffffffffff\n      and\n      0xffffffffffffffffffffffffffffffffffffffff\n      and\n      dup2\n      mstore\n      0x20\n      add\n      swap1\n      dup2\n      mstore\n      0x20\n      add\n      0x00\n      keccak256\n      0x00\n        /* \"Smart Contracts/12_Staking.sol\":1370:1405  stakedBalance[msg.sender] += amount */\n      dup3\n      dup3\n      sload\n      tag_100\n      swap2\n      swap1\n      tag_67\n      jump\t// in\n    tag_100:\n      swap3\n      pop\n      pop\n      dup2\n      swap1\n      sstore\n      pop\n        /* \"Smart Contracts/12_Staking.sol\":1431:1437  amount */\n      dup2\n        /* \"Smart Contracts/12_Staking.sol\":1416:1427  totalStaked */\n      0x04\n      0x00\n        /* \"Smart Contracts/12_Staking.sol\":1416:1437  totalStaked += amount */\n      dup3\n      dup3\n      sload\n      tag_101\n      swap2\n      swap1\n      tag_67\n      jump\t// in\n    tag_101:\n      swap3\n      pop\n      pop\n      dup2\n      swap1\n      sstore\n      pop\n        /* \"@openzeppelin/contracts/security/ReentrancyGuard.sol\":2292:2293  _ */\n      pop\n        /* \"@openzeppelin/contracts/security/ReentrancyGuard.sol\":2303:2323  _nonReentrantAfter() */\n      tag_102\n        /* \"@openzeppelin/contracts/security/ReentrancyGuard.sol\":2303:2321  _nonReentrantAfter */\n      tag_84\n        /* \"@openzeppelin/contracts/security/ReentrancyGuard.sol\":2303:2323  _nonReentrantAfter() */\n      jump\t// in\n    tag_102:\n        /* \"Smart Contracts/12_Staking.sol\":1161:1445  function stake(uint256 amount) external nonReentrant updateReward(msg.sender){... */\n      pop\n      jump\t// out\n        /* \"Smart Contracts/12_Staking.sol\":259:284  IERC20 public rewardToken */\n    tag_50:\n      0x02\n      0x00\n      swap1\n      sload\n      swap1\n      0x0100\n      exp\n      swap1\n      div\n      0xffffffffffffffffffffffffffffffffffffffff\n      and\n      dup2\n      jump\t// out\n        /* \"@openzeppelin/contracts/security/ReentrancyGuard.sol\":2336:2623  function _nonReentrantBefore() private {... */\n    tag_62:\n        /* \"@openzeppelin/contracts/security/ReentrancyGuard.sol\":1759:1760  2 */\n      0x02\n        /* \"@openzeppelin/contracts/security/ReentrancyGuard.sol\":2468:2475  _status */\n      sload(0x00)\n        /* \"@openzeppelin/contracts/security/ReentrancyGuard.sol\":2468:2487  _status != _ENTERED */\n      sub\n        /* \"@openzeppelin/contracts/security/ReentrancyGuard.sol\":2460:2523  require(_status != _ENTERED, \"ReentrancyGuard: reentrant call\") */\n      tag_104\n      jumpi\n      mload(0x40)\n      0x08c379a000000000000000000000000000000000000000000000000000000000\n      dup2\n      mstore\n      0x04\n      add\n      tag_105\n      swap1\n      tag_106\n      jump\t// in\n    tag_105:\n      mload(0x40)\n      dup1\n      swap2\n      sub\n      swap1\n      revert\n    tag_104:\n        /* \"@openzeppelin/contracts/security/ReentrancyGuard.sol\":1759:1760  2 */\n      0x02\n        /* \"@openzeppelin/contracts/security/ReentrancyGuard.sol\":2598:2605  _status */\n      0x00\n        /* \"@openzeppelin/contracts/security/ReentrancyGuard.sol\":2598:2616  _status = _ENTERED */\n      dup2\n      swap1\n      sstore\n      pop\n        /* \"@openzeppelin/contracts/security/ReentrancyGuard.sol\":2336:2623  function _nonReentrantBefore() private {... */\n      jump\t// out\n        /* \"@openzeppelin/contracts/security/ReentrancyGuard.sol\":2629:2838  function _nonReentrantAfter() private {... */\n    tag_84:\n        /* \"@openzeppelin/contracts/security/ReentrancyGuard.sol\":1716:1717  1 */\n      0x01\n        /* \"@openzeppelin/contracts/security/ReentrancyGuard.sol\":2809:2816  _status */\n      0x00\n        /* \"@openzeppelin/contracts/security/ReentrancyGuard.sol\":2809:2831  _status = _NOT_ENTERED */\n      dup2\n      swap1\n      sstore\n      pop\n        /* \"@openzeppelin/contracts/security/ReentrancyGuard.sol\":2629:2838  function _nonReentrantAfter() private {... */\n      jump\t// out\n        /* \"#utility.yul\":88:205   */\n    tag_109:\n        /* \"#utility.yul\":197:198   */\n      0x00\n        /* \"#utility.yul\":194:195   */\n      0x00\n        /* \"#utility.yul\":187:199   */\n      revert\n        /* \"#utility.yul\":334:460   */\n    tag_111:\n        /* \"#utility.yul\":371:378   */\n      0x00\n        /* \"#utility.yul\":411:453   */\n      0xffffffffffffffffffffffffffffffffffffffff\n        /* \"#utility.yul\":404:409   */\n      dup3\n        /* \"#utility.yul\":400:454   */\n      and\n        /* \"#utility.yul\":389:454   */\n      swap1\n      pop\n        /* \"#utility.yul\":334:460   */\n      swap2\n      swap1\n      pop\n      jump\t// out\n        /* \"#utility.yul\":466:562   */\n    tag_112:\n        /* \"#utility.yul\":503:510   */\n      0x00\n        /* \"#utility.yul\":532:556   */\n      tag_145\n        /* \"#utility.yul\":550:555   */\n      dup3\n        /* \"#utility.yul\":532:556   */\n      tag_111\n      jump\t// in\n    tag_145:\n        /* \"#utility.yul\":521:556   */\n      swap1\n      pop\n        /* \"#utility.yul\":466:562   */\n      swap2\n      swap1\n      pop\n      jump\t// out\n        /* \"#utility.yul\":568:690   */\n    tag_113:\n        /* \"#utility.yul\":641:665   */\n      tag_147\n        /* \"#utility.yul\":659:664   */\n      dup2\n        /* \"#utility.yul\":641:665   */\n      tag_112\n      jump\t// in\n    tag_147:\n        /* \"#utility.yul\":634:639   */\n      dup2\n        /* \"#utility.yul\":631:666   */\n      eq\n        /* \"#utility.yul\":621:684   */\n      tag_148\n      jumpi\n        /* \"#utility.yul\":680:681   */\n      0x00\n        /* \"#utility.yul\":677:678   */\n      0x00\n        /* \"#utility.yul\":670:682   */\n      revert\n        /* \"#utility.yul\":621:684   */\n    tag_148:\n        /* \"#utility.yul\":568:690   */\n      pop\n      jump\t// out\n        /* \"#utility.yul\":696:835   */\n    tag_114:\n        /* \"#utility.yul\":742:747   */\n      0x00\n        /* \"#utility.yul\":780:786   */\n      dup2\n        /* \"#utility.yul\":767:787   */\n      calldataload\n        /* \"#utility.yul\":758:787   */\n      swap1\n      pop\n        /* \"#utility.yul\":796:829   */\n      tag_150\n        /* \"#utility.yul\":823:828   */\n      dup2\n        /* \"#utility.yul\":796:829   */\n      tag_113\n      jump\t// in\n    tag_150:\n        /* \"#utility.yul\":696:835   */\n      swap3\n      swap2\n      pop\n      pop\n      jump\t// out\n        /* \"#utility.yul\":841:1170   */\n    tag_16:\n        /* \"#utility.yul\":900:906   */\n      0x00\n        /* \"#utility.yul\":949:951   */\n      0x20\n        /* \"#utility.yul\":937:946   */\n      dup3\n        /* \"#utility.yul\":928:935   */\n      dup5\n        /* \"#utility.yul\":924:947   */\n      sub\n        /* \"#utility.yul\":920:952   */\n      slt\n        /* \"#utility.yul\":917:1036   */\n      iszero\n      tag_152\n      jumpi\n        /* \"#utility.yul\":955:1034   */\n      tag_153\n      tag_109\n      jump\t// in\n    tag_153:\n        /* \"#utility.yul\":917:1036   */\n    tag_152:\n        /* \"#utility.yul\":1075:1076   */\n      0x00\n        /* \"#utility.yul\":1100:1153   */\n      tag_154\n        /* \"#utility.yul\":1145:1152   */\n      dup5\n        /* \"#utility.yul\":1136:1142   */\n      dup3\n        /* \"#utility.yul\":1125:1134   */\n      dup6\n        /* \"#utility.yul\":1121:1143   */\n      add\n        /* \"#utility.yul\":1100:1153   */\n      tag_114\n      jump\t// in\n    tag_154:\n        /* \"#utility.yul\":1090:1153   */\n      swap2\n      pop\n        /* \"#utility.yul\":1046:1163   */\n      pop\n        /* \"#utility.yul\":841:1170   */\n      swap3\n      swap2\n      pop\n      pop\n      jump\t// out\n        /* \"#utility.yul\":1176:1253   */\n    tag_115:\n        /* \"#utility.yul\":1213:1220   */\n      0x00\n        /* \"#utility.yul\":1242:1247   */\n      dup2\n        /* \"#utility.yul\":1231:1247   */\n      swap1\n      pop\n        /* \"#utility.yul\":1176:1253   */\n      swap2\n      swap1\n      pop\n      jump\t// out\n        /* \"#utility.yul\":1259:1377   */\n    tag_116:\n        /* \"#utility.yul\":1346:1370   */\n      tag_157\n        /* \"#utility.yul\":1364:1369   */\n      dup2\n        /* \"#utility.yul\":1346:1370   */\n      tag_115\n      jump\t// in\n    tag_157:\n        /* \"#utility.yul\":1341:1344   */\n      dup3\n        /* \"#utility.yul\":1334:1371   */\n      mstore\n        /* \"#utility.yul\":1259:1377   */\n      pop\n      pop\n      jump\t// out\n        /* \"#utility.yul\":1383:1605   */\n    tag_19:\n        /* \"#utility.yul\":1476:1480   */\n      0x00\n        /* \"#utility.yul\":1514:1516   */\n      0x20\n        /* \"#utility.yul\":1503:1512   */\n      dup3\n        /* \"#utility.yul\":1499:1517   */\n      add\n        /* \"#utility.yul\":1491:1517   */\n      swap1\n      pop\n        /* \"#utility.yul\":1527:1598   */\n      tag_159\n        /* \"#utility.yul\":1595:1596   */\n      0x00\n        /* \"#utility.yul\":1584:1593   */\n      dup4\n        /* \"#utility.yul\":1580:1597   */\n      add\n        /* \"#utility.yul\":1571:1577   */\n      dup5\n        /* \"#utility.yul\":1527:1598   */\n      tag_116\n      jump\t// in\n    tag_159:\n        /* \"#utility.yul\":1383:1605   */\n      swap3\n      swap2\n      pop\n      pop\n      jump\t// out\n        /* \"#utility.yul\":1611:1733   */\n    tag_117:\n        /* \"#utility.yul\":1684:1708   */\n      tag_161\n        /* \"#utility.yul\":1702:1707   */\n      dup2\n        /* \"#utility.yul\":1684:1708   */\n      tag_115\n      jump\t// in\n    tag_161:\n        /* \"#utility.yul\":1677:1682   */\n      dup2\n        /* \"#utility.yul\":1674:1709   */\n      eq\n        /* \"#utility.yul\":1664:1727   */\n      tag_162\n      jumpi\n        /* \"#utility.yul\":1723:1724   */\n      0x00\n        /* \"#utility.yul\":1720:1721   */\n      0x00\n        /* \"#utility.yul\":1713:1725   */\n      revert\n        /* \"#utility.yul\":1664:1727   */\n    tag_162:\n        /* \"#utility.yul\":1611:1733   */\n      pop\n      jump\t// out\n        /* \"#utility.yul\":1739:1878   */\n    tag_118:\n        /* \"#utility.yul\":1785:1790   */\n      0x00\n        /* \"#utility.yul\":1823:1829   */\n      dup2\n        /* \"#utility.yul\":1810:1830   */\n      calldataload\n        /* \"#utility.yul\":1801:1830   */\n      swap1\n      pop\n        /* \"#utility.yul\":1839:1872   */\n      tag_164\n        /* \"#utility.yul\":1866:1871   */\n      dup2\n        /* \"#utility.yul\":1839:1872   */\n      tag_117\n      jump\t// in\n    tag_164:\n        /* \"#utility.yul\":1739:1878   */\n      swap3\n      swap2\n      pop\n      pop\n      jump\t// out\n        /* \"#utility.yul\":1884:2213   */\n    tag_30:\n        /* \"#utility.yul\":1943:1949   */\n      0x00\n        /* \"#utility.yul\":1992:1994   */\n      0x20\n        /* \"#utility.yul\":1980:1989   */\n      dup3\n        /* \"#utility.yul\":1971:1978   */\n      dup5\n        /* \"#utility.yul\":1967:1990   */\n      sub\n        /* \"#utility.yul\":1963:1995   */\n      slt\n        /* \"#utility.yul\":1960:2079   */\n      iszero\n      tag_166\n      jumpi\n        /* \"#utility.yul\":1998:2077   */\n      tag_167\n      tag_109\n      jump\t// in\n    tag_167:\n        /* \"#utility.yul\":1960:2079   */\n    tag_166:\n        /* \"#utility.yul\":2118:2119   */\n      0x00\n        /* \"#utility.yul\":2143:2196   */\n      tag_168\n        /* \"#utility.yul\":2188:2195   */\n      dup5\n        /* \"#utility.yul\":2179:2185   */\n      dup3\n        /* \"#utility.yul\":2168:2177   */\n      dup6\n        /* \"#utility.yul\":2164:2186   */\n      add\n        /* \"#utility.yul\":2143:2196   */\n      tag_118\n      jump\t// in\n    tag_168:\n        /* \"#utility.yul\":2133:2196   */\n      swap2\n      pop\n        /* \"#utility.yul\":2089:2206   */\n      pop\n        /* \"#utility.yul\":1884:2213   */\n      swap3\n      swap2\n      pop\n      pop\n      jump\t// out\n        /* \"#utility.yul\":2219:2279   */\n    tag_119:\n        /* \"#utility.yul\":2247:2250   */\n      0x00\n        /* \"#utility.yul\":2268:2273   */\n      dup2\n        /* \"#utility.yul\":2261:2273   */\n      swap1\n      pop\n        /* \"#utility.yul\":2219:2279   */\n      swap2\n      swap1\n      pop\n      jump\t// out\n        /* \"#utility.yul\":2285:2427   */\n    tag_120:\n        /* \"#utility.yul\":2335:2344   */\n      0x00\n        /* \"#utility.yul\":2368:2421   */\n      tag_171\n        /* \"#utility.yul\":2386:2420   */\n      tag_172\n        /* \"#utility.yul\":2395:2419   */\n      tag_173\n        /* \"#utility.yul\":2413:2418   */\n      dup5\n        /* \"#utility.yul\":2395:2419   */\n      tag_111\n      jump\t// in\n    tag_173:\n        /* \"#utility.yul\":2386:2420   */\n      tag_119\n      jump\t// in\n    tag_172:\n        /* \"#utility.yul\":2368:2421   */\n      tag_111\n      jump\t// in\n    tag_171:\n        /* \"#utility.yul\":2355:2421   */\n      swap1\n      pop\n        /* \"#utility.yul\":2285:2427   */\n      swap2\n      swap1\n      pop\n      jump\t// out\n        /* \"#utility.yul\":2433:2559   */\n    tag_121:\n        /* \"#utility.yul\":2483:2492   */\n      0x00\n        /* \"#utility.yul\":2516:2553   */\n      tag_175\n        /* \"#utility.yul\":2547:2552   */\n      dup3\n        /* \"#utility.yul\":2516:2553   */\n      tag_120\n      jump\t// in\n    tag_175:\n        /* \"#utility.yul\":2503:2553   */\n      swap1\n      pop\n        /* \"#utility.yul\":2433:2559   */\n      swap2\n      swap1\n      pop\n      jump\t// out\n        /* \"#utility.yul\":2565:2705   */\n    tag_122:\n        /* \"#utility.yul\":2629:2638   */\n      0x00\n        /* \"#utility.yul\":2662:2699   */\n      tag_177\n        /* \"#utility.yul\":2693:2698   */\n      dup3\n        /* \"#utility.yul\":2662:2699   */\n      tag_121\n      jump\t// in\n    tag_177:\n        /* \"#utility.yul\":2649:2699   */\n      swap1\n      pop\n        /* \"#utility.yul\":2565:2705   */\n      swap2\n      swap1\n      pop\n      jump\t// out\n        /* \"#utility.yul\":2711:2870   */\n    tag_123:\n        /* \"#utility.yul\":2812:2863   */\n      tag_179\n        /* \"#utility.yul\":2857:2862   */\n      dup2\n        /* \"#utility.yul\":2812:2863   */\n      tag_122\n      jump\t// in\n    tag_179:\n        /* \"#utility.yul\":2807:2810   */\n      dup3\n        /* \"#utility.yul\":2800:2864   */\n      mstore\n        /* \"#utility.yul\":2711:2870   */\n      pop\n      pop\n      jump\t// out\n        /* \"#utility.yul\":2876:3126   */\n    tag_39:\n        /* \"#utility.yul\":2983:2987   */\n      0x00\n        /* \"#utility.yul\":3021:3023   */\n      0x20\n        /* \"#utility.yul\":3010:3019   */\n      dup3\n        /* \"#utility.yul\":3006:3024   */\n      add\n        /* \"#utility.yul\":2998:3024   */\n      swap1\n      pop\n        /* \"#utility.yul\":3034:3119   */\n      tag_181\n        /* \"#utility.yul\":3116:3117   */\n      0x00\n        /* \"#utility.yul\":3105:3114   */\n      dup4\n        /* \"#utility.yul\":3101:3118   */\n      add\n        /* \"#utility.yul\":3092:3098   */\n      dup5\n        /* \"#utility.yul\":3034:3119   */\n      tag_123\n      jump\t// in\n    tag_181:\n        /* \"#utility.yul\":2876:3126   */\n      swap3\n      swap2\n      pop\n      pop\n      jump\t// out\n        /* \"#utility.yul\":3132:3312   */\n    tag_124:\n        /* \"#utility.yul\":3180:3257   */\n      0x4e487b7100000000000000000000000000000000000000000000000000000000\n        /* \"#utility.yul\":3177:3178   */\n      0x00\n        /* \"#utility.yul\":3170:3258   */\n      mstore\n        /* \"#utility.yul\":3277:3281   */\n      0x11\n        /* \"#utility.yul\":3274:3275   */\n      0x04\n        /* \"#utility.yul\":3267:3282   */\n      mstore\n        /* \"#utility.yul\":3301:3305   */\n      0x24\n        /* \"#utility.yul\":3298:3299   */\n      0x00\n        /* \"#utility.yul\":3291:3306   */\n      revert\n        /* \"#utility.yul\":3318:3512   */\n    tag_54:\n        /* \"#utility.yul\":3358:3362   */\n      0x00\n        /* \"#utility.yul\":3378:3398   */\n      tag_184\n        /* \"#utility.yul\":3396:3397   */\n      dup3\n        /* \"#utility.yul\":3378:3398   */\n      tag_115\n      jump\t// in\n    tag_184:\n        /* \"#utility.yul\":3373:3398   */\n      swap2\n      pop\n        /* \"#utility.yul\":3412:3432   */\n      tag_185\n        /* \"#utility.yul\":3430:3431   */\n      dup4\n        /* \"#utility.yul\":3412:3432   */\n      tag_115\n      jump\t// in\n    tag_185:\n        /* \"#utility.yul\":3407:3432   */\n      swap3\n      pop\n        /* \"#utility.yul\":3456:3457   */\n      dup3\n        /* \"#utility.yul\":3453:3454   */\n      dup3\n        /* \"#utility.yul\":3449:3458   */\n      sub\n        /* \"#utility.yul\":3441:3458   */\n      swap1\n      pop\n        /* \"#utility.yul\":3480:3481   */\n      dup2\n        /* \"#utility.yul\":3474:3478   */\n      dup2\n        /* \"#utility.yul\":3471:3482   */\n      gt\n        /* \"#utility.yul\":3468:3505   */\n      iszero\n      tag_186\n      jumpi\n        /* \"#utility.yul\":3485:3503   */\n      tag_187\n      tag_124\n      jump\t// in\n    tag_187:\n        /* \"#utility.yul\":3468:3505   */\n    tag_186:\n        /* \"#utility.yul\":3318:3512   */\n      swap3\n      swap2\n      pop\n      pop\n      jump\t// out\n        /* \"#utility.yul\":3518:3928   */\n    tag_56:\n        /* \"#utility.yul\":3558:3565   */\n      0x00\n        /* \"#utility.yul\":3581:3601   */\n      tag_189\n        /* \"#utility.yul\":3599:3600   */\n      dup3\n        /* \"#utility.yul\":3581:3601   */\n      tag_115\n      jump\t// in\n    tag_189:\n        /* \"#utility.yul\":3576:3601   */\n      swap2\n      pop\n        /* \"#utility.yul\":3615:3635   */\n      tag_190\n        /* \"#utility.yul\":3633:3634   */\n      dup4\n        /* \"#utility.yul\":3615:3635   */\n      tag_115\n      jump\t// in\n    tag_190:\n        /* \"#utility.yul\":3610:3635   */\n      swap3\n      pop\n        /* \"#utility.yul\":3670:3671   */\n      dup3\n        /* \"#utility.yul\":3667:3668   */\n      dup3\n        /* \"#utility.yul\":3663:3672   */\n      mul\n        /* \"#utility.yul\":3692:3722   */\n      tag_191\n        /* \"#utility.yul\":3710:3721   */\n      dup2\n        /* \"#utility.yul\":3692:3722   */\n      tag_115\n      jump\t// in\n    tag_191:\n        /* \"#utility.yul\":3681:3722   */\n      swap2\n      pop\n        /* \"#utility.yul\":3871:3872   */\n      dup3\n        /* \"#utility.yul\":3862:3869   */\n      dup3\n        /* \"#utility.yul\":3858:3873   */\n      div\n        /* \"#utility.yul\":3855:3856   */\n      dup5\n        /* \"#utility.yul\":3852:3874   */\n      eq\n        /* \"#utility.yul\":3832:3833   */\n      dup4\n        /* \"#utility.yul\":3825:3834   */\n      iszero\n        /* \"#utility.yul\":3805:3888   */\n      or\n        /* \"#utility.yul\":3782:3921   */\n      tag_192\n      jumpi\n        /* \"#utility.yul\":3901:3919   */\n      tag_193\n      tag_124\n      jump\t// in\n    tag_193:\n        /* \"#utility.yul\":3782:3921   */\n    tag_192:\n        /* \"#utility.yul\":3566:3928   */\n      pop\n        /* \"#utility.yul\":3518:3928   */\n      swap3\n      swap2\n      pop\n      pop\n      jump\t// out\n        /* \"#utility.yul\":3934:4114   */\n    tag_125:\n        /* \"#utility.yul\":3982:4059   */\n      0x4e487b7100000000000000000000000000000000000000000000000000000000\n        /* \"#utility.yul\":3979:3980   */\n      0x00\n        /* \"#utility.yul\":3972:4060   */\n      mstore\n        /* \"#utility.yul\":4079:4083   */\n      0x12\n        /* \"#utility.yul\":4076:4077   */\n      0x04\n        /* \"#utility.yul\":4069:4084   */\n      mstore\n        /* \"#utility.yul\":4103:4107   */\n      0x24\n        /* \"#utility.yul\":4100:4101   */\n      0x00\n        /* \"#utility.yul\":4093:4108   */\n      revert\n        /* \"#utility.yul\":4120:4305   */\n    tag_59:\n        /* \"#utility.yul\":4160:4161   */\n      0x00\n        /* \"#utility.yul\":4177:4197   */\n      tag_196\n        /* \"#utility.yul\":4195:4196   */\n      dup3\n        /* \"#utility.yul\":4177:4197   */\n      tag_115\n      jump\t// in\n    tag_196:\n        /* \"#utility.yul\":4172:4197   */\n      swap2\n      pop\n        /* \"#utility.yul\":4211:4231   */\n      tag_197\n        /* \"#utility.yul\":4229:4230   */\n      dup4\n        /* \"#utility.yul\":4211:4231   */\n      tag_115\n      jump\t// in\n    tag_197:\n        /* \"#utility.yul\":4206:4231   */\n      swap3\n      pop\n        /* \"#utility.yul\":4250:4251   */\n      dup3\n        /* \"#utility.yul\":4240:4275   */\n      tag_198\n      jumpi\n        /* \"#utility.yul\":4255:4273   */\n      tag_199\n      tag_125\n      jump\t// in\n    tag_199:\n        /* \"#utility.yul\":4240:4275   */\n    tag_198:\n        /* \"#utility.yul\":4297:4298   */\n      dup3\n        /* \"#utility.yul\":4294:4295   */\n      dup3\n        /* \"#utility.yul\":4290:4299   */\n      div\n        /* \"#utility.yul\":4285:4299   */\n      swap1\n      pop\n        /* \"#utility.yul\":4120:4305   */\n      swap3\n      swap2\n      pop\n      pop\n      jump\t// out\n        /* \"#utility.yul\":4311:4502   */\n    tag_67:\n        /* \"#utility.yul\":4351:4354   */\n      0x00\n        /* \"#utility.yul\":4370:4390   */\n      tag_201\n        /* \"#utility.yul\":4388:4389   */\n      dup3\n        /* \"#utility.yul\":4370:4390   */\n      tag_115\n      jump\t// in\n    tag_201:\n        /* \"#utility.yul\":4365:4390   */\n      swap2\n      pop\n        /* \"#utility.yul\":4404:4424   */\n      tag_202\n        /* \"#utility.yul\":4422:4423   */\n      dup4\n        /* \"#utility.yul\":4404:4424   */\n      tag_115\n      jump\t// in\n    tag_202:\n        /* \"#utility.yul\":4399:4424   */\n      swap3\n      pop\n        /* \"#utility.yul\":4447:4448   */\n      dup3\n        /* \"#utility.yul\":4444:4445   */\n      dup3\n        /* \"#utility.yul\":4440:4449   */\n      add\n        /* \"#utility.yul\":4433:4449   */\n      swap1\n      pop\n        /* \"#utility.yul\":4468:4471   */\n      dup1\n        /* \"#utility.yul\":4465:4466   */\n      dup3\n        /* \"#utility.yul\":4462:4472   */\n      gt\n        /* \"#utility.yul\":4459:4495   */\n      iszero\n      tag_203\n      jumpi\n        /* \"#utility.yul\":4475:4493   */\n      tag_204\n      tag_124\n      jump\t// in\n    tag_204:\n        /* \"#utility.yul\":4459:4495   */\n    tag_203:\n        /* \"#utility.yul\":4311:4502   */\n      swap3\n      swap2\n      pop\n      pop\n      jump\t// out\n        /* \"#utility.yul\":4508:4677   */\n    tag_126:\n        /* \"#utility.yul\":4592:4603   */\n      0x00\n        /* \"#utility.yul\":4626:4632   */\n      dup3\n        /* \"#utility.yul\":4621:4624   */\n      dup3\n        /* \"#utility.yul\":4614:4633   */\n      mstore\n        /* \"#utility.yul\":4666:4670   */\n      0x20\n        /* \"#utility.yul\":4661:4664   */\n      dup3\n        /* \"#utility.yul\":4657:4671   */\n      add\n        /* \"#utility.yul\":4642:4671   */\n      swap1\n      pop\n        /* \"#utility.yul\":4508:4677   */\n      swap3\n      swap2\n      pop\n      pop\n      jump\t// out\n        /* \"#utility.yul\":4683:4849   */\n    tag_127:\n        /* \"#utility.yul\":4823:4841   */\n      0x43616e6e6f7420756e7374616b65203000000000000000000000000000000000\n        /* \"#utility.yul\":4819:4820   */\n      0x00\n        /* \"#utility.yul\":4811:4817   */\n      dup3\n        /* \"#utility.yul\":4807:4821   */\n      add\n        /* \"#utility.yul\":4800:4842   */\n      mstore\n        /* \"#utility.yul\":4683:4849   */\n      pop\n      jump\t// out\n        /* \"#utility.yul\":4855:5221   */\n    tag_128:\n        /* \"#utility.yul\":4997:5000   */\n      0x00\n        /* \"#utility.yul\":5018:5085   */\n      tag_208\n        /* \"#utility.yul\":5082:5084   */\n      0x10\n        /* \"#utility.yul\":5077:5080   */\n      dup4\n        /* \"#utility.yul\":5018:5085   */\n      tag_126\n      jump\t// in\n    tag_208:\n        /* \"#utility.yul\":5011:5085   */\n      swap2\n      pop\n        /* \"#utility.yul\":5094:5187   */\n      tag_209\n        /* \"#utility.yul\":5183:5186   */\n      dup3\n        /* \"#utility.yul\":5094:5187   */\n      tag_127\n      jump\t// in\n    tag_209:\n        /* \"#utility.yul\":5212:5214   */\n      0x20\n        /* \"#utility.yul\":5207:5210   */\n      dup3\n        /* \"#utility.yul\":5203:5215   */\n      add\n        /* \"#utility.yul\":5196:5215   */\n      swap1\n      pop\n        /* \"#utility.yul\":4855:5221   */\n      swap2\n      swap1\n      pop\n      jump\t// out\n        /* \"#utility.yul\":5227:5646   */\n    tag_71:\n        /* \"#utility.yul\":5393:5397   */\n      0x00\n        /* \"#utility.yul\":5431:5433   */\n      0x20\n        /* \"#utility.yul\":5420:5429   */\n      dup3\n        /* \"#utility.yul\":5416:5434   */\n      add\n        /* \"#utility.yul\":5408:5434   */\n      swap1\n      pop\n        /* \"#utility.yul\":5480:5489   */\n      dup2\n        /* \"#utility.yul\":5474:5478   */\n      dup2\n        /* \"#utility.yul\":5470:5490   */\n      sub\n        /* \"#utility.yul\":5466:5467   */\n      0x00\n        /* \"#utility.yul\":5455:5464   */\n      dup4\n        /* \"#utility.yul\":5451:5468   */\n      add\n        /* \"#utility.yul\":5444:5491   */\n      mstore\n        /* \"#utility.yul\":5508:5639   */\n      tag_211\n        /* \"#utility.yul\":5634:5638   */\n      dup2\n        /* \"#utility.yul\":5508:5639   */\n      tag_128\n      jump\t// in\n    tag_211:\n        /* \"#utility.yul\":5500:5639   */\n      swap1\n      pop\n        /* \"#utility.yul\":5227:5646   */\n      swap2\n      swap1\n      pop\n      jump\t// out\n        /* \"#utility.yul\":5652:5820   */\n    tag_129:\n        /* \"#utility.yul\":5792:5812   */\n      0x496e73756666696369656e74207374616b650000000000000000000000000000\n        /* \"#utility.yul\":5788:5789   */\n      0x00\n        /* \"#utility.yul\":5780:5786   */\n      dup3\n        /* \"#utility.yul\":5776:5790   */\n      add\n        /* \"#utility.yul\":5769:5813   */\n      mstore\n        /* \"#utility.yul\":5652:5820   */\n      pop\n      jump\t// out\n        /* \"#utility.yul\":5826:6192   */\n    tag_130:\n        /* \"#utility.yul\":5968:5971   */\n      0x00\n        /* \"#utility.yul\":5989:6056   */\n      tag_214\n        /* \"#utility.yul\":6053:6055   */\n      0x12\n        /* \"#utility.yul\":6048:6051   */\n      dup4\n        /* \"#utility.yul\":5989:6056   */\n      tag_126\n      jump\t// in\n    tag_214:\n        /* \"#utility.yul\":5982:6056   */\n      swap2\n      pop\n        /* \"#utility.yul\":6065:6158   */\n      tag_215\n        /* \"#utility.yul\":6154:6157   */\n      dup3\n        /* \"#utility.yul\":6065:6158   */\n      tag_129\n      jump\t// in\n    tag_215:\n        /* \"#utility.yul\":6183:6185   */\n      0x20\n        /* \"#utility.yul\":6178:6181   */\n      dup3\n        /* \"#utility.yul\":6174:6186   */\n      add\n        /* \"#utility.yul\":6167:6186   */\n      swap1\n      pop\n        /* \"#utility.yul\":5826:6192   */\n      swap2\n      swap1\n      pop\n      jump\t// out\n        /* \"#utility.yul\":6198:6617   */\n    tag_74:\n        /* \"#utility.yul\":6364:6368   */\n      0x00\n        /* \"#utility.yul\":6402:6404   */\n      0x20\n        /* \"#utility.yul\":6391:6400   */\n      dup3\n        /* \"#utility.yul\":6387:6405   */\n      add\n        /* \"#utility.yul\":6379:6405   */\n      swap1\n      pop\n        /* \"#utility.yul\":6451:6460   */\n      dup2\n        /* \"#utility.yul\":6445:6449   */\n      dup2\n        /* \"#utility.yul\":6441:6461   */\n      sub\n        /* \"#utility.yul\":6437:6438   */\n      0x00\n        /* \"#utility.yul\":6426:6435   */\n      dup4\n        /* \"#utility.yul\":6422:6439   */\n      add\n        /* \"#utility.yul\":6415:6462   */\n      mstore\n        /* \"#utility.yul\":6479:6610   */\n      tag_217\n        /* \"#utility.yul\":6605:6609   */\n      dup2\n        /* \"#utility.yul\":6479:6610   */\n      tag_130\n      jump\t// in\n    tag_217:\n        /* \"#utility.yul\":6471:6610   */\n      swap1\n      pop\n        /* \"#utility.yul\":6198:6617   */\n      swap2\n      swap1\n      pop\n      jump\t// out\n        /* \"#utility.yul\":6623:6741   */\n    tag_131:\n        /* \"#utility.yul\":6710:6734   */\n      tag_219\n        /* \"#utility.yul\":6728:6733   */\n      dup2\n        /* \"#utility.yul\":6710:6734   */\n      tag_112\n      jump\t// in\n    tag_219:\n        /* \"#utility.yul\":6705:6708   */\n      dup3\n        /* \"#utility.yul\":6698:6735   */\n      mstore\n        /* \"#utility.yul\":6623:6741   */\n      pop\n      pop\n      jump\t// out\n        /* \"#utility.yul\":6747:7079   */\n    tag_78:\n        /* \"#utility.yul\":6868:6872   */\n      0x00\n        /* \"#utility.yul\":6906:6908   */\n      0x40\n        /* \"#utility.yul\":6895:6904   */\n      dup3\n        /* \"#utility.yul\":6891:6909   */\n      add\n        /* \"#utility.yul\":6883:6909   */\n      swap1\n      pop\n        /* \"#utility.yul\":6919:6990   */\n      tag_221\n        /* \"#utility.yul\":6987:6988   */\n      0x00\n        /* \"#utility.yul\":6976:6985   */\n      dup4\n        /* \"#utility.yul\":6972:6989   */\n      add\n        /* \"#utility.yul\":6963:6969   */\n      dup6\n        /* \"#utility.yul\":6919:6990   */\n      tag_131\n      jump\t// in\n    tag_221:\n        /* \"#utility.yul\":7000:7072   */\n      tag_222\n        /* \"#utility.yul\":7068:7070   */\n      0x20\n        /* \"#utility.yul\":7057:7066   */\n      dup4\n        /* \"#utility.yul\":7053:7071   */\n      add\n        /* \"#utility.yul\":7044:7050   */\n      dup5\n        /* \"#utility.yul\":7000:7072   */\n      tag_116\n      jump\t// in\n    tag_222:\n        /* \"#utility.yul\":6747:7079   */\n      swap4\n      swap3\n      pop\n      pop\n      pop\n      jump\t// out\n        /* \"#utility.yul\":7085:7175   */\n    tag_132:\n        /* \"#utility.yul\":7119:7126   */\n      0x00\n        /* \"#utility.yul\":7162:7167   */\n      dup2\n        /* \"#utility.yul\":7155:7168   */\n      iszero\n        /* \"#utility.yul\":7148:7169   */\n      iszero\n        /* \"#utility.yul\":7137:7169   */\n      swap1\n      pop\n        /* \"#utility.yul\":7085:7175   */\n      swap2\n      swap1\n      pop\n      jump\t// out\n        /* \"#utility.yul\":7181:7297   */\n    tag_133:\n        /* \"#utility.yul\":7251:7272   */\n      tag_225\n        /* \"#utility.yul\":7266:7271   */\n      dup2\n        /* \"#utility.yul\":7251:7272   */\n      tag_132\n      jump\t// in\n    tag_225:\n        /* \"#utility.yul\":7244:7249   */\n      dup2\n        /* \"#utility.yul\":7241:7273   */\n      eq\n        /* \"#utility.yul\":7231:7291   */\n      tag_226\n      jumpi\n        /* \"#utility.yul\":7287:7288   */\n      0x00\n        /* \"#utility.yul\":7284:7285   */\n      0x00\n        /* \"#utility.yul\":7277:7289   */\n      revert\n        /* \"#utility.yul\":7231:7291   */\n    tag_226:\n        /* \"#utility.yul\":7181:7297   */\n      pop\n      jump\t// out\n        /* \"#utility.yul\":7303:7440   */\n    tag_134:\n        /* \"#utility.yul\":7357:7362   */\n      0x00\n        /* \"#utility.yul\":7388:7394   */\n      dup2\n        /* \"#utility.yul\":7382:7395   */\n      mload\n        /* \"#utility.yul\":7373:7395   */\n      swap1\n      pop\n        /* \"#utility.yul\":7404:7434   */\n      tag_228\n        /* \"#utility.yul\":7428:7433   */\n      dup2\n        /* \"#utility.yul\":7404:7434   */\n      tag_133\n      jump\t// in\n    tag_228:\n        /* \"#utility.yul\":7303:7440   */\n      swap3\n      swap2\n      pop\n      pop\n      jump\t// out\n        /* \"#utility.yul\":7446:7791   */\n    tag_82:\n        /* \"#utility.yul\":7513:7519   */\n      0x00\n        /* \"#utility.yul\":7562:7564   */\n      0x20\n        /* \"#utility.yul\":7550:7559   */\n      dup3\n        /* \"#utility.yul\":7541:7548   */\n      dup5\n        /* \"#utility.yul\":7537:7560   */\n      sub\n        /* \"#utility.yul\":7533:7565   */\n      slt\n        /* \"#utility.yul\":7530:7649   */\n      iszero\n      tag_230\n      jumpi\n        /* \"#utility.yul\":7568:7647   */\n      tag_231\n      tag_109\n      jump\t// in\n    tag_231:\n        /* \"#utility.yul\":7530:7649   */\n    tag_230:\n        /* \"#utility.yul\":7688:7689   */\n      0x00\n        /* \"#utility.yul\":7713:7774   */\n      tag_232\n        /* \"#utility.yul\":7766:7773   */\n      dup5\n        /* \"#utility.yul\":7757:7763   */\n      dup3\n        /* \"#utility.yul\":7746:7755   */\n      dup6\n        /* \"#utility.yul\":7742:7764   */\n      add\n        /* \"#utility.yul\":7713:7774   */\n      tag_134\n      jump\t// in\n    tag_232:\n        /* \"#utility.yul\":7703:7774   */\n      swap2\n      pop\n        /* \"#utility.yul\":7659:7784   */\n      pop\n        /* \"#utility.yul\":7446:7791   */\n      swap3\n      swap2\n      pop\n      pop\n      jump\t// out\n        /* \"#utility.yul\":7797:7961   */\n    tag_135:\n        /* \"#utility.yul\":7937:7953   */\n      0x43616e6e6f74207374616b652030000000000000000000000000000000000000\n        /* \"#utility.yul\":7933:7934   */\n      0x00\n        /* \"#utility.yul\":7925:7931   */\n      dup3\n        /* \"#utility.yul\":7921:7935   */\n      add\n        /* \"#utility.yul\":7914:7954   */\n      mstore\n        /* \"#utility.yul\":7797:7961   */\n      pop\n      jump\t// out\n        /* \"#utility.yul\":7967:8333   */\n    tag_136:\n        /* \"#utility.yul\":8109:8112   */\n      0x00\n        /* \"#utility.yul\":8130:8197   */\n      tag_235\n        /* \"#utility.yul\":8194:8196   */\n      0x0e\n        /* \"#utility.yul\":8189:8192   */\n      dup4\n        /* \"#utility.yul\":8130:8197   */\n      tag_126\n      jump\t// in\n    tag_235:\n        /* \"#utility.yul\":8123:8197   */\n      swap2\n      pop\n        /* \"#utility.yul\":8206:8299   */\n      tag_236\n        /* \"#utility.yul\":8295:8298   */\n      dup3\n        /* \"#utility.yul\":8206:8299   */\n      tag_135\n      jump\t// in\n    tag_236:\n        /* \"#utility.yul\":8324:8326   */\n      0x20\n        /* \"#utility.yul\":8319:8322   */\n      dup3\n        /* \"#utility.yul\":8315:8327   */\n      add\n        /* \"#utility.yul\":8308:8327   */\n      swap1\n      pop\n        /* \"#utility.yul\":7967:8333   */\n      swap2\n      swap1\n      pop\n      jump\t// out\n        /* \"#utility.yul\":8339:8758   */\n    tag_94:\n        /* \"#utility.yul\":8505:8509   */\n      0x00\n        /* \"#utility.yul\":8543:8545   */\n      0x20\n        /* \"#utility.yul\":8532:8541   */\n      dup3\n        /* \"#utility.yul\":8528:8546   */\n      add\n        /* \"#utility.yul\":8520:8546   */\n      swap1\n      pop\n        /* \"#utility.yul\":8592:8601   */\n      dup2\n        /* \"#utility.yul\":8586:8590   */\n      dup2\n        /* \"#utility.yul\":8582:8602   */\n      sub\n        /* \"#utility.yul\":8578:8579   */\n      0x00\n        /* \"#utility.yul\":8567:8576   */\n      dup4\n        /* \"#utility.yul\":8563:8580   */\n      add\n        /* \"#utility.yul\":8556:8603   */\n      mstore\n        /* \"#utility.yul\":8620:8751   */\n      tag_238\n        /* \"#utility.yul\":8746:8750   */\n      dup2\n        /* \"#utility.yul\":8620:8751   */\n      tag_136\n      jump\t// in\n    tag_238:\n        /* \"#utility.yul\":8612:8751   */\n      swap1\n      pop\n        /* \"#utility.yul\":8339:8758   */\n      swap2\n      swap1\n      pop\n      jump\t// out\n        /* \"#utility.yul\":8764:9206   */\n    tag_96:\n        /* \"#utility.yul\":8913:8917   */\n      0x00\n        /* \"#utility.yul\":8951:8953   */\n      0x60\n        /* \"#utility.yul\":8940:8949   */\n      dup3\n        /* \"#utility.yul\":8936:8954   */\n      add\n        /* \"#utility.yul\":8928:8954   */\n      swap1\n      pop\n        /* \"#utility.yul\":8964:9035   */\n      tag_240\n        /* \"#utility.yul\":9032:9033   */\n      0x00\n        /* \"#utility.yul\":9021:9030   */\n      dup4\n        /* \"#utility.yul\":9017:9034   */\n      add\n        /* \"#utility.yul\":9008:9014   */\n      dup7\n        /* \"#utility.yul\":8964:9035   */\n      tag_131\n      jump\t// in\n    tag_240:\n        /* \"#utility.yul\":9045:9117   */\n      tag_241\n        /* \"#utility.yul\":9113:9115   */\n      0x20\n        /* \"#utility.yul\":9102:9111   */\n      dup4\n        /* \"#utility.yul\":9098:9116   */\n      add\n        /* \"#utility.yul\":9089:9095   */\n      dup6\n        /* \"#utility.yul\":9045:9117   */\n      tag_131\n      jump\t// in\n    tag_241:\n        /* \"#utility.yul\":9127:9199   */\n      tag_242\n        /* \"#utility.yul\":9195:9197   */\n      0x40\n        /* \"#utility.yul\":9184:9193   */\n      dup4\n        /* \"#utility.yul\":9180:9198   */\n      add\n        /* \"#utility.yul\":9171:9177   */\n      dup5\n        /* \"#utility.yul\":9127:9199   */\n      tag_116\n      jump\t// in\n    tag_242:\n        /* \"#utility.yul\":8764:9206   */\n      swap5\n      swap4\n      pop\n      pop\n      pop\n      pop\n      jump\t// out\n        /* \"#utility.yul\":9212:9393   */\n    tag_137:\n        /* \"#utility.yul\":9352:9385   */\n      0x5265656e7472616e637947756172643a207265656e7472616e742063616c6c00\n        /* \"#utility.yul\":9348:9349   */\n      0x00\n        /* \"#utility.yul\":9340:9346   */\n      dup3\n        /* \"#utility.yul\":9336:9350   */\n      add\n        /* \"#utility.yul\":9329:9386   */\n      mstore\n        /* \"#utility.yul\":9212:9393   */\n      pop\n      jump\t// out\n        /* \"#utility.yul\":9399:9765   */\n    tag_138:\n        /* \"#utility.yul\":9541:9544   */\n      0x00\n        /* \"#utility.yul\":9562:9629   */\n      tag_245\n        /* \"#utility.yul\":9626:9628   */\n      0x1f\n        /* \"#utility.yul\":9621:9624   */\n      dup4\n        /* \"#utility.yul\":9562:9629   */\n      tag_126\n      jump\t// in\n    tag_245:\n        /* \"#utility.yul\":9555:9629   */\n      swap2\n      pop\n        /* \"#utility.yul\":9638:9731   */\n      tag_246\n        /* \"#utility.yul\":9727:9730   */\n      dup3\n        /* \"#utility.yul\":9638:9731   */\n      tag_137\n      jump\t// in\n    tag_246:\n        /* \"#utility.yul\":9756:9758   */\n      0x20\n        /* \"#utility.yul\":9751:9754   */\n      dup3\n        /* \"#utility.yul\":9747:9759   */\n      add\n        /* \"#utility.yul\":9740:9759   */\n      swap1\n      pop\n        /* \"#utility.yul\":9399:9765   */\n      swap2\n      swap1\n      pop\n      jump\t// out\n        /* \"#utility.yul\":9771:10190   */\n    tag_106:\n        /* \"#utility.yul\":9937:9941   */\n      0x00\n        /* \"#utility.yul\":9975:9977   */\n      0x20\n        /* \"#utility.yul\":9964:9973   */\n      dup3\n        /* \"#utility.yul\":9960:9978   */\n      add\n        /* \"#utility.yul\":9952:9978   */\n      swap1\n      pop\n        /* \"#utility.yul\":10024:10033   */\n      dup2\n        /* \"#utility.yul\":10018:10022   */\n      dup2\n        /* \"#utility.yul\":10014:10034   */\n      sub\n        /* \"#utility.yul\":10010:10011   */\n      0x00\n        /* \"#utility.yul\":9999:10008   */\n      dup4\n        /* \"#utility.yul\":9995:10012   */\n      add\n        /* \"#utility.yul\":9988:10035   */\n      mstore\n        /* \"#utility.yul\":10052:10183   */\n      tag_248\n        /* \"#utility.yul\":10178:10182   */\n      dup2\n        /* \"#utility.yul\":10052:10183   */\n      tag_138\n      jump\t// in\n    tag_248:\n        /* \"#utility.yul\":10044:10183   */\n      swap1\n      pop\n        /* \"#utility.yul\":9771:10190   */\n      swap2\n      swap1\n      pop\n      jump\t// out\n\n    auxdata: 0xa2646970667358221220823c367bb9ab4267546b48c2b9b7963b15b524770560dfd2b5e4b2c876f6485764736f6c634300081e0033\n}\n",
				"bytecode": {
					"linkReferences": {},
					"object": "608060405234801561000f575f5ffd5b50604051610fb4380380610fb483398181016040528101906100319190610158565b60015f819055508260015f6101000a81548173ffffffffffffffffffffffffffffffffffffffff021916908373ffffffffffffffffffffffffffffffffffffffff1602179055508160025f6101000a81548173ffffffffffffffffffffffffffffffffffffffff021916908373ffffffffffffffffffffffffffffffffffffffff160217905550806003819055505050506101a8565b5f5ffd5b5f73ffffffffffffffffffffffffffffffffffffffff82169050919050565b5f6100f4826100cb565b9050919050565b610104816100ea565b811461010e575f5ffd5b50565b5f8151905061011f816100fb565b92915050565b5f819050919050565b61013781610125565b8114610141575f5ffd5b50565b5f815190506101528161012e565b92915050565b5f5f5f6060848603121561016f5761016e6100c7565b5b5f61017c86828701610111565b935050602061018d86828701610111565b925050604061019e86828701610144565b9150509250925092565b610dff806101b55f395ff3fe608060405234801561000f575f5ffd5b506004361061009b575f3560e01c806372f702f31161006457806372f702f31461017b5780637b0a47ee14610199578063817b1cd2146101b7578063a694fc3a146101d5578063f7c618c1146101f15761009b565b80628cc2621461009f5780630700037d146100cf5780632ce9aead146100ff5780632e17de781461012f578063602172671461014b575b5f5ffd5b6100b960048036038101906100b491906108f8565b61020f565b6040516100c6919061093b565b60405180910390f35b6100e960048036038101906100e491906108f8565b6102cd565b6040516100f6919061093b565b60405180910390f35b610119600480360381019061011491906108f8565b6102e2565b604051610126919061093b565b60405180910390f35b6101496004803603810190610144919061097e565b6102f7565b005b610165600480360381019061016091906108f8565b6105a7565b604051610172919061093b565b60405180910390f35b6101836105bc565b6040516101909190610a04565b60405180910390f35b6101a16105e1565b6040516101ae919061093b565b60405180910390f35b6101bf6105e7565b6040516101cc919061093b565b60405180910390f35b6101ef60048036038101906101ea919061097e565b6105ed565b005b6101f961081f565b6040516102069190610a04565b60405180910390f35b5f5f60065f8473ffffffffffffffffffffffffffffffffffffffff1673ffffffffffffffffffffffffffffffffffffffff1681526020019081526020015f20544261025a9190610a4a565b9050670de0b6b3a76400008160035460055f8773ffffffffffffffffffffffffffffffffffffffff1673ffffffffffffffffffffffffffffffffffffffff1681526020019081526020015f20546102b19190610a7d565b6102bb9190610a7d565b6102c59190610aeb565b915050919050565b6007602052805f5260405f205f915090505481565b6006602052805f5260405f205f915090505481565b6102ff610844565b335f73ffffffffffffffffffffffffffffffffffffffff168173ffffffffffffffffffffffffffffffffffffffff16146103d15761033c8161020f565b60075f8373ffffffffffffffffffffffffffffffffffffffff1673ffffffffffffffffffffffffffffffffffffffff1681526020019081526020015f205f8282546103879190610b1b565b925050819055504260065f8373ffffffffffffffffffffffffffffffffffffffff1673ffffffffffffffffffffffffffffffffffffffff1681526020019081526020015f20819055505b5f8211610413576040517f08c379a000000000000000000000000000000000000000000000000000000000815260040161040a90610ba8565b60405180910390fd5b8160055f3373ffffffffffffffffffffffffffffffffffffffff1673ffffffffffffffffffffffffffffffffffffffff1681526020019081526020015f20541015610493576040517f08c379a000000000000000000000000000000000000000000000000000000000815260040161048a90610c10565b60405180910390fd5b8160055f3373ffffffffffffffffffffffffffffffffffffffff1673ffffffffffffffffffffffffffffffffffffffff1681526020019081526020015f205f8282546104df9190610a4a565b925050819055508160045f8282546104f79190610a4a565b9250508190555060015f9054906101000a900473ffffffffffffffffffffffffffffffffffffffff1673ffffffffffffffffffffffffffffffffffffffff1663a9059cbb33846040518363ffffffff1660e01b815260040161055a929190610c3d565b6020604051808303815f875af1158015610576573d5f5f3e3d5ffd5b505050506040513d601f19601f8201168201806040525081019061059a9190610c99565b50506105a4610891565b50565b6005602052805f5260405f205f915090505481565b60015f9054906101000a900473ffffffffffffffffffffffffffffffffffffffff1681565b60035481565b60045481565b6105f5610844565b335f73ffffffffffffffffffffffffffffffffffffffff168173ffffffffffffffffffffffffffffffffffffffff16146106c7576106328161020f565b60075f8373ffffffffffffffffffffffffffffffffffffffff1673ffffffffffffffffffffffffffffffffffffffff1681526020019081526020015f205f82825461067d9190610b1b565b925050819055504260065f8373ffffffffffffffffffffffffffffffffffffffff1673ffffffffffffffffffffffffffffffffffffffff1681526020019081526020015f20819055505b5f8211610709576040517f08c379a000000000000000000000000000000000000000000000000000000000815260040161070090610d0e565b60405180910390fd5b60015f9054906101000a900473ffffffffffffffffffffffffffffffffffffffff1673ffffffffffffffffffffffffffffffffffffffff166323b872dd3330856040518463ffffffff1660e01b815260040161076793929190610d2c565b6020604051808303815f875af1158015610783573d5f5f3e3d5ffd5b505050506040513d601f19601f820116820180604052508101906107a79190610c99565b508160055f3373ffffffffffffffffffffffffffffffffffffffff1673ffffffffffffffffffffffffffffffffffffffff1681526020019081526020015f205f8282546107f49190610b1b565b925050819055508160045f82825461080c9190610b1b565b925050819055505061081c610891565b50565b60025f9054906101000a900473ffffffffffffffffffffffffffffffffffffffff1681565b60025f5403610888576040517f08c379a000000000000000000000000000000000000000000000000000000000815260040161087f90610dab565b60405180910390fd5b60025f81905550565b60015f81905550565b5f5ffd5b5f73ffffffffffffffffffffffffffffffffffffffff82169050919050565b5f6108c78261089e565b9050919050565b6108d7816108bd565b81146108e1575f5ffd5b50565b5f813590506108f2816108ce565b92915050565b5f6020828403121561090d5761090c61089a565b5b5f61091a848285016108e4565b91505092915050565b5f819050919050565b61093581610923565b82525050565b5f60208201905061094e5f83018461092c565b92915050565b61095d81610923565b8114610967575f5ffd5b50565b5f8135905061097881610954565b92915050565b5f602082840312156109935761099261089a565b5b5f6109a08482850161096a565b91505092915050565b5f819050919050565b5f6109cc6109c76109c28461089e565b6109a9565b61089e565b9050919050565b5f6109dd826109b2565b9050919050565b5f6109ee826109d3565b9050919050565b6109fe816109e4565b82525050565b5f602082019050610a175f8301846109f5565b92915050565b7f4e487b71000000000000000000000000000000000000000000000000000000005f52601160045260245ffd5b5f610a5482610923565b9150610a5f83610923565b9250828203905081811115610a7757610a76610a1d565b5b92915050565b5f610a8782610923565b9150610a9283610923565b9250828202610aa081610923565b91508282048414831517610ab757610ab6610a1d565b5b5092915050565b7f4e487b71000000000000000000000000000000000000000000000000000000005f52601260045260245ffd5b5f610af582610923565b9150610b0083610923565b925082610b1057610b0f610abe565b5b828204905092915050565b5f610b2582610923565b9150610b3083610923565b9250828201905080821115610b4857610b47610a1d565b5b92915050565b5f82825260208201905092915050565b7f43616e6e6f7420756e7374616b652030000000000000000000000000000000005f82015250565b5f610b92601083610b4e565b9150610b9d82610b5e565b602082019050919050565b5f6020820190508181035f830152610bbf81610b86565b9050919050565b7f496e73756666696369656e74207374616b6500000000000000000000000000005f82015250565b5f610bfa601283610b4e565b9150610c0582610bc6565b602082019050919050565b5f6020820190508181035f830152610c2781610bee565b9050919050565b610c37816108bd565b82525050565b5f604082019050610c505f830185610c2e565b610c5d602083018461092c565b9392505050565b5f8115159050919050565b610c7881610c64565b8114610c82575f5ffd5b50565b5f81519050610c9381610c6f565b92915050565b5f60208284031215610cae57610cad61089a565b5b5f610cbb84828501610c85565b91505092915050565b7f43616e6e6f74207374616b6520300000000000000000000000000000000000005f82015250565b5f610cf8600e83610b4e565b9150610d0382610cc4565b602082019050919050565b5f6020820190508181035f830152610d2581610cec565b9050919050565b5f606082019050610d3f5f830186610c2e565b610d4c6020830185610c2e565b610d59604083018461092c565b949350505050565b7f5265656e7472616e637947756172643a207265656e7472616e742063616c6c005f82015250565b5f610d95601f83610b4e565b9150610da082610d61565b602082019050919050565b5f6020820190508181035f830152610dc281610d89565b905091905056fea2646970667358221220823c367bb9ab4267546b48c2b9b7963b15b524770560dfd2b5e4b2c876f6485764736f6c634300081e0033",
					"opcodes": "PUSH1 0x80 PUSH1 0x40 MSTORE CALLVALUE DUP1 ISZERO PUSH2 0xF JUMPI PUSH0 PUSH0 REVERT JUMPDEST POP PUSH1 0x40 MLOAD PUSH2 0xFB4 CODESIZE SUB DUP1 PUSH2 0xFB4 DUP4 CODECOPY DUP2 DUP2 ADD PUSH1 0x40 MSTORE DUP2 ADD SWAP1 PUSH2 0x31 SWAP2 SWAP1 PUSH2 0x158 JUMP JUMPDEST PUSH1 0x1 PUSH0 DUP2 SWAP1 SSTORE POP DUP3 PUSH1 0x1 PUSH0 PUSH2 0x100 EXP DUP2 SLOAD DUP2 PUSH20 0xFFFFFFFFFFFFFFFFFFFFFFFFFFFFFFFFFFFFFFFF MUL NOT AND SWAP1 DUP4 PUSH20 0xFFFFFFFFFFFFFFFFFFFFFFFFFFFFFFFFFFFFFFFF AND MUL OR SWAP1 SSTORE POP DUP2 PUSH1 0x2 PUSH0 PUSH2 0x100 EXP DUP2 SLOAD DUP2 PUSH20 0xFFFFFFFFFFFFFFFFFFFFFFFFFFFFFFFFFFFFFFFF MUL NOT AND SWAP1 DUP4 PUSH20 0xFFFFFFFFFFFFFFFFFFFFFFFFFFFFFFFFFFFFFFFF AND MUL OR SWAP1 SSTORE POP DUP1 PUSH1 0x3 DUP2 SWAP1 SSTORE POP POP POP POP PUSH2 0x1A8 JUMP JUMPDEST PUSH0 PUSH0 REVERT JUMPDEST PUSH0 PUSH20 0xFFFFFFFFFFFFFFFFFFFFFFFFFFFFFFFFFFFFFFFF DUP3 AND SWAP1 POP SWAP2 SWAP1 POP JUMP JUMPDEST PUSH0 PUSH2 0xF4 DUP3 PUSH2 0xCB JUMP JUMPDEST SWAP1 POP SWAP2 SWAP1 POP JUMP JUMPDEST PUSH2 0x104 DUP2 PUSH2 0xEA JUMP JUMPDEST DUP2 EQ PUSH2 0x10E JUMPI PUSH0 PUSH0 REVERT JUMPDEST POP JUMP JUMPDEST PUSH0 DUP2 MLOAD SWAP1 POP PUSH2 0x11F DUP2 PUSH2 0xFB JUMP JUMPDEST SWAP3 SWAP2 POP POP JUMP JUMPDEST PUSH0 DUP2 SWAP1 POP SWAP2 SWAP1 POP JUMP JUMPDEST PUSH2 0x137 DUP2 PUSH2 0x125 JUMP JUMPDEST DUP2 EQ PUSH2 0x141 JUMPI PUSH0 PUSH0 REVERT JUMPDEST POP JUMP JUMPDEST PUSH0 DUP2 MLOAD SWAP1 POP PUSH2 0x152 DUP2 PUSH2 0x12E JUMP JUMPDEST SWAP3 SWAP2 POP POP JUMP JUMPDEST PUSH0 PUSH0 PUSH0 PUSH1 0x60 DUP5 DUP7 SUB SLT ISZERO PUSH2 0x16F JUMPI PUSH2 0x16E PUSH2 0xC7 JUMP JUMPDEST JUMPDEST PUSH0 PUSH2 0x17C DUP7 DUP3 DUP8 ADD PUSH2 0x111 JUMP JUMPDEST SWAP4 POP POP PUSH1 0x20 PUSH2 0x18D DUP7 DUP3 DUP8 ADD PUSH2 0x111 JUMP JUMPDEST SWAP3 POP POP PUSH1 0x40 PUSH2 0x19E DUP7 DUP3 DUP8 ADD PUSH2 0x144 JUMP JUMPDEST SWAP2 POP POP SWAP3 POP SWAP3 POP SWAP3 JUMP JUMPDEST PUSH2 0xDFF DUP1 PUSH2 0x1B5 PUSH0 CODECOPY PUSH0 RETURN INVALID PUSH1 0x80 PUSH1 0x40 MSTORE CALLVALUE DUP1 ISZERO PUSH2 0xF JUMPI PUSH0 PUSH0 REVERT JUMPDEST POP PUSH1 0x4 CALLDATASIZE LT PUSH2 0x9B JUMPI PUSH0 CALLDATALOAD PUSH1 0xE0 SHR DUP1 PUSH4 0x72F702F3 GT PUSH2 0x64 JUMPI DUP1 PUSH4 0x72F702F3 EQ PUSH2 0x17B JUMPI DUP1 PUSH4 0x7B0A47EE EQ PUSH2 0x199 JUMPI DUP1 PUSH4 0x817B1CD2 EQ PUSH2 0x1B7 JUMPI DUP1 PUSH4 0xA694FC3A EQ PUSH2 0x1D5 JUMPI DUP1 PUSH4 0xF7C618C1 EQ PUSH2 0x1F1 JUMPI PUSH2 0x9B JUMP JUMPDEST DUP1 PUSH3 0x8CC262 EQ PUSH2 0x9F JUMPI DUP1 PUSH4 0x700037D EQ PUSH2 0xCF JUMPI DUP1 PUSH4 0x2CE9AEAD EQ PUSH2 0xFF JUMPI DUP1 PUSH4 0x2E17DE78 EQ PUSH2 0x12F JUMPI DUP1 PUSH4 0x60217267 EQ PUSH2 0x14B JUMPI JUMPDEST PUSH0 PUSH0 REVERT JUMPDEST PUSH2 0xB9 PUSH1 0x4 DUP1 CALLDATASIZE SUB DUP2 ADD SWAP1 PUSH2 0xB4 SWAP2 SWAP1 PUSH2 0x8F8 JUMP JUMPDEST PUSH2 0x20F JUMP JUMPDEST PUSH1 0x40 MLOAD PUSH2 0xC6 SWAP2 SWAP1 PUSH2 0x93B JUMP JUMPDEST PUSH1 0x40 MLOAD DUP1 SWAP2 SUB SWAP1 RETURN JUMPDEST PUSH2 0xE9 PUSH1 0x4 DUP1 CALLDATASIZE SUB DUP2 ADD SWAP1 PUSH2 0xE4 SWAP2 SWAP1 PUSH2 0x8F8 JUMP JUMPDEST PUSH2 0x2CD JUMP JUMPDEST PUSH1 0x40 MLOAD PUSH2 0xF6 SWAP2 SWAP1 PUSH2 0x93B JUMP JUMPDEST PUSH1 0x40 MLOAD DUP1 SWAP2 SUB SWAP1 RETURN JUMPDEST PUSH2 0x119 PUSH1 0x4 DUP1 CALLDATASIZE SUB DUP2 ADD SWAP1 PUSH2 0x114 SWAP2 SWAP1 PUSH2 0x8F8 JUMP JUMPDEST PUSH2 0x2E2 JUMP JUMPDEST PUSH1 0x40 MLOAD PUSH2 0x126 SWAP2 SWAP1 PUSH2 0x93B JUMP JUMPDEST PUSH1 0x40 MLOAD DUP1 SWAP2 SUB SWAP1 RETURN JUMPDEST PUSH2 0x149 PUSH1 0x4 DUP1 CALLDATASIZE SUB DUP2 ADD SWAP1 PUSH2 0x144 SWAP2 SWAP1 PUSH2 0x97E JUMP JUMPDEST PUSH2 0x2F7 JUMP JUMPDEST STOP JUMPDEST PUSH2 0x165 PUSH1 0x4 DUP1 CALLDATASIZE SUB DUP2 ADD SWAP1 PUSH2 0x160 SWAP2 SWAP1 PUSH2 0x8F8 JUMP JUMPDEST PUSH2 0x5A7 JUMP JUMPDEST PUSH1 0x40 MLOAD PUSH2 0x172 SWAP2 SWAP1 PUSH2 0x93B JUMP JUMPDEST PUSH1 0x40 MLOAD DUP1 SWAP2 SUB SWAP1 RETURN JUMPDEST PUSH2 0x183 PUSH2 0x5BC JUMP JUMPDEST PUSH1 0x40 MLOAD PUSH2 0x190 SWAP2 SWAP1 PUSH2 0xA04 JUMP JUMPDEST PUSH1 0x40 MLOAD DUP1 SWAP2 SUB SWAP1 RETURN JUMPDEST PUSH2 0x1A1 PUSH2 0x5E1 JUMP JUMPDEST PUSH1 0x40 MLOAD PUSH2 0x1AE SWAP2 SWAP1 PUSH2 0x93B JUMP JUMPDEST PUSH1 0x40 MLOAD DUP1 SWAP2 SUB SWAP1 RETURN JUMPDEST PUSH2 0x1BF PUSH2 0x5E7 JUMP JUMPDEST PUSH1 0x40 MLOAD PUSH2 0x1CC SWAP2 SWAP1 PUSH2 0x93B JUMP JUMPDEST PUSH1 0x40 MLOAD DUP1 SWAP2 SUB SWAP1 RETURN JUMPDEST PUSH2 0x1EF PUSH1 0x4 DUP1 CALLDATASIZE SUB DUP2 ADD SWAP1 PUSH2 0x1EA SWAP2 SWAP1 PUSH2 0x97E JUMP JUMPDEST PUSH2 0x5ED JUMP JUMPDEST STOP JUMPDEST PUSH2 0x1F9 PUSH2 0x81F JUMP JUMPDEST PUSH1 0x40 MLOAD PUSH2 0x206 SWAP2 SWAP1 PUSH2 0xA04 JUMP JUMPDEST PUSH1 0x40 MLOAD DUP1 SWAP2 SUB SWAP1 RETURN JUMPDEST PUSH0 PUSH0 PUSH1 0x6 PUSH0 DUP5 PUSH20 0xFFFFFFFFFFFFFFFFFFFFFFFFFFFFFFFFFFFFFFFF AND PUSH20 0xFFFFFFFFFFFFFFFFFFFFFFFFFFFFFFFFFFFFFFFF AND DUP2 MSTORE PUSH1 0x20 ADD SWAP1 DUP2 MSTORE PUSH1 0x20 ADD PUSH0 KECCAK256 SLOAD TIMESTAMP PUSH2 0x25A SWAP2 SWAP1 PUSH2 0xA4A JUMP JUMPDEST SWAP1 POP PUSH8 0xDE0B6B3A7640000 DUP2 PUSH1 0x3 SLOAD PUSH1 0x5 PUSH0 DUP8 PUSH20 0xFFFFFFFFFFFFFFFFFFFFFFFFFFFFFFFFFFFFFFFF AND PUSH20 0xFFFFFFFFFFFFFFFFFFFFFFFFFFFFFFFFFFFFFFFF AND DUP2 MSTORE PUSH1 0x20 ADD SWAP1 DUP2 MSTORE PUSH1 0x20 ADD PUSH0 KECCAK256 SLOAD PUSH2 0x2B1 SWAP2 SWAP1 PUSH2 0xA7D JUMP JUMPDEST PUSH2 0x2BB SWAP2 SWAP1 PUSH2 0xA7D JUMP JUMPDEST PUSH2 0x2C5 SWAP2 SWAP1 PUSH2 0xAEB JUMP JUMPDEST SWAP2 POP POP SWAP2 SWAP1 POP JUMP JUMPDEST PUSH1 0x7 PUSH1 0x20 MSTORE DUP1 PUSH0 MSTORE PUSH1 0x40 PUSH0 KECCAK256 PUSH0 SWAP2 POP SWAP1 POP SLOAD DUP2 JUMP JUMPDEST PUSH1 0x6 PUSH1 0x20 MSTORE DUP1 PUSH0 MSTORE PUSH1 0x40 PUSH0 KECCAK256 PUSH0 SWAP2 POP SWAP1 POP SLOAD DUP2 JUMP JUMPDEST PUSH2 0x2FF PUSH2 0x844 JUMP JUMPDEST CALLER PUSH0 PUSH20 0xFFFFFFFFFFFFFFFFFFFFFFFFFFFFFFFFFFFFFFFF AND DUP2 PUSH20 0xFFFFFFFFFFFFFFFFFFFFFFFFFFFFFFFFFFFFFFFF AND EQ PUSH2 0x3D1 JUMPI PUSH2 0x33C DUP2 PUSH2 0x20F JUMP JUMPDEST PUSH1 0x7 PUSH0 DUP4 PUSH20 0xFFFFFFFFFFFFFFFFFFFFFFFFFFFFFFFFFFFFFFFF AND PUSH20 0xFFFFFFFFFFFFFFFFFFFFFFFFFFFFFFFFFFFFFFFF AND DUP2 MSTORE PUSH1 0x20 ADD SWAP1 DUP2 MSTORE PUSH1 0x20 ADD PUSH0 KECCAK256 PUSH0 DUP3 DUP3 SLOAD PUSH2 0x387 SWAP2 SWAP1 PUSH2 0xB1B JUMP JUMPDEST SWAP3 POP POP DUP2 SWAP1 SSTORE POP TIMESTAMP PUSH1 0x6 PUSH0 DUP4 PUSH20 0xFFFFFFFFFFFFFFFFFFFFFFFFFFFFFFFFFFFFFFFF AND PUSH20 0xFFFFFFFFFFFFFFFFFFFFFFFFFFFFFFFFFFFFFFFF AND DUP2 MSTORE PUSH1 0x20 ADD SWAP1 DUP2 MSTORE PUSH1 0x20 ADD PUSH0 KECCAK256 DUP2 SWAP1 SSTORE POP JUMPDEST PUSH0 DUP3 GT PUSH2 0x413 JUMPI PUSH1 0x40 MLOAD PUSH32 0x8C379A000000000000000000000000000000000000000000000000000000000 DUP2 MSTORE PUSH1 0x4 ADD PUSH2 0x40A SWAP1 PUSH2 0xBA8 JUMP JUMPDEST PUSH1 0x40 MLOAD DUP1 SWAP2 SUB SWAP1 REVERT JUMPDEST DUP2 PUSH1 0x5 PUSH0 CALLER PUSH20 0xFFFFFFFFFFFFFFFFFFFFFFFFFFFFFFFFFFFFFFFF AND PUSH20 0xFFFFFFFFFFFFFFFFFFFFFFFFFFFFFFFFFFFFFFFF AND DUP2 MSTORE PUSH1 0x20 ADD SWAP1 DUP2 MSTORE PUSH1 0x20 ADD PUSH0 KECCAK256 SLOAD LT ISZERO PUSH2 0x493 JUMPI PUSH1 0x40 MLOAD PUSH32 0x8C379A000000000000000000000000000000000000000000000000000000000 DUP2 MSTORE PUSH1 0x4 ADD PUSH2 0x48A SWAP1 PUSH2 0xC10 JUMP JUMPDEST PUSH1 0x40 MLOAD DUP1 SWAP2 SUB SWAP1 REVERT JUMPDEST DUP2 PUSH1 0x5 PUSH0 CALLER PUSH20 0xFFFFFFFFFFFFFFFFFFFFFFFFFFFFFFFFFFFFFFFF AND PUSH20 0xFFFFFFFFFFFFFFFFFFFFFFFFFFFFFFFFFFFFFFFF AND DUP2 MSTORE PUSH1 0x20 ADD SWAP1 DUP2 MSTORE PUSH1 0x20 ADD PUSH0 KECCAK256 PUSH0 DUP3 DUP3 SLOAD PUSH2 0x4DF SWAP2 SWAP1 PUSH2 0xA4A JUMP JUMPDEST SWAP3 POP POP DUP2 SWAP1 SSTORE POP DUP2 PUSH1 0x4 PUSH0 DUP3 DUP3 SLOAD PUSH2 0x4F7 SWAP2 SWAP1 PUSH2 0xA4A JUMP JUMPDEST SWAP3 POP POP DUP2 SWAP1 SSTORE POP PUSH1 0x1 PUSH0 SWAP1 SLOAD SWAP1 PUSH2 0x100 EXP SWAP1 DIV PUSH20 0xFFFFFFFFFFFFFFFFFFFFFFFFFFFFFFFFFFFFFFFF AND PUSH20 0xFFFFFFFFFFFFFFFFFFFFFFFFFFFFFFFFFFFFFFFF AND PUSH4 0xA9059CBB CALLER DUP5 PUSH1 0x40 MLOAD DUP4 PUSH4 0xFFFFFFFF AND PUSH1 0xE0 SHL DUP2 MSTORE PUSH1 0x4 ADD PUSH2 0x55A SWAP3 SWAP2 SWAP1 PUSH2 0xC3D JUMP JUMPDEST PUSH1 0x20 PUSH1 0x40 MLOAD DUP1 DUP4 SUB DUP2 PUSH0 DUP8 GAS CALL ISZERO DUP1 ISZERO PUSH2 0x576 JUMPI RETURNDATASIZE PUSH0 PUSH0 RETURNDATACOPY RETURNDATASIZE PUSH0 REVERT JUMPDEST POP POP POP POP PUSH1 0x40 MLOAD RETURNDATASIZE PUSH1 0x1F NOT PUSH1 0x1F DUP3 ADD AND DUP3 ADD DUP1 PUSH1 0x40 MSTORE POP DUP2 ADD SWAP1 PUSH2 0x59A SWAP2 SWAP1 PUSH2 0xC99 JUMP JUMPDEST POP POP PUSH2 0x5A4 PUSH2 0x891 JUMP JUMPDEST POP JUMP JUMPDEST PUSH1 0x5 PUSH1 0x20 MSTORE DUP1 PUSH0 MSTORE PUSH1 0x40 PUSH0 KECCAK256 PUSH0 SWAP2 POP SWAP1 POP SLOAD DUP2 JUMP JUMPDEST PUSH1 0x1 PUSH0 SWAP1 SLOAD SWAP1 PUSH2 0x100 EXP SWAP1 DIV PUSH20 0xFFFFFFFFFFFFFFFFFFFFFFFFFFFFFFFFFFFFFFFF AND DUP2 JUMP JUMPDEST PUSH1 0x3 SLOAD DUP2 JUMP JUMPDEST PUSH1 0x4 SLOAD DUP2 JUMP JUMPDEST PUSH2 0x5F5 PUSH2 0x844 JUMP JUMPDEST CALLER PUSH0 PUSH20 0xFFFFFFFFFFFFFFFFFFFFFFFFFFFFFFFFFFFFFFFF AND DUP2 PUSH20 0xFFFFFFFFFFFFFFFFFFFFFFFFFFFFFFFFFFFFFFFF AND EQ PUSH2 0x6C7 JUMPI PUSH2 0x632 DUP2 PUSH2 0x20F JUMP JUMPDEST PUSH1 0x7 PUSH0 DUP4 PUSH20 0xFFFFFFFFFFFFFFFFFFFFFFFFFFFFFFFFFFFFFFFF AND PUSH20 0xFFFFFFFFFFFFFFFFFFFFFFFFFFFFFFFFFFFFFFFF AND DUP2 MSTORE PUSH1 0x20 ADD SWAP1 DUP2 MSTORE PUSH1 0x20 ADD PUSH0 KECCAK256 PUSH0 DUP3 DUP3 SLOAD PUSH2 0x67D SWAP2 SWAP1 PUSH2 0xB1B JUMP JUMPDEST SWAP3 POP POP DUP2 SWAP1 SSTORE POP TIMESTAMP PUSH1 0x6 PUSH0 DUP4 PUSH20 0xFFFFFFFFFFFFFFFFFFFFFFFFFFFFFFFFFFFFFFFF AND PUSH20 0xFFFFFFFFFFFFFFFFFFFFFFFFFFFFFFFFFFFFFFFF AND DUP2 MSTORE PUSH1 0x20 ADD SWAP1 DUP2 MSTORE PUSH1 0x20 ADD PUSH0 KECCAK256 DUP2 SWAP1 SSTORE POP JUMPDEST PUSH0 DUP3 GT PUSH2 0x709 JUMPI PUSH1 0x40 MLOAD PUSH32 0x8C379A000000000000000000000000000000000000000000000000000000000 DUP2 MSTORE PUSH1 0x4 ADD PUSH2 0x700 SWAP1 PUSH2 0xD0E JUMP JUMPDEST PUSH1 0x40 MLOAD DUP1 SWAP2 SUB SWAP1 REVERT JUMPDEST PUSH1 0x1 PUSH0 SWAP1 SLOAD SWAP1 PUSH2 0x100 EXP SWAP1 DIV PUSH20 0xFFFFFFFFFFFFFFFFFFFFFFFFFFFFFFFFFFFFFFFF AND PUSH20 0xFFFFFFFFFFFFFFFFFFFFFFFFFFFFFFFFFFFFFFFF AND PUSH4 0x23B872DD CALLER ADDRESS DUP6 PUSH1 0x40 MLOAD DUP5 PUSH4 0xFFFFFFFF AND PUSH1 0xE0 SHL DUP2 MSTORE PUSH1 0x4 ADD PUSH2 0x767 SWAP4 SWAP3 SWAP2 SWAP1 PUSH2 0xD2C JUMP JUMPDEST PUSH1 0x20 PUSH1 0x40 MLOAD DUP1 DUP4 SUB DUP2 PUSH0 DUP8 GAS CALL ISZERO DUP1 ISZERO PUSH2 0x783 JUMPI RETURNDATASIZE PUSH0 PUSH0 RETURNDATACOPY RETURNDATASIZE PUSH0 REVERT JUMPDEST POP POP POP POP PUSH1 0x40 MLOAD RETURNDATASIZE PUSH1 0x1F NOT PUSH1 0x1F DUP3 ADD AND DUP3 ADD DUP1 PUSH1 0x40 MSTORE POP DUP2 ADD SWAP1 PUSH2 0x7A7 SWAP2 SWAP1 PUSH2 0xC99 JUMP JUMPDEST POP DUP2 PUSH1 0x5 PUSH0 CALLER PUSH20 0xFFFFFFFFFFFFFFFFFFFFFFFFFFFFFFFFFFFFFFFF AND PUSH20 0xFFFFFFFFFFFFFFFFFFFFFFFFFFFFFFFFFFFFFFFF AND DUP2 MSTORE PUSH1 0x20 ADD SWAP1 DUP2 MSTORE PUSH1 0x20 ADD PUSH0 KECCAK256 PUSH0 DUP3 DUP3 SLOAD PUSH2 0x7F4 SWAP2 SWAP1 PUSH2 0xB1B JUMP JUMPDEST SWAP3 POP POP DUP2 SWAP1 SSTORE POP DUP2 PUSH1 0x4 PUSH0 DUP3 DUP3 SLOAD PUSH2 0x80C SWAP2 SWAP1 PUSH2 0xB1B JUMP JUMPDEST SWAP3 POP POP DUP2 SWAP1 SSTORE POP POP PUSH2 0x81C PUSH2 0x891 JUMP JUMPDEST POP JUMP JUMPDEST PUSH1 0x2 PUSH0 SWAP1 SLOAD SWAP1 PUSH2 0x100 EXP SWAP1 DIV PUSH20 0xFFFFFFFFFFFFFFFFFFFFFFFFFFFFFFFFFFFFFFFF AND DUP2 JUMP JUMPDEST PUSH1 0x2 PUSH0 SLOAD SUB PUSH2 0x888 JUMPI PUSH1 0x40 MLOAD PUSH32 0x8C379A000000000000000000000000000000000000000000000000000000000 DUP2 MSTORE PUSH1 0x4 ADD PUSH2 0x87F SWAP1 PUSH2 0xDAB JUMP JUMPDEST PUSH1 0x40 MLOAD DUP1 SWAP2 SUB SWAP1 REVERT JUMPDEST PUSH1 0x2 PUSH0 DUP2 SWAP1 SSTORE POP JUMP JUMPDEST PUSH1 0x1 PUSH0 DUP2 SWAP1 SSTORE POP JUMP JUMPDEST PUSH0 PUSH0 REVERT JUMPDEST PUSH0 PUSH20 0xFFFFFFFFFFFFFFFFFFFFFFFFFFFFFFFFFFFFFFFF DUP3 AND SWAP1 POP SWAP2 SWAP1 POP JUMP JUMPDEST PUSH0 PUSH2 0x8C7 DUP3 PUSH2 0x89E JUMP JUMPDEST SWAP1 POP SWAP2 SWAP1 POP JUMP JUMPDEST PUSH2 0x8D7 DUP2 PUSH2 0x8BD JUMP JUMPDEST DUP2 EQ PUSH2 0x8E1 JUMPI PUSH0 PUSH0 REVERT JUMPDEST POP JUMP JUMPDEST PUSH0 DUP2 CALLDATALOAD SWAP1 POP PUSH2 0x8F2 DUP2 PUSH2 0x8CE JUMP JUMPDEST SWAP3 SWAP2 POP POP JUMP JUMPDEST PUSH0 PUSH1 0x20 DUP3 DUP5 SUB SLT ISZERO PUSH2 0x90D JUMPI PUSH2 0x90C PUSH2 0x89A JUMP JUMPDEST JUMPDEST PUSH0 PUSH2 0x91A DUP5 DUP3 DUP6 ADD PUSH2 0x8E4 JUMP JUMPDEST SWAP2 POP POP SWAP3 SWAP2 POP POP JUMP JUMPDEST PUSH0 DUP2 SWAP1 POP SWAP2 SWAP1 POP JUMP JUMPDEST PUSH2 0x935 DUP2 PUSH2 0x923 JUMP JUMPDEST DUP3 MSTORE POP POP JUMP JUMPDEST PUSH0 PUSH1 0x20 DUP3 ADD SWAP1 POP PUSH2 0x94E PUSH0 DUP4 ADD DUP5 PUSH2 0x92C JUMP JUMPDEST SWAP3 SWAP2 POP POP JUMP JUMPDEST PUSH2 0x95D DUP2 PUSH2 0x923 JUMP JUMPDEST DUP2 EQ PUSH2 0x967 JUMPI PUSH0 PUSH0 REVERT JUMPDEST POP JUMP JUMPDEST PUSH0 DUP2 CALLDATALOAD SWAP1 POP PUSH2 0x978 DUP2 PUSH2 0x954 JUMP JUMPDEST SWAP3 SWAP2 POP POP JUMP JUMPDEST PUSH0 PUSH1 0x20 DUP3 DUP5 SUB SLT ISZERO PUSH2 0x993 JUMPI PUSH2 0x992 PUSH2 0x89A JUMP JUMPDEST JUMPDEST PUSH0 PUSH2 0x9A0 DUP5 DUP3 DUP6 ADD PUSH2 0x96A JUMP JUMPDEST SWAP2 POP POP SWAP3 SWAP2 POP POP JUMP JUMPDEST PUSH0 DUP2 SWAP1 POP SWAP2 SWAP1 POP JUMP JUMPDEST PUSH0 PUSH2 0x9CC PUSH2 0x9C7 PUSH2 0x9C2 DUP5 PUSH2 0x89E JUMP JUMPDEST PUSH2 0x9A9 JUMP JUMPDEST PUSH2 0x89E JUMP JUMPDEST SWAP1 POP SWAP2 SWAP1 POP JUMP JUMPDEST PUSH0 PUSH2 0x9DD DUP3 PUSH2 0x9B2 JUMP JUMPDEST SWAP1 POP SWAP2 SWAP1 POP JUMP JUMPDEST PUSH0 PUSH2 0x9EE DUP3 PUSH2 0x9D3 JUMP JUMPDEST SWAP1 POP SWAP2 SWAP1 POP JUMP JUMPDEST PUSH2 0x9FE DUP2 PUSH2 0x9E4 JUMP JUMPDEST DUP3 MSTORE POP POP JUMP JUMPDEST PUSH0 PUSH1 0x20 DUP3 ADD SWAP1 POP PUSH2 0xA17 PUSH0 DUP4 ADD DUP5 PUSH2 0x9F5 JUMP JUMPDEST SWAP3 SWAP2 POP POP JUMP JUMPDEST PUSH32 0x4E487B7100000000000000000000000000000000000000000000000000000000 PUSH0 MSTORE PUSH1 0x11 PUSH1 0x4 MSTORE PUSH1 0x24 PUSH0 REVERT JUMPDEST PUSH0 PUSH2 0xA54 DUP3 PUSH2 0x923 JUMP JUMPDEST SWAP2 POP PUSH2 0xA5F DUP4 PUSH2 0x923 JUMP JUMPDEST SWAP3 POP DUP3 DUP3 SUB SWAP1 POP DUP2 DUP2 GT ISZERO PUSH2 0xA77 JUMPI PUSH2 0xA76 PUSH2 0xA1D JUMP JUMPDEST JUMPDEST SWAP3 SWAP2 POP POP JUMP JUMPDEST PUSH0 PUSH2 0xA87 DUP3 PUSH2 0x923 JUMP JUMPDEST SWAP2 POP PUSH2 0xA92 DUP4 PUSH2 0x923 JUMP JUMPDEST SWAP3 POP DUP3 DUP3 MUL PUSH2 0xAA0 DUP2 PUSH2 0x923 JUMP JUMPDEST SWAP2 POP DUP3 DUP3 DIV DUP5 EQ DUP4 ISZERO OR PUSH2 0xAB7 JUMPI PUSH2 0xAB6 PUSH2 0xA1D JUMP JUMPDEST JUMPDEST POP SWAP3 SWAP2 POP POP JUMP JUMPDEST PUSH32 0x4E487B7100000000000000000000000000000000000000000000000000000000 PUSH0 MSTORE PUSH1 0x12 PUSH1 0x4 MSTORE PUSH1 0x24 PUSH0 REVERT JUMPDEST PUSH0 PUSH2 0xAF5 DUP3 PUSH2 0x923 JUMP JUMPDEST SWAP2 POP PUSH2 0xB00 DUP4 PUSH2 0x923 JUMP JUMPDEST SWAP3 POP DUP3 PUSH2 0xB10 JUMPI PUSH2 0xB0F PUSH2 0xABE JUMP JUMPDEST JUMPDEST DUP3 DUP3 DIV SWAP1 POP SWAP3 SWAP2 POP POP JUMP JUMPDEST PUSH0 PUSH2 0xB25 DUP3 PUSH2 0x923 JUMP JUMPDEST SWAP2 POP PUSH2 0xB30 DUP4 PUSH2 0x923 JUMP JUMPDEST SWAP3 POP DUP3 DUP3 ADD SWAP1 POP DUP1 DUP3 GT ISZERO PUSH2 0xB48 JUMPI PUSH2 0xB47 PUSH2 0xA1D JUMP JUMPDEST JUMPDEST SWAP3 SWAP2 POP POP JUMP JUMPDEST PUSH0 DUP3 DUP3 MSTORE PUSH1 0x20 DUP3 ADD SWAP1 POP SWAP3 SWAP2 POP POP JUMP JUMPDEST PUSH32 0x43616E6E6F7420756E7374616B65203000000000000000000000000000000000 PUSH0 DUP3 ADD MSTORE POP JUMP JUMPDEST PUSH0 PUSH2 0xB92 PUSH1 0x10 DUP4 PUSH2 0xB4E JUMP JUMPDEST SWAP2 POP PUSH2 0xB9D DUP3 PUSH2 0xB5E JUMP JUMPDEST PUSH1 0x20 DUP3 ADD SWAP1 POP SWAP2 SWAP1 POP JUMP JUMPDEST PUSH0 PUSH1 0x20 DUP3 ADD SWAP1 POP DUP2 DUP2 SUB PUSH0 DUP4 ADD MSTORE PUSH2 0xBBF DUP2 PUSH2 0xB86 JUMP JUMPDEST SWAP1 POP SWAP2 SWAP1 POP JUMP JUMPDEST PUSH32 0x496E73756666696369656E74207374616B650000000000000000000000000000 PUSH0 DUP3 ADD MSTORE POP JUMP JUMPDEST PUSH0 PUSH2 0xBFA PUSH1 0x12 DUP4 PUSH2 0xB4E JUMP JUMPDEST SWAP2 POP PUSH2 0xC05 DUP3 PUSH2 0xBC6 JUMP JUMPDEST PUSH1 0x20 DUP3 ADD SWAP1 POP SWAP2 SWAP1 POP JUMP JUMPDEST PUSH0 PUSH1 0x20 DUP3 ADD SWAP1 POP DUP2 DUP2 SUB PUSH0 DUP4 ADD MSTORE PUSH2 0xC27 DUP2 PUSH2 0xBEE JUMP JUMPDEST SWAP1 POP SWAP2 SWAP1 POP JUMP JUMPDEST PUSH2 0xC37 DUP2 PUSH2 0x8BD JUMP JUMPDEST DUP3 MSTORE POP POP JUMP JUMPDEST PUSH0 PUSH1 0x40 DUP3 ADD SWAP1 POP PUSH2 0xC50 PUSH0 DUP4 ADD DUP6 PUSH2 0xC2E JUMP JUMPDEST PUSH2 0xC5D PUSH1 0x20 DUP4 ADD DUP5 PUSH2 0x92C JUMP JUMPDEST SWAP4 SWAP3 POP POP POP JUMP JUMPDEST PUSH0 DUP2 ISZERO ISZERO SWAP1 POP SWAP2 SWAP1 POP JUMP JUMPDEST PUSH2 0xC78 DUP2 PUSH2 0xC64 JUMP JUMPDEST DUP2 EQ PUSH2 0xC82 JUMPI PUSH0 PUSH0 REVERT JUMPDEST POP JUMP JUMPDEST PUSH0 DUP2 MLOAD SWAP1 POP PUSH2 0xC93 DUP2 PUSH2 0xC6F JUMP JUMPDEST SWAP3 SWAP2 POP POP JUMP JUMPDEST PUSH0 PUSH1 0x20 DUP3 DUP5 SUB SLT ISZERO PUSH2 0xCAE JUMPI PUSH2 0xCAD PUSH2 0x89A JUMP JUMPDEST JUMPDEST PUSH0 PUSH2 0xCBB DUP5 DUP3 DUP6 ADD PUSH2 0xC85 JUMP JUMPDEST SWAP2 POP POP SWAP3 SWAP2 POP POP JUMP JUMPDEST PUSH32 0x43616E6E6F74207374616B652030000000000000000000000000000000000000 PUSH0 DUP3 ADD MSTORE POP JUMP JUMPDEST PUSH0 PUSH2 0xCF8 PUSH1 0xE DUP4 PUSH2 0xB4E JUMP JUMPDEST SWAP2 POP PUSH2 0xD03 DUP3 PUSH2 0xCC4 JUMP JUMPDEST PUSH1 0x20 DUP3 ADD SWAP1 POP SWAP2 SWAP1 POP JUMP JUMPDEST PUSH0 PUSH1 0x20 DUP3 ADD SWAP1 POP DUP2 DUP2 SUB PUSH0 DUP4 ADD MSTORE PUSH2 0xD25 DUP2 PUSH2 0xCEC JUMP JUMPDEST SWAP1 POP SWAP2 SWAP1 POP JUMP JUMPDEST PUSH0 PUSH1 0x60 DUP3 ADD SWAP1 POP PUSH2 0xD3F PUSH0 DUP4 ADD DUP7 PUSH2 0xC2E JUMP JUMPDEST PUSH2 0xD4C PUSH1 0x20 DUP4 ADD DUP6 PUSH2 0xC2E JUMP JUMPDEST PUSH2 0xD59 PUSH1 0x40 DUP4 ADD DUP5 PUSH2 0x92C JUMP JUMPDEST SWAP5 SWAP4 POP POP POP POP JUMP JUMPDEST PUSH32 0x5265656E7472616E637947756172643A207265656E7472616E742063616C6C00 PUSH0 DUP3 ADD MSTORE POP JUMP JUMPDEST PUSH0 PUSH2 0xD95 PUSH1 0x1F DUP4 PUSH2 0xB4E JUMP JUMPDEST SWAP2 POP PUSH2 0xDA0 DUP3 PUSH2 0xD61 JUMP JUMPDEST PUSH1 0x20 DUP3 ADD SWAP1 POP SWAP2 SWAP1 POP JUMP JUMPDEST PUSH0 PUSH1 0x20 DUP3 ADD SWAP1 POP DUP2 DUP2 SUB PUSH0 DUP4 ADD MSTORE PUSH2 0xDC2 DUP2 PUSH2 0xD89 JUMP JUMPDEST SWAP1 POP SWAP2 SWAP1 POP JUMP INVALID LOG2 PUSH5 0x6970667358 0x22 SLT KECCAK256 DUP3 EXTCODECOPY CALLDATASIZE PUSH28 0xB9AB4267546B48C2B9B7963B15B524770560DFD2B5E4B2C876F64857 PUSH5 0x736F6C6343 STOP ADDMOD 0x1E STOP CALLER "
				},
				"gasEstimates": {
					"creation": {
						"codeDepositCost": "716600",
						"executionCost": "infinite",
						"totalCost": "infinite"
					},
					"external": {
						"earned(address)": "infinite",
						"lastUpdateTime(address)": "2847",
						"rewardRate()": "2447",
						"rewardToken()": "infinite",
						"rewards(address)": "2825",
						"stake(uint256)": "infinite",
						"stakedBalance(address)": "2891",
						"stakingToken()": "infinite",
						"totalStaked()": "2469",
						"unstake(uint256)": "infinite"
					}
				},
				"methodIdentifiers": {
					"earned(address)": "008cc262",
					"lastUpdateTime(address)": "2ce9aead",
					"rewardRate()": "7b0a47ee",
					"rewardToken()": "f7c618c1",
					"rewards(address)": "0700037d",
					"stake(uint256)": "a694fc3a",
					"stakedBalance(address)": "60217267",
					"stakingToken()": "72f702f3",
					"totalStaked()": "817b1cd2",
					"unstake(uint256)": "2e17de78"
				}
			},
			"storageLayout": {
				"storage": [
					{
						"astId": 10,
						"contract": "Smart Contracts/12_Staking.sol:Staking",
						"label": "_status",
						"offset": 0,
						"slot": "0",
						"type": "t_uint256"
					},
					{
						"astId": 151,
						"contract": "Smart Contracts/12_Staking.sol:Staking",
						"label": "stakingToken",
						"offset": 0,
						"slot": "1",
						"type": "t_contract(IERC20)142"
					},
					{
						"astId": 154,
						"contract": "Smart Contracts/12_Staking.sol:Staking",
						"label": "rewardToken",
						"offset": 0,
						"slot": "2",
						"type": "t_contract(IERC20)142"
					},
					{
						"astId": 156,
						"contract": "Smart Contracts/12_Staking.sol:Staking",
						"label": "rewardRate",
						"offset": 0,
						"slot": "3",
						"type": "t_uint256"
					},
					{
						"astId": 158,
						"contract": "Smart Contracts/12_Staking.sol:Staking",
						"label": "totalStaked",
						"offset": 0,
						"slot": "4",
						"type": "t_uint256"
					},
					{
						"astId": 162,
						"contract": "Smart Contracts/12_Staking.sol:Staking",
						"label": "stakedBalance",
						"offset": 0,
						"slot": "5",
						"type": "t_mapping(t_address,t_uint256)"
					},
					{
						"astId": 166,
						"contract": "Smart Contracts/12_Staking.sol:Staking",
						"label": "lastUpdateTime",
						"offset": 0,
						"slot": "6",
						"type": "t_mapping(t_address,t_uint256)"
					},
					{
						"astId": 170,
						"contract": "Smart Contracts/12_Staking.sol:Staking",
						"label": "rewards",
						"offset": 0,
						"slot": "7",
						"type": "t_mapping(t_address,t_uint256)"
					}
				],
				"types": {
					"t_address": {
						"encoding": "inplace",
						"label": "address",
						"numberOfBytes": "20"
					},
					"t_contract(IERC20)142": {
						"encoding": "inplace",
						"label": "contract IERC20",
						"numberOfBytes": "20"
					},
					"t_mapping(t_address,t_uint256)": {
						"encoding": "mapping",
						"key": "t_address",
						"label": "mapping(address => uint256)",
						"numberOfBytes": "32",
						"value": "t_uint256"
					},
					"t_uint256": {
						"encoding": "inplace",
						"label": "uint256",
						"numberOfBytes": "32"
					}
				}
			},
			"userdoc": {
				"kind": "user",
				"methods": {},
				"version": 1
			}
		}
	}
}