{
	"Smart Contracts/14_DecentralizedExchange.sol": {
		"MiniDEX": {
			"abi": [
				{
					"inputs": [
						{
							"internalType": "address",
							"name": "_tokenA",
							"type": "address"
						},
						{
							"internalType": "address",
							"name": "_tokenB",
							"type": "address"
						}
					],
					"stateMutability": "nonpayable",
					"type": "constructor"
				},
				{
					"anonymous": false,
					"inputs": [
						{
							"indexed": true,
							"internalType": "address",
							"name": "user",
							"type": "address"
						},
						{
							"indexed": false,
							"internalType": "address",
							"name": "tokenIn",
							"type": "address"
						},
						{
							"indexed": false,
							"internalType": "address",
							"name": "tokenOut",
							"type": "address"
						},
						{
							"indexed": false,
							"internalType": "uint256",
							"name": "amountIn",
							"type": "uint256"
						},
						{
							"indexed": false,
							"internalType": "uint256",
							"name": "amountOut",
							"type": "uint256"
						}
					],
					"name": "Swap",
					"type": "event"
				},
				{
					"inputs": [],
					"name": "FEE_DENOMINATOR",
					"outputs": [
						{
							"internalType": "uint256",
							"name": "",
							"type": "uint256"
						}
					],
					"stateMutability": "view",
					"type": "function"
				},
				{
					"inputs": [],
					"name": "FEE_PERCENT",
					"outputs": [
						{
							"internalType": "uint256",
							"name": "",
							"type": "uint256"
						}
					],
					"stateMutability": "view",
					"type": "function"
				},
				{
					"inputs": [
						{
							"internalType": "uint256",
							"name": "amountA",
							"type": "uint256"
						},
						{
							"internalType": "uint256",
							"name": "amountB",
							"type": "uint256"
						}
					],
					"name": "addLiquidity",
					"outputs": [],
					"stateMutability": "nonpayable",
					"type": "function"
				},
				{
					"inputs": [],
					"name": "reserveA",
					"outputs": [
						{
							"internalType": "uint256",
							"name": "",
							"type": "uint256"
						}
					],
					"stateMutability": "view",
					"type": "function"
				},
				{
					"inputs": [],
					"name": "reserveB",
					"outputs": [
						{
							"internalType": "uint256",
							"name": "",
							"type": "uint256"
						}
					],
					"stateMutability": "view",
					"type": "function"
				},
				{
					"inputs": [
						{
							"internalType": "uint256",
							"name": "amountAIn",
							"type": "uint256"
						}
					],
					"name": "swapAforB",
					"outputs": [],
					"stateMutability": "nonpayable",
					"type": "function"
				},
				{
					"inputs": [],
					"name": "tokenA",
					"outputs": [
						{
							"internalType": "contract IERC20",
							"name": "",
							"type": "address"
						}
					],
					"stateMutability": "view",
					"type": "function"
				},
				{
					"inputs": [],
					"name": "tokenB",
					"outputs": [
						{
							"internalType": "contract IERC20",
							"name": "",
							"type": "address"
						}
					],
					"stateMutability": "view",
					"type": "function"
				}
			],
			"devdoc": {
				"kind": "dev",
				"methods": {},
				"version": 1
			},
			"evm": {
				"assembly": "    /* \"Smart Contracts/14_DecentralizedExchange.sol\":291:2028  contract MiniDEX is ReentrancyGuard {... */\n  mstore(0x40, 0x80)\n    /* \"Smart Contracts/14_DecentralizedExchange.sol\":720:844  constructor(address _tokenA, address _tokenB) {... */\n  callvalue\n  dup1\n  iszero\n  tag_1\n  jumpi\n  revert(0x00, 0x00)\ntag_1:\n  pop\n  mload(0x40)\n  sub(codesize, bytecodeSize)\n  dup1\n  bytecodeSize\n  dup4\n  codecopy\n  dup2\n  dup2\n  add\n  0x40\n  mstore\n  dup2\n  add\n  swap1\n  tag_2\n  swap2\n  swap1\n  tag_3\n  jump\t// in\ntag_2:\n    /* \"https://github.com/OpenZeppelin/openzeppelin-contracts/blob/v4.9.0/contracts/security/ReentrancyGuard.sol\":1716:1717  1 */\n  0x01\n    /* \"https://github.com/OpenZeppelin/openzeppelin-contracts/blob/v4.9.0/contracts/security/ReentrancyGuard.sol\":1821:1828  _status */\n  0x00\n    /* \"https://github.com/OpenZeppelin/openzeppelin-contracts/blob/v4.9.0/contracts/security/ReentrancyGuard.sol\":1821:1843  _status = _NOT_ENTERED */\n  dup2\n  swap1\n  sstore\n  pop\n    /* \"Smart Contracts/14_DecentralizedExchange.sol\":793:800  _tokenA */\n  dup2\n    /* \"Smart Contracts/14_DecentralizedExchange.sol\":777:783  tokenA */\n  0x01\n  0x00\n    /* \"Smart Contracts/14_DecentralizedExchange.sol\":777:801  tokenA = IERC20(_tokenA) */\n  0x0100\n  exp\n  dup2\n  sload\n  dup2\n  0xffffffffffffffffffffffffffffffffffffffff\n  mul\n  not\n  and\n  swap1\n  dup4\n  0xffffffffffffffffffffffffffffffffffffffff\n  and\n  mul\n  or\n  swap1\n  sstore\n  pop\n    /* \"Smart Contracts/14_DecentralizedExchange.sol\":828:835  _tokenB */\n  dup1\n    /* \"Smart Contracts/14_DecentralizedExchange.sol\":812:818  tokenB */\n  0x02\n  0x00\n    /* \"Smart Contracts/14_DecentralizedExchange.sol\":812:836  tokenB = IERC20(_tokenB) */\n  0x0100\n  exp\n  dup2\n  sload\n  dup2\n  0xffffffffffffffffffffffffffffffffffffffff\n  mul\n  not\n  and\n  swap1\n  dup4\n  0xffffffffffffffffffffffffffffffffffffffff\n  and\n  mul\n  or\n  swap1\n  sstore\n  pop\n    /* \"Smart Contracts/14_DecentralizedExchange.sol\":720:844  constructor(address _tokenA, address _tokenB) {... */\n  pop\n  pop\n    /* \"Smart Contracts/14_DecentralizedExchange.sol\":291:2028  contract MiniDEX is ReentrancyGuard {... */\n  jump(tag_8)\n    /* \"#utility.yul\":88:205   */\ntag_10:\n    /* \"#utility.yul\":197:198   */\n  0x00\n    /* \"#utility.yul\":194:195   */\n  0x00\n    /* \"#utility.yul\":187:199   */\n  revert\n    /* \"#utility.yul\":334:460   */\ntag_12:\n    /* \"#utility.yul\":371:378   */\n  0x00\n    /* \"#utility.yul\":411:453   */\n  0xffffffffffffffffffffffffffffffffffffffff\n    /* \"#utility.yul\":404:409   */\n  dup3\n    /* \"#utility.yul\":400:454   */\n  and\n    /* \"#utility.yul\":389:454   */\n  swap1\n  pop\n    /* \"#utility.yul\":334:460   */\n  swap2\n  swap1\n  pop\n  jump\t// out\n    /* \"#utility.yul\":466:562   */\ntag_13:\n    /* \"#utility.yul\":503:510   */\n  0x00\n    /* \"#utility.yul\":532:556   */\n  tag_22\n    /* \"#utility.yul\":550:555   */\n  dup3\n    /* \"#utility.yul\":532:556   */\n  tag_12\n  jump\t// in\ntag_22:\n    /* \"#utility.yul\":521:556   */\n  swap1\n  pop\n    /* \"#utility.yul\":466:562   */\n  swap2\n  swap1\n  pop\n  jump\t// out\n    /* \"#utility.yul\":568:690   */\ntag_14:\n    /* \"#utility.yul\":641:665   */\n  tag_24\n    /* \"#utility.yul\":659:664   */\n  dup2\n    /* \"#utility.yul\":641:665   */\n  tag_13\n  jump\t// in\ntag_24:\n    /* \"#utility.yul\":634:639   */\n  dup2\n    /* \"#utility.yul\":631:666   */\n  eq\n    /* \"#utility.yul\":621:684   */\n  tag_25\n  jumpi\n    /* \"#utility.yul\":680:681   */\n  0x00\n    /* \"#utility.yul\":677:678   */\n  0x00\n    /* \"#utility.yul\":670:682   */\n  revert\n    /* \"#utility.yul\":621:684   */\ntag_25:\n    /* \"#utility.yul\":568:690   */\n  pop\n  jump\t// out\n    /* \"#utility.yul\":696:839   */\ntag_15:\n    /* \"#utility.yul\":753:758   */\n  0x00\n    /* \"#utility.yul\":784:790   */\n  dup2\n    /* \"#utility.yul\":778:791   */\n  mload\n    /* \"#utility.yul\":769:791   */\n  swap1\n  pop\n    /* \"#utility.yul\":800:833   */\n  tag_27\n    /* \"#utility.yul\":827:832   */\n  dup2\n    /* \"#utility.yul\":800:833   */\n  tag_14\n  jump\t// in\ntag_27:\n    /* \"#utility.yul\":696:839   */\n  swap3\n  swap2\n  pop\n  pop\n  jump\t// out\n    /* \"#utility.yul\":845:1352   */\ntag_3:\n    /* \"#utility.yul\":924:930   */\n  0x00\n    /* \"#utility.yul\":932:938   */\n  0x00\n    /* \"#utility.yul\":981:983   */\n  0x40\n    /* \"#utility.yul\":969:978   */\n  dup4\n    /* \"#utility.yul\":960:967   */\n  dup6\n    /* \"#utility.yul\":956:979   */\n  sub\n    /* \"#utility.yul\":952:984   */\n  slt\n    /* \"#utility.yul\":949:1068   */\n  iszero\n  tag_29\n  jumpi\n    /* \"#utility.yul\":987:1066   */\n  tag_30\n  tag_10\n  jump\t// in\ntag_30:\n    /* \"#utility.yul\":949:1068   */\ntag_29:\n    /* \"#utility.yul\":1107:1108   */\n  0x00\n    /* \"#utility.yul\":1132:1196   */\n  tag_31\n    /* \"#utility.yul\":1188:1195   */\n  dup6\n    /* \"#utility.yul\":1179:1185   */\n  dup3\n    /* \"#utility.yul\":1168:1177   */\n  dup7\n    /* \"#utility.yul\":1164:1186   */\n  add\n    /* \"#utility.yul\":1132:1196   */\n  tag_15\n  jump\t// in\ntag_31:\n    /* \"#utility.yul\":1122:1196   */\n  swap3\n  pop\n    /* \"#utility.yul\":1078:1206   */\n  pop\n    /* \"#utility.yul\":1245:1247   */\n  0x20\n    /* \"#utility.yul\":1271:1335   */\n  tag_32\n    /* \"#utility.yul\":1327:1334   */\n  dup6\n    /* \"#utility.yul\":1318:1324   */\n  dup3\n    /* \"#utility.yul\":1307:1316   */\n  dup7\n    /* \"#utility.yul\":1303:1325   */\n  add\n    /* \"#utility.yul\":1271:1335   */\n  tag_15\n  jump\t// in\ntag_32:\n    /* \"#utility.yul\":1261:1335   */\n  swap2\n  pop\n    /* \"#utility.yul\":1216:1345   */\n  pop\n    /* \"#utility.yul\":845:1352   */\n  swap3\n  pop\n  swap3\n  swap1\n  pop\n  jump\t// out\n    /* \"Smart Contracts/14_DecentralizedExchange.sol\":291:2028  contract MiniDEX is ReentrancyGuard {... */\ntag_8:\n  dataSize(sub_0)\n  dup1\n  dataOffset(sub_0)\n  0x00\n  codecopy\n  0x00\n  return\nstop\n\nsub_0: assembly {\n        /* \"Smart Contracts/14_DecentralizedExchange.sol\":291:2028  contract MiniDEX is ReentrancyGuard {... */\n      mstore(0x40, 0x80)\n      callvalue\n      dup1\n      iszero\n      tag_1\n      jumpi\n      revert(0x00, 0x00)\n    tag_1:\n      pop\n      jumpi(tag_2, lt(calldatasize, 0x04))\n      shr(0xe0, calldataload(0x00))\n      dup1\n      0xd73792a9\n      gt\n      tag_11\n      jumpi\n      dup1\n      0xd73792a9\n      eq\n      tag_7\n      jumpi\n      dup1\n      0xdc5fa6c5\n      eq\n      tag_8\n      jumpi\n      dup1\n      0xe4f1f70a\n      eq\n      tag_9\n      jumpi\n      dup1\n      0xeaf98d23\n      eq\n      tag_10\n      jumpi\n      jump(tag_2)\n    tag_11:\n      dup1\n      0x0fc63d10\n      eq\n      tag_3\n      jumpi\n      dup1\n      0x19e36f3b\n      eq\n      tag_4\n      jumpi\n      dup1\n      0x5f64b55b\n      eq\n      tag_5\n      jumpi\n      dup1\n      0x9cd441da\n      eq\n      tag_6\n      jumpi\n    tag_2:\n      revert(0x00, 0x00)\n        /* \"Smart Contracts/14_DecentralizedExchange.sol\":336:356  IERC20 public tokenA */\n    tag_3:\n      tag_12\n      tag_13\n      jump\t// in\n    tag_12:\n      mload(0x40)\n      tag_14\n      swap2\n      swap1\n      tag_15\n      jump\t// in\n    tag_14:\n      mload(0x40)\n      dup1\n      swap2\n      sub\n      swap1\n      return\n        /* \"Smart Contracts/14_DecentralizedExchange.sol\":422:445  uint256 public reserveB */\n    tag_4:\n      tag_16\n      tag_17\n      jump\t// in\n    tag_16:\n      mload(0x40)\n      tag_18\n      swap2\n      swap1\n      tag_19\n      jump\t// in\n    tag_18:\n      mload(0x40)\n      dup1\n      swap2\n      sub\n      swap1\n      return\n        /* \"Smart Contracts/14_DecentralizedExchange.sol\":363:383  IERC20 public tokenB */\n    tag_5:\n      tag_20\n      tag_21\n      jump\t// in\n    tag_20:\n      mload(0x40)\n      tag_22\n      swap2\n      swap1\n      tag_15\n      jump\t// in\n    tag_22:\n      mload(0x40)\n      dup1\n      swap2\n      sub\n      swap1\n      return\n        /* \"Smart Contracts/14_DecentralizedExchange.sol\":852:1199  function addLiquidity(uint256 amountA, uint256 amountB) external nonReentrant {... */\n    tag_6:\n      tag_23\n      0x04\n      dup1\n      calldatasize\n      sub\n      dup2\n      add\n      swap1\n      tag_24\n      swap2\n      swap1\n      tag_25\n      jump\t// in\n    tag_24:\n      tag_26\n      jump\t// in\n    tag_23:\n      stop\n        /* \"Smart Contracts/14_DecentralizedExchange.sol\":500:546  uint256 public constant FEE_DENOMINATOR = 1000 */\n    tag_7:\n      tag_27\n      tag_28\n      jump\t// in\n    tag_27:\n      mload(0x40)\n      tag_29\n      swap2\n      swap1\n      tag_19\n      jump\t// in\n    tag_29:\n      mload(0x40)\n      dup1\n      swap2\n      sub\n      swap1\n      return\n        /* \"Smart Contracts/14_DecentralizedExchange.sol\":392:415  uint256 public reserveA */\n    tag_8:\n      tag_30\n      tag_31\n      jump\t// in\n    tag_30:\n      mload(0x40)\n      tag_32\n      swap2\n      swap1\n      tag_19\n      jump\t// in\n    tag_32:\n      mload(0x40)\n      dup1\n      swap2\n      sub\n      swap1\n      return\n        /* \"Smart Contracts/14_DecentralizedExchange.sol\":1207:2025  function swapAforB(uint256 amountAIn) external nonReentrant {... */\n    tag_9:\n      tag_33\n      0x04\n      dup1\n      calldatasize\n      sub\n      dup2\n      add\n      swap1\n      tag_34\n      swap2\n      swap1\n      tag_35\n      jump\t// in\n    tag_34:\n      tag_36\n      jump\t// in\n    tag_33:\n      stop\n        /* \"Smart Contracts/14_DecentralizedExchange.sol\":454:493  uint256 public constant FEE_PERCENT = 3 */\n    tag_10:\n      tag_37\n      tag_38\n      jump\t// in\n    tag_37:\n      mload(0x40)\n      tag_39\n      swap2\n      swap1\n      tag_19\n      jump\t// in\n    tag_39:\n      mload(0x40)\n      dup1\n      swap2\n      sub\n      swap1\n      return\n        /* \"Smart Contracts/14_DecentralizedExchange.sol\":336:356  IERC20 public tokenA */\n    tag_13:\n      0x01\n      0x00\n      swap1\n      sload\n      swap1\n      0x0100\n      exp\n      swap1\n      div\n      0xffffffffffffffffffffffffffffffffffffffff\n      and\n      dup2\n      jump\t// out\n        /* \"Smart Contracts/14_DecentralizedExchange.sol\":422:445  uint256 public reserveB */\n    tag_17:\n      sload(0x04)\n      dup2\n      jump\t// out\n        /* \"Smart Contracts/14_DecentralizedExchange.sol\":363:383  IERC20 public tokenB */\n    tag_21:\n      0x02\n      0x00\n      swap1\n      sload\n      swap1\n      0x0100\n      exp\n      swap1\n      div\n      0xffffffffffffffffffffffffffffffffffffffff\n      and\n      dup2\n      jump\t// out\n        /* \"Smart Contracts/14_DecentralizedExchange.sol\":852:1199  function addLiquidity(uint256 amountA, uint256 amountB) external nonReentrant {... */\n    tag_26:\n        /* \"https://github.com/OpenZeppelin/openzeppelin-contracts/blob/v4.9.0/contracts/security/ReentrancyGuard.sol\":2261:2282  _nonReentrantBefore() */\n      tag_41\n        /* \"https://github.com/OpenZeppelin/openzeppelin-contracts/blob/v4.9.0/contracts/security/ReentrancyGuard.sol\":2261:2280  _nonReentrantBefore */\n      tag_42\n        /* \"https://github.com/OpenZeppelin/openzeppelin-contracts/blob/v4.9.0/contracts/security/ReentrancyGuard.sol\":2261:2282  _nonReentrantBefore() */\n      jump\t// in\n    tag_41:\n        /* \"Smart Contracts/14_DecentralizedExchange.sol\":959:960  0 */\n      0x00\n        /* \"Smart Contracts/14_DecentralizedExchange.sol\":949:956  amountA */\n      dup3\n        /* \"Smart Contracts/14_DecentralizedExchange.sol\":949:960  amountA > 0 */\n      gt\n        /* \"Smart Contracts/14_DecentralizedExchange.sol\":949:975  amountA > 0 && amountB > 0 */\n      dup1\n      iszero\n      tag_44\n      jumpi\n      pop\n        /* \"Smart Contracts/14_DecentralizedExchange.sol\":974:975  0 */\n      0x00\n        /* \"Smart Contracts/14_DecentralizedExchange.sol\":964:971  amountB */\n      dup2\n        /* \"Smart Contracts/14_DecentralizedExchange.sol\":964:975  amountB > 0 */\n      gt\n        /* \"Smart Contracts/14_DecentralizedExchange.sol\":949:975  amountA > 0 && amountB > 0 */\n    tag_44:\n        /* \"Smart Contracts/14_DecentralizedExchange.sol\":941:995  require(amountA > 0 && amountB > 0, \"Invalid amounts\") */\n      tag_45\n      jumpi\n      mload(0x40)\n      0x08c379a000000000000000000000000000000000000000000000000000000000\n      dup2\n      mstore\n      0x04\n      add\n      tag_46\n      swap1\n      tag_47\n      jump\t// in\n    tag_46:\n      mload(0x40)\n      dup1\n      swap2\n      sub\n      swap1\n      revert\n    tag_45:\n        /* \"Smart Contracts/14_DecentralizedExchange.sol\":1008:1014  tokenA */\n      0x01\n      0x00\n      swap1\n      sload\n      swap1\n      0x0100\n      exp\n      swap1\n      div\n      0xffffffffffffffffffffffffffffffffffffffff\n      and\n        /* \"Smart Contracts/14_DecentralizedExchange.sol\":1008:1027  tokenA.transferFrom */\n      0xffffffffffffffffffffffffffffffffffffffff\n      and\n      0x23b872dd\n        /* \"Smart Contracts/14_DecentralizedExchange.sol\":1028:1038  msg.sender */\n      caller\n        /* \"Smart Contracts/14_DecentralizedExchange.sol\":1048:1052  this */\n      address\n        /* \"Smart Contracts/14_DecentralizedExchange.sol\":1055:1062  amountA */\n      dup6\n        /* \"Smart Contracts/14_DecentralizedExchange.sol\":1008:1063  tokenA.transferFrom(msg.sender, address(this), amountA) */\n      mload(0x40)\n      dup5\n      0xffffffff\n      and\n      0xe0\n      shl\n      dup2\n      mstore\n      0x04\n      add\n      tag_48\n      swap4\n      swap3\n      swap2\n      swap1\n      tag_49\n      jump\t// in\n    tag_48:\n      0x20\n      mload(0x40)\n      dup1\n      dup4\n      sub\n      dup2\n      0x00\n      dup8\n      gas\n      call\n      iszero\n      dup1\n      iszero\n      tag_51\n      jumpi\n      returndatacopy(0x00, 0x00, returndatasize)\n      revert(0x00, returndatasize)\n    tag_51:\n      pop\n      pop\n      pop\n      pop\n      mload(0x40)\n      returndatasize\n      not(0x1f)\n      0x1f\n      dup3\n      add\n      and\n      dup3\n      add\n      dup1\n      0x40\n      mstore\n      pop\n      dup2\n      add\n      swap1\n      tag_52\n      swap2\n      swap1\n      tag_53\n      jump\t// in\n    tag_52:\n      pop\n        /* \"Smart Contracts/14_DecentralizedExchange.sol\":1074:1080  tokenB */\n      0x02\n      0x00\n      swap1\n      sload\n      swap1\n      0x0100\n      exp\n      swap1\n      div\n      0xffffffffffffffffffffffffffffffffffffffff\n      and\n        /* \"Smart Contracts/14_DecentralizedExchange.sol\":1074:1093  tokenB.transferFrom */\n      0xffffffffffffffffffffffffffffffffffffffff\n      and\n      0x23b872dd\n        /* \"Smart Contracts/14_DecentralizedExchange.sol\":1094:1104  msg.sender */\n      caller\n        /* \"Smart Contracts/14_DecentralizedExchange.sol\":1114:1118  this */\n      address\n        /* \"Smart Contracts/14_DecentralizedExchange.sol\":1121:1128  amountB */\n      dup5\n        /* \"Smart Contracts/14_DecentralizedExchange.sol\":1074:1129  tokenB.transferFrom(msg.sender, address(this), amountB) */\n      mload(0x40)\n      dup5\n      0xffffffff\n      and\n      0xe0\n      shl\n      dup2\n      mstore\n      0x04\n      add\n      tag_54\n      swap4\n      swap3\n      swap2\n      swap1\n      tag_49\n      jump\t// in\n    tag_54:\n      0x20\n      mload(0x40)\n      dup1\n      dup4\n      sub\n      dup2\n      0x00\n      dup8\n      gas\n      call\n      iszero\n      dup1\n      iszero\n      tag_56\n      jumpi\n      returndatacopy(0x00, 0x00, returndatasize)\n      revert(0x00, returndatasize)\n    tag_56:\n      pop\n      pop\n      pop\n      pop\n      mload(0x40)\n      returndatasize\n      not(0x1f)\n      0x1f\n      dup3\n      add\n      and\n      dup3\n      add\n      dup1\n      0x40\n      mstore\n      pop\n      dup2\n      add\n      swap1\n      tag_57\n      swap2\n      swap1\n      tag_53\n      jump\t// in\n    tag_57:\n      pop\n        /* \"Smart Contracts/14_DecentralizedExchange.sol\":1154:1161  amountA */\n      dup2\n        /* \"Smart Contracts/14_DecentralizedExchange.sol\":1142:1150  reserveA */\n      0x03\n      0x00\n        /* \"Smart Contracts/14_DecentralizedExchange.sol\":1142:1161  reserveA += amountA */\n      dup3\n      dup3\n      sload\n      tag_58\n      swap2\n      swap1\n      tag_59\n      jump\t// in\n    tag_58:\n      swap3\n      pop\n      pop\n      dup2\n      swap1\n      sstore\n      pop\n        /* \"Smart Contracts/14_DecentralizedExchange.sol\":1184:1191  amountB */\n      dup1\n        /* \"Smart Contracts/14_DecentralizedExchange.sol\":1172:1180  reserveB */\n      0x04\n      0x00\n        /* \"Smart Contracts/14_DecentralizedExchange.sol\":1172:1191  reserveB += amountB */\n      dup3\n      dup3\n      sload\n      tag_60\n      swap2\n      swap1\n      tag_59\n      jump\t// in\n    tag_60:\n      swap3\n      pop\n      pop\n      dup2\n      swap1\n      sstore\n      pop\n        /* \"https://github.com/OpenZeppelin/openzeppelin-contracts/blob/v4.9.0/contracts/security/ReentrancyGuard.sol\":2303:2323  _nonReentrantAfter() */\n      tag_61\n        /* \"https://github.com/OpenZeppelin/openzeppelin-contracts/blob/v4.9.0/contracts/security/ReentrancyGuard.sol\":2303:2321  _nonReentrantAfter */\n      tag_62\n        /* \"https://github.com/OpenZeppelin/openzeppelin-contracts/blob/v4.9.0/contracts/security/ReentrancyGuard.sol\":2303:2323  _nonReentrantAfter() */\n      jump\t// in\n    tag_61:\n        /* \"Smart Contracts/14_DecentralizedExchange.sol\":852:1199  function addLiquidity(uint256 amountA, uint256 amountB) external nonReentrant {... */\n      pop\n      pop\n      jump\t// out\n        /* \"Smart Contracts/14_DecentralizedExchange.sol\":500:546  uint256 public constant FEE_DENOMINATOR = 1000 */\n    tag_28:\n        /* \"Smart Contracts/14_DecentralizedExchange.sol\":542:546  1000 */\n      0x03e8\n        /* \"Smart Contracts/14_DecentralizedExchange.sol\":500:546  uint256 public constant FEE_DENOMINATOR = 1000 */\n      dup2\n      jump\t// out\n        /* \"Smart Contracts/14_DecentralizedExchange.sol\":392:415  uint256 public reserveA */\n    tag_31:\n      sload(0x03)\n      dup2\n      jump\t// out\n        /* \"Smart Contracts/14_DecentralizedExchange.sol\":1207:2025  function swapAforB(uint256 amountAIn) external nonReentrant {... */\n    tag_36:\n        /* \"https://github.com/OpenZeppelin/openzeppelin-contracts/blob/v4.9.0/contracts/security/ReentrancyGuard.sol\":2261:2282  _nonReentrantBefore() */\n      tag_64\n        /* \"https://github.com/OpenZeppelin/openzeppelin-contracts/blob/v4.9.0/contracts/security/ReentrancyGuard.sol\":2261:2280  _nonReentrantBefore */\n      tag_42\n        /* \"https://github.com/OpenZeppelin/openzeppelin-contracts/blob/v4.9.0/contracts/security/ReentrancyGuard.sol\":2261:2282  _nonReentrantBefore() */\n      jump\t// in\n    tag_64:\n        /* \"Smart Contracts/14_DecentralizedExchange.sol\":1298:1299  0 */\n      0x00\n        /* \"Smart Contracts/14_DecentralizedExchange.sol\":1286:1295  amountAIn */\n      dup2\n        /* \"Smart Contracts/14_DecentralizedExchange.sol\":1286:1299  amountAIn > 0 */\n      gt\n        /* \"Smart Contracts/14_DecentralizedExchange.sol\":1278:1317  require(amountAIn > 0, \"Invalid input\") */\n      tag_66\n      jumpi\n      mload(0x40)\n      0x08c379a000000000000000000000000000000000000000000000000000000000\n      dup2\n      mstore\n      0x04\n      add\n      tag_67\n      swap1\n      tag_68\n      jump\t// in\n    tag_67:\n      mload(0x40)\n      dup1\n      swap2\n      sub\n      swap1\n      revert\n    tag_66:\n        /* \"Smart Contracts/14_DecentralizedExchange.sol\":1347:1348  0 */\n      0x00\n        /* \"Smart Contracts/14_DecentralizedExchange.sol\":1336:1344  reserveA */\n      sload(0x03)\n        /* \"Smart Contracts/14_DecentralizedExchange.sol\":1336:1348  reserveA > 0 */\n      gt\n        /* \"Smart Contracts/14_DecentralizedExchange.sol\":1336:1364  reserveA > 0 && reserveB > 0 */\n      dup1\n      iszero\n      tag_69\n      jumpi\n      pop\n        /* \"Smart Contracts/14_DecentralizedExchange.sol\":1363:1364  0 */\n      0x00\n        /* \"Smart Contracts/14_DecentralizedExchange.sol\":1352:1360  reserveB */\n      sload(0x04)\n        /* \"Smart Contracts/14_DecentralizedExchange.sol\":1352:1364  reserveB > 0 */\n      gt\n        /* \"Smart Contracts/14_DecentralizedExchange.sol\":1336:1364  reserveA > 0 && reserveB > 0 */\n    tag_69:\n        /* \"Smart Contracts/14_DecentralizedExchange.sol\":1328:1381  require(reserveA > 0 && reserveB > 0, \"No liquidity\") */\n      tag_70\n      jumpi\n      mload(0x40)\n      0x08c379a000000000000000000000000000000000000000000000000000000000\n      dup2\n      mstore\n      0x04\n      add\n      tag_71\n      swap1\n      tag_72\n      jump\t// in\n    tag_71:\n      mload(0x40)\n      dup1\n      swap2\n      sub\n      swap1\n      revert\n    tag_70:\n        /* \"Smart Contracts/14_DecentralizedExchange.sol\":1394:1400  tokenA */\n      0x01\n      0x00\n      swap1\n      sload\n      swap1\n      0x0100\n      exp\n      swap1\n      div\n      0xffffffffffffffffffffffffffffffffffffffff\n      and\n        /* \"Smart Contracts/14_DecentralizedExchange.sol\":1394:1413  tokenA.transferFrom */\n      0xffffffffffffffffffffffffffffffffffffffff\n      and\n      0x23b872dd\n        /* \"Smart Contracts/14_DecentralizedExchange.sol\":1414:1424  msg.sender */\n      caller\n        /* \"Smart Contracts/14_DecentralizedExchange.sol\":1434:1438  this */\n      address\n        /* \"Smart Contracts/14_DecentralizedExchange.sol\":1441:1450  amountAIn */\n      dup5\n        /* \"Smart Contracts/14_DecentralizedExchange.sol\":1394:1451  tokenA.transferFrom(msg.sender, address(this), amountAIn) */\n      mload(0x40)\n      dup5\n      0xffffffff\n      and\n      0xe0\n      shl\n      dup2\n      mstore\n      0x04\n      add\n      tag_73\n      swap4\n      swap3\n      swap2\n      swap1\n      tag_49\n      jump\t// in\n    tag_73:\n      0x20\n      mload(0x40)\n      dup1\n      dup4\n      sub\n      dup2\n      0x00\n      dup8\n      gas\n      call\n      iszero\n      dup1\n      iszero\n      tag_75\n      jumpi\n      returndatacopy(0x00, 0x00, returndatasize)\n      revert(0x00, returndatasize)\n    tag_75:\n      pop\n      pop\n      pop\n      pop\n      mload(0x40)\n      returndatasize\n      not(0x1f)\n      0x1f\n      dup3\n      add\n      and\n      dup3\n      add\n      dup1\n      0x40\n      mstore\n      pop\n      dup2\n      add\n      swap1\n      tag_76\n      swap2\n      swap1\n      tag_53\n      jump\t// in\n    tag_76:\n      pop\n        /* \"Smart Contracts/14_DecentralizedExchange.sol\":1464:1487  uint256 amountInWithFee */\n      0x00\n        /* \"Smart Contracts/14_DecentralizedExchange.sol\":542:546  1000 */\n      0x03e8\n        /* \"Smart Contracts/14_DecentralizedExchange.sol\":492:493  3 */\n      0x03\n        /* \"Smart Contracts/14_DecentralizedExchange.sol\":542:546  1000 */\n      0x03e8\n        /* \"Smart Contracts/14_DecentralizedExchange.sol\":1517:1546  FEE_DENOMINATOR - FEE_PERCENT */\n      tag_77\n      swap2\n      swap1\n      tag_78\n      jump\t// in\n    tag_77:\n        /* \"Smart Contracts/14_DecentralizedExchange.sol\":1504:1513  amountAIn */\n      dup4\n        /* \"Smart Contracts/14_DecentralizedExchange.sol\":1504:1547  amountAIn * (FEE_DENOMINATOR - FEE_PERCENT) */\n      tag_79\n      swap2\n      swap1\n      tag_80\n      jump\t// in\n    tag_79:\n        /* \"Smart Contracts/14_DecentralizedExchange.sol\":1503:1566  (amountAIn * (FEE_DENOMINATOR - FEE_PERCENT)) / FEE_DENOMINATOR */\n      tag_81\n      swap2\n      swap1\n      tag_82\n      jump\t// in\n    tag_81:\n        /* \"Smart Contracts/14_DecentralizedExchange.sol\":1464:1566  uint256 amountInWithFee =... */\n      swap1\n      pop\n        /* \"Smart Contracts/14_DecentralizedExchange.sol\":1579:1597  uint256 amountBOut */\n      0x00\n        /* \"Smart Contracts/14_DecentralizedExchange.sol\":1656:1671  amountInWithFee */\n      dup2\n        /* \"Smart Contracts/14_DecentralizedExchange.sol\":1645:1653  reserveA */\n      sload(0x03)\n        /* \"Smart Contracts/14_DecentralizedExchange.sol\":1645:1671  reserveA + amountInWithFee */\n      tag_83\n      swap2\n      swap1\n      tag_59\n      jump\t// in\n    tag_83:\n        /* \"Smart Contracts/14_DecentralizedExchange.sol\":1625:1640  amountInWithFee */\n      dup3\n        /* \"Smart Contracts/14_DecentralizedExchange.sol\":1614:1622  reserveB */\n      sload(0x04)\n        /* \"Smart Contracts/14_DecentralizedExchange.sol\":1614:1640  reserveB * amountInWithFee */\n      tag_84\n      swap2\n      swap1\n      tag_80\n      jump\t// in\n    tag_84:\n        /* \"Smart Contracts/14_DecentralizedExchange.sol\":1613:1672  (reserveB * amountInWithFee) / (reserveA + amountInWithFee) */\n      tag_85\n      swap2\n      swap1\n      tag_82\n      jump\t// in\n    tag_85:\n        /* \"Smart Contracts/14_DecentralizedExchange.sol\":1579:1672  uint256 amountBOut =... */\n      swap1\n      pop\n        /* \"Smart Contracts/14_DecentralizedExchange.sol\":1706:1707  0 */\n      0x00\n        /* \"Smart Contracts/14_DecentralizedExchange.sol\":1693:1703  amountBOut */\n      dup2\n        /* \"Smart Contracts/14_DecentralizedExchange.sol\":1693:1707  amountBOut > 0 */\n      gt\n        /* \"Smart Contracts/14_DecentralizedExchange.sol\":1685:1731  require(amountBOut > 0, \"Insufficient output\") */\n      tag_86\n      jumpi\n      mload(0x40)\n      0x08c379a000000000000000000000000000000000000000000000000000000000\n      dup2\n      mstore\n      0x04\n      add\n      tag_87\n      swap1\n      tag_88\n      jump\t// in\n    tag_87:\n      mload(0x40)\n      dup1\n      swap2\n      sub\n      swap1\n      revert\n    tag_86:\n        /* \"Smart Contracts/14_DecentralizedExchange.sol\":1744:1750  tokenB */\n      0x02\n      0x00\n      swap1\n      sload\n      swap1\n      0x0100\n      exp\n      swap1\n      div\n      0xffffffffffffffffffffffffffffffffffffffff\n      and\n        /* \"Smart Contracts/14_DecentralizedExchange.sol\":1744:1759  tokenB.transfer */\n      0xffffffffffffffffffffffffffffffffffffffff\n      and\n      0xa9059cbb\n        /* \"Smart Contracts/14_DecentralizedExchange.sol\":1760:1770  msg.sender */\n      caller\n        /* \"Smart Contracts/14_DecentralizedExchange.sol\":1772:1782  amountBOut */\n      dup4\n        /* \"Smart Contracts/14_DecentralizedExchange.sol\":1744:1783  tokenB.transfer(msg.sender, amountBOut) */\n      mload(0x40)\n      dup4\n      0xffffffff\n      and\n      0xe0\n      shl\n      dup2\n      mstore\n      0x04\n      add\n      tag_89\n      swap3\n      swap2\n      swap1\n      tag_90\n      jump\t// in\n    tag_89:\n      0x20\n      mload(0x40)\n      dup1\n      dup4\n      sub\n      dup2\n      0x00\n      dup8\n      gas\n      call\n      iszero\n      dup1\n      iszero\n      tag_92\n      jumpi\n      returndatacopy(0x00, 0x00, returndatasize)\n      revert(0x00, returndatasize)\n    tag_92:\n      pop\n      pop\n      pop\n      pop\n      mload(0x40)\n      returndatasize\n      not(0x1f)\n      0x1f\n      dup3\n      add\n      and\n      dup3\n      add\n      dup1\n      0x40\n      mstore\n      pop\n      dup2\n      add\n      swap1\n      tag_93\n      swap2\n      swap1\n      tag_53\n      jump\t// in\n    tag_93:\n      pop\n        /* \"Smart Contracts/14_DecentralizedExchange.sol\":1808:1817  amountAIn */\n      dup3\n        /* \"Smart Contracts/14_DecentralizedExchange.sol\":1796:1804  reserveA */\n      0x03\n      0x00\n        /* \"Smart Contracts/14_DecentralizedExchange.sol\":1796:1817  reserveA += amountAIn */\n      dup3\n      dup3\n      sload\n      tag_94\n      swap2\n      swap1\n      tag_59\n      jump\t// in\n    tag_94:\n      swap3\n      pop\n      pop\n      dup2\n      swap1\n      sstore\n      pop\n        /* \"Smart Contracts/14_DecentralizedExchange.sol\":1840:1850  amountBOut */\n      dup1\n        /* \"Smart Contracts/14_DecentralizedExchange.sol\":1828:1836  reserveB */\n      0x04\n      0x00\n        /* \"Smart Contracts/14_DecentralizedExchange.sol\":1828:1850  reserveB -= amountBOut */\n      dup3\n      dup3\n      sload\n      tag_95\n      swap2\n      swap1\n      tag_78\n      jump\t// in\n    tag_95:\n      swap3\n      pop\n      pop\n      dup2\n      swap1\n      sstore\n      pop\n        /* \"Smart Contracts/14_DecentralizedExchange.sol\":1887:1897  msg.sender */\n      caller\n        /* \"Smart Contracts/14_DecentralizedExchange.sol\":1868:2017  Swap(... */\n      0xffffffffffffffffffffffffffffffffffffffff\n      and\n      0xcd3829a3813dc3cdd188fd3d01dcf3268c16be2fdd2dd21d0665418816e46062\n        /* \"Smart Contracts/14_DecentralizedExchange.sol\":1920:1926  tokenA */\n      0x01\n      0x00\n      swap1\n      sload\n      swap1\n      0x0100\n      exp\n      swap1\n      div\n      0xffffffffffffffffffffffffffffffffffffffff\n      and\n        /* \"Smart Contracts/14_DecentralizedExchange.sol\":1950:1956  tokenB */\n      0x02\n      0x00\n      swap1\n      sload\n      swap1\n      0x0100\n      exp\n      swap1\n      div\n      0xffffffffffffffffffffffffffffffffffffffff\n      and\n        /* \"Smart Contracts/14_DecentralizedExchange.sol\":1972:1981  amountAIn */\n      dup7\n        /* \"Smart Contracts/14_DecentralizedExchange.sol\":1996:2006  amountBOut */\n      dup6\n        /* \"Smart Contracts/14_DecentralizedExchange.sol\":1868:2017  Swap(... */\n      mload(0x40)\n      tag_96\n      swap5\n      swap4\n      swap3\n      swap2\n      swap1\n      tag_97\n      jump\t// in\n    tag_96:\n      mload(0x40)\n      dup1\n      swap2\n      sub\n      swap1\n      log2\n        /* \"Smart Contracts/14_DecentralizedExchange.sol\":1267:2025  {... */\n      pop\n      pop\n        /* \"https://github.com/OpenZeppelin/openzeppelin-contracts/blob/v4.9.0/contracts/security/ReentrancyGuard.sol\":2303:2323  _nonReentrantAfter() */\n      tag_98\n        /* \"https://github.com/OpenZeppelin/openzeppelin-contracts/blob/v4.9.0/contracts/security/ReentrancyGuard.sol\":2303:2321  _nonReentrantAfter */\n      tag_62\n        /* \"https://github.com/OpenZeppelin/openzeppelin-contracts/blob/v4.9.0/contracts/security/ReentrancyGuard.sol\":2303:2323  _nonReentrantAfter() */\n      jump\t// in\n    tag_98:\n        /* \"Smart Contracts/14_DecentralizedExchange.sol\":1207:2025  function swapAforB(uint256 amountAIn) external nonReentrant {... */\n      pop\n      jump\t// out\n        /* \"Smart Contracts/14_DecentralizedExchange.sol\":454:493  uint256 public constant FEE_PERCENT = 3 */\n    tag_38:\n        /* \"Smart Contracts/14_DecentralizedExchange.sol\":492:493  3 */\n      0x03\n        /* \"Smart Contracts/14_DecentralizedExchange.sol\":454:493  uint256 public constant FEE_PERCENT = 3 */\n      dup2\n      jump\t// out\n        /* \"https://github.com/OpenZeppelin/openzeppelin-contracts/blob/v4.9.0/contracts/security/ReentrancyGuard.sol\":2336:2623  function _nonReentrantBefore() private {... */\n    tag_42:\n        /* \"https://github.com/OpenZeppelin/openzeppelin-contracts/blob/v4.9.0/contracts/security/ReentrancyGuard.sol\":1759:1760  2 */\n      0x02\n        /* \"https://github.com/OpenZeppelin/openzeppelin-contracts/blob/v4.9.0/contracts/security/ReentrancyGuard.sol\":2468:2475  _status */\n      sload(0x00)\n        /* \"https://github.com/OpenZeppelin/openzeppelin-contracts/blob/v4.9.0/contracts/security/ReentrancyGuard.sol\":2468:2487  _status != _ENTERED */\n      sub\n        /* \"https://github.com/OpenZeppelin/openzeppelin-contracts/blob/v4.9.0/contracts/security/ReentrancyGuard.sol\":2460:2523  require(_status != _ENTERED, \"ReentrancyGuard: reentrant call\") */\n      tag_100\n      jumpi\n      mload(0x40)\n      0x08c379a000000000000000000000000000000000000000000000000000000000\n      dup2\n      mstore\n      0x04\n      add\n      tag_101\n      swap1\n      tag_102\n      jump\t// in\n    tag_101:\n      mload(0x40)\n      dup1\n      swap2\n      sub\n      swap1\n      revert\n    tag_100:\n        /* \"https://github.com/OpenZeppelin/openzeppelin-contracts/blob/v4.9.0/contracts/security/ReentrancyGuard.sol\":1759:1760  2 */\n      0x02\n        /* \"https://github.com/OpenZeppelin/openzeppelin-contracts/blob/v4.9.0/contracts/security/ReentrancyGuard.sol\":2598:2605  _status */\n      0x00\n        /* \"https://github.com/OpenZeppelin/openzeppelin-contracts/blob/v4.9.0/contracts/security/ReentrancyGuard.sol\":2598:2616  _status = _ENTERED */\n      dup2\n      swap1\n      sstore\n      pop\n        /* \"https://github.com/OpenZeppelin/openzeppelin-contracts/blob/v4.9.0/contracts/security/ReentrancyGuard.sol\":2336:2623  function _nonReentrantBefore() private {... */\n      jump\t// out\n        /* \"https://github.com/OpenZeppelin/openzeppelin-contracts/blob/v4.9.0/contracts/security/ReentrancyGuard.sol\":2629:2838  function _nonReentrantAfter() private {... */\n    tag_62:\n        /* \"https://github.com/OpenZeppelin/openzeppelin-contracts/blob/v4.9.0/contracts/security/ReentrancyGuard.sol\":1716:1717  1 */\n      0x01\n        /* \"https://github.com/OpenZeppelin/openzeppelin-contracts/blob/v4.9.0/contracts/security/ReentrancyGuard.sol\":2809:2816  _status */\n      0x00\n        /* \"https://github.com/OpenZeppelin/openzeppelin-contracts/blob/v4.9.0/contracts/security/ReentrancyGuard.sol\":2809:2831  _status = _NOT_ENTERED */\n      dup2\n      swap1\n      sstore\n      pop\n        /* \"https://github.com/OpenZeppelin/openzeppelin-contracts/blob/v4.9.0/contracts/security/ReentrancyGuard.sol\":2629:2838  function _nonReentrantAfter() private {... */\n      jump\t// out\n        /* \"#utility.yul\":7:133   */\n    tag_104:\n        /* \"#utility.yul\":44:51   */\n      0x00\n        /* \"#utility.yul\":84:126   */\n      0xffffffffffffffffffffffffffffffffffffffff\n        /* \"#utility.yul\":77:82   */\n      dup3\n        /* \"#utility.yul\":73:127   */\n      and\n        /* \"#utility.yul\":62:127   */\n      swap1\n      pop\n        /* \"#utility.yul\":7:133   */\n      swap2\n      swap1\n      pop\n      jump\t// out\n        /* \"#utility.yul\":139:199   */\n    tag_105:\n        /* \"#utility.yul\":167:170   */\n      0x00\n        /* \"#utility.yul\":188:193   */\n      dup2\n        /* \"#utility.yul\":181:193   */\n      swap1\n      pop\n        /* \"#utility.yul\":139:199   */\n      swap2\n      swap1\n      pop\n      jump\t// out\n        /* \"#utility.yul\":205:347   */\n    tag_106:\n        /* \"#utility.yul\":255:264   */\n      0x00\n        /* \"#utility.yul\":288:341   */\n      tag_139\n        /* \"#utility.yul\":306:340   */\n      tag_140\n        /* \"#utility.yul\":315:339   */\n      tag_141\n        /* \"#utility.yul\":333:338   */\n      dup5\n        /* \"#utility.yul\":315:339   */\n      tag_104\n      jump\t// in\n    tag_141:\n        /* \"#utility.yul\":306:340   */\n      tag_105\n      jump\t// in\n    tag_140:\n        /* \"#utility.yul\":288:341   */\n      tag_104\n      jump\t// in\n    tag_139:\n        /* \"#utility.yul\":275:341   */\n      swap1\n      pop\n        /* \"#utility.yul\":205:347   */\n      swap2\n      swap1\n      pop\n      jump\t// out\n        /* \"#utility.yul\":353:479   */\n    tag_107:\n        /* \"#utility.yul\":403:412   */\n      0x00\n        /* \"#utility.yul\":436:473   */\n      tag_143\n        /* \"#utility.yul\":467:472   */\n      dup3\n        /* \"#utility.yul\":436:473   */\n      tag_106\n      jump\t// in\n    tag_143:\n        /* \"#utility.yul\":423:473   */\n      swap1\n      pop\n        /* \"#utility.yul\":353:479   */\n      swap2\n      swap1\n      pop\n      jump\t// out\n        /* \"#utility.yul\":485:625   */\n    tag_108:\n        /* \"#utility.yul\":549:558   */\n      0x00\n        /* \"#utility.yul\":582:619   */\n      tag_145\n        /* \"#utility.yul\":613:618   */\n      dup3\n        /* \"#utility.yul\":582:619   */\n      tag_107\n      jump\t// in\n    tag_145:\n        /* \"#utility.yul\":569:619   */\n      swap1\n      pop\n        /* \"#utility.yul\":485:625   */\n      swap2\n      swap1\n      pop\n      jump\t// out\n        /* \"#utility.yul\":631:790   */\n    tag_109:\n        /* \"#utility.yul\":732:783   */\n      tag_147\n        /* \"#utility.yul\":777:782   */\n      dup2\n        /* \"#utility.yul\":732:783   */\n      tag_108\n      jump\t// in\n    tag_147:\n        /* \"#utility.yul\":727:730   */\n      dup3\n        /* \"#utility.yul\":720:784   */\n      mstore\n        /* \"#utility.yul\":631:790   */\n      pop\n      pop\n      jump\t// out\n        /* \"#utility.yul\":796:1046   */\n    tag_15:\n        /* \"#utility.yul\":903:907   */\n      0x00\n        /* \"#utility.yul\":941:943   */\n      0x20\n        /* \"#utility.yul\":930:939   */\n      dup3\n        /* \"#utility.yul\":926:944   */\n      add\n        /* \"#utility.yul\":918:944   */\n      swap1\n      pop\n        /* \"#utility.yul\":954:1039   */\n      tag_149\n        /* \"#utility.yul\":1036:1037   */\n      0x00\n        /* \"#utility.yul\":1025:1034   */\n      dup4\n        /* \"#utility.yul\":1021:1038   */\n      add\n        /* \"#utility.yul\":1012:1018   */\n      dup5\n        /* \"#utility.yul\":954:1039   */\n      tag_109\n      jump\t// in\n    tag_149:\n        /* \"#utility.yul\":796:1046   */\n      swap3\n      swap2\n      pop\n      pop\n      jump\t// out\n        /* \"#utility.yul\":1052:1129   */\n    tag_110:\n        /* \"#utility.yul\":1089:1096   */\n      0x00\n        /* \"#utility.yul\":1118:1123   */\n      dup2\n        /* \"#utility.yul\":1107:1123   */\n      swap1\n      pop\n        /* \"#utility.yul\":1052:1129   */\n      swap2\n      swap1\n      pop\n      jump\t// out\n        /* \"#utility.yul\":1135:1253   */\n    tag_111:\n        /* \"#utility.yul\":1222:1246   */\n      tag_152\n        /* \"#utility.yul\":1240:1245   */\n      dup2\n        /* \"#utility.yul\":1222:1246   */\n      tag_110\n      jump\t// in\n    tag_152:\n        /* \"#utility.yul\":1217:1220   */\n      dup3\n        /* \"#utility.yul\":1210:1247   */\n      mstore\n        /* \"#utility.yul\":1135:1253   */\n      pop\n      pop\n      jump\t// out\n        /* \"#utility.yul\":1259:1481   */\n    tag_19:\n        /* \"#utility.yul\":1352:1356   */\n      0x00\n        /* \"#utility.yul\":1390:1392   */\n      0x20\n        /* \"#utility.yul\":1379:1388   */\n      dup3\n        /* \"#utility.yul\":1375:1393   */\n      add\n        /* \"#utility.yul\":1367:1393   */\n      swap1\n      pop\n        /* \"#utility.yul\":1403:1474   */\n      tag_154\n        /* \"#utility.yul\":1471:1472   */\n      0x00\n        /* \"#utility.yul\":1460:1469   */\n      dup4\n        /* \"#utility.yul\":1456:1473   */\n      add\n        /* \"#utility.yul\":1447:1453   */\n      dup5\n        /* \"#utility.yul\":1403:1474   */\n      tag_111\n      jump\t// in\n    tag_154:\n        /* \"#utility.yul\":1259:1481   */\n      swap3\n      swap2\n      pop\n      pop\n      jump\t// out\n        /* \"#utility.yul\":1568:1685   */\n    tag_113:\n        /* \"#utility.yul\":1677:1678   */\n      0x00\n        /* \"#utility.yul\":1674:1675   */\n      0x00\n        /* \"#utility.yul\":1667:1679   */\n      revert\n        /* \"#utility.yul\":1814:1936   */\n    tag_115:\n        /* \"#utility.yul\":1887:1911   */\n      tag_159\n        /* \"#utility.yul\":1905:1910   */\n      dup2\n        /* \"#utility.yul\":1887:1911   */\n      tag_110\n      jump\t// in\n    tag_159:\n        /* \"#utility.yul\":1880:1885   */\n      dup2\n        /* \"#utility.yul\":1877:1912   */\n      eq\n        /* \"#utility.yul\":1867:1930   */\n      tag_160\n      jumpi\n        /* \"#utility.yul\":1926:1927   */\n      0x00\n        /* \"#utility.yul\":1923:1924   */\n      0x00\n        /* \"#utility.yul\":1916:1928   */\n      revert\n        /* \"#utility.yul\":1867:1930   */\n    tag_160:\n        /* \"#utility.yul\":1814:1936   */\n      pop\n      jump\t// out\n        /* \"#utility.yul\":1942:2081   */\n    tag_116:\n        /* \"#utility.yul\":1988:1993   */\n      0x00\n        /* \"#utility.yul\":2026:2032   */\n      dup2\n        /* \"#utility.yul\":2013:2033   */\n      calldataload\n        /* \"#utility.yul\":2004:2033   */\n      swap1\n      pop\n        /* \"#utility.yul\":2042:2075   */\n      tag_162\n        /* \"#utility.yul\":2069:2074   */\n      dup2\n        /* \"#utility.yul\":2042:2075   */\n      tag_115\n      jump\t// in\n    tag_162:\n        /* \"#utility.yul\":1942:2081   */\n      swap3\n      swap2\n      pop\n      pop\n      jump\t// out\n        /* \"#utility.yul\":2087:2561   */\n    tag_25:\n        /* \"#utility.yul\":2155:2161   */\n      0x00\n        /* \"#utility.yul\":2163:2169   */\n      0x00\n        /* \"#utility.yul\":2212:2214   */\n      0x40\n        /* \"#utility.yul\":2200:2209   */\n      dup4\n        /* \"#utility.yul\":2191:2198   */\n      dup6\n        /* \"#utility.yul\":2187:2210   */\n      sub\n        /* \"#utility.yul\":2183:2215   */\n      slt\n        /* \"#utility.yul\":2180:2299   */\n      iszero\n      tag_164\n      jumpi\n        /* \"#utility.yul\":2218:2297   */\n      tag_165\n      tag_113\n      jump\t// in\n    tag_165:\n        /* \"#utility.yul\":2180:2299   */\n    tag_164:\n        /* \"#utility.yul\":2338:2339   */\n      0x00\n        /* \"#utility.yul\":2363:2416   */\n      tag_166\n        /* \"#utility.yul\":2408:2415   */\n      dup6\n        /* \"#utility.yul\":2399:2405   */\n      dup3\n        /* \"#utility.yul\":2388:2397   */\n      dup7\n        /* \"#utility.yul\":2384:2406   */\n      add\n        /* \"#utility.yul\":2363:2416   */\n      tag_116\n      jump\t// in\n    tag_166:\n        /* \"#utility.yul\":2353:2416   */\n      swap3\n      pop\n        /* \"#utility.yul\":2309:2426   */\n      pop\n        /* \"#utility.yul\":2465:2467   */\n      0x20\n        /* \"#utility.yul\":2491:2544   */\n      tag_167\n        /* \"#utility.yul\":2536:2543   */\n      dup6\n        /* \"#utility.yul\":2527:2533   */\n      dup3\n        /* \"#utility.yul\":2516:2525   */\n      dup7\n        /* \"#utility.yul\":2512:2534   */\n      add\n        /* \"#utility.yul\":2491:2544   */\n      tag_116\n      jump\t// in\n    tag_167:\n        /* \"#utility.yul\":2481:2544   */\n      swap2\n      pop\n        /* \"#utility.yul\":2436:2554   */\n      pop\n        /* \"#utility.yul\":2087:2561   */\n      swap3\n      pop\n      swap3\n      swap1\n      pop\n      jump\t// out\n        /* \"#utility.yul\":2567:2896   */\n    tag_35:\n        /* \"#utility.yul\":2626:2632   */\n      0x00\n        /* \"#utility.yul\":2675:2677   */\n      0x20\n        /* \"#utility.yul\":2663:2672   */\n      dup3\n        /* \"#utility.yul\":2654:2661   */\n      dup5\n        /* \"#utility.yul\":2650:2673   */\n      sub\n        /* \"#utility.yul\":2646:2678   */\n      slt\n        /* \"#utility.yul\":2643:2762   */\n      iszero\n      tag_169\n      jumpi\n        /* \"#utility.yul\":2681:2760   */\n      tag_170\n      tag_113\n      jump\t// in\n    tag_170:\n        /* \"#utility.yul\":2643:2762   */\n    tag_169:\n        /* \"#utility.yul\":2801:2802   */\n      0x00\n        /* \"#utility.yul\":2826:2879   */\n      tag_171\n        /* \"#utility.yul\":2871:2878   */\n      dup5\n        /* \"#utility.yul\":2862:2868   */\n      dup3\n        /* \"#utility.yul\":2851:2860   */\n      dup6\n        /* \"#utility.yul\":2847:2869   */\n      add\n        /* \"#utility.yul\":2826:2879   */\n      tag_116\n      jump\t// in\n    tag_171:\n        /* \"#utility.yul\":2816:2879   */\n      swap2\n      pop\n        /* \"#utility.yul\":2772:2889   */\n      pop\n        /* \"#utility.yul\":2567:2896   */\n      swap3\n      swap2\n      pop\n      pop\n      jump\t// out\n        /* \"#utility.yul\":2902:3071   */\n    tag_117:\n        /* \"#utility.yul\":2986:2997   */\n      0x00\n        /* \"#utility.yul\":3020:3026   */\n      dup3\n        /* \"#utility.yul\":3015:3018   */\n      dup3\n        /* \"#utility.yul\":3008:3027   */\n      mstore\n        /* \"#utility.yul\":3060:3064   */\n      0x20\n        /* \"#utility.yul\":3055:3058   */\n      dup3\n        /* \"#utility.yul\":3051:3065   */\n      add\n        /* \"#utility.yul\":3036:3065   */\n      swap1\n      pop\n        /* \"#utility.yul\":2902:3071   */\n      swap3\n      swap2\n      pop\n      pop\n      jump\t// out\n        /* \"#utility.yul\":3077:3242   */\n    tag_118:\n        /* \"#utility.yul\":3217:3234   */\n      0x496e76616c696420616d6f756e74730000000000000000000000000000000000\n        /* \"#utility.yul\":3213:3214   */\n      0x00\n        /* \"#utility.yul\":3205:3211   */\n      dup3\n        /* \"#utility.yul\":3201:3215   */\n      add\n        /* \"#utility.yul\":3194:3235   */\n      mstore\n        /* \"#utility.yul\":3077:3242   */\n      pop\n      jump\t// out\n        /* \"#utility.yul\":3248:3614   */\n    tag_119:\n        /* \"#utility.yul\":3390:3393   */\n      0x00\n        /* \"#utility.yul\":3411:3478   */\n      tag_175\n        /* \"#utility.yul\":3475:3477   */\n      0x0f\n        /* \"#utility.yul\":3470:3473   */\n      dup4\n        /* \"#utility.yul\":3411:3478   */\n      tag_117\n      jump\t// in\n    tag_175:\n        /* \"#utility.yul\":3404:3478   */\n      swap2\n      pop\n        /* \"#utility.yul\":3487:3580   */\n      tag_176\n        /* \"#utility.yul\":3576:3579   */\n      dup3\n        /* \"#utility.yul\":3487:3580   */\n      tag_118\n      jump\t// in\n    tag_176:\n        /* \"#utility.yul\":3605:3607   */\n      0x20\n        /* \"#utility.yul\":3600:3603   */\n      dup3\n        /* \"#utility.yul\":3596:3608   */\n      add\n        /* \"#utility.yul\":3589:3608   */\n      swap1\n      pop\n        /* \"#utility.yul\":3248:3614   */\n      swap2\n      swap1\n      pop\n      jump\t// out\n        /* \"#utility.yul\":3620:4039   */\n    tag_47:\n        /* \"#utility.yul\":3786:3790   */\n      0x00\n        /* \"#utility.yul\":3824:3826   */\n      0x20\n        /* \"#utility.yul\":3813:3822   */\n      dup3\n        /* \"#utility.yul\":3809:3827   */\n      add\n        /* \"#utility.yul\":3801:3827   */\n      swap1\n      pop\n        /* \"#utility.yul\":3873:3882   */\n      dup2\n        /* \"#utility.yul\":3867:3871   */\n      dup2\n        /* \"#utility.yul\":3863:3883   */\n      sub\n        /* \"#utility.yul\":3859:3860   */\n      0x00\n        /* \"#utility.yul\":3848:3857   */\n      dup4\n        /* \"#utility.yul\":3844:3861   */\n      add\n        /* \"#utility.yul\":3837:3884   */\n      mstore\n        /* \"#utility.yul\":3901:4032   */\n      tag_178\n        /* \"#utility.yul\":4027:4031   */\n      dup2\n        /* \"#utility.yul\":3901:4032   */\n      tag_119\n      jump\t// in\n    tag_178:\n        /* \"#utility.yul\":3893:4032   */\n      swap1\n      pop\n        /* \"#utility.yul\":3620:4039   */\n      swap2\n      swap1\n      pop\n      jump\t// out\n        /* \"#utility.yul\":4045:4141   */\n    tag_120:\n        /* \"#utility.yul\":4082:4089   */\n      0x00\n        /* \"#utility.yul\":4111:4135   */\n      tag_180\n        /* \"#utility.yul\":4129:4134   */\n      dup3\n        /* \"#utility.yul\":4111:4135   */\n      tag_104\n      jump\t// in\n    tag_180:\n        /* \"#utility.yul\":4100:4135   */\n      swap1\n      pop\n        /* \"#utility.yul\":4045:4141   */\n      swap2\n      swap1\n      pop\n      jump\t// out\n        /* \"#utility.yul\":4147:4265   */\n    tag_121:\n        /* \"#utility.yul\":4234:4258   */\n      tag_182\n        /* \"#utility.yul\":4252:4257   */\n      dup2\n        /* \"#utility.yul\":4234:4258   */\n      tag_120\n      jump\t// in\n    tag_182:\n        /* \"#utility.yul\":4229:4232   */\n      dup3\n        /* \"#utility.yul\":4222:4259   */\n      mstore\n        /* \"#utility.yul\":4147:4265   */\n      pop\n      pop\n      jump\t// out\n        /* \"#utility.yul\":4271:4713   */\n    tag_49:\n        /* \"#utility.yul\":4420:4424   */\n      0x00\n        /* \"#utility.yul\":4458:4460   */\n      0x60\n        /* \"#utility.yul\":4447:4456   */\n      dup3\n        /* \"#utility.yul\":4443:4461   */\n      add\n        /* \"#utility.yul\":4435:4461   */\n      swap1\n      pop\n        /* \"#utility.yul\":4471:4542   */\n      tag_184\n        /* \"#utility.yul\":4539:4540   */\n      0x00\n        /* \"#utility.yul\":4528:4537   */\n      dup4\n        /* \"#utility.yul\":4524:4541   */\n      add\n        /* \"#utility.yul\":4515:4521   */\n      dup7\n        /* \"#utility.yul\":4471:4542   */\n      tag_121\n      jump\t// in\n    tag_184:\n        /* \"#utility.yul\":4552:4624   */\n      tag_185\n        /* \"#utility.yul\":4620:4622   */\n      0x20\n        /* \"#utility.yul\":4609:4618   */\n      dup4\n        /* \"#utility.yul\":4605:4623   */\n      add\n        /* \"#utility.yul\":4596:4602   */\n      dup6\n        /* \"#utility.yul\":4552:4624   */\n      tag_121\n      jump\t// in\n    tag_185:\n        /* \"#utility.yul\":4634:4706   */\n      tag_186\n        /* \"#utility.yul\":4702:4704   */\n      0x40\n        /* \"#utility.yul\":4691:4700   */\n      dup4\n        /* \"#utility.yul\":4687:4705   */\n      add\n        /* \"#utility.yul\":4678:4684   */\n      dup5\n        /* \"#utility.yul\":4634:4706   */\n      tag_111\n      jump\t// in\n    tag_186:\n        /* \"#utility.yul\":4271:4713   */\n      swap5\n      swap4\n      pop\n      pop\n      pop\n      pop\n      jump\t// out\n        /* \"#utility.yul\":4719:4809   */\n    tag_122:\n        /* \"#utility.yul\":4753:4760   */\n      0x00\n        /* \"#utility.yul\":4796:4801   */\n      dup2\n        /* \"#utility.yul\":4789:4802   */\n      iszero\n        /* \"#utility.yul\":4782:4803   */\n      iszero\n        /* \"#utility.yul\":4771:4803   */\n      swap1\n      pop\n        /* \"#utility.yul\":4719:4809   */\n      swap2\n      swap1\n      pop\n      jump\t// out\n        /* \"#utility.yul\":4815:4931   */\n    tag_123:\n        /* \"#utility.yul\":4885:4906   */\n      tag_189\n        /* \"#utility.yul\":4900:4905   */\n      dup2\n        /* \"#utility.yul\":4885:4906   */\n      tag_122\n      jump\t// in\n    tag_189:\n        /* \"#utility.yul\":4878:4883   */\n      dup2\n        /* \"#utility.yul\":4875:4907   */\n      eq\n        /* \"#utility.yul\":4865:4925   */\n      tag_190\n      jumpi\n        /* \"#utility.yul\":4921:4922   */\n      0x00\n        /* \"#utility.yul\":4918:4919   */\n      0x00\n        /* \"#utility.yul\":4911:4923   */\n      revert\n        /* \"#utility.yul\":4865:4925   */\n    tag_190:\n        /* \"#utility.yul\":4815:4931   */\n      pop\n      jump\t// out\n        /* \"#utility.yul\":4937:5074   */\n    tag_124:\n        /* \"#utility.yul\":4991:4996   */\n      0x00\n        /* \"#utility.yul\":5022:5028   */\n      dup2\n        /* \"#utility.yul\":5016:5029   */\n      mload\n        /* \"#utility.yul\":5007:5029   */\n      swap1\n      pop\n        /* \"#utility.yul\":5038:5068   */\n      tag_192\n        /* \"#utility.yul\":5062:5067   */\n      dup2\n        /* \"#utility.yul\":5038:5068   */\n      tag_123\n      jump\t// in\n    tag_192:\n        /* \"#utility.yul\":4937:5074   */\n      swap3\n      swap2\n      pop\n      pop\n      jump\t// out\n        /* \"#utility.yul\":5080:5425   */\n    tag_53:\n        /* \"#utility.yul\":5147:5153   */\n      0x00\n        /* \"#utility.yul\":5196:5198   */\n      0x20\n        /* \"#utility.yul\":5184:5193   */\n      dup3\n        /* \"#utility.yul\":5175:5182   */\n      dup5\n        /* \"#utility.yul\":5171:5194   */\n      sub\n        /* \"#utility.yul\":5167:5199   */\n      slt\n        /* \"#utility.yul\":5164:5283   */\n      iszero\n      tag_194\n      jumpi\n        /* \"#utility.yul\":5202:5281   */\n      tag_195\n      tag_113\n      jump\t// in\n    tag_195:\n        /* \"#utility.yul\":5164:5283   */\n    tag_194:\n        /* \"#utility.yul\":5322:5323   */\n      0x00\n        /* \"#utility.yul\":5347:5408   */\n      tag_196\n        /* \"#utility.yul\":5400:5407   */\n      dup5\n        /* \"#utility.yul\":5391:5397   */\n      dup3\n        /* \"#utility.yul\":5380:5389   */\n      dup6\n        /* \"#utility.yul\":5376:5398   */\n      add\n        /* \"#utility.yul\":5347:5408   */\n      tag_124\n      jump\t// in\n    tag_196:\n        /* \"#utility.yul\":5337:5408   */\n      swap2\n      pop\n        /* \"#utility.yul\":5293:5418   */\n      pop\n        /* \"#utility.yul\":5080:5425   */\n      swap3\n      swap2\n      pop\n      pop\n      jump\t// out\n        /* \"#utility.yul\":5431:5611   */\n    tag_125:\n        /* \"#utility.yul\":5479:5556   */\n      0x4e487b7100000000000000000000000000000000000000000000000000000000\n        /* \"#utility.yul\":5476:5477   */\n      0x00\n        /* \"#utility.yul\":5469:5557   */\n      mstore\n        /* \"#utility.yul\":5576:5580   */\n      0x11\n        /* \"#utility.yul\":5573:5574   */\n      0x04\n        /* \"#utility.yul\":5566:5581   */\n      mstore\n        /* \"#utility.yul\":5600:5604   */\n      0x24\n        /* \"#utility.yul\":5597:5598   */\n      0x00\n        /* \"#utility.yul\":5590:5605   */\n      revert\n        /* \"#utility.yul\":5617:5808   */\n    tag_59:\n        /* \"#utility.yul\":5657:5660   */\n      0x00\n        /* \"#utility.yul\":5676:5696   */\n      tag_199\n        /* \"#utility.yul\":5694:5695   */\n      dup3\n        /* \"#utility.yul\":5676:5696   */\n      tag_110\n      jump\t// in\n    tag_199:\n        /* \"#utility.yul\":5671:5696   */\n      swap2\n      pop\n        /* \"#utility.yul\":5710:5730   */\n      tag_200\n        /* \"#utility.yul\":5728:5729   */\n      dup4\n        /* \"#utility.yul\":5710:5730   */\n      tag_110\n      jump\t// in\n    tag_200:\n        /* \"#utility.yul\":5705:5730   */\n      swap3\n      pop\n        /* \"#utility.yul\":5753:5754   */\n      dup3\n        /* \"#utility.yul\":5750:5751   */\n      dup3\n        /* \"#utility.yul\":5746:5755   */\n      add\n        /* \"#utility.yul\":5739:5755   */\n      swap1\n      pop\n        /* \"#utility.yul\":5774:5777   */\n      dup1\n        /* \"#utility.yul\":5771:5772   */\n      dup3\n        /* \"#utility.yul\":5768:5778   */\n      gt\n        /* \"#utility.yul\":5765:5801   */\n      iszero\n      tag_201\n      jumpi\n        /* \"#utility.yul\":5781:5799   */\n      tag_202\n      tag_125\n      jump\t// in\n    tag_202:\n        /* \"#utility.yul\":5765:5801   */\n    tag_201:\n        /* \"#utility.yul\":5617:5808   */\n      swap3\n      swap2\n      pop\n      pop\n      jump\t// out\n        /* \"#utility.yul\":5814:5977   */\n    tag_126:\n        /* \"#utility.yul\":5954:5969   */\n      0x496e76616c696420696e70757400000000000000000000000000000000000000\n        /* \"#utility.yul\":5950:5951   */\n      0x00\n        /* \"#utility.yul\":5942:5948   */\n      dup3\n        /* \"#utility.yul\":5938:5952   */\n      add\n        /* \"#utility.yul\":5931:5970   */\n      mstore\n        /* \"#utility.yul\":5814:5977   */\n      pop\n      jump\t// out\n        /* \"#utility.yul\":5983:6349   */\n    tag_127:\n        /* \"#utility.yul\":6125:6128   */\n      0x00\n        /* \"#utility.yul\":6146:6213   */\n      tag_205\n        /* \"#utility.yul\":6210:6212   */\n      0x0d\n        /* \"#utility.yul\":6205:6208   */\n      dup4\n        /* \"#utility.yul\":6146:6213   */\n      tag_117\n      jump\t// in\n    tag_205:\n        /* \"#utility.yul\":6139:6213   */\n      swap2\n      pop\n        /* \"#utility.yul\":6222:6315   */\n      tag_206\n        /* \"#utility.yul\":6311:6314   */\n      dup3\n        /* \"#utility.yul\":6222:6315   */\n      tag_126\n      jump\t// in\n    tag_206:\n        /* \"#utility.yul\":6340:6342   */\n      0x20\n        /* \"#utility.yul\":6335:6338   */\n      dup3\n        /* \"#utility.yul\":6331:6343   */\n      add\n        /* \"#utility.yul\":6324:6343   */\n      swap1\n      pop\n        /* \"#utility.yul\":5983:6349   */\n      swap2\n      swap1\n      pop\n      jump\t// out\n        /* \"#utility.yul\":6355:6774   */\n    tag_68:\n        /* \"#utility.yul\":6521:6525   */\n      0x00\n        /* \"#utility.yul\":6559:6561   */\n      0x20\n        /* \"#utility.yul\":6548:6557   */\n      dup3\n        /* \"#utility.yul\":6544:6562   */\n      add\n        /* \"#utility.yul\":6536:6562   */\n      swap1\n      pop\n        /* \"#utility.yul\":6608:6617   */\n      dup2\n        /* \"#utility.yul\":6602:6606   */\n      dup2\n        /* \"#utility.yul\":6598:6618   */\n      sub\n        /* \"#utility.yul\":6594:6595   */\n      0x00\n        /* \"#utility.yul\":6583:6592   */\n      dup4\n        /* \"#utility.yul\":6579:6596   */\n      add\n        /* \"#utility.yul\":6572:6619   */\n      mstore\n        /* \"#utility.yul\":6636:6767   */\n      tag_208\n        /* \"#utility.yul\":6762:6766   */\n      dup2\n        /* \"#utility.yul\":6636:6767   */\n      tag_127\n      jump\t// in\n    tag_208:\n        /* \"#utility.yul\":6628:6767   */\n      swap1\n      pop\n        /* \"#utility.yul\":6355:6774   */\n      swap2\n      swap1\n      pop\n      jump\t// out\n        /* \"#utility.yul\":6780:6942   */\n    tag_128:\n        /* \"#utility.yul\":6920:6934   */\n      0x4e6f206c69717569646974790000000000000000000000000000000000000000\n        /* \"#utility.yul\":6916:6917   */\n      0x00\n        /* \"#utility.yul\":6908:6914   */\n      dup3\n        /* \"#utility.yul\":6904:6918   */\n      add\n        /* \"#utility.yul\":6897:6935   */\n      mstore\n        /* \"#utility.yul\":6780:6942   */\n      pop\n      jump\t// out\n        /* \"#utility.yul\":6948:7314   */\n    tag_129:\n        /* \"#utility.yul\":7090:7093   */\n      0x00\n        /* \"#utility.yul\":7111:7178   */\n      tag_211\n        /* \"#utility.yul\":7175:7177   */\n      0x0c\n        /* \"#utility.yul\":7170:7173   */\n      dup4\n        /* \"#utility.yul\":7111:7178   */\n      tag_117\n      jump\t// in\n    tag_211:\n        /* \"#utility.yul\":7104:7178   */\n      swap2\n      pop\n        /* \"#utility.yul\":7187:7280   */\n      tag_212\n        /* \"#utility.yul\":7276:7279   */\n      dup3\n        /* \"#utility.yul\":7187:7280   */\n      tag_128\n      jump\t// in\n    tag_212:\n        /* \"#utility.yul\":7305:7307   */\n      0x20\n        /* \"#utility.yul\":7300:7303   */\n      dup3\n        /* \"#utility.yul\":7296:7308   */\n      add\n        /* \"#utility.yul\":7289:7308   */\n      swap1\n      pop\n        /* \"#utility.yul\":6948:7314   */\n      swap2\n      swap1\n      pop\n      jump\t// out\n        /* \"#utility.yul\":7320:7739   */\n    tag_72:\n        /* \"#utility.yul\":7486:7490   */\n      0x00\n        /* \"#utility.yul\":7524:7526   */\n      0x20\n        /* \"#utility.yul\":7513:7522   */\n      dup3\n        /* \"#utility.yul\":7509:7527   */\n      add\n        /* \"#utility.yul\":7501:7527   */\n      swap1\n      pop\n        /* \"#utility.yul\":7573:7582   */\n      dup2\n        /* \"#utility.yul\":7567:7571   */\n      dup2\n        /* \"#utility.yul\":7563:7583   */\n      sub\n        /* \"#utility.yul\":7559:7560   */\n      0x00\n        /* \"#utility.yul\":7548:7557   */\n      dup4\n        /* \"#utility.yul\":7544:7561   */\n      add\n        /* \"#utility.yul\":7537:7584   */\n      mstore\n        /* \"#utility.yul\":7601:7732   */\n      tag_214\n        /* \"#utility.yul\":7727:7731   */\n      dup2\n        /* \"#utility.yul\":7601:7732   */\n      tag_129\n      jump\t// in\n    tag_214:\n        /* \"#utility.yul\":7593:7732   */\n      swap1\n      pop\n        /* \"#utility.yul\":7320:7739   */\n      swap2\n      swap1\n      pop\n      jump\t// out\n        /* \"#utility.yul\":7745:7939   */\n    tag_78:\n        /* \"#utility.yul\":7785:7789   */\n      0x00\n        /* \"#utility.yul\":7805:7825   */\n      tag_216\n        /* \"#utility.yul\":7823:7824   */\n      dup3\n        /* \"#utility.yul\":7805:7825   */\n      tag_110\n      jump\t// in\n    tag_216:\n        /* \"#utility.yul\":7800:7825   */\n      swap2\n      pop\n        /* \"#utility.yul\":7839:7859   */\n      tag_217\n        /* \"#utility.yul\":7857:7858   */\n      dup4\n        /* \"#utility.yul\":7839:7859   */\n      tag_110\n      jump\t// in\n    tag_217:\n        /* \"#utility.yul\":7834:7859   */\n      swap3\n      pop\n        /* \"#utility.yul\":7883:7884   */\n      dup3\n        /* \"#utility.yul\":7880:7881   */\n      dup3\n        /* \"#utility.yul\":7876:7885   */\n      sub\n        /* \"#utility.yul\":7868:7885   */\n      swap1\n      pop\n        /* \"#utility.yul\":7907:7908   */\n      dup2\n        /* \"#utility.yul\":7901:7905   */\n      dup2\n        /* \"#utility.yul\":7898:7909   */\n      gt\n        /* \"#utility.yul\":7895:7932   */\n      iszero\n      tag_218\n      jumpi\n        /* \"#utility.yul\":7912:7930   */\n      tag_219\n      tag_125\n      jump\t// in\n    tag_219:\n        /* \"#utility.yul\":7895:7932   */\n    tag_218:\n        /* \"#utility.yul\":7745:7939   */\n      swap3\n      swap2\n      pop\n      pop\n      jump\t// out\n        /* \"#utility.yul\":7945:8355   */\n    tag_80:\n        /* \"#utility.yul\":7985:7992   */\n      0x00\n        /* \"#utility.yul\":8008:8028   */\n      tag_221\n        /* \"#utility.yul\":8026:8027   */\n      dup3\n        /* \"#utility.yul\":8008:8028   */\n      tag_110\n      jump\t// in\n    tag_221:\n        /* \"#utility.yul\":8003:8028   */\n      swap2\n      pop\n        /* \"#utility.yul\":8042:8062   */\n      tag_222\n        /* \"#utility.yul\":8060:8061   */\n      dup4\n        /* \"#utility.yul\":8042:8062   */\n      tag_110\n      jump\t// in\n    tag_222:\n        /* \"#utility.yul\":8037:8062   */\n      swap3\n      pop\n        /* \"#utility.yul\":8097:8098   */\n      dup3\n        /* \"#utility.yul\":8094:8095   */\n      dup3\n        /* \"#utility.yul\":8090:8099   */\n      mul\n        /* \"#utility.yul\":8119:8149   */\n      tag_223\n        /* \"#utility.yul\":8137:8148   */\n      dup2\n        /* \"#utility.yul\":8119:8149   */\n      tag_110\n      jump\t// in\n    tag_223:\n        /* \"#utility.yul\":8108:8149   */\n      swap2\n      pop\n        /* \"#utility.yul\":8298:8299   */\n      dup3\n        /* \"#utility.yul\":8289:8296   */\n      dup3\n        /* \"#utility.yul\":8285:8300   */\n      div\n        /* \"#utility.yul\":8282:8283   */\n      dup5\n        /* \"#utility.yul\":8279:8301   */\n      eq\n        /* \"#utility.yul\":8259:8260   */\n      dup4\n        /* \"#utility.yul\":8252:8261   */\n      iszero\n        /* \"#utility.yul\":8232:8315   */\n      or\n        /* \"#utility.yul\":8209:8348   */\n      tag_224\n      jumpi\n        /* \"#utility.yul\":8328:8346   */\n      tag_225\n      tag_125\n      jump\t// in\n    tag_225:\n        /* \"#utility.yul\":8209:8348   */\n    tag_224:\n        /* \"#utility.yul\":7993:8355   */\n      pop\n        /* \"#utility.yul\":7945:8355   */\n      swap3\n      swap2\n      pop\n      pop\n      jump\t// out\n        /* \"#utility.yul\":8361:8541   */\n    tag_130:\n        /* \"#utility.yul\":8409:8486   */\n      0x4e487b7100000000000000000000000000000000000000000000000000000000\n        /* \"#utility.yul\":8406:8407   */\n      0x00\n        /* \"#utility.yul\":8399:8487   */\n      mstore\n        /* \"#utility.yul\":8506:8510   */\n      0x12\n        /* \"#utility.yul\":8503:8504   */\n      0x04\n        /* \"#utility.yul\":8496:8511   */\n      mstore\n        /* \"#utility.yul\":8530:8534   */\n      0x24\n        /* \"#utility.yul\":8527:8528   */\n      0x00\n        /* \"#utility.yul\":8520:8535   */\n      revert\n        /* \"#utility.yul\":8547:8732   */\n    tag_82:\n        /* \"#utility.yul\":8587:8588   */\n      0x00\n        /* \"#utility.yul\":8604:8624   */\n      tag_228\n        /* \"#utility.yul\":8622:8623   */\n      dup3\n        /* \"#utility.yul\":8604:8624   */\n      tag_110\n      jump\t// in\n    tag_228:\n        /* \"#utility.yul\":8599:8624   */\n      swap2\n      pop\n        /* \"#utility.yul\":8638:8658   */\n      tag_229\n        /* \"#utility.yul\":8656:8657   */\n      dup4\n        /* \"#utility.yul\":8638:8658   */\n      tag_110\n      jump\t// in\n    tag_229:\n        /* \"#utility.yul\":8633:8658   */\n      swap3\n      pop\n        /* \"#utility.yul\":8677:8678   */\n      dup3\n        /* \"#utility.yul\":8667:8702   */\n      tag_230\n      jumpi\n        /* \"#utility.yul\":8682:8700   */\n      tag_231\n      tag_130\n      jump\t// in\n    tag_231:\n        /* \"#utility.yul\":8667:8702   */\n    tag_230:\n        /* \"#utility.yul\":8724:8725   */\n      dup3\n        /* \"#utility.yul\":8721:8722   */\n      dup3\n        /* \"#utility.yul\":8717:8726   */\n      div\n        /* \"#utility.yul\":8712:8726   */\n      swap1\n      pop\n        /* \"#utility.yul\":8547:8732   */\n      swap3\n      swap2\n      pop\n      pop\n      jump\t// out\n        /* \"#utility.yul\":8738:8907   */\n    tag_131:\n        /* \"#utility.yul\":8878:8899   */\n      0x496e73756666696369656e74206f757470757400000000000000000000000000\n        /* \"#utility.yul\":8874:8875   */\n      0x00\n        /* \"#utility.yul\":8866:8872   */\n      dup3\n        /* \"#utility.yul\":8862:8876   */\n      add\n        /* \"#utility.yul\":8855:8900   */\n      mstore\n        /* \"#utility.yul\":8738:8907   */\n      pop\n      jump\t// out\n        /* \"#utility.yul\":8913:9279   */\n    tag_132:\n        /* \"#utility.yul\":9055:9058   */\n      0x00\n        /* \"#utility.yul\":9076:9143   */\n      tag_234\n        /* \"#utility.yul\":9140:9142   */\n      0x13\n        /* \"#utility.yul\":9135:9138   */\n      dup4\n        /* \"#utility.yul\":9076:9143   */\n      tag_117\n      jump\t// in\n    tag_234:\n        /* \"#utility.yul\":9069:9143   */\n      swap2\n      pop\n        /* \"#utility.yul\":9152:9245   */\n      tag_235\n        /* \"#utility.yul\":9241:9244   */\n      dup3\n        /* \"#utility.yul\":9152:9245   */\n      tag_131\n      jump\t// in\n    tag_235:\n        /* \"#utility.yul\":9270:9272   */\n      0x20\n        /* \"#utility.yul\":9265:9268   */\n      dup3\n        /* \"#utility.yul\":9261:9273   */\n      add\n        /* \"#utility.yul\":9254:9273   */\n      swap1\n      pop\n        /* \"#utility.yul\":8913:9279   */\n      swap2\n      swap1\n      pop\n      jump\t// out\n        /* \"#utility.yul\":9285:9704   */\n    tag_88:\n        /* \"#utility.yul\":9451:9455   */\n      0x00\n        /* \"#utility.yul\":9489:9491   */\n      0x20\n        /* \"#utility.yul\":9478:9487   */\n      dup3\n        /* \"#utility.yul\":9474:9492   */\n      add\n        /* \"#utility.yul\":9466:9492   */\n      swap1\n      pop\n        /* \"#utility.yul\":9538:9547   */\n      dup2\n        /* \"#utility.yul\":9532:9536   */\n      dup2\n        /* \"#utility.yul\":9528:9548   */\n      sub\n        /* \"#utility.yul\":9524:9525   */\n      0x00\n        /* \"#utility.yul\":9513:9522   */\n      dup4\n        /* \"#utility.yul\":9509:9526   */\n      add\n        /* \"#utility.yul\":9502:9549   */\n      mstore\n        /* \"#utility.yul\":9566:9697   */\n      tag_237\n        /* \"#utility.yul\":9692:9696   */\n      dup2\n        /* \"#utility.yul\":9566:9697   */\n      tag_132\n      jump\t// in\n    tag_237:\n        /* \"#utility.yul\":9558:9697   */\n      swap1\n      pop\n        /* \"#utility.yul\":9285:9704   */\n      swap2\n      swap1\n      pop\n      jump\t// out\n        /* \"#utility.yul\":9710:10042   */\n    tag_90:\n        /* \"#utility.yul\":9831:9835   */\n      0x00\n        /* \"#utility.yul\":9869:9871   */\n      0x40\n        /* \"#utility.yul\":9858:9867   */\n      dup3\n        /* \"#utility.yul\":9854:9872   */\n      add\n        /* \"#utility.yul\":9846:9872   */\n      swap1\n      pop\n        /* \"#utility.yul\":9882:9953   */\n      tag_239\n        /* \"#utility.yul\":9950:9951   */\n      0x00\n        /* \"#utility.yul\":9939:9948   */\n      dup4\n        /* \"#utility.yul\":9935:9952   */\n      add\n        /* \"#utility.yul\":9926:9932   */\n      dup6\n        /* \"#utility.yul\":9882:9953   */\n      tag_121\n      jump\t// in\n    tag_239:\n        /* \"#utility.yul\":9963:10035   */\n      tag_240\n        /* \"#utility.yul\":10031:10033   */\n      0x20\n        /* \"#utility.yul\":10020:10029   */\n      dup4\n        /* \"#utility.yul\":10016:10034   */\n      add\n        /* \"#utility.yul\":10007:10013   */\n      dup5\n        /* \"#utility.yul\":9963:10035   */\n      tag_111\n      jump\t// in\n    tag_240:\n        /* \"#utility.yul\":9710:10042   */\n      swap4\n      swap3\n      pop\n      pop\n      pop\n      jump\t// out\n        /* \"#utility.yul\":10048:10601   */\n    tag_97:\n        /* \"#utility.yul\":10225:10229   */\n      0x00\n        /* \"#utility.yul\":10263:10266   */\n      0x80\n        /* \"#utility.yul\":10252:10261   */\n      dup3\n        /* \"#utility.yul\":10248:10267   */\n      add\n        /* \"#utility.yul\":10240:10267   */\n      swap1\n      pop\n        /* \"#utility.yul\":10277:10348   */\n      tag_242\n        /* \"#utility.yul\":10345:10346   */\n      0x00\n        /* \"#utility.yul\":10334:10343   */\n      dup4\n        /* \"#utility.yul\":10330:10347   */\n      add\n        /* \"#utility.yul\":10321:10327   */\n      dup8\n        /* \"#utility.yul\":10277:10348   */\n      tag_121\n      jump\t// in\n    tag_242:\n        /* \"#utility.yul\":10358:10430   */\n      tag_243\n        /* \"#utility.yul\":10426:10428   */\n      0x20\n        /* \"#utility.yul\":10415:10424   */\n      dup4\n        /* \"#utility.yul\":10411:10429   */\n      add\n        /* \"#utility.yul\":10402:10408   */\n      dup7\n        /* \"#utility.yul\":10358:10430   */\n      tag_121\n      jump\t// in\n    tag_243:\n        /* \"#utility.yul\":10440:10512   */\n      tag_244\n        /* \"#utility.yul\":10508:10510   */\n      0x40\n        /* \"#utility.yul\":10497:10506   */\n      dup4\n        /* \"#utility.yul\":10493:10511   */\n      add\n        /* \"#utility.yul\":10484:10490   */\n      dup6\n        /* \"#utility.yul\":10440:10512   */\n      tag_111\n      jump\t// in\n    tag_244:\n        /* \"#utility.yul\":10522:10594   */\n      tag_245\n        /* \"#utility.yul\":10590:10592   */\n      0x60\n        /* \"#utility.yul\":10579:10588   */\n      dup4\n        /* \"#utility.yul\":10575:10593   */\n      add\n        /* \"#utility.yul\":10566:10572   */\n      dup5\n        /* \"#utility.yul\":10522:10594   */\n      tag_111\n      jump\t// in\n    tag_245:\n        /* \"#utility.yul\":10048:10601   */\n      swap6\n      swap5\n      pop\n      pop\n      pop\n      pop\n      pop\n      jump\t// out\n        /* \"#utility.yul\":10607:10788   */\n    tag_133:\n        /* \"#utility.yul\":10747:10780   */\n      0x5265656e7472616e637947756172643a207265656e7472616e742063616c6c00\n        /* \"#utility.yul\":10743:10744   */\n      0x00\n        /* \"#utility.yul\":10735:10741   */\n      dup3\n        /* \"#utility.yul\":10731:10745   */\n      add\n        /* \"#utility.yul\":10724:10781   */\n      mstore\n        /* \"#utility.yul\":10607:10788   */\n      pop\n      jump\t// out\n        /* \"#utility.yul\":10794:11160   */\n    tag_134:\n        /* \"#utility.yul\":10936:10939   */\n      0x00\n        /* \"#utility.yul\":10957:11024   */\n      tag_248\n        /* \"#utility.yul\":11021:11023   */\n      0x1f\n        /* \"#utility.yul\":11016:11019   */\n      dup4\n        /* \"#utility.yul\":10957:11024   */\n      tag_117\n      jump\t// in\n    tag_248:\n        /* \"#utility.yul\":10950:11024   */\n      swap2\n      pop\n        /* \"#utility.yul\":11033:11126   */\n      tag_249\n        /* \"#utility.yul\":11122:11125   */\n      dup3\n        /* \"#utility.yul\":11033:11126   */\n      tag_133\n      jump\t// in\n    tag_249:\n        /* \"#utility.yul\":11151:11153   */\n      0x20\n        /* \"#utility.yul\":11146:11149   */\n      dup3\n        /* \"#utility.yul\":11142:11154   */\n      add\n        /* \"#utility.yul\":11135:11154   */\n      swap1\n      pop\n        /* \"#utility.yul\":10794:11160   */\n      swap2\n      swap1\n      pop\n      jump\t// out\n        /* \"#utility.yul\":11166:11585   */\n    tag_102:\n        /* \"#utility.yul\":11332:11336   */\n      0x00\n        /* \"#utility.yul\":11370:11372   */\n      0x20\n        /* \"#utility.yul\":11359:11368   */\n      dup3\n        /* \"#utility.yul\":11355:11373   */\n      add\n        /* \"#utility.yul\":11347:11373   */\n      swap1\n      pop\n        /* \"#utility.yul\":11419:11428   */\n      dup2\n        /* \"#utility.yul\":11413:11417   */\n      dup2\n        /* \"#utility.yul\":11409:11429   */\n      sub\n        /* \"#utility.yul\":11405:11406   */\n      0x00\n        /* \"#utility.yul\":11394:11403   */\n      dup4\n        /* \"#utility.yul\":11390:11407   */\n      add\n        /* \"#utility.yul\":11383:11430   */\n      mstore\n        /* \"#utility.yul\":11447:11578   */\n      tag_251\n        /* \"#utility.yul\":11573:11577   */\n      dup2\n        /* \"#utility.yul\":11447:11578   */\n      tag_134\n      jump\t// in\n    tag_251:\n        /* \"#utility.yul\":11439:11578   */\n      swap1\n      pop\n        /* \"#utility.yul\":11166:11585   */\n      swap2\n      swap1\n      pop\n      jump\t// out\n\n    auxdata: 0xa2646970667358221220763d85bf883a37be398642c05dd1c2d2170e3e67e0017f3fe3c7ce29130d24e764736f6c634300081e0033\n}\n",
				"bytecode": {
					"linkReferences": {},
					"object": "608060405234801561000f575f5ffd5b50604051610e9c380380610e9c8339818101604052810190610031919061011d565b60015f819055508160015f6101000a81548173ffffffffffffffffffffffffffffffffffffffff021916908373ffffffffffffffffffffffffffffffffffffffff1602179055508060025f6101000a81548173ffffffffffffffffffffffffffffffffffffffff021916908373ffffffffffffffffffffffffffffffffffffffff160217905550505061015b565b5f5ffd5b5f73ffffffffffffffffffffffffffffffffffffffff82169050919050565b5f6100ec826100c3565b9050919050565b6100fc816100e2565b8114610106575f5ffd5b50565b5f81519050610117816100f3565b92915050565b5f5f60408385031215610133576101326100bf565b5b5f61014085828601610109565b925050602061015185828601610109565b9150509250929050565b610d34806101685f395ff3fe608060405234801561000f575f5ffd5b5060043610610086575f3560e01c8063d73792a911610059578063d73792a914610100578063dc5fa6c51461011e578063e4f1f70a1461013c578063eaf98d231461015857610086565b80630fc63d101461008a57806319e36f3b146100a85780635f64b55b146100c65780639cd441da146100e4575b5f5ffd5b610092610176565b60405161009f91906107b5565b60405180910390f35b6100b061019b565b6040516100bd91906107e6565b60405180910390f35b6100ce6101a1565b6040516100db91906107b5565b60405180910390f35b6100fe60048036038101906100f9919061082d565b6101c6565b005b610108610395565b60405161011591906107e6565b60405180910390f35b61012661039b565b60405161013391906107e6565b60405180910390f35b6101566004803603810190610151919061086b565b6103a1565b005b6101606106e0565b60405161016d91906107e6565b60405180910390f35b60015f9054906101000a900473ffffffffffffffffffffffffffffffffffffffff1681565b60045481565b60025f9054906101000a900473ffffffffffffffffffffffffffffffffffffffff1681565b6101ce6106e5565b5f821180156101dc57505f81115b61021b576040517f08c379a0000000000000000000000000000000000000000000000000000000008152600401610212906108f0565b60405180910390fd5b60015f9054906101000a900473ffffffffffffffffffffffffffffffffffffffff1673ffffffffffffffffffffffffffffffffffffffff166323b872dd3330856040518463ffffffff1660e01b81526004016102799392919061092e565b6020604051808303815f875af1158015610295573d5f5f3e3d5ffd5b505050506040513d601f19601f820116820180604052508101906102b99190610998565b5060025f9054906101000a900473ffffffffffffffffffffffffffffffffffffffff1673ffffffffffffffffffffffffffffffffffffffff166323b872dd3330846040518463ffffffff1660e01b81526004016103189392919061092e565b6020604051808303815f875af1158015610334573d5f5f3e3d5ffd5b505050506040513d601f19601f820116820180604052508101906103589190610998565b508160035f82825461036a91906109f0565b925050819055508060045f82825461038291906109f0565b92505081905550610391610732565b5050565b6103e881565b60035481565b6103a96106e5565b5f81116103eb576040517f08c379a00000000000000000000000000000000000000000000000000000000081526004016103e290610a6d565b60405180910390fd5b5f6003541180156103fd57505f600454115b61043c576040517f08c379a000000000000000000000000000000000000000000000000000000000815260040161043390610ad5565b60405180910390fd5b60015f9054906101000a900473ffffffffffffffffffffffffffffffffffffffff1673ffffffffffffffffffffffffffffffffffffffff166323b872dd3330846040518463ffffffff1660e01b815260040161049a9392919061092e565b6020604051808303815f875af11580156104b6573d5f5f3e3d5ffd5b505050506040513d601f19601f820116820180604052508101906104da9190610998565b505f6103e860036103e86104ee9190610af3565b836104f99190610b26565b6105039190610b94565b90505f8160035461051491906109f0565b826004546105229190610b26565b61052c9190610b94565b90505f8111610570576040517f08c379a000000000000000000000000000000000000000000000000000000000815260040161056790610c0e565b60405180910390fd5b60025f9054906101000a900473ffffffffffffffffffffffffffffffffffffffff1673ffffffffffffffffffffffffffffffffffffffff1663a9059cbb33836040518363ffffffff1660e01b81526004016105cc929190610c2c565b6020604051808303815f875af11580156105e8573d5f5f3e3d5ffd5b505050506040513d601f19601f8201168201806040525081019061060c9190610998565b508260035f82825461061e91906109f0565b925050819055508060045f8282546106369190610af3565b925050819055503373ffffffffffffffffffffffffffffffffffffffff167fcd3829a3813dc3cdd188fd3d01dcf3268c16be2fdd2dd21d0665418816e4606260015f9054906101000a900473ffffffffffffffffffffffffffffffffffffffff1660025f9054906101000a900473ffffffffffffffffffffffffffffffffffffffff1686856040516106cb9493929190610c53565b60405180910390a250506106dd610732565b50565b600381565b60025f5403610729576040517f08c379a000000000000000000000000000000000000000000000000000000000815260040161072090610ce0565b60405180910390fd5b60025f81905550565b60015f81905550565b5f73ffffffffffffffffffffffffffffffffffffffff82169050919050565b5f819050919050565b5f61077d6107786107738461073b565b61075a565b61073b565b9050919050565b5f61078e82610763565b9050919050565b5f61079f82610784565b9050919050565b6107af81610795565b82525050565b5f6020820190506107c85f8301846107a6565b92915050565b5f819050919050565b6107e0816107ce565b82525050565b5f6020820190506107f95f8301846107d7565b92915050565b5f5ffd5b61080c816107ce565b8114610816575f5ffd5b50565b5f8135905061082781610803565b92915050565b5f5f60408385031215610843576108426107ff565b5b5f61085085828601610819565b925050602061086185828601610819565b9150509250929050565b5f602082840312156108805761087f6107ff565b5b5f61088d84828501610819565b91505092915050565b5f82825260208201905092915050565b7f496e76616c696420616d6f756e747300000000000000000000000000000000005f82015250565b5f6108da600f83610896565b91506108e5826108a6565b602082019050919050565b5f6020820190508181035f830152610907816108ce565b9050919050565b5f6109188261073b565b9050919050565b6109288161090e565b82525050565b5f6060820190506109415f83018661091f565b61094e602083018561091f565b61095b60408301846107d7565b949350505050565b5f8115159050919050565b61097781610963565b8114610981575f5ffd5b50565b5f815190506109928161096e565b92915050565b5f602082840312156109ad576109ac6107ff565b5b5f6109ba84828501610984565b91505092915050565b7f4e487b71000000000000000000000000000000000000000000000000000000005f52601160045260245ffd5b5f6109fa826107ce565b9150610a05836107ce565b9250828201905080821115610a1d57610a1c6109c3565b5b92915050565b7f496e76616c696420696e707574000000000000000000000000000000000000005f82015250565b5f610a57600d83610896565b9150610a6282610a23565b602082019050919050565b5f6020820190508181035f830152610a8481610a4b565b9050919050565b7f4e6f206c697175696469747900000000000000000000000000000000000000005f82015250565b5f610abf600c83610896565b9150610aca82610a8b565b602082019050919050565b5f6020820190508181035f830152610aec81610ab3565b9050919050565b5f610afd826107ce565b9150610b08836107ce565b9250828203905081811115610b2057610b1f6109c3565b5b92915050565b5f610b30826107ce565b9150610b3b836107ce565b9250828202610b49816107ce565b91508282048414831517610b6057610b5f6109c3565b5b5092915050565b7f4e487b71000000000000000000000000000000000000000000000000000000005f52601260045260245ffd5b5f610b9e826107ce565b9150610ba9836107ce565b925082610bb957610bb8610b67565b5b828204905092915050565b7f496e73756666696369656e74206f7574707574000000000000000000000000005f82015250565b5f610bf8601383610896565b9150610c0382610bc4565b602082019050919050565b5f6020820190508181035f830152610c2581610bec565b9050919050565b5f604082019050610c3f5f83018561091f565b610c4c60208301846107d7565b9392505050565b5f608082019050610c665f83018761091f565b610c73602083018661091f565b610c8060408301856107d7565b610c8d60608301846107d7565b95945050505050565b7f5265656e7472616e637947756172643a207265656e7472616e742063616c6c005f82015250565b5f610cca601f83610896565b9150610cd582610c96565b602082019050919050565b5f6020820190508181035f830152610cf781610cbe565b905091905056fea2646970667358221220763d85bf883a37be398642c05dd1c2d2170e3e67e0017f3fe3c7ce29130d24e764736f6c634300081e0033",
					"opcodes": "PUSH1 0x80 PUSH1 0x40 MSTORE CALLVALUE DUP1 ISZERO PUSH2 0xF JUMPI PUSH0 PUSH0 REVERT JUMPDEST POP PUSH1 0x40 MLOAD PUSH2 0xE9C CODESIZE SUB DUP1 PUSH2 0xE9C DUP4 CODECOPY DUP2 DUP2 ADD PUSH1 0x40 MSTORE DUP2 ADD SWAP1 PUSH2 0x31 SWAP2 SWAP1 PUSH2 0x11D JUMP JUMPDEST PUSH1 0x1 PUSH0 DUP2 SWAP1 SSTORE POP DUP2 PUSH1 0x1 PUSH0 PUSH2 0x100 EXP DUP2 SLOAD DUP2 PUSH20 0xFFFFFFFFFFFFFFFFFFFFFFFFFFFFFFFFFFFFFFFF MUL NOT AND SWAP1 DUP4 PUSH20 0xFFFFFFFFFFFFFFFFFFFFFFFFFFFFFFFFFFFFFFFF AND MUL OR SWAP1 SSTORE POP DUP1 PUSH1 0x2 PUSH0 PUSH2 0x100 EXP DUP2 SLOAD DUP2 PUSH20 0xFFFFFFFFFFFFFFFFFFFFFFFFFFFFFFFFFFFFFFFF MUL NOT AND SWAP1 DUP4 PUSH20 0xFFFFFFFFFFFFFFFFFFFFFFFFFFFFFFFFFFFFFFFF AND MUL OR SWAP1 SSTORE POP POP POP PUSH2 0x15B JUMP JUMPDEST PUSH0 PUSH0 REVERT JUMPDEST PUSH0 PUSH20 0xFFFFFFFFFFFFFFFFFFFFFFFFFFFFFFFFFFFFFFFF DUP3 AND SWAP1 POP SWAP2 SWAP1 POP JUMP JUMPDEST PUSH0 PUSH2 0xEC DUP3 PUSH2 0xC3 JUMP JUMPDEST SWAP1 POP SWAP2 SWAP1 POP JUMP JUMPDEST PUSH2 0xFC DUP2 PUSH2 0xE2 JUMP JUMPDEST DUP2 EQ PUSH2 0x106 JUMPI PUSH0 PUSH0 REVERT JUMPDEST POP JUMP JUMPDEST PUSH0 DUP2 MLOAD SWAP1 POP PUSH2 0x117 DUP2 PUSH2 0xF3 JUMP JUMPDEST SWAP3 SWAP2 POP POP JUMP JUMPDEST PUSH0 PUSH0 PUSH1 0x40 DUP4 DUP6 SUB SLT ISZERO PUSH2 0x133 JUMPI PUSH2 0x132 PUSH2 0xBF JUMP JUMPDEST JUMPDEST PUSH0 PUSH2 0x140 DUP6 DUP3 DUP7 ADD PUSH2 0x109 JUMP JUMPDEST SWAP3 POP POP PUSH1 0x20 PUSH2 0x151 DUP6 DUP3 DUP7 ADD PUSH2 0x109 JUMP JUMPDEST SWAP2 POP POP SWAP3 POP SWAP3 SWAP1 POP JUMP JUMPDEST PUSH2 0xD34 DUP1 PUSH2 0x168 PUSH0 CODECOPY PUSH0 RETURN INVALID PUSH1 0x80 PUSH1 0x40 MSTORE CALLVALUE DUP1 ISZERO PUSH2 0xF JUMPI PUSH0 PUSH0 REVERT JUMPDEST POP PUSH1 0x4 CALLDATASIZE LT PUSH2 0x86 JUMPI PUSH0 CALLDATALOAD PUSH1 0xE0 SHR DUP1 PUSH4 0xD73792A9 GT PUSH2 0x59 JUMPI DUP1 PUSH4 0xD73792A9 EQ PUSH2 0x100 JUMPI DUP1 PUSH4 0xDC5FA6C5 EQ PUSH2 0x11E JUMPI DUP1 PUSH4 0xE4F1F70A EQ PUSH2 0x13C JUMPI DUP1 PUSH4 0xEAF98D23 EQ PUSH2 0x158 JUMPI PUSH2 0x86 JUMP JUMPDEST DUP1 PUSH4 0xFC63D10 EQ PUSH2 0x8A JUMPI DUP1 PUSH4 0x19E36F3B EQ PUSH2 0xA8 JUMPI DUP1 PUSH4 0x5F64B55B EQ PUSH2 0xC6 JUMPI DUP1 PUSH4 0x9CD441DA EQ PUSH2 0xE4 JUMPI JUMPDEST PUSH0 PUSH0 REVERT JUMPDEST PUSH2 0x92 PUSH2 0x176 JUMP JUMPDEST PUSH1 0x40 MLOAD PUSH2 0x9F SWAP2 SWAP1 PUSH2 0x7B5 JUMP JUMPDEST PUSH1 0x40 MLOAD DUP1 SWAP2 SUB SWAP1 RETURN JUMPDEST PUSH2 0xB0 PUSH2 0x19B JUMP JUMPDEST PUSH1 0x40 MLOAD PUSH2 0xBD SWAP2 SWAP1 PUSH2 0x7E6 JUMP JUMPDEST PUSH1 0x40 MLOAD DUP1 SWAP2 SUB SWAP1 RETURN JUMPDEST PUSH2 0xCE PUSH2 0x1A1 JUMP JUMPDEST PUSH1 0x40 MLOAD PUSH2 0xDB SWAP2 SWAP1 PUSH2 0x7B5 JUMP JUMPDEST PUSH1 0x40 MLOAD DUP1 SWAP2 SUB SWAP1 RETURN JUMPDEST PUSH2 0xFE PUSH1 0x4 DUP1 CALLDATASIZE SUB DUP2 ADD SWAP1 PUSH2 0xF9 SWAP2 SWAP1 PUSH2 0x82D JUMP JUMPDEST PUSH2 0x1C6 JUMP JUMPDEST STOP JUMPDEST PUSH2 0x108 PUSH2 0x395 JUMP JUMPDEST PUSH1 0x40 MLOAD PUSH2 0x115 SWAP2 SWAP1 PUSH2 0x7E6 JUMP JUMPDEST PUSH1 0x40 MLOAD DUP1 SWAP2 SUB SWAP1 RETURN JUMPDEST PUSH2 0x126 PUSH2 0x39B JUMP JUMPDEST PUSH1 0x40 MLOAD PUSH2 0x133 SWAP2 SWAP1 PUSH2 0x7E6 JUMP JUMPDEST PUSH1 0x40 MLOAD DUP1 SWAP2 SUB SWAP1 RETURN JUMPDEST PUSH2 0x156 PUSH1 0x4 DUP1 CALLDATASIZE SUB DUP2 ADD SWAP1 PUSH2 0x151 SWAP2 SWAP1 PUSH2 0x86B JUMP JUMPDEST PUSH2 0x3A1 JUMP JUMPDEST STOP JUMPDEST PUSH2 0x160 PUSH2 0x6E0 JUMP JUMPDEST PUSH1 0x40 MLOAD PUSH2 0x16D SWAP2 SWAP1 PUSH2 0x7E6 JUMP JUMPDEST PUSH1 0x40 MLOAD DUP1 SWAP2 SUB SWAP1 RETURN JUMPDEST PUSH1 0x1 PUSH0 SWAP1 SLOAD SWAP1 PUSH2 0x100 EXP SWAP1 DIV PUSH20 0xFFFFFFFFFFFFFFFFFFFFFFFFFFFFFFFFFFFFFFFF AND DUP2 JUMP JUMPDEST PUSH1 0x4 SLOAD DUP2 JUMP JUMPDEST PUSH1 0x2 PUSH0 SWAP1 SLOAD SWAP1 PUSH2 0x100 EXP SWAP1 DIV PUSH20 0xFFFFFFFFFFFFFFFFFFFFFFFFFFFFFFFFFFFFFFFF AND DUP2 JUMP JUMPDEST PUSH2 0x1CE PUSH2 0x6E5 JUMP JUMPDEST PUSH0 DUP3 GT DUP1 ISZERO PUSH2 0x1DC JUMPI POP PUSH0 DUP2 GT JUMPDEST PUSH2 0x21B JUMPI PUSH1 0x40 MLOAD PUSH32 0x8C379A000000000000000000000000000000000000000000000000000000000 DUP2 MSTORE PUSH1 0x4 ADD PUSH2 0x212 SWAP1 PUSH2 0x8F0 JUMP JUMPDEST PUSH1 0x40 MLOAD DUP1 SWAP2 SUB SWAP1 REVERT JUMPDEST PUSH1 0x1 PUSH0 SWAP1 SLOAD SWAP1 PUSH2 0x100 EXP SWAP1 DIV PUSH20 0xFFFFFFFFFFFFFFFFFFFFFFFFFFFFFFFFFFFFFFFF AND PUSH20 0xFFFFFFFFFFFFFFFFFFFFFFFFFFFFFFFFFFFFFFFF AND PUSH4 0x23B872DD CALLER ADDRESS DUP6 PUSH1 0x40 MLOAD DUP5 PUSH4 0xFFFFFFFF AND PUSH1 0xE0 SHL DUP2 MSTORE PUSH1 0x4 ADD PUSH2 0x279 SWAP4 SWAP3 SWAP2 SWAP1 PUSH2 0x92E JUMP JUMPDEST PUSH1 0x20 PUSH1 0x40 MLOAD DUP1 DUP4 SUB DUP2 PUSH0 DUP8 GAS CALL ISZERO DUP1 ISZERO PUSH2 0x295 JUMPI RETURNDATASIZE PUSH0 PUSH0 RETURNDATACOPY RETURNDATASIZE PUSH0 REVERT JUMPDEST POP POP POP POP PUSH1 0x40 MLOAD RETURNDATASIZE PUSH1 0x1F NOT PUSH1 0x1F DUP3 ADD AND DUP3 ADD DUP1 PUSH1 0x40 MSTORE POP DUP2 ADD SWAP1 PUSH2 0x2B9 SWAP2 SWAP1 PUSH2 0x998 JUMP JUMPDEST POP PUSH1 0x2 PUSH0 SWAP1 SLOAD SWAP1 PUSH2 0x100 EXP SWAP1 DIV PUSH20 0xFFFFFFFFFFFFFFFFFFFFFFFFFFFFFFFFFFFFFFFF AND PUSH20 0xFFFFFFFFFFFFFFFFFFFFFFFFFFFFFFFFFFFFFFFF AND PUSH4 0x23B872DD CALLER ADDRESS DUP5 PUSH1 0x40 MLOAD DUP5 PUSH4 0xFFFFFFFF AND PUSH1 0xE0 SHL DUP2 MSTORE PUSH1 0x4 ADD PUSH2 0x318 SWAP4 SWAP3 SWAP2 SWAP1 PUSH2 0x92E JUMP JUMPDEST PUSH1 0x20 PUSH1 0x40 MLOAD DUP1 DUP4 SUB DUP2 PUSH0 DUP8 GAS CALL ISZERO DUP1 ISZERO PUSH2 0x334 JUMPI RETURNDATASIZE PUSH0 PUSH0 RETURNDATACOPY RETURNDATASIZE PUSH0 REVERT JUMPDEST POP POP POP POP PUSH1 0x40 MLOAD RETURNDATASIZE PUSH1 0x1F NOT PUSH1 0x1F DUP3 ADD AND DUP3 ADD DUP1 PUSH1 0x40 MSTORE POP DUP2 ADD SWAP1 PUSH2 0x358 SWAP2 SWAP1 PUSH2 0x998 JUMP JUMPDEST POP DUP2 PUSH1 0x3 PUSH0 DUP3 DUP3 SLOAD PUSH2 0x36A SWAP2 SWAP1 PUSH2 0x9F0 JUMP JUMPDEST SWAP3 POP POP DUP2 SWAP1 SSTORE POP DUP1 PUSH1 0x4 PUSH0 DUP3 DUP3 SLOAD PUSH2 0x382 SWAP2 SWAP1 PUSH2 0x9F0 JUMP JUMPDEST SWAP3 POP POP DUP2 SWAP1 SSTORE POP PUSH2 0x391 PUSH2 0x732 JUMP JUMPDEST POP POP JUMP JUMPDEST PUSH2 0x3E8 DUP2 JUMP JUMPDEST PUSH1 0x3 SLOAD DUP2 JUMP JUMPDEST PUSH2 0x3A9 PUSH2 0x6E5 JUMP JUMPDEST PUSH0 DUP2 GT PUSH2 0x3EB JUMPI PUSH1 0x40 MLOAD PUSH32 0x8C379A000000000000000000000000000000000000000000000000000000000 DUP2 MSTORE PUSH1 0x4 ADD PUSH2 0x3E2 SWAP1 PUSH2 0xA6D JUMP JUMPDEST PUSH1 0x40 MLOAD DUP1 SWAP2 SUB SWAP1 REVERT JUMPDEST PUSH0 PUSH1 0x3 SLOAD GT DUP1 ISZERO PUSH2 0x3FD JUMPI POP PUSH0 PUSH1 0x4 SLOAD GT JUMPDEST PUSH2 0x43C JUMPI PUSH1 0x40 MLOAD PUSH32 0x8C379A000000000000000000000000000000000000000000000000000000000 DUP2 MSTORE PUSH1 0x4 ADD PUSH2 0x433 SWAP1 PUSH2 0xAD5 JUMP JUMPDEST PUSH1 0x40 MLOAD DUP1 SWAP2 SUB SWAP1 REVERT JUMPDEST PUSH1 0x1 PUSH0 SWAP1 SLOAD SWAP1 PUSH2 0x100 EXP SWAP1 DIV PUSH20 0xFFFFFFFFFFFFFFFFFFFFFFFFFFFFFFFFFFFFFFFF AND PUSH20 0xFFFFFFFFFFFFFFFFFFFFFFFFFFFFFFFFFFFFFFFF AND PUSH4 0x23B872DD CALLER ADDRESS DUP5 PUSH1 0x40 MLOAD DUP5 PUSH4 0xFFFFFFFF AND PUSH1 0xE0 SHL DUP2 MSTORE PUSH1 0x4 ADD PUSH2 0x49A SWAP4 SWAP3 SWAP2 SWAP1 PUSH2 0x92E JUMP JUMPDEST PUSH1 0x20 PUSH1 0x40 MLOAD DUP1 DUP4 SUB DUP2 PUSH0 DUP8 GAS CALL ISZERO DUP1 ISZERO PUSH2 0x4B6 JUMPI RETURNDATASIZE PUSH0 PUSH0 RETURNDATACOPY RETURNDATASIZE PUSH0 REVERT JUMPDEST POP POP POP POP PUSH1 0x40 MLOAD RETURNDATASIZE PUSH1 0x1F NOT PUSH1 0x1F DUP3 ADD AND DUP3 ADD DUP1 PUSH1 0x40 MSTORE POP DUP2 ADD SWAP1 PUSH2 0x4DA SWAP2 SWAP1 PUSH2 0x998 JUMP JUMPDEST POP PUSH0 PUSH2 0x3E8 PUSH1 0x3 PUSH2 0x3E8 PUSH2 0x4EE SWAP2 SWAP1 PUSH2 0xAF3 JUMP JUMPDEST DUP4 PUSH2 0x4F9 SWAP2 SWAP1 PUSH2 0xB26 JUMP JUMPDEST PUSH2 0x503 SWAP2 SWAP1 PUSH2 0xB94 JUMP JUMPDEST SWAP1 POP PUSH0 DUP2 PUSH1 0x3 SLOAD PUSH2 0x514 SWAP2 SWAP1 PUSH2 0x9F0 JUMP JUMPDEST DUP3 PUSH1 0x4 SLOAD PUSH2 0x522 SWAP2 SWAP1 PUSH2 0xB26 JUMP JUMPDEST PUSH2 0x52C SWAP2 SWAP1 PUSH2 0xB94 JUMP JUMPDEST SWAP1 POP PUSH0 DUP2 GT PUSH2 0x570 JUMPI PUSH1 0x40 MLOAD PUSH32 0x8C379A000000000000000000000000000000000000000000000000000000000 DUP2 MSTORE PUSH1 0x4 ADD PUSH2 0x567 SWAP1 PUSH2 0xC0E JUMP JUMPDEST PUSH1 0x40 MLOAD DUP1 SWAP2 SUB SWAP1 REVERT JUMPDEST PUSH1 0x2 PUSH0 SWAP1 SLOAD SWAP1 PUSH2 0x100 EXP SWAP1 DIV PUSH20 0xFFFFFFFFFFFFFFFFFFFFFFFFFFFFFFFFFFFFFFFF AND PUSH20 0xFFFFFFFFFFFFFFFFFFFFFFFFFFFFFFFFFFFFFFFF AND PUSH4 0xA9059CBB CALLER DUP4 PUSH1 0x40 MLOAD DUP4 PUSH4 0xFFFFFFFF AND PUSH1 0xE0 SHL DUP2 MSTORE PUSH1 0x4 ADD PUSH2 0x5CC SWAP3 SWAP2 SWAP1 PUSH2 0xC2C JUMP JUMPDEST PUSH1 0x20 PUSH1 0x40 MLOAD DUP1 DUP4 SUB DUP2 PUSH0 DUP8 GAS CALL ISZERO DUP1 ISZERO PUSH2 0x5E8 JUMPI RETURNDATASIZE PUSH0 PUSH0 RETURNDATACOPY RETURNDATASIZE PUSH0 REVERT JUMPDEST POP POP POP POP PUSH1 0x40 MLOAD RETURNDATASIZE PUSH1 0x1F NOT PUSH1 0x1F DUP3 ADD AND DUP3 ADD DUP1 PUSH1 0x40 MSTORE POP DUP2 ADD SWAP1 PUSH2 0x60C SWAP2 SWAP1 PUSH2 0x998 JUMP JUMPDEST POP DUP3 PUSH1 0x3 PUSH0 DUP3 DUP3 SLOAD PUSH2 0x61E SWAP2 SWAP1 PUSH2 0x9F0 JUMP JUMPDEST SWAP3 POP POP DUP2 SWAP1 SSTORE POP DUP1 PUSH1 0x4 PUSH0 DUP3 DUP3 SLOAD PUSH2 0x636 SWAP2 SWAP1 PUSH2 0xAF3 JUMP JUMPDEST SWAP3 POP POP DUP2 SWAP1 SSTORE POP CALLER PUSH20 0xFFFFFFFFFFFFFFFFFFFFFFFFFFFFFFFFFFFFFFFF AND PUSH32 0xCD3829A3813DC3CDD188FD3D01DCF3268C16BE2FDD2DD21D0665418816E46062 PUSH1 0x1 PUSH0 SWAP1 SLOAD SWAP1 PUSH2 0x100 EXP SWAP1 DIV PUSH20 0xFFFFFFFFFFFFFFFFFFFFFFFFFFFFFFFFFFFFFFFF AND PUSH1 0x2 PUSH0 SWAP1 SLOAD SWAP1 PUSH2 0x100 EXP SWAP1 DIV PUSH20 0xFFFFFFFFFFFFFFFFFFFFFFFFFFFFFFFFFFFFFFFF AND DUP7 DUP6 PUSH1 0x40 MLOAD PUSH2 0x6CB SWAP5 SWAP4 SWAP3 SWAP2 SWAP1 PUSH2 0xC53 JUMP JUMPDEST PUSH1 0x40 MLOAD DUP1 SWAP2 SUB SWAP1 LOG2 POP POP PUSH2 0x6DD PUSH2 0x732 JUMP JUMPDEST POP JUMP JUMPDEST PUSH1 0x3 DUP2 JUMP JUMPDEST PUSH1 0x2 PUSH0 SLOAD SUB PUSH2 0x729 JUMPI PUSH1 0x40 MLOAD PUSH32 0x8C379A000000000000000000000000000000000000000000000000000000000 DUP2 MSTORE PUSH1 0x4 ADD PUSH2 0x720 SWAP1 PUSH2 0xCE0 JUMP JUMPDEST PUSH1 0x40 MLOAD DUP1 SWAP2 SUB SWAP1 REVERT JUMPDEST PUSH1 0x2 PUSH0 DUP2 SWAP1 SSTORE POP JUMP JUMPDEST PUSH1 0x1 PUSH0 DUP2 SWAP1 SSTORE POP JUMP JUMPDEST PUSH0 PUSH20 0xFFFFFFFFFFFFFFFFFFFFFFFFFFFFFFFFFFFFFFFF DUP3 AND SWAP1 POP SWAP2 SWAP1 POP JUMP JUMPDEST PUSH0 DUP2 SWAP1 POP SWAP2 SWAP1 POP JUMP JUMPDEST PUSH0 PUSH2 0x77D PUSH2 0x778 PUSH2 0x773 DUP5 PUSH2 0x73B JUMP JUMPDEST PUSH2 0x75A JUMP JUMPDEST PUSH2 0x73B JUMP JUMPDEST SWAP1 POP SWAP2 SWAP1 POP JUMP JUMPDEST PUSH0 PUSH2 0x78E DUP3 PUSH2 0x763 JUMP JUMPDEST SWAP1 POP SWAP2 SWAP1 POP JUMP JUMPDEST PUSH0 PUSH2 0x79F DUP3 PUSH2 0x784 JUMP JUMPDEST SWAP1 POP SWAP2 SWAP1 POP JUMP JUMPDEST PUSH2 0x7AF DUP2 PUSH2 0x795 JUMP JUMPDEST DUP3 MSTORE POP POP JUMP JUMPDEST PUSH0 PUSH1 0x20 DUP3 ADD SWAP1 POP PUSH2 0x7C8 PUSH0 DUP4 ADD DUP5 PUSH2 0x7A6 JUMP JUMPDEST SWAP3 SWAP2 POP POP JUMP JUMPDEST PUSH0 DUP2 SWAP1 POP SWAP2 SWAP1 POP JUMP JUMPDEST PUSH2 0x7E0 DUP2 PUSH2 0x7CE JUMP JUMPDEST DUP3 MSTORE POP POP JUMP JUMPDEST PUSH0 PUSH1 0x20 DUP3 ADD SWAP1 POP PUSH2 0x7F9 PUSH0 DUP4 ADD DUP5 PUSH2 0x7D7 JUMP JUMPDEST SWAP3 SWAP2 POP POP JUMP JUMPDEST PUSH0 PUSH0 REVERT JUMPDEST PUSH2 0x80C DUP2 PUSH2 0x7CE JUMP JUMPDEST DUP2 EQ PUSH2 0x816 JUMPI PUSH0 PUSH0 REVERT JUMPDEST POP JUMP JUMPDEST PUSH0 DUP2 CALLDATALOAD SWAP1 POP PUSH2 0x827 DUP2 PUSH2 0x803 JUMP JUMPDEST SWAP3 SWAP2 POP POP JUMP JUMPDEST PUSH0 PUSH0 PUSH1 0x40 DUP4 DUP6 SUB SLT ISZERO PUSH2 0x843 JUMPI PUSH2 0x842 PUSH2 0x7FF JUMP JUMPDEST JUMPDEST PUSH0 PUSH2 0x850 DUP6 DUP3 DUP7 ADD PUSH2 0x819 JUMP JUMPDEST SWAP3 POP POP PUSH1 0x20 PUSH2 0x861 DUP6 DUP3 DUP7 ADD PUSH2 0x819 JUMP JUMPDEST SWAP2 POP POP SWAP3 POP SWAP3 SWAP1 POP JUMP JUMPDEST PUSH0 PUSH1 0x20 DUP3 DUP5 SUB SLT ISZERO PUSH2 0x880 JUMPI PUSH2 0x87F PUSH2 0x7FF JUMP JUMPDEST JUMPDEST PUSH0 PUSH2 0x88D DUP5 DUP3 DUP6 ADD PUSH2 0x819 JUMP JUMPDEST SWAP2 POP POP SWAP3 SWAP2 POP POP JUMP JUMPDEST PUSH0 DUP3 DUP3 MSTORE PUSH1 0x20 DUP3 ADD SWAP1 POP SWAP3 SWAP2 POP POP JUMP JUMPDEST PUSH32 0x496E76616C696420616D6F756E74730000000000000000000000000000000000 PUSH0 DUP3 ADD MSTORE POP JUMP JUMPDEST PUSH0 PUSH2 0x8DA PUSH1 0xF DUP4 PUSH2 0x896 JUMP JUMPDEST SWAP2 POP PUSH2 0x8E5 DUP3 PUSH2 0x8A6 JUMP JUMPDEST PUSH1 0x20 DUP3 ADD SWAP1 POP SWAP2 SWAP1 POP JUMP JUMPDEST PUSH0 PUSH1 0x20 DUP3 ADD SWAP1 POP DUP2 DUP2 SUB PUSH0 DUP4 ADD MSTORE PUSH2 0x907 DUP2 PUSH2 0x8CE JUMP JUMPDEST SWAP1 POP SWAP2 SWAP1 POP JUMP JUMPDEST PUSH0 PUSH2 0x918 DUP3 PUSH2 0x73B JUMP JUMPDEST SWAP1 POP SWAP2 SWAP1 POP JUMP JUMPDEST PUSH2 0x928 DUP2 PUSH2 0x90E JUMP JUMPDEST DUP3 MSTORE POP POP JUMP JUMPDEST PUSH0 PUSH1 0x60 DUP3 ADD SWAP1 POP PUSH2 0x941 PUSH0 DUP4 ADD DUP7 PUSH2 0x91F JUMP JUMPDEST PUSH2 0x94E PUSH1 0x20 DUP4 ADD DUP6 PUSH2 0x91F JUMP JUMPDEST PUSH2 0x95B PUSH1 0x40 DUP4 ADD DUP5 PUSH2 0x7D7 JUMP JUMPDEST SWAP5 SWAP4 POP POP POP POP JUMP JUMPDEST PUSH0 DUP2 ISZERO ISZERO SWAP1 POP SWAP2 SWAP1 POP JUMP JUMPDEST PUSH2 0x977 DUP2 PUSH2 0x963 JUMP JUMPDEST DUP2 EQ PUSH2 0x981 JUMPI PUSH0 PUSH0 REVERT JUMPDEST POP JUMP JUMPDEST PUSH0 DUP2 MLOAD SWAP1 POP PUSH2 0x992 DUP2 PUSH2 0x96E JUMP JUMPDEST SWAP3 SWAP2 POP POP JUMP JUMPDEST PUSH0 PUSH1 0x20 DUP3 DUP5 SUB SLT ISZERO PUSH2 0x9AD JUMPI PUSH2 0x9AC PUSH2 0x7FF JUMP JUMPDEST JUMPDEST PUSH0 PUSH2 0x9BA DUP5 DUP3 DUP6 ADD PUSH2 0x984 JUMP JUMPDEST SWAP2 POP POP SWAP3 SWAP2 POP POP JUMP JUMPDEST PUSH32 0x4E487B7100000000000000000000000000000000000000000000000000000000 PUSH0 MSTORE PUSH1 0x11 PUSH1 0x4 MSTORE PUSH1 0x24 PUSH0 REVERT JUMPDEST PUSH0 PUSH2 0x9FA DUP3 PUSH2 0x7CE JUMP JUMPDEST SWAP2 POP PUSH2 0xA05 DUP4 PUSH2 0x7CE JUMP JUMPDEST SWAP3 POP DUP3 DUP3 ADD SWAP1 POP DUP1 DUP3 GT ISZERO PUSH2 0xA1D JUMPI PUSH2 0xA1C PUSH2 0x9C3 JUMP JUMPDEST JUMPDEST SWAP3 SWAP2 POP POP JUMP JUMPDEST PUSH32 0x496E76616C696420696E70757400000000000000000000000000000000000000 PUSH0 DUP3 ADD MSTORE POP JUMP JUMPDEST PUSH0 PUSH2 0xA57 PUSH1 0xD DUP4 PUSH2 0x896 JUMP JUMPDEST SWAP2 POP PUSH2 0xA62 DUP3 PUSH2 0xA23 JUMP JUMPDEST PUSH1 0x20 DUP3 ADD SWAP1 POP SWAP2 SWAP1 POP JUMP JUMPDEST PUSH0 PUSH1 0x20 DUP3 ADD SWAP1 POP DUP2 DUP2 SUB PUSH0 DUP4 ADD MSTORE PUSH2 0xA84 DUP2 PUSH2 0xA4B JUMP JUMPDEST SWAP1 POP SWAP2 SWAP1 POP JUMP JUMPDEST PUSH32 0x4E6F206C69717569646974790000000000000000000000000000000000000000 PUSH0 DUP3 ADD MSTORE POP JUMP JUMPDEST PUSH0 PUSH2 0xABF PUSH1 0xC DUP4 PUSH2 0x896 JUMP JUMPDEST SWAP2 POP PUSH2 0xACA DUP3 PUSH2 0xA8B JUMP JUMPDEST PUSH1 0x20 DUP3 ADD SWAP1 POP SWAP2 SWAP1 POP JUMP JUMPDEST PUSH0 PUSH1 0x20 DUP3 ADD SWAP1 POP DUP2 DUP2 SUB PUSH0 DUP4 ADD MSTORE PUSH2 0xAEC DUP2 PUSH2 0xAB3 JUMP JUMPDEST SWAP1 POP SWAP2 SWAP1 POP JUMP JUMPDEST PUSH0 PUSH2 0xAFD DUP3 PUSH2 0x7CE JUMP JUMPDEST SWAP2 POP PUSH2 0xB08 DUP4 PUSH2 0x7CE JUMP JUMPDEST SWAP3 POP DUP3 DUP3 SUB SWAP1 POP DUP2 DUP2 GT ISZERO PUSH2 0xB20 JUMPI PUSH2 0xB1F PUSH2 0x9C3 JUMP JUMPDEST JUMPDEST SWAP3 SWAP2 POP POP JUMP JUMPDEST PUSH0 PUSH2 0xB30 DUP3 PUSH2 0x7CE JUMP JUMPDEST SWAP2 POP PUSH2 0xB3B DUP4 PUSH2 0x7CE JUMP JUMPDEST SWAP3 POP DUP3 DUP3 MUL PUSH2 0xB49 DUP2 PUSH2 0x7CE JUMP JUMPDEST SWAP2 POP DUP3 DUP3 DIV DUP5 EQ DUP4 ISZERO OR PUSH2 0xB60 JUMPI PUSH2 0xB5F PUSH2 0x9C3 JUMP JUMPDEST JUMPDEST POP SWAP3 SWAP2 POP POP JUMP JUMPDEST PUSH32 0x4E487B7100000000000000000000000000000000000000000000000000000000 PUSH0 MSTORE PUSH1 0x12 PUSH1 0x4 MSTORE PUSH1 0x24 PUSH0 REVERT JUMPDEST PUSH0 PUSH2 0xB9E DUP3 PUSH2 0x7CE JUMP JUMPDEST SWAP2 POP PUSH2 0xBA9 DUP4 PUSH2 0x7CE JUMP JUMPDEST SWAP3 POP DUP3 PUSH2 0xBB9 JUMPI PUSH2 0xBB8 PUSH2 0xB67 JUMP JUMPDEST JUMPDEST DUP3 DUP3 DIV SWAP1 POP SWAP3 SWAP2 POP POP JUMP JUMPDEST PUSH32 0x496E73756666696369656E74206F757470757400000000000000000000000000 PUSH0 DUP3 ADD MSTORE POP JUMP JUMPDEST PUSH0 PUSH2 0xBF8 PUSH1 0x13 DUP4 PUSH2 0x896 JUMP JUMPDEST SWAP2 POP PUSH2 0xC03 DUP3 PUSH2 0xBC4 JUMP JUMPDEST PUSH1 0x20 DUP3 ADD SWAP1 POP SWAP2 SWAP1 POP JUMP JUMPDEST PUSH0 PUSH1 0x20 DUP3 ADD SWAP1 POP DUP2 DUP2 SUB PUSH0 DUP4 ADD MSTORE PUSH2 0xC25 DUP2 PUSH2 0xBEC JUMP JUMPDEST SWAP1 POP SWAP2 SWAP1 POP JUMP JUMPDEST PUSH0 PUSH1 0x40 DUP3 ADD SWAP1 POP PUSH2 0xC3F PUSH0 DUP4 ADD DUP6 PUSH2 0x91F JUMP JUMPDEST PUSH2 0xC4C PUSH1 0x20 DUP4 ADD DUP5 PUSH2 0x7D7 JUMP JUMPDEST SWAP4 SWAP3 POP POP POP JUMP JUMPDEST PUSH0 PUSH1 0x80 DUP3 ADD SWAP1 POP PUSH2 0xC66 PUSH0 DUP4 ADD DUP8 PUSH2 0x91F JUMP JUMPDEST PUSH2 0xC73 PUSH1 0x20 DUP4 ADD DUP7 PUSH2 0x91F JUMP JUMPDEST PUSH2 0xC80 PUSH1 0x40 DUP4 ADD DUP6 PUSH2 0x7D7 JUMP JUMPDEST PUSH2 0xC8D PUSH1 0x60 DUP4 ADD DUP5 PUSH2 0x7D7 JUMP JUMPDEST SWAP6 SWAP5 POP POP POP POP POP JUMP JUMPDEST PUSH32 0x5265656E7472616E637947756172643A207265656E7472616E742063616C6C00 PUSH0 DUP3 ADD MSTORE POP JUMP JUMPDEST PUSH0 PUSH2 0xCCA PUSH1 0x1F DUP4 PUSH2 0x896 JUMP JUMPDEST SWAP2 POP PUSH2 0xCD5 DUP3 PUSH2 0xC96 JUMP JUMPDEST PUSH1 0x20 DUP3 ADD SWAP1 POP SWAP2 SWAP1 POP JUMP JUMPDEST PUSH0 PUSH1 0x20 DUP3 ADD SWAP1 POP DUP2 DUP2 SUB PUSH0 DUP4 ADD MSTORE PUSH2 0xCF7 DUP2 PUSH2 0xCBE JUMP JUMPDEST SWAP1 POP SWAP2 SWAP1 POP JUMP INVALID LOG2 PUSH5 0x6970667358 0x22 SLT KECCAK256 PUSH23 0x3D85BF883A37BE398642C05DD1C2D2170E3E67E0017F3F CALLF 0xC7CE 0x29 SGT 0xD 0x24 SWAPN 0x64 PUSH20 0x6F6C634300081E00330000000000000000000000 "
				},
				"gasEstimates": {
					"creation": {
						"codeDepositCost": "676000",
						"executionCost": "infinite",
						"totalCost": "infinite"
					},
					"external": {
						"FEE_DENOMINATOR()": "325",
						"FEE_PERCENT()": "391",
						"addLiquidity(uint256,uint256)": "infinite",
						"reserveA()": "2447",
						"reserveB()": "2448",
						"swapAforB(uint256)": "infinite",
						"tokenA()": "infinite",
						"tokenB()": "infinite"
					}
				},
				"methodIdentifiers": {
					"FEE_DENOMINATOR()": "d73792a9",
					"FEE_PERCENT()": "eaf98d23",
					"addLiquidity(uint256,uint256)": "9cd441da",
					"reserveA()": "dc5fa6c5",
					"reserveB()": "19e36f3b",
					"swapAforB(uint256)": "e4f1f70a",
					"tokenA()": "0fc63d10",
					"tokenB()": "5f64b55b"
				}
			},
			"storageLayout": {
				"storage": [
					{
						"astId": 218,
						"contract": "Smart Contracts/14_DecentralizedExchange.sol:MiniDEX",
						"label": "_status",
						"offset": 0,
						"slot": "0",
						"type": "t_uint256"
					},
					{
						"astId": 8,
						"contract": "Smart Contracts/14_DecentralizedExchange.sol:MiniDEX",
						"label": "tokenA",
						"offset": 0,
						"slot": "1",
						"type": "t_contract(IERC20)350"
					},
					{
						"astId": 11,
						"contract": "Smart Contracts/14_DecentralizedExchange.sol:MiniDEX",
						"label": "tokenB",
						"offset": 0,
						"slot": "2",
						"type": "t_contract(IERC20)350"
					},
					{
						"astId": 13,
						"contract": "Smart Contracts/14_DecentralizedExchange.sol:MiniDEX",
						"label": "reserveA",
						"offset": 0,
						"slot": "3",
						"type": "t_uint256"
					},
					{
						"astId": 15,
						"contract": "Smart Contracts/14_DecentralizedExchange.sol:MiniDEX",
						"label": "reserveB",
						"offset": 0,
						"slot": "4",
						"type": "t_uint256"
					}
				],
				"types": {
					"t_contract(IERC20)350": {
						"encoding": "inplace",
						"label": "contract IERC20",
						"numberOfBytes": "20"
					},
					"t_uint256": {
						"encoding": "inplace",
						"label": "uint256",
						"numberOfBytes": "32"
					}
				}
			},
			"userdoc": {
				"kind": "user",
				"methods": {},
				"version": 1
			}
		}
	}
}