{
	"Smart Contracts/15_SubscriptionPaymentSystem.sol": {
		"SubscriptionPayment": {
			"abi": [
				{
					"inputs": [
						{
							"internalType": "address",
							"name": "_paymentToken",
							"type": "address"
						}
					],
					"stateMutability": "nonpayable",
					"type": "constructor"
				},
				{
					"inputs": [
						{
							"internalType": "address",
							"name": "owner",
							"type": "address"
						}
					],
					"name": "OwnableInvalidOwner",
					"type": "error"
				},
				{
					"inputs": [
						{
							"internalType": "address",
							"name": "account",
							"type": "address"
						}
					],
					"name": "OwnableUnauthorizedAccount",
					"type": "error"
				},
				{
					"anonymous": false,
					"inputs": [
						{
							"indexed": true,
							"internalType": "address",
							"name": "previousOwner",
							"type": "address"
						},
						{
							"indexed": true,
							"internalType": "address",
							"name": "newOwner",
							"type": "address"
						}
					],
					"name": "OwnershipTransferred",
					"type": "event"
				},
				{
					"anonymous": false,
					"inputs": [
						{
							"indexed": true,
							"internalType": "address",
							"name": "user",
							"type": "address"
						},
						{
							"indexed": false,
							"internalType": "uint256",
							"name": "amount",
							"type": "uint256"
						}
					],
					"name": "PaymentProcessed",
					"type": "event"
				},
				{
					"anonymous": false,
					"inputs": [
						{
							"indexed": true,
							"internalType": "uint256",
							"name": "planId",
							"type": "uint256"
						},
						{
							"indexed": false,
							"internalType": "uint256",
							"name": "price",
							"type": "uint256"
						},
						{
							"indexed": false,
							"internalType": "uint256",
							"name": "duration",
							"type": "uint256"
						}
					],
					"name": "PlanCreated",
					"type": "event"
				},
				{
					"anonymous": false,
					"inputs": [
						{
							"indexed": true,
							"internalType": "address",
							"name": "user",
							"type": "address"
						},
						{
							"indexed": true,
							"internalType": "uint256",
							"name": "planId",
							"type": "uint256"
						}
					],
					"name": "Subscribed",
					"type": "event"
				},
				{
					"anonymous": false,
					"inputs": [
						{
							"indexed": true,
							"internalType": "address",
							"name": "user",
							"type": "address"
						}
					],
					"name": "SubscriptionCancelled",
					"type": "event"
				},
				{
					"inputs": [],
					"name": "cancelSubscription",
					"outputs": [],
					"stateMutability": "nonpayable",
					"type": "function"
				},
				{
					"inputs": [
						{
							"internalType": "uint256",
							"name": "_price",
							"type": "uint256"
						},
						{
							"internalType": "uint256",
							"name": "_duration",
							"type": "uint256"
						}
					],
					"name": "createPlan",
					"outputs": [],
					"stateMutability": "nonpayable",
					"type": "function"
				},
				{
					"inputs": [
						{
							"internalType": "uint256",
							"name": "_planId",
							"type": "uint256"
						}
					],
					"name": "deactivatePlan",
					"outputs": [],
					"stateMutability": "nonpayable",
					"type": "function"
				},
				{
					"inputs": [
						{
							"internalType": "address",
							"name": "_user",
							"type": "address"
						}
					],
					"name": "getSubscription",
					"outputs": [
						{
							"internalType": "uint256",
							"name": "planId",
							"type": "uint256"
						},
						{
							"internalType": "uint256",
							"name": "startTime",
							"type": "uint256"
						},
						{
							"internalType": "uint256",
							"name": "nextPayment",
							"type": "uint256"
						},
						{
							"internalType": "bool",
							"name": "active",
							"type": "bool"
						}
					],
					"stateMutability": "view",
					"type": "function"
				},
				{
					"inputs": [
						{
							"internalType": "address",
							"name": "_user",
							"type": "address"
						}
					],
					"name": "isPaymentDue",
					"outputs": [
						{
							"internalType": "bool",
							"name": "",
							"type": "bool"
						}
					],
					"stateMutability": "view",
					"type": "function"
				},
				{
					"inputs": [],
					"name": "owner",
					"outputs": [
						{
							"internalType": "address",
							"name": "",
							"type": "address"
						}
					],
					"stateMutability": "view",
					"type": "function"
				},
				{
					"inputs": [],
					"name": "paymentToken",
					"outputs": [
						{
							"internalType": "contract IERC20",
							"name": "",
							"type": "address"
						}
					],
					"stateMutability": "view",
					"type": "function"
				},
				{
					"inputs": [],
					"name": "planCount",
					"outputs": [
						{
							"internalType": "uint256",
							"name": "",
							"type": "uint256"
						}
					],
					"stateMutability": "view",
					"type": "function"
				},
				{
					"inputs": [
						{
							"internalType": "uint256",
							"name": "",
							"type": "uint256"
						}
					],
					"name": "plans",
					"outputs": [
						{
							"internalType": "uint256",
							"name": "price",
							"type": "uint256"
						},
						{
							"internalType": "uint256",
							"name": "duration",
							"type": "uint256"
						},
						{
							"internalType": "bool",
							"name": "active",
							"type": "bool"
						}
					],
					"stateMutability": "view",
					"type": "function"
				},
				{
					"inputs": [
						{
							"internalType": "address",
							"name": "_user",
							"type": "address"
						}
					],
					"name": "processPayment",
					"outputs": [],
					"stateMutability": "nonpayable",
					"type": "function"
				},
				{
					"inputs": [],
					"name": "renounceOwnership",
					"outputs": [],
					"stateMutability": "nonpayable",
					"type": "function"
				},
				{
					"inputs": [
						{
							"internalType": "uint256",
							"name": "_planId",
							"type": "uint256"
						}
					],
					"name": "subscribe",
					"outputs": [],
					"stateMutability": "nonpayable",
					"type": "function"
				},
				{
					"inputs": [
						{
							"internalType": "address",
							"name": "",
							"type": "address"
						}
					],
					"name": "subscriptions",
					"outputs": [
						{
							"internalType": "uint256",
							"name": "planId",
							"type": "uint256"
						},
						{
							"internalType": "uint256",
							"name": "startTime",
							"type": "uint256"
						},
						{
							"internalType": "uint256",
							"name": "nextPayment",
							"type": "uint256"
						},
						{
							"internalType": "bool",
							"name": "active",
							"type": "bool"
						}
					],
					"stateMutability": "view",
					"type": "function"
				},
				{
					"inputs": [
						{
							"internalType": "address",
							"name": "newOwner",
							"type": "address"
						}
					],
					"name": "transferOwnership",
					"outputs": [],
					"stateMutability": "nonpayable",
					"type": "function"
				}
			],
			"devdoc": {
				"errors": {
					"OwnableInvalidOwner(address)": [
						{
							"details": "The owner is not a valid owner account. (eg. `address(0)`)"
						}
					],
					"OwnableUnauthorizedAccount(address)": [
						{
							"details": "The caller account is not authorized to perform an operation."
						}
					]
				},
				"kind": "dev",
				"methods": {
					"owner()": {
						"details": "Returns the address of the current owner."
					},
					"renounceOwnership()": {
						"details": "Leaves the contract without owner. It will not be possible to call `onlyOwner` functions. Can only be called by the current owner. NOTE: Renouncing ownership will leave the contract without an owner, thereby disabling any functionality that is only available to the owner."
					},
					"transferOwnership(address)": {
						"details": "Transfers ownership of the contract to a new account (`newOwner`). Can only be called by the current owner."
					}
				},
				"version": 1
			},
			"evm": {
				"assembly": "    /* \"Smart Contracts/15_SubscriptionPaymentSystem.sol\":239:3955  contract SubscriptionPayment is ReentrancyGuard, Ownable {... */\n  mstore(0x40, 0x80)\n    /* \"Smart Contracts/15_SubscriptionPaymentSystem.sol\":1007:1189  constructor(address _paymentToken) Ownable(msg.sender) {... */\n  callvalue\n  dup1\n  iszero\n  tag_1\n  jumpi\n  revert(0x00, 0x00)\ntag_1:\n  pop\n  mload(0x40)\n  sub(codesize, bytecodeSize)\n  dup1\n  bytecodeSize\n  dup4\n  codecopy\n  dup2\n  dup2\n  add\n  0x40\n  mstore\n  dup2\n  add\n  swap1\n  tag_2\n  swap2\n  swap1\n  tag_3\n  jump\t// in\ntag_2:\n    /* \"Smart Contracts/15_SubscriptionPaymentSystem.sol\":1050:1060  msg.sender */\n  caller\n    /* \"@openzeppelin/contracts/security/ReentrancyGuard.sol\":1716:1717  1 */\n  0x01\n    /* \"@openzeppelin/contracts/security/ReentrancyGuard.sol\":1821:1828  _status */\n  0x00\n    /* \"@openzeppelin/contracts/security/ReentrancyGuard.sol\":1821:1843  _status = _NOT_ENTERED */\n  dup2\n  swap1\n  sstore\n  pop\n    /* \"@openzeppelin/contracts/access/Ownable.sol\":1297:1298  0 */\n  0x00\n    /* \"@openzeppelin/contracts/access/Ownable.sol\":1273:1299  initialOwner == address(0) */\n  0xffffffffffffffffffffffffffffffffffffffff\n  and\n    /* \"@openzeppelin/contracts/access/Ownable.sol\":1273:1285  initialOwner */\n  dup2\n    /* \"@openzeppelin/contracts/access/Ownable.sol\":1273:1299  initialOwner == address(0) */\n  0xffffffffffffffffffffffffffffffffffffffff\n  and\n  sub\n    /* \"@openzeppelin/contracts/access/Ownable.sol\":1269:1364  if (initialOwner == address(0)) {... */\n  tag_9\n  jumpi\n    /* \"@openzeppelin/contracts/access/Ownable.sol\":1350:1351  0 */\n  0x00\n    /* \"@openzeppelin/contracts/access/Ownable.sol\":1322:1353  OwnableInvalidOwner(address(0)) */\n  mload(0x40)\n  0x1e4fbdf700000000000000000000000000000000000000000000000000000000\n  dup2\n  mstore\n  0x04\n  add\n  tag_10\n  swap2\n  swap1\n  tag_11\n  jump\t// in\ntag_10:\n  mload(0x40)\n  dup1\n  swap2\n  sub\n  swap1\n  revert\n    /* \"@openzeppelin/contracts/access/Ownable.sol\":1269:1364  if (initialOwner == address(0)) {... */\ntag_9:\n    /* \"@openzeppelin/contracts/access/Ownable.sol\":1373:1405  _transferOwnership(initialOwner) */\n  tag_12\n    /* \"@openzeppelin/contracts/access/Ownable.sol\":1392:1404  initialOwner */\n  dup2\n    /* \"@openzeppelin/contracts/access/Ownable.sol\":1373:1391  _transferOwnership */\n  shl(0x20, tag_13)\n    /* \"@openzeppelin/contracts/access/Ownable.sol\":1373:1405  _transferOwnership(initialOwner) */\n  0x20\n  shr\n  jump\t// in\ntag_12:\n    /* \"@openzeppelin/contracts/access/Ownable.sol\":1225:1412  constructor(address initialOwner) {... */\n  pop\n    /* \"Smart Contracts/15_SubscriptionPaymentSystem.sol\":1106:1107  0 */\n  0x00\n    /* \"Smart Contracts/15_SubscriptionPaymentSystem.sol\":1081:1108  _paymentToken != address(0) */\n  0xffffffffffffffffffffffffffffffffffffffff\n  and\n    /* \"Smart Contracts/15_SubscriptionPaymentSystem.sol\":1081:1094  _paymentToken */\n  dup2\n    /* \"Smart Contracts/15_SubscriptionPaymentSystem.sol\":1081:1108  _paymentToken != address(0) */\n  0xffffffffffffffffffffffffffffffffffffffff\n  and\n  sub\n    /* \"Smart Contracts/15_SubscriptionPaymentSystem.sol\":1073:1134  require(_paymentToken != address(0), \"Invalid token address\") */\n  tag_15\n  jumpi\n  mload(0x40)\n  0x08c379a000000000000000000000000000000000000000000000000000000000\n  dup2\n  mstore\n  0x04\n  add\n  tag_16\n  swap1\n  tag_17\n  jump\t// in\ntag_16:\n  mload(0x40)\n  dup1\n  swap2\n  sub\n  swap1\n  revert\ntag_15:\n    /* \"Smart Contracts/15_SubscriptionPaymentSystem.sol\":1167:1180  _paymentToken */\n  dup1\n    /* \"Smart Contracts/15_SubscriptionPaymentSystem.sol\":1145:1157  paymentToken */\n  0x02\n  0x00\n    /* \"Smart Contracts/15_SubscriptionPaymentSystem.sol\":1145:1181  paymentToken = IERC20(_paymentToken) */\n  0x0100\n  exp\n  dup2\n  sload\n  dup2\n  0xffffffffffffffffffffffffffffffffffffffff\n  mul\n  not\n  and\n  swap1\n  dup4\n  0xffffffffffffffffffffffffffffffffffffffff\n  and\n  mul\n  or\n  swap1\n  sstore\n  pop\n    /* \"Smart Contracts/15_SubscriptionPaymentSystem.sol\":1007:1189  constructor(address _paymentToken) Ownable(msg.sender) {... */\n  pop\n    /* \"Smart Contracts/15_SubscriptionPaymentSystem.sol\":239:3955  contract SubscriptionPayment is ReentrancyGuard, Ownable {... */\n  jump(tag_18)\n    /* \"@openzeppelin/contracts/access/Ownable.sol\":2912:3099  function _transferOwnership(address newOwner) internal virtual {... */\ntag_13:\n    /* \"@openzeppelin/contracts/access/Ownable.sol\":2985:3001  address oldOwner */\n  0x00\n    /* \"@openzeppelin/contracts/access/Ownable.sol\":3004:3010  _owner */\n  0x01\n  0x00\n  swap1\n  sload\n  swap1\n  0x0100\n  exp\n  swap1\n  div\n  0xffffffffffffffffffffffffffffffffffffffff\n  and\n    /* \"@openzeppelin/contracts/access/Ownable.sol\":2985:3010  address oldOwner = _owner */\n  swap1\n  pop\n    /* \"@openzeppelin/contracts/access/Ownable.sol\":3029:3037  newOwner */\n  dup2\n    /* \"@openzeppelin/contracts/access/Ownable.sol\":3020:3026  _owner */\n  0x01\n  0x00\n    /* \"@openzeppelin/contracts/access/Ownable.sol\":3020:3037  _owner = newOwner */\n  0x0100\n  exp\n  dup2\n  sload\n  dup2\n  0xffffffffffffffffffffffffffffffffffffffff\n  mul\n  not\n  and\n  swap1\n  dup4\n  0xffffffffffffffffffffffffffffffffffffffff\n  and\n  mul\n  or\n  swap1\n  sstore\n  pop\n    /* \"@openzeppelin/contracts/access/Ownable.sol\":3083:3091  newOwner */\n  dup2\n    /* \"@openzeppelin/contracts/access/Ownable.sol\":3052:3092  OwnershipTransferred(oldOwner, newOwner) */\n  0xffffffffffffffffffffffffffffffffffffffff\n  and\n    /* \"@openzeppelin/contracts/access/Ownable.sol\":3073:3081  oldOwner */\n  dup2\n    /* \"@openzeppelin/contracts/access/Ownable.sol\":3052:3092  OwnershipTransferred(oldOwner, newOwner) */\n  0xffffffffffffffffffffffffffffffffffffffff\n  and\n  0x8be0079c531659141344cd1fd0a4f28419497f9722a3daafe3b4186f6b6457e0\n  mload(0x40)\n  mload(0x40)\n  dup1\n  swap2\n  sub\n  swap1\n  log3\n    /* \"@openzeppelin/contracts/access/Ownable.sol\":2975:3099  {... */\n  pop\n    /* \"@openzeppelin/contracts/access/Ownable.sol\":2912:3099  function _transferOwnership(address newOwner) internal virtual {... */\n  pop\n  jump\t// out\n    /* \"#utility.yul\":88:205   */\ntag_21:\n    /* \"#utility.yul\":197:198   */\n  0x00\n    /* \"#utility.yul\":194:195   */\n  0x00\n    /* \"#utility.yul\":187:199   */\n  revert\n    /* \"#utility.yul\":334:460   */\ntag_23:\n    /* \"#utility.yul\":371:378   */\n  0x00\n    /* \"#utility.yul\":411:453   */\n  0xffffffffffffffffffffffffffffffffffffffff\n    /* \"#utility.yul\":404:409   */\n  dup3\n    /* \"#utility.yul\":400:454   */\n  and\n    /* \"#utility.yul\":389:454   */\n  swap1\n  pop\n    /* \"#utility.yul\":334:460   */\n  swap2\n  swap1\n  pop\n  jump\t// out\n    /* \"#utility.yul\":466:562   */\ntag_24:\n    /* \"#utility.yul\":503:510   */\n  0x00\n    /* \"#utility.yul\":532:556   */\n  tag_37\n    /* \"#utility.yul\":550:555   */\n  dup3\n    /* \"#utility.yul\":532:556   */\n  tag_23\n  jump\t// in\ntag_37:\n    /* \"#utility.yul\":521:556   */\n  swap1\n  pop\n    /* \"#utility.yul\":466:562   */\n  swap2\n  swap1\n  pop\n  jump\t// out\n    /* \"#utility.yul\":568:690   */\ntag_25:\n    /* \"#utility.yul\":641:665   */\n  tag_39\n    /* \"#utility.yul\":659:664   */\n  dup2\n    /* \"#utility.yul\":641:665   */\n  tag_24\n  jump\t// in\ntag_39:\n    /* \"#utility.yul\":634:639   */\n  dup2\n    /* \"#utility.yul\":631:666   */\n  eq\n    /* \"#utility.yul\":621:684   */\n  tag_40\n  jumpi\n    /* \"#utility.yul\":680:681   */\n  0x00\n    /* \"#utility.yul\":677:678   */\n  0x00\n    /* \"#utility.yul\":670:682   */\n  revert\n    /* \"#utility.yul\":621:684   */\ntag_40:\n    /* \"#utility.yul\":568:690   */\n  pop\n  jump\t// out\n    /* \"#utility.yul\":696:839   */\ntag_26:\n    /* \"#utility.yul\":753:758   */\n  0x00\n    /* \"#utility.yul\":784:790   */\n  dup2\n    /* \"#utility.yul\":778:791   */\n  mload\n    /* \"#utility.yul\":769:791   */\n  swap1\n  pop\n    /* \"#utility.yul\":800:833   */\n  tag_42\n    /* \"#utility.yul\":827:832   */\n  dup2\n    /* \"#utility.yul\":800:833   */\n  tag_25\n  jump\t// in\ntag_42:\n    /* \"#utility.yul\":696:839   */\n  swap3\n  swap2\n  pop\n  pop\n  jump\t// out\n    /* \"#utility.yul\":845:1196   */\ntag_3:\n    /* \"#utility.yul\":915:921   */\n  0x00\n    /* \"#utility.yul\":964:966   */\n  0x20\n    /* \"#utility.yul\":952:961   */\n  dup3\n    /* \"#utility.yul\":943:950   */\n  dup5\n    /* \"#utility.yul\":939:962   */\n  sub\n    /* \"#utility.yul\":935:967   */\n  slt\n    /* \"#utility.yul\":932:1051   */\n  iszero\n  tag_44\n  jumpi\n    /* \"#utility.yul\":970:1049   */\n  tag_45\n  tag_21\n  jump\t// in\ntag_45:\n    /* \"#utility.yul\":932:1051   */\ntag_44:\n    /* \"#utility.yul\":1090:1091   */\n  0x00\n    /* \"#utility.yul\":1115:1179   */\n  tag_46\n    /* \"#utility.yul\":1171:1178   */\n  dup5\n    /* \"#utility.yul\":1162:1168   */\n  dup3\n    /* \"#utility.yul\":1151:1160   */\n  dup6\n    /* \"#utility.yul\":1147:1169   */\n  add\n    /* \"#utility.yul\":1115:1179   */\n  tag_26\n  jump\t// in\ntag_46:\n    /* \"#utility.yul\":1105:1179   */\n  swap2\n  pop\n    /* \"#utility.yul\":1061:1189   */\n  pop\n    /* \"#utility.yul\":845:1196   */\n  swap3\n  swap2\n  pop\n  pop\n  jump\t// out\n    /* \"#utility.yul\":1202:1320   */\ntag_27:\n    /* \"#utility.yul\":1289:1313   */\n  tag_48\n    /* \"#utility.yul\":1307:1312   */\n  dup2\n    /* \"#utility.yul\":1289:1313   */\n  tag_24\n  jump\t// in\ntag_48:\n    /* \"#utility.yul\":1284:1287   */\n  dup3\n    /* \"#utility.yul\":1277:1314   */\n  mstore\n    /* \"#utility.yul\":1202:1320   */\n  pop\n  pop\n  jump\t// out\n    /* \"#utility.yul\":1326:1548   */\ntag_11:\n    /* \"#utility.yul\":1419:1423   */\n  0x00\n    /* \"#utility.yul\":1457:1459   */\n  0x20\n    /* \"#utility.yul\":1446:1455   */\n  dup3\n    /* \"#utility.yul\":1442:1460   */\n  add\n    /* \"#utility.yul\":1434:1460   */\n  swap1\n  pop\n    /* \"#utility.yul\":1470:1541   */\n  tag_50\n    /* \"#utility.yul\":1538:1539   */\n  0x00\n    /* \"#utility.yul\":1527:1536   */\n  dup4\n    /* \"#utility.yul\":1523:1540   */\n  add\n    /* \"#utility.yul\":1514:1520   */\n  dup5\n    /* \"#utility.yul\":1470:1541   */\n  tag_27\n  jump\t// in\ntag_50:\n    /* \"#utility.yul\":1326:1548   */\n  swap3\n  swap2\n  pop\n  pop\n  jump\t// out\n    /* \"#utility.yul\":1554:1723   */\ntag_28:\n    /* \"#utility.yul\":1638:1649   */\n  0x00\n    /* \"#utility.yul\":1672:1678   */\n  dup3\n    /* \"#utility.yul\":1667:1670   */\n  dup3\n    /* \"#utility.yul\":1660:1679   */\n  mstore\n    /* \"#utility.yul\":1712:1716   */\n  0x20\n    /* \"#utility.yul\":1707:1710   */\n  dup3\n    /* \"#utility.yul\":1703:1717   */\n  add\n    /* \"#utility.yul\":1688:1717   */\n  swap1\n  pop\n    /* \"#utility.yul\":1554:1723   */\n  swap3\n  swap2\n  pop\n  pop\n  jump\t// out\n    /* \"#utility.yul\":1729:1900   */\ntag_29:\n    /* \"#utility.yul\":1869:1892   */\n  0x496e76616c696420746f6b656e20616464726573730000000000000000000000\n    /* \"#utility.yul\":1865:1866   */\n  0x00\n    /* \"#utility.yul\":1857:1863   */\n  dup3\n    /* \"#utility.yul\":1853:1867   */\n  add\n    /* \"#utility.yul\":1846:1893   */\n  mstore\n    /* \"#utility.yul\":1729:1900   */\n  pop\n  jump\t// out\n    /* \"#utility.yul\":1906:2272   */\ntag_30:\n    /* \"#utility.yul\":2048:2051   */\n  0x00\n    /* \"#utility.yul\":2069:2136   */\n  tag_54\n    /* \"#utility.yul\":2133:2135   */\n  0x15\n    /* \"#utility.yul\":2128:2131   */\n  dup4\n    /* \"#utility.yul\":2069:2136   */\n  tag_28\n  jump\t// in\ntag_54:\n    /* \"#utility.yul\":2062:2136   */\n  swap2\n  pop\n    /* \"#utility.yul\":2145:2238   */\n  tag_55\n    /* \"#utility.yul\":2234:2237   */\n  dup3\n    /* \"#utility.yul\":2145:2238   */\n  tag_29\n  jump\t// in\ntag_55:\n    /* \"#utility.yul\":2263:2265   */\n  0x20\n    /* \"#utility.yul\":2258:2261   */\n  dup3\n    /* \"#utility.yul\":2254:2266   */\n  add\n    /* \"#utility.yul\":2247:2266   */\n  swap1\n  pop\n    /* \"#utility.yul\":1906:2272   */\n  swap2\n  swap1\n  pop\n  jump\t// out\n    /* \"#utility.yul\":2278:2697   */\ntag_17:\n    /* \"#utility.yul\":2444:2448   */\n  0x00\n    /* \"#utility.yul\":2482:2484   */\n  0x20\n    /* \"#utility.yul\":2471:2480   */\n  dup3\n    /* \"#utility.yul\":2467:2485   */\n  add\n    /* \"#utility.yul\":2459:2485   */\n  swap1\n  pop\n    /* \"#utility.yul\":2531:2540   */\n  dup2\n    /* \"#utility.yul\":2525:2529   */\n  dup2\n    /* \"#utility.yul\":2521:2541   */\n  sub\n    /* \"#utility.yul\":2517:2518   */\n  0x00\n    /* \"#utility.yul\":2506:2515   */\n  dup4\n    /* \"#utility.yul\":2502:2519   */\n  add\n    /* \"#utility.yul\":2495:2542   */\n  mstore\n    /* \"#utility.yul\":2559:2690   */\n  tag_57\n    /* \"#utility.yul\":2685:2689   */\n  dup2\n    /* \"#utility.yul\":2559:2690   */\n  tag_30\n  jump\t// in\ntag_57:\n    /* \"#utility.yul\":2551:2690   */\n  swap1\n  pop\n    /* \"#utility.yul\":2278:2697   */\n  swap2\n  swap1\n  pop\n  jump\t// out\n    /* \"Smart Contracts/15_SubscriptionPaymentSystem.sol\":239:3955  contract SubscriptionPayment is ReentrancyGuard, Ownable {... */\ntag_18:\n  dataSize(sub_0)\n  dup1\n  dataOffset(sub_0)\n  0x00\n  codecopy\n  0x00\n  return\nstop\n\nsub_0: assembly {\n        /* \"Smart Contracts/15_SubscriptionPaymentSystem.sol\":239:3955  contract SubscriptionPayment is ReentrancyGuard, Ownable {... */\n      mstore(0x40, 0x80)\n      callvalue\n      dup1\n      iszero\n      tag_1\n      jumpi\n      revert(0x00, 0x00)\n    tag_1:\n      pop\n      jumpi(tag_2, lt(calldatasize, 0x04))\n      shr(0xe0, calldataload(0x00))\n      dup1\n      0x8da5cb5b\n      gt\n      tag_17\n      jumpi\n      dup1\n      0xb1620616\n      gt\n      tag_18\n      jumpi\n      dup1\n      0xb1620616\n      eq\n      tag_13\n      jumpi\n      dup1\n      0xb197df54\n      eq\n      tag_14\n      jumpi\n      dup1\n      0xf046395a\n      eq\n      tag_15\n      jumpi\n      dup1\n      0xf2fde38b\n      eq\n      tag_16\n      jumpi\n      jump(tag_2)\n    tag_18:\n      dup1\n      0x8da5cb5b\n      eq\n      tag_10\n      jumpi\n      dup1\n      0x8fe123d7\n      eq\n      tag_11\n      jumpi\n      dup1\n      0x97ad7e02\n      eq\n      tag_12\n      jumpi\n      jump(tag_2)\n    tag_17:\n      dup1\n      0x3013ce29\n      gt\n      tag_19\n      jumpi\n      dup1\n      0x3013ce29\n      eq\n      tag_6\n      jumpi\n      dup1\n      0x382d39bb\n      eq\n      tag_7\n      jumpi\n      dup1\n      0x6174bc63\n      eq\n      tag_8\n      jumpi\n      dup1\n      0x715018a6\n      eq\n      tag_9\n      jumpi\n      jump(tag_2)\n    tag_19:\n      dup1\n      0x0cbebc24\n      eq\n      tag_3\n      jumpi\n      dup1\n      0x0f574ba7\n      eq\n      tag_4\n      jumpi\n      dup1\n      0x24e9edb0\n      eq\n      tag_5\n      jumpi\n    tag_2:\n      revert(0x00, 0x00)\n        /* \"Smart Contracts/15_SubscriptionPaymentSystem.sol\":3523:3952  function getSubscription(address _user)... */\n    tag_3:\n      tag_20\n      0x04\n      dup1\n      calldatasize\n      sub\n      dup2\n      add\n      swap1\n      tag_21\n      swap2\n      swap1\n      tag_22\n      jump\t// in\n    tag_21:\n      tag_23\n      jump\t// in\n    tag_20:\n      mload(0x40)\n      tag_24\n      swap5\n      swap4\n      swap3\n      swap2\n      swap1\n      tag_25\n      jump\t// in\n    tag_24:\n      mload(0x40)\n      dup1\n      swap2\n      sub\n      swap1\n      return\n        /* \"Smart Contracts/15_SubscriptionPaymentSystem.sol\":1812:2442  function subscribe(uint256 _planId) external nonReentrant {... */\n    tag_4:\n      tag_26\n      0x04\n      dup1\n      calldatasize\n      sub\n      dup2\n      add\n      swap1\n      tag_27\n      swap2\n      swap1\n      tag_28\n      jump\t// in\n    tag_27:\n      tag_29\n      jump\t// in\n    tag_26:\n      stop\n        /* \"Smart Contracts/15_SubscriptionPaymentSystem.sol\":3036:3284  function cancelSubscription() external {... */\n    tag_5:\n      tag_30\n      tag_31\n      jump\t// in\n    tag_30:\n      stop\n        /* \"Smart Contracts/15_SubscriptionPaymentSystem.sol\":305:331  IERC20 public paymentToken */\n    tag_6:\n      tag_32\n      tag_33\n      jump\t// in\n    tag_32:\n      mload(0x40)\n      tag_34\n      swap2\n      swap1\n      tag_35\n      jump\t// in\n    tag_34:\n      mload(0x40)\n      dup1\n      swap2\n      sub\n      swap1\n      return\n        /* \"Smart Contracts/15_SubscriptionPaymentSystem.sol\":338:362  uint256 public planCount */\n    tag_7:\n      tag_36\n      tag_37\n      jump\t// in\n    tag_36:\n      mload(0x40)\n      tag_38\n      swap2\n      swap1\n      tag_39\n      jump\t// in\n    tag_38:\n      mload(0x40)\n      dup1\n      swap2\n      sub\n      swap1\n      return\n        /* \"Smart Contracts/15_SubscriptionPaymentSystem.sol\":1639:1802  function deactivatePlan(uint256 _planId) external onlyOwner {... */\n    tag_8:\n      tag_40\n      0x04\n      dup1\n      calldatasize\n      sub\n      dup2\n      add\n      swap1\n      tag_41\n      swap2\n      swap1\n      tag_28\n      jump\t// in\n    tag_41:\n      tag_42\n      jump\t// in\n    tag_40:\n      stop\n        /* \"@openzeppelin/contracts/access/Ownable.sol\":2293:2394  function renounceOwnership() public virtual onlyOwner {... */\n    tag_9:\n      tag_43\n      tag_44\n      jump\t// in\n    tag_43:\n      stop\n        /* \"@openzeppelin/contracts/access/Ownable.sol\":1638:1723  function owner() public view virtual returns (address) {... */\n    tag_10:\n      tag_45\n      tag_46\n      jump\t// in\n    tag_45:\n      mload(0x40)\n      tag_47\n      swap2\n      swap1\n      tag_48\n      jump\t// in\n    tag_47:\n      mload(0x40)\n      dup1\n      swap2\n      sub\n      swap1\n      return\n        /* \"Smart Contracts/15_SubscriptionPaymentSystem.sol\":2450:3028  function processPayment(address _user) public nonReentrant {... */\n    tag_11:\n      tag_49\n      0x04\n      dup1\n      calldatasize\n      sub\n      dup2\n      add\n      swap1\n      tag_50\n      swap2\n      swap1\n      tag_22\n      jump\t// in\n    tag_50:\n      tag_51\n      jump\t// in\n    tag_49:\n      stop\n        /* \"Smart Contracts/15_SubscriptionPaymentSystem.sol\":3292:3515  function isPaymentDue(address _user) external view returns (bool) {... */\n    tag_12:\n      tag_52\n      0x04\n      dup1\n      calldatasize\n      sub\n      dup2\n      add\n      swap1\n      tag_53\n      swap2\n      swap1\n      tag_22\n      jump\t// in\n    tag_53:\n      tag_54\n      jump\t// in\n    tag_52:\n      mload(0x40)\n      tag_55\n      swap2\n      swap1\n      tag_56\n      jump\t// in\n    tag_55:\n      mload(0x40)\n      dup1\n      swap2\n      sub\n      swap1\n      return\n        /* \"Smart Contracts/15_SubscriptionPaymentSystem.sol\":626:663  mapping(uint256 => Plan) public plans */\n    tag_13:\n      tag_57\n      0x04\n      dup1\n      calldatasize\n      sub\n      dup2\n      add\n      swap1\n      tag_58\n      swap2\n      swap1\n      tag_28\n      jump\t// in\n    tag_58:\n      tag_59\n      jump\t// in\n    tag_57:\n      mload(0x40)\n      tag_60\n      swap4\n      swap3\n      swap2\n      swap1\n      tag_61\n      jump\t// in\n    tag_60:\n      mload(0x40)\n      dup1\n      swap2\n      sub\n      swap1\n      return\n        /* \"Smart Contracts/15_SubscriptionPaymentSystem.sol\":1197:1631  function createPlan(... */\n    tag_14:\n      tag_62\n      0x04\n      dup1\n      calldatasize\n      sub\n      dup2\n      add\n      swap1\n      tag_63\n      swap2\n      swap1\n      tag_64\n      jump\t// in\n    tag_63:\n      tag_65\n      jump\t// in\n    tag_62:\n      stop\n        /* \"Smart Contracts/15_SubscriptionPaymentSystem.sol\":670:723  mapping(address => Subscription) public subscriptions */\n    tag_15:\n      tag_66\n      0x04\n      dup1\n      calldatasize\n      sub\n      dup2\n      add\n      swap1\n      tag_67\n      swap2\n      swap1\n      tag_22\n      jump\t// in\n    tag_67:\n      tag_68\n      jump\t// in\n    tag_66:\n      mload(0x40)\n      tag_69\n      swap5\n      swap4\n      swap3\n      swap2\n      swap1\n      tag_25\n      jump\t// in\n    tag_69:\n      mload(0x40)\n      dup1\n      swap2\n      sub\n      swap1\n      return\n        /* \"@openzeppelin/contracts/access/Ownable.sol\":2543:2758  function transferOwnership(address newOwner) public virtual onlyOwner {... */\n    tag_16:\n      tag_70\n      0x04\n      dup1\n      calldatasize\n      sub\n      dup2\n      add\n      swap1\n      tag_71\n      swap2\n      swap1\n      tag_22\n      jump\t// in\n    tag_71:\n      tag_72\n      jump\t// in\n    tag_70:\n      stop\n        /* \"Smart Contracts/15_SubscriptionPaymentSystem.sol\":3523:3952  function getSubscription(address _user)... */\n    tag_23:\n        /* \"Smart Contracts/15_SubscriptionPaymentSystem.sol\":3627:3641  uint256 planId */\n      0x00\n        /* \"Smart Contracts/15_SubscriptionPaymentSystem.sol\":3656:3673  uint256 startTime */\n      0x00\n        /* \"Smart Contracts/15_SubscriptionPaymentSystem.sol\":3688:3707  uint256 nextPayment */\n      0x00\n        /* \"Smart Contracts/15_SubscriptionPaymentSystem.sol\":3722:3733  bool active */\n      0x00\n        /* \"Smart Contracts/15_SubscriptionPaymentSystem.sol\":3761:3784  Subscription memory sub */\n      0x00\n        /* \"Smart Contracts/15_SubscriptionPaymentSystem.sol\":3787:3800  subscriptions */\n      0x05\n        /* \"Smart Contracts/15_SubscriptionPaymentSystem.sol\":3787:3807  subscriptions[_user] */\n      0x00\n        /* \"Smart Contracts/15_SubscriptionPaymentSystem.sol\":3801:3806  _user */\n      dup8\n        /* \"Smart Contracts/15_SubscriptionPaymentSystem.sol\":3787:3807  subscriptions[_user] */\n      0xffffffffffffffffffffffffffffffffffffffff\n      and\n      0xffffffffffffffffffffffffffffffffffffffff\n      and\n      dup2\n      mstore\n      0x20\n      add\n      swap1\n      dup2\n      mstore\n      0x20\n      add\n      0x00\n      keccak256\n        /* \"Smart Contracts/15_SubscriptionPaymentSystem.sol\":3761:3807  Subscription memory sub = subscriptions[_user] */\n      mload(0x40)\n      dup1\n      0x80\n      add\n      0x40\n      mstore\n      swap1\n      dup2\n      0x00\n      dup3\n      add\n      sload\n      dup2\n      mstore\n      0x20\n      add\n      0x01\n      dup3\n      add\n      sload\n      dup2\n      mstore\n      0x20\n      add\n      0x02\n      dup3\n      add\n      sload\n      dup2\n      mstore\n      0x20\n      add\n      0x03\n      dup3\n      add\n      0x00\n      swap1\n      sload\n      swap1\n      0x0100\n      exp\n      swap1\n      div\n      0xff\n      and\n      iszero\n      iszero\n      iszero\n      iszero\n      dup2\n      mstore\n      pop\n      pop\n      swap1\n      pop\n        /* \"Smart Contracts/15_SubscriptionPaymentSystem.sol\":3840:3843  sub */\n      dup1\n        /* \"Smart Contracts/15_SubscriptionPaymentSystem.sol\":3840:3850  sub.planId */\n      0x00\n      add\n      mload\n        /* \"Smart Contracts/15_SubscriptionPaymentSystem.sol\":3865:3868  sub */\n      dup2\n        /* \"Smart Contracts/15_SubscriptionPaymentSystem.sol\":3865:3878  sub.startTime */\n      0x20\n      add\n      mload\n        /* \"Smart Contracts/15_SubscriptionPaymentSystem.sol\":3893:3896  sub */\n      dup3\n        /* \"Smart Contracts/15_SubscriptionPaymentSystem.sol\":3893:3908  sub.nextPayment */\n      0x40\n      add\n      mload\n        /* \"Smart Contracts/15_SubscriptionPaymentSystem.sol\":3923:3926  sub */\n      dup4\n        /* \"Smart Contracts/15_SubscriptionPaymentSystem.sol\":3923:3933  sub.active */\n      0x60\n      add\n      mload\n        /* \"Smart Contracts/15_SubscriptionPaymentSystem.sol\":3818:3944  return (... */\n      swap5\n      pop\n      swap5\n      pop\n      swap5\n      pop\n      swap5\n      pop\n      pop\n        /* \"Smart Contracts/15_SubscriptionPaymentSystem.sol\":3523:3952  function getSubscription(address _user)... */\n      swap2\n      swap4\n      pop\n      swap2\n      swap4\n      jump\t// out\n        /* \"Smart Contracts/15_SubscriptionPaymentSystem.sol\":1812:2442  function subscribe(uint256 _planId) external nonReentrant {... */\n    tag_29:\n        /* \"@openzeppelin/contracts/security/ReentrancyGuard.sol\":2261:2282  _nonReentrantBefore() */\n      tag_75\n        /* \"@openzeppelin/contracts/security/ReentrancyGuard.sol\":2261:2280  _nonReentrantBefore */\n      tag_76\n        /* \"@openzeppelin/contracts/security/ReentrancyGuard.sol\":2261:2282  _nonReentrantBefore() */\n      jump\t// in\n    tag_75:\n        /* \"Smart Contracts/15_SubscriptionPaymentSystem.sol\":1899:1908  planCount */\n      sload(0x03)\n        /* \"Smart Contracts/15_SubscriptionPaymentSystem.sol\":1889:1896  _planId */\n      dup2\n        /* \"Smart Contracts/15_SubscriptionPaymentSystem.sol\":1889:1908  _planId < planCount */\n      lt\n        /* \"Smart Contracts/15_SubscriptionPaymentSystem.sol\":1881:1925  require(_planId < planCount, \"Invalid plan\") */\n      tag_78\n      jumpi\n      mload(0x40)\n      0x08c379a000000000000000000000000000000000000000000000000000000000\n      dup2\n      mstore\n      0x04\n      add\n      tag_79\n      swap1\n      tag_80\n      jump\t// in\n    tag_79:\n      mload(0x40)\n      dup1\n      swap2\n      sub\n      swap1\n      revert\n    tag_78:\n        /* \"Smart Contracts/15_SubscriptionPaymentSystem.sol\":1938:1954  Plan memory plan */\n      0x00\n        /* \"Smart Contracts/15_SubscriptionPaymentSystem.sol\":1957:1962  plans */\n      0x04\n        /* \"Smart Contracts/15_SubscriptionPaymentSystem.sol\":1957:1971  plans[_planId] */\n      0x00\n        /* \"Smart Contracts/15_SubscriptionPaymentSystem.sol\":1963:1970  _planId */\n      dup4\n        /* \"Smart Contracts/15_SubscriptionPaymentSystem.sol\":1957:1971  plans[_planId] */\n      dup2\n      mstore\n      0x20\n      add\n      swap1\n      dup2\n      mstore\n      0x20\n      add\n      0x00\n      keccak256\n        /* \"Smart Contracts/15_SubscriptionPaymentSystem.sol\":1938:1971  Plan memory plan = plans[_planId] */\n      mload(0x40)\n      dup1\n      0x60\n      add\n      0x40\n      mstore\n      swap1\n      dup2\n      0x00\n      dup3\n      add\n      sload\n      dup2\n      mstore\n      0x20\n      add\n      0x01\n      dup3\n      add\n      sload\n      dup2\n      mstore\n      0x20\n      add\n      0x02\n      dup3\n      add\n      0x00\n      swap1\n      sload\n      swap1\n      0x0100\n      exp\n      swap1\n      div\n      0xff\n      and\n      iszero\n      iszero\n      iszero\n      iszero\n      dup2\n      mstore\n      pop\n      pop\n      swap1\n      pop\n        /* \"Smart Contracts/15_SubscriptionPaymentSystem.sol\":1990:1994  plan */\n      dup1\n        /* \"Smart Contracts/15_SubscriptionPaymentSystem.sol\":1990:2001  plan.active */\n      0x40\n      add\n      mload\n        /* \"Smart Contracts/15_SubscriptionPaymentSystem.sol\":1982:2019  require(plan.active, \"Plan inactive\") */\n      tag_81\n      jumpi\n      mload(0x40)\n      0x08c379a000000000000000000000000000000000000000000000000000000000\n      dup2\n      mstore\n      0x04\n      add\n      tag_82\n      swap1\n      tag_83\n      jump\t// in\n    tag_82:\n      mload(0x40)\n      dup1\n      swap2\n      sub\n      swap1\n      revert\n    tag_81:\n        /* \"Smart Contracts/15_SubscriptionPaymentSystem.sol\":2054:2066  paymentToken */\n      0x02\n      0x00\n      swap1\n      sload\n      swap1\n      0x0100\n      exp\n      swap1\n      div\n      0xffffffffffffffffffffffffffffffffffffffff\n      and\n        /* \"Smart Contracts/15_SubscriptionPaymentSystem.sol\":2054:2079  paymentToken.transferFrom */\n      0xffffffffffffffffffffffffffffffffffffffff\n      and\n      0x23b872dd\n        /* \"Smart Contracts/15_SubscriptionPaymentSystem.sol\":2080:2090  msg.sender */\n      caller\n        /* \"Smart Contracts/15_SubscriptionPaymentSystem.sol\":2092:2099  owner() */\n      tag_84\n        /* \"Smart Contracts/15_SubscriptionPaymentSystem.sol\":2092:2097  owner */\n      tag_46\n        /* \"Smart Contracts/15_SubscriptionPaymentSystem.sol\":2092:2099  owner() */\n      jump\t// in\n    tag_84:\n        /* \"Smart Contracts/15_SubscriptionPaymentSystem.sol\":2101:2105  plan */\n      dup5\n        /* \"Smart Contracts/15_SubscriptionPaymentSystem.sol\":2101:2111  plan.price */\n      0x00\n      add\n      mload\n        /* \"Smart Contracts/15_SubscriptionPaymentSystem.sol\":2054:2112  paymentToken.transferFrom(msg.sender, owner(), plan.price) */\n      mload(0x40)\n      dup5\n      0xffffffff\n      and\n      0xe0\n      shl\n      dup2\n      mstore\n      0x04\n      add\n      tag_85\n      swap4\n      swap3\n      swap2\n      swap1\n      tag_86\n      jump\t// in\n    tag_85:\n      0x20\n      mload(0x40)\n      dup1\n      dup4\n      sub\n      dup2\n      0x00\n      dup8\n      gas\n      call\n      iszero\n      dup1\n      iszero\n      tag_88\n      jumpi\n      returndatacopy(0x00, 0x00, returndatasize)\n      revert(0x00, returndatasize)\n    tag_88:\n      pop\n      pop\n      pop\n      pop\n      mload(0x40)\n      returndatasize\n      not(0x1f)\n      0x1f\n      dup3\n      add\n      and\n      dup3\n      add\n      dup1\n      0x40\n      mstore\n      pop\n      dup2\n      add\n      swap1\n      tag_89\n      swap2\n      swap1\n      tag_90\n      jump\t// in\n    tag_89:\n        /* \"Smart Contracts/15_SubscriptionPaymentSystem.sol\":2032:2162  require(... */\n      tag_91\n      jumpi\n      mload(0x40)\n      0x08c379a000000000000000000000000000000000000000000000000000000000\n      dup2\n      mstore\n      0x04\n      add\n      tag_92\n      swap1\n      tag_93\n      jump\t// in\n    tag_92:\n      mload(0x40)\n      dup1\n      swap2\n      sub\n      swap1\n      revert\n    tag_91:\n        /* \"Smart Contracts/15_SubscriptionPaymentSystem.sol\":2203:2385  Subscription({... */\n      mload(0x40)\n      dup1\n      0x80\n      add\n      0x40\n      mstore\n      dup1\n        /* \"Smart Contracts/15_SubscriptionPaymentSystem.sol\":2239:2246  _planId */\n      dup4\n        /* \"Smart Contracts/15_SubscriptionPaymentSystem.sol\":2203:2385  Subscription({... */\n      dup2\n      mstore\n      0x20\n      add\n        /* \"Smart Contracts/15_SubscriptionPaymentSystem.sol\":2272:2287  block.timestamp */\n      timestamp\n        /* \"Smart Contracts/15_SubscriptionPaymentSystem.sol\":2203:2385  Subscription({... */\n      dup2\n      mstore\n      0x20\n      add\n        /* \"Smart Contracts/15_SubscriptionPaymentSystem.sol\":2333:2337  plan */\n      dup3\n        /* \"Smart Contracts/15_SubscriptionPaymentSystem.sol\":2333:2346  plan.duration */\n      0x20\n      add\n      mload\n        /* \"Smart Contracts/15_SubscriptionPaymentSystem.sol\":2315:2330  block.timestamp */\n      timestamp\n        /* \"Smart Contracts/15_SubscriptionPaymentSystem.sol\":2315:2346  block.timestamp + plan.duration */\n      tag_94\n      swap2\n      swap1\n      tag_95\n      jump\t// in\n    tag_94:\n        /* \"Smart Contracts/15_SubscriptionPaymentSystem.sol\":2203:2385  Subscription({... */\n      dup2\n      mstore\n      0x20\n      add\n        /* \"Smart Contracts/15_SubscriptionPaymentSystem.sol\":2369:2373  true */\n      0x01\n        /* \"Smart Contracts/15_SubscriptionPaymentSystem.sol\":2203:2385  Subscription({... */\n      iszero\n      iszero\n      dup2\n      mstore\n      pop\n        /* \"Smart Contracts/15_SubscriptionPaymentSystem.sol\":2175:2188  subscriptions */\n      0x05\n        /* \"Smart Contracts/15_SubscriptionPaymentSystem.sol\":2175:2200  subscriptions[msg.sender] */\n      0x00\n        /* \"Smart Contracts/15_SubscriptionPaymentSystem.sol\":2189:2199  msg.sender */\n      caller\n        /* \"Smart Contracts/15_SubscriptionPaymentSystem.sol\":2175:2200  subscriptions[msg.sender] */\n      0xffffffffffffffffffffffffffffffffffffffff\n      and\n      0xffffffffffffffffffffffffffffffffffffffff\n      and\n      dup2\n      mstore\n      0x20\n      add\n      swap1\n      dup2\n      mstore\n      0x20\n      add\n      0x00\n      keccak256\n        /* \"Smart Contracts/15_SubscriptionPaymentSystem.sol\":2175:2385  subscriptions[msg.sender] = Subscription({... */\n      0x00\n      dup3\n      add\n      mload\n      dup2\n      0x00\n      add\n      sstore\n      0x20\n      dup3\n      add\n      mload\n      dup2\n      0x01\n      add\n      sstore\n      0x40\n      dup3\n      add\n      mload\n      dup2\n      0x02\n      add\n      sstore\n      0x60\n      dup3\n      add\n      mload\n      dup2\n      0x03\n      add\n      exp(0x0100, 0x00)\n      dup2\n      sload\n      dup2\n      0xff\n      mul\n      not\n      and\n      swap1\n      dup4\n      iszero\n      iszero\n      mul\n      or\n      swap1\n      sstore\n      pop\n      swap1\n      pop\n      pop\n        /* \"Smart Contracts/15_SubscriptionPaymentSystem.sol\":2426:2433  _planId */\n      dup2\n        /* \"Smart Contracts/15_SubscriptionPaymentSystem.sol\":2414:2424  msg.sender */\n      caller\n        /* \"Smart Contracts/15_SubscriptionPaymentSystem.sol\":2403:2434  Subscribed(msg.sender, _planId) */\n      0xffffffffffffffffffffffffffffffffffffffff\n      and\n      0x4b90d6788928d63c1821907a6a8b95f40d26562d8fe41b105f7489db9966dfcb\n      mload(0x40)\n      mload(0x40)\n      dup1\n      swap2\n      sub\n      swap1\n      log3\n        /* \"Smart Contracts/15_SubscriptionPaymentSystem.sol\":1870:2442  {... */\n      pop\n        /* \"@openzeppelin/contracts/security/ReentrancyGuard.sol\":2303:2323  _nonReentrantAfter() */\n      tag_96\n        /* \"@openzeppelin/contracts/security/ReentrancyGuard.sol\":2303:2321  _nonReentrantAfter */\n      tag_97\n        /* \"@openzeppelin/contracts/security/ReentrancyGuard.sol\":2303:2323  _nonReentrantAfter() */\n      jump\t// in\n    tag_96:\n        /* \"Smart Contracts/15_SubscriptionPaymentSystem.sol\":1812:2442  function subscribe(uint256 _planId) external nonReentrant {... */\n      pop\n      jump\t// out\n        /* \"Smart Contracts/15_SubscriptionPaymentSystem.sol\":3036:3284  function cancelSubscription() external {... */\n    tag_31:\n        /* \"Smart Contracts/15_SubscriptionPaymentSystem.sol\":3086:3110  Subscription storage sub */\n      0x00\n        /* \"Smart Contracts/15_SubscriptionPaymentSystem.sol\":3113:3126  subscriptions */\n      0x05\n        /* \"Smart Contracts/15_SubscriptionPaymentSystem.sol\":3113:3138  subscriptions[msg.sender] */\n      0x00\n        /* \"Smart Contracts/15_SubscriptionPaymentSystem.sol\":3127:3137  msg.sender */\n      caller\n        /* \"Smart Contracts/15_SubscriptionPaymentSystem.sol\":3113:3138  subscriptions[msg.sender] */\n      0xffffffffffffffffffffffffffffffffffffffff\n      and\n      0xffffffffffffffffffffffffffffffffffffffff\n      and\n      dup2\n      mstore\n      0x20\n      add\n      swap1\n      dup2\n      mstore\n      0x20\n      add\n      0x00\n      keccak256\n        /* \"Smart Contracts/15_SubscriptionPaymentSystem.sol\":3086:3138  Subscription storage sub = subscriptions[msg.sender] */\n      swap1\n      pop\n        /* \"Smart Contracts/15_SubscriptionPaymentSystem.sol\":3157:3160  sub */\n      dup1\n        /* \"Smart Contracts/15_SubscriptionPaymentSystem.sol\":3157:3167  sub.active */\n      0x03\n      add\n      0x00\n      swap1\n      sload\n      swap1\n      0x0100\n      exp\n      swap1\n      div\n      0xff\n      and\n        /* \"Smart Contracts/15_SubscriptionPaymentSystem.sol\":3149:3194  require(sub.active, \"No active subscription\") */\n      tag_99\n      jumpi\n      mload(0x40)\n      0x08c379a000000000000000000000000000000000000000000000000000000000\n      dup2\n      mstore\n      0x04\n      add\n      tag_100\n      swap1\n      tag_101\n      jump\t// in\n    tag_100:\n      mload(0x40)\n      dup1\n      swap2\n      sub\n      swap1\n      revert\n    tag_99:\n        /* \"Smart Contracts/15_SubscriptionPaymentSystem.sol\":3220:3225  false */\n      0x00\n        /* \"Smart Contracts/15_SubscriptionPaymentSystem.sol\":3207:3210  sub */\n      dup2\n        /* \"Smart Contracts/15_SubscriptionPaymentSystem.sol\":3207:3217  sub.active */\n      0x03\n      add\n      0x00\n        /* \"Smart Contracts/15_SubscriptionPaymentSystem.sol\":3207:3225  sub.active = false */\n      0x0100\n      exp\n      dup2\n      sload\n      dup2\n      0xff\n      mul\n      not\n      and\n      swap1\n      dup4\n      iszero\n      iszero\n      mul\n      or\n      swap1\n      sstore\n      pop\n        /* \"Smart Contracts/15_SubscriptionPaymentSystem.sol\":3265:3275  msg.sender */\n      caller\n        /* \"Smart Contracts/15_SubscriptionPaymentSystem.sol\":3243:3276  SubscriptionCancelled(msg.sender) */\n      0xffffffffffffffffffffffffffffffffffffffff\n      and\n      0x71215198e3f86c24dc3af6d0d7f84d0095e5ee736aa56daf9927fae51935e95d\n      mload(0x40)\n      mload(0x40)\n      dup1\n      swap2\n      sub\n      swap1\n      log2\n        /* \"Smart Contracts/15_SubscriptionPaymentSystem.sol\":3075:3284  {... */\n      pop\n        /* \"Smart Contracts/15_SubscriptionPaymentSystem.sol\":3036:3284  function cancelSubscription() external {... */\n      jump\t// out\n        /* \"Smart Contracts/15_SubscriptionPaymentSystem.sol\":305:331  IERC20 public paymentToken */\n    tag_33:\n      0x02\n      0x00\n      swap1\n      sload\n      swap1\n      0x0100\n      exp\n      swap1\n      div\n      0xffffffffffffffffffffffffffffffffffffffff\n      and\n      dup2\n      jump\t// out\n        /* \"Smart Contracts/15_SubscriptionPaymentSystem.sol\":338:362  uint256 public planCount */\n    tag_37:\n      sload(0x03)\n      dup2\n      jump\t// out\n        /* \"Smart Contracts/15_SubscriptionPaymentSystem.sol\":1639:1802  function deactivatePlan(uint256 _planId) external onlyOwner {... */\n    tag_42:\n        /* \"@openzeppelin/contracts/access/Ownable.sol\":1531:1544  _checkOwner() */\n      tag_103\n        /* \"@openzeppelin/contracts/access/Ownable.sol\":1531:1542  _checkOwner */\n      tag_104\n        /* \"@openzeppelin/contracts/access/Ownable.sol\":1531:1544  _checkOwner() */\n      jump\t// in\n    tag_103:\n        /* \"Smart Contracts/15_SubscriptionPaymentSystem.sol\":1728:1737  planCount */\n      sload(0x03)\n        /* \"Smart Contracts/15_SubscriptionPaymentSystem.sol\":1718:1725  _planId */\n      dup2\n        /* \"Smart Contracts/15_SubscriptionPaymentSystem.sol\":1718:1737  _planId < planCount */\n      lt\n        /* \"Smart Contracts/15_SubscriptionPaymentSystem.sol\":1710:1754  require(_planId < planCount, \"Invalid plan\") */\n      tag_106\n      jumpi\n      mload(0x40)\n      0x08c379a000000000000000000000000000000000000000000000000000000000\n      dup2\n      mstore\n      0x04\n      add\n      tag_107\n      swap1\n      tag_80\n      jump\t// in\n    tag_107:\n      mload(0x40)\n      dup1\n      swap2\n      sub\n      swap1\n      revert\n    tag_106:\n        /* \"Smart Contracts/15_SubscriptionPaymentSystem.sol\":1789:1794  false */\n      0x00\n        /* \"Smart Contracts/15_SubscriptionPaymentSystem.sol\":1765:1770  plans */\n      0x04\n        /* \"Smart Contracts/15_SubscriptionPaymentSystem.sol\":1765:1779  plans[_planId] */\n      0x00\n        /* \"Smart Contracts/15_SubscriptionPaymentSystem.sol\":1771:1778  _planId */\n      dup4\n        /* \"Smart Contracts/15_SubscriptionPaymentSystem.sol\":1765:1779  plans[_planId] */\n      dup2\n      mstore\n      0x20\n      add\n      swap1\n      dup2\n      mstore\n      0x20\n      add\n      0x00\n      keccak256\n        /* \"Smart Contracts/15_SubscriptionPaymentSystem.sol\":1765:1786  plans[_planId].active */\n      0x02\n      add\n      0x00\n        /* \"Smart Contracts/15_SubscriptionPaymentSystem.sol\":1765:1794  plans[_planId].active = false */\n      0x0100\n      exp\n      dup2\n      sload\n      dup2\n      0xff\n      mul\n      not\n      and\n      swap1\n      dup4\n      iszero\n      iszero\n      mul\n      or\n      swap1\n      sstore\n      pop\n        /* \"Smart Contracts/15_SubscriptionPaymentSystem.sol\":1639:1802  function deactivatePlan(uint256 _planId) external onlyOwner {... */\n      pop\n      jump\t// out\n        /* \"@openzeppelin/contracts/access/Ownable.sol\":2293:2394  function renounceOwnership() public virtual onlyOwner {... */\n    tag_44:\n        /* \"@openzeppelin/contracts/access/Ownable.sol\":1531:1544  _checkOwner() */\n      tag_109\n        /* \"@openzeppelin/contracts/access/Ownable.sol\":1531:1542  _checkOwner */\n      tag_104\n        /* \"@openzeppelin/contracts/access/Ownable.sol\":1531:1544  _checkOwner() */\n      jump\t// in\n    tag_109:\n        /* \"@openzeppelin/contracts/access/Ownable.sol\":2357:2387  _transferOwnership(address(0)) */\n      tag_111\n        /* \"@openzeppelin/contracts/access/Ownable.sol\":2384:2385  0 */\n      0x00\n        /* \"@openzeppelin/contracts/access/Ownable.sol\":2357:2375  _transferOwnership */\n      tag_112\n        /* \"@openzeppelin/contracts/access/Ownable.sol\":2357:2387  _transferOwnership(address(0)) */\n      jump\t// in\n    tag_111:\n        /* \"@openzeppelin/contracts/access/Ownable.sol\":2293:2394  function renounceOwnership() public virtual onlyOwner {... */\n      jump\t// out\n        /* \"@openzeppelin/contracts/access/Ownable.sol\":1638:1723  function owner() public view virtual returns (address) {... */\n    tag_46:\n        /* \"@openzeppelin/contracts/access/Ownable.sol\":1684:1691  address */\n      0x00\n        /* \"@openzeppelin/contracts/access/Ownable.sol\":1710:1716  _owner */\n      0x01\n      0x00\n      swap1\n      sload\n      swap1\n      0x0100\n      exp\n      swap1\n      div\n      0xffffffffffffffffffffffffffffffffffffffff\n      and\n        /* \"@openzeppelin/contracts/access/Ownable.sol\":1703:1716  return _owner */\n      swap1\n      pop\n        /* \"@openzeppelin/contracts/access/Ownable.sol\":1638:1723  function owner() public view virtual returns (address) {... */\n      swap1\n      jump\t// out\n        /* \"Smart Contracts/15_SubscriptionPaymentSystem.sol\":2450:3028  function processPayment(address _user) public nonReentrant {... */\n    tag_51:\n        /* \"@openzeppelin/contracts/security/ReentrancyGuard.sol\":2261:2282  _nonReentrantBefore() */\n      tag_115\n        /* \"@openzeppelin/contracts/security/ReentrancyGuard.sol\":2261:2280  _nonReentrantBefore */\n      tag_76\n        /* \"@openzeppelin/contracts/security/ReentrancyGuard.sol\":2261:2282  _nonReentrantBefore() */\n      jump\t// in\n    tag_115:\n        /* \"Smart Contracts/15_SubscriptionPaymentSystem.sol\":2520:2544  Subscription storage sub */\n      0x00\n        /* \"Smart Contracts/15_SubscriptionPaymentSystem.sol\":2547:2560  subscriptions */\n      0x05\n        /* \"Smart Contracts/15_SubscriptionPaymentSystem.sol\":2547:2567  subscriptions[_user] */\n      0x00\n        /* \"Smart Contracts/15_SubscriptionPaymentSystem.sol\":2561:2566  _user */\n      dup4\n        /* \"Smart Contracts/15_SubscriptionPaymentSystem.sol\":2547:2567  subscriptions[_user] */\n      0xffffffffffffffffffffffffffffffffffffffff\n      and\n      0xffffffffffffffffffffffffffffffffffffffff\n      and\n      dup2\n      mstore\n      0x20\n      add\n      swap1\n      dup2\n      mstore\n      0x20\n      add\n      0x00\n      keccak256\n        /* \"Smart Contracts/15_SubscriptionPaymentSystem.sol\":2520:2567  Subscription storage sub = subscriptions[_user] */\n      swap1\n      pop\n        /* \"Smart Contracts/15_SubscriptionPaymentSystem.sol\":2586:2589  sub */\n      dup1\n        /* \"Smart Contracts/15_SubscriptionPaymentSystem.sol\":2586:2596  sub.active */\n      0x03\n      add\n      0x00\n      swap1\n      sload\n      swap1\n      0x0100\n      exp\n      swap1\n      div\n      0xff\n      and\n        /* \"Smart Contracts/15_SubscriptionPaymentSystem.sol\":2578:2622  require(sub.active, \"Subscription inactive\") */\n      tag_117\n      jumpi\n      mload(0x40)\n      0x08c379a000000000000000000000000000000000000000000000000000000000\n      dup2\n      mstore\n      0x04\n      add\n      tag_118\n      swap1\n      tag_119\n      jump\t// in\n    tag_118:\n      mload(0x40)\n      dup1\n      swap2\n      sub\n      swap1\n      revert\n    tag_117:\n        /* \"Smart Contracts/15_SubscriptionPaymentSystem.sol\":2660:2663  sub */\n      dup1\n        /* \"Smart Contracts/15_SubscriptionPaymentSystem.sol\":2660:2675  sub.nextPayment */\n      0x02\n      add\n      sload\n        /* \"Smart Contracts/15_SubscriptionPaymentSystem.sol\":2641:2656  block.timestamp */\n      timestamp\n        /* \"Smart Contracts/15_SubscriptionPaymentSystem.sol\":2641:2675  block.timestamp >= sub.nextPayment */\n      lt\n      iszero\n        /* \"Smart Contracts/15_SubscriptionPaymentSystem.sol\":2633:2695  require(block.timestamp >= sub.nextPayment, \"Payment not due\") */\n      tag_120\n      jumpi\n      mload(0x40)\n      0x08c379a000000000000000000000000000000000000000000000000000000000\n      dup2\n      mstore\n      0x04\n      add\n      tag_121\n      swap1\n      tag_122\n      jump\t// in\n    tag_121:\n      mload(0x40)\n      dup1\n      swap2\n      sub\n      swap1\n      revert\n    tag_120:\n        /* \"Smart Contracts/15_SubscriptionPaymentSystem.sol\":2708:2724  Plan memory plan */\n      0x00\n        /* \"Smart Contracts/15_SubscriptionPaymentSystem.sol\":2727:2732  plans */\n      0x04\n        /* \"Smart Contracts/15_SubscriptionPaymentSystem.sol\":2727:2744  plans[sub.planId] */\n      0x00\n        /* \"Smart Contracts/15_SubscriptionPaymentSystem.sol\":2733:2736  sub */\n      dup4\n        /* \"Smart Contracts/15_SubscriptionPaymentSystem.sol\":2733:2743  sub.planId */\n      0x00\n      add\n      sload\n        /* \"Smart Contracts/15_SubscriptionPaymentSystem.sol\":2727:2744  plans[sub.planId] */\n      dup2\n      mstore\n      0x20\n      add\n      swap1\n      dup2\n      mstore\n      0x20\n      add\n      0x00\n      keccak256\n        /* \"Smart Contracts/15_SubscriptionPaymentSystem.sol\":2708:2744  Plan memory plan = plans[sub.planId] */\n      mload(0x40)\n      dup1\n      0x60\n      add\n      0x40\n      mstore\n      swap1\n      dup2\n      0x00\n      dup3\n      add\n      sload\n      dup2\n      mstore\n      0x20\n      add\n      0x01\n      dup3\n      add\n      sload\n      dup2\n      mstore\n      0x20\n      add\n      0x02\n      dup3\n      add\n      0x00\n      swap1\n      sload\n      swap1\n      0x0100\n      exp\n      swap1\n      div\n      0xff\n      and\n      iszero\n      iszero\n      iszero\n      iszero\n      dup2\n      mstore\n      pop\n      pop\n      swap1\n      pop\n        /* \"Smart Contracts/15_SubscriptionPaymentSystem.sol\":2763:2767  plan */\n      dup1\n        /* \"Smart Contracts/15_SubscriptionPaymentSystem.sol\":2763:2774  plan.active */\n      0x40\n      add\n      mload\n        /* \"Smart Contracts/15_SubscriptionPaymentSystem.sol\":2755:2792  require(plan.active, \"Plan inactive\") */\n      tag_123\n      jumpi\n      mload(0x40)\n      0x08c379a000000000000000000000000000000000000000000000000000000000\n      dup2\n      mstore\n      0x04\n      add\n      tag_124\n      swap1\n      tag_83\n      jump\t// in\n    tag_124:\n      mload(0x40)\n      dup1\n      swap2\n      sub\n      swap1\n      revert\n    tag_123:\n        /* \"Smart Contracts/15_SubscriptionPaymentSystem.sol\":2827:2839  paymentToken */\n      0x02\n      0x00\n      swap1\n      sload\n      swap1\n      0x0100\n      exp\n      swap1\n      div\n      0xffffffffffffffffffffffffffffffffffffffff\n      and\n        /* \"Smart Contracts/15_SubscriptionPaymentSystem.sol\":2827:2852  paymentToken.transferFrom */\n      0xffffffffffffffffffffffffffffffffffffffff\n      and\n      0x23b872dd\n        /* \"Smart Contracts/15_SubscriptionPaymentSystem.sol\":2853:2858  _user */\n      dup5\n        /* \"Smart Contracts/15_SubscriptionPaymentSystem.sol\":2860:2867  owner() */\n      tag_125\n        /* \"Smart Contracts/15_SubscriptionPaymentSystem.sol\":2860:2865  owner */\n      tag_46\n        /* \"Smart Contracts/15_SubscriptionPaymentSystem.sol\":2860:2867  owner() */\n      jump\t// in\n    tag_125:\n        /* \"Smart Contracts/15_SubscriptionPaymentSystem.sol\":2869:2873  plan */\n      dup5\n        /* \"Smart Contracts/15_SubscriptionPaymentSystem.sol\":2869:2879  plan.price */\n      0x00\n      add\n      mload\n        /* \"Smart Contracts/15_SubscriptionPaymentSystem.sol\":2827:2880  paymentToken.transferFrom(_user, owner(), plan.price) */\n      mload(0x40)\n      dup5\n      0xffffffff\n      and\n      0xe0\n      shl\n      dup2\n      mstore\n      0x04\n      add\n      tag_126\n      swap4\n      swap3\n      swap2\n      swap1\n      tag_86\n      jump\t// in\n    tag_126:\n      0x20\n      mload(0x40)\n      dup1\n      dup4\n      sub\n      dup2\n      0x00\n      dup8\n      gas\n      call\n      iszero\n      dup1\n      iszero\n      tag_128\n      jumpi\n      returndatacopy(0x00, 0x00, returndatasize)\n      revert(0x00, returndatasize)\n    tag_128:\n      pop\n      pop\n      pop\n      pop\n      mload(0x40)\n      returndatasize\n      not(0x1f)\n      0x1f\n      dup3\n      add\n      and\n      dup3\n      add\n      dup1\n      0x40\n      mstore\n      pop\n      dup2\n      add\n      swap1\n      tag_129\n      swap2\n      swap1\n      tag_90\n      jump\t// in\n    tag_129:\n        /* \"Smart Contracts/15_SubscriptionPaymentSystem.sol\":2805:2922  require(... */\n      tag_130\n      jumpi\n      mload(0x40)\n      0x08c379a000000000000000000000000000000000000000000000000000000000\n      dup2\n      mstore\n      0x04\n      add\n      tag_131\n      swap1\n      tag_132\n      jump\t// in\n    tag_131:\n      mload(0x40)\n      dup1\n      swap2\n      sub\n      swap1\n      revert\n    tag_130:\n        /* \"Smart Contracts/15_SubscriptionPaymentSystem.sol\":2954:2958  plan */\n      dup1\n        /* \"Smart Contracts/15_SubscriptionPaymentSystem.sol\":2954:2967  plan.duration */\n      0x20\n      add\n      mload\n        /* \"Smart Contracts/15_SubscriptionPaymentSystem.sol\":2935:2938  sub */\n      dup3\n        /* \"Smart Contracts/15_SubscriptionPaymentSystem.sol\":2935:2950  sub.nextPayment */\n      0x02\n      add\n      0x00\n        /* \"Smart Contracts/15_SubscriptionPaymentSystem.sol\":2935:2967  sub.nextPayment += plan.duration */\n      dup3\n      dup3\n      sload\n      tag_133\n      swap2\n      swap1\n      tag_95\n      jump\t// in\n    tag_133:\n      swap3\n      pop\n      pop\n      dup2\n      swap1\n      sstore\n      pop\n        /* \"Smart Contracts/15_SubscriptionPaymentSystem.sol\":3002:3007  _user */\n      dup3\n        /* \"Smart Contracts/15_SubscriptionPaymentSystem.sol\":2985:3020  PaymentProcessed(_user, plan.price) */\n      0xffffffffffffffffffffffffffffffffffffffff\n      and\n      0xa5957fefb5b0f981554450d4d8dde003083cd202e3d5a2992e09c88ad1f0d791\n        /* \"Smart Contracts/15_SubscriptionPaymentSystem.sol\":3009:3013  plan */\n      dup3\n        /* \"Smart Contracts/15_SubscriptionPaymentSystem.sol\":3009:3019  plan.price */\n      0x00\n      add\n      mload\n        /* \"Smart Contracts/15_SubscriptionPaymentSystem.sol\":2985:3020  PaymentProcessed(_user, plan.price) */\n      mload(0x40)\n      tag_134\n      swap2\n      swap1\n      tag_39\n      jump\t// in\n    tag_134:\n      mload(0x40)\n      dup1\n      swap2\n      sub\n      swap1\n      log2\n        /* \"Smart Contracts/15_SubscriptionPaymentSystem.sol\":2509:3028  {... */\n      pop\n      pop\n        /* \"@openzeppelin/contracts/security/ReentrancyGuard.sol\":2303:2323  _nonReentrantAfter() */\n      tag_135\n        /* \"@openzeppelin/contracts/security/ReentrancyGuard.sol\":2303:2321  _nonReentrantAfter */\n      tag_97\n        /* \"@openzeppelin/contracts/security/ReentrancyGuard.sol\":2303:2323  _nonReentrantAfter() */\n      jump\t// in\n    tag_135:\n        /* \"Smart Contracts/15_SubscriptionPaymentSystem.sol\":2450:3028  function processPayment(address _user) public nonReentrant {... */\n      pop\n      jump\t// out\n        /* \"Smart Contracts/15_SubscriptionPaymentSystem.sol\":3292:3515  function isPaymentDue(address _user) external view returns (bool) {... */\n    tag_54:\n        /* \"Smart Contracts/15_SubscriptionPaymentSystem.sol\":3352:3356  bool */\n      0x00\n        /* \"Smart Contracts/15_SubscriptionPaymentSystem.sol\":3369:3392  Subscription memory sub */\n      0x00\n        /* \"Smart Contracts/15_SubscriptionPaymentSystem.sol\":3395:3408  subscriptions */\n      0x05\n        /* \"Smart Contracts/15_SubscriptionPaymentSystem.sol\":3395:3415  subscriptions[_user] */\n      0x00\n        /* \"Smart Contracts/15_SubscriptionPaymentSystem.sol\":3409:3414  _user */\n      dup5\n        /* \"Smart Contracts/15_SubscriptionPaymentSystem.sol\":3395:3415  subscriptions[_user] */\n      0xffffffffffffffffffffffffffffffffffffffff\n      and\n      0xffffffffffffffffffffffffffffffffffffffff\n      and\n      dup2\n      mstore\n      0x20\n      add\n      swap1\n      dup2\n      mstore\n      0x20\n      add\n      0x00\n      keccak256\n        /* \"Smart Contracts/15_SubscriptionPaymentSystem.sol\":3369:3415  Subscription memory sub = subscriptions[_user] */\n      mload(0x40)\n      dup1\n      0x80\n      add\n      0x40\n      mstore\n      swap1\n      dup2\n      0x00\n      dup3\n      add\n      sload\n      dup2\n      mstore\n      0x20\n      add\n      0x01\n      dup3\n      add\n      sload\n      dup2\n      mstore\n      0x20\n      add\n      0x02\n      dup3\n      add\n      sload\n      dup2\n      mstore\n      0x20\n      add\n      0x03\n      dup3\n      add\n      0x00\n      swap1\n      sload\n      swap1\n      0x0100\n      exp\n      swap1\n      div\n      0xff\n      and\n      iszero\n      iszero\n      iszero\n      iszero\n      dup2\n      mstore\n      pop\n      pop\n      swap1\n      pop\n        /* \"Smart Contracts/15_SubscriptionPaymentSystem.sol\":3431:3434  sub */\n      dup1\n        /* \"Smart Contracts/15_SubscriptionPaymentSystem.sol\":3431:3441  sub.active */\n      0x60\n      add\n      mload\n        /* \"Smart Contracts/15_SubscriptionPaymentSystem.sol\":3426:3455  if (!sub.active) return false */\n      tag_137\n      jumpi\n        /* \"Smart Contracts/15_SubscriptionPaymentSystem.sol\":3450:3455  false */\n      0x00\n        /* \"Smart Contracts/15_SubscriptionPaymentSystem.sol\":3443:3455  return false */\n      swap2\n      pop\n      pop\n      jump(tag_136)\n        /* \"Smart Contracts/15_SubscriptionPaymentSystem.sol\":3426:3455  if (!sub.active) return false */\n    tag_137:\n        /* \"Smart Contracts/15_SubscriptionPaymentSystem.sol\":3492:3495  sub */\n      dup1\n        /* \"Smart Contracts/15_SubscriptionPaymentSystem.sol\":3492:3507  sub.nextPayment */\n      0x40\n      add\n      mload\n        /* \"Smart Contracts/15_SubscriptionPaymentSystem.sol\":3473:3488  block.timestamp */\n      timestamp\n        /* \"Smart Contracts/15_SubscriptionPaymentSystem.sol\":3473:3507  block.timestamp >= sub.nextPayment */\n      lt\n      iszero\n        /* \"Smart Contracts/15_SubscriptionPaymentSystem.sol\":3466:3507  return block.timestamp >= sub.nextPayment */\n      swap2\n      pop\n      pop\n        /* \"Smart Contracts/15_SubscriptionPaymentSystem.sol\":3292:3515  function isPaymentDue(address _user) external view returns (bool) {... */\n    tag_136:\n      swap2\n      swap1\n      pop\n      jump\t// out\n        /* \"Smart Contracts/15_SubscriptionPaymentSystem.sol\":626:663  mapping(uint256 => Plan) public plans */\n    tag_59:\n      mstore(0x20, 0x04)\n      dup1\n      0x00\n      mstore\n      keccak256(0x00, 0x40)\n      0x00\n      swap2\n      pop\n      swap1\n      pop\n      dup1\n      0x00\n      add\n      sload\n      swap1\n      dup1\n      0x01\n      add\n      sload\n      swap1\n      dup1\n      0x02\n      add\n      0x00\n      swap1\n      sload\n      swap1\n      0x0100\n      exp\n      swap1\n      div\n      0xff\n      and\n      swap1\n      pop\n      dup4\n      jump\t// out\n        /* \"Smart Contracts/15_SubscriptionPaymentSystem.sol\":1197:1631  function createPlan(... */\n    tag_65:\n        /* \"@openzeppelin/contracts/access/Ownable.sol\":1531:1544  _checkOwner() */\n      tag_139\n        /* \"@openzeppelin/contracts/access/Ownable.sol\":1531:1542  _checkOwner */\n      tag_104\n        /* \"@openzeppelin/contracts/access/Ownable.sol\":1531:1544  _checkOwner() */\n      jump\t// in\n    tag_139:\n        /* \"Smart Contracts/15_SubscriptionPaymentSystem.sol\":1324:1325  0 */\n      0x00\n        /* \"Smart Contracts/15_SubscriptionPaymentSystem.sol\":1315:1321  _price */\n      dup3\n        /* \"Smart Contracts/15_SubscriptionPaymentSystem.sol\":1315:1325  _price > 0 */\n      gt\n        /* \"Smart Contracts/15_SubscriptionPaymentSystem.sol\":1307:1347  require(_price > 0, \"Price must be > 0\") */\n      tag_141\n      jumpi\n      mload(0x40)\n      0x08c379a000000000000000000000000000000000000000000000000000000000\n      dup2\n      mstore\n      0x04\n      add\n      tag_142\n      swap1\n      tag_143\n      jump\t// in\n    tag_142:\n      mload(0x40)\n      dup1\n      swap2\n      sub\n      swap1\n      revert\n    tag_141:\n        /* \"Smart Contracts/15_SubscriptionPaymentSystem.sol\":1378:1379  0 */\n      0x00\n        /* \"Smart Contracts/15_SubscriptionPaymentSystem.sol\":1366:1375  _duration */\n      dup2\n        /* \"Smart Contracts/15_SubscriptionPaymentSystem.sol\":1366:1379  _duration > 0 */\n      gt\n        /* \"Smart Contracts/15_SubscriptionPaymentSystem.sol\":1358:1404  require(_duration > 0, \"Duration must be > 0\") */\n      tag_144\n      jumpi\n      mload(0x40)\n      0x08c379a000000000000000000000000000000000000000000000000000000000\n      dup2\n      mstore\n      0x04\n      add\n      tag_145\n      swap1\n      tag_146\n      jump\t// in\n    tag_145:\n      mload(0x40)\n      dup1\n      swap2\n      sub\n      swap1\n      revert\n    tag_144:\n        /* \"Smart Contracts/15_SubscriptionPaymentSystem.sol\":1436:1542  Plan({... */\n      mload(0x40)\n      dup1\n      0x60\n      add\n      0x40\n      mstore\n      dup1\n        /* \"Smart Contracts/15_SubscriptionPaymentSystem.sol\":1463:1469  _price */\n      dup4\n        /* \"Smart Contracts/15_SubscriptionPaymentSystem.sol\":1436:1542  Plan({... */\n      dup2\n      mstore\n      0x20\n      add\n        /* \"Smart Contracts/15_SubscriptionPaymentSystem.sol\":1494:1503  _duration */\n      dup3\n        /* \"Smart Contracts/15_SubscriptionPaymentSystem.sol\":1436:1542  Plan({... */\n      dup2\n      mstore\n      0x20\n      add\n        /* \"Smart Contracts/15_SubscriptionPaymentSystem.sol\":1526:1530  true */\n      0x01\n        /* \"Smart Contracts/15_SubscriptionPaymentSystem.sol\":1436:1542  Plan({... */\n      iszero\n      iszero\n      dup2\n      mstore\n      pop\n        /* \"Smart Contracts/15_SubscriptionPaymentSystem.sol\":1417:1422  plans */\n      0x04\n        /* \"Smart Contracts/15_SubscriptionPaymentSystem.sol\":1417:1433  plans[planCount] */\n      0x00\n        /* \"Smart Contracts/15_SubscriptionPaymentSystem.sol\":1423:1432  planCount */\n      sload(0x03)\n        /* \"Smart Contracts/15_SubscriptionPaymentSystem.sol\":1417:1433  plans[planCount] */\n      dup2\n      mstore\n      0x20\n      add\n      swap1\n      dup2\n      mstore\n      0x20\n      add\n      0x00\n      keccak256\n        /* \"Smart Contracts/15_SubscriptionPaymentSystem.sol\":1417:1542  plans[planCount] = Plan({... */\n      0x00\n      dup3\n      add\n      mload\n      dup2\n      0x00\n      add\n      sstore\n      0x20\n      dup3\n      add\n      mload\n      dup2\n      0x01\n      add\n      sstore\n      0x40\n      dup3\n      add\n      mload\n      dup2\n      0x02\n      add\n      exp(0x0100, 0x00)\n      dup2\n      sload\n      dup2\n      0xff\n      mul\n      not\n      and\n      swap1\n      dup4\n      iszero\n      iszero\n      mul\n      or\n      swap1\n      sstore\n      pop\n      swap1\n      pop\n      pop\n        /* \"Smart Contracts/15_SubscriptionPaymentSystem.sol\":1572:1581  planCount */\n      sload(0x03)\n        /* \"Smart Contracts/15_SubscriptionPaymentSystem.sol\":1560:1601  PlanCreated(planCount, _price, _duration) */\n      0x3c23b7bbdb7ee0acd2bf877ca1c70aa85ad90f581c13076913998f20b6e1e9b9\n        /* \"Smart Contracts/15_SubscriptionPaymentSystem.sol\":1583:1589  _price */\n      dup4\n        /* \"Smart Contracts/15_SubscriptionPaymentSystem.sol\":1591:1600  _duration */\n      dup4\n        /* \"Smart Contracts/15_SubscriptionPaymentSystem.sol\":1560:1601  PlanCreated(planCount, _price, _duration) */\n      mload(0x40)\n      tag_147\n      swap3\n      swap2\n      swap1\n      tag_148\n      jump\t// in\n    tag_147:\n      mload(0x40)\n      dup1\n      swap2\n      sub\n      swap1\n      log2\n        /* \"Smart Contracts/15_SubscriptionPaymentSystem.sol\":1612:1621  planCount */\n      0x03\n      0x00\n        /* \"Smart Contracts/15_SubscriptionPaymentSystem.sol\":1612:1623  planCount++ */\n      dup2\n      sload\n      dup1\n      swap3\n      swap2\n      swap1\n      tag_149\n      swap1\n      tag_150\n      jump\t// in\n    tag_149:\n      swap2\n      swap1\n      pop\n      sstore\n      pop\n        /* \"Smart Contracts/15_SubscriptionPaymentSystem.sol\":1197:1631  function createPlan(... */\n      pop\n      pop\n      jump\t// out\n        /* \"Smart Contracts/15_SubscriptionPaymentSystem.sol\":670:723  mapping(address => Subscription) public subscriptions */\n    tag_68:\n      mstore(0x20, 0x05)\n      dup1\n      0x00\n      mstore\n      keccak256(0x00, 0x40)\n      0x00\n      swap2\n      pop\n      swap1\n      pop\n      dup1\n      0x00\n      add\n      sload\n      swap1\n      dup1\n      0x01\n      add\n      sload\n      swap1\n      dup1\n      0x02\n      add\n      sload\n      swap1\n      dup1\n      0x03\n      add\n      0x00\n      swap1\n      sload\n      swap1\n      0x0100\n      exp\n      swap1\n      div\n      0xff\n      and\n      swap1\n      pop\n      dup5\n      jump\t// out\n        /* \"@openzeppelin/contracts/access/Ownable.sol\":2543:2758  function transferOwnership(address newOwner) public virtual onlyOwner {... */\n    tag_72:\n        /* \"@openzeppelin/contracts/access/Ownable.sol\":1531:1544  _checkOwner() */\n      tag_152\n        /* \"@openzeppelin/contracts/access/Ownable.sol\":1531:1542  _checkOwner */\n      tag_104\n        /* \"@openzeppelin/contracts/access/Ownable.sol\":1531:1544  _checkOwner() */\n      jump\t// in\n    tag_152:\n        /* \"@openzeppelin/contracts/access/Ownable.sol\":2647:2648  0 */\n      0x00\n        /* \"@openzeppelin/contracts/access/Ownable.sol\":2627:2649  newOwner == address(0) */\n      0xffffffffffffffffffffffffffffffffffffffff\n      and\n        /* \"@openzeppelin/contracts/access/Ownable.sol\":2627:2635  newOwner */\n      dup2\n        /* \"@openzeppelin/contracts/access/Ownable.sol\":2627:2649  newOwner == address(0) */\n      0xffffffffffffffffffffffffffffffffffffffff\n      and\n      sub\n        /* \"@openzeppelin/contracts/access/Ownable.sol\":2623:2714  if (newOwner == address(0)) {... */\n      tag_154\n      jumpi\n        /* \"@openzeppelin/contracts/access/Ownable.sol\":2700:2701  0 */\n      0x00\n        /* \"@openzeppelin/contracts/access/Ownable.sol\":2672:2703  OwnableInvalidOwner(address(0)) */\n      mload(0x40)\n      0x1e4fbdf700000000000000000000000000000000000000000000000000000000\n      dup2\n      mstore\n      0x04\n      add\n      tag_155\n      swap2\n      swap1\n      tag_48\n      jump\t// in\n    tag_155:\n      mload(0x40)\n      dup1\n      swap2\n      sub\n      swap1\n      revert\n        /* \"@openzeppelin/contracts/access/Ownable.sol\":2623:2714  if (newOwner == address(0)) {... */\n    tag_154:\n        /* \"@openzeppelin/contracts/access/Ownable.sol\":2723:2751  _transferOwnership(newOwner) */\n      tag_156\n        /* \"@openzeppelin/contracts/access/Ownable.sol\":2742:2750  newOwner */\n      dup2\n        /* \"@openzeppelin/contracts/access/Ownable.sol\":2723:2741  _transferOwnership */\n      tag_112\n        /* \"@openzeppelin/contracts/access/Ownable.sol\":2723:2751  _transferOwnership(newOwner) */\n      jump\t// in\n    tag_156:\n        /* \"@openzeppelin/contracts/access/Ownable.sol\":2543:2758  function transferOwnership(address newOwner) public virtual onlyOwner {... */\n      pop\n      jump\t// out\n        /* \"@openzeppelin/contracts/security/ReentrancyGuard.sol\":2336:2623  function _nonReentrantBefore() private {... */\n    tag_76:\n        /* \"@openzeppelin/contracts/security/ReentrancyGuard.sol\":1759:1760  2 */\n      0x02\n        /* \"@openzeppelin/contracts/security/ReentrancyGuard.sol\":2468:2475  _status */\n      sload(0x00)\n        /* \"@openzeppelin/contracts/security/ReentrancyGuard.sol\":2468:2487  _status != _ENTERED */\n      sub\n        /* \"@openzeppelin/contracts/security/ReentrancyGuard.sol\":2460:2523  require(_status != _ENTERED, \"ReentrancyGuard: reentrant call\") */\n      tag_158\n      jumpi\n      mload(0x40)\n      0x08c379a000000000000000000000000000000000000000000000000000000000\n      dup2\n      mstore\n      0x04\n      add\n      tag_159\n      swap1\n      tag_160\n      jump\t// in\n    tag_159:\n      mload(0x40)\n      dup1\n      swap2\n      sub\n      swap1\n      revert\n    tag_158:\n        /* \"@openzeppelin/contracts/security/ReentrancyGuard.sol\":1759:1760  2 */\n      0x02\n        /* \"@openzeppelin/contracts/security/ReentrancyGuard.sol\":2598:2605  _status */\n      0x00\n        /* \"@openzeppelin/contracts/security/ReentrancyGuard.sol\":2598:2616  _status = _ENTERED */\n      dup2\n      swap1\n      sstore\n      pop\n        /* \"@openzeppelin/contracts/security/ReentrancyGuard.sol\":2336:2623  function _nonReentrantBefore() private {... */\n      jump\t// out\n        /* \"@openzeppelin/contracts/security/ReentrancyGuard.sol\":2629:2838  function _nonReentrantAfter() private {... */\n    tag_97:\n        /* \"@openzeppelin/contracts/security/ReentrancyGuard.sol\":1716:1717  1 */\n      0x01\n        /* \"@openzeppelin/contracts/security/ReentrancyGuard.sol\":2809:2816  _status */\n      0x00\n        /* \"@openzeppelin/contracts/security/ReentrancyGuard.sol\":2809:2831  _status = _NOT_ENTERED */\n      dup2\n      swap1\n      sstore\n      pop\n        /* \"@openzeppelin/contracts/security/ReentrancyGuard.sol\":2629:2838  function _nonReentrantAfter() private {... */\n      jump\t// out\n        /* \"@openzeppelin/contracts/access/Ownable.sol\":1796:1958  function _checkOwner() internal view virtual {... */\n    tag_104:\n        /* \"@openzeppelin/contracts/access/Ownable.sol\":1866:1878  _msgSender() */\n      tag_163\n        /* \"@openzeppelin/contracts/access/Ownable.sol\":1866:1876  _msgSender */\n      tag_164\n        /* \"@openzeppelin/contracts/access/Ownable.sol\":1866:1878  _msgSender() */\n      jump\t// in\n    tag_163:\n        /* \"@openzeppelin/contracts/access/Ownable.sol\":1855:1878  owner() != _msgSender() */\n      0xffffffffffffffffffffffffffffffffffffffff\n      and\n        /* \"@openzeppelin/contracts/access/Ownable.sol\":1855:1862  owner() */\n      tag_165\n        /* \"@openzeppelin/contracts/access/Ownable.sol\":1855:1860  owner */\n      tag_46\n        /* \"@openzeppelin/contracts/access/Ownable.sol\":1855:1862  owner() */\n      jump\t// in\n    tag_165:\n        /* \"@openzeppelin/contracts/access/Ownable.sol\":1855:1878  owner() != _msgSender() */\n      0xffffffffffffffffffffffffffffffffffffffff\n      and\n      eq\n        /* \"@openzeppelin/contracts/access/Ownable.sol\":1851:1952  if (owner() != _msgSender()) {... */\n      tag_166\n      jumpi\n        /* \"@openzeppelin/contracts/access/Ownable.sol\":1928:1940  _msgSender() */\n      tag_167\n        /* \"@openzeppelin/contracts/access/Ownable.sol\":1928:1938  _msgSender */\n      tag_164\n        /* \"@openzeppelin/contracts/access/Ownable.sol\":1928:1940  _msgSender() */\n      jump\t// in\n    tag_167:\n        /* \"@openzeppelin/contracts/access/Ownable.sol\":1901:1941  OwnableUnauthorizedAccount(_msgSender()) */\n      mload(0x40)\n      0x118cdaa700000000000000000000000000000000000000000000000000000000\n      dup2\n      mstore\n      0x04\n      add\n      tag_168\n      swap2\n      swap1\n      tag_48\n      jump\t// in\n    tag_168:\n      mload(0x40)\n      dup1\n      swap2\n      sub\n      swap1\n      revert\n        /* \"@openzeppelin/contracts/access/Ownable.sol\":1851:1952  if (owner() != _msgSender()) {... */\n    tag_166:\n        /* \"@openzeppelin/contracts/access/Ownable.sol\":1796:1958  function _checkOwner() internal view virtual {... */\n      jump\t// out\n        /* \"@openzeppelin/contracts/access/Ownable.sol\":2912:3099  function _transferOwnership(address newOwner) internal virtual {... */\n    tag_112:\n        /* \"@openzeppelin/contracts/access/Ownable.sol\":2985:3001  address oldOwner */\n      0x00\n        /* \"@openzeppelin/contracts/access/Ownable.sol\":3004:3010  _owner */\n      0x01\n      0x00\n      swap1\n      sload\n      swap1\n      0x0100\n      exp\n      swap1\n      div\n      0xffffffffffffffffffffffffffffffffffffffff\n      and\n        /* \"@openzeppelin/contracts/access/Ownable.sol\":2985:3010  address oldOwner = _owner */\n      swap1\n      pop\n        /* \"@openzeppelin/contracts/access/Ownable.sol\":3029:3037  newOwner */\n      dup2\n        /* \"@openzeppelin/contracts/access/Ownable.sol\":3020:3026  _owner */\n      0x01\n      0x00\n        /* \"@openzeppelin/contracts/access/Ownable.sol\":3020:3037  _owner = newOwner */\n      0x0100\n      exp\n      dup2\n      sload\n      dup2\n      0xffffffffffffffffffffffffffffffffffffffff\n      mul\n      not\n      and\n      swap1\n      dup4\n      0xffffffffffffffffffffffffffffffffffffffff\n      and\n      mul\n      or\n      swap1\n      sstore\n      pop\n        /* \"@openzeppelin/contracts/access/Ownable.sol\":3083:3091  newOwner */\n      dup2\n        /* \"@openzeppelin/contracts/access/Ownable.sol\":3052:3092  OwnershipTransferred(oldOwner, newOwner) */\n      0xffffffffffffffffffffffffffffffffffffffff\n      and\n        /* \"@openzeppelin/contracts/access/Ownable.sol\":3073:3081  oldOwner */\n      dup2\n        /* \"@openzeppelin/contracts/access/Ownable.sol\":3052:3092  OwnershipTransferred(oldOwner, newOwner) */\n      0xffffffffffffffffffffffffffffffffffffffff\n      and\n      0x8be0079c531659141344cd1fd0a4f28419497f9722a3daafe3b4186f6b6457e0\n      mload(0x40)\n      mload(0x40)\n      dup1\n      swap2\n      sub\n      swap1\n      log3\n        /* \"@openzeppelin/contracts/access/Ownable.sol\":2975:3099  {... */\n      pop\n        /* \"@openzeppelin/contracts/access/Ownable.sol\":2912:3099  function _transferOwnership(address newOwner) internal virtual {... */\n      pop\n      jump\t// out\n        /* \"@openzeppelin/contracts/utils/Context.sol\":656:752  function _msgSender() internal view virtual returns (address) {... */\n    tag_164:\n        /* \"@openzeppelin/contracts/utils/Context.sol\":709:716  address */\n      0x00\n        /* \"@openzeppelin/contracts/utils/Context.sol\":735:745  msg.sender */\n      caller\n        /* \"@openzeppelin/contracts/utils/Context.sol\":728:745  return msg.sender */\n      swap1\n      pop\n        /* \"@openzeppelin/contracts/utils/Context.sol\":656:752  function _msgSender() internal view virtual returns (address) {... */\n      swap1\n      jump\t// out\n        /* \"#utility.yul\":88:205   */\n    tag_172:\n        /* \"#utility.yul\":197:198   */\n      0x00\n        /* \"#utility.yul\":194:195   */\n      0x00\n        /* \"#utility.yul\":187:199   */\n      revert\n        /* \"#utility.yul\":334:460   */\n    tag_174:\n        /* \"#utility.yul\":371:378   */\n      0x00\n        /* \"#utility.yul\":411:453   */\n      0xffffffffffffffffffffffffffffffffffffffff\n        /* \"#utility.yul\":404:409   */\n      dup3\n        /* \"#utility.yul\":400:454   */\n      and\n        /* \"#utility.yul\":389:454   */\n      swap1\n      pop\n        /* \"#utility.yul\":334:460   */\n      swap2\n      swap1\n      pop\n      jump\t// out\n        /* \"#utility.yul\":466:562   */\n    tag_175:\n        /* \"#utility.yul\":503:510   */\n      0x00\n        /* \"#utility.yul\":532:556   */\n      tag_220\n        /* \"#utility.yul\":550:555   */\n      dup3\n        /* \"#utility.yul\":532:556   */\n      tag_174\n      jump\t// in\n    tag_220:\n        /* \"#utility.yul\":521:556   */\n      swap1\n      pop\n        /* \"#utility.yul\":466:562   */\n      swap2\n      swap1\n      pop\n      jump\t// out\n        /* \"#utility.yul\":568:690   */\n    tag_176:\n        /* \"#utility.yul\":641:665   */\n      tag_222\n        /* \"#utility.yul\":659:664   */\n      dup2\n        /* \"#utility.yul\":641:665   */\n      tag_175\n      jump\t// in\n    tag_222:\n        /* \"#utility.yul\":634:639   */\n      dup2\n        /* \"#utility.yul\":631:666   */\n      eq\n        /* \"#utility.yul\":621:684   */\n      tag_223\n      jumpi\n        /* \"#utility.yul\":680:681   */\n      0x00\n        /* \"#utility.yul\":677:678   */\n      0x00\n        /* \"#utility.yul\":670:682   */\n      revert\n        /* \"#utility.yul\":621:684   */\n    tag_223:\n        /* \"#utility.yul\":568:690   */\n      pop\n      jump\t// out\n        /* \"#utility.yul\":696:835   */\n    tag_177:\n        /* \"#utility.yul\":742:747   */\n      0x00\n        /* \"#utility.yul\":780:786   */\n      dup2\n        /* \"#utility.yul\":767:787   */\n      calldataload\n        /* \"#utility.yul\":758:787   */\n      swap1\n      pop\n        /* \"#utility.yul\":796:829   */\n      tag_225\n        /* \"#utility.yul\":823:828   */\n      dup2\n        /* \"#utility.yul\":796:829   */\n      tag_176\n      jump\t// in\n    tag_225:\n        /* \"#utility.yul\":696:835   */\n      swap3\n      swap2\n      pop\n      pop\n      jump\t// out\n        /* \"#utility.yul\":841:1170   */\n    tag_22:\n        /* \"#utility.yul\":900:906   */\n      0x00\n        /* \"#utility.yul\":949:951   */\n      0x20\n        /* \"#utility.yul\":937:946   */\n      dup3\n        /* \"#utility.yul\":928:935   */\n      dup5\n        /* \"#utility.yul\":924:947   */\n      sub\n        /* \"#utility.yul\":920:952   */\n      slt\n        /* \"#utility.yul\":917:1036   */\n      iszero\n      tag_227\n      jumpi\n        /* \"#utility.yul\":955:1034   */\n      tag_228\n      tag_172\n      jump\t// in\n    tag_228:\n        /* \"#utility.yul\":917:1036   */\n    tag_227:\n        /* \"#utility.yul\":1075:1076   */\n      0x00\n        /* \"#utility.yul\":1100:1153   */\n      tag_229\n        /* \"#utility.yul\":1145:1152   */\n      dup5\n        /* \"#utility.yul\":1136:1142   */\n      dup3\n        /* \"#utility.yul\":1125:1134   */\n      dup6\n        /* \"#utility.yul\":1121:1143   */\n      add\n        /* \"#utility.yul\":1100:1153   */\n      tag_177\n      jump\t// in\n    tag_229:\n        /* \"#utility.yul\":1090:1153   */\n      swap2\n      pop\n        /* \"#utility.yul\":1046:1163   */\n      pop\n        /* \"#utility.yul\":841:1170   */\n      swap3\n      swap2\n      pop\n      pop\n      jump\t// out\n        /* \"#utility.yul\":1176:1253   */\n    tag_178:\n        /* \"#utility.yul\":1213:1220   */\n      0x00\n        /* \"#utility.yul\":1242:1247   */\n      dup2\n        /* \"#utility.yul\":1231:1247   */\n      swap1\n      pop\n        /* \"#utility.yul\":1176:1253   */\n      swap2\n      swap1\n      pop\n      jump\t// out\n        /* \"#utility.yul\":1259:1377   */\n    tag_179:\n        /* \"#utility.yul\":1346:1370   */\n      tag_232\n        /* \"#utility.yul\":1364:1369   */\n      dup2\n        /* \"#utility.yul\":1346:1370   */\n      tag_178\n      jump\t// in\n    tag_232:\n        /* \"#utility.yul\":1341:1344   */\n      dup3\n        /* \"#utility.yul\":1334:1371   */\n      mstore\n        /* \"#utility.yul\":1259:1377   */\n      pop\n      pop\n      jump\t// out\n        /* \"#utility.yul\":1383:1473   */\n    tag_180:\n        /* \"#utility.yul\":1417:1424   */\n      0x00\n        /* \"#utility.yul\":1460:1465   */\n      dup2\n        /* \"#utility.yul\":1453:1466   */\n      iszero\n        /* \"#utility.yul\":1446:1467   */\n      iszero\n        /* \"#utility.yul\":1435:1467   */\n      swap1\n      pop\n        /* \"#utility.yul\":1383:1473   */\n      swap2\n      swap1\n      pop\n      jump\t// out\n        /* \"#utility.yul\":1479:1588   */\n    tag_181:\n        /* \"#utility.yul\":1560:1581   */\n      tag_235\n        /* \"#utility.yul\":1575:1580   */\n      dup2\n        /* \"#utility.yul\":1560:1581   */\n      tag_180\n      jump\t// in\n    tag_235:\n        /* \"#utility.yul\":1555:1558   */\n      dup3\n        /* \"#utility.yul\":1548:1582   */\n      mstore\n        /* \"#utility.yul\":1479:1588   */\n      pop\n      pop\n      jump\t// out\n        /* \"#utility.yul\":1594:2135   */\n    tag_25:\n        /* \"#utility.yul\":1765:1769   */\n      0x00\n        /* \"#utility.yul\":1803:1806   */\n      0x80\n        /* \"#utility.yul\":1792:1801   */\n      dup3\n        /* \"#utility.yul\":1788:1807   */\n      add\n        /* \"#utility.yul\":1780:1807   */\n      swap1\n      pop\n        /* \"#utility.yul\":1817:1888   */\n      tag_237\n        /* \"#utility.yul\":1885:1886   */\n      0x00\n        /* \"#utility.yul\":1874:1883   */\n      dup4\n        /* \"#utility.yul\":1870:1887   */\n      add\n        /* \"#utility.yul\":1861:1867   */\n      dup8\n        /* \"#utility.yul\":1817:1888   */\n      tag_179\n      jump\t// in\n    tag_237:\n        /* \"#utility.yul\":1898:1970   */\n      tag_238\n        /* \"#utility.yul\":1966:1968   */\n      0x20\n        /* \"#utility.yul\":1955:1964   */\n      dup4\n        /* \"#utility.yul\":1951:1969   */\n      add\n        /* \"#utility.yul\":1942:1948   */\n      dup7\n        /* \"#utility.yul\":1898:1970   */\n      tag_179\n      jump\t// in\n    tag_238:\n        /* \"#utility.yul\":1980:2052   */\n      tag_239\n        /* \"#utility.yul\":2048:2050   */\n      0x40\n        /* \"#utility.yul\":2037:2046   */\n      dup4\n        /* \"#utility.yul\":2033:2051   */\n      add\n        /* \"#utility.yul\":2024:2030   */\n      dup6\n        /* \"#utility.yul\":1980:2052   */\n      tag_179\n      jump\t// in\n    tag_239:\n        /* \"#utility.yul\":2062:2128   */\n      tag_240\n        /* \"#utility.yul\":2124:2126   */\n      0x60\n        /* \"#utility.yul\":2113:2122   */\n      dup4\n        /* \"#utility.yul\":2109:2127   */\n      add\n        /* \"#utility.yul\":2100:2106   */\n      dup5\n        /* \"#utility.yul\":2062:2128   */\n      tag_181\n      jump\t// in\n    tag_240:\n        /* \"#utility.yul\":1594:2135   */\n      swap6\n      swap5\n      pop\n      pop\n      pop\n      pop\n      pop\n      jump\t// out\n        /* \"#utility.yul\":2141:2263   */\n    tag_182:\n        /* \"#utility.yul\":2214:2238   */\n      tag_242\n        /* \"#utility.yul\":2232:2237   */\n      dup2\n        /* \"#utility.yul\":2214:2238   */\n      tag_178\n      jump\t// in\n    tag_242:\n        /* \"#utility.yul\":2207:2212   */\n      dup2\n        /* \"#utility.yul\":2204:2239   */\n      eq\n        /* \"#utility.yul\":2194:2257   */\n      tag_243\n      jumpi\n        /* \"#utility.yul\":2253:2254   */\n      0x00\n        /* \"#utility.yul\":2250:2251   */\n      0x00\n        /* \"#utility.yul\":2243:2255   */\n      revert\n        /* \"#utility.yul\":2194:2257   */\n    tag_243:\n        /* \"#utility.yul\":2141:2263   */\n      pop\n      jump\t// out\n        /* \"#utility.yul\":2269:2408   */\n    tag_183:\n        /* \"#utility.yul\":2315:2320   */\n      0x00\n        /* \"#utility.yul\":2353:2359   */\n      dup2\n        /* \"#utility.yul\":2340:2360   */\n      calldataload\n        /* \"#utility.yul\":2331:2360   */\n      swap1\n      pop\n        /* \"#utility.yul\":2369:2402   */\n      tag_245\n        /* \"#utility.yul\":2396:2401   */\n      dup2\n        /* \"#utility.yul\":2369:2402   */\n      tag_182\n      jump\t// in\n    tag_245:\n        /* \"#utility.yul\":2269:2408   */\n      swap3\n      swap2\n      pop\n      pop\n      jump\t// out\n        /* \"#utility.yul\":2414:2743   */\n    tag_28:\n        /* \"#utility.yul\":2473:2479   */\n      0x00\n        /* \"#utility.yul\":2522:2524   */\n      0x20\n        /* \"#utility.yul\":2510:2519   */\n      dup3\n        /* \"#utility.yul\":2501:2508   */\n      dup5\n        /* \"#utility.yul\":2497:2520   */\n      sub\n        /* \"#utility.yul\":2493:2525   */\n      slt\n        /* \"#utility.yul\":2490:2609   */\n      iszero\n      tag_247\n      jumpi\n        /* \"#utility.yul\":2528:2607   */\n      tag_248\n      tag_172\n      jump\t// in\n    tag_248:\n        /* \"#utility.yul\":2490:2609   */\n    tag_247:\n        /* \"#utility.yul\":2648:2649   */\n      0x00\n        /* \"#utility.yul\":2673:2726   */\n      tag_249\n        /* \"#utility.yul\":2718:2725   */\n      dup5\n        /* \"#utility.yul\":2709:2715   */\n      dup3\n        /* \"#utility.yul\":2698:2707   */\n      dup6\n        /* \"#utility.yul\":2694:2716   */\n      add\n        /* \"#utility.yul\":2673:2726   */\n      tag_183\n      jump\t// in\n    tag_249:\n        /* \"#utility.yul\":2663:2726   */\n      swap2\n      pop\n        /* \"#utility.yul\":2619:2736   */\n      pop\n        /* \"#utility.yul\":2414:2743   */\n      swap3\n      swap2\n      pop\n      pop\n      jump\t// out\n        /* \"#utility.yul\":2749:2809   */\n    tag_184:\n        /* \"#utility.yul\":2777:2780   */\n      0x00\n        /* \"#utility.yul\":2798:2803   */\n      dup2\n        /* \"#utility.yul\":2791:2803   */\n      swap1\n      pop\n        /* \"#utility.yul\":2749:2809   */\n      swap2\n      swap1\n      pop\n      jump\t// out\n        /* \"#utility.yul\":2815:2957   */\n    tag_185:\n        /* \"#utility.yul\":2865:2874   */\n      0x00\n        /* \"#utility.yul\":2898:2951   */\n      tag_252\n        /* \"#utility.yul\":2916:2950   */\n      tag_253\n        /* \"#utility.yul\":2925:2949   */\n      tag_254\n        /* \"#utility.yul\":2943:2948   */\n      dup5\n        /* \"#utility.yul\":2925:2949   */\n      tag_174\n      jump\t// in\n    tag_254:\n        /* \"#utility.yul\":2916:2950   */\n      tag_184\n      jump\t// in\n    tag_253:\n        /* \"#utility.yul\":2898:2951   */\n      tag_174\n      jump\t// in\n    tag_252:\n        /* \"#utility.yul\":2885:2951   */\n      swap1\n      pop\n        /* \"#utility.yul\":2815:2957   */\n      swap2\n      swap1\n      pop\n      jump\t// out\n        /* \"#utility.yul\":2963:3089   */\n    tag_186:\n        /* \"#utility.yul\":3013:3022   */\n      0x00\n        /* \"#utility.yul\":3046:3083   */\n      tag_256\n        /* \"#utility.yul\":3077:3082   */\n      dup3\n        /* \"#utility.yul\":3046:3083   */\n      tag_185\n      jump\t// in\n    tag_256:\n        /* \"#utility.yul\":3033:3083   */\n      swap1\n      pop\n        /* \"#utility.yul\":2963:3089   */\n      swap2\n      swap1\n      pop\n      jump\t// out\n        /* \"#utility.yul\":3095:3235   */\n    tag_187:\n        /* \"#utility.yul\":3159:3168   */\n      0x00\n        /* \"#utility.yul\":3192:3229   */\n      tag_258\n        /* \"#utility.yul\":3223:3228   */\n      dup3\n        /* \"#utility.yul\":3192:3229   */\n      tag_186\n      jump\t// in\n    tag_258:\n        /* \"#utility.yul\":3179:3229   */\n      swap1\n      pop\n        /* \"#utility.yul\":3095:3235   */\n      swap2\n      swap1\n      pop\n      jump\t// out\n        /* \"#utility.yul\":3241:3400   */\n    tag_188:\n        /* \"#utility.yul\":3342:3393   */\n      tag_260\n        /* \"#utility.yul\":3387:3392   */\n      dup2\n        /* \"#utility.yul\":3342:3393   */\n      tag_187\n      jump\t// in\n    tag_260:\n        /* \"#utility.yul\":3337:3340   */\n      dup3\n        /* \"#utility.yul\":3330:3394   */\n      mstore\n        /* \"#utility.yul\":3241:3400   */\n      pop\n      pop\n      jump\t// out\n        /* \"#utility.yul\":3406:3656   */\n    tag_35:\n        /* \"#utility.yul\":3513:3517   */\n      0x00\n        /* \"#utility.yul\":3551:3553   */\n      0x20\n        /* \"#utility.yul\":3540:3549   */\n      dup3\n        /* \"#utility.yul\":3536:3554   */\n      add\n        /* \"#utility.yul\":3528:3554   */\n      swap1\n      pop\n        /* \"#utility.yul\":3564:3649   */\n      tag_262\n        /* \"#utility.yul\":3646:3647   */\n      0x00\n        /* \"#utility.yul\":3635:3644   */\n      dup4\n        /* \"#utility.yul\":3631:3648   */\n      add\n        /* \"#utility.yul\":3622:3628   */\n      dup5\n        /* \"#utility.yul\":3564:3649   */\n      tag_188\n      jump\t// in\n    tag_262:\n        /* \"#utility.yul\":3406:3656   */\n      swap3\n      swap2\n      pop\n      pop\n      jump\t// out\n        /* \"#utility.yul\":3662:3884   */\n    tag_39:\n        /* \"#utility.yul\":3755:3759   */\n      0x00\n        /* \"#utility.yul\":3793:3795   */\n      0x20\n        /* \"#utility.yul\":3782:3791   */\n      dup3\n        /* \"#utility.yul\":3778:3796   */\n      add\n        /* \"#utility.yul\":3770:3796   */\n      swap1\n      pop\n        /* \"#utility.yul\":3806:3877   */\n      tag_264\n        /* \"#utility.yul\":3874:3875   */\n      0x00\n        /* \"#utility.yul\":3863:3872   */\n      dup4\n        /* \"#utility.yul\":3859:3876   */\n      add\n        /* \"#utility.yul\":3850:3856   */\n      dup5\n        /* \"#utility.yul\":3806:3877   */\n      tag_179\n      jump\t// in\n    tag_264:\n        /* \"#utility.yul\":3662:3884   */\n      swap3\n      swap2\n      pop\n      pop\n      jump\t// out\n        /* \"#utility.yul\":3890:4008   */\n    tag_189:\n        /* \"#utility.yul\":3977:4001   */\n      tag_266\n        /* \"#utility.yul\":3995:4000   */\n      dup2\n        /* \"#utility.yul\":3977:4001   */\n      tag_175\n      jump\t// in\n    tag_266:\n        /* \"#utility.yul\":3972:3975   */\n      dup3\n        /* \"#utility.yul\":3965:4002   */\n      mstore\n        /* \"#utility.yul\":3890:4008   */\n      pop\n      pop\n      jump\t// out\n        /* \"#utility.yul\":4014:4236   */\n    tag_48:\n        /* \"#utility.yul\":4107:4111   */\n      0x00\n        /* \"#utility.yul\":4145:4147   */\n      0x20\n        /* \"#utility.yul\":4134:4143   */\n      dup3\n        /* \"#utility.yul\":4130:4148   */\n      add\n        /* \"#utility.yul\":4122:4148   */\n      swap1\n      pop\n        /* \"#utility.yul\":4158:4229   */\n      tag_268\n        /* \"#utility.yul\":4226:4227   */\n      0x00\n        /* \"#utility.yul\":4215:4224   */\n      dup4\n        /* \"#utility.yul\":4211:4228   */\n      add\n        /* \"#utility.yul\":4202:4208   */\n      dup5\n        /* \"#utility.yul\":4158:4229   */\n      tag_189\n      jump\t// in\n    tag_268:\n        /* \"#utility.yul\":4014:4236   */\n      swap3\n      swap2\n      pop\n      pop\n      jump\t// out\n        /* \"#utility.yul\":4242:4452   */\n    tag_56:\n        /* \"#utility.yul\":4329:4333   */\n      0x00\n        /* \"#utility.yul\":4367:4369   */\n      0x20\n        /* \"#utility.yul\":4356:4365   */\n      dup3\n        /* \"#utility.yul\":4352:4370   */\n      add\n        /* \"#utility.yul\":4344:4370   */\n      swap1\n      pop\n        /* \"#utility.yul\":4380:4445   */\n      tag_270\n        /* \"#utility.yul\":4442:4443   */\n      0x00\n        /* \"#utility.yul\":4431:4440   */\n      dup4\n        /* \"#utility.yul\":4427:4444   */\n      add\n        /* \"#utility.yul\":4418:4424   */\n      dup5\n        /* \"#utility.yul\":4380:4445   */\n      tag_181\n      jump\t// in\n    tag_270:\n        /* \"#utility.yul\":4242:4452   */\n      swap3\n      swap2\n      pop\n      pop\n      jump\t// out\n        /* \"#utility.yul\":4458:4888   */\n    tag_61:\n        /* \"#utility.yul\":4601:4605   */\n      0x00\n        /* \"#utility.yul\":4639:4641   */\n      0x60\n        /* \"#utility.yul\":4628:4637   */\n      dup3\n        /* \"#utility.yul\":4624:4642   */\n      add\n        /* \"#utility.yul\":4616:4642   */\n      swap1\n      pop\n        /* \"#utility.yul\":4652:4723   */\n      tag_272\n        /* \"#utility.yul\":4720:4721   */\n      0x00\n        /* \"#utility.yul\":4709:4718   */\n      dup4\n        /* \"#utility.yul\":4705:4722   */\n      add\n        /* \"#utility.yul\":4696:4702   */\n      dup7\n        /* \"#utility.yul\":4652:4723   */\n      tag_179\n      jump\t// in\n    tag_272:\n        /* \"#utility.yul\":4733:4805   */\n      tag_273\n        /* \"#utility.yul\":4801:4803   */\n      0x20\n        /* \"#utility.yul\":4790:4799   */\n      dup4\n        /* \"#utility.yul\":4786:4804   */\n      add\n        /* \"#utility.yul\":4777:4783   */\n      dup6\n        /* \"#utility.yul\":4733:4805   */\n      tag_179\n      jump\t// in\n    tag_273:\n        /* \"#utility.yul\":4815:4881   */\n      tag_274\n        /* \"#utility.yul\":4877:4879   */\n      0x40\n        /* \"#utility.yul\":4866:4875   */\n      dup4\n        /* \"#utility.yul\":4862:4880   */\n      add\n        /* \"#utility.yul\":4853:4859   */\n      dup5\n        /* \"#utility.yul\":4815:4881   */\n      tag_181\n      jump\t// in\n    tag_274:\n        /* \"#utility.yul\":4458:4888   */\n      swap5\n      swap4\n      pop\n      pop\n      pop\n      pop\n      jump\t// out\n        /* \"#utility.yul\":4894:5368   */\n    tag_64:\n        /* \"#utility.yul\":4962:4968   */\n      0x00\n        /* \"#utility.yul\":4970:4976   */\n      0x00\n        /* \"#utility.yul\":5019:5021   */\n      0x40\n        /* \"#utility.yul\":5007:5016   */\n      dup4\n        /* \"#utility.yul\":4998:5005   */\n      dup6\n        /* \"#utility.yul\":4994:5017   */\n      sub\n        /* \"#utility.yul\":4990:5022   */\n      slt\n        /* \"#utility.yul\":4987:5106   */\n      iszero\n      tag_276\n      jumpi\n        /* \"#utility.yul\":5025:5104   */\n      tag_277\n      tag_172\n      jump\t// in\n    tag_277:\n        /* \"#utility.yul\":4987:5106   */\n    tag_276:\n        /* \"#utility.yul\":5145:5146   */\n      0x00\n        /* \"#utility.yul\":5170:5223   */\n      tag_278\n        /* \"#utility.yul\":5215:5222   */\n      dup6\n        /* \"#utility.yul\":5206:5212   */\n      dup3\n        /* \"#utility.yul\":5195:5204   */\n      dup7\n        /* \"#utility.yul\":5191:5213   */\n      add\n        /* \"#utility.yul\":5170:5223   */\n      tag_183\n      jump\t// in\n    tag_278:\n        /* \"#utility.yul\":5160:5223   */\n      swap3\n      pop\n        /* \"#utility.yul\":5116:5233   */\n      pop\n        /* \"#utility.yul\":5272:5274   */\n      0x20\n        /* \"#utility.yul\":5298:5351   */\n      tag_279\n        /* \"#utility.yul\":5343:5350   */\n      dup6\n        /* \"#utility.yul\":5334:5340   */\n      dup3\n        /* \"#utility.yul\":5323:5332   */\n      dup7\n        /* \"#utility.yul\":5319:5341   */\n      add\n        /* \"#utility.yul\":5298:5351   */\n      tag_183\n      jump\t// in\n    tag_279:\n        /* \"#utility.yul\":5288:5351   */\n      swap2\n      pop\n        /* \"#utility.yul\":5243:5361   */\n      pop\n        /* \"#utility.yul\":4894:5368   */\n      swap3\n      pop\n      swap3\n      swap1\n      pop\n      jump\t// out\n        /* \"#utility.yul\":5374:5543   */\n    tag_190:\n        /* \"#utility.yul\":5458:5469   */\n      0x00\n        /* \"#utility.yul\":5492:5498   */\n      dup3\n        /* \"#utility.yul\":5487:5490   */\n      dup3\n        /* \"#utility.yul\":5480:5499   */\n      mstore\n        /* \"#utility.yul\":5532:5536   */\n      0x20\n        /* \"#utility.yul\":5527:5530   */\n      dup3\n        /* \"#utility.yul\":5523:5537   */\n      add\n        /* \"#utility.yul\":5508:5537   */\n      swap1\n      pop\n        /* \"#utility.yul\":5374:5543   */\n      swap3\n      swap2\n      pop\n      pop\n      jump\t// out\n        /* \"#utility.yul\":5549:5711   */\n    tag_191:\n        /* \"#utility.yul\":5689:5703   */\n      0x496e76616c696420706c616e0000000000000000000000000000000000000000\n        /* \"#utility.yul\":5685:5686   */\n      0x00\n        /* \"#utility.yul\":5677:5683   */\n      dup3\n        /* \"#utility.yul\":5673:5687   */\n      add\n        /* \"#utility.yul\":5666:5704   */\n      mstore\n        /* \"#utility.yul\":5549:5711   */\n      pop\n      jump\t// out\n        /* \"#utility.yul\":5717:6083   */\n    tag_192:\n        /* \"#utility.yul\":5859:5862   */\n      0x00\n        /* \"#utility.yul\":5880:5947   */\n      tag_283\n        /* \"#utility.yul\":5944:5946   */\n      0x0c\n        /* \"#utility.yul\":5939:5942   */\n      dup4\n        /* \"#utility.yul\":5880:5947   */\n      tag_190\n      jump\t// in\n    tag_283:\n        /* \"#utility.yul\":5873:5947   */\n      swap2\n      pop\n        /* \"#utility.yul\":5956:6049   */\n      tag_284\n        /* \"#utility.yul\":6045:6048   */\n      dup3\n        /* \"#utility.yul\":5956:6049   */\n      tag_191\n      jump\t// in\n    tag_284:\n        /* \"#utility.yul\":6074:6076   */\n      0x20\n        /* \"#utility.yul\":6069:6072   */\n      dup3\n        /* \"#utility.yul\":6065:6077   */\n      add\n        /* \"#utility.yul\":6058:6077   */\n      swap1\n      pop\n        /* \"#utility.yul\":5717:6083   */\n      swap2\n      swap1\n      pop\n      jump\t// out\n        /* \"#utility.yul\":6089:6508   */\n    tag_80:\n        /* \"#utility.yul\":6255:6259   */\n      0x00\n        /* \"#utility.yul\":6293:6295   */\n      0x20\n        /* \"#utility.yul\":6282:6291   */\n      dup3\n        /* \"#utility.yul\":6278:6296   */\n      add\n        /* \"#utility.yul\":6270:6296   */\n      swap1\n      pop\n        /* \"#utility.yul\":6342:6351   */\n      dup2\n        /* \"#utility.yul\":6336:6340   */\n      dup2\n        /* \"#utility.yul\":6332:6352   */\n      sub\n        /* \"#utility.yul\":6328:6329   */\n      0x00\n        /* \"#utility.yul\":6317:6326   */\n      dup4\n        /* \"#utility.yul\":6313:6330   */\n      add\n        /* \"#utility.yul\":6306:6353   */\n      mstore\n        /* \"#utility.yul\":6370:6501   */\n      tag_286\n        /* \"#utility.yul\":6496:6500   */\n      dup2\n        /* \"#utility.yul\":6370:6501   */\n      tag_192\n      jump\t// in\n    tag_286:\n        /* \"#utility.yul\":6362:6501   */\n      swap1\n      pop\n        /* \"#utility.yul\":6089:6508   */\n      swap2\n      swap1\n      pop\n      jump\t// out\n        /* \"#utility.yul\":6514:6677   */\n    tag_193:\n        /* \"#utility.yul\":6654:6669   */\n      0x506c616e20696e61637469766500000000000000000000000000000000000000\n        /* \"#utility.yul\":6650:6651   */\n      0x00\n        /* \"#utility.yul\":6642:6648   */\n      dup3\n        /* \"#utility.yul\":6638:6652   */\n      add\n        /* \"#utility.yul\":6631:6670   */\n      mstore\n        /* \"#utility.yul\":6514:6677   */\n      pop\n      jump\t// out\n        /* \"#utility.yul\":6683:7049   */\n    tag_194:\n        /* \"#utility.yul\":6825:6828   */\n      0x00\n        /* \"#utility.yul\":6846:6913   */\n      tag_289\n        /* \"#utility.yul\":6910:6912   */\n      0x0d\n        /* \"#utility.yul\":6905:6908   */\n      dup4\n        /* \"#utility.yul\":6846:6913   */\n      tag_190\n      jump\t// in\n    tag_289:\n        /* \"#utility.yul\":6839:6913   */\n      swap2\n      pop\n        /* \"#utility.yul\":6922:7015   */\n      tag_290\n        /* \"#utility.yul\":7011:7014   */\n      dup3\n        /* \"#utility.yul\":6922:7015   */\n      tag_193\n      jump\t// in\n    tag_290:\n        /* \"#utility.yul\":7040:7042   */\n      0x20\n        /* \"#utility.yul\":7035:7038   */\n      dup3\n        /* \"#utility.yul\":7031:7043   */\n      add\n        /* \"#utility.yul\":7024:7043   */\n      swap1\n      pop\n        /* \"#utility.yul\":6683:7049   */\n      swap2\n      swap1\n      pop\n      jump\t// out\n        /* \"#utility.yul\":7055:7474   */\n    tag_83:\n        /* \"#utility.yul\":7221:7225   */\n      0x00\n        /* \"#utility.yul\":7259:7261   */\n      0x20\n        /* \"#utility.yul\":7248:7257   */\n      dup3\n        /* \"#utility.yul\":7244:7262   */\n      add\n        /* \"#utility.yul\":7236:7262   */\n      swap1\n      pop\n        /* \"#utility.yul\":7308:7317   */\n      dup2\n        /* \"#utility.yul\":7302:7306   */\n      dup2\n        /* \"#utility.yul\":7298:7318   */\n      sub\n        /* \"#utility.yul\":7294:7295   */\n      0x00\n        /* \"#utility.yul\":7283:7292   */\n      dup4\n        /* \"#utility.yul\":7279:7296   */\n      add\n        /* \"#utility.yul\":7272:7319   */\n      mstore\n        /* \"#utility.yul\":7336:7467   */\n      tag_292\n        /* \"#utility.yul\":7462:7466   */\n      dup2\n        /* \"#utility.yul\":7336:7467   */\n      tag_194\n      jump\t// in\n    tag_292:\n        /* \"#utility.yul\":7328:7467   */\n      swap1\n      pop\n        /* \"#utility.yul\":7055:7474   */\n      swap2\n      swap1\n      pop\n      jump\t// out\n        /* \"#utility.yul\":7480:7922   */\n    tag_86:\n        /* \"#utility.yul\":7629:7633   */\n      0x00\n        /* \"#utility.yul\":7667:7669   */\n      0x60\n        /* \"#utility.yul\":7656:7665   */\n      dup3\n        /* \"#utility.yul\":7652:7670   */\n      add\n        /* \"#utility.yul\":7644:7670   */\n      swap1\n      pop\n        /* \"#utility.yul\":7680:7751   */\n      tag_294\n        /* \"#utility.yul\":7748:7749   */\n      0x00\n        /* \"#utility.yul\":7737:7746   */\n      dup4\n        /* \"#utility.yul\":7733:7750   */\n      add\n        /* \"#utility.yul\":7724:7730   */\n      dup7\n        /* \"#utility.yul\":7680:7751   */\n      tag_189\n      jump\t// in\n    tag_294:\n        /* \"#utility.yul\":7761:7833   */\n      tag_295\n        /* \"#utility.yul\":7829:7831   */\n      0x20\n        /* \"#utility.yul\":7818:7827   */\n      dup4\n        /* \"#utility.yul\":7814:7832   */\n      add\n        /* \"#utility.yul\":7805:7811   */\n      dup6\n        /* \"#utility.yul\":7761:7833   */\n      tag_189\n      jump\t// in\n    tag_295:\n        /* \"#utility.yul\":7843:7915   */\n      tag_296\n        /* \"#utility.yul\":7911:7913   */\n      0x40\n        /* \"#utility.yul\":7900:7909   */\n      dup4\n        /* \"#utility.yul\":7896:7914   */\n      add\n        /* \"#utility.yul\":7887:7893   */\n      dup5\n        /* \"#utility.yul\":7843:7915   */\n      tag_179\n      jump\t// in\n    tag_296:\n        /* \"#utility.yul\":7480:7922   */\n      swap5\n      swap4\n      pop\n      pop\n      pop\n      pop\n      jump\t// out\n        /* \"#utility.yul\":7928:8044   */\n    tag_195:\n        /* \"#utility.yul\":7998:8019   */\n      tag_298\n        /* \"#utility.yul\":8013:8018   */\n      dup2\n        /* \"#utility.yul\":7998:8019   */\n      tag_180\n      jump\t// in\n    tag_298:\n        /* \"#utility.yul\":7991:7996   */\n      dup2\n        /* \"#utility.yul\":7988:8020   */\n      eq\n        /* \"#utility.yul\":7978:8038   */\n      tag_299\n      jumpi\n        /* \"#utility.yul\":8034:8035   */\n      0x00\n        /* \"#utility.yul\":8031:8032   */\n      0x00\n        /* \"#utility.yul\":8024:8036   */\n      revert\n        /* \"#utility.yul\":7978:8038   */\n    tag_299:\n        /* \"#utility.yul\":7928:8044   */\n      pop\n      jump\t// out\n        /* \"#utility.yul\":8050:8187   */\n    tag_196:\n        /* \"#utility.yul\":8104:8109   */\n      0x00\n        /* \"#utility.yul\":8135:8141   */\n      dup2\n        /* \"#utility.yul\":8129:8142   */\n      mload\n        /* \"#utility.yul\":8120:8142   */\n      swap1\n      pop\n        /* \"#utility.yul\":8151:8181   */\n      tag_301\n        /* \"#utility.yul\":8175:8180   */\n      dup2\n        /* \"#utility.yul\":8151:8181   */\n      tag_195\n      jump\t// in\n    tag_301:\n        /* \"#utility.yul\":8050:8187   */\n      swap3\n      swap2\n      pop\n      pop\n      jump\t// out\n        /* \"#utility.yul\":8193:8538   */\n    tag_90:\n        /* \"#utility.yul\":8260:8266   */\n      0x00\n        /* \"#utility.yul\":8309:8311   */\n      0x20\n        /* \"#utility.yul\":8297:8306   */\n      dup3\n        /* \"#utility.yul\":8288:8295   */\n      dup5\n        /* \"#utility.yul\":8284:8307   */\n      sub\n        /* \"#utility.yul\":8280:8312   */\n      slt\n        /* \"#utility.yul\":8277:8396   */\n      iszero\n      tag_303\n      jumpi\n        /* \"#utility.yul\":8315:8394   */\n      tag_304\n      tag_172\n      jump\t// in\n    tag_304:\n        /* \"#utility.yul\":8277:8396   */\n    tag_303:\n        /* \"#utility.yul\":8435:8436   */\n      0x00\n        /* \"#utility.yul\":8460:8521   */\n      tag_305\n        /* \"#utility.yul\":8513:8520   */\n      dup5\n        /* \"#utility.yul\":8504:8510   */\n      dup3\n        /* \"#utility.yul\":8493:8502   */\n      dup6\n        /* \"#utility.yul\":8489:8511   */\n      add\n        /* \"#utility.yul\":8460:8521   */\n      tag_196\n      jump\t// in\n    tag_305:\n        /* \"#utility.yul\":8450:8521   */\n      swap2\n      pop\n        /* \"#utility.yul\":8406:8531   */\n      pop\n        /* \"#utility.yul\":8193:8538   */\n      swap3\n      swap2\n      pop\n      pop\n      jump\t// out\n        /* \"#utility.yul\":8544:8716   */\n    tag_197:\n        /* \"#utility.yul\":8684:8708   */\n      0x496e697469616c207061796d656e74206661696c656400000000000000000000\n        /* \"#utility.yul\":8680:8681   */\n      0x00\n        /* \"#utility.yul\":8672:8678   */\n      dup3\n        /* \"#utility.yul\":8668:8682   */\n      add\n        /* \"#utility.yul\":8661:8709   */\n      mstore\n        /* \"#utility.yul\":8544:8716   */\n      pop\n      jump\t// out\n        /* \"#utility.yul\":8722:9088   */\n    tag_198:\n        /* \"#utility.yul\":8864:8867   */\n      0x00\n        /* \"#utility.yul\":8885:8952   */\n      tag_308\n        /* \"#utility.yul\":8949:8951   */\n      0x16\n        /* \"#utility.yul\":8944:8947   */\n      dup4\n        /* \"#utility.yul\":8885:8952   */\n      tag_190\n      jump\t// in\n    tag_308:\n        /* \"#utility.yul\":8878:8952   */\n      swap2\n      pop\n        /* \"#utility.yul\":8961:9054   */\n      tag_309\n        /* \"#utility.yul\":9050:9053   */\n      dup3\n        /* \"#utility.yul\":8961:9054   */\n      tag_197\n      jump\t// in\n    tag_309:\n        /* \"#utility.yul\":9079:9081   */\n      0x20\n        /* \"#utility.yul\":9074:9077   */\n      dup3\n        /* \"#utility.yul\":9070:9082   */\n      add\n        /* \"#utility.yul\":9063:9082   */\n      swap1\n      pop\n        /* \"#utility.yul\":8722:9088   */\n      swap2\n      swap1\n      pop\n      jump\t// out\n        /* \"#utility.yul\":9094:9513   */\n    tag_93:\n        /* \"#utility.yul\":9260:9264   */\n      0x00\n        /* \"#utility.yul\":9298:9300   */\n      0x20\n        /* \"#utility.yul\":9287:9296   */\n      dup3\n        /* \"#utility.yul\":9283:9301   */\n      add\n        /* \"#utility.yul\":9275:9301   */\n      swap1\n      pop\n        /* \"#utility.yul\":9347:9356   */\n      dup2\n        /* \"#utility.yul\":9341:9345   */\n      dup2\n        /* \"#utility.yul\":9337:9357   */\n      sub\n        /* \"#utility.yul\":9333:9334   */\n      0x00\n        /* \"#utility.yul\":9322:9331   */\n      dup4\n        /* \"#utility.yul\":9318:9335   */\n      add\n        /* \"#utility.yul\":9311:9358   */\n      mstore\n        /* \"#utility.yul\":9375:9506   */\n      tag_311\n        /* \"#utility.yul\":9501:9505   */\n      dup2\n        /* \"#utility.yul\":9375:9506   */\n      tag_198\n      jump\t// in\n    tag_311:\n        /* \"#utility.yul\":9367:9506   */\n      swap1\n      pop\n        /* \"#utility.yul\":9094:9513   */\n      swap2\n      swap1\n      pop\n      jump\t// out\n        /* \"#utility.yul\":9519:9699   */\n    tag_199:\n        /* \"#utility.yul\":9567:9644   */\n      0x4e487b7100000000000000000000000000000000000000000000000000000000\n        /* \"#utility.yul\":9564:9565   */\n      0x00\n        /* \"#utility.yul\":9557:9645   */\n      mstore\n        /* \"#utility.yul\":9664:9668   */\n      0x11\n        /* \"#utility.yul\":9661:9662   */\n      0x04\n        /* \"#utility.yul\":9654:9669   */\n      mstore\n        /* \"#utility.yul\":9688:9692   */\n      0x24\n        /* \"#utility.yul\":9685:9686   */\n      0x00\n        /* \"#utility.yul\":9678:9693   */\n      revert\n        /* \"#utility.yul\":9705:9896   */\n    tag_95:\n        /* \"#utility.yul\":9745:9748   */\n      0x00\n        /* \"#utility.yul\":9764:9784   */\n      tag_314\n        /* \"#utility.yul\":9782:9783   */\n      dup3\n        /* \"#utility.yul\":9764:9784   */\n      tag_178\n      jump\t// in\n    tag_314:\n        /* \"#utility.yul\":9759:9784   */\n      swap2\n      pop\n        /* \"#utility.yul\":9798:9818   */\n      tag_315\n        /* \"#utility.yul\":9816:9817   */\n      dup4\n        /* \"#utility.yul\":9798:9818   */\n      tag_178\n      jump\t// in\n    tag_315:\n        /* \"#utility.yul\":9793:9818   */\n      swap3\n      pop\n        /* \"#utility.yul\":9841:9842   */\n      dup3\n        /* \"#utility.yul\":9838:9839   */\n      dup3\n        /* \"#utility.yul\":9834:9843   */\n      add\n        /* \"#utility.yul\":9827:9843   */\n      swap1\n      pop\n        /* \"#utility.yul\":9862:9865   */\n      dup1\n        /* \"#utility.yul\":9859:9860   */\n      dup3\n        /* \"#utility.yul\":9856:9866   */\n      gt\n        /* \"#utility.yul\":9853:9889   */\n      iszero\n      tag_316\n      jumpi\n        /* \"#utility.yul\":9869:9887   */\n      tag_317\n      tag_199\n      jump\t// in\n    tag_317:\n        /* \"#utility.yul\":9853:9889   */\n    tag_316:\n        /* \"#utility.yul\":9705:9896   */\n      swap3\n      swap2\n      pop\n      pop\n      jump\t// out\n        /* \"#utility.yul\":9902:10074   */\n    tag_200:\n        /* \"#utility.yul\":10042:10066   */\n      0x4e6f2061637469766520737562736372697074696f6e00000000000000000000\n        /* \"#utility.yul\":10038:10039   */\n      0x00\n        /* \"#utility.yul\":10030:10036   */\n      dup3\n        /* \"#utility.yul\":10026:10040   */\n      add\n        /* \"#utility.yul\":10019:10067   */\n      mstore\n        /* \"#utility.yul\":9902:10074   */\n      pop\n      jump\t// out\n        /* \"#utility.yul\":10080:10446   */\n    tag_201:\n        /* \"#utility.yul\":10222:10225   */\n      0x00\n        /* \"#utility.yul\":10243:10310   */\n      tag_320\n        /* \"#utility.yul\":10307:10309   */\n      0x16\n        /* \"#utility.yul\":10302:10305   */\n      dup4\n        /* \"#utility.yul\":10243:10310   */\n      tag_190\n      jump\t// in\n    tag_320:\n        /* \"#utility.yul\":10236:10310   */\n      swap2\n      pop\n        /* \"#utility.yul\":10319:10412   */\n      tag_321\n        /* \"#utility.yul\":10408:10411   */\n      dup3\n        /* \"#utility.yul\":10319:10412   */\n      tag_200\n      jump\t// in\n    tag_321:\n        /* \"#utility.yul\":10437:10439   */\n      0x20\n        /* \"#utility.yul\":10432:10435   */\n      dup3\n        /* \"#utility.yul\":10428:10440   */\n      add\n        /* \"#utility.yul\":10421:10440   */\n      swap1\n      pop\n        /* \"#utility.yul\":10080:10446   */\n      swap2\n      swap1\n      pop\n      jump\t// out\n        /* \"#utility.yul\":10452:10871   */\n    tag_101:\n        /* \"#utility.yul\":10618:10622   */\n      0x00\n        /* \"#utility.yul\":10656:10658   */\n      0x20\n        /* \"#utility.yul\":10645:10654   */\n      dup3\n        /* \"#utility.yul\":10641:10659   */\n      add\n        /* \"#utility.yul\":10633:10659   */\n      swap1\n      pop\n        /* \"#utility.yul\":10705:10714   */\n      dup2\n        /* \"#utility.yul\":10699:10703   */\n      dup2\n        /* \"#utility.yul\":10695:10715   */\n      sub\n        /* \"#utility.yul\":10691:10692   */\n      0x00\n        /* \"#utility.yul\":10680:10689   */\n      dup4\n        /* \"#utility.yul\":10676:10693   */\n      add\n        /* \"#utility.yul\":10669:10716   */\n      mstore\n        /* \"#utility.yul\":10733:10864   */\n      tag_323\n        /* \"#utility.yul\":10859:10863   */\n      dup2\n        /* \"#utility.yul\":10733:10864   */\n      tag_201\n      jump\t// in\n    tag_323:\n        /* \"#utility.yul\":10725:10864   */\n      swap1\n      pop\n        /* \"#utility.yul\":10452:10871   */\n      swap2\n      swap1\n      pop\n      jump\t// out\n        /* \"#utility.yul\":10877:11048   */\n    tag_202:\n        /* \"#utility.yul\":11017:11040   */\n      0x537562736372697074696f6e20696e6163746976650000000000000000000000\n        /* \"#utility.yul\":11013:11014   */\n      0x00\n        /* \"#utility.yul\":11005:11011   */\n      dup3\n        /* \"#utility.yul\":11001:11015   */\n      add\n        /* \"#utility.yul\":10994:11041   */\n      mstore\n        /* \"#utility.yul\":10877:11048   */\n      pop\n      jump\t// out\n        /* \"#utility.yul\":11054:11420   */\n    tag_203:\n        /* \"#utility.yul\":11196:11199   */\n      0x00\n        /* \"#utility.yul\":11217:11284   */\n      tag_326\n        /* \"#utility.yul\":11281:11283   */\n      0x15\n        /* \"#utility.yul\":11276:11279   */\n      dup4\n        /* \"#utility.yul\":11217:11284   */\n      tag_190\n      jump\t// in\n    tag_326:\n        /* \"#utility.yul\":11210:11284   */\n      swap2\n      pop\n        /* \"#utility.yul\":11293:11386   */\n      tag_327\n        /* \"#utility.yul\":11382:11385   */\n      dup3\n        /* \"#utility.yul\":11293:11386   */\n      tag_202\n      jump\t// in\n    tag_327:\n        /* \"#utility.yul\":11411:11413   */\n      0x20\n        /* \"#utility.yul\":11406:11409   */\n      dup3\n        /* \"#utility.yul\":11402:11414   */\n      add\n        /* \"#utility.yul\":11395:11414   */\n      swap1\n      pop\n        /* \"#utility.yul\":11054:11420   */\n      swap2\n      swap1\n      pop\n      jump\t// out\n        /* \"#utility.yul\":11426:11845   */\n    tag_119:\n        /* \"#utility.yul\":11592:11596   */\n      0x00\n        /* \"#utility.yul\":11630:11632   */\n      0x20\n        /* \"#utility.yul\":11619:11628   */\n      dup3\n        /* \"#utility.yul\":11615:11633   */\n      add\n        /* \"#utility.yul\":11607:11633   */\n      swap1\n      pop\n        /* \"#utility.yul\":11679:11688   */\n      dup2\n        /* \"#utility.yul\":11673:11677   */\n      dup2\n        /* \"#utility.yul\":11669:11689   */\n      sub\n        /* \"#utility.yul\":11665:11666   */\n      0x00\n        /* \"#utility.yul\":11654:11663   */\n      dup4\n        /* \"#utility.yul\":11650:11667   */\n      add\n        /* \"#utility.yul\":11643:11690   */\n      mstore\n        /* \"#utility.yul\":11707:11838   */\n      tag_329\n        /* \"#utility.yul\":11833:11837   */\n      dup2\n        /* \"#utility.yul\":11707:11838   */\n      tag_203\n      jump\t// in\n    tag_329:\n        /* \"#utility.yul\":11699:11838   */\n      swap1\n      pop\n        /* \"#utility.yul\":11426:11845   */\n      swap2\n      swap1\n      pop\n      jump\t// out\n        /* \"#utility.yul\":11851:12016   */\n    tag_204:\n        /* \"#utility.yul\":11991:12008   */\n      0x5061796d656e74206e6f74206475650000000000000000000000000000000000\n        /* \"#utility.yul\":11987:11988   */\n      0x00\n        /* \"#utility.yul\":11979:11985   */\n      dup3\n        /* \"#utility.yul\":11975:11989   */\n      add\n        /* \"#utility.yul\":11968:12009   */\n      mstore\n        /* \"#utility.yul\":11851:12016   */\n      pop\n      jump\t// out\n        /* \"#utility.yul\":12022:12388   */\n    tag_205:\n        /* \"#utility.yul\":12164:12167   */\n      0x00\n        /* \"#utility.yul\":12185:12252   */\n      tag_332\n        /* \"#utility.yul\":12249:12251   */\n      0x0f\n        /* \"#utility.yul\":12244:12247   */\n      dup4\n        /* \"#utility.yul\":12185:12252   */\n      tag_190\n      jump\t// in\n    tag_332:\n        /* \"#utility.yul\":12178:12252   */\n      swap2\n      pop\n        /* \"#utility.yul\":12261:12354   */\n      tag_333\n        /* \"#utility.yul\":12350:12353   */\n      dup3\n        /* \"#utility.yul\":12261:12354   */\n      tag_204\n      jump\t// in\n    tag_333:\n        /* \"#utility.yul\":12379:12381   */\n      0x20\n        /* \"#utility.yul\":12374:12377   */\n      dup3\n        /* \"#utility.yul\":12370:12382   */\n      add\n        /* \"#utility.yul\":12363:12382   */\n      swap1\n      pop\n        /* \"#utility.yul\":12022:12388   */\n      swap2\n      swap1\n      pop\n      jump\t// out\n        /* \"#utility.yul\":12394:12813   */\n    tag_122:\n        /* \"#utility.yul\":12560:12564   */\n      0x00\n        /* \"#utility.yul\":12598:12600   */\n      0x20\n        /* \"#utility.yul\":12587:12596   */\n      dup3\n        /* \"#utility.yul\":12583:12601   */\n      add\n        /* \"#utility.yul\":12575:12601   */\n      swap1\n      pop\n        /* \"#utility.yul\":12647:12656   */\n      dup2\n        /* \"#utility.yul\":12641:12645   */\n      dup2\n        /* \"#utility.yul\":12637:12657   */\n      sub\n        /* \"#utility.yul\":12633:12634   */\n      0x00\n        /* \"#utility.yul\":12622:12631   */\n      dup4\n        /* \"#utility.yul\":12618:12635   */\n      add\n        /* \"#utility.yul\":12611:12658   */\n      mstore\n        /* \"#utility.yul\":12675:12806   */\n      tag_335\n        /* \"#utility.yul\":12801:12805   */\n      dup2\n        /* \"#utility.yul\":12675:12806   */\n      tag_205\n      jump\t// in\n    tag_335:\n        /* \"#utility.yul\":12667:12806   */\n      swap1\n      pop\n        /* \"#utility.yul\":12394:12813   */\n      swap2\n      swap1\n      pop\n      jump\t// out\n        /* \"#utility.yul\":12819:12983   */\n    tag_206:\n        /* \"#utility.yul\":12959:12975   */\n      0x5061796d656e74206661696c6564000000000000000000000000000000000000\n        /* \"#utility.yul\":12955:12956   */\n      0x00\n        /* \"#utility.yul\":12947:12953   */\n      dup3\n        /* \"#utility.yul\":12943:12957   */\n      add\n        /* \"#utility.yul\":12936:12976   */\n      mstore\n        /* \"#utility.yul\":12819:12983   */\n      pop\n      jump\t// out\n        /* \"#utility.yul\":12989:13355   */\n    tag_207:\n        /* \"#utility.yul\":13131:13134   */\n      0x00\n        /* \"#utility.yul\":13152:13219   */\n      tag_338\n        /* \"#utility.yul\":13216:13218   */\n      0x0e\n        /* \"#utility.yul\":13211:13214   */\n      dup4\n        /* \"#utility.yul\":13152:13219   */\n      tag_190\n      jump\t// in\n    tag_338:\n        /* \"#utility.yul\":13145:13219   */\n      swap2\n      pop\n        /* \"#utility.yul\":13228:13321   */\n      tag_339\n        /* \"#utility.yul\":13317:13320   */\n      dup3\n        /* \"#utility.yul\":13228:13321   */\n      tag_206\n      jump\t// in\n    tag_339:\n        /* \"#utility.yul\":13346:13348   */\n      0x20\n        /* \"#utility.yul\":13341:13344   */\n      dup3\n        /* \"#utility.yul\":13337:13349   */\n      add\n        /* \"#utility.yul\":13330:13349   */\n      swap1\n      pop\n        /* \"#utility.yul\":12989:13355   */\n      swap2\n      swap1\n      pop\n      jump\t// out\n        /* \"#utility.yul\":13361:13780   */\n    tag_132:\n        /* \"#utility.yul\":13527:13531   */\n      0x00\n        /* \"#utility.yul\":13565:13567   */\n      0x20\n        /* \"#utility.yul\":13554:13563   */\n      dup3\n        /* \"#utility.yul\":13550:13568   */\n      add\n        /* \"#utility.yul\":13542:13568   */\n      swap1\n      pop\n        /* \"#utility.yul\":13614:13623   */\n      dup2\n        /* \"#utility.yul\":13608:13612   */\n      dup2\n        /* \"#utility.yul\":13604:13624   */\n      sub\n        /* \"#utility.yul\":13600:13601   */\n      0x00\n        /* \"#utility.yul\":13589:13598   */\n      dup4\n        /* \"#utility.yul\":13585:13602   */\n      add\n        /* \"#utility.yul\":13578:13625   */\n      mstore\n        /* \"#utility.yul\":13642:13773   */\n      tag_341\n        /* \"#utility.yul\":13768:13772   */\n      dup2\n        /* \"#utility.yul\":13642:13773   */\n      tag_207\n      jump\t// in\n    tag_341:\n        /* \"#utility.yul\":13634:13773   */\n      swap1\n      pop\n        /* \"#utility.yul\":13361:13780   */\n      swap2\n      swap1\n      pop\n      jump\t// out\n        /* \"#utility.yul\":13786:13953   */\n    tag_208:\n        /* \"#utility.yul\":13926:13945   */\n      0x5072696365206d757374206265203e2030000000000000000000000000000000\n        /* \"#utility.yul\":13922:13923   */\n      0x00\n        /* \"#utility.yul\":13914:13920   */\n      dup3\n        /* \"#utility.yul\":13910:13924   */\n      add\n        /* \"#utility.yul\":13903:13946   */\n      mstore\n        /* \"#utility.yul\":13786:13953   */\n      pop\n      jump\t// out\n        /* \"#utility.yul\":13959:14325   */\n    tag_209:\n        /* \"#utility.yul\":14101:14104   */\n      0x00\n        /* \"#utility.yul\":14122:14189   */\n      tag_344\n        /* \"#utility.yul\":14186:14188   */\n      0x11\n        /* \"#utility.yul\":14181:14184   */\n      dup4\n        /* \"#utility.yul\":14122:14189   */\n      tag_190\n      jump\t// in\n    tag_344:\n        /* \"#utility.yul\":14115:14189   */\n      swap2\n      pop\n        /* \"#utility.yul\":14198:14291   */\n      tag_345\n        /* \"#utility.yul\":14287:14290   */\n      dup3\n        /* \"#utility.yul\":14198:14291   */\n      tag_208\n      jump\t// in\n    tag_345:\n        /* \"#utility.yul\":14316:14318   */\n      0x20\n        /* \"#utility.yul\":14311:14314   */\n      dup3\n        /* \"#utility.yul\":14307:14319   */\n      add\n        /* \"#utility.yul\":14300:14319   */\n      swap1\n      pop\n        /* \"#utility.yul\":13959:14325   */\n      swap2\n      swap1\n      pop\n      jump\t// out\n        /* \"#utility.yul\":14331:14750   */\n    tag_143:\n        /* \"#utility.yul\":14497:14501   */\n      0x00\n        /* \"#utility.yul\":14535:14537   */\n      0x20\n        /* \"#utility.yul\":14524:14533   */\n      dup3\n        /* \"#utility.yul\":14520:14538   */\n      add\n        /* \"#utility.yul\":14512:14538   */\n      swap1\n      pop\n        /* \"#utility.yul\":14584:14593   */\n      dup2\n        /* \"#utility.yul\":14578:14582   */\n      dup2\n        /* \"#utility.yul\":14574:14594   */\n      sub\n        /* \"#utility.yul\":14570:14571   */\n      0x00\n        /* \"#utility.yul\":14559:14568   */\n      dup4\n        /* \"#utility.yul\":14555:14572   */\n      add\n        /* \"#utility.yul\":14548:14595   */\n      mstore\n        /* \"#utility.yul\":14612:14743   */\n      tag_347\n        /* \"#utility.yul\":14738:14742   */\n      dup2\n        /* \"#utility.yul\":14612:14743   */\n      tag_209\n      jump\t// in\n    tag_347:\n        /* \"#utility.yul\":14604:14743   */\n      swap1\n      pop\n        /* \"#utility.yul\":14331:14750   */\n      swap2\n      swap1\n      pop\n      jump\t// out\n        /* \"#utility.yul\":14756:14926   */\n    tag_210:\n        /* \"#utility.yul\":14896:14918   */\n      0x4475726174696f6e206d757374206265203e2030000000000000000000000000\n        /* \"#utility.yul\":14892:14893   */\n      0x00\n        /* \"#utility.yul\":14884:14890   */\n      dup3\n        /* \"#utility.yul\":14880:14894   */\n      add\n        /* \"#utility.yul\":14873:14919   */\n      mstore\n        /* \"#utility.yul\":14756:14926   */\n      pop\n      jump\t// out\n        /* \"#utility.yul\":14932:15298   */\n    tag_211:\n        /* \"#utility.yul\":15074:15077   */\n      0x00\n        /* \"#utility.yul\":15095:15162   */\n      tag_350\n        /* \"#utility.yul\":15159:15161   */\n      0x14\n        /* \"#utility.yul\":15154:15157   */\n      dup4\n        /* \"#utility.yul\":15095:15162   */\n      tag_190\n      jump\t// in\n    tag_350:\n        /* \"#utility.yul\":15088:15162   */\n      swap2\n      pop\n        /* \"#utility.yul\":15171:15264   */\n      tag_351\n        /* \"#utility.yul\":15260:15263   */\n      dup3\n        /* \"#utility.yul\":15171:15264   */\n      tag_210\n      jump\t// in\n    tag_351:\n        /* \"#utility.yul\":15289:15291   */\n      0x20\n        /* \"#utility.yul\":15284:15287   */\n      dup3\n        /* \"#utility.yul\":15280:15292   */\n      add\n        /* \"#utility.yul\":15273:15292   */\n      swap1\n      pop\n        /* \"#utility.yul\":14932:15298   */\n      swap2\n      swap1\n      pop\n      jump\t// out\n        /* \"#utility.yul\":15304:15723   */\n    tag_146:\n        /* \"#utility.yul\":15470:15474   */\n      0x00\n        /* \"#utility.yul\":15508:15510   */\n      0x20\n        /* \"#utility.yul\":15497:15506   */\n      dup3\n        /* \"#utility.yul\":15493:15511   */\n      add\n        /* \"#utility.yul\":15485:15511   */\n      swap1\n      pop\n        /* \"#utility.yul\":15557:15566   */\n      dup2\n        /* \"#utility.yul\":15551:15555   */\n      dup2\n        /* \"#utility.yul\":15547:15567   */\n      sub\n        /* \"#utility.yul\":15543:15544   */\n      0x00\n        /* \"#utility.yul\":15532:15541   */\n      dup4\n        /* \"#utility.yul\":15528:15545   */\n      add\n        /* \"#utility.yul\":15521:15568   */\n      mstore\n        /* \"#utility.yul\":15585:15716   */\n      tag_353\n        /* \"#utility.yul\":15711:15715   */\n      dup2\n        /* \"#utility.yul\":15585:15716   */\n      tag_211\n      jump\t// in\n    tag_353:\n        /* \"#utility.yul\":15577:15716   */\n      swap1\n      pop\n        /* \"#utility.yul\":15304:15723   */\n      swap2\n      swap1\n      pop\n      jump\t// out\n        /* \"#utility.yul\":15729:16061   */\n    tag_148:\n        /* \"#utility.yul\":15850:15854   */\n      0x00\n        /* \"#utility.yul\":15888:15890   */\n      0x40\n        /* \"#utility.yul\":15877:15886   */\n      dup3\n        /* \"#utility.yul\":15873:15891   */\n      add\n        /* \"#utility.yul\":15865:15891   */\n      swap1\n      pop\n        /* \"#utility.yul\":15901:15972   */\n      tag_355\n        /* \"#utility.yul\":15969:15970   */\n      0x00\n        /* \"#utility.yul\":15958:15967   */\n      dup4\n        /* \"#utility.yul\":15954:15971   */\n      add\n        /* \"#utility.yul\":15945:15951   */\n      dup6\n        /* \"#utility.yul\":15901:15972   */\n      tag_179\n      jump\t// in\n    tag_355:\n        /* \"#utility.yul\":15982:16054   */\n      tag_356\n        /* \"#utility.yul\":16050:16052   */\n      0x20\n        /* \"#utility.yul\":16039:16048   */\n      dup4\n        /* \"#utility.yul\":16035:16053   */\n      add\n        /* \"#utility.yul\":16026:16032   */\n      dup5\n        /* \"#utility.yul\":15982:16054   */\n      tag_179\n      jump\t// in\n    tag_356:\n        /* \"#utility.yul\":15729:16061   */\n      swap4\n      swap3\n      pop\n      pop\n      pop\n      jump\t// out\n        /* \"#utility.yul\":16067:16300   */\n    tag_150:\n        /* \"#utility.yul\":16106:16109   */\n      0x00\n        /* \"#utility.yul\":16129:16153   */\n      tag_358\n        /* \"#utility.yul\":16147:16152   */\n      dup3\n        /* \"#utility.yul\":16129:16153   */\n      tag_178\n      jump\t// in\n    tag_358:\n        /* \"#utility.yul\":16120:16153   */\n      swap2\n      pop\n        /* \"#utility.yul\":16175:16241   */\n      0xffffffffffffffffffffffffffffffffffffffffffffffffffffffffffffffff\n        /* \"#utility.yul\":16168:16173   */\n      dup3\n        /* \"#utility.yul\":16165:16242   */\n      sub\n        /* \"#utility.yul\":16162:16265   */\n      tag_359\n      jumpi\n        /* \"#utility.yul\":16245:16263   */\n      tag_360\n      tag_199\n      jump\t// in\n    tag_360:\n        /* \"#utility.yul\":16162:16265   */\n    tag_359:\n        /* \"#utility.yul\":16292:16293   */\n      0x01\n        /* \"#utility.yul\":16285:16290   */\n      dup3\n        /* \"#utility.yul\":16281:16294   */\n      add\n        /* \"#utility.yul\":16274:16294   */\n      swap1\n      pop\n        /* \"#utility.yul\":16067:16300   */\n      swap2\n      swap1\n      pop\n      jump\t// out\n        /* \"#utility.yul\":16306:16487   */\n    tag_212:\n        /* \"#utility.yul\":16446:16479   */\n      0x5265656e7472616e637947756172643a207265656e7472616e742063616c6c00\n        /* \"#utility.yul\":16442:16443   */\n      0x00\n        /* \"#utility.yul\":16434:16440   */\n      dup3\n        /* \"#utility.yul\":16430:16444   */\n      add\n        /* \"#utility.yul\":16423:16480   */\n      mstore\n        /* \"#utility.yul\":16306:16487   */\n      pop\n      jump\t// out\n        /* \"#utility.yul\":16493:16859   */\n    tag_213:\n        /* \"#utility.yul\":16635:16638   */\n      0x00\n        /* \"#utility.yul\":16656:16723   */\n      tag_363\n        /* \"#utility.yul\":16720:16722   */\n      0x1f\n        /* \"#utility.yul\":16715:16718   */\n      dup4\n        /* \"#utility.yul\":16656:16723   */\n      tag_190\n      jump\t// in\n    tag_363:\n        /* \"#utility.yul\":16649:16723   */\n      swap2\n      pop\n        /* \"#utility.yul\":16732:16825   */\n      tag_364\n        /* \"#utility.yul\":16821:16824   */\n      dup3\n        /* \"#utility.yul\":16732:16825   */\n      tag_212\n      jump\t// in\n    tag_364:\n        /* \"#utility.yul\":16850:16852   */\n      0x20\n        /* \"#utility.yul\":16845:16848   */\n      dup3\n        /* \"#utility.yul\":16841:16853   */\n      add\n        /* \"#utility.yul\":16834:16853   */\n      swap1\n      pop\n        /* \"#utility.yul\":16493:16859   */\n      swap2\n      swap1\n      pop\n      jump\t// out\n        /* \"#utility.yul\":16865:17284   */\n    tag_160:\n        /* \"#utility.yul\":17031:17035   */\n      0x00\n        /* \"#utility.yul\":17069:17071   */\n      0x20\n        /* \"#utility.yul\":17058:17067   */\n      dup3\n        /* \"#utility.yul\":17054:17072   */\n      add\n        /* \"#utility.yul\":17046:17072   */\n      swap1\n      pop\n        /* \"#utility.yul\":17118:17127   */\n      dup2\n        /* \"#utility.yul\":17112:17116   */\n      dup2\n        /* \"#utility.yul\":17108:17128   */\n      sub\n        /* \"#utility.yul\":17104:17105   */\n      0x00\n        /* \"#utility.yul\":17093:17102   */\n      dup4\n        /* \"#utility.yul\":17089:17106   */\n      add\n        /* \"#utility.yul\":17082:17129   */\n      mstore\n        /* \"#utility.yul\":17146:17277   */\n      tag_366\n        /* \"#utility.yul\":17272:17276   */\n      dup2\n        /* \"#utility.yul\":17146:17277   */\n      tag_213\n      jump\t// in\n    tag_366:\n        /* \"#utility.yul\":17138:17277   */\n      swap1\n      pop\n        /* \"#utility.yul\":16865:17284   */\n      swap2\n      swap1\n      pop\n      jump\t// out\n\n    auxdata: 0xa2646970667358221220fdcfc53c03f8bcde34968c8e88f83e5e0069ec0da13b9652fad601ea1aeafc1364736f6c634300081e0033\n}\n",
				"bytecode": {
					"linkReferences": {},
					"object": "608060405234801561000f575f5ffd5b50604051611ae9380380611ae98339818101604052810190610031919061028e565b3360015f819055505f73ffffffffffffffffffffffffffffffffffffffff168173ffffffffffffffffffffffffffffffffffffffff16036100a9575f6040517f1e4fbdf70000000000000000000000000000000000000000000000000000000081526004016100a091906102c8565b60405180910390fd5b6100b88161016d60201b60201c565b505f73ffffffffffffffffffffffffffffffffffffffff168173ffffffffffffffffffffffffffffffffffffffff1603610127576040517f08c379a000000000000000000000000000000000000000000000000000000000815260040161011e9061033b565b60405180910390fd5b8060025f6101000a81548173ffffffffffffffffffffffffffffffffffffffff021916908373ffffffffffffffffffffffffffffffffffffffff16021790555050610359565b5f60015f9054906101000a900473ffffffffffffffffffffffffffffffffffffffff1690508160015f6101000a81548173ffffffffffffffffffffffffffffffffffffffff021916908373ffffffffffffffffffffffffffffffffffffffff1602179055508173ffffffffffffffffffffffffffffffffffffffff168173ffffffffffffffffffffffffffffffffffffffff167f8be0079c531659141344cd1fd0a4f28419497f9722a3daafe3b4186f6b6457e060405160405180910390a35050565b5f5ffd5b5f73ffffffffffffffffffffffffffffffffffffffff82169050919050565b5f61025d82610234565b9050919050565b61026d81610253565b8114610277575f5ffd5b50565b5f8151905061028881610264565b92915050565b5f602082840312156102a3576102a2610230565b5b5f6102b08482850161027a565b91505092915050565b6102c281610253565b82525050565b5f6020820190506102db5f8301846102b9565b92915050565b5f82825260208201905092915050565b7f496e76616c696420746f6b656e206164647265737300000000000000000000005f82015250565b5f6103256015836102e1565b9150610330826102f1565b602082019050919050565b5f6020820190508181035f83015261035281610319565b9050919050565b611783806103665f395ff3fe608060405234801561000f575f5ffd5b50600436106100e8575f3560e01c80638da5cb5b1161008a578063b162061611610064578063b162061614610211578063b197df5414610243578063f046395a1461025f578063f2fde38b14610292576100e8565b80638da5cb5b146101a75780638fe123d7146101c557806397ad7e02146101e1576100e8565b80633013ce29116100c65780633013ce2914610145578063382d39bb146101635780636174bc6314610181578063715018a61461019d576100e8565b80630cbebc24146100ec5780630f574ba71461011f57806324e9edb01461013b575b5f5ffd5b61010660048036038101906101019190610f9f565b6102ae565b6040516101169493929190610ffc565b60405180910390f35b61013960048036038101906101349190611069565b610357565b005b610143610618565b005b61014d610709565b60405161015a91906110ef565b60405180910390f35b61016b61072e565b6040516101789190611108565b60405180910390f35b61019b60048036038101906101969190611069565b610734565b005b6101a56107ae565b005b6101af6107c1565b6040516101bc9190611130565b60405180910390f35b6101df60048036038101906101da9190610f9f565b6107e9565b005b6101fb60048036038101906101f69190610f9f565b610abe565b6040516102089190611149565b60405180910390f35b61022b60048036038101906102269190611069565b610b64565b60405161023a93929190611162565b60405180910390f35b61025d60048036038101906102589190611197565b610b96565b005b61027960048036038101906102749190610f9f565b610cde565b6040516102899493929190610ffc565b60405180910390f35b6102ac60048036038101906102a79190610f9f565b610d16565b005b5f5f5f5f5f60055f8773ffffffffffffffffffffffffffffffffffffffff1673ffffffffffffffffffffffffffffffffffffffff1681526020019081526020015f206040518060800160405290815f82015481526020016001820154815260200160028201548152602001600382015f9054906101000a900460ff1615151515815250509050805f01518160200151826040015183606001519450945094509450509193509193565b61035f610d9a565b60035481106103a3576040517f08c379a000000000000000000000000000000000000000000000000000000000815260040161039a9061122f565b60405180910390fd5b5f60045f8381526020019081526020015f206040518060600160405290815f820154815260200160018201548152602001600282015f9054906101000a900460ff16151515158152505090508060400151610433576040517f08c379a000000000000000000000000000000000000000000000000000000000815260040161042a90611297565b60405180910390fd5b60025f9054906101000a900473ffffffffffffffffffffffffffffffffffffffff1673ffffffffffffffffffffffffffffffffffffffff166323b872dd336104796107c1565b845f01516040518463ffffffff1660e01b815260040161049b939291906112b5565b6020604051808303815f875af11580156104b7573d5f5f3e3d5ffd5b505050506040513d601f19601f820116820180604052508101906104db9190611314565b61051a576040517f08c379a000000000000000000000000000000000000000000000000000000000815260040161051190611389565b60405180910390fd5b604051806080016040528083815260200142815260200182602001514261054191906113d4565b81526020016001151581525060055f3373ffffffffffffffffffffffffffffffffffffffff1673ffffffffffffffffffffffffffffffffffffffff1681526020019081526020015f205f820151815f015560208201518160010155604082015181600201556060820151816003015f6101000a81548160ff021916908315150217905550905050813373ffffffffffffffffffffffffffffffffffffffff167f4b90d6788928d63c1821907a6a8b95f40d26562d8fe41b105f7489db9966dfcb60405160405180910390a350610615610de7565b50565b5f60055f3373ffffffffffffffffffffffffffffffffffffffff1673ffffffffffffffffffffffffffffffffffffffff1681526020019081526020015f209050806003015f9054906101000a900460ff166106a8576040517f08c379a000000000000000000000000000000000000000000000000000000000815260040161069f90611451565b60405180910390fd5b5f816003015f6101000a81548160ff0219169083151502179055503373ffffffffffffffffffffffffffffffffffffffff167f71215198e3f86c24dc3af6d0d7f84d0095e5ee736aa56daf9927fae51935e95d60405160405180910390a250565b60025f9054906101000a900473ffffffffffffffffffffffffffffffffffffffff1681565b60035481565b61073c610df0565b6003548110610780576040517f08c379a00000000000000000000000000000000000000000000000000000000081526004016107779061122f565b60405180910390fd5b5f60045f8381526020019081526020015f206002015f6101000a81548160ff02191690831515021790555050565b6107b6610df0565b6107bf5f610e77565b565b5f60015f9054906101000a900473ffffffffffffffffffffffffffffffffffffffff16905090565b6107f1610d9a565b5f60055f8373ffffffffffffffffffffffffffffffffffffffff1673ffffffffffffffffffffffffffffffffffffffff1681526020019081526020015f209050806003015f9054906101000a900460ff16610881576040517f08c379a0000000000000000000000000000000000000000000000000000000008152600401610878906114b9565b60405180910390fd5b80600201544210156108c8576040517f08c379a00000000000000000000000000000000000000000000000000000000081526004016108bf90611521565b60405180910390fd5b5f60045f835f015481526020019081526020015f206040518060600160405290815f820154815260200160018201548152602001600282015f9054906101000a900460ff1615151515815250509050806040015161095b576040517f08c379a000000000000000000000000000000000000000000000000000000000815260040161095290611297565b60405180910390fd5b60025f9054906101000a900473ffffffffffffffffffffffffffffffffffffffff1673ffffffffffffffffffffffffffffffffffffffff166323b872dd846109a16107c1565b845f01516040518463ffffffff1660e01b81526004016109c3939291906112b5565b6020604051808303815f875af11580156109df573d5f5f3e3d5ffd5b505050506040513d601f19601f82011682018060405250810190610a039190611314565b610a42576040517f08c379a0000000000000000000000000000000000000000000000000000000008152600401610a3990611589565b60405180910390fd5b8060200151826002015f828254610a5991906113d4565b925050819055508273ffffffffffffffffffffffffffffffffffffffff167fa5957fefb5b0f981554450d4d8dde003083cd202e3d5a2992e09c88ad1f0d791825f0151604051610aa99190611108565b60405180910390a25050610abb610de7565b50565b5f5f60055f8473ffffffffffffffffffffffffffffffffffffffff1673ffffffffffffffffffffffffffffffffffffffff1681526020019081526020015f206040518060800160405290815f82015481526020016001820154815260200160028201548152602001600382015f9054906101000a900460ff16151515158152505090508060600151610b53575f915050610b5f565b80604001514210159150505b919050565b6004602052805f5260405f205f91509050805f015490806001015490806002015f9054906101000a900460ff16905083565b610b9e610df0565b5f8211610be0576040517f08c379a0000000000000000000000000000000000000000000000000000000008152600401610bd7906115f1565b60405180910390fd5b5f8111610c22576040517f08c379a0000000000000000000000000000000000000000000000000000000008152600401610c1990611659565b60405180910390fd5b60405180606001604052808381526020018281526020016001151581525060045f60035481526020019081526020015f205f820151815f0155602082015181600101556040820151816002015f6101000a81548160ff0219169083151502179055509050506003547f3c23b7bbdb7ee0acd2bf877ca1c70aa85ad90f581c13076913998f20b6e1e9b98383604051610cbb929190611677565b60405180910390a260035f815480929190610cd59061169e565b91905055505050565b6005602052805f5260405f205f91509050805f015490806001015490806002015490806003015f9054906101000a900460ff16905084565b610d1e610df0565b5f73ffffffffffffffffffffffffffffffffffffffff168173ffffffffffffffffffffffffffffffffffffffff1603610d8e575f6040517f1e4fbdf7000000000000000000000000000000000000000000000000000000008152600401610d859190611130565b60405180910390fd5b610d9781610e77565b50565b60025f5403610dde576040517f08c379a0000000000000000000000000000000000000000000000000000000008152600401610dd59061172f565b60405180910390fd5b60025f81905550565b60015f81905550565b610df8610f3a565b73ffffffffffffffffffffffffffffffffffffffff16610e166107c1565b73ffffffffffffffffffffffffffffffffffffffff1614610e7557610e39610f3a565b6040517f118cdaa7000000000000000000000000000000000000000000000000000000008152600401610e6c9190611130565b60405180910390fd5b565b5f60015f9054906101000a900473ffffffffffffffffffffffffffffffffffffffff1690508160015f6101000a81548173ffffffffffffffffffffffffffffffffffffffff021916908373ffffffffffffffffffffffffffffffffffffffff1602179055508173ffffffffffffffffffffffffffffffffffffffff168173ffffffffffffffffffffffffffffffffffffffff167f8be0079c531659141344cd1fd0a4f28419497f9722a3daafe3b4186f6b6457e060405160405180910390a35050565b5f33905090565b5f5ffd5b5f73ffffffffffffffffffffffffffffffffffffffff82169050919050565b5f610f6e82610f45565b9050919050565b610f7e81610f64565b8114610f88575f5ffd5b50565b5f81359050610f9981610f75565b92915050565b5f60208284031215610fb457610fb3610f41565b5b5f610fc184828501610f8b565b91505092915050565b5f819050919050565b610fdc81610fca565b82525050565b5f8115159050919050565b610ff681610fe2565b82525050565b5f60808201905061100f5f830187610fd3565b61101c6020830186610fd3565b6110296040830185610fd3565b6110366060830184610fed565b95945050505050565b61104881610fca565b8114611052575f5ffd5b50565b5f813590506110638161103f565b92915050565b5f6020828403121561107e5761107d610f41565b5b5f61108b84828501611055565b91505092915050565b5f819050919050565b5f6110b76110b26110ad84610f45565b611094565b610f45565b9050919050565b5f6110c88261109d565b9050919050565b5f6110d9826110be565b9050919050565b6110e9816110cf565b82525050565b5f6020820190506111025f8301846110e0565b92915050565b5f60208201905061111b5f830184610fd3565b92915050565b61112a81610f64565b82525050565b5f6020820190506111435f830184611121565b92915050565b5f60208201905061115c5f830184610fed565b92915050565b5f6060820190506111755f830186610fd3565b6111826020830185610fd3565b61118f6040830184610fed565b949350505050565b5f5f604083850312156111ad576111ac610f41565b5b5f6111ba85828601611055565b92505060206111cb85828601611055565b9150509250929050565b5f82825260208201905092915050565b7f496e76616c696420706c616e00000000000000000000000000000000000000005f82015250565b5f611219600c836111d5565b9150611224826111e5565b602082019050919050565b5f6020820190508181035f8301526112468161120d565b9050919050565b7f506c616e20696e616374697665000000000000000000000000000000000000005f82015250565b5f611281600d836111d5565b915061128c8261124d565b602082019050919050565b5f6020820190508181035f8301526112ae81611275565b9050919050565b5f6060820190506112c85f830186611121565b6112d56020830185611121565b6112e26040830184610fd3565b949350505050565b6112f381610fe2565b81146112fd575f5ffd5b50565b5f8151905061130e816112ea565b92915050565b5f6020828403121561132957611328610f41565b5b5f61133684828501611300565b91505092915050565b7f496e697469616c207061796d656e74206661696c6564000000000000000000005f82015250565b5f6113736016836111d5565b915061137e8261133f565b602082019050919050565b5f6020820190508181035f8301526113a081611367565b9050919050565b7f4e487b71000000000000000000000000000000000000000000000000000000005f52601160045260245ffd5b5f6113de82610fca565b91506113e983610fca565b9250828201905080821115611401576114006113a7565b5b92915050565b7f4e6f2061637469766520737562736372697074696f6e000000000000000000005f82015250565b5f61143b6016836111d5565b915061144682611407565b602082019050919050565b5f6020820190508181035f8301526114688161142f565b9050919050565b7f537562736372697074696f6e20696e61637469766500000000000000000000005f82015250565b5f6114a36015836111d5565b91506114ae8261146f565b602082019050919050565b5f6020820190508181035f8301526114d081611497565b9050919050565b7f5061796d656e74206e6f742064756500000000000000000000000000000000005f82015250565b5f61150b600f836111d5565b9150611516826114d7565b602082019050919050565b5f6020820190508181035f830152611538816114ff565b9050919050565b7f5061796d656e74206661696c65640000000000000000000000000000000000005f82015250565b5f611573600e836111d5565b915061157e8261153f565b602082019050919050565b5f6020820190508181035f8301526115a081611567565b9050919050565b7f5072696365206d757374206265203e20300000000000000000000000000000005f82015250565b5f6115db6011836111d5565b91506115e6826115a7565b602082019050919050565b5f6020820190508181035f830152611608816115cf565b9050919050565b7f4475726174696f6e206d757374206265203e20300000000000000000000000005f82015250565b5f6116436014836111d5565b915061164e8261160f565b602082019050919050565b5f6020820190508181035f83015261167081611637565b9050919050565b5f60408201905061168a5f830185610fd3565b6116976020830184610fd3565b9392505050565b5f6116a882610fca565b91507fffffffffffffffffffffffffffffffffffffffffffffffffffffffffffffffff82036116da576116d96113a7565b5b600182019050919050565b7f5265656e7472616e637947756172643a207265656e7472616e742063616c6c005f82015250565b5f611719601f836111d5565b9150611724826116e5565b602082019050919050565b5f6020820190508181035f8301526117468161170d565b905091905056fea2646970667358221220fdcfc53c03f8bcde34968c8e88f83e5e0069ec0da13b9652fad601ea1aeafc1364736f6c634300081e0033",
					"opcodes": "PUSH1 0x80 PUSH1 0x40 MSTORE CALLVALUE DUP1 ISZERO PUSH2 0xF JUMPI PUSH0 PUSH0 REVERT JUMPDEST POP PUSH1 0x40 MLOAD PUSH2 0x1AE9 CODESIZE SUB DUP1 PUSH2 0x1AE9 DUP4 CODECOPY DUP2 DUP2 ADD PUSH1 0x40 MSTORE DUP2 ADD SWAP1 PUSH2 0x31 SWAP2 SWAP1 PUSH2 0x28E JUMP JUMPDEST CALLER PUSH1 0x1 PUSH0 DUP2 SWAP1 SSTORE POP PUSH0 PUSH20 0xFFFFFFFFFFFFFFFFFFFFFFFFFFFFFFFFFFFFFFFF AND DUP2 PUSH20 0xFFFFFFFFFFFFFFFFFFFFFFFFFFFFFFFFFFFFFFFF AND SUB PUSH2 0xA9 JUMPI PUSH0 PUSH1 0x40 MLOAD PUSH32 0x1E4FBDF700000000000000000000000000000000000000000000000000000000 DUP2 MSTORE PUSH1 0x4 ADD PUSH2 0xA0 SWAP2 SWAP1 PUSH2 0x2C8 JUMP JUMPDEST PUSH1 0x40 MLOAD DUP1 SWAP2 SUB SWAP1 REVERT JUMPDEST PUSH2 0xB8 DUP2 PUSH2 0x16D PUSH1 0x20 SHL PUSH1 0x20 SHR JUMP JUMPDEST POP PUSH0 PUSH20 0xFFFFFFFFFFFFFFFFFFFFFFFFFFFFFFFFFFFFFFFF AND DUP2 PUSH20 0xFFFFFFFFFFFFFFFFFFFFFFFFFFFFFFFFFFFFFFFF AND SUB PUSH2 0x127 JUMPI PUSH1 0x40 MLOAD PUSH32 0x8C379A000000000000000000000000000000000000000000000000000000000 DUP2 MSTORE PUSH1 0x4 ADD PUSH2 0x11E SWAP1 PUSH2 0x33B JUMP JUMPDEST PUSH1 0x40 MLOAD DUP1 SWAP2 SUB SWAP1 REVERT JUMPDEST DUP1 PUSH1 0x2 PUSH0 PUSH2 0x100 EXP DUP2 SLOAD DUP2 PUSH20 0xFFFFFFFFFFFFFFFFFFFFFFFFFFFFFFFFFFFFFFFF MUL NOT AND SWAP1 DUP4 PUSH20 0xFFFFFFFFFFFFFFFFFFFFFFFFFFFFFFFFFFFFFFFF AND MUL OR SWAP1 SSTORE POP POP PUSH2 0x359 JUMP JUMPDEST PUSH0 PUSH1 0x1 PUSH0 SWAP1 SLOAD SWAP1 PUSH2 0x100 EXP SWAP1 DIV PUSH20 0xFFFFFFFFFFFFFFFFFFFFFFFFFFFFFFFFFFFFFFFF AND SWAP1 POP DUP2 PUSH1 0x1 PUSH0 PUSH2 0x100 EXP DUP2 SLOAD DUP2 PUSH20 0xFFFFFFFFFFFFFFFFFFFFFFFFFFFFFFFFFFFFFFFF MUL NOT AND SWAP1 DUP4 PUSH20 0xFFFFFFFFFFFFFFFFFFFFFFFFFFFFFFFFFFFFFFFF AND MUL OR SWAP1 SSTORE POP DUP2 PUSH20 0xFFFFFFFFFFFFFFFFFFFFFFFFFFFFFFFFFFFFFFFF AND DUP2 PUSH20 0xFFFFFFFFFFFFFFFFFFFFFFFFFFFFFFFFFFFFFFFF AND PUSH32 0x8BE0079C531659141344CD1FD0A4F28419497F9722A3DAAFE3B4186F6B6457E0 PUSH1 0x40 MLOAD PUSH1 0x40 MLOAD DUP1 SWAP2 SUB SWAP1 LOG3 POP POP JUMP JUMPDEST PUSH0 PUSH0 REVERT JUMPDEST PUSH0 PUSH20 0xFFFFFFFFFFFFFFFFFFFFFFFFFFFFFFFFFFFFFFFF DUP3 AND SWAP1 POP SWAP2 SWAP1 POP JUMP JUMPDEST PUSH0 PUSH2 0x25D DUP3 PUSH2 0x234 JUMP JUMPDEST SWAP1 POP SWAP2 SWAP1 POP JUMP JUMPDEST PUSH2 0x26D DUP2 PUSH2 0x253 JUMP JUMPDEST DUP2 EQ PUSH2 0x277 JUMPI PUSH0 PUSH0 REVERT JUMPDEST POP JUMP JUMPDEST PUSH0 DUP2 MLOAD SWAP1 POP PUSH2 0x288 DUP2 PUSH2 0x264 JUMP JUMPDEST SWAP3 SWAP2 POP POP JUMP JUMPDEST PUSH0 PUSH1 0x20 DUP3 DUP5 SUB SLT ISZERO PUSH2 0x2A3 JUMPI PUSH2 0x2A2 PUSH2 0x230 JUMP JUMPDEST JUMPDEST PUSH0 PUSH2 0x2B0 DUP5 DUP3 DUP6 ADD PUSH2 0x27A JUMP JUMPDEST SWAP2 POP POP SWAP3 SWAP2 POP POP JUMP JUMPDEST PUSH2 0x2C2 DUP2 PUSH2 0x253 JUMP JUMPDEST DUP3 MSTORE POP POP JUMP JUMPDEST PUSH0 PUSH1 0x20 DUP3 ADD SWAP1 POP PUSH2 0x2DB PUSH0 DUP4 ADD DUP5 PUSH2 0x2B9 JUMP JUMPDEST SWAP3 SWAP2 POP POP JUMP JUMPDEST PUSH0 DUP3 DUP3 MSTORE PUSH1 0x20 DUP3 ADD SWAP1 POP SWAP3 SWAP2 POP POP JUMP JUMPDEST PUSH32 0x496E76616C696420746F6B656E20616464726573730000000000000000000000 PUSH0 DUP3 ADD MSTORE POP JUMP JUMPDEST PUSH0 PUSH2 0x325 PUSH1 0x15 DUP4 PUSH2 0x2E1 JUMP JUMPDEST SWAP2 POP PUSH2 0x330 DUP3 PUSH2 0x2F1 JUMP JUMPDEST PUSH1 0x20 DUP3 ADD SWAP1 POP SWAP2 SWAP1 POP JUMP JUMPDEST PUSH0 PUSH1 0x20 DUP3 ADD SWAP1 POP DUP2 DUP2 SUB PUSH0 DUP4 ADD MSTORE PUSH2 0x352 DUP2 PUSH2 0x319 JUMP JUMPDEST SWAP1 POP SWAP2 SWAP1 POP JUMP JUMPDEST PUSH2 0x1783 DUP1 PUSH2 0x366 PUSH0 CODECOPY PUSH0 RETURN INVALID PUSH1 0x80 PUSH1 0x40 MSTORE CALLVALUE DUP1 ISZERO PUSH2 0xF JUMPI PUSH0 PUSH0 REVERT JUMPDEST POP PUSH1 0x4 CALLDATASIZE LT PUSH2 0xE8 JUMPI PUSH0 CALLDATALOAD PUSH1 0xE0 SHR DUP1 PUSH4 0x8DA5CB5B GT PUSH2 0x8A JUMPI DUP1 PUSH4 0xB1620616 GT PUSH2 0x64 JUMPI DUP1 PUSH4 0xB1620616 EQ PUSH2 0x211 JUMPI DUP1 PUSH4 0xB197DF54 EQ PUSH2 0x243 JUMPI DUP1 PUSH4 0xF046395A EQ PUSH2 0x25F JUMPI DUP1 PUSH4 0xF2FDE38B EQ PUSH2 0x292 JUMPI PUSH2 0xE8 JUMP JUMPDEST DUP1 PUSH4 0x8DA5CB5B EQ PUSH2 0x1A7 JUMPI DUP1 PUSH4 0x8FE123D7 EQ PUSH2 0x1C5 JUMPI DUP1 PUSH4 0x97AD7E02 EQ PUSH2 0x1E1 JUMPI PUSH2 0xE8 JUMP JUMPDEST DUP1 PUSH4 0x3013CE29 GT PUSH2 0xC6 JUMPI DUP1 PUSH4 0x3013CE29 EQ PUSH2 0x145 JUMPI DUP1 PUSH4 0x382D39BB EQ PUSH2 0x163 JUMPI DUP1 PUSH4 0x6174BC63 EQ PUSH2 0x181 JUMPI DUP1 PUSH4 0x715018A6 EQ PUSH2 0x19D JUMPI PUSH2 0xE8 JUMP JUMPDEST DUP1 PUSH4 0xCBEBC24 EQ PUSH2 0xEC JUMPI DUP1 PUSH4 0xF574BA7 EQ PUSH2 0x11F JUMPI DUP1 PUSH4 0x24E9EDB0 EQ PUSH2 0x13B JUMPI JUMPDEST PUSH0 PUSH0 REVERT JUMPDEST PUSH2 0x106 PUSH1 0x4 DUP1 CALLDATASIZE SUB DUP2 ADD SWAP1 PUSH2 0x101 SWAP2 SWAP1 PUSH2 0xF9F JUMP JUMPDEST PUSH2 0x2AE JUMP JUMPDEST PUSH1 0x40 MLOAD PUSH2 0x116 SWAP5 SWAP4 SWAP3 SWAP2 SWAP1 PUSH2 0xFFC JUMP JUMPDEST PUSH1 0x40 MLOAD DUP1 SWAP2 SUB SWAP1 RETURN JUMPDEST PUSH2 0x139 PUSH1 0x4 DUP1 CALLDATASIZE SUB DUP2 ADD SWAP1 PUSH2 0x134 SWAP2 SWAP1 PUSH2 0x1069 JUMP JUMPDEST PUSH2 0x357 JUMP JUMPDEST STOP JUMPDEST PUSH2 0x143 PUSH2 0x618 JUMP JUMPDEST STOP JUMPDEST PUSH2 0x14D PUSH2 0x709 JUMP JUMPDEST PUSH1 0x40 MLOAD PUSH2 0x15A SWAP2 SWAP1 PUSH2 0x10EF JUMP JUMPDEST PUSH1 0x40 MLOAD DUP1 SWAP2 SUB SWAP1 RETURN JUMPDEST PUSH2 0x16B PUSH2 0x72E JUMP JUMPDEST PUSH1 0x40 MLOAD PUSH2 0x178 SWAP2 SWAP1 PUSH2 0x1108 JUMP JUMPDEST PUSH1 0x40 MLOAD DUP1 SWAP2 SUB SWAP1 RETURN JUMPDEST PUSH2 0x19B PUSH1 0x4 DUP1 CALLDATASIZE SUB DUP2 ADD SWAP1 PUSH2 0x196 SWAP2 SWAP1 PUSH2 0x1069 JUMP JUMPDEST PUSH2 0x734 JUMP JUMPDEST STOP JUMPDEST PUSH2 0x1A5 PUSH2 0x7AE JUMP JUMPDEST STOP JUMPDEST PUSH2 0x1AF PUSH2 0x7C1 JUMP JUMPDEST PUSH1 0x40 MLOAD PUSH2 0x1BC SWAP2 SWAP1 PUSH2 0x1130 JUMP JUMPDEST PUSH1 0x40 MLOAD DUP1 SWAP2 SUB SWAP1 RETURN JUMPDEST PUSH2 0x1DF PUSH1 0x4 DUP1 CALLDATASIZE SUB DUP2 ADD SWAP1 PUSH2 0x1DA SWAP2 SWAP1 PUSH2 0xF9F JUMP JUMPDEST PUSH2 0x7E9 JUMP JUMPDEST STOP JUMPDEST PUSH2 0x1FB PUSH1 0x4 DUP1 CALLDATASIZE SUB DUP2 ADD SWAP1 PUSH2 0x1F6 SWAP2 SWAP1 PUSH2 0xF9F JUMP JUMPDEST PUSH2 0xABE JUMP JUMPDEST PUSH1 0x40 MLOAD PUSH2 0x208 SWAP2 SWAP1 PUSH2 0x1149 JUMP JUMPDEST PUSH1 0x40 MLOAD DUP1 SWAP2 SUB SWAP1 RETURN JUMPDEST PUSH2 0x22B PUSH1 0x4 DUP1 CALLDATASIZE SUB DUP2 ADD SWAP1 PUSH2 0x226 SWAP2 SWAP1 PUSH2 0x1069 JUMP JUMPDEST PUSH2 0xB64 JUMP JUMPDEST PUSH1 0x40 MLOAD PUSH2 0x23A SWAP4 SWAP3 SWAP2 SWAP1 PUSH2 0x1162 JUMP JUMPDEST PUSH1 0x40 MLOAD DUP1 SWAP2 SUB SWAP1 RETURN JUMPDEST PUSH2 0x25D PUSH1 0x4 DUP1 CALLDATASIZE SUB DUP2 ADD SWAP1 PUSH2 0x258 SWAP2 SWAP1 PUSH2 0x1197 JUMP JUMPDEST PUSH2 0xB96 JUMP JUMPDEST STOP JUMPDEST PUSH2 0x279 PUSH1 0x4 DUP1 CALLDATASIZE SUB DUP2 ADD SWAP1 PUSH2 0x274 SWAP2 SWAP1 PUSH2 0xF9F JUMP JUMPDEST PUSH2 0xCDE JUMP JUMPDEST PUSH1 0x40 MLOAD PUSH2 0x289 SWAP5 SWAP4 SWAP3 SWAP2 SWAP1 PUSH2 0xFFC JUMP JUMPDEST PUSH1 0x40 MLOAD DUP1 SWAP2 SUB SWAP1 RETURN JUMPDEST PUSH2 0x2AC PUSH1 0x4 DUP1 CALLDATASIZE SUB DUP2 ADD SWAP1 PUSH2 0x2A7 SWAP2 SWAP1 PUSH2 0xF9F JUMP JUMPDEST PUSH2 0xD16 JUMP JUMPDEST STOP JUMPDEST PUSH0 PUSH0 PUSH0 PUSH0 PUSH0 PUSH1 0x5 PUSH0 DUP8 PUSH20 0xFFFFFFFFFFFFFFFFFFFFFFFFFFFFFFFFFFFFFFFF AND PUSH20 0xFFFFFFFFFFFFFFFFFFFFFFFFFFFFFFFFFFFFFFFF AND DUP2 MSTORE PUSH1 0x20 ADD SWAP1 DUP2 MSTORE PUSH1 0x20 ADD PUSH0 KECCAK256 PUSH1 0x40 MLOAD DUP1 PUSH1 0x80 ADD PUSH1 0x40 MSTORE SWAP1 DUP2 PUSH0 DUP3 ADD SLOAD DUP2 MSTORE PUSH1 0x20 ADD PUSH1 0x1 DUP3 ADD SLOAD DUP2 MSTORE PUSH1 0x20 ADD PUSH1 0x2 DUP3 ADD SLOAD DUP2 MSTORE PUSH1 0x20 ADD PUSH1 0x3 DUP3 ADD PUSH0 SWAP1 SLOAD SWAP1 PUSH2 0x100 EXP SWAP1 DIV PUSH1 0xFF AND ISZERO ISZERO ISZERO ISZERO DUP2 MSTORE POP POP SWAP1 POP DUP1 PUSH0 ADD MLOAD DUP2 PUSH1 0x20 ADD MLOAD DUP3 PUSH1 0x40 ADD MLOAD DUP4 PUSH1 0x60 ADD MLOAD SWAP5 POP SWAP5 POP SWAP5 POP SWAP5 POP POP SWAP2 SWAP4 POP SWAP2 SWAP4 JUMP JUMPDEST PUSH2 0x35F PUSH2 0xD9A JUMP JUMPDEST PUSH1 0x3 SLOAD DUP2 LT PUSH2 0x3A3 JUMPI PUSH1 0x40 MLOAD PUSH32 0x8C379A000000000000000000000000000000000000000000000000000000000 DUP2 MSTORE PUSH1 0x4 ADD PUSH2 0x39A SWAP1 PUSH2 0x122F JUMP JUMPDEST PUSH1 0x40 MLOAD DUP1 SWAP2 SUB SWAP1 REVERT JUMPDEST PUSH0 PUSH1 0x4 PUSH0 DUP4 DUP2 MSTORE PUSH1 0x20 ADD SWAP1 DUP2 MSTORE PUSH1 0x20 ADD PUSH0 KECCAK256 PUSH1 0x40 MLOAD DUP1 PUSH1 0x60 ADD PUSH1 0x40 MSTORE SWAP1 DUP2 PUSH0 DUP3 ADD SLOAD DUP2 MSTORE PUSH1 0x20 ADD PUSH1 0x1 DUP3 ADD SLOAD DUP2 MSTORE PUSH1 0x20 ADD PUSH1 0x2 DUP3 ADD PUSH0 SWAP1 SLOAD SWAP1 PUSH2 0x100 EXP SWAP1 DIV PUSH1 0xFF AND ISZERO ISZERO ISZERO ISZERO DUP2 MSTORE POP POP SWAP1 POP DUP1 PUSH1 0x40 ADD MLOAD PUSH2 0x433 JUMPI PUSH1 0x40 MLOAD PUSH32 0x8C379A000000000000000000000000000000000000000000000000000000000 DUP2 MSTORE PUSH1 0x4 ADD PUSH2 0x42A SWAP1 PUSH2 0x1297 JUMP JUMPDEST PUSH1 0x40 MLOAD DUP1 SWAP2 SUB SWAP1 REVERT JUMPDEST PUSH1 0x2 PUSH0 SWAP1 SLOAD SWAP1 PUSH2 0x100 EXP SWAP1 DIV PUSH20 0xFFFFFFFFFFFFFFFFFFFFFFFFFFFFFFFFFFFFFFFF AND PUSH20 0xFFFFFFFFFFFFFFFFFFFFFFFFFFFFFFFFFFFFFFFF AND PUSH4 0x23B872DD CALLER PUSH2 0x479 PUSH2 0x7C1 JUMP JUMPDEST DUP5 PUSH0 ADD MLOAD PUSH1 0x40 MLOAD DUP5 PUSH4 0xFFFFFFFF AND PUSH1 0xE0 SHL DUP2 MSTORE PUSH1 0x4 ADD PUSH2 0x49B SWAP4 SWAP3 SWAP2 SWAP1 PUSH2 0x12B5 JUMP JUMPDEST PUSH1 0x20 PUSH1 0x40 MLOAD DUP1 DUP4 SUB DUP2 PUSH0 DUP8 GAS CALL ISZERO DUP1 ISZERO PUSH2 0x4B7 JUMPI RETURNDATASIZE PUSH0 PUSH0 RETURNDATACOPY RETURNDATASIZE PUSH0 REVERT JUMPDEST POP POP POP POP PUSH1 0x40 MLOAD RETURNDATASIZE PUSH1 0x1F NOT PUSH1 0x1F DUP3 ADD AND DUP3 ADD DUP1 PUSH1 0x40 MSTORE POP DUP2 ADD SWAP1 PUSH2 0x4DB SWAP2 SWAP1 PUSH2 0x1314 JUMP JUMPDEST PUSH2 0x51A JUMPI PUSH1 0x40 MLOAD PUSH32 0x8C379A000000000000000000000000000000000000000000000000000000000 DUP2 MSTORE PUSH1 0x4 ADD PUSH2 0x511 SWAP1 PUSH2 0x1389 JUMP JUMPDEST PUSH1 0x40 MLOAD DUP1 SWAP2 SUB SWAP1 REVERT JUMPDEST PUSH1 0x40 MLOAD DUP1 PUSH1 0x80 ADD PUSH1 0x40 MSTORE DUP1 DUP4 DUP2 MSTORE PUSH1 0x20 ADD TIMESTAMP DUP2 MSTORE PUSH1 0x20 ADD DUP3 PUSH1 0x20 ADD MLOAD TIMESTAMP PUSH2 0x541 SWAP2 SWAP1 PUSH2 0x13D4 JUMP JUMPDEST DUP2 MSTORE PUSH1 0x20 ADD PUSH1 0x1 ISZERO ISZERO DUP2 MSTORE POP PUSH1 0x5 PUSH0 CALLER PUSH20 0xFFFFFFFFFFFFFFFFFFFFFFFFFFFFFFFFFFFFFFFF AND PUSH20 0xFFFFFFFFFFFFFFFFFFFFFFFFFFFFFFFFFFFFFFFF AND DUP2 MSTORE PUSH1 0x20 ADD SWAP1 DUP2 MSTORE PUSH1 0x20 ADD PUSH0 KECCAK256 PUSH0 DUP3 ADD MLOAD DUP2 PUSH0 ADD SSTORE PUSH1 0x20 DUP3 ADD MLOAD DUP2 PUSH1 0x1 ADD SSTORE PUSH1 0x40 DUP3 ADD MLOAD DUP2 PUSH1 0x2 ADD SSTORE PUSH1 0x60 DUP3 ADD MLOAD DUP2 PUSH1 0x3 ADD PUSH0 PUSH2 0x100 EXP DUP2 SLOAD DUP2 PUSH1 0xFF MUL NOT AND SWAP1 DUP4 ISZERO ISZERO MUL OR SWAP1 SSTORE POP SWAP1 POP POP DUP2 CALLER PUSH20 0xFFFFFFFFFFFFFFFFFFFFFFFFFFFFFFFFFFFFFFFF AND PUSH32 0x4B90D6788928D63C1821907A6A8B95F40D26562D8FE41B105F7489DB9966DFCB PUSH1 0x40 MLOAD PUSH1 0x40 MLOAD DUP1 SWAP2 SUB SWAP1 LOG3 POP PUSH2 0x615 PUSH2 0xDE7 JUMP JUMPDEST POP JUMP JUMPDEST PUSH0 PUSH1 0x5 PUSH0 CALLER PUSH20 0xFFFFFFFFFFFFFFFFFFFFFFFFFFFFFFFFFFFFFFFF AND PUSH20 0xFFFFFFFFFFFFFFFFFFFFFFFFFFFFFFFFFFFFFFFF AND DUP2 MSTORE PUSH1 0x20 ADD SWAP1 DUP2 MSTORE PUSH1 0x20 ADD PUSH0 KECCAK256 SWAP1 POP DUP1 PUSH1 0x3 ADD PUSH0 SWAP1 SLOAD SWAP1 PUSH2 0x100 EXP SWAP1 DIV PUSH1 0xFF AND PUSH2 0x6A8 JUMPI PUSH1 0x40 MLOAD PUSH32 0x8C379A000000000000000000000000000000000000000000000000000000000 DUP2 MSTORE PUSH1 0x4 ADD PUSH2 0x69F SWAP1 PUSH2 0x1451 JUMP JUMPDEST PUSH1 0x40 MLOAD DUP1 SWAP2 SUB SWAP1 REVERT JUMPDEST PUSH0 DUP2 PUSH1 0x3 ADD PUSH0 PUSH2 0x100 EXP DUP2 SLOAD DUP2 PUSH1 0xFF MUL NOT AND SWAP1 DUP4 ISZERO ISZERO MUL OR SWAP1 SSTORE POP CALLER PUSH20 0xFFFFFFFFFFFFFFFFFFFFFFFFFFFFFFFFFFFFFFFF AND PUSH32 0x71215198E3F86C24DC3AF6D0D7F84D0095E5EE736AA56DAF9927FAE51935E95D PUSH1 0x40 MLOAD PUSH1 0x40 MLOAD DUP1 SWAP2 SUB SWAP1 LOG2 POP JUMP JUMPDEST PUSH1 0x2 PUSH0 SWAP1 SLOAD SWAP1 PUSH2 0x100 EXP SWAP1 DIV PUSH20 0xFFFFFFFFFFFFFFFFFFFFFFFFFFFFFFFFFFFFFFFF AND DUP2 JUMP JUMPDEST PUSH1 0x3 SLOAD DUP2 JUMP JUMPDEST PUSH2 0x73C PUSH2 0xDF0 JUMP JUMPDEST PUSH1 0x3 SLOAD DUP2 LT PUSH2 0x780 JUMPI PUSH1 0x40 MLOAD PUSH32 0x8C379A000000000000000000000000000000000000000000000000000000000 DUP2 MSTORE PUSH1 0x4 ADD PUSH2 0x777 SWAP1 PUSH2 0x122F JUMP JUMPDEST PUSH1 0x40 MLOAD DUP1 SWAP2 SUB SWAP1 REVERT JUMPDEST PUSH0 PUSH1 0x4 PUSH0 DUP4 DUP2 MSTORE PUSH1 0x20 ADD SWAP1 DUP2 MSTORE PUSH1 0x20 ADD PUSH0 KECCAK256 PUSH1 0x2 ADD PUSH0 PUSH2 0x100 EXP DUP2 SLOAD DUP2 PUSH1 0xFF MUL NOT AND SWAP1 DUP4 ISZERO ISZERO MUL OR SWAP1 SSTORE POP POP JUMP JUMPDEST PUSH2 0x7B6 PUSH2 0xDF0 JUMP JUMPDEST PUSH2 0x7BF PUSH0 PUSH2 0xE77 JUMP JUMPDEST JUMP JUMPDEST PUSH0 PUSH1 0x1 PUSH0 SWAP1 SLOAD SWAP1 PUSH2 0x100 EXP SWAP1 DIV PUSH20 0xFFFFFFFFFFFFFFFFFFFFFFFFFFFFFFFFFFFFFFFF AND SWAP1 POP SWAP1 JUMP JUMPDEST PUSH2 0x7F1 PUSH2 0xD9A JUMP JUMPDEST PUSH0 PUSH1 0x5 PUSH0 DUP4 PUSH20 0xFFFFFFFFFFFFFFFFFFFFFFFFFFFFFFFFFFFFFFFF AND PUSH20 0xFFFFFFFFFFFFFFFFFFFFFFFFFFFFFFFFFFFFFFFF AND DUP2 MSTORE PUSH1 0x20 ADD SWAP1 DUP2 MSTORE PUSH1 0x20 ADD PUSH0 KECCAK256 SWAP1 POP DUP1 PUSH1 0x3 ADD PUSH0 SWAP1 SLOAD SWAP1 PUSH2 0x100 EXP SWAP1 DIV PUSH1 0xFF AND PUSH2 0x881 JUMPI PUSH1 0x40 MLOAD PUSH32 0x8C379A000000000000000000000000000000000000000000000000000000000 DUP2 MSTORE PUSH1 0x4 ADD PUSH2 0x878 SWAP1 PUSH2 0x14B9 JUMP JUMPDEST PUSH1 0x40 MLOAD DUP1 SWAP2 SUB SWAP1 REVERT JUMPDEST DUP1 PUSH1 0x2 ADD SLOAD TIMESTAMP LT ISZERO PUSH2 0x8C8 JUMPI PUSH1 0x40 MLOAD PUSH32 0x8C379A000000000000000000000000000000000000000000000000000000000 DUP2 MSTORE PUSH1 0x4 ADD PUSH2 0x8BF SWAP1 PUSH2 0x1521 JUMP JUMPDEST PUSH1 0x40 MLOAD DUP1 SWAP2 SUB SWAP1 REVERT JUMPDEST PUSH0 PUSH1 0x4 PUSH0 DUP4 PUSH0 ADD SLOAD DUP2 MSTORE PUSH1 0x20 ADD SWAP1 DUP2 MSTORE PUSH1 0x20 ADD PUSH0 KECCAK256 PUSH1 0x40 MLOAD DUP1 PUSH1 0x60 ADD PUSH1 0x40 MSTORE SWAP1 DUP2 PUSH0 DUP3 ADD SLOAD DUP2 MSTORE PUSH1 0x20 ADD PUSH1 0x1 DUP3 ADD SLOAD DUP2 MSTORE PUSH1 0x20 ADD PUSH1 0x2 DUP3 ADD PUSH0 SWAP1 SLOAD SWAP1 PUSH2 0x100 EXP SWAP1 DIV PUSH1 0xFF AND ISZERO ISZERO ISZERO ISZERO DUP2 MSTORE POP POP SWAP1 POP DUP1 PUSH1 0x40 ADD MLOAD PUSH2 0x95B JUMPI PUSH1 0x40 MLOAD PUSH32 0x8C379A000000000000000000000000000000000000000000000000000000000 DUP2 MSTORE PUSH1 0x4 ADD PUSH2 0x952 SWAP1 PUSH2 0x1297 JUMP JUMPDEST PUSH1 0x40 MLOAD DUP1 SWAP2 SUB SWAP1 REVERT JUMPDEST PUSH1 0x2 PUSH0 SWAP1 SLOAD SWAP1 PUSH2 0x100 EXP SWAP1 DIV PUSH20 0xFFFFFFFFFFFFFFFFFFFFFFFFFFFFFFFFFFFFFFFF AND PUSH20 0xFFFFFFFFFFFFFFFFFFFFFFFFFFFFFFFFFFFFFFFF AND PUSH4 0x23B872DD DUP5 PUSH2 0x9A1 PUSH2 0x7C1 JUMP JUMPDEST DUP5 PUSH0 ADD MLOAD PUSH1 0x40 MLOAD DUP5 PUSH4 0xFFFFFFFF AND PUSH1 0xE0 SHL DUP2 MSTORE PUSH1 0x4 ADD PUSH2 0x9C3 SWAP4 SWAP3 SWAP2 SWAP1 PUSH2 0x12B5 JUMP JUMPDEST PUSH1 0x20 PUSH1 0x40 MLOAD DUP1 DUP4 SUB DUP2 PUSH0 DUP8 GAS CALL ISZERO DUP1 ISZERO PUSH2 0x9DF JUMPI RETURNDATASIZE PUSH0 PUSH0 RETURNDATACOPY RETURNDATASIZE PUSH0 REVERT JUMPDEST POP POP POP POP PUSH1 0x40 MLOAD RETURNDATASIZE PUSH1 0x1F NOT PUSH1 0x1F DUP3 ADD AND DUP3 ADD DUP1 PUSH1 0x40 MSTORE POP DUP2 ADD SWAP1 PUSH2 0xA03 SWAP2 SWAP1 PUSH2 0x1314 JUMP JUMPDEST PUSH2 0xA42 JUMPI PUSH1 0x40 MLOAD PUSH32 0x8C379A000000000000000000000000000000000000000000000000000000000 DUP2 MSTORE PUSH1 0x4 ADD PUSH2 0xA39 SWAP1 PUSH2 0x1589 JUMP JUMPDEST PUSH1 0x40 MLOAD DUP1 SWAP2 SUB SWAP1 REVERT JUMPDEST DUP1 PUSH1 0x20 ADD MLOAD DUP3 PUSH1 0x2 ADD PUSH0 DUP3 DUP3 SLOAD PUSH2 0xA59 SWAP2 SWAP1 PUSH2 0x13D4 JUMP JUMPDEST SWAP3 POP POP DUP2 SWAP1 SSTORE POP DUP3 PUSH20 0xFFFFFFFFFFFFFFFFFFFFFFFFFFFFFFFFFFFFFFFF AND PUSH32 0xA5957FEFB5B0F981554450D4D8DDE003083CD202E3D5A2992E09C88AD1F0D791 DUP3 PUSH0 ADD MLOAD PUSH1 0x40 MLOAD PUSH2 0xAA9 SWAP2 SWAP1 PUSH2 0x1108 JUMP JUMPDEST PUSH1 0x40 MLOAD DUP1 SWAP2 SUB SWAP1 LOG2 POP POP PUSH2 0xABB PUSH2 0xDE7 JUMP JUMPDEST POP JUMP JUMPDEST PUSH0 PUSH0 PUSH1 0x5 PUSH0 DUP5 PUSH20 0xFFFFFFFFFFFFFFFFFFFFFFFFFFFFFFFFFFFFFFFF AND PUSH20 0xFFFFFFFFFFFFFFFFFFFFFFFFFFFFFFFFFFFFFFFF AND DUP2 MSTORE PUSH1 0x20 ADD SWAP1 DUP2 MSTORE PUSH1 0x20 ADD PUSH0 KECCAK256 PUSH1 0x40 MLOAD DUP1 PUSH1 0x80 ADD PUSH1 0x40 MSTORE SWAP1 DUP2 PUSH0 DUP3 ADD SLOAD DUP2 MSTORE PUSH1 0x20 ADD PUSH1 0x1 DUP3 ADD SLOAD DUP2 MSTORE PUSH1 0x20 ADD PUSH1 0x2 DUP3 ADD SLOAD DUP2 MSTORE PUSH1 0x20 ADD PUSH1 0x3 DUP3 ADD PUSH0 SWAP1 SLOAD SWAP1 PUSH2 0x100 EXP SWAP1 DIV PUSH1 0xFF AND ISZERO ISZERO ISZERO ISZERO DUP2 MSTORE POP POP SWAP1 POP DUP1 PUSH1 0x60 ADD MLOAD PUSH2 0xB53 JUMPI PUSH0 SWAP2 POP POP PUSH2 0xB5F JUMP JUMPDEST DUP1 PUSH1 0x40 ADD MLOAD TIMESTAMP LT ISZERO SWAP2 POP POP JUMPDEST SWAP2 SWAP1 POP JUMP JUMPDEST PUSH1 0x4 PUSH1 0x20 MSTORE DUP1 PUSH0 MSTORE PUSH1 0x40 PUSH0 KECCAK256 PUSH0 SWAP2 POP SWAP1 POP DUP1 PUSH0 ADD SLOAD SWAP1 DUP1 PUSH1 0x1 ADD SLOAD SWAP1 DUP1 PUSH1 0x2 ADD PUSH0 SWAP1 SLOAD SWAP1 PUSH2 0x100 EXP SWAP1 DIV PUSH1 0xFF AND SWAP1 POP DUP4 JUMP JUMPDEST PUSH2 0xB9E PUSH2 0xDF0 JUMP JUMPDEST PUSH0 DUP3 GT PUSH2 0xBE0 JUMPI PUSH1 0x40 MLOAD PUSH32 0x8C379A000000000000000000000000000000000000000000000000000000000 DUP2 MSTORE PUSH1 0x4 ADD PUSH2 0xBD7 SWAP1 PUSH2 0x15F1 JUMP JUMPDEST PUSH1 0x40 MLOAD DUP1 SWAP2 SUB SWAP1 REVERT JUMPDEST PUSH0 DUP2 GT PUSH2 0xC22 JUMPI PUSH1 0x40 MLOAD PUSH32 0x8C379A000000000000000000000000000000000000000000000000000000000 DUP2 MSTORE PUSH1 0x4 ADD PUSH2 0xC19 SWAP1 PUSH2 0x1659 JUMP JUMPDEST PUSH1 0x40 MLOAD DUP1 SWAP2 SUB SWAP1 REVERT JUMPDEST PUSH1 0x40 MLOAD DUP1 PUSH1 0x60 ADD PUSH1 0x40 MSTORE DUP1 DUP4 DUP2 MSTORE PUSH1 0x20 ADD DUP3 DUP2 MSTORE PUSH1 0x20 ADD PUSH1 0x1 ISZERO ISZERO DUP2 MSTORE POP PUSH1 0x4 PUSH0 PUSH1 0x3 SLOAD DUP2 MSTORE PUSH1 0x20 ADD SWAP1 DUP2 MSTORE PUSH1 0x20 ADD PUSH0 KECCAK256 PUSH0 DUP3 ADD MLOAD DUP2 PUSH0 ADD SSTORE PUSH1 0x20 DUP3 ADD MLOAD DUP2 PUSH1 0x1 ADD SSTORE PUSH1 0x40 DUP3 ADD MLOAD DUP2 PUSH1 0x2 ADD PUSH0 PUSH2 0x100 EXP DUP2 SLOAD DUP2 PUSH1 0xFF MUL NOT AND SWAP1 DUP4 ISZERO ISZERO MUL OR SWAP1 SSTORE POP SWAP1 POP POP PUSH1 0x3 SLOAD PUSH32 0x3C23B7BBDB7EE0ACD2BF877CA1C70AA85AD90F581C13076913998F20B6E1E9B9 DUP4 DUP4 PUSH1 0x40 MLOAD PUSH2 0xCBB SWAP3 SWAP2 SWAP1 PUSH2 0x1677 JUMP JUMPDEST PUSH1 0x40 MLOAD DUP1 SWAP2 SUB SWAP1 LOG2 PUSH1 0x3 PUSH0 DUP2 SLOAD DUP1 SWAP3 SWAP2 SWAP1 PUSH2 0xCD5 SWAP1 PUSH2 0x169E JUMP JUMPDEST SWAP2 SWAP1 POP SSTORE POP POP POP JUMP JUMPDEST PUSH1 0x5 PUSH1 0x20 MSTORE DUP1 PUSH0 MSTORE PUSH1 0x40 PUSH0 KECCAK256 PUSH0 SWAP2 POP SWAP1 POP DUP1 PUSH0 ADD SLOAD SWAP1 DUP1 PUSH1 0x1 ADD SLOAD SWAP1 DUP1 PUSH1 0x2 ADD SLOAD SWAP1 DUP1 PUSH1 0x3 ADD PUSH0 SWAP1 SLOAD SWAP1 PUSH2 0x100 EXP SWAP1 DIV PUSH1 0xFF AND SWAP1 POP DUP5 JUMP JUMPDEST PUSH2 0xD1E PUSH2 0xDF0 JUMP JUMPDEST PUSH0 PUSH20 0xFFFFFFFFFFFFFFFFFFFFFFFFFFFFFFFFFFFFFFFF AND DUP2 PUSH20 0xFFFFFFFFFFFFFFFFFFFFFFFFFFFFFFFFFFFFFFFF AND SUB PUSH2 0xD8E JUMPI PUSH0 PUSH1 0x40 MLOAD PUSH32 0x1E4FBDF700000000000000000000000000000000000000000000000000000000 DUP2 MSTORE PUSH1 0x4 ADD PUSH2 0xD85 SWAP2 SWAP1 PUSH2 0x1130 JUMP JUMPDEST PUSH1 0x40 MLOAD DUP1 SWAP2 SUB SWAP1 REVERT JUMPDEST PUSH2 0xD97 DUP2 PUSH2 0xE77 JUMP JUMPDEST POP JUMP JUMPDEST PUSH1 0x2 PUSH0 SLOAD SUB PUSH2 0xDDE JUMPI PUSH1 0x40 MLOAD PUSH32 0x8C379A000000000000000000000000000000000000000000000000000000000 DUP2 MSTORE PUSH1 0x4 ADD PUSH2 0xDD5 SWAP1 PUSH2 0x172F JUMP JUMPDEST PUSH1 0x40 MLOAD DUP1 SWAP2 SUB SWAP1 REVERT JUMPDEST PUSH1 0x2 PUSH0 DUP2 SWAP1 SSTORE POP JUMP JUMPDEST PUSH1 0x1 PUSH0 DUP2 SWAP1 SSTORE POP JUMP JUMPDEST PUSH2 0xDF8 PUSH2 0xF3A JUMP JUMPDEST PUSH20 0xFFFFFFFFFFFFFFFFFFFFFFFFFFFFFFFFFFFFFFFF AND PUSH2 0xE16 PUSH2 0x7C1 JUMP JUMPDEST PUSH20 0xFFFFFFFFFFFFFFFFFFFFFFFFFFFFFFFFFFFFFFFF AND EQ PUSH2 0xE75 JUMPI PUSH2 0xE39 PUSH2 0xF3A JUMP JUMPDEST PUSH1 0x40 MLOAD PUSH32 0x118CDAA700000000000000000000000000000000000000000000000000000000 DUP2 MSTORE PUSH1 0x4 ADD PUSH2 0xE6C SWAP2 SWAP1 PUSH2 0x1130 JUMP JUMPDEST PUSH1 0x40 MLOAD DUP1 SWAP2 SUB SWAP1 REVERT JUMPDEST JUMP JUMPDEST PUSH0 PUSH1 0x1 PUSH0 SWAP1 SLOAD SWAP1 PUSH2 0x100 EXP SWAP1 DIV PUSH20 0xFFFFFFFFFFFFFFFFFFFFFFFFFFFFFFFFFFFFFFFF AND SWAP1 POP DUP2 PUSH1 0x1 PUSH0 PUSH2 0x100 EXP DUP2 SLOAD DUP2 PUSH20 0xFFFFFFFFFFFFFFFFFFFFFFFFFFFFFFFFFFFFFFFF MUL NOT AND SWAP1 DUP4 PUSH20 0xFFFFFFFFFFFFFFFFFFFFFFFFFFFFFFFFFFFFFFFF AND MUL OR SWAP1 SSTORE POP DUP2 PUSH20 0xFFFFFFFFFFFFFFFFFFFFFFFFFFFFFFFFFFFFFFFF AND DUP2 PUSH20 0xFFFFFFFFFFFFFFFFFFFFFFFFFFFFFFFFFFFFFFFF AND PUSH32 0x8BE0079C531659141344CD1FD0A4F28419497F9722A3DAAFE3B4186F6B6457E0 PUSH1 0x40 MLOAD PUSH1 0x40 MLOAD DUP1 SWAP2 SUB SWAP1 LOG3 POP POP JUMP JUMPDEST PUSH0 CALLER SWAP1 POP SWAP1 JUMP JUMPDEST PUSH0 PUSH0 REVERT JUMPDEST PUSH0 PUSH20 0xFFFFFFFFFFFFFFFFFFFFFFFFFFFFFFFFFFFFFFFF DUP3 AND SWAP1 POP SWAP2 SWAP1 POP JUMP JUMPDEST PUSH0 PUSH2 0xF6E DUP3 PUSH2 0xF45 JUMP JUMPDEST SWAP1 POP SWAP2 SWAP1 POP JUMP JUMPDEST PUSH2 0xF7E DUP2 PUSH2 0xF64 JUMP JUMPDEST DUP2 EQ PUSH2 0xF88 JUMPI PUSH0 PUSH0 REVERT JUMPDEST POP JUMP JUMPDEST PUSH0 DUP2 CALLDATALOAD SWAP1 POP PUSH2 0xF99 DUP2 PUSH2 0xF75 JUMP JUMPDEST SWAP3 SWAP2 POP POP JUMP JUMPDEST PUSH0 PUSH1 0x20 DUP3 DUP5 SUB SLT ISZERO PUSH2 0xFB4 JUMPI PUSH2 0xFB3 PUSH2 0xF41 JUMP JUMPDEST JUMPDEST PUSH0 PUSH2 0xFC1 DUP5 DUP3 DUP6 ADD PUSH2 0xF8B JUMP JUMPDEST SWAP2 POP POP SWAP3 SWAP2 POP POP JUMP JUMPDEST PUSH0 DUP2 SWAP1 POP SWAP2 SWAP1 POP JUMP JUMPDEST PUSH2 0xFDC DUP2 PUSH2 0xFCA JUMP JUMPDEST DUP3 MSTORE POP POP JUMP JUMPDEST PUSH0 DUP2 ISZERO ISZERO SWAP1 POP SWAP2 SWAP1 POP JUMP JUMPDEST PUSH2 0xFF6 DUP2 PUSH2 0xFE2 JUMP JUMPDEST DUP3 MSTORE POP POP JUMP JUMPDEST PUSH0 PUSH1 0x80 DUP3 ADD SWAP1 POP PUSH2 0x100F PUSH0 DUP4 ADD DUP8 PUSH2 0xFD3 JUMP JUMPDEST PUSH2 0x101C PUSH1 0x20 DUP4 ADD DUP7 PUSH2 0xFD3 JUMP JUMPDEST PUSH2 0x1029 PUSH1 0x40 DUP4 ADD DUP6 PUSH2 0xFD3 JUMP JUMPDEST PUSH2 0x1036 PUSH1 0x60 DUP4 ADD DUP5 PUSH2 0xFED JUMP JUMPDEST SWAP6 SWAP5 POP POP POP POP POP JUMP JUMPDEST PUSH2 0x1048 DUP2 PUSH2 0xFCA JUMP JUMPDEST DUP2 EQ PUSH2 0x1052 JUMPI PUSH0 PUSH0 REVERT JUMPDEST POP JUMP JUMPDEST PUSH0 DUP2 CALLDATALOAD SWAP1 POP PUSH2 0x1063 DUP2 PUSH2 0x103F JUMP JUMPDEST SWAP3 SWAP2 POP POP JUMP JUMPDEST PUSH0 PUSH1 0x20 DUP3 DUP5 SUB SLT ISZERO PUSH2 0x107E JUMPI PUSH2 0x107D PUSH2 0xF41 JUMP JUMPDEST JUMPDEST PUSH0 PUSH2 0x108B DUP5 DUP3 DUP6 ADD PUSH2 0x1055 JUMP JUMPDEST SWAP2 POP POP SWAP3 SWAP2 POP POP JUMP JUMPDEST PUSH0 DUP2 SWAP1 POP SWAP2 SWAP1 POP JUMP JUMPDEST PUSH0 PUSH2 0x10B7 PUSH2 0x10B2 PUSH2 0x10AD DUP5 PUSH2 0xF45 JUMP JUMPDEST PUSH2 0x1094 JUMP JUMPDEST PUSH2 0xF45 JUMP JUMPDEST SWAP1 POP SWAP2 SWAP1 POP JUMP JUMPDEST PUSH0 PUSH2 0x10C8 DUP3 PUSH2 0x109D JUMP JUMPDEST SWAP1 POP SWAP2 SWAP1 POP JUMP JUMPDEST PUSH0 PUSH2 0x10D9 DUP3 PUSH2 0x10BE JUMP JUMPDEST SWAP1 POP SWAP2 SWAP1 POP JUMP JUMPDEST PUSH2 0x10E9 DUP2 PUSH2 0x10CF JUMP JUMPDEST DUP3 MSTORE POP POP JUMP JUMPDEST PUSH0 PUSH1 0x20 DUP3 ADD SWAP1 POP PUSH2 0x1102 PUSH0 DUP4 ADD DUP5 PUSH2 0x10E0 JUMP JUMPDEST SWAP3 SWAP2 POP POP JUMP JUMPDEST PUSH0 PUSH1 0x20 DUP3 ADD SWAP1 POP PUSH2 0x111B PUSH0 DUP4 ADD DUP5 PUSH2 0xFD3 JUMP JUMPDEST SWAP3 SWAP2 POP POP JUMP JUMPDEST PUSH2 0x112A DUP2 PUSH2 0xF64 JUMP JUMPDEST DUP3 MSTORE POP POP JUMP JUMPDEST PUSH0 PUSH1 0x20 DUP3 ADD SWAP1 POP PUSH2 0x1143 PUSH0 DUP4 ADD DUP5 PUSH2 0x1121 JUMP JUMPDEST SWAP3 SWAP2 POP POP JUMP JUMPDEST PUSH0 PUSH1 0x20 DUP3 ADD SWAP1 POP PUSH2 0x115C PUSH0 DUP4 ADD DUP5 PUSH2 0xFED JUMP JUMPDEST SWAP3 SWAP2 POP POP JUMP JUMPDEST PUSH0 PUSH1 0x60 DUP3 ADD SWAP1 POP PUSH2 0x1175 PUSH0 DUP4 ADD DUP7 PUSH2 0xFD3 JUMP JUMPDEST PUSH2 0x1182 PUSH1 0x20 DUP4 ADD DUP6 PUSH2 0xFD3 JUMP JUMPDEST PUSH2 0x118F PUSH1 0x40 DUP4 ADD DUP5 PUSH2 0xFED JUMP JUMPDEST SWAP5 SWAP4 POP POP POP POP JUMP JUMPDEST PUSH0 PUSH0 PUSH1 0x40 DUP4 DUP6 SUB SLT ISZERO PUSH2 0x11AD JUMPI PUSH2 0x11AC PUSH2 0xF41 JUMP JUMPDEST JUMPDEST PUSH0 PUSH2 0x11BA DUP6 DUP3 DUP7 ADD PUSH2 0x1055 JUMP JUMPDEST SWAP3 POP POP PUSH1 0x20 PUSH2 0x11CB DUP6 DUP3 DUP7 ADD PUSH2 0x1055 JUMP JUMPDEST SWAP2 POP POP SWAP3 POP SWAP3 SWAP1 POP JUMP JUMPDEST PUSH0 DUP3 DUP3 MSTORE PUSH1 0x20 DUP3 ADD SWAP1 POP SWAP3 SWAP2 POP POP JUMP JUMPDEST PUSH32 0x496E76616C696420706C616E0000000000000000000000000000000000000000 PUSH0 DUP3 ADD MSTORE POP JUMP JUMPDEST PUSH0 PUSH2 0x1219 PUSH1 0xC DUP4 PUSH2 0x11D5 JUMP JUMPDEST SWAP2 POP PUSH2 0x1224 DUP3 PUSH2 0x11E5 JUMP JUMPDEST PUSH1 0x20 DUP3 ADD SWAP1 POP SWAP2 SWAP1 POP JUMP JUMPDEST PUSH0 PUSH1 0x20 DUP3 ADD SWAP1 POP DUP2 DUP2 SUB PUSH0 DUP4 ADD MSTORE PUSH2 0x1246 DUP2 PUSH2 0x120D JUMP JUMPDEST SWAP1 POP SWAP2 SWAP1 POP JUMP JUMPDEST PUSH32 0x506C616E20696E61637469766500000000000000000000000000000000000000 PUSH0 DUP3 ADD MSTORE POP JUMP JUMPDEST PUSH0 PUSH2 0x1281 PUSH1 0xD DUP4 PUSH2 0x11D5 JUMP JUMPDEST SWAP2 POP PUSH2 0x128C DUP3 PUSH2 0x124D JUMP JUMPDEST PUSH1 0x20 DUP3 ADD SWAP1 POP SWAP2 SWAP1 POP JUMP JUMPDEST PUSH0 PUSH1 0x20 DUP3 ADD SWAP1 POP DUP2 DUP2 SUB PUSH0 DUP4 ADD MSTORE PUSH2 0x12AE DUP2 PUSH2 0x1275 JUMP JUMPDEST SWAP1 POP SWAP2 SWAP1 POP JUMP JUMPDEST PUSH0 PUSH1 0x60 DUP3 ADD SWAP1 POP PUSH2 0x12C8 PUSH0 DUP4 ADD DUP7 PUSH2 0x1121 JUMP JUMPDEST PUSH2 0x12D5 PUSH1 0x20 DUP4 ADD DUP6 PUSH2 0x1121 JUMP JUMPDEST PUSH2 0x12E2 PUSH1 0x40 DUP4 ADD DUP5 PUSH2 0xFD3 JUMP JUMPDEST SWAP5 SWAP4 POP POP POP POP JUMP JUMPDEST PUSH2 0x12F3 DUP2 PUSH2 0xFE2 JUMP JUMPDEST DUP2 EQ PUSH2 0x12FD JUMPI PUSH0 PUSH0 REVERT JUMPDEST POP JUMP JUMPDEST PUSH0 DUP2 MLOAD SWAP1 POP PUSH2 0x130E DUP2 PUSH2 0x12EA JUMP JUMPDEST SWAP3 SWAP2 POP POP JUMP JUMPDEST PUSH0 PUSH1 0x20 DUP3 DUP5 SUB SLT ISZERO PUSH2 0x1329 JUMPI PUSH2 0x1328 PUSH2 0xF41 JUMP JUMPDEST JUMPDEST PUSH0 PUSH2 0x1336 DUP5 DUP3 DUP6 ADD PUSH2 0x1300 JUMP JUMPDEST SWAP2 POP POP SWAP3 SWAP2 POP POP JUMP JUMPDEST PUSH32 0x496E697469616C207061796D656E74206661696C656400000000000000000000 PUSH0 DUP3 ADD MSTORE POP JUMP JUMPDEST PUSH0 PUSH2 0x1373 PUSH1 0x16 DUP4 PUSH2 0x11D5 JUMP JUMPDEST SWAP2 POP PUSH2 0x137E DUP3 PUSH2 0x133F JUMP JUMPDEST PUSH1 0x20 DUP3 ADD SWAP1 POP SWAP2 SWAP1 POP JUMP JUMPDEST PUSH0 PUSH1 0x20 DUP3 ADD SWAP1 POP DUP2 DUP2 SUB PUSH0 DUP4 ADD MSTORE PUSH2 0x13A0 DUP2 PUSH2 0x1367 JUMP JUMPDEST SWAP1 POP SWAP2 SWAP1 POP JUMP JUMPDEST PUSH32 0x4E487B7100000000000000000000000000000000000000000000000000000000 PUSH0 MSTORE PUSH1 0x11 PUSH1 0x4 MSTORE PUSH1 0x24 PUSH0 REVERT JUMPDEST PUSH0 PUSH2 0x13DE DUP3 PUSH2 0xFCA JUMP JUMPDEST SWAP2 POP PUSH2 0x13E9 DUP4 PUSH2 0xFCA JUMP JUMPDEST SWAP3 POP DUP3 DUP3 ADD SWAP1 POP DUP1 DUP3 GT ISZERO PUSH2 0x1401 JUMPI PUSH2 0x1400 PUSH2 0x13A7 JUMP JUMPDEST JUMPDEST SWAP3 SWAP2 POP POP JUMP JUMPDEST PUSH32 0x4E6F2061637469766520737562736372697074696F6E00000000000000000000 PUSH0 DUP3 ADD MSTORE POP JUMP JUMPDEST PUSH0 PUSH2 0x143B PUSH1 0x16 DUP4 PUSH2 0x11D5 JUMP JUMPDEST SWAP2 POP PUSH2 0x1446 DUP3 PUSH2 0x1407 JUMP JUMPDEST PUSH1 0x20 DUP3 ADD SWAP1 POP SWAP2 SWAP1 POP JUMP JUMPDEST PUSH0 PUSH1 0x20 DUP3 ADD SWAP1 POP DUP2 DUP2 SUB PUSH0 DUP4 ADD MSTORE PUSH2 0x1468 DUP2 PUSH2 0x142F JUMP JUMPDEST SWAP1 POP SWAP2 SWAP1 POP JUMP JUMPDEST PUSH32 0x537562736372697074696F6E20696E6163746976650000000000000000000000 PUSH0 DUP3 ADD MSTORE POP JUMP JUMPDEST PUSH0 PUSH2 0x14A3 PUSH1 0x15 DUP4 PUSH2 0x11D5 JUMP JUMPDEST SWAP2 POP PUSH2 0x14AE DUP3 PUSH2 0x146F JUMP JUMPDEST PUSH1 0x20 DUP3 ADD SWAP1 POP SWAP2 SWAP1 POP JUMP JUMPDEST PUSH0 PUSH1 0x20 DUP3 ADD SWAP1 POP DUP2 DUP2 SUB PUSH0 DUP4 ADD MSTORE PUSH2 0x14D0 DUP2 PUSH2 0x1497 JUMP JUMPDEST SWAP1 POP SWAP2 SWAP1 POP JUMP JUMPDEST PUSH32 0x5061796D656E74206E6F74206475650000000000000000000000000000000000 PUSH0 DUP3 ADD MSTORE POP JUMP JUMPDEST PUSH0 PUSH2 0x150B PUSH1 0xF DUP4 PUSH2 0x11D5 JUMP JUMPDEST SWAP2 POP PUSH2 0x1516 DUP3 PUSH2 0x14D7 JUMP JUMPDEST PUSH1 0x20 DUP3 ADD SWAP1 POP SWAP2 SWAP1 POP JUMP JUMPDEST PUSH0 PUSH1 0x20 DUP3 ADD SWAP1 POP DUP2 DUP2 SUB PUSH0 DUP4 ADD MSTORE PUSH2 0x1538 DUP2 PUSH2 0x14FF JUMP JUMPDEST SWAP1 POP SWAP2 SWAP1 POP JUMP JUMPDEST PUSH32 0x5061796D656E74206661696C6564000000000000000000000000000000000000 PUSH0 DUP3 ADD MSTORE POP JUMP JUMPDEST PUSH0 PUSH2 0x1573 PUSH1 0xE DUP4 PUSH2 0x11D5 JUMP JUMPDEST SWAP2 POP PUSH2 0x157E DUP3 PUSH2 0x153F JUMP JUMPDEST PUSH1 0x20 DUP3 ADD SWAP1 POP SWAP2 SWAP1 POP JUMP JUMPDEST PUSH0 PUSH1 0x20 DUP3 ADD SWAP1 POP DUP2 DUP2 SUB PUSH0 DUP4 ADD MSTORE PUSH2 0x15A0 DUP2 PUSH2 0x1567 JUMP JUMPDEST SWAP1 POP SWAP2 SWAP1 POP JUMP JUMPDEST PUSH32 0x5072696365206D757374206265203E2030000000000000000000000000000000 PUSH0 DUP3 ADD MSTORE POP JUMP JUMPDEST PUSH0 PUSH2 0x15DB PUSH1 0x11 DUP4 PUSH2 0x11D5 JUMP JUMPDEST SWAP2 POP PUSH2 0x15E6 DUP3 PUSH2 0x15A7 JUMP JUMPDEST PUSH1 0x20 DUP3 ADD SWAP1 POP SWAP2 SWAP1 POP JUMP JUMPDEST PUSH0 PUSH1 0x20 DUP3 ADD SWAP1 POP DUP2 DUP2 SUB PUSH0 DUP4 ADD MSTORE PUSH2 0x1608 DUP2 PUSH2 0x15CF JUMP JUMPDEST SWAP1 POP SWAP2 SWAP1 POP JUMP JUMPDEST PUSH32 0x4475726174696F6E206D757374206265203E2030000000000000000000000000 PUSH0 DUP3 ADD MSTORE POP JUMP JUMPDEST PUSH0 PUSH2 0x1643 PUSH1 0x14 DUP4 PUSH2 0x11D5 JUMP JUMPDEST SWAP2 POP PUSH2 0x164E DUP3 PUSH2 0x160F JUMP JUMPDEST PUSH1 0x20 DUP3 ADD SWAP1 POP SWAP2 SWAP1 POP JUMP JUMPDEST PUSH0 PUSH1 0x20 DUP3 ADD SWAP1 POP DUP2 DUP2 SUB PUSH0 DUP4 ADD MSTORE PUSH2 0x1670 DUP2 PUSH2 0x1637 JUMP JUMPDEST SWAP1 POP SWAP2 SWAP1 POP JUMP JUMPDEST PUSH0 PUSH1 0x40 DUP3 ADD SWAP1 POP PUSH2 0x168A PUSH0 DUP4 ADD DUP6 PUSH2 0xFD3 JUMP JUMPDEST PUSH2 0x1697 PUSH1 0x20 DUP4 ADD DUP5 PUSH2 0xFD3 JUMP JUMPDEST SWAP4 SWAP3 POP POP POP JUMP JUMPDEST PUSH0 PUSH2 0x16A8 DUP3 PUSH2 0xFCA JUMP JUMPDEST SWAP2 POP PUSH32 0xFFFFFFFFFFFFFFFFFFFFFFFFFFFFFFFFFFFFFFFFFFFFFFFFFFFFFFFFFFFFFFFF DUP3 SUB PUSH2 0x16DA JUMPI PUSH2 0x16D9 PUSH2 0x13A7 JUMP JUMPDEST JUMPDEST PUSH1 0x1 DUP3 ADD SWAP1 POP SWAP2 SWAP1 POP JUMP JUMPDEST PUSH32 0x5265656E7472616E637947756172643A207265656E7472616E742063616C6C00 PUSH0 DUP3 ADD MSTORE POP JUMP JUMPDEST PUSH0 PUSH2 0x1719 PUSH1 0x1F DUP4 PUSH2 0x11D5 JUMP JUMPDEST SWAP2 POP PUSH2 0x1724 DUP3 PUSH2 0x16E5 JUMP JUMPDEST PUSH1 0x20 DUP3 ADD SWAP1 POP SWAP2 SWAP1 POP JUMP JUMPDEST PUSH0 PUSH1 0x20 DUP3 ADD SWAP1 POP DUP2 DUP2 SUB PUSH0 DUP4 ADD MSTORE PUSH2 0x1746 DUP2 PUSH2 0x170D JUMP JUMPDEST SWAP1 POP SWAP2 SWAP1 POP JUMP INVALID LOG2 PUSH5 0x6970667358 0x22 SLT KECCAK256 REVERT 0xCF 0xC5 EXTCODECOPY SUB EXTCALL 0xBC 0xDE CALLVALUE SWAP7 DUP13 DUP15 DUP9 EXTCALL RETURNDATACOPY MCOPY STOP PUSH10 0xEC0DA13B9652FAD601EA BYTE 0xEA 0xFC SGT PUSH5 0x736F6C6343 STOP ADDMOD 0x1E STOP CALLER "
				},
				"gasEstimates": {
					"creation": {
						"codeDepositCost": "1203800",
						"executionCost": "infinite",
						"totalCost": "infinite"
					},
					"external": {
						"cancelSubscription()": "27899",
						"createPlan(uint256,uint256)": "infinite",
						"deactivatePlan(uint256)": "infinite",
						"getSubscription(address)": "infinite",
						"isPaymentDue(address)": "9425",
						"owner()": "2538",
						"paymentToken()": "infinite",
						"planCount()": "2470",
						"plans(uint256)": "infinite",
						"processPayment(address)": "infinite",
						"renounceOwnership()": "infinite",
						"subscribe(uint256)": "infinite",
						"subscriptions(address)": "infinite",
						"transferOwnership(address)": "infinite"
					}
				},
				"methodIdentifiers": {
					"cancelSubscription()": "24e9edb0",
					"createPlan(uint256,uint256)": "b197df54",
					"deactivatePlan(uint256)": "6174bc63",
					"getSubscription(address)": "0cbebc24",
					"isPaymentDue(address)": "97ad7e02",
					"owner()": "8da5cb5b",
					"paymentToken()": "3013ce29",
					"planCount()": "382d39bb",
					"plans(uint256)": "b1620616",
					"processPayment(address)": "8fe123d7",
					"renounceOwnership()": "715018a6",
					"subscribe(uint256)": "0f574ba7",
					"subscriptions(address)": "f046395a",
					"transferOwnership(address)": "f2fde38b"
				}
			},
			"storageLayout": {
				"storage": [
					{
						"astId": 158,
						"contract": "Smart Contracts/15_SubscriptionPaymentSystem.sol:SubscriptionPayment",
						"label": "_status",
						"offset": 0,
						"slot": "0",
						"type": "t_uint256"
					},
					{
						"astId": 8,
						"contract": "Smart Contracts/15_SubscriptionPaymentSystem.sol:SubscriptionPayment",
						"label": "_owner",
						"offset": 0,
						"slot": "1",
						"type": "t_address"
					},
					{
						"astId": 332,
						"contract": "Smart Contracts/15_SubscriptionPaymentSystem.sol:SubscriptionPayment",
						"label": "paymentToken",
						"offset": 0,
						"slot": "2",
						"type": "t_contract(IERC20)290"
					},
					{
						"astId": 334,
						"contract": "Smart Contracts/15_SubscriptionPaymentSystem.sol:SubscriptionPayment",
						"label": "planCount",
						"offset": 0,
						"slot": "3",
						"type": "t_uint256"
					},
					{
						"astId": 355,
						"contract": "Smart Contracts/15_SubscriptionPaymentSystem.sol:SubscriptionPayment",
						"label": "plans",
						"offset": 0,
						"slot": "4",
						"type": "t_mapping(t_uint256,t_struct(Plan)341_storage)"
					},
					{
						"astId": 360,
						"contract": "Smart Contracts/15_SubscriptionPaymentSystem.sol:SubscriptionPayment",
						"label": "subscriptions",
						"offset": 0,
						"slot": "5",
						"type": "t_mapping(t_address,t_struct(Subscription)350_storage)"
					}
				],
				"types": {
					"t_address": {
						"encoding": "inplace",
						"label": "address",
						"numberOfBytes": "20"
					},
					"t_bool": {
						"encoding": "inplace",
						"label": "bool",
						"numberOfBytes": "1"
					},
					"t_contract(IERC20)290": {
						"encoding": "inplace",
						"label": "contract IERC20",
						"numberOfBytes": "20"
					},
					"t_mapping(t_address,t_struct(Subscription)350_storage)": {
						"encoding": "mapping",
						"key": "t_address",
						"label": "mapping(address => struct SubscriptionPayment.Subscription)",
						"numberOfBytes": "32",
						"value": "t_struct(Subscription)350_storage"
					},
					"t_mapping(t_uint256,t_struct(Plan)341_storage)": {
						"encoding": "mapping",
						"key": "t_uint256",
						"label": "mapping(uint256 => struct SubscriptionPayment.Plan)",
						"numberOfBytes": "32",
						"value": "t_struct(Plan)341_storage"
					},
					"t_struct(Plan)341_storage": {
						"encoding": "inplace",
						"label": "struct SubscriptionPayment.Plan",
						"members": [
							{
								"astId": 336,
								"contract": "Smart Contracts/15_SubscriptionPaymentSystem.sol:SubscriptionPayment",
								"label": "price",
								"offset": 0,
								"slot": "0",
								"type": "t_uint256"
							},
							{
								"astId": 338,
								"contract": "Smart Contracts/15_SubscriptionPaymentSystem.sol:SubscriptionPayment",
								"label": "duration",
								"offset": 0,
								"slot": "1",
								"type": "t_uint256"
							},
							{
								"astId": 340,
								"contract": "Smart Contracts/15_SubscriptionPaymentSystem.sol:SubscriptionPayment",
								"label": "active",
								"offset": 0,
								"slot": "2",
								"type": "t_bool"
							}
						],
						"numberOfBytes": "96"
					},
					"t_struct(Subscription)350_storage": {
						"encoding": "inplace",
						"label": "struct SubscriptionPayment.Subscription",
						"members": [
							{
								"astId": 343,
								"contract": "Smart Contracts/15_SubscriptionPaymentSystem.sol:SubscriptionPayment",
								"label": "planId",
								"offset": 0,
								"slot": "0",
								"type": "t_uint256"
							},
							{
								"astId": 345,
								"contract": "Smart Contracts/15_SubscriptionPaymentSystem.sol:SubscriptionPayment",
								"label": "startTime",
								"offset": 0,
								"slot": "1",
								"type": "t_uint256"
							},
							{
								"astId": 347,
								"contract": "Smart Contracts/15_SubscriptionPaymentSystem.sol:SubscriptionPayment",
								"label": "nextPayment",
								"offset": 0,
								"slot": "2",
								"type": "t_uint256"
							},
							{
								"astId": 349,
								"contract": "Smart Contracts/15_SubscriptionPaymentSystem.sol:SubscriptionPayment",
								"label": "active",
								"offset": 0,
								"slot": "3",
								"type": "t_bool"
							}
						],
						"numberOfBytes": "128"
					},
					"t_uint256": {
						"encoding": "inplace",
						"label": "uint256",
						"numberOfBytes": "32"
					}
				}
			},
			"userdoc": {
				"kind": "user",
				"methods": {},
				"version": 1
			}
		}
	}
}