{
	"Smart Contracts/30_SimpleDexAggregatorOZ.sol": {
		"AdvancedDexAggregator": {
			"abi": [
				{
					"inputs": [
						{
							"internalType": "address[]",
							"name": "initialRouters",
							"type": "address[]"
						},
						{
							"internalType": "address",
							"name": "_feeRecipient",
							"type": "address"
						},
						{
							"internalType": "uint16",
							"name": "_feeBps",
							"type": "uint16"
						}
					],
					"stateMutability": "nonpayable",
					"type": "constructor"
				},
				{
					"inputs": [],
					"name": "EnforcedPause",
					"type": "error"
				},
				{
					"inputs": [],
					"name": "ExpectedPause",
					"type": "error"
				},
				{
					"inputs": [
						{
							"internalType": "address",
							"name": "owner",
							"type": "address"
						}
					],
					"name": "OwnableInvalidOwner",
					"type": "error"
				},
				{
					"inputs": [
						{
							"internalType": "address",
							"name": "account",
							"type": "address"
						}
					],
					"name": "OwnableUnauthorizedAccount",
					"type": "error"
				},
				{
					"inputs": [],
					"name": "ReentrancyGuardReentrantCall",
					"type": "error"
				},
				{
					"inputs": [
						{
							"internalType": "address",
							"name": "token",
							"type": "address"
						}
					],
					"name": "SafeERC20FailedOperation",
					"type": "error"
				},
				{
					"anonymous": false,
					"inputs": [
						{
							"indexed": false,
							"internalType": "uint16",
							"name": "feeBps",
							"type": "uint16"
						},
						{
							"indexed": true,
							"internalType": "address",
							"name": "recipient",
							"type": "address"
						}
					],
					"name": "FeeConfigUpdated",
					"type": "event"
				},
				{
					"anonymous": false,
					"inputs": [
						{
							"indexed": true,
							"internalType": "address",
							"name": "previousOwner",
							"type": "address"
						},
						{
							"indexed": true,
							"internalType": "address",
							"name": "newOwner",
							"type": "address"
						}
					],
					"name": "OwnershipTransferStarted",
					"type": "event"
				},
				{
					"anonymous": false,
					"inputs": [
						{
							"indexed": true,
							"internalType": "address",
							"name": "previousOwner",
							"type": "address"
						},
						{
							"indexed": true,
							"internalType": "address",
							"name": "newOwner",
							"type": "address"
						}
					],
					"name": "OwnershipTransferred",
					"type": "event"
				},
				{
					"anonymous": false,
					"inputs": [
						{
							"indexed": false,
							"internalType": "address",
							"name": "account",
							"type": "address"
						}
					],
					"name": "Paused",
					"type": "event"
				},
				{
					"anonymous": false,
					"inputs": [
						{
							"indexed": true,
							"internalType": "address",
							"name": "by",
							"type": "address"
						}
					],
					"name": "PausedBy",
					"type": "event"
				},
				{
					"anonymous": false,
					"inputs": [
						{
							"indexed": true,
							"internalType": "address",
							"name": "router",
							"type": "address"
						},
						{
							"indexed": false,
							"internalType": "bool",
							"name": "allowed",
							"type": "bool"
						}
					],
					"name": "RouterAllowed",
					"type": "event"
				},
				{
					"anonymous": false,
					"inputs": [
						{
							"indexed": true,
							"internalType": "address",
							"name": "user",
							"type": "address"
						},
						{
							"indexed": true,
							"internalType": "address",
							"name": "router",
							"type": "address"
						},
						{
							"indexed": false,
							"internalType": "address",
							"name": "tokenIn",
							"type": "address"
						},
						{
							"indexed": false,
							"internalType": "address",
							"name": "tokenOut",
							"type": "address"
						},
						{
							"indexed": false,
							"internalType": "uint256",
							"name": "amountInActual",
							"type": "uint256"
						},
						{
							"indexed": false,
							"internalType": "uint256",
							"name": "amountOut",
							"type": "uint256"
						},
						{
							"indexed": false,
							"internalType": "uint256",
							"name": "feeTaken",
							"type": "uint256"
						}
					],
					"name": "SwapBestSingle",
					"type": "event"
				},
				{
					"anonymous": false,
					"inputs": [
						{
							"indexed": true,
							"internalType": "address",
							"name": "user",
							"type": "address"
						},
						{
							"indexed": true,
							"internalType": "address",
							"name": "routerA",
							"type": "address"
						},
						{
							"indexed": true,
							"internalType": "address",
							"name": "routerB",
							"type": "address"
						},
						{
							"indexed": false,
							"internalType": "address",
							"name": "tokenIn",
							"type": "address"
						},
						{
							"indexed": false,
							"internalType": "address",
							"name": "tokenOut",
							"type": "address"
						},
						{
							"indexed": false,
							"internalType": "uint256",
							"name": "amountInActual",
							"type": "uint256"
						},
						{
							"indexed": false,
							"internalType": "uint256",
							"name": "amountOutTotal",
							"type": "uint256"
						},
						{
							"indexed": false,
							"internalType": "uint256",
							"name": "outA",
							"type": "uint256"
						},
						{
							"indexed": false,
							"internalType": "uint256",
							"name": "outB",
							"type": "uint256"
						},
						{
							"indexed": false,
							"internalType": "uint256",
							"name": "splitBpsToA",
							"type": "uint256"
						},
						{
							"indexed": false,
							"internalType": "uint256",
							"name": "feeTaken",
							"type": "uint256"
						}
					],
					"name": "SwapBestSplit",
					"type": "event"
				},
				{
					"anonymous": false,
					"inputs": [
						{
							"indexed": true,
							"internalType": "address",
							"name": "user",
							"type": "address"
						}
					],
					"name": "SwapCommitCleared",
					"type": "event"
				},
				{
					"anonymous": false,
					"inputs": [
						{
							"indexed": true,
							"internalType": "address",
							"name": "user",
							"type": "address"
						},
						{
							"indexed": false,
							"internalType": "bytes32",
							"name": "commitment",
							"type": "bytes32"
						}
					],
					"name": "SwapCommitted",
					"type": "event"
				},
				{
					"anonymous": false,
					"inputs": [
						{
							"indexed": false,
							"internalType": "address",
							"name": "account",
							"type": "address"
						}
					],
					"name": "Unpaused",
					"type": "event"
				},
				{
					"anonymous": false,
					"inputs": [
						{
							"indexed": true,
							"internalType": "address",
							"name": "by",
							"type": "address"
						}
					],
					"name": "UnpausedBy",
					"type": "event"
				},
				{
					"inputs": [],
					"name": "MAX_FEE_BPS",
					"outputs": [
						{
							"internalType": "uint16",
							"name": "",
							"type": "uint16"
						}
					],
					"stateMutability": "view",
					"type": "function"
				},
				{
					"inputs": [],
					"name": "acceptOwnership",
					"outputs": [],
					"stateMutability": "nonpayable",
					"type": "function"
				},
				{
					"inputs": [],
					"name": "clearCommit",
					"outputs": [],
					"stateMutability": "nonpayable",
					"type": "function"
				},
				{
					"inputs": [
						{
							"internalType": "address",
							"name": "",
							"type": "address"
						}
					],
					"name": "commitBlock",
					"outputs": [
						{
							"internalType": "uint64",
							"name": "",
							"type": "uint64"
						}
					],
					"stateMutability": "view",
					"type": "function"
				},
				{
					"inputs": [
						{
							"internalType": "address",
							"name": "",
							"type": "address"
						}
					],
					"name": "commitOf",
					"outputs": [
						{
							"internalType": "bytes32",
							"name": "",
							"type": "bytes32"
						}
					],
					"stateMutability": "view",
					"type": "function"
				},
				{
					"inputs": [
						{
							"internalType": "bytes32",
							"name": "commitment",
							"type": "bytes32"
						}
					],
					"name": "commitSwap",
					"outputs": [],
					"stateMutability": "nonpayable",
					"type": "function"
				},
				{
					"inputs": [],
					"name": "feeRecipient",
					"outputs": [
						{
							"internalType": "address",
							"name": "",
							"type": "address"
						}
					],
					"stateMutability": "view",
					"type": "function"
				},
				{
					"inputs": [
						{
							"internalType": "address",
							"name": "",
							"type": "address"
						}
					],
					"name": "isAllowedRouter",
					"outputs": [
						{
							"internalType": "bool",
							"name": "",
							"type": "bool"
						}
					],
					"stateMutability": "view",
					"type": "function"
				},
				{
					"inputs": [],
					"name": "owner",
					"outputs": [
						{
							"internalType": "address",
							"name": "",
							"type": "address"
						}
					],
					"stateMutability": "view",
					"type": "function"
				},
				{
					"inputs": [],
					"name": "pause",
					"outputs": [],
					"stateMutability": "nonpayable",
					"type": "function"
				},
				{
					"inputs": [],
					"name": "paused",
					"outputs": [
						{
							"internalType": "bool",
							"name": "",
							"type": "bool"
						}
					],
					"stateMutability": "view",
					"type": "function"
				},
				{
					"inputs": [],
					"name": "pendingOwner",
					"outputs": [
						{
							"internalType": "address",
							"name": "",
							"type": "address"
						}
					],
					"stateMutability": "view",
					"type": "function"
				},
				{
					"inputs": [],
					"name": "protocolFeeBps",
					"outputs": [
						{
							"internalType": "uint16",
							"name": "",
							"type": "uint16"
						}
					],
					"stateMutability": "view",
					"type": "function"
				},
				{
					"inputs": [
						{
							"internalType": "uint256",
							"name": "amountIn",
							"type": "uint256"
						},
						{
							"internalType": "address[]",
							"name": "routers",
							"type": "address[]"
						},
						{
							"internalType": "address[]",
							"name": "path",
							"type": "address[]"
						}
					],
					"name": "quoteBest",
					"outputs": [
						{
							"internalType": "bool",
							"name": "isSplit",
							"type": "bool"
						},
						{
							"internalType": "address",
							"name": "bestRouterOrA",
							"type": "address"
						},
						{
							"internalType": "address",
							"name": "routerB",
							"type": "address"
						},
						{
							"internalType": "uint16",
							"name": "splitBpsToA",
							"type": "uint16"
						},
						{
							"internalType": "uint256",
							"name": "bestOut",
							"type": "uint256"
						}
					],
					"stateMutability": "view",
					"type": "function"
				},
				{
					"inputs": [],
					"name": "renounceOwnership",
					"outputs": [],
					"stateMutability": "nonpayable",
					"type": "function"
				},
				{
					"inputs": [
						{
							"internalType": "address",
							"name": "token",
							"type": "address"
						},
						{
							"internalType": "address",
							"name": "to",
							"type": "address"
						},
						{
							"internalType": "uint256",
							"name": "amount",
							"type": "uint256"
						}
					],
					"name": "rescueToken",
					"outputs": [],
					"stateMutability": "nonpayable",
					"type": "function"
				},
				{
					"inputs": [
						{
							"internalType": "address",
							"name": "router",
							"type": "address"
						},
						{
							"internalType": "bool",
							"name": "allowed",
							"type": "bool"
						}
					],
					"name": "setAllowedRouter",
					"outputs": [],
					"stateMutability": "nonpayable",
					"type": "function"
				},
				{
					"inputs": [
						{
							"internalType": "address",
							"name": "_recipient",
							"type": "address"
						},
						{
							"internalType": "uint16",
							"name": "_feeBps",
							"type": "uint16"
						}
					],
					"name": "setFeeConfig",
					"outputs": [],
					"stateMutability": "nonpayable",
					"type": "function"
				},
				{
					"inputs": [
						{
							"internalType": "uint256",
							"name": "amountIn",
							"type": "uint256"
						},
						{
							"internalType": "uint256",
							"name": "minOutTotal",
							"type": "uint256"
						},
						{
							"internalType": "address[]",
							"name": "routers",
							"type": "address[]"
						},
						{
							"internalType": "address[]",
							"name": "path",
							"type": "address[]"
						},
						{
							"internalType": "uint256",
							"name": "deadline",
							"type": "uint256"
						}
					],
					"name": "swapBest",
					"outputs": [
						{
							"internalType": "uint256",
							"name": "outToUser",
							"type": "uint256"
						}
					],
					"stateMutability": "nonpayable",
					"type": "function"
				},
				{
					"inputs": [
						{
							"internalType": "uint256",
							"name": "amountIn",
							"type": "uint256"
						},
						{
							"internalType": "uint256",
							"name": "minOutTotal",
							"type": "uint256"
						},
						{
							"internalType": "address[]",
							"name": "routers",
							"type": "address[]"
						},
						{
							"internalType": "address[]",
							"name": "path",
							"type": "address[]"
						},
						{
							"internalType": "uint256",
							"name": "deadline",
							"type": "uint256"
						},
						{
							"internalType": "bytes32",
							"name": "salt",
							"type": "bytes32"
						}
					],
					"name": "swapBestReveal",
					"outputs": [
						{
							"internalType": "uint256",
							"name": "outToUser",
							"type": "uint256"
						}
					],
					"stateMutability": "nonpayable",
					"type": "function"
				},
				{
					"inputs": [
						{
							"internalType": "address",
							"name": "newOwner",
							"type": "address"
						}
					],
					"name": "transferOwnership",
					"outputs": [],
					"stateMutability": "nonpayable",
					"type": "function"
				},
				{
					"inputs": [],
					"name": "unpause",
					"outputs": [],
					"stateMutability": "nonpayable",
					"type": "function"
				},
				{
					"stateMutability": "payable",
					"type": "receive"
				}
			],
			"devdoc": {
				"errors": {
					"EnforcedPause()": [
						{
							"details": "The operation failed because the contract is paused."
						}
					],
					"ExpectedPause()": [
						{
							"details": "The operation failed because the contract is not paused."
						}
					],
					"OwnableInvalidOwner(address)": [
						{
							"details": "The owner is not a valid owner account. (eg. `address(0)`)"
						}
					],
					"OwnableUnauthorizedAccount(address)": [
						{
							"details": "The caller account is not authorized to perform an operation."
						}
					],
					"ReentrancyGuardReentrantCall()": [
						{
							"details": "Unauthorized reentrant call."
						}
					],
					"SafeERC20FailedOperation(address)": [
						{
							"details": "An operation with an ERC-20 token failed."
						}
					]
				},
				"events": {
					"Paused(address)": {
						"details": "Emitted when the pause is triggered by `account`."
					},
					"Unpaused(address)": {
						"details": "Emitted when the pause is lifted by `account`."
					}
				},
				"kind": "dev",
				"methods": {
					"acceptOwnership()": {
						"details": "The new owner accepts the ownership transfer."
					},
					"owner()": {
						"details": "Returns the address of the current owner."
					},
					"paused()": {
						"details": "Returns true if the contract is paused, and false otherwise."
					},
					"pendingOwner()": {
						"details": "Returns the address of the pending owner."
					},
					"renounceOwnership()": {
						"details": "Leaves the contract without owner. It will not be possible to call `onlyOwner` functions. Can only be called by the current owner. NOTE: Renouncing ownership will leave the contract without an owner, thereby disabling any functionality that is only available to the owner."
					},
					"transferOwnership(address)": {
						"details": "Starts the ownership transfer of the contract to a new account. Replaces the pending transfer if there is one. Can only be called by the current owner. Setting `newOwner` to the zero address is allowed; this can be used to cancel an initiated ownership transfer."
					}
				},
				"version": 1
			},
			"evm": {
				"assembly": "    /* \"Smart Contracts/30_SimpleDexAggregatorOZ.sol\":1435:17664  contract AdvancedDexAggregator is Ownable2Step, ReentrancyGuard, Pausable {... */\n  mstore(0x40, 0x80)\n    /* \"Smart Contracts/30_SimpleDexAggregatorOZ.sol\":3845:4406  constructor(address[] memory initialRouters, address _feeRecipient, uint16 _feeBps) Ownable(msg.sender) {... */\n  callvalue\n  dup1\n  iszero\n  tag_1\n  jumpi\n  revert(0x00, 0x00)\ntag_1:\n  pop\n  mload(0x40)\n  sub(codesize, bytecodeSize)\n  dup1\n  bytecodeSize\n  dup4\n  codecopy\n  dup2\n  add\n  0x40\n  dup2\n  swap1\n  mstore\n  tag_2\n  swap2\n  tag_3\n  jump\t// in\ntag_2:\n    /* \"Smart Contracts/30_SimpleDexAggregatorOZ.sol\":3937:3947  msg.sender */\n  caller\n  dup1\n    /* \"@openzeppelin/contracts/access/Ownable.sol\":1269:1364  if (initialOwner == address(0)) {... */\n  tag_8\n  jumpi\n    /* \"@openzeppelin/contracts/access/Ownable.sol\":1322:1353  OwnableInvalidOwner(address(0)) */\n  mload(0x40)\n  shl(0xe0, 0x1e4fbdf7)\n  dup2\n  mstore\n    /* \"@openzeppelin/contracts/access/Ownable.sol\":1350:1351  0 */\n  0x00\n    /* \"@openzeppelin/contracts/access/Ownable.sol\":1322:1353  OwnableInvalidOwner(address(0)) */\n  0x04\n  dup3\n  add\n    /* \"#utility.yul\":1962:2013   */\n  mstore\n    /* \"#utility.yul\":1935:1953   */\n  0x24\n  add\n    /* \"@openzeppelin/contracts/access/Ownable.sol\":1322:1353  OwnableInvalidOwner(address(0)) */\ntag_9:\n  mload(0x40)\n  dup1\n  swap2\n  sub\n  swap1\n  revert\n    /* \"@openzeppelin/contracts/access/Ownable.sol\":1269:1364  if (initialOwner == address(0)) {... */\ntag_8:\n    /* \"@openzeppelin/contracts/access/Ownable.sol\":1373:1405  _transferOwnership(initialOwner) */\n  tag_11\n    /* \"@openzeppelin/contracts/access/Ownable.sol\":1392:1404  initialOwner */\n  dup2\n    /* \"@openzeppelin/contracts/access/Ownable.sol\":1373:1391  _transferOwnership */\n  tag_12\n    /* \"@openzeppelin/contracts/access/Ownable.sol\":1373:1405  _transferOwnership(initialOwner) */\n  jump\t// in\ntag_11:\n  pop\n    /* \"@openzeppelin/contracts/utils/ReentrancyGuard.sol\":1857:1858  1 */\n  0x01\n    /* \"@openzeppelin/contracts/utils/ReentrancyGuard.sol\":2061:2068  _status */\n  0x02\n    /* \"@openzeppelin/contracts/utils/ReentrancyGuard.sol\":2061:2082  _status = NOT_ENTERED */\n  sstore\n  sub(shl(0xa0, 0x01), 0x01)\n    /* \"Smart Contracts/30_SimpleDexAggregatorOZ.sol\":3968:3995  _feeRecipient != address(0) */\n  dup3\n  and\n    /* \"Smart Contracts/30_SimpleDexAggregatorOZ.sol\":3960:4018  require(_feeRecipient != address(0), \"FEE_RECIPIENT_ZERO\") */\n  tag_15\n  jumpi\n  mload(0x40)\n  shl(0xe5, 0x461bcd)\n  dup2\n  mstore\n    /* \"#utility.yul\":2226:2228   */\n  0x20\n    /* \"Smart Contracts/30_SimpleDexAggregatorOZ.sol\":3960:4018  require(_feeRecipient != address(0), \"FEE_RECIPIENT_ZERO\") */\n  0x04\n  dup3\n  add\n    /* \"#utility.yul\":2208:2229   */\n  mstore\n    /* \"#utility.yul\":2265:2267   */\n  0x12\n    /* \"#utility.yul\":2245:2263   */\n  0x24\n  dup3\n  add\n    /* \"#utility.yul\":2238:2268   */\n  mstore\n  shl(0x70, 0x4645455f524543495049454e545f5a45524f)\n    /* \"#utility.yul\":2284:2302   */\n  0x44\n  dup3\n  add\n    /* \"#utility.yul\":2277:2325   */\n  mstore\n    /* \"#utility.yul\":2342:2360   */\n  0x64\n  add\n    /* \"Smart Contracts/30_SimpleDexAggregatorOZ.sol\":3960:4018  require(_feeRecipient != address(0), \"FEE_RECIPIENT_ZERO\") */\n  tag_9\n    /* \"#utility.yul\":2024:2366   */\n  jump\n    /* \"Smart Contracts/30_SimpleDexAggregatorOZ.sol\":3960:4018  require(_feeRecipient != address(0), \"FEE_RECIPIENT_ZERO\") */\ntag_15:\n    /* \"Smart Contracts/30_SimpleDexAggregatorOZ.sol\":1839:1842  200 */\n  0xc8\n    /* \"Smart Contracts/30_SimpleDexAggregatorOZ.sol\":4037:4059  _feeBps <= MAX_FEE_BPS */\n  0xffff\n  dup3\n  and\n  gt\n  iszero\n    /* \"Smart Contracts/30_SimpleDexAggregatorOZ.sol\":4029:4076  require(_feeBps <= MAX_FEE_BPS, \"FEE_TOO_HIGH\") */\n  tag_18\n  jumpi\n  mload(0x40)\n  shl(0xe5, 0x461bcd)\n  dup2\n  mstore\n    /* \"#utility.yul\":2573:2575   */\n  0x20\n    /* \"Smart Contracts/30_SimpleDexAggregatorOZ.sol\":4029:4076  require(_feeBps <= MAX_FEE_BPS, \"FEE_TOO_HIGH\") */\n  0x04\n  dup3\n  add\n    /* \"#utility.yul\":2555:2576   */\n  mstore\n    /* \"#utility.yul\":2612:2614   */\n  0x0c\n    /* \"#utility.yul\":2592:2610   */\n  0x24\n  dup3\n  add\n    /* \"#utility.yul\":2585:2615   */\n  mstore\n  shl(0xa3, 0x08c8a8abea89e9ebe90928e9)\n    /* \"#utility.yul\":2631:2649   */\n  0x44\n  dup3\n  add\n    /* \"#utility.yul\":2624:2666   */\n  mstore\n    /* \"#utility.yul\":2683:2701   */\n  0x64\n  add\n    /* \"Smart Contracts/30_SimpleDexAggregatorOZ.sol\":4029:4076  require(_feeBps <= MAX_FEE_BPS, \"FEE_TOO_HIGH\") */\n  tag_9\n    /* \"#utility.yul\":2371:2707   */\n  jump\n    /* \"Smart Contracts/30_SimpleDexAggregatorOZ.sol\":4029:4076  require(_feeBps <= MAX_FEE_BPS, \"FEE_TOO_HIGH\") */\ntag_18:\n    /* \"Smart Contracts/30_SimpleDexAggregatorOZ.sol\":4089:4101  feeRecipient */\n  0x05\n    /* \"Smart Contracts/30_SimpleDexAggregatorOZ.sol\":4089:4117  feeRecipient = _feeRecipient */\n  dup1\n  sload\n  not(sub(shl(0xb0, 0x01), 0x01))\n    /* \"Smart Contracts/30_SimpleDexAggregatorOZ.sol\":4128:4152  protocolFeeBps = _feeBps */\n  and\n    /* \"Smart Contracts/30_SimpleDexAggregatorOZ.sol\":4089:4117  feeRecipient = _feeRecipient */\n  0x010000\n  sub(shl(0xa0, 0x01), 0x01)\n  dup6\n  and\n  mul\n  not(0xffff)\n    /* \"Smart Contracts/30_SimpleDexAggregatorOZ.sol\":4128:4152  protocolFeeBps = _feeBps */\n  and\n  or\n  0xffff\n  dup4\n  and\n  or\n  swap1\n  sstore\n  0x00\n    /* \"Smart Contracts/30_SimpleDexAggregatorOZ.sol\":4165:4343  for (uint256 i = 0; i < initialRouters.length; i++) {... */\ntag_21:\n    /* \"Smart Contracts/30_SimpleDexAggregatorOZ.sol\":4189:4203  initialRouters */\n  dup4\n    /* \"Smart Contracts/30_SimpleDexAggregatorOZ.sol\":4189:4210  initialRouters.length */\n  mload\n    /* \"Smart Contracts/30_SimpleDexAggregatorOZ.sol\":4185:4186  i */\n  dup2\n    /* \"Smart Contracts/30_SimpleDexAggregatorOZ.sol\":4185:4210  i < initialRouters.length */\n  lt\n    /* \"Smart Contracts/30_SimpleDexAggregatorOZ.sol\":4165:4343  for (uint256 i = 0; i < initialRouters.length; i++) {... */\n  iszero\n  tag_22\n  jumpi\n    /* \"Smart Contracts/30_SimpleDexAggregatorOZ.sol\":4269:4273  true */\n  0x01\n    /* \"Smart Contracts/30_SimpleDexAggregatorOZ.sol\":4232:4247  isAllowedRouter */\n  0x04\n    /* \"Smart Contracts/30_SimpleDexAggregatorOZ.sol\":4232:4266  isAllowedRouter[initialRouters[i]] */\n  0x00\n    /* \"Smart Contracts/30_SimpleDexAggregatorOZ.sol\":4248:4262  initialRouters */\n  dup7\n    /* \"Smart Contracts/30_SimpleDexAggregatorOZ.sol\":4263:4264  i */\n  dup5\n    /* \"Smart Contracts/30_SimpleDexAggregatorOZ.sol\":4248:4265  initialRouters[i] */\n  dup2\n  mload\n  dup2\n  lt\n  tag_25\n  jumpi\n  tag_25\n  tag_26\n  jump\t// in\ntag_25:\n  0x20\n  mul\n  0x20\n  add\n  add\n  mload\n  sub(shl(0xa0, 0x01), 0x01)\n    /* \"Smart Contracts/30_SimpleDexAggregatorOZ.sol\":4232:4266  isAllowedRouter[initialRouters[i]] */\n  and\n  sub(shl(0xa0, 0x01), 0x01)\n  and\n  dup2\n  mstore\n  0x20\n  add\n  swap1\n  dup2\n  mstore\n  0x20\n  add\n  0x00\n  keccak256\n  0x00\n    /* \"Smart Contracts/30_SimpleDexAggregatorOZ.sol\":4232:4273  isAllowedRouter[initialRouters[i]] = true */\n  0x0100\n  exp\n  dup2\n  sload\n  dup2\n  0xff\n  mul\n  not\n  and\n  swap1\n  dup4\n  iszero\n  iszero\n  mul\n  or\n  swap1\n  sstore\n  pop\n    /* \"Smart Contracts/30_SimpleDexAggregatorOZ.sol\":4307:4321  initialRouters */\n  dup4\n    /* \"Smart Contracts/30_SimpleDexAggregatorOZ.sol\":4322:4323  i */\n  dup2\n    /* \"Smart Contracts/30_SimpleDexAggregatorOZ.sol\":4307:4324  initialRouters[i] */\n  dup2\n  mload\n  dup2\n  lt\n  tag_28\n  jumpi\n  tag_28\n  tag_26\n  jump\t// in\ntag_28:\n  0x20\n  mul\n  0x20\n  add\n  add\n  mload\n  sub(shl(0xa0, 0x01), 0x01)\n    /* \"Smart Contracts/30_SimpleDexAggregatorOZ.sol\":4293:4331  RouterAllowed(initialRouters[i], true) */\n  and\n  0x5ae067a93e2af6193017728cb7e9ef5af1d750a5beb7b16a05b54d56f6f355e3\n    /* \"Smart Contracts/30_SimpleDexAggregatorOZ.sol\":4326:4330  true */\n  0x01\n    /* \"Smart Contracts/30_SimpleDexAggregatorOZ.sol\":4293:4331  RouterAllowed(initialRouters[i], true) */\n  mload(0x40)\n  tag_29\n  swap2\n    /* \"#utility.yul\":3009:3023   */\n  iszero\n    /* \"#utility.yul\":3002:3024   */\n  iszero\n    /* \"#utility.yul\":2984:3025   */\n  dup2\n  mstore\n    /* \"#utility.yul\":2972:2974   */\n  0x20\n    /* \"#utility.yul\":2957:2975   */\n  add\n  swap1\n    /* \"#utility.yul\":2844:3031   */\n  jump\n    /* \"Smart Contracts/30_SimpleDexAggregatorOZ.sol\":4293:4331  RouterAllowed(initialRouters[i], true) */\ntag_29:\n  mload(0x40)\n  dup1\n  swap2\n  sub\n  swap1\n  log2\n    /* \"Smart Contracts/30_SimpleDexAggregatorOZ.sol\":4212:4215  i++ */\n  0x01\n  add\n    /* \"Smart Contracts/30_SimpleDexAggregatorOZ.sol\":4165:4343  for (uint256 i = 0; i < initialRouters.length; i++) {... */\n  jump(tag_21)\ntag_22:\n  pop\n    /* \"Smart Contracts/30_SimpleDexAggregatorOZ.sol\":4358:4398  FeeConfigUpdated(_feeBps, _feeRecipient) */\n  mload(0x40)\n    /* \"#utility.yul\":3210:3216   */\n  0xffff\n    /* \"#utility.yul\":3198:3217   */\n  dup3\n  and\n    /* \"#utility.yul\":3180:3218   */\n  dup2\n  mstore\n  sub(shl(0xa0, 0x01), 0x01)\n    /* \"Smart Contracts/30_SimpleDexAggregatorOZ.sol\":4358:4398  FeeConfigUpdated(_feeBps, _feeRecipient) */\n  dup4\n  and\n  swap1\n  0x25db41e00c7b58ea3222b515559a00f3af8f16b0f955b784582f23c554176d6f\n  swap1\n    /* \"#utility.yul\":3168:3170   */\n  0x20\n    /* \"#utility.yul\":3153:3171   */\n  add\n    /* \"Smart Contracts/30_SimpleDexAggregatorOZ.sol\":4358:4398  FeeConfigUpdated(_feeBps, _feeRecipient) */\n  mload(0x40)\n  dup1\n  swap2\n  sub\n  swap1\n  log2\n    /* \"Smart Contracts/30_SimpleDexAggregatorOZ.sol\":3845:4406  constructor(address[] memory initialRouters, address _feeRecipient, uint16 _feeBps) Ownable(msg.sender) {... */\n  pop\n  pop\n  pop\n    /* \"Smart Contracts/30_SimpleDexAggregatorOZ.sol\":1435:17664  contract AdvancedDexAggregator is Ownable2Step, ReentrancyGuard, Pausable {... */\n  jump(tag_41)\n    /* \"@openzeppelin/contracts/access/Ownable2Step.sol\":2011:2164  function _transferOwnership(address newOwner) internal virtual override {... */\ntag_12:\n    /* \"@openzeppelin/contracts/access/Ownable2Step.sol\":2100:2113  _pendingOwner */\n  0x01\n    /* \"@openzeppelin/contracts/access/Ownable2Step.sol\":2093:2113  delete _pendingOwner */\n  dup1\n  sload\n  not(sub(shl(0xa0, 0x01), 0x01))\n  and\n  swap1\n  sstore\n    /* \"@openzeppelin/contracts/access/Ownable2Step.sol\":2123:2157  super._transferOwnership(newOwner) */\n  tag_35\n    /* \"@openzeppelin/contracts/access/Ownable2Step.sol\":2148:2156  newOwner */\n  dup2\n    /* \"@openzeppelin/contracts/access/Ownable2Step.sol\":2123:2147  super._transferOwnership */\n  tag_36\n    /* \"@openzeppelin/contracts/access/Ownable2Step.sol\":2123:2157  super._transferOwnership(newOwner) */\n  jump\t// in\ntag_35:\n    /* \"@openzeppelin/contracts/access/Ownable2Step.sol\":2011:2164  function _transferOwnership(address newOwner) internal virtual override {... */\n  pop\n  jump\t// out\n    /* \"@openzeppelin/contracts/access/Ownable.sol\":2912:3099  function _transferOwnership(address newOwner) internal virtual {... */\ntag_36:\n    /* \"@openzeppelin/contracts/access/Ownable.sol\":2985:3001  address oldOwner */\n  0x00\n    /* \"@openzeppelin/contracts/access/Ownable.sol\":3004:3010  _owner */\n  dup1\n  sload\n  sub(shl(0xa0, 0x01), 0x01)\n    /* \"@openzeppelin/contracts/access/Ownable.sol\":3020:3037  _owner = newOwner */\n  dup4\n  dup2\n  and\n  not(sub(shl(0xa0, 0x01), 0x01))\n  dup4\n  and\n  dup2\n  or\n  dup5\n  sstore\n    /* \"@openzeppelin/contracts/access/Ownable.sol\":3052:3092  OwnershipTransferred(oldOwner, newOwner) */\n  mload(0x40)\n    /* \"@openzeppelin/contracts/access/Ownable.sol\":3004:3010  _owner */\n  swap2\n  swap1\n  swap3\n  and\n  swap3\n  dup4\n  swap2\n    /* \"@openzeppelin/contracts/access/Ownable.sol\":3052:3092  OwnershipTransferred(oldOwner, newOwner) */\n  0x8be0079c531659141344cd1fd0a4f28419497f9722a3daafe3b4186f6b6457e0\n  swap2\n    /* \"@openzeppelin/contracts/access/Ownable.sol\":2985:3001  address oldOwner */\n  swap1\n    /* \"@openzeppelin/contracts/access/Ownable.sol\":3052:3092  OwnershipTransferred(oldOwner, newOwner) */\n  log3\n    /* \"@openzeppelin/contracts/access/Ownable.sol\":2975:3099  {... */\n  pop\n    /* \"@openzeppelin/contracts/access/Ownable.sol\":2912:3099  function _transferOwnership(address newOwner) internal virtual {... */\n  pop\n  jump\t// out\n    /* \"#utility.yul\":14:141   */\ntag_38:\n    /* \"#utility.yul\":75:85   */\n  0x4e487b71\n    /* \"#utility.yul\":70:73   */\n  0xe0\n    /* \"#utility.yul\":66:86   */\n  shl\n    /* \"#utility.yul\":63:64   */\n  0x00\n    /* \"#utility.yul\":56:87   */\n  mstore\n    /* \"#utility.yul\":106:110   */\n  0x41\n    /* \"#utility.yul\":103:104   */\n  0x04\n    /* \"#utility.yul\":96:111   */\n  mstore\n    /* \"#utility.yul\":130:134   */\n  0x24\n    /* \"#utility.yul\":127:128   */\n  0x00\n    /* \"#utility.yul\":120:135   */\n  revert\n    /* \"#utility.yul\":146:323   */\ntag_39:\n    /* \"#utility.yul\":225:238   */\n  dup1\n  mload\n  sub(shl(0xa0, 0x01), 0x01)\n    /* \"#utility.yul\":267:298   */\n  dup2\n  and\n    /* \"#utility.yul\":257:299   */\n  dup2\n  eq\n    /* \"#utility.yul\":247:317   */\n  tag_44\n  jumpi\n    /* \"#utility.yul\":313:314   */\n  0x00\n    /* \"#utility.yul\":310:311   */\n  0x00\n    /* \"#utility.yul\":303:315   */\n  revert\n    /* \"#utility.yul\":247:317   */\ntag_44:\n    /* \"#utility.yul\":146:323   */\n  swap2\n  swap1\n  pop\n  jump\t// out\n    /* \"#utility.yul\":328:491   */\ntag_40:\n    /* \"#utility.yul\":406:419   */\n  dup1\n  mload\n    /* \"#utility.yul\":459:465   */\n  0xffff\n    /* \"#utility.yul\":448:466   */\n  dup2\n  and\n    /* \"#utility.yul\":438:467   */\n  dup2\n  eq\n    /* \"#utility.yul\":428:485   */\n  tag_44\n  jumpi\n    /* \"#utility.yul\":481:482   */\n  0x00\n    /* \"#utility.yul\":478:479   */\n  0x00\n    /* \"#utility.yul\":471:483   */\n  revert\n    /* \"#utility.yul\":496:1811   */\ntag_3:\n    /* \"#utility.yul\":608:614   */\n  0x00\n    /* \"#utility.yul\":616:622   */\n  0x00\n    /* \"#utility.yul\":624:630   */\n  0x00\n    /* \"#utility.yul\":677:679   */\n  0x60\n    /* \"#utility.yul\":665:674   */\n  dup5\n    /* \"#utility.yul\":656:663   */\n  dup7\n    /* \"#utility.yul\":652:675   */\n  sub\n    /* \"#utility.yul\":648:680   */\n  slt\n    /* \"#utility.yul\":645:697   */\n  iszero\n  tag_48\n  jumpi\n    /* \"#utility.yul\":693:694   */\n  0x00\n    /* \"#utility.yul\":690:691   */\n  0x00\n    /* \"#utility.yul\":683:695   */\n  revert\n    /* \"#utility.yul\":645:697   */\ntag_48:\n    /* \"#utility.yul\":720:736   */\n  dup4\n  mload\n  sub(shl(0x40, 0x01), 0x01)\n    /* \"#utility.yul\":748:778   */\n  dup2\n  gt\n    /* \"#utility.yul\":745:795   */\n  iszero\n  tag_49\n  jumpi\n    /* \"#utility.yul\":791:792   */\n  0x00\n    /* \"#utility.yul\":788:789   */\n  0x00\n    /* \"#utility.yul\":781:793   */\n  revert\n    /* \"#utility.yul\":745:795   */\ntag_49:\n    /* \"#utility.yul\":814:836   */\n  dup5\n  add\n    /* \"#utility.yul\":867:871   */\n  0x1f\n    /* \"#utility.yul\":859:872   */\n  dup2\n  add\n    /* \"#utility.yul\":855:882   */\n  dup7\n  sgt\n    /* \"#utility.yul\":845:900   */\n  tag_50\n  jumpi\n    /* \"#utility.yul\":896:897   */\n  0x00\n    /* \"#utility.yul\":893:894   */\n  0x00\n    /* \"#utility.yul\":886:898   */\n  revert\n    /* \"#utility.yul\":845:900   */\ntag_50:\n    /* \"#utility.yul\":923:932   */\n  dup1\n  mload\n  sub(shl(0x40, 0x01), 0x01)\n    /* \"#utility.yul\":944:974   */\n  dup2\n  gt\n    /* \"#utility.yul\":941:997   */\n  iszero\n  tag_52\n  jumpi\n    /* \"#utility.yul\":977:995   */\n  tag_52\n  tag_38\n  jump\t// in\ntag_52:\n    /* \"#utility.yul\":1059:1061   */\n  0x40\n    /* \"#utility.yul\":1053:1062   */\n  mload\n    /* \"#utility.yul\":1020:1021   */\n  0x05\n    /* \"#utility.yul\":1016:1030   */\n  dup3\n  swap1\n  shl\n  swap1\n    /* \"#utility.yul\":1113:1115   */\n  0x3f\n    /* \"#utility.yul\":1105:1116   */\n  dup3\n  add\n  not(0x1f)\n    /* \"#utility.yul\":1101:1126   */\n  and\n    /* \"#utility.yul\":1089:1127   */\n  dup2\n  add\n  sub(shl(0x40, 0x01), 0x01)\n    /* \"#utility.yul\":1142:1176   */\n  dup2\n  gt\n    /* \"#utility.yul\":1178:1200   */\n  dup3\n  dup3\n  lt\n    /* \"#utility.yul\":1139:1201   */\n  or\n    /* \"#utility.yul\":1136:1224   */\n  iszero\n  tag_54\n  jumpi\n    /* \"#utility.yul\":1204:1222   */\n  tag_54\n  tag_38\n  jump\t// in\ntag_54:\n    /* \"#utility.yul\":1240:1242   */\n  0x40\n    /* \"#utility.yul\":1233:1255   */\n  mstore\n    /* \"#utility.yul\":1290:1312   */\n  swap2\n  dup3\n  mstore\n    /* \"#utility.yul\":1340:1344   */\n  0x20\n    /* \"#utility.yul\":1372:1383   */\n  dup2\n  dup5\n  add\n    /* \"#utility.yul\":1368:1390   */\n  dup2\n  add\n  swap3\n    /* \"#utility.yul\":1290:1312   */\n  swap1\n    /* \"#utility.yul\":1328:1345   */\n  dup2\n  add\n    /* \"#utility.yul\":1402:1421   */\n  dup10\n  dup5\n  gt\n    /* \"#utility.yul\":1399:1438   */\n  iszero\n  tag_55\n  jumpi\n    /* \"#utility.yul\":1434:1435   */\n  0x00\n    /* \"#utility.yul\":1431:1432   */\n  0x00\n    /* \"#utility.yul\":1424:1436   */\n  revert\n    /* \"#utility.yul\":1399:1438   */\ntag_55:\n    /* \"#utility.yul\":1466:1470   */\n  0x20\n    /* \"#utility.yul\":1462:1464   */\n  dup6\n    /* \"#utility.yul\":1458:1471   */\n  add\n    /* \"#utility.yul\":1447:1471   */\n  swap5\n  pop\n    /* \"#utility.yul\":1480:1643   */\ntag_56:\n    /* \"#utility.yul\":1496:1502   */\n  dup4\n    /* \"#utility.yul\":1491:1494   */\n  dup6\n    /* \"#utility.yul\":1488:1503   */\n  lt\n    /* \"#utility.yul\":1480:1643   */\n  iszero\n  tag_58\n  jumpi\n    /* \"#utility.yul\":1564:1598   */\n  tag_59\n    /* \"#utility.yul\":1594:1597   */\n  dup6\n    /* \"#utility.yul\":1564:1598   */\n  tag_39\n  jump\t// in\ntag_59:\n    /* \"#utility.yul\":1552:1599   */\n  dup2\n  mstore\n    /* \"#utility.yul\":1628:1632   */\n  0x20\n    /* \"#utility.yul\":1513:1527   */\n  swap5\n  dup6\n  add\n  swap5\n    /* \"#utility.yul\":1619:1633   */\n  add\n    /* \"#utility.yul\":1480:1643   */\n  jump(tag_56)\ntag_58:\n  pop\n    /* \"#utility.yul\":1662:1668   */\n  swap6\n  pop\n    /* \"#utility.yul\":1687:1738   */\n  tag_60\n  swap3\n  pop\n  pop\n  pop\n    /* \"#utility.yul\":1732:1736   */\n  0x20\n    /* \"#utility.yul\":1717:1737   */\n  dup6\n  add\n    /* \"#utility.yul\":1687:1738   */\n  tag_39\n  jump\t// in\ntag_60:\n    /* \"#utility.yul\":1677:1738   */\n  swap2\n  pop\n    /* \"#utility.yul\":1757:1805   */\n  tag_61\n    /* \"#utility.yul\":1801:1803   */\n  0x40\n    /* \"#utility.yul\":1790:1799   */\n  dup6\n    /* \"#utility.yul\":1786:1804   */\n  add\n    /* \"#utility.yul\":1757:1805   */\n  tag_40\n  jump\t// in\ntag_61:\n    /* \"#utility.yul\":1747:1805   */\n  swap1\n  pop\n    /* \"#utility.yul\":496:1811   */\n  swap3\n  pop\n  swap3\n  pop\n  swap3\n  jump\t// out\n    /* \"#utility.yul\":2712:2839   */\ntag_26:\n    /* \"#utility.yul\":2773:2783   */\n  0x4e487b71\n    /* \"#utility.yul\":2768:2771   */\n  0xe0\n    /* \"#utility.yul\":2764:2784   */\n  shl\n    /* \"#utility.yul\":2761:2762   */\n  0x00\n    /* \"#utility.yul\":2754:2785   */\n  mstore\n    /* \"#utility.yul\":2804:2808   */\n  0x32\n    /* \"#utility.yul\":2801:2802   */\n  0x04\n    /* \"#utility.yul\":2794:2809   */\n  mstore\n    /* \"#utility.yul\":2828:2832   */\n  0x24\n    /* \"#utility.yul\":2825:2826   */\n  0x00\n    /* \"#utility.yul\":2818:2833   */\n  revert\n    /* \"#utility.yul\":3036:3224   */\ntag_41:\n    /* \"Smart Contracts/30_SimpleDexAggregatorOZ.sol\":1435:17664  contract AdvancedDexAggregator is Ownable2Step, ReentrancyGuard, Pausable {... */\n  dataSize(sub_0)\n  dup1\n  dataOffset(sub_0)\n  0x00\n  codecopy\n  0x00\n  return\nstop\n\nsub_0: assembly {\n        /* \"Smart Contracts/30_SimpleDexAggregatorOZ.sol\":1435:17664  contract AdvancedDexAggregator is Ownable2Step, ReentrancyGuard, Pausable {... */\n      mstore(0x40, 0x80)\n      jumpi(tag_1, lt(calldatasize, 0x04))\n      shr(0xe0, calldataload(0x00))\n      dup1\n      0x79ba5097\n      gt\n      tag_25\n      jumpi\n      dup1\n      0xe30c3978\n      gt\n      tag_26\n      jumpi\n      dup1\n      0xe30c3978\n      eq\n      tag_19\n      jumpi\n      dup1\n      0xe5711e8b\n      eq\n      tag_20\n      jumpi\n      dup1\n      0xf2fde38b\n      eq\n      tag_21\n      jumpi\n      dup1\n      0xf87b098c\n      eq\n      tag_22\n      jumpi\n      dup1\n      0xfdd5791e\n      eq\n      tag_23\n      jumpi\n      dup1\n      0xff7551e3\n      eq\n      tag_24\n      jumpi\n      revert(0x00, 0x00)\n    tag_26:\n      dup1\n      0x79ba5097\n      eq\n      tag_14\n      jumpi\n      dup1\n      0x8456cb59\n      eq\n      tag_15\n      jumpi\n      dup1\n      0x8da5cb5b\n      eq\n      tag_16\n      jumpi\n      dup1\n      0xc226c4bb\n      eq\n      tag_17\n      jumpi\n      dup1\n      0xd55be8c6\n      eq\n      tag_18\n      jumpi\n      revert(0x00, 0x00)\n    tag_25:\n      dup1\n      0x46904840\n      gt\n      tag_27\n      jumpi\n      dup1\n      0x46904840\n      eq\n      tag_8\n      jumpi\n      dup1\n      0x52fd5099\n      eq\n      tag_9\n      jumpi\n      dup1\n      0x5b7499b5\n      eq\n      tag_10\n      jumpi\n      dup1\n      0x5c975abb\n      eq\n      tag_11\n      jumpi\n      dup1\n      0x6bdc40a6\n      eq\n      tag_12\n      jumpi\n      dup1\n      0x715018a6\n      eq\n      tag_13\n      jumpi\n      revert(0x00, 0x00)\n    tag_27:\n      dup1\n      0x23dd7f39\n      eq\n      tag_3\n      jumpi\n      dup1\n      0x350e9756\n      eq\n      tag_4\n      jumpi\n      dup1\n      0x35659fb8\n      eq\n      tag_5\n      jumpi\n      dup1\n      0x39a5b0cd\n      eq\n      tag_6\n      jumpi\n      dup1\n      0x3f4ba83a\n      eq\n      tag_7\n      jumpi\n      revert(0x00, 0x00)\n    tag_1:\n      jumpi(tag_2, calldatasize)\n        /* \"Smart Contracts/30_SimpleDexAggregatorOZ.sol\":17637:17653  revert(\"NO_ETH\") */\n      mload(0x40)\n      shl(0xe5, 0x461bcd)\n      dup2\n      mstore\n        /* \"#utility.yul\":216:218   */\n      0x20\n        /* \"Smart Contracts/30_SimpleDexAggregatorOZ.sol\":17637:17653  revert(\"NO_ETH\") */\n      0x04\n      dup3\n      add\n        /* \"#utility.yul\":198:219   */\n      mstore\n        /* \"#utility.yul\":255:256   */\n      0x06\n        /* \"#utility.yul\":235:253   */\n      0x24\n      dup3\n      add\n        /* \"#utility.yul\":228:257   */\n      mstore\n      shl(0xd3, 0x09c9ebe8aa89)\n        /* \"#utility.yul\":273:291   */\n      0x44\n      dup3\n      add\n        /* \"#utility.yul\":266:302   */\n      mstore\n        /* \"#utility.yul\":319:337   */\n      0x64\n      add\n        /* \"Smart Contracts/30_SimpleDexAggregatorOZ.sol\":17637:17653  revert(\"NO_ETH\") */\n    tag_30:\n      mload(0x40)\n      dup1\n      swap2\n      sub\n      swap1\n      revert\n        /* \"Smart Contracts/30_SimpleDexAggregatorOZ.sol\":1435:17664  contract AdvancedDexAggregator is Ownable2Step, ReentrancyGuard, Pausable {... */\n    tag_2:\n      revert(0x00, 0x00)\n        /* \"Smart Contracts/30_SimpleDexAggregatorOZ.sol\":2972:3017  mapping(address => uint64) public commitBlock */\n    tag_3:\n      callvalue\n      dup1\n      iszero\n      tag_32\n      jumpi\n      revert(0x00, 0x00)\n    tag_32:\n      pop\n      tag_33\n      tag_34\n      calldatasize\n      0x04\n      tag_35\n      jump\t// in\n    tag_34:\n      mstore(0x20, 0x07)\n      0x00\n      swap1\n      dup2\n      mstore\n      0x40\n      swap1\n      keccak256\n      sload\n      sub(shl(0x40, 0x01), 0x01)\n      and\n      dup2\n      jump\n    tag_33:\n      mload(0x40)\n      sub(shl(0x40, 0x01), 0x01)\n        /* \"#utility.yul\":879:910   */\n      swap1\n      swap2\n      and\n        /* \"#utility.yul\":861:911   */\n      dup2\n      mstore\n        /* \"#utility.yul\":849:851   */\n      0x20\n        /* \"#utility.yul\":834:852   */\n      add\n        /* \"Smart Contracts/30_SimpleDexAggregatorOZ.sol\":2972:3017  mapping(address => uint64) public commitBlock */\n    tag_37:\n      mload(0x40)\n      dup1\n      swap2\n      sub\n      swap1\n      return\n        /* \"Smart Contracts/30_SimpleDexAggregatorOZ.sol\":4651:4984  function setFeeConfig(address _recipient, uint16 _feeBps) external onlyOwner {... */\n    tag_4:\n      callvalue\n      dup1\n      iszero\n      tag_39\n      jumpi\n      revert(0x00, 0x00)\n    tag_39:\n      pop\n      tag_40\n      tag_41\n      calldatasize\n      0x04\n      tag_42\n      jump\t// in\n    tag_41:\n      tag_43\n      jump\t// in\n    tag_40:\n      stop\n        /* \"Smart Contracts/30_SimpleDexAggregatorOZ.sol\":1672:1700  uint16 public protocolFeeBps */\n    tag_5:\n      callvalue\n      dup1\n      iszero\n      tag_44\n      jumpi\n      revert(0x00, 0x00)\n    tag_44:\n      pop\n      sload(0x05)\n      tag_45\n      swap1\n      0xffff\n      and\n      dup2\n      jump\n    tag_45:\n      mload(0x40)\n        /* \"#utility.yul\":1447:1453   */\n      0xffff\n        /* \"#utility.yul\":1435:1454   */\n      swap1\n      swap2\n      and\n        /* \"#utility.yul\":1417:1455   */\n      dup2\n      mstore\n        /* \"#utility.yul\":1405:1407   */\n      0x20\n        /* \"#utility.yul\":1390:1408   */\n      add\n        /* \"Smart Contracts/30_SimpleDexAggregatorOZ.sol\":1672:1700  uint16 public protocolFeeBps */\n      tag_37\n        /* \"#utility.yul\":1273:1461   */\n      jump\n        /* \"Smart Contracts/30_SimpleDexAggregatorOZ.sol\":4470:4643  function setAllowedRouter(address router, bool allowed) external onlyOwner {... */\n    tag_6:\n      callvalue\n      dup1\n      iszero\n      tag_49\n      jumpi\n      revert(0x00, 0x00)\n    tag_49:\n      pop\n      tag_40\n      tag_51\n      calldatasize\n      0x04\n      tag_52\n      jump\t// in\n    tag_51:\n      tag_53\n      jump\t// in\n        /* \"Smart Contracts/30_SimpleDexAggregatorOZ.sol\":5154:5316  function unpause() external onlyOwner {... */\n    tag_7:\n      callvalue\n      dup1\n      iszero\n      tag_54\n      jumpi\n      revert(0x00, 0x00)\n    tag_54:\n      pop\n      tag_40\n      tag_56\n      jump\t// in\n        /* \"Smart Contracts/30_SimpleDexAggregatorOZ.sol\":1734:1761  address public feeRecipient */\n    tag_8:\n      callvalue\n      dup1\n      iszero\n      tag_57\n      jumpi\n      revert(0x00, 0x00)\n    tag_57:\n      pop\n      sload(0x05)\n      tag_58\n      swap1\n      0x010000\n      swap1\n      div\n      sub(shl(0xa0, 0x01), 0x01)\n      and\n      dup2\n      jump\n    tag_58:\n      mload(0x40)\n      sub(shl(0xa0, 0x01), 0x01)\n        /* \"#utility.yul\":1982:2014   */\n      swap1\n      swap2\n      and\n        /* \"#utility.yul\":1964:2015   */\n      dup2\n      mstore\n        /* \"#utility.yul\":1952:1954   */\n      0x20\n        /* \"#utility.yul\":1937:1955   */\n      add\n        /* \"Smart Contracts/30_SimpleDexAggregatorOZ.sol\":1734:1761  address public feeRecipient */\n      tag_37\n        /* \"#utility.yul\":1818:2021   */\n      jump\n        /* \"Smart Contracts/30_SimpleDexAggregatorOZ.sol\":5996:7068  function quoteBest(... */\n    tag_9:\n      callvalue\n      dup1\n      iszero\n      tag_62\n      jumpi\n      revert(0x00, 0x00)\n    tag_62:\n      pop\n      tag_63\n      tag_64\n      calldatasize\n      0x04\n      tag_65\n      jump\t// in\n    tag_64:\n      tag_66\n      jump\t// in\n    tag_63:\n      0x40\n      dup1\n      mload\n        /* \"#utility.yul\":3561:3575   */\n      swap6\n      iszero\n        /* \"#utility.yul\":3554:3576   */\n      iszero\n        /* \"#utility.yul\":3536:3577   */\n      dup7\n      mstore\n      sub(shl(0xa0, 0x01), 0x01)\n        /* \"#utility.yul\":3613:3645   */\n      swap5\n      dup6\n      and\n        /* \"#utility.yul\":3608:3610   */\n      0x20\n        /* \"#utility.yul\":3593:3611   */\n      dup8\n      add\n        /* \"#utility.yul\":3586:3646   */\n      mstore\n        /* \"#utility.yul\":3682:3714   */\n      swap3\n      swap1\n      swap4\n      and\n        /* \"#utility.yul\":3662:3680   */\n      swap2\n      dup5\n      add\n        /* \"#utility.yul\":3655:3715   */\n      swap2\n      swap1\n      swap2\n      mstore\n        /* \"#utility.yul\":3763:3769   */\n      0xffff\n        /* \"#utility.yul\":3751:3770   */\n      and\n        /* \"#utility.yul\":3746:3748   */\n      0x60\n        /* \"#utility.yul\":3731:3749   */\n      dup4\n      add\n        /* \"#utility.yul\":3724:3771   */\n      mstore\n        /* \"#utility.yul\":3802:3805   */\n      0x80\n        /* \"#utility.yul\":3787:3806   */\n      dup3\n      add\n        /* \"#utility.yul\":3780:3815   */\n      mstore\n        /* \"#utility.yul\":3523:3526   */\n      0xa0\n        /* \"#utility.yul\":3508:3527   */\n      add\n        /* \"Smart Contracts/30_SimpleDexAggregatorOZ.sol\":5996:7068  function quoteBest(... */\n      tag_37\n        /* \"#utility.yul\":3285:3821   */\n      jump\n        /* \"Smart Contracts/30_SimpleDexAggregatorOZ.sol\":5388:5613  function commitSwap(bytes32 commitment) external whenNotPaused {... */\n    tag_10:\n      callvalue\n      dup1\n      iszero\n      tag_69\n      jumpi\n      revert(0x00, 0x00)\n    tag_69:\n      pop\n      tag_40\n      tag_71\n      calldatasize\n      0x04\n      tag_72\n      jump\t// in\n    tag_71:\n      tag_73\n      jump\t// in\n        /* \"@openzeppelin/contracts/utils/Pausable.sol\":1726:1810  function paused() public view virtual returns (bool) {... */\n    tag_11:\n      callvalue\n      dup1\n      iszero\n      tag_74\n      jumpi\n      revert(0x00, 0x00)\n    tag_74:\n      pop\n        /* \"@openzeppelin/contracts/utils/Pausable.sol\":1796:1803  _paused */\n      and(0xff, sload(0x03))\n        /* \"@openzeppelin/contracts/utils/Pausable.sol\":1726:1810  function paused() public view virtual returns (bool) {... */\n    tag_75:\n      mload(0x40)\n        /* \"#utility.yul\":4222:4236   */\n      swap1\n      iszero\n        /* \"#utility.yul\":4215:4237   */\n      iszero\n        /* \"#utility.yul\":4197:4238   */\n      dup2\n      mstore\n        /* \"#utility.yul\":4185:4187   */\n      0x20\n        /* \"#utility.yul\":4170:4188   */\n      add\n        /* \"@openzeppelin/contracts/utils/Pausable.sol\":1726:1810  function paused() public view virtual returns (bool) {... */\n      tag_37\n        /* \"#utility.yul\":4057:4244   */\n      jump\n        /* \"Smart Contracts/30_SimpleDexAggregatorOZ.sol\":8611:9484  function swapBestReveal(... */\n    tag_12:\n      callvalue\n      dup1\n      iszero\n      tag_79\n      jumpi\n      revert(0x00, 0x00)\n    tag_79:\n      pop\n      tag_80\n      tag_81\n      calldatasize\n      0x04\n      tag_82\n      jump\t// in\n    tag_81:\n      tag_83\n      jump\t// in\n    tag_80:\n      mload(0x40)\n        /* \"#utility.yul\":5645:5670   */\n      swap1\n      dup2\n      mstore\n        /* \"#utility.yul\":5633:5635   */\n      0x20\n        /* \"#utility.yul\":5618:5636   */\n      add\n        /* \"Smart Contracts/30_SimpleDexAggregatorOZ.sol\":8611:9484  function swapBestReveal(... */\n      tag_37\n        /* \"#utility.yul\":5499:5676   */\n      jump\n        /* \"@openzeppelin/contracts/access/Ownable.sol\":2293:2394  function renounceOwnership() public virtual onlyOwner {... */\n    tag_13:\n      callvalue\n      dup1\n      iszero\n      tag_86\n      jumpi\n      revert(0x00, 0x00)\n    tag_86:\n      pop\n      tag_40\n      tag_88\n      jump\t// in\n        /* \"@openzeppelin/contracts/access/Ownable2Step.sol\":2244:2473  function acceptOwnership() public virtual {... */\n    tag_14:\n      callvalue\n      dup1\n      iszero\n      tag_89\n      jumpi\n      revert(0x00, 0x00)\n    tag_89:\n      pop\n      tag_40\n      tag_91\n      jump\t// in\n        /* \"Smart Contracts/30_SimpleDexAggregatorOZ.sol\":4992:5146  function pause() external onlyOwner {... */\n    tag_15:\n      callvalue\n      dup1\n      iszero\n      tag_92\n      jumpi\n      revert(0x00, 0x00)\n    tag_92:\n      pop\n      tag_40\n      tag_94\n      jump\t// in\n        /* \"@openzeppelin/contracts/access/Ownable.sol\":1638:1723  function owner() public view virtual returns (address) {... */\n    tag_16:\n      callvalue\n      dup1\n      iszero\n      tag_95\n      jumpi\n      revert(0x00, 0x00)\n    tag_95:\n      pop\n        /* \"@openzeppelin/contracts/access/Ownable.sol\":1684:1691  address */\n      0x00\n        /* \"@openzeppelin/contracts/access/Ownable.sol\":1710:1716  _owner */\n      sload\n      sub(shl(0xa0, 0x01), 0x01)\n      and\n        /* \"@openzeppelin/contracts/access/Ownable.sol\":1638:1723  function owner() public view virtual returns (address) {... */\n      jump(tag_58)\n        /* \"Smart Contracts/30_SimpleDexAggregatorOZ.sol\":1616:1663  mapping(address => bool) public isAllowedRouter */\n    tag_17:\n      callvalue\n      dup1\n      iszero\n      tag_99\n      jumpi\n      revert(0x00, 0x00)\n    tag_99:\n      pop\n      tag_75\n      tag_101\n      calldatasize\n      0x04\n      tag_35\n      jump\t// in\n    tag_101:\n      mstore(0x20, 0x04)\n      0x00\n      swap1\n      dup2\n      mstore\n      0x40\n      swap1\n      keccak256\n      sload\n      0xff\n      and\n      dup2\n      jump\n        /* \"Smart Contracts/30_SimpleDexAggregatorOZ.sol\":1802:1842  uint16 public constant MAX_FEE_BPS = 200 */\n    tag_18:\n      callvalue\n      dup1\n      iszero\n      tag_104\n      jumpi\n      revert(0x00, 0x00)\n    tag_104:\n      pop\n      tag_45\n        /* \"Smart Contracts/30_SimpleDexAggregatorOZ.sol\":1839:1842  200 */\n      0xc8\n        /* \"Smart Contracts/30_SimpleDexAggregatorOZ.sol\":1802:1842  uint16 public constant MAX_FEE_BPS = 200 */\n      dup2\n      jump\n        /* \"@openzeppelin/contracts/access/Ownable2Step.sol\":1232:1331  function pendingOwner() public view virtual returns (address) {... */\n    tag_19:\n      callvalue\n      dup1\n      iszero\n      tag_108\n      jumpi\n      revert(0x00, 0x00)\n    tag_108:\n      pop\n        /* \"@openzeppelin/contracts/access/Ownable2Step.sol\":1311:1324  _pendingOwner */\n      and(sub(shl(0xa0, 0x01), 0x01), sload(0x01))\n        /* \"@openzeppelin/contracts/access/Ownable2Step.sol\":1232:1331  function pendingOwner() public view virtual returns (address) {... */\n      jump(tag_58)\n        /* \"Smart Contracts/30_SimpleDexAggregatorOZ.sol\":17451:17591  function rescueToken(address token, address to, uint256 amount) external onlyOwner {... */\n    tag_20:\n      callvalue\n      dup1\n      iszero\n      tag_112\n      jumpi\n      revert(0x00, 0x00)\n    tag_112:\n      pop\n      tag_40\n      tag_114\n      calldatasize\n      0x04\n      tag_115\n      jump\t// in\n    tag_114:\n      tag_116\n      jump\t// in\n        /* \"@openzeppelin/contracts/access/Ownable2Step.sol\":1649:1827  function transferOwnership(address newOwner) public virtual override onlyOwner {... */\n    tag_21:\n      callvalue\n      dup1\n      iszero\n      tag_117\n      jumpi\n      revert(0x00, 0x00)\n    tag_117:\n      pop\n      tag_40\n      tag_119\n      calldatasize\n      0x04\n      tag_35\n      jump\t// in\n    tag_119:\n      tag_120\n      jump\t// in\n        /* \"Smart Contracts/30_SimpleDexAggregatorOZ.sol\":7337:8521  function swapBest(... */\n    tag_22:\n      callvalue\n      dup1\n      iszero\n      tag_121\n      jumpi\n      revert(0x00, 0x00)\n    tag_121:\n      pop\n      tag_80\n      tag_123\n      calldatasize\n      0x04\n      tag_124\n      jump\t// in\n    tag_123:\n      tag_125\n      jump\t// in\n        /* \"Smart Contracts/30_SimpleDexAggregatorOZ.sol\":2922:2965  mapping(address => bytes32) public commitOf */\n    tag_23:\n      callvalue\n      dup1\n      iszero\n      tag_127\n      jumpi\n      revert(0x00, 0x00)\n    tag_127:\n      pop\n      tag_80\n      tag_129\n      calldatasize\n      0x04\n      tag_35\n      jump\t// in\n    tag_129:\n      mstore(0x20, 0x06)\n      0x00\n      swap1\n      dup2\n      mstore\n      0x40\n      swap1\n      keccak256\n      sload\n      dup2\n      jump\n        /* \"Smart Contracts/30_SimpleDexAggregatorOZ.sol\":5621:5785  function clearCommit() external {... */\n    tag_24:\n      callvalue\n      dup1\n      iszero\n      tag_133\n      jumpi\n      revert(0x00, 0x00)\n    tag_133:\n      pop\n      tag_40\n      tag_135\n      jump\t// in\n        /* \"Smart Contracts/30_SimpleDexAggregatorOZ.sol\":4651:4984  function setFeeConfig(address _recipient, uint16 _feeBps) external onlyOwner {... */\n    tag_43:\n        /* \"@openzeppelin/contracts/access/Ownable.sol\":1531:1544  _checkOwner() */\n      tag_137\n        /* \"@openzeppelin/contracts/access/Ownable.sol\":1531:1542  _checkOwner */\n      tag_138\n        /* \"@openzeppelin/contracts/access/Ownable.sol\":1531:1544  _checkOwner() */\n      jump\t// in\n    tag_137:\n      sub(shl(0xa0, 0x01), 0x01)\n        /* \"Smart Contracts/30_SimpleDexAggregatorOZ.sol\":4747:4771  _recipient != address(0) */\n      dup3\n      and\n        /* \"Smart Contracts/30_SimpleDexAggregatorOZ.sol\":4739:4794  require(_recipient != address(0), \"FEE_RECIPIENT_ZERO\") */\n      tag_140\n      jumpi\n      mload(0x40)\n      shl(0xe5, 0x461bcd)\n      dup2\n      mstore\n        /* \"#utility.yul\":7573:7575   */\n      0x20\n        /* \"Smart Contracts/30_SimpleDexAggregatorOZ.sol\":4739:4794  require(_recipient != address(0), \"FEE_RECIPIENT_ZERO\") */\n      0x04\n      dup3\n      add\n        /* \"#utility.yul\":7555:7576   */\n      mstore\n        /* \"#utility.yul\":7612:7614   */\n      0x12\n        /* \"#utility.yul\":7592:7610   */\n      0x24\n      dup3\n      add\n        /* \"#utility.yul\":7585:7615   */\n      mstore\n      shl(0x70, 0x4645455f524543495049454e545f5a45524f)\n        /* \"#utility.yul\":7631:7649   */\n      0x44\n      dup3\n      add\n        /* \"#utility.yul\":7624:7672   */\n      mstore\n        /* \"#utility.yul\":7689:7707   */\n      0x64\n      add\n        /* \"Smart Contracts/30_SimpleDexAggregatorOZ.sol\":4739:4794  require(_recipient != address(0), \"FEE_RECIPIENT_ZERO\") */\n      tag_30\n        /* \"#utility.yul\":7371:7713   */\n      jump\n        /* \"Smart Contracts/30_SimpleDexAggregatorOZ.sol\":4739:4794  require(_recipient != address(0), \"FEE_RECIPIENT_ZERO\") */\n    tag_140:\n        /* \"Smart Contracts/30_SimpleDexAggregatorOZ.sol\":1839:1842  200 */\n      0xc8\n        /* \"Smart Contracts/30_SimpleDexAggregatorOZ.sol\":4813:4835  _feeBps <= MAX_FEE_BPS */\n      0xffff\n      dup3\n      and\n      gt\n      iszero\n        /* \"Smart Contracts/30_SimpleDexAggregatorOZ.sol\":4805:4852  require(_feeBps <= MAX_FEE_BPS, \"FEE_TOO_HIGH\") */\n      tag_143\n      jumpi\n      mload(0x40)\n      shl(0xe5, 0x461bcd)\n      dup2\n      mstore\n        /* \"#utility.yul\":7920:7922   */\n      0x20\n        /* \"Smart Contracts/30_SimpleDexAggregatorOZ.sol\":4805:4852  require(_feeBps <= MAX_FEE_BPS, \"FEE_TOO_HIGH\") */\n      0x04\n      dup3\n      add\n        /* \"#utility.yul\":7902:7923   */\n      mstore\n        /* \"#utility.yul\":7959:7961   */\n      0x0c\n        /* \"#utility.yul\":7939:7957   */\n      0x24\n      dup3\n      add\n        /* \"#utility.yul\":7932:7962   */\n      mstore\n      shl(0xa3, 0x08c8a8abea89e9ebe90928e9)\n        /* \"#utility.yul\":7978:7996   */\n      0x44\n      dup3\n      add\n        /* \"#utility.yul\":7971:8013   */\n      mstore\n        /* \"#utility.yul\":8030:8048   */\n      0x64\n      add\n        /* \"Smart Contracts/30_SimpleDexAggregatorOZ.sol\":4805:4852  require(_feeBps <= MAX_FEE_BPS, \"FEE_TOO_HIGH\") */\n      tag_30\n        /* \"#utility.yul\":7718:8054   */\n      jump\n        /* \"Smart Contracts/30_SimpleDexAggregatorOZ.sol\":4805:4852  require(_feeBps <= MAX_FEE_BPS, \"FEE_TOO_HIGH\") */\n    tag_143:\n        /* \"Smart Contracts/30_SimpleDexAggregatorOZ.sol\":4863:4875  feeRecipient */\n      0x05\n        /* \"Smart Contracts/30_SimpleDexAggregatorOZ.sol\":4863:4888  feeRecipient = _recipient */\n      dup1\n      sload\n      not(sub(shl(0xb0, 0x01), 0x01))\n        /* \"Smart Contracts/30_SimpleDexAggregatorOZ.sol\":4899:4923  protocolFeeBps = _feeBps */\n      and\n        /* \"Smart Contracts/30_SimpleDexAggregatorOZ.sol\":4863:4888  feeRecipient = _recipient */\n      0x010000\n      sub(shl(0xa0, 0x01), 0x01)\n      dup6\n      and\n      swap1\n      dup2\n      mul\n      not(0xffff)\n        /* \"Smart Contracts/30_SimpleDexAggregatorOZ.sol\":4899:4923  protocolFeeBps = _feeBps */\n      and\n      swap2\n      swap1\n      swap2\n      or\n      0xffff\n      dup5\n      and\n      swap1\n      dup2\n      or\n      swap1\n      swap3\n      sstore\n        /* \"Smart Contracts/30_SimpleDexAggregatorOZ.sol\":4939:4976  FeeConfigUpdated(_feeBps, _recipient) */\n      mload(0x40)\n        /* \"#utility.yul\":1417:1455   */\n      swap2\n      dup3\n      mstore\n        /* \"Smart Contracts/30_SimpleDexAggregatorOZ.sol\":4863:4888  feeRecipient = _recipient */\n      swap1\n        /* \"Smart Contracts/30_SimpleDexAggregatorOZ.sol\":4939:4976  FeeConfigUpdated(_feeBps, _recipient) */\n      0x25db41e00c7b58ea3222b515559a00f3af8f16b0f955b784582f23c554176d6f\n      swap1\n        /* \"#utility.yul\":1405:1407   */\n      0x20\n        /* \"#utility.yul\":1390:1408   */\n      add\n        /* \"Smart Contracts/30_SimpleDexAggregatorOZ.sol\":4939:4976  FeeConfigUpdated(_feeBps, _recipient) */\n    tag_146:\n      mload(0x40)\n      dup1\n      swap2\n      sub\n      swap1\n      log2\n        /* \"Smart Contracts/30_SimpleDexAggregatorOZ.sol\":4651:4984  function setFeeConfig(address _recipient, uint16 _feeBps) external onlyOwner {... */\n      pop\n      pop\n      jump\t// out\n        /* \"Smart Contracts/30_SimpleDexAggregatorOZ.sol\":4470:4643  function setAllowedRouter(address router, bool allowed) external onlyOwner {... */\n    tag_53:\n        /* \"@openzeppelin/contracts/access/Ownable.sol\":1531:1544  _checkOwner() */\n      tag_148\n        /* \"@openzeppelin/contracts/access/Ownable.sol\":1531:1542  _checkOwner */\n      tag_138\n        /* \"@openzeppelin/contracts/access/Ownable.sol\":1531:1544  _checkOwner() */\n      jump\t// in\n    tag_148:\n      sub(shl(0xa0, 0x01), 0x01)\n        /* \"Smart Contracts/30_SimpleDexAggregatorOZ.sol\":4556:4579  isAllowedRouter[router] */\n      dup3\n      and\n      0x00\n      dup2\n      dup2\n      mstore\n        /* \"Smart Contracts/30_SimpleDexAggregatorOZ.sol\":4556:4571  isAllowedRouter */\n      0x04\n        /* \"Smart Contracts/30_SimpleDexAggregatorOZ.sol\":4556:4579  isAllowedRouter[router] */\n      0x20\n      swap1\n      dup2\n      mstore\n      0x40\n      swap2\n      dup3\n      swap1\n      keccak256\n        /* \"Smart Contracts/30_SimpleDexAggregatorOZ.sol\":4556:4589  isAllowedRouter[router] = allowed */\n      dup1\n      sload\n      not(0xff)\n      and\n      dup6\n      iszero\n      iszero\n      swap1\n      dup2\n      or\n      swap1\n      swap2\n      sstore\n        /* \"Smart Contracts/30_SimpleDexAggregatorOZ.sol\":4605:4635  RouterAllowed(router, allowed) */\n      swap2\n      mload\n        /* \"#utility.yul\":4197:4238   */\n      swap2\n      dup3\n      mstore\n        /* \"Smart Contracts/30_SimpleDexAggregatorOZ.sol\":4605:4635  RouterAllowed(router, allowed) */\n      0x5ae067a93e2af6193017728cb7e9ef5af1d750a5beb7b16a05b54d56f6f355e3\n      swap2\n        /* \"#utility.yul\":4170:4188   */\n      add\n        /* \"Smart Contracts/30_SimpleDexAggregatorOZ.sol\":4605:4635  RouterAllowed(router, allowed) */\n      tag_146\n        /* \"#utility.yul\":4057:4244   */\n      jump\n        /* \"Smart Contracts/30_SimpleDexAggregatorOZ.sol\":5154:5316  function unpause() external onlyOwner {... */\n    tag_56:\n        /* \"@openzeppelin/contracts/access/Ownable.sol\":1531:1544  _checkOwner() */\n      tag_152\n        /* \"@openzeppelin/contracts/access/Ownable.sol\":1531:1542  _checkOwner */\n      tag_138\n        /* \"@openzeppelin/contracts/access/Ownable.sol\":1531:1544  _checkOwner() */\n      jump\t// in\n    tag_152:\n        /* \"Smart Contracts/30_SimpleDexAggregatorOZ.sol\":5203:5213  _unpause() */\n      tag_154\n        /* \"Smart Contracts/30_SimpleDexAggregatorOZ.sol\":5203:5211  _unpause */\n      tag_155\n        /* \"Smart Contracts/30_SimpleDexAggregatorOZ.sol\":5203:5213  _unpause() */\n      jump\t// in\n    tag_154:\n        /* \"Smart Contracts/30_SimpleDexAggregatorOZ.sol\":5286:5308  UnpausedBy(msg.sender) */\n      mload(0x40)\n        /* \"Smart Contracts/30_SimpleDexAggregatorOZ.sol\":5297:5307  msg.sender */\n      caller\n      swap1\n        /* \"Smart Contracts/30_SimpleDexAggregatorOZ.sol\":5286:5308  UnpausedBy(msg.sender) */\n      0x71f955adbef5dbb4e16ecd587d398f94155edd0a14295fc23975b92a95b793f7\n      swap1\n      0x00\n      swap1\n      log2\n        /* \"Smart Contracts/30_SimpleDexAggregatorOZ.sol\":5154:5316  function unpause() external onlyOwner {... */\n      jump\t// out\n        /* \"Smart Contracts/30_SimpleDexAggregatorOZ.sol\":5996:7068  function quoteBest(... */\n    tag_66:\n        /* \"Smart Contracts/30_SimpleDexAggregatorOZ.sol\":6184:6196  bool isSplit */\n      0x00\n      dup1\n      dup1\n      dup1\n      dup1\n        /* \"Smart Contracts/30_SimpleDexAggregatorOZ.sol\":6376:6377  2 */\n      0x02\n        /* \"Smart Contracts/30_SimpleDexAggregatorOZ.sol\":6361:6377  path.length >= 2 */\n      dup7\n      lt\n      iszero\n        /* \"Smart Contracts/30_SimpleDexAggregatorOZ.sol\":6353:6390  require(path.length >= 2, \"BAD_PATH\") */\n      tag_157\n      jumpi\n      mload(0x40)\n      shl(0xe5, 0x461bcd)\n      dup2\n      mstore\n        /* \"#utility.yul\":8261:8263   */\n      0x20\n        /* \"Smart Contracts/30_SimpleDexAggregatorOZ.sol\":6353:6390  require(path.length >= 2, \"BAD_PATH\") */\n      0x04\n      dup3\n      add\n        /* \"#utility.yul\":8243:8264   */\n      mstore\n        /* \"#utility.yul\":8300:8301   */\n      0x08\n        /* \"#utility.yul\":8280:8298   */\n      0x24\n      dup3\n      add\n        /* \"#utility.yul\":8273:8302   */\n      mstore\n      shl(0xc3, 0x0848288bea082a89)\n        /* \"#utility.yul\":8318:8336   */\n      0x44\n      dup3\n      add\n        /* \"#utility.yul\":8311:8349   */\n      mstore\n        /* \"#utility.yul\":8366:8384   */\n      0x64\n      add\n        /* \"Smart Contracts/30_SimpleDexAggregatorOZ.sol\":6353:6390  require(path.length >= 2, \"BAD_PATH\") */\n      tag_30\n        /* \"#utility.yul\":8059:8390   */\n      jump\n        /* \"Smart Contracts/30_SimpleDexAggregatorOZ.sol\":6353:6390  require(path.length >= 2, \"BAD_PATH\") */\n    tag_157:\n        /* \"Smart Contracts/30_SimpleDexAggregatorOZ.sol\":6427:6428  1 */\n      0x01\n        /* \"Smart Contracts/30_SimpleDexAggregatorOZ.sol\":6409:6428  routers.length >= 1 */\n      dup9\n      lt\n      dup1\n      iszero\n      swap1\n        /* \"Smart Contracts/30_SimpleDexAggregatorOZ.sol\":6409:6451  routers.length >= 1 && routers.length <= 5 */\n      tag_160\n      jumpi\n      pop\n        /* \"Smart Contracts/30_SimpleDexAggregatorOZ.sol\":6450:6451  5 */\n      0x05\n        /* \"Smart Contracts/30_SimpleDexAggregatorOZ.sol\":6432:6451  routers.length <= 5 */\n      dup9\n      gt\n      iszero\n        /* \"Smart Contracts/30_SimpleDexAggregatorOZ.sol\":6409:6451  routers.length >= 1 && routers.length <= 5 */\n    tag_160:\n        /* \"Smart Contracts/30_SimpleDexAggregatorOZ.sol\":6401:6470  require(routers.length >= 1 && routers.length <= 5, \"ROUTERS_1_TO_5\") */\n      tag_161\n      jumpi\n      mload(0x40)\n      shl(0xe5, 0x461bcd)\n      dup2\n      mstore\n        /* \"#utility.yul\":8597:8599   */\n      0x20\n        /* \"Smart Contracts/30_SimpleDexAggregatorOZ.sol\":6401:6470  require(routers.length >= 1 && routers.length <= 5, \"ROUTERS_1_TO_5\") */\n      0x04\n      dup3\n      add\n        /* \"#utility.yul\":8579:8600   */\n      mstore\n        /* \"#utility.yul\":8636:8638   */\n      0x0e\n        /* \"#utility.yul\":8616:8634   */\n      0x24\n      dup3\n      add\n        /* \"#utility.yul\":8609:8639   */\n      mstore\n      shl(0x90, 0x524f55544552535f315f544f5f35)\n        /* \"#utility.yul\":8655:8673   */\n      0x44\n      dup3\n      add\n        /* \"#utility.yul\":8648:8692   */\n      mstore\n        /* \"#utility.yul\":8709:8727   */\n      0x64\n      add\n        /* \"Smart Contracts/30_SimpleDexAggregatorOZ.sol\":6401:6470  require(routers.length >= 1 && routers.length <= 5, \"ROUTERS_1_TO_5\") */\n      tag_30\n        /* \"#utility.yul\":8395:8733   */\n      jump\n        /* \"Smart Contracts/30_SimpleDexAggregatorOZ.sol\":6401:6470  require(routers.length >= 1 && routers.length <= 5, \"ROUTERS_1_TO_5\") */\n    tag_161:\n        /* \"Smart Contracts/30_SimpleDexAggregatorOZ.sol\":6484:6502  address bestSingle */\n      0x00\n        /* \"Smart Contracts/30_SimpleDexAggregatorOZ.sol\":6504:6525  uint256 bestSingleOut */\n      0x00\n        /* \"Smart Contracts/30_SimpleDexAggregatorOZ.sol\":6529:6570  _bestSingleQuote(amountIn, routers, path) */\n      tag_164\n        /* \"Smart Contracts/30_SimpleDexAggregatorOZ.sol\":6546:6554  amountIn */\n      dup13\n        /* \"Smart Contracts/30_SimpleDexAggregatorOZ.sol\":6556:6563  routers */\n      dup13\n      dup13\n        /* \"Smart Contracts/30_SimpleDexAggregatorOZ.sol\":6565:6569  path */\n      dup13\n      dup13\n        /* \"Smart Contracts/30_SimpleDexAggregatorOZ.sol\":6529:6545  _bestSingleQuote */\n      tag_165\n        /* \"Smart Contracts/30_SimpleDexAggregatorOZ.sol\":6529:6570  _bestSingleQuote(amountIn, routers, path) */\n      jump\t// in\n    tag_164:\n        /* \"Smart Contracts/30_SimpleDexAggregatorOZ.sol\":6483:6570  (address bestSingle, uint256 bestSingleOut) = _bestSingleQuote(amountIn, routers, path) */\n      swap2\n      pop\n      swap2\n      pop\n        /* \"Smart Contracts/30_SimpleDexAggregatorOZ.sol\":6583:6599  TopTwo memory tt */\n      0x00\n        /* \"Smart Contracts/30_SimpleDexAggregatorOZ.sol\":6602:6641  _topTwoRouters(amountIn, routers, path) */\n      tag_166\n        /* \"Smart Contracts/30_SimpleDexAggregatorOZ.sol\":6617:6625  amountIn */\n      dup14\n        /* \"Smart Contracts/30_SimpleDexAggregatorOZ.sol\":6627:6634  routers */\n      dup14\n      dup14\n        /* \"Smart Contracts/30_SimpleDexAggregatorOZ.sol\":6636:6640  path */\n      dup14\n      dup14\n        /* \"Smart Contracts/30_SimpleDexAggregatorOZ.sol\":6602:6616  _topTwoRouters */\n      tag_167\n        /* \"Smart Contracts/30_SimpleDexAggregatorOZ.sol\":6602:6641  _topTwoRouters(amountIn, routers, path) */\n      jump\t// in\n    tag_166:\n        /* \"Smart Contracts/30_SimpleDexAggregatorOZ.sol\":6658:6663  tt.r2 */\n      0x40\n      dup2\n      add\n      mload\n        /* \"Smart Contracts/30_SimpleDexAggregatorOZ.sol\":6583:6641  TopTwo memory tt = _topTwoRouters(amountIn, routers, path) */\n      swap1\n      swap2\n      pop\n      sub(shl(0xa0, 0x01), 0x01)\n        /* \"Smart Contracts/30_SimpleDexAggregatorOZ.sol\":6658:6677  tt.r2 == address(0) */\n      and\n        /* \"Smart Contracts/30_SimpleDexAggregatorOZ.sol\":6654:6762  if (tt.r2 == address(0)) {... */\n      tag_168\n      jumpi\n      pop\n        /* \"Smart Contracts/30_SimpleDexAggregatorOZ.sol\":6702:6707  false */\n      0x00\n      swap7\n      pop\n        /* \"Smart Contracts/30_SimpleDexAggregatorOZ.sol\":6709:6719  bestSingle */\n      swap1\n      swap5\n      pop\n        /* \"Smart Contracts/30_SimpleDexAggregatorOZ.sol\":6702:6707  false */\n      dup6\n      swap4\n      pop\n      dup4\n      swap3\n      pop\n        /* \"Smart Contracts/30_SimpleDexAggregatorOZ.sol\":6736:6749  bestSingleOut */\n      swap1\n      pop\n        /* \"Smart Contracts/30_SimpleDexAggregatorOZ.sol\":6694:6750  return (false, bestSingle, address(0), 0, bestSingleOut) */\n      jump(tag_156)\n        /* \"Smart Contracts/30_SimpleDexAggregatorOZ.sol\":6654:6762  if (tt.r2 == address(0)) {... */\n    tag_168:\n        /* \"Smart Contracts/30_SimpleDexAggregatorOZ.sol\":6775:6794  uint16 bestSplitBps */\n      0x00\n        /* \"Smart Contracts/30_SimpleDexAggregatorOZ.sol\":6796:6816  uint256 bestSplitOut */\n      0x00\n        /* \"Smart Contracts/30_SimpleDexAggregatorOZ.sol\":6820:6865  _bestSplitQuote(amountIn, tt.r1, tt.r2, path) */\n      tag_169\n        /* \"Smart Contracts/30_SimpleDexAggregatorOZ.sol\":6836:6844  amountIn */\n      dup16\n        /* \"Smart Contracts/30_SimpleDexAggregatorOZ.sol\":6846:6848  tt */\n      dup5\n        /* \"Smart Contracts/30_SimpleDexAggregatorOZ.sol\":6846:6851  tt.r1 */\n      0x00\n      add\n      mload\n        /* \"Smart Contracts/30_SimpleDexAggregatorOZ.sol\":6853:6855  tt */\n      dup6\n        /* \"Smart Contracts/30_SimpleDexAggregatorOZ.sol\":6853:6858  tt.r2 */\n      0x40\n      add\n      mload\n        /* \"Smart Contracts/30_SimpleDexAggregatorOZ.sol\":6860:6864  path */\n      dup16\n      dup16\n        /* \"Smart Contracts/30_SimpleDexAggregatorOZ.sol\":6820:6835  _bestSplitQuote */\n      tag_170\n        /* \"Smart Contracts/30_SimpleDexAggregatorOZ.sol\":6820:6865  _bestSplitQuote(amountIn, tt.r1, tt.r2, path) */\n      jump\t// in\n    tag_169:\n        /* \"Smart Contracts/30_SimpleDexAggregatorOZ.sol\":6774:6865  (uint16 bestSplitBps, uint256 bestSplitOut) = _bestSplitQuote(amountIn, tt.r1, tt.r2, path) */\n      swap2\n      pop\n      swap2\n      pop\n        /* \"Smart Contracts/30_SimpleDexAggregatorOZ.sol\":6897:6910  bestSingleOut */\n      dup4\n        /* \"Smart Contracts/30_SimpleDexAggregatorOZ.sol\":6882:6894  bestSplitOut */\n      dup2\n        /* \"Smart Contracts/30_SimpleDexAggregatorOZ.sol\":6882:6910  bestSplitOut > bestSingleOut */\n      gt\n        /* \"Smart Contracts/30_SimpleDexAggregatorOZ.sol\":6878:6994  if (bestSplitOut > bestSingleOut) {... */\n      iszero\n      tag_171\n      jumpi\n        /* \"Smart Contracts/30_SimpleDexAggregatorOZ.sol\":6941:6946  tt.r1 */\n      dup3\n      mload\n        /* \"Smart Contracts/30_SimpleDexAggregatorOZ.sol\":6948:6953  tt.r2 */\n      0x40\n      swap1\n      swap4\n      add\n      mload\n        /* \"Smart Contracts/30_SimpleDexAggregatorOZ.sol\":6935:6939  true */\n      0x01\n      swap11\n      pop\n        /* \"Smart Contracts/30_SimpleDexAggregatorOZ.sol\":6941:6946  tt.r1 */\n      swap3\n      swap9\n      pop\n        /* \"Smart Contracts/30_SimpleDexAggregatorOZ.sol\":6948:6953  tt.r2 */\n      swap2\n      swap7\n      pop\n        /* \"Smart Contracts/30_SimpleDexAggregatorOZ.sol\":6955:6967  bestSplitBps */\n      swap5\n      pop\n        /* \"Smart Contracts/30_SimpleDexAggregatorOZ.sol\":6969:6981  bestSplitOut */\n      swap3\n      pop\n        /* \"Smart Contracts/30_SimpleDexAggregatorOZ.sol\":6927:6982  return (true, tt.r1, tt.r2, bestSplitBps, bestSplitOut) */\n      tag_156\n      swap2\n      pop\n      pop\n      jump\n        /* \"Smart Contracts/30_SimpleDexAggregatorOZ.sol\":6878:6994  if (bestSplitOut > bestSingleOut) {... */\n    tag_171:\n      pop\n        /* \"Smart Contracts/30_SimpleDexAggregatorOZ.sol\":7012:7017  false */\n      0x00\n      swap9\n      pop\n        /* \"Smart Contracts/30_SimpleDexAggregatorOZ.sol\":7019:7029  bestSingle */\n      swap3\n      swap7\n      pop\n        /* \"Smart Contracts/30_SimpleDexAggregatorOZ.sol\":7012:7017  false */\n      dup8\n      swap6\n      pop\n      dup6\n      swap5\n      pop\n        /* \"Smart Contracts/30_SimpleDexAggregatorOZ.sol\":7046:7059  bestSingleOut */\n      swap1\n      swap3\n      pop\n      pop\n      pop\n        /* \"Smart Contracts/30_SimpleDexAggregatorOZ.sol\":5996:7068  function quoteBest(... */\n    tag_156:\n      swap6\n      pop\n      swap6\n      pop\n      swap6\n      pop\n      swap6\n      pop\n      swap6\n      swap1\n      pop\n      jump\t// out\n        /* \"Smart Contracts/30_SimpleDexAggregatorOZ.sol\":5388:5613  function commitSwap(bytes32 commitment) external whenNotPaused {... */\n    tag_73:\n        /* \"@openzeppelin/contracts/utils/Pausable.sol\":1350:1369  _requireNotPaused() */\n      tag_173\n        /* \"@openzeppelin/contracts/utils/Pausable.sol\":1350:1367  _requireNotPaused */\n      tag_174\n        /* \"@openzeppelin/contracts/utils/Pausable.sol\":1350:1369  _requireNotPaused() */\n      jump\t// in\n    tag_173:\n        /* \"Smart Contracts/30_SimpleDexAggregatorOZ.sol\":5471:5481  msg.sender */\n      caller\n        /* \"Smart Contracts/30_SimpleDexAggregatorOZ.sol\":5462:5482  commitOf[msg.sender] */\n      0x00\n      dup2\n      dup2\n      mstore\n        /* \"Smart Contracts/30_SimpleDexAggregatorOZ.sol\":5462:5470  commitOf */\n      0x06\n        /* \"Smart Contracts/30_SimpleDexAggregatorOZ.sol\":5462:5482  commitOf[msg.sender] */\n      0x20\n      swap1\n      dup2\n      mstore\n      0x40\n      dup1\n      dup4\n      keccak256\n        /* \"Smart Contracts/30_SimpleDexAggregatorOZ.sol\":5462:5495  commitOf[msg.sender] = commitment */\n      dup6\n      swap1\n      sstore\n        /* \"Smart Contracts/30_SimpleDexAggregatorOZ.sol\":5506:5517  commitBlock */\n      0x07\n        /* \"Smart Contracts/30_SimpleDexAggregatorOZ.sol\":5506:5529  commitBlock[msg.sender] */\n      dup3\n      mstore\n      swap2\n      dup3\n      swap1\n      keccak256\n        /* \"Smart Contracts/30_SimpleDexAggregatorOZ.sol\":5506:5552  commitBlock[msg.sender] = uint64(block.number) */\n      dup1\n      sload\n      not(0xffffffffffffffff)\n      and\n        /* \"Smart Contracts/30_SimpleDexAggregatorOZ.sol\":5539:5551  block.number */\n      number\n      sub(shl(0x40, 0x01), 0x01)\n        /* \"Smart Contracts/30_SimpleDexAggregatorOZ.sol\":5506:5552  commitBlock[msg.sender] = uint64(block.number) */\n      and\n      or\n      swap1\n      sstore\n        /* \"Smart Contracts/30_SimpleDexAggregatorOZ.sol\":5568:5605  SwapCommitted(msg.sender, commitment) */\n      swap1\n      mload\n        /* \"#utility.yul\":5645:5670   */\n      dup4\n      dup2\n      mstore\n        /* \"Smart Contracts/30_SimpleDexAggregatorOZ.sol\":5568:5605  SwapCommitted(msg.sender, commitment) */\n      0xbc18d35ebc445de56fb4b050fcab7487b4d634bedb37fdd73db4a87bb17e508e\n      swap2\n        /* \"#utility.yul\":5618:5636   */\n      add\n        /* \"Smart Contracts/30_SimpleDexAggregatorOZ.sol\":5568:5605  SwapCommitted(msg.sender, commitment) */\n      mload(0x40)\n      dup1\n      swap2\n      sub\n      swap1\n      log2\n        /* \"Smart Contracts/30_SimpleDexAggregatorOZ.sol\":5388:5613  function commitSwap(bytes32 commitment) external whenNotPaused {... */\n      pop\n      jump\t// out\n        /* \"Smart Contracts/30_SimpleDexAggregatorOZ.sol\":8611:9484  function swapBestReveal(... */\n    tag_83:\n        /* \"Smart Contracts/30_SimpleDexAggregatorOZ.sol\":8865:8882  uint256 outToUser */\n      0x00\n        /* \"@openzeppelin/contracts/utils/ReentrancyGuard.sol\":2500:2521  _nonReentrantBefore() */\n      tag_179\n        /* \"@openzeppelin/contracts/utils/ReentrancyGuard.sol\":2500:2519  _nonReentrantBefore */\n      tag_180\n        /* \"@openzeppelin/contracts/utils/ReentrancyGuard.sol\":2500:2521  _nonReentrantBefore() */\n      jump\t// in\n    tag_179:\n        /* \"@openzeppelin/contracts/utils/Pausable.sol\":1350:1369  _requireNotPaused() */\n      tag_182\n        /* \"@openzeppelin/contracts/utils/Pausable.sol\":1350:1367  _requireNotPaused */\n      tag_174\n        /* \"@openzeppelin/contracts/utils/Pausable.sol\":1350:1369  _requireNotPaused() */\n      jump\t// in\n    tag_182:\n        /* \"Smart Contracts/30_SimpleDexAggregatorOZ.sol\":8895:8911  bytes32 expected */\n      0x00\n        /* \"Smart Contracts/30_SimpleDexAggregatorOZ.sol\":8935:8945  msg.sender */\n      caller\n        /* \"Smart Contracts/30_SimpleDexAggregatorOZ.sol\":8947:8955  amountIn */\n      dup11\n        /* \"Smart Contracts/30_SimpleDexAggregatorOZ.sol\":8957:8968  minOutTotal */\n      dup11\n        /* \"Smart Contracts/30_SimpleDexAggregatorOZ.sol\":8970:8977  routers */\n      dup11\n      dup11\n        /* \"Smart Contracts/30_SimpleDexAggregatorOZ.sol\":8979:8983  path */\n      dup11\n      dup11\n        /* \"Smart Contracts/30_SimpleDexAggregatorOZ.sol\":8985:8993  deadline */\n      dup11\n        /* \"Smart Contracts/30_SimpleDexAggregatorOZ.sol\":8995:8999  salt */\n      dup11\n        /* \"Smart Contracts/30_SimpleDexAggregatorOZ.sol\":8924:9000  abi.encode(msg.sender, amountIn, minOutTotal, routers, path, deadline, salt) */\n      add(0x20, mload(0x40))\n      tag_184\n      swap10\n      swap9\n      swap8\n      swap7\n      swap6\n      swap5\n      swap4\n      swap3\n      swap2\n      swap1\n      tag_185\n      jump\t// in\n    tag_184:\n      0x40\n      dup1\n      mload\n      not(0x1f)\n      dup2\n      dup5\n      sub\n      add\n      dup2\n      mstore\n      swap2\n      dup2\n      mstore\n        /* \"Smart Contracts/30_SimpleDexAggregatorOZ.sol\":8914:9001  keccak256(abi.encode(msg.sender, amountIn, minOutTotal, routers, path, deadline, salt)) */\n      dup2\n      mload\n        /* \"Smart Contracts/30_SimpleDexAggregatorOZ.sol\":8924:9000  abi.encode(msg.sender, amountIn, minOutTotal, routers, path, deadline, salt) */\n      0x20\n        /* \"Smart Contracts/30_SimpleDexAggregatorOZ.sol\":8914:9001  keccak256(abi.encode(msg.sender, amountIn, minOutTotal, routers, path, deadline, salt)) */\n      swap3\n      dup4\n      add\n      keccak256\n        /* \"Smart Contracts/30_SimpleDexAggregatorOZ.sol\":9029:9039  msg.sender */\n      caller\n        /* \"Smart Contracts/30_SimpleDexAggregatorOZ.sol\":9052:9053  0 */\n      0x00\n        /* \"Smart Contracts/30_SimpleDexAggregatorOZ.sol\":9020:9040  commitOf[msg.sender] */\n      swap1\n      dup2\n      mstore\n        /* \"Smart Contracts/30_SimpleDexAggregatorOZ.sol\":9020:9028  commitOf */\n      0x06\n        /* \"Smart Contracts/30_SimpleDexAggregatorOZ.sol\":9020:9040  commitOf[msg.sender] */\n      swap1\n      swap4\n      mstore\n      swap2\n      keccak256\n      sload\n        /* \"Smart Contracts/30_SimpleDexAggregatorOZ.sol\":8914:9001  keccak256(abi.encode(msg.sender, amountIn, minOutTotal, routers, path, deadline, salt)) */\n      swap1\n      swap2\n      pop\n        /* \"Smart Contracts/30_SimpleDexAggregatorOZ.sol\":9012:9068  require(commitOf[msg.sender] != bytes32(0), \"NO_COMMIT\") */\n      tag_186\n      jumpi\n      mload(0x40)\n      shl(0xe5, 0x461bcd)\n      dup2\n      mstore\n        /* \"#utility.yul\":10285:10287   */\n      0x20\n        /* \"Smart Contracts/30_SimpleDexAggregatorOZ.sol\":9012:9068  require(commitOf[msg.sender] != bytes32(0), \"NO_COMMIT\") */\n      0x04\n      dup3\n      add\n        /* \"#utility.yul\":10267:10288   */\n      mstore\n        /* \"#utility.yul\":10324:10325   */\n      0x09\n        /* \"#utility.yul\":10304:10322   */\n      0x24\n      dup3\n      add\n        /* \"#utility.yul\":10297:10326   */\n      mstore\n      shl(0xba, 0x1393d7d0d3d3535255)\n        /* \"#utility.yul\":10342:10360   */\n      0x44\n      dup3\n      add\n        /* \"#utility.yul\":10335:10374   */\n      mstore\n        /* \"#utility.yul\":10391:10409   */\n      0x64\n      add\n        /* \"Smart Contracts/30_SimpleDexAggregatorOZ.sol\":9012:9068  require(commitOf[msg.sender] != bytes32(0), \"NO_COMMIT\") */\n      tag_30\n        /* \"#utility.yul\":10083:10415   */\n      jump\n        /* \"Smart Contracts/30_SimpleDexAggregatorOZ.sol\":9012:9068  require(commitOf[msg.sender] != bytes32(0), \"NO_COMMIT\") */\n    tag_186:\n        /* \"Smart Contracts/30_SimpleDexAggregatorOZ.sol\":9096:9106  msg.sender */\n      caller\n        /* \"Smart Contracts/30_SimpleDexAggregatorOZ.sol\":9087:9107  commitOf[msg.sender] */\n      0x00\n      swap1\n      dup2\n      mstore\n        /* \"Smart Contracts/30_SimpleDexAggregatorOZ.sol\":9087:9095  commitOf */\n      0x06\n        /* \"Smart Contracts/30_SimpleDexAggregatorOZ.sol\":9087:9107  commitOf[msg.sender] */\n      0x20\n      mstore\n      0x40\n      swap1\n      keccak256\n      sload\n        /* \"Smart Contracts/30_SimpleDexAggregatorOZ.sol\":9087:9119  commitOf[msg.sender] == expected */\n      dup2\n      eq\n        /* \"Smart Contracts/30_SimpleDexAggregatorOZ.sol\":9079:9134  require(commitOf[msg.sender] == expected, \"BAD_COMMIT\") */\n      tag_189\n      jumpi\n      mload(0x40)\n      shl(0xe5, 0x461bcd)\n      dup2\n      mstore\n        /* \"#utility.yul\":10622:10624   */\n      0x20\n        /* \"Smart Contracts/30_SimpleDexAggregatorOZ.sol\":9079:9134  require(commitOf[msg.sender] == expected, \"BAD_COMMIT\") */\n      0x04\n      dup3\n      add\n        /* \"#utility.yul\":10604:10625   */\n      mstore\n        /* \"#utility.yul\":10661:10663   */\n      0x0a\n        /* \"#utility.yul\":10641:10659   */\n      0x24\n      dup3\n      add\n        /* \"#utility.yul\":10634:10664   */\n      mstore\n      shl(0xb2, 0x10905117d0d3d3535255)\n        /* \"#utility.yul\":10680:10698   */\n      0x44\n      dup3\n      add\n        /* \"#utility.yul\":10673:10713   */\n      mstore\n        /* \"#utility.yul\":10730:10748   */\n      0x64\n      add\n        /* \"Smart Contracts/30_SimpleDexAggregatorOZ.sol\":9079:9134  require(commitOf[msg.sender] == expected, \"BAD_COMMIT\") */\n      tag_30\n        /* \"#utility.yul\":10420:10754   */\n      jump\n        /* \"Smart Contracts/30_SimpleDexAggregatorOZ.sol\":9079:9134  require(commitOf[msg.sender] == expected, \"BAD_COMMIT\") */\n    tag_189:\n        /* \"Smart Contracts/30_SimpleDexAggregatorOZ.sol\":9213:9223  msg.sender */\n      caller\n        /* \"Smart Contracts/30_SimpleDexAggregatorOZ.sol\":9201:9224  commitBlock[msg.sender] */\n      0x00\n      swap1\n      dup2\n      mstore\n        /* \"Smart Contracts/30_SimpleDexAggregatorOZ.sol\":9201:9212  commitBlock */\n      0x07\n        /* \"Smart Contracts/30_SimpleDexAggregatorOZ.sol\":9201:9224  commitBlock[msg.sender] */\n      0x20\n      mstore\n      0x40\n      swap1\n      keccak256\n      sload\n      sub(shl(0x40, 0x01), 0x01)\n        /* \"Smart Contracts/30_SimpleDexAggregatorOZ.sol\":9234:9246  block.number */\n      number\n        /* \"Smart Contracts/30_SimpleDexAggregatorOZ.sol\":9201:9247  commitBlock[msg.sender] < uint64(block.number) */\n      dup2\n      and\n        /* \"Smart Contracts/30_SimpleDexAggregatorOZ.sol\":9201:9224  commitBlock[msg.sender] */\n      swap2\n      and\n        /* \"Smart Contracts/30_SimpleDexAggregatorOZ.sol\":9201:9247  commitBlock[msg.sender] < uint64(block.number) */\n      lt\n        /* \"Smart Contracts/30_SimpleDexAggregatorOZ.sol\":9193:9269  require(commitBlock[msg.sender] < uint64(block.number), \"REVEAL_NEXT_BLOCK\") */\n      tag_192\n      jumpi\n      mload(0x40)\n      shl(0xe5, 0x461bcd)\n      dup2\n      mstore\n        /* \"#utility.yul\":10961:10963   */\n      0x20\n        /* \"Smart Contracts/30_SimpleDexAggregatorOZ.sol\":9193:9269  require(commitBlock[msg.sender] < uint64(block.number), \"REVEAL_NEXT_BLOCK\") */\n      0x04\n      dup3\n      add\n        /* \"#utility.yul\":10943:10964   */\n      mstore\n        /* \"#utility.yul\":11000:11002   */\n      0x11\n        /* \"#utility.yul\":10980:10998   */\n      0x24\n      dup3\n      add\n        /* \"#utility.yul\":10973:11003   */\n      mstore\n      shl(0x78, 0x52455645414c5f4e4558545f424c4f434b)\n        /* \"#utility.yul\":11019:11037   */\n      0x44\n      dup3\n      add\n        /* \"#utility.yul\":11012:11059   */\n      mstore\n        /* \"#utility.yul\":11076:11094   */\n      0x64\n      add\n        /* \"Smart Contracts/30_SimpleDexAggregatorOZ.sol\":9193:9269  require(commitBlock[msg.sender] < uint64(block.number), \"REVEAL_NEXT_BLOCK\") */\n      tag_30\n        /* \"#utility.yul\":10759:11100   */\n      jump\n        /* \"Smart Contracts/30_SimpleDexAggregatorOZ.sol\":9193:9269  require(commitBlock[msg.sender] < uint64(block.number), \"REVEAL_NEXT_BLOCK\") */\n    tag_192:\n        /* \"Smart Contracts/30_SimpleDexAggregatorOZ.sol\":9298:9308  msg.sender */\n      caller\n        /* \"Smart Contracts/30_SimpleDexAggregatorOZ.sol\":9289:9309  commitOf[msg.sender] */\n      0x00\n      dup2\n      dup2\n      mstore\n        /* \"Smart Contracts/30_SimpleDexAggregatorOZ.sol\":9289:9297  commitOf */\n      0x06\n        /* \"Smart Contracts/30_SimpleDexAggregatorOZ.sol\":9289:9309  commitOf[msg.sender] */\n      0x20\n      swap1\n      dup2\n      mstore\n      0x40\n      dup1\n      dup4\n      keccak256\n        /* \"Smart Contracts/30_SimpleDexAggregatorOZ.sol\":9282:9309  delete commitOf[msg.sender] */\n      dup4\n      swap1\n      sstore\n        /* \"Smart Contracts/30_SimpleDexAggregatorOZ.sol\":9327:9338  commitBlock */\n      0x07\n        /* \"Smart Contracts/30_SimpleDexAggregatorOZ.sol\":9327:9350  commitBlock[msg.sender] */\n      swap1\n      swap2\n      mstore\n      dup1\n      dup3\n      keccak256\n        /* \"Smart Contracts/30_SimpleDexAggregatorOZ.sol\":9320:9350  delete commitBlock[msg.sender] */\n      dup1\n      sload\n      not(0xffffffffffffffff)\n      and\n      swap1\n      sstore\n        /* \"Smart Contracts/30_SimpleDexAggregatorOZ.sol\":9366:9395  SwapCommitCleared(msg.sender) */\n      mload\n      0x1987e6a4ce537a918d38185d7c3a5a6beaf7ab33a80362f59eab4ec9fdd43ed5\n      swap2\n        /* \"Smart Contracts/30_SimpleDexAggregatorOZ.sol\":9289:9309  commitOf[msg.sender] */\n      swap1\n        /* \"Smart Contracts/30_SimpleDexAggregatorOZ.sol\":9366:9395  SwapCommitCleared(msg.sender) */\n      log2\n        /* \"Smart Contracts/30_SimpleDexAggregatorOZ.sol\":9420:9476  swapBest(amountIn, minOutTotal, routers, path, deadline) */\n      tag_195\n        /* \"Smart Contracts/30_SimpleDexAggregatorOZ.sol\":9429:9437  amountIn */\n      dup11\n        /* \"Smart Contracts/30_SimpleDexAggregatorOZ.sol\":9439:9450  minOutTotal */\n      dup11\n        /* \"Smart Contracts/30_SimpleDexAggregatorOZ.sol\":9452:9459  routers */\n      dup11\n      dup11\n        /* \"Smart Contracts/30_SimpleDexAggregatorOZ.sol\":9461:9465  path */\n      dup11\n      dup11\n        /* \"Smart Contracts/30_SimpleDexAggregatorOZ.sol\":9467:9475  deadline */\n      dup11\n        /* \"Smart Contracts/30_SimpleDexAggregatorOZ.sol\":9420:9428  swapBest */\n      tag_125\n        /* \"Smart Contracts/30_SimpleDexAggregatorOZ.sol\":9420:9476  swapBest(amountIn, minOutTotal, routers, path, deadline) */\n      jump\t// in\n    tag_195:\n        /* \"Smart Contracts/30_SimpleDexAggregatorOZ.sol\":9408:9476  outToUser = swapBest(amountIn, minOutTotal, routers, path, deadline) */\n      swap2\n      pop\n        /* \"Smart Contracts/30_SimpleDexAggregatorOZ.sol\":8884:9484  {... */\n      pop\n        /* \"@openzeppelin/contracts/utils/ReentrancyGuard.sol\":2542:2562  _nonReentrantAfter() */\n      tag_196\n        /* \"@openzeppelin/contracts/utils/ReentrancyGuard.sol\":1857:1858  1 */\n      0x01\n        /* \"@openzeppelin/contracts/utils/ReentrancyGuard.sol\":3068:3075  _status */\n      0x02\n        /* \"@openzeppelin/contracts/utils/ReentrancyGuard.sol\":3068:3089  _status = NOT_ENTERED */\n      sstore\n        /* \"@openzeppelin/contracts/utils/ReentrancyGuard.sol\":2888:3096  function _nonReentrantAfter() private {... */\n      jump\n        /* \"@openzeppelin/contracts/utils/ReentrancyGuard.sol\":2542:2562  _nonReentrantAfter() */\n    tag_196:\n        /* \"Smart Contracts/30_SimpleDexAggregatorOZ.sol\":8611:9484  function swapBestReveal(... */\n      swap9\n      swap8\n      pop\n      pop\n      pop\n      pop\n      pop\n      pop\n      pop\n      pop\n      jump\t// out\n        /* \"@openzeppelin/contracts/access/Ownable.sol\":2293:2394  function renounceOwnership() public virtual onlyOwner {... */\n    tag_88:\n        /* \"@openzeppelin/contracts/access/Ownable.sol\":1531:1544  _checkOwner() */\n      tag_199\n        /* \"@openzeppelin/contracts/access/Ownable.sol\":1531:1542  _checkOwner */\n      tag_138\n        /* \"@openzeppelin/contracts/access/Ownable.sol\":1531:1544  _checkOwner() */\n      jump\t// in\n    tag_199:\n        /* \"@openzeppelin/contracts/access/Ownable.sol\":2357:2387  _transferOwnership(address(0)) */\n      tag_201\n        /* \"@openzeppelin/contracts/access/Ownable.sol\":2384:2385  0 */\n      0x00\n        /* \"@openzeppelin/contracts/access/Ownable.sol\":2357:2375  _transferOwnership */\n      tag_202\n        /* \"@openzeppelin/contracts/access/Ownable.sol\":2357:2387  _transferOwnership(address(0)) */\n      jump\t// in\n    tag_201:\n        /* \"@openzeppelin/contracts/access/Ownable.sol\":2293:2394  function renounceOwnership() public virtual onlyOwner {... */\n      jump\t// out\n        /* \"@openzeppelin/contracts/access/Ownable2Step.sol\":2244:2473  function acceptOwnership() public virtual {... */\n    tag_91:\n        /* \"@openzeppelin/contracts/access/Ownable2Step.sol\":1311:1324  _pendingOwner */\n      sload(0x01)\n        /* \"@openzeppelin/contracts/utils/Context.sol\":735:745  msg.sender */\n      caller\n      swap1\n      sub(shl(0xa0, 0x01), 0x01)\n        /* \"@openzeppelin/contracts/access/Ownable2Step.sol\":1311:1324  _pendingOwner */\n      and\n        /* \"@openzeppelin/contracts/access/Ownable2Step.sol\":2339:2363  pendingOwner() != sender */\n      dup2\n      eq\n        /* \"@openzeppelin/contracts/access/Ownable2Step.sol\":2335:2431  if (pendingOwner() != sender) {... */\n      tag_207\n      jumpi\n        /* \"@openzeppelin/contracts/access/Ownable2Step.sol\":2386:2420  OwnableUnauthorizedAccount(sender) */\n      mload(0x40)\n      shl(0xe0, 0x118cdaa7)\n      dup2\n      mstore\n      sub(shl(0xa0, 0x01), 0x01)\n        /* \"#utility.yul\":1982:2014   */\n      dup3\n      and\n        /* \"@openzeppelin/contracts/access/Ownable2Step.sol\":2386:2420  OwnableUnauthorizedAccount(sender) */\n      0x04\n      dup3\n      add\n        /* \"#utility.yul\":1964:2015   */\n      mstore\n        /* \"#utility.yul\":1937:1955   */\n      0x24\n      add\n        /* \"@openzeppelin/contracts/access/Ownable2Step.sol\":2386:2420  OwnableUnauthorizedAccount(sender) */\n      tag_30\n        /* \"#utility.yul\":1818:2021   */\n      jump\n        /* \"@openzeppelin/contracts/access/Ownable2Step.sol\":2335:2431  if (pendingOwner() != sender) {... */\n    tag_207:\n        /* \"@openzeppelin/contracts/access/Ownable2Step.sol\":2440:2466  _transferOwnership(sender) */\n      tag_209\n        /* \"@openzeppelin/contracts/access/Ownable2Step.sol\":2459:2465  sender */\n      dup2\n        /* \"@openzeppelin/contracts/access/Ownable2Step.sol\":2440:2458  _transferOwnership */\n      tag_202\n        /* \"@openzeppelin/contracts/access/Ownable2Step.sol\":2440:2466  _transferOwnership(sender) */\n      jump\t// in\n    tag_209:\n        /* \"@openzeppelin/contracts/access/Ownable2Step.sol\":2286:2473  {... */\n      pop\n        /* \"@openzeppelin/contracts/access/Ownable2Step.sol\":2244:2473  function acceptOwnership() public virtual {... */\n      jump\t// out\n        /* \"Smart Contracts/30_SimpleDexAggregatorOZ.sol\":4992:5146  function pause() external onlyOwner {... */\n    tag_94:\n        /* \"@openzeppelin/contracts/access/Ownable.sol\":1531:1544  _checkOwner() */\n      tag_211\n        /* \"@openzeppelin/contracts/access/Ownable.sol\":1531:1542  _checkOwner */\n      tag_138\n        /* \"@openzeppelin/contracts/access/Ownable.sol\":1531:1544  _checkOwner() */\n      jump\t// in\n    tag_211:\n        /* \"Smart Contracts/30_SimpleDexAggregatorOZ.sol\":5039:5047  _pause() */\n      tag_213\n        /* \"Smart Contracts/30_SimpleDexAggregatorOZ.sol\":5039:5045  _pause */\n      tag_214\n        /* \"Smart Contracts/30_SimpleDexAggregatorOZ.sol\":5039:5047  _pause() */\n      jump\t// in\n    tag_213:\n        /* \"Smart Contracts/30_SimpleDexAggregatorOZ.sol\":5118:5138  PausedBy(msg.sender) */\n      mload(0x40)\n        /* \"Smart Contracts/30_SimpleDexAggregatorOZ.sol\":5127:5137  msg.sender */\n      caller\n      swap1\n        /* \"Smart Contracts/30_SimpleDexAggregatorOZ.sol\":5118:5138  PausedBy(msg.sender) */\n      0x314364159151b7b18f5ebe5ff7560d5d2bda61579a0b674a2967e01cd7686955\n      swap1\n      0x00\n      swap1\n      log2\n        /* \"Smart Contracts/30_SimpleDexAggregatorOZ.sol\":4992:5146  function pause() external onlyOwner {... */\n      jump\t// out\n        /* \"Smart Contracts/30_SimpleDexAggregatorOZ.sol\":17451:17591  function rescueToken(address token, address to, uint256 amount) external onlyOwner {... */\n    tag_116:\n        /* \"@openzeppelin/contracts/access/Ownable.sol\":1531:1544  _checkOwner() */\n      tag_218\n        /* \"@openzeppelin/contracts/access/Ownable.sol\":1531:1542  _checkOwner */\n      tag_138\n        /* \"@openzeppelin/contracts/access/Ownable.sol\":1531:1544  _checkOwner() */\n      jump\t// in\n    tag_218:\n        /* \"Smart Contracts/30_SimpleDexAggregatorOZ.sol\":17545:17583  IERC20(token).safeTransfer(to, amount) */\n      tag_220\n      sub(shl(0xa0, 0x01), 0x01)\n        /* \"Smart Contracts/30_SimpleDexAggregatorOZ.sol\":17545:17571  IERC20(token).safeTransfer */\n      dup5\n      and\n        /* \"Smart Contracts/30_SimpleDexAggregatorOZ.sol\":17572:17574  to */\n      dup4\n        /* \"Smart Contracts/30_SimpleDexAggregatorOZ.sol\":17576:17582  amount */\n      dup4\n        /* \"Smart Contracts/30_SimpleDexAggregatorOZ.sol\":17545:17571  IERC20(token).safeTransfer */\n      tag_221\n        /* \"Smart Contracts/30_SimpleDexAggregatorOZ.sol\":17545:17583  IERC20(token).safeTransfer(to, amount) */\n      jump\t// in\n    tag_220:\n        /* \"Smart Contracts/30_SimpleDexAggregatorOZ.sol\":17451:17591  function rescueToken(address token, address to, uint256 amount) external onlyOwner {... */\n      pop\n      pop\n      pop\n      jump\t// out\n        /* \"@openzeppelin/contracts/access/Ownable2Step.sol\":1649:1827  function transferOwnership(address newOwner) public virtual override onlyOwner {... */\n    tag_120:\n        /* \"@openzeppelin/contracts/access/Ownable.sol\":1531:1544  _checkOwner() */\n      tag_223\n        /* \"@openzeppelin/contracts/access/Ownable.sol\":1531:1542  _checkOwner */\n      tag_138\n        /* \"@openzeppelin/contracts/access/Ownable.sol\":1531:1544  _checkOwner() */\n      jump\t// in\n    tag_223:\n        /* \"@openzeppelin/contracts/access/Ownable2Step.sol\":1738:1751  _pendingOwner */\n      0x01\n        /* \"@openzeppelin/contracts/access/Ownable2Step.sol\":1738:1762  _pendingOwner = newOwner */\n      dup1\n      sload\n      sub(shl(0xa0, 0x01), 0x01)\n      dup4\n      and\n      not(sub(shl(0xa0, 0x01), 0x01))\n      swap1\n      swap2\n      and\n      dup2\n      or\n      swap1\n      swap2\n      sstore\n        /* \"@openzeppelin/contracts/access/Ownable2Step.sol\":1802:1809  owner() */\n      tag_225\n        /* \"@openzeppelin/contracts/access/Ownable.sol\":1684:1691  address */\n      0x00\n        /* \"@openzeppelin/contracts/access/Ownable.sol\":1710:1716  _owner */\n      sload\n      sub(shl(0xa0, 0x01), 0x01)\n      and\n      swap1\n        /* \"@openzeppelin/contracts/access/Ownable.sol\":1638:1723  function owner() public view virtual returns (address) {... */\n      jump\n        /* \"@openzeppelin/contracts/access/Ownable2Step.sol\":1802:1809  owner() */\n    tag_225:\n      sub(shl(0xa0, 0x01), 0x01)\n        /* \"@openzeppelin/contracts/access/Ownable2Step.sol\":1777:1820  OwnershipTransferStarted(owner(), newOwner) */\n      and\n      0x38d16b8cac22d99fc7c124b9cd0de2d3fa1faef420bfe791d8c362d765e22700\n      mload(0x40)\n      mload(0x40)\n      dup1\n      swap2\n      sub\n      swap1\n      log3\n        /* \"@openzeppelin/contracts/access/Ownable2Step.sol\":1649:1827  function transferOwnership(address newOwner) public virtual override onlyOwner {... */\n      pop\n      jump\t// out\n        /* \"Smart Contracts/30_SimpleDexAggregatorOZ.sol\":7337:8521  function swapBest(... */\n    tag_125:\n        /* \"Smart Contracts/30_SimpleDexAggregatorOZ.sol\":7560:7577  uint256 outToUser */\n      0x00\n        /* \"@openzeppelin/contracts/utils/ReentrancyGuard.sol\":2500:2521  _nonReentrantBefore() */\n      tag_227\n        /* \"@openzeppelin/contracts/utils/ReentrancyGuard.sol\":2500:2519  _nonReentrantBefore */\n      tag_180\n        /* \"@openzeppelin/contracts/utils/ReentrancyGuard.sol\":2500:2521  _nonReentrantBefore() */\n      jump\t// in\n    tag_227:\n        /* \"@openzeppelin/contracts/utils/Pausable.sol\":1350:1369  _requireNotPaused() */\n      tag_229\n        /* \"@openzeppelin/contracts/utils/Pausable.sol\":1350:1367  _requireNotPaused */\n      tag_174\n        /* \"@openzeppelin/contracts/utils/Pausable.sol\":1350:1369  _requireNotPaused() */\n      jump\t// in\n    tag_229:\n        /* \"Smart Contracts/30_SimpleDexAggregatorOZ.sol\":7613:7614  2 */\n      0x02\n        /* \"Smart Contracts/30_SimpleDexAggregatorOZ.sol\":7598:7614  path.length >= 2 */\n      dup4\n      lt\n      iszero\n        /* \"Smart Contracts/30_SimpleDexAggregatorOZ.sol\":7590:7627  require(path.length >= 2, \"BAD_PATH\") */\n      tag_231\n      jumpi\n      mload(0x40)\n      shl(0xe5, 0x461bcd)\n      dup2\n      mstore\n        /* \"#utility.yul\":8261:8263   */\n      0x20\n        /* \"Smart Contracts/30_SimpleDexAggregatorOZ.sol\":7590:7627  require(path.length >= 2, \"BAD_PATH\") */\n      0x04\n      dup3\n      add\n        /* \"#utility.yul\":8243:8264   */\n      mstore\n        /* \"#utility.yul\":8300:8301   */\n      0x08\n        /* \"#utility.yul\":8280:8298   */\n      0x24\n      dup3\n      add\n        /* \"#utility.yul\":8273:8302   */\n      mstore\n      shl(0xc3, 0x0848288bea082a89)\n        /* \"#utility.yul\":8318:8336   */\n      0x44\n      dup3\n      add\n        /* \"#utility.yul\":8311:8349   */\n      mstore\n        /* \"#utility.yul\":8366:8384   */\n      0x64\n      add\n        /* \"Smart Contracts/30_SimpleDexAggregatorOZ.sol\":7590:7627  require(path.length >= 2, \"BAD_PATH\") */\n      tag_30\n        /* \"#utility.yul\":8059:8390   */\n      jump\n        /* \"Smart Contracts/30_SimpleDexAggregatorOZ.sol\":7590:7627  require(path.length >= 2, \"BAD_PATH\") */\n    tag_231:\n        /* \"Smart Contracts/30_SimpleDexAggregatorOZ.sol\":7664:7665  1 */\n      0x01\n        /* \"Smart Contracts/30_SimpleDexAggregatorOZ.sol\":7646:7665  routers.length >= 1 */\n      dup6\n      lt\n      dup1\n      iszero\n      swap1\n        /* \"Smart Contracts/30_SimpleDexAggregatorOZ.sol\":7646:7688  routers.length >= 1 && routers.length <= 5 */\n      tag_233\n      jumpi\n      pop\n        /* \"Smart Contracts/30_SimpleDexAggregatorOZ.sol\":7687:7688  5 */\n      0x05\n        /* \"Smart Contracts/30_SimpleDexAggregatorOZ.sol\":7669:7688  routers.length <= 5 */\n      dup6\n      gt\n      iszero\n        /* \"Smart Contracts/30_SimpleDexAggregatorOZ.sol\":7646:7688  routers.length >= 1 && routers.length <= 5 */\n    tag_233:\n        /* \"Smart Contracts/30_SimpleDexAggregatorOZ.sol\":7638:7707  require(routers.length >= 1 && routers.length <= 5, \"ROUTERS_1_TO_5\") */\n      tag_234\n      jumpi\n      mload(0x40)\n      shl(0xe5, 0x461bcd)\n      dup2\n      mstore\n        /* \"#utility.yul\":8597:8599   */\n      0x20\n        /* \"Smart Contracts/30_SimpleDexAggregatorOZ.sol\":7638:7707  require(routers.length >= 1 && routers.length <= 5, \"ROUTERS_1_TO_5\") */\n      0x04\n      dup3\n      add\n        /* \"#utility.yul\":8579:8600   */\n      mstore\n        /* \"#utility.yul\":8636:8638   */\n      0x0e\n        /* \"#utility.yul\":8616:8634   */\n      0x24\n      dup3\n      add\n        /* \"#utility.yul\":8609:8639   */\n      mstore\n      shl(0x90, 0x524f55544552535f315f544f5f35)\n        /* \"#utility.yul\":8655:8673   */\n      0x44\n      dup3\n      add\n        /* \"#utility.yul\":8648:8692   */\n      mstore\n        /* \"#utility.yul\":8709:8727   */\n      0x64\n      add\n        /* \"Smart Contracts/30_SimpleDexAggregatorOZ.sol\":7638:7707  require(routers.length >= 1 && routers.length <= 5, \"ROUTERS_1_TO_5\") */\n      tag_30\n        /* \"#utility.yul\":8395:8733   */\n      jump\n        /* \"Smart Contracts/30_SimpleDexAggregatorOZ.sol\":7638:7707  require(routers.length >= 1 && routers.length <= 5, \"ROUTERS_1_TO_5\") */\n    tag_234:\n        /* \"Smart Contracts/30_SimpleDexAggregatorOZ.sol\":7745:7753  deadline */\n      dup2\n        /* \"Smart Contracts/30_SimpleDexAggregatorOZ.sol\":7726:7741  block.timestamp */\n      timestamp\n        /* \"Smart Contracts/30_SimpleDexAggregatorOZ.sol\":7726:7753  block.timestamp <= deadline */\n      gt\n      iszero\n        /* \"Smart Contracts/30_SimpleDexAggregatorOZ.sol\":7718:7773  require(block.timestamp <= deadline, \"DEADLINE_PASSED\") */\n      tag_236\n      jumpi\n      mload(0x40)\n      shl(0xe5, 0x461bcd)\n      dup2\n      mstore\n        /* \"#utility.yul\":11307:11309   */\n      0x20\n        /* \"Smart Contracts/30_SimpleDexAggregatorOZ.sol\":7718:7773  require(block.timestamp <= deadline, \"DEADLINE_PASSED\") */\n      0x04\n      dup3\n      add\n        /* \"#utility.yul\":11289:11310   */\n      mstore\n        /* \"#utility.yul\":11346:11348   */\n      0x0f\n        /* \"#utility.yul\":11326:11344   */\n      0x24\n      dup3\n      add\n        /* \"#utility.yul\":11319:11349   */\n      mstore\n      shl(0x8a, 0x111150511312539157d41054d4d151)\n        /* \"#utility.yul\":11365:11383   */\n      0x44\n      dup3\n      add\n        /* \"#utility.yul\":11358:11403   */\n      mstore\n        /* \"#utility.yul\":11420:11438   */\n      0x64\n      add\n        /* \"Smart Contracts/30_SimpleDexAggregatorOZ.sol\":7718:7773  require(block.timestamp <= deadline, \"DEADLINE_PASSED\") */\n      tag_30\n        /* \"#utility.yul\":11105:11444   */\n      jump\n        /* \"Smart Contracts/30_SimpleDexAggregatorOZ.sol\":7718:7773  require(block.timestamp <= deadline, \"DEADLINE_PASSED\") */\n    tag_236:\n        /* \"Smart Contracts/30_SimpleDexAggregatorOZ.sol\":7791:7800  uint256 i */\n      0x00\n        /* \"Smart Contracts/30_SimpleDexAggregatorOZ.sol\":7786:7916  for (uint256 i = 0; i < routers.length; i++) {... */\n    tag_239:\n        /* \"Smart Contracts/30_SimpleDexAggregatorOZ.sol\":7806:7824  i < routers.length */\n      dup6\n      dup2\n      lt\n        /* \"Smart Contracts/30_SimpleDexAggregatorOZ.sol\":7786:7916  for (uint256 i = 0; i < routers.length; i++) {... */\n      iszero\n      tag_240\n      jumpi\n        /* \"Smart Contracts/30_SimpleDexAggregatorOZ.sol\":7854:7869  isAllowedRouter */\n      0x04\n        /* \"Smart Contracts/30_SimpleDexAggregatorOZ.sol\":7854:7881  isAllowedRouter[routers[i]] */\n      0x00\n        /* \"Smart Contracts/30_SimpleDexAggregatorOZ.sol\":7870:7877  routers */\n      dup9\n      dup9\n        /* \"Smart Contracts/30_SimpleDexAggregatorOZ.sol\":7878:7879  i */\n      dup5\n        /* \"Smart Contracts/30_SimpleDexAggregatorOZ.sol\":7870:7880  routers[i] */\n      dup2\n      dup2\n      lt\n      tag_243\n      jumpi\n      tag_243\n      tag_244\n      jump\t// in\n    tag_243:\n      swap1\n      pop\n      0x20\n      mul\n      add\n      0x20\n      dup2\n      add\n      swap1\n      tag_245\n      swap2\n      swap1\n      tag_35\n      jump\t// in\n    tag_245:\n      sub(shl(0xa0, 0x01), 0x01)\n        /* \"Smart Contracts/30_SimpleDexAggregatorOZ.sol\":7854:7881  isAllowedRouter[routers[i]] */\n      and\n      dup2\n      mstore\n      0x20\n      dup2\n      add\n      swap2\n      swap1\n      swap2\n      mstore\n      0x40\n      add\n      0x00\n      keccak256\n      sload\n      0xff\n      and\n        /* \"Smart Contracts/30_SimpleDexAggregatorOZ.sol\":7846:7904  require(isAllowedRouter[routers[i]], \"ROUTER_NOT_ALLOWED\") */\n      tag_246\n      jumpi\n      mload(0x40)\n      shl(0xe5, 0x461bcd)\n      dup2\n      mstore\n        /* \"#utility.yul\":11783:11785   */\n      0x20\n        /* \"Smart Contracts/30_SimpleDexAggregatorOZ.sol\":7846:7904  require(isAllowedRouter[routers[i]], \"ROUTER_NOT_ALLOWED\") */\n      0x04\n      dup3\n      add\n        /* \"#utility.yul\":11765:11786   */\n      mstore\n        /* \"#utility.yul\":11822:11824   */\n      0x12\n        /* \"#utility.yul\":11802:11820   */\n      0x24\n      dup3\n      add\n        /* \"#utility.yul\":11795:11825   */\n      mstore\n      shl(0x72, 0x1493d555115497d393d517d0531313d5d151)\n        /* \"#utility.yul\":11841:11859   */\n      0x44\n      dup3\n      add\n        /* \"#utility.yul\":11834:11882   */\n      mstore\n        /* \"#utility.yul\":11899:11917   */\n      0x64\n      add\n        /* \"Smart Contracts/30_SimpleDexAggregatorOZ.sol\":7846:7904  require(isAllowedRouter[routers[i]], \"ROUTER_NOT_ALLOWED\") */\n      tag_30\n        /* \"#utility.yul\":11581:11923   */\n      jump\n        /* \"Smart Contracts/30_SimpleDexAggregatorOZ.sol\":7846:7904  require(isAllowedRouter[routers[i]], \"ROUTER_NOT_ALLOWED\") */\n    tag_246:\n        /* \"Smart Contracts/30_SimpleDexAggregatorOZ.sol\":7826:7829  i++ */\n      0x01\n      add\n        /* \"Smart Contracts/30_SimpleDexAggregatorOZ.sol\":7786:7916  for (uint256 i = 0; i < routers.length; i++) {... */\n      jump(tag_239)\n    tag_240:\n      pop\n      0x40\n      dup1\n      mload\n      0x80\n      dup2\n      add\n      dup3\n      mstore\n      0x00\n      dup1\n      dup3\n      mstore\n      0x20\n      dup3\n      add\n      dup2\n      swap1\n      mstore\n      swap2\n      dup2\n      add\n      dup3\n      swap1\n      mstore\n      0x60\n      dup2\n      add\n      swap2\n      swap1\n      swap2\n      mstore\n        /* \"Smart Contracts/30_SimpleDexAggregatorOZ.sol\":7971:7975  path */\n      dup5\n      dup5\n        /* \"Smart Contracts/30_SimpleDexAggregatorOZ.sol\":7976:7977  0 */\n      0x00\n        /* \"Smart Contracts/30_SimpleDexAggregatorOZ.sol\":7971:7978  path[0] */\n      dup2\n      dup2\n      lt\n      tag_252\n      jumpi\n      tag_252\n      tag_244\n      jump\t// in\n    tag_252:\n      swap1\n      pop\n      0x20\n      mul\n      add\n      0x20\n      dup2\n      add\n      swap1\n      tag_253\n      swap2\n      swap1\n      tag_35\n      jump\t// in\n    tag_253:\n      sub(shl(0xa0, 0x01), 0x01)\n        /* \"Smart Contracts/30_SimpleDexAggregatorOZ.sol\":7957:7978  ctx.tokenIn = path[0] */\n      and\n      dup2\n      mstore\n        /* \"Smart Contracts/30_SimpleDexAggregatorOZ.sol\":8004:8008  path */\n      dup5\n      dup5\n        /* \"Smart Contracts/30_SimpleDexAggregatorOZ.sol\":8009:8024  path.length - 1 */\n      tag_254\n        /* \"Smart Contracts/30_SimpleDexAggregatorOZ.sol\":8023:8024  1 */\n      0x01\n        /* \"Smart Contracts/30_SimpleDexAggregatorOZ.sol\":8004:8008  path */\n      dup3\n        /* \"Smart Contracts/30_SimpleDexAggregatorOZ.sol\":8009:8024  path.length - 1 */\n      tag_255\n      jump\t// in\n    tag_254:\n        /* \"Smart Contracts/30_SimpleDexAggregatorOZ.sol\":8004:8025  path[path.length - 1] */\n      dup2\n      dup2\n      lt\n      tag_257\n      jumpi\n      tag_257\n      tag_244\n      jump\t// in\n    tag_257:\n      swap1\n      pop\n      0x20\n      mul\n      add\n      0x20\n      dup2\n      add\n      swap1\n      tag_258\n      swap2\n      swap1\n      tag_35\n      jump\t// in\n    tag_258:\n      sub(shl(0xa0, 0x01), 0x01)\n        /* \"Smart Contracts/30_SimpleDexAggregatorOZ.sol\":7989:8025  ctx.tokenOut = path[path.length - 1] */\n      and\n        /* \"Smart Contracts/30_SimpleDexAggregatorOZ.sol\":7989:8001  ctx.tokenOut */\n      0x20\n      dup3\n      add\n        /* \"Smart Contracts/30_SimpleDexAggregatorOZ.sol\":7989:8025  ctx.tokenOut = path[path.length - 1] */\n      mstore\n        /* \"Smart Contracts/30_SimpleDexAggregatorOZ.sol\":8036:8048  ctx.deadline */\n      0x40\n      dup2\n      add\n        /* \"Smart Contracts/30_SimpleDexAggregatorOZ.sol\":8036:8059  ctx.deadline = deadline */\n      dup4\n      swap1\n      mstore\n        /* \"Smart Contracts/30_SimpleDexAggregatorOZ.sol\":8070:8085  ctx.minOutTotal */\n      0x60\n      dup2\n      add\n        /* \"Smart Contracts/30_SimpleDexAggregatorOZ.sol\":8070:8099  ctx.minOutTotal = minOutTotal */\n      dup9\n      swap1\n      mstore\n        /* \"Smart Contracts/30_SimpleDexAggregatorOZ.sol\":8144:8155  ctx.tokenIn */\n      dup1\n      mload\n      0x00\n      swap1\n        /* \"Smart Contracts/30_SimpleDexAggregatorOZ.sol\":8131:8178  _pullTokenIn(ctx.tokenIn, msg.sender, amountIn) */\n      tag_259\n      swap1\n        /* \"Smart Contracts/30_SimpleDexAggregatorOZ.sol\":8157:8167  msg.sender */\n      caller\n        /* \"Smart Contracts/30_SimpleDexAggregatorOZ.sol\":8169:8177  amountIn */\n      dup13\n        /* \"Smart Contracts/30_SimpleDexAggregatorOZ.sol\":8131:8143  _pullTokenIn */\n      tag_260\n        /* \"Smart Contracts/30_SimpleDexAggregatorOZ.sol\":8131:8178  _pullTokenIn(ctx.tokenIn, msg.sender, amountIn) */\n      jump\t// in\n    tag_259:\n        /* \"Smart Contracts/30_SimpleDexAggregatorOZ.sol\":8112:8178  uint256 actualIn = _pullTokenIn(ctx.tokenIn, msg.sender, amountIn) */\n      swap1\n      pop\n        /* \"Smart Contracts/30_SimpleDexAggregatorOZ.sol\":8208:8209  0 */\n      0x00\n        /* \"Smart Contracts/30_SimpleDexAggregatorOZ.sol\":8197:8205  actualIn */\n      dup2\n        /* \"Smart Contracts/30_SimpleDexAggregatorOZ.sol\":8197:8209  actualIn > 0 */\n      gt\n        /* \"Smart Contracts/30_SimpleDexAggregatorOZ.sol\":8189:8221  require(actualIn > 0, \"ZERO_IN\") */\n      tag_261\n      jumpi\n      mload(0x40)\n      shl(0xe5, 0x461bcd)\n      dup2\n      mstore\n        /* \"#utility.yul\":12395:12397   */\n      0x20\n        /* \"Smart Contracts/30_SimpleDexAggregatorOZ.sol\":8189:8221  require(actualIn > 0, \"ZERO_IN\") */\n      0x04\n      dup3\n      add\n        /* \"#utility.yul\":12377:12398   */\n      mstore\n        /* \"#utility.yul\":12434:12435   */\n      0x07\n        /* \"#utility.yul\":12414:12432   */\n      0x24\n      dup3\n      add\n        /* \"#utility.yul\":12407:12436   */\n      mstore\n      shl(0xc9, 0x2d22a927afa4a7)\n        /* \"#utility.yul\":12452:12470   */\n      0x44\n      dup3\n      add\n        /* \"#utility.yul\":12445:12482   */\n      mstore\n        /* \"#utility.yul\":12499:12517   */\n      0x64\n      add\n        /* \"Smart Contracts/30_SimpleDexAggregatorOZ.sol\":8189:8221  require(actualIn > 0, \"ZERO_IN\") */\n      tag_30\n        /* \"#utility.yul\":12193:12523   */\n      jump\n        /* \"Smart Contracts/30_SimpleDexAggregatorOZ.sol\":8189:8221  require(actualIn > 0, \"ZERO_IN\") */\n    tag_261:\n        /* \"Smart Contracts/30_SimpleDexAggregatorOZ.sol\":8234:8251  Decision memory d */\n      0x00\n        /* \"Smart Contracts/30_SimpleDexAggregatorOZ.sol\":8254:8290  _decideBest(actualIn, routers, path) */\n      tag_264\n        /* \"Smart Contracts/30_SimpleDexAggregatorOZ.sol\":8266:8274  actualIn */\n      dup3\n        /* \"Smart Contracts/30_SimpleDexAggregatorOZ.sol\":8276:8283  routers */\n      dup11\n      dup11\n        /* \"Smart Contracts/30_SimpleDexAggregatorOZ.sol\":8285:8289  path */\n      dup11\n      dup11\n        /* \"Smart Contracts/30_SimpleDexAggregatorOZ.sol\":8254:8265  _decideBest */\n      tag_265\n        /* \"Smart Contracts/30_SimpleDexAggregatorOZ.sol\":8254:8290  _decideBest(actualIn, routers, path) */\n      jump\t// in\n    tag_264:\n        /* \"Smart Contracts/30_SimpleDexAggregatorOZ.sol\":8308:8317  d.doSplit */\n      dup1\n      mload\n        /* \"Smart Contracts/30_SimpleDexAggregatorOZ.sol\":8234:8290  Decision memory d = _decideBest(actualIn, routers, path) */\n      swap1\n      swap2\n      pop\n        /* \"Smart Contracts/30_SimpleDexAggregatorOZ.sol\":8303:8514  if (!d.doSplit) {... */\n      tag_266\n      jumpi\n        /* \"Smart Contracts/30_SimpleDexAggregatorOZ.sol\":8346:8389  _execSingle(ctx, d.routerA, actualIn, path) */\n      tag_267\n        /* \"Smart Contracts/30_SimpleDexAggregatorOZ.sol\":8358:8361  ctx */\n      dup4\n        /* \"Smart Contracts/30_SimpleDexAggregatorOZ.sol\":8363:8364  d */\n      dup3\n        /* \"Smart Contracts/30_SimpleDexAggregatorOZ.sol\":8363:8372  d.routerA */\n      0x20\n      add\n      mload\n        /* \"Smart Contracts/30_SimpleDexAggregatorOZ.sol\":8374:8382  actualIn */\n      dup5\n        /* \"Smart Contracts/30_SimpleDexAggregatorOZ.sol\":8384:8388  path */\n      dup11\n      dup11\n        /* \"Smart Contracts/30_SimpleDexAggregatorOZ.sol\":8346:8357  _execSingle */\n      tag_268\n        /* \"Smart Contracts/30_SimpleDexAggregatorOZ.sol\":8346:8389  _execSingle(ctx, d.routerA, actualIn, path) */\n      jump\t// in\n    tag_267:\n        /* \"Smart Contracts/30_SimpleDexAggregatorOZ.sol\":8334:8389  outToUser = _execSingle(ctx, d.routerA, actualIn, path) */\n      swap4\n      pop\n        /* \"Smart Contracts/30_SimpleDexAggregatorOZ.sol\":8303:8514  if (!d.doSplit) {... */\n      jump(tag_269)\n    tag_266:\n        /* \"Smart Contracts/30_SimpleDexAggregatorOZ.sol\":8434:8502  _execSplit(ctx, d.routerA, d.routerB, actualIn, d.splitBpsToA, path) */\n      tag_270\n        /* \"Smart Contracts/30_SimpleDexAggregatorOZ.sol\":8445:8448  ctx */\n      dup4\n        /* \"Smart Contracts/30_SimpleDexAggregatorOZ.sol\":8450:8451  d */\n      dup3\n        /* \"Smart Contracts/30_SimpleDexAggregatorOZ.sol\":8450:8459  d.routerA */\n      0x20\n      add\n      mload\n        /* \"Smart Contracts/30_SimpleDexAggregatorOZ.sol\":8461:8462  d */\n      dup4\n        /* \"Smart Contracts/30_SimpleDexAggregatorOZ.sol\":8461:8470  d.routerB */\n      0x40\n      add\n      mload\n        /* \"Smart Contracts/30_SimpleDexAggregatorOZ.sol\":8472:8480  actualIn */\n      dup6\n        /* \"Smart Contracts/30_SimpleDexAggregatorOZ.sol\":8482:8483  d */\n      dup6\n        /* \"Smart Contracts/30_SimpleDexAggregatorOZ.sol\":8482:8495  d.splitBpsToA */\n      0x60\n      add\n      mload\n        /* \"Smart Contracts/30_SimpleDexAggregatorOZ.sol\":8497:8501  path */\n      dup13\n      dup13\n        /* \"Smart Contracts/30_SimpleDexAggregatorOZ.sol\":8434:8444  _execSplit */\n      tag_271\n        /* \"Smart Contracts/30_SimpleDexAggregatorOZ.sol\":8434:8502  _execSplit(ctx, d.routerA, d.routerB, actualIn, d.splitBpsToA, path) */\n      jump\t// in\n    tag_270:\n        /* \"Smart Contracts/30_SimpleDexAggregatorOZ.sol\":8422:8502  outToUser = _execSplit(ctx, d.routerA, d.routerB, actualIn, d.splitBpsToA, path) */\n      swap4\n      pop\n        /* \"Smart Contracts/30_SimpleDexAggregatorOZ.sol\":8303:8514  if (!d.doSplit) {... */\n    tag_269:\n        /* \"Smart Contracts/30_SimpleDexAggregatorOZ.sol\":7579:8521  {... */\n      pop\n      pop\n      pop\n        /* \"@openzeppelin/contracts/utils/ReentrancyGuard.sol\":2542:2562  _nonReentrantAfter() */\n      tag_272\n        /* \"@openzeppelin/contracts/utils/ReentrancyGuard.sol\":1857:1858  1 */\n      0x01\n        /* \"@openzeppelin/contracts/utils/ReentrancyGuard.sol\":3068:3075  _status */\n      0x02\n        /* \"@openzeppelin/contracts/utils/ReentrancyGuard.sol\":3068:3089  _status = NOT_ENTERED */\n      sstore\n        /* \"@openzeppelin/contracts/utils/ReentrancyGuard.sol\":2888:3096  function _nonReentrantAfter() private {... */\n      jump\n        /* \"@openzeppelin/contracts/utils/ReentrancyGuard.sol\":2542:2562  _nonReentrantAfter() */\n    tag_272:\n        /* \"Smart Contracts/30_SimpleDexAggregatorOZ.sol\":7337:8521  function swapBest(... */\n      swap8\n      swap7\n      pop\n      pop\n      pop\n      pop\n      pop\n      pop\n      pop\n      jump\t// out\n        /* \"Smart Contracts/30_SimpleDexAggregatorOZ.sol\":5621:5785  function clearCommit() external {... */\n    tag_135:\n        /* \"Smart Contracts/30_SimpleDexAggregatorOZ.sol\":5680:5690  msg.sender */\n      caller\n        /* \"Smart Contracts/30_SimpleDexAggregatorOZ.sol\":5671:5691  commitOf[msg.sender] */\n      0x00\n      dup2\n      dup2\n      mstore\n        /* \"Smart Contracts/30_SimpleDexAggregatorOZ.sol\":5671:5679  commitOf */\n      0x06\n        /* \"Smart Contracts/30_SimpleDexAggregatorOZ.sol\":5671:5691  commitOf[msg.sender] */\n      0x20\n      swap1\n      dup2\n      mstore\n      0x40\n      dup1\n      dup4\n      keccak256\n        /* \"Smart Contracts/30_SimpleDexAggregatorOZ.sol\":5664:5691  delete commitOf[msg.sender] */\n      dup4\n      swap1\n      sstore\n        /* \"Smart Contracts/30_SimpleDexAggregatorOZ.sol\":5709:5720  commitBlock */\n      0x07\n        /* \"Smart Contracts/30_SimpleDexAggregatorOZ.sol\":5709:5732  commitBlock[msg.sender] */\n      swap1\n      swap2\n      mstore\n      dup1\n      dup3\n      keccak256\n        /* \"Smart Contracts/30_SimpleDexAggregatorOZ.sol\":5702:5732  delete commitBlock[msg.sender] */\n      dup1\n      sload\n      not(0xffffffffffffffff)\n      and\n      swap1\n      sstore\n        /* \"Smart Contracts/30_SimpleDexAggregatorOZ.sol\":5748:5777  SwapCommitCleared(msg.sender) */\n      mload\n      0x1987e6a4ce537a918d38185d7c3a5a6beaf7ab33a80362f59eab4ec9fdd43ed5\n      swap2\n        /* \"Smart Contracts/30_SimpleDexAggregatorOZ.sol\":5671:5691  commitOf[msg.sender] */\n      swap1\n        /* \"Smart Contracts/30_SimpleDexAggregatorOZ.sol\":5748:5777  SwapCommitCleared(msg.sender) */\n      log2\n        /* \"Smart Contracts/30_SimpleDexAggregatorOZ.sol\":5621:5785  function clearCommit() external {... */\n      jump\t// out\n        /* \"@openzeppelin/contracts/access/Ownable.sol\":1796:1958  function _checkOwner() internal view virtual {... */\n    tag_138:\n        /* \"@openzeppelin/contracts/access/Ownable.sol\":1684:1691  address */\n      0x00\n        /* \"@openzeppelin/contracts/access/Ownable.sol\":1710:1716  _owner */\n      sload\n      sub(shl(0xa0, 0x01), 0x01)\n      and\n        /* \"@openzeppelin/contracts/utils/Context.sol\":735:745  msg.sender */\n      caller\n        /* \"@openzeppelin/contracts/access/Ownable.sol\":1855:1878  owner() != _msgSender() */\n      eq\n        /* \"@openzeppelin/contracts/access/Ownable.sol\":1851:1952  if (owner() != _msgSender()) {... */\n      tag_201\n      jumpi\n        /* \"@openzeppelin/contracts/access/Ownable.sol\":1901:1941  OwnableUnauthorizedAccount(_msgSender()) */\n      mload(0x40)\n      shl(0xe0, 0x118cdaa7)\n      dup2\n      mstore\n        /* \"@openzeppelin/contracts/utils/Context.sol\":735:745  msg.sender */\n      caller\n        /* \"@openzeppelin/contracts/access/Ownable.sol\":1901:1941  OwnableUnauthorizedAccount(_msgSender()) */\n      0x04\n      dup3\n      add\n        /* \"#utility.yul\":1964:2015   */\n      mstore\n        /* \"#utility.yul\":1937:1955   */\n      0x24\n      add\n        /* \"@openzeppelin/contracts/access/Ownable.sol\":1901:1941  OwnableUnauthorizedAccount(_msgSender()) */\n      tag_30\n        /* \"#utility.yul\":1818:2021   */\n      jump\n        /* \"@openzeppelin/contracts/utils/Pausable.sol\":2586:2703  function _unpause() internal virtual whenPaused {... */\n    tag_155:\n        /* \"@openzeppelin/contracts/utils/Pausable.sol\":1597:1613  _requirePaused() */\n      tag_281\n        /* \"@openzeppelin/contracts/utils/Pausable.sol\":1597:1611  _requirePaused */\n      tag_282\n        /* \"@openzeppelin/contracts/utils/Pausable.sol\":1597:1613  _requirePaused() */\n      jump\t// in\n    tag_281:\n        /* \"@openzeppelin/contracts/utils/Pausable.sol\":2644:2651  _paused */\n      0x03\n        /* \"@openzeppelin/contracts/utils/Pausable.sol\":2644:2659  _paused = false */\n      dup1\n      sload\n      not(0xff)\n      and\n      swap1\n      sstore\n        /* \"@openzeppelin/contracts/utils/Pausable.sol\":2674:2696  Unpaused(_msgSender()) */\n      0x5db9ee0a495bf2e6ff9c91a7834c1ba4fdd244a5e8aa4e537bd38aeae4b073aa\n        /* \"@openzeppelin/contracts/utils/Context.sol\":735:745  msg.sender */\n      caller\n        /* \"@openzeppelin/contracts/utils/Pausable.sol\":2683:2695  _msgSender() */\n    tag_284:\n        /* \"@openzeppelin/contracts/utils/Pausable.sol\":2674:2696  Unpaused(_msgSender()) */\n      mload(0x40)\n      sub(shl(0xa0, 0x01), 0x01)\n        /* \"#utility.yul\":1982:2014   */\n      swap1\n      swap2\n      and\n        /* \"#utility.yul\":1964:2015   */\n      dup2\n      mstore\n        /* \"#utility.yul\":1952:1954   */\n      0x20\n        /* \"#utility.yul\":1937:1955   */\n      add\n        /* \"@openzeppelin/contracts/utils/Pausable.sol\":2674:2696  Unpaused(_msgSender()) */\n      mload(0x40)\n      dup1\n      swap2\n      sub\n      swap1\n      log1\n        /* \"@openzeppelin/contracts/utils/Pausable.sol\":2586:2703  function _unpause() internal virtual whenPaused {... */\n      jump\t// out\n        /* \"Smart Contracts/30_SimpleDexAggregatorOZ.sol\":9992:10599  function _bestSingleQuote(... */\n    tag_165:\n        /* \"Smart Contracts/30_SimpleDexAggregatorOZ.sol\":10173:10191  address bestRouter */\n      0x00\n      dup1\n      dup1\n        /* \"Smart Contracts/30_SimpleDexAggregatorOZ.sol\":10284:10536  for (uint256 i = 0; i < routers.length; i++) {... */\n    tag_287:\n        /* \"Smart Contracts/30_SimpleDexAggregatorOZ.sol\":10304:10322  i < routers.length */\n      dup6\n      dup2\n      lt\n        /* \"Smart Contracts/30_SimpleDexAggregatorOZ.sol\":10284:10536  for (uint256 i = 0; i < routers.length; i++) {... */\n      iszero\n      tag_288\n      jumpi\n        /* \"Smart Contracts/30_SimpleDexAggregatorOZ.sol\":10344:10355  uint256 out */\n      0x00\n        /* \"Smart Contracts/30_SimpleDexAggregatorOZ.sol\":10358:10401  _safeAmountsOut(routers[i], amountIn, path) */\n      tag_290\n        /* \"Smart Contracts/30_SimpleDexAggregatorOZ.sol\":10374:10381  routers */\n      dup9\n      dup9\n        /* \"Smart Contracts/30_SimpleDexAggregatorOZ.sol\":10382:10383  i */\n      dup5\n        /* \"Smart Contracts/30_SimpleDexAggregatorOZ.sol\":10374:10384  routers[i] */\n      dup2\n      dup2\n      lt\n      tag_292\n      jumpi\n      tag_292\n      tag_244\n      jump\t// in\n    tag_292:\n      swap1\n      pop\n      0x20\n      mul\n      add\n      0x20\n      dup2\n      add\n      swap1\n      tag_293\n      swap2\n      swap1\n      tag_35\n      jump\t// in\n    tag_293:\n        /* \"Smart Contracts/30_SimpleDexAggregatorOZ.sol\":10386:10394  amountIn */\n      dup11\n        /* \"Smart Contracts/30_SimpleDexAggregatorOZ.sol\":10396:10400  path */\n      dup9\n      dup9\n        /* \"Smart Contracts/30_SimpleDexAggregatorOZ.sol\":10358:10373  _safeAmountsOut */\n      tag_294\n        /* \"Smart Contracts/30_SimpleDexAggregatorOZ.sol\":10358:10401  _safeAmountsOut(routers[i], amountIn, path) */\n      jump\t// in\n    tag_290:\n        /* \"Smart Contracts/30_SimpleDexAggregatorOZ.sol\":10344:10401  uint256 out = _safeAmountsOut(routers[i], amountIn, path) */\n      swap1\n      pop\n        /* \"Smart Contracts/30_SimpleDexAggregatorOZ.sol\":10426:10433  bestOut */\n      dup3\n        /* \"Smart Contracts/30_SimpleDexAggregatorOZ.sol\":10420:10423  out */\n      dup2\n        /* \"Smart Contracts/30_SimpleDexAggregatorOZ.sol\":10420:10433  out > bestOut */\n      gt\n        /* \"Smart Contracts/30_SimpleDexAggregatorOZ.sol\":10416:10525  if (out > bestOut) {... */\n      iszero\n      tag_295\n      jumpi\n        /* \"Smart Contracts/30_SimpleDexAggregatorOZ.sol\":10464:10467  out */\n      dup1\n        /* \"Smart Contracts/30_SimpleDexAggregatorOZ.sol\":10454:10467  bestOut = out */\n      swap3\n      pop\n        /* \"Smart Contracts/30_SimpleDexAggregatorOZ.sol\":10499:10506  routers */\n      dup8\n      dup8\n        /* \"Smart Contracts/30_SimpleDexAggregatorOZ.sol\":10507:10508  i */\n      dup4\n        /* \"Smart Contracts/30_SimpleDexAggregatorOZ.sol\":10499:10509  routers[i] */\n      dup2\n      dup2\n      lt\n      tag_297\n      jumpi\n      tag_297\n      tag_244\n      jump\t// in\n    tag_297:\n      swap1\n      pop\n      0x20\n      mul\n      add\n      0x20\n      dup2\n      add\n      swap1\n      tag_298\n      swap2\n      swap1\n      tag_35\n      jump\t// in\n    tag_298:\n        /* \"Smart Contracts/30_SimpleDexAggregatorOZ.sol\":10486:10509  bestRouter = routers[i] */\n      swap4\n      pop\n        /* \"Smart Contracts/30_SimpleDexAggregatorOZ.sol\":10416:10525  if (out > bestOut) {... */\n    tag_295:\n      pop\n        /* \"Smart Contracts/30_SimpleDexAggregatorOZ.sol\":10324:10327  i++ */\n      0x01\n      add\n        /* \"Smart Contracts/30_SimpleDexAggregatorOZ.sol\":10284:10536  for (uint256 i = 0; i < routers.length; i++) {... */\n      jump(tag_287)\n    tag_288:\n      pop\n      sub(shl(0xa0, 0x01), 0x01)\n        /* \"Smart Contracts/30_SimpleDexAggregatorOZ.sol\":10554:10578  bestRouter != address(0) */\n      dup3\n      and\n        /* \"Smart Contracts/30_SimpleDexAggregatorOZ.sol\":10546:10591  require(bestRouter != address(0), \"NO_ROUTE\") */\n      tag_299\n      jumpi\n      mload(0x40)\n      shl(0xe5, 0x461bcd)\n      dup2\n      mstore\n        /* \"#utility.yul\":12730:12732   */\n      0x20\n        /* \"Smart Contracts/30_SimpleDexAggregatorOZ.sol\":10546:10591  require(bestRouter != address(0), \"NO_ROUTE\") */\n      0x04\n      dup3\n      add\n        /* \"#utility.yul\":12712:12733   */\n      mstore\n        /* \"#utility.yul\":12769:12770   */\n      0x08\n        /* \"#utility.yul\":12749:12767   */\n      0x24\n      dup3\n      add\n        /* \"#utility.yul\":12742:12771   */\n      mstore\n      shl(0xc0, 0x4e4f5f524f555445)\n        /* \"#utility.yul\":12787:12805   */\n      0x44\n      dup3\n      add\n        /* \"#utility.yul\":12780:12818   */\n      mstore\n        /* \"#utility.yul\":12835:12853   */\n      0x64\n      add\n        /* \"Smart Contracts/30_SimpleDexAggregatorOZ.sol\":10546:10591  require(bestRouter != address(0), \"NO_ROUTE\") */\n      tag_30\n        /* \"#utility.yul\":12528:12859   */\n      jump\n        /* \"Smart Contracts/30_SimpleDexAggregatorOZ.sol\":10546:10591  require(bestRouter != address(0), \"NO_ROUTE\") */\n    tag_299:\n        /* \"Smart Contracts/30_SimpleDexAggregatorOZ.sol\":9992:10599  function _bestSingleQuote(... */\n      swap6\n      pop\n      swap6\n      swap4\n      pop\n      pop\n      pop\n      pop\n      jump\t// out\n        /* \"Smart Contracts/30_SimpleDexAggregatorOZ.sol\":10607:11294  function _topTwoRouters(... */\n    tag_167:\n      0x40\n      dup1\n      mload\n      0x80\n      dup2\n      add\n      dup3\n      mstore\n      0x00\n      dup1\n      dup3\n      mstore\n      0x20\n      dup3\n      add\n      dup2\n      swap1\n      mstore\n      swap2\n      dup2\n      add\n      dup3\n      swap1\n      mstore\n      0x60\n      dup2\n      add\n      dup3\n      swap1\n      mstore\n      swap1\n        /* \"Smart Contracts/30_SimpleDexAggregatorOZ.sol\":10902:11287  for (uint256 i = 0; i < routers.length; i++) {... */\n    tag_305:\n        /* \"Smart Contracts/30_SimpleDexAggregatorOZ.sol\":10922:10940  i < routers.length */\n      dup5\n      dup2\n      lt\n        /* \"Smart Contracts/30_SimpleDexAggregatorOZ.sol\":10902:11287  for (uint256 i = 0; i < routers.length; i++) {... */\n      iszero\n      tag_306\n      jumpi\n        /* \"Smart Contracts/30_SimpleDexAggregatorOZ.sol\":10962:10973  uint256 out */\n      0x00\n        /* \"Smart Contracts/30_SimpleDexAggregatorOZ.sol\":10976:11019  _safeAmountsOut(routers[i], amountIn, path) */\n      tag_308\n        /* \"Smart Contracts/30_SimpleDexAggregatorOZ.sol\":10992:10999  routers */\n      dup8\n      dup8\n        /* \"Smart Contracts/30_SimpleDexAggregatorOZ.sol\":11000:11001  i */\n      dup5\n        /* \"Smart Contracts/30_SimpleDexAggregatorOZ.sol\":10992:11002  routers[i] */\n      dup2\n      dup2\n      lt\n      tag_310\n      jumpi\n      tag_310\n      tag_244\n      jump\t// in\n    tag_310:\n      swap1\n      pop\n      0x20\n      mul\n      add\n      0x20\n      dup2\n      add\n      swap1\n      tag_311\n      swap2\n      swap1\n      tag_35\n      jump\t// in\n    tag_311:\n        /* \"Smart Contracts/30_SimpleDexAggregatorOZ.sol\":11004:11012  amountIn */\n      dup10\n        /* \"Smart Contracts/30_SimpleDexAggregatorOZ.sol\":11014:11018  path */\n      dup8\n      dup8\n        /* \"Smart Contracts/30_SimpleDexAggregatorOZ.sol\":10976:10991  _safeAmountsOut */\n      tag_294\n        /* \"Smart Contracts/30_SimpleDexAggregatorOZ.sol\":10976:11019  _safeAmountsOut(routers[i], amountIn, path) */\n      jump\t// in\n    tag_308:\n        /* \"Smart Contracts/30_SimpleDexAggregatorOZ.sol\":10962:11019  uint256 out = _safeAmountsOut(routers[i], amountIn, path) */\n      swap1\n      pop\n        /* \"Smart Contracts/30_SimpleDexAggregatorOZ.sol\":11044:11046  tt */\n      dup3\n        /* \"Smart Contracts/30_SimpleDexAggregatorOZ.sol\":11044:11049  tt.o1 */\n      0x20\n      add\n      mload\n        /* \"Smart Contracts/30_SimpleDexAggregatorOZ.sol\":11038:11041  out */\n      dup2\n        /* \"Smart Contracts/30_SimpleDexAggregatorOZ.sol\":11038:11049  out > tt.o1 */\n      gt\n        /* \"Smart Contracts/30_SimpleDexAggregatorOZ.sol\":11034:11276  if (out > tt.o1) {... */\n      iszero\n      tag_312\n      jumpi\n        /* \"Smart Contracts/30_SimpleDexAggregatorOZ.sol\":11078:11083  tt.r1 */\n      dup3\n      mload\n      sub(shl(0xa0, 0x01), 0x01)\n        /* \"Smart Contracts/30_SimpleDexAggregatorOZ.sol\":11070:11083  tt.r2 = tt.r1 */\n      and\n        /* \"Smart Contracts/30_SimpleDexAggregatorOZ.sol\":11070:11075  tt.r2 */\n      0x40\n      dup5\n      add\n        /* \"Smart Contracts/30_SimpleDexAggregatorOZ.sol\":11070:11083  tt.r2 = tt.r1 */\n      mstore\n        /* \"Smart Contracts/30_SimpleDexAggregatorOZ.sol\":11093:11098  tt.o1 */\n      0x20\n      dup4\n      add\n      mload\n        /* \"Smart Contracts/30_SimpleDexAggregatorOZ.sol\":11085:11090  tt.o2 */\n      0x60\n      dup5\n      add\n        /* \"Smart Contracts/30_SimpleDexAggregatorOZ.sol\":11085:11098  tt.o2 = tt.o1 */\n      mstore\n        /* \"Smart Contracts/30_SimpleDexAggregatorOZ.sol\":11125:11132  routers */\n      dup7\n      dup7\n        /* \"Smart Contracts/30_SimpleDexAggregatorOZ.sol\":11133:11134  i */\n      dup4\n        /* \"Smart Contracts/30_SimpleDexAggregatorOZ.sol\":11125:11135  routers[i] */\n      dup2\n      dup2\n      lt\n      tag_314\n      jumpi\n      tag_314\n      tag_244\n      jump\t// in\n    tag_314:\n      swap1\n      pop\n      0x20\n      mul\n      add\n      0x20\n      dup2\n      add\n      swap1\n      tag_315\n      swap2\n      swap1\n      tag_35\n      jump\t// in\n    tag_315:\n      sub(shl(0xa0, 0x01), 0x01)\n        /* \"Smart Contracts/30_SimpleDexAggregatorOZ.sol\":11117:11135  tt.r1 = routers[i] */\n      and\n      dup4\n      mstore\n        /* \"Smart Contracts/30_SimpleDexAggregatorOZ.sol\":11137:11142  tt.o1 */\n      0x20\n      dup4\n      add\n        /* \"Smart Contracts/30_SimpleDexAggregatorOZ.sol\":11137:11148  tt.o1 = out */\n      dup2\n      swap1\n      mstore\n        /* \"Smart Contracts/30_SimpleDexAggregatorOZ.sol\":11034:11276  if (out > tt.o1) {... */\n      jump(tag_321)\n    tag_312:\n        /* \"Smart Contracts/30_SimpleDexAggregatorOZ.sol\":11180:11182  tt */\n      dup3\n        /* \"Smart Contracts/30_SimpleDexAggregatorOZ.sol\":11180:11185  tt.o2 */\n      0x60\n      add\n      mload\n        /* \"Smart Contracts/30_SimpleDexAggregatorOZ.sol\":11174:11177  out */\n      dup2\n        /* \"Smart Contracts/30_SimpleDexAggregatorOZ.sol\":11174:11185  out > tt.o2 */\n      gt\n        /* \"Smart Contracts/30_SimpleDexAggregatorOZ.sol\":11174:11208  out > tt.o2 && routers[i] != tt.r1 */\n      dup1\n      iszero\n      tag_317\n      jumpi\n      pop\n        /* \"Smart Contracts/30_SimpleDexAggregatorOZ.sol\":11203:11208  tt.r1 */\n      dup3\n      mload\n      sub(shl(0xa0, 0x01), 0x01)\n        /* \"Smart Contracts/30_SimpleDexAggregatorOZ.sol\":11189:11208  routers[i] != tt.r1 */\n      and\n        /* \"Smart Contracts/30_SimpleDexAggregatorOZ.sol\":11189:11196  routers */\n      dup8\n      dup8\n        /* \"Smart Contracts/30_SimpleDexAggregatorOZ.sol\":11197:11198  i */\n      dup5\n        /* \"Smart Contracts/30_SimpleDexAggregatorOZ.sol\":11189:11199  routers[i] */\n      dup2\n      dup2\n      lt\n      tag_319\n      jumpi\n      tag_319\n      tag_244\n      jump\t// in\n    tag_319:\n      swap1\n      pop\n      0x20\n      mul\n      add\n      0x20\n      dup2\n      add\n      swap1\n      tag_320\n      swap2\n      swap1\n      tag_35\n      jump\t// in\n    tag_320:\n      sub(shl(0xa0, 0x01), 0x01)\n        /* \"Smart Contracts/30_SimpleDexAggregatorOZ.sol\":11189:11208  routers[i] != tt.r1 */\n      and\n      eq\n      iszero\n        /* \"Smart Contracts/30_SimpleDexAggregatorOZ.sol\":11174:11208  out > tt.o2 && routers[i] != tt.r1 */\n    tag_317:\n        /* \"Smart Contracts/30_SimpleDexAggregatorOZ.sol\":11170:11276  if (out > tt.o2 && routers[i] != tt.r1) {... */\n      iszero\n      tag_321\n      jumpi\n        /* \"Smart Contracts/30_SimpleDexAggregatorOZ.sol\":11237:11244  routers */\n      dup7\n      dup7\n        /* \"Smart Contracts/30_SimpleDexAggregatorOZ.sol\":11245:11246  i */\n      dup4\n        /* \"Smart Contracts/30_SimpleDexAggregatorOZ.sol\":11237:11247  routers[i] */\n      dup2\n      dup2\n      lt\n      tag_323\n      jumpi\n      tag_323\n      tag_244\n      jump\t// in\n    tag_323:\n      swap1\n      pop\n      0x20\n      mul\n      add\n      0x20\n      dup2\n      add\n      swap1\n      tag_324\n      swap2\n      swap1\n      tag_35\n      jump\t// in\n    tag_324:\n      sub(shl(0xa0, 0x01), 0x01)\n        /* \"Smart Contracts/30_SimpleDexAggregatorOZ.sol\":11229:11247  tt.r2 = routers[i] */\n      and\n        /* \"Smart Contracts/30_SimpleDexAggregatorOZ.sol\":11229:11234  tt.r2 */\n      0x40\n      dup5\n      add\n        /* \"Smart Contracts/30_SimpleDexAggregatorOZ.sol\":11229:11247  tt.r2 = routers[i] */\n      mstore\n        /* \"Smart Contracts/30_SimpleDexAggregatorOZ.sol\":11249:11254  tt.o2 */\n      0x60\n      dup4\n      add\n        /* \"Smart Contracts/30_SimpleDexAggregatorOZ.sol\":11249:11260  tt.o2 = out */\n      dup2\n      swap1\n      mstore\n        /* \"Smart Contracts/30_SimpleDexAggregatorOZ.sol\":11170:11276  if (out > tt.o2 && routers[i] != tt.r1) {... */\n    tag_321:\n      pop\n        /* \"Smart Contracts/30_SimpleDexAggregatorOZ.sol\":10942:10945  i++ */\n      0x01\n      add\n        /* \"Smart Contracts/30_SimpleDexAggregatorOZ.sol\":10902:11287  for (uint256 i = 0; i < routers.length; i++) {... */\n      jump(tag_305)\n    tag_306:\n      pop\n        /* \"Smart Contracts/30_SimpleDexAggregatorOZ.sol\":10607:11294  function _topTwoRouters(... */\n      swap6\n      swap5\n      pop\n      pop\n      pop\n      pop\n      pop\n      jump\t// out\n        /* \"Smart Contracts/30_SimpleDexAggregatorOZ.sol\":11302:12304  function _bestSplitQuote(... */\n    tag_170:\n        /* \"Smart Contracts/30_SimpleDexAggregatorOZ.sol\":11628:11694  uint16[5] memory candidates = [uint16(10000), 7500, 5000, 2500, 0] */\n      0x40\n      dup1\n      mload\n      0xa0\n      dup2\n      add\n      dup3\n      mstore\n        /* \"Smart Contracts/30_SimpleDexAggregatorOZ.sol\":11666:11671  10000 */\n      0x2710\n        /* \"Smart Contracts/30_SimpleDexAggregatorOZ.sol\":11628:11694  uint16[5] memory candidates = [uint16(10000), 7500, 5000, 2500, 0] */\n      dup1\n      dup3\n      mstore\n        /* \"Smart Contracts/30_SimpleDexAggregatorOZ.sol\":11674:11678  7500 */\n      0x1d4c\n        /* \"Smart Contracts/30_SimpleDexAggregatorOZ.sol\":11628:11694  uint16[5] memory candidates = [uint16(10000), 7500, 5000, 2500, 0] */\n      0x20\n      dup4\n      add\n      mstore\n        /* \"Smart Contracts/30_SimpleDexAggregatorOZ.sol\":11680:11684  5000 */\n      0x1388\n        /* \"Smart Contracts/30_SimpleDexAggregatorOZ.sol\":11628:11694  uint16[5] memory candidates = [uint16(10000), 7500, 5000, 2500, 0] */\n      swap3\n      dup3\n      add\n      swap3\n      swap1\n      swap3\n      mstore\n        /* \"Smart Contracts/30_SimpleDexAggregatorOZ.sol\":11686:11690  2500 */\n      0x09c4\n        /* \"Smart Contracts/30_SimpleDexAggregatorOZ.sol\":11628:11694  uint16[5] memory candidates = [uint16(10000), 7500, 5000, 2500, 0] */\n      0x60\n      dup3\n      add\n      mstore\n        /* \"Smart Contracts/30_SimpleDexAggregatorOZ.sol\":11497:11516  uint16 bestSplitBps */\n      0x00\n        /* \"Smart Contracts/30_SimpleDexAggregatorOZ.sol\":11628:11694  uint16[5] memory candidates = [uint16(10000), 7500, 5000, 2500, 0] */\n      0x80\n      dup3\n      add\n      dup2\n      swap1\n      mstore\n        /* \"Smart Contracts/30_SimpleDexAggregatorOZ.sol\":11497:11516  uint16 bestSplitBps */\n      swap1\n      dup2\n        /* \"Smart Contracts/30_SimpleDexAggregatorOZ.sol\":11762:12297  for (uint256 i = 0; i < candidates.length; i++) {... */\n    tag_326:\n        /* \"Smart Contracts/30_SimpleDexAggregatorOZ.sol\":11786:11803  candidates.length */\n      0x05\n        /* \"Smart Contracts/30_SimpleDexAggregatorOZ.sol\":11782:11783  i */\n      dup2\n        /* \"Smart Contracts/30_SimpleDexAggregatorOZ.sol\":11782:11803  i < candidates.length */\n      lt\n        /* \"Smart Contracts/30_SimpleDexAggregatorOZ.sol\":11762:12297  for (uint256 i = 0; i < candidates.length; i++) {... */\n      iszero\n      tag_327\n      jumpi\n        /* \"Smart Contracts/30_SimpleDexAggregatorOZ.sol\":11825:11836  uint16 bpsA */\n      0x00\n        /* \"Smart Contracts/30_SimpleDexAggregatorOZ.sol\":11839:11849  candidates */\n      dup3\n        /* \"Smart Contracts/30_SimpleDexAggregatorOZ.sol\":11850:11851  i */\n      dup3\n        /* \"Smart Contracts/30_SimpleDexAggregatorOZ.sol\":11839:11852  candidates[i] */\n      0x05\n      dup2\n      lt\n      tag_330\n      jumpi\n      tag_330\n      tag_244\n      jump\t// in\n    tag_330:\n      0x20\n      mul\n      add\n      mload\n      swap1\n      pop\n        /* \"Smart Contracts/30_SimpleDexAggregatorOZ.sol\":11867:11879  uint256 amtA */\n      0x00\n        /* \"Smart Contracts/30_SimpleDexAggregatorOZ.sol\":11902:11907  10000 */\n      0x2710\n        /* \"Smart Contracts/30_SimpleDexAggregatorOZ.sol\":11883:11898  amountIn * bpsA */\n      tag_331\n      0xffff\n      dup5\n      and\n        /* \"Smart Contracts/30_SimpleDexAggregatorOZ.sol\":11883:11891  amountIn */\n      dup14\n        /* \"Smart Contracts/30_SimpleDexAggregatorOZ.sol\":11883:11898  amountIn * bpsA */\n      tag_332\n      jump\t// in\n    tag_331:\n        /* \"Smart Contracts/30_SimpleDexAggregatorOZ.sol\":11882:11907  (amountIn * bpsA) / 10000 */\n      tag_333\n      swap2\n      swap1\n      tag_334\n      jump\t// in\n    tag_333:\n        /* \"Smart Contracts/30_SimpleDexAggregatorOZ.sol\":11867:11907  uint256 amtA = (amountIn * bpsA) / 10000 */\n      swap1\n      pop\n        /* \"Smart Contracts/30_SimpleDexAggregatorOZ.sol\":11922:11934  uint256 amtB */\n      0x00\n        /* \"Smart Contracts/30_SimpleDexAggregatorOZ.sol\":11937:11952  amountIn - amtA */\n      tag_335\n        /* \"Smart Contracts/30_SimpleDexAggregatorOZ.sol\":11867:11907  uint256 amtA = (amountIn * bpsA) / 10000 */\n      dup3\n        /* \"Smart Contracts/30_SimpleDexAggregatorOZ.sol\":11937:11945  amountIn */\n      dup14\n        /* \"Smart Contracts/30_SimpleDexAggregatorOZ.sol\":11937:11952  amountIn - amtA */\n      tag_255\n      jump\t// in\n    tag_335:\n        /* \"Smart Contracts/30_SimpleDexAggregatorOZ.sol\":11922:11952  uint256 amtB = amountIn - amtA */\n      swap1\n      pop\n        /* \"Smart Contracts/30_SimpleDexAggregatorOZ.sol\":11969:11981  uint256 outA */\n      0x00\n        /* \"Smart Contracts/30_SimpleDexAggregatorOZ.sol\":11984:11993  amtA == 0 */\n      dup3\n      iszero\n        /* \"Smart Contracts/30_SimpleDexAggregatorOZ.sol\":11984:12036  amtA == 0 ? 0 : _safeAmountsOut(routerA, amtA, path) */\n      tag_336\n      jumpi\n        /* \"Smart Contracts/30_SimpleDexAggregatorOZ.sol\":12000:12036  _safeAmountsOut(routerA, amtA, path) */\n      tag_337\n        /* \"Smart Contracts/30_SimpleDexAggregatorOZ.sol\":12016:12023  routerA */\n      dup13\n        /* \"Smart Contracts/30_SimpleDexAggregatorOZ.sol\":12025:12029  amtA */\n      dup5\n        /* \"Smart Contracts/30_SimpleDexAggregatorOZ.sol\":12031:12035  path */\n      dup13\n      dup13\n        /* \"Smart Contracts/30_SimpleDexAggregatorOZ.sol\":12000:12015  _safeAmountsOut */\n      tag_294\n        /* \"Smart Contracts/30_SimpleDexAggregatorOZ.sol\":12000:12036  _safeAmountsOut(routerA, amtA, path) */\n      jump\t// in\n    tag_337:\n        /* \"Smart Contracts/30_SimpleDexAggregatorOZ.sol\":11984:12036  amtA == 0 ? 0 : _safeAmountsOut(routerA, amtA, path) */\n      jump(tag_338)\n    tag_336:\n        /* \"Smart Contracts/30_SimpleDexAggregatorOZ.sol\":11996:11997  0 */\n      0x00\n        /* \"Smart Contracts/30_SimpleDexAggregatorOZ.sol\":11984:12036  amtA == 0 ? 0 : _safeAmountsOut(routerA, amtA, path) */\n    tag_338:\n        /* \"Smart Contracts/30_SimpleDexAggregatorOZ.sol\":11969:12036  uint256 outA = amtA == 0 ? 0 : _safeAmountsOut(routerA, amtA, path) */\n      swap1\n      pop\n        /* \"Smart Contracts/30_SimpleDexAggregatorOZ.sol\":12051:12063  uint256 outB */\n      0x00\n        /* \"Smart Contracts/30_SimpleDexAggregatorOZ.sol\":12066:12075  amtB == 0 */\n      dup3\n      iszero\n        /* \"Smart Contracts/30_SimpleDexAggregatorOZ.sol\":12066:12118  amtB == 0 ? 0 : _safeAmountsOut(routerB, amtB, path) */\n      tag_339\n      jumpi\n        /* \"Smart Contracts/30_SimpleDexAggregatorOZ.sol\":12082:12118  _safeAmountsOut(routerB, amtB, path) */\n      tag_340\n        /* \"Smart Contracts/30_SimpleDexAggregatorOZ.sol\":12098:12105  routerB */\n      dup13\n        /* \"Smart Contracts/30_SimpleDexAggregatorOZ.sol\":12107:12111  amtB */\n      dup5\n        /* \"Smart Contracts/30_SimpleDexAggregatorOZ.sol\":12113:12117  path */\n      dup14\n      dup14\n        /* \"Smart Contracts/30_SimpleDexAggregatorOZ.sol\":12082:12097  _safeAmountsOut */\n      tag_294\n        /* \"Smart Contracts/30_SimpleDexAggregatorOZ.sol\":12082:12118  _safeAmountsOut(routerB, amtB, path) */\n      jump\t// in\n    tag_340:\n        /* \"Smart Contracts/30_SimpleDexAggregatorOZ.sol\":12066:12118  amtB == 0 ? 0 : _safeAmountsOut(routerB, amtB, path) */\n      jump(tag_341)\n    tag_339:\n        /* \"Smart Contracts/30_SimpleDexAggregatorOZ.sol\":12078:12079  0 */\n      0x00\n        /* \"Smart Contracts/30_SimpleDexAggregatorOZ.sol\":12066:12118  amtB == 0 ? 0 : _safeAmountsOut(routerB, amtB, path) */\n    tag_341:\n        /* \"Smart Contracts/30_SimpleDexAggregatorOZ.sol\":12051:12118  uint256 outB = amtB == 0 ? 0 : _safeAmountsOut(routerB, amtB, path) */\n      swap1\n      pop\n        /* \"Smart Contracts/30_SimpleDexAggregatorOZ.sol\":12135:12148  uint256 total */\n      0x00\n        /* \"Smart Contracts/30_SimpleDexAggregatorOZ.sol\":12151:12162  outA + outB */\n      tag_342\n        /* \"Smart Contracts/30_SimpleDexAggregatorOZ.sol\":12051:12118  uint256 outB = amtB == 0 ? 0 : _safeAmountsOut(routerB, amtB, path) */\n      dup3\n        /* \"Smart Contracts/30_SimpleDexAggregatorOZ.sol\":12151:12155  outA */\n      dup5\n        /* \"Smart Contracts/30_SimpleDexAggregatorOZ.sol\":12151:12162  outA + outB */\n      tag_343\n      jump\t// in\n    tag_342:\n        /* \"Smart Contracts/30_SimpleDexAggregatorOZ.sol\":12135:12162  uint256 total = outA + outB */\n      swap1\n      pop\n        /* \"Smart Contracts/30_SimpleDexAggregatorOZ.sol\":12189:12196  bestOut */\n      dup9\n        /* \"Smart Contracts/30_SimpleDexAggregatorOZ.sol\":12181:12186  total */\n      dup2\n        /* \"Smart Contracts/30_SimpleDexAggregatorOZ.sol\":12181:12196  total > bestOut */\n      gt\n        /* \"Smart Contracts/30_SimpleDexAggregatorOZ.sol\":12177:12286  if (total > bestOut) {... */\n      iszero\n      tag_344\n      jumpi\n        /* \"Smart Contracts/30_SimpleDexAggregatorOZ.sol\":12227:12232  total */\n      dup1\n        /* \"Smart Contracts/30_SimpleDexAggregatorOZ.sol\":12217:12232  bestOut = total */\n      swap9\n      pop\n        /* \"Smart Contracts/30_SimpleDexAggregatorOZ.sol\":12266:12270  bpsA */\n      dup6\n        /* \"Smart Contracts/30_SimpleDexAggregatorOZ.sol\":12251:12270  bestSplitBps = bpsA */\n      swap10\n      pop\n        /* \"Smart Contracts/30_SimpleDexAggregatorOZ.sol\":12177:12286  if (total > bestOut) {... */\n    tag_344:\n      pop\n      pop\n        /* \"Smart Contracts/30_SimpleDexAggregatorOZ.sol\":11805:11808  i++ */\n      0x01\n      swap1\n      swap5\n      add\n      swap4\n      pop\n        /* \"Smart Contracts/30_SimpleDexAggregatorOZ.sol\":11762:12297  for (uint256 i = 0; i < candidates.length; i++) {... */\n      tag_326\n      swap3\n      pop\n      pop\n      pop\n      jump\n    tag_327:\n      pop\n        /* \"Smart Contracts/30_SimpleDexAggregatorOZ.sol\":11540:12304  {... */\n      pop\n        /* \"Smart Contracts/30_SimpleDexAggregatorOZ.sol\":11302:12304  function _bestSplitQuote(... */\n      swap6\n      pop\n      swap6\n      swap4\n      pop\n      pop\n      pop\n      pop\n      jump\t// out\n        /* \"@openzeppelin/contracts/utils/Pausable.sol\":1878:2006  function _requireNotPaused() internal view virtual {... */\n    tag_174:\n        /* \"@openzeppelin/contracts/utils/Pausable.sol\":1796:1803  _paused */\n      and(0xff, sload(0x03))\n        /* \"@openzeppelin/contracts/utils/Pausable.sol\":1939:2000  if (paused()) {... */\n      iszero\n      tag_201\n      jumpi\n        /* \"@openzeppelin/contracts/utils/Pausable.sol\":1974:1989  EnforcedPause() */\n      mload(0x40)\n      shl(0xe0, 0xd93c0665)\n      dup2\n      mstore\n      0x04\n      add\n      mload(0x40)\n      dup1\n      swap2\n      sub\n      swap1\n      revert\n        /* \"@openzeppelin/contracts/utils/ReentrancyGuard.sol\":2575:2882  function _nonReentrantBefore() private {... */\n    tag_180:\n        /* \"@openzeppelin/contracts/utils/ReentrancyGuard.sol\":1899:1900  2 */\n      0x02\n        /* \"@openzeppelin/contracts/utils/ReentrancyGuard.sol\":2702:2709  _status */\n      dup1\n      sload\n        /* \"@openzeppelin/contracts/utils/ReentrancyGuard.sol\":2702:2720  _status == ENTERED */\n      sub\n        /* \"@openzeppelin/contracts/utils/ReentrancyGuard.sol\":2698:2784  if (_status == ENTERED) {... */\n      tag_349\n      jumpi\n        /* \"@openzeppelin/contracts/utils/ReentrancyGuard.sol\":2743:2773  ReentrancyGuardReentrantCall() */\n      mload(0x40)\n      shl(0xe0, 0x3ee5aeb5)\n      dup2\n      mstore\n      0x04\n      add\n      mload(0x40)\n      dup1\n      swap2\n      sub\n      swap1\n      revert\n        /* \"@openzeppelin/contracts/utils/ReentrancyGuard.sol\":2698:2784  if (_status == ENTERED) {... */\n    tag_349:\n        /* \"@openzeppelin/contracts/utils/ReentrancyGuard.sol\":1899:1900  2 */\n      0x02\n        /* \"@openzeppelin/contracts/utils/ReentrancyGuard.sol\":2858:2875  _status = ENTERED */\n      dup1\n      sstore\n        /* \"@openzeppelin/contracts/utils/ReentrancyGuard.sol\":2575:2882  function _nonReentrantBefore() private {... */\n      jump\t// out\n        /* \"@openzeppelin/contracts/access/Ownable2Step.sol\":2011:2164  function _transferOwnership(address newOwner) internal virtual override {... */\n    tag_202:\n        /* \"@openzeppelin/contracts/access/Ownable2Step.sol\":2100:2113  _pendingOwner */\n      0x01\n        /* \"@openzeppelin/contracts/access/Ownable2Step.sol\":2093:2113  delete _pendingOwner */\n      dup1\n      sload\n      not(sub(shl(0xa0, 0x01), 0x01))\n      and\n      swap1\n      sstore\n        /* \"@openzeppelin/contracts/access/Ownable2Step.sol\":2123:2157  super._transferOwnership(newOwner) */\n      tag_209\n        /* \"@openzeppelin/contracts/access/Ownable2Step.sol\":2148:2156  newOwner */\n      dup2\n        /* \"@openzeppelin/contracts/access/Ownable2Step.sol\":2123:2147  super._transferOwnership */\n      tag_353\n        /* \"@openzeppelin/contracts/access/Ownable2Step.sol\":2123:2157  super._transferOwnership(newOwner) */\n      jump\t// in\n        /* \"@openzeppelin/contracts/utils/Pausable.sol\":2339:2454  function _pause() internal virtual whenNotPaused {... */\n    tag_214:\n        /* \"@openzeppelin/contracts/utils/Pausable.sol\":1350:1369  _requireNotPaused() */\n      tag_356\n        /* \"@openzeppelin/contracts/utils/Pausable.sol\":1350:1367  _requireNotPaused */\n      tag_174\n        /* \"@openzeppelin/contracts/utils/Pausable.sol\":1350:1369  _requireNotPaused() */\n      jump\t// in\n    tag_356:\n        /* \"@openzeppelin/contracts/utils/Pausable.sol\":2398:2405  _paused */\n      0x03\n        /* \"@openzeppelin/contracts/utils/Pausable.sol\":2398:2412  _paused = true */\n      dup1\n      sload\n      not(0xff)\n      and\n        /* \"@openzeppelin/contracts/utils/Pausable.sol\":2408:2412  true */\n      0x01\n        /* \"@openzeppelin/contracts/utils/Pausable.sol\":2398:2412  _paused = true */\n      or\n      swap1\n      sstore\n        /* \"@openzeppelin/contracts/utils/Pausable.sol\":2427:2447  Paused(_msgSender()) */\n      0x62e78cea01bee320cd4e420270b5ea74000d11b0c9f74754ebdbfc544b05a258\n        /* \"@openzeppelin/contracts/utils/Pausable.sol\":2434:2446  _msgSender() */\n      tag_284\n        /* \"@openzeppelin/contracts/utils/Context.sol\":735:745  msg.sender */\n      caller\n      swap1\n        /* \"@openzeppelin/contracts/utils/Context.sol\":656:752  function _msgSender() internal view virtual returns (address) {... */\n      jump\n        /* \"@openzeppelin/contracts/token/ERC20/utils/SafeERC20.sol\":1219:1379  function safeTransfer(IERC20 token, address to, uint256 value) internal {... */\n    tag_221:\n        /* \"@openzeppelin/contracts/token/ERC20/utils/SafeERC20.sol\":1328:1371  abi.encodeCall(token.transfer, (to, value)) */\n      mload(0x40)\n      sub(shl(0xa0, 0x01), 0x01)\n        /* \"#utility.yul\":13581:13613   */\n      dup4\n      dup2\n      and\n        /* \"@openzeppelin/contracts/token/ERC20/utils/SafeERC20.sol\":1328:1371  abi.encodeCall(token.transfer, (to, value)) */\n      0x24\n      dup4\n      add\n        /* \"#utility.yul\":13563:13614   */\n      mstore\n        /* \"#utility.yul\":13630:13648   */\n      0x44\n      dup3\n      add\n        /* \"#utility.yul\":13623:13657   */\n      dup4\n      swap1\n      mstore\n        /* \"@openzeppelin/contracts/token/ERC20/utils/SafeERC20.sol\":1301:1372  _callOptionalReturn(token, abi.encodeCall(token.transfer, (to, value))) */\n      tag_220\n      swap2\n        /* \"@openzeppelin/contracts/token/ERC20/utils/SafeERC20.sol\":1321:1326  token */\n      dup6\n      swap2\n        /* \"@openzeppelin/contracts/token/ERC20/utils/SafeERC20.sol\":1343:1357  token.transfer */\n      dup3\n      and\n      swap1\n      0xa9059cbb\n      swap1\n        /* \"#utility.yul\":13536:13554   */\n      0x64\n      add\n        /* \"@openzeppelin/contracts/token/ERC20/utils/SafeERC20.sol\":1328:1371  abi.encodeCall(token.transfer, (to, value)) */\n    tag_362:\n      mload(0x40)\n      0x20\n      dup2\n      dup4\n      sub\n      sub\n      dup2\n      mstore\n      swap1\n      0x40\n      mstore\n      swap2\n      pop\n      0xe0\n      shl\n      0x20\n      dup3\n      add\n      dup1\n      mload\n      sub(shl(0xe0, 0x01), 0x01)\n      dup4\n      dup2\n      dup4\n      and\n      or\n      dup4\n      mstore\n      pop\n      pop\n      pop\n      pop\n        /* \"@openzeppelin/contracts/token/ERC20/utils/SafeERC20.sol\":1301:1320  _callOptionalReturn */\n      tag_364\n        /* \"@openzeppelin/contracts/token/ERC20/utils/SafeERC20.sol\":1301:1372  _callOptionalReturn(token, abi.encodeCall(token.transfer, (to, value))) */\n      jump\t// in\n        /* \"Smart Contracts/30_SimpleDexAggregatorOZ.sol\":13304:13707  function _pullTokenIn(address tokenIn, address from, uint256 amount) internal returns (uint256 actualIn) {... */\n    tag_260:\n        /* \"Smart Contracts/30_SimpleDexAggregatorOZ.sol\":13440:13480  IERC20(tokenIn).balanceOf(address(this)) */\n      mload(0x40)\n      shl(0xe0, 0x70a08231)\n      dup2\n      mstore\n        /* \"Smart Contracts/30_SimpleDexAggregatorOZ.sol\":13474:13478  this */\n      address\n        /* \"Smart Contracts/30_SimpleDexAggregatorOZ.sol\":13440:13480  IERC20(tokenIn).balanceOf(address(this)) */\n      0x04\n      dup3\n      add\n        /* \"#utility.yul\":1964:2015   */\n      mstore\n        /* \"Smart Contracts/30_SimpleDexAggregatorOZ.sol\":13391:13407  uint256 actualIn */\n      0x00\n      swap1\n      dup2\n      swap1\n      sub(shl(0xa0, 0x01), 0x01)\n        /* \"Smart Contracts/30_SimpleDexAggregatorOZ.sol\":13440:13465  IERC20(tokenIn).balanceOf */\n      dup7\n      and\n      swap1\n      0x70a08231\n      swap1\n        /* \"#utility.yul\":1937:1955   */\n      0x24\n      add\n        /* \"Smart Contracts/30_SimpleDexAggregatorOZ.sol\":13440:13480  IERC20(tokenIn).balanceOf(address(this)) */\n      0x20\n      mload(0x40)\n      dup1\n      dup4\n      sub\n      dup2\n      dup7\n      gas\n      staticcall\n      iszero\n      dup1\n      iszero\n      tag_368\n      jumpi\n      returndatacopy(0x00, 0x00, returndatasize)\n      revert(0x00, returndatasize)\n    tag_368:\n      pop\n      pop\n      pop\n      pop\n      mload(0x40)\n      returndatasize\n      not(0x1f)\n      0x1f\n      dup3\n      add\n      and\n      dup3\n      add\n      dup1\n      0x40\n      mstore\n      pop\n      dup2\n      add\n      swap1\n      tag_369\n      swap2\n      swap1\n      tag_370\n      jump\t// in\n    tag_369:\n        /* \"Smart Contracts/30_SimpleDexAggregatorOZ.sol\":13420:13480  uint256 beforeBal = IERC20(tokenIn).balanceOf(address(this)) */\n      swap1\n      pop\n        /* \"Smart Contracts/30_SimpleDexAggregatorOZ.sol\":13491:13552  IERC20(tokenIn).safeTransferFrom(from, address(this), amount) */\n      tag_371\n      sub(shl(0xa0, 0x01), 0x01)\n        /* \"Smart Contracts/30_SimpleDexAggregatorOZ.sol\":13491:13523  IERC20(tokenIn).safeTransferFrom */\n      dup7\n      and\n        /* \"Smart Contracts/30_SimpleDexAggregatorOZ.sol\":13524:13528  from */\n      dup6\n        /* \"Smart Contracts/30_SimpleDexAggregatorOZ.sol\":13538:13542  this */\n      address\n        /* \"Smart Contracts/30_SimpleDexAggregatorOZ.sol\":13545:13551  amount */\n      dup7\n        /* \"Smart Contracts/30_SimpleDexAggregatorOZ.sol\":13491:13523  IERC20(tokenIn).safeTransferFrom */\n      tag_372\n        /* \"Smart Contracts/30_SimpleDexAggregatorOZ.sol\":13491:13552  IERC20(tokenIn).safeTransferFrom(from, address(this), amount) */\n      jump\t// in\n    tag_371:\n        /* \"Smart Contracts/30_SimpleDexAggregatorOZ.sol\":13582:13622  IERC20(tokenIn).balanceOf(address(this)) */\n      mload(0x40)\n      shl(0xe0, 0x70a08231)\n      dup2\n      mstore\n        /* \"Smart Contracts/30_SimpleDexAggregatorOZ.sol\":13616:13620  this */\n      address\n        /* \"Smart Contracts/30_SimpleDexAggregatorOZ.sol\":13582:13622  IERC20(tokenIn).balanceOf(address(this)) */\n      0x04\n      dup3\n      add\n        /* \"#utility.yul\":1964:2015   */\n      mstore\n        /* \"Smart Contracts/30_SimpleDexAggregatorOZ.sol\":13563:13579  uint256 afterBal */\n      0x00\n      swap1\n      sub(shl(0xa0, 0x01), 0x01)\n        /* \"Smart Contracts/30_SimpleDexAggregatorOZ.sol\":13582:13607  IERC20(tokenIn).balanceOf */\n      dup8\n      and\n      swap1\n      0x70a08231\n      swap1\n        /* \"#utility.yul\":1937:1955   */\n      0x24\n      add\n        /* \"Smart Contracts/30_SimpleDexAggregatorOZ.sol\":13582:13622  IERC20(tokenIn).balanceOf(address(this)) */\n      0x20\n      mload(0x40)\n      dup1\n      dup4\n      sub\n      dup2\n      dup7\n      gas\n      staticcall\n      iszero\n      dup1\n      iszero\n      tag_375\n      jumpi\n      returndatacopy(0x00, 0x00, returndatasize)\n      revert(0x00, returndatasize)\n    tag_375:\n      pop\n      pop\n      pop\n      pop\n      mload(0x40)\n      returndatasize\n      not(0x1f)\n      0x1f\n      dup3\n      add\n      and\n      dup3\n      add\n      dup1\n      0x40\n      mstore\n      pop\n      dup2\n      add\n      swap1\n      tag_376\n      swap2\n      swap1\n      tag_370\n      jump\t// in\n    tag_376:\n        /* \"Smart Contracts/30_SimpleDexAggregatorOZ.sol\":13563:13622  uint256 afterBal = IERC20(tokenIn).balanceOf(address(this)) */\n      swap1\n      pop\n        /* \"Smart Contracts/30_SimpleDexAggregatorOZ.sol\":13644:13664  afterBal - beforeBal */\n      tag_377\n        /* \"Smart Contracts/30_SimpleDexAggregatorOZ.sol\":13655:13664  beforeBal */\n      dup3\n        /* \"Smart Contracts/30_SimpleDexAggregatorOZ.sol\":13563:13622  uint256 afterBal = IERC20(tokenIn).balanceOf(address(this)) */\n      dup3\n        /* \"Smart Contracts/30_SimpleDexAggregatorOZ.sol\":13644:13664  afterBal - beforeBal */\n      tag_255\n      jump\t// in\n    tag_377:\n        /* \"Smart Contracts/30_SimpleDexAggregatorOZ.sol\":13633:13664  actualIn = afterBal - beforeBal */\n      swap7\n        /* \"Smart Contracts/30_SimpleDexAggregatorOZ.sol\":13304:13707  function _pullTokenIn(address tokenIn, address from, uint256 amount) internal returns (uint256 actualIn) {... */\n      swap6\n      pop\n      pop\n      pop\n      pop\n      pop\n      pop\n      jump\t// out\n        /* \"Smart Contracts/30_SimpleDexAggregatorOZ.sol\":12312:13227  function _decideBest(... */\n    tag_265:\n      0x40\n      dup1\n      mload\n      0xa0\n      dup2\n      add\n      dup3\n      mstore\n      0x00\n      dup1\n      dup3\n      mstore\n      0x20\n      dup3\n      add\n      dup2\n      swap1\n      mstore\n      swap2\n      dup2\n      add\n      dup3\n      swap1\n      mstore\n      0x60\n      dup2\n      add\n      dup3\n      swap1\n      mstore\n      0x80\n      dup2\n      add\n      dup3\n      swap1\n      mstore\n      swap1\n      dup1\n        /* \"Smart Contracts/30_SimpleDexAggregatorOZ.sol\":12537:12578  _bestSingleQuote(actualIn, routers, path) */\n      tag_381\n        /* \"Smart Contracts/30_SimpleDexAggregatorOZ.sol\":12554:12562  actualIn */\n      dup9\n        /* \"Smart Contracts/30_SimpleDexAggregatorOZ.sol\":12564:12571  routers */\n      dup9\n      dup9\n        /* \"Smart Contracts/30_SimpleDexAggregatorOZ.sol\":12573:12577  path */\n      dup9\n      dup9\n        /* \"Smart Contracts/30_SimpleDexAggregatorOZ.sol\":12537:12553  _bestSingleQuote */\n      tag_165\n        /* \"Smart Contracts/30_SimpleDexAggregatorOZ.sol\":12537:12578  _bestSingleQuote(actualIn, routers, path) */\n      jump\t// in\n    tag_381:\n        /* \"Smart Contracts/30_SimpleDexAggregatorOZ.sol\":12491:12578  (address bestSingle, uint256 bestSingleOut) = _bestSingleQuote(actualIn, routers, path) */\n      swap2\n      pop\n      swap2\n      pop\n        /* \"Smart Contracts/30_SimpleDexAggregatorOZ.sol\":12589:12605  TopTwo memory tt */\n      0x00\n        /* \"Smart Contracts/30_SimpleDexAggregatorOZ.sol\":12608:12647  _topTwoRouters(actualIn, routers, path) */\n      tag_382\n        /* \"Smart Contracts/30_SimpleDexAggregatorOZ.sol\":12623:12631  actualIn */\n      dup10\n        /* \"Smart Contracts/30_SimpleDexAggregatorOZ.sol\":12633:12640  routers */\n      dup10\n      dup10\n        /* \"Smart Contracts/30_SimpleDexAggregatorOZ.sol\":12642:12646  path */\n      dup10\n      dup10\n        /* \"Smart Contracts/30_SimpleDexAggregatorOZ.sol\":12608:12622  _topTwoRouters */\n      tag_167\n        /* \"Smart Contracts/30_SimpleDexAggregatorOZ.sol\":12608:12647  _topTwoRouters(actualIn, routers, path) */\n      jump\t// in\n    tag_382:\n        /* \"Smart Contracts/30_SimpleDexAggregatorOZ.sol\":12672:12677  false */\n      0x00\n        /* \"Smart Contracts/30_SimpleDexAggregatorOZ.sol\":12660:12677  d.doSplit = false */\n      dup1\n      dup7\n      mstore\n      sub(shl(0xa0, 0x01), 0x01)\n        /* \"Smart Contracts/30_SimpleDexAggregatorOZ.sol\":12688:12710  d.routerA = bestSingle */\n      dup1\n      dup7\n      and\n        /* \"Smart Contracts/30_SimpleDexAggregatorOZ.sol\":12688:12697  d.routerA */\n      0x20\n      dup9\n      add\n        /* \"Smart Contracts/30_SimpleDexAggregatorOZ.sol\":12688:12710  d.routerA = bestSingle */\n      mstore\n        /* \"Smart Contracts/30_SimpleDexAggregatorOZ.sol\":12721:12730  d.routerB */\n      0x40\n      dup1\n      dup9\n      add\n        /* \"Smart Contracts/30_SimpleDexAggregatorOZ.sol\":12721:12743  d.routerB = address(0) */\n      dup4\n      swap1\n      mstore\n        /* \"Smart Contracts/30_SimpleDexAggregatorOZ.sol\":12754:12767  d.splitBpsToA */\n      0x60\n      dup9\n      add\n        /* \"Smart Contracts/30_SimpleDexAggregatorOZ.sol\":12754:12771  d.splitBpsToA = 0 */\n      swap3\n      swap1\n      swap3\n      mstore\n        /* \"Smart Contracts/30_SimpleDexAggregatorOZ.sol\":12782:12791  d.bestOut */\n      0x80\n      dup8\n      add\n        /* \"Smart Contracts/30_SimpleDexAggregatorOZ.sol\":12782:12807  d.bestOut = bestSingleOut */\n      dup6\n      swap1\n      mstore\n        /* \"Smart Contracts/30_SimpleDexAggregatorOZ.sol\":12824:12829  tt.r2 */\n      swap1\n      dup3\n      add\n      mload\n        /* \"Smart Contracts/30_SimpleDexAggregatorOZ.sol\":12589:12647  TopTwo memory tt = _topTwoRouters(actualIn, routers, path) */\n      swap2\n      swap3\n      pop\n        /* \"Smart Contracts/30_SimpleDexAggregatorOZ.sol\":12824:12843  tt.r2 != address(0) */\n      and\n      iszero\n        /* \"Smart Contracts/30_SimpleDexAggregatorOZ.sol\":12820:13220  if (tt.r2 != address(0)) {... */\n      tag_383\n      jumpi\n        /* \"Smart Contracts/30_SimpleDexAggregatorOZ.sol\":12861:12880  uint16 bestSplitBps */\n      0x00\n        /* \"Smart Contracts/30_SimpleDexAggregatorOZ.sol\":12882:12902  uint256 bestSplitOut */\n      0x00\n        /* \"Smart Contracts/30_SimpleDexAggregatorOZ.sol\":12906:12951  _bestSplitQuote(actualIn, tt.r1, tt.r2, path) */\n      tag_384\n        /* \"Smart Contracts/30_SimpleDexAggregatorOZ.sol\":12922:12930  actualIn */\n      dup12\n        /* \"Smart Contracts/30_SimpleDexAggregatorOZ.sol\":12932:12934  tt */\n      dup5\n        /* \"Smart Contracts/30_SimpleDexAggregatorOZ.sol\":12932:12937  tt.r1 */\n      0x00\n      add\n      mload\n        /* \"Smart Contracts/30_SimpleDexAggregatorOZ.sol\":12939:12941  tt */\n      dup6\n        /* \"Smart Contracts/30_SimpleDexAggregatorOZ.sol\":12939:12944  tt.r2 */\n      0x40\n      add\n      mload\n        /* \"Smart Contracts/30_SimpleDexAggregatorOZ.sol\":12946:12950  path */\n      dup12\n      dup12\n        /* \"Smart Contracts/30_SimpleDexAggregatorOZ.sol\":12906:12921  _bestSplitQuote */\n      tag_170\n        /* \"Smart Contracts/30_SimpleDexAggregatorOZ.sol\":12906:12951  _bestSplitQuote(actualIn, tt.r1, tt.r2, path) */\n      jump\t// in\n    tag_384:\n        /* \"Smart Contracts/30_SimpleDexAggregatorOZ.sol\":12860:12951  (uint16 bestSplitBps, uint256 bestSplitOut) = _bestSplitQuote(actualIn, tt.r1, tt.r2, path) */\n      swap2\n      pop\n      swap2\n      pop\n        /* \"Smart Contracts/30_SimpleDexAggregatorOZ.sol\":12985:12986  d */\n      dup6\n        /* \"Smart Contracts/30_SimpleDexAggregatorOZ.sol\":12985:12994  d.bestOut */\n      0x80\n      add\n      mload\n        /* \"Smart Contracts/30_SimpleDexAggregatorOZ.sol\":12970:12982  bestSplitOut */\n      dup2\n        /* \"Smart Contracts/30_SimpleDexAggregatorOZ.sol\":12970:12994  bestSplitOut > d.bestOut */\n      gt\n        /* \"Smart Contracts/30_SimpleDexAggregatorOZ.sol\":12966:13209  if (bestSplitOut > d.bestOut) {... */\n      iszero\n      tag_385\n      jumpi\n        /* \"Smart Contracts/30_SimpleDexAggregatorOZ.sol\":13027:13031  true */\n      0x01\n        /* \"Smart Contracts/30_SimpleDexAggregatorOZ.sol\":13015:13031  d.doSplit = true */\n      dup7\n      mstore\n        /* \"Smart Contracts/30_SimpleDexAggregatorOZ.sol\":13062:13067  tt.r1 */\n      dup3\n      mload\n      sub(shl(0xa0, 0x01), 0x01)\n        /* \"Smart Contracts/30_SimpleDexAggregatorOZ.sol\":13050:13067  d.routerA = tt.r1 */\n      swap1\n      dup2\n      and\n        /* \"Smart Contracts/30_SimpleDexAggregatorOZ.sol\":13050:13059  d.routerA */\n      0x20\n      dup9\n      add\n        /* \"Smart Contracts/30_SimpleDexAggregatorOZ.sol\":13050:13067  d.routerA = tt.r1 */\n      mstore\n        /* \"Smart Contracts/30_SimpleDexAggregatorOZ.sol\":13098:13103  tt.r2 */\n      0x40\n      dup1\n      dup6\n      add\n      mload\n        /* \"Smart Contracts/30_SimpleDexAggregatorOZ.sol\":13086:13103  d.routerB = tt.r2 */\n      swap1\n      swap2\n      and\n        /* \"Smart Contracts/30_SimpleDexAggregatorOZ.sol\":13086:13095  d.routerB */\n      swap1\n      dup8\n      add\n        /* \"Smart Contracts/30_SimpleDexAggregatorOZ.sol\":13086:13103  d.routerB = tt.r2 */\n      mstore\n        /* \"Smart Contracts/30_SimpleDexAggregatorOZ.sol\":13122:13150  d.splitBpsToA = bestSplitBps */\n      0xffff\n      dup3\n      and\n        /* \"Smart Contracts/30_SimpleDexAggregatorOZ.sol\":13122:13135  d.splitBpsToA */\n      0x60\n      dup8\n      add\n        /* \"Smart Contracts/30_SimpleDexAggregatorOZ.sol\":13122:13150  d.splitBpsToA = bestSplitBps */\n      mstore\n        /* \"Smart Contracts/30_SimpleDexAggregatorOZ.sol\":13169:13178  d.bestOut */\n      0x80\n      dup7\n      add\n        /* \"Smart Contracts/30_SimpleDexAggregatorOZ.sol\":13169:13193  d.bestOut = bestSplitOut */\n      dup2\n      swap1\n      mstore\n        /* \"Smart Contracts/30_SimpleDexAggregatorOZ.sol\":12966:13209  if (bestSplitOut > d.bestOut) {... */\n    tag_385:\n        /* \"Smart Contracts/30_SimpleDexAggregatorOZ.sol\":12845:13220  {... */\n      pop\n      pop\n        /* \"Smart Contracts/30_SimpleDexAggregatorOZ.sol\":12820:13220  if (tt.r2 != address(0)) {... */\n    tag_383:\n        /* \"Smart Contracts/30_SimpleDexAggregatorOZ.sol\":12480:13227  {... */\n      pop\n      pop\n      pop\n        /* \"Smart Contracts/30_SimpleDexAggregatorOZ.sol\":12312:13227  function _decideBest(... */\n      swap6\n      swap5\n      pop\n      pop\n      pop\n      pop\n      pop\n      jump\t// out\n        /* \"Smart Contracts/30_SimpleDexAggregatorOZ.sol\":15966:16535  function _execSingle(... */\n    tag_268:\n        /* \"Smart Contracts/30_SimpleDexAggregatorOZ.sol\":16127:16144  uint256 outToUser */\n      0x00\n        /* \"Smart Contracts/30_SimpleDexAggregatorOZ.sol\":16157:16174  uint256 actualOut */\n      0x00\n        /* \"Smart Contracts/30_SimpleDexAggregatorOZ.sol\":16177:16234  _swapToSelf(ctx, router, amountIn, path, ctx.minOutTotal) */\n      tag_387\n        /* \"Smart Contracts/30_SimpleDexAggregatorOZ.sol\":16189:16192  ctx */\n      dup8\n        /* \"Smart Contracts/30_SimpleDexAggregatorOZ.sol\":16194:16200  router */\n      dup8\n        /* \"Smart Contracts/30_SimpleDexAggregatorOZ.sol\":16202:16210  amountIn */\n      dup8\n        /* \"Smart Contracts/30_SimpleDexAggregatorOZ.sol\":16212:16216  path */\n      dup8\n      dup8\n        /* \"Smart Contracts/30_SimpleDexAggregatorOZ.sol\":16218:16221  ctx */\n      dup13\n        /* \"Smart Contracts/30_SimpleDexAggregatorOZ.sol\":16218:16233  ctx.minOutTotal */\n      0x60\n      add\n      mload\n        /* \"Smart Contracts/30_SimpleDexAggregatorOZ.sol\":16177:16188  _swapToSelf */\n      tag_388\n        /* \"Smart Contracts/30_SimpleDexAggregatorOZ.sol\":16177:16234  _swapToSelf(ctx, router, amountIn, path, ctx.minOutTotal) */\n      jump\t// in\n    tag_387:\n        /* \"Smart Contracts/30_SimpleDexAggregatorOZ.sol\":16157:16234  uint256 actualOut = _swapToSelf(ctx, router, amountIn, path, ctx.minOutTotal) */\n      swap1\n      pop\n        /* \"Smart Contracts/30_SimpleDexAggregatorOZ.sol\":16268:16271  ctx */\n      dup7\n        /* \"Smart Contracts/30_SimpleDexAggregatorOZ.sol\":16268:16283  ctx.minOutTotal */\n      0x60\n      add\n      mload\n        /* \"Smart Contracts/30_SimpleDexAggregatorOZ.sol\":16255:16264  actualOut */\n      dup2\n        /* \"Smart Contracts/30_SimpleDexAggregatorOZ.sol\":16255:16283  actualOut >= ctx.minOutTotal */\n      lt\n      iszero\n        /* \"Smart Contracts/30_SimpleDexAggregatorOZ.sol\":16247:16305  require(actualOut >= ctx.minOutTotal, \"SLIPPAGE_TOO_HIGH\") */\n      tag_389\n      jumpi\n      mload(0x40)\n      shl(0xe5, 0x461bcd)\n      dup2\n      mstore\n        /* \"#utility.yul\":14105:14107   */\n      0x20\n        /* \"Smart Contracts/30_SimpleDexAggregatorOZ.sol\":16247:16305  require(actualOut >= ctx.minOutTotal, \"SLIPPAGE_TOO_HIGH\") */\n      0x04\n      dup3\n      add\n        /* \"#utility.yul\":14087:14108   */\n      mstore\n        /* \"#utility.yul\":14144:14146   */\n      0x11\n        /* \"#utility.yul\":14124:14142   */\n      0x24\n      dup3\n      add\n        /* \"#utility.yul\":14117:14147   */\n      mstore\n      shl(0x7b, 0x0a69892a0a0828e8abea89e9ebe90928e9)\n        /* \"#utility.yul\":14163:14181   */\n      0x44\n      dup3\n      add\n        /* \"#utility.yul\":14156:14203   */\n      mstore\n        /* \"#utility.yul\":14220:14238   */\n      0x64\n      add\n        /* \"Smart Contracts/30_SimpleDexAggregatorOZ.sol\":16247:16305  require(actualOut >= ctx.minOutTotal, \"SLIPPAGE_TOO_HIGH\") */\n      tag_30\n        /* \"#utility.yul\":13903:14244   */\n      jump\n        /* \"Smart Contracts/30_SimpleDexAggregatorOZ.sol\":16247:16305  require(actualOut >= ctx.minOutTotal, \"SLIPPAGE_TOO_HIGH\") */\n    tag_389:\n        /* \"Smart Contracts/30_SimpleDexAggregatorOZ.sol\":16319:16330  uint256 fee */\n      0x00\n        /* \"Smart Contracts/30_SimpleDexAggregatorOZ.sol\":16332:16343  uint256 net */\n      0x00\n        /* \"Smart Contracts/30_SimpleDexAggregatorOZ.sol\":16347:16380  _takeFee(ctx.tokenOut, actualOut) */\n      tag_392\n        /* \"Smart Contracts/30_SimpleDexAggregatorOZ.sol\":16356:16359  ctx */\n      dup10\n        /* \"Smart Contracts/30_SimpleDexAggregatorOZ.sol\":16356:16368  ctx.tokenOut */\n      0x20\n      add\n      mload\n        /* \"Smart Contracts/30_SimpleDexAggregatorOZ.sol\":16370:16379  actualOut */\n      dup5\n        /* \"Smart Contracts/30_SimpleDexAggregatorOZ.sol\":16347:16355  _takeFee */\n      tag_393\n        /* \"Smart Contracts/30_SimpleDexAggregatorOZ.sol\":16347:16380  _takeFee(ctx.tokenOut, actualOut) */\n      jump\t// in\n    tag_392:\n        /* \"Smart Contracts/30_SimpleDexAggregatorOZ.sol\":16398:16410  ctx.tokenOut */\n      0x20\n      dup12\n      add\n      mload\n        /* \"Smart Contracts/30_SimpleDexAggregatorOZ.sol\":16318:16380  (uint256 fee, uint256 net) = _takeFee(ctx.tokenOut, actualOut) */\n      swap2\n      swap4\n      pop\n      swap2\n      pop\n        /* \"Smart Contracts/30_SimpleDexAggregatorOZ.sol\":16391:16441  IERC20(ctx.tokenOut).safeTransfer(msg.sender, net) */\n      tag_394\n      swap1\n      sub(shl(0xa0, 0x01), 0x01)\n        /* \"Smart Contracts/30_SimpleDexAggregatorOZ.sol\":16391:16424  IERC20(ctx.tokenOut).safeTransfer */\n      and\n        /* \"Smart Contracts/30_SimpleDexAggregatorOZ.sol\":16425:16435  msg.sender */\n      caller\n        /* \"Smart Contracts/30_SimpleDexAggregatorOZ.sol\":16318:16380  (uint256 fee, uint256 net) = _takeFee(ctx.tokenOut, actualOut) */\n      dup4\n        /* \"Smart Contracts/30_SimpleDexAggregatorOZ.sol\":16391:16424  IERC20(ctx.tokenOut).safeTransfer */\n      tag_221\n        /* \"Smart Contracts/30_SimpleDexAggregatorOZ.sol\":16391:16441  IERC20(ctx.tokenOut).safeTransfer(msg.sender, net) */\n      jump\t// in\n    tag_394:\n        /* \"Smart Contracts/30_SimpleDexAggregatorOZ.sol\":16454:16506  _emitSwapBestSingle(ctx, router, amountIn, net, fee) */\n      tag_196\n        /* \"Smart Contracts/30_SimpleDexAggregatorOZ.sol\":16474:16477  ctx */\n      dup10\n        /* \"Smart Contracts/30_SimpleDexAggregatorOZ.sol\":16479:16485  router */\n      dup10\n        /* \"Smart Contracts/30_SimpleDexAggregatorOZ.sol\":16487:16495  amountIn */\n      dup10\n        /* \"Smart Contracts/30_SimpleDexAggregatorOZ.sol\":16497:16500  net */\n      dup5\n        /* \"Smart Contracts/30_SimpleDexAggregatorOZ.sol\":16502:16505  fee */\n      dup7\n        /* \"Smart Contracts/30_SimpleDexAggregatorOZ.sol\":16454:16473  _emitSwapBestSingle */\n      tag_396\n        /* \"Smart Contracts/30_SimpleDexAggregatorOZ.sol\":16454:16506  _emitSwapBestSingle(ctx, router, amountIn, net, fee) */\n      jump\t// in\n        /* \"Smart Contracts/30_SimpleDexAggregatorOZ.sol\":16543:17386  function _execSplit(... */\n    tag_271:\n        /* \"Smart Contracts/30_SimpleDexAggregatorOZ.sol\":16759:16776  uint256 outToUser */\n      0x00\n      dup1\n        /* \"Smart Contracts/30_SimpleDexAggregatorOZ.sol\":16903:16908  10000 */\n      0x2710\n        /* \"Smart Contracts/30_SimpleDexAggregatorOZ.sol\":16877:16899  amountIn * splitBpsToA */\n      tag_398\n      0xffff\n      dup8\n      and\n        /* \"Smart Contracts/30_SimpleDexAggregatorOZ.sol\":16877:16885  amountIn */\n      dup9\n        /* \"Smart Contracts/30_SimpleDexAggregatorOZ.sol\":16877:16899  amountIn * splitBpsToA */\n      tag_332\n      jump\t// in\n    tag_398:\n        /* \"Smart Contracts/30_SimpleDexAggregatorOZ.sol\":16876:16908  (amountIn * splitBpsToA) / 10000 */\n      tag_399\n      swap2\n      swap1\n      tag_334\n      jump\t// in\n    tag_399:\n        /* \"Smart Contracts/30_SimpleDexAggregatorOZ.sol\":16861:16908  uint256 amtA = (amountIn * splitBpsToA) / 10000 */\n      swap1\n      pop\n        /* \"Smart Contracts/30_SimpleDexAggregatorOZ.sol\":16919:16931  uint256 amtB */\n      0x00\n        /* \"Smart Contracts/30_SimpleDexAggregatorOZ.sol\":16934:16949  amountIn - amtA */\n      tag_400\n        /* \"Smart Contracts/30_SimpleDexAggregatorOZ.sol\":16861:16908  uint256 amtA = (amountIn * splitBpsToA) / 10000 */\n      dup3\n        /* \"Smart Contracts/30_SimpleDexAggregatorOZ.sol\":16934:16942  amountIn */\n      dup9\n        /* \"Smart Contracts/30_SimpleDexAggregatorOZ.sol\":16934:16949  amountIn - amtA */\n      tag_255\n      jump\t// in\n    tag_400:\n        /* \"Smart Contracts/30_SimpleDexAggregatorOZ.sol\":16919:16949  uint256 amtB = amountIn - amtA */\n      swap1\n      pop\n        /* \"Smart Contracts/30_SimpleDexAggregatorOZ.sol\":16962:16980  SplitOut memory so */\n      tag_401\n      mload(0x40)\n      dup1\n      0x60\n      add\n      0x40\n      mstore\n      dup1\n      0x00\n      dup2\n      mstore\n      0x20\n      add\n      0x00\n      dup2\n      mstore\n      0x20\n      add\n      0x00\n      dup2\n      mstore\n      pop\n      swap1\n      jump\n    tag_401:\n        /* \"Smart Contracts/30_SimpleDexAggregatorOZ.sol\":17001:17041  _swapToSelf(ctx, routerA, amtA, path, 0) */\n      tag_403\n        /* \"Smart Contracts/30_SimpleDexAggregatorOZ.sol\":17013:17016  ctx */\n      dup12\n        /* \"Smart Contracts/30_SimpleDexAggregatorOZ.sol\":17018:17025  routerA */\n      dup12\n        /* \"Smart Contracts/30_SimpleDexAggregatorOZ.sol\":17027:17031  amtA */\n      dup6\n        /* \"Smart Contracts/30_SimpleDexAggregatorOZ.sol\":17033:17037  path */\n      dup10\n      dup10\n        /* \"Smart Contracts/30_SimpleDexAggregatorOZ.sol\":17039:17040  0 */\n      0x00\n        /* \"Smart Contracts/30_SimpleDexAggregatorOZ.sol\":17001:17012  _swapToSelf */\n      tag_388\n        /* \"Smart Contracts/30_SimpleDexAggregatorOZ.sol\":17001:17041  _swapToSelf(ctx, routerA, amtA, path, 0) */\n      jump\t// in\n    tag_403:\n        /* \"Smart Contracts/30_SimpleDexAggregatorOZ.sol\":16991:17041  so.outA = _swapToSelf(ctx, routerA, amtA, path, 0) */\n      dup2\n      mstore\n        /* \"Smart Contracts/30_SimpleDexAggregatorOZ.sol\":17062:17102  _swapToSelf(ctx, routerB, amtB, path, 0) */\n      tag_404\n        /* \"Smart Contracts/30_SimpleDexAggregatorOZ.sol\":17074:17077  ctx */\n      dup12\n        /* \"Smart Contracts/30_SimpleDexAggregatorOZ.sol\":17079:17086  routerB */\n      dup11\n        /* \"Smart Contracts/30_SimpleDexAggregatorOZ.sol\":17088:17092  amtB */\n      dup5\n        /* \"Smart Contracts/30_SimpleDexAggregatorOZ.sol\":17094:17098  path */\n      dup10\n      dup10\n        /* \"Smart Contracts/30_SimpleDexAggregatorOZ.sol\":16991:16998  so.outA */\n      0x00\n        /* \"Smart Contracts/30_SimpleDexAggregatorOZ.sol\":17062:17073  _swapToSelf */\n      tag_388\n        /* \"Smart Contracts/30_SimpleDexAggregatorOZ.sol\":17062:17102  _swapToSelf(ctx, routerB, amtB, path, 0) */\n      jump\t// in\n    tag_404:\n        /* \"Smart Contracts/30_SimpleDexAggregatorOZ.sol\":17052:17059  so.outB */\n      0x20\n      dup3\n      add\n        /* \"Smart Contracts/30_SimpleDexAggregatorOZ.sol\":17052:17102  so.outB = _swapToSelf(ctx, routerB, amtB, path, 0) */\n      dup2\n      swap1\n      mstore\n        /* \"Smart Contracts/30_SimpleDexAggregatorOZ.sol\":17127:17134  so.outA */\n      dup2\n      mload\n        /* \"Smart Contracts/30_SimpleDexAggregatorOZ.sol\":17127:17144  so.outA + so.outB */\n      tag_405\n      swap2\n        /* \"Smart Contracts/30_SimpleDexAggregatorOZ.sol\":17052:17102  so.outB = _swapToSelf(ctx, routerB, amtB, path, 0) */\n      swap1\n        /* \"Smart Contracts/30_SimpleDexAggregatorOZ.sol\":17127:17144  so.outA + so.outB */\n      tag_343\n      jump\t// in\n    tag_405:\n        /* \"Smart Contracts/30_SimpleDexAggregatorOZ.sol\":17113:17124  so.totalOut */\n      0x40\n      dup3\n      add\n        /* \"Smart Contracts/30_SimpleDexAggregatorOZ.sol\":17113:17144  so.totalOut = so.outA + so.outB */\n      dup2\n      swap1\n      mstore\n        /* \"Smart Contracts/30_SimpleDexAggregatorOZ.sol\":17180:17195  ctx.minOutTotal */\n      0x60\n      dup13\n      add\n      mload\n      gt\n        /* \"Smart Contracts/30_SimpleDexAggregatorOZ.sol\":17165:17195  so.totalOut >= ctx.minOutTotal */\n      iszero\n        /* \"Smart Contracts/30_SimpleDexAggregatorOZ.sol\":17157:17217  require(so.totalOut >= ctx.minOutTotal, \"SLIPPAGE_TOO_HIGH\") */\n      tag_406\n      jumpi\n      mload(0x40)\n      shl(0xe5, 0x461bcd)\n      dup2\n      mstore\n        /* \"#utility.yul\":14105:14107   */\n      0x20\n        /* \"Smart Contracts/30_SimpleDexAggregatorOZ.sol\":17157:17217  require(so.totalOut >= ctx.minOutTotal, \"SLIPPAGE_TOO_HIGH\") */\n      0x04\n      dup3\n      add\n        /* \"#utility.yul\":14087:14108   */\n      mstore\n        /* \"#utility.yul\":14144:14146   */\n      0x11\n        /* \"#utility.yul\":14124:14142   */\n      0x24\n      dup3\n      add\n        /* \"#utility.yul\":14117:14147   */\n      mstore\n      shl(0x7b, 0x0a69892a0a0828e8abea89e9ebe90928e9)\n        /* \"#utility.yul\":14163:14181   */\n      0x44\n      dup3\n      add\n        /* \"#utility.yul\":14156:14203   */\n      mstore\n        /* \"#utility.yul\":14220:14238   */\n      0x64\n      add\n        /* \"Smart Contracts/30_SimpleDexAggregatorOZ.sol\":17157:17217  require(so.totalOut >= ctx.minOutTotal, \"SLIPPAGE_TOO_HIGH\") */\n      tag_30\n        /* \"#utility.yul\":13903:14244   */\n      jump\n        /* \"Smart Contracts/30_SimpleDexAggregatorOZ.sol\":17157:17217  require(so.totalOut >= ctx.minOutTotal, \"SLIPPAGE_TOO_HIGH\") */\n    tag_406:\n        /* \"Smart Contracts/30_SimpleDexAggregatorOZ.sol\":17231:17242  uint256 fee */\n      0x00\n        /* \"Smart Contracts/30_SimpleDexAggregatorOZ.sol\":17244:17255  uint256 net */\n      0x00\n        /* \"Smart Contracts/30_SimpleDexAggregatorOZ.sol\":17259:17294  _takeFee(ctx.tokenOut, so.totalOut) */\n      tag_408\n        /* \"Smart Contracts/30_SimpleDexAggregatorOZ.sol\":17268:17271  ctx */\n      dup14\n        /* \"Smart Contracts/30_SimpleDexAggregatorOZ.sol\":17268:17280  ctx.tokenOut */\n      0x20\n      add\n      mload\n        /* \"Smart Contracts/30_SimpleDexAggregatorOZ.sol\":17282:17284  so */\n      dup5\n        /* \"Smart Contracts/30_SimpleDexAggregatorOZ.sol\":17282:17293  so.totalOut */\n      0x40\n      add\n      mload\n        /* \"Smart Contracts/30_SimpleDexAggregatorOZ.sol\":17259:17267  _takeFee */\n      tag_393\n        /* \"Smart Contracts/30_SimpleDexAggregatorOZ.sol\":17259:17294  _takeFee(ctx.tokenOut, so.totalOut) */\n      jump\t// in\n    tag_408:\n        /* \"Smart Contracts/30_SimpleDexAggregatorOZ.sol\":17312:17324  ctx.tokenOut */\n      0x20\n      dup16\n      add\n      mload\n        /* \"Smart Contracts/30_SimpleDexAggregatorOZ.sol\":17230:17294  (uint256 fee, uint256 net) = _takeFee(ctx.tokenOut, so.totalOut) */\n      swap2\n      swap4\n      pop\n      swap2\n      pop\n        /* \"Smart Contracts/30_SimpleDexAggregatorOZ.sol\":17305:17355  IERC20(ctx.tokenOut).safeTransfer(msg.sender, net) */\n      tag_409\n      swap1\n      sub(shl(0xa0, 0x01), 0x01)\n        /* \"Smart Contracts/30_SimpleDexAggregatorOZ.sol\":17305:17338  IERC20(ctx.tokenOut).safeTransfer */\n      and\n        /* \"Smart Contracts/30_SimpleDexAggregatorOZ.sol\":17339:17349  msg.sender */\n      caller\n        /* \"Smart Contracts/30_SimpleDexAggregatorOZ.sol\":17230:17294  (uint256 fee, uint256 net) = _takeFee(ctx.tokenOut, so.totalOut) */\n      dup4\n        /* \"Smart Contracts/30_SimpleDexAggregatorOZ.sol\":17305:17338  IERC20(ctx.tokenOut).safeTransfer */\n      tag_221\n        /* \"Smart Contracts/30_SimpleDexAggregatorOZ.sol\":17305:17355  IERC20(ctx.tokenOut).safeTransfer(msg.sender, net) */\n      jump\t// in\n    tag_409:\n        /* \"Smart Contracts/30_SimpleDexAggregatorOZ.sol\":17375:17378  net */\n      swap13\n        /* \"Smart Contracts/30_SimpleDexAggregatorOZ.sol\":16543:17386  function _execSplit(... */\n      swap12\n      pop\n      pop\n      pop\n      pop\n      pop\n      pop\n      pop\n      pop\n      pop\n      pop\n      pop\n      pop\n      jump\t// out\n        /* \"@openzeppelin/contracts/utils/Pausable.sol\":2078:2204  function _requirePaused() internal view virtual {... */\n    tag_282:\n        /* \"@openzeppelin/contracts/utils/Pausable.sol\":1796:1803  _paused */\n      and(0xff, sload(0x03))\n        /* \"@openzeppelin/contracts/utils/Pausable.sol\":2136:2198  if (!paused()) {... */\n      tag_201\n      jumpi\n        /* \"@openzeppelin/contracts/utils/Pausable.sol\":2172:2187  ExpectedPause() */\n      mload(0x40)\n      shl(0xe0, 0x8dfc202b)\n      dup2\n      mstore\n      0x04\n      add\n      mload(0x40)\n      dup1\n      swap2\n      sub\n      swap1\n      revert\n        /* \"Smart Contracts/30_SimpleDexAggregatorOZ.sol\":9559:9984  function _safeAmountsOut(address router, uint256 amountIn, address[] calldata path) internal view returns (uint256 out) {... */\n    tag_294:\n        /* \"Smart Contracts/30_SimpleDexAggregatorOZ.sol\":9736:9794  IUniswapV2RouterLike(router).getAmountsOut(amountIn, path) */\n      mload(0x40)\n      shl(0xe0, 0xd06ca61f)\n      dup2\n      mstore\n        /* \"Smart Contracts/30_SimpleDexAggregatorOZ.sol\":9666:9677  uint256 out */\n      0x00\n      swap1\n      sub(shl(0xa0, 0x01), 0x01)\n        /* \"Smart Contracts/30_SimpleDexAggregatorOZ.sol\":9736:9778  IUniswapV2RouterLike(router).getAmountsOut */\n      dup7\n      and\n      swap1\n      0xd06ca61f\n      swap1\n        /* \"Smart Contracts/30_SimpleDexAggregatorOZ.sol\":9736:9794  IUniswapV2RouterLike(router).getAmountsOut(amountIn, path) */\n      tag_414\n      swap1\n        /* \"Smart Contracts/30_SimpleDexAggregatorOZ.sol\":9779:9787  amountIn */\n      dup8\n      swap1\n        /* \"Smart Contracts/30_SimpleDexAggregatorOZ.sol\":9789:9793  path */\n      dup8\n      swap1\n      dup8\n      swap1\n        /* \"Smart Contracts/30_SimpleDexAggregatorOZ.sol\":9736:9794  IUniswapV2RouterLike(router).getAmountsOut(amountIn, path) */\n      0x04\n      add\n      tag_415\n      jump\t// in\n    tag_414:\n      0x00\n      mload(0x40)\n      dup1\n      dup4\n      sub\n      dup2\n      dup7\n      gas\n      staticcall\n      swap3\n      pop\n      pop\n      pop\n      dup1\n      iszero\n      tag_416\n      jumpi\n      pop\n      mload(0x40)\n      returndatasize\n      0x00\n      dup3\n      returndatacopy\n      0x1f\n      returndatasize\n      swap1\n      dup2\n      add\n      not(0x1f)\n      and\n      dup3\n      add\n      0x40\n      mstore\n      tag_417\n      swap2\n      swap1\n      dup2\n      add\n      swap1\n      tag_418\n      jump\t// in\n    tag_417:\n      0x01\n    tag_416:\n        /* \"Smart Contracts/30_SimpleDexAggregatorOZ.sol\":9732:9977  try IUniswapV2RouterLike(router).getAmountsOut(amountIn, path) returns (uint[] memory amounts) {... */\n      tag_419\n      jumpi\n      pop\n        /* \"Smart Contracts/30_SimpleDexAggregatorOZ.sol\":9964:9965  0 */\n      0x00\n        /* \"Smart Contracts/30_SimpleDexAggregatorOZ.sol\":9957:9965  return 0 */\n      jump(tag_423)\n        /* \"Smart Contracts/30_SimpleDexAggregatorOZ.sol\":9732:9977  try IUniswapV2RouterLike(router).getAmountsOut(amountIn, path) returns (uint[] memory amounts) {... */\n    tag_419:\n        /* \"Smart Contracts/30_SimpleDexAggregatorOZ.sol\":9846:9860  amounts.length */\n      dup1\n      mload\n        /* \"Smart Contracts/30_SimpleDexAggregatorOZ.sol\":9846:9864  amounts.length > 0 */\n      iszero\n        /* \"Smart Contracts/30_SimpleDexAggregatorOZ.sol\":9842:9900  if (amounts.length > 0) return amounts[amounts.length - 1] */\n      tag_424\n      jumpi\n        /* \"Smart Contracts/30_SimpleDexAggregatorOZ.sol\":9873:9880  amounts */\n      dup1\n        /* \"Smart Contracts/30_SimpleDexAggregatorOZ.sol\":9898:9899  1 */\n      0x01\n        /* \"Smart Contracts/30_SimpleDexAggregatorOZ.sol\":9881:9888  amounts */\n      dup3\n        /* \"Smart Contracts/30_SimpleDexAggregatorOZ.sol\":9881:9895  amounts.length */\n      mload\n        /* \"Smart Contracts/30_SimpleDexAggregatorOZ.sol\":9881:9899  amounts.length - 1 */\n      tag_425\n      swap2\n      swap1\n      tag_255\n      jump\t// in\n    tag_425:\n        /* \"Smart Contracts/30_SimpleDexAggregatorOZ.sol\":9873:9900  amounts[amounts.length - 1] */\n      dup2\n      mload\n      dup2\n      lt\n      tag_427\n      jumpi\n      tag_427\n      tag_244\n      jump\t// in\n    tag_427:\n      0x20\n      mul\n      0x20\n      add\n      add\n      mload\n        /* \"Smart Contracts/30_SimpleDexAggregatorOZ.sol\":9866:9900  return amounts[amounts.length - 1] */\n      swap2\n      pop\n      pop\n      jump(tag_423)\n        /* \"Smart Contracts/30_SimpleDexAggregatorOZ.sol\":9842:9900  if (amounts.length > 0) return amounts[amounts.length - 1] */\n    tag_424:\n        /* \"Smart Contracts/30_SimpleDexAggregatorOZ.sol\":9922:9923  0 */\n      0x00\n        /* \"Smart Contracts/30_SimpleDexAggregatorOZ.sol\":9915:9923  return 0 */\n      swap2\n      pop\n      pop\n        /* \"Smart Contracts/30_SimpleDexAggregatorOZ.sol\":9732:9977  try IUniswapV2RouterLike(router).getAmountsOut(amountIn, path) returns (uint[] memory amounts) {... */\n    tag_423:\n        /* \"Smart Contracts/30_SimpleDexAggregatorOZ.sol\":9559:9984  function _safeAmountsOut(address router, uint256 amountIn, address[] calldata path) internal view returns (uint256 out) {... */\n      swap5\n      swap4\n      pop\n      pop\n      pop\n      pop\n      jump\t// out\n        /* \"@openzeppelin/contracts/access/Ownable.sol\":2912:3099  function _transferOwnership(address newOwner) internal virtual {... */\n    tag_353:\n        /* \"@openzeppelin/contracts/access/Ownable.sol\":2985:3001  address oldOwner */\n      0x00\n        /* \"@openzeppelin/contracts/access/Ownable.sol\":3004:3010  _owner */\n      dup1\n      sload\n      sub(shl(0xa0, 0x01), 0x01)\n        /* \"@openzeppelin/contracts/access/Ownable.sol\":3020:3037  _owner = newOwner */\n      dup4\n      dup2\n      and\n      not(sub(shl(0xa0, 0x01), 0x01))\n      dup4\n      and\n      dup2\n      or\n      dup5\n      sstore\n        /* \"@openzeppelin/contracts/access/Ownable.sol\":3052:3092  OwnershipTransferred(oldOwner, newOwner) */\n      mload(0x40)\n        /* \"@openzeppelin/contracts/access/Ownable.sol\":3004:3010  _owner */\n      swap2\n      swap1\n      swap3\n      and\n      swap3\n      dup4\n      swap2\n        /* \"@openzeppelin/contracts/access/Ownable.sol\":3052:3092  OwnershipTransferred(oldOwner, newOwner) */\n      0x8be0079c531659141344cd1fd0a4f28419497f9722a3daafe3b4186f6b6457e0\n      swap2\n        /* \"@openzeppelin/contracts/access/Ownable.sol\":2985:3001  address oldOwner */\n      swap1\n        /* \"@openzeppelin/contracts/access/Ownable.sol\":3052:3092  OwnershipTransferred(oldOwner, newOwner) */\n      log3\n        /* \"@openzeppelin/contracts/access/Ownable.sol\":2975:3099  {... */\n      pop\n        /* \"@openzeppelin/contracts/access/Ownable.sol\":2912:3099  function _transferOwnership(address newOwner) internal virtual {... */\n      pop\n      jump\t// out\n        /* \"@openzeppelin/contracts/token/ERC20/utils/SafeERC20.sol\":8370:9090  function _callOptionalReturn(IERC20 token, bytes memory data) private {... */\n    tag_364:\n        /* \"@openzeppelin/contracts/token/ERC20/utils/SafeERC20.sol\":8450:8468  uint256 returnSize */\n      0x00\n        /* \"@openzeppelin/contracts/token/ERC20/utils/SafeERC20.sol\":8478:8497  uint256 returnValue */\n      0x00\n        /* \"@openzeppelin/contracts/token/ERC20/utils/SafeERC20.sol\":8616:8620  0x20 */\n      0x20\n        /* \"@openzeppelin/contracts/token/ERC20/utils/SafeERC20.sol\":8613:8614  0 */\n      0x00\n        /* \"@openzeppelin/contracts/token/ERC20/utils/SafeERC20.sol\":8606:8610  data */\n      dup5\n        /* \"@openzeppelin/contracts/token/ERC20/utils/SafeERC20.sol\":8600:8611  mload(data) */\n      mload\n        /* \"@openzeppelin/contracts/token/ERC20/utils/SafeERC20.sol\":8593:8597  0x20 */\n      0x20\n        /* \"@openzeppelin/contracts/token/ERC20/utils/SafeERC20.sol\":8587:8591  data */\n      dup7\n        /* \"@openzeppelin/contracts/token/ERC20/utils/SafeERC20.sol\":8583:8598  add(data, 0x20) */\n      add\n        /* \"@openzeppelin/contracts/token/ERC20/utils/SafeERC20.sol\":8580:8581  0 */\n      0x00\n        /* \"@openzeppelin/contracts/token/ERC20/utils/SafeERC20.sol\":8573:8578  token */\n      dup9\n        /* \"@openzeppelin/contracts/token/ERC20/utils/SafeERC20.sol\":8566:8571  gas() */\n      gas\n        /* \"@openzeppelin/contracts/token/ERC20/utils/SafeERC20.sol\":8561:8621  call(gas(), token, 0, add(data, 0x20), mload(data), 0, 0x20) */\n      call\n        /* \"@openzeppelin/contracts/token/ERC20/utils/SafeERC20.sol\":8673:8680  success */\n      dup1\n        /* \"@openzeppelin/contracts/token/ERC20/utils/SafeERC20.sol\":8663:8839  if iszero(success) {... */\n      tag_430\n      jumpi\n        /* \"@openzeppelin/contracts/token/ERC20/utils/SafeERC20.sol\":8717:8721  0x40 */\n      0x40\n        /* \"@openzeppelin/contracts/token/ERC20/utils/SafeERC20.sol\":8711:8722  mload(0x40) */\n      mload\n        /* \"@openzeppelin/contracts/token/ERC20/utils/SafeERC20.sol\":8762:8778  returndatasize() */\n      returndatasize\n        /* \"@openzeppelin/contracts/token/ERC20/utils/SafeERC20.sol\":8759:8760  0 */\n      0x00\n        /* \"@openzeppelin/contracts/token/ERC20/utils/SafeERC20.sol\":8754:8757  ptr */\n      dup3\n        /* \"@openzeppelin/contracts/token/ERC20/utils/SafeERC20.sol\":8739:8779  returndatacopy(ptr, 0, returndatasize()) */\n      returndatacopy\n        /* \"@openzeppelin/contracts/token/ERC20/utils/SafeERC20.sol\":8808:8824  returndatasize() */\n      returndatasize\n        /* \"@openzeppelin/contracts/token/ERC20/utils/SafeERC20.sol\":8803:8806  ptr */\n      dup2\n        /* \"@openzeppelin/contracts/token/ERC20/utils/SafeERC20.sol\":8796:8825  revert(ptr, returndatasize()) */\n      revert\n        /* \"@openzeppelin/contracts/token/ERC20/utils/SafeERC20.sol\":8663:8839  if iszero(success) {... */\n    tag_430:\n      pop\n      pop\n        /* \"@openzeppelin/contracts/token/ERC20/utils/SafeERC20.sol\":8916:8917  0 */\n      0x00\n        /* \"@openzeppelin/contracts/token/ERC20/utils/SafeERC20.sol\":8910:8918  mload(0) */\n      mload\n        /* \"@openzeppelin/contracts/token/ERC20/utils/SafeERC20.sol\":8866:8882  returndatasize() */\n      returndatasize\n      swap2\n      pop\n        /* \"@openzeppelin/contracts/token/ERC20/utils/SafeERC20.sol\":8942:8957  returnSize == 0 */\n      dup2\n      iszero\n        /* \"@openzeppelin/contracts/token/ERC20/utils/SafeERC20.sol\":8942:9010  returnSize == 0 ? address(token).code.length == 0 : returnValue != 1 */\n      tag_431\n      jumpi\n        /* \"@openzeppelin/contracts/token/ERC20/utils/SafeERC20.sol\":8994:9005  returnValue */\n      dup1\n        /* \"@openzeppelin/contracts/token/ERC20/utils/SafeERC20.sol\":9009:9010  1 */\n      0x01\n        /* \"@openzeppelin/contracts/token/ERC20/utils/SafeERC20.sol\":8994:9010  returnValue != 1 */\n      eq\n      iszero\n        /* \"@openzeppelin/contracts/token/ERC20/utils/SafeERC20.sol\":8942:9010  returnSize == 0 ? address(token).code.length == 0 : returnValue != 1 */\n      jump(tag_432)\n    tag_431:\n      sub(shl(0xa0, 0x01), 0x01)\n        /* \"@openzeppelin/contracts/token/ERC20/utils/SafeERC20.sol\":8960:8986  address(token).code.length */\n      dup5\n      and\n      extcodesize\n        /* \"@openzeppelin/contracts/token/ERC20/utils/SafeERC20.sol\":8960:8991  address(token).code.length == 0 */\n      iszero\n        /* \"@openzeppelin/contracts/token/ERC20/utils/SafeERC20.sol\":8942:9010  returnSize == 0 ? address(token).code.length == 0 : returnValue != 1 */\n    tag_432:\n        /* \"@openzeppelin/contracts/token/ERC20/utils/SafeERC20.sol\":8938:9084  if (returnSize == 0 ? address(token).code.length == 0 : returnValue != 1) {... */\n      iszero\n      tag_433\n      jumpi\n        /* \"@openzeppelin/contracts/token/ERC20/utils/SafeERC20.sol\":9033:9073  SafeERC20FailedOperation(address(token)) */\n      mload(0x40)\n      shl(0xe0, 0x5274afe7)\n      dup2\n      mstore\n      sub(shl(0xa0, 0x01), 0x01)\n        /* \"#utility.yul\":1982:2014   */\n      dup6\n      and\n        /* \"@openzeppelin/contracts/token/ERC20/utils/SafeERC20.sol\":9033:9073  SafeERC20FailedOperation(address(token)) */\n      0x04\n      dup3\n      add\n        /* \"#utility.yul\":1964:2015   */\n      mstore\n        /* \"#utility.yul\":1937:1955   */\n      0x24\n      add\n        /* \"@openzeppelin/contracts/token/ERC20/utils/SafeERC20.sol\":9033:9073  SafeERC20FailedOperation(address(token)) */\n      tag_30\n        /* \"#utility.yul\":1818:2021   */\n      jump\n        /* \"@openzeppelin/contracts/token/ERC20/utils/SafeERC20.sol\":8938:9084  if (returnSize == 0 ? address(token).code.length == 0 : returnValue != 1) {... */\n    tag_433:\n        /* \"@openzeppelin/contracts/token/ERC20/utils/SafeERC20.sol\":8440:9090  {... */\n      pop\n      pop\n        /* \"@openzeppelin/contracts/token/ERC20/utils/SafeERC20.sol\":8370:9090  function _callOptionalReturn(IERC20 token, bytes memory data) private {... */\n      pop\n      pop\n      jump\t// out\n        /* \"@openzeppelin/contracts/token/ERC20/utils/SafeERC20.sol\":1618:1806  function safeTransferFrom(IERC20 token, address from, address to, uint256 value) internal {... */\n    tag_372:\n        /* \"@openzeppelin/contracts/token/ERC20/utils/SafeERC20.sol\":1745:1798  abi.encodeCall(token.transferFrom, (from, to, value)) */\n      mload(0x40)\n      sub(shl(0xa0, 0x01), 0x01)\n        /* \"#utility.yul\":16135:16167   */\n      dup5\n      dup2\n      and\n        /* \"@openzeppelin/contracts/token/ERC20/utils/SafeERC20.sol\":1745:1798  abi.encodeCall(token.transferFrom, (from, to, value)) */\n      0x24\n      dup4\n      add\n        /* \"#utility.yul\":16117:16168   */\n      mstore\n        /* \"#utility.yul\":16204:16236   */\n      dup4\n      dup2\n      and\n        /* \"#utility.yul\":16184:16202   */\n      0x44\n      dup4\n      add\n        /* \"#utility.yul\":16177:16237   */\n      mstore\n        /* \"#utility.yul\":16253:16271   */\n      0x64\n      dup3\n      add\n        /* \"#utility.yul\":16246:16280   */\n      dup4\n      swap1\n      mstore\n        /* \"@openzeppelin/contracts/token/ERC20/utils/SafeERC20.sol\":1718:1799  _callOptionalReturn(token, abi.encodeCall(token.transferFrom, (from, to, value))) */\n      tag_433\n      swap2\n        /* \"@openzeppelin/contracts/token/ERC20/utils/SafeERC20.sol\":1738:1743  token */\n      dup7\n      swap2\n        /* \"@openzeppelin/contracts/token/ERC20/utils/SafeERC20.sol\":1760:1778  token.transferFrom */\n      dup3\n      and\n      swap1\n      0x23b872dd\n      swap1\n        /* \"#utility.yul\":16090:16108   */\n      0x84\n      add\n        /* \"@openzeppelin/contracts/token/ERC20/utils/SafeERC20.sol\":1745:1798  abi.encodeCall(token.transferFrom, (from, to, value)) */\n      tag_362\n        /* \"#utility.yul\":15915:16286   */\n      jump\n        /* \"Smart Contracts/30_SimpleDexAggregatorOZ.sol\":14261:15035  function _swapToSelf(... */\n    tag_388:\n        /* \"Smart Contracts/30_SimpleDexAggregatorOZ.sol\":14459:14477  uint256 outPortion */\n      0x00\n        /* \"Smart Contracts/30_SimpleDexAggregatorOZ.sol\":14494:14509  amountInPortion */\n      dup5\n        /* \"Smart Contracts/30_SimpleDexAggregatorOZ.sol\":14513:14514  0 */\n      0x00\n        /* \"Smart Contracts/30_SimpleDexAggregatorOZ.sol\":14494:14514  amountInPortion == 0 */\n      sub\n        /* \"Smart Contracts/30_SimpleDexAggregatorOZ.sol\":14490:14524  if (amountInPortion == 0) return 0 */\n      tag_440\n      jumpi\n      pop\n        /* \"Smart Contracts/30_SimpleDexAggregatorOZ.sol\":14523:14524  0 */\n      0x00\n        /* \"Smart Contracts/30_SimpleDexAggregatorOZ.sol\":14516:14524  return 0 */\n      jump(tag_377)\n        /* \"Smart Contracts/30_SimpleDexAggregatorOZ.sol\":14490:14524  if (amountInPortion == 0) return 0 */\n    tag_440:\n        /* \"Smart Contracts/30_SimpleDexAggregatorOZ.sol\":14551:14562  ctx.tokenIn */\n      dup7\n      mload\n        /* \"Smart Contracts/30_SimpleDexAggregatorOZ.sol\":14537:14588  _approveExact(ctx.tokenIn, router, amountInPortion) */\n      tag_441\n      swap1\n        /* \"Smart Contracts/30_SimpleDexAggregatorOZ.sol\":14564:14570  router */\n      dup8\n        /* \"Smart Contracts/30_SimpleDexAggregatorOZ.sol\":14572:14587  amountInPortion */\n      dup8\n        /* \"Smart Contracts/30_SimpleDexAggregatorOZ.sol\":14537:14550  _approveExact */\n      tag_442\n        /* \"Smart Contracts/30_SimpleDexAggregatorOZ.sol\":14537:14588  _approveExact(ctx.tokenIn, router, amountInPortion) */\n      jump\t// in\n    tag_441:\n        /* \"Smart Contracts/30_SimpleDexAggregatorOZ.sol\":14628:14640  ctx.tokenOut */\n      0x20\n      dup8\n      add\n      mload\n        /* \"Smart Contracts/30_SimpleDexAggregatorOZ.sol\":14621:14666  IERC20(ctx.tokenOut).balanceOf(address(this)) */\n      mload(0x40)\n      shl(0xe0, 0x70a08231)\n      dup2\n      mstore\n        /* \"Smart Contracts/30_SimpleDexAggregatorOZ.sol\":14660:14664  this */\n      address\n        /* \"Smart Contracts/30_SimpleDexAggregatorOZ.sol\":14621:14666  IERC20(ctx.tokenOut).balanceOf(address(this)) */\n      0x04\n      dup3\n      add\n        /* \"#utility.yul\":1964:2015   */\n      mstore\n        /* \"Smart Contracts/30_SimpleDexAggregatorOZ.sol\":14601:14618  uint256 beforeOut */\n      0x00\n      swap2\n      sub(shl(0xa0, 0x01), 0x01)\n        /* \"Smart Contracts/30_SimpleDexAggregatorOZ.sol\":14621:14651  IERC20(ctx.tokenOut).balanceOf */\n      and\n      swap1\n      0x70a08231\n      swap1\n        /* \"#utility.yul\":1937:1955   */\n      0x24\n      add\n        /* \"Smart Contracts/30_SimpleDexAggregatorOZ.sol\":14621:14666  IERC20(ctx.tokenOut).balanceOf(address(this)) */\n      0x20\n      mload(0x40)\n      dup1\n      dup4\n      sub\n      dup2\n      dup7\n      gas\n      staticcall\n      iszero\n      dup1\n      iszero\n      tag_445\n      jumpi\n      returndatacopy(0x00, 0x00, returndatasize)\n      revert(0x00, returndatasize)\n    tag_445:\n      pop\n      pop\n      pop\n      pop\n      mload(0x40)\n      returndatasize\n      not(0x1f)\n      0x1f\n      dup3\n      add\n      and\n      dup3\n      add\n      dup1\n      0x40\n      mstore\n      pop\n      dup2\n      add\n      swap1\n      tag_446\n      swap2\n      swap1\n      tag_370\n      jump\t// in\n    tag_446:\n        /* \"Smart Contracts/30_SimpleDexAggregatorOZ.sol\":14601:14666  uint256 beforeOut = IERC20(ctx.tokenOut).balanceOf(address(this)) */\n      swap1\n      pop\n        /* \"Smart Contracts/30_SimpleDexAggregatorOZ.sol\":14700:14706  router */\n      dup7\n      sub(shl(0xa0, 0x01), 0x01)\n        /* \"Smart Contracts/30_SimpleDexAggregatorOZ.sol\":14679:14732  IUniswapV2RouterLike(router).swapExactTokensForTokens */\n      and\n      0x38ed1739\n        /* \"Smart Contracts/30_SimpleDexAggregatorOZ.sol\":14747:14762  amountInPortion */\n      dup8\n        /* \"Smart Contracts/30_SimpleDexAggregatorOZ.sol\":14777:14788  minOutRoute */\n      dup6\n        /* \"Smart Contracts/30_SimpleDexAggregatorOZ.sol\":14803:14807  path */\n      dup9\n      dup9\n        /* \"Smart Contracts/30_SimpleDexAggregatorOZ.sol\":14830:14834  this */\n      address\n        /* \"Smart Contracts/30_SimpleDexAggregatorOZ.sol\":14850:14853  ctx */\n      dup15\n        /* \"Smart Contracts/30_SimpleDexAggregatorOZ.sol\":14850:14862  ctx.deadline */\n      0x40\n      add\n      mload\n        /* \"Smart Contracts/30_SimpleDexAggregatorOZ.sol\":14679:14873  IUniswapV2RouterLike(router).swapExactTokensForTokens(... */\n      mload(0x40)\n      dup8\n      0xffffffff\n      and\n      0xe0\n      shl\n      dup2\n      mstore\n      0x04\n      add\n      tag_447\n      swap7\n      swap6\n      swap5\n      swap4\n      swap3\n      swap2\n      swap1\n      tag_448\n      jump\t// in\n    tag_447:\n      0x00\n      mload(0x40)\n      dup1\n      dup4\n      sub\n      dup2\n      0x00\n      dup8\n      gas\n      call\n      iszero\n      dup1\n      iszero\n      tag_450\n      jumpi\n      returndatacopy(0x00, 0x00, returndatasize)\n      revert(0x00, returndatasize)\n    tag_450:\n      pop\n      pop\n      pop\n      pop\n      mload(0x40)\n      returndatasize\n      0x00\n      dup3\n      returndatacopy\n      0x1f\n      returndatasize\n      swap1\n      dup2\n      add\n      not(0x1f)\n      and\n      dup3\n      add\n      0x40\n      mstore\n      tag_451\n      swap2\n      swap1\n      dup2\n      add\n      swap1\n      tag_418\n      jump\t// in\n    tag_451:\n      pop\n        /* \"Smart Contracts/30_SimpleDexAggregatorOZ.sol\":14912:14924  ctx.tokenOut */\n      0x20\n      dup9\n      add\n      mload\n        /* \"Smart Contracts/30_SimpleDexAggregatorOZ.sol\":14905:14950  IERC20(ctx.tokenOut).balanceOf(address(this)) */\n      mload(0x40)\n      shl(0xe0, 0x70a08231)\n      dup2\n      mstore\n        /* \"Smart Contracts/30_SimpleDexAggregatorOZ.sol\":14944:14948  this */\n      address\n        /* \"Smart Contracts/30_SimpleDexAggregatorOZ.sol\":14905:14950  IERC20(ctx.tokenOut).balanceOf(address(this)) */\n      0x04\n      dup3\n      add\n        /* \"#utility.yul\":1964:2015   */\n      mstore\n        /* \"Smart Contracts/30_SimpleDexAggregatorOZ.sol\":14886:14902  uint256 afterOut */\n      0x00\n      swap2\n      sub(shl(0xa0, 0x01), 0x01)\n        /* \"Smart Contracts/30_SimpleDexAggregatorOZ.sol\":14905:14935  IERC20(ctx.tokenOut).balanceOf */\n      and\n      swap1\n      0x70a08231\n      swap1\n        /* \"#utility.yul\":1937:1955   */\n      0x24\n      add\n        /* \"Smart Contracts/30_SimpleDexAggregatorOZ.sol\":14905:14950  IERC20(ctx.tokenOut).balanceOf(address(this)) */\n      0x20\n      mload(0x40)\n      dup1\n      dup4\n      sub\n      dup2\n      dup7\n      gas\n      staticcall\n      iszero\n      dup1\n      iszero\n      tag_454\n      jumpi\n      returndatacopy(0x00, 0x00, returndatasize)\n      revert(0x00, returndatasize)\n    tag_454:\n      pop\n      pop\n      pop\n      pop\n      mload(0x40)\n      returndatasize\n      not(0x1f)\n      0x1f\n      dup3\n      add\n      and\n      dup3\n      add\n      dup1\n      0x40\n      mstore\n      pop\n      dup2\n      add\n      swap1\n      tag_455\n      swap2\n      swap1\n      tag_370\n      jump\t// in\n    tag_455:\n        /* \"Smart Contracts/30_SimpleDexAggregatorOZ.sol\":14886:14950  uint256 afterOut = IERC20(ctx.tokenOut).balanceOf(address(this)) */\n      swap1\n      pop\n        /* \"Smart Contracts/30_SimpleDexAggregatorOZ.sol\":14974:14994  afterOut - beforeOut */\n      tag_456\n        /* \"Smart Contracts/30_SimpleDexAggregatorOZ.sol\":14985:14994  beforeOut */\n      dup3\n        /* \"Smart Contracts/30_SimpleDexAggregatorOZ.sol\":14886:14950  uint256 afterOut = IERC20(ctx.tokenOut).balanceOf(address(this)) */\n      dup3\n        /* \"Smart Contracts/30_SimpleDexAggregatorOZ.sol\":14974:14994  afterOut - beforeOut */\n      tag_255\n      jump\t// in\n    tag_456:\n        /* \"Smart Contracts/30_SimpleDexAggregatorOZ.sol\":14961:14994  outPortion = afterOut - beforeOut */\n      swap10\n        /* \"Smart Contracts/30_SimpleDexAggregatorOZ.sol\":14261:15035  function _swapToSelf(... */\n      swap9\n      pop\n      pop\n      pop\n      pop\n      pop\n      pop\n      pop\n      pop\n      pop\n      jump\t// out\n        /* \"Smart Contracts/30_SimpleDexAggregatorOZ.sol\":13715:14036  function _takeFee(address tokenOut, uint256 amountOut) internal returns (uint256 fee, uint256 net) {... */\n    tag_393:\n        /* \"Smart Contracts/30_SimpleDexAggregatorOZ.sol\":13829:13843  protocolFeeBps */\n      sload(0x05)\n        /* \"Smart Contracts/30_SimpleDexAggregatorOZ.sol\":13788:13799  uint256 fee */\n      0x00\n      swap1\n      dup2\n      swap1\n        /* \"Smart Contracts/30_SimpleDexAggregatorOZ.sol\":13829:13843  protocolFeeBps */\n      0xffff\n      and\n        /* \"Smart Contracts/30_SimpleDexAggregatorOZ.sol\":13829:13848  protocolFeeBps == 0 */\n      dup2\n      sub\n        /* \"Smart Contracts/30_SimpleDexAggregatorOZ.sol\":13825:13871  if (protocolFeeBps == 0) return (0, amountOut) */\n      tag_458\n      jumpi\n      pop\n        /* \"Smart Contracts/30_SimpleDexAggregatorOZ.sol\":13858:13859  0 */\n      0x00\n      swap1\n      pop\n        /* \"Smart Contracts/30_SimpleDexAggregatorOZ.sol\":13861:13870  amountOut */\n      dup2\n        /* \"Smart Contracts/30_SimpleDexAggregatorOZ.sol\":13850:13871  return (0, amountOut) */\n      jump(tag_463)\n        /* \"Smart Contracts/30_SimpleDexAggregatorOZ.sol\":13825:13871  if (protocolFeeBps == 0) return (0, amountOut) */\n    tag_458:\n        /* \"Smart Contracts/30_SimpleDexAggregatorOZ.sol\":13901:13915  protocolFeeBps */\n      sload(0x05)\n        /* \"Smart Contracts/30_SimpleDexAggregatorOZ.sol\":13919:13924  10000 */\n      0x2710\n      swap1\n        /* \"Smart Contracts/30_SimpleDexAggregatorOZ.sol\":13889:13915  amountOut * protocolFeeBps */\n      tag_459\n      swap1\n        /* \"Smart Contracts/30_SimpleDexAggregatorOZ.sol\":13901:13915  protocolFeeBps */\n      0xffff\n      and\n        /* \"Smart Contracts/30_SimpleDexAggregatorOZ.sol\":13889:13898  amountOut */\n      dup6\n        /* \"Smart Contracts/30_SimpleDexAggregatorOZ.sol\":13889:13915  amountOut * protocolFeeBps */\n      tag_332\n      jump\t// in\n    tag_459:\n        /* \"Smart Contracts/30_SimpleDexAggregatorOZ.sol\":13888:13924  (amountOut * protocolFeeBps) / 10000 */\n      tag_460\n      swap2\n      swap1\n      tag_334\n      jump\t// in\n    tag_460:\n        /* \"Smart Contracts/30_SimpleDexAggregatorOZ.sol\":13882:13924  fee = (amountOut * protocolFeeBps) / 10000 */\n      swap2\n      pop\n        /* \"Smart Contracts/30_SimpleDexAggregatorOZ.sol\":13941:13956  amountOut - fee */\n      tag_461\n        /* \"Smart Contracts/30_SimpleDexAggregatorOZ.sol\":13882:13924  fee = (amountOut * protocolFeeBps) / 10000 */\n      dup3\n        /* \"Smart Contracts/30_SimpleDexAggregatorOZ.sol\":13941:13950  amountOut */\n      dup5\n        /* \"Smart Contracts/30_SimpleDexAggregatorOZ.sol\":13941:13956  amountOut - fee */\n      tag_255\n      jump\t// in\n    tag_461:\n        /* \"Smart Contracts/30_SimpleDexAggregatorOZ.sol\":13935:13956  net = amountOut - fee */\n      swap1\n      pop\n        /* \"Smart Contracts/30_SimpleDexAggregatorOZ.sol\":13971:13978  fee > 0 */\n      dup2\n      iszero\n        /* \"Smart Contracts/30_SimpleDexAggregatorOZ.sol\":13967:14028  if (fee > 0) IERC20(tokenOut).safeTransfer(feeRecipient, fee) */\n      tag_463\n      jumpi\n        /* \"Smart Contracts/30_SimpleDexAggregatorOZ.sol\":14010:14022  feeRecipient */\n      sload(0x05)\n        /* \"Smart Contracts/30_SimpleDexAggregatorOZ.sol\":13980:14028  IERC20(tokenOut).safeTransfer(feeRecipient, fee) */\n      tag_463\n      swap1\n      sub(shl(0xa0, 0x01), 0x01)\n        /* \"Smart Contracts/30_SimpleDexAggregatorOZ.sol\":13980:14009  IERC20(tokenOut).safeTransfer */\n      dup7\n      dup2\n      and\n      swap2\n        /* \"Smart Contracts/30_SimpleDexAggregatorOZ.sol\":14010:14022  feeRecipient */\n      0x010000\n      swap1\n      div\n      and\n        /* \"Smart Contracts/30_SimpleDexAggregatorOZ.sol\":14024:14027  fee */\n      dup5\n        /* \"Smart Contracts/30_SimpleDexAggregatorOZ.sol\":13980:14009  IERC20(tokenOut).safeTransfer */\n      tag_221\n        /* \"Smart Contracts/30_SimpleDexAggregatorOZ.sol\":13980:14028  IERC20(tokenOut).safeTransfer(feeRecipient, fee) */\n      jump\t// in\n    tag_463:\n        /* \"Smart Contracts/30_SimpleDexAggregatorOZ.sol\":13715:14036  function _takeFee(address tokenOut, uint256 amountOut) internal returns (uint256 fee, uint256 net) {... */\n      swap3\n      pop\n      swap3\n      swap1\n      pop\n      jump\t// out\n        /* \"Smart Contracts/30_SimpleDexAggregatorOZ.sol\":15098:15379  function _emitSwapBestSingle(... */\n    tag_396:\n        /* \"Smart Contracts/30_SimpleDexAggregatorOZ.sol\":15322:15333  ctx.tokenIn */\n      dup5\n      mload\n        /* \"Smart Contracts/30_SimpleDexAggregatorOZ.sol\":15335:15347  ctx.tokenOut */\n      0x20\n      dup1\n      dup8\n      add\n      mload\n        /* \"Smart Contracts/30_SimpleDexAggregatorOZ.sol\":15287:15371  SwapBestSingle(msg.sender, router, ctx.tokenIn, ctx.tokenOut, amountIn, netOut, fee) */\n      0x40\n      dup1\n      mload\n      sub(shl(0xa0, 0x01), 0x01)\n        /* \"#utility.yul\":17174:17206   */\n      swap5\n      dup6\n      and\n        /* \"#utility.yul\":17156:17207   */\n      dup2\n      mstore\n        /* \"#utility.yul\":17243:17275   */\n      swap2\n      dup5\n      and\n        /* \"#utility.yul\":17223:17241   */\n      swap3\n      dup3\n      add\n        /* \"#utility.yul\":17216:17276   */\n      swap3\n      swap1\n      swap3\n      mstore\n        /* \"#utility.yul\":17292:17310   */\n      swap1\n      dup2\n      add\n        /* \"#utility.yul\":17285:17319   */\n      dup6\n      swap1\n      mstore\n        /* \"#utility.yul\":17350:17352   */\n      0x60\n        /* \"#utility.yul\":17335:17353   */\n      dup2\n      add\n        /* \"#utility.yul\":17328:17362   */\n      dup5\n      swap1\n      mstore\n        /* \"#utility.yul\":17393:17396   */\n      0x80\n        /* \"#utility.yul\":17378:17397   */\n      dup2\n      add\n        /* \"#utility.yul\":17371:17406   */\n      dup4\n      swap1\n      mstore\n        /* \"Smart Contracts/30_SimpleDexAggregatorOZ.sol\":15287:15371  SwapBestSingle(msg.sender, router, ctx.tokenIn, ctx.tokenOut, amountIn, netOut, fee) */\n      swap1\n      dup6\n      and\n      swap1\n        /* \"Smart Contracts/30_SimpleDexAggregatorOZ.sol\":15302:15312  msg.sender */\n      caller\n      swap1\n        /* \"Smart Contracts/30_SimpleDexAggregatorOZ.sol\":15287:15371  SwapBestSingle(msg.sender, router, ctx.tokenIn, ctx.tokenOut, amountIn, netOut, fee) */\n      0xa3c755d4452dec05c2f66980b0a74a215e95dd31bef2194bebce30f397fb6e2e\n      swap1\n        /* \"#utility.yul\":17143:17146   */\n      0xa0\n        /* \"#utility.yul\":17128:17147   */\n      add\n        /* \"Smart Contracts/30_SimpleDexAggregatorOZ.sol\":15287:15371  SwapBestSingle(msg.sender, router, ctx.tokenIn, ctx.tokenOut, amountIn, netOut, fee) */\n      mload(0x40)\n      dup1\n      swap2\n      sub\n      swap1\n      log3\n        /* \"Smart Contracts/30_SimpleDexAggregatorOZ.sol\":15098:15379  function _emitSwapBestSingle(... */\n      pop\n      pop\n      pop\n      pop\n      pop\n      jump\t// out\n        /* \"Smart Contracts/30_SimpleDexAggregatorOZ.sol\":14044:14253  function _approveExact(address token, address spender, uint256 amount) internal {... */\n    tag_442:\n        /* \"@openzeppelin/contracts/token/ERC20/utils/SafeERC20.sol\":5199:5246  abi.encodeCall(token.approve, (spender, value)) */\n      0x40\n      dup1\n      mload\n      sub(shl(0xa0, 0x01), 0x01)\n        /* \"#utility.yul\":13581:13613   */\n      dup5\n      dup2\n      and\n        /* \"@openzeppelin/contracts/token/ERC20/utils/SafeERC20.sol\":5199:5246  abi.encodeCall(token.approve, (spender, value)) */\n      0x24\n      dup4\n      add\n        /* \"#utility.yul\":13563:13614   */\n      mstore\n        /* \"#utility.yul\":13630:13648   */\n      0x44\n      dup1\n      dup4\n      add\n        /* \"#utility.yul\":13623:13657   */\n      dup6\n      swap1\n      mstore\n        /* \"@openzeppelin/contracts/token/ERC20/utils/SafeERC20.sol\":5199:5246  abi.encodeCall(token.approve, (spender, value)) */\n      dup4\n      mload\n      dup1\n      dup5\n      sub\n      swap1\n      swap2\n      add\n      dup2\n      mstore\n        /* \"#utility.yul\":13536:13554   */\n      0x64\n      swap1\n      swap3\n      add\n        /* \"@openzeppelin/contracts/token/ERC20/utils/SafeERC20.sol\":5199:5246  abi.encodeCall(token.approve, (spender, value)) */\n      swap1\n      swap3\n      mstore\n      0x20\n      dup2\n      add\n      dup1\n      mload\n      sub(shl(0xe0, 0x01), 0x01)\n      and\n      shl(0xe0, 0x095ea7b3)\n      or\n      swap1\n      mstore\n        /* \"Smart Contracts/30_SimpleDexAggregatorOZ.sol\":14202:14245  IERC20(token).forceApprove(spender, amount) */\n      tag_220\n      swap2\n        /* \"Smart Contracts/30_SimpleDexAggregatorOZ.sol\":14202:14228  IERC20(token).forceApprove */\n      dup6\n      and\n      swap1\n        /* \"Smart Contracts/30_SimpleDexAggregatorOZ.sol\":14229:14236  spender */\n      dup5\n      swap1\n        /* \"Smart Contracts/30_SimpleDexAggregatorOZ.sol\":14238:14244  amount */\n      dup5\n      swap1\n        /* \"@openzeppelin/contracts/token/ERC20/utils/SafeERC20.sol\":5262:5306  _callOptionalReturnBool(token, approvalCall) */\n      tag_472\n        /* \"Smart Contracts/30_SimpleDexAggregatorOZ.sol\":14202:14228  IERC20(token).forceApprove */\n      dup5\n        /* \"@openzeppelin/contracts/token/ERC20/utils/SafeERC20.sol\":5199:5246  abi.encodeCall(token.approve, (spender, value)) */\n      dup3\n        /* \"@openzeppelin/contracts/token/ERC20/utils/SafeERC20.sol\":5262:5285  _callOptionalReturnBool */\n      tag_473\n        /* \"@openzeppelin/contracts/token/ERC20/utils/SafeERC20.sol\":5262:5306  _callOptionalReturnBool(token, approvalCall) */\n      jump\t// in\n    tag_472:\n        /* \"@openzeppelin/contracts/token/ERC20/utils/SafeERC20.sol\":5257:5458  if (!_callOptionalReturnBool(token, approvalCall)) {... */\n      tag_433\n      jumpi\n        /* \"@openzeppelin/contracts/token/ERC20/utils/SafeERC20.sol\":5349:5392  abi.encodeCall(token.approve, (spender, 0)) */\n      mload(0x40)\n      sub(shl(0xa0, 0x01), 0x01)\n        /* \"#utility.yul\":13581:13613   */\n      dup5\n      dup2\n      and\n        /* \"@openzeppelin/contracts/token/ERC20/utils/SafeERC20.sol\":5349:5392  abi.encodeCall(token.approve, (spender, 0)) */\n      0x24\n      dup4\n      add\n        /* \"#utility.yul\":13563:13614   */\n      mstore\n        /* \"@openzeppelin/contracts/token/ERC20/utils/SafeERC20.sol\":5389:5390  0 */\n      0x00\n        /* \"#utility.yul\":13630:13648   */\n      0x44\n      dup4\n      add\n        /* \"#utility.yul\":13623:13657   */\n      mstore\n        /* \"@openzeppelin/contracts/token/ERC20/utils/SafeERC20.sol\":5322:5393  _callOptionalReturn(token, abi.encodeCall(token.approve, (spender, 0))) */\n      tag_475\n      swap2\n        /* \"@openzeppelin/contracts/token/ERC20/utils/SafeERC20.sol\":5342:5347  token */\n      dup7\n      swap2\n        /* \"@openzeppelin/contracts/token/ERC20/utils/SafeERC20.sol\":5364:5377  token.approve */\n      dup3\n      and\n      swap1\n      0x095ea7b3\n      swap1\n        /* \"#utility.yul\":13536:13554   */\n      0x64\n      add\n        /* \"@openzeppelin/contracts/token/ERC20/utils/SafeERC20.sol\":5349:5392  abi.encodeCall(token.approve, (spender, 0)) */\n      tag_362\n        /* \"#utility.yul\":13389:13663   */\n      jump\n        /* \"@openzeppelin/contracts/token/ERC20/utils/SafeERC20.sol\":5322:5393  _callOptionalReturn(token, abi.encodeCall(token.approve, (spender, 0))) */\n    tag_475:\n        /* \"@openzeppelin/contracts/token/ERC20/utils/SafeERC20.sol\":5407:5447  _callOptionalReturn(token, approvalCall) */\n      tag_433\n        /* \"@openzeppelin/contracts/token/ERC20/utils/SafeERC20.sol\":5427:5432  token */\n      dup5\n        /* \"@openzeppelin/contracts/token/ERC20/utils/SafeERC20.sol\":5434:5446  approvalCall */\n      dup3\n        /* \"@openzeppelin/contracts/token/ERC20/utils/SafeERC20.sol\":5407:5426  _callOptionalReturn */\n      tag_364\n        /* \"@openzeppelin/contracts/token/ERC20/utils/SafeERC20.sol\":5407:5447  _callOptionalReturn(token, approvalCall) */\n      jump\t// in\n        /* \"@openzeppelin/contracts/token/ERC20/utils/SafeERC20.sol\":9592:10072  function _callOptionalReturnBool(IERC20 token, bytes memory data) private returns (bool) {... */\n    tag_473:\n        /* \"@openzeppelin/contracts/token/ERC20/utils/SafeERC20.sol\":9675:9679  bool */\n      0x00\n        /* \"@openzeppelin/contracts/token/ERC20/utils/SafeERC20.sol\":9691:9703  bool success */\n      0x00\n        /* \"@openzeppelin/contracts/token/ERC20/utils/SafeERC20.sol\":9713:9731  uint256 returnSize */\n      0x00\n        /* \"@openzeppelin/contracts/token/ERC20/utils/SafeERC20.sol\":9741:9760  uint256 returnValue */\n      0x00\n        /* \"@openzeppelin/contracts/token/ERC20/utils/SafeERC20.sol\":9875:9879  0x20 */\n      0x20\n        /* \"@openzeppelin/contracts/token/ERC20/utils/SafeERC20.sol\":9872:9873  0 */\n      0x00\n        /* \"@openzeppelin/contracts/token/ERC20/utils/SafeERC20.sol\":9865:9869  data */\n      dup7\n        /* \"@openzeppelin/contracts/token/ERC20/utils/SafeERC20.sol\":9859:9870  mload(data) */\n      mload\n        /* \"@openzeppelin/contracts/token/ERC20/utils/SafeERC20.sol\":9852:9856  0x20 */\n      0x20\n        /* \"@openzeppelin/contracts/token/ERC20/utils/SafeERC20.sol\":9846:9850  data */\n      dup9\n        /* \"@openzeppelin/contracts/token/ERC20/utils/SafeERC20.sol\":9842:9857  add(data, 0x20) */\n      add\n        /* \"@openzeppelin/contracts/token/ERC20/utils/SafeERC20.sol\":9839:9840  0 */\n      0x00\n        /* \"@openzeppelin/contracts/token/ERC20/utils/SafeERC20.sol\":9832:9837  token */\n      dup11\n        /* \"@openzeppelin/contracts/token/ERC20/utils/SafeERC20.sol\":9825:9830  gas() */\n      gas\n        /* \"@openzeppelin/contracts/token/ERC20/utils/SafeERC20.sol\":9820:9880  call(gas(), token, 0, add(data, 0x20), mload(data), 0, 0x20) */\n      call\n        /* \"@openzeppelin/contracts/token/ERC20/utils/SafeERC20.sol\":9809:9880  success := call(gas(), token, 0, add(data, 0x20), mload(data), 0, 0x20) */\n      swap3\n      pop\n        /* \"@openzeppelin/contracts/token/ERC20/utils/SafeERC20.sol\":9907:9923  returndatasize() */\n      returndatasize\n        /* \"@openzeppelin/contracts/token/ERC20/utils/SafeERC20.sol\":9893:9923  returnSize := returndatasize() */\n      swap2\n      pop\n        /* \"@openzeppelin/contracts/token/ERC20/utils/SafeERC20.sol\":9957:9958  0 */\n      0x00\n        /* \"@openzeppelin/contracts/token/ERC20/utils/SafeERC20.sol\":9951:9959  mload(0) */\n      mload\n        /* \"@openzeppelin/contracts/token/ERC20/utils/SafeERC20.sol\":9936:9959  returnValue := mload(0) */\n      swap1\n      pop\n        /* \"@openzeppelin/contracts/token/ERC20/utils/SafeERC20.sol\":9985:9992  success */\n      dup3\n        /* \"@openzeppelin/contracts/token/ERC20/utils/SafeERC20.sol\":9985:10065  success && (returnSize == 0 ? address(token).code.length > 0 : returnValue == 1) */\n      dup1\n      iszero\n      tag_482\n      jumpi\n      pop\n        /* \"@openzeppelin/contracts/token/ERC20/utils/SafeERC20.sol\":9997:10012  returnSize == 0 */\n      dup2\n      iszero\n        /* \"@openzeppelin/contracts/token/ERC20/utils/SafeERC20.sol\":9997:10064  returnSize == 0 ? address(token).code.length > 0 : returnValue == 1 */\n      tag_481\n      jumpi\n        /* \"@openzeppelin/contracts/token/ERC20/utils/SafeERC20.sol\":10048:10059  returnValue */\n      dup1\n        /* \"@openzeppelin/contracts/token/ERC20/utils/SafeERC20.sol\":10063:10064  1 */\n      0x01\n        /* \"@openzeppelin/contracts/token/ERC20/utils/SafeERC20.sol\":10048:10064  returnValue == 1 */\n      eq\n        /* \"@openzeppelin/contracts/token/ERC20/utils/SafeERC20.sol\":9997:10064  returnSize == 0 ? address(token).code.length > 0 : returnValue == 1 */\n      jump(tag_482)\n    tag_481:\n        /* \"@openzeppelin/contracts/token/ERC20/utils/SafeERC20.sol\":10044:10045  0 */\n      0x00\n        /* \"@openzeppelin/contracts/token/ERC20/utils/SafeERC20.sol\":10023:10028  token */\n      dup7\n      sub(shl(0xa0, 0x01), 0x01)\n        /* \"@openzeppelin/contracts/token/ERC20/utils/SafeERC20.sol\":10015:10041  address(token).code.length */\n      and\n      extcodesize\n        /* \"@openzeppelin/contracts/token/ERC20/utils/SafeERC20.sol\":10015:10045  address(token).code.length > 0 */\n      gt\n        /* \"@openzeppelin/contracts/token/ERC20/utils/SafeERC20.sol\":9997:10064  returnSize == 0 ? address(token).code.length > 0 : returnValue == 1 */\n    tag_482:\n        /* \"@openzeppelin/contracts/token/ERC20/utils/SafeERC20.sol\":9978:10065  return success && (returnSize == 0 ? address(token).code.length > 0 : returnValue == 1) */\n      swap4\n      pop\n      pop\n      pop\n      pop\n        /* \"@openzeppelin/contracts/token/ERC20/utils/SafeERC20.sol\":9592:10072  function _callOptionalReturnBool(IERC20 token, bytes memory data) private returns (bool) {... */\n    tag_479:\n      swap3\n      swap2\n      pop\n      pop\n      jump\t// out\n        /* \"#utility.yul\":348:521   */\n    tag_483:\n        /* \"#utility.yul\":416:436   */\n      dup1\n      calldataload\n      sub(shl(0xa0, 0x01), 0x01)\n        /* \"#utility.yul\":465:496   */\n      dup2\n      and\n        /* \"#utility.yul\":455:497   */\n      dup2\n      eq\n        /* \"#utility.yul\":445:515   */\n      tag_491\n      jumpi\n        /* \"#utility.yul\":511:512   */\n      0x00\n        /* \"#utility.yul\":508:509   */\n      0x00\n        /* \"#utility.yul\":501:513   */\n      revert\n        /* \"#utility.yul\":445:515   */\n    tag_491:\n        /* \"#utility.yul\":348:521   */\n      swap2\n      swap1\n      pop\n      jump\t// out\n        /* \"#utility.yul\":526:712   */\n    tag_35:\n        /* \"#utility.yul\":585:591   */\n      0x00\n        /* \"#utility.yul\":638:640   */\n      0x20\n        /* \"#utility.yul\":626:635   */\n      dup3\n        /* \"#utility.yul\":617:624   */\n      dup5\n        /* \"#utility.yul\":613:636   */\n      sub\n        /* \"#utility.yul\":609:641   */\n      slt\n        /* \"#utility.yul\":606:658   */\n      iszero\n      tag_493\n      jumpi\n        /* \"#utility.yul\":654:655   */\n      0x00\n        /* \"#utility.yul\":651:652   */\n      0x00\n        /* \"#utility.yul\":644:656   */\n      revert\n        /* \"#utility.yul\":606:658   */\n    tag_493:\n        /* \"#utility.yul\":677:706   */\n      tag_494\n        /* \"#utility.yul\":696:705   */\n      dup3\n        /* \"#utility.yul\":677:706   */\n      tag_483\n      jump\t// in\n    tag_494:\n        /* \"#utility.yul\":667:706   */\n      swap4\n        /* \"#utility.yul\":526:712   */\n      swap3\n      pop\n      pop\n      pop\n      jump\t// out\n        /* \"#utility.yul\":922:1268   */\n    tag_42:\n        /* \"#utility.yul\":989:995   */\n      0x00\n        /* \"#utility.yul\":997:1003   */\n      0x00\n        /* \"#utility.yul\":1050:1052   */\n      0x40\n        /* \"#utility.yul\":1038:1047   */\n      dup4\n        /* \"#utility.yul\":1029:1036   */\n      dup6\n        /* \"#utility.yul\":1025:1048   */\n      sub\n        /* \"#utility.yul\":1021:1053   */\n      slt\n        /* \"#utility.yul\":1018:1070   */\n      iszero\n      tag_497\n      jumpi\n        /* \"#utility.yul\":1066:1067   */\n      0x00\n        /* \"#utility.yul\":1063:1064   */\n      0x00\n        /* \"#utility.yul\":1056:1068   */\n      revert\n        /* \"#utility.yul\":1018:1070   */\n    tag_497:\n        /* \"#utility.yul\":1089:1118   */\n      tag_498\n        /* \"#utility.yul\":1108:1117   */\n      dup4\n        /* \"#utility.yul\":1089:1118   */\n      tag_483\n      jump\t// in\n    tag_498:\n        /* \"#utility.yul\":1079:1118   */\n      swap2\n      pop\n        /* \"#utility.yul\":1168:1170   */\n      0x20\n        /* \"#utility.yul\":1157:1166   */\n      dup4\n        /* \"#utility.yul\":1153:1171   */\n      add\n        /* \"#utility.yul\":1140:1172   */\n      calldataload\n        /* \"#utility.yul\":1212:1218   */\n      0xffff\n        /* \"#utility.yul\":1205:1210   */\n      dup2\n        /* \"#utility.yul\":1201:1219   */\n      and\n        /* \"#utility.yul\":1194:1199   */\n      dup2\n        /* \"#utility.yul\":1191:1220   */\n      eq\n        /* \"#utility.yul\":1181:1238   */\n      tag_499\n      jumpi\n        /* \"#utility.yul\":1234:1235   */\n      0x00\n        /* \"#utility.yul\":1231:1232   */\n      0x00\n        /* \"#utility.yul\":1224:1236   */\n      revert\n        /* \"#utility.yul\":1181:1238   */\n    tag_499:\n        /* \"#utility.yul\":1257:1262   */\n      dup1\n        /* \"#utility.yul\":1247:1262   */\n      swap2\n      pop\n      pop\n        /* \"#utility.yul\":922:1268   */\n      swap3\n      pop\n      swap3\n      swap1\n      pop\n      jump\t// out\n        /* \"#utility.yul\":1466:1813   */\n    tag_52:\n        /* \"#utility.yul\":1531:1537   */\n      0x00\n        /* \"#utility.yul\":1539:1545   */\n      0x00\n        /* \"#utility.yul\":1592:1594   */\n      0x40\n        /* \"#utility.yul\":1580:1589   */\n      dup4\n        /* \"#utility.yul\":1571:1578   */\n      dup6\n        /* \"#utility.yul\":1567:1590   */\n      sub\n        /* \"#utility.yul\":1563:1595   */\n      slt\n        /* \"#utility.yul\":1560:1612   */\n      iszero\n      tag_502\n      jumpi\n        /* \"#utility.yul\":1608:1609   */\n      0x00\n        /* \"#utility.yul\":1605:1606   */\n      0x00\n        /* \"#utility.yul\":1598:1610   */\n      revert\n        /* \"#utility.yul\":1560:1612   */\n    tag_502:\n        /* \"#utility.yul\":1631:1660   */\n      tag_503\n        /* \"#utility.yul\":1650:1659   */\n      dup4\n        /* \"#utility.yul\":1631:1660   */\n      tag_483\n      jump\t// in\n    tag_503:\n        /* \"#utility.yul\":1621:1660   */\n      swap2\n      pop\n        /* \"#utility.yul\":1710:1712   */\n      0x20\n        /* \"#utility.yul\":1699:1708   */\n      dup4\n        /* \"#utility.yul\":1695:1713   */\n      add\n        /* \"#utility.yul\":1682:1714   */\n      calldataload\n        /* \"#utility.yul\":1757:1762   */\n      dup1\n        /* \"#utility.yul\":1750:1763   */\n      iszero\n        /* \"#utility.yul\":1743:1764   */\n      iszero\n        /* \"#utility.yul\":1736:1741   */\n      dup2\n        /* \"#utility.yul\":1733:1765   */\n      eq\n        /* \"#utility.yul\":1723:1783   */\n      tag_499\n      jumpi\n        /* \"#utility.yul\":1779:1780   */\n      0x00\n        /* \"#utility.yul\":1776:1777   */\n      0x00\n        /* \"#utility.yul\":1769:1781   */\n      revert\n        /* \"#utility.yul\":2026:2393   */\n    tag_484:\n        /* \"#utility.yul\":2089:2097   */\n      0x00\n        /* \"#utility.yul\":2099:2105   */\n      0x00\n        /* \"#utility.yul\":2153:2156   */\n      dup4\n        /* \"#utility.yul\":2146:2150   */\n      0x1f\n        /* \"#utility.yul\":2138:2144   */\n      dup5\n        /* \"#utility.yul\":2134:2151   */\n      add\n        /* \"#utility.yul\":2130:2157   */\n      slt\n        /* \"#utility.yul\":2120:2175   */\n      tag_507\n      jumpi\n        /* \"#utility.yul\":2171:2172   */\n      0x00\n        /* \"#utility.yul\":2168:2169   */\n      0x00\n        /* \"#utility.yul\":2161:2173   */\n      revert\n        /* \"#utility.yul\":2120:2175   */\n    tag_507:\n      pop\n        /* \"#utility.yul\":2194:2214   */\n      dup2\n      calldataload\n      sub(shl(0x40, 0x01), 0x01)\n        /* \"#utility.yul\":2226:2256   */\n      dup2\n      gt\n        /* \"#utility.yul\":2223:2273   */\n      iszero\n      tag_508\n      jumpi\n        /* \"#utility.yul\":2269:2270   */\n      0x00\n        /* \"#utility.yul\":2266:2267   */\n      0x00\n        /* \"#utility.yul\":2259:2271   */\n      revert\n        /* \"#utility.yul\":2223:2273   */\n    tag_508:\n        /* \"#utility.yul\":2306:2310   */\n      0x20\n        /* \"#utility.yul\":2298:2304   */\n      dup4\n        /* \"#utility.yul\":2294:2311   */\n      add\n        /* \"#utility.yul\":2282:2311   */\n      swap2\n      pop\n        /* \"#utility.yul\":2366:2369   */\n      dup4\n        /* \"#utility.yul\":2359:2363   */\n      0x20\n        /* \"#utility.yul\":2349:2355   */\n      dup3\n        /* \"#utility.yul\":2346:2347   */\n      0x05\n        /* \"#utility.yul\":2342:2356   */\n      shl\n        /* \"#utility.yul\":2334:2340   */\n      dup6\n        /* \"#utility.yul\":2330:2357   */\n      add\n        /* \"#utility.yul\":2326:2364   */\n      add\n        /* \"#utility.yul\":2323:2370   */\n      gt\n        /* \"#utility.yul\":2320:2387   */\n      iszero\n      tag_463\n      jumpi\n        /* \"#utility.yul\":2383:2384   */\n      0x00\n        /* \"#utility.yul\":2380:2381   */\n      0x00\n        /* \"#utility.yul\":2373:2385   */\n      revert\n        /* \"#utility.yul\":2398:3280   */\n    tag_65:\n        /* \"#utility.yul\":2529:2535   */\n      0x00\n        /* \"#utility.yul\":2537:2543   */\n      0x00\n        /* \"#utility.yul\":2545:2551   */\n      0x00\n        /* \"#utility.yul\":2553:2559   */\n      0x00\n        /* \"#utility.yul\":2561:2567   */\n      0x00\n        /* \"#utility.yul\":2614:2616   */\n      0x60\n        /* \"#utility.yul\":2602:2611   */\n      dup7\n        /* \"#utility.yul\":2593:2600   */\n      dup9\n        /* \"#utility.yul\":2589:2612   */\n      sub\n        /* \"#utility.yul\":2585:2617   */\n      slt\n        /* \"#utility.yul\":2582:2634   */\n      iszero\n      tag_511\n      jumpi\n        /* \"#utility.yul\":2630:2631   */\n      0x00\n        /* \"#utility.yul\":2627:2628   */\n      0x00\n        /* \"#utility.yul\":2620:2632   */\n      revert\n        /* \"#utility.yul\":2582:2634   */\n    tag_511:\n        /* \"#utility.yul\":2675:2698   */\n      dup6\n      calldataload\n      swap5\n      pop\n        /* \"#utility.yul\":2773:2775   */\n      0x20\n        /* \"#utility.yul\":2758:2776   */\n      dup7\n      add\n        /* \"#utility.yul\":2745:2777   */\n      calldataload\n      sub(shl(0x40, 0x01), 0x01)\n        /* \"#utility.yul\":2789:2819   */\n      dup2\n      gt\n        /* \"#utility.yul\":2786:2836   */\n      iszero\n      tag_512\n      jumpi\n        /* \"#utility.yul\":2832:2833   */\n      0x00\n        /* \"#utility.yul\":2829:2830   */\n      0x00\n        /* \"#utility.yul\":2822:2834   */\n      revert\n        /* \"#utility.yul\":2786:2836   */\n    tag_512:\n        /* \"#utility.yul\":2871:2941   */\n      tag_513\n        /* \"#utility.yul\":2933:2940   */\n      dup9\n        /* \"#utility.yul\":2924:2930   */\n      dup3\n        /* \"#utility.yul\":2913:2922   */\n      dup10\n        /* \"#utility.yul\":2909:2931   */\n      add\n        /* \"#utility.yul\":2871:2941   */\n      tag_484\n      jump\t// in\n    tag_513:\n        /* \"#utility.yul\":2960:2968   */\n      swap1\n      swap6\n      pop\n        /* \"#utility.yul\":2845:2941   */\n      swap4\n      pop\n      pop\n        /* \"#utility.yul\":3048:3050   */\n      0x40\n        /* \"#utility.yul\":3033:3051   */\n      dup7\n      add\n        /* \"#utility.yul\":3020:3052   */\n      calldataload\n      sub(shl(0x40, 0x01), 0x01)\n        /* \"#utility.yul\":3064:3096   */\n      dup2\n      gt\n        /* \"#utility.yul\":3061:3113   */\n      iszero\n      tag_514\n      jumpi\n        /* \"#utility.yul\":3109:3110   */\n      0x00\n        /* \"#utility.yul\":3106:3107   */\n      0x00\n        /* \"#utility.yul\":3099:3111   */\n      revert\n        /* \"#utility.yul\":3061:3113   */\n    tag_514:\n        /* \"#utility.yul\":3148:3220   */\n      tag_515\n        /* \"#utility.yul\":3212:3219   */\n      dup9\n        /* \"#utility.yul\":3201:3209   */\n      dup3\n        /* \"#utility.yul\":3190:3199   */\n      dup10\n        /* \"#utility.yul\":3186:3210   */\n      add\n        /* \"#utility.yul\":3148:3220   */\n      tag_484\n      jump\t// in\n    tag_515:\n        /* \"#utility.yul\":2398:3280   */\n      swap7\n      swap10\n      swap6\n      swap9\n      pop\n      swap4\n      swap7\n      pop\n        /* \"#utility.yul\":3239:3247   */\n      swap3\n      swap5\n        /* \"#utility.yul\":3122:3220   */\n      swap4\n        /* \"#utility.yul\":2398:3280   */\n      swap3\n      pop\n      pop\n      pop\n      jump\t// out\n        /* \"#utility.yul\":3826:4052   */\n    tag_72:\n        /* \"#utility.yul\":3885:3891   */\n      0x00\n        /* \"#utility.yul\":3938:3940   */\n      0x20\n        /* \"#utility.yul\":3926:3935   */\n      dup3\n        /* \"#utility.yul\":3917:3924   */\n      dup5\n        /* \"#utility.yul\":3913:3936   */\n      sub\n        /* \"#utility.yul\":3909:3941   */\n      slt\n        /* \"#utility.yul\":3906:3958   */\n      iszero\n      tag_518\n      jumpi\n        /* \"#utility.yul\":3954:3955   */\n      0x00\n        /* \"#utility.yul\":3951:3952   */\n      0x00\n        /* \"#utility.yul\":3944:3956   */\n      revert\n        /* \"#utility.yul\":3906:3958   */\n    tag_518:\n      pop\n        /* \"#utility.yul\":3999:4022   */\n      calldataload\n      swap2\n        /* \"#utility.yul\":3826:4052   */\n      swap1\n      pop\n      jump\t// out\n        /* \"#utility.yul\":4249:5494   */\n    tag_82:\n        /* \"#utility.yul\":4407:4413   */\n      0x00\n        /* \"#utility.yul\":4415:4421   */\n      0x00\n        /* \"#utility.yul\":4423:4429   */\n      0x00\n        /* \"#utility.yul\":4431:4437   */\n      0x00\n        /* \"#utility.yul\":4439:4445   */\n      0x00\n        /* \"#utility.yul\":4447:4453   */\n      0x00\n        /* \"#utility.yul\":4455:4461   */\n      0x00\n        /* \"#utility.yul\":4463:4469   */\n      0x00\n        /* \"#utility.yul\":4516:4519   */\n      0xc0\n        /* \"#utility.yul\":4504:4513   */\n      dup10\n        /* \"#utility.yul\":4495:4502   */\n      dup12\n        /* \"#utility.yul\":4491:4514   */\n      sub\n        /* \"#utility.yul\":4487:4520   */\n      slt\n        /* \"#utility.yul\":4484:4537   */\n      iszero\n      tag_521\n      jumpi\n        /* \"#utility.yul\":4533:4534   */\n      0x00\n        /* \"#utility.yul\":4530:4531   */\n      0x00\n        /* \"#utility.yul\":4523:4535   */\n      revert\n        /* \"#utility.yul\":4484:4537   */\n    tag_521:\n        /* \"#utility.yul\":4578:4601   */\n      dup9\n      calldataload\n      swap8\n      pop\n        /* \"#utility.yul\":4698:4700   */\n      0x20\n        /* \"#utility.yul\":4683:4701   */\n      dup10\n      add\n        /* \"#utility.yul\":4670:4702   */\n      calldataload\n      swap7\n      pop\n        /* \"#utility.yul\":4779:4781   */\n      0x40\n        /* \"#utility.yul\":4764:4782   */\n      dup10\n      add\n        /* \"#utility.yul\":4751:4783   */\n      calldataload\n      sub(shl(0x40, 0x01), 0x01)\n        /* \"#utility.yul\":4795:4825   */\n      dup2\n      gt\n        /* \"#utility.yul\":4792:4842   */\n      iszero\n      tag_522\n      jumpi\n        /* \"#utility.yul\":4838:4839   */\n      0x00\n        /* \"#utility.yul\":4835:4836   */\n      0x00\n        /* \"#utility.yul\":4828:4840   */\n      revert\n        /* \"#utility.yul\":4792:4842   */\n    tag_522:\n        /* \"#utility.yul\":4877:4947   */\n      tag_523\n        /* \"#utility.yul\":4939:4946   */\n      dup12\n        /* \"#utility.yul\":4930:4936   */\n      dup3\n        /* \"#utility.yul\":4919:4928   */\n      dup13\n        /* \"#utility.yul\":4915:4937   */\n      add\n        /* \"#utility.yul\":4877:4947   */\n      tag_484\n      jump\t// in\n    tag_523:\n        /* \"#utility.yul\":4966:4974   */\n      swap1\n      swap8\n      pop\n        /* \"#utility.yul\":4851:4947   */\n      swap6\n      pop\n      pop\n        /* \"#utility.yul\":5054:5056   */\n      0x60\n        /* \"#utility.yul\":5039:5057   */\n      dup10\n      add\n        /* \"#utility.yul\":5026:5058   */\n      calldataload\n      sub(shl(0x40, 0x01), 0x01)\n        /* \"#utility.yul\":5070:5102   */\n      dup2\n      gt\n        /* \"#utility.yul\":5067:5119   */\n      iszero\n      tag_524\n      jumpi\n        /* \"#utility.yul\":5115:5116   */\n      0x00\n        /* \"#utility.yul\":5112:5113   */\n      0x00\n        /* \"#utility.yul\":5105:5117   */\n      revert\n        /* \"#utility.yul\":5067:5119   */\n    tag_524:\n        /* \"#utility.yul\":5154:5226   */\n      tag_525\n        /* \"#utility.yul\":5218:5225   */\n      dup12\n        /* \"#utility.yul\":5207:5215   */\n      dup3\n        /* \"#utility.yul\":5196:5205   */\n      dup13\n        /* \"#utility.yul\":5192:5216   */\n      add\n        /* \"#utility.yul\":5154:5226   */\n      tag_484\n      jump\t// in\n    tag_525:\n        /* \"#utility.yul\":4249:5494   */\n      swap10\n      swap13\n      swap9\n      swap12\n      pop\n      swap7\n      swap10\n      swap6\n      swap9\n        /* \"#utility.yul\":5245:5253   */\n      swap7\n      swap8\n        /* \"#utility.yul\":5353:5356   */\n      0x80\n        /* \"#utility.yul\":5338:5357   */\n      dup8\n      add\n        /* \"#utility.yul\":5325:5358   */\n      calldataload\n      swap7\n        /* \"#utility.yul\":5457:5460   */\n      0xa0\n        /* \"#utility.yul\":5442:5461   */\n      add\n        /* \"#utility.yul\":5429:5462   */\n      calldataload\n      swap6\n      pop\n        /* \"#utility.yul\":4249:5494   */\n      swap4\n      pop\n      pop\n      pop\n      pop\n      jump\t// out\n        /* \"#utility.yul\":5681:6055   */\n    tag_115:\n        /* \"#utility.yul\":5758:5764   */\n      0x00\n        /* \"#utility.yul\":5766:5772   */\n      0x00\n        /* \"#utility.yul\":5774:5780   */\n      0x00\n        /* \"#utility.yul\":5827:5829   */\n      0x60\n        /* \"#utility.yul\":5815:5824   */\n      dup5\n        /* \"#utility.yul\":5806:5813   */\n      dup7\n        /* \"#utility.yul\":5802:5825   */\n      sub\n        /* \"#utility.yul\":5798:5830   */\n      slt\n        /* \"#utility.yul\":5795:5847   */\n      iszero\n      tag_528\n      jumpi\n        /* \"#utility.yul\":5843:5844   */\n      0x00\n        /* \"#utility.yul\":5840:5841   */\n      0x00\n        /* \"#utility.yul\":5833:5845   */\n      revert\n        /* \"#utility.yul\":5795:5847   */\n    tag_528:\n        /* \"#utility.yul\":5866:5895   */\n      tag_529\n        /* \"#utility.yul\":5885:5894   */\n      dup5\n        /* \"#utility.yul\":5866:5895   */\n      tag_483\n      jump\t// in\n    tag_529:\n        /* \"#utility.yul\":5856:5895   */\n      swap3\n      pop\n        /* \"#utility.yul\":5914:5952   */\n      tag_530\n        /* \"#utility.yul\":5948:5950   */\n      0x20\n        /* \"#utility.yul\":5937:5946   */\n      dup6\n        /* \"#utility.yul\":5933:5951   */\n      add\n        /* \"#utility.yul\":5914:5952   */\n      tag_483\n      jump\t// in\n    tag_530:\n        /* \"#utility.yul\":5681:6055   */\n      swap3\n      swap6\n        /* \"#utility.yul\":5904:5952   */\n      swap3\n      swap5\n      pop\n      pop\n      pop\n        /* \"#utility.yul\":6021:6023   */\n      0x40\n        /* \"#utility.yul\":6006:6024   */\n      swap2\n      swap1\n      swap2\n      add\n        /* \"#utility.yul\":5993:6025   */\n      calldataload\n      swap1\n        /* \"#utility.yul\":5681:6055   */\n      jump\t// out\n        /* \"#utility.yul\":6060:7184   */\n    tag_124:\n        /* \"#utility.yul\":6209:6215   */\n      0x00\n        /* \"#utility.yul\":6217:6223   */\n      0x00\n        /* \"#utility.yul\":6225:6231   */\n      0x00\n        /* \"#utility.yul\":6233:6239   */\n      0x00\n        /* \"#utility.yul\":6241:6247   */\n      0x00\n        /* \"#utility.yul\":6249:6255   */\n      0x00\n        /* \"#utility.yul\":6257:6263   */\n      0x00\n        /* \"#utility.yul\":6310:6313   */\n      0xa0\n        /* \"#utility.yul\":6298:6307   */\n      dup9\n        /* \"#utility.yul\":6289:6296   */\n      dup11\n        /* \"#utility.yul\":6285:6308   */\n      sub\n        /* \"#utility.yul\":6281:6314   */\n      slt\n        /* \"#utility.yul\":6278:6331   */\n      iszero\n      tag_532\n      jumpi\n        /* \"#utility.yul\":6327:6328   */\n      0x00\n        /* \"#utility.yul\":6324:6325   */\n      0x00\n        /* \"#utility.yul\":6317:6329   */\n      revert\n        /* \"#utility.yul\":6278:6331   */\n    tag_532:\n        /* \"#utility.yul\":6372:6395   */\n      dup8\n      calldataload\n      swap7\n      pop\n        /* \"#utility.yul\":6492:6494   */\n      0x20\n        /* \"#utility.yul\":6477:6495   */\n      dup9\n      add\n        /* \"#utility.yul\":6464:6496   */\n      calldataload\n      swap6\n      pop\n        /* \"#utility.yul\":6573:6575   */\n      0x40\n        /* \"#utility.yul\":6558:6576   */\n      dup9\n      add\n        /* \"#utility.yul\":6545:6577   */\n      calldataload\n      sub(shl(0x40, 0x01), 0x01)\n        /* \"#utility.yul\":6589:6619   */\n      dup2\n      gt\n        /* \"#utility.yul\":6586:6636   */\n      iszero\n      tag_533\n      jumpi\n        /* \"#utility.yul\":6632:6633   */\n      0x00\n        /* \"#utility.yul\":6629:6630   */\n      0x00\n        /* \"#utility.yul\":6622:6634   */\n      revert\n        /* \"#utility.yul\":6586:6636   */\n    tag_533:\n        /* \"#utility.yul\":6671:6741   */\n      tag_534\n        /* \"#utility.yul\":6733:6740   */\n      dup11\n        /* \"#utility.yul\":6724:6730   */\n      dup3\n        /* \"#utility.yul\":6713:6722   */\n      dup12\n        /* \"#utility.yul\":6709:6731   */\n      add\n        /* \"#utility.yul\":6671:6741   */\n      tag_484\n      jump\t// in\n    tag_534:\n        /* \"#utility.yul\":6760:6768   */\n      swap1\n      swap7\n      pop\n        /* \"#utility.yul\":6645:6741   */\n      swap5\n      pop\n      pop\n        /* \"#utility.yul\":6848:6850   */\n      0x60\n        /* \"#utility.yul\":6833:6851   */\n      dup9\n      add\n        /* \"#utility.yul\":6820:6852   */\n      calldataload\n      sub(shl(0x40, 0x01), 0x01)\n        /* \"#utility.yul\":6864:6896   */\n      dup2\n      gt\n        /* \"#utility.yul\":6861:6913   */\n      iszero\n      tag_535\n      jumpi\n        /* \"#utility.yul\":6909:6910   */\n      0x00\n        /* \"#utility.yul\":6906:6907   */\n      0x00\n        /* \"#utility.yul\":6899:6911   */\n      revert\n        /* \"#utility.yul\":6861:6913   */\n    tag_535:\n        /* \"#utility.yul\":6948:7020   */\n      tag_536\n        /* \"#utility.yul\":7012:7019   */\n      dup11\n        /* \"#utility.yul\":7001:7009   */\n      dup3\n        /* \"#utility.yul\":6990:6999   */\n      dup12\n        /* \"#utility.yul\":6986:7010   */\n      add\n        /* \"#utility.yul\":6948:7020   */\n      tag_484\n      jump\t// in\n    tag_536:\n        /* \"#utility.yul\":6060:7184   */\n      swap9\n      swap12\n      swap8\n      swap11\n      pop\n      swap6\n      swap9\n      swap5\n      swap8\n      swap6\n      swap7\n        /* \"#utility.yul\":7147:7150   */\n      0x80\n        /* \"#utility.yul\":7132:7151   */\n      swap1\n      swap6\n      add\n        /* \"#utility.yul\":7119:7152   */\n      calldataload\n      swap5\n        /* \"#utility.yul\":6060:7184   */\n      swap4\n      pop\n      pop\n      pop\n      pop\n      jump\t// out\n        /* \"#utility.yul\":8738:9168   */\n    tag_485:\n        /* \"#utility.yul\":8838:8844   */\n      dup2\n        /* \"#utility.yul\":8833:8836   */\n      dup4\n        /* \"#utility.yul\":8826:8845   */\n      mstore\n        /* \"#utility.yul\":8870:8874   */\n      0x20\n        /* \"#utility.yul\":8865:8868   */\n      dup4\n        /* \"#utility.yul\":8861:8875   */\n      add\n        /* \"#utility.yul\":8854:8875   */\n      swap3\n      pop\n        /* \"#utility.yul\":8808:8811   */\n      0x00\n        /* \"#utility.yul\":8898:8903   */\n      dup2\n        /* \"#utility.yul\":8921:8922   */\n      0x00\n        /* \"#utility.yul\":8931:9143   */\n    tag_543:\n        /* \"#utility.yul\":8945:8951   */\n      dup5\n        /* \"#utility.yul\":8942:8943   */\n      dup2\n        /* \"#utility.yul\":8939:8952   */\n      lt\n        /* \"#utility.yul\":8931:9143   */\n      iszero\n      tag_545\n      jumpi\n      sub(shl(0xa0, 0x01), 0x01)\n        /* \"#utility.yul\":9010:9036   */\n      tag_546\n        /* \"#utility.yul\":9029:9035   */\n      dup4\n        /* \"#utility.yul\":9010:9036   */\n      tag_483\n      jump\t// in\n    tag_546:\n        /* \"#utility.yul\":9006:9058   */\n      and\n        /* \"#utility.yul\":8994:9059   */\n      dup7\n      mstore\n        /* \"#utility.yul\":9088:9092   */\n      0x20\n        /* \"#utility.yul\":9079:9093   */\n      swap6\n      dup7\n      add\n      swap6\n        /* \"#utility.yul\":9116:9133   */\n      swap2\n      swap1\n      swap2\n      add\n      swap1\n        /* \"#utility.yul\":8967:8968   */\n      0x01\n        /* \"#utility.yul\":8960:8969   */\n      add\n        /* \"#utility.yul\":8931:9143   */\n      jump(tag_543)\n    tag_545:\n      pop\n        /* \"#utility.yul\":9159:9162   */\n      swap4\n      swap5\n        /* \"#utility.yul\":8738:9168   */\n      swap4\n      pop\n      pop\n      pop\n      pop\n      jump\t// out\n        /* \"#utility.yul\":9173:10078   */\n    tag_185:\n        /* \"#utility.yul\":9619:9620   */\n      0x01\n        /* \"#utility.yul\":9615:9616   */\n      dup1\n        /* \"#utility.yul\":9610:9613   */\n      0xa0\n        /* \"#utility.yul\":9606:9617   */\n      shl\n        /* \"#utility.yul\":9602:9621   */\n      sub\n        /* \"#utility.yul\":9594:9600   */\n      dup11\n        /* \"#utility.yul\":9590:9622   */\n      and\n        /* \"#utility.yul\":9579:9588   */\n      dup2\n        /* \"#utility.yul\":9572:9623   */\n      mstore\n        /* \"#utility.yul\":9659:9665   */\n      dup9\n        /* \"#utility.yul\":9654:9656   */\n      0x20\n        /* \"#utility.yul\":9643:9652   */\n      dup3\n        /* \"#utility.yul\":9639:9657   */\n      add\n        /* \"#utility.yul\":9632:9666   */\n      mstore\n        /* \"#utility.yul\":9702:9708   */\n      dup8\n        /* \"#utility.yul\":9697:9699   */\n      0x40\n        /* \"#utility.yul\":9686:9695   */\n      dup3\n        /* \"#utility.yul\":9682:9700   */\n      add\n        /* \"#utility.yul\":9675:9709   */\n      mstore\n        /* \"#utility.yul\":9745:9748   */\n      0xe0\n        /* \"#utility.yul\":9740:9742   */\n      0x60\n        /* \"#utility.yul\":9729:9738   */\n      dup3\n        /* \"#utility.yul\":9725:9743   */\n      add\n        /* \"#utility.yul\":9718:9749   */\n      mstore\n        /* \"#utility.yul\":9553:9557   */\n      0x00\n        /* \"#utility.yul\":9772:9846   */\n      tag_548\n        /* \"#utility.yul\":9841:9844   */\n      0xe0\n        /* \"#utility.yul\":9830:9839   */\n      dup4\n        /* \"#utility.yul\":9826:9845   */\n      add\n        /* \"#utility.yul\":9818:9824   */\n      dup9\n        /* \"#utility.yul\":9810:9816   */\n      dup11\n        /* \"#utility.yul\":9772:9846   */\n      tag_485\n      jump\t// in\n    tag_548:\n        /* \"#utility.yul\":9895:9904   */\n      dup3\n        /* \"#utility.yul\":9887:9893   */\n      dup2\n        /* \"#utility.yul\":9883:9905   */\n      sub\n        /* \"#utility.yul\":9877:9880   */\n      0x80\n        /* \"#utility.yul\":9866:9875   */\n      dup5\n        /* \"#utility.yul\":9862:9881   */\n      add\n        /* \"#utility.yul\":9855:9906   */\n      mstore\n        /* \"#utility.yul\":9923:9984   */\n      tag_549\n        /* \"#utility.yul\":9977:9983   */\n      dup2\n        /* \"#utility.yul\":9969:9975   */\n      dup8\n        /* \"#utility.yul\":9961:9967   */\n      dup10\n        /* \"#utility.yul\":9923:9984   */\n      tag_485\n      jump\t// in\n    tag_549:\n        /* \"#utility.yul\":10015:10018   */\n      0xa0\n        /* \"#utility.yul\":10000:10019   */\n      dup5\n      add\n        /* \"#utility.yul\":9993:10028   */\n      swap6\n      swap1\n      swap6\n      mstore\n      pop\n      pop\n        /* \"#utility.yul\":10059:10062   */\n      0xc0\n        /* \"#utility.yul\":10044:10063   */\n      add\n        /* \"#utility.yul\":10037:10072   */\n      mstore\n        /* \"#utility.yul\":9915:9984   */\n      swap8\n        /* \"#utility.yul\":9173:10078   */\n      swap7\n      pop\n      pop\n      pop\n      pop\n      pop\n      pop\n      pop\n      jump\t// out\n        /* \"#utility.yul\":11449:11576   */\n    tag_244:\n        /* \"#utility.yul\":11510:11520   */\n      0x4e487b71\n        /* \"#utility.yul\":11505:11508   */\n      0xe0\n        /* \"#utility.yul\":11501:11521   */\n      shl\n        /* \"#utility.yul\":11498:11499   */\n      0x00\n        /* \"#utility.yul\":11491:11522   */\n      mstore\n        /* \"#utility.yul\":11541:11545   */\n      0x32\n        /* \"#utility.yul\":11538:11539   */\n      0x04\n        /* \"#utility.yul\":11531:11546   */\n      mstore\n        /* \"#utility.yul\":11565:11569   */\n      0x24\n        /* \"#utility.yul\":11562:11563   */\n      0x00\n        /* \"#utility.yul\":11555:11570   */\n      revert\n        /* \"#utility.yul\":11928:12055   */\n    tag_486:\n        /* \"#utility.yul\":11989:11999   */\n      0x4e487b71\n        /* \"#utility.yul\":11984:11987   */\n      0xe0\n        /* \"#utility.yul\":11980:12000   */\n      shl\n        /* \"#utility.yul\":11977:11978   */\n      0x00\n        /* \"#utility.yul\":11970:12001   */\n      mstore\n        /* \"#utility.yul\":12020:12024   */\n      0x11\n        /* \"#utility.yul\":12017:12018   */\n      0x04\n        /* \"#utility.yul\":12010:12025   */\n      mstore\n        /* \"#utility.yul\":12044:12048   */\n      0x24\n        /* \"#utility.yul\":12041:12042   */\n      0x00\n        /* \"#utility.yul\":12034:12049   */\n      revert\n        /* \"#utility.yul\":12060:12188   */\n    tag_255:\n        /* \"#utility.yul\":12127:12136   */\n      dup2\n      dup2\n      sub\n        /* \"#utility.yul\":12148:12159   */\n      dup2\n      dup2\n      gt\n        /* \"#utility.yul\":12145:12182   */\n      iszero\n      tag_479\n      jumpi\n        /* \"#utility.yul\":12162:12180   */\n      tag_479\n      tag_486\n      jump\t// in\n        /* \"#utility.yul\":12864:13032   */\n    tag_332:\n        /* \"#utility.yul\":12937:12946   */\n      dup1\n      dup3\n      mul\n        /* \"#utility.yul\":12968:12977   */\n      dup2\n      iszero\n        /* \"#utility.yul\":12985:13000   */\n      dup3\n      dup3\n      div\n        /* \"#utility.yul\":12979:13001   */\n      dup5\n      eq\n        /* \"#utility.yul\":12965:13002   */\n      or\n        /* \"#utility.yul\":12955:13026   */\n      tag_479\n      jumpi\n        /* \"#utility.yul\":13006:13024   */\n      tag_479\n      tag_486\n      jump\t// in\n        /* \"#utility.yul\":13037:13254   */\n    tag_334:\n        /* \"#utility.yul\":13077:13078   */\n      0x00\n        /* \"#utility.yul\":13103:13104   */\n      dup3\n        /* \"#utility.yul\":13093:13225   */\n      tag_566\n      jumpi\n        /* \"#utility.yul\":13147:13157   */\n      0x4e487b71\n        /* \"#utility.yul\":13142:13145   */\n      0xe0\n        /* \"#utility.yul\":13138:13158   */\n      shl\n        /* \"#utility.yul\":13135:13136   */\n      0x00\n        /* \"#utility.yul\":13128:13159   */\n      mstore\n        /* \"#utility.yul\":13182:13186   */\n      0x12\n        /* \"#utility.yul\":13179:13180   */\n      0x04\n        /* \"#utility.yul\":13172:13187   */\n      mstore\n        /* \"#utility.yul\":13210:13214   */\n      0x24\n        /* \"#utility.yul\":13207:13208   */\n      0x00\n        /* \"#utility.yul\":13200:13215   */\n      revert\n        /* \"#utility.yul\":13093:13225   */\n    tag_566:\n      pop\n        /* \"#utility.yul\":13239:13248   */\n      div\n      swap1\n        /* \"#utility.yul\":13037:13254   */\n      jump\t// out\n        /* \"#utility.yul\":13259:13384   */\n    tag_343:\n        /* \"#utility.yul\":13324:13333   */\n      dup1\n      dup3\n      add\n        /* \"#utility.yul\":13345:13355   */\n      dup1\n      dup3\n      gt\n        /* \"#utility.yul\":13342:13378   */\n      iszero\n      tag_479\n      jumpi\n        /* \"#utility.yul\":13358:13376   */\n      tag_479\n      tag_486\n      jump\t// in\n        /* \"#utility.yul\":13668:13898   */\n    tag_370:\n        /* \"#utility.yul\":13738:13744   */\n      0x00\n        /* \"#utility.yul\":13791:13793   */\n      0x20\n        /* \"#utility.yul\":13779:13788   */\n      dup3\n        /* \"#utility.yul\":13770:13777   */\n      dup5\n        /* \"#utility.yul\":13766:13789   */\n      sub\n        /* \"#utility.yul\":13762:13794   */\n      slt\n        /* \"#utility.yul\":13759:13811   */\n      iszero\n      tag_572\n      jumpi\n        /* \"#utility.yul\":13807:13808   */\n      0x00\n        /* \"#utility.yul\":13804:13805   */\n      0x00\n        /* \"#utility.yul\":13797:13809   */\n      revert\n        /* \"#utility.yul\":13759:13811   */\n    tag_572:\n      pop\n        /* \"#utility.yul\":13852:13868   */\n      mload\n      swap2\n        /* \"#utility.yul\":13668:13898   */\n      swap1\n      pop\n      jump\t// out\n        /* \"#utility.yul\":14249:14608   */\n    tag_415:\n        /* \"#utility.yul\":14466:14472   */\n      dup4\n        /* \"#utility.yul\":14455:14464   */\n      dup2\n        /* \"#utility.yul\":14448:14473   */\n      mstore\n        /* \"#utility.yul\":14509:14511   */\n      0x40\n        /* \"#utility.yul\":14504:14506   */\n      0x20\n        /* \"#utility.yul\":14493:14502   */\n      dup3\n        /* \"#utility.yul\":14489:14507   */\n      add\n        /* \"#utility.yul\":14482:14512   */\n      mstore\n        /* \"#utility.yul\":14429:14433   */\n      0x00\n        /* \"#utility.yul\":14529:14602   */\n      tag_575\n        /* \"#utility.yul\":14598:14600   */\n      0x40\n        /* \"#utility.yul\":14587:14596   */\n      dup4\n        /* \"#utility.yul\":14583:14601   */\n      add\n        /* \"#utility.yul\":14575:14581   */\n      dup5\n        /* \"#utility.yul\":14567:14573   */\n      dup7\n        /* \"#utility.yul\":14529:14602   */\n      tag_485\n      jump\t// in\n    tag_575:\n        /* \"#utility.yul\":14521:14602   */\n      swap6\n        /* \"#utility.yul\":14249:14608   */\n      swap5\n      pop\n      pop\n      pop\n      pop\n      pop\n      jump\t// out\n        /* \"#utility.yul\":14613:14740   */\n    tag_487:\n        /* \"#utility.yul\":14674:14684   */\n      0x4e487b71\n        /* \"#utility.yul\":14669:14672   */\n      0xe0\n        /* \"#utility.yul\":14665:14685   */\n      shl\n        /* \"#utility.yul\":14662:14663   */\n      0x00\n        /* \"#utility.yul\":14655:14686   */\n      mstore\n        /* \"#utility.yul\":14705:14709   */\n      0x41\n        /* \"#utility.yul\":14702:14703   */\n      0x04\n        /* \"#utility.yul\":14695:14710   */\n      mstore\n        /* \"#utility.yul\":14729:14733   */\n      0x24\n        /* \"#utility.yul\":14726:14727   */\n      0x00\n        /* \"#utility.yul\":14719:14734   */\n      revert\n        /* \"#utility.yul\":14745:15910   */\n    tag_418:\n        /* \"#utility.yul\":14840:14846   */\n      0x00\n        /* \"#utility.yul\":14893:14895   */\n      0x20\n        /* \"#utility.yul\":14881:14890   */\n      dup3\n        /* \"#utility.yul\":14872:14879   */\n      dup5\n        /* \"#utility.yul\":14868:14891   */\n      sub\n        /* \"#utility.yul\":14864:14896   */\n      slt\n        /* \"#utility.yul\":14861:14913   */\n      iszero\n      tag_578\n      jumpi\n        /* \"#utility.yul\":14909:14910   */\n      0x00\n        /* \"#utility.yul\":14906:14907   */\n      0x00\n        /* \"#utility.yul\":14899:14911   */\n      revert\n        /* \"#utility.yul\":14861:14913   */\n    tag_578:\n        /* \"#utility.yul\":14942:14951   */\n      dup2\n        /* \"#utility.yul\":14936:14952   */\n      mload\n      sub(shl(0x40, 0x01), 0x01)\n        /* \"#utility.yul\":14967:14973   */\n      dup2\n        /* \"#utility.yul\":14964:14994   */\n      gt\n        /* \"#utility.yul\":14961:15011   */\n      iszero\n      tag_579\n      jumpi\n        /* \"#utility.yul\":15007:15008   */\n      0x00\n        /* \"#utility.yul\":15004:15005   */\n      0x00\n        /* \"#utility.yul\":14997:15009   */\n      revert\n        /* \"#utility.yul\":14961:15011   */\n    tag_579:\n        /* \"#utility.yul\":15030:15052   */\n      dup3\n      add\n        /* \"#utility.yul\":15083:15087   */\n      0x1f\n        /* \"#utility.yul\":15075:15088   */\n      dup2\n      add\n        /* \"#utility.yul\":15071:15098   */\n      dup5\n      sgt\n        /* \"#utility.yul\":15061:15116   */\n      tag_580\n      jumpi\n        /* \"#utility.yul\":15112:15113   */\n      0x00\n        /* \"#utility.yul\":15109:15110   */\n      0x00\n        /* \"#utility.yul\":15102:15114   */\n      revert\n        /* \"#utility.yul\":15061:15116   */\n    tag_580:\n        /* \"#utility.yul\":15145:15147   */\n      dup1\n        /* \"#utility.yul\":15139:15148   */\n      mload\n      sub(shl(0x40, 0x01), 0x01)\n        /* \"#utility.yul\":15163:15169   */\n      dup2\n        /* \"#utility.yul\":15160:15190   */\n      gt\n        /* \"#utility.yul\":15157:15213   */\n      iszero\n      tag_582\n      jumpi\n        /* \"#utility.yul\":15193:15211   */\n      tag_582\n      tag_487\n      jump\t// in\n    tag_582:\n        /* \"#utility.yul\":15239:15245   */\n      dup1\n        /* \"#utility.yul\":15236:15237   */\n      0x05\n        /* \"#utility.yul\":15232:15246   */\n      shl\n        /* \"#utility.yul\":15275:15277   */\n      0x40\n        /* \"#utility.yul\":15269:15278   */\n      mload\n        /* \"#utility.yul\":15338:15340   */\n      0x1f\n        /* \"#utility.yul\":15334:15341   */\n      not\n        /* \"#utility.yul\":15329:15331   */\n      0x3f\n        /* \"#utility.yul\":15325:15327   */\n      dup4\n        /* \"#utility.yul\":15321:15332   */\n      add\n        /* \"#utility.yul\":15317:15342   */\n      and\n        /* \"#utility.yul\":15309:15315   */\n      dup2\n        /* \"#utility.yul\":15305:15343   */\n      add\n        /* \"#utility.yul\":15409:15415   */\n      dup2\n        /* \"#utility.yul\":15397:15407   */\n      dup2\n        /* \"#utility.yul\":15394:15416   */\n      lt\n      sub(shl(0x40, 0x01), 0x01)\n        /* \"#utility.yul\":15361:15371   */\n      dup3\n        /* \"#utility.yul\":15358:15392   */\n      gt\n        /* \"#utility.yul\":15355:15417   */\n      or\n        /* \"#utility.yul\":15352:15440   */\n      iszero\n      tag_584\n      jumpi\n        /* \"#utility.yul\":15420:15438   */\n      tag_584\n      tag_487\n      jump\t// in\n    tag_584:\n        /* \"#utility.yul\":15456:15458   */\n      0x40\n        /* \"#utility.yul\":15449:15471   */\n      mstore\n        /* \"#utility.yul\":15506:15528   */\n      swap2\n      dup3\n      mstore\n        /* \"#utility.yul\":15556:15558   */\n      0x20\n        /* \"#utility.yul\":15586:15597   */\n      dup2\n      dup5\n      add\n        /* \"#utility.yul\":15582:15602   */\n      dup2\n      add\n      swap3\n        /* \"#utility.yul\":15506:15528   */\n      swap1\n        /* \"#utility.yul\":15544:15559   */\n      dup2\n      add\n        /* \"#utility.yul\":15614:15633   */\n      dup8\n      dup5\n      gt\n        /* \"#utility.yul\":15611:15650   */\n      iszero\n      tag_585\n      jumpi\n        /* \"#utility.yul\":15646:15647   */\n      0x00\n        /* \"#utility.yul\":15643:15644   */\n      0x00\n        /* \"#utility.yul\":15636:15648   */\n      revert\n        /* \"#utility.yul\":15611:15650   */\n    tag_585:\n        /* \"#utility.yul\":15678:15680   */\n      0x20\n        /* \"#utility.yul\":15674:15676   */\n      dup6\n        /* \"#utility.yul\":15670:15681   */\n      add\n        /* \"#utility.yul\":15659:15681   */\n      swap5\n      pop\n        /* \"#utility.yul\":15690:15879   */\n    tag_586:\n        /* \"#utility.yul\":15706:15712   */\n      dup4\n        /* \"#utility.yul\":15701:15704   */\n      dup6\n        /* \"#utility.yul\":15698:15713   */\n      lt\n        /* \"#utility.yul\":15690:15879   */\n      iszero\n      tag_588\n      jumpi\n        /* \"#utility.yul\":15796:15806   */\n      dup5\n      mload\n        /* \"#utility.yul\":15819:15837   */\n      dup1\n      dup3\n      mstore\n        /* \"#utility.yul\":15866:15868   */\n      0x20\n        /* \"#utility.yul\":15723:15735   */\n      swap6\n      dup7\n      add\n      swap6\n        /* \"#utility.yul\":15796:15806   */\n      swap1\n      swap4\n      pop\n        /* \"#utility.yul\":15857:15869   */\n      add\n        /* \"#utility.yul\":15690:15879   */\n      jump(tag_586)\n    tag_588:\n      pop\n        /* \"#utility.yul\":15898:15904   */\n      swap7\n        /* \"#utility.yul\":14745:15910   */\n      swap6\n      pop\n      pop\n      pop\n      pop\n      pop\n      pop\n      jump\t// out\n        /* \"#utility.yul\":16291:16892   */\n    tag_448:\n        /* \"#utility.yul\":16592:16598   */\n      dup7\n        /* \"#utility.yul\":16581:16590   */\n      dup2\n        /* \"#utility.yul\":16574:16599   */\n      mstore\n        /* \"#utility.yul\":16635:16641   */\n      dup6\n        /* \"#utility.yul\":16630:16632   */\n      0x20\n        /* \"#utility.yul\":16619:16628   */\n      dup3\n        /* \"#utility.yul\":16615:16633   */\n      add\n        /* \"#utility.yul\":16608:16642   */\n      mstore\n        /* \"#utility.yul\":16678:16681   */\n      0xa0\n        /* \"#utility.yul\":16673:16675   */\n      0x40\n        /* \"#utility.yul\":16662:16671   */\n      dup3\n        /* \"#utility.yul\":16658:16676   */\n      add\n        /* \"#utility.yul\":16651:16682   */\n      mstore\n        /* \"#utility.yul\":16555:16559   */\n      0x00\n        /* \"#utility.yul\":16699:16773   */\n      tag_591\n        /* \"#utility.yul\":16768:16771   */\n      0xa0\n        /* \"#utility.yul\":16757:16766   */\n      dup4\n        /* \"#utility.yul\":16753:16772   */\n      add\n        /* \"#utility.yul\":16745:16751   */\n      dup7\n        /* \"#utility.yul\":16737:16743   */\n      dup9\n        /* \"#utility.yul\":16699:16773   */\n      tag_485\n      jump\t// in\n    tag_591:\n      sub(shl(0xa0, 0x01), 0x01)\n        /* \"#utility.yul\":16809:16841   */\n      swap5\n      swap1\n      swap5\n      and\n        /* \"#utility.yul\":16804:16806   */\n      0x60\n        /* \"#utility.yul\":16789:16807   */\n      dup4\n      add\n        /* \"#utility.yul\":16782:16842   */\n      mstore\n      pop\n        /* \"#utility.yul\":16873:16876   */\n      0x80\n        /* \"#utility.yul\":16858:16877   */\n      add\n        /* \"#utility.yul\":16851:16886   */\n      mstore\n        /* \"#utility.yul\":16691:16773   */\n      swap5\n        /* \"#utility.yul\":16291:16892   */\n      swap4\n      pop\n      pop\n      pop\n      pop\n      jump\t// out\n\n    auxdata: 0xa26469706673582212203047489f4598ccb017260df5cba3eb00c5666afc72a242e9e5dab52e4af43e4964736f6c634300081e0033\n}\n",
				"bytecode": {
					"linkReferences": {},
					"object": "608060405234801561000f575f5ffd5b5060405161248e38038061248e83398101604081905261002e916102d9565b338061005457604051631e4fbdf760e01b81525f60048201526024015b60405180910390fd5b61005d8161022e565b5060016002556001600160a01b0382166100ae5760405162461bcd60e51b81526020600482015260126024820152714645455f524543495049454e545f5a45524f60701b604482015260640161004b565b60c861ffff821611156100f25760405162461bcd60e51b815260206004820152600c60248201526b08c8a8abea89e9ebe90928e960a31b604482015260640161004b565b600580546001600160b01b031916620100006001600160a01b0385160261ffff19161761ffff83161790555f5b83518110156101e357600160045f86848151811061013f5761013f6103c4565b60200260200101516001600160a01b03166001600160a01b031681526020019081526020015f205f6101000a81548160ff02191690831515021790555083818151811061018e5761018e6103c4565b60200260200101516001600160a01b03167f5ae067a93e2af6193017728cb7e9ef5af1d750a5beb7b16a05b54d56f6f355e360016040516101d3911515815260200190565b60405180910390a260010161011f565b5060405161ffff821681526001600160a01b038316907f25db41e00c7b58ea3222b515559a00f3af8f16b0f955b784582f23c554176d6f9060200160405180910390a25050506103d8565b600180546001600160a01b03191690556102478161024a565b50565b5f80546001600160a01b038381166001600160a01b0319831681178455604051919092169283917f8be0079c531659141344cd1fd0a4f28419497f9722a3daafe3b4186f6b6457e09190a35050565b634e487b7160e01b5f52604160045260245ffd5b80516001600160a01b03811681146102c3575f5ffd5b919050565b805161ffff811681146102c3575f5ffd5b5f5f5f606084860312156102eb575f5ffd5b83516001600160401b03811115610300575f5ffd5b8401601f81018613610310575f5ffd5b80516001600160401b0381111561032957610329610299565b604051600582901b90603f8201601f191681016001600160401b038111828210171561035757610357610299565b604052918252602081840181019290810189841115610374575f5ffd5b6020850194505b8385101561039a5761038c856102ad565b81526020948501940161037b565b5095506103ad92505050602085016102ad565b91506103bb604085016102c8565b90509250925092565b634e487b7160e01b5f52603260045260245ffd5b6120a9806103e55f395ff3fe608060405260043610610134575f3560e01c806379ba5097116100a8578063e30c39781161006d578063e30c3978146103e4578063e5711e8b14610401578063f2fde38b14610420578063f87b098c1461043f578063fdd5791e1461045e578063ff7551e314610489575f5ffd5b806379ba50971461035e5780638456cb59146103725780638da5cb5b14610386578063c226c4bb146103a2578063d55be8c6146103d0575f5ffd5b806346904840116100f9578063469048401461024557806352fd5099146102825780635b7499b5146102db5780635c975abb146102fa5780636bdc40a61461031d578063715018a61461034a575f5ffd5b806323dd7f3914610173578063350e9756146101c457806335659fb8146101e557806339a5b0cd146102125780633f4ba83a14610231575f5ffd5b3661016f5760405162461bcd60e51b815260206004820152600660248201526509c9ebe8aa8960d31b60448201526064015b60405180910390fd5b5f5ffd5b34801561017e575f5ffd5b506101a761018d366004611b5a565b60076020525f90815260409020546001600160401b031681565b6040516001600160401b0390911681526020015b60405180910390f35b3480156101cf575f5ffd5b506101e36101de366004611b7a565b61049d565b005b3480156101f0575f5ffd5b506005546101ff9061ffff1681565b60405161ffff90911681526020016101bb565b34801561021d575f5ffd5b506101e361022c366004611bb5565b6105a0565b34801561023c575f5ffd5b506101e36105ff565b348015610250575f5ffd5b5060055461026a906201000090046001600160a01b031681565b6040516001600160a01b0390911681526020016101bb565b34801561028d575f5ffd5b506102a161029c366004611c23565b61063b565b6040805195151586526001600160a01b039485166020870152929093169184019190915261ffff166060830152608082015260a0016101bb565b3480156102e6575f5ffd5b506101e36102f5366004611c9a565b610775565b348015610305575f5ffd5b5060035460ff165b60405190151581526020016101bb565b348015610328575f5ffd5b5061033c610337366004611cb1565b6107e6565b6040519081526020016101bb565b348015610355575f5ffd5b506101e3610998565b348015610369575f5ffd5b506101e36109ab565b34801561037d575f5ffd5b506101e36109ef565b348015610391575f5ffd5b505f546001600160a01b031661026a565b3480156103ad575f5ffd5b5061030d6103bc366004611b5a565b60046020525f908152604090205460ff1681565b3480156103db575f5ffd5b506101ff60c881565b3480156103ef575f5ffd5b506001546001600160a01b031661026a565b34801561040c575f5ffd5b506101e361041b366004611d3f565b610a2b565b34801561042b575f5ffd5b506101e361043a366004611b5a565b610a4c565b34801561044a575f5ffd5b5061033c610459366004611d79565b610abc565b348015610469575f5ffd5b5061033c610478366004611b5a565b60066020525f908152604090205481565b348015610494575f5ffd5b506101e3610d85565b6104a5610dd7565b6001600160a01b0382166104f05760405162461bcd60e51b81526020600482015260126024820152714645455f524543495049454e545f5a45524f60701b6044820152606401610166565b60c861ffff821611156105345760405162461bcd60e51b815260206004820152600c60248201526b08c8a8abea89e9ebe90928e960a31b6044820152606401610166565b600580546001600160b01b031916620100006001600160a01b03851690810261ffff19169190911761ffff8416908117909255604051918252907f25db41e00c7b58ea3222b515559a00f3af8f16b0f955b784582f23c554176d6f906020015b60405180910390a25050565b6105a8610dd7565b6001600160a01b0382165f81815260046020908152604091829020805460ff191685151590811790915591519182527f5ae067a93e2af6193017728cb7e9ef5af1d750a5beb7b16a05b54d56f6f355e39101610594565b610607610dd7565b61060f610e03565b60405133907f71f955adbef5dbb4e16ecd587d398f94155edd0a14295fc23975b92a95b793f7905f90a2565b5f80808080600286101561067c5760405162461bcd60e51b81526020600482015260086024820152670848288bea082a8960c31b6044820152606401610166565b6001881080159061068e575060058811155b6106cb5760405162461bcd60e51b815260206004820152600e60248201526d524f55544552535f315f544f5f3560901b6044820152606401610166565b5f5f6106da8c8c8c8c8c610e55565b915091505f6106ec8d8d8d8d8d610f20565b60408101519091506001600160a01b031661071557505f96509094508593508392509050610768565b5f5f61072b8f845f015185604001518f8f611086565b915091508381111561075557825160409093015160019a5092985091965094509250610768915050565b505f985092965087955085945090925050505b9550955095509550959050565b61077d61117b565b335f8181526006602090815260408083208590556007825291829020805467ffffffffffffffff1916436001600160401b031617905590518381527fbc18d35ebc445de56fb4b050fcab7487b4d634bedb37fdd73db4a87bb17e508e910160405180910390a250565b5f6107ef61119f565b6107f761117b565b5f338a8a8a8a8a8a8a8a60405160200161081999989796959493929190611e47565b60408051601f198184030181529181528151602092830120335f90815260069093529120549091506108795760405162461bcd60e51b81526020600482015260096024820152681393d7d0d3d353525560ba1b6044820152606401610166565b335f9081526006602052604090205481146108c35760405162461bcd60e51b815260206004820152600a60248201526910905117d0d3d353525560b21b6044820152606401610166565b335f908152600760205260409020546001600160401b034381169116106109205760405162461bcd60e51b815260206004820152601160248201527052455645414c5f4e4558545f424c4f434b60781b6044820152606401610166565b335f8181526006602090815260408083208390556007909152808220805467ffffffffffffffff19169055517f1987e6a4ce537a918d38185d7c3a5a6beaf7ab33a80362f59eab4ec9fdd43ed59190a261097f8a8a8a8a8a8a8a610abc565b91505061098c6001600255565b98975050505050505050565b6109a0610dd7565b6109a95f6111c7565b565b60015433906001600160a01b031681146109e35760405163118cdaa760e01b81526001600160a01b0382166004820152602401610166565b6109ec816111c7565b50565b6109f7610dd7565b6109ff6111e0565b60405133907f314364159151b7b18f5ebe5ff7560d5d2bda61579a0b674a2967e01cd7686955905f90a2565b610a33610dd7565b610a476001600160a01b038416838361121d565b505050565b610a54610dd7565b600180546001600160a01b0383166001600160a01b03199091168117909155610a845f546001600160a01b031690565b6001600160a01b03167f38d16b8cac22d99fc7c124b9cd0de2d3fa1faef420bfe791d8c362d765e2270060405160405180910390a350565b5f610ac561119f565b610acd61117b565b6002831015610b095760405162461bcd60e51b81526020600482015260086024820152670848288bea082a8960c31b6044820152606401610166565b60018510801590610b1b575060058511155b610b585760405162461bcd60e51b815260206004820152600e60248201526d524f55544552535f315f544f5f3560901b6044820152606401610166565b81421115610b9a5760405162461bcd60e51b815260206004820152600f60248201526e111150511312539157d41054d4d151608a1b6044820152606401610166565b5f5b85811015610c335760045f888884818110610bb957610bb9611ea0565b9050602002016020810190610bce9190611b5a565b6001600160a01b0316815260208101919091526040015f205460ff16610c2b5760405162461bcd60e51b81526020600482015260126024820152711493d555115497d393d517d0531313d5d15160721b6044820152606401610166565b600101610b9c565b50604080516080810182525f80825260208201819052918101829052606081019190915284845f818110610c6957610c69611ea0565b9050602002016020810190610c7e9190611b5a565b6001600160a01b031681528484610c96600182611ec8565b818110610ca557610ca5611ea0565b9050602002016020810190610cba9190611b5a565b6001600160a01b03166020820152604081018390526060810188905280515f90610ce590338c61127c565b90505f8111610d205760405162461bcd60e51b81526020600482015260076024820152662d22a927afa4a760c91b6044820152606401610166565b5f610d2e828a8a8a8a61137b565b8051909150610d4f57610d48838260200151848a8a611467565b9350610d6d565b610d6a83826020015183604001518585606001518c8c611500565b93505b505050610d7a6001600255565b979650505050505050565b335f8181526006602090815260408083208390556007909152808220805467ffffffffffffffff19169055517f1987e6a4ce537a918d38185d7c3a5a6beaf7ab33a80362f59eab4ec9fdd43ed59190a2565b5f546001600160a01b031633146109a95760405163118cdaa760e01b8152336004820152602401610166565b610e0b61160e565b6003805460ff191690557f5db9ee0a495bf2e6ff9c91a7834c1ba4fdd244a5e8aa4e537bd38aeae4b073aa335b6040516001600160a01b03909116815260200160405180910390a1565b5f80805b85811015610ed4575f610e94888884818110610e7757610e77611ea0565b9050602002016020810190610e8c9190611b5a565b8a8888611631565b905082811115610ecb57809250878783818110610eb357610eb3611ea0565b9050602002016020810190610ec89190611b5a565b93505b50600101610e59565b506001600160a01b038216610f165760405162461bcd60e51b81526020600482015260086024820152674e4f5f524f55544560c01b6044820152606401610166565b9550959350505050565b604080516080810182525f8082526020820181905291810182905260608101829052905b8481101561107c575f610f7f878784818110610f6257610f62611ea0565b9050602002016020810190610f779190611b5a565b898787611631565b90508260200151811115610fe55782516001600160a01b0316604084015260208301516060840152868683818110610fb957610fb9611ea0565b9050602002016020810190610fce9190611b5a565b6001600160a01b0316835260208301819052611073565b826060015181118015611031575082516001600160a01b031687878481811061101057611010611ea0565b90506020020160208101906110259190611b5a565b6001600160a01b031614155b156110735786868381811061104857611048611ea0565b905060200201602081019061105d9190611b5a565b6001600160a01b03166040840152606083018190525b50600101610f44565b5095945050505050565b6040805160a081018252612710808252611d4c6020830152611388928201929092526109c460608201525f6080820181905290815b600581101561116f575f8282600581106110d7576110d7611ea0565b602002015190505f6127106110f061ffff84168d611edb565b6110fa9190611ef2565b90505f611107828d611ec8565b90505f82156111215761111c8c848c8c611631565b611123565b5f5b90505f821561113d576111388c848d8d611631565b61113f565b5f5b90505f61114c8284611f11565b90508881111561115d578098508599505b5050600190940193506110bb92505050565b50509550959350505050565b60035460ff16156109a95760405163d93c066560e01b815260040160405180910390fd5b60028054036111c157604051633ee5aeb560e01b815260040160405180910390fd5b60028055565b600180546001600160a01b03191690556109ec816116ed565b6111e861117b565b6003805460ff191660011790557f62e78cea01bee320cd4e420270b5ea74000d11b0c9f74754ebdbfc544b05a258610e383390565b6040516001600160a01b03838116602483015260448201839052610a4791859182169063a9059cbb906064015b604051602081830303815290604052915060e01b6020820180516001600160e01b03838183161783525050505061173c565b6040516370a0823160e01b81523060048201525f9081906001600160a01b038616906370a0823190602401602060405180830381865afa1580156112c2573d5f5f3e3d5ffd5b505050506040513d601f19601f820116820180604052508101906112e69190611f24565b90506112fd6001600160a01b0386168530866117ae565b6040516370a0823160e01b81523060048201525f906001600160a01b038716906370a0823190602401602060405180830381865afa158015611341573d5f5f3e3d5ffd5b505050506040513d601f19601f820116820180604052508101906113659190611f24565b90506113718282611ec8565b9695505050505050565b6040805160a0810182525f80825260208201819052918101829052606081018290526080810182905290806113b38888888888610e55565b915091505f6113c58989898989610f20565b5f8086526001600160a01b038086166020880152604080880183905260608801929092526080870185905290820151919250161561145b575f5f6114138b845f015185604001518b8b611086565b915091508560800151811115611458576001865282516001600160a01b0390811660208801526040808501519091169087015261ffff82166060870152608086018190525b50505b50505095945050505050565b5f5f61147b87878787878c606001516117e7565b905086606001518110156114c55760405162461bcd60e51b81526020600482015260116024820152700a69892a0a0828e8abea89e9ebe90928e9607b1b6044820152606401610166565b5f5f6114d5896020015184611973565b60208b015191935091506114f3906001600160a01b0316338361121d565b61098c89898984866119e8565b5f8061271061151361ffff871688611edb565b61151d9190611ef2565b90505f61152a8288611ec8565b905061154d60405180606001604052805f81526020015f81526020015f81525090565b61155b8b8b8589895f6117e7565b815261156b8b8a8489895f6117e7565b60208201819052815161157e9190611f11565b6040820181905260608c015111156115cc5760405162461bcd60e51b81526020600482015260116024820152700a69892a0a0828e8abea89e9ebe90928e9607b1b6044820152606401610166565b5f5f6115e08d602001518460400151611973565b60208f015191935091506115fe906001600160a01b0316338361121d565b9c9b505050505050505050505050565b60035460ff166109a957604051638dfc202b60e01b815260040160405180910390fd5b60405163d06ca61f60e01b81525f906001600160a01b0386169063d06ca61f9061166390879087908790600401611f3b565b5f60405180830381865afa92505050801561169f57506040513d5f823e601f3d908101601f1916820160405261169c9190810190611f71565b60015b6116aa57505f6116e5565b8051156116e05780600182516116c09190611ec8565b815181106116d0576116d0611ea0565b60200260200101519150506116e5565b5f9150505b949350505050565b5f80546001600160a01b038381166001600160a01b0319831681178455604051919092169283917f8be0079c531659141344cd1fd0a4f28419497f9722a3daafe3b4186f6b6457e09190a35050565b5f5f60205f8451602086015f885af18061175b576040513d5f823e3d81fd5b50505f513d9150811561177257806001141561177f565b6001600160a01b0384163b155b156117a857604051635274afe760e01b81526001600160a01b0385166004820152602401610166565b50505050565b6040516001600160a01b0384811660248301528381166044830152606482018390526117a89186918216906323b872dd9060840161124a565b5f845f036117f657505f611371565b8651611803908787611a59565b60208701516040516370a0823160e01b81523060048201525f916001600160a01b0316906370a0823190602401602060405180830381865afa15801561184b573d5f5f3e3d5ffd5b505050506040513d601f19601f8201168201806040525081019061186f9190611f24565b9050866001600160a01b03166338ed173987858888308e604001516040518763ffffffff1660e01b81526004016118ab96959493929190612036565b5f604051808303815f875af11580156118c6573d5f5f3e3d5ffd5b505050506040513d5f823e601f3d908101601f191682016040526118ed9190810190611f71565b5060208801516040516370a0823160e01b81523060048201525f916001600160a01b0316906370a0823190602401602060405180830381865afa158015611936573d5f5f3e3d5ffd5b505050506040513d601f19601f8201168201806040525081019061195a9190611f24565b90506119668282611ec8565b9998505050505050505050565b6005545f90819061ffff16810361198e57505f9050816119e1565b600554612710906119a39061ffff1685611edb565b6119ad9190611ef2565b91506119b98284611ec8565b905081156119e1576005546119e1906001600160a01b0386811691620100009004168461121d565b9250929050565b8451602080870151604080516001600160a01b0394851681529184169282019290925290810185905260608101849052608081018390529085169033907fa3c755d4452dec05c2f66980b0a74a215e95dd31bef2194bebce30f397fb6e2e9060a00160405180910390a35050505050565b604080516001600160a01b03848116602483015260448083018590528351808403909101815260649092019092526020810180516001600160e01b031663095ea7b360e01b179052610a479185169084908490611ab68482611af4565b6117a8576040516001600160a01b0384811660248301525f6044830152611aea91869182169063095ea7b39060640161124a565b6117a8848261173c565b5f5f5f5f60205f8651602088015f8a5af192503d91505f519050828015611b3357508115611b255780600114611b33565b5f866001600160a01b03163b115b93505050505b92915050565b80356001600160a01b0381168114611b55575f5ffd5b919050565b5f60208284031215611b6a575f5ffd5b611b7382611b3f565b9392505050565b5f5f60408385031215611b8b575f5ffd5b611b9483611b3f565b9150602083013561ffff81168114611baa575f5ffd5b809150509250929050565b5f5f60408385031215611bc6575f5ffd5b611bcf83611b3f565b915060208301358015158114611baa575f5ffd5b5f5f83601f840112611bf3575f5ffd5b5081356001600160401b03811115611c09575f5ffd5b6020830191508360208260051b85010111156119e1575f5ffd5b5f5f5f5f5f60608688031215611c37575f5ffd5b8535945060208601356001600160401b03811115611c53575f5ffd5b611c5f88828901611be3565b90955093505060408601356001600160401b03811115611c7d575f5ffd5b611c8988828901611be3565b969995985093965092949392505050565b5f60208284031215611caa575f5ffd5b5035919050565b5f5f5f5f5f5f5f5f60c0898b031215611cc8575f5ffd5b883597506020890135965060408901356001600160401b03811115611ceb575f5ffd5b611cf78b828c01611be3565b90975095505060608901356001600160401b03811115611d15575f5ffd5b611d218b828c01611be3565b999c989b5096999598969760808701359660a0013595509350505050565b5f5f5f60608486031215611d51575f5ffd5b611d5a84611b3f565b9250611d6860208501611b3f565b929592945050506040919091013590565b5f5f5f5f5f5f5f60a0888a031215611d8f575f5ffd5b873596506020880135955060408801356001600160401b03811115611db2575f5ffd5b611dbe8a828b01611be3565b90965094505060608801356001600160401b03811115611ddc575f5ffd5b611de88a828b01611be3565b989b979a50959894979596608090950135949350505050565b8183526020830192505f815f5b84811015611e3d576001600160a01b03611e2783611b3f565b1686526020958601959190910190600101611e0e565b5093949350505050565b60018060a01b038a16815288602082015287604082015260e060608201525f611e7460e08301888a611e01565b8281036080840152611e87818789611e01565b60a0840195909552505060c00152979650505050505050565b634e487b7160e01b5f52603260045260245ffd5b634e487b7160e01b5f52601160045260245ffd5b81810381811115611b3957611b39611eb4565b8082028115828204841417611b3957611b39611eb4565b5f82611f0c57634e487b7160e01b5f52601260045260245ffd5b500490565b80820180821115611b3957611b39611eb4565b5f60208284031215611f34575f5ffd5b5051919050565b838152604060208201525f611f54604083018486611e01565b95945050505050565b634e487b7160e01b5f52604160045260245ffd5b5f60208284031215611f81575f5ffd5b81516001600160401b03811115611f96575f5ffd5b8201601f81018413611fa6575f5ffd5b80516001600160401b03811115611fbf57611fbf611f5d565b8060051b604051601f19603f83011681018181106001600160401b0382111715611feb57611feb611f5d565b604052918252602081840181019290810187841115612008575f5ffd5b6020850194505b8385101561202b5784518082526020958601959093500161200f565b509695505050505050565b86815285602082015260a060408201525f61205560a083018688611e01565b6001600160a01b03949094166060830152506080015294935050505056fea26469706673582212203047489f4598ccb017260df5cba3eb00c5666afc72a242e9e5dab52e4af43e4964736f6c634300081e0033",
					"opcodes": "PUSH1 0x80 PUSH1 0x40 MSTORE CALLVALUE DUP1 ISZERO PUSH2 0xF JUMPI PUSH0 PUSH0 REVERT JUMPDEST POP PUSH1 0x40 MLOAD PUSH2 0x248E CODESIZE SUB DUP1 PUSH2 0x248E DUP4 CODECOPY DUP2 ADD PUSH1 0x40 DUP2 SWAP1 MSTORE PUSH2 0x2E SWAP2 PUSH2 0x2D9 JUMP JUMPDEST CALLER DUP1 PUSH2 0x54 JUMPI PUSH1 0x40 MLOAD PUSH4 0x1E4FBDF7 PUSH1 0xE0 SHL DUP2 MSTORE PUSH0 PUSH1 0x4 DUP3 ADD MSTORE PUSH1 0x24 ADD JUMPDEST PUSH1 0x40 MLOAD DUP1 SWAP2 SUB SWAP1 REVERT JUMPDEST PUSH2 0x5D DUP2 PUSH2 0x22E JUMP JUMPDEST POP PUSH1 0x1 PUSH1 0x2 SSTORE PUSH1 0x1 PUSH1 0x1 PUSH1 0xA0 SHL SUB DUP3 AND PUSH2 0xAE JUMPI PUSH1 0x40 MLOAD PUSH3 0x461BCD PUSH1 0xE5 SHL DUP2 MSTORE PUSH1 0x20 PUSH1 0x4 DUP3 ADD MSTORE PUSH1 0x12 PUSH1 0x24 DUP3 ADD MSTORE PUSH18 0x4645455F524543495049454E545F5A45524F PUSH1 0x70 SHL PUSH1 0x44 DUP3 ADD MSTORE PUSH1 0x64 ADD PUSH2 0x4B JUMP JUMPDEST PUSH1 0xC8 PUSH2 0xFFFF DUP3 AND GT ISZERO PUSH2 0xF2 JUMPI PUSH1 0x40 MLOAD PUSH3 0x461BCD PUSH1 0xE5 SHL DUP2 MSTORE PUSH1 0x20 PUSH1 0x4 DUP3 ADD MSTORE PUSH1 0xC PUSH1 0x24 DUP3 ADD MSTORE PUSH12 0x8C8A8ABEA89E9EBE90928E9 PUSH1 0xA3 SHL PUSH1 0x44 DUP3 ADD MSTORE PUSH1 0x64 ADD PUSH2 0x4B JUMP JUMPDEST PUSH1 0x5 DUP1 SLOAD PUSH1 0x1 PUSH1 0x1 PUSH1 0xB0 SHL SUB NOT AND PUSH3 0x10000 PUSH1 0x1 PUSH1 0x1 PUSH1 0xA0 SHL SUB DUP6 AND MUL PUSH2 0xFFFF NOT AND OR PUSH2 0xFFFF DUP4 AND OR SWAP1 SSTORE PUSH0 JUMPDEST DUP4 MLOAD DUP2 LT ISZERO PUSH2 0x1E3 JUMPI PUSH1 0x1 PUSH1 0x4 PUSH0 DUP7 DUP5 DUP2 MLOAD DUP2 LT PUSH2 0x13F JUMPI PUSH2 0x13F PUSH2 0x3C4 JUMP JUMPDEST PUSH1 0x20 MUL PUSH1 0x20 ADD ADD MLOAD PUSH1 0x1 PUSH1 0x1 PUSH1 0xA0 SHL SUB AND PUSH1 0x1 PUSH1 0x1 PUSH1 0xA0 SHL SUB AND DUP2 MSTORE PUSH1 0x20 ADD SWAP1 DUP2 MSTORE PUSH1 0x20 ADD PUSH0 KECCAK256 PUSH0 PUSH2 0x100 EXP DUP2 SLOAD DUP2 PUSH1 0xFF MUL NOT AND SWAP1 DUP4 ISZERO ISZERO MUL OR SWAP1 SSTORE POP DUP4 DUP2 DUP2 MLOAD DUP2 LT PUSH2 0x18E JUMPI PUSH2 0x18E PUSH2 0x3C4 JUMP JUMPDEST PUSH1 0x20 MUL PUSH1 0x20 ADD ADD MLOAD PUSH1 0x1 PUSH1 0x1 PUSH1 0xA0 SHL SUB AND PUSH32 0x5AE067A93E2AF6193017728CB7E9EF5AF1D750A5BEB7B16A05B54D56F6F355E3 PUSH1 0x1 PUSH1 0x40 MLOAD PUSH2 0x1D3 SWAP2 ISZERO ISZERO DUP2 MSTORE PUSH1 0x20 ADD SWAP1 JUMP JUMPDEST PUSH1 0x40 MLOAD DUP1 SWAP2 SUB SWAP1 LOG2 PUSH1 0x1 ADD PUSH2 0x11F JUMP JUMPDEST POP PUSH1 0x40 MLOAD PUSH2 0xFFFF DUP3 AND DUP2 MSTORE PUSH1 0x1 PUSH1 0x1 PUSH1 0xA0 SHL SUB DUP4 AND SWAP1 PUSH32 0x25DB41E00C7B58EA3222B515559A00F3AF8F16B0F955B784582F23C554176D6F SWAP1 PUSH1 0x20 ADD PUSH1 0x40 MLOAD DUP1 SWAP2 SUB SWAP1 LOG2 POP POP POP PUSH2 0x3D8 JUMP JUMPDEST PUSH1 0x1 DUP1 SLOAD PUSH1 0x1 PUSH1 0x1 PUSH1 0xA0 SHL SUB NOT AND SWAP1 SSTORE PUSH2 0x247 DUP2 PUSH2 0x24A JUMP JUMPDEST POP JUMP JUMPDEST PUSH0 DUP1 SLOAD PUSH1 0x1 PUSH1 0x1 PUSH1 0xA0 SHL SUB DUP4 DUP2 AND PUSH1 0x1 PUSH1 0x1 PUSH1 0xA0 SHL SUB NOT DUP4 AND DUP2 OR DUP5 SSTORE PUSH1 0x40 MLOAD SWAP2 SWAP1 SWAP3 AND SWAP3 DUP4 SWAP2 PUSH32 0x8BE0079C531659141344CD1FD0A4F28419497F9722A3DAAFE3B4186F6B6457E0 SWAP2 SWAP1 LOG3 POP POP JUMP JUMPDEST PUSH4 0x4E487B71 PUSH1 0xE0 SHL PUSH0 MSTORE PUSH1 0x41 PUSH1 0x4 MSTORE PUSH1 0x24 PUSH0 REVERT JUMPDEST DUP1 MLOAD PUSH1 0x1 PUSH1 0x1 PUSH1 0xA0 SHL SUB DUP2 AND DUP2 EQ PUSH2 0x2C3 JUMPI PUSH0 PUSH0 REVERT JUMPDEST SWAP2 SWAP1 POP JUMP JUMPDEST DUP1 MLOAD PUSH2 0xFFFF DUP2 AND DUP2 EQ PUSH2 0x2C3 JUMPI PUSH0 PUSH0 REVERT JUMPDEST PUSH0 PUSH0 PUSH0 PUSH1 0x60 DUP5 DUP7 SUB SLT ISZERO PUSH2 0x2EB JUMPI PUSH0 PUSH0 REVERT JUMPDEST DUP4 MLOAD PUSH1 0x1 PUSH1 0x1 PUSH1 0x40 SHL SUB DUP2 GT ISZERO PUSH2 0x300 JUMPI PUSH0 PUSH0 REVERT JUMPDEST DUP5 ADD PUSH1 0x1F DUP2 ADD DUP7 SGT PUSH2 0x310 JUMPI PUSH0 PUSH0 REVERT JUMPDEST DUP1 MLOAD PUSH1 0x1 PUSH1 0x1 PUSH1 0x40 SHL SUB DUP2 GT ISZERO PUSH2 0x329 JUMPI PUSH2 0x329 PUSH2 0x299 JUMP JUMPDEST PUSH1 0x40 MLOAD PUSH1 0x5 DUP3 SWAP1 SHL SWAP1 PUSH1 0x3F DUP3 ADD PUSH1 0x1F NOT AND DUP2 ADD PUSH1 0x1 PUSH1 0x1 PUSH1 0x40 SHL SUB DUP2 GT DUP3 DUP3 LT OR ISZERO PUSH2 0x357 JUMPI PUSH2 0x357 PUSH2 0x299 JUMP JUMPDEST PUSH1 0x40 MSTORE SWAP2 DUP3 MSTORE PUSH1 0x20 DUP2 DUP5 ADD DUP2 ADD SWAP3 SWAP1 DUP2 ADD DUP10 DUP5 GT ISZERO PUSH2 0x374 JUMPI PUSH0 PUSH0 REVERT JUMPDEST PUSH1 0x20 DUP6 ADD SWAP5 POP JUMPDEST DUP4 DUP6 LT ISZERO PUSH2 0x39A JUMPI PUSH2 0x38C DUP6 PUSH2 0x2AD JUMP JUMPDEST DUP2 MSTORE PUSH1 0x20 SWAP5 DUP6 ADD SWAP5 ADD PUSH2 0x37B JUMP JUMPDEST POP SWAP6 POP PUSH2 0x3AD SWAP3 POP POP POP PUSH1 0x20 DUP6 ADD PUSH2 0x2AD JUMP JUMPDEST SWAP2 POP PUSH2 0x3BB PUSH1 0x40 DUP6 ADD PUSH2 0x2C8 JUMP JUMPDEST SWAP1 POP SWAP3 POP SWAP3 POP SWAP3 JUMP JUMPDEST PUSH4 0x4E487B71 PUSH1 0xE0 SHL PUSH0 MSTORE PUSH1 0x32 PUSH1 0x4 MSTORE PUSH1 0x24 PUSH0 REVERT JUMPDEST PUSH2 0x20A9 DUP1 PUSH2 0x3E5 PUSH0 CODECOPY PUSH0 RETURN INVALID PUSH1 0x80 PUSH1 0x40 MSTORE PUSH1 0x4 CALLDATASIZE LT PUSH2 0x134 JUMPI PUSH0 CALLDATALOAD PUSH1 0xE0 SHR DUP1 PUSH4 0x79BA5097 GT PUSH2 0xA8 JUMPI DUP1 PUSH4 0xE30C3978 GT PUSH2 0x6D JUMPI DUP1 PUSH4 0xE30C3978 EQ PUSH2 0x3E4 JUMPI DUP1 PUSH4 0xE5711E8B EQ PUSH2 0x401 JUMPI DUP1 PUSH4 0xF2FDE38B EQ PUSH2 0x420 JUMPI DUP1 PUSH4 0xF87B098C EQ PUSH2 0x43F JUMPI DUP1 PUSH4 0xFDD5791E EQ PUSH2 0x45E JUMPI DUP1 PUSH4 0xFF7551E3 EQ PUSH2 0x489 JUMPI PUSH0 PUSH0 REVERT JUMPDEST DUP1 PUSH4 0x79BA5097 EQ PUSH2 0x35E JUMPI DUP1 PUSH4 0x8456CB59 EQ PUSH2 0x372 JUMPI DUP1 PUSH4 0x8DA5CB5B EQ PUSH2 0x386 JUMPI DUP1 PUSH4 0xC226C4BB EQ PUSH2 0x3A2 JUMPI DUP1 PUSH4 0xD55BE8C6 EQ PUSH2 0x3D0 JUMPI PUSH0 PUSH0 REVERT JUMPDEST DUP1 PUSH4 0x46904840 GT PUSH2 0xF9 JUMPI DUP1 PUSH4 0x46904840 EQ PUSH2 0x245 JUMPI DUP1 PUSH4 0x52FD5099 EQ PUSH2 0x282 JUMPI DUP1 PUSH4 0x5B7499B5 EQ PUSH2 0x2DB JUMPI DUP1 PUSH4 0x5C975ABB EQ PUSH2 0x2FA JUMPI DUP1 PUSH4 0x6BDC40A6 EQ PUSH2 0x31D JUMPI DUP1 PUSH4 0x715018A6 EQ PUSH2 0x34A JUMPI PUSH0 PUSH0 REVERT JUMPDEST DUP1 PUSH4 0x23DD7F39 EQ PUSH2 0x173 JUMPI DUP1 PUSH4 0x350E9756 EQ PUSH2 0x1C4 JUMPI DUP1 PUSH4 0x35659FB8 EQ PUSH2 0x1E5 JUMPI DUP1 PUSH4 0x39A5B0CD EQ PUSH2 0x212 JUMPI DUP1 PUSH4 0x3F4BA83A EQ PUSH2 0x231 JUMPI PUSH0 PUSH0 REVERT JUMPDEST CALLDATASIZE PUSH2 0x16F JUMPI PUSH1 0x40 MLOAD PUSH3 0x461BCD PUSH1 0xE5 SHL DUP2 MSTORE PUSH1 0x20 PUSH1 0x4 DUP3 ADD MSTORE PUSH1 0x6 PUSH1 0x24 DUP3 ADD MSTORE PUSH6 0x9C9EBE8AA89 PUSH1 0xD3 SHL PUSH1 0x44 DUP3 ADD MSTORE PUSH1 0x64 ADD JUMPDEST PUSH1 0x40 MLOAD DUP1 SWAP2 SUB SWAP1 REVERT JUMPDEST PUSH0 PUSH0 REVERT JUMPDEST CALLVALUE DUP1 ISZERO PUSH2 0x17E JUMPI PUSH0 PUSH0 REVERT JUMPDEST POP PUSH2 0x1A7 PUSH2 0x18D CALLDATASIZE PUSH1 0x4 PUSH2 0x1B5A JUMP JUMPDEST PUSH1 0x7 PUSH1 0x20 MSTORE PUSH0 SWAP1 DUP2 MSTORE PUSH1 0x40 SWAP1 KECCAK256 SLOAD PUSH1 0x1 PUSH1 0x1 PUSH1 0x40 SHL SUB AND DUP2 JUMP JUMPDEST PUSH1 0x40 MLOAD PUSH1 0x1 PUSH1 0x1 PUSH1 0x40 SHL SUB SWAP1 SWAP2 AND DUP2 MSTORE PUSH1 0x20 ADD JUMPDEST PUSH1 0x40 MLOAD DUP1 SWAP2 SUB SWAP1 RETURN JUMPDEST CALLVALUE DUP1 ISZERO PUSH2 0x1CF JUMPI PUSH0 PUSH0 REVERT JUMPDEST POP PUSH2 0x1E3 PUSH2 0x1DE CALLDATASIZE PUSH1 0x4 PUSH2 0x1B7A JUMP JUMPDEST PUSH2 0x49D JUMP JUMPDEST STOP JUMPDEST CALLVALUE DUP1 ISZERO PUSH2 0x1F0 JUMPI PUSH0 PUSH0 REVERT JUMPDEST POP PUSH1 0x5 SLOAD PUSH2 0x1FF SWAP1 PUSH2 0xFFFF AND DUP2 JUMP JUMPDEST PUSH1 0x40 MLOAD PUSH2 0xFFFF SWAP1 SWAP2 AND DUP2 MSTORE PUSH1 0x20 ADD PUSH2 0x1BB JUMP JUMPDEST CALLVALUE DUP1 ISZERO PUSH2 0x21D JUMPI PUSH0 PUSH0 REVERT JUMPDEST POP PUSH2 0x1E3 PUSH2 0x22C CALLDATASIZE PUSH1 0x4 PUSH2 0x1BB5 JUMP JUMPDEST PUSH2 0x5A0 JUMP JUMPDEST CALLVALUE DUP1 ISZERO PUSH2 0x23C JUMPI PUSH0 PUSH0 REVERT JUMPDEST POP PUSH2 0x1E3 PUSH2 0x5FF JUMP JUMPDEST CALLVALUE DUP1 ISZERO PUSH2 0x250 JUMPI PUSH0 PUSH0 REVERT JUMPDEST POP PUSH1 0x5 SLOAD PUSH2 0x26A SWAP1 PUSH3 0x10000 SWAP1 DIV PUSH1 0x1 PUSH1 0x1 PUSH1 0xA0 SHL SUB AND DUP2 JUMP JUMPDEST PUSH1 0x40 MLOAD PUSH1 0x1 PUSH1 0x1 PUSH1 0xA0 SHL SUB SWAP1 SWAP2 AND DUP2 MSTORE PUSH1 0x20 ADD PUSH2 0x1BB JUMP JUMPDEST CALLVALUE DUP1 ISZERO PUSH2 0x28D JUMPI PUSH0 PUSH0 REVERT JUMPDEST POP PUSH2 0x2A1 PUSH2 0x29C CALLDATASIZE PUSH1 0x4 PUSH2 0x1C23 JUMP JUMPDEST PUSH2 0x63B JUMP JUMPDEST PUSH1 0x40 DUP1 MLOAD SWAP6 ISZERO ISZERO DUP7 MSTORE PUSH1 0x1 PUSH1 0x1 PUSH1 0xA0 SHL SUB SWAP5 DUP6 AND PUSH1 0x20 DUP8 ADD MSTORE SWAP3 SWAP1 SWAP4 AND SWAP2 DUP5 ADD SWAP2 SWAP1 SWAP2 MSTORE PUSH2 0xFFFF AND PUSH1 0x60 DUP4 ADD MSTORE PUSH1 0x80 DUP3 ADD MSTORE PUSH1 0xA0 ADD PUSH2 0x1BB JUMP JUMPDEST CALLVALUE DUP1 ISZERO PUSH2 0x2E6 JUMPI PUSH0 PUSH0 REVERT JUMPDEST POP PUSH2 0x1E3 PUSH2 0x2F5 CALLDATASIZE PUSH1 0x4 PUSH2 0x1C9A JUMP JUMPDEST PUSH2 0x775 JUMP JUMPDEST CALLVALUE DUP1 ISZERO PUSH2 0x305 JUMPI PUSH0 PUSH0 REVERT JUMPDEST POP PUSH1 0x3 SLOAD PUSH1 0xFF AND JUMPDEST PUSH1 0x40 MLOAD SWAP1 ISZERO ISZERO DUP2 MSTORE PUSH1 0x20 ADD PUSH2 0x1BB JUMP JUMPDEST CALLVALUE DUP1 ISZERO PUSH2 0x328 JUMPI PUSH0 PUSH0 REVERT JUMPDEST POP PUSH2 0x33C PUSH2 0x337 CALLDATASIZE PUSH1 0x4 PUSH2 0x1CB1 JUMP JUMPDEST PUSH2 0x7E6 JUMP JUMPDEST PUSH1 0x40 MLOAD SWAP1 DUP2 MSTORE PUSH1 0x20 ADD PUSH2 0x1BB JUMP JUMPDEST CALLVALUE DUP1 ISZERO PUSH2 0x355 JUMPI PUSH0 PUSH0 REVERT JUMPDEST POP PUSH2 0x1E3 PUSH2 0x998 JUMP JUMPDEST CALLVALUE DUP1 ISZERO PUSH2 0x369 JUMPI PUSH0 PUSH0 REVERT JUMPDEST POP PUSH2 0x1E3 PUSH2 0x9AB JUMP JUMPDEST CALLVALUE DUP1 ISZERO PUSH2 0x37D JUMPI PUSH0 PUSH0 REVERT JUMPDEST POP PUSH2 0x1E3 PUSH2 0x9EF JUMP JUMPDEST CALLVALUE DUP1 ISZERO PUSH2 0x391 JUMPI PUSH0 PUSH0 REVERT JUMPDEST POP PUSH0 SLOAD PUSH1 0x1 PUSH1 0x1 PUSH1 0xA0 SHL SUB AND PUSH2 0x26A JUMP JUMPDEST CALLVALUE DUP1 ISZERO PUSH2 0x3AD JUMPI PUSH0 PUSH0 REVERT JUMPDEST POP PUSH2 0x30D PUSH2 0x3BC CALLDATASIZE PUSH1 0x4 PUSH2 0x1B5A JUMP JUMPDEST PUSH1 0x4 PUSH1 0x20 MSTORE PUSH0 SWAP1 DUP2 MSTORE PUSH1 0x40 SWAP1 KECCAK256 SLOAD PUSH1 0xFF AND DUP2 JUMP JUMPDEST CALLVALUE DUP1 ISZERO PUSH2 0x3DB JUMPI PUSH0 PUSH0 REVERT JUMPDEST POP PUSH2 0x1FF PUSH1 0xC8 DUP2 JUMP JUMPDEST CALLVALUE DUP1 ISZERO PUSH2 0x3EF JUMPI PUSH0 PUSH0 REVERT JUMPDEST POP PUSH1 0x1 SLOAD PUSH1 0x1 PUSH1 0x1 PUSH1 0xA0 SHL SUB AND PUSH2 0x26A JUMP JUMPDEST CALLVALUE DUP1 ISZERO PUSH2 0x40C JUMPI PUSH0 PUSH0 REVERT JUMPDEST POP PUSH2 0x1E3 PUSH2 0x41B CALLDATASIZE PUSH1 0x4 PUSH2 0x1D3F JUMP JUMPDEST PUSH2 0xA2B JUMP JUMPDEST CALLVALUE DUP1 ISZERO PUSH2 0x42B JUMPI PUSH0 PUSH0 REVERT JUMPDEST POP PUSH2 0x1E3 PUSH2 0x43A CALLDATASIZE PUSH1 0x4 PUSH2 0x1B5A JUMP JUMPDEST PUSH2 0xA4C JUMP JUMPDEST CALLVALUE DUP1 ISZERO PUSH2 0x44A JUMPI PUSH0 PUSH0 REVERT JUMPDEST POP PUSH2 0x33C PUSH2 0x459 CALLDATASIZE PUSH1 0x4 PUSH2 0x1D79 JUMP JUMPDEST PUSH2 0xABC JUMP JUMPDEST CALLVALUE DUP1 ISZERO PUSH2 0x469 JUMPI PUSH0 PUSH0 REVERT JUMPDEST POP PUSH2 0x33C PUSH2 0x478 CALLDATASIZE PUSH1 0x4 PUSH2 0x1B5A JUMP JUMPDEST PUSH1 0x6 PUSH1 0x20 MSTORE PUSH0 SWAP1 DUP2 MSTORE PUSH1 0x40 SWAP1 KECCAK256 SLOAD DUP2 JUMP JUMPDEST CALLVALUE DUP1 ISZERO PUSH2 0x494 JUMPI PUSH0 PUSH0 REVERT JUMPDEST POP PUSH2 0x1E3 PUSH2 0xD85 JUMP JUMPDEST PUSH2 0x4A5 PUSH2 0xDD7 JUMP JUMPDEST PUSH1 0x1 PUSH1 0x1 PUSH1 0xA0 SHL SUB DUP3 AND PUSH2 0x4F0 JUMPI PUSH1 0x40 MLOAD PUSH3 0x461BCD PUSH1 0xE5 SHL DUP2 MSTORE PUSH1 0x20 PUSH1 0x4 DUP3 ADD MSTORE PUSH1 0x12 PUSH1 0x24 DUP3 ADD MSTORE PUSH18 0x4645455F524543495049454E545F5A45524F PUSH1 0x70 SHL PUSH1 0x44 DUP3 ADD MSTORE PUSH1 0x64 ADD PUSH2 0x166 JUMP JUMPDEST PUSH1 0xC8 PUSH2 0xFFFF DUP3 AND GT ISZERO PUSH2 0x534 JUMPI PUSH1 0x40 MLOAD PUSH3 0x461BCD PUSH1 0xE5 SHL DUP2 MSTORE PUSH1 0x20 PUSH1 0x4 DUP3 ADD MSTORE PUSH1 0xC PUSH1 0x24 DUP3 ADD MSTORE PUSH12 0x8C8A8ABEA89E9EBE90928E9 PUSH1 0xA3 SHL PUSH1 0x44 DUP3 ADD MSTORE PUSH1 0x64 ADD PUSH2 0x166 JUMP JUMPDEST PUSH1 0x5 DUP1 SLOAD PUSH1 0x1 PUSH1 0x1 PUSH1 0xB0 SHL SUB NOT AND PUSH3 0x10000 PUSH1 0x1 PUSH1 0x1 PUSH1 0xA0 SHL SUB DUP6 AND SWAP1 DUP2 MUL PUSH2 0xFFFF NOT AND SWAP2 SWAP1 SWAP2 OR PUSH2 0xFFFF DUP5 AND SWAP1 DUP2 OR SWAP1 SWAP3 SSTORE PUSH1 0x40 MLOAD SWAP2 DUP3 MSTORE SWAP1 PUSH32 0x25DB41E00C7B58EA3222B515559A00F3AF8F16B0F955B784582F23C554176D6F SWAP1 PUSH1 0x20 ADD JUMPDEST PUSH1 0x40 MLOAD DUP1 SWAP2 SUB SWAP1 LOG2 POP POP JUMP JUMPDEST PUSH2 0x5A8 PUSH2 0xDD7 JUMP JUMPDEST PUSH1 0x1 PUSH1 0x1 PUSH1 0xA0 SHL SUB DUP3 AND PUSH0 DUP2 DUP2 MSTORE PUSH1 0x4 PUSH1 0x20 SWAP1 DUP2 MSTORE PUSH1 0x40 SWAP2 DUP3 SWAP1 KECCAK256 DUP1 SLOAD PUSH1 0xFF NOT AND DUP6 ISZERO ISZERO SWAP1 DUP2 OR SWAP1 SWAP2 SSTORE SWAP2 MLOAD SWAP2 DUP3 MSTORE PUSH32 0x5AE067A93E2AF6193017728CB7E9EF5AF1D750A5BEB7B16A05B54D56F6F355E3 SWAP2 ADD PUSH2 0x594 JUMP JUMPDEST PUSH2 0x607 PUSH2 0xDD7 JUMP JUMPDEST PUSH2 0x60F PUSH2 0xE03 JUMP JUMPDEST PUSH1 0x40 MLOAD CALLER SWAP1 PUSH32 0x71F955ADBEF5DBB4E16ECD587D398F94155EDD0A14295FC23975B92A95B793F7 SWAP1 PUSH0 SWAP1 LOG2 JUMP JUMPDEST PUSH0 DUP1 DUP1 DUP1 DUP1 PUSH1 0x2 DUP7 LT ISZERO PUSH2 0x67C JUMPI PUSH1 0x40 MLOAD PUSH3 0x461BCD PUSH1 0xE5 SHL DUP2 MSTORE PUSH1 0x20 PUSH1 0x4 DUP3 ADD MSTORE PUSH1 0x8 PUSH1 0x24 DUP3 ADD MSTORE PUSH8 0x848288BEA082A89 PUSH1 0xC3 SHL PUSH1 0x44 DUP3 ADD MSTORE PUSH1 0x64 ADD PUSH2 0x166 JUMP JUMPDEST PUSH1 0x1 DUP9 LT DUP1 ISZERO SWAP1 PUSH2 0x68E JUMPI POP PUSH1 0x5 DUP9 GT ISZERO JUMPDEST PUSH2 0x6CB JUMPI PUSH1 0x40 MLOAD PUSH3 0x461BCD PUSH1 0xE5 SHL DUP2 MSTORE PUSH1 0x20 PUSH1 0x4 DUP3 ADD MSTORE PUSH1 0xE PUSH1 0x24 DUP3 ADD MSTORE PUSH14 0x524F55544552535F315F544F5F35 PUSH1 0x90 SHL PUSH1 0x44 DUP3 ADD MSTORE PUSH1 0x64 ADD PUSH2 0x166 JUMP JUMPDEST PUSH0 PUSH0 PUSH2 0x6DA DUP13 DUP13 DUP13 DUP13 DUP13 PUSH2 0xE55 JUMP JUMPDEST SWAP2 POP SWAP2 POP PUSH0 PUSH2 0x6EC DUP14 DUP14 DUP14 DUP14 DUP14 PUSH2 0xF20 JUMP JUMPDEST PUSH1 0x40 DUP2 ADD MLOAD SWAP1 SWAP2 POP PUSH1 0x1 PUSH1 0x1 PUSH1 0xA0 SHL SUB AND PUSH2 0x715 JUMPI POP PUSH0 SWAP7 POP SWAP1 SWAP5 POP DUP6 SWAP4 POP DUP4 SWAP3 POP SWAP1 POP PUSH2 0x768 JUMP JUMPDEST PUSH0 PUSH0 PUSH2 0x72B DUP16 DUP5 PUSH0 ADD MLOAD DUP6 PUSH1 0x40 ADD MLOAD DUP16 DUP16 PUSH2 0x1086 JUMP JUMPDEST SWAP2 POP SWAP2 POP DUP4 DUP2 GT ISZERO PUSH2 0x755 JUMPI DUP3 MLOAD PUSH1 0x40 SWAP1 SWAP4 ADD MLOAD PUSH1 0x1 SWAP11 POP SWAP3 SWAP9 POP SWAP2 SWAP7 POP SWAP5 POP SWAP3 POP PUSH2 0x768 SWAP2 POP POP JUMP JUMPDEST POP PUSH0 SWAP9 POP SWAP3 SWAP7 POP DUP8 SWAP6 POP DUP6 SWAP5 POP SWAP1 SWAP3 POP POP POP JUMPDEST SWAP6 POP SWAP6 POP SWAP6 POP SWAP6 POP SWAP6 SWAP1 POP JUMP JUMPDEST PUSH2 0x77D PUSH2 0x117B JUMP JUMPDEST CALLER PUSH0 DUP2 DUP2 MSTORE PUSH1 0x6 PUSH1 0x20 SWAP1 DUP2 MSTORE PUSH1 0x40 DUP1 DUP4 KECCAK256 DUP6 SWAP1 SSTORE PUSH1 0x7 DUP3 MSTORE SWAP2 DUP3 SWAP1 KECCAK256 DUP1 SLOAD PUSH8 0xFFFFFFFFFFFFFFFF NOT AND NUMBER PUSH1 0x1 PUSH1 0x1 PUSH1 0x40 SHL SUB AND OR SWAP1 SSTORE SWAP1 MLOAD DUP4 DUP2 MSTORE PUSH32 0xBC18D35EBC445DE56FB4B050FCAB7487B4D634BEDB37FDD73DB4A87BB17E508E SWAP2 ADD PUSH1 0x40 MLOAD DUP1 SWAP2 SUB SWAP1 LOG2 POP JUMP JUMPDEST PUSH0 PUSH2 0x7EF PUSH2 0x119F JUMP JUMPDEST PUSH2 0x7F7 PUSH2 0x117B JUMP JUMPDEST PUSH0 CALLER DUP11 DUP11 DUP11 DUP11 DUP11 DUP11 DUP11 DUP11 PUSH1 0x40 MLOAD PUSH1 0x20 ADD PUSH2 0x819 SWAP10 SWAP9 SWAP8 SWAP7 SWAP6 SWAP5 SWAP4 SWAP3 SWAP2 SWAP1 PUSH2 0x1E47 JUMP JUMPDEST PUSH1 0x40 DUP1 MLOAD PUSH1 0x1F NOT DUP2 DUP5 SUB ADD DUP2 MSTORE SWAP2 DUP2 MSTORE DUP2 MLOAD PUSH1 0x20 SWAP3 DUP4 ADD KECCAK256 CALLER PUSH0 SWAP1 DUP2 MSTORE PUSH1 0x6 SWAP1 SWAP4 MSTORE SWAP2 KECCAK256 SLOAD SWAP1 SWAP2 POP PUSH2 0x879 JUMPI PUSH1 0x40 MLOAD PUSH3 0x461BCD PUSH1 0xE5 SHL DUP2 MSTORE PUSH1 0x20 PUSH1 0x4 DUP3 ADD MSTORE PUSH1 0x9 PUSH1 0x24 DUP3 ADD MSTORE PUSH9 0x1393D7D0D3D3535255 PUSH1 0xBA SHL PUSH1 0x44 DUP3 ADD MSTORE PUSH1 0x64 ADD PUSH2 0x166 JUMP JUMPDEST CALLER PUSH0 SWAP1 DUP2 MSTORE PUSH1 0x6 PUSH1 0x20 MSTORE PUSH1 0x40 SWAP1 KECCAK256 SLOAD DUP2 EQ PUSH2 0x8C3 JUMPI PUSH1 0x40 MLOAD PUSH3 0x461BCD PUSH1 0xE5 SHL DUP2 MSTORE PUSH1 0x20 PUSH1 0x4 DUP3 ADD MSTORE PUSH1 0xA PUSH1 0x24 DUP3 ADD MSTORE PUSH10 0x10905117D0D3D3535255 PUSH1 0xB2 SHL PUSH1 0x44 DUP3 ADD MSTORE PUSH1 0x64 ADD PUSH2 0x166 JUMP JUMPDEST CALLER PUSH0 SWAP1 DUP2 MSTORE PUSH1 0x7 PUSH1 0x20 MSTORE PUSH1 0x40 SWAP1 KECCAK256 SLOAD PUSH1 0x1 PUSH1 0x1 PUSH1 0x40 SHL SUB NUMBER DUP2 AND SWAP2 AND LT PUSH2 0x920 JUMPI PUSH1 0x40 MLOAD PUSH3 0x461BCD PUSH1 0xE5 SHL DUP2 MSTORE PUSH1 0x20 PUSH1 0x4 DUP3 ADD MSTORE PUSH1 0x11 PUSH1 0x24 DUP3 ADD MSTORE PUSH17 0x52455645414C5F4E4558545F424C4F434B PUSH1 0x78 SHL PUSH1 0x44 DUP3 ADD MSTORE PUSH1 0x64 ADD PUSH2 0x166 JUMP JUMPDEST CALLER PUSH0 DUP2 DUP2 MSTORE PUSH1 0x6 PUSH1 0x20 SWAP1 DUP2 MSTORE PUSH1 0x40 DUP1 DUP4 KECCAK256 DUP4 SWAP1 SSTORE PUSH1 0x7 SWAP1 SWAP2 MSTORE DUP1 DUP3 KECCAK256 DUP1 SLOAD PUSH8 0xFFFFFFFFFFFFFFFF NOT AND SWAP1 SSTORE MLOAD PUSH32 0x1987E6A4CE537A918D38185D7C3A5A6BEAF7AB33A80362F59EAB4EC9FDD43ED5 SWAP2 SWAP1 LOG2 PUSH2 0x97F DUP11 DUP11 DUP11 DUP11 DUP11 DUP11 DUP11 PUSH2 0xABC JUMP JUMPDEST SWAP2 POP POP PUSH2 0x98C PUSH1 0x1 PUSH1 0x2 SSTORE JUMP JUMPDEST SWAP9 SWAP8 POP POP POP POP POP POP POP POP JUMP JUMPDEST PUSH2 0x9A0 PUSH2 0xDD7 JUMP JUMPDEST PUSH2 0x9A9 PUSH0 PUSH2 0x11C7 JUMP JUMPDEST JUMP JUMPDEST PUSH1 0x1 SLOAD CALLER SWAP1 PUSH1 0x1 PUSH1 0x1 PUSH1 0xA0 SHL SUB AND DUP2 EQ PUSH2 0x9E3 JUMPI PUSH1 0x40 MLOAD PUSH4 0x118CDAA7 PUSH1 0xE0 SHL DUP2 MSTORE PUSH1 0x1 PUSH1 0x1 PUSH1 0xA0 SHL SUB DUP3 AND PUSH1 0x4 DUP3 ADD MSTORE PUSH1 0x24 ADD PUSH2 0x166 JUMP JUMPDEST PUSH2 0x9EC DUP2 PUSH2 0x11C7 JUMP JUMPDEST POP JUMP JUMPDEST PUSH2 0x9F7 PUSH2 0xDD7 JUMP JUMPDEST PUSH2 0x9FF PUSH2 0x11E0 JUMP JUMPDEST PUSH1 0x40 MLOAD CALLER SWAP1 PUSH32 0x314364159151B7B18F5EBE5FF7560D5D2BDA61579A0B674A2967E01CD7686955 SWAP1 PUSH0 SWAP1 LOG2 JUMP JUMPDEST PUSH2 0xA33 PUSH2 0xDD7 JUMP JUMPDEST PUSH2 0xA47 PUSH1 0x1 PUSH1 0x1 PUSH1 0xA0 SHL SUB DUP5 AND DUP4 DUP4 PUSH2 0x121D JUMP JUMPDEST POP POP POP JUMP JUMPDEST PUSH2 0xA54 PUSH2 0xDD7 JUMP JUMPDEST PUSH1 0x1 DUP1 SLOAD PUSH1 0x1 PUSH1 0x1 PUSH1 0xA0 SHL SUB DUP4 AND PUSH1 0x1 PUSH1 0x1 PUSH1 0xA0 SHL SUB NOT SWAP1 SWAP2 AND DUP2 OR SWAP1 SWAP2 SSTORE PUSH2 0xA84 PUSH0 SLOAD PUSH1 0x1 PUSH1 0x1 PUSH1 0xA0 SHL SUB AND SWAP1 JUMP JUMPDEST PUSH1 0x1 PUSH1 0x1 PUSH1 0xA0 SHL SUB AND PUSH32 0x38D16B8CAC22D99FC7C124B9CD0DE2D3FA1FAEF420BFE791D8C362D765E22700 PUSH1 0x40 MLOAD PUSH1 0x40 MLOAD DUP1 SWAP2 SUB SWAP1 LOG3 POP JUMP JUMPDEST PUSH0 PUSH2 0xAC5 PUSH2 0x119F JUMP JUMPDEST PUSH2 0xACD PUSH2 0x117B JUMP JUMPDEST PUSH1 0x2 DUP4 LT ISZERO PUSH2 0xB09 JUMPI PUSH1 0x40 MLOAD PUSH3 0x461BCD PUSH1 0xE5 SHL DUP2 MSTORE PUSH1 0x20 PUSH1 0x4 DUP3 ADD MSTORE PUSH1 0x8 PUSH1 0x24 DUP3 ADD MSTORE PUSH8 0x848288BEA082A89 PUSH1 0xC3 SHL PUSH1 0x44 DUP3 ADD MSTORE PUSH1 0x64 ADD PUSH2 0x166 JUMP JUMPDEST PUSH1 0x1 DUP6 LT DUP1 ISZERO SWAP1 PUSH2 0xB1B JUMPI POP PUSH1 0x5 DUP6 GT ISZERO JUMPDEST PUSH2 0xB58 JUMPI PUSH1 0x40 MLOAD PUSH3 0x461BCD PUSH1 0xE5 SHL DUP2 MSTORE PUSH1 0x20 PUSH1 0x4 DUP3 ADD MSTORE PUSH1 0xE PUSH1 0x24 DUP3 ADD MSTORE PUSH14 0x524F55544552535F315F544F5F35 PUSH1 0x90 SHL PUSH1 0x44 DUP3 ADD MSTORE PUSH1 0x64 ADD PUSH2 0x166 JUMP JUMPDEST DUP2 TIMESTAMP GT ISZERO PUSH2 0xB9A JUMPI PUSH1 0x40 MLOAD PUSH3 0x461BCD PUSH1 0xE5 SHL DUP2 MSTORE PUSH1 0x20 PUSH1 0x4 DUP3 ADD MSTORE PUSH1 0xF PUSH1 0x24 DUP3 ADD MSTORE PUSH15 0x111150511312539157D41054D4D151 PUSH1 0x8A SHL PUSH1 0x44 DUP3 ADD MSTORE PUSH1 0x64 ADD PUSH2 0x166 JUMP JUMPDEST PUSH0 JUMPDEST DUP6 DUP2 LT ISZERO PUSH2 0xC33 JUMPI PUSH1 0x4 PUSH0 DUP9 DUP9 DUP5 DUP2 DUP2 LT PUSH2 0xBB9 JUMPI PUSH2 0xBB9 PUSH2 0x1EA0 JUMP JUMPDEST SWAP1 POP PUSH1 0x20 MUL ADD PUSH1 0x20 DUP2 ADD SWAP1 PUSH2 0xBCE SWAP2 SWAP1 PUSH2 0x1B5A JUMP JUMPDEST PUSH1 0x1 PUSH1 0x1 PUSH1 0xA0 SHL SUB AND DUP2 MSTORE PUSH1 0x20 DUP2 ADD SWAP2 SWAP1 SWAP2 MSTORE PUSH1 0x40 ADD PUSH0 KECCAK256 SLOAD PUSH1 0xFF AND PUSH2 0xC2B JUMPI PUSH1 0x40 MLOAD PUSH3 0x461BCD PUSH1 0xE5 SHL DUP2 MSTORE PUSH1 0x20 PUSH1 0x4 DUP3 ADD MSTORE PUSH1 0x12 PUSH1 0x24 DUP3 ADD MSTORE PUSH18 0x1493D555115497D393D517D0531313D5D151 PUSH1 0x72 SHL PUSH1 0x44 DUP3 ADD MSTORE PUSH1 0x64 ADD PUSH2 0x166 JUMP JUMPDEST PUSH1 0x1 ADD PUSH2 0xB9C JUMP JUMPDEST POP PUSH1 0x40 DUP1 MLOAD PUSH1 0x80 DUP2 ADD DUP3 MSTORE PUSH0 DUP1 DUP3 MSTORE PUSH1 0x20 DUP3 ADD DUP2 SWAP1 MSTORE SWAP2 DUP2 ADD DUP3 SWAP1 MSTORE PUSH1 0x60 DUP2 ADD SWAP2 SWAP1 SWAP2 MSTORE DUP5 DUP5 PUSH0 DUP2 DUP2 LT PUSH2 0xC69 JUMPI PUSH2 0xC69 PUSH2 0x1EA0 JUMP JUMPDEST SWAP1 POP PUSH1 0x20 MUL ADD PUSH1 0x20 DUP2 ADD SWAP1 PUSH2 0xC7E SWAP2 SWAP1 PUSH2 0x1B5A JUMP JUMPDEST PUSH1 0x1 PUSH1 0x1 PUSH1 0xA0 SHL SUB AND DUP2 MSTORE DUP5 DUP5 PUSH2 0xC96 PUSH1 0x1 DUP3 PUSH2 0x1EC8 JUMP JUMPDEST DUP2 DUP2 LT PUSH2 0xCA5 JUMPI PUSH2 0xCA5 PUSH2 0x1EA0 JUMP JUMPDEST SWAP1 POP PUSH1 0x20 MUL ADD PUSH1 0x20 DUP2 ADD SWAP1 PUSH2 0xCBA SWAP2 SWAP1 PUSH2 0x1B5A JUMP JUMPDEST PUSH1 0x1 PUSH1 0x1 PUSH1 0xA0 SHL SUB AND PUSH1 0x20 DUP3 ADD MSTORE PUSH1 0x40 DUP2 ADD DUP4 SWAP1 MSTORE PUSH1 0x60 DUP2 ADD DUP9 SWAP1 MSTORE DUP1 MLOAD PUSH0 SWAP1 PUSH2 0xCE5 SWAP1 CALLER DUP13 PUSH2 0x127C JUMP JUMPDEST SWAP1 POP PUSH0 DUP2 GT PUSH2 0xD20 JUMPI PUSH1 0x40 MLOAD PUSH3 0x461BCD PUSH1 0xE5 SHL DUP2 MSTORE PUSH1 0x20 PUSH1 0x4 DUP3 ADD MSTORE PUSH1 0x7 PUSH1 0x24 DUP3 ADD MSTORE PUSH7 0x2D22A927AFA4A7 PUSH1 0xC9 SHL PUSH1 0x44 DUP3 ADD MSTORE PUSH1 0x64 ADD PUSH2 0x166 JUMP JUMPDEST PUSH0 PUSH2 0xD2E DUP3 DUP11 DUP11 DUP11 DUP11 PUSH2 0x137B JUMP JUMPDEST DUP1 MLOAD SWAP1 SWAP2 POP PUSH2 0xD4F JUMPI PUSH2 0xD48 DUP4 DUP3 PUSH1 0x20 ADD MLOAD DUP5 DUP11 DUP11 PUSH2 0x1467 JUMP JUMPDEST SWAP4 POP PUSH2 0xD6D JUMP JUMPDEST PUSH2 0xD6A DUP4 DUP3 PUSH1 0x20 ADD MLOAD DUP4 PUSH1 0x40 ADD MLOAD DUP6 DUP6 PUSH1 0x60 ADD MLOAD DUP13 DUP13 PUSH2 0x1500 JUMP JUMPDEST SWAP4 POP JUMPDEST POP POP POP PUSH2 0xD7A PUSH1 0x1 PUSH1 0x2 SSTORE JUMP JUMPDEST SWAP8 SWAP7 POP POP POP POP POP POP POP JUMP JUMPDEST CALLER PUSH0 DUP2 DUP2 MSTORE PUSH1 0x6 PUSH1 0x20 SWAP1 DUP2 MSTORE PUSH1 0x40 DUP1 DUP4 KECCAK256 DUP4 SWAP1 SSTORE PUSH1 0x7 SWAP1 SWAP2 MSTORE DUP1 DUP3 KECCAK256 DUP1 SLOAD PUSH8 0xFFFFFFFFFFFFFFFF NOT AND SWAP1 SSTORE MLOAD PUSH32 0x1987E6A4CE537A918D38185D7C3A5A6BEAF7AB33A80362F59EAB4EC9FDD43ED5 SWAP2 SWAP1 LOG2 JUMP JUMPDEST PUSH0 SLOAD PUSH1 0x1 PUSH1 0x1 PUSH1 0xA0 SHL SUB AND CALLER EQ PUSH2 0x9A9 JUMPI PUSH1 0x40 MLOAD PUSH4 0x118CDAA7 PUSH1 0xE0 SHL DUP2 MSTORE CALLER PUSH1 0x4 DUP3 ADD MSTORE PUSH1 0x24 ADD PUSH2 0x166 JUMP JUMPDEST PUSH2 0xE0B PUSH2 0x160E JUMP JUMPDEST PUSH1 0x3 DUP1 SLOAD PUSH1 0xFF NOT AND SWAP1 SSTORE PUSH32 0x5DB9EE0A495BF2E6FF9C91A7834C1BA4FDD244A5E8AA4E537BD38AEAE4B073AA CALLER JUMPDEST PUSH1 0x40 MLOAD PUSH1 0x1 PUSH1 0x1 PUSH1 0xA0 SHL SUB SWAP1 SWAP2 AND DUP2 MSTORE PUSH1 0x20 ADD PUSH1 0x40 MLOAD DUP1 SWAP2 SUB SWAP1 LOG1 JUMP JUMPDEST PUSH0 DUP1 DUP1 JUMPDEST DUP6 DUP2 LT ISZERO PUSH2 0xED4 JUMPI PUSH0 PUSH2 0xE94 DUP9 DUP9 DUP5 DUP2 DUP2 LT PUSH2 0xE77 JUMPI PUSH2 0xE77 PUSH2 0x1EA0 JUMP JUMPDEST SWAP1 POP PUSH1 0x20 MUL ADD PUSH1 0x20 DUP2 ADD SWAP1 PUSH2 0xE8C SWAP2 SWAP1 PUSH2 0x1B5A JUMP JUMPDEST DUP11 DUP9 DUP9 PUSH2 0x1631 JUMP JUMPDEST SWAP1 POP DUP3 DUP2 GT ISZERO PUSH2 0xECB JUMPI DUP1 SWAP3 POP DUP8 DUP8 DUP4 DUP2 DUP2 LT PUSH2 0xEB3 JUMPI PUSH2 0xEB3 PUSH2 0x1EA0 JUMP JUMPDEST SWAP1 POP PUSH1 0x20 MUL ADD PUSH1 0x20 DUP2 ADD SWAP1 PUSH2 0xEC8 SWAP2 SWAP1 PUSH2 0x1B5A JUMP JUMPDEST SWAP4 POP JUMPDEST POP PUSH1 0x1 ADD PUSH2 0xE59 JUMP JUMPDEST POP PUSH1 0x1 PUSH1 0x1 PUSH1 0xA0 SHL SUB DUP3 AND PUSH2 0xF16 JUMPI PUSH1 0x40 MLOAD PUSH3 0x461BCD PUSH1 0xE5 SHL DUP2 MSTORE PUSH1 0x20 PUSH1 0x4 DUP3 ADD MSTORE PUSH1 0x8 PUSH1 0x24 DUP3 ADD MSTORE PUSH8 0x4E4F5F524F555445 PUSH1 0xC0 SHL PUSH1 0x44 DUP3 ADD MSTORE PUSH1 0x64 ADD PUSH2 0x166 JUMP JUMPDEST SWAP6 POP SWAP6 SWAP4 POP POP POP POP JUMP JUMPDEST PUSH1 0x40 DUP1 MLOAD PUSH1 0x80 DUP2 ADD DUP3 MSTORE PUSH0 DUP1 DUP3 MSTORE PUSH1 0x20 DUP3 ADD DUP2 SWAP1 MSTORE SWAP2 DUP2 ADD DUP3 SWAP1 MSTORE PUSH1 0x60 DUP2 ADD DUP3 SWAP1 MSTORE SWAP1 JUMPDEST DUP5 DUP2 LT ISZERO PUSH2 0x107C JUMPI PUSH0 PUSH2 0xF7F DUP8 DUP8 DUP5 DUP2 DUP2 LT PUSH2 0xF62 JUMPI PUSH2 0xF62 PUSH2 0x1EA0 JUMP JUMPDEST SWAP1 POP PUSH1 0x20 MUL ADD PUSH1 0x20 DUP2 ADD SWAP1 PUSH2 0xF77 SWAP2 SWAP1 PUSH2 0x1B5A JUMP JUMPDEST DUP10 DUP8 DUP8 PUSH2 0x1631 JUMP JUMPDEST SWAP1 POP DUP3 PUSH1 0x20 ADD MLOAD DUP2 GT ISZERO PUSH2 0xFE5 JUMPI DUP3 MLOAD PUSH1 0x1 PUSH1 0x1 PUSH1 0xA0 SHL SUB AND PUSH1 0x40 DUP5 ADD MSTORE PUSH1 0x20 DUP4 ADD MLOAD PUSH1 0x60 DUP5 ADD MSTORE DUP7 DUP7 DUP4 DUP2 DUP2 LT PUSH2 0xFB9 JUMPI PUSH2 0xFB9 PUSH2 0x1EA0 JUMP JUMPDEST SWAP1 POP PUSH1 0x20 MUL ADD PUSH1 0x20 DUP2 ADD SWAP1 PUSH2 0xFCE SWAP2 SWAP1 PUSH2 0x1B5A JUMP JUMPDEST PUSH1 0x1 PUSH1 0x1 PUSH1 0xA0 SHL SUB AND DUP4 MSTORE PUSH1 0x20 DUP4 ADD DUP2 SWAP1 MSTORE PUSH2 0x1073 JUMP JUMPDEST DUP3 PUSH1 0x60 ADD MLOAD DUP2 GT DUP1 ISZERO PUSH2 0x1031 JUMPI POP DUP3 MLOAD PUSH1 0x1 PUSH1 0x1 PUSH1 0xA0 SHL SUB AND DUP8 DUP8 DUP5 DUP2 DUP2 LT PUSH2 0x1010 JUMPI PUSH2 0x1010 PUSH2 0x1EA0 JUMP JUMPDEST SWAP1 POP PUSH1 0x20 MUL ADD PUSH1 0x20 DUP2 ADD SWAP1 PUSH2 0x1025 SWAP2 SWAP1 PUSH2 0x1B5A JUMP JUMPDEST PUSH1 0x1 PUSH1 0x1 PUSH1 0xA0 SHL SUB AND EQ ISZERO JUMPDEST ISZERO PUSH2 0x1073 JUMPI DUP7 DUP7 DUP4 DUP2 DUP2 LT PUSH2 0x1048 JUMPI PUSH2 0x1048 PUSH2 0x1EA0 JUMP JUMPDEST SWAP1 POP PUSH1 0x20 MUL ADD PUSH1 0x20 DUP2 ADD SWAP1 PUSH2 0x105D SWAP2 SWAP1 PUSH2 0x1B5A JUMP JUMPDEST PUSH1 0x1 PUSH1 0x1 PUSH1 0xA0 SHL SUB AND PUSH1 0x40 DUP5 ADD MSTORE PUSH1 0x60 DUP4 ADD DUP2 SWAP1 MSTORE JUMPDEST POP PUSH1 0x1 ADD PUSH2 0xF44 JUMP JUMPDEST POP SWAP6 SWAP5 POP POP POP POP POP JUMP JUMPDEST PUSH1 0x40 DUP1 MLOAD PUSH1 0xA0 DUP2 ADD DUP3 MSTORE PUSH2 0x2710 DUP1 DUP3 MSTORE PUSH2 0x1D4C PUSH1 0x20 DUP4 ADD MSTORE PUSH2 0x1388 SWAP3 DUP3 ADD SWAP3 SWAP1 SWAP3 MSTORE PUSH2 0x9C4 PUSH1 0x60 DUP3 ADD MSTORE PUSH0 PUSH1 0x80 DUP3 ADD DUP2 SWAP1 MSTORE SWAP1 DUP2 JUMPDEST PUSH1 0x5 DUP2 LT ISZERO PUSH2 0x116F JUMPI PUSH0 DUP3 DUP3 PUSH1 0x5 DUP2 LT PUSH2 0x10D7 JUMPI PUSH2 0x10D7 PUSH2 0x1EA0 JUMP JUMPDEST PUSH1 0x20 MUL ADD MLOAD SWAP1 POP PUSH0 PUSH2 0x2710 PUSH2 0x10F0 PUSH2 0xFFFF DUP5 AND DUP14 PUSH2 0x1EDB JUMP JUMPDEST PUSH2 0x10FA SWAP2 SWAP1 PUSH2 0x1EF2 JUMP JUMPDEST SWAP1 POP PUSH0 PUSH2 0x1107 DUP3 DUP14 PUSH2 0x1EC8 JUMP JUMPDEST SWAP1 POP PUSH0 DUP3 ISZERO PUSH2 0x1121 JUMPI PUSH2 0x111C DUP13 DUP5 DUP13 DUP13 PUSH2 0x1631 JUMP JUMPDEST PUSH2 0x1123 JUMP JUMPDEST PUSH0 JUMPDEST SWAP1 POP PUSH0 DUP3 ISZERO PUSH2 0x113D JUMPI PUSH2 0x1138 DUP13 DUP5 DUP14 DUP14 PUSH2 0x1631 JUMP JUMPDEST PUSH2 0x113F JUMP JUMPDEST PUSH0 JUMPDEST SWAP1 POP PUSH0 PUSH2 0x114C DUP3 DUP5 PUSH2 0x1F11 JUMP JUMPDEST SWAP1 POP DUP9 DUP2 GT ISZERO PUSH2 0x115D JUMPI DUP1 SWAP9 POP DUP6 SWAP10 POP JUMPDEST POP POP PUSH1 0x1 SWAP1 SWAP5 ADD SWAP4 POP PUSH2 0x10BB SWAP3 POP POP POP JUMP JUMPDEST POP POP SWAP6 POP SWAP6 SWAP4 POP POP POP POP JUMP JUMPDEST PUSH1 0x3 SLOAD PUSH1 0xFF AND ISZERO PUSH2 0x9A9 JUMPI PUSH1 0x40 MLOAD PUSH4 0xD93C0665 PUSH1 0xE0 SHL DUP2 MSTORE PUSH1 0x4 ADD PUSH1 0x40 MLOAD DUP1 SWAP2 SUB SWAP1 REVERT JUMPDEST PUSH1 0x2 DUP1 SLOAD SUB PUSH2 0x11C1 JUMPI PUSH1 0x40 MLOAD PUSH4 0x3EE5AEB5 PUSH1 0xE0 SHL DUP2 MSTORE PUSH1 0x4 ADD PUSH1 0x40 MLOAD DUP1 SWAP2 SUB SWAP1 REVERT JUMPDEST PUSH1 0x2 DUP1 SSTORE JUMP JUMPDEST PUSH1 0x1 DUP1 SLOAD PUSH1 0x1 PUSH1 0x1 PUSH1 0xA0 SHL SUB NOT AND SWAP1 SSTORE PUSH2 0x9EC DUP2 PUSH2 0x16ED JUMP JUMPDEST PUSH2 0x11E8 PUSH2 0x117B JUMP JUMPDEST PUSH1 0x3 DUP1 SLOAD PUSH1 0xFF NOT AND PUSH1 0x1 OR SWAP1 SSTORE PUSH32 0x62E78CEA01BEE320CD4E420270B5EA74000D11B0C9F74754EBDBFC544B05A258 PUSH2 0xE38 CALLER SWAP1 JUMP JUMPDEST PUSH1 0x40 MLOAD PUSH1 0x1 PUSH1 0x1 PUSH1 0xA0 SHL SUB DUP4 DUP2 AND PUSH1 0x24 DUP4 ADD MSTORE PUSH1 0x44 DUP3 ADD DUP4 SWAP1 MSTORE PUSH2 0xA47 SWAP2 DUP6 SWAP2 DUP3 AND SWAP1 PUSH4 0xA9059CBB SWAP1 PUSH1 0x64 ADD JUMPDEST PUSH1 0x40 MLOAD PUSH1 0x20 DUP2 DUP4 SUB SUB DUP2 MSTORE SWAP1 PUSH1 0x40 MSTORE SWAP2 POP PUSH1 0xE0 SHL PUSH1 0x20 DUP3 ADD DUP1 MLOAD PUSH1 0x1 PUSH1 0x1 PUSH1 0xE0 SHL SUB DUP4 DUP2 DUP4 AND OR DUP4 MSTORE POP POP POP POP PUSH2 0x173C JUMP JUMPDEST PUSH1 0x40 MLOAD PUSH4 0x70A08231 PUSH1 0xE0 SHL DUP2 MSTORE ADDRESS PUSH1 0x4 DUP3 ADD MSTORE PUSH0 SWAP1 DUP2 SWAP1 PUSH1 0x1 PUSH1 0x1 PUSH1 0xA0 SHL SUB DUP7 AND SWAP1 PUSH4 0x70A08231 SWAP1 PUSH1 0x24 ADD PUSH1 0x20 PUSH1 0x40 MLOAD DUP1 DUP4 SUB DUP2 DUP7 GAS STATICCALL ISZERO DUP1 ISZERO PUSH2 0x12C2 JUMPI RETURNDATASIZE PUSH0 PUSH0 RETURNDATACOPY RETURNDATASIZE PUSH0 REVERT JUMPDEST POP POP POP POP PUSH1 0x40 MLOAD RETURNDATASIZE PUSH1 0x1F NOT PUSH1 0x1F DUP3 ADD AND DUP3 ADD DUP1 PUSH1 0x40 MSTORE POP DUP2 ADD SWAP1 PUSH2 0x12E6 SWAP2 SWAP1 PUSH2 0x1F24 JUMP JUMPDEST SWAP1 POP PUSH2 0x12FD PUSH1 0x1 PUSH1 0x1 PUSH1 0xA0 SHL SUB DUP7 AND DUP6 ADDRESS DUP7 PUSH2 0x17AE JUMP JUMPDEST PUSH1 0x40 MLOAD PUSH4 0x70A08231 PUSH1 0xE0 SHL DUP2 MSTORE ADDRESS PUSH1 0x4 DUP3 ADD MSTORE PUSH0 SWAP1 PUSH1 0x1 PUSH1 0x1 PUSH1 0xA0 SHL SUB DUP8 AND SWAP1 PUSH4 0x70A08231 SWAP1 PUSH1 0x24 ADD PUSH1 0x20 PUSH1 0x40 MLOAD DUP1 DUP4 SUB DUP2 DUP7 GAS STATICCALL ISZERO DUP1 ISZERO PUSH2 0x1341 JUMPI RETURNDATASIZE PUSH0 PUSH0 RETURNDATACOPY RETURNDATASIZE PUSH0 REVERT JUMPDEST POP POP POP POP PUSH1 0x40 MLOAD RETURNDATASIZE PUSH1 0x1F NOT PUSH1 0x1F DUP3 ADD AND DUP3 ADD DUP1 PUSH1 0x40 MSTORE POP DUP2 ADD SWAP1 PUSH2 0x1365 SWAP2 SWAP1 PUSH2 0x1F24 JUMP JUMPDEST SWAP1 POP PUSH2 0x1371 DUP3 DUP3 PUSH2 0x1EC8 JUMP JUMPDEST SWAP7 SWAP6 POP POP POP POP POP POP JUMP JUMPDEST PUSH1 0x40 DUP1 MLOAD PUSH1 0xA0 DUP2 ADD DUP3 MSTORE PUSH0 DUP1 DUP3 MSTORE PUSH1 0x20 DUP3 ADD DUP2 SWAP1 MSTORE SWAP2 DUP2 ADD DUP3 SWAP1 MSTORE PUSH1 0x60 DUP2 ADD DUP3 SWAP1 MSTORE PUSH1 0x80 DUP2 ADD DUP3 SWAP1 MSTORE SWAP1 DUP1 PUSH2 0x13B3 DUP9 DUP9 DUP9 DUP9 DUP9 PUSH2 0xE55 JUMP JUMPDEST SWAP2 POP SWAP2 POP PUSH0 PUSH2 0x13C5 DUP10 DUP10 DUP10 DUP10 DUP10 PUSH2 0xF20 JUMP JUMPDEST PUSH0 DUP1 DUP7 MSTORE PUSH1 0x1 PUSH1 0x1 PUSH1 0xA0 SHL SUB DUP1 DUP7 AND PUSH1 0x20 DUP9 ADD MSTORE PUSH1 0x40 DUP1 DUP9 ADD DUP4 SWAP1 MSTORE PUSH1 0x60 DUP9 ADD SWAP3 SWAP1 SWAP3 MSTORE PUSH1 0x80 DUP8 ADD DUP6 SWAP1 MSTORE SWAP1 DUP3 ADD MLOAD SWAP2 SWAP3 POP AND ISZERO PUSH2 0x145B JUMPI PUSH0 PUSH0 PUSH2 0x1413 DUP12 DUP5 PUSH0 ADD MLOAD DUP6 PUSH1 0x40 ADD MLOAD DUP12 DUP12 PUSH2 0x1086 JUMP JUMPDEST SWAP2 POP SWAP2 POP DUP6 PUSH1 0x80 ADD MLOAD DUP2 GT ISZERO PUSH2 0x1458 JUMPI PUSH1 0x1 DUP7 MSTORE DUP3 MLOAD PUSH1 0x1 PUSH1 0x1 PUSH1 0xA0 SHL SUB SWAP1 DUP2 AND PUSH1 0x20 DUP9 ADD MSTORE PUSH1 0x40 DUP1 DUP6 ADD MLOAD SWAP1 SWAP2 AND SWAP1 DUP8 ADD MSTORE PUSH2 0xFFFF DUP3 AND PUSH1 0x60 DUP8 ADD MSTORE PUSH1 0x80 DUP7 ADD DUP2 SWAP1 MSTORE JUMPDEST POP POP JUMPDEST POP POP POP SWAP6 SWAP5 POP POP POP POP POP JUMP JUMPDEST PUSH0 PUSH0 PUSH2 0x147B DUP8 DUP8 DUP8 DUP8 DUP8 DUP13 PUSH1 0x60 ADD MLOAD PUSH2 0x17E7 JUMP JUMPDEST SWAP1 POP DUP7 PUSH1 0x60 ADD MLOAD DUP2 LT ISZERO PUSH2 0x14C5 JUMPI PUSH1 0x40 MLOAD PUSH3 0x461BCD PUSH1 0xE5 SHL DUP2 MSTORE PUSH1 0x20 PUSH1 0x4 DUP3 ADD MSTORE PUSH1 0x11 PUSH1 0x24 DUP3 ADD MSTORE PUSH17 0xA69892A0A0828E8ABEA89E9EBE90928E9 PUSH1 0x7B SHL PUSH1 0x44 DUP3 ADD MSTORE PUSH1 0x64 ADD PUSH2 0x166 JUMP JUMPDEST PUSH0 PUSH0 PUSH2 0x14D5 DUP10 PUSH1 0x20 ADD MLOAD DUP5 PUSH2 0x1973 JUMP JUMPDEST PUSH1 0x20 DUP12 ADD MLOAD SWAP2 SWAP4 POP SWAP2 POP PUSH2 0x14F3 SWAP1 PUSH1 0x1 PUSH1 0x1 PUSH1 0xA0 SHL SUB AND CALLER DUP4 PUSH2 0x121D JUMP JUMPDEST PUSH2 0x98C DUP10 DUP10 DUP10 DUP5 DUP7 PUSH2 0x19E8 JUMP JUMPDEST PUSH0 DUP1 PUSH2 0x2710 PUSH2 0x1513 PUSH2 0xFFFF DUP8 AND DUP9 PUSH2 0x1EDB JUMP JUMPDEST PUSH2 0x151D SWAP2 SWAP1 PUSH2 0x1EF2 JUMP JUMPDEST SWAP1 POP PUSH0 PUSH2 0x152A DUP3 DUP9 PUSH2 0x1EC8 JUMP JUMPDEST SWAP1 POP PUSH2 0x154D PUSH1 0x40 MLOAD DUP1 PUSH1 0x60 ADD PUSH1 0x40 MSTORE DUP1 PUSH0 DUP2 MSTORE PUSH1 0x20 ADD PUSH0 DUP2 MSTORE PUSH1 0x20 ADD PUSH0 DUP2 MSTORE POP SWAP1 JUMP JUMPDEST PUSH2 0x155B DUP12 DUP12 DUP6 DUP10 DUP10 PUSH0 PUSH2 0x17E7 JUMP JUMPDEST DUP2 MSTORE PUSH2 0x156B DUP12 DUP11 DUP5 DUP10 DUP10 PUSH0 PUSH2 0x17E7 JUMP JUMPDEST PUSH1 0x20 DUP3 ADD DUP2 SWAP1 MSTORE DUP2 MLOAD PUSH2 0x157E SWAP2 SWAP1 PUSH2 0x1F11 JUMP JUMPDEST PUSH1 0x40 DUP3 ADD DUP2 SWAP1 MSTORE PUSH1 0x60 DUP13 ADD MLOAD GT ISZERO PUSH2 0x15CC JUMPI PUSH1 0x40 MLOAD PUSH3 0x461BCD PUSH1 0xE5 SHL DUP2 MSTORE PUSH1 0x20 PUSH1 0x4 DUP3 ADD MSTORE PUSH1 0x11 PUSH1 0x24 DUP3 ADD MSTORE PUSH17 0xA69892A0A0828E8ABEA89E9EBE90928E9 PUSH1 0x7B SHL PUSH1 0x44 DUP3 ADD MSTORE PUSH1 0x64 ADD PUSH2 0x166 JUMP JUMPDEST PUSH0 PUSH0 PUSH2 0x15E0 DUP14 PUSH1 0x20 ADD MLOAD DUP5 PUSH1 0x40 ADD MLOAD PUSH2 0x1973 JUMP JUMPDEST PUSH1 0x20 DUP16 ADD MLOAD SWAP2 SWAP4 POP SWAP2 POP PUSH2 0x15FE SWAP1 PUSH1 0x1 PUSH1 0x1 PUSH1 0xA0 SHL SUB AND CALLER DUP4 PUSH2 0x121D JUMP JUMPDEST SWAP13 SWAP12 POP POP POP POP POP POP POP POP POP POP POP POP JUMP JUMPDEST PUSH1 0x3 SLOAD PUSH1 0xFF AND PUSH2 0x9A9 JUMPI PUSH1 0x40 MLOAD PUSH4 0x8DFC202B PUSH1 0xE0 SHL DUP2 MSTORE PUSH1 0x4 ADD PUSH1 0x40 MLOAD DUP1 SWAP2 SUB SWAP1 REVERT JUMPDEST PUSH1 0x40 MLOAD PUSH4 0xD06CA61F PUSH1 0xE0 SHL DUP2 MSTORE PUSH0 SWAP1 PUSH1 0x1 PUSH1 0x1 PUSH1 0xA0 SHL SUB DUP7 AND SWAP1 PUSH4 0xD06CA61F SWAP1 PUSH2 0x1663 SWAP1 DUP8 SWAP1 DUP8 SWAP1 DUP8 SWAP1 PUSH1 0x4 ADD PUSH2 0x1F3B JUMP JUMPDEST PUSH0 PUSH1 0x40 MLOAD DUP1 DUP4 SUB DUP2 DUP7 GAS STATICCALL SWAP3 POP POP POP DUP1 ISZERO PUSH2 0x169F JUMPI POP PUSH1 0x40 MLOAD RETURNDATASIZE PUSH0 DUP3 RETURNDATACOPY PUSH1 0x1F RETURNDATASIZE SWAP1 DUP2 ADD PUSH1 0x1F NOT AND DUP3 ADD PUSH1 0x40 MSTORE PUSH2 0x169C SWAP2 SWAP1 DUP2 ADD SWAP1 PUSH2 0x1F71 JUMP JUMPDEST PUSH1 0x1 JUMPDEST PUSH2 0x16AA JUMPI POP PUSH0 PUSH2 0x16E5 JUMP JUMPDEST DUP1 MLOAD ISZERO PUSH2 0x16E0 JUMPI DUP1 PUSH1 0x1 DUP3 MLOAD PUSH2 0x16C0 SWAP2 SWAP1 PUSH2 0x1EC8 JUMP JUMPDEST DUP2 MLOAD DUP2 LT PUSH2 0x16D0 JUMPI PUSH2 0x16D0 PUSH2 0x1EA0 JUMP JUMPDEST PUSH1 0x20 MUL PUSH1 0x20 ADD ADD MLOAD SWAP2 POP POP PUSH2 0x16E5 JUMP JUMPDEST PUSH0 SWAP2 POP POP JUMPDEST SWAP5 SWAP4 POP POP POP POP JUMP JUMPDEST PUSH0 DUP1 SLOAD PUSH1 0x1 PUSH1 0x1 PUSH1 0xA0 SHL SUB DUP4 DUP2 AND PUSH1 0x1 PUSH1 0x1 PUSH1 0xA0 SHL SUB NOT DUP4 AND DUP2 OR DUP5 SSTORE PUSH1 0x40 MLOAD SWAP2 SWAP1 SWAP3 AND SWAP3 DUP4 SWAP2 PUSH32 0x8BE0079C531659141344CD1FD0A4F28419497F9722A3DAAFE3B4186F6B6457E0 SWAP2 SWAP1 LOG3 POP POP JUMP JUMPDEST PUSH0 PUSH0 PUSH1 0x20 PUSH0 DUP5 MLOAD PUSH1 0x20 DUP7 ADD PUSH0 DUP9 GAS CALL DUP1 PUSH2 0x175B JUMPI PUSH1 0x40 MLOAD RETURNDATASIZE PUSH0 DUP3 RETURNDATACOPY RETURNDATASIZE DUP2 REVERT JUMPDEST POP POP PUSH0 MLOAD RETURNDATASIZE SWAP2 POP DUP2 ISZERO PUSH2 0x1772 JUMPI DUP1 PUSH1 0x1 EQ ISZERO PUSH2 0x177F JUMP JUMPDEST PUSH1 0x1 PUSH1 0x1 PUSH1 0xA0 SHL SUB DUP5 AND EXTCODESIZE ISZERO JUMPDEST ISZERO PUSH2 0x17A8 JUMPI PUSH1 0x40 MLOAD PUSH4 0x5274AFE7 PUSH1 0xE0 SHL DUP2 MSTORE PUSH1 0x1 PUSH1 0x1 PUSH1 0xA0 SHL SUB DUP6 AND PUSH1 0x4 DUP3 ADD MSTORE PUSH1 0x24 ADD PUSH2 0x166 JUMP JUMPDEST POP POP POP POP JUMP JUMPDEST PUSH1 0x40 MLOAD PUSH1 0x1 PUSH1 0x1 PUSH1 0xA0 SHL SUB DUP5 DUP2 AND PUSH1 0x24 DUP4 ADD MSTORE DUP4 DUP2 AND PUSH1 0x44 DUP4 ADD MSTORE PUSH1 0x64 DUP3 ADD DUP4 SWAP1 MSTORE PUSH2 0x17A8 SWAP2 DUP7 SWAP2 DUP3 AND SWAP1 PUSH4 0x23B872DD SWAP1 PUSH1 0x84 ADD PUSH2 0x124A JUMP JUMPDEST PUSH0 DUP5 PUSH0 SUB PUSH2 0x17F6 JUMPI POP PUSH0 PUSH2 0x1371 JUMP JUMPDEST DUP7 MLOAD PUSH2 0x1803 SWAP1 DUP8 DUP8 PUSH2 0x1A59 JUMP JUMPDEST PUSH1 0x20 DUP8 ADD MLOAD PUSH1 0x40 MLOAD PUSH4 0x70A08231 PUSH1 0xE0 SHL DUP2 MSTORE ADDRESS PUSH1 0x4 DUP3 ADD MSTORE PUSH0 SWAP2 PUSH1 0x1 PUSH1 0x1 PUSH1 0xA0 SHL SUB AND SWAP1 PUSH4 0x70A08231 SWAP1 PUSH1 0x24 ADD PUSH1 0x20 PUSH1 0x40 MLOAD DUP1 DUP4 SUB DUP2 DUP7 GAS STATICCALL ISZERO DUP1 ISZERO PUSH2 0x184B JUMPI RETURNDATASIZE PUSH0 PUSH0 RETURNDATACOPY RETURNDATASIZE PUSH0 REVERT JUMPDEST POP POP POP POP PUSH1 0x40 MLOAD RETURNDATASIZE PUSH1 0x1F NOT PUSH1 0x1F DUP3 ADD AND DUP3 ADD DUP1 PUSH1 0x40 MSTORE POP DUP2 ADD SWAP1 PUSH2 0x186F SWAP2 SWAP1 PUSH2 0x1F24 JUMP JUMPDEST SWAP1 POP DUP7 PUSH1 0x1 PUSH1 0x1 PUSH1 0xA0 SHL SUB AND PUSH4 0x38ED1739 DUP8 DUP6 DUP9 DUP9 ADDRESS DUP15 PUSH1 0x40 ADD MLOAD PUSH1 0x40 MLOAD DUP8 PUSH4 0xFFFFFFFF AND PUSH1 0xE0 SHL DUP2 MSTORE PUSH1 0x4 ADD PUSH2 0x18AB SWAP7 SWAP6 SWAP5 SWAP4 SWAP3 SWAP2 SWAP1 PUSH2 0x2036 JUMP JUMPDEST PUSH0 PUSH1 0x40 MLOAD DUP1 DUP4 SUB DUP2 PUSH0 DUP8 GAS CALL ISZERO DUP1 ISZERO PUSH2 0x18C6 JUMPI RETURNDATASIZE PUSH0 PUSH0 RETURNDATACOPY RETURNDATASIZE PUSH0 REVERT JUMPDEST POP POP POP POP PUSH1 0x40 MLOAD RETURNDATASIZE PUSH0 DUP3 RETURNDATACOPY PUSH1 0x1F RETURNDATASIZE SWAP1 DUP2 ADD PUSH1 0x1F NOT AND DUP3 ADD PUSH1 0x40 MSTORE PUSH2 0x18ED SWAP2 SWAP1 DUP2 ADD SWAP1 PUSH2 0x1F71 JUMP JUMPDEST POP PUSH1 0x20 DUP9 ADD MLOAD PUSH1 0x40 MLOAD PUSH4 0x70A08231 PUSH1 0xE0 SHL DUP2 MSTORE ADDRESS PUSH1 0x4 DUP3 ADD MSTORE PUSH0 SWAP2 PUSH1 0x1 PUSH1 0x1 PUSH1 0xA0 SHL SUB AND SWAP1 PUSH4 0x70A08231 SWAP1 PUSH1 0x24 ADD PUSH1 0x20 PUSH1 0x40 MLOAD DUP1 DUP4 SUB DUP2 DUP7 GAS STATICCALL ISZERO DUP1 ISZERO PUSH2 0x1936 JUMPI RETURNDATASIZE PUSH0 PUSH0 RETURNDATACOPY RETURNDATASIZE PUSH0 REVERT JUMPDEST POP POP POP POP PUSH1 0x40 MLOAD RETURNDATASIZE PUSH1 0x1F NOT PUSH1 0x1F DUP3 ADD AND DUP3 ADD DUP1 PUSH1 0x40 MSTORE POP DUP2 ADD SWAP1 PUSH2 0x195A SWAP2 SWAP1 PUSH2 0x1F24 JUMP JUMPDEST SWAP1 POP PUSH2 0x1966 DUP3 DUP3 PUSH2 0x1EC8 JUMP JUMPDEST SWAP10 SWAP9 POP POP POP POP POP POP POP POP POP JUMP JUMPDEST PUSH1 0x5 SLOAD PUSH0 SWAP1 DUP2 SWAP1 PUSH2 0xFFFF AND DUP2 SUB PUSH2 0x198E JUMPI POP PUSH0 SWAP1 POP DUP2 PUSH2 0x19E1 JUMP JUMPDEST PUSH1 0x5 SLOAD PUSH2 0x2710 SWAP1 PUSH2 0x19A3 SWAP1 PUSH2 0xFFFF AND DUP6 PUSH2 0x1EDB JUMP JUMPDEST PUSH2 0x19AD SWAP2 SWAP1 PUSH2 0x1EF2 JUMP JUMPDEST SWAP2 POP PUSH2 0x19B9 DUP3 DUP5 PUSH2 0x1EC8 JUMP JUMPDEST SWAP1 POP DUP2 ISZERO PUSH2 0x19E1 JUMPI PUSH1 0x5 SLOAD PUSH2 0x19E1 SWAP1 PUSH1 0x1 PUSH1 0x1 PUSH1 0xA0 SHL SUB DUP7 DUP2 AND SWAP2 PUSH3 0x10000 SWAP1 DIV AND DUP5 PUSH2 0x121D JUMP JUMPDEST SWAP3 POP SWAP3 SWAP1 POP JUMP JUMPDEST DUP5 MLOAD PUSH1 0x20 DUP1 DUP8 ADD MLOAD PUSH1 0x40 DUP1 MLOAD PUSH1 0x1 PUSH1 0x1 PUSH1 0xA0 SHL SUB SWAP5 DUP6 AND DUP2 MSTORE SWAP2 DUP5 AND SWAP3 DUP3 ADD SWAP3 SWAP1 SWAP3 MSTORE SWAP1 DUP2 ADD DUP6 SWAP1 MSTORE PUSH1 0x60 DUP2 ADD DUP5 SWAP1 MSTORE PUSH1 0x80 DUP2 ADD DUP4 SWAP1 MSTORE SWAP1 DUP6 AND SWAP1 CALLER SWAP1 PUSH32 0xA3C755D4452DEC05C2F66980B0A74A215E95DD31BEF2194BEBCE30F397FB6E2E SWAP1 PUSH1 0xA0 ADD PUSH1 0x40 MLOAD DUP1 SWAP2 SUB SWAP1 LOG3 POP POP POP POP POP JUMP JUMPDEST PUSH1 0x40 DUP1 MLOAD PUSH1 0x1 PUSH1 0x1 PUSH1 0xA0 SHL SUB DUP5 DUP2 AND PUSH1 0x24 DUP4 ADD MSTORE PUSH1 0x44 DUP1 DUP4 ADD DUP6 SWAP1 MSTORE DUP4 MLOAD DUP1 DUP5 SUB SWAP1 SWAP2 ADD DUP2 MSTORE PUSH1 0x64 SWAP1 SWAP3 ADD SWAP1 SWAP3 MSTORE PUSH1 0x20 DUP2 ADD DUP1 MLOAD PUSH1 0x1 PUSH1 0x1 PUSH1 0xE0 SHL SUB AND PUSH4 0x95EA7B3 PUSH1 0xE0 SHL OR SWAP1 MSTORE PUSH2 0xA47 SWAP2 DUP6 AND SWAP1 DUP5 SWAP1 DUP5 SWAP1 PUSH2 0x1AB6 DUP5 DUP3 PUSH2 0x1AF4 JUMP JUMPDEST PUSH2 0x17A8 JUMPI PUSH1 0x40 MLOAD PUSH1 0x1 PUSH1 0x1 PUSH1 0xA0 SHL SUB DUP5 DUP2 AND PUSH1 0x24 DUP4 ADD MSTORE PUSH0 PUSH1 0x44 DUP4 ADD MSTORE PUSH2 0x1AEA SWAP2 DUP7 SWAP2 DUP3 AND SWAP1 PUSH4 0x95EA7B3 SWAP1 PUSH1 0x64 ADD PUSH2 0x124A JUMP JUMPDEST PUSH2 0x17A8 DUP5 DUP3 PUSH2 0x173C JUMP JUMPDEST PUSH0 PUSH0 PUSH0 PUSH0 PUSH1 0x20 PUSH0 DUP7 MLOAD PUSH1 0x20 DUP9 ADD PUSH0 DUP11 GAS CALL SWAP3 POP RETURNDATASIZE SWAP2 POP PUSH0 MLOAD SWAP1 POP DUP3 DUP1 ISZERO PUSH2 0x1B33 JUMPI POP DUP2 ISZERO PUSH2 0x1B25 JUMPI DUP1 PUSH1 0x1 EQ PUSH2 0x1B33 JUMP JUMPDEST PUSH0 DUP7 PUSH1 0x1 PUSH1 0x1 PUSH1 0xA0 SHL SUB AND EXTCODESIZE GT JUMPDEST SWAP4 POP POP POP POP JUMPDEST SWAP3 SWAP2 POP POP JUMP JUMPDEST DUP1 CALLDATALOAD PUSH1 0x1 PUSH1 0x1 PUSH1 0xA0 SHL SUB DUP2 AND DUP2 EQ PUSH2 0x1B55 JUMPI PUSH0 PUSH0 REVERT JUMPDEST SWAP2 SWAP1 POP JUMP JUMPDEST PUSH0 PUSH1 0x20 DUP3 DUP5 SUB SLT ISZERO PUSH2 0x1B6A JUMPI PUSH0 PUSH0 REVERT JUMPDEST PUSH2 0x1B73 DUP3 PUSH2 0x1B3F JUMP JUMPDEST SWAP4 SWAP3 POP POP POP JUMP JUMPDEST PUSH0 PUSH0 PUSH1 0x40 DUP4 DUP6 SUB SLT ISZERO PUSH2 0x1B8B JUMPI PUSH0 PUSH0 REVERT JUMPDEST PUSH2 0x1B94 DUP4 PUSH2 0x1B3F JUMP JUMPDEST SWAP2 POP PUSH1 0x20 DUP4 ADD CALLDATALOAD PUSH2 0xFFFF DUP2 AND DUP2 EQ PUSH2 0x1BAA JUMPI PUSH0 PUSH0 REVERT JUMPDEST DUP1 SWAP2 POP POP SWAP3 POP SWAP3 SWAP1 POP JUMP JUMPDEST PUSH0 PUSH0 PUSH1 0x40 DUP4 DUP6 SUB SLT ISZERO PUSH2 0x1BC6 JUMPI PUSH0 PUSH0 REVERT JUMPDEST PUSH2 0x1BCF DUP4 PUSH2 0x1B3F JUMP JUMPDEST SWAP2 POP PUSH1 0x20 DUP4 ADD CALLDATALOAD DUP1 ISZERO ISZERO DUP2 EQ PUSH2 0x1BAA JUMPI PUSH0 PUSH0 REVERT JUMPDEST PUSH0 PUSH0 DUP4 PUSH1 0x1F DUP5 ADD SLT PUSH2 0x1BF3 JUMPI PUSH0 PUSH0 REVERT JUMPDEST POP DUP2 CALLDATALOAD PUSH1 0x1 PUSH1 0x1 PUSH1 0x40 SHL SUB DUP2 GT ISZERO PUSH2 0x1C09 JUMPI PUSH0 PUSH0 REVERT JUMPDEST PUSH1 0x20 DUP4 ADD SWAP2 POP DUP4 PUSH1 0x20 DUP3 PUSH1 0x5 SHL DUP6 ADD ADD GT ISZERO PUSH2 0x19E1 JUMPI PUSH0 PUSH0 REVERT JUMPDEST PUSH0 PUSH0 PUSH0 PUSH0 PUSH0 PUSH1 0x60 DUP7 DUP9 SUB SLT ISZERO PUSH2 0x1C37 JUMPI PUSH0 PUSH0 REVERT JUMPDEST DUP6 CALLDATALOAD SWAP5 POP PUSH1 0x20 DUP7 ADD CALLDATALOAD PUSH1 0x1 PUSH1 0x1 PUSH1 0x40 SHL SUB DUP2 GT ISZERO PUSH2 0x1C53 JUMPI PUSH0 PUSH0 REVERT JUMPDEST PUSH2 0x1C5F DUP9 DUP3 DUP10 ADD PUSH2 0x1BE3 JUMP JUMPDEST SWAP1 SWAP6 POP SWAP4 POP POP PUSH1 0x40 DUP7 ADD CALLDATALOAD PUSH1 0x1 PUSH1 0x1 PUSH1 0x40 SHL SUB DUP2 GT ISZERO PUSH2 0x1C7D JUMPI PUSH0 PUSH0 REVERT JUMPDEST PUSH2 0x1C89 DUP9 DUP3 DUP10 ADD PUSH2 0x1BE3 JUMP JUMPDEST SWAP7 SWAP10 SWAP6 SWAP9 POP SWAP4 SWAP7 POP SWAP3 SWAP5 SWAP4 SWAP3 POP POP POP JUMP JUMPDEST PUSH0 PUSH1 0x20 DUP3 DUP5 SUB SLT ISZERO PUSH2 0x1CAA JUMPI PUSH0 PUSH0 REVERT JUMPDEST POP CALLDATALOAD SWAP2 SWAP1 POP JUMP JUMPDEST PUSH0 PUSH0 PUSH0 PUSH0 PUSH0 PUSH0 PUSH0 PUSH0 PUSH1 0xC0 DUP10 DUP12 SUB SLT ISZERO PUSH2 0x1CC8 JUMPI PUSH0 PUSH0 REVERT JUMPDEST DUP9 CALLDATALOAD SWAP8 POP PUSH1 0x20 DUP10 ADD CALLDATALOAD SWAP7 POP PUSH1 0x40 DUP10 ADD CALLDATALOAD PUSH1 0x1 PUSH1 0x1 PUSH1 0x40 SHL SUB DUP2 GT ISZERO PUSH2 0x1CEB JUMPI PUSH0 PUSH0 REVERT JUMPDEST PUSH2 0x1CF7 DUP12 DUP3 DUP13 ADD PUSH2 0x1BE3 JUMP JUMPDEST SWAP1 SWAP8 POP SWAP6 POP POP PUSH1 0x60 DUP10 ADD CALLDATALOAD PUSH1 0x1 PUSH1 0x1 PUSH1 0x40 SHL SUB DUP2 GT ISZERO PUSH2 0x1D15 JUMPI PUSH0 PUSH0 REVERT JUMPDEST PUSH2 0x1D21 DUP12 DUP3 DUP13 ADD PUSH2 0x1BE3 JUMP JUMPDEST SWAP10 SWAP13 SWAP9 SWAP12 POP SWAP7 SWAP10 SWAP6 SWAP9 SWAP7 SWAP8 PUSH1 0x80 DUP8 ADD CALLDATALOAD SWAP7 PUSH1 0xA0 ADD CALLDATALOAD SWAP6 POP SWAP4 POP POP POP POP JUMP JUMPDEST PUSH0 PUSH0 PUSH0 PUSH1 0x60 DUP5 DUP7 SUB SLT ISZERO PUSH2 0x1D51 JUMPI PUSH0 PUSH0 REVERT JUMPDEST PUSH2 0x1D5A DUP5 PUSH2 0x1B3F JUMP JUMPDEST SWAP3 POP PUSH2 0x1D68 PUSH1 0x20 DUP6 ADD PUSH2 0x1B3F JUMP JUMPDEST SWAP3 SWAP6 SWAP3 SWAP5 POP POP POP PUSH1 0x40 SWAP2 SWAP1 SWAP2 ADD CALLDATALOAD SWAP1 JUMP JUMPDEST PUSH0 PUSH0 PUSH0 PUSH0 PUSH0 PUSH0 PUSH0 PUSH1 0xA0 DUP9 DUP11 SUB SLT ISZERO PUSH2 0x1D8F JUMPI PUSH0 PUSH0 REVERT JUMPDEST DUP8 CALLDATALOAD SWAP7 POP PUSH1 0x20 DUP9 ADD CALLDATALOAD SWAP6 POP PUSH1 0x40 DUP9 ADD CALLDATALOAD PUSH1 0x1 PUSH1 0x1 PUSH1 0x40 SHL SUB DUP2 GT ISZERO PUSH2 0x1DB2 JUMPI PUSH0 PUSH0 REVERT JUMPDEST PUSH2 0x1DBE DUP11 DUP3 DUP12 ADD PUSH2 0x1BE3 JUMP JUMPDEST SWAP1 SWAP7 POP SWAP5 POP POP PUSH1 0x60 DUP9 ADD CALLDATALOAD PUSH1 0x1 PUSH1 0x1 PUSH1 0x40 SHL SUB DUP2 GT ISZERO PUSH2 0x1DDC JUMPI PUSH0 PUSH0 REVERT JUMPDEST PUSH2 0x1DE8 DUP11 DUP3 DUP12 ADD PUSH2 0x1BE3 JUMP JUMPDEST SWAP9 SWAP12 SWAP8 SWAP11 POP SWAP6 SWAP9 SWAP5 SWAP8 SWAP6 SWAP7 PUSH1 0x80 SWAP1 SWAP6 ADD CALLDATALOAD SWAP5 SWAP4 POP POP POP POP JUMP JUMPDEST DUP2 DUP4 MSTORE PUSH1 0x20 DUP4 ADD SWAP3 POP PUSH0 DUP2 PUSH0 JUMPDEST DUP5 DUP2 LT ISZERO PUSH2 0x1E3D JUMPI PUSH1 0x1 PUSH1 0x1 PUSH1 0xA0 SHL SUB PUSH2 0x1E27 DUP4 PUSH2 0x1B3F JUMP JUMPDEST AND DUP7 MSTORE PUSH1 0x20 SWAP6 DUP7 ADD SWAP6 SWAP2 SWAP1 SWAP2 ADD SWAP1 PUSH1 0x1 ADD PUSH2 0x1E0E JUMP JUMPDEST POP SWAP4 SWAP5 SWAP4 POP POP POP POP JUMP JUMPDEST PUSH1 0x1 DUP1 PUSH1 0xA0 SHL SUB DUP11 AND DUP2 MSTORE DUP9 PUSH1 0x20 DUP3 ADD MSTORE DUP8 PUSH1 0x40 DUP3 ADD MSTORE PUSH1 0xE0 PUSH1 0x60 DUP3 ADD MSTORE PUSH0 PUSH2 0x1E74 PUSH1 0xE0 DUP4 ADD DUP9 DUP11 PUSH2 0x1E01 JUMP JUMPDEST DUP3 DUP2 SUB PUSH1 0x80 DUP5 ADD MSTORE PUSH2 0x1E87 DUP2 DUP8 DUP10 PUSH2 0x1E01 JUMP JUMPDEST PUSH1 0xA0 DUP5 ADD SWAP6 SWAP1 SWAP6 MSTORE POP POP PUSH1 0xC0 ADD MSTORE SWAP8 SWAP7 POP POP POP POP POP POP POP JUMP JUMPDEST PUSH4 0x4E487B71 PUSH1 0xE0 SHL PUSH0 MSTORE PUSH1 0x32 PUSH1 0x4 MSTORE PUSH1 0x24 PUSH0 REVERT JUMPDEST PUSH4 0x4E487B71 PUSH1 0xE0 SHL PUSH0 MSTORE PUSH1 0x11 PUSH1 0x4 MSTORE PUSH1 0x24 PUSH0 REVERT JUMPDEST DUP2 DUP2 SUB DUP2 DUP2 GT ISZERO PUSH2 0x1B39 JUMPI PUSH2 0x1B39 PUSH2 0x1EB4 JUMP JUMPDEST DUP1 DUP3 MUL DUP2 ISZERO DUP3 DUP3 DIV DUP5 EQ OR PUSH2 0x1B39 JUMPI PUSH2 0x1B39 PUSH2 0x1EB4 JUMP JUMPDEST PUSH0 DUP3 PUSH2 0x1F0C JUMPI PUSH4 0x4E487B71 PUSH1 0xE0 SHL PUSH0 MSTORE PUSH1 0x12 PUSH1 0x4 MSTORE PUSH1 0x24 PUSH0 REVERT JUMPDEST POP DIV SWAP1 JUMP JUMPDEST DUP1 DUP3 ADD DUP1 DUP3 GT ISZERO PUSH2 0x1B39 JUMPI PUSH2 0x1B39 PUSH2 0x1EB4 JUMP JUMPDEST PUSH0 PUSH1 0x20 DUP3 DUP5 SUB SLT ISZERO PUSH2 0x1F34 JUMPI PUSH0 PUSH0 REVERT JUMPDEST POP MLOAD SWAP2 SWAP1 POP JUMP JUMPDEST DUP4 DUP2 MSTORE PUSH1 0x40 PUSH1 0x20 DUP3 ADD MSTORE PUSH0 PUSH2 0x1F54 PUSH1 0x40 DUP4 ADD DUP5 DUP7 PUSH2 0x1E01 JUMP JUMPDEST SWAP6 SWAP5 POP POP POP POP POP JUMP JUMPDEST PUSH4 0x4E487B71 PUSH1 0xE0 SHL PUSH0 MSTORE PUSH1 0x41 PUSH1 0x4 MSTORE PUSH1 0x24 PUSH0 REVERT JUMPDEST PUSH0 PUSH1 0x20 DUP3 DUP5 SUB SLT ISZERO PUSH2 0x1F81 JUMPI PUSH0 PUSH0 REVERT JUMPDEST DUP2 MLOAD PUSH1 0x1 PUSH1 0x1 PUSH1 0x40 SHL SUB DUP2 GT ISZERO PUSH2 0x1F96 JUMPI PUSH0 PUSH0 REVERT JUMPDEST DUP3 ADD PUSH1 0x1F DUP2 ADD DUP5 SGT PUSH2 0x1FA6 JUMPI PUSH0 PUSH0 REVERT JUMPDEST DUP1 MLOAD PUSH1 0x1 PUSH1 0x1 PUSH1 0x40 SHL SUB DUP2 GT ISZERO PUSH2 0x1FBF JUMPI PUSH2 0x1FBF PUSH2 0x1F5D JUMP JUMPDEST DUP1 PUSH1 0x5 SHL PUSH1 0x40 MLOAD PUSH1 0x1F NOT PUSH1 0x3F DUP4 ADD AND DUP2 ADD DUP2 DUP2 LT PUSH1 0x1 PUSH1 0x1 PUSH1 0x40 SHL SUB DUP3 GT OR ISZERO PUSH2 0x1FEB JUMPI PUSH2 0x1FEB PUSH2 0x1F5D JUMP JUMPDEST PUSH1 0x40 MSTORE SWAP2 DUP3 MSTORE PUSH1 0x20 DUP2 DUP5 ADD DUP2 ADD SWAP3 SWAP1 DUP2 ADD DUP8 DUP5 GT ISZERO PUSH2 0x2008 JUMPI PUSH0 PUSH0 REVERT JUMPDEST PUSH1 0x20 DUP6 ADD SWAP5 POP JUMPDEST DUP4 DUP6 LT ISZERO PUSH2 0x202B JUMPI DUP5 MLOAD DUP1 DUP3 MSTORE PUSH1 0x20 SWAP6 DUP7 ADD SWAP6 SWAP1 SWAP4 POP ADD PUSH2 0x200F JUMP JUMPDEST POP SWAP7 SWAP6 POP POP POP POP POP POP JUMP JUMPDEST DUP7 DUP2 MSTORE DUP6 PUSH1 0x20 DUP3 ADD MSTORE PUSH1 0xA0 PUSH1 0x40 DUP3 ADD MSTORE PUSH0 PUSH2 0x2055 PUSH1 0xA0 DUP4 ADD DUP7 DUP9 PUSH2 0x1E01 JUMP JUMPDEST PUSH1 0x1 PUSH1 0x1 PUSH1 0xA0 SHL SUB SWAP5 SWAP1 SWAP5 AND PUSH1 0x60 DUP4 ADD MSTORE POP PUSH1 0x80 ADD MSTORE SWAP5 SWAP4 POP POP POP POP JUMP INVALID LOG2 PUSH5 0x6970667358 0x22 SLT KECCAK256 ADDRESS SELFBALANCE BASEFEE SWAP16 GASLIMIT SWAP9 0xCC 0xB0 OR 0x26 0xD CREATE2 0xCB LOG3 0xEB STOP 0xC5 PUSH7 0x6AFC72A242E9E5 0xDA 0xB5 0x2E BLOBBASEFEE DELEGATECALL RETURNDATACOPY BLOBHASH PUSH5 0x736F6C6343 STOP ADDMOD 0x1E STOP CALLER "
				},
				"gasEstimates": {
					"creation": {
						"codeDepositCost": "1672200",
						"executionCost": "infinite",
						"totalCost": "infinite"
					},
					"external": {
						"MAX_FEE_BPS()": "314",
						"acceptOwnership()": "infinite",
						"clearCommit()": "30772",
						"commitBlock(address)": "2568",
						"commitOf(address)": "2626",
						"commitSwap(bytes32)": "50350",
						"feeRecipient()": "2370",
						"isAllowedRouter(address)": "2617",
						"owner()": "2396",
						"pause()": "infinite",
						"paused()": "2381",
						"pendingOwner()": "2352",
						"protocolFeeBps()": "2380",
						"quoteBest(uint256,address[],address[])": "infinite",
						"renounceOwnership()": "infinite",
						"rescueToken(address,address,uint256)": "infinite",
						"setAllowedRouter(address,bool)": "28394",
						"setFeeConfig(address,uint16)": "28382",
						"swapBest(uint256,uint256,address[],address[],uint256)": "infinite",
						"swapBestReveal(uint256,uint256,address[],address[],uint256,bytes32)": "infinite",
						"transferOwnership(address)": "30477",
						"unpause()": "infinite"
					},
					"internal": {
						"_approveExact(address,address,uint256)": "infinite",
						"_bestSingleQuote(uint256,address[] calldata,address[] calldata)": "infinite",
						"_bestSplitQuote(uint256,address,address,address[] calldata)": "infinite",
						"_decideBest(uint256,address[] calldata,address[] calldata)": "infinite",
						"_emitSwapBestSingle(struct AdvancedDexAggregator.ExecCtx memory,address,uint256,uint256,uint256)": "infinite",
						"_emitSwapBestSplit(struct AdvancedDexAggregator.ExecCtx memory,address,address,uint256,uint256,uint256,uint256,uint256,uint256)": "infinite",
						"_execSingle(struct AdvancedDexAggregator.ExecCtx memory,address,uint256,address[] calldata)": "infinite",
						"_execSplit(struct AdvancedDexAggregator.ExecCtx memory,address,address,uint256,uint16,address[] calldata)": "infinite",
						"_pullTokenIn(address,address,uint256)": "infinite",
						"_safeAmountsOut(address,uint256,address[] calldata)": "infinite",
						"_swapToSelf(struct AdvancedDexAggregator.ExecCtx memory,address,uint256,address[] calldata,uint256)": "infinite",
						"_takeFee(address,uint256)": "infinite",
						"_topTwoRouters(uint256,address[] calldata,address[] calldata)": "infinite"
					}
				},
				"methodIdentifiers": {
					"MAX_FEE_BPS()": "d55be8c6",
					"acceptOwnership()": "79ba5097",
					"clearCommit()": "ff7551e3",
					"commitBlock(address)": "23dd7f39",
					"commitOf(address)": "fdd5791e",
					"commitSwap(bytes32)": "5b7499b5",
					"feeRecipient()": "46904840",
					"isAllowedRouter(address)": "c226c4bb",
					"owner()": "8da5cb5b",
					"pause()": "8456cb59",
					"paused()": "5c975abb",
					"pendingOwner()": "e30c3978",
					"protocolFeeBps()": "35659fb8",
					"quoteBest(uint256,address[],address[])": "52fd5099",
					"renounceOwnership()": "715018a6",
					"rescueToken(address,address,uint256)": "e5711e8b",
					"setAllowedRouter(address,bool)": "39a5b0cd",
					"setFeeConfig(address,uint16)": "350e9756",
					"swapBest(uint256,uint256,address[],address[],uint256)": "f87b098c",
					"swapBestReveal(uint256,uint256,address[],address[],uint256,bytes32)": "6bdc40a6",
					"transferOwnership(address)": "f2fde38b",
					"unpause()": "3f4ba83a"
				}
			},
			"storageLayout": {
				"storage": [
					{
						"astId": 8,
						"contract": "Smart Contracts/30_SimpleDexAggregatorOZ.sol:AdvancedDexAggregator",
						"label": "_owner",
						"offset": 0,
						"slot": "0",
						"type": "t_address"
					},
					{
						"astId": 156,
						"contract": "Smart Contracts/30_SimpleDexAggregatorOZ.sol:AdvancedDexAggregator",
						"label": "_pendingOwner",
						"offset": 0,
						"slot": "1",
						"type": "t_address"
					},
					{
						"astId": 1014,
						"contract": "Smart Contracts/30_SimpleDexAggregatorOZ.sol:AdvancedDexAggregator",
						"label": "_status",
						"offset": 0,
						"slot": "2",
						"type": "t_uint256"
					},
					{
						"astId": 904,
						"contract": "Smart Contracts/30_SimpleDexAggregatorOZ.sol:AdvancedDexAggregator",
						"label": "_paused",
						"offset": 0,
						"slot": "3",
						"type": "t_bool"
					},
					{
						"astId": 1134,
						"contract": "Smart Contracts/30_SimpleDexAggregatorOZ.sol:AdvancedDexAggregator",
						"label": "isAllowedRouter",
						"offset": 0,
						"slot": "4",
						"type": "t_mapping(t_address,t_bool)"
					},
					{
						"astId": 1136,
						"contract": "Smart Contracts/30_SimpleDexAggregatorOZ.sol:AdvancedDexAggregator",
						"label": "protocolFeeBps",
						"offset": 0,
						"slot": "5",
						"type": "t_uint16"
					},
					{
						"astId": 1138,
						"contract": "Smart Contracts/30_SimpleDexAggregatorOZ.sol:AdvancedDexAggregator",
						"label": "feeRecipient",
						"offset": 2,
						"slot": "5",
						"type": "t_address"
					},
					{
						"astId": 1205,
						"contract": "Smart Contracts/30_SimpleDexAggregatorOZ.sol:AdvancedDexAggregator",
						"label": "commitOf",
						"offset": 0,
						"slot": "6",
						"type": "t_mapping(t_address,t_bytes32)"
					},
					{
						"astId": 1209,
						"contract": "Smart Contracts/30_SimpleDexAggregatorOZ.sol:AdvancedDexAggregator",
						"label": "commitBlock",
						"offset": 0,
						"slot": "7",
						"type": "t_mapping(t_address,t_uint64)"
					}
				],
				"types": {
					"t_address": {
						"encoding": "inplace",
						"label": "address",
						"numberOfBytes": "20"
					},
					"t_bool": {
						"encoding": "inplace",
						"label": "bool",
						"numberOfBytes": "1"
					},
					"t_bytes32": {
						"encoding": "inplace",
						"label": "bytes32",
						"numberOfBytes": "32"
					},
					"t_mapping(t_address,t_bool)": {
						"encoding": "mapping",
						"key": "t_address",
						"label": "mapping(address => bool)",
						"numberOfBytes": "32",
						"value": "t_bool"
					},
					"t_mapping(t_address,t_bytes32)": {
						"encoding": "mapping",
						"key": "t_address",
						"label": "mapping(address => bytes32)",
						"numberOfBytes": "32",
						"value": "t_bytes32"
					},
					"t_mapping(t_address,t_uint64)": {
						"encoding": "mapping",
						"key": "t_address",
						"label": "mapping(address => uint64)",
						"numberOfBytes": "32",
						"value": "t_uint64"
					},
					"t_uint16": {
						"encoding": "inplace",
						"label": "uint16",
						"numberOfBytes": "2"
					},
					"t_uint256": {
						"encoding": "inplace",
						"label": "uint256",
						"numberOfBytes": "32"
					},
					"t_uint64": {
						"encoding": "inplace",
						"label": "uint64",
						"numberOfBytes": "8"
					}
				}
			},
			"userdoc": {
				"kind": "user",
				"methods": {},
				"version": 1
			}
		}
	}
}