{
	"Smart Contracts/1_SimpleWalletContract.sol": {
		"SmartWalletContract": {
			"abi": [
				{
					"inputs": [],
					"stateMutability": "nonpayable",
					"type": "constructor"
				},
				{
					"inputs": [],
					"name": "deposit",
					"outputs": [],
					"stateMutability": "payable",
					"type": "function"
				},
				{
					"inputs": [],
					"name": "getBalance",
					"outputs": [
						{
							"internalType": "uint256",
							"name": "",
							"type": "uint256"
						}
					],
					"stateMutability": "view",
					"type": "function"
				},
				{
					"inputs": [],
					"name": "owner",
					"outputs": [
						{
							"internalType": "address",
							"name": "",
							"type": "address"
						}
					],
					"stateMutability": "view",
					"type": "function"
				},
				{
					"inputs": [
						{
							"internalType": "address payable",
							"name": "receiver",
							"type": "address"
						},
						{
							"internalType": "uint256",
							"name": "amount",
							"type": "uint256"
						}
					],
					"name": "sendEth",
					"outputs": [],
					"stateMutability": "nonpayable",
					"type": "function"
				},
				{
					"inputs": [
						{
							"internalType": "uint256",
							"name": "ethValue",
							"type": "uint256"
						}
					],
					"name": "withdraw",
					"outputs": [],
					"stateMutability": "nonpayable",
					"type": "function"
				},
				{
					"stateMutability": "payable",
					"type": "receive"
				}
			],
			"devdoc": {
				"kind": "dev",
				"methods": {},
				"version": 1
			},
			"evm": {
				"assembly": "    /* \"Smart Contracts/1_SimpleWalletContract.sol\":60:1263  contract SmartWalletContract {... */\n  mstore(0x40, 0x80)\n    /* \"Smart Contracts/1_SimpleWalletContract.sol\":125:176  constructor() {... */\n  callvalue\n  dup1\n  iszero\n  tag_1\n  jumpi\n  revert(0x00, 0x00)\ntag_1:\n  pop\n    /* \"Smart Contracts/1_SimpleWalletContract.sol\":158:168  msg.sender */\n  caller\n    /* \"Smart Contracts/1_SimpleWalletContract.sol\":150:155  owner */\n  0x00\n  0x00\n    /* \"Smart Contracts/1_SimpleWalletContract.sol\":150:168  owner = msg.sender */\n  0x0100\n  exp\n  dup2\n  sload\n  dup2\n  0xffffffffffffffffffffffffffffffffffffffff\n  mul\n  not\n  and\n  swap1\n  dup4\n  0xffffffffffffffffffffffffffffffffffffffff\n  and\n  mul\n  or\n  swap1\n  sstore\n  pop\n    /* \"Smart Contracts/1_SimpleWalletContract.sol\":60:1263  contract SmartWalletContract {... */\n  dataSize(sub_0)\n  dup1\n  dataOffset(sub_0)\n  0x00\n  codecopy\n  0x00\n  return\nstop\n\nsub_0: assembly {\n        /* \"Smart Contracts/1_SimpleWalletContract.sol\":60:1263  contract SmartWalletContract {... */\n      mstore(0x40, 0x80)\n      jumpi(tag_1, lt(calldatasize, 0x04))\n      shr(0xe0, calldataload(0x00))\n      dup1\n      0x12065fe0\n      eq\n      tag_3\n      jumpi\n      dup1\n      0x2e1a7d4d\n      eq\n      tag_4\n      jumpi\n      dup1\n      0x49dcbc5e\n      eq\n      tag_5\n      jumpi\n      dup1\n      0x8da5cb5b\n      eq\n      tag_6\n      jumpi\n      dup1\n      0xd0e30db0\n      eq\n      tag_7\n      jumpi\n      jump(tag_2)\n    tag_1:\n      jumpi(tag_2, calldatasize)\n      stop\n    tag_2:\n      revert(0x00, 0x00)\n        /* \"Smart Contracts/1_SimpleWalletContract.sol\":1127:1223  function getBalance() public view returns (uint) {... */\n    tag_3:\n      callvalue\n      dup1\n      iszero\n      tag_10\n      jumpi\n      revert(0x00, 0x00)\n    tag_10:\n      pop\n      tag_11\n      tag_12\n      jump\t// in\n    tag_11:\n      mload(0x40)\n      tag_13\n      swap2\n      swap1\n      tag_14\n      jump\t// in\n    tag_13:\n      mload(0x40)\n      dup1\n      swap2\n      sub\n      swap1\n      return\n        /* \"Smart Contracts/1_SimpleWalletContract.sol\":436:697  function withdraw(uint ethValue) public checkOwner {... */\n    tag_4:\n      callvalue\n      dup1\n      iszero\n      tag_15\n      jumpi\n      revert(0x00, 0x00)\n    tag_15:\n      pop\n      tag_16\n      0x04\n      dup1\n      calldatasize\n      sub\n      dup2\n      add\n      swap1\n      tag_17\n      swap2\n      swap1\n      tag_18\n      jump\t// in\n    tag_17:\n      tag_19\n      jump\t// in\n    tag_16:\n      stop\n        /* \"Smart Contracts/1_SimpleWalletContract.sol\":705:1119  function sendEth(address payable receiver, uint amount) public checkOwner {... */\n    tag_5:\n      callvalue\n      dup1\n      iszero\n      tag_20\n      jumpi\n      revert(0x00, 0x00)\n    tag_20:\n      pop\n      tag_21\n      0x04\n      dup1\n      calldatasize\n      sub\n      dup2\n      add\n      swap1\n      tag_22\n      swap2\n      swap1\n      tag_23\n      jump\t// in\n    tag_22:\n      tag_24\n      jump\t// in\n    tag_21:\n      stop\n        /* \"Smart Contracts/1_SimpleWalletContract.sol\":96:116  address public owner */\n    tag_6:\n      callvalue\n      dup1\n      iszero\n      tag_25\n      jumpi\n      revert(0x00, 0x00)\n    tag_25:\n      pop\n      tag_26\n      tag_27\n      jump\t// in\n    tag_26:\n      mload(0x40)\n      tag_28\n      swap2\n      swap1\n      tag_29\n      jump\t// in\n    tag_28:\n      mload(0x40)\n      dup1\n      swap2\n      sub\n      swap1\n      return\n        /* \"Smart Contracts/1_SimpleWalletContract.sol\":309:428  function deposit() public payable {... */\n    tag_7:\n      tag_30\n      tag_31\n      jump\t// in\n    tag_30:\n      stop\n        /* \"Smart Contracts/1_SimpleWalletContract.sol\":1127:1223  function getBalance() public view returns (uint) {... */\n    tag_12:\n        /* \"Smart Contracts/1_SimpleWalletContract.sol\":1170:1174  uint */\n      0x00\n        /* \"Smart Contracts/1_SimpleWalletContract.sol\":1194:1215  address(this).balance */\n      selfbalance\n        /* \"Smart Contracts/1_SimpleWalletContract.sol\":1187:1215  return address(this).balance */\n      swap1\n      pop\n        /* \"Smart Contracts/1_SimpleWalletContract.sol\":1127:1223  function getBalance() public view returns (uint) {... */\n      swap1\n      jump\t// out\n        /* \"Smart Contracts/1_SimpleWalletContract.sol\":436:697  function withdraw(uint ethValue) public checkOwner {... */\n    tag_19:\n        /* \"Smart Contracts/1_SimpleWalletContract.sol\":237:242  owner */\n      0x00\n      0x00\n      swap1\n      sload\n      swap1\n      0x0100\n      exp\n      swap1\n      div\n      0xffffffffffffffffffffffffffffffffffffffff\n      and\n        /* \"Smart Contracts/1_SimpleWalletContract.sol\":223:242  msg.sender == owner */\n      0xffffffffffffffffffffffffffffffffffffffff\n      and\n        /* \"Smart Contracts/1_SimpleWalletContract.sol\":223:233  msg.sender */\n      caller\n        /* \"Smart Contracts/1_SimpleWalletContract.sol\":223:242  msg.sender == owner */\n      0xffffffffffffffffffffffffffffffffffffffff\n      and\n      eq\n        /* \"Smart Contracts/1_SimpleWalletContract.sol\":215:281  require(msg.sender == owner, \"Only owner can perform this action\") */\n      tag_34\n      jumpi\n      mload(0x40)\n      0x08c379a000000000000000000000000000000000000000000000000000000000\n      dup2\n      mstore\n      0x04\n      add\n      tag_35\n      swap1\n      tag_36\n      jump\t// in\n    tag_35:\n      mload(0x40)\n      dup1\n      swap2\n      sub\n      swap1\n      revert\n    tag_34:\n        /* \"Smart Contracts/1_SimpleWalletContract.sol\":531:539  ethValue */\n      dup1\n        /* \"Smart Contracts/1_SimpleWalletContract.sol\":506:527  address(this).balance */\n      selfbalance\n        /* \"Smart Contracts/1_SimpleWalletContract.sol\":506:539  address(this).balance >= ethValue */\n      lt\n      iszero\n        /* \"Smart Contracts/1_SimpleWalletContract.sol\":498:569  require(address(this).balance >= ethValue, \"Balance is not sufficient\") */\n      tag_38\n      jumpi\n      mload(0x40)\n      0x08c379a000000000000000000000000000000000000000000000000000000000\n      dup2\n      mstore\n      0x04\n      add\n      tag_39\n      swap1\n      tag_40\n      jump\t// in\n    tag_39:\n      mload(0x40)\n      dup1\n      swap2\n      sub\n      swap1\n      revert\n    tag_38:\n        /* \"Smart Contracts/1_SimpleWalletContract.sol\":583:595  bool success */\n      0x00\n        /* \"Smart Contracts/1_SimpleWalletContract.sol\":609:614  owner */\n      0x00\n      0x00\n      swap1\n      sload\n      swap1\n      0x0100\n      exp\n      swap1\n      div\n      0xffffffffffffffffffffffffffffffffffffffff\n      and\n        /* \"Smart Contracts/1_SimpleWalletContract.sol\":601:620  payable(owner).call */\n      0xffffffffffffffffffffffffffffffffffffffff\n      and\n        /* \"Smart Contracts/1_SimpleWalletContract.sol\":628:636  ethValue */\n      dup3\n        /* \"Smart Contracts/1_SimpleWalletContract.sol\":601:641  payable(owner).call{value: ethValue}(\"\") */\n      mload(0x40)\n      tag_41\n      swap1\n      tag_42\n      jump\t// in\n    tag_41:\n      0x00\n      mload(0x40)\n      dup1\n      dup4\n      sub\n      dup2\n      dup6\n      dup8\n      gas\n      call\n      swap3\n      pop\n      pop\n      pop\n      returndatasize\n      dup1\n      0x00\n      dup2\n      eq\n      tag_45\n      jumpi\n      mload(0x40)\n      swap2\n      pop\n      and(add(returndatasize, 0x3f), not(0x1f))\n      dup3\n      add\n      0x40\n      mstore\n      returndatasize\n      dup3\n      mstore\n      returndatasize\n      0x00\n      0x20\n      dup5\n      add\n      returndatacopy\n      jump(tag_44)\n    tag_45:\n      0x60\n      swap2\n      pop\n    tag_44:\n      pop\n        /* \"Smart Contracts/1_SimpleWalletContract.sol\":582:641  (bool success, ) = payable(owner).call{value: ethValue}(\"\") */\n      pop\n      swap1\n      pop\n        /* \"Smart Contracts/1_SimpleWalletContract.sol\":660:667  success */\n      dup1\n        /* \"Smart Contracts/1_SimpleWalletContract.sol\":652:689  require(success, \"Withdrawal failed\") */\n      tag_46\n      jumpi\n      mload(0x40)\n      0x08c379a000000000000000000000000000000000000000000000000000000000\n      dup2\n      mstore\n      0x04\n      add\n      tag_47\n      swap1\n      tag_48\n      jump\t// in\n    tag_47:\n      mload(0x40)\n      dup1\n      swap2\n      sub\n      swap1\n      revert\n    tag_46:\n        /* \"Smart Contracts/1_SimpleWalletContract.sol\":487:697  {... */\n      pop\n        /* \"Smart Contracts/1_SimpleWalletContract.sol\":436:697  function withdraw(uint ethValue) public checkOwner {... */\n      pop\n      jump\t// out\n        /* \"Smart Contracts/1_SimpleWalletContract.sol\":705:1119  function sendEth(address payable receiver, uint amount) public checkOwner {... */\n    tag_24:\n        /* \"Smart Contracts/1_SimpleWalletContract.sol\":237:242  owner */\n      0x00\n      0x00\n      swap1\n      sload\n      swap1\n      0x0100\n      exp\n      swap1\n      div\n      0xffffffffffffffffffffffffffffffffffffffff\n      and\n        /* \"Smart Contracts/1_SimpleWalletContract.sol\":223:242  msg.sender == owner */\n      0xffffffffffffffffffffffffffffffffffffffff\n      and\n        /* \"Smart Contracts/1_SimpleWalletContract.sol\":223:233  msg.sender */\n      caller\n        /* \"Smart Contracts/1_SimpleWalletContract.sol\":223:242  msg.sender == owner */\n      0xffffffffffffffffffffffffffffffffffffffff\n      and\n      eq\n        /* \"Smart Contracts/1_SimpleWalletContract.sol\":215:281  require(msg.sender == owner, \"Only owner can perform this action\") */\n      tag_50\n      jumpi\n      mload(0x40)\n      0x08c379a000000000000000000000000000000000000000000000000000000000\n      dup2\n      mstore\n      0x04\n      add\n      tag_51\n      swap1\n      tag_36\n      jump\t// in\n    tag_51:\n      mload(0x40)\n      dup1\n      swap2\n      sub\n      swap1\n      revert\n    tag_50:\n        /* \"Smart Contracts/1_SimpleWalletContract.sol\":818:819  0 */\n      0x00\n        /* \"Smart Contracts/1_SimpleWalletContract.sol\":798:820  receiver != address(0) */\n      0xffffffffffffffffffffffffffffffffffffffff\n      and\n        /* \"Smart Contracts/1_SimpleWalletContract.sol\":798:806  receiver */\n      dup3\n        /* \"Smart Contracts/1_SimpleWalletContract.sol\":798:820  receiver != address(0) */\n      0xffffffffffffffffffffffffffffffffffffffff\n      and\n      sub\n        /* \"Smart Contracts/1_SimpleWalletContract.sol\":790:849  require(receiver != address(0), \"Invalid receiver address\") */\n      tag_53\n      jumpi\n      mload(0x40)\n      0x08c379a000000000000000000000000000000000000000000000000000000000\n      dup2\n      mstore\n      0x04\n      add\n      tag_54\n      swap1\n      tag_55\n      jump\t// in\n    tag_54:\n      mload(0x40)\n      dup1\n      swap2\n      sub\n      swap1\n      revert\n    tag_53:\n        /* \"Smart Contracts/1_SimpleWalletContract.sol\":877:878  0 */\n      0x00\n        /* \"Smart Contracts/1_SimpleWalletContract.sol\":868:874  amount */\n      dup2\n        /* \"Smart Contracts/1_SimpleWalletContract.sol\":868:878  amount > 0 */\n      gt\n        /* \"Smart Contracts/1_SimpleWalletContract.sol\":860:915  require(amount > 0, \"Amount must be greater than zero\") */\n      tag_56\n      jumpi\n      mload(0x40)\n      0x08c379a000000000000000000000000000000000000000000000000000000000\n      dup2\n      mstore\n      0x04\n      add\n      tag_57\n      swap1\n      tag_58\n      jump\t// in\n    tag_57:\n      mload(0x40)\n      dup1\n      swap2\n      sub\n      swap1\n      revert\n    tag_56:\n        /* \"Smart Contracts/1_SimpleWalletContract.sol\":959:965  amount */\n      dup1\n        /* \"Smart Contracts/1_SimpleWalletContract.sol\":934:955  address(this).balance */\n      selfbalance\n        /* \"Smart Contracts/1_SimpleWalletContract.sol\":934:965  address(this).balance >= amount */\n      lt\n      iszero\n        /* \"Smart Contracts/1_SimpleWalletContract.sol\":926:997  require(address(this).balance >= amount, \"Insufficient wallet balance\") */\n      tag_59\n      jumpi\n      mload(0x40)\n      0x08c379a000000000000000000000000000000000000000000000000000000000\n      dup2\n      mstore\n      0x04\n      add\n      tag_60\n      swap1\n      tag_61\n      jump\t// in\n    tag_60:\n      mload(0x40)\n      dup1\n      swap2\n      sub\n      swap1\n      revert\n    tag_59:\n        /* \"Smart Contracts/1_SimpleWalletContract.sol\":1011:1023  bool success */\n      0x00\n        /* \"Smart Contracts/1_SimpleWalletContract.sol\":1029:1037  receiver */\n      dup3\n        /* \"Smart Contracts/1_SimpleWalletContract.sol\":1029:1042  receiver.call */\n      0xffffffffffffffffffffffffffffffffffffffff\n      and\n        /* \"Smart Contracts/1_SimpleWalletContract.sol\":1050:1056  amount */\n      dup3\n        /* \"Smart Contracts/1_SimpleWalletContract.sol\":1029:1061  receiver.call{value: amount}(\"\") */\n      mload(0x40)\n      tag_62\n      swap1\n      tag_42\n      jump\t// in\n    tag_62:\n      0x00\n      mload(0x40)\n      dup1\n      dup4\n      sub\n      dup2\n      dup6\n      dup8\n      gas\n      call\n      swap3\n      pop\n      pop\n      pop\n      returndatasize\n      dup1\n      0x00\n      dup2\n      eq\n      tag_65\n      jumpi\n      mload(0x40)\n      swap2\n      pop\n      and(add(returndatasize, 0x3f), not(0x1f))\n      dup3\n      add\n      0x40\n      mstore\n      returndatasize\n      dup3\n      mstore\n      returndatasize\n      0x00\n      0x20\n      dup5\n      add\n      returndatacopy\n      jump(tag_64)\n    tag_65:\n      0x60\n      swap2\n      pop\n    tag_64:\n      pop\n        /* \"Smart Contracts/1_SimpleWalletContract.sol\":1010:1061  (bool success, ) = receiver.call{value: amount}(\"\") */\n      pop\n      swap1\n      pop\n        /* \"Smart Contracts/1_SimpleWalletContract.sol\":1080:1087  success */\n      dup1\n        /* \"Smart Contracts/1_SimpleWalletContract.sol\":1072:1111  require(success, \"ETH transfer failed\") */\n      tag_66\n      jumpi\n      mload(0x40)\n      0x08c379a000000000000000000000000000000000000000000000000000000000\n      dup2\n      mstore\n      0x04\n      add\n      tag_67\n      swap1\n      tag_68\n      jump\t// in\n    tag_67:\n      mload(0x40)\n      dup1\n      swap2\n      sub\n      swap1\n      revert\n    tag_66:\n        /* \"Smart Contracts/1_SimpleWalletContract.sol\":779:1119  {... */\n      pop\n        /* \"Smart Contracts/1_SimpleWalletContract.sol\":705:1119  function sendEth(address payable receiver, uint amount) public checkOwner {... */\n      pop\n      pop\n      jump\t// out\n        /* \"Smart Contracts/1_SimpleWalletContract.sol\":96:116  address public owner */\n    tag_27:\n      0x00\n      0x00\n      swap1\n      sload\n      swap1\n      0x0100\n      exp\n      swap1\n      div\n      0xffffffffffffffffffffffffffffffffffffffff\n      and\n      dup2\n      jump\t// out\n        /* \"Smart Contracts/1_SimpleWalletContract.sol\":309:428  function deposit() public payable {... */\n    tag_31:\n        /* \"Smart Contracts/1_SimpleWalletContract.sol\":374:375  0 */\n      0x00\n        /* \"Smart Contracts/1_SimpleWalletContract.sol\":362:371  msg.value */\n      callvalue\n        /* \"Smart Contracts/1_SimpleWalletContract.sol\":362:375  msg.value > 0 */\n      gt\n        /* \"Smart Contracts/1_SimpleWalletContract.sol\":354:420  require(msg.value > 0, \"Deposit amount must be greater than zero\") */\n      tag_70\n      jumpi\n      mload(0x40)\n      0x08c379a000000000000000000000000000000000000000000000000000000000\n      dup2\n      mstore\n      0x04\n      add\n      tag_71\n      swap1\n      tag_72\n      jump\t// in\n    tag_71:\n      mload(0x40)\n      dup1\n      swap2\n      sub\n      swap1\n      revert\n    tag_70:\n        /* \"Smart Contracts/1_SimpleWalletContract.sol\":309:428  function deposit() public payable {... */\n      jump\t// out\n        /* \"#utility.yul\":7:84   */\n    tag_73:\n        /* \"#utility.yul\":44:51   */\n      0x00\n        /* \"#utility.yul\":73:78   */\n      dup2\n        /* \"#utility.yul\":62:78   */\n      swap1\n      pop\n        /* \"#utility.yul\":7:84   */\n      swap2\n      swap1\n      pop\n      jump\t// out\n        /* \"#utility.yul\":90:208   */\n    tag_74:\n        /* \"#utility.yul\":177:201   */\n      tag_109\n        /* \"#utility.yul\":195:200   */\n      dup2\n        /* \"#utility.yul\":177:201   */\n      tag_73\n      jump\t// in\n    tag_109:\n        /* \"#utility.yul\":172:175   */\n      dup3\n        /* \"#utility.yul\":165:202   */\n      mstore\n        /* \"#utility.yul\":90:208   */\n      pop\n      pop\n      jump\t// out\n        /* \"#utility.yul\":214:436   */\n    tag_14:\n        /* \"#utility.yul\":307:311   */\n      0x00\n        /* \"#utility.yul\":345:347   */\n      0x20\n        /* \"#utility.yul\":334:343   */\n      dup3\n        /* \"#utility.yul\":330:348   */\n      add\n        /* \"#utility.yul\":322:348   */\n      swap1\n      pop\n        /* \"#utility.yul\":358:429   */\n      tag_111\n        /* \"#utility.yul\":426:427   */\n      0x00\n        /* \"#utility.yul\":415:424   */\n      dup4\n        /* \"#utility.yul\":411:428   */\n      add\n        /* \"#utility.yul\":402:408   */\n      dup5\n        /* \"#utility.yul\":358:429   */\n      tag_74\n      jump\t// in\n    tag_111:\n        /* \"#utility.yul\":214:436   */\n      swap3\n      swap2\n      pop\n      pop\n      jump\t// out\n        /* \"#utility.yul\":523:640   */\n    tag_76:\n        /* \"#utility.yul\":632:633   */\n      0x00\n        /* \"#utility.yul\":629:630   */\n      0x00\n        /* \"#utility.yul\":622:634   */\n      revert\n        /* \"#utility.yul\":769:891   */\n    tag_78:\n        /* \"#utility.yul\":842:866   */\n      tag_116\n        /* \"#utility.yul\":860:865   */\n      dup2\n        /* \"#utility.yul\":842:866   */\n      tag_73\n      jump\t// in\n    tag_116:\n        /* \"#utility.yul\":835:840   */\n      dup2\n        /* \"#utility.yul\":832:867   */\n      eq\n        /* \"#utility.yul\":822:885   */\n      tag_117\n      jumpi\n        /* \"#utility.yul\":881:882   */\n      0x00\n        /* \"#utility.yul\":878:879   */\n      0x00\n        /* \"#utility.yul\":871:883   */\n      revert\n        /* \"#utility.yul\":822:885   */\n    tag_117:\n        /* \"#utility.yul\":769:891   */\n      pop\n      jump\t// out\n        /* \"#utility.yul\":897:1036   */\n    tag_79:\n        /* \"#utility.yul\":943:948   */\n      0x00\n        /* \"#utility.yul\":981:987   */\n      dup2\n        /* \"#utility.yul\":968:988   */\n      calldataload\n        /* \"#utility.yul\":959:988   */\n      swap1\n      pop\n        /* \"#utility.yul\":997:1030   */\n      tag_119\n        /* \"#utility.yul\":1024:1029   */\n      dup2\n        /* \"#utility.yul\":997:1030   */\n      tag_78\n      jump\t// in\n    tag_119:\n        /* \"#utility.yul\":897:1036   */\n      swap3\n      swap2\n      pop\n      pop\n      jump\t// out\n        /* \"#utility.yul\":1042:1371   */\n    tag_18:\n        /* \"#utility.yul\":1101:1107   */\n      0x00\n        /* \"#utility.yul\":1150:1152   */\n      0x20\n        /* \"#utility.yul\":1138:1147   */\n      dup3\n        /* \"#utility.yul\":1129:1136   */\n      dup5\n        /* \"#utility.yul\":1125:1148   */\n      sub\n        /* \"#utility.yul\":1121:1153   */\n      slt\n        /* \"#utility.yul\":1118:1237   */\n      iszero\n      tag_121\n      jumpi\n        /* \"#utility.yul\":1156:1235   */\n      tag_122\n      tag_76\n      jump\t// in\n    tag_122:\n        /* \"#utility.yul\":1118:1237   */\n    tag_121:\n        /* \"#utility.yul\":1276:1277   */\n      0x00\n        /* \"#utility.yul\":1301:1354   */\n      tag_123\n        /* \"#utility.yul\":1346:1353   */\n      dup5\n        /* \"#utility.yul\":1337:1343   */\n      dup3\n        /* \"#utility.yul\":1326:1335   */\n      dup6\n        /* \"#utility.yul\":1322:1344   */\n      add\n        /* \"#utility.yul\":1301:1354   */\n      tag_79\n      jump\t// in\n    tag_123:\n        /* \"#utility.yul\":1291:1354   */\n      swap2\n      pop\n        /* \"#utility.yul\":1247:1364   */\n      pop\n        /* \"#utility.yul\":1042:1371   */\n      swap3\n      swap2\n      pop\n      pop\n      jump\t// out\n        /* \"#utility.yul\":1377:1503   */\n    tag_80:\n        /* \"#utility.yul\":1414:1421   */\n      0x00\n        /* \"#utility.yul\":1454:1496   */\n      0xffffffffffffffffffffffffffffffffffffffff\n        /* \"#utility.yul\":1447:1452   */\n      dup3\n        /* \"#utility.yul\":1443:1497   */\n      and\n        /* \"#utility.yul\":1432:1497   */\n      swap1\n      pop\n        /* \"#utility.yul\":1377:1503   */\n      swap2\n      swap1\n      pop\n      jump\t// out\n        /* \"#utility.yul\":1509:1613   */\n    tag_81:\n        /* \"#utility.yul\":1554:1561   */\n      0x00\n        /* \"#utility.yul\":1583:1607   */\n      tag_126\n        /* \"#utility.yul\":1601:1606   */\n      dup3\n        /* \"#utility.yul\":1583:1607   */\n      tag_80\n      jump\t// in\n    tag_126:\n        /* \"#utility.yul\":1572:1607   */\n      swap1\n      pop\n        /* \"#utility.yul\":1509:1613   */\n      swap2\n      swap1\n      pop\n      jump\t// out\n        /* \"#utility.yul\":1619:1757   */\n    tag_82:\n        /* \"#utility.yul\":1700:1732   */\n      tag_128\n        /* \"#utility.yul\":1726:1731   */\n      dup2\n        /* \"#utility.yul\":1700:1732   */\n      tag_81\n      jump\t// in\n    tag_128:\n        /* \"#utility.yul\":1693:1698   */\n      dup2\n        /* \"#utility.yul\":1690:1733   */\n      eq\n        /* \"#utility.yul\":1680:1751   */\n      tag_129\n      jumpi\n        /* \"#utility.yul\":1747:1748   */\n      0x00\n        /* \"#utility.yul\":1744:1745   */\n      0x00\n        /* \"#utility.yul\":1737:1749   */\n      revert\n        /* \"#utility.yul\":1680:1751   */\n    tag_129:\n        /* \"#utility.yul\":1619:1757   */\n      pop\n      jump\t// out\n        /* \"#utility.yul\":1763:1918   */\n    tag_83:\n        /* \"#utility.yul\":1817:1822   */\n      0x00\n        /* \"#utility.yul\":1855:1861   */\n      dup2\n        /* \"#utility.yul\":1842:1862   */\n      calldataload\n        /* \"#utility.yul\":1833:1862   */\n      swap1\n      pop\n        /* \"#utility.yul\":1871:1912   */\n      tag_131\n        /* \"#utility.yul\":1906:1911   */\n      dup2\n        /* \"#utility.yul\":1871:1912   */\n      tag_82\n      jump\t// in\n    tag_131:\n        /* \"#utility.yul\":1763:1918   */\n      swap3\n      swap2\n      pop\n      pop\n      jump\t// out\n        /* \"#utility.yul\":1924:2414   */\n    tag_23:\n        /* \"#utility.yul\":2000:2006   */\n      0x00\n        /* \"#utility.yul\":2008:2014   */\n      0x00\n        /* \"#utility.yul\":2057:2059   */\n      0x40\n        /* \"#utility.yul\":2045:2054   */\n      dup4\n        /* \"#utility.yul\":2036:2043   */\n      dup6\n        /* \"#utility.yul\":2032:2055   */\n      sub\n        /* \"#utility.yul\":2028:2060   */\n      slt\n        /* \"#utility.yul\":2025:2144   */\n      iszero\n      tag_133\n      jumpi\n        /* \"#utility.yul\":2063:2142   */\n      tag_134\n      tag_76\n      jump\t// in\n    tag_134:\n        /* \"#utility.yul\":2025:2144   */\n    tag_133:\n        /* \"#utility.yul\":2183:2184   */\n      0x00\n        /* \"#utility.yul\":2208:2269   */\n      tag_135\n        /* \"#utility.yul\":2261:2268   */\n      dup6\n        /* \"#utility.yul\":2252:2258   */\n      dup3\n        /* \"#utility.yul\":2241:2250   */\n      dup7\n        /* \"#utility.yul\":2237:2259   */\n      add\n        /* \"#utility.yul\":2208:2269   */\n      tag_83\n      jump\t// in\n    tag_135:\n        /* \"#utility.yul\":2198:2269   */\n      swap3\n      pop\n        /* \"#utility.yul\":2154:2279   */\n      pop\n        /* \"#utility.yul\":2318:2320   */\n      0x20\n        /* \"#utility.yul\":2344:2397   */\n      tag_136\n        /* \"#utility.yul\":2389:2396   */\n      dup6\n        /* \"#utility.yul\":2380:2386   */\n      dup3\n        /* \"#utility.yul\":2369:2378   */\n      dup7\n        /* \"#utility.yul\":2365:2387   */\n      add\n        /* \"#utility.yul\":2344:2397   */\n      tag_79\n      jump\t// in\n    tag_136:\n        /* \"#utility.yul\":2334:2397   */\n      swap2\n      pop\n        /* \"#utility.yul\":2289:2407   */\n      pop\n        /* \"#utility.yul\":1924:2414   */\n      swap3\n      pop\n      swap3\n      swap1\n      pop\n      jump\t// out\n        /* \"#utility.yul\":2420:2516   */\n    tag_84:\n        /* \"#utility.yul\":2457:2464   */\n      0x00\n        /* \"#utility.yul\":2486:2510   */\n      tag_138\n        /* \"#utility.yul\":2504:2509   */\n      dup3\n        /* \"#utility.yul\":2486:2510   */\n      tag_80\n      jump\t// in\n    tag_138:\n        /* \"#utility.yul\":2475:2510   */\n      swap1\n      pop\n        /* \"#utility.yul\":2420:2516   */\n      swap2\n      swap1\n      pop\n      jump\t// out\n        /* \"#utility.yul\":2522:2640   */\n    tag_85:\n        /* \"#utility.yul\":2609:2633   */\n      tag_140\n        /* \"#utility.yul\":2627:2632   */\n      dup2\n        /* \"#utility.yul\":2609:2633   */\n      tag_84\n      jump\t// in\n    tag_140:\n        /* \"#utility.yul\":2604:2607   */\n      dup3\n        /* \"#utility.yul\":2597:2634   */\n      mstore\n        /* \"#utility.yul\":2522:2640   */\n      pop\n      pop\n      jump\t// out\n        /* \"#utility.yul\":2646:2868   */\n    tag_29:\n        /* \"#utility.yul\":2739:2743   */\n      0x00\n        /* \"#utility.yul\":2777:2779   */\n      0x20\n        /* \"#utility.yul\":2766:2775   */\n      dup3\n        /* \"#utility.yul\":2762:2780   */\n      add\n        /* \"#utility.yul\":2754:2780   */\n      swap1\n      pop\n        /* \"#utility.yul\":2790:2861   */\n      tag_142\n        /* \"#utility.yul\":2858:2859   */\n      0x00\n        /* \"#utility.yul\":2847:2856   */\n      dup4\n        /* \"#utility.yul\":2843:2860   */\n      add\n        /* \"#utility.yul\":2834:2840   */\n      dup5\n        /* \"#utility.yul\":2790:2861   */\n      tag_85\n      jump\t// in\n    tag_142:\n        /* \"#utility.yul\":2646:2868   */\n      swap3\n      swap2\n      pop\n      pop\n      jump\t// out\n        /* \"#utility.yul\":2874:3043   */\n    tag_86:\n        /* \"#utility.yul\":2958:2969   */\n      0x00\n        /* \"#utility.yul\":2992:2998   */\n      dup3\n        /* \"#utility.yul\":2987:2990   */\n      dup3\n        /* \"#utility.yul\":2980:2999   */\n      mstore\n        /* \"#utility.yul\":3032:3036   */\n      0x20\n        /* \"#utility.yul\":3027:3030   */\n      dup3\n        /* \"#utility.yul\":3023:3037   */\n      add\n        /* \"#utility.yul\":3008:3037   */\n      swap1\n      pop\n        /* \"#utility.yul\":2874:3043   */\n      swap3\n      swap2\n      pop\n      pop\n      jump\t// out\n        /* \"#utility.yul\":3049:3270   */\n    tag_87:\n        /* \"#utility.yul\":3189:3223   */\n      0x4f6e6c79206f776e65722063616e20706572666f726d20746869732061637469\n        /* \"#utility.yul\":3185:3186   */\n      0x00\n        /* \"#utility.yul\":3177:3183   */\n      dup3\n        /* \"#utility.yul\":3173:3187   */\n      add\n        /* \"#utility.yul\":3166:3224   */\n      mstore\n        /* \"#utility.yul\":3258:3262   */\n      0x6f6e000000000000000000000000000000000000000000000000000000000000\n        /* \"#utility.yul\":3253:3255   */\n      0x20\n        /* \"#utility.yul\":3245:3251   */\n      dup3\n        /* \"#utility.yul\":3241:3256   */\n      add\n        /* \"#utility.yul\":3234:3263   */\n      mstore\n        /* \"#utility.yul\":3049:3270   */\n      pop\n      jump\t// out\n        /* \"#utility.yul\":3276:3642   */\n    tag_88:\n        /* \"#utility.yul\":3418:3421   */\n      0x00\n        /* \"#utility.yul\":3439:3506   */\n      tag_146\n        /* \"#utility.yul\":3503:3505   */\n      0x22\n        /* \"#utility.yul\":3498:3501   */\n      dup4\n        /* \"#utility.yul\":3439:3506   */\n      tag_86\n      jump\t// in\n    tag_146:\n        /* \"#utility.yul\":3432:3506   */\n      swap2\n      pop\n        /* \"#utility.yul\":3515:3608   */\n      tag_147\n        /* \"#utility.yul\":3604:3607   */\n      dup3\n        /* \"#utility.yul\":3515:3608   */\n      tag_87\n      jump\t// in\n    tag_147:\n        /* \"#utility.yul\":3633:3635   */\n      0x40\n        /* \"#utility.yul\":3628:3631   */\n      dup3\n        /* \"#utility.yul\":3624:3636   */\n      add\n        /* \"#utility.yul\":3617:3636   */\n      swap1\n      pop\n        /* \"#utility.yul\":3276:3642   */\n      swap2\n      swap1\n      pop\n      jump\t// out\n        /* \"#utility.yul\":3648:4067   */\n    tag_36:\n        /* \"#utility.yul\":3814:3818   */\n      0x00\n        /* \"#utility.yul\":3852:3854   */\n      0x20\n        /* \"#utility.yul\":3841:3850   */\n      dup3\n        /* \"#utility.yul\":3837:3855   */\n      add\n        /* \"#utility.yul\":3829:3855   */\n      swap1\n      pop\n        /* \"#utility.yul\":3901:3910   */\n      dup2\n        /* \"#utility.yul\":3895:3899   */\n      dup2\n        /* \"#utility.yul\":3891:3911   */\n      sub\n        /* \"#utility.yul\":3887:3888   */\n      0x00\n        /* \"#utility.yul\":3876:3885   */\n      dup4\n        /* \"#utility.yul\":3872:3889   */\n      add\n        /* \"#utility.yul\":3865:3912   */\n      mstore\n        /* \"#utility.yul\":3929:4060   */\n      tag_149\n        /* \"#utility.yul\":4055:4059   */\n      dup2\n        /* \"#utility.yul\":3929:4060   */\n      tag_88\n      jump\t// in\n    tag_149:\n        /* \"#utility.yul\":3921:4060   */\n      swap1\n      pop\n        /* \"#utility.yul\":3648:4067   */\n      swap2\n      swap1\n      pop\n      jump\t// out\n        /* \"#utility.yul\":4073:4248   */\n    tag_89:\n        /* \"#utility.yul\":4213:4240   */\n      0x42616c616e6365206973206e6f742073756666696369656e7400000000000000\n        /* \"#utility.yul\":4209:4210   */\n      0x00\n        /* \"#utility.yul\":4201:4207   */\n      dup3\n        /* \"#utility.yul\":4197:4211   */\n      add\n        /* \"#utility.yul\":4190:4241   */\n      mstore\n        /* \"#utility.yul\":4073:4248   */\n      pop\n      jump\t// out\n        /* \"#utility.yul\":4254:4620   */\n    tag_90:\n        /* \"#utility.yul\":4396:4399   */\n      0x00\n        /* \"#utility.yul\":4417:4484   */\n      tag_152\n        /* \"#utility.yul\":4481:4483   */\n      0x19\n        /* \"#utility.yul\":4476:4479   */\n      dup4\n        /* \"#utility.yul\":4417:4484   */\n      tag_86\n      jump\t// in\n    tag_152:\n        /* \"#utility.yul\":4410:4484   */\n      swap2\n      pop\n        /* \"#utility.yul\":4493:4586   */\n      tag_153\n        /* \"#utility.yul\":4582:4585   */\n      dup3\n        /* \"#utility.yul\":4493:4586   */\n      tag_89\n      jump\t// in\n    tag_153:\n        /* \"#utility.yul\":4611:4613   */\n      0x20\n        /* \"#utility.yul\":4606:4609   */\n      dup3\n        /* \"#utility.yul\":4602:4614   */\n      add\n        /* \"#utility.yul\":4595:4614   */\n      swap1\n      pop\n        /* \"#utility.yul\":4254:4620   */\n      swap2\n      swap1\n      pop\n      jump\t// out\n        /* \"#utility.yul\":4626:5045   */\n    tag_40:\n        /* \"#utility.yul\":4792:4796   */\n      0x00\n        /* \"#utility.yul\":4830:4832   */\n      0x20\n        /* \"#utility.yul\":4819:4828   */\n      dup3\n        /* \"#utility.yul\":4815:4833   */\n      add\n        /* \"#utility.yul\":4807:4833   */\n      swap1\n      pop\n        /* \"#utility.yul\":4879:4888   */\n      dup2\n        /* \"#utility.yul\":4873:4877   */\n      dup2\n        /* \"#utility.yul\":4869:4889   */\n      sub\n        /* \"#utility.yul\":4865:4866   */\n      0x00\n        /* \"#utility.yul\":4854:4863   */\n      dup4\n        /* \"#utility.yul\":4850:4867   */\n      add\n        /* \"#utility.yul\":4843:4890   */\n      mstore\n        /* \"#utility.yul\":4907:5038   */\n      tag_155\n        /* \"#utility.yul\":5033:5037   */\n      dup2\n        /* \"#utility.yul\":4907:5038   */\n      tag_90\n      jump\t// in\n    tag_155:\n        /* \"#utility.yul\":4899:5038   */\n      swap1\n      pop\n        /* \"#utility.yul\":4626:5045   */\n      swap2\n      swap1\n      pop\n      jump\t// out\n        /* \"#utility.yul\":5051:5198   */\n    tag_91:\n        /* \"#utility.yul\":5152:5163   */\n      0x00\n        /* \"#utility.yul\":5189:5192   */\n      dup2\n        /* \"#utility.yul\":5174:5192   */\n      swap1\n      pop\n        /* \"#utility.yul\":5051:5198   */\n      swap3\n      swap2\n      pop\n      pop\n      jump\t// out\n        /* \"#utility.yul\":5204:5318   */\n    tag_92:\n      pop\n      jump\t// out\n        /* \"#utility.yul\":5324:5722   */\n    tag_93:\n        /* \"#utility.yul\":5483:5486   */\n      0x00\n        /* \"#utility.yul\":5504:5587   */\n      tag_159\n        /* \"#utility.yul\":5585:5586   */\n      0x00\n        /* \"#utility.yul\":5580:5583   */\n      dup4\n        /* \"#utility.yul\":5504:5587   */\n      tag_91\n      jump\t// in\n    tag_159:\n        /* \"#utility.yul\":5497:5587   */\n      swap2\n      pop\n        /* \"#utility.yul\":5596:5689   */\n      tag_160\n        /* \"#utility.yul\":5685:5688   */\n      dup3\n        /* \"#utility.yul\":5596:5689   */\n      tag_92\n      jump\t// in\n    tag_160:\n        /* \"#utility.yul\":5714:5715   */\n      0x00\n        /* \"#utility.yul\":5709:5712   */\n      dup3\n        /* \"#utility.yul\":5705:5716   */\n      add\n        /* \"#utility.yul\":5698:5716   */\n      swap1\n      pop\n        /* \"#utility.yul\":5324:5722   */\n      swap2\n      swap1\n      pop\n      jump\t// out\n        /* \"#utility.yul\":5728:6107   */\n    tag_42:\n        /* \"#utility.yul\":5912:5915   */\n      0x00\n        /* \"#utility.yul\":5934:6081   */\n      tag_162\n        /* \"#utility.yul\":6077:6080   */\n      dup3\n        /* \"#utility.yul\":5934:6081   */\n      tag_93\n      jump\t// in\n    tag_162:\n        /* \"#utility.yul\":5927:6081   */\n      swap2\n      pop\n        /* \"#utility.yul\":6098:6101   */\n      dup2\n        /* \"#utility.yul\":6091:6101   */\n      swap1\n      pop\n        /* \"#utility.yul\":5728:6107   */\n      swap2\n      swap1\n      pop\n      jump\t// out\n        /* \"#utility.yul\":6113:6280   */\n    tag_94:\n        /* \"#utility.yul\":6253:6272   */\n      0x5769746864726177616c206661696c6564000000000000000000000000000000\n        /* \"#utility.yul\":6249:6250   */\n      0x00\n        /* \"#utility.yul\":6241:6247   */\n      dup3\n        /* \"#utility.yul\":6237:6251   */\n      add\n        /* \"#utility.yul\":6230:6273   */\n      mstore\n        /* \"#utility.yul\":6113:6280   */\n      pop\n      jump\t// out\n        /* \"#utility.yul\":6286:6652   */\n    tag_95:\n        /* \"#utility.yul\":6428:6431   */\n      0x00\n        /* \"#utility.yul\":6449:6516   */\n      tag_165\n        /* \"#utility.yul\":6513:6515   */\n      0x11\n        /* \"#utility.yul\":6508:6511   */\n      dup4\n        /* \"#utility.yul\":6449:6516   */\n      tag_86\n      jump\t// in\n    tag_165:\n        /* \"#utility.yul\":6442:6516   */\n      swap2\n      pop\n        /* \"#utility.yul\":6525:6618   */\n      tag_166\n        /* \"#utility.yul\":6614:6617   */\n      dup3\n        /* \"#utility.yul\":6525:6618   */\n      tag_94\n      jump\t// in\n    tag_166:\n        /* \"#utility.yul\":6643:6645   */\n      0x20\n        /* \"#utility.yul\":6638:6641   */\n      dup3\n        /* \"#utility.yul\":6634:6646   */\n      add\n        /* \"#utility.yul\":6627:6646   */\n      swap1\n      pop\n        /* \"#utility.yul\":6286:6652   */\n      swap2\n      swap1\n      pop\n      jump\t// out\n        /* \"#utility.yul\":6658:7077   */\n    tag_48:\n        /* \"#utility.yul\":6824:6828   */\n      0x00\n        /* \"#utility.yul\":6862:6864   */\n      0x20\n        /* \"#utility.yul\":6851:6860   */\n      dup3\n        /* \"#utility.yul\":6847:6865   */\n      add\n        /* \"#utility.yul\":6839:6865   */\n      swap1\n      pop\n        /* \"#utility.yul\":6911:6920   */\n      dup2\n        /* \"#utility.yul\":6905:6909   */\n      dup2\n        /* \"#utility.yul\":6901:6921   */\n      sub\n        /* \"#utility.yul\":6897:6898   */\n      0x00\n        /* \"#utility.yul\":6886:6895   */\n      dup4\n        /* \"#utility.yul\":6882:6899   */\n      add\n        /* \"#utility.yul\":6875:6922   */\n      mstore\n        /* \"#utility.yul\":6939:7070   */\n      tag_168\n        /* \"#utility.yul\":7065:7069   */\n      dup2\n        /* \"#utility.yul\":6939:7070   */\n      tag_95\n      jump\t// in\n    tag_168:\n        /* \"#utility.yul\":6931:7070   */\n      swap1\n      pop\n        /* \"#utility.yul\":6658:7077   */\n      swap2\n      swap1\n      pop\n      jump\t// out\n        /* \"#utility.yul\":7083:7257   */\n    tag_96:\n        /* \"#utility.yul\":7223:7249   */\n      0x496e76616c696420726563656976657220616464726573730000000000000000\n        /* \"#utility.yul\":7219:7220   */\n      0x00\n        /* \"#utility.yul\":7211:7217   */\n      dup3\n        /* \"#utility.yul\":7207:7221   */\n      add\n        /* \"#utility.yul\":7200:7250   */\n      mstore\n        /* \"#utility.yul\":7083:7257   */\n      pop\n      jump\t// out\n        /* \"#utility.yul\":7263:7629   */\n    tag_97:\n        /* \"#utility.yul\":7405:7408   */\n      0x00\n        /* \"#utility.yul\":7426:7493   */\n      tag_171\n        /* \"#utility.yul\":7490:7492   */\n      0x18\n        /* \"#utility.yul\":7485:7488   */\n      dup4\n        /* \"#utility.yul\":7426:7493   */\n      tag_86\n      jump\t// in\n    tag_171:\n        /* \"#utility.yul\":7419:7493   */\n      swap2\n      pop\n        /* \"#utility.yul\":7502:7595   */\n      tag_172\n        /* \"#utility.yul\":7591:7594   */\n      dup3\n        /* \"#utility.yul\":7502:7595   */\n      tag_96\n      jump\t// in\n    tag_172:\n        /* \"#utility.yul\":7620:7622   */\n      0x20\n        /* \"#utility.yul\":7615:7618   */\n      dup3\n        /* \"#utility.yul\":7611:7623   */\n      add\n        /* \"#utility.yul\":7604:7623   */\n      swap1\n      pop\n        /* \"#utility.yul\":7263:7629   */\n      swap2\n      swap1\n      pop\n      jump\t// out\n        /* \"#utility.yul\":7635:8054   */\n    tag_55:\n        /* \"#utility.yul\":7801:7805   */\n      0x00\n        /* \"#utility.yul\":7839:7841   */\n      0x20\n        /* \"#utility.yul\":7828:7837   */\n      dup3\n        /* \"#utility.yul\":7824:7842   */\n      add\n        /* \"#utility.yul\":7816:7842   */\n      swap1\n      pop\n        /* \"#utility.yul\":7888:7897   */\n      dup2\n        /* \"#utility.yul\":7882:7886   */\n      dup2\n        /* \"#utility.yul\":7878:7898   */\n      sub\n        /* \"#utility.yul\":7874:7875   */\n      0x00\n        /* \"#utility.yul\":7863:7872   */\n      dup4\n        /* \"#utility.yul\":7859:7876   */\n      add\n        /* \"#utility.yul\":7852:7899   */\n      mstore\n        /* \"#utility.yul\":7916:8047   */\n      tag_174\n        /* \"#utility.yul\":8042:8046   */\n      dup2\n        /* \"#utility.yul\":7916:8047   */\n      tag_97\n      jump\t// in\n    tag_174:\n        /* \"#utility.yul\":7908:8047   */\n      swap1\n      pop\n        /* \"#utility.yul\":7635:8054   */\n      swap2\n      swap1\n      pop\n      jump\t// out\n        /* \"#utility.yul\":8060:8242   */\n    tag_98:\n        /* \"#utility.yul\":8200:8234   */\n      0x416d6f756e74206d7573742062652067726561746572207468616e207a65726f\n        /* \"#utility.yul\":8196:8197   */\n      0x00\n        /* \"#utility.yul\":8188:8194   */\n      dup3\n        /* \"#utility.yul\":8184:8198   */\n      add\n        /* \"#utility.yul\":8177:8235   */\n      mstore\n        /* \"#utility.yul\":8060:8242   */\n      pop\n      jump\t// out\n        /* \"#utility.yul\":8248:8614   */\n    tag_99:\n        /* \"#utility.yul\":8390:8393   */\n      0x00\n        /* \"#utility.yul\":8411:8478   */\n      tag_177\n        /* \"#utility.yul\":8475:8477   */\n      0x20\n        /* \"#utility.yul\":8470:8473   */\n      dup4\n        /* \"#utility.yul\":8411:8478   */\n      tag_86\n      jump\t// in\n    tag_177:\n        /* \"#utility.yul\":8404:8478   */\n      swap2\n      pop\n        /* \"#utility.yul\":8487:8580   */\n      tag_178\n        /* \"#utility.yul\":8576:8579   */\n      dup3\n        /* \"#utility.yul\":8487:8580   */\n      tag_98\n      jump\t// in\n    tag_178:\n        /* \"#utility.yul\":8605:8607   */\n      0x20\n        /* \"#utility.yul\":8600:8603   */\n      dup3\n        /* \"#utility.yul\":8596:8608   */\n      add\n        /* \"#utility.yul\":8589:8608   */\n      swap1\n      pop\n        /* \"#utility.yul\":8248:8614   */\n      swap2\n      swap1\n      pop\n      jump\t// out\n        /* \"#utility.yul\":8620:9039   */\n    tag_58:\n        /* \"#utility.yul\":8786:8790   */\n      0x00\n        /* \"#utility.yul\":8824:8826   */\n      0x20\n        /* \"#utility.yul\":8813:8822   */\n      dup3\n        /* \"#utility.yul\":8809:8827   */\n      add\n        /* \"#utility.yul\":8801:8827   */\n      swap1\n      pop\n        /* \"#utility.yul\":8873:8882   */\n      dup2\n        /* \"#utility.yul\":8867:8871   */\n      dup2\n        /* \"#utility.yul\":8863:8883   */\n      sub\n        /* \"#utility.yul\":8859:8860   */\n      0x00\n        /* \"#utility.yul\":8848:8857   */\n      dup4\n        /* \"#utility.yul\":8844:8861   */\n      add\n        /* \"#utility.yul\":8837:8884   */\n      mstore\n        /* \"#utility.yul\":8901:9032   */\n      tag_180\n        /* \"#utility.yul\":9027:9031   */\n      dup2\n        /* \"#utility.yul\":8901:9032   */\n      tag_99\n      jump\t// in\n    tag_180:\n        /* \"#utility.yul\":8893:9032   */\n      swap1\n      pop\n        /* \"#utility.yul\":8620:9039   */\n      swap2\n      swap1\n      pop\n      jump\t// out\n        /* \"#utility.yul\":9045:9222   */\n    tag_100:\n        /* \"#utility.yul\":9185:9214   */\n      0x496e73756666696369656e742077616c6c65742062616c616e63650000000000\n        /* \"#utility.yul\":9181:9182   */\n      0x00\n        /* \"#utility.yul\":9173:9179   */\n      dup3\n        /* \"#utility.yul\":9169:9183   */\n      add\n        /* \"#utility.yul\":9162:9215   */\n      mstore\n        /* \"#utility.yul\":9045:9222   */\n      pop\n      jump\t// out\n        /* \"#utility.yul\":9228:9594   */\n    tag_101:\n        /* \"#utility.yul\":9370:9373   */\n      0x00\n        /* \"#utility.yul\":9391:9458   */\n      tag_183\n        /* \"#utility.yul\":9455:9457   */\n      0x1b\n        /* \"#utility.yul\":9450:9453   */\n      dup4\n        /* \"#utility.yul\":9391:9458   */\n      tag_86\n      jump\t// in\n    tag_183:\n        /* \"#utility.yul\":9384:9458   */\n      swap2\n      pop\n        /* \"#utility.yul\":9467:9560   */\n      tag_184\n        /* \"#utility.yul\":9556:9559   */\n      dup3\n        /* \"#utility.yul\":9467:9560   */\n      tag_100\n      jump\t// in\n    tag_184:\n        /* \"#utility.yul\":9585:9587   */\n      0x20\n        /* \"#utility.yul\":9580:9583   */\n      dup3\n        /* \"#utility.yul\":9576:9588   */\n      add\n        /* \"#utility.yul\":9569:9588   */\n      swap1\n      pop\n        /* \"#utility.yul\":9228:9594   */\n      swap2\n      swap1\n      pop\n      jump\t// out\n        /* \"#utility.yul\":9600:10019   */\n    tag_61:\n        /* \"#utility.yul\":9766:9770   */\n      0x00\n        /* \"#utility.yul\":9804:9806   */\n      0x20\n        /* \"#utility.yul\":9793:9802   */\n      dup3\n        /* \"#utility.yul\":9789:9807   */\n      add\n        /* \"#utility.yul\":9781:9807   */\n      swap1\n      pop\n        /* \"#utility.yul\":9853:9862   */\n      dup2\n        /* \"#utility.yul\":9847:9851   */\n      dup2\n        /* \"#utility.yul\":9843:9863   */\n      sub\n        /* \"#utility.yul\":9839:9840   */\n      0x00\n        /* \"#utility.yul\":9828:9837   */\n      dup4\n        /* \"#utility.yul\":9824:9841   */\n      add\n        /* \"#utility.yul\":9817:9864   */\n      mstore\n        /* \"#utility.yul\":9881:10012   */\n      tag_186\n        /* \"#utility.yul\":10007:10011   */\n      dup2\n        /* \"#utility.yul\":9881:10012   */\n      tag_101\n      jump\t// in\n    tag_186:\n        /* \"#utility.yul\":9873:10012   */\n      swap1\n      pop\n        /* \"#utility.yul\":9600:10019   */\n      swap2\n      swap1\n      pop\n      jump\t// out\n        /* \"#utility.yul\":10025:10194   */\n    tag_102:\n        /* \"#utility.yul\":10165:10186   */\n      0x455448207472616e73666572206661696c656400000000000000000000000000\n        /* \"#utility.yul\":10161:10162   */\n      0x00\n        /* \"#utility.yul\":10153:10159   */\n      dup3\n        /* \"#utility.yul\":10149:10163   */\n      add\n        /* \"#utility.yul\":10142:10187   */\n      mstore\n        /* \"#utility.yul\":10025:10194   */\n      pop\n      jump\t// out\n        /* \"#utility.yul\":10200:10566   */\n    tag_103:\n        /* \"#utility.yul\":10342:10345   */\n      0x00\n        /* \"#utility.yul\":10363:10430   */\n      tag_189\n        /* \"#utility.yul\":10427:10429   */\n      0x13\n        /* \"#utility.yul\":10422:10425   */\n      dup4\n        /* \"#utility.yul\":10363:10430   */\n      tag_86\n      jump\t// in\n    tag_189:\n        /* \"#utility.yul\":10356:10430   */\n      swap2\n      pop\n        /* \"#utility.yul\":10439:10532   */\n      tag_190\n        /* \"#utility.yul\":10528:10531   */\n      dup3\n        /* \"#utility.yul\":10439:10532   */\n      tag_102\n      jump\t// in\n    tag_190:\n        /* \"#utility.yul\":10557:10559   */\n      0x20\n        /* \"#utility.yul\":10552:10555   */\n      dup3\n        /* \"#utility.yul\":10548:10560   */\n      add\n        /* \"#utility.yul\":10541:10560   */\n      swap1\n      pop\n        /* \"#utility.yul\":10200:10566   */\n      swap2\n      swap1\n      pop\n      jump\t// out\n        /* \"#utility.yul\":10572:10991   */\n    tag_68:\n        /* \"#utility.yul\":10738:10742   */\n      0x00\n        /* \"#utility.yul\":10776:10778   */\n      0x20\n        /* \"#utility.yul\":10765:10774   */\n      dup3\n        /* \"#utility.yul\":10761:10779   */\n      add\n        /* \"#utility.yul\":10753:10779   */\n      swap1\n      pop\n        /* \"#utility.yul\":10825:10834   */\n      dup2\n        /* \"#utility.yul\":10819:10823   */\n      dup2\n        /* \"#utility.yul\":10815:10835   */\n      sub\n        /* \"#utility.yul\":10811:10812   */\n      0x00\n        /* \"#utility.yul\":10800:10809   */\n      dup4\n        /* \"#utility.yul\":10796:10813   */\n      add\n        /* \"#utility.yul\":10789:10836   */\n      mstore\n        /* \"#utility.yul\":10853:10984   */\n      tag_192\n        /* \"#utility.yul\":10979:10983   */\n      dup2\n        /* \"#utility.yul\":10853:10984   */\n      tag_103\n      jump\t// in\n    tag_192:\n        /* \"#utility.yul\":10845:10984   */\n      swap1\n      pop\n        /* \"#utility.yul\":10572:10991   */\n      swap2\n      swap1\n      pop\n      jump\t// out\n        /* \"#utility.yul\":10997:11224   */\n    tag_104:\n        /* \"#utility.yul\":11137:11171   */\n      0x4465706f73697420616d6f756e74206d75737420626520677265617465722074\n        /* \"#utility.yul\":11133:11134   */\n      0x00\n        /* \"#utility.yul\":11125:11131   */\n      dup3\n        /* \"#utility.yul\":11121:11135   */\n      add\n        /* \"#utility.yul\":11114:11172   */\n      mstore\n        /* \"#utility.yul\":11206:11216   */\n      0x68616e207a65726f000000000000000000000000000000000000000000000000\n        /* \"#utility.yul\":11201:11203   */\n      0x20\n        /* \"#utility.yul\":11193:11199   */\n      dup3\n        /* \"#utility.yul\":11189:11204   */\n      add\n        /* \"#utility.yul\":11182:11217   */\n      mstore\n        /* \"#utility.yul\":10997:11224   */\n      pop\n      jump\t// out\n        /* \"#utility.yul\":11230:11596   */\n    tag_105:\n        /* \"#utility.yul\":11372:11375   */\n      0x00\n        /* \"#utility.yul\":11393:11460   */\n      tag_195\n        /* \"#utility.yul\":11457:11459   */\n      0x28\n        /* \"#utility.yul\":11452:11455   */\n      dup4\n        /* \"#utility.yul\":11393:11460   */\n      tag_86\n      jump\t// in\n    tag_195:\n        /* \"#utility.yul\":11386:11460   */\n      swap2\n      pop\n        /* \"#utility.yul\":11469:11562   */\n      tag_196\n        /* \"#utility.yul\":11558:11561   */\n      dup3\n        /* \"#utility.yul\":11469:11562   */\n      tag_104\n      jump\t// in\n    tag_196:\n        /* \"#utility.yul\":11587:11589   */\n      0x40\n        /* \"#utility.yul\":11582:11585   */\n      dup3\n        /* \"#utility.yul\":11578:11590   */\n      add\n        /* \"#utility.yul\":11571:11590   */\n      swap1\n      pop\n        /* \"#utility.yul\":11230:11596   */\n      swap2\n      swap1\n      pop\n      jump\t// out\n        /* \"#utility.yul\":11602:12021   */\n    tag_72:\n        /* \"#utility.yul\":11768:11772   */\n      0x00\n        /* \"#utility.yul\":11806:11808   */\n      0x20\n        /* \"#utility.yul\":11795:11804   */\n      dup3\n        /* \"#utility.yul\":11791:11809   */\n      add\n        /* \"#utility.yul\":11783:11809   */\n      swap1\n      pop\n        /* \"#utility.yul\":11855:11864   */\n      dup2\n        /* \"#utility.yul\":11849:11853   */\n      dup2\n        /* \"#utility.yul\":11845:11865   */\n      sub\n        /* \"#utility.yul\":11841:11842   */\n      0x00\n        /* \"#utility.yul\":11830:11839   */\n      dup4\n        /* \"#utility.yul\":11826:11843   */\n      add\n        /* \"#utility.yul\":11819:11866   */\n      mstore\n        /* \"#utility.yul\":11883:12014   */\n      tag_198\n        /* \"#utility.yul\":12009:12013   */\n      dup2\n        /* \"#utility.yul\":11883:12014   */\n      tag_105\n      jump\t// in\n    tag_198:\n        /* \"#utility.yul\":11875:12014   */\n      swap1\n      pop\n        /* \"#utility.yul\":11602:12021   */\n      swap2\n      swap1\n      pop\n      jump\t// out\n\n    auxdata: 0xa2646970667358221220cc49306545f5ccae97e7372d0f14b30329e759cd5e4c502a105247174e18d54e64736f6c634300081e0033\n}\n",
				"bytecode": {
					"linkReferences": {},
					"object": "6080604052348015600e575f5ffd5b50335f5f6101000a81548173ffffffffffffffffffffffffffffffffffffffff021916908373ffffffffffffffffffffffffffffffffffffffff160217905550610aae8061005b5f395ff3fe60806040526004361061004d575f3560e01c806312065fe0146100585780632e1a7d4d1461008257806349dcbc5e146100aa5780638da5cb5b146100d2578063d0e30db0146100fc57610054565b3661005457005b5f5ffd5b348015610063575f5ffd5b5061006c610106565b6040516100799190610558565b60405180910390f35b34801561008d575f5ffd5b506100a860048036038101906100a3919061059f565b61010d565b005b3480156100b5575f5ffd5b506100d060048036038101906100cb9190610624565b6102aa565b005b3480156100dd575f5ffd5b506100e66104d8565b6040516100f39190610682565b60405180910390f35b6101046104fc565b005b5f47905090565b5f5f9054906101000a900473ffffffffffffffffffffffffffffffffffffffff1673ffffffffffffffffffffffffffffffffffffffff163373ffffffffffffffffffffffffffffffffffffffff161461019b576040517f08c379a00000000000000000000000000000000000000000000000000000000081526004016101929061071b565b60405180910390fd5b804710156101de576040517f08c379a00000000000000000000000000000000000000000000000000000000081526004016101d590610783565b60405180910390fd5b5f5f5f9054906101000a900473ffffffffffffffffffffffffffffffffffffffff1673ffffffffffffffffffffffffffffffffffffffff1682604051610223906107ce565b5f6040518083038185875af1925050503d805f811461025d576040519150601f19603f3d011682016040523d82523d5f602084013e610262565b606091505b50509050806102a6576040517f08c379a000000000000000000000000000000000000000000000000000000000815260040161029d9061082c565b60405180910390fd5b5050565b5f5f9054906101000a900473ffffffffffffffffffffffffffffffffffffffff1673ffffffffffffffffffffffffffffffffffffffff163373ffffffffffffffffffffffffffffffffffffffff1614610338576040517f08c379a000000000000000000000000000000000000000000000000000000000815260040161032f9061071b565b60405180910390fd5b5f73ffffffffffffffffffffffffffffffffffffffff168273ffffffffffffffffffffffffffffffffffffffff16036103a6576040517f08c379a000000000000000000000000000000000000000000000000000000000815260040161039d90610894565b60405180910390fd5b5f81116103e8576040517f08c379a00000000000000000000000000000000000000000000000000000000081526004016103df906108fc565b60405180910390fd5b8047101561042b576040517f08c379a000000000000000000000000000000000000000000000000000000000815260040161042290610964565b60405180910390fd5b5f8273ffffffffffffffffffffffffffffffffffffffff1682604051610450906107ce565b5f6040518083038185875af1925050503d805f811461048a576040519150601f19603f3d011682016040523d82523d5f602084013e61048f565b606091505b50509050806104d3576040517f08c379a00000000000000000000000000000000000000000000000000000000081526004016104ca906109cc565b60405180910390fd5b505050565b5f5f9054906101000a900473ffffffffffffffffffffffffffffffffffffffff1681565b5f341161053e576040517f08c379a000000000000000000000000000000000000000000000000000000000815260040161053590610a5a565b60405180910390fd5b565b5f819050919050565b61055281610540565b82525050565b5f60208201905061056b5f830184610549565b92915050565b5f5ffd5b61057e81610540565b8114610588575f5ffd5b50565b5f8135905061059981610575565b92915050565b5f602082840312156105b4576105b3610571565b5b5f6105c18482850161058b565b91505092915050565b5f73ffffffffffffffffffffffffffffffffffffffff82169050919050565b5f6105f3826105ca565b9050919050565b610603816105e9565b811461060d575f5ffd5b50565b5f8135905061061e816105fa565b92915050565b5f5f6040838503121561063a57610639610571565b5b5f61064785828601610610565b92505060206106588582860161058b565b9150509250929050565b5f61066c826105ca565b9050919050565b61067c81610662565b82525050565b5f6020820190506106955f830184610673565b92915050565b5f82825260208201905092915050565b7f4f6e6c79206f776e65722063616e20706572666f726d207468697320616374695f8201527f6f6e000000000000000000000000000000000000000000000000000000000000602082015250565b5f61070560228361069b565b9150610710826106ab565b604082019050919050565b5f6020820190508181035f830152610732816106f9565b9050919050565b7f42616c616e6365206973206e6f742073756666696369656e74000000000000005f82015250565b5f61076d60198361069b565b915061077882610739565b602082019050919050565b5f6020820190508181035f83015261079a81610761565b9050919050565b5f81905092915050565b50565b5f6107b95f836107a1565b91506107c4826107ab565b5f82019050919050565b5f6107d8826107ae565b9150819050919050565b7f5769746864726177616c206661696c65640000000000000000000000000000005f82015250565b5f61081660118361069b565b9150610821826107e2565b602082019050919050565b5f6020820190508181035f8301526108438161080a565b9050919050565b7f496e76616c6964207265636569766572206164647265737300000000000000005f82015250565b5f61087e60188361069b565b91506108898261084a565b602082019050919050565b5f6020820190508181035f8301526108ab81610872565b9050919050565b7f416d6f756e74206d7573742062652067726561746572207468616e207a65726f5f82015250565b5f6108e660208361069b565b91506108f1826108b2565b602082019050919050565b5f6020820190508181035f830152610913816108da565b9050919050565b7f496e73756666696369656e742077616c6c65742062616c616e636500000000005f82015250565b5f61094e601b8361069b565b91506109598261091a565b602082019050919050565b5f6020820190508181035f83015261097b81610942565b9050919050565b7f455448207472616e73666572206661696c6564000000000000000000000000005f82015250565b5f6109b660138361069b565b91506109c182610982565b602082019050919050565b5f6020820190508181035f8301526109e3816109aa565b9050919050565b7f4465706f73697420616d6f756e74206d757374206265206772656174657220745f8201527f68616e207a65726f000000000000000000000000000000000000000000000000602082015250565b5f610a4460288361069b565b9150610a4f826109ea565b604082019050919050565b5f6020820190508181035f830152610a7181610a38565b905091905056fea2646970667358221220cc49306545f5ccae97e7372d0f14b30329e759cd5e4c502a105247174e18d54e64736f6c634300081e0033",
					"opcodes": "PUSH1 0x80 PUSH1 0x40 MSTORE CALLVALUE DUP1 ISZERO PUSH1 0xE JUMPI PUSH0 PUSH0 REVERT JUMPDEST POP CALLER PUSH0 PUSH0 PUSH2 0x100 EXP DUP2 SLOAD DUP2 PUSH20 0xFFFFFFFFFFFFFFFFFFFFFFFFFFFFFFFFFFFFFFFF MUL NOT AND SWAP1 DUP4 PUSH20 0xFFFFFFFFFFFFFFFFFFFFFFFFFFFFFFFFFFFFFFFF AND MUL OR SWAP1 SSTORE POP PUSH2 0xAAE DUP1 PUSH2 0x5B PUSH0 CODECOPY PUSH0 RETURN INVALID PUSH1 0x80 PUSH1 0x40 MSTORE PUSH1 0x4 CALLDATASIZE LT PUSH2 0x4D JUMPI PUSH0 CALLDATALOAD PUSH1 0xE0 SHR DUP1 PUSH4 0x12065FE0 EQ PUSH2 0x58 JUMPI DUP1 PUSH4 0x2E1A7D4D EQ PUSH2 0x82 JUMPI DUP1 PUSH4 0x49DCBC5E EQ PUSH2 0xAA JUMPI DUP1 PUSH4 0x8DA5CB5B EQ PUSH2 0xD2 JUMPI DUP1 PUSH4 0xD0E30DB0 EQ PUSH2 0xFC JUMPI PUSH2 0x54 JUMP JUMPDEST CALLDATASIZE PUSH2 0x54 JUMPI STOP JUMPDEST PUSH0 PUSH0 REVERT JUMPDEST CALLVALUE DUP1 ISZERO PUSH2 0x63 JUMPI PUSH0 PUSH0 REVERT JUMPDEST POP PUSH2 0x6C PUSH2 0x106 JUMP JUMPDEST PUSH1 0x40 MLOAD PUSH2 0x79 SWAP2 SWAP1 PUSH2 0x558 JUMP JUMPDEST PUSH1 0x40 MLOAD DUP1 SWAP2 SUB SWAP1 RETURN JUMPDEST CALLVALUE DUP1 ISZERO PUSH2 0x8D JUMPI PUSH0 PUSH0 REVERT JUMPDEST POP PUSH2 0xA8 PUSH1 0x4 DUP1 CALLDATASIZE SUB DUP2 ADD SWAP1 PUSH2 0xA3 SWAP2 SWAP1 PUSH2 0x59F JUMP JUMPDEST PUSH2 0x10D JUMP JUMPDEST STOP JUMPDEST CALLVALUE DUP1 ISZERO PUSH2 0xB5 JUMPI PUSH0 PUSH0 REVERT JUMPDEST POP PUSH2 0xD0 PUSH1 0x4 DUP1 CALLDATASIZE SUB DUP2 ADD SWAP1 PUSH2 0xCB SWAP2 SWAP1 PUSH2 0x624 JUMP JUMPDEST PUSH2 0x2AA JUMP JUMPDEST STOP JUMPDEST CALLVALUE DUP1 ISZERO PUSH2 0xDD JUMPI PUSH0 PUSH0 REVERT JUMPDEST POP PUSH2 0xE6 PUSH2 0x4D8 JUMP JUMPDEST PUSH1 0x40 MLOAD PUSH2 0xF3 SWAP2 SWAP1 PUSH2 0x682 JUMP JUMPDEST PUSH1 0x40 MLOAD DUP1 SWAP2 SUB SWAP1 RETURN JUMPDEST PUSH2 0x104 PUSH2 0x4FC JUMP JUMPDEST STOP JUMPDEST PUSH0 SELFBALANCE SWAP1 POP SWAP1 JUMP JUMPDEST PUSH0 PUSH0 SWAP1 SLOAD SWAP1 PUSH2 0x100 EXP SWAP1 DIV PUSH20 0xFFFFFFFFFFFFFFFFFFFFFFFFFFFFFFFFFFFFFFFF AND PUSH20 0xFFFFFFFFFFFFFFFFFFFFFFFFFFFFFFFFFFFFFFFF AND CALLER PUSH20 0xFFFFFFFFFFFFFFFFFFFFFFFFFFFFFFFFFFFFFFFF AND EQ PUSH2 0x19B JUMPI PUSH1 0x40 MLOAD PUSH32 0x8C379A000000000000000000000000000000000000000000000000000000000 DUP2 MSTORE PUSH1 0x4 ADD PUSH2 0x192 SWAP1 PUSH2 0x71B JUMP JUMPDEST PUSH1 0x40 MLOAD DUP1 SWAP2 SUB SWAP1 REVERT JUMPDEST DUP1 SELFBALANCE LT ISZERO PUSH2 0x1DE JUMPI PUSH1 0x40 MLOAD PUSH32 0x8C379A000000000000000000000000000000000000000000000000000000000 DUP2 MSTORE PUSH1 0x4 ADD PUSH2 0x1D5 SWAP1 PUSH2 0x783 JUMP JUMPDEST PUSH1 0x40 MLOAD DUP1 SWAP2 SUB SWAP1 REVERT JUMPDEST PUSH0 PUSH0 PUSH0 SWAP1 SLOAD SWAP1 PUSH2 0x100 EXP SWAP1 DIV PUSH20 0xFFFFFFFFFFFFFFFFFFFFFFFFFFFFFFFFFFFFFFFF AND PUSH20 0xFFFFFFFFFFFFFFFFFFFFFFFFFFFFFFFFFFFFFFFF AND DUP3 PUSH1 0x40 MLOAD PUSH2 0x223 SWAP1 PUSH2 0x7CE JUMP JUMPDEST PUSH0 PUSH1 0x40 MLOAD DUP1 DUP4 SUB DUP2 DUP6 DUP8 GAS CALL SWAP3 POP POP POP RETURNDATASIZE DUP1 PUSH0 DUP2 EQ PUSH2 0x25D JUMPI PUSH1 0x40 MLOAD SWAP2 POP PUSH1 0x1F NOT PUSH1 0x3F RETURNDATASIZE ADD AND DUP3 ADD PUSH1 0x40 MSTORE RETURNDATASIZE DUP3 MSTORE RETURNDATASIZE PUSH0 PUSH1 0x20 DUP5 ADD RETURNDATACOPY PUSH2 0x262 JUMP JUMPDEST PUSH1 0x60 SWAP2 POP JUMPDEST POP POP SWAP1 POP DUP1 PUSH2 0x2A6 JUMPI PUSH1 0x40 MLOAD PUSH32 0x8C379A000000000000000000000000000000000000000000000000000000000 DUP2 MSTORE PUSH1 0x4 ADD PUSH2 0x29D SWAP1 PUSH2 0x82C JUMP JUMPDEST PUSH1 0x40 MLOAD DUP1 SWAP2 SUB SWAP1 REVERT JUMPDEST POP POP JUMP JUMPDEST PUSH0 PUSH0 SWAP1 SLOAD SWAP1 PUSH2 0x100 EXP SWAP1 DIV PUSH20 0xFFFFFFFFFFFFFFFFFFFFFFFFFFFFFFFFFFFFFFFF AND PUSH20 0xFFFFFFFFFFFFFFFFFFFFFFFFFFFFFFFFFFFFFFFF AND CALLER PUSH20 0xFFFFFFFFFFFFFFFFFFFFFFFFFFFFFFFFFFFFFFFF AND EQ PUSH2 0x338 JUMPI PUSH1 0x40 MLOAD PUSH32 0x8C379A000000000000000000000000000000000000000000000000000000000 DUP2 MSTORE PUSH1 0x4 ADD PUSH2 0x32F SWAP1 PUSH2 0x71B JUMP JUMPDEST PUSH1 0x40 MLOAD DUP1 SWAP2 SUB SWAP1 REVERT JUMPDEST PUSH0 PUSH20 0xFFFFFFFFFFFFFFFFFFFFFFFFFFFFFFFFFFFFFFFF AND DUP3 PUSH20 0xFFFFFFFFFFFFFFFFFFFFFFFFFFFFFFFFFFFFFFFF AND SUB PUSH2 0x3A6 JUMPI PUSH1 0x40 MLOAD PUSH32 0x8C379A000000000000000000000000000000000000000000000000000000000 DUP2 MSTORE PUSH1 0x4 ADD PUSH2 0x39D SWAP1 PUSH2 0x894 JUMP JUMPDEST PUSH1 0x40 MLOAD DUP1 SWAP2 SUB SWAP1 REVERT JUMPDEST PUSH0 DUP2 GT PUSH2 0x3E8 JUMPI PUSH1 0x40 MLOAD PUSH32 0x8C379A000000000000000000000000000000000000000000000000000000000 DUP2 MSTORE PUSH1 0x4 ADD PUSH2 0x3DF SWAP1 PUSH2 0x8FC JUMP JUMPDEST PUSH1 0x40 MLOAD DUP1 SWAP2 SUB SWAP1 REVERT JUMPDEST DUP1 SELFBALANCE LT ISZERO PUSH2 0x42B JUMPI PUSH1 0x40 MLOAD PUSH32 0x8C379A000000000000000000000000000000000000000000000000000000000 DUP2 MSTORE PUSH1 0x4 ADD PUSH2 0x422 SWAP1 PUSH2 0x964 JUMP JUMPDEST PUSH1 0x40 MLOAD DUP1 SWAP2 SUB SWAP1 REVERT JUMPDEST PUSH0 DUP3 PUSH20 0xFFFFFFFFFFFFFFFFFFFFFFFFFFFFFFFFFFFFFFFF AND DUP3 PUSH1 0x40 MLOAD PUSH2 0x450 SWAP1 PUSH2 0x7CE JUMP JUMPDEST PUSH0 PUSH1 0x40 MLOAD DUP1 DUP4 SUB DUP2 DUP6 DUP8 GAS CALL SWAP3 POP POP POP RETURNDATASIZE DUP1 PUSH0 DUP2 EQ PUSH2 0x48A JUMPI PUSH1 0x40 MLOAD SWAP2 POP PUSH1 0x1F NOT PUSH1 0x3F RETURNDATASIZE ADD AND DUP3 ADD PUSH1 0x40 MSTORE RETURNDATASIZE DUP3 MSTORE RETURNDATASIZE PUSH0 PUSH1 0x20 DUP5 ADD RETURNDATACOPY PUSH2 0x48F JUMP JUMPDEST PUSH1 0x60 SWAP2 POP JUMPDEST POP POP SWAP1 POP DUP1 PUSH2 0x4D3 JUMPI PUSH1 0x40 MLOAD PUSH32 0x8C379A000000000000000000000000000000000000000000000000000000000 DUP2 MSTORE PUSH1 0x4 ADD PUSH2 0x4CA SWAP1 PUSH2 0x9CC JUMP JUMPDEST PUSH1 0x40 MLOAD DUP1 SWAP2 SUB SWAP1 REVERT JUMPDEST POP POP POP JUMP JUMPDEST PUSH0 PUSH0 SWAP1 SLOAD SWAP1 PUSH2 0x100 EXP SWAP1 DIV PUSH20 0xFFFFFFFFFFFFFFFFFFFFFFFFFFFFFFFFFFFFFFFF AND DUP2 JUMP JUMPDEST PUSH0 CALLVALUE GT PUSH2 0x53E JUMPI PUSH1 0x40 MLOAD PUSH32 0x8C379A000000000000000000000000000000000000000000000000000000000 DUP2 MSTORE PUSH1 0x4 ADD PUSH2 0x535 SWAP1 PUSH2 0xA5A JUMP JUMPDEST PUSH1 0x40 MLOAD DUP1 SWAP2 SUB SWAP1 REVERT JUMPDEST JUMP JUMPDEST PUSH0 DUP2 SWAP1 POP SWAP2 SWAP1 POP JUMP JUMPDEST PUSH2 0x552 DUP2 PUSH2 0x540 JUMP JUMPDEST DUP3 MSTORE POP POP JUMP JUMPDEST PUSH0 PUSH1 0x20 DUP3 ADD SWAP1 POP PUSH2 0x56B PUSH0 DUP4 ADD DUP5 PUSH2 0x549 JUMP JUMPDEST SWAP3 SWAP2 POP POP JUMP JUMPDEST PUSH0 PUSH0 REVERT JUMPDEST PUSH2 0x57E DUP2 PUSH2 0x540 JUMP JUMPDEST DUP2 EQ PUSH2 0x588 JUMPI PUSH0 PUSH0 REVERT JUMPDEST POP JUMP JUMPDEST PUSH0 DUP2 CALLDATALOAD SWAP1 POP PUSH2 0x599 DUP2 PUSH2 0x575 JUMP JUMPDEST SWAP3 SWAP2 POP POP JUMP JUMPDEST PUSH0 PUSH1 0x20 DUP3 DUP5 SUB SLT ISZERO PUSH2 0x5B4 JUMPI PUSH2 0x5B3 PUSH2 0x571 JUMP JUMPDEST JUMPDEST PUSH0 PUSH2 0x5C1 DUP5 DUP3 DUP6 ADD PUSH2 0x58B JUMP JUMPDEST SWAP2 POP POP SWAP3 SWAP2 POP POP JUMP JUMPDEST PUSH0 PUSH20 0xFFFFFFFFFFFFFFFFFFFFFFFFFFFFFFFFFFFFFFFF DUP3 AND SWAP1 POP SWAP2 SWAP1 POP JUMP JUMPDEST PUSH0 PUSH2 0x5F3 DUP3 PUSH2 0x5CA JUMP JUMPDEST SWAP1 POP SWAP2 SWAP1 POP JUMP JUMPDEST PUSH2 0x603 DUP2 PUSH2 0x5E9 JUMP JUMPDEST DUP2 EQ PUSH2 0x60D JUMPI PUSH0 PUSH0 REVERT JUMPDEST POP JUMP JUMPDEST PUSH0 DUP2 CALLDATALOAD SWAP1 POP PUSH2 0x61E DUP2 PUSH2 0x5FA JUMP JUMPDEST SWAP3 SWAP2 POP POP JUMP JUMPDEST PUSH0 PUSH0 PUSH1 0x40 DUP4 DUP6 SUB SLT ISZERO PUSH2 0x63A JUMPI PUSH2 0x639 PUSH2 0x571 JUMP JUMPDEST JUMPDEST PUSH0 PUSH2 0x647 DUP6 DUP3 DUP7 ADD PUSH2 0x610 JUMP JUMPDEST SWAP3 POP POP PUSH1 0x20 PUSH2 0x658 DUP6 DUP3 DUP7 ADD PUSH2 0x58B JUMP JUMPDEST SWAP2 POP POP SWAP3 POP SWAP3 SWAP1 POP JUMP JUMPDEST PUSH0 PUSH2 0x66C DUP3 PUSH2 0x5CA JUMP JUMPDEST SWAP1 POP SWAP2 SWAP1 POP JUMP JUMPDEST PUSH2 0x67C DUP2 PUSH2 0x662 JUMP JUMPDEST DUP3 MSTORE POP POP JUMP JUMPDEST PUSH0 PUSH1 0x20 DUP3 ADD SWAP1 POP PUSH2 0x695 PUSH0 DUP4 ADD DUP5 PUSH2 0x673 JUMP JUMPDEST SWAP3 SWAP2 POP POP JUMP JUMPDEST PUSH0 DUP3 DUP3 MSTORE PUSH1 0x20 DUP3 ADD SWAP1 POP SWAP3 SWAP2 POP POP JUMP JUMPDEST PUSH32 0x4F6E6C79206F776E65722063616E20706572666F726D20746869732061637469 PUSH0 DUP3 ADD MSTORE PUSH32 0x6F6E000000000000000000000000000000000000000000000000000000000000 PUSH1 0x20 DUP3 ADD MSTORE POP JUMP JUMPDEST PUSH0 PUSH2 0x705 PUSH1 0x22 DUP4 PUSH2 0x69B JUMP JUMPDEST SWAP2 POP PUSH2 0x710 DUP3 PUSH2 0x6AB JUMP JUMPDEST PUSH1 0x40 DUP3 ADD SWAP1 POP SWAP2 SWAP1 POP JUMP JUMPDEST PUSH0 PUSH1 0x20 DUP3 ADD SWAP1 POP DUP2 DUP2 SUB PUSH0 DUP4 ADD MSTORE PUSH2 0x732 DUP2 PUSH2 0x6F9 JUMP JUMPDEST SWAP1 POP SWAP2 SWAP1 POP JUMP JUMPDEST PUSH32 0x42616C616E6365206973206E6F742073756666696369656E7400000000000000 PUSH0 DUP3 ADD MSTORE POP JUMP JUMPDEST PUSH0 PUSH2 0x76D PUSH1 0x19 DUP4 PUSH2 0x69B JUMP JUMPDEST SWAP2 POP PUSH2 0x778 DUP3 PUSH2 0x739 JUMP JUMPDEST PUSH1 0x20 DUP3 ADD SWAP1 POP SWAP2 SWAP1 POP JUMP JUMPDEST PUSH0 PUSH1 0x20 DUP3 ADD SWAP1 POP DUP2 DUP2 SUB PUSH0 DUP4 ADD MSTORE PUSH2 0x79A DUP2 PUSH2 0x761 JUMP JUMPDEST SWAP1 POP SWAP2 SWAP1 POP JUMP JUMPDEST PUSH0 DUP2 SWAP1 POP SWAP3 SWAP2 POP POP JUMP JUMPDEST POP JUMP JUMPDEST PUSH0 PUSH2 0x7B9 PUSH0 DUP4 PUSH2 0x7A1 JUMP JUMPDEST SWAP2 POP PUSH2 0x7C4 DUP3 PUSH2 0x7AB JUMP JUMPDEST PUSH0 DUP3 ADD SWAP1 POP SWAP2 SWAP1 POP JUMP JUMPDEST PUSH0 PUSH2 0x7D8 DUP3 PUSH2 0x7AE JUMP JUMPDEST SWAP2 POP DUP2 SWAP1 POP SWAP2 SWAP1 POP JUMP JUMPDEST PUSH32 0x5769746864726177616C206661696C6564000000000000000000000000000000 PUSH0 DUP3 ADD MSTORE POP JUMP JUMPDEST PUSH0 PUSH2 0x816 PUSH1 0x11 DUP4 PUSH2 0x69B JUMP JUMPDEST SWAP2 POP PUSH2 0x821 DUP3 PUSH2 0x7E2 JUMP JUMPDEST PUSH1 0x20 DUP3 ADD SWAP1 POP SWAP2 SWAP1 POP JUMP JUMPDEST PUSH0 PUSH1 0x20 DUP3 ADD SWAP1 POP DUP2 DUP2 SUB PUSH0 DUP4 ADD MSTORE PUSH2 0x843 DUP2 PUSH2 0x80A JUMP JUMPDEST SWAP1 POP SWAP2 SWAP1 POP JUMP JUMPDEST PUSH32 0x496E76616C696420726563656976657220616464726573730000000000000000 PUSH0 DUP3 ADD MSTORE POP JUMP JUMPDEST PUSH0 PUSH2 0x87E PUSH1 0x18 DUP4 PUSH2 0x69B JUMP JUMPDEST SWAP2 POP PUSH2 0x889 DUP3 PUSH2 0x84A JUMP JUMPDEST PUSH1 0x20 DUP3 ADD SWAP1 POP SWAP2 SWAP1 POP JUMP JUMPDEST PUSH0 PUSH1 0x20 DUP3 ADD SWAP1 POP DUP2 DUP2 SUB PUSH0 DUP4 ADD MSTORE PUSH2 0x8AB DUP2 PUSH2 0x872 JUMP JUMPDEST SWAP1 POP SWAP2 SWAP1 POP JUMP JUMPDEST PUSH32 0x416D6F756E74206D7573742062652067726561746572207468616E207A65726F PUSH0 DUP3 ADD MSTORE POP JUMP JUMPDEST PUSH0 PUSH2 0x8E6 PUSH1 0x20 DUP4 PUSH2 0x69B JUMP JUMPDEST SWAP2 POP PUSH2 0x8F1 DUP3 PUSH2 0x8B2 JUMP JUMPDEST PUSH1 0x20 DUP3 ADD SWAP1 POP SWAP2 SWAP1 POP JUMP JUMPDEST PUSH0 PUSH1 0x20 DUP3 ADD SWAP1 POP DUP2 DUP2 SUB PUSH0 DUP4 ADD MSTORE PUSH2 0x913 DUP2 PUSH2 0x8DA JUMP JUMPDEST SWAP1 POP SWAP2 SWAP1 POP JUMP JUMPDEST PUSH32 0x496E73756666696369656E742077616C6C65742062616C616E63650000000000 PUSH0 DUP3 ADD MSTORE POP JUMP JUMPDEST PUSH0 PUSH2 0x94E PUSH1 0x1B DUP4 PUSH2 0x69B JUMP JUMPDEST SWAP2 POP PUSH2 0x959 DUP3 PUSH2 0x91A JUMP JUMPDEST PUSH1 0x20 DUP3 ADD SWAP1 POP SWAP2 SWAP1 POP JUMP JUMPDEST PUSH0 PUSH1 0x20 DUP3 ADD SWAP1 POP DUP2 DUP2 SUB PUSH0 DUP4 ADD MSTORE PUSH2 0x97B DUP2 PUSH2 0x942 JUMP JUMPDEST SWAP1 POP SWAP2 SWAP1 POP JUMP JUMPDEST PUSH32 0x455448207472616E73666572206661696C656400000000000000000000000000 PUSH0 DUP3 ADD MSTORE POP JUMP JUMPDEST PUSH0 PUSH2 0x9B6 PUSH1 0x13 DUP4 PUSH2 0x69B JUMP JUMPDEST SWAP2 POP PUSH2 0x9C1 DUP3 PUSH2 0x982 JUMP JUMPDEST PUSH1 0x20 DUP3 ADD SWAP1 POP SWAP2 SWAP1 POP JUMP JUMPDEST PUSH0 PUSH1 0x20 DUP3 ADD SWAP1 POP DUP2 DUP2 SUB PUSH0 DUP4 ADD MSTORE PUSH2 0x9E3 DUP2 PUSH2 0x9AA JUMP JUMPDEST SWAP1 POP SWAP2 SWAP1 POP JUMP JUMPDEST PUSH32 0x4465706F73697420616D6F756E74206D75737420626520677265617465722074 PUSH0 DUP3 ADD MSTORE PUSH32 0x68616E207A65726F000000000000000000000000000000000000000000000000 PUSH1 0x20 DUP3 ADD MSTORE POP JUMP JUMPDEST PUSH0 PUSH2 0xA44 PUSH1 0x28 DUP4 PUSH2 0x69B JUMP JUMPDEST SWAP2 POP PUSH2 0xA4F DUP3 PUSH2 0x9EA JUMP JUMPDEST PUSH1 0x40 DUP3 ADD SWAP1 POP SWAP2 SWAP1 POP JUMP JUMPDEST PUSH0 PUSH1 0x20 DUP3 ADD SWAP1 POP DUP2 DUP2 SUB PUSH0 DUP4 ADD MSTORE PUSH2 0xA71 DUP2 PUSH2 0xA38 JUMP JUMPDEST SWAP1 POP SWAP2 SWAP1 POP JUMP INVALID LOG2 PUSH5 0x6970667358 0x22 SLT KECCAK256 0xCC BLOBHASH ADDRESS PUSH6 0x45F5CCAE97E7 CALLDATACOPY 0x2D 0xF EQ 0xB3 SUB 0x29 SWAPN 0x59 0xCD MCOPY 0x4C POP 0x2A LT MSTORE SELFBALANCE OR 0x4E XOR 0xD5 0x4E PUSH5 0x736F6C6343 STOP ADDMOD 0x1E STOP CALLER "
				},
				"gasEstimates": {
					"creation": {
						"codeDepositCost": "546800",
						"executionCost": "24843",
						"totalCost": "571643"
					},
					"external": {
						"deposit()": "508",
						"getBalance()": "312",
						"owner()": "2551",
						"sendEth(address,uint256)": "infinite",
						"withdraw(uint256)": "infinite"
					}
				},
				"methodIdentifiers": {
					"deposit()": "d0e30db0",
					"getBalance()": "12065fe0",
					"owner()": "8da5cb5b",
					"sendEth(address,uint256)": "49dcbc5e",
					"withdraw(uint256)": "2e1a7d4d"
				}
			},
			"storageLayout": {
				"storage": [
					{
						"astId": 3,
						"contract": "Smart Contracts/1_SimpleWalletContract.sol:SmartWalletContract",
						"label": "owner",
						"offset": 0,
						"slot": "0",
						"type": "t_address"
					}
				],
				"types": {
					"t_address": {
						"encoding": "inplace",
						"label": "address",
						"numberOfBytes": "20"
					}
				}
			},
			"userdoc": {
				"kind": "user",
				"methods": {},
				"version": 1
			}
		}
	}
}