{
	"Smart Contracts/24_MyUpgradableToken.sol": {
		"CounterV1": {
			"abi": [
				{
					"inputs": [
						{
							"internalType": "address",
							"name": "target",
							"type": "address"
						}
					],
					"name": "AddressEmptyCode",
					"type": "error"
				},
				{
					"inputs": [
						{
							"internalType": "address",
							"name": "implementation",
							"type": "address"
						}
					],
					"name": "ERC1967InvalidImplementation",
					"type": "error"
				},
				{
					"inputs": [],
					"name": "ERC1967NonPayable",
					"type": "error"
				},
				{
					"inputs": [],
					"name": "FailedCall",
					"type": "error"
				},
				{
					"inputs": [],
					"name": "InvalidInitialization",
					"type": "error"
				},
				{
					"inputs": [],
					"name": "NotInitializing",
					"type": "error"
				},
				{
					"inputs": [
						{
							"internalType": "address",
							"name": "owner",
							"type": "address"
						}
					],
					"name": "OwnableInvalidOwner",
					"type": "error"
				},
				{
					"inputs": [
						{
							"internalType": "address",
							"name": "account",
							"type": "address"
						}
					],
					"name": "OwnableUnauthorizedAccount",
					"type": "error"
				},
				{
					"inputs": [],
					"name": "UUPSUnauthorizedCallContext",
					"type": "error"
				},
				{
					"inputs": [
						{
							"internalType": "bytes32",
							"name": "slot",
							"type": "bytes32"
						}
					],
					"name": "UUPSUnsupportedProxiableUUID",
					"type": "error"
				},
				{
					"anonymous": false,
					"inputs": [
						{
							"indexed": false,
							"internalType": "uint64",
							"name": "version",
							"type": "uint64"
						}
					],
					"name": "Initialized",
					"type": "event"
				},
				{
					"anonymous": false,
					"inputs": [
						{
							"indexed": true,
							"internalType": "address",
							"name": "previousOwner",
							"type": "address"
						},
						{
							"indexed": true,
							"internalType": "address",
							"name": "newOwner",
							"type": "address"
						}
					],
					"name": "OwnershipTransferred",
					"type": "event"
				},
				{
					"anonymous": false,
					"inputs": [
						{
							"indexed": true,
							"internalType": "address",
							"name": "implementation",
							"type": "address"
						}
					],
					"name": "Upgraded",
					"type": "event"
				},
				{
					"inputs": [],
					"name": "UPGRADE_INTERFACE_VERSION",
					"outputs": [
						{
							"internalType": "string",
							"name": "",
							"type": "string"
						}
					],
					"stateMutability": "view",
					"type": "function"
				},
				{
					"inputs": [],
					"name": "count",
					"outputs": [
						{
							"internalType": "uint256",
							"name": "",
							"type": "uint256"
						}
					],
					"stateMutability": "view",
					"type": "function"
				},
				{
					"inputs": [],
					"name": "increment",
					"outputs": [],
					"stateMutability": "nonpayable",
					"type": "function"
				},
				{
					"inputs": [],
					"name": "initialize",
					"outputs": [],
					"stateMutability": "nonpayable",
					"type": "function"
				},
				{
					"inputs": [],
					"name": "owner",
					"outputs": [
						{
							"internalType": "address",
							"name": "",
							"type": "address"
						}
					],
					"stateMutability": "view",
					"type": "function"
				},
				{
					"inputs": [],
					"name": "proxiableUUID",
					"outputs": [
						{
							"internalType": "bytes32",
							"name": "",
							"type": "bytes32"
						}
					],
					"stateMutability": "view",
					"type": "function"
				},
				{
					"inputs": [],
					"name": "renounceOwnership",
					"outputs": [],
					"stateMutability": "nonpayable",
					"type": "function"
				},
				{
					"inputs": [
						{
							"internalType": "address",
							"name": "newOwner",
							"type": "address"
						}
					],
					"name": "transferOwnership",
					"outputs": [],
					"stateMutability": "nonpayable",
					"type": "function"
				},
				{
					"inputs": [
						{
							"internalType": "address",
							"name": "newImplementation",
							"type": "address"
						},
						{
							"internalType": "bytes",
							"name": "data",
							"type": "bytes"
						}
					],
					"name": "upgradeToAndCall",
					"outputs": [],
					"stateMutability": "payable",
					"type": "function"
				}
			],
			"devdoc": {
				"errors": {
					"AddressEmptyCode(address)": [
						{
							"details": "There's no code at `target` (it is not a contract)."
						}
					],
					"ERC1967InvalidImplementation(address)": [
						{
							"details": "The `implementation` of the proxy is invalid."
						}
					],
					"ERC1967NonPayable()": [
						{
							"details": "An upgrade function sees `msg.value > 0` that may be lost."
						}
					],
					"FailedCall()": [
						{
							"details": "A call to an address target failed. The target may have reverted."
						}
					],
					"InvalidInitialization()": [
						{
							"details": "The contract is already initialized."
						}
					],
					"NotInitializing()": [
						{
							"details": "The contract is not initializing."
						}
					],
					"OwnableInvalidOwner(address)": [
						{
							"details": "The owner is not a valid owner account. (eg. `address(0)`)"
						}
					],
					"OwnableUnauthorizedAccount(address)": [
						{
							"details": "The caller account is not authorized to perform an operation."
						}
					],
					"UUPSUnauthorizedCallContext()": [
						{
							"details": "The call is from an unauthorized context."
						}
					],
					"UUPSUnsupportedProxiableUUID(bytes32)": [
						{
							"details": "The storage `slot` is unsupported as a UUID."
						}
					]
				},
				"events": {
					"Initialized(uint64)": {
						"details": "Triggered when the contract has been initialized or reinitialized."
					},
					"Upgraded(address)": {
						"details": "Emitted when the implementation is upgraded."
					}
				},
				"kind": "dev",
				"methods": {
					"owner()": {
						"details": "Returns the address of the current owner."
					},
					"proxiableUUID()": {
						"details": "Implementation of the ERC-1822 {proxiableUUID} function. This returns the storage slot used by the implementation. It is used to validate the implementation's compatibility when performing an upgrade. IMPORTANT: A proxy pointing at a proxiable contract should not be considered proxiable itself, because this risks bricking a proxy that upgrades to it, by delegating to itself until out of gas. Thus it is critical that this function revert if invoked through a proxy. This is guaranteed by the `notDelegated` modifier."
					},
					"renounceOwnership()": {
						"details": "Leaves the contract without owner. It will not be possible to call `onlyOwner` functions. Can only be called by the current owner. NOTE: Renouncing ownership will leave the contract without an owner, thereby disabling any functionality that is only available to the owner."
					},
					"transferOwnership(address)": {
						"details": "Transfers ownership of the contract to a new account (`newOwner`). Can only be called by the current owner."
					},
					"upgradeToAndCall(address,bytes)": {
						"custom:oz-upgrades-unsafe-allow-reachable": "delegatecall",
						"details": "Upgrade the implementation of the proxy to `newImplementation`, and subsequently execute the function call encoded in `data`. Calls {_authorizeUpgrade}. Emits an {Upgraded} event."
					}
				},
				"version": 1
			},
			"evm": {
				"assembly": "    /* \"Smart Contracts/24_MyUpgradableToken.sol\":296:740  contract CounterV1 is Initializable, OwnableUpgradeable, UUPSUpgradeable {... */\n  mstore(0x40, 0xa0)\n    /* \"@openzeppelin/contracts-upgradeable/proxy/utils/UUPSUpgradeable.sol\":1171:1175  this */\n  address\n    /* \"@openzeppelin/contracts-upgradeable/proxy/utils/UUPSUpgradeable.sol\":1128:1176  address private immutable __self = address(this) */\n  0xffffffffffffffffffffffffffffffffffffffff\n  and\n  0x80\n  swap1\n  0xffffffffffffffffffffffffffffffffffffffff\n  and\n  dup2\n  mstore\n  pop\n    /* \"Smart Contracts/24_MyUpgradableToken.sol\":296:740  contract CounterV1 is Initializable, OwnableUpgradeable, UUPSUpgradeable {... */\n  callvalue\n  dup1\n  iszero\n  tag_1\n  jumpi\n  revert(0x00, 0x00)\ntag_1:\n  pop\n  mload(0x80)\n  codecopy(0x00, dataOffset(sub_0), dataSize(sub_0))\n  0x00\n  assignImmutable(\"0x4ce4dab4689da140a0c12de1a6af6b8f679594aeb723205f513e052d27f5b26f\")\n  return(0x00, dataSize(sub_0))\nstop\n\nsub_0: assembly {\n        /* \"Smart Contracts/24_MyUpgradableToken.sol\":296:740  contract CounterV1 is Initializable, OwnableUpgradeable, UUPSUpgradeable {... */\n      mstore(0x40, 0x80)\n      jumpi(tag_1, lt(calldatasize, 0x04))\n      shr(0xe0, calldataload(0x00))\n      dup1\n      0x8129fc1c\n      gt\n      tag_11\n      jumpi\n      dup1\n      0x8129fc1c\n      eq\n      tag_6\n      jumpi\n      dup1\n      0x8da5cb5b\n      eq\n      tag_7\n      jumpi\n      dup1\n      0xad3cb1cc\n      eq\n      tag_8\n      jumpi\n      dup1\n      0xd09de08a\n      eq\n      tag_9\n      jumpi\n      dup1\n      0xf2fde38b\n      eq\n      tag_10\n      jumpi\n      jump(tag_1)\n    tag_11:\n      dup1\n      0x06661abd\n      eq\n      tag_2\n      jumpi\n      dup1\n      0x4f1ef286\n      eq\n      tag_3\n      jumpi\n      dup1\n      0x52d1902d\n      eq\n      tag_4\n      jumpi\n      dup1\n      0x715018a6\n      eq\n      tag_5\n      jumpi\n    tag_1:\n      revert(0x00, 0x00)\n        /* \"Smart Contracts/24_MyUpgradableToken.sol\":378:398  uint256 public count */\n    tag_2:\n      callvalue\n      dup1\n      iszero\n      tag_12\n      jumpi\n      revert(0x00, 0x00)\n    tag_12:\n      pop\n      tag_13\n      tag_14\n      jump\t// in\n    tag_13:\n      mload(0x40)\n      tag_15\n      swap2\n      swap1\n      tag_16\n      jump\t// in\n    tag_15:\n      mload(0x40)\n      dup1\n      swap2\n      sub\n      swap1\n      return\n        /* \"@openzeppelin/contracts-upgradeable/proxy/utils/UUPSUpgradeable.sol\":4161:4375  function upgradeToAndCall(address newImplementation, bytes memory data) public payable virtual onlyProxy {... */\n    tag_3:\n      tag_17\n      0x04\n      dup1\n      calldatasize\n      sub\n      dup2\n      add\n      swap1\n      tag_18\n      swap2\n      swap1\n      tag_19\n      jump\t// in\n    tag_18:\n      tag_20\n      jump\t// in\n    tag_17:\n      stop\n        /* \"@openzeppelin/contracts-upgradeable/proxy/utils/UUPSUpgradeable.sol\":3708:3842  function proxiableUUID() external view virtual notDelegated returns (bytes32) {... */\n    tag_4:\n      callvalue\n      dup1\n      iszero\n      tag_21\n      jumpi\n      revert(0x00, 0x00)\n    tag_21:\n      pop\n      tag_22\n      tag_23\n      jump\t// in\n    tag_22:\n      mload(0x40)\n      tag_24\n      swap2\n      swap1\n      tag_25\n      jump\t// in\n    tag_24:\n      mload(0x40)\n      dup1\n      swap2\n      sub\n      swap1\n      return\n        /* \"@openzeppelin/contracts-upgradeable/access/OwnableUpgradeable.sol\":3155:3256  function renounceOwnership() public virtual onlyOwner {... */\n    tag_5:\n      callvalue\n      dup1\n      iszero\n      tag_26\n      jumpi\n      revert(0x00, 0x00)\n    tag_26:\n      pop\n      tag_27\n      tag_28\n      jump\t// in\n    tag_27:\n      stop\n        /* \"Smart Contracts/24_MyUpgradableToken.sol\":407:548  function initialize() public initializer {... */\n    tag_6:\n      callvalue\n      dup1\n      iszero\n      tag_29\n      jumpi\n      revert(0x00, 0x00)\n    tag_29:\n      pop\n      tag_30\n      tag_31\n      jump\t// in\n    tag_30:\n      stop\n        /* \"@openzeppelin/contracts-upgradeable/access/OwnableUpgradeable.sol\":2441:2585  function owner() public view virtual returns (address) {... */\n    tag_7:\n      callvalue\n      dup1\n      iszero\n      tag_32\n      jumpi\n      revert(0x00, 0x00)\n    tag_32:\n      pop\n      tag_33\n      tag_34\n      jump\t// in\n    tag_33:\n      mload(0x40)\n      tag_35\n      swap2\n      swap1\n      tag_36\n      jump\t// in\n    tag_35:\n      mload(0x40)\n      dup1\n      swap2\n      sub\n      swap1\n      return\n        /* \"@openzeppelin/contracts-upgradeable/proxy/utils/UUPSUpgradeable.sol\":1819:1877  string public constant UPGRADE_INTERFACE_VERSION = \"5.0.0\" */\n    tag_8:\n      callvalue\n      dup1\n      iszero\n      tag_37\n      jumpi\n      revert(0x00, 0x00)\n    tag_37:\n      pop\n      tag_38\n      tag_39\n      jump\t// in\n    tag_38:\n      mload(0x40)\n      tag_40\n      swap2\n      swap1\n      tag_41\n      jump\t// in\n    tag_40:\n      mload(0x40)\n      dup1\n      swap2\n      sub\n      swap1\n      return\n        /* \"Smart Contracts/24_MyUpgradableToken.sol\":556:613  function increment() public {... */\n    tag_9:\n      callvalue\n      dup1\n      iszero\n      tag_42\n      jumpi\n      revert(0x00, 0x00)\n    tag_42:\n      pop\n      tag_43\n      tag_44\n      jump\t// in\n    tag_43:\n      stop\n        /* \"@openzeppelin/contracts-upgradeable/access/OwnableUpgradeable.sol\":3405:3620  function transferOwnership(address newOwner) public virtual onlyOwner {... */\n    tag_10:\n      callvalue\n      dup1\n      iszero\n      tag_45\n      jumpi\n      revert(0x00, 0x00)\n    tag_45:\n      pop\n      tag_46\n      0x04\n      dup1\n      calldatasize\n      sub\n      dup2\n      add\n      swap1\n      tag_47\n      swap2\n      swap1\n      tag_48\n      jump\t// in\n    tag_47:\n      tag_49\n      jump\t// in\n    tag_46:\n      stop\n        /* \"Smart Contracts/24_MyUpgradableToken.sol\":378:398  uint256 public count */\n    tag_14:\n      sload(0x00)\n      dup2\n      jump\t// out\n        /* \"@openzeppelin/contracts-upgradeable/proxy/utils/UUPSUpgradeable.sol\":4161:4375  function upgradeToAndCall(address newImplementation, bytes memory data) public payable virtual onlyProxy {... */\n    tag_20:\n        /* \"@openzeppelin/contracts-upgradeable/proxy/utils/UUPSUpgradeable.sol\":2655:2668  _checkProxy() */\n      tag_51\n        /* \"@openzeppelin/contracts-upgradeable/proxy/utils/UUPSUpgradeable.sol\":2655:2666  _checkProxy */\n      tag_52\n        /* \"@openzeppelin/contracts-upgradeable/proxy/utils/UUPSUpgradeable.sol\":2655:2668  _checkProxy() */\n      jump\t// in\n    tag_51:\n        /* \"@openzeppelin/contracts-upgradeable/proxy/utils/UUPSUpgradeable.sol\":4276:4312  _authorizeUpgrade(newImplementation) */\n      tag_54\n        /* \"@openzeppelin/contracts-upgradeable/proxy/utils/UUPSUpgradeable.sol\":4294:4311  newImplementation */\n      dup3\n        /* \"@openzeppelin/contracts-upgradeable/proxy/utils/UUPSUpgradeable.sol\":4276:4293  _authorizeUpgrade */\n      tag_55\n        /* \"@openzeppelin/contracts-upgradeable/proxy/utils/UUPSUpgradeable.sol\":4276:4312  _authorizeUpgrade(newImplementation) */\n      jump\t// in\n    tag_54:\n        /* \"@openzeppelin/contracts-upgradeable/proxy/utils/UUPSUpgradeable.sol\":4322:4368  _upgradeToAndCallUUPS(newImplementation, data) */\n      tag_56\n        /* \"@openzeppelin/contracts-upgradeable/proxy/utils/UUPSUpgradeable.sol\":4344:4361  newImplementation */\n      dup3\n        /* \"@openzeppelin/contracts-upgradeable/proxy/utils/UUPSUpgradeable.sol\":4363:4367  data */\n      dup3\n        /* \"@openzeppelin/contracts-upgradeable/proxy/utils/UUPSUpgradeable.sol\":4322:4343  _upgradeToAndCallUUPS */\n      tag_57\n        /* \"@openzeppelin/contracts-upgradeable/proxy/utils/UUPSUpgradeable.sol\":4322:4368  _upgradeToAndCallUUPS(newImplementation, data) */\n      jump\t// in\n    tag_56:\n        /* \"@openzeppelin/contracts-upgradeable/proxy/utils/UUPSUpgradeable.sol\":4161:4375  function upgradeToAndCall(address newImplementation, bytes memory data) public payable virtual onlyProxy {... */\n      pop\n      pop\n      jump\t// out\n        /* \"@openzeppelin/contracts-upgradeable/proxy/utils/UUPSUpgradeable.sol\":3708:3842  function proxiableUUID() external view virtual notDelegated returns (bytes32) {... */\n    tag_23:\n        /* \"@openzeppelin/contracts-upgradeable/proxy/utils/UUPSUpgradeable.sol\":3777:3784  bytes32 */\n      0x00\n        /* \"@openzeppelin/contracts-upgradeable/proxy/utils/UUPSUpgradeable.sol\":2926:2946  _checkNotDelegated() */\n      tag_59\n        /* \"@openzeppelin/contracts-upgradeable/proxy/utils/UUPSUpgradeable.sol\":2926:2944  _checkNotDelegated */\n      tag_60\n        /* \"@openzeppelin/contracts-upgradeable/proxy/utils/UUPSUpgradeable.sol\":2926:2946  _checkNotDelegated() */\n      jump\t// in\n    tag_59:\n        /* \"@openzeppelin/contracts/proxy/ERC1967/ERC1967Utils.sol\":811:877  0x360894a13ba1a3210667c828492db98dca3e2076cc3735a920a3ca505d382bbc */\n      0x360894a13ba1a3210667c828492db98dca3e2076cc3735a920a3ca505d382bbc\n        /* \"@openzeppelin/contracts-upgradeable/proxy/utils/UUPSUpgradeable.sol\":3803:3835  ERC1967Utils.IMPLEMENTATION_SLOT */\n      0x00\n      shl\n        /* \"@openzeppelin/contracts-upgradeable/proxy/utils/UUPSUpgradeable.sol\":3796:3835  return ERC1967Utils.IMPLEMENTATION_SLOT */\n      swap1\n      pop\n        /* \"@openzeppelin/contracts-upgradeable/proxy/utils/UUPSUpgradeable.sol\":3708:3842  function proxiableUUID() external view virtual notDelegated returns (bytes32) {... */\n      swap1\n      jump\t// out\n        /* \"@openzeppelin/contracts-upgradeable/access/OwnableUpgradeable.sol\":3155:3256  function renounceOwnership() public virtual onlyOwner {... */\n    tag_28:\n        /* \"@openzeppelin/contracts-upgradeable/access/OwnableUpgradeable.sol\":2334:2347  _checkOwner() */\n      tag_63\n        /* \"@openzeppelin/contracts-upgradeable/access/OwnableUpgradeable.sol\":2334:2345  _checkOwner */\n      tag_64\n        /* \"@openzeppelin/contracts-upgradeable/access/OwnableUpgradeable.sol\":2334:2347  _checkOwner() */\n      jump\t// in\n    tag_63:\n        /* \"@openzeppelin/contracts-upgradeable/access/OwnableUpgradeable.sol\":3219:3249  _transferOwnership(address(0)) */\n      tag_66\n        /* \"@openzeppelin/contracts-upgradeable/access/OwnableUpgradeable.sol\":3246:3247  0 */\n      0x00\n        /* \"@openzeppelin/contracts-upgradeable/access/OwnableUpgradeable.sol\":3219:3237  _transferOwnership */\n      tag_67\n        /* \"@openzeppelin/contracts-upgradeable/access/OwnableUpgradeable.sol\":3219:3249  _transferOwnership(address(0)) */\n      jump\t// in\n    tag_66:\n        /* \"@openzeppelin/contracts-upgradeable/access/OwnableUpgradeable.sol\":3155:3256  function renounceOwnership() public virtual onlyOwner {... */\n      jump\t// out\n        /* \"Smart Contracts/24_MyUpgradableToken.sol\":407:548  function initialize() public initializer {... */\n    tag_31:\n        /* \"@openzeppelin/contracts-upgradeable/proxy/utils/Initializable.sol\":4158:4188  InitializableStorage storage $ */\n      0x00\n        /* \"@openzeppelin/contracts-upgradeable/proxy/utils/Initializable.sol\":4191:4217  _getInitializableStorage() */\n      tag_69\n        /* \"@openzeppelin/contracts-upgradeable/proxy/utils/Initializable.sol\":4191:4215  _getInitializableStorage */\n      tag_70\n        /* \"@openzeppelin/contracts-upgradeable/proxy/utils/Initializable.sol\":4191:4217  _getInitializableStorage() */\n      jump\t// in\n    tag_69:\n        /* \"@openzeppelin/contracts-upgradeable/proxy/utils/Initializable.sol\":4158:4217  InitializableStorage storage $ = _getInitializableStorage() */\n      swap1\n      pop\n        /* \"@openzeppelin/contracts-upgradeable/proxy/utils/Initializable.sol\":4279:4298  bool isTopLevelCall */\n      0x00\n        /* \"@openzeppelin/contracts-upgradeable/proxy/utils/Initializable.sol\":4302:4303  $ */\n      dup2\n        /* \"@openzeppelin/contracts-upgradeable/proxy/utils/Initializable.sol\":4302:4317  $._initializing */\n      0x00\n      add\n      0x08\n      swap1\n      sload\n      swap1\n      0x0100\n      exp\n      swap1\n      div\n      0xff\n      and\n        /* \"@openzeppelin/contracts-upgradeable/proxy/utils/Initializable.sol\":4301:4317  !$._initializing */\n      iszero\n        /* \"@openzeppelin/contracts-upgradeable/proxy/utils/Initializable.sol\":4279:4317  bool isTopLevelCall = !$._initializing */\n      swap1\n      pop\n        /* \"@openzeppelin/contracts-upgradeable/proxy/utils/Initializable.sol\":4327:4345  uint64 initialized */\n      0x00\n        /* \"@openzeppelin/contracts-upgradeable/proxy/utils/Initializable.sol\":4348:4349  $ */\n      dup3\n        /* \"@openzeppelin/contracts-upgradeable/proxy/utils/Initializable.sol\":4348:4362  $._initialized */\n      0x00\n      add\n      0x00\n      swap1\n      sload\n      swap1\n      0x0100\n      exp\n      swap1\n      div\n      0xffffffffffffffff\n      and\n        /* \"@openzeppelin/contracts-upgradeable/proxy/utils/Initializable.sol\":4327:4362  uint64 initialized = $._initialized */\n      swap1\n      pop\n        /* \"@openzeppelin/contracts-upgradeable/proxy/utils/Initializable.sol\":4704:4721  bool initialSetup */\n      0x00\n        /* \"@openzeppelin/contracts-upgradeable/proxy/utils/Initializable.sol\":4739:4740  0 */\n      0x00\n        /* \"@openzeppelin/contracts-upgradeable/proxy/utils/Initializable.sol\":4724:4735  initialized */\n      dup3\n        /* \"@openzeppelin/contracts-upgradeable/proxy/utils/Initializable.sol\":4724:4740  initialized == 0 */\n      0xffffffffffffffff\n      and\n      eq\n        /* \"@openzeppelin/contracts-upgradeable/proxy/utils/Initializable.sol\":4724:4758  initialized == 0 && isTopLevelCall */\n      dup1\n      iszero\n      tag_71\n      jumpi\n      pop\n        /* \"@openzeppelin/contracts-upgradeable/proxy/utils/Initializable.sol\":4744:4758  isTopLevelCall */\n      dup3\n        /* \"@openzeppelin/contracts-upgradeable/proxy/utils/Initializable.sol\":4724:4758  initialized == 0 && isTopLevelCall */\n    tag_71:\n        /* \"@openzeppelin/contracts-upgradeable/proxy/utils/Initializable.sol\":4704:4758  bool initialSetup = initialized == 0 && isTopLevelCall */\n      swap1\n      pop\n        /* \"@openzeppelin/contracts-upgradeable/proxy/utils/Initializable.sol\":4768:4785  bool construction */\n      0x00\n        /* \"@openzeppelin/contracts-upgradeable/proxy/utils/Initializable.sol\":4803:4804  1 */\n      0x01\n        /* \"@openzeppelin/contracts-upgradeable/proxy/utils/Initializable.sol\":4788:4799  initialized */\n      dup4\n        /* \"@openzeppelin/contracts-upgradeable/proxy/utils/Initializable.sol\":4788:4804  initialized == 1 */\n      0xffffffffffffffff\n      and\n      eq\n        /* \"@openzeppelin/contracts-upgradeable/proxy/utils/Initializable.sol\":4788:4838  initialized == 1 && address(this).code.length == 0 */\n      dup1\n      iszero\n      tag_72\n      jumpi\n      pop\n        /* \"@openzeppelin/contracts-upgradeable/proxy/utils/Initializable.sol\":4837:4838  0 */\n      0x00\n        /* \"@openzeppelin/contracts-upgradeable/proxy/utils/Initializable.sol\":4816:4820  this */\n      address\n        /* \"@openzeppelin/contracts-upgradeable/proxy/utils/Initializable.sol\":4808:4833  address(this).code.length */\n      0xffffffffffffffffffffffffffffffffffffffff\n      and\n      extcodesize\n        /* \"@openzeppelin/contracts-upgradeable/proxy/utils/Initializable.sol\":4808:4838  address(this).code.length == 0 */\n      eq\n        /* \"@openzeppelin/contracts-upgradeable/proxy/utils/Initializable.sol\":4788:4838  initialized == 1 && address(this).code.length == 0 */\n    tag_72:\n        /* \"@openzeppelin/contracts-upgradeable/proxy/utils/Initializable.sol\":4768:4838  bool construction = initialized == 1 && address(this).code.length == 0 */\n      swap1\n      pop\n        /* \"@openzeppelin/contracts-upgradeable/proxy/utils/Initializable.sol\":4854:4866  initialSetup */\n      dup2\n        /* \"@openzeppelin/contracts-upgradeable/proxy/utils/Initializable.sol\":4853:4866  !initialSetup */\n      iszero\n        /* \"@openzeppelin/contracts-upgradeable/proxy/utils/Initializable.sol\":4853:4883  !initialSetup && !construction */\n      dup1\n      iszero\n      tag_73\n      jumpi\n      pop\n        /* \"@openzeppelin/contracts-upgradeable/proxy/utils/Initializable.sol\":4871:4883  construction */\n      dup1\n        /* \"@openzeppelin/contracts-upgradeable/proxy/utils/Initializable.sol\":4870:4883  !construction */\n      iszero\n        /* \"@openzeppelin/contracts-upgradeable/proxy/utils/Initializable.sol\":4853:4883  !initialSetup && !construction */\n    tag_73:\n        /* \"@openzeppelin/contracts-upgradeable/proxy/utils/Initializable.sol\":4849:4940  if (!initialSetup && !construction) {... */\n      iszero\n      tag_74\n      jumpi\n        /* \"@openzeppelin/contracts-upgradeable/proxy/utils/Initializable.sol\":4906:4929  InvalidInitialization() */\n      mload(0x40)\n      0xf92ee8a900000000000000000000000000000000000000000000000000000000\n      dup2\n      mstore\n      0x04\n      add\n      mload(0x40)\n      dup1\n      swap2\n      sub\n      swap1\n      revert\n        /* \"@openzeppelin/contracts-upgradeable/proxy/utils/Initializable.sol\":4849:4940  if (!initialSetup && !construction) {... */\n    tag_74:\n        /* \"@openzeppelin/contracts-upgradeable/proxy/utils/Initializable.sol\":4966:4967  1 */\n      0x01\n        /* \"@openzeppelin/contracts-upgradeable/proxy/utils/Initializable.sol\":4949:4950  $ */\n      dup6\n        /* \"@openzeppelin/contracts-upgradeable/proxy/utils/Initializable.sol\":4949:4963  $._initialized */\n      0x00\n      add\n      0x00\n        /* \"@openzeppelin/contracts-upgradeable/proxy/utils/Initializable.sol\":4949:4967  $._initialized = 1 */\n      0x0100\n      exp\n      dup2\n      sload\n      dup2\n      0xffffffffffffffff\n      mul\n      not\n      and\n      swap1\n      dup4\n      0xffffffffffffffff\n      and\n      mul\n      or\n      swap1\n      sstore\n      pop\n        /* \"@openzeppelin/contracts-upgradeable/proxy/utils/Initializable.sol\":4981:4995  isTopLevelCall */\n      dup4\n        /* \"@openzeppelin/contracts-upgradeable/proxy/utils/Initializable.sol\":4977:5044  if (isTopLevelCall) {... */\n      iszero\n      tag_75\n      jumpi\n        /* \"@openzeppelin/contracts-upgradeable/proxy/utils/Initializable.sol\":5029:5033  true */\n      0x01\n        /* \"@openzeppelin/contracts-upgradeable/proxy/utils/Initializable.sol\":5011:5012  $ */\n      dup6\n        /* \"@openzeppelin/contracts-upgradeable/proxy/utils/Initializable.sol\":5011:5026  $._initializing */\n      0x00\n      add\n      0x08\n        /* \"@openzeppelin/contracts-upgradeable/proxy/utils/Initializable.sol\":5011:5033  $._initializing = true */\n      0x0100\n      exp\n      dup2\n      sload\n      dup2\n      0xff\n      mul\n      not\n      and\n      swap1\n      dup4\n      iszero\n      iszero\n      mul\n      or\n      swap1\n      sstore\n      pop\n        /* \"@openzeppelin/contracts-upgradeable/proxy/utils/Initializable.sol\":4977:5044  if (isTopLevelCall) {... */\n    tag_75:\n        /* \"Smart Contracts/24_MyUpgradableToken.sol\":459:485  __Ownable_init(msg.sender) */\n      tag_77\n        /* \"Smart Contracts/24_MyUpgradableToken.sol\":474:484  msg.sender */\n      caller\n        /* \"Smart Contracts/24_MyUpgradableToken.sol\":459:473  __Ownable_init */\n      tag_78\n        /* \"Smart Contracts/24_MyUpgradableToken.sol\":459:485  __Ownable_init(msg.sender) */\n      jump\t// in\n    tag_77:\n        /* \"Smart Contracts/24_MyUpgradableToken.sol\":496:520  __UUPSUpgradeable_init() */\n      tag_79\n        /* \"Smart Contracts/24_MyUpgradableToken.sol\":496:518  __UUPSUpgradeable_init */\n      tag_80\n        /* \"Smart Contracts/24_MyUpgradableToken.sol\":496:520  __UUPSUpgradeable_init() */\n      jump\t// in\n    tag_79:\n        /* \"Smart Contracts/24_MyUpgradableToken.sol\":539:540  0 */\n      0x00\n        /* \"Smart Contracts/24_MyUpgradableToken.sol\":531:536  count */\n      0x00\n        /* \"Smart Contracts/24_MyUpgradableToken.sol\":531:540  count = 0 */\n      dup2\n      swap1\n      sstore\n      pop\n        /* \"@openzeppelin/contracts-upgradeable/proxy/utils/Initializable.sol\":5068:5082  isTopLevelCall */\n      dup4\n        /* \"@openzeppelin/contracts-upgradeable/proxy/utils/Initializable.sol\":5064:5165  if (isTopLevelCall) {... */\n      iszero\n      tag_81\n      jumpi\n        /* \"@openzeppelin/contracts-upgradeable/proxy/utils/Initializable.sol\":5116:5121  false */\n      0x00\n        /* \"@openzeppelin/contracts-upgradeable/proxy/utils/Initializable.sol\":5098:5099  $ */\n      dup6\n        /* \"@openzeppelin/contracts-upgradeable/proxy/utils/Initializable.sol\":5098:5113  $._initializing */\n      0x00\n      add\n      0x08\n        /* \"@openzeppelin/contracts-upgradeable/proxy/utils/Initializable.sol\":5098:5121  $._initializing = false */\n      0x0100\n      exp\n      dup2\n      sload\n      dup2\n      0xff\n      mul\n      not\n      and\n      swap1\n      dup4\n      iszero\n      iszero\n      mul\n      or\n      swap1\n      sstore\n      pop\n        /* \"@openzeppelin/contracts-upgradeable/proxy/utils/Initializable.sol\":5140:5154  Initialized(1) */\n      0xc7f505b2f371ae2175ee4913f4499e1f2633a7b5936321eed1cdaeb6115181d2\n        /* \"@openzeppelin/contracts-upgradeable/proxy/utils/Initializable.sol\":5152:5153  1 */\n      0x01\n        /* \"@openzeppelin/contracts-upgradeable/proxy/utils/Initializable.sol\":5140:5154  Initialized(1) */\n      mload(0x40)\n      tag_82\n      swap2\n      swap1\n      tag_83\n      jump\t// in\n    tag_82:\n      mload(0x40)\n      dup1\n      swap2\n      sub\n      swap1\n      log1\n        /* \"@openzeppelin/contracts-upgradeable/proxy/utils/Initializable.sol\":5064:5165  if (isTopLevelCall) {... */\n    tag_81:\n        /* \"@openzeppelin/contracts-upgradeable/proxy/utils/Initializable.sol\":4092:5171  {... */\n      pop\n      pop\n      pop\n      pop\n      pop\n        /* \"Smart Contracts/24_MyUpgradableToken.sol\":407:548  function initialize() public initializer {... */\n      jump\t// out\n        /* \"@openzeppelin/contracts-upgradeable/access/OwnableUpgradeable.sol\":2441:2585  function owner() public view virtual returns (address) {... */\n    tag_34:\n        /* \"@openzeppelin/contracts-upgradeable/access/OwnableUpgradeable.sol\":2487:2494  address */\n      0x00\n        /* \"@openzeppelin/contracts-upgradeable/access/OwnableUpgradeable.sol\":2506:2530  OwnableStorage storage $ */\n      0x00\n        /* \"@openzeppelin/contracts-upgradeable/access/OwnableUpgradeable.sol\":2533:2553  _getOwnableStorage() */\n      tag_85\n        /* \"@openzeppelin/contracts-upgradeable/access/OwnableUpgradeable.sol\":2533:2551  _getOwnableStorage */\n      tag_86\n        /* \"@openzeppelin/contracts-upgradeable/access/OwnableUpgradeable.sol\":2533:2553  _getOwnableStorage() */\n      jump\t// in\n    tag_85:\n        /* \"@openzeppelin/contracts-upgradeable/access/OwnableUpgradeable.sol\":2506:2553  OwnableStorage storage $ = _getOwnableStorage() */\n      swap1\n      pop\n        /* \"@openzeppelin/contracts-upgradeable/access/OwnableUpgradeable.sol\":2570:2571  $ */\n      dup1\n        /* \"@openzeppelin/contracts-upgradeable/access/OwnableUpgradeable.sol\":2570:2578  $._owner */\n      0x00\n      add\n      0x00\n      swap1\n      sload\n      swap1\n      0x0100\n      exp\n      swap1\n      div\n      0xffffffffffffffffffffffffffffffffffffffff\n      and\n        /* \"@openzeppelin/contracts-upgradeable/access/OwnableUpgradeable.sol\":2563:2578  return $._owner */\n      swap2\n      pop\n      pop\n        /* \"@openzeppelin/contracts-upgradeable/access/OwnableUpgradeable.sol\":2441:2585  function owner() public view virtual returns (address) {... */\n      swap1\n      jump\t// out\n        /* \"@openzeppelin/contracts-upgradeable/proxy/utils/UUPSUpgradeable.sol\":1819:1877  string public constant UPGRADE_INTERFACE_VERSION = \"5.0.0\" */\n    tag_39:\n      mload(0x40)\n      dup1\n      0x40\n      add\n      0x40\n      mstore\n      dup1\n      0x05\n      dup2\n      mstore\n      0x20\n      add\n      0x352e302e30000000000000000000000000000000000000000000000000000000\n      dup2\n      mstore\n      pop\n      dup2\n      jump\t// out\n        /* \"Smart Contracts/24_MyUpgradableToken.sol\":556:613  function increment() public {... */\n    tag_44:\n        /* \"Smart Contracts/24_MyUpgradableToken.sol\":604:605  1 */\n      0x01\n        /* \"Smart Contracts/24_MyUpgradableToken.sol\":595:600  count */\n      0x00\n      0x00\n        /* \"Smart Contracts/24_MyUpgradableToken.sol\":595:605  count += 1 */\n      dup3\n      dup3\n      sload\n      tag_88\n      swap2\n      swap1\n      tag_89\n      jump\t// in\n    tag_88:\n      swap3\n      pop\n      pop\n      dup2\n      swap1\n      sstore\n      pop\n        /* \"Smart Contracts/24_MyUpgradableToken.sol\":556:613  function increment() public {... */\n      jump\t// out\n        /* \"@openzeppelin/contracts-upgradeable/access/OwnableUpgradeable.sol\":3405:3620  function transferOwnership(address newOwner) public virtual onlyOwner {... */\n    tag_49:\n        /* \"@openzeppelin/contracts-upgradeable/access/OwnableUpgradeable.sol\":2334:2347  _checkOwner() */\n      tag_91\n        /* \"@openzeppelin/contracts-upgradeable/access/OwnableUpgradeable.sol\":2334:2345  _checkOwner */\n      tag_64\n        /* \"@openzeppelin/contracts-upgradeable/access/OwnableUpgradeable.sol\":2334:2347  _checkOwner() */\n      jump\t// in\n    tag_91:\n        /* \"@openzeppelin/contracts-upgradeable/access/OwnableUpgradeable.sol\":3509:3510  0 */\n      0x00\n        /* \"@openzeppelin/contracts-upgradeable/access/OwnableUpgradeable.sol\":3489:3511  newOwner == address(0) */\n      0xffffffffffffffffffffffffffffffffffffffff\n      and\n        /* \"@openzeppelin/contracts-upgradeable/access/OwnableUpgradeable.sol\":3489:3497  newOwner */\n      dup2\n        /* \"@openzeppelin/contracts-upgradeable/access/OwnableUpgradeable.sol\":3489:3511  newOwner == address(0) */\n      0xffffffffffffffffffffffffffffffffffffffff\n      and\n      sub\n        /* \"@openzeppelin/contracts-upgradeable/access/OwnableUpgradeable.sol\":3485:3576  if (newOwner == address(0)) {... */\n      tag_93\n      jumpi\n        /* \"@openzeppelin/contracts-upgradeable/access/OwnableUpgradeable.sol\":3562:3563  0 */\n      0x00\n        /* \"@openzeppelin/contracts-upgradeable/access/OwnableUpgradeable.sol\":3534:3565  OwnableInvalidOwner(address(0)) */\n      mload(0x40)\n      0x1e4fbdf700000000000000000000000000000000000000000000000000000000\n      dup2\n      mstore\n      0x04\n      add\n      tag_94\n      swap2\n      swap1\n      tag_36\n      jump\t// in\n    tag_94:\n      mload(0x40)\n      dup1\n      swap2\n      sub\n      swap1\n      revert\n        /* \"@openzeppelin/contracts-upgradeable/access/OwnableUpgradeable.sol\":3485:3576  if (newOwner == address(0)) {... */\n    tag_93:\n        /* \"@openzeppelin/contracts-upgradeable/access/OwnableUpgradeable.sol\":3585:3613  _transferOwnership(newOwner) */\n      tag_95\n        /* \"@openzeppelin/contracts-upgradeable/access/OwnableUpgradeable.sol\":3604:3612  newOwner */\n      dup2\n        /* \"@openzeppelin/contracts-upgradeable/access/OwnableUpgradeable.sol\":3585:3603  _transferOwnership */\n      tag_67\n        /* \"@openzeppelin/contracts-upgradeable/access/OwnableUpgradeable.sol\":3585:3613  _transferOwnership(newOwner) */\n      jump\t// in\n    tag_95:\n        /* \"@openzeppelin/contracts-upgradeable/access/OwnableUpgradeable.sol\":3405:3620  function transferOwnership(address newOwner) public virtual onlyOwner {... */\n      pop\n      jump\t// out\n        /* \"@openzeppelin/contracts-upgradeable/proxy/utils/UUPSUpgradeable.sol\":4578:4890  function _checkProxy() internal view virtual {... */\n    tag_52:\n        /* \"@openzeppelin/contracts-upgradeable/proxy/utils/UUPSUpgradeable.sol\":4667:4673  __self */\n      immutable(\"0x4ce4dab4689da140a0c12de1a6af6b8f679594aeb723205f513e052d27f5b26f\")\n        /* \"@openzeppelin/contracts-upgradeable/proxy/utils/UUPSUpgradeable.sol\":4650:4673  address(this) == __self */\n      0xffffffffffffffffffffffffffffffffffffffff\n      and\n        /* \"@openzeppelin/contracts-upgradeable/proxy/utils/UUPSUpgradeable.sol\":4658:4662  this */\n      address\n        /* \"@openzeppelin/contracts-upgradeable/proxy/utils/UUPSUpgradeable.sol\":4650:4673  address(this) == __self */\n      0xffffffffffffffffffffffffffffffffffffffff\n      and\n      eq\n        /* \"@openzeppelin/contracts-upgradeable/proxy/utils/UUPSUpgradeable.sol\":4650:4770  address(this) == __self || // Must be called through delegatecall... */\n      dup1\n      tag_97\n      jumpi\n      pop\n        /* \"@openzeppelin/contracts-upgradeable/proxy/utils/UUPSUpgradeable.sol\":4764:4770  __self */\n      immutable(\"0x4ce4dab4689da140a0c12de1a6af6b8f679594aeb723205f513e052d27f5b26f\")\n        /* \"@openzeppelin/contracts-upgradeable/proxy/utils/UUPSUpgradeable.sol\":4728:4770  ERC1967Utils.getImplementation() != __self */\n      0xffffffffffffffffffffffffffffffffffffffff\n      and\n        /* \"@openzeppelin/contracts-upgradeable/proxy/utils/UUPSUpgradeable.sol\":4728:4760  ERC1967Utils.getImplementation() */\n      tag_98\n        /* \"@openzeppelin/contracts-upgradeable/proxy/utils/UUPSUpgradeable.sol\":4728:4758  ERC1967Utils.getImplementation */\n      tag_99\n        /* \"@openzeppelin/contracts-upgradeable/proxy/utils/UUPSUpgradeable.sol\":4728:4760  ERC1967Utils.getImplementation() */\n      jump\t// in\n    tag_98:\n        /* \"@openzeppelin/contracts-upgradeable/proxy/utils/UUPSUpgradeable.sol\":4728:4770  ERC1967Utils.getImplementation() != __self */\n      0xffffffffffffffffffffffffffffffffffffffff\n      and\n      eq\n      iszero\n        /* \"@openzeppelin/contracts-upgradeable/proxy/utils/UUPSUpgradeable.sol\":4650:4770  address(this) == __self || // Must be called through delegatecall... */\n    tag_97:\n        /* \"@openzeppelin/contracts-upgradeable/proxy/utils/UUPSUpgradeable.sol\":4633:4884  if (... */\n      iszero\n      tag_100\n      jumpi\n        /* \"@openzeppelin/contracts-upgradeable/proxy/utils/UUPSUpgradeable.sol\":4844:4873  UUPSUnauthorizedCallContext() */\n      mload(0x40)\n      0xe07c8dba00000000000000000000000000000000000000000000000000000000\n      dup2\n      mstore\n      0x04\n      add\n      mload(0x40)\n      dup1\n      swap2\n      sub\n      swap1\n      revert\n        /* \"@openzeppelin/contracts-upgradeable/proxy/utils/UUPSUpgradeable.sol\":4633:4884  if (... */\n    tag_100:\n        /* \"@openzeppelin/contracts-upgradeable/proxy/utils/UUPSUpgradeable.sol\":4578:4890  function _checkProxy() internal view virtual {... */\n      jump\t// out\n        /* \"Smart Contracts/24_MyUpgradableToken.sol\":621:737  function _authorizeUpgrade(address newImplementation)... */\n    tag_55:\n        /* \"@openzeppelin/contracts-upgradeable/access/OwnableUpgradeable.sol\":2334:2347  _checkOwner() */\n      tag_102\n        /* \"@openzeppelin/contracts-upgradeable/access/OwnableUpgradeable.sol\":2334:2345  _checkOwner */\n      tag_64\n        /* \"@openzeppelin/contracts-upgradeable/access/OwnableUpgradeable.sol\":2334:2347  _checkOwner() */\n      jump\t// in\n    tag_102:\n        /* \"Smart Contracts/24_MyUpgradableToken.sol\":621:737  function _authorizeUpgrade(address newImplementation)... */\n      pop\n      jump\t// out\n        /* \"@openzeppelin/contracts-upgradeable/proxy/utils/UUPSUpgradeable.sol\":6032:6570  function _upgradeToAndCallUUPS(address newImplementation, bytes memory data) private {... */\n    tag_57:\n        /* \"@openzeppelin/contracts-upgradeable/proxy/utils/UUPSUpgradeable.sol\":6149:6166  newImplementation */\n      dup2\n        /* \"@openzeppelin/contracts-upgradeable/proxy/utils/UUPSUpgradeable.sol\":6131:6181  IERC1822Proxiable(newImplementation).proxiableUUID */\n      0xffffffffffffffffffffffffffffffffffffffff\n      and\n      0x52d1902d\n        /* \"@openzeppelin/contracts-upgradeable/proxy/utils/UUPSUpgradeable.sol\":6131:6183  IERC1822Proxiable(newImplementation).proxiableUUID() */\n      mload(0x40)\n      dup2\n      0xffffffff\n      and\n      0xe0\n      shl\n      dup2\n      mstore\n      0x04\n      add\n      0x20\n      mload(0x40)\n      dup1\n      dup4\n      sub\n      dup2\n      dup7\n      gas\n      staticcall\n      swap3\n      pop\n      pop\n      pop\n      dup1\n      iszero\n      tag_105\n      jumpi\n      pop\n      mload(0x40)\n      returndatasize\n      not(0x1f)\n      0x1f\n      dup3\n      add\n      and\n      dup3\n      add\n      dup1\n      0x40\n      mstore\n      pop\n      dup2\n      add\n      swap1\n      tag_106\n      swap2\n      swap1\n      tag_107\n      jump\t// in\n    tag_106:\n      0x01\n    tag_105:\n        /* \"@openzeppelin/contracts-upgradeable/proxy/utils/UUPSUpgradeable.sol\":6127:6564  try IERC1822Proxiable(newImplementation).proxiableUUID() returns (bytes32 slot) {... */\n      tag_108\n      jumpi\n        /* \"@openzeppelin/contracts-upgradeable/proxy/utils/UUPSUpgradeable.sol\":6535:6552  newImplementation */\n      dup2\n        /* \"@openzeppelin/contracts-upgradeable/proxy/utils/UUPSUpgradeable.sol\":6493:6553  ERC1967Utils.ERC1967InvalidImplementation(newImplementation) */\n      mload(0x40)\n      0x4c9c8ce300000000000000000000000000000000000000000000000000000000\n      dup2\n      mstore\n      0x04\n      add\n      tag_112\n      swap2\n      swap1\n      tag_36\n      jump\t// in\n    tag_112:\n      mload(0x40)\n      dup1\n      swap2\n      sub\n      swap1\n      revert\n        /* \"@openzeppelin/contracts-upgradeable/proxy/utils/UUPSUpgradeable.sol\":6127:6564  try IERC1822Proxiable(newImplementation).proxiableUUID() returns (bytes32 slot) {... */\n    tag_108:\n        /* \"@openzeppelin/contracts/proxy/ERC1967/ERC1967Utils.sol\":811:877  0x360894a13ba1a3210667c828492db98dca3e2076cc3735a920a3ca505d382bbc */\n      0x360894a13ba1a3210667c828492db98dca3e2076cc3735a920a3ca505d382bbc\n        /* \"@openzeppelin/contracts-upgradeable/proxy/utils/UUPSUpgradeable.sol\":6233:6265  ERC1967Utils.IMPLEMENTATION_SLOT */\n      0x00\n      shl\n        /* \"@openzeppelin/contracts-upgradeable/proxy/utils/UUPSUpgradeable.sol\":6225:6229  slot */\n      dup2\n        /* \"@openzeppelin/contracts-upgradeable/proxy/utils/UUPSUpgradeable.sol\":6225:6265  slot != ERC1967Utils.IMPLEMENTATION_SLOT */\n      eq\n        /* \"@openzeppelin/contracts-upgradeable/proxy/utils/UUPSUpgradeable.sol\":6221:6341  if (slot != ERC1967Utils.IMPLEMENTATION_SLOT) {... */\n      tag_114\n      jumpi\n        /* \"@openzeppelin/contracts-upgradeable/proxy/utils/UUPSUpgradeable.sol\":6321:6325  slot */\n      dup1\n        /* \"@openzeppelin/contracts-upgradeable/proxy/utils/UUPSUpgradeable.sol\":6292:6326  UUPSUnsupportedProxiableUUID(slot) */\n      mload(0x40)\n      0xaa1d49a400000000000000000000000000000000000000000000000000000000\n      dup2\n      mstore\n      0x04\n      add\n      tag_115\n      swap2\n      swap1\n      tag_25\n      jump\t// in\n    tag_115:\n      mload(0x40)\n      dup1\n      swap2\n      sub\n      swap1\n      revert\n        /* \"@openzeppelin/contracts-upgradeable/proxy/utils/UUPSUpgradeable.sol\":6221:6341  if (slot != ERC1967Utils.IMPLEMENTATION_SLOT) {... */\n    tag_114:\n        /* \"@openzeppelin/contracts-upgradeable/proxy/utils/UUPSUpgradeable.sol\":6354:6408  ERC1967Utils.upgradeToAndCall(newImplementation, data) */\n      tag_116\n        /* \"@openzeppelin/contracts-upgradeable/proxy/utils/UUPSUpgradeable.sol\":6384:6401  newImplementation */\n      dup4\n        /* \"@openzeppelin/contracts-upgradeable/proxy/utils/UUPSUpgradeable.sol\":6403:6407  data */\n      dup4\n        /* \"@openzeppelin/contracts-upgradeable/proxy/utils/UUPSUpgradeable.sol\":6354:6383  ERC1967Utils.upgradeToAndCall */\n      tag_117\n        /* \"@openzeppelin/contracts-upgradeable/proxy/utils/UUPSUpgradeable.sol\":6354:6408  ERC1967Utils.upgradeToAndCall(newImplementation, data) */\n      jump\t// in\n    tag_116:\n        /* \"@openzeppelin/contracts-upgradeable/proxy/utils/UUPSUpgradeable.sol\":6184:6419  returns (bytes32 slot) {... */\n      pop\n        /* \"@openzeppelin/contracts-upgradeable/proxy/utils/UUPSUpgradeable.sol\":6032:6570  function _upgradeToAndCallUUPS(address newImplementation, bytes memory data) private {... */\n      pop\n      pop\n      jump\t// out\n        /* \"@openzeppelin/contracts-upgradeable/proxy/utils/UUPSUpgradeable.sol\":5007:5220  function _checkNotDelegated() internal view virtual {... */\n    tag_60:\n        /* \"@openzeppelin/contracts-upgradeable/proxy/utils/UUPSUpgradeable.sol\":5090:5096  __self */\n      immutable(\"0x4ce4dab4689da140a0c12de1a6af6b8f679594aeb723205f513e052d27f5b26f\")\n        /* \"@openzeppelin/contracts-upgradeable/proxy/utils/UUPSUpgradeable.sol\":5073:5096  address(this) != __self */\n      0xffffffffffffffffffffffffffffffffffffffff\n      and\n        /* \"@openzeppelin/contracts-upgradeable/proxy/utils/UUPSUpgradeable.sol\":5081:5085  this */\n      address\n        /* \"@openzeppelin/contracts-upgradeable/proxy/utils/UUPSUpgradeable.sol\":5073:5096  address(this) != __self */\n      0xffffffffffffffffffffffffffffffffffffffff\n      and\n      eq\n        /* \"@openzeppelin/contracts-upgradeable/proxy/utils/UUPSUpgradeable.sol\":5069:5214  if (address(this) != __self) {... */\n      tag_119\n      jumpi\n        /* \"@openzeppelin/contracts-upgradeable/proxy/utils/UUPSUpgradeable.sol\":5174:5203  UUPSUnauthorizedCallContext() */\n      mload(0x40)\n      0xe07c8dba00000000000000000000000000000000000000000000000000000000\n      dup2\n      mstore\n      0x04\n      add\n      mload(0x40)\n      dup1\n      swap2\n      sub\n      swap1\n      revert\n        /* \"@openzeppelin/contracts-upgradeable/proxy/utils/UUPSUpgradeable.sol\":5069:5214  if (address(this) != __self) {... */\n    tag_119:\n        /* \"@openzeppelin/contracts-upgradeable/proxy/utils/UUPSUpgradeable.sol\":5007:5220  function _checkNotDelegated() internal view virtual {... */\n      jump\t// out\n        /* \"@openzeppelin/contracts-upgradeable/access/OwnableUpgradeable.sol\":2658:2820  function _checkOwner() internal view virtual {... */\n    tag_64:\n        /* \"@openzeppelin/contracts-upgradeable/access/OwnableUpgradeable.sol\":2728:2740  _msgSender() */\n      tag_121\n        /* \"@openzeppelin/contracts-upgradeable/access/OwnableUpgradeable.sol\":2728:2738  _msgSender */\n      tag_122\n        /* \"@openzeppelin/contracts-upgradeable/access/OwnableUpgradeable.sol\":2728:2740  _msgSender() */\n      jump\t// in\n    tag_121:\n        /* \"@openzeppelin/contracts-upgradeable/access/OwnableUpgradeable.sol\":2717:2740  owner() != _msgSender() */\n      0xffffffffffffffffffffffffffffffffffffffff\n      and\n        /* \"@openzeppelin/contracts-upgradeable/access/OwnableUpgradeable.sol\":2717:2724  owner() */\n      tag_123\n        /* \"@openzeppelin/contracts-upgradeable/access/OwnableUpgradeable.sol\":2717:2722  owner */\n      tag_34\n        /* \"@openzeppelin/contracts-upgradeable/access/OwnableUpgradeable.sol\":2717:2724  owner() */\n      jump\t// in\n    tag_123:\n        /* \"@openzeppelin/contracts-upgradeable/access/OwnableUpgradeable.sol\":2717:2740  owner() != _msgSender() */\n      0xffffffffffffffffffffffffffffffffffffffff\n      and\n      eq\n        /* \"@openzeppelin/contracts-upgradeable/access/OwnableUpgradeable.sol\":2713:2814  if (owner() != _msgSender()) {... */\n      tag_124\n      jumpi\n        /* \"@openzeppelin/contracts-upgradeable/access/OwnableUpgradeable.sol\":2790:2802  _msgSender() */\n      tag_125\n        /* \"@openzeppelin/contracts-upgradeable/access/OwnableUpgradeable.sol\":2790:2800  _msgSender */\n      tag_122\n        /* \"@openzeppelin/contracts-upgradeable/access/OwnableUpgradeable.sol\":2790:2802  _msgSender() */\n      jump\t// in\n    tag_125:\n        /* \"@openzeppelin/contracts-upgradeable/access/OwnableUpgradeable.sol\":2763:2803  OwnableUnauthorizedAccount(_msgSender()) */\n      mload(0x40)\n      0x118cdaa700000000000000000000000000000000000000000000000000000000\n      dup2\n      mstore\n      0x04\n      add\n      tag_126\n      swap2\n      swap1\n      tag_36\n      jump\t// in\n    tag_126:\n      mload(0x40)\n      dup1\n      swap2\n      sub\n      swap1\n      revert\n        /* \"@openzeppelin/contracts-upgradeable/access/OwnableUpgradeable.sol\":2713:2814  if (owner() != _msgSender()) {... */\n    tag_124:\n        /* \"@openzeppelin/contracts-upgradeable/access/OwnableUpgradeable.sol\":2658:2820  function _checkOwner() internal view virtual {... */\n      jump\t// out\n        /* \"@openzeppelin/contracts-upgradeable/access/OwnableUpgradeable.sol\":3774:4022  function _transferOwnership(address newOwner) internal virtual {... */\n    tag_67:\n        /* \"@openzeppelin/contracts-upgradeable/access/OwnableUpgradeable.sol\":3847:3871  OwnableStorage storage $ */\n      0x00\n        /* \"@openzeppelin/contracts-upgradeable/access/OwnableUpgradeable.sol\":3874:3894  _getOwnableStorage() */\n      tag_128\n        /* \"@openzeppelin/contracts-upgradeable/access/OwnableUpgradeable.sol\":3874:3892  _getOwnableStorage */\n      tag_86\n        /* \"@openzeppelin/contracts-upgradeable/access/OwnableUpgradeable.sol\":3874:3894  _getOwnableStorage() */\n      jump\t// in\n    tag_128:\n        /* \"@openzeppelin/contracts-upgradeable/access/OwnableUpgradeable.sol\":3847:3894  OwnableStorage storage $ = _getOwnableStorage() */\n      swap1\n      pop\n        /* \"@openzeppelin/contracts-upgradeable/access/OwnableUpgradeable.sol\":3904:3920  address oldOwner */\n      0x00\n        /* \"@openzeppelin/contracts-upgradeable/access/OwnableUpgradeable.sol\":3923:3924  $ */\n      dup2\n        /* \"@openzeppelin/contracts-upgradeable/access/OwnableUpgradeable.sol\":3923:3931  $._owner */\n      0x00\n      add\n      0x00\n      swap1\n      sload\n      swap1\n      0x0100\n      exp\n      swap1\n      div\n      0xffffffffffffffffffffffffffffffffffffffff\n      and\n        /* \"@openzeppelin/contracts-upgradeable/access/OwnableUpgradeable.sol\":3904:3931  address oldOwner = $._owner */\n      swap1\n      pop\n        /* \"@openzeppelin/contracts-upgradeable/access/OwnableUpgradeable.sol\":3952:3960  newOwner */\n      dup3\n        /* \"@openzeppelin/contracts-upgradeable/access/OwnableUpgradeable.sol\":3941:3942  $ */\n      dup3\n        /* \"@openzeppelin/contracts-upgradeable/access/OwnableUpgradeable.sol\":3941:3949  $._owner */\n      0x00\n      add\n      0x00\n        /* \"@openzeppelin/contracts-upgradeable/access/OwnableUpgradeable.sol\":3941:3960  $._owner = newOwner */\n      0x0100\n      exp\n      dup2\n      sload\n      dup2\n      0xffffffffffffffffffffffffffffffffffffffff\n      mul\n      not\n      and\n      swap1\n      dup4\n      0xffffffffffffffffffffffffffffffffffffffff\n      and\n      mul\n      or\n      swap1\n      sstore\n      pop\n        /* \"@openzeppelin/contracts-upgradeable/access/OwnableUpgradeable.sol\":4006:4014  newOwner */\n      dup3\n        /* \"@openzeppelin/contracts-upgradeable/access/OwnableUpgradeable.sol\":3975:4015  OwnershipTransferred(oldOwner, newOwner) */\n      0xffffffffffffffffffffffffffffffffffffffff\n      and\n        /* \"@openzeppelin/contracts-upgradeable/access/OwnableUpgradeable.sol\":3996:4004  oldOwner */\n      dup2\n        /* \"@openzeppelin/contracts-upgradeable/access/OwnableUpgradeable.sol\":3975:4015  OwnershipTransferred(oldOwner, newOwner) */\n      0xffffffffffffffffffffffffffffffffffffffff\n      and\n      0x8be0079c531659141344cd1fd0a4f28419497f9722a3daafe3b4186f6b6457e0\n      mload(0x40)\n      mload(0x40)\n      dup1\n      swap2\n      sub\n      swap1\n      log3\n        /* \"@openzeppelin/contracts-upgradeable/access/OwnableUpgradeable.sol\":3837:4022  {... */\n      pop\n      pop\n        /* \"@openzeppelin/contracts-upgradeable/access/OwnableUpgradeable.sol\":3774:4022  function _transferOwnership(address newOwner) internal virtual {... */\n      pop\n      jump\t// out\n        /* \"@openzeppelin/contracts-upgradeable/proxy/utils/Initializable.sol\":9071:9276  function _getInitializableStorage() private pure returns (InitializableStorage storage $) {... */\n    tag_70:\n        /* \"@openzeppelin/contracts-upgradeable/proxy/utils/Initializable.sol\":9129:9159  InitializableStorage storage $ */\n      0x00\n        /* \"@openzeppelin/contracts-upgradeable/proxy/utils/Initializable.sol\":9171:9183  bytes32 slot */\n      0x00\n        /* \"@openzeppelin/contracts-upgradeable/proxy/utils/Initializable.sol\":9186:9213  _initializableStorageSlot() */\n      tag_130\n        /* \"@openzeppelin/contracts-upgradeable/proxy/utils/Initializable.sol\":9186:9211  _initializableStorageSlot */\n      tag_131\n        /* \"@openzeppelin/contracts-upgradeable/proxy/utils/Initializable.sol\":9186:9213  _initializableStorageSlot() */\n      jump\t// in\n    tag_130:\n        /* \"@openzeppelin/contracts-upgradeable/proxy/utils/Initializable.sol\":9171:9213  bytes32 slot = _initializableStorageSlot() */\n      swap1\n      pop\n        /* \"@openzeppelin/contracts-upgradeable/proxy/utils/Initializable.sol\":9256:9260  slot */\n      dup1\n        /* \"@openzeppelin/contracts-upgradeable/proxy/utils/Initializable.sol\":9246:9260  $.slot := slot */\n      swap2\n      pop\n        /* \"@openzeppelin/contracts-upgradeable/proxy/utils/Initializable.sol\":9232:9270  {... */\n      pop\n        /* \"@openzeppelin/contracts-upgradeable/proxy/utils/Initializable.sol\":9071:9276  function _getInitializableStorage() private pure returns (InitializableStorage storage $) {... */\n      swap1\n      jump\t// out\n        /* \"@openzeppelin/contracts-upgradeable/access/OwnableUpgradeable.sol\":1847:1974  function __Ownable_init(address initialOwner) internal onlyInitializing {... */\n    tag_78:\n        /* \"@openzeppelin/contracts-upgradeable/proxy/utils/Initializable.sol\":6929:6949  _checkInitializing() */\n      tag_133\n        /* \"@openzeppelin/contracts-upgradeable/proxy/utils/Initializable.sol\":6929:6947  _checkInitializing */\n      tag_134\n        /* \"@openzeppelin/contracts-upgradeable/proxy/utils/Initializable.sol\":6929:6949  _checkInitializing() */\n      jump\t// in\n    tag_133:\n        /* \"@openzeppelin/contracts-upgradeable/access/OwnableUpgradeable.sol\":1929:1967  __Ownable_init_unchained(initialOwner) */\n      tag_136\n        /* \"@openzeppelin/contracts-upgradeable/access/OwnableUpgradeable.sol\":1954:1966  initialOwner */\n      dup2\n        /* \"@openzeppelin/contracts-upgradeable/access/OwnableUpgradeable.sol\":1929:1953  __Ownable_init_unchained */\n      tag_137\n        /* \"@openzeppelin/contracts-upgradeable/access/OwnableUpgradeable.sol\":1929:1967  __Ownable_init_unchained(initialOwner) */\n      jump\t// in\n    tag_136:\n        /* \"@openzeppelin/contracts-upgradeable/access/OwnableUpgradeable.sol\":1847:1974  function __Ownable_init(address initialOwner) internal onlyInitializing {... */\n      pop\n      jump\t// out\n        /* \"@openzeppelin/contracts-upgradeable/proxy/utils/UUPSUpgradeable.sol\":2970:3037  function __UUPSUpgradeable_init() internal onlyInitializing {... */\n    tag_80:\n        /* \"@openzeppelin/contracts-upgradeable/proxy/utils/Initializable.sol\":6929:6949  _checkInitializing() */\n      tag_139\n        /* \"@openzeppelin/contracts-upgradeable/proxy/utils/Initializable.sol\":6929:6947  _checkInitializing */\n      tag_134\n        /* \"@openzeppelin/contracts-upgradeable/proxy/utils/Initializable.sol\":6929:6949  _checkInitializing() */\n      jump\t// in\n    tag_139:\n        /* \"@openzeppelin/contracts-upgradeable/proxy/utils/UUPSUpgradeable.sol\":2970:3037  function __UUPSUpgradeable_init() internal onlyInitializing {... */\n      jump\t// out\n        /* \"@openzeppelin/contracts-upgradeable/access/OwnableUpgradeable.sol\":1192:1351  function _getOwnableStorage() private pure returns (OwnableStorage storage $) {... */\n    tag_86:\n        /* \"@openzeppelin/contracts-upgradeable/access/OwnableUpgradeable.sol\":1244:1268  OwnableStorage storage $ */\n      0x00\n        /* \"@openzeppelin/contracts-upgradeable/access/OwnableUpgradeable.sol\":1313:1335  OwnableStorageLocation */\n      0x9016d09d72d40fdae2fd8ceac6b6234c7706214fd39c1cd1e609a0528c199300\n        /* \"@openzeppelin/contracts-upgradeable/access/OwnableUpgradeable.sol\":1303:1335  $.slot := OwnableStorageLocation */\n      swap1\n      pop\n        /* \"@openzeppelin/contracts-upgradeable/access/OwnableUpgradeable.sol\":1192:1351  function _getOwnableStorage() private pure returns (OwnableStorage storage $) {... */\n      swap1\n      jump\t// out\n        /* \"@openzeppelin/contracts/proxy/ERC1967/ERC1967Utils.sol\":1441:1579  function getImplementation() internal view returns (address) {... */\n    tag_99:\n        /* \"@openzeppelin/contracts/proxy/ERC1967/ERC1967Utils.sol\":1493:1500  address */\n      0x00\n        /* \"@openzeppelin/contracts/proxy/ERC1967/ERC1967Utils.sol\":1519:1566  StorageSlot.getAddressSlot(IMPLEMENTATION_SLOT) */\n      tag_143\n        /* \"@openzeppelin/contracts/proxy/ERC1967/ERC1967Utils.sol\":811:877  0x360894a13ba1a3210667c828492db98dca3e2076cc3735a920a3ca505d382bbc */\n      0x360894a13ba1a3210667c828492db98dca3e2076cc3735a920a3ca505d382bbc\n        /* \"@openzeppelin/contracts/proxy/ERC1967/ERC1967Utils.sol\":1546:1565  IMPLEMENTATION_SLOT */\n      0x00\n      shl\n        /* \"@openzeppelin/contracts/proxy/ERC1967/ERC1967Utils.sol\":1519:1545  StorageSlot.getAddressSlot */\n      tag_144\n        /* \"@openzeppelin/contracts/proxy/ERC1967/ERC1967Utils.sol\":1519:1566  StorageSlot.getAddressSlot(IMPLEMENTATION_SLOT) */\n      jump\t// in\n    tag_143:\n        /* \"@openzeppelin/contracts/proxy/ERC1967/ERC1967Utils.sol\":1519:1572  StorageSlot.getAddressSlot(IMPLEMENTATION_SLOT).value */\n      0x00\n      add\n      0x00\n      swap1\n      sload\n      swap1\n      0x0100\n      exp\n      swap1\n      div\n      0xffffffffffffffffffffffffffffffffffffffff\n      and\n        /* \"@openzeppelin/contracts/proxy/ERC1967/ERC1967Utils.sol\":1512:1572  return StorageSlot.getAddressSlot(IMPLEMENTATION_SLOT).value */\n      swap1\n      pop\n        /* \"@openzeppelin/contracts/proxy/ERC1967/ERC1967Utils.sol\":1441:1579  function getImplementation() internal view returns (address) {... */\n      swap1\n      jump\t// out\n        /* \"@openzeppelin/contracts/proxy/ERC1967/ERC1967Utils.sol\":2264:2608  function upgradeToAndCall(address newImplementation, bytes memory data) internal {... */\n    tag_117:\n        /* \"@openzeppelin/contracts/proxy/ERC1967/ERC1967Utils.sol\":2355:2392  _setImplementation(newImplementation) */\n      tag_146\n        /* \"@openzeppelin/contracts/proxy/ERC1967/ERC1967Utils.sol\":2374:2391  newImplementation */\n      dup3\n        /* \"@openzeppelin/contracts/proxy/ERC1967/ERC1967Utils.sol\":2355:2373  _setImplementation */\n      tag_147\n        /* \"@openzeppelin/contracts/proxy/ERC1967/ERC1967Utils.sol\":2355:2392  _setImplementation(newImplementation) */\n      jump\t// in\n    tag_146:\n        /* \"@openzeppelin/contracts/proxy/ERC1967/ERC1967Utils.sol\":2425:2442  newImplementation */\n      dup2\n        /* \"@openzeppelin/contracts/proxy/ERC1967/ERC1967Utils.sol\":2407:2443  IERC1967.Upgraded(newImplementation) */\n      0xffffffffffffffffffffffffffffffffffffffff\n      and\n      0xbc7cd75a20ee27fd9adebab32041f755214dbc6bffa90cc0225b39da2e5c2d3b\n      mload(0x40)\n      mload(0x40)\n      dup1\n      swap2\n      sub\n      swap1\n      log2\n        /* \"@openzeppelin/contracts/proxy/ERC1967/ERC1967Utils.sol\":2472:2473  0 */\n      0x00\n        /* \"@openzeppelin/contracts/proxy/ERC1967/ERC1967Utils.sol\":2458:2462  data */\n      dup2\n        /* \"@openzeppelin/contracts/proxy/ERC1967/ERC1967Utils.sol\":2458:2469  data.length */\n      mload\n        /* \"@openzeppelin/contracts/proxy/ERC1967/ERC1967Utils.sol\":2458:2473  data.length > 0 */\n      gt\n        /* \"@openzeppelin/contracts/proxy/ERC1967/ERC1967Utils.sol\":2454:2602  if (data.length > 0) {... */\n      iszero\n      tag_148\n      jumpi\n        /* \"@openzeppelin/contracts/proxy/ERC1967/ERC1967Utils.sol\":2489:2542  Address.functionDelegateCall(newImplementation, data) */\n      tag_149\n        /* \"@openzeppelin/contracts/proxy/ERC1967/ERC1967Utils.sol\":2518:2535  newImplementation */\n      dup3\n        /* \"@openzeppelin/contracts/proxy/ERC1967/ERC1967Utils.sol\":2537:2541  data */\n      dup3\n        /* \"@openzeppelin/contracts/proxy/ERC1967/ERC1967Utils.sol\":2489:2517  Address.functionDelegateCall */\n      tag_150\n        /* \"@openzeppelin/contracts/proxy/ERC1967/ERC1967Utils.sol\":2489:2542  Address.functionDelegateCall(newImplementation, data) */\n      jump\t// in\n    tag_149:\n      pop\n        /* \"@openzeppelin/contracts/proxy/ERC1967/ERC1967Utils.sol\":2454:2602  if (data.length > 0) {... */\n      jump(tag_151)\n    tag_148:\n        /* \"@openzeppelin/contracts/proxy/ERC1967/ERC1967Utils.sol\":2573:2591  _checkNonPayable() */\n      tag_152\n        /* \"@openzeppelin/contracts/proxy/ERC1967/ERC1967Utils.sol\":2573:2589  _checkNonPayable */\n      tag_153\n        /* \"@openzeppelin/contracts/proxy/ERC1967/ERC1967Utils.sol\":2573:2591  _checkNonPayable() */\n      jump\t// in\n    tag_152:\n        /* \"@openzeppelin/contracts/proxy/ERC1967/ERC1967Utils.sol\":2454:2602  if (data.length > 0) {... */\n    tag_151:\n        /* \"@openzeppelin/contracts/proxy/ERC1967/ERC1967Utils.sol\":2264:2608  function upgradeToAndCall(address newImplementation, bytes memory data) internal {... */\n      pop\n      pop\n      jump\t// out\n        /* \"@openzeppelin/contracts-upgradeable/utils/ContextUpgradeable.sol\":887:983  function _msgSender() internal view virtual returns (address) {... */\n    tag_122:\n        /* \"@openzeppelin/contracts-upgradeable/utils/ContextUpgradeable.sol\":940:947  address */\n      0x00\n        /* \"@openzeppelin/contracts-upgradeable/utils/ContextUpgradeable.sol\":966:976  msg.sender */\n      caller\n        /* \"@openzeppelin/contracts-upgradeable/utils/ContextUpgradeable.sol\":959:976  return msg.sender */\n      swap1\n      pop\n        /* \"@openzeppelin/contracts-upgradeable/utils/ContextUpgradeable.sol\":887:983  function _msgSender() internal view virtual returns (address) {... */\n      swap1\n      jump\t// out\n        /* \"@openzeppelin/contracts-upgradeable/proxy/utils/Initializable.sol\":8819:8941  function _initializableStorageSlot() internal pure virtual returns (bytes32) {... */\n    tag_131:\n        /* \"@openzeppelin/contracts-upgradeable/proxy/utils/Initializable.sol\":8887:8894  bytes32 */\n      0x00\n        /* \"@openzeppelin/contracts-upgradeable/proxy/utils/Initializable.sol\":3147:3213  0xf0c57e16840df040f15088dc2f81fe391c3923bec73e23a9662efc9c229c6a00 */\n      0xf0c57e16840df040f15088dc2f81fe391c3923bec73e23a9662efc9c229c6a00\n        /* \"@openzeppelin/contracts-upgradeable/proxy/utils/Initializable.sol\":8913:8934  INITIALIZABLE_STORAGE */\n      0x00\n      shl\n        /* \"@openzeppelin/contracts-upgradeable/proxy/utils/Initializable.sol\":8906:8934  return INITIALIZABLE_STORAGE */\n      swap1\n      pop\n        /* \"@openzeppelin/contracts-upgradeable/proxy/utils/Initializable.sol\":8819:8941  function _initializableStorageSlot() internal pure virtual returns (bytes32) {... */\n      swap1\n      jump\t// out\n        /* \"@openzeppelin/contracts-upgradeable/proxy/utils/Initializable.sol\":7082:7223  function _checkInitializing() internal view virtual {... */\n    tag_134:\n        /* \"@openzeppelin/contracts-upgradeable/proxy/utils/Initializable.sol\":7149:7166  _isInitializing() */\n      tag_157\n        /* \"@openzeppelin/contracts-upgradeable/proxy/utils/Initializable.sol\":7149:7164  _isInitializing */\n      tag_158\n        /* \"@openzeppelin/contracts-upgradeable/proxy/utils/Initializable.sol\":7149:7166  _isInitializing() */\n      jump\t// in\n    tag_157:\n        /* \"@openzeppelin/contracts-upgradeable/proxy/utils/Initializable.sol\":7144:7217  if (!_isInitializing()) {... */\n      tag_159\n      jumpi\n        /* \"@openzeppelin/contracts-upgradeable/proxy/utils/Initializable.sol\":7189:7206  NotInitializing() */\n      mload(0x40)\n      0xd7e6bcf800000000000000000000000000000000000000000000000000000000\n      dup2\n      mstore\n      0x04\n      add\n      mload(0x40)\n      dup1\n      swap2\n      sub\n      swap1\n      revert\n        /* \"@openzeppelin/contracts-upgradeable/proxy/utils/Initializable.sol\":7144:7217  if (!_isInitializing()) {... */\n    tag_159:\n        /* \"@openzeppelin/contracts-upgradeable/proxy/utils/Initializable.sol\":7082:7223  function _checkInitializing() internal view virtual {... */\n      jump\t// out\n        /* \"@openzeppelin/contracts-upgradeable/access/OwnableUpgradeable.sol\":1980:2215  function __Ownable_init_unchained(address initialOwner) internal onlyInitializing {... */\n    tag_137:\n        /* \"@openzeppelin/contracts-upgradeable/proxy/utils/Initializable.sol\":6929:6949  _checkInitializing() */\n      tag_161\n        /* \"@openzeppelin/contracts-upgradeable/proxy/utils/Initializable.sol\":6929:6947  _checkInitializing */\n      tag_134\n        /* \"@openzeppelin/contracts-upgradeable/proxy/utils/Initializable.sol\":6929:6949  _checkInitializing() */\n      jump\t// in\n    tag_161:\n        /* \"@openzeppelin/contracts-upgradeable/access/OwnableUpgradeable.sol\":2100:2101  0 */\n      0x00\n        /* \"@openzeppelin/contracts-upgradeable/access/OwnableUpgradeable.sol\":2076:2102  initialOwner == address(0) */\n      0xffffffffffffffffffffffffffffffffffffffff\n      and\n        /* \"@openzeppelin/contracts-upgradeable/access/OwnableUpgradeable.sol\":2076:2088  initialOwner */\n      dup2\n        /* \"@openzeppelin/contracts-upgradeable/access/OwnableUpgradeable.sol\":2076:2102  initialOwner == address(0) */\n      0xffffffffffffffffffffffffffffffffffffffff\n      and\n      sub\n        /* \"@openzeppelin/contracts-upgradeable/access/OwnableUpgradeable.sol\":2072:2167  if (initialOwner == address(0)) {... */\n      tag_163\n      jumpi\n        /* \"@openzeppelin/contracts-upgradeable/access/OwnableUpgradeable.sol\":2153:2154  0 */\n      0x00\n        /* \"@openzeppelin/contracts-upgradeable/access/OwnableUpgradeable.sol\":2125:2156  OwnableInvalidOwner(address(0)) */\n      mload(0x40)\n      0x1e4fbdf700000000000000000000000000000000000000000000000000000000\n      dup2\n      mstore\n      0x04\n      add\n      tag_164\n      swap2\n      swap1\n      tag_36\n      jump\t// in\n    tag_164:\n      mload(0x40)\n      dup1\n      swap2\n      sub\n      swap1\n      revert\n        /* \"@openzeppelin/contracts-upgradeable/access/OwnableUpgradeable.sol\":2072:2167  if (initialOwner == address(0)) {... */\n    tag_163:\n        /* \"@openzeppelin/contracts-upgradeable/access/OwnableUpgradeable.sol\":2176:2208  _transferOwnership(initialOwner) */\n      tag_165\n        /* \"@openzeppelin/contracts-upgradeable/access/OwnableUpgradeable.sol\":2195:2207  initialOwner */\n      dup2\n        /* \"@openzeppelin/contracts-upgradeable/access/OwnableUpgradeable.sol\":2176:2194  _transferOwnership */\n      tag_67\n        /* \"@openzeppelin/contracts-upgradeable/access/OwnableUpgradeable.sol\":2176:2208  _transferOwnership(initialOwner) */\n      jump\t// in\n    tag_165:\n        /* \"@openzeppelin/contracts-upgradeable/access/OwnableUpgradeable.sol\":1980:2215  function __Ownable_init_unchained(address initialOwner) internal onlyInitializing {... */\n      pop\n      jump\t// out\n        /* \"@openzeppelin/contracts/utils/StorageSlot.sol\":1899:2062  function getAddressSlot(bytes32 slot) internal pure returns (AddressSlot storage r) {... */\n    tag_144:\n        /* \"@openzeppelin/contracts/utils/StorageSlot.sol\":1960:1981  AddressSlot storage r */\n      0x00\n        /* \"@openzeppelin/contracts/utils/StorageSlot.sol\":2042:2046  slot */\n      dup2\n        /* \"@openzeppelin/contracts/utils/StorageSlot.sol\":2032:2046  r.slot := slot */\n      swap1\n      pop\n        /* \"@openzeppelin/contracts/utils/StorageSlot.sol\":1899:2062  function getAddressSlot(bytes32 slot) internal pure returns (AddressSlot storage r) {... */\n      swap2\n      swap1\n      pop\n      jump\t// out\n        /* \"@openzeppelin/contracts/proxy/ERC1967/ERC1967Utils.sol\":1671:1952  function _setImplementation(address newImplementation) private {... */\n    tag_147:\n        /* \"@openzeppelin/contracts/proxy/ERC1967/ERC1967Utils.sol\":1781:1782  0 */\n      0x00\n        /* \"@openzeppelin/contracts/proxy/ERC1967/ERC1967Utils.sol\":1748:1765  newImplementation */\n      dup2\n        /* \"@openzeppelin/contracts/proxy/ERC1967/ERC1967Utils.sol\":1748:1777  newImplementation.code.length */\n      0xffffffffffffffffffffffffffffffffffffffff\n      and\n      extcodesize\n        /* \"@openzeppelin/contracts/proxy/ERC1967/ERC1967Utils.sol\":1748:1782  newImplementation.code.length == 0 */\n      sub\n        /* \"@openzeppelin/contracts/proxy/ERC1967/ERC1967Utils.sol\":1744:1863  if (newImplementation.code.length == 0) {... */\n      tag_168\n      jumpi\n        /* \"@openzeppelin/contracts/proxy/ERC1967/ERC1967Utils.sol\":1834:1851  newImplementation */\n      dup1\n        /* \"@openzeppelin/contracts/proxy/ERC1967/ERC1967Utils.sol\":1805:1852  ERC1967InvalidImplementation(newImplementation) */\n      mload(0x40)\n      0x4c9c8ce300000000000000000000000000000000000000000000000000000000\n      dup2\n      mstore\n      0x04\n      add\n      tag_169\n      swap2\n      swap1\n      tag_36\n      jump\t// in\n    tag_169:\n      mload(0x40)\n      dup1\n      swap2\n      sub\n      swap1\n      revert\n        /* \"@openzeppelin/contracts/proxy/ERC1967/ERC1967Utils.sol\":1744:1863  if (newImplementation.code.length == 0) {... */\n    tag_168:\n        /* \"@openzeppelin/contracts/proxy/ERC1967/ERC1967Utils.sol\":1928:1945  newImplementation */\n      dup1\n        /* \"@openzeppelin/contracts/proxy/ERC1967/ERC1967Utils.sol\":1872:1919  StorageSlot.getAddressSlot(IMPLEMENTATION_SLOT) */\n      tag_170\n        /* \"@openzeppelin/contracts/proxy/ERC1967/ERC1967Utils.sol\":811:877  0x360894a13ba1a3210667c828492db98dca3e2076cc3735a920a3ca505d382bbc */\n      0x360894a13ba1a3210667c828492db98dca3e2076cc3735a920a3ca505d382bbc\n        /* \"@openzeppelin/contracts/proxy/ERC1967/ERC1967Utils.sol\":1899:1918  IMPLEMENTATION_SLOT */\n      0x00\n      shl\n        /* \"@openzeppelin/contracts/proxy/ERC1967/ERC1967Utils.sol\":1872:1898  StorageSlot.getAddressSlot */\n      tag_144\n        /* \"@openzeppelin/contracts/proxy/ERC1967/ERC1967Utils.sol\":1872:1919  StorageSlot.getAddressSlot(IMPLEMENTATION_SLOT) */\n      jump\t// in\n    tag_170:\n        /* \"@openzeppelin/contracts/proxy/ERC1967/ERC1967Utils.sol\":1872:1925  StorageSlot.getAddressSlot(IMPLEMENTATION_SLOT).value */\n      0x00\n      add\n      0x00\n        /* \"@openzeppelin/contracts/proxy/ERC1967/ERC1967Utils.sol\":1872:1945  StorageSlot.getAddressSlot(IMPLEMENTATION_SLOT).value = newImplementation */\n      0x0100\n      exp\n      dup2\n      sload\n      dup2\n      0xffffffffffffffffffffffffffffffffffffffff\n      mul\n      not\n      and\n      swap1\n      dup4\n      0xffffffffffffffffffffffffffffffffffffffff\n      and\n      mul\n      or\n      swap1\n      sstore\n      pop\n        /* \"@openzeppelin/contracts/proxy/ERC1967/ERC1967Utils.sol\":1671:1952  function _setImplementation(address newImplementation) private {... */\n      pop\n      jump\t// out\n        /* \"@openzeppelin/contracts/utils/Address.sol\":3916:4169  function functionDelegateCall(address target, bytes memory data) internal returns (bytes memory) {... */\n    tag_150:\n        /* \"@openzeppelin/contracts/utils/Address.sol\":3999:4011  bytes memory */\n      0x60\n        /* \"@openzeppelin/contracts/utils/Address.sol\":4024:4036  bool success */\n      0x00\n        /* \"@openzeppelin/contracts/utils/Address.sol\":4038:4061  bytes memory returndata */\n      0x00\n        /* \"@openzeppelin/contracts/utils/Address.sol\":4065:4071  target */\n      dup5\n        /* \"@openzeppelin/contracts/utils/Address.sol\":4065:4084  target.delegatecall */\n      0xffffffffffffffffffffffffffffffffffffffff\n      and\n        /* \"@openzeppelin/contracts/utils/Address.sol\":4085:4089  data */\n      dup5\n        /* \"@openzeppelin/contracts/utils/Address.sol\":4065:4090  target.delegatecall(data) */\n      mload(0x40)\n      tag_172\n      swap2\n      swap1\n      tag_173\n      jump\t// in\n    tag_172:\n      0x00\n      mload(0x40)\n      dup1\n      dup4\n      sub\n      dup2\n      dup6\n      gas\n      delegatecall\n      swap2\n      pop\n      pop\n      returndatasize\n      dup1\n      0x00\n      dup2\n      eq\n      tag_176\n      jumpi\n      mload(0x40)\n      swap2\n      pop\n      and(add(returndatasize, 0x3f), not(0x1f))\n      dup3\n      add\n      0x40\n      mstore\n      returndatasize\n      dup3\n      mstore\n      returndatasize\n      0x00\n      0x20\n      dup5\n      add\n      returndatacopy\n      jump(tag_175)\n    tag_176:\n      0x60\n      swap2\n      pop\n    tag_175:\n      pop\n        /* \"@openzeppelin/contracts/utils/Address.sol\":4023:4090  (bool success, bytes memory returndata) = target.delegatecall(data) */\n      swap2\n      pop\n      swap2\n      pop\n        /* \"@openzeppelin/contracts/utils/Address.sol\":4107:4162  verifyCallResultFromTarget(target, success, returndata) */\n      tag_177\n        /* \"@openzeppelin/contracts/utils/Address.sol\":4134:4140  target */\n      dup6\n        /* \"@openzeppelin/contracts/utils/Address.sol\":4142:4149  success */\n      dup4\n        /* \"@openzeppelin/contracts/utils/Address.sol\":4151:4161  returndata */\n      dup4\n        /* \"@openzeppelin/contracts/utils/Address.sol\":4107:4133  verifyCallResultFromTarget */\n      tag_178\n        /* \"@openzeppelin/contracts/utils/Address.sol\":4107:4162  verifyCallResultFromTarget(target, success, returndata) */\n      jump\t// in\n    tag_177:\n        /* \"@openzeppelin/contracts/utils/Address.sol\":4100:4162  return verifyCallResultFromTarget(target, success, returndata) */\n      swap3\n      pop\n      pop\n      pop\n        /* \"@openzeppelin/contracts/utils/Address.sol\":3916:4169  function functionDelegateCall(address target, bytes memory data) internal returns (bytes memory) {... */\n      swap3\n      swap2\n      pop\n      pop\n      jump\t// out\n        /* \"@openzeppelin/contracts/proxy/ERC1967/ERC1967Utils.sol\":6113:6235  function _checkNonPayable() private {... */\n    tag_153:\n        /* \"@openzeppelin/contracts/proxy/ERC1967/ERC1967Utils.sol\":6175:6176  0 */\n      0x00\n        /* \"@openzeppelin/contracts/proxy/ERC1967/ERC1967Utils.sol\":6163:6172  msg.value */\n      callvalue\n        /* \"@openzeppelin/contracts/proxy/ERC1967/ERC1967Utils.sol\":6163:6176  msg.value > 0 */\n      gt\n        /* \"@openzeppelin/contracts/proxy/ERC1967/ERC1967Utils.sol\":6159:6229  if (msg.value > 0) {... */\n      iszero\n      tag_180\n      jumpi\n        /* \"@openzeppelin/contracts/proxy/ERC1967/ERC1967Utils.sol\":6199:6218  ERC1967NonPayable() */\n      mload(0x40)\n      0xb398979f00000000000000000000000000000000000000000000000000000000\n      dup2\n      mstore\n      0x04\n      add\n      mload(0x40)\n      dup1\n      swap2\n      sub\n      swap1\n      revert\n        /* \"@openzeppelin/contracts/proxy/ERC1967/ERC1967Utils.sol\":6159:6229  if (msg.value > 0) {... */\n    tag_180:\n        /* \"@openzeppelin/contracts/proxy/ERC1967/ERC1967Utils.sol\":6113:6235  function _checkNonPayable() private {... */\n      jump\t// out\n        /* \"@openzeppelin/contracts-upgradeable/proxy/utils/Initializable.sol\":8485:8605  function _isInitializing() internal view returns (bool) {... */\n    tag_158:\n        /* \"@openzeppelin/contracts-upgradeable/proxy/utils/Initializable.sol\":8535:8539  bool */\n      0x00\n        /* \"@openzeppelin/contracts-upgradeable/proxy/utils/Initializable.sol\":8558:8584  _getInitializableStorage() */\n      tag_182\n        /* \"@openzeppelin/contracts-upgradeable/proxy/utils/Initializable.sol\":8558:8582  _getInitializableStorage */\n      tag_70\n        /* \"@openzeppelin/contracts-upgradeable/proxy/utils/Initializable.sol\":8558:8584  _getInitializableStorage() */\n      jump\t// in\n    tag_182:\n        /* \"@openzeppelin/contracts-upgradeable/proxy/utils/Initializable.sol\":8558:8598  _getInitializableStorage()._initializing */\n      0x00\n      add\n      0x08\n      swap1\n      sload\n      swap1\n      0x0100\n      exp\n      swap1\n      div\n      0xff\n      and\n        /* \"@openzeppelin/contracts-upgradeable/proxy/utils/Initializable.sol\":8551:8598  return _getInitializableStorage()._initializing */\n      swap1\n      pop\n        /* \"@openzeppelin/contracts-upgradeable/proxy/utils/Initializable.sol\":8485:8605  function _isInitializing() internal view returns (bool) {... */\n      swap1\n      jump\t// out\n        /* \"@openzeppelin/contracts/utils/Address.sol\":4437:5019  function verifyCallResultFromTarget(... */\n    tag_178:\n        /* \"@openzeppelin/contracts/utils/Address.sol\":4581:4593  bytes memory */\n      0x60\n        /* \"@openzeppelin/contracts/utils/Address.sol\":4610:4617  success */\n      dup3\n        /* \"@openzeppelin/contracts/utils/Address.sol\":4605:5013  if (!success) {... */\n      tag_184\n      jumpi\n        /* \"@openzeppelin/contracts/utils/Address.sol\":4633:4652  _revert(returndata) */\n      tag_185\n        /* \"@openzeppelin/contracts/utils/Address.sol\":4641:4651  returndata */\n      dup3\n        /* \"@openzeppelin/contracts/utils/Address.sol\":4633:4640  _revert */\n      tag_186\n        /* \"@openzeppelin/contracts/utils/Address.sol\":4633:4652  _revert(returndata) */\n      jump\t// in\n    tag_185:\n        /* \"@openzeppelin/contracts/utils/Address.sol\":4605:5013  if (!success) {... */\n      jump(tag_187)\n    tag_184:\n        /* \"@openzeppelin/contracts/utils/Address.sol\":4878:4879  0 */\n      0x00\n        /* \"@openzeppelin/contracts/utils/Address.sol\":4857:4867  returndata */\n      dup3\n        /* \"@openzeppelin/contracts/utils/Address.sol\":4857:4874  returndata.length */\n      mload\n        /* \"@openzeppelin/contracts/utils/Address.sol\":4857:4879  returndata.length == 0 */\n      eq\n        /* \"@openzeppelin/contracts/utils/Address.sol\":4857:4906  returndata.length == 0 && target.code.length == 0 */\n      dup1\n      iszero\n      tag_188\n      jumpi\n      pop\n        /* \"@openzeppelin/contracts/utils/Address.sol\":4905:4906  0 */\n      0x00\n        /* \"@openzeppelin/contracts/utils/Address.sol\":4883:4889  target */\n      dup5\n        /* \"@openzeppelin/contracts/utils/Address.sol\":4883:4901  target.code.length */\n      0xffffffffffffffffffffffffffffffffffffffff\n      and\n      extcodesize\n        /* \"@openzeppelin/contracts/utils/Address.sol\":4883:4906  target.code.length == 0 */\n      eq\n        /* \"@openzeppelin/contracts/utils/Address.sol\":4857:4906  returndata.length == 0 && target.code.length == 0 */\n    tag_188:\n        /* \"@openzeppelin/contracts/utils/Address.sol\":4853:4972  if (returndata.length == 0 && target.code.length == 0) {... */\n      iszero\n      tag_189\n      jumpi\n        /* \"@openzeppelin/contracts/utils/Address.sol\":4950:4956  target */\n      dup4\n        /* \"@openzeppelin/contracts/utils/Address.sol\":4933:4957  AddressEmptyCode(target) */\n      mload(0x40)\n      0x9996b31500000000000000000000000000000000000000000000000000000000\n      dup2\n      mstore\n      0x04\n      add\n      tag_190\n      swap2\n      swap1\n      tag_36\n      jump\t// in\n    tag_190:\n      mload(0x40)\n      dup1\n      swap2\n      sub\n      swap1\n      revert\n        /* \"@openzeppelin/contracts/utils/Address.sol\":4853:4972  if (returndata.length == 0 && target.code.length == 0) {... */\n    tag_189:\n        /* \"@openzeppelin/contracts/utils/Address.sol\":4992:5002  returndata */\n      dup2\n        /* \"@openzeppelin/contracts/utils/Address.sol\":4985:5002  return returndata */\n      swap1\n      pop\n      jump(tag_183)\n        /* \"@openzeppelin/contracts/utils/Address.sol\":4605:5013  if (!success) {... */\n    tag_187:\n        /* \"@openzeppelin/contracts/utils/Address.sol\":4437:5019  function verifyCallResultFromTarget(... */\n    tag_183:\n      swap4\n      swap3\n      pop\n      pop\n      pop\n      jump\t// out\n        /* \"@openzeppelin/contracts/utils/Address.sol\":5559:5993  function _revert(bytes memory returndata) private pure {... */\n    tag_186:\n        /* \"@openzeppelin/contracts/utils/Address.sol\":5710:5711  0 */\n      0x00\n        /* \"@openzeppelin/contracts/utils/Address.sol\":5690:5700  returndata */\n      dup2\n        /* \"@openzeppelin/contracts/utils/Address.sol\":5690:5707  returndata.length */\n      mload\n        /* \"@openzeppelin/contracts/utils/Address.sol\":5690:5711  returndata.length > 0 */\n      gt\n        /* \"@openzeppelin/contracts/utils/Address.sol\":5686:5987  if (returndata.length > 0) {... */\n      iszero\n      tag_192\n      jumpi\n        /* \"@openzeppelin/contracts/utils/Address.sol\":5894:5904  returndata */\n      dup1\n        /* \"@openzeppelin/contracts/utils/Address.sol\":5888:5905  mload(returndata) */\n      mload\n        /* \"@openzeppelin/contracts/utils/Address.sol\":5881:5885  0x20 */\n      0x20\n        /* \"@openzeppelin/contracts/utils/Address.sol\":5869:5879  returndata */\n      dup3\n        /* \"@openzeppelin/contracts/utils/Address.sol\":5865:5886  add(returndata, 0x20) */\n      add\n        /* \"@openzeppelin/contracts/utils/Address.sol\":5858:5906  revert(add(returndata, 0x20), mload(returndata)) */\n      revert\n        /* \"@openzeppelin/contracts/utils/Address.sol\":5686:5987  if (returndata.length > 0) {... */\n    tag_192:\n        /* \"@openzeppelin/contracts/utils/Address.sol\":5957:5976  Errors.FailedCall() */\n      mload(0x40)\n      0xd6bda27500000000000000000000000000000000000000000000000000000000\n      dup2\n      mstore\n      0x04\n      add\n      mload(0x40)\n      dup1\n      swap2\n      sub\n      swap1\n      revert\n        /* \"#utility.yul\":7:84   */\n    tag_194:\n        /* \"#utility.yul\":44:51   */\n      0x00\n        /* \"#utility.yul\":73:78   */\n      dup2\n        /* \"#utility.yul\":62:78   */\n      swap1\n      pop\n        /* \"#utility.yul\":7:84   */\n      swap2\n      swap1\n      pop\n      jump\t// out\n        /* \"#utility.yul\":90:208   */\n    tag_195:\n        /* \"#utility.yul\":177:201   */\n      tag_234\n        /* \"#utility.yul\":195:200   */\n      dup2\n        /* \"#utility.yul\":177:201   */\n      tag_194\n      jump\t// in\n    tag_234:\n        /* \"#utility.yul\":172:175   */\n      dup3\n        /* \"#utility.yul\":165:202   */\n      mstore\n        /* \"#utility.yul\":90:208   */\n      pop\n      pop\n      jump\t// out\n        /* \"#utility.yul\":214:436   */\n    tag_16:\n        /* \"#utility.yul\":307:311   */\n      0x00\n        /* \"#utility.yul\":345:347   */\n      0x20\n        /* \"#utility.yul\":334:343   */\n      dup3\n        /* \"#utility.yul\":330:348   */\n      add\n        /* \"#utility.yul\":322:348   */\n      swap1\n      pop\n        /* \"#utility.yul\":358:429   */\n      tag_236\n        /* \"#utility.yul\":426:427   */\n      0x00\n        /* \"#utility.yul\":415:424   */\n      dup4\n        /* \"#utility.yul\":411:428   */\n      add\n        /* \"#utility.yul\":402:408   */\n      dup5\n        /* \"#utility.yul\":358:429   */\n      tag_195\n      jump\t// in\n    tag_236:\n        /* \"#utility.yul\":214:436   */\n      swap3\n      swap2\n      pop\n      pop\n      jump\t// out\n        /* \"#utility.yul\":442:517   */\n    tag_196:\n        /* \"#utility.yul\":475:481   */\n      0x00\n        /* \"#utility.yul\":508:510   */\n      0x40\n        /* \"#utility.yul\":502:511   */\n      mload\n        /* \"#utility.yul\":492:511   */\n      swap1\n      pop\n        /* \"#utility.yul\":442:517   */\n      swap1\n      jump\t// out\n        /* \"#utility.yul\":523:640   */\n    tag_197:\n        /* \"#utility.yul\":632:633   */\n      0x00\n        /* \"#utility.yul\":629:630   */\n      0x00\n        /* \"#utility.yul\":622:634   */\n      revert\n        /* \"#utility.yul\":646:763   */\n    tag_198:\n        /* \"#utility.yul\":755:756   */\n      0x00\n        /* \"#utility.yul\":752:753   */\n      0x00\n        /* \"#utility.yul\":745:757   */\n      revert\n        /* \"#utility.yul\":769:895   */\n    tag_199:\n        /* \"#utility.yul\":806:813   */\n      0x00\n        /* \"#utility.yul\":846:888   */\n      0xffffffffffffffffffffffffffffffffffffffff\n        /* \"#utility.yul\":839:844   */\n      dup3\n        /* \"#utility.yul\":835:889   */\n      and\n        /* \"#utility.yul\":824:889   */\n      swap1\n      pop\n        /* \"#utility.yul\":769:895   */\n      swap2\n      swap1\n      pop\n      jump\t// out\n        /* \"#utility.yul\":901:997   */\n    tag_200:\n        /* \"#utility.yul\":938:945   */\n      0x00\n        /* \"#utility.yul\":967:991   */\n      tag_242\n        /* \"#utility.yul\":985:990   */\n      dup3\n        /* \"#utility.yul\":967:991   */\n      tag_199\n      jump\t// in\n    tag_242:\n        /* \"#utility.yul\":956:991   */\n      swap1\n      pop\n        /* \"#utility.yul\":901:997   */\n      swap2\n      swap1\n      pop\n      jump\t// out\n        /* \"#utility.yul\":1003:1125   */\n    tag_201:\n        /* \"#utility.yul\":1076:1100   */\n      tag_244\n        /* \"#utility.yul\":1094:1099   */\n      dup2\n        /* \"#utility.yul\":1076:1100   */\n      tag_200\n      jump\t// in\n    tag_244:\n        /* \"#utility.yul\":1069:1074   */\n      dup2\n        /* \"#utility.yul\":1066:1101   */\n      eq\n        /* \"#utility.yul\":1056:1119   */\n      tag_245\n      jumpi\n        /* \"#utility.yul\":1115:1116   */\n      0x00\n        /* \"#utility.yul\":1112:1113   */\n      0x00\n        /* \"#utility.yul\":1105:1117   */\n      revert\n        /* \"#utility.yul\":1056:1119   */\n    tag_245:\n        /* \"#utility.yul\":1003:1125   */\n      pop\n      jump\t// out\n        /* \"#utility.yul\":1131:1270   */\n    tag_202:\n        /* \"#utility.yul\":1177:1182   */\n      0x00\n        /* \"#utility.yul\":1215:1221   */\n      dup2\n        /* \"#utility.yul\":1202:1222   */\n      calldataload\n        /* \"#utility.yul\":1193:1222   */\n      swap1\n      pop\n        /* \"#utility.yul\":1231:1264   */\n      tag_247\n        /* \"#utility.yul\":1258:1263   */\n      dup2\n        /* \"#utility.yul\":1231:1264   */\n      tag_201\n      jump\t// in\n    tag_247:\n        /* \"#utility.yul\":1131:1270   */\n      swap3\n      swap2\n      pop\n      pop\n      jump\t// out\n        /* \"#utility.yul\":1276:1393   */\n    tag_203:\n        /* \"#utility.yul\":1385:1386   */\n      0x00\n        /* \"#utility.yul\":1382:1383   */\n      0x00\n        /* \"#utility.yul\":1375:1387   */\n      revert\n        /* \"#utility.yul\":1399:1516   */\n    tag_204:\n        /* \"#utility.yul\":1508:1509   */\n      0x00\n        /* \"#utility.yul\":1505:1506   */\n      0x00\n        /* \"#utility.yul\":1498:1510   */\n      revert\n        /* \"#utility.yul\":1522:1624   */\n    tag_205:\n        /* \"#utility.yul\":1563:1569   */\n      0x00\n        /* \"#utility.yul\":1614:1616   */\n      0x1f\n        /* \"#utility.yul\":1610:1617   */\n      not\n        /* \"#utility.yul\":1605:1607   */\n      0x1f\n        /* \"#utility.yul\":1598:1603   */\n      dup4\n        /* \"#utility.yul\":1594:1608   */\n      add\n        /* \"#utility.yul\":1590:1618   */\n      and\n        /* \"#utility.yul\":1580:1618   */\n      swap1\n      pop\n        /* \"#utility.yul\":1522:1624   */\n      swap2\n      swap1\n      pop\n      jump\t// out\n        /* \"#utility.yul\":1630:1810   */\n    tag_206:\n        /* \"#utility.yul\":1678:1755   */\n      0x4e487b7100000000000000000000000000000000000000000000000000000000\n        /* \"#utility.yul\":1675:1676   */\n      0x00\n        /* \"#utility.yul\":1668:1756   */\n      mstore\n        /* \"#utility.yul\":1775:1779   */\n      0x41\n        /* \"#utility.yul\":1772:1773   */\n      0x04\n        /* \"#utility.yul\":1765:1780   */\n      mstore\n        /* \"#utility.yul\":1799:1803   */\n      0x24\n        /* \"#utility.yul\":1796:1797   */\n      0x00\n        /* \"#utility.yul\":1789:1804   */\n      revert\n        /* \"#utility.yul\":1816:2097   */\n    tag_207:\n        /* \"#utility.yul\":1899:1926   */\n      tag_253\n        /* \"#utility.yul\":1921:1925   */\n      dup3\n        /* \"#utility.yul\":1899:1926   */\n      tag_205\n      jump\t// in\n    tag_253:\n        /* \"#utility.yul\":1891:1897   */\n      dup2\n        /* \"#utility.yul\":1887:1927   */\n      add\n        /* \"#utility.yul\":2029:2035   */\n      dup2\n        /* \"#utility.yul\":2017:2027   */\n      dup2\n        /* \"#utility.yul\":2014:2036   */\n      lt\n        /* \"#utility.yul\":1993:2011   */\n      0xffffffffffffffff\n        /* \"#utility.yul\":1981:1991   */\n      dup3\n        /* \"#utility.yul\":1978:2012   */\n      gt\n        /* \"#utility.yul\":1975:2037   */\n      or\n        /* \"#utility.yul\":1972:2060   */\n      iszero\n      tag_254\n      jumpi\n        /* \"#utility.yul\":2040:2058   */\n      tag_255\n      tag_206\n      jump\t// in\n    tag_255:\n        /* \"#utility.yul\":1972:2060   */\n    tag_254:\n        /* \"#utility.yul\":2080:2090   */\n      dup1\n        /* \"#utility.yul\":2076:2078   */\n      0x40\n        /* \"#utility.yul\":2069:2091   */\n      mstore\n        /* \"#utility.yul\":1859:2097   */\n      pop\n        /* \"#utility.yul\":1816:2097   */\n      pop\n      pop\n      jump\t// out\n        /* \"#utility.yul\":2103:2232   */\n    tag_208:\n        /* \"#utility.yul\":2137:2143   */\n      0x00\n        /* \"#utility.yul\":2164:2184   */\n      tag_257\n      tag_196\n      jump\t// in\n    tag_257:\n        /* \"#utility.yul\":2154:2184   */\n      swap1\n      pop\n        /* \"#utility.yul\":2193:2226   */\n      tag_258\n        /* \"#utility.yul\":2221:2225   */\n      dup3\n        /* \"#utility.yul\":2213:2219   */\n      dup3\n        /* \"#utility.yul\":2193:2226   */\n      tag_207\n      jump\t// in\n    tag_258:\n        /* \"#utility.yul\":2103:2232   */\n      swap2\n      swap1\n      pop\n      jump\t// out\n        /* \"#utility.yul\":2238:2545   */\n    tag_209:\n        /* \"#utility.yul\":2299:2303   */\n      0x00\n        /* \"#utility.yul\":2389:2407   */\n      0xffffffffffffffff\n        /* \"#utility.yul\":2381:2387   */\n      dup3\n        /* \"#utility.yul\":2378:2408   */\n      gt\n        /* \"#utility.yul\":2375:2431   */\n      iszero\n      tag_260\n      jumpi\n        /* \"#utility.yul\":2411:2429   */\n      tag_261\n      tag_206\n      jump\t// in\n    tag_261:\n        /* \"#utility.yul\":2375:2431   */\n    tag_260:\n        /* \"#utility.yul\":2449:2478   */\n      tag_262\n        /* \"#utility.yul\":2471:2477   */\n      dup3\n        /* \"#utility.yul\":2449:2478   */\n      tag_205\n      jump\t// in\n    tag_262:\n        /* \"#utility.yul\":2441:2478   */\n      swap1\n      pop\n        /* \"#utility.yul\":2533:2537   */\n      0x20\n        /* \"#utility.yul\":2527:2531   */\n      dup2\n        /* \"#utility.yul\":2523:2538   */\n      add\n        /* \"#utility.yul\":2515:2538   */\n      swap1\n      pop\n        /* \"#utility.yul\":2238:2545   */\n      swap2\n      swap1\n      pop\n      jump\t// out\n        /* \"#utility.yul\":2551:2699   */\n    tag_210:\n        /* \"#utility.yul\":2649:2655   */\n      dup3\n        /* \"#utility.yul\":2644:2647   */\n      dup2\n        /* \"#utility.yul\":2639:2642   */\n      dup4\n        /* \"#utility.yul\":2626:2656   */\n      calldatacopy\n        /* \"#utility.yul\":2690:2691   */\n      0x00\n        /* \"#utility.yul\":2681:2687   */\n      dup4\n        /* \"#utility.yul\":2676:2679   */\n      dup4\n        /* \"#utility.yul\":2672:2688   */\n      add\n        /* \"#utility.yul\":2665:2692   */\n      mstore\n        /* \"#utility.yul\":2551:2699   */\n      pop\n      pop\n      pop\n      jump\t// out\n        /* \"#utility.yul\":2705:3128   */\n    tag_211:\n        /* \"#utility.yul\":2782:2787   */\n      0x00\n        /* \"#utility.yul\":2807:2872   */\n      tag_265\n        /* \"#utility.yul\":2823:2871   */\n      tag_266\n        /* \"#utility.yul\":2864:2870   */\n      dup5\n        /* \"#utility.yul\":2823:2871   */\n      tag_209\n      jump\t// in\n    tag_266:\n        /* \"#utility.yul\":2807:2872   */\n      tag_208\n      jump\t// in\n    tag_265:\n        /* \"#utility.yul\":2798:2872   */\n      swap1\n      pop\n        /* \"#utility.yul\":2895:2901   */\n      dup3\n        /* \"#utility.yul\":2888:2893   */\n      dup2\n        /* \"#utility.yul\":2881:2902   */\n      mstore\n        /* \"#utility.yul\":2933:2937   */\n      0x20\n        /* \"#utility.yul\":2926:2931   */\n      dup2\n        /* \"#utility.yul\":2922:2938   */\n      add\n        /* \"#utility.yul\":2971:2974   */\n      dup5\n        /* \"#utility.yul\":2962:2968   */\n      dup5\n        /* \"#utility.yul\":2957:2960   */\n      dup5\n        /* \"#utility.yul\":2953:2969   */\n      add\n        /* \"#utility.yul\":2950:2975   */\n      gt\n        /* \"#utility.yul\":2947:3059   */\n      iszero\n      tag_267\n      jumpi\n        /* \"#utility.yul\":2978:3057   */\n      tag_268\n      tag_204\n      jump\t// in\n    tag_268:\n        /* \"#utility.yul\":2947:3059   */\n    tag_267:\n        /* \"#utility.yul\":3068:3122   */\n      tag_269\n        /* \"#utility.yul\":3115:3121   */\n      dup5\n        /* \"#utility.yul\":3110:3113   */\n      dup3\n        /* \"#utility.yul\":3105:3108   */\n      dup6\n        /* \"#utility.yul\":3068:3122   */\n      tag_210\n      jump\t// in\n    tag_269:\n        /* \"#utility.yul\":2788:3128   */\n      pop\n        /* \"#utility.yul\":2705:3128   */\n      swap4\n      swap3\n      pop\n      pop\n      pop\n      jump\t// out\n        /* \"#utility.yul\":3147:3485   */\n    tag_212:\n        /* \"#utility.yul\":3202:3207   */\n      0x00\n        /* \"#utility.yul\":3251:3254   */\n      dup3\n        /* \"#utility.yul\":3244:3248   */\n      0x1f\n        /* \"#utility.yul\":3236:3242   */\n      dup4\n        /* \"#utility.yul\":3232:3249   */\n      add\n        /* \"#utility.yul\":3228:3255   */\n      slt\n        /* \"#utility.yul\":3218:3340   */\n      tag_271\n      jumpi\n        /* \"#utility.yul\":3259:3338   */\n      tag_272\n      tag_203\n      jump\t// in\n    tag_272:\n        /* \"#utility.yul\":3218:3340   */\n    tag_271:\n        /* \"#utility.yul\":3376:3382   */\n      dup2\n        /* \"#utility.yul\":3363:3383   */\n      calldataload\n        /* \"#utility.yul\":3401:3479   */\n      tag_273\n        /* \"#utility.yul\":3475:3478   */\n      dup5\n        /* \"#utility.yul\":3467:3473   */\n      dup3\n        /* \"#utility.yul\":3460:3464   */\n      0x20\n        /* \"#utility.yul\":3452:3458   */\n      dup7\n        /* \"#utility.yul\":3448:3465   */\n      add\n        /* \"#utility.yul\":3401:3479   */\n      tag_211\n      jump\t// in\n    tag_273:\n        /* \"#utility.yul\":3392:3479   */\n      swap2\n      pop\n        /* \"#utility.yul\":3208:3485   */\n      pop\n        /* \"#utility.yul\":3147:3485   */\n      swap3\n      swap2\n      pop\n      pop\n      jump\t// out\n        /* \"#utility.yul\":3491:4143   */\n    tag_19:\n        /* \"#utility.yul\":3568:3574   */\n      0x00\n        /* \"#utility.yul\":3576:3582   */\n      0x00\n        /* \"#utility.yul\":3625:3627   */\n      0x40\n        /* \"#utility.yul\":3613:3622   */\n      dup4\n        /* \"#utility.yul\":3604:3611   */\n      dup6\n        /* \"#utility.yul\":3600:3623   */\n      sub\n        /* \"#utility.yul\":3596:3628   */\n      slt\n        /* \"#utility.yul\":3593:3712   */\n      iszero\n      tag_275\n      jumpi\n        /* \"#utility.yul\":3631:3710   */\n      tag_276\n      tag_197\n      jump\t// in\n    tag_276:\n        /* \"#utility.yul\":3593:3712   */\n    tag_275:\n        /* \"#utility.yul\":3751:3752   */\n      0x00\n        /* \"#utility.yul\":3776:3829   */\n      tag_277\n        /* \"#utility.yul\":3821:3828   */\n      dup6\n        /* \"#utility.yul\":3812:3818   */\n      dup3\n        /* \"#utility.yul\":3801:3810   */\n      dup7\n        /* \"#utility.yul\":3797:3819   */\n      add\n        /* \"#utility.yul\":3776:3829   */\n      tag_202\n      jump\t// in\n    tag_277:\n        /* \"#utility.yul\":3766:3829   */\n      swap3\n      pop\n        /* \"#utility.yul\":3722:3839   */\n      pop\n        /* \"#utility.yul\":3906:3908   */\n      0x20\n        /* \"#utility.yul\":3895:3904   */\n      dup4\n        /* \"#utility.yul\":3891:3909   */\n      add\n        /* \"#utility.yul\":3878:3910   */\n      calldataload\n        /* \"#utility.yul\":3937:3955   */\n      0xffffffffffffffff\n        /* \"#utility.yul\":3929:3935   */\n      dup2\n        /* \"#utility.yul\":3926:3956   */\n      gt\n        /* \"#utility.yul\":3923:4040   */\n      iszero\n      tag_278\n      jumpi\n        /* \"#utility.yul\":3959:4038   */\n      tag_279\n      tag_198\n      jump\t// in\n    tag_279:\n        /* \"#utility.yul\":3923:4040   */\n    tag_278:\n        /* \"#utility.yul\":4064:4126   */\n      tag_280\n        /* \"#utility.yul\":4118:4125   */\n      dup6\n        /* \"#utility.yul\":4109:4115   */\n      dup3\n        /* \"#utility.yul\":4098:4107   */\n      dup7\n        /* \"#utility.yul\":4094:4116   */\n      add\n        /* \"#utility.yul\":4064:4126   */\n      tag_212\n      jump\t// in\n    tag_280:\n        /* \"#utility.yul\":4054:4126   */\n      swap2\n      pop\n        /* \"#utility.yul\":3849:4136   */\n      pop\n        /* \"#utility.yul\":3491:4143   */\n      swap3\n      pop\n      swap3\n      swap1\n      pop\n      jump\t// out\n        /* \"#utility.yul\":4149:4226   */\n    tag_213:\n        /* \"#utility.yul\":4186:4193   */\n      0x00\n        /* \"#utility.yul\":4215:4220   */\n      dup2\n        /* \"#utility.yul\":4204:4220   */\n      swap1\n      pop\n        /* \"#utility.yul\":4149:4226   */\n      swap2\n      swap1\n      pop\n      jump\t// out\n        /* \"#utility.yul\":4232:4350   */\n    tag_214:\n        /* \"#utility.yul\":4319:4343   */\n      tag_283\n        /* \"#utility.yul\":4337:4342   */\n      dup2\n        /* \"#utility.yul\":4319:4343   */\n      tag_213\n      jump\t// in\n    tag_283:\n        /* \"#utility.yul\":4314:4317   */\n      dup3\n        /* \"#utility.yul\":4307:4344   */\n      mstore\n        /* \"#utility.yul\":4232:4350   */\n      pop\n      pop\n      jump\t// out\n        /* \"#utility.yul\":4356:4578   */\n    tag_25:\n        /* \"#utility.yul\":4449:4453   */\n      0x00\n        /* \"#utility.yul\":4487:4489   */\n      0x20\n        /* \"#utility.yul\":4476:4485   */\n      dup3\n        /* \"#utility.yul\":4472:4490   */\n      add\n        /* \"#utility.yul\":4464:4490   */\n      swap1\n      pop\n        /* \"#utility.yul\":4500:4571   */\n      tag_285\n        /* \"#utility.yul\":4568:4569   */\n      0x00\n        /* \"#utility.yul\":4557:4566   */\n      dup4\n        /* \"#utility.yul\":4553:4570   */\n      add\n        /* \"#utility.yul\":4544:4550   */\n      dup5\n        /* \"#utility.yul\":4500:4571   */\n      tag_214\n      jump\t// in\n    tag_285:\n        /* \"#utility.yul\":4356:4578   */\n      swap3\n      swap2\n      pop\n      pop\n      jump\t// out\n        /* \"#utility.yul\":4584:4702   */\n    tag_215:\n        /* \"#utility.yul\":4671:4695   */\n      tag_287\n        /* \"#utility.yul\":4689:4694   */\n      dup2\n        /* \"#utility.yul\":4671:4695   */\n      tag_200\n      jump\t// in\n    tag_287:\n        /* \"#utility.yul\":4666:4669   */\n      dup3\n        /* \"#utility.yul\":4659:4696   */\n      mstore\n        /* \"#utility.yul\":4584:4702   */\n      pop\n      pop\n      jump\t// out\n        /* \"#utility.yul\":4708:4930   */\n    tag_36:\n        /* \"#utility.yul\":4801:4805   */\n      0x00\n        /* \"#utility.yul\":4839:4841   */\n      0x20\n        /* \"#utility.yul\":4828:4837   */\n      dup3\n        /* \"#utility.yul\":4824:4842   */\n      add\n        /* \"#utility.yul\":4816:4842   */\n      swap1\n      pop\n        /* \"#utility.yul\":4852:4923   */\n      tag_289\n        /* \"#utility.yul\":4920:4921   */\n      0x00\n        /* \"#utility.yul\":4909:4918   */\n      dup4\n        /* \"#utility.yul\":4905:4922   */\n      add\n        /* \"#utility.yul\":4896:4902   */\n      dup5\n        /* \"#utility.yul\":4852:4923   */\n      tag_215\n      jump\t// in\n    tag_289:\n        /* \"#utility.yul\":4708:4930   */\n      swap3\n      swap2\n      pop\n      pop\n      jump\t// out\n        /* \"#utility.yul\":4936:5035   */\n    tag_216:\n        /* \"#utility.yul\":4988:4994   */\n      0x00\n        /* \"#utility.yul\":5022:5027   */\n      dup2\n        /* \"#utility.yul\":5016:5028   */\n      mload\n        /* \"#utility.yul\":5006:5028   */\n      swap1\n      pop\n        /* \"#utility.yul\":4936:5035   */\n      swap2\n      swap1\n      pop\n      jump\t// out\n        /* \"#utility.yul\":5041:5210   */\n    tag_217:\n        /* \"#utility.yul\":5125:5136   */\n      0x00\n        /* \"#utility.yul\":5159:5165   */\n      dup3\n        /* \"#utility.yul\":5154:5157   */\n      dup3\n        /* \"#utility.yul\":5147:5166   */\n      mstore\n        /* \"#utility.yul\":5199:5203   */\n      0x20\n        /* \"#utility.yul\":5194:5197   */\n      dup3\n        /* \"#utility.yul\":5190:5204   */\n      add\n        /* \"#utility.yul\":5175:5204   */\n      swap1\n      pop\n        /* \"#utility.yul\":5041:5210   */\n      swap3\n      swap2\n      pop\n      pop\n      jump\t// out\n        /* \"#utility.yul\":5216:5355   */\n    tag_218:\n        /* \"#utility.yul\":5305:5311   */\n      dup3\n        /* \"#utility.yul\":5300:5303   */\n      dup2\n        /* \"#utility.yul\":5295:5298   */\n      dup4\n        /* \"#utility.yul\":5289:5312   */\n      mcopy\n        /* \"#utility.yul\":5346:5347   */\n      0x00\n        /* \"#utility.yul\":5337:5343   */\n      dup4\n        /* \"#utility.yul\":5332:5335   */\n      dup4\n        /* \"#utility.yul\":5328:5344   */\n      add\n        /* \"#utility.yul\":5321:5348   */\n      mstore\n        /* \"#utility.yul\":5216:5355   */\n      pop\n      pop\n      pop\n      jump\t// out\n        /* \"#utility.yul\":5361:5738   */\n    tag_219:\n        /* \"#utility.yul\":5449:5452   */\n      0x00\n        /* \"#utility.yul\":5477:5516   */\n      tag_294\n        /* \"#utility.yul\":5510:5515   */\n      dup3\n        /* \"#utility.yul\":5477:5516   */\n      tag_216\n      jump\t// in\n    tag_294:\n        /* \"#utility.yul\":5532:5603   */\n      tag_295\n        /* \"#utility.yul\":5596:5602   */\n      dup2\n        /* \"#utility.yul\":5591:5594   */\n      dup6\n        /* \"#utility.yul\":5532:5603   */\n      tag_217\n      jump\t// in\n    tag_295:\n        /* \"#utility.yul\":5525:5603   */\n      swap4\n      pop\n        /* \"#utility.yul\":5612:5677   */\n      tag_296\n        /* \"#utility.yul\":5670:5676   */\n      dup2\n        /* \"#utility.yul\":5665:5668   */\n      dup6\n        /* \"#utility.yul\":5658:5662   */\n      0x20\n        /* \"#utility.yul\":5651:5656   */\n      dup7\n        /* \"#utility.yul\":5647:5663   */\n      add\n        /* \"#utility.yul\":5612:5677   */\n      tag_218\n      jump\t// in\n    tag_296:\n        /* \"#utility.yul\":5702:5731   */\n      tag_297\n        /* \"#utility.yul\":5724:5730   */\n      dup2\n        /* \"#utility.yul\":5702:5731   */\n      tag_205\n      jump\t// in\n    tag_297:\n        /* \"#utility.yul\":5697:5700   */\n      dup5\n        /* \"#utility.yul\":5693:5732   */\n      add\n        /* \"#utility.yul\":5686:5732   */\n      swap2\n      pop\n        /* \"#utility.yul\":5453:5738   */\n      pop\n        /* \"#utility.yul\":5361:5738   */\n      swap3\n      swap2\n      pop\n      pop\n      jump\t// out\n        /* \"#utility.yul\":5744:6057   */\n    tag_41:\n        /* \"#utility.yul\":5857:5861   */\n      0x00\n        /* \"#utility.yul\":5895:5897   */\n      0x20\n        /* \"#utility.yul\":5884:5893   */\n      dup3\n        /* \"#utility.yul\":5880:5898   */\n      add\n        /* \"#utility.yul\":5872:5898   */\n      swap1\n      pop\n        /* \"#utility.yul\":5944:5953   */\n      dup2\n        /* \"#utility.yul\":5938:5942   */\n      dup2\n        /* \"#utility.yul\":5934:5954   */\n      sub\n        /* \"#utility.yul\":5930:5931   */\n      0x00\n        /* \"#utility.yul\":5919:5928   */\n      dup4\n        /* \"#utility.yul\":5915:5932   */\n      add\n        /* \"#utility.yul\":5908:5955   */\n      mstore\n        /* \"#utility.yul\":5972:6050   */\n      tag_299\n        /* \"#utility.yul\":6045:6049   */\n      dup2\n        /* \"#utility.yul\":6036:6042   */\n      dup5\n        /* \"#utility.yul\":5972:6050   */\n      tag_219\n      jump\t// in\n    tag_299:\n        /* \"#utility.yul\":5964:6050   */\n      swap1\n      pop\n        /* \"#utility.yul\":5744:6057   */\n      swap3\n      swap2\n      pop\n      pop\n      jump\t// out\n        /* \"#utility.yul\":6063:6392   */\n    tag_48:\n        /* \"#utility.yul\":6122:6128   */\n      0x00\n        /* \"#utility.yul\":6171:6173   */\n      0x20\n        /* \"#utility.yul\":6159:6168   */\n      dup3\n        /* \"#utility.yul\":6150:6157   */\n      dup5\n        /* \"#utility.yul\":6146:6169   */\n      sub\n        /* \"#utility.yul\":6142:6174   */\n      slt\n        /* \"#utility.yul\":6139:6258   */\n      iszero\n      tag_301\n      jumpi\n        /* \"#utility.yul\":6177:6256   */\n      tag_302\n      tag_197\n      jump\t// in\n    tag_302:\n        /* \"#utility.yul\":6139:6258   */\n    tag_301:\n        /* \"#utility.yul\":6297:6298   */\n      0x00\n        /* \"#utility.yul\":6322:6375   */\n      tag_303\n        /* \"#utility.yul\":6367:6374   */\n      dup5\n        /* \"#utility.yul\":6358:6364   */\n      dup3\n        /* \"#utility.yul\":6347:6356   */\n      dup6\n        /* \"#utility.yul\":6343:6365   */\n      add\n        /* \"#utility.yul\":6322:6375   */\n      tag_202\n      jump\t// in\n    tag_303:\n        /* \"#utility.yul\":6312:6375   */\n      swap2\n      pop\n        /* \"#utility.yul\":6268:6385   */\n      pop\n        /* \"#utility.yul\":6063:6392   */\n      swap3\n      swap2\n      pop\n      pop\n      jump\t// out\n        /* \"#utility.yul\":6398:6483   */\n    tag_220:\n        /* \"#utility.yul\":6443:6450   */\n      0x00\n        /* \"#utility.yul\":6472:6477   */\n      dup2\n        /* \"#utility.yul\":6461:6477   */\n      swap1\n      pop\n        /* \"#utility.yul\":6398:6483   */\n      swap2\n      swap1\n      pop\n      jump\t// out\n        /* \"#utility.yul\":6489:6590   */\n    tag_221:\n        /* \"#utility.yul\":6525:6532   */\n      0x00\n        /* \"#utility.yul\":6565:6583   */\n      0xffffffffffffffff\n        /* \"#utility.yul\":6558:6563   */\n      dup3\n        /* \"#utility.yul\":6554:6584   */\n      and\n        /* \"#utility.yul\":6543:6584   */\n      swap1\n      pop\n        /* \"#utility.yul\":6489:6590   */\n      swap2\n      swap1\n      pop\n      jump\t// out\n        /* \"#utility.yul\":6596:6656   */\n    tag_222:\n        /* \"#utility.yul\":6624:6627   */\n      0x00\n        /* \"#utility.yul\":6645:6650   */\n      dup2\n        /* \"#utility.yul\":6638:6650   */\n      swap1\n      pop\n        /* \"#utility.yul\":6596:6656   */\n      swap2\n      swap1\n      pop\n      jump\t// out\n        /* \"#utility.yul\":6662:6818   */\n    tag_223:\n        /* \"#utility.yul\":6719:6728   */\n      0x00\n        /* \"#utility.yul\":6752:6812   */\n      tag_308\n        /* \"#utility.yul\":6769:6811   */\n      tag_309\n        /* \"#utility.yul\":6778:6810   */\n      tag_310\n        /* \"#utility.yul\":6804:6809   */\n      dup5\n        /* \"#utility.yul\":6778:6810   */\n      tag_220\n      jump\t// in\n    tag_310:\n        /* \"#utility.yul\":6769:6811   */\n      tag_222\n      jump\t// in\n    tag_309:\n        /* \"#utility.yul\":6752:6812   */\n      tag_221\n      jump\t// in\n    tag_308:\n        /* \"#utility.yul\":6739:6812   */\n      swap1\n      pop\n        /* \"#utility.yul\":6662:6818   */\n      swap2\n      swap1\n      pop\n      jump\t// out\n        /* \"#utility.yul\":6824:6969   */\n    tag_224:\n        /* \"#utility.yul\":6918:6962   */\n      tag_312\n        /* \"#utility.yul\":6956:6961   */\n      dup2\n        /* \"#utility.yul\":6918:6962   */\n      tag_223\n      jump\t// in\n    tag_312:\n        /* \"#utility.yul\":6913:6916   */\n      dup3\n        /* \"#utility.yul\":6906:6963   */\n      mstore\n        /* \"#utility.yul\":6824:6969   */\n      pop\n      pop\n      jump\t// out\n        /* \"#utility.yul\":6975:7211   */\n    tag_83:\n        /* \"#utility.yul\":7075:7079   */\n      0x00\n        /* \"#utility.yul\":7113:7115   */\n      0x20\n        /* \"#utility.yul\":7102:7111   */\n      dup3\n        /* \"#utility.yul\":7098:7116   */\n      add\n        /* \"#utility.yul\":7090:7116   */\n      swap1\n      pop\n        /* \"#utility.yul\":7126:7204   */\n      tag_314\n        /* \"#utility.yul\":7201:7202   */\n      0x00\n        /* \"#utility.yul\":7190:7199   */\n      dup4\n        /* \"#utility.yul\":7186:7203   */\n      add\n        /* \"#utility.yul\":7177:7183   */\n      dup5\n        /* \"#utility.yul\":7126:7204   */\n      tag_224\n      jump\t// in\n    tag_314:\n        /* \"#utility.yul\":6975:7211   */\n      swap3\n      swap2\n      pop\n      pop\n      jump\t// out\n        /* \"#utility.yul\":7217:7397   */\n    tag_225:\n        /* \"#utility.yul\":7265:7342   */\n      0x4e487b7100000000000000000000000000000000000000000000000000000000\n        /* \"#utility.yul\":7262:7263   */\n      0x00\n        /* \"#utility.yul\":7255:7343   */\n      mstore\n        /* \"#utility.yul\":7362:7366   */\n      0x11\n        /* \"#utility.yul\":7359:7360   */\n      0x04\n        /* \"#utility.yul\":7352:7367   */\n      mstore\n        /* \"#utility.yul\":7386:7390   */\n      0x24\n        /* \"#utility.yul\":7383:7384   */\n      0x00\n        /* \"#utility.yul\":7376:7391   */\n      revert\n        /* \"#utility.yul\":7403:7594   */\n    tag_89:\n        /* \"#utility.yul\":7443:7446   */\n      0x00\n        /* \"#utility.yul\":7462:7482   */\n      tag_317\n        /* \"#utility.yul\":7480:7481   */\n      dup3\n        /* \"#utility.yul\":7462:7482   */\n      tag_194\n      jump\t// in\n    tag_317:\n        /* \"#utility.yul\":7457:7482   */\n      swap2\n      pop\n        /* \"#utility.yul\":7496:7516   */\n      tag_318\n        /* \"#utility.yul\":7514:7515   */\n      dup4\n        /* \"#utility.yul\":7496:7516   */\n      tag_194\n      jump\t// in\n    tag_318:\n        /* \"#utility.yul\":7491:7516   */\n      swap3\n      pop\n        /* \"#utility.yul\":7539:7540   */\n      dup3\n        /* \"#utility.yul\":7536:7537   */\n      dup3\n        /* \"#utility.yul\":7532:7541   */\n      add\n        /* \"#utility.yul\":7525:7541   */\n      swap1\n      pop\n        /* \"#utility.yul\":7560:7563   */\n      dup1\n        /* \"#utility.yul\":7557:7558   */\n      dup3\n        /* \"#utility.yul\":7554:7564   */\n      gt\n        /* \"#utility.yul\":7551:7587   */\n      iszero\n      tag_319\n      jumpi\n        /* \"#utility.yul\":7567:7585   */\n      tag_320\n      tag_225\n      jump\t// in\n    tag_320:\n        /* \"#utility.yul\":7551:7587   */\n    tag_319:\n        /* \"#utility.yul\":7403:7594   */\n      swap3\n      swap2\n      pop\n      pop\n      jump\t// out\n        /* \"#utility.yul\":7600:7722   */\n    tag_226:\n        /* \"#utility.yul\":7673:7697   */\n      tag_322\n        /* \"#utility.yul\":7691:7696   */\n      dup2\n        /* \"#utility.yul\":7673:7697   */\n      tag_213\n      jump\t// in\n    tag_322:\n        /* \"#utility.yul\":7666:7671   */\n      dup2\n        /* \"#utility.yul\":7663:7698   */\n      eq\n        /* \"#utility.yul\":7653:7716   */\n      tag_323\n      jumpi\n        /* \"#utility.yul\":7712:7713   */\n      0x00\n        /* \"#utility.yul\":7709:7710   */\n      0x00\n        /* \"#utility.yul\":7702:7714   */\n      revert\n        /* \"#utility.yul\":7653:7716   */\n    tag_323:\n        /* \"#utility.yul\":7600:7722   */\n      pop\n      jump\t// out\n        /* \"#utility.yul\":7728:7871   */\n    tag_227:\n        /* \"#utility.yul\":7785:7790   */\n      0x00\n        /* \"#utility.yul\":7816:7822   */\n      dup2\n        /* \"#utility.yul\":7810:7823   */\n      mload\n        /* \"#utility.yul\":7801:7823   */\n      swap1\n      pop\n        /* \"#utility.yul\":7832:7865   */\n      tag_325\n        /* \"#utility.yul\":7859:7864   */\n      dup2\n        /* \"#utility.yul\":7832:7865   */\n      tag_226\n      jump\t// in\n    tag_325:\n        /* \"#utility.yul\":7728:7871   */\n      swap3\n      swap2\n      pop\n      pop\n      jump\t// out\n        /* \"#utility.yul\":7877:8228   */\n    tag_107:\n        /* \"#utility.yul\":7947:7953   */\n      0x00\n        /* \"#utility.yul\":7996:7998   */\n      0x20\n        /* \"#utility.yul\":7984:7993   */\n      dup3\n        /* \"#utility.yul\":7975:7982   */\n      dup5\n        /* \"#utility.yul\":7971:7994   */\n      sub\n        /* \"#utility.yul\":7967:7999   */\n      slt\n        /* \"#utility.yul\":7964:8083   */\n      iszero\n      tag_327\n      jumpi\n        /* \"#utility.yul\":8002:8081   */\n      tag_328\n      tag_197\n      jump\t// in\n    tag_328:\n        /* \"#utility.yul\":7964:8083   */\n    tag_327:\n        /* \"#utility.yul\":8122:8123   */\n      0x00\n        /* \"#utility.yul\":8147:8211   */\n      tag_329\n        /* \"#utility.yul\":8203:8210   */\n      dup5\n        /* \"#utility.yul\":8194:8200   */\n      dup3\n        /* \"#utility.yul\":8183:8192   */\n      dup6\n        /* \"#utility.yul\":8179:8201   */\n      add\n        /* \"#utility.yul\":8147:8211   */\n      tag_227\n      jump\t// in\n    tag_329:\n        /* \"#utility.yul\":8137:8211   */\n      swap2\n      pop\n        /* \"#utility.yul\":8093:8221   */\n      pop\n        /* \"#utility.yul\":7877:8228   */\n      swap3\n      swap2\n      pop\n      pop\n      jump\t// out\n        /* \"#utility.yul\":8234:8332   */\n    tag_228:\n        /* \"#utility.yul\":8285:8291   */\n      0x00\n        /* \"#utility.yul\":8319:8324   */\n      dup2\n        /* \"#utility.yul\":8313:8325   */\n      mload\n        /* \"#utility.yul\":8303:8325   */\n      swap1\n      pop\n        /* \"#utility.yul\":8234:8332   */\n      swap2\n      swap1\n      pop\n      jump\t// out\n        /* \"#utility.yul\":8338:8485   */\n    tag_229:\n        /* \"#utility.yul\":8439:8450   */\n      0x00\n        /* \"#utility.yul\":8476:8479   */\n      dup2\n        /* \"#utility.yul\":8461:8479   */\n      swap1\n      pop\n        /* \"#utility.yul\":8338:8485   */\n      swap3\n      swap2\n      pop\n      pop\n      jump\t// out\n        /* \"#utility.yul\":8491:8877   */\n    tag_230:\n        /* \"#utility.yul\":8595:8598   */\n      0x00\n        /* \"#utility.yul\":8623:8661   */\n      tag_333\n        /* \"#utility.yul\":8655:8660   */\n      dup3\n        /* \"#utility.yul\":8623:8661   */\n      tag_228\n      jump\t// in\n    tag_333:\n        /* \"#utility.yul\":8677:8765   */\n      tag_334\n        /* \"#utility.yul\":8758:8764   */\n      dup2\n        /* \"#utility.yul\":8753:8756   */\n      dup6\n        /* \"#utility.yul\":8677:8765   */\n      tag_229\n      jump\t// in\n    tag_334:\n        /* \"#utility.yul\":8670:8765   */\n      swap4\n      pop\n        /* \"#utility.yul\":8774:8839   */\n      tag_335\n        /* \"#utility.yul\":8832:8838   */\n      dup2\n        /* \"#utility.yul\":8827:8830   */\n      dup6\n        /* \"#utility.yul\":8820:8824   */\n      0x20\n        /* \"#utility.yul\":8813:8818   */\n      dup7\n        /* \"#utility.yul\":8809:8825   */\n      add\n        /* \"#utility.yul\":8774:8839   */\n      tag_218\n      jump\t// in\n    tag_335:\n        /* \"#utility.yul\":8864:8870   */\n      dup1\n        /* \"#utility.yul\":8859:8862   */\n      dup5\n        /* \"#utility.yul\":8855:8871   */\n      add\n        /* \"#utility.yul\":8848:8871   */\n      swap2\n      pop\n        /* \"#utility.yul\":8599:8877   */\n      pop\n        /* \"#utility.yul\":8491:8877   */\n      swap3\n      swap2\n      pop\n      pop\n      jump\t// out\n        /* \"#utility.yul\":8883:9154   */\n    tag_173:\n        /* \"#utility.yul\":9013:9016   */\n      0x00\n        /* \"#utility.yul\":9035:9128   */\n      tag_337\n        /* \"#utility.yul\":9124:9127   */\n      dup3\n        /* \"#utility.yul\":9115:9121   */\n      dup5\n        /* \"#utility.yul\":9035:9128   */\n      tag_230\n      jump\t// in\n    tag_337:\n        /* \"#utility.yul\":9028:9128   */\n      swap2\n      pop\n        /* \"#utility.yul\":9145:9148   */\n      dup2\n        /* \"#utility.yul\":9138:9148   */\n      swap1\n      pop\n        /* \"#utility.yul\":8883:9154   */\n      swap3\n      swap2\n      pop\n      pop\n      jump\t// out\n\n    auxdata: 0xa26469706673582212201c2198aa40b66d575499622614822db1690b8f809f021a0a06f2aa1003d6829564736f6c634300081e0033\n}\n",
				"bytecode": {
					"linkReferences": {},
					"object": "60a06040523073ffffffffffffffffffffffffffffffffffffffff1660809073ffffffffffffffffffffffffffffffffffffffff168152503480156041575f5ffd5b5060805161121d6100685f395f81816104bb0152818161051001526106ca015261121d5ff3fe608060405260043610610085575f3560e01c80638129fc1c116100585780638129fc1c1461010f5780638da5cb5b14610125578063ad3cb1cc1461014f578063d09de08a14610179578063f2fde38b1461018f57610085565b806306661abd146100895780634f1ef286146100b357806352d1902d146100cf578063715018a6146100f9575b5f5ffd5b348015610094575f5ffd5b5061009d6101b7565b6040516100aa9190610d4c565b60405180910390f35b6100cd60048036038101906100c89190610f0c565b6101bc565b005b3480156100da575f5ffd5b506100e36101db565b6040516100f09190610f7e565b60405180910390f35b348015610104575f5ffd5b5061010d61020c565b005b34801561011a575f5ffd5b5061012361021f565b005b348015610130575f5ffd5b506101396103ad565b6040516101469190610fa6565b60405180910390f35b34801561015a575f5ffd5b506101636103e2565b604051610170919061101f565b60405180910390f35b348015610184575f5ffd5b5061018d61041b565b005b34801561019a575f5ffd5b506101b560048036038101906101b0919061103f565b610435565b005b5f5481565b6101c46104b9565b6101cd8261059f565b6101d782826105aa565b5050565b5f6101e46106c8565b7f360894a13ba1a3210667c828492db98dca3e2076cc3735a920a3ca505d382bbc5f1b905090565b61021461074f565b61021d5f6107d6565b565b5f6102286108a7565b90505f815f0160089054906101000a900460ff161590505f825f015f9054906101000a900467ffffffffffffffff1690505f5f8267ffffffffffffffff161480156102705750825b90505f60018367ffffffffffffffff161480156102a357505f3073ffffffffffffffffffffffffffffffffffffffff163b145b9050811580156102b1575080155b156102e8576040517ff92ee8a900000000000000000000000000000000000000000000000000000000815260040160405180910390fd5b6001855f015f6101000a81548167ffffffffffffffff021916908367ffffffffffffffff1602179055508315610335576001855f0160086101000a81548160ff0219169083151502179055505b61033e336108ba565b6103466108ce565b5f5f8190555083156103a6575f855f0160086101000a81548160ff0219169083151502179055507fc7f505b2f371ae2175ee4913f4499e1f2633a7b5936321eed1cdaeb6115181d2600160405161039d91906110bf565b60405180910390a15b5050505050565b5f5f6103b76108d8565b9050805f015f9054906101000a900473ffffffffffffffffffffffffffffffffffffffff1691505090565b6040518060400160405280600581526020017f352e302e3000000000000000000000000000000000000000000000000000000081525081565b60015f5f82825461042c9190611105565b92505081905550565b61043d61074f565b5f73ffffffffffffffffffffffffffffffffffffffff168173ffffffffffffffffffffffffffffffffffffffff16036104ad575f6040517f1e4fbdf70000000000000000000000000000000000000000000000000000000081526004016104a49190610fa6565b60405180910390fd5b6104b6816107d6565b50565b7f000000000000000000000000000000000000000000000000000000000000000073ffffffffffffffffffffffffffffffffffffffff163073ffffffffffffffffffffffffffffffffffffffff16148061056657507f000000000000000000000000000000000000000000000000000000000000000073ffffffffffffffffffffffffffffffffffffffff1661054d6108ff565b73ffffffffffffffffffffffffffffffffffffffff1614155b1561059d576040517fe07c8dba00000000000000000000000000000000000000000000000000000000815260040160405180910390fd5b565b6105a761074f565b50565b8173ffffffffffffffffffffffffffffffffffffffff166352d1902d6040518163ffffffff1660e01b8152600401602060405180830381865afa92505050801561061257506040513d601f19601f8201168201806040525081019061060f9190611162565b60015b61065357816040517f4c9c8ce300000000000000000000000000000000000000000000000000000000815260040161064a9190610fa6565b60405180910390fd5b7f360894a13ba1a3210667c828492db98dca3e2076cc3735a920a3ca505d382bbc5f1b81146106b957806040517faa1d49a40000000000000000000000000000000000000000000000000000000081526004016106b09190610f7e565b60405180910390fd5b6106c38383610952565b505050565b7f000000000000000000000000000000000000000000000000000000000000000073ffffffffffffffffffffffffffffffffffffffff163073ffffffffffffffffffffffffffffffffffffffff161461074d576040517fe07c8dba00000000000000000000000000000000000000000000000000000000815260040160405180910390fd5b565b6107576109c4565b73ffffffffffffffffffffffffffffffffffffffff166107756103ad565b73ffffffffffffffffffffffffffffffffffffffff16146107d4576107986109c4565b6040517f118cdaa70000000000000000000000000000000000000000000000000000000081526004016107cb9190610fa6565b60405180910390fd5b565b5f6107df6108d8565b90505f815f015f9054906101000a900473ffffffffffffffffffffffffffffffffffffffff16905082825f015f6101000a81548173ffffffffffffffffffffffffffffffffffffffff021916908373ffffffffffffffffffffffffffffffffffffffff1602179055508273ffffffffffffffffffffffffffffffffffffffff168173ffffffffffffffffffffffffffffffffffffffff167f8be0079c531659141344cd1fd0a4f28419497f9722a3daafe3b4186f6b6457e060405160405180910390a3505050565b5f5f6108b16109cb565b90508091505090565b6108c26109f4565b6108cb81610a34565b50565b6108d66109f4565b565b5f7f9016d09d72d40fdae2fd8ceac6b6234c7706214fd39c1cd1e609a0528c199300905090565b5f61092b7f360894a13ba1a3210667c828492db98dca3e2076cc3735a920a3ca505d382bbc5f1b610ab8565b5f015f9054906101000a900473ffffffffffffffffffffffffffffffffffffffff16905090565b61095b82610ac1565b8173ffffffffffffffffffffffffffffffffffffffff167fbc7cd75a20ee27fd9adebab32041f755214dbc6bffa90cc0225b39da2e5c2d3b60405160405180910390a25f815111156109b7576109b18282610b8a565b506109c0565b6109bf610c0a565b5b5050565b5f33905090565b5f7ff0c57e16840df040f15088dc2f81fe391c3923bec73e23a9662efc9c229c6a005f1b905090565b6109fc610c46565b610a32576040517fd7e6bcf800000000000000000000000000000000000000000000000000000000815260040160405180910390fd5b565b610a3c6109f4565b5f73ffffffffffffffffffffffffffffffffffffffff168173ffffffffffffffffffffffffffffffffffffffff1603610aac575f6040517f1e4fbdf7000000000000000000000000000000000000000000000000000000008152600401610aa39190610fa6565b60405180910390fd5b610ab5816107d6565b50565b5f819050919050565b5f8173ffffffffffffffffffffffffffffffffffffffff163b03610b1c57806040517f4c9c8ce3000000000000000000000000000000000000000000000000000000008152600401610b139190610fa6565b60405180910390fd5b80610b487f360894a13ba1a3210667c828492db98dca3e2076cc3735a920a3ca505d382bbc5f1b610ab8565b5f015f6101000a81548173ffffffffffffffffffffffffffffffffffffffff021916908373ffffffffffffffffffffffffffffffffffffffff16021790555050565b60605f5f8473ffffffffffffffffffffffffffffffffffffffff1684604051610bb391906111d1565b5f60405180830381855af49150503d805f8114610beb576040519150601f19603f3d011682016040523d82523d5f602084013e610bf0565b606091505b5091509150610c00858383610c64565b9250505092915050565b5f341115610c44576040517fb398979f00000000000000000000000000000000000000000000000000000000815260040160405180910390fd5b565b5f610c4f6108a7565b5f0160089054906101000a900460ff16905090565b606082610c7957610c7482610cf1565b610ce9565b5f8251148015610c9f57505f8473ffffffffffffffffffffffffffffffffffffffff163b145b15610ce157836040517f9996b315000000000000000000000000000000000000000000000000000000008152600401610cd89190610fa6565b60405180910390fd5b819050610cea565b5b9392505050565b5f81511115610d0257805160208201fd5b6040517fd6bda27500000000000000000000000000000000000000000000000000000000815260040160405180910390fd5b5f819050919050565b610d4681610d34565b82525050565b5f602082019050610d5f5f830184610d3d565b92915050565b5f604051905090565b5f5ffd5b5f5ffd5b5f73ffffffffffffffffffffffffffffffffffffffff82169050919050565b5f610d9f82610d76565b9050919050565b610daf81610d95565b8114610db9575f5ffd5b50565b5f81359050610dca81610da6565b92915050565b5f5ffd5b5f5ffd5b5f601f19601f8301169050919050565b7f4e487b71000000000000000000000000000000000000000000000000000000005f52604160045260245ffd5b610e1e82610dd8565b810181811067ffffffffffffffff82111715610e3d57610e3c610de8565b5b80604052505050565b5f610e4f610d65565b9050610e5b8282610e15565b919050565b5f67ffffffffffffffff821115610e7a57610e79610de8565b5b610e8382610dd8565b9050602081019050919050565b828183375f83830152505050565b5f610eb0610eab84610e60565b610e46565b905082815260208101848484011115610ecc57610ecb610dd4565b5b610ed7848285610e90565b509392505050565b5f82601f830112610ef357610ef2610dd0565b5b8135610f03848260208601610e9e565b91505092915050565b5f5f60408385031215610f2257610f21610d6e565b5b5f610f2f85828601610dbc565b925050602083013567ffffffffffffffff811115610f5057610f4f610d72565b5b610f5c85828601610edf565b9150509250929050565b5f819050919050565b610f7881610f66565b82525050565b5f602082019050610f915f830184610f6f565b92915050565b610fa081610d95565b82525050565b5f602082019050610fb95f830184610f97565b92915050565b5f81519050919050565b5f82825260208201905092915050565b8281835e5f83830152505050565b5f610ff182610fbf565b610ffb8185610fc9565b935061100b818560208601610fd9565b61101481610dd8565b840191505092915050565b5f6020820190508181035f8301526110378184610fe7565b905092915050565b5f6020828403121561105457611053610d6e565b5b5f61106184828501610dbc565b91505092915050565b5f819050919050565b5f67ffffffffffffffff82169050919050565b5f819050919050565b5f6110a96110a461109f8461106a565b611086565b611073565b9050919050565b6110b98161108f565b82525050565b5f6020820190506110d25f8301846110b0565b92915050565b7f4e487b71000000000000000000000000000000000000000000000000000000005f52601160045260245ffd5b5f61110f82610d34565b915061111a83610d34565b9250828201905080821115611132576111316110d8565b5b92915050565b61114181610f66565b811461114b575f5ffd5b50565b5f8151905061115c81611138565b92915050565b5f6020828403121561117757611176610d6e565b5b5f6111848482850161114e565b91505092915050565b5f81519050919050565b5f81905092915050565b5f6111ab8261118d565b6111b58185611197565b93506111c5818560208601610fd9565b80840191505092915050565b5f6111dc82846111a1565b91508190509291505056fea26469706673582212201c2198aa40b66d575499622614822db1690b8f809f021a0a06f2aa1003d6829564736f6c634300081e0033",
					"opcodes": "PUSH1 0xA0 PUSH1 0x40 MSTORE ADDRESS PUSH20 0xFFFFFFFFFFFFFFFFFFFFFFFFFFFFFFFFFFFFFFFF AND PUSH1 0x80 SWAP1 PUSH20 0xFFFFFFFFFFFFFFFFFFFFFFFFFFFFFFFFFFFFFFFF AND DUP2 MSTORE POP CALLVALUE DUP1 ISZERO PUSH1 0x41 JUMPI PUSH0 PUSH0 REVERT JUMPDEST POP PUSH1 0x80 MLOAD PUSH2 0x121D PUSH2 0x68 PUSH0 CODECOPY PUSH0 DUP2 DUP2 PUSH2 0x4BB ADD MSTORE DUP2 DUP2 PUSH2 0x510 ADD MSTORE PUSH2 0x6CA ADD MSTORE PUSH2 0x121D PUSH0 RETURN INVALID PUSH1 0x80 PUSH1 0x40 MSTORE PUSH1 0x4 CALLDATASIZE LT PUSH2 0x85 JUMPI PUSH0 CALLDATALOAD PUSH1 0xE0 SHR DUP1 PUSH4 0x8129FC1C GT PUSH2 0x58 JUMPI DUP1 PUSH4 0x8129FC1C EQ PUSH2 0x10F JUMPI DUP1 PUSH4 0x8DA5CB5B EQ PUSH2 0x125 JUMPI DUP1 PUSH4 0xAD3CB1CC EQ PUSH2 0x14F JUMPI DUP1 PUSH4 0xD09DE08A EQ PUSH2 0x179 JUMPI DUP1 PUSH4 0xF2FDE38B EQ PUSH2 0x18F JUMPI PUSH2 0x85 JUMP JUMPDEST DUP1 PUSH4 0x6661ABD EQ PUSH2 0x89 JUMPI DUP1 PUSH4 0x4F1EF286 EQ PUSH2 0xB3 JUMPI DUP1 PUSH4 0x52D1902D EQ PUSH2 0xCF JUMPI DUP1 PUSH4 0x715018A6 EQ PUSH2 0xF9 JUMPI JUMPDEST PUSH0 PUSH0 REVERT JUMPDEST CALLVALUE DUP1 ISZERO PUSH2 0x94 JUMPI PUSH0 PUSH0 REVERT JUMPDEST POP PUSH2 0x9D PUSH2 0x1B7 JUMP JUMPDEST PUSH1 0x40 MLOAD PUSH2 0xAA SWAP2 SWAP1 PUSH2 0xD4C JUMP JUMPDEST PUSH1 0x40 MLOAD DUP1 SWAP2 SUB SWAP1 RETURN JUMPDEST PUSH2 0xCD PUSH1 0x4 DUP1 CALLDATASIZE SUB DUP2 ADD SWAP1 PUSH2 0xC8 SWAP2 SWAP1 PUSH2 0xF0C JUMP JUMPDEST PUSH2 0x1BC JUMP JUMPDEST STOP JUMPDEST CALLVALUE DUP1 ISZERO PUSH2 0xDA JUMPI PUSH0 PUSH0 REVERT JUMPDEST POP PUSH2 0xE3 PUSH2 0x1DB JUMP JUMPDEST PUSH1 0x40 MLOAD PUSH2 0xF0 SWAP2 SWAP1 PUSH2 0xF7E JUMP JUMPDEST PUSH1 0x40 MLOAD DUP1 SWAP2 SUB SWAP1 RETURN JUMPDEST CALLVALUE DUP1 ISZERO PUSH2 0x104 JUMPI PUSH0 PUSH0 REVERT JUMPDEST POP PUSH2 0x10D PUSH2 0x20C JUMP JUMPDEST STOP JUMPDEST CALLVALUE DUP1 ISZERO PUSH2 0x11A JUMPI PUSH0 PUSH0 REVERT JUMPDEST POP PUSH2 0x123 PUSH2 0x21F JUMP JUMPDEST STOP JUMPDEST CALLVALUE DUP1 ISZERO PUSH2 0x130 JUMPI PUSH0 PUSH0 REVERT JUMPDEST POP PUSH2 0x139 PUSH2 0x3AD JUMP JUMPDEST PUSH1 0x40 MLOAD PUSH2 0x146 SWAP2 SWAP1 PUSH2 0xFA6 JUMP JUMPDEST PUSH1 0x40 MLOAD DUP1 SWAP2 SUB SWAP1 RETURN JUMPDEST CALLVALUE DUP1 ISZERO PUSH2 0x15A JUMPI PUSH0 PUSH0 REVERT JUMPDEST POP PUSH2 0x163 PUSH2 0x3E2 JUMP JUMPDEST PUSH1 0x40 MLOAD PUSH2 0x170 SWAP2 SWAP1 PUSH2 0x101F JUMP JUMPDEST PUSH1 0x40 MLOAD DUP1 SWAP2 SUB SWAP1 RETURN JUMPDEST CALLVALUE DUP1 ISZERO PUSH2 0x184 JUMPI PUSH0 PUSH0 REVERT JUMPDEST POP PUSH2 0x18D PUSH2 0x41B JUMP JUMPDEST STOP JUMPDEST CALLVALUE DUP1 ISZERO PUSH2 0x19A JUMPI PUSH0 PUSH0 REVERT JUMPDEST POP PUSH2 0x1B5 PUSH1 0x4 DUP1 CALLDATASIZE SUB DUP2 ADD SWAP1 PUSH2 0x1B0 SWAP2 SWAP1 PUSH2 0x103F JUMP JUMPDEST PUSH2 0x435 JUMP JUMPDEST STOP JUMPDEST PUSH0 SLOAD DUP2 JUMP JUMPDEST PUSH2 0x1C4 PUSH2 0x4B9 JUMP JUMPDEST PUSH2 0x1CD DUP3 PUSH2 0x59F JUMP JUMPDEST PUSH2 0x1D7 DUP3 DUP3 PUSH2 0x5AA JUMP JUMPDEST POP POP JUMP JUMPDEST PUSH0 PUSH2 0x1E4 PUSH2 0x6C8 JUMP JUMPDEST PUSH32 0x360894A13BA1A3210667C828492DB98DCA3E2076CC3735A920A3CA505D382BBC PUSH0 SHL SWAP1 POP SWAP1 JUMP JUMPDEST PUSH2 0x214 PUSH2 0x74F JUMP JUMPDEST PUSH2 0x21D PUSH0 PUSH2 0x7D6 JUMP JUMPDEST JUMP JUMPDEST PUSH0 PUSH2 0x228 PUSH2 0x8A7 JUMP JUMPDEST SWAP1 POP PUSH0 DUP2 PUSH0 ADD PUSH1 0x8 SWAP1 SLOAD SWAP1 PUSH2 0x100 EXP SWAP1 DIV PUSH1 0xFF AND ISZERO SWAP1 POP PUSH0 DUP3 PUSH0 ADD PUSH0 SWAP1 SLOAD SWAP1 PUSH2 0x100 EXP SWAP1 DIV PUSH8 0xFFFFFFFFFFFFFFFF AND SWAP1 POP PUSH0 PUSH0 DUP3 PUSH8 0xFFFFFFFFFFFFFFFF AND EQ DUP1 ISZERO PUSH2 0x270 JUMPI POP DUP3 JUMPDEST SWAP1 POP PUSH0 PUSH1 0x1 DUP4 PUSH8 0xFFFFFFFFFFFFFFFF AND EQ DUP1 ISZERO PUSH2 0x2A3 JUMPI POP PUSH0 ADDRESS PUSH20 0xFFFFFFFFFFFFFFFFFFFFFFFFFFFFFFFFFFFFFFFF AND EXTCODESIZE EQ JUMPDEST SWAP1 POP DUP2 ISZERO DUP1 ISZERO PUSH2 0x2B1 JUMPI POP DUP1 ISZERO JUMPDEST ISZERO PUSH2 0x2E8 JUMPI PUSH1 0x40 MLOAD PUSH32 0xF92EE8A900000000000000000000000000000000000000000000000000000000 DUP2 MSTORE PUSH1 0x4 ADD PUSH1 0x40 MLOAD DUP1 SWAP2 SUB SWAP1 REVERT JUMPDEST PUSH1 0x1 DUP6 PUSH0 ADD PUSH0 PUSH2 0x100 EXP DUP2 SLOAD DUP2 PUSH8 0xFFFFFFFFFFFFFFFF MUL NOT AND SWAP1 DUP4 PUSH8 0xFFFFFFFFFFFFFFFF AND MUL OR SWAP1 SSTORE POP DUP4 ISZERO PUSH2 0x335 JUMPI PUSH1 0x1 DUP6 PUSH0 ADD PUSH1 0x8 PUSH2 0x100 EXP DUP2 SLOAD DUP2 PUSH1 0xFF MUL NOT AND SWAP1 DUP4 ISZERO ISZERO MUL OR SWAP1 SSTORE POP JUMPDEST PUSH2 0x33E CALLER PUSH2 0x8BA JUMP JUMPDEST PUSH2 0x346 PUSH2 0x8CE JUMP JUMPDEST PUSH0 PUSH0 DUP2 SWAP1 SSTORE POP DUP4 ISZERO PUSH2 0x3A6 JUMPI PUSH0 DUP6 PUSH0 ADD PUSH1 0x8 PUSH2 0x100 EXP DUP2 SLOAD DUP2 PUSH1 0xFF MUL NOT AND SWAP1 DUP4 ISZERO ISZERO MUL OR SWAP1 SSTORE POP PUSH32 0xC7F505B2F371AE2175EE4913F4499E1F2633A7B5936321EED1CDAEB6115181D2 PUSH1 0x1 PUSH1 0x40 MLOAD PUSH2 0x39D SWAP2 SWAP1 PUSH2 0x10BF JUMP JUMPDEST PUSH1 0x40 MLOAD DUP1 SWAP2 SUB SWAP1 LOG1 JUMPDEST POP POP POP POP POP JUMP JUMPDEST PUSH0 PUSH0 PUSH2 0x3B7 PUSH2 0x8D8 JUMP JUMPDEST SWAP1 POP DUP1 PUSH0 ADD PUSH0 SWAP1 SLOAD SWAP1 PUSH2 0x100 EXP SWAP1 DIV PUSH20 0xFFFFFFFFFFFFFFFFFFFFFFFFFFFFFFFFFFFFFFFF AND SWAP2 POP POP SWAP1 JUMP JUMPDEST PUSH1 0x40 MLOAD DUP1 PUSH1 0x40 ADD PUSH1 0x40 MSTORE DUP1 PUSH1 0x5 DUP2 MSTORE PUSH1 0x20 ADD PUSH32 0x352E302E30000000000000000000000000000000000000000000000000000000 DUP2 MSTORE POP DUP2 JUMP JUMPDEST PUSH1 0x1 PUSH0 PUSH0 DUP3 DUP3 SLOAD PUSH2 0x42C SWAP2 SWAP1 PUSH2 0x1105 JUMP JUMPDEST SWAP3 POP POP DUP2 SWAP1 SSTORE POP JUMP JUMPDEST PUSH2 0x43D PUSH2 0x74F JUMP JUMPDEST PUSH0 PUSH20 0xFFFFFFFFFFFFFFFFFFFFFFFFFFFFFFFFFFFFFFFF AND DUP2 PUSH20 0xFFFFFFFFFFFFFFFFFFFFFFFFFFFFFFFFFFFFFFFF AND SUB PUSH2 0x4AD JUMPI PUSH0 PUSH1 0x40 MLOAD PUSH32 0x1E4FBDF700000000000000000000000000000000000000000000000000000000 DUP2 MSTORE PUSH1 0x4 ADD PUSH2 0x4A4 SWAP2 SWAP1 PUSH2 0xFA6 JUMP JUMPDEST PUSH1 0x40 MLOAD DUP1 SWAP2 SUB SWAP1 REVERT JUMPDEST PUSH2 0x4B6 DUP2 PUSH2 0x7D6 JUMP JUMPDEST POP JUMP JUMPDEST PUSH32 0x0 PUSH20 0xFFFFFFFFFFFFFFFFFFFFFFFFFFFFFFFFFFFFFFFF AND ADDRESS PUSH20 0xFFFFFFFFFFFFFFFFFFFFFFFFFFFFFFFFFFFFFFFF AND EQ DUP1 PUSH2 0x566 JUMPI POP PUSH32 0x0 PUSH20 0xFFFFFFFFFFFFFFFFFFFFFFFFFFFFFFFFFFFFFFFF AND PUSH2 0x54D PUSH2 0x8FF JUMP JUMPDEST PUSH20 0xFFFFFFFFFFFFFFFFFFFFFFFFFFFFFFFFFFFFFFFF AND EQ ISZERO JUMPDEST ISZERO PUSH2 0x59D JUMPI PUSH1 0x40 MLOAD PUSH32 0xE07C8DBA00000000000000000000000000000000000000000000000000000000 DUP2 MSTORE PUSH1 0x4 ADD PUSH1 0x40 MLOAD DUP1 SWAP2 SUB SWAP1 REVERT JUMPDEST JUMP JUMPDEST PUSH2 0x5A7 PUSH2 0x74F JUMP JUMPDEST POP JUMP JUMPDEST DUP2 PUSH20 0xFFFFFFFFFFFFFFFFFFFFFFFFFFFFFFFFFFFFFFFF AND PUSH4 0x52D1902D PUSH1 0x40 MLOAD DUP2 PUSH4 0xFFFFFFFF AND PUSH1 0xE0 SHL DUP2 MSTORE PUSH1 0x4 ADD PUSH1 0x20 PUSH1 0x40 MLOAD DUP1 DUP4 SUB DUP2 DUP7 GAS STATICCALL SWAP3 POP POP POP DUP1 ISZERO PUSH2 0x612 JUMPI POP PUSH1 0x40 MLOAD RETURNDATASIZE PUSH1 0x1F NOT PUSH1 0x1F DUP3 ADD AND DUP3 ADD DUP1 PUSH1 0x40 MSTORE POP DUP2 ADD SWAP1 PUSH2 0x60F SWAP2 SWAP1 PUSH2 0x1162 JUMP JUMPDEST PUSH1 0x1 JUMPDEST PUSH2 0x653 JUMPI DUP2 PUSH1 0x40 MLOAD PUSH32 0x4C9C8CE300000000000000000000000000000000000000000000000000000000 DUP2 MSTORE PUSH1 0x4 ADD PUSH2 0x64A SWAP2 SWAP1 PUSH2 0xFA6 JUMP JUMPDEST PUSH1 0x40 MLOAD DUP1 SWAP2 SUB SWAP1 REVERT JUMPDEST PUSH32 0x360894A13BA1A3210667C828492DB98DCA3E2076CC3735A920A3CA505D382BBC PUSH0 SHL DUP2 EQ PUSH2 0x6B9 JUMPI DUP1 PUSH1 0x40 MLOAD PUSH32 0xAA1D49A400000000000000000000000000000000000000000000000000000000 DUP2 MSTORE PUSH1 0x4 ADD PUSH2 0x6B0 SWAP2 SWAP1 PUSH2 0xF7E JUMP JUMPDEST PUSH1 0x40 MLOAD DUP1 SWAP2 SUB SWAP1 REVERT JUMPDEST PUSH2 0x6C3 DUP4 DUP4 PUSH2 0x952 JUMP JUMPDEST POP POP POP JUMP JUMPDEST PUSH32 0x0 PUSH20 0xFFFFFFFFFFFFFFFFFFFFFFFFFFFFFFFFFFFFFFFF AND ADDRESS PUSH20 0xFFFFFFFFFFFFFFFFFFFFFFFFFFFFFFFFFFFFFFFF AND EQ PUSH2 0x74D JUMPI PUSH1 0x40 MLOAD PUSH32 0xE07C8DBA00000000000000000000000000000000000000000000000000000000 DUP2 MSTORE PUSH1 0x4 ADD PUSH1 0x40 MLOAD DUP1 SWAP2 SUB SWAP1 REVERT JUMPDEST JUMP JUMPDEST PUSH2 0x757 PUSH2 0x9C4 JUMP JUMPDEST PUSH20 0xFFFFFFFFFFFFFFFFFFFFFFFFFFFFFFFFFFFFFFFF AND PUSH2 0x775 PUSH2 0x3AD JUMP JUMPDEST PUSH20 0xFFFFFFFFFFFFFFFFFFFFFFFFFFFFFFFFFFFFFFFF AND EQ PUSH2 0x7D4 JUMPI PUSH2 0x798 PUSH2 0x9C4 JUMP JUMPDEST PUSH1 0x40 MLOAD PUSH32 0x118CDAA700000000000000000000000000000000000000000000000000000000 DUP2 MSTORE PUSH1 0x4 ADD PUSH2 0x7CB SWAP2 SWAP1 PUSH2 0xFA6 JUMP JUMPDEST PUSH1 0x40 MLOAD DUP1 SWAP2 SUB SWAP1 REVERT JUMPDEST JUMP JUMPDEST PUSH0 PUSH2 0x7DF PUSH2 0x8D8 JUMP JUMPDEST SWAP1 POP PUSH0 DUP2 PUSH0 ADD PUSH0 SWAP1 SLOAD SWAP1 PUSH2 0x100 EXP SWAP1 DIV PUSH20 0xFFFFFFFFFFFFFFFFFFFFFFFFFFFFFFFFFFFFFFFF AND SWAP1 POP DUP3 DUP3 PUSH0 ADD PUSH0 PUSH2 0x100 EXP DUP2 SLOAD DUP2 PUSH20 0xFFFFFFFFFFFFFFFFFFFFFFFFFFFFFFFFFFFFFFFF MUL NOT AND SWAP1 DUP4 PUSH20 0xFFFFFFFFFFFFFFFFFFFFFFFFFFFFFFFFFFFFFFFF AND MUL OR SWAP1 SSTORE POP DUP3 PUSH20 0xFFFFFFFFFFFFFFFFFFFFFFFFFFFFFFFFFFFFFFFF AND DUP2 PUSH20 0xFFFFFFFFFFFFFFFFFFFFFFFFFFFFFFFFFFFFFFFF AND PUSH32 0x8BE0079C531659141344CD1FD0A4F28419497F9722A3DAAFE3B4186F6B6457E0 PUSH1 0x40 MLOAD PUSH1 0x40 MLOAD DUP1 SWAP2 SUB SWAP1 LOG3 POP POP POP JUMP JUMPDEST PUSH0 PUSH0 PUSH2 0x8B1 PUSH2 0x9CB JUMP JUMPDEST SWAP1 POP DUP1 SWAP2 POP POP SWAP1 JUMP JUMPDEST PUSH2 0x8C2 PUSH2 0x9F4 JUMP JUMPDEST PUSH2 0x8CB DUP2 PUSH2 0xA34 JUMP JUMPDEST POP JUMP JUMPDEST PUSH2 0x8D6 PUSH2 0x9F4 JUMP JUMPDEST JUMP JUMPDEST PUSH0 PUSH32 0x9016D09D72D40FDAE2FD8CEAC6B6234C7706214FD39C1CD1E609A0528C199300 SWAP1 POP SWAP1 JUMP JUMPDEST PUSH0 PUSH2 0x92B PUSH32 0x360894A13BA1A3210667C828492DB98DCA3E2076CC3735A920A3CA505D382BBC PUSH0 SHL PUSH2 0xAB8 JUMP JUMPDEST PUSH0 ADD PUSH0 SWAP1 SLOAD SWAP1 PUSH2 0x100 EXP SWAP1 DIV PUSH20 0xFFFFFFFFFFFFFFFFFFFFFFFFFFFFFFFFFFFFFFFF AND SWAP1 POP SWAP1 JUMP JUMPDEST PUSH2 0x95B DUP3 PUSH2 0xAC1 JUMP JUMPDEST DUP2 PUSH20 0xFFFFFFFFFFFFFFFFFFFFFFFFFFFFFFFFFFFFFFFF AND PUSH32 0xBC7CD75A20EE27FD9ADEBAB32041F755214DBC6BFFA90CC0225B39DA2E5C2D3B PUSH1 0x40 MLOAD PUSH1 0x40 MLOAD DUP1 SWAP2 SUB SWAP1 LOG2 PUSH0 DUP2 MLOAD GT ISZERO PUSH2 0x9B7 JUMPI PUSH2 0x9B1 DUP3 DUP3 PUSH2 0xB8A JUMP JUMPDEST POP PUSH2 0x9C0 JUMP JUMPDEST PUSH2 0x9BF PUSH2 0xC0A JUMP JUMPDEST JUMPDEST POP POP JUMP JUMPDEST PUSH0 CALLER SWAP1 POP SWAP1 JUMP JUMPDEST PUSH0 PUSH32 0xF0C57E16840DF040F15088DC2F81FE391C3923BEC73E23A9662EFC9C229C6A00 PUSH0 SHL SWAP1 POP SWAP1 JUMP JUMPDEST PUSH2 0x9FC PUSH2 0xC46 JUMP JUMPDEST PUSH2 0xA32 JUMPI PUSH1 0x40 MLOAD PUSH32 0xD7E6BCF800000000000000000000000000000000000000000000000000000000 DUP2 MSTORE PUSH1 0x4 ADD PUSH1 0x40 MLOAD DUP1 SWAP2 SUB SWAP1 REVERT JUMPDEST JUMP JUMPDEST PUSH2 0xA3C PUSH2 0x9F4 JUMP JUMPDEST PUSH0 PUSH20 0xFFFFFFFFFFFFFFFFFFFFFFFFFFFFFFFFFFFFFFFF AND DUP2 PUSH20 0xFFFFFFFFFFFFFFFFFFFFFFFFFFFFFFFFFFFFFFFF AND SUB PUSH2 0xAAC JUMPI PUSH0 PUSH1 0x40 MLOAD PUSH32 0x1E4FBDF700000000000000000000000000000000000000000000000000000000 DUP2 MSTORE PUSH1 0x4 ADD PUSH2 0xAA3 SWAP2 SWAP1 PUSH2 0xFA6 JUMP JUMPDEST PUSH1 0x40 MLOAD DUP1 SWAP2 SUB SWAP1 REVERT JUMPDEST PUSH2 0xAB5 DUP2 PUSH2 0x7D6 JUMP JUMPDEST POP JUMP JUMPDEST PUSH0 DUP2 SWAP1 POP SWAP2 SWAP1 POP JUMP JUMPDEST PUSH0 DUP2 PUSH20 0xFFFFFFFFFFFFFFFFFFFFFFFFFFFFFFFFFFFFFFFF AND EXTCODESIZE SUB PUSH2 0xB1C JUMPI DUP1 PUSH1 0x40 MLOAD PUSH32 0x4C9C8CE300000000000000000000000000000000000000000000000000000000 DUP2 MSTORE PUSH1 0x4 ADD PUSH2 0xB13 SWAP2 SWAP1 PUSH2 0xFA6 JUMP JUMPDEST PUSH1 0x40 MLOAD DUP1 SWAP2 SUB SWAP1 REVERT JUMPDEST DUP1 PUSH2 0xB48 PUSH32 0x360894A13BA1A3210667C828492DB98DCA3E2076CC3735A920A3CA505D382BBC PUSH0 SHL PUSH2 0xAB8 JUMP JUMPDEST PUSH0 ADD PUSH0 PUSH2 0x100 EXP DUP2 SLOAD DUP2 PUSH20 0xFFFFFFFFFFFFFFFFFFFFFFFFFFFFFFFFFFFFFFFF MUL NOT AND SWAP1 DUP4 PUSH20 0xFFFFFFFFFFFFFFFFFFFFFFFFFFFFFFFFFFFFFFFF AND MUL OR SWAP1 SSTORE POP POP JUMP JUMPDEST PUSH1 0x60 PUSH0 PUSH0 DUP5 PUSH20 0xFFFFFFFFFFFFFFFFFFFFFFFFFFFFFFFFFFFFFFFF AND DUP5 PUSH1 0x40 MLOAD PUSH2 0xBB3 SWAP2 SWAP1 PUSH2 0x11D1 JUMP JUMPDEST PUSH0 PUSH1 0x40 MLOAD DUP1 DUP4 SUB DUP2 DUP6 GAS DELEGATECALL SWAP2 POP POP RETURNDATASIZE DUP1 PUSH0 DUP2 EQ PUSH2 0xBEB JUMPI PUSH1 0x40 MLOAD SWAP2 POP PUSH1 0x1F NOT PUSH1 0x3F RETURNDATASIZE ADD AND DUP3 ADD PUSH1 0x40 MSTORE RETURNDATASIZE DUP3 MSTORE RETURNDATASIZE PUSH0 PUSH1 0x20 DUP5 ADD RETURNDATACOPY PUSH2 0xBF0 JUMP JUMPDEST PUSH1 0x60 SWAP2 POP JUMPDEST POP SWAP2 POP SWAP2 POP PUSH2 0xC00 DUP6 DUP4 DUP4 PUSH2 0xC64 JUMP JUMPDEST SWAP3 POP POP POP SWAP3 SWAP2 POP POP JUMP JUMPDEST PUSH0 CALLVALUE GT ISZERO PUSH2 0xC44 JUMPI PUSH1 0x40 MLOAD PUSH32 0xB398979F00000000000000000000000000000000000000000000000000000000 DUP2 MSTORE PUSH1 0x4 ADD PUSH1 0x40 MLOAD DUP1 SWAP2 SUB SWAP1 REVERT JUMPDEST JUMP JUMPDEST PUSH0 PUSH2 0xC4F PUSH2 0x8A7 JUMP JUMPDEST PUSH0 ADD PUSH1 0x8 SWAP1 SLOAD SWAP1 PUSH2 0x100 EXP SWAP1 DIV PUSH1 0xFF AND SWAP1 POP SWAP1 JUMP JUMPDEST PUSH1 0x60 DUP3 PUSH2 0xC79 JUMPI PUSH2 0xC74 DUP3 PUSH2 0xCF1 JUMP JUMPDEST PUSH2 0xCE9 JUMP JUMPDEST PUSH0 DUP3 MLOAD EQ DUP1 ISZERO PUSH2 0xC9F JUMPI POP PUSH0 DUP5 PUSH20 0xFFFFFFFFFFFFFFFFFFFFFFFFFFFFFFFFFFFFFFFF AND EXTCODESIZE EQ JUMPDEST ISZERO PUSH2 0xCE1 JUMPI DUP4 PUSH1 0x40 MLOAD PUSH32 0x9996B31500000000000000000000000000000000000000000000000000000000 DUP2 MSTORE PUSH1 0x4 ADD PUSH2 0xCD8 SWAP2 SWAP1 PUSH2 0xFA6 JUMP JUMPDEST PUSH1 0x40 MLOAD DUP1 SWAP2 SUB SWAP1 REVERT JUMPDEST DUP2 SWAP1 POP PUSH2 0xCEA JUMP JUMPDEST JUMPDEST SWAP4 SWAP3 POP POP POP JUMP JUMPDEST PUSH0 DUP2 MLOAD GT ISZERO PUSH2 0xD02 JUMPI DUP1 MLOAD PUSH1 0x20 DUP3 ADD REVERT JUMPDEST PUSH1 0x40 MLOAD PUSH32 0xD6BDA27500000000000000000000000000000000000000000000000000000000 DUP2 MSTORE PUSH1 0x4 ADD PUSH1 0x40 MLOAD DUP1 SWAP2 SUB SWAP1 REVERT JUMPDEST PUSH0 DUP2 SWAP1 POP SWAP2 SWAP1 POP JUMP JUMPDEST PUSH2 0xD46 DUP2 PUSH2 0xD34 JUMP JUMPDEST DUP3 MSTORE POP POP JUMP JUMPDEST PUSH0 PUSH1 0x20 DUP3 ADD SWAP1 POP PUSH2 0xD5F PUSH0 DUP4 ADD DUP5 PUSH2 0xD3D JUMP JUMPDEST SWAP3 SWAP2 POP POP JUMP JUMPDEST PUSH0 PUSH1 0x40 MLOAD SWAP1 POP SWAP1 JUMP JUMPDEST PUSH0 PUSH0 REVERT JUMPDEST PUSH0 PUSH0 REVERT JUMPDEST PUSH0 PUSH20 0xFFFFFFFFFFFFFFFFFFFFFFFFFFFFFFFFFFFFFFFF DUP3 AND SWAP1 POP SWAP2 SWAP1 POP JUMP JUMPDEST PUSH0 PUSH2 0xD9F DUP3 PUSH2 0xD76 JUMP JUMPDEST SWAP1 POP SWAP2 SWAP1 POP JUMP JUMPDEST PUSH2 0xDAF DUP2 PUSH2 0xD95 JUMP JUMPDEST DUP2 EQ PUSH2 0xDB9 JUMPI PUSH0 PUSH0 REVERT JUMPDEST POP JUMP JUMPDEST PUSH0 DUP2 CALLDATALOAD SWAP1 POP PUSH2 0xDCA DUP2 PUSH2 0xDA6 JUMP JUMPDEST SWAP3 SWAP2 POP POP JUMP JUMPDEST PUSH0 PUSH0 REVERT JUMPDEST PUSH0 PUSH0 REVERT JUMPDEST PUSH0 PUSH1 0x1F NOT PUSH1 0x1F DUP4 ADD AND SWAP1 POP SWAP2 SWAP1 POP JUMP JUMPDEST PUSH32 0x4E487B7100000000000000000000000000000000000000000000000000000000 PUSH0 MSTORE PUSH1 0x41 PUSH1 0x4 MSTORE PUSH1 0x24 PUSH0 REVERT JUMPDEST PUSH2 0xE1E DUP3 PUSH2 0xDD8 JUMP JUMPDEST DUP2 ADD DUP2 DUP2 LT PUSH8 0xFFFFFFFFFFFFFFFF DUP3 GT OR ISZERO PUSH2 0xE3D JUMPI PUSH2 0xE3C PUSH2 0xDE8 JUMP JUMPDEST JUMPDEST DUP1 PUSH1 0x40 MSTORE POP POP POP JUMP JUMPDEST PUSH0 PUSH2 0xE4F PUSH2 0xD65 JUMP JUMPDEST SWAP1 POP PUSH2 0xE5B DUP3 DUP3 PUSH2 0xE15 JUMP JUMPDEST SWAP2 SWAP1 POP JUMP JUMPDEST PUSH0 PUSH8 0xFFFFFFFFFFFFFFFF DUP3 GT ISZERO PUSH2 0xE7A JUMPI PUSH2 0xE79 PUSH2 0xDE8 JUMP JUMPDEST JUMPDEST PUSH2 0xE83 DUP3 PUSH2 0xDD8 JUMP JUMPDEST SWAP1 POP PUSH1 0x20 DUP2 ADD SWAP1 POP SWAP2 SWAP1 POP JUMP JUMPDEST DUP3 DUP2 DUP4 CALLDATACOPY PUSH0 DUP4 DUP4 ADD MSTORE POP POP POP JUMP JUMPDEST PUSH0 PUSH2 0xEB0 PUSH2 0xEAB DUP5 PUSH2 0xE60 JUMP JUMPDEST PUSH2 0xE46 JUMP JUMPDEST SWAP1 POP DUP3 DUP2 MSTORE PUSH1 0x20 DUP2 ADD DUP5 DUP5 DUP5 ADD GT ISZERO PUSH2 0xECC JUMPI PUSH2 0xECB PUSH2 0xDD4 JUMP JUMPDEST JUMPDEST PUSH2 0xED7 DUP5 DUP3 DUP6 PUSH2 0xE90 JUMP JUMPDEST POP SWAP4 SWAP3 POP POP POP JUMP JUMPDEST PUSH0 DUP3 PUSH1 0x1F DUP4 ADD SLT PUSH2 0xEF3 JUMPI PUSH2 0xEF2 PUSH2 0xDD0 JUMP JUMPDEST JUMPDEST DUP2 CALLDATALOAD PUSH2 0xF03 DUP5 DUP3 PUSH1 0x20 DUP7 ADD PUSH2 0xE9E JUMP JUMPDEST SWAP2 POP POP SWAP3 SWAP2 POP POP JUMP JUMPDEST PUSH0 PUSH0 PUSH1 0x40 DUP4 DUP6 SUB SLT ISZERO PUSH2 0xF22 JUMPI PUSH2 0xF21 PUSH2 0xD6E JUMP JUMPDEST JUMPDEST PUSH0 PUSH2 0xF2F DUP6 DUP3 DUP7 ADD PUSH2 0xDBC JUMP JUMPDEST SWAP3 POP POP PUSH1 0x20 DUP4 ADD CALLDATALOAD PUSH8 0xFFFFFFFFFFFFFFFF DUP2 GT ISZERO PUSH2 0xF50 JUMPI PUSH2 0xF4F PUSH2 0xD72 JUMP JUMPDEST JUMPDEST PUSH2 0xF5C DUP6 DUP3 DUP7 ADD PUSH2 0xEDF JUMP JUMPDEST SWAP2 POP POP SWAP3 POP SWAP3 SWAP1 POP JUMP JUMPDEST PUSH0 DUP2 SWAP1 POP SWAP2 SWAP1 POP JUMP JUMPDEST PUSH2 0xF78 DUP2 PUSH2 0xF66 JUMP JUMPDEST DUP3 MSTORE POP POP JUMP JUMPDEST PUSH0 PUSH1 0x20 DUP3 ADD SWAP1 POP PUSH2 0xF91 PUSH0 DUP4 ADD DUP5 PUSH2 0xF6F JUMP JUMPDEST SWAP3 SWAP2 POP POP JUMP JUMPDEST PUSH2 0xFA0 DUP2 PUSH2 0xD95 JUMP JUMPDEST DUP3 MSTORE POP POP JUMP JUMPDEST PUSH0 PUSH1 0x20 DUP3 ADD SWAP1 POP PUSH2 0xFB9 PUSH0 DUP4 ADD DUP5 PUSH2 0xF97 JUMP JUMPDEST SWAP3 SWAP2 POP POP JUMP JUMPDEST PUSH0 DUP2 MLOAD SWAP1 POP SWAP2 SWAP1 POP JUMP JUMPDEST PUSH0 DUP3 DUP3 MSTORE PUSH1 0x20 DUP3 ADD SWAP1 POP SWAP3 SWAP2 POP POP JUMP JUMPDEST DUP3 DUP2 DUP4 MCOPY PUSH0 DUP4 DUP4 ADD MSTORE POP POP POP JUMP JUMPDEST PUSH0 PUSH2 0xFF1 DUP3 PUSH2 0xFBF JUMP JUMPDEST PUSH2 0xFFB DUP2 DUP6 PUSH2 0xFC9 JUMP JUMPDEST SWAP4 POP PUSH2 0x100B DUP2 DUP6 PUSH1 0x20 DUP7 ADD PUSH2 0xFD9 JUMP JUMPDEST PUSH2 0x1014 DUP2 PUSH2 0xDD8 JUMP JUMPDEST DUP5 ADD SWAP2 POP POP SWAP3 SWAP2 POP POP JUMP JUMPDEST PUSH0 PUSH1 0x20 DUP3 ADD SWAP1 POP DUP2 DUP2 SUB PUSH0 DUP4 ADD MSTORE PUSH2 0x1037 DUP2 DUP5 PUSH2 0xFE7 JUMP JUMPDEST SWAP1 POP SWAP3 SWAP2 POP POP JUMP JUMPDEST PUSH0 PUSH1 0x20 DUP3 DUP5 SUB SLT ISZERO PUSH2 0x1054 JUMPI PUSH2 0x1053 PUSH2 0xD6E JUMP JUMPDEST JUMPDEST PUSH0 PUSH2 0x1061 DUP5 DUP3 DUP6 ADD PUSH2 0xDBC JUMP JUMPDEST SWAP2 POP POP SWAP3 SWAP2 POP POP JUMP JUMPDEST PUSH0 DUP2 SWAP1 POP SWAP2 SWAP1 POP JUMP JUMPDEST PUSH0 PUSH8 0xFFFFFFFFFFFFFFFF DUP3 AND SWAP1 POP SWAP2 SWAP1 POP JUMP JUMPDEST PUSH0 DUP2 SWAP1 POP SWAP2 SWAP1 POP JUMP JUMPDEST PUSH0 PUSH2 0x10A9 PUSH2 0x10A4 PUSH2 0x109F DUP5 PUSH2 0x106A JUMP JUMPDEST PUSH2 0x1086 JUMP JUMPDEST PUSH2 0x1073 JUMP JUMPDEST SWAP1 POP SWAP2 SWAP1 POP JUMP JUMPDEST PUSH2 0x10B9 DUP2 PUSH2 0x108F JUMP JUMPDEST DUP3 MSTORE POP POP JUMP JUMPDEST PUSH0 PUSH1 0x20 DUP3 ADD SWAP1 POP PUSH2 0x10D2 PUSH0 DUP4 ADD DUP5 PUSH2 0x10B0 JUMP JUMPDEST SWAP3 SWAP2 POP POP JUMP JUMPDEST PUSH32 0x4E487B7100000000000000000000000000000000000000000000000000000000 PUSH0 MSTORE PUSH1 0x11 PUSH1 0x4 MSTORE PUSH1 0x24 PUSH0 REVERT JUMPDEST PUSH0 PUSH2 0x110F DUP3 PUSH2 0xD34 JUMP JUMPDEST SWAP2 POP PUSH2 0x111A DUP4 PUSH2 0xD34 JUMP JUMPDEST SWAP3 POP DUP3 DUP3 ADD SWAP1 POP DUP1 DUP3 GT ISZERO PUSH2 0x1132 JUMPI PUSH2 0x1131 PUSH2 0x10D8 JUMP JUMPDEST JUMPDEST SWAP3 SWAP2 POP POP JUMP JUMPDEST PUSH2 0x1141 DUP2 PUSH2 0xF66 JUMP JUMPDEST DUP2 EQ PUSH2 0x114B JUMPI PUSH0 PUSH0 REVERT JUMPDEST POP JUMP JUMPDEST PUSH0 DUP2 MLOAD SWAP1 POP PUSH2 0x115C DUP2 PUSH2 0x1138 JUMP JUMPDEST SWAP3 SWAP2 POP POP JUMP JUMPDEST PUSH0 PUSH1 0x20 DUP3 DUP5 SUB SLT ISZERO PUSH2 0x1177 JUMPI PUSH2 0x1176 PUSH2 0xD6E JUMP JUMPDEST JUMPDEST PUSH0 PUSH2 0x1184 DUP5 DUP3 DUP6 ADD PUSH2 0x114E JUMP JUMPDEST SWAP2 POP POP SWAP3 SWAP2 POP POP JUMP JUMPDEST PUSH0 DUP2 MLOAD SWAP1 POP SWAP2 SWAP1 POP JUMP JUMPDEST PUSH0 DUP2 SWAP1 POP SWAP3 SWAP2 POP POP JUMP JUMPDEST PUSH0 PUSH2 0x11AB DUP3 PUSH2 0x118D JUMP JUMPDEST PUSH2 0x11B5 DUP2 DUP6 PUSH2 0x1197 JUMP JUMPDEST SWAP4 POP PUSH2 0x11C5 DUP2 DUP6 PUSH1 0x20 DUP7 ADD PUSH2 0xFD9 JUMP JUMPDEST DUP1 DUP5 ADD SWAP2 POP POP SWAP3 SWAP2 POP POP JUMP JUMPDEST PUSH0 PUSH2 0x11DC DUP3 DUP5 PUSH2 0x11A1 JUMP JUMPDEST SWAP2 POP DUP2 SWAP1 POP SWAP3 SWAP2 POP POP JUMP INVALID LOG2 PUSH5 0x6970667358 0x22 SLT KECCAK256 SHR 0x21 SWAP9 0xAA BLOCKHASH 0xB6 PUSH14 0x575499622614822DB1690B8F809F MUL BYTE EXP MOD CALLCODE 0xAA LT SUB 0xD6 DUP3 SWAP6 PUSH5 0x736F6C6343 STOP ADDMOD 0x1E STOP CALLER "
				},
				"gasEstimates": {
					"creation": {
						"codeDepositCost": "927400",
						"executionCost": "infinite",
						"totalCost": "infinite"
					},
					"external": {
						"UPGRADE_INTERFACE_VERSION()": "infinite",
						"count()": "2425",
						"increment()": "infinite",
						"initialize()": "infinite",
						"owner()": "2588",
						"proxiableUUID()": "infinite",
						"renounceOwnership()": "infinite",
						"transferOwnership(address)": "infinite",
						"upgradeToAndCall(address,bytes)": "infinite"
					},
					"internal": {
						"_authorizeUpgrade(address)": "infinite"
					}
				},
				"methodIdentifiers": {
					"UPGRADE_INTERFACE_VERSION()": "ad3cb1cc",
					"count()": "06661abd",
					"increment()": "d09de08a",
					"initialize()": "8129fc1c",
					"owner()": "8da5cb5b",
					"proxiableUUID()": "52d1902d",
					"renounceOwnership()": "715018a6",
					"transferOwnership(address)": "f2fde38b",
					"upgradeToAndCall(address,bytes)": "4f1ef286"
				}
			},
			"storageLayout": {
				"storage": [
					{
						"astId": 1444,
						"contract": "Smart Contracts/24_MyUpgradableToken.sol:CounterV1",
						"label": "count",
						"offset": 0,
						"slot": "0",
						"type": "t_uint256"
					}
				],
				"types": {
					"t_uint256": {
						"encoding": "inplace",
						"label": "uint256",
						"numberOfBytes": "32"
					}
				}
			},
			"userdoc": {
				"kind": "user",
				"methods": {},
				"version": 1
			}
		}
	}
}