{
	"Smart Contracts/25_PredictionMarket.sol": {
		"AdvancedPredictionMarket": {
			"abi": [
				{
					"inputs": [
						{
							"internalType": "address",
							"name": "target",
							"type": "address"
						}
					],
					"name": "AddressEmptyCode",
					"type": "error"
				},
				{
					"inputs": [
						{
							"internalType": "address",
							"name": "implementation",
							"type": "address"
						}
					],
					"name": "ERC1967InvalidImplementation",
					"type": "error"
				},
				{
					"inputs": [],
					"name": "ERC1967NonPayable",
					"type": "error"
				},
				{
					"inputs": [],
					"name": "FailedCall",
					"type": "error"
				},
				{
					"inputs": [],
					"name": "FeeTooHigh",
					"type": "error"
				},
				{
					"inputs": [],
					"name": "InvalidAmount",
					"type": "error"
				},
				{
					"inputs": [],
					"name": "InvalidInitialization",
					"type": "error"
				},
				{
					"inputs": [],
					"name": "InvalidOracle",
					"type": "error"
				},
				{
					"inputs": [],
					"name": "MarketAlreadyResolved",
					"type": "error"
				},
				{
					"inputs": [],
					"name": "MarketClosed",
					"type": "error"
				},
				{
					"inputs": [],
					"name": "MarketNotEnded",
					"type": "error"
				},
				{
					"inputs": [],
					"name": "MarketNotResolved",
					"type": "error"
				},
				{
					"inputs": [],
					"name": "NotInitializing",
					"type": "error"
				},
				{
					"inputs": [],
					"name": "NotWinner",
					"type": "error"
				},
				{
					"inputs": [
						{
							"internalType": "address",
							"name": "owner",
							"type": "address"
						}
					],
					"name": "OwnableInvalidOwner",
					"type": "error"
				},
				{
					"inputs": [
						{
							"internalType": "address",
							"name": "account",
							"type": "address"
						}
					],
					"name": "OwnableUnauthorizedAccount",
					"type": "error"
				},
				{
					"inputs": [],
					"name": "UUPSUnauthorizedCallContext",
					"type": "error"
				},
				{
					"inputs": [
						{
							"internalType": "bytes32",
							"name": "slot",
							"type": "bytes32"
						}
					],
					"name": "UUPSUnsupportedProxiableUUID",
					"type": "error"
				},
				{
					"anonymous": false,
					"inputs": [
						{
							"indexed": true,
							"internalType": "uint256",
							"name": "id",
							"type": "uint256"
						},
						{
							"indexed": true,
							"internalType": "address",
							"name": "user",
							"type": "address"
						},
						{
							"indexed": false,
							"internalType": "bool",
							"name": "side",
							"type": "bool"
						},
						{
							"indexed": false,
							"internalType": "uint256",
							"name": "amount",
							"type": "uint256"
						}
					],
					"name": "BetPlaced",
					"type": "event"
				},
				{
					"anonymous": false,
					"inputs": [
						{
							"indexed": false,
							"internalType": "uint64",
							"name": "version",
							"type": "uint64"
						}
					],
					"name": "Initialized",
					"type": "event"
				},
				{
					"anonymous": false,
					"inputs": [
						{
							"indexed": true,
							"internalType": "uint256",
							"name": "id",
							"type": "uint256"
						},
						{
							"indexed": false,
							"internalType": "int256",
							"name": "targetPrice",
							"type": "int256"
						}
					],
					"name": "MarketCreated",
					"type": "event"
				},
				{
					"anonymous": false,
					"inputs": [
						{
							"indexed": true,
							"internalType": "uint256",
							"name": "id",
							"type": "uint256"
						},
						{
							"indexed": false,
							"internalType": "uint8",
							"name": "result",
							"type": "uint8"
						}
					],
					"name": "MarketResolved",
					"type": "event"
				},
				{
					"anonymous": false,
					"inputs": [
						{
							"indexed": true,
							"internalType": "address",
							"name": "previousOwner",
							"type": "address"
						},
						{
							"indexed": true,
							"internalType": "address",
							"name": "newOwner",
							"type": "address"
						}
					],
					"name": "OwnershipTransferred",
					"type": "event"
				},
				{
					"anonymous": false,
					"inputs": [
						{
							"indexed": false,
							"internalType": "address",
							"name": "account",
							"type": "address"
						}
					],
					"name": "Paused",
					"type": "event"
				},
				{
					"anonymous": false,
					"inputs": [
						{
							"indexed": true,
							"internalType": "uint256",
							"name": "id",
							"type": "uint256"
						},
						{
							"indexed": true,
							"internalType": "address",
							"name": "user",
							"type": "address"
						},
						{
							"indexed": false,
							"internalType": "uint256",
							"name": "reward",
							"type": "uint256"
						}
					],
					"name": "RewardClaimed",
					"type": "event"
				},
				{
					"anonymous": false,
					"inputs": [
						{
							"indexed": false,
							"internalType": "address",
							"name": "account",
							"type": "address"
						}
					],
					"name": "Unpaused",
					"type": "event"
				},
				{
					"anonymous": false,
					"inputs": [
						{
							"indexed": true,
							"internalType": "address",
							"name": "implementation",
							"type": "address"
						}
					],
					"name": "Upgraded",
					"type": "event"
				},
				{
					"inputs": [],
					"name": "MAX_FEE",
					"outputs": [
						{
							"internalType": "uint16",
							"name": "",
							"type": "uint16"
						}
					],
					"stateMutability": "view",
					"type": "function"
				},
				{
					"inputs": [],
					"name": "UPGRADE_INTERFACE_VERSION",
					"outputs": [
						{
							"internalType": "string",
							"name": "",
							"type": "string"
						}
					],
					"stateMutability": "view",
					"type": "function"
				},
				{
					"inputs": [
						{
							"internalType": "uint256",
							"name": "marketId",
							"type": "uint256"
						}
					],
					"name": "claimReward",
					"outputs": [],
					"stateMutability": "nonpayable",
					"type": "function"
				},
				{
					"inputs": [
						{
							"internalType": "uint64",
							"name": "duration",
							"type": "uint64"
						},
						{
							"internalType": "uint16",
							"name": "feePercent",
							"type": "uint16"
						},
						{
							"internalType": "address",
							"name": "oracle",
							"type": "address"
						},
						{
							"internalType": "int256",
							"name": "targetPrice",
							"type": "int256"
						}
					],
					"name": "createMarket",
					"outputs": [],
					"stateMutability": "nonpayable",
					"type": "function"
				},
				{
					"inputs": [
						{
							"internalType": "address",
							"name": "_token",
							"type": "address"
						}
					],
					"name": "initialize",
					"outputs": [],
					"stateMutability": "nonpayable",
					"type": "function"
				},
				{
					"inputs": [],
					"name": "marketCount",
					"outputs": [
						{
							"internalType": "uint256",
							"name": "",
							"type": "uint256"
						}
					],
					"stateMutability": "view",
					"type": "function"
				},
				{
					"inputs": [
						{
							"internalType": "uint256",
							"name": "",
							"type": "uint256"
						}
					],
					"name": "markets",
					"outputs": [
						{
							"internalType": "uint128",
							"name": "totalYes",
							"type": "uint128"
						},
						{
							"internalType": "uint128",
							"name": "totalNo",
							"type": "uint128"
						},
						{
							"internalType": "uint64",
							"name": "deadline",
							"type": "uint64"
						},
						{
							"internalType": "uint16",
							"name": "feePercent",
							"type": "uint16"
						},
						{
							"internalType": "bool",
							"name": "resolved",
							"type": "bool"
						},
						{
							"internalType": "enum AdvancedPredictionMarket.Outcome",
							"name": "result",
							"type": "uint8"
						},
						{
							"internalType": "address",
							"name": "oracle",
							"type": "address"
						},
						{
							"internalType": "int256",
							"name": "targetPrice",
							"type": "int256"
						}
					],
					"stateMutability": "view",
					"type": "function"
				},
				{
					"inputs": [
						{
							"internalType": "uint256",
							"name": "",
							"type": "uint256"
						},
						{
							"internalType": "address",
							"name": "",
							"type": "address"
						}
					],
					"name": "noBets",
					"outputs": [
						{
							"internalType": "uint256",
							"name": "",
							"type": "uint256"
						}
					],
					"stateMutability": "view",
					"type": "function"
				},
				{
					"inputs": [],
					"name": "owner",
					"outputs": [
						{
							"internalType": "address",
							"name": "",
							"type": "address"
						}
					],
					"stateMutability": "view",
					"type": "function"
				},
				{
					"inputs": [],
					"name": "pause",
					"outputs": [],
					"stateMutability": "nonpayable",
					"type": "function"
				},
				{
					"inputs": [],
					"name": "paused",
					"outputs": [
						{
							"internalType": "bool",
							"name": "",
							"type": "bool"
						}
					],
					"stateMutability": "view",
					"type": "function"
				},
				{
					"inputs": [
						{
							"internalType": "uint256",
							"name": "marketId",
							"type": "uint256"
						},
						{
							"internalType": "bool",
							"name": "isYes",
							"type": "bool"
						},
						{
							"internalType": "uint256",
							"name": "amount",
							"type": "uint256"
						}
					],
					"name": "placeBet",
					"outputs": [],
					"stateMutability": "nonpayable",
					"type": "function"
				},
				{
					"inputs": [],
					"name": "proxiableUUID",
					"outputs": [
						{
							"internalType": "bytes32",
							"name": "",
							"type": "bytes32"
						}
					],
					"stateMutability": "view",
					"type": "function"
				},
				{
					"inputs": [],
					"name": "renounceOwnership",
					"outputs": [],
					"stateMutability": "nonpayable",
					"type": "function"
				},
				{
					"inputs": [
						{
							"internalType": "uint256",
							"name": "marketId",
							"type": "uint256"
						}
					],
					"name": "resolveMarket",
					"outputs": [],
					"stateMutability": "nonpayable",
					"type": "function"
				},
				{
					"inputs": [],
					"name": "token",
					"outputs": [
						{
							"internalType": "contract IERC20Upgradeable",
							"name": "",
							"type": "address"
						}
					],
					"stateMutability": "view",
					"type": "function"
				},
				{
					"inputs": [
						{
							"internalType": "address",
							"name": "newOwner",
							"type": "address"
						}
					],
					"name": "transferOwnership",
					"outputs": [],
					"stateMutability": "nonpayable",
					"type": "function"
				},
				{
					"inputs": [],
					"name": "unpause",
					"outputs": [],
					"stateMutability": "nonpayable",
					"type": "function"
				},
				{
					"inputs": [
						{
							"internalType": "address",
							"name": "newImplementation",
							"type": "address"
						},
						{
							"internalType": "bytes",
							"name": "data",
							"type": "bytes"
						}
					],
					"name": "upgradeToAndCall",
					"outputs": [],
					"stateMutability": "payable",
					"type": "function"
				},
				{
					"inputs": [
						{
							"internalType": "uint256",
							"name": "",
							"type": "uint256"
						},
						{
							"internalType": "address",
							"name": "",
							"type": "address"
						}
					],
					"name": "yesBets",
					"outputs": [
						{
							"internalType": "uint256",
							"name": "",
							"type": "uint256"
						}
					],
					"stateMutability": "view",
					"type": "function"
				}
			],
			"devdoc": {
				"errors": {
					"AddressEmptyCode(address)": [
						{
							"details": "There's no code at `target` (it is not a contract)."
						}
					],
					"ERC1967InvalidImplementation(address)": [
						{
							"details": "The `implementation` of the proxy is invalid."
						}
					],
					"ERC1967NonPayable()": [
						{
							"details": "An upgrade function sees `msg.value > 0` that may be lost."
						}
					],
					"FailedCall()": [
						{
							"details": "A call to an address target failed. The target may have reverted."
						}
					],
					"InvalidInitialization()": [
						{
							"details": "The contract is already initialized."
						}
					],
					"NotInitializing()": [
						{
							"details": "The contract is not initializing."
						}
					],
					"OwnableInvalidOwner(address)": [
						{
							"details": "The owner is not a valid owner account. (eg. `address(0)`)"
						}
					],
					"OwnableUnauthorizedAccount(address)": [
						{
							"details": "The caller account is not authorized to perform an operation."
						}
					],
					"UUPSUnauthorizedCallContext()": [
						{
							"details": "The call is from an unauthorized context."
						}
					],
					"UUPSUnsupportedProxiableUUID(bytes32)": [
						{
							"details": "The storage `slot` is unsupported as a UUID."
						}
					]
				},
				"events": {
					"Initialized(uint64)": {
						"details": "Triggered when the contract has been initialized or reinitialized."
					},
					"Paused(address)": {
						"details": "Emitted when the pause is triggered by `account`."
					},
					"Unpaused(address)": {
						"details": "Emitted when the pause is lifted by `account`."
					},
					"Upgraded(address)": {
						"details": "Emitted when the implementation is upgraded."
					}
				},
				"kind": "dev",
				"methods": {
					"owner()": {
						"details": "Returns the address of the current owner."
					},
					"paused()": {
						"details": "Returns true if the contract is paused, and false otherwise."
					},
					"proxiableUUID()": {
						"details": "Implementation of the ERC-1822 {proxiableUUID} function. This returns the storage slot used by the implementation. It is used to validate the implementation's compatibility when performing an upgrade. IMPORTANT: A proxy pointing at a proxiable contract should not be considered proxiable itself, because this risks bricking a proxy that upgrades to it, by delegating to itself until out of gas. Thus it is critical that this function revert if invoked through a proxy. This is guaranteed by the `notDelegated` modifier."
					},
					"renounceOwnership()": {
						"details": "Leaves the contract without owner. It will not be possible to call `onlyOwner` functions. Can only be called by the current owner. NOTE: Renouncing ownership will leave the contract without an owner, thereby disabling any functionality that is only available to the owner."
					},
					"transferOwnership(address)": {
						"details": "Transfers ownership of the contract to a new account (`newOwner`). Can only be called by the current owner."
					},
					"upgradeToAndCall(address,bytes)": {
						"custom:oz-upgrades-unsafe-allow-reachable": "delegatecall",
						"details": "Upgrade the implementation of the proxy to `newImplementation`, and subsequently execute the function call encoded in `data`. Calls {_authorizeUpgrade}. Emits an {Upgraded} event."
					}
				},
				"version": 1
			},
			"evm": {
				"assembly": "    /* \"Smart Contracts/25_PredictionMarket.sol\":1222:7720  contract AdvancedPredictionMarket is... */\n  mstore(0x40, 0xa0)\n    /* \"@openzeppelin/contracts-upgradeable/proxy/utils/UUPSUpgradeable.sol\":1171:1175  this */\n  address\n    /* \"@openzeppelin/contracts-upgradeable/proxy/utils/UUPSUpgradeable.sol\":1128:1176  address private immutable __self = address(this) */\n  0xffffffffffffffffffffffffffffffffffffffff\n  and\n  0x80\n  swap1\n  0xffffffffffffffffffffffffffffffffffffffff\n  and\n  dup2\n  mstore\n  pop\n    /* \"Smart Contracts/25_PredictionMarket.sol\":1222:7720  contract AdvancedPredictionMarket is... */\n  callvalue\n  dup1\n  iszero\n  tag_1\n  jumpi\n  revert(0x00, 0x00)\ntag_1:\n  pop\n  mload(0x80)\n  codecopy(0x00, dataOffset(sub_0), dataSize(sub_0))\n  0x00\n  assignImmutable(\"0x4ce4dab4689da140a0c12de1a6af6b8f679594aeb723205f513e052d27f5b26f\")\n  return(0x00, dataSize(sub_0))\nstop\n\nsub_0: assembly {\n        /* \"Smart Contracts/25_PredictionMarket.sol\":1222:7720  contract AdvancedPredictionMarket is... */\n      mstore(0x40, 0x80)\n      jumpi(tag_1, lt(calldatasize, 0x04))\n      shr(0xe0, calldataload(0x00))\n      dup1\n      0x8da5cb5b\n      gt\n      tag_22\n      jumpi\n      dup1\n      0xbc063e1a\n      gt\n      tag_23\n      jumpi\n      dup1\n      0xbc063e1a\n      eq\n      tag_17\n      jumpi\n      dup1\n      0xc4d66de8\n      eq\n      tag_18\n      jumpi\n      dup1\n      0xec979082\n      eq\n      tag_19\n      jumpi\n      dup1\n      0xf2fde38b\n      eq\n      tag_20\n      jumpi\n      dup1\n      0xfc0c546a\n      eq\n      tag_21\n      jumpi\n      jump(tag_1)\n    tag_23:\n      dup1\n      0x8da5cb5b\n      eq\n      tag_12\n      jumpi\n      dup1\n      0xa611f359\n      eq\n      tag_13\n      jumpi\n      dup1\n      0xad3cb1cc\n      eq\n      tag_14\n      jumpi\n      dup1\n      0xae169a50\n      eq\n      tag_15\n      jumpi\n      dup1\n      0xb1283e77\n      eq\n      tag_16\n      jumpi\n      jump(tag_1)\n    tag_22:\n      dup1\n      0x52d1902d\n      gt\n      tag_24\n      jumpi\n      dup1\n      0x52d1902d\n      eq\n      tag_7\n      jumpi\n      dup1\n      0x5c975abb\n      eq\n      tag_8\n      jumpi\n      dup1\n      0x6399d03d\n      eq\n      tag_9\n      jumpi\n      dup1\n      0x715018a6\n      eq\n      tag_10\n      jumpi\n      dup1\n      0x8456cb59\n      eq\n      tag_11\n      jumpi\n      jump(tag_1)\n    tag_24:\n      dup1\n      0x155e4b82\n      eq\n      tag_2\n      jumpi\n      dup1\n      0x1a38cac6\n      eq\n      tag_3\n      jumpi\n      dup1\n      0x354c6199\n      eq\n      tag_4\n      jumpi\n      dup1\n      0x3f4ba83a\n      eq\n      tag_5\n      jumpi\n      dup1\n      0x4f1ef286\n      eq\n      tag_6\n      jumpi\n    tag_1:\n      revert(0x00, 0x00)\n        /* \"Smart Contracts/25_PredictionMarket.sol\":2745:2806  mapping(uint256 => mapping(address => uint256)) public noBets */\n    tag_2:\n      callvalue\n      dup1\n      iszero\n      tag_25\n      jumpi\n      revert(0x00, 0x00)\n    tag_25:\n      pop\n      tag_26\n      0x04\n      dup1\n      calldatasize\n      sub\n      dup2\n      add\n      swap1\n      tag_27\n      swap2\n      swap1\n      tag_28\n      jump\t// in\n    tag_27:\n      tag_29\n      jump\t// in\n    tag_26:\n      mload(0x40)\n      tag_30\n      swap2\n      swap1\n      tag_31\n      jump\t// in\n    tag_30:\n      mload(0x40)\n      dup1\n      swap2\n      sub\n      swap1\n      return\n        /* \"Smart Contracts/25_PredictionMarket.sol\":4578:5356  function placeBet(... */\n    tag_3:\n      callvalue\n      dup1\n      iszero\n      tag_32\n      jumpi\n      revert(0x00, 0x00)\n    tag_32:\n      pop\n      tag_33\n      0x04\n      dup1\n      calldatasize\n      sub\n      dup2\n      add\n      swap1\n      tag_34\n      swap2\n      swap1\n      tag_35\n      jump\t// in\n    tag_34:\n      tag_36\n      jump\t// in\n    tag_33:\n      stop\n        /* \"Smart Contracts/25_PredictionMarket.sol\":2676:2738  mapping(uint256 => mapping(address => uint256)) public yesBets */\n    tag_4:\n      callvalue\n      dup1\n      iszero\n      tag_37\n      jumpi\n      revert(0x00, 0x00)\n    tag_37:\n      pop\n      tag_38\n      0x04\n      dup1\n      calldatasize\n      sub\n      dup2\n      add\n      swap1\n      tag_39\n      swap2\n      swap1\n      tag_28\n      jump\t// in\n    tag_39:\n      tag_40\n      jump\t// in\n    tag_38:\n      mload(0x40)\n      tag_41\n      swap2\n      swap1\n      tag_31\n      jump\t// in\n    tag_41:\n      mload(0x40)\n      dup1\n      swap2\n      sub\n      swap1\n      return\n        /* \"Smart Contracts/25_PredictionMarket.sol\":7402:7469  function unpause() external onlyOwner {... */\n    tag_5:\n      callvalue\n      dup1\n      iszero\n      tag_42\n      jumpi\n      revert(0x00, 0x00)\n    tag_42:\n      pop\n      tag_43\n      tag_44\n      jump\t// in\n    tag_43:\n      stop\n        /* \"@openzeppelin/contracts-upgradeable/proxy/utils/UUPSUpgradeable.sol\":4161:4375  function upgradeToAndCall(address newImplementation, bytes memory data) public payable virtual onlyProxy {... */\n    tag_6:\n      tag_45\n      0x04\n      dup1\n      calldatasize\n      sub\n      dup2\n      add\n      swap1\n      tag_46\n      swap2\n      swap1\n      tag_47\n      jump\t// in\n    tag_46:\n      tag_48\n      jump\t// in\n    tag_45:\n      stop\n        /* \"@openzeppelin/contracts-upgradeable/proxy/utils/UUPSUpgradeable.sol\":3708:3842  function proxiableUUID() external view virtual notDelegated returns (bytes32) {... */\n    tag_7:\n      callvalue\n      dup1\n      iszero\n      tag_49\n      jumpi\n      revert(0x00, 0x00)\n    tag_49:\n      pop\n      tag_50\n      tag_51\n      jump\t// in\n    tag_50:\n      mload(0x40)\n      tag_52\n      swap2\n      swap1\n      tag_53\n      jump\t// in\n    tag_52:\n      mload(0x40)\n      dup1\n      swap2\n      sub\n      swap1\n      return\n        /* \"@openzeppelin/contracts-upgradeable/security/PausableUpgradeable.sol\":1879:1963  function paused() public view virtual returns (bool) {... */\n    tag_8:\n      callvalue\n      dup1\n      iszero\n      tag_54\n      jumpi\n      revert(0x00, 0x00)\n    tag_54:\n      pop\n      tag_55\n      tag_56\n      jump\t// in\n    tag_55:\n      mload(0x40)\n      tag_57\n      swap2\n      swap1\n      tag_58\n      jump\t// in\n    tag_57:\n      mload(0x40)\n      dup1\n      swap2\n      sub\n      swap1\n      return\n        /* \"Smart Contracts/25_PredictionMarket.sol\":5488:6072  function resolveMarket(uint256 marketId)... */\n    tag_9:\n      callvalue\n      dup1\n      iszero\n      tag_59\n      jumpi\n      revert(0x00, 0x00)\n    tag_59:\n      pop\n      tag_60\n      0x04\n      dup1\n      calldatasize\n      sub\n      dup2\n      add\n      swap1\n      tag_61\n      swap2\n      swap1\n      tag_62\n      jump\t// in\n    tag_61:\n      tag_63\n      jump\t// in\n    tag_60:\n      stop\n        /* \"@openzeppelin/contracts-upgradeable/access/OwnableUpgradeable.sol\":3155:3256  function renounceOwnership() public virtual onlyOwner {... */\n    tag_10:\n      callvalue\n      dup1\n      iszero\n      tag_64\n      jumpi\n      revert(0x00, 0x00)\n    tag_64:\n      pop\n      tag_65\n      tag_66\n      jump\t// in\n    tag_65:\n      stop\n        /* \"Smart Contracts/25_PredictionMarket.sol\":7331:7394  function pause() external onlyOwner {... */\n    tag_11:\n      callvalue\n      dup1\n      iszero\n      tag_67\n      jumpi\n      revert(0x00, 0x00)\n    tag_67:\n      pop\n      tag_68\n      tag_69\n      jump\t// in\n    tag_68:\n      stop\n        /* \"@openzeppelin/contracts-upgradeable/access/OwnableUpgradeable.sol\":2441:2585  function owner() public view virtual returns (address) {... */\n    tag_12:\n      callvalue\n      dup1\n      iszero\n      tag_70\n      jumpi\n      revert(0x00, 0x00)\n    tag_70:\n      pop\n      tag_71\n      tag_72\n      jump\t// in\n    tag_71:\n      mload(0x40)\n      tag_73\n      swap2\n      swap1\n      tag_74\n      jump\t// in\n    tag_73:\n      mload(0x40)\n      dup1\n      swap2\n      sub\n      swap1\n      return\n        /* \"Smart Contracts/25_PredictionMarket.sol\":3743:4446  function createMarket(... */\n    tag_13:\n      callvalue\n      dup1\n      iszero\n      tag_75\n      jumpi\n      revert(0x00, 0x00)\n    tag_75:\n      pop\n      tag_76\n      0x04\n      dup1\n      calldatasize\n      sub\n      dup2\n      add\n      swap1\n      tag_77\n      swap2\n      swap1\n      tag_78\n      jump\t// in\n    tag_77:\n      tag_79\n      jump\t// in\n    tag_76:\n      stop\n        /* \"@openzeppelin/contracts-upgradeable/proxy/utils/UUPSUpgradeable.sol\":1819:1877  string public constant UPGRADE_INTERFACE_VERSION = \"5.0.0\" */\n    tag_14:\n      callvalue\n      dup1\n      iszero\n      tag_80\n      jumpi\n      revert(0x00, 0x00)\n    tag_80:\n      pop\n      tag_81\n      tag_82\n      jump\t// in\n    tag_81:\n      mload(0x40)\n      tag_83\n      swap2\n      swap1\n      tag_84\n      jump\t// in\n    tag_83:\n      mload(0x40)\n      dup1\n      swap2\n      sub\n      swap1\n      return\n        /* \"Smart Contracts/25_PredictionMarket.sol\":6204:7199  function claimReward(uint256 marketId)... */\n    tag_15:\n      callvalue\n      dup1\n      iszero\n      tag_85\n      jumpi\n      revert(0x00, 0x00)\n    tag_85:\n      pop\n      tag_86\n      0x04\n      dup1\n      calldatasize\n      sub\n      dup2\n      add\n      swap1\n      tag_87\n      swap2\n      swap1\n      tag_62\n      jump\t// in\n    tag_87:\n      tag_88\n      jump\t// in\n    tag_86:\n      stop\n        /* \"Smart Contracts/25_PredictionMarket.sol\":2628:2669  mapping(uint256 => Market) public markets */\n    tag_16:\n      callvalue\n      dup1\n      iszero\n      tag_89\n      jumpi\n      revert(0x00, 0x00)\n    tag_89:\n      pop\n      tag_90\n      0x04\n      dup1\n      calldatasize\n      sub\n      dup2\n      add\n      swap1\n      tag_91\n      swap2\n      swap1\n      tag_62\n      jump\t// in\n    tag_91:\n      tag_92\n      jump\t// in\n    tag_90:\n      mload(0x40)\n      tag_93\n      swap9\n      swap8\n      swap7\n      swap6\n      swap5\n      swap4\n      swap3\n      swap2\n      swap1\n      tag_94\n      jump\t// in\n    tag_93:\n      mload(0x40)\n      dup1\n      swap2\n      sub\n      swap1\n      return\n        /* \"Smart Contracts/25_PredictionMarket.sol\":2584:2619  uint16 public constant MAX_FEE = 10 */\n    tag_17:\n      callvalue\n      dup1\n      iszero\n      tag_95\n      jumpi\n      revert(0x00, 0x00)\n    tag_95:\n      pop\n      tag_96\n      tag_97\n      jump\t// in\n    tag_96:\n      mload(0x40)\n      tag_98\n      swap2\n      swap1\n      tag_99\n      jump\t// in\n    tag_98:\n      mload(0x40)\n      dup1\n      swap2\n      sub\n      swap1\n      return\n        /* \"Smart Contracts/25_PredictionMarket.sol\":3367:3611  function initialize(address _token) public initializer {... */\n    tag_18:\n      callvalue\n      dup1\n      iszero\n      tag_100\n      jumpi\n      revert(0x00, 0x00)\n    tag_100:\n      pop\n      tag_101\n      0x04\n      dup1\n      calldatasize\n      sub\n      dup2\n      add\n      swap1\n      tag_102\n      swap2\n      swap1\n      tag_103\n      jump\t// in\n    tag_102:\n      tag_104\n      jump\t// in\n    tag_101:\n      stop\n        /* \"Smart Contracts/25_PredictionMarket.sol\":2551:2577  uint256 public marketCount */\n    tag_19:\n      callvalue\n      dup1\n      iszero\n      tag_105\n      jumpi\n      revert(0x00, 0x00)\n    tag_105:\n      pop\n      tag_106\n      tag_107\n      jump\t// in\n    tag_106:\n      mload(0x40)\n      tag_108\n      swap2\n      swap1\n      tag_31\n      jump\t// in\n    tag_108:\n      mload(0x40)\n      dup1\n      swap2\n      sub\n      swap1\n      return\n        /* \"@openzeppelin/contracts-upgradeable/access/OwnableUpgradeable.sol\":3405:3620  function transferOwnership(address newOwner) public virtual onlyOwner {... */\n    tag_20:\n      callvalue\n      dup1\n      iszero\n      tag_109\n      jumpi\n      revert(0x00, 0x00)\n    tag_109:\n      pop\n      tag_110\n      0x04\n      dup1\n      calldatasize\n      sub\n      dup2\n      add\n      swap1\n      tag_111\n      swap2\n      swap1\n      tag_103\n      jump\t// in\n    tag_111:\n      tag_112\n      jump\t// in\n    tag_110:\n      stop\n        /* \"Smart Contracts/25_PredictionMarket.sol\":2514:2544  IERC20Upgradeable public token */\n    tag_21:\n      callvalue\n      dup1\n      iszero\n      tag_113\n      jumpi\n      revert(0x00, 0x00)\n    tag_113:\n      pop\n      tag_114\n      tag_115\n      jump\t// in\n    tag_114:\n      mload(0x40)\n      tag_116\n      swap2\n      swap1\n      tag_117\n      jump\t// in\n    tag_116:\n      mload(0x40)\n      dup1\n      swap2\n      sub\n      swap1\n      return\n        /* \"Smart Contracts/25_PredictionMarket.sol\":2745:2806  mapping(uint256 => mapping(address => uint256)) public noBets */\n    tag_29:\n      mstore(0x20, 0x68)\n      dup2\n      0x00\n      mstore\n      mstore(0x20, keccak256(0x00, 0x40))\n      dup1\n      0x00\n      mstore\n      keccak256(0x00, 0x40)\n      0x00\n      swap2\n      pop\n      swap2\n      pop\n      pop\n      sload\n      dup2\n      jump\t// out\n        /* \"Smart Contracts/25_PredictionMarket.sol\":4578:5356  function placeBet(... */\n    tag_36:\n        /* \"@openzeppelin/contracts-upgradeable/security/ReentrancyGuardUpgradeable.sol\":2526:2547  _nonReentrantBefore() */\n      tag_119\n        /* \"@openzeppelin/contracts-upgradeable/security/ReentrancyGuardUpgradeable.sol\":2526:2545  _nonReentrantBefore */\n      tag_120\n        /* \"@openzeppelin/contracts-upgradeable/security/ReentrancyGuardUpgradeable.sol\":2526:2547  _nonReentrantBefore() */\n      jump\t// in\n    tag_119:\n        /* \"@openzeppelin/contracts-upgradeable/security/PausableUpgradeable.sol\":1503:1522  _requireNotPaused() */\n      tag_122\n        /* \"@openzeppelin/contracts-upgradeable/security/PausableUpgradeable.sol\":1503:1520  _requireNotPaused */\n      tag_123\n        /* \"@openzeppelin/contracts-upgradeable/security/PausableUpgradeable.sol\":1503:1522  _requireNotPaused() */\n      jump\t// in\n    tag_122:\n        /* \"Smart Contracts/25_PredictionMarket.sol\":4755:4771  Market storage m */\n      0x00\n        /* \"Smart Contracts/25_PredictionMarket.sol\":4774:4781  markets */\n      0x66\n        /* \"Smart Contracts/25_PredictionMarket.sol\":4774:4791  markets[marketId] */\n      0x00\n        /* \"Smart Contracts/25_PredictionMarket.sol\":4782:4790  marketId */\n      dup6\n        /* \"Smart Contracts/25_PredictionMarket.sol\":4774:4791  markets[marketId] */\n      dup2\n      mstore\n      0x20\n      add\n      swap1\n      dup2\n      mstore\n      0x20\n      add\n      0x00\n      keccak256\n        /* \"Smart Contracts/25_PredictionMarket.sol\":4755:4791  Market storage m = markets[marketId] */\n      swap1\n      pop\n        /* \"Smart Contracts/25_PredictionMarket.sol\":4827:4828  m */\n      dup1\n        /* \"Smart Contracts/25_PredictionMarket.sol\":4827:4837  m.deadline */\n      0x01\n      add\n      0x00\n      swap1\n      sload\n      swap1\n      0x0100\n      exp\n      swap1\n      div\n      0xffffffffffffffff\n      and\n        /* \"Smart Contracts/25_PredictionMarket.sol\":4808:4837  block.timestamp >= m.deadline */\n      0xffffffffffffffff\n      and\n        /* \"Smart Contracts/25_PredictionMarket.sol\":4808:4823  block.timestamp */\n      timestamp\n        /* \"Smart Contracts/25_PredictionMarket.sol\":4808:4837  block.timestamp >= m.deadline */\n      lt\n        /* \"Smart Contracts/25_PredictionMarket.sol\":4804:4860  if (block.timestamp >= m.deadline) revert MarketClosed() */\n      tag_125\n      jumpi\n        /* \"Smart Contracts/25_PredictionMarket.sol\":4846:4860  MarketClosed() */\n      mload(0x40)\n      0x0b5f6bf000000000000000000000000000000000000000000000000000000000\n      dup2\n      mstore\n      0x04\n      add\n      mload(0x40)\n      dup1\n      swap2\n      sub\n      swap1\n      revert\n        /* \"Smart Contracts/25_PredictionMarket.sol\":4804:4860  if (block.timestamp >= m.deadline) revert MarketClosed() */\n    tag_125:\n        /* \"Smart Contracts/25_PredictionMarket.sol\":4875:4876  m */\n      dup1\n        /* \"Smart Contracts/25_PredictionMarket.sol\":4875:4885  m.resolved */\n      0x01\n      add\n      0x0a\n      swap1\n      sload\n      swap1\n      0x0100\n      exp\n      swap1\n      div\n      0xff\n      and\n        /* \"Smart Contracts/25_PredictionMarket.sol\":4871:4917  if (m.resolved) revert MarketAlreadyResolved() */\n      iszero\n      tag_126\n      jumpi\n        /* \"Smart Contracts/25_PredictionMarket.sol\":4894:4917  MarketAlreadyResolved() */\n      mload(0x40)\n      0xaa43cb2d00000000000000000000000000000000000000000000000000000000\n      dup2\n      mstore\n      0x04\n      add\n      mload(0x40)\n      dup1\n      swap2\n      sub\n      swap1\n      revert\n        /* \"Smart Contracts/25_PredictionMarket.sol\":4871:4917  if (m.resolved) revert MarketAlreadyResolved() */\n    tag_126:\n        /* \"Smart Contracts/25_PredictionMarket.sol\":4942:4943  0 */\n      0x00\n        /* \"Smart Contracts/25_PredictionMarket.sol\":4932:4938  amount */\n      dup3\n        /* \"Smart Contracts/25_PredictionMarket.sol\":4932:4943  amount == 0 */\n      sub\n        /* \"Smart Contracts/25_PredictionMarket.sol\":4928:4967  if (amount == 0) revert InvalidAmount() */\n      tag_127\n      jumpi\n        /* \"Smart Contracts/25_PredictionMarket.sol\":4952:4967  InvalidAmount() */\n      mload(0x40)\n      0x2c5211c600000000000000000000000000000000000000000000000000000000\n      dup2\n      mstore\n      0x04\n      add\n      mload(0x40)\n      dup1\n      swap2\n      sub\n      swap1\n      revert\n        /* \"Smart Contracts/25_PredictionMarket.sol\":4928:4967  if (amount == 0) revert InvalidAmount() */\n    tag_127:\n        /* \"Smart Contracts/25_PredictionMarket.sol\":4980:5037  token.safeTransferFrom(msg.sender, address(this), amount) */\n      tag_128\n        /* \"Smart Contracts/25_PredictionMarket.sol\":5003:5013  msg.sender */\n      caller\n        /* \"Smart Contracts/25_PredictionMarket.sol\":5023:5027  this */\n      address\n        /* \"Smart Contracts/25_PredictionMarket.sol\":5030:5036  amount */\n      dup5\n        /* \"Smart Contracts/25_PredictionMarket.sol\":4980:4985  token */\n      0x64\n      0x00\n      swap1\n      sload\n      swap1\n      0x0100\n      exp\n      swap1\n      div\n      0xffffffffffffffffffffffffffffffffffffffff\n      and\n        /* \"Smart Contracts/25_PredictionMarket.sol\":4980:5002  token.safeTransferFrom */\n      0xffffffffffffffffffffffffffffffffffffffff\n      and\n      tag_129\n      swap1\n        /* \"Smart Contracts/25_PredictionMarket.sol\":4980:5037  token.safeTransferFrom(msg.sender, address(this), amount) */\n      swap4\n      swap3\n      swap2\n      swap1\n      0xffffffff\n      and\n      jump\t// in\n    tag_128:\n        /* \"Smart Contracts/25_PredictionMarket.sol\":5054:5059  isYes */\n      dup3\n        /* \"Smart Contracts/25_PredictionMarket.sol\":5050:5285  if (isYes) {... */\n      iszero\n      tag_130\n      jumpi\n        /* \"Smart Contracts/25_PredictionMarket.sol\":5109:5115  amount */\n      dup2\n        /* \"Smart Contracts/25_PredictionMarket.sol\":5076:5083  yesBets */\n      0x67\n        /* \"Smart Contracts/25_PredictionMarket.sol\":5076:5093  yesBets[marketId] */\n      0x00\n        /* \"Smart Contracts/25_PredictionMarket.sol\":5084:5092  marketId */\n      dup7\n        /* \"Smart Contracts/25_PredictionMarket.sol\":5076:5093  yesBets[marketId] */\n      dup2\n      mstore\n      0x20\n      add\n      swap1\n      dup2\n      mstore\n      0x20\n      add\n      0x00\n      keccak256\n        /* \"Smart Contracts/25_PredictionMarket.sol\":5076:5105  yesBets[marketId][msg.sender] */\n      0x00\n        /* \"Smart Contracts/25_PredictionMarket.sol\":5094:5104  msg.sender */\n      caller\n        /* \"Smart Contracts/25_PredictionMarket.sol\":5076:5105  yesBets[marketId][msg.sender] */\n      0xffffffffffffffffffffffffffffffffffffffff\n      and\n      0xffffffffffffffffffffffffffffffffffffffff\n      and\n      dup2\n      mstore\n      0x20\n      add\n      swap1\n      dup2\n      mstore\n      0x20\n      add\n      0x00\n      keccak256\n      0x00\n        /* \"Smart Contracts/25_PredictionMarket.sol\":5076:5115  yesBets[marketId][msg.sender] += amount */\n      dup3\n      dup3\n      sload\n      tag_131\n      swap2\n      swap1\n      tag_132\n      jump\t// in\n    tag_131:\n      swap3\n      pop\n      pop\n      dup2\n      swap1\n      sstore\n      pop\n        /* \"Smart Contracts/25_PredictionMarket.sol\":5152:5158  amount */\n      dup2\n        /* \"Smart Contracts/25_PredictionMarket.sol\":5130:5131  m */\n      dup2\n        /* \"Smart Contracts/25_PredictionMarket.sol\":5130:5140  m.totalYes */\n      0x00\n      add\n      0x00\n        /* \"Smart Contracts/25_PredictionMarket.sol\":5130:5159  m.totalYes += uint128(amount) */\n      dup3\n      dup3\n      dup3\n      swap1\n      sload\n      swap1\n      0x0100\n      exp\n      swap1\n      div\n      0xffffffffffffffffffffffffffffffff\n      and\n      tag_133\n      swap2\n      swap1\n      tag_134\n      jump\t// in\n    tag_133:\n      swap3\n      pop\n      0x0100\n      exp\n      dup2\n      sload\n      dup2\n      0xffffffffffffffffffffffffffffffff\n      mul\n      not\n      and\n      swap1\n      dup4\n      0xffffffffffffffffffffffffffffffff\n      and\n      mul\n      or\n      swap1\n      sstore\n      pop\n        /* \"Smart Contracts/25_PredictionMarket.sol\":5050:5285  if (isYes) {... */\n      jump(tag_135)\n    tag_130:\n        /* \"Smart Contracts/25_PredictionMarket.sol\":5224:5230  amount */\n      dup2\n        /* \"Smart Contracts/25_PredictionMarket.sol\":5192:5198  noBets */\n      0x68\n        /* \"Smart Contracts/25_PredictionMarket.sol\":5192:5208  noBets[marketId] */\n      0x00\n        /* \"Smart Contracts/25_PredictionMarket.sol\":5199:5207  marketId */\n      dup7\n        /* \"Smart Contracts/25_PredictionMarket.sol\":5192:5208  noBets[marketId] */\n      dup2\n      mstore\n      0x20\n      add\n      swap1\n      dup2\n      mstore\n      0x20\n      add\n      0x00\n      keccak256\n        /* \"Smart Contracts/25_PredictionMarket.sol\":5192:5220  noBets[marketId][msg.sender] */\n      0x00\n        /* \"Smart Contracts/25_PredictionMarket.sol\":5209:5219  msg.sender */\n      caller\n        /* \"Smart Contracts/25_PredictionMarket.sol\":5192:5220  noBets[marketId][msg.sender] */\n      0xffffffffffffffffffffffffffffffffffffffff\n      and\n      0xffffffffffffffffffffffffffffffffffffffff\n      and\n      dup2\n      mstore\n      0x20\n      add\n      swap1\n      dup2\n      mstore\n      0x20\n      add\n      0x00\n      keccak256\n      0x00\n        /* \"Smart Contracts/25_PredictionMarket.sol\":5192:5230  noBets[marketId][msg.sender] += amount */\n      dup3\n      dup3\n      sload\n      tag_136\n      swap2\n      swap1\n      tag_132\n      jump\t// in\n    tag_136:\n      swap3\n      pop\n      pop\n      dup2\n      swap1\n      sstore\n      pop\n        /* \"Smart Contracts/25_PredictionMarket.sol\":5266:5272  amount */\n      dup2\n        /* \"Smart Contracts/25_PredictionMarket.sol\":5245:5246  m */\n      dup2\n        /* \"Smart Contracts/25_PredictionMarket.sol\":5245:5254  m.totalNo */\n      0x00\n      add\n      0x10\n        /* \"Smart Contracts/25_PredictionMarket.sol\":5245:5273  m.totalNo += uint128(amount) */\n      dup3\n      dup3\n      dup3\n      swap1\n      sload\n      swap1\n      0x0100\n      exp\n      swap1\n      div\n      0xffffffffffffffffffffffffffffffff\n      and\n      tag_137\n      swap2\n      swap1\n      tag_134\n      jump\t// in\n    tag_137:\n      swap3\n      pop\n      0x0100\n      exp\n      dup2\n      sload\n      dup2\n      0xffffffffffffffffffffffffffffffff\n      mul\n      not\n      and\n      swap1\n      dup4\n      0xffffffffffffffffffffffffffffffff\n      and\n      mul\n      or\n      swap1\n      sstore\n      pop\n        /* \"Smart Contracts/25_PredictionMarket.sol\":5050:5285  if (isYes) {... */\n    tag_135:\n        /* \"Smart Contracts/25_PredictionMarket.sol\":5322:5332  msg.sender */\n      caller\n        /* \"Smart Contracts/25_PredictionMarket.sol\":5302:5348  BetPlaced(marketId, msg.sender, isYes, amount) */\n      0xffffffffffffffffffffffffffffffffffffffff\n      and\n        /* \"Smart Contracts/25_PredictionMarket.sol\":5312:5320  marketId */\n      dup5\n        /* \"Smart Contracts/25_PredictionMarket.sol\":5302:5348  BetPlaced(marketId, msg.sender, isYes, amount) */\n      0x4af71b021e799c62c158bd54636ca8da2fa26115a21a2dc6efe486ec104fd15f\n        /* \"Smart Contracts/25_PredictionMarket.sol\":5334:5339  isYes */\n      dup6\n        /* \"Smart Contracts/25_PredictionMarket.sol\":5341:5347  amount */\n      dup6\n        /* \"Smart Contracts/25_PredictionMarket.sol\":5302:5348  BetPlaced(marketId, msg.sender, isYes, amount) */\n      mload(0x40)\n      tag_138\n      swap3\n      swap2\n      swap1\n      tag_139\n      jump\t// in\n    tag_138:\n      mload(0x40)\n      dup1\n      swap2\n      sub\n      swap1\n      log3\n        /* \"Smart Contracts/25_PredictionMarket.sol\":4744:5356  {... */\n      pop\n        /* \"@openzeppelin/contracts-upgradeable/security/ReentrancyGuardUpgradeable.sol\":2568:2588  _nonReentrantAfter() */\n      tag_140\n        /* \"@openzeppelin/contracts-upgradeable/security/ReentrancyGuardUpgradeable.sol\":2568:2586  _nonReentrantAfter */\n      tag_141\n        /* \"@openzeppelin/contracts-upgradeable/security/ReentrancyGuardUpgradeable.sol\":2568:2588  _nonReentrantAfter() */\n      jump\t// in\n    tag_140:\n        /* \"Smart Contracts/25_PredictionMarket.sol\":4578:5356  function placeBet(... */\n      pop\n      pop\n      pop\n      jump\t// out\n        /* \"Smart Contracts/25_PredictionMarket.sol\":2676:2738  mapping(uint256 => mapping(address => uint256)) public yesBets */\n    tag_40:\n      mstore(0x20, 0x67)\n      dup2\n      0x00\n      mstore\n      mstore(0x20, keccak256(0x00, 0x40))\n      dup1\n      0x00\n      mstore\n      keccak256(0x00, 0x40)\n      0x00\n      swap2\n      pop\n      swap2\n      pop\n      pop\n      sload\n      dup2\n      jump\t// out\n        /* \"Smart Contracts/25_PredictionMarket.sol\":7402:7469  function unpause() external onlyOwner {... */\n    tag_44:\n        /* \"@openzeppelin/contracts-upgradeable/access/OwnableUpgradeable.sol\":2334:2347  _checkOwner() */\n      tag_143\n        /* \"@openzeppelin/contracts-upgradeable/access/OwnableUpgradeable.sol\":2334:2345  _checkOwner */\n      tag_144\n        /* \"@openzeppelin/contracts-upgradeable/access/OwnableUpgradeable.sol\":2334:2347  _checkOwner() */\n      jump\t// in\n    tag_143:\n        /* \"Smart Contracts/25_PredictionMarket.sol\":7451:7461  _unpause() */\n      tag_146\n        /* \"Smart Contracts/25_PredictionMarket.sol\":7451:7459  _unpause */\n      tag_147\n        /* \"Smart Contracts/25_PredictionMarket.sol\":7451:7461  _unpause() */\n      jump\t// in\n    tag_146:\n        /* \"Smart Contracts/25_PredictionMarket.sol\":7402:7469  function unpause() external onlyOwner {... */\n      jump\t// out\n        /* \"@openzeppelin/contracts-upgradeable/proxy/utils/UUPSUpgradeable.sol\":4161:4375  function upgradeToAndCall(address newImplementation, bytes memory data) public payable virtual onlyProxy {... */\n    tag_48:\n        /* \"@openzeppelin/contracts-upgradeable/proxy/utils/UUPSUpgradeable.sol\":2655:2668  _checkProxy() */\n      tag_149\n        /* \"@openzeppelin/contracts-upgradeable/proxy/utils/UUPSUpgradeable.sol\":2655:2666  _checkProxy */\n      tag_150\n        /* \"@openzeppelin/contracts-upgradeable/proxy/utils/UUPSUpgradeable.sol\":2655:2668  _checkProxy() */\n      jump\t// in\n    tag_149:\n        /* \"@openzeppelin/contracts-upgradeable/proxy/utils/UUPSUpgradeable.sol\":4276:4312  _authorizeUpgrade(newImplementation) */\n      tag_152\n        /* \"@openzeppelin/contracts-upgradeable/proxy/utils/UUPSUpgradeable.sol\":4294:4311  newImplementation */\n      dup3\n        /* \"@openzeppelin/contracts-upgradeable/proxy/utils/UUPSUpgradeable.sol\":4276:4293  _authorizeUpgrade */\n      tag_153\n        /* \"@openzeppelin/contracts-upgradeable/proxy/utils/UUPSUpgradeable.sol\":4276:4312  _authorizeUpgrade(newImplementation) */\n      jump\t// in\n    tag_152:\n        /* \"@openzeppelin/contracts-upgradeable/proxy/utils/UUPSUpgradeable.sol\":4322:4368  _upgradeToAndCallUUPS(newImplementation, data) */\n      tag_154\n        /* \"@openzeppelin/contracts-upgradeable/proxy/utils/UUPSUpgradeable.sol\":4344:4361  newImplementation */\n      dup3\n        /* \"@openzeppelin/contracts-upgradeable/proxy/utils/UUPSUpgradeable.sol\":4363:4367  data */\n      dup3\n        /* \"@openzeppelin/contracts-upgradeable/proxy/utils/UUPSUpgradeable.sol\":4322:4343  _upgradeToAndCallUUPS */\n      tag_155\n        /* \"@openzeppelin/contracts-upgradeable/proxy/utils/UUPSUpgradeable.sol\":4322:4368  _upgradeToAndCallUUPS(newImplementation, data) */\n      jump\t// in\n    tag_154:\n        /* \"@openzeppelin/contracts-upgradeable/proxy/utils/UUPSUpgradeable.sol\":4161:4375  function upgradeToAndCall(address newImplementation, bytes memory data) public payable virtual onlyProxy {... */\n      pop\n      pop\n      jump\t// out\n        /* \"@openzeppelin/contracts-upgradeable/proxy/utils/UUPSUpgradeable.sol\":3708:3842  function proxiableUUID() external view virtual notDelegated returns (bytes32) {... */\n    tag_51:\n        /* \"@openzeppelin/contracts-upgradeable/proxy/utils/UUPSUpgradeable.sol\":3777:3784  bytes32 */\n      0x00\n        /* \"@openzeppelin/contracts-upgradeable/proxy/utils/UUPSUpgradeable.sol\":2926:2946  _checkNotDelegated() */\n      tag_157\n        /* \"@openzeppelin/contracts-upgradeable/proxy/utils/UUPSUpgradeable.sol\":2926:2944  _checkNotDelegated */\n      tag_158\n        /* \"@openzeppelin/contracts-upgradeable/proxy/utils/UUPSUpgradeable.sol\":2926:2946  _checkNotDelegated() */\n      jump\t// in\n    tag_157:\n        /* \"@openzeppelin/contracts/proxy/ERC1967/ERC1967Utils.sol\":811:877  0x360894a13ba1a3210667c828492db98dca3e2076cc3735a920a3ca505d382bbc */\n      0x360894a13ba1a3210667c828492db98dca3e2076cc3735a920a3ca505d382bbc\n        /* \"@openzeppelin/contracts-upgradeable/proxy/utils/UUPSUpgradeable.sol\":3803:3835  ERC1967Utils.IMPLEMENTATION_SLOT */\n      0x00\n      shl\n        /* \"@openzeppelin/contracts-upgradeable/proxy/utils/UUPSUpgradeable.sol\":3796:3835  return ERC1967Utils.IMPLEMENTATION_SLOT */\n      swap1\n      pop\n        /* \"@openzeppelin/contracts-upgradeable/proxy/utils/UUPSUpgradeable.sol\":3708:3842  function proxiableUUID() external view virtual notDelegated returns (bytes32) {... */\n      swap1\n      jump\t// out\n        /* \"@openzeppelin/contracts-upgradeable/security/PausableUpgradeable.sol\":1879:1963  function paused() public view virtual returns (bool) {... */\n    tag_56:\n        /* \"@openzeppelin/contracts-upgradeable/security/PausableUpgradeable.sol\":1926:1930  bool */\n      0x00\n        /* \"@openzeppelin/contracts-upgradeable/security/PausableUpgradeable.sol\":1949:1956  _paused */\n      0x32\n      0x00\n      swap1\n      sload\n      swap1\n      0x0100\n      exp\n      swap1\n      div\n      0xff\n      and\n        /* \"@openzeppelin/contracts-upgradeable/security/PausableUpgradeable.sol\":1942:1956  return _paused */\n      swap1\n      pop\n        /* \"@openzeppelin/contracts-upgradeable/security/PausableUpgradeable.sol\":1879:1963  function paused() public view virtual returns (bool) {... */\n      swap1\n      jump\t// out\n        /* \"Smart Contracts/25_PredictionMarket.sol\":5488:6072  function resolveMarket(uint256 marketId)... */\n    tag_63:\n        /* \"@openzeppelin/contracts-upgradeable/security/ReentrancyGuardUpgradeable.sol\":2526:2547  _nonReentrantBefore() */\n      tag_162\n        /* \"@openzeppelin/contracts-upgradeable/security/ReentrancyGuardUpgradeable.sol\":2526:2545  _nonReentrantBefore */\n      tag_120\n        /* \"@openzeppelin/contracts-upgradeable/security/ReentrancyGuardUpgradeable.sol\":2526:2547  _nonReentrantBefore() */\n      jump\t// in\n    tag_162:\n        /* \"Smart Contracts/25_PredictionMarket.sol\":5585:5601  Market storage m */\n      0x00\n        /* \"Smart Contracts/25_PredictionMarket.sol\":5604:5611  markets */\n      0x66\n        /* \"Smart Contracts/25_PredictionMarket.sol\":5604:5621  markets[marketId] */\n      0x00\n        /* \"Smart Contracts/25_PredictionMarket.sol\":5612:5620  marketId */\n      dup4\n        /* \"Smart Contracts/25_PredictionMarket.sol\":5604:5621  markets[marketId] */\n      dup2\n      mstore\n      0x20\n      add\n      swap1\n      dup2\n      mstore\n      0x20\n      add\n      0x00\n      keccak256\n        /* \"Smart Contracts/25_PredictionMarket.sol\":5585:5621  Market storage m = markets[marketId] */\n      swap1\n      pop\n        /* \"Smart Contracts/25_PredictionMarket.sol\":5656:5657  m */\n      dup1\n        /* \"Smart Contracts/25_PredictionMarket.sol\":5656:5666  m.deadline */\n      0x01\n      add\n      0x00\n      swap1\n      sload\n      swap1\n      0x0100\n      exp\n      swap1\n      div\n      0xffffffffffffffff\n      and\n        /* \"Smart Contracts/25_PredictionMarket.sol\":5638:5666  block.timestamp < m.deadline */\n      0xffffffffffffffff\n      and\n        /* \"Smart Contracts/25_PredictionMarket.sol\":5638:5653  block.timestamp */\n      timestamp\n        /* \"Smart Contracts/25_PredictionMarket.sol\":5638:5666  block.timestamp < m.deadline */\n      lt\n        /* \"Smart Contracts/25_PredictionMarket.sol\":5634:5691  if (block.timestamp < m.deadline) revert MarketNotEnded() */\n      iszero\n      tag_164\n      jumpi\n        /* \"Smart Contracts/25_PredictionMarket.sol\":5675:5691  MarketNotEnded() */\n      mload(0x40)\n      0x0b55ac7400000000000000000000000000000000000000000000000000000000\n      dup2\n      mstore\n      0x04\n      add\n      mload(0x40)\n      dup1\n      swap2\n      sub\n      swap1\n      revert\n        /* \"Smart Contracts/25_PredictionMarket.sol\":5634:5691  if (block.timestamp < m.deadline) revert MarketNotEnded() */\n    tag_164:\n        /* \"Smart Contracts/25_PredictionMarket.sol\":5706:5707  m */\n      dup1\n        /* \"Smart Contracts/25_PredictionMarket.sol\":5706:5716  m.resolved */\n      0x01\n      add\n      0x0a\n      swap1\n      sload\n      swap1\n      0x0100\n      exp\n      swap1\n      div\n      0xff\n      and\n        /* \"Smart Contracts/25_PredictionMarket.sol\":5702:5748  if (m.resolved) revert MarketAlreadyResolved() */\n      iszero\n      tag_165\n      jumpi\n        /* \"Smart Contracts/25_PredictionMarket.sol\":5725:5748  MarketAlreadyResolved() */\n      mload(0x40)\n      0xaa43cb2d00000000000000000000000000000000000000000000000000000000\n      dup2\n      mstore\n      0x04\n      add\n      mload(0x40)\n      dup1\n      swap2\n      sub\n      swap1\n      revert\n        /* \"Smart Contracts/25_PredictionMarket.sol\":5702:5748  if (m.resolved) revert MarketAlreadyResolved() */\n    tag_165:\n        /* \"Smart Contracts/25_PredictionMarket.sol\":5764:5776  int256 price */\n      0x00\n        /* \"Smart Contracts/25_PredictionMarket.sol\":5805:5806  m */\n      dup2\n        /* \"Smart Contracts/25_PredictionMarket.sol\":5805:5813  m.oracle */\n      0x01\n      add\n      0x0c\n      swap1\n      sload\n      swap1\n      0x0100\n      exp\n      swap1\n      div\n      0xffffffffffffffffffffffffffffffffffffffff\n      and\n        /* \"Smart Contracts/25_PredictionMarket.sol\":5783:5830  AggregatorV3Interface(m.oracle).latestRoundData */\n      0xffffffffffffffffffffffffffffffffffffffff\n      and\n      0xfeaf968c\n        /* \"Smart Contracts/25_PredictionMarket.sol\":5783:5832  AggregatorV3Interface(m.oracle).latestRoundData() */\n      mload(0x40)\n      dup2\n      0xffffffff\n      and\n      0xe0\n      shl\n      dup2\n      mstore\n      0x04\n      add\n      0xa0\n      mload(0x40)\n      dup1\n      dup4\n      sub\n      dup2\n      dup7\n      gas\n      staticcall\n      iszero\n      dup1\n      iszero\n      tag_167\n      jumpi\n      returndatacopy(0x00, 0x00, returndatasize)\n      revert(0x00, returndatasize)\n    tag_167:\n      pop\n      pop\n      pop\n      pop\n      mload(0x40)\n      returndatasize\n      not(0x1f)\n      0x1f\n      dup3\n      add\n      and\n      dup3\n      add\n      dup1\n      0x40\n      mstore\n      pop\n      dup2\n      add\n      swap1\n      tag_168\n      swap2\n      swap1\n      tag_169\n      jump\t// in\n    tag_168:\n        /* \"Smart Contracts/25_PredictionMarket.sol\":5761:5832  (, int256 price,,,) = AggregatorV3Interface(m.oracle).latestRoundData() */\n      pop\n      pop\n      pop\n      swap2\n      pop\n      pop\n        /* \"Smart Contracts/25_PredictionMarket.sol\":5858:5862  true */\n      0x01\n        /* \"Smart Contracts/25_PredictionMarket.sol\":5845:5846  m */\n      dup3\n        /* \"Smart Contracts/25_PredictionMarket.sol\":5845:5855  m.resolved */\n      0x01\n      add\n      0x0a\n        /* \"Smart Contracts/25_PredictionMarket.sol\":5845:5862  m.resolved = true */\n      0x0100\n      exp\n      dup2\n      sload\n      dup2\n      0xff\n      mul\n      not\n      and\n      swap1\n      dup4\n      iszero\n      iszero\n      mul\n      or\n      swap1\n      sstore\n      pop\n        /* \"Smart Contracts/25_PredictionMarket.sol\":5888:5889  m */\n      dup2\n        /* \"Smart Contracts/25_PredictionMarket.sol\":5888:5901  m.targetPrice */\n      0x02\n      add\n      sload\n        /* \"Smart Contracts/25_PredictionMarket.sol\":5879:5884  price */\n      dup2\n        /* \"Smart Contracts/25_PredictionMarket.sol\":5879:5901  price >= m.targetPrice */\n      slt\n        /* \"Smart Contracts/25_PredictionMarket.sol\":5875:6006  if (price >= m.targetPrice) {... */\n      tag_170\n      jumpi\n        /* \"Smart Contracts/25_PredictionMarket.sol\":5929:5940  Outcome.Yes */\n      0x01\n        /* \"Smart Contracts/25_PredictionMarket.sol\":5918:5919  m */\n      dup3\n        /* \"Smart Contracts/25_PredictionMarket.sol\":5918:5926  m.result */\n      0x01\n      add\n      0x0b\n        /* \"Smart Contracts/25_PredictionMarket.sol\":5918:5940  m.result = Outcome.Yes */\n      0x0100\n      exp\n      dup2\n      sload\n      dup2\n      0xff\n      mul\n      not\n      and\n      swap1\n      dup4\n      0x03\n      dup2\n      gt\n      iszero\n      tag_171\n      jumpi\n      tag_172\n      tag_173\n      jump\t// in\n    tag_172:\n    tag_171:\n      mul\n      or\n      swap1\n      sstore\n      pop\n        /* \"Smart Contracts/25_PredictionMarket.sol\":5875:6006  if (price >= m.targetPrice) {... */\n      jump(tag_174)\n    tag_170:\n        /* \"Smart Contracts/25_PredictionMarket.sol\":5984:5994  Outcome.No */\n      0x02\n        /* \"Smart Contracts/25_PredictionMarket.sol\":5973:5974  m */\n      dup3\n        /* \"Smart Contracts/25_PredictionMarket.sol\":5973:5981  m.result */\n      0x01\n      add\n      0x0b\n        /* \"Smart Contracts/25_PredictionMarket.sol\":5973:5994  m.result = Outcome.No */\n      0x0100\n      exp\n      dup2\n      sload\n      dup2\n      0xff\n      mul\n      not\n      and\n      swap1\n      dup4\n      0x03\n      dup2\n      gt\n      iszero\n      tag_175\n      jumpi\n      tag_176\n      tag_173\n      jump\t// in\n    tag_176:\n    tag_175:\n      mul\n      or\n      swap1\n      sstore\n      pop\n        /* \"Smart Contracts/25_PredictionMarket.sol\":5875:6006  if (price >= m.targetPrice) {... */\n    tag_174:\n        /* \"Smart Contracts/25_PredictionMarket.sol\":6038:6046  marketId */\n      dup3\n        /* \"Smart Contracts/25_PredictionMarket.sol\":6023:6064  MarketResolved(marketId, uint8(m.result)) */\n      0x739f283563fb51ab6b89ee95d937b2e63a6cfcb83c385dbebb629f9d97bd43e6\n        /* \"Smart Contracts/25_PredictionMarket.sol\":6054:6055  m */\n      dup4\n        /* \"Smart Contracts/25_PredictionMarket.sol\":6054:6062  m.result */\n      0x01\n      add\n      0x0b\n      swap1\n      sload\n      swap1\n      0x0100\n      exp\n      swap1\n      div\n      0xff\n      and\n        /* \"Smart Contracts/25_PredictionMarket.sol\":6048:6063  uint8(m.result) */\n      0x03\n      dup2\n      gt\n      iszero\n      tag_177\n      jumpi\n      tag_178\n      tag_173\n      jump\t// in\n    tag_178:\n    tag_177:\n        /* \"Smart Contracts/25_PredictionMarket.sol\":6023:6064  MarketResolved(marketId, uint8(m.result)) */\n      mload(0x40)\n      tag_179\n      swap2\n      swap1\n      tag_180\n      jump\t// in\n    tag_179:\n      mload(0x40)\n      dup1\n      swap2\n      sub\n      swap1\n      log2\n        /* \"Smart Contracts/25_PredictionMarket.sol\":5574:6072  {... */\n      pop\n      pop\n        /* \"@openzeppelin/contracts-upgradeable/security/ReentrancyGuardUpgradeable.sol\":2568:2588  _nonReentrantAfter() */\n      tag_181\n        /* \"@openzeppelin/contracts-upgradeable/security/ReentrancyGuardUpgradeable.sol\":2568:2586  _nonReentrantAfter */\n      tag_141\n        /* \"@openzeppelin/contracts-upgradeable/security/ReentrancyGuardUpgradeable.sol\":2568:2588  _nonReentrantAfter() */\n      jump\t// in\n    tag_181:\n        /* \"Smart Contracts/25_PredictionMarket.sol\":5488:6072  function resolveMarket(uint256 marketId)... */\n      pop\n      jump\t// out\n        /* \"@openzeppelin/contracts-upgradeable/access/OwnableUpgradeable.sol\":3155:3256  function renounceOwnership() public virtual onlyOwner {... */\n    tag_66:\n        /* \"@openzeppelin/contracts-upgradeable/access/OwnableUpgradeable.sol\":2334:2347  _checkOwner() */\n      tag_183\n        /* \"@openzeppelin/contracts-upgradeable/access/OwnableUpgradeable.sol\":2334:2345  _checkOwner */\n      tag_144\n        /* \"@openzeppelin/contracts-upgradeable/access/OwnableUpgradeable.sol\":2334:2347  _checkOwner() */\n      jump\t// in\n    tag_183:\n        /* \"@openzeppelin/contracts-upgradeable/access/OwnableUpgradeable.sol\":3219:3249  _transferOwnership(address(0)) */\n      tag_185\n        /* \"@openzeppelin/contracts-upgradeable/access/OwnableUpgradeable.sol\":3246:3247  0 */\n      0x00\n        /* \"@openzeppelin/contracts-upgradeable/access/OwnableUpgradeable.sol\":3219:3237  _transferOwnership */\n      tag_186\n        /* \"@openzeppelin/contracts-upgradeable/access/OwnableUpgradeable.sol\":3219:3249  _transferOwnership(address(0)) */\n      jump\t// in\n    tag_185:\n        /* \"@openzeppelin/contracts-upgradeable/access/OwnableUpgradeable.sol\":3155:3256  function renounceOwnership() public virtual onlyOwner {... */\n      jump\t// out\n        /* \"Smart Contracts/25_PredictionMarket.sol\":7331:7394  function pause() external onlyOwner {... */\n    tag_69:\n        /* \"@openzeppelin/contracts-upgradeable/access/OwnableUpgradeable.sol\":2334:2347  _checkOwner() */\n      tag_188\n        /* \"@openzeppelin/contracts-upgradeable/access/OwnableUpgradeable.sol\":2334:2345  _checkOwner */\n      tag_144\n        /* \"@openzeppelin/contracts-upgradeable/access/OwnableUpgradeable.sol\":2334:2347  _checkOwner() */\n      jump\t// in\n    tag_188:\n        /* \"Smart Contracts/25_PredictionMarket.sol\":7378:7386  _pause() */\n      tag_190\n        /* \"Smart Contracts/25_PredictionMarket.sol\":7378:7384  _pause */\n      tag_191\n        /* \"Smart Contracts/25_PredictionMarket.sol\":7378:7386  _pause() */\n      jump\t// in\n    tag_190:\n        /* \"Smart Contracts/25_PredictionMarket.sol\":7331:7394  function pause() external onlyOwner {... */\n      jump\t// out\n        /* \"@openzeppelin/contracts-upgradeable/access/OwnableUpgradeable.sol\":2441:2585  function owner() public view virtual returns (address) {... */\n    tag_72:\n        /* \"@openzeppelin/contracts-upgradeable/access/OwnableUpgradeable.sol\":2487:2494  address */\n      0x00\n        /* \"@openzeppelin/contracts-upgradeable/access/OwnableUpgradeable.sol\":2506:2530  OwnableStorage storage $ */\n      0x00\n        /* \"@openzeppelin/contracts-upgradeable/access/OwnableUpgradeable.sol\":2533:2553  _getOwnableStorage() */\n      tag_193\n        /* \"@openzeppelin/contracts-upgradeable/access/OwnableUpgradeable.sol\":2533:2551  _getOwnableStorage */\n      tag_194\n        /* \"@openzeppelin/contracts-upgradeable/access/OwnableUpgradeable.sol\":2533:2553  _getOwnableStorage() */\n      jump\t// in\n    tag_193:\n        /* \"@openzeppelin/contracts-upgradeable/access/OwnableUpgradeable.sol\":2506:2553  OwnableStorage storage $ = _getOwnableStorage() */\n      swap1\n      pop\n        /* \"@openzeppelin/contracts-upgradeable/access/OwnableUpgradeable.sol\":2570:2571  $ */\n      dup1\n        /* \"@openzeppelin/contracts-upgradeable/access/OwnableUpgradeable.sol\":2570:2578  $._owner */\n      0x00\n      add\n      0x00\n      swap1\n      sload\n      swap1\n      0x0100\n      exp\n      swap1\n      div\n      0xffffffffffffffffffffffffffffffffffffffff\n      and\n        /* \"@openzeppelin/contracts-upgradeable/access/OwnableUpgradeable.sol\":2563:2578  return $._owner */\n      swap2\n      pop\n      pop\n        /* \"@openzeppelin/contracts-upgradeable/access/OwnableUpgradeable.sol\":2441:2585  function owner() public view virtual returns (address) {... */\n      swap1\n      jump\t// out\n        /* \"Smart Contracts/25_PredictionMarket.sol\":3743:4446  function createMarket(... */\n    tag_79:\n        /* \"@openzeppelin/contracts-upgradeable/access/OwnableUpgradeable.sol\":2334:2347  _checkOwner() */\n      tag_196\n        /* \"@openzeppelin/contracts-upgradeable/access/OwnableUpgradeable.sol\":2334:2345  _checkOwner */\n      tag_144\n        /* \"@openzeppelin/contracts-upgradeable/access/OwnableUpgradeable.sol\":2334:2347  _checkOwner() */\n      jump\t// in\n    tag_196:\n        /* \"Smart Contracts/25_PredictionMarket.sol\":2617:2619  10 */\n      0x0a\n        /* \"Smart Contracts/25_PredictionMarket.sol\":3916:3936  feePercent > MAX_FEE */\n      0xffff\n      and\n        /* \"Smart Contracts/25_PredictionMarket.sol\":3916:3926  feePercent */\n      dup4\n        /* \"Smart Contracts/25_PredictionMarket.sol\":3916:3936  feePercent > MAX_FEE */\n      0xffff\n      and\n      gt\n        /* \"Smart Contracts/25_PredictionMarket.sol\":3912:3957  if (feePercent > MAX_FEE) revert FeeTooHigh() */\n      iszero\n      tag_198\n      jumpi\n        /* \"Smart Contracts/25_PredictionMarket.sol\":3945:3957  FeeTooHigh() */\n      mload(0x40)\n      0xcd4e616700000000000000000000000000000000000000000000000000000000\n      dup2\n      mstore\n      0x04\n      add\n      mload(0x40)\n      dup1\n      swap2\n      sub\n      swap1\n      revert\n        /* \"Smart Contracts/25_PredictionMarket.sol\":3912:3957  if (feePercent > MAX_FEE) revert FeeTooHigh() */\n    tag_198:\n        /* \"Smart Contracts/25_PredictionMarket.sol\":3990:3991  0 */\n      0x00\n        /* \"Smart Contracts/25_PredictionMarket.sol\":3972:3992  oracle == address(0) */\n      0xffffffffffffffffffffffffffffffffffffffff\n      and\n        /* \"Smart Contracts/25_PredictionMarket.sol\":3972:3978  oracle */\n      dup3\n        /* \"Smart Contracts/25_PredictionMarket.sol\":3972:3992  oracle == address(0) */\n      0xffffffffffffffffffffffffffffffffffffffff\n      and\n      sub\n        /* \"Smart Contracts/25_PredictionMarket.sol\":3968:4016  if (oracle == address(0)) revert InvalidOracle() */\n      tag_199\n      jumpi\n        /* \"Smart Contracts/25_PredictionMarket.sol\":4001:4016  InvalidOracle() */\n      mload(0x40)\n      0x9589a27d00000000000000000000000000000000000000000000000000000000\n      dup2\n      mstore\n      0x04\n      add\n      mload(0x40)\n      dup1\n      swap2\n      sub\n      swap1\n      revert\n        /* \"Smart Contracts/25_PredictionMarket.sol\":3968:4016  if (oracle == address(0)) revert InvalidOracle() */\n    tag_199:\n        /* \"Smart Contracts/25_PredictionMarket.sol\":4052:4357  Market({... */\n      mload(0x40)\n      dup1\n      0x0100\n      add\n      0x40\n      mstore\n      dup1\n        /* \"Smart Contracts/25_PredictionMarket.sol\":4084:4085  0 */\n      0x00\n        /* \"Smart Contracts/25_PredictionMarket.sol\":4052:4357  Market({... */\n      0xffffffffffffffffffffffffffffffff\n      and\n      dup2\n      mstore\n      0x20\n      add\n        /* \"Smart Contracts/25_PredictionMarket.sol\":4109:4110  0 */\n      0x00\n        /* \"Smart Contracts/25_PredictionMarket.sol\":4052:4357  Market({... */\n      0xffffffffffffffffffffffffffffffff\n      and\n      dup2\n      mstore\n      0x20\n      add\n        /* \"Smart Contracts/25_PredictionMarket.sol\":4160:4168  duration */\n      dup6\n        /* \"Smart Contracts/25_PredictionMarket.sol\":4142:4168  block.timestamp + duration */\n      0xffffffffffffffff\n      and\n        /* \"Smart Contracts/25_PredictionMarket.sol\":4142:4157  block.timestamp */\n      timestamp\n        /* \"Smart Contracts/25_PredictionMarket.sol\":4142:4168  block.timestamp + duration */\n      tag_200\n      swap2\n      swap1\n      tag_132\n      jump\t// in\n    tag_200:\n        /* \"Smart Contracts/25_PredictionMarket.sol\":4052:4357  Market({... */\n      0xffffffffffffffff\n      and\n      dup2\n      mstore\n      0x20\n      add\n        /* \"Smart Contracts/25_PredictionMarket.sol\":4196:4206  feePercent */\n      dup5\n        /* \"Smart Contracts/25_PredictionMarket.sol\":4052:4357  Market({... */\n      0xffff\n      and\n      dup2\n      mstore\n      0x20\n      add\n        /* \"Smart Contracts/25_PredictionMarket.sol\":4231:4236  false */\n      0x00\n        /* \"Smart Contracts/25_PredictionMarket.sol\":4052:4357  Market({... */\n      iszero\n      iszero\n      dup2\n      mstore\n      0x20\n      add\n        /* \"Smart Contracts/25_PredictionMarket.sol\":4259:4277  Outcome.Unresolved */\n      0x00\n        /* \"Smart Contracts/25_PredictionMarket.sol\":4052:4357  Market({... */\n      0x03\n      dup2\n      gt\n      iszero\n      tag_201\n      jumpi\n      tag_202\n      tag_173\n      jump\t// in\n    tag_202:\n    tag_201:\n      dup2\n      mstore\n      0x20\n      add\n        /* \"Smart Contracts/25_PredictionMarket.sol\":4300:4306  oracle */\n      dup4\n        /* \"Smart Contracts/25_PredictionMarket.sol\":4052:4357  Market({... */\n      0xffffffffffffffffffffffffffffffffffffffff\n      and\n      dup2\n      mstore\n      0x20\n      add\n        /* \"Smart Contracts/25_PredictionMarket.sol\":4334:4345  targetPrice */\n      dup3\n        /* \"Smart Contracts/25_PredictionMarket.sol\":4052:4357  Market({... */\n      dup2\n      mstore\n      pop\n        /* \"Smart Contracts/25_PredictionMarket.sol\":4029:4036  markets */\n      0x66\n        /* \"Smart Contracts/25_PredictionMarket.sol\":4029:4049  markets[marketCount] */\n      0x00\n        /* \"Smart Contracts/25_PredictionMarket.sol\":4037:4048  marketCount */\n      sload(0x65)\n        /* \"Smart Contracts/25_PredictionMarket.sol\":4029:4049  markets[marketCount] */\n      dup2\n      mstore\n      0x20\n      add\n      swap1\n      dup2\n      mstore\n      0x20\n      add\n      0x00\n      keccak256\n        /* \"Smart Contracts/25_PredictionMarket.sol\":4029:4357  markets[marketCount] = Market({... */\n      0x00\n      dup3\n      add\n      mload\n      dup2\n      0x00\n      add\n      exp(0x0100, 0x00)\n      dup2\n      sload\n      dup2\n      0xffffffffffffffffffffffffffffffff\n      mul\n      not\n      and\n      swap1\n      dup4\n      0xffffffffffffffffffffffffffffffff\n      and\n      mul\n      or\n      swap1\n      sstore\n      pop\n      0x20\n      dup3\n      add\n      mload\n      dup2\n      0x00\n      add\n      exp(0x0100, 0x10)\n      dup2\n      sload\n      dup2\n      0xffffffffffffffffffffffffffffffff\n      mul\n      not\n      and\n      swap1\n      dup4\n      0xffffffffffffffffffffffffffffffff\n      and\n      mul\n      or\n      swap1\n      sstore\n      pop\n      0x40\n      dup3\n      add\n      mload\n      dup2\n      0x01\n      add\n      exp(0x0100, 0x00)\n      dup2\n      sload\n      dup2\n      0xffffffffffffffff\n      mul\n      not\n      and\n      swap1\n      dup4\n      0xffffffffffffffff\n      and\n      mul\n      or\n      swap1\n      sstore\n      pop\n      0x60\n      dup3\n      add\n      mload\n      dup2\n      0x01\n      add\n      exp(0x0100, 0x08)\n      dup2\n      sload\n      dup2\n      0xffff\n      mul\n      not\n      and\n      swap1\n      dup4\n      0xffff\n      and\n      mul\n      or\n      swap1\n      sstore\n      pop\n      0x80\n      dup3\n      add\n      mload\n      dup2\n      0x01\n      add\n      exp(0x0100, 0x0a)\n      dup2\n      sload\n      dup2\n      0xff\n      mul\n      not\n      and\n      swap1\n      dup4\n      iszero\n      iszero\n      mul\n      or\n      swap1\n      sstore\n      pop\n      0xa0\n      dup3\n      add\n      mload\n      dup2\n      0x01\n      add\n      exp(0x0100, 0x0b)\n      dup2\n      sload\n      dup2\n      0xff\n      mul\n      not\n      and\n      swap1\n      dup4\n      0x03\n      dup2\n      gt\n      iszero\n      tag_203\n      jumpi\n      tag_204\n      tag_173\n      jump\t// in\n    tag_204:\n    tag_203:\n      mul\n      or\n      swap1\n      sstore\n      pop\n      0xc0\n      dup3\n      add\n      mload\n      dup2\n      0x01\n      add\n      exp(0x0100, 0x0c)\n      dup2\n      sload\n      dup2\n      0xffffffffffffffffffffffffffffffffffffffff\n      mul\n      not\n      and\n      swap1\n      dup4\n      0xffffffffffffffffffffffffffffffffffffffff\n      and\n      mul\n      or\n      swap1\n      sstore\n      pop\n      0xe0\n      dup3\n      add\n      mload\n      dup2\n      0x02\n      add\n      sstore\n      swap1\n      pop\n      pop\n        /* \"Smart Contracts/25_PredictionMarket.sol\":4389:4400  marketCount */\n      sload(0x65)\n        /* \"Smart Contracts/25_PredictionMarket.sol\":4375:4414  MarketCreated(marketCount, targetPrice) */\n      0xb466446070e4bf49a6413e2bbfaf36e4ef8be12140dd09e3fa50af78e0941e69\n        /* \"Smart Contracts/25_PredictionMarket.sol\":4402:4413  targetPrice */\n      dup3\n        /* \"Smart Contracts/25_PredictionMarket.sol\":4375:4414  MarketCreated(marketCount, targetPrice) */\n      mload(0x40)\n      tag_205\n      swap2\n      swap1\n      tag_206\n      jump\t// in\n    tag_205:\n      mload(0x40)\n      dup1\n      swap2\n      sub\n      swap1\n      log2\n        /* \"Smart Contracts/25_PredictionMarket.sol\":4425:4436  marketCount */\n      0x65\n      0x00\n        /* \"Smart Contracts/25_PredictionMarket.sol\":4425:4438  marketCount++ */\n      dup2\n      sload\n      dup1\n      swap3\n      swap2\n      swap1\n      tag_207\n      swap1\n      tag_208\n      jump\t// in\n    tag_207:\n      swap2\n      swap1\n      pop\n      sstore\n      pop\n        /* \"Smart Contracts/25_PredictionMarket.sol\":3743:4446  function createMarket(... */\n      pop\n      pop\n      pop\n      pop\n      jump\t// out\n        /* \"@openzeppelin/contracts-upgradeable/proxy/utils/UUPSUpgradeable.sol\":1819:1877  string public constant UPGRADE_INTERFACE_VERSION = \"5.0.0\" */\n    tag_82:\n      mload(0x40)\n      dup1\n      0x40\n      add\n      0x40\n      mstore\n      dup1\n      0x05\n      dup2\n      mstore\n      0x20\n      add\n      0x352e302e30000000000000000000000000000000000000000000000000000000\n      dup2\n      mstore\n      pop\n      dup2\n      jump\t// out\n        /* \"Smart Contracts/25_PredictionMarket.sol\":6204:7199  function claimReward(uint256 marketId)... */\n    tag_88:\n        /* \"@openzeppelin/contracts-upgradeable/security/ReentrancyGuardUpgradeable.sol\":2526:2547  _nonReentrantBefore() */\n      tag_210\n        /* \"@openzeppelin/contracts-upgradeable/security/ReentrancyGuardUpgradeable.sol\":2526:2545  _nonReentrantBefore */\n      tag_120\n        /* \"@openzeppelin/contracts-upgradeable/security/ReentrancyGuardUpgradeable.sol\":2526:2547  _nonReentrantBefore() */\n      jump\t// in\n    tag_210:\n        /* \"Smart Contracts/25_PredictionMarket.sol\":6299:6315  Market storage m */\n      0x00\n        /* \"Smart Contracts/25_PredictionMarket.sol\":6318:6325  markets */\n      0x66\n        /* \"Smart Contracts/25_PredictionMarket.sol\":6318:6335  markets[marketId] */\n      0x00\n        /* \"Smart Contracts/25_PredictionMarket.sol\":6326:6334  marketId */\n      dup4\n        /* \"Smart Contracts/25_PredictionMarket.sol\":6318:6335  markets[marketId] */\n      dup2\n      mstore\n      0x20\n      add\n      swap1\n      dup2\n      mstore\n      0x20\n      add\n      0x00\n      keccak256\n        /* \"Smart Contracts/25_PredictionMarket.sol\":6299:6335  Market storage m = markets[marketId] */\n      swap1\n      pop\n        /* \"Smart Contracts/25_PredictionMarket.sol\":6351:6352  m */\n      dup1\n        /* \"Smart Contracts/25_PredictionMarket.sol\":6351:6361  m.resolved */\n      0x01\n      add\n      0x0a\n      swap1\n      sload\n      swap1\n      0x0100\n      exp\n      swap1\n      div\n      0xff\n      and\n        /* \"Smart Contracts/25_PredictionMarket.sol\":6346:6389  if (!m.resolved) revert MarketNotResolved() */\n      tag_212\n      jumpi\n        /* \"Smart Contracts/25_PredictionMarket.sol\":6370:6389  MarketNotResolved() */\n      mload(0x40)\n      0x2e96c72600000000000000000000000000000000000000000000000000000000\n      dup2\n      mstore\n      0x04\n      add\n      mload(0x40)\n      dup1\n      swap2\n      sub\n      swap1\n      revert\n        /* \"Smart Contracts/25_PredictionMarket.sol\":6346:6389  if (!m.resolved) revert MarketNotResolved() */\n    tag_212:\n        /* \"Smart Contracts/25_PredictionMarket.sol\":6402:6417  uint256 userBet */\n      0x00\n        /* \"Smart Contracts/25_PredictionMarket.sol\":6428:6442  uint256 reward */\n      0x00\n        /* \"Smart Contracts/25_PredictionMarket.sol\":6471:6482  Outcome.Yes */\n      0x01\n        /* \"Smart Contracts/25_PredictionMarket.sol\":6459:6482  m.result == Outcome.Yes */\n      0x03\n      dup2\n      gt\n      iszero\n      tag_213\n      jumpi\n      tag_214\n      tag_173\n      jump\t// in\n    tag_214:\n    tag_213:\n        /* \"Smart Contracts/25_PredictionMarket.sol\":6459:6460  m */\n      dup4\n        /* \"Smart Contracts/25_PredictionMarket.sol\":6459:6467  m.result */\n      0x01\n      add\n      0x0b\n      swap1\n      sload\n      swap1\n      0x0100\n      exp\n      swap1\n      div\n      0xff\n      and\n        /* \"Smart Contracts/25_PredictionMarket.sol\":6459:6482  m.result == Outcome.Yes */\n      0x03\n      dup2\n      gt\n      iszero\n      tag_215\n      jumpi\n      tag_216\n      tag_173\n      jump\t// in\n    tag_216:\n    tag_215:\n      sub\n        /* \"Smart Contracts/25_PredictionMarket.sol\":6455:6868  if (m.result == Outcome.Yes) {... */\n      tag_217\n      jumpi\n        /* \"Smart Contracts/25_PredictionMarket.sol\":6509:6516  yesBets */\n      0x67\n        /* \"Smart Contracts/25_PredictionMarket.sol\":6509:6526  yesBets[marketId] */\n      0x00\n        /* \"Smart Contracts/25_PredictionMarket.sol\":6517:6525  marketId */\n      dup6\n        /* \"Smart Contracts/25_PredictionMarket.sol\":6509:6526  yesBets[marketId] */\n      dup2\n      mstore\n      0x20\n      add\n      swap1\n      dup2\n      mstore\n      0x20\n      add\n      0x00\n      keccak256\n        /* \"Smart Contracts/25_PredictionMarket.sol\":6509:6538  yesBets[marketId][msg.sender] */\n      0x00\n        /* \"Smart Contracts/25_PredictionMarket.sol\":6527:6537  msg.sender */\n      caller\n        /* \"Smart Contracts/25_PredictionMarket.sol\":6509:6538  yesBets[marketId][msg.sender] */\n      0xffffffffffffffffffffffffffffffffffffffff\n      and\n      0xffffffffffffffffffffffffffffffffffffffff\n      and\n      dup2\n      mstore\n      0x20\n      add\n      swap1\n      dup2\n      mstore\n      0x20\n      add\n      0x00\n      keccak256\n      sload\n        /* \"Smart Contracts/25_PredictionMarket.sol\":6499:6538  userBet = yesBets[marketId][msg.sender] */\n      swap2\n      pop\n        /* \"Smart Contracts/25_PredictionMarket.sol\":6568:6569  0 */\n      0x00\n        /* \"Smart Contracts/25_PredictionMarket.sol\":6557:6564  userBet */\n      dup3\n        /* \"Smart Contracts/25_PredictionMarket.sol\":6557:6569  userBet == 0 */\n      sub\n        /* \"Smart Contracts/25_PredictionMarket.sol\":6553:6589  if (userBet == 0) revert NotWinner() */\n      tag_218\n      jumpi\n        /* \"Smart Contracts/25_PredictionMarket.sol\":6578:6589  NotWinner() */\n      mload(0x40)\n      0x618c724200000000000000000000000000000000000000000000000000000000\n      dup2\n      mstore\n      0x04\n      add\n      mload(0x40)\n      dup1\n      swap2\n      sub\n      swap1\n      revert\n        /* \"Smart Contracts/25_PredictionMarket.sol\":6553:6589  if (userBet == 0) revert NotWinner() */\n    tag_218:\n        /* \"Smart Contracts/25_PredictionMarket.sol\":6652:6653  m */\n      dup3\n        /* \"Smart Contracts/25_PredictionMarket.sol\":6652:6662  m.totalYes */\n      0x00\n      add\n      0x00\n      swap1\n      sload\n      swap1\n      0x0100\n      exp\n      swap1\n      div\n      0xffffffffffffffffffffffffffffffff\n      and\n        /* \"Smart Contracts/25_PredictionMarket.sol\":6613:6662  (userBet * (m.totalYes + m.totalNo)) / m.totalYes */\n      0xffffffffffffffffffffffffffffffff\n      and\n        /* \"Smart Contracts/25_PredictionMarket.sol\":6638:6639  m */\n      dup4\n        /* \"Smart Contracts/25_PredictionMarket.sol\":6638:6647  m.totalNo */\n      0x00\n      add\n      0x10\n      swap1\n      sload\n      swap1\n      0x0100\n      exp\n      swap1\n      div\n      0xffffffffffffffffffffffffffffffff\n      and\n        /* \"Smart Contracts/25_PredictionMarket.sol\":6625:6626  m */\n      dup5\n        /* \"Smart Contracts/25_PredictionMarket.sol\":6625:6635  m.totalYes */\n      0x00\n      add\n      0x00\n      swap1\n      sload\n      swap1\n      0x0100\n      exp\n      swap1\n      div\n      0xffffffffffffffffffffffffffffffff\n      and\n        /* \"Smart Contracts/25_PredictionMarket.sol\":6625:6647  m.totalYes + m.totalNo */\n      tag_219\n      swap2\n      swap1\n      tag_134\n      jump\t// in\n    tag_219:\n        /* \"Smart Contracts/25_PredictionMarket.sol\":6614:6648  userBet * (m.totalYes + m.totalNo) */\n      0xffffffffffffffffffffffffffffffff\n      and\n        /* \"Smart Contracts/25_PredictionMarket.sol\":6614:6621  userBet */\n      dup4\n        /* \"Smart Contracts/25_PredictionMarket.sol\":6614:6648  userBet * (m.totalYes + m.totalNo) */\n      tag_220\n      swap2\n      swap1\n      tag_221\n      jump\t// in\n    tag_220:\n        /* \"Smart Contracts/25_PredictionMarket.sol\":6613:6662  (userBet * (m.totalYes + m.totalNo)) / m.totalYes */\n      tag_222\n      swap2\n      swap1\n      tag_223\n      jump\t// in\n    tag_222:\n        /* \"Smart Contracts/25_PredictionMarket.sol\":6604:6662  reward = (userBet * (m.totalYes + m.totalNo)) / m.totalYes */\n      swap1\n      pop\n        /* \"Smart Contracts/25_PredictionMarket.sol\":6455:6868  if (m.result == Outcome.Yes) {... */\n      jump(tag_224)\n    tag_217:\n        /* \"Smart Contracts/25_PredictionMarket.sol\":6705:6711  noBets */\n      0x68\n        /* \"Smart Contracts/25_PredictionMarket.sol\":6705:6721  noBets[marketId] */\n      0x00\n        /* \"Smart Contracts/25_PredictionMarket.sol\":6712:6720  marketId */\n      dup6\n        /* \"Smart Contracts/25_PredictionMarket.sol\":6705:6721  noBets[marketId] */\n      dup2\n      mstore\n      0x20\n      add\n      swap1\n      dup2\n      mstore\n      0x20\n      add\n      0x00\n      keccak256\n        /* \"Smart Contracts/25_PredictionMarket.sol\":6705:6733  noBets[marketId][msg.sender] */\n      0x00\n        /* \"Smart Contracts/25_PredictionMarket.sol\":6722:6732  msg.sender */\n      caller\n        /* \"Smart Contracts/25_PredictionMarket.sol\":6705:6733  noBets[marketId][msg.sender] */\n      0xffffffffffffffffffffffffffffffffffffffff\n      and\n      0xffffffffffffffffffffffffffffffffffffffff\n      and\n      dup2\n      mstore\n      0x20\n      add\n      swap1\n      dup2\n      mstore\n      0x20\n      add\n      0x00\n      keccak256\n      sload\n        /* \"Smart Contracts/25_PredictionMarket.sol\":6695:6733  userBet = noBets[marketId][msg.sender] */\n      swap2\n      pop\n        /* \"Smart Contracts/25_PredictionMarket.sol\":6763:6764  0 */\n      0x00\n        /* \"Smart Contracts/25_PredictionMarket.sol\":6752:6759  userBet */\n      dup3\n        /* \"Smart Contracts/25_PredictionMarket.sol\":6752:6764  userBet == 0 */\n      sub\n        /* \"Smart Contracts/25_PredictionMarket.sol\":6748:6784  if (userBet == 0) revert NotWinner() */\n      tag_225\n      jumpi\n        /* \"Smart Contracts/25_PredictionMarket.sol\":6773:6784  NotWinner() */\n      mload(0x40)\n      0x618c724200000000000000000000000000000000000000000000000000000000\n      dup2\n      mstore\n      0x04\n      add\n      mload(0x40)\n      dup1\n      swap2\n      sub\n      swap1\n      revert\n        /* \"Smart Contracts/25_PredictionMarket.sol\":6748:6784  if (userBet == 0) revert NotWinner() */\n    tag_225:\n        /* \"Smart Contracts/25_PredictionMarket.sol\":6847:6848  m */\n      dup3\n        /* \"Smart Contracts/25_PredictionMarket.sol\":6847:6856  m.totalNo */\n      0x00\n      add\n      0x10\n      swap1\n      sload\n      swap1\n      0x0100\n      exp\n      swap1\n      div\n      0xffffffffffffffffffffffffffffffff\n      and\n        /* \"Smart Contracts/25_PredictionMarket.sol\":6808:6856  (userBet * (m.totalYes + m.totalNo)) / m.totalNo */\n      0xffffffffffffffffffffffffffffffff\n      and\n        /* \"Smart Contracts/25_PredictionMarket.sol\":6833:6834  m */\n      dup4\n        /* \"Smart Contracts/25_PredictionMarket.sol\":6833:6842  m.totalNo */\n      0x00\n      add\n      0x10\n      swap1\n      sload\n      swap1\n      0x0100\n      exp\n      swap1\n      div\n      0xffffffffffffffffffffffffffffffff\n      and\n        /* \"Smart Contracts/25_PredictionMarket.sol\":6820:6821  m */\n      dup5\n        /* \"Smart Contracts/25_PredictionMarket.sol\":6820:6830  m.totalYes */\n      0x00\n      add\n      0x00\n      swap1\n      sload\n      swap1\n      0x0100\n      exp\n      swap1\n      div\n      0xffffffffffffffffffffffffffffffff\n      and\n        /* \"Smart Contracts/25_PredictionMarket.sol\":6820:6842  m.totalYes + m.totalNo */\n      tag_226\n      swap2\n      swap1\n      tag_134\n      jump\t// in\n    tag_226:\n        /* \"Smart Contracts/25_PredictionMarket.sol\":6809:6843  userBet * (m.totalYes + m.totalNo) */\n      0xffffffffffffffffffffffffffffffff\n      and\n        /* \"Smart Contracts/25_PredictionMarket.sol\":6809:6816  userBet */\n      dup4\n        /* \"Smart Contracts/25_PredictionMarket.sol\":6809:6843  userBet * (m.totalYes + m.totalNo) */\n      tag_227\n      swap2\n      swap1\n      tag_221\n      jump\t// in\n    tag_227:\n        /* \"Smart Contracts/25_PredictionMarket.sol\":6808:6856  (userBet * (m.totalYes + m.totalNo)) / m.totalNo */\n      tag_228\n      swap2\n      swap1\n      tag_223\n      jump\t// in\n    tag_228:\n        /* \"Smart Contracts/25_PredictionMarket.sol\":6799:6856  reward = (userBet * (m.totalYes + m.totalNo)) / m.totalNo */\n      swap1\n      pop\n        /* \"Smart Contracts/25_PredictionMarket.sol\":6455:6868  if (m.result == Outcome.Yes) {... */\n    tag_224:\n        /* \"Smart Contracts/25_PredictionMarket.sol\":6880:6891  uint256 fee */\n      0x00\n        /* \"Smart Contracts/25_PredictionMarket.sol\":6920:6923  100 */\n      0x64\n        /* \"Smart Contracts/25_PredictionMarket.sol\":6904:6905  m */\n      dup5\n        /* \"Smart Contracts/25_PredictionMarket.sol\":6904:6916  m.feePercent */\n      0x01\n      add\n      0x08\n      swap1\n      sload\n      swap1\n      0x0100\n      exp\n      swap1\n      div\n      0xffff\n      and\n        /* \"Smart Contracts/25_PredictionMarket.sol\":6895:6916  reward * m.feePercent */\n      0xffff\n      and\n        /* \"Smart Contracts/25_PredictionMarket.sol\":6895:6901  reward */\n      dup4\n        /* \"Smart Contracts/25_PredictionMarket.sol\":6895:6916  reward * m.feePercent */\n      tag_229\n      swap2\n      swap1\n      tag_221\n      jump\t// in\n    tag_229:\n        /* \"Smart Contracts/25_PredictionMarket.sol\":6894:6923  (reward * m.feePercent) / 100 */\n      tag_230\n      swap2\n      swap1\n      tag_223\n      jump\t// in\n    tag_230:\n        /* \"Smart Contracts/25_PredictionMarket.sol\":6880:6923  uint256 fee = (reward * m.feePercent) / 100 */\n      swap1\n      pop\n        /* \"Smart Contracts/25_PredictionMarket.sol\":6944:6947  fee */\n      dup1\n        /* \"Smart Contracts/25_PredictionMarket.sol\":6934:6947  reward -= fee */\n      dup3\n      tag_231\n      swap2\n      swap1\n      tag_232\n      jump\t// in\n    tag_231:\n      swap2\n      pop\n        /* \"Smart Contracts/25_PredictionMarket.sol\":6992:6993  0 */\n      0x00\n        /* \"Smart Contracts/25_PredictionMarket.sol\":6960:6967  yesBets */\n      0x67\n        /* \"Smart Contracts/25_PredictionMarket.sol\":6960:6977  yesBets[marketId] */\n      0x00\n        /* \"Smart Contracts/25_PredictionMarket.sol\":6968:6976  marketId */\n      dup8\n        /* \"Smart Contracts/25_PredictionMarket.sol\":6960:6977  yesBets[marketId] */\n      dup2\n      mstore\n      0x20\n      add\n      swap1\n      dup2\n      mstore\n      0x20\n      add\n      0x00\n      keccak256\n        /* \"Smart Contracts/25_PredictionMarket.sol\":6960:6989  yesBets[marketId][msg.sender] */\n      0x00\n        /* \"Smart Contracts/25_PredictionMarket.sol\":6978:6988  msg.sender */\n      caller\n        /* \"Smart Contracts/25_PredictionMarket.sol\":6960:6989  yesBets[marketId][msg.sender] */\n      0xffffffffffffffffffffffffffffffffffffffff\n      and\n      0xffffffffffffffffffffffffffffffffffffffff\n      and\n      dup2\n      mstore\n      0x20\n      add\n      swap1\n      dup2\n      mstore\n      0x20\n      add\n      0x00\n      keccak256\n        /* \"Smart Contracts/25_PredictionMarket.sol\":6960:6993  yesBets[marketId][msg.sender] = 0 */\n      dup2\n      swap1\n      sstore\n      pop\n        /* \"Smart Contracts/25_PredictionMarket.sol\":7035:7036  0 */\n      0x00\n        /* \"Smart Contracts/25_PredictionMarket.sol\":7004:7010  noBets */\n      0x68\n        /* \"Smart Contracts/25_PredictionMarket.sol\":7004:7020  noBets[marketId] */\n      0x00\n        /* \"Smart Contracts/25_PredictionMarket.sol\":7011:7019  marketId */\n      dup8\n        /* \"Smart Contracts/25_PredictionMarket.sol\":7004:7020  noBets[marketId] */\n      dup2\n      mstore\n      0x20\n      add\n      swap1\n      dup2\n      mstore\n      0x20\n      add\n      0x00\n      keccak256\n        /* \"Smart Contracts/25_PredictionMarket.sol\":7004:7032  noBets[marketId][msg.sender] */\n      0x00\n        /* \"Smart Contracts/25_PredictionMarket.sol\":7021:7031  msg.sender */\n      caller\n        /* \"Smart Contracts/25_PredictionMarket.sol\":7004:7032  noBets[marketId][msg.sender] */\n      0xffffffffffffffffffffffffffffffffffffffff\n      and\n      0xffffffffffffffffffffffffffffffffffffffff\n      and\n      dup2\n      mstore\n      0x20\n      add\n      swap1\n      dup2\n      mstore\n      0x20\n      add\n      0x00\n      keccak256\n        /* \"Smart Contracts/25_PredictionMarket.sol\":7004:7036  noBets[marketId][msg.sender] = 0 */\n      dup2\n      swap1\n      sstore\n      pop\n        /* \"Smart Contracts/25_PredictionMarket.sol\":7049:7081  token.safeTransfer(owner(), fee) */\n      tag_233\n        /* \"Smart Contracts/25_PredictionMarket.sol\":7068:7075  owner() */\n      tag_234\n        /* \"Smart Contracts/25_PredictionMarket.sol\":7068:7073  owner */\n      tag_72\n        /* \"Smart Contracts/25_PredictionMarket.sol\":7068:7075  owner() */\n      jump\t// in\n    tag_234:\n        /* \"Smart Contracts/25_PredictionMarket.sol\":7077:7080  fee */\n      dup3\n        /* \"Smart Contracts/25_PredictionMarket.sol\":7049:7054  token */\n      0x64\n      0x00\n      swap1\n      sload\n      swap1\n      0x0100\n      exp\n      swap1\n      div\n      0xffffffffffffffffffffffffffffffffffffffff\n      and\n        /* \"Smart Contracts/25_PredictionMarket.sol\":7049:7067  token.safeTransfer */\n      0xffffffffffffffffffffffffffffffffffffffff\n      and\n      tag_235\n      swap1\n        /* \"Smart Contracts/25_PredictionMarket.sol\":7049:7081  token.safeTransfer(owner(), fee) */\n      swap3\n      swap2\n      swap1\n      0xffffffff\n      and\n      jump\t// in\n    tag_233:\n        /* \"Smart Contracts/25_PredictionMarket.sol\":7092:7130  token.safeTransfer(msg.sender, reward) */\n      tag_236\n        /* \"Smart Contracts/25_PredictionMarket.sol\":7111:7121  msg.sender */\n      caller\n        /* \"Smart Contracts/25_PredictionMarket.sol\":7123:7129  reward */\n      dup4\n        /* \"Smart Contracts/25_PredictionMarket.sol\":7092:7097  token */\n      0x64\n      0x00\n      swap1\n      sload\n      swap1\n      0x0100\n      exp\n      swap1\n      div\n      0xffffffffffffffffffffffffffffffffffffffff\n      and\n        /* \"Smart Contracts/25_PredictionMarket.sol\":7092:7110  token.safeTransfer */\n      0xffffffffffffffffffffffffffffffffffffffff\n      and\n      tag_235\n      swap1\n        /* \"Smart Contracts/25_PredictionMarket.sol\":7092:7130  token.safeTransfer(msg.sender, reward) */\n      swap3\n      swap2\n      swap1\n      0xffffffff\n      and\n      jump\t// in\n    tag_236:\n        /* \"Smart Contracts/25_PredictionMarket.sol\":7172:7182  msg.sender */\n      caller\n        /* \"Smart Contracts/25_PredictionMarket.sol\":7148:7191  RewardClaimed(marketId, msg.sender, reward) */\n      0xffffffffffffffffffffffffffffffffffffffff\n      and\n        /* \"Smart Contracts/25_PredictionMarket.sol\":7162:7170  marketId */\n      dup6\n        /* \"Smart Contracts/25_PredictionMarket.sol\":7148:7191  RewardClaimed(marketId, msg.sender, reward) */\n      0x24b5efa61dd1cfc659205a97fb8ed868f3cb8c81922bab2b96423e5de1de2cb7\n        /* \"Smart Contracts/25_PredictionMarket.sol\":7184:7190  reward */\n      dup5\n        /* \"Smart Contracts/25_PredictionMarket.sol\":7148:7191  RewardClaimed(marketId, msg.sender, reward) */\n      mload(0x40)\n      tag_237\n      swap2\n      swap1\n      tag_31\n      jump\t// in\n    tag_237:\n      mload(0x40)\n      dup1\n      swap2\n      sub\n      swap1\n      log3\n        /* \"Smart Contracts/25_PredictionMarket.sol\":6288:7199  {... */\n      pop\n      pop\n      pop\n      pop\n        /* \"@openzeppelin/contracts-upgradeable/security/ReentrancyGuardUpgradeable.sol\":2568:2588  _nonReentrantAfter() */\n      tag_238\n        /* \"@openzeppelin/contracts-upgradeable/security/ReentrancyGuardUpgradeable.sol\":2568:2586  _nonReentrantAfter */\n      tag_141\n        /* \"@openzeppelin/contracts-upgradeable/security/ReentrancyGuardUpgradeable.sol\":2568:2588  _nonReentrantAfter() */\n      jump\t// in\n    tag_238:\n        /* \"Smart Contracts/25_PredictionMarket.sol\":6204:7199  function claimReward(uint256 marketId)... */\n      pop\n      jump\t// out\n        /* \"Smart Contracts/25_PredictionMarket.sol\":2628:2669  mapping(uint256 => Market) public markets */\n    tag_92:\n      mstore(0x20, 0x66)\n      dup1\n      0x00\n      mstore\n      keccak256(0x00, 0x40)\n      0x00\n      swap2\n      pop\n      swap1\n      pop\n      dup1\n      0x00\n      add\n      0x00\n      swap1\n      sload\n      swap1\n      0x0100\n      exp\n      swap1\n      div\n      0xffffffffffffffffffffffffffffffff\n      and\n      swap1\n      dup1\n      0x00\n      add\n      0x10\n      swap1\n      sload\n      swap1\n      0x0100\n      exp\n      swap1\n      div\n      0xffffffffffffffffffffffffffffffff\n      and\n      swap1\n      dup1\n      0x01\n      add\n      0x00\n      swap1\n      sload\n      swap1\n      0x0100\n      exp\n      swap1\n      div\n      0xffffffffffffffff\n      and\n      swap1\n      dup1\n      0x01\n      add\n      0x08\n      swap1\n      sload\n      swap1\n      0x0100\n      exp\n      swap1\n      div\n      0xffff\n      and\n      swap1\n      dup1\n      0x01\n      add\n      0x0a\n      swap1\n      sload\n      swap1\n      0x0100\n      exp\n      swap1\n      div\n      0xff\n      and\n      swap1\n      dup1\n      0x01\n      add\n      0x0b\n      swap1\n      sload\n      swap1\n      0x0100\n      exp\n      swap1\n      div\n      0xff\n      and\n      swap1\n      dup1\n      0x01\n      add\n      0x0c\n      swap1\n      sload\n      swap1\n      0x0100\n      exp\n      swap1\n      div\n      0xffffffffffffffffffffffffffffffffffffffff\n      and\n      swap1\n      dup1\n      0x02\n      add\n      sload\n      swap1\n      pop\n      dup9\n      jump\t// out\n        /* \"Smart Contracts/25_PredictionMarket.sol\":2584:2619  uint16 public constant MAX_FEE = 10 */\n    tag_97:\n        /* \"Smart Contracts/25_PredictionMarket.sol\":2617:2619  10 */\n      0x0a\n        /* \"Smart Contracts/25_PredictionMarket.sol\":2584:2619  uint16 public constant MAX_FEE = 10 */\n      dup2\n      jump\t// out\n        /* \"Smart Contracts/25_PredictionMarket.sol\":3367:3611  function initialize(address _token) public initializer {... */\n    tag_104:\n        /* \"@openzeppelin/contracts-upgradeable/proxy/utils/Initializable.sol\":4158:4188  InitializableStorage storage $ */\n      0x00\n        /* \"@openzeppelin/contracts-upgradeable/proxy/utils/Initializable.sol\":4191:4217  _getInitializableStorage() */\n      tag_240\n        /* \"@openzeppelin/contracts-upgradeable/proxy/utils/Initializable.sol\":4191:4215  _getInitializableStorage */\n      tag_241\n        /* \"@openzeppelin/contracts-upgradeable/proxy/utils/Initializable.sol\":4191:4217  _getInitializableStorage() */\n      jump\t// in\n    tag_240:\n        /* \"@openzeppelin/contracts-upgradeable/proxy/utils/Initializable.sol\":4158:4217  InitializableStorage storage $ = _getInitializableStorage() */\n      swap1\n      pop\n        /* \"@openzeppelin/contracts-upgradeable/proxy/utils/Initializable.sol\":4279:4298  bool isTopLevelCall */\n      0x00\n        /* \"@openzeppelin/contracts-upgradeable/proxy/utils/Initializable.sol\":4302:4303  $ */\n      dup2\n        /* \"@openzeppelin/contracts-upgradeable/proxy/utils/Initializable.sol\":4302:4317  $._initializing */\n      0x00\n      add\n      0x08\n      swap1\n      sload\n      swap1\n      0x0100\n      exp\n      swap1\n      div\n      0xff\n      and\n        /* \"@openzeppelin/contracts-upgradeable/proxy/utils/Initializable.sol\":4301:4317  !$._initializing */\n      iszero\n        /* \"@openzeppelin/contracts-upgradeable/proxy/utils/Initializable.sol\":4279:4317  bool isTopLevelCall = !$._initializing */\n      swap1\n      pop\n        /* \"@openzeppelin/contracts-upgradeable/proxy/utils/Initializable.sol\":4327:4345  uint64 initialized */\n      0x00\n        /* \"@openzeppelin/contracts-upgradeable/proxy/utils/Initializable.sol\":4348:4349  $ */\n      dup3\n        /* \"@openzeppelin/contracts-upgradeable/proxy/utils/Initializable.sol\":4348:4362  $._initialized */\n      0x00\n      add\n      0x00\n      swap1\n      sload\n      swap1\n      0x0100\n      exp\n      swap1\n      div\n      0xffffffffffffffff\n      and\n        /* \"@openzeppelin/contracts-upgradeable/proxy/utils/Initializable.sol\":4327:4362  uint64 initialized = $._initialized */\n      swap1\n      pop\n        /* \"@openzeppelin/contracts-upgradeable/proxy/utils/Initializable.sol\":4704:4721  bool initialSetup */\n      0x00\n        /* \"@openzeppelin/contracts-upgradeable/proxy/utils/Initializable.sol\":4739:4740  0 */\n      0x00\n        /* \"@openzeppelin/contracts-upgradeable/proxy/utils/Initializable.sol\":4724:4735  initialized */\n      dup3\n        /* \"@openzeppelin/contracts-upgradeable/proxy/utils/Initializable.sol\":4724:4740  initialized == 0 */\n      0xffffffffffffffff\n      and\n      eq\n        /* \"@openzeppelin/contracts-upgradeable/proxy/utils/Initializable.sol\":4724:4758  initialized == 0 && isTopLevelCall */\n      dup1\n      iszero\n      tag_242\n      jumpi\n      pop\n        /* \"@openzeppelin/contracts-upgradeable/proxy/utils/Initializable.sol\":4744:4758  isTopLevelCall */\n      dup3\n        /* \"@openzeppelin/contracts-upgradeable/proxy/utils/Initializable.sol\":4724:4758  initialized == 0 && isTopLevelCall */\n    tag_242:\n        /* \"@openzeppelin/contracts-upgradeable/proxy/utils/Initializable.sol\":4704:4758  bool initialSetup = initialized == 0 && isTopLevelCall */\n      swap1\n      pop\n        /* \"@openzeppelin/contracts-upgradeable/proxy/utils/Initializable.sol\":4768:4785  bool construction */\n      0x00\n        /* \"@openzeppelin/contracts-upgradeable/proxy/utils/Initializable.sol\":4803:4804  1 */\n      0x01\n        /* \"@openzeppelin/contracts-upgradeable/proxy/utils/Initializable.sol\":4788:4799  initialized */\n      dup4\n        /* \"@openzeppelin/contracts-upgradeable/proxy/utils/Initializable.sol\":4788:4804  initialized == 1 */\n      0xffffffffffffffff\n      and\n      eq\n        /* \"@openzeppelin/contracts-upgradeable/proxy/utils/Initializable.sol\":4788:4838  initialized == 1 && address(this).code.length == 0 */\n      dup1\n      iszero\n      tag_243\n      jumpi\n      pop\n        /* \"@openzeppelin/contracts-upgradeable/proxy/utils/Initializable.sol\":4837:4838  0 */\n      0x00\n        /* \"@openzeppelin/contracts-upgradeable/proxy/utils/Initializable.sol\":4816:4820  this */\n      address\n        /* \"@openzeppelin/contracts-upgradeable/proxy/utils/Initializable.sol\":4808:4833  address(this).code.length */\n      0xffffffffffffffffffffffffffffffffffffffff\n      and\n      extcodesize\n        /* \"@openzeppelin/contracts-upgradeable/proxy/utils/Initializable.sol\":4808:4838  address(this).code.length == 0 */\n      eq\n        /* \"@openzeppelin/contracts-upgradeable/proxy/utils/Initializable.sol\":4788:4838  initialized == 1 && address(this).code.length == 0 */\n    tag_243:\n        /* \"@openzeppelin/contracts-upgradeable/proxy/utils/Initializable.sol\":4768:4838  bool construction = initialized == 1 && address(this).code.length == 0 */\n      swap1\n      pop\n        /* \"@openzeppelin/contracts-upgradeable/proxy/utils/Initializable.sol\":4854:4866  initialSetup */\n      dup2\n        /* \"@openzeppelin/contracts-upgradeable/proxy/utils/Initializable.sol\":4853:4866  !initialSetup */\n      iszero\n        /* \"@openzeppelin/contracts-upgradeable/proxy/utils/Initializable.sol\":4853:4883  !initialSetup && !construction */\n      dup1\n      iszero\n      tag_244\n      jumpi\n      pop\n        /* \"@openzeppelin/contracts-upgradeable/proxy/utils/Initializable.sol\":4871:4883  construction */\n      dup1\n        /* \"@openzeppelin/contracts-upgradeable/proxy/utils/Initializable.sol\":4870:4883  !construction */\n      iszero\n        /* \"@openzeppelin/contracts-upgradeable/proxy/utils/Initializable.sol\":4853:4883  !initialSetup && !construction */\n    tag_244:\n        /* \"@openzeppelin/contracts-upgradeable/proxy/utils/Initializable.sol\":4849:4940  if (!initialSetup && !construction) {... */\n      iszero\n      tag_245\n      jumpi\n        /* \"@openzeppelin/contracts-upgradeable/proxy/utils/Initializable.sol\":4906:4929  InvalidInitialization() */\n      mload(0x40)\n      0xf92ee8a900000000000000000000000000000000000000000000000000000000\n      dup2\n      mstore\n      0x04\n      add\n      mload(0x40)\n      dup1\n      swap2\n      sub\n      swap1\n      revert\n        /* \"@openzeppelin/contracts-upgradeable/proxy/utils/Initializable.sol\":4849:4940  if (!initialSetup && !construction) {... */\n    tag_245:\n        /* \"@openzeppelin/contracts-upgradeable/proxy/utils/Initializable.sol\":4966:4967  1 */\n      0x01\n        /* \"@openzeppelin/contracts-upgradeable/proxy/utils/Initializable.sol\":4949:4950  $ */\n      dup6\n        /* \"@openzeppelin/contracts-upgradeable/proxy/utils/Initializable.sol\":4949:4963  $._initialized */\n      0x00\n      add\n      0x00\n        /* \"@openzeppelin/contracts-upgradeable/proxy/utils/Initializable.sol\":4949:4967  $._initialized = 1 */\n      0x0100\n      exp\n      dup2\n      sload\n      dup2\n      0xffffffffffffffff\n      mul\n      not\n      and\n      swap1\n      dup4\n      0xffffffffffffffff\n      and\n      mul\n      or\n      swap1\n      sstore\n      pop\n        /* \"@openzeppelin/contracts-upgradeable/proxy/utils/Initializable.sol\":4981:4995  isTopLevelCall */\n      dup4\n        /* \"@openzeppelin/contracts-upgradeable/proxy/utils/Initializable.sol\":4977:5044  if (isTopLevelCall) {... */\n      iszero\n      tag_246\n      jumpi\n        /* \"@openzeppelin/contracts-upgradeable/proxy/utils/Initializable.sol\":5029:5033  true */\n      0x01\n        /* \"@openzeppelin/contracts-upgradeable/proxy/utils/Initializable.sol\":5011:5012  $ */\n      dup6\n        /* \"@openzeppelin/contracts-upgradeable/proxy/utils/Initializable.sol\":5011:5026  $._initializing */\n      0x00\n      add\n      0x08\n        /* \"@openzeppelin/contracts-upgradeable/proxy/utils/Initializable.sol\":5011:5033  $._initializing = true */\n      0x0100\n      exp\n      dup2\n      sload\n      dup2\n      0xff\n      mul\n      not\n      and\n      swap1\n      dup4\n      iszero\n      iszero\n      mul\n      or\n      swap1\n      sstore\n      pop\n        /* \"@openzeppelin/contracts-upgradeable/proxy/utils/Initializable.sol\":4977:5044  if (isTopLevelCall) {... */\n    tag_246:\n        /* \"Smart Contracts/25_PredictionMarket.sol\":3433:3459  __Ownable_init(msg.sender) */\n      tag_248\n        /* \"Smart Contracts/25_PredictionMarket.sol\":3448:3458  msg.sender */\n      caller\n        /* \"Smart Contracts/25_PredictionMarket.sol\":3433:3447  __Ownable_init */\n      tag_249\n        /* \"Smart Contracts/25_PredictionMarket.sol\":3433:3459  __Ownable_init(msg.sender) */\n      jump\t// in\n    tag_248:\n        /* \"Smart Contracts/25_PredictionMarket.sol\":3470:3494  __ReentrancyGuard_init() */\n      tag_250\n        /* \"Smart Contracts/25_PredictionMarket.sol\":3470:3492  __ReentrancyGuard_init */\n      tag_251\n        /* \"Smart Contracts/25_PredictionMarket.sol\":3470:3494  __ReentrancyGuard_init() */\n      jump\t// in\n    tag_250:\n        /* \"Smart Contracts/25_PredictionMarket.sol\":3505:3522  __Pausable_init() */\n      tag_252\n        /* \"Smart Contracts/25_PredictionMarket.sol\":3505:3520  __Pausable_init */\n      tag_253\n        /* \"Smart Contracts/25_PredictionMarket.sol\":3505:3522  __Pausable_init() */\n      jump\t// in\n    tag_252:\n        /* \"Smart Contracts/25_PredictionMarket.sol\":3533:3557  __UUPSUpgradeable_init() */\n      tag_254\n        /* \"Smart Contracts/25_PredictionMarket.sol\":3533:3555  __UUPSUpgradeable_init */\n      tag_255\n        /* \"Smart Contracts/25_PredictionMarket.sol\":3533:3557  __UUPSUpgradeable_init() */\n      jump\t// in\n    tag_254:\n        /* \"Smart Contracts/25_PredictionMarket.sol\":3596:3602  _token */\n      dup6\n        /* \"Smart Contracts/25_PredictionMarket.sol\":3570:3575  token */\n      0x64\n      0x00\n        /* \"Smart Contracts/25_PredictionMarket.sol\":3570:3603  token = IERC20Upgradeable(_token) */\n      0x0100\n      exp\n      dup2\n      sload\n      dup2\n      0xffffffffffffffffffffffffffffffffffffffff\n      mul\n      not\n      and\n      swap1\n      dup4\n      0xffffffffffffffffffffffffffffffffffffffff\n      and\n      mul\n      or\n      swap1\n      sstore\n      pop\n        /* \"@openzeppelin/contracts-upgradeable/proxy/utils/Initializable.sol\":5068:5082  isTopLevelCall */\n      dup4\n        /* \"@openzeppelin/contracts-upgradeable/proxy/utils/Initializable.sol\":5064:5165  if (isTopLevelCall) {... */\n      iszero\n      tag_256\n      jumpi\n        /* \"@openzeppelin/contracts-upgradeable/proxy/utils/Initializable.sol\":5116:5121  false */\n      0x00\n        /* \"@openzeppelin/contracts-upgradeable/proxy/utils/Initializable.sol\":5098:5099  $ */\n      dup6\n        /* \"@openzeppelin/contracts-upgradeable/proxy/utils/Initializable.sol\":5098:5113  $._initializing */\n      0x00\n      add\n      0x08\n        /* \"@openzeppelin/contracts-upgradeable/proxy/utils/Initializable.sol\":5098:5121  $._initializing = false */\n      0x0100\n      exp\n      dup2\n      sload\n      dup2\n      0xff\n      mul\n      not\n      and\n      swap1\n      dup4\n      iszero\n      iszero\n      mul\n      or\n      swap1\n      sstore\n      pop\n        /* \"@openzeppelin/contracts-upgradeable/proxy/utils/Initializable.sol\":5140:5154  Initialized(1) */\n      0xc7f505b2f371ae2175ee4913f4499e1f2633a7b5936321eed1cdaeb6115181d2\n        /* \"@openzeppelin/contracts-upgradeable/proxy/utils/Initializable.sol\":5152:5153  1 */\n      0x01\n        /* \"@openzeppelin/contracts-upgradeable/proxy/utils/Initializable.sol\":5140:5154  Initialized(1) */\n      mload(0x40)\n      tag_257\n      swap2\n      swap1\n      tag_258\n      jump\t// in\n    tag_257:\n      mload(0x40)\n      dup1\n      swap2\n      sub\n      swap1\n      log1\n        /* \"@openzeppelin/contracts-upgradeable/proxy/utils/Initializable.sol\":5064:5165  if (isTopLevelCall) {... */\n    tag_256:\n        /* \"@openzeppelin/contracts-upgradeable/proxy/utils/Initializable.sol\":4092:5171  {... */\n      pop\n      pop\n      pop\n      pop\n      pop\n        /* \"Smart Contracts/25_PredictionMarket.sol\":3367:3611  function initialize(address _token) public initializer {... */\n      pop\n      jump\t// out\n        /* \"Smart Contracts/25_PredictionMarket.sol\":2551:2577  uint256 public marketCount */\n    tag_107:\n      sload(0x65)\n      dup2\n      jump\t// out\n        /* \"@openzeppelin/contracts-upgradeable/access/OwnableUpgradeable.sol\":3405:3620  function transferOwnership(address newOwner) public virtual onlyOwner {... */\n    tag_112:\n        /* \"@openzeppelin/contracts-upgradeable/access/OwnableUpgradeable.sol\":2334:2347  _checkOwner() */\n      tag_260\n        /* \"@openzeppelin/contracts-upgradeable/access/OwnableUpgradeable.sol\":2334:2345  _checkOwner */\n      tag_144\n        /* \"@openzeppelin/contracts-upgradeable/access/OwnableUpgradeable.sol\":2334:2347  _checkOwner() */\n      jump\t// in\n    tag_260:\n        /* \"@openzeppelin/contracts-upgradeable/access/OwnableUpgradeable.sol\":3509:3510  0 */\n      0x00\n        /* \"@openzeppelin/contracts-upgradeable/access/OwnableUpgradeable.sol\":3489:3511  newOwner == address(0) */\n      0xffffffffffffffffffffffffffffffffffffffff\n      and\n        /* \"@openzeppelin/contracts-upgradeable/access/OwnableUpgradeable.sol\":3489:3497  newOwner */\n      dup2\n        /* \"@openzeppelin/contracts-upgradeable/access/OwnableUpgradeable.sol\":3489:3511  newOwner == address(0) */\n      0xffffffffffffffffffffffffffffffffffffffff\n      and\n      sub\n        /* \"@openzeppelin/contracts-upgradeable/access/OwnableUpgradeable.sol\":3485:3576  if (newOwner == address(0)) {... */\n      tag_262\n      jumpi\n        /* \"@openzeppelin/contracts-upgradeable/access/OwnableUpgradeable.sol\":3562:3563  0 */\n      0x00\n        /* \"@openzeppelin/contracts-upgradeable/access/OwnableUpgradeable.sol\":3534:3565  OwnableInvalidOwner(address(0)) */\n      mload(0x40)\n      0x1e4fbdf700000000000000000000000000000000000000000000000000000000\n      dup2\n      mstore\n      0x04\n      add\n      tag_263\n      swap2\n      swap1\n      tag_74\n      jump\t// in\n    tag_263:\n      mload(0x40)\n      dup1\n      swap2\n      sub\n      swap1\n      revert\n        /* \"@openzeppelin/contracts-upgradeable/access/OwnableUpgradeable.sol\":3485:3576  if (newOwner == address(0)) {... */\n    tag_262:\n        /* \"@openzeppelin/contracts-upgradeable/access/OwnableUpgradeable.sol\":3585:3613  _transferOwnership(newOwner) */\n      tag_264\n        /* \"@openzeppelin/contracts-upgradeable/access/OwnableUpgradeable.sol\":3604:3612  newOwner */\n      dup2\n        /* \"@openzeppelin/contracts-upgradeable/access/OwnableUpgradeable.sol\":3585:3603  _transferOwnership */\n      tag_186\n        /* \"@openzeppelin/contracts-upgradeable/access/OwnableUpgradeable.sol\":3585:3613  _transferOwnership(newOwner) */\n      jump\t// in\n    tag_264:\n        /* \"@openzeppelin/contracts-upgradeable/access/OwnableUpgradeable.sol\":3405:3620  function transferOwnership(address newOwner) public virtual onlyOwner {... */\n      pop\n      jump\t// out\n        /* \"Smart Contracts/25_PredictionMarket.sol\":2514:2544  IERC20Upgradeable public token */\n    tag_115:\n      0x64\n      0x00\n      swap1\n      sload\n      swap1\n      0x0100\n      exp\n      swap1\n      div\n      0xffffffffffffffffffffffffffffffffffffffff\n      and\n      dup2\n      jump\t// out\n        /* \"@openzeppelin/contracts-upgradeable/security/ReentrancyGuardUpgradeable.sol\":2601:2888  function _nonReentrantBefore() private {... */\n    tag_120:\n        /* \"@openzeppelin/contracts-upgradeable/security/ReentrancyGuardUpgradeable.sol\":1851:1852  2 */\n      0x02\n        /* \"@openzeppelin/contracts-upgradeable/security/ReentrancyGuardUpgradeable.sol\":2733:2740  _status */\n      sload(0x00)\n        /* \"@openzeppelin/contracts-upgradeable/security/ReentrancyGuardUpgradeable.sol\":2733:2752  _status != _ENTERED */\n      sub\n        /* \"@openzeppelin/contracts-upgradeable/security/ReentrancyGuardUpgradeable.sol\":2725:2788  require(_status != _ENTERED, \"ReentrancyGuard: reentrant call\") */\n      tag_266\n      jumpi\n      mload(0x40)\n      0x08c379a000000000000000000000000000000000000000000000000000000000\n      dup2\n      mstore\n      0x04\n      add\n      tag_267\n      swap1\n      tag_268\n      jump\t// in\n    tag_267:\n      mload(0x40)\n      dup1\n      swap2\n      sub\n      swap1\n      revert\n    tag_266:\n        /* \"@openzeppelin/contracts-upgradeable/security/ReentrancyGuardUpgradeable.sol\":1851:1852  2 */\n      0x02\n        /* \"@openzeppelin/contracts-upgradeable/security/ReentrancyGuardUpgradeable.sol\":2863:2870  _status */\n      0x00\n        /* \"@openzeppelin/contracts-upgradeable/security/ReentrancyGuardUpgradeable.sol\":2863:2881  _status = _ENTERED */\n      dup2\n      swap1\n      sstore\n      pop\n        /* \"@openzeppelin/contracts-upgradeable/security/ReentrancyGuardUpgradeable.sol\":2601:2888  function _nonReentrantBefore() private {... */\n      jump\t// out\n        /* \"@openzeppelin/contracts-upgradeable/security/PausableUpgradeable.sol\":2031:2137  function _requireNotPaused() internal view virtual {... */\n    tag_123:\n        /* \"@openzeppelin/contracts-upgradeable/security/PausableUpgradeable.sol\":2101:2109  paused() */\n      tag_270\n        /* \"@openzeppelin/contracts-upgradeable/security/PausableUpgradeable.sol\":2101:2107  paused */\n      tag_56\n        /* \"@openzeppelin/contracts-upgradeable/security/PausableUpgradeable.sol\":2101:2109  paused() */\n      jump\t// in\n    tag_270:\n        /* \"@openzeppelin/contracts-upgradeable/security/PausableUpgradeable.sol\":2100:2109  !paused() */\n      iszero\n        /* \"@openzeppelin/contracts-upgradeable/security/PausableUpgradeable.sol\":2092:2130  require(!paused(), \"Pausable: paused\") */\n      tag_271\n      jumpi\n      mload(0x40)\n      0x08c379a000000000000000000000000000000000000000000000000000000000\n      dup2\n      mstore\n      0x04\n      add\n      tag_272\n      swap1\n      tag_273\n      jump\t// in\n    tag_272:\n      mload(0x40)\n      dup1\n      swap2\n      sub\n      swap1\n      revert\n    tag_271:\n        /* \"@openzeppelin/contracts-upgradeable/security/PausableUpgradeable.sol\":2031:2137  function _requireNotPaused() internal view virtual {... */\n      jump\t// out\n        /* \"@openzeppelin/contracts-upgradeable/token/ERC20/utils/SafeERC20Upgradeable.sol\":1421:1635  function safeTransferFrom(IERC20Upgradeable token, address from, address to, uint256 value) internal {... */\n    tag_129:\n        /* \"@openzeppelin/contracts-upgradeable/token/ERC20/utils/SafeERC20Upgradeable.sol\":1532:1628  _callOptionalReturn(token, abi.encodeWithSelector(token.transferFrom.selector, from, to, value)) */\n      tag_275\n        /* \"@openzeppelin/contracts-upgradeable/token/ERC20/utils/SafeERC20Upgradeable.sol\":1552:1557  token */\n      dup5\n        /* \"@openzeppelin/contracts-upgradeable/token/ERC20/utils/SafeERC20Upgradeable.sol\":1582:1609  token.transferFrom.selector */\n      shl(0xe0, 0x23b872dd)\n        /* \"@openzeppelin/contracts-upgradeable/token/ERC20/utils/SafeERC20Upgradeable.sol\":1611:1615  from */\n      dup6\n        /* \"@openzeppelin/contracts-upgradeable/token/ERC20/utils/SafeERC20Upgradeable.sol\":1617:1619  to */\n      dup6\n        /* \"@openzeppelin/contracts-upgradeable/token/ERC20/utils/SafeERC20Upgradeable.sol\":1621:1626  value */\n      dup6\n        /* \"@openzeppelin/contracts-upgradeable/token/ERC20/utils/SafeERC20Upgradeable.sol\":1559:1627  abi.encodeWithSelector(token.transferFrom.selector, from, to, value) */\n      add(0x24, mload(0x40))\n      tag_276\n      swap4\n      swap3\n      swap2\n      swap1\n      tag_277\n      jump\t// in\n    tag_276:\n      mload(0x40)\n      0x20\n      dup2\n      dup4\n      sub\n      sub\n      dup2\n      mstore\n      swap1\n      0x40\n      mstore\n      swap1\n      not(0xffffffffffffffffffffffffffffffffffffffffffffffffffffffff)\n      and\n      0x20\n      dup3\n      add\n      dup1\n      mload\n      0xffffffffffffffffffffffffffffffffffffffffffffffffffffffff\n      dup4\n      dup2\n      dup4\n      and\n      or\n      dup4\n      mstore\n      pop\n      pop\n      pop\n      pop\n        /* \"@openzeppelin/contracts-upgradeable/token/ERC20/utils/SafeERC20Upgradeable.sol\":1532:1551  _callOptionalReturn */\n      tag_278\n        /* \"@openzeppelin/contracts-upgradeable/token/ERC20/utils/SafeERC20Upgradeable.sol\":1532:1628  _callOptionalReturn(token, abi.encodeWithSelector(token.transferFrom.selector, from, to, value)) */\n      jump\t// in\n    tag_275:\n        /* \"@openzeppelin/contracts-upgradeable/token/ERC20/utils/SafeERC20Upgradeable.sol\":1421:1635  function safeTransferFrom(IERC20Upgradeable token, address from, address to, uint256 value) internal {... */\n      pop\n      pop\n      pop\n      pop\n      jump\t// out\n        /* \"@openzeppelin/contracts-upgradeable/security/ReentrancyGuardUpgradeable.sol\":2894:3103  function _nonReentrantAfter() private {... */\n    tag_141:\n        /* \"@openzeppelin/contracts-upgradeable/security/ReentrancyGuardUpgradeable.sol\":1808:1809  1 */\n      0x01\n        /* \"@openzeppelin/contracts-upgradeable/security/ReentrancyGuardUpgradeable.sol\":3074:3081  _status */\n      0x00\n        /* \"@openzeppelin/contracts-upgradeable/security/ReentrancyGuardUpgradeable.sol\":3074:3096  _status = _NOT_ENTERED */\n      dup2\n      swap1\n      sstore\n      pop\n        /* \"@openzeppelin/contracts-upgradeable/security/ReentrancyGuardUpgradeable.sol\":2894:3103  function _nonReentrantAfter() private {... */\n      jump\t// out\n        /* \"@openzeppelin/contracts-upgradeable/access/OwnableUpgradeable.sol\":2658:2820  function _checkOwner() internal view virtual {... */\n    tag_144:\n        /* \"@openzeppelin/contracts-upgradeable/access/OwnableUpgradeable.sol\":2728:2740  _msgSender() */\n      tag_281\n        /* \"@openzeppelin/contracts-upgradeable/access/OwnableUpgradeable.sol\":2728:2738  _msgSender */\n      tag_282\n        /* \"@openzeppelin/contracts-upgradeable/access/OwnableUpgradeable.sol\":2728:2740  _msgSender() */\n      jump\t// in\n    tag_281:\n        /* \"@openzeppelin/contracts-upgradeable/access/OwnableUpgradeable.sol\":2717:2740  owner() != _msgSender() */\n      0xffffffffffffffffffffffffffffffffffffffff\n      and\n        /* \"@openzeppelin/contracts-upgradeable/access/OwnableUpgradeable.sol\":2717:2724  owner() */\n      tag_283\n        /* \"@openzeppelin/contracts-upgradeable/access/OwnableUpgradeable.sol\":2717:2722  owner */\n      tag_72\n        /* \"@openzeppelin/contracts-upgradeable/access/OwnableUpgradeable.sol\":2717:2724  owner() */\n      jump\t// in\n    tag_283:\n        /* \"@openzeppelin/contracts-upgradeable/access/OwnableUpgradeable.sol\":2717:2740  owner() != _msgSender() */\n      0xffffffffffffffffffffffffffffffffffffffff\n      and\n      eq\n        /* \"@openzeppelin/contracts-upgradeable/access/OwnableUpgradeable.sol\":2713:2814  if (owner() != _msgSender()) {... */\n      tag_284\n      jumpi\n        /* \"@openzeppelin/contracts-upgradeable/access/OwnableUpgradeable.sol\":2790:2802  _msgSender() */\n      tag_285\n        /* \"@openzeppelin/contracts-upgradeable/access/OwnableUpgradeable.sol\":2790:2800  _msgSender */\n      tag_282\n        /* \"@openzeppelin/contracts-upgradeable/access/OwnableUpgradeable.sol\":2790:2802  _msgSender() */\n      jump\t// in\n    tag_285:\n        /* \"@openzeppelin/contracts-upgradeable/access/OwnableUpgradeable.sol\":2763:2803  OwnableUnauthorizedAccount(_msgSender()) */\n      mload(0x40)\n      0x118cdaa700000000000000000000000000000000000000000000000000000000\n      dup2\n      mstore\n      0x04\n      add\n      tag_286\n      swap2\n      swap1\n      tag_74\n      jump\t// in\n    tag_286:\n      mload(0x40)\n      dup1\n      swap2\n      sub\n      swap1\n      revert\n        /* \"@openzeppelin/contracts-upgradeable/access/OwnableUpgradeable.sol\":2713:2814  if (owner() != _msgSender()) {... */\n    tag_284:\n        /* \"@openzeppelin/contracts-upgradeable/access/OwnableUpgradeable.sol\":2658:2820  function _checkOwner() internal view virtual {... */\n      jump\t// out\n        /* \"@openzeppelin/contracts-upgradeable/security/PausableUpgradeable.sol\":2697:2814  function _unpause() internal virtual whenPaused {... */\n    tag_147:\n        /* \"@openzeppelin/contracts-upgradeable/security/PausableUpgradeable.sol\":1750:1766  _requirePaused() */\n      tag_288\n        /* \"@openzeppelin/contracts-upgradeable/security/PausableUpgradeable.sol\":1750:1764  _requirePaused */\n      tag_289\n        /* \"@openzeppelin/contracts-upgradeable/security/PausableUpgradeable.sol\":1750:1766  _requirePaused() */\n      jump\t// in\n    tag_288:\n        /* \"@openzeppelin/contracts-upgradeable/security/PausableUpgradeable.sol\":2765:2770  false */\n      0x00\n        /* \"@openzeppelin/contracts-upgradeable/security/PausableUpgradeable.sol\":2755:2762  _paused */\n      0x32\n      0x00\n        /* \"@openzeppelin/contracts-upgradeable/security/PausableUpgradeable.sol\":2755:2770  _paused = false */\n      0x0100\n      exp\n      dup2\n      sload\n      dup2\n      0xff\n      mul\n      not\n      and\n      swap1\n      dup4\n      iszero\n      iszero\n      mul\n      or\n      swap1\n      sstore\n      pop\n        /* \"@openzeppelin/contracts-upgradeable/security/PausableUpgradeable.sol\":2785:2807  Unpaused(_msgSender()) */\n      0x5db9ee0a495bf2e6ff9c91a7834c1ba4fdd244a5e8aa4e537bd38aeae4b073aa\n        /* \"@openzeppelin/contracts-upgradeable/security/PausableUpgradeable.sol\":2794:2806  _msgSender() */\n      tag_291\n        /* \"@openzeppelin/contracts-upgradeable/security/PausableUpgradeable.sol\":2794:2804  _msgSender */\n      tag_282\n        /* \"@openzeppelin/contracts-upgradeable/security/PausableUpgradeable.sol\":2794:2806  _msgSender() */\n      jump\t// in\n    tag_291:\n        /* \"@openzeppelin/contracts-upgradeable/security/PausableUpgradeable.sol\":2785:2807  Unpaused(_msgSender()) */\n      mload(0x40)\n      tag_292\n      swap2\n      swap1\n      tag_74\n      jump\t// in\n    tag_292:\n      mload(0x40)\n      dup1\n      swap2\n      sub\n      swap1\n      log1\n        /* \"@openzeppelin/contracts-upgradeable/security/PausableUpgradeable.sol\":2697:2814  function _unpause() internal virtual whenPaused {... */\n      jump\t// out\n        /* \"@openzeppelin/contracts-upgradeable/proxy/utils/UUPSUpgradeable.sol\":4578:4890  function _checkProxy() internal view virtual {... */\n    tag_150:\n        /* \"@openzeppelin/contracts-upgradeable/proxy/utils/UUPSUpgradeable.sol\":4667:4673  __self */\n      immutable(\"0x4ce4dab4689da140a0c12de1a6af6b8f679594aeb723205f513e052d27f5b26f\")\n        /* \"@openzeppelin/contracts-upgradeable/proxy/utils/UUPSUpgradeable.sol\":4650:4673  address(this) == __self */\n      0xffffffffffffffffffffffffffffffffffffffff\n      and\n        /* \"@openzeppelin/contracts-upgradeable/proxy/utils/UUPSUpgradeable.sol\":4658:4662  this */\n      address\n        /* \"@openzeppelin/contracts-upgradeable/proxy/utils/UUPSUpgradeable.sol\":4650:4673  address(this) == __self */\n      0xffffffffffffffffffffffffffffffffffffffff\n      and\n      eq\n        /* \"@openzeppelin/contracts-upgradeable/proxy/utils/UUPSUpgradeable.sol\":4650:4770  address(this) == __self || // Must be called through delegatecall... */\n      dup1\n      tag_294\n      jumpi\n      pop\n        /* \"@openzeppelin/contracts-upgradeable/proxy/utils/UUPSUpgradeable.sol\":4764:4770  __self */\n      immutable(\"0x4ce4dab4689da140a0c12de1a6af6b8f679594aeb723205f513e052d27f5b26f\")\n        /* \"@openzeppelin/contracts-upgradeable/proxy/utils/UUPSUpgradeable.sol\":4728:4770  ERC1967Utils.getImplementation() != __self */\n      0xffffffffffffffffffffffffffffffffffffffff\n      and\n        /* \"@openzeppelin/contracts-upgradeable/proxy/utils/UUPSUpgradeable.sol\":4728:4760  ERC1967Utils.getImplementation() */\n      tag_295\n        /* \"@openzeppelin/contracts-upgradeable/proxy/utils/UUPSUpgradeable.sol\":4728:4758  ERC1967Utils.getImplementation */\n      tag_296\n        /* \"@openzeppelin/contracts-upgradeable/proxy/utils/UUPSUpgradeable.sol\":4728:4760  ERC1967Utils.getImplementation() */\n      jump\t// in\n    tag_295:\n        /* \"@openzeppelin/contracts-upgradeable/proxy/utils/UUPSUpgradeable.sol\":4728:4770  ERC1967Utils.getImplementation() != __self */\n      0xffffffffffffffffffffffffffffffffffffffff\n      and\n      eq\n      iszero\n        /* \"@openzeppelin/contracts-upgradeable/proxy/utils/UUPSUpgradeable.sol\":4650:4770  address(this) == __self || // Must be called through delegatecall... */\n    tag_294:\n        /* \"@openzeppelin/contracts-upgradeable/proxy/utils/UUPSUpgradeable.sol\":4633:4884  if (... */\n      iszero\n      tag_297\n      jumpi\n        /* \"@openzeppelin/contracts-upgradeable/proxy/utils/UUPSUpgradeable.sol\":4844:4873  UUPSUnauthorizedCallContext() */\n      mload(0x40)\n      0xe07c8dba00000000000000000000000000000000000000000000000000000000\n      dup2\n      mstore\n      0x04\n      add\n      mload(0x40)\n      dup1\n      swap2\n      sub\n      swap1\n      revert\n        /* \"@openzeppelin/contracts-upgradeable/proxy/utils/UUPSUpgradeable.sol\":4633:4884  if (... */\n    tag_297:\n        /* \"@openzeppelin/contracts-upgradeable/proxy/utils/UUPSUpgradeable.sol\":4578:4890  function _checkProxy() internal view virtual {... */\n      jump\t// out\n        /* \"Smart Contracts/25_PredictionMarket.sol\":7601:7717  function _authorizeUpgrade(address newImplementation)... */\n    tag_153:\n        /* \"@openzeppelin/contracts-upgradeable/access/OwnableUpgradeable.sol\":2334:2347  _checkOwner() */\n      tag_299\n        /* \"@openzeppelin/contracts-upgradeable/access/OwnableUpgradeable.sol\":2334:2345  _checkOwner */\n      tag_144\n        /* \"@openzeppelin/contracts-upgradeable/access/OwnableUpgradeable.sol\":2334:2347  _checkOwner() */\n      jump\t// in\n    tag_299:\n        /* \"Smart Contracts/25_PredictionMarket.sol\":7601:7717  function _authorizeUpgrade(address newImplementation)... */\n      pop\n      jump\t// out\n        /* \"@openzeppelin/contracts-upgradeable/proxy/utils/UUPSUpgradeable.sol\":6032:6570  function _upgradeToAndCallUUPS(address newImplementation, bytes memory data) private {... */\n    tag_155:\n        /* \"@openzeppelin/contracts-upgradeable/proxy/utils/UUPSUpgradeable.sol\":6149:6166  newImplementation */\n      dup2\n        /* \"@openzeppelin/contracts-upgradeable/proxy/utils/UUPSUpgradeable.sol\":6131:6181  IERC1822Proxiable(newImplementation).proxiableUUID */\n      0xffffffffffffffffffffffffffffffffffffffff\n      and\n      0x52d1902d\n        /* \"@openzeppelin/contracts-upgradeable/proxy/utils/UUPSUpgradeable.sol\":6131:6183  IERC1822Proxiable(newImplementation).proxiableUUID() */\n      mload(0x40)\n      dup2\n      0xffffffff\n      and\n      0xe0\n      shl\n      dup2\n      mstore\n      0x04\n      add\n      0x20\n      mload(0x40)\n      dup1\n      dup4\n      sub\n      dup2\n      dup7\n      gas\n      staticcall\n      swap3\n      pop\n      pop\n      pop\n      dup1\n      iszero\n      tag_302\n      jumpi\n      pop\n      mload(0x40)\n      returndatasize\n      not(0x1f)\n      0x1f\n      dup3\n      add\n      and\n      dup3\n      add\n      dup1\n      0x40\n      mstore\n      pop\n      dup2\n      add\n      swap1\n      tag_303\n      swap2\n      swap1\n      tag_304\n      jump\t// in\n    tag_303:\n      0x01\n    tag_302:\n        /* \"@openzeppelin/contracts-upgradeable/proxy/utils/UUPSUpgradeable.sol\":6127:6564  try IERC1822Proxiable(newImplementation).proxiableUUID() returns (bytes32 slot) {... */\n      tag_305\n      jumpi\n        /* \"@openzeppelin/contracts-upgradeable/proxy/utils/UUPSUpgradeable.sol\":6535:6552  newImplementation */\n      dup2\n        /* \"@openzeppelin/contracts-upgradeable/proxy/utils/UUPSUpgradeable.sol\":6493:6553  ERC1967Utils.ERC1967InvalidImplementation(newImplementation) */\n      mload(0x40)\n      0x4c9c8ce300000000000000000000000000000000000000000000000000000000\n      dup2\n      mstore\n      0x04\n      add\n      tag_309\n      swap2\n      swap1\n      tag_74\n      jump\t// in\n    tag_309:\n      mload(0x40)\n      dup1\n      swap2\n      sub\n      swap1\n      revert\n        /* \"@openzeppelin/contracts-upgradeable/proxy/utils/UUPSUpgradeable.sol\":6127:6564  try IERC1822Proxiable(newImplementation).proxiableUUID() returns (bytes32 slot) {... */\n    tag_305:\n        /* \"@openzeppelin/contracts/proxy/ERC1967/ERC1967Utils.sol\":811:877  0x360894a13ba1a3210667c828492db98dca3e2076cc3735a920a3ca505d382bbc */\n      0x360894a13ba1a3210667c828492db98dca3e2076cc3735a920a3ca505d382bbc\n        /* \"@openzeppelin/contracts-upgradeable/proxy/utils/UUPSUpgradeable.sol\":6233:6265  ERC1967Utils.IMPLEMENTATION_SLOT */\n      0x00\n      shl\n        /* \"@openzeppelin/contracts-upgradeable/proxy/utils/UUPSUpgradeable.sol\":6225:6229  slot */\n      dup2\n        /* \"@openzeppelin/contracts-upgradeable/proxy/utils/UUPSUpgradeable.sol\":6225:6265  slot != ERC1967Utils.IMPLEMENTATION_SLOT */\n      eq\n        /* \"@openzeppelin/contracts-upgradeable/proxy/utils/UUPSUpgradeable.sol\":6221:6341  if (slot != ERC1967Utils.IMPLEMENTATION_SLOT) {... */\n      tag_311\n      jumpi\n        /* \"@openzeppelin/contracts-upgradeable/proxy/utils/UUPSUpgradeable.sol\":6321:6325  slot */\n      dup1\n        /* \"@openzeppelin/contracts-upgradeable/proxy/utils/UUPSUpgradeable.sol\":6292:6326  UUPSUnsupportedProxiableUUID(slot) */\n      mload(0x40)\n      0xaa1d49a400000000000000000000000000000000000000000000000000000000\n      dup2\n      mstore\n      0x04\n      add\n      tag_312\n      swap2\n      swap1\n      tag_53\n      jump\t// in\n    tag_312:\n      mload(0x40)\n      dup1\n      swap2\n      sub\n      swap1\n      revert\n        /* \"@openzeppelin/contracts-upgradeable/proxy/utils/UUPSUpgradeable.sol\":6221:6341  if (slot != ERC1967Utils.IMPLEMENTATION_SLOT) {... */\n    tag_311:\n        /* \"@openzeppelin/contracts-upgradeable/proxy/utils/UUPSUpgradeable.sol\":6354:6408  ERC1967Utils.upgradeToAndCall(newImplementation, data) */\n      tag_313\n        /* \"@openzeppelin/contracts-upgradeable/proxy/utils/UUPSUpgradeable.sol\":6384:6401  newImplementation */\n      dup4\n        /* \"@openzeppelin/contracts-upgradeable/proxy/utils/UUPSUpgradeable.sol\":6403:6407  data */\n      dup4\n        /* \"@openzeppelin/contracts-upgradeable/proxy/utils/UUPSUpgradeable.sol\":6354:6383  ERC1967Utils.upgradeToAndCall */\n      tag_314\n        /* \"@openzeppelin/contracts-upgradeable/proxy/utils/UUPSUpgradeable.sol\":6354:6408  ERC1967Utils.upgradeToAndCall(newImplementation, data) */\n      jump\t// in\n    tag_313:\n        /* \"@openzeppelin/contracts-upgradeable/proxy/utils/UUPSUpgradeable.sol\":6184:6419  returns (bytes32 slot) {... */\n      pop\n        /* \"@openzeppelin/contracts-upgradeable/proxy/utils/UUPSUpgradeable.sol\":6032:6570  function _upgradeToAndCallUUPS(address newImplementation, bytes memory data) private {... */\n      pop\n      pop\n      jump\t// out\n        /* \"@openzeppelin/contracts-upgradeable/proxy/utils/UUPSUpgradeable.sol\":5007:5220  function _checkNotDelegated() internal view virtual {... */\n    tag_158:\n        /* \"@openzeppelin/contracts-upgradeable/proxy/utils/UUPSUpgradeable.sol\":5090:5096  __self */\n      immutable(\"0x4ce4dab4689da140a0c12de1a6af6b8f679594aeb723205f513e052d27f5b26f\")\n        /* \"@openzeppelin/contracts-upgradeable/proxy/utils/UUPSUpgradeable.sol\":5073:5096  address(this) != __self */\n      0xffffffffffffffffffffffffffffffffffffffff\n      and\n        /* \"@openzeppelin/contracts-upgradeable/proxy/utils/UUPSUpgradeable.sol\":5081:5085  this */\n      address\n        /* \"@openzeppelin/contracts-upgradeable/proxy/utils/UUPSUpgradeable.sol\":5073:5096  address(this) != __self */\n      0xffffffffffffffffffffffffffffffffffffffff\n      and\n      eq\n        /* \"@openzeppelin/contracts-upgradeable/proxy/utils/UUPSUpgradeable.sol\":5069:5214  if (address(this) != __self) {... */\n      tag_316\n      jumpi\n        /* \"@openzeppelin/contracts-upgradeable/proxy/utils/UUPSUpgradeable.sol\":5174:5203  UUPSUnauthorizedCallContext() */\n      mload(0x40)\n      0xe07c8dba00000000000000000000000000000000000000000000000000000000\n      dup2\n      mstore\n      0x04\n      add\n      mload(0x40)\n      dup1\n      swap2\n      sub\n      swap1\n      revert\n        /* \"@openzeppelin/contracts-upgradeable/proxy/utils/UUPSUpgradeable.sol\":5069:5214  if (address(this) != __self) {... */\n    tag_316:\n        /* \"@openzeppelin/contracts-upgradeable/proxy/utils/UUPSUpgradeable.sol\":5007:5220  function _checkNotDelegated() internal view virtual {... */\n      jump\t// out\n        /* \"@openzeppelin/contracts-upgradeable/access/OwnableUpgradeable.sol\":3774:4022  function _transferOwnership(address newOwner) internal virtual {... */\n    tag_186:\n        /* \"@openzeppelin/contracts-upgradeable/access/OwnableUpgradeable.sol\":3847:3871  OwnableStorage storage $ */\n      0x00\n        /* \"@openzeppelin/contracts-upgradeable/access/OwnableUpgradeable.sol\":3874:3894  _getOwnableStorage() */\n      tag_318\n        /* \"@openzeppelin/contracts-upgradeable/access/OwnableUpgradeable.sol\":3874:3892  _getOwnableStorage */\n      tag_194\n        /* \"@openzeppelin/contracts-upgradeable/access/OwnableUpgradeable.sol\":3874:3894  _getOwnableStorage() */\n      jump\t// in\n    tag_318:\n        /* \"@openzeppelin/contracts-upgradeable/access/OwnableUpgradeable.sol\":3847:3894  OwnableStorage storage $ = _getOwnableStorage() */\n      swap1\n      pop\n        /* \"@openzeppelin/contracts-upgradeable/access/OwnableUpgradeable.sol\":3904:3920  address oldOwner */\n      0x00\n        /* \"@openzeppelin/contracts-upgradeable/access/OwnableUpgradeable.sol\":3923:3924  $ */\n      dup2\n        /* \"@openzeppelin/contracts-upgradeable/access/OwnableUpgradeable.sol\":3923:3931  $._owner */\n      0x00\n      add\n      0x00\n      swap1\n      sload\n      swap1\n      0x0100\n      exp\n      swap1\n      div\n      0xffffffffffffffffffffffffffffffffffffffff\n      and\n        /* \"@openzeppelin/contracts-upgradeable/access/OwnableUpgradeable.sol\":3904:3931  address oldOwner = $._owner */\n      swap1\n      pop\n        /* \"@openzeppelin/contracts-upgradeable/access/OwnableUpgradeable.sol\":3952:3960  newOwner */\n      dup3\n        /* \"@openzeppelin/contracts-upgradeable/access/OwnableUpgradeable.sol\":3941:3942  $ */\n      dup3\n        /* \"@openzeppelin/contracts-upgradeable/access/OwnableUpgradeable.sol\":3941:3949  $._owner */\n      0x00\n      add\n      0x00\n        /* \"@openzeppelin/contracts-upgradeable/access/OwnableUpgradeable.sol\":3941:3960  $._owner = newOwner */\n      0x0100\n      exp\n      dup2\n      sload\n      dup2\n      0xffffffffffffffffffffffffffffffffffffffff\n      mul\n      not\n      and\n      swap1\n      dup4\n      0xffffffffffffffffffffffffffffffffffffffff\n      and\n      mul\n      or\n      swap1\n      sstore\n      pop\n        /* \"@openzeppelin/contracts-upgradeable/access/OwnableUpgradeable.sol\":4006:4014  newOwner */\n      dup3\n        /* \"@openzeppelin/contracts-upgradeable/access/OwnableUpgradeable.sol\":3975:4015  OwnershipTransferred(oldOwner, newOwner) */\n      0xffffffffffffffffffffffffffffffffffffffff\n      and\n        /* \"@openzeppelin/contracts-upgradeable/access/OwnableUpgradeable.sol\":3996:4004  oldOwner */\n      dup2\n        /* \"@openzeppelin/contracts-upgradeable/access/OwnableUpgradeable.sol\":3975:4015  OwnershipTransferred(oldOwner, newOwner) */\n      0xffffffffffffffffffffffffffffffffffffffff\n      and\n      0x8be0079c531659141344cd1fd0a4f28419497f9722a3daafe3b4186f6b6457e0\n      mload(0x40)\n      mload(0x40)\n      dup1\n      swap2\n      sub\n      swap1\n      log3\n        /* \"@openzeppelin/contracts-upgradeable/access/OwnableUpgradeable.sol\":3837:4022  {... */\n      pop\n      pop\n        /* \"@openzeppelin/contracts-upgradeable/access/OwnableUpgradeable.sol\":3774:4022  function _transferOwnership(address newOwner) internal virtual {... */\n      pop\n      jump\t// out\n        /* \"@openzeppelin/contracts-upgradeable/security/PausableUpgradeable.sol\":2450:2565  function _pause() internal virtual whenNotPaused {... */\n    tag_191:\n        /* \"@openzeppelin/contracts-upgradeable/security/PausableUpgradeable.sol\":1503:1522  _requireNotPaused() */\n      tag_320\n        /* \"@openzeppelin/contracts-upgradeable/security/PausableUpgradeable.sol\":1503:1520  _requireNotPaused */\n      tag_123\n        /* \"@openzeppelin/contracts-upgradeable/security/PausableUpgradeable.sol\":1503:1522  _requireNotPaused() */\n      jump\t// in\n    tag_320:\n        /* \"@openzeppelin/contracts-upgradeable/security/PausableUpgradeable.sol\":2519:2523  true */\n      0x01\n        /* \"@openzeppelin/contracts-upgradeable/security/PausableUpgradeable.sol\":2509:2516  _paused */\n      0x32\n      0x00\n        /* \"@openzeppelin/contracts-upgradeable/security/PausableUpgradeable.sol\":2509:2523  _paused = true */\n      0x0100\n      exp\n      dup2\n      sload\n      dup2\n      0xff\n      mul\n      not\n      and\n      swap1\n      dup4\n      iszero\n      iszero\n      mul\n      or\n      swap1\n      sstore\n      pop\n        /* \"@openzeppelin/contracts-upgradeable/security/PausableUpgradeable.sol\":2538:2558  Paused(_msgSender()) */\n      0x62e78cea01bee320cd4e420270b5ea74000d11b0c9f74754ebdbfc544b05a258\n        /* \"@openzeppelin/contracts-upgradeable/security/PausableUpgradeable.sol\":2545:2557  _msgSender() */\n      tag_322\n        /* \"@openzeppelin/contracts-upgradeable/security/PausableUpgradeable.sol\":2545:2555  _msgSender */\n      tag_282\n        /* \"@openzeppelin/contracts-upgradeable/security/PausableUpgradeable.sol\":2545:2557  _msgSender() */\n      jump\t// in\n    tag_322:\n        /* \"@openzeppelin/contracts-upgradeable/security/PausableUpgradeable.sol\":2538:2558  Paused(_msgSender()) */\n      mload(0x40)\n      tag_323\n      swap2\n      swap1\n      tag_74\n      jump\t// in\n    tag_323:\n      mload(0x40)\n      dup1\n      swap2\n      sub\n      swap1\n      log1\n        /* \"@openzeppelin/contracts-upgradeable/security/PausableUpgradeable.sol\":2450:2565  function _pause() internal virtual whenNotPaused {... */\n      jump\t// out\n        /* \"@openzeppelin/contracts-upgradeable/access/OwnableUpgradeable.sol\":1192:1351  function _getOwnableStorage() private pure returns (OwnableStorage storage $) {... */\n    tag_194:\n        /* \"@openzeppelin/contracts-upgradeable/access/OwnableUpgradeable.sol\":1244:1268  OwnableStorage storage $ */\n      0x00\n        /* \"@openzeppelin/contracts-upgradeable/access/OwnableUpgradeable.sol\":1313:1335  OwnableStorageLocation */\n      0x9016d09d72d40fdae2fd8ceac6b6234c7706214fd39c1cd1e609a0528c199300\n        /* \"@openzeppelin/contracts-upgradeable/access/OwnableUpgradeable.sol\":1303:1335  $.slot := OwnableStorageLocation */\n      swap1\n      pop\n        /* \"@openzeppelin/contracts-upgradeable/access/OwnableUpgradeable.sol\":1192:1351  function _getOwnableStorage() private pure returns (OwnableStorage storage $) {... */\n      swap1\n      jump\t// out\n        /* \"@openzeppelin/contracts-upgradeable/token/ERC20/utils/SafeERC20Upgradeable.sol\":996:1182  function safeTransfer(IERC20Upgradeable token, address to, uint256 value) internal {... */\n    tag_235:\n        /* \"@openzeppelin/contracts-upgradeable/token/ERC20/utils/SafeERC20Upgradeable.sol\":1089:1175  _callOptionalReturn(token, abi.encodeWithSelector(token.transfer.selector, to, value)) */\n      tag_326\n        /* \"@openzeppelin/contracts-upgradeable/token/ERC20/utils/SafeERC20Upgradeable.sol\":1109:1114  token */\n      dup4\n        /* \"@openzeppelin/contracts-upgradeable/token/ERC20/utils/SafeERC20Upgradeable.sol\":1139:1162  token.transfer.selector */\n      shl(0xe0, 0xa9059cbb)\n        /* \"@openzeppelin/contracts-upgradeable/token/ERC20/utils/SafeERC20Upgradeable.sol\":1164:1166  to */\n      dup5\n        /* \"@openzeppelin/contracts-upgradeable/token/ERC20/utils/SafeERC20Upgradeable.sol\":1168:1173  value */\n      dup5\n        /* \"@openzeppelin/contracts-upgradeable/token/ERC20/utils/SafeERC20Upgradeable.sol\":1116:1174  abi.encodeWithSelector(token.transfer.selector, to, value) */\n      add(0x24, mload(0x40))\n      tag_327\n      swap3\n      swap2\n      swap1\n      tag_328\n      jump\t// in\n    tag_327:\n      mload(0x40)\n      0x20\n      dup2\n      dup4\n      sub\n      sub\n      dup2\n      mstore\n      swap1\n      0x40\n      mstore\n      swap1\n      not(0xffffffffffffffffffffffffffffffffffffffffffffffffffffffff)\n      and\n      0x20\n      dup3\n      add\n      dup1\n      mload\n      0xffffffffffffffffffffffffffffffffffffffffffffffffffffffff\n      dup4\n      dup2\n      dup4\n      and\n      or\n      dup4\n      mstore\n      pop\n      pop\n      pop\n      pop\n        /* \"@openzeppelin/contracts-upgradeable/token/ERC20/utils/SafeERC20Upgradeable.sol\":1089:1108  _callOptionalReturn */\n      tag_278\n        /* \"@openzeppelin/contracts-upgradeable/token/ERC20/utils/SafeERC20Upgradeable.sol\":1089:1175  _callOptionalReturn(token, abi.encodeWithSelector(token.transfer.selector, to, value)) */\n      jump\t// in\n    tag_326:\n        /* \"@openzeppelin/contracts-upgradeable/token/ERC20/utils/SafeERC20Upgradeable.sol\":996:1182  function safeTransfer(IERC20Upgradeable token, address to, uint256 value) internal {... */\n      pop\n      pop\n      pop\n      jump\t// out\n        /* \"@openzeppelin/contracts-upgradeable/proxy/utils/Initializable.sol\":9071:9276  function _getInitializableStorage() private pure returns (InitializableStorage storage $) {... */\n    tag_241:\n        /* \"@openzeppelin/contracts-upgradeable/proxy/utils/Initializable.sol\":9129:9159  InitializableStorage storage $ */\n      0x00\n        /* \"@openzeppelin/contracts-upgradeable/proxy/utils/Initializable.sol\":9171:9183  bytes32 slot */\n      0x00\n        /* \"@openzeppelin/contracts-upgradeable/proxy/utils/Initializable.sol\":9186:9213  _initializableStorageSlot() */\n      tag_330\n        /* \"@openzeppelin/contracts-upgradeable/proxy/utils/Initializable.sol\":9186:9211  _initializableStorageSlot */\n      tag_331\n        /* \"@openzeppelin/contracts-upgradeable/proxy/utils/Initializable.sol\":9186:9213  _initializableStorageSlot() */\n      jump\t// in\n    tag_330:\n        /* \"@openzeppelin/contracts-upgradeable/proxy/utils/Initializable.sol\":9171:9213  bytes32 slot = _initializableStorageSlot() */\n      swap1\n      pop\n        /* \"@openzeppelin/contracts-upgradeable/proxy/utils/Initializable.sol\":9256:9260  slot */\n      dup1\n        /* \"@openzeppelin/contracts-upgradeable/proxy/utils/Initializable.sol\":9246:9260  $.slot := slot */\n      swap2\n      pop\n        /* \"@openzeppelin/contracts-upgradeable/proxy/utils/Initializable.sol\":9232:9270  {... */\n      pop\n        /* \"@openzeppelin/contracts-upgradeable/proxy/utils/Initializable.sol\":9071:9276  function _getInitializableStorage() private pure returns (InitializableStorage storage $) {... */\n      swap1\n      jump\t// out\n        /* \"@openzeppelin/contracts-upgradeable/access/OwnableUpgradeable.sol\":1847:1974  function __Ownable_init(address initialOwner) internal onlyInitializing {... */\n    tag_249:\n        /* \"@openzeppelin/contracts-upgradeable/proxy/utils/Initializable.sol\":6929:6949  _checkInitializing() */\n      tag_333\n        /* \"@openzeppelin/contracts-upgradeable/proxy/utils/Initializable.sol\":6929:6947  _checkInitializing */\n      tag_334\n        /* \"@openzeppelin/contracts-upgradeable/proxy/utils/Initializable.sol\":6929:6949  _checkInitializing() */\n      jump\t// in\n    tag_333:\n        /* \"@openzeppelin/contracts-upgradeable/access/OwnableUpgradeable.sol\":1929:1967  __Ownable_init_unchained(initialOwner) */\n      tag_336\n        /* \"@openzeppelin/contracts-upgradeable/access/OwnableUpgradeable.sol\":1954:1966  initialOwner */\n      dup2\n        /* \"@openzeppelin/contracts-upgradeable/access/OwnableUpgradeable.sol\":1929:1953  __Ownable_init_unchained */\n      tag_337\n        /* \"@openzeppelin/contracts-upgradeable/access/OwnableUpgradeable.sol\":1929:1967  __Ownable_init_unchained(initialOwner) */\n      jump\t// in\n    tag_336:\n        /* \"@openzeppelin/contracts-upgradeable/access/OwnableUpgradeable.sol\":1847:1974  function __Ownable_init(address initialOwner) internal onlyInitializing {... */\n      pop\n      jump\t// out\n        /* \"@openzeppelin/contracts-upgradeable/security/ReentrancyGuardUpgradeable.sol\":1889:2000  function __ReentrancyGuard_init() internal onlyInitializing {... */\n    tag_251:\n        /* \"@openzeppelin/contracts-upgradeable/proxy/utils/Initializable.sol\":6929:6949  _checkInitializing() */\n      tag_339\n        /* \"@openzeppelin/contracts-upgradeable/proxy/utils/Initializable.sol\":6929:6947  _checkInitializing */\n      tag_334\n        /* \"@openzeppelin/contracts-upgradeable/proxy/utils/Initializable.sol\":6929:6949  _checkInitializing() */\n      jump\t// in\n    tag_339:\n        /* \"@openzeppelin/contracts-upgradeable/security/ReentrancyGuardUpgradeable.sol\":1959:1993  __ReentrancyGuard_init_unchained() */\n      tag_341\n        /* \"@openzeppelin/contracts-upgradeable/security/ReentrancyGuardUpgradeable.sol\":1959:1991  __ReentrancyGuard_init_unchained */\n      tag_342\n        /* \"@openzeppelin/contracts-upgradeable/security/ReentrancyGuardUpgradeable.sol\":1959:1993  __ReentrancyGuard_init_unchained() */\n      jump\t// in\n    tag_341:\n        /* \"@openzeppelin/contracts-upgradeable/security/ReentrancyGuardUpgradeable.sol\":1889:2000  function __ReentrancyGuard_init() internal onlyInitializing {... */\n      jump\t// out\n        /* \"@openzeppelin/contracts-upgradeable/security/PausableUpgradeable.sol\":1084:1181  function __Pausable_init() internal onlyInitializing {... */\n    tag_253:\n        /* \"@openzeppelin/contracts-upgradeable/proxy/utils/Initializable.sol\":6929:6949  _checkInitializing() */\n      tag_344\n        /* \"@openzeppelin/contracts-upgradeable/proxy/utils/Initializable.sol\":6929:6947  _checkInitializing */\n      tag_334\n        /* \"@openzeppelin/contracts-upgradeable/proxy/utils/Initializable.sol\":6929:6949  _checkInitializing() */\n      jump\t// in\n    tag_344:\n        /* \"@openzeppelin/contracts-upgradeable/security/PausableUpgradeable.sol\":1147:1174  __Pausable_init_unchained() */\n      tag_346\n        /* \"@openzeppelin/contracts-upgradeable/security/PausableUpgradeable.sol\":1147:1172  __Pausable_init_unchained */\n      tag_347\n        /* \"@openzeppelin/contracts-upgradeable/security/PausableUpgradeable.sol\":1147:1174  __Pausable_init_unchained() */\n      jump\t// in\n    tag_346:\n        /* \"@openzeppelin/contracts-upgradeable/security/PausableUpgradeable.sol\":1084:1181  function __Pausable_init() internal onlyInitializing {... */\n      jump\t// out\n        /* \"@openzeppelin/contracts-upgradeable/proxy/utils/UUPSUpgradeable.sol\":2970:3037  function __UUPSUpgradeable_init() internal onlyInitializing {... */\n    tag_255:\n        /* \"@openzeppelin/contracts-upgradeable/proxy/utils/Initializable.sol\":6929:6949  _checkInitializing() */\n      tag_349\n        /* \"@openzeppelin/contracts-upgradeable/proxy/utils/Initializable.sol\":6929:6947  _checkInitializing */\n      tag_334\n        /* \"@openzeppelin/contracts-upgradeable/proxy/utils/Initializable.sol\":6929:6949  _checkInitializing() */\n      jump\t// in\n    tag_349:\n        /* \"@openzeppelin/contracts-upgradeable/proxy/utils/UUPSUpgradeable.sol\":2970:3037  function __UUPSUpgradeable_init() internal onlyInitializing {... */\n      jump\t// out\n        /* \"@openzeppelin/contracts-upgradeable/token/ERC20/utils/SafeERC20Upgradeable.sol\":5328:5981  function _callOptionalReturn(IERC20Upgradeable token, bytes memory data) private {... */\n    tag_278:\n        /* \"@openzeppelin/contracts-upgradeable/token/ERC20/utils/SafeERC20Upgradeable.sol\":5758:5781  bytes memory returndata */\n      0x00\n        /* \"@openzeppelin/contracts-upgradeable/token/ERC20/utils/SafeERC20Upgradeable.sol\":5784:5853  address(token).functionCall(data, \"SafeERC20: low-level call failed\") */\n      tag_352\n        /* \"@openzeppelin/contracts-upgradeable/token/ERC20/utils/SafeERC20Upgradeable.sol\":5812:5816  data */\n      dup3\n        /* \"@openzeppelin/contracts-upgradeable/token/ERC20/utils/SafeERC20Upgradeable.sol\":5784:5853  address(token).functionCall(data, \"SafeERC20: low-level call failed\") */\n      mload(0x40)\n      dup1\n      0x40\n      add\n      0x40\n      mstore\n      dup1\n      0x20\n      dup2\n      mstore\n      0x20\n      add\n      0x5361666545524332303a206c6f772d6c6576656c2063616c6c206661696c6564\n      dup2\n      mstore\n      pop\n        /* \"@openzeppelin/contracts-upgradeable/token/ERC20/utils/SafeERC20Upgradeable.sol\":5792:5797  token */\n      dup6\n        /* \"@openzeppelin/contracts-upgradeable/token/ERC20/utils/SafeERC20Upgradeable.sol\":5784:5811  address(token).functionCall */\n      0xffffffffffffffffffffffffffffffffffffffff\n      and\n      tag_353\n      swap1\n        /* \"@openzeppelin/contracts-upgradeable/token/ERC20/utils/SafeERC20Upgradeable.sol\":5784:5853  address(token).functionCall(data, \"SafeERC20: low-level call failed\") */\n      swap3\n      swap2\n      swap1\n      0xffffffff\n      and\n      jump\t// in\n    tag_352:\n        /* \"@openzeppelin/contracts-upgradeable/token/ERC20/utils/SafeERC20Upgradeable.sol\":5758:5853  bytes memory returndata = address(token).functionCall(data, \"SafeERC20: low-level call failed\") */\n      swap1\n      pop\n        /* \"@openzeppelin/contracts-upgradeable/token/ERC20/utils/SafeERC20Upgradeable.sol\":5892:5893  0 */\n      0x00\n        /* \"@openzeppelin/contracts-upgradeable/token/ERC20/utils/SafeERC20Upgradeable.sol\":5871:5881  returndata */\n      dup2\n        /* \"@openzeppelin/contracts-upgradeable/token/ERC20/utils/SafeERC20Upgradeable.sol\":5871:5888  returndata.length */\n      mload\n        /* \"@openzeppelin/contracts-upgradeable/token/ERC20/utils/SafeERC20Upgradeable.sol\":5871:5893  returndata.length == 0 */\n      eq\n        /* \"@openzeppelin/contracts-upgradeable/token/ERC20/utils/SafeERC20Upgradeable.sol\":5871:5927  returndata.length == 0 || abi.decode(returndata, (bool)) */\n      dup1\n      tag_354\n      jumpi\n      pop\n        /* \"@openzeppelin/contracts-upgradeable/token/ERC20/utils/SafeERC20Upgradeable.sol\":5908:5918  returndata */\n      dup1\n        /* \"@openzeppelin/contracts-upgradeable/token/ERC20/utils/SafeERC20Upgradeable.sol\":5897:5927  abi.decode(returndata, (bool)) */\n      dup1\n      0x20\n      add\n      swap1\n      mload\n      dup2\n      add\n      swap1\n      tag_355\n      swap2\n      swap1\n      tag_356\n      jump\t// in\n    tag_355:\n        /* \"@openzeppelin/contracts-upgradeable/token/ERC20/utils/SafeERC20Upgradeable.sol\":5871:5927  returndata.length == 0 || abi.decode(returndata, (bool)) */\n    tag_354:\n        /* \"@openzeppelin/contracts-upgradeable/token/ERC20/utils/SafeERC20Upgradeable.sol\":5863:5974  require(returndata.length == 0 || abi.decode(returndata, (bool)), \"SafeERC20: ERC20 operation did not succeed\") */\n      tag_357\n      jumpi\n      mload(0x40)\n      0x08c379a000000000000000000000000000000000000000000000000000000000\n      dup2\n      mstore\n      0x04\n      add\n      tag_358\n      swap1\n      tag_359\n      jump\t// in\n    tag_358:\n      mload(0x40)\n      dup1\n      swap2\n      sub\n      swap1\n      revert\n    tag_357:\n        /* \"@openzeppelin/contracts-upgradeable/token/ERC20/utils/SafeERC20Upgradeable.sol\":5409:5981  {... */\n      pop\n        /* \"@openzeppelin/contracts-upgradeable/token/ERC20/utils/SafeERC20Upgradeable.sol\":5328:5981  function _callOptionalReturn(IERC20Upgradeable token, bytes memory data) private {... */\n      pop\n      pop\n      jump\t// out\n        /* \"@openzeppelin/contracts-upgradeable/utils/ContextUpgradeable.sol\":887:983  function _msgSender() internal view virtual returns (address) {... */\n    tag_282:\n        /* \"@openzeppelin/contracts-upgradeable/utils/ContextUpgradeable.sol\":940:947  address */\n      0x00\n        /* \"@openzeppelin/contracts-upgradeable/utils/ContextUpgradeable.sol\":966:976  msg.sender */\n      caller\n        /* \"@openzeppelin/contracts-upgradeable/utils/ContextUpgradeable.sol\":959:976  return msg.sender */\n      swap1\n      pop\n        /* \"@openzeppelin/contracts-upgradeable/utils/ContextUpgradeable.sol\":887:983  function _msgSender() internal view virtual returns (address) {... */\n      swap1\n      jump\t// out\n        /* \"@openzeppelin/contracts-upgradeable/security/PausableUpgradeable.sol\":2209:2315  function _requirePaused() internal view virtual {... */\n    tag_289:\n        /* \"@openzeppelin/contracts-upgradeable/security/PausableUpgradeable.sol\":2275:2283  paused() */\n      tag_362\n        /* \"@openzeppelin/contracts-upgradeable/security/PausableUpgradeable.sol\":2275:2281  paused */\n      tag_56\n        /* \"@openzeppelin/contracts-upgradeable/security/PausableUpgradeable.sol\":2275:2283  paused() */\n      jump\t// in\n    tag_362:\n        /* \"@openzeppelin/contracts-upgradeable/security/PausableUpgradeable.sol\":2267:2308  require(paused(), \"Pausable: not paused\") */\n      tag_363\n      jumpi\n      mload(0x40)\n      0x08c379a000000000000000000000000000000000000000000000000000000000\n      dup2\n      mstore\n      0x04\n      add\n      tag_364\n      swap1\n      tag_365\n      jump\t// in\n    tag_364:\n      mload(0x40)\n      dup1\n      swap2\n      sub\n      swap1\n      revert\n    tag_363:\n        /* \"@openzeppelin/contracts-upgradeable/security/PausableUpgradeable.sol\":2209:2315  function _requirePaused() internal view virtual {... */\n      jump\t// out\n        /* \"@openzeppelin/contracts/proxy/ERC1967/ERC1967Utils.sol\":1441:1579  function getImplementation() internal view returns (address) {... */\n    tag_296:\n        /* \"@openzeppelin/contracts/proxy/ERC1967/ERC1967Utils.sol\":1493:1500  address */\n      0x00\n        /* \"@openzeppelin/contracts/proxy/ERC1967/ERC1967Utils.sol\":1519:1566  StorageSlot.getAddressSlot(IMPLEMENTATION_SLOT) */\n      tag_367\n        /* \"@openzeppelin/contracts/proxy/ERC1967/ERC1967Utils.sol\":811:877  0x360894a13ba1a3210667c828492db98dca3e2076cc3735a920a3ca505d382bbc */\n      0x360894a13ba1a3210667c828492db98dca3e2076cc3735a920a3ca505d382bbc\n        /* \"@openzeppelin/contracts/proxy/ERC1967/ERC1967Utils.sol\":1546:1565  IMPLEMENTATION_SLOT */\n      0x00\n      shl\n        /* \"@openzeppelin/contracts/proxy/ERC1967/ERC1967Utils.sol\":1519:1545  StorageSlot.getAddressSlot */\n      tag_368\n        /* \"@openzeppelin/contracts/proxy/ERC1967/ERC1967Utils.sol\":1519:1566  StorageSlot.getAddressSlot(IMPLEMENTATION_SLOT) */\n      jump\t// in\n    tag_367:\n        /* \"@openzeppelin/contracts/proxy/ERC1967/ERC1967Utils.sol\":1519:1572  StorageSlot.getAddressSlot(IMPLEMENTATION_SLOT).value */\n      0x00\n      add\n      0x00\n      swap1\n      sload\n      swap1\n      0x0100\n      exp\n      swap1\n      div\n      0xffffffffffffffffffffffffffffffffffffffff\n      and\n        /* \"@openzeppelin/contracts/proxy/ERC1967/ERC1967Utils.sol\":1512:1572  return StorageSlot.getAddressSlot(IMPLEMENTATION_SLOT).value */\n      swap1\n      pop\n        /* \"@openzeppelin/contracts/proxy/ERC1967/ERC1967Utils.sol\":1441:1579  function getImplementation() internal view returns (address) {... */\n      swap1\n      jump\t// out\n        /* \"@openzeppelin/contracts/proxy/ERC1967/ERC1967Utils.sol\":2264:2608  function upgradeToAndCall(address newImplementation, bytes memory data) internal {... */\n    tag_314:\n        /* \"@openzeppelin/contracts/proxy/ERC1967/ERC1967Utils.sol\":2355:2392  _setImplementation(newImplementation) */\n      tag_370\n        /* \"@openzeppelin/contracts/proxy/ERC1967/ERC1967Utils.sol\":2374:2391  newImplementation */\n      dup3\n        /* \"@openzeppelin/contracts/proxy/ERC1967/ERC1967Utils.sol\":2355:2373  _setImplementation */\n      tag_371\n        /* \"@openzeppelin/contracts/proxy/ERC1967/ERC1967Utils.sol\":2355:2392  _setImplementation(newImplementation) */\n      jump\t// in\n    tag_370:\n        /* \"@openzeppelin/contracts/proxy/ERC1967/ERC1967Utils.sol\":2425:2442  newImplementation */\n      dup2\n        /* \"@openzeppelin/contracts/proxy/ERC1967/ERC1967Utils.sol\":2407:2443  IERC1967.Upgraded(newImplementation) */\n      0xffffffffffffffffffffffffffffffffffffffff\n      and\n      0xbc7cd75a20ee27fd9adebab32041f755214dbc6bffa90cc0225b39da2e5c2d3b\n      mload(0x40)\n      mload(0x40)\n      dup1\n      swap2\n      sub\n      swap1\n      log2\n        /* \"@openzeppelin/contracts/proxy/ERC1967/ERC1967Utils.sol\":2472:2473  0 */\n      0x00\n        /* \"@openzeppelin/contracts/proxy/ERC1967/ERC1967Utils.sol\":2458:2462  data */\n      dup2\n        /* \"@openzeppelin/contracts/proxy/ERC1967/ERC1967Utils.sol\":2458:2469  data.length */\n      mload\n        /* \"@openzeppelin/contracts/proxy/ERC1967/ERC1967Utils.sol\":2458:2473  data.length > 0 */\n      gt\n        /* \"@openzeppelin/contracts/proxy/ERC1967/ERC1967Utils.sol\":2454:2602  if (data.length > 0) {... */\n      iszero\n      tag_372\n      jumpi\n        /* \"@openzeppelin/contracts/proxy/ERC1967/ERC1967Utils.sol\":2489:2542  Address.functionDelegateCall(newImplementation, data) */\n      tag_373\n        /* \"@openzeppelin/contracts/proxy/ERC1967/ERC1967Utils.sol\":2518:2535  newImplementation */\n      dup3\n        /* \"@openzeppelin/contracts/proxy/ERC1967/ERC1967Utils.sol\":2537:2541  data */\n      dup3\n        /* \"@openzeppelin/contracts/proxy/ERC1967/ERC1967Utils.sol\":2489:2517  Address.functionDelegateCall */\n      tag_374\n        /* \"@openzeppelin/contracts/proxy/ERC1967/ERC1967Utils.sol\":2489:2542  Address.functionDelegateCall(newImplementation, data) */\n      jump\t// in\n    tag_373:\n      pop\n        /* \"@openzeppelin/contracts/proxy/ERC1967/ERC1967Utils.sol\":2454:2602  if (data.length > 0) {... */\n      jump(tag_375)\n    tag_372:\n        /* \"@openzeppelin/contracts/proxy/ERC1967/ERC1967Utils.sol\":2573:2591  _checkNonPayable() */\n      tag_376\n        /* \"@openzeppelin/contracts/proxy/ERC1967/ERC1967Utils.sol\":2573:2589  _checkNonPayable */\n      tag_377\n        /* \"@openzeppelin/contracts/proxy/ERC1967/ERC1967Utils.sol\":2573:2591  _checkNonPayable() */\n      jump\t// in\n    tag_376:\n        /* \"@openzeppelin/contracts/proxy/ERC1967/ERC1967Utils.sol\":2454:2602  if (data.length > 0) {... */\n    tag_375:\n        /* \"@openzeppelin/contracts/proxy/ERC1967/ERC1967Utils.sol\":2264:2608  function upgradeToAndCall(address newImplementation, bytes memory data) internal {... */\n      pop\n      pop\n      jump\t// out\n        /* \"@openzeppelin/contracts-upgradeable/proxy/utils/Initializable.sol\":8819:8941  function _initializableStorageSlot() internal pure virtual returns (bytes32) {... */\n    tag_331:\n        /* \"@openzeppelin/contracts-upgradeable/proxy/utils/Initializable.sol\":8887:8894  bytes32 */\n      0x00\n        /* \"@openzeppelin/contracts-upgradeable/proxy/utils/Initializable.sol\":3147:3213  0xf0c57e16840df040f15088dc2f81fe391c3923bec73e23a9662efc9c229c6a00 */\n      0xf0c57e16840df040f15088dc2f81fe391c3923bec73e23a9662efc9c229c6a00\n        /* \"@openzeppelin/contracts-upgradeable/proxy/utils/Initializable.sol\":8913:8934  INITIALIZABLE_STORAGE */\n      0x00\n      shl\n        /* \"@openzeppelin/contracts-upgradeable/proxy/utils/Initializable.sol\":8906:8934  return INITIALIZABLE_STORAGE */\n      swap1\n      pop\n        /* \"@openzeppelin/contracts-upgradeable/proxy/utils/Initializable.sol\":8819:8941  function _initializableStorageSlot() internal pure virtual returns (bytes32) {... */\n      swap1\n      jump\t// out\n        /* \"@openzeppelin/contracts-upgradeable/proxy/utils/Initializable.sol\":7082:7223  function _checkInitializing() internal view virtual {... */\n    tag_334:\n        /* \"@openzeppelin/contracts-upgradeable/proxy/utils/Initializable.sol\":7149:7166  _isInitializing() */\n      tag_380\n        /* \"@openzeppelin/contracts-upgradeable/proxy/utils/Initializable.sol\":7149:7164  _isInitializing */\n      tag_381\n        /* \"@openzeppelin/contracts-upgradeable/proxy/utils/Initializable.sol\":7149:7166  _isInitializing() */\n      jump\t// in\n    tag_380:\n        /* \"@openzeppelin/contracts-upgradeable/proxy/utils/Initializable.sol\":7144:7217  if (!_isInitializing()) {... */\n      tag_382\n      jumpi\n        /* \"@openzeppelin/contracts-upgradeable/proxy/utils/Initializable.sol\":7189:7206  NotInitializing() */\n      mload(0x40)\n      0xd7e6bcf800000000000000000000000000000000000000000000000000000000\n      dup2\n      mstore\n      0x04\n      add\n      mload(0x40)\n      dup1\n      swap2\n      sub\n      swap1\n      revert\n        /* \"@openzeppelin/contracts-upgradeable/proxy/utils/Initializable.sol\":7144:7217  if (!_isInitializing()) {... */\n    tag_382:\n        /* \"@openzeppelin/contracts-upgradeable/proxy/utils/Initializable.sol\":7082:7223  function _checkInitializing() internal view virtual {... */\n      jump\t// out\n        /* \"@openzeppelin/contracts-upgradeable/access/OwnableUpgradeable.sol\":1980:2215  function __Ownable_init_unchained(address initialOwner) internal onlyInitializing {... */\n    tag_337:\n        /* \"@openzeppelin/contracts-upgradeable/proxy/utils/Initializable.sol\":6929:6949  _checkInitializing() */\n      tag_384\n        /* \"@openzeppelin/contracts-upgradeable/proxy/utils/Initializable.sol\":6929:6947  _checkInitializing */\n      tag_334\n        /* \"@openzeppelin/contracts-upgradeable/proxy/utils/Initializable.sol\":6929:6949  _checkInitializing() */\n      jump\t// in\n    tag_384:\n        /* \"@openzeppelin/contracts-upgradeable/access/OwnableUpgradeable.sol\":2100:2101  0 */\n      0x00\n        /* \"@openzeppelin/contracts-upgradeable/access/OwnableUpgradeable.sol\":2076:2102  initialOwner == address(0) */\n      0xffffffffffffffffffffffffffffffffffffffff\n      and\n        /* \"@openzeppelin/contracts-upgradeable/access/OwnableUpgradeable.sol\":2076:2088  initialOwner */\n      dup2\n        /* \"@openzeppelin/contracts-upgradeable/access/OwnableUpgradeable.sol\":2076:2102  initialOwner == address(0) */\n      0xffffffffffffffffffffffffffffffffffffffff\n      and\n      sub\n        /* \"@openzeppelin/contracts-upgradeable/access/OwnableUpgradeable.sol\":2072:2167  if (initialOwner == address(0)) {... */\n      tag_386\n      jumpi\n        /* \"@openzeppelin/contracts-upgradeable/access/OwnableUpgradeable.sol\":2153:2154  0 */\n      0x00\n        /* \"@openzeppelin/contracts-upgradeable/access/OwnableUpgradeable.sol\":2125:2156  OwnableInvalidOwner(address(0)) */\n      mload(0x40)\n      0x1e4fbdf700000000000000000000000000000000000000000000000000000000\n      dup2\n      mstore\n      0x04\n      add\n      tag_387\n      swap2\n      swap1\n      tag_74\n      jump\t// in\n    tag_387:\n      mload(0x40)\n      dup1\n      swap2\n      sub\n      swap1\n      revert\n        /* \"@openzeppelin/contracts-upgradeable/access/OwnableUpgradeable.sol\":2072:2167  if (initialOwner == address(0)) {... */\n    tag_386:\n        /* \"@openzeppelin/contracts-upgradeable/access/OwnableUpgradeable.sol\":2176:2208  _transferOwnership(initialOwner) */\n      tag_388\n        /* \"@openzeppelin/contracts-upgradeable/access/OwnableUpgradeable.sol\":2195:2207  initialOwner */\n      dup2\n        /* \"@openzeppelin/contracts-upgradeable/access/OwnableUpgradeable.sol\":2176:2194  _transferOwnership */\n      tag_186\n        /* \"@openzeppelin/contracts-upgradeable/access/OwnableUpgradeable.sol\":2176:2208  _transferOwnership(initialOwner) */\n      jump\t// in\n    tag_388:\n        /* \"@openzeppelin/contracts-upgradeable/access/OwnableUpgradeable.sol\":1980:2215  function __Ownable_init_unchained(address initialOwner) internal onlyInitializing {... */\n      pop\n      jump\t// out\n        /* \"@openzeppelin/contracts-upgradeable/security/ReentrancyGuardUpgradeable.sol\":2006:2115  function __ReentrancyGuard_init_unchained() internal onlyInitializing {... */\n    tag_342:\n        /* \"@openzeppelin/contracts-upgradeable/proxy/utils/Initializable.sol\":6929:6949  _checkInitializing() */\n      tag_390\n        /* \"@openzeppelin/contracts-upgradeable/proxy/utils/Initializable.sol\":6929:6947  _checkInitializing */\n      tag_334\n        /* \"@openzeppelin/contracts-upgradeable/proxy/utils/Initializable.sol\":6929:6949  _checkInitializing() */\n      jump\t// in\n    tag_390:\n        /* \"@openzeppelin/contracts-upgradeable/security/ReentrancyGuardUpgradeable.sol\":1808:1809  1 */\n      0x01\n        /* \"@openzeppelin/contracts-upgradeable/security/ReentrancyGuardUpgradeable.sol\":2086:2093  _status */\n      0x00\n        /* \"@openzeppelin/contracts-upgradeable/security/ReentrancyGuardUpgradeable.sol\":2086:2108  _status = _NOT_ENTERED */\n      dup2\n      swap1\n      sstore\n      pop\n        /* \"@openzeppelin/contracts-upgradeable/security/ReentrancyGuardUpgradeable.sol\":2006:2115  function __ReentrancyGuard_init_unchained() internal onlyInitializing {... */\n      jump\t// out\n        /* \"@openzeppelin/contracts-upgradeable/security/PausableUpgradeable.sol\":1187:1282  function __Pausable_init_unchained() internal onlyInitializing {... */\n    tag_347:\n        /* \"@openzeppelin/contracts-upgradeable/proxy/utils/Initializable.sol\":6929:6949  _checkInitializing() */\n      tag_393\n        /* \"@openzeppelin/contracts-upgradeable/proxy/utils/Initializable.sol\":6929:6947  _checkInitializing */\n      tag_334\n        /* \"@openzeppelin/contracts-upgradeable/proxy/utils/Initializable.sol\":6929:6949  _checkInitializing() */\n      jump\t// in\n    tag_393:\n        /* \"@openzeppelin/contracts-upgradeable/security/PausableUpgradeable.sol\":1270:1275  false */\n      0x00\n        /* \"@openzeppelin/contracts-upgradeable/security/PausableUpgradeable.sol\":1260:1267  _paused */\n      0x32\n      0x00\n        /* \"@openzeppelin/contracts-upgradeable/security/PausableUpgradeable.sol\":1260:1275  _paused = false */\n      0x0100\n      exp\n      dup2\n      sload\n      dup2\n      0xff\n      mul\n      not\n      and\n      swap1\n      dup4\n      iszero\n      iszero\n      mul\n      or\n      swap1\n      sstore\n      pop\n        /* \"@openzeppelin/contracts-upgradeable/security/PausableUpgradeable.sol\":1187:1282  function __Pausable_init_unchained() internal onlyInitializing {... */\n      jump\t// out\n        /* \"@openzeppelin/contracts-upgradeable/utils/AddressUpgradeable.sol\":4119:4342  function functionCall(... */\n    tag_353:\n        /* \"@openzeppelin/contracts-upgradeable/utils/AddressUpgradeable.sol\":4252:4264  bytes memory */\n      0x60\n        /* \"@openzeppelin/contracts-upgradeable/utils/AddressUpgradeable.sol\":4283:4335  functionCallWithValue(target, data, 0, errorMessage) */\n      tag_396\n        /* \"@openzeppelin/contracts-upgradeable/utils/AddressUpgradeable.sol\":4305:4311  target */\n      dup5\n        /* \"@openzeppelin/contracts-upgradeable/utils/AddressUpgradeable.sol\":4313:4317  data */\n      dup5\n        /* \"@openzeppelin/contracts-upgradeable/utils/AddressUpgradeable.sol\":4319:4320  0 */\n      0x00\n        /* \"@openzeppelin/contracts-upgradeable/utils/AddressUpgradeable.sol\":4322:4334  errorMessage */\n      dup6\n        /* \"@openzeppelin/contracts-upgradeable/utils/AddressUpgradeable.sol\":4283:4304  functionCallWithValue */\n      tag_397\n        /* \"@openzeppelin/contracts-upgradeable/utils/AddressUpgradeable.sol\":4283:4335  functionCallWithValue(target, data, 0, errorMessage) */\n      jump\t// in\n    tag_396:\n        /* \"@openzeppelin/contracts-upgradeable/utils/AddressUpgradeable.sol\":4276:4335  return functionCallWithValue(target, data, 0, errorMessage) */\n      swap1\n      pop\n        /* \"@openzeppelin/contracts-upgradeable/utils/AddressUpgradeable.sol\":4119:4342  function functionCall(... */\n      swap4\n      swap3\n      pop\n      pop\n      pop\n      jump\t// out\n        /* \"@openzeppelin/contracts/utils/StorageSlot.sol\":1899:2062  function getAddressSlot(bytes32 slot) internal pure returns (AddressSlot storage r) {... */\n    tag_368:\n        /* \"@openzeppelin/contracts/utils/StorageSlot.sol\":1960:1981  AddressSlot storage r */\n      0x00\n        /* \"@openzeppelin/contracts/utils/StorageSlot.sol\":2042:2046  slot */\n      dup2\n        /* \"@openzeppelin/contracts/utils/StorageSlot.sol\":2032:2046  r.slot := slot */\n      swap1\n      pop\n        /* \"@openzeppelin/contracts/utils/StorageSlot.sol\":1899:2062  function getAddressSlot(bytes32 slot) internal pure returns (AddressSlot storage r) {... */\n      swap2\n      swap1\n      pop\n      jump\t// out\n        /* \"@openzeppelin/contracts/proxy/ERC1967/ERC1967Utils.sol\":1671:1952  function _setImplementation(address newImplementation) private {... */\n    tag_371:\n        /* \"@openzeppelin/contracts/proxy/ERC1967/ERC1967Utils.sol\":1781:1782  0 */\n      0x00\n        /* \"@openzeppelin/contracts/proxy/ERC1967/ERC1967Utils.sol\":1748:1765  newImplementation */\n      dup2\n        /* \"@openzeppelin/contracts/proxy/ERC1967/ERC1967Utils.sol\":1748:1777  newImplementation.code.length */\n      0xffffffffffffffffffffffffffffffffffffffff\n      and\n      extcodesize\n        /* \"@openzeppelin/contracts/proxy/ERC1967/ERC1967Utils.sol\":1748:1782  newImplementation.code.length == 0 */\n      sub\n        /* \"@openzeppelin/contracts/proxy/ERC1967/ERC1967Utils.sol\":1744:1863  if (newImplementation.code.length == 0) {... */\n      tag_400\n      jumpi\n        /* \"@openzeppelin/contracts/proxy/ERC1967/ERC1967Utils.sol\":1834:1851  newImplementation */\n      dup1\n        /* \"@openzeppelin/contracts/proxy/ERC1967/ERC1967Utils.sol\":1805:1852  ERC1967InvalidImplementation(newImplementation) */\n      mload(0x40)\n      0x4c9c8ce300000000000000000000000000000000000000000000000000000000\n      dup2\n      mstore\n      0x04\n      add\n      tag_401\n      swap2\n      swap1\n      tag_74\n      jump\t// in\n    tag_401:\n      mload(0x40)\n      dup1\n      swap2\n      sub\n      swap1\n      revert\n        /* \"@openzeppelin/contracts/proxy/ERC1967/ERC1967Utils.sol\":1744:1863  if (newImplementation.code.length == 0) {... */\n    tag_400:\n        /* \"@openzeppelin/contracts/proxy/ERC1967/ERC1967Utils.sol\":1928:1945  newImplementation */\n      dup1\n        /* \"@openzeppelin/contracts/proxy/ERC1967/ERC1967Utils.sol\":1872:1919  StorageSlot.getAddressSlot(IMPLEMENTATION_SLOT) */\n      tag_402\n        /* \"@openzeppelin/contracts/proxy/ERC1967/ERC1967Utils.sol\":811:877  0x360894a13ba1a3210667c828492db98dca3e2076cc3735a920a3ca505d382bbc */\n      0x360894a13ba1a3210667c828492db98dca3e2076cc3735a920a3ca505d382bbc\n        /* \"@openzeppelin/contracts/proxy/ERC1967/ERC1967Utils.sol\":1899:1918  IMPLEMENTATION_SLOT */\n      0x00\n      shl\n        /* \"@openzeppelin/contracts/proxy/ERC1967/ERC1967Utils.sol\":1872:1898  StorageSlot.getAddressSlot */\n      tag_368\n        /* \"@openzeppelin/contracts/proxy/ERC1967/ERC1967Utils.sol\":1872:1919  StorageSlot.getAddressSlot(IMPLEMENTATION_SLOT) */\n      jump\t// in\n    tag_402:\n        /* \"@openzeppelin/contracts/proxy/ERC1967/ERC1967Utils.sol\":1872:1925  StorageSlot.getAddressSlot(IMPLEMENTATION_SLOT).value */\n      0x00\n      add\n      0x00\n        /* \"@openzeppelin/contracts/proxy/ERC1967/ERC1967Utils.sol\":1872:1945  StorageSlot.getAddressSlot(IMPLEMENTATION_SLOT).value = newImplementation */\n      0x0100\n      exp\n      dup2\n      sload\n      dup2\n      0xffffffffffffffffffffffffffffffffffffffff\n      mul\n      not\n      and\n      swap1\n      dup4\n      0xffffffffffffffffffffffffffffffffffffffff\n      and\n      mul\n      or\n      swap1\n      sstore\n      pop\n        /* \"@openzeppelin/contracts/proxy/ERC1967/ERC1967Utils.sol\":1671:1952  function _setImplementation(address newImplementation) private {... */\n      pop\n      jump\t// out\n        /* \"@openzeppelin/contracts/utils/Address.sol\":3916:4169  function functionDelegateCall(address target, bytes memory data) internal returns (bytes memory) {... */\n    tag_374:\n        /* \"@openzeppelin/contracts/utils/Address.sol\":3999:4011  bytes memory */\n      0x60\n        /* \"@openzeppelin/contracts/utils/Address.sol\":4024:4036  bool success */\n      0x00\n        /* \"@openzeppelin/contracts/utils/Address.sol\":4038:4061  bytes memory returndata */\n      0x00\n        /* \"@openzeppelin/contracts/utils/Address.sol\":4065:4071  target */\n      dup5\n        /* \"@openzeppelin/contracts/utils/Address.sol\":4065:4084  target.delegatecall */\n      0xffffffffffffffffffffffffffffffffffffffff\n      and\n        /* \"@openzeppelin/contracts/utils/Address.sol\":4085:4089  data */\n      dup5\n        /* \"@openzeppelin/contracts/utils/Address.sol\":4065:4090  target.delegatecall(data) */\n      mload(0x40)\n      tag_404\n      swap2\n      swap1\n      tag_405\n      jump\t// in\n    tag_404:\n      0x00\n      mload(0x40)\n      dup1\n      dup4\n      sub\n      dup2\n      dup6\n      gas\n      delegatecall\n      swap2\n      pop\n      pop\n      returndatasize\n      dup1\n      0x00\n      dup2\n      eq\n      tag_408\n      jumpi\n      mload(0x40)\n      swap2\n      pop\n      and(add(returndatasize, 0x3f), not(0x1f))\n      dup3\n      add\n      0x40\n      mstore\n      returndatasize\n      dup3\n      mstore\n      returndatasize\n      0x00\n      0x20\n      dup5\n      add\n      returndatacopy\n      jump(tag_407)\n    tag_408:\n      0x60\n      swap2\n      pop\n    tag_407:\n      pop\n        /* \"@openzeppelin/contracts/utils/Address.sol\":4023:4090  (bool success, bytes memory returndata) = target.delegatecall(data) */\n      swap2\n      pop\n      swap2\n      pop\n        /* \"@openzeppelin/contracts/utils/Address.sol\":4107:4162  verifyCallResultFromTarget(target, success, returndata) */\n      tag_409\n        /* \"@openzeppelin/contracts/utils/Address.sol\":4134:4140  target */\n      dup6\n        /* \"@openzeppelin/contracts/utils/Address.sol\":4142:4149  success */\n      dup4\n        /* \"@openzeppelin/contracts/utils/Address.sol\":4151:4161  returndata */\n      dup4\n        /* \"@openzeppelin/contracts/utils/Address.sol\":4107:4133  verifyCallResultFromTarget */\n      tag_410\n        /* \"@openzeppelin/contracts/utils/Address.sol\":4107:4162  verifyCallResultFromTarget(target, success, returndata) */\n      jump\t// in\n    tag_409:\n        /* \"@openzeppelin/contracts/utils/Address.sol\":4100:4162  return verifyCallResultFromTarget(target, success, returndata) */\n      swap3\n      pop\n      pop\n      pop\n        /* \"@openzeppelin/contracts/utils/Address.sol\":3916:4169  function functionDelegateCall(address target, bytes memory data) internal returns (bytes memory) {... */\n      swap3\n      swap2\n      pop\n      pop\n      jump\t// out\n        /* \"@openzeppelin/contracts/proxy/ERC1967/ERC1967Utils.sol\":6113:6235  function _checkNonPayable() private {... */\n    tag_377:\n        /* \"@openzeppelin/contracts/proxy/ERC1967/ERC1967Utils.sol\":6175:6176  0 */\n      0x00\n        /* \"@openzeppelin/contracts/proxy/ERC1967/ERC1967Utils.sol\":6163:6172  msg.value */\n      callvalue\n        /* \"@openzeppelin/contracts/proxy/ERC1967/ERC1967Utils.sol\":6163:6176  msg.value > 0 */\n      gt\n        /* \"@openzeppelin/contracts/proxy/ERC1967/ERC1967Utils.sol\":6159:6229  if (msg.value > 0) {... */\n      iszero\n      tag_412\n      jumpi\n        /* \"@openzeppelin/contracts/proxy/ERC1967/ERC1967Utils.sol\":6199:6218  ERC1967NonPayable() */\n      mload(0x40)\n      0xb398979f00000000000000000000000000000000000000000000000000000000\n      dup2\n      mstore\n      0x04\n      add\n      mload(0x40)\n      dup1\n      swap2\n      sub\n      swap1\n      revert\n        /* \"@openzeppelin/contracts/proxy/ERC1967/ERC1967Utils.sol\":6159:6229  if (msg.value > 0) {... */\n    tag_412:\n        /* \"@openzeppelin/contracts/proxy/ERC1967/ERC1967Utils.sol\":6113:6235  function _checkNonPayable() private {... */\n      jump\t// out\n        /* \"@openzeppelin/contracts-upgradeable/proxy/utils/Initializable.sol\":8485:8605  function _isInitializing() internal view returns (bool) {... */\n    tag_381:\n        /* \"@openzeppelin/contracts-upgradeable/proxy/utils/Initializable.sol\":8535:8539  bool */\n      0x00\n        /* \"@openzeppelin/contracts-upgradeable/proxy/utils/Initializable.sol\":8558:8584  _getInitializableStorage() */\n      tag_414\n        /* \"@openzeppelin/contracts-upgradeable/proxy/utils/Initializable.sol\":8558:8582  _getInitializableStorage */\n      tag_241\n        /* \"@openzeppelin/contracts-upgradeable/proxy/utils/Initializable.sol\":8558:8584  _getInitializableStorage() */\n      jump\t// in\n    tag_414:\n        /* \"@openzeppelin/contracts-upgradeable/proxy/utils/Initializable.sol\":8558:8598  _getInitializableStorage()._initializing */\n      0x00\n      add\n      0x08\n      swap1\n      sload\n      swap1\n      0x0100\n      exp\n      swap1\n      div\n      0xff\n      and\n        /* \"@openzeppelin/contracts-upgradeable/proxy/utils/Initializable.sol\":8551:8598  return _getInitializableStorage()._initializing */\n      swap1\n      pop\n        /* \"@openzeppelin/contracts-upgradeable/proxy/utils/Initializable.sol\":8485:8605  function _isInitializing() internal view returns (bool) {... */\n      swap1\n      jump\t// out\n        /* \"@openzeppelin/contracts-upgradeable/utils/AddressUpgradeable.sol\":5176:5622  function functionCallWithValue(... */\n    tag_397:\n        /* \"@openzeppelin/contracts-upgradeable/utils/AddressUpgradeable.sol\":5341:5353  bytes memory */\n      0x60\n        /* \"@openzeppelin/contracts-upgradeable/utils/AddressUpgradeable.sol\":5398:5403  value */\n      dup3\n        /* \"@openzeppelin/contracts-upgradeable/utils/AddressUpgradeable.sol\":5373:5394  address(this).balance */\n      selfbalance\n        /* \"@openzeppelin/contracts-upgradeable/utils/AddressUpgradeable.sol\":5373:5403  address(this).balance >= value */\n      lt\n      iszero\n        /* \"@openzeppelin/contracts-upgradeable/utils/AddressUpgradeable.sol\":5365:5446  require(address(this).balance >= value, \"Address: insufficient balance for call\") */\n      tag_416\n      jumpi\n      mload(0x40)\n      0x08c379a000000000000000000000000000000000000000000000000000000000\n      dup2\n      mstore\n      0x04\n      add\n      tag_417\n      swap1\n      tag_418\n      jump\t// in\n    tag_417:\n      mload(0x40)\n      dup1\n      swap2\n      sub\n      swap1\n      revert\n    tag_416:\n        /* \"@openzeppelin/contracts-upgradeable/utils/AddressUpgradeable.sol\":5457:5469  bool success */\n      0x00\n        /* \"@openzeppelin/contracts-upgradeable/utils/AddressUpgradeable.sol\":5471:5494  bytes memory returndata */\n      0x00\n        /* \"@openzeppelin/contracts-upgradeable/utils/AddressUpgradeable.sol\":5498:5504  target */\n      dup7\n        /* \"@openzeppelin/contracts-upgradeable/utils/AddressUpgradeable.sol\":5498:5509  target.call */\n      0xffffffffffffffffffffffffffffffffffffffff\n      and\n        /* \"@openzeppelin/contracts-upgradeable/utils/AddressUpgradeable.sol\":5517:5522  value */\n      dup6\n        /* \"@openzeppelin/contracts-upgradeable/utils/AddressUpgradeable.sol\":5524:5528  data */\n      dup8\n        /* \"@openzeppelin/contracts-upgradeable/utils/AddressUpgradeable.sol\":5498:5529  target.call{value: value}(data) */\n      mload(0x40)\n      tag_419\n      swap2\n      swap1\n      tag_405\n      jump\t// in\n    tag_419:\n      0x00\n      mload(0x40)\n      dup1\n      dup4\n      sub\n      dup2\n      dup6\n      dup8\n      gas\n      call\n      swap3\n      pop\n      pop\n      pop\n      returndatasize\n      dup1\n      0x00\n      dup2\n      eq\n      tag_422\n      jumpi\n      mload(0x40)\n      swap2\n      pop\n      and(add(returndatasize, 0x3f), not(0x1f))\n      dup3\n      add\n      0x40\n      mstore\n      returndatasize\n      dup3\n      mstore\n      returndatasize\n      0x00\n      0x20\n      dup5\n      add\n      returndatacopy\n      jump(tag_421)\n    tag_422:\n      0x60\n      swap2\n      pop\n    tag_421:\n      pop\n        /* \"@openzeppelin/contracts-upgradeable/utils/AddressUpgradeable.sol\":5456:5529  (bool success, bytes memory returndata) = target.call{value: value}(data) */\n      swap2\n      pop\n      swap2\n      pop\n        /* \"@openzeppelin/contracts-upgradeable/utils/AddressUpgradeable.sol\":5546:5615  verifyCallResultFromTarget(target, success, returndata, errorMessage) */\n      tag_423\n        /* \"@openzeppelin/contracts-upgradeable/utils/AddressUpgradeable.sol\":5573:5579  target */\n      dup8\n        /* \"@openzeppelin/contracts-upgradeable/utils/AddressUpgradeable.sol\":5581:5588  success */\n      dup4\n        /* \"@openzeppelin/contracts-upgradeable/utils/AddressUpgradeable.sol\":5590:5600  returndata */\n      dup4\n        /* \"@openzeppelin/contracts-upgradeable/utils/AddressUpgradeable.sol\":5602:5614  errorMessage */\n      dup8\n        /* \"@openzeppelin/contracts-upgradeable/utils/AddressUpgradeable.sol\":5546:5572  verifyCallResultFromTarget */\n      tag_424\n        /* \"@openzeppelin/contracts-upgradeable/utils/AddressUpgradeable.sol\":5546:5615  verifyCallResultFromTarget(target, success, returndata, errorMessage) */\n      jump\t// in\n    tag_423:\n        /* \"@openzeppelin/contracts-upgradeable/utils/AddressUpgradeable.sol\":5539:5615  return verifyCallResultFromTarget(target, success, returndata, errorMessage) */\n      swap3\n      pop\n      pop\n      pop\n        /* \"@openzeppelin/contracts-upgradeable/utils/AddressUpgradeable.sol\":5176:5622  function functionCallWithValue(... */\n      swap5\n      swap4\n      pop\n      pop\n      pop\n      pop\n      jump\t// out\n        /* \"@openzeppelin/contracts/utils/Address.sol\":4437:5019  function verifyCallResultFromTarget(... */\n    tag_410:\n        /* \"@openzeppelin/contracts/utils/Address.sol\":4581:4593  bytes memory */\n      0x60\n        /* \"@openzeppelin/contracts/utils/Address.sol\":4610:4617  success */\n      dup3\n        /* \"@openzeppelin/contracts/utils/Address.sol\":4605:5013  if (!success) {... */\n      tag_426\n      jumpi\n        /* \"@openzeppelin/contracts/utils/Address.sol\":4633:4652  _revert(returndata) */\n      tag_427\n        /* \"@openzeppelin/contracts/utils/Address.sol\":4641:4651  returndata */\n      dup3\n        /* \"@openzeppelin/contracts/utils/Address.sol\":4633:4640  _revert */\n      tag_428\n        /* \"@openzeppelin/contracts/utils/Address.sol\":4633:4652  _revert(returndata) */\n      jump\t// in\n    tag_427:\n        /* \"@openzeppelin/contracts/utils/Address.sol\":4605:5013  if (!success) {... */\n      jump(tag_429)\n    tag_426:\n        /* \"@openzeppelin/contracts/utils/Address.sol\":4878:4879  0 */\n      0x00\n        /* \"@openzeppelin/contracts/utils/Address.sol\":4857:4867  returndata */\n      dup3\n        /* \"@openzeppelin/contracts/utils/Address.sol\":4857:4874  returndata.length */\n      mload\n        /* \"@openzeppelin/contracts/utils/Address.sol\":4857:4879  returndata.length == 0 */\n      eq\n        /* \"@openzeppelin/contracts/utils/Address.sol\":4857:4906  returndata.length == 0 && target.code.length == 0 */\n      dup1\n      iszero\n      tag_430\n      jumpi\n      pop\n        /* \"@openzeppelin/contracts/utils/Address.sol\":4905:4906  0 */\n      0x00\n        /* \"@openzeppelin/contracts/utils/Address.sol\":4883:4889  target */\n      dup5\n        /* \"@openzeppelin/contracts/utils/Address.sol\":4883:4901  target.code.length */\n      0xffffffffffffffffffffffffffffffffffffffff\n      and\n      extcodesize\n        /* \"@openzeppelin/contracts/utils/Address.sol\":4883:4906  target.code.length == 0 */\n      eq\n        /* \"@openzeppelin/contracts/utils/Address.sol\":4857:4906  returndata.length == 0 && target.code.length == 0 */\n    tag_430:\n        /* \"@openzeppelin/contracts/utils/Address.sol\":4853:4972  if (returndata.length == 0 && target.code.length == 0) {... */\n      iszero\n      tag_431\n      jumpi\n        /* \"@openzeppelin/contracts/utils/Address.sol\":4950:4956  target */\n      dup4\n        /* \"@openzeppelin/contracts/utils/Address.sol\":4933:4957  AddressEmptyCode(target) */\n      mload(0x40)\n      0x9996b31500000000000000000000000000000000000000000000000000000000\n      dup2\n      mstore\n      0x04\n      add\n      tag_432\n      swap2\n      swap1\n      tag_74\n      jump\t// in\n    tag_432:\n      mload(0x40)\n      dup1\n      swap2\n      sub\n      swap1\n      revert\n        /* \"@openzeppelin/contracts/utils/Address.sol\":4853:4972  if (returndata.length == 0 && target.code.length == 0) {... */\n    tag_431:\n        /* \"@openzeppelin/contracts/utils/Address.sol\":4992:5002  returndata */\n      dup2\n        /* \"@openzeppelin/contracts/utils/Address.sol\":4985:5002  return returndata */\n      swap1\n      pop\n      jump(tag_425)\n        /* \"@openzeppelin/contracts/utils/Address.sol\":4605:5013  if (!success) {... */\n    tag_429:\n        /* \"@openzeppelin/contracts/utils/Address.sol\":4437:5019  function verifyCallResultFromTarget(... */\n    tag_425:\n      swap4\n      swap3\n      pop\n      pop\n      pop\n      jump\t// out\n        /* \"@openzeppelin/contracts-upgradeable/utils/AddressUpgradeable.sol\":7682:8310  function verifyCallResultFromTarget(... */\n    tag_424:\n        /* \"@openzeppelin/contracts-upgradeable/utils/AddressUpgradeable.sol\":7862:7874  bytes memory */\n      0x60\n        /* \"@openzeppelin/contracts-upgradeable/utils/AddressUpgradeable.sol\":7890:7897  success */\n      dup4\n        /* \"@openzeppelin/contracts-upgradeable/utils/AddressUpgradeable.sol\":7886:8304  if (success) {... */\n      iszero\n      tag_434\n      jumpi\n        /* \"@openzeppelin/contracts-upgradeable/utils/AddressUpgradeable.sol\":7938:7939  0 */\n      0x00\n        /* \"@openzeppelin/contracts-upgradeable/utils/AddressUpgradeable.sol\":7917:7927  returndata */\n      dup4\n        /* \"@openzeppelin/contracts-upgradeable/utils/AddressUpgradeable.sol\":7917:7934  returndata.length */\n      mload\n        /* \"@openzeppelin/contracts-upgradeable/utils/AddressUpgradeable.sol\":7917:7939  returndata.length == 0 */\n      sub\n        /* \"@openzeppelin/contracts-upgradeable/utils/AddressUpgradeable.sol\":7913:8199  if (returndata.length == 0) {... */\n      tag_435\n      jumpi\n        /* \"@openzeppelin/contracts-upgradeable/utils/AddressUpgradeable.sol\":8132:8150  isContract(target) */\n      tag_436\n        /* \"@openzeppelin/contracts-upgradeable/utils/AddressUpgradeable.sol\":8143:8149  target */\n      dup6\n        /* \"@openzeppelin/contracts-upgradeable/utils/AddressUpgradeable.sol\":8132:8142  isContract */\n      tag_437\n        /* \"@openzeppelin/contracts-upgradeable/utils/AddressUpgradeable.sol\":8132:8150  isContract(target) */\n      jump\t// in\n    tag_436:\n        /* \"@openzeppelin/contracts-upgradeable/utils/AddressUpgradeable.sol\":8124:8184  require(isContract(target), \"Address: call to non-contract\") */\n      tag_438\n      jumpi\n      mload(0x40)\n      0x08c379a000000000000000000000000000000000000000000000000000000000\n      dup2\n      mstore\n      0x04\n      add\n      tag_439\n      swap1\n      tag_440\n      jump\t// in\n    tag_439:\n      mload(0x40)\n      dup1\n      swap2\n      sub\n      swap1\n      revert\n    tag_438:\n        /* \"@openzeppelin/contracts-upgradeable/utils/AddressUpgradeable.sol\":7913:8199  if (returndata.length == 0) {... */\n    tag_435:\n        /* \"@openzeppelin/contracts-upgradeable/utils/AddressUpgradeable.sol\":8219:8229  returndata */\n      dup3\n        /* \"@openzeppelin/contracts-upgradeable/utils/AddressUpgradeable.sol\":8212:8229  return returndata */\n      swap1\n      pop\n      jump(tag_433)\n        /* \"@openzeppelin/contracts-upgradeable/utils/AddressUpgradeable.sol\":7886:8304  if (success) {... */\n    tag_434:\n        /* \"@openzeppelin/contracts-upgradeable/utils/AddressUpgradeable.sol\":8260:8293  _revert(returndata, errorMessage) */\n      tag_442\n        /* \"@openzeppelin/contracts-upgradeable/utils/AddressUpgradeable.sol\":8268:8278  returndata */\n      dup4\n        /* \"@openzeppelin/contracts-upgradeable/utils/AddressUpgradeable.sol\":8280:8292  errorMessage */\n      dup4\n        /* \"@openzeppelin/contracts-upgradeable/utils/AddressUpgradeable.sol\":8260:8267  _revert */\n      tag_443\n        /* \"@openzeppelin/contracts-upgradeable/utils/AddressUpgradeable.sol\":8260:8293  _revert(returndata, errorMessage) */\n      jump\t// in\n    tag_442:\n        /* \"@openzeppelin/contracts-upgradeable/utils/AddressUpgradeable.sol\":7682:8310  function verifyCallResultFromTarget(... */\n    tag_433:\n      swap5\n      swap4\n      pop\n      pop\n      pop\n      pop\n      jump\t// out\n        /* \"@openzeppelin/contracts/utils/Address.sol\":5559:5993  function _revert(bytes memory returndata) private pure {... */\n    tag_428:\n        /* \"@openzeppelin/contracts/utils/Address.sol\":5710:5711  0 */\n      0x00\n        /* \"@openzeppelin/contracts/utils/Address.sol\":5690:5700  returndata */\n      dup2\n        /* \"@openzeppelin/contracts/utils/Address.sol\":5690:5707  returndata.length */\n      mload\n        /* \"@openzeppelin/contracts/utils/Address.sol\":5690:5711  returndata.length > 0 */\n      gt\n        /* \"@openzeppelin/contracts/utils/Address.sol\":5686:5987  if (returndata.length > 0) {... */\n      iszero\n      tag_445\n      jumpi\n        /* \"@openzeppelin/contracts/utils/Address.sol\":5894:5904  returndata */\n      dup1\n        /* \"@openzeppelin/contracts/utils/Address.sol\":5888:5905  mload(returndata) */\n      mload\n        /* \"@openzeppelin/contracts/utils/Address.sol\":5881:5885  0x20 */\n      0x20\n        /* \"@openzeppelin/contracts/utils/Address.sol\":5869:5879  returndata */\n      dup3\n        /* \"@openzeppelin/contracts/utils/Address.sol\":5865:5886  add(returndata, 0x20) */\n      add\n        /* \"@openzeppelin/contracts/utils/Address.sol\":5858:5906  revert(add(returndata, 0x20), mload(returndata)) */\n      revert\n        /* \"@openzeppelin/contracts/utils/Address.sol\":5686:5987  if (returndata.length > 0) {... */\n    tag_445:\n        /* \"@openzeppelin/contracts/utils/Address.sol\":5957:5976  Errors.FailedCall() */\n      mload(0x40)\n      0xd6bda27500000000000000000000000000000000000000000000000000000000\n      dup2\n      mstore\n      0x04\n      add\n      mload(0x40)\n      dup1\n      swap2\n      sub\n      swap1\n      revert\n        /* \"@openzeppelin/contracts-upgradeable/utils/AddressUpgradeable.sol\":1423:1743  function isContract(address account) internal view returns (bool) {... */\n    tag_437:\n        /* \"@openzeppelin/contracts-upgradeable/utils/AddressUpgradeable.sol\":1483:1487  bool */\n      0x00\n        /* \"@openzeppelin/contracts-upgradeable/utils/AddressUpgradeable.sol\":1735:1736  0 */\n      0x00\n        /* \"@openzeppelin/contracts-upgradeable/utils/AddressUpgradeable.sol\":1713:1720  account */\n      dup3\n        /* \"@openzeppelin/contracts-upgradeable/utils/AddressUpgradeable.sol\":1713:1732  account.code.length */\n      0xffffffffffffffffffffffffffffffffffffffff\n      and\n      extcodesize\n        /* \"@openzeppelin/contracts-upgradeable/utils/AddressUpgradeable.sol\":1713:1736  account.code.length > 0 */\n      gt\n        /* \"@openzeppelin/contracts-upgradeable/utils/AddressUpgradeable.sol\":1706:1736  return account.code.length > 0 */\n      swap1\n      pop\n        /* \"@openzeppelin/contracts-upgradeable/utils/AddressUpgradeable.sol\":1423:1743  function isContract(address account) internal view returns (bool) {... */\n      swap2\n      swap1\n      pop\n      jump\t// out\n        /* \"@openzeppelin/contracts-upgradeable/utils/AddressUpgradeable.sol\":8832:9372  function _revert(bytes memory returndata, string memory errorMessage) private pure {... */\n    tag_443:\n        /* \"@openzeppelin/contracts-upgradeable/utils/AddressUpgradeable.sol\":9011:9012  0 */\n      0x00\n        /* \"@openzeppelin/contracts-upgradeable/utils/AddressUpgradeable.sol\":8991:9001  returndata */\n      dup3\n        /* \"@openzeppelin/contracts-upgradeable/utils/AddressUpgradeable.sol\":8991:9008  returndata.length */\n      mload\n        /* \"@openzeppelin/contracts-upgradeable/utils/AddressUpgradeable.sol\":8991:9012  returndata.length > 0 */\n      gt\n        /* \"@openzeppelin/contracts-upgradeable/utils/AddressUpgradeable.sol\":8987:9366  if (returndata.length > 0) {... */\n      iszero\n      tag_449\n      jumpi\n        /* \"@openzeppelin/contracts-upgradeable/utils/AddressUpgradeable.sol\":9219:9229  returndata */\n      dup2\n        /* \"@openzeppelin/contracts-upgradeable/utils/AddressUpgradeable.sol\":9213:9230  mload(returndata) */\n      mload\n        /* \"@openzeppelin/contracts-upgradeable/utils/AddressUpgradeable.sol\":9275:9290  returndata_size */\n      dup1\n        /* \"@openzeppelin/contracts-upgradeable/utils/AddressUpgradeable.sol\":9262:9272  returndata */\n      dup4\n        /* \"@openzeppelin/contracts-upgradeable/utils/AddressUpgradeable.sol\":9258:9260  32 */\n      0x20\n        /* \"@openzeppelin/contracts-upgradeable/utils/AddressUpgradeable.sol\":9254:9273  add(32, returndata) */\n      add\n        /* \"@openzeppelin/contracts-upgradeable/utils/AddressUpgradeable.sol\":9247:9291  revert(add(32, returndata), returndata_size) */\n      revert\n        /* \"@openzeppelin/contracts-upgradeable/utils/AddressUpgradeable.sol\":8987:9366  if (returndata.length > 0) {... */\n    tag_449:\n        /* \"@openzeppelin/contracts-upgradeable/utils/AddressUpgradeable.sol\":9342:9354  errorMessage */\n      dup1\n        /* \"@openzeppelin/contracts-upgradeable/utils/AddressUpgradeable.sol\":9335:9355  revert(errorMessage) */\n      mload(0x40)\n      0x08c379a000000000000000000000000000000000000000000000000000000000\n      dup2\n      mstore\n      0x04\n      add\n      tag_451\n      swap2\n      swap1\n      tag_84\n      jump\t// in\n    tag_451:\n      mload(0x40)\n      dup1\n      swap2\n      sub\n      swap1\n      revert\n        /* \"#utility.yul\":7:82   */\n    tag_452:\n        /* \"#utility.yul\":40:46   */\n      0x00\n        /* \"#utility.yul\":73:75   */\n      0x40\n        /* \"#utility.yul\":67:76   */\n      mload\n        /* \"#utility.yul\":57:76   */\n      swap1\n      pop\n        /* \"#utility.yul\":7:82   */\n      swap1\n      jump\t// out\n        /* \"#utility.yul\":88:205   */\n    tag_453:\n        /* \"#utility.yul\":197:198   */\n      0x00\n        /* \"#utility.yul\":194:195   */\n      0x00\n        /* \"#utility.yul\":187:199   */\n      revert\n        /* \"#utility.yul\":211:328   */\n    tag_454:\n        /* \"#utility.yul\":320:321   */\n      0x00\n        /* \"#utility.yul\":317:318   */\n      0x00\n        /* \"#utility.yul\":310:322   */\n      revert\n        /* \"#utility.yul\":334:411   */\n    tag_455:\n        /* \"#utility.yul\":371:378   */\n      0x00\n        /* \"#utility.yul\":400:405   */\n      dup2\n        /* \"#utility.yul\":389:405   */\n      swap1\n      pop\n        /* \"#utility.yul\":334:411   */\n      swap2\n      swap1\n      pop\n      jump\t// out\n        /* \"#utility.yul\":417:539   */\n    tag_456:\n        /* \"#utility.yul\":490:514   */\n      tag_543\n        /* \"#utility.yul\":508:513   */\n      dup2\n        /* \"#utility.yul\":490:514   */\n      tag_455\n      jump\t// in\n    tag_543:\n        /* \"#utility.yul\":483:488   */\n      dup2\n        /* \"#utility.yul\":480:515   */\n      eq\n        /* \"#utility.yul\":470:533   */\n      tag_544\n      jumpi\n        /* \"#utility.yul\":529:530   */\n      0x00\n        /* \"#utility.yul\":526:527   */\n      0x00\n        /* \"#utility.yul\":519:531   */\n      revert\n        /* \"#utility.yul\":470:533   */\n    tag_544:\n        /* \"#utility.yul\":417:539   */\n      pop\n      jump\t// out\n        /* \"#utility.yul\":545:684   */\n    tag_457:\n        /* \"#utility.yul\":591:596   */\n      0x00\n        /* \"#utility.yul\":629:635   */\n      dup2\n        /* \"#utility.yul\":616:636   */\n      calldataload\n        /* \"#utility.yul\":607:636   */\n      swap1\n      pop\n        /* \"#utility.yul\":645:678   */\n      tag_546\n        /* \"#utility.yul\":672:677   */\n      dup2\n        /* \"#utility.yul\":645:678   */\n      tag_456\n      jump\t// in\n    tag_546:\n        /* \"#utility.yul\":545:684   */\n      swap3\n      swap2\n      pop\n      pop\n      jump\t// out\n        /* \"#utility.yul\":690:816   */\n    tag_458:\n        /* \"#utility.yul\":727:734   */\n      0x00\n        /* \"#utility.yul\":767:809   */\n      0xffffffffffffffffffffffffffffffffffffffff\n        /* \"#utility.yul\":760:765   */\n      dup3\n        /* \"#utility.yul\":756:810   */\n      and\n        /* \"#utility.yul\":745:810   */\n      swap1\n      pop\n        /* \"#utility.yul\":690:816   */\n      swap2\n      swap1\n      pop\n      jump\t// out\n        /* \"#utility.yul\":822:918   */\n    tag_459:\n        /* \"#utility.yul\":859:866   */\n      0x00\n        /* \"#utility.yul\":888:912   */\n      tag_549\n        /* \"#utility.yul\":906:911   */\n      dup3\n        /* \"#utility.yul\":888:912   */\n      tag_458\n      jump\t// in\n    tag_549:\n        /* \"#utility.yul\":877:912   */\n      swap1\n      pop\n        /* \"#utility.yul\":822:918   */\n      swap2\n      swap1\n      pop\n      jump\t// out\n        /* \"#utility.yul\":924:1046   */\n    tag_460:\n        /* \"#utility.yul\":997:1021   */\n      tag_551\n        /* \"#utility.yul\":1015:1020   */\n      dup2\n        /* \"#utility.yul\":997:1021   */\n      tag_459\n      jump\t// in\n    tag_551:\n        /* \"#utility.yul\":990:995   */\n      dup2\n        /* \"#utility.yul\":987:1022   */\n      eq\n        /* \"#utility.yul\":977:1040   */\n      tag_552\n      jumpi\n        /* \"#utility.yul\":1036:1037   */\n      0x00\n        /* \"#utility.yul\":1033:1034   */\n      0x00\n        /* \"#utility.yul\":1026:1038   */\n      revert\n        /* \"#utility.yul\":977:1040   */\n    tag_552:\n        /* \"#utility.yul\":924:1046   */\n      pop\n      jump\t// out\n        /* \"#utility.yul\":1052:1191   */\n    tag_461:\n        /* \"#utility.yul\":1098:1103   */\n      0x00\n        /* \"#utility.yul\":1136:1142   */\n      dup2\n        /* \"#utility.yul\":1123:1143   */\n      calldataload\n        /* \"#utility.yul\":1114:1143   */\n      swap1\n      pop\n        /* \"#utility.yul\":1152:1185   */\n      tag_554\n        /* \"#utility.yul\":1179:1184   */\n      dup2\n        /* \"#utility.yul\":1152:1185   */\n      tag_460\n      jump\t// in\n    tag_554:\n        /* \"#utility.yul\":1052:1191   */\n      swap3\n      swap2\n      pop\n      pop\n      jump\t// out\n        /* \"#utility.yul\":1197:1671   */\n    tag_28:\n        /* \"#utility.yul\":1265:1271   */\n      0x00\n        /* \"#utility.yul\":1273:1279   */\n      0x00\n        /* \"#utility.yul\":1322:1324   */\n      0x40\n        /* \"#utility.yul\":1310:1319   */\n      dup4\n        /* \"#utility.yul\":1301:1308   */\n      dup6\n        /* \"#utility.yul\":1297:1320   */\n      sub\n        /* \"#utility.yul\":1293:1325   */\n      slt\n        /* \"#utility.yul\":1290:1409   */\n      iszero\n      tag_556\n      jumpi\n        /* \"#utility.yul\":1328:1407   */\n      tag_557\n      tag_453\n      jump\t// in\n    tag_557:\n        /* \"#utility.yul\":1290:1409   */\n    tag_556:\n        /* \"#utility.yul\":1448:1449   */\n      0x00\n        /* \"#utility.yul\":1473:1526   */\n      tag_558\n        /* \"#utility.yul\":1518:1525   */\n      dup6\n        /* \"#utility.yul\":1509:1515   */\n      dup3\n        /* \"#utility.yul\":1498:1507   */\n      dup7\n        /* \"#utility.yul\":1494:1516   */\n      add\n        /* \"#utility.yul\":1473:1526   */\n      tag_457\n      jump\t// in\n    tag_558:\n        /* \"#utility.yul\":1463:1526   */\n      swap3\n      pop\n        /* \"#utility.yul\":1419:1536   */\n      pop\n        /* \"#utility.yul\":1575:1577   */\n      0x20\n        /* \"#utility.yul\":1601:1654   */\n      tag_559\n        /* \"#utility.yul\":1646:1653   */\n      dup6\n        /* \"#utility.yul\":1637:1643   */\n      dup3\n        /* \"#utility.yul\":1626:1635   */\n      dup7\n        /* \"#utility.yul\":1622:1644   */\n      add\n        /* \"#utility.yul\":1601:1654   */\n      tag_461\n      jump\t// in\n    tag_559:\n        /* \"#utility.yul\":1591:1654   */\n      swap2\n      pop\n        /* \"#utility.yul\":1546:1664   */\n      pop\n        /* \"#utility.yul\":1197:1671   */\n      swap3\n      pop\n      swap3\n      swap1\n      pop\n      jump\t// out\n        /* \"#utility.yul\":1677:1795   */\n    tag_462:\n        /* \"#utility.yul\":1764:1788   */\n      tag_561\n        /* \"#utility.yul\":1782:1787   */\n      dup2\n        /* \"#utility.yul\":1764:1788   */\n      tag_455\n      jump\t// in\n    tag_561:\n        /* \"#utility.yul\":1759:1762   */\n      dup3\n        /* \"#utility.yul\":1752:1789   */\n      mstore\n        /* \"#utility.yul\":1677:1795   */\n      pop\n      pop\n      jump\t// out\n        /* \"#utility.yul\":1801:2023   */\n    tag_31:\n        /* \"#utility.yul\":1894:1898   */\n      0x00\n        /* \"#utility.yul\":1932:1934   */\n      0x20\n        /* \"#utility.yul\":1921:1930   */\n      dup3\n        /* \"#utility.yul\":1917:1935   */\n      add\n        /* \"#utility.yul\":1909:1935   */\n      swap1\n      pop\n        /* \"#utility.yul\":1945:2016   */\n      tag_563\n        /* \"#utility.yul\":2013:2014   */\n      0x00\n        /* \"#utility.yul\":2002:2011   */\n      dup4\n        /* \"#utility.yul\":1998:2015   */\n      add\n        /* \"#utility.yul\":1989:1995   */\n      dup5\n        /* \"#utility.yul\":1945:2016   */\n      tag_462\n      jump\t// in\n    tag_563:\n        /* \"#utility.yul\":1801:2023   */\n      swap3\n      swap2\n      pop\n      pop\n      jump\t// out\n        /* \"#utility.yul\":2029:2119   */\n    tag_463:\n        /* \"#utility.yul\":2063:2070   */\n      0x00\n        /* \"#utility.yul\":2106:2111   */\n      dup2\n        /* \"#utility.yul\":2099:2112   */\n      iszero\n        /* \"#utility.yul\":2092:2113   */\n      iszero\n        /* \"#utility.yul\":2081:2113   */\n      swap1\n      pop\n        /* \"#utility.yul\":2029:2119   */\n      swap2\n      swap1\n      pop\n      jump\t// out\n        /* \"#utility.yul\":2125:2241   */\n    tag_464:\n        /* \"#utility.yul\":2195:2216   */\n      tag_566\n        /* \"#utility.yul\":2210:2215   */\n      dup2\n        /* \"#utility.yul\":2195:2216   */\n      tag_463\n      jump\t// in\n    tag_566:\n        /* \"#utility.yul\":2188:2193   */\n      dup2\n        /* \"#utility.yul\":2185:2217   */\n      eq\n        /* \"#utility.yul\":2175:2235   */\n      tag_567\n      jumpi\n        /* \"#utility.yul\":2231:2232   */\n      0x00\n        /* \"#utility.yul\":2228:2229   */\n      0x00\n        /* \"#utility.yul\":2221:2233   */\n      revert\n        /* \"#utility.yul\":2175:2235   */\n    tag_567:\n        /* \"#utility.yul\":2125:2241   */\n      pop\n      jump\t// out\n        /* \"#utility.yul\":2247:2380   */\n    tag_465:\n        /* \"#utility.yul\":2290:2295   */\n      0x00\n        /* \"#utility.yul\":2328:2334   */\n      dup2\n        /* \"#utility.yul\":2315:2335   */\n      calldataload\n        /* \"#utility.yul\":2306:2335   */\n      swap1\n      pop\n        /* \"#utility.yul\":2344:2374   */\n      tag_569\n        /* \"#utility.yul\":2368:2373   */\n      dup2\n        /* \"#utility.yul\":2344:2374   */\n      tag_464\n      jump\t// in\n    tag_569:\n        /* \"#utility.yul\":2247:2380   */\n      swap3\n      swap2\n      pop\n      pop\n      jump\t// out\n        /* \"#utility.yul\":2386:2999   */\n    tag_35:\n        /* \"#utility.yul\":2460:2466   */\n      0x00\n        /* \"#utility.yul\":2468:2474   */\n      0x00\n        /* \"#utility.yul\":2476:2482   */\n      0x00\n        /* \"#utility.yul\":2525:2527   */\n      0x60\n        /* \"#utility.yul\":2513:2522   */\n      dup5\n        /* \"#utility.yul\":2504:2511   */\n      dup7\n        /* \"#utility.yul\":2500:2523   */\n      sub\n        /* \"#utility.yul\":2496:2528   */\n      slt\n        /* \"#utility.yul\":2493:2612   */\n      iszero\n      tag_571\n      jumpi\n        /* \"#utility.yul\":2531:2610   */\n      tag_572\n      tag_453\n      jump\t// in\n    tag_572:\n        /* \"#utility.yul\":2493:2612   */\n    tag_571:\n        /* \"#utility.yul\":2651:2652   */\n      0x00\n        /* \"#utility.yul\":2676:2729   */\n      tag_573\n        /* \"#utility.yul\":2721:2728   */\n      dup7\n        /* \"#utility.yul\":2712:2718   */\n      dup3\n        /* \"#utility.yul\":2701:2710   */\n      dup8\n        /* \"#utility.yul\":2697:2719   */\n      add\n        /* \"#utility.yul\":2676:2729   */\n      tag_457\n      jump\t// in\n    tag_573:\n        /* \"#utility.yul\":2666:2729   */\n      swap4\n      pop\n        /* \"#utility.yul\":2622:2739   */\n      pop\n        /* \"#utility.yul\":2778:2780   */\n      0x20\n        /* \"#utility.yul\":2804:2854   */\n      tag_574\n        /* \"#utility.yul\":2846:2853   */\n      dup7\n        /* \"#utility.yul\":2837:2843   */\n      dup3\n        /* \"#utility.yul\":2826:2835   */\n      dup8\n        /* \"#utility.yul\":2822:2844   */\n      add\n        /* \"#utility.yul\":2804:2854   */\n      tag_465\n      jump\t// in\n    tag_574:\n        /* \"#utility.yul\":2794:2854   */\n      swap3\n      pop\n        /* \"#utility.yul\":2749:2864   */\n      pop\n        /* \"#utility.yul\":2903:2905   */\n      0x40\n        /* \"#utility.yul\":2929:2982   */\n      tag_575\n        /* \"#utility.yul\":2974:2981   */\n      dup7\n        /* \"#utility.yul\":2965:2971   */\n      dup3\n        /* \"#utility.yul\":2954:2963   */\n      dup8\n        /* \"#utility.yul\":2950:2972   */\n      add\n        /* \"#utility.yul\":2929:2982   */\n      tag_457\n      jump\t// in\n    tag_575:\n        /* \"#utility.yul\":2919:2982   */\n      swap2\n      pop\n        /* \"#utility.yul\":2874:2992   */\n      pop\n        /* \"#utility.yul\":2386:2999   */\n      swap3\n      pop\n      swap3\n      pop\n      swap3\n      jump\t// out\n        /* \"#utility.yul\":3005:3122   */\n    tag_466:\n        /* \"#utility.yul\":3114:3115   */\n      0x00\n        /* \"#utility.yul\":3111:3112   */\n      0x00\n        /* \"#utility.yul\":3104:3116   */\n      revert\n        /* \"#utility.yul\":3128:3245   */\n    tag_467:\n        /* \"#utility.yul\":3237:3238   */\n      0x00\n        /* \"#utility.yul\":3234:3235   */\n      0x00\n        /* \"#utility.yul\":3227:3239   */\n      revert\n        /* \"#utility.yul\":3251:3353   */\n    tag_468:\n        /* \"#utility.yul\":3292:3298   */\n      0x00\n        /* \"#utility.yul\":3343:3345   */\n      0x1f\n        /* \"#utility.yul\":3339:3346   */\n      not\n        /* \"#utility.yul\":3334:3336   */\n      0x1f\n        /* \"#utility.yul\":3327:3332   */\n      dup4\n        /* \"#utility.yul\":3323:3337   */\n      add\n        /* \"#utility.yul\":3319:3347   */\n      and\n        /* \"#utility.yul\":3309:3347   */\n      swap1\n      pop\n        /* \"#utility.yul\":3251:3353   */\n      swap2\n      swap1\n      pop\n      jump\t// out\n        /* \"#utility.yul\":3359:3539   */\n    tag_469:\n        /* \"#utility.yul\":3407:3484   */\n      0x4e487b7100000000000000000000000000000000000000000000000000000000\n        /* \"#utility.yul\":3404:3405   */\n      0x00\n        /* \"#utility.yul\":3397:3485   */\n      mstore\n        /* \"#utility.yul\":3504:3508   */\n      0x41\n        /* \"#utility.yul\":3501:3502   */\n      0x04\n        /* \"#utility.yul\":3494:3509   */\n      mstore\n        /* \"#utility.yul\":3528:3532   */\n      0x24\n        /* \"#utility.yul\":3525:3526   */\n      0x00\n        /* \"#utility.yul\":3518:3533   */\n      revert\n        /* \"#utility.yul\":3545:3826   */\n    tag_470:\n        /* \"#utility.yul\":3628:3655   */\n      tag_581\n        /* \"#utility.yul\":3650:3654   */\n      dup3\n        /* \"#utility.yul\":3628:3655   */\n      tag_468\n      jump\t// in\n    tag_581:\n        /* \"#utility.yul\":3620:3626   */\n      dup2\n        /* \"#utility.yul\":3616:3656   */\n      add\n        /* \"#utility.yul\":3758:3764   */\n      dup2\n        /* \"#utility.yul\":3746:3756   */\n      dup2\n        /* \"#utility.yul\":3743:3765   */\n      lt\n        /* \"#utility.yul\":3722:3740   */\n      0xffffffffffffffff\n        /* \"#utility.yul\":3710:3720   */\n      dup3\n        /* \"#utility.yul\":3707:3741   */\n      gt\n        /* \"#utility.yul\":3704:3766   */\n      or\n        /* \"#utility.yul\":3701:3789   */\n      iszero\n      tag_582\n      jumpi\n        /* \"#utility.yul\":3769:3787   */\n      tag_583\n      tag_469\n      jump\t// in\n    tag_583:\n        /* \"#utility.yul\":3701:3789   */\n    tag_582:\n        /* \"#utility.yul\":3809:3819   */\n      dup1\n        /* \"#utility.yul\":3805:3807   */\n      0x40\n        /* \"#utility.yul\":3798:3820   */\n      mstore\n        /* \"#utility.yul\":3588:3826   */\n      pop\n        /* \"#utility.yul\":3545:3826   */\n      pop\n      pop\n      jump\t// out\n        /* \"#utility.yul\":3832:3961   */\n    tag_471:\n        /* \"#utility.yul\":3866:3872   */\n      0x00\n        /* \"#utility.yul\":3893:3913   */\n      tag_585\n      tag_452\n      jump\t// in\n    tag_585:\n        /* \"#utility.yul\":3883:3913   */\n      swap1\n      pop\n        /* \"#utility.yul\":3922:3955   */\n      tag_586\n        /* \"#utility.yul\":3950:3954   */\n      dup3\n        /* \"#utility.yul\":3942:3948   */\n      dup3\n        /* \"#utility.yul\":3922:3955   */\n      tag_470\n      jump\t// in\n    tag_586:\n        /* \"#utility.yul\":3832:3961   */\n      swap2\n      swap1\n      pop\n      jump\t// out\n        /* \"#utility.yul\":3967:4274   */\n    tag_472:\n        /* \"#utility.yul\":4028:4032   */\n      0x00\n        /* \"#utility.yul\":4118:4136   */\n      0xffffffffffffffff\n        /* \"#utility.yul\":4110:4116   */\n      dup3\n        /* \"#utility.yul\":4107:4137   */\n      gt\n        /* \"#utility.yul\":4104:4160   */\n      iszero\n      tag_588\n      jumpi\n        /* \"#utility.yul\":4140:4158   */\n      tag_589\n      tag_469\n      jump\t// in\n    tag_589:\n        /* \"#utility.yul\":4104:4160   */\n    tag_588:\n        /* \"#utility.yul\":4178:4207   */\n      tag_590\n        /* \"#utility.yul\":4200:4206   */\n      dup3\n        /* \"#utility.yul\":4178:4207   */\n      tag_468\n      jump\t// in\n    tag_590:\n        /* \"#utility.yul\":4170:4207   */\n      swap1\n      pop\n        /* \"#utility.yul\":4262:4266   */\n      0x20\n        /* \"#utility.yul\":4256:4260   */\n      dup2\n        /* \"#utility.yul\":4252:4267   */\n      add\n        /* \"#utility.yul\":4244:4267   */\n      swap1\n      pop\n        /* \"#utility.yul\":3967:4274   */\n      swap2\n      swap1\n      pop\n      jump\t// out\n        /* \"#utility.yul\":4280:4428   */\n    tag_473:\n        /* \"#utility.yul\":4378:4384   */\n      dup3\n        /* \"#utility.yul\":4373:4376   */\n      dup2\n        /* \"#utility.yul\":4368:4371   */\n      dup4\n        /* \"#utility.yul\":4355:4385   */\n      calldatacopy\n        /* \"#utility.yul\":4419:4420   */\n      0x00\n        /* \"#utility.yul\":4410:4416   */\n      dup4\n        /* \"#utility.yul\":4405:4408   */\n      dup4\n        /* \"#utility.yul\":4401:4417   */\n      add\n        /* \"#utility.yul\":4394:4421   */\n      mstore\n        /* \"#utility.yul\":4280:4428   */\n      pop\n      pop\n      pop\n      jump\t// out\n        /* \"#utility.yul\":4434:4857   */\n    tag_474:\n        /* \"#utility.yul\":4511:4516   */\n      0x00\n        /* \"#utility.yul\":4536:4601   */\n      tag_593\n        /* \"#utility.yul\":4552:4600   */\n      tag_594\n        /* \"#utility.yul\":4593:4599   */\n      dup5\n        /* \"#utility.yul\":4552:4600   */\n      tag_472\n      jump\t// in\n    tag_594:\n        /* \"#utility.yul\":4536:4601   */\n      tag_471\n      jump\t// in\n    tag_593:\n        /* \"#utility.yul\":4527:4601   */\n      swap1\n      pop\n        /* \"#utility.yul\":4624:4630   */\n      dup3\n        /* \"#utility.yul\":4617:4622   */\n      dup2\n        /* \"#utility.yul\":4610:4631   */\n      mstore\n        /* \"#utility.yul\":4662:4666   */\n      0x20\n        /* \"#utility.yul\":4655:4660   */\n      dup2\n        /* \"#utility.yul\":4651:4667   */\n      add\n        /* \"#utility.yul\":4700:4703   */\n      dup5\n        /* \"#utility.yul\":4691:4697   */\n      dup5\n        /* \"#utility.yul\":4686:4689   */\n      dup5\n        /* \"#utility.yul\":4682:4698   */\n      add\n        /* \"#utility.yul\":4679:4704   */\n      gt\n        /* \"#utility.yul\":4676:4788   */\n      iszero\n      tag_595\n      jumpi\n        /* \"#utility.yul\":4707:4786   */\n      tag_596\n      tag_467\n      jump\t// in\n    tag_596:\n        /* \"#utility.yul\":4676:4788   */\n    tag_595:\n        /* \"#utility.yul\":4797:4851   */\n      tag_597\n        /* \"#utility.yul\":4844:4850   */\n      dup5\n        /* \"#utility.yul\":4839:4842   */\n      dup3\n        /* \"#utility.yul\":4834:4837   */\n      dup6\n        /* \"#utility.yul\":4797:4851   */\n      tag_473\n      jump\t// in\n    tag_597:\n        /* \"#utility.yul\":4517:4857   */\n      pop\n        /* \"#utility.yul\":4434:4857   */\n      swap4\n      swap3\n      pop\n      pop\n      pop\n      jump\t// out\n        /* \"#utility.yul\":4876:5214   */\n    tag_475:\n        /* \"#utility.yul\":4931:4936   */\n      0x00\n        /* \"#utility.yul\":4980:4983   */\n      dup3\n        /* \"#utility.yul\":4973:4977   */\n      0x1f\n        /* \"#utility.yul\":4965:4971   */\n      dup4\n        /* \"#utility.yul\":4961:4978   */\n      add\n        /* \"#utility.yul\":4957:4984   */\n      slt\n        /* \"#utility.yul\":4947:5069   */\n      tag_599\n      jumpi\n        /* \"#utility.yul\":4988:5067   */\n      tag_600\n      tag_466\n      jump\t// in\n    tag_600:\n        /* \"#utility.yul\":4947:5069   */\n    tag_599:\n        /* \"#utility.yul\":5105:5111   */\n      dup2\n        /* \"#utility.yul\":5092:5112   */\n      calldataload\n        /* \"#utility.yul\":5130:5208   */\n      tag_601\n        /* \"#utility.yul\":5204:5207   */\n      dup5\n        /* \"#utility.yul\":5196:5202   */\n      dup3\n        /* \"#utility.yul\":5189:5193   */\n      0x20\n        /* \"#utility.yul\":5181:5187   */\n      dup7\n        /* \"#utility.yul\":5177:5194   */\n      add\n        /* \"#utility.yul\":5130:5208   */\n      tag_474\n      jump\t// in\n    tag_601:\n        /* \"#utility.yul\":5121:5208   */\n      swap2\n      pop\n        /* \"#utility.yul\":4937:5214   */\n      pop\n        /* \"#utility.yul\":4876:5214   */\n      swap3\n      swap2\n      pop\n      pop\n      jump\t// out\n        /* \"#utility.yul\":5220:5872   */\n    tag_47:\n        /* \"#utility.yul\":5297:5303   */\n      0x00\n        /* \"#utility.yul\":5305:5311   */\n      0x00\n        /* \"#utility.yul\":5354:5356   */\n      0x40\n        /* \"#utility.yul\":5342:5351   */\n      dup4\n        /* \"#utility.yul\":5333:5340   */\n      dup6\n        /* \"#utility.yul\":5329:5352   */\n      sub\n        /* \"#utility.yul\":5325:5357   */\n      slt\n        /* \"#utility.yul\":5322:5441   */\n      iszero\n      tag_603\n      jumpi\n        /* \"#utility.yul\":5360:5439   */\n      tag_604\n      tag_453\n      jump\t// in\n    tag_604:\n        /* \"#utility.yul\":5322:5441   */\n    tag_603:\n        /* \"#utility.yul\":5480:5481   */\n      0x00\n        /* \"#utility.yul\":5505:5558   */\n      tag_605\n        /* \"#utility.yul\":5550:5557   */\n      dup6\n        /* \"#utility.yul\":5541:5547   */\n      dup3\n        /* \"#utility.yul\":5530:5539   */\n      dup7\n        /* \"#utility.yul\":5526:5548   */\n      add\n        /* \"#utility.yul\":5505:5558   */\n      tag_461\n      jump\t// in\n    tag_605:\n        /* \"#utility.yul\":5495:5558   */\n      swap3\n      pop\n        /* \"#utility.yul\":5451:5568   */\n      pop\n        /* \"#utility.yul\":5635:5637   */\n      0x20\n        /* \"#utility.yul\":5624:5633   */\n      dup4\n        /* \"#utility.yul\":5620:5638   */\n      add\n        /* \"#utility.yul\":5607:5639   */\n      calldataload\n        /* \"#utility.yul\":5666:5684   */\n      0xffffffffffffffff\n        /* \"#utility.yul\":5658:5664   */\n      dup2\n        /* \"#utility.yul\":5655:5685   */\n      gt\n        /* \"#utility.yul\":5652:5769   */\n      iszero\n      tag_606\n      jumpi\n        /* \"#utility.yul\":5688:5767   */\n      tag_607\n      tag_454\n      jump\t// in\n    tag_607:\n        /* \"#utility.yul\":5652:5769   */\n    tag_606:\n        /* \"#utility.yul\":5793:5855   */\n      tag_608\n        /* \"#utility.yul\":5847:5854   */\n      dup6\n        /* \"#utility.yul\":5838:5844   */\n      dup3\n        /* \"#utility.yul\":5827:5836   */\n      dup7\n        /* \"#utility.yul\":5823:5845   */\n      add\n        /* \"#utility.yul\":5793:5855   */\n      tag_475\n      jump\t// in\n    tag_608:\n        /* \"#utility.yul\":5783:5855   */\n      swap2\n      pop\n        /* \"#utility.yul\":5578:5865   */\n      pop\n        /* \"#utility.yul\":5220:5872   */\n      swap3\n      pop\n      swap3\n      swap1\n      pop\n      jump\t// out\n        /* \"#utility.yul\":5878:5955   */\n    tag_476:\n        /* \"#utility.yul\":5915:5922   */\n      0x00\n        /* \"#utility.yul\":5944:5949   */\n      dup2\n        /* \"#utility.yul\":5933:5949   */\n      swap1\n      pop\n        /* \"#utility.yul\":5878:5955   */\n      swap2\n      swap1\n      pop\n      jump\t// out\n        /* \"#utility.yul\":5961:6079   */\n    tag_477:\n        /* \"#utility.yul\":6048:6072   */\n      tag_611\n        /* \"#utility.yul\":6066:6071   */\n      dup2\n        /* \"#utility.yul\":6048:6072   */\n      tag_476\n      jump\t// in\n    tag_611:\n        /* \"#utility.yul\":6043:6046   */\n      dup3\n        /* \"#utility.yul\":6036:6073   */\n      mstore\n        /* \"#utility.yul\":5961:6079   */\n      pop\n      pop\n      jump\t// out\n        /* \"#utility.yul\":6085:6307   */\n    tag_53:\n        /* \"#utility.yul\":6178:6182   */\n      0x00\n        /* \"#utility.yul\":6216:6218   */\n      0x20\n        /* \"#utility.yul\":6205:6214   */\n      dup3\n        /* \"#utility.yul\":6201:6219   */\n      add\n        /* \"#utility.yul\":6193:6219   */\n      swap1\n      pop\n        /* \"#utility.yul\":6229:6300   */\n      tag_613\n        /* \"#utility.yul\":6297:6298   */\n      0x00\n        /* \"#utility.yul\":6286:6295   */\n      dup4\n        /* \"#utility.yul\":6282:6299   */\n      add\n        /* \"#utility.yul\":6273:6279   */\n      dup5\n        /* \"#utility.yul\":6229:6300   */\n      tag_477\n      jump\t// in\n    tag_613:\n        /* \"#utility.yul\":6085:6307   */\n      swap3\n      swap2\n      pop\n      pop\n      jump\t// out\n        /* \"#utility.yul\":6313:6422   */\n    tag_478:\n        /* \"#utility.yul\":6394:6415   */\n      tag_615\n        /* \"#utility.yul\":6409:6414   */\n      dup2\n        /* \"#utility.yul\":6394:6415   */\n      tag_463\n      jump\t// in\n    tag_615:\n        /* \"#utility.yul\":6389:6392   */\n      dup3\n        /* \"#utility.yul\":6382:6416   */\n      mstore\n        /* \"#utility.yul\":6313:6422   */\n      pop\n      pop\n      jump\t// out\n        /* \"#utility.yul\":6428:6638   */\n    tag_58:\n        /* \"#utility.yul\":6515:6519   */\n      0x00\n        /* \"#utility.yul\":6553:6555   */\n      0x20\n        /* \"#utility.yul\":6542:6551   */\n      dup3\n        /* \"#utility.yul\":6538:6556   */\n      add\n        /* \"#utility.yul\":6530:6556   */\n      swap1\n      pop\n        /* \"#utility.yul\":6566:6631   */\n      tag_617\n        /* \"#utility.yul\":6628:6629   */\n      0x00\n        /* \"#utility.yul\":6617:6626   */\n      dup4\n        /* \"#utility.yul\":6613:6630   */\n      add\n        /* \"#utility.yul\":6604:6610   */\n      dup5\n        /* \"#utility.yul\":6566:6631   */\n      tag_478\n      jump\t// in\n    tag_617:\n        /* \"#utility.yul\":6428:6638   */\n      swap3\n      swap2\n      pop\n      pop\n      jump\t// out\n        /* \"#utility.yul\":6644:6973   */\n    tag_62:\n        /* \"#utility.yul\":6703:6709   */\n      0x00\n        /* \"#utility.yul\":6752:6754   */\n      0x20\n        /* \"#utility.yul\":6740:6749   */\n      dup3\n        /* \"#utility.yul\":6731:6738   */\n      dup5\n        /* \"#utility.yul\":6727:6750   */\n      sub\n        /* \"#utility.yul\":6723:6755   */\n      slt\n        /* \"#utility.yul\":6720:6839   */\n      iszero\n      tag_619\n      jumpi\n        /* \"#utility.yul\":6758:6837   */\n      tag_620\n      tag_453\n      jump\t// in\n    tag_620:\n        /* \"#utility.yul\":6720:6839   */\n    tag_619:\n        /* \"#utility.yul\":6878:6879   */\n      0x00\n        /* \"#utility.yul\":6903:6956   */\n      tag_621\n        /* \"#utility.yul\":6948:6955   */\n      dup5\n        /* \"#utility.yul\":6939:6945   */\n      dup3\n        /* \"#utility.yul\":6928:6937   */\n      dup6\n        /* \"#utility.yul\":6924:6946   */\n      add\n        /* \"#utility.yul\":6903:6956   */\n      tag_457\n      jump\t// in\n    tag_621:\n        /* \"#utility.yul\":6893:6956   */\n      swap2\n      pop\n        /* \"#utility.yul\":6849:6966   */\n      pop\n        /* \"#utility.yul\":6644:6973   */\n      swap3\n      swap2\n      pop\n      pop\n      jump\t// out\n        /* \"#utility.yul\":6979:7097   */\n    tag_479:\n        /* \"#utility.yul\":7066:7090   */\n      tag_623\n        /* \"#utility.yul\":7084:7089   */\n      dup2\n        /* \"#utility.yul\":7066:7090   */\n      tag_459\n      jump\t// in\n    tag_623:\n        /* \"#utility.yul\":7061:7064   */\n      dup3\n        /* \"#utility.yul\":7054:7091   */\n      mstore\n        /* \"#utility.yul\":6979:7097   */\n      pop\n      pop\n      jump\t// out\n        /* \"#utility.yul\":7103:7325   */\n    tag_74:\n        /* \"#utility.yul\":7196:7200   */\n      0x00\n        /* \"#utility.yul\":7234:7236   */\n      0x20\n        /* \"#utility.yul\":7223:7232   */\n      dup3\n        /* \"#utility.yul\":7219:7237   */\n      add\n        /* \"#utility.yul\":7211:7237   */\n      swap1\n      pop\n        /* \"#utility.yul\":7247:7318   */\n      tag_625\n        /* \"#utility.yul\":7315:7316   */\n      0x00\n        /* \"#utility.yul\":7304:7313   */\n      dup4\n        /* \"#utility.yul\":7300:7317   */\n      add\n        /* \"#utility.yul\":7291:7297   */\n      dup5\n        /* \"#utility.yul\":7247:7318   */\n      tag_479\n      jump\t// in\n    tag_625:\n        /* \"#utility.yul\":7103:7325   */\n      swap3\n      swap2\n      pop\n      pop\n      jump\t// out\n        /* \"#utility.yul\":7331:7432   */\n    tag_480:\n        /* \"#utility.yul\":7367:7374   */\n      0x00\n        /* \"#utility.yul\":7407:7425   */\n      0xffffffffffffffff\n        /* \"#utility.yul\":7400:7405   */\n      dup3\n        /* \"#utility.yul\":7396:7426   */\n      and\n        /* \"#utility.yul\":7385:7426   */\n      swap1\n      pop\n        /* \"#utility.yul\":7331:7432   */\n      swap2\n      swap1\n      pop\n      jump\t// out\n        /* \"#utility.yul\":7438:7558   */\n    tag_481:\n        /* \"#utility.yul\":7510:7533   */\n      tag_628\n        /* \"#utility.yul\":7527:7532   */\n      dup2\n        /* \"#utility.yul\":7510:7533   */\n      tag_480\n      jump\t// in\n    tag_628:\n        /* \"#utility.yul\":7503:7508   */\n      dup2\n        /* \"#utility.yul\":7500:7534   */\n      eq\n        /* \"#utility.yul\":7490:7552   */\n      tag_629\n      jumpi\n        /* \"#utility.yul\":7548:7549   */\n      0x00\n        /* \"#utility.yul\":7545:7546   */\n      0x00\n        /* \"#utility.yul\":7538:7550   */\n      revert\n        /* \"#utility.yul\":7490:7552   */\n    tag_629:\n        /* \"#utility.yul\":7438:7558   */\n      pop\n      jump\t// out\n        /* \"#utility.yul\":7564:7701   */\n    tag_482:\n        /* \"#utility.yul\":7609:7614   */\n      0x00\n        /* \"#utility.yul\":7647:7653   */\n      dup2\n        /* \"#utility.yul\":7634:7654   */\n      calldataload\n        /* \"#utility.yul\":7625:7654   */\n      swap1\n      pop\n        /* \"#utility.yul\":7663:7695   */\n      tag_631\n        /* \"#utility.yul\":7689:7694   */\n      dup2\n        /* \"#utility.yul\":7663:7695   */\n      tag_481\n      jump\t// in\n    tag_631:\n        /* \"#utility.yul\":7564:7701   */\n      swap3\n      swap2\n      pop\n      pop\n      jump\t// out\n        /* \"#utility.yul\":7707:7796   */\n    tag_483:\n        /* \"#utility.yul\":7743:7750   */\n      0x00\n        /* \"#utility.yul\":7783:7789   */\n      0xffff\n        /* \"#utility.yul\":7776:7781   */\n      dup3\n        /* \"#utility.yul\":7772:7790   */\n      and\n        /* \"#utility.yul\":7761:7790   */\n      swap1\n      pop\n        /* \"#utility.yul\":7707:7796   */\n      swap2\n      swap1\n      pop\n      jump\t// out\n        /* \"#utility.yul\":7802:7922   */\n    tag_484:\n        /* \"#utility.yul\":7874:7897   */\n      tag_634\n        /* \"#utility.yul\":7891:7896   */\n      dup2\n        /* \"#utility.yul\":7874:7897   */\n      tag_483\n      jump\t// in\n    tag_634:\n        /* \"#utility.yul\":7867:7872   */\n      dup2\n        /* \"#utility.yul\":7864:7898   */\n      eq\n        /* \"#utility.yul\":7854:7916   */\n      tag_635\n      jumpi\n        /* \"#utility.yul\":7912:7913   */\n      0x00\n        /* \"#utility.yul\":7909:7910   */\n      0x00\n        /* \"#utility.yul\":7902:7914   */\n      revert\n        /* \"#utility.yul\":7854:7916   */\n    tag_635:\n        /* \"#utility.yul\":7802:7922   */\n      pop\n      jump\t// out\n        /* \"#utility.yul\":7928:8065   */\n    tag_485:\n        /* \"#utility.yul\":7973:7978   */\n      0x00\n        /* \"#utility.yul\":8011:8017   */\n      dup2\n        /* \"#utility.yul\":7998:8018   */\n      calldataload\n        /* \"#utility.yul\":7989:8018   */\n      swap1\n      pop\n        /* \"#utility.yul\":8027:8059   */\n      tag_637\n        /* \"#utility.yul\":8053:8058   */\n      dup2\n        /* \"#utility.yul\":8027:8059   */\n      tag_484\n      jump\t// in\n    tag_637:\n        /* \"#utility.yul\":7928:8065   */\n      swap3\n      swap2\n      pop\n      pop\n      jump\t// out\n        /* \"#utility.yul\":8071:8147   */\n    tag_486:\n        /* \"#utility.yul\":8107:8114   */\n      0x00\n        /* \"#utility.yul\":8136:8141   */\n      dup2\n        /* \"#utility.yul\":8125:8141   */\n      swap1\n      pop\n        /* \"#utility.yul\":8071:8147   */\n      swap2\n      swap1\n      pop\n      jump\t// out\n        /* \"#utility.yul\":8153:8273   */\n    tag_487:\n        /* \"#utility.yul\":8225:8248   */\n      tag_640\n        /* \"#utility.yul\":8242:8247   */\n      dup2\n        /* \"#utility.yul\":8225:8248   */\n      tag_486\n      jump\t// in\n    tag_640:\n        /* \"#utility.yul\":8218:8223   */\n      dup2\n        /* \"#utility.yul\":8215:8249   */\n      eq\n        /* \"#utility.yul\":8205:8267   */\n      tag_641\n      jumpi\n        /* \"#utility.yul\":8263:8264   */\n      0x00\n        /* \"#utility.yul\":8260:8261   */\n      0x00\n        /* \"#utility.yul\":8253:8265   */\n      revert\n        /* \"#utility.yul\":8205:8267   */\n    tag_641:\n        /* \"#utility.yul\":8153:8273   */\n      pop\n      jump\t// out\n        /* \"#utility.yul\":8279:8416   */\n    tag_488:\n        /* \"#utility.yul\":8324:8329   */\n      0x00\n        /* \"#utility.yul\":8362:8368   */\n      dup2\n        /* \"#utility.yul\":8349:8369   */\n      calldataload\n        /* \"#utility.yul\":8340:8369   */\n      swap1\n      pop\n        /* \"#utility.yul\":8378:8410   */\n      tag_643\n        /* \"#utility.yul\":8404:8409   */\n      dup2\n        /* \"#utility.yul\":8378:8410   */\n      tag_487\n      jump\t// in\n    tag_643:\n        /* \"#utility.yul\":8279:8416   */\n      swap3\n      swap2\n      pop\n      pop\n      jump\t// out\n        /* \"#utility.yul\":8422:9181   */\n    tag_78:\n        /* \"#utility.yul\":8505:8511   */\n      0x00\n        /* \"#utility.yul\":8513:8519   */\n      0x00\n        /* \"#utility.yul\":8521:8527   */\n      0x00\n        /* \"#utility.yul\":8529:8535   */\n      0x00\n        /* \"#utility.yul\":8578:8581   */\n      0x80\n        /* \"#utility.yul\":8566:8575   */\n      dup6\n        /* \"#utility.yul\":8557:8564   */\n      dup8\n        /* \"#utility.yul\":8553:8576   */\n      sub\n        /* \"#utility.yul\":8549:8582   */\n      slt\n        /* \"#utility.yul\":8546:8666   */\n      iszero\n      tag_645\n      jumpi\n        /* \"#utility.yul\":8585:8664   */\n      tag_646\n      tag_453\n      jump\t// in\n    tag_646:\n        /* \"#utility.yul\":8546:8666   */\n    tag_645:\n        /* \"#utility.yul\":8705:8706   */\n      0x00\n        /* \"#utility.yul\":8730:8782   */\n      tag_647\n        /* \"#utility.yul\":8774:8781   */\n      dup8\n        /* \"#utility.yul\":8765:8771   */\n      dup3\n        /* \"#utility.yul\":8754:8763   */\n      dup9\n        /* \"#utility.yul\":8750:8772   */\n      add\n        /* \"#utility.yul\":8730:8782   */\n      tag_482\n      jump\t// in\n    tag_647:\n        /* \"#utility.yul\":8720:8782   */\n      swap5\n      pop\n        /* \"#utility.yul\":8676:8792   */\n      pop\n        /* \"#utility.yul\":8831:8833   */\n      0x20\n        /* \"#utility.yul\":8857:8909   */\n      tag_648\n        /* \"#utility.yul\":8901:8908   */\n      dup8\n        /* \"#utility.yul\":8892:8898   */\n      dup3\n        /* \"#utility.yul\":8881:8890   */\n      dup9\n        /* \"#utility.yul\":8877:8899   */\n      add\n        /* \"#utility.yul\":8857:8909   */\n      tag_485\n      jump\t// in\n    tag_648:\n        /* \"#utility.yul\":8847:8909   */\n      swap4\n      pop\n        /* \"#utility.yul\":8802:8919   */\n      pop\n        /* \"#utility.yul\":8958:8960   */\n      0x40\n        /* \"#utility.yul\":8984:9037   */\n      tag_649\n        /* \"#utility.yul\":9029:9036   */\n      dup8\n        /* \"#utility.yul\":9020:9026   */\n      dup3\n        /* \"#utility.yul\":9009:9018   */\n      dup9\n        /* \"#utility.yul\":9005:9027   */\n      add\n        /* \"#utility.yul\":8984:9037   */\n      tag_461\n      jump\t// in\n    tag_649:\n        /* \"#utility.yul\":8974:9037   */\n      swap3\n      pop\n        /* \"#utility.yul\":8929:9047   */\n      pop\n        /* \"#utility.yul\":9086:9088   */\n      0x60\n        /* \"#utility.yul\":9112:9164   */\n      tag_650\n        /* \"#utility.yul\":9156:9163   */\n      dup8\n        /* \"#utility.yul\":9147:9153   */\n      dup3\n        /* \"#utility.yul\":9136:9145   */\n      dup9\n        /* \"#utility.yul\":9132:9154   */\n      add\n        /* \"#utility.yul\":9112:9164   */\n      tag_488\n      jump\t// in\n    tag_650:\n        /* \"#utility.yul\":9102:9164   */\n      swap2\n      pop\n        /* \"#utility.yul\":9057:9174   */\n      pop\n        /* \"#utility.yul\":8422:9181   */\n      swap3\n      swap6\n      swap2\n      swap5\n      pop\n      swap3\n      pop\n      jump\t// out\n        /* \"#utility.yul\":9187:9286   */\n    tag_489:\n        /* \"#utility.yul\":9239:9245   */\n      0x00\n        /* \"#utility.yul\":9273:9278   */\n      dup2\n        /* \"#utility.yul\":9267:9279   */\n      mload\n        /* \"#utility.yul\":9257:9279   */\n      swap1\n      pop\n        /* \"#utility.yul\":9187:9286   */\n      swap2\n      swap1\n      pop\n      jump\t// out\n        /* \"#utility.yul\":9292:9461   */\n    tag_490:\n        /* \"#utility.yul\":9376:9387   */\n      0x00\n        /* \"#utility.yul\":9410:9416   */\n      dup3\n        /* \"#utility.yul\":9405:9408   */\n      dup3\n        /* \"#utility.yul\":9398:9417   */\n      mstore\n        /* \"#utility.yul\":9450:9454   */\n      0x20\n        /* \"#utility.yul\":9445:9448   */\n      dup3\n        /* \"#utility.yul\":9441:9455   */\n      add\n        /* \"#utility.yul\":9426:9455   */\n      swap1\n      pop\n        /* \"#utility.yul\":9292:9461   */\n      swap3\n      swap2\n      pop\n      pop\n      jump\t// out\n        /* \"#utility.yul\":9467:9606   */\n    tag_491:\n        /* \"#utility.yul\":9556:9562   */\n      dup3\n        /* \"#utility.yul\":9551:9554   */\n      dup2\n        /* \"#utility.yul\":9546:9549   */\n      dup4\n        /* \"#utility.yul\":9540:9563   */\n      mcopy\n        /* \"#utility.yul\":9597:9598   */\n      0x00\n        /* \"#utility.yul\":9588:9594   */\n      dup4\n        /* \"#utility.yul\":9583:9586   */\n      dup4\n        /* \"#utility.yul\":9579:9595   */\n      add\n        /* \"#utility.yul\":9572:9599   */\n      mstore\n        /* \"#utility.yul\":9467:9606   */\n      pop\n      pop\n      pop\n      jump\t// out\n        /* \"#utility.yul\":9612:9989   */\n    tag_492:\n        /* \"#utility.yul\":9700:9703   */\n      0x00\n        /* \"#utility.yul\":9728:9767   */\n      tag_655\n        /* \"#utility.yul\":9761:9766   */\n      dup3\n        /* \"#utility.yul\":9728:9767   */\n      tag_489\n      jump\t// in\n    tag_655:\n        /* \"#utility.yul\":9783:9854   */\n      tag_656\n        /* \"#utility.yul\":9847:9853   */\n      dup2\n        /* \"#utility.yul\":9842:9845   */\n      dup6\n        /* \"#utility.yul\":9783:9854   */\n      tag_490\n      jump\t// in\n    tag_656:\n        /* \"#utility.yul\":9776:9854   */\n      swap4\n      pop\n        /* \"#utility.yul\":9863:9928   */\n      tag_657\n        /* \"#utility.yul\":9921:9927   */\n      dup2\n        /* \"#utility.yul\":9916:9919   */\n      dup6\n        /* \"#utility.yul\":9909:9913   */\n      0x20\n        /* \"#utility.yul\":9902:9907   */\n      dup7\n        /* \"#utility.yul\":9898:9914   */\n      add\n        /* \"#utility.yul\":9863:9928   */\n      tag_491\n      jump\t// in\n    tag_657:\n        /* \"#utility.yul\":9953:9982   */\n      tag_658\n        /* \"#utility.yul\":9975:9981   */\n      dup2\n        /* \"#utility.yul\":9953:9982   */\n      tag_468\n      jump\t// in\n    tag_658:\n        /* \"#utility.yul\":9948:9951   */\n      dup5\n        /* \"#utility.yul\":9944:9983   */\n      add\n        /* \"#utility.yul\":9937:9983   */\n      swap2\n      pop\n        /* \"#utility.yul\":9704:9989   */\n      pop\n        /* \"#utility.yul\":9612:9989   */\n      swap3\n      swap2\n      pop\n      pop\n      jump\t// out\n        /* \"#utility.yul\":9995:10308   */\n    tag_84:\n        /* \"#utility.yul\":10108:10112   */\n      0x00\n        /* \"#utility.yul\":10146:10148   */\n      0x20\n        /* \"#utility.yul\":10135:10144   */\n      dup3\n        /* \"#utility.yul\":10131:10149   */\n      add\n        /* \"#utility.yul\":10123:10149   */\n      swap1\n      pop\n        /* \"#utility.yul\":10195:10204   */\n      dup2\n        /* \"#utility.yul\":10189:10193   */\n      dup2\n        /* \"#utility.yul\":10185:10205   */\n      sub\n        /* \"#utility.yul\":10181:10182   */\n      0x00\n        /* \"#utility.yul\":10170:10179   */\n      dup4\n        /* \"#utility.yul\":10166:10183   */\n      add\n        /* \"#utility.yul\":10159:10206   */\n      mstore\n        /* \"#utility.yul\":10223:10301   */\n      tag_660\n        /* \"#utility.yul\":10296:10300   */\n      dup2\n        /* \"#utility.yul\":10287:10293   */\n      dup5\n        /* \"#utility.yul\":10223:10301   */\n      tag_492\n      jump\t// in\n    tag_660:\n        /* \"#utility.yul\":10215:10301   */\n      swap1\n      pop\n        /* \"#utility.yul\":9995:10308   */\n      swap3\n      swap2\n      pop\n      pop\n      jump\t// out\n        /* \"#utility.yul\":10314:10432   */\n    tag_493:\n        /* \"#utility.yul\":10351:10358   */\n      0x00\n        /* \"#utility.yul\":10391:10425   */\n      0xffffffffffffffffffffffffffffffff\n        /* \"#utility.yul\":10384:10389   */\n      dup3\n        /* \"#utility.yul\":10380:10426   */\n      and\n        /* \"#utility.yul\":10369:10426   */\n      swap1\n      pop\n        /* \"#utility.yul\":10314:10432   */\n      swap2\n      swap1\n      pop\n      jump\t// out\n        /* \"#utility.yul\":10438:10556   */\n    tag_494:\n        /* \"#utility.yul\":10525:10549   */\n      tag_663\n        /* \"#utility.yul\":10543:10548   */\n      dup2\n        /* \"#utility.yul\":10525:10549   */\n      tag_493\n      jump\t// in\n    tag_663:\n        /* \"#utility.yul\":10520:10523   */\n      dup3\n        /* \"#utility.yul\":10513:10550   */\n      mstore\n        /* \"#utility.yul\":10438:10556   */\n      pop\n      pop\n      jump\t// out\n        /* \"#utility.yul\":10562:10677   */\n    tag_495:\n        /* \"#utility.yul\":10647:10670   */\n      tag_665\n        /* \"#utility.yul\":10664:10669   */\n      dup2\n        /* \"#utility.yul\":10647:10670   */\n      tag_480\n      jump\t// in\n    tag_665:\n        /* \"#utility.yul\":10642:10645   */\n      dup3\n        /* \"#utility.yul\":10635:10671   */\n      mstore\n        /* \"#utility.yul\":10562:10677   */\n      pop\n      pop\n      jump\t// out\n        /* \"#utility.yul\":10683:10798   */\n    tag_496:\n        /* \"#utility.yul\":10768:10791   */\n      tag_667\n        /* \"#utility.yul\":10785:10790   */\n      dup2\n        /* \"#utility.yul\":10768:10791   */\n      tag_483\n      jump\t// in\n    tag_667:\n        /* \"#utility.yul\":10763:10766   */\n      dup3\n        /* \"#utility.yul\":10756:10792   */\n      mstore\n        /* \"#utility.yul\":10683:10798   */\n      pop\n      pop\n      jump\t// out\n        /* \"#utility.yul\":10804:10984   */\n    tag_173:\n        /* \"#utility.yul\":10852:10929   */\n      0x4e487b7100000000000000000000000000000000000000000000000000000000\n        /* \"#utility.yul\":10849:10850   */\n      0x00\n        /* \"#utility.yul\":10842:10930   */\n      mstore\n        /* \"#utility.yul\":10949:10953   */\n      0x21\n        /* \"#utility.yul\":10946:10947   */\n      0x04\n        /* \"#utility.yul\":10939:10954   */\n      mstore\n        /* \"#utility.yul\":10973:10977   */\n      0x24\n        /* \"#utility.yul\":10970:10971   */\n      0x00\n        /* \"#utility.yul\":10963:10978   */\n      revert\n        /* \"#utility.yul\":10990:11107   */\n    tag_497:\n        /* \"#utility.yul\":11075:11076   */\n      0x04\n        /* \"#utility.yul\":11068:11073   */\n      dup2\n        /* \"#utility.yul\":11065:11077   */\n      lt\n        /* \"#utility.yul\":11055:11101   */\n      tag_670\n      jumpi\n        /* \"#utility.yul\":11081:11099   */\n      tag_671\n      tag_173\n      jump\t// in\n    tag_671:\n        /* \"#utility.yul\":11055:11101   */\n    tag_670:\n        /* \"#utility.yul\":10990:11107   */\n      pop\n      jump\t// out\n        /* \"#utility.yul\":11113:11248   */\n    tag_498:\n        /* \"#utility.yul\":11162:11169   */\n      0x00\n        /* \"#utility.yul\":11191:11196   */\n      dup2\n        /* \"#utility.yul\":11180:11196   */\n      swap1\n      pop\n        /* \"#utility.yul\":11197:11242   */\n      tag_673\n        /* \"#utility.yul\":11236:11241   */\n      dup3\n        /* \"#utility.yul\":11197:11242   */\n      tag_497\n      jump\t// in\n    tag_673:\n        /* \"#utility.yul\":11113:11248   */\n      swap2\n      swap1\n      pop\n      jump\t// out\n        /* \"#utility.yul\":11254:11389   */\n    tag_499:\n        /* \"#utility.yul\":11314:11323   */\n      0x00\n        /* \"#utility.yul\":11347:11383   */\n      tag_675\n        /* \"#utility.yul\":11377:11382   */\n      dup3\n        /* \"#utility.yul\":11347:11383   */\n      tag_498\n      jump\t// in\n    tag_675:\n        /* \"#utility.yul\":11334:11383   */\n      swap1\n      pop\n        /* \"#utility.yul\":11254:11389   */\n      swap2\n      swap1\n      pop\n      jump\t// out\n        /* \"#utility.yul\":11395:11546   */\n    tag_500:\n        /* \"#utility.yul\":11492:11539   */\n      tag_677\n        /* \"#utility.yul\":11533:11538   */\n      dup2\n        /* \"#utility.yul\":11492:11539   */\n      tag_499\n      jump\t// in\n    tag_677:\n        /* \"#utility.yul\":11487:11490   */\n      dup3\n        /* \"#utility.yul\":11480:11540   */\n      mstore\n        /* \"#utility.yul\":11395:11546   */\n      pop\n      pop\n      jump\t// out\n        /* \"#utility.yul\":11552:11667   */\n    tag_501:\n        /* \"#utility.yul\":11637:11660   */\n      tag_679\n        /* \"#utility.yul\":11654:11659   */\n      dup2\n        /* \"#utility.yul\":11637:11660   */\n      tag_486\n      jump\t// in\n    tag_679:\n        /* \"#utility.yul\":11632:11635   */\n      dup3\n        /* \"#utility.yul\":11625:11661   */\n      mstore\n        /* \"#utility.yul\":11552:11667   */\n      pop\n      pop\n      jump\t// out\n        /* \"#utility.yul\":11673:12666   */\n    tag_94:\n        /* \"#utility.yul\":11960:11964   */\n      0x00\n        /* \"#utility.yul\":11998:12001   */\n      0x0100\n        /* \"#utility.yul\":11987:11996   */\n      dup3\n        /* \"#utility.yul\":11983:12002   */\n      add\n        /* \"#utility.yul\":11975:12002   */\n      swap1\n      pop\n        /* \"#utility.yul\":12012:12083   */\n      tag_681\n        /* \"#utility.yul\":12080:12081   */\n      0x00\n        /* \"#utility.yul\":12069:12078   */\n      dup4\n        /* \"#utility.yul\":12065:12082   */\n      add\n        /* \"#utility.yul\":12056:12062   */\n      dup12\n        /* \"#utility.yul\":12012:12083   */\n      tag_494\n      jump\t// in\n    tag_681:\n        /* \"#utility.yul\":12093:12165   */\n      tag_682\n        /* \"#utility.yul\":12161:12163   */\n      0x20\n        /* \"#utility.yul\":12150:12159   */\n      dup4\n        /* \"#utility.yul\":12146:12164   */\n      add\n        /* \"#utility.yul\":12137:12143   */\n      dup11\n        /* \"#utility.yul\":12093:12165   */\n      tag_494\n      jump\t// in\n    tag_682:\n        /* \"#utility.yul\":12175:12245   */\n      tag_683\n        /* \"#utility.yul\":12241:12243   */\n      0x40\n        /* \"#utility.yul\":12230:12239   */\n      dup4\n        /* \"#utility.yul\":12226:12244   */\n      add\n        /* \"#utility.yul\":12217:12223   */\n      dup10\n        /* \"#utility.yul\":12175:12245   */\n      tag_495\n      jump\t// in\n    tag_683:\n        /* \"#utility.yul\":12255:12325   */\n      tag_684\n        /* \"#utility.yul\":12321:12323   */\n      0x60\n        /* \"#utility.yul\":12310:12319   */\n      dup4\n        /* \"#utility.yul\":12306:12324   */\n      add\n        /* \"#utility.yul\":12297:12303   */\n      dup9\n        /* \"#utility.yul\":12255:12325   */\n      tag_496\n      jump\t// in\n    tag_684:\n        /* \"#utility.yul\":12335:12402   */\n      tag_685\n        /* \"#utility.yul\":12397:12400   */\n      0x80\n        /* \"#utility.yul\":12386:12395   */\n      dup4\n        /* \"#utility.yul\":12382:12401   */\n      add\n        /* \"#utility.yul\":12373:12379   */\n      dup8\n        /* \"#utility.yul\":12335:12402   */\n      tag_478\n      jump\t// in\n    tag_685:\n        /* \"#utility.yul\":12412:12495   */\n      tag_686\n        /* \"#utility.yul\":12490:12493   */\n      0xa0\n        /* \"#utility.yul\":12479:12488   */\n      dup4\n        /* \"#utility.yul\":12475:12494   */\n      add\n        /* \"#utility.yul\":12466:12472   */\n      dup7\n        /* \"#utility.yul\":12412:12495   */\n      tag_500\n      jump\t// in\n    tag_686:\n        /* \"#utility.yul\":12505:12578   */\n      tag_687\n        /* \"#utility.yul\":12573:12576   */\n      0xc0\n        /* \"#utility.yul\":12562:12571   */\n      dup4\n        /* \"#utility.yul\":12558:12577   */\n      add\n        /* \"#utility.yul\":12549:12555   */\n      dup6\n        /* \"#utility.yul\":12505:12578   */\n      tag_479\n      jump\t// in\n    tag_687:\n        /* \"#utility.yul\":12588:12659   */\n      tag_688\n        /* \"#utility.yul\":12654:12657   */\n      0xe0\n        /* \"#utility.yul\":12643:12652   */\n      dup4\n        /* \"#utility.yul\":12639:12658   */\n      add\n        /* \"#utility.yul\":12630:12636   */\n      dup5\n        /* \"#utility.yul\":12588:12659   */\n      tag_501\n      jump\t// in\n    tag_688:\n        /* \"#utility.yul\":11673:12666   */\n      swap10\n      swap9\n      pop\n      pop\n      pop\n      pop\n      pop\n      pop\n      pop\n      pop\n      pop\n      jump\t// out\n        /* \"#utility.yul\":12672:12890   */\n    tag_99:\n        /* \"#utility.yul\":12763:12767   */\n      0x00\n        /* \"#utility.yul\":12801:12803   */\n      0x20\n        /* \"#utility.yul\":12790:12799   */\n      dup3\n        /* \"#utility.yul\":12786:12804   */\n      add\n        /* \"#utility.yul\":12778:12804   */\n      swap1\n      pop\n        /* \"#utility.yul\":12814:12883   */\n      tag_690\n        /* \"#utility.yul\":12880:12881   */\n      0x00\n        /* \"#utility.yul\":12869:12878   */\n      dup4\n        /* \"#utility.yul\":12865:12882   */\n      add\n        /* \"#utility.yul\":12856:12862   */\n      dup5\n        /* \"#utility.yul\":12814:12883   */\n      tag_496\n      jump\t// in\n    tag_690:\n        /* \"#utility.yul\":12672:12890   */\n      swap3\n      swap2\n      pop\n      pop\n      jump\t// out\n        /* \"#utility.yul\":12896:13225   */\n    tag_103:\n        /* \"#utility.yul\":12955:12961   */\n      0x00\n        /* \"#utility.yul\":13004:13006   */\n      0x20\n        /* \"#utility.yul\":12992:13001   */\n      dup3\n        /* \"#utility.yul\":12983:12990   */\n      dup5\n        /* \"#utility.yul\":12979:13002   */\n      sub\n        /* \"#utility.yul\":12975:13007   */\n      slt\n        /* \"#utility.yul\":12972:13091   */\n      iszero\n      tag_692\n      jumpi\n        /* \"#utility.yul\":13010:13089   */\n      tag_693\n      tag_453\n      jump\t// in\n    tag_693:\n        /* \"#utility.yul\":12972:13091   */\n    tag_692:\n        /* \"#utility.yul\":13130:13131   */\n      0x00\n        /* \"#utility.yul\":13155:13208   */\n      tag_694\n        /* \"#utility.yul\":13200:13207   */\n      dup5\n        /* \"#utility.yul\":13191:13197   */\n      dup3\n        /* \"#utility.yul\":13180:13189   */\n      dup6\n        /* \"#utility.yul\":13176:13198   */\n      add\n        /* \"#utility.yul\":13155:13208   */\n      tag_461\n      jump\t// in\n    tag_694:\n        /* \"#utility.yul\":13145:13208   */\n      swap2\n      pop\n        /* \"#utility.yul\":13101:13218   */\n      pop\n        /* \"#utility.yul\":12896:13225   */\n      swap3\n      swap2\n      pop\n      pop\n      jump\t// out\n        /* \"#utility.yul\":13231:13291   */\n    tag_502:\n        /* \"#utility.yul\":13259:13262   */\n      0x00\n        /* \"#utility.yul\":13280:13285   */\n      dup2\n        /* \"#utility.yul\":13273:13285   */\n      swap1\n      pop\n        /* \"#utility.yul\":13231:13291   */\n      swap2\n      swap1\n      pop\n      jump\t// out\n        /* \"#utility.yul\":13297:13439   */\n    tag_503:\n        /* \"#utility.yul\":13347:13356   */\n      0x00\n        /* \"#utility.yul\":13380:13433   */\n      tag_697\n        /* \"#utility.yul\":13398:13432   */\n      tag_698\n        /* \"#utility.yul\":13407:13431   */\n      tag_699\n        /* \"#utility.yul\":13425:13430   */\n      dup5\n        /* \"#utility.yul\":13407:13431   */\n      tag_458\n      jump\t// in\n    tag_699:\n        /* \"#utility.yul\":13398:13432   */\n      tag_502\n      jump\t// in\n    tag_698:\n        /* \"#utility.yul\":13380:13433   */\n      tag_458\n      jump\t// in\n    tag_697:\n        /* \"#utility.yul\":13367:13433   */\n      swap1\n      pop\n        /* \"#utility.yul\":13297:13439   */\n      swap2\n      swap1\n      pop\n      jump\t// out\n        /* \"#utility.yul\":13445:13571   */\n    tag_504:\n        /* \"#utility.yul\":13495:13504   */\n      0x00\n        /* \"#utility.yul\":13528:13565   */\n      tag_701\n        /* \"#utility.yul\":13559:13564   */\n      dup3\n        /* \"#utility.yul\":13528:13565   */\n      tag_503\n      jump\t// in\n    tag_701:\n        /* \"#utility.yul\":13515:13565   */\n      swap1\n      pop\n        /* \"#utility.yul\":13445:13571   */\n      swap2\n      swap1\n      pop\n      jump\t// out\n        /* \"#utility.yul\":13577:13728   */\n    tag_505:\n        /* \"#utility.yul\":13652:13661   */\n      0x00\n        /* \"#utility.yul\":13685:13722   */\n      tag_703\n        /* \"#utility.yul\":13716:13721   */\n      dup3\n        /* \"#utility.yul\":13685:13722   */\n      tag_504\n      jump\t// in\n    tag_703:\n        /* \"#utility.yul\":13672:13722   */\n      swap1\n      pop\n        /* \"#utility.yul\":13577:13728   */\n      swap2\n      swap1\n      pop\n      jump\t// out\n        /* \"#utility.yul\":13734:13915   */\n    tag_506:\n        /* \"#utility.yul\":13846:13908   */\n      tag_705\n        /* \"#utility.yul\":13902:13907   */\n      dup2\n        /* \"#utility.yul\":13846:13908   */\n      tag_505\n      jump\t// in\n    tag_705:\n        /* \"#utility.yul\":13841:13844   */\n      dup3\n        /* \"#utility.yul\":13834:13909   */\n      mstore\n        /* \"#utility.yul\":13734:13915   */\n      pop\n      pop\n      jump\t// out\n        /* \"#utility.yul\":13921:14193   */\n    tag_117:\n        /* \"#utility.yul\":14039:14043   */\n      0x00\n        /* \"#utility.yul\":14077:14079   */\n      0x20\n        /* \"#utility.yul\":14066:14075   */\n      dup3\n        /* \"#utility.yul\":14062:14080   */\n      add\n        /* \"#utility.yul\":14054:14080   */\n      swap1\n      pop\n        /* \"#utility.yul\":14090:14186   */\n      tag_707\n        /* \"#utility.yul\":14183:14184   */\n      0x00\n        /* \"#utility.yul\":14172:14181   */\n      dup4\n        /* \"#utility.yul\":14168:14185   */\n      add\n        /* \"#utility.yul\":14159:14165   */\n      dup5\n        /* \"#utility.yul\":14090:14186   */\n      tag_506\n      jump\t// in\n    tag_707:\n        /* \"#utility.yul\":13921:14193   */\n      swap3\n      swap2\n      pop\n      pop\n      jump\t// out\n        /* \"#utility.yul\":14199:14379   */\n    tag_507:\n        /* \"#utility.yul\":14247:14324   */\n      0x4e487b7100000000000000000000000000000000000000000000000000000000\n        /* \"#utility.yul\":14244:14245   */\n      0x00\n        /* \"#utility.yul\":14237:14325   */\n      mstore\n        /* \"#utility.yul\":14344:14348   */\n      0x11\n        /* \"#utility.yul\":14341:14342   */\n      0x04\n        /* \"#utility.yul\":14334:14349   */\n      mstore\n        /* \"#utility.yul\":14368:14372   */\n      0x24\n        /* \"#utility.yul\":14365:14366   */\n      0x00\n        /* \"#utility.yul\":14358:14373   */\n      revert\n        /* \"#utility.yul\":14385:14576   */\n    tag_132:\n        /* \"#utility.yul\":14425:14428   */\n      0x00\n        /* \"#utility.yul\":14444:14464   */\n      tag_710\n        /* \"#utility.yul\":14462:14463   */\n      dup3\n        /* \"#utility.yul\":14444:14464   */\n      tag_455\n      jump\t// in\n    tag_710:\n        /* \"#utility.yul\":14439:14464   */\n      swap2\n      pop\n        /* \"#utility.yul\":14478:14498   */\n      tag_711\n        /* \"#utility.yul\":14496:14497   */\n      dup4\n        /* \"#utility.yul\":14478:14498   */\n      tag_455\n      jump\t// in\n    tag_711:\n        /* \"#utility.yul\":14473:14498   */\n      swap3\n      pop\n        /* \"#utility.yul\":14521:14522   */\n      dup3\n        /* \"#utility.yul\":14518:14519   */\n      dup3\n        /* \"#utility.yul\":14514:14523   */\n      add\n        /* \"#utility.yul\":14507:14523   */\n      swap1\n      pop\n        /* \"#utility.yul\":14542:14545   */\n      dup1\n        /* \"#utility.yul\":14539:14540   */\n      dup3\n        /* \"#utility.yul\":14536:14546   */\n      gt\n        /* \"#utility.yul\":14533:14569   */\n      iszero\n      tag_712\n      jumpi\n        /* \"#utility.yul\":14549:14567   */\n      tag_713\n      tag_507\n      jump\t// in\n    tag_713:\n        /* \"#utility.yul\":14533:14569   */\n    tag_712:\n        /* \"#utility.yul\":14385:14576   */\n      swap3\n      swap2\n      pop\n      pop\n      jump\t// out\n        /* \"#utility.yul\":14582:14806   */\n    tag_134:\n        /* \"#utility.yul\":14622:14625   */\n      0x00\n        /* \"#utility.yul\":14641:14661   */\n      tag_715\n        /* \"#utility.yul\":14659:14660   */\n      dup3\n        /* \"#utility.yul\":14641:14661   */\n      tag_493\n      jump\t// in\n    tag_715:\n        /* \"#utility.yul\":14636:14661   */\n      swap2\n      pop\n        /* \"#utility.yul\":14675:14695   */\n      tag_716\n        /* \"#utility.yul\":14693:14694   */\n      dup4\n        /* \"#utility.yul\":14675:14695   */\n      tag_493\n      jump\t// in\n    tag_716:\n        /* \"#utility.yul\":14670:14695   */\n      swap3\n      pop\n        /* \"#utility.yul\":14718:14719   */\n      dup3\n        /* \"#utility.yul\":14715:14716   */\n      dup3\n        /* \"#utility.yul\":14711:14720   */\n      add\n        /* \"#utility.yul\":14704:14720   */\n      swap1\n      pop\n        /* \"#utility.yul\":14741:14775   */\n      0xffffffffffffffffffffffffffffffff\n        /* \"#utility.yul\":14736:14739   */\n      dup2\n        /* \"#utility.yul\":14733:14776   */\n      gt\n        /* \"#utility.yul\":14730:14799   */\n      iszero\n      tag_717\n      jumpi\n        /* \"#utility.yul\":14779:14797   */\n      tag_718\n      tag_507\n      jump\t// in\n    tag_718:\n        /* \"#utility.yul\":14730:14799   */\n    tag_717:\n        /* \"#utility.yul\":14582:14806   */\n      swap3\n      swap2\n      pop\n      pop\n      jump\t// out\n        /* \"#utility.yul\":14812:15132   */\n    tag_139:\n        /* \"#utility.yul\":14927:14931   */\n      0x00\n        /* \"#utility.yul\":14965:14967   */\n      0x40\n        /* \"#utility.yul\":14954:14963   */\n      dup3\n        /* \"#utility.yul\":14950:14968   */\n      add\n        /* \"#utility.yul\":14942:14968   */\n      swap1\n      pop\n        /* \"#utility.yul\":14978:15043   */\n      tag_720\n        /* \"#utility.yul\":15040:15041   */\n      0x00\n        /* \"#utility.yul\":15029:15038   */\n      dup4\n        /* \"#utility.yul\":15025:15042   */\n      add\n        /* \"#utility.yul\":15016:15022   */\n      dup6\n        /* \"#utility.yul\":14978:15043   */\n      tag_478\n      jump\t// in\n    tag_720:\n        /* \"#utility.yul\":15053:15125   */\n      tag_721\n        /* \"#utility.yul\":15121:15123   */\n      0x20\n        /* \"#utility.yul\":15110:15119   */\n      dup4\n        /* \"#utility.yul\":15106:15124   */\n      add\n        /* \"#utility.yul\":15097:15103   */\n      dup5\n        /* \"#utility.yul\":15053:15125   */\n      tag_462\n      jump\t// in\n    tag_721:\n        /* \"#utility.yul\":14812:15132   */\n      swap4\n      swap3\n      pop\n      pop\n      pop\n      jump\t// out\n        /* \"#utility.yul\":15138:15243   */\n    tag_508:\n        /* \"#utility.yul\":15174:15181   */\n      0x00\n        /* \"#utility.yul\":15214:15236   */\n      0xffffffffffffffffffff\n        /* \"#utility.yul\":15207:15212   */\n      dup3\n        /* \"#utility.yul\":15203:15237   */\n      and\n        /* \"#utility.yul\":15192:15237   */\n      swap1\n      pop\n        /* \"#utility.yul\":15138:15243   */\n      swap2\n      swap1\n      pop\n      jump\t// out\n        /* \"#utility.yul\":15249:15369   */\n    tag_509:\n        /* \"#utility.yul\":15321:15344   */\n      tag_724\n        /* \"#utility.yul\":15338:15343   */\n      dup2\n        /* \"#utility.yul\":15321:15344   */\n      tag_508\n      jump\t// in\n    tag_724:\n        /* \"#utility.yul\":15314:15319   */\n      dup2\n        /* \"#utility.yul\":15311:15345   */\n      eq\n        /* \"#utility.yul\":15301:15363   */\n      tag_725\n      jumpi\n        /* \"#utility.yul\":15359:15360   */\n      0x00\n        /* \"#utility.yul\":15356:15357   */\n      0x00\n        /* \"#utility.yul\":15349:15361   */\n      revert\n        /* \"#utility.yul\":15301:15363   */\n    tag_725:\n        /* \"#utility.yul\":15249:15369   */\n      pop\n      jump\t// out\n        /* \"#utility.yul\":15375:15516   */\n    tag_510:\n        /* \"#utility.yul\":15431:15436   */\n      0x00\n        /* \"#utility.yul\":15462:15468   */\n      dup2\n        /* \"#utility.yul\":15456:15469   */\n      mload\n        /* \"#utility.yul\":15447:15469   */\n      swap1\n      pop\n        /* \"#utility.yul\":15478:15510   */\n      tag_727\n        /* \"#utility.yul\":15504:15509   */\n      dup2\n        /* \"#utility.yul\":15478:15510   */\n      tag_509\n      jump\t// in\n    tag_727:\n        /* \"#utility.yul\":15375:15516   */\n      swap3\n      swap2\n      pop\n      pop\n      jump\t// out\n        /* \"#utility.yul\":15522:15663   */\n    tag_511:\n        /* \"#utility.yul\":15578:15583   */\n      0x00\n        /* \"#utility.yul\":15609:15615   */\n      dup2\n        /* \"#utility.yul\":15603:15616   */\n      mload\n        /* \"#utility.yul\":15594:15616   */\n      swap1\n      pop\n        /* \"#utility.yul\":15625:15657   */\n      tag_729\n        /* \"#utility.yul\":15651:15656   */\n      dup2\n        /* \"#utility.yul\":15625:15657   */\n      tag_487\n      jump\t// in\n    tag_729:\n        /* \"#utility.yul\":15522:15663   */\n      swap3\n      swap2\n      pop\n      pop\n      jump\t// out\n        /* \"#utility.yul\":15669:15812   */\n    tag_512:\n        /* \"#utility.yul\":15726:15731   */\n      0x00\n        /* \"#utility.yul\":15757:15763   */\n      dup2\n        /* \"#utility.yul\":15751:15764   */\n      mload\n        /* \"#utility.yul\":15742:15764   */\n      swap1\n      pop\n        /* \"#utility.yul\":15773:15806   */\n      tag_731\n        /* \"#utility.yul\":15800:15805   */\n      dup2\n        /* \"#utility.yul\":15773:15806   */\n      tag_456\n      jump\t// in\n    tag_731:\n        /* \"#utility.yul\":15669:15812   */\n      swap3\n      swap2\n      pop\n      pop\n      jump\t// out\n        /* \"#utility.yul\":15818:16789   */\n    tag_169:\n        /* \"#utility.yul\":15921:15927   */\n      0x00\n        /* \"#utility.yul\":15929:15935   */\n      0x00\n        /* \"#utility.yul\":15937:15943   */\n      0x00\n        /* \"#utility.yul\":15945:15951   */\n      0x00\n        /* \"#utility.yul\":15953:15959   */\n      0x00\n        /* \"#utility.yul\":16002:16005   */\n      0xa0\n        /* \"#utility.yul\":15990:15999   */\n      dup7\n        /* \"#utility.yul\":15981:15988   */\n      dup9\n        /* \"#utility.yul\":15977:16000   */\n      sub\n        /* \"#utility.yul\":15973:16006   */\n      slt\n        /* \"#utility.yul\":15970:16090   */\n      iszero\n      tag_733\n      jumpi\n        /* \"#utility.yul\":16009:16088   */\n      tag_734\n      tag_453\n      jump\t// in\n    tag_734:\n        /* \"#utility.yul\":15970:16090   */\n    tag_733:\n        /* \"#utility.yul\":16129:16130   */\n      0x00\n        /* \"#utility.yul\":16154:16217   */\n      tag_735\n        /* \"#utility.yul\":16209:16216   */\n      dup9\n        /* \"#utility.yul\":16200:16206   */\n      dup3\n        /* \"#utility.yul\":16189:16198   */\n      dup10\n        /* \"#utility.yul\":16185:16207   */\n      add\n        /* \"#utility.yul\":16154:16217   */\n      tag_510\n      jump\t// in\n    tag_735:\n        /* \"#utility.yul\":16144:16217   */\n      swap6\n      pop\n        /* \"#utility.yul\":16100:16227   */\n      pop\n        /* \"#utility.yul\":16266:16268   */\n      0x20\n        /* \"#utility.yul\":16292:16355   */\n      tag_736\n        /* \"#utility.yul\":16347:16354   */\n      dup9\n        /* \"#utility.yul\":16338:16344   */\n      dup3\n        /* \"#utility.yul\":16327:16336   */\n      dup10\n        /* \"#utility.yul\":16323:16345   */\n      add\n        /* \"#utility.yul\":16292:16355   */\n      tag_511\n      jump\t// in\n    tag_736:\n        /* \"#utility.yul\":16282:16355   */\n      swap5\n      pop\n        /* \"#utility.yul\":16237:16365   */\n      pop\n        /* \"#utility.yul\":16404:16406   */\n      0x40\n        /* \"#utility.yul\":16430:16494   */\n      tag_737\n        /* \"#utility.yul\":16486:16493   */\n      dup9\n        /* \"#utility.yul\":16477:16483   */\n      dup3\n        /* \"#utility.yul\":16466:16475   */\n      dup10\n        /* \"#utility.yul\":16462:16484   */\n      add\n        /* \"#utility.yul\":16430:16494   */\n      tag_512\n      jump\t// in\n    tag_737:\n        /* \"#utility.yul\":16420:16494   */\n      swap4\n      pop\n        /* \"#utility.yul\":16375:16504   */\n      pop\n        /* \"#utility.yul\":16543:16545   */\n      0x60\n        /* \"#utility.yul\":16569:16633   */\n      tag_738\n        /* \"#utility.yul\":16625:16632   */\n      dup9\n        /* \"#utility.yul\":16616:16622   */\n      dup3\n        /* \"#utility.yul\":16605:16614   */\n      dup10\n        /* \"#utility.yul\":16601:16623   */\n      add\n        /* \"#utility.yul\":16569:16633   */\n      tag_512\n      jump\t// in\n    tag_738:\n        /* \"#utility.yul\":16559:16633   */\n      swap3\n      pop\n        /* \"#utility.yul\":16514:16643   */\n      pop\n        /* \"#utility.yul\":16682:16685   */\n      0x80\n        /* \"#utility.yul\":16709:16772   */\n      tag_739\n        /* \"#utility.yul\":16764:16771   */\n      dup9\n        /* \"#utility.yul\":16755:16761   */\n      dup3\n        /* \"#utility.yul\":16744:16753   */\n      dup10\n        /* \"#utility.yul\":16740:16762   */\n      add\n        /* \"#utility.yul\":16709:16772   */\n      tag_510\n      jump\t// in\n    tag_739:\n        /* \"#utility.yul\":16699:16772   */\n      swap2\n      pop\n        /* \"#utility.yul\":16653:16782   */\n      pop\n        /* \"#utility.yul\":15818:16789   */\n      swap3\n      swap6\n      pop\n      swap3\n      swap6\n      swap1\n      swap4\n      pop\n      jump\t// out\n        /* \"#utility.yul\":16795:16881   */\n    tag_513:\n        /* \"#utility.yul\":16830:16837   */\n      0x00\n        /* \"#utility.yul\":16870:16874   */\n      0xff\n        /* \"#utility.yul\":16863:16868   */\n      dup3\n        /* \"#utility.yul\":16859:16875   */\n      and\n        /* \"#utility.yul\":16848:16875   */\n      swap1\n      pop\n        /* \"#utility.yul\":16795:16881   */\n      swap2\n      swap1\n      pop\n      jump\t// out\n        /* \"#utility.yul\":16887:16999   */\n    tag_514:\n        /* \"#utility.yul\":16970:16992   */\n      tag_742\n        /* \"#utility.yul\":16986:16991   */\n      dup2\n        /* \"#utility.yul\":16970:16992   */\n      tag_513\n      jump\t// in\n    tag_742:\n        /* \"#utility.yul\":16965:16968   */\n      dup3\n        /* \"#utility.yul\":16958:16993   */\n      mstore\n        /* \"#utility.yul\":16887:16999   */\n      pop\n      pop\n      jump\t// out\n        /* \"#utility.yul\":17005:17219   */\n    tag_180:\n        /* \"#utility.yul\":17094:17098   */\n      0x00\n        /* \"#utility.yul\":17132:17134   */\n      0x20\n        /* \"#utility.yul\":17121:17130   */\n      dup3\n        /* \"#utility.yul\":17117:17135   */\n      add\n        /* \"#utility.yul\":17109:17135   */\n      swap1\n      pop\n        /* \"#utility.yul\":17145:17212   */\n      tag_744\n        /* \"#utility.yul\":17209:17210   */\n      0x00\n        /* \"#utility.yul\":17198:17207   */\n      dup4\n        /* \"#utility.yul\":17194:17211   */\n      add\n        /* \"#utility.yul\":17185:17191   */\n      dup5\n        /* \"#utility.yul\":17145:17212   */\n      tag_514\n      jump\t// in\n    tag_744:\n        /* \"#utility.yul\":17005:17219   */\n      swap3\n      swap2\n      pop\n      pop\n      jump\t// out\n        /* \"#utility.yul\":17225:17443   */\n    tag_206:\n        /* \"#utility.yul\":17316:17320   */\n      0x00\n        /* \"#utility.yul\":17354:17356   */\n      0x20\n        /* \"#utility.yul\":17343:17352   */\n      dup3\n        /* \"#utility.yul\":17339:17357   */\n      add\n        /* \"#utility.yul\":17331:17357   */\n      swap1\n      pop\n        /* \"#utility.yul\":17367:17436   */\n      tag_746\n        /* \"#utility.yul\":17433:17434   */\n      0x00\n        /* \"#utility.yul\":17422:17431   */\n      dup4\n        /* \"#utility.yul\":17418:17435   */\n      add\n        /* \"#utility.yul\":17409:17415   */\n      dup5\n        /* \"#utility.yul\":17367:17436   */\n      tag_501\n      jump\t// in\n    tag_746:\n        /* \"#utility.yul\":17225:17443   */\n      swap3\n      swap2\n      pop\n      pop\n      jump\t// out\n        /* \"#utility.yul\":17449:17682   */\n    tag_208:\n        /* \"#utility.yul\":17488:17491   */\n      0x00\n        /* \"#utility.yul\":17511:17535   */\n      tag_748\n        /* \"#utility.yul\":17529:17534   */\n      dup3\n        /* \"#utility.yul\":17511:17535   */\n      tag_455\n      jump\t// in\n    tag_748:\n        /* \"#utility.yul\":17502:17535   */\n      swap2\n      pop\n        /* \"#utility.yul\":17557:17623   */\n      0xffffffffffffffffffffffffffffffffffffffffffffffffffffffffffffffff\n        /* \"#utility.yul\":17550:17555   */\n      dup3\n        /* \"#utility.yul\":17547:17624   */\n      sub\n        /* \"#utility.yul\":17544:17647   */\n      tag_749\n      jumpi\n        /* \"#utility.yul\":17627:17645   */\n      tag_750\n      tag_507\n      jump\t// in\n    tag_750:\n        /* \"#utility.yul\":17544:17647   */\n    tag_749:\n        /* \"#utility.yul\":17674:17675   */\n      0x01\n        /* \"#utility.yul\":17667:17672   */\n      dup3\n        /* \"#utility.yul\":17663:17676   */\n      add\n        /* \"#utility.yul\":17656:17676   */\n      swap1\n      pop\n        /* \"#utility.yul\":17449:17682   */\n      swap2\n      swap1\n      pop\n      jump\t// out\n        /* \"#utility.yul\":17688:18098   */\n    tag_221:\n        /* \"#utility.yul\":17728:17735   */\n      0x00\n        /* \"#utility.yul\":17751:17771   */\n      tag_752\n        /* \"#utility.yul\":17769:17770   */\n      dup3\n        /* \"#utility.yul\":17751:17771   */\n      tag_455\n      jump\t// in\n    tag_752:\n        /* \"#utility.yul\":17746:17771   */\n      swap2\n      pop\n        /* \"#utility.yul\":17785:17805   */\n      tag_753\n        /* \"#utility.yul\":17803:17804   */\n      dup4\n        /* \"#utility.yul\":17785:17805   */\n      tag_455\n      jump\t// in\n    tag_753:\n        /* \"#utility.yul\":17780:17805   */\n      swap3\n      pop\n        /* \"#utility.yul\":17840:17841   */\n      dup3\n        /* \"#utility.yul\":17837:17838   */\n      dup3\n        /* \"#utility.yul\":17833:17842   */\n      mul\n        /* \"#utility.yul\":17862:17892   */\n      tag_754\n        /* \"#utility.yul\":17880:17891   */\n      dup2\n        /* \"#utility.yul\":17862:17892   */\n      tag_455\n      jump\t// in\n    tag_754:\n        /* \"#utility.yul\":17851:17892   */\n      swap2\n      pop\n        /* \"#utility.yul\":18041:18042   */\n      dup3\n        /* \"#utility.yul\":18032:18039   */\n      dup3\n        /* \"#utility.yul\":18028:18043   */\n      div\n        /* \"#utility.yul\":18025:18026   */\n      dup5\n        /* \"#utility.yul\":18022:18044   */\n      eq\n        /* \"#utility.yul\":18002:18003   */\n      dup4\n        /* \"#utility.yul\":17995:18004   */\n      iszero\n        /* \"#utility.yul\":17975:18058   */\n      or\n        /* \"#utility.yul\":17952:18091   */\n      tag_755\n      jumpi\n        /* \"#utility.yul\":18071:18089   */\n      tag_756\n      tag_507\n      jump\t// in\n    tag_756:\n        /* \"#utility.yul\":17952:18091   */\n    tag_755:\n        /* \"#utility.yul\":17736:18098   */\n      pop\n        /* \"#utility.yul\":17688:18098   */\n      swap3\n      swap2\n      pop\n      pop\n      jump\t// out\n        /* \"#utility.yul\":18104:18284   */\n    tag_515:\n        /* \"#utility.yul\":18152:18229   */\n      0x4e487b7100000000000000000000000000000000000000000000000000000000\n        /* \"#utility.yul\":18149:18150   */\n      0x00\n        /* \"#utility.yul\":18142:18230   */\n      mstore\n        /* \"#utility.yul\":18249:18253   */\n      0x12\n        /* \"#utility.yul\":18246:18247   */\n      0x04\n        /* \"#utility.yul\":18239:18254   */\n      mstore\n        /* \"#utility.yul\":18273:18277   */\n      0x24\n        /* \"#utility.yul\":18270:18271   */\n      0x00\n        /* \"#utility.yul\":18263:18278   */\n      revert\n        /* \"#utility.yul\":18290:18475   */\n    tag_223:\n        /* \"#utility.yul\":18330:18331   */\n      0x00\n        /* \"#utility.yul\":18347:18367   */\n      tag_759\n        /* \"#utility.yul\":18365:18366   */\n      dup3\n        /* \"#utility.yul\":18347:18367   */\n      tag_455\n      jump\t// in\n    tag_759:\n        /* \"#utility.yul\":18342:18367   */\n      swap2\n      pop\n        /* \"#utility.yul\":18381:18401   */\n      tag_760\n        /* \"#utility.yul\":18399:18400   */\n      dup4\n        /* \"#utility.yul\":18381:18401   */\n      tag_455\n      jump\t// in\n    tag_760:\n        /* \"#utility.yul\":18376:18401   */\n      swap3\n      pop\n        /* \"#utility.yul\":18420:18421   */\n      dup3\n        /* \"#utility.yul\":18410:18445   */\n      tag_761\n      jumpi\n        /* \"#utility.yul\":18425:18443   */\n      tag_762\n      tag_515\n      jump\t// in\n    tag_762:\n        /* \"#utility.yul\":18410:18445   */\n    tag_761:\n        /* \"#utility.yul\":18467:18468   */\n      dup3\n        /* \"#utility.yul\":18464:18465   */\n      dup3\n        /* \"#utility.yul\":18460:18469   */\n      div\n        /* \"#utility.yul\":18455:18469   */\n      swap1\n      pop\n        /* \"#utility.yul\":18290:18475   */\n      swap3\n      swap2\n      pop\n      pop\n      jump\t// out\n        /* \"#utility.yul\":18481:18675   */\n    tag_232:\n        /* \"#utility.yul\":18521:18525   */\n      0x00\n        /* \"#utility.yul\":18541:18561   */\n      tag_764\n        /* \"#utility.yul\":18559:18560   */\n      dup3\n        /* \"#utility.yul\":18541:18561   */\n      tag_455\n      jump\t// in\n    tag_764:\n        /* \"#utility.yul\":18536:18561   */\n      swap2\n      pop\n        /* \"#utility.yul\":18575:18595   */\n      tag_765\n        /* \"#utility.yul\":18593:18594   */\n      dup4\n        /* \"#utility.yul\":18575:18595   */\n      tag_455\n      jump\t// in\n    tag_765:\n        /* \"#utility.yul\":18570:18595   */\n      swap3\n      pop\n        /* \"#utility.yul\":18619:18620   */\n      dup3\n        /* \"#utility.yul\":18616:18617   */\n      dup3\n        /* \"#utility.yul\":18612:18621   */\n      sub\n        /* \"#utility.yul\":18604:18621   */\n      swap1\n      pop\n        /* \"#utility.yul\":18643:18644   */\n      dup2\n        /* \"#utility.yul\":18637:18641   */\n      dup2\n        /* \"#utility.yul\":18634:18645   */\n      gt\n        /* \"#utility.yul\":18631:18668   */\n      iszero\n      tag_766\n      jumpi\n        /* \"#utility.yul\":18648:18666   */\n      tag_767\n      tag_507\n      jump\t// in\n    tag_767:\n        /* \"#utility.yul\":18631:18668   */\n    tag_766:\n        /* \"#utility.yul\":18481:18675   */\n      swap3\n      swap2\n      pop\n      pop\n      jump\t// out\n        /* \"#utility.yul\":18681:18766   */\n    tag_516:\n        /* \"#utility.yul\":18726:18733   */\n      0x00\n        /* \"#utility.yul\":18755:18760   */\n      dup2\n        /* \"#utility.yul\":18744:18760   */\n      swap1\n      pop\n        /* \"#utility.yul\":18681:18766   */\n      swap2\n      swap1\n      pop\n      jump\t// out\n        /* \"#utility.yul\":18772:18928   */\n    tag_517:\n        /* \"#utility.yul\":18829:18838   */\n      0x00\n        /* \"#utility.yul\":18862:18922   */\n      tag_770\n        /* \"#utility.yul\":18879:18921   */\n      tag_771\n        /* \"#utility.yul\":18888:18920   */\n      tag_772\n        /* \"#utility.yul\":18914:18919   */\n      dup5\n        /* \"#utility.yul\":18888:18920   */\n      tag_516\n      jump\t// in\n    tag_772:\n        /* \"#utility.yul\":18879:18921   */\n      tag_502\n      jump\t// in\n    tag_771:\n        /* \"#utility.yul\":18862:18922   */\n      tag_480\n      jump\t// in\n    tag_770:\n        /* \"#utility.yul\":18849:18922   */\n      swap1\n      pop\n        /* \"#utility.yul\":18772:18928   */\n      swap2\n      swap1\n      pop\n      jump\t// out\n        /* \"#utility.yul\":18934:19079   */\n    tag_518:\n        /* \"#utility.yul\":19028:19072   */\n      tag_774\n        /* \"#utility.yul\":19066:19071   */\n      dup2\n        /* \"#utility.yul\":19028:19072   */\n      tag_517\n      jump\t// in\n    tag_774:\n        /* \"#utility.yul\":19023:19026   */\n      dup3\n        /* \"#utility.yul\":19016:19073   */\n      mstore\n        /* \"#utility.yul\":18934:19079   */\n      pop\n      pop\n      jump\t// out\n        /* \"#utility.yul\":19085:19321   */\n    tag_258:\n        /* \"#utility.yul\":19185:19189   */\n      0x00\n        /* \"#utility.yul\":19223:19225   */\n      0x20\n        /* \"#utility.yul\":19212:19221   */\n      dup3\n        /* \"#utility.yul\":19208:19226   */\n      add\n        /* \"#utility.yul\":19200:19226   */\n      swap1\n      pop\n        /* \"#utility.yul\":19236:19314   */\n      tag_776\n        /* \"#utility.yul\":19311:19312   */\n      0x00\n        /* \"#utility.yul\":19300:19309   */\n      dup4\n        /* \"#utility.yul\":19296:19313   */\n      add\n        /* \"#utility.yul\":19287:19293   */\n      dup5\n        /* \"#utility.yul\":19236:19314   */\n      tag_518\n      jump\t// in\n    tag_776:\n        /* \"#utility.yul\":19085:19321   */\n      swap3\n      swap2\n      pop\n      pop\n      jump\t// out\n        /* \"#utility.yul\":19327:19508   */\n    tag_519:\n        /* \"#utility.yul\":19467:19500   */\n      0x5265656e7472616e637947756172643a207265656e7472616e742063616c6c00\n        /* \"#utility.yul\":19463:19464   */\n      0x00\n        /* \"#utility.yul\":19455:19461   */\n      dup3\n        /* \"#utility.yul\":19451:19465   */\n      add\n        /* \"#utility.yul\":19444:19501   */\n      mstore\n        /* \"#utility.yul\":19327:19508   */\n      pop\n      jump\t// out\n        /* \"#utility.yul\":19514:19880   */\n    tag_520:\n        /* \"#utility.yul\":19656:19659   */\n      0x00\n        /* \"#utility.yul\":19677:19744   */\n      tag_779\n        /* \"#utility.yul\":19741:19743   */\n      0x1f\n        /* \"#utility.yul\":19736:19739   */\n      dup4\n        /* \"#utility.yul\":19677:19744   */\n      tag_490\n      jump\t// in\n    tag_779:\n        /* \"#utility.yul\":19670:19744   */\n      swap2\n      pop\n        /* \"#utility.yul\":19753:19846   */\n      tag_780\n        /* \"#utility.yul\":19842:19845   */\n      dup3\n        /* \"#utility.yul\":19753:19846   */\n      tag_519\n      jump\t// in\n    tag_780:\n        /* \"#utility.yul\":19871:19873   */\n      0x20\n        /* \"#utility.yul\":19866:19869   */\n      dup3\n        /* \"#utility.yul\":19862:19874   */\n      add\n        /* \"#utility.yul\":19855:19874   */\n      swap1\n      pop\n        /* \"#utility.yul\":19514:19880   */\n      swap2\n      swap1\n      pop\n      jump\t// out\n        /* \"#utility.yul\":19886:20305   */\n    tag_268:\n        /* \"#utility.yul\":20052:20056   */\n      0x00\n        /* \"#utility.yul\":20090:20092   */\n      0x20\n        /* \"#utility.yul\":20079:20088   */\n      dup3\n        /* \"#utility.yul\":20075:20093   */\n      add\n        /* \"#utility.yul\":20067:20093   */\n      swap1\n      pop\n        /* \"#utility.yul\":20139:20148   */\n      dup2\n        /* \"#utility.yul\":20133:20137   */\n      dup2\n        /* \"#utility.yul\":20129:20149   */\n      sub\n        /* \"#utility.yul\":20125:20126   */\n      0x00\n        /* \"#utility.yul\":20114:20123   */\n      dup4\n        /* \"#utility.yul\":20110:20127   */\n      add\n        /* \"#utility.yul\":20103:20150   */\n      mstore\n        /* \"#utility.yul\":20167:20298   */\n      tag_782\n        /* \"#utility.yul\":20293:20297   */\n      dup2\n        /* \"#utility.yul\":20167:20298   */\n      tag_520\n      jump\t// in\n    tag_782:\n        /* \"#utility.yul\":20159:20298   */\n      swap1\n      pop\n        /* \"#utility.yul\":19886:20305   */\n      swap2\n      swap1\n      pop\n      jump\t// out\n        /* \"#utility.yul\":20311:20477   */\n    tag_521:\n        /* \"#utility.yul\":20451:20469   */\n      0x5061757361626c653a2070617573656400000000000000000000000000000000\n        /* \"#utility.yul\":20447:20448   */\n      0x00\n        /* \"#utility.yul\":20439:20445   */\n      dup3\n        /* \"#utility.yul\":20435:20449   */\n      add\n        /* \"#utility.yul\":20428:20470   */\n      mstore\n        /* \"#utility.yul\":20311:20477   */\n      pop\n      jump\t// out\n        /* \"#utility.yul\":20483:20849   */\n    tag_522:\n        /* \"#utility.yul\":20625:20628   */\n      0x00\n        /* \"#utility.yul\":20646:20713   */\n      tag_785\n        /* \"#utility.yul\":20710:20712   */\n      0x10\n        /* \"#utility.yul\":20705:20708   */\n      dup4\n        /* \"#utility.yul\":20646:20713   */\n      tag_490\n      jump\t// in\n    tag_785:\n        /* \"#utility.yul\":20639:20713   */\n      swap2\n      pop\n        /* \"#utility.yul\":20722:20815   */\n      tag_786\n        /* \"#utility.yul\":20811:20814   */\n      dup3\n        /* \"#utility.yul\":20722:20815   */\n      tag_521\n      jump\t// in\n    tag_786:\n        /* \"#utility.yul\":20840:20842   */\n      0x20\n        /* \"#utility.yul\":20835:20838   */\n      dup3\n        /* \"#utility.yul\":20831:20843   */\n      add\n        /* \"#utility.yul\":20824:20843   */\n      swap1\n      pop\n        /* \"#utility.yul\":20483:20849   */\n      swap2\n      swap1\n      pop\n      jump\t// out\n        /* \"#utility.yul\":20855:21274   */\n    tag_273:\n        /* \"#utility.yul\":21021:21025   */\n      0x00\n        /* \"#utility.yul\":21059:21061   */\n      0x20\n        /* \"#utility.yul\":21048:21057   */\n      dup3\n        /* \"#utility.yul\":21044:21062   */\n      add\n        /* \"#utility.yul\":21036:21062   */\n      swap1\n      pop\n        /* \"#utility.yul\":21108:21117   */\n      dup2\n        /* \"#utility.yul\":21102:21106   */\n      dup2\n        /* \"#utility.yul\":21098:21118   */\n      sub\n        /* \"#utility.yul\":21094:21095   */\n      0x00\n        /* \"#utility.yul\":21083:21092   */\n      dup4\n        /* \"#utility.yul\":21079:21096   */\n      add\n        /* \"#utility.yul\":21072:21119   */\n      mstore\n        /* \"#utility.yul\":21136:21267   */\n      tag_788\n        /* \"#utility.yul\":21262:21266   */\n      dup2\n        /* \"#utility.yul\":21136:21267   */\n      tag_522\n      jump\t// in\n    tag_788:\n        /* \"#utility.yul\":21128:21267   */\n      swap1\n      pop\n        /* \"#utility.yul\":20855:21274   */\n      swap2\n      swap1\n      pop\n      jump\t// out\n        /* \"#utility.yul\":21280:21722   */\n    tag_277:\n        /* \"#utility.yul\":21429:21433   */\n      0x00\n        /* \"#utility.yul\":21467:21469   */\n      0x60\n        /* \"#utility.yul\":21456:21465   */\n      dup3\n        /* \"#utility.yul\":21452:21470   */\n      add\n        /* \"#utility.yul\":21444:21470   */\n      swap1\n      pop\n        /* \"#utility.yul\":21480:21551   */\n      tag_790\n        /* \"#utility.yul\":21548:21549   */\n      0x00\n        /* \"#utility.yul\":21537:21546   */\n      dup4\n        /* \"#utility.yul\":21533:21550   */\n      add\n        /* \"#utility.yul\":21524:21530   */\n      dup7\n        /* \"#utility.yul\":21480:21551   */\n      tag_479\n      jump\t// in\n    tag_790:\n        /* \"#utility.yul\":21561:21633   */\n      tag_791\n        /* \"#utility.yul\":21629:21631   */\n      0x20\n        /* \"#utility.yul\":21618:21627   */\n      dup4\n        /* \"#utility.yul\":21614:21632   */\n      add\n        /* \"#utility.yul\":21605:21611   */\n      dup6\n        /* \"#utility.yul\":21561:21633   */\n      tag_479\n      jump\t// in\n    tag_791:\n        /* \"#utility.yul\":21643:21715   */\n      tag_792\n        /* \"#utility.yul\":21711:21713   */\n      0x40\n        /* \"#utility.yul\":21700:21709   */\n      dup4\n        /* \"#utility.yul\":21696:21714   */\n      add\n        /* \"#utility.yul\":21687:21693   */\n      dup5\n        /* \"#utility.yul\":21643:21715   */\n      tag_462\n      jump\t// in\n    tag_792:\n        /* \"#utility.yul\":21280:21722   */\n      swap5\n      swap4\n      pop\n      pop\n      pop\n      pop\n      jump\t// out\n        /* \"#utility.yul\":21728:21850   */\n    tag_523:\n        /* \"#utility.yul\":21801:21825   */\n      tag_794\n        /* \"#utility.yul\":21819:21824   */\n      dup2\n        /* \"#utility.yul\":21801:21825   */\n      tag_476\n      jump\t// in\n    tag_794:\n        /* \"#utility.yul\":21794:21799   */\n      dup2\n        /* \"#utility.yul\":21791:21826   */\n      eq\n        /* \"#utility.yul\":21781:21844   */\n      tag_795\n      jumpi\n        /* \"#utility.yul\":21840:21841   */\n      0x00\n        /* \"#utility.yul\":21837:21838   */\n      0x00\n        /* \"#utility.yul\":21830:21842   */\n      revert\n        /* \"#utility.yul\":21781:21844   */\n    tag_795:\n        /* \"#utility.yul\":21728:21850   */\n      pop\n      jump\t// out\n        /* \"#utility.yul\":21856:21999   */\n    tag_524:\n        /* \"#utility.yul\":21913:21918   */\n      0x00\n        /* \"#utility.yul\":21944:21950   */\n      dup2\n        /* \"#utility.yul\":21938:21951   */\n      mload\n        /* \"#utility.yul\":21929:21951   */\n      swap1\n      pop\n        /* \"#utility.yul\":21960:21993   */\n      tag_797\n        /* \"#utility.yul\":21987:21992   */\n      dup2\n        /* \"#utility.yul\":21960:21993   */\n      tag_523\n      jump\t// in\n    tag_797:\n        /* \"#utility.yul\":21856:21999   */\n      swap3\n      swap2\n      pop\n      pop\n      jump\t// out\n        /* \"#utility.yul\":22005:22356   */\n    tag_304:\n        /* \"#utility.yul\":22075:22081   */\n      0x00\n        /* \"#utility.yul\":22124:22126   */\n      0x20\n        /* \"#utility.yul\":22112:22121   */\n      dup3\n        /* \"#utility.yul\":22103:22110   */\n      dup5\n        /* \"#utility.yul\":22099:22122   */\n      sub\n        /* \"#utility.yul\":22095:22127   */\n      slt\n        /* \"#utility.yul\":22092:22211   */\n      iszero\n      tag_799\n      jumpi\n        /* \"#utility.yul\":22130:22209   */\n      tag_800\n      tag_453\n      jump\t// in\n    tag_800:\n        /* \"#utility.yul\":22092:22211   */\n    tag_799:\n        /* \"#utility.yul\":22250:22251   */\n      0x00\n        /* \"#utility.yul\":22275:22339   */\n      tag_801\n        /* \"#utility.yul\":22331:22338   */\n      dup5\n        /* \"#utility.yul\":22322:22328   */\n      dup3\n        /* \"#utility.yul\":22311:22320   */\n      dup6\n        /* \"#utility.yul\":22307:22329   */\n      add\n        /* \"#utility.yul\":22275:22339   */\n      tag_524\n      jump\t// in\n    tag_801:\n        /* \"#utility.yul\":22265:22339   */\n      swap2\n      pop\n        /* \"#utility.yul\":22221:22349   */\n      pop\n        /* \"#utility.yul\":22005:22356   */\n      swap3\n      swap2\n      pop\n      pop\n      jump\t// out\n        /* \"#utility.yul\":22362:22694   */\n    tag_328:\n        /* \"#utility.yul\":22483:22487   */\n      0x00\n        /* \"#utility.yul\":22521:22523   */\n      0x40\n        /* \"#utility.yul\":22510:22519   */\n      dup3\n        /* \"#utility.yul\":22506:22524   */\n      add\n        /* \"#utility.yul\":22498:22524   */\n      swap1\n      pop\n        /* \"#utility.yul\":22534:22605   */\n      tag_803\n        /* \"#utility.yul\":22602:22603   */\n      0x00\n        /* \"#utility.yul\":22591:22600   */\n      dup4\n        /* \"#utility.yul\":22587:22604   */\n      add\n        /* \"#utility.yul\":22578:22584   */\n      dup6\n        /* \"#utility.yul\":22534:22605   */\n      tag_479\n      jump\t// in\n    tag_803:\n        /* \"#utility.yul\":22615:22687   */\n      tag_804\n        /* \"#utility.yul\":22683:22685   */\n      0x20\n        /* \"#utility.yul\":22672:22681   */\n      dup4\n        /* \"#utility.yul\":22668:22686   */\n      add\n        /* \"#utility.yul\":22659:22665   */\n      dup5\n        /* \"#utility.yul\":22615:22687   */\n      tag_462\n      jump\t// in\n    tag_804:\n        /* \"#utility.yul\":22362:22694   */\n      swap4\n      swap3\n      pop\n      pop\n      pop\n      jump\t// out\n        /* \"#utility.yul\":22700:22837   */\n    tag_525:\n        /* \"#utility.yul\":22754:22759   */\n      0x00\n        /* \"#utility.yul\":22785:22791   */\n      dup2\n        /* \"#utility.yul\":22779:22792   */\n      mload\n        /* \"#utility.yul\":22770:22792   */\n      swap1\n      pop\n        /* \"#utility.yul\":22801:22831   */\n      tag_806\n        /* \"#utility.yul\":22825:22830   */\n      dup2\n        /* \"#utility.yul\":22801:22831   */\n      tag_464\n      jump\t// in\n    tag_806:\n        /* \"#utility.yul\":22700:22837   */\n      swap3\n      swap2\n      pop\n      pop\n      jump\t// out\n        /* \"#utility.yul\":22843:23188   */\n    tag_356:\n        /* \"#utility.yul\":22910:22916   */\n      0x00\n        /* \"#utility.yul\":22959:22961   */\n      0x20\n        /* \"#utility.yul\":22947:22956   */\n      dup3\n        /* \"#utility.yul\":22938:22945   */\n      dup5\n        /* \"#utility.yul\":22934:22957   */\n      sub\n        /* \"#utility.yul\":22930:22962   */\n      slt\n        /* \"#utility.yul\":22927:23046   */\n      iszero\n      tag_808\n      jumpi\n        /* \"#utility.yul\":22965:23044   */\n      tag_809\n      tag_453\n      jump\t// in\n    tag_809:\n        /* \"#utility.yul\":22927:23046   */\n    tag_808:\n        /* \"#utility.yul\":23085:23086   */\n      0x00\n        /* \"#utility.yul\":23110:23171   */\n      tag_810\n        /* \"#utility.yul\":23163:23170   */\n      dup5\n        /* \"#utility.yul\":23154:23160   */\n      dup3\n        /* \"#utility.yul\":23143:23152   */\n      dup6\n        /* \"#utility.yul\":23139:23161   */\n      add\n        /* \"#utility.yul\":23110:23171   */\n      tag_525\n      jump\t// in\n    tag_810:\n        /* \"#utility.yul\":23100:23171   */\n      swap2\n      pop\n        /* \"#utility.yul\":23056:23181   */\n      pop\n        /* \"#utility.yul\":22843:23188   */\n      swap3\n      swap2\n      pop\n      pop\n      jump\t// out\n        /* \"#utility.yul\":23194:23423   */\n    tag_526:\n        /* \"#utility.yul\":23334:23368   */\n      0x5361666545524332303a204552433230206f7065726174696f6e20646964206e\n        /* \"#utility.yul\":23330:23331   */\n      0x00\n        /* \"#utility.yul\":23322:23328   */\n      dup3\n        /* \"#utility.yul\":23318:23332   */\n      add\n        /* \"#utility.yul\":23311:23369   */\n      mstore\n        /* \"#utility.yul\":23403:23415   */\n      0x6f74207375636365656400000000000000000000000000000000000000000000\n        /* \"#utility.yul\":23398:23400   */\n      0x20\n        /* \"#utility.yul\":23390:23396   */\n      dup3\n        /* \"#utility.yul\":23386:23401   */\n      add\n        /* \"#utility.yul\":23379:23416   */\n      mstore\n        /* \"#utility.yul\":23194:23423   */\n      pop\n      jump\t// out\n        /* \"#utility.yul\":23429:23795   */\n    tag_527:\n        /* \"#utility.yul\":23571:23574   */\n      0x00\n        /* \"#utility.yul\":23592:23659   */\n      tag_813\n        /* \"#utility.yul\":23656:23658   */\n      0x2a\n        /* \"#utility.yul\":23651:23654   */\n      dup4\n        /* \"#utility.yul\":23592:23659   */\n      tag_490\n      jump\t// in\n    tag_813:\n        /* \"#utility.yul\":23585:23659   */\n      swap2\n      pop\n        /* \"#utility.yul\":23668:23761   */\n      tag_814\n        /* \"#utility.yul\":23757:23760   */\n      dup3\n        /* \"#utility.yul\":23668:23761   */\n      tag_526\n      jump\t// in\n    tag_814:\n        /* \"#utility.yul\":23786:23788   */\n      0x40\n        /* \"#utility.yul\":23781:23784   */\n      dup3\n        /* \"#utility.yul\":23777:23789   */\n      add\n        /* \"#utility.yul\":23770:23789   */\n      swap1\n      pop\n        /* \"#utility.yul\":23429:23795   */\n      swap2\n      swap1\n      pop\n      jump\t// out\n        /* \"#utility.yul\":23801:24220   */\n    tag_359:\n        /* \"#utility.yul\":23967:23971   */\n      0x00\n        /* \"#utility.yul\":24005:24007   */\n      0x20\n        /* \"#utility.yul\":23994:24003   */\n      dup3\n        /* \"#utility.yul\":23990:24008   */\n      add\n        /* \"#utility.yul\":23982:24008   */\n      swap1\n      pop\n        /* \"#utility.yul\":24054:24063   */\n      dup2\n        /* \"#utility.yul\":24048:24052   */\n      dup2\n        /* \"#utility.yul\":24044:24064   */\n      sub\n        /* \"#utility.yul\":24040:24041   */\n      0x00\n        /* \"#utility.yul\":24029:24038   */\n      dup4\n        /* \"#utility.yul\":24025:24042   */\n      add\n        /* \"#utility.yul\":24018:24065   */\n      mstore\n        /* \"#utility.yul\":24082:24213   */\n      tag_816\n        /* \"#utility.yul\":24208:24212   */\n      dup2\n        /* \"#utility.yul\":24082:24213   */\n      tag_527\n      jump\t// in\n    tag_816:\n        /* \"#utility.yul\":24074:24213   */\n      swap1\n      pop\n        /* \"#utility.yul\":23801:24220   */\n      swap2\n      swap1\n      pop\n      jump\t// out\n        /* \"#utility.yul\":24226:24396   */\n    tag_528:\n        /* \"#utility.yul\":24366:24388   */\n      0x5061757361626c653a206e6f7420706175736564000000000000000000000000\n        /* \"#utility.yul\":24362:24363   */\n      0x00\n        /* \"#utility.yul\":24354:24360   */\n      dup3\n        /* \"#utility.yul\":24350:24364   */\n      add\n        /* \"#utility.yul\":24343:24389   */\n      mstore\n        /* \"#utility.yul\":24226:24396   */\n      pop\n      jump\t// out\n        /* \"#utility.yul\":24402:24768   */\n    tag_529:\n        /* \"#utility.yul\":24544:24547   */\n      0x00\n        /* \"#utility.yul\":24565:24632   */\n      tag_819\n        /* \"#utility.yul\":24629:24631   */\n      0x14\n        /* \"#utility.yul\":24624:24627   */\n      dup4\n        /* \"#utility.yul\":24565:24632   */\n      tag_490\n      jump\t// in\n    tag_819:\n        /* \"#utility.yul\":24558:24632   */\n      swap2\n      pop\n        /* \"#utility.yul\":24641:24734   */\n      tag_820\n        /* \"#utility.yul\":24730:24733   */\n      dup3\n        /* \"#utility.yul\":24641:24734   */\n      tag_528\n      jump\t// in\n    tag_820:\n        /* \"#utility.yul\":24759:24761   */\n      0x20\n        /* \"#utility.yul\":24754:24757   */\n      dup3\n        /* \"#utility.yul\":24750:24762   */\n      add\n        /* \"#utility.yul\":24743:24762   */\n      swap1\n      pop\n        /* \"#utility.yul\":24402:24768   */\n      swap2\n      swap1\n      pop\n      jump\t// out\n        /* \"#utility.yul\":24774:25193   */\n    tag_365:\n        /* \"#utility.yul\":24940:24944   */\n      0x00\n        /* \"#utility.yul\":24978:24980   */\n      0x20\n        /* \"#utility.yul\":24967:24976   */\n      dup3\n        /* \"#utility.yul\":24963:24981   */\n      add\n        /* \"#utility.yul\":24955:24981   */\n      swap1\n      pop\n        /* \"#utility.yul\":25027:25036   */\n      dup2\n        /* \"#utility.yul\":25021:25025   */\n      dup2\n        /* \"#utility.yul\":25017:25037   */\n      sub\n        /* \"#utility.yul\":25013:25014   */\n      0x00\n        /* \"#utility.yul\":25002:25011   */\n      dup4\n        /* \"#utility.yul\":24998:25015   */\n      add\n        /* \"#utility.yul\":24991:25038   */\n      mstore\n        /* \"#utility.yul\":25055:25186   */\n      tag_822\n        /* \"#utility.yul\":25181:25185   */\n      dup2\n        /* \"#utility.yul\":25055:25186   */\n      tag_529\n      jump\t// in\n    tag_822:\n        /* \"#utility.yul\":25047:25186   */\n      swap1\n      pop\n        /* \"#utility.yul\":24774:25193   */\n      swap2\n      swap1\n      pop\n      jump\t// out\n        /* \"#utility.yul\":25199:25297   */\n    tag_530:\n        /* \"#utility.yul\":25250:25256   */\n      0x00\n        /* \"#utility.yul\":25284:25289   */\n      dup2\n        /* \"#utility.yul\":25278:25290   */\n      mload\n        /* \"#utility.yul\":25268:25290   */\n      swap1\n      pop\n        /* \"#utility.yul\":25199:25297   */\n      swap2\n      swap1\n      pop\n      jump\t// out\n        /* \"#utility.yul\":25303:25450   */\n    tag_531:\n        /* \"#utility.yul\":25404:25415   */\n      0x00\n        /* \"#utility.yul\":25441:25444   */\n      dup2\n        /* \"#utility.yul\":25426:25444   */\n      swap1\n      pop\n        /* \"#utility.yul\":25303:25450   */\n      swap3\n      swap2\n      pop\n      pop\n      jump\t// out\n        /* \"#utility.yul\":25456:25842   */\n    tag_532:\n        /* \"#utility.yul\":25560:25563   */\n      0x00\n        /* \"#utility.yul\":25588:25626   */\n      tag_826\n        /* \"#utility.yul\":25620:25625   */\n      dup3\n        /* \"#utility.yul\":25588:25626   */\n      tag_530\n      jump\t// in\n    tag_826:\n        /* \"#utility.yul\":25642:25730   */\n      tag_827\n        /* \"#utility.yul\":25723:25729   */\n      dup2\n        /* \"#utility.yul\":25718:25721   */\n      dup6\n        /* \"#utility.yul\":25642:25730   */\n      tag_531\n      jump\t// in\n    tag_827:\n        /* \"#utility.yul\":25635:25730   */\n      swap4\n      pop\n        /* \"#utility.yul\":25739:25804   */\n      tag_828\n        /* \"#utility.yul\":25797:25803   */\n      dup2\n        /* \"#utility.yul\":25792:25795   */\n      dup6\n        /* \"#utility.yul\":25785:25789   */\n      0x20\n        /* \"#utility.yul\":25778:25783   */\n      dup7\n        /* \"#utility.yul\":25774:25790   */\n      add\n        /* \"#utility.yul\":25739:25804   */\n      tag_491\n      jump\t// in\n    tag_828:\n        /* \"#utility.yul\":25829:25835   */\n      dup1\n        /* \"#utility.yul\":25824:25827   */\n      dup5\n        /* \"#utility.yul\":25820:25836   */\n      add\n        /* \"#utility.yul\":25813:25836   */\n      swap2\n      pop\n        /* \"#utility.yul\":25564:25842   */\n      pop\n        /* \"#utility.yul\":25456:25842   */\n      swap3\n      swap2\n      pop\n      pop\n      jump\t// out\n        /* \"#utility.yul\":25848:26119   */\n    tag_405:\n        /* \"#utility.yul\":25978:25981   */\n      0x00\n        /* \"#utility.yul\":26000:26093   */\n      tag_830\n        /* \"#utility.yul\":26089:26092   */\n      dup3\n        /* \"#utility.yul\":26080:26086   */\n      dup5\n        /* \"#utility.yul\":26000:26093   */\n      tag_532\n      jump\t// in\n    tag_830:\n        /* \"#utility.yul\":25993:26093   */\n      swap2\n      pop\n        /* \"#utility.yul\":26110:26113   */\n      dup2\n        /* \"#utility.yul\":26103:26113   */\n      swap1\n      pop\n        /* \"#utility.yul\":25848:26119   */\n      swap3\n      swap2\n      pop\n      pop\n      jump\t// out\n        /* \"#utility.yul\":26125:26350   */\n    tag_533:\n        /* \"#utility.yul\":26265:26299   */\n      0x416464726573733a20696e73756666696369656e742062616c616e636520666f\n        /* \"#utility.yul\":26261:26262   */\n      0x00\n        /* \"#utility.yul\":26253:26259   */\n      dup3\n        /* \"#utility.yul\":26249:26263   */\n      add\n        /* \"#utility.yul\":26242:26300   */\n      mstore\n        /* \"#utility.yul\":26334:26342   */\n      0x722063616c6c0000000000000000000000000000000000000000000000000000\n        /* \"#utility.yul\":26329:26331   */\n      0x20\n        /* \"#utility.yul\":26321:26327   */\n      dup3\n        /* \"#utility.yul\":26317:26332   */\n      add\n        /* \"#utility.yul\":26310:26343   */\n      mstore\n        /* \"#utility.yul\":26125:26350   */\n      pop\n      jump\t// out\n        /* \"#utility.yul\":26356:26722   */\n    tag_534:\n        /* \"#utility.yul\":26498:26501   */\n      0x00\n        /* \"#utility.yul\":26519:26586   */\n      tag_833\n        /* \"#utility.yul\":26583:26585   */\n      0x26\n        /* \"#utility.yul\":26578:26581   */\n      dup4\n        /* \"#utility.yul\":26519:26586   */\n      tag_490\n      jump\t// in\n    tag_833:\n        /* \"#utility.yul\":26512:26586   */\n      swap2\n      pop\n        /* \"#utility.yul\":26595:26688   */\n      tag_834\n        /* \"#utility.yul\":26684:26687   */\n      dup3\n        /* \"#utility.yul\":26595:26688   */\n      tag_533\n      jump\t// in\n    tag_834:\n        /* \"#utility.yul\":26713:26715   */\n      0x40\n        /* \"#utility.yul\":26708:26711   */\n      dup3\n        /* \"#utility.yul\":26704:26716   */\n      add\n        /* \"#utility.yul\":26697:26716   */\n      swap1\n      pop\n        /* \"#utility.yul\":26356:26722   */\n      swap2\n      swap1\n      pop\n      jump\t// out\n        /* \"#utility.yul\":26728:27147   */\n    tag_418:\n        /* \"#utility.yul\":26894:26898   */\n      0x00\n        /* \"#utility.yul\":26932:26934   */\n      0x20\n        /* \"#utility.yul\":26921:26930   */\n      dup3\n        /* \"#utility.yul\":26917:26935   */\n      add\n        /* \"#utility.yul\":26909:26935   */\n      swap1\n      pop\n        /* \"#utility.yul\":26981:26990   */\n      dup2\n        /* \"#utility.yul\":26975:26979   */\n      dup2\n        /* \"#utility.yul\":26971:26991   */\n      sub\n        /* \"#utility.yul\":26967:26968   */\n      0x00\n        /* \"#utility.yul\":26956:26965   */\n      dup4\n        /* \"#utility.yul\":26952:26969   */\n      add\n        /* \"#utility.yul\":26945:26992   */\n      mstore\n        /* \"#utility.yul\":27009:27140   */\n      tag_836\n        /* \"#utility.yul\":27135:27139   */\n      dup2\n        /* \"#utility.yul\":27009:27140   */\n      tag_534\n      jump\t// in\n    tag_836:\n        /* \"#utility.yul\":27001:27140   */\n      swap1\n      pop\n        /* \"#utility.yul\":26728:27147   */\n      swap2\n      swap1\n      pop\n      jump\t// out\n        /* \"#utility.yul\":27153:27332   */\n    tag_535:\n        /* \"#utility.yul\":27293:27324   */\n      0x416464726573733a2063616c6c20746f206e6f6e2d636f6e7472616374000000\n        /* \"#utility.yul\":27289:27290   */\n      0x00\n        /* \"#utility.yul\":27281:27287   */\n      dup3\n        /* \"#utility.yul\":27277:27291   */\n      add\n        /* \"#utility.yul\":27270:27325   */\n      mstore\n        /* \"#utility.yul\":27153:27332   */\n      pop\n      jump\t// out\n        /* \"#utility.yul\":27338:27704   */\n    tag_536:\n        /* \"#utility.yul\":27480:27483   */\n      0x00\n        /* \"#utility.yul\":27501:27568   */\n      tag_839\n        /* \"#utility.yul\":27565:27567   */\n      0x1d\n        /* \"#utility.yul\":27560:27563   */\n      dup4\n        /* \"#utility.yul\":27501:27568   */\n      tag_490\n      jump\t// in\n    tag_839:\n        /* \"#utility.yul\":27494:27568   */\n      swap2\n      pop\n        /* \"#utility.yul\":27577:27670   */\n      tag_840\n        /* \"#utility.yul\":27666:27669   */\n      dup3\n        /* \"#utility.yul\":27577:27670   */\n      tag_535\n      jump\t// in\n    tag_840:\n        /* \"#utility.yul\":27695:27697   */\n      0x20\n        /* \"#utility.yul\":27690:27693   */\n      dup3\n        /* \"#utility.yul\":27686:27698   */\n      add\n        /* \"#utility.yul\":27679:27698   */\n      swap1\n      pop\n        /* \"#utility.yul\":27338:27704   */\n      swap2\n      swap1\n      pop\n      jump\t// out\n        /* \"#utility.yul\":27710:28129   */\n    tag_440:\n        /* \"#utility.yul\":27876:27880   */\n      0x00\n        /* \"#utility.yul\":27914:27916   */\n      0x20\n        /* \"#utility.yul\":27903:27912   */\n      dup3\n        /* \"#utility.yul\":27899:27917   */\n      add\n        /* \"#utility.yul\":27891:27917   */\n      swap1\n      pop\n        /* \"#utility.yul\":27963:27972   */\n      dup2\n        /* \"#utility.yul\":27957:27961   */\n      dup2\n        /* \"#utility.yul\":27953:27973   */\n      sub\n        /* \"#utility.yul\":27949:27950   */\n      0x00\n        /* \"#utility.yul\":27938:27947   */\n      dup4\n        /* \"#utility.yul\":27934:27951   */\n      add\n        /* \"#utility.yul\":27927:27974   */\n      mstore\n        /* \"#utility.yul\":27991:28122   */\n      tag_842\n        /* \"#utility.yul\":28117:28121   */\n      dup2\n        /* \"#utility.yul\":27991:28122   */\n      tag_536\n      jump\t// in\n    tag_842:\n        /* \"#utility.yul\":27983:28122   */\n      swap1\n      pop\n        /* \"#utility.yul\":27710:28129   */\n      swap2\n      swap1\n      pop\n      jump\t// out\n\n    auxdata: 0xa2646970667358221220d3f95bf10efbe9bb811d252bfe9f0a55fa3b8c0f507a6a2332ce068a92e65ebd64736f6c634300081e0033\n}\n",
				"bytecode": {
					"linkReferences": {},
					"object": "60a06040523073ffffffffffffffffffffffffffffffffffffffff1660809073ffffffffffffffffffffffffffffffffffffffff168152503480156041575f5ffd5b506080516133a36100685f395f81816118ae015281816119030152611abd01526133a35ff3fe60806040526004361061011e575f3560e01c80638da5cb5b1161009f578063bc063e1a11610063578063bc063e1a14610383578063c4d66de8146103ad578063ec979082146103d5578063f2fde38b146103ff578063fc0c546a146104275761011e565b80638da5cb5b1461029c578063a611f359146102c6578063ad3cb1cc146102ee578063ae169a5014610318578063b1283e77146103405761011e565b806352d1902d116100e657806352d1902d146101f45780635c975abb1461021e5780636399d03d14610248578063715018a6146102705780638456cb59146102865761011e565b8063155e4b82146101225780631a38cac61461015e578063354c6199146101865780633f4ba83a146101c25780634f1ef286146101d8575b5f5ffd5b34801561012d575f5ffd5b5061014860048036038101906101439190612552565b610451565b604051610155919061259f565b60405180910390f35b348015610169575f5ffd5b50610184600480360381019061017f91906125ed565b610471565b005b348015610191575f5ffd5b506101ac60048036038101906101a79190612552565b6107b5565b6040516101b9919061259f565b60405180910390f35b3480156101cd575f5ffd5b506101d66107d5565b005b6101f260048036038101906101ed9190612779565b6107e7565b005b3480156101ff575f5ffd5b50610208610806565b60405161021591906127eb565b60405180910390f35b348015610229575f5ffd5b50610232610837565b60405161023f9190612813565b60405180910390f35b348015610253575f5ffd5b5061026e6004803603810190610269919061282c565b61084c565b005b34801561027b575f5ffd5b50610284610a94565b005b348015610291575f5ffd5b5061029a610aa7565b005b3480156102a7575f5ffd5b506102b0610ab9565b6040516102bd9190612866565b60405180910390f35b3480156102d1575f5ffd5b506102ec60048036038101906102e79190612926565b610aee565b005b3480156102f9575f5ffd5b50610302610e22565b60405161030f91906129ea565b60405180910390f35b348015610323575f5ffd5b5061033e6004803603810190610339919061282c565b610e5b565b005b34801561034b575f5ffd5b506103666004803603810190610361919061282c565b611339565b60405161037a989796959493929190612ad4565b60405180910390f35b34801561038e575f5ffd5b5061039761140e565b6040516103a49190612b50565b60405180910390f35b3480156103b8575f5ffd5b506103d360048036038101906103ce9190612b69565b611413565b005b3480156103e0575f5ffd5b506103e96115ec565b6040516103f6919061259f565b60405180910390f35b34801561040a575f5ffd5b5061042560048036038101906104209190612b69565b6115f2565b005b348015610432575f5ffd5b5061043b611676565b6040516104489190612bef565b60405180910390f35b6068602052815f5260405f20602052805f5260405f205f91509150505481565b61047961169b565b6104816116e8565b5f60665f8581526020019081526020015f209050806001015f9054906101000a900467ffffffffffffffff1667ffffffffffffffff1642106104ef576040517f0b5f6bf000000000000000000000000000000000000000000000000000000000815260040160405180910390fd5b80600101600a9054906101000a900460ff1615610538576040517faa43cb2d00000000000000000000000000000000000000000000000000000000815260040160405180910390fd5b5f8203610571576040517f2c5211c600000000000000000000000000000000000000000000000000000000815260040160405180910390fd5b6105bf33308460645f9054906101000a900473ffffffffffffffffffffffffffffffffffffffff1673ffffffffffffffffffffffffffffffffffffffff16611732909392919063ffffffff16565b821561068f578160675f8681526020019081526020015f205f3373ffffffffffffffffffffffffffffffffffffffff1673ffffffffffffffffffffffffffffffffffffffff1681526020019081526020015f205f8282546106209190612c35565b9250508190555081815f015f8282829054906101000a90046fffffffffffffffffffffffffffffffff166106549190612c68565b92506101000a8154816fffffffffffffffffffffffffffffffff02191690836fffffffffffffffffffffffffffffffff160217905550610756565b8160685f8681526020019081526020015f205f3373ffffffffffffffffffffffffffffffffffffffff1673ffffffffffffffffffffffffffffffffffffffff1681526020019081526020015f205f8282546106ea9190612c35565b9250508190555081815f0160108282829054906101000a90046fffffffffffffffffffffffffffffffff1661071f9190612c68565b92506101000a8154816fffffffffffffffffffffffffffffffff02191690836fffffffffffffffffffffffffffffffff1602179055505b3373ffffffffffffffffffffffffffffffffffffffff16847f4af71b021e799c62c158bd54636ca8da2fa26115a21a2dc6efe486ec104fd15f858560405161079f929190612cab565b60405180910390a3506107b06117bb565b505050565b6067602052815f5260405f20602052805f5260405f205f91509150505481565b6107dd6117c4565b6107e561184b565b565b6107ef6118ac565b6107f882611992565b610802828261199d565b5050565b5f61080f611abb565b7f360894a13ba1a3210667c828492db98dca3e2076cc3735a920a3ca505d382bbc5f1b905090565b5f60325f9054906101000a900460ff16905090565b61085461169b565b5f60665f8381526020019081526020015f209050806001015f9054906101000a900467ffffffffffffffff1667ffffffffffffffff164210156108c3576040517f0b55ac7400000000000000000000000000000000000000000000000000000000815260040160405180910390fd5b80600101600a9054906101000a900460ff161561090c576040517faa43cb2d00000000000000000000000000000000000000000000000000000000815260040160405180910390fd5b5f81600101600c9054906101000a900473ffffffffffffffffffffffffffffffffffffffff1673ffffffffffffffffffffffffffffffffffffffff1663feaf968c6040518163ffffffff1660e01b815260040160a060405180830381865afa15801561097a573d5f5f3e3d5ffd5b505050506040513d601f19601f8201168201806040525081019061099e9190612d39565b505050915050600182600101600a6101000a81548160ff021916908315150217905550816002015481126109fe57600182600101600b6101000a81548160ff021916908360038111156109f4576109f3612a52565b5b0217905550610a2c565b600282600101600b6101000a81548160ff02191690836003811115610a2657610a25612a52565b5b02179055505b827f739f283563fb51ab6b89ee95d937b2e63a6cfcb83c385dbebb629f9d97bd43e683600101600b9054906101000a900460ff166003811115610a7257610a71612a52565b5b604051610a7f9190612dcb565b60405180910390a25050610a916117bb565b50565b610a9c6117c4565b610aa55f611b42565b565b610aaf6117c4565b610ab7611c13565b565b5f5f610ac3611c75565b9050805f015f9054906101000a900473ffffffffffffffffffffffffffffffffffffffff1691505090565b610af66117c4565b600a61ffff168361ffff161115610b39576040517fcd4e616700000000000000000000000000000000000000000000000000000000815260040160405180910390fd5b5f73ffffffffffffffffffffffffffffffffffffffff168273ffffffffffffffffffffffffffffffffffffffff1603610b9e576040517f9589a27d00000000000000000000000000000000000000000000000000000000815260040160405180910390fd5b6040518061010001604052805f6fffffffffffffffffffffffffffffffff1681526020015f6fffffffffffffffffffffffffffffffff1681526020018567ffffffffffffffff1642610bf09190612c35565b67ffffffffffffffff1681526020018461ffff1681526020015f151581526020015f6003811115610c2457610c23612a52565b5b81526020018373ffffffffffffffffffffffffffffffffffffffff1681526020018281525060665f60655481526020019081526020015f205f820151815f015f6101000a8154816fffffffffffffffffffffffffffffffff02191690836fffffffffffffffffffffffffffffffff1602179055506020820151815f0160106101000a8154816fffffffffffffffffffffffffffffffff02191690836fffffffffffffffffffffffffffffffff1602179055506040820151816001015f6101000a81548167ffffffffffffffff021916908367ffffffffffffffff16021790555060608201518160010160086101000a81548161ffff021916908361ffff160217905550608082015181600101600a6101000a81548160ff02191690831515021790555060a082015181600101600b6101000a81548160ff02191690836003811115610d7257610d71612a52565b5b021790555060c082015181600101600c6101000a81548173ffffffffffffffffffffffffffffffffffffffff021916908373ffffffffffffffffffffffffffffffffffffffff16021790555060e082015181600201559050506065547fb466446070e4bf49a6413e2bbfaf36e4ef8be12140dd09e3fa50af78e0941e6982604051610dfd9190612de4565b60405180910390a260655f815480929190610e1790612dfd565b919050555050505050565b6040518060400160405280600581526020017f352e302e3000000000000000000000000000000000000000000000000000000081525081565b610e6361169b565b5f60665f8381526020019081526020015f20905080600101600a9054906101000a900460ff16610ebf576040517f2e96c72600000000000000000000000000000000000000000000000000000000815260040160405180910390fd5b5f5f60016003811115610ed557610ed4612a52565b5b83600101600b9054906101000a900460ff166003811115610ef957610ef8612a52565b5b0361102e5760675f8581526020019081526020015f205f3373ffffffffffffffffffffffffffffffffffffffff1673ffffffffffffffffffffffffffffffffffffffff1681526020019081526020015f205491505f8203610f86576040517f618c724200000000000000000000000000000000000000000000000000000000815260040160405180910390fd5b825f015f9054906101000a90046fffffffffffffffffffffffffffffffff166fffffffffffffffffffffffffffffffff16835f0160109054906101000a90046fffffffffffffffffffffffffffffffff16845f015f9054906101000a90046fffffffffffffffffffffffffffffffff166110009190612c68565b6fffffffffffffffffffffffffffffffff168361101d9190612e44565b6110279190612eb2565b905061115b565b60685f8581526020019081526020015f205f3373ffffffffffffffffffffffffffffffffffffffff1673ffffffffffffffffffffffffffffffffffffffff1681526020019081526020015f205491505f82036110b6576040517f618c724200000000000000000000000000000000000000000000000000000000815260040160405180910390fd5b825f0160109054906101000a90046fffffffffffffffffffffffffffffffff166fffffffffffffffffffffffffffffffff16835f0160109054906101000a90046fffffffffffffffffffffffffffffffff16845f015f9054906101000a90046fffffffffffffffffffffffffffffffff166111319190612c68565b6fffffffffffffffffffffffffffffffff168361114e9190612e44565b6111589190612eb2565b90505b5f60648460010160089054906101000a900461ffff1661ffff16836111809190612e44565b61118a9190612eb2565b905080826111989190612ee2565b91505f60675f8781526020019081526020015f205f3373ffffffffffffffffffffffffffffffffffffffff1673ffffffffffffffffffffffffffffffffffffffff1681526020019081526020015f20819055505f60685f8781526020019081526020015f205f3373ffffffffffffffffffffffffffffffffffffffff1673ffffffffffffffffffffffffffffffffffffffff1681526020019081526020015f208190555061128f611247610ab9565b8260645f9054906101000a900473ffffffffffffffffffffffffffffffffffffffff1673ffffffffffffffffffffffffffffffffffffffff16611c9c9092919063ffffffff16565b6112db338360645f9054906101000a900473ffffffffffffffffffffffffffffffffffffffff1673ffffffffffffffffffffffffffffffffffffffff16611c9c9092919063ffffffff16565b3373ffffffffffffffffffffffffffffffffffffffff16857f24b5efa61dd1cfc659205a97fb8ed868f3cb8c81922bab2b96423e5de1de2cb784604051611322919061259f565b60405180910390a3505050506113366117bb565b50565b6066602052805f5260405f205f91509050805f015f9054906101000a90046fffffffffffffffffffffffffffffffff1690805f0160109054906101000a90046fffffffffffffffffffffffffffffffff1690806001015f9054906101000a900467ffffffffffffffff16908060010160089054906101000a900461ffff169080600101600a9054906101000a900460ff169080600101600b9054906101000a900460ff169080600101600c9054906101000a900473ffffffffffffffffffffffffffffffffffffffff16908060020154905088565b600a81565b5f61141c611d22565b90505f815f0160089054906101000a900460ff161590505f825f015f9054906101000a900467ffffffffffffffff1690505f5f8267ffffffffffffffff161480156114645750825b90505f60018367ffffffffffffffff1614801561149757505f3073ffffffffffffffffffffffffffffffffffffffff163b145b9050811580156114a5575080155b156114dc576040517ff92ee8a900000000000000000000000000000000000000000000000000000000815260040160405180910390fd5b6001855f015f6101000a81548167ffffffffffffffff021916908367ffffffffffffffff1602179055508315611529576001855f0160086101000a81548160ff0219169083151502179055505b61153233611d35565b61153a611d49565b611542611d5b565b61154a611d6d565b8560645f6101000a81548173ffffffffffffffffffffffffffffffffffffffff021916908373ffffffffffffffffffffffffffffffffffffffff16021790555083156115e4575f855f0160086101000a81548160ff0219169083151502179055507fc7f505b2f371ae2175ee4913f4499e1f2633a7b5936321eed1cdaeb6115181d260016040516115db9190612f4e565b60405180910390a15b505050505050565b60655481565b6115fa6117c4565b5f73ffffffffffffffffffffffffffffffffffffffff168173ffffffffffffffffffffffffffffffffffffffff160361166a575f6040517f1e4fbdf70000000000000000000000000000000000000000000000000000000081526004016116619190612866565b60405180910390fd5b61167381611b42565b50565b60645f9054906101000a900473ffffffffffffffffffffffffffffffffffffffff1681565b60025f54036116df576040517f08c379a00000000000000000000000000000000000000000000000000000000081526004016116d690612fb1565b60405180910390fd5b60025f81905550565b6116f0610837565b15611730576040517f08c379a000000000000000000000000000000000000000000000000000000000815260040161172790613019565b60405180910390fd5b565b6117b5846323b872dd60e01b85858560405160240161175393929190613037565b604051602081830303815290604052907bffffffffffffffffffffffffffffffffffffffffffffffffffffffff19166020820180517bffffffffffffffffffffffffffffffffffffffffffffffffffffffff8381831617835250505050611d77565b50505050565b60015f81905550565b6117cc611e3d565b73ffffffffffffffffffffffffffffffffffffffff166117ea610ab9565b73ffffffffffffffffffffffffffffffffffffffff16146118495761180d611e3d565b6040517f118cdaa70000000000000000000000000000000000000000000000000000000081526004016118409190612866565b60405180910390fd5b565b611853611e44565b5f60325f6101000a81548160ff0219169083151502179055507f5db9ee0a495bf2e6ff9c91a7834c1ba4fdd244a5e8aa4e537bd38aeae4b073aa611895611e3d565b6040516118a29190612866565b60405180910390a1565b7f000000000000000000000000000000000000000000000000000000000000000073ffffffffffffffffffffffffffffffffffffffff163073ffffffffffffffffffffffffffffffffffffffff16148061195957507f000000000000000000000000000000000000000000000000000000000000000073ffffffffffffffffffffffffffffffffffffffff16611940611e8d565b73ffffffffffffffffffffffffffffffffffffffff1614155b15611990576040517fe07c8dba00000000000000000000000000000000000000000000000000000000815260040160405180910390fd5b565b61199a6117c4565b50565b8173ffffffffffffffffffffffffffffffffffffffff166352d1902d6040518163ffffffff1660e01b8152600401602060405180830381865afa925050508015611a0557506040513d601f19601f82011682018060405250810190611a029190613096565b60015b611a4657816040517f4c9c8ce3000000000000000000000000000000000000000000000000000000008152600401611a3d9190612866565b60405180910390fd5b7f360894a13ba1a3210667c828492db98dca3e2076cc3735a920a3ca505d382bbc5f1b8114611aac57806040517faa1d49a4000000000000000000000000000000000000000000000000000000008152600401611aa391906127eb565b60405180910390fd5b611ab68383611ee0565b505050565b7f000000000000000000000000000000000000000000000000000000000000000073ffffffffffffffffffffffffffffffffffffffff163073ffffffffffffffffffffffffffffffffffffffff1614611b40576040517fe07c8dba00000000000000000000000000000000000000000000000000000000815260040160405180910390fd5b565b5f611b4b611c75565b90505f815f015f9054906101000a900473ffffffffffffffffffffffffffffffffffffffff16905082825f015f6101000a81548173ffffffffffffffffffffffffffffffffffffffff021916908373ffffffffffffffffffffffffffffffffffffffff1602179055508273ffffffffffffffffffffffffffffffffffffffff168173ffffffffffffffffffffffffffffffffffffffff167f8be0079c531659141344cd1fd0a4f28419497f9722a3daafe3b4186f6b6457e060405160405180910390a3505050565b611c1b6116e8565b600160325f6101000a81548160ff0219169083151502179055507f62e78cea01bee320cd4e420270b5ea74000d11b0c9f74754ebdbfc544b05a258611c5e611e3d565b604051611c6b9190612866565b60405180910390a1565b5f7f9016d09d72d40fdae2fd8ceac6b6234c7706214fd39c1cd1e609a0528c199300905090565b611d1d8363a9059cbb60e01b8484604051602401611cbb9291906130c1565b604051602081830303815290604052907bffffffffffffffffffffffffffffffffffffffffffffffffffffffff19166020820180517bffffffffffffffffffffffffffffffffffffffffffffffffffffffff8381831617835250505050611d77565b505050565b5f5f611d2c611f52565b90508091505090565b611d3d611f7b565b611d4681611fbb565b50565b611d51611f7b565b611d5961203f565b565b611d63611f7b565b611d6b612050565b565b611d75611f7b565b565b5f611dd8826040518060400160405280602081526020017f5361666545524332303a206c6f772d6c6576656c2063616c6c206661696c65648152508573ffffffffffffffffffffffffffffffffffffffff166120739092919063ffffffff16565b90505f81511480611df9575080806020019051810190611df891906130fc565b5b611e38576040517f08c379a0000000000000000000000000000000000000000000000000000000008152600401611e2f90613197565b60405180910390fd5b505050565b5f33905090565b611e4c610837565b611e8b576040517f08c379a0000000000000000000000000000000000000000000000000000000008152600401611e82906131ff565b60405180910390fd5b565b5f611eb97f360894a13ba1a3210667c828492db98dca3e2076cc3735a920a3ca505d382bbc5f1b61208a565b5f015f9054906101000a900473ffffffffffffffffffffffffffffffffffffffff16905090565b611ee982612093565b8173ffffffffffffffffffffffffffffffffffffffff167fbc7cd75a20ee27fd9adebab32041f755214dbc6bffa90cc0225b39da2e5c2d3b60405160405180910390a25f81511115611f4557611f3f828261215c565b50611f4e565b611f4d6121dc565b5b5050565b5f7ff0c57e16840df040f15088dc2f81fe391c3923bec73e23a9662efc9c229c6a005f1b905090565b611f83612218565b611fb9576040517fd7e6bcf800000000000000000000000000000000000000000000000000000000815260040160405180910390fd5b565b611fc3611f7b565b5f73ffffffffffffffffffffffffffffffffffffffff168173ffffffffffffffffffffffffffffffffffffffff1603612033575f6040517f1e4fbdf700000000000000000000000000000000000000000000000000000000815260040161202a9190612866565b60405180910390fd5b61203c81611b42565b50565b612047611f7b565b60015f81905550565b612058611f7b565b5f60325f6101000a81548160ff021916908315150217905550565b606061208184845f85612236565b90509392505050565b5f819050919050565b5f8173ffffffffffffffffffffffffffffffffffffffff163b036120ee57806040517f4c9c8ce30000000000000000000000000000000000000000000000000000000081526004016120e59190612866565b60405180910390fd5b8061211a7f360894a13ba1a3210667c828492db98dca3e2076cc3735a920a3ca505d382bbc5f1b61208a565b5f015f6101000a81548173ffffffffffffffffffffffffffffffffffffffff021916908373ffffffffffffffffffffffffffffffffffffffff16021790555050565b60605f5f8473ffffffffffffffffffffffffffffffffffffffff16846040516121859190613261565b5f60405180830381855af49150503d805f81146121bd576040519150601f19603f3d011682016040523d82523d5f602084013e6121c2565b606091505b50915091506121d28583836122ff565b9250505092915050565b5f341115612216576040517fb398979f00000000000000000000000000000000000000000000000000000000815260040160405180910390fd5b565b5f612221611d22565b5f0160089054906101000a900460ff16905090565b60608247101561227b576040517f08c379a0000000000000000000000000000000000000000000000000000000008152600401612272906132e7565b60405180910390fd5b5f5f8673ffffffffffffffffffffffffffffffffffffffff1685876040516122a39190613261565b5f6040518083038185875af1925050503d805f81146122dd576040519150601f19603f3d011682016040523d82523d5f602084013e6122e2565b606091505b50915091506122f38783838761238c565b92505050949350505050565b6060826123145761230f82612400565b612384565b5f825114801561233a57505f8473ffffffffffffffffffffffffffffffffffffffff163b145b1561237c57836040517f9996b3150000000000000000000000000000000000000000000000000000000081526004016123739190612866565b60405180910390fd5b819050612385565b5b9392505050565b606083156123ed575f8351036123e5576123a585612443565b6123e4576040517f08c379a00000000000000000000000000000000000000000000000000000000081526004016123db9061334f565b60405180910390fd5b5b8290506123f8565b6123f78383612465565b5b949350505050565b5f8151111561241157805160208201fd5b6040517fd6bda27500000000000000000000000000000000000000000000000000000000815260040160405180910390fd5b5f5f8273ffffffffffffffffffffffffffffffffffffffff163b119050919050565b5f825111156124775781518083602001fd5b806040517f08c379a00000000000000000000000000000000000000000000000000000000081526004016124ab91906129ea565b60405180910390fd5b5f604051905090565b5f5ffd5b5f5ffd5b5f819050919050565b6124d7816124c5565b81146124e1575f5ffd5b50565b5f813590506124f2816124ce565b92915050565b5f73ffffffffffffffffffffffffffffffffffffffff82169050919050565b5f612521826124f8565b9050919050565b61253181612517565b811461253b575f5ffd5b50565b5f8135905061254c81612528565b92915050565b5f5f60408385031215612568576125676124bd565b5b5f612575858286016124e4565b92505060206125868582860161253e565b9150509250929050565b612599816124c5565b82525050565b5f6020820190506125b25f830184612590565b92915050565b5f8115159050919050565b6125cc816125b8565b81146125d6575f5ffd5b50565b5f813590506125e7816125c3565b92915050565b5f5f5f60608486031215612604576126036124bd565b5b5f612611868287016124e4565b9350506020612622868287016125d9565b9250506040612633868287016124e4565b9150509250925092565b5f5ffd5b5f5ffd5b5f601f19601f8301169050919050565b7f4e487b71000000000000000000000000000000000000000000000000000000005f52604160045260245ffd5b61268b82612645565b810181811067ffffffffffffffff821117156126aa576126a9612655565b5b80604052505050565b5f6126bc6124b4565b90506126c88282612682565b919050565b5f67ffffffffffffffff8211156126e7576126e6612655565b5b6126f082612645565b9050602081019050919050565b828183375f83830152505050565b5f61271d612718846126cd565b6126b3565b90508281526020810184848401111561273957612738612641565b5b6127448482856126fd565b509392505050565b5f82601f8301126127605761275f61263d565b5b813561277084826020860161270b565b91505092915050565b5f5f6040838503121561278f5761278e6124bd565b5b5f61279c8582860161253e565b925050602083013567ffffffffffffffff8111156127bd576127bc6124c1565b5b6127c98582860161274c565b9150509250929050565b5f819050919050565b6127e5816127d3565b82525050565b5f6020820190506127fe5f8301846127dc565b92915050565b61280d816125b8565b82525050565b5f6020820190506128265f830184612804565b92915050565b5f60208284031215612841576128406124bd565b5b5f61284e848285016124e4565b91505092915050565b61286081612517565b82525050565b5f6020820190506128795f830184612857565b92915050565b5f67ffffffffffffffff82169050919050565b61289b8161287f565b81146128a5575f5ffd5b50565b5f813590506128b681612892565b92915050565b5f61ffff82169050919050565b6128d2816128bc565b81146128dc575f5ffd5b50565b5f813590506128ed816128c9565b92915050565b5f819050919050565b612905816128f3565b811461290f575f5ffd5b50565b5f81359050612920816128fc565b92915050565b5f5f5f5f6080858703121561293e5761293d6124bd565b5b5f61294b878288016128a8565b945050602061295c878288016128df565b935050604061296d8782880161253e565b925050606061297e87828801612912565b91505092959194509250565b5f81519050919050565b5f82825260208201905092915050565b8281835e5f83830152505050565b5f6129bc8261298a565b6129c68185612994565b93506129d68185602086016129a4565b6129df81612645565b840191505092915050565b5f6020820190508181035f830152612a0281846129b2565b905092915050565b5f6fffffffffffffffffffffffffffffffff82169050919050565b612a2e81612a0a565b82525050565b612a3d8161287f565b82525050565b612a4c816128bc565b82525050565b7f4e487b71000000000000000000000000000000000000000000000000000000005f52602160045260245ffd5b60048110612a9057612a8f612a52565b5b50565b5f819050612aa082612a7f565b919050565b5f612aaf82612a93565b9050919050565b612abf81612aa5565b82525050565b612ace816128f3565b82525050565b5f61010082019050612ae85f83018b612a25565b612af5602083018a612a25565b612b026040830189612a34565b612b0f6060830188612a43565b612b1c6080830187612804565b612b2960a0830186612ab6565b612b3660c0830185612857565b612b4360e0830184612ac5565b9998505050505050505050565b5f602082019050612b635f830184612a43565b92915050565b5f60208284031215612b7e57612b7d6124bd565b5b5f612b8b8482850161253e565b91505092915050565b5f819050919050565b5f612bb7612bb2612bad846124f8565b612b94565b6124f8565b9050919050565b5f612bc882612b9d565b9050919050565b5f612bd982612bbe565b9050919050565b612be981612bcf565b82525050565b5f602082019050612c025f830184612be0565b92915050565b7f4e487b71000000000000000000000000000000000000000000000000000000005f52601160045260245ffd5b5f612c3f826124c5565b9150612c4a836124c5565b9250828201905080821115612c6257612c61612c08565b5b92915050565b5f612c7282612a0a565b9150612c7d83612a0a565b925082820190506fffffffffffffffffffffffffffffffff811115612ca557612ca4612c08565b5b92915050565b5f604082019050612cbe5f830185612804565b612ccb6020830184612590565b9392505050565b5f69ffffffffffffffffffff82169050919050565b612cf081612cd2565b8114612cfa575f5ffd5b50565b5f81519050612d0b81612ce7565b92915050565b5f81519050612d1f816128fc565b92915050565b5f81519050612d33816124ce565b92915050565b5f5f5f5f5f60a08688031215612d5257612d516124bd565b5b5f612d5f88828901612cfd565b9550506020612d7088828901612d11565b9450506040612d8188828901612d25565b9350506060612d9288828901612d25565b9250506080612da388828901612cfd565b9150509295509295909350565b5f60ff82169050919050565b612dc581612db0565b82525050565b5f602082019050612dde5f830184612dbc565b92915050565b5f602082019050612df75f830184612ac5565b92915050565b5f612e07826124c5565b91507fffffffffffffffffffffffffffffffffffffffffffffffffffffffffffffffff8203612e3957612e38612c08565b5b600182019050919050565b5f612e4e826124c5565b9150612e59836124c5565b9250828202612e67816124c5565b91508282048414831517612e7e57612e7d612c08565b5b5092915050565b7f4e487b71000000000000000000000000000000000000000000000000000000005f52601260045260245ffd5b5f612ebc826124c5565b9150612ec7836124c5565b925082612ed757612ed6612e85565b5b828204905092915050565b5f612eec826124c5565b9150612ef7836124c5565b9250828203905081811115612f0f57612f0e612c08565b5b92915050565b5f819050919050565b5f612f38612f33612f2e84612f15565b612b94565b61287f565b9050919050565b612f4881612f1e565b82525050565b5f602082019050612f615f830184612f3f565b92915050565b7f5265656e7472616e637947756172643a207265656e7472616e742063616c6c005f82015250565b5f612f9b601f83612994565b9150612fa682612f67565b602082019050919050565b5f6020820190508181035f830152612fc881612f8f565b9050919050565b7f5061757361626c653a20706175736564000000000000000000000000000000005f82015250565b5f613003601083612994565b915061300e82612fcf565b602082019050919050565b5f6020820190508181035f83015261303081612ff7565b9050919050565b5f60608201905061304a5f830186612857565b6130576020830185612857565b6130646040830184612590565b949350505050565b613075816127d3565b811461307f575f5ffd5b50565b5f815190506130908161306c565b92915050565b5f602082840312156130ab576130aa6124bd565b5b5f6130b884828501613082565b91505092915050565b5f6040820190506130d45f830185612857565b6130e16020830184612590565b9392505050565b5f815190506130f6816125c3565b92915050565b5f60208284031215613111576131106124bd565b5b5f61311e848285016130e8565b91505092915050565b7f5361666545524332303a204552433230206f7065726174696f6e20646964206e5f8201527f6f74207375636365656400000000000000000000000000000000000000000000602082015250565b5f613181602a83612994565b915061318c82613127565b604082019050919050565b5f6020820190508181035f8301526131ae81613175565b9050919050565b7f5061757361626c653a206e6f74207061757365640000000000000000000000005f82015250565b5f6131e9601483612994565b91506131f4826131b5565b602082019050919050565b5f6020820190508181035f830152613216816131dd565b9050919050565b5f81519050919050565b5f81905092915050565b5f61323b8261321d565b6132458185613227565b93506132558185602086016129a4565b80840191505092915050565b5f61326c8284613231565b915081905092915050565b7f416464726573733a20696e73756666696369656e742062616c616e636520666f5f8201527f722063616c6c0000000000000000000000000000000000000000000000000000602082015250565b5f6132d1602683612994565b91506132dc82613277565b604082019050919050565b5f6020820190508181035f8301526132fe816132c5565b9050919050565b7f416464726573733a2063616c6c20746f206e6f6e2d636f6e74726163740000005f82015250565b5f613339601d83612994565b915061334482613305565b602082019050919050565b5f6020820190508181035f8301526133668161332d565b905091905056fea2646970667358221220d3f95bf10efbe9bb811d252bfe9f0a55fa3b8c0f507a6a2332ce068a92e65ebd64736f6c634300081e0033",
					"opcodes": "PUSH1 0xA0 PUSH1 0x40 MSTORE ADDRESS PUSH20 0xFFFFFFFFFFFFFFFFFFFFFFFFFFFFFFFFFFFFFFFF AND PUSH1 0x80 SWAP1 PUSH20 0xFFFFFFFFFFFFFFFFFFFFFFFFFFFFFFFFFFFFFFFF AND DUP2 MSTORE POP CALLVALUE DUP1 ISZERO PUSH1 0x41 JUMPI PUSH0 PUSH0 REVERT JUMPDEST POP PUSH1 0x80 MLOAD PUSH2 0x33A3 PUSH2 0x68 PUSH0 CODECOPY PUSH0 DUP2 DUP2 PUSH2 0x18AE ADD MSTORE DUP2 DUP2 PUSH2 0x1903 ADD MSTORE PUSH2 0x1ABD ADD MSTORE PUSH2 0x33A3 PUSH0 RETURN INVALID PUSH1 0x80 PUSH1 0x40 MSTORE PUSH1 0x4 CALLDATASIZE LT PUSH2 0x11E JUMPI PUSH0 CALLDATALOAD PUSH1 0xE0 SHR DUP1 PUSH4 0x8DA5CB5B GT PUSH2 0x9F JUMPI DUP1 PUSH4 0xBC063E1A GT PUSH2 0x63 JUMPI DUP1 PUSH4 0xBC063E1A EQ PUSH2 0x383 JUMPI DUP1 PUSH4 0xC4D66DE8 EQ PUSH2 0x3AD JUMPI DUP1 PUSH4 0xEC979082 EQ PUSH2 0x3D5 JUMPI DUP1 PUSH4 0xF2FDE38B EQ PUSH2 0x3FF JUMPI DUP1 PUSH4 0xFC0C546A EQ PUSH2 0x427 JUMPI PUSH2 0x11E JUMP JUMPDEST DUP1 PUSH4 0x8DA5CB5B EQ PUSH2 0x29C JUMPI DUP1 PUSH4 0xA611F359 EQ PUSH2 0x2C6 JUMPI DUP1 PUSH4 0xAD3CB1CC EQ PUSH2 0x2EE JUMPI DUP1 PUSH4 0xAE169A50 EQ PUSH2 0x318 JUMPI DUP1 PUSH4 0xB1283E77 EQ PUSH2 0x340 JUMPI PUSH2 0x11E JUMP JUMPDEST DUP1 PUSH4 0x52D1902D GT PUSH2 0xE6 JUMPI DUP1 PUSH4 0x52D1902D EQ PUSH2 0x1F4 JUMPI DUP1 PUSH4 0x5C975ABB EQ PUSH2 0x21E JUMPI DUP1 PUSH4 0x6399D03D EQ PUSH2 0x248 JUMPI DUP1 PUSH4 0x715018A6 EQ PUSH2 0x270 JUMPI DUP1 PUSH4 0x8456CB59 EQ PUSH2 0x286 JUMPI PUSH2 0x11E JUMP JUMPDEST DUP1 PUSH4 0x155E4B82 EQ PUSH2 0x122 JUMPI DUP1 PUSH4 0x1A38CAC6 EQ PUSH2 0x15E JUMPI DUP1 PUSH4 0x354C6199 EQ PUSH2 0x186 JUMPI DUP1 PUSH4 0x3F4BA83A EQ PUSH2 0x1C2 JUMPI DUP1 PUSH4 0x4F1EF286 EQ PUSH2 0x1D8 JUMPI JUMPDEST PUSH0 PUSH0 REVERT JUMPDEST CALLVALUE DUP1 ISZERO PUSH2 0x12D JUMPI PUSH0 PUSH0 REVERT JUMPDEST POP PUSH2 0x148 PUSH1 0x4 DUP1 CALLDATASIZE SUB DUP2 ADD SWAP1 PUSH2 0x143 SWAP2 SWAP1 PUSH2 0x2552 JUMP JUMPDEST PUSH2 0x451 JUMP JUMPDEST PUSH1 0x40 MLOAD PUSH2 0x155 SWAP2 SWAP1 PUSH2 0x259F JUMP JUMPDEST PUSH1 0x40 MLOAD DUP1 SWAP2 SUB SWAP1 RETURN JUMPDEST CALLVALUE DUP1 ISZERO PUSH2 0x169 JUMPI PUSH0 PUSH0 REVERT JUMPDEST POP PUSH2 0x184 PUSH1 0x4 DUP1 CALLDATASIZE SUB DUP2 ADD SWAP1 PUSH2 0x17F SWAP2 SWAP1 PUSH2 0x25ED JUMP JUMPDEST PUSH2 0x471 JUMP JUMPDEST STOP JUMPDEST CALLVALUE DUP1 ISZERO PUSH2 0x191 JUMPI PUSH0 PUSH0 REVERT JUMPDEST POP PUSH2 0x1AC PUSH1 0x4 DUP1 CALLDATASIZE SUB DUP2 ADD SWAP1 PUSH2 0x1A7 SWAP2 SWAP1 PUSH2 0x2552 JUMP JUMPDEST PUSH2 0x7B5 JUMP JUMPDEST PUSH1 0x40 MLOAD PUSH2 0x1B9 SWAP2 SWAP1 PUSH2 0x259F JUMP JUMPDEST PUSH1 0x40 MLOAD DUP1 SWAP2 SUB SWAP1 RETURN JUMPDEST CALLVALUE DUP1 ISZERO PUSH2 0x1CD JUMPI PUSH0 PUSH0 REVERT JUMPDEST POP PUSH2 0x1D6 PUSH2 0x7D5 JUMP JUMPDEST STOP JUMPDEST PUSH2 0x1F2 PUSH1 0x4 DUP1 CALLDATASIZE SUB DUP2 ADD SWAP1 PUSH2 0x1ED SWAP2 SWAP1 PUSH2 0x2779 JUMP JUMPDEST PUSH2 0x7E7 JUMP JUMPDEST STOP JUMPDEST CALLVALUE DUP1 ISZERO PUSH2 0x1FF JUMPI PUSH0 PUSH0 REVERT JUMPDEST POP PUSH2 0x208 PUSH2 0x806 JUMP JUMPDEST PUSH1 0x40 MLOAD PUSH2 0x215 SWAP2 SWAP1 PUSH2 0x27EB JUMP JUMPDEST PUSH1 0x40 MLOAD DUP1 SWAP2 SUB SWAP1 RETURN JUMPDEST CALLVALUE DUP1 ISZERO PUSH2 0x229 JUMPI PUSH0 PUSH0 REVERT JUMPDEST POP PUSH2 0x232 PUSH2 0x837 JUMP JUMPDEST PUSH1 0x40 MLOAD PUSH2 0x23F SWAP2 SWAP1 PUSH2 0x2813 JUMP JUMPDEST PUSH1 0x40 MLOAD DUP1 SWAP2 SUB SWAP1 RETURN JUMPDEST CALLVALUE DUP1 ISZERO PUSH2 0x253 JUMPI PUSH0 PUSH0 REVERT JUMPDEST POP PUSH2 0x26E PUSH1 0x4 DUP1 CALLDATASIZE SUB DUP2 ADD SWAP1 PUSH2 0x269 SWAP2 SWAP1 PUSH2 0x282C JUMP JUMPDEST PUSH2 0x84C JUMP JUMPDEST STOP JUMPDEST CALLVALUE DUP1 ISZERO PUSH2 0x27B JUMPI PUSH0 PUSH0 REVERT JUMPDEST POP PUSH2 0x284 PUSH2 0xA94 JUMP JUMPDEST STOP JUMPDEST CALLVALUE DUP1 ISZERO PUSH2 0x291 JUMPI PUSH0 PUSH0 REVERT JUMPDEST POP PUSH2 0x29A PUSH2 0xAA7 JUMP JUMPDEST STOP JUMPDEST CALLVALUE DUP1 ISZERO PUSH2 0x2A7 JUMPI PUSH0 PUSH0 REVERT JUMPDEST POP PUSH2 0x2B0 PUSH2 0xAB9 JUMP JUMPDEST PUSH1 0x40 MLOAD PUSH2 0x2BD SWAP2 SWAP1 PUSH2 0x2866 JUMP JUMPDEST PUSH1 0x40 MLOAD DUP1 SWAP2 SUB SWAP1 RETURN JUMPDEST CALLVALUE DUP1 ISZERO PUSH2 0x2D1 JUMPI PUSH0 PUSH0 REVERT JUMPDEST POP PUSH2 0x2EC PUSH1 0x4 DUP1 CALLDATASIZE SUB DUP2 ADD SWAP1 PUSH2 0x2E7 SWAP2 SWAP1 PUSH2 0x2926 JUMP JUMPDEST PUSH2 0xAEE JUMP JUMPDEST STOP JUMPDEST CALLVALUE DUP1 ISZERO PUSH2 0x2F9 JUMPI PUSH0 PUSH0 REVERT JUMPDEST POP PUSH2 0x302 PUSH2 0xE22 JUMP JUMPDEST PUSH1 0x40 MLOAD PUSH2 0x30F SWAP2 SWAP1 PUSH2 0x29EA JUMP JUMPDEST PUSH1 0x40 MLOAD DUP1 SWAP2 SUB SWAP1 RETURN JUMPDEST CALLVALUE DUP1 ISZERO PUSH2 0x323 JUMPI PUSH0 PUSH0 REVERT JUMPDEST POP PUSH2 0x33E PUSH1 0x4 DUP1 CALLDATASIZE SUB DUP2 ADD SWAP1 PUSH2 0x339 SWAP2 SWAP1 PUSH2 0x282C JUMP JUMPDEST PUSH2 0xE5B JUMP JUMPDEST STOP JUMPDEST CALLVALUE DUP1 ISZERO PUSH2 0x34B JUMPI PUSH0 PUSH0 REVERT JUMPDEST POP PUSH2 0x366 PUSH1 0x4 DUP1 CALLDATASIZE SUB DUP2 ADD SWAP1 PUSH2 0x361 SWAP2 SWAP1 PUSH2 0x282C JUMP JUMPDEST PUSH2 0x1339 JUMP JUMPDEST PUSH1 0x40 MLOAD PUSH2 0x37A SWAP9 SWAP8 SWAP7 SWAP6 SWAP5 SWAP4 SWAP3 SWAP2 SWAP1 PUSH2 0x2AD4 JUMP JUMPDEST PUSH1 0x40 MLOAD DUP1 SWAP2 SUB SWAP1 RETURN JUMPDEST CALLVALUE DUP1 ISZERO PUSH2 0x38E JUMPI PUSH0 PUSH0 REVERT JUMPDEST POP PUSH2 0x397 PUSH2 0x140E JUMP JUMPDEST PUSH1 0x40 MLOAD PUSH2 0x3A4 SWAP2 SWAP1 PUSH2 0x2B50 JUMP JUMPDEST PUSH1 0x40 MLOAD DUP1 SWAP2 SUB SWAP1 RETURN JUMPDEST CALLVALUE DUP1 ISZERO PUSH2 0x3B8 JUMPI PUSH0 PUSH0 REVERT JUMPDEST POP PUSH2 0x3D3 PUSH1 0x4 DUP1 CALLDATASIZE SUB DUP2 ADD SWAP1 PUSH2 0x3CE SWAP2 SWAP1 PUSH2 0x2B69 JUMP JUMPDEST PUSH2 0x1413 JUMP JUMPDEST STOP JUMPDEST CALLVALUE DUP1 ISZERO PUSH2 0x3E0 JUMPI PUSH0 PUSH0 REVERT JUMPDEST POP PUSH2 0x3E9 PUSH2 0x15EC JUMP JUMPDEST PUSH1 0x40 MLOAD PUSH2 0x3F6 SWAP2 SWAP1 PUSH2 0x259F JUMP JUMPDEST PUSH1 0x40 MLOAD DUP1 SWAP2 SUB SWAP1 RETURN JUMPDEST CALLVALUE DUP1 ISZERO PUSH2 0x40A JUMPI PUSH0 PUSH0 REVERT JUMPDEST POP PUSH2 0x425 PUSH1 0x4 DUP1 CALLDATASIZE SUB DUP2 ADD SWAP1 PUSH2 0x420 SWAP2 SWAP1 PUSH2 0x2B69 JUMP JUMPDEST PUSH2 0x15F2 JUMP JUMPDEST STOP JUMPDEST CALLVALUE DUP1 ISZERO PUSH2 0x432 JUMPI PUSH0 PUSH0 REVERT JUMPDEST POP PUSH2 0x43B PUSH2 0x1676 JUMP JUMPDEST PUSH1 0x40 MLOAD PUSH2 0x448 SWAP2 SWAP1 PUSH2 0x2BEF JUMP JUMPDEST PUSH1 0x40 MLOAD DUP1 SWAP2 SUB SWAP1 RETURN JUMPDEST PUSH1 0x68 PUSH1 0x20 MSTORE DUP2 PUSH0 MSTORE PUSH1 0x40 PUSH0 KECCAK256 PUSH1 0x20 MSTORE DUP1 PUSH0 MSTORE PUSH1 0x40 PUSH0 KECCAK256 PUSH0 SWAP2 POP SWAP2 POP POP SLOAD DUP2 JUMP JUMPDEST PUSH2 0x479 PUSH2 0x169B JUMP JUMPDEST PUSH2 0x481 PUSH2 0x16E8 JUMP JUMPDEST PUSH0 PUSH1 0x66 PUSH0 DUP6 DUP2 MSTORE PUSH1 0x20 ADD SWAP1 DUP2 MSTORE PUSH1 0x20 ADD PUSH0 KECCAK256 SWAP1 POP DUP1 PUSH1 0x1 ADD PUSH0 SWAP1 SLOAD SWAP1 PUSH2 0x100 EXP SWAP1 DIV PUSH8 0xFFFFFFFFFFFFFFFF AND PUSH8 0xFFFFFFFFFFFFFFFF AND TIMESTAMP LT PUSH2 0x4EF JUMPI PUSH1 0x40 MLOAD PUSH32 0xB5F6BF000000000000000000000000000000000000000000000000000000000 DUP2 MSTORE PUSH1 0x4 ADD PUSH1 0x40 MLOAD DUP1 SWAP2 SUB SWAP1 REVERT JUMPDEST DUP1 PUSH1 0x1 ADD PUSH1 0xA SWAP1 SLOAD SWAP1 PUSH2 0x100 EXP SWAP1 DIV PUSH1 0xFF AND ISZERO PUSH2 0x538 JUMPI PUSH1 0x40 MLOAD PUSH32 0xAA43CB2D00000000000000000000000000000000000000000000000000000000 DUP2 MSTORE PUSH1 0x4 ADD PUSH1 0x40 MLOAD DUP1 SWAP2 SUB SWAP1 REVERT JUMPDEST PUSH0 DUP3 SUB PUSH2 0x571 JUMPI PUSH1 0x40 MLOAD PUSH32 0x2C5211C600000000000000000000000000000000000000000000000000000000 DUP2 MSTORE PUSH1 0x4 ADD PUSH1 0x40 MLOAD DUP1 SWAP2 SUB SWAP1 REVERT JUMPDEST PUSH2 0x5BF CALLER ADDRESS DUP5 PUSH1 0x64 PUSH0 SWAP1 SLOAD SWAP1 PUSH2 0x100 EXP SWAP1 DIV PUSH20 0xFFFFFFFFFFFFFFFFFFFFFFFFFFFFFFFFFFFFFFFF AND PUSH20 0xFFFFFFFFFFFFFFFFFFFFFFFFFFFFFFFFFFFFFFFF AND PUSH2 0x1732 SWAP1 SWAP4 SWAP3 SWAP2 SWAP1 PUSH4 0xFFFFFFFF AND JUMP JUMPDEST DUP3 ISZERO PUSH2 0x68F JUMPI DUP2 PUSH1 0x67 PUSH0 DUP7 DUP2 MSTORE PUSH1 0x20 ADD SWAP1 DUP2 MSTORE PUSH1 0x20 ADD PUSH0 KECCAK256 PUSH0 CALLER PUSH20 0xFFFFFFFFFFFFFFFFFFFFFFFFFFFFFFFFFFFFFFFF AND PUSH20 0xFFFFFFFFFFFFFFFFFFFFFFFFFFFFFFFFFFFFFFFF AND DUP2 MSTORE PUSH1 0x20 ADD SWAP1 DUP2 MSTORE PUSH1 0x20 ADD PUSH0 KECCAK256 PUSH0 DUP3 DUP3 SLOAD PUSH2 0x620 SWAP2 SWAP1 PUSH2 0x2C35 JUMP JUMPDEST SWAP3 POP POP DUP2 SWAP1 SSTORE POP DUP2 DUP2 PUSH0 ADD PUSH0 DUP3 DUP3 DUP3 SWAP1 SLOAD SWAP1 PUSH2 0x100 EXP SWAP1 DIV PUSH16 0xFFFFFFFFFFFFFFFFFFFFFFFFFFFFFFFF AND PUSH2 0x654 SWAP2 SWAP1 PUSH2 0x2C68 JUMP JUMPDEST SWAP3 POP PUSH2 0x100 EXP DUP2 SLOAD DUP2 PUSH16 0xFFFFFFFFFFFFFFFFFFFFFFFFFFFFFFFF MUL NOT AND SWAP1 DUP4 PUSH16 0xFFFFFFFFFFFFFFFFFFFFFFFFFFFFFFFF AND MUL OR SWAP1 SSTORE POP PUSH2 0x756 JUMP JUMPDEST DUP2 PUSH1 0x68 PUSH0 DUP7 DUP2 MSTORE PUSH1 0x20 ADD SWAP1 DUP2 MSTORE PUSH1 0x20 ADD PUSH0 KECCAK256 PUSH0 CALLER PUSH20 0xFFFFFFFFFFFFFFFFFFFFFFFFFFFFFFFFFFFFFFFF AND PUSH20 0xFFFFFFFFFFFFFFFFFFFFFFFFFFFFFFFFFFFFFFFF AND DUP2 MSTORE PUSH1 0x20 ADD SWAP1 DUP2 MSTORE PUSH1 0x20 ADD PUSH0 KECCAK256 PUSH0 DUP3 DUP3 SLOAD PUSH2 0x6EA SWAP2 SWAP1 PUSH2 0x2C35 JUMP JUMPDEST SWAP3 POP POP DUP2 SWAP1 SSTORE POP DUP2 DUP2 PUSH0 ADD PUSH1 0x10 DUP3 DUP3 DUP3 SWAP1 SLOAD SWAP1 PUSH2 0x100 EXP SWAP1 DIV PUSH16 0xFFFFFFFFFFFFFFFFFFFFFFFFFFFFFFFF AND PUSH2 0x71F SWAP2 SWAP1 PUSH2 0x2C68 JUMP JUMPDEST SWAP3 POP PUSH2 0x100 EXP DUP2 SLOAD DUP2 PUSH16 0xFFFFFFFFFFFFFFFFFFFFFFFFFFFFFFFF MUL NOT AND SWAP1 DUP4 PUSH16 0xFFFFFFFFFFFFFFFFFFFFFFFFFFFFFFFF AND MUL OR SWAP1 SSTORE POP JUMPDEST CALLER PUSH20 0xFFFFFFFFFFFFFFFFFFFFFFFFFFFFFFFFFFFFFFFF AND DUP5 PUSH32 0x4AF71B021E799C62C158BD54636CA8DA2FA26115A21A2DC6EFE486EC104FD15F DUP6 DUP6 PUSH1 0x40 MLOAD PUSH2 0x79F SWAP3 SWAP2 SWAP1 PUSH2 0x2CAB JUMP JUMPDEST PUSH1 0x40 MLOAD DUP1 SWAP2 SUB SWAP1 LOG3 POP PUSH2 0x7B0 PUSH2 0x17BB JUMP JUMPDEST POP POP POP JUMP JUMPDEST PUSH1 0x67 PUSH1 0x20 MSTORE DUP2 PUSH0 MSTORE PUSH1 0x40 PUSH0 KECCAK256 PUSH1 0x20 MSTORE DUP1 PUSH0 MSTORE PUSH1 0x40 PUSH0 KECCAK256 PUSH0 SWAP2 POP SWAP2 POP POP SLOAD DUP2 JUMP JUMPDEST PUSH2 0x7DD PUSH2 0x17C4 JUMP JUMPDEST PUSH2 0x7E5 PUSH2 0x184B JUMP JUMPDEST JUMP JUMPDEST PUSH2 0x7EF PUSH2 0x18AC JUMP JUMPDEST PUSH2 0x7F8 DUP3 PUSH2 0x1992 JUMP JUMPDEST PUSH2 0x802 DUP3 DUP3 PUSH2 0x199D JUMP JUMPDEST POP POP JUMP JUMPDEST PUSH0 PUSH2 0x80F PUSH2 0x1ABB JUMP JUMPDEST PUSH32 0x360894A13BA1A3210667C828492DB98DCA3E2076CC3735A920A3CA505D382BBC PUSH0 SHL SWAP1 POP SWAP1 JUMP JUMPDEST PUSH0 PUSH1 0x32 PUSH0 SWAP1 SLOAD SWAP1 PUSH2 0x100 EXP SWAP1 DIV PUSH1 0xFF AND SWAP1 POP SWAP1 JUMP JUMPDEST PUSH2 0x854 PUSH2 0x169B JUMP JUMPDEST PUSH0 PUSH1 0x66 PUSH0 DUP4 DUP2 MSTORE PUSH1 0x20 ADD SWAP1 DUP2 MSTORE PUSH1 0x20 ADD PUSH0 KECCAK256 SWAP1 POP DUP1 PUSH1 0x1 ADD PUSH0 SWAP1 SLOAD SWAP1 PUSH2 0x100 EXP SWAP1 DIV PUSH8 0xFFFFFFFFFFFFFFFF AND PUSH8 0xFFFFFFFFFFFFFFFF AND TIMESTAMP LT ISZERO PUSH2 0x8C3 JUMPI PUSH1 0x40 MLOAD PUSH32 0xB55AC7400000000000000000000000000000000000000000000000000000000 DUP2 MSTORE PUSH1 0x4 ADD PUSH1 0x40 MLOAD DUP1 SWAP2 SUB SWAP1 REVERT JUMPDEST DUP1 PUSH1 0x1 ADD PUSH1 0xA SWAP1 SLOAD SWAP1 PUSH2 0x100 EXP SWAP1 DIV PUSH1 0xFF AND ISZERO PUSH2 0x90C JUMPI PUSH1 0x40 MLOAD PUSH32 0xAA43CB2D00000000000000000000000000000000000000000000000000000000 DUP2 MSTORE PUSH1 0x4 ADD PUSH1 0x40 MLOAD DUP1 SWAP2 SUB SWAP1 REVERT JUMPDEST PUSH0 DUP2 PUSH1 0x1 ADD PUSH1 0xC SWAP1 SLOAD SWAP1 PUSH2 0x100 EXP SWAP1 DIV PUSH20 0xFFFFFFFFFFFFFFFFFFFFFFFFFFFFFFFFFFFFFFFF AND PUSH20 0xFFFFFFFFFFFFFFFFFFFFFFFFFFFFFFFFFFFFFFFF AND PUSH4 0xFEAF968C PUSH1 0x40 MLOAD DUP2 PUSH4 0xFFFFFFFF AND PUSH1 0xE0 SHL DUP2 MSTORE PUSH1 0x4 ADD PUSH1 0xA0 PUSH1 0x40 MLOAD DUP1 DUP4 SUB DUP2 DUP7 GAS STATICCALL ISZERO DUP1 ISZERO PUSH2 0x97A JUMPI RETURNDATASIZE PUSH0 PUSH0 RETURNDATACOPY RETURNDATASIZE PUSH0 REVERT JUMPDEST POP POP POP POP PUSH1 0x40 MLOAD RETURNDATASIZE PUSH1 0x1F NOT PUSH1 0x1F DUP3 ADD AND DUP3 ADD DUP1 PUSH1 0x40 MSTORE POP DUP2 ADD SWAP1 PUSH2 0x99E SWAP2 SWAP1 PUSH2 0x2D39 JUMP JUMPDEST POP POP POP SWAP2 POP POP PUSH1 0x1 DUP3 PUSH1 0x1 ADD PUSH1 0xA PUSH2 0x100 EXP DUP2 SLOAD DUP2 PUSH1 0xFF MUL NOT AND SWAP1 DUP4 ISZERO ISZERO MUL OR SWAP1 SSTORE POP DUP2 PUSH1 0x2 ADD SLOAD DUP2 SLT PUSH2 0x9FE JUMPI PUSH1 0x1 DUP3 PUSH1 0x1 ADD PUSH1 0xB PUSH2 0x100 EXP DUP2 SLOAD DUP2 PUSH1 0xFF MUL NOT AND SWAP1 DUP4 PUSH1 0x3 DUP2 GT ISZERO PUSH2 0x9F4 JUMPI PUSH2 0x9F3 PUSH2 0x2A52 JUMP JUMPDEST JUMPDEST MUL OR SWAP1 SSTORE POP PUSH2 0xA2C JUMP JUMPDEST PUSH1 0x2 DUP3 PUSH1 0x1 ADD PUSH1 0xB PUSH2 0x100 EXP DUP2 SLOAD DUP2 PUSH1 0xFF MUL NOT AND SWAP1 DUP4 PUSH1 0x3 DUP2 GT ISZERO PUSH2 0xA26 JUMPI PUSH2 0xA25 PUSH2 0x2A52 JUMP JUMPDEST JUMPDEST MUL OR SWAP1 SSTORE POP JUMPDEST DUP3 PUSH32 0x739F283563FB51AB6B89EE95D937B2E63A6CFCB83C385DBEBB629F9D97BD43E6 DUP4 PUSH1 0x1 ADD PUSH1 0xB SWAP1 SLOAD SWAP1 PUSH2 0x100 EXP SWAP1 DIV PUSH1 0xFF AND PUSH1 0x3 DUP2 GT ISZERO PUSH2 0xA72 JUMPI PUSH2 0xA71 PUSH2 0x2A52 JUMP JUMPDEST JUMPDEST PUSH1 0x40 MLOAD PUSH2 0xA7F SWAP2 SWAP1 PUSH2 0x2DCB JUMP JUMPDEST PUSH1 0x40 MLOAD DUP1 SWAP2 SUB SWAP1 LOG2 POP POP PUSH2 0xA91 PUSH2 0x17BB JUMP JUMPDEST POP JUMP JUMPDEST PUSH2 0xA9C PUSH2 0x17C4 JUMP JUMPDEST PUSH2 0xAA5 PUSH0 PUSH2 0x1B42 JUMP JUMPDEST JUMP JUMPDEST PUSH2 0xAAF PUSH2 0x17C4 JUMP JUMPDEST PUSH2 0xAB7 PUSH2 0x1C13 JUMP JUMPDEST JUMP JUMPDEST PUSH0 PUSH0 PUSH2 0xAC3 PUSH2 0x1C75 JUMP JUMPDEST SWAP1 POP DUP1 PUSH0 ADD PUSH0 SWAP1 SLOAD SWAP1 PUSH2 0x100 EXP SWAP1 DIV PUSH20 0xFFFFFFFFFFFFFFFFFFFFFFFFFFFFFFFFFFFFFFFF AND SWAP2 POP POP SWAP1 JUMP JUMPDEST PUSH2 0xAF6 PUSH2 0x17C4 JUMP JUMPDEST PUSH1 0xA PUSH2 0xFFFF AND DUP4 PUSH2 0xFFFF AND GT ISZERO PUSH2 0xB39 JUMPI PUSH1 0x40 MLOAD PUSH32 0xCD4E616700000000000000000000000000000000000000000000000000000000 DUP2 MSTORE PUSH1 0x4 ADD PUSH1 0x40 MLOAD DUP1 SWAP2 SUB SWAP1 REVERT JUMPDEST PUSH0 PUSH20 0xFFFFFFFFFFFFFFFFFFFFFFFFFFFFFFFFFFFFFFFF AND DUP3 PUSH20 0xFFFFFFFFFFFFFFFFFFFFFFFFFFFFFFFFFFFFFFFF AND SUB PUSH2 0xB9E JUMPI PUSH1 0x40 MLOAD PUSH32 0x9589A27D00000000000000000000000000000000000000000000000000000000 DUP2 MSTORE PUSH1 0x4 ADD PUSH1 0x40 MLOAD DUP1 SWAP2 SUB SWAP1 REVERT JUMPDEST PUSH1 0x40 MLOAD DUP1 PUSH2 0x100 ADD PUSH1 0x40 MSTORE DUP1 PUSH0 PUSH16 0xFFFFFFFFFFFFFFFFFFFFFFFFFFFFFFFF AND DUP2 MSTORE PUSH1 0x20 ADD PUSH0 PUSH16 0xFFFFFFFFFFFFFFFFFFFFFFFFFFFFFFFF AND DUP2 MSTORE PUSH1 0x20 ADD DUP6 PUSH8 0xFFFFFFFFFFFFFFFF AND TIMESTAMP PUSH2 0xBF0 SWAP2 SWAP1 PUSH2 0x2C35 JUMP JUMPDEST PUSH8 0xFFFFFFFFFFFFFFFF AND DUP2 MSTORE PUSH1 0x20 ADD DUP5 PUSH2 0xFFFF AND DUP2 MSTORE PUSH1 0x20 ADD PUSH0 ISZERO ISZERO DUP2 MSTORE PUSH1 0x20 ADD PUSH0 PUSH1 0x3 DUP2 GT ISZERO PUSH2 0xC24 JUMPI PUSH2 0xC23 PUSH2 0x2A52 JUMP JUMPDEST JUMPDEST DUP2 MSTORE PUSH1 0x20 ADD DUP4 PUSH20 0xFFFFFFFFFFFFFFFFFFFFFFFFFFFFFFFFFFFFFFFF AND DUP2 MSTORE PUSH1 0x20 ADD DUP3 DUP2 MSTORE POP PUSH1 0x66 PUSH0 PUSH1 0x65 SLOAD DUP2 MSTORE PUSH1 0x20 ADD SWAP1 DUP2 MSTORE PUSH1 0x20 ADD PUSH0 KECCAK256 PUSH0 DUP3 ADD MLOAD DUP2 PUSH0 ADD PUSH0 PUSH2 0x100 EXP DUP2 SLOAD DUP2 PUSH16 0xFFFFFFFFFFFFFFFFFFFFFFFFFFFFFFFF MUL NOT AND SWAP1 DUP4 PUSH16 0xFFFFFFFFFFFFFFFFFFFFFFFFFFFFFFFF AND MUL OR SWAP1 SSTORE POP PUSH1 0x20 DUP3 ADD MLOAD DUP2 PUSH0 ADD PUSH1 0x10 PUSH2 0x100 EXP DUP2 SLOAD DUP2 PUSH16 0xFFFFFFFFFFFFFFFFFFFFFFFFFFFFFFFF MUL NOT AND SWAP1 DUP4 PUSH16 0xFFFFFFFFFFFFFFFFFFFFFFFFFFFFFFFF AND MUL OR SWAP1 SSTORE POP PUSH1 0x40 DUP3 ADD MLOAD DUP2 PUSH1 0x1 ADD PUSH0 PUSH2 0x100 EXP DUP2 SLOAD DUP2 PUSH8 0xFFFFFFFFFFFFFFFF MUL NOT AND SWAP1 DUP4 PUSH8 0xFFFFFFFFFFFFFFFF AND MUL OR SWAP1 SSTORE POP PUSH1 0x60 DUP3 ADD MLOAD DUP2 PUSH1 0x1 ADD PUSH1 0x8 PUSH2 0x100 EXP DUP2 SLOAD DUP2 PUSH2 0xFFFF MUL NOT AND SWAP1 DUP4 PUSH2 0xFFFF AND MUL OR SWAP1 SSTORE POP PUSH1 0x80 DUP3 ADD MLOAD DUP2 PUSH1 0x1 ADD PUSH1 0xA PUSH2 0x100 EXP DUP2 SLOAD DUP2 PUSH1 0xFF MUL NOT AND SWAP1 DUP4 ISZERO ISZERO MUL OR SWAP1 SSTORE POP PUSH1 0xA0 DUP3 ADD MLOAD DUP2 PUSH1 0x1 ADD PUSH1 0xB PUSH2 0x100 EXP DUP2 SLOAD DUP2 PUSH1 0xFF MUL NOT AND SWAP1 DUP4 PUSH1 0x3 DUP2 GT ISZERO PUSH2 0xD72 JUMPI PUSH2 0xD71 PUSH2 0x2A52 JUMP JUMPDEST JUMPDEST MUL OR SWAP1 SSTORE POP PUSH1 0xC0 DUP3 ADD MLOAD DUP2 PUSH1 0x1 ADD PUSH1 0xC PUSH2 0x100 EXP DUP2 SLOAD DUP2 PUSH20 0xFFFFFFFFFFFFFFFFFFFFFFFFFFFFFFFFFFFFFFFF MUL NOT AND SWAP1 DUP4 PUSH20 0xFFFFFFFFFFFFFFFFFFFFFFFFFFFFFFFFFFFFFFFF AND MUL OR SWAP1 SSTORE POP PUSH1 0xE0 DUP3 ADD MLOAD DUP2 PUSH1 0x2 ADD SSTORE SWAP1 POP POP PUSH1 0x65 SLOAD PUSH32 0xB466446070E4BF49A6413E2BBFAF36E4EF8BE12140DD09E3FA50AF78E0941E69 DUP3 PUSH1 0x40 MLOAD PUSH2 0xDFD SWAP2 SWAP1 PUSH2 0x2DE4 JUMP JUMPDEST PUSH1 0x40 MLOAD DUP1 SWAP2 SUB SWAP1 LOG2 PUSH1 0x65 PUSH0 DUP2 SLOAD DUP1 SWAP3 SWAP2 SWAP1 PUSH2 0xE17 SWAP1 PUSH2 0x2DFD JUMP JUMPDEST SWAP2 SWAP1 POP SSTORE POP POP POP POP POP JUMP JUMPDEST PUSH1 0x40 MLOAD DUP1 PUSH1 0x40 ADD PUSH1 0x40 MSTORE DUP1 PUSH1 0x5 DUP2 MSTORE PUSH1 0x20 ADD PUSH32 0x352E302E30000000000000000000000000000000000000000000000000000000 DUP2 MSTORE POP DUP2 JUMP JUMPDEST PUSH2 0xE63 PUSH2 0x169B JUMP JUMPDEST PUSH0 PUSH1 0x66 PUSH0 DUP4 DUP2 MSTORE PUSH1 0x20 ADD SWAP1 DUP2 MSTORE PUSH1 0x20 ADD PUSH0 KECCAK256 SWAP1 POP DUP1 PUSH1 0x1 ADD PUSH1 0xA SWAP1 SLOAD SWAP1 PUSH2 0x100 EXP SWAP1 DIV PUSH1 0xFF AND PUSH2 0xEBF JUMPI PUSH1 0x40 MLOAD PUSH32 0x2E96C72600000000000000000000000000000000000000000000000000000000 DUP2 MSTORE PUSH1 0x4 ADD PUSH1 0x40 MLOAD DUP1 SWAP2 SUB SWAP1 REVERT JUMPDEST PUSH0 PUSH0 PUSH1 0x1 PUSH1 0x3 DUP2 GT ISZERO PUSH2 0xED5 JUMPI PUSH2 0xED4 PUSH2 0x2A52 JUMP JUMPDEST JUMPDEST DUP4 PUSH1 0x1 ADD PUSH1 0xB SWAP1 SLOAD SWAP1 PUSH2 0x100 EXP SWAP1 DIV PUSH1 0xFF AND PUSH1 0x3 DUP2 GT ISZERO PUSH2 0xEF9 JUMPI PUSH2 0xEF8 PUSH2 0x2A52 JUMP JUMPDEST JUMPDEST SUB PUSH2 0x102E JUMPI PUSH1 0x67 PUSH0 DUP6 DUP2 MSTORE PUSH1 0x20 ADD SWAP1 DUP2 MSTORE PUSH1 0x20 ADD PUSH0 KECCAK256 PUSH0 CALLER PUSH20 0xFFFFFFFFFFFFFFFFFFFFFFFFFFFFFFFFFFFFFFFF AND PUSH20 0xFFFFFFFFFFFFFFFFFFFFFFFFFFFFFFFFFFFFFFFF AND DUP2 MSTORE PUSH1 0x20 ADD SWAP1 DUP2 MSTORE PUSH1 0x20 ADD PUSH0 KECCAK256 SLOAD SWAP2 POP PUSH0 DUP3 SUB PUSH2 0xF86 JUMPI PUSH1 0x40 MLOAD PUSH32 0x618C724200000000000000000000000000000000000000000000000000000000 DUP2 MSTORE PUSH1 0x4 ADD PUSH1 0x40 MLOAD DUP1 SWAP2 SUB SWAP1 REVERT JUMPDEST DUP3 PUSH0 ADD PUSH0 SWAP1 SLOAD SWAP1 PUSH2 0x100 EXP SWAP1 DIV PUSH16 0xFFFFFFFFFFFFFFFFFFFFFFFFFFFFFFFF AND PUSH16 0xFFFFFFFFFFFFFFFFFFFFFFFFFFFFFFFF AND DUP4 PUSH0 ADD PUSH1 0x10 SWAP1 SLOAD SWAP1 PUSH2 0x100 EXP SWAP1 DIV PUSH16 0xFFFFFFFFFFFFFFFFFFFFFFFFFFFFFFFF AND DUP5 PUSH0 ADD PUSH0 SWAP1 SLOAD SWAP1 PUSH2 0x100 EXP SWAP1 DIV PUSH16 0xFFFFFFFFFFFFFFFFFFFFFFFFFFFFFFFF AND PUSH2 0x1000 SWAP2 SWAP1 PUSH2 0x2C68 JUMP JUMPDEST PUSH16 0xFFFFFFFFFFFFFFFFFFFFFFFFFFFFFFFF AND DUP4 PUSH2 0x101D SWAP2 SWAP1 PUSH2 0x2E44 JUMP JUMPDEST PUSH2 0x1027 SWAP2 SWAP1 PUSH2 0x2EB2 JUMP JUMPDEST SWAP1 POP PUSH2 0x115B JUMP JUMPDEST PUSH1 0x68 PUSH0 DUP6 DUP2 MSTORE PUSH1 0x20 ADD SWAP1 DUP2 MSTORE PUSH1 0x20 ADD PUSH0 KECCAK256 PUSH0 CALLER PUSH20 0xFFFFFFFFFFFFFFFFFFFFFFFFFFFFFFFFFFFFFFFF AND PUSH20 0xFFFFFFFFFFFFFFFFFFFFFFFFFFFFFFFFFFFFFFFF AND DUP2 MSTORE PUSH1 0x20 ADD SWAP1 DUP2 MSTORE PUSH1 0x20 ADD PUSH0 KECCAK256 SLOAD SWAP2 POP PUSH0 DUP3 SUB PUSH2 0x10B6 JUMPI PUSH1 0x40 MLOAD PUSH32 0x618C724200000000000000000000000000000000000000000000000000000000 DUP2 MSTORE PUSH1 0x4 ADD PUSH1 0x40 MLOAD DUP1 SWAP2 SUB SWAP1 REVERT JUMPDEST DUP3 PUSH0 ADD PUSH1 0x10 SWAP1 SLOAD SWAP1 PUSH2 0x100 EXP SWAP1 DIV PUSH16 0xFFFFFFFFFFFFFFFFFFFFFFFFFFFFFFFF AND PUSH16 0xFFFFFFFFFFFFFFFFFFFFFFFFFFFFFFFF AND DUP4 PUSH0 ADD PUSH1 0x10 SWAP1 SLOAD SWAP1 PUSH2 0x100 EXP SWAP1 DIV PUSH16 0xFFFFFFFFFFFFFFFFFFFFFFFFFFFFFFFF AND DUP5 PUSH0 ADD PUSH0 SWAP1 SLOAD SWAP1 PUSH2 0x100 EXP SWAP1 DIV PUSH16 0xFFFFFFFFFFFFFFFFFFFFFFFFFFFFFFFF AND PUSH2 0x1131 SWAP2 SWAP1 PUSH2 0x2C68 JUMP JUMPDEST PUSH16 0xFFFFFFFFFFFFFFFFFFFFFFFFFFFFFFFF AND DUP4 PUSH2 0x114E SWAP2 SWAP1 PUSH2 0x2E44 JUMP JUMPDEST PUSH2 0x1158 SWAP2 SWAP1 PUSH2 0x2EB2 JUMP JUMPDEST SWAP1 POP JUMPDEST PUSH0 PUSH1 0x64 DUP5 PUSH1 0x1 ADD PUSH1 0x8 SWAP1 SLOAD SWAP1 PUSH2 0x100 EXP SWAP1 DIV PUSH2 0xFFFF AND PUSH2 0xFFFF AND DUP4 PUSH2 0x1180 SWAP2 SWAP1 PUSH2 0x2E44 JUMP JUMPDEST PUSH2 0x118A SWAP2 SWAP1 PUSH2 0x2EB2 JUMP JUMPDEST SWAP1 POP DUP1 DUP3 PUSH2 0x1198 SWAP2 SWAP1 PUSH2 0x2EE2 JUMP JUMPDEST SWAP2 POP PUSH0 PUSH1 0x67 PUSH0 DUP8 DUP2 MSTORE PUSH1 0x20 ADD SWAP1 DUP2 MSTORE PUSH1 0x20 ADD PUSH0 KECCAK256 PUSH0 CALLER PUSH20 0xFFFFFFFFFFFFFFFFFFFFFFFFFFFFFFFFFFFFFFFF AND PUSH20 0xFFFFFFFFFFFFFFFFFFFFFFFFFFFFFFFFFFFFFFFF AND DUP2 MSTORE PUSH1 0x20 ADD SWAP1 DUP2 MSTORE PUSH1 0x20 ADD PUSH0 KECCAK256 DUP2 SWAP1 SSTORE POP PUSH0 PUSH1 0x68 PUSH0 DUP8 DUP2 MSTORE PUSH1 0x20 ADD SWAP1 DUP2 MSTORE PUSH1 0x20 ADD PUSH0 KECCAK256 PUSH0 CALLER PUSH20 0xFFFFFFFFFFFFFFFFFFFFFFFFFFFFFFFFFFFFFFFF AND PUSH20 0xFFFFFFFFFFFFFFFFFFFFFFFFFFFFFFFFFFFFFFFF AND DUP2 MSTORE PUSH1 0x20 ADD SWAP1 DUP2 MSTORE PUSH1 0x20 ADD PUSH0 KECCAK256 DUP2 SWAP1 SSTORE POP PUSH2 0x128F PUSH2 0x1247 PUSH2 0xAB9 JUMP JUMPDEST DUP3 PUSH1 0x64 PUSH0 SWAP1 SLOAD SWAP1 PUSH2 0x100 EXP SWAP1 DIV PUSH20 0xFFFFFFFFFFFFFFFFFFFFFFFFFFFFFFFFFFFFFFFF AND PUSH20 0xFFFFFFFFFFFFFFFFFFFFFFFFFFFFFFFFFFFFFFFF AND PUSH2 0x1C9C SWAP1 SWAP3 SWAP2 SWAP1 PUSH4 0xFFFFFFFF AND JUMP JUMPDEST PUSH2 0x12DB CALLER DUP4 PUSH1 0x64 PUSH0 SWAP1 SLOAD SWAP1 PUSH2 0x100 EXP SWAP1 DIV PUSH20 0xFFFFFFFFFFFFFFFFFFFFFFFFFFFFFFFFFFFFFFFF AND PUSH20 0xFFFFFFFFFFFFFFFFFFFFFFFFFFFFFFFFFFFFFFFF AND PUSH2 0x1C9C SWAP1 SWAP3 SWAP2 SWAP1 PUSH4 0xFFFFFFFF AND JUMP JUMPDEST CALLER PUSH20 0xFFFFFFFFFFFFFFFFFFFFFFFFFFFFFFFFFFFFFFFF AND DUP6 PUSH32 0x24B5EFA61DD1CFC659205A97FB8ED868F3CB8C81922BAB2B96423E5DE1DE2CB7 DUP5 PUSH1 0x40 MLOAD PUSH2 0x1322 SWAP2 SWAP1 PUSH2 0x259F JUMP JUMPDEST PUSH1 0x40 MLOAD DUP1 SWAP2 SUB SWAP1 LOG3 POP POP POP POP PUSH2 0x1336 PUSH2 0x17BB JUMP JUMPDEST POP JUMP JUMPDEST PUSH1 0x66 PUSH1 0x20 MSTORE DUP1 PUSH0 MSTORE PUSH1 0x40 PUSH0 KECCAK256 PUSH0 SWAP2 POP SWAP1 POP DUP1 PUSH0 ADD PUSH0 SWAP1 SLOAD SWAP1 PUSH2 0x100 EXP SWAP1 DIV PUSH16 0xFFFFFFFFFFFFFFFFFFFFFFFFFFFFFFFF AND SWAP1 DUP1 PUSH0 ADD PUSH1 0x10 SWAP1 SLOAD SWAP1 PUSH2 0x100 EXP SWAP1 DIV PUSH16 0xFFFFFFFFFFFFFFFFFFFFFFFFFFFFFFFF AND SWAP1 DUP1 PUSH1 0x1 ADD PUSH0 SWAP1 SLOAD SWAP1 PUSH2 0x100 EXP SWAP1 DIV PUSH8 0xFFFFFFFFFFFFFFFF AND SWAP1 DUP1 PUSH1 0x1 ADD PUSH1 0x8 SWAP1 SLOAD SWAP1 PUSH2 0x100 EXP SWAP1 DIV PUSH2 0xFFFF AND SWAP1 DUP1 PUSH1 0x1 ADD PUSH1 0xA SWAP1 SLOAD SWAP1 PUSH2 0x100 EXP SWAP1 DIV PUSH1 0xFF AND SWAP1 DUP1 PUSH1 0x1 ADD PUSH1 0xB SWAP1 SLOAD SWAP1 PUSH2 0x100 EXP SWAP1 DIV PUSH1 0xFF AND SWAP1 DUP1 PUSH1 0x1 ADD PUSH1 0xC SWAP1 SLOAD SWAP1 PUSH2 0x100 EXP SWAP1 DIV PUSH20 0xFFFFFFFFFFFFFFFFFFFFFFFFFFFFFFFFFFFFFFFF AND SWAP1 DUP1 PUSH1 0x2 ADD SLOAD SWAP1 POP DUP9 JUMP JUMPDEST PUSH1 0xA DUP2 JUMP JUMPDEST PUSH0 PUSH2 0x141C PUSH2 0x1D22 JUMP JUMPDEST SWAP1 POP PUSH0 DUP2 PUSH0 ADD PUSH1 0x8 SWAP1 SLOAD SWAP1 PUSH2 0x100 EXP SWAP1 DIV PUSH1 0xFF AND ISZERO SWAP1 POP PUSH0 DUP3 PUSH0 ADD PUSH0 SWAP1 SLOAD SWAP1 PUSH2 0x100 EXP SWAP1 DIV PUSH8 0xFFFFFFFFFFFFFFFF AND SWAP1 POP PUSH0 PUSH0 DUP3 PUSH8 0xFFFFFFFFFFFFFFFF AND EQ DUP1 ISZERO PUSH2 0x1464 JUMPI POP DUP3 JUMPDEST SWAP1 POP PUSH0 PUSH1 0x1 DUP4 PUSH8 0xFFFFFFFFFFFFFFFF AND EQ DUP1 ISZERO PUSH2 0x1497 JUMPI POP PUSH0 ADDRESS PUSH20 0xFFFFFFFFFFFFFFFFFFFFFFFFFFFFFFFFFFFFFFFF AND EXTCODESIZE EQ JUMPDEST SWAP1 POP DUP2 ISZERO DUP1 ISZERO PUSH2 0x14A5 JUMPI POP DUP1 ISZERO JUMPDEST ISZERO PUSH2 0x14DC JUMPI PUSH1 0x40 MLOAD PUSH32 0xF92EE8A900000000000000000000000000000000000000000000000000000000 DUP2 MSTORE PUSH1 0x4 ADD PUSH1 0x40 MLOAD DUP1 SWAP2 SUB SWAP1 REVERT JUMPDEST PUSH1 0x1 DUP6 PUSH0 ADD PUSH0 PUSH2 0x100 EXP DUP2 SLOAD DUP2 PUSH8 0xFFFFFFFFFFFFFFFF MUL NOT AND SWAP1 DUP4 PUSH8 0xFFFFFFFFFFFFFFFF AND MUL OR SWAP1 SSTORE POP DUP4 ISZERO PUSH2 0x1529 JUMPI PUSH1 0x1 DUP6 PUSH0 ADD PUSH1 0x8 PUSH2 0x100 EXP DUP2 SLOAD DUP2 PUSH1 0xFF MUL NOT AND SWAP1 DUP4 ISZERO ISZERO MUL OR SWAP1 SSTORE POP JUMPDEST PUSH2 0x1532 CALLER PUSH2 0x1D35 JUMP JUMPDEST PUSH2 0x153A PUSH2 0x1D49 JUMP JUMPDEST PUSH2 0x1542 PUSH2 0x1D5B JUMP JUMPDEST PUSH2 0x154A PUSH2 0x1D6D JUMP JUMPDEST DUP6 PUSH1 0x64 PUSH0 PUSH2 0x100 EXP DUP2 SLOAD DUP2 PUSH20 0xFFFFFFFFFFFFFFFFFFFFFFFFFFFFFFFFFFFFFFFF MUL NOT AND SWAP1 DUP4 PUSH20 0xFFFFFFFFFFFFFFFFFFFFFFFFFFFFFFFFFFFFFFFF AND MUL OR SWAP1 SSTORE POP DUP4 ISZERO PUSH2 0x15E4 JUMPI PUSH0 DUP6 PUSH0 ADD PUSH1 0x8 PUSH2 0x100 EXP DUP2 SLOAD DUP2 PUSH1 0xFF MUL NOT AND SWAP1 DUP4 ISZERO ISZERO MUL OR SWAP1 SSTORE POP PUSH32 0xC7F505B2F371AE2175EE4913F4499E1F2633A7B5936321EED1CDAEB6115181D2 PUSH1 0x1 PUSH1 0x40 MLOAD PUSH2 0x15DB SWAP2 SWAP1 PUSH2 0x2F4E JUMP JUMPDEST PUSH1 0x40 MLOAD DUP1 SWAP2 SUB SWAP1 LOG1 JUMPDEST POP POP POP POP POP POP JUMP JUMPDEST PUSH1 0x65 SLOAD DUP2 JUMP JUMPDEST PUSH2 0x15FA PUSH2 0x17C4 JUMP JUMPDEST PUSH0 PUSH20 0xFFFFFFFFFFFFFFFFFFFFFFFFFFFFFFFFFFFFFFFF AND DUP2 PUSH20 0xFFFFFFFFFFFFFFFFFFFFFFFFFFFFFFFFFFFFFFFF AND SUB PUSH2 0x166A JUMPI PUSH0 PUSH1 0x40 MLOAD PUSH32 0x1E4FBDF700000000000000000000000000000000000000000000000000000000 DUP2 MSTORE PUSH1 0x4 ADD PUSH2 0x1661 SWAP2 SWAP1 PUSH2 0x2866 JUMP JUMPDEST PUSH1 0x40 MLOAD DUP1 SWAP2 SUB SWAP1 REVERT JUMPDEST PUSH2 0x1673 DUP2 PUSH2 0x1B42 JUMP JUMPDEST POP JUMP JUMPDEST PUSH1 0x64 PUSH0 SWAP1 SLOAD SWAP1 PUSH2 0x100 EXP SWAP1 DIV PUSH20 0xFFFFFFFFFFFFFFFFFFFFFFFFFFFFFFFFFFFFFFFF AND DUP2 JUMP JUMPDEST PUSH1 0x2 PUSH0 SLOAD SUB PUSH2 0x16DF JUMPI PUSH1 0x40 MLOAD PUSH32 0x8C379A000000000000000000000000000000000000000000000000000000000 DUP2 MSTORE PUSH1 0x4 ADD PUSH2 0x16D6 SWAP1 PUSH2 0x2FB1 JUMP JUMPDEST PUSH1 0x40 MLOAD DUP1 SWAP2 SUB SWAP1 REVERT JUMPDEST PUSH1 0x2 PUSH0 DUP2 SWAP1 SSTORE POP JUMP JUMPDEST PUSH2 0x16F0 PUSH2 0x837 JUMP JUMPDEST ISZERO PUSH2 0x1730 JUMPI PUSH1 0x40 MLOAD PUSH32 0x8C379A000000000000000000000000000000000000000000000000000000000 DUP2 MSTORE PUSH1 0x4 ADD PUSH2 0x1727 SWAP1 PUSH2 0x3019 JUMP JUMPDEST PUSH1 0x40 MLOAD DUP1 SWAP2 SUB SWAP1 REVERT JUMPDEST JUMP JUMPDEST PUSH2 0x17B5 DUP5 PUSH4 0x23B872DD PUSH1 0xE0 SHL DUP6 DUP6 DUP6 PUSH1 0x40 MLOAD PUSH1 0x24 ADD PUSH2 0x1753 SWAP4 SWAP3 SWAP2 SWAP1 PUSH2 0x3037 JUMP JUMPDEST PUSH1 0x40 MLOAD PUSH1 0x20 DUP2 DUP4 SUB SUB DUP2 MSTORE SWAP1 PUSH1 0x40 MSTORE SWAP1 PUSH28 0xFFFFFFFFFFFFFFFFFFFFFFFFFFFFFFFFFFFFFFFFFFFFFFFFFFFFFFFF NOT AND PUSH1 0x20 DUP3 ADD DUP1 MLOAD PUSH28 0xFFFFFFFFFFFFFFFFFFFFFFFFFFFFFFFFFFFFFFFFFFFFFFFFFFFFFFFF DUP4 DUP2 DUP4 AND OR DUP4 MSTORE POP POP POP POP PUSH2 0x1D77 JUMP JUMPDEST POP POP POP POP JUMP JUMPDEST PUSH1 0x1 PUSH0 DUP2 SWAP1 SSTORE POP JUMP JUMPDEST PUSH2 0x17CC PUSH2 0x1E3D JUMP JUMPDEST PUSH20 0xFFFFFFFFFFFFFFFFFFFFFFFFFFFFFFFFFFFFFFFF AND PUSH2 0x17EA PUSH2 0xAB9 JUMP JUMPDEST PUSH20 0xFFFFFFFFFFFFFFFFFFFFFFFFFFFFFFFFFFFFFFFF AND EQ PUSH2 0x1849 JUMPI PUSH2 0x180D PUSH2 0x1E3D JUMP JUMPDEST PUSH1 0x40 MLOAD PUSH32 0x118CDAA700000000000000000000000000000000000000000000000000000000 DUP2 MSTORE PUSH1 0x4 ADD PUSH2 0x1840 SWAP2 SWAP1 PUSH2 0x2866 JUMP JUMPDEST PUSH1 0x40 MLOAD DUP1 SWAP2 SUB SWAP1 REVERT JUMPDEST JUMP JUMPDEST PUSH2 0x1853 PUSH2 0x1E44 JUMP JUMPDEST PUSH0 PUSH1 0x32 PUSH0 PUSH2 0x100 EXP DUP2 SLOAD DUP2 PUSH1 0xFF MUL NOT AND SWAP1 DUP4 ISZERO ISZERO MUL OR SWAP1 SSTORE POP PUSH32 0x5DB9EE0A495BF2E6FF9C91A7834C1BA4FDD244A5E8AA4E537BD38AEAE4B073AA PUSH2 0x1895 PUSH2 0x1E3D JUMP JUMPDEST PUSH1 0x40 MLOAD PUSH2 0x18A2 SWAP2 SWAP1 PUSH2 0x2866 JUMP JUMPDEST PUSH1 0x40 MLOAD DUP1 SWAP2 SUB SWAP1 LOG1 JUMP JUMPDEST PUSH32 0x0 PUSH20 0xFFFFFFFFFFFFFFFFFFFFFFFFFFFFFFFFFFFFFFFF AND ADDRESS PUSH20 0xFFFFFFFFFFFFFFFFFFFFFFFFFFFFFFFFFFFFFFFF AND EQ DUP1 PUSH2 0x1959 JUMPI POP PUSH32 0x0 PUSH20 0xFFFFFFFFFFFFFFFFFFFFFFFFFFFFFFFFFFFFFFFF AND PUSH2 0x1940 PUSH2 0x1E8D JUMP JUMPDEST PUSH20 0xFFFFFFFFFFFFFFFFFFFFFFFFFFFFFFFFFFFFFFFF AND EQ ISZERO JUMPDEST ISZERO PUSH2 0x1990 JUMPI PUSH1 0x40 MLOAD PUSH32 0xE07C8DBA00000000000000000000000000000000000000000000000000000000 DUP2 MSTORE PUSH1 0x4 ADD PUSH1 0x40 MLOAD DUP1 SWAP2 SUB SWAP1 REVERT JUMPDEST JUMP JUMPDEST PUSH2 0x199A PUSH2 0x17C4 JUMP JUMPDEST POP JUMP JUMPDEST DUP2 PUSH20 0xFFFFFFFFFFFFFFFFFFFFFFFFFFFFFFFFFFFFFFFF AND PUSH4 0x52D1902D PUSH1 0x40 MLOAD DUP2 PUSH4 0xFFFFFFFF AND PUSH1 0xE0 SHL DUP2 MSTORE PUSH1 0x4 ADD PUSH1 0x20 PUSH1 0x40 MLOAD DUP1 DUP4 SUB DUP2 DUP7 GAS STATICCALL SWAP3 POP POP POP DUP1 ISZERO PUSH2 0x1A05 JUMPI POP PUSH1 0x40 MLOAD RETURNDATASIZE PUSH1 0x1F NOT PUSH1 0x1F DUP3 ADD AND DUP3 ADD DUP1 PUSH1 0x40 MSTORE POP DUP2 ADD SWAP1 PUSH2 0x1A02 SWAP2 SWAP1 PUSH2 0x3096 JUMP JUMPDEST PUSH1 0x1 JUMPDEST PUSH2 0x1A46 JUMPI DUP2 PUSH1 0x40 MLOAD PUSH32 0x4C9C8CE300000000000000000000000000000000000000000000000000000000 DUP2 MSTORE PUSH1 0x4 ADD PUSH2 0x1A3D SWAP2 SWAP1 PUSH2 0x2866 JUMP JUMPDEST PUSH1 0x40 MLOAD DUP1 SWAP2 SUB SWAP1 REVERT JUMPDEST PUSH32 0x360894A13BA1A3210667C828492DB98DCA3E2076CC3735A920A3CA505D382BBC PUSH0 SHL DUP2 EQ PUSH2 0x1AAC JUMPI DUP1 PUSH1 0x40 MLOAD PUSH32 0xAA1D49A400000000000000000000000000000000000000000000000000000000 DUP2 MSTORE PUSH1 0x4 ADD PUSH2 0x1AA3 SWAP2 SWAP1 PUSH2 0x27EB JUMP JUMPDEST PUSH1 0x40 MLOAD DUP1 SWAP2 SUB SWAP1 REVERT JUMPDEST PUSH2 0x1AB6 DUP4 DUP4 PUSH2 0x1EE0 JUMP JUMPDEST POP POP POP JUMP JUMPDEST PUSH32 0x0 PUSH20 0xFFFFFFFFFFFFFFFFFFFFFFFFFFFFFFFFFFFFFFFF AND ADDRESS PUSH20 0xFFFFFFFFFFFFFFFFFFFFFFFFFFFFFFFFFFFFFFFF AND EQ PUSH2 0x1B40 JUMPI PUSH1 0x40 MLOAD PUSH32 0xE07C8DBA00000000000000000000000000000000000000000000000000000000 DUP2 MSTORE PUSH1 0x4 ADD PUSH1 0x40 MLOAD DUP1 SWAP2 SUB SWAP1 REVERT JUMPDEST JUMP JUMPDEST PUSH0 PUSH2 0x1B4B PUSH2 0x1C75 JUMP JUMPDEST SWAP1 POP PUSH0 DUP2 PUSH0 ADD PUSH0 SWAP1 SLOAD SWAP1 PUSH2 0x100 EXP SWAP1 DIV PUSH20 0xFFFFFFFFFFFFFFFFFFFFFFFFFFFFFFFFFFFFFFFF AND SWAP1 POP DUP3 DUP3 PUSH0 ADD PUSH0 PUSH2 0x100 EXP DUP2 SLOAD DUP2 PUSH20 0xFFFFFFFFFFFFFFFFFFFFFFFFFFFFFFFFFFFFFFFF MUL NOT AND SWAP1 DUP4 PUSH20 0xFFFFFFFFFFFFFFFFFFFFFFFFFFFFFFFFFFFFFFFF AND MUL OR SWAP1 SSTORE POP DUP3 PUSH20 0xFFFFFFFFFFFFFFFFFFFFFFFFFFFFFFFFFFFFFFFF AND DUP2 PUSH20 0xFFFFFFFFFFFFFFFFFFFFFFFFFFFFFFFFFFFFFFFF AND PUSH32 0x8BE0079C531659141344CD1FD0A4F28419497F9722A3DAAFE3B4186F6B6457E0 PUSH1 0x40 MLOAD PUSH1 0x40 MLOAD DUP1 SWAP2 SUB SWAP1 LOG3 POP POP POP JUMP JUMPDEST PUSH2 0x1C1B PUSH2 0x16E8 JUMP JUMPDEST PUSH1 0x1 PUSH1 0x32 PUSH0 PUSH2 0x100 EXP DUP2 SLOAD DUP2 PUSH1 0xFF MUL NOT AND SWAP1 DUP4 ISZERO ISZERO MUL OR SWAP1 SSTORE POP PUSH32 0x62E78CEA01BEE320CD4E420270B5EA74000D11B0C9F74754EBDBFC544B05A258 PUSH2 0x1C5E PUSH2 0x1E3D JUMP JUMPDEST PUSH1 0x40 MLOAD PUSH2 0x1C6B SWAP2 SWAP1 PUSH2 0x2866 JUMP JUMPDEST PUSH1 0x40 MLOAD DUP1 SWAP2 SUB SWAP1 LOG1 JUMP JUMPDEST PUSH0 PUSH32 0x9016D09D72D40FDAE2FD8CEAC6B6234C7706214FD39C1CD1E609A0528C199300 SWAP1 POP SWAP1 JUMP JUMPDEST PUSH2 0x1D1D DUP4 PUSH4 0xA9059CBB PUSH1 0xE0 SHL DUP5 DUP5 PUSH1 0x40 MLOAD PUSH1 0x24 ADD PUSH2 0x1CBB SWAP3 SWAP2 SWAP1 PUSH2 0x30C1 JUMP JUMPDEST PUSH1 0x40 MLOAD PUSH1 0x20 DUP2 DUP4 SUB SUB DUP2 MSTORE SWAP1 PUSH1 0x40 MSTORE SWAP1 PUSH28 0xFFFFFFFFFFFFFFFFFFFFFFFFFFFFFFFFFFFFFFFFFFFFFFFFFFFFFFFF NOT AND PUSH1 0x20 DUP3 ADD DUP1 MLOAD PUSH28 0xFFFFFFFFFFFFFFFFFFFFFFFFFFFFFFFFFFFFFFFFFFFFFFFFFFFFFFFF DUP4 DUP2 DUP4 AND OR DUP4 MSTORE POP POP POP POP PUSH2 0x1D77 JUMP JUMPDEST POP POP POP JUMP JUMPDEST PUSH0 PUSH0 PUSH2 0x1D2C PUSH2 0x1F52 JUMP JUMPDEST SWAP1 POP DUP1 SWAP2 POP POP SWAP1 JUMP JUMPDEST PUSH2 0x1D3D PUSH2 0x1F7B JUMP JUMPDEST PUSH2 0x1D46 DUP2 PUSH2 0x1FBB JUMP JUMPDEST POP JUMP JUMPDEST PUSH2 0x1D51 PUSH2 0x1F7B JUMP JUMPDEST PUSH2 0x1D59 PUSH2 0x203F JUMP JUMPDEST JUMP JUMPDEST PUSH2 0x1D63 PUSH2 0x1F7B JUMP JUMPDEST PUSH2 0x1D6B PUSH2 0x2050 JUMP JUMPDEST JUMP JUMPDEST PUSH2 0x1D75 PUSH2 0x1F7B JUMP JUMPDEST JUMP JUMPDEST PUSH0 PUSH2 0x1DD8 DUP3 PUSH1 0x40 MLOAD DUP1 PUSH1 0x40 ADD PUSH1 0x40 MSTORE DUP1 PUSH1 0x20 DUP2 MSTORE PUSH1 0x20 ADD PUSH32 0x5361666545524332303A206C6F772D6C6576656C2063616C6C206661696C6564 DUP2 MSTORE POP DUP6 PUSH20 0xFFFFFFFFFFFFFFFFFFFFFFFFFFFFFFFFFFFFFFFF AND PUSH2 0x2073 SWAP1 SWAP3 SWAP2 SWAP1 PUSH4 0xFFFFFFFF AND JUMP JUMPDEST SWAP1 POP PUSH0 DUP2 MLOAD EQ DUP1 PUSH2 0x1DF9 JUMPI POP DUP1 DUP1 PUSH1 0x20 ADD SWAP1 MLOAD DUP2 ADD SWAP1 PUSH2 0x1DF8 SWAP2 SWAP1 PUSH2 0x30FC JUMP JUMPDEST JUMPDEST PUSH2 0x1E38 JUMPI PUSH1 0x40 MLOAD PUSH32 0x8C379A000000000000000000000000000000000000000000000000000000000 DUP2 MSTORE PUSH1 0x4 ADD PUSH2 0x1E2F SWAP1 PUSH2 0x3197 JUMP JUMPDEST PUSH1 0x40 MLOAD DUP1 SWAP2 SUB SWAP1 REVERT JUMPDEST POP POP POP JUMP JUMPDEST PUSH0 CALLER SWAP1 POP SWAP1 JUMP JUMPDEST PUSH2 0x1E4C PUSH2 0x837 JUMP JUMPDEST PUSH2 0x1E8B JUMPI PUSH1 0x40 MLOAD PUSH32 0x8C379A000000000000000000000000000000000000000000000000000000000 DUP2 MSTORE PUSH1 0x4 ADD PUSH2 0x1E82 SWAP1 PUSH2 0x31FF JUMP JUMPDEST PUSH1 0x40 MLOAD DUP1 SWAP2 SUB SWAP1 REVERT JUMPDEST JUMP JUMPDEST PUSH0 PUSH2 0x1EB9 PUSH32 0x360894A13BA1A3210667C828492DB98DCA3E2076CC3735A920A3CA505D382BBC PUSH0 SHL PUSH2 0x208A JUMP JUMPDEST PUSH0 ADD PUSH0 SWAP1 SLOAD SWAP1 PUSH2 0x100 EXP SWAP1 DIV PUSH20 0xFFFFFFFFFFFFFFFFFFFFFFFFFFFFFFFFFFFFFFFF AND SWAP1 POP SWAP1 JUMP JUMPDEST PUSH2 0x1EE9 DUP3 PUSH2 0x2093 JUMP JUMPDEST DUP2 PUSH20 0xFFFFFFFFFFFFFFFFFFFFFFFFFFFFFFFFFFFFFFFF AND PUSH32 0xBC7CD75A20EE27FD9ADEBAB32041F755214DBC6BFFA90CC0225B39DA2E5C2D3B PUSH1 0x40 MLOAD PUSH1 0x40 MLOAD DUP1 SWAP2 SUB SWAP1 LOG2 PUSH0 DUP2 MLOAD GT ISZERO PUSH2 0x1F45 JUMPI PUSH2 0x1F3F DUP3 DUP3 PUSH2 0x215C JUMP JUMPDEST POP PUSH2 0x1F4E JUMP JUMPDEST PUSH2 0x1F4D PUSH2 0x21DC JUMP JUMPDEST JUMPDEST POP POP JUMP JUMPDEST PUSH0 PUSH32 0xF0C57E16840DF040F15088DC2F81FE391C3923BEC73E23A9662EFC9C229C6A00 PUSH0 SHL SWAP1 POP SWAP1 JUMP JUMPDEST PUSH2 0x1F83 PUSH2 0x2218 JUMP JUMPDEST PUSH2 0x1FB9 JUMPI PUSH1 0x40 MLOAD PUSH32 0xD7E6BCF800000000000000000000000000000000000000000000000000000000 DUP2 MSTORE PUSH1 0x4 ADD PUSH1 0x40 MLOAD DUP1 SWAP2 SUB SWAP1 REVERT JUMPDEST JUMP JUMPDEST PUSH2 0x1FC3 PUSH2 0x1F7B JUMP JUMPDEST PUSH0 PUSH20 0xFFFFFFFFFFFFFFFFFFFFFFFFFFFFFFFFFFFFFFFF AND DUP2 PUSH20 0xFFFFFFFFFFFFFFFFFFFFFFFFFFFFFFFFFFFFFFFF AND SUB PUSH2 0x2033 JUMPI PUSH0 PUSH1 0x40 MLOAD PUSH32 0x1E4FBDF700000000000000000000000000000000000000000000000000000000 DUP2 MSTORE PUSH1 0x4 ADD PUSH2 0x202A SWAP2 SWAP1 PUSH2 0x2866 JUMP JUMPDEST PUSH1 0x40 MLOAD DUP1 SWAP2 SUB SWAP1 REVERT JUMPDEST PUSH2 0x203C DUP2 PUSH2 0x1B42 JUMP JUMPDEST POP JUMP JUMPDEST PUSH2 0x2047 PUSH2 0x1F7B JUMP JUMPDEST PUSH1 0x1 PUSH0 DUP2 SWAP1 SSTORE POP JUMP JUMPDEST PUSH2 0x2058 PUSH2 0x1F7B JUMP JUMPDEST PUSH0 PUSH1 0x32 PUSH0 PUSH2 0x100 EXP DUP2 SLOAD DUP2 PUSH1 0xFF MUL NOT AND SWAP1 DUP4 ISZERO ISZERO MUL OR SWAP1 SSTORE POP JUMP JUMPDEST PUSH1 0x60 PUSH2 0x2081 DUP5 DUP5 PUSH0 DUP6 PUSH2 0x2236 JUMP JUMPDEST SWAP1 POP SWAP4 SWAP3 POP POP POP JUMP JUMPDEST PUSH0 DUP2 SWAP1 POP SWAP2 SWAP1 POP JUMP JUMPDEST PUSH0 DUP2 PUSH20 0xFFFFFFFFFFFFFFFFFFFFFFFFFFFFFFFFFFFFFFFF AND EXTCODESIZE SUB PUSH2 0x20EE JUMPI DUP1 PUSH1 0x40 MLOAD PUSH32 0x4C9C8CE300000000000000000000000000000000000000000000000000000000 DUP2 MSTORE PUSH1 0x4 ADD PUSH2 0x20E5 SWAP2 SWAP1 PUSH2 0x2866 JUMP JUMPDEST PUSH1 0x40 MLOAD DUP1 SWAP2 SUB SWAP1 REVERT JUMPDEST DUP1 PUSH2 0x211A PUSH32 0x360894A13BA1A3210667C828492DB98DCA3E2076CC3735A920A3CA505D382BBC PUSH0 SHL PUSH2 0x208A JUMP JUMPDEST PUSH0 ADD PUSH0 PUSH2 0x100 EXP DUP2 SLOAD DUP2 PUSH20 0xFFFFFFFFFFFFFFFFFFFFFFFFFFFFFFFFFFFFFFFF MUL NOT AND SWAP1 DUP4 PUSH20 0xFFFFFFFFFFFFFFFFFFFFFFFFFFFFFFFFFFFFFFFF AND MUL OR SWAP1 SSTORE POP POP JUMP JUMPDEST PUSH1 0x60 PUSH0 PUSH0 DUP5 PUSH20 0xFFFFFFFFFFFFFFFFFFFFFFFFFFFFFFFFFFFFFFFF AND DUP5 PUSH1 0x40 MLOAD PUSH2 0x2185 SWAP2 SWAP1 PUSH2 0x3261 JUMP JUMPDEST PUSH0 PUSH1 0x40 MLOAD DUP1 DUP4 SUB DUP2 DUP6 GAS DELEGATECALL SWAP2 POP POP RETURNDATASIZE DUP1 PUSH0 DUP2 EQ PUSH2 0x21BD JUMPI PUSH1 0x40 MLOAD SWAP2 POP PUSH1 0x1F NOT PUSH1 0x3F RETURNDATASIZE ADD AND DUP3 ADD PUSH1 0x40 MSTORE RETURNDATASIZE DUP3 MSTORE RETURNDATASIZE PUSH0 PUSH1 0x20 DUP5 ADD RETURNDATACOPY PUSH2 0x21C2 JUMP JUMPDEST PUSH1 0x60 SWAP2 POP JUMPDEST POP SWAP2 POP SWAP2 POP PUSH2 0x21D2 DUP6 DUP4 DUP4 PUSH2 0x22FF JUMP JUMPDEST SWAP3 POP POP POP SWAP3 SWAP2 POP POP JUMP JUMPDEST PUSH0 CALLVALUE GT ISZERO PUSH2 0x2216 JUMPI PUSH1 0x40 MLOAD PUSH32 0xB398979F00000000000000000000000000000000000000000000000000000000 DUP2 MSTORE PUSH1 0x4 ADD PUSH1 0x40 MLOAD DUP1 SWAP2 SUB SWAP1 REVERT JUMPDEST JUMP JUMPDEST PUSH0 PUSH2 0x2221 PUSH2 0x1D22 JUMP JUMPDEST PUSH0 ADD PUSH1 0x8 SWAP1 SLOAD SWAP1 PUSH2 0x100 EXP SWAP1 DIV PUSH1 0xFF AND SWAP1 POP SWAP1 JUMP JUMPDEST PUSH1 0x60 DUP3 SELFBALANCE LT ISZERO PUSH2 0x227B JUMPI PUSH1 0x40 MLOAD PUSH32 0x8C379A000000000000000000000000000000000000000000000000000000000 DUP2 MSTORE PUSH1 0x4 ADD PUSH2 0x2272 SWAP1 PUSH2 0x32E7 JUMP JUMPDEST PUSH1 0x40 MLOAD DUP1 SWAP2 SUB SWAP1 REVERT JUMPDEST PUSH0 PUSH0 DUP7 PUSH20 0xFFFFFFFFFFFFFFFFFFFFFFFFFFFFFFFFFFFFFFFF AND DUP6 DUP8 PUSH1 0x40 MLOAD PUSH2 0x22A3 SWAP2 SWAP1 PUSH2 0x3261 JUMP JUMPDEST PUSH0 PUSH1 0x40 MLOAD DUP1 DUP4 SUB DUP2 DUP6 DUP8 GAS CALL SWAP3 POP POP POP RETURNDATASIZE DUP1 PUSH0 DUP2 EQ PUSH2 0x22DD JUMPI PUSH1 0x40 MLOAD SWAP2 POP PUSH1 0x1F NOT PUSH1 0x3F RETURNDATASIZE ADD AND DUP3 ADD PUSH1 0x40 MSTORE RETURNDATASIZE DUP3 MSTORE RETURNDATASIZE PUSH0 PUSH1 0x20 DUP5 ADD RETURNDATACOPY PUSH2 0x22E2 JUMP JUMPDEST PUSH1 0x60 SWAP2 POP JUMPDEST POP SWAP2 POP SWAP2 POP PUSH2 0x22F3 DUP8 DUP4 DUP4 DUP8 PUSH2 0x238C JUMP JUMPDEST SWAP3 POP POP POP SWAP5 SWAP4 POP POP POP POP JUMP JUMPDEST PUSH1 0x60 DUP3 PUSH2 0x2314 JUMPI PUSH2 0x230F DUP3 PUSH2 0x2400 JUMP JUMPDEST PUSH2 0x2384 JUMP JUMPDEST PUSH0 DUP3 MLOAD EQ DUP1 ISZERO PUSH2 0x233A JUMPI POP PUSH0 DUP5 PUSH20 0xFFFFFFFFFFFFFFFFFFFFFFFFFFFFFFFFFFFFFFFF AND EXTCODESIZE EQ JUMPDEST ISZERO PUSH2 0x237C JUMPI DUP4 PUSH1 0x40 MLOAD PUSH32 0x9996B31500000000000000000000000000000000000000000000000000000000 DUP2 MSTORE PUSH1 0x4 ADD PUSH2 0x2373 SWAP2 SWAP1 PUSH2 0x2866 JUMP JUMPDEST PUSH1 0x40 MLOAD DUP1 SWAP2 SUB SWAP1 REVERT JUMPDEST DUP2 SWAP1 POP PUSH2 0x2385 JUMP JUMPDEST JUMPDEST SWAP4 SWAP3 POP POP POP JUMP JUMPDEST PUSH1 0x60 DUP4 ISZERO PUSH2 0x23ED JUMPI PUSH0 DUP4 MLOAD SUB PUSH2 0x23E5 JUMPI PUSH2 0x23A5 DUP6 PUSH2 0x2443 JUMP JUMPDEST PUSH2 0x23E4 JUMPI PUSH1 0x40 MLOAD PUSH32 0x8C379A000000000000000000000000000000000000000000000000000000000 DUP2 MSTORE PUSH1 0x4 ADD PUSH2 0x23DB SWAP1 PUSH2 0x334F JUMP JUMPDEST PUSH1 0x40 MLOAD DUP1 SWAP2 SUB SWAP1 REVERT JUMPDEST JUMPDEST DUP3 SWAP1 POP PUSH2 0x23F8 JUMP JUMPDEST PUSH2 0x23F7 DUP4 DUP4 PUSH2 0x2465 JUMP JUMPDEST JUMPDEST SWAP5 SWAP4 POP POP POP POP JUMP JUMPDEST PUSH0 DUP2 MLOAD GT ISZERO PUSH2 0x2411 JUMPI DUP1 MLOAD PUSH1 0x20 DUP3 ADD REVERT JUMPDEST PUSH1 0x40 MLOAD PUSH32 0xD6BDA27500000000000000000000000000000000000000000000000000000000 DUP2 MSTORE PUSH1 0x4 ADD PUSH1 0x40 MLOAD DUP1 SWAP2 SUB SWAP1 REVERT JUMPDEST PUSH0 PUSH0 DUP3 PUSH20 0xFFFFFFFFFFFFFFFFFFFFFFFFFFFFFFFFFFFFFFFF AND EXTCODESIZE GT SWAP1 POP SWAP2 SWAP1 POP JUMP JUMPDEST PUSH0 DUP3 MLOAD GT ISZERO PUSH2 0x2477 JUMPI DUP2 MLOAD DUP1 DUP4 PUSH1 0x20 ADD REVERT JUMPDEST DUP1 PUSH1 0x40 MLOAD PUSH32 0x8C379A000000000000000000000000000000000000000000000000000000000 DUP2 MSTORE PUSH1 0x4 ADD PUSH2 0x24AB SWAP2 SWAP1 PUSH2 0x29EA JUMP JUMPDEST PUSH1 0x40 MLOAD DUP1 SWAP2 SUB SWAP1 REVERT JUMPDEST PUSH0 PUSH1 0x40 MLOAD SWAP1 POP SWAP1 JUMP JUMPDEST PUSH0 PUSH0 REVERT JUMPDEST PUSH0 PUSH0 REVERT JUMPDEST PUSH0 DUP2 SWAP1 POP SWAP2 SWAP1 POP JUMP JUMPDEST PUSH2 0x24D7 DUP2 PUSH2 0x24C5 JUMP JUMPDEST DUP2 EQ PUSH2 0x24E1 JUMPI PUSH0 PUSH0 REVERT JUMPDEST POP JUMP JUMPDEST PUSH0 DUP2 CALLDATALOAD SWAP1 POP PUSH2 0x24F2 DUP2 PUSH2 0x24CE JUMP JUMPDEST SWAP3 SWAP2 POP POP JUMP JUMPDEST PUSH0 PUSH20 0xFFFFFFFFFFFFFFFFFFFFFFFFFFFFFFFFFFFFFFFF DUP3 AND SWAP1 POP SWAP2 SWAP1 POP JUMP JUMPDEST PUSH0 PUSH2 0x2521 DUP3 PUSH2 0x24F8 JUMP JUMPDEST SWAP1 POP SWAP2 SWAP1 POP JUMP JUMPDEST PUSH2 0x2531 DUP2 PUSH2 0x2517 JUMP JUMPDEST DUP2 EQ PUSH2 0x253B JUMPI PUSH0 PUSH0 REVERT JUMPDEST POP JUMP JUMPDEST PUSH0 DUP2 CALLDATALOAD SWAP1 POP PUSH2 0x254C DUP2 PUSH2 0x2528 JUMP JUMPDEST SWAP3 SWAP2 POP POP JUMP JUMPDEST PUSH0 PUSH0 PUSH1 0x40 DUP4 DUP6 SUB SLT ISZERO PUSH2 0x2568 JUMPI PUSH2 0x2567 PUSH2 0x24BD JUMP JUMPDEST JUMPDEST PUSH0 PUSH2 0x2575 DUP6 DUP3 DUP7 ADD PUSH2 0x24E4 JUMP JUMPDEST SWAP3 POP POP PUSH1 0x20 PUSH2 0x2586 DUP6 DUP3 DUP7 ADD PUSH2 0x253E JUMP JUMPDEST SWAP2 POP POP SWAP3 POP SWAP3 SWAP1 POP JUMP JUMPDEST PUSH2 0x2599 DUP2 PUSH2 0x24C5 JUMP JUMPDEST DUP3 MSTORE POP POP JUMP JUMPDEST PUSH0 PUSH1 0x20 DUP3 ADD SWAP1 POP PUSH2 0x25B2 PUSH0 DUP4 ADD DUP5 PUSH2 0x2590 JUMP JUMPDEST SWAP3 SWAP2 POP POP JUMP JUMPDEST PUSH0 DUP2 ISZERO ISZERO SWAP1 POP SWAP2 SWAP1 POP JUMP JUMPDEST PUSH2 0x25CC DUP2 PUSH2 0x25B8 JUMP JUMPDEST DUP2 EQ PUSH2 0x25D6 JUMPI PUSH0 PUSH0 REVERT JUMPDEST POP JUMP JUMPDEST PUSH0 DUP2 CALLDATALOAD SWAP1 POP PUSH2 0x25E7 DUP2 PUSH2 0x25C3 JUMP JUMPDEST SWAP3 SWAP2 POP POP JUMP JUMPDEST PUSH0 PUSH0 PUSH0 PUSH1 0x60 DUP5 DUP7 SUB SLT ISZERO PUSH2 0x2604 JUMPI PUSH2 0x2603 PUSH2 0x24BD JUMP JUMPDEST JUMPDEST PUSH0 PUSH2 0x2611 DUP7 DUP3 DUP8 ADD PUSH2 0x24E4 JUMP JUMPDEST SWAP4 POP POP PUSH1 0x20 PUSH2 0x2622 DUP7 DUP3 DUP8 ADD PUSH2 0x25D9 JUMP JUMPDEST SWAP3 POP POP PUSH1 0x40 PUSH2 0x2633 DUP7 DUP3 DUP8 ADD PUSH2 0x24E4 JUMP JUMPDEST SWAP2 POP POP SWAP3 POP SWAP3 POP SWAP3 JUMP JUMPDEST PUSH0 PUSH0 REVERT JUMPDEST PUSH0 PUSH0 REVERT JUMPDEST PUSH0 PUSH1 0x1F NOT PUSH1 0x1F DUP4 ADD AND SWAP1 POP SWAP2 SWAP1 POP JUMP JUMPDEST PUSH32 0x4E487B7100000000000000000000000000000000000000000000000000000000 PUSH0 MSTORE PUSH1 0x41 PUSH1 0x4 MSTORE PUSH1 0x24 PUSH0 REVERT JUMPDEST PUSH2 0x268B DUP3 PUSH2 0x2645 JUMP JUMPDEST DUP2 ADD DUP2 DUP2 LT PUSH8 0xFFFFFFFFFFFFFFFF DUP3 GT OR ISZERO PUSH2 0x26AA JUMPI PUSH2 0x26A9 PUSH2 0x2655 JUMP JUMPDEST JUMPDEST DUP1 PUSH1 0x40 MSTORE POP POP POP JUMP JUMPDEST PUSH0 PUSH2 0x26BC PUSH2 0x24B4 JUMP JUMPDEST SWAP1 POP PUSH2 0x26C8 DUP3 DUP3 PUSH2 0x2682 JUMP JUMPDEST SWAP2 SWAP1 POP JUMP JUMPDEST PUSH0 PUSH8 0xFFFFFFFFFFFFFFFF DUP3 GT ISZERO PUSH2 0x26E7 JUMPI PUSH2 0x26E6 PUSH2 0x2655 JUMP JUMPDEST JUMPDEST PUSH2 0x26F0 DUP3 PUSH2 0x2645 JUMP JUMPDEST SWAP1 POP PUSH1 0x20 DUP2 ADD SWAP1 POP SWAP2 SWAP1 POP JUMP JUMPDEST DUP3 DUP2 DUP4 CALLDATACOPY PUSH0 DUP4 DUP4 ADD MSTORE POP POP POP JUMP JUMPDEST PUSH0 PUSH2 0x271D PUSH2 0x2718 DUP5 PUSH2 0x26CD JUMP JUMPDEST PUSH2 0x26B3 JUMP JUMPDEST SWAP1 POP DUP3 DUP2 MSTORE PUSH1 0x20 DUP2 ADD DUP5 DUP5 DUP5 ADD GT ISZERO PUSH2 0x2739 JUMPI PUSH2 0x2738 PUSH2 0x2641 JUMP JUMPDEST JUMPDEST PUSH2 0x2744 DUP5 DUP3 DUP6 PUSH2 0x26FD JUMP JUMPDEST POP SWAP4 SWAP3 POP POP POP JUMP JUMPDEST PUSH0 DUP3 PUSH1 0x1F DUP4 ADD SLT PUSH2 0x2760 JUMPI PUSH2 0x275F PUSH2 0x263D JUMP JUMPDEST JUMPDEST DUP2 CALLDATALOAD PUSH2 0x2770 DUP5 DUP3 PUSH1 0x20 DUP7 ADD PUSH2 0x270B JUMP JUMPDEST SWAP2 POP POP SWAP3 SWAP2 POP POP JUMP JUMPDEST PUSH0 PUSH0 PUSH1 0x40 DUP4 DUP6 SUB SLT ISZERO PUSH2 0x278F JUMPI PUSH2 0x278E PUSH2 0x24BD JUMP JUMPDEST JUMPDEST PUSH0 PUSH2 0x279C DUP6 DUP3 DUP7 ADD PUSH2 0x253E JUMP JUMPDEST SWAP3 POP POP PUSH1 0x20 DUP4 ADD CALLDATALOAD PUSH8 0xFFFFFFFFFFFFFFFF DUP2 GT ISZERO PUSH2 0x27BD JUMPI PUSH2 0x27BC PUSH2 0x24C1 JUMP JUMPDEST JUMPDEST PUSH2 0x27C9 DUP6 DUP3 DUP7 ADD PUSH2 0x274C JUMP JUMPDEST SWAP2 POP POP SWAP3 POP SWAP3 SWAP1 POP JUMP JUMPDEST PUSH0 DUP2 SWAP1 POP SWAP2 SWAP1 POP JUMP JUMPDEST PUSH2 0x27E5 DUP2 PUSH2 0x27D3 JUMP JUMPDEST DUP3 MSTORE POP POP JUMP JUMPDEST PUSH0 PUSH1 0x20 DUP3 ADD SWAP1 POP PUSH2 0x27FE PUSH0 DUP4 ADD DUP5 PUSH2 0x27DC JUMP JUMPDEST SWAP3 SWAP2 POP POP JUMP JUMPDEST PUSH2 0x280D DUP2 PUSH2 0x25B8 JUMP JUMPDEST DUP3 MSTORE POP POP JUMP JUMPDEST PUSH0 PUSH1 0x20 DUP3 ADD SWAP1 POP PUSH2 0x2826 PUSH0 DUP4 ADD DUP5 PUSH2 0x2804 JUMP JUMPDEST SWAP3 SWAP2 POP POP JUMP JUMPDEST PUSH0 PUSH1 0x20 DUP3 DUP5 SUB SLT ISZERO PUSH2 0x2841 JUMPI PUSH2 0x2840 PUSH2 0x24BD JUMP JUMPDEST JUMPDEST PUSH0 PUSH2 0x284E DUP5 DUP3 DUP6 ADD PUSH2 0x24E4 JUMP JUMPDEST SWAP2 POP POP SWAP3 SWAP2 POP POP JUMP JUMPDEST PUSH2 0x2860 DUP2 PUSH2 0x2517 JUMP JUMPDEST DUP3 MSTORE POP POP JUMP JUMPDEST PUSH0 PUSH1 0x20 DUP3 ADD SWAP1 POP PUSH2 0x2879 PUSH0 DUP4 ADD DUP5 PUSH2 0x2857 JUMP JUMPDEST SWAP3 SWAP2 POP POP JUMP JUMPDEST PUSH0 PUSH8 0xFFFFFFFFFFFFFFFF DUP3 AND SWAP1 POP SWAP2 SWAP1 POP JUMP JUMPDEST PUSH2 0x289B DUP2 PUSH2 0x287F JUMP JUMPDEST DUP2 EQ PUSH2 0x28A5 JUMPI PUSH0 PUSH0 REVERT JUMPDEST POP JUMP JUMPDEST PUSH0 DUP2 CALLDATALOAD SWAP1 POP PUSH2 0x28B6 DUP2 PUSH2 0x2892 JUMP JUMPDEST SWAP3 SWAP2 POP POP JUMP JUMPDEST PUSH0 PUSH2 0xFFFF DUP3 AND SWAP1 POP SWAP2 SWAP1 POP JUMP JUMPDEST PUSH2 0x28D2 DUP2 PUSH2 0x28BC JUMP JUMPDEST DUP2 EQ PUSH2 0x28DC JUMPI PUSH0 PUSH0 REVERT JUMPDEST POP JUMP JUMPDEST PUSH0 DUP2 CALLDATALOAD SWAP1 POP PUSH2 0x28ED DUP2 PUSH2 0x28C9 JUMP JUMPDEST SWAP3 SWAP2 POP POP JUMP JUMPDEST PUSH0 DUP2 SWAP1 POP SWAP2 SWAP1 POP JUMP JUMPDEST PUSH2 0x2905 DUP2 PUSH2 0x28F3 JUMP JUMPDEST DUP2 EQ PUSH2 0x290F JUMPI PUSH0 PUSH0 REVERT JUMPDEST POP JUMP JUMPDEST PUSH0 DUP2 CALLDATALOAD SWAP1 POP PUSH2 0x2920 DUP2 PUSH2 0x28FC JUMP JUMPDEST SWAP3 SWAP2 POP POP JUMP JUMPDEST PUSH0 PUSH0 PUSH0 PUSH0 PUSH1 0x80 DUP6 DUP8 SUB SLT ISZERO PUSH2 0x293E JUMPI PUSH2 0x293D PUSH2 0x24BD JUMP JUMPDEST JUMPDEST PUSH0 PUSH2 0x294B DUP8 DUP3 DUP9 ADD PUSH2 0x28A8 JUMP JUMPDEST SWAP5 POP POP PUSH1 0x20 PUSH2 0x295C DUP8 DUP3 DUP9 ADD PUSH2 0x28DF JUMP JUMPDEST SWAP4 POP POP PUSH1 0x40 PUSH2 0x296D DUP8 DUP3 DUP9 ADD PUSH2 0x253E JUMP JUMPDEST SWAP3 POP POP PUSH1 0x60 PUSH2 0x297E DUP8 DUP3 DUP9 ADD PUSH2 0x2912 JUMP JUMPDEST SWAP2 POP POP SWAP3 SWAP6 SWAP2 SWAP5 POP SWAP3 POP JUMP JUMPDEST PUSH0 DUP2 MLOAD SWAP1 POP SWAP2 SWAP1 POP JUMP JUMPDEST PUSH0 DUP3 DUP3 MSTORE PUSH1 0x20 DUP3 ADD SWAP1 POP SWAP3 SWAP2 POP POP JUMP JUMPDEST DUP3 DUP2 DUP4 MCOPY PUSH0 DUP4 DUP4 ADD MSTORE POP POP POP JUMP JUMPDEST PUSH0 PUSH2 0x29BC DUP3 PUSH2 0x298A JUMP JUMPDEST PUSH2 0x29C6 DUP2 DUP6 PUSH2 0x2994 JUMP JUMPDEST SWAP4 POP PUSH2 0x29D6 DUP2 DUP6 PUSH1 0x20 DUP7 ADD PUSH2 0x29A4 JUMP JUMPDEST PUSH2 0x29DF DUP2 PUSH2 0x2645 JUMP JUMPDEST DUP5 ADD SWAP2 POP POP SWAP3 SWAP2 POP POP JUMP JUMPDEST PUSH0 PUSH1 0x20 DUP3 ADD SWAP1 POP DUP2 DUP2 SUB PUSH0 DUP4 ADD MSTORE PUSH2 0x2A02 DUP2 DUP5 PUSH2 0x29B2 JUMP JUMPDEST SWAP1 POP SWAP3 SWAP2 POP POP JUMP JUMPDEST PUSH0 PUSH16 0xFFFFFFFFFFFFFFFFFFFFFFFFFFFFFFFF DUP3 AND SWAP1 POP SWAP2 SWAP1 POP JUMP JUMPDEST PUSH2 0x2A2E DUP2 PUSH2 0x2A0A JUMP JUMPDEST DUP3 MSTORE POP POP JUMP JUMPDEST PUSH2 0x2A3D DUP2 PUSH2 0x287F JUMP JUMPDEST DUP3 MSTORE POP POP JUMP JUMPDEST PUSH2 0x2A4C DUP2 PUSH2 0x28BC JUMP JUMPDEST DUP3 MSTORE POP POP JUMP JUMPDEST PUSH32 0x4E487B7100000000000000000000000000000000000000000000000000000000 PUSH0 MSTORE PUSH1 0x21 PUSH1 0x4 MSTORE PUSH1 0x24 PUSH0 REVERT JUMPDEST PUSH1 0x4 DUP2 LT PUSH2 0x2A90 JUMPI PUSH2 0x2A8F PUSH2 0x2A52 JUMP JUMPDEST JUMPDEST POP JUMP JUMPDEST PUSH0 DUP2 SWAP1 POP PUSH2 0x2AA0 DUP3 PUSH2 0x2A7F JUMP JUMPDEST SWAP2 SWAP1 POP JUMP JUMPDEST PUSH0 PUSH2 0x2AAF DUP3 PUSH2 0x2A93 JUMP JUMPDEST SWAP1 POP SWAP2 SWAP1 POP JUMP JUMPDEST PUSH2 0x2ABF DUP2 PUSH2 0x2AA5 JUMP JUMPDEST DUP3 MSTORE POP POP JUMP JUMPDEST PUSH2 0x2ACE DUP2 PUSH2 0x28F3 JUMP JUMPDEST DUP3 MSTORE POP POP JUMP JUMPDEST PUSH0 PUSH2 0x100 DUP3 ADD SWAP1 POP PUSH2 0x2AE8 PUSH0 DUP4 ADD DUP12 PUSH2 0x2A25 JUMP JUMPDEST PUSH2 0x2AF5 PUSH1 0x20 DUP4 ADD DUP11 PUSH2 0x2A25 JUMP JUMPDEST PUSH2 0x2B02 PUSH1 0x40 DUP4 ADD DUP10 PUSH2 0x2A34 JUMP JUMPDEST PUSH2 0x2B0F PUSH1 0x60 DUP4 ADD DUP9 PUSH2 0x2A43 JUMP JUMPDEST PUSH2 0x2B1C PUSH1 0x80 DUP4 ADD DUP8 PUSH2 0x2804 JUMP JUMPDEST PUSH2 0x2B29 PUSH1 0xA0 DUP4 ADD DUP7 PUSH2 0x2AB6 JUMP JUMPDEST PUSH2 0x2B36 PUSH1 0xC0 DUP4 ADD DUP6 PUSH2 0x2857 JUMP JUMPDEST PUSH2 0x2B43 PUSH1 0xE0 DUP4 ADD DUP5 PUSH2 0x2AC5 JUMP JUMPDEST SWAP10 SWAP9 POP POP POP POP POP POP POP POP POP JUMP JUMPDEST PUSH0 PUSH1 0x20 DUP3 ADD SWAP1 POP PUSH2 0x2B63 PUSH0 DUP4 ADD DUP5 PUSH2 0x2A43 JUMP JUMPDEST SWAP3 SWAP2 POP POP JUMP JUMPDEST PUSH0 PUSH1 0x20 DUP3 DUP5 SUB SLT ISZERO PUSH2 0x2B7E JUMPI PUSH2 0x2B7D PUSH2 0x24BD JUMP JUMPDEST JUMPDEST PUSH0 PUSH2 0x2B8B DUP5 DUP3 DUP6 ADD PUSH2 0x253E JUMP JUMPDEST SWAP2 POP POP SWAP3 SWAP2 POP POP JUMP JUMPDEST PUSH0 DUP2 SWAP1 POP SWAP2 SWAP1 POP JUMP JUMPDEST PUSH0 PUSH2 0x2BB7 PUSH2 0x2BB2 PUSH2 0x2BAD DUP5 PUSH2 0x24F8 JUMP JUMPDEST PUSH2 0x2B94 JUMP JUMPDEST PUSH2 0x24F8 JUMP JUMPDEST SWAP1 POP SWAP2 SWAP1 POP JUMP JUMPDEST PUSH0 PUSH2 0x2BC8 DUP3 PUSH2 0x2B9D JUMP JUMPDEST SWAP1 POP SWAP2 SWAP1 POP JUMP JUMPDEST PUSH0 PUSH2 0x2BD9 DUP3 PUSH2 0x2BBE JUMP JUMPDEST SWAP1 POP SWAP2 SWAP1 POP JUMP JUMPDEST PUSH2 0x2BE9 DUP2 PUSH2 0x2BCF JUMP JUMPDEST DUP3 MSTORE POP POP JUMP JUMPDEST PUSH0 PUSH1 0x20 DUP3 ADD SWAP1 POP PUSH2 0x2C02 PUSH0 DUP4 ADD DUP5 PUSH2 0x2BE0 JUMP JUMPDEST SWAP3 SWAP2 POP POP JUMP JUMPDEST PUSH32 0x4E487B7100000000000000000000000000000000000000000000000000000000 PUSH0 MSTORE PUSH1 0x11 PUSH1 0x4 MSTORE PUSH1 0x24 PUSH0 REVERT JUMPDEST PUSH0 PUSH2 0x2C3F DUP3 PUSH2 0x24C5 JUMP JUMPDEST SWAP2 POP PUSH2 0x2C4A DUP4 PUSH2 0x24C5 JUMP JUMPDEST SWAP3 POP DUP3 DUP3 ADD SWAP1 POP DUP1 DUP3 GT ISZERO PUSH2 0x2C62 JUMPI PUSH2 0x2C61 PUSH2 0x2C08 JUMP JUMPDEST JUMPDEST SWAP3 SWAP2 POP POP JUMP JUMPDEST PUSH0 PUSH2 0x2C72 DUP3 PUSH2 0x2A0A JUMP JUMPDEST SWAP2 POP PUSH2 0x2C7D DUP4 PUSH2 0x2A0A JUMP JUMPDEST SWAP3 POP DUP3 DUP3 ADD SWAP1 POP PUSH16 0xFFFFFFFFFFFFFFFFFFFFFFFFFFFFFFFF DUP2 GT ISZERO PUSH2 0x2CA5 JUMPI PUSH2 0x2CA4 PUSH2 0x2C08 JUMP JUMPDEST JUMPDEST SWAP3 SWAP2 POP POP JUMP JUMPDEST PUSH0 PUSH1 0x40 DUP3 ADD SWAP1 POP PUSH2 0x2CBE PUSH0 DUP4 ADD DUP6 PUSH2 0x2804 JUMP JUMPDEST PUSH2 0x2CCB PUSH1 0x20 DUP4 ADD DUP5 PUSH2 0x2590 JUMP JUMPDEST SWAP4 SWAP3 POP POP POP JUMP JUMPDEST PUSH0 PUSH10 0xFFFFFFFFFFFFFFFFFFFF DUP3 AND SWAP1 POP SWAP2 SWAP1 POP JUMP JUMPDEST PUSH2 0x2CF0 DUP2 PUSH2 0x2CD2 JUMP JUMPDEST DUP2 EQ PUSH2 0x2CFA JUMPI PUSH0 PUSH0 REVERT JUMPDEST POP JUMP JUMPDEST PUSH0 DUP2 MLOAD SWAP1 POP PUSH2 0x2D0B DUP2 PUSH2 0x2CE7 JUMP JUMPDEST SWAP3 SWAP2 POP POP JUMP JUMPDEST PUSH0 DUP2 MLOAD SWAP1 POP PUSH2 0x2D1F DUP2 PUSH2 0x28FC JUMP JUMPDEST SWAP3 SWAP2 POP POP JUMP JUMPDEST PUSH0 DUP2 MLOAD SWAP1 POP PUSH2 0x2D33 DUP2 PUSH2 0x24CE JUMP JUMPDEST SWAP3 SWAP2 POP POP JUMP JUMPDEST PUSH0 PUSH0 PUSH0 PUSH0 PUSH0 PUSH1 0xA0 DUP7 DUP9 SUB SLT ISZERO PUSH2 0x2D52 JUMPI PUSH2 0x2D51 PUSH2 0x24BD JUMP JUMPDEST JUMPDEST PUSH0 PUSH2 0x2D5F DUP9 DUP3 DUP10 ADD PUSH2 0x2CFD JUMP JUMPDEST SWAP6 POP POP PUSH1 0x20 PUSH2 0x2D70 DUP9 DUP3 DUP10 ADD PUSH2 0x2D11 JUMP JUMPDEST SWAP5 POP POP PUSH1 0x40 PUSH2 0x2D81 DUP9 DUP3 DUP10 ADD PUSH2 0x2D25 JUMP JUMPDEST SWAP4 POP POP PUSH1 0x60 PUSH2 0x2D92 DUP9 DUP3 DUP10 ADD PUSH2 0x2D25 JUMP JUMPDEST SWAP3 POP POP PUSH1 0x80 PUSH2 0x2DA3 DUP9 DUP3 DUP10 ADD PUSH2 0x2CFD JUMP JUMPDEST SWAP2 POP POP SWAP3 SWAP6 POP SWAP3 SWAP6 SWAP1 SWAP4 POP JUMP JUMPDEST PUSH0 PUSH1 0xFF DUP3 AND SWAP1 POP SWAP2 SWAP1 POP JUMP JUMPDEST PUSH2 0x2DC5 DUP2 PUSH2 0x2DB0 JUMP JUMPDEST DUP3 MSTORE POP POP JUMP JUMPDEST PUSH0 PUSH1 0x20 DUP3 ADD SWAP1 POP PUSH2 0x2DDE PUSH0 DUP4 ADD DUP5 PUSH2 0x2DBC JUMP JUMPDEST SWAP3 SWAP2 POP POP JUMP JUMPDEST PUSH0 PUSH1 0x20 DUP3 ADD SWAP1 POP PUSH2 0x2DF7 PUSH0 DUP4 ADD DUP5 PUSH2 0x2AC5 JUMP JUMPDEST SWAP3 SWAP2 POP POP JUMP JUMPDEST PUSH0 PUSH2 0x2E07 DUP3 PUSH2 0x24C5 JUMP JUMPDEST SWAP2 POP PUSH32 0xFFFFFFFFFFFFFFFFFFFFFFFFFFFFFFFFFFFFFFFFFFFFFFFFFFFFFFFFFFFFFFFF DUP3 SUB PUSH2 0x2E39 JUMPI PUSH2 0x2E38 PUSH2 0x2C08 JUMP JUMPDEST JUMPDEST PUSH1 0x1 DUP3 ADD SWAP1 POP SWAP2 SWAP1 POP JUMP JUMPDEST PUSH0 PUSH2 0x2E4E DUP3 PUSH2 0x24C5 JUMP JUMPDEST SWAP2 POP PUSH2 0x2E59 DUP4 PUSH2 0x24C5 JUMP JUMPDEST SWAP3 POP DUP3 DUP3 MUL PUSH2 0x2E67 DUP2 PUSH2 0x24C5 JUMP JUMPDEST SWAP2 POP DUP3 DUP3 DIV DUP5 EQ DUP4 ISZERO OR PUSH2 0x2E7E JUMPI PUSH2 0x2E7D PUSH2 0x2C08 JUMP JUMPDEST JUMPDEST POP SWAP3 SWAP2 POP POP JUMP JUMPDEST PUSH32 0x4E487B7100000000000000000000000000000000000000000000000000000000 PUSH0 MSTORE PUSH1 0x12 PUSH1 0x4 MSTORE PUSH1 0x24 PUSH0 REVERT JUMPDEST PUSH0 PUSH2 0x2EBC DUP3 PUSH2 0x24C5 JUMP JUMPDEST SWAP2 POP PUSH2 0x2EC7 DUP4 PUSH2 0x24C5 JUMP JUMPDEST SWAP3 POP DUP3 PUSH2 0x2ED7 JUMPI PUSH2 0x2ED6 PUSH2 0x2E85 JUMP JUMPDEST JUMPDEST DUP3 DUP3 DIV SWAP1 POP SWAP3 SWAP2 POP POP JUMP JUMPDEST PUSH0 PUSH2 0x2EEC DUP3 PUSH2 0x24C5 JUMP JUMPDEST SWAP2 POP PUSH2 0x2EF7 DUP4 PUSH2 0x24C5 JUMP JUMPDEST SWAP3 POP DUP3 DUP3 SUB SWAP1 POP DUP2 DUP2 GT ISZERO PUSH2 0x2F0F JUMPI PUSH2 0x2F0E PUSH2 0x2C08 JUMP JUMPDEST JUMPDEST SWAP3 SWAP2 POP POP JUMP JUMPDEST PUSH0 DUP2 SWAP1 POP SWAP2 SWAP1 POP JUMP JUMPDEST PUSH0 PUSH2 0x2F38 PUSH2 0x2F33 PUSH2 0x2F2E DUP5 PUSH2 0x2F15 JUMP JUMPDEST PUSH2 0x2B94 JUMP JUMPDEST PUSH2 0x287F JUMP JUMPDEST SWAP1 POP SWAP2 SWAP1 POP JUMP JUMPDEST PUSH2 0x2F48 DUP2 PUSH2 0x2F1E JUMP JUMPDEST DUP3 MSTORE POP POP JUMP JUMPDEST PUSH0 PUSH1 0x20 DUP3 ADD SWAP1 POP PUSH2 0x2F61 PUSH0 DUP4 ADD DUP5 PUSH2 0x2F3F JUMP JUMPDEST SWAP3 SWAP2 POP POP JUMP JUMPDEST PUSH32 0x5265656E7472616E637947756172643A207265656E7472616E742063616C6C00 PUSH0 DUP3 ADD MSTORE POP JUMP JUMPDEST PUSH0 PUSH2 0x2F9B PUSH1 0x1F DUP4 PUSH2 0x2994 JUMP JUMPDEST SWAP2 POP PUSH2 0x2FA6 DUP3 PUSH2 0x2F67 JUMP JUMPDEST PUSH1 0x20 DUP3 ADD SWAP1 POP SWAP2 SWAP1 POP JUMP JUMPDEST PUSH0 PUSH1 0x20 DUP3 ADD SWAP1 POP DUP2 DUP2 SUB PUSH0 DUP4 ADD MSTORE PUSH2 0x2FC8 DUP2 PUSH2 0x2F8F JUMP JUMPDEST SWAP1 POP SWAP2 SWAP1 POP JUMP JUMPDEST PUSH32 0x5061757361626C653A2070617573656400000000000000000000000000000000 PUSH0 DUP3 ADD MSTORE POP JUMP JUMPDEST PUSH0 PUSH2 0x3003 PUSH1 0x10 DUP4 PUSH2 0x2994 JUMP JUMPDEST SWAP2 POP PUSH2 0x300E DUP3 PUSH2 0x2FCF JUMP JUMPDEST PUSH1 0x20 DUP3 ADD SWAP1 POP SWAP2 SWAP1 POP JUMP JUMPDEST PUSH0 PUSH1 0x20 DUP3 ADD SWAP1 POP DUP2 DUP2 SUB PUSH0 DUP4 ADD MSTORE PUSH2 0x3030 DUP2 PUSH2 0x2FF7 JUMP JUMPDEST SWAP1 POP SWAP2 SWAP1 POP JUMP JUMPDEST PUSH0 PUSH1 0x60 DUP3 ADD SWAP1 POP PUSH2 0x304A PUSH0 DUP4 ADD DUP7 PUSH2 0x2857 JUMP JUMPDEST PUSH2 0x3057 PUSH1 0x20 DUP4 ADD DUP6 PUSH2 0x2857 JUMP JUMPDEST PUSH2 0x3064 PUSH1 0x40 DUP4 ADD DUP5 PUSH2 0x2590 JUMP JUMPDEST SWAP5 SWAP4 POP POP POP POP JUMP JUMPDEST PUSH2 0x3075 DUP2 PUSH2 0x27D3 JUMP JUMPDEST DUP2 EQ PUSH2 0x307F JUMPI PUSH0 PUSH0 REVERT JUMPDEST POP JUMP JUMPDEST PUSH0 DUP2 MLOAD SWAP1 POP PUSH2 0x3090 DUP2 PUSH2 0x306C JUMP JUMPDEST SWAP3 SWAP2 POP POP JUMP JUMPDEST PUSH0 PUSH1 0x20 DUP3 DUP5 SUB SLT ISZERO PUSH2 0x30AB JUMPI PUSH2 0x30AA PUSH2 0x24BD JUMP JUMPDEST JUMPDEST PUSH0 PUSH2 0x30B8 DUP5 DUP3 DUP6 ADD PUSH2 0x3082 JUMP JUMPDEST SWAP2 POP POP SWAP3 SWAP2 POP POP JUMP JUMPDEST PUSH0 PUSH1 0x40 DUP3 ADD SWAP1 POP PUSH2 0x30D4 PUSH0 DUP4 ADD DUP6 PUSH2 0x2857 JUMP JUMPDEST PUSH2 0x30E1 PUSH1 0x20 DUP4 ADD DUP5 PUSH2 0x2590 JUMP JUMPDEST SWAP4 SWAP3 POP POP POP JUMP JUMPDEST PUSH0 DUP2 MLOAD SWAP1 POP PUSH2 0x30F6 DUP2 PUSH2 0x25C3 JUMP JUMPDEST SWAP3 SWAP2 POP POP JUMP JUMPDEST PUSH0 PUSH1 0x20 DUP3 DUP5 SUB SLT ISZERO PUSH2 0x3111 JUMPI PUSH2 0x3110 PUSH2 0x24BD JUMP JUMPDEST JUMPDEST PUSH0 PUSH2 0x311E DUP5 DUP3 DUP6 ADD PUSH2 0x30E8 JUMP JUMPDEST SWAP2 POP POP SWAP3 SWAP2 POP POP JUMP JUMPDEST PUSH32 0x5361666545524332303A204552433230206F7065726174696F6E20646964206E PUSH0 DUP3 ADD MSTORE PUSH32 0x6F74207375636365656400000000000000000000000000000000000000000000 PUSH1 0x20 DUP3 ADD MSTORE POP JUMP JUMPDEST PUSH0 PUSH2 0x3181 PUSH1 0x2A DUP4 PUSH2 0x2994 JUMP JUMPDEST SWAP2 POP PUSH2 0x318C DUP3 PUSH2 0x3127 JUMP JUMPDEST PUSH1 0x40 DUP3 ADD SWAP1 POP SWAP2 SWAP1 POP JUMP JUMPDEST PUSH0 PUSH1 0x20 DUP3 ADD SWAP1 POP DUP2 DUP2 SUB PUSH0 DUP4 ADD MSTORE PUSH2 0x31AE DUP2 PUSH2 0x3175 JUMP JUMPDEST SWAP1 POP SWAP2 SWAP1 POP JUMP JUMPDEST PUSH32 0x5061757361626C653A206E6F7420706175736564000000000000000000000000 PUSH0 DUP3 ADD MSTORE POP JUMP JUMPDEST PUSH0 PUSH2 0x31E9 PUSH1 0x14 DUP4 PUSH2 0x2994 JUMP JUMPDEST SWAP2 POP PUSH2 0x31F4 DUP3 PUSH2 0x31B5 JUMP JUMPDEST PUSH1 0x20 DUP3 ADD SWAP1 POP SWAP2 SWAP1 POP JUMP JUMPDEST PUSH0 PUSH1 0x20 DUP3 ADD SWAP1 POP DUP2 DUP2 SUB PUSH0 DUP4 ADD MSTORE PUSH2 0x3216 DUP2 PUSH2 0x31DD JUMP JUMPDEST SWAP1 POP SWAP2 SWAP1 POP JUMP JUMPDEST PUSH0 DUP2 MLOAD SWAP1 POP SWAP2 SWAP1 POP JUMP JUMPDEST PUSH0 DUP2 SWAP1 POP SWAP3 SWAP2 POP POP JUMP JUMPDEST PUSH0 PUSH2 0x323B DUP3 PUSH2 0x321D JUMP JUMPDEST PUSH2 0x3245 DUP2 DUP6 PUSH2 0x3227 JUMP JUMPDEST SWAP4 POP PUSH2 0x3255 DUP2 DUP6 PUSH1 0x20 DUP7 ADD PUSH2 0x29A4 JUMP JUMPDEST DUP1 DUP5 ADD SWAP2 POP POP SWAP3 SWAP2 POP POP JUMP JUMPDEST PUSH0 PUSH2 0x326C DUP3 DUP5 PUSH2 0x3231 JUMP JUMPDEST SWAP2 POP DUP2 SWAP1 POP SWAP3 SWAP2 POP POP JUMP JUMPDEST PUSH32 0x416464726573733A20696E73756666696369656E742062616C616E636520666F PUSH0 DUP3 ADD MSTORE PUSH32 0x722063616C6C0000000000000000000000000000000000000000000000000000 PUSH1 0x20 DUP3 ADD MSTORE POP JUMP JUMPDEST PUSH0 PUSH2 0x32D1 PUSH1 0x26 DUP4 PUSH2 0x2994 JUMP JUMPDEST SWAP2 POP PUSH2 0x32DC DUP3 PUSH2 0x3277 JUMP JUMPDEST PUSH1 0x40 DUP3 ADD SWAP1 POP SWAP2 SWAP1 POP JUMP JUMPDEST PUSH0 PUSH1 0x20 DUP3 ADD SWAP1 POP DUP2 DUP2 SUB PUSH0 DUP4 ADD MSTORE PUSH2 0x32FE DUP2 PUSH2 0x32C5 JUMP JUMPDEST SWAP1 POP SWAP2 SWAP1 POP JUMP JUMPDEST PUSH32 0x416464726573733A2063616C6C20746F206E6F6E2D636F6E7472616374000000 PUSH0 DUP3 ADD MSTORE POP JUMP JUMPDEST PUSH0 PUSH2 0x3339 PUSH1 0x1D DUP4 PUSH2 0x2994 JUMP JUMPDEST SWAP2 POP PUSH2 0x3344 DUP3 PUSH2 0x3305 JUMP JUMPDEST PUSH1 0x20 DUP3 ADD SWAP1 POP SWAP2 SWAP1 POP JUMP JUMPDEST PUSH0 PUSH1 0x20 DUP3 ADD SWAP1 POP DUP2 DUP2 SUB PUSH0 DUP4 ADD MSTORE PUSH2 0x3366 DUP2 PUSH2 0x332D JUMP JUMPDEST SWAP1 POP SWAP2 SWAP1 POP JUMP INVALID LOG2 PUSH5 0x6970667358 0x22 SLT KECCAK256 0xD3 EXTDELEGATECALL JUMPDEST CALL 0xE EXTSTATICCALL 0xE9 0xBB DUP2 SAR 0x25 0x2B INVALID SWAP16 EXP SSTORE STATICCALL EXTCODESIZE DUP13 0xF POP PUSH27 0x6A2332CE068A92E65EBD64736F6C634300081E0033000000000000 "
				},
				"gasEstimates": {
					"creation": {
						"codeDepositCost": "2643800",
						"executionCost": "infinite",
						"totalCost": "infinite"
					},
					"external": {
						"MAX_FEE()": "353",
						"UPGRADE_INTERFACE_VERSION()": "infinite",
						"claimReward(uint256)": "infinite",
						"createMarket(uint64,uint16,address,int256)": "infinite",
						"initialize(address)": "infinite",
						"marketCount()": "2491",
						"markets(uint256)": "infinite",
						"noBets(uint256,address)": "infinite",
						"owner()": "2589",
						"pause()": "infinite",
						"paused()": "2518",
						"placeBet(uint256,bool,uint256)": "infinite",
						"proxiableUUID()": "infinite",
						"renounceOwnership()": "infinite",
						"resolveMarket(uint256)": "infinite",
						"token()": "infinite",
						"transferOwnership(address)": "infinite",
						"unpause()": "infinite",
						"upgradeToAndCall(address,bytes)": "infinite",
						"yesBets(uint256,address)": "infinite"
					},
					"internal": {
						"_authorizeUpgrade(address)": "infinite"
					}
				},
				"methodIdentifiers": {
					"MAX_FEE()": "bc063e1a",
					"UPGRADE_INTERFACE_VERSION()": "ad3cb1cc",
					"claimReward(uint256)": "ae169a50",
					"createMarket(uint64,uint16,address,int256)": "a611f359",
					"initialize(address)": "c4d66de8",
					"marketCount()": "ec979082",
					"markets(uint256)": "b1283e77",
					"noBets(uint256,address)": "155e4b82",
					"owner()": "8da5cb5b",
					"pause()": "8456cb59",
					"paused()": "5c975abb",
					"placeBet(uint256,bool,uint256)": "1a38cac6",
					"proxiableUUID()": "52d1902d",
					"renounceOwnership()": "715018a6",
					"resolveMarket(uint256)": "6399d03d",
					"token()": "fc0c546a",
					"transferOwnership(address)": "f2fde38b",
					"unpause()": "3f4ba83a",
					"upgradeToAndCall(address,bytes)": "4f1ef286",
					"yesBets(uint256,address)": "354c6199"
				}
			},
			"storageLayout": {
				"storage": [
					{
						"astId": 787,
						"contract": "Smart Contracts/25_PredictionMarket.sol:AdvancedPredictionMarket",
						"label": "_status",
						"offset": 0,
						"slot": "0",
						"type": "t_uint256"
					},
					{
						"astId": 856,
						"contract": "Smart Contracts/25_PredictionMarket.sol:AdvancedPredictionMarket",
						"label": "__gap",
						"offset": 0,
						"slot": "1",
						"type": "t_array(t_uint256)49_storage"
					},
					{
						"astId": 666,
						"contract": "Smart Contracts/25_PredictionMarket.sol:AdvancedPredictionMarket",
						"label": "_paused",
						"offset": 0,
						"slot": "50",
						"type": "t_bool"
					},
					{
						"astId": 771,
						"contract": "Smart Contracts/25_PredictionMarket.sol:AdvancedPredictionMarket",
						"label": "__gap",
						"offset": 0,
						"slot": "51",
						"type": "t_array(t_uint256)49_storage"
					},
					{
						"astId": 2543,
						"contract": "Smart Contracts/25_PredictionMarket.sol:AdvancedPredictionMarket",
						"label": "token",
						"offset": 0,
						"slot": "100",
						"type": "t_contract(IERC20Upgradeable)935"
					},
					{
						"astId": 2545,
						"contract": "Smart Contracts/25_PredictionMarket.sol:AdvancedPredictionMarket",
						"label": "marketCount",
						"offset": 0,
						"slot": "101",
						"type": "t_uint256"
					},
					{
						"astId": 2553,
						"contract": "Smart Contracts/25_PredictionMarket.sol:AdvancedPredictionMarket",
						"label": "markets",
						"offset": 0,
						"slot": "102",
						"type": "t_mapping(t_uint256,t_struct(Market)2540_storage)"
					},
					{
						"astId": 2559,
						"contract": "Smart Contracts/25_PredictionMarket.sol:AdvancedPredictionMarket",
						"label": "yesBets",
						"offset": 0,
						"slot": "103",
						"type": "t_mapping(t_uint256,t_mapping(t_address,t_uint256))"
					},
					{
						"astId": 2565,
						"contract": "Smart Contracts/25_PredictionMarket.sol:AdvancedPredictionMarket",
						"label": "noBets",
						"offset": 0,
						"slot": "104",
						"type": "t_mapping(t_uint256,t_mapping(t_address,t_uint256))"
					}
				],
				"types": {
					"t_address": {
						"encoding": "inplace",
						"label": "address",
						"numberOfBytes": "20"
					},
					"t_array(t_uint256)49_storage": {
						"base": "t_uint256",
						"encoding": "inplace",
						"label": "uint256[49]",
						"numberOfBytes": "1568"
					},
					"t_bool": {
						"encoding": "inplace",
						"label": "bool",
						"numberOfBytes": "1"
					},
					"t_contract(IERC20Upgradeable)935": {
						"encoding": "inplace",
						"label": "contract IERC20Upgradeable",
						"numberOfBytes": "20"
					},
					"t_enum(Outcome)2522": {
						"encoding": "inplace",
						"label": "enum AdvancedPredictionMarket.Outcome",
						"numberOfBytes": "1"
					},
					"t_int256": {
						"encoding": "inplace",
						"label": "int256",
						"numberOfBytes": "32"
					},
					"t_mapping(t_address,t_uint256)": {
						"encoding": "mapping",
						"key": "t_address",
						"label": "mapping(address => uint256)",
						"numberOfBytes": "32",
						"value": "t_uint256"
					},
					"t_mapping(t_uint256,t_mapping(t_address,t_uint256))": {
						"encoding": "mapping",
						"key": "t_uint256",
						"label": "mapping(uint256 => mapping(address => uint256))",
						"numberOfBytes": "32",
						"value": "t_mapping(t_address,t_uint256)"
					},
					"t_mapping(t_uint256,t_struct(Market)2540_storage)": {
						"encoding": "mapping",
						"key": "t_uint256",
						"label": "mapping(uint256 => struct AdvancedPredictionMarket.Market)",
						"numberOfBytes": "32",
						"value": "t_struct(Market)2540_storage"
					},
					"t_struct(Market)2540_storage": {
						"encoding": "inplace",
						"label": "struct AdvancedPredictionMarket.Market",
						"members": [
							{
								"astId": 2524,
								"contract": "Smart Contracts/25_PredictionMarket.sol:AdvancedPredictionMarket",
								"label": "totalYes",
								"offset": 0,
								"slot": "0",
								"type": "t_uint128"
							},
							{
								"astId": 2526,
								"contract": "Smart Contracts/25_PredictionMarket.sol:AdvancedPredictionMarket",
								"label": "totalNo",
								"offset": 16,
								"slot": "0",
								"type": "t_uint128"
							},
							{
								"astId": 2528,
								"contract": "Smart Contracts/25_PredictionMarket.sol:AdvancedPredictionMarket",
								"label": "deadline",
								"offset": 0,
								"slot": "1",
								"type": "t_uint64"
							},
							{
								"astId": 2530,
								"contract": "Smart Contracts/25_PredictionMarket.sol:AdvancedPredictionMarket",
								"label": "feePercent",
								"offset": 8,
								"slot": "1",
								"type": "t_uint16"
							},
							{
								"astId": 2532,
								"contract": "Smart Contracts/25_PredictionMarket.sol:AdvancedPredictionMarket",
								"label": "resolved",
								"offset": 10,
								"slot": "1",
								"type": "t_bool"
							},
							{
								"astId": 2535,
								"contract": "Smart Contracts/25_PredictionMarket.sol:AdvancedPredictionMarket",
								"label": "result",
								"offset": 11,
								"slot": "1",
								"type": "t_enum(Outcome)2522"
							},
							{
								"astId": 2537,
								"contract": "Smart Contracts/25_PredictionMarket.sol:AdvancedPredictionMarket",
								"label": "oracle",
								"offset": 12,
								"slot": "1",
								"type": "t_address"
							},
							{
								"astId": 2539,
								"contract": "Smart Contracts/25_PredictionMarket.sol:AdvancedPredictionMarket",
								"label": "targetPrice",
								"offset": 0,
								"slot": "2",
								"type": "t_int256"
							}
						],
						"numberOfBytes": "96"
					},
					"t_uint128": {
						"encoding": "inplace",
						"label": "uint128",
						"numberOfBytes": "16"
					},
					"t_uint16": {
						"encoding": "inplace",
						"label": "uint16",
						"numberOfBytes": "2"
					},
					"t_uint256": {
						"encoding": "inplace",
						"label": "uint256",
						"numberOfBytes": "32"
					},
					"t_uint64": {
						"encoding": "inplace",
						"label": "uint64",
						"numberOfBytes": "8"
					}
				}
			},
			"userdoc": {
				"kind": "user",
				"methods": {},
				"version": 1
			}
		}
	}
}