{
	"Smart Contracts/Treasury.sol": {
		"Treasury": {
			"abi": [
				{
					"inputs": [
						{
							"internalType": "address",
							"name": "owner_",
							"type": "address"
						}
					],
					"stateMutability": "nonpayable",
					"type": "constructor"
				},
				{
					"inputs": [
						{
							"internalType": "address",
							"name": "owner",
							"type": "address"
						}
					],
					"name": "OwnableInvalidOwner",
					"type": "error"
				},
				{
					"inputs": [
						{
							"internalType": "address",
							"name": "account",
							"type": "address"
						}
					],
					"name": "OwnableUnauthorizedAccount",
					"type": "error"
				},
				{
					"anonymous": false,
					"inputs": [
						{
							"indexed": false,
							"internalType": "uint256",
							"name": "newFeeBps",
							"type": "uint256"
						}
					],
					"name": "FeeUpdated",
					"type": "event"
				},
				{
					"anonymous": false,
					"inputs": [
						{
							"indexed": true,
							"internalType": "address",
							"name": "previousOwner",
							"type": "address"
						},
						{
							"indexed": true,
							"internalType": "address",
							"name": "newOwner",
							"type": "address"
						}
					],
					"name": "OwnershipTransferred",
					"type": "event"
				},
				{
					"anonymous": false,
					"inputs": [
						{
							"indexed": true,
							"internalType": "address",
							"name": "to",
							"type": "address"
						},
						{
							"indexed": false,
							"internalType": "uint256",
							"name": "amount",
							"type": "uint256"
						}
					],
					"name": "Paid",
					"type": "event"
				},
				{
					"inputs": [],
					"name": "feeBps",
					"outputs": [
						{
							"internalType": "uint256",
							"name": "",
							"type": "uint256"
						}
					],
					"stateMutability": "view",
					"type": "function"
				},
				{
					"inputs": [],
					"name": "owner",
					"outputs": [
						{
							"internalType": "address",
							"name": "",
							"type": "address"
						}
					],
					"stateMutability": "view",
					"type": "function"
				},
				{
					"inputs": [
						{
							"internalType": "address payable",
							"name": "to",
							"type": "address"
						},
						{
							"internalType": "uint256",
							"name": "amount",
							"type": "uint256"
						}
					],
					"name": "pay",
					"outputs": [],
					"stateMutability": "nonpayable",
					"type": "function"
				},
				{
					"inputs": [],
					"name": "renounceOwnership",
					"outputs": [],
					"stateMutability": "nonpayable",
					"type": "function"
				},
				{
					"inputs": [
						{
							"internalType": "uint256",
							"name": "newFeeBps",
							"type": "uint256"
						}
					],
					"name": "setFeeBps",
					"outputs": [],
					"stateMutability": "nonpayable",
					"type": "function"
				},
				{
					"inputs": [
						{
							"internalType": "address",
							"name": "newOwner",
							"type": "address"
						}
					],
					"name": "transferOwnership",
					"outputs": [],
					"stateMutability": "nonpayable",
					"type": "function"
				},
				{
					"stateMutability": "payable",
					"type": "receive"
				}
			],
			"devdoc": {
				"errors": {
					"OwnableInvalidOwner(address)": [
						{
							"details": "The owner is not a valid owner account. (eg. `address(0)`)"
						}
					],
					"OwnableUnauthorizedAccount(address)": [
						{
							"details": "The caller account is not authorized to perform an operation."
						}
					]
				},
				"kind": "dev",
				"methods": {
					"owner()": {
						"details": "Returns the address of the current owner."
					},
					"renounceOwnership()": {
						"details": "Leaves the contract without owner. It will not be possible to call `onlyOwner` functions. Can only be called by the current owner. NOTE: Renouncing ownership will leave the contract without an owner, thereby disabling any functionality that is only available to the owner."
					},
					"transferOwnership(address)": {
						"details": "Transfers ownership of the contract to a new account (`newOwner`). Can only be called by the current owner."
					}
				},
				"version": 1
			},
			"evm": {
				"assembly": "    /* \"Smart Contracts/Treasury.sol\":117:861  contract Treasury is Ownable {... */\n  mstore(0x40, 0x80)\n    /* \"Smart Contracts/Treasury.sol\":326:372  constructor(address owner_) Ownable(owner_) {} */\n  callvalue\n  dup1\n  iszero\n  tag_1\n  jumpi\n  0x00\n  dup1\n  revert\ntag_1:\n  pop\n  mload(0x40)\n  sub(codesize, bytecodeSize)\n  dup1\n  bytecodeSize\n  dup4\n  codecopy\n  dup2\n  add\n  0x40\n  dup2\n  swap1\n  mstore\n  tag_2\n  swap2\n  tag_3\n  jump\t// in\ntag_2:\n    /* \"Smart Contracts/Treasury.sol\":362:368  owner_ */\n  dup1\n  sub(shl(0xa0, 0x01), 0x01)\n    /* \"@openzeppelin/contracts/access/Ownable.sol\":1273:1299  initialOwner == address(0) */\n  dup2\n  and\n    /* \"@openzeppelin/contracts/access/Ownable.sol\":1269:1364  if (initialOwner == address(0)) {... */\n  tag_7\n  jumpi\n    /* \"@openzeppelin/contracts/access/Ownable.sol\":1322:1353  OwnableInvalidOwner(address(0)) */\n  mload(0x40)\n  shl(0xe0, 0x1e4fbdf7)\n  dup2\n  mstore\n    /* \"@openzeppelin/contracts/access/Ownable.sol\":1350:1351  0 */\n  0x00\n    /* \"@openzeppelin/contracts/access/Ownable.sol\":1322:1353  OwnableInvalidOwner(address(0)) */\n  0x04\n  dup3\n  add\n    /* \"#utility.yul\":455:506   */\n  mstore\n    /* \"#utility.yul\":428:446   */\n  0x24\n  add\n    /* \"@openzeppelin/contracts/access/Ownable.sol\":1322:1353  OwnableInvalidOwner(address(0)) */\n  mload(0x40)\n  dup1\n  swap2\n  sub\n  swap1\n  revert\n    /* \"@openzeppelin/contracts/access/Ownable.sol\":1269:1364  if (initialOwner == address(0)) {... */\ntag_7:\n    /* \"@openzeppelin/contracts/access/Ownable.sol\":1373:1405  _transferOwnership(initialOwner) */\n  tag_10\n    /* \"@openzeppelin/contracts/access/Ownable.sol\":1392:1404  initialOwner */\n  dup2\n    /* \"@openzeppelin/contracts/access/Ownable.sol\":1373:1391  _transferOwnership */\n  tag_11\n    /* \"@openzeppelin/contracts/access/Ownable.sol\":1373:1405  _transferOwnership(initialOwner) */\n  jump\t// in\ntag_10:\n    /* \"@openzeppelin/contracts/access/Ownable.sol\":1225:1412  constructor(address initialOwner) {... */\n  pop\n    /* \"Smart Contracts/Treasury.sol\":326:372  constructor(address owner_) Ownable(owner_) {} */\n  pop\n    /* \"Smart Contracts/Treasury.sol\":117:861  contract Treasury is Ownable {... */\n  jump(tag_15)\n    /* \"@openzeppelin/contracts/access/Ownable.sol\":2912:3099  function _transferOwnership(address newOwner) internal virtual {... */\ntag_11:\n    /* \"@openzeppelin/contracts/access/Ownable.sol\":2985:3001  address oldOwner */\n  0x00\n    /* \"@openzeppelin/contracts/access/Ownable.sol\":3004:3010  _owner */\n  dup1\n  sload\n  sub(shl(0xa0, 0x01), 0x01)\n    /* \"@openzeppelin/contracts/access/Ownable.sol\":3020:3037  _owner = newOwner */\n  dup4\n  dup2\n  and\n  not(sub(shl(0xa0, 0x01), 0x01))\n  dup4\n  and\n  dup2\n  or\n  dup5\n  sstore\n    /* \"@openzeppelin/contracts/access/Ownable.sol\":3052:3092  OwnershipTransferred(oldOwner, newOwner) */\n  mload(0x40)\n    /* \"@openzeppelin/contracts/access/Ownable.sol\":3004:3010  _owner */\n  swap2\n  swap1\n  swap3\n  and\n  swap3\n  dup4\n  swap2\n    /* \"@openzeppelin/contracts/access/Ownable.sol\":3052:3092  OwnershipTransferred(oldOwner, newOwner) */\n  0x8be0079c531659141344cd1fd0a4f28419497f9722a3daafe3b4186f6b6457e0\n  swap2\n    /* \"@openzeppelin/contracts/access/Ownable.sol\":2985:3001  address oldOwner */\n  swap1\n    /* \"@openzeppelin/contracts/access/Ownable.sol\":3052:3092  OwnershipTransferred(oldOwner, newOwner) */\n  log3\n    /* \"@openzeppelin/contracts/access/Ownable.sol\":2975:3099  {... */\n  pop\n    /* \"@openzeppelin/contracts/access/Ownable.sol\":2912:3099  function _transferOwnership(address newOwner) internal virtual {... */\n  pop\n  jump\t// out\n    /* \"#utility.yul\":14:304   */\ntag_3:\n    /* \"#utility.yul\":84:90   */\n  0x00\n    /* \"#utility.yul\":137:139   */\n  0x20\n    /* \"#utility.yul\":125:134   */\n  dup3\n    /* \"#utility.yul\":116:123   */\n  dup5\n    /* \"#utility.yul\":112:135   */\n  sub\n    /* \"#utility.yul\":108:140   */\n  slt\n    /* \"#utility.yul\":105:157   */\n  iszero\n  tag_17\n  jumpi\n    /* \"#utility.yul\":153:154   */\n  0x00\n    /* \"#utility.yul\":150:151   */\n  dup1\n    /* \"#utility.yul\":143:155   */\n  revert\n    /* \"#utility.yul\":105:157   */\ntag_17:\n    /* \"#utility.yul\":179:195   */\n  dup2\n  mload\n  sub(shl(0xa0, 0x01), 0x01)\n    /* \"#utility.yul\":224:255   */\n  dup2\n  and\n    /* \"#utility.yul\":214:256   */\n  dup2\n  eq\n    /* \"#utility.yul\":204:274   */\n  tag_18\n  jumpi\n    /* \"#utility.yul\":270:271   */\n  0x00\n    /* \"#utility.yul\":267:268   */\n  dup1\n    /* \"#utility.yul\":260:272   */\n  revert\n    /* \"#utility.yul\":204:274   */\ntag_18:\n    /* \"#utility.yul\":293:298   */\n  swap4\n    /* \"#utility.yul\":14:304   */\n  swap3\n  pop\n  pop\n  pop\n  jump\t// out\n    /* \"#utility.yul\":309:512   */\ntag_15:\n    /* \"Smart Contracts/Treasury.sol\":117:861  contract Treasury is Ownable {... */\n  dataSize(sub_0)\n  dup1\n  dataOffset(sub_0)\n  0x00\n  codecopy\n  0x00\n  return\nstop\n\nsub_0: assembly {\n        /* \"Smart Contracts/Treasury.sol\":117:861  contract Treasury is Ownable {... */\n      mstore(0x40, 0x80)\n      jumpi(tag_1, lt(calldatasize, 0x04))\n      shr(0xe0, calldataload(0x00))\n      dup1\n      0x24a9d853\n      eq\n      tag_3\n      jumpi\n      dup1\n      0x715018a6\n      eq\n      tag_4\n      jumpi\n      dup1\n      0x72c27b62\n      eq\n      tag_5\n      jumpi\n      dup1\n      0x8da5cb5b\n      eq\n      tag_6\n      jumpi\n      dup1\n      0xc4076876\n      eq\n      tag_7\n      jumpi\n      dup1\n      0xf2fde38b\n      eq\n      tag_8\n      jumpi\n      0x00\n      dup1\n      revert\n    tag_1:\n      jumpi(tag_2, calldatasize)\n      stop\n    tag_2:\n      0x00\n      dup1\n      revert\n        /* \"Smart Contracts/Treasury.sol\":250:271  uint256 public feeBps */\n    tag_3:\n      callvalue\n      dup1\n      iszero\n      tag_11\n      jumpi\n      0x00\n      dup1\n      revert\n    tag_11:\n      pop\n      tag_12\n      sload(0x01)\n      dup2\n      jump\n    tag_12:\n      mload(0x40)\n        /* \"#utility.yul\":160:185   */\n      swap1\n      dup2\n      mstore\n        /* \"#utility.yul\":148:150   */\n      0x20\n        /* \"#utility.yul\":133:151   */\n      add\n        /* \"Smart Contracts/Treasury.sol\":250:271  uint256 public feeBps */\n    tag_14:\n      mload(0x40)\n      dup1\n      swap2\n      sub\n      swap1\n      return\n        /* \"@openzeppelin/contracts/access/Ownable.sol\":2293:2394  function renounceOwnership() public virtual onlyOwner {... */\n    tag_4:\n      callvalue\n      dup1\n      iszero\n      tag_16\n      jumpi\n      0x00\n      dup1\n      revert\n    tag_16:\n      pop\n      tag_17\n      tag_18\n      jump\t// in\n    tag_17:\n      stop\n        /* \"Smart Contracts/Treasury.sol\":672:858  function setFeeBps(uint256 newFeeBps) external onlyOwner {... */\n    tag_5:\n      callvalue\n      dup1\n      iszero\n      tag_19\n      jumpi\n      0x00\n      dup1\n      revert\n    tag_19:\n      pop\n      tag_17\n      tag_21\n      calldatasize\n      0x04\n      tag_22\n      jump\t// in\n    tag_21:\n      tag_23\n      jump\t// in\n        /* \"@openzeppelin/contracts/access/Ownable.sol\":1638:1723  function owner() public view virtual returns (address) {... */\n    tag_6:\n      callvalue\n      dup1\n      iszero\n      tag_24\n      jumpi\n      0x00\n      dup1\n      revert\n    tag_24:\n      pop\n        /* \"@openzeppelin/contracts/access/Ownable.sol\":1684:1691  address */\n      0x00\n        /* \"@openzeppelin/contracts/access/Ownable.sol\":1710:1716  _owner */\n      sload\n        /* \"@openzeppelin/contracts/access/Ownable.sol\":1638:1723  function owner() public view virtual returns (address) {... */\n      mload(0x40)\n      sub(shl(0xa0, 0x01), 0x01)\n        /* \"@openzeppelin/contracts/access/Ownable.sol\":1710:1716  _owner */\n      swap1\n      swap2\n      and\n        /* \"#utility.yul\":527:578   */\n      dup2\n      mstore\n        /* \"#utility.yul\":515:517   */\n      0x20\n        /* \"#utility.yul\":500:518   */\n      add\n        /* \"@openzeppelin/contracts/access/Ownable.sol\":1638:1723  function owner() public view virtual returns (address) {... */\n      tag_14\n        /* \"#utility.yul\":381:584   */\n      jump\n        /* \"Smart Contracts/Treasury.sol\":417:664  function pay(address payable to, uint256 amount) external onlyOwner {... */\n    tag_7:\n      callvalue\n      dup1\n      iszero\n      tag_29\n      jumpi\n      0x00\n      dup1\n      revert\n    tag_29:\n      pop\n      tag_17\n      tag_31\n      calldatasize\n      0x04\n      tag_32\n      jump\t// in\n    tag_31:\n      tag_33\n      jump\t// in\n        /* \"@openzeppelin/contracts/access/Ownable.sol\":2543:2758  function transferOwnership(address newOwner) public virtual onlyOwner {... */\n    tag_8:\n      callvalue\n      dup1\n      iszero\n      tag_34\n      jumpi\n      0x00\n      dup1\n      revert\n    tag_34:\n      pop\n      tag_17\n      tag_36\n      calldatasize\n      0x04\n      tag_37\n      jump\t// in\n    tag_36:\n      tag_38\n      jump\t// in\n        /* \"@openzeppelin/contracts/access/Ownable.sol\":2293:2394  function renounceOwnership() public virtual onlyOwner {... */\n    tag_18:\n        /* \"@openzeppelin/contracts/access/Ownable.sol\":1531:1544  _checkOwner() */\n      tag_40\n        /* \"@openzeppelin/contracts/access/Ownable.sol\":1531:1542  _checkOwner */\n      tag_41\n        /* \"@openzeppelin/contracts/access/Ownable.sol\":1531:1544  _checkOwner() */\n      jump\t// in\n    tag_40:\n        /* \"@openzeppelin/contracts/access/Ownable.sol\":2357:2387  _transferOwnership(address(0)) */\n      tag_43\n        /* \"@openzeppelin/contracts/access/Ownable.sol\":2384:2385  0 */\n      0x00\n        /* \"@openzeppelin/contracts/access/Ownable.sol\":2357:2375  _transferOwnership */\n      tag_44\n        /* \"@openzeppelin/contracts/access/Ownable.sol\":2357:2387  _transferOwnership(address(0)) */\n      jump\t// in\n    tag_43:\n        /* \"@openzeppelin/contracts/access/Ownable.sol\":2293:2394  function renounceOwnership() public virtual onlyOwner {... */\n      jump\t// out\n        /* \"Smart Contracts/Treasury.sol\":672:858  function setFeeBps(uint256 newFeeBps) external onlyOwner {... */\n    tag_23:\n        /* \"@openzeppelin/contracts/access/Ownable.sol\":1531:1544  _checkOwner() */\n      tag_46\n        /* \"@openzeppelin/contracts/access/Ownable.sol\":1531:1542  _checkOwner */\n      tag_41\n        /* \"@openzeppelin/contracts/access/Ownable.sol\":1531:1544  _checkOwner() */\n      jump\t// in\n    tag_46:\n        /* \"Smart Contracts/Treasury.sol\":761:765  1000 */\n      0x03e8\n        /* \"Smart Contracts/Treasury.sol\":748:757  newFeeBps */\n      dup2\n        /* \"Smart Contracts/Treasury.sol\":748:765  newFeeBps <= 1000 */\n      gt\n      iszero\n        /* \"Smart Contracts/Treasury.sol\":740:774  require(newFeeBps <= 1000, \"HIGH\") */\n      tag_48\n      jumpi\n      mload(0x40)\n      shl(0xe5, 0x461bcd)\n      dup2\n      mstore\n      0x04\n      add\n      tag_49\n      swap1\n        /* \"#utility.yul\":1531:1533   */\n      0x20\n        /* \"#utility.yul\":1513:1534   */\n      dup1\n      dup3\n      mstore\n        /* \"#utility.yul\":1570:1571   */\n      0x04\n        /* \"#utility.yul\":1550:1568   */\n      swap1\n      dup3\n      add\n        /* \"#utility.yul\":1543:1572   */\n      mstore\n      shl(0xe3, 0x090928e9)\n        /* \"#utility.yul\":1603:1605   */\n      0x40\n        /* \"#utility.yul\":1588:1606   */\n      dup3\n      add\n        /* \"#utility.yul\":1581:1615   */\n      mstore\n        /* \"#utility.yul\":1647:1649   */\n      0x60\n        /* \"#utility.yul\":1632:1650   */\n      add\n      swap1\n        /* \"#utility.yul\":1329:1656   */\n      jump\n        /* \"Smart Contracts/Treasury.sol\":740:774  require(newFeeBps <= 1000, \"HIGH\") */\n    tag_49:\n      mload(0x40)\n      dup1\n      swap2\n      sub\n      swap1\n      revert\n    tag_48:\n        /* \"Smart Contracts/Treasury.sol\":795:801  feeBps */\n      0x01\n        /* \"Smart Contracts/Treasury.sol\":795:813  feeBps = newFeeBps */\n      dup2\n      swap1\n      sstore\n        /* \"Smart Contracts/Treasury.sol\":829:850  FeeUpdated(newFeeBps) */\n      mload(0x40)\n        /* \"#utility.yul\":160:185   */\n      dup2\n      dup2\n      mstore\n        /* \"Smart Contracts/Treasury.sol\":829:850  FeeUpdated(newFeeBps) */\n      0x8c4d35e54a3f2ef1134138fd8ea3daee6a3c89e10d2665996babdf70261e2c76\n      swap1\n        /* \"#utility.yul\":148:150   */\n      0x20\n        /* \"#utility.yul\":133:151   */\n      add\n        /* \"Smart Contracts/Treasury.sol\":829:850  FeeUpdated(newFeeBps) */\n      mload(0x40)\n      dup1\n      swap2\n      sub\n      swap1\n      log1\n        /* \"Smart Contracts/Treasury.sol\":672:858  function setFeeBps(uint256 newFeeBps) external onlyOwner {... */\n      pop\n      jump\t// out\n        /* \"Smart Contracts/Treasury.sol\":417:664  function pay(address payable to, uint256 amount) external onlyOwner {... */\n    tag_33:\n        /* \"@openzeppelin/contracts/access/Ownable.sol\":1531:1544  _checkOwner() */\n      tag_54\n        /* \"@openzeppelin/contracts/access/Ownable.sol\":1531:1542  _checkOwner */\n      tag_41\n        /* \"@openzeppelin/contracts/access/Ownable.sol\":1531:1544  _checkOwner() */\n      jump\t// in\n    tag_54:\n        /* \"Smart Contracts/Treasury.sol\":529:535  amount */\n      dup1\n        /* \"Smart Contracts/Treasury.sol\":504:525  address(this).balance */\n      selfbalance\n        /* \"Smart Contracts/Treasury.sol\":504:535  address(this).balance >= amount */\n      lt\n      iszero\n        /* \"Smart Contracts/Treasury.sol\":496:543  require(address(this).balance >= amount, \"BAL\") */\n      tag_56\n      jumpi\n      mload(0x40)\n      shl(0xe5, 0x461bcd)\n      dup2\n      mstore\n        /* \"#utility.yul\":1863:1865   */\n      0x20\n        /* \"Smart Contracts/Treasury.sol\":496:543  require(address(this).balance >= amount, \"BAL\") */\n      0x04\n      dup3\n      add\n        /* \"#utility.yul\":1845:1866   */\n      mstore\n        /* \"#utility.yul\":1902:1903   */\n      0x03\n        /* \"#utility.yul\":1882:1900   */\n      0x24\n      dup3\n      add\n        /* \"#utility.yul\":1875:1904   */\n      mstore\n      shl(0xea, 0x109053)\n        /* \"#utility.yul\":1920:1938   */\n      0x44\n      dup3\n      add\n        /* \"#utility.yul\":1913:1946   */\n      mstore\n        /* \"#utility.yul\":1963:1981   */\n      0x64\n      add\n        /* \"Smart Contracts/Treasury.sol\":496:543  require(address(this).balance >= amount, \"BAL\") */\n      tag_49\n        /* \"#utility.yul\":1661:1987   */\n      jump\n        /* \"Smart Contracts/Treasury.sol\":496:543  require(address(this).balance >= amount, \"BAL\") */\n    tag_56:\n        /* \"Smart Contracts/Treasury.sol\":555:562  bool ok */\n      0x00\n        /* \"Smart Contracts/Treasury.sol\":568:570  to */\n      dup3\n      sub(shl(0xa0, 0x01), 0x01)\n        /* \"Smart Contracts/Treasury.sol\":568:575  to.call */\n      and\n        /* \"Smart Contracts/Treasury.sol\":583:589  amount */\n      dup3\n        /* \"Smart Contracts/Treasury.sol\":568:594  to.call{value: amount}(\"\") */\n      mload(0x40)\n      0x00\n      mload(0x40)\n      dup1\n      dup4\n      sub\n      dup2\n      dup6\n      dup8\n      gas\n      call\n      swap3\n      pop\n      pop\n      pop\n      returndatasize\n      dup1\n      0x00\n      dup2\n      eq\n      tag_63\n      jumpi\n      mload(0x40)\n      swap2\n      pop\n      and(add(returndatasize, 0x3f), not(0x1f))\n      dup3\n      add\n      0x40\n      mstore\n      returndatasize\n      dup3\n      mstore\n      returndatasize\n      0x00\n      0x20\n      dup5\n      add\n      returndatacopy\n      jump(tag_62)\n    tag_63:\n      0x60\n      swap2\n      pop\n    tag_62:\n      pop\n        /* \"Smart Contracts/Treasury.sol\":554:594  (bool ok, ) = to.call{value: amount}(\"\") */\n      pop\n      swap1\n      pop\n        /* \"Smart Contracts/Treasury.sol\":613:615  ok */\n      dup1\n        /* \"Smart Contracts/Treasury.sol\":605:624  require(ok, \"FAIL\") */\n      tag_64\n      jumpi\n      mload(0x40)\n      shl(0xe5, 0x461bcd)\n      dup2\n      mstore\n      0x04\n      add\n      tag_49\n      swap1\n        /* \"#utility.yul\":2404:2406   */\n      0x20\n        /* \"#utility.yul\":2386:2407   */\n      dup1\n      dup3\n      mstore\n        /* \"#utility.yul\":2443:2444   */\n      0x04\n        /* \"#utility.yul\":2423:2441   */\n      swap1\n      dup3\n      add\n        /* \"#utility.yul\":2416:2445   */\n      mstore\n      shl(0xe2, 0x11905253)\n        /* \"#utility.yul\":2476:2478   */\n      0x40\n        /* \"#utility.yul\":2461:2479   */\n      dup3\n      add\n        /* \"#utility.yul\":2454:2488   */\n      mstore\n        /* \"#utility.yul\":2520:2522   */\n      0x60\n        /* \"#utility.yul\":2505:2523   */\n      add\n      swap1\n        /* \"#utility.yul\":2202:2529   */\n      jump\n        /* \"Smart Contracts/Treasury.sol\":605:624  require(ok, \"FAIL\") */\n    tag_64:\n        /* \"Smart Contracts/Treasury.sol\":645:647  to */\n      dup3\n      sub(shl(0xa0, 0x01), 0x01)\n        /* \"Smart Contracts/Treasury.sol\":640:656  Paid(to, amount) */\n      and\n      0x737c69225d647e5994eab1a6c301bf6d9232beb2759ae1e27a8966b4732bc489\n        /* \"Smart Contracts/Treasury.sol\":649:655  amount */\n      dup4\n        /* \"Smart Contracts/Treasury.sol\":640:656  Paid(to, amount) */\n      mload(0x40)\n      tag_67\n      swap2\n        /* \"#utility.yul\":160:185   */\n      dup2\n      mstore\n        /* \"#utility.yul\":148:150   */\n      0x20\n        /* \"#utility.yul\":133:151   */\n      add\n      swap1\n        /* \"#utility.yul\":14:191   */\n      jump\n        /* \"Smart Contracts/Treasury.sol\":640:656  Paid(to, amount) */\n    tag_67:\n      mload(0x40)\n      dup1\n      swap2\n      sub\n      swap1\n      log2\n        /* \"Smart Contracts/Treasury.sol\":485:664  {... */\n      pop\n        /* \"Smart Contracts/Treasury.sol\":417:664  function pay(address payable to, uint256 amount) external onlyOwner {... */\n      pop\n      pop\n      jump\t// out\n        /* \"@openzeppelin/contracts/access/Ownable.sol\":2543:2758  function transferOwnership(address newOwner) public virtual onlyOwner {... */\n    tag_38:\n        /* \"@openzeppelin/contracts/access/Ownable.sol\":1531:1544  _checkOwner() */\n      tag_69\n        /* \"@openzeppelin/contracts/access/Ownable.sol\":1531:1542  _checkOwner */\n      tag_41\n        /* \"@openzeppelin/contracts/access/Ownable.sol\":1531:1544  _checkOwner() */\n      jump\t// in\n    tag_69:\n      sub(shl(0xa0, 0x01), 0x01)\n        /* \"@openzeppelin/contracts/access/Ownable.sol\":2627:2649  newOwner == address(0) */\n      dup2\n      and\n        /* \"@openzeppelin/contracts/access/Ownable.sol\":2623:2714  if (newOwner == address(0)) {... */\n      tag_71\n      jumpi\n        /* \"@openzeppelin/contracts/access/Ownable.sol\":2672:2703  OwnableInvalidOwner(address(0)) */\n      mload(0x40)\n      shl(0xe0, 0x1e4fbdf7)\n      dup2\n      mstore\n        /* \"@openzeppelin/contracts/access/Ownable.sol\":2700:2701  0 */\n      0x00\n        /* \"@openzeppelin/contracts/access/Ownable.sol\":2672:2703  OwnableInvalidOwner(address(0)) */\n      0x04\n      dup3\n      add\n        /* \"#utility.yul\":527:578   */\n      mstore\n        /* \"#utility.yul\":500:518   */\n      0x24\n      add\n        /* \"@openzeppelin/contracts/access/Ownable.sol\":2672:2703  OwnableInvalidOwner(address(0)) */\n      tag_49\n        /* \"#utility.yul\":381:584   */\n      jump\n        /* \"@openzeppelin/contracts/access/Ownable.sol\":2623:2714  if (newOwner == address(0)) {... */\n    tag_71:\n        /* \"@openzeppelin/contracts/access/Ownable.sol\":2723:2751  _transferOwnership(newOwner) */\n      tag_73\n        /* \"@openzeppelin/contracts/access/Ownable.sol\":2742:2750  newOwner */\n      dup2\n        /* \"@openzeppelin/contracts/access/Ownable.sol\":2723:2741  _transferOwnership */\n      tag_44\n        /* \"@openzeppelin/contracts/access/Ownable.sol\":2723:2751  _transferOwnership(newOwner) */\n      jump\t// in\n    tag_73:\n        /* \"@openzeppelin/contracts/access/Ownable.sol\":2543:2758  function transferOwnership(address newOwner) public virtual onlyOwner {... */\n      pop\n      jump\t// out\n        /* \"@openzeppelin/contracts/access/Ownable.sol\":1796:1958  function _checkOwner() internal view virtual {... */\n    tag_41:\n        /* \"@openzeppelin/contracts/access/Ownable.sol\":1684:1691  address */\n      0x00\n        /* \"@openzeppelin/contracts/access/Ownable.sol\":1710:1716  _owner */\n      sload\n      sub(shl(0xa0, 0x01), 0x01)\n      and\n        /* \"@openzeppelin/contracts/utils/Context.sol\":735:745  msg.sender */\n      caller\n        /* \"@openzeppelin/contracts/access/Ownable.sol\":1855:1878  owner() != _msgSender() */\n      eq\n        /* \"@openzeppelin/contracts/access/Ownable.sol\":1851:1952  if (owner() != _msgSender()) {... */\n      tag_43\n      jumpi\n        /* \"@openzeppelin/contracts/access/Ownable.sol\":1901:1941  OwnableUnauthorizedAccount(_msgSender()) */\n      mload(0x40)\n      shl(0xe0, 0x118cdaa7)\n      dup2\n      mstore\n        /* \"@openzeppelin/contracts/utils/Context.sol\":735:745  msg.sender */\n      caller\n        /* \"@openzeppelin/contracts/access/Ownable.sol\":1901:1941  OwnableUnauthorizedAccount(_msgSender()) */\n      0x04\n      dup3\n      add\n        /* \"#utility.yul\":527:578   */\n      mstore\n        /* \"#utility.yul\":500:518   */\n      0x24\n      add\n        /* \"@openzeppelin/contracts/access/Ownable.sol\":1901:1941  OwnableUnauthorizedAccount(_msgSender()) */\n      tag_49\n        /* \"#utility.yul\":381:584   */\n      jump\n        /* \"@openzeppelin/contracts/access/Ownable.sol\":2912:3099  function _transferOwnership(address newOwner) internal virtual {... */\n    tag_44:\n        /* \"@openzeppelin/contracts/access/Ownable.sol\":2985:3001  address oldOwner */\n      0x00\n        /* \"@openzeppelin/contracts/access/Ownable.sol\":3004:3010  _owner */\n      dup1\n      sload\n      sub(shl(0xa0, 0x01), 0x01)\n        /* \"@openzeppelin/contracts/access/Ownable.sol\":3020:3037  _owner = newOwner */\n      dup4\n      dup2\n      and\n      not(sub(shl(0xa0, 0x01), 0x01))\n      dup4\n      and\n      dup2\n      or\n      dup5\n      sstore\n        /* \"@openzeppelin/contracts/access/Ownable.sol\":3052:3092  OwnershipTransferred(oldOwner, newOwner) */\n      mload(0x40)\n        /* \"@openzeppelin/contracts/access/Ownable.sol\":3004:3010  _owner */\n      swap2\n      swap1\n      swap3\n      and\n      swap3\n      dup4\n      swap2\n        /* \"@openzeppelin/contracts/access/Ownable.sol\":3052:3092  OwnershipTransferred(oldOwner, newOwner) */\n      0x8be0079c531659141344cd1fd0a4f28419497f9722a3daafe3b4186f6b6457e0\n      swap2\n        /* \"@openzeppelin/contracts/access/Ownable.sol\":2985:3001  address oldOwner */\n      swap1\n        /* \"@openzeppelin/contracts/access/Ownable.sol\":3052:3092  OwnershipTransferred(oldOwner, newOwner) */\n      log3\n        /* \"@openzeppelin/contracts/access/Ownable.sol\":2975:3099  {... */\n      pop\n        /* \"@openzeppelin/contracts/access/Ownable.sol\":2912:3099  function _transferOwnership(address newOwner) internal virtual {... */\n      pop\n      jump\t// out\n        /* \"#utility.yul\":196:376   */\n    tag_22:\n        /* \"#utility.yul\":255:261   */\n      0x00\n        /* \"#utility.yul\":308:310   */\n      0x20\n        /* \"#utility.yul\":296:305   */\n      dup3\n        /* \"#utility.yul\":287:294   */\n      dup5\n        /* \"#utility.yul\":283:306   */\n      sub\n        /* \"#utility.yul\":279:311   */\n      slt\n        /* \"#utility.yul\":276:328   */\n      iszero\n      tag_87\n      jumpi\n        /* \"#utility.yul\":324:325   */\n      0x00\n        /* \"#utility.yul\":321:322   */\n      dup1\n        /* \"#utility.yul\":314:326   */\n      revert\n        /* \"#utility.yul\":276:328   */\n    tag_87:\n      pop\n        /* \"#utility.yul\":347:370   */\n      calldataload\n      swap2\n        /* \"#utility.yul\":196:376   */\n      swap1\n      pop\n      jump\t// out\n        /* \"#utility.yul\":589:728   */\n    tag_83:\n      sub(shl(0xa0, 0x01), 0x01)\n        /* \"#utility.yul\":672:703   */\n      dup2\n      and\n        /* \"#utility.yul\":662:704   */\n      dup2\n      eq\n        /* \"#utility.yul\":652:722   */\n      tag_73\n      jumpi\n        /* \"#utility.yul\":718:719   */\n      0x00\n        /* \"#utility.yul\":715:716   */\n      dup1\n        /* \"#utility.yul\":708:720   */\n      revert\n        /* \"#utility.yul\":733:1064   */\n    tag_32:\n        /* \"#utility.yul\":809:815   */\n      0x00\n        /* \"#utility.yul\":817:823   */\n      dup1\n        /* \"#utility.yul\":870:872   */\n      0x40\n        /* \"#utility.yul\":858:867   */\n      dup4\n        /* \"#utility.yul\":849:856   */\n      dup6\n        /* \"#utility.yul\":845:868   */\n      sub\n        /* \"#utility.yul\":841:873   */\n      slt\n        /* \"#utility.yul\":838:890   */\n      iszero\n      tag_92\n      jumpi\n        /* \"#utility.yul\":886:887   */\n      0x00\n        /* \"#utility.yul\":883:884   */\n      dup1\n        /* \"#utility.yul\":876:888   */\n      revert\n        /* \"#utility.yul\":838:890   */\n    tag_92:\n        /* \"#utility.yul\":925:934   */\n      dup3\n        /* \"#utility.yul\":912:935   */\n      calldataload\n        /* \"#utility.yul\":944:983   */\n      tag_93\n        /* \"#utility.yul\":977:982   */\n      dup2\n        /* \"#utility.yul\":944:983   */\n      tag_83\n      jump\t// in\n    tag_93:\n        /* \"#utility.yul\":1002:1007   */\n      swap5\n        /* \"#utility.yul\":1054:1056   */\n      0x20\n        /* \"#utility.yul\":1039:1057   */\n      swap4\n      swap1\n      swap4\n      add\n        /* \"#utility.yul\":1026:1058   */\n      calldataload\n      swap4\n      pop\n      pop\n      pop\n        /* \"#utility.yul\":733:1064   */\n      jump\t// out\n        /* \"#utility.yul\":1069:1324   */\n    tag_37:\n        /* \"#utility.yul\":1128:1134   */\n      0x00\n        /* \"#utility.yul\":1181:1183   */\n      0x20\n        /* \"#utility.yul\":1169:1178   */\n      dup3\n        /* \"#utility.yul\":1160:1167   */\n      dup5\n        /* \"#utility.yul\":1156:1179   */\n      sub\n        /* \"#utility.yul\":1152:1184   */\n      slt\n        /* \"#utility.yul\":1149:1201   */\n      iszero\n      tag_95\n      jumpi\n        /* \"#utility.yul\":1197:1198   */\n      0x00\n        /* \"#utility.yul\":1194:1195   */\n      dup1\n        /* \"#utility.yul\":1187:1199   */\n      revert\n        /* \"#utility.yul\":1149:1201   */\n    tag_95:\n        /* \"#utility.yul\":1236:1245   */\n      dup2\n        /* \"#utility.yul\":1223:1246   */\n      calldataload\n        /* \"#utility.yul\":1255:1294   */\n      tag_96\n        /* \"#utility.yul\":1288:1293   */\n      dup2\n        /* \"#utility.yul\":1255:1294   */\n      tag_83\n      jump\t// in\n    tag_96:\n        /* \"#utility.yul\":1313:1318   */\n      swap4\n        /* \"#utility.yul\":1069:1324   */\n      swap3\n      pop\n      pop\n      pop\n      jump\t// out\n\n    auxdata: 0xa2646970667358221220e4574495d534cf08d0f2fecb05399522b1defd1b7f325ecb163acb09372f7ad464736f6c63430008180033\n}\n",
				"bytecode": {
					"linkReferences": {},
					"object": "608060405234801561000f575f80fd5b5060405161052538038061052583398101604081905261002e916100bb565b806001600160a01b03811661005c57604051631e4fbdf760e01b81525f600482015260240160405180910390fd5b6100658161006c565b50506100e8565b5f80546001600160a01b038381166001600160a01b0319831681178455604051919092169283917f8be0079c531659141344cd1fd0a4f28419497f9722a3daafe3b4186f6b6457e09190a35050565b5f602082840312156100cb575f80fd5b81516001600160a01b03811681146100e1575f80fd5b9392505050565b610430806100f55f395ff3fe608060405260043610610057575f3560e01c806324a9d85314610062578063715018a61461008a57806372c27b62146100a05780638da5cb5b146100bf578063c4076876146100e5578063f2fde38b14610104575f80fd5b3661005e57005b5f80fd5b34801561006d575f80fd5b5061007760015481565b6040519081526020015b60405180910390f35b348015610095575f80fd5b5061009e610123565b005b3480156100ab575f80fd5b5061009e6100ba366004610383565b610136565b3480156100ca575f80fd5b505f546040516001600160a01b039091168152602001610081565b3480156100f0575f80fd5b5061009e6100ff3660046103ae565b6101bd565b34801561010f575f80fd5b5061009e61011e3660046103d8565b6102cb565b61012b610308565b6101345f610334565b565b61013e610308565b6103e88111156101825760405162461bcd60e51b815260040161017990602080825260049082015263090928e960e31b604082015260600190565b60405180910390fd5b60018190556040518181527f8c4d35e54a3f2ef1134138fd8ea3daee6a3c89e10d2665996babdf70261e2c769060200160405180910390a150565b6101c5610308565b804710156101fb5760405162461bcd60e51b815260206004820152600360248201526210905360ea1b6044820152606401610179565b5f826001600160a01b0316826040515f6040518083038185875af1925050503d805f8114610244576040519150601f19603f3d011682016040523d82523d5f602084013e610249565b606091505b50509050806102835760405162461bcd60e51b8152600401610179906020808252600490820152631190525360e21b604082015260600190565b826001600160a01b03167f737c69225d647e5994eab1a6c301bf6d9232beb2759ae1e27a8966b4732bc489836040516102be91815260200190565b60405180910390a2505050565b6102d3610308565b6001600160a01b0381166102fc57604051631e4fbdf760e01b81525f6004820152602401610179565b61030581610334565b50565b5f546001600160a01b031633146101345760405163118cdaa760e01b8152336004820152602401610179565b5f80546001600160a01b038381166001600160a01b0319831681178455604051919092169283917f8be0079c531659141344cd1fd0a4f28419497f9722a3daafe3b4186f6b6457e09190a35050565b5f60208284031215610393575f80fd5b5035919050565b6001600160a01b0381168114610305575f80fd5b5f80604083850312156103bf575f80fd5b82356103ca8161039a565b946020939093013593505050565b5f602082840312156103e8575f80fd5b81356103f38161039a565b939250505056fea2646970667358221220e4574495d534cf08d0f2fecb05399522b1defd1b7f325ecb163acb09372f7ad464736f6c63430008180033",
					"opcodes": "PUSH1 0x80 PUSH1 0x40 MSTORE CALLVALUE DUP1 ISZERO PUSH2 0xF JUMPI PUSH0 DUP1 REVERT JUMPDEST POP PUSH1 0x40 MLOAD PUSH2 0x525 CODESIZE SUB DUP1 PUSH2 0x525 DUP4 CODECOPY DUP2 ADD PUSH1 0x40 DUP2 SWAP1 MSTORE PUSH2 0x2E SWAP2 PUSH2 0xBB JUMP JUMPDEST DUP1 PUSH1 0x1 PUSH1 0x1 PUSH1 0xA0 SHL SUB DUP2 AND PUSH2 0x5C JUMPI PUSH1 0x40 MLOAD PUSH4 0x1E4FBDF7 PUSH1 0xE0 SHL DUP2 MSTORE PUSH0 PUSH1 0x4 DUP3 ADD MSTORE PUSH1 0x24 ADD PUSH1 0x40 MLOAD DUP1 SWAP2 SUB SWAP1 REVERT JUMPDEST PUSH2 0x65 DUP2 PUSH2 0x6C JUMP JUMPDEST POP POP PUSH2 0xE8 JUMP JUMPDEST PUSH0 DUP1 SLOAD PUSH1 0x1 PUSH1 0x1 PUSH1 0xA0 SHL SUB DUP4 DUP2 AND PUSH1 0x1 PUSH1 0x1 PUSH1 0xA0 SHL SUB NOT DUP4 AND DUP2 OR DUP5 SSTORE PUSH1 0x40 MLOAD SWAP2 SWAP1 SWAP3 AND SWAP3 DUP4 SWAP2 PUSH32 0x8BE0079C531659141344CD1FD0A4F28419497F9722A3DAAFE3B4186F6B6457E0 SWAP2 SWAP1 LOG3 POP POP JUMP JUMPDEST PUSH0 PUSH1 0x20 DUP3 DUP5 SUB SLT ISZERO PUSH2 0xCB JUMPI PUSH0 DUP1 REVERT JUMPDEST DUP2 MLOAD PUSH1 0x1 PUSH1 0x1 PUSH1 0xA0 SHL SUB DUP2 AND DUP2 EQ PUSH2 0xE1 JUMPI PUSH0 DUP1 REVERT JUMPDEST SWAP4 SWAP3 POP POP POP JUMP JUMPDEST PUSH2 0x430 DUP1 PUSH2 0xF5 PUSH0 CODECOPY PUSH0 RETURN INVALID PUSH1 0x80 PUSH1 0x40 MSTORE PUSH1 0x4 CALLDATASIZE LT PUSH2 0x57 JUMPI PUSH0 CALLDATALOAD PUSH1 0xE0 SHR DUP1 PUSH4 0x24A9D853 EQ PUSH2 0x62 JUMPI DUP1 PUSH4 0x715018A6 EQ PUSH2 0x8A JUMPI DUP1 PUSH4 0x72C27B62 EQ PUSH2 0xA0 JUMPI DUP1 PUSH4 0x8DA5CB5B EQ PUSH2 0xBF JUMPI DUP1 PUSH4 0xC4076876 EQ PUSH2 0xE5 JUMPI DUP1 PUSH4 0xF2FDE38B EQ PUSH2 0x104 JUMPI PUSH0 DUP1 REVERT JUMPDEST CALLDATASIZE PUSH2 0x5E JUMPI STOP JUMPDEST PUSH0 DUP1 REVERT JUMPDEST CALLVALUE DUP1 ISZERO PUSH2 0x6D JUMPI PUSH0 DUP1 REVERT JUMPDEST POP PUSH2 0x77 PUSH1 0x1 SLOAD DUP2 JUMP JUMPDEST PUSH1 0x40 MLOAD SWAP1 DUP2 MSTORE PUSH1 0x20 ADD JUMPDEST PUSH1 0x40 MLOAD DUP1 SWAP2 SUB SWAP1 RETURN JUMPDEST CALLVALUE DUP1 ISZERO PUSH2 0x95 JUMPI PUSH0 DUP1 REVERT JUMPDEST POP PUSH2 0x9E PUSH2 0x123 JUMP JUMPDEST STOP JUMPDEST CALLVALUE DUP1 ISZERO PUSH2 0xAB JUMPI PUSH0 DUP1 REVERT JUMPDEST POP PUSH2 0x9E PUSH2 0xBA CALLDATASIZE PUSH1 0x4 PUSH2 0x383 JUMP JUMPDEST PUSH2 0x136 JUMP JUMPDEST CALLVALUE DUP1 ISZERO PUSH2 0xCA JUMPI PUSH0 DUP1 REVERT JUMPDEST POP PUSH0 SLOAD PUSH1 0x40 MLOAD PUSH1 0x1 PUSH1 0x1 PUSH1 0xA0 SHL SUB SWAP1 SWAP2 AND DUP2 MSTORE PUSH1 0x20 ADD PUSH2 0x81 JUMP JUMPDEST CALLVALUE DUP1 ISZERO PUSH2 0xF0 JUMPI PUSH0 DUP1 REVERT JUMPDEST POP PUSH2 0x9E PUSH2 0xFF CALLDATASIZE PUSH1 0x4 PUSH2 0x3AE JUMP JUMPDEST PUSH2 0x1BD JUMP JUMPDEST CALLVALUE DUP1 ISZERO PUSH2 0x10F JUMPI PUSH0 DUP1 REVERT JUMPDEST POP PUSH2 0x9E PUSH2 0x11E CALLDATASIZE PUSH1 0x4 PUSH2 0x3D8 JUMP JUMPDEST PUSH2 0x2CB JUMP JUMPDEST PUSH2 0x12B PUSH2 0x308 JUMP JUMPDEST PUSH2 0x134 PUSH0 PUSH2 0x334 JUMP JUMPDEST JUMP JUMPDEST PUSH2 0x13E PUSH2 0x308 JUMP JUMPDEST PUSH2 0x3E8 DUP2 GT ISZERO PUSH2 0x182 JUMPI PUSH1 0x40 MLOAD PUSH3 0x461BCD PUSH1 0xE5 SHL DUP2 MSTORE PUSH1 0x4 ADD PUSH2 0x179 SWAP1 PUSH1 0x20 DUP1 DUP3 MSTORE PUSH1 0x4 SWAP1 DUP3 ADD MSTORE PUSH4 0x90928E9 PUSH1 0xE3 SHL PUSH1 0x40 DUP3 ADD MSTORE PUSH1 0x60 ADD SWAP1 JUMP JUMPDEST PUSH1 0x40 MLOAD DUP1 SWAP2 SUB SWAP1 REVERT JUMPDEST PUSH1 0x1 DUP2 SWAP1 SSTORE PUSH1 0x40 MLOAD DUP2 DUP2 MSTORE PUSH32 0x8C4D35E54A3F2EF1134138FD8EA3DAEE6A3C89E10D2665996BABDF70261E2C76 SWAP1 PUSH1 0x20 ADD PUSH1 0x40 MLOAD DUP1 SWAP2 SUB SWAP1 LOG1 POP JUMP JUMPDEST PUSH2 0x1C5 PUSH2 0x308 JUMP JUMPDEST DUP1 SELFBALANCE LT ISZERO PUSH2 0x1FB JUMPI PUSH1 0x40 MLOAD PUSH3 0x461BCD PUSH1 0xE5 SHL DUP2 MSTORE PUSH1 0x20 PUSH1 0x4 DUP3 ADD MSTORE PUSH1 0x3 PUSH1 0x24 DUP3 ADD MSTORE PUSH3 0x109053 PUSH1 0xEA SHL PUSH1 0x44 DUP3 ADD MSTORE PUSH1 0x64 ADD PUSH2 0x179 JUMP JUMPDEST PUSH0 DUP3 PUSH1 0x1 PUSH1 0x1 PUSH1 0xA0 SHL SUB AND DUP3 PUSH1 0x40 MLOAD PUSH0 PUSH1 0x40 MLOAD DUP1 DUP4 SUB DUP2 DUP6 DUP8 GAS CALL SWAP3 POP POP POP RETURNDATASIZE DUP1 PUSH0 DUP2 EQ PUSH2 0x244 JUMPI PUSH1 0x40 MLOAD SWAP2 POP PUSH1 0x1F NOT PUSH1 0x3F RETURNDATASIZE ADD AND DUP3 ADD PUSH1 0x40 MSTORE RETURNDATASIZE DUP3 MSTORE RETURNDATASIZE PUSH0 PUSH1 0x20 DUP5 ADD RETURNDATACOPY PUSH2 0x249 JUMP JUMPDEST PUSH1 0x60 SWAP2 POP JUMPDEST POP POP SWAP1 POP DUP1 PUSH2 0x283 JUMPI PUSH1 0x40 MLOAD PUSH3 0x461BCD PUSH1 0xE5 SHL DUP2 MSTORE PUSH1 0x4 ADD PUSH2 0x179 SWAP1 PUSH1 0x20 DUP1 DUP3 MSTORE PUSH1 0x4 SWAP1 DUP3 ADD MSTORE PUSH4 0x11905253 PUSH1 0xE2 SHL PUSH1 0x40 DUP3 ADD MSTORE PUSH1 0x60 ADD SWAP1 JUMP JUMPDEST DUP3 PUSH1 0x1 PUSH1 0x1 PUSH1 0xA0 SHL SUB AND PUSH32 0x737C69225D647E5994EAB1A6C301BF6D9232BEB2759AE1E27A8966B4732BC489 DUP4 PUSH1 0x40 MLOAD PUSH2 0x2BE SWAP2 DUP2 MSTORE PUSH1 0x20 ADD SWAP1 JUMP JUMPDEST PUSH1 0x40 MLOAD DUP1 SWAP2 SUB SWAP1 LOG2 POP POP POP JUMP JUMPDEST PUSH2 0x2D3 PUSH2 0x308 JUMP JUMPDEST PUSH1 0x1 PUSH1 0x1 PUSH1 0xA0 SHL SUB DUP2 AND PUSH2 0x2FC JUMPI PUSH1 0x40 MLOAD PUSH4 0x1E4FBDF7 PUSH1 0xE0 SHL DUP2 MSTORE PUSH0 PUSH1 0x4 DUP3 ADD MSTORE PUSH1 0x24 ADD PUSH2 0x179 JUMP JUMPDEST PUSH2 0x305 DUP2 PUSH2 0x334 JUMP JUMPDEST POP JUMP JUMPDEST PUSH0 SLOAD PUSH1 0x1 PUSH1 0x1 PUSH1 0xA0 SHL SUB AND CALLER EQ PUSH2 0x134 JUMPI PUSH1 0x40 MLOAD PUSH4 0x118CDAA7 PUSH1 0xE0 SHL DUP2 MSTORE CALLER PUSH1 0x4 DUP3 ADD MSTORE PUSH1 0x24 ADD PUSH2 0x179 JUMP JUMPDEST PUSH0 DUP1 SLOAD PUSH1 0x1 PUSH1 0x1 PUSH1 0xA0 SHL SUB DUP4 DUP2 AND PUSH1 0x1 PUSH1 0x1 PUSH1 0xA0 SHL SUB NOT DUP4 AND DUP2 OR DUP5 SSTORE PUSH1 0x40 MLOAD SWAP2 SWAP1 SWAP3 AND SWAP3 DUP4 SWAP2 PUSH32 0x8BE0079C531659141344CD1FD0A4F28419497F9722A3DAAFE3B4186F6B6457E0 SWAP2 SWAP1 LOG3 POP POP JUMP JUMPDEST PUSH0 PUSH1 0x20 DUP3 DUP5 SUB SLT ISZERO PUSH2 0x393 JUMPI PUSH0 DUP1 REVERT JUMPDEST POP CALLDATALOAD SWAP2 SWAP1 POP JUMP JUMPDEST PUSH1 0x1 PUSH1 0x1 PUSH1 0xA0 SHL SUB DUP2 AND DUP2 EQ PUSH2 0x305 JUMPI PUSH0 DUP1 REVERT JUMPDEST PUSH0 DUP1 PUSH1 0x40 DUP4 DUP6 SUB SLT ISZERO PUSH2 0x3BF JUMPI PUSH0 DUP1 REVERT JUMPDEST DUP3 CALLDATALOAD PUSH2 0x3CA DUP2 PUSH2 0x39A JUMP JUMPDEST SWAP5 PUSH1 0x20 SWAP4 SWAP1 SWAP4 ADD CALLDATALOAD SWAP4 POP POP POP JUMP JUMPDEST PUSH0 PUSH1 0x20 DUP3 DUP5 SUB SLT ISZERO PUSH2 0x3E8 JUMPI PUSH0 DUP1 REVERT JUMPDEST DUP2 CALLDATALOAD PUSH2 0x3F3 DUP2 PUSH2 0x39A JUMP JUMPDEST SWAP4 SWAP3 POP POP POP JUMP INVALID LOG2 PUSH5 0x6970667358 0x22 SLT KECCAK256 0xE4 JUMPI PREVRANDAO SWAP6 0xD5 CALLVALUE 0xCF ADDMOD 0xD0 CALLCODE INVALID 0xCB SDIV CODECOPY SWAP6 0x22 0xB1 0xDE REVERT SHL PUSH32 0x325ECB163ACB09372F7AD464736F6C6343000818003300000000000000000000 "
				},
				"gasEstimates": {
					"creation": {
						"codeDepositCost": "214400",
						"executionCost": "infinite",
						"totalCost": "infinite"
					},
					"external": {
						"feeBps()": "2261",
						"owner()": "2343",
						"pay(address,uint256)": "infinite",
						"renounceOwnership()": "infinite",
						"setFeeBps(uint256)": "25598",
						"transferOwnership(address)": "infinite"
					}
				},
				"methodIdentifiers": {
					"feeBps()": "24a9d853",
					"owner()": "8da5cb5b",
					"pay(address,uint256)": "c4076876",
					"renounceOwnership()": "715018a6",
					"setFeeBps(uint256)": "72c27b62",
					"transferOwnership(address)": "f2fde38b"
				}
			},
			"storageLayout": {
				"storage": [
					{
						"astId": 8,
						"contract": "Smart Contracts/Treasury.sol:Treasury",
						"label": "_owner",
						"offset": 0,
						"slot": "0",
						"type": "t_address"
					},
					{
						"astId": 194,
						"contract": "Smart Contracts/Treasury.sol:Treasury",
						"label": "feeBps",
						"offset": 0,
						"slot": "1",
						"type": "t_uint256"
					}
				],
				"types": {
					"t_address": {
						"encoding": "inplace",
						"label": "address",
						"numberOfBytes": "20"
					},
					"t_uint256": {
						"encoding": "inplace",
						"label": "uint256",
						"numberOfBytes": "32"
					}
				}
			},
			"userdoc": {
				"kind": "user",
				"methods": {},
				"version": 1
			}
		}
	}
}