{
	"Smart Contracts/16_NFTMarketPlace.sol": {
		"NFTMarketplace": {
			"abi": [
				{
					"inputs": [
						{
							"internalType": "uint256",
							"name": "_marketplaceFee",
							"type": "uint256"
						}
					],
					"stateMutability": "nonpayable",
					"type": "constructor"
				},
				{
					"inputs": [
						{
							"internalType": "address",
							"name": "owner",
							"type": "address"
						}
					],
					"name": "OwnableInvalidOwner",
					"type": "error"
				},
				{
					"inputs": [
						{
							"internalType": "address",
							"name": "account",
							"type": "address"
						}
					],
					"name": "OwnableUnauthorizedAccount",
					"type": "error"
				},
				{
					"anonymous": false,
					"inputs": [
						{
							"indexed": true,
							"internalType": "uint256",
							"name": "listingId",
							"type": "uint256"
						}
					],
					"name": "ListingCancelled",
					"type": "event"
				},
				{
					"anonymous": false,
					"inputs": [
						{
							"indexed": true,
							"internalType": "uint256",
							"name": "listingId",
							"type": "uint256"
						},
						{
							"indexed": true,
							"internalType": "address",
							"name": "seller",
							"type": "address"
						},
						{
							"indexed": true,
							"internalType": "address",
							"name": "nftContract",
							"type": "address"
						},
						{
							"indexed": false,
							"internalType": "uint256",
							"name": "tokenId",
							"type": "uint256"
						},
						{
							"indexed": false,
							"internalType": "uint256",
							"name": "price",
							"type": "uint256"
						}
					],
					"name": "NFTListed",
					"type": "event"
				},
				{
					"anonymous": false,
					"inputs": [
						{
							"indexed": true,
							"internalType": "uint256",
							"name": "listingId",
							"type": "uint256"
						},
						{
							"indexed": false,
							"internalType": "address",
							"name": "buyer",
							"type": "address"
						},
						{
							"indexed": false,
							"internalType": "uint256",
							"name": "price",
							"type": "uint256"
						}
					],
					"name": "NFTSold",
					"type": "event"
				},
				{
					"anonymous": false,
					"inputs": [
						{
							"indexed": true,
							"internalType": "address",
							"name": "previousOwner",
							"type": "address"
						},
						{
							"indexed": true,
							"internalType": "address",
							"name": "newOwner",
							"type": "address"
						}
					],
					"name": "OwnershipTransferred",
					"type": "event"
				},
				{
					"inputs": [
						{
							"internalType": "uint256",
							"name": "_listingId",
							"type": "uint256"
						}
					],
					"name": "buyNFT",
					"outputs": [],
					"stateMutability": "payable",
					"type": "function"
				},
				{
					"inputs": [
						{
							"internalType": "uint256",
							"name": "_listingId",
							"type": "uint256"
						}
					],
					"name": "cancelListing",
					"outputs": [],
					"stateMutability": "nonpayable",
					"type": "function"
				},
				{
					"inputs": [
						{
							"internalType": "address",
							"name": "_nftContract",
							"type": "address"
						},
						{
							"internalType": "uint256",
							"name": "_tokenId",
							"type": "uint256"
						},
						{
							"internalType": "uint256",
							"name": "_price",
							"type": "uint256"
						},
						{
							"internalType": "address",
							"name": "_creator",
							"type": "address"
						},
						{
							"internalType": "uint256",
							"name": "_royalty",
							"type": "uint256"
						}
					],
					"name": "listNFT",
					"outputs": [],
					"stateMutability": "nonpayable",
					"type": "function"
				},
				{
					"inputs": [],
					"name": "listingIdCounter",
					"outputs": [
						{
							"internalType": "uint256",
							"name": "",
							"type": "uint256"
						}
					],
					"stateMutability": "view",
					"type": "function"
				},
				{
					"inputs": [
						{
							"internalType": "uint256",
							"name": "",
							"type": "uint256"
						}
					],
					"name": "listings",
					"outputs": [
						{
							"internalType": "address",
							"name": "seller",
							"type": "address"
						},
						{
							"internalType": "address",
							"name": "nftContract",
							"type": "address"
						},
						{
							"internalType": "uint256",
							"name": "tokenId",
							"type": "uint256"
						},
						{
							"internalType": "uint256",
							"name": "price",
							"type": "uint256"
						},
						{
							"internalType": "address",
							"name": "creator",
							"type": "address"
						},
						{
							"internalType": "uint256",
							"name": "royalty",
							"type": "uint256"
						},
						{
							"internalType": "bool",
							"name": "active",
							"type": "bool"
						}
					],
					"stateMutability": "view",
					"type": "function"
				},
				{
					"inputs": [],
					"name": "marketplaceFee",
					"outputs": [
						{
							"internalType": "uint256",
							"name": "",
							"type": "uint256"
						}
					],
					"stateMutability": "view",
					"type": "function"
				},
				{
					"inputs": [],
					"name": "owner",
					"outputs": [
						{
							"internalType": "address",
							"name": "",
							"type": "address"
						}
					],
					"stateMutability": "view",
					"type": "function"
				},
				{
					"inputs": [],
					"name": "renounceOwnership",
					"outputs": [],
					"stateMutability": "nonpayable",
					"type": "function"
				},
				{
					"inputs": [
						{
							"internalType": "address",
							"name": "newOwner",
							"type": "address"
						}
					],
					"name": "transferOwnership",
					"outputs": [],
					"stateMutability": "nonpayable",
					"type": "function"
				},
				{
					"inputs": [
						{
							"internalType": "uint256",
							"name": "_newFee",
							"type": "uint256"
						}
					],
					"name": "updateMarketplaceFee",
					"outputs": [],
					"stateMutability": "nonpayable",
					"type": "function"
				},
				{
					"inputs": [],
					"name": "withdrawETH",
					"outputs": [],
					"stateMutability": "nonpayable",
					"type": "function"
				}
			],
			"devdoc": {
				"errors": {
					"OwnableInvalidOwner(address)": [
						{
							"details": "The owner is not a valid owner account. (eg. `address(0)`)"
						}
					],
					"OwnableUnauthorizedAccount(address)": [
						{
							"details": "The caller account is not authorized to perform an operation."
						}
					]
				},
				"kind": "dev",
				"methods": {
					"owner()": {
						"details": "Returns the address of the current owner."
					},
					"renounceOwnership()": {
						"details": "Leaves the contract without owner. It will not be possible to call `onlyOwner` functions. Can only be called by the current owner. NOTE: Renouncing ownership will leave the contract without an owner, thereby disabling any functionality that is only available to the owner."
					},
					"transferOwnership(address)": {
						"details": "Transfers ownership of the contract to a new account (`newOwner`). Can only be called by the current owner."
					}
				},
				"version": 1
			},
			"evm": {
				"assembly": "    /* \"Smart Contracts/16_NFTMarketPlace.sol\":241:3765  contract NFTMarketplace is ReentrancyGuard, Ownable {... */\n  mstore(0x40, 0x80)\n    /* \"Smart Contracts/16_NFTMarketPlace.sol\":1019:1127  constructor(uint256 _marketplaceFee) Ownable(msg.sender) {... */\n  callvalue\n  dup1\n  iszero\n  tag_1\n  jumpi\n  revert(0x00, 0x00)\ntag_1:\n  pop\n  mload(0x40)\n  sub(codesize, bytecodeSize)\n  dup1\n  bytecodeSize\n  dup4\n  codecopy\n  dup2\n  dup2\n  add\n  0x40\n  mstore\n  dup2\n  add\n  swap1\n  tag_2\n  swap2\n  swap1\n  tag_3\n  jump\t// in\ntag_2:\n    /* \"Smart Contracts/16_NFTMarketPlace.sol\":1064:1074  msg.sender */\n  caller\n    /* \"@openzeppelin/contracts/security/ReentrancyGuard.sol\":1716:1717  1 */\n  0x01\n    /* \"@openzeppelin/contracts/security/ReentrancyGuard.sol\":1821:1828  _status */\n  0x00\n    /* \"@openzeppelin/contracts/security/ReentrancyGuard.sol\":1821:1843  _status = _NOT_ENTERED */\n  dup2\n  swap1\n  sstore\n  pop\n    /* \"@openzeppelin/contracts/access/Ownable.sol\":1297:1298  0 */\n  0x00\n    /* \"@openzeppelin/contracts/access/Ownable.sol\":1273:1299  initialOwner == address(0) */\n  0xffffffffffffffffffffffffffffffffffffffff\n  and\n    /* \"@openzeppelin/contracts/access/Ownable.sol\":1273:1285  initialOwner */\n  dup2\n    /* \"@openzeppelin/contracts/access/Ownable.sol\":1273:1299  initialOwner == address(0) */\n  0xffffffffffffffffffffffffffffffffffffffff\n  and\n  sub\n    /* \"@openzeppelin/contracts/access/Ownable.sol\":1269:1364  if (initialOwner == address(0)) {... */\n  tag_9\n  jumpi\n    /* \"@openzeppelin/contracts/access/Ownable.sol\":1350:1351  0 */\n  0x00\n    /* \"@openzeppelin/contracts/access/Ownable.sol\":1322:1353  OwnableInvalidOwner(address(0)) */\n  mload(0x40)\n  0x1e4fbdf700000000000000000000000000000000000000000000000000000000\n  dup2\n  mstore\n  0x04\n  add\n  tag_10\n  swap2\n  swap1\n  tag_11\n  jump\t// in\ntag_10:\n  mload(0x40)\n  dup1\n  swap2\n  sub\n  swap1\n  revert\n    /* \"@openzeppelin/contracts/access/Ownable.sol\":1269:1364  if (initialOwner == address(0)) {... */\ntag_9:\n    /* \"@openzeppelin/contracts/access/Ownable.sol\":1373:1405  _transferOwnership(initialOwner) */\n  tag_12\n    /* \"@openzeppelin/contracts/access/Ownable.sol\":1392:1404  initialOwner */\n  dup2\n    /* \"@openzeppelin/contracts/access/Ownable.sol\":1373:1391  _transferOwnership */\n  shl(0x20, tag_13)\n    /* \"@openzeppelin/contracts/access/Ownable.sol\":1373:1405  _transferOwnership(initialOwner) */\n  0x20\n  shr\n  jump\t// in\ntag_12:\n    /* \"@openzeppelin/contracts/access/Ownable.sol\":1225:1412  constructor(address initialOwner) {... */\n  pop\n    /* \"Smart Contracts/16_NFTMarketPlace.sol\":1104:1119  _marketplaceFee */\n  dup1\n    /* \"Smart Contracts/16_NFTMarketPlace.sol\":1087:1101  marketplaceFee */\n  0x02\n    /* \"Smart Contracts/16_NFTMarketPlace.sol\":1087:1119  marketplaceFee = _marketplaceFee */\n  dup2\n  swap1\n  sstore\n  pop\n    /* \"Smart Contracts/16_NFTMarketPlace.sol\":1019:1127  constructor(uint256 _marketplaceFee) Ownable(msg.sender) {... */\n  pop\n    /* \"Smart Contracts/16_NFTMarketPlace.sol\":241:3765  contract NFTMarketplace is ReentrancyGuard, Ownable {... */\n  jump(tag_15)\n    /* \"@openzeppelin/contracts/access/Ownable.sol\":2912:3099  function _transferOwnership(address newOwner) internal virtual {... */\ntag_13:\n    /* \"@openzeppelin/contracts/access/Ownable.sol\":2985:3001  address oldOwner */\n  0x00\n    /* \"@openzeppelin/contracts/access/Ownable.sol\":3004:3010  _owner */\n  0x01\n  0x00\n  swap1\n  sload\n  swap1\n  0x0100\n  exp\n  swap1\n  div\n  0xffffffffffffffffffffffffffffffffffffffff\n  and\n    /* \"@openzeppelin/contracts/access/Ownable.sol\":2985:3010  address oldOwner = _owner */\n  swap1\n  pop\n    /* \"@openzeppelin/contracts/access/Ownable.sol\":3029:3037  newOwner */\n  dup2\n    /* \"@openzeppelin/contracts/access/Ownable.sol\":3020:3026  _owner */\n  0x01\n  0x00\n    /* \"@openzeppelin/contracts/access/Ownable.sol\":3020:3037  _owner = newOwner */\n  0x0100\n  exp\n  dup2\n  sload\n  dup2\n  0xffffffffffffffffffffffffffffffffffffffff\n  mul\n  not\n  and\n  swap1\n  dup4\n  0xffffffffffffffffffffffffffffffffffffffff\n  and\n  mul\n  or\n  swap1\n  sstore\n  pop\n    /* \"@openzeppelin/contracts/access/Ownable.sol\":3083:3091  newOwner */\n  dup2\n    /* \"@openzeppelin/contracts/access/Ownable.sol\":3052:3092  OwnershipTransferred(oldOwner, newOwner) */\n  0xffffffffffffffffffffffffffffffffffffffff\n  and\n    /* \"@openzeppelin/contracts/access/Ownable.sol\":3073:3081  oldOwner */\n  dup2\n    /* \"@openzeppelin/contracts/access/Ownable.sol\":3052:3092  OwnershipTransferred(oldOwner, newOwner) */\n  0xffffffffffffffffffffffffffffffffffffffff\n  and\n  0x8be0079c531659141344cd1fd0a4f28419497f9722a3daafe3b4186f6b6457e0\n  mload(0x40)\n  mload(0x40)\n  dup1\n  swap2\n  sub\n  swap1\n  log3\n    /* \"@openzeppelin/contracts/access/Ownable.sol\":2975:3099  {... */\n  pop\n    /* \"@openzeppelin/contracts/access/Ownable.sol\":2912:3099  function _transferOwnership(address newOwner) internal virtual {... */\n  pop\n  jump\t// out\n    /* \"#utility.yul\":88:205   */\ntag_18:\n    /* \"#utility.yul\":197:198   */\n  0x00\n    /* \"#utility.yul\":194:195   */\n  0x00\n    /* \"#utility.yul\":187:199   */\n  revert\n    /* \"#utility.yul\":334:411   */\ntag_20:\n    /* \"#utility.yul\":371:378   */\n  0x00\n    /* \"#utility.yul\":400:405   */\n  dup2\n    /* \"#utility.yul\":389:405   */\n  swap1\n  pop\n    /* \"#utility.yul\":334:411   */\n  swap2\n  swap1\n  pop\n  jump\t// out\n    /* \"#utility.yul\":417:539   */\ntag_21:\n    /* \"#utility.yul\":490:514   */\n  tag_32\n    /* \"#utility.yul\":508:513   */\n  dup2\n    /* \"#utility.yul\":490:514   */\n  tag_20\n  jump\t// in\ntag_32:\n    /* \"#utility.yul\":483:488   */\n  dup2\n    /* \"#utility.yul\":480:515   */\n  eq\n    /* \"#utility.yul\":470:533   */\n  tag_33\n  jumpi\n    /* \"#utility.yul\":529:530   */\n  0x00\n    /* \"#utility.yul\":526:527   */\n  0x00\n    /* \"#utility.yul\":519:531   */\n  revert\n    /* \"#utility.yul\":470:533   */\ntag_33:\n    /* \"#utility.yul\":417:539   */\n  pop\n  jump\t// out\n    /* \"#utility.yul\":545:688   */\ntag_22:\n    /* \"#utility.yul\":602:607   */\n  0x00\n    /* \"#utility.yul\":633:639   */\n  dup2\n    /* \"#utility.yul\":627:640   */\n  mload\n    /* \"#utility.yul\":618:640   */\n  swap1\n  pop\n    /* \"#utility.yul\":649:682   */\n  tag_35\n    /* \"#utility.yul\":676:681   */\n  dup2\n    /* \"#utility.yul\":649:682   */\n  tag_21\n  jump\t// in\ntag_35:\n    /* \"#utility.yul\":545:688   */\n  swap3\n  swap2\n  pop\n  pop\n  jump\t// out\n    /* \"#utility.yul\":694:1045   */\ntag_3:\n    /* \"#utility.yul\":764:770   */\n  0x00\n    /* \"#utility.yul\":813:815   */\n  0x20\n    /* \"#utility.yul\":801:810   */\n  dup3\n    /* \"#utility.yul\":792:799   */\n  dup5\n    /* \"#utility.yul\":788:811   */\n  sub\n    /* \"#utility.yul\":784:816   */\n  slt\n    /* \"#utility.yul\":781:900   */\n  iszero\n  tag_37\n  jumpi\n    /* \"#utility.yul\":819:898   */\n  tag_38\n  tag_18\n  jump\t// in\ntag_38:\n    /* \"#utility.yul\":781:900   */\ntag_37:\n    /* \"#utility.yul\":939:940   */\n  0x00\n    /* \"#utility.yul\":964:1028   */\n  tag_39\n    /* \"#utility.yul\":1020:1027   */\n  dup5\n    /* \"#utility.yul\":1011:1017   */\n  dup3\n    /* \"#utility.yul\":1000:1009   */\n  dup6\n    /* \"#utility.yul\":996:1018   */\n  add\n    /* \"#utility.yul\":964:1028   */\n  tag_22\n  jump\t// in\ntag_39:\n    /* \"#utility.yul\":954:1028   */\n  swap2\n  pop\n    /* \"#utility.yul\":910:1038   */\n  pop\n    /* \"#utility.yul\":694:1045   */\n  swap3\n  swap2\n  pop\n  pop\n  jump\t// out\n    /* \"#utility.yul\":1051:1177   */\ntag_23:\n    /* \"#utility.yul\":1088:1095   */\n  0x00\n    /* \"#utility.yul\":1128:1170   */\n  0xffffffffffffffffffffffffffffffffffffffff\n    /* \"#utility.yul\":1121:1126   */\n  dup3\n    /* \"#utility.yul\":1117:1171   */\n  and\n    /* \"#utility.yul\":1106:1171   */\n  swap1\n  pop\n    /* \"#utility.yul\":1051:1177   */\n  swap2\n  swap1\n  pop\n  jump\t// out\n    /* \"#utility.yul\":1183:1279   */\ntag_24:\n    /* \"#utility.yul\":1220:1227   */\n  0x00\n    /* \"#utility.yul\":1249:1273   */\n  tag_42\n    /* \"#utility.yul\":1267:1272   */\n  dup3\n    /* \"#utility.yul\":1249:1273   */\n  tag_23\n  jump\t// in\ntag_42:\n    /* \"#utility.yul\":1238:1273   */\n  swap1\n  pop\n    /* \"#utility.yul\":1183:1279   */\n  swap2\n  swap1\n  pop\n  jump\t// out\n    /* \"#utility.yul\":1285:1403   */\ntag_25:\n    /* \"#utility.yul\":1372:1396   */\n  tag_44\n    /* \"#utility.yul\":1390:1395   */\n  dup2\n    /* \"#utility.yul\":1372:1396   */\n  tag_24\n  jump\t// in\ntag_44:\n    /* \"#utility.yul\":1367:1370   */\n  dup3\n    /* \"#utility.yul\":1360:1397   */\n  mstore\n    /* \"#utility.yul\":1285:1403   */\n  pop\n  pop\n  jump\t// out\n    /* \"#utility.yul\":1409:1631   */\ntag_11:\n    /* \"#utility.yul\":1502:1506   */\n  0x00\n    /* \"#utility.yul\":1540:1542   */\n  0x20\n    /* \"#utility.yul\":1529:1538   */\n  dup3\n    /* \"#utility.yul\":1525:1543   */\n  add\n    /* \"#utility.yul\":1517:1543   */\n  swap1\n  pop\n    /* \"#utility.yul\":1553:1624   */\n  tag_46\n    /* \"#utility.yul\":1621:1622   */\n  0x00\n    /* \"#utility.yul\":1610:1619   */\n  dup4\n    /* \"#utility.yul\":1606:1623   */\n  add\n    /* \"#utility.yul\":1597:1603   */\n  dup5\n    /* \"#utility.yul\":1553:1624   */\n  tag_25\n  jump\t// in\ntag_46:\n    /* \"#utility.yul\":1409:1631   */\n  swap3\n  swap2\n  pop\n  pop\n  jump\t// out\n    /* \"Smart Contracts/16_NFTMarketPlace.sol\":241:3765  contract NFTMarketplace is ReentrancyGuard, Ownable {... */\ntag_15:\n  dataSize(sub_0)\n  dup1\n  dataOffset(sub_0)\n  0x00\n  codecopy\n  0x00\n  return\nstop\n\nsub_0: assembly {\n        /* \"Smart Contracts/16_NFTMarketPlace.sol\":241:3765  contract NFTMarketplace is ReentrancyGuard, Ownable {... */\n      mstore(0x40, 0x80)\n      jumpi(tag_1, lt(calldatasize, 0x04))\n      shr(0xe0, calldataload(0x00))\n      dup1\n      0x715018a6\n      gt\n      tag_13\n      jumpi\n      dup1\n      0x715018a6\n      eq\n      tag_7\n      jumpi\n      dup1\n      0x86b8865c\n      eq\n      tag_8\n      jumpi\n      dup1\n      0x8da5cb5b\n      eq\n      tag_9\n      jumpi\n      dup1\n      0xde74e57b\n      eq\n      tag_10\n      jumpi\n      dup1\n      0xe086e5ec\n      eq\n      tag_11\n      jumpi\n      dup1\n      0xf2fde38b\n      eq\n      tag_12\n      jumpi\n      jump(tag_1)\n    tag_13:\n      dup1\n      0x231701e9\n      eq\n      tag_2\n      jumpi\n      dup1\n      0x305a67a8\n      eq\n      tag_3\n      jumpi\n      dup1\n      0x30eb80cd\n      eq\n      tag_4\n      jumpi\n      dup1\n      0x51ed8288\n      eq\n      tag_5\n      jumpi\n      dup1\n      0x6a166964\n      eq\n      tag_6\n      jumpi\n    tag_1:\n      revert(0x00, 0x00)\n        /* \"Smart Contracts/16_NFTMarketPlace.sol\":338:369  uint256 public listingIdCounter */\n    tag_2:\n      callvalue\n      dup1\n      iszero\n      tag_14\n      jumpi\n      revert(0x00, 0x00)\n    tag_14:\n      pop\n      tag_15\n      tag_16\n      jump\t// in\n    tag_15:\n      mload(0x40)\n      tag_17\n      swap2\n      swap1\n      tag_18\n      jump\t// in\n    tag_17:\n      mload(0x40)\n      dup1\n      swap2\n      sub\n      swap1\n      return\n        /* \"Smart Contracts/16_NFTMarketPlace.sol\":3011:3469  function cancelListing(uint256 _listingId) external nonReentrant... */\n    tag_3:\n      callvalue\n      dup1\n      iszero\n      tag_19\n      jumpi\n      revert(0x00, 0x00)\n    tag_19:\n      pop\n      tag_20\n      0x04\n      dup1\n      calldatasize\n      sub\n      dup2\n      add\n      swap1\n      tag_21\n      swap2\n      swap1\n      tag_22\n      jump\t// in\n    tag_21:\n      tag_23\n      jump\t// in\n    tag_20:\n      stop\n        /* \"Smart Contracts/16_NFTMarketPlace.sol\":3477:3640  function updateMarketplaceFee(uint256 _newFee) external onlyOwner... */\n    tag_4:\n      callvalue\n      dup1\n      iszero\n      tag_24\n      jumpi\n      revert(0x00, 0x00)\n    tag_24:\n      pop\n      tag_25\n      0x04\n      dup1\n      calldatasize\n      sub\n      dup2\n      add\n      swap1\n      tag_26\n      swap2\n      swap1\n      tag_22\n      jump\t// in\n    tag_26:\n      tag_27\n      jump\t// in\n    tag_25:\n      stop\n        /* \"Smart Contracts/16_NFTMarketPlace.sol\":2034:3003  function buyNFT(uint256 _listingId)... */\n    tag_5:\n      tag_28\n      0x04\n      dup1\n      calldatasize\n      sub\n      dup2\n      add\n      swap1\n      tag_29\n      swap2\n      swap1\n      tag_22\n      jump\t// in\n    tag_29:\n      tag_30\n      jump\t// in\n    tag_28:\n      stop\n        /* \"Smart Contracts/16_NFTMarketPlace.sol\":302:331  uint256 public marketplaceFee */\n    tag_6:\n      callvalue\n      dup1\n      iszero\n      tag_31\n      jumpi\n      revert(0x00, 0x00)\n    tag_31:\n      pop\n      tag_32\n      tag_33\n      jump\t// in\n    tag_32:\n      mload(0x40)\n      tag_34\n      swap2\n      swap1\n      tag_18\n      jump\t// in\n    tag_34:\n      mload(0x40)\n      dup1\n      swap2\n      sub\n      swap1\n      return\n        /* \"@openzeppelin/contracts/access/Ownable.sol\":2293:2394  function renounceOwnership() public virtual onlyOwner {... */\n    tag_7:\n      callvalue\n      dup1\n      iszero\n      tag_35\n      jumpi\n      revert(0x00, 0x00)\n    tag_35:\n      pop\n      tag_36\n      tag_37\n      jump\t// in\n    tag_36:\n      stop\n        /* \"Smart Contracts/16_NFTMarketPlace.sol\":1135:2026  function listNFT(... */\n    tag_8:\n      callvalue\n      dup1\n      iszero\n      tag_38\n      jumpi\n      revert(0x00, 0x00)\n    tag_38:\n      pop\n      tag_39\n      0x04\n      dup1\n      calldatasize\n      sub\n      dup2\n      add\n      swap1\n      tag_40\n      swap2\n      swap1\n      tag_41\n      jump\t// in\n    tag_40:\n      tag_42\n      jump\t// in\n    tag_39:\n      stop\n        /* \"@openzeppelin/contracts/access/Ownable.sol\":1638:1723  function owner() public view virtual returns (address) {... */\n    tag_9:\n      callvalue\n      dup1\n      iszero\n      tag_43\n      jumpi\n      revert(0x00, 0x00)\n    tag_43:\n      pop\n      tag_44\n      tag_45\n      jump\t// in\n    tag_44:\n      mload(0x40)\n      tag_46\n      swap2\n      swap1\n      tag_47\n      jump\t// in\n    tag_46:\n      mload(0x40)\n      dup1\n      swap2\n      sub\n      swap1\n      return\n        /* \"Smart Contracts/16_NFTMarketPlace.sol\":588:631  mapping(uint256 => Listing) public listings */\n    tag_10:\n      callvalue\n      dup1\n      iszero\n      tag_48\n      jumpi\n      revert(0x00, 0x00)\n    tag_48:\n      pop\n      tag_49\n      0x04\n      dup1\n      calldatasize\n      sub\n      dup2\n      add\n      swap1\n      tag_50\n      swap2\n      swap1\n      tag_22\n      jump\t// in\n    tag_50:\n      tag_51\n      jump\t// in\n    tag_49:\n      mload(0x40)\n      tag_52\n      swap8\n      swap7\n      swap6\n      swap5\n      swap4\n      swap3\n      swap2\n      swap1\n      tag_53\n      jump\t// in\n    tag_52:\n      mload(0x40)\n      dup1\n      swap2\n      sub\n      swap1\n      return\n        /* \"Smart Contracts/16_NFTMarketPlace.sol\":3648:3762  function withdrawETH() external onlyOwner... */\n    tag_11:\n      callvalue\n      dup1\n      iszero\n      tag_54\n      jumpi\n      revert(0x00, 0x00)\n    tag_54:\n      pop\n      tag_55\n      tag_56\n      jump\t// in\n    tag_55:\n      stop\n        /* \"@openzeppelin/contracts/access/Ownable.sol\":2543:2758  function transferOwnership(address newOwner) public virtual onlyOwner {... */\n    tag_12:\n      callvalue\n      dup1\n      iszero\n      tag_57\n      jumpi\n      revert(0x00, 0x00)\n    tag_57:\n      pop\n      tag_58\n      0x04\n      dup1\n      calldatasize\n      sub\n      dup2\n      add\n      swap1\n      tag_59\n      swap2\n      swap1\n      tag_60\n      jump\t// in\n    tag_59:\n      tag_61\n      jump\t// in\n    tag_58:\n      stop\n        /* \"Smart Contracts/16_NFTMarketPlace.sol\":338:369  uint256 public listingIdCounter */\n    tag_16:\n      sload(0x03)\n      dup2\n      jump\t// out\n        /* \"Smart Contracts/16_NFTMarketPlace.sol\":3011:3469  function cancelListing(uint256 _listingId) external nonReentrant... */\n    tag_23:\n        /* \"@openzeppelin/contracts/security/ReentrancyGuard.sol\":2261:2282  _nonReentrantBefore() */\n      tag_63\n        /* \"@openzeppelin/contracts/security/ReentrancyGuard.sol\":2261:2280  _nonReentrantBefore */\n      tag_64\n        /* \"@openzeppelin/contracts/security/ReentrancyGuard.sol\":2261:2282  _nonReentrantBefore() */\n      jump\t// in\n    tag_63:\n        /* \"Smart Contracts/16_NFTMarketPlace.sol\":3092:3112  Listing storage item */\n      0x00\n        /* \"Smart Contracts/16_NFTMarketPlace.sol\":3115:3123  listings */\n      0x04\n        /* \"Smart Contracts/16_NFTMarketPlace.sol\":3115:3135  listings[_listingId] */\n      0x00\n        /* \"Smart Contracts/16_NFTMarketPlace.sol\":3124:3134  _listingId */\n      dup4\n        /* \"Smart Contracts/16_NFTMarketPlace.sol\":3115:3135  listings[_listingId] */\n      dup2\n      mstore\n      0x20\n      add\n      swap1\n      dup2\n      mstore\n      0x20\n      add\n      0x00\n      keccak256\n        /* \"Smart Contracts/16_NFTMarketPlace.sol\":3092:3135  Listing storage item = listings[_listingId] */\n      swap1\n      pop\n        /* \"Smart Contracts/16_NFTMarketPlace.sol\":3156:3160  item */\n      dup1\n        /* \"Smart Contracts/16_NFTMarketPlace.sol\":3156:3167  item.active */\n      0x06\n      add\n      0x00\n      swap1\n      sload\n      swap1\n      0x0100\n      exp\n      swap1\n      div\n      0xff\n      and\n        /* \"Smart Contracts/16_NFTMarketPlace.sol\":3148:3188  require(item.active, \"Already inactive\") */\n      tag_66\n      jumpi\n      mload(0x40)\n      0x08c379a000000000000000000000000000000000000000000000000000000000\n      dup2\n      mstore\n      0x04\n      add\n      tag_67\n      swap1\n      tag_68\n      jump\t// in\n    tag_67:\n      mload(0x40)\n      dup1\n      swap2\n      sub\n      swap1\n      revert\n    tag_66:\n        /* \"Smart Contracts/16_NFTMarketPlace.sol\":3222:3232  msg.sender */\n      caller\n        /* \"Smart Contracts/16_NFTMarketPlace.sol\":3207:3232  item.seller == msg.sender */\n      0xffffffffffffffffffffffffffffffffffffffff\n      and\n        /* \"Smart Contracts/16_NFTMarketPlace.sol\":3207:3211  item */\n      dup2\n        /* \"Smart Contracts/16_NFTMarketPlace.sol\":3207:3218  item.seller */\n      0x00\n      add\n      0x00\n      swap1\n      sload\n      swap1\n      0x0100\n      exp\n      swap1\n      div\n      0xffffffffffffffffffffffffffffffffffffffff\n      and\n        /* \"Smart Contracts/16_NFTMarketPlace.sol\":3207:3232  item.seller == msg.sender */\n      0xffffffffffffffffffffffffffffffffffffffff\n      and\n      eq\n        /* \"Smart Contracts/16_NFTMarketPlace.sol\":3199:3247  require(item.seller == msg.sender, \"Not seller\") */\n      tag_69\n      jumpi\n      mload(0x40)\n      0x08c379a000000000000000000000000000000000000000000000000000000000\n      dup2\n      mstore\n      0x04\n      add\n      tag_70\n      swap1\n      tag_71\n      jump\t// in\n    tag_70:\n      mload(0x40)\n      dup1\n      swap2\n      sub\n      swap1\n      revert\n    tag_69:\n        /* \"Smart Contracts/16_NFTMarketPlace.sol\":3272:3277  false */\n      0x00\n        /* \"Smart Contracts/16_NFTMarketPlace.sol\":3258:3262  item */\n      dup2\n        /* \"Smart Contracts/16_NFTMarketPlace.sol\":3258:3269  item.active */\n      0x06\n      add\n      0x00\n        /* \"Smart Contracts/16_NFTMarketPlace.sol\":3258:3277  item.active = false */\n      0x0100\n      exp\n      dup2\n      sload\n      dup2\n      0xff\n      mul\n      not\n      and\n      swap1\n      dup4\n      iszero\n      iszero\n      mul\n      or\n      swap1\n      sstore\n      pop\n        /* \"Smart Contracts/16_NFTMarketPlace.sol\":3296:3300  item */\n      dup1\n        /* \"Smart Contracts/16_NFTMarketPlace.sol\":3296:3312  item.nftContract */\n      0x01\n      add\n      0x00\n      swap1\n      sload\n      swap1\n      0x0100\n      exp\n      swap1\n      div\n      0xffffffffffffffffffffffffffffffffffffffff\n      and\n        /* \"Smart Contracts/16_NFTMarketPlace.sol\":3288:3326  IERC721(item.nftContract).transferFrom */\n      0xffffffffffffffffffffffffffffffffffffffff\n      and\n      0x23b872dd\n        /* \"Smart Contracts/16_NFTMarketPlace.sol\":3349:3353  this */\n      address\n        /* \"Smart Contracts/16_NFTMarketPlace.sol\":3369:3379  msg.sender */\n      caller\n        /* \"Smart Contracts/16_NFTMarketPlace.sol\":3394:3398  item */\n      dup5\n        /* \"Smart Contracts/16_NFTMarketPlace.sol\":3394:3406  item.tokenId */\n      0x02\n      add\n      sload\n        /* \"Smart Contracts/16_NFTMarketPlace.sol\":3288:3417  IERC721(item.nftContract).transferFrom(... */\n      mload(0x40)\n      dup5\n      0xffffffff\n      and\n      0xe0\n      shl\n      dup2\n      mstore\n      0x04\n      add\n      tag_72\n      swap4\n      swap3\n      swap2\n      swap1\n      tag_73\n      jump\t// in\n    tag_72:\n      0x00\n      mload(0x40)\n      dup1\n      dup4\n      sub\n      dup2\n      0x00\n      dup8\n      dup1\n      extcodesize\n      iszero\n      dup1\n      iszero\n      tag_74\n      jumpi\n      revert(0x00, 0x00)\n    tag_74:\n      pop\n      gas\n      call\n      iszero\n      dup1\n      iszero\n      tag_76\n      jumpi\n      returndatacopy(0x00, 0x00, returndatasize)\n      revert(0x00, returndatasize)\n    tag_76:\n      pop\n      pop\n      pop\n      pop\n        /* \"Smart Contracts/16_NFTMarketPlace.sol\":3450:3460  _listingId */\n      dup2\n        /* \"Smart Contracts/16_NFTMarketPlace.sol\":3433:3461  ListingCancelled(_listingId) */\n      0x411aee90354c51b1b04cd563fcab2617142a9d50da19232d888547c8a1b7fd8a\n      mload(0x40)\n      mload(0x40)\n      dup1\n      swap2\n      sub\n      swap1\n      log2\n        /* \"Smart Contracts/16_NFTMarketPlace.sol\":3081:3469  {... */\n      pop\n        /* \"@openzeppelin/contracts/security/ReentrancyGuard.sol\":2303:2323  _nonReentrantAfter() */\n      tag_77\n        /* \"@openzeppelin/contracts/security/ReentrancyGuard.sol\":2303:2321  _nonReentrantAfter */\n      tag_78\n        /* \"@openzeppelin/contracts/security/ReentrancyGuard.sol\":2303:2323  _nonReentrantAfter() */\n      jump\t// in\n    tag_77:\n        /* \"Smart Contracts/16_NFTMarketPlace.sol\":3011:3469  function cancelListing(uint256 _listingId) external nonReentrant... */\n      pop\n      jump\t// out\n        /* \"Smart Contracts/16_NFTMarketPlace.sol\":3477:3640  function updateMarketplaceFee(uint256 _newFee) external onlyOwner... */\n    tag_27:\n        /* \"@openzeppelin/contracts/access/Ownable.sol\":1531:1544  _checkOwner() */\n      tag_80\n        /* \"@openzeppelin/contracts/access/Ownable.sol\":1531:1542  _checkOwner */\n      tag_81\n        /* \"@openzeppelin/contracts/access/Ownable.sol\":1531:1544  _checkOwner() */\n      jump\t// in\n    tag_80:\n        /* \"Smart Contracts/16_NFTMarketPlace.sol\":3578:3580  10 */\n      0x0a\n        /* \"Smart Contracts/16_NFTMarketPlace.sol\":3567:3574  _newFee */\n      dup2\n        /* \"Smart Contracts/16_NFTMarketPlace.sol\":3567:3580  _newFee <= 10 */\n      gt\n      iszero\n        /* \"Smart Contracts/16_NFTMarketPlace.sol\":3559:3597  require(_newFee <= 10, \"Fee too high\") */\n      tag_83\n      jumpi\n      mload(0x40)\n      0x08c379a000000000000000000000000000000000000000000000000000000000\n      dup2\n      mstore\n      0x04\n      add\n      tag_84\n      swap1\n      tag_85\n      jump\t// in\n    tag_84:\n      mload(0x40)\n      dup1\n      swap2\n      sub\n      swap1\n      revert\n    tag_83:\n        /* \"Smart Contracts/16_NFTMarketPlace.sol\":3625:3632  _newFee */\n      dup1\n        /* \"Smart Contracts/16_NFTMarketPlace.sol\":3608:3622  marketplaceFee */\n      0x02\n        /* \"Smart Contracts/16_NFTMarketPlace.sol\":3608:3632  marketplaceFee = _newFee */\n      dup2\n      swap1\n      sstore\n      pop\n        /* \"Smart Contracts/16_NFTMarketPlace.sol\":3477:3640  function updateMarketplaceFee(uint256 _newFee) external onlyOwner... */\n      pop\n      jump\t// out\n        /* \"Smart Contracts/16_NFTMarketPlace.sol\":2034:3003  function buyNFT(uint256 _listingId)... */\n    tag_30:\n        /* \"@openzeppelin/contracts/security/ReentrancyGuard.sol\":2261:2282  _nonReentrantBefore() */\n      tag_87\n        /* \"@openzeppelin/contracts/security/ReentrancyGuard.sol\":2261:2280  _nonReentrantBefore */\n      tag_64\n        /* \"@openzeppelin/contracts/security/ReentrancyGuard.sol\":2261:2282  _nonReentrantBefore() */\n      jump\t// in\n    tag_87:\n        /* \"Smart Contracts/16_NFTMarketPlace.sol\":2143:2163  Listing storage item */\n      0x00\n        /* \"Smart Contracts/16_NFTMarketPlace.sol\":2166:2174  listings */\n      0x04\n        /* \"Smart Contracts/16_NFTMarketPlace.sol\":2166:2186  listings[_listingId] */\n      0x00\n        /* \"Smart Contracts/16_NFTMarketPlace.sol\":2175:2185  _listingId */\n      dup4\n        /* \"Smart Contracts/16_NFTMarketPlace.sol\":2166:2186  listings[_listingId] */\n      dup2\n      mstore\n      0x20\n      add\n      swap1\n      dup2\n      mstore\n      0x20\n      add\n      0x00\n      keccak256\n        /* \"Smart Contracts/16_NFTMarketPlace.sol\":2143:2186  Listing storage item = listings[_listingId] */\n      swap1\n      pop\n        /* \"Smart Contracts/16_NFTMarketPlace.sol\":2207:2211  item */\n      dup1\n        /* \"Smart Contracts/16_NFTMarketPlace.sol\":2207:2218  item.active */\n      0x06\n      add\n      0x00\n      swap1\n      sload\n      swap1\n      0x0100\n      exp\n      swap1\n      div\n      0xff\n      and\n        /* \"Smart Contracts/16_NFTMarketPlace.sol\":2199:2239  require(item.active, \"Listing inactive\") */\n      tag_89\n      jumpi\n      mload(0x40)\n      0x08c379a000000000000000000000000000000000000000000000000000000000\n      dup2\n      mstore\n      0x04\n      add\n      tag_90\n      swap1\n      tag_91\n      jump\t// in\n    tag_90:\n      mload(0x40)\n      dup1\n      swap2\n      sub\n      swap1\n      revert\n    tag_89:\n        /* \"Smart Contracts/16_NFTMarketPlace.sol\":2271:2275  item */\n      dup1\n        /* \"Smart Contracts/16_NFTMarketPlace.sol\":2271:2281  item.price */\n      0x03\n      add\n      sload\n        /* \"Smart Contracts/16_NFTMarketPlace.sol\":2258:2267  msg.value */\n      callvalue\n        /* \"Smart Contracts/16_NFTMarketPlace.sol\":2258:2281  msg.value == item.price */\n      eq\n        /* \"Smart Contracts/16_NFTMarketPlace.sol\":2250:2299  require(msg.value == item.price, \"Incorrect ETH\") */\n      tag_92\n      jumpi\n      mload(0x40)\n      0x08c379a000000000000000000000000000000000000000000000000000000000\n      dup2\n      mstore\n      0x04\n      add\n      tag_93\n      swap1\n      tag_94\n      jump\t// in\n    tag_93:\n      mload(0x40)\n      dup1\n      swap2\n      sub\n      swap1\n      revert\n    tag_92:\n        /* \"Smart Contracts/16_NFTMarketPlace.sol\":2326:2331  false */\n      0x00\n        /* \"Smart Contracts/16_NFTMarketPlace.sol\":2312:2316  item */\n      dup2\n        /* \"Smart Contracts/16_NFTMarketPlace.sol\":2312:2323  item.active */\n      0x06\n      add\n      0x00\n        /* \"Smart Contracts/16_NFTMarketPlace.sol\":2312:2331  item.active = false */\n      0x0100\n      exp\n      dup2\n      sload\n      dup2\n      0xff\n      mul\n      not\n      and\n      swap1\n      dup4\n      iszero\n      iszero\n      mul\n      or\n      swap1\n      sstore\n      pop\n        /* \"Smart Contracts/16_NFTMarketPlace.sol\":2342:2363  uint256 royaltyAmount */\n      0x00\n        /* \"Smart Contracts/16_NFTMarketPlace.sol\":2396:2399  100 */\n      0x64\n        /* \"Smart Contracts/16_NFTMarketPlace.sol\":2380:2384  item */\n      dup3\n        /* \"Smart Contracts/16_NFTMarketPlace.sol\":2380:2392  item.royalty */\n      0x05\n      add\n      sload\n        /* \"Smart Contracts/16_NFTMarketPlace.sol\":2367:2371  item */\n      dup4\n        /* \"Smart Contracts/16_NFTMarketPlace.sol\":2367:2377  item.price */\n      0x03\n      add\n      sload\n        /* \"Smart Contracts/16_NFTMarketPlace.sol\":2367:2392  item.price * item.royalty */\n      tag_95\n      swap2\n      swap1\n      tag_96\n      jump\t// in\n    tag_95:\n        /* \"Smart Contracts/16_NFTMarketPlace.sol\":2366:2399  (item.price * item.royalty) / 100 */\n      tag_97\n      swap2\n      swap1\n      tag_98\n      jump\t// in\n    tag_97:\n        /* \"Smart Contracts/16_NFTMarketPlace.sol\":2342:2399  uint256 royaltyAmount = (item.price * item.royalty) / 100 */\n      swap1\n      pop\n        /* \"Smart Contracts/16_NFTMarketPlace.sol\":2410:2427  uint256 feeAmount */\n      0x00\n        /* \"Smart Contracts/16_NFTMarketPlace.sol\":2462:2465  100 */\n      0x64\n        /* \"Smart Contracts/16_NFTMarketPlace.sol\":2444:2458  marketplaceFee */\n      sload(0x02)\n        /* \"Smart Contracts/16_NFTMarketPlace.sol\":2431:2435  item */\n      dup5\n        /* \"Smart Contracts/16_NFTMarketPlace.sol\":2431:2441  item.price */\n      0x03\n      add\n      sload\n        /* \"Smart Contracts/16_NFTMarketPlace.sol\":2431:2458  item.price * marketplaceFee */\n      tag_99\n      swap2\n      swap1\n      tag_96\n      jump\t// in\n    tag_99:\n        /* \"Smart Contracts/16_NFTMarketPlace.sol\":2430:2465  (item.price * marketplaceFee) / 100 */\n      tag_100\n      swap2\n      swap1\n      tag_98\n      jump\t// in\n    tag_100:\n        /* \"Smart Contracts/16_NFTMarketPlace.sol\":2410:2465  uint256 feeAmount = (item.price * marketplaceFee) / 100 */\n      swap1\n      pop\n        /* \"Smart Contracts/16_NFTMarketPlace.sol\":2476:2496  uint256 sellerAmount */\n      0x00\n        /* \"Smart Contracts/16_NFTMarketPlace.sol\":2528:2537  feeAmount */\n      dup2\n        /* \"Smart Contracts/16_NFTMarketPlace.sol\":2512:2525  royaltyAmount */\n      dup4\n        /* \"Smart Contracts/16_NFTMarketPlace.sol\":2499:2503  item */\n      dup6\n        /* \"Smart Contracts/16_NFTMarketPlace.sol\":2499:2509  item.price */\n      0x03\n      add\n      sload\n        /* \"Smart Contracts/16_NFTMarketPlace.sol\":2499:2525  item.price - royaltyAmount */\n      tag_101\n      swap2\n      swap1\n      tag_102\n      jump\t// in\n    tag_101:\n        /* \"Smart Contracts/16_NFTMarketPlace.sol\":2499:2537  item.price - royaltyAmount - feeAmount */\n      tag_103\n      swap2\n      swap1\n      tag_102\n      jump\t// in\n    tag_103:\n        /* \"Smart Contracts/16_NFTMarketPlace.sol\":2476:2537  uint256 sellerAmount = item.price - royaltyAmount - feeAmount */\n      swap1\n      pop\n        /* \"Smart Contracts/16_NFTMarketPlace.sol\":2570:2571  0 */\n      0x00\n        /* \"Smart Contracts/16_NFTMarketPlace.sol\":2554:2567  royaltyAmount */\n      dup4\n        /* \"Smart Contracts/16_NFTMarketPlace.sol\":2554:2571  royaltyAmount > 0 */\n      gt\n        /* \"Smart Contracts/16_NFTMarketPlace.sol\":2550:2645  if (royaltyAmount > 0) {... */\n      iszero\n      tag_104\n      jumpi\n        /* \"Smart Contracts/16_NFTMarketPlace.sol\":2596:2600  item */\n      dup4\n        /* \"Smart Contracts/16_NFTMarketPlace.sol\":2596:2608  item.creator */\n      0x04\n      add\n      0x00\n      swap1\n      sload\n      swap1\n      0x0100\n      exp\n      swap1\n      div\n      0xffffffffffffffffffffffffffffffffffffffff\n      and\n        /* \"Smart Contracts/16_NFTMarketPlace.sol\":2588:2618  payable(item.creator).transfer */\n      0xffffffffffffffffffffffffffffffffffffffff\n      and\n        /* \"Smart Contracts/16_NFTMarketPlace.sol\":2588:2633  payable(item.creator).transfer(royaltyAmount) */\n      0x08fc\n        /* \"Smart Contracts/16_NFTMarketPlace.sol\":2619:2632  royaltyAmount */\n      dup5\n        /* \"Smart Contracts/16_NFTMarketPlace.sol\":2588:2633  payable(item.creator).transfer(royaltyAmount) */\n      swap1\n      dup2\n      iszero\n      mul\n      swap1\n      mload(0x40)\n      0x00\n      mload(0x40)\n      dup1\n      dup4\n      sub\n      dup2\n      dup6\n      dup9\n      dup9\n      call\n      swap4\n      pop\n      pop\n      pop\n      pop\n      iszero\n      dup1\n      iszero\n      tag_106\n      jumpi\n      returndatacopy(0x00, 0x00, returndatasize)\n      revert(0x00, returndatasize)\n    tag_106:\n      pop\n        /* \"Smart Contracts/16_NFTMarketPlace.sol\":2550:2645  if (royaltyAmount > 0) {... */\n    tag_104:\n        /* \"Smart Contracts/16_NFTMarketPlace.sol\":2673:2674  0 */\n      0x00\n        /* \"Smart Contracts/16_NFTMarketPlace.sol\":2661:2670  feeAmount */\n      dup3\n        /* \"Smart Contracts/16_NFTMarketPlace.sol\":2661:2674  feeAmount > 0 */\n      gt\n        /* \"Smart Contracts/16_NFTMarketPlace.sol\":2657:2739  if (feeAmount > 0) {... */\n      iszero\n      tag_107\n      jumpi\n        /* \"Smart Contracts/16_NFTMarketPlace.sol\":2699:2706  owner() */\n      tag_108\n        /* \"Smart Contracts/16_NFTMarketPlace.sol\":2699:2704  owner */\n      tag_45\n        /* \"Smart Contracts/16_NFTMarketPlace.sol\":2699:2706  owner() */\n      jump\t// in\n    tag_108:\n        /* \"Smart Contracts/16_NFTMarketPlace.sol\":2691:2716  payable(owner()).transfer */\n      0xffffffffffffffffffffffffffffffffffffffff\n      and\n        /* \"Smart Contracts/16_NFTMarketPlace.sol\":2691:2727  payable(owner()).transfer(feeAmount) */\n      0x08fc\n        /* \"Smart Contracts/16_NFTMarketPlace.sol\":2717:2726  feeAmount */\n      dup4\n        /* \"Smart Contracts/16_NFTMarketPlace.sol\":2691:2727  payable(owner()).transfer(feeAmount) */\n      swap1\n      dup2\n      iszero\n      mul\n      swap1\n      mload(0x40)\n      0x00\n      mload(0x40)\n      dup1\n      dup4\n      sub\n      dup2\n      dup6\n      dup9\n      dup9\n      call\n      swap4\n      pop\n      pop\n      pop\n      pop\n      iszero\n      dup1\n      iszero\n      tag_110\n      jumpi\n      returndatacopy(0x00, 0x00, returndatasize)\n      revert(0x00, returndatasize)\n    tag_110:\n      pop\n        /* \"Smart Contracts/16_NFTMarketPlace.sol\":2657:2739  if (feeAmount > 0) {... */\n    tag_107:\n        /* \"Smart Contracts/16_NFTMarketPlace.sol\":2759:2763  item */\n      dup4\n        /* \"Smart Contracts/16_NFTMarketPlace.sol\":2759:2770  item.seller */\n      0x00\n      add\n      0x00\n      swap1\n      sload\n      swap1\n      0x0100\n      exp\n      swap1\n      div\n      0xffffffffffffffffffffffffffffffffffffffff\n      and\n        /* \"Smart Contracts/16_NFTMarketPlace.sol\":2751:2780  payable(item.seller).transfer */\n      0xffffffffffffffffffffffffffffffffffffffff\n      and\n        /* \"Smart Contracts/16_NFTMarketPlace.sol\":2751:2794  payable(item.seller).transfer(sellerAmount) */\n      0x08fc\n        /* \"Smart Contracts/16_NFTMarketPlace.sol\":2781:2793  sellerAmount */\n      dup3\n        /* \"Smart Contracts/16_NFTMarketPlace.sol\":2751:2794  payable(item.seller).transfer(sellerAmount) */\n      swap1\n      dup2\n      iszero\n      mul\n      swap1\n      mload(0x40)\n      0x00\n      mload(0x40)\n      dup1\n      dup4\n      sub\n      dup2\n      dup6\n      dup9\n      dup9\n      call\n      swap4\n      pop\n      pop\n      pop\n      pop\n      iszero\n      dup1\n      iszero\n      tag_112\n      jumpi\n      returndatacopy(0x00, 0x00, returndatasize)\n      revert(0x00, returndatasize)\n    tag_112:\n      pop\n        /* \"Smart Contracts/16_NFTMarketPlace.sol\":2813:2817  item */\n      dup4\n        /* \"Smart Contracts/16_NFTMarketPlace.sol\":2813:2829  item.nftContract */\n      0x01\n      add\n      0x00\n      swap1\n      sload\n      swap1\n      0x0100\n      exp\n      swap1\n      div\n      0xffffffffffffffffffffffffffffffffffffffff\n      and\n        /* \"Smart Contracts/16_NFTMarketPlace.sol\":2805:2843  IERC721(item.nftContract).transferFrom */\n      0xffffffffffffffffffffffffffffffffffffffff\n      and\n      0x23b872dd\n        /* \"Smart Contracts/16_NFTMarketPlace.sol\":2866:2870  this */\n      address\n        /* \"Smart Contracts/16_NFTMarketPlace.sol\":2886:2896  msg.sender */\n      caller\n        /* \"Smart Contracts/16_NFTMarketPlace.sol\":2911:2915  item */\n      dup8\n        /* \"Smart Contracts/16_NFTMarketPlace.sol\":2911:2923  item.tokenId */\n      0x02\n      add\n      sload\n        /* \"Smart Contracts/16_NFTMarketPlace.sol\":2805:2934  IERC721(item.nftContract).transferFrom(... */\n      mload(0x40)\n      dup5\n      0xffffffff\n      and\n      0xe0\n      shl\n      dup2\n      mstore\n      0x04\n      add\n      tag_113\n      swap4\n      swap3\n      swap2\n      swap1\n      tag_73\n      jump\t// in\n    tag_113:\n      0x00\n      mload(0x40)\n      dup1\n      dup4\n      sub\n      dup2\n      0x00\n      dup8\n      dup1\n      extcodesize\n      iszero\n      dup1\n      iszero\n      tag_114\n      jumpi\n      revert(0x00, 0x00)\n    tag_114:\n      pop\n      gas\n      call\n      iszero\n      dup1\n      iszero\n      tag_116\n      jumpi\n      returndatacopy(0x00, 0x00, returndatasize)\n      revert(0x00, returndatasize)\n    tag_116:\n      pop\n      pop\n      pop\n      pop\n        /* \"Smart Contracts/16_NFTMarketPlace.sol\":2960:2970  _listingId */\n      dup5\n        /* \"Smart Contracts/16_NFTMarketPlace.sol\":2952:2995  NFTSold(_listingId, msg.sender, item.price) */\n      0x6329e40c0365262ebbff5ca819385c2b9713dcaa050ed07866d72c441395699a\n        /* \"Smart Contracts/16_NFTMarketPlace.sol\":2972:2982  msg.sender */\n      caller\n        /* \"Smart Contracts/16_NFTMarketPlace.sol\":2984:2988  item */\n      dup7\n        /* \"Smart Contracts/16_NFTMarketPlace.sol\":2984:2994  item.price */\n      0x03\n      add\n      sload\n        /* \"Smart Contracts/16_NFTMarketPlace.sol\":2952:2995  NFTSold(_listingId, msg.sender, item.price) */\n      mload(0x40)\n      tag_117\n      swap3\n      swap2\n      swap1\n      tag_118\n      jump\t// in\n    tag_117:\n      mload(0x40)\n      dup1\n      swap2\n      sub\n      swap1\n      log2\n        /* \"Smart Contracts/16_NFTMarketPlace.sol\":2132:3003  {... */\n      pop\n      pop\n      pop\n      pop\n        /* \"@openzeppelin/contracts/security/ReentrancyGuard.sol\":2303:2323  _nonReentrantAfter() */\n      tag_119\n        /* \"@openzeppelin/contracts/security/ReentrancyGuard.sol\":2303:2321  _nonReentrantAfter */\n      tag_78\n        /* \"@openzeppelin/contracts/security/ReentrancyGuard.sol\":2303:2323  _nonReentrantAfter() */\n      jump\t// in\n    tag_119:\n        /* \"Smart Contracts/16_NFTMarketPlace.sol\":2034:3003  function buyNFT(uint256 _listingId)... */\n      pop\n      jump\t// out\n        /* \"Smart Contracts/16_NFTMarketPlace.sol\":302:331  uint256 public marketplaceFee */\n    tag_33:\n      sload(0x02)\n      dup2\n      jump\t// out\n        /* \"@openzeppelin/contracts/access/Ownable.sol\":2293:2394  function renounceOwnership() public virtual onlyOwner {... */\n    tag_37:\n        /* \"@openzeppelin/contracts/access/Ownable.sol\":1531:1544  _checkOwner() */\n      tag_121\n        /* \"@openzeppelin/contracts/access/Ownable.sol\":1531:1542  _checkOwner */\n      tag_81\n        /* \"@openzeppelin/contracts/access/Ownable.sol\":1531:1544  _checkOwner() */\n      jump\t// in\n    tag_121:\n        /* \"@openzeppelin/contracts/access/Ownable.sol\":2357:2387  _transferOwnership(address(0)) */\n      tag_123\n        /* \"@openzeppelin/contracts/access/Ownable.sol\":2384:2385  0 */\n      0x00\n        /* \"@openzeppelin/contracts/access/Ownable.sol\":2357:2375  _transferOwnership */\n      tag_124\n        /* \"@openzeppelin/contracts/access/Ownable.sol\":2357:2387  _transferOwnership(address(0)) */\n      jump\t// in\n    tag_123:\n        /* \"@openzeppelin/contracts/access/Ownable.sol\":2293:2394  function renounceOwnership() public virtual onlyOwner {... */\n      jump\t// out\n        /* \"Smart Contracts/16_NFTMarketPlace.sol\":1135:2026  function listNFT(... */\n    tag_42:\n        /* \"@openzeppelin/contracts/security/ReentrancyGuard.sol\":2261:2282  _nonReentrantBefore() */\n      tag_126\n        /* \"@openzeppelin/contracts/security/ReentrancyGuard.sol\":2261:2280  _nonReentrantBefore */\n      tag_64\n        /* \"@openzeppelin/contracts/security/ReentrancyGuard.sol\":2261:2282  _nonReentrantBefore() */\n      jump\t// in\n    tag_126:\n        /* \"Smart Contracts/16_NFTMarketPlace.sol\":1348:1349  0 */\n      0x00\n        /* \"Smart Contracts/16_NFTMarketPlace.sol\":1339:1345  _price */\n      dup4\n        /* \"Smart Contracts/16_NFTMarketPlace.sol\":1339:1349  _price > 0 */\n      gt\n        /* \"Smart Contracts/16_NFTMarketPlace.sol\":1331:1371  require(_price > 0, \"Price must be > 0\") */\n      tag_128\n      jumpi\n      mload(0x40)\n      0x08c379a000000000000000000000000000000000000000000000000000000000\n      dup2\n      mstore\n      0x04\n      add\n      tag_129\n      swap1\n      tag_130\n      jump\t// in\n    tag_129:\n      mload(0x40)\n      dup1\n      swap2\n      sub\n      swap1\n      revert\n    tag_128:\n        /* \"Smart Contracts/16_NFTMarketPlace.sol\":1402:1404  20 */\n      0x14\n        /* \"Smart Contracts/16_NFTMarketPlace.sol\":1390:1398  _royalty */\n      dup2\n        /* \"Smart Contracts/16_NFTMarketPlace.sol\":1390:1404  _royalty <= 20 */\n      gt\n      iszero\n        /* \"Smart Contracts/16_NFTMarketPlace.sol\":1382:1425  require(_royalty <= 20, \"Royalty too high\") */\n      tag_131\n      jumpi\n      mload(0x40)\n      0x08c379a000000000000000000000000000000000000000000000000000000000\n      dup2\n      mstore\n      0x04\n      add\n      tag_132\n      swap1\n      tag_133\n      jump\t// in\n    tag_132:\n      mload(0x40)\n      dup1\n      swap2\n      sub\n      swap1\n      revert\n    tag_131:\n        /* \"Smart Contracts/16_NFTMarketPlace.sol\":1438:1449  IERC721 nft */\n      0x00\n        /* \"Smart Contracts/16_NFTMarketPlace.sol\":1460:1472  _nftContract */\n      dup6\n        /* \"Smart Contracts/16_NFTMarketPlace.sol\":1438:1473  IERC721 nft = IERC721(_nftContract) */\n      swap1\n      pop\n        /* \"Smart Contracts/16_NFTMarketPlace.sol\":1519:1529  msg.sender */\n      caller\n        /* \"Smart Contracts/16_NFTMarketPlace.sol\":1494:1529  nft.ownerOf(_tokenId) == msg.sender */\n      0xffffffffffffffffffffffffffffffffffffffff\n      and\n        /* \"Smart Contracts/16_NFTMarketPlace.sol\":1494:1497  nft */\n      dup2\n        /* \"Smart Contracts/16_NFTMarketPlace.sol\":1494:1505  nft.ownerOf */\n      0xffffffffffffffffffffffffffffffffffffffff\n      and\n      0x6352211e\n        /* \"Smart Contracts/16_NFTMarketPlace.sol\":1506:1514  _tokenId */\n      dup8\n        /* \"Smart Contracts/16_NFTMarketPlace.sol\":1494:1515  nft.ownerOf(_tokenId) */\n      mload(0x40)\n      dup3\n      0xffffffff\n      and\n      0xe0\n      shl\n      dup2\n      mstore\n      0x04\n      add\n      tag_134\n      swap2\n      swap1\n      tag_18\n      jump\t// in\n    tag_134:\n      0x20\n      mload(0x40)\n      dup1\n      dup4\n      sub\n      dup2\n      dup7\n      gas\n      staticcall\n      iszero\n      dup1\n      iszero\n      tag_136\n      jumpi\n      returndatacopy(0x00, 0x00, returndatasize)\n      revert(0x00, returndatasize)\n    tag_136:\n      pop\n      pop\n      pop\n      pop\n      mload(0x40)\n      returndatasize\n      not(0x1f)\n      0x1f\n      dup3\n      add\n      and\n      dup3\n      add\n      dup1\n      0x40\n      mstore\n      pop\n      dup2\n      add\n      swap1\n      tag_137\n      swap2\n      swap1\n      tag_138\n      jump\t// in\n    tag_137:\n        /* \"Smart Contracts/16_NFTMarketPlace.sol\":1494:1529  nft.ownerOf(_tokenId) == msg.sender */\n      0xffffffffffffffffffffffffffffffffffffffff\n      and\n      eq\n        /* \"Smart Contracts/16_NFTMarketPlace.sol\":1486:1546  require(nft.ownerOf(_tokenId) == msg.sender,\"Not NFT owner\") */\n      tag_139\n      jumpi\n      mload(0x40)\n      0x08c379a000000000000000000000000000000000000000000000000000000000\n      dup2\n      mstore\n      0x04\n      add\n      tag_140\n      swap1\n      tag_141\n      jump\t// in\n    tag_140:\n      mload(0x40)\n      dup1\n      swap2\n      sub\n      swap1\n      revert\n    tag_139:\n        /* \"Smart Contracts/16_NFTMarketPlace.sol\":1559:1562  nft */\n      dup1\n        /* \"Smart Contracts/16_NFTMarketPlace.sol\":1559:1575  nft.transferFrom */\n      0xffffffffffffffffffffffffffffffffffffffff\n      and\n      0x23b872dd\n        /* \"Smart Contracts/16_NFTMarketPlace.sol\":1576:1586  msg.sender */\n      caller\n        /* \"Smart Contracts/16_NFTMarketPlace.sol\":1596:1600  this */\n      address\n        /* \"Smart Contracts/16_NFTMarketPlace.sol\":1603:1611  _tokenId */\n      dup9\n        /* \"Smart Contracts/16_NFTMarketPlace.sol\":1559:1612  nft.transferFrom(msg.sender, address(this), _tokenId) */\n      mload(0x40)\n      dup5\n      0xffffffff\n      and\n      0xe0\n      shl\n      dup2\n      mstore\n      0x04\n      add\n      tag_142\n      swap4\n      swap3\n      swap2\n      swap1\n      tag_73\n      jump\t// in\n    tag_142:\n      0x00\n      mload(0x40)\n      dup1\n      dup4\n      sub\n      dup2\n      0x00\n      dup8\n      dup1\n      extcodesize\n      iszero\n      dup1\n      iszero\n      tag_143\n      jumpi\n      revert(0x00, 0x00)\n    tag_143:\n      pop\n      gas\n      call\n      iszero\n      dup1\n      iszero\n      tag_145\n      jumpi\n      returndatacopy(0x00, 0x00, returndatasize)\n      revert(0x00, returndatasize)\n    tag_145:\n      pop\n      pop\n      pop\n      pop\n        /* \"Smart Contracts/16_NFTMarketPlace.sol\":1625:1641  listingIdCounter */\n      0x03\n      0x00\n        /* \"Smart Contracts/16_NFTMarketPlace.sol\":1625:1643  listingIdCounter++ */\n      dup2\n      sload\n      dup1\n      swap3\n      swap2\n      swap1\n      tag_146\n      swap1\n      tag_147\n      jump\t// in\n    tag_146:\n      swap2\n      swap1\n      pop\n      sstore\n      pop\n        /* \"Smart Contracts/16_NFTMarketPlace.sol\":1685:1929  Listing({... */\n      mload(0x40)\n      dup1\n      0xe0\n      add\n      0x40\n      mstore\n      dup1\n        /* \"Smart Contracts/16_NFTMarketPlace.sol\":1716:1726  msg.sender */\n      caller\n        /* \"Smart Contracts/16_NFTMarketPlace.sol\":1685:1929  Listing({... */\n      0xffffffffffffffffffffffffffffffffffffffff\n      and\n      dup2\n      mstore\n      0x20\n      add\n        /* \"Smart Contracts/16_NFTMarketPlace.sol\":1754:1766  _nftContract */\n      dup8\n        /* \"Smart Contracts/16_NFTMarketPlace.sol\":1685:1929  Listing({... */\n      0xffffffffffffffffffffffffffffffffffffffff\n      and\n      dup2\n      mstore\n      0x20\n      add\n        /* \"Smart Contracts/16_NFTMarketPlace.sol\":1790:1798  _tokenId */\n      dup7\n        /* \"Smart Contracts/16_NFTMarketPlace.sol\":1685:1929  Listing({... */\n      dup2\n      mstore\n      0x20\n      add\n        /* \"Smart Contracts/16_NFTMarketPlace.sol\":1820:1826  _price */\n      dup6\n        /* \"Smart Contracts/16_NFTMarketPlace.sol\":1685:1929  Listing({... */\n      dup2\n      mstore\n      0x20\n      add\n        /* \"Smart Contracts/16_NFTMarketPlace.sol\":1850:1858  _creator */\n      dup5\n        /* \"Smart Contracts/16_NFTMarketPlace.sol\":1685:1929  Listing({... */\n      0xffffffffffffffffffffffffffffffffffffffff\n      and\n      dup2\n      mstore\n      0x20\n      add\n        /* \"Smart Contracts/16_NFTMarketPlace.sol\":1882:1890  _royalty */\n      dup4\n        /* \"Smart Contracts/16_NFTMarketPlace.sol\":1685:1929  Listing({... */\n      dup2\n      mstore\n      0x20\n      add\n        /* \"Smart Contracts/16_NFTMarketPlace.sol\":1913:1917  true */\n      0x01\n        /* \"Smart Contracts/16_NFTMarketPlace.sol\":1685:1929  Listing({... */\n      iszero\n      iszero\n      dup2\n      mstore\n      pop\n        /* \"Smart Contracts/16_NFTMarketPlace.sol\":1656:1664  listings */\n      0x04\n        /* \"Smart Contracts/16_NFTMarketPlace.sol\":1656:1682  listings[listingIdCounter] */\n      0x00\n        /* \"Smart Contracts/16_NFTMarketPlace.sol\":1665:1681  listingIdCounter */\n      sload(0x03)\n        /* \"Smart Contracts/16_NFTMarketPlace.sol\":1656:1682  listings[listingIdCounter] */\n      dup2\n      mstore\n      0x20\n      add\n      swap1\n      dup2\n      mstore\n      0x20\n      add\n      0x00\n      keccak256\n        /* \"Smart Contracts/16_NFTMarketPlace.sol\":1656:1929  listings[listingIdCounter] = Listing({... */\n      0x00\n      dup3\n      add\n      mload\n      dup2\n      0x00\n      add\n      exp(0x0100, 0x00)\n      dup2\n      sload\n      dup2\n      0xffffffffffffffffffffffffffffffffffffffff\n      mul\n      not\n      and\n      swap1\n      dup4\n      0xffffffffffffffffffffffffffffffffffffffff\n      and\n      mul\n      or\n      swap1\n      sstore\n      pop\n      0x20\n      dup3\n      add\n      mload\n      dup2\n      0x01\n      add\n      exp(0x0100, 0x00)\n      dup2\n      sload\n      dup2\n      0xffffffffffffffffffffffffffffffffffffffff\n      mul\n      not\n      and\n      swap1\n      dup4\n      0xffffffffffffffffffffffffffffffffffffffff\n      and\n      mul\n      or\n      swap1\n      sstore\n      pop\n      0x40\n      dup3\n      add\n      mload\n      dup2\n      0x02\n      add\n      sstore\n      0x60\n      dup3\n      add\n      mload\n      dup2\n      0x03\n      add\n      sstore\n      0x80\n      dup3\n      add\n      mload\n      dup2\n      0x04\n      add\n      exp(0x0100, 0x00)\n      dup2\n      sload\n      dup2\n      0xffffffffffffffffffffffffffffffffffffffff\n      mul\n      not\n      and\n      swap1\n      dup4\n      0xffffffffffffffffffffffffffffffffffffffff\n      and\n      mul\n      or\n      swap1\n      sstore\n      pop\n      0xa0\n      dup3\n      add\n      mload\n      dup2\n      0x05\n      add\n      sstore\n      0xc0\n      dup3\n      add\n      mload\n      dup2\n      0x06\n      add\n      exp(0x0100, 0x00)\n      dup2\n      sload\n      dup2\n      0xff\n      mul\n      not\n      and\n      swap1\n      dup4\n      iszero\n      iszero\n      mul\n      or\n      swap1\n      sstore\n      pop\n      swap1\n      pop\n      pop\n        /* \"Smart Contracts/16_NFTMarketPlace.sol\":1987:1999  _nftContract */\n      dup6\n        /* \"Smart Contracts/16_NFTMarketPlace.sol\":1947:2018  NFTListed(listingIdCounter, msg.sender, _nftContract, _tokenId, _price) */\n      0xffffffffffffffffffffffffffffffffffffffff\n      and\n        /* \"Smart Contracts/16_NFTMarketPlace.sol\":1975:1985  msg.sender */\n      caller\n        /* \"Smart Contracts/16_NFTMarketPlace.sol\":1947:2018  NFTListed(listingIdCounter, msg.sender, _nftContract, _tokenId, _price) */\n      0xffffffffffffffffffffffffffffffffffffffff\n      and\n        /* \"Smart Contracts/16_NFTMarketPlace.sol\":1957:1973  listingIdCounter */\n      sload(0x03)\n        /* \"Smart Contracts/16_NFTMarketPlace.sol\":1947:2018  NFTListed(listingIdCounter, msg.sender, _nftContract, _tokenId, _price) */\n      0xb0fe4922ac99799c17a4130d5c045ba2ecdf6e15b75b9ea84aaf0dc28724a42b\n        /* \"Smart Contracts/16_NFTMarketPlace.sol\":2001:2009  _tokenId */\n      dup9\n        /* \"Smart Contracts/16_NFTMarketPlace.sol\":2011:2017  _price */\n      dup9\n        /* \"Smart Contracts/16_NFTMarketPlace.sol\":1947:2018  NFTListed(listingIdCounter, msg.sender, _nftContract, _tokenId, _price) */\n      mload(0x40)\n      tag_148\n      swap3\n      swap2\n      swap1\n      tag_149\n      jump\t// in\n    tag_148:\n      mload(0x40)\n      dup1\n      swap2\n      sub\n      swap1\n      log4\n        /* \"Smart Contracts/16_NFTMarketPlace.sol\":1318:2026  {... */\n      pop\n        /* \"@openzeppelin/contracts/security/ReentrancyGuard.sol\":2303:2323  _nonReentrantAfter() */\n      tag_150\n        /* \"@openzeppelin/contracts/security/ReentrancyGuard.sol\":2303:2321  _nonReentrantAfter */\n      tag_78\n        /* \"@openzeppelin/contracts/security/ReentrancyGuard.sol\":2303:2323  _nonReentrantAfter() */\n      jump\t// in\n    tag_150:\n        /* \"Smart Contracts/16_NFTMarketPlace.sol\":1135:2026  function listNFT(... */\n      pop\n      pop\n      pop\n      pop\n      pop\n      jump\t// out\n        /* \"@openzeppelin/contracts/access/Ownable.sol\":1638:1723  function owner() public view virtual returns (address) {... */\n    tag_45:\n        /* \"@openzeppelin/contracts/access/Ownable.sol\":1684:1691  address */\n      0x00\n        /* \"@openzeppelin/contracts/access/Ownable.sol\":1710:1716  _owner */\n      0x01\n      0x00\n      swap1\n      sload\n      swap1\n      0x0100\n      exp\n      swap1\n      div\n      0xffffffffffffffffffffffffffffffffffffffff\n      and\n        /* \"@openzeppelin/contracts/access/Ownable.sol\":1703:1716  return _owner */\n      swap1\n      pop\n        /* \"@openzeppelin/contracts/access/Ownable.sol\":1638:1723  function owner() public view virtual returns (address) {... */\n      swap1\n      jump\t// out\n        /* \"Smart Contracts/16_NFTMarketPlace.sol\":588:631  mapping(uint256 => Listing) public listings */\n    tag_51:\n      mstore(0x20, 0x04)\n      dup1\n      0x00\n      mstore\n      keccak256(0x00, 0x40)\n      0x00\n      swap2\n      pop\n      swap1\n      pop\n      dup1\n      0x00\n      add\n      0x00\n      swap1\n      sload\n      swap1\n      0x0100\n      exp\n      swap1\n      div\n      0xffffffffffffffffffffffffffffffffffffffff\n      and\n      swap1\n      dup1\n      0x01\n      add\n      0x00\n      swap1\n      sload\n      swap1\n      0x0100\n      exp\n      swap1\n      div\n      0xffffffffffffffffffffffffffffffffffffffff\n      and\n      swap1\n      dup1\n      0x02\n      add\n      sload\n      swap1\n      dup1\n      0x03\n      add\n      sload\n      swap1\n      dup1\n      0x04\n      add\n      0x00\n      swap1\n      sload\n      swap1\n      0x0100\n      exp\n      swap1\n      div\n      0xffffffffffffffffffffffffffffffffffffffff\n      and\n      swap1\n      dup1\n      0x05\n      add\n      sload\n      swap1\n      dup1\n      0x06\n      add\n      0x00\n      swap1\n      sload\n      swap1\n      0x0100\n      exp\n      swap1\n      div\n      0xff\n      and\n      swap1\n      pop\n      dup8\n      jump\t// out\n        /* \"Smart Contracts/16_NFTMarketPlace.sol\":3648:3762  function withdrawETH() external onlyOwner... */\n    tag_56:\n        /* \"@openzeppelin/contracts/access/Ownable.sol\":1531:1544  _checkOwner() */\n      tag_153\n        /* \"@openzeppelin/contracts/access/Ownable.sol\":1531:1542  _checkOwner */\n      tag_81\n        /* \"@openzeppelin/contracts/access/Ownable.sol\":1531:1544  _checkOwner() */\n      jump\t// in\n    tag_153:\n        /* \"Smart Contracts/16_NFTMarketPlace.sol\":3714:3721  owner() */\n      tag_155\n        /* \"Smart Contracts/16_NFTMarketPlace.sol\":3714:3719  owner */\n      tag_45\n        /* \"Smart Contracts/16_NFTMarketPlace.sol\":3714:3721  owner() */\n      jump\t// in\n    tag_155:\n        /* \"Smart Contracts/16_NFTMarketPlace.sol\":3706:3731  payable(owner()).transfer */\n      0xffffffffffffffffffffffffffffffffffffffff\n      and\n        /* \"Smart Contracts/16_NFTMarketPlace.sol\":3706:3754  payable(owner()).transfer(address(this).balance) */\n      0x08fc\n        /* \"Smart Contracts/16_NFTMarketPlace.sol\":3732:3753  address(this).balance */\n      selfbalance\n        /* \"Smart Contracts/16_NFTMarketPlace.sol\":3706:3754  payable(owner()).transfer(address(this).balance) */\n      swap1\n      dup2\n      iszero\n      mul\n      swap1\n      mload(0x40)\n      0x00\n      mload(0x40)\n      dup1\n      dup4\n      sub\n      dup2\n      dup6\n      dup9\n      dup9\n      call\n      swap4\n      pop\n      pop\n      pop\n      pop\n      iszero\n      dup1\n      iszero\n      tag_157\n      jumpi\n      returndatacopy(0x00, 0x00, returndatasize)\n      revert(0x00, returndatasize)\n    tag_157:\n      pop\n        /* \"Smart Contracts/16_NFTMarketPlace.sol\":3648:3762  function withdrawETH() external onlyOwner... */\n      jump\t// out\n        /* \"@openzeppelin/contracts/access/Ownable.sol\":2543:2758  function transferOwnership(address newOwner) public virtual onlyOwner {... */\n    tag_61:\n        /* \"@openzeppelin/contracts/access/Ownable.sol\":1531:1544  _checkOwner() */\n      tag_159\n        /* \"@openzeppelin/contracts/access/Ownable.sol\":1531:1542  _checkOwner */\n      tag_81\n        /* \"@openzeppelin/contracts/access/Ownable.sol\":1531:1544  _checkOwner() */\n      jump\t// in\n    tag_159:\n        /* \"@openzeppelin/contracts/access/Ownable.sol\":2647:2648  0 */\n      0x00\n        /* \"@openzeppelin/contracts/access/Ownable.sol\":2627:2649  newOwner == address(0) */\n      0xffffffffffffffffffffffffffffffffffffffff\n      and\n        /* \"@openzeppelin/contracts/access/Ownable.sol\":2627:2635  newOwner */\n      dup2\n        /* \"@openzeppelin/contracts/access/Ownable.sol\":2627:2649  newOwner == address(0) */\n      0xffffffffffffffffffffffffffffffffffffffff\n      and\n      sub\n        /* \"@openzeppelin/contracts/access/Ownable.sol\":2623:2714  if (newOwner == address(0)) {... */\n      tag_161\n      jumpi\n        /* \"@openzeppelin/contracts/access/Ownable.sol\":2700:2701  0 */\n      0x00\n        /* \"@openzeppelin/contracts/access/Ownable.sol\":2672:2703  OwnableInvalidOwner(address(0)) */\n      mload(0x40)\n      0x1e4fbdf700000000000000000000000000000000000000000000000000000000\n      dup2\n      mstore\n      0x04\n      add\n      tag_162\n      swap2\n      swap1\n      tag_47\n      jump\t// in\n    tag_162:\n      mload(0x40)\n      dup1\n      swap2\n      sub\n      swap1\n      revert\n        /* \"@openzeppelin/contracts/access/Ownable.sol\":2623:2714  if (newOwner == address(0)) {... */\n    tag_161:\n        /* \"@openzeppelin/contracts/access/Ownable.sol\":2723:2751  _transferOwnership(newOwner) */\n      tag_163\n        /* \"@openzeppelin/contracts/access/Ownable.sol\":2742:2750  newOwner */\n      dup2\n        /* \"@openzeppelin/contracts/access/Ownable.sol\":2723:2741  _transferOwnership */\n      tag_124\n        /* \"@openzeppelin/contracts/access/Ownable.sol\":2723:2751  _transferOwnership(newOwner) */\n      jump\t// in\n    tag_163:\n        /* \"@openzeppelin/contracts/access/Ownable.sol\":2543:2758  function transferOwnership(address newOwner) public virtual onlyOwner {... */\n      pop\n      jump\t// out\n        /* \"@openzeppelin/contracts/security/ReentrancyGuard.sol\":2336:2623  function _nonReentrantBefore() private {... */\n    tag_64:\n        /* \"@openzeppelin/contracts/security/ReentrancyGuard.sol\":1759:1760  2 */\n      0x02\n        /* \"@openzeppelin/contracts/security/ReentrancyGuard.sol\":2468:2475  _status */\n      sload(0x00)\n        /* \"@openzeppelin/contracts/security/ReentrancyGuard.sol\":2468:2487  _status != _ENTERED */\n      sub\n        /* \"@openzeppelin/contracts/security/ReentrancyGuard.sol\":2460:2523  require(_status != _ENTERED, \"ReentrancyGuard: reentrant call\") */\n      tag_165\n      jumpi\n      mload(0x40)\n      0x08c379a000000000000000000000000000000000000000000000000000000000\n      dup2\n      mstore\n      0x04\n      add\n      tag_166\n      swap1\n      tag_167\n      jump\t// in\n    tag_166:\n      mload(0x40)\n      dup1\n      swap2\n      sub\n      swap1\n      revert\n    tag_165:\n        /* \"@openzeppelin/contracts/security/ReentrancyGuard.sol\":1759:1760  2 */\n      0x02\n        /* \"@openzeppelin/contracts/security/ReentrancyGuard.sol\":2598:2605  _status */\n      0x00\n        /* \"@openzeppelin/contracts/security/ReentrancyGuard.sol\":2598:2616  _status = _ENTERED */\n      dup2\n      swap1\n      sstore\n      pop\n        /* \"@openzeppelin/contracts/security/ReentrancyGuard.sol\":2336:2623  function _nonReentrantBefore() private {... */\n      jump\t// out\n        /* \"@openzeppelin/contracts/security/ReentrancyGuard.sol\":2629:2838  function _nonReentrantAfter() private {... */\n    tag_78:\n        /* \"@openzeppelin/contracts/security/ReentrancyGuard.sol\":1716:1717  1 */\n      0x01\n        /* \"@openzeppelin/contracts/security/ReentrancyGuard.sol\":2809:2816  _status */\n      0x00\n        /* \"@openzeppelin/contracts/security/ReentrancyGuard.sol\":2809:2831  _status = _NOT_ENTERED */\n      dup2\n      swap1\n      sstore\n      pop\n        /* \"@openzeppelin/contracts/security/ReentrancyGuard.sol\":2629:2838  function _nonReentrantAfter() private {... */\n      jump\t// out\n        /* \"@openzeppelin/contracts/access/Ownable.sol\":1796:1958  function _checkOwner() internal view virtual {... */\n    tag_81:\n        /* \"@openzeppelin/contracts/access/Ownable.sol\":1866:1878  _msgSender() */\n      tag_170\n        /* \"@openzeppelin/contracts/access/Ownable.sol\":1866:1876  _msgSender */\n      tag_171\n        /* \"@openzeppelin/contracts/access/Ownable.sol\":1866:1878  _msgSender() */\n      jump\t// in\n    tag_170:\n        /* \"@openzeppelin/contracts/access/Ownable.sol\":1855:1878  owner() != _msgSender() */\n      0xffffffffffffffffffffffffffffffffffffffff\n      and\n        /* \"@openzeppelin/contracts/access/Ownable.sol\":1855:1862  owner() */\n      tag_172\n        /* \"@openzeppelin/contracts/access/Ownable.sol\":1855:1860  owner */\n      tag_45\n        /* \"@openzeppelin/contracts/access/Ownable.sol\":1855:1862  owner() */\n      jump\t// in\n    tag_172:\n        /* \"@openzeppelin/contracts/access/Ownable.sol\":1855:1878  owner() != _msgSender() */\n      0xffffffffffffffffffffffffffffffffffffffff\n      and\n      eq\n        /* \"@openzeppelin/contracts/access/Ownable.sol\":1851:1952  if (owner() != _msgSender()) {... */\n      tag_173\n      jumpi\n        /* \"@openzeppelin/contracts/access/Ownable.sol\":1928:1940  _msgSender() */\n      tag_174\n        /* \"@openzeppelin/contracts/access/Ownable.sol\":1928:1938  _msgSender */\n      tag_171\n        /* \"@openzeppelin/contracts/access/Ownable.sol\":1928:1940  _msgSender() */\n      jump\t// in\n    tag_174:\n        /* \"@openzeppelin/contracts/access/Ownable.sol\":1901:1941  OwnableUnauthorizedAccount(_msgSender()) */\n      mload(0x40)\n      0x118cdaa700000000000000000000000000000000000000000000000000000000\n      dup2\n      mstore\n      0x04\n      add\n      tag_175\n      swap2\n      swap1\n      tag_47\n      jump\t// in\n    tag_175:\n      mload(0x40)\n      dup1\n      swap2\n      sub\n      swap1\n      revert\n        /* \"@openzeppelin/contracts/access/Ownable.sol\":1851:1952  if (owner() != _msgSender()) {... */\n    tag_173:\n        /* \"@openzeppelin/contracts/access/Ownable.sol\":1796:1958  function _checkOwner() internal view virtual {... */\n      jump\t// out\n        /* \"@openzeppelin/contracts/access/Ownable.sol\":2912:3099  function _transferOwnership(address newOwner) internal virtual {... */\n    tag_124:\n        /* \"@openzeppelin/contracts/access/Ownable.sol\":2985:3001  address oldOwner */\n      0x00\n        /* \"@openzeppelin/contracts/access/Ownable.sol\":3004:3010  _owner */\n      0x01\n      0x00\n      swap1\n      sload\n      swap1\n      0x0100\n      exp\n      swap1\n      div\n      0xffffffffffffffffffffffffffffffffffffffff\n      and\n        /* \"@openzeppelin/contracts/access/Ownable.sol\":2985:3010  address oldOwner = _owner */\n      swap1\n      pop\n        /* \"@openzeppelin/contracts/access/Ownable.sol\":3029:3037  newOwner */\n      dup2\n        /* \"@openzeppelin/contracts/access/Ownable.sol\":3020:3026  _owner */\n      0x01\n      0x00\n        /* \"@openzeppelin/contracts/access/Ownable.sol\":3020:3037  _owner = newOwner */\n      0x0100\n      exp\n      dup2\n      sload\n      dup2\n      0xffffffffffffffffffffffffffffffffffffffff\n      mul\n      not\n      and\n      swap1\n      dup4\n      0xffffffffffffffffffffffffffffffffffffffff\n      and\n      mul\n      or\n      swap1\n      sstore\n      pop\n        /* \"@openzeppelin/contracts/access/Ownable.sol\":3083:3091  newOwner */\n      dup2\n        /* \"@openzeppelin/contracts/access/Ownable.sol\":3052:3092  OwnershipTransferred(oldOwner, newOwner) */\n      0xffffffffffffffffffffffffffffffffffffffff\n      and\n        /* \"@openzeppelin/contracts/access/Ownable.sol\":3073:3081  oldOwner */\n      dup2\n        /* \"@openzeppelin/contracts/access/Ownable.sol\":3052:3092  OwnershipTransferred(oldOwner, newOwner) */\n      0xffffffffffffffffffffffffffffffffffffffff\n      and\n      0x8be0079c531659141344cd1fd0a4f28419497f9722a3daafe3b4186f6b6457e0\n      mload(0x40)\n      mload(0x40)\n      dup1\n      swap2\n      sub\n      swap1\n      log3\n        /* \"@openzeppelin/contracts/access/Ownable.sol\":2975:3099  {... */\n      pop\n        /* \"@openzeppelin/contracts/access/Ownable.sol\":2912:3099  function _transferOwnership(address newOwner) internal virtual {... */\n      pop\n      jump\t// out\n        /* \"@openzeppelin/contracts/utils/Context.sol\":656:752  function _msgSender() internal view virtual returns (address) {... */\n    tag_171:\n        /* \"@openzeppelin/contracts/utils/Context.sol\":709:716  address */\n      0x00\n        /* \"@openzeppelin/contracts/utils/Context.sol\":735:745  msg.sender */\n      caller\n        /* \"@openzeppelin/contracts/utils/Context.sol\":728:745  return msg.sender */\n      swap1\n      pop\n        /* \"@openzeppelin/contracts/utils/Context.sol\":656:752  function _msgSender() internal view virtual returns (address) {... */\n      swap1\n      jump\t// out\n        /* \"#utility.yul\":7:84   */\n    tag_178:\n        /* \"#utility.yul\":44:51   */\n      0x00\n        /* \"#utility.yul\":73:78   */\n      dup2\n        /* \"#utility.yul\":62:78   */\n      swap1\n      pop\n        /* \"#utility.yul\":7:84   */\n      swap2\n      swap1\n      pop\n      jump\t// out\n        /* \"#utility.yul\":90:208   */\n    tag_179:\n        /* \"#utility.yul\":177:201   */\n      tag_217\n        /* \"#utility.yul\":195:200   */\n      dup2\n        /* \"#utility.yul\":177:201   */\n      tag_178\n      jump\t// in\n    tag_217:\n        /* \"#utility.yul\":172:175   */\n      dup3\n        /* \"#utility.yul\":165:202   */\n      mstore\n        /* \"#utility.yul\":90:208   */\n      pop\n      pop\n      jump\t// out\n        /* \"#utility.yul\":214:436   */\n    tag_18:\n        /* \"#utility.yul\":307:311   */\n      0x00\n        /* \"#utility.yul\":345:347   */\n      0x20\n        /* \"#utility.yul\":334:343   */\n      dup3\n        /* \"#utility.yul\":330:348   */\n      add\n        /* \"#utility.yul\":322:348   */\n      swap1\n      pop\n        /* \"#utility.yul\":358:429   */\n      tag_219\n        /* \"#utility.yul\":426:427   */\n      0x00\n        /* \"#utility.yul\":415:424   */\n      dup4\n        /* \"#utility.yul\":411:428   */\n      add\n        /* \"#utility.yul\":402:408   */\n      dup5\n        /* \"#utility.yul\":358:429   */\n      tag_179\n      jump\t// in\n    tag_219:\n        /* \"#utility.yul\":214:436   */\n      swap3\n      swap2\n      pop\n      pop\n      jump\t// out\n        /* \"#utility.yul\":523:640   */\n    tag_181:\n        /* \"#utility.yul\":632:633   */\n      0x00\n        /* \"#utility.yul\":629:630   */\n      0x00\n        /* \"#utility.yul\":622:634   */\n      revert\n        /* \"#utility.yul\":769:891   */\n    tag_183:\n        /* \"#utility.yul\":842:866   */\n      tag_224\n        /* \"#utility.yul\":860:865   */\n      dup2\n        /* \"#utility.yul\":842:866   */\n      tag_178\n      jump\t// in\n    tag_224:\n        /* \"#utility.yul\":835:840   */\n      dup2\n        /* \"#utility.yul\":832:867   */\n      eq\n        /* \"#utility.yul\":822:885   */\n      tag_225\n      jumpi\n        /* \"#utility.yul\":881:882   */\n      0x00\n        /* \"#utility.yul\":878:879   */\n      0x00\n        /* \"#utility.yul\":871:883   */\n      revert\n        /* \"#utility.yul\":822:885   */\n    tag_225:\n        /* \"#utility.yul\":769:891   */\n      pop\n      jump\t// out\n        /* \"#utility.yul\":897:1036   */\n    tag_184:\n        /* \"#utility.yul\":943:948   */\n      0x00\n        /* \"#utility.yul\":981:987   */\n      dup2\n        /* \"#utility.yul\":968:988   */\n      calldataload\n        /* \"#utility.yul\":959:988   */\n      swap1\n      pop\n        /* \"#utility.yul\":997:1030   */\n      tag_227\n        /* \"#utility.yul\":1024:1029   */\n      dup2\n        /* \"#utility.yul\":997:1030   */\n      tag_183\n      jump\t// in\n    tag_227:\n        /* \"#utility.yul\":897:1036   */\n      swap3\n      swap2\n      pop\n      pop\n      jump\t// out\n        /* \"#utility.yul\":1042:1371   */\n    tag_22:\n        /* \"#utility.yul\":1101:1107   */\n      0x00\n        /* \"#utility.yul\":1150:1152   */\n      0x20\n        /* \"#utility.yul\":1138:1147   */\n      dup3\n        /* \"#utility.yul\":1129:1136   */\n      dup5\n        /* \"#utility.yul\":1125:1148   */\n      sub\n        /* \"#utility.yul\":1121:1153   */\n      slt\n        /* \"#utility.yul\":1118:1237   */\n      iszero\n      tag_229\n      jumpi\n        /* \"#utility.yul\":1156:1235   */\n      tag_230\n      tag_181\n      jump\t// in\n    tag_230:\n        /* \"#utility.yul\":1118:1237   */\n    tag_229:\n        /* \"#utility.yul\":1276:1277   */\n      0x00\n        /* \"#utility.yul\":1301:1354   */\n      tag_231\n        /* \"#utility.yul\":1346:1353   */\n      dup5\n        /* \"#utility.yul\":1337:1343   */\n      dup3\n        /* \"#utility.yul\":1326:1335   */\n      dup6\n        /* \"#utility.yul\":1322:1344   */\n      add\n        /* \"#utility.yul\":1301:1354   */\n      tag_184\n      jump\t// in\n    tag_231:\n        /* \"#utility.yul\":1291:1354   */\n      swap2\n      pop\n        /* \"#utility.yul\":1247:1364   */\n      pop\n        /* \"#utility.yul\":1042:1371   */\n      swap3\n      swap2\n      pop\n      pop\n      jump\t// out\n        /* \"#utility.yul\":1377:1503   */\n    tag_185:\n        /* \"#utility.yul\":1414:1421   */\n      0x00\n        /* \"#utility.yul\":1454:1496   */\n      0xffffffffffffffffffffffffffffffffffffffff\n        /* \"#utility.yul\":1447:1452   */\n      dup3\n        /* \"#utility.yul\":1443:1497   */\n      and\n        /* \"#utility.yul\":1432:1497   */\n      swap1\n      pop\n        /* \"#utility.yul\":1377:1503   */\n      swap2\n      swap1\n      pop\n      jump\t// out\n        /* \"#utility.yul\":1509:1605   */\n    tag_186:\n        /* \"#utility.yul\":1546:1553   */\n      0x00\n        /* \"#utility.yul\":1575:1599   */\n      tag_234\n        /* \"#utility.yul\":1593:1598   */\n      dup3\n        /* \"#utility.yul\":1575:1599   */\n      tag_185\n      jump\t// in\n    tag_234:\n        /* \"#utility.yul\":1564:1599   */\n      swap1\n      pop\n        /* \"#utility.yul\":1509:1605   */\n      swap2\n      swap1\n      pop\n      jump\t// out\n        /* \"#utility.yul\":1611:1733   */\n    tag_187:\n        /* \"#utility.yul\":1684:1708   */\n      tag_236\n        /* \"#utility.yul\":1702:1707   */\n      dup2\n        /* \"#utility.yul\":1684:1708   */\n      tag_186\n      jump\t// in\n    tag_236:\n        /* \"#utility.yul\":1677:1682   */\n      dup2\n        /* \"#utility.yul\":1674:1709   */\n      eq\n        /* \"#utility.yul\":1664:1727   */\n      tag_237\n      jumpi\n        /* \"#utility.yul\":1723:1724   */\n      0x00\n        /* \"#utility.yul\":1720:1721   */\n      0x00\n        /* \"#utility.yul\":1713:1725   */\n      revert\n        /* \"#utility.yul\":1664:1727   */\n    tag_237:\n        /* \"#utility.yul\":1611:1733   */\n      pop\n      jump\t// out\n        /* \"#utility.yul\":1739:1878   */\n    tag_188:\n        /* \"#utility.yul\":1785:1790   */\n      0x00\n        /* \"#utility.yul\":1823:1829   */\n      dup2\n        /* \"#utility.yul\":1810:1830   */\n      calldataload\n        /* \"#utility.yul\":1801:1830   */\n      swap1\n      pop\n        /* \"#utility.yul\":1839:1872   */\n      tag_239\n        /* \"#utility.yul\":1866:1871   */\n      dup2\n        /* \"#utility.yul\":1839:1872   */\n      tag_187\n      jump\t// in\n    tag_239:\n        /* \"#utility.yul\":1739:1878   */\n      swap3\n      swap2\n      pop\n      pop\n      jump\t// out\n        /* \"#utility.yul\":1884:2795   */\n    tag_41:\n        /* \"#utility.yul\":1979:1985   */\n      0x00\n        /* \"#utility.yul\":1987:1993   */\n      0x00\n        /* \"#utility.yul\":1995:2001   */\n      0x00\n        /* \"#utility.yul\":2003:2009   */\n      0x00\n        /* \"#utility.yul\":2011:2017   */\n      0x00\n        /* \"#utility.yul\":2060:2063   */\n      0xa0\n        /* \"#utility.yul\":2048:2057   */\n      dup7\n        /* \"#utility.yul\":2039:2046   */\n      dup9\n        /* \"#utility.yul\":2035:2058   */\n      sub\n        /* \"#utility.yul\":2031:2064   */\n      slt\n        /* \"#utility.yul\":2028:2148   */\n      iszero\n      tag_241\n      jumpi\n        /* \"#utility.yul\":2067:2146   */\n      tag_242\n      tag_181\n      jump\t// in\n    tag_242:\n        /* \"#utility.yul\":2028:2148   */\n    tag_241:\n        /* \"#utility.yul\":2187:2188   */\n      0x00\n        /* \"#utility.yul\":2212:2265   */\n      tag_243\n        /* \"#utility.yul\":2257:2264   */\n      dup9\n        /* \"#utility.yul\":2248:2254   */\n      dup3\n        /* \"#utility.yul\":2237:2246   */\n      dup10\n        /* \"#utility.yul\":2233:2255   */\n      add\n        /* \"#utility.yul\":2212:2265   */\n      tag_188\n      jump\t// in\n    tag_243:\n        /* \"#utility.yul\":2202:2265   */\n      swap6\n      pop\n        /* \"#utility.yul\":2158:2275   */\n      pop\n        /* \"#utility.yul\":2314:2316   */\n      0x20\n        /* \"#utility.yul\":2340:2393   */\n      tag_244\n        /* \"#utility.yul\":2385:2392   */\n      dup9\n        /* \"#utility.yul\":2376:2382   */\n      dup3\n        /* \"#utility.yul\":2365:2374   */\n      dup10\n        /* \"#utility.yul\":2361:2383   */\n      add\n        /* \"#utility.yul\":2340:2393   */\n      tag_184\n      jump\t// in\n    tag_244:\n        /* \"#utility.yul\":2330:2393   */\n      swap5\n      pop\n        /* \"#utility.yul\":2285:2403   */\n      pop\n        /* \"#utility.yul\":2442:2444   */\n      0x40\n        /* \"#utility.yul\":2468:2521   */\n      tag_245\n        /* \"#utility.yul\":2513:2520   */\n      dup9\n        /* \"#utility.yul\":2504:2510   */\n      dup3\n        /* \"#utility.yul\":2493:2502   */\n      dup10\n        /* \"#utility.yul\":2489:2511   */\n      add\n        /* \"#utility.yul\":2468:2521   */\n      tag_184\n      jump\t// in\n    tag_245:\n        /* \"#utility.yul\":2458:2521   */\n      swap4\n      pop\n        /* \"#utility.yul\":2413:2531   */\n      pop\n        /* \"#utility.yul\":2570:2572   */\n      0x60\n        /* \"#utility.yul\":2596:2649   */\n      tag_246\n        /* \"#utility.yul\":2641:2648   */\n      dup9\n        /* \"#utility.yul\":2632:2638   */\n      dup3\n        /* \"#utility.yul\":2621:2630   */\n      dup10\n        /* \"#utility.yul\":2617:2639   */\n      add\n        /* \"#utility.yul\":2596:2649   */\n      tag_188\n      jump\t// in\n    tag_246:\n        /* \"#utility.yul\":2586:2649   */\n      swap3\n      pop\n        /* \"#utility.yul\":2541:2659   */\n      pop\n        /* \"#utility.yul\":2698:2701   */\n      0x80\n        /* \"#utility.yul\":2725:2778   */\n      tag_247\n        /* \"#utility.yul\":2770:2777   */\n      dup9\n        /* \"#utility.yul\":2761:2767   */\n      dup3\n        /* \"#utility.yul\":2750:2759   */\n      dup10\n        /* \"#utility.yul\":2746:2768   */\n      add\n        /* \"#utility.yul\":2725:2778   */\n      tag_184\n      jump\t// in\n    tag_247:\n        /* \"#utility.yul\":2715:2778   */\n      swap2\n      pop\n        /* \"#utility.yul\":2669:2788   */\n      pop\n        /* \"#utility.yul\":1884:2795   */\n      swap3\n      swap6\n      pop\n      swap3\n      swap6\n      swap1\n      swap4\n      pop\n      jump\t// out\n        /* \"#utility.yul\":2801:2919   */\n    tag_189:\n        /* \"#utility.yul\":2888:2912   */\n      tag_249\n        /* \"#utility.yul\":2906:2911   */\n      dup2\n        /* \"#utility.yul\":2888:2912   */\n      tag_186\n      jump\t// in\n    tag_249:\n        /* \"#utility.yul\":2883:2886   */\n      dup3\n        /* \"#utility.yul\":2876:2913   */\n      mstore\n        /* \"#utility.yul\":2801:2919   */\n      pop\n      pop\n      jump\t// out\n        /* \"#utility.yul\":2925:3147   */\n    tag_47:\n        /* \"#utility.yul\":3018:3022   */\n      0x00\n        /* \"#utility.yul\":3056:3058   */\n      0x20\n        /* \"#utility.yul\":3045:3054   */\n      dup3\n        /* \"#utility.yul\":3041:3059   */\n      add\n        /* \"#utility.yul\":3033:3059   */\n      swap1\n      pop\n        /* \"#utility.yul\":3069:3140   */\n      tag_251\n        /* \"#utility.yul\":3137:3138   */\n      0x00\n        /* \"#utility.yul\":3126:3135   */\n      dup4\n        /* \"#utility.yul\":3122:3139   */\n      add\n        /* \"#utility.yul\":3113:3119   */\n      dup5\n        /* \"#utility.yul\":3069:3140   */\n      tag_189\n      jump\t// in\n    tag_251:\n        /* \"#utility.yul\":2925:3147   */\n      swap3\n      swap2\n      pop\n      pop\n      jump\t// out\n        /* \"#utility.yul\":3153:3243   */\n    tag_190:\n        /* \"#utility.yul\":3187:3194   */\n      0x00\n        /* \"#utility.yul\":3230:3235   */\n      dup2\n        /* \"#utility.yul\":3223:3236   */\n      iszero\n        /* \"#utility.yul\":3216:3237   */\n      iszero\n        /* \"#utility.yul\":3205:3237   */\n      swap1\n      pop\n        /* \"#utility.yul\":3153:3243   */\n      swap2\n      swap1\n      pop\n      jump\t// out\n        /* \"#utility.yul\":3249:3358   */\n    tag_191:\n        /* \"#utility.yul\":3330:3351   */\n      tag_254\n        /* \"#utility.yul\":3345:3350   */\n      dup2\n        /* \"#utility.yul\":3330:3351   */\n      tag_190\n      jump\t// in\n    tag_254:\n        /* \"#utility.yul\":3325:3328   */\n      dup3\n        /* \"#utility.yul\":3318:3352   */\n      mstore\n        /* \"#utility.yul\":3249:3358   */\n      pop\n      pop\n      jump\t// out\n        /* \"#utility.yul\":3364:4238   */\n    tag_53:\n        /* \"#utility.yul\":3619:3623   */\n      0x00\n        /* \"#utility.yul\":3657:3660   */\n      0xe0\n        /* \"#utility.yul\":3646:3655   */\n      dup3\n        /* \"#utility.yul\":3642:3661   */\n      add\n        /* \"#utility.yul\":3634:3661   */\n      swap1\n      pop\n        /* \"#utility.yul\":3671:3742   */\n      tag_256\n        /* \"#utility.yul\":3739:3740   */\n      0x00\n        /* \"#utility.yul\":3728:3737   */\n      dup4\n        /* \"#utility.yul\":3724:3741   */\n      add\n        /* \"#utility.yul\":3715:3721   */\n      dup11\n        /* \"#utility.yul\":3671:3742   */\n      tag_189\n      jump\t// in\n    tag_256:\n        /* \"#utility.yul\":3752:3824   */\n      tag_257\n        /* \"#utility.yul\":3820:3822   */\n      0x20\n        /* \"#utility.yul\":3809:3818   */\n      dup4\n        /* \"#utility.yul\":3805:3823   */\n      add\n        /* \"#utility.yul\":3796:3802   */\n      dup10\n        /* \"#utility.yul\":3752:3824   */\n      tag_189\n      jump\t// in\n    tag_257:\n        /* \"#utility.yul\":3834:3906   */\n      tag_258\n        /* \"#utility.yul\":3902:3904   */\n      0x40\n        /* \"#utility.yul\":3891:3900   */\n      dup4\n        /* \"#utility.yul\":3887:3905   */\n      add\n        /* \"#utility.yul\":3878:3884   */\n      dup9\n        /* \"#utility.yul\":3834:3906   */\n      tag_179\n      jump\t// in\n    tag_258:\n        /* \"#utility.yul\":3916:3988   */\n      tag_259\n        /* \"#utility.yul\":3984:3986   */\n      0x60\n        /* \"#utility.yul\":3973:3982   */\n      dup4\n        /* \"#utility.yul\":3969:3987   */\n      add\n        /* \"#utility.yul\":3960:3966   */\n      dup8\n        /* \"#utility.yul\":3916:3988   */\n      tag_179\n      jump\t// in\n    tag_259:\n        /* \"#utility.yul\":3998:4071   */\n      tag_260\n        /* \"#utility.yul\":4066:4069   */\n      0x80\n        /* \"#utility.yul\":4055:4064   */\n      dup4\n        /* \"#utility.yul\":4051:4070   */\n      add\n        /* \"#utility.yul\":4042:4048   */\n      dup7\n        /* \"#utility.yul\":3998:4071   */\n      tag_189\n      jump\t// in\n    tag_260:\n        /* \"#utility.yul\":4081:4154   */\n      tag_261\n        /* \"#utility.yul\":4149:4152   */\n      0xa0\n        /* \"#utility.yul\":4138:4147   */\n      dup4\n        /* \"#utility.yul\":4134:4153   */\n      add\n        /* \"#utility.yul\":4125:4131   */\n      dup6\n        /* \"#utility.yul\":4081:4154   */\n      tag_179\n      jump\t// in\n    tag_261:\n        /* \"#utility.yul\":4164:4231   */\n      tag_262\n        /* \"#utility.yul\":4226:4229   */\n      0xc0\n        /* \"#utility.yul\":4215:4224   */\n      dup4\n        /* \"#utility.yul\":4211:4230   */\n      add\n        /* \"#utility.yul\":4202:4208   */\n      dup5\n        /* \"#utility.yul\":4164:4231   */\n      tag_191\n      jump\t// in\n    tag_262:\n        /* \"#utility.yul\":3364:4238   */\n      swap9\n      swap8\n      pop\n      pop\n      pop\n      pop\n      pop\n      pop\n      pop\n      pop\n      jump\t// out\n        /* \"#utility.yul\":4244:4573   */\n    tag_60:\n        /* \"#utility.yul\":4303:4309   */\n      0x00\n        /* \"#utility.yul\":4352:4354   */\n      0x20\n        /* \"#utility.yul\":4340:4349   */\n      dup3\n        /* \"#utility.yul\":4331:4338   */\n      dup5\n        /* \"#utility.yul\":4327:4350   */\n      sub\n        /* \"#utility.yul\":4323:4355   */\n      slt\n        /* \"#utility.yul\":4320:4439   */\n      iszero\n      tag_264\n      jumpi\n        /* \"#utility.yul\":4358:4437   */\n      tag_265\n      tag_181\n      jump\t// in\n    tag_265:\n        /* \"#utility.yul\":4320:4439   */\n    tag_264:\n        /* \"#utility.yul\":4478:4479   */\n      0x00\n        /* \"#utility.yul\":4503:4556   */\n      tag_266\n        /* \"#utility.yul\":4548:4555   */\n      dup5\n        /* \"#utility.yul\":4539:4545   */\n      dup3\n        /* \"#utility.yul\":4528:4537   */\n      dup6\n        /* \"#utility.yul\":4524:4546   */\n      add\n        /* \"#utility.yul\":4503:4556   */\n      tag_188\n      jump\t// in\n    tag_266:\n        /* \"#utility.yul\":4493:4556   */\n      swap2\n      pop\n        /* \"#utility.yul\":4449:4566   */\n      pop\n        /* \"#utility.yul\":4244:4573   */\n      swap3\n      swap2\n      pop\n      pop\n      jump\t// out\n        /* \"#utility.yul\":4579:4748   */\n    tag_192:\n        /* \"#utility.yul\":4663:4674   */\n      0x00\n        /* \"#utility.yul\":4697:4703   */\n      dup3\n        /* \"#utility.yul\":4692:4695   */\n      dup3\n        /* \"#utility.yul\":4685:4704   */\n      mstore\n        /* \"#utility.yul\":4737:4741   */\n      0x20\n        /* \"#utility.yul\":4732:4735   */\n      dup3\n        /* \"#utility.yul\":4728:4742   */\n      add\n        /* \"#utility.yul\":4713:4742   */\n      swap1\n      pop\n        /* \"#utility.yul\":4579:4748   */\n      swap3\n      swap2\n      pop\n      pop\n      jump\t// out\n        /* \"#utility.yul\":4754:4920   */\n    tag_193:\n        /* \"#utility.yul\":4894:4912   */\n      0x416c726561647920696e61637469766500000000000000000000000000000000\n        /* \"#utility.yul\":4890:4891   */\n      0x00\n        /* \"#utility.yul\":4882:4888   */\n      dup3\n        /* \"#utility.yul\":4878:4892   */\n      add\n        /* \"#utility.yul\":4871:4913   */\n      mstore\n        /* \"#utility.yul\":4754:4920   */\n      pop\n      jump\t// out\n        /* \"#utility.yul\":4926:5292   */\n    tag_194:\n        /* \"#utility.yul\":5068:5071   */\n      0x00\n        /* \"#utility.yul\":5089:5156   */\n      tag_270\n        /* \"#utility.yul\":5153:5155   */\n      0x10\n        /* \"#utility.yul\":5148:5151   */\n      dup4\n        /* \"#utility.yul\":5089:5156   */\n      tag_192\n      jump\t// in\n    tag_270:\n        /* \"#utility.yul\":5082:5156   */\n      swap2\n      pop\n        /* \"#utility.yul\":5165:5258   */\n      tag_271\n        /* \"#utility.yul\":5254:5257   */\n      dup3\n        /* \"#utility.yul\":5165:5258   */\n      tag_193\n      jump\t// in\n    tag_271:\n        /* \"#utility.yul\":5283:5285   */\n      0x20\n        /* \"#utility.yul\":5278:5281   */\n      dup3\n        /* \"#utility.yul\":5274:5286   */\n      add\n        /* \"#utility.yul\":5267:5286   */\n      swap1\n      pop\n        /* \"#utility.yul\":4926:5292   */\n      swap2\n      swap1\n      pop\n      jump\t// out\n        /* \"#utility.yul\":5298:5717   */\n    tag_68:\n        /* \"#utility.yul\":5464:5468   */\n      0x00\n        /* \"#utility.yul\":5502:5504   */\n      0x20\n        /* \"#utility.yul\":5491:5500   */\n      dup3\n        /* \"#utility.yul\":5487:5505   */\n      add\n        /* \"#utility.yul\":5479:5505   */\n      swap1\n      pop\n        /* \"#utility.yul\":5551:5560   */\n      dup2\n        /* \"#utility.yul\":5545:5549   */\n      dup2\n        /* \"#utility.yul\":5541:5561   */\n      sub\n        /* \"#utility.yul\":5537:5538   */\n      0x00\n        /* \"#utility.yul\":5526:5535   */\n      dup4\n        /* \"#utility.yul\":5522:5539   */\n      add\n        /* \"#utility.yul\":5515:5562   */\n      mstore\n        /* \"#utility.yul\":5579:5710   */\n      tag_273\n        /* \"#utility.yul\":5705:5709   */\n      dup2\n        /* \"#utility.yul\":5579:5710   */\n      tag_194\n      jump\t// in\n    tag_273:\n        /* \"#utility.yul\":5571:5710   */\n      swap1\n      pop\n        /* \"#utility.yul\":5298:5717   */\n      swap2\n      swap1\n      pop\n      jump\t// out\n        /* \"#utility.yul\":5723:5883   */\n    tag_195:\n        /* \"#utility.yul\":5863:5875   */\n      0x4e6f742073656c6c657200000000000000000000000000000000000000000000\n        /* \"#utility.yul\":5859:5860   */\n      0x00\n        /* \"#utility.yul\":5851:5857   */\n      dup3\n        /* \"#utility.yul\":5847:5861   */\n      add\n        /* \"#utility.yul\":5840:5876   */\n      mstore\n        /* \"#utility.yul\":5723:5883   */\n      pop\n      jump\t// out\n        /* \"#utility.yul\":5889:6255   */\n    tag_196:\n        /* \"#utility.yul\":6031:6034   */\n      0x00\n        /* \"#utility.yul\":6052:6119   */\n      tag_276\n        /* \"#utility.yul\":6116:6118   */\n      0x0a\n        /* \"#utility.yul\":6111:6114   */\n      dup4\n        /* \"#utility.yul\":6052:6119   */\n      tag_192\n      jump\t// in\n    tag_276:\n        /* \"#utility.yul\":6045:6119   */\n      swap2\n      pop\n        /* \"#utility.yul\":6128:6221   */\n      tag_277\n        /* \"#utility.yul\":6217:6220   */\n      dup3\n        /* \"#utility.yul\":6128:6221   */\n      tag_195\n      jump\t// in\n    tag_277:\n        /* \"#utility.yul\":6246:6248   */\n      0x20\n        /* \"#utility.yul\":6241:6244   */\n      dup3\n        /* \"#utility.yul\":6237:6249   */\n      add\n        /* \"#utility.yul\":6230:6249   */\n      swap1\n      pop\n        /* \"#utility.yul\":5889:6255   */\n      swap2\n      swap1\n      pop\n      jump\t// out\n        /* \"#utility.yul\":6261:6680   */\n    tag_71:\n        /* \"#utility.yul\":6427:6431   */\n      0x00\n        /* \"#utility.yul\":6465:6467   */\n      0x20\n        /* \"#utility.yul\":6454:6463   */\n      dup3\n        /* \"#utility.yul\":6450:6468   */\n      add\n        /* \"#utility.yul\":6442:6468   */\n      swap1\n      pop\n        /* \"#utility.yul\":6514:6523   */\n      dup2\n        /* \"#utility.yul\":6508:6512   */\n      dup2\n        /* \"#utility.yul\":6504:6524   */\n      sub\n        /* \"#utility.yul\":6500:6501   */\n      0x00\n        /* \"#utility.yul\":6489:6498   */\n      dup4\n        /* \"#utility.yul\":6485:6502   */\n      add\n        /* \"#utility.yul\":6478:6525   */\n      mstore\n        /* \"#utility.yul\":6542:6673   */\n      tag_279\n        /* \"#utility.yul\":6668:6672   */\n      dup2\n        /* \"#utility.yul\":6542:6673   */\n      tag_196\n      jump\t// in\n    tag_279:\n        /* \"#utility.yul\":6534:6673   */\n      swap1\n      pop\n        /* \"#utility.yul\":6261:6680   */\n      swap2\n      swap1\n      pop\n      jump\t// out\n        /* \"#utility.yul\":6686:7128   */\n    tag_73:\n        /* \"#utility.yul\":6835:6839   */\n      0x00\n        /* \"#utility.yul\":6873:6875   */\n      0x60\n        /* \"#utility.yul\":6862:6871   */\n      dup3\n        /* \"#utility.yul\":6858:6876   */\n      add\n        /* \"#utility.yul\":6850:6876   */\n      swap1\n      pop\n        /* \"#utility.yul\":6886:6957   */\n      tag_281\n        /* \"#utility.yul\":6954:6955   */\n      0x00\n        /* \"#utility.yul\":6943:6952   */\n      dup4\n        /* \"#utility.yul\":6939:6956   */\n      add\n        /* \"#utility.yul\":6930:6936   */\n      dup7\n        /* \"#utility.yul\":6886:6957   */\n      tag_189\n      jump\t// in\n    tag_281:\n        /* \"#utility.yul\":6967:7039   */\n      tag_282\n        /* \"#utility.yul\":7035:7037   */\n      0x20\n        /* \"#utility.yul\":7024:7033   */\n      dup4\n        /* \"#utility.yul\":7020:7038   */\n      add\n        /* \"#utility.yul\":7011:7017   */\n      dup6\n        /* \"#utility.yul\":6967:7039   */\n      tag_189\n      jump\t// in\n    tag_282:\n        /* \"#utility.yul\":7049:7121   */\n      tag_283\n        /* \"#utility.yul\":7117:7119   */\n      0x40\n        /* \"#utility.yul\":7106:7115   */\n      dup4\n        /* \"#utility.yul\":7102:7120   */\n      add\n        /* \"#utility.yul\":7093:7099   */\n      dup5\n        /* \"#utility.yul\":7049:7121   */\n      tag_179\n      jump\t// in\n    tag_283:\n        /* \"#utility.yul\":6686:7128   */\n      swap5\n      swap4\n      pop\n      pop\n      pop\n      pop\n      jump\t// out\n        /* \"#utility.yul\":7134:7296   */\n    tag_197:\n        /* \"#utility.yul\":7274:7288   */\n      0x46656520746f6f20686967680000000000000000000000000000000000000000\n        /* \"#utility.yul\":7270:7271   */\n      0x00\n        /* \"#utility.yul\":7262:7268   */\n      dup3\n        /* \"#utility.yul\":7258:7272   */\n      add\n        /* \"#utility.yul\":7251:7289   */\n      mstore\n        /* \"#utility.yul\":7134:7296   */\n      pop\n      jump\t// out\n        /* \"#utility.yul\":7302:7668   */\n    tag_198:\n        /* \"#utility.yul\":7444:7447   */\n      0x00\n        /* \"#utility.yul\":7465:7532   */\n      tag_286\n        /* \"#utility.yul\":7529:7531   */\n      0x0c\n        /* \"#utility.yul\":7524:7527   */\n      dup4\n        /* \"#utility.yul\":7465:7532   */\n      tag_192\n      jump\t// in\n    tag_286:\n        /* \"#utility.yul\":7458:7532   */\n      swap2\n      pop\n        /* \"#utility.yul\":7541:7634   */\n      tag_287\n        /* \"#utility.yul\":7630:7633   */\n      dup3\n        /* \"#utility.yul\":7541:7634   */\n      tag_197\n      jump\t// in\n    tag_287:\n        /* \"#utility.yul\":7659:7661   */\n      0x20\n        /* \"#utility.yul\":7654:7657   */\n      dup3\n        /* \"#utility.yul\":7650:7662   */\n      add\n        /* \"#utility.yul\":7643:7662   */\n      swap1\n      pop\n        /* \"#utility.yul\":7302:7668   */\n      swap2\n      swap1\n      pop\n      jump\t// out\n        /* \"#utility.yul\":7674:8093   */\n    tag_85:\n        /* \"#utility.yul\":7840:7844   */\n      0x00\n        /* \"#utility.yul\":7878:7880   */\n      0x20\n        /* \"#utility.yul\":7867:7876   */\n      dup3\n        /* \"#utility.yul\":7863:7881   */\n      add\n        /* \"#utility.yul\":7855:7881   */\n      swap1\n      pop\n        /* \"#utility.yul\":7927:7936   */\n      dup2\n        /* \"#utility.yul\":7921:7925   */\n      dup2\n        /* \"#utility.yul\":7917:7937   */\n      sub\n        /* \"#utility.yul\":7913:7914   */\n      0x00\n        /* \"#utility.yul\":7902:7911   */\n      dup4\n        /* \"#utility.yul\":7898:7915   */\n      add\n        /* \"#utility.yul\":7891:7938   */\n      mstore\n        /* \"#utility.yul\":7955:8086   */\n      tag_289\n        /* \"#utility.yul\":8081:8085   */\n      dup2\n        /* \"#utility.yul\":7955:8086   */\n      tag_198\n      jump\t// in\n    tag_289:\n        /* \"#utility.yul\":7947:8086   */\n      swap1\n      pop\n        /* \"#utility.yul\":7674:8093   */\n      swap2\n      swap1\n      pop\n      jump\t// out\n        /* \"#utility.yul\":8099:8265   */\n    tag_199:\n        /* \"#utility.yul\":8239:8257   */\n      0x4c697374696e6720696e61637469766500000000000000000000000000000000\n        /* \"#utility.yul\":8235:8236   */\n      0x00\n        /* \"#utility.yul\":8227:8233   */\n      dup3\n        /* \"#utility.yul\":8223:8237   */\n      add\n        /* \"#utility.yul\":8216:8258   */\n      mstore\n        /* \"#utility.yul\":8099:8265   */\n      pop\n      jump\t// out\n        /* \"#utility.yul\":8271:8637   */\n    tag_200:\n        /* \"#utility.yul\":8413:8416   */\n      0x00\n        /* \"#utility.yul\":8434:8501   */\n      tag_292\n        /* \"#utility.yul\":8498:8500   */\n      0x10\n        /* \"#utility.yul\":8493:8496   */\n      dup4\n        /* \"#utility.yul\":8434:8501   */\n      tag_192\n      jump\t// in\n    tag_292:\n        /* \"#utility.yul\":8427:8501   */\n      swap2\n      pop\n        /* \"#utility.yul\":8510:8603   */\n      tag_293\n        /* \"#utility.yul\":8599:8602   */\n      dup3\n        /* \"#utility.yul\":8510:8603   */\n      tag_199\n      jump\t// in\n    tag_293:\n        /* \"#utility.yul\":8628:8630   */\n      0x20\n        /* \"#utility.yul\":8623:8626   */\n      dup3\n        /* \"#utility.yul\":8619:8631   */\n      add\n        /* \"#utility.yul\":8612:8631   */\n      swap1\n      pop\n        /* \"#utility.yul\":8271:8637   */\n      swap2\n      swap1\n      pop\n      jump\t// out\n        /* \"#utility.yul\":8643:9062   */\n    tag_91:\n        /* \"#utility.yul\":8809:8813   */\n      0x00\n        /* \"#utility.yul\":8847:8849   */\n      0x20\n        /* \"#utility.yul\":8836:8845   */\n      dup3\n        /* \"#utility.yul\":8832:8850   */\n      add\n        /* \"#utility.yul\":8824:8850   */\n      swap1\n      pop\n        /* \"#utility.yul\":8896:8905   */\n      dup2\n        /* \"#utility.yul\":8890:8894   */\n      dup2\n        /* \"#utility.yul\":8886:8906   */\n      sub\n        /* \"#utility.yul\":8882:8883   */\n      0x00\n        /* \"#utility.yul\":8871:8880   */\n      dup4\n        /* \"#utility.yul\":8867:8884   */\n      add\n        /* \"#utility.yul\":8860:8907   */\n      mstore\n        /* \"#utility.yul\":8924:9055   */\n      tag_295\n        /* \"#utility.yul\":9050:9054   */\n      dup2\n        /* \"#utility.yul\":8924:9055   */\n      tag_200\n      jump\t// in\n    tag_295:\n        /* \"#utility.yul\":8916:9055   */\n      swap1\n      pop\n        /* \"#utility.yul\":8643:9062   */\n      swap2\n      swap1\n      pop\n      jump\t// out\n        /* \"#utility.yul\":9068:9231   */\n    tag_201:\n        /* \"#utility.yul\":9208:9223   */\n      0x496e636f72726563742045544800000000000000000000000000000000000000\n        /* \"#utility.yul\":9204:9205   */\n      0x00\n        /* \"#utility.yul\":9196:9202   */\n      dup3\n        /* \"#utility.yul\":9192:9206   */\n      add\n        /* \"#utility.yul\":9185:9224   */\n      mstore\n        /* \"#utility.yul\":9068:9231   */\n      pop\n      jump\t// out\n        /* \"#utility.yul\":9237:9603   */\n    tag_202:\n        /* \"#utility.yul\":9379:9382   */\n      0x00\n        /* \"#utility.yul\":9400:9467   */\n      tag_298\n        /* \"#utility.yul\":9464:9466   */\n      0x0d\n        /* \"#utility.yul\":9459:9462   */\n      dup4\n        /* \"#utility.yul\":9400:9467   */\n      tag_192\n      jump\t// in\n    tag_298:\n        /* \"#utility.yul\":9393:9467   */\n      swap2\n      pop\n        /* \"#utility.yul\":9476:9569   */\n      tag_299\n        /* \"#utility.yul\":9565:9568   */\n      dup3\n        /* \"#utility.yul\":9476:9569   */\n      tag_201\n      jump\t// in\n    tag_299:\n        /* \"#utility.yul\":9594:9596   */\n      0x20\n        /* \"#utility.yul\":9589:9592   */\n      dup3\n        /* \"#utility.yul\":9585:9597   */\n      add\n        /* \"#utility.yul\":9578:9597   */\n      swap1\n      pop\n        /* \"#utility.yul\":9237:9603   */\n      swap2\n      swap1\n      pop\n      jump\t// out\n        /* \"#utility.yul\":9609:10028   */\n    tag_94:\n        /* \"#utility.yul\":9775:9779   */\n      0x00\n        /* \"#utility.yul\":9813:9815   */\n      0x20\n        /* \"#utility.yul\":9802:9811   */\n      dup3\n        /* \"#utility.yul\":9798:9816   */\n      add\n        /* \"#utility.yul\":9790:9816   */\n      swap1\n      pop\n        /* \"#utility.yul\":9862:9871   */\n      dup2\n        /* \"#utility.yul\":9856:9860   */\n      dup2\n        /* \"#utility.yul\":9852:9872   */\n      sub\n        /* \"#utility.yul\":9848:9849   */\n      0x00\n        /* \"#utility.yul\":9837:9846   */\n      dup4\n        /* \"#utility.yul\":9833:9850   */\n      add\n        /* \"#utility.yul\":9826:9873   */\n      mstore\n        /* \"#utility.yul\":9890:10021   */\n      tag_301\n        /* \"#utility.yul\":10016:10020   */\n      dup2\n        /* \"#utility.yul\":9890:10021   */\n      tag_202\n      jump\t// in\n    tag_301:\n        /* \"#utility.yul\":9882:10021   */\n      swap1\n      pop\n        /* \"#utility.yul\":9609:10028   */\n      swap2\n      swap1\n      pop\n      jump\t// out\n        /* \"#utility.yul\":10034:10214   */\n    tag_203:\n        /* \"#utility.yul\":10082:10159   */\n      0x4e487b7100000000000000000000000000000000000000000000000000000000\n        /* \"#utility.yul\":10079:10080   */\n      0x00\n        /* \"#utility.yul\":10072:10160   */\n      mstore\n        /* \"#utility.yul\":10179:10183   */\n      0x11\n        /* \"#utility.yul\":10176:10177   */\n      0x04\n        /* \"#utility.yul\":10169:10184   */\n      mstore\n        /* \"#utility.yul\":10203:10207   */\n      0x24\n        /* \"#utility.yul\":10200:10201   */\n      0x00\n        /* \"#utility.yul\":10193:10208   */\n      revert\n        /* \"#utility.yul\":10220:10630   */\n    tag_96:\n        /* \"#utility.yul\":10260:10267   */\n      0x00\n        /* \"#utility.yul\":10283:10303   */\n      tag_304\n        /* \"#utility.yul\":10301:10302   */\n      dup3\n        /* \"#utility.yul\":10283:10303   */\n      tag_178\n      jump\t// in\n    tag_304:\n        /* \"#utility.yul\":10278:10303   */\n      swap2\n      pop\n        /* \"#utility.yul\":10317:10337   */\n      tag_305\n        /* \"#utility.yul\":10335:10336   */\n      dup4\n        /* \"#utility.yul\":10317:10337   */\n      tag_178\n      jump\t// in\n    tag_305:\n        /* \"#utility.yul\":10312:10337   */\n      swap3\n      pop\n        /* \"#utility.yul\":10372:10373   */\n      dup3\n        /* \"#utility.yul\":10369:10370   */\n      dup3\n        /* \"#utility.yul\":10365:10374   */\n      mul\n        /* \"#utility.yul\":10394:10424   */\n      tag_306\n        /* \"#utility.yul\":10412:10423   */\n      dup2\n        /* \"#utility.yul\":10394:10424   */\n      tag_178\n      jump\t// in\n    tag_306:\n        /* \"#utility.yul\":10383:10424   */\n      swap2\n      pop\n        /* \"#utility.yul\":10573:10574   */\n      dup3\n        /* \"#utility.yul\":10564:10571   */\n      dup3\n        /* \"#utility.yul\":10560:10575   */\n      div\n        /* \"#utility.yul\":10557:10558   */\n      dup5\n        /* \"#utility.yul\":10554:10576   */\n      eq\n        /* \"#utility.yul\":10534:10535   */\n      dup4\n        /* \"#utility.yul\":10527:10536   */\n      iszero\n        /* \"#utility.yul\":10507:10590   */\n      or\n        /* \"#utility.yul\":10484:10623   */\n      tag_307\n      jumpi\n        /* \"#utility.yul\":10603:10621   */\n      tag_308\n      tag_203\n      jump\t// in\n    tag_308:\n        /* \"#utility.yul\":10484:10623   */\n    tag_307:\n        /* \"#utility.yul\":10268:10630   */\n      pop\n        /* \"#utility.yul\":10220:10630   */\n      swap3\n      swap2\n      pop\n      pop\n      jump\t// out\n        /* \"#utility.yul\":10636:10816   */\n    tag_204:\n        /* \"#utility.yul\":10684:10761   */\n      0x4e487b7100000000000000000000000000000000000000000000000000000000\n        /* \"#utility.yul\":10681:10682   */\n      0x00\n        /* \"#utility.yul\":10674:10762   */\n      mstore\n        /* \"#utility.yul\":10781:10785   */\n      0x12\n        /* \"#utility.yul\":10778:10779   */\n      0x04\n        /* \"#utility.yul\":10771:10786   */\n      mstore\n        /* \"#utility.yul\":10805:10809   */\n      0x24\n        /* \"#utility.yul\":10802:10803   */\n      0x00\n        /* \"#utility.yul\":10795:10810   */\n      revert\n        /* \"#utility.yul\":10822:11007   */\n    tag_98:\n        /* \"#utility.yul\":10862:10863   */\n      0x00\n        /* \"#utility.yul\":10879:10899   */\n      tag_311\n        /* \"#utility.yul\":10897:10898   */\n      dup3\n        /* \"#utility.yul\":10879:10899   */\n      tag_178\n      jump\t// in\n    tag_311:\n        /* \"#utility.yul\":10874:10899   */\n      swap2\n      pop\n        /* \"#utility.yul\":10913:10933   */\n      tag_312\n        /* \"#utility.yul\":10931:10932   */\n      dup4\n        /* \"#utility.yul\":10913:10933   */\n      tag_178\n      jump\t// in\n    tag_312:\n        /* \"#utility.yul\":10908:10933   */\n      swap3\n      pop\n        /* \"#utility.yul\":10952:10953   */\n      dup3\n        /* \"#utility.yul\":10942:10977   */\n      tag_313\n      jumpi\n        /* \"#utility.yul\":10957:10975   */\n      tag_314\n      tag_204\n      jump\t// in\n    tag_314:\n        /* \"#utility.yul\":10942:10977   */\n    tag_313:\n        /* \"#utility.yul\":10999:11000   */\n      dup3\n        /* \"#utility.yul\":10996:10997   */\n      dup3\n        /* \"#utility.yul\":10992:11001   */\n      div\n        /* \"#utility.yul\":10987:11001   */\n      swap1\n      pop\n        /* \"#utility.yul\":10822:11007   */\n      swap3\n      swap2\n      pop\n      pop\n      jump\t// out\n        /* \"#utility.yul\":11013:11207   */\n    tag_102:\n        /* \"#utility.yul\":11053:11057   */\n      0x00\n        /* \"#utility.yul\":11073:11093   */\n      tag_316\n        /* \"#utility.yul\":11091:11092   */\n      dup3\n        /* \"#utility.yul\":11073:11093   */\n      tag_178\n      jump\t// in\n    tag_316:\n        /* \"#utility.yul\":11068:11093   */\n      swap2\n      pop\n        /* \"#utility.yul\":11107:11127   */\n      tag_317\n        /* \"#utility.yul\":11125:11126   */\n      dup4\n        /* \"#utility.yul\":11107:11127   */\n      tag_178\n      jump\t// in\n    tag_317:\n        /* \"#utility.yul\":11102:11127   */\n      swap3\n      pop\n        /* \"#utility.yul\":11151:11152   */\n      dup3\n        /* \"#utility.yul\":11148:11149   */\n      dup3\n        /* \"#utility.yul\":11144:11153   */\n      sub\n        /* \"#utility.yul\":11136:11153   */\n      swap1\n      pop\n        /* \"#utility.yul\":11175:11176   */\n      dup2\n        /* \"#utility.yul\":11169:11173   */\n      dup2\n        /* \"#utility.yul\":11166:11177   */\n      gt\n        /* \"#utility.yul\":11163:11200   */\n      iszero\n      tag_318\n      jumpi\n        /* \"#utility.yul\":11180:11198   */\n      tag_319\n      tag_203\n      jump\t// in\n    tag_319:\n        /* \"#utility.yul\":11163:11200   */\n    tag_318:\n        /* \"#utility.yul\":11013:11207   */\n      swap3\n      swap2\n      pop\n      pop\n      jump\t// out\n        /* \"#utility.yul\":11213:11545   */\n    tag_118:\n        /* \"#utility.yul\":11334:11338   */\n      0x00\n        /* \"#utility.yul\":11372:11374   */\n      0x40\n        /* \"#utility.yul\":11361:11370   */\n      dup3\n        /* \"#utility.yul\":11357:11375   */\n      add\n        /* \"#utility.yul\":11349:11375   */\n      swap1\n      pop\n        /* \"#utility.yul\":11385:11456   */\n      tag_321\n        /* \"#utility.yul\":11453:11454   */\n      0x00\n        /* \"#utility.yul\":11442:11451   */\n      dup4\n        /* \"#utility.yul\":11438:11455   */\n      add\n        /* \"#utility.yul\":11429:11435   */\n      dup6\n        /* \"#utility.yul\":11385:11456   */\n      tag_189\n      jump\t// in\n    tag_321:\n        /* \"#utility.yul\":11466:11538   */\n      tag_322\n        /* \"#utility.yul\":11534:11536   */\n      0x20\n        /* \"#utility.yul\":11523:11532   */\n      dup4\n        /* \"#utility.yul\":11519:11537   */\n      add\n        /* \"#utility.yul\":11510:11516   */\n      dup5\n        /* \"#utility.yul\":11466:11538   */\n      tag_179\n      jump\t// in\n    tag_322:\n        /* \"#utility.yul\":11213:11545   */\n      swap4\n      swap3\n      pop\n      pop\n      pop\n      jump\t// out\n        /* \"#utility.yul\":11551:11718   */\n    tag_205:\n        /* \"#utility.yul\":11691:11710   */\n      0x5072696365206d757374206265203e2030000000000000000000000000000000\n        /* \"#utility.yul\":11687:11688   */\n      0x00\n        /* \"#utility.yul\":11679:11685   */\n      dup3\n        /* \"#utility.yul\":11675:11689   */\n      add\n        /* \"#utility.yul\":11668:11711   */\n      mstore\n        /* \"#utility.yul\":11551:11718   */\n      pop\n      jump\t// out\n        /* \"#utility.yul\":11724:12090   */\n    tag_206:\n        /* \"#utility.yul\":11866:11869   */\n      0x00\n        /* \"#utility.yul\":11887:11954   */\n      tag_325\n        /* \"#utility.yul\":11951:11953   */\n      0x11\n        /* \"#utility.yul\":11946:11949   */\n      dup4\n        /* \"#utility.yul\":11887:11954   */\n      tag_192\n      jump\t// in\n    tag_325:\n        /* \"#utility.yul\":11880:11954   */\n      swap2\n      pop\n        /* \"#utility.yul\":11963:12056   */\n      tag_326\n        /* \"#utility.yul\":12052:12055   */\n      dup3\n        /* \"#utility.yul\":11963:12056   */\n      tag_205\n      jump\t// in\n    tag_326:\n        /* \"#utility.yul\":12081:12083   */\n      0x20\n        /* \"#utility.yul\":12076:12079   */\n      dup3\n        /* \"#utility.yul\":12072:12084   */\n      add\n        /* \"#utility.yul\":12065:12084   */\n      swap1\n      pop\n        /* \"#utility.yul\":11724:12090   */\n      swap2\n      swap1\n      pop\n      jump\t// out\n        /* \"#utility.yul\":12096:12515   */\n    tag_130:\n        /* \"#utility.yul\":12262:12266   */\n      0x00\n        /* \"#utility.yul\":12300:12302   */\n      0x20\n        /* \"#utility.yul\":12289:12298   */\n      dup3\n        /* \"#utility.yul\":12285:12303   */\n      add\n        /* \"#utility.yul\":12277:12303   */\n      swap1\n      pop\n        /* \"#utility.yul\":12349:12358   */\n      dup2\n        /* \"#utility.yul\":12343:12347   */\n      dup2\n        /* \"#utility.yul\":12339:12359   */\n      sub\n        /* \"#utility.yul\":12335:12336   */\n      0x00\n        /* \"#utility.yul\":12324:12333   */\n      dup4\n        /* \"#utility.yul\":12320:12337   */\n      add\n        /* \"#utility.yul\":12313:12360   */\n      mstore\n        /* \"#utility.yul\":12377:12508   */\n      tag_328\n        /* \"#utility.yul\":12503:12507   */\n      dup2\n        /* \"#utility.yul\":12377:12508   */\n      tag_206\n      jump\t// in\n    tag_328:\n        /* \"#utility.yul\":12369:12508   */\n      swap1\n      pop\n        /* \"#utility.yul\":12096:12515   */\n      swap2\n      swap1\n      pop\n      jump\t// out\n        /* \"#utility.yul\":12521:12687   */\n    tag_207:\n        /* \"#utility.yul\":12661:12679   */\n      0x526f79616c747920746f6f206869676800000000000000000000000000000000\n        /* \"#utility.yul\":12657:12658   */\n      0x00\n        /* \"#utility.yul\":12649:12655   */\n      dup3\n        /* \"#utility.yul\":12645:12659   */\n      add\n        /* \"#utility.yul\":12638:12680   */\n      mstore\n        /* \"#utility.yul\":12521:12687   */\n      pop\n      jump\t// out\n        /* \"#utility.yul\":12693:13059   */\n    tag_208:\n        /* \"#utility.yul\":12835:12838   */\n      0x00\n        /* \"#utility.yul\":12856:12923   */\n      tag_331\n        /* \"#utility.yul\":12920:12922   */\n      0x10\n        /* \"#utility.yul\":12915:12918   */\n      dup4\n        /* \"#utility.yul\":12856:12923   */\n      tag_192\n      jump\t// in\n    tag_331:\n        /* \"#utility.yul\":12849:12923   */\n      swap2\n      pop\n        /* \"#utility.yul\":12932:13025   */\n      tag_332\n        /* \"#utility.yul\":13021:13024   */\n      dup3\n        /* \"#utility.yul\":12932:13025   */\n      tag_207\n      jump\t// in\n    tag_332:\n        /* \"#utility.yul\":13050:13052   */\n      0x20\n        /* \"#utility.yul\":13045:13048   */\n      dup3\n        /* \"#utility.yul\":13041:13053   */\n      add\n        /* \"#utility.yul\":13034:13053   */\n      swap1\n      pop\n        /* \"#utility.yul\":12693:13059   */\n      swap2\n      swap1\n      pop\n      jump\t// out\n        /* \"#utility.yul\":13065:13484   */\n    tag_133:\n        /* \"#utility.yul\":13231:13235   */\n      0x00\n        /* \"#utility.yul\":13269:13271   */\n      0x20\n        /* \"#utility.yul\":13258:13267   */\n      dup3\n        /* \"#utility.yul\":13254:13272   */\n      add\n        /* \"#utility.yul\":13246:13272   */\n      swap1\n      pop\n        /* \"#utility.yul\":13318:13327   */\n      dup2\n        /* \"#utility.yul\":13312:13316   */\n      dup2\n        /* \"#utility.yul\":13308:13328   */\n      sub\n        /* \"#utility.yul\":13304:13305   */\n      0x00\n        /* \"#utility.yul\":13293:13302   */\n      dup4\n        /* \"#utility.yul\":13289:13306   */\n      add\n        /* \"#utility.yul\":13282:13329   */\n      mstore\n        /* \"#utility.yul\":13346:13477   */\n      tag_334\n        /* \"#utility.yul\":13472:13476   */\n      dup2\n        /* \"#utility.yul\":13346:13477   */\n      tag_208\n      jump\t// in\n    tag_334:\n        /* \"#utility.yul\":13338:13477   */\n      swap1\n      pop\n        /* \"#utility.yul\":13065:13484   */\n      swap2\n      swap1\n      pop\n      jump\t// out\n        /* \"#utility.yul\":13490:13633   */\n    tag_209:\n        /* \"#utility.yul\":13547:13552   */\n      0x00\n        /* \"#utility.yul\":13578:13584   */\n      dup2\n        /* \"#utility.yul\":13572:13585   */\n      mload\n        /* \"#utility.yul\":13563:13585   */\n      swap1\n      pop\n        /* \"#utility.yul\":13594:13627   */\n      tag_336\n        /* \"#utility.yul\":13621:13626   */\n      dup2\n        /* \"#utility.yul\":13594:13627   */\n      tag_187\n      jump\t// in\n    tag_336:\n        /* \"#utility.yul\":13490:13633   */\n      swap3\n      swap2\n      pop\n      pop\n      jump\t// out\n        /* \"#utility.yul\":13639:13990   */\n    tag_138:\n        /* \"#utility.yul\":13709:13715   */\n      0x00\n        /* \"#utility.yul\":13758:13760   */\n      0x20\n        /* \"#utility.yul\":13746:13755   */\n      dup3\n        /* \"#utility.yul\":13737:13744   */\n      dup5\n        /* \"#utility.yul\":13733:13756   */\n      sub\n        /* \"#utility.yul\":13729:13761   */\n      slt\n        /* \"#utility.yul\":13726:13845   */\n      iszero\n      tag_338\n      jumpi\n        /* \"#utility.yul\":13764:13843   */\n      tag_339\n      tag_181\n      jump\t// in\n    tag_339:\n        /* \"#utility.yul\":13726:13845   */\n    tag_338:\n        /* \"#utility.yul\":13884:13885   */\n      0x00\n        /* \"#utility.yul\":13909:13973   */\n      tag_340\n        /* \"#utility.yul\":13965:13972   */\n      dup5\n        /* \"#utility.yul\":13956:13962   */\n      dup3\n        /* \"#utility.yul\":13945:13954   */\n      dup6\n        /* \"#utility.yul\":13941:13963   */\n      add\n        /* \"#utility.yul\":13909:13973   */\n      tag_209\n      jump\t// in\n    tag_340:\n        /* \"#utility.yul\":13899:13973   */\n      swap2\n      pop\n        /* \"#utility.yul\":13855:13983   */\n      pop\n        /* \"#utility.yul\":13639:13990   */\n      swap3\n      swap2\n      pop\n      pop\n      jump\t// out\n        /* \"#utility.yul\":13996:14159   */\n    tag_210:\n        /* \"#utility.yul\":14136:14151   */\n      0x4e6f74204e4654206f776e657200000000000000000000000000000000000000\n        /* \"#utility.yul\":14132:14133   */\n      0x00\n        /* \"#utility.yul\":14124:14130   */\n      dup3\n        /* \"#utility.yul\":14120:14134   */\n      add\n        /* \"#utility.yul\":14113:14152   */\n      mstore\n        /* \"#utility.yul\":13996:14159   */\n      pop\n      jump\t// out\n        /* \"#utility.yul\":14165:14531   */\n    tag_211:\n        /* \"#utility.yul\":14307:14310   */\n      0x00\n        /* \"#utility.yul\":14328:14395   */\n      tag_343\n        /* \"#utility.yul\":14392:14394   */\n      0x0d\n        /* \"#utility.yul\":14387:14390   */\n      dup4\n        /* \"#utility.yul\":14328:14395   */\n      tag_192\n      jump\t// in\n    tag_343:\n        /* \"#utility.yul\":14321:14395   */\n      swap2\n      pop\n        /* \"#utility.yul\":14404:14497   */\n      tag_344\n        /* \"#utility.yul\":14493:14496   */\n      dup3\n        /* \"#utility.yul\":14404:14497   */\n      tag_210\n      jump\t// in\n    tag_344:\n        /* \"#utility.yul\":14522:14524   */\n      0x20\n        /* \"#utility.yul\":14517:14520   */\n      dup3\n        /* \"#utility.yul\":14513:14525   */\n      add\n        /* \"#utility.yul\":14506:14525   */\n      swap1\n      pop\n        /* \"#utility.yul\":14165:14531   */\n      swap2\n      swap1\n      pop\n      jump\t// out\n        /* \"#utility.yul\":14537:14956   */\n    tag_141:\n        /* \"#utility.yul\":14703:14707   */\n      0x00\n        /* \"#utility.yul\":14741:14743   */\n      0x20\n        /* \"#utility.yul\":14730:14739   */\n      dup3\n        /* \"#utility.yul\":14726:14744   */\n      add\n        /* \"#utility.yul\":14718:14744   */\n      swap1\n      pop\n        /* \"#utility.yul\":14790:14799   */\n      dup2\n        /* \"#utility.yul\":14784:14788   */\n      dup2\n        /* \"#utility.yul\":14780:14800   */\n      sub\n        /* \"#utility.yul\":14776:14777   */\n      0x00\n        /* \"#utility.yul\":14765:14774   */\n      dup4\n        /* \"#utility.yul\":14761:14778   */\n      add\n        /* \"#utility.yul\":14754:14801   */\n      mstore\n        /* \"#utility.yul\":14818:14949   */\n      tag_346\n        /* \"#utility.yul\":14944:14948   */\n      dup2\n        /* \"#utility.yul\":14818:14949   */\n      tag_211\n      jump\t// in\n    tag_346:\n        /* \"#utility.yul\":14810:14949   */\n      swap1\n      pop\n        /* \"#utility.yul\":14537:14956   */\n      swap2\n      swap1\n      pop\n      jump\t// out\n        /* \"#utility.yul\":14962:15195   */\n    tag_147:\n        /* \"#utility.yul\":15001:15004   */\n      0x00\n        /* \"#utility.yul\":15024:15048   */\n      tag_348\n        /* \"#utility.yul\":15042:15047   */\n      dup3\n        /* \"#utility.yul\":15024:15048   */\n      tag_178\n      jump\t// in\n    tag_348:\n        /* \"#utility.yul\":15015:15048   */\n      swap2\n      pop\n        /* \"#utility.yul\":15070:15136   */\n      0xffffffffffffffffffffffffffffffffffffffffffffffffffffffffffffffff\n        /* \"#utility.yul\":15063:15068   */\n      dup3\n        /* \"#utility.yul\":15060:15137   */\n      sub\n        /* \"#utility.yul\":15057:15160   */\n      tag_349\n      jumpi\n        /* \"#utility.yul\":15140:15158   */\n      tag_350\n      tag_203\n      jump\t// in\n    tag_350:\n        /* \"#utility.yul\":15057:15160   */\n    tag_349:\n        /* \"#utility.yul\":15187:15188   */\n      0x01\n        /* \"#utility.yul\":15180:15185   */\n      dup3\n        /* \"#utility.yul\":15176:15189   */\n      add\n        /* \"#utility.yul\":15169:15189   */\n      swap1\n      pop\n        /* \"#utility.yul\":14962:15195   */\n      swap2\n      swap1\n      pop\n      jump\t// out\n        /* \"#utility.yul\":15201:15533   */\n    tag_149:\n        /* \"#utility.yul\":15322:15326   */\n      0x00\n        /* \"#utility.yul\":15360:15362   */\n      0x40\n        /* \"#utility.yul\":15349:15358   */\n      dup3\n        /* \"#utility.yul\":15345:15363   */\n      add\n        /* \"#utility.yul\":15337:15363   */\n      swap1\n      pop\n        /* \"#utility.yul\":15373:15444   */\n      tag_352\n        /* \"#utility.yul\":15441:15442   */\n      0x00\n        /* \"#utility.yul\":15430:15439   */\n      dup4\n        /* \"#utility.yul\":15426:15443   */\n      add\n        /* \"#utility.yul\":15417:15423   */\n      dup6\n        /* \"#utility.yul\":15373:15444   */\n      tag_179\n      jump\t// in\n    tag_352:\n        /* \"#utility.yul\":15454:15526   */\n      tag_353\n        /* \"#utility.yul\":15522:15524   */\n      0x20\n        /* \"#utility.yul\":15511:15520   */\n      dup4\n        /* \"#utility.yul\":15507:15525   */\n      add\n        /* \"#utility.yul\":15498:15504   */\n      dup5\n        /* \"#utility.yul\":15454:15526   */\n      tag_179\n      jump\t// in\n    tag_353:\n        /* \"#utility.yul\":15201:15533   */\n      swap4\n      swap3\n      pop\n      pop\n      pop\n      jump\t// out\n        /* \"#utility.yul\":15539:15720   */\n    tag_212:\n        /* \"#utility.yul\":15679:15712   */\n      0x5265656e7472616e637947756172643a207265656e7472616e742063616c6c00\n        /* \"#utility.yul\":15675:15676   */\n      0x00\n        /* \"#utility.yul\":15667:15673   */\n      dup3\n        /* \"#utility.yul\":15663:15677   */\n      add\n        /* \"#utility.yul\":15656:15713   */\n      mstore\n        /* \"#utility.yul\":15539:15720   */\n      pop\n      jump\t// out\n        /* \"#utility.yul\":15726:16092   */\n    tag_213:\n        /* \"#utility.yul\":15868:15871   */\n      0x00\n        /* \"#utility.yul\":15889:15956   */\n      tag_356\n        /* \"#utility.yul\":15953:15955   */\n      0x1f\n        /* \"#utility.yul\":15948:15951   */\n      dup4\n        /* \"#utility.yul\":15889:15956   */\n      tag_192\n      jump\t// in\n    tag_356:\n        /* \"#utility.yul\":15882:15956   */\n      swap2\n      pop\n        /* \"#utility.yul\":15965:16058   */\n      tag_357\n        /* \"#utility.yul\":16054:16057   */\n      dup3\n        /* \"#utility.yul\":15965:16058   */\n      tag_212\n      jump\t// in\n    tag_357:\n        /* \"#utility.yul\":16083:16085   */\n      0x20\n        /* \"#utility.yul\":16078:16081   */\n      dup3\n        /* \"#utility.yul\":16074:16086   */\n      add\n        /* \"#utility.yul\":16067:16086   */\n      swap1\n      pop\n        /* \"#utility.yul\":15726:16092   */\n      swap2\n      swap1\n      pop\n      jump\t// out\n        /* \"#utility.yul\":16098:16517   */\n    tag_167:\n        /* \"#utility.yul\":16264:16268   */\n      0x00\n        /* \"#utility.yul\":16302:16304   */\n      0x20\n        /* \"#utility.yul\":16291:16300   */\n      dup3\n        /* \"#utility.yul\":16287:16305   */\n      add\n        /* \"#utility.yul\":16279:16305   */\n      swap1\n      pop\n        /* \"#utility.yul\":16351:16360   */\n      dup2\n        /* \"#utility.yul\":16345:16349   */\n      dup2\n        /* \"#utility.yul\":16341:16361   */\n      sub\n        /* \"#utility.yul\":16337:16338   */\n      0x00\n        /* \"#utility.yul\":16326:16335   */\n      dup4\n        /* \"#utility.yul\":16322:16339   */\n      add\n        /* \"#utility.yul\":16315:16362   */\n      mstore\n        /* \"#utility.yul\":16379:16510   */\n      tag_359\n        /* \"#utility.yul\":16505:16509   */\n      dup2\n        /* \"#utility.yul\":16379:16510   */\n      tag_213\n      jump\t// in\n    tag_359:\n        /* \"#utility.yul\":16371:16510   */\n      swap1\n      pop\n        /* \"#utility.yul\":16098:16517   */\n      swap2\n      swap1\n      pop\n      jump\t// out\n\n    auxdata: 0xa264697066735822122053f23c0b2b043cc2baed4253a11abc0c8cc73fc7b18a75f14e3cc3c506ad38a864736f6c634300081e0033\n}\n",
				"bytecode": {
					"linkReferences": {},
					"object": "608060405234801561000f575f5ffd5b506040516119aa3803806119aa833981810160405281019061003191906101c0565b3360015f819055505f73ffffffffffffffffffffffffffffffffffffffff168173ffffffffffffffffffffffffffffffffffffffff16036100a9575f6040517f1e4fbdf70000000000000000000000000000000000000000000000000000000081526004016100a0919061022a565b60405180910390fd5b6100b8816100c660201b60201c565b508060028190555050610243565b5f60015f9054906101000a900473ffffffffffffffffffffffffffffffffffffffff1690508160015f6101000a81548173ffffffffffffffffffffffffffffffffffffffff021916908373ffffffffffffffffffffffffffffffffffffffff1602179055508173ffffffffffffffffffffffffffffffffffffffff168173ffffffffffffffffffffffffffffffffffffffff167f8be0079c531659141344cd1fd0a4f28419497f9722a3daafe3b4186f6b6457e060405160405180910390a35050565b5f5ffd5b5f819050919050565b61019f8161018d565b81146101a9575f5ffd5b50565b5f815190506101ba81610196565b92915050565b5f602082840312156101d5576101d4610189565b5b5f6101e2848285016101ac565b91505092915050565b5f73ffffffffffffffffffffffffffffffffffffffff82169050919050565b5f610214826101eb565b9050919050565b6102248161020a565b82525050565b5f60208201905061023d5f83018461021b565b92915050565b61175a806102505f395ff3fe60806040526004361061009b575f3560e01c8063715018a611610063578063715018a61461015f57806386b8865c146101755780638da5cb5b1461019d578063de74e57b146101c7578063e086e5ec14610209578063f2fde38b1461021f5761009b565b8063231701e91461009f578063305a67a8146100c957806330eb80cd146100f157806351ed8288146101195780636a16696414610135575b5f5ffd5b3480156100aa575f5ffd5b506100b3610247565b6040516100c09190610f48565b60405180910390f35b3480156100d4575f5ffd5b506100ef60048036038101906100ea9190610f8f565b61024d565b005b3480156100fc575f5ffd5b5061011760048036038101906101129190610f8f565b61042e565b005b610133600480360381019061012e9190610f8f565b610484565b005b348015610140575f5ffd5b506101496107bb565b6040516101569190610f48565b60405180910390f35b34801561016a575f5ffd5b506101736107c1565b005b348015610180575f5ffd5b5061019b60048036038101906101969190611014565b6107d4565b005b3480156101a8575f5ffd5b506101b1610be1565b6040516101be919061109a565b60405180910390f35b3480156101d2575f5ffd5b506101ed60048036038101906101e89190610f8f565b610c09565b60405161020097969594939291906110cd565b60405180910390f35b348015610214575f5ffd5b5061021d610cb0565b005b34801561022a575f5ffd5b506102456004803603810190610240919061113a565b610d05565b005b60035481565b610255610d89565b5f60045f8381526020019081526020015f209050806006015f9054906101000a900460ff166102b9576040517f08c379a00000000000000000000000000000000000000000000000000000000081526004016102b0906111bf565b60405180910390fd5b3373ffffffffffffffffffffffffffffffffffffffff16815f015f9054906101000a900473ffffffffffffffffffffffffffffffffffffffff1673ffffffffffffffffffffffffffffffffffffffff1614610349576040517f08c379a000000000000000000000000000000000000000000000000000000000815260040161034090611227565b60405180910390fd5b5f816006015f6101000a81548160ff021916908315150217905550806001015f9054906101000a900473ffffffffffffffffffffffffffffffffffffffff1673ffffffffffffffffffffffffffffffffffffffff166323b872dd303384600201546040518463ffffffff1660e01b81526004016103c893929190611245565b5f604051808303815f87803b1580156103df575f5ffd5b505af11580156103f1573d5f5f3e3d5ffd5b50505050817f411aee90354c51b1b04cd563fcab2617142a9d50da19232d888547c8a1b7fd8a60405160405180910390a25061042b610dd6565b50565b610436610ddf565b600a81111561047a576040517f08c379a0000000000000000000000000000000000000000000000000000000008152600401610471906112c4565b60405180910390fd5b8060028190555050565b61048c610d89565b5f60045f8381526020019081526020015f209050806006015f9054906101000a900460ff166104f0576040517f08c379a00000000000000000000000000000000000000000000000000000000081526004016104e79061132c565b60405180910390fd5b80600301543414610536576040517f08c379a000000000000000000000000000000000000000000000000000000000815260040161052d90611394565b60405180910390fd5b5f816006015f6101000a81548160ff0219169083151502179055505f60648260050154836003015461056891906113df565b610572919061144d565b90505f6064600254846003015461058991906113df565b610593919061144d565b90505f818385600301546105a7919061147d565b6105b1919061147d565b90505f83111561062357836004015f9054906101000a900473ffffffffffffffffffffffffffffffffffffffff1673ffffffffffffffffffffffffffffffffffffffff166108fc8490811502906040515f60405180830381858888f19350505050158015610621573d5f5f3e3d5ffd5b505b5f82111561067757610633610be1565b73ffffffffffffffffffffffffffffffffffffffff166108fc8390811502906040515f60405180830381858888f19350505050158015610675573d5f5f3e3d5ffd5b505b835f015f9054906101000a900473ffffffffffffffffffffffffffffffffffffffff1673ffffffffffffffffffffffffffffffffffffffff166108fc8290811502906040515f60405180830381858888f193505050501580156106dc573d5f5f3e3d5ffd5b50836001015f9054906101000a900473ffffffffffffffffffffffffffffffffffffffff1673ffffffffffffffffffffffffffffffffffffffff166323b872dd303387600201546040518463ffffffff1660e01b815260040161074193929190611245565b5f604051808303815f87803b158015610758575f5ffd5b505af115801561076a573d5f5f3e3d5ffd5b50505050847f6329e40c0365262ebbff5ca819385c2b9713dcaa050ed07866d72c441395699a3386600301546040516107a49291906114b0565b60405180910390a2505050506107b8610dd6565b50565b60025481565b6107c9610ddf565b6107d25f610e66565b565b6107dc610d89565b5f831161081e576040517f08c379a000000000000000000000000000000000000000000000000000000000815260040161081590611521565b60405180910390fd5b6014811115610862576040517f08c379a000000000000000000000000000000000000000000000000000000000815260040161085990611589565b60405180910390fd5b5f8590503373ffffffffffffffffffffffffffffffffffffffff168173ffffffffffffffffffffffffffffffffffffffff16636352211e876040518263ffffffff1660e01b81526004016108b69190610f48565b602060405180830381865afa1580156108d1573d5f5f3e3d5ffd5b505050506040513d601f19601f820116820180604052508101906108f591906115bb565b73ffffffffffffffffffffffffffffffffffffffff161461094b576040517f08c379a000000000000000000000000000000000000000000000000000000000815260040161094290611630565b60405180910390fd5b8073ffffffffffffffffffffffffffffffffffffffff166323b872dd3330886040518463ffffffff1660e01b815260040161098893929190611245565b5f604051808303815f87803b15801561099f575f5ffd5b505af11580156109b1573d5f5f3e3d5ffd5b5050505060035f8154809291906109c79061164e565b91905055506040518060e001604052803373ffffffffffffffffffffffffffffffffffffffff1681526020018773ffffffffffffffffffffffffffffffffffffffff1681526020018681526020018581526020018473ffffffffffffffffffffffffffffffffffffffff1681526020018381526020016001151581525060045f60035481526020019081526020015f205f820151815f015f6101000a81548173ffffffffffffffffffffffffffffffffffffffff021916908373ffffffffffffffffffffffffffffffffffffffff1602179055506020820151816001015f6101000a81548173ffffffffffffffffffffffffffffffffffffffff021916908373ffffffffffffffffffffffffffffffffffffffff16021790555060408201518160020155606082015181600301556080820151816004015f6101000a81548173ffffffffffffffffffffffffffffffffffffffff021916908373ffffffffffffffffffffffffffffffffffffffff16021790555060a0820151816005015560c0820151816006015f6101000a81548160ff0219169083151502179055509050508573ffffffffffffffffffffffffffffffffffffffff163373ffffffffffffffffffffffffffffffffffffffff166003547fb0fe4922ac99799c17a4130d5c045ba2ecdf6e15b75b9ea84aaf0dc28724a42b8888604051610bc9929190611695565b60405180910390a450610bda610dd6565b5050505050565b5f60015f9054906101000a900473ffffffffffffffffffffffffffffffffffffffff16905090565b6004602052805f5260405f205f91509050805f015f9054906101000a900473ffffffffffffffffffffffffffffffffffffffff1690806001015f9054906101000a900473ffffffffffffffffffffffffffffffffffffffff1690806002015490806003015490806004015f9054906101000a900473ffffffffffffffffffffffffffffffffffffffff1690806005015490806006015f9054906101000a900460ff16905087565b610cb8610ddf565b610cc0610be1565b73ffffffffffffffffffffffffffffffffffffffff166108fc4790811502906040515f60405180830381858888f19350505050158015610d02573d5f5f3e3d5ffd5b50565b610d0d610ddf565b5f73ffffffffffffffffffffffffffffffffffffffff168173ffffffffffffffffffffffffffffffffffffffff1603610d7d575f6040517f1e4fbdf7000000000000000000000000000000000000000000000000000000008152600401610d74919061109a565b60405180910390fd5b610d8681610e66565b50565b60025f5403610dcd576040517f08c379a0000000000000000000000000000000000000000000000000000000008152600401610dc490611706565b60405180910390fd5b60025f81905550565b60015f81905550565b610de7610f29565b73ffffffffffffffffffffffffffffffffffffffff16610e05610be1565b73ffffffffffffffffffffffffffffffffffffffff1614610e6457610e28610f29565b6040517f118cdaa7000000000000000000000000000000000000000000000000000000008152600401610e5b919061109a565b60405180910390fd5b565b5f60015f9054906101000a900473ffffffffffffffffffffffffffffffffffffffff1690508160015f6101000a81548173ffffffffffffffffffffffffffffffffffffffff021916908373ffffffffffffffffffffffffffffffffffffffff1602179055508173ffffffffffffffffffffffffffffffffffffffff168173ffffffffffffffffffffffffffffffffffffffff167f8be0079c531659141344cd1fd0a4f28419497f9722a3daafe3b4186f6b6457e060405160405180910390a35050565b5f33905090565b5f819050919050565b610f4281610f30565b82525050565b5f602082019050610f5b5f830184610f39565b92915050565b5f5ffd5b610f6e81610f30565b8114610f78575f5ffd5b50565b5f81359050610f8981610f65565b92915050565b5f60208284031215610fa457610fa3610f61565b5b5f610fb184828501610f7b565b91505092915050565b5f73ffffffffffffffffffffffffffffffffffffffff82169050919050565b5f610fe382610fba565b9050919050565b610ff381610fd9565b8114610ffd575f5ffd5b50565b5f8135905061100e81610fea565b92915050565b5f5f5f5f5f60a0868803121561102d5761102c610f61565b5b5f61103a88828901611000565b955050602061104b88828901610f7b565b945050604061105c88828901610f7b565b935050606061106d88828901611000565b925050608061107e88828901610f7b565b9150509295509295909350565b61109481610fd9565b82525050565b5f6020820190506110ad5f83018461108b565b92915050565b5f8115159050919050565b6110c7816110b3565b82525050565b5f60e0820190506110e05f83018a61108b565b6110ed602083018961108b565b6110fa6040830188610f39565b6111076060830187610f39565b611114608083018661108b565b61112160a0830185610f39565b61112e60c08301846110be565b98975050505050505050565b5f6020828403121561114f5761114e610f61565b5b5f61115c84828501611000565b91505092915050565b5f82825260208201905092915050565b7f416c726561647920696e616374697665000000000000000000000000000000005f82015250565b5f6111a9601083611165565b91506111b482611175565b602082019050919050565b5f6020820190508181035f8301526111d68161119d565b9050919050565b7f4e6f742073656c6c6572000000000000000000000000000000000000000000005f82015250565b5f611211600a83611165565b915061121c826111dd565b602082019050919050565b5f6020820190508181035f83015261123e81611205565b9050919050565b5f6060820190506112585f83018661108b565b611265602083018561108b565b6112726040830184610f39565b949350505050565b7f46656520746f6f206869676800000000000000000000000000000000000000005f82015250565b5f6112ae600c83611165565b91506112b98261127a565b602082019050919050565b5f6020820190508181035f8301526112db816112a2565b9050919050565b7f4c697374696e6720696e616374697665000000000000000000000000000000005f82015250565b5f611316601083611165565b9150611321826112e2565b602082019050919050565b5f6020820190508181035f8301526113438161130a565b9050919050565b7f496e636f727265637420455448000000000000000000000000000000000000005f82015250565b5f61137e600d83611165565b91506113898261134a565b602082019050919050565b5f6020820190508181035f8301526113ab81611372565b9050919050565b7f4e487b71000000000000000000000000000000000000000000000000000000005f52601160045260245ffd5b5f6113e982610f30565b91506113f483610f30565b925082820261140281610f30565b91508282048414831517611419576114186113b2565b5b5092915050565b7f4e487b71000000000000000000000000000000000000000000000000000000005f52601260045260245ffd5b5f61145782610f30565b915061146283610f30565b92508261147257611471611420565b5b828204905092915050565b5f61148782610f30565b915061149283610f30565b92508282039050818111156114aa576114a96113b2565b5b92915050565b5f6040820190506114c35f83018561108b565b6114d06020830184610f39565b9392505050565b7f5072696365206d757374206265203e20300000000000000000000000000000005f82015250565b5f61150b601183611165565b9150611516826114d7565b602082019050919050565b5f6020820190508181035f830152611538816114ff565b9050919050565b7f526f79616c747920746f6f2068696768000000000000000000000000000000005f82015250565b5f611573601083611165565b915061157e8261153f565b602082019050919050565b5f6020820190508181035f8301526115a081611567565b9050919050565b5f815190506115b581610fea565b92915050565b5f602082840312156115d0576115cf610f61565b5b5f6115dd848285016115a7565b91505092915050565b7f4e6f74204e4654206f776e6572000000000000000000000000000000000000005f82015250565b5f61161a600d83611165565b9150611625826115e6565b602082019050919050565b5f6020820190508181035f8301526116478161160e565b9050919050565b5f61165882610f30565b91507fffffffffffffffffffffffffffffffffffffffffffffffffffffffffffffffff820361168a576116896113b2565b5b600182019050919050565b5f6040820190506116a85f830185610f39565b6116b56020830184610f39565b9392505050565b7f5265656e7472616e637947756172643a207265656e7472616e742063616c6c005f82015250565b5f6116f0601f83611165565b91506116fb826116bc565b602082019050919050565b5f6020820190508181035f83015261171d816116e4565b905091905056fea264697066735822122053f23c0b2b043cc2baed4253a11abc0c8cc73fc7b18a75f14e3cc3c506ad38a864736f6c634300081e0033",
					"opcodes": "PUSH1 0x80 PUSH1 0x40 MSTORE CALLVALUE DUP1 ISZERO PUSH2 0xF JUMPI PUSH0 PUSH0 REVERT JUMPDEST POP PUSH1 0x40 MLOAD PUSH2 0x19AA CODESIZE SUB DUP1 PUSH2 0x19AA DUP4 CODECOPY DUP2 DUP2 ADD PUSH1 0x40 MSTORE DUP2 ADD SWAP1 PUSH2 0x31 SWAP2 SWAP1 PUSH2 0x1C0 JUMP JUMPDEST CALLER PUSH1 0x1 PUSH0 DUP2 SWAP1 SSTORE POP PUSH0 PUSH20 0xFFFFFFFFFFFFFFFFFFFFFFFFFFFFFFFFFFFFFFFF AND DUP2 PUSH20 0xFFFFFFFFFFFFFFFFFFFFFFFFFFFFFFFFFFFFFFFF AND SUB PUSH2 0xA9 JUMPI PUSH0 PUSH1 0x40 MLOAD PUSH32 0x1E4FBDF700000000000000000000000000000000000000000000000000000000 DUP2 MSTORE PUSH1 0x4 ADD PUSH2 0xA0 SWAP2 SWAP1 PUSH2 0x22A JUMP JUMPDEST PUSH1 0x40 MLOAD DUP1 SWAP2 SUB SWAP1 REVERT JUMPDEST PUSH2 0xB8 DUP2 PUSH2 0xC6 PUSH1 0x20 SHL PUSH1 0x20 SHR JUMP JUMPDEST POP DUP1 PUSH1 0x2 DUP2 SWAP1 SSTORE POP POP PUSH2 0x243 JUMP JUMPDEST PUSH0 PUSH1 0x1 PUSH0 SWAP1 SLOAD SWAP1 PUSH2 0x100 EXP SWAP1 DIV PUSH20 0xFFFFFFFFFFFFFFFFFFFFFFFFFFFFFFFFFFFFFFFF AND SWAP1 POP DUP2 PUSH1 0x1 PUSH0 PUSH2 0x100 EXP DUP2 SLOAD DUP2 PUSH20 0xFFFFFFFFFFFFFFFFFFFFFFFFFFFFFFFFFFFFFFFF MUL NOT AND SWAP1 DUP4 PUSH20 0xFFFFFFFFFFFFFFFFFFFFFFFFFFFFFFFFFFFFFFFF AND MUL OR SWAP1 SSTORE POP DUP2 PUSH20 0xFFFFFFFFFFFFFFFFFFFFFFFFFFFFFFFFFFFFFFFF AND DUP2 PUSH20 0xFFFFFFFFFFFFFFFFFFFFFFFFFFFFFFFFFFFFFFFF AND PUSH32 0x8BE0079C531659141344CD1FD0A4F28419497F9722A3DAAFE3B4186F6B6457E0 PUSH1 0x40 MLOAD PUSH1 0x40 MLOAD DUP1 SWAP2 SUB SWAP1 LOG3 POP POP JUMP JUMPDEST PUSH0 PUSH0 REVERT JUMPDEST PUSH0 DUP2 SWAP1 POP SWAP2 SWAP1 POP JUMP JUMPDEST PUSH2 0x19F DUP2 PUSH2 0x18D JUMP JUMPDEST DUP2 EQ PUSH2 0x1A9 JUMPI PUSH0 PUSH0 REVERT JUMPDEST POP JUMP JUMPDEST PUSH0 DUP2 MLOAD SWAP1 POP PUSH2 0x1BA DUP2 PUSH2 0x196 JUMP JUMPDEST SWAP3 SWAP2 POP POP JUMP JUMPDEST PUSH0 PUSH1 0x20 DUP3 DUP5 SUB SLT ISZERO PUSH2 0x1D5 JUMPI PUSH2 0x1D4 PUSH2 0x189 JUMP JUMPDEST JUMPDEST PUSH0 PUSH2 0x1E2 DUP5 DUP3 DUP6 ADD PUSH2 0x1AC JUMP JUMPDEST SWAP2 POP POP SWAP3 SWAP2 POP POP JUMP JUMPDEST PUSH0 PUSH20 0xFFFFFFFFFFFFFFFFFFFFFFFFFFFFFFFFFFFFFFFF DUP3 AND SWAP1 POP SWAP2 SWAP1 POP JUMP JUMPDEST PUSH0 PUSH2 0x214 DUP3 PUSH2 0x1EB JUMP JUMPDEST SWAP1 POP SWAP2 SWAP1 POP JUMP JUMPDEST PUSH2 0x224 DUP2 PUSH2 0x20A JUMP JUMPDEST DUP3 MSTORE POP POP JUMP JUMPDEST PUSH0 PUSH1 0x20 DUP3 ADD SWAP1 POP PUSH2 0x23D PUSH0 DUP4 ADD DUP5 PUSH2 0x21B JUMP JUMPDEST SWAP3 SWAP2 POP POP JUMP JUMPDEST PUSH2 0x175A DUP1 PUSH2 0x250 PUSH0 CODECOPY PUSH0 RETURN INVALID PUSH1 0x80 PUSH1 0x40 MSTORE PUSH1 0x4 CALLDATASIZE LT PUSH2 0x9B JUMPI PUSH0 CALLDATALOAD PUSH1 0xE0 SHR DUP1 PUSH4 0x715018A6 GT PUSH2 0x63 JUMPI DUP1 PUSH4 0x715018A6 EQ PUSH2 0x15F JUMPI DUP1 PUSH4 0x86B8865C EQ PUSH2 0x175 JUMPI DUP1 PUSH4 0x8DA5CB5B EQ PUSH2 0x19D JUMPI DUP1 PUSH4 0xDE74E57B EQ PUSH2 0x1C7 JUMPI DUP1 PUSH4 0xE086E5EC EQ PUSH2 0x209 JUMPI DUP1 PUSH4 0xF2FDE38B EQ PUSH2 0x21F JUMPI PUSH2 0x9B JUMP JUMPDEST DUP1 PUSH4 0x231701E9 EQ PUSH2 0x9F JUMPI DUP1 PUSH4 0x305A67A8 EQ PUSH2 0xC9 JUMPI DUP1 PUSH4 0x30EB80CD EQ PUSH2 0xF1 JUMPI DUP1 PUSH4 0x51ED8288 EQ PUSH2 0x119 JUMPI DUP1 PUSH4 0x6A166964 EQ PUSH2 0x135 JUMPI JUMPDEST PUSH0 PUSH0 REVERT JUMPDEST CALLVALUE DUP1 ISZERO PUSH2 0xAA JUMPI PUSH0 PUSH0 REVERT JUMPDEST POP PUSH2 0xB3 PUSH2 0x247 JUMP JUMPDEST PUSH1 0x40 MLOAD PUSH2 0xC0 SWAP2 SWAP1 PUSH2 0xF48 JUMP JUMPDEST PUSH1 0x40 MLOAD DUP1 SWAP2 SUB SWAP1 RETURN JUMPDEST CALLVALUE DUP1 ISZERO PUSH2 0xD4 JUMPI PUSH0 PUSH0 REVERT JUMPDEST POP PUSH2 0xEF PUSH1 0x4 DUP1 CALLDATASIZE SUB DUP2 ADD SWAP1 PUSH2 0xEA SWAP2 SWAP1 PUSH2 0xF8F JUMP JUMPDEST PUSH2 0x24D JUMP JUMPDEST STOP JUMPDEST CALLVALUE DUP1 ISZERO PUSH2 0xFC JUMPI PUSH0 PUSH0 REVERT JUMPDEST POP PUSH2 0x117 PUSH1 0x4 DUP1 CALLDATASIZE SUB DUP2 ADD SWAP1 PUSH2 0x112 SWAP2 SWAP1 PUSH2 0xF8F JUMP JUMPDEST PUSH2 0x42E JUMP JUMPDEST STOP JUMPDEST PUSH2 0x133 PUSH1 0x4 DUP1 CALLDATASIZE SUB DUP2 ADD SWAP1 PUSH2 0x12E SWAP2 SWAP1 PUSH2 0xF8F JUMP JUMPDEST PUSH2 0x484 JUMP JUMPDEST STOP JUMPDEST CALLVALUE DUP1 ISZERO PUSH2 0x140 JUMPI PUSH0 PUSH0 REVERT JUMPDEST POP PUSH2 0x149 PUSH2 0x7BB JUMP JUMPDEST PUSH1 0x40 MLOAD PUSH2 0x156 SWAP2 SWAP1 PUSH2 0xF48 JUMP JUMPDEST PUSH1 0x40 MLOAD DUP1 SWAP2 SUB SWAP1 RETURN JUMPDEST CALLVALUE DUP1 ISZERO PUSH2 0x16A JUMPI PUSH0 PUSH0 REVERT JUMPDEST POP PUSH2 0x173 PUSH2 0x7C1 JUMP JUMPDEST STOP JUMPDEST CALLVALUE DUP1 ISZERO PUSH2 0x180 JUMPI PUSH0 PUSH0 REVERT JUMPDEST POP PUSH2 0x19B PUSH1 0x4 DUP1 CALLDATASIZE SUB DUP2 ADD SWAP1 PUSH2 0x196 SWAP2 SWAP1 PUSH2 0x1014 JUMP JUMPDEST PUSH2 0x7D4 JUMP JUMPDEST STOP JUMPDEST CALLVALUE DUP1 ISZERO PUSH2 0x1A8 JUMPI PUSH0 PUSH0 REVERT JUMPDEST POP PUSH2 0x1B1 PUSH2 0xBE1 JUMP JUMPDEST PUSH1 0x40 MLOAD PUSH2 0x1BE SWAP2 SWAP1 PUSH2 0x109A JUMP JUMPDEST PUSH1 0x40 MLOAD DUP1 SWAP2 SUB SWAP1 RETURN JUMPDEST CALLVALUE DUP1 ISZERO PUSH2 0x1D2 JUMPI PUSH0 PUSH0 REVERT JUMPDEST POP PUSH2 0x1ED PUSH1 0x4 DUP1 CALLDATASIZE SUB DUP2 ADD SWAP1 PUSH2 0x1E8 SWAP2 SWAP1 PUSH2 0xF8F JUMP JUMPDEST PUSH2 0xC09 JUMP JUMPDEST PUSH1 0x40 MLOAD PUSH2 0x200 SWAP8 SWAP7 SWAP6 SWAP5 SWAP4 SWAP3 SWAP2 SWAP1 PUSH2 0x10CD JUMP JUMPDEST PUSH1 0x40 MLOAD DUP1 SWAP2 SUB SWAP1 RETURN JUMPDEST CALLVALUE DUP1 ISZERO PUSH2 0x214 JUMPI PUSH0 PUSH0 REVERT JUMPDEST POP PUSH2 0x21D PUSH2 0xCB0 JUMP JUMPDEST STOP JUMPDEST CALLVALUE DUP1 ISZERO PUSH2 0x22A JUMPI PUSH0 PUSH0 REVERT JUMPDEST POP PUSH2 0x245 PUSH1 0x4 DUP1 CALLDATASIZE SUB DUP2 ADD SWAP1 PUSH2 0x240 SWAP2 SWAP1 PUSH2 0x113A JUMP JUMPDEST PUSH2 0xD05 JUMP JUMPDEST STOP JUMPDEST PUSH1 0x3 SLOAD DUP2 JUMP JUMPDEST PUSH2 0x255 PUSH2 0xD89 JUMP JUMPDEST PUSH0 PUSH1 0x4 PUSH0 DUP4 DUP2 MSTORE PUSH1 0x20 ADD SWAP1 DUP2 MSTORE PUSH1 0x20 ADD PUSH0 KECCAK256 SWAP1 POP DUP1 PUSH1 0x6 ADD PUSH0 SWAP1 SLOAD SWAP1 PUSH2 0x100 EXP SWAP1 DIV PUSH1 0xFF AND PUSH2 0x2B9 JUMPI PUSH1 0x40 MLOAD PUSH32 0x8C379A000000000000000000000000000000000000000000000000000000000 DUP2 MSTORE PUSH1 0x4 ADD PUSH2 0x2B0 SWAP1 PUSH2 0x11BF JUMP JUMPDEST PUSH1 0x40 MLOAD DUP1 SWAP2 SUB SWAP1 REVERT JUMPDEST CALLER PUSH20 0xFFFFFFFFFFFFFFFFFFFFFFFFFFFFFFFFFFFFFFFF AND DUP2 PUSH0 ADD PUSH0 SWAP1 SLOAD SWAP1 PUSH2 0x100 EXP SWAP1 DIV PUSH20 0xFFFFFFFFFFFFFFFFFFFFFFFFFFFFFFFFFFFFFFFF AND PUSH20 0xFFFFFFFFFFFFFFFFFFFFFFFFFFFFFFFFFFFFFFFF AND EQ PUSH2 0x349 JUMPI PUSH1 0x40 MLOAD PUSH32 0x8C379A000000000000000000000000000000000000000000000000000000000 DUP2 MSTORE PUSH1 0x4 ADD PUSH2 0x340 SWAP1 PUSH2 0x1227 JUMP JUMPDEST PUSH1 0x40 MLOAD DUP1 SWAP2 SUB SWAP1 REVERT JUMPDEST PUSH0 DUP2 PUSH1 0x6 ADD PUSH0 PUSH2 0x100 EXP DUP2 SLOAD DUP2 PUSH1 0xFF MUL NOT AND SWAP1 DUP4 ISZERO ISZERO MUL OR SWAP1 SSTORE POP DUP1 PUSH1 0x1 ADD PUSH0 SWAP1 SLOAD SWAP1 PUSH2 0x100 EXP SWAP1 DIV PUSH20 0xFFFFFFFFFFFFFFFFFFFFFFFFFFFFFFFFFFFFFFFF AND PUSH20 0xFFFFFFFFFFFFFFFFFFFFFFFFFFFFFFFFFFFFFFFF AND PUSH4 0x23B872DD ADDRESS CALLER DUP5 PUSH1 0x2 ADD SLOAD PUSH1 0x40 MLOAD DUP5 PUSH4 0xFFFFFFFF AND PUSH1 0xE0 SHL DUP2 MSTORE PUSH1 0x4 ADD PUSH2 0x3C8 SWAP4 SWAP3 SWAP2 SWAP1 PUSH2 0x1245 JUMP JUMPDEST PUSH0 PUSH1 0x40 MLOAD DUP1 DUP4 SUB DUP2 PUSH0 DUP8 DUP1 EXTCODESIZE ISZERO DUP1 ISZERO PUSH2 0x3DF JUMPI PUSH0 PUSH0 REVERT JUMPDEST POP GAS CALL ISZERO DUP1 ISZERO PUSH2 0x3F1 JUMPI RETURNDATASIZE PUSH0 PUSH0 RETURNDATACOPY RETURNDATASIZE PUSH0 REVERT JUMPDEST POP POP POP POP DUP2 PUSH32 0x411AEE90354C51B1B04CD563FCAB2617142A9D50DA19232D888547C8A1B7FD8A PUSH1 0x40 MLOAD PUSH1 0x40 MLOAD DUP1 SWAP2 SUB SWAP1 LOG2 POP PUSH2 0x42B PUSH2 0xDD6 JUMP JUMPDEST POP JUMP JUMPDEST PUSH2 0x436 PUSH2 0xDDF JUMP JUMPDEST PUSH1 0xA DUP2 GT ISZERO PUSH2 0x47A JUMPI PUSH1 0x40 MLOAD PUSH32 0x8C379A000000000000000000000000000000000000000000000000000000000 DUP2 MSTORE PUSH1 0x4 ADD PUSH2 0x471 SWAP1 PUSH2 0x12C4 JUMP JUMPDEST PUSH1 0x40 MLOAD DUP1 SWAP2 SUB SWAP1 REVERT JUMPDEST DUP1 PUSH1 0x2 DUP2 SWAP1 SSTORE POP POP JUMP JUMPDEST PUSH2 0x48C PUSH2 0xD89 JUMP JUMPDEST PUSH0 PUSH1 0x4 PUSH0 DUP4 DUP2 MSTORE PUSH1 0x20 ADD SWAP1 DUP2 MSTORE PUSH1 0x20 ADD PUSH0 KECCAK256 SWAP1 POP DUP1 PUSH1 0x6 ADD PUSH0 SWAP1 SLOAD SWAP1 PUSH2 0x100 EXP SWAP1 DIV PUSH1 0xFF AND PUSH2 0x4F0 JUMPI PUSH1 0x40 MLOAD PUSH32 0x8C379A000000000000000000000000000000000000000000000000000000000 DUP2 MSTORE PUSH1 0x4 ADD PUSH2 0x4E7 SWAP1 PUSH2 0x132C JUMP JUMPDEST PUSH1 0x40 MLOAD DUP1 SWAP2 SUB SWAP1 REVERT JUMPDEST DUP1 PUSH1 0x3 ADD SLOAD CALLVALUE EQ PUSH2 0x536 JUMPI PUSH1 0x40 MLOAD PUSH32 0x8C379A000000000000000000000000000000000000000000000000000000000 DUP2 MSTORE PUSH1 0x4 ADD PUSH2 0x52D SWAP1 PUSH2 0x1394 JUMP JUMPDEST PUSH1 0x40 MLOAD DUP1 SWAP2 SUB SWAP1 REVERT JUMPDEST PUSH0 DUP2 PUSH1 0x6 ADD PUSH0 PUSH2 0x100 EXP DUP2 SLOAD DUP2 PUSH1 0xFF MUL NOT AND SWAP1 DUP4 ISZERO ISZERO MUL OR SWAP1 SSTORE POP PUSH0 PUSH1 0x64 DUP3 PUSH1 0x5 ADD SLOAD DUP4 PUSH1 0x3 ADD SLOAD PUSH2 0x568 SWAP2 SWAP1 PUSH2 0x13DF JUMP JUMPDEST PUSH2 0x572 SWAP2 SWAP1 PUSH2 0x144D JUMP JUMPDEST SWAP1 POP PUSH0 PUSH1 0x64 PUSH1 0x2 SLOAD DUP5 PUSH1 0x3 ADD SLOAD PUSH2 0x589 SWAP2 SWAP1 PUSH2 0x13DF JUMP JUMPDEST PUSH2 0x593 SWAP2 SWAP1 PUSH2 0x144D JUMP JUMPDEST SWAP1 POP PUSH0 DUP2 DUP4 DUP6 PUSH1 0x3 ADD SLOAD PUSH2 0x5A7 SWAP2 SWAP1 PUSH2 0x147D JUMP JUMPDEST PUSH2 0x5B1 SWAP2 SWAP1 PUSH2 0x147D JUMP JUMPDEST SWAP1 POP PUSH0 DUP4 GT ISZERO PUSH2 0x623 JUMPI DUP4 PUSH1 0x4 ADD PUSH0 SWAP1 SLOAD SWAP1 PUSH2 0x100 EXP SWAP1 DIV PUSH20 0xFFFFFFFFFFFFFFFFFFFFFFFFFFFFFFFFFFFFFFFF AND PUSH20 0xFFFFFFFFFFFFFFFFFFFFFFFFFFFFFFFFFFFFFFFF AND PUSH2 0x8FC DUP5 SWAP1 DUP2 ISZERO MUL SWAP1 PUSH1 0x40 MLOAD PUSH0 PUSH1 0x40 MLOAD DUP1 DUP4 SUB DUP2 DUP6 DUP9 DUP9 CALL SWAP4 POP POP POP POP ISZERO DUP1 ISZERO PUSH2 0x621 JUMPI RETURNDATASIZE PUSH0 PUSH0 RETURNDATACOPY RETURNDATASIZE PUSH0 REVERT JUMPDEST POP JUMPDEST PUSH0 DUP3 GT ISZERO PUSH2 0x677 JUMPI PUSH2 0x633 PUSH2 0xBE1 JUMP JUMPDEST PUSH20 0xFFFFFFFFFFFFFFFFFFFFFFFFFFFFFFFFFFFFFFFF AND PUSH2 0x8FC DUP4 SWAP1 DUP2 ISZERO MUL SWAP1 PUSH1 0x40 MLOAD PUSH0 PUSH1 0x40 MLOAD DUP1 DUP4 SUB DUP2 DUP6 DUP9 DUP9 CALL SWAP4 POP POP POP POP ISZERO DUP1 ISZERO PUSH2 0x675 JUMPI RETURNDATASIZE PUSH0 PUSH0 RETURNDATACOPY RETURNDATASIZE PUSH0 REVERT JUMPDEST POP JUMPDEST DUP4 PUSH0 ADD PUSH0 SWAP1 SLOAD SWAP1 PUSH2 0x100 EXP SWAP1 DIV PUSH20 0xFFFFFFFFFFFFFFFFFFFFFFFFFFFFFFFFFFFFFFFF AND PUSH20 0xFFFFFFFFFFFFFFFFFFFFFFFFFFFFFFFFFFFFFFFF AND PUSH2 0x8FC DUP3 SWAP1 DUP2 ISZERO MUL SWAP1 PUSH1 0x40 MLOAD PUSH0 PUSH1 0x40 MLOAD DUP1 DUP4 SUB DUP2 DUP6 DUP9 DUP9 CALL SWAP4 POP POP POP POP ISZERO DUP1 ISZERO PUSH2 0x6DC JUMPI RETURNDATASIZE PUSH0 PUSH0 RETURNDATACOPY RETURNDATASIZE PUSH0 REVERT JUMPDEST POP DUP4 PUSH1 0x1 ADD PUSH0 SWAP1 SLOAD SWAP1 PUSH2 0x100 EXP SWAP1 DIV PUSH20 0xFFFFFFFFFFFFFFFFFFFFFFFFFFFFFFFFFFFFFFFF AND PUSH20 0xFFFFFFFFFFFFFFFFFFFFFFFFFFFFFFFFFFFFFFFF AND PUSH4 0x23B872DD ADDRESS CALLER DUP8 PUSH1 0x2 ADD SLOAD PUSH1 0x40 MLOAD DUP5 PUSH4 0xFFFFFFFF AND PUSH1 0xE0 SHL DUP2 MSTORE PUSH1 0x4 ADD PUSH2 0x741 SWAP4 SWAP3 SWAP2 SWAP1 PUSH2 0x1245 JUMP JUMPDEST PUSH0 PUSH1 0x40 MLOAD DUP1 DUP4 SUB DUP2 PUSH0 DUP8 DUP1 EXTCODESIZE ISZERO DUP1 ISZERO PUSH2 0x758 JUMPI PUSH0 PUSH0 REVERT JUMPDEST POP GAS CALL ISZERO DUP1 ISZERO PUSH2 0x76A JUMPI RETURNDATASIZE PUSH0 PUSH0 RETURNDATACOPY RETURNDATASIZE PUSH0 REVERT JUMPDEST POP POP POP POP DUP5 PUSH32 0x6329E40C0365262EBBFF5CA819385C2B9713DCAA050ED07866D72C441395699A CALLER DUP7 PUSH1 0x3 ADD SLOAD PUSH1 0x40 MLOAD PUSH2 0x7A4 SWAP3 SWAP2 SWAP1 PUSH2 0x14B0 JUMP JUMPDEST PUSH1 0x40 MLOAD DUP1 SWAP2 SUB SWAP1 LOG2 POP POP POP POP PUSH2 0x7B8 PUSH2 0xDD6 JUMP JUMPDEST POP JUMP JUMPDEST PUSH1 0x2 SLOAD DUP2 JUMP JUMPDEST PUSH2 0x7C9 PUSH2 0xDDF JUMP JUMPDEST PUSH2 0x7D2 PUSH0 PUSH2 0xE66 JUMP JUMPDEST JUMP JUMPDEST PUSH2 0x7DC PUSH2 0xD89 JUMP JUMPDEST PUSH0 DUP4 GT PUSH2 0x81E JUMPI PUSH1 0x40 MLOAD PUSH32 0x8C379A000000000000000000000000000000000000000000000000000000000 DUP2 MSTORE PUSH1 0x4 ADD PUSH2 0x815 SWAP1 PUSH2 0x1521 JUMP JUMPDEST PUSH1 0x40 MLOAD DUP1 SWAP2 SUB SWAP1 REVERT JUMPDEST PUSH1 0x14 DUP2 GT ISZERO PUSH2 0x862 JUMPI PUSH1 0x40 MLOAD PUSH32 0x8C379A000000000000000000000000000000000000000000000000000000000 DUP2 MSTORE PUSH1 0x4 ADD PUSH2 0x859 SWAP1 PUSH2 0x1589 JUMP JUMPDEST PUSH1 0x40 MLOAD DUP1 SWAP2 SUB SWAP1 REVERT JUMPDEST PUSH0 DUP6 SWAP1 POP CALLER PUSH20 0xFFFFFFFFFFFFFFFFFFFFFFFFFFFFFFFFFFFFFFFF AND DUP2 PUSH20 0xFFFFFFFFFFFFFFFFFFFFFFFFFFFFFFFFFFFFFFFF AND PUSH4 0x6352211E DUP8 PUSH1 0x40 MLOAD DUP3 PUSH4 0xFFFFFFFF AND PUSH1 0xE0 SHL DUP2 MSTORE PUSH1 0x4 ADD PUSH2 0x8B6 SWAP2 SWAP1 PUSH2 0xF48 JUMP JUMPDEST PUSH1 0x20 PUSH1 0x40 MLOAD DUP1 DUP4 SUB DUP2 DUP7 GAS STATICCALL ISZERO DUP1 ISZERO PUSH2 0x8D1 JUMPI RETURNDATASIZE PUSH0 PUSH0 RETURNDATACOPY RETURNDATASIZE PUSH0 REVERT JUMPDEST POP POP POP POP PUSH1 0x40 MLOAD RETURNDATASIZE PUSH1 0x1F NOT PUSH1 0x1F DUP3 ADD AND DUP3 ADD DUP1 PUSH1 0x40 MSTORE POP DUP2 ADD SWAP1 PUSH2 0x8F5 SWAP2 SWAP1 PUSH2 0x15BB JUMP JUMPDEST PUSH20 0xFFFFFFFFFFFFFFFFFFFFFFFFFFFFFFFFFFFFFFFF AND EQ PUSH2 0x94B JUMPI PUSH1 0x40 MLOAD PUSH32 0x8C379A000000000000000000000000000000000000000000000000000000000 DUP2 MSTORE PUSH1 0x4 ADD PUSH2 0x942 SWAP1 PUSH2 0x1630 JUMP JUMPDEST PUSH1 0x40 MLOAD DUP1 SWAP2 SUB SWAP1 REVERT JUMPDEST DUP1 PUSH20 0xFFFFFFFFFFFFFFFFFFFFFFFFFFFFFFFFFFFFFFFF AND PUSH4 0x23B872DD CALLER ADDRESS DUP9 PUSH1 0x40 MLOAD DUP5 PUSH4 0xFFFFFFFF AND PUSH1 0xE0 SHL DUP2 MSTORE PUSH1 0x4 ADD PUSH2 0x988 SWAP4 SWAP3 SWAP2 SWAP1 PUSH2 0x1245 JUMP JUMPDEST PUSH0 PUSH1 0x40 MLOAD DUP1 DUP4 SUB DUP2 PUSH0 DUP8 DUP1 EXTCODESIZE ISZERO DUP1 ISZERO PUSH2 0x99F JUMPI PUSH0 PUSH0 REVERT JUMPDEST POP GAS CALL ISZERO DUP1 ISZERO PUSH2 0x9B1 JUMPI RETURNDATASIZE PUSH0 PUSH0 RETURNDATACOPY RETURNDATASIZE PUSH0 REVERT JUMPDEST POP POP POP POP PUSH1 0x3 PUSH0 DUP2 SLOAD DUP1 SWAP3 SWAP2 SWAP1 PUSH2 0x9C7 SWAP1 PUSH2 0x164E JUMP JUMPDEST SWAP2 SWAP1 POP SSTORE POP PUSH1 0x40 MLOAD DUP1 PUSH1 0xE0 ADD PUSH1 0x40 MSTORE DUP1 CALLER PUSH20 0xFFFFFFFFFFFFFFFFFFFFFFFFFFFFFFFFFFFFFFFF AND DUP2 MSTORE PUSH1 0x20 ADD DUP8 PUSH20 0xFFFFFFFFFFFFFFFFFFFFFFFFFFFFFFFFFFFFFFFF AND DUP2 MSTORE PUSH1 0x20 ADD DUP7 DUP2 MSTORE PUSH1 0x20 ADD DUP6 DUP2 MSTORE PUSH1 0x20 ADD DUP5 PUSH20 0xFFFFFFFFFFFFFFFFFFFFFFFFFFFFFFFFFFFFFFFF AND DUP2 MSTORE PUSH1 0x20 ADD DUP4 DUP2 MSTORE PUSH1 0x20 ADD PUSH1 0x1 ISZERO ISZERO DUP2 MSTORE POP PUSH1 0x4 PUSH0 PUSH1 0x3 SLOAD DUP2 MSTORE PUSH1 0x20 ADD SWAP1 DUP2 MSTORE PUSH1 0x20 ADD PUSH0 KECCAK256 PUSH0 DUP3 ADD MLOAD DUP2 PUSH0 ADD PUSH0 PUSH2 0x100 EXP DUP2 SLOAD DUP2 PUSH20 0xFFFFFFFFFFFFFFFFFFFFFFFFFFFFFFFFFFFFFFFF MUL NOT AND SWAP1 DUP4 PUSH20 0xFFFFFFFFFFFFFFFFFFFFFFFFFFFFFFFFFFFFFFFF AND MUL OR SWAP1 SSTORE POP PUSH1 0x20 DUP3 ADD MLOAD DUP2 PUSH1 0x1 ADD PUSH0 PUSH2 0x100 EXP DUP2 SLOAD DUP2 PUSH20 0xFFFFFFFFFFFFFFFFFFFFFFFFFFFFFFFFFFFFFFFF MUL NOT AND SWAP1 DUP4 PUSH20 0xFFFFFFFFFFFFFFFFFFFFFFFFFFFFFFFFFFFFFFFF AND MUL OR SWAP1 SSTORE POP PUSH1 0x40 DUP3 ADD MLOAD DUP2 PUSH1 0x2 ADD SSTORE PUSH1 0x60 DUP3 ADD MLOAD DUP2 PUSH1 0x3 ADD SSTORE PUSH1 0x80 DUP3 ADD MLOAD DUP2 PUSH1 0x4 ADD PUSH0 PUSH2 0x100 EXP DUP2 SLOAD DUP2 PUSH20 0xFFFFFFFFFFFFFFFFFFFFFFFFFFFFFFFFFFFFFFFF MUL NOT AND SWAP1 DUP4 PUSH20 0xFFFFFFFFFFFFFFFFFFFFFFFFFFFFFFFFFFFFFFFF AND MUL OR SWAP1 SSTORE POP PUSH1 0xA0 DUP3 ADD MLOAD DUP2 PUSH1 0x5 ADD SSTORE PUSH1 0xC0 DUP3 ADD MLOAD DUP2 PUSH1 0x6 ADD PUSH0 PUSH2 0x100 EXP DUP2 SLOAD DUP2 PUSH1 0xFF MUL NOT AND SWAP1 DUP4 ISZERO ISZERO MUL OR SWAP1 SSTORE POP SWAP1 POP POP DUP6 PUSH20 0xFFFFFFFFFFFFFFFFFFFFFFFFFFFFFFFFFFFFFFFF AND CALLER PUSH20 0xFFFFFFFFFFFFFFFFFFFFFFFFFFFFFFFFFFFFFFFF AND PUSH1 0x3 SLOAD PUSH32 0xB0FE4922AC99799C17A4130D5C045BA2ECDF6E15B75B9EA84AAF0DC28724A42B DUP9 DUP9 PUSH1 0x40 MLOAD PUSH2 0xBC9 SWAP3 SWAP2 SWAP1 PUSH2 0x1695 JUMP JUMPDEST PUSH1 0x40 MLOAD DUP1 SWAP2 SUB SWAP1 LOG4 POP PUSH2 0xBDA PUSH2 0xDD6 JUMP JUMPDEST POP POP POP POP POP JUMP JUMPDEST PUSH0 PUSH1 0x1 PUSH0 SWAP1 SLOAD SWAP1 PUSH2 0x100 EXP SWAP1 DIV PUSH20 0xFFFFFFFFFFFFFFFFFFFFFFFFFFFFFFFFFFFFFFFF AND SWAP1 POP SWAP1 JUMP JUMPDEST PUSH1 0x4 PUSH1 0x20 MSTORE DUP1 PUSH0 MSTORE PUSH1 0x40 PUSH0 KECCAK256 PUSH0 SWAP2 POP SWAP1 POP DUP1 PUSH0 ADD PUSH0 SWAP1 SLOAD SWAP1 PUSH2 0x100 EXP SWAP1 DIV PUSH20 0xFFFFFFFFFFFFFFFFFFFFFFFFFFFFFFFFFFFFFFFF AND SWAP1 DUP1 PUSH1 0x1 ADD PUSH0 SWAP1 SLOAD SWAP1 PUSH2 0x100 EXP SWAP1 DIV PUSH20 0xFFFFFFFFFFFFFFFFFFFFFFFFFFFFFFFFFFFFFFFF AND SWAP1 DUP1 PUSH1 0x2 ADD SLOAD SWAP1 DUP1 PUSH1 0x3 ADD SLOAD SWAP1 DUP1 PUSH1 0x4 ADD PUSH0 SWAP1 SLOAD SWAP1 PUSH2 0x100 EXP SWAP1 DIV PUSH20 0xFFFFFFFFFFFFFFFFFFFFFFFFFFFFFFFFFFFFFFFF AND SWAP1 DUP1 PUSH1 0x5 ADD SLOAD SWAP1 DUP1 PUSH1 0x6 ADD PUSH0 SWAP1 SLOAD SWAP1 PUSH2 0x100 EXP SWAP1 DIV PUSH1 0xFF AND SWAP1 POP DUP8 JUMP JUMPDEST PUSH2 0xCB8 PUSH2 0xDDF JUMP JUMPDEST PUSH2 0xCC0 PUSH2 0xBE1 JUMP JUMPDEST PUSH20 0xFFFFFFFFFFFFFFFFFFFFFFFFFFFFFFFFFFFFFFFF AND PUSH2 0x8FC SELFBALANCE SWAP1 DUP2 ISZERO MUL SWAP1 PUSH1 0x40 MLOAD PUSH0 PUSH1 0x40 MLOAD DUP1 DUP4 SUB DUP2 DUP6 DUP9 DUP9 CALL SWAP4 POP POP POP POP ISZERO DUP1 ISZERO PUSH2 0xD02 JUMPI RETURNDATASIZE PUSH0 PUSH0 RETURNDATACOPY RETURNDATASIZE PUSH0 REVERT JUMPDEST POP JUMP JUMPDEST PUSH2 0xD0D PUSH2 0xDDF JUMP JUMPDEST PUSH0 PUSH20 0xFFFFFFFFFFFFFFFFFFFFFFFFFFFFFFFFFFFFFFFF AND DUP2 PUSH20 0xFFFFFFFFFFFFFFFFFFFFFFFFFFFFFFFFFFFFFFFF AND SUB PUSH2 0xD7D JUMPI PUSH0 PUSH1 0x40 MLOAD PUSH32 0x1E4FBDF700000000000000000000000000000000000000000000000000000000 DUP2 MSTORE PUSH1 0x4 ADD PUSH2 0xD74 SWAP2 SWAP1 PUSH2 0x109A JUMP JUMPDEST PUSH1 0x40 MLOAD DUP1 SWAP2 SUB SWAP1 REVERT JUMPDEST PUSH2 0xD86 DUP2 PUSH2 0xE66 JUMP JUMPDEST POP JUMP JUMPDEST PUSH1 0x2 PUSH0 SLOAD SUB PUSH2 0xDCD JUMPI PUSH1 0x40 MLOAD PUSH32 0x8C379A000000000000000000000000000000000000000000000000000000000 DUP2 MSTORE PUSH1 0x4 ADD PUSH2 0xDC4 SWAP1 PUSH2 0x1706 JUMP JUMPDEST PUSH1 0x40 MLOAD DUP1 SWAP2 SUB SWAP1 REVERT JUMPDEST PUSH1 0x2 PUSH0 DUP2 SWAP1 SSTORE POP JUMP JUMPDEST PUSH1 0x1 PUSH0 DUP2 SWAP1 SSTORE POP JUMP JUMPDEST PUSH2 0xDE7 PUSH2 0xF29 JUMP JUMPDEST PUSH20 0xFFFFFFFFFFFFFFFFFFFFFFFFFFFFFFFFFFFFFFFF AND PUSH2 0xE05 PUSH2 0xBE1 JUMP JUMPDEST PUSH20 0xFFFFFFFFFFFFFFFFFFFFFFFFFFFFFFFFFFFFFFFF AND EQ PUSH2 0xE64 JUMPI PUSH2 0xE28 PUSH2 0xF29 JUMP JUMPDEST PUSH1 0x40 MLOAD PUSH32 0x118CDAA700000000000000000000000000000000000000000000000000000000 DUP2 MSTORE PUSH1 0x4 ADD PUSH2 0xE5B SWAP2 SWAP1 PUSH2 0x109A JUMP JUMPDEST PUSH1 0x40 MLOAD DUP1 SWAP2 SUB SWAP1 REVERT JUMPDEST JUMP JUMPDEST PUSH0 PUSH1 0x1 PUSH0 SWAP1 SLOAD SWAP1 PUSH2 0x100 EXP SWAP1 DIV PUSH20 0xFFFFFFFFFFFFFFFFFFFFFFFFFFFFFFFFFFFFFFFF AND SWAP1 POP DUP2 PUSH1 0x1 PUSH0 PUSH2 0x100 EXP DUP2 SLOAD DUP2 PUSH20 0xFFFFFFFFFFFFFFFFFFFFFFFFFFFFFFFFFFFFFFFF MUL NOT AND SWAP1 DUP4 PUSH20 0xFFFFFFFFFFFFFFFFFFFFFFFFFFFFFFFFFFFFFFFF AND MUL OR SWAP1 SSTORE POP DUP2 PUSH20 0xFFFFFFFFFFFFFFFFFFFFFFFFFFFFFFFFFFFFFFFF AND DUP2 PUSH20 0xFFFFFFFFFFFFFFFFFFFFFFFFFFFFFFFFFFFFFFFF AND PUSH32 0x8BE0079C531659141344CD1FD0A4F28419497F9722A3DAAFE3B4186F6B6457E0 PUSH1 0x40 MLOAD PUSH1 0x40 MLOAD DUP1 SWAP2 SUB SWAP1 LOG3 POP POP JUMP JUMPDEST PUSH0 CALLER SWAP1 POP SWAP1 JUMP JUMPDEST PUSH0 DUP2 SWAP1 POP SWAP2 SWAP1 POP JUMP JUMPDEST PUSH2 0xF42 DUP2 PUSH2 0xF30 JUMP JUMPDEST DUP3 MSTORE POP POP JUMP JUMPDEST PUSH0 PUSH1 0x20 DUP3 ADD SWAP1 POP PUSH2 0xF5B PUSH0 DUP4 ADD DUP5 PUSH2 0xF39 JUMP JUMPDEST SWAP3 SWAP2 POP POP JUMP JUMPDEST PUSH0 PUSH0 REVERT JUMPDEST PUSH2 0xF6E DUP2 PUSH2 0xF30 JUMP JUMPDEST DUP2 EQ PUSH2 0xF78 JUMPI PUSH0 PUSH0 REVERT JUMPDEST POP JUMP JUMPDEST PUSH0 DUP2 CALLDATALOAD SWAP1 POP PUSH2 0xF89 DUP2 PUSH2 0xF65 JUMP JUMPDEST SWAP3 SWAP2 POP POP JUMP JUMPDEST PUSH0 PUSH1 0x20 DUP3 DUP5 SUB SLT ISZERO PUSH2 0xFA4 JUMPI PUSH2 0xFA3 PUSH2 0xF61 JUMP JUMPDEST JUMPDEST PUSH0 PUSH2 0xFB1 DUP5 DUP3 DUP6 ADD PUSH2 0xF7B JUMP JUMPDEST SWAP2 POP POP SWAP3 SWAP2 POP POP JUMP JUMPDEST PUSH0 PUSH20 0xFFFFFFFFFFFFFFFFFFFFFFFFFFFFFFFFFFFFFFFF DUP3 AND SWAP1 POP SWAP2 SWAP1 POP JUMP JUMPDEST PUSH0 PUSH2 0xFE3 DUP3 PUSH2 0xFBA JUMP JUMPDEST SWAP1 POP SWAP2 SWAP1 POP JUMP JUMPDEST PUSH2 0xFF3 DUP2 PUSH2 0xFD9 JUMP JUMPDEST DUP2 EQ PUSH2 0xFFD JUMPI PUSH0 PUSH0 REVERT JUMPDEST POP JUMP JUMPDEST PUSH0 DUP2 CALLDATALOAD SWAP1 POP PUSH2 0x100E DUP2 PUSH2 0xFEA JUMP JUMPDEST SWAP3 SWAP2 POP POP JUMP JUMPDEST PUSH0 PUSH0 PUSH0 PUSH0 PUSH0 PUSH1 0xA0 DUP7 DUP9 SUB SLT ISZERO PUSH2 0x102D JUMPI PUSH2 0x102C PUSH2 0xF61 JUMP JUMPDEST JUMPDEST PUSH0 PUSH2 0x103A DUP9 DUP3 DUP10 ADD PUSH2 0x1000 JUMP JUMPDEST SWAP6 POP POP PUSH1 0x20 PUSH2 0x104B DUP9 DUP3 DUP10 ADD PUSH2 0xF7B JUMP JUMPDEST SWAP5 POP POP PUSH1 0x40 PUSH2 0x105C DUP9 DUP3 DUP10 ADD PUSH2 0xF7B JUMP JUMPDEST SWAP4 POP POP PUSH1 0x60 PUSH2 0x106D DUP9 DUP3 DUP10 ADD PUSH2 0x1000 JUMP JUMPDEST SWAP3 POP POP PUSH1 0x80 PUSH2 0x107E DUP9 DUP3 DUP10 ADD PUSH2 0xF7B JUMP JUMPDEST SWAP2 POP POP SWAP3 SWAP6 POP SWAP3 SWAP6 SWAP1 SWAP4 POP JUMP JUMPDEST PUSH2 0x1094 DUP2 PUSH2 0xFD9 JUMP JUMPDEST DUP3 MSTORE POP POP JUMP JUMPDEST PUSH0 PUSH1 0x20 DUP3 ADD SWAP1 POP PUSH2 0x10AD PUSH0 DUP4 ADD DUP5 PUSH2 0x108B JUMP JUMPDEST SWAP3 SWAP2 POP POP JUMP JUMPDEST PUSH0 DUP2 ISZERO ISZERO SWAP1 POP SWAP2 SWAP1 POP JUMP JUMPDEST PUSH2 0x10C7 DUP2 PUSH2 0x10B3 JUMP JUMPDEST DUP3 MSTORE POP POP JUMP JUMPDEST PUSH0 PUSH1 0xE0 DUP3 ADD SWAP1 POP PUSH2 0x10E0 PUSH0 DUP4 ADD DUP11 PUSH2 0x108B JUMP JUMPDEST PUSH2 0x10ED PUSH1 0x20 DUP4 ADD DUP10 PUSH2 0x108B JUMP JUMPDEST PUSH2 0x10FA PUSH1 0x40 DUP4 ADD DUP9 PUSH2 0xF39 JUMP JUMPDEST PUSH2 0x1107 PUSH1 0x60 DUP4 ADD DUP8 PUSH2 0xF39 JUMP JUMPDEST PUSH2 0x1114 PUSH1 0x80 DUP4 ADD DUP7 PUSH2 0x108B JUMP JUMPDEST PUSH2 0x1121 PUSH1 0xA0 DUP4 ADD DUP6 PUSH2 0xF39 JUMP JUMPDEST PUSH2 0x112E PUSH1 0xC0 DUP4 ADD DUP5 PUSH2 0x10BE JUMP JUMPDEST SWAP9 SWAP8 POP POP POP POP POP POP POP POP JUMP JUMPDEST PUSH0 PUSH1 0x20 DUP3 DUP5 SUB SLT ISZERO PUSH2 0x114F JUMPI PUSH2 0x114E PUSH2 0xF61 JUMP JUMPDEST JUMPDEST PUSH0 PUSH2 0x115C DUP5 DUP3 DUP6 ADD PUSH2 0x1000 JUMP JUMPDEST SWAP2 POP POP SWAP3 SWAP2 POP POP JUMP JUMPDEST PUSH0 DUP3 DUP3 MSTORE PUSH1 0x20 DUP3 ADD SWAP1 POP SWAP3 SWAP2 POP POP JUMP JUMPDEST PUSH32 0x416C726561647920696E61637469766500000000000000000000000000000000 PUSH0 DUP3 ADD MSTORE POP JUMP JUMPDEST PUSH0 PUSH2 0x11A9 PUSH1 0x10 DUP4 PUSH2 0x1165 JUMP JUMPDEST SWAP2 POP PUSH2 0x11B4 DUP3 PUSH2 0x1175 JUMP JUMPDEST PUSH1 0x20 DUP3 ADD SWAP1 POP SWAP2 SWAP1 POP JUMP JUMPDEST PUSH0 PUSH1 0x20 DUP3 ADD SWAP1 POP DUP2 DUP2 SUB PUSH0 DUP4 ADD MSTORE PUSH2 0x11D6 DUP2 PUSH2 0x119D JUMP JUMPDEST SWAP1 POP SWAP2 SWAP1 POP JUMP JUMPDEST PUSH32 0x4E6F742073656C6C657200000000000000000000000000000000000000000000 PUSH0 DUP3 ADD MSTORE POP JUMP JUMPDEST PUSH0 PUSH2 0x1211 PUSH1 0xA DUP4 PUSH2 0x1165 JUMP JUMPDEST SWAP2 POP PUSH2 0x121C DUP3 PUSH2 0x11DD JUMP JUMPDEST PUSH1 0x20 DUP3 ADD SWAP1 POP SWAP2 SWAP1 POP JUMP JUMPDEST PUSH0 PUSH1 0x20 DUP3 ADD SWAP1 POP DUP2 DUP2 SUB PUSH0 DUP4 ADD MSTORE PUSH2 0x123E DUP2 PUSH2 0x1205 JUMP JUMPDEST SWAP1 POP SWAP2 SWAP1 POP JUMP JUMPDEST PUSH0 PUSH1 0x60 DUP3 ADD SWAP1 POP PUSH2 0x1258 PUSH0 DUP4 ADD DUP7 PUSH2 0x108B JUMP JUMPDEST PUSH2 0x1265 PUSH1 0x20 DUP4 ADD DUP6 PUSH2 0x108B JUMP JUMPDEST PUSH2 0x1272 PUSH1 0x40 DUP4 ADD DUP5 PUSH2 0xF39 JUMP JUMPDEST SWAP5 SWAP4 POP POP POP POP JUMP JUMPDEST PUSH32 0x46656520746F6F20686967680000000000000000000000000000000000000000 PUSH0 DUP3 ADD MSTORE POP JUMP JUMPDEST PUSH0 PUSH2 0x12AE PUSH1 0xC DUP4 PUSH2 0x1165 JUMP JUMPDEST SWAP2 POP PUSH2 0x12B9 DUP3 PUSH2 0x127A JUMP JUMPDEST PUSH1 0x20 DUP3 ADD SWAP1 POP SWAP2 SWAP1 POP JUMP JUMPDEST PUSH0 PUSH1 0x20 DUP3 ADD SWAP1 POP DUP2 DUP2 SUB PUSH0 DUP4 ADD MSTORE PUSH2 0x12DB DUP2 PUSH2 0x12A2 JUMP JUMPDEST SWAP1 POP SWAP2 SWAP1 POP JUMP JUMPDEST PUSH32 0x4C697374696E6720696E61637469766500000000000000000000000000000000 PUSH0 DUP3 ADD MSTORE POP JUMP JUMPDEST PUSH0 PUSH2 0x1316 PUSH1 0x10 DUP4 PUSH2 0x1165 JUMP JUMPDEST SWAP2 POP PUSH2 0x1321 DUP3 PUSH2 0x12E2 JUMP JUMPDEST PUSH1 0x20 DUP3 ADD SWAP1 POP SWAP2 SWAP1 POP JUMP JUMPDEST PUSH0 PUSH1 0x20 DUP3 ADD SWAP1 POP DUP2 DUP2 SUB PUSH0 DUP4 ADD MSTORE PUSH2 0x1343 DUP2 PUSH2 0x130A JUMP JUMPDEST SWAP1 POP SWAP2 SWAP1 POP JUMP JUMPDEST PUSH32 0x496E636F72726563742045544800000000000000000000000000000000000000 PUSH0 DUP3 ADD MSTORE POP JUMP JUMPDEST PUSH0 PUSH2 0x137E PUSH1 0xD DUP4 PUSH2 0x1165 JUMP JUMPDEST SWAP2 POP PUSH2 0x1389 DUP3 PUSH2 0x134A JUMP JUMPDEST PUSH1 0x20 DUP3 ADD SWAP1 POP SWAP2 SWAP1 POP JUMP JUMPDEST PUSH0 PUSH1 0x20 DUP3 ADD SWAP1 POP DUP2 DUP2 SUB PUSH0 DUP4 ADD MSTORE PUSH2 0x13AB DUP2 PUSH2 0x1372 JUMP JUMPDEST SWAP1 POP SWAP2 SWAP1 POP JUMP JUMPDEST PUSH32 0x4E487B7100000000000000000000000000000000000000000000000000000000 PUSH0 MSTORE PUSH1 0x11 PUSH1 0x4 MSTORE PUSH1 0x24 PUSH0 REVERT JUMPDEST PUSH0 PUSH2 0x13E9 DUP3 PUSH2 0xF30 JUMP JUMPDEST SWAP2 POP PUSH2 0x13F4 DUP4 PUSH2 0xF30 JUMP JUMPDEST SWAP3 POP DUP3 DUP3 MUL PUSH2 0x1402 DUP2 PUSH2 0xF30 JUMP JUMPDEST SWAP2 POP DUP3 DUP3 DIV DUP5 EQ DUP4 ISZERO OR PUSH2 0x1419 JUMPI PUSH2 0x1418 PUSH2 0x13B2 JUMP JUMPDEST JUMPDEST POP SWAP3 SWAP2 POP POP JUMP JUMPDEST PUSH32 0x4E487B7100000000000000000000000000000000000000000000000000000000 PUSH0 MSTORE PUSH1 0x12 PUSH1 0x4 MSTORE PUSH1 0x24 PUSH0 REVERT JUMPDEST PUSH0 PUSH2 0x1457 DUP3 PUSH2 0xF30 JUMP JUMPDEST SWAP2 POP PUSH2 0x1462 DUP4 PUSH2 0xF30 JUMP JUMPDEST SWAP3 POP DUP3 PUSH2 0x1472 JUMPI PUSH2 0x1471 PUSH2 0x1420 JUMP JUMPDEST JUMPDEST DUP3 DUP3 DIV SWAP1 POP SWAP3 SWAP2 POP POP JUMP JUMPDEST PUSH0 PUSH2 0x1487 DUP3 PUSH2 0xF30 JUMP JUMPDEST SWAP2 POP PUSH2 0x1492 DUP4 PUSH2 0xF30 JUMP JUMPDEST SWAP3 POP DUP3 DUP3 SUB SWAP1 POP DUP2 DUP2 GT ISZERO PUSH2 0x14AA JUMPI PUSH2 0x14A9 PUSH2 0x13B2 JUMP JUMPDEST JUMPDEST SWAP3 SWAP2 POP POP JUMP JUMPDEST PUSH0 PUSH1 0x40 DUP3 ADD SWAP1 POP PUSH2 0x14C3 PUSH0 DUP4 ADD DUP6 PUSH2 0x108B JUMP JUMPDEST PUSH2 0x14D0 PUSH1 0x20 DUP4 ADD DUP5 PUSH2 0xF39 JUMP JUMPDEST SWAP4 SWAP3 POP POP POP JUMP JUMPDEST PUSH32 0x5072696365206D757374206265203E2030000000000000000000000000000000 PUSH0 DUP3 ADD MSTORE POP JUMP JUMPDEST PUSH0 PUSH2 0x150B PUSH1 0x11 DUP4 PUSH2 0x1165 JUMP JUMPDEST SWAP2 POP PUSH2 0x1516 DUP3 PUSH2 0x14D7 JUMP JUMPDEST PUSH1 0x20 DUP3 ADD SWAP1 POP SWAP2 SWAP1 POP JUMP JUMPDEST PUSH0 PUSH1 0x20 DUP3 ADD SWAP1 POP DUP2 DUP2 SUB PUSH0 DUP4 ADD MSTORE PUSH2 0x1538 DUP2 PUSH2 0x14FF JUMP JUMPDEST SWAP1 POP SWAP2 SWAP1 POP JUMP JUMPDEST PUSH32 0x526F79616C747920746F6F206869676800000000000000000000000000000000 PUSH0 DUP3 ADD MSTORE POP JUMP JUMPDEST PUSH0 PUSH2 0x1573 PUSH1 0x10 DUP4 PUSH2 0x1165 JUMP JUMPDEST SWAP2 POP PUSH2 0x157E DUP3 PUSH2 0x153F JUMP JUMPDEST PUSH1 0x20 DUP3 ADD SWAP1 POP SWAP2 SWAP1 POP JUMP JUMPDEST PUSH0 PUSH1 0x20 DUP3 ADD SWAP1 POP DUP2 DUP2 SUB PUSH0 DUP4 ADD MSTORE PUSH2 0x15A0 DUP2 PUSH2 0x1567 JUMP JUMPDEST SWAP1 POP SWAP2 SWAP1 POP JUMP JUMPDEST PUSH0 DUP2 MLOAD SWAP1 POP PUSH2 0x15B5 DUP2 PUSH2 0xFEA JUMP JUMPDEST SWAP3 SWAP2 POP POP JUMP JUMPDEST PUSH0 PUSH1 0x20 DUP3 DUP5 SUB SLT ISZERO PUSH2 0x15D0 JUMPI PUSH2 0x15CF PUSH2 0xF61 JUMP JUMPDEST JUMPDEST PUSH0 PUSH2 0x15DD DUP5 DUP3 DUP6 ADD PUSH2 0x15A7 JUMP JUMPDEST SWAP2 POP POP SWAP3 SWAP2 POP POP JUMP JUMPDEST PUSH32 0x4E6F74204E4654206F776E657200000000000000000000000000000000000000 PUSH0 DUP3 ADD MSTORE POP JUMP JUMPDEST PUSH0 PUSH2 0x161A PUSH1 0xD DUP4 PUSH2 0x1165 JUMP JUMPDEST SWAP2 POP PUSH2 0x1625 DUP3 PUSH2 0x15E6 JUMP JUMPDEST PUSH1 0x20 DUP3 ADD SWAP1 POP SWAP2 SWAP1 POP JUMP JUMPDEST PUSH0 PUSH1 0x20 DUP3 ADD SWAP1 POP DUP2 DUP2 SUB PUSH0 DUP4 ADD MSTORE PUSH2 0x1647 DUP2 PUSH2 0x160E JUMP JUMPDEST SWAP1 POP SWAP2 SWAP1 POP JUMP JUMPDEST PUSH0 PUSH2 0x1658 DUP3 PUSH2 0xF30 JUMP JUMPDEST SWAP2 POP PUSH32 0xFFFFFFFFFFFFFFFFFFFFFFFFFFFFFFFFFFFFFFFFFFFFFFFFFFFFFFFFFFFFFFFF DUP3 SUB PUSH2 0x168A JUMPI PUSH2 0x1689 PUSH2 0x13B2 JUMP JUMPDEST JUMPDEST PUSH1 0x1 DUP3 ADD SWAP1 POP SWAP2 SWAP1 POP JUMP JUMPDEST PUSH0 PUSH1 0x40 DUP3 ADD SWAP1 POP PUSH2 0x16A8 PUSH0 DUP4 ADD DUP6 PUSH2 0xF39 JUMP JUMPDEST PUSH2 0x16B5 PUSH1 0x20 DUP4 ADD DUP5 PUSH2 0xF39 JUMP JUMPDEST SWAP4 SWAP3 POP POP POP JUMP JUMPDEST PUSH32 0x5265656E7472616E637947756172643A207265656E7472616E742063616C6C00 PUSH0 DUP3 ADD MSTORE POP JUMP JUMPDEST PUSH0 PUSH2 0x16F0 PUSH1 0x1F DUP4 PUSH2 0x1165 JUMP JUMPDEST SWAP2 POP PUSH2 0x16FB DUP3 PUSH2 0x16BC JUMP JUMPDEST PUSH1 0x20 DUP3 ADD SWAP1 POP SWAP2 SWAP1 POP JUMP JUMPDEST PUSH0 PUSH1 0x20 DUP3 ADD SWAP1 POP DUP2 DUP2 SUB PUSH0 DUP4 ADD MSTORE PUSH2 0x171D DUP2 PUSH2 0x16E4 JUMP JUMPDEST SWAP1 POP SWAP2 SWAP1 POP JUMP INVALID LOG2 PUSH5 0x6970667358 0x22 SLT KECCAK256 MSTORE8 CALLCODE EXTCODECOPY SIGNEXTEND 0x2B DIV EXTCODECOPY 0xC2 0xBA 0xED TIMESTAMP MSTORE8 LOG1 BYTE 0xBC 0xC DUP13 0xC7 EXTCODEHASH 0xC7 0xB1 DUP11 PUSH22 0xF14E3CC3C506AD38A864736F6C634300081E00330000 "
				},
				"gasEstimates": {
					"creation": {
						"codeDepositCost": "1195600",
						"executionCost": "infinite",
						"totalCost": "infinite"
					},
					"external": {
						"buyNFT(uint256)": "infinite",
						"cancelListing(uint256)": "infinite",
						"listNFT(address,uint256,uint256,address,uint256)": "infinite",
						"listingIdCounter()": "2426",
						"listings(uint256)": "infinite",
						"marketplaceFee()": "2514",
						"owner()": "2559",
						"renounceOwnership()": "infinite",
						"transferOwnership(address)": "infinite",
						"updateMarketplaceFee(uint256)": "infinite",
						"withdrawETH()": "infinite"
					}
				},
				"methodIdentifiers": {
					"buyNFT(uint256)": "51ed8288",
					"cancelListing(uint256)": "305a67a8",
					"listNFT(address,uint256,uint256,address,uint256)": "86b8865c",
					"listingIdCounter()": "231701e9",
					"listings(uint256)": "de74e57b",
					"marketplaceFee()": "6a166964",
					"owner()": "8da5cb5b",
					"renounceOwnership()": "715018a6",
					"transferOwnership(address)": "f2fde38b",
					"updateMarketplaceFee(uint256)": "30eb80cd",
					"withdrawETH()": "e086e5ec"
				}
			},
			"storageLayout": {
				"storage": [
					{
						"astId": 158,
						"contract": "Smart Contracts/16_NFTMarketPlace.sol:NFTMarketplace",
						"label": "_status",
						"offset": 0,
						"slot": "0",
						"type": "t_uint256"
					},
					{
						"astId": 8,
						"contract": "Smart Contracts/16_NFTMarketPlace.sol:NFTMarketplace",
						"label": "_owner",
						"offset": 0,
						"slot": "1",
						"type": "t_address"
					},
					{
						"astId": 382,
						"contract": "Smart Contracts/16_NFTMarketPlace.sol:NFTMarketplace",
						"label": "marketplaceFee",
						"offset": 0,
						"slot": "2",
						"type": "t_uint256"
					},
					{
						"astId": 384,
						"contract": "Smart Contracts/16_NFTMarketPlace.sol:NFTMarketplace",
						"label": "listingIdCounter",
						"offset": 0,
						"slot": "3",
						"type": "t_uint256"
					},
					{
						"astId": 404,
						"contract": "Smart Contracts/16_NFTMarketPlace.sol:NFTMarketplace",
						"label": "listings",
						"offset": 0,
						"slot": "4",
						"type": "t_mapping(t_uint256,t_struct(Listing)399_storage)"
					}
				],
				"types": {
					"t_address": {
						"encoding": "inplace",
						"label": "address",
						"numberOfBytes": "20"
					},
					"t_bool": {
						"encoding": "inplace",
						"label": "bool",
						"numberOfBytes": "1"
					},
					"t_mapping(t_uint256,t_struct(Listing)399_storage)": {
						"encoding": "mapping",
						"key": "t_uint256",
						"label": "mapping(uint256 => struct NFTMarketplace.Listing)",
						"numberOfBytes": "32",
						"value": "t_struct(Listing)399_storage"
					},
					"t_struct(Listing)399_storage": {
						"encoding": "inplace",
						"label": "struct NFTMarketplace.Listing",
						"members": [
							{
								"astId": 386,
								"contract": "Smart Contracts/16_NFTMarketPlace.sol:NFTMarketplace",
								"label": "seller",
								"offset": 0,
								"slot": "0",
								"type": "t_address"
							},
							{
								"astId": 388,
								"contract": "Smart Contracts/16_NFTMarketPlace.sol:NFTMarketplace",
								"label": "nftContract",
								"offset": 0,
								"slot": "1",
								"type": "t_address"
							},
							{
								"astId": 390,
								"contract": "Smart Contracts/16_NFTMarketPlace.sol:NFTMarketplace",
								"label": "tokenId",
								"offset": 0,
								"slot": "2",
								"type": "t_uint256"
							},
							{
								"astId": 392,
								"contract": "Smart Contracts/16_NFTMarketPlace.sol:NFTMarketplace",
								"label": "price",
								"offset": 0,
								"slot": "3",
								"type": "t_uint256"
							},
							{
								"astId": 394,
								"contract": "Smart Contracts/16_NFTMarketPlace.sol:NFTMarketplace",
								"label": "creator",
								"offset": 0,
								"slot": "4",
								"type": "t_address"
							},
							{
								"astId": 396,
								"contract": "Smart Contracts/16_NFTMarketPlace.sol:NFTMarketplace",
								"label": "royalty",
								"offset": 0,
								"slot": "5",
								"type": "t_uint256"
							},
							{
								"astId": 398,
								"contract": "Smart Contracts/16_NFTMarketPlace.sol:NFTMarketplace",
								"label": "active",
								"offset": 0,
								"slot": "6",
								"type": "t_bool"
							}
						],
						"numberOfBytes": "224"
					},
					"t_uint256": {
						"encoding": "inplace",
						"label": "uint256",
						"numberOfBytes": "32"
					}
				}
			},
			"userdoc": {
				"kind": "user",
				"methods": {},
				"version": 1
			}
		}
	}
}