{
	"Smart Contracts/18_InsurranceOracle.sol": {
		"InsuranceOracle": {
			"abi": [
				{
					"inputs": [
						{
							"internalType": "address",
							"name": "_oracle",
							"type": "address"
						}
					],
					"stateMutability": "nonpayable",
					"type": "constructor"
				},
				{
					"anonymous": false,
					"inputs": [
						{
							"indexed": true,
							"internalType": "address",
							"name": "user",
							"type": "address"
						},
						{
							"indexed": false,
							"internalType": "uint256",
							"name": "payout",
							"type": "uint256"
						}
					],
					"name": "ClaimPaid",
					"type": "event"
				},
				{
					"anonymous": false,
					"inputs": [
						{
							"indexed": false,
							"internalType": "uint256",
							"name": "data",
							"type": "uint256"
						}
					],
					"name": "OracleUpdated",
					"type": "event"
				},
				{
					"anonymous": false,
					"inputs": [
						{
							"indexed": true,
							"internalType": "address",
							"name": "user",
							"type": "address"
						},
						{
							"indexed": false,
							"internalType": "uint256",
							"name": "premium",
							"type": "uint256"
						},
						{
							"indexed": false,
							"internalType": "uint256",
							"name": "payout",
							"type": "uint256"
						}
					],
					"name": "PolicyPurchased",
					"type": "event"
				},
				{
					"inputs": [
						{
							"internalType": "uint256",
							"name": "_payout",
							"type": "uint256"
						}
					],
					"name": "buyPolicy",
					"outputs": [],
					"stateMutability": "payable",
					"type": "function"
				},
				{
					"inputs": [],
					"name": "claim",
					"outputs": [],
					"stateMutability": "nonpayable",
					"type": "function"
				},
				{
					"inputs": [],
					"name": "fundPool",
					"outputs": [],
					"stateMutability": "payable",
					"type": "function"
				},
				{
					"inputs": [
						{
							"internalType": "address",
							"name": "user",
							"type": "address"
						}
					],
					"name": "getPolicy",
					"outputs": [
						{
							"components": [
								{
									"internalType": "uint256",
									"name": "premium",
									"type": "uint256"
								},
								{
									"internalType": "uint256",
									"name": "payout",
									"type": "uint256"
								},
								{
									"internalType": "bool",
									"name": "isActive",
									"type": "bool"
								},
								{
									"internalType": "bool",
									"name": "claimed",
									"type": "bool"
								}
							],
							"internalType": "struct InsuranceOracle.Policy",
							"name": "",
							"type": "tuple"
						}
					],
					"stateMutability": "view",
					"type": "function"
				},
				{
					"inputs": [],
					"name": "oracle",
					"outputs": [
						{
							"internalType": "address",
							"name": "",
							"type": "address"
						}
					],
					"stateMutability": "view",
					"type": "function"
				},
				{
					"inputs": [],
					"name": "oracleData",
					"outputs": [
						{
							"internalType": "uint256",
							"name": "",
							"type": "uint256"
						}
					],
					"stateMutability": "view",
					"type": "function"
				},
				{
					"inputs": [],
					"name": "owner",
					"outputs": [
						{
							"internalType": "address",
							"name": "",
							"type": "address"
						}
					],
					"stateMutability": "view",
					"type": "function"
				},
				{
					"inputs": [
						{
							"internalType": "address",
							"name": "",
							"type": "address"
						}
					],
					"name": "policies",
					"outputs": [
						{
							"internalType": "uint256",
							"name": "premium",
							"type": "uint256"
						},
						{
							"internalType": "uint256",
							"name": "payout",
							"type": "uint256"
						},
						{
							"internalType": "bool",
							"name": "isActive",
							"type": "bool"
						},
						{
							"internalType": "bool",
							"name": "claimed",
							"type": "bool"
						}
					],
					"stateMutability": "view",
					"type": "function"
				},
				{
					"inputs": [
						{
							"internalType": "address",
							"name": "_oracle",
							"type": "address"
						}
					],
					"name": "setOracle",
					"outputs": [],
					"stateMutability": "nonpayable",
					"type": "function"
				},
				{
					"inputs": [
						{
							"internalType": "uint256",
							"name": "_data",
							"type": "uint256"
						}
					],
					"name": "updateOracleData",
					"outputs": [],
					"stateMutability": "nonpayable",
					"type": "function"
				},
				{
					"inputs": [
						{
							"internalType": "uint256",
							"name": "amount",
							"type": "uint256"
						}
					],
					"name": "withdrawFunds",
					"outputs": [],
					"stateMutability": "nonpayable",
					"type": "function"
				},
				{
					"stateMutability": "payable",
					"type": "receive"
				}
			],
			"devdoc": {
				"kind": "dev",
				"methods": {},
				"version": 1
			},
			"evm": {
				"assembly": "    /* \"Smart Contracts/18_InsurranceOracle.sol\":61:2372  contract InsuranceOracle {... */\n  mstore(0x40, 0x80)\n    /* \"Smart Contracts/18_InsurranceOracle.sol\":756:849  constructor(address _oracle) {... */\n  callvalue\n  dup1\n  iszero\n  tag_1\n  jumpi\n  revert(0x00, 0x00)\ntag_1:\n  pop\n  mload(0x40)\n  sub(codesize, bytecodeSize)\n  dup1\n  bytecodeSize\n  dup4\n  codecopy\n  dup2\n  dup2\n  add\n  0x40\n  mstore\n  dup2\n  add\n  swap1\n  tag_2\n  swap2\n  swap1\n  tag_3\n  jump\t// in\ntag_2:\n    /* \"Smart Contracts/18_InsurranceOracle.sol\":804:814  msg.sender */\n  caller\n    /* \"Smart Contracts/18_InsurranceOracle.sol\":796:801  owner */\n  0x00\n  0x00\n    /* \"Smart Contracts/18_InsurranceOracle.sol\":796:814  owner = msg.sender */\n  0x0100\n  exp\n  dup2\n  sload\n  dup2\n  0xffffffffffffffffffffffffffffffffffffffff\n  mul\n  not\n  and\n  swap1\n  dup4\n  0xffffffffffffffffffffffffffffffffffffffff\n  and\n  mul\n  or\n  swap1\n  sstore\n  pop\n    /* \"Smart Contracts/18_InsurranceOracle.sol\":834:841  _oracle */\n  dup1\n    /* \"Smart Contracts/18_InsurranceOracle.sol\":825:831  oracle */\n  0x01\n  0x00\n    /* \"Smart Contracts/18_InsurranceOracle.sol\":825:841  oracle = _oracle */\n  0x0100\n  exp\n  dup2\n  sload\n  dup2\n  0xffffffffffffffffffffffffffffffffffffffff\n  mul\n  not\n  and\n  swap1\n  dup4\n  0xffffffffffffffffffffffffffffffffffffffff\n  and\n  mul\n  or\n  swap1\n  sstore\n  pop\n    /* \"Smart Contracts/18_InsurranceOracle.sol\":756:849  constructor(address _oracle) {... */\n  pop\n    /* \"Smart Contracts/18_InsurranceOracle.sol\":61:2372  contract InsuranceOracle {... */\n  jump(tag_6)\n    /* \"#utility.yul\":88:205   */\ntag_8:\n    /* \"#utility.yul\":197:198   */\n  0x00\n    /* \"#utility.yul\":194:195   */\n  0x00\n    /* \"#utility.yul\":187:199   */\n  revert\n    /* \"#utility.yul\":334:460   */\ntag_10:\n    /* \"#utility.yul\":371:378   */\n  0x00\n    /* \"#utility.yul\":411:453   */\n  0xffffffffffffffffffffffffffffffffffffffff\n    /* \"#utility.yul\":404:409   */\n  dup3\n    /* \"#utility.yul\":400:454   */\n  and\n    /* \"#utility.yul\":389:454   */\n  swap1\n  pop\n    /* \"#utility.yul\":334:460   */\n  swap2\n  swap1\n  pop\n  jump\t// out\n    /* \"#utility.yul\":466:562   */\ntag_11:\n    /* \"#utility.yul\":503:510   */\n  0x00\n    /* \"#utility.yul\":532:556   */\n  tag_20\n    /* \"#utility.yul\":550:555   */\n  dup3\n    /* \"#utility.yul\":532:556   */\n  tag_10\n  jump\t// in\ntag_20:\n    /* \"#utility.yul\":521:556   */\n  swap1\n  pop\n    /* \"#utility.yul\":466:562   */\n  swap2\n  swap1\n  pop\n  jump\t// out\n    /* \"#utility.yul\":568:690   */\ntag_12:\n    /* \"#utility.yul\":641:665   */\n  tag_22\n    /* \"#utility.yul\":659:664   */\n  dup2\n    /* \"#utility.yul\":641:665   */\n  tag_11\n  jump\t// in\ntag_22:\n    /* \"#utility.yul\":634:639   */\n  dup2\n    /* \"#utility.yul\":631:666   */\n  eq\n    /* \"#utility.yul\":621:684   */\n  tag_23\n  jumpi\n    /* \"#utility.yul\":680:681   */\n  0x00\n    /* \"#utility.yul\":677:678   */\n  0x00\n    /* \"#utility.yul\":670:682   */\n  revert\n    /* \"#utility.yul\":621:684   */\ntag_23:\n    /* \"#utility.yul\":568:690   */\n  pop\n  jump\t// out\n    /* \"#utility.yul\":696:839   */\ntag_13:\n    /* \"#utility.yul\":753:758   */\n  0x00\n    /* \"#utility.yul\":784:790   */\n  dup2\n    /* \"#utility.yul\":778:791   */\n  mload\n    /* \"#utility.yul\":769:791   */\n  swap1\n  pop\n    /* \"#utility.yul\":800:833   */\n  tag_25\n    /* \"#utility.yul\":827:832   */\n  dup2\n    /* \"#utility.yul\":800:833   */\n  tag_12\n  jump\t// in\ntag_25:\n    /* \"#utility.yul\":696:839   */\n  swap3\n  swap2\n  pop\n  pop\n  jump\t// out\n    /* \"#utility.yul\":845:1196   */\ntag_3:\n    /* \"#utility.yul\":915:921   */\n  0x00\n    /* \"#utility.yul\":964:966   */\n  0x20\n    /* \"#utility.yul\":952:961   */\n  dup3\n    /* \"#utility.yul\":943:950   */\n  dup5\n    /* \"#utility.yul\":939:962   */\n  sub\n    /* \"#utility.yul\":935:967   */\n  slt\n    /* \"#utility.yul\":932:1051   */\n  iszero\n  tag_27\n  jumpi\n    /* \"#utility.yul\":970:1049   */\n  tag_28\n  tag_8\n  jump\t// in\ntag_28:\n    /* \"#utility.yul\":932:1051   */\ntag_27:\n    /* \"#utility.yul\":1090:1091   */\n  0x00\n    /* \"#utility.yul\":1115:1179   */\n  tag_29\n    /* \"#utility.yul\":1171:1178   */\n  dup5\n    /* \"#utility.yul\":1162:1168   */\n  dup3\n    /* \"#utility.yul\":1151:1160   */\n  dup6\n    /* \"#utility.yul\":1147:1169   */\n  add\n    /* \"#utility.yul\":1115:1179   */\n  tag_13\n  jump\t// in\ntag_29:\n    /* \"#utility.yul\":1105:1179   */\n  swap2\n  pop\n    /* \"#utility.yul\":1061:1189   */\n  pop\n    /* \"#utility.yul\":845:1196   */\n  swap3\n  swap2\n  pop\n  pop\n  jump\t// out\n    /* \"Smart Contracts/18_InsurranceOracle.sol\":61:2372  contract InsuranceOracle {... */\ntag_6:\n  dataSize(sub_0)\n  dup1\n  dataOffset(sub_0)\n  0x00\n  codecopy\n  0x00\n  return\nstop\n\nsub_0: assembly {\n        /* \"Smart Contracts/18_InsurranceOracle.sol\":61:2372  contract InsuranceOracle {... */\n      mstore(0x40, 0x80)\n      jumpi(tag_1, lt(calldatasize, 0x04))\n      shr(0xe0, calldataload(0x00))\n      dup1\n      0x74645ff3\n      gt\n      tag_14\n      jumpi\n      dup1\n      0x74645ff3\n      eq\n      tag_8\n      jumpi\n      dup1\n      0x79c88894\n      eq\n      tag_9\n      jumpi\n      dup1\n      0x7adbf973\n      eq\n      tag_10\n      jumpi\n      dup1\n      0x7dc0d1d0\n      eq\n      tag_11\n      jumpi\n      dup1\n      0x8da5cb5b\n      eq\n      tag_12\n      jumpi\n      dup1\n      0xbc02c8d6\n      eq\n      tag_13\n      jumpi\n      jump(tag_2)\n    tag_14:\n      dup1\n      0x155dd5ee\n      eq\n      tag_3\n      jumpi\n      dup1\n      0x20e98698\n      eq\n      tag_4\n      jumpi\n      dup1\n      0x3791dc6a\n      eq\n      tag_5\n      jumpi\n      dup1\n      0x4e71d92d\n      eq\n      tag_6\n      jumpi\n      dup1\n      0x70f37d27\n      eq\n      tag_7\n      jumpi\n      jump(tag_2)\n    tag_1:\n      jumpi(tag_2, calldatasize)\n      stop\n    tag_2:\n      revert(0x00, 0x00)\n        /* \"Smart Contracts/18_InsurranceOracle.sol\":1984:2092  function withdrawFunds(uint256 amount) external onlyOwner {... */\n    tag_3:\n      callvalue\n      dup1\n      iszero\n      tag_17\n      jumpi\n      revert(0x00, 0x00)\n    tag_17:\n      pop\n      tag_18\n      0x04\n      dup1\n      calldatasize\n      sub\n      dup2\n      add\n      swap1\n      tag_19\n      swap2\n      swap1\n      tag_20\n      jump\t// in\n    tag_19:\n      tag_21\n      jump\t// in\n    tag_18:\n      stop\n        /* \"Smart Contracts/18_InsurranceOracle.sol\":315:357  mapping(address => Policy) public policies */\n    tag_4:\n      callvalue\n      dup1\n      iszero\n      tag_22\n      jumpi\n      revert(0x00, 0x00)\n    tag_22:\n      pop\n      tag_23\n      0x04\n      dup1\n      calldatasize\n      sub\n      dup2\n      add\n      swap1\n      tag_24\n      swap2\n      swap1\n      tag_25\n      jump\t// in\n    tag_24:\n      tag_26\n      jump\t// in\n    tag_23:\n      mload(0x40)\n      tag_27\n      swap5\n      swap4\n      swap3\n      swap2\n      swap1\n      tag_28\n      jump\t// in\n    tag_27:\n      mload(0x40)\n      dup1\n      swap2\n      sub\n      swap1\n      return\n        /* \"Smart Contracts/18_InsurranceOracle.sol\":2100:2211  function getPolicy(address user) external view returns (Policy memory) {... */\n    tag_5:\n      callvalue\n      dup1\n      iszero\n      tag_29\n      jumpi\n      revert(0x00, 0x00)\n    tag_29:\n      pop\n      tag_30\n      0x04\n      dup1\n      calldatasize\n      sub\n      dup2\n      add\n      swap1\n      tag_31\n      swap2\n      swap1\n      tag_25\n      jump\t// in\n    tag_31:\n      tag_32\n      jump\t// in\n    tag_30:\n      mload(0x40)\n      tag_33\n      swap2\n      swap1\n      tag_34\n      jump\t// in\n    tag_33:\n      mload(0x40)\n      dup1\n      swap2\n      sub\n      swap1\n      return\n        /* \"Smart Contracts/18_InsurranceOracle.sol\":1437:1878  function claim() external {... */\n    tag_6:\n      callvalue\n      dup1\n      iszero\n      tag_35\n      jumpi\n      revert(0x00, 0x00)\n    tag_35:\n      pop\n      tag_36\n      tag_37\n      jump\t// in\n    tag_36:\n      stop\n        /* \"Smart Contracts/18_InsurranceOracle.sol\":2256:2369  function fundPool() external payable onlyOwner {... */\n    tag_7:\n      tag_38\n      tag_39\n      jump\t// in\n    tag_38:\n      stop\n        /* \"Smart Contracts/18_InsurranceOracle.sol\":152:177  uint256 public oracleData */\n    tag_8:\n      callvalue\n      dup1\n      iszero\n      tag_40\n      jumpi\n      revert(0x00, 0x00)\n    tag_40:\n      pop\n      tag_41\n      tag_42\n      jump\t// in\n    tag_41:\n      mload(0x40)\n      tag_43\n      swap2\n      swap1\n      tag_44\n      jump\t// in\n    tag_43:\n      mload(0x40)\n      dup1\n      swap2\n      sub\n      swap1\n      return\n        /* \"Smart Contracts/18_InsurranceOracle.sol\":857:1287  function buyPolicy(uint256 _payout) external payable {... */\n    tag_9:\n      tag_45\n      0x04\n      dup1\n      calldatasize\n      sub\n      dup2\n      add\n      swap1\n      tag_46\n      swap2\n      swap1\n      tag_20\n      jump\t// in\n    tag_46:\n      tag_47\n      jump\t// in\n    tag_45:\n      stop\n        /* \"Smart Contracts/18_InsurranceOracle.sol\":1886:1976  function setOracle(address _oracle) external onlyOwner {... */\n    tag_10:\n      callvalue\n      dup1\n      iszero\n      tag_48\n      jumpi\n      revert(0x00, 0x00)\n    tag_48:\n      pop\n      tag_49\n      0x04\n      dup1\n      calldatasize\n      sub\n      dup2\n      add\n      swap1\n      tag_50\n      swap2\n      swap1\n      tag_25\n      jump\t// in\n    tag_50:\n      tag_51\n      jump\t// in\n    tag_49:\n      stop\n        /* \"Smart Contracts/18_InsurranceOracle.sol\":122:143  address public oracle */\n    tag_11:\n      callvalue\n      dup1\n      iszero\n      tag_52\n      jumpi\n      revert(0x00, 0x00)\n    tag_52:\n      pop\n      tag_53\n      tag_54\n      jump\t// in\n    tag_53:\n      mload(0x40)\n      tag_55\n      swap2\n      swap1\n      tag_56\n      jump\t// in\n    tag_55:\n      mload(0x40)\n      dup1\n      swap2\n      sub\n      swap1\n      return\n        /* \"Smart Contracts/18_InsurranceOracle.sol\":95:115  address public owner */\n    tag_12:\n      callvalue\n      dup1\n      iszero\n      tag_57\n      jumpi\n      revert(0x00, 0x00)\n    tag_57:\n      pop\n      tag_58\n      tag_59\n      jump\t// in\n    tag_58:\n      mload(0x40)\n      tag_60\n      swap2\n      swap1\n      tag_56\n      jump\t// in\n    tag_60:\n      mload(0x40)\n      dup1\n      swap2\n      sub\n      swap1\n      return\n        /* \"Smart Contracts/18_InsurranceOracle.sol\":1295:1429  function updateOracleData(uint256 _data) external onlyOracle {... */\n    tag_13:\n      callvalue\n      dup1\n      iszero\n      tag_61\n      jumpi\n      revert(0x00, 0x00)\n    tag_61:\n      pop\n      tag_62\n      0x04\n      dup1\n      calldatasize\n      sub\n      dup2\n      add\n      swap1\n      tag_63\n      swap2\n      swap1\n      tag_20\n      jump\t// in\n    tag_63:\n      tag_64\n      jump\t// in\n    tag_62:\n      stop\n        /* \"Smart Contracts/18_InsurranceOracle.sol\":1984:2092  function withdrawFunds(uint256 amount) external onlyOwner {... */\n    tag_21:\n        /* \"Smart Contracts/18_InsurranceOracle.sol\":605:610  owner */\n      0x00\n      0x00\n      swap1\n      sload\n      swap1\n      0x0100\n      exp\n      swap1\n      div\n      0xffffffffffffffffffffffffffffffffffffffff\n      and\n        /* \"Smart Contracts/18_InsurranceOracle.sol\":591:610  msg.sender == owner */\n      0xffffffffffffffffffffffffffffffffffffffff\n      and\n        /* \"Smart Contracts/18_InsurranceOracle.sol\":591:601  msg.sender */\n      caller\n        /* \"Smart Contracts/18_InsurranceOracle.sol\":591:610  msg.sender == owner */\n      0xffffffffffffffffffffffffffffffffffffffff\n      and\n      eq\n        /* \"Smart Contracts/18_InsurranceOracle.sol\":583:624  require(msg.sender == owner, \"Not owner\") */\n      tag_66\n      jumpi\n      mload(0x40)\n      0x08c379a000000000000000000000000000000000000000000000000000000000\n      dup2\n      mstore\n      0x04\n      add\n      tag_67\n      swap1\n      tag_68\n      jump\t// in\n    tag_67:\n      mload(0x40)\n      dup1\n      swap2\n      sub\n      swap1\n      revert\n    tag_66:\n        /* \"Smart Contracts/18_InsurranceOracle.sol\":2061:2066  owner */\n      0x00\n      0x00\n      swap1\n      sload\n      swap1\n      0x0100\n      exp\n      swap1\n      div\n      0xffffffffffffffffffffffffffffffffffffffff\n      and\n        /* \"Smart Contracts/18_InsurranceOracle.sol\":2053:2076  payable(owner).transfer */\n      0xffffffffffffffffffffffffffffffffffffffff\n      and\n        /* \"Smart Contracts/18_InsurranceOracle.sol\":2053:2084  payable(owner).transfer(amount) */\n      0x08fc\n        /* \"Smart Contracts/18_InsurranceOracle.sol\":2077:2083  amount */\n      dup3\n        /* \"Smart Contracts/18_InsurranceOracle.sol\":2053:2084  payable(owner).transfer(amount) */\n      swap1\n      dup2\n      iszero\n      mul\n      swap1\n      mload(0x40)\n      0x00\n      mload(0x40)\n      dup1\n      dup4\n      sub\n      dup2\n      dup6\n      dup9\n      dup9\n      call\n      swap4\n      pop\n      pop\n      pop\n      pop\n      iszero\n      dup1\n      iszero\n      tag_71\n      jumpi\n      returndatacopy(0x00, 0x00, returndatasize)\n      revert(0x00, returndatasize)\n    tag_71:\n      pop\n        /* \"Smart Contracts/18_InsurranceOracle.sol\":1984:2092  function withdrawFunds(uint256 amount) external onlyOwner {... */\n      pop\n      jump\t// out\n        /* \"Smart Contracts/18_InsurranceOracle.sol\":315:357  mapping(address => Policy) public policies */\n    tag_26:\n      mstore(0x20, 0x03)\n      dup1\n      0x00\n      mstore\n      keccak256(0x00, 0x40)\n      0x00\n      swap2\n      pop\n      swap1\n      pop\n      dup1\n      0x00\n      add\n      sload\n      swap1\n      dup1\n      0x01\n      add\n      sload\n      swap1\n      dup1\n      0x02\n      add\n      0x00\n      swap1\n      sload\n      swap1\n      0x0100\n      exp\n      swap1\n      div\n      0xff\n      and\n      swap1\n      dup1\n      0x02\n      add\n      0x01\n      swap1\n      sload\n      swap1\n      0x0100\n      exp\n      swap1\n      div\n      0xff\n      and\n      swap1\n      pop\n      dup5\n      jump\t// out\n        /* \"Smart Contracts/18_InsurranceOracle.sol\":2100:2211  function getPolicy(address user) external view returns (Policy memory) {... */\n    tag_32:\n        /* \"Smart Contracts/18_InsurranceOracle.sol\":2156:2169  Policy memory */\n      tag_72\n      tag_73\n      jump\t// in\n    tag_72:\n        /* \"Smart Contracts/18_InsurranceOracle.sol\":2189:2197  policies */\n      0x03\n        /* \"Smart Contracts/18_InsurranceOracle.sol\":2189:2203  policies[user] */\n      0x00\n        /* \"Smart Contracts/18_InsurranceOracle.sol\":2198:2202  user */\n      dup4\n        /* \"Smart Contracts/18_InsurranceOracle.sol\":2189:2203  policies[user] */\n      0xffffffffffffffffffffffffffffffffffffffff\n      and\n      0xffffffffffffffffffffffffffffffffffffffff\n      and\n      dup2\n      mstore\n      0x20\n      add\n      swap1\n      dup2\n      mstore\n      0x20\n      add\n      0x00\n      keccak256\n        /* \"Smart Contracts/18_InsurranceOracle.sol\":2182:2203  return policies[user] */\n      mload(0x40)\n      dup1\n      0x80\n      add\n      0x40\n      mstore\n      swap1\n      dup2\n      0x00\n      dup3\n      add\n      sload\n      dup2\n      mstore\n      0x20\n      add\n      0x01\n      dup3\n      add\n      sload\n      dup2\n      mstore\n      0x20\n      add\n      0x02\n      dup3\n      add\n      0x00\n      swap1\n      sload\n      swap1\n      0x0100\n      exp\n      swap1\n      div\n      0xff\n      and\n      iszero\n      iszero\n      iszero\n      iszero\n      dup2\n      mstore\n      0x20\n      add\n      0x02\n      dup3\n      add\n      0x01\n      swap1\n      sload\n      swap1\n      0x0100\n      exp\n      swap1\n      div\n      0xff\n      and\n      iszero\n      iszero\n      iszero\n      iszero\n      dup2\n      mstore\n      pop\n      pop\n      swap1\n      pop\n        /* \"Smart Contracts/18_InsurranceOracle.sol\":2100:2211  function getPolicy(address user) external view returns (Policy memory) {... */\n      swap2\n      swap1\n      pop\n      jump\t// out\n        /* \"Smart Contracts/18_InsurranceOracle.sol\":1437:1878  function claim() external {... */\n    tag_37:\n        /* \"Smart Contracts/18_InsurranceOracle.sol\":1474:1495  Policy storage policy */\n      0x00\n        /* \"Smart Contracts/18_InsurranceOracle.sol\":1498:1506  policies */\n      0x03\n        /* \"Smart Contracts/18_InsurranceOracle.sol\":1498:1518  policies[msg.sender] */\n      0x00\n        /* \"Smart Contracts/18_InsurranceOracle.sol\":1507:1517  msg.sender */\n      caller\n        /* \"Smart Contracts/18_InsurranceOracle.sol\":1498:1518  policies[msg.sender] */\n      0xffffffffffffffffffffffffffffffffffffffff\n      and\n      0xffffffffffffffffffffffffffffffffffffffff\n      and\n      dup2\n      mstore\n      0x20\n      add\n      swap1\n      dup2\n      mstore\n      0x20\n      add\n      0x00\n      keccak256\n        /* \"Smart Contracts/18_InsurranceOracle.sol\":1474:1518  Policy storage policy = policies[msg.sender] */\n      swap1\n      pop\n        /* \"Smart Contracts/18_InsurranceOracle.sol\":1539:1545  policy */\n      dup1\n        /* \"Smart Contracts/18_InsurranceOracle.sol\":1539:1554  policy.isActive */\n      0x02\n      add\n      0x00\n      swap1\n      sload\n      swap1\n      0x0100\n      exp\n      swap1\n      div\n      0xff\n      and\n        /* \"Smart Contracts/18_InsurranceOracle.sol\":1531:1575  require(policy.isActive, \"No active policy\") */\n      tag_76\n      jumpi\n      mload(0x40)\n      0x08c379a000000000000000000000000000000000000000000000000000000000\n      dup2\n      mstore\n      0x04\n      add\n      tag_77\n      swap1\n      tag_78\n      jump\t// in\n    tag_77:\n      mload(0x40)\n      dup1\n      swap2\n      sub\n      swap1\n      revert\n    tag_76:\n        /* \"Smart Contracts/18_InsurranceOracle.sol\":1595:1601  policy */\n      dup1\n        /* \"Smart Contracts/18_InsurranceOracle.sol\":1595:1609  policy.claimed */\n      0x02\n      add\n      0x01\n      swap1\n      sload\n      swap1\n      0x0100\n      exp\n      swap1\n      div\n      0xff\n      and\n        /* \"Smart Contracts/18_InsurranceOracle.sol\":1594:1609  !policy.claimed */\n      iszero\n        /* \"Smart Contracts/18_InsurranceOracle.sol\":1586:1629  require(!policy.claimed, \"Already claimed\") */\n      tag_79\n      jumpi\n      mload(0x40)\n      0x08c379a000000000000000000000000000000000000000000000000000000000\n      dup2\n      mstore\n      0x04\n      add\n      tag_80\n      swap1\n      tag_81\n      jump\t// in\n    tag_80:\n      mload(0x40)\n      dup1\n      swap2\n      sub\n      swap1\n      revert\n    tag_79:\n        /* \"Smart Contracts/18_InsurranceOracle.sol\":1661:1664  100 */\n      0x64\n        /* \"Smart Contracts/18_InsurranceOracle.sol\":1648:1658  oracleData */\n      sload(0x02)\n        /* \"Smart Contracts/18_InsurranceOracle.sol\":1648:1664  oracleData > 100 */\n      gt\n        /* \"Smart Contracts/18_InsurranceOracle.sol\":1640:1692  require(oracleData > 100, \"Claim condition not met\") */\n      tag_82\n      jumpi\n      mload(0x40)\n      0x08c379a000000000000000000000000000000000000000000000000000000000\n      dup2\n      mstore\n      0x04\n      add\n      tag_83\n      swap1\n      tag_84\n      jump\t// in\n    tag_83:\n      mload(0x40)\n      dup1\n      swap2\n      sub\n      swap1\n      revert\n    tag_82:\n        /* \"Smart Contracts/18_InsurranceOracle.sol\":1722:1726  true */\n      0x01\n        /* \"Smart Contracts/18_InsurranceOracle.sol\":1705:1711  policy */\n      dup2\n        /* \"Smart Contracts/18_InsurranceOracle.sol\":1705:1719  policy.claimed */\n      0x02\n      add\n      0x01\n        /* \"Smart Contracts/18_InsurranceOracle.sol\":1705:1726  policy.claimed = true */\n      0x0100\n      exp\n      dup2\n      sload\n      dup2\n      0xff\n      mul\n      not\n      and\n      swap1\n      dup4\n      iszero\n      iszero\n      mul\n      or\n      swap1\n      sstore\n      pop\n        /* \"Smart Contracts/18_InsurranceOracle.sol\":1755:1760  false */\n      0x00\n        /* \"Smart Contracts/18_InsurranceOracle.sol\":1737:1743  policy */\n      dup2\n        /* \"Smart Contracts/18_InsurranceOracle.sol\":1737:1752  policy.isActive */\n      0x02\n      add\n      0x00\n        /* \"Smart Contracts/18_InsurranceOracle.sol\":1737:1760  policy.isActive = false */\n      0x0100\n      exp\n      dup2\n      sload\n      dup2\n      0xff\n      mul\n      not\n      and\n      swap1\n      dup4\n      iszero\n      iszero\n      mul\n      or\n      swap1\n      sstore\n      pop\n        /* \"Smart Contracts/18_InsurranceOracle.sol\":1781:1791  msg.sender */\n      caller\n        /* \"Smart Contracts/18_InsurranceOracle.sol\":1773:1801  payable(msg.sender).transfer */\n      0xffffffffffffffffffffffffffffffffffffffff\n      and\n        /* \"Smart Contracts/18_InsurranceOracle.sol\":1773:1816  payable(msg.sender).transfer(policy.payout) */\n      0x08fc\n        /* \"Smart Contracts/18_InsurranceOracle.sol\":1802:1808  policy */\n      dup3\n        /* \"Smart Contracts/18_InsurranceOracle.sol\":1802:1815  policy.payout */\n      0x01\n      add\n      sload\n        /* \"Smart Contracts/18_InsurranceOracle.sol\":1773:1816  payable(msg.sender).transfer(policy.payout) */\n      swap1\n      dup2\n      iszero\n      mul\n      swap1\n      mload(0x40)\n      0x00\n      mload(0x40)\n      dup1\n      dup4\n      sub\n      dup2\n      dup6\n      dup9\n      dup9\n      call\n      swap4\n      pop\n      pop\n      pop\n      pop\n      iszero\n      dup1\n      iszero\n      tag_86\n      jumpi\n      returndatacopy(0x00, 0x00, returndatasize)\n      revert(0x00, returndatasize)\n    tag_86:\n      pop\n        /* \"Smart Contracts/18_InsurranceOracle.sol\":1844:1854  msg.sender */\n      caller\n        /* \"Smart Contracts/18_InsurranceOracle.sol\":1834:1870  ClaimPaid(msg.sender, policy.payout) */\n      0xffffffffffffffffffffffffffffffffffffffff\n      and\n      0xf42cf8c29487b42c009006cba2a2a0ca0388229f3183e6e957e0a0b163585cb4\n        /* \"Smart Contracts/18_InsurranceOracle.sol\":1856:1862  policy */\n      dup3\n        /* \"Smart Contracts/18_InsurranceOracle.sol\":1856:1869  policy.payout */\n      0x01\n      add\n      sload\n        /* \"Smart Contracts/18_InsurranceOracle.sol\":1834:1870  ClaimPaid(msg.sender, policy.payout) */\n      mload(0x40)\n      tag_87\n      swap2\n      swap1\n      tag_44\n      jump\t// in\n    tag_87:\n      mload(0x40)\n      dup1\n      swap2\n      sub\n      swap1\n      log2\n        /* \"Smart Contracts/18_InsurranceOracle.sol\":1463:1878  {... */\n      pop\n        /* \"Smart Contracts/18_InsurranceOracle.sol\":1437:1878  function claim() external {... */\n      jump\t// out\n        /* \"Smart Contracts/18_InsurranceOracle.sol\":2256:2369  function fundPool() external payable onlyOwner {... */\n    tag_39:\n        /* \"Smart Contracts/18_InsurranceOracle.sol\":605:610  owner */\n      0x00\n      0x00\n      swap1\n      sload\n      swap1\n      0x0100\n      exp\n      swap1\n      div\n      0xffffffffffffffffffffffffffffffffffffffff\n      and\n        /* \"Smart Contracts/18_InsurranceOracle.sol\":591:610  msg.sender == owner */\n      0xffffffffffffffffffffffffffffffffffffffff\n      and\n        /* \"Smart Contracts/18_InsurranceOracle.sol\":591:601  msg.sender */\n      caller\n        /* \"Smart Contracts/18_InsurranceOracle.sol\":591:610  msg.sender == owner */\n      0xffffffffffffffffffffffffffffffffffffffff\n      and\n      eq\n        /* \"Smart Contracts/18_InsurranceOracle.sol\":583:624  require(msg.sender == owner, \"Not owner\") */\n      tag_89\n      jumpi\n      mload(0x40)\n      0x08c379a000000000000000000000000000000000000000000000000000000000\n      dup2\n      mstore\n      0x04\n      add\n      tag_90\n      swap1\n      tag_68\n      jump\t// in\n    tag_90:\n      mload(0x40)\n      dup1\n      swap2\n      sub\n      swap1\n      revert\n    tag_89:\n        /* \"Smart Contracts/18_InsurranceOracle.sol\":2334:2335  0 */\n      0x00\n        /* \"Smart Contracts/18_InsurranceOracle.sol\":2322:2331  msg.value */\n      callvalue\n        /* \"Smart Contracts/18_InsurranceOracle.sol\":2322:2335  msg.value > 0 */\n      gt\n        /* \"Smart Contracts/18_InsurranceOracle.sol\":2314:2361  require(msg.value > 0, \"Send ETH to fund pool\") */\n      tag_92\n      jumpi\n      mload(0x40)\n      0x08c379a000000000000000000000000000000000000000000000000000000000\n      dup2\n      mstore\n      0x04\n      add\n      tag_93\n      swap1\n      tag_94\n      jump\t// in\n    tag_93:\n      mload(0x40)\n      dup1\n      swap2\n      sub\n      swap1\n      revert\n    tag_92:\n        /* \"Smart Contracts/18_InsurranceOracle.sol\":2256:2369  function fundPool() external payable onlyOwner {... */\n      jump\t// out\n        /* \"Smart Contracts/18_InsurranceOracle.sol\":152:177  uint256 public oracleData */\n    tag_42:\n      sload(0x02)\n      dup2\n      jump\t// out\n        /* \"Smart Contracts/18_InsurranceOracle.sol\":857:1287  function buyPolicy(uint256 _payout) external payable {... */\n    tag_47:\n        /* \"Smart Contracts/18_InsurranceOracle.sol\":941:942  0 */\n      0x00\n        /* \"Smart Contracts/18_InsurranceOracle.sol\":929:938  msg.value */\n      callvalue\n        /* \"Smart Contracts/18_InsurranceOracle.sol\":929:942  msg.value > 0 */\n      gt\n        /* \"Smart Contracts/18_InsurranceOracle.sol\":921:963  require(msg.value > 0, \"Premium required\") */\n      tag_96\n      jumpi\n      mload(0x40)\n      0x08c379a000000000000000000000000000000000000000000000000000000000\n      dup2\n      mstore\n      0x04\n      add\n      tag_97\n      swap1\n      tag_98\n      jump\t// in\n    tag_97:\n      mload(0x40)\n      dup1\n      swap2\n      sub\n      swap1\n      revert\n    tag_96:\n        /* \"Smart Contracts/18_InsurranceOracle.sol\":983:991  policies */\n      0x03\n        /* \"Smart Contracts/18_InsurranceOracle.sol\":983:1003  policies[msg.sender] */\n      0x00\n        /* \"Smart Contracts/18_InsurranceOracle.sol\":992:1002  msg.sender */\n      caller\n        /* \"Smart Contracts/18_InsurranceOracle.sol\":983:1003  policies[msg.sender] */\n      0xffffffffffffffffffffffffffffffffffffffff\n      and\n      0xffffffffffffffffffffffffffffffffffffffff\n      and\n      dup2\n      mstore\n      0x20\n      add\n      swap1\n      dup2\n      mstore\n      0x20\n      add\n      0x00\n      keccak256\n        /* \"Smart Contracts/18_InsurranceOracle.sol\":983:1012  policies[msg.sender].isActive */\n      0x02\n      add\n      0x00\n      swap1\n      sload\n      swap1\n      0x0100\n      exp\n      swap1\n      div\n      0xff\n      and\n        /* \"Smart Contracts/18_InsurranceOracle.sol\":982:1012  !policies[msg.sender].isActive */\n      iszero\n        /* \"Smart Contracts/18_InsurranceOracle.sol\":974:1038  require(!policies[msg.sender].isActive, \"Policy already active\") */\n      tag_99\n      jumpi\n      mload(0x40)\n      0x08c379a000000000000000000000000000000000000000000000000000000000\n      dup2\n      mstore\n      0x04\n      add\n      tag_100\n      swap1\n      tag_101\n      jump\t// in\n    tag_100:\n      mload(0x40)\n      dup1\n      swap2\n      sub\n      swap1\n      revert\n    tag_99:\n        /* \"Smart Contracts/18_InsurranceOracle.sol\":1074:1214  Policy({... */\n      mload(0x40)\n      dup1\n      0x80\n      add\n      0x40\n      mstore\n      dup1\n        /* \"Smart Contracts/18_InsurranceOracle.sol\":1105:1114  msg.value */\n      callvalue\n        /* \"Smart Contracts/18_InsurranceOracle.sol\":1074:1214  Policy({... */\n      dup2\n      mstore\n      0x20\n      add\n        /* \"Smart Contracts/18_InsurranceOracle.sol\":1137:1144  _payout */\n      dup3\n        /* \"Smart Contracts/18_InsurranceOracle.sol\":1074:1214  Policy({... */\n      dup2\n      mstore\n      0x20\n      add\n        /* \"Smart Contracts/18_InsurranceOracle.sol\":1169:1173  true */\n      0x01\n        /* \"Smart Contracts/18_InsurranceOracle.sol\":1074:1214  Policy({... */\n      iszero\n      iszero\n      dup2\n      mstore\n      0x20\n      add\n        /* \"Smart Contracts/18_InsurranceOracle.sol\":1197:1202  false */\n      0x00\n        /* \"Smart Contracts/18_InsurranceOracle.sol\":1074:1214  Policy({... */\n      iszero\n      iszero\n      dup2\n      mstore\n      pop\n        /* \"Smart Contracts/18_InsurranceOracle.sol\":1051:1059  policies */\n      0x03\n        /* \"Smart Contracts/18_InsurranceOracle.sol\":1051:1071  policies[msg.sender] */\n      0x00\n        /* \"Smart Contracts/18_InsurranceOracle.sol\":1060:1070  msg.sender */\n      caller\n        /* \"Smart Contracts/18_InsurranceOracle.sol\":1051:1071  policies[msg.sender] */\n      0xffffffffffffffffffffffffffffffffffffffff\n      and\n      0xffffffffffffffffffffffffffffffffffffffff\n      and\n      dup2\n      mstore\n      0x20\n      add\n      swap1\n      dup2\n      mstore\n      0x20\n      add\n      0x00\n      keccak256\n        /* \"Smart Contracts/18_InsurranceOracle.sol\":1051:1214  policies[msg.sender] = Policy({... */\n      0x00\n      dup3\n      add\n      mload\n      dup2\n      0x00\n      add\n      sstore\n      0x20\n      dup3\n      add\n      mload\n      dup2\n      0x01\n      add\n      sstore\n      0x40\n      dup3\n      add\n      mload\n      dup2\n      0x02\n      add\n      exp(0x0100, 0x00)\n      dup2\n      sload\n      dup2\n      0xff\n      mul\n      not\n      and\n      swap1\n      dup4\n      iszero\n      iszero\n      mul\n      or\n      swap1\n      sstore\n      pop\n      0x60\n      dup3\n      add\n      mload\n      dup2\n      0x02\n      add\n      exp(0x0100, 0x01)\n      dup2\n      sload\n      dup2\n      0xff\n      mul\n      not\n      and\n      swap1\n      dup4\n      iszero\n      iszero\n      mul\n      or\n      swap1\n      sstore\n      pop\n      swap1\n      pop\n      pop\n        /* \"Smart Contracts/18_InsurranceOracle.sol\":1248:1258  msg.sender */\n      caller\n        /* \"Smart Contracts/18_InsurranceOracle.sol\":1232:1279  PolicyPurchased(msg.sender, msg.value, _payout) */\n      0xffffffffffffffffffffffffffffffffffffffff\n      and\n      0xe3a4e855ca574024873a64ada77dfdb7f1342b982fbfe29edf24be638f20d398\n        /* \"Smart Contracts/18_InsurranceOracle.sol\":1260:1269  msg.value */\n      callvalue\n        /* \"Smart Contracts/18_InsurranceOracle.sol\":1271:1278  _payout */\n      dup4\n        /* \"Smart Contracts/18_InsurranceOracle.sol\":1232:1279  PolicyPurchased(msg.sender, msg.value, _payout) */\n      mload(0x40)\n      tag_102\n      swap3\n      swap2\n      swap1\n      tag_103\n      jump\t// in\n    tag_102:\n      mload(0x40)\n      dup1\n      swap2\n      sub\n      swap1\n      log2\n        /* \"Smart Contracts/18_InsurranceOracle.sol\":857:1287  function buyPolicy(uint256 _payout) external payable {... */\n      pop\n      jump\t// out\n        /* \"Smart Contracts/18_InsurranceOracle.sol\":1886:1976  function setOracle(address _oracle) external onlyOwner {... */\n    tag_51:\n        /* \"Smart Contracts/18_InsurranceOracle.sol\":605:610  owner */\n      0x00\n      0x00\n      swap1\n      sload\n      swap1\n      0x0100\n      exp\n      swap1\n      div\n      0xffffffffffffffffffffffffffffffffffffffff\n      and\n        /* \"Smart Contracts/18_InsurranceOracle.sol\":591:610  msg.sender == owner */\n      0xffffffffffffffffffffffffffffffffffffffff\n      and\n        /* \"Smart Contracts/18_InsurranceOracle.sol\":591:601  msg.sender */\n      caller\n        /* \"Smart Contracts/18_InsurranceOracle.sol\":591:610  msg.sender == owner */\n      0xffffffffffffffffffffffffffffffffffffffff\n      and\n      eq\n        /* \"Smart Contracts/18_InsurranceOracle.sol\":583:624  require(msg.sender == owner, \"Not owner\") */\n      tag_105\n      jumpi\n      mload(0x40)\n      0x08c379a000000000000000000000000000000000000000000000000000000000\n      dup2\n      mstore\n      0x04\n      add\n      tag_106\n      swap1\n      tag_68\n      jump\t// in\n    tag_106:\n      mload(0x40)\n      dup1\n      swap2\n      sub\n      swap1\n      revert\n    tag_105:\n        /* \"Smart Contracts/18_InsurranceOracle.sol\":1961:1968  _oracle */\n      dup1\n        /* \"Smart Contracts/18_InsurranceOracle.sol\":1952:1958  oracle */\n      0x01\n      0x00\n        /* \"Smart Contracts/18_InsurranceOracle.sol\":1952:1968  oracle = _oracle */\n      0x0100\n      exp\n      dup2\n      sload\n      dup2\n      0xffffffffffffffffffffffffffffffffffffffff\n      mul\n      not\n      and\n      swap1\n      dup4\n      0xffffffffffffffffffffffffffffffffffffffff\n      and\n      mul\n      or\n      swap1\n      sstore\n      pop\n        /* \"Smart Contracts/18_InsurranceOracle.sol\":1886:1976  function setOracle(address _oracle) external onlyOwner {... */\n      pop\n      jump\t// out\n        /* \"Smart Contracts/18_InsurranceOracle.sol\":122:143  address public oracle */\n    tag_54:\n      0x01\n      0x00\n      swap1\n      sload\n      swap1\n      0x0100\n      exp\n      swap1\n      div\n      0xffffffffffffffffffffffffffffffffffffffff\n      and\n      dup2\n      jump\t// out\n        /* \"Smart Contracts/18_InsurranceOracle.sol\":95:115  address public owner */\n    tag_59:\n      0x00\n      0x00\n      swap1\n      sload\n      swap1\n      0x0100\n      exp\n      swap1\n      div\n      0xffffffffffffffffffffffffffffffffffffffff\n      and\n      dup2\n      jump\t// out\n        /* \"Smart Contracts/18_InsurranceOracle.sol\":1295:1429  function updateOracleData(uint256 _data) external onlyOracle {... */\n    tag_64:\n        /* \"Smart Contracts/18_InsurranceOracle.sol\":707:713  oracle */\n      0x01\n      0x00\n      swap1\n      sload\n      swap1\n      0x0100\n      exp\n      swap1\n      div\n      0xffffffffffffffffffffffffffffffffffffffff\n      and\n        /* \"Smart Contracts/18_InsurranceOracle.sol\":693:713  msg.sender == oracle */\n      0xffffffffffffffffffffffffffffffffffffffff\n      and\n        /* \"Smart Contracts/18_InsurranceOracle.sol\":693:703  msg.sender */\n      caller\n        /* \"Smart Contracts/18_InsurranceOracle.sol\":693:713  msg.sender == oracle */\n      0xffffffffffffffffffffffffffffffffffffffff\n      and\n      eq\n        /* \"Smart Contracts/18_InsurranceOracle.sol\":685:728  require(msg.sender == oracle, \"Not oracle\") */\n      tag_109\n      jumpi\n      mload(0x40)\n      0x08c379a000000000000000000000000000000000000000000000000000000000\n      dup2\n      mstore\n      0x04\n      add\n      tag_110\n      swap1\n      tag_111\n      jump\t// in\n    tag_110:\n      mload(0x40)\n      dup1\n      swap2\n      sub\n      swap1\n      revert\n    tag_109:\n        /* \"Smart Contracts/18_InsurranceOracle.sol\":1380:1385  _data */\n      dup1\n        /* \"Smart Contracts/18_InsurranceOracle.sol\":1367:1377  oracleData */\n      0x02\n        /* \"Smart Contracts/18_InsurranceOracle.sol\":1367:1385  oracleData = _data */\n      dup2\n      swap1\n      sstore\n      pop\n        /* \"Smart Contracts/18_InsurranceOracle.sol\":1401:1421  OracleUpdated(_data) */\n      0x1d9f8660b46684cf0620a1aec89ad8da885e41a4f67fd708b483914dda0e66ed\n        /* \"Smart Contracts/18_InsurranceOracle.sol\":1415:1420  _data */\n      dup2\n        /* \"Smart Contracts/18_InsurranceOracle.sol\":1401:1421  OracleUpdated(_data) */\n      mload(0x40)\n      tag_113\n      swap2\n      swap1\n      tag_44\n      jump\t// in\n    tag_113:\n      mload(0x40)\n      dup1\n      swap2\n      sub\n      swap1\n      log1\n        /* \"Smart Contracts/18_InsurranceOracle.sol\":1295:1429  function updateOracleData(uint256 _data) external onlyOracle {... */\n      pop\n      jump\t// out\n    tag_73:\n      mload(0x40)\n      dup1\n      0x80\n      add\n      0x40\n      mstore\n      dup1\n      0x00\n      dup2\n      mstore\n      0x20\n      add\n      0x00\n      dup2\n      mstore\n      0x20\n      add\n      iszero(iszero(0x00))\n      dup2\n      mstore\n      0x20\n      add\n      iszero(iszero(0x00))\n      dup2\n      mstore\n      pop\n      swap1\n      jump\t// out\n        /* \"#utility.yul\":88:205   */\n    tag_115:\n        /* \"#utility.yul\":197:198   */\n      0x00\n        /* \"#utility.yul\":194:195   */\n      0x00\n        /* \"#utility.yul\":187:199   */\n      revert\n        /* \"#utility.yul\":334:411   */\n    tag_117:\n        /* \"#utility.yul\":371:378   */\n      0x00\n        /* \"#utility.yul\":400:405   */\n      dup2\n        /* \"#utility.yul\":389:405   */\n      swap1\n      pop\n        /* \"#utility.yul\":334:411   */\n      swap2\n      swap1\n      pop\n      jump\t// out\n        /* \"#utility.yul\":417:539   */\n    tag_118:\n        /* \"#utility.yul\":490:514   */\n      tag_154\n        /* \"#utility.yul\":508:513   */\n      dup2\n        /* \"#utility.yul\":490:514   */\n      tag_117\n      jump\t// in\n    tag_154:\n        /* \"#utility.yul\":483:488   */\n      dup2\n        /* \"#utility.yul\":480:515   */\n      eq\n        /* \"#utility.yul\":470:533   */\n      tag_155\n      jumpi\n        /* \"#utility.yul\":529:530   */\n      0x00\n        /* \"#utility.yul\":526:527   */\n      0x00\n        /* \"#utility.yul\":519:531   */\n      revert\n        /* \"#utility.yul\":470:533   */\n    tag_155:\n        /* \"#utility.yul\":417:539   */\n      pop\n      jump\t// out\n        /* \"#utility.yul\":545:684   */\n    tag_119:\n        /* \"#utility.yul\":591:596   */\n      0x00\n        /* \"#utility.yul\":629:635   */\n      dup2\n        /* \"#utility.yul\":616:636   */\n      calldataload\n        /* \"#utility.yul\":607:636   */\n      swap1\n      pop\n        /* \"#utility.yul\":645:678   */\n      tag_157\n        /* \"#utility.yul\":672:677   */\n      dup2\n        /* \"#utility.yul\":645:678   */\n      tag_118\n      jump\t// in\n    tag_157:\n        /* \"#utility.yul\":545:684   */\n      swap3\n      swap2\n      pop\n      pop\n      jump\t// out\n        /* \"#utility.yul\":690:1019   */\n    tag_20:\n        /* \"#utility.yul\":749:755   */\n      0x00\n        /* \"#utility.yul\":798:800   */\n      0x20\n        /* \"#utility.yul\":786:795   */\n      dup3\n        /* \"#utility.yul\":777:784   */\n      dup5\n        /* \"#utility.yul\":773:796   */\n      sub\n        /* \"#utility.yul\":769:801   */\n      slt\n        /* \"#utility.yul\":766:885   */\n      iszero\n      tag_159\n      jumpi\n        /* \"#utility.yul\":804:883   */\n      tag_160\n      tag_115\n      jump\t// in\n    tag_160:\n        /* \"#utility.yul\":766:885   */\n    tag_159:\n        /* \"#utility.yul\":924:925   */\n      0x00\n        /* \"#utility.yul\":949:1002   */\n      tag_161\n        /* \"#utility.yul\":994:1001   */\n      dup5\n        /* \"#utility.yul\":985:991   */\n      dup3\n        /* \"#utility.yul\":974:983   */\n      dup6\n        /* \"#utility.yul\":970:992   */\n      add\n        /* \"#utility.yul\":949:1002   */\n      tag_119\n      jump\t// in\n    tag_161:\n        /* \"#utility.yul\":939:1002   */\n      swap2\n      pop\n        /* \"#utility.yul\":895:1012   */\n      pop\n        /* \"#utility.yul\":690:1019   */\n      swap3\n      swap2\n      pop\n      pop\n      jump\t// out\n        /* \"#utility.yul\":1025:1151   */\n    tag_120:\n        /* \"#utility.yul\":1062:1069   */\n      0x00\n        /* \"#utility.yul\":1102:1144   */\n      0xffffffffffffffffffffffffffffffffffffffff\n        /* \"#utility.yul\":1095:1100   */\n      dup3\n        /* \"#utility.yul\":1091:1145   */\n      and\n        /* \"#utility.yul\":1080:1145   */\n      swap1\n      pop\n        /* \"#utility.yul\":1025:1151   */\n      swap2\n      swap1\n      pop\n      jump\t// out\n        /* \"#utility.yul\":1157:1253   */\n    tag_121:\n        /* \"#utility.yul\":1194:1201   */\n      0x00\n        /* \"#utility.yul\":1223:1247   */\n      tag_164\n        /* \"#utility.yul\":1241:1246   */\n      dup3\n        /* \"#utility.yul\":1223:1247   */\n      tag_120\n      jump\t// in\n    tag_164:\n        /* \"#utility.yul\":1212:1247   */\n      swap1\n      pop\n        /* \"#utility.yul\":1157:1253   */\n      swap2\n      swap1\n      pop\n      jump\t// out\n        /* \"#utility.yul\":1259:1381   */\n    tag_122:\n        /* \"#utility.yul\":1332:1356   */\n      tag_166\n        /* \"#utility.yul\":1350:1355   */\n      dup2\n        /* \"#utility.yul\":1332:1356   */\n      tag_121\n      jump\t// in\n    tag_166:\n        /* \"#utility.yul\":1325:1330   */\n      dup2\n        /* \"#utility.yul\":1322:1357   */\n      eq\n        /* \"#utility.yul\":1312:1375   */\n      tag_167\n      jumpi\n        /* \"#utility.yul\":1371:1372   */\n      0x00\n        /* \"#utility.yul\":1368:1369   */\n      0x00\n        /* \"#utility.yul\":1361:1373   */\n      revert\n        /* \"#utility.yul\":1312:1375   */\n    tag_167:\n        /* \"#utility.yul\":1259:1381   */\n      pop\n      jump\t// out\n        /* \"#utility.yul\":1387:1526   */\n    tag_123:\n        /* \"#utility.yul\":1433:1438   */\n      0x00\n        /* \"#utility.yul\":1471:1477   */\n      dup2\n        /* \"#utility.yul\":1458:1478   */\n      calldataload\n        /* \"#utility.yul\":1449:1478   */\n      swap1\n      pop\n        /* \"#utility.yul\":1487:1520   */\n      tag_169\n        /* \"#utility.yul\":1514:1519   */\n      dup2\n        /* \"#utility.yul\":1487:1520   */\n      tag_122\n      jump\t// in\n    tag_169:\n        /* \"#utility.yul\":1387:1526   */\n      swap3\n      swap2\n      pop\n      pop\n      jump\t// out\n        /* \"#utility.yul\":1532:1861   */\n    tag_25:\n        /* \"#utility.yul\":1591:1597   */\n      0x00\n        /* \"#utility.yul\":1640:1642   */\n      0x20\n        /* \"#utility.yul\":1628:1637   */\n      dup3\n        /* \"#utility.yul\":1619:1626   */\n      dup5\n        /* \"#utility.yul\":1615:1638   */\n      sub\n        /* \"#utility.yul\":1611:1643   */\n      slt\n        /* \"#utility.yul\":1608:1727   */\n      iszero\n      tag_171\n      jumpi\n        /* \"#utility.yul\":1646:1725   */\n      tag_172\n      tag_115\n      jump\t// in\n    tag_172:\n        /* \"#utility.yul\":1608:1727   */\n    tag_171:\n        /* \"#utility.yul\":1766:1767   */\n      0x00\n        /* \"#utility.yul\":1791:1844   */\n      tag_173\n        /* \"#utility.yul\":1836:1843   */\n      dup5\n        /* \"#utility.yul\":1827:1833   */\n      dup3\n        /* \"#utility.yul\":1816:1825   */\n      dup6\n        /* \"#utility.yul\":1812:1834   */\n      add\n        /* \"#utility.yul\":1791:1844   */\n      tag_123\n      jump\t// in\n    tag_173:\n        /* \"#utility.yul\":1781:1844   */\n      swap2\n      pop\n        /* \"#utility.yul\":1737:1854   */\n      pop\n        /* \"#utility.yul\":1532:1861   */\n      swap3\n      swap2\n      pop\n      pop\n      jump\t// out\n        /* \"#utility.yul\":1867:1985   */\n    tag_124:\n        /* \"#utility.yul\":1954:1978   */\n      tag_175\n        /* \"#utility.yul\":1972:1977   */\n      dup2\n        /* \"#utility.yul\":1954:1978   */\n      tag_117\n      jump\t// in\n    tag_175:\n        /* \"#utility.yul\":1949:1952   */\n      dup3\n        /* \"#utility.yul\":1942:1979   */\n      mstore\n        /* \"#utility.yul\":1867:1985   */\n      pop\n      pop\n      jump\t// out\n        /* \"#utility.yul\":1991:2081   */\n    tag_125:\n        /* \"#utility.yul\":2025:2032   */\n      0x00\n        /* \"#utility.yul\":2068:2073   */\n      dup2\n        /* \"#utility.yul\":2061:2074   */\n      iszero\n        /* \"#utility.yul\":2054:2075   */\n      iszero\n        /* \"#utility.yul\":2043:2075   */\n      swap1\n      pop\n        /* \"#utility.yul\":1991:2081   */\n      swap2\n      swap1\n      pop\n      jump\t// out\n        /* \"#utility.yul\":2087:2196   */\n    tag_126:\n        /* \"#utility.yul\":2168:2189   */\n      tag_178\n        /* \"#utility.yul\":2183:2188   */\n      dup2\n        /* \"#utility.yul\":2168:2189   */\n      tag_125\n      jump\t// in\n    tag_178:\n        /* \"#utility.yul\":2163:2166   */\n      dup3\n        /* \"#utility.yul\":2156:2190   */\n      mstore\n        /* \"#utility.yul\":2087:2196   */\n      pop\n      pop\n      jump\t// out\n        /* \"#utility.yul\":2202:2731   */\n    tag_28:\n        /* \"#utility.yul\":2367:2371   */\n      0x00\n        /* \"#utility.yul\":2405:2408   */\n      0x80\n        /* \"#utility.yul\":2394:2403   */\n      dup3\n        /* \"#utility.yul\":2390:2409   */\n      add\n        /* \"#utility.yul\":2382:2409   */\n      swap1\n      pop\n        /* \"#utility.yul\":2419:2490   */\n      tag_180\n        /* \"#utility.yul\":2487:2488   */\n      0x00\n        /* \"#utility.yul\":2476:2485   */\n      dup4\n        /* \"#utility.yul\":2472:2489   */\n      add\n        /* \"#utility.yul\":2463:2469   */\n      dup8\n        /* \"#utility.yul\":2419:2490   */\n      tag_124\n      jump\t// in\n    tag_180:\n        /* \"#utility.yul\":2500:2572   */\n      tag_181\n        /* \"#utility.yul\":2568:2570   */\n      0x20\n        /* \"#utility.yul\":2557:2566   */\n      dup4\n        /* \"#utility.yul\":2553:2571   */\n      add\n        /* \"#utility.yul\":2544:2550   */\n      dup7\n        /* \"#utility.yul\":2500:2572   */\n      tag_124\n      jump\t// in\n    tag_181:\n        /* \"#utility.yul\":2582:2648   */\n      tag_182\n        /* \"#utility.yul\":2644:2646   */\n      0x40\n        /* \"#utility.yul\":2633:2642   */\n      dup4\n        /* \"#utility.yul\":2629:2647   */\n      add\n        /* \"#utility.yul\":2620:2626   */\n      dup6\n        /* \"#utility.yul\":2582:2648   */\n      tag_126\n      jump\t// in\n    tag_182:\n        /* \"#utility.yul\":2658:2724   */\n      tag_183\n        /* \"#utility.yul\":2720:2722   */\n      0x60\n        /* \"#utility.yul\":2709:2718   */\n      dup4\n        /* \"#utility.yul\":2705:2723   */\n      add\n        /* \"#utility.yul\":2696:2702   */\n      dup5\n        /* \"#utility.yul\":2658:2724   */\n      tag_126\n      jump\t// in\n    tag_183:\n        /* \"#utility.yul\":2202:2731   */\n      swap6\n      swap5\n      pop\n      pop\n      pop\n      pop\n      pop\n      jump\t// out\n        /* \"#utility.yul\":2737:2845   */\n    tag_127:\n        /* \"#utility.yul\":2814:2838   */\n      tag_185\n        /* \"#utility.yul\":2832:2837   */\n      dup2\n        /* \"#utility.yul\":2814:2838   */\n      tag_117\n      jump\t// in\n    tag_185:\n        /* \"#utility.yul\":2809:2812   */\n      dup3\n        /* \"#utility.yul\":2802:2839   */\n      mstore\n        /* \"#utility.yul\":2737:2845   */\n      pop\n      pop\n      jump\t// out\n        /* \"#utility.yul\":2851:2950   */\n    tag_128:\n        /* \"#utility.yul\":2922:2943   */\n      tag_187\n        /* \"#utility.yul\":2937:2942   */\n      dup2\n        /* \"#utility.yul\":2922:2943   */\n      tag_125\n      jump\t// in\n    tag_187:\n        /* \"#utility.yul\":2917:2920   */\n      dup3\n        /* \"#utility.yul\":2910:2944   */\n      mstore\n        /* \"#utility.yul\":2851:2950   */\n      pop\n      pop\n      jump\t// out\n        /* \"#utility.yul\":3026:3875   */\n    tag_129:\n        /* \"#utility.yul\":3167:3171   */\n      0x80\n        /* \"#utility.yul\":3162:3165   */\n      dup3\n        /* \"#utility.yul\":3158:3172   */\n      add\n        /* \"#utility.yul\":3257:3261   */\n      0x00\n        /* \"#utility.yul\":3250:3255   */\n      dup3\n        /* \"#utility.yul\":3246:3262   */\n      add\n        /* \"#utility.yul\":3240:3263   */\n      mload\n        /* \"#utility.yul\":3276:3339   */\n      tag_189\n        /* \"#utility.yul\":3333:3337   */\n      0x00\n        /* \"#utility.yul\":3328:3331   */\n      dup6\n        /* \"#utility.yul\":3324:3338   */\n      add\n        /* \"#utility.yul\":3310:3322   */\n      dup3\n        /* \"#utility.yul\":3276:3339   */\n      tag_127\n      jump\t// in\n    tag_189:\n        /* \"#utility.yul\":3182:3349   */\n      pop\n        /* \"#utility.yul\":3433:3437   */\n      0x20\n        /* \"#utility.yul\":3426:3431   */\n      dup3\n        /* \"#utility.yul\":3422:3438   */\n      add\n        /* \"#utility.yul\":3416:3439   */\n      mload\n        /* \"#utility.yul\":3452:3515   */\n      tag_190\n        /* \"#utility.yul\":3509:3513   */\n      0x20\n        /* \"#utility.yul\":3504:3507   */\n      dup6\n        /* \"#utility.yul\":3500:3514   */\n      add\n        /* \"#utility.yul\":3486:3498   */\n      dup3\n        /* \"#utility.yul\":3452:3515   */\n      tag_127\n      jump\t// in\n    tag_190:\n        /* \"#utility.yul\":3359:3525   */\n      pop\n        /* \"#utility.yul\":3611:3615   */\n      0x40\n        /* \"#utility.yul\":3604:3609   */\n      dup3\n        /* \"#utility.yul\":3600:3616   */\n      add\n        /* \"#utility.yul\":3594:3617   */\n      mload\n        /* \"#utility.yul\":3630:3687   */\n      tag_191\n        /* \"#utility.yul\":3681:3685   */\n      0x40\n        /* \"#utility.yul\":3676:3679   */\n      dup6\n        /* \"#utility.yul\":3672:3686   */\n      add\n        /* \"#utility.yul\":3658:3670   */\n      dup3\n        /* \"#utility.yul\":3630:3687   */\n      tag_128\n      jump\t// in\n    tag_191:\n        /* \"#utility.yul\":3535:3697   */\n      pop\n        /* \"#utility.yul\":3782:3786   */\n      0x60\n        /* \"#utility.yul\":3775:3780   */\n      dup3\n        /* \"#utility.yul\":3771:3787   */\n      add\n        /* \"#utility.yul\":3765:3788   */\n      mload\n        /* \"#utility.yul\":3801:3858   */\n      tag_192\n        /* \"#utility.yul\":3852:3856   */\n      0x60\n        /* \"#utility.yul\":3847:3850   */\n      dup6\n        /* \"#utility.yul\":3843:3857   */\n      add\n        /* \"#utility.yul\":3829:3841   */\n      dup3\n        /* \"#utility.yul\":3801:3858   */\n      tag_128\n      jump\t// in\n    tag_192:\n        /* \"#utility.yul\":3707:3868   */\n      pop\n        /* \"#utility.yul\":3136:3875   */\n      pop\n        /* \"#utility.yul\":3026:3875   */\n      pop\n      pop\n      jump\t// out\n        /* \"#utility.yul\":3881:4192   */\n    tag_34:\n        /* \"#utility.yul\":4018:4022   */\n      0x00\n        /* \"#utility.yul\":4056:4059   */\n      0x80\n        /* \"#utility.yul\":4045:4054   */\n      dup3\n        /* \"#utility.yul\":4041:4060   */\n      add\n        /* \"#utility.yul\":4033:4060   */\n      swap1\n      pop\n        /* \"#utility.yul\":4070:4185   */\n      tag_194\n        /* \"#utility.yul\":4182:4183   */\n      0x00\n        /* \"#utility.yul\":4171:4180   */\n      dup4\n        /* \"#utility.yul\":4167:4184   */\n      add\n        /* \"#utility.yul\":4158:4164   */\n      dup5\n        /* \"#utility.yul\":4070:4185   */\n      tag_129\n      jump\t// in\n    tag_194:\n        /* \"#utility.yul\":3881:4192   */\n      swap3\n      swap2\n      pop\n      pop\n      jump\t// out\n        /* \"#utility.yul\":4198:4420   */\n    tag_44:\n        /* \"#utility.yul\":4291:4295   */\n      0x00\n        /* \"#utility.yul\":4329:4331   */\n      0x20\n        /* \"#utility.yul\":4318:4327   */\n      dup3\n        /* \"#utility.yul\":4314:4332   */\n      add\n        /* \"#utility.yul\":4306:4332   */\n      swap1\n      pop\n        /* \"#utility.yul\":4342:4413   */\n      tag_196\n        /* \"#utility.yul\":4410:4411   */\n      0x00\n        /* \"#utility.yul\":4399:4408   */\n      dup4\n        /* \"#utility.yul\":4395:4412   */\n      add\n        /* \"#utility.yul\":4386:4392   */\n      dup5\n        /* \"#utility.yul\":4342:4413   */\n      tag_124\n      jump\t// in\n    tag_196:\n        /* \"#utility.yul\":4198:4420   */\n      swap3\n      swap2\n      pop\n      pop\n      jump\t// out\n        /* \"#utility.yul\":4426:4544   */\n    tag_130:\n        /* \"#utility.yul\":4513:4537   */\n      tag_198\n        /* \"#utility.yul\":4531:4536   */\n      dup2\n        /* \"#utility.yul\":4513:4537   */\n      tag_121\n      jump\t// in\n    tag_198:\n        /* \"#utility.yul\":4508:4511   */\n      dup3\n        /* \"#utility.yul\":4501:4538   */\n      mstore\n        /* \"#utility.yul\":4426:4544   */\n      pop\n      pop\n      jump\t// out\n        /* \"#utility.yul\":4550:4772   */\n    tag_56:\n        /* \"#utility.yul\":4643:4647   */\n      0x00\n        /* \"#utility.yul\":4681:4683   */\n      0x20\n        /* \"#utility.yul\":4670:4679   */\n      dup3\n        /* \"#utility.yul\":4666:4684   */\n      add\n        /* \"#utility.yul\":4658:4684   */\n      swap1\n      pop\n        /* \"#utility.yul\":4694:4765   */\n      tag_200\n        /* \"#utility.yul\":4762:4763   */\n      0x00\n        /* \"#utility.yul\":4751:4760   */\n      dup4\n        /* \"#utility.yul\":4747:4764   */\n      add\n        /* \"#utility.yul\":4738:4744   */\n      dup5\n        /* \"#utility.yul\":4694:4765   */\n      tag_130\n      jump\t// in\n    tag_200:\n        /* \"#utility.yul\":4550:4772   */\n      swap3\n      swap2\n      pop\n      pop\n      jump\t// out\n        /* \"#utility.yul\":4778:4947   */\n    tag_131:\n        /* \"#utility.yul\":4862:4873   */\n      0x00\n        /* \"#utility.yul\":4896:4902   */\n      dup3\n        /* \"#utility.yul\":4891:4894   */\n      dup3\n        /* \"#utility.yul\":4884:4903   */\n      mstore\n        /* \"#utility.yul\":4936:4940   */\n      0x20\n        /* \"#utility.yul\":4931:4934   */\n      dup3\n        /* \"#utility.yul\":4927:4941   */\n      add\n        /* \"#utility.yul\":4912:4941   */\n      swap1\n      pop\n        /* \"#utility.yul\":4778:4947   */\n      swap3\n      swap2\n      pop\n      pop\n      jump\t// out\n        /* \"#utility.yul\":4953:5112   */\n    tag_132:\n        /* \"#utility.yul\":5093:5104   */\n      0x4e6f74206f776e65720000000000000000000000000000000000000000000000\n        /* \"#utility.yul\":5089:5090   */\n      0x00\n        /* \"#utility.yul\":5081:5087   */\n      dup3\n        /* \"#utility.yul\":5077:5091   */\n      add\n        /* \"#utility.yul\":5070:5105   */\n      mstore\n        /* \"#utility.yul\":4953:5112   */\n      pop\n      jump\t// out\n        /* \"#utility.yul\":5118:5483   */\n    tag_133:\n        /* \"#utility.yul\":5260:5263   */\n      0x00\n        /* \"#utility.yul\":5281:5347   */\n      tag_204\n        /* \"#utility.yul\":5345:5346   */\n      0x09\n        /* \"#utility.yul\":5340:5343   */\n      dup4\n        /* \"#utility.yul\":5281:5347   */\n      tag_131\n      jump\t// in\n    tag_204:\n        /* \"#utility.yul\":5274:5347   */\n      swap2\n      pop\n        /* \"#utility.yul\":5356:5449   */\n      tag_205\n        /* \"#utility.yul\":5445:5448   */\n      dup3\n        /* \"#utility.yul\":5356:5449   */\n      tag_132\n      jump\t// in\n    tag_205:\n        /* \"#utility.yul\":5474:5476   */\n      0x20\n        /* \"#utility.yul\":5469:5472   */\n      dup3\n        /* \"#utility.yul\":5465:5477   */\n      add\n        /* \"#utility.yul\":5458:5477   */\n      swap1\n      pop\n        /* \"#utility.yul\":5118:5483   */\n      swap2\n      swap1\n      pop\n      jump\t// out\n        /* \"#utility.yul\":5489:5908   */\n    tag_68:\n        /* \"#utility.yul\":5655:5659   */\n      0x00\n        /* \"#utility.yul\":5693:5695   */\n      0x20\n        /* \"#utility.yul\":5682:5691   */\n      dup3\n        /* \"#utility.yul\":5678:5696   */\n      add\n        /* \"#utility.yul\":5670:5696   */\n      swap1\n      pop\n        /* \"#utility.yul\":5742:5751   */\n      dup2\n        /* \"#utility.yul\":5736:5740   */\n      dup2\n        /* \"#utility.yul\":5732:5752   */\n      sub\n        /* \"#utility.yul\":5728:5729   */\n      0x00\n        /* \"#utility.yul\":5717:5726   */\n      dup4\n        /* \"#utility.yul\":5713:5730   */\n      add\n        /* \"#utility.yul\":5706:5753   */\n      mstore\n        /* \"#utility.yul\":5770:5901   */\n      tag_207\n        /* \"#utility.yul\":5896:5900   */\n      dup2\n        /* \"#utility.yul\":5770:5901   */\n      tag_133\n      jump\t// in\n    tag_207:\n        /* \"#utility.yul\":5762:5901   */\n      swap1\n      pop\n        /* \"#utility.yul\":5489:5908   */\n      swap2\n      swap1\n      pop\n      jump\t// out\n        /* \"#utility.yul\":5914:6080   */\n    tag_134:\n        /* \"#utility.yul\":6054:6072   */\n      0x4e6f2061637469766520706f6c69637900000000000000000000000000000000\n        /* \"#utility.yul\":6050:6051   */\n      0x00\n        /* \"#utility.yul\":6042:6048   */\n      dup3\n        /* \"#utility.yul\":6038:6052   */\n      add\n        /* \"#utility.yul\":6031:6073   */\n      mstore\n        /* \"#utility.yul\":5914:6080   */\n      pop\n      jump\t// out\n        /* \"#utility.yul\":6086:6452   */\n    tag_135:\n        /* \"#utility.yul\":6228:6231   */\n      0x00\n        /* \"#utility.yul\":6249:6316   */\n      tag_210\n        /* \"#utility.yul\":6313:6315   */\n      0x10\n        /* \"#utility.yul\":6308:6311   */\n      dup4\n        /* \"#utility.yul\":6249:6316   */\n      tag_131\n      jump\t// in\n    tag_210:\n        /* \"#utility.yul\":6242:6316   */\n      swap2\n      pop\n        /* \"#utility.yul\":6325:6418   */\n      tag_211\n        /* \"#utility.yul\":6414:6417   */\n      dup3\n        /* \"#utility.yul\":6325:6418   */\n      tag_134\n      jump\t// in\n    tag_211:\n        /* \"#utility.yul\":6443:6445   */\n      0x20\n        /* \"#utility.yul\":6438:6441   */\n      dup3\n        /* \"#utility.yul\":6434:6446   */\n      add\n        /* \"#utility.yul\":6427:6446   */\n      swap1\n      pop\n        /* \"#utility.yul\":6086:6452   */\n      swap2\n      swap1\n      pop\n      jump\t// out\n        /* \"#utility.yul\":6458:6877   */\n    tag_78:\n        /* \"#utility.yul\":6624:6628   */\n      0x00\n        /* \"#utility.yul\":6662:6664   */\n      0x20\n        /* \"#utility.yul\":6651:6660   */\n      dup3\n        /* \"#utility.yul\":6647:6665   */\n      add\n        /* \"#utility.yul\":6639:6665   */\n      swap1\n      pop\n        /* \"#utility.yul\":6711:6720   */\n      dup2\n        /* \"#utility.yul\":6705:6709   */\n      dup2\n        /* \"#utility.yul\":6701:6721   */\n      sub\n        /* \"#utility.yul\":6697:6698   */\n      0x00\n        /* \"#utility.yul\":6686:6695   */\n      dup4\n        /* \"#utility.yul\":6682:6699   */\n      add\n        /* \"#utility.yul\":6675:6722   */\n      mstore\n        /* \"#utility.yul\":6739:6870   */\n      tag_213\n        /* \"#utility.yul\":6865:6869   */\n      dup2\n        /* \"#utility.yul\":6739:6870   */\n      tag_135\n      jump\t// in\n    tag_213:\n        /* \"#utility.yul\":6731:6870   */\n      swap1\n      pop\n        /* \"#utility.yul\":6458:6877   */\n      swap2\n      swap1\n      pop\n      jump\t// out\n        /* \"#utility.yul\":6883:7048   */\n    tag_136:\n        /* \"#utility.yul\":7023:7040   */\n      0x416c726561647920636c61696d65640000000000000000000000000000000000\n        /* \"#utility.yul\":7019:7020   */\n      0x00\n        /* \"#utility.yul\":7011:7017   */\n      dup3\n        /* \"#utility.yul\":7007:7021   */\n      add\n        /* \"#utility.yul\":7000:7041   */\n      mstore\n        /* \"#utility.yul\":6883:7048   */\n      pop\n      jump\t// out\n        /* \"#utility.yul\":7054:7420   */\n    tag_137:\n        /* \"#utility.yul\":7196:7199   */\n      0x00\n        /* \"#utility.yul\":7217:7284   */\n      tag_216\n        /* \"#utility.yul\":7281:7283   */\n      0x0f\n        /* \"#utility.yul\":7276:7279   */\n      dup4\n        /* \"#utility.yul\":7217:7284   */\n      tag_131\n      jump\t// in\n    tag_216:\n        /* \"#utility.yul\":7210:7284   */\n      swap2\n      pop\n        /* \"#utility.yul\":7293:7386   */\n      tag_217\n        /* \"#utility.yul\":7382:7385   */\n      dup3\n        /* \"#utility.yul\":7293:7386   */\n      tag_136\n      jump\t// in\n    tag_217:\n        /* \"#utility.yul\":7411:7413   */\n      0x20\n        /* \"#utility.yul\":7406:7409   */\n      dup3\n        /* \"#utility.yul\":7402:7414   */\n      add\n        /* \"#utility.yul\":7395:7414   */\n      swap1\n      pop\n        /* \"#utility.yul\":7054:7420   */\n      swap2\n      swap1\n      pop\n      jump\t// out\n        /* \"#utility.yul\":7426:7845   */\n    tag_81:\n        /* \"#utility.yul\":7592:7596   */\n      0x00\n        /* \"#utility.yul\":7630:7632   */\n      0x20\n        /* \"#utility.yul\":7619:7628   */\n      dup3\n        /* \"#utility.yul\":7615:7633   */\n      add\n        /* \"#utility.yul\":7607:7633   */\n      swap1\n      pop\n        /* \"#utility.yul\":7679:7688   */\n      dup2\n        /* \"#utility.yul\":7673:7677   */\n      dup2\n        /* \"#utility.yul\":7669:7689   */\n      sub\n        /* \"#utility.yul\":7665:7666   */\n      0x00\n        /* \"#utility.yul\":7654:7663   */\n      dup4\n        /* \"#utility.yul\":7650:7667   */\n      add\n        /* \"#utility.yul\":7643:7690   */\n      mstore\n        /* \"#utility.yul\":7707:7838   */\n      tag_219\n        /* \"#utility.yul\":7833:7837   */\n      dup2\n        /* \"#utility.yul\":7707:7838   */\n      tag_137\n      jump\t// in\n    tag_219:\n        /* \"#utility.yul\":7699:7838   */\n      swap1\n      pop\n        /* \"#utility.yul\":7426:7845   */\n      swap2\n      swap1\n      pop\n      jump\t// out\n        /* \"#utility.yul\":7851:8024   */\n    tag_138:\n        /* \"#utility.yul\":7991:8016   */\n      0x436c61696d20636f6e646974696f6e206e6f74206d6574000000000000000000\n        /* \"#utility.yul\":7987:7988   */\n      0x00\n        /* \"#utility.yul\":7979:7985   */\n      dup3\n        /* \"#utility.yul\":7975:7989   */\n      add\n        /* \"#utility.yul\":7968:8017   */\n      mstore\n        /* \"#utility.yul\":7851:8024   */\n      pop\n      jump\t// out\n        /* \"#utility.yul\":8030:8396   */\n    tag_139:\n        /* \"#utility.yul\":8172:8175   */\n      0x00\n        /* \"#utility.yul\":8193:8260   */\n      tag_222\n        /* \"#utility.yul\":8257:8259   */\n      0x17\n        /* \"#utility.yul\":8252:8255   */\n      dup4\n        /* \"#utility.yul\":8193:8260   */\n      tag_131\n      jump\t// in\n    tag_222:\n        /* \"#utility.yul\":8186:8260   */\n      swap2\n      pop\n        /* \"#utility.yul\":8269:8362   */\n      tag_223\n        /* \"#utility.yul\":8358:8361   */\n      dup3\n        /* \"#utility.yul\":8269:8362   */\n      tag_138\n      jump\t// in\n    tag_223:\n        /* \"#utility.yul\":8387:8389   */\n      0x20\n        /* \"#utility.yul\":8382:8385   */\n      dup3\n        /* \"#utility.yul\":8378:8390   */\n      add\n        /* \"#utility.yul\":8371:8390   */\n      swap1\n      pop\n        /* \"#utility.yul\":8030:8396   */\n      swap2\n      swap1\n      pop\n      jump\t// out\n        /* \"#utility.yul\":8402:8821   */\n    tag_84:\n        /* \"#utility.yul\":8568:8572   */\n      0x00\n        /* \"#utility.yul\":8606:8608   */\n      0x20\n        /* \"#utility.yul\":8595:8604   */\n      dup3\n        /* \"#utility.yul\":8591:8609   */\n      add\n        /* \"#utility.yul\":8583:8609   */\n      swap1\n      pop\n        /* \"#utility.yul\":8655:8664   */\n      dup2\n        /* \"#utility.yul\":8649:8653   */\n      dup2\n        /* \"#utility.yul\":8645:8665   */\n      sub\n        /* \"#utility.yul\":8641:8642   */\n      0x00\n        /* \"#utility.yul\":8630:8639   */\n      dup4\n        /* \"#utility.yul\":8626:8643   */\n      add\n        /* \"#utility.yul\":8619:8666   */\n      mstore\n        /* \"#utility.yul\":8683:8814   */\n      tag_225\n        /* \"#utility.yul\":8809:8813   */\n      dup2\n        /* \"#utility.yul\":8683:8814   */\n      tag_139\n      jump\t// in\n    tag_225:\n        /* \"#utility.yul\":8675:8814   */\n      swap1\n      pop\n        /* \"#utility.yul\":8402:8821   */\n      swap2\n      swap1\n      pop\n      jump\t// out\n        /* \"#utility.yul\":8827:8998   */\n    tag_140:\n        /* \"#utility.yul\":8967:8990   */\n      0x53656e642045544820746f2066756e6420706f6f6c0000000000000000000000\n        /* \"#utility.yul\":8963:8964   */\n      0x00\n        /* \"#utility.yul\":8955:8961   */\n      dup3\n        /* \"#utility.yul\":8951:8965   */\n      add\n        /* \"#utility.yul\":8944:8991   */\n      mstore\n        /* \"#utility.yul\":8827:8998   */\n      pop\n      jump\t// out\n        /* \"#utility.yul\":9004:9370   */\n    tag_141:\n        /* \"#utility.yul\":9146:9149   */\n      0x00\n        /* \"#utility.yul\":9167:9234   */\n      tag_228\n        /* \"#utility.yul\":9231:9233   */\n      0x15\n        /* \"#utility.yul\":9226:9229   */\n      dup4\n        /* \"#utility.yul\":9167:9234   */\n      tag_131\n      jump\t// in\n    tag_228:\n        /* \"#utility.yul\":9160:9234   */\n      swap2\n      pop\n        /* \"#utility.yul\":9243:9336   */\n      tag_229\n        /* \"#utility.yul\":9332:9335   */\n      dup3\n        /* \"#utility.yul\":9243:9336   */\n      tag_140\n      jump\t// in\n    tag_229:\n        /* \"#utility.yul\":9361:9363   */\n      0x20\n        /* \"#utility.yul\":9356:9359   */\n      dup3\n        /* \"#utility.yul\":9352:9364   */\n      add\n        /* \"#utility.yul\":9345:9364   */\n      swap1\n      pop\n        /* \"#utility.yul\":9004:9370   */\n      swap2\n      swap1\n      pop\n      jump\t// out\n        /* \"#utility.yul\":9376:9795   */\n    tag_94:\n        /* \"#utility.yul\":9542:9546   */\n      0x00\n        /* \"#utility.yul\":9580:9582   */\n      0x20\n        /* \"#utility.yul\":9569:9578   */\n      dup3\n        /* \"#utility.yul\":9565:9583   */\n      add\n        /* \"#utility.yul\":9557:9583   */\n      swap1\n      pop\n        /* \"#utility.yul\":9629:9638   */\n      dup2\n        /* \"#utility.yul\":9623:9627   */\n      dup2\n        /* \"#utility.yul\":9619:9639   */\n      sub\n        /* \"#utility.yul\":9615:9616   */\n      0x00\n        /* \"#utility.yul\":9604:9613   */\n      dup4\n        /* \"#utility.yul\":9600:9617   */\n      add\n        /* \"#utility.yul\":9593:9640   */\n      mstore\n        /* \"#utility.yul\":9657:9788   */\n      tag_231\n        /* \"#utility.yul\":9783:9787   */\n      dup2\n        /* \"#utility.yul\":9657:9788   */\n      tag_141\n      jump\t// in\n    tag_231:\n        /* \"#utility.yul\":9649:9788   */\n      swap1\n      pop\n        /* \"#utility.yul\":9376:9795   */\n      swap2\n      swap1\n      pop\n      jump\t// out\n        /* \"#utility.yul\":9801:9967   */\n    tag_142:\n        /* \"#utility.yul\":9941:9959   */\n      0x5072656d69756d20726571756972656400000000000000000000000000000000\n        /* \"#utility.yul\":9937:9938   */\n      0x00\n        /* \"#utility.yul\":9929:9935   */\n      dup3\n        /* \"#utility.yul\":9925:9939   */\n      add\n        /* \"#utility.yul\":9918:9960   */\n      mstore\n        /* \"#utility.yul\":9801:9967   */\n      pop\n      jump\t// out\n        /* \"#utility.yul\":9973:10339   */\n    tag_143:\n        /* \"#utility.yul\":10115:10118   */\n      0x00\n        /* \"#utility.yul\":10136:10203   */\n      tag_234\n        /* \"#utility.yul\":10200:10202   */\n      0x10\n        /* \"#utility.yul\":10195:10198   */\n      dup4\n        /* \"#utility.yul\":10136:10203   */\n      tag_131\n      jump\t// in\n    tag_234:\n        /* \"#utility.yul\":10129:10203   */\n      swap2\n      pop\n        /* \"#utility.yul\":10212:10305   */\n      tag_235\n        /* \"#utility.yul\":10301:10304   */\n      dup3\n        /* \"#utility.yul\":10212:10305   */\n      tag_142\n      jump\t// in\n    tag_235:\n        /* \"#utility.yul\":10330:10332   */\n      0x20\n        /* \"#utility.yul\":10325:10328   */\n      dup3\n        /* \"#utility.yul\":10321:10333   */\n      add\n        /* \"#utility.yul\":10314:10333   */\n      swap1\n      pop\n        /* \"#utility.yul\":9973:10339   */\n      swap2\n      swap1\n      pop\n      jump\t// out\n        /* \"#utility.yul\":10345:10764   */\n    tag_98:\n        /* \"#utility.yul\":10511:10515   */\n      0x00\n        /* \"#utility.yul\":10549:10551   */\n      0x20\n        /* \"#utility.yul\":10538:10547   */\n      dup3\n        /* \"#utility.yul\":10534:10552   */\n      add\n        /* \"#utility.yul\":10526:10552   */\n      swap1\n      pop\n        /* \"#utility.yul\":10598:10607   */\n      dup2\n        /* \"#utility.yul\":10592:10596   */\n      dup2\n        /* \"#utility.yul\":10588:10608   */\n      sub\n        /* \"#utility.yul\":10584:10585   */\n      0x00\n        /* \"#utility.yul\":10573:10582   */\n      dup4\n        /* \"#utility.yul\":10569:10586   */\n      add\n        /* \"#utility.yul\":10562:10609   */\n      mstore\n        /* \"#utility.yul\":10626:10757   */\n      tag_237\n        /* \"#utility.yul\":10752:10756   */\n      dup2\n        /* \"#utility.yul\":10626:10757   */\n      tag_143\n      jump\t// in\n    tag_237:\n        /* \"#utility.yul\":10618:10757   */\n      swap1\n      pop\n        /* \"#utility.yul\":10345:10764   */\n      swap2\n      swap1\n      pop\n      jump\t// out\n        /* \"#utility.yul\":10770:10941   */\n    tag_144:\n        /* \"#utility.yul\":10910:10933   */\n      0x506f6c69637920616c7265616479206163746976650000000000000000000000\n        /* \"#utility.yul\":10906:10907   */\n      0x00\n        /* \"#utility.yul\":10898:10904   */\n      dup3\n        /* \"#utility.yul\":10894:10908   */\n      add\n        /* \"#utility.yul\":10887:10934   */\n      mstore\n        /* \"#utility.yul\":10770:10941   */\n      pop\n      jump\t// out\n        /* \"#utility.yul\":10947:11313   */\n    tag_145:\n        /* \"#utility.yul\":11089:11092   */\n      0x00\n        /* \"#utility.yul\":11110:11177   */\n      tag_240\n        /* \"#utility.yul\":11174:11176   */\n      0x15\n        /* \"#utility.yul\":11169:11172   */\n      dup4\n        /* \"#utility.yul\":11110:11177   */\n      tag_131\n      jump\t// in\n    tag_240:\n        /* \"#utility.yul\":11103:11177   */\n      swap2\n      pop\n        /* \"#utility.yul\":11186:11279   */\n      tag_241\n        /* \"#utility.yul\":11275:11278   */\n      dup3\n        /* \"#utility.yul\":11186:11279   */\n      tag_144\n      jump\t// in\n    tag_241:\n        /* \"#utility.yul\":11304:11306   */\n      0x20\n        /* \"#utility.yul\":11299:11302   */\n      dup3\n        /* \"#utility.yul\":11295:11307   */\n      add\n        /* \"#utility.yul\":11288:11307   */\n      swap1\n      pop\n        /* \"#utility.yul\":10947:11313   */\n      swap2\n      swap1\n      pop\n      jump\t// out\n        /* \"#utility.yul\":11319:11738   */\n    tag_101:\n        /* \"#utility.yul\":11485:11489   */\n      0x00\n        /* \"#utility.yul\":11523:11525   */\n      0x20\n        /* \"#utility.yul\":11512:11521   */\n      dup3\n        /* \"#utility.yul\":11508:11526   */\n      add\n        /* \"#utility.yul\":11500:11526   */\n      swap1\n      pop\n        /* \"#utility.yul\":11572:11581   */\n      dup2\n        /* \"#utility.yul\":11566:11570   */\n      dup2\n        /* \"#utility.yul\":11562:11582   */\n      sub\n        /* \"#utility.yul\":11558:11559   */\n      0x00\n        /* \"#utility.yul\":11547:11556   */\n      dup4\n        /* \"#utility.yul\":11543:11560   */\n      add\n        /* \"#utility.yul\":11536:11583   */\n      mstore\n        /* \"#utility.yul\":11600:11731   */\n      tag_243\n        /* \"#utility.yul\":11726:11730   */\n      dup2\n        /* \"#utility.yul\":11600:11731   */\n      tag_145\n      jump\t// in\n    tag_243:\n        /* \"#utility.yul\":11592:11731   */\n      swap1\n      pop\n        /* \"#utility.yul\":11319:11738   */\n      swap2\n      swap1\n      pop\n      jump\t// out\n        /* \"#utility.yul\":11744:12076   */\n    tag_103:\n        /* \"#utility.yul\":11865:11869   */\n      0x00\n        /* \"#utility.yul\":11903:11905   */\n      0x40\n        /* \"#utility.yul\":11892:11901   */\n      dup3\n        /* \"#utility.yul\":11888:11906   */\n      add\n        /* \"#utility.yul\":11880:11906   */\n      swap1\n      pop\n        /* \"#utility.yul\":11916:11987   */\n      tag_245\n        /* \"#utility.yul\":11984:11985   */\n      0x00\n        /* \"#utility.yul\":11973:11982   */\n      dup4\n        /* \"#utility.yul\":11969:11986   */\n      add\n        /* \"#utility.yul\":11960:11966   */\n      dup6\n        /* \"#utility.yul\":11916:11987   */\n      tag_124\n      jump\t// in\n    tag_245:\n        /* \"#utility.yul\":11997:12069   */\n      tag_246\n        /* \"#utility.yul\":12065:12067   */\n      0x20\n        /* \"#utility.yul\":12054:12063   */\n      dup4\n        /* \"#utility.yul\":12050:12068   */\n      add\n        /* \"#utility.yul\":12041:12047   */\n      dup5\n        /* \"#utility.yul\":11997:12069   */\n      tag_124\n      jump\t// in\n    tag_246:\n        /* \"#utility.yul\":11744:12076   */\n      swap4\n      swap3\n      pop\n      pop\n      pop\n      jump\t// out\n        /* \"#utility.yul\":12082:12242   */\n    tag_146:\n        /* \"#utility.yul\":12222:12234   */\n      0x4e6f74206f7261636c6500000000000000000000000000000000000000000000\n        /* \"#utility.yul\":12218:12219   */\n      0x00\n        /* \"#utility.yul\":12210:12216   */\n      dup3\n        /* \"#utility.yul\":12206:12220   */\n      add\n        /* \"#utility.yul\":12199:12235   */\n      mstore\n        /* \"#utility.yul\":12082:12242   */\n      pop\n      jump\t// out\n        /* \"#utility.yul\":12248:12614   */\n    tag_147:\n        /* \"#utility.yul\":12390:12393   */\n      0x00\n        /* \"#utility.yul\":12411:12478   */\n      tag_249\n        /* \"#utility.yul\":12475:12477   */\n      0x0a\n        /* \"#utility.yul\":12470:12473   */\n      dup4\n        /* \"#utility.yul\":12411:12478   */\n      tag_131\n      jump\t// in\n    tag_249:\n        /* \"#utility.yul\":12404:12478   */\n      swap2\n      pop\n        /* \"#utility.yul\":12487:12580   */\n      tag_250\n        /* \"#utility.yul\":12576:12579   */\n      dup3\n        /* \"#utility.yul\":12487:12580   */\n      tag_146\n      jump\t// in\n    tag_250:\n        /* \"#utility.yul\":12605:12607   */\n      0x20\n        /* \"#utility.yul\":12600:12603   */\n      dup3\n        /* \"#utility.yul\":12596:12608   */\n      add\n        /* \"#utility.yul\":12589:12608   */\n      swap1\n      pop\n        /* \"#utility.yul\":12248:12614   */\n      swap2\n      swap1\n      pop\n      jump\t// out\n        /* \"#utility.yul\":12620:13039   */\n    tag_111:\n        /* \"#utility.yul\":12786:12790   */\n      0x00\n        /* \"#utility.yul\":12824:12826   */\n      0x20\n        /* \"#utility.yul\":12813:12822   */\n      dup3\n        /* \"#utility.yul\":12809:12827   */\n      add\n        /* \"#utility.yul\":12801:12827   */\n      swap1\n      pop\n        /* \"#utility.yul\":12873:12882   */\n      dup2\n        /* \"#utility.yul\":12867:12871   */\n      dup2\n        /* \"#utility.yul\":12863:12883   */\n      sub\n        /* \"#utility.yul\":12859:12860   */\n      0x00\n        /* \"#utility.yul\":12848:12857   */\n      dup4\n        /* \"#utility.yul\":12844:12861   */\n      add\n        /* \"#utility.yul\":12837:12884   */\n      mstore\n        /* \"#utility.yul\":12901:13032   */\n      tag_252\n        /* \"#utility.yul\":13027:13031   */\n      dup2\n        /* \"#utility.yul\":12901:13032   */\n      tag_147\n      jump\t// in\n    tag_252:\n        /* \"#utility.yul\":12893:13032   */\n      swap1\n      pop\n        /* \"#utility.yul\":12620:13039   */\n      swap2\n      swap1\n      pop\n      jump\t// out\n\n    auxdata: 0xa2646970667358221220848495321570e269f610b0fa5a8b7bcde8d27df812e2fc90997631f3689268d564736f6c634300081e0033\n}\n",
				"bytecode": {
					"linkReferences": {},
					"object": "608060405234801561000f575f5ffd5b5060405161120638038061120683398181016040528101906100319190610114565b335f5f6101000a81548173ffffffffffffffffffffffffffffffffffffffff021916908373ffffffffffffffffffffffffffffffffffffffff1602179055508060015f6101000a81548173ffffffffffffffffffffffffffffffffffffffff021916908373ffffffffffffffffffffffffffffffffffffffff1602179055505061013f565b5f5ffd5b5f73ffffffffffffffffffffffffffffffffffffffff82169050919050565b5f6100e3826100ba565b9050919050565b6100f3816100d9565b81146100fd575f5ffd5b50565b5f8151905061010e816100ea565b92915050565b5f60208284031215610129576101286100b6565b5b5f61013684828501610100565b91505092915050565b6110ba8061014c5f395ff3fe60806040526004361061009f575f3560e01c806374645ff31161006357806374645ff31461016d57806379c88894146101975780637adbf973146101b35780637dc0d1d0146101db5780638da5cb5b14610205578063bc02c8d61461022f576100a6565b8063155dd5ee146100aa57806320e98698146100d25780633791dc6a146101115780634e71d92d1461014d57806370f37d2714610163576100a6565b366100a657005b5f5ffd5b3480156100b5575f5ffd5b506100d060048036038101906100cb9190610b26565b610257565b005b3480156100dd575f5ffd5b506100f860048036038101906100f39190610bab565b61034c565b6040516101089493929190610bff565b60405180910390f35b34801561011c575f5ffd5b5061013760048036038101906101329190610bab565b610391565b6040516101449190610cb3565b60405180910390f35b348015610158575f5ffd5b50610161610430565b005b61016b61062c565b005b348015610178575f5ffd5b506101816106fe565b60405161018e9190610ccc565b60405180910390f35b6101b160048036038101906101ac9190610b26565b610704565b005b3480156101be575f5ffd5b506101d960048036038101906101d49190610bab565b6108dd565b005b3480156101e6575f5ffd5b506101ef6109ae565b6040516101fc9190610cf4565b60405180910390f35b348015610210575f5ffd5b506102196109d3565b6040516102269190610cf4565b60405180910390f35b34801561023a575f5ffd5b5061025560048036038101906102509190610b26565b6109f7565b005b5f5f9054906101000a900473ffffffffffffffffffffffffffffffffffffffff1673ffffffffffffffffffffffffffffffffffffffff163373ffffffffffffffffffffffffffffffffffffffff16146102e5576040517f08c379a00000000000000000000000000000000000000000000000000000000081526004016102dc90610d67565b60405180910390fd5b5f5f9054906101000a900473ffffffffffffffffffffffffffffffffffffffff1673ffffffffffffffffffffffffffffffffffffffff166108fc8290811502906040515f60405180830381858888f19350505050158015610348573d5f5f3e3d5ffd5b5050565b6003602052805f5260405f205f91509050805f015490806001015490806002015f9054906101000a900460ff16908060020160019054906101000a900460ff16905084565b610399610ac7565b60035f8373ffffffffffffffffffffffffffffffffffffffff1673ffffffffffffffffffffffffffffffffffffffff1681526020019081526020015f206040518060800160405290815f820154815260200160018201548152602001600282015f9054906101000a900460ff161515151581526020016002820160019054906101000a900460ff1615151515815250509050919050565b5f60035f3373ffffffffffffffffffffffffffffffffffffffff1673ffffffffffffffffffffffffffffffffffffffff1681526020019081526020015f209050806002015f9054906101000a900460ff166104c0576040517f08c379a00000000000000000000000000000000000000000000000000000000081526004016104b790610dcf565b60405180910390fd5b8060020160019054906101000a900460ff1615610512576040517f08c379a000000000000000000000000000000000000000000000000000000000815260040161050990610e37565b60405180910390fd5b606460025411610557576040517f08c379a000000000000000000000000000000000000000000000000000000000815260040161054e90610e9f565b60405180910390fd5b60018160020160016101000a81548160ff0219169083151502179055505f816002015f6101000a81548160ff0219169083151502179055503373ffffffffffffffffffffffffffffffffffffffff166108fc826001015490811502906040515f60405180830381858888f193505050501580156105d6573d5f5f3e3d5ffd5b503373ffffffffffffffffffffffffffffffffffffffff167ff42cf8c29487b42c009006cba2a2a0ca0388229f3183e6e957e0a0b163585cb482600101546040516106219190610ccc565b60405180910390a250565b5f5f9054906101000a900473ffffffffffffffffffffffffffffffffffffffff1673ffffffffffffffffffffffffffffffffffffffff163373ffffffffffffffffffffffffffffffffffffffff16146106ba576040517f08c379a00000000000000000000000000000000000000000000000000000000081526004016106b190610d67565b60405180910390fd5b5f34116106fc576040517f08c379a00000000000000000000000000000000000000000000000000000000081526004016106f390610f07565b60405180910390fd5b565b60025481565b5f3411610746576040517f08c379a000000000000000000000000000000000000000000000000000000000815260040161073d90610f6f565b60405180910390fd5b60035f3373ffffffffffffffffffffffffffffffffffffffff1673ffffffffffffffffffffffffffffffffffffffff1681526020019081526020015f206002015f9054906101000a900460ff16156107d3576040517f08c379a00000000000000000000000000000000000000000000000000000000081526004016107ca90610fd7565b60405180910390fd5b60405180608001604052803481526020018281526020016001151581526020015f151581525060035f3373ffffffffffffffffffffffffffffffffffffffff1673ffffffffffffffffffffffffffffffffffffffff1681526020019081526020015f205f820151815f0155602082015181600101556040820151816002015f6101000a81548160ff02191690831515021790555060608201518160020160016101000a81548160ff0219169083151502179055509050503373ffffffffffffffffffffffffffffffffffffffff167fe3a4e855ca574024873a64ada77dfdb7f1342b982fbfe29edf24be638f20d39834836040516108d2929190610ff5565b60405180910390a250565b5f5f9054906101000a900473ffffffffffffffffffffffffffffffffffffffff1673ffffffffffffffffffffffffffffffffffffffff163373ffffffffffffffffffffffffffffffffffffffff161461096b576040517f08c379a000000000000000000000000000000000000000000000000000000000815260040161096290610d67565b60405180910390fd5b8060015f6101000a81548173ffffffffffffffffffffffffffffffffffffffff021916908373ffffffffffffffffffffffffffffffffffffffff16021790555050565b60015f9054906101000a900473ffffffffffffffffffffffffffffffffffffffff1681565b5f5f9054906101000a900473ffffffffffffffffffffffffffffffffffffffff1681565b60015f9054906101000a900473ffffffffffffffffffffffffffffffffffffffff1673ffffffffffffffffffffffffffffffffffffffff163373ffffffffffffffffffffffffffffffffffffffff1614610a86576040517f08c379a0000000000000000000000000000000000000000000000000000000008152600401610a7d90611066565b60405180910390fd5b806002819055507f1d9f8660b46684cf0620a1aec89ad8da885e41a4f67fd708b483914dda0e66ed81604051610abc9190610ccc565b60405180910390a150565b60405180608001604052805f81526020015f81526020015f151581526020015f151581525090565b5f5ffd5b5f819050919050565b610b0581610af3565b8114610b0f575f5ffd5b50565b5f81359050610b2081610afc565b92915050565b5f60208284031215610b3b57610b3a610aef565b5b5f610b4884828501610b12565b91505092915050565b5f73ffffffffffffffffffffffffffffffffffffffff82169050919050565b5f610b7a82610b51565b9050919050565b610b8a81610b70565b8114610b94575f5ffd5b50565b5f81359050610ba581610b81565b92915050565b5f60208284031215610bc057610bbf610aef565b5b5f610bcd84828501610b97565b91505092915050565b610bdf81610af3565b82525050565b5f8115159050919050565b610bf981610be5565b82525050565b5f608082019050610c125f830187610bd6565b610c1f6020830186610bd6565b610c2c6040830185610bf0565b610c396060830184610bf0565b95945050505050565b610c4b81610af3565b82525050565b610c5a81610be5565b82525050565b608082015f820151610c745f850182610c42565b506020820151610c876020850182610c42565b506040820151610c9a6040850182610c51565b506060820151610cad6060850182610c51565b50505050565b5f608082019050610cc65f830184610c60565b92915050565b5f602082019050610cdf5f830184610bd6565b92915050565b610cee81610b70565b82525050565b5f602082019050610d075f830184610ce5565b92915050565b5f82825260208201905092915050565b7f4e6f74206f776e657200000000000000000000000000000000000000000000005f82015250565b5f610d51600983610d0d565b9150610d5c82610d1d565b602082019050919050565b5f6020820190508181035f830152610d7e81610d45565b9050919050565b7f4e6f2061637469766520706f6c696379000000000000000000000000000000005f82015250565b5f610db9601083610d0d565b9150610dc482610d85565b602082019050919050565b5f6020820190508181035f830152610de681610dad565b9050919050565b7f416c726561647920636c61696d656400000000000000000000000000000000005f82015250565b5f610e21600f83610d0d565b9150610e2c82610ded565b602082019050919050565b5f6020820190508181035f830152610e4e81610e15565b9050919050565b7f436c61696d20636f6e646974696f6e206e6f74206d65740000000000000000005f82015250565b5f610e89601783610d0d565b9150610e9482610e55565b602082019050919050565b5f6020820190508181035f830152610eb681610e7d565b9050919050565b7f53656e642045544820746f2066756e6420706f6f6c00000000000000000000005f82015250565b5f610ef1601583610d0d565b9150610efc82610ebd565b602082019050919050565b5f6020820190508181035f830152610f1e81610ee5565b9050919050565b7f5072656d69756d207265717569726564000000000000000000000000000000005f82015250565b5f610f59601083610d0d565b9150610f6482610f25565b602082019050919050565b5f6020820190508181035f830152610f8681610f4d565b9050919050565b7f506f6c69637920616c72656164792061637469766500000000000000000000005f82015250565b5f610fc1601583610d0d565b9150610fcc82610f8d565b602082019050919050565b5f6020820190508181035f830152610fee81610fb5565b9050919050565b5f6040820190506110085f830185610bd6565b6110156020830184610bd6565b9392505050565b7f4e6f74206f7261636c65000000000000000000000000000000000000000000005f82015250565b5f611050600a83610d0d565b915061105b8261101c565b602082019050919050565b5f6020820190508181035f83015261107d81611044565b905091905056fea2646970667358221220848495321570e269f610b0fa5a8b7bcde8d27df812e2fc90997631f3689268d564736f6c634300081e0033",
					"opcodes": "PUSH1 0x80 PUSH1 0x40 MSTORE CALLVALUE DUP1 ISZERO PUSH2 0xF JUMPI PUSH0 PUSH0 REVERT JUMPDEST POP PUSH1 0x40 MLOAD PUSH2 0x1206 CODESIZE SUB DUP1 PUSH2 0x1206 DUP4 CODECOPY DUP2 DUP2 ADD PUSH1 0x40 MSTORE DUP2 ADD SWAP1 PUSH2 0x31 SWAP2 SWAP1 PUSH2 0x114 JUMP JUMPDEST CALLER PUSH0 PUSH0 PUSH2 0x100 EXP DUP2 SLOAD DUP2 PUSH20 0xFFFFFFFFFFFFFFFFFFFFFFFFFFFFFFFFFFFFFFFF MUL NOT AND SWAP1 DUP4 PUSH20 0xFFFFFFFFFFFFFFFFFFFFFFFFFFFFFFFFFFFFFFFF AND MUL OR SWAP1 SSTORE POP DUP1 PUSH1 0x1 PUSH0 PUSH2 0x100 EXP DUP2 SLOAD DUP2 PUSH20 0xFFFFFFFFFFFFFFFFFFFFFFFFFFFFFFFFFFFFFFFF MUL NOT AND SWAP1 DUP4 PUSH20 0xFFFFFFFFFFFFFFFFFFFFFFFFFFFFFFFFFFFFFFFF AND MUL OR SWAP1 SSTORE POP POP PUSH2 0x13F JUMP JUMPDEST PUSH0 PUSH0 REVERT JUMPDEST PUSH0 PUSH20 0xFFFFFFFFFFFFFFFFFFFFFFFFFFFFFFFFFFFFFFFF DUP3 AND SWAP1 POP SWAP2 SWAP1 POP JUMP JUMPDEST PUSH0 PUSH2 0xE3 DUP3 PUSH2 0xBA JUMP JUMPDEST SWAP1 POP SWAP2 SWAP1 POP JUMP JUMPDEST PUSH2 0xF3 DUP2 PUSH2 0xD9 JUMP JUMPDEST DUP2 EQ PUSH2 0xFD JUMPI PUSH0 PUSH0 REVERT JUMPDEST POP JUMP JUMPDEST PUSH0 DUP2 MLOAD SWAP1 POP PUSH2 0x10E DUP2 PUSH2 0xEA JUMP JUMPDEST SWAP3 SWAP2 POP POP JUMP JUMPDEST PUSH0 PUSH1 0x20 DUP3 DUP5 SUB SLT ISZERO PUSH2 0x129 JUMPI PUSH2 0x128 PUSH2 0xB6 JUMP JUMPDEST JUMPDEST PUSH0 PUSH2 0x136 DUP5 DUP3 DUP6 ADD PUSH2 0x100 JUMP JUMPDEST SWAP2 POP POP SWAP3 SWAP2 POP POP JUMP JUMPDEST PUSH2 0x10BA DUP1 PUSH2 0x14C PUSH0 CODECOPY PUSH0 RETURN INVALID PUSH1 0x80 PUSH1 0x40 MSTORE PUSH1 0x4 CALLDATASIZE LT PUSH2 0x9F JUMPI PUSH0 CALLDATALOAD PUSH1 0xE0 SHR DUP1 PUSH4 0x74645FF3 GT PUSH2 0x63 JUMPI DUP1 PUSH4 0x74645FF3 EQ PUSH2 0x16D JUMPI DUP1 PUSH4 0x79C88894 EQ PUSH2 0x197 JUMPI DUP1 PUSH4 0x7ADBF973 EQ PUSH2 0x1B3 JUMPI DUP1 PUSH4 0x7DC0D1D0 EQ PUSH2 0x1DB JUMPI DUP1 PUSH4 0x8DA5CB5B EQ PUSH2 0x205 JUMPI DUP1 PUSH4 0xBC02C8D6 EQ PUSH2 0x22F JUMPI PUSH2 0xA6 JUMP JUMPDEST DUP1 PUSH4 0x155DD5EE EQ PUSH2 0xAA JUMPI DUP1 PUSH4 0x20E98698 EQ PUSH2 0xD2 JUMPI DUP1 PUSH4 0x3791DC6A EQ PUSH2 0x111 JUMPI DUP1 PUSH4 0x4E71D92D EQ PUSH2 0x14D JUMPI DUP1 PUSH4 0x70F37D27 EQ PUSH2 0x163 JUMPI PUSH2 0xA6 JUMP JUMPDEST CALLDATASIZE PUSH2 0xA6 JUMPI STOP JUMPDEST PUSH0 PUSH0 REVERT JUMPDEST CALLVALUE DUP1 ISZERO PUSH2 0xB5 JUMPI PUSH0 PUSH0 REVERT JUMPDEST POP PUSH2 0xD0 PUSH1 0x4 DUP1 CALLDATASIZE SUB DUP2 ADD SWAP1 PUSH2 0xCB SWAP2 SWAP1 PUSH2 0xB26 JUMP JUMPDEST PUSH2 0x257 JUMP JUMPDEST STOP JUMPDEST CALLVALUE DUP1 ISZERO PUSH2 0xDD JUMPI PUSH0 PUSH0 REVERT JUMPDEST POP PUSH2 0xF8 PUSH1 0x4 DUP1 CALLDATASIZE SUB DUP2 ADD SWAP1 PUSH2 0xF3 SWAP2 SWAP1 PUSH2 0xBAB JUMP JUMPDEST PUSH2 0x34C JUMP JUMPDEST PUSH1 0x40 MLOAD PUSH2 0x108 SWAP5 SWAP4 SWAP3 SWAP2 SWAP1 PUSH2 0xBFF JUMP JUMPDEST PUSH1 0x40 MLOAD DUP1 SWAP2 SUB SWAP1 RETURN JUMPDEST CALLVALUE DUP1 ISZERO PUSH2 0x11C JUMPI PUSH0 PUSH0 REVERT JUMPDEST POP PUSH2 0x137 PUSH1 0x4 DUP1 CALLDATASIZE SUB DUP2 ADD SWAP1 PUSH2 0x132 SWAP2 SWAP1 PUSH2 0xBAB JUMP JUMPDEST PUSH2 0x391 JUMP JUMPDEST PUSH1 0x40 MLOAD PUSH2 0x144 SWAP2 SWAP1 PUSH2 0xCB3 JUMP JUMPDEST PUSH1 0x40 MLOAD DUP1 SWAP2 SUB SWAP1 RETURN JUMPDEST CALLVALUE DUP1 ISZERO PUSH2 0x158 JUMPI PUSH0 PUSH0 REVERT JUMPDEST POP PUSH2 0x161 PUSH2 0x430 JUMP JUMPDEST STOP JUMPDEST PUSH2 0x16B PUSH2 0x62C JUMP JUMPDEST STOP JUMPDEST CALLVALUE DUP1 ISZERO PUSH2 0x178 JUMPI PUSH0 PUSH0 REVERT JUMPDEST POP PUSH2 0x181 PUSH2 0x6FE JUMP JUMPDEST PUSH1 0x40 MLOAD PUSH2 0x18E SWAP2 SWAP1 PUSH2 0xCCC JUMP JUMPDEST PUSH1 0x40 MLOAD DUP1 SWAP2 SUB SWAP1 RETURN JUMPDEST PUSH2 0x1B1 PUSH1 0x4 DUP1 CALLDATASIZE SUB DUP2 ADD SWAP1 PUSH2 0x1AC SWAP2 SWAP1 PUSH2 0xB26 JUMP JUMPDEST PUSH2 0x704 JUMP JUMPDEST STOP JUMPDEST CALLVALUE DUP1 ISZERO PUSH2 0x1BE JUMPI PUSH0 PUSH0 REVERT JUMPDEST POP PUSH2 0x1D9 PUSH1 0x4 DUP1 CALLDATASIZE SUB DUP2 ADD SWAP1 PUSH2 0x1D4 SWAP2 SWAP1 PUSH2 0xBAB JUMP JUMPDEST PUSH2 0x8DD JUMP JUMPDEST STOP JUMPDEST CALLVALUE DUP1 ISZERO PUSH2 0x1E6 JUMPI PUSH0 PUSH0 REVERT JUMPDEST POP PUSH2 0x1EF PUSH2 0x9AE JUMP JUMPDEST PUSH1 0x40 MLOAD PUSH2 0x1FC SWAP2 SWAP1 PUSH2 0xCF4 JUMP JUMPDEST PUSH1 0x40 MLOAD DUP1 SWAP2 SUB SWAP1 RETURN JUMPDEST CALLVALUE DUP1 ISZERO PUSH2 0x210 JUMPI PUSH0 PUSH0 REVERT JUMPDEST POP PUSH2 0x219 PUSH2 0x9D3 JUMP JUMPDEST PUSH1 0x40 MLOAD PUSH2 0x226 SWAP2 SWAP1 PUSH2 0xCF4 JUMP JUMPDEST PUSH1 0x40 MLOAD DUP1 SWAP2 SUB SWAP1 RETURN JUMPDEST CALLVALUE DUP1 ISZERO PUSH2 0x23A JUMPI PUSH0 PUSH0 REVERT JUMPDEST POP PUSH2 0x255 PUSH1 0x4 DUP1 CALLDATASIZE SUB DUP2 ADD SWAP1 PUSH2 0x250 SWAP2 SWAP1 PUSH2 0xB26 JUMP JUMPDEST PUSH2 0x9F7 JUMP JUMPDEST STOP JUMPDEST PUSH0 PUSH0 SWAP1 SLOAD SWAP1 PUSH2 0x100 EXP SWAP1 DIV PUSH20 0xFFFFFFFFFFFFFFFFFFFFFFFFFFFFFFFFFFFFFFFF AND PUSH20 0xFFFFFFFFFFFFFFFFFFFFFFFFFFFFFFFFFFFFFFFF AND CALLER PUSH20 0xFFFFFFFFFFFFFFFFFFFFFFFFFFFFFFFFFFFFFFFF AND EQ PUSH2 0x2E5 JUMPI PUSH1 0x40 MLOAD PUSH32 0x8C379A000000000000000000000000000000000000000000000000000000000 DUP2 MSTORE PUSH1 0x4 ADD PUSH2 0x2DC SWAP1 PUSH2 0xD67 JUMP JUMPDEST PUSH1 0x40 MLOAD DUP1 SWAP2 SUB SWAP1 REVERT JUMPDEST PUSH0 PUSH0 SWAP1 SLOAD SWAP1 PUSH2 0x100 EXP SWAP1 DIV PUSH20 0xFFFFFFFFFFFFFFFFFFFFFFFFFFFFFFFFFFFFFFFF AND PUSH20 0xFFFFFFFFFFFFFFFFFFFFFFFFFFFFFFFFFFFFFFFF AND PUSH2 0x8FC DUP3 SWAP1 DUP2 ISZERO MUL SWAP1 PUSH1 0x40 MLOAD PUSH0 PUSH1 0x40 MLOAD DUP1 DUP4 SUB DUP2 DUP6 DUP9 DUP9 CALL SWAP4 POP POP POP POP ISZERO DUP1 ISZERO PUSH2 0x348 JUMPI RETURNDATASIZE PUSH0 PUSH0 RETURNDATACOPY RETURNDATASIZE PUSH0 REVERT JUMPDEST POP POP JUMP JUMPDEST PUSH1 0x3 PUSH1 0x20 MSTORE DUP1 PUSH0 MSTORE PUSH1 0x40 PUSH0 KECCAK256 PUSH0 SWAP2 POP SWAP1 POP DUP1 PUSH0 ADD SLOAD SWAP1 DUP1 PUSH1 0x1 ADD SLOAD SWAP1 DUP1 PUSH1 0x2 ADD PUSH0 SWAP1 SLOAD SWAP1 PUSH2 0x100 EXP SWAP1 DIV PUSH1 0xFF AND SWAP1 DUP1 PUSH1 0x2 ADD PUSH1 0x1 SWAP1 SLOAD SWAP1 PUSH2 0x100 EXP SWAP1 DIV PUSH1 0xFF AND SWAP1 POP DUP5 JUMP JUMPDEST PUSH2 0x399 PUSH2 0xAC7 JUMP JUMPDEST PUSH1 0x3 PUSH0 DUP4 PUSH20 0xFFFFFFFFFFFFFFFFFFFFFFFFFFFFFFFFFFFFFFFF AND PUSH20 0xFFFFFFFFFFFFFFFFFFFFFFFFFFFFFFFFFFFFFFFF AND DUP2 MSTORE PUSH1 0x20 ADD SWAP1 DUP2 MSTORE PUSH1 0x20 ADD PUSH0 KECCAK256 PUSH1 0x40 MLOAD DUP1 PUSH1 0x80 ADD PUSH1 0x40 MSTORE SWAP1 DUP2 PUSH0 DUP3 ADD SLOAD DUP2 MSTORE PUSH1 0x20 ADD PUSH1 0x1 DUP3 ADD SLOAD DUP2 MSTORE PUSH1 0x20 ADD PUSH1 0x2 DUP3 ADD PUSH0 SWAP1 SLOAD SWAP1 PUSH2 0x100 EXP SWAP1 DIV PUSH1 0xFF AND ISZERO ISZERO ISZERO ISZERO DUP2 MSTORE PUSH1 0x20 ADD PUSH1 0x2 DUP3 ADD PUSH1 0x1 SWAP1 SLOAD SWAP1 PUSH2 0x100 EXP SWAP1 DIV PUSH1 0xFF AND ISZERO ISZERO ISZERO ISZERO DUP2 MSTORE POP POP SWAP1 POP SWAP2 SWAP1 POP JUMP JUMPDEST PUSH0 PUSH1 0x3 PUSH0 CALLER PUSH20 0xFFFFFFFFFFFFFFFFFFFFFFFFFFFFFFFFFFFFFFFF AND PUSH20 0xFFFFFFFFFFFFFFFFFFFFFFFFFFFFFFFFFFFFFFFF AND DUP2 MSTORE PUSH1 0x20 ADD SWAP1 DUP2 MSTORE PUSH1 0x20 ADD PUSH0 KECCAK256 SWAP1 POP DUP1 PUSH1 0x2 ADD PUSH0 SWAP1 SLOAD SWAP1 PUSH2 0x100 EXP SWAP1 DIV PUSH1 0xFF AND PUSH2 0x4C0 JUMPI PUSH1 0x40 MLOAD PUSH32 0x8C379A000000000000000000000000000000000000000000000000000000000 DUP2 MSTORE PUSH1 0x4 ADD PUSH2 0x4B7 SWAP1 PUSH2 0xDCF JUMP JUMPDEST PUSH1 0x40 MLOAD DUP1 SWAP2 SUB SWAP1 REVERT JUMPDEST DUP1 PUSH1 0x2 ADD PUSH1 0x1 SWAP1 SLOAD SWAP1 PUSH2 0x100 EXP SWAP1 DIV PUSH1 0xFF AND ISZERO PUSH2 0x512 JUMPI PUSH1 0x40 MLOAD PUSH32 0x8C379A000000000000000000000000000000000000000000000000000000000 DUP2 MSTORE PUSH1 0x4 ADD PUSH2 0x509 SWAP1 PUSH2 0xE37 JUMP JUMPDEST PUSH1 0x40 MLOAD DUP1 SWAP2 SUB SWAP1 REVERT JUMPDEST PUSH1 0x64 PUSH1 0x2 SLOAD GT PUSH2 0x557 JUMPI PUSH1 0x40 MLOAD PUSH32 0x8C379A000000000000000000000000000000000000000000000000000000000 DUP2 MSTORE PUSH1 0x4 ADD PUSH2 0x54E SWAP1 PUSH2 0xE9F JUMP JUMPDEST PUSH1 0x40 MLOAD DUP1 SWAP2 SUB SWAP1 REVERT JUMPDEST PUSH1 0x1 DUP2 PUSH1 0x2 ADD PUSH1 0x1 PUSH2 0x100 EXP DUP2 SLOAD DUP2 PUSH1 0xFF MUL NOT AND SWAP1 DUP4 ISZERO ISZERO MUL OR SWAP1 SSTORE POP PUSH0 DUP2 PUSH1 0x2 ADD PUSH0 PUSH2 0x100 EXP DUP2 SLOAD DUP2 PUSH1 0xFF MUL NOT AND SWAP1 DUP4 ISZERO ISZERO MUL OR SWAP1 SSTORE POP CALLER PUSH20 0xFFFFFFFFFFFFFFFFFFFFFFFFFFFFFFFFFFFFFFFF AND PUSH2 0x8FC DUP3 PUSH1 0x1 ADD SLOAD SWAP1 DUP2 ISZERO MUL SWAP1 PUSH1 0x40 MLOAD PUSH0 PUSH1 0x40 MLOAD DUP1 DUP4 SUB DUP2 DUP6 DUP9 DUP9 CALL SWAP4 POP POP POP POP ISZERO DUP1 ISZERO PUSH2 0x5D6 JUMPI RETURNDATASIZE PUSH0 PUSH0 RETURNDATACOPY RETURNDATASIZE PUSH0 REVERT JUMPDEST POP CALLER PUSH20 0xFFFFFFFFFFFFFFFFFFFFFFFFFFFFFFFFFFFFFFFF AND PUSH32 0xF42CF8C29487B42C009006CBA2A2A0CA0388229F3183E6E957E0A0B163585CB4 DUP3 PUSH1 0x1 ADD SLOAD PUSH1 0x40 MLOAD PUSH2 0x621 SWAP2 SWAP1 PUSH2 0xCCC JUMP JUMPDEST PUSH1 0x40 MLOAD DUP1 SWAP2 SUB SWAP1 LOG2 POP JUMP JUMPDEST PUSH0 PUSH0 SWAP1 SLOAD SWAP1 PUSH2 0x100 EXP SWAP1 DIV PUSH20 0xFFFFFFFFFFFFFFFFFFFFFFFFFFFFFFFFFFFFFFFF AND PUSH20 0xFFFFFFFFFFFFFFFFFFFFFFFFFFFFFFFFFFFFFFFF AND CALLER PUSH20 0xFFFFFFFFFFFFFFFFFFFFFFFFFFFFFFFFFFFFFFFF AND EQ PUSH2 0x6BA JUMPI PUSH1 0x40 MLOAD PUSH32 0x8C379A000000000000000000000000000000000000000000000000000000000 DUP2 MSTORE PUSH1 0x4 ADD PUSH2 0x6B1 SWAP1 PUSH2 0xD67 JUMP JUMPDEST PUSH1 0x40 MLOAD DUP1 SWAP2 SUB SWAP1 REVERT JUMPDEST PUSH0 CALLVALUE GT PUSH2 0x6FC JUMPI PUSH1 0x40 MLOAD PUSH32 0x8C379A000000000000000000000000000000000000000000000000000000000 DUP2 MSTORE PUSH1 0x4 ADD PUSH2 0x6F3 SWAP1 PUSH2 0xF07 JUMP JUMPDEST PUSH1 0x40 MLOAD DUP1 SWAP2 SUB SWAP1 REVERT JUMPDEST JUMP JUMPDEST PUSH1 0x2 SLOAD DUP2 JUMP JUMPDEST PUSH0 CALLVALUE GT PUSH2 0x746 JUMPI PUSH1 0x40 MLOAD PUSH32 0x8C379A000000000000000000000000000000000000000000000000000000000 DUP2 MSTORE PUSH1 0x4 ADD PUSH2 0x73D SWAP1 PUSH2 0xF6F JUMP JUMPDEST PUSH1 0x40 MLOAD DUP1 SWAP2 SUB SWAP1 REVERT JUMPDEST PUSH1 0x3 PUSH0 CALLER PUSH20 0xFFFFFFFFFFFFFFFFFFFFFFFFFFFFFFFFFFFFFFFF AND PUSH20 0xFFFFFFFFFFFFFFFFFFFFFFFFFFFFFFFFFFFFFFFF AND DUP2 MSTORE PUSH1 0x20 ADD SWAP1 DUP2 MSTORE PUSH1 0x20 ADD PUSH0 KECCAK256 PUSH1 0x2 ADD PUSH0 SWAP1 SLOAD SWAP1 PUSH2 0x100 EXP SWAP1 DIV PUSH1 0xFF AND ISZERO PUSH2 0x7D3 JUMPI PUSH1 0x40 MLOAD PUSH32 0x8C379A000000000000000000000000000000000000000000000000000000000 DUP2 MSTORE PUSH1 0x4 ADD PUSH2 0x7CA SWAP1 PUSH2 0xFD7 JUMP JUMPDEST PUSH1 0x40 MLOAD DUP1 SWAP2 SUB SWAP1 REVERT JUMPDEST PUSH1 0x40 MLOAD DUP1 PUSH1 0x80 ADD PUSH1 0x40 MSTORE DUP1 CALLVALUE DUP2 MSTORE PUSH1 0x20 ADD DUP3 DUP2 MSTORE PUSH1 0x20 ADD PUSH1 0x1 ISZERO ISZERO DUP2 MSTORE PUSH1 0x20 ADD PUSH0 ISZERO ISZERO DUP2 MSTORE POP PUSH1 0x3 PUSH0 CALLER PUSH20 0xFFFFFFFFFFFFFFFFFFFFFFFFFFFFFFFFFFFFFFFF AND PUSH20 0xFFFFFFFFFFFFFFFFFFFFFFFFFFFFFFFFFFFFFFFF AND DUP2 MSTORE PUSH1 0x20 ADD SWAP1 DUP2 MSTORE PUSH1 0x20 ADD PUSH0 KECCAK256 PUSH0 DUP3 ADD MLOAD DUP2 PUSH0 ADD SSTORE PUSH1 0x20 DUP3 ADD MLOAD DUP2 PUSH1 0x1 ADD SSTORE PUSH1 0x40 DUP3 ADD MLOAD DUP2 PUSH1 0x2 ADD PUSH0 PUSH2 0x100 EXP DUP2 SLOAD DUP2 PUSH1 0xFF MUL NOT AND SWAP1 DUP4 ISZERO ISZERO MUL OR SWAP1 SSTORE POP PUSH1 0x60 DUP3 ADD MLOAD DUP2 PUSH1 0x2 ADD PUSH1 0x1 PUSH2 0x100 EXP DUP2 SLOAD DUP2 PUSH1 0xFF MUL NOT AND SWAP1 DUP4 ISZERO ISZERO MUL OR SWAP1 SSTORE POP SWAP1 POP POP CALLER PUSH20 0xFFFFFFFFFFFFFFFFFFFFFFFFFFFFFFFFFFFFFFFF AND PUSH32 0xE3A4E855CA574024873A64ADA77DFDB7F1342B982FBFE29EDF24BE638F20D398 CALLVALUE DUP4 PUSH1 0x40 MLOAD PUSH2 0x8D2 SWAP3 SWAP2 SWAP1 PUSH2 0xFF5 JUMP JUMPDEST PUSH1 0x40 MLOAD DUP1 SWAP2 SUB SWAP1 LOG2 POP JUMP JUMPDEST PUSH0 PUSH0 SWAP1 SLOAD SWAP1 PUSH2 0x100 EXP SWAP1 DIV PUSH20 0xFFFFFFFFFFFFFFFFFFFFFFFFFFFFFFFFFFFFFFFF AND PUSH20 0xFFFFFFFFFFFFFFFFFFFFFFFFFFFFFFFFFFFFFFFF AND CALLER PUSH20 0xFFFFFFFFFFFFFFFFFFFFFFFFFFFFFFFFFFFFFFFF AND EQ PUSH2 0x96B JUMPI PUSH1 0x40 MLOAD PUSH32 0x8C379A000000000000000000000000000000000000000000000000000000000 DUP2 MSTORE PUSH1 0x4 ADD PUSH2 0x962 SWAP1 PUSH2 0xD67 JUMP JUMPDEST PUSH1 0x40 MLOAD DUP1 SWAP2 SUB SWAP1 REVERT JUMPDEST DUP1 PUSH1 0x1 PUSH0 PUSH2 0x100 EXP DUP2 SLOAD DUP2 PUSH20 0xFFFFFFFFFFFFFFFFFFFFFFFFFFFFFFFFFFFFFFFF MUL NOT AND SWAP1 DUP4 PUSH20 0xFFFFFFFFFFFFFFFFFFFFFFFFFFFFFFFFFFFFFFFF AND MUL OR SWAP1 SSTORE POP POP JUMP JUMPDEST PUSH1 0x1 PUSH0 SWAP1 SLOAD SWAP1 PUSH2 0x100 EXP SWAP1 DIV PUSH20 0xFFFFFFFFFFFFFFFFFFFFFFFFFFFFFFFFFFFFFFFF AND DUP2 JUMP JUMPDEST PUSH0 PUSH0 SWAP1 SLOAD SWAP1 PUSH2 0x100 EXP SWAP1 DIV PUSH20 0xFFFFFFFFFFFFFFFFFFFFFFFFFFFFFFFFFFFFFFFF AND DUP2 JUMP JUMPDEST PUSH1 0x1 PUSH0 SWAP1 SLOAD SWAP1 PUSH2 0x100 EXP SWAP1 DIV PUSH20 0xFFFFFFFFFFFFFFFFFFFFFFFFFFFFFFFFFFFFFFFF AND PUSH20 0xFFFFFFFFFFFFFFFFFFFFFFFFFFFFFFFFFFFFFFFF AND CALLER PUSH20 0xFFFFFFFFFFFFFFFFFFFFFFFFFFFFFFFFFFFFFFFF AND EQ PUSH2 0xA86 JUMPI PUSH1 0x40 MLOAD PUSH32 0x8C379A000000000000000000000000000000000000000000000000000000000 DUP2 MSTORE PUSH1 0x4 ADD PUSH2 0xA7D SWAP1 PUSH2 0x1066 JUMP JUMPDEST PUSH1 0x40 MLOAD DUP1 SWAP2 SUB SWAP1 REVERT JUMPDEST DUP1 PUSH1 0x2 DUP2 SWAP1 SSTORE POP PUSH32 0x1D9F8660B46684CF0620A1AEC89AD8DA885E41A4F67FD708B483914DDA0E66ED DUP2 PUSH1 0x40 MLOAD PUSH2 0xABC SWAP2 SWAP1 PUSH2 0xCCC JUMP JUMPDEST PUSH1 0x40 MLOAD DUP1 SWAP2 SUB SWAP1 LOG1 POP JUMP JUMPDEST PUSH1 0x40 MLOAD DUP1 PUSH1 0x80 ADD PUSH1 0x40 MSTORE DUP1 PUSH0 DUP2 MSTORE PUSH1 0x20 ADD PUSH0 DUP2 MSTORE PUSH1 0x20 ADD PUSH0 ISZERO ISZERO DUP2 MSTORE PUSH1 0x20 ADD PUSH0 ISZERO ISZERO DUP2 MSTORE POP SWAP1 JUMP JUMPDEST PUSH0 PUSH0 REVERT JUMPDEST PUSH0 DUP2 SWAP1 POP SWAP2 SWAP1 POP JUMP JUMPDEST PUSH2 0xB05 DUP2 PUSH2 0xAF3 JUMP JUMPDEST DUP2 EQ PUSH2 0xB0F JUMPI PUSH0 PUSH0 REVERT JUMPDEST POP JUMP JUMPDEST PUSH0 DUP2 CALLDATALOAD SWAP1 POP PUSH2 0xB20 DUP2 PUSH2 0xAFC JUMP JUMPDEST SWAP3 SWAP2 POP POP JUMP JUMPDEST PUSH0 PUSH1 0x20 DUP3 DUP5 SUB SLT ISZERO PUSH2 0xB3B JUMPI PUSH2 0xB3A PUSH2 0xAEF JUMP JUMPDEST JUMPDEST PUSH0 PUSH2 0xB48 DUP5 DUP3 DUP6 ADD PUSH2 0xB12 JUMP JUMPDEST SWAP2 POP POP SWAP3 SWAP2 POP POP JUMP JUMPDEST PUSH0 PUSH20 0xFFFFFFFFFFFFFFFFFFFFFFFFFFFFFFFFFFFFFFFF DUP3 AND SWAP1 POP SWAP2 SWAP1 POP JUMP JUMPDEST PUSH0 PUSH2 0xB7A DUP3 PUSH2 0xB51 JUMP JUMPDEST SWAP1 POP SWAP2 SWAP1 POP JUMP JUMPDEST PUSH2 0xB8A DUP2 PUSH2 0xB70 JUMP JUMPDEST DUP2 EQ PUSH2 0xB94 JUMPI PUSH0 PUSH0 REVERT JUMPDEST POP JUMP JUMPDEST PUSH0 DUP2 CALLDATALOAD SWAP1 POP PUSH2 0xBA5 DUP2 PUSH2 0xB81 JUMP JUMPDEST SWAP3 SWAP2 POP POP JUMP JUMPDEST PUSH0 PUSH1 0x20 DUP3 DUP5 SUB SLT ISZERO PUSH2 0xBC0 JUMPI PUSH2 0xBBF PUSH2 0xAEF JUMP JUMPDEST JUMPDEST PUSH0 PUSH2 0xBCD DUP5 DUP3 DUP6 ADD PUSH2 0xB97 JUMP JUMPDEST SWAP2 POP POP SWAP3 SWAP2 POP POP JUMP JUMPDEST PUSH2 0xBDF DUP2 PUSH2 0xAF3 JUMP JUMPDEST DUP3 MSTORE POP POP JUMP JUMPDEST PUSH0 DUP2 ISZERO ISZERO SWAP1 POP SWAP2 SWAP1 POP JUMP JUMPDEST PUSH2 0xBF9 DUP2 PUSH2 0xBE5 JUMP JUMPDEST DUP3 MSTORE POP POP JUMP JUMPDEST PUSH0 PUSH1 0x80 DUP3 ADD SWAP1 POP PUSH2 0xC12 PUSH0 DUP4 ADD DUP8 PUSH2 0xBD6 JUMP JUMPDEST PUSH2 0xC1F PUSH1 0x20 DUP4 ADD DUP7 PUSH2 0xBD6 JUMP JUMPDEST PUSH2 0xC2C PUSH1 0x40 DUP4 ADD DUP6 PUSH2 0xBF0 JUMP JUMPDEST PUSH2 0xC39 PUSH1 0x60 DUP4 ADD DUP5 PUSH2 0xBF0 JUMP JUMPDEST SWAP6 SWAP5 POP POP POP POP POP JUMP JUMPDEST PUSH2 0xC4B DUP2 PUSH2 0xAF3 JUMP JUMPDEST DUP3 MSTORE POP POP JUMP JUMPDEST PUSH2 0xC5A DUP2 PUSH2 0xBE5 JUMP JUMPDEST DUP3 MSTORE POP POP JUMP JUMPDEST PUSH1 0x80 DUP3 ADD PUSH0 DUP3 ADD MLOAD PUSH2 0xC74 PUSH0 DUP6 ADD DUP3 PUSH2 0xC42 JUMP JUMPDEST POP PUSH1 0x20 DUP3 ADD MLOAD PUSH2 0xC87 PUSH1 0x20 DUP6 ADD DUP3 PUSH2 0xC42 JUMP JUMPDEST POP PUSH1 0x40 DUP3 ADD MLOAD PUSH2 0xC9A PUSH1 0x40 DUP6 ADD DUP3 PUSH2 0xC51 JUMP JUMPDEST POP PUSH1 0x60 DUP3 ADD MLOAD PUSH2 0xCAD PUSH1 0x60 DUP6 ADD DUP3 PUSH2 0xC51 JUMP JUMPDEST POP POP POP POP JUMP JUMPDEST PUSH0 PUSH1 0x80 DUP3 ADD SWAP1 POP PUSH2 0xCC6 PUSH0 DUP4 ADD DUP5 PUSH2 0xC60 JUMP JUMPDEST SWAP3 SWAP2 POP POP JUMP JUMPDEST PUSH0 PUSH1 0x20 DUP3 ADD SWAP1 POP PUSH2 0xCDF PUSH0 DUP4 ADD DUP5 PUSH2 0xBD6 JUMP JUMPDEST SWAP3 SWAP2 POP POP JUMP JUMPDEST PUSH2 0xCEE DUP2 PUSH2 0xB70 JUMP JUMPDEST DUP3 MSTORE POP POP JUMP JUMPDEST PUSH0 PUSH1 0x20 DUP3 ADD SWAP1 POP PUSH2 0xD07 PUSH0 DUP4 ADD DUP5 PUSH2 0xCE5 JUMP JUMPDEST SWAP3 SWAP2 POP POP JUMP JUMPDEST PUSH0 DUP3 DUP3 MSTORE PUSH1 0x20 DUP3 ADD SWAP1 POP SWAP3 SWAP2 POP POP JUMP JUMPDEST PUSH32 0x4E6F74206F776E65720000000000000000000000000000000000000000000000 PUSH0 DUP3 ADD MSTORE POP JUMP JUMPDEST PUSH0 PUSH2 0xD51 PUSH1 0x9 DUP4 PUSH2 0xD0D JUMP JUMPDEST SWAP2 POP PUSH2 0xD5C DUP3 PUSH2 0xD1D JUMP JUMPDEST PUSH1 0x20 DUP3 ADD SWAP1 POP SWAP2 SWAP1 POP JUMP JUMPDEST PUSH0 PUSH1 0x20 DUP3 ADD SWAP1 POP DUP2 DUP2 SUB PUSH0 DUP4 ADD MSTORE PUSH2 0xD7E DUP2 PUSH2 0xD45 JUMP JUMPDEST SWAP1 POP SWAP2 SWAP1 POP JUMP JUMPDEST PUSH32 0x4E6F2061637469766520706F6C69637900000000000000000000000000000000 PUSH0 DUP3 ADD MSTORE POP JUMP JUMPDEST PUSH0 PUSH2 0xDB9 PUSH1 0x10 DUP4 PUSH2 0xD0D JUMP JUMPDEST SWAP2 POP PUSH2 0xDC4 DUP3 PUSH2 0xD85 JUMP JUMPDEST PUSH1 0x20 DUP3 ADD SWAP1 POP SWAP2 SWAP1 POP JUMP JUMPDEST PUSH0 PUSH1 0x20 DUP3 ADD SWAP1 POP DUP2 DUP2 SUB PUSH0 DUP4 ADD MSTORE PUSH2 0xDE6 DUP2 PUSH2 0xDAD JUMP JUMPDEST SWAP1 POP SWAP2 SWAP1 POP JUMP JUMPDEST PUSH32 0x416C726561647920636C61696D65640000000000000000000000000000000000 PUSH0 DUP3 ADD MSTORE POP JUMP JUMPDEST PUSH0 PUSH2 0xE21 PUSH1 0xF DUP4 PUSH2 0xD0D JUMP JUMPDEST SWAP2 POP PUSH2 0xE2C DUP3 PUSH2 0xDED JUMP JUMPDEST PUSH1 0x20 DUP3 ADD SWAP1 POP SWAP2 SWAP1 POP JUMP JUMPDEST PUSH0 PUSH1 0x20 DUP3 ADD SWAP1 POP DUP2 DUP2 SUB PUSH0 DUP4 ADD MSTORE PUSH2 0xE4E DUP2 PUSH2 0xE15 JUMP JUMPDEST SWAP1 POP SWAP2 SWAP1 POP JUMP JUMPDEST PUSH32 0x436C61696D20636F6E646974696F6E206E6F74206D6574000000000000000000 PUSH0 DUP3 ADD MSTORE POP JUMP JUMPDEST PUSH0 PUSH2 0xE89 PUSH1 0x17 DUP4 PUSH2 0xD0D JUMP JUMPDEST SWAP2 POP PUSH2 0xE94 DUP3 PUSH2 0xE55 JUMP JUMPDEST PUSH1 0x20 DUP3 ADD SWAP1 POP SWAP2 SWAP1 POP JUMP JUMPDEST PUSH0 PUSH1 0x20 DUP3 ADD SWAP1 POP DUP2 DUP2 SUB PUSH0 DUP4 ADD MSTORE PUSH2 0xEB6 DUP2 PUSH2 0xE7D JUMP JUMPDEST SWAP1 POP SWAP2 SWAP1 POP JUMP JUMPDEST PUSH32 0x53656E642045544820746F2066756E6420706F6F6C0000000000000000000000 PUSH0 DUP3 ADD MSTORE POP JUMP JUMPDEST PUSH0 PUSH2 0xEF1 PUSH1 0x15 DUP4 PUSH2 0xD0D JUMP JUMPDEST SWAP2 POP PUSH2 0xEFC DUP3 PUSH2 0xEBD JUMP JUMPDEST PUSH1 0x20 DUP3 ADD SWAP1 POP SWAP2 SWAP1 POP JUMP JUMPDEST PUSH0 PUSH1 0x20 DUP3 ADD SWAP1 POP DUP2 DUP2 SUB PUSH0 DUP4 ADD MSTORE PUSH2 0xF1E DUP2 PUSH2 0xEE5 JUMP JUMPDEST SWAP1 POP SWAP2 SWAP1 POP JUMP JUMPDEST PUSH32 0x5072656D69756D20726571756972656400000000000000000000000000000000 PUSH0 DUP3 ADD MSTORE POP JUMP JUMPDEST PUSH0 PUSH2 0xF59 PUSH1 0x10 DUP4 PUSH2 0xD0D JUMP JUMPDEST SWAP2 POP PUSH2 0xF64 DUP3 PUSH2 0xF25 JUMP JUMPDEST PUSH1 0x20 DUP3 ADD SWAP1 POP SWAP2 SWAP1 POP JUMP JUMPDEST PUSH0 PUSH1 0x20 DUP3 ADD SWAP1 POP DUP2 DUP2 SUB PUSH0 DUP4 ADD MSTORE PUSH2 0xF86 DUP2 PUSH2 0xF4D JUMP JUMPDEST SWAP1 POP SWAP2 SWAP1 POP JUMP JUMPDEST PUSH32 0x506F6C69637920616C7265616479206163746976650000000000000000000000 PUSH0 DUP3 ADD MSTORE POP JUMP JUMPDEST PUSH0 PUSH2 0xFC1 PUSH1 0x15 DUP4 PUSH2 0xD0D JUMP JUMPDEST SWAP2 POP PUSH2 0xFCC DUP3 PUSH2 0xF8D JUMP JUMPDEST PUSH1 0x20 DUP3 ADD SWAP1 POP SWAP2 SWAP1 POP JUMP JUMPDEST PUSH0 PUSH1 0x20 DUP3 ADD SWAP1 POP DUP2 DUP2 SUB PUSH0 DUP4 ADD MSTORE PUSH2 0xFEE DUP2 PUSH2 0xFB5 JUMP JUMPDEST SWAP1 POP SWAP2 SWAP1 POP JUMP JUMPDEST PUSH0 PUSH1 0x40 DUP3 ADD SWAP1 POP PUSH2 0x1008 PUSH0 DUP4 ADD DUP6 PUSH2 0xBD6 JUMP JUMPDEST PUSH2 0x1015 PUSH1 0x20 DUP4 ADD DUP5 PUSH2 0xBD6 JUMP JUMPDEST SWAP4 SWAP3 POP POP POP JUMP JUMPDEST PUSH32 0x4E6F74206F7261636C6500000000000000000000000000000000000000000000 PUSH0 DUP3 ADD MSTORE POP JUMP JUMPDEST PUSH0 PUSH2 0x1050 PUSH1 0xA DUP4 PUSH2 0xD0D JUMP JUMPDEST SWAP2 POP PUSH2 0x105B DUP3 PUSH2 0x101C JUMP JUMPDEST PUSH1 0x20 DUP3 ADD SWAP1 POP SWAP2 SWAP1 POP JUMP JUMPDEST PUSH0 PUSH1 0x20 DUP3 ADD SWAP1 POP DUP2 DUP2 SUB PUSH0 DUP4 ADD MSTORE PUSH2 0x107D DUP2 PUSH2 0x1044 JUMP JUMPDEST SWAP1 POP SWAP2 SWAP1 POP JUMP INVALID LOG2 PUSH5 0x6970667358 0x22 SLT KECCAK256 DUP5 DUP5 SWAP6 ORIGIN ISZERO PUSH17 0xE269F610B0FA5A8B7BCDE8D27DF812E2FC SWAP1 SWAP10 PUSH23 0x31F3689268D564736F6C634300081E0033000000000000 "
				},
				"gasEstimates": {
					"creation": {
						"codeDepositCost": "856400",
						"executionCost": "infinite",
						"totalCost": "infinite"
					},
					"external": {
						"buyPolicy(uint256)": "infinite",
						"claim()": "infinite",
						"fundPool()": "2681",
						"getPolicy(address)": "infinite",
						"oracle()": "2574",
						"oracleData()": "2425",
						"owner()": "2595",
						"policies(address)": "infinite",
						"setOracle(address)": "26927",
						"updateOracleData(uint256)": "infinite",
						"withdrawFunds(uint256)": "infinite"
					}
				},
				"methodIdentifiers": {
					"buyPolicy(uint256)": "79c88894",
					"claim()": "4e71d92d",
					"fundPool()": "70f37d27",
					"getPolicy(address)": "3791dc6a",
					"oracle()": "7dc0d1d0",
					"oracleData()": "74645ff3",
					"owner()": "8da5cb5b",
					"policies(address)": "20e98698",
					"setOracle(address)": "7adbf973",
					"updateOracleData(uint256)": "bc02c8d6",
					"withdrawFunds(uint256)": "155dd5ee"
				}
			},
			"storageLayout": {
				"storage": [
					{
						"astId": 3,
						"contract": "Smart Contracts/18_InsurranceOracle.sol:InsuranceOracle",
						"label": "owner",
						"offset": 0,
						"slot": "0",
						"type": "t_address"
					},
					{
						"astId": 5,
						"contract": "Smart Contracts/18_InsurranceOracle.sol:InsuranceOracle",
						"label": "oracle",
						"offset": 0,
						"slot": "1",
						"type": "t_address"
					},
					{
						"astId": 7,
						"contract": "Smart Contracts/18_InsurranceOracle.sol:InsuranceOracle",
						"label": "oracleData",
						"offset": 0,
						"slot": "2",
						"type": "t_uint256"
					},
					{
						"astId": 21,
						"contract": "Smart Contracts/18_InsurranceOracle.sol:InsuranceOracle",
						"label": "policies",
						"offset": 0,
						"slot": "3",
						"type": "t_mapping(t_address,t_struct(Policy)16_storage)"
					}
				],
				"types": {
					"t_address": {
						"encoding": "inplace",
						"label": "address",
						"numberOfBytes": "20"
					},
					"t_bool": {
						"encoding": "inplace",
						"label": "bool",
						"numberOfBytes": "1"
					},
					"t_mapping(t_address,t_struct(Policy)16_storage)": {
						"encoding": "mapping",
						"key": "t_address",
						"label": "mapping(address => struct InsuranceOracle.Policy)",
						"numberOfBytes": "32",
						"value": "t_struct(Policy)16_storage"
					},
					"t_struct(Policy)16_storage": {
						"encoding": "inplace",
						"label": "struct InsuranceOracle.Policy",
						"members": [
							{
								"astId": 9,
								"contract": "Smart Contracts/18_InsurranceOracle.sol:InsuranceOracle",
								"label": "premium",
								"offset": 0,
								"slot": "0",
								"type": "t_uint256"
							},
							{
								"astId": 11,
								"contract": "Smart Contracts/18_InsurranceOracle.sol:InsuranceOracle",
								"label": "payout",
								"offset": 0,
								"slot": "1",
								"type": "t_uint256"
							},
							{
								"astId": 13,
								"contract": "Smart Contracts/18_InsurranceOracle.sol:InsuranceOracle",
								"label": "isActive",
								"offset": 0,
								"slot": "2",
								"type": "t_bool"
							},
							{
								"astId": 15,
								"contract": "Smart Contracts/18_InsurranceOracle.sol:InsuranceOracle",
								"label": "claimed",
								"offset": 1,
								"slot": "2",
								"type": "t_bool"
							}
						],
						"numberOfBytes": "96"
					},
					"t_uint256": {
						"encoding": "inplace",
						"label": "uint256",
						"numberOfBytes": "32"
					}
				}
			},
			"userdoc": {
				"kind": "user",
				"methods": {},
				"version": 1
			}
		}
	}
}