{
	"Smart Contracts/22_FlashLoanBorrower.sol": {
		"FlashLoanBorrower": {
			"abi": [
				{
					"inputs": [
						{
							"internalType": "address",
							"name": "_lender",
							"type": "address"
						},
						{
							"internalType": "address",
							"name": "_token",
							"type": "address"
						}
					],
					"stateMutability": "nonpayable",
					"type": "constructor"
				},
				{
					"inputs": [
						{
							"internalType": "address",
							"name": "_token",
							"type": "address"
						},
						{
							"internalType": "uint256",
							"name": "amount",
							"type": "uint256"
						},
						{
							"internalType": "uint256",
							"name": "fee",
							"type": "uint256"
						},
						{
							"internalType": "address",
							"name": "",
							"type": "address"
						}
					],
					"name": "executeOperation",
					"outputs": [],
					"stateMutability": "nonpayable",
					"type": "function"
				},
				{
					"inputs": [],
					"name": "lender",
					"outputs": [
						{
							"internalType": "contract IFlashLoan",
							"name": "",
							"type": "address"
						}
					],
					"stateMutability": "view",
					"type": "function"
				},
				{
					"inputs": [],
					"name": "owner",
					"outputs": [
						{
							"internalType": "address",
							"name": "",
							"type": "address"
						}
					],
					"stateMutability": "view",
					"type": "function"
				},
				{
					"inputs": [
						{
							"internalType": "uint256",
							"name": "amount",
							"type": "uint256"
						}
					],
					"name": "startFlashLoan",
					"outputs": [],
					"stateMutability": "nonpayable",
					"type": "function"
				},
				{
					"inputs": [],
					"name": "token",
					"outputs": [
						{
							"internalType": "contract IERC20",
							"name": "",
							"type": "address"
						}
					],
					"stateMutability": "view",
					"type": "function"
				}
			],
			"devdoc": {
				"kind": "dev",
				"methods": {},
				"version": 1
			},
			"evm": {
				"assembly": "    /* \"Smart Contracts/22_FlashLoanBorrower.sol\":384:1188  contract FlashLoanBorrower is IFlashLoanReceiver {... */\n  mstore(0x40, 0x80)\n    /* \"Smart Contracts/22_FlashLoanBorrower.sol\":528:682  constructor(address _lender, address _token) {... */\n  callvalue\n  dup1\n  iszero\n  tag_1\n  jumpi\n  revert(0x00, 0x00)\ntag_1:\n  pop\n  mload(0x40)\n  sub(codesize, bytecodeSize)\n  dup1\n  bytecodeSize\n  dup4\n  codecopy\n  dup2\n  dup2\n  add\n  0x40\n  mstore\n  dup2\n  add\n  swap1\n  tag_2\n  swap2\n  swap1\n  tag_3\n  jump\t// in\ntag_2:\n    /* \"Smart Contracts/22_FlashLoanBorrower.sol\":604:611  _lender */\n  dup2\n    /* \"Smart Contracts/22_FlashLoanBorrower.sol\":584:590  lender */\n  0x00\n  0x00\n    /* \"Smart Contracts/22_FlashLoanBorrower.sol\":584:612  lender = IFlashLoan(_lender) */\n  0x0100\n  exp\n  dup2\n  sload\n  dup2\n  0xffffffffffffffffffffffffffffffffffffffff\n  mul\n  not\n  and\n  swap1\n  dup4\n  0xffffffffffffffffffffffffffffffffffffffff\n  and\n  mul\n  or\n  swap1\n  sstore\n  pop\n    /* \"Smart Contracts/22_FlashLoanBorrower.sol\":638:644  _token */\n  dup1\n    /* \"Smart Contracts/22_FlashLoanBorrower.sol\":623:628  token */\n  0x01\n  0x00\n    /* \"Smart Contracts/22_FlashLoanBorrower.sol\":623:645  token = IERC20(_token) */\n  0x0100\n  exp\n  dup2\n  sload\n  dup2\n  0xffffffffffffffffffffffffffffffffffffffff\n  mul\n  not\n  and\n  swap1\n  dup4\n  0xffffffffffffffffffffffffffffffffffffffff\n  and\n  mul\n  or\n  swap1\n  sstore\n  pop\n    /* \"Smart Contracts/22_FlashLoanBorrower.sol\":664:674  msg.sender */\n  caller\n    /* \"Smart Contracts/22_FlashLoanBorrower.sol\":656:661  owner */\n  0x02\n  0x00\n    /* \"Smart Contracts/22_FlashLoanBorrower.sol\":656:674  owner = msg.sender */\n  0x0100\n  exp\n  dup2\n  sload\n  dup2\n  0xffffffffffffffffffffffffffffffffffffffff\n  mul\n  not\n  and\n  swap1\n  dup4\n  0xffffffffffffffffffffffffffffffffffffffff\n  and\n  mul\n  or\n  swap1\n  sstore\n  pop\n    /* \"Smart Contracts/22_FlashLoanBorrower.sol\":528:682  constructor(address _lender, address _token) {... */\n  pop\n  pop\n    /* \"Smart Contracts/22_FlashLoanBorrower.sol\":384:1188  contract FlashLoanBorrower is IFlashLoanReceiver {... */\n  jump(tag_6)\n    /* \"#utility.yul\":88:205   */\ntag_8:\n    /* \"#utility.yul\":197:198   */\n  0x00\n    /* \"#utility.yul\":194:195   */\n  0x00\n    /* \"#utility.yul\":187:199   */\n  revert\n    /* \"#utility.yul\":334:460   */\ntag_10:\n    /* \"#utility.yul\":371:378   */\n  0x00\n    /* \"#utility.yul\":411:453   */\n  0xffffffffffffffffffffffffffffffffffffffff\n    /* \"#utility.yul\":404:409   */\n  dup3\n    /* \"#utility.yul\":400:454   */\n  and\n    /* \"#utility.yul\":389:454   */\n  swap1\n  pop\n    /* \"#utility.yul\":334:460   */\n  swap2\n  swap1\n  pop\n  jump\t// out\n    /* \"#utility.yul\":466:562   */\ntag_11:\n    /* \"#utility.yul\":503:510   */\n  0x00\n    /* \"#utility.yul\":532:556   */\n  tag_20\n    /* \"#utility.yul\":550:555   */\n  dup3\n    /* \"#utility.yul\":532:556   */\n  tag_10\n  jump\t// in\ntag_20:\n    /* \"#utility.yul\":521:556   */\n  swap1\n  pop\n    /* \"#utility.yul\":466:562   */\n  swap2\n  swap1\n  pop\n  jump\t// out\n    /* \"#utility.yul\":568:690   */\ntag_12:\n    /* \"#utility.yul\":641:665   */\n  tag_22\n    /* \"#utility.yul\":659:664   */\n  dup2\n    /* \"#utility.yul\":641:665   */\n  tag_11\n  jump\t// in\ntag_22:\n    /* \"#utility.yul\":634:639   */\n  dup2\n    /* \"#utility.yul\":631:666   */\n  eq\n    /* \"#utility.yul\":621:684   */\n  tag_23\n  jumpi\n    /* \"#utility.yul\":680:681   */\n  0x00\n    /* \"#utility.yul\":677:678   */\n  0x00\n    /* \"#utility.yul\":670:682   */\n  revert\n    /* \"#utility.yul\":621:684   */\ntag_23:\n    /* \"#utility.yul\":568:690   */\n  pop\n  jump\t// out\n    /* \"#utility.yul\":696:839   */\ntag_13:\n    /* \"#utility.yul\":753:758   */\n  0x00\n    /* \"#utility.yul\":784:790   */\n  dup2\n    /* \"#utility.yul\":778:791   */\n  mload\n    /* \"#utility.yul\":769:791   */\n  swap1\n  pop\n    /* \"#utility.yul\":800:833   */\n  tag_25\n    /* \"#utility.yul\":827:832   */\n  dup2\n    /* \"#utility.yul\":800:833   */\n  tag_12\n  jump\t// in\ntag_25:\n    /* \"#utility.yul\":696:839   */\n  swap3\n  swap2\n  pop\n  pop\n  jump\t// out\n    /* \"#utility.yul\":845:1352   */\ntag_3:\n    /* \"#utility.yul\":924:930   */\n  0x00\n    /* \"#utility.yul\":932:938   */\n  0x00\n    /* \"#utility.yul\":981:983   */\n  0x40\n    /* \"#utility.yul\":969:978   */\n  dup4\n    /* \"#utility.yul\":960:967   */\n  dup6\n    /* \"#utility.yul\":956:979   */\n  sub\n    /* \"#utility.yul\":952:984   */\n  slt\n    /* \"#utility.yul\":949:1068   */\n  iszero\n  tag_27\n  jumpi\n    /* \"#utility.yul\":987:1066   */\n  tag_28\n  tag_8\n  jump\t// in\ntag_28:\n    /* \"#utility.yul\":949:1068   */\ntag_27:\n    /* \"#utility.yul\":1107:1108   */\n  0x00\n    /* \"#utility.yul\":1132:1196   */\n  tag_29\n    /* \"#utility.yul\":1188:1195   */\n  dup6\n    /* \"#utility.yul\":1179:1185   */\n  dup3\n    /* \"#utility.yul\":1168:1177   */\n  dup7\n    /* \"#utility.yul\":1164:1186   */\n  add\n    /* \"#utility.yul\":1132:1196   */\n  tag_13\n  jump\t// in\ntag_29:\n    /* \"#utility.yul\":1122:1196   */\n  swap3\n  pop\n    /* \"#utility.yul\":1078:1206   */\n  pop\n    /* \"#utility.yul\":1245:1247   */\n  0x20\n    /* \"#utility.yul\":1271:1335   */\n  tag_30\n    /* \"#utility.yul\":1327:1334   */\n  dup6\n    /* \"#utility.yul\":1318:1324   */\n  dup3\n    /* \"#utility.yul\":1307:1316   */\n  dup7\n    /* \"#utility.yul\":1303:1325   */\n  add\n    /* \"#utility.yul\":1271:1335   */\n  tag_13\n  jump\t// in\ntag_30:\n    /* \"#utility.yul\":1261:1335   */\n  swap2\n  pop\n    /* \"#utility.yul\":1216:1345   */\n  pop\n    /* \"#utility.yul\":845:1352   */\n  swap3\n  pop\n  swap3\n  swap1\n  pop\n  jump\t// out\n    /* \"Smart Contracts/22_FlashLoanBorrower.sol\":384:1188  contract FlashLoanBorrower is IFlashLoanReceiver {... */\ntag_6:\n  dataSize(sub_0)\n  dup1\n  dataOffset(sub_0)\n  0x00\n  codecopy\n  0x00\n  return\nstop\n\nsub_0: assembly {\n        /* \"Smart Contracts/22_FlashLoanBorrower.sol\":384:1188  contract FlashLoanBorrower is IFlashLoanReceiver {... */\n      mstore(0x40, 0x80)\n      callvalue\n      dup1\n      iszero\n      tag_1\n      jumpi\n      revert(0x00, 0x00)\n    tag_1:\n      pop\n      jumpi(tag_2, lt(calldatasize, 0x04))\n      shr(0xe0, calldataload(0x00))\n      dup1\n      0x64f9510e\n      eq\n      tag_3\n      jumpi\n      dup1\n      0x8da5cb5b\n      eq\n      tag_4\n      jumpi\n      dup1\n      0x94cf612a\n      eq\n      tag_5\n      jumpi\n      dup1\n      0xbcead63e\n      eq\n      tag_6\n      jumpi\n      dup1\n      0xfc0c546a\n      eq\n      tag_7\n      jumpi\n    tag_2:\n      revert(0x00, 0x00)\n        /* \"Smart Contracts/22_FlashLoanBorrower.sol\":842:1185  function executeOperation(... */\n    tag_3:\n      tag_8\n      0x04\n      dup1\n      calldatasize\n      sub\n      dup2\n      add\n      swap1\n      tag_9\n      swap2\n      swap1\n      tag_10\n      jump\t// in\n    tag_9:\n      tag_11\n      jump\t// in\n    tag_8:\n      stop\n        /* \"Smart Contracts/22_FlashLoanBorrower.sol\":499:519  address public owner */\n    tag_4:\n      tag_12\n      tag_13\n      jump\t// in\n    tag_12:\n      mload(0x40)\n      tag_14\n      swap2\n      swap1\n      tag_15\n      jump\t// in\n    tag_14:\n      mload(0x40)\n      dup1\n      swap2\n      sub\n      swap1\n      return\n        /* \"Smart Contracts/22_FlashLoanBorrower.sol\":690:834  function startFlashLoan(uint256 amount) external {... */\n    tag_5:\n      tag_16\n      0x04\n      dup1\n      calldatasize\n      sub\n      dup2\n      add\n      swap1\n      tag_17\n      swap2\n      swap1\n      tag_18\n      jump\t// in\n    tag_17:\n      tag_19\n      jump\t// in\n    tag_16:\n      stop\n        /* \"Smart Contracts/22_FlashLoanBorrower.sol\":442:466  IFlashLoan public lender */\n    tag_6:\n      tag_20\n      tag_21\n      jump\t// in\n    tag_20:\n      mload(0x40)\n      tag_22\n      swap2\n      swap1\n      tag_23\n      jump\t// in\n    tag_22:\n      mload(0x40)\n      dup1\n      swap2\n      sub\n      swap1\n      return\n        /* \"Smart Contracts/22_FlashLoanBorrower.sol\":473:492  IERC20 public token */\n    tag_7:\n      tag_24\n      tag_25\n      jump\t// in\n    tag_24:\n      mload(0x40)\n      tag_26\n      swap2\n      swap1\n      tag_27\n      jump\t// in\n    tag_26:\n      mload(0x40)\n      dup1\n      swap2\n      sub\n      swap1\n      return\n        /* \"Smart Contracts/22_FlashLoanBorrower.sol\":842:1185  function executeOperation(... */\n    tag_11:\n        /* \"Smart Contracts/22_FlashLoanBorrower.sol\":1026:1032  lender */\n      0x00\n      0x00\n      swap1\n      sload\n      swap1\n      0x0100\n      exp\n      swap1\n      div\n      0xffffffffffffffffffffffffffffffffffffffff\n      and\n        /* \"Smart Contracts/22_FlashLoanBorrower.sol\":1004:1033  msg.sender == address(lender) */\n      0xffffffffffffffffffffffffffffffffffffffff\n      and\n        /* \"Smart Contracts/22_FlashLoanBorrower.sol\":1004:1014  msg.sender */\n      caller\n        /* \"Smart Contracts/22_FlashLoanBorrower.sol\":1004:1033  msg.sender == address(lender) */\n      0xffffffffffffffffffffffffffffffffffffffff\n      and\n      eq\n        /* \"Smart Contracts/22_FlashLoanBorrower.sol\":996:1058  require(msg.sender == address(lender), \"Only lender can call\") */\n      tag_29\n      jumpi\n      mload(0x40)\n      0x08c379a000000000000000000000000000000000000000000000000000000000\n      dup2\n      mstore\n      0x04\n      add\n      tag_30\n      swap1\n      tag_31\n      jump\t// in\n    tag_30:\n      mload(0x40)\n      dup1\n      swap2\n      sub\n      swap1\n      revert\n    tag_29:\n        /* \"Smart Contracts/22_FlashLoanBorrower.sol\":1071:1093  uint256 totalRepayment */\n      0x00\n        /* \"Smart Contracts/22_FlashLoanBorrower.sol\":1105:1108  fee */\n      dup3\n        /* \"Smart Contracts/22_FlashLoanBorrower.sol\":1096:1102  amount */\n      dup5\n        /* \"Smart Contracts/22_FlashLoanBorrower.sol\":1096:1108  amount + fee */\n      tag_32\n      swap2\n      swap1\n      tag_33\n      jump\t// in\n    tag_32:\n        /* \"Smart Contracts/22_FlashLoanBorrower.sol\":1071:1108  uint256 totalRepayment = amount + fee */\n      swap1\n      pop\n        /* \"Smart Contracts/22_FlashLoanBorrower.sol\":1128:1134  _token */\n      dup5\n        /* \"Smart Contracts/22_FlashLoanBorrower.sol\":1121:1144  IERC20(_token).transfer */\n      0xffffffffffffffffffffffffffffffffffffffff\n      and\n      0xa9059cbb\n        /* \"Smart Contracts/22_FlashLoanBorrower.sol\":1153:1159  lender */\n      0x00\n      0x00\n      swap1\n      sload\n      swap1\n      0x0100\n      exp\n      swap1\n      div\n      0xffffffffffffffffffffffffffffffffffffffff\n      and\n        /* \"Smart Contracts/22_FlashLoanBorrower.sol\":1162:1176  totalRepayment */\n      dup4\n        /* \"Smart Contracts/22_FlashLoanBorrower.sol\":1121:1177  IERC20(_token).transfer(address(lender), totalRepayment) */\n      mload(0x40)\n      dup4\n      0xffffffff\n      and\n      0xe0\n      shl\n      dup2\n      mstore\n      0x04\n      add\n      tag_34\n      swap3\n      swap2\n      swap1\n      tag_35\n      jump\t// in\n    tag_34:\n      0x20\n      mload(0x40)\n      dup1\n      dup4\n      sub\n      dup2\n      0x00\n      dup8\n      gas\n      call\n      iszero\n      dup1\n      iszero\n      tag_37\n      jumpi\n      returndatacopy(0x00, 0x00, returndatasize)\n      revert(0x00, returndatasize)\n    tag_37:\n      pop\n      pop\n      pop\n      pop\n      mload(0x40)\n      returndatasize\n      not(0x1f)\n      0x1f\n      dup3\n      add\n      and\n      dup3\n      add\n      dup1\n      0x40\n      mstore\n      pop\n      dup2\n      add\n      swap1\n      tag_38\n      swap2\n      swap1\n      tag_39\n      jump\t// in\n    tag_38:\n      pop\n        /* \"Smart Contracts/22_FlashLoanBorrower.sol\":983:1185  {... */\n      pop\n        /* \"Smart Contracts/22_FlashLoanBorrower.sol\":842:1185  function executeOperation(... */\n      pop\n      pop\n      pop\n      pop\n      jump\t// out\n        /* \"Smart Contracts/22_FlashLoanBorrower.sol\":499:519  address public owner */\n    tag_13:\n      0x02\n      0x00\n      swap1\n      sload\n      swap1\n      0x0100\n      exp\n      swap1\n      div\n      0xffffffffffffffffffffffffffffffffffffffff\n      and\n      dup2\n      jump\t// out\n        /* \"Smart Contracts/22_FlashLoanBorrower.sol\":690:834  function startFlashLoan(uint256 amount) external {... */\n    tag_19:\n        /* \"Smart Contracts/22_FlashLoanBorrower.sol\":772:777  owner */\n      0x02\n      0x00\n      swap1\n      sload\n      swap1\n      0x0100\n      exp\n      swap1\n      div\n      0xffffffffffffffffffffffffffffffffffffffff\n      and\n        /* \"Smart Contracts/22_FlashLoanBorrower.sol\":758:777  msg.sender == owner */\n      0xffffffffffffffffffffffffffffffffffffffff\n      and\n        /* \"Smart Contracts/22_FlashLoanBorrower.sol\":758:768  msg.sender */\n      caller\n        /* \"Smart Contracts/22_FlashLoanBorrower.sol\":758:777  msg.sender == owner */\n      0xffffffffffffffffffffffffffffffffffffffff\n      and\n      eq\n        /* \"Smart Contracts/22_FlashLoanBorrower.sol\":750:791  require(msg.sender == owner, \"Not owner\") */\n      tag_41\n      jumpi\n      mload(0x40)\n      0x08c379a000000000000000000000000000000000000000000000000000000000\n      dup2\n      mstore\n      0x04\n      add\n      tag_42\n      swap1\n      tag_43\n      jump\t// in\n    tag_42:\n      mload(0x40)\n      dup1\n      swap2\n      sub\n      swap1\n      revert\n    tag_41:\n        /* \"Smart Contracts/22_FlashLoanBorrower.sol\":802:808  lender */\n      0x00\n      0x00\n      swap1\n      sload\n      swap1\n      0x0100\n      exp\n      swap1\n      div\n      0xffffffffffffffffffffffffffffffffffffffff\n      and\n        /* \"Smart Contracts/22_FlashLoanBorrower.sol\":802:818  lender.flashLoan */\n      0xffffffffffffffffffffffffffffffffffffffff\n      and\n      0x9ab603b9\n        /* \"Smart Contracts/22_FlashLoanBorrower.sol\":819:825  amount */\n      dup3\n        /* \"Smart Contracts/22_FlashLoanBorrower.sol\":802:826  lender.flashLoan(amount) */\n      mload(0x40)\n      dup3\n      0xffffffff\n      and\n      0xe0\n      shl\n      dup2\n      mstore\n      0x04\n      add\n      tag_44\n      swap2\n      swap1\n      tag_45\n      jump\t// in\n    tag_44:\n      0x00\n      mload(0x40)\n      dup1\n      dup4\n      sub\n      dup2\n      0x00\n      dup8\n      dup1\n      extcodesize\n      iszero\n      dup1\n      iszero\n      tag_46\n      jumpi\n      revert(0x00, 0x00)\n    tag_46:\n      pop\n      gas\n      call\n      iszero\n      dup1\n      iszero\n      tag_48\n      jumpi\n      returndatacopy(0x00, 0x00, returndatasize)\n      revert(0x00, returndatasize)\n    tag_48:\n      pop\n      pop\n      pop\n      pop\n        /* \"Smart Contracts/22_FlashLoanBorrower.sol\":690:834  function startFlashLoan(uint256 amount) external {... */\n      pop\n      jump\t// out\n        /* \"Smart Contracts/22_FlashLoanBorrower.sol\":442:466  IFlashLoan public lender */\n    tag_21:\n      0x00\n      0x00\n      swap1\n      sload\n      swap1\n      0x0100\n      exp\n      swap1\n      div\n      0xffffffffffffffffffffffffffffffffffffffff\n      and\n      dup2\n      jump\t// out\n        /* \"Smart Contracts/22_FlashLoanBorrower.sol\":473:492  IERC20 public token */\n    tag_25:\n      0x01\n      0x00\n      swap1\n      sload\n      swap1\n      0x0100\n      exp\n      swap1\n      div\n      0xffffffffffffffffffffffffffffffffffffffff\n      and\n      dup2\n      jump\t// out\n        /* \"#utility.yul\":88:205   */\n    tag_50:\n        /* \"#utility.yul\":197:198   */\n      0x00\n        /* \"#utility.yul\":194:195   */\n      0x00\n        /* \"#utility.yul\":187:199   */\n      revert\n        /* \"#utility.yul\":334:460   */\n    tag_52:\n        /* \"#utility.yul\":371:378   */\n      0x00\n        /* \"#utility.yul\":411:453   */\n      0xffffffffffffffffffffffffffffffffffffffff\n        /* \"#utility.yul\":404:409   */\n      dup3\n        /* \"#utility.yul\":400:454   */\n      and\n        /* \"#utility.yul\":389:454   */\n      swap1\n      pop\n        /* \"#utility.yul\":334:460   */\n      swap2\n      swap1\n      pop\n      jump\t// out\n        /* \"#utility.yul\":466:562   */\n    tag_53:\n        /* \"#utility.yul\":503:510   */\n      0x00\n        /* \"#utility.yul\":532:556   */\n      tag_83\n        /* \"#utility.yul\":550:555   */\n      dup3\n        /* \"#utility.yul\":532:556   */\n      tag_52\n      jump\t// in\n    tag_83:\n        /* \"#utility.yul\":521:556   */\n      swap1\n      pop\n        /* \"#utility.yul\":466:562   */\n      swap2\n      swap1\n      pop\n      jump\t// out\n        /* \"#utility.yul\":568:690   */\n    tag_54:\n        /* \"#utility.yul\":641:665   */\n      tag_85\n        /* \"#utility.yul\":659:664   */\n      dup2\n        /* \"#utility.yul\":641:665   */\n      tag_53\n      jump\t// in\n    tag_85:\n        /* \"#utility.yul\":634:639   */\n      dup2\n        /* \"#utility.yul\":631:666   */\n      eq\n        /* \"#utility.yul\":621:684   */\n      tag_86\n      jumpi\n        /* \"#utility.yul\":680:681   */\n      0x00\n        /* \"#utility.yul\":677:678   */\n      0x00\n        /* \"#utility.yul\":670:682   */\n      revert\n        /* \"#utility.yul\":621:684   */\n    tag_86:\n        /* \"#utility.yul\":568:690   */\n      pop\n      jump\t// out\n        /* \"#utility.yul\":696:835   */\n    tag_55:\n        /* \"#utility.yul\":742:747   */\n      0x00\n        /* \"#utility.yul\":780:786   */\n      dup2\n        /* \"#utility.yul\":767:787   */\n      calldataload\n        /* \"#utility.yul\":758:787   */\n      swap1\n      pop\n        /* \"#utility.yul\":796:829   */\n      tag_88\n        /* \"#utility.yul\":823:828   */\n      dup2\n        /* \"#utility.yul\":796:829   */\n      tag_54\n      jump\t// in\n    tag_88:\n        /* \"#utility.yul\":696:835   */\n      swap3\n      swap2\n      pop\n      pop\n      jump\t// out\n        /* \"#utility.yul\":841:918   */\n    tag_56:\n        /* \"#utility.yul\":878:885   */\n      0x00\n        /* \"#utility.yul\":907:912   */\n      dup2\n        /* \"#utility.yul\":896:912   */\n      swap1\n      pop\n        /* \"#utility.yul\":841:918   */\n      swap2\n      swap1\n      pop\n      jump\t// out\n        /* \"#utility.yul\":924:1046   */\n    tag_57:\n        /* \"#utility.yul\":997:1021   */\n      tag_91\n        /* \"#utility.yul\":1015:1020   */\n      dup2\n        /* \"#utility.yul\":997:1021   */\n      tag_56\n      jump\t// in\n    tag_91:\n        /* \"#utility.yul\":990:995   */\n      dup2\n        /* \"#utility.yul\":987:1022   */\n      eq\n        /* \"#utility.yul\":977:1040   */\n      tag_92\n      jumpi\n        /* \"#utility.yul\":1036:1037   */\n      0x00\n        /* \"#utility.yul\":1033:1034   */\n      0x00\n        /* \"#utility.yul\":1026:1038   */\n      revert\n        /* \"#utility.yul\":977:1040   */\n    tag_92:\n        /* \"#utility.yul\":924:1046   */\n      pop\n      jump\t// out\n        /* \"#utility.yul\":1052:1191   */\n    tag_58:\n        /* \"#utility.yul\":1098:1103   */\n      0x00\n        /* \"#utility.yul\":1136:1142   */\n      dup2\n        /* \"#utility.yul\":1123:1143   */\n      calldataload\n        /* \"#utility.yul\":1114:1143   */\n      swap1\n      pop\n        /* \"#utility.yul\":1152:1185   */\n      tag_94\n        /* \"#utility.yul\":1179:1184   */\n      dup2\n        /* \"#utility.yul\":1152:1185   */\n      tag_57\n      jump\t// in\n    tag_94:\n        /* \"#utility.yul\":1052:1191   */\n      swap3\n      swap2\n      pop\n      pop\n      jump\t// out\n        /* \"#utility.yul\":1197:1962   */\n    tag_10:\n        /* \"#utility.yul\":1283:1289   */\n      0x00\n        /* \"#utility.yul\":1291:1297   */\n      0x00\n        /* \"#utility.yul\":1299:1305   */\n      0x00\n        /* \"#utility.yul\":1307:1313   */\n      0x00\n        /* \"#utility.yul\":1356:1359   */\n      0x80\n        /* \"#utility.yul\":1344:1353   */\n      dup6\n        /* \"#utility.yul\":1335:1342   */\n      dup8\n        /* \"#utility.yul\":1331:1354   */\n      sub\n        /* \"#utility.yul\":1327:1360   */\n      slt\n        /* \"#utility.yul\":1324:1444   */\n      iszero\n      tag_96\n      jumpi\n        /* \"#utility.yul\":1363:1442   */\n      tag_97\n      tag_50\n      jump\t// in\n    tag_97:\n        /* \"#utility.yul\":1324:1444   */\n    tag_96:\n        /* \"#utility.yul\":1483:1484   */\n      0x00\n        /* \"#utility.yul\":1508:1561   */\n      tag_98\n        /* \"#utility.yul\":1553:1560   */\n      dup8\n        /* \"#utility.yul\":1544:1550   */\n      dup3\n        /* \"#utility.yul\":1533:1542   */\n      dup9\n        /* \"#utility.yul\":1529:1551   */\n      add\n        /* \"#utility.yul\":1508:1561   */\n      tag_55\n      jump\t// in\n    tag_98:\n        /* \"#utility.yul\":1498:1561   */\n      swap5\n      pop\n        /* \"#utility.yul\":1454:1571   */\n      pop\n        /* \"#utility.yul\":1610:1612   */\n      0x20\n        /* \"#utility.yul\":1636:1689   */\n      tag_99\n        /* \"#utility.yul\":1681:1688   */\n      dup8\n        /* \"#utility.yul\":1672:1678   */\n      dup3\n        /* \"#utility.yul\":1661:1670   */\n      dup9\n        /* \"#utility.yul\":1657:1679   */\n      add\n        /* \"#utility.yul\":1636:1689   */\n      tag_58\n      jump\t// in\n    tag_99:\n        /* \"#utility.yul\":1626:1689   */\n      swap4\n      pop\n        /* \"#utility.yul\":1581:1699   */\n      pop\n        /* \"#utility.yul\":1738:1740   */\n      0x40\n        /* \"#utility.yul\":1764:1817   */\n      tag_100\n        /* \"#utility.yul\":1809:1816   */\n      dup8\n        /* \"#utility.yul\":1800:1806   */\n      dup3\n        /* \"#utility.yul\":1789:1798   */\n      dup9\n        /* \"#utility.yul\":1785:1807   */\n      add\n        /* \"#utility.yul\":1764:1817   */\n      tag_58\n      jump\t// in\n    tag_100:\n        /* \"#utility.yul\":1754:1817   */\n      swap3\n      pop\n        /* \"#utility.yul\":1709:1827   */\n      pop\n        /* \"#utility.yul\":1866:1868   */\n      0x60\n        /* \"#utility.yul\":1892:1945   */\n      tag_101\n        /* \"#utility.yul\":1937:1944   */\n      dup8\n        /* \"#utility.yul\":1928:1934   */\n      dup3\n        /* \"#utility.yul\":1917:1926   */\n      dup9\n        /* \"#utility.yul\":1913:1935   */\n      add\n        /* \"#utility.yul\":1892:1945   */\n      tag_55\n      jump\t// in\n    tag_101:\n        /* \"#utility.yul\":1882:1945   */\n      swap2\n      pop\n        /* \"#utility.yul\":1837:1955   */\n      pop\n        /* \"#utility.yul\":1197:1962   */\n      swap3\n      swap6\n      swap2\n      swap5\n      pop\n      swap3\n      pop\n      jump\t// out\n        /* \"#utility.yul\":1968:2086   */\n    tag_59:\n        /* \"#utility.yul\":2055:2079   */\n      tag_103\n        /* \"#utility.yul\":2073:2078   */\n      dup2\n        /* \"#utility.yul\":2055:2079   */\n      tag_53\n      jump\t// in\n    tag_103:\n        /* \"#utility.yul\":2050:2053   */\n      dup3\n        /* \"#utility.yul\":2043:2080   */\n      mstore\n        /* \"#utility.yul\":1968:2086   */\n      pop\n      pop\n      jump\t// out\n        /* \"#utility.yul\":2092:2314   */\n    tag_15:\n        /* \"#utility.yul\":2185:2189   */\n      0x00\n        /* \"#utility.yul\":2223:2225   */\n      0x20\n        /* \"#utility.yul\":2212:2221   */\n      dup3\n        /* \"#utility.yul\":2208:2226   */\n      add\n        /* \"#utility.yul\":2200:2226   */\n      swap1\n      pop\n        /* \"#utility.yul\":2236:2307   */\n      tag_105\n        /* \"#utility.yul\":2304:2305   */\n      0x00\n        /* \"#utility.yul\":2293:2302   */\n      dup4\n        /* \"#utility.yul\":2289:2306   */\n      add\n        /* \"#utility.yul\":2280:2286   */\n      dup5\n        /* \"#utility.yul\":2236:2307   */\n      tag_59\n      jump\t// in\n    tag_105:\n        /* \"#utility.yul\":2092:2314   */\n      swap3\n      swap2\n      pop\n      pop\n      jump\t// out\n        /* \"#utility.yul\":2320:2649   */\n    tag_18:\n        /* \"#utility.yul\":2379:2385   */\n      0x00\n        /* \"#utility.yul\":2428:2430   */\n      0x20\n        /* \"#utility.yul\":2416:2425   */\n      dup3\n        /* \"#utility.yul\":2407:2414   */\n      dup5\n        /* \"#utility.yul\":2403:2426   */\n      sub\n        /* \"#utility.yul\":2399:2431   */\n      slt\n        /* \"#utility.yul\":2396:2515   */\n      iszero\n      tag_107\n      jumpi\n        /* \"#utility.yul\":2434:2513   */\n      tag_108\n      tag_50\n      jump\t// in\n    tag_108:\n        /* \"#utility.yul\":2396:2515   */\n    tag_107:\n        /* \"#utility.yul\":2554:2555   */\n      0x00\n        /* \"#utility.yul\":2579:2632   */\n      tag_109\n        /* \"#utility.yul\":2624:2631   */\n      dup5\n        /* \"#utility.yul\":2615:2621   */\n      dup3\n        /* \"#utility.yul\":2604:2613   */\n      dup6\n        /* \"#utility.yul\":2600:2622   */\n      add\n        /* \"#utility.yul\":2579:2632   */\n      tag_58\n      jump\t// in\n    tag_109:\n        /* \"#utility.yul\":2569:2632   */\n      swap2\n      pop\n        /* \"#utility.yul\":2525:2642   */\n      pop\n        /* \"#utility.yul\":2320:2649   */\n      swap3\n      swap2\n      pop\n      pop\n      jump\t// out\n        /* \"#utility.yul\":2655:2715   */\n    tag_60:\n        /* \"#utility.yul\":2683:2686   */\n      0x00\n        /* \"#utility.yul\":2704:2709   */\n      dup2\n        /* \"#utility.yul\":2697:2709   */\n      swap1\n      pop\n        /* \"#utility.yul\":2655:2715   */\n      swap2\n      swap1\n      pop\n      jump\t// out\n        /* \"#utility.yul\":2721:2863   */\n    tag_61:\n        /* \"#utility.yul\":2771:2780   */\n      0x00\n        /* \"#utility.yul\":2804:2857   */\n      tag_112\n        /* \"#utility.yul\":2822:2856   */\n      tag_113\n        /* \"#utility.yul\":2831:2855   */\n      tag_114\n        /* \"#utility.yul\":2849:2854   */\n      dup5\n        /* \"#utility.yul\":2831:2855   */\n      tag_52\n      jump\t// in\n    tag_114:\n        /* \"#utility.yul\":2822:2856   */\n      tag_60\n      jump\t// in\n    tag_113:\n        /* \"#utility.yul\":2804:2857   */\n      tag_52\n      jump\t// in\n    tag_112:\n        /* \"#utility.yul\":2791:2857   */\n      swap1\n      pop\n        /* \"#utility.yul\":2721:2863   */\n      swap2\n      swap1\n      pop\n      jump\t// out\n        /* \"#utility.yul\":2869:2995   */\n    tag_62:\n        /* \"#utility.yul\":2919:2928   */\n      0x00\n        /* \"#utility.yul\":2952:2989   */\n      tag_116\n        /* \"#utility.yul\":2983:2988   */\n      dup3\n        /* \"#utility.yul\":2952:2989   */\n      tag_61\n      jump\t// in\n    tag_116:\n        /* \"#utility.yul\":2939:2989   */\n      swap1\n      pop\n        /* \"#utility.yul\":2869:2995   */\n      swap2\n      swap1\n      pop\n      jump\t// out\n        /* \"#utility.yul\":3001:3144   */\n    tag_63:\n        /* \"#utility.yul\":3068:3077   */\n      0x00\n        /* \"#utility.yul\":3101:3138   */\n      tag_118\n        /* \"#utility.yul\":3132:3137   */\n      dup3\n        /* \"#utility.yul\":3101:3138   */\n      tag_62\n      jump\t// in\n    tag_118:\n        /* \"#utility.yul\":3088:3138   */\n      swap1\n      pop\n        /* \"#utility.yul\":3001:3144   */\n      swap2\n      swap1\n      pop\n      jump\t// out\n        /* \"#utility.yul\":3150:3315   */\n    tag_64:\n        /* \"#utility.yul\":3254:3308   */\n      tag_120\n        /* \"#utility.yul\":3302:3307   */\n      dup2\n        /* \"#utility.yul\":3254:3308   */\n      tag_63\n      jump\t// in\n    tag_120:\n        /* \"#utility.yul\":3249:3252   */\n      dup3\n        /* \"#utility.yul\":3242:3309   */\n      mstore\n        /* \"#utility.yul\":3150:3315   */\n      pop\n      pop\n      jump\t// out\n        /* \"#utility.yul\":3321:3577   */\n    tag_23:\n        /* \"#utility.yul\":3431:3435   */\n      0x00\n        /* \"#utility.yul\":3469:3471   */\n      0x20\n        /* \"#utility.yul\":3458:3467   */\n      dup3\n        /* \"#utility.yul\":3454:3472   */\n      add\n        /* \"#utility.yul\":3446:3472   */\n      swap1\n      pop\n        /* \"#utility.yul\":3482:3570   */\n      tag_122\n        /* \"#utility.yul\":3567:3568   */\n      0x00\n        /* \"#utility.yul\":3556:3565   */\n      dup4\n        /* \"#utility.yul\":3552:3569   */\n      add\n        /* \"#utility.yul\":3543:3549   */\n      dup5\n        /* \"#utility.yul\":3482:3570   */\n      tag_64\n      jump\t// in\n    tag_122:\n        /* \"#utility.yul\":3321:3577   */\n      swap3\n      swap2\n      pop\n      pop\n      jump\t// out\n        /* \"#utility.yul\":3583:3722   */\n    tag_65:\n        /* \"#utility.yul\":3646:3655   */\n      0x00\n        /* \"#utility.yul\":3679:3716   */\n      tag_124\n        /* \"#utility.yul\":3710:3715   */\n      dup3\n        /* \"#utility.yul\":3679:3716   */\n      tag_62\n      jump\t// in\n    tag_124:\n        /* \"#utility.yul\":3666:3716   */\n      swap1\n      pop\n        /* \"#utility.yul\":3583:3722   */\n      swap2\n      swap1\n      pop\n      jump\t// out\n        /* \"#utility.yul\":3728:3885   */\n    tag_66:\n        /* \"#utility.yul\":3828:3878   */\n      tag_126\n        /* \"#utility.yul\":3872:3877   */\n      dup2\n        /* \"#utility.yul\":3828:3878   */\n      tag_65\n      jump\t// in\n    tag_126:\n        /* \"#utility.yul\":3823:3826   */\n      dup3\n        /* \"#utility.yul\":3816:3879   */\n      mstore\n        /* \"#utility.yul\":3728:3885   */\n      pop\n      pop\n      jump\t// out\n        /* \"#utility.yul\":3891:4139   */\n    tag_27:\n        /* \"#utility.yul\":3997:4001   */\n      0x00\n        /* \"#utility.yul\":4035:4037   */\n      0x20\n        /* \"#utility.yul\":4024:4033   */\n      dup3\n        /* \"#utility.yul\":4020:4038   */\n      add\n        /* \"#utility.yul\":4012:4038   */\n      swap1\n      pop\n        /* \"#utility.yul\":4048:4132   */\n      tag_128\n        /* \"#utility.yul\":4129:4130   */\n      0x00\n        /* \"#utility.yul\":4118:4127   */\n      dup4\n        /* \"#utility.yul\":4114:4131   */\n      add\n        /* \"#utility.yul\":4105:4111   */\n      dup5\n        /* \"#utility.yul\":4048:4132   */\n      tag_66\n      jump\t// in\n    tag_128:\n        /* \"#utility.yul\":3891:4139   */\n      swap3\n      swap2\n      pop\n      pop\n      jump\t// out\n        /* \"#utility.yul\":4145:4314   */\n    tag_67:\n        /* \"#utility.yul\":4229:4240   */\n      0x00\n        /* \"#utility.yul\":4263:4269   */\n      dup3\n        /* \"#utility.yul\":4258:4261   */\n      dup3\n        /* \"#utility.yul\":4251:4270   */\n      mstore\n        /* \"#utility.yul\":4303:4307   */\n      0x20\n        /* \"#utility.yul\":4298:4301   */\n      dup3\n        /* \"#utility.yul\":4294:4308   */\n      add\n        /* \"#utility.yul\":4279:4308   */\n      swap1\n      pop\n        /* \"#utility.yul\":4145:4314   */\n      swap3\n      swap2\n      pop\n      pop\n      jump\t// out\n        /* \"#utility.yul\":4320:4490   */\n    tag_68:\n        /* \"#utility.yul\":4460:4482   */\n      0x4f6e6c79206c656e6465722063616e2063616c6c000000000000000000000000\n        /* \"#utility.yul\":4456:4457   */\n      0x00\n        /* \"#utility.yul\":4448:4454   */\n      dup3\n        /* \"#utility.yul\":4444:4458   */\n      add\n        /* \"#utility.yul\":4437:4483   */\n      mstore\n        /* \"#utility.yul\":4320:4490   */\n      pop\n      jump\t// out\n        /* \"#utility.yul\":4496:4862   */\n    tag_69:\n        /* \"#utility.yul\":4638:4641   */\n      0x00\n        /* \"#utility.yul\":4659:4726   */\n      tag_132\n        /* \"#utility.yul\":4723:4725   */\n      0x14\n        /* \"#utility.yul\":4718:4721   */\n      dup4\n        /* \"#utility.yul\":4659:4726   */\n      tag_67\n      jump\t// in\n    tag_132:\n        /* \"#utility.yul\":4652:4726   */\n      swap2\n      pop\n        /* \"#utility.yul\":4735:4828   */\n      tag_133\n        /* \"#utility.yul\":4824:4827   */\n      dup3\n        /* \"#utility.yul\":4735:4828   */\n      tag_68\n      jump\t// in\n    tag_133:\n        /* \"#utility.yul\":4853:4855   */\n      0x20\n        /* \"#utility.yul\":4848:4851   */\n      dup3\n        /* \"#utility.yul\":4844:4856   */\n      add\n        /* \"#utility.yul\":4837:4856   */\n      swap1\n      pop\n        /* \"#utility.yul\":4496:4862   */\n      swap2\n      swap1\n      pop\n      jump\t// out\n        /* \"#utility.yul\":4868:5287   */\n    tag_31:\n        /* \"#utility.yul\":5034:5038   */\n      0x00\n        /* \"#utility.yul\":5072:5074   */\n      0x20\n        /* \"#utility.yul\":5061:5070   */\n      dup3\n        /* \"#utility.yul\":5057:5075   */\n      add\n        /* \"#utility.yul\":5049:5075   */\n      swap1\n      pop\n        /* \"#utility.yul\":5121:5130   */\n      dup2\n        /* \"#utility.yul\":5115:5119   */\n      dup2\n        /* \"#utility.yul\":5111:5131   */\n      sub\n        /* \"#utility.yul\":5107:5108   */\n      0x00\n        /* \"#utility.yul\":5096:5105   */\n      dup4\n        /* \"#utility.yul\":5092:5109   */\n      add\n        /* \"#utility.yul\":5085:5132   */\n      mstore\n        /* \"#utility.yul\":5149:5280   */\n      tag_135\n        /* \"#utility.yul\":5275:5279   */\n      dup2\n        /* \"#utility.yul\":5149:5280   */\n      tag_69\n      jump\t// in\n    tag_135:\n        /* \"#utility.yul\":5141:5280   */\n      swap1\n      pop\n        /* \"#utility.yul\":4868:5287   */\n      swap2\n      swap1\n      pop\n      jump\t// out\n        /* \"#utility.yul\":5293:5473   */\n    tag_70:\n        /* \"#utility.yul\":5341:5418   */\n      0x4e487b7100000000000000000000000000000000000000000000000000000000\n        /* \"#utility.yul\":5338:5339   */\n      0x00\n        /* \"#utility.yul\":5331:5419   */\n      mstore\n        /* \"#utility.yul\":5438:5442   */\n      0x11\n        /* \"#utility.yul\":5435:5436   */\n      0x04\n        /* \"#utility.yul\":5428:5443   */\n      mstore\n        /* \"#utility.yul\":5462:5466   */\n      0x24\n        /* \"#utility.yul\":5459:5460   */\n      0x00\n        /* \"#utility.yul\":5452:5467   */\n      revert\n        /* \"#utility.yul\":5479:5670   */\n    tag_33:\n        /* \"#utility.yul\":5519:5522   */\n      0x00\n        /* \"#utility.yul\":5538:5558   */\n      tag_138\n        /* \"#utility.yul\":5556:5557   */\n      dup3\n        /* \"#utility.yul\":5538:5558   */\n      tag_56\n      jump\t// in\n    tag_138:\n        /* \"#utility.yul\":5533:5558   */\n      swap2\n      pop\n        /* \"#utility.yul\":5572:5592   */\n      tag_139\n        /* \"#utility.yul\":5590:5591   */\n      dup4\n        /* \"#utility.yul\":5572:5592   */\n      tag_56\n      jump\t// in\n    tag_139:\n        /* \"#utility.yul\":5567:5592   */\n      swap3\n      pop\n        /* \"#utility.yul\":5615:5616   */\n      dup3\n        /* \"#utility.yul\":5612:5613   */\n      dup3\n        /* \"#utility.yul\":5608:5617   */\n      add\n        /* \"#utility.yul\":5601:5617   */\n      swap1\n      pop\n        /* \"#utility.yul\":5636:5639   */\n      dup1\n        /* \"#utility.yul\":5633:5634   */\n      dup3\n        /* \"#utility.yul\":5630:5640   */\n      gt\n        /* \"#utility.yul\":5627:5663   */\n      iszero\n      tag_140\n      jumpi\n        /* \"#utility.yul\":5643:5661   */\n      tag_141\n      tag_70\n      jump\t// in\n    tag_141:\n        /* \"#utility.yul\":5627:5663   */\n    tag_140:\n        /* \"#utility.yul\":5479:5670   */\n      swap3\n      swap2\n      pop\n      pop\n      jump\t// out\n        /* \"#utility.yul\":5676:5794   */\n    tag_71:\n        /* \"#utility.yul\":5763:5787   */\n      tag_143\n        /* \"#utility.yul\":5781:5786   */\n      dup2\n        /* \"#utility.yul\":5763:5787   */\n      tag_56\n      jump\t// in\n    tag_143:\n        /* \"#utility.yul\":5758:5761   */\n      dup3\n        /* \"#utility.yul\":5751:5788   */\n      mstore\n        /* \"#utility.yul\":5676:5794   */\n      pop\n      pop\n      jump\t// out\n        /* \"#utility.yul\":5800:6132   */\n    tag_35:\n        /* \"#utility.yul\":5921:5925   */\n      0x00\n        /* \"#utility.yul\":5959:5961   */\n      0x40\n        /* \"#utility.yul\":5948:5957   */\n      dup3\n        /* \"#utility.yul\":5944:5962   */\n      add\n        /* \"#utility.yul\":5936:5962   */\n      swap1\n      pop\n        /* \"#utility.yul\":5972:6043   */\n      tag_145\n        /* \"#utility.yul\":6040:6041   */\n      0x00\n        /* \"#utility.yul\":6029:6038   */\n      dup4\n        /* \"#utility.yul\":6025:6042   */\n      add\n        /* \"#utility.yul\":6016:6022   */\n      dup6\n        /* \"#utility.yul\":5972:6043   */\n      tag_59\n      jump\t// in\n    tag_145:\n        /* \"#utility.yul\":6053:6125   */\n      tag_146\n        /* \"#utility.yul\":6121:6123   */\n      0x20\n        /* \"#utility.yul\":6110:6119   */\n      dup4\n        /* \"#utility.yul\":6106:6124   */\n      add\n        /* \"#utility.yul\":6097:6103   */\n      dup5\n        /* \"#utility.yul\":6053:6125   */\n      tag_71\n      jump\t// in\n    tag_146:\n        /* \"#utility.yul\":5800:6132   */\n      swap4\n      swap3\n      pop\n      pop\n      pop\n      jump\t// out\n        /* \"#utility.yul\":6138:6228   */\n    tag_72:\n        /* \"#utility.yul\":6172:6179   */\n      0x00\n        /* \"#utility.yul\":6215:6220   */\n      dup2\n        /* \"#utility.yul\":6208:6221   */\n      iszero\n        /* \"#utility.yul\":6201:6222   */\n      iszero\n        /* \"#utility.yul\":6190:6222   */\n      swap1\n      pop\n        /* \"#utility.yul\":6138:6228   */\n      swap2\n      swap1\n      pop\n      jump\t// out\n        /* \"#utility.yul\":6234:6350   */\n    tag_73:\n        /* \"#utility.yul\":6304:6325   */\n      tag_149\n        /* \"#utility.yul\":6319:6324   */\n      dup2\n        /* \"#utility.yul\":6304:6325   */\n      tag_72\n      jump\t// in\n    tag_149:\n        /* \"#utility.yul\":6297:6302   */\n      dup2\n        /* \"#utility.yul\":6294:6326   */\n      eq\n        /* \"#utility.yul\":6284:6344   */\n      tag_150\n      jumpi\n        /* \"#utility.yul\":6340:6341   */\n      0x00\n        /* \"#utility.yul\":6337:6338   */\n      0x00\n        /* \"#utility.yul\":6330:6342   */\n      revert\n        /* \"#utility.yul\":6284:6344   */\n    tag_150:\n        /* \"#utility.yul\":6234:6350   */\n      pop\n      jump\t// out\n        /* \"#utility.yul\":6356:6493   */\n    tag_74:\n        /* \"#utility.yul\":6410:6415   */\n      0x00\n        /* \"#utility.yul\":6441:6447   */\n      dup2\n        /* \"#utility.yul\":6435:6448   */\n      mload\n        /* \"#utility.yul\":6426:6448   */\n      swap1\n      pop\n        /* \"#utility.yul\":6457:6487   */\n      tag_152\n        /* \"#utility.yul\":6481:6486   */\n      dup2\n        /* \"#utility.yul\":6457:6487   */\n      tag_73\n      jump\t// in\n    tag_152:\n        /* \"#utility.yul\":6356:6493   */\n      swap3\n      swap2\n      pop\n      pop\n      jump\t// out\n        /* \"#utility.yul\":6499:6844   */\n    tag_39:\n        /* \"#utility.yul\":6566:6572   */\n      0x00\n        /* \"#utility.yul\":6615:6617   */\n      0x20\n        /* \"#utility.yul\":6603:6612   */\n      dup3\n        /* \"#utility.yul\":6594:6601   */\n      dup5\n        /* \"#utility.yul\":6590:6613   */\n      sub\n        /* \"#utility.yul\":6586:6618   */\n      slt\n        /* \"#utility.yul\":6583:6702   */\n      iszero\n      tag_154\n      jumpi\n        /* \"#utility.yul\":6621:6700   */\n      tag_155\n      tag_50\n      jump\t// in\n    tag_155:\n        /* \"#utility.yul\":6583:6702   */\n    tag_154:\n        /* \"#utility.yul\":6741:6742   */\n      0x00\n        /* \"#utility.yul\":6766:6827   */\n      tag_156\n        /* \"#utility.yul\":6819:6826   */\n      dup5\n        /* \"#utility.yul\":6810:6816   */\n      dup3\n        /* \"#utility.yul\":6799:6808   */\n      dup6\n        /* \"#utility.yul\":6795:6817   */\n      add\n        /* \"#utility.yul\":6766:6827   */\n      tag_74\n      jump\t// in\n    tag_156:\n        /* \"#utility.yul\":6756:6827   */\n      swap2\n      pop\n        /* \"#utility.yul\":6712:6837   */\n      pop\n        /* \"#utility.yul\":6499:6844   */\n      swap3\n      swap2\n      pop\n      pop\n      jump\t// out\n        /* \"#utility.yul\":6850:7009   */\n    tag_75:\n        /* \"#utility.yul\":6990:7001   */\n      0x4e6f74206f776e65720000000000000000000000000000000000000000000000\n        /* \"#utility.yul\":6986:6987   */\n      0x00\n        /* \"#utility.yul\":6978:6984   */\n      dup3\n        /* \"#utility.yul\":6974:6988   */\n      add\n        /* \"#utility.yul\":6967:7002   */\n      mstore\n        /* \"#utility.yul\":6850:7009   */\n      pop\n      jump\t// out\n        /* \"#utility.yul\":7015:7380   */\n    tag_76:\n        /* \"#utility.yul\":7157:7160   */\n      0x00\n        /* \"#utility.yul\":7178:7244   */\n      tag_159\n        /* \"#utility.yul\":7242:7243   */\n      0x09\n        /* \"#utility.yul\":7237:7240   */\n      dup4\n        /* \"#utility.yul\":7178:7244   */\n      tag_67\n      jump\t// in\n    tag_159:\n        /* \"#utility.yul\":7171:7244   */\n      swap2\n      pop\n        /* \"#utility.yul\":7253:7346   */\n      tag_160\n        /* \"#utility.yul\":7342:7345   */\n      dup3\n        /* \"#utility.yul\":7253:7346   */\n      tag_75\n      jump\t// in\n    tag_160:\n        /* \"#utility.yul\":7371:7373   */\n      0x20\n        /* \"#utility.yul\":7366:7369   */\n      dup3\n        /* \"#utility.yul\":7362:7374   */\n      add\n        /* \"#utility.yul\":7355:7374   */\n      swap1\n      pop\n        /* \"#utility.yul\":7015:7380   */\n      swap2\n      swap1\n      pop\n      jump\t// out\n        /* \"#utility.yul\":7386:7805   */\n    tag_43:\n        /* \"#utility.yul\":7552:7556   */\n      0x00\n        /* \"#utility.yul\":7590:7592   */\n      0x20\n        /* \"#utility.yul\":7579:7588   */\n      dup3\n        /* \"#utility.yul\":7575:7593   */\n      add\n        /* \"#utility.yul\":7567:7593   */\n      swap1\n      pop\n        /* \"#utility.yul\":7639:7648   */\n      dup2\n        /* \"#utility.yul\":7633:7637   */\n      dup2\n        /* \"#utility.yul\":7629:7649   */\n      sub\n        /* \"#utility.yul\":7625:7626   */\n      0x00\n        /* \"#utility.yul\":7614:7623   */\n      dup4\n        /* \"#utility.yul\":7610:7627   */\n      add\n        /* \"#utility.yul\":7603:7650   */\n      mstore\n        /* \"#utility.yul\":7667:7798   */\n      tag_162\n        /* \"#utility.yul\":7793:7797   */\n      dup2\n        /* \"#utility.yul\":7667:7798   */\n      tag_76\n      jump\t// in\n    tag_162:\n        /* \"#utility.yul\":7659:7798   */\n      swap1\n      pop\n        /* \"#utility.yul\":7386:7805   */\n      swap2\n      swap1\n      pop\n      jump\t// out\n        /* \"#utility.yul\":7811:8033   */\n    tag_45:\n        /* \"#utility.yul\":7904:7908   */\n      0x00\n        /* \"#utility.yul\":7942:7944   */\n      0x20\n        /* \"#utility.yul\":7931:7940   */\n      dup3\n        /* \"#utility.yul\":7927:7945   */\n      add\n        /* \"#utility.yul\":7919:7945   */\n      swap1\n      pop\n        /* \"#utility.yul\":7955:8026   */\n      tag_164\n        /* \"#utility.yul\":8023:8024   */\n      0x00\n        /* \"#utility.yul\":8012:8021   */\n      dup4\n        /* \"#utility.yul\":8008:8025   */\n      add\n        /* \"#utility.yul\":7999:8005   */\n      dup5\n        /* \"#utility.yul\":7955:8026   */\n      tag_71\n      jump\t// in\n    tag_164:\n        /* \"#utility.yul\":7811:8033   */\n      swap3\n      swap2\n      pop\n      pop\n      jump\t// out\n\n    auxdata: 0xa26469706673582212202ca14a35d079028efb74de179427e086a2114d19804b006dab9ca14b70dff83964736f6c634300081e0033\n}\n",
				"bytecode": {
					"linkReferences": {},
					"object": "608060405234801561000f575f5ffd5b5060405161096b38038061096b83398181016040528101906100319190610155565b815f5f6101000a81548173ffffffffffffffffffffffffffffffffffffffff021916908373ffffffffffffffffffffffffffffffffffffffff1602179055508060015f6101000a81548173ffffffffffffffffffffffffffffffffffffffff021916908373ffffffffffffffffffffffffffffffffffffffff1602179055503360025f6101000a81548173ffffffffffffffffffffffffffffffffffffffff021916908373ffffffffffffffffffffffffffffffffffffffff1602179055505050610193565b5f5ffd5b5f73ffffffffffffffffffffffffffffffffffffffff82169050919050565b5f610124826100fb565b9050919050565b6101348161011a565b811461013e575f5ffd5b50565b5f8151905061014f8161012b565b92915050565b5f5f6040838503121561016b5761016a6100f7565b5b5f61017885828601610141565b925050602061018985828601610141565b9150509250929050565b6107cb806101a05f395ff3fe608060405234801561000f575f5ffd5b5060043610610055575f3560e01c806364f9510e146100595780638da5cb5b1461007557806394cf612a14610093578063bcead63e146100af578063fc0c546a146100cd575b5f5ffd5b610073600480360381019061006e9190610442565b6100eb565b005b61007d61022b565b60405161008a91906104b5565b60405180910390f35b6100ad60048036038101906100a891906104ce565b610250565b005b6100b7610368565b6040516100c49190610554565b60405180910390f35b6100d561038c565b6040516100e2919061058d565b60405180910390f35b5f5f9054906101000a900473ffffffffffffffffffffffffffffffffffffffff1673ffffffffffffffffffffffffffffffffffffffff163373ffffffffffffffffffffffffffffffffffffffff1614610179576040517f08c379a000000000000000000000000000000000000000000000000000000000815260040161017090610600565b60405180910390fd5b5f8284610186919061064b565b90508473ffffffffffffffffffffffffffffffffffffffff1663a9059cbb5f5f9054906101000a900473ffffffffffffffffffffffffffffffffffffffff16836040518363ffffffff1660e01b81526004016101e392919061068d565b6020604051808303815f875af11580156101ff573d5f5f3e3d5ffd5b505050506040513d601f19601f8201168201806040525081019061022391906106e9565b505050505050565b60025f9054906101000a900473ffffffffffffffffffffffffffffffffffffffff1681565b60025f9054906101000a900473ffffffffffffffffffffffffffffffffffffffff1673ffffffffffffffffffffffffffffffffffffffff163373ffffffffffffffffffffffffffffffffffffffff16146102df576040517f08c379a00000000000000000000000000000000000000000000000000000000081526004016102d69061075e565b60405180910390fd5b5f5f9054906101000a900473ffffffffffffffffffffffffffffffffffffffff1673ffffffffffffffffffffffffffffffffffffffff16639ab603b9826040518263ffffffff1660e01b8152600401610338919061077c565b5f604051808303815f87803b15801561034f575f5ffd5b505af1158015610361573d5f5f3e3d5ffd5b5050505050565b5f5f9054906101000a900473ffffffffffffffffffffffffffffffffffffffff1681565b60015f9054906101000a900473ffffffffffffffffffffffffffffffffffffffff1681565b5f5ffd5b5f73ffffffffffffffffffffffffffffffffffffffff82169050919050565b5f6103de826103b5565b9050919050565b6103ee816103d4565b81146103f8575f5ffd5b50565b5f81359050610409816103e5565b92915050565b5f819050919050565b6104218161040f565b811461042b575f5ffd5b50565b5f8135905061043c81610418565b92915050565b5f5f5f5f6080858703121561045a576104596103b1565b5b5f610467878288016103fb565b94505060206104788782880161042e565b93505060406104898782880161042e565b925050606061049a878288016103fb565b91505092959194509250565b6104af816103d4565b82525050565b5f6020820190506104c85f8301846104a6565b92915050565b5f602082840312156104e3576104e26103b1565b5b5f6104f08482850161042e565b91505092915050565b5f819050919050565b5f61051c610517610512846103b5565b6104f9565b6103b5565b9050919050565b5f61052d82610502565b9050919050565b5f61053e82610523565b9050919050565b61054e81610534565b82525050565b5f6020820190506105675f830184610545565b92915050565b5f61057782610523565b9050919050565b6105878161056d565b82525050565b5f6020820190506105a05f83018461057e565b92915050565b5f82825260208201905092915050565b7f4f6e6c79206c656e6465722063616e2063616c6c0000000000000000000000005f82015250565b5f6105ea6014836105a6565b91506105f5826105b6565b602082019050919050565b5f6020820190508181035f830152610617816105de565b9050919050565b7f4e487b71000000000000000000000000000000000000000000000000000000005f52601160045260245ffd5b5f6106558261040f565b91506106608361040f565b92508282019050808211156106785761067761061e565b5b92915050565b6106878161040f565b82525050565b5f6040820190506106a05f8301856104a6565b6106ad602083018461067e565b9392505050565b5f8115159050919050565b6106c8816106b4565b81146106d2575f5ffd5b50565b5f815190506106e3816106bf565b92915050565b5f602082840312156106fe576106fd6103b1565b5b5f61070b848285016106d5565b91505092915050565b7f4e6f74206f776e657200000000000000000000000000000000000000000000005f82015250565b5f6107486009836105a6565b915061075382610714565b602082019050919050565b5f6020820190508181035f8301526107758161073c565b9050919050565b5f60208201905061078f5f83018461067e565b9291505056fea26469706673582212202ca14a35d079028efb74de179427e086a2114d19804b006dab9ca14b70dff83964736f6c634300081e0033",
					"opcodes": "PUSH1 0x80 PUSH1 0x40 MSTORE CALLVALUE DUP1 ISZERO PUSH2 0xF JUMPI PUSH0 PUSH0 REVERT JUMPDEST POP PUSH1 0x40 MLOAD PUSH2 0x96B CODESIZE SUB DUP1 PUSH2 0x96B DUP4 CODECOPY DUP2 DUP2 ADD PUSH1 0x40 MSTORE DUP2 ADD SWAP1 PUSH2 0x31 SWAP2 SWAP1 PUSH2 0x155 JUMP JUMPDEST DUP2 PUSH0 PUSH0 PUSH2 0x100 EXP DUP2 SLOAD DUP2 PUSH20 0xFFFFFFFFFFFFFFFFFFFFFFFFFFFFFFFFFFFFFFFF MUL NOT AND SWAP1 DUP4 PUSH20 0xFFFFFFFFFFFFFFFFFFFFFFFFFFFFFFFFFFFFFFFF AND MUL OR SWAP1 SSTORE POP DUP1 PUSH1 0x1 PUSH0 PUSH2 0x100 EXP DUP2 SLOAD DUP2 PUSH20 0xFFFFFFFFFFFFFFFFFFFFFFFFFFFFFFFFFFFFFFFF MUL NOT AND SWAP1 DUP4 PUSH20 0xFFFFFFFFFFFFFFFFFFFFFFFFFFFFFFFFFFFFFFFF AND MUL OR SWAP1 SSTORE POP CALLER PUSH1 0x2 PUSH0 PUSH2 0x100 EXP DUP2 SLOAD DUP2 PUSH20 0xFFFFFFFFFFFFFFFFFFFFFFFFFFFFFFFFFFFFFFFF MUL NOT AND SWAP1 DUP4 PUSH20 0xFFFFFFFFFFFFFFFFFFFFFFFFFFFFFFFFFFFFFFFF AND MUL OR SWAP1 SSTORE POP POP POP PUSH2 0x193 JUMP JUMPDEST PUSH0 PUSH0 REVERT JUMPDEST PUSH0 PUSH20 0xFFFFFFFFFFFFFFFFFFFFFFFFFFFFFFFFFFFFFFFF DUP3 AND SWAP1 POP SWAP2 SWAP1 POP JUMP JUMPDEST PUSH0 PUSH2 0x124 DUP3 PUSH2 0xFB JUMP JUMPDEST SWAP1 POP SWAP2 SWAP1 POP JUMP JUMPDEST PUSH2 0x134 DUP2 PUSH2 0x11A JUMP JUMPDEST DUP2 EQ PUSH2 0x13E JUMPI PUSH0 PUSH0 REVERT JUMPDEST POP JUMP JUMPDEST PUSH0 DUP2 MLOAD SWAP1 POP PUSH2 0x14F DUP2 PUSH2 0x12B JUMP JUMPDEST SWAP3 SWAP2 POP POP JUMP JUMPDEST PUSH0 PUSH0 PUSH1 0x40 DUP4 DUP6 SUB SLT ISZERO PUSH2 0x16B JUMPI PUSH2 0x16A PUSH2 0xF7 JUMP JUMPDEST JUMPDEST PUSH0 PUSH2 0x178 DUP6 DUP3 DUP7 ADD PUSH2 0x141 JUMP JUMPDEST SWAP3 POP POP PUSH1 0x20 PUSH2 0x189 DUP6 DUP3 DUP7 ADD PUSH2 0x141 JUMP JUMPDEST SWAP2 POP POP SWAP3 POP SWAP3 SWAP1 POP JUMP JUMPDEST PUSH2 0x7CB DUP1 PUSH2 0x1A0 PUSH0 CODECOPY PUSH0 RETURN INVALID PUSH1 0x80 PUSH1 0x40 MSTORE CALLVALUE DUP1 ISZERO PUSH2 0xF JUMPI PUSH0 PUSH0 REVERT JUMPDEST POP PUSH1 0x4 CALLDATASIZE LT PUSH2 0x55 JUMPI PUSH0 CALLDATALOAD PUSH1 0xE0 SHR DUP1 PUSH4 0x64F9510E EQ PUSH2 0x59 JUMPI DUP1 PUSH4 0x8DA5CB5B EQ PUSH2 0x75 JUMPI DUP1 PUSH4 0x94CF612A EQ PUSH2 0x93 JUMPI DUP1 PUSH4 0xBCEAD63E EQ PUSH2 0xAF JUMPI DUP1 PUSH4 0xFC0C546A EQ PUSH2 0xCD JUMPI JUMPDEST PUSH0 PUSH0 REVERT JUMPDEST PUSH2 0x73 PUSH1 0x4 DUP1 CALLDATASIZE SUB DUP2 ADD SWAP1 PUSH2 0x6E SWAP2 SWAP1 PUSH2 0x442 JUMP JUMPDEST PUSH2 0xEB JUMP JUMPDEST STOP JUMPDEST PUSH2 0x7D PUSH2 0x22B JUMP JUMPDEST PUSH1 0x40 MLOAD PUSH2 0x8A SWAP2 SWAP1 PUSH2 0x4B5 JUMP JUMPDEST PUSH1 0x40 MLOAD DUP1 SWAP2 SUB SWAP1 RETURN JUMPDEST PUSH2 0xAD PUSH1 0x4 DUP1 CALLDATASIZE SUB DUP2 ADD SWAP1 PUSH2 0xA8 SWAP2 SWAP1 PUSH2 0x4CE JUMP JUMPDEST PUSH2 0x250 JUMP JUMPDEST STOP JUMPDEST PUSH2 0xB7 PUSH2 0x368 JUMP JUMPDEST PUSH1 0x40 MLOAD PUSH2 0xC4 SWAP2 SWAP1 PUSH2 0x554 JUMP JUMPDEST PUSH1 0x40 MLOAD DUP1 SWAP2 SUB SWAP1 RETURN JUMPDEST PUSH2 0xD5 PUSH2 0x38C JUMP JUMPDEST PUSH1 0x40 MLOAD PUSH2 0xE2 SWAP2 SWAP1 PUSH2 0x58D JUMP JUMPDEST PUSH1 0x40 MLOAD DUP1 SWAP2 SUB SWAP1 RETURN JUMPDEST PUSH0 PUSH0 SWAP1 SLOAD SWAP1 PUSH2 0x100 EXP SWAP1 DIV PUSH20 0xFFFFFFFFFFFFFFFFFFFFFFFFFFFFFFFFFFFFFFFF AND PUSH20 0xFFFFFFFFFFFFFFFFFFFFFFFFFFFFFFFFFFFFFFFF AND CALLER PUSH20 0xFFFFFFFFFFFFFFFFFFFFFFFFFFFFFFFFFFFFFFFF AND EQ PUSH2 0x179 JUMPI PUSH1 0x40 MLOAD PUSH32 0x8C379A000000000000000000000000000000000000000000000000000000000 DUP2 MSTORE PUSH1 0x4 ADD PUSH2 0x170 SWAP1 PUSH2 0x600 JUMP JUMPDEST PUSH1 0x40 MLOAD DUP1 SWAP2 SUB SWAP1 REVERT JUMPDEST PUSH0 DUP3 DUP5 PUSH2 0x186 SWAP2 SWAP1 PUSH2 0x64B JUMP JUMPDEST SWAP1 POP DUP5 PUSH20 0xFFFFFFFFFFFFFFFFFFFFFFFFFFFFFFFFFFFFFFFF AND PUSH4 0xA9059CBB PUSH0 PUSH0 SWAP1 SLOAD SWAP1 PUSH2 0x100 EXP SWAP1 DIV PUSH20 0xFFFFFFFFFFFFFFFFFFFFFFFFFFFFFFFFFFFFFFFF AND DUP4 PUSH1 0x40 MLOAD DUP4 PUSH4 0xFFFFFFFF AND PUSH1 0xE0 SHL DUP2 MSTORE PUSH1 0x4 ADD PUSH2 0x1E3 SWAP3 SWAP2 SWAP1 PUSH2 0x68D JUMP JUMPDEST PUSH1 0x20 PUSH1 0x40 MLOAD DUP1 DUP4 SUB DUP2 PUSH0 DUP8 GAS CALL ISZERO DUP1 ISZERO PUSH2 0x1FF JUMPI RETURNDATASIZE PUSH0 PUSH0 RETURNDATACOPY RETURNDATASIZE PUSH0 REVERT JUMPDEST POP POP POP POP PUSH1 0x40 MLOAD RETURNDATASIZE PUSH1 0x1F NOT PUSH1 0x1F DUP3 ADD AND DUP3 ADD DUP1 PUSH1 0x40 MSTORE POP DUP2 ADD SWAP1 PUSH2 0x223 SWAP2 SWAP1 PUSH2 0x6E9 JUMP JUMPDEST POP POP POP POP POP POP JUMP JUMPDEST PUSH1 0x2 PUSH0 SWAP1 SLOAD SWAP1 PUSH2 0x100 EXP SWAP1 DIV PUSH20 0xFFFFFFFFFFFFFFFFFFFFFFFFFFFFFFFFFFFFFFFF AND DUP2 JUMP JUMPDEST PUSH1 0x2 PUSH0 SWAP1 SLOAD SWAP1 PUSH2 0x100 EXP SWAP1 DIV PUSH20 0xFFFFFFFFFFFFFFFFFFFFFFFFFFFFFFFFFFFFFFFF AND PUSH20 0xFFFFFFFFFFFFFFFFFFFFFFFFFFFFFFFFFFFFFFFF AND CALLER PUSH20 0xFFFFFFFFFFFFFFFFFFFFFFFFFFFFFFFFFFFFFFFF AND EQ PUSH2 0x2DF JUMPI PUSH1 0x40 MLOAD PUSH32 0x8C379A000000000000000000000000000000000000000000000000000000000 DUP2 MSTORE PUSH1 0x4 ADD PUSH2 0x2D6 SWAP1 PUSH2 0x75E JUMP JUMPDEST PUSH1 0x40 MLOAD DUP1 SWAP2 SUB SWAP1 REVERT JUMPDEST PUSH0 PUSH0 SWAP1 SLOAD SWAP1 PUSH2 0x100 EXP SWAP1 DIV PUSH20 0xFFFFFFFFFFFFFFFFFFFFFFFFFFFFFFFFFFFFFFFF AND PUSH20 0xFFFFFFFFFFFFFFFFFFFFFFFFFFFFFFFFFFFFFFFF AND PUSH4 0x9AB603B9 DUP3 PUSH1 0x40 MLOAD DUP3 PUSH4 0xFFFFFFFF AND PUSH1 0xE0 SHL DUP2 MSTORE PUSH1 0x4 ADD PUSH2 0x338 SWAP2 SWAP1 PUSH2 0x77C JUMP JUMPDEST PUSH0 PUSH1 0x40 MLOAD DUP1 DUP4 SUB DUP2 PUSH0 DUP8 DUP1 EXTCODESIZE ISZERO DUP1 ISZERO PUSH2 0x34F JUMPI PUSH0 PUSH0 REVERT JUMPDEST POP GAS CALL ISZERO DUP1 ISZERO PUSH2 0x361 JUMPI RETURNDATASIZE PUSH0 PUSH0 RETURNDATACOPY RETURNDATASIZE PUSH0 REVERT JUMPDEST POP POP POP POP POP JUMP JUMPDEST PUSH0 PUSH0 SWAP1 SLOAD SWAP1 PUSH2 0x100 EXP SWAP1 DIV PUSH20 0xFFFFFFFFFFFFFFFFFFFFFFFFFFFFFFFFFFFFFFFF AND DUP2 JUMP JUMPDEST PUSH1 0x1 PUSH0 SWAP1 SLOAD SWAP1 PUSH2 0x100 EXP SWAP1 DIV PUSH20 0xFFFFFFFFFFFFFFFFFFFFFFFFFFFFFFFFFFFFFFFF AND DUP2 JUMP JUMPDEST PUSH0 PUSH0 REVERT JUMPDEST PUSH0 PUSH20 0xFFFFFFFFFFFFFFFFFFFFFFFFFFFFFFFFFFFFFFFF DUP3 AND SWAP1 POP SWAP2 SWAP1 POP JUMP JUMPDEST PUSH0 PUSH2 0x3DE DUP3 PUSH2 0x3B5 JUMP JUMPDEST SWAP1 POP SWAP2 SWAP1 POP JUMP JUMPDEST PUSH2 0x3EE DUP2 PUSH2 0x3D4 JUMP JUMPDEST DUP2 EQ PUSH2 0x3F8 JUMPI PUSH0 PUSH0 REVERT JUMPDEST POP JUMP JUMPDEST PUSH0 DUP2 CALLDATALOAD SWAP1 POP PUSH2 0x409 DUP2 PUSH2 0x3E5 JUMP JUMPDEST SWAP3 SWAP2 POP POP JUMP JUMPDEST PUSH0 DUP2 SWAP1 POP SWAP2 SWAP1 POP JUMP JUMPDEST PUSH2 0x421 DUP2 PUSH2 0x40F JUMP JUMPDEST DUP2 EQ PUSH2 0x42B JUMPI PUSH0 PUSH0 REVERT JUMPDEST POP JUMP JUMPDEST PUSH0 DUP2 CALLDATALOAD SWAP1 POP PUSH2 0x43C DUP2 PUSH2 0x418 JUMP JUMPDEST SWAP3 SWAP2 POP POP JUMP JUMPDEST PUSH0 PUSH0 PUSH0 PUSH0 PUSH1 0x80 DUP6 DUP8 SUB SLT ISZERO PUSH2 0x45A JUMPI PUSH2 0x459 PUSH2 0x3B1 JUMP JUMPDEST JUMPDEST PUSH0 PUSH2 0x467 DUP8 DUP3 DUP9 ADD PUSH2 0x3FB JUMP JUMPDEST SWAP5 POP POP PUSH1 0x20 PUSH2 0x478 DUP8 DUP3 DUP9 ADD PUSH2 0x42E JUMP JUMPDEST SWAP4 POP POP PUSH1 0x40 PUSH2 0x489 DUP8 DUP3 DUP9 ADD PUSH2 0x42E JUMP JUMPDEST SWAP3 POP POP PUSH1 0x60 PUSH2 0x49A DUP8 DUP3 DUP9 ADD PUSH2 0x3FB JUMP JUMPDEST SWAP2 POP POP SWAP3 SWAP6 SWAP2 SWAP5 POP SWAP3 POP JUMP JUMPDEST PUSH2 0x4AF DUP2 PUSH2 0x3D4 JUMP JUMPDEST DUP3 MSTORE POP POP JUMP JUMPDEST PUSH0 PUSH1 0x20 DUP3 ADD SWAP1 POP PUSH2 0x4C8 PUSH0 DUP4 ADD DUP5 PUSH2 0x4A6 JUMP JUMPDEST SWAP3 SWAP2 POP POP JUMP JUMPDEST PUSH0 PUSH1 0x20 DUP3 DUP5 SUB SLT ISZERO PUSH2 0x4E3 JUMPI PUSH2 0x4E2 PUSH2 0x3B1 JUMP JUMPDEST JUMPDEST PUSH0 PUSH2 0x4F0 DUP5 DUP3 DUP6 ADD PUSH2 0x42E JUMP JUMPDEST SWAP2 POP POP SWAP3 SWAP2 POP POP JUMP JUMPDEST PUSH0 DUP2 SWAP1 POP SWAP2 SWAP1 POP JUMP JUMPDEST PUSH0 PUSH2 0x51C PUSH2 0x517 PUSH2 0x512 DUP5 PUSH2 0x3B5 JUMP JUMPDEST PUSH2 0x4F9 JUMP JUMPDEST PUSH2 0x3B5 JUMP JUMPDEST SWAP1 POP SWAP2 SWAP1 POP JUMP JUMPDEST PUSH0 PUSH2 0x52D DUP3 PUSH2 0x502 JUMP JUMPDEST SWAP1 POP SWAP2 SWAP1 POP JUMP JUMPDEST PUSH0 PUSH2 0x53E DUP3 PUSH2 0x523 JUMP JUMPDEST SWAP1 POP SWAP2 SWAP1 POP JUMP JUMPDEST PUSH2 0x54E DUP2 PUSH2 0x534 JUMP JUMPDEST DUP3 MSTORE POP POP JUMP JUMPDEST PUSH0 PUSH1 0x20 DUP3 ADD SWAP1 POP PUSH2 0x567 PUSH0 DUP4 ADD DUP5 PUSH2 0x545 JUMP JUMPDEST SWAP3 SWAP2 POP POP JUMP JUMPDEST PUSH0 PUSH2 0x577 DUP3 PUSH2 0x523 JUMP JUMPDEST SWAP1 POP SWAP2 SWAP1 POP JUMP JUMPDEST PUSH2 0x587 DUP2 PUSH2 0x56D JUMP JUMPDEST DUP3 MSTORE POP POP JUMP JUMPDEST PUSH0 PUSH1 0x20 DUP3 ADD SWAP1 POP PUSH2 0x5A0 PUSH0 DUP4 ADD DUP5 PUSH2 0x57E JUMP JUMPDEST SWAP3 SWAP2 POP POP JUMP JUMPDEST PUSH0 DUP3 DUP3 MSTORE PUSH1 0x20 DUP3 ADD SWAP1 POP SWAP3 SWAP2 POP POP JUMP JUMPDEST PUSH32 0x4F6E6C79206C656E6465722063616E2063616C6C000000000000000000000000 PUSH0 DUP3 ADD MSTORE POP JUMP JUMPDEST PUSH0 PUSH2 0x5EA PUSH1 0x14 DUP4 PUSH2 0x5A6 JUMP JUMPDEST SWAP2 POP PUSH2 0x5F5 DUP3 PUSH2 0x5B6 JUMP JUMPDEST PUSH1 0x20 DUP3 ADD SWAP1 POP SWAP2 SWAP1 POP JUMP JUMPDEST PUSH0 PUSH1 0x20 DUP3 ADD SWAP1 POP DUP2 DUP2 SUB PUSH0 DUP4 ADD MSTORE PUSH2 0x617 DUP2 PUSH2 0x5DE JUMP JUMPDEST SWAP1 POP SWAP2 SWAP1 POP JUMP JUMPDEST PUSH32 0x4E487B7100000000000000000000000000000000000000000000000000000000 PUSH0 MSTORE PUSH1 0x11 PUSH1 0x4 MSTORE PUSH1 0x24 PUSH0 REVERT JUMPDEST PUSH0 PUSH2 0x655 DUP3 PUSH2 0x40F JUMP JUMPDEST SWAP2 POP PUSH2 0x660 DUP4 PUSH2 0x40F JUMP JUMPDEST SWAP3 POP DUP3 DUP3 ADD SWAP1 POP DUP1 DUP3 GT ISZERO PUSH2 0x678 JUMPI PUSH2 0x677 PUSH2 0x61E JUMP JUMPDEST JUMPDEST SWAP3 SWAP2 POP POP JUMP JUMPDEST PUSH2 0x687 DUP2 PUSH2 0x40F JUMP JUMPDEST DUP3 MSTORE POP POP JUMP JUMPDEST PUSH0 PUSH1 0x40 DUP3 ADD SWAP1 POP PUSH2 0x6A0 PUSH0 DUP4 ADD DUP6 PUSH2 0x4A6 JUMP JUMPDEST PUSH2 0x6AD PUSH1 0x20 DUP4 ADD DUP5 PUSH2 0x67E JUMP JUMPDEST SWAP4 SWAP3 POP POP POP JUMP JUMPDEST PUSH0 DUP2 ISZERO ISZERO SWAP1 POP SWAP2 SWAP1 POP JUMP JUMPDEST PUSH2 0x6C8 DUP2 PUSH2 0x6B4 JUMP JUMPDEST DUP2 EQ PUSH2 0x6D2 JUMPI PUSH0 PUSH0 REVERT JUMPDEST POP JUMP JUMPDEST PUSH0 DUP2 MLOAD SWAP1 POP PUSH2 0x6E3 DUP2 PUSH2 0x6BF JUMP JUMPDEST SWAP3 SWAP2 POP POP JUMP JUMPDEST PUSH0 PUSH1 0x20 DUP3 DUP5 SUB SLT ISZERO PUSH2 0x6FE JUMPI PUSH2 0x6FD PUSH2 0x3B1 JUMP JUMPDEST JUMPDEST PUSH0 PUSH2 0x70B DUP5 DUP3 DUP6 ADD PUSH2 0x6D5 JUMP JUMPDEST SWAP2 POP POP SWAP3 SWAP2 POP POP JUMP JUMPDEST PUSH32 0x4E6F74206F776E65720000000000000000000000000000000000000000000000 PUSH0 DUP3 ADD MSTORE POP JUMP JUMPDEST PUSH0 PUSH2 0x748 PUSH1 0x9 DUP4 PUSH2 0x5A6 JUMP JUMPDEST SWAP2 POP PUSH2 0x753 DUP3 PUSH2 0x714 JUMP JUMPDEST PUSH1 0x20 DUP3 ADD SWAP1 POP SWAP2 SWAP1 POP JUMP JUMPDEST PUSH0 PUSH1 0x20 DUP3 ADD SWAP1 POP DUP2 DUP2 SUB PUSH0 DUP4 ADD MSTORE PUSH2 0x775 DUP2 PUSH2 0x73C JUMP JUMPDEST SWAP1 POP SWAP2 SWAP1 POP JUMP JUMPDEST PUSH0 PUSH1 0x20 DUP3 ADD SWAP1 POP PUSH2 0x78F PUSH0 DUP4 ADD DUP5 PUSH2 0x67E JUMP JUMPDEST SWAP3 SWAP2 POP POP JUMP INVALID LOG2 PUSH5 0x6970667358 0x22 SLT KECCAK256 0x2C LOG1 BLOBBASEFEE CALLDATALOAD 0xD0 PUSH26 0x28EFB74DE179427E086A2114D19804B006DAB9CA14B70DFF839 PUSH5 0x736F6C6343 STOP ADDMOD 0x1E STOP CALLER "
				},
				"gasEstimates": {
					"creation": {
						"codeDepositCost": "399000",
						"executionCost": "infinite",
						"totalCost": "infinite"
					},
					"external": {
						"executeOperation(address,uint256,uint256,address)": "infinite",
						"lender()": "infinite",
						"owner()": "2508",
						"startFlashLoan(uint256)": "infinite",
						"token()": "infinite"
					}
				},
				"methodIdentifiers": {
					"executeOperation(address,uint256,uint256,address)": "64f9510e",
					"lender()": "bcead63e",
					"owner()": "8da5cb5b",
					"startFlashLoan(uint256)": "94cf612a",
					"token()": "fc0c546a"
				}
			},
			"storageLayout": {
				"storage": [
					{
						"astId": 103,
						"contract": "Smart Contracts/22_FlashLoanBorrower.sol:FlashLoanBorrower",
						"label": "lender",
						"offset": 0,
						"slot": "0",
						"type": "t_contract(IFlashLoan)86"
					},
					{
						"astId": 106,
						"contract": "Smart Contracts/22_FlashLoanBorrower.sol:FlashLoanBorrower",
						"label": "token",
						"offset": 0,
						"slot": "1",
						"type": "t_contract(IERC20)77"
					},
					{
						"astId": 108,
						"contract": "Smart Contracts/22_FlashLoanBorrower.sol:FlashLoanBorrower",
						"label": "owner",
						"offset": 0,
						"slot": "2",
						"type": "t_address"
					}
				],
				"types": {
					"t_address": {
						"encoding": "inplace",
						"label": "address",
						"numberOfBytes": "20"
					},
					"t_contract(IERC20)77": {
						"encoding": "inplace",
						"label": "contract IERC20",
						"numberOfBytes": "20"
					},
					"t_contract(IFlashLoan)86": {
						"encoding": "inplace",
						"label": "contract IFlashLoan",
						"numberOfBytes": "20"
					}
				}
			},
			"userdoc": {
				"kind": "user",
				"methods": {},
				"version": 1
			}
		}
	}
}