{
	"Smart Contracts/8_Lottery.sol": {
		"LotterySimulatedVRF": {
			"abi": [
				{
					"inputs": [
						{
							"internalType": "uint256",
							"name": "fees",
							"type": "uint256"
						}
					],
					"stateMutability": "nonpayable",
					"type": "constructor"
				},
				{
					"anonymous": false,
					"inputs": [
						{
							"indexed": false,
							"internalType": "address",
							"name": "player",
							"type": "address"
						},
						{
							"indexed": false,
							"internalType": "uint256",
							"name": "id",
							"type": "uint256"
						}
					],
					"name": "PlayerRegistered",
					"type": "event"
				},
				{
					"anonymous": false,
					"inputs": [
						{
							"indexed": false,
							"internalType": "address",
							"name": "winner",
							"type": "address"
						},
						{
							"indexed": false,
							"internalType": "uint256",
							"name": "amount",
							"type": "uint256"
						}
					],
					"name": "WinnerPicked",
					"type": "event"
				},
				{
					"inputs": [],
					"name": "entryFees",
					"outputs": [
						{
							"internalType": "uint256",
							"name": "",
							"type": "uint256"
						}
					],
					"stateMutability": "view",
					"type": "function"
				},
				{
					"inputs": [],
					"name": "getPlayersLength",
					"outputs": [
						{
							"internalType": "uint256",
							"name": "",
							"type": "uint256"
						}
					],
					"stateMutability": "view",
					"type": "function"
				},
				{
					"inputs": [],
					"name": "getWinner",
					"outputs": [],
					"stateMutability": "nonpayable",
					"type": "function"
				},
				{
					"inputs": [],
					"name": "lastWinner",
					"outputs": [
						{
							"internalType": "address",
							"name": "",
							"type": "address"
						}
					],
					"stateMutability": "view",
					"type": "function"
				},
				{
					"inputs": [],
					"name": "lotteryState",
					"outputs": [
						{
							"internalType": "enum LotterySimulatedVRF.LotteryState",
							"name": "",
							"type": "uint8"
						}
					],
					"stateMutability": "view",
					"type": "function"
				},
				{
					"inputs": [],
					"name": "owner",
					"outputs": [
						{
							"internalType": "address",
							"name": "",
							"type": "address"
						}
					],
					"stateMutability": "view",
					"type": "function"
				},
				{
					"inputs": [
						{
							"internalType": "uint256",
							"name": "",
							"type": "uint256"
						}
					],
					"name": "players",
					"outputs": [
						{
							"internalType": "uint256",
							"name": "id",
							"type": "uint256"
						},
						{
							"internalType": "address",
							"name": "playerAddress",
							"type": "address"
						}
					],
					"stateMutability": "view",
					"type": "function"
				},
				{
					"inputs": [],
					"name": "register",
					"outputs": [],
					"stateMutability": "payable",
					"type": "function"
				},
				{
					"inputs": [],
					"name": "totalPool",
					"outputs": [
						{
							"internalType": "uint256",
							"name": "",
							"type": "uint256"
						}
					],
					"stateMutability": "view",
					"type": "function"
				}
			],
			"devdoc": {
				"kind": "dev",
				"methods": {},
				"version": 1
			},
			"evm": {
				"assembly": "    /* \"Smart Contracts/8_Lottery.sol\":60:2173  contract LotterySimulatedVRF {... */\n  mstore(0x40, 0x80)\n    /* \"Smart Contracts/8_Lottery.sol\":547:745  constructor(uint fees) {... */\n  callvalue\n  dup1\n  iszero\n  tag_1\n  jumpi\n  revert(0x00, 0x00)\ntag_1:\n  pop\n  mload(0x40)\n  sub(codesize, bytecodeSize)\n  dup1\n  bytecodeSize\n  dup4\n  codecopy\n  dup2\n  dup2\n  add\n  0x40\n  mstore\n  dup2\n  add\n  swap1\n  tag_2\n  swap2\n  swap1\n  tag_3\n  jump\t// in\ntag_2:\n    /* \"Smart Contracts/8_Lottery.sol\":596:597  0 */\n  0x00\n    /* \"Smart Contracts/8_Lottery.sol\":589:593  fees */\n  dup2\n    /* \"Smart Contracts/8_Lottery.sol\":589:597  fees > 0 */\n  gt\n    /* \"Smart Contracts/8_Lottery.sol\":581:638  require(fees > 0, \"Entry fees must be greater than zero\") */\n  tag_6\n  jumpi\n  mload(0x40)\n  0x08c379a000000000000000000000000000000000000000000000000000000000\n  dup2\n  mstore\n  0x04\n  add\n  tag_7\n  swap1\n  tag_8\n  jump\t// in\ntag_7:\n  mload(0x40)\n  dup1\n  swap2\n  sub\n  swap1\n  revert\ntag_6:\n    /* \"Smart Contracts/8_Lottery.sol\":657:667  msg.sender */\n  caller\n    /* \"Smart Contracts/8_Lottery.sol\":649:654  owner */\n  0x01\n  0x00\n    /* \"Smart Contracts/8_Lottery.sol\":649:667  owner = msg.sender */\n  0x0100\n  exp\n  dup2\n  sload\n  dup2\n  0xffffffffffffffffffffffffffffffffffffffff\n  mul\n  not\n  and\n  swap1\n  dup4\n  0xffffffffffffffffffffffffffffffffffffffff\n  and\n  mul\n  or\n  swap1\n  sstore\n  pop\n    /* \"Smart Contracts/8_Lottery.sol\":690:694  fees */\n  dup1\n    /* \"Smart Contracts/8_Lottery.sol\":678:687  entryFees */\n  0x00\n    /* \"Smart Contracts/8_Lottery.sol\":678:694  entryFees = fees */\n  dup2\n  swap1\n  sstore\n  pop\n    /* \"Smart Contracts/8_Lottery.sol\":720:737  LotteryState.OPEN */\n  0x00\n    /* \"Smart Contracts/8_Lottery.sol\":705:717  lotteryState */\n  0x01\n  0x14\n    /* \"Smart Contracts/8_Lottery.sol\":705:737  lotteryState = LotteryState.OPEN */\n  0x0100\n  exp\n  dup2\n  sload\n  dup2\n  0xff\n  mul\n  not\n  and\n  swap1\n  dup4\n  0x01\n  dup2\n  gt\n  iszero\n  tag_9\n  jumpi\n  tag_10\n  tag_11\n  jump\t// in\ntag_10:\ntag_9:\n  mul\n  or\n  swap1\n  sstore\n  pop\n    /* \"Smart Contracts/8_Lottery.sol\":547:745  constructor(uint fees) {... */\n  pop\n    /* \"Smart Contracts/8_Lottery.sol\":60:2173  contract LotterySimulatedVRF {... */\n  jump(tag_12)\n    /* \"#utility.yul\":88:205   */\ntag_14:\n    /* \"#utility.yul\":197:198   */\n  0x00\n    /* \"#utility.yul\":194:195   */\n  0x00\n    /* \"#utility.yul\":187:199   */\n  revert\n    /* \"#utility.yul\":334:411   */\ntag_16:\n    /* \"#utility.yul\":371:378   */\n  0x00\n    /* \"#utility.yul\":400:405   */\n  dup2\n    /* \"#utility.yul\":389:405   */\n  swap1\n  pop\n    /* \"#utility.yul\":334:411   */\n  swap2\n  swap1\n  pop\n  jump\t// out\n    /* \"#utility.yul\":417:539   */\ntag_17:\n    /* \"#utility.yul\":490:514   */\n  tag_28\n    /* \"#utility.yul\":508:513   */\n  dup2\n    /* \"#utility.yul\":490:514   */\n  tag_16\n  jump\t// in\ntag_28:\n    /* \"#utility.yul\":483:488   */\n  dup2\n    /* \"#utility.yul\":480:515   */\n  eq\n    /* \"#utility.yul\":470:533   */\n  tag_29\n  jumpi\n    /* \"#utility.yul\":529:530   */\n  0x00\n    /* \"#utility.yul\":526:527   */\n  0x00\n    /* \"#utility.yul\":519:531   */\n  revert\n    /* \"#utility.yul\":470:533   */\ntag_29:\n    /* \"#utility.yul\":417:539   */\n  pop\n  jump\t// out\n    /* \"#utility.yul\":545:688   */\ntag_18:\n    /* \"#utility.yul\":602:607   */\n  0x00\n    /* \"#utility.yul\":633:639   */\n  dup2\n    /* \"#utility.yul\":627:640   */\n  mload\n    /* \"#utility.yul\":618:640   */\n  swap1\n  pop\n    /* \"#utility.yul\":649:682   */\n  tag_31\n    /* \"#utility.yul\":676:681   */\n  dup2\n    /* \"#utility.yul\":649:682   */\n  tag_17\n  jump\t// in\ntag_31:\n    /* \"#utility.yul\":545:688   */\n  swap3\n  swap2\n  pop\n  pop\n  jump\t// out\n    /* \"#utility.yul\":694:1045   */\ntag_3:\n    /* \"#utility.yul\":764:770   */\n  0x00\n    /* \"#utility.yul\":813:815   */\n  0x20\n    /* \"#utility.yul\":801:810   */\n  dup3\n    /* \"#utility.yul\":792:799   */\n  dup5\n    /* \"#utility.yul\":788:811   */\n  sub\n    /* \"#utility.yul\":784:816   */\n  slt\n    /* \"#utility.yul\":781:900   */\n  iszero\n  tag_33\n  jumpi\n    /* \"#utility.yul\":819:898   */\n  tag_34\n  tag_14\n  jump\t// in\ntag_34:\n    /* \"#utility.yul\":781:900   */\ntag_33:\n    /* \"#utility.yul\":939:940   */\n  0x00\n    /* \"#utility.yul\":964:1028   */\n  tag_35\n    /* \"#utility.yul\":1020:1027   */\n  dup5\n    /* \"#utility.yul\":1011:1017   */\n  dup3\n    /* \"#utility.yul\":1000:1009   */\n  dup6\n    /* \"#utility.yul\":996:1018   */\n  add\n    /* \"#utility.yul\":964:1028   */\n  tag_18\n  jump\t// in\ntag_35:\n    /* \"#utility.yul\":954:1028   */\n  swap2\n  pop\n    /* \"#utility.yul\":910:1038   */\n  pop\n    /* \"#utility.yul\":694:1045   */\n  swap3\n  swap2\n  pop\n  pop\n  jump\t// out\n    /* \"#utility.yul\":1051:1220   */\ntag_19:\n    /* \"#utility.yul\":1135:1146   */\n  0x00\n    /* \"#utility.yul\":1169:1175   */\n  dup3\n    /* \"#utility.yul\":1164:1167   */\n  dup3\n    /* \"#utility.yul\":1157:1176   */\n  mstore\n    /* \"#utility.yul\":1209:1213   */\n  0x20\n    /* \"#utility.yul\":1204:1207   */\n  dup3\n    /* \"#utility.yul\":1200:1214   */\n  add\n    /* \"#utility.yul\":1185:1214   */\n  swap1\n  pop\n    /* \"#utility.yul\":1051:1220   */\n  swap3\n  swap2\n  pop\n  pop\n  jump\t// out\n    /* \"#utility.yul\":1226:1449   */\ntag_20:\n    /* \"#utility.yul\":1366:1400   */\n  0x456e7472792066656573206d7573742062652067726561746572207468616e20\n    /* \"#utility.yul\":1362:1363   */\n  0x00\n    /* \"#utility.yul\":1354:1360   */\n  dup3\n    /* \"#utility.yul\":1350:1364   */\n  add\n    /* \"#utility.yul\":1343:1401   */\n  mstore\n    /* \"#utility.yul\":1435:1441   */\n  0x7a65726f00000000000000000000000000000000000000000000000000000000\n    /* \"#utility.yul\":1430:1432   */\n  0x20\n    /* \"#utility.yul\":1422:1428   */\n  dup3\n    /* \"#utility.yul\":1418:1433   */\n  add\n    /* \"#utility.yul\":1411:1442   */\n  mstore\n    /* \"#utility.yul\":1226:1449   */\n  pop\n  jump\t// out\n    /* \"#utility.yul\":1455:1821   */\ntag_21:\n    /* \"#utility.yul\":1597:1600   */\n  0x00\n    /* \"#utility.yul\":1618:1685   */\n  tag_39\n    /* \"#utility.yul\":1682:1684   */\n  0x24\n    /* \"#utility.yul\":1677:1680   */\n  dup4\n    /* \"#utility.yul\":1618:1685   */\n  tag_19\n  jump\t// in\ntag_39:\n    /* \"#utility.yul\":1611:1685   */\n  swap2\n  pop\n    /* \"#utility.yul\":1694:1787   */\n  tag_40\n    /* \"#utility.yul\":1783:1786   */\n  dup3\n    /* \"#utility.yul\":1694:1787   */\n  tag_20\n  jump\t// in\ntag_40:\n    /* \"#utility.yul\":1812:1814   */\n  0x40\n    /* \"#utility.yul\":1807:1810   */\n  dup3\n    /* \"#utility.yul\":1803:1815   */\n  add\n    /* \"#utility.yul\":1796:1815   */\n  swap1\n  pop\n    /* \"#utility.yul\":1455:1821   */\n  swap2\n  swap1\n  pop\n  jump\t// out\n    /* \"#utility.yul\":1827:2246   */\ntag_8:\n    /* \"#utility.yul\":1993:1997   */\n  0x00\n    /* \"#utility.yul\":2031:2033   */\n  0x20\n    /* \"#utility.yul\":2020:2029   */\n  dup3\n    /* \"#utility.yul\":2016:2034   */\n  add\n    /* \"#utility.yul\":2008:2034   */\n  swap1\n  pop\n    /* \"#utility.yul\":2080:2089   */\n  dup2\n    /* \"#utility.yul\":2074:2078   */\n  dup2\n    /* \"#utility.yul\":2070:2090   */\n  sub\n    /* \"#utility.yul\":2066:2067   */\n  0x00\n    /* \"#utility.yul\":2055:2064   */\n  dup4\n    /* \"#utility.yul\":2051:2068   */\n  add\n    /* \"#utility.yul\":2044:2091   */\n  mstore\n    /* \"#utility.yul\":2108:2239   */\n  tag_42\n    /* \"#utility.yul\":2234:2238   */\n  dup2\n    /* \"#utility.yul\":2108:2239   */\n  tag_21\n  jump\t// in\ntag_42:\n    /* \"#utility.yul\":2100:2239   */\n  swap1\n  pop\n    /* \"#utility.yul\":1827:2246   */\n  swap2\n  swap1\n  pop\n  jump\t// out\n    /* \"#utility.yul\":2252:2432   */\ntag_11:\n    /* \"#utility.yul\":2300:2377   */\n  0x4e487b7100000000000000000000000000000000000000000000000000000000\n    /* \"#utility.yul\":2297:2298   */\n  0x00\n    /* \"#utility.yul\":2290:2378   */\n  mstore\n    /* \"#utility.yul\":2397:2401   */\n  0x21\n    /* \"#utility.yul\":2394:2395   */\n  0x04\n    /* \"#utility.yul\":2387:2402   */\n  mstore\n    /* \"#utility.yul\":2421:2425   */\n  0x24\n    /* \"#utility.yul\":2418:2419   */\n  0x00\n    /* \"#utility.yul\":2411:2426   */\n  revert\n    /* \"Smart Contracts/8_Lottery.sol\":60:2173  contract LotterySimulatedVRF {... */\ntag_12:\n  dataSize(sub_0)\n  dup1\n  dataOffset(sub_0)\n  0x00\n  codecopy\n  0x00\n  return\nstop\n\nsub_0: assembly {\n        /* \"Smart Contracts/8_Lottery.sol\":60:2173  contract LotterySimulatedVRF {... */\n      mstore(0x40, 0x80)\n      jumpi(tag_1, lt(calldatasize, 0x04))\n      shr(0xe0, calldataload(0x00))\n      dup1\n      0xb3182ba5\n      gt\n      tag_11\n      jumpi\n      dup1\n      0xb3182ba5\n      eq\n      tag_6\n      jumpi\n      dup1\n      0xcd61386d\n      eq\n      tag_7\n      jumpi\n      dup1\n      0xecfb49a3\n      eq\n      tag_8\n      jumpi\n      dup1\n      0xf71d96cb\n      eq\n      tag_9\n      jumpi\n      dup1\n      0xfe188184\n      eq\n      tag_10\n      jumpi\n      jump(tag_1)\n    tag_11:\n      dup1\n      0x1aa3a008\n      eq\n      tag_2\n      jumpi\n      dup1\n      0x6939864b\n      eq\n      tag_3\n      jumpi\n      dup1\n      0x8da5cb5b\n      eq\n      tag_4\n      jumpi\n      dup1\n      0x8e7ea5b2\n      eq\n      tag_5\n      jumpi\n    tag_1:\n      revert(0x00, 0x00)\n        /* \"Smart Contracts/8_Lottery.sol\":753:1082  function register() public payable {... */\n    tag_2:\n      tag_12\n      tag_13\n      jump\t// in\n    tag_12:\n      stop\n        /* \"Smart Contracts/8_Lottery.sol\":200:232  LotteryState public lotteryState */\n    tag_3:\n      callvalue\n      dup1\n      iszero\n      tag_14\n      jumpi\n      revert(0x00, 0x00)\n    tag_14:\n      pop\n      tag_15\n      tag_16\n      jump\t// in\n    tag_15:\n      mload(0x40)\n      tag_17\n      swap2\n      swap1\n      tag_18\n      jump\t// in\n    tag_17:\n      mload(0x40)\n      dup1\n      swap2\n      sub\n      swap1\n      return\n        /* \"Smart Contracts/8_Lottery.sol\":126:146  address public owner */\n    tag_4:\n      callvalue\n      dup1\n      iszero\n      tag_19\n      jumpi\n      revert(0x00, 0x00)\n    tag_19:\n      pop\n      tag_20\n      tag_21\n      jump\t// in\n    tag_20:\n      mload(0x40)\n      tag_22\n      swap2\n      swap1\n      tag_23\n      jump\t// in\n    tag_22:\n      mload(0x40)\n      dup1\n      swap2\n      sub\n      swap1\n      return\n        /* \"Smart Contracts/8_Lottery.sol\":1090:1519  function getWinner() public {... */\n    tag_5:\n      callvalue\n      dup1\n      iszero\n      tag_24\n      jumpi\n      revert(0x00, 0x00)\n    tag_24:\n      pop\n      tag_25\n      tag_26\n      jump\t// in\n    tag_25:\n      stop\n        /* \"Smart Contracts/8_Lottery.sol\":98:119  uint public entryFees */\n    tag_6:\n      callvalue\n      dup1\n      iszero\n      tag_27\n      jumpi\n      revert(0x00, 0x00)\n    tag_27:\n      pop\n      tag_28\n      tag_29\n      jump\t// in\n    tag_28:\n      mload(0x40)\n      tag_30\n      swap2\n      swap1\n      tag_31\n      jump\t// in\n    tag_30:\n      mload(0x40)\n      dup1\n      swap2\n      sub\n      swap1\n      return\n        /* \"Smart Contracts/8_Lottery.sol\":2075:2170  function getPlayersLength() public view returns (uint) {... */\n    tag_7:\n      callvalue\n      dup1\n      iszero\n      tag_32\n      jumpi\n      revert(0x00, 0x00)\n    tag_32:\n      pop\n      tag_33\n      tag_34\n      jump\t// in\n    tag_33:\n      mload(0x40)\n      tag_35\n      swap2\n      swap1\n      tag_31\n      jump\t// in\n    tag_35:\n      mload(0x40)\n      dup1\n      swap2\n      sub\n      swap1\n      return\n        /* \"Smart Contracts/8_Lottery.sol\":373:394  uint public totalPool */\n    tag_8:\n      callvalue\n      dup1\n      iszero\n      tag_36\n      jumpi\n      revert(0x00, 0x00)\n    tag_36:\n      pop\n      tag_37\n      tag_38\n      jump\t// in\n    tag_37:\n      mload(0x40)\n      tag_39\n      swap2\n      swap1\n      tag_31\n      jump\t// in\n    tag_39:\n      mload(0x40)\n      dup1\n      swap2\n      sub\n      swap1\n      return\n        /* \"Smart Contracts/8_Lottery.sol\":321:344  Player[] public players */\n    tag_9:\n      callvalue\n      dup1\n      iszero\n      tag_40\n      jumpi\n      revert(0x00, 0x00)\n    tag_40:\n      pop\n      tag_41\n      0x04\n      dup1\n      calldatasize\n      sub\n      dup2\n      add\n      swap1\n      tag_42\n      swap2\n      swap1\n      tag_43\n      jump\t// in\n    tag_42:\n      tag_44\n      jump\t// in\n    tag_41:\n      mload(0x40)\n      tag_45\n      swap3\n      swap2\n      swap1\n      tag_46\n      jump\t// in\n    tag_45:\n      mload(0x40)\n      dup1\n      swap2\n      sub\n      swap1\n      return\n        /* \"Smart Contracts/8_Lottery.sol\":403:428  address public lastWinner */\n    tag_10:\n      callvalue\n      dup1\n      iszero\n      tag_47\n      jumpi\n      revert(0x00, 0x00)\n    tag_47:\n      pop\n      tag_48\n      tag_49\n      jump\t// in\n    tag_48:\n      mload(0x40)\n      tag_50\n      swap2\n      swap1\n      tag_23\n      jump\t// in\n    tag_50:\n      mload(0x40)\n      dup1\n      swap2\n      sub\n      swap1\n      return\n        /* \"Smart Contracts/8_Lottery.sol\":753:1082  function register() public payable {... */\n    tag_13:\n        /* \"Smart Contracts/8_Lottery.sol\":823:840  LotteryState.OPEN */\n      0x00\n        /* \"Smart Contracts/8_Lottery.sol\":807:840  lotteryState == LotteryState.OPEN */\n      0x01\n      dup2\n      gt\n      iszero\n      tag_52\n      jumpi\n      tag_53\n      tag_54\n      jump\t// in\n    tag_53:\n    tag_52:\n        /* \"Smart Contracts/8_Lottery.sol\":807:819  lotteryState */\n      0x01\n      0x14\n      swap1\n      sload\n      swap1\n      0x0100\n      exp\n      swap1\n      div\n      0xff\n      and\n        /* \"Smart Contracts/8_Lottery.sol\":807:840  lotteryState == LotteryState.OPEN */\n      0x01\n      dup2\n      gt\n      iszero\n      tag_55\n      jumpi\n      tag_56\n      tag_54\n      jump\t// in\n    tag_56:\n    tag_55:\n      eq\n        /* \"Smart Contracts/8_Lottery.sol\":799:861  require(lotteryState == LotteryState.OPEN, \"Lottery not open\") */\n      tag_57\n      jumpi\n      mload(0x40)\n      0x08c379a000000000000000000000000000000000000000000000000000000000\n      dup2\n      mstore\n      0x04\n      add\n      tag_58\n      swap1\n      tag_59\n      jump\t// in\n    tag_58:\n      mload(0x40)\n      dup1\n      swap2\n      sub\n      swap1\n      revert\n    tag_57:\n        /* \"Smart Contracts/8_Lottery.sol\":893:902  entryFees */\n      sload(0x00)\n        /* \"Smart Contracts/8_Lottery.sol\":880:889  msg.value */\n      callvalue\n        /* \"Smart Contracts/8_Lottery.sol\":880:902  msg.value == entryFees */\n      eq\n        /* \"Smart Contracts/8_Lottery.sol\":872:927  require(msg.value == entryFees, \"Send exact entry fee\") */\n      tag_60\n      jumpi\n      mload(0x40)\n      0x08c379a000000000000000000000000000000000000000000000000000000000\n      dup2\n      mstore\n      0x04\n      add\n      tag_61\n      swap1\n      tag_62\n      jump\t// in\n    tag_61:\n      mload(0x40)\n      dup1\n      swap2\n      sub\n      swap1\n      revert\n    tag_60:\n        /* \"Smart Contracts/8_Lottery.sol\":940:942  id */\n      0x03\n      0x00\n        /* \"Smart Contracts/8_Lottery.sol\":940:944  id++ */\n      dup2\n      sload\n      dup1\n      swap3\n      swap2\n      swap1\n      tag_63\n      swap1\n      tag_64\n      jump\t// in\n    tag_63:\n      swap2\n      swap1\n      pop\n      sstore\n      pop\n        /* \"Smart Contracts/8_Lottery.sol\":968:977  msg.value */\n      callvalue\n        /* \"Smart Contracts/8_Lottery.sol\":955:964  totalPool */\n      0x04\n      0x00\n        /* \"Smart Contracts/8_Lottery.sol\":955:977  totalPool += msg.value */\n      dup3\n      dup3\n      sload\n      tag_65\n      swap2\n      swap1\n      tag_66\n      jump\t// in\n    tag_65:\n      swap3\n      pop\n      pop\n      dup2\n      swap1\n      sstore\n      pop\n        /* \"Smart Contracts/8_Lottery.sol\":988:995  players */\n      0x02\n        /* \"Smart Contracts/8_Lottery.sol\":1001:1023  Player(id, msg.sender) */\n      mload(0x40)\n      dup1\n      0x40\n      add\n      0x40\n      mstore\n      dup1\n        /* \"Smart Contracts/8_Lottery.sol\":1008:1010  id */\n      sload(0x03)\n        /* \"Smart Contracts/8_Lottery.sol\":1001:1023  Player(id, msg.sender) */\n      dup2\n      mstore\n      0x20\n      add\n        /* \"Smart Contracts/8_Lottery.sol\":1012:1022  msg.sender */\n      caller\n        /* \"Smart Contracts/8_Lottery.sol\":1001:1023  Player(id, msg.sender) */\n      0xffffffffffffffffffffffffffffffffffffffff\n      and\n      dup2\n      mstore\n      pop\n        /* \"Smart Contracts/8_Lottery.sol\":988:1024  players.push(Player(id, msg.sender)) */\n      swap1\n      dup1\n      0x01\n      dup2\n      sload\n      add\n      dup1\n      dup3\n      sstore\n      dup1\n      swap2\n      pop\n      pop\n      0x01\n      swap1\n      sub\n      swap1\n      0x00\n      mstore\n      keccak256(0x00, 0x20)\n      swap1\n      0x02\n      mul\n      add\n      0x00\n      swap1\n      swap2\n      swap1\n      swap2\n      swap1\n      swap2\n      pop\n      0x00\n      dup3\n      add\n      mload\n      dup2\n      0x00\n      add\n      sstore\n      0x20\n      dup3\n      add\n      mload\n      dup2\n      0x01\n      add\n      exp(0x0100, 0x00)\n      dup2\n      sload\n      dup2\n      0xffffffffffffffffffffffffffffffffffffffff\n      mul\n      not\n      and\n      swap1\n      dup4\n      0xffffffffffffffffffffffffffffffffffffffff\n      and\n      mul\n      or\n      swap1\n      sstore\n      pop\n      pop\n      pop\n        /* \"Smart Contracts/8_Lottery.sol\":1042:1074  PlayerRegistered(msg.sender, id) */\n      0x324cb0062138d65997c86cd3012489ceb351d602f2f55c7408306e8040c79f3f\n        /* \"Smart Contracts/8_Lottery.sol\":1059:1069  msg.sender */\n      caller\n        /* \"Smart Contracts/8_Lottery.sol\":1071:1073  id */\n      sload(0x03)\n        /* \"Smart Contracts/8_Lottery.sol\":1042:1074  PlayerRegistered(msg.sender, id) */\n      mload(0x40)\n      tag_68\n      swap3\n      swap2\n      swap1\n      tag_69\n      jump\t// in\n    tag_68:\n      mload(0x40)\n      dup1\n      swap2\n      sub\n      swap1\n      log1\n        /* \"Smart Contracts/8_Lottery.sol\":753:1082  function register() public payable {... */\n      jump\t// out\n        /* \"Smart Contracts/8_Lottery.sol\":200:232  LotteryState public lotteryState */\n    tag_16:\n      0x01\n      0x14\n      swap1\n      sload\n      swap1\n      0x0100\n      exp\n      swap1\n      div\n      0xff\n      and\n      dup2\n      jump\t// out\n        /* \"Smart Contracts/8_Lottery.sol\":126:146  address public owner */\n    tag_21:\n      0x01\n      0x00\n      swap1\n      sload\n      swap1\n      0x0100\n      exp\n      swap1\n      div\n      0xffffffffffffffffffffffffffffffffffffffff\n      and\n      dup2\n      jump\t// out\n        /* \"Smart Contracts/8_Lottery.sol\":1090:1519  function getWinner() public {... */\n    tag_26:\n        /* \"Smart Contracts/8_Lottery.sol\":1151:1156  owner */\n      0x01\n      0x00\n      swap1\n      sload\n      swap1\n      0x0100\n      exp\n      swap1\n      div\n      0xffffffffffffffffffffffffffffffffffffffff\n      and\n        /* \"Smart Contracts/8_Lottery.sol\":1137:1156  msg.sender == owner */\n      0xffffffffffffffffffffffffffffffffffffffff\n      and\n        /* \"Smart Contracts/8_Lottery.sol\":1137:1147  msg.sender */\n      caller\n        /* \"Smart Contracts/8_Lottery.sol\":1137:1156  msg.sender == owner */\n      0xffffffffffffffffffffffffffffffffffffffff\n      and\n      eq\n        /* \"Smart Contracts/8_Lottery.sol\":1129:1171  require(msg.sender == owner, \"Only owner\") */\n      tag_71\n      jumpi\n      mload(0x40)\n      0x08c379a000000000000000000000000000000000000000000000000000000000\n      dup2\n      mstore\n      0x04\n      add\n      tag_72\n      swap1\n      tag_73\n      jump\t// in\n    tag_72:\n      mload(0x40)\n      dup1\n      swap2\n      sub\n      swap1\n      revert\n    tag_71:\n        /* \"Smart Contracts/8_Lottery.sol\":1207:1208  0 */\n      0x00\n        /* \"Smart Contracts/8_Lottery.sol\":1190:1197  players */\n      0x02\n        /* \"Smart Contracts/8_Lottery.sol\":1190:1204  players.length */\n      dup1\n      sload\n      swap1\n      pop\n        /* \"Smart Contracts/8_Lottery.sol\":1190:1208  players.length > 0 */\n      gt\n        /* \"Smart Contracts/8_Lottery.sol\":1182:1223  require(players.length > 0, \"No players\") */\n      tag_74\n      jumpi\n      mload(0x40)\n      0x08c379a000000000000000000000000000000000000000000000000000000000\n      dup2\n      mstore\n      0x04\n      add\n      tag_75\n      swap1\n      tag_76\n      jump\t// in\n    tag_75:\n      mload(0x40)\n      dup1\n      swap2\n      sub\n      swap1\n      revert\n    tag_74:\n        /* \"Smart Contracts/8_Lottery.sol\":1258:1275  LotteryState.OPEN */\n      0x00\n        /* \"Smart Contracts/8_Lottery.sol\":1242:1275  lotteryState == LotteryState.OPEN */\n      0x01\n      dup2\n      gt\n      iszero\n      tag_77\n      jumpi\n      tag_78\n      tag_54\n      jump\t// in\n    tag_78:\n    tag_77:\n        /* \"Smart Contracts/8_Lottery.sol\":1242:1254  lotteryState */\n      0x01\n      0x14\n      swap1\n      sload\n      swap1\n      0x0100\n      exp\n      swap1\n      div\n      0xff\n      and\n        /* \"Smart Contracts/8_Lottery.sol\":1242:1275  lotteryState == LotteryState.OPEN */\n      0x01\n      dup2\n      gt\n      iszero\n      tag_79\n      jumpi\n      tag_80\n      tag_54\n      jump\t// in\n    tag_80:\n    tag_79:\n      eq\n        /* \"Smart Contracts/8_Lottery.sol\":1234:1299  require(lotteryState == LotteryState.OPEN, \"Already calculating\") */\n      tag_81\n      jumpi\n      mload(0x40)\n      0x08c379a000000000000000000000000000000000000000000000000000000000\n      dup2\n      mstore\n      0x04\n      add\n      tag_82\n      swap1\n      tag_83\n      jump\t// in\n    tag_82:\n      mload(0x40)\n      dup1\n      swap2\n      sub\n      swap1\n      revert\n    tag_81:\n        /* \"Smart Contracts/8_Lottery.sol\":1327:1351  LotteryState.CALCULATING */\n      0x01\n        /* \"Smart Contracts/8_Lottery.sol\":1312:1324  lotteryState */\n      dup1\n      0x14\n        /* \"Smart Contracts/8_Lottery.sol\":1312:1351  lotteryState = LotteryState.CALCULATING */\n      0x0100\n      exp\n      dup2\n      sload\n      dup2\n      0xff\n      mul\n      not\n      and\n      swap1\n      dup4\n      0x01\n      dup2\n      gt\n      iszero\n      tag_84\n      jumpi\n      tag_85\n      tag_54\n      jump\t// in\n    tag_85:\n    tag_84:\n      mul\n      or\n      swap1\n      sstore\n      pop\n        /* \"Smart Contracts/8_Lottery.sol\":1364:1381  uint randomNumber */\n      0x00\n        /* \"Smart Contracts/8_Lottery.sol\":1416:1431  block.timestamp */\n      timestamp\n        /* \"Smart Contracts/8_Lottery.sol\":1433:1449  block.difficulty */\n      prevrandao\n        /* \"Smart Contracts/8_Lottery.sol\":1451:1458  players */\n      0x02\n        /* \"Smart Contracts/8_Lottery.sol\":1451:1465  players.length */\n      dup1\n      sload\n      swap1\n      pop\n        /* \"Smart Contracts/8_Lottery.sol\":1399:1466  abi.encodePacked(block.timestamp, block.difficulty, players.length) */\n      add(0x20, mload(0x40))\n      tag_86\n      swap4\n      swap3\n      swap2\n      swap1\n      tag_87\n      jump\t// in\n    tag_86:\n      mload(0x40)\n      0x20\n      dup2\n      dup4\n      sub\n      sub\n      dup2\n      mstore\n      swap1\n      0x40\n      mstore\n        /* \"Smart Contracts/8_Lottery.sol\":1389:1467  keccak256(abi.encodePacked(block.timestamp, block.difficulty, players.length)) */\n      dup1\n      mload\n      swap1\n      0x20\n      add\n      keccak256\n        /* \"Smart Contracts/8_Lottery.sol\":1384:1468  uint(keccak256(abi.encodePacked(block.timestamp, block.difficulty, players.length))) */\n      0x00\n      shr\n        /* \"Smart Contracts/8_Lottery.sol\":1364:1468  uint randomNumber = uint(keccak256(abi.encodePacked(block.timestamp, block.difficulty, players.length))) */\n      swap1\n      pop\n        /* \"Smart Contracts/8_Lottery.sol\":1479:1511  fulfillRandomWords(randomNumber) */\n      tag_88\n        /* \"Smart Contracts/8_Lottery.sol\":1498:1510  randomNumber */\n      dup2\n        /* \"Smart Contracts/8_Lottery.sol\":1479:1497  fulfillRandomWords */\n      tag_89\n        /* \"Smart Contracts/8_Lottery.sol\":1479:1511  fulfillRandomWords(randomNumber) */\n      jump\t// in\n    tag_88:\n        /* \"Smart Contracts/8_Lottery.sol\":1118:1519  {... */\n      pop\n        /* \"Smart Contracts/8_Lottery.sol\":1090:1519  function getWinner() public {... */\n      jump\t// out\n        /* \"Smart Contracts/8_Lottery.sol\":98:119  uint public entryFees */\n    tag_29:\n      sload(0x00)\n      dup2\n      jump\t// out\n        /* \"Smart Contracts/8_Lottery.sol\":2075:2170  function getPlayersLength() public view returns (uint) {... */\n    tag_34:\n        /* \"Smart Contracts/8_Lottery.sol\":2124:2128  uint */\n      0x00\n        /* \"Smart Contracts/8_Lottery.sol\":2148:2155  players */\n      0x02\n        /* \"Smart Contracts/8_Lottery.sol\":2148:2162  players.length */\n      dup1\n      sload\n      swap1\n      pop\n        /* \"Smart Contracts/8_Lottery.sol\":2141:2162  return players.length */\n      swap1\n      pop\n        /* \"Smart Contracts/8_Lottery.sol\":2075:2170  function getPlayersLength() public view returns (uint) {... */\n      swap1\n      jump\t// out\n        /* \"Smart Contracts/8_Lottery.sol\":373:394  uint public totalPool */\n    tag_38:\n      sload(0x04)\n      dup2\n      jump\t// out\n        /* \"Smart Contracts/8_Lottery.sol\":321:344  Player[] public players */\n    tag_44:\n      0x02\n      dup2\n      dup2\n      sload\n      dup2\n      lt\n      tag_91\n      jumpi\n      0x00\n      dup1\n      revert\n    tag_91:\n      swap1\n      0x00\n      mstore\n      keccak256(0x00, 0x20)\n      swap1\n      0x02\n      mul\n      add\n      0x00\n      swap2\n      pop\n      swap1\n      pop\n      dup1\n      0x00\n      add\n      sload\n      swap1\n      dup1\n      0x01\n      add\n      0x00\n      swap1\n      sload\n      swap1\n      0x0100\n      exp\n      swap1\n      div\n      0xffffffffffffffffffffffffffffffffffffffff\n      and\n      swap1\n      pop\n      dup3\n      jump\t// out\n        /* \"Smart Contracts/8_Lottery.sol\":403:428  address public lastWinner */\n    tag_49:\n      0x05\n      0x00\n      swap1\n      sload\n      swap1\n      0x0100\n      exp\n      swap1\n      div\n      0xffffffffffffffffffffffffffffffffffffffff\n      and\n      dup2\n      jump\t// out\n        /* \"Smart Contracts/8_Lottery.sol\":1527:2067  function fulfillRandomWords(uint randomNumber) internal {... */\n    tag_89:\n        /* \"Smart Contracts/8_Lottery.sol\":1594:1610  uint winnerIndex */\n      0x00\n        /* \"Smart Contracts/8_Lottery.sol\":1628:1635  players */\n      0x02\n        /* \"Smart Contracts/8_Lottery.sol\":1628:1642  players.length */\n      dup1\n      sload\n      swap1\n      pop\n        /* \"Smart Contracts/8_Lottery.sol\":1613:1625  randomNumber */\n      dup3\n        /* \"Smart Contracts/8_Lottery.sol\":1613:1642  randomNumber % players.length */\n      tag_94\n      swap2\n      swap1\n      tag_95\n      jump\t// in\n    tag_94:\n        /* \"Smart Contracts/8_Lottery.sol\":1594:1642  uint winnerIndex = randomNumber % players.length */\n      swap1\n      pop\n        /* \"Smart Contracts/8_Lottery.sol\":1653:1667  address winner */\n      0x00\n        /* \"Smart Contracts/8_Lottery.sol\":1670:1677  players */\n      0x02\n        /* \"Smart Contracts/8_Lottery.sol\":1678:1689  winnerIndex */\n      dup3\n        /* \"Smart Contracts/8_Lottery.sol\":1670:1690  players[winnerIndex] */\n      dup2\n      sload\n      dup2\n      lt\n      tag_96\n      jumpi\n      tag_97\n      tag_98\n      jump\t// in\n    tag_97:\n    tag_96:\n      swap1\n      0x00\n      mstore\n      keccak256(0x00, 0x20)\n      swap1\n      0x02\n      mul\n      add\n        /* \"Smart Contracts/8_Lottery.sol\":1670:1704  players[winnerIndex].playerAddress */\n      0x01\n      add\n      0x00\n      swap1\n      sload\n      swap1\n      0x0100\n      exp\n      swap1\n      div\n      0xffffffffffffffffffffffffffffffffffffffff\n      and\n        /* \"Smart Contracts/8_Lottery.sol\":1653:1704  address winner = players[winnerIndex].playerAddress */\n      swap1\n      pop\n        /* \"Smart Contracts/8_Lottery.sol\":1730:1736  winner */\n      dup1\n        /* \"Smart Contracts/8_Lottery.sol\":1717:1727  lastWinner */\n      0x05\n      0x00\n        /* \"Smart Contracts/8_Lottery.sol\":1717:1736  lastWinner = winner */\n      0x0100\n      exp\n      dup2\n      sload\n      dup2\n      0xffffffffffffffffffffffffffffffffffffffff\n      mul\n      not\n      and\n      swap1\n      dup4\n      0xffffffffffffffffffffffffffffffffffffffff\n      and\n      mul\n      or\n      swap1\n      sstore\n      pop\n        /* \"Smart Contracts/8_Lottery.sol\":1749:1760  uint amount */\n      0x00\n        /* \"Smart Contracts/8_Lottery.sol\":1763:1784  address(this).balance */\n      selfbalance\n        /* \"Smart Contracts/8_Lottery.sol\":1749:1784  uint amount = address(this).balance */\n      swap1\n      pop\n        /* \"Smart Contracts/8_Lottery.sol\":1796:1808  bool success */\n      0x00\n        /* \"Smart Contracts/8_Lottery.sol\":1821:1827  winner */\n      dup3\n        /* \"Smart Contracts/8_Lottery.sol\":1813:1833  payable(winner).call */\n      0xffffffffffffffffffffffffffffffffffffffff\n      and\n        /* \"Smart Contracts/8_Lottery.sol\":1841:1847  amount */\n      dup3\n        /* \"Smart Contracts/8_Lottery.sol\":1813:1852  payable(winner).call{value: amount}(\"\") */\n      mload(0x40)\n      tag_100\n      swap1\n      tag_101\n      jump\t// in\n    tag_100:\n      0x00\n      mload(0x40)\n      dup1\n      dup4\n      sub\n      dup2\n      dup6\n      dup8\n      gas\n      call\n      swap3\n      pop\n      pop\n      pop\n      returndatasize\n      dup1\n      0x00\n      dup2\n      eq\n      tag_104\n      jumpi\n      mload(0x40)\n      swap2\n      pop\n      and(add(returndatasize, 0x3f), not(0x1f))\n      dup3\n      add\n      0x40\n      mstore\n      returndatasize\n      dup3\n      mstore\n      returndatasize\n      0x00\n      0x20\n      dup5\n      add\n      returndatacopy\n      jump(tag_103)\n    tag_104:\n      0x60\n      swap2\n      pop\n    tag_103:\n      pop\n        /* \"Smart Contracts/8_Lottery.sol\":1795:1852  (bool success,) = payable(winner).call{value: amount}(\"\") */\n      pop\n      swap1\n      pop\n        /* \"Smart Contracts/8_Lottery.sol\":1871:1878  success */\n      dup1\n        /* \"Smart Contracts/8_Lottery.sol\":1863:1902  require(success, \"ETH Transfer failed\") */\n      tag_105\n      jumpi\n      mload(0x40)\n      0x08c379a000000000000000000000000000000000000000000000000000000000\n      dup2\n      mstore\n      0x04\n      add\n      tag_106\n      swap1\n      tag_107\n      jump\t// in\n    tag_106:\n      mload(0x40)\n      dup1\n      swap2\n      sub\n      swap1\n      revert\n    tag_105:\n        /* \"Smart Contracts/8_Lottery.sol\":1922:1929  players */\n      0x02\n      0x00\n        /* \"Smart Contracts/8_Lottery.sol\":1915:1929  delete players */\n      tag_108\n      swap2\n      swap1\n      tag_109\n      jump\t// in\n    tag_108:\n        /* \"Smart Contracts/8_Lottery.sol\":1945:1946  0 */\n      0x00\n        /* \"Smart Contracts/8_Lottery.sol\":1940:1942  id */\n      0x03\n        /* \"Smart Contracts/8_Lottery.sol\":1940:1946  id = 0 */\n      dup2\n      swap1\n      sstore\n      pop\n        /* \"Smart Contracts/8_Lottery.sol\":1969:1970  0 */\n      0x00\n        /* \"Smart Contracts/8_Lottery.sol\":1957:1966  totalPool */\n      0x04\n        /* \"Smart Contracts/8_Lottery.sol\":1957:1970  totalPool = 0 */\n      dup2\n      swap1\n      sstore\n      pop\n        /* \"Smart Contracts/8_Lottery.sol\":1996:2013  LotteryState.OPEN */\n      0x00\n        /* \"Smart Contracts/8_Lottery.sol\":1981:1993  lotteryState */\n      0x01\n      0x14\n        /* \"Smart Contracts/8_Lottery.sol\":1981:2013  lotteryState = LotteryState.OPEN */\n      0x0100\n      exp\n      dup2\n      sload\n      dup2\n      0xff\n      mul\n      not\n      and\n      swap1\n      dup4\n      0x01\n      dup2\n      gt\n      iszero\n      tag_110\n      jumpi\n      tag_111\n      tag_54\n      jump\t// in\n    tag_111:\n    tag_110:\n      mul\n      or\n      swap1\n      sstore\n      pop\n        /* \"Smart Contracts/8_Lottery.sol\":2031:2059  WinnerPicked(winner, amount) */\n      0x64791dbae5677392ba76761a5273633cec8f1d9d8cfe808da7bac6ef16a880be\n        /* \"Smart Contracts/8_Lottery.sol\":2044:2050  winner */\n      dup4\n        /* \"Smart Contracts/8_Lottery.sol\":2052:2058  amount */\n      dup4\n        /* \"Smart Contracts/8_Lottery.sol\":2031:2059  WinnerPicked(winner, amount) */\n      mload(0x40)\n      tag_112\n      swap3\n      swap2\n      swap1\n      tag_69\n      jump\t// in\n    tag_112:\n      mload(0x40)\n      dup1\n      swap2\n      sub\n      swap1\n      log1\n        /* \"Smart Contracts/8_Lottery.sol\":1583:2067  {... */\n      pop\n      pop\n      pop\n      pop\n        /* \"Smart Contracts/8_Lottery.sol\":1527:2067  function fulfillRandomWords(uint randomNumber) internal {... */\n      pop\n      jump\t// out\n    tag_109:\n      pop\n      dup1\n      sload\n      0x00\n      dup3\n      sstore\n      0x02\n      mul\n      swap1\n      0x00\n      mstore\n      keccak256(0x00, 0x20)\n      swap1\n      dup2\n      add\n      swap1\n      tag_114\n      swap2\n      swap1\n      tag_115\n      jump\t// in\n    tag_114:\n      pop\n      jump\t// out\n    tag_115:\n    tag_116:\n      dup1\n      dup3\n      gt\n      iszero\n      tag_117\n      jumpi\n      0x00\n      0x00\n      dup3\n      add\n      0x00\n      swap1\n      sstore\n      0x01\n      dup3\n      add\n      exp(0x0100, 0x00)\n      dup2\n      sload\n      swap1\n      0xffffffffffffffffffffffffffffffffffffffff\n      mul\n      not\n      and\n      swap1\n      sstore\n      pop\n      0x02\n      add\n      jump(tag_116)\n    tag_117:\n      pop\n      swap1\n      jump\t// out\n        /* \"#utility.yul\":7:187   */\n    tag_54:\n        /* \"#utility.yul\":55:132   */\n      0x4e487b7100000000000000000000000000000000000000000000000000000000\n        /* \"#utility.yul\":52:53   */\n      0x00\n        /* \"#utility.yul\":45:133   */\n      mstore\n        /* \"#utility.yul\":152:156   */\n      0x21\n        /* \"#utility.yul\":149:150   */\n      0x04\n        /* \"#utility.yul\":142:157   */\n      mstore\n        /* \"#utility.yul\":176:180   */\n      0x24\n        /* \"#utility.yul\":173:174   */\n      0x00\n        /* \"#utility.yul\":166:181   */\n      revert\n        /* \"#utility.yul\":193:312   */\n    tag_118:\n        /* \"#utility.yul\":280:281   */\n      0x02\n        /* \"#utility.yul\":273:278   */\n      dup2\n        /* \"#utility.yul\":270:282   */\n      lt\n        /* \"#utility.yul\":260:306   */\n      tag_155\n      jumpi\n        /* \"#utility.yul\":286:304   */\n      tag_156\n      tag_54\n      jump\t// in\n    tag_156:\n        /* \"#utility.yul\":260:306   */\n    tag_155:\n        /* \"#utility.yul\":193:312   */\n      pop\n      jump\t// out\n        /* \"#utility.yul\":318:457   */\n    tag_119:\n        /* \"#utility.yul\":369:376   */\n      0x00\n        /* \"#utility.yul\":398:403   */\n      dup2\n        /* \"#utility.yul\":387:403   */\n      swap1\n      pop\n        /* \"#utility.yul\":404:451   */\n      tag_158\n        /* \"#utility.yul\":445:450   */\n      dup3\n        /* \"#utility.yul\":404:451   */\n      tag_118\n      jump\t// in\n    tag_158:\n        /* \"#utility.yul\":318:457   */\n      swap2\n      swap1\n      pop\n      jump\t// out\n        /* \"#utility.yul\":463:602   */\n    tag_120:\n        /* \"#utility.yul\":525:534   */\n      0x00\n        /* \"#utility.yul\":558:596   */\n      tag_160\n        /* \"#utility.yul\":590:595   */\n      dup3\n        /* \"#utility.yul\":558:596   */\n      tag_119\n      jump\t// in\n    tag_160:\n        /* \"#utility.yul\":545:596   */\n      swap1\n      pop\n        /* \"#utility.yul\":463:602   */\n      swap2\n      swap1\n      pop\n      jump\t// out\n        /* \"#utility.yul\":608:763   */\n    tag_121:\n        /* \"#utility.yul\":707:756   */\n      tag_162\n        /* \"#utility.yul\":750:755   */\n      dup2\n        /* \"#utility.yul\":707:756   */\n      tag_120\n      jump\t// in\n    tag_162:\n        /* \"#utility.yul\":702:705   */\n      dup3\n        /* \"#utility.yul\":695:757   */\n      mstore\n        /* \"#utility.yul\":608:763   */\n      pop\n      pop\n      jump\t// out\n        /* \"#utility.yul\":769:1015   */\n    tag_18:\n        /* \"#utility.yul\":874:878   */\n      0x00\n        /* \"#utility.yul\":912:914   */\n      0x20\n        /* \"#utility.yul\":901:910   */\n      dup3\n        /* \"#utility.yul\":897:915   */\n      add\n        /* \"#utility.yul\":889:915   */\n      swap1\n      pop\n        /* \"#utility.yul\":925:1008   */\n      tag_164\n        /* \"#utility.yul\":1005:1006   */\n      0x00\n        /* \"#utility.yul\":994:1003   */\n      dup4\n        /* \"#utility.yul\":990:1007   */\n      add\n        /* \"#utility.yul\":981:987   */\n      dup5\n        /* \"#utility.yul\":925:1008   */\n      tag_121\n      jump\t// in\n    tag_164:\n        /* \"#utility.yul\":769:1015   */\n      swap3\n      swap2\n      pop\n      pop\n      jump\t// out\n        /* \"#utility.yul\":1021:1147   */\n    tag_122:\n        /* \"#utility.yul\":1058:1065   */\n      0x00\n        /* \"#utility.yul\":1098:1140   */\n      0xffffffffffffffffffffffffffffffffffffffff\n        /* \"#utility.yul\":1091:1096   */\n      dup3\n        /* \"#utility.yul\":1087:1141   */\n      and\n        /* \"#utility.yul\":1076:1141   */\n      swap1\n      pop\n        /* \"#utility.yul\":1021:1147   */\n      swap2\n      swap1\n      pop\n      jump\t// out\n        /* \"#utility.yul\":1153:1249   */\n    tag_123:\n        /* \"#utility.yul\":1190:1197   */\n      0x00\n        /* \"#utility.yul\":1219:1243   */\n      tag_167\n        /* \"#utility.yul\":1237:1242   */\n      dup3\n        /* \"#utility.yul\":1219:1243   */\n      tag_122\n      jump\t// in\n    tag_167:\n        /* \"#utility.yul\":1208:1243   */\n      swap1\n      pop\n        /* \"#utility.yul\":1153:1249   */\n      swap2\n      swap1\n      pop\n      jump\t// out\n        /* \"#utility.yul\":1255:1373   */\n    tag_124:\n        /* \"#utility.yul\":1342:1366   */\n      tag_169\n        /* \"#utility.yul\":1360:1365   */\n      dup2\n        /* \"#utility.yul\":1342:1366   */\n      tag_123\n      jump\t// in\n    tag_169:\n        /* \"#utility.yul\":1337:1340   */\n      dup3\n        /* \"#utility.yul\":1330:1367   */\n      mstore\n        /* \"#utility.yul\":1255:1373   */\n      pop\n      pop\n      jump\t// out\n        /* \"#utility.yul\":1379:1601   */\n    tag_23:\n        /* \"#utility.yul\":1472:1476   */\n      0x00\n        /* \"#utility.yul\":1510:1512   */\n      0x20\n        /* \"#utility.yul\":1499:1508   */\n      dup3\n        /* \"#utility.yul\":1495:1513   */\n      add\n        /* \"#utility.yul\":1487:1513   */\n      swap1\n      pop\n        /* \"#utility.yul\":1523:1594   */\n      tag_171\n        /* \"#utility.yul\":1591:1592   */\n      0x00\n        /* \"#utility.yul\":1580:1589   */\n      dup4\n        /* \"#utility.yul\":1576:1593   */\n      add\n        /* \"#utility.yul\":1567:1573   */\n      dup5\n        /* \"#utility.yul\":1523:1594   */\n      tag_124\n      jump\t// in\n    tag_171:\n        /* \"#utility.yul\":1379:1601   */\n      swap3\n      swap2\n      pop\n      pop\n      jump\t// out\n        /* \"#utility.yul\":1607:1684   */\n    tag_125:\n        /* \"#utility.yul\":1644:1651   */\n      0x00\n        /* \"#utility.yul\":1673:1678   */\n      dup2\n        /* \"#utility.yul\":1662:1678   */\n      swap1\n      pop\n        /* \"#utility.yul\":1607:1684   */\n      swap2\n      swap1\n      pop\n      jump\t// out\n        /* \"#utility.yul\":1690:1808   */\n    tag_126:\n        /* \"#utility.yul\":1777:1801   */\n      tag_174\n        /* \"#utility.yul\":1795:1800   */\n      dup2\n        /* \"#utility.yul\":1777:1801   */\n      tag_125\n      jump\t// in\n    tag_174:\n        /* \"#utility.yul\":1772:1775   */\n      dup3\n        /* \"#utility.yul\":1765:1802   */\n      mstore\n        /* \"#utility.yul\":1690:1808   */\n      pop\n      pop\n      jump\t// out\n        /* \"#utility.yul\":1814:2036   */\n    tag_31:\n        /* \"#utility.yul\":1907:1911   */\n      0x00\n        /* \"#utility.yul\":1945:1947   */\n      0x20\n        /* \"#utility.yul\":1934:1943   */\n      dup3\n        /* \"#utility.yul\":1930:1948   */\n      add\n        /* \"#utility.yul\":1922:1948   */\n      swap1\n      pop\n        /* \"#utility.yul\":1958:2029   */\n      tag_176\n        /* \"#utility.yul\":2026:2027   */\n      0x00\n        /* \"#utility.yul\":2015:2024   */\n      dup4\n        /* \"#utility.yul\":2011:2028   */\n      add\n        /* \"#utility.yul\":2002:2008   */\n      dup5\n        /* \"#utility.yul\":1958:2029   */\n      tag_126\n      jump\t// in\n    tag_176:\n        /* \"#utility.yul\":1814:2036   */\n      swap3\n      swap2\n      pop\n      pop\n      jump\t// out\n        /* \"#utility.yul\":2123:2240   */\n    tag_128:\n        /* \"#utility.yul\":2232:2233   */\n      0x00\n        /* \"#utility.yul\":2229:2230   */\n      0x00\n        /* \"#utility.yul\":2222:2234   */\n      revert\n        /* \"#utility.yul\":2369:2491   */\n    tag_130:\n        /* \"#utility.yul\":2442:2466   */\n      tag_181\n        /* \"#utility.yul\":2460:2465   */\n      dup2\n        /* \"#utility.yul\":2442:2466   */\n      tag_125\n      jump\t// in\n    tag_181:\n        /* \"#utility.yul\":2435:2440   */\n      dup2\n        /* \"#utility.yul\":2432:2467   */\n      eq\n        /* \"#utility.yul\":2422:2485   */\n      tag_182\n      jumpi\n        /* \"#utility.yul\":2481:2482   */\n      0x00\n        /* \"#utility.yul\":2478:2479   */\n      0x00\n        /* \"#utility.yul\":2471:2483   */\n      revert\n        /* \"#utility.yul\":2422:2485   */\n    tag_182:\n        /* \"#utility.yul\":2369:2491   */\n      pop\n      jump\t// out\n        /* \"#utility.yul\":2497:2636   */\n    tag_131:\n        /* \"#utility.yul\":2543:2548   */\n      0x00\n        /* \"#utility.yul\":2581:2587   */\n      dup2\n        /* \"#utility.yul\":2568:2588   */\n      calldataload\n        /* \"#utility.yul\":2559:2588   */\n      swap1\n      pop\n        /* \"#utility.yul\":2597:2630   */\n      tag_184\n        /* \"#utility.yul\":2624:2629   */\n      dup2\n        /* \"#utility.yul\":2597:2630   */\n      tag_130\n      jump\t// in\n    tag_184:\n        /* \"#utility.yul\":2497:2636   */\n      swap3\n      swap2\n      pop\n      pop\n      jump\t// out\n        /* \"#utility.yul\":2642:2971   */\n    tag_43:\n        /* \"#utility.yul\":2701:2707   */\n      0x00\n        /* \"#utility.yul\":2750:2752   */\n      0x20\n        /* \"#utility.yul\":2738:2747   */\n      dup3\n        /* \"#utility.yul\":2729:2736   */\n      dup5\n        /* \"#utility.yul\":2725:2748   */\n      sub\n        /* \"#utility.yul\":2721:2753   */\n      slt\n        /* \"#utility.yul\":2718:2837   */\n      iszero\n      tag_186\n      jumpi\n        /* \"#utility.yul\":2756:2835   */\n      tag_187\n      tag_128\n      jump\t// in\n    tag_187:\n        /* \"#utility.yul\":2718:2837   */\n    tag_186:\n        /* \"#utility.yul\":2876:2877   */\n      0x00\n        /* \"#utility.yul\":2901:2954   */\n      tag_188\n        /* \"#utility.yul\":2946:2953   */\n      dup5\n        /* \"#utility.yul\":2937:2943   */\n      dup3\n        /* \"#utility.yul\":2926:2935   */\n      dup6\n        /* \"#utility.yul\":2922:2944   */\n      add\n        /* \"#utility.yul\":2901:2954   */\n      tag_131\n      jump\t// in\n    tag_188:\n        /* \"#utility.yul\":2891:2954   */\n      swap2\n      pop\n        /* \"#utility.yul\":2847:2964   */\n      pop\n        /* \"#utility.yul\":2642:2971   */\n      swap3\n      swap2\n      pop\n      pop\n      jump\t// out\n        /* \"#utility.yul\":2977:3309   */\n    tag_46:\n        /* \"#utility.yul\":3098:3102   */\n      0x00\n        /* \"#utility.yul\":3136:3138   */\n      0x40\n        /* \"#utility.yul\":3125:3134   */\n      dup3\n        /* \"#utility.yul\":3121:3139   */\n      add\n        /* \"#utility.yul\":3113:3139   */\n      swap1\n      pop\n        /* \"#utility.yul\":3149:3220   */\n      tag_190\n        /* \"#utility.yul\":3217:3218   */\n      0x00\n        /* \"#utility.yul\":3206:3215   */\n      dup4\n        /* \"#utility.yul\":3202:3219   */\n      add\n        /* \"#utility.yul\":3193:3199   */\n      dup6\n        /* \"#utility.yul\":3149:3220   */\n      tag_126\n      jump\t// in\n    tag_190:\n        /* \"#utility.yul\":3230:3302   */\n      tag_191\n        /* \"#utility.yul\":3298:3300   */\n      0x20\n        /* \"#utility.yul\":3287:3296   */\n      dup4\n        /* \"#utility.yul\":3283:3301   */\n      add\n        /* \"#utility.yul\":3274:3280   */\n      dup5\n        /* \"#utility.yul\":3230:3302   */\n      tag_124\n      jump\t// in\n    tag_191:\n        /* \"#utility.yul\":2977:3309   */\n      swap4\n      swap3\n      pop\n      pop\n      pop\n      jump\t// out\n        /* \"#utility.yul\":3315:3484   */\n    tag_132:\n        /* \"#utility.yul\":3399:3410   */\n      0x00\n        /* \"#utility.yul\":3433:3439   */\n      dup3\n        /* \"#utility.yul\":3428:3431   */\n      dup3\n        /* \"#utility.yul\":3421:3440   */\n      mstore\n        /* \"#utility.yul\":3473:3477   */\n      0x20\n        /* \"#utility.yul\":3468:3471   */\n      dup3\n        /* \"#utility.yul\":3464:3478   */\n      add\n        /* \"#utility.yul\":3449:3478   */\n      swap1\n      pop\n        /* \"#utility.yul\":3315:3484   */\n      swap3\n      swap2\n      pop\n      pop\n      jump\t// out\n        /* \"#utility.yul\":3490:3656   */\n    tag_133:\n        /* \"#utility.yul\":3630:3648   */\n      0x4c6f7474657279206e6f74206f70656e00000000000000000000000000000000\n        /* \"#utility.yul\":3626:3627   */\n      0x00\n        /* \"#utility.yul\":3618:3624   */\n      dup3\n        /* \"#utility.yul\":3614:3628   */\n      add\n        /* \"#utility.yul\":3607:3649   */\n      mstore\n        /* \"#utility.yul\":3490:3656   */\n      pop\n      jump\t// out\n        /* \"#utility.yul\":3662:4028   */\n    tag_134:\n        /* \"#utility.yul\":3804:3807   */\n      0x00\n        /* \"#utility.yul\":3825:3892   */\n      tag_195\n        /* \"#utility.yul\":3889:3891   */\n      0x10\n        /* \"#utility.yul\":3884:3887   */\n      dup4\n        /* \"#utility.yul\":3825:3892   */\n      tag_132\n      jump\t// in\n    tag_195:\n        /* \"#utility.yul\":3818:3892   */\n      swap2\n      pop\n        /* \"#utility.yul\":3901:3994   */\n      tag_196\n        /* \"#utility.yul\":3990:3993   */\n      dup3\n        /* \"#utility.yul\":3901:3994   */\n      tag_133\n      jump\t// in\n    tag_196:\n        /* \"#utility.yul\":4019:4021   */\n      0x20\n        /* \"#utility.yul\":4014:4017   */\n      dup3\n        /* \"#utility.yul\":4010:4022   */\n      add\n        /* \"#utility.yul\":4003:4022   */\n      swap1\n      pop\n        /* \"#utility.yul\":3662:4028   */\n      swap2\n      swap1\n      pop\n      jump\t// out\n        /* \"#utility.yul\":4034:4453   */\n    tag_59:\n        /* \"#utility.yul\":4200:4204   */\n      0x00\n        /* \"#utility.yul\":4238:4240   */\n      0x20\n        /* \"#utility.yul\":4227:4236   */\n      dup3\n        /* \"#utility.yul\":4223:4241   */\n      add\n        /* \"#utility.yul\":4215:4241   */\n      swap1\n      pop\n        /* \"#utility.yul\":4287:4296   */\n      dup2\n        /* \"#utility.yul\":4281:4285   */\n      dup2\n        /* \"#utility.yul\":4277:4297   */\n      sub\n        /* \"#utility.yul\":4273:4274   */\n      0x00\n        /* \"#utility.yul\":4262:4271   */\n      dup4\n        /* \"#utility.yul\":4258:4275   */\n      add\n        /* \"#utility.yul\":4251:4298   */\n      mstore\n        /* \"#utility.yul\":4315:4446   */\n      tag_198\n        /* \"#utility.yul\":4441:4445   */\n      dup2\n        /* \"#utility.yul\":4315:4446   */\n      tag_134\n      jump\t// in\n    tag_198:\n        /* \"#utility.yul\":4307:4446   */\n      swap1\n      pop\n        /* \"#utility.yul\":4034:4453   */\n      swap2\n      swap1\n      pop\n      jump\t// out\n        /* \"#utility.yul\":4459:4629   */\n    tag_135:\n        /* \"#utility.yul\":4599:4621   */\n      0x53656e6420657861637420656e74727920666565000000000000000000000000\n        /* \"#utility.yul\":4595:4596   */\n      0x00\n        /* \"#utility.yul\":4587:4593   */\n      dup3\n        /* \"#utility.yul\":4583:4597   */\n      add\n        /* \"#utility.yul\":4576:4622   */\n      mstore\n        /* \"#utility.yul\":4459:4629   */\n      pop\n      jump\t// out\n        /* \"#utility.yul\":4635:5001   */\n    tag_136:\n        /* \"#utility.yul\":4777:4780   */\n      0x00\n        /* \"#utility.yul\":4798:4865   */\n      tag_201\n        /* \"#utility.yul\":4862:4864   */\n      0x14\n        /* \"#utility.yul\":4857:4860   */\n      dup4\n        /* \"#utility.yul\":4798:4865   */\n      tag_132\n      jump\t// in\n    tag_201:\n        /* \"#utility.yul\":4791:4865   */\n      swap2\n      pop\n        /* \"#utility.yul\":4874:4967   */\n      tag_202\n        /* \"#utility.yul\":4963:4966   */\n      dup3\n        /* \"#utility.yul\":4874:4967   */\n      tag_135\n      jump\t// in\n    tag_202:\n        /* \"#utility.yul\":4992:4994   */\n      0x20\n        /* \"#utility.yul\":4987:4990   */\n      dup3\n        /* \"#utility.yul\":4983:4995   */\n      add\n        /* \"#utility.yul\":4976:4995   */\n      swap1\n      pop\n        /* \"#utility.yul\":4635:5001   */\n      swap2\n      swap1\n      pop\n      jump\t// out\n        /* \"#utility.yul\":5007:5426   */\n    tag_62:\n        /* \"#utility.yul\":5173:5177   */\n      0x00\n        /* \"#utility.yul\":5211:5213   */\n      0x20\n        /* \"#utility.yul\":5200:5209   */\n      dup3\n        /* \"#utility.yul\":5196:5214   */\n      add\n        /* \"#utility.yul\":5188:5214   */\n      swap1\n      pop\n        /* \"#utility.yul\":5260:5269   */\n      dup2\n        /* \"#utility.yul\":5254:5258   */\n      dup2\n        /* \"#utility.yul\":5250:5270   */\n      sub\n        /* \"#utility.yul\":5246:5247   */\n      0x00\n        /* \"#utility.yul\":5235:5244   */\n      dup4\n        /* \"#utility.yul\":5231:5248   */\n      add\n        /* \"#utility.yul\":5224:5271   */\n      mstore\n        /* \"#utility.yul\":5288:5419   */\n      tag_204\n        /* \"#utility.yul\":5414:5418   */\n      dup2\n        /* \"#utility.yul\":5288:5419   */\n      tag_136\n      jump\t// in\n    tag_204:\n        /* \"#utility.yul\":5280:5419   */\n      swap1\n      pop\n        /* \"#utility.yul\":5007:5426   */\n      swap2\n      swap1\n      pop\n      jump\t// out\n        /* \"#utility.yul\":5432:5612   */\n    tag_137:\n        /* \"#utility.yul\":5480:5557   */\n      0x4e487b7100000000000000000000000000000000000000000000000000000000\n        /* \"#utility.yul\":5477:5478   */\n      0x00\n        /* \"#utility.yul\":5470:5558   */\n      mstore\n        /* \"#utility.yul\":5577:5581   */\n      0x11\n        /* \"#utility.yul\":5574:5575   */\n      0x04\n        /* \"#utility.yul\":5567:5582   */\n      mstore\n        /* \"#utility.yul\":5601:5605   */\n      0x24\n        /* \"#utility.yul\":5598:5599   */\n      0x00\n        /* \"#utility.yul\":5591:5606   */\n      revert\n        /* \"#utility.yul\":5618:5851   */\n    tag_64:\n        /* \"#utility.yul\":5657:5660   */\n      0x00\n        /* \"#utility.yul\":5680:5704   */\n      tag_207\n        /* \"#utility.yul\":5698:5703   */\n      dup3\n        /* \"#utility.yul\":5680:5704   */\n      tag_125\n      jump\t// in\n    tag_207:\n        /* \"#utility.yul\":5671:5704   */\n      swap2\n      pop\n        /* \"#utility.yul\":5726:5792   */\n      0xffffffffffffffffffffffffffffffffffffffffffffffffffffffffffffffff\n        /* \"#utility.yul\":5719:5724   */\n      dup3\n        /* \"#utility.yul\":5716:5793   */\n      sub\n        /* \"#utility.yul\":5713:5816   */\n      tag_208\n      jumpi\n        /* \"#utility.yul\":5796:5814   */\n      tag_209\n      tag_137\n      jump\t// in\n    tag_209:\n        /* \"#utility.yul\":5713:5816   */\n    tag_208:\n        /* \"#utility.yul\":5843:5844   */\n      0x01\n        /* \"#utility.yul\":5836:5841   */\n      dup3\n        /* \"#utility.yul\":5832:5845   */\n      add\n        /* \"#utility.yul\":5825:5845   */\n      swap1\n      pop\n        /* \"#utility.yul\":5618:5851   */\n      swap2\n      swap1\n      pop\n      jump\t// out\n        /* \"#utility.yul\":5857:6048   */\n    tag_66:\n        /* \"#utility.yul\":5897:5900   */\n      0x00\n        /* \"#utility.yul\":5916:5936   */\n      tag_211\n        /* \"#utility.yul\":5934:5935   */\n      dup3\n        /* \"#utility.yul\":5916:5936   */\n      tag_125\n      jump\t// in\n    tag_211:\n        /* \"#utility.yul\":5911:5936   */\n      swap2\n      pop\n        /* \"#utility.yul\":5950:5970   */\n      tag_212\n        /* \"#utility.yul\":5968:5969   */\n      dup4\n        /* \"#utility.yul\":5950:5970   */\n      tag_125\n      jump\t// in\n    tag_212:\n        /* \"#utility.yul\":5945:5970   */\n      swap3\n      pop\n        /* \"#utility.yul\":5993:5994   */\n      dup3\n        /* \"#utility.yul\":5990:5991   */\n      dup3\n        /* \"#utility.yul\":5986:5995   */\n      add\n        /* \"#utility.yul\":5979:5995   */\n      swap1\n      pop\n        /* \"#utility.yul\":6014:6017   */\n      dup1\n        /* \"#utility.yul\":6011:6012   */\n      dup3\n        /* \"#utility.yul\":6008:6018   */\n      gt\n        /* \"#utility.yul\":6005:6041   */\n      iszero\n      tag_213\n      jumpi\n        /* \"#utility.yul\":6021:6039   */\n      tag_214\n      tag_137\n      jump\t// in\n    tag_214:\n        /* \"#utility.yul\":6005:6041   */\n    tag_213:\n        /* \"#utility.yul\":5857:6048   */\n      swap3\n      swap2\n      pop\n      pop\n      jump\t// out\n        /* \"#utility.yul\":6054:6386   */\n    tag_69:\n        /* \"#utility.yul\":6175:6179   */\n      0x00\n        /* \"#utility.yul\":6213:6215   */\n      0x40\n        /* \"#utility.yul\":6202:6211   */\n      dup3\n        /* \"#utility.yul\":6198:6216   */\n      add\n        /* \"#utility.yul\":6190:6216   */\n      swap1\n      pop\n        /* \"#utility.yul\":6226:6297   */\n      tag_216\n        /* \"#utility.yul\":6294:6295   */\n      0x00\n        /* \"#utility.yul\":6283:6292   */\n      dup4\n        /* \"#utility.yul\":6279:6296   */\n      add\n        /* \"#utility.yul\":6270:6276   */\n      dup6\n        /* \"#utility.yul\":6226:6297   */\n      tag_124\n      jump\t// in\n    tag_216:\n        /* \"#utility.yul\":6307:6379   */\n      tag_217\n        /* \"#utility.yul\":6375:6377   */\n      0x20\n        /* \"#utility.yul\":6364:6373   */\n      dup4\n        /* \"#utility.yul\":6360:6378   */\n      add\n        /* \"#utility.yul\":6351:6357   */\n      dup5\n        /* \"#utility.yul\":6307:6379   */\n      tag_126\n      jump\t// in\n    tag_217:\n        /* \"#utility.yul\":6054:6386   */\n      swap4\n      swap3\n      pop\n      pop\n      pop\n      jump\t// out\n        /* \"#utility.yul\":6392:6552   */\n    tag_138:\n        /* \"#utility.yul\":6532:6544   */\n      0x4f6e6c79206f776e657200000000000000000000000000000000000000000000\n        /* \"#utility.yul\":6528:6529   */\n      0x00\n        /* \"#utility.yul\":6520:6526   */\n      dup3\n        /* \"#utility.yul\":6516:6530   */\n      add\n        /* \"#utility.yul\":6509:6545   */\n      mstore\n        /* \"#utility.yul\":6392:6552   */\n      pop\n      jump\t// out\n        /* \"#utility.yul\":6558:6924   */\n    tag_139:\n        /* \"#utility.yul\":6700:6703   */\n      0x00\n        /* \"#utility.yul\":6721:6788   */\n      tag_220\n        /* \"#utility.yul\":6785:6787   */\n      0x0a\n        /* \"#utility.yul\":6780:6783   */\n      dup4\n        /* \"#utility.yul\":6721:6788   */\n      tag_132\n      jump\t// in\n    tag_220:\n        /* \"#utility.yul\":6714:6788   */\n      swap2\n      pop\n        /* \"#utility.yul\":6797:6890   */\n      tag_221\n        /* \"#utility.yul\":6886:6889   */\n      dup3\n        /* \"#utility.yul\":6797:6890   */\n      tag_138\n      jump\t// in\n    tag_221:\n        /* \"#utility.yul\":6915:6917   */\n      0x20\n        /* \"#utility.yul\":6910:6913   */\n      dup3\n        /* \"#utility.yul\":6906:6918   */\n      add\n        /* \"#utility.yul\":6899:6918   */\n      swap1\n      pop\n        /* \"#utility.yul\":6558:6924   */\n      swap2\n      swap1\n      pop\n      jump\t// out\n        /* \"#utility.yul\":6930:7349   */\n    tag_73:\n        /* \"#utility.yul\":7096:7100   */\n      0x00\n        /* \"#utility.yul\":7134:7136   */\n      0x20\n        /* \"#utility.yul\":7123:7132   */\n      dup3\n        /* \"#utility.yul\":7119:7137   */\n      add\n        /* \"#utility.yul\":7111:7137   */\n      swap1\n      pop\n        /* \"#utility.yul\":7183:7192   */\n      dup2\n        /* \"#utility.yul\":7177:7181   */\n      dup2\n        /* \"#utility.yul\":7173:7193   */\n      sub\n        /* \"#utility.yul\":7169:7170   */\n      0x00\n        /* \"#utility.yul\":7158:7167   */\n      dup4\n        /* \"#utility.yul\":7154:7171   */\n      add\n        /* \"#utility.yul\":7147:7194   */\n      mstore\n        /* \"#utility.yul\":7211:7342   */\n      tag_223\n        /* \"#utility.yul\":7337:7341   */\n      dup2\n        /* \"#utility.yul\":7211:7342   */\n      tag_139\n      jump\t// in\n    tag_223:\n        /* \"#utility.yul\":7203:7342   */\n      swap1\n      pop\n        /* \"#utility.yul\":6930:7349   */\n      swap2\n      swap1\n      pop\n      jump\t// out\n        /* \"#utility.yul\":7355:7515   */\n    tag_140:\n        /* \"#utility.yul\":7495:7507   */\n      0x4e6f20706c617965727300000000000000000000000000000000000000000000\n        /* \"#utility.yul\":7491:7492   */\n      0x00\n        /* \"#utility.yul\":7483:7489   */\n      dup3\n        /* \"#utility.yul\":7479:7493   */\n      add\n        /* \"#utility.yul\":7472:7508   */\n      mstore\n        /* \"#utility.yul\":7355:7515   */\n      pop\n      jump\t// out\n        /* \"#utility.yul\":7521:7887   */\n    tag_141:\n        /* \"#utility.yul\":7663:7666   */\n      0x00\n        /* \"#utility.yul\":7684:7751   */\n      tag_226\n        /* \"#utility.yul\":7748:7750   */\n      0x0a\n        /* \"#utility.yul\":7743:7746   */\n      dup4\n        /* \"#utility.yul\":7684:7751   */\n      tag_132\n      jump\t// in\n    tag_226:\n        /* \"#utility.yul\":7677:7751   */\n      swap2\n      pop\n        /* \"#utility.yul\":7760:7853   */\n      tag_227\n        /* \"#utility.yul\":7849:7852   */\n      dup3\n        /* \"#utility.yul\":7760:7853   */\n      tag_140\n      jump\t// in\n    tag_227:\n        /* \"#utility.yul\":7878:7880   */\n      0x20\n        /* \"#utility.yul\":7873:7876   */\n      dup3\n        /* \"#utility.yul\":7869:7881   */\n      add\n        /* \"#utility.yul\":7862:7881   */\n      swap1\n      pop\n        /* \"#utility.yul\":7521:7887   */\n      swap2\n      swap1\n      pop\n      jump\t// out\n        /* \"#utility.yul\":7893:8312   */\n    tag_76:\n        /* \"#utility.yul\":8059:8063   */\n      0x00\n        /* \"#utility.yul\":8097:8099   */\n      0x20\n        /* \"#utility.yul\":8086:8095   */\n      dup3\n        /* \"#utility.yul\":8082:8100   */\n      add\n        /* \"#utility.yul\":8074:8100   */\n      swap1\n      pop\n        /* \"#utility.yul\":8146:8155   */\n      dup2\n        /* \"#utility.yul\":8140:8144   */\n      dup2\n        /* \"#utility.yul\":8136:8156   */\n      sub\n        /* \"#utility.yul\":8132:8133   */\n      0x00\n        /* \"#utility.yul\":8121:8130   */\n      dup4\n        /* \"#utility.yul\":8117:8134   */\n      add\n        /* \"#utility.yul\":8110:8157   */\n      mstore\n        /* \"#utility.yul\":8174:8305   */\n      tag_229\n        /* \"#utility.yul\":8300:8304   */\n      dup2\n        /* \"#utility.yul\":8174:8305   */\n      tag_141\n      jump\t// in\n    tag_229:\n        /* \"#utility.yul\":8166:8305   */\n      swap1\n      pop\n        /* \"#utility.yul\":7893:8312   */\n      swap2\n      swap1\n      pop\n      jump\t// out\n        /* \"#utility.yul\":8318:8487   */\n    tag_142:\n        /* \"#utility.yul\":8458:8479   */\n      0x416c72656164792063616c63756c6174696e6700000000000000000000000000\n        /* \"#utility.yul\":8454:8455   */\n      0x00\n        /* \"#utility.yul\":8446:8452   */\n      dup3\n        /* \"#utility.yul\":8442:8456   */\n      add\n        /* \"#utility.yul\":8435:8480   */\n      mstore\n        /* \"#utility.yul\":8318:8487   */\n      pop\n      jump\t// out\n        /* \"#utility.yul\":8493:8859   */\n    tag_143:\n        /* \"#utility.yul\":8635:8638   */\n      0x00\n        /* \"#utility.yul\":8656:8723   */\n      tag_232\n        /* \"#utility.yul\":8720:8722   */\n      0x13\n        /* \"#utility.yul\":8715:8718   */\n      dup4\n        /* \"#utility.yul\":8656:8723   */\n      tag_132\n      jump\t// in\n    tag_232:\n        /* \"#utility.yul\":8649:8723   */\n      swap2\n      pop\n        /* \"#utility.yul\":8732:8825   */\n      tag_233\n        /* \"#utility.yul\":8821:8824   */\n      dup3\n        /* \"#utility.yul\":8732:8825   */\n      tag_142\n      jump\t// in\n    tag_233:\n        /* \"#utility.yul\":8850:8852   */\n      0x20\n        /* \"#utility.yul\":8845:8848   */\n      dup3\n        /* \"#utility.yul\":8841:8853   */\n      add\n        /* \"#utility.yul\":8834:8853   */\n      swap1\n      pop\n        /* \"#utility.yul\":8493:8859   */\n      swap2\n      swap1\n      pop\n      jump\t// out\n        /* \"#utility.yul\":8865:9284   */\n    tag_83:\n        /* \"#utility.yul\":9031:9035   */\n      0x00\n        /* \"#utility.yul\":9069:9071   */\n      0x20\n        /* \"#utility.yul\":9058:9067   */\n      dup3\n        /* \"#utility.yul\":9054:9072   */\n      add\n        /* \"#utility.yul\":9046:9072   */\n      swap1\n      pop\n        /* \"#utility.yul\":9118:9127   */\n      dup2\n        /* \"#utility.yul\":9112:9116   */\n      dup2\n        /* \"#utility.yul\":9108:9128   */\n      sub\n        /* \"#utility.yul\":9104:9105   */\n      0x00\n        /* \"#utility.yul\":9093:9102   */\n      dup4\n        /* \"#utility.yul\":9089:9106   */\n      add\n        /* \"#utility.yul\":9082:9129   */\n      mstore\n        /* \"#utility.yul\":9146:9277   */\n      tag_235\n        /* \"#utility.yul\":9272:9276   */\n      dup2\n        /* \"#utility.yul\":9146:9277   */\n      tag_143\n      jump\t// in\n    tag_235:\n        /* \"#utility.yul\":9138:9277   */\n      swap1\n      pop\n        /* \"#utility.yul\":8865:9284   */\n      swap2\n      swap1\n      pop\n      jump\t// out\n        /* \"#utility.yul\":9290:9369   */\n    tag_144:\n        /* \"#utility.yul\":9329:9336   */\n      0x00\n        /* \"#utility.yul\":9358:9363   */\n      dup2\n        /* \"#utility.yul\":9347:9363   */\n      swap1\n      pop\n        /* \"#utility.yul\":9290:9369   */\n      swap2\n      swap1\n      pop\n      jump\t// out\n        /* \"#utility.yul\":9375:9532   */\n    tag_145:\n        /* \"#utility.yul\":9480:9525   */\n      tag_238\n        /* \"#utility.yul\":9500:9524   */\n      tag_239\n        /* \"#utility.yul\":9518:9523   */\n      dup3\n        /* \"#utility.yul\":9500:9524   */\n      tag_125\n      jump\t// in\n    tag_239:\n        /* \"#utility.yul\":9480:9525   */\n      tag_144\n      jump\t// in\n    tag_238:\n        /* \"#utility.yul\":9475:9478   */\n      dup3\n        /* \"#utility.yul\":9468:9526   */\n      mstore\n        /* \"#utility.yul\":9375:9532   */\n      pop\n      pop\n      jump\t// out\n        /* \"#utility.yul\":9538:10076   */\n    tag_87:\n        /* \"#utility.yul\":9706:9709   */\n      0x00\n        /* \"#utility.yul\":9721:9796   */\n      tag_241\n        /* \"#utility.yul\":9792:9795   */\n      dup3\n        /* \"#utility.yul\":9783:9789   */\n      dup7\n        /* \"#utility.yul\":9721:9796   */\n      tag_145\n      jump\t// in\n    tag_241:\n        /* \"#utility.yul\":9821:9823   */\n      0x20\n        /* \"#utility.yul\":9816:9819   */\n      dup3\n        /* \"#utility.yul\":9812:9824   */\n      add\n        /* \"#utility.yul\":9805:9824   */\n      swap2\n      pop\n        /* \"#utility.yul\":9834:9909   */\n      tag_242\n        /* \"#utility.yul\":9905:9908   */\n      dup3\n        /* \"#utility.yul\":9896:9902   */\n      dup6\n        /* \"#utility.yul\":9834:9909   */\n      tag_145\n      jump\t// in\n    tag_242:\n        /* \"#utility.yul\":9934:9936   */\n      0x20\n        /* \"#utility.yul\":9929:9932   */\n      dup3\n        /* \"#utility.yul\":9925:9937   */\n      add\n        /* \"#utility.yul\":9918:9937   */\n      swap2\n      pop\n        /* \"#utility.yul\":9947:10022   */\n      tag_243\n        /* \"#utility.yul\":10018:10021   */\n      dup3\n        /* \"#utility.yul\":10009:10015   */\n      dup5\n        /* \"#utility.yul\":9947:10022   */\n      tag_145\n      jump\t// in\n    tag_243:\n        /* \"#utility.yul\":10047:10049   */\n      0x20\n        /* \"#utility.yul\":10042:10045   */\n      dup3\n        /* \"#utility.yul\":10038:10050   */\n      add\n        /* \"#utility.yul\":10031:10050   */\n      swap2\n      pop\n        /* \"#utility.yul\":10067:10070   */\n      dup2\n        /* \"#utility.yul\":10060:10070   */\n      swap1\n      pop\n        /* \"#utility.yul\":9538:10076   */\n      swap5\n      swap4\n      pop\n      pop\n      pop\n      pop\n      jump\t// out\n        /* \"#utility.yul\":10082:10262   */\n    tag_146:\n        /* \"#utility.yul\":10130:10207   */\n      0x4e487b7100000000000000000000000000000000000000000000000000000000\n        /* \"#utility.yul\":10127:10128   */\n      0x00\n        /* \"#utility.yul\":10120:10208   */\n      mstore\n        /* \"#utility.yul\":10227:10231   */\n      0x12\n        /* \"#utility.yul\":10224:10225   */\n      0x04\n        /* \"#utility.yul\":10217:10232   */\n      mstore\n        /* \"#utility.yul\":10251:10255   */\n      0x24\n        /* \"#utility.yul\":10248:10249   */\n      0x00\n        /* \"#utility.yul\":10241:10256   */\n      revert\n        /* \"#utility.yul\":10268:10444   */\n    tag_95:\n        /* \"#utility.yul\":10300:10301   */\n      0x00\n        /* \"#utility.yul\":10317:10337   */\n      tag_246\n        /* \"#utility.yul\":10335:10336   */\n      dup3\n        /* \"#utility.yul\":10317:10337   */\n      tag_125\n      jump\t// in\n    tag_246:\n        /* \"#utility.yul\":10312:10337   */\n      swap2\n      pop\n        /* \"#utility.yul\":10351:10371   */\n      tag_247\n        /* \"#utility.yul\":10369:10370   */\n      dup4\n        /* \"#utility.yul\":10351:10371   */\n      tag_125\n      jump\t// in\n    tag_247:\n        /* \"#utility.yul\":10346:10371   */\n      swap3\n      pop\n        /* \"#utility.yul\":10390:10391   */\n      dup3\n        /* \"#utility.yul\":10380:10415   */\n      tag_248\n      jumpi\n        /* \"#utility.yul\":10395:10413   */\n      tag_249\n      tag_146\n      jump\t// in\n    tag_249:\n        /* \"#utility.yul\":10380:10415   */\n    tag_248:\n        /* \"#utility.yul\":10436:10437   */\n      dup3\n        /* \"#utility.yul\":10433:10434   */\n      dup3\n        /* \"#utility.yul\":10429:10438   */\n      mod\n        /* \"#utility.yul\":10424:10438   */\n      swap1\n      pop\n        /* \"#utility.yul\":10268:10444   */\n      swap3\n      swap2\n      pop\n      pop\n      jump\t// out\n        /* \"#utility.yul\":10450:10630   */\n    tag_98:\n        /* \"#utility.yul\":10498:10575   */\n      0x4e487b7100000000000000000000000000000000000000000000000000000000\n        /* \"#utility.yul\":10495:10496   */\n      0x00\n        /* \"#utility.yul\":10488:10576   */\n      mstore\n        /* \"#utility.yul\":10595:10599   */\n      0x32\n        /* \"#utility.yul\":10592:10593   */\n      0x04\n        /* \"#utility.yul\":10585:10600   */\n      mstore\n        /* \"#utility.yul\":10619:10623   */\n      0x24\n        /* \"#utility.yul\":10616:10617   */\n      0x00\n        /* \"#utility.yul\":10609:10624   */\n      revert\n        /* \"#utility.yul\":10636:10783   */\n    tag_147:\n        /* \"#utility.yul\":10737:10748   */\n      0x00\n        /* \"#utility.yul\":10774:10777   */\n      dup2\n        /* \"#utility.yul\":10759:10777   */\n      swap1\n      pop\n        /* \"#utility.yul\":10636:10783   */\n      swap3\n      swap2\n      pop\n      pop\n      jump\t// out\n        /* \"#utility.yul\":10789:10903   */\n    tag_148:\n      pop\n      jump\t// out\n        /* \"#utility.yul\":10909:11307   */\n    tag_149:\n        /* \"#utility.yul\":11068:11071   */\n      0x00\n        /* \"#utility.yul\":11089:11172   */\n      tag_254\n        /* \"#utility.yul\":11170:11171   */\n      0x00\n        /* \"#utility.yul\":11165:11168   */\n      dup4\n        /* \"#utility.yul\":11089:11172   */\n      tag_147\n      jump\t// in\n    tag_254:\n        /* \"#utility.yul\":11082:11172   */\n      swap2\n      pop\n        /* \"#utility.yul\":11181:11274   */\n      tag_255\n        /* \"#utility.yul\":11270:11273   */\n      dup3\n        /* \"#utility.yul\":11181:11274   */\n      tag_148\n      jump\t// in\n    tag_255:\n        /* \"#utility.yul\":11299:11300   */\n      0x00\n        /* \"#utility.yul\":11294:11297   */\n      dup3\n        /* \"#utility.yul\":11290:11301   */\n      add\n        /* \"#utility.yul\":11283:11301   */\n      swap1\n      pop\n        /* \"#utility.yul\":10909:11307   */\n      swap2\n      swap1\n      pop\n      jump\t// out\n        /* \"#utility.yul\":11313:11692   */\n    tag_101:\n        /* \"#utility.yul\":11497:11500   */\n      0x00\n        /* \"#utility.yul\":11519:11666   */\n      tag_257\n        /* \"#utility.yul\":11662:11665   */\n      dup3\n        /* \"#utility.yul\":11519:11666   */\n      tag_149\n      jump\t// in\n    tag_257:\n        /* \"#utility.yul\":11512:11666   */\n      swap2\n      pop\n        /* \"#utility.yul\":11683:11686   */\n      dup2\n        /* \"#utility.yul\":11676:11686   */\n      swap1\n      pop\n        /* \"#utility.yul\":11313:11692   */\n      swap2\n      swap1\n      pop\n      jump\t// out\n        /* \"#utility.yul\":11698:11867   */\n    tag_150:\n        /* \"#utility.yul\":11838:11859   */\n      0x455448205472616e73666572206661696c656400000000000000000000000000\n        /* \"#utility.yul\":11834:11835   */\n      0x00\n        /* \"#utility.yul\":11826:11832   */\n      dup3\n        /* \"#utility.yul\":11822:11836   */\n      add\n        /* \"#utility.yul\":11815:11860   */\n      mstore\n        /* \"#utility.yul\":11698:11867   */\n      pop\n      jump\t// out\n        /* \"#utility.yul\":11873:12239   */\n    tag_151:\n        /* \"#utility.yul\":12015:12018   */\n      0x00\n        /* \"#utility.yul\":12036:12103   */\n      tag_260\n        /* \"#utility.yul\":12100:12102   */\n      0x13\n        /* \"#utility.yul\":12095:12098   */\n      dup4\n        /* \"#utility.yul\":12036:12103   */\n      tag_132\n      jump\t// in\n    tag_260:\n        /* \"#utility.yul\":12029:12103   */\n      swap2\n      pop\n        /* \"#utility.yul\":12112:12205   */\n      tag_261\n        /* \"#utility.yul\":12201:12204   */\n      dup3\n        /* \"#utility.yul\":12112:12205   */\n      tag_150\n      jump\t// in\n    tag_261:\n        /* \"#utility.yul\":12230:12232   */\n      0x20\n        /* \"#utility.yul\":12225:12228   */\n      dup3\n        /* \"#utility.yul\":12221:12233   */\n      add\n        /* \"#utility.yul\":12214:12233   */\n      swap1\n      pop\n        /* \"#utility.yul\":11873:12239   */\n      swap2\n      swap1\n      pop\n      jump\t// out\n        /* \"#utility.yul\":12245:12664   */\n    tag_107:\n        /* \"#utility.yul\":12411:12415   */\n      0x00\n        /* \"#utility.yul\":12449:12451   */\n      0x20\n        /* \"#utility.yul\":12438:12447   */\n      dup3\n        /* \"#utility.yul\":12434:12452   */\n      add\n        /* \"#utility.yul\":12426:12452   */\n      swap1\n      pop\n        /* \"#utility.yul\":12498:12507   */\n      dup2\n        /* \"#utility.yul\":12492:12496   */\n      dup2\n        /* \"#utility.yul\":12488:12508   */\n      sub\n        /* \"#utility.yul\":12484:12485   */\n      0x00\n        /* \"#utility.yul\":12473:12482   */\n      dup4\n        /* \"#utility.yul\":12469:12486   */\n      add\n        /* \"#utility.yul\":12462:12509   */\n      mstore\n        /* \"#utility.yul\":12526:12657   */\n      tag_263\n        /* \"#utility.yul\":12652:12656   */\n      dup2\n        /* \"#utility.yul\":12526:12657   */\n      tag_151\n      jump\t// in\n    tag_263:\n        /* \"#utility.yul\":12518:12657   */\n      swap1\n      pop\n        /* \"#utility.yul\":12245:12664   */\n      swap2\n      swap1\n      pop\n      jump\t// out\n\n    auxdata: 0xa2646970667358221220fd51b08277f5fcebd749a766c32c35aa01bdb488cd460cdc2d7ec99208eddff264736f6c634300081e0033\n}\n",
				"bytecode": {
					"linkReferences": {},
					"object": "608060405234801561000f575f5ffd5b506040516110b53803806110b583398181016040528101906100319190610120565b5f8111610073576040517f08c379a000000000000000000000000000000000000000000000000000000000815260040161006a906101cb565b60405180910390fd5b3360015f6101000a81548173ffffffffffffffffffffffffffffffffffffffff021916908373ffffffffffffffffffffffffffffffffffffffff160217905550805f819055505f600160146101000a81548160ff021916908360018111156100de576100dd6101e9565b5b021790555050610216565b5f5ffd5b5f819050919050565b6100ff816100ed565b8114610109575f5ffd5b50565b5f8151905061011a816100f6565b92915050565b5f60208284031215610135576101346100e9565b5b5f6101428482850161010c565b91505092915050565b5f82825260208201905092915050565b7f456e7472792066656573206d7573742062652067726561746572207468616e205f8201527f7a65726f00000000000000000000000000000000000000000000000000000000602082015250565b5f6101b560248361014b565b91506101c08261015b565b604082019050919050565b5f6020820190508181035f8301526101e2816101a9565b9050919050565b7f4e487b71000000000000000000000000000000000000000000000000000000005f52602160045260245ffd5b610e92806102235f395ff3fe608060405260043610610085575f3560e01c8063b3182ba511610058578063b3182ba5146100fd578063cd61386d14610127578063ecfb49a314610151578063f71d96cb1461017b578063fe188184146101b857610085565b80631aa3a008146100895780636939864b146100935780638da5cb5b146100bd5780638e7ea5b2146100e7575b5f5ffd5b6100916101e2565b005b34801561009e575f5ffd5b506100a76103ab565b6040516100b491906108c5565b60405180910390f35b3480156100c8575f5ffd5b506100d16103be565b6040516100de919061091d565b60405180910390f35b3480156100f2575f5ffd5b506100fb6103e3565b005b348015610108575f5ffd5b50610111610599565b60405161011e919061094e565b60405180910390f35b348015610132575f5ffd5b5061013b61059e565b604051610148919061094e565b60405180910390f35b34801561015c575f5ffd5b506101656105aa565b604051610172919061094e565b60405180910390f35b348015610186575f5ffd5b506101a1600480360381019061019c9190610995565b6105b0565b6040516101af9291906109c0565b60405180910390f35b3480156101c3575f5ffd5b506101cc6105fe565b6040516101d9919061091d565b60405180910390f35b5f60018111156101f5576101f4610852565b5b600160149054906101000a900460ff16600181111561021757610216610852565b5b14610257576040517f08c379a000000000000000000000000000000000000000000000000000000000815260040161024e90610a41565b60405180910390fd5b5f54341461029a576040517f08c379a000000000000000000000000000000000000000000000000000000000815260040161029190610aa9565b60405180910390fd5b60035f8154809291906102ac90610af4565b91905055503460045f8282546102c29190610b3b565b925050819055506002604051806040016040528060035481526020013373ffffffffffffffffffffffffffffffffffffffff16815250908060018154018082558091505060019003905f5260205f2090600202015f909190919091505f820151815f01556020820151816001015f6101000a81548173ffffffffffffffffffffffffffffffffffffffff021916908373ffffffffffffffffffffffffffffffffffffffff16021790555050507f324cb0062138d65997c86cd3012489ceb351d602f2f55c7408306e8040c79f3f336003546040516103a1929190610b6e565b60405180910390a1565b600160149054906101000a900460ff1681565b60015f9054906101000a900473ffffffffffffffffffffffffffffffffffffffff1681565b60015f9054906101000a900473ffffffffffffffffffffffffffffffffffffffff1673ffffffffffffffffffffffffffffffffffffffff163373ffffffffffffffffffffffffffffffffffffffff1614610472576040517f08c379a000000000000000000000000000000000000000000000000000000000815260040161046990610bdf565b60405180910390fd5b5f600280549050116104b9576040517f08c379a00000000000000000000000000000000000000000000000000000000081526004016104b090610c47565b60405180910390fd5b5f60018111156104cc576104cb610852565b5b600160149054906101000a900460ff1660018111156104ee576104ed610852565b5b1461052e576040517f08c379a000000000000000000000000000000000000000000000000000000000815260040161052590610caf565b60405180910390fd5b60018060146101000a81548160ff0219169083600181111561055357610552610852565b5b02179055505f424460028054905060405160200161057393929190610ced565b604051602081830303815290604052805190602001205f1c905061059681610623565b50565b5f5481565b5f600280549050905090565b60045481565b600281815481106105bf575f80fd5b905f5260205f2090600202015f91509050805f015490806001015f9054906101000a900473ffffffffffffffffffffffffffffffffffffffff16905082565b60055f9054906101000a900473ffffffffffffffffffffffffffffffffffffffff1681565b5f600280549050826106359190610d56565b90505f6002828154811061064c5761064b610d86565b5b905f5260205f2090600202016001015f9054906101000a900473ffffffffffffffffffffffffffffffffffffffff1690508060055f6101000a81548173ffffffffffffffffffffffffffffffffffffffff021916908373ffffffffffffffffffffffffffffffffffffffff1602179055505f4790505f8273ffffffffffffffffffffffffffffffffffffffff16826040516106e690610de0565b5f6040518083038185875af1925050503d805f8114610720576040519150601f19603f3d011682016040523d82523d5f602084013e610725565b606091505b5050905080610769576040517f08c379a000000000000000000000000000000000000000000000000000000000815260040161076090610e3e565b60405180910390fd5b60025f61077691906107ee565b5f6003819055505f6004819055505f600160146101000a81548160ff021916908360018111156107a9576107a8610852565b5b02179055507f64791dbae5677392ba76761a5273633cec8f1d9d8cfe808da7bac6ef16a880be83836040516107df929190610b6e565b60405180910390a15050505050565b5080545f8255600202905f5260205f209081019061080c919061080f565b50565b5b8082111561084e575f5f82015f9055600182015f6101000a81549073ffffffffffffffffffffffffffffffffffffffff021916905550600201610810565b5090565b7f4e487b71000000000000000000000000000000000000000000000000000000005f52602160045260245ffd5b600281106108905761088f610852565b5b50565b5f8190506108a08261087f565b919050565b5f6108af82610893565b9050919050565b6108bf816108a5565b82525050565b5f6020820190506108d85f8301846108b6565b92915050565b5f73ffffffffffffffffffffffffffffffffffffffff82169050919050565b5f610907826108de565b9050919050565b610917816108fd565b82525050565b5f6020820190506109305f83018461090e565b92915050565b5f819050919050565b61094881610936565b82525050565b5f6020820190506109615f83018461093f565b92915050565b5f5ffd5b61097481610936565b811461097e575f5ffd5b50565b5f8135905061098f8161096b565b92915050565b5f602082840312156109aa576109a9610967565b5b5f6109b784828501610981565b91505092915050565b5f6040820190506109d35f83018561093f565b6109e0602083018461090e565b9392505050565b5f82825260208201905092915050565b7f4c6f7474657279206e6f74206f70656e000000000000000000000000000000005f82015250565b5f610a2b6010836109e7565b9150610a36826109f7565b602082019050919050565b5f6020820190508181035f830152610a5881610a1f565b9050919050565b7f53656e6420657861637420656e747279206665650000000000000000000000005f82015250565b5f610a936014836109e7565b9150610a9e82610a5f565b602082019050919050565b5f6020820190508181035f830152610ac081610a87565b9050919050565b7f4e487b71000000000000000000000000000000000000000000000000000000005f52601160045260245ffd5b5f610afe82610936565b91507fffffffffffffffffffffffffffffffffffffffffffffffffffffffffffffffff8203610b3057610b2f610ac7565b5b600182019050919050565b5f610b4582610936565b9150610b5083610936565b9250828201905080821115610b6857610b67610ac7565b5b92915050565b5f604082019050610b815f83018561090e565b610b8e602083018461093f565b9392505050565b7f4f6e6c79206f776e6572000000000000000000000000000000000000000000005f82015250565b5f610bc9600a836109e7565b9150610bd482610b95565b602082019050919050565b5f6020820190508181035f830152610bf681610bbd565b9050919050565b7f4e6f20706c6179657273000000000000000000000000000000000000000000005f82015250565b5f610c31600a836109e7565b9150610c3c82610bfd565b602082019050919050565b5f6020820190508181035f830152610c5e81610c25565b9050919050565b7f416c72656164792063616c63756c6174696e67000000000000000000000000005f82015250565b5f610c996013836109e7565b9150610ca482610c65565b602082019050919050565b5f6020820190508181035f830152610cc681610c8d565b9050919050565b5f819050919050565b610ce7610ce282610936565b610ccd565b82525050565b5f610cf88286610cd6565b602082019150610d088285610cd6565b602082019150610d188284610cd6565b602082019150819050949350505050565b7f4e487b71000000000000000000000000000000000000000000000000000000005f52601260045260245ffd5b5f610d6082610936565b9150610d6b83610936565b925082610d7b57610d7a610d29565b5b828206905092915050565b7f4e487b71000000000000000000000000000000000000000000000000000000005f52603260045260245ffd5b5f81905092915050565b50565b5f610dcb5f83610db3565b9150610dd682610dbd565b5f82019050919050565b5f610dea82610dc0565b9150819050919050565b7f455448205472616e73666572206661696c6564000000000000000000000000005f82015250565b5f610e286013836109e7565b9150610e3382610df4565b602082019050919050565b5f6020820190508181035f830152610e5581610e1c565b905091905056fea2646970667358221220fd51b08277f5fcebd749a766c32c35aa01bdb488cd460cdc2d7ec99208eddff264736f6c634300081e0033",
					"opcodes": "PUSH1 0x80 PUSH1 0x40 MSTORE CALLVALUE DUP1 ISZERO PUSH2 0xF JUMPI PUSH0 PUSH0 REVERT JUMPDEST POP PUSH1 0x40 MLOAD PUSH2 0x10B5 CODESIZE SUB DUP1 PUSH2 0x10B5 DUP4 CODECOPY DUP2 DUP2 ADD PUSH1 0x40 MSTORE DUP2 ADD SWAP1 PUSH2 0x31 SWAP2 SWAP1 PUSH2 0x120 JUMP JUMPDEST PUSH0 DUP2 GT PUSH2 0x73 JUMPI PUSH1 0x40 MLOAD PUSH32 0x8C379A000000000000000000000000000000000000000000000000000000000 DUP2 MSTORE PUSH1 0x4 ADD PUSH2 0x6A SWAP1 PUSH2 0x1CB JUMP JUMPDEST PUSH1 0x40 MLOAD DUP1 SWAP2 SUB SWAP1 REVERT JUMPDEST CALLER PUSH1 0x1 PUSH0 PUSH2 0x100 EXP DUP2 SLOAD DUP2 PUSH20 0xFFFFFFFFFFFFFFFFFFFFFFFFFFFFFFFFFFFFFFFF MUL NOT AND SWAP1 DUP4 PUSH20 0xFFFFFFFFFFFFFFFFFFFFFFFFFFFFFFFFFFFFFFFF AND MUL OR SWAP1 SSTORE POP DUP1 PUSH0 DUP2 SWAP1 SSTORE POP PUSH0 PUSH1 0x1 PUSH1 0x14 PUSH2 0x100 EXP DUP2 SLOAD DUP2 PUSH1 0xFF MUL NOT AND SWAP1 DUP4 PUSH1 0x1 DUP2 GT ISZERO PUSH2 0xDE JUMPI PUSH2 0xDD PUSH2 0x1E9 JUMP JUMPDEST JUMPDEST MUL OR SWAP1 SSTORE POP POP PUSH2 0x216 JUMP JUMPDEST PUSH0 PUSH0 REVERT JUMPDEST PUSH0 DUP2 SWAP1 POP SWAP2 SWAP1 POP JUMP JUMPDEST PUSH2 0xFF DUP2 PUSH2 0xED JUMP JUMPDEST DUP2 EQ PUSH2 0x109 JUMPI PUSH0 PUSH0 REVERT JUMPDEST POP JUMP JUMPDEST PUSH0 DUP2 MLOAD SWAP1 POP PUSH2 0x11A DUP2 PUSH2 0xF6 JUMP JUMPDEST SWAP3 SWAP2 POP POP JUMP JUMPDEST PUSH0 PUSH1 0x20 DUP3 DUP5 SUB SLT ISZERO PUSH2 0x135 JUMPI PUSH2 0x134 PUSH2 0xE9 JUMP JUMPDEST JUMPDEST PUSH0 PUSH2 0x142 DUP5 DUP3 DUP6 ADD PUSH2 0x10C JUMP JUMPDEST SWAP2 POP POP SWAP3 SWAP2 POP POP JUMP JUMPDEST PUSH0 DUP3 DUP3 MSTORE PUSH1 0x20 DUP3 ADD SWAP1 POP SWAP3 SWAP2 POP POP JUMP JUMPDEST PUSH32 0x456E7472792066656573206D7573742062652067726561746572207468616E20 PUSH0 DUP3 ADD MSTORE PUSH32 0x7A65726F00000000000000000000000000000000000000000000000000000000 PUSH1 0x20 DUP3 ADD MSTORE POP JUMP JUMPDEST PUSH0 PUSH2 0x1B5 PUSH1 0x24 DUP4 PUSH2 0x14B JUMP JUMPDEST SWAP2 POP PUSH2 0x1C0 DUP3 PUSH2 0x15B JUMP JUMPDEST PUSH1 0x40 DUP3 ADD SWAP1 POP SWAP2 SWAP1 POP JUMP JUMPDEST PUSH0 PUSH1 0x20 DUP3 ADD SWAP1 POP DUP2 DUP2 SUB PUSH0 DUP4 ADD MSTORE PUSH2 0x1E2 DUP2 PUSH2 0x1A9 JUMP JUMPDEST SWAP1 POP SWAP2 SWAP1 POP JUMP JUMPDEST PUSH32 0x4E487B7100000000000000000000000000000000000000000000000000000000 PUSH0 MSTORE PUSH1 0x21 PUSH1 0x4 MSTORE PUSH1 0x24 PUSH0 REVERT JUMPDEST PUSH2 0xE92 DUP1 PUSH2 0x223 PUSH0 CODECOPY PUSH0 RETURN INVALID PUSH1 0x80 PUSH1 0x40 MSTORE PUSH1 0x4 CALLDATASIZE LT PUSH2 0x85 JUMPI PUSH0 CALLDATALOAD PUSH1 0xE0 SHR DUP1 PUSH4 0xB3182BA5 GT PUSH2 0x58 JUMPI DUP1 PUSH4 0xB3182BA5 EQ PUSH2 0xFD JUMPI DUP1 PUSH4 0xCD61386D EQ PUSH2 0x127 JUMPI DUP1 PUSH4 0xECFB49A3 EQ PUSH2 0x151 JUMPI DUP1 PUSH4 0xF71D96CB EQ PUSH2 0x17B JUMPI DUP1 PUSH4 0xFE188184 EQ PUSH2 0x1B8 JUMPI PUSH2 0x85 JUMP JUMPDEST DUP1 PUSH4 0x1AA3A008 EQ PUSH2 0x89 JUMPI DUP1 PUSH4 0x6939864B EQ PUSH2 0x93 JUMPI DUP1 PUSH4 0x8DA5CB5B EQ PUSH2 0xBD JUMPI DUP1 PUSH4 0x8E7EA5B2 EQ PUSH2 0xE7 JUMPI JUMPDEST PUSH0 PUSH0 REVERT JUMPDEST PUSH2 0x91 PUSH2 0x1E2 JUMP JUMPDEST STOP JUMPDEST CALLVALUE DUP1 ISZERO PUSH2 0x9E JUMPI PUSH0 PUSH0 REVERT JUMPDEST POP PUSH2 0xA7 PUSH2 0x3AB JUMP JUMPDEST PUSH1 0x40 MLOAD PUSH2 0xB4 SWAP2 SWAP1 PUSH2 0x8C5 JUMP JUMPDEST PUSH1 0x40 MLOAD DUP1 SWAP2 SUB SWAP1 RETURN JUMPDEST CALLVALUE DUP1 ISZERO PUSH2 0xC8 JUMPI PUSH0 PUSH0 REVERT JUMPDEST POP PUSH2 0xD1 PUSH2 0x3BE JUMP JUMPDEST PUSH1 0x40 MLOAD PUSH2 0xDE SWAP2 SWAP1 PUSH2 0x91D JUMP JUMPDEST PUSH1 0x40 MLOAD DUP1 SWAP2 SUB SWAP1 RETURN JUMPDEST CALLVALUE DUP1 ISZERO PUSH2 0xF2 JUMPI PUSH0 PUSH0 REVERT JUMPDEST POP PUSH2 0xFB PUSH2 0x3E3 JUMP JUMPDEST STOP JUMPDEST CALLVALUE DUP1 ISZERO PUSH2 0x108 JUMPI PUSH0 PUSH0 REVERT JUMPDEST POP PUSH2 0x111 PUSH2 0x599 JUMP JUMPDEST PUSH1 0x40 MLOAD PUSH2 0x11E SWAP2 SWAP1 PUSH2 0x94E JUMP JUMPDEST PUSH1 0x40 MLOAD DUP1 SWAP2 SUB SWAP1 RETURN JUMPDEST CALLVALUE DUP1 ISZERO PUSH2 0x132 JUMPI PUSH0 PUSH0 REVERT JUMPDEST POP PUSH2 0x13B PUSH2 0x59E JUMP JUMPDEST PUSH1 0x40 MLOAD PUSH2 0x148 SWAP2 SWAP1 PUSH2 0x94E JUMP JUMPDEST PUSH1 0x40 MLOAD DUP1 SWAP2 SUB SWAP1 RETURN JUMPDEST CALLVALUE DUP1 ISZERO PUSH2 0x15C JUMPI PUSH0 PUSH0 REVERT JUMPDEST POP PUSH2 0x165 PUSH2 0x5AA JUMP JUMPDEST PUSH1 0x40 MLOAD PUSH2 0x172 SWAP2 SWAP1 PUSH2 0x94E JUMP JUMPDEST PUSH1 0x40 MLOAD DUP1 SWAP2 SUB SWAP1 RETURN JUMPDEST CALLVALUE DUP1 ISZERO PUSH2 0x186 JUMPI PUSH0 PUSH0 REVERT JUMPDEST POP PUSH2 0x1A1 PUSH1 0x4 DUP1 CALLDATASIZE SUB DUP2 ADD SWAP1 PUSH2 0x19C SWAP2 SWAP1 PUSH2 0x995 JUMP JUMPDEST PUSH2 0x5B0 JUMP JUMPDEST PUSH1 0x40 MLOAD PUSH2 0x1AF SWAP3 SWAP2 SWAP1 PUSH2 0x9C0 JUMP JUMPDEST PUSH1 0x40 MLOAD DUP1 SWAP2 SUB SWAP1 RETURN JUMPDEST CALLVALUE DUP1 ISZERO PUSH2 0x1C3 JUMPI PUSH0 PUSH0 REVERT JUMPDEST POP PUSH2 0x1CC PUSH2 0x5FE JUMP JUMPDEST PUSH1 0x40 MLOAD PUSH2 0x1D9 SWAP2 SWAP1 PUSH2 0x91D JUMP JUMPDEST PUSH1 0x40 MLOAD DUP1 SWAP2 SUB SWAP1 RETURN JUMPDEST PUSH0 PUSH1 0x1 DUP2 GT ISZERO PUSH2 0x1F5 JUMPI PUSH2 0x1F4 PUSH2 0x852 JUMP JUMPDEST JUMPDEST PUSH1 0x1 PUSH1 0x14 SWAP1 SLOAD SWAP1 PUSH2 0x100 EXP SWAP1 DIV PUSH1 0xFF AND PUSH1 0x1 DUP2 GT ISZERO PUSH2 0x217 JUMPI PUSH2 0x216 PUSH2 0x852 JUMP JUMPDEST JUMPDEST EQ PUSH2 0x257 JUMPI PUSH1 0x40 MLOAD PUSH32 0x8C379A000000000000000000000000000000000000000000000000000000000 DUP2 MSTORE PUSH1 0x4 ADD PUSH2 0x24E SWAP1 PUSH2 0xA41 JUMP JUMPDEST PUSH1 0x40 MLOAD DUP1 SWAP2 SUB SWAP1 REVERT JUMPDEST PUSH0 SLOAD CALLVALUE EQ PUSH2 0x29A JUMPI PUSH1 0x40 MLOAD PUSH32 0x8C379A000000000000000000000000000000000000000000000000000000000 DUP2 MSTORE PUSH1 0x4 ADD PUSH2 0x291 SWAP1 PUSH2 0xAA9 JUMP JUMPDEST PUSH1 0x40 MLOAD DUP1 SWAP2 SUB SWAP1 REVERT JUMPDEST PUSH1 0x3 PUSH0 DUP2 SLOAD DUP1 SWAP3 SWAP2 SWAP1 PUSH2 0x2AC SWAP1 PUSH2 0xAF4 JUMP JUMPDEST SWAP2 SWAP1 POP SSTORE POP CALLVALUE PUSH1 0x4 PUSH0 DUP3 DUP3 SLOAD PUSH2 0x2C2 SWAP2 SWAP1 PUSH2 0xB3B JUMP JUMPDEST SWAP3 POP POP DUP2 SWAP1 SSTORE POP PUSH1 0x2 PUSH1 0x40 MLOAD DUP1 PUSH1 0x40 ADD PUSH1 0x40 MSTORE DUP1 PUSH1 0x3 SLOAD DUP2 MSTORE PUSH1 0x20 ADD CALLER PUSH20 0xFFFFFFFFFFFFFFFFFFFFFFFFFFFFFFFFFFFFFFFF AND DUP2 MSTORE POP SWAP1 DUP1 PUSH1 0x1 DUP2 SLOAD ADD DUP1 DUP3 SSTORE DUP1 SWAP2 POP POP PUSH1 0x1 SWAP1 SUB SWAP1 PUSH0 MSTORE PUSH1 0x20 PUSH0 KECCAK256 SWAP1 PUSH1 0x2 MUL ADD PUSH0 SWAP1 SWAP2 SWAP1 SWAP2 SWAP1 SWAP2 POP PUSH0 DUP3 ADD MLOAD DUP2 PUSH0 ADD SSTORE PUSH1 0x20 DUP3 ADD MLOAD DUP2 PUSH1 0x1 ADD PUSH0 PUSH2 0x100 EXP DUP2 SLOAD DUP2 PUSH20 0xFFFFFFFFFFFFFFFFFFFFFFFFFFFFFFFFFFFFFFFF MUL NOT AND SWAP1 DUP4 PUSH20 0xFFFFFFFFFFFFFFFFFFFFFFFFFFFFFFFFFFFFFFFF AND MUL OR SWAP1 SSTORE POP POP POP PUSH32 0x324CB0062138D65997C86CD3012489CEB351D602F2F55C7408306E8040C79F3F CALLER PUSH1 0x3 SLOAD PUSH1 0x40 MLOAD PUSH2 0x3A1 SWAP3 SWAP2 SWAP1 PUSH2 0xB6E JUMP JUMPDEST PUSH1 0x40 MLOAD DUP1 SWAP2 SUB SWAP1 LOG1 JUMP JUMPDEST PUSH1 0x1 PUSH1 0x14 SWAP1 SLOAD SWAP1 PUSH2 0x100 EXP SWAP1 DIV PUSH1 0xFF AND DUP2 JUMP JUMPDEST PUSH1 0x1 PUSH0 SWAP1 SLOAD SWAP1 PUSH2 0x100 EXP SWAP1 DIV PUSH20 0xFFFFFFFFFFFFFFFFFFFFFFFFFFFFFFFFFFFFFFFF AND DUP2 JUMP JUMPDEST PUSH1 0x1 PUSH0 SWAP1 SLOAD SWAP1 PUSH2 0x100 EXP SWAP1 DIV PUSH20 0xFFFFFFFFFFFFFFFFFFFFFFFFFFFFFFFFFFFFFFFF AND PUSH20 0xFFFFFFFFFFFFFFFFFFFFFFFFFFFFFFFFFFFFFFFF AND CALLER PUSH20 0xFFFFFFFFFFFFFFFFFFFFFFFFFFFFFFFFFFFFFFFF AND EQ PUSH2 0x472 JUMPI PUSH1 0x40 MLOAD PUSH32 0x8C379A000000000000000000000000000000000000000000000000000000000 DUP2 MSTORE PUSH1 0x4 ADD PUSH2 0x469 SWAP1 PUSH2 0xBDF JUMP JUMPDEST PUSH1 0x40 MLOAD DUP1 SWAP2 SUB SWAP1 REVERT JUMPDEST PUSH0 PUSH1 0x2 DUP1 SLOAD SWAP1 POP GT PUSH2 0x4B9 JUMPI PUSH1 0x40 MLOAD PUSH32 0x8C379A000000000000000000000000000000000000000000000000000000000 DUP2 MSTORE PUSH1 0x4 ADD PUSH2 0x4B0 SWAP1 PUSH2 0xC47 JUMP JUMPDEST PUSH1 0x40 MLOAD DUP1 SWAP2 SUB SWAP1 REVERT JUMPDEST PUSH0 PUSH1 0x1 DUP2 GT ISZERO PUSH2 0x4CC JUMPI PUSH2 0x4CB PUSH2 0x852 JUMP JUMPDEST JUMPDEST PUSH1 0x1 PUSH1 0x14 SWAP1 SLOAD SWAP1 PUSH2 0x100 EXP SWAP1 DIV PUSH1 0xFF AND PUSH1 0x1 DUP2 GT ISZERO PUSH2 0x4EE JUMPI PUSH2 0x4ED PUSH2 0x852 JUMP JUMPDEST JUMPDEST EQ PUSH2 0x52E JUMPI PUSH1 0x40 MLOAD PUSH32 0x8C379A000000000000000000000000000000000000000000000000000000000 DUP2 MSTORE PUSH1 0x4 ADD PUSH2 0x525 SWAP1 PUSH2 0xCAF JUMP JUMPDEST PUSH1 0x40 MLOAD DUP1 SWAP2 SUB SWAP1 REVERT JUMPDEST PUSH1 0x1 DUP1 PUSH1 0x14 PUSH2 0x100 EXP DUP2 SLOAD DUP2 PUSH1 0xFF MUL NOT AND SWAP1 DUP4 PUSH1 0x1 DUP2 GT ISZERO PUSH2 0x553 JUMPI PUSH2 0x552 PUSH2 0x852 JUMP JUMPDEST JUMPDEST MUL OR SWAP1 SSTORE POP PUSH0 TIMESTAMP PREVRANDAO PUSH1 0x2 DUP1 SLOAD SWAP1 POP PUSH1 0x40 MLOAD PUSH1 0x20 ADD PUSH2 0x573 SWAP4 SWAP3 SWAP2 SWAP1 PUSH2 0xCED JUMP JUMPDEST PUSH1 0x40 MLOAD PUSH1 0x20 DUP2 DUP4 SUB SUB DUP2 MSTORE SWAP1 PUSH1 0x40 MSTORE DUP1 MLOAD SWAP1 PUSH1 0x20 ADD KECCAK256 PUSH0 SHR SWAP1 POP PUSH2 0x596 DUP2 PUSH2 0x623 JUMP JUMPDEST POP JUMP JUMPDEST PUSH0 SLOAD DUP2 JUMP JUMPDEST PUSH0 PUSH1 0x2 DUP1 SLOAD SWAP1 POP SWAP1 POP SWAP1 JUMP JUMPDEST PUSH1 0x4 SLOAD DUP2 JUMP JUMPDEST PUSH1 0x2 DUP2 DUP2 SLOAD DUP2 LT PUSH2 0x5BF JUMPI PUSH0 DUP1 REVERT JUMPDEST SWAP1 PUSH0 MSTORE PUSH1 0x20 PUSH0 KECCAK256 SWAP1 PUSH1 0x2 MUL ADD PUSH0 SWAP2 POP SWAP1 POP DUP1 PUSH0 ADD SLOAD SWAP1 DUP1 PUSH1 0x1 ADD PUSH0 SWAP1 SLOAD SWAP1 PUSH2 0x100 EXP SWAP1 DIV PUSH20 0xFFFFFFFFFFFFFFFFFFFFFFFFFFFFFFFFFFFFFFFF AND SWAP1 POP DUP3 JUMP JUMPDEST PUSH1 0x5 PUSH0 SWAP1 SLOAD SWAP1 PUSH2 0x100 EXP SWAP1 DIV PUSH20 0xFFFFFFFFFFFFFFFFFFFFFFFFFFFFFFFFFFFFFFFF AND DUP2 JUMP JUMPDEST PUSH0 PUSH1 0x2 DUP1 SLOAD SWAP1 POP DUP3 PUSH2 0x635 SWAP2 SWAP1 PUSH2 0xD56 JUMP JUMPDEST SWAP1 POP PUSH0 PUSH1 0x2 DUP3 DUP2 SLOAD DUP2 LT PUSH2 0x64C JUMPI PUSH2 0x64B PUSH2 0xD86 JUMP JUMPDEST JUMPDEST SWAP1 PUSH0 MSTORE PUSH1 0x20 PUSH0 KECCAK256 SWAP1 PUSH1 0x2 MUL ADD PUSH1 0x1 ADD PUSH0 SWAP1 SLOAD SWAP1 PUSH2 0x100 EXP SWAP1 DIV PUSH20 0xFFFFFFFFFFFFFFFFFFFFFFFFFFFFFFFFFFFFFFFF AND SWAP1 POP DUP1 PUSH1 0x5 PUSH0 PUSH2 0x100 EXP DUP2 SLOAD DUP2 PUSH20 0xFFFFFFFFFFFFFFFFFFFFFFFFFFFFFFFFFFFFFFFF MUL NOT AND SWAP1 DUP4 PUSH20 0xFFFFFFFFFFFFFFFFFFFFFFFFFFFFFFFFFFFFFFFF AND MUL OR SWAP1 SSTORE POP PUSH0 SELFBALANCE SWAP1 POP PUSH0 DUP3 PUSH20 0xFFFFFFFFFFFFFFFFFFFFFFFFFFFFFFFFFFFFFFFF AND DUP3 PUSH1 0x40 MLOAD PUSH2 0x6E6 SWAP1 PUSH2 0xDE0 JUMP JUMPDEST PUSH0 PUSH1 0x40 MLOAD DUP1 DUP4 SUB DUP2 DUP6 DUP8 GAS CALL SWAP3 POP POP POP RETURNDATASIZE DUP1 PUSH0 DUP2 EQ PUSH2 0x720 JUMPI PUSH1 0x40 MLOAD SWAP2 POP PUSH1 0x1F NOT PUSH1 0x3F RETURNDATASIZE ADD AND DUP3 ADD PUSH1 0x40 MSTORE RETURNDATASIZE DUP3 MSTORE RETURNDATASIZE PUSH0 PUSH1 0x20 DUP5 ADD RETURNDATACOPY PUSH2 0x725 JUMP JUMPDEST PUSH1 0x60 SWAP2 POP JUMPDEST POP POP SWAP1 POP DUP1 PUSH2 0x769 JUMPI PUSH1 0x40 MLOAD PUSH32 0x8C379A000000000000000000000000000000000000000000000000000000000 DUP2 MSTORE PUSH1 0x4 ADD PUSH2 0x760 SWAP1 PUSH2 0xE3E JUMP JUMPDEST PUSH1 0x40 MLOAD DUP1 SWAP2 SUB SWAP1 REVERT JUMPDEST PUSH1 0x2 PUSH0 PUSH2 0x776 SWAP2 SWAP1 PUSH2 0x7EE JUMP JUMPDEST PUSH0 PUSH1 0x3 DUP2 SWAP1 SSTORE POP PUSH0 PUSH1 0x4 DUP2 SWAP1 SSTORE POP PUSH0 PUSH1 0x1 PUSH1 0x14 PUSH2 0x100 EXP DUP2 SLOAD DUP2 PUSH1 0xFF MUL NOT AND SWAP1 DUP4 PUSH1 0x1 DUP2 GT ISZERO PUSH2 0x7A9 JUMPI PUSH2 0x7A8 PUSH2 0x852 JUMP JUMPDEST JUMPDEST MUL OR SWAP1 SSTORE POP PUSH32 0x64791DBAE5677392BA76761A5273633CEC8F1D9D8CFE808DA7BAC6EF16A880BE DUP4 DUP4 PUSH1 0x40 MLOAD PUSH2 0x7DF SWAP3 SWAP2 SWAP1 PUSH2 0xB6E JUMP JUMPDEST PUSH1 0x40 MLOAD DUP1 SWAP2 SUB SWAP1 LOG1 POP POP POP POP POP JUMP JUMPDEST POP DUP1 SLOAD PUSH0 DUP3 SSTORE PUSH1 0x2 MUL SWAP1 PUSH0 MSTORE PUSH1 0x20 PUSH0 KECCAK256 SWAP1 DUP2 ADD SWAP1 PUSH2 0x80C SWAP2 SWAP1 PUSH2 0x80F JUMP JUMPDEST POP JUMP JUMPDEST JUMPDEST DUP1 DUP3 GT ISZERO PUSH2 0x84E JUMPI PUSH0 PUSH0 DUP3 ADD PUSH0 SWAP1 SSTORE PUSH1 0x1 DUP3 ADD PUSH0 PUSH2 0x100 EXP DUP2 SLOAD SWAP1 PUSH20 0xFFFFFFFFFFFFFFFFFFFFFFFFFFFFFFFFFFFFFFFF MUL NOT AND SWAP1 SSTORE POP PUSH1 0x2 ADD PUSH2 0x810 JUMP JUMPDEST POP SWAP1 JUMP JUMPDEST PUSH32 0x4E487B7100000000000000000000000000000000000000000000000000000000 PUSH0 MSTORE PUSH1 0x21 PUSH1 0x4 MSTORE PUSH1 0x24 PUSH0 REVERT JUMPDEST PUSH1 0x2 DUP2 LT PUSH2 0x890 JUMPI PUSH2 0x88F PUSH2 0x852 JUMP JUMPDEST JUMPDEST POP JUMP JUMPDEST PUSH0 DUP2 SWAP1 POP PUSH2 0x8A0 DUP3 PUSH2 0x87F JUMP JUMPDEST SWAP2 SWAP1 POP JUMP JUMPDEST PUSH0 PUSH2 0x8AF DUP3 PUSH2 0x893 JUMP JUMPDEST SWAP1 POP SWAP2 SWAP1 POP JUMP JUMPDEST PUSH2 0x8BF DUP2 PUSH2 0x8A5 JUMP JUMPDEST DUP3 MSTORE POP POP JUMP JUMPDEST PUSH0 PUSH1 0x20 DUP3 ADD SWAP1 POP PUSH2 0x8D8 PUSH0 DUP4 ADD DUP5 PUSH2 0x8B6 JUMP JUMPDEST SWAP3 SWAP2 POP POP JUMP JUMPDEST PUSH0 PUSH20 0xFFFFFFFFFFFFFFFFFFFFFFFFFFFFFFFFFFFFFFFF DUP3 AND SWAP1 POP SWAP2 SWAP1 POP JUMP JUMPDEST PUSH0 PUSH2 0x907 DUP3 PUSH2 0x8DE JUMP JUMPDEST SWAP1 POP SWAP2 SWAP1 POP JUMP JUMPDEST PUSH2 0x917 DUP2 PUSH2 0x8FD JUMP JUMPDEST DUP3 MSTORE POP POP JUMP JUMPDEST PUSH0 PUSH1 0x20 DUP3 ADD SWAP1 POP PUSH2 0x930 PUSH0 DUP4 ADD DUP5 PUSH2 0x90E JUMP JUMPDEST SWAP3 SWAP2 POP POP JUMP JUMPDEST PUSH0 DUP2 SWAP1 POP SWAP2 SWAP1 POP JUMP JUMPDEST PUSH2 0x948 DUP2 PUSH2 0x936 JUMP JUMPDEST DUP3 MSTORE POP POP JUMP JUMPDEST PUSH0 PUSH1 0x20 DUP3 ADD SWAP1 POP PUSH2 0x961 PUSH0 DUP4 ADD DUP5 PUSH2 0x93F JUMP JUMPDEST SWAP3 SWAP2 POP POP JUMP JUMPDEST PUSH0 PUSH0 REVERT JUMPDEST PUSH2 0x974 DUP2 PUSH2 0x936 JUMP JUMPDEST DUP2 EQ PUSH2 0x97E JUMPI PUSH0 PUSH0 REVERT JUMPDEST POP JUMP JUMPDEST PUSH0 DUP2 CALLDATALOAD SWAP1 POP PUSH2 0x98F DUP2 PUSH2 0x96B JUMP JUMPDEST SWAP3 SWAP2 POP POP JUMP JUMPDEST PUSH0 PUSH1 0x20 DUP3 DUP5 SUB SLT ISZERO PUSH2 0x9AA JUMPI PUSH2 0x9A9 PUSH2 0x967 JUMP JUMPDEST JUMPDEST PUSH0 PUSH2 0x9B7 DUP5 DUP3 DUP6 ADD PUSH2 0x981 JUMP JUMPDEST SWAP2 POP POP SWAP3 SWAP2 POP POP JUMP JUMPDEST PUSH0 PUSH1 0x40 DUP3 ADD SWAP1 POP PUSH2 0x9D3 PUSH0 DUP4 ADD DUP6 PUSH2 0x93F JUMP JUMPDEST PUSH2 0x9E0 PUSH1 0x20 DUP4 ADD DUP5 PUSH2 0x90E JUMP JUMPDEST SWAP4 SWAP3 POP POP POP JUMP JUMPDEST PUSH0 DUP3 DUP3 MSTORE PUSH1 0x20 DUP3 ADD SWAP1 POP SWAP3 SWAP2 POP POP JUMP JUMPDEST PUSH32 0x4C6F7474657279206E6F74206F70656E00000000000000000000000000000000 PUSH0 DUP3 ADD MSTORE POP JUMP JUMPDEST PUSH0 PUSH2 0xA2B PUSH1 0x10 DUP4 PUSH2 0x9E7 JUMP JUMPDEST SWAP2 POP PUSH2 0xA36 DUP3 PUSH2 0x9F7 JUMP JUMPDEST PUSH1 0x20 DUP3 ADD SWAP1 POP SWAP2 SWAP1 POP JUMP JUMPDEST PUSH0 PUSH1 0x20 DUP3 ADD SWAP1 POP DUP2 DUP2 SUB PUSH0 DUP4 ADD MSTORE PUSH2 0xA58 DUP2 PUSH2 0xA1F JUMP JUMPDEST SWAP1 POP SWAP2 SWAP1 POP JUMP JUMPDEST PUSH32 0x53656E6420657861637420656E74727920666565000000000000000000000000 PUSH0 DUP3 ADD MSTORE POP JUMP JUMPDEST PUSH0 PUSH2 0xA93 PUSH1 0x14 DUP4 PUSH2 0x9E7 JUMP JUMPDEST SWAP2 POP PUSH2 0xA9E DUP3 PUSH2 0xA5F JUMP JUMPDEST PUSH1 0x20 DUP3 ADD SWAP1 POP SWAP2 SWAP1 POP JUMP JUMPDEST PUSH0 PUSH1 0x20 DUP3 ADD SWAP1 POP DUP2 DUP2 SUB PUSH0 DUP4 ADD MSTORE PUSH2 0xAC0 DUP2 PUSH2 0xA87 JUMP JUMPDEST SWAP1 POP SWAP2 SWAP1 POP JUMP JUMPDEST PUSH32 0x4E487B7100000000000000000000000000000000000000000000000000000000 PUSH0 MSTORE PUSH1 0x11 PUSH1 0x4 MSTORE PUSH1 0x24 PUSH0 REVERT JUMPDEST PUSH0 PUSH2 0xAFE DUP3 PUSH2 0x936 JUMP JUMPDEST SWAP2 POP PUSH32 0xFFFFFFFFFFFFFFFFFFFFFFFFFFFFFFFFFFFFFFFFFFFFFFFFFFFFFFFFFFFFFFFF DUP3 SUB PUSH2 0xB30 JUMPI PUSH2 0xB2F PUSH2 0xAC7 JUMP JUMPDEST JUMPDEST PUSH1 0x1 DUP3 ADD SWAP1 POP SWAP2 SWAP1 POP JUMP JUMPDEST PUSH0 PUSH2 0xB45 DUP3 PUSH2 0x936 JUMP JUMPDEST SWAP2 POP PUSH2 0xB50 DUP4 PUSH2 0x936 JUMP JUMPDEST SWAP3 POP DUP3 DUP3 ADD SWAP1 POP DUP1 DUP3 GT ISZERO PUSH2 0xB68 JUMPI PUSH2 0xB67 PUSH2 0xAC7 JUMP JUMPDEST JUMPDEST SWAP3 SWAP2 POP POP JUMP JUMPDEST PUSH0 PUSH1 0x40 DUP3 ADD SWAP1 POP PUSH2 0xB81 PUSH0 DUP4 ADD DUP6 PUSH2 0x90E JUMP JUMPDEST PUSH2 0xB8E PUSH1 0x20 DUP4 ADD DUP5 PUSH2 0x93F JUMP JUMPDEST SWAP4 SWAP3 POP POP POP JUMP JUMPDEST PUSH32 0x4F6E6C79206F776E657200000000000000000000000000000000000000000000 PUSH0 DUP3 ADD MSTORE POP JUMP JUMPDEST PUSH0 PUSH2 0xBC9 PUSH1 0xA DUP4 PUSH2 0x9E7 JUMP JUMPDEST SWAP2 POP PUSH2 0xBD4 DUP3 PUSH2 0xB95 JUMP JUMPDEST PUSH1 0x20 DUP3 ADD SWAP1 POP SWAP2 SWAP1 POP JUMP JUMPDEST PUSH0 PUSH1 0x20 DUP3 ADD SWAP1 POP DUP2 DUP2 SUB PUSH0 DUP4 ADD MSTORE PUSH2 0xBF6 DUP2 PUSH2 0xBBD JUMP JUMPDEST SWAP1 POP SWAP2 SWAP1 POP JUMP JUMPDEST PUSH32 0x4E6F20706C617965727300000000000000000000000000000000000000000000 PUSH0 DUP3 ADD MSTORE POP JUMP JUMPDEST PUSH0 PUSH2 0xC31 PUSH1 0xA DUP4 PUSH2 0x9E7 JUMP JUMPDEST SWAP2 POP PUSH2 0xC3C DUP3 PUSH2 0xBFD JUMP JUMPDEST PUSH1 0x20 DUP3 ADD SWAP1 POP SWAP2 SWAP1 POP JUMP JUMPDEST PUSH0 PUSH1 0x20 DUP3 ADD SWAP1 POP DUP2 DUP2 SUB PUSH0 DUP4 ADD MSTORE PUSH2 0xC5E DUP2 PUSH2 0xC25 JUMP JUMPDEST SWAP1 POP SWAP2 SWAP1 POP JUMP JUMPDEST PUSH32 0x416C72656164792063616C63756C6174696E6700000000000000000000000000 PUSH0 DUP3 ADD MSTORE POP JUMP JUMPDEST PUSH0 PUSH2 0xC99 PUSH1 0x13 DUP4 PUSH2 0x9E7 JUMP JUMPDEST SWAP2 POP PUSH2 0xCA4 DUP3 PUSH2 0xC65 JUMP JUMPDEST PUSH1 0x20 DUP3 ADD SWAP1 POP SWAP2 SWAP1 POP JUMP JUMPDEST PUSH0 PUSH1 0x20 DUP3 ADD SWAP1 POP DUP2 DUP2 SUB PUSH0 DUP4 ADD MSTORE PUSH2 0xCC6 DUP2 PUSH2 0xC8D JUMP JUMPDEST SWAP1 POP SWAP2 SWAP1 POP JUMP JUMPDEST PUSH0 DUP2 SWAP1 POP SWAP2 SWAP1 POP JUMP JUMPDEST PUSH2 0xCE7 PUSH2 0xCE2 DUP3 PUSH2 0x936 JUMP JUMPDEST PUSH2 0xCCD JUMP JUMPDEST DUP3 MSTORE POP POP JUMP JUMPDEST PUSH0 PUSH2 0xCF8 DUP3 DUP7 PUSH2 0xCD6 JUMP JUMPDEST PUSH1 0x20 DUP3 ADD SWAP2 POP PUSH2 0xD08 DUP3 DUP6 PUSH2 0xCD6 JUMP JUMPDEST PUSH1 0x20 DUP3 ADD SWAP2 POP PUSH2 0xD18 DUP3 DUP5 PUSH2 0xCD6 JUMP JUMPDEST PUSH1 0x20 DUP3 ADD SWAP2 POP DUP2 SWAP1 POP SWAP5 SWAP4 POP POP POP POP JUMP JUMPDEST PUSH32 0x4E487B7100000000000000000000000000000000000000000000000000000000 PUSH0 MSTORE PUSH1 0x12 PUSH1 0x4 MSTORE PUSH1 0x24 PUSH0 REVERT JUMPDEST PUSH0 PUSH2 0xD60 DUP3 PUSH2 0x936 JUMP JUMPDEST SWAP2 POP PUSH2 0xD6B DUP4 PUSH2 0x936 JUMP JUMPDEST SWAP3 POP DUP3 PUSH2 0xD7B JUMPI PUSH2 0xD7A PUSH2 0xD29 JUMP JUMPDEST JUMPDEST DUP3 DUP3 MOD SWAP1 POP SWAP3 SWAP2 POP POP JUMP JUMPDEST PUSH32 0x4E487B7100000000000000000000000000000000000000000000000000000000 PUSH0 MSTORE PUSH1 0x32 PUSH1 0x4 MSTORE PUSH1 0x24 PUSH0 REVERT JUMPDEST PUSH0 DUP2 SWAP1 POP SWAP3 SWAP2 POP POP JUMP JUMPDEST POP JUMP JUMPDEST PUSH0 PUSH2 0xDCB PUSH0 DUP4 PUSH2 0xDB3 JUMP JUMPDEST SWAP2 POP PUSH2 0xDD6 DUP3 PUSH2 0xDBD JUMP JUMPDEST PUSH0 DUP3 ADD SWAP1 POP SWAP2 SWAP1 POP JUMP JUMPDEST PUSH0 PUSH2 0xDEA DUP3 PUSH2 0xDC0 JUMP JUMPDEST SWAP2 POP DUP2 SWAP1 POP SWAP2 SWAP1 POP JUMP JUMPDEST PUSH32 0x455448205472616E73666572206661696C656400000000000000000000000000 PUSH0 DUP3 ADD MSTORE POP JUMP JUMPDEST PUSH0 PUSH2 0xE28 PUSH1 0x13 DUP4 PUSH2 0x9E7 JUMP JUMPDEST SWAP2 POP PUSH2 0xE33 DUP3 PUSH2 0xDF4 JUMP JUMPDEST PUSH1 0x20 DUP3 ADD SWAP1 POP SWAP2 SWAP1 POP JUMP JUMPDEST PUSH0 PUSH1 0x20 DUP3 ADD SWAP1 POP DUP2 DUP2 SUB PUSH0 DUP4 ADD MSTORE PUSH2 0xE55 DUP2 PUSH2 0xE1C JUMP JUMPDEST SWAP1 POP SWAP2 SWAP1 POP JUMP INVALID LOG2 PUSH5 0x6970667358 0x22 SLT KECCAK256 REVERT MLOAD 0xB0 DUP3 PUSH24 0xF5FCEBD749A766C32C35AA01BDB488CD460CDC2D7EC99208 0xED 0xDF CALLCODE PUSH5 0x736F6C6343 STOP ADDMOD 0x1E STOP CALLER "
				},
				"gasEstimates": {
					"creation": {
						"codeDepositCost": "746000",
						"executionCost": "infinite",
						"totalCost": "infinite"
					},
					"external": {
						"entryFees()": "2424",
						"getPlayersLength()": "2462",
						"getWinner()": "infinite",
						"lastWinner()": "2596",
						"lotteryState()": "2628",
						"owner()": "2553",
						"players(uint256)": "infinite",
						"register()": "infinite",
						"totalPool()": "2469"
					},
					"internal": {
						"fulfillRandomWords(uint256)": "infinite"
					}
				},
				"methodIdentifiers": {
					"entryFees()": "b3182ba5",
					"getPlayersLength()": "cd61386d",
					"getWinner()": "8e7ea5b2",
					"lastWinner()": "fe188184",
					"lotteryState()": "6939864b",
					"owner()": "8da5cb5b",
					"players(uint256)": "f71d96cb",
					"register()": "1aa3a008",
					"totalPool()": "ecfb49a3"
				}
			},
			"storageLayout": {
				"storage": [
					{
						"astId": 3,
						"contract": "Smart Contracts/8_Lottery.sol:LotterySimulatedVRF",
						"label": "entryFees",
						"offset": 0,
						"slot": "0",
						"type": "t_uint256"
					},
					{
						"astId": 5,
						"contract": "Smart Contracts/8_Lottery.sol:LotterySimulatedVRF",
						"label": "owner",
						"offset": 0,
						"slot": "1",
						"type": "t_address"
					},
					{
						"astId": 11,
						"contract": "Smart Contracts/8_Lottery.sol:LotterySimulatedVRF",
						"label": "lotteryState",
						"offset": 20,
						"slot": "1",
						"type": "t_enum(LotteryState)8"
					},
					{
						"astId": 20,
						"contract": "Smart Contracts/8_Lottery.sol:LotterySimulatedVRF",
						"label": "players",
						"offset": 0,
						"slot": "2",
						"type": "t_array(t_struct(Player)16_storage)dyn_storage"
					},
					{
						"astId": 22,
						"contract": "Smart Contracts/8_Lottery.sol:LotterySimulatedVRF",
						"label": "id",
						"offset": 0,
						"slot": "3",
						"type": "t_uint256"
					},
					{
						"astId": 24,
						"contract": "Smart Contracts/8_Lottery.sol:LotterySimulatedVRF",
						"label": "totalPool",
						"offset": 0,
						"slot": "4",
						"type": "t_uint256"
					},
					{
						"astId": 26,
						"contract": "Smart Contracts/8_Lottery.sol:LotterySimulatedVRF",
						"label": "lastWinner",
						"offset": 0,
						"slot": "5",
						"type": "t_address"
					}
				],
				"types": {
					"t_address": {
						"encoding": "inplace",
						"label": "address",
						"numberOfBytes": "20"
					},
					"t_array(t_struct(Player)16_storage)dyn_storage": {
						"base": "t_struct(Player)16_storage",
						"encoding": "dynamic_array",
						"label": "struct LotterySimulatedVRF.Player[]",
						"numberOfBytes": "32"
					},
					"t_enum(LotteryState)8": {
						"encoding": "inplace",
						"label": "enum LotterySimulatedVRF.LotteryState",
						"numberOfBytes": "1"
					},
					"t_struct(Player)16_storage": {
						"encoding": "inplace",
						"label": "struct LotterySimulatedVRF.Player",
						"members": [
							{
								"astId": 13,
								"contract": "Smart Contracts/8_Lottery.sol:LotterySimulatedVRF",
								"label": "id",
								"offset": 0,
								"slot": "0",
								"type": "t_uint256"
							},
							{
								"astId": 15,
								"contract": "Smart Contracts/8_Lottery.sol:LotterySimulatedVRF",
								"label": "playerAddress",
								"offset": 0,
								"slot": "1",
								"type": "t_address"
							}
						],
						"numberOfBytes": "64"
					},
					"t_uint256": {
						"encoding": "inplace",
						"label": "uint256",
						"numberOfBytes": "32"
					}
				}
			},
			"userdoc": {
				"kind": "user",
				"methods": {},
				"version": 1
			}
		}
	}
}