{
	"Smart Contracts/13_YieldFarm.sol": {
		"YieldFarming": {
			"abi": [
				{
					"inputs": [
						{
							"internalType": "address",
							"name": "_stakingToken",
							"type": "address"
						},
						{
							"internalType": "address",
							"name": "_rewardToken",
							"type": "address"
						},
						{
							"internalType": "uint256",
							"name": "_rewardRate",
							"type": "uint256"
						}
					],
					"stateMutability": "nonpayable",
					"type": "constructor"
				},
				{
					"anonymous": false,
					"inputs": [
						{
							"indexed": true,
							"internalType": "address",
							"name": "user",
							"type": "address"
						},
						{
							"indexed": false,
							"internalType": "uint256",
							"name": "reward",
							"type": "uint256"
						}
					],
					"name": "RewardPaid",
					"type": "event"
				},
				{
					"anonymous": false,
					"inputs": [
						{
							"indexed": true,
							"internalType": "address",
							"name": "user",
							"type": "address"
						},
						{
							"indexed": false,
							"internalType": "uint256",
							"name": "amount",
							"type": "uint256"
						}
					],
					"name": "Staked",
					"type": "event"
				},
				{
					"anonymous": false,
					"inputs": [
						{
							"indexed": true,
							"internalType": "address",
							"name": "user",
							"type": "address"
						},
						{
							"indexed": false,
							"internalType": "uint256",
							"name": "amount",
							"type": "uint256"
						}
					],
					"name": "Withdrawn",
					"type": "event"
				},
				{
					"inputs": [
						{
							"internalType": "address",
							"name": "",
							"type": "address"
						}
					],
					"name": "balances",
					"outputs": [
						{
							"internalType": "uint256",
							"name": "",
							"type": "uint256"
						}
					],
					"stateMutability": "view",
					"type": "function"
				},
				{
					"inputs": [],
					"name": "claimReward",
					"outputs": [],
					"stateMutability": "nonpayable",
					"type": "function"
				},
				{
					"inputs": [
						{
							"internalType": "address",
							"name": "account",
							"type": "address"
						}
					],
					"name": "earned",
					"outputs": [
						{
							"internalType": "uint256",
							"name": "",
							"type": "uint256"
						}
					],
					"stateMutability": "view",
					"type": "function"
				},
				{
					"inputs": [],
					"name": "exit",
					"outputs": [],
					"stateMutability": "nonpayable",
					"type": "function"
				},
				{
					"inputs": [],
					"name": "lastTimeRewardApplicable",
					"outputs": [
						{
							"internalType": "uint256",
							"name": "",
							"type": "uint256"
						}
					],
					"stateMutability": "view",
					"type": "function"
				},
				{
					"inputs": [],
					"name": "lastUpdateTime",
					"outputs": [
						{
							"internalType": "uint256",
							"name": "",
							"type": "uint256"
						}
					],
					"stateMutability": "view",
					"type": "function"
				},
				{
					"inputs": [],
					"name": "rewardPerToken",
					"outputs": [
						{
							"internalType": "uint256",
							"name": "",
							"type": "uint256"
						}
					],
					"stateMutability": "view",
					"type": "function"
				},
				{
					"inputs": [],
					"name": "rewardPerTokenStored",
					"outputs": [
						{
							"internalType": "uint256",
							"name": "",
							"type": "uint256"
						}
					],
					"stateMutability": "view",
					"type": "function"
				},
				{
					"inputs": [],
					"name": "rewardRate",
					"outputs": [
						{
							"internalType": "uint256",
							"name": "",
							"type": "uint256"
						}
					],
					"stateMutability": "view",
					"type": "function"
				},
				{
					"inputs": [],
					"name": "rewardToken",
					"outputs": [
						{
							"internalType": "contract IERC20",
							"name": "",
							"type": "address"
						}
					],
					"stateMutability": "view",
					"type": "function"
				},
				{
					"inputs": [
						{
							"internalType": "address",
							"name": "",
							"type": "address"
						}
					],
					"name": "rewards",
					"outputs": [
						{
							"internalType": "uint256",
							"name": "",
							"type": "uint256"
						}
					],
					"stateMutability": "view",
					"type": "function"
				},
				{
					"inputs": [
						{
							"internalType": "uint256",
							"name": "amount",
							"type": "uint256"
						}
					],
					"name": "stake",
					"outputs": [],
					"stateMutability": "nonpayable",
					"type": "function"
				},
				{
					"inputs": [],
					"name": "stakingToken",
					"outputs": [
						{
							"internalType": "contract IERC20",
							"name": "",
							"type": "address"
						}
					],
					"stateMutability": "view",
					"type": "function"
				},
				{
					"inputs": [],
					"name": "totalStaked",
					"outputs": [
						{
							"internalType": "uint256",
							"name": "",
							"type": "uint256"
						}
					],
					"stateMutability": "view",
					"type": "function"
				},
				{
					"inputs": [
						{
							"internalType": "address",
							"name": "",
							"type": "address"
						}
					],
					"name": "userRewardPerTokenPaid",
					"outputs": [
						{
							"internalType": "uint256",
							"name": "",
							"type": "uint256"
						}
					],
					"stateMutability": "view",
					"type": "function"
				},
				{
					"inputs": [
						{
							"internalType": "uint256",
							"name": "amount",
							"type": "uint256"
						}
					],
					"name": "withdraw",
					"outputs": [],
					"stateMutability": "nonpayable",
					"type": "function"
				}
			],
			"devdoc": {
				"kind": "dev",
				"methods": {},
				"version": 1
			},
			"evm": {
				"assembly": "    /* \"Smart Contracts/13_YieldFarm.sol\":291:3547  contract YieldFarming is ReentrancyGuard {... */\n  mstore(0x40, 0x80)\n    /* \"Smart Contracts/13_YieldFarm.sol\":898:1188  constructor(... */\n  callvalue\n  dup1\n  iszero\n  tag_1\n  jumpi\n  revert(0x00, 0x00)\ntag_1:\n  pop\n  mload(0x40)\n  sub(codesize, bytecodeSize)\n  dup1\n  bytecodeSize\n  dup4\n  codecopy\n  dup2\n  dup2\n  add\n  0x40\n  mstore\n  dup2\n  add\n  swap1\n  tag_2\n  swap2\n  swap1\n  tag_3\n  jump\t// in\ntag_2:\n    /* \"https://github.com/OpenZeppelin/openzeppelin-contracts/blob/v4.9.0/contracts/security/ReentrancyGuard.sol\":1716:1717  1 */\n  0x01\n    /* \"https://github.com/OpenZeppelin/openzeppelin-contracts/blob/v4.9.0/contracts/security/ReentrancyGuard.sol\":1821:1828  _status */\n  0x00\n    /* \"https://github.com/OpenZeppelin/openzeppelin-contracts/blob/v4.9.0/contracts/security/ReentrancyGuard.sol\":1821:1843  _status = _NOT_ENTERED */\n  dup2\n  swap1\n  sstore\n  pop\n    /* \"Smart Contracts/13_YieldFarm.sol\":1043:1056  _stakingToken */\n  dup3\n    /* \"Smart Contracts/13_YieldFarm.sol\":1021:1033  stakingToken */\n  0x01\n  0x00\n    /* \"Smart Contracts/13_YieldFarm.sol\":1021:1057  stakingToken = IERC20(_stakingToken) */\n  0x0100\n  exp\n  dup2\n  sload\n  dup2\n  0xffffffffffffffffffffffffffffffffffffffff\n  mul\n  not\n  and\n  swap1\n  dup4\n  0xffffffffffffffffffffffffffffffffffffffff\n  and\n  mul\n  or\n  swap1\n  sstore\n  pop\n    /* \"Smart Contracts/13_YieldFarm.sol\":1089:1101  _rewardToken */\n  dup2\n    /* \"Smart Contracts/13_YieldFarm.sol\":1068:1079  rewardToken */\n  0x02\n  0x00\n    /* \"Smart Contracts/13_YieldFarm.sol\":1068:1102  rewardToken = IERC20(_rewardToken) */\n  0x0100\n  exp\n  dup2\n  sload\n  dup2\n  0xffffffffffffffffffffffffffffffffffffffff\n  mul\n  not\n  and\n  swap1\n  dup4\n  0xffffffffffffffffffffffffffffffffffffffff\n  and\n  mul\n  or\n  swap1\n  sstore\n  pop\n    /* \"Smart Contracts/13_YieldFarm.sol\":1126:1137  _rewardRate */\n  dup1\n    /* \"Smart Contracts/13_YieldFarm.sol\":1113:1123  rewardRate */\n  0x03\n    /* \"Smart Contracts/13_YieldFarm.sol\":1113:1137  rewardRate = _rewardRate */\n  dup2\n  swap1\n  sstore\n  pop\n    /* \"Smart Contracts/13_YieldFarm.sol\":1165:1180  block.timestamp */\n  timestamp\n    /* \"Smart Contracts/13_YieldFarm.sol\":1148:1162  lastUpdateTime */\n  0x05\n    /* \"Smart Contracts/13_YieldFarm.sol\":1148:1180  lastUpdateTime = block.timestamp */\n  dup2\n  swap1\n  sstore\n  pop\n    /* \"Smart Contracts/13_YieldFarm.sol\":898:1188  constructor(... */\n  pop\n  pop\n  pop\n    /* \"Smart Contracts/13_YieldFarm.sol\":291:3547  contract YieldFarming is ReentrancyGuard {... */\n  jump(tag_8)\n    /* \"#utility.yul\":88:205   */\ntag_10:\n    /* \"#utility.yul\":197:198   */\n  0x00\n    /* \"#utility.yul\":194:195   */\n  0x00\n    /* \"#utility.yul\":187:199   */\n  revert\n    /* \"#utility.yul\":334:460   */\ntag_12:\n    /* \"#utility.yul\":371:378   */\n  0x00\n    /* \"#utility.yul\":411:453   */\n  0xffffffffffffffffffffffffffffffffffffffff\n    /* \"#utility.yul\":404:409   */\n  dup3\n    /* \"#utility.yul\":400:454   */\n  and\n    /* \"#utility.yul\":389:454   */\n  swap1\n  pop\n    /* \"#utility.yul\":334:460   */\n  swap2\n  swap1\n  pop\n  jump\t// out\n    /* \"#utility.yul\":466:562   */\ntag_13:\n    /* \"#utility.yul\":503:510   */\n  0x00\n    /* \"#utility.yul\":532:556   */\n  tag_25\n    /* \"#utility.yul\":550:555   */\n  dup3\n    /* \"#utility.yul\":532:556   */\n  tag_12\n  jump\t// in\ntag_25:\n    /* \"#utility.yul\":521:556   */\n  swap1\n  pop\n    /* \"#utility.yul\":466:562   */\n  swap2\n  swap1\n  pop\n  jump\t// out\n    /* \"#utility.yul\":568:690   */\ntag_14:\n    /* \"#utility.yul\":641:665   */\n  tag_27\n    /* \"#utility.yul\":659:664   */\n  dup2\n    /* \"#utility.yul\":641:665   */\n  tag_13\n  jump\t// in\ntag_27:\n    /* \"#utility.yul\":634:639   */\n  dup2\n    /* \"#utility.yul\":631:666   */\n  eq\n    /* \"#utility.yul\":621:684   */\n  tag_28\n  jumpi\n    /* \"#utility.yul\":680:681   */\n  0x00\n    /* \"#utility.yul\":677:678   */\n  0x00\n    /* \"#utility.yul\":670:682   */\n  revert\n    /* \"#utility.yul\":621:684   */\ntag_28:\n    /* \"#utility.yul\":568:690   */\n  pop\n  jump\t// out\n    /* \"#utility.yul\":696:839   */\ntag_15:\n    /* \"#utility.yul\":753:758   */\n  0x00\n    /* \"#utility.yul\":784:790   */\n  dup2\n    /* \"#utility.yul\":778:791   */\n  mload\n    /* \"#utility.yul\":769:791   */\n  swap1\n  pop\n    /* \"#utility.yul\":800:833   */\n  tag_30\n    /* \"#utility.yul\":827:832   */\n  dup2\n    /* \"#utility.yul\":800:833   */\n  tag_14\n  jump\t// in\ntag_30:\n    /* \"#utility.yul\":696:839   */\n  swap3\n  swap2\n  pop\n  pop\n  jump\t// out\n    /* \"#utility.yul\":845:922   */\ntag_16:\n    /* \"#utility.yul\":882:889   */\n  0x00\n    /* \"#utility.yul\":911:916   */\n  dup2\n    /* \"#utility.yul\":900:916   */\n  swap1\n  pop\n    /* \"#utility.yul\":845:922   */\n  swap2\n  swap1\n  pop\n  jump\t// out\n    /* \"#utility.yul\":928:1050   */\ntag_17:\n    /* \"#utility.yul\":1001:1025   */\n  tag_33\n    /* \"#utility.yul\":1019:1024   */\n  dup2\n    /* \"#utility.yul\":1001:1025   */\n  tag_16\n  jump\t// in\ntag_33:\n    /* \"#utility.yul\":994:999   */\n  dup2\n    /* \"#utility.yul\":991:1026   */\n  eq\n    /* \"#utility.yul\":981:1044   */\n  tag_34\n  jumpi\n    /* \"#utility.yul\":1040:1041   */\n  0x00\n    /* \"#utility.yul\":1037:1038   */\n  0x00\n    /* \"#utility.yul\":1030:1042   */\n  revert\n    /* \"#utility.yul\":981:1044   */\ntag_34:\n    /* \"#utility.yul\":928:1050   */\n  pop\n  jump\t// out\n    /* \"#utility.yul\":1056:1199   */\ntag_18:\n    /* \"#utility.yul\":1113:1118   */\n  0x00\n    /* \"#utility.yul\":1144:1150   */\n  dup2\n    /* \"#utility.yul\":1138:1151   */\n  mload\n    /* \"#utility.yul\":1129:1151   */\n  swap1\n  pop\n    /* \"#utility.yul\":1160:1193   */\n  tag_36\n    /* \"#utility.yul\":1187:1192   */\n  dup2\n    /* \"#utility.yul\":1160:1193   */\n  tag_17\n  jump\t// in\ntag_36:\n    /* \"#utility.yul\":1056:1199   */\n  swap3\n  swap2\n  pop\n  pop\n  jump\t// out\n    /* \"#utility.yul\":1205:1868   */\ntag_3:\n    /* \"#utility.yul\":1293:1299   */\n  0x00\n    /* \"#utility.yul\":1301:1307   */\n  0x00\n    /* \"#utility.yul\":1309:1315   */\n  0x00\n    /* \"#utility.yul\":1358:1360   */\n  0x60\n    /* \"#utility.yul\":1346:1355   */\n  dup5\n    /* \"#utility.yul\":1337:1344   */\n  dup7\n    /* \"#utility.yul\":1333:1356   */\n  sub\n    /* \"#utility.yul\":1329:1361   */\n  slt\n    /* \"#utility.yul\":1326:1445   */\n  iszero\n  tag_38\n  jumpi\n    /* \"#utility.yul\":1364:1443   */\n  tag_39\n  tag_10\n  jump\t// in\ntag_39:\n    /* \"#utility.yul\":1326:1445   */\ntag_38:\n    /* \"#utility.yul\":1484:1485   */\n  0x00\n    /* \"#utility.yul\":1509:1573   */\n  tag_40\n    /* \"#utility.yul\":1565:1572   */\n  dup7\n    /* \"#utility.yul\":1556:1562   */\n  dup3\n    /* \"#utility.yul\":1545:1554   */\n  dup8\n    /* \"#utility.yul\":1541:1563   */\n  add\n    /* \"#utility.yul\":1509:1573   */\n  tag_15\n  jump\t// in\ntag_40:\n    /* \"#utility.yul\":1499:1573   */\n  swap4\n  pop\n    /* \"#utility.yul\":1455:1583   */\n  pop\n    /* \"#utility.yul\":1622:1624   */\n  0x20\n    /* \"#utility.yul\":1648:1712   */\n  tag_41\n    /* \"#utility.yul\":1704:1711   */\n  dup7\n    /* \"#utility.yul\":1695:1701   */\n  dup3\n    /* \"#utility.yul\":1684:1693   */\n  dup8\n    /* \"#utility.yul\":1680:1702   */\n  add\n    /* \"#utility.yul\":1648:1712   */\n  tag_15\n  jump\t// in\ntag_41:\n    /* \"#utility.yul\":1638:1712   */\n  swap3\n  pop\n    /* \"#utility.yul\":1593:1722   */\n  pop\n    /* \"#utility.yul\":1761:1763   */\n  0x40\n    /* \"#utility.yul\":1787:1851   */\n  tag_42\n    /* \"#utility.yul\":1843:1850   */\n  dup7\n    /* \"#utility.yul\":1834:1840   */\n  dup3\n    /* \"#utility.yul\":1823:1832   */\n  dup8\n    /* \"#utility.yul\":1819:1841   */\n  add\n    /* \"#utility.yul\":1787:1851   */\n  tag_18\n  jump\t// in\ntag_42:\n    /* \"#utility.yul\":1777:1851   */\n  swap2\n  pop\n    /* \"#utility.yul\":1732:1861   */\n  pop\n    /* \"#utility.yul\":1205:1868   */\n  swap3\n  pop\n  swap3\n  pop\n  swap3\n  jump\t// out\n    /* \"Smart Contracts/13_YieldFarm.sol\":291:3547  contract YieldFarming is ReentrancyGuard {... */\ntag_8:\n  dataSize(sub_0)\n  dup1\n  dataOffset(sub_0)\n  0x00\n  codecopy\n  0x00\n  return\nstop\n\nsub_0: assembly {\n        /* \"Smart Contracts/13_YieldFarm.sol\":291:3547  contract YieldFarming is ReentrancyGuard {... */\n      mstore(0x40, 0x80)\n      callvalue\n      dup1\n      iszero\n      tag_1\n      jumpi\n      revert(0x00, 0x00)\n    tag_1:\n      pop\n      jumpi(tag_2, lt(calldatasize, 0x04))\n      shr(0xe0, calldataload(0x00))\n      dup1\n      0x8b876347\n      gt\n      tag_19\n      jumpi\n      dup1\n      0xcd3daf9d\n      gt\n      tag_20\n      jumpi\n      dup1\n      0xcd3daf9d\n      eq\n      tag_15\n      jumpi\n      dup1\n      0xdf136d65\n      eq\n      tag_16\n      jumpi\n      dup1\n      0xe9fad8ee\n      eq\n      tag_17\n      jumpi\n      dup1\n      0xf7c618c1\n      eq\n      tag_18\n      jumpi\n      jump(tag_2)\n    tag_20:\n      dup1\n      0x8b876347\n      eq\n      tag_11\n      jumpi\n      dup1\n      0xa694fc3a\n      eq\n      tag_12\n      jumpi\n      dup1\n      0xb88a802f\n      eq\n      tag_13\n      jumpi\n      dup1\n      0xc8f33c91\n      eq\n      tag_14\n      jumpi\n      jump(tag_2)\n    tag_19:\n      dup1\n      0x72f702f3\n      gt\n      tag_21\n      jumpi\n      dup1\n      0x72f702f3\n      eq\n      tag_7\n      jumpi\n      dup1\n      0x7b0a47ee\n      eq\n      tag_8\n      jumpi\n      dup1\n      0x80faa57d\n      eq\n      tag_9\n      jumpi\n      dup1\n      0x817b1cd2\n      eq\n      tag_10\n      jumpi\n      jump(tag_2)\n    tag_21:\n      dup1\n      0x8cc262\n      eq\n      tag_3\n      jumpi\n      dup1\n      0x0700037d\n      eq\n      tag_4\n      jumpi\n      dup1\n      0x27e235e3\n      eq\n      tag_5\n      jumpi\n      dup1\n      0x2e1a7d4d\n      eq\n      tag_6\n      jumpi\n    tag_2:\n      revert(0x00, 0x00)\n        /* \"Smart Contracts/13_YieldFarm.sol\":1636:1886  function earned(address account) public view returns (uint256) {... */\n    tag_3:\n      tag_22\n      0x04\n      dup1\n      calldatasize\n      sub\n      dup2\n      add\n      swap1\n      tag_23\n      swap2\n      swap1\n      tag_24\n      jump\t// in\n    tag_23:\n      tag_25\n      jump\t// in\n    tag_22:\n      mload(0x40)\n      tag_26\n      swap2\n      swap1\n      tag_27\n      jump\t// in\n    tag_26:\n      mload(0x40)\n      dup1\n      swap2\n      sub\n      swap1\n      return\n        /* \"Smart Contracts/13_YieldFarm.sol\":667:709  mapping(address => uint256) public rewards */\n    tag_4:\n      tag_28\n      0x04\n      dup1\n      calldatasize\n      sub\n      dup2\n      add\n      swap1\n      tag_29\n      swap2\n      swap1\n      tag_24\n      jump\t// in\n    tag_29:\n      tag_30\n      jump\t// in\n    tag_28:\n      mload(0x40)\n      tag_31\n      swap2\n      swap1\n      tag_27\n      jump\t// in\n    tag_31:\n      mload(0x40)\n      dup1\n      swap2\n      sub\n      swap1\n      return\n        /* \"Smart Contracts/13_YieldFarm.sol\":553:596  mapping(address => uint256) public balances */\n    tag_5:\n      tag_32\n      0x04\n      dup1\n      calldatasize\n      sub\n      dup2\n      add\n      swap1\n      tag_33\n      swap2\n      swap1\n      tag_24\n      jump\t// in\n    tag_33:\n      tag_34\n      jump\t// in\n    tag_32:\n      mload(0x40)\n      tag_35\n      swap2\n      swap1\n      tag_27\n      jump\t// in\n    tag_35:\n      mload(0x40)\n      dup1\n      swap2\n      sub\n      swap1\n      return\n        /* \"Smart Contracts/13_YieldFarm.sol\":2671:3094  function withdraw(uint256 amount)... */\n    tag_6:\n      tag_36\n      0x04\n      dup1\n      calldatasize\n      sub\n      dup2\n      add\n      swap1\n      tag_37\n      swap2\n      swap1\n      tag_38\n      jump\t// in\n    tag_37:\n      tag_39\n      jump\t// in\n    tag_36:\n      stop\n        /* \"Smart Contracts/13_YieldFarm.sol\":341:367  IERC20 public stakingToken */\n    tag_7:\n      tag_40\n      tag_41\n      jump\t// in\n    tag_40:\n      mload(0x40)\n      tag_42\n      swap2\n      swap1\n      tag_43\n      jump\t// in\n    tag_42:\n      mload(0x40)\n      dup1\n      swap2\n      sub\n      swap1\n      return\n        /* \"Smart Contracts/13_YieldFarm.sol\":408:433  uint256 public rewardRate */\n    tag_8:\n      tag_44\n      tag_45\n      jump\t// in\n    tag_44:\n      mload(0x40)\n      tag_46\n      swap2\n      swap1\n      tag_27\n      jump\t// in\n    tag_46:\n      mload(0x40)\n      dup1\n      swap2\n      sub\n      swap1\n      return\n        /* \"Smart Contracts/13_YieldFarm.sol\":1196:1303  function lastTimeRewardApplicable() public view returns (uint256) {... */\n    tag_9:\n      tag_47\n      tag_48\n      jump\t// in\n    tag_47:\n      mload(0x40)\n      tag_49\n      swap2\n      swap1\n      tag_27\n      jump\t// in\n    tag_49:\n      mload(0x40)\n      dup1\n      swap2\n      sub\n      swap1\n      return\n        /* \"Smart Contracts/13_YieldFarm.sol\":440:466  uint256 public totalStaked */\n    tag_10:\n      tag_50\n      tag_51\n      jump\t// in\n    tag_50:\n      mload(0x40)\n      tag_52\n      swap2\n      swap1\n      tag_27\n      jump\t// in\n    tag_52:\n      mload(0x40)\n      dup1\n      swap2\n      sub\n      swap1\n      return\n        /* \"Smart Contracts/13_YieldFarm.sol\":603:660  mapping(address => uint256) public userRewardPerTokenPaid */\n    tag_11:\n      tag_53\n      0x04\n      dup1\n      calldatasize\n      sub\n      dup2\n      add\n      swap1\n      tag_54\n      swap2\n      swap1\n      tag_24\n      jump\t// in\n    tag_54:\n      tag_55\n      jump\t// in\n    tag_53:\n      mload(0x40)\n      tag_56\n      swap2\n      swap1\n      tag_27\n      jump\t// in\n    tag_56:\n      mload(0x40)\n      dup1\n      swap2\n      sub\n      swap1\n      return\n        /* \"Smart Contracts/13_YieldFarm.sol\":2296:2657  function stake(uint256 amount)... */\n    tag_12:\n      tag_57\n      0x04\n      dup1\n      calldatasize\n      sub\n      dup2\n      add\n      swap1\n      tag_58\n      swap2\n      swap1\n      tag_38\n      jump\t// in\n    tag_58:\n      tag_59\n      jump\t// in\n    tag_57:\n      stop\n        /* \"Smart Contracts/13_YieldFarm.sol\":3102:3438  function claimReward()... */\n    tag_13:\n      tag_60\n      tag_61\n      jump\t// in\n    tag_60:\n      stop\n        /* \"Smart Contracts/13_YieldFarm.sol\":473:502  uint256 public lastUpdateTime */\n    tag_14:\n      tag_62\n      tag_63\n      jump\t// in\n    tag_62:\n      mload(0x40)\n      tag_64\n      swap2\n      swap1\n      tag_27\n      jump\t// in\n    tag_64:\n      mload(0x40)\n      dup1\n      swap2\n      sub\n      swap1\n      return\n        /* \"Smart Contracts/13_YieldFarm.sol\":1311:1628  function rewardPerToken() public view returns (uint256) {... */\n    tag_15:\n      tag_65\n      tag_66\n      jump\t// in\n    tag_65:\n      mload(0x40)\n      tag_67\n      swap2\n      swap1\n      tag_27\n      jump\t// in\n    tag_67:\n      mload(0x40)\n      dup1\n      swap2\n      sub\n      swap1\n      return\n        /* \"Smart Contracts/13_YieldFarm.sol\":509:544  uint256 public rewardPerTokenStored */\n    tag_16:\n      tag_68\n      tag_69\n      jump\t// in\n    tag_68:\n      mload(0x40)\n      tag_70\n      swap2\n      swap1\n      tag_27\n      jump\t// in\n    tag_70:\n      mload(0x40)\n      dup1\n      swap2\n      sub\n      swap1\n      return\n        /* \"Smart Contracts/13_YieldFarm.sol\":3446:3544  function exit() external {... */\n    tag_17:\n      tag_71\n      tag_72\n      jump\t// in\n    tag_71:\n      stop\n        /* \"Smart Contracts/13_YieldFarm.sol\":374:399  IERC20 public rewardToken */\n    tag_18:\n      tag_73\n      tag_74\n      jump\t// in\n    tag_73:\n      mload(0x40)\n      tag_75\n      swap2\n      swap1\n      tag_43\n      jump\t// in\n    tag_75:\n      mload(0x40)\n      dup1\n      swap2\n      sub\n      swap1\n      return\n        /* \"Smart Contracts/13_YieldFarm.sol\":1636:1886  function earned(address account) public view returns (uint256) {... */\n    tag_25:\n        /* \"Smart Contracts/13_YieldFarm.sol\":1690:1697  uint256 */\n      0x00\n        /* \"Smart Contracts/13_YieldFarm.sol\":1862:1869  rewards */\n      0x09\n        /* \"Smart Contracts/13_YieldFarm.sol\":1862:1878  rewards[account] */\n      0x00\n        /* \"Smart Contracts/13_YieldFarm.sol\":1870:1877  account */\n      dup4\n        /* \"Smart Contracts/13_YieldFarm.sol\":1862:1878  rewards[account] */\n      0xffffffffffffffffffffffffffffffffffffffff\n      and\n      0xffffffffffffffffffffffffffffffffffffffff\n      and\n      dup2\n      mstore\n      0x20\n      add\n      swap1\n      dup2\n      mstore\n      0x20\n      add\n      0x00\n      keccak256\n      sload\n        /* \"Smart Contracts/13_YieldFarm.sol\":1842:1846  1e18 */\n      0x0de0b6b3a7640000\n        /* \"Smart Contracts/13_YieldFarm.sol\":1788:1810  userRewardPerTokenPaid */\n      0x08\n        /* \"Smart Contracts/13_YieldFarm.sol\":1788:1819  userRewardPerTokenPaid[account] */\n      0x00\n        /* \"Smart Contracts/13_YieldFarm.sol\":1811:1818  account */\n      dup6\n        /* \"Smart Contracts/13_YieldFarm.sol\":1788:1819  userRewardPerTokenPaid[account] */\n      0xffffffffffffffffffffffffffffffffffffffff\n      and\n      0xffffffffffffffffffffffffffffffffffffffff\n      and\n      dup2\n      mstore\n      0x20\n      add\n      swap1\n      dup2\n      mstore\n      0x20\n      add\n      0x00\n      keccak256\n      sload\n        /* \"Smart Contracts/13_YieldFarm.sol\":1769:1785  rewardPerToken() */\n      tag_77\n        /* \"Smart Contracts/13_YieldFarm.sol\":1769:1783  rewardPerToken */\n      tag_66\n        /* \"Smart Contracts/13_YieldFarm.sol\":1769:1785  rewardPerToken() */\n      jump\t// in\n    tag_77:\n        /* \"Smart Contracts/13_YieldFarm.sol\":1769:1819  rewardPerToken() - userRewardPerTokenPaid[account] */\n      tag_78\n      swap2\n      swap1\n      tag_79\n      jump\t// in\n    tag_78:\n        /* \"Smart Contracts/13_YieldFarm.sol\":1731:1739  balances */\n      0x07\n        /* \"Smart Contracts/13_YieldFarm.sol\":1731:1748  balances[account] */\n      0x00\n        /* \"Smart Contracts/13_YieldFarm.sol\":1740:1747  account */\n      dup7\n        /* \"Smart Contracts/13_YieldFarm.sol\":1731:1748  balances[account] */\n      0xffffffffffffffffffffffffffffffffffffffff\n      and\n      0xffffffffffffffffffffffffffffffffffffffff\n      and\n      dup2\n      mstore\n      0x20\n      add\n      swap1\n      dup2\n      mstore\n      0x20\n      add\n      0x00\n      keccak256\n      sload\n        /* \"Smart Contracts/13_YieldFarm.sol\":1731:1820  balances[account]... */\n      tag_80\n      swap2\n      swap1\n      tag_81\n      jump\t// in\n    tag_80:\n        /* \"Smart Contracts/13_YieldFarm.sol\":1730:1846  (balances[account]... */\n      tag_82\n      swap2\n      swap1\n      tag_83\n      jump\t// in\n    tag_82:\n        /* \"Smart Contracts/13_YieldFarm.sol\":1730:1878  (balances[account]... */\n      tag_84\n      swap2\n      swap1\n      tag_85\n      jump\t// in\n    tag_84:\n        /* \"Smart Contracts/13_YieldFarm.sol\":1710:1878  return... */\n      swap1\n      pop\n        /* \"Smart Contracts/13_YieldFarm.sol\":1636:1886  function earned(address account) public view returns (uint256) {... */\n      swap2\n      swap1\n      pop\n      jump\t// out\n        /* \"Smart Contracts/13_YieldFarm.sol\":667:709  mapping(address => uint256) public rewards */\n    tag_30:\n      mstore(0x20, 0x09)\n      dup1\n      0x00\n      mstore\n      keccak256(0x00, 0x40)\n      0x00\n      swap2\n      pop\n      swap1\n      pop\n      sload\n      dup2\n      jump\t// out\n        /* \"Smart Contracts/13_YieldFarm.sol\":553:596  mapping(address => uint256) public balances */\n    tag_34:\n      mstore(0x20, 0x07)\n      dup1\n      0x00\n      mstore\n      keccak256(0x00, 0x40)\n      0x00\n      swap2\n      pop\n      swap1\n      pop\n      sload\n      dup2\n      jump\t// out\n        /* \"Smart Contracts/13_YieldFarm.sol\":2671:3094  function withdraw(uint256 amount)... */\n    tag_39:\n        /* \"https://github.com/OpenZeppelin/openzeppelin-contracts/blob/v4.9.0/contracts/security/ReentrancyGuard.sol\":2261:2282  _nonReentrantBefore() */\n      tag_87\n        /* \"https://github.com/OpenZeppelin/openzeppelin-contracts/blob/v4.9.0/contracts/security/ReentrancyGuard.sol\":2261:2280  _nonReentrantBefore */\n      tag_88\n        /* \"https://github.com/OpenZeppelin/openzeppelin-contracts/blob/v4.9.0/contracts/security/ReentrancyGuard.sol\":2261:2282  _nonReentrantBefore() */\n      jump\t// in\n    tag_87:\n        /* \"Smart Contracts/13_YieldFarm.sol\":2765:2775  msg.sender */\n      caller\n        /* \"Smart Contracts/13_YieldFarm.sol\":1967:1983  rewardPerToken() */\n      tag_90\n        /* \"Smart Contracts/13_YieldFarm.sol\":1967:1981  rewardPerToken */\n      tag_66\n        /* \"Smart Contracts/13_YieldFarm.sol\":1967:1983  rewardPerToken() */\n      jump\t// in\n    tag_90:\n        /* \"Smart Contracts/13_YieldFarm.sol\":1944:1964  rewardPerTokenStored */\n      0x06\n        /* \"Smart Contracts/13_YieldFarm.sol\":1944:1983  rewardPerTokenStored = rewardPerToken() */\n      dup2\n      swap1\n      sstore\n      pop\n        /* \"Smart Contracts/13_YieldFarm.sol\":2011:2037  lastTimeRewardApplicable() */\n      tag_91\n        /* \"Smart Contracts/13_YieldFarm.sol\":2011:2035  lastTimeRewardApplicable */\n      tag_48\n        /* \"Smart Contracts/13_YieldFarm.sol\":2011:2037  lastTimeRewardApplicable() */\n      jump\t// in\n    tag_91:\n        /* \"Smart Contracts/13_YieldFarm.sol\":1994:2008  lastUpdateTime */\n      0x05\n        /* \"Smart Contracts/13_YieldFarm.sol\":1994:2037  lastUpdateTime = lastTimeRewardApplicable() */\n      dup2\n      swap1\n      sstore\n      pop\n        /* \"Smart Contracts/13_YieldFarm.sol\":2073:2074  0 */\n      0x00\n        /* \"Smart Contracts/13_YieldFarm.sol\":2054:2075  account != address(0) */\n      0xffffffffffffffffffffffffffffffffffffffff\n      and\n        /* \"Smart Contracts/13_YieldFarm.sol\":2054:2061  account */\n      dup2\n        /* \"Smart Contracts/13_YieldFarm.sol\":2054:2075  account != address(0) */\n      0xffffffffffffffffffffffffffffffffffffffff\n      and\n      eq\n        /* \"Smart Contracts/13_YieldFarm.sol\":2050:2207  if (account != address(0)) {... */\n      tag_92\n      jumpi\n        /* \"Smart Contracts/13_YieldFarm.sol\":2111:2126  earned(account) */\n      tag_93\n        /* \"Smart Contracts/13_YieldFarm.sol\":2118:2125  account */\n      dup2\n        /* \"Smart Contracts/13_YieldFarm.sol\":2111:2117  earned */\n      tag_25\n        /* \"Smart Contracts/13_YieldFarm.sol\":2111:2126  earned(account) */\n      jump\t// in\n    tag_93:\n        /* \"Smart Contracts/13_YieldFarm.sol\":2092:2099  rewards */\n      0x09\n        /* \"Smart Contracts/13_YieldFarm.sol\":2092:2108  rewards[account] */\n      0x00\n        /* \"Smart Contracts/13_YieldFarm.sol\":2100:2107  account */\n      dup4\n        /* \"Smart Contracts/13_YieldFarm.sol\":2092:2108  rewards[account] */\n      0xffffffffffffffffffffffffffffffffffffffff\n      and\n      0xffffffffffffffffffffffffffffffffffffffff\n      and\n      dup2\n      mstore\n      0x20\n      add\n      swap1\n      dup2\n      mstore\n      0x20\n      add\n      0x00\n      keccak256\n        /* \"Smart Contracts/13_YieldFarm.sol\":2092:2126  rewards[account] = earned(account) */\n      dup2\n      swap1\n      sstore\n      pop\n        /* \"Smart Contracts/13_YieldFarm.sol\":2175:2195  rewardPerTokenStored */\n      sload(0x06)\n        /* \"Smart Contracts/13_YieldFarm.sol\":2141:2163  userRewardPerTokenPaid */\n      0x08\n        /* \"Smart Contracts/13_YieldFarm.sol\":2141:2172  userRewardPerTokenPaid[account] */\n      0x00\n        /* \"Smart Contracts/13_YieldFarm.sol\":2164:2171  account */\n      dup4\n        /* \"Smart Contracts/13_YieldFarm.sol\":2141:2172  userRewardPerTokenPaid[account] */\n      0xffffffffffffffffffffffffffffffffffffffff\n      and\n      0xffffffffffffffffffffffffffffffffffffffff\n      and\n      dup2\n      mstore\n      0x20\n      add\n      swap1\n      dup2\n      mstore\n      0x20\n      add\n      0x00\n      keccak256\n        /* \"Smart Contracts/13_YieldFarm.sol\":2141:2195  userRewardPerTokenPaid[account] = rewardPerTokenStored */\n      dup2\n      swap1\n      sstore\n      pop\n        /* \"Smart Contracts/13_YieldFarm.sol\":2050:2207  if (account != address(0)) {... */\n    tag_92:\n        /* \"Smart Contracts/13_YieldFarm.sol\":2810:2811  0 */\n      0x00\n        /* \"Smart Contracts/13_YieldFarm.sol\":2801:2807  amount */\n      dup3\n        /* \"Smart Contracts/13_YieldFarm.sol\":2801:2811  amount > 0 */\n      gt\n        /* \"Smart Contracts/13_YieldFarm.sol\":2793:2836  require(amount > 0, \"Cannot withdraw zero\") */\n      tag_95\n      jumpi\n      mload(0x40)\n      0x08c379a000000000000000000000000000000000000000000000000000000000\n      dup2\n      mstore\n      0x04\n      add\n      tag_96\n      swap1\n      tag_97\n      jump\t// in\n    tag_96:\n      mload(0x40)\n      dup1\n      swap2\n      sub\n      swap1\n      revert\n    tag_95:\n        /* \"Smart Contracts/13_YieldFarm.sol\":2879:2885  amount */\n      dup2\n        /* \"Smart Contracts/13_YieldFarm.sol\":2855:2863  balances */\n      0x07\n        /* \"Smart Contracts/13_YieldFarm.sol\":2855:2875  balances[msg.sender] */\n      0x00\n        /* \"Smart Contracts/13_YieldFarm.sol\":2864:2874  msg.sender */\n      caller\n        /* \"Smart Contracts/13_YieldFarm.sol\":2855:2875  balances[msg.sender] */\n      0xffffffffffffffffffffffffffffffffffffffff\n      and\n      0xffffffffffffffffffffffffffffffffffffffff\n      and\n      dup2\n      mstore\n      0x20\n      add\n      swap1\n      dup2\n      mstore\n      0x20\n      add\n      0x00\n      keccak256\n      sload\n        /* \"Smart Contracts/13_YieldFarm.sol\":2855:2885  balances[msg.sender] >= amount */\n      lt\n      iszero\n        /* \"Smart Contracts/13_YieldFarm.sol\":2847:2910  require(balances[msg.sender] >= amount, \"Insufficient balance\") */\n      tag_98\n      jumpi\n      mload(0x40)\n      0x08c379a000000000000000000000000000000000000000000000000000000000\n      dup2\n      mstore\n      0x04\n      add\n      tag_99\n      swap1\n      tag_100\n      jump\t// in\n    tag_99:\n      mload(0x40)\n      dup1\n      swap2\n      sub\n      swap1\n      revert\n    tag_98:\n        /* \"Smart Contracts/13_YieldFarm.sol\":2938:2944  amount */\n      dup2\n        /* \"Smart Contracts/13_YieldFarm.sol\":2923:2934  totalStaked */\n      0x04\n      0x00\n        /* \"Smart Contracts/13_YieldFarm.sol\":2923:2944  totalStaked -= amount */\n      dup3\n      dup3\n      sload\n      tag_101\n      swap2\n      swap1\n      tag_79\n      jump\t// in\n    tag_101:\n      swap3\n      pop\n      pop\n      dup2\n      swap1\n      sstore\n      pop\n        /* \"Smart Contracts/13_YieldFarm.sol\":2979:2985  amount */\n      dup2\n        /* \"Smart Contracts/13_YieldFarm.sol\":2955:2963  balances */\n      0x07\n        /* \"Smart Contracts/13_YieldFarm.sol\":2955:2975  balances[msg.sender] */\n      0x00\n        /* \"Smart Contracts/13_YieldFarm.sol\":2964:2974  msg.sender */\n      caller\n        /* \"Smart Contracts/13_YieldFarm.sol\":2955:2975  balances[msg.sender] */\n      0xffffffffffffffffffffffffffffffffffffffff\n      and\n      0xffffffffffffffffffffffffffffffffffffffff\n      and\n      dup2\n      mstore\n      0x20\n      add\n      swap1\n      dup2\n      mstore\n      0x20\n      add\n      0x00\n      keccak256\n      0x00\n        /* \"Smart Contracts/13_YieldFarm.sol\":2955:2985  balances[msg.sender] -= amount */\n      dup3\n      dup3\n      sload\n      tag_102\n      swap2\n      swap1\n      tag_79\n      jump\t// in\n    tag_102:\n      swap3\n      pop\n      pop\n      dup2\n      swap1\n      sstore\n      pop\n        /* \"Smart Contracts/13_YieldFarm.sol\":2998:3010  stakingToken */\n      0x01\n      0x00\n      swap1\n      sload\n      swap1\n      0x0100\n      exp\n      swap1\n      div\n      0xffffffffffffffffffffffffffffffffffffffff\n      and\n        /* \"Smart Contracts/13_YieldFarm.sol\":2998:3019  stakingToken.transfer */\n      0xffffffffffffffffffffffffffffffffffffffff\n      and\n      0xa9059cbb\n        /* \"Smart Contracts/13_YieldFarm.sol\":3020:3030  msg.sender */\n      caller\n        /* \"Smart Contracts/13_YieldFarm.sol\":3032:3038  amount */\n      dup5\n        /* \"Smart Contracts/13_YieldFarm.sol\":2998:3039  stakingToken.transfer(msg.sender, amount) */\n      mload(0x40)\n      dup4\n      0xffffffff\n      and\n      0xe0\n      shl\n      dup2\n      mstore\n      0x04\n      add\n      tag_103\n      swap3\n      swap2\n      swap1\n      tag_104\n      jump\t// in\n    tag_103:\n      0x20\n      mload(0x40)\n      dup1\n      dup4\n      sub\n      dup2\n      0x00\n      dup8\n      gas\n      call\n      iszero\n      dup1\n      iszero\n      tag_106\n      jumpi\n      returndatacopy(0x00, 0x00, returndatasize)\n      revert(0x00, returndatasize)\n    tag_106:\n      pop\n      pop\n      pop\n      pop\n      mload(0x40)\n      returndatasize\n      not(0x1f)\n      0x1f\n      dup3\n      add\n      and\n      dup3\n      add\n      dup1\n      0x40\n      mstore\n      pop\n      dup2\n      add\n      swap1\n      tag_107\n      swap2\n      swap1\n      tag_108\n      jump\t// in\n    tag_107:\n      pop\n        /* \"Smart Contracts/13_YieldFarm.sol\":3067:3077  msg.sender */\n      caller\n        /* \"Smart Contracts/13_YieldFarm.sol\":3057:3086  Withdrawn(msg.sender, amount) */\n      0xffffffffffffffffffffffffffffffffffffffff\n      and\n      0x7084f5476618d8e60b11ef0d7d3f06914655adb8793e28ff7f018d4c76d505d5\n        /* \"Smart Contracts/13_YieldFarm.sol\":3079:3085  amount */\n      dup4\n        /* \"Smart Contracts/13_YieldFarm.sol\":3057:3086  Withdrawn(msg.sender, amount) */\n      mload(0x40)\n      tag_109\n      swap2\n      swap1\n      tag_27\n      jump\t// in\n    tag_109:\n      mload(0x40)\n      dup1\n      swap2\n      sub\n      swap1\n      log2\n        /* \"https://github.com/OpenZeppelin/openzeppelin-contracts/blob/v4.9.0/contracts/security/ReentrancyGuard.sol\":2292:2293  _ */\n      pop\n        /* \"https://github.com/OpenZeppelin/openzeppelin-contracts/blob/v4.9.0/contracts/security/ReentrancyGuard.sol\":2303:2323  _nonReentrantAfter() */\n      tag_110\n        /* \"https://github.com/OpenZeppelin/openzeppelin-contracts/blob/v4.9.0/contracts/security/ReentrancyGuard.sol\":2303:2321  _nonReentrantAfter */\n      tag_111\n        /* \"https://github.com/OpenZeppelin/openzeppelin-contracts/blob/v4.9.0/contracts/security/ReentrancyGuard.sol\":2303:2323  _nonReentrantAfter() */\n      jump\t// in\n    tag_110:\n        /* \"Smart Contracts/13_YieldFarm.sol\":2671:3094  function withdraw(uint256 amount)... */\n      pop\n      jump\t// out\n        /* \"Smart Contracts/13_YieldFarm.sol\":341:367  IERC20 public stakingToken */\n    tag_41:\n      0x01\n      0x00\n      swap1\n      sload\n      swap1\n      0x0100\n      exp\n      swap1\n      div\n      0xffffffffffffffffffffffffffffffffffffffff\n      and\n      dup2\n      jump\t// out\n        /* \"Smart Contracts/13_YieldFarm.sol\":408:433  uint256 public rewardRate */\n    tag_45:\n      sload(0x03)\n      dup2\n      jump\t// out\n        /* \"Smart Contracts/13_YieldFarm.sol\":1196:1303  function lastTimeRewardApplicable() public view returns (uint256) {... */\n    tag_48:\n        /* \"Smart Contracts/13_YieldFarm.sol\":1253:1260  uint256 */\n      0x00\n        /* \"Smart Contracts/13_YieldFarm.sol\":1280:1295  block.timestamp */\n      timestamp\n        /* \"Smart Contracts/13_YieldFarm.sol\":1273:1295  return block.timestamp */\n      swap1\n      pop\n        /* \"Smart Contracts/13_YieldFarm.sol\":1196:1303  function lastTimeRewardApplicable() public view returns (uint256) {... */\n      swap1\n      jump\t// out\n        /* \"Smart Contracts/13_YieldFarm.sol\":440:466  uint256 public totalStaked */\n    tag_51:\n      sload(0x04)\n      dup2\n      jump\t// out\n        /* \"Smart Contracts/13_YieldFarm.sol\":603:660  mapping(address => uint256) public userRewardPerTokenPaid */\n    tag_55:\n      mstore(0x20, 0x08)\n      dup1\n      0x00\n      mstore\n      keccak256(0x00, 0x40)\n      0x00\n      swap2\n      pop\n      swap1\n      pop\n      sload\n      dup2\n      jump\t// out\n        /* \"Smart Contracts/13_YieldFarm.sol\":2296:2657  function stake(uint256 amount)... */\n    tag_59:\n        /* \"https://github.com/OpenZeppelin/openzeppelin-contracts/blob/v4.9.0/contracts/security/ReentrancyGuard.sol\":2261:2282  _nonReentrantBefore() */\n      tag_114\n        /* \"https://github.com/OpenZeppelin/openzeppelin-contracts/blob/v4.9.0/contracts/security/ReentrancyGuard.sol\":2261:2280  _nonReentrantBefore */\n      tag_88\n        /* \"https://github.com/OpenZeppelin/openzeppelin-contracts/blob/v4.9.0/contracts/security/ReentrancyGuard.sol\":2261:2282  _nonReentrantBefore() */\n      jump\t// in\n    tag_114:\n        /* \"Smart Contracts/13_YieldFarm.sol\":2389:2399  msg.sender */\n      caller\n        /* \"Smart Contracts/13_YieldFarm.sol\":1967:1983  rewardPerToken() */\n      tag_116\n        /* \"Smart Contracts/13_YieldFarm.sol\":1967:1981  rewardPerToken */\n      tag_66\n        /* \"Smart Contracts/13_YieldFarm.sol\":1967:1983  rewardPerToken() */\n      jump\t// in\n    tag_116:\n        /* \"Smart Contracts/13_YieldFarm.sol\":1944:1964  rewardPerTokenStored */\n      0x06\n        /* \"Smart Contracts/13_YieldFarm.sol\":1944:1983  rewardPerTokenStored = rewardPerToken() */\n      dup2\n      swap1\n      sstore\n      pop\n        /* \"Smart Contracts/13_YieldFarm.sol\":2011:2037  lastTimeRewardApplicable() */\n      tag_117\n        /* \"Smart Contracts/13_YieldFarm.sol\":2011:2035  lastTimeRewardApplicable */\n      tag_48\n        /* \"Smart Contracts/13_YieldFarm.sol\":2011:2037  lastTimeRewardApplicable() */\n      jump\t// in\n    tag_117:\n        /* \"Smart Contracts/13_YieldFarm.sol\":1994:2008  lastUpdateTime */\n      0x05\n        /* \"Smart Contracts/13_YieldFarm.sol\":1994:2037  lastUpdateTime = lastTimeRewardApplicable() */\n      dup2\n      swap1\n      sstore\n      pop\n        /* \"Smart Contracts/13_YieldFarm.sol\":2073:2074  0 */\n      0x00\n        /* \"Smart Contracts/13_YieldFarm.sol\":2054:2075  account != address(0) */\n      0xffffffffffffffffffffffffffffffffffffffff\n      and\n        /* \"Smart Contracts/13_YieldFarm.sol\":2054:2061  account */\n      dup2\n        /* \"Smart Contracts/13_YieldFarm.sol\":2054:2075  account != address(0) */\n      0xffffffffffffffffffffffffffffffffffffffff\n      and\n      eq\n        /* \"Smart Contracts/13_YieldFarm.sol\":2050:2207  if (account != address(0)) {... */\n      tag_118\n      jumpi\n        /* \"Smart Contracts/13_YieldFarm.sol\":2111:2126  earned(account) */\n      tag_119\n        /* \"Smart Contracts/13_YieldFarm.sol\":2118:2125  account */\n      dup2\n        /* \"Smart Contracts/13_YieldFarm.sol\":2111:2117  earned */\n      tag_25\n        /* \"Smart Contracts/13_YieldFarm.sol\":2111:2126  earned(account) */\n      jump\t// in\n    tag_119:\n        /* \"Smart Contracts/13_YieldFarm.sol\":2092:2099  rewards */\n      0x09\n        /* \"Smart Contracts/13_YieldFarm.sol\":2092:2108  rewards[account] */\n      0x00\n        /* \"Smart Contracts/13_YieldFarm.sol\":2100:2107  account */\n      dup4\n        /* \"Smart Contracts/13_YieldFarm.sol\":2092:2108  rewards[account] */\n      0xffffffffffffffffffffffffffffffffffffffff\n      and\n      0xffffffffffffffffffffffffffffffffffffffff\n      and\n      dup2\n      mstore\n      0x20\n      add\n      swap1\n      dup2\n      mstore\n      0x20\n      add\n      0x00\n      keccak256\n        /* \"Smart Contracts/13_YieldFarm.sol\":2092:2126  rewards[account] = earned(account) */\n      dup2\n      swap1\n      sstore\n      pop\n        /* \"Smart Contracts/13_YieldFarm.sol\":2175:2195  rewardPerTokenStored */\n      sload(0x06)\n        /* \"Smart Contracts/13_YieldFarm.sol\":2141:2163  userRewardPerTokenPaid */\n      0x08\n        /* \"Smart Contracts/13_YieldFarm.sol\":2141:2172  userRewardPerTokenPaid[account] */\n      0x00\n        /* \"Smart Contracts/13_YieldFarm.sol\":2164:2171  account */\n      dup4\n        /* \"Smart Contracts/13_YieldFarm.sol\":2141:2172  userRewardPerTokenPaid[account] */\n      0xffffffffffffffffffffffffffffffffffffffff\n      and\n      0xffffffffffffffffffffffffffffffffffffffff\n      and\n      dup2\n      mstore\n      0x20\n      add\n      swap1\n      dup2\n      mstore\n      0x20\n      add\n      0x00\n      keccak256\n        /* \"Smart Contracts/13_YieldFarm.sol\":2141:2195  userRewardPerTokenPaid[account] = rewardPerTokenStored */\n      dup2\n      swap1\n      sstore\n      pop\n        /* \"Smart Contracts/13_YieldFarm.sol\":2050:2207  if (account != address(0)) {... */\n    tag_118:\n        /* \"Smart Contracts/13_YieldFarm.sol\":2434:2435  0 */\n      0x00\n        /* \"Smart Contracts/13_YieldFarm.sol\":2425:2431  amount */\n      dup3\n        /* \"Smart Contracts/13_YieldFarm.sol\":2425:2435  amount > 0 */\n      gt\n        /* \"Smart Contracts/13_YieldFarm.sol\":2417:2457  require(amount > 0, \"Cannot stake zero\") */\n      tag_121\n      jumpi\n      mload(0x40)\n      0x08c379a000000000000000000000000000000000000000000000000000000000\n      dup2\n      mstore\n      0x04\n      add\n      tag_122\n      swap1\n      tag_123\n      jump\t// in\n    tag_122:\n      mload(0x40)\n      dup1\n      swap2\n      sub\n      swap1\n      revert\n    tag_121:\n        /* \"Smart Contracts/13_YieldFarm.sol\":2485:2491  amount */\n      dup2\n        /* \"Smart Contracts/13_YieldFarm.sol\":2470:2481  totalStaked */\n      0x04\n      0x00\n        /* \"Smart Contracts/13_YieldFarm.sol\":2470:2491  totalStaked += amount */\n      dup3\n      dup3\n      sload\n      tag_124\n      swap2\n      swap1\n      tag_85\n      jump\t// in\n    tag_124:\n      swap3\n      pop\n      pop\n      dup2\n      swap1\n      sstore\n      pop\n        /* \"Smart Contracts/13_YieldFarm.sol\":2526:2532  amount */\n      dup2\n        /* \"Smart Contracts/13_YieldFarm.sol\":2502:2510  balances */\n      0x07\n        /* \"Smart Contracts/13_YieldFarm.sol\":2502:2522  balances[msg.sender] */\n      0x00\n        /* \"Smart Contracts/13_YieldFarm.sol\":2511:2521  msg.sender */\n      caller\n        /* \"Smart Contracts/13_YieldFarm.sol\":2502:2522  balances[msg.sender] */\n      0xffffffffffffffffffffffffffffffffffffffff\n      and\n      0xffffffffffffffffffffffffffffffffffffffff\n      and\n      dup2\n      mstore\n      0x20\n      add\n      swap1\n      dup2\n      mstore\n      0x20\n      add\n      0x00\n      keccak256\n      0x00\n        /* \"Smart Contracts/13_YieldFarm.sol\":2502:2532  balances[msg.sender] += amount */\n      dup3\n      dup3\n      sload\n      tag_125\n      swap2\n      swap1\n      tag_85\n      jump\t// in\n    tag_125:\n      swap3\n      pop\n      pop\n      dup2\n      swap1\n      sstore\n      pop\n        /* \"Smart Contracts/13_YieldFarm.sol\":2545:2557  stakingToken */\n      0x01\n      0x00\n      swap1\n      sload\n      swap1\n      0x0100\n      exp\n      swap1\n      div\n      0xffffffffffffffffffffffffffffffffffffffff\n      and\n        /* \"Smart Contracts/13_YieldFarm.sol\":2545:2570  stakingToken.transferFrom */\n      0xffffffffffffffffffffffffffffffffffffffff\n      and\n      0x23b872dd\n        /* \"Smart Contracts/13_YieldFarm.sol\":2571:2581  msg.sender */\n      caller\n        /* \"Smart Contracts/13_YieldFarm.sol\":2591:2595  this */\n      address\n        /* \"Smart Contracts/13_YieldFarm.sol\":2598:2604  amount */\n      dup6\n        /* \"Smart Contracts/13_YieldFarm.sol\":2545:2605  stakingToken.transferFrom(msg.sender, address(this), amount) */\n      mload(0x40)\n      dup5\n      0xffffffff\n      and\n      0xe0\n      shl\n      dup2\n      mstore\n      0x04\n      add\n      tag_126\n      swap4\n      swap3\n      swap2\n      swap1\n      tag_127\n      jump\t// in\n    tag_126:\n      0x20\n      mload(0x40)\n      dup1\n      dup4\n      sub\n      dup2\n      0x00\n      dup8\n      gas\n      call\n      iszero\n      dup1\n      iszero\n      tag_129\n      jumpi\n      returndatacopy(0x00, 0x00, returndatasize)\n      revert(0x00, returndatasize)\n    tag_129:\n      pop\n      pop\n      pop\n      pop\n      mload(0x40)\n      returndatasize\n      not(0x1f)\n      0x1f\n      dup3\n      add\n      and\n      dup3\n      add\n      dup1\n      0x40\n      mstore\n      pop\n      dup2\n      add\n      swap1\n      tag_130\n      swap2\n      swap1\n      tag_108\n      jump\t// in\n    tag_130:\n      pop\n        /* \"Smart Contracts/13_YieldFarm.sol\":2630:2640  msg.sender */\n      caller\n        /* \"Smart Contracts/13_YieldFarm.sol\":2623:2649  Staked(msg.sender, amount) */\n      0xffffffffffffffffffffffffffffffffffffffff\n      and\n      0x9e71bc8eea02a63969f509818f2dafb9254532904319f9dbda79b67bd34a5f3d\n        /* \"Smart Contracts/13_YieldFarm.sol\":2642:2648  amount */\n      dup4\n        /* \"Smart Contracts/13_YieldFarm.sol\":2623:2649  Staked(msg.sender, amount) */\n      mload(0x40)\n      tag_131\n      swap2\n      swap1\n      tag_27\n      jump\t// in\n    tag_131:\n      mload(0x40)\n      dup1\n      swap2\n      sub\n      swap1\n      log2\n        /* \"https://github.com/OpenZeppelin/openzeppelin-contracts/blob/v4.9.0/contracts/security/ReentrancyGuard.sol\":2292:2293  _ */\n      pop\n        /* \"https://github.com/OpenZeppelin/openzeppelin-contracts/blob/v4.9.0/contracts/security/ReentrancyGuard.sol\":2303:2323  _nonReentrantAfter() */\n      tag_132\n        /* \"https://github.com/OpenZeppelin/openzeppelin-contracts/blob/v4.9.0/contracts/security/ReentrancyGuard.sol\":2303:2321  _nonReentrantAfter */\n      tag_111\n        /* \"https://github.com/OpenZeppelin/openzeppelin-contracts/blob/v4.9.0/contracts/security/ReentrancyGuard.sol\":2303:2323  _nonReentrantAfter() */\n      jump\t// in\n    tag_132:\n        /* \"Smart Contracts/13_YieldFarm.sol\":2296:2657  function stake(uint256 amount)... */\n      pop\n      jump\t// out\n        /* \"Smart Contracts/13_YieldFarm.sol\":3102:3438  function claimReward()... */\n    tag_61:\n        /* \"https://github.com/OpenZeppelin/openzeppelin-contracts/blob/v4.9.0/contracts/security/ReentrancyGuard.sol\":2261:2282  _nonReentrantBefore() */\n      tag_134\n        /* \"https://github.com/OpenZeppelin/openzeppelin-contracts/blob/v4.9.0/contracts/security/ReentrancyGuard.sol\":2261:2280  _nonReentrantBefore */\n      tag_88\n        /* \"https://github.com/OpenZeppelin/openzeppelin-contracts/blob/v4.9.0/contracts/security/ReentrancyGuard.sol\":2261:2282  _nonReentrantBefore() */\n      jump\t// in\n    tag_134:\n        /* \"Smart Contracts/13_YieldFarm.sol\":3185:3195  msg.sender */\n      caller\n        /* \"Smart Contracts/13_YieldFarm.sol\":1967:1983  rewardPerToken() */\n      tag_136\n        /* \"Smart Contracts/13_YieldFarm.sol\":1967:1981  rewardPerToken */\n      tag_66\n        /* \"Smart Contracts/13_YieldFarm.sol\":1967:1983  rewardPerToken() */\n      jump\t// in\n    tag_136:\n        /* \"Smart Contracts/13_YieldFarm.sol\":1944:1964  rewardPerTokenStored */\n      0x06\n        /* \"Smart Contracts/13_YieldFarm.sol\":1944:1983  rewardPerTokenStored = rewardPerToken() */\n      dup2\n      swap1\n      sstore\n      pop\n        /* \"Smart Contracts/13_YieldFarm.sol\":2011:2037  lastTimeRewardApplicable() */\n      tag_137\n        /* \"Smart Contracts/13_YieldFarm.sol\":2011:2035  lastTimeRewardApplicable */\n      tag_48\n        /* \"Smart Contracts/13_YieldFarm.sol\":2011:2037  lastTimeRewardApplicable() */\n      jump\t// in\n    tag_137:\n        /* \"Smart Contracts/13_YieldFarm.sol\":1994:2008  lastUpdateTime */\n      0x05\n        /* \"Smart Contracts/13_YieldFarm.sol\":1994:2037  lastUpdateTime = lastTimeRewardApplicable() */\n      dup2\n      swap1\n      sstore\n      pop\n        /* \"Smart Contracts/13_YieldFarm.sol\":2073:2074  0 */\n      0x00\n        /* \"Smart Contracts/13_YieldFarm.sol\":2054:2075  account != address(0) */\n      0xffffffffffffffffffffffffffffffffffffffff\n      and\n        /* \"Smart Contracts/13_YieldFarm.sol\":2054:2061  account */\n      dup2\n        /* \"Smart Contracts/13_YieldFarm.sol\":2054:2075  account != address(0) */\n      0xffffffffffffffffffffffffffffffffffffffff\n      and\n      eq\n        /* \"Smart Contracts/13_YieldFarm.sol\":2050:2207  if (account != address(0)) {... */\n      tag_138\n      jumpi\n        /* \"Smart Contracts/13_YieldFarm.sol\":2111:2126  earned(account) */\n      tag_139\n        /* \"Smart Contracts/13_YieldFarm.sol\":2118:2125  account */\n      dup2\n        /* \"Smart Contracts/13_YieldFarm.sol\":2111:2117  earned */\n      tag_25\n        /* \"Smart Contracts/13_YieldFarm.sol\":2111:2126  earned(account) */\n      jump\t// in\n    tag_139:\n        /* \"Smart Contracts/13_YieldFarm.sol\":2092:2099  rewards */\n      0x09\n        /* \"Smart Contracts/13_YieldFarm.sol\":2092:2108  rewards[account] */\n      0x00\n        /* \"Smart Contracts/13_YieldFarm.sol\":2100:2107  account */\n      dup4\n        /* \"Smart Contracts/13_YieldFarm.sol\":2092:2108  rewards[account] */\n      0xffffffffffffffffffffffffffffffffffffffff\n      and\n      0xffffffffffffffffffffffffffffffffffffffff\n      and\n      dup2\n      mstore\n      0x20\n      add\n      swap1\n      dup2\n      mstore\n      0x20\n      add\n      0x00\n      keccak256\n        /* \"Smart Contracts/13_YieldFarm.sol\":2092:2126  rewards[account] = earned(account) */\n      dup2\n      swap1\n      sstore\n      pop\n        /* \"Smart Contracts/13_YieldFarm.sol\":2175:2195  rewardPerTokenStored */\n      sload(0x06)\n        /* \"Smart Contracts/13_YieldFarm.sol\":2141:2163  userRewardPerTokenPaid */\n      0x08\n        /* \"Smart Contracts/13_YieldFarm.sol\":2141:2172  userRewardPerTokenPaid[account] */\n      0x00\n        /* \"Smart Contracts/13_YieldFarm.sol\":2164:2171  account */\n      dup4\n        /* \"Smart Contracts/13_YieldFarm.sol\":2141:2172  userRewardPerTokenPaid[account] */\n      0xffffffffffffffffffffffffffffffffffffffff\n      and\n      0xffffffffffffffffffffffffffffffffffffffff\n      and\n      dup2\n      mstore\n      0x20\n      add\n      swap1\n      dup2\n      mstore\n      0x20\n      add\n      0x00\n      keccak256\n        /* \"Smart Contracts/13_YieldFarm.sol\":2141:2195  userRewardPerTokenPaid[account] = rewardPerTokenStored */\n      dup2\n      swap1\n      sstore\n      pop\n        /* \"Smart Contracts/13_YieldFarm.sol\":2050:2207  if (account != address(0)) {... */\n    tag_138:\n        /* \"Smart Contracts/13_YieldFarm.sol\":3213:3227  uint256 reward */\n      0x00\n        /* \"Smart Contracts/13_YieldFarm.sol\":3230:3237  rewards */\n      0x09\n        /* \"Smart Contracts/13_YieldFarm.sol\":3230:3249  rewards[msg.sender] */\n      0x00\n        /* \"Smart Contracts/13_YieldFarm.sol\":3238:3248  msg.sender */\n      caller\n        /* \"Smart Contracts/13_YieldFarm.sol\":3230:3249  rewards[msg.sender] */\n      0xffffffffffffffffffffffffffffffffffffffff\n      and\n      0xffffffffffffffffffffffffffffffffffffffff\n      and\n      dup2\n      mstore\n      0x20\n      add\n      swap1\n      dup2\n      mstore\n      0x20\n      add\n      0x00\n      keccak256\n      sload\n        /* \"Smart Contracts/13_YieldFarm.sol\":3213:3249  uint256 reward = rewards[msg.sender] */\n      swap1\n      pop\n        /* \"Smart Contracts/13_YieldFarm.sol\":3277:3278  0 */\n      0x00\n        /* \"Smart Contracts/13_YieldFarm.sol\":3268:3274  reward */\n      dup2\n        /* \"Smart Contracts/13_YieldFarm.sol\":3268:3278  reward > 0 */\n      gt\n        /* \"Smart Contracts/13_YieldFarm.sol\":3260:3293  require(reward > 0, \"No rewards\") */\n      tag_141\n      jumpi\n      mload(0x40)\n      0x08c379a000000000000000000000000000000000000000000000000000000000\n      dup2\n      mstore\n      0x04\n      add\n      tag_142\n      swap1\n      tag_143\n      jump\t// in\n    tag_142:\n      mload(0x40)\n      dup1\n      swap2\n      sub\n      swap1\n      revert\n    tag_141:\n        /* \"Smart Contracts/13_YieldFarm.sol\":3328:3329  0 */\n      0x00\n        /* \"Smart Contracts/13_YieldFarm.sol\":3306:3313  rewards */\n      0x09\n        /* \"Smart Contracts/13_YieldFarm.sol\":3306:3325  rewards[msg.sender] */\n      0x00\n        /* \"Smart Contracts/13_YieldFarm.sol\":3314:3324  msg.sender */\n      caller\n        /* \"Smart Contracts/13_YieldFarm.sol\":3306:3325  rewards[msg.sender] */\n      0xffffffffffffffffffffffffffffffffffffffff\n      and\n      0xffffffffffffffffffffffffffffffffffffffff\n      and\n      dup2\n      mstore\n      0x20\n      add\n      swap1\n      dup2\n      mstore\n      0x20\n      add\n      0x00\n      keccak256\n        /* \"Smart Contracts/13_YieldFarm.sol\":3306:3329  rewards[msg.sender] = 0 */\n      dup2\n      swap1\n      sstore\n      pop\n        /* \"Smart Contracts/13_YieldFarm.sol\":3342:3353  rewardToken */\n      0x02\n      0x00\n      swap1\n      sload\n      swap1\n      0x0100\n      exp\n      swap1\n      div\n      0xffffffffffffffffffffffffffffffffffffffff\n      and\n        /* \"Smart Contracts/13_YieldFarm.sol\":3342:3362  rewardToken.transfer */\n      0xffffffffffffffffffffffffffffffffffffffff\n      and\n      0xa9059cbb\n        /* \"Smart Contracts/13_YieldFarm.sol\":3363:3373  msg.sender */\n      caller\n        /* \"Smart Contracts/13_YieldFarm.sol\":3375:3381  reward */\n      dup4\n        /* \"Smart Contracts/13_YieldFarm.sol\":3342:3382  rewardToken.transfer(msg.sender, reward) */\n      mload(0x40)\n      dup4\n      0xffffffff\n      and\n      0xe0\n      shl\n      dup2\n      mstore\n      0x04\n      add\n      tag_144\n      swap3\n      swap2\n      swap1\n      tag_104\n      jump\t// in\n    tag_144:\n      0x20\n      mload(0x40)\n      dup1\n      dup4\n      sub\n      dup2\n      0x00\n      dup8\n      gas\n      call\n      iszero\n      dup1\n      iszero\n      tag_146\n      jumpi\n      returndatacopy(0x00, 0x00, returndatasize)\n      revert(0x00, returndatasize)\n    tag_146:\n      pop\n      pop\n      pop\n      pop\n      mload(0x40)\n      returndatasize\n      not(0x1f)\n      0x1f\n      dup3\n      add\n      and\n      dup3\n      add\n      dup1\n      0x40\n      mstore\n      pop\n      dup2\n      add\n      swap1\n      tag_147\n      swap2\n      swap1\n      tag_108\n      jump\t// in\n    tag_147:\n      pop\n        /* \"Smart Contracts/13_YieldFarm.sol\":3411:3421  msg.sender */\n      caller\n        /* \"Smart Contracts/13_YieldFarm.sol\":3400:3430  RewardPaid(msg.sender, reward) */\n      0xffffffffffffffffffffffffffffffffffffffff\n      and\n      0xe2403640ba68fed3a2f88b7557551d1993f84b99bb10ff833f0cf8db0c5e0486\n        /* \"Smart Contracts/13_YieldFarm.sol\":3423:3429  reward */\n      dup3\n        /* \"Smart Contracts/13_YieldFarm.sol\":3400:3430  RewardPaid(msg.sender, reward) */\n      mload(0x40)\n      tag_148\n      swap2\n      swap1\n      tag_27\n      jump\t// in\n    tag_148:\n      mload(0x40)\n      dup1\n      swap2\n      sub\n      swap1\n      log2\n        /* \"Smart Contracts/13_YieldFarm.sol\":3202:3438  {... */\n      pop\n        /* \"https://github.com/OpenZeppelin/openzeppelin-contracts/blob/v4.9.0/contracts/security/ReentrancyGuard.sol\":2292:2293  _ */\n      pop\n        /* \"https://github.com/OpenZeppelin/openzeppelin-contracts/blob/v4.9.0/contracts/security/ReentrancyGuard.sol\":2303:2323  _nonReentrantAfter() */\n      tag_149\n        /* \"https://github.com/OpenZeppelin/openzeppelin-contracts/blob/v4.9.0/contracts/security/ReentrancyGuard.sol\":2303:2321  _nonReentrantAfter */\n      tag_111\n        /* \"https://github.com/OpenZeppelin/openzeppelin-contracts/blob/v4.9.0/contracts/security/ReentrancyGuard.sol\":2303:2323  _nonReentrantAfter() */\n      jump\t// in\n    tag_149:\n        /* \"Smart Contracts/13_YieldFarm.sol\":3102:3438  function claimReward()... */\n      jump\t// out\n        /* \"Smart Contracts/13_YieldFarm.sol\":473:502  uint256 public lastUpdateTime */\n    tag_63:\n      sload(0x05)\n      dup2\n      jump\t// out\n        /* \"Smart Contracts/13_YieldFarm.sol\":1311:1628  function rewardPerToken() public view returns (uint256) {... */\n    tag_66:\n        /* \"Smart Contracts/13_YieldFarm.sol\":1358:1365  uint256 */\n      0x00\n        /* \"Smart Contracts/13_YieldFarm.sol\":1397:1398  0 */\n      0x00\n        /* \"Smart Contracts/13_YieldFarm.sol\":1382:1393  totalStaked */\n      sload(0x04)\n        /* \"Smart Contracts/13_YieldFarm.sol\":1382:1398  totalStaked == 0 */\n      sub\n        /* \"Smart Contracts/13_YieldFarm.sol\":1378:1454  if (totalStaked == 0) {... */\n      tag_151\n      jumpi\n        /* \"Smart Contracts/13_YieldFarm.sol\":1422:1442  rewardPerTokenStored */\n      sload(0x06)\n        /* \"Smart Contracts/13_YieldFarm.sol\":1415:1442  return rewardPerTokenStored */\n      swap1\n      pop\n      jump(tag_150)\n        /* \"Smart Contracts/13_YieldFarm.sol\":1378:1454  if (totalStaked == 0) {... */\n    tag_151:\n        /* \"Smart Contracts/13_YieldFarm.sol\":1609:1620  totalStaked */\n      sload(0x04)\n        /* \"Smart Contracts/13_YieldFarm.sol\":1601:1605  1e18 */\n      0x0de0b6b3a7640000\n        /* \"Smart Contracts/13_YieldFarm.sol\":1588:1598  rewardRate */\n      sload(0x03)\n        /* \"Smart Contracts/13_YieldFarm.sol\":1553:1567  lastUpdateTime */\n      sload(0x05)\n        /* \"Smart Contracts/13_YieldFarm.sol\":1524:1550  lastTimeRewardApplicable() */\n      tag_152\n        /* \"Smart Contracts/13_YieldFarm.sol\":1524:1548  lastTimeRewardApplicable */\n      tag_48\n        /* \"Smart Contracts/13_YieldFarm.sol\":1524:1550  lastTimeRewardApplicable() */\n      jump\t// in\n    tag_152:\n        /* \"Smart Contracts/13_YieldFarm.sol\":1524:1567  lastTimeRewardApplicable() - lastUpdateTime */\n      tag_153\n      swap2\n      swap1\n      tag_79\n      jump\t// in\n    tag_153:\n        /* \"Smart Contracts/13_YieldFarm.sol\":1523:1598  (lastTimeRewardApplicable() - lastUpdateTime)... */\n      tag_154\n      swap2\n      swap1\n      tag_81\n      jump\t// in\n    tag_154:\n        /* \"Smart Contracts/13_YieldFarm.sol\":1523:1605  (lastTimeRewardApplicable() - lastUpdateTime)... */\n      tag_155\n      swap2\n      swap1\n      tag_81\n      jump\t// in\n    tag_155:\n        /* \"Smart Contracts/13_YieldFarm.sol\":1522:1620  ((lastTimeRewardApplicable() - lastUpdateTime)... */\n      tag_156\n      swap2\n      swap1\n      tag_83\n      jump\t// in\n    tag_156:\n        /* \"Smart Contracts/13_YieldFarm.sol\":1486:1506  rewardPerTokenStored */\n      sload(0x06)\n        /* \"Smart Contracts/13_YieldFarm.sol\":1486:1620  rewardPerTokenStored +... */\n      tag_157\n      swap2\n      swap1\n      tag_85\n      jump\t// in\n    tag_157:\n        /* \"Smart Contracts/13_YieldFarm.sol\":1466:1620  return... */\n      swap1\n      pop\n        /* \"Smart Contracts/13_YieldFarm.sol\":1311:1628  function rewardPerToken() public view returns (uint256) {... */\n    tag_150:\n      swap1\n      jump\t// out\n        /* \"Smart Contracts/13_YieldFarm.sol\":509:544  uint256 public rewardPerTokenStored */\n    tag_69:\n      sload(0x06)\n      dup2\n      jump\t// out\n        /* \"Smart Contracts/13_YieldFarm.sol\":3446:3544  function exit() external {... */\n    tag_72:\n        /* \"Smart Contracts/13_YieldFarm.sol\":3482:3512  withdraw(balances[msg.sender]) */\n      tag_159\n        /* \"Smart Contracts/13_YieldFarm.sol\":3491:3499  balances */\n      0x07\n        /* \"Smart Contracts/13_YieldFarm.sol\":3491:3511  balances[msg.sender] */\n      0x00\n        /* \"Smart Contracts/13_YieldFarm.sol\":3500:3510  msg.sender */\n      caller\n        /* \"Smart Contracts/13_YieldFarm.sol\":3491:3511  balances[msg.sender] */\n      0xffffffffffffffffffffffffffffffffffffffff\n      and\n      0xffffffffffffffffffffffffffffffffffffffff\n      and\n      dup2\n      mstore\n      0x20\n      add\n      swap1\n      dup2\n      mstore\n      0x20\n      add\n      0x00\n      keccak256\n      sload\n        /* \"Smart Contracts/13_YieldFarm.sol\":3482:3490  withdraw */\n      tag_39\n        /* \"Smart Contracts/13_YieldFarm.sol\":3482:3512  withdraw(balances[msg.sender]) */\n      jump\t// in\n    tag_159:\n        /* \"Smart Contracts/13_YieldFarm.sol\":3523:3536  claimReward() */\n      tag_160\n        /* \"Smart Contracts/13_YieldFarm.sol\":3523:3534  claimReward */\n      tag_61\n        /* \"Smart Contracts/13_YieldFarm.sol\":3523:3536  claimReward() */\n      jump\t// in\n    tag_160:\n        /* \"Smart Contracts/13_YieldFarm.sol\":3446:3544  function exit() external {... */\n      jump\t// out\n        /* \"Smart Contracts/13_YieldFarm.sol\":374:399  IERC20 public rewardToken */\n    tag_74:\n      0x02\n      0x00\n      swap1\n      sload\n      swap1\n      0x0100\n      exp\n      swap1\n      div\n      0xffffffffffffffffffffffffffffffffffffffff\n      and\n      dup2\n      jump\t// out\n        /* \"https://github.com/OpenZeppelin/openzeppelin-contracts/blob/v4.9.0/contracts/security/ReentrancyGuard.sol\":2336:2623  function _nonReentrantBefore() private {... */\n    tag_88:\n        /* \"https://github.com/OpenZeppelin/openzeppelin-contracts/blob/v4.9.0/contracts/security/ReentrancyGuard.sol\":1759:1760  2 */\n      0x02\n        /* \"https://github.com/OpenZeppelin/openzeppelin-contracts/blob/v4.9.0/contracts/security/ReentrancyGuard.sol\":2468:2475  _status */\n      sload(0x00)\n        /* \"https://github.com/OpenZeppelin/openzeppelin-contracts/blob/v4.9.0/contracts/security/ReentrancyGuard.sol\":2468:2487  _status != _ENTERED */\n      sub\n        /* \"https://github.com/OpenZeppelin/openzeppelin-contracts/blob/v4.9.0/contracts/security/ReentrancyGuard.sol\":2460:2523  require(_status != _ENTERED, \"ReentrancyGuard: reentrant call\") */\n      tag_162\n      jumpi\n      mload(0x40)\n      0x08c379a000000000000000000000000000000000000000000000000000000000\n      dup2\n      mstore\n      0x04\n      add\n      tag_163\n      swap1\n      tag_164\n      jump\t// in\n    tag_163:\n      mload(0x40)\n      dup1\n      swap2\n      sub\n      swap1\n      revert\n    tag_162:\n        /* \"https://github.com/OpenZeppelin/openzeppelin-contracts/blob/v4.9.0/contracts/security/ReentrancyGuard.sol\":1759:1760  2 */\n      0x02\n        /* \"https://github.com/OpenZeppelin/openzeppelin-contracts/blob/v4.9.0/contracts/security/ReentrancyGuard.sol\":2598:2605  _status */\n      0x00\n        /* \"https://github.com/OpenZeppelin/openzeppelin-contracts/blob/v4.9.0/contracts/security/ReentrancyGuard.sol\":2598:2616  _status = _ENTERED */\n      dup2\n      swap1\n      sstore\n      pop\n        /* \"https://github.com/OpenZeppelin/openzeppelin-contracts/blob/v4.9.0/contracts/security/ReentrancyGuard.sol\":2336:2623  function _nonReentrantBefore() private {... */\n      jump\t// out\n        /* \"https://github.com/OpenZeppelin/openzeppelin-contracts/blob/v4.9.0/contracts/security/ReentrancyGuard.sol\":2629:2838  function _nonReentrantAfter() private {... */\n    tag_111:\n        /* \"https://github.com/OpenZeppelin/openzeppelin-contracts/blob/v4.9.0/contracts/security/ReentrancyGuard.sol\":1716:1717  1 */\n      0x01\n        /* \"https://github.com/OpenZeppelin/openzeppelin-contracts/blob/v4.9.0/contracts/security/ReentrancyGuard.sol\":2809:2816  _status */\n      0x00\n        /* \"https://github.com/OpenZeppelin/openzeppelin-contracts/blob/v4.9.0/contracts/security/ReentrancyGuard.sol\":2809:2831  _status = _NOT_ENTERED */\n      dup2\n      swap1\n      sstore\n      pop\n        /* \"https://github.com/OpenZeppelin/openzeppelin-contracts/blob/v4.9.0/contracts/security/ReentrancyGuard.sol\":2629:2838  function _nonReentrantAfter() private {... */\n      jump\t// out\n        /* \"#utility.yul\":88:205   */\n    tag_167:\n        /* \"#utility.yul\":197:198   */\n      0x00\n        /* \"#utility.yul\":194:195   */\n      0x00\n        /* \"#utility.yul\":187:199   */\n      revert\n        /* \"#utility.yul\":334:460   */\n    tag_169:\n        /* \"#utility.yul\":371:378   */\n      0x00\n        /* \"#utility.yul\":411:453   */\n      0xffffffffffffffffffffffffffffffffffffffff\n        /* \"#utility.yul\":404:409   */\n      dup3\n        /* \"#utility.yul\":400:454   */\n      and\n        /* \"#utility.yul\":389:454   */\n      swap1\n      pop\n        /* \"#utility.yul\":334:460   */\n      swap2\n      swap1\n      pop\n      jump\t// out\n        /* \"#utility.yul\":466:562   */\n    tag_170:\n        /* \"#utility.yul\":503:510   */\n      0x00\n        /* \"#utility.yul\":532:556   */\n      tag_205\n        /* \"#utility.yul\":550:555   */\n      dup3\n        /* \"#utility.yul\":532:556   */\n      tag_169\n      jump\t// in\n    tag_205:\n        /* \"#utility.yul\":521:556   */\n      swap1\n      pop\n        /* \"#utility.yul\":466:562   */\n      swap2\n      swap1\n      pop\n      jump\t// out\n        /* \"#utility.yul\":568:690   */\n    tag_171:\n        /* \"#utility.yul\":641:665   */\n      tag_207\n        /* \"#utility.yul\":659:664   */\n      dup2\n        /* \"#utility.yul\":641:665   */\n      tag_170\n      jump\t// in\n    tag_207:\n        /* \"#utility.yul\":634:639   */\n      dup2\n        /* \"#utility.yul\":631:666   */\n      eq\n        /* \"#utility.yul\":621:684   */\n      tag_208\n      jumpi\n        /* \"#utility.yul\":680:681   */\n      0x00\n        /* \"#utility.yul\":677:678   */\n      0x00\n        /* \"#utility.yul\":670:682   */\n      revert\n        /* \"#utility.yul\":621:684   */\n    tag_208:\n        /* \"#utility.yul\":568:690   */\n      pop\n      jump\t// out\n        /* \"#utility.yul\":696:835   */\n    tag_172:\n        /* \"#utility.yul\":742:747   */\n      0x00\n        /* \"#utility.yul\":780:786   */\n      dup2\n        /* \"#utility.yul\":767:787   */\n      calldataload\n        /* \"#utility.yul\":758:787   */\n      swap1\n      pop\n        /* \"#utility.yul\":796:829   */\n      tag_210\n        /* \"#utility.yul\":823:828   */\n      dup2\n        /* \"#utility.yul\":796:829   */\n      tag_171\n      jump\t// in\n    tag_210:\n        /* \"#utility.yul\":696:835   */\n      swap3\n      swap2\n      pop\n      pop\n      jump\t// out\n        /* \"#utility.yul\":841:1170   */\n    tag_24:\n        /* \"#utility.yul\":900:906   */\n      0x00\n        /* \"#utility.yul\":949:951   */\n      0x20\n        /* \"#utility.yul\":937:946   */\n      dup3\n        /* \"#utility.yul\":928:935   */\n      dup5\n        /* \"#utility.yul\":924:947   */\n      sub\n        /* \"#utility.yul\":920:952   */\n      slt\n        /* \"#utility.yul\":917:1036   */\n      iszero\n      tag_212\n      jumpi\n        /* \"#utility.yul\":955:1034   */\n      tag_213\n      tag_167\n      jump\t// in\n    tag_213:\n        /* \"#utility.yul\":917:1036   */\n    tag_212:\n        /* \"#utility.yul\":1075:1076   */\n      0x00\n        /* \"#utility.yul\":1100:1153   */\n      tag_214\n        /* \"#utility.yul\":1145:1152   */\n      dup5\n        /* \"#utility.yul\":1136:1142   */\n      dup3\n        /* \"#utility.yul\":1125:1134   */\n      dup6\n        /* \"#utility.yul\":1121:1143   */\n      add\n        /* \"#utility.yul\":1100:1153   */\n      tag_172\n      jump\t// in\n    tag_214:\n        /* \"#utility.yul\":1090:1153   */\n      swap2\n      pop\n        /* \"#utility.yul\":1046:1163   */\n      pop\n        /* \"#utility.yul\":841:1170   */\n      swap3\n      swap2\n      pop\n      pop\n      jump\t// out\n        /* \"#utility.yul\":1176:1253   */\n    tag_173:\n        /* \"#utility.yul\":1213:1220   */\n      0x00\n        /* \"#utility.yul\":1242:1247   */\n      dup2\n        /* \"#utility.yul\":1231:1247   */\n      swap1\n      pop\n        /* \"#utility.yul\":1176:1253   */\n      swap2\n      swap1\n      pop\n      jump\t// out\n        /* \"#utility.yul\":1259:1377   */\n    tag_174:\n        /* \"#utility.yul\":1346:1370   */\n      tag_217\n        /* \"#utility.yul\":1364:1369   */\n      dup2\n        /* \"#utility.yul\":1346:1370   */\n      tag_173\n      jump\t// in\n    tag_217:\n        /* \"#utility.yul\":1341:1344   */\n      dup3\n        /* \"#utility.yul\":1334:1371   */\n      mstore\n        /* \"#utility.yul\":1259:1377   */\n      pop\n      pop\n      jump\t// out\n        /* \"#utility.yul\":1383:1605   */\n    tag_27:\n        /* \"#utility.yul\":1476:1480   */\n      0x00\n        /* \"#utility.yul\":1514:1516   */\n      0x20\n        /* \"#utility.yul\":1503:1512   */\n      dup3\n        /* \"#utility.yul\":1499:1517   */\n      add\n        /* \"#utility.yul\":1491:1517   */\n      swap1\n      pop\n        /* \"#utility.yul\":1527:1598   */\n      tag_219\n        /* \"#utility.yul\":1595:1596   */\n      0x00\n        /* \"#utility.yul\":1584:1593   */\n      dup4\n        /* \"#utility.yul\":1580:1597   */\n      add\n        /* \"#utility.yul\":1571:1577   */\n      dup5\n        /* \"#utility.yul\":1527:1598   */\n      tag_174\n      jump\t// in\n    tag_219:\n        /* \"#utility.yul\":1383:1605   */\n      swap3\n      swap2\n      pop\n      pop\n      jump\t// out\n        /* \"#utility.yul\":1611:1733   */\n    tag_175:\n        /* \"#utility.yul\":1684:1708   */\n      tag_221\n        /* \"#utility.yul\":1702:1707   */\n      dup2\n        /* \"#utility.yul\":1684:1708   */\n      tag_173\n      jump\t// in\n    tag_221:\n        /* \"#utility.yul\":1677:1682   */\n      dup2\n        /* \"#utility.yul\":1674:1709   */\n      eq\n        /* \"#utility.yul\":1664:1727   */\n      tag_222\n      jumpi\n        /* \"#utility.yul\":1723:1724   */\n      0x00\n        /* \"#utility.yul\":1720:1721   */\n      0x00\n        /* \"#utility.yul\":1713:1725   */\n      revert\n        /* \"#utility.yul\":1664:1727   */\n    tag_222:\n        /* \"#utility.yul\":1611:1733   */\n      pop\n      jump\t// out\n        /* \"#utility.yul\":1739:1878   */\n    tag_176:\n        /* \"#utility.yul\":1785:1790   */\n      0x00\n        /* \"#utility.yul\":1823:1829   */\n      dup2\n        /* \"#utility.yul\":1810:1830   */\n      calldataload\n        /* \"#utility.yul\":1801:1830   */\n      swap1\n      pop\n        /* \"#utility.yul\":1839:1872   */\n      tag_224\n        /* \"#utility.yul\":1866:1871   */\n      dup2\n        /* \"#utility.yul\":1839:1872   */\n      tag_175\n      jump\t// in\n    tag_224:\n        /* \"#utility.yul\":1739:1878   */\n      swap3\n      swap2\n      pop\n      pop\n      jump\t// out\n        /* \"#utility.yul\":1884:2213   */\n    tag_38:\n        /* \"#utility.yul\":1943:1949   */\n      0x00\n        /* \"#utility.yul\":1992:1994   */\n      0x20\n        /* \"#utility.yul\":1980:1989   */\n      dup3\n        /* \"#utility.yul\":1971:1978   */\n      dup5\n        /* \"#utility.yul\":1967:1990   */\n      sub\n        /* \"#utility.yul\":1963:1995   */\n      slt\n        /* \"#utility.yul\":1960:2079   */\n      iszero\n      tag_226\n      jumpi\n        /* \"#utility.yul\":1998:2077   */\n      tag_227\n      tag_167\n      jump\t// in\n    tag_227:\n        /* \"#utility.yul\":1960:2079   */\n    tag_226:\n        /* \"#utility.yul\":2118:2119   */\n      0x00\n        /* \"#utility.yul\":2143:2196   */\n      tag_228\n        /* \"#utility.yul\":2188:2195   */\n      dup5\n        /* \"#utility.yul\":2179:2185   */\n      dup3\n        /* \"#utility.yul\":2168:2177   */\n      dup6\n        /* \"#utility.yul\":2164:2186   */\n      add\n        /* \"#utility.yul\":2143:2196   */\n      tag_176\n      jump\t// in\n    tag_228:\n        /* \"#utility.yul\":2133:2196   */\n      swap2\n      pop\n        /* \"#utility.yul\":2089:2206   */\n      pop\n        /* \"#utility.yul\":1884:2213   */\n      swap3\n      swap2\n      pop\n      pop\n      jump\t// out\n        /* \"#utility.yul\":2219:2279   */\n    tag_177:\n        /* \"#utility.yul\":2247:2250   */\n      0x00\n        /* \"#utility.yul\":2268:2273   */\n      dup2\n        /* \"#utility.yul\":2261:2273   */\n      swap1\n      pop\n        /* \"#utility.yul\":2219:2279   */\n      swap2\n      swap1\n      pop\n      jump\t// out\n        /* \"#utility.yul\":2285:2427   */\n    tag_178:\n        /* \"#utility.yul\":2335:2344   */\n      0x00\n        /* \"#utility.yul\":2368:2421   */\n      tag_231\n        /* \"#utility.yul\":2386:2420   */\n      tag_232\n        /* \"#utility.yul\":2395:2419   */\n      tag_233\n        /* \"#utility.yul\":2413:2418   */\n      dup5\n        /* \"#utility.yul\":2395:2419   */\n      tag_169\n      jump\t// in\n    tag_233:\n        /* \"#utility.yul\":2386:2420   */\n      tag_177\n      jump\t// in\n    tag_232:\n        /* \"#utility.yul\":2368:2421   */\n      tag_169\n      jump\t// in\n    tag_231:\n        /* \"#utility.yul\":2355:2421   */\n      swap1\n      pop\n        /* \"#utility.yul\":2285:2427   */\n      swap2\n      swap1\n      pop\n      jump\t// out\n        /* \"#utility.yul\":2433:2559   */\n    tag_179:\n        /* \"#utility.yul\":2483:2492   */\n      0x00\n        /* \"#utility.yul\":2516:2553   */\n      tag_235\n        /* \"#utility.yul\":2547:2552   */\n      dup3\n        /* \"#utility.yul\":2516:2553   */\n      tag_178\n      jump\t// in\n    tag_235:\n        /* \"#utility.yul\":2503:2553   */\n      swap1\n      pop\n        /* \"#utility.yul\":2433:2559   */\n      swap2\n      swap1\n      pop\n      jump\t// out\n        /* \"#utility.yul\":2565:2705   */\n    tag_180:\n        /* \"#utility.yul\":2629:2638   */\n      0x00\n        /* \"#utility.yul\":2662:2699   */\n      tag_237\n        /* \"#utility.yul\":2693:2698   */\n      dup3\n        /* \"#utility.yul\":2662:2699   */\n      tag_179\n      jump\t// in\n    tag_237:\n        /* \"#utility.yul\":2649:2699   */\n      swap1\n      pop\n        /* \"#utility.yul\":2565:2705   */\n      swap2\n      swap1\n      pop\n      jump\t// out\n        /* \"#utility.yul\":2711:2870   */\n    tag_181:\n        /* \"#utility.yul\":2812:2863   */\n      tag_239\n        /* \"#utility.yul\":2857:2862   */\n      dup2\n        /* \"#utility.yul\":2812:2863   */\n      tag_180\n      jump\t// in\n    tag_239:\n        /* \"#utility.yul\":2807:2810   */\n      dup3\n        /* \"#utility.yul\":2800:2864   */\n      mstore\n        /* \"#utility.yul\":2711:2870   */\n      pop\n      pop\n      jump\t// out\n        /* \"#utility.yul\":2876:3126   */\n    tag_43:\n        /* \"#utility.yul\":2983:2987   */\n      0x00\n        /* \"#utility.yul\":3021:3023   */\n      0x20\n        /* \"#utility.yul\":3010:3019   */\n      dup3\n        /* \"#utility.yul\":3006:3024   */\n      add\n        /* \"#utility.yul\":2998:3024   */\n      swap1\n      pop\n        /* \"#utility.yul\":3034:3119   */\n      tag_241\n        /* \"#utility.yul\":3116:3117   */\n      0x00\n        /* \"#utility.yul\":3105:3114   */\n      dup4\n        /* \"#utility.yul\":3101:3118   */\n      add\n        /* \"#utility.yul\":3092:3098   */\n      dup5\n        /* \"#utility.yul\":3034:3119   */\n      tag_181\n      jump\t// in\n    tag_241:\n        /* \"#utility.yul\":2876:3126   */\n      swap3\n      swap2\n      pop\n      pop\n      jump\t// out\n        /* \"#utility.yul\":3132:3312   */\n    tag_182:\n        /* \"#utility.yul\":3180:3257   */\n      0x4e487b7100000000000000000000000000000000000000000000000000000000\n        /* \"#utility.yul\":3177:3178   */\n      0x00\n        /* \"#utility.yul\":3170:3258   */\n      mstore\n        /* \"#utility.yul\":3277:3281   */\n      0x11\n        /* \"#utility.yul\":3274:3275   */\n      0x04\n        /* \"#utility.yul\":3267:3282   */\n      mstore\n        /* \"#utility.yul\":3301:3305   */\n      0x24\n        /* \"#utility.yul\":3298:3299   */\n      0x00\n        /* \"#utility.yul\":3291:3306   */\n      revert\n        /* \"#utility.yul\":3318:3512   */\n    tag_79:\n        /* \"#utility.yul\":3358:3362   */\n      0x00\n        /* \"#utility.yul\":3378:3398   */\n      tag_244\n        /* \"#utility.yul\":3396:3397   */\n      dup3\n        /* \"#utility.yul\":3378:3398   */\n      tag_173\n      jump\t// in\n    tag_244:\n        /* \"#utility.yul\":3373:3398   */\n      swap2\n      pop\n        /* \"#utility.yul\":3412:3432   */\n      tag_245\n        /* \"#utility.yul\":3430:3431   */\n      dup4\n        /* \"#utility.yul\":3412:3432   */\n      tag_173\n      jump\t// in\n    tag_245:\n        /* \"#utility.yul\":3407:3432   */\n      swap3\n      pop\n        /* \"#utility.yul\":3456:3457   */\n      dup3\n        /* \"#utility.yul\":3453:3454   */\n      dup3\n        /* \"#utility.yul\":3449:3458   */\n      sub\n        /* \"#utility.yul\":3441:3458   */\n      swap1\n      pop\n        /* \"#utility.yul\":3480:3481   */\n      dup2\n        /* \"#utility.yul\":3474:3478   */\n      dup2\n        /* \"#utility.yul\":3471:3482   */\n      gt\n        /* \"#utility.yul\":3468:3505   */\n      iszero\n      tag_246\n      jumpi\n        /* \"#utility.yul\":3485:3503   */\n      tag_247\n      tag_182\n      jump\t// in\n    tag_247:\n        /* \"#utility.yul\":3468:3505   */\n    tag_246:\n        /* \"#utility.yul\":3318:3512   */\n      swap3\n      swap2\n      pop\n      pop\n      jump\t// out\n        /* \"#utility.yul\":3518:3928   */\n    tag_81:\n        /* \"#utility.yul\":3558:3565   */\n      0x00\n        /* \"#utility.yul\":3581:3601   */\n      tag_249\n        /* \"#utility.yul\":3599:3600   */\n      dup3\n        /* \"#utility.yul\":3581:3601   */\n      tag_173\n      jump\t// in\n    tag_249:\n        /* \"#utility.yul\":3576:3601   */\n      swap2\n      pop\n        /* \"#utility.yul\":3615:3635   */\n      tag_250\n        /* \"#utility.yul\":3633:3634   */\n      dup4\n        /* \"#utility.yul\":3615:3635   */\n      tag_173\n      jump\t// in\n    tag_250:\n        /* \"#utility.yul\":3610:3635   */\n      swap3\n      pop\n        /* \"#utility.yul\":3670:3671   */\n      dup3\n        /* \"#utility.yul\":3667:3668   */\n      dup3\n        /* \"#utility.yul\":3663:3672   */\n      mul\n        /* \"#utility.yul\":3692:3722   */\n      tag_251\n        /* \"#utility.yul\":3710:3721   */\n      dup2\n        /* \"#utility.yul\":3692:3722   */\n      tag_173\n      jump\t// in\n    tag_251:\n        /* \"#utility.yul\":3681:3722   */\n      swap2\n      pop\n        /* \"#utility.yul\":3871:3872   */\n      dup3\n        /* \"#utility.yul\":3862:3869   */\n      dup3\n        /* \"#utility.yul\":3858:3873   */\n      div\n        /* \"#utility.yul\":3855:3856   */\n      dup5\n        /* \"#utility.yul\":3852:3874   */\n      eq\n        /* \"#utility.yul\":3832:3833   */\n      dup4\n        /* \"#utility.yul\":3825:3834   */\n      iszero\n        /* \"#utility.yul\":3805:3888   */\n      or\n        /* \"#utility.yul\":3782:3921   */\n      tag_252\n      jumpi\n        /* \"#utility.yul\":3901:3919   */\n      tag_253\n      tag_182\n      jump\t// in\n    tag_253:\n        /* \"#utility.yul\":3782:3921   */\n    tag_252:\n        /* \"#utility.yul\":3566:3928   */\n      pop\n        /* \"#utility.yul\":3518:3928   */\n      swap3\n      swap2\n      pop\n      pop\n      jump\t// out\n        /* \"#utility.yul\":3934:4114   */\n    tag_183:\n        /* \"#utility.yul\":3982:4059   */\n      0x4e487b7100000000000000000000000000000000000000000000000000000000\n        /* \"#utility.yul\":3979:3980   */\n      0x00\n        /* \"#utility.yul\":3972:4060   */\n      mstore\n        /* \"#utility.yul\":4079:4083   */\n      0x12\n        /* \"#utility.yul\":4076:4077   */\n      0x04\n        /* \"#utility.yul\":4069:4084   */\n      mstore\n        /* \"#utility.yul\":4103:4107   */\n      0x24\n        /* \"#utility.yul\":4100:4101   */\n      0x00\n        /* \"#utility.yul\":4093:4108   */\n      revert\n        /* \"#utility.yul\":4120:4305   */\n    tag_83:\n        /* \"#utility.yul\":4160:4161   */\n      0x00\n        /* \"#utility.yul\":4177:4197   */\n      tag_256\n        /* \"#utility.yul\":4195:4196   */\n      dup3\n        /* \"#utility.yul\":4177:4197   */\n      tag_173\n      jump\t// in\n    tag_256:\n        /* \"#utility.yul\":4172:4197   */\n      swap2\n      pop\n        /* \"#utility.yul\":4211:4231   */\n      tag_257\n        /* \"#utility.yul\":4229:4230   */\n      dup4\n        /* \"#utility.yul\":4211:4231   */\n      tag_173\n      jump\t// in\n    tag_257:\n        /* \"#utility.yul\":4206:4231   */\n      swap3\n      pop\n        /* \"#utility.yul\":4250:4251   */\n      dup3\n        /* \"#utility.yul\":4240:4275   */\n      tag_258\n      jumpi\n        /* \"#utility.yul\":4255:4273   */\n      tag_259\n      tag_183\n      jump\t// in\n    tag_259:\n        /* \"#utility.yul\":4240:4275   */\n    tag_258:\n        /* \"#utility.yul\":4297:4298   */\n      dup3\n        /* \"#utility.yul\":4294:4295   */\n      dup3\n        /* \"#utility.yul\":4290:4299   */\n      div\n        /* \"#utility.yul\":4285:4299   */\n      swap1\n      pop\n        /* \"#utility.yul\":4120:4305   */\n      swap3\n      swap2\n      pop\n      pop\n      jump\t// out\n        /* \"#utility.yul\":4311:4502   */\n    tag_85:\n        /* \"#utility.yul\":4351:4354   */\n      0x00\n        /* \"#utility.yul\":4370:4390   */\n      tag_261\n        /* \"#utility.yul\":4388:4389   */\n      dup3\n        /* \"#utility.yul\":4370:4390   */\n      tag_173\n      jump\t// in\n    tag_261:\n        /* \"#utility.yul\":4365:4390   */\n      swap2\n      pop\n        /* \"#utility.yul\":4404:4424   */\n      tag_262\n        /* \"#utility.yul\":4422:4423   */\n      dup4\n        /* \"#utility.yul\":4404:4424   */\n      tag_173\n      jump\t// in\n    tag_262:\n        /* \"#utility.yul\":4399:4424   */\n      swap3\n      pop\n        /* \"#utility.yul\":4447:4448   */\n      dup3\n        /* \"#utility.yul\":4444:4445   */\n      dup3\n        /* \"#utility.yul\":4440:4449   */\n      add\n        /* \"#utility.yul\":4433:4449   */\n      swap1\n      pop\n        /* \"#utility.yul\":4468:4471   */\n      dup1\n        /* \"#utility.yul\":4465:4466   */\n      dup3\n        /* \"#utility.yul\":4462:4472   */\n      gt\n        /* \"#utility.yul\":4459:4495   */\n      iszero\n      tag_263\n      jumpi\n        /* \"#utility.yul\":4475:4493   */\n      tag_264\n      tag_182\n      jump\t// in\n    tag_264:\n        /* \"#utility.yul\":4459:4495   */\n    tag_263:\n        /* \"#utility.yul\":4311:4502   */\n      swap3\n      swap2\n      pop\n      pop\n      jump\t// out\n        /* \"#utility.yul\":4508:4677   */\n    tag_184:\n        /* \"#utility.yul\":4592:4603   */\n      0x00\n        /* \"#utility.yul\":4626:4632   */\n      dup3\n        /* \"#utility.yul\":4621:4624   */\n      dup3\n        /* \"#utility.yul\":4614:4633   */\n      mstore\n        /* \"#utility.yul\":4666:4670   */\n      0x20\n        /* \"#utility.yul\":4661:4664   */\n      dup3\n        /* \"#utility.yul\":4657:4671   */\n      add\n        /* \"#utility.yul\":4642:4671   */\n      swap1\n      pop\n        /* \"#utility.yul\":4508:4677   */\n      swap3\n      swap2\n      pop\n      pop\n      jump\t// out\n        /* \"#utility.yul\":4683:4853   */\n    tag_185:\n        /* \"#utility.yul\":4823:4845   */\n      0x43616e6e6f74207769746864726177207a65726f000000000000000000000000\n        /* \"#utility.yul\":4819:4820   */\n      0x00\n        /* \"#utility.yul\":4811:4817   */\n      dup3\n        /* \"#utility.yul\":4807:4821   */\n      add\n        /* \"#utility.yul\":4800:4846   */\n      mstore\n        /* \"#utility.yul\":4683:4853   */\n      pop\n      jump\t// out\n        /* \"#utility.yul\":4859:5225   */\n    tag_186:\n        /* \"#utility.yul\":5001:5004   */\n      0x00\n        /* \"#utility.yul\":5022:5089   */\n      tag_268\n        /* \"#utility.yul\":5086:5088   */\n      0x14\n        /* \"#utility.yul\":5081:5084   */\n      dup4\n        /* \"#utility.yul\":5022:5089   */\n      tag_184\n      jump\t// in\n    tag_268:\n        /* \"#utility.yul\":5015:5089   */\n      swap2\n      pop\n        /* \"#utility.yul\":5098:5191   */\n      tag_269\n        /* \"#utility.yul\":5187:5190   */\n      dup3\n        /* \"#utility.yul\":5098:5191   */\n      tag_185\n      jump\t// in\n    tag_269:\n        /* \"#utility.yul\":5216:5218   */\n      0x20\n        /* \"#utility.yul\":5211:5214   */\n      dup3\n        /* \"#utility.yul\":5207:5219   */\n      add\n        /* \"#utility.yul\":5200:5219   */\n      swap1\n      pop\n        /* \"#utility.yul\":4859:5225   */\n      swap2\n      swap1\n      pop\n      jump\t// out\n        /* \"#utility.yul\":5231:5650   */\n    tag_97:\n        /* \"#utility.yul\":5397:5401   */\n      0x00\n        /* \"#utility.yul\":5435:5437   */\n      0x20\n        /* \"#utility.yul\":5424:5433   */\n      dup3\n        /* \"#utility.yul\":5420:5438   */\n      add\n        /* \"#utility.yul\":5412:5438   */\n      swap1\n      pop\n        /* \"#utility.yul\":5484:5493   */\n      dup2\n        /* \"#utility.yul\":5478:5482   */\n      dup2\n        /* \"#utility.yul\":5474:5494   */\n      sub\n        /* \"#utility.yul\":5470:5471   */\n      0x00\n        /* \"#utility.yul\":5459:5468   */\n      dup4\n        /* \"#utility.yul\":5455:5472   */\n      add\n        /* \"#utility.yul\":5448:5495   */\n      mstore\n        /* \"#utility.yul\":5512:5643   */\n      tag_271\n        /* \"#utility.yul\":5638:5642   */\n      dup2\n        /* \"#utility.yul\":5512:5643   */\n      tag_186\n      jump\t// in\n    tag_271:\n        /* \"#utility.yul\":5504:5643   */\n      swap1\n      pop\n        /* \"#utility.yul\":5231:5650   */\n      swap2\n      swap1\n      pop\n      jump\t// out\n        /* \"#utility.yul\":5656:5826   */\n    tag_187:\n        /* \"#utility.yul\":5796:5818   */\n      0x496e73756666696369656e742062616c616e6365000000000000000000000000\n        /* \"#utility.yul\":5792:5793   */\n      0x00\n        /* \"#utility.yul\":5784:5790   */\n      dup3\n        /* \"#utility.yul\":5780:5794   */\n      add\n        /* \"#utility.yul\":5773:5819   */\n      mstore\n        /* \"#utility.yul\":5656:5826   */\n      pop\n      jump\t// out\n        /* \"#utility.yul\":5832:6198   */\n    tag_188:\n        /* \"#utility.yul\":5974:5977   */\n      0x00\n        /* \"#utility.yul\":5995:6062   */\n      tag_274\n        /* \"#utility.yul\":6059:6061   */\n      0x14\n        /* \"#utility.yul\":6054:6057   */\n      dup4\n        /* \"#utility.yul\":5995:6062   */\n      tag_184\n      jump\t// in\n    tag_274:\n        /* \"#utility.yul\":5988:6062   */\n      swap2\n      pop\n        /* \"#utility.yul\":6071:6164   */\n      tag_275\n        /* \"#utility.yul\":6160:6163   */\n      dup3\n        /* \"#utility.yul\":6071:6164   */\n      tag_187\n      jump\t// in\n    tag_275:\n        /* \"#utility.yul\":6189:6191   */\n      0x20\n        /* \"#utility.yul\":6184:6187   */\n      dup3\n        /* \"#utility.yul\":6180:6192   */\n      add\n        /* \"#utility.yul\":6173:6192   */\n      swap1\n      pop\n        /* \"#utility.yul\":5832:6198   */\n      swap2\n      swap1\n      pop\n      jump\t// out\n        /* \"#utility.yul\":6204:6623   */\n    tag_100:\n        /* \"#utility.yul\":6370:6374   */\n      0x00\n        /* \"#utility.yul\":6408:6410   */\n      0x20\n        /* \"#utility.yul\":6397:6406   */\n      dup3\n        /* \"#utility.yul\":6393:6411   */\n      add\n        /* \"#utility.yul\":6385:6411   */\n      swap1\n      pop\n        /* \"#utility.yul\":6457:6466   */\n      dup2\n        /* \"#utility.yul\":6451:6455   */\n      dup2\n        /* \"#utility.yul\":6447:6467   */\n      sub\n        /* \"#utility.yul\":6443:6444   */\n      0x00\n        /* \"#utility.yul\":6432:6441   */\n      dup4\n        /* \"#utility.yul\":6428:6445   */\n      add\n        /* \"#utility.yul\":6421:6468   */\n      mstore\n        /* \"#utility.yul\":6485:6616   */\n      tag_277\n        /* \"#utility.yul\":6611:6615   */\n      dup2\n        /* \"#utility.yul\":6485:6616   */\n      tag_188\n      jump\t// in\n    tag_277:\n        /* \"#utility.yul\":6477:6616   */\n      swap1\n      pop\n        /* \"#utility.yul\":6204:6623   */\n      swap2\n      swap1\n      pop\n      jump\t// out\n        /* \"#utility.yul\":6629:6747   */\n    tag_189:\n        /* \"#utility.yul\":6716:6740   */\n      tag_279\n        /* \"#utility.yul\":6734:6739   */\n      dup2\n        /* \"#utility.yul\":6716:6740   */\n      tag_170\n      jump\t// in\n    tag_279:\n        /* \"#utility.yul\":6711:6714   */\n      dup3\n        /* \"#utility.yul\":6704:6741   */\n      mstore\n        /* \"#utility.yul\":6629:6747   */\n      pop\n      pop\n      jump\t// out\n        /* \"#utility.yul\":6753:7085   */\n    tag_104:\n        /* \"#utility.yul\":6874:6878   */\n      0x00\n        /* \"#utility.yul\":6912:6914   */\n      0x40\n        /* \"#utility.yul\":6901:6910   */\n      dup3\n        /* \"#utility.yul\":6897:6915   */\n      add\n        /* \"#utility.yul\":6889:6915   */\n      swap1\n      pop\n        /* \"#utility.yul\":6925:6996   */\n      tag_281\n        /* \"#utility.yul\":6993:6994   */\n      0x00\n        /* \"#utility.yul\":6982:6991   */\n      dup4\n        /* \"#utility.yul\":6978:6995   */\n      add\n        /* \"#utility.yul\":6969:6975   */\n      dup6\n        /* \"#utility.yul\":6925:6996   */\n      tag_189\n      jump\t// in\n    tag_281:\n        /* \"#utility.yul\":7006:7078   */\n      tag_282\n        /* \"#utility.yul\":7074:7076   */\n      0x20\n        /* \"#utility.yul\":7063:7072   */\n      dup4\n        /* \"#utility.yul\":7059:7077   */\n      add\n        /* \"#utility.yul\":7050:7056   */\n      dup5\n        /* \"#utility.yul\":7006:7078   */\n      tag_174\n      jump\t// in\n    tag_282:\n        /* \"#utility.yul\":6753:7085   */\n      swap4\n      swap3\n      pop\n      pop\n      pop\n      jump\t// out\n        /* \"#utility.yul\":7091:7181   */\n    tag_190:\n        /* \"#utility.yul\":7125:7132   */\n      0x00\n        /* \"#utility.yul\":7168:7173   */\n      dup2\n        /* \"#utility.yul\":7161:7174   */\n      iszero\n        /* \"#utility.yul\":7154:7175   */\n      iszero\n        /* \"#utility.yul\":7143:7175   */\n      swap1\n      pop\n        /* \"#utility.yul\":7091:7181   */\n      swap2\n      swap1\n      pop\n      jump\t// out\n        /* \"#utility.yul\":7187:7303   */\n    tag_191:\n        /* \"#utility.yul\":7257:7278   */\n      tag_285\n        /* \"#utility.yul\":7272:7277   */\n      dup2\n        /* \"#utility.yul\":7257:7278   */\n      tag_190\n      jump\t// in\n    tag_285:\n        /* \"#utility.yul\":7250:7255   */\n      dup2\n        /* \"#utility.yul\":7247:7279   */\n      eq\n        /* \"#utility.yul\":7237:7297   */\n      tag_286\n      jumpi\n        /* \"#utility.yul\":7293:7294   */\n      0x00\n        /* \"#utility.yul\":7290:7291   */\n      0x00\n        /* \"#utility.yul\":7283:7295   */\n      revert\n        /* \"#utility.yul\":7237:7297   */\n    tag_286:\n        /* \"#utility.yul\":7187:7303   */\n      pop\n      jump\t// out\n        /* \"#utility.yul\":7309:7446   */\n    tag_192:\n        /* \"#utility.yul\":7363:7368   */\n      0x00\n        /* \"#utility.yul\":7394:7400   */\n      dup2\n        /* \"#utility.yul\":7388:7401   */\n      mload\n        /* \"#utility.yul\":7379:7401   */\n      swap1\n      pop\n        /* \"#utility.yul\":7410:7440   */\n      tag_288\n        /* \"#utility.yul\":7434:7439   */\n      dup2\n        /* \"#utility.yul\":7410:7440   */\n      tag_191\n      jump\t// in\n    tag_288:\n        /* \"#utility.yul\":7309:7446   */\n      swap3\n      swap2\n      pop\n      pop\n      jump\t// out\n        /* \"#utility.yul\":7452:7797   */\n    tag_108:\n        /* \"#utility.yul\":7519:7525   */\n      0x00\n        /* \"#utility.yul\":7568:7570   */\n      0x20\n        /* \"#utility.yul\":7556:7565   */\n      dup3\n        /* \"#utility.yul\":7547:7554   */\n      dup5\n        /* \"#utility.yul\":7543:7566   */\n      sub\n        /* \"#utility.yul\":7539:7571   */\n      slt\n        /* \"#utility.yul\":7536:7655   */\n      iszero\n      tag_290\n      jumpi\n        /* \"#utility.yul\":7574:7653   */\n      tag_291\n      tag_167\n      jump\t// in\n    tag_291:\n        /* \"#utility.yul\":7536:7655   */\n    tag_290:\n        /* \"#utility.yul\":7694:7695   */\n      0x00\n        /* \"#utility.yul\":7719:7780   */\n      tag_292\n        /* \"#utility.yul\":7772:7779   */\n      dup5\n        /* \"#utility.yul\":7763:7769   */\n      dup3\n        /* \"#utility.yul\":7752:7761   */\n      dup6\n        /* \"#utility.yul\":7748:7770   */\n      add\n        /* \"#utility.yul\":7719:7780   */\n      tag_192\n      jump\t// in\n    tag_292:\n        /* \"#utility.yul\":7709:7780   */\n      swap2\n      pop\n        /* \"#utility.yul\":7665:7790   */\n      pop\n        /* \"#utility.yul\":7452:7797   */\n      swap3\n      swap2\n      pop\n      pop\n      jump\t// out\n        /* \"#utility.yul\":7803:7970   */\n    tag_193:\n        /* \"#utility.yul\":7943:7962   */\n      0x43616e6e6f74207374616b65207a65726f000000000000000000000000000000\n        /* \"#utility.yul\":7939:7940   */\n      0x00\n        /* \"#utility.yul\":7931:7937   */\n      dup3\n        /* \"#utility.yul\":7927:7941   */\n      add\n        /* \"#utility.yul\":7920:7963   */\n      mstore\n        /* \"#utility.yul\":7803:7970   */\n      pop\n      jump\t// out\n        /* \"#utility.yul\":7976:8342   */\n    tag_194:\n        /* \"#utility.yul\":8118:8121   */\n      0x00\n        /* \"#utility.yul\":8139:8206   */\n      tag_295\n        /* \"#utility.yul\":8203:8205   */\n      0x11\n        /* \"#utility.yul\":8198:8201   */\n      dup4\n        /* \"#utility.yul\":8139:8206   */\n      tag_184\n      jump\t// in\n    tag_295:\n        /* \"#utility.yul\":8132:8206   */\n      swap2\n      pop\n        /* \"#utility.yul\":8215:8308   */\n      tag_296\n        /* \"#utility.yul\":8304:8307   */\n      dup3\n        /* \"#utility.yul\":8215:8308   */\n      tag_193\n      jump\t// in\n    tag_296:\n        /* \"#utility.yul\":8333:8335   */\n      0x20\n        /* \"#utility.yul\":8328:8331   */\n      dup3\n        /* \"#utility.yul\":8324:8336   */\n      add\n        /* \"#utility.yul\":8317:8336   */\n      swap1\n      pop\n        /* \"#utility.yul\":7976:8342   */\n      swap2\n      swap1\n      pop\n      jump\t// out\n        /* \"#utility.yul\":8348:8767   */\n    tag_123:\n        /* \"#utility.yul\":8514:8518   */\n      0x00\n        /* \"#utility.yul\":8552:8554   */\n      0x20\n        /* \"#utility.yul\":8541:8550   */\n      dup3\n        /* \"#utility.yul\":8537:8555   */\n      add\n        /* \"#utility.yul\":8529:8555   */\n      swap1\n      pop\n        /* \"#utility.yul\":8601:8610   */\n      dup2\n        /* \"#utility.yul\":8595:8599   */\n      dup2\n        /* \"#utility.yul\":8591:8611   */\n      sub\n        /* \"#utility.yul\":8587:8588   */\n      0x00\n        /* \"#utility.yul\":8576:8585   */\n      dup4\n        /* \"#utility.yul\":8572:8589   */\n      add\n        /* \"#utility.yul\":8565:8612   */\n      mstore\n        /* \"#utility.yul\":8629:8760   */\n      tag_298\n        /* \"#utility.yul\":8755:8759   */\n      dup2\n        /* \"#utility.yul\":8629:8760   */\n      tag_194\n      jump\t// in\n    tag_298:\n        /* \"#utility.yul\":8621:8760   */\n      swap1\n      pop\n        /* \"#utility.yul\":8348:8767   */\n      swap2\n      swap1\n      pop\n      jump\t// out\n        /* \"#utility.yul\":8773:9215   */\n    tag_127:\n        /* \"#utility.yul\":8922:8926   */\n      0x00\n        /* \"#utility.yul\":8960:8962   */\n      0x60\n        /* \"#utility.yul\":8949:8958   */\n      dup3\n        /* \"#utility.yul\":8945:8963   */\n      add\n        /* \"#utility.yul\":8937:8963   */\n      swap1\n      pop\n        /* \"#utility.yul\":8973:9044   */\n      tag_300\n        /* \"#utility.yul\":9041:9042   */\n      0x00\n        /* \"#utility.yul\":9030:9039   */\n      dup4\n        /* \"#utility.yul\":9026:9043   */\n      add\n        /* \"#utility.yul\":9017:9023   */\n      dup7\n        /* \"#utility.yul\":8973:9044   */\n      tag_189\n      jump\t// in\n    tag_300:\n        /* \"#utility.yul\":9054:9126   */\n      tag_301\n        /* \"#utility.yul\":9122:9124   */\n      0x20\n        /* \"#utility.yul\":9111:9120   */\n      dup4\n        /* \"#utility.yul\":9107:9125   */\n      add\n        /* \"#utility.yul\":9098:9104   */\n      dup6\n        /* \"#utility.yul\":9054:9126   */\n      tag_189\n      jump\t// in\n    tag_301:\n        /* \"#utility.yul\":9136:9208   */\n      tag_302\n        /* \"#utility.yul\":9204:9206   */\n      0x40\n        /* \"#utility.yul\":9193:9202   */\n      dup4\n        /* \"#utility.yul\":9189:9207   */\n      add\n        /* \"#utility.yul\":9180:9186   */\n      dup5\n        /* \"#utility.yul\":9136:9208   */\n      tag_174\n      jump\t// in\n    tag_302:\n        /* \"#utility.yul\":8773:9215   */\n      swap5\n      swap4\n      pop\n      pop\n      pop\n      pop\n      jump\t// out\n        /* \"#utility.yul\":9221:9381   */\n    tag_195:\n        /* \"#utility.yul\":9361:9373   */\n      0x4e6f207265776172647300000000000000000000000000000000000000000000\n        /* \"#utility.yul\":9357:9358   */\n      0x00\n        /* \"#utility.yul\":9349:9355   */\n      dup3\n        /* \"#utility.yul\":9345:9359   */\n      add\n        /* \"#utility.yul\":9338:9374   */\n      mstore\n        /* \"#utility.yul\":9221:9381   */\n      pop\n      jump\t// out\n        /* \"#utility.yul\":9387:9753   */\n    tag_196:\n        /* \"#utility.yul\":9529:9532   */\n      0x00\n        /* \"#utility.yul\":9550:9617   */\n      tag_305\n        /* \"#utility.yul\":9614:9616   */\n      0x0a\n        /* \"#utility.yul\":9609:9612   */\n      dup4\n        /* \"#utility.yul\":9550:9617   */\n      tag_184\n      jump\t// in\n    tag_305:\n        /* \"#utility.yul\":9543:9617   */\n      swap2\n      pop\n        /* \"#utility.yul\":9626:9719   */\n      tag_306\n        /* \"#utility.yul\":9715:9718   */\n      dup3\n        /* \"#utility.yul\":9626:9719   */\n      tag_195\n      jump\t// in\n    tag_306:\n        /* \"#utility.yul\":9744:9746   */\n      0x20\n        /* \"#utility.yul\":9739:9742   */\n      dup3\n        /* \"#utility.yul\":9735:9747   */\n      add\n        /* \"#utility.yul\":9728:9747   */\n      swap1\n      pop\n        /* \"#utility.yul\":9387:9753   */\n      swap2\n      swap1\n      pop\n      jump\t// out\n        /* \"#utility.yul\":9759:10178   */\n    tag_143:\n        /* \"#utility.yul\":9925:9929   */\n      0x00\n        /* \"#utility.yul\":9963:9965   */\n      0x20\n        /* \"#utility.yul\":9952:9961   */\n      dup3\n        /* \"#utility.yul\":9948:9966   */\n      add\n        /* \"#utility.yul\":9940:9966   */\n      swap1\n      pop\n        /* \"#utility.yul\":10012:10021   */\n      dup2\n        /* \"#utility.yul\":10006:10010   */\n      dup2\n        /* \"#utility.yul\":10002:10022   */\n      sub\n        /* \"#utility.yul\":9998:9999   */\n      0x00\n        /* \"#utility.yul\":9987:9996   */\n      dup4\n        /* \"#utility.yul\":9983:10000   */\n      add\n        /* \"#utility.yul\":9976:10023   */\n      mstore\n        /* \"#utility.yul\":10040:10171   */\n      tag_308\n        /* \"#utility.yul\":10166:10170   */\n      dup2\n        /* \"#utility.yul\":10040:10171   */\n      tag_196\n      jump\t// in\n    tag_308:\n        /* \"#utility.yul\":10032:10171   */\n      swap1\n      pop\n        /* \"#utility.yul\":9759:10178   */\n      swap2\n      swap1\n      pop\n      jump\t// out\n        /* \"#utility.yul\":10184:10365   */\n    tag_197:\n        /* \"#utility.yul\":10324:10357   */\n      0x5265656e7472616e637947756172643a207265656e7472616e742063616c6c00\n        /* \"#utility.yul\":10320:10321   */\n      0x00\n        /* \"#utility.yul\":10312:10318   */\n      dup3\n        /* \"#utility.yul\":10308:10322   */\n      add\n        /* \"#utility.yul\":10301:10358   */\n      mstore\n        /* \"#utility.yul\":10184:10365   */\n      pop\n      jump\t// out\n        /* \"#utility.yul\":10371:10737   */\n    tag_198:\n        /* \"#utility.yul\":10513:10516   */\n      0x00\n        /* \"#utility.yul\":10534:10601   */\n      tag_311\n        /* \"#utility.yul\":10598:10600   */\n      0x1f\n        /* \"#utility.yul\":10593:10596   */\n      dup4\n        /* \"#utility.yul\":10534:10601   */\n      tag_184\n      jump\t// in\n    tag_311:\n        /* \"#utility.yul\":10527:10601   */\n      swap2\n      pop\n        /* \"#utility.yul\":10610:10703   */\n      tag_312\n        /* \"#utility.yul\":10699:10702   */\n      dup3\n        /* \"#utility.yul\":10610:10703   */\n      tag_197\n      jump\t// in\n    tag_312:\n        /* \"#utility.yul\":10728:10730   */\n      0x20\n        /* \"#utility.yul\":10723:10726   */\n      dup3\n        /* \"#utility.yul\":10719:10731   */\n      add\n        /* \"#utility.yul\":10712:10731   */\n      swap1\n      pop\n        /* \"#utility.yul\":10371:10737   */\n      swap2\n      swap1\n      pop\n      jump\t// out\n        /* \"#utility.yul\":10743:11162   */\n    tag_164:\n        /* \"#utility.yul\":10909:10913   */\n      0x00\n        /* \"#utility.yul\":10947:10949   */\n      0x20\n        /* \"#utility.yul\":10936:10945   */\n      dup3\n        /* \"#utility.yul\":10932:10950   */\n      add\n        /* \"#utility.yul\":10924:10950   */\n      swap1\n      pop\n        /* \"#utility.yul\":10996:11005   */\n      dup2\n        /* \"#utility.yul\":10990:10994   */\n      dup2\n        /* \"#utility.yul\":10986:11006   */\n      sub\n        /* \"#utility.yul\":10982:10983   */\n      0x00\n        /* \"#utility.yul\":10971:10980   */\n      dup4\n        /* \"#utility.yul\":10967:10984   */\n      add\n        /* \"#utility.yul\":10960:11007   */\n      mstore\n        /* \"#utility.yul\":11024:11155   */\n      tag_314\n        /* \"#utility.yul\":11150:11154   */\n      dup2\n        /* \"#utility.yul\":11024:11155   */\n      tag_198\n      jump\t// in\n    tag_314:\n        /* \"#utility.yul\":11016:11155   */\n      swap1\n      pop\n        /* \"#utility.yul\":10743:11162   */\n      swap2\n      swap1\n      pop\n      jump\t// out\n\n    auxdata: 0xa2646970667358221220e867a1c9d6091b1fa6d705604ca2ed28432251ef8e0f55b8dc0aed7aea7a69d164736f6c634300081e0033\n}\n",
				"bytecode": {
					"linkReferences": {},
					"object": "608060405234801561000f575f5ffd5b506040516115733803806115738339818101604052810190610031919061015f565b60015f819055508260015f6101000a81548173ffffffffffffffffffffffffffffffffffffffff021916908373ffffffffffffffffffffffffffffffffffffffff1602179055508160025f6101000a81548173ffffffffffffffffffffffffffffffffffffffff021916908373ffffffffffffffffffffffffffffffffffffffff16021790555080600381905550426005819055505050506101af565b5f5ffd5b5f73ffffffffffffffffffffffffffffffffffffffff82169050919050565b5f6100fb826100d2565b9050919050565b61010b816100f1565b8114610115575f5ffd5b50565b5f8151905061012681610102565b92915050565b5f819050919050565b61013e8161012c565b8114610148575f5ffd5b50565b5f8151905061015981610135565b92915050565b5f5f5f60608486031215610176576101756100ce565b5b5f61018386828701610118565b935050602061019486828701610118565b92505060406101a58682870161014b565b9150509250925092565b6113b7806101bc5f395ff3fe608060405234801561000f575f5ffd5b50600436106100fd575f3560e01c80638b87634711610095578063cd3daf9d11610064578063cd3daf9d14610299578063df136d65146102b7578063e9fad8ee146102d5578063f7c618c1146102df576100fd565b80638b87634714610225578063a694fc3a14610255578063b88a802f14610271578063c8f33c911461027b576100fd565b806372f702f3116100d157806372f702f3146101ad5780637b0a47ee146101cb57806380faa57d146101e9578063817b1cd214610207576100fd565b80628cc262146101015780630700037d1461013157806327e235e3146101615780632e1a7d4d14610191575b5f5ffd5b61011b60048036038101906101169190610e48565b6102fd565b6040516101289190610e8b565b60405180910390f35b61014b60048036038101906101469190610e48565b6103f8565b6040516101589190610e8b565b60405180910390f35b61017b60048036038101906101769190610e48565b61040d565b6040516101889190610e8b565b60405180910390f35b6101ab60048036038101906101a69190610ece565b610422565b005b6101b561072d565b6040516101c29190610f54565b60405180910390f35b6101d3610752565b6040516101e09190610e8b565b60405180910390f35b6101f1610758565b6040516101fe9190610e8b565b60405180910390f35b61020f61075f565b60405161021c9190610e8b565b60405180910390f35b61023f600480360381019061023a9190610e48565b610765565b60405161024c9190610e8b565b60405180910390f35b61026f600480360381019061026a9190610ece565b61077a565b005b610279610a07565b005b610283610caa565b6040516102909190610e8b565b60405180910390f35b6102a1610cb0565b6040516102ae9190610e8b565b60405180910390f35b6102bf610d19565b6040516102cc9190610e8b565b60405180910390f35b6102dd610d1f565b005b6102e7610d6f565b6040516102f49190610f54565b60405180910390f35b5f60095f8373ffffffffffffffffffffffffffffffffffffffff1673ffffffffffffffffffffffffffffffffffffffff1681526020019081526020015f2054670de0b6b3a764000060085f8573ffffffffffffffffffffffffffffffffffffffff1673ffffffffffffffffffffffffffffffffffffffff1681526020019081526020015f205461038b610cb0565b6103959190610f9a565b60075f8673ffffffffffffffffffffffffffffffffffffffff1673ffffffffffffffffffffffffffffffffffffffff1681526020019081526020015f20546103dd9190610fcd565b6103e7919061103b565b6103f1919061106b565b9050919050565b6009602052805f5260405f205f915090505481565b6007602052805f5260405f205f915090505481565b61042a610d94565b33610433610cb0565b600681905550610441610758565b6005819055505f73ffffffffffffffffffffffffffffffffffffffff168173ffffffffffffffffffffffffffffffffffffffff161461050957610483816102fd565b60095f8373ffffffffffffffffffffffffffffffffffffffff1673ffffffffffffffffffffffffffffffffffffffff1681526020019081526020015f208190555060065460085f8373ffffffffffffffffffffffffffffffffffffffff1673ffffffffffffffffffffffffffffffffffffffff1681526020019081526020015f20819055505b5f821161054b576040517f08c379a0000000000000000000000000000000000000000000000000000000008152600401610542906110f8565b60405180910390fd5b8160075f3373ffffffffffffffffffffffffffffffffffffffff1673ffffffffffffffffffffffffffffffffffffffff1681526020019081526020015f205410156105cb576040517f08c379a00000000000000000000000000000000000000000000000000000000081526004016105c290611160565b60405180910390fd5b8160045f8282546105dc9190610f9a565b925050819055508160075f3373ffffffffffffffffffffffffffffffffffffffff1673ffffffffffffffffffffffffffffffffffffffff1681526020019081526020015f205f82825461062f9190610f9a565b9250508190555060015f9054906101000a900473ffffffffffffffffffffffffffffffffffffffff1673ffffffffffffffffffffffffffffffffffffffff1663a9059cbb33846040518363ffffffff1660e01b815260040161069292919061118d565b6020604051808303815f875af11580156106ae573d5f5f3e3d5ffd5b505050506040513d601f19601f820116820180604052508101906106d291906111e9565b503373ffffffffffffffffffffffffffffffffffffffff167f7084f5476618d8e60b11ef0d7d3f06914655adb8793e28ff7f018d4c76d505d5836040516107199190610e8b565b60405180910390a25061072a610de1565b50565b60015f9054906101000a900473ffffffffffffffffffffffffffffffffffffffff1681565b60035481565b5f42905090565b60045481565b6008602052805f5260405f205f915090505481565b610782610d94565b3361078b610cb0565b600681905550610799610758565b6005819055505f73ffffffffffffffffffffffffffffffffffffffff168173ffffffffffffffffffffffffffffffffffffffff1614610861576107db816102fd565b60095f8373ffffffffffffffffffffffffffffffffffffffff1673ffffffffffffffffffffffffffffffffffffffff1681526020019081526020015f208190555060065460085f8373ffffffffffffffffffffffffffffffffffffffff1673ffffffffffffffffffffffffffffffffffffffff1681526020019081526020015f20819055505b5f82116108a3576040517f08c379a000000000000000000000000000000000000000000000000000000000815260040161089a9061125e565b60405180910390fd5b8160045f8282546108b4919061106b565b925050819055508160075f3373ffffffffffffffffffffffffffffffffffffffff1673ffffffffffffffffffffffffffffffffffffffff1681526020019081526020015f205f828254610907919061106b565b9250508190555060015f9054906101000a900473ffffffffffffffffffffffffffffffffffffffff1673ffffffffffffffffffffffffffffffffffffffff166323b872dd3330856040518463ffffffff1660e01b815260040161096c9392919061127c565b6020604051808303815f875af1158015610988573d5f5f3e3d5ffd5b505050506040513d601f19601f820116820180604052508101906109ac91906111e9565b503373ffffffffffffffffffffffffffffffffffffffff167f9e71bc8eea02a63969f509818f2dafb9254532904319f9dbda79b67bd34a5f3d836040516109f39190610e8b565b60405180910390a250610a04610de1565b50565b610a0f610d94565b33610a18610cb0565b600681905550610a26610758565b6005819055505f73ffffffffffffffffffffffffffffffffffffffff168173ffffffffffffffffffffffffffffffffffffffff1614610aee57610a68816102fd565b60095f8373ffffffffffffffffffffffffffffffffffffffff1673ffffffffffffffffffffffffffffffffffffffff1681526020019081526020015f208190555060065460085f8373ffffffffffffffffffffffffffffffffffffffff1673ffffffffffffffffffffffffffffffffffffffff1681526020019081526020015f20819055505b5f60095f3373ffffffffffffffffffffffffffffffffffffffff1673ffffffffffffffffffffffffffffffffffffffff1681526020019081526020015f205490505f8111610b71576040517f08c379a0000000000000000000000000000000000000000000000000000000008152600401610b68906112fb565b60405180910390fd5b5f60095f3373ffffffffffffffffffffffffffffffffffffffff1673ffffffffffffffffffffffffffffffffffffffff1681526020019081526020015f208190555060025f9054906101000a900473ffffffffffffffffffffffffffffffffffffffff1673ffffffffffffffffffffffffffffffffffffffff1663a9059cbb33836040518363ffffffff1660e01b8152600401610c0f92919061118d565b6020604051808303815f875af1158015610c2b573d5f5f3e3d5ffd5b505050506040513d601f19601f82011682018060405250810190610c4f91906111e9565b503373ffffffffffffffffffffffffffffffffffffffff167fe2403640ba68fed3a2f88b7557551d1993f84b99bb10ff833f0cf8db0c5e048682604051610c969190610e8b565b60405180910390a25050610ca8610de1565b565b60055481565b5f5f60045403610cc4576006549050610d16565b600454670de0b6b3a7640000600354600554610cde610758565b610ce89190610f9a565b610cf29190610fcd565b610cfc9190610fcd565b610d06919061103b565b600654610d13919061106b565b90505b90565b60065481565b610d6560075f3373ffffffffffffffffffffffffffffffffffffffff1673ffffffffffffffffffffffffffffffffffffffff1681526020019081526020015f2054610422565b610d6d610a07565b565b60025f9054906101000a900473ffffffffffffffffffffffffffffffffffffffff1681565b60025f5403610dd8576040517f08c379a0000000000000000000000000000000000000000000000000000000008152600401610dcf90611363565b60405180910390fd5b60025f81905550565b60015f81905550565b5f5ffd5b5f73ffffffffffffffffffffffffffffffffffffffff82169050919050565b5f610e1782610dee565b9050919050565b610e2781610e0d565b8114610e31575f5ffd5b50565b5f81359050610e4281610e1e565b92915050565b5f60208284031215610e5d57610e5c610dea565b5b5f610e6a84828501610e34565b91505092915050565b5f819050919050565b610e8581610e73565b82525050565b5f602082019050610e9e5f830184610e7c565b92915050565b610ead81610e73565b8114610eb7575f5ffd5b50565b5f81359050610ec881610ea4565b92915050565b5f60208284031215610ee357610ee2610dea565b5b5f610ef084828501610eba565b91505092915050565b5f819050919050565b5f610f1c610f17610f1284610dee565b610ef9565b610dee565b9050919050565b5f610f2d82610f02565b9050919050565b5f610f3e82610f23565b9050919050565b610f4e81610f34565b82525050565b5f602082019050610f675f830184610f45565b92915050565b7f4e487b71000000000000000000000000000000000000000000000000000000005f52601160045260245ffd5b5f610fa482610e73565b9150610faf83610e73565b9250828203905081811115610fc757610fc6610f6d565b5b92915050565b5f610fd782610e73565b9150610fe283610e73565b9250828202610ff081610e73565b9150828204841483151761100757611006610f6d565b5b5092915050565b7f4e487b71000000000000000000000000000000000000000000000000000000005f52601260045260245ffd5b5f61104582610e73565b915061105083610e73565b9250826110605761105f61100e565b5b828204905092915050565b5f61107582610e73565b915061108083610e73565b925082820190508082111561109857611097610f6d565b5b92915050565b5f82825260208201905092915050565b7f43616e6e6f74207769746864726177207a65726f0000000000000000000000005f82015250565b5f6110e260148361109e565b91506110ed826110ae565b602082019050919050565b5f6020820190508181035f83015261110f816110d6565b9050919050565b7f496e73756666696369656e742062616c616e63650000000000000000000000005f82015250565b5f61114a60148361109e565b915061115582611116565b602082019050919050565b5f6020820190508181035f8301526111778161113e565b9050919050565b61118781610e0d565b82525050565b5f6040820190506111a05f83018561117e565b6111ad6020830184610e7c565b9392505050565b5f8115159050919050565b6111c8816111b4565b81146111d2575f5ffd5b50565b5f815190506111e3816111bf565b92915050565b5f602082840312156111fe576111fd610dea565b5b5f61120b848285016111d5565b91505092915050565b7f43616e6e6f74207374616b65207a65726f0000000000000000000000000000005f82015250565b5f61124860118361109e565b915061125382611214565b602082019050919050565b5f6020820190508181035f8301526112758161123c565b9050919050565b5f60608201905061128f5f83018661117e565b61129c602083018561117e565b6112a96040830184610e7c565b949350505050565b7f4e6f2072657761726473000000000000000000000000000000000000000000005f82015250565b5f6112e5600a8361109e565b91506112f0826112b1565b602082019050919050565b5f6020820190508181035f830152611312816112d9565b9050919050565b7f5265656e7472616e637947756172643a207265656e7472616e742063616c6c005f82015250565b5f61134d601f8361109e565b915061135882611319565b602082019050919050565b5f6020820190508181035f83015261137a81611341565b905091905056fea2646970667358221220e867a1c9d6091b1fa6d705604ca2ed28432251ef8e0f55b8dc0aed7aea7a69d164736f6c634300081e0033",
					"opcodes": "PUSH1 0x80 PUSH1 0x40 MSTORE CALLVALUE DUP1 ISZERO PUSH2 0xF JUMPI PUSH0 PUSH0 REVERT JUMPDEST POP PUSH1 0x40 MLOAD PUSH2 0x1573 CODESIZE SUB DUP1 PUSH2 0x1573 DUP4 CODECOPY DUP2 DUP2 ADD PUSH1 0x40 MSTORE DUP2 ADD SWAP1 PUSH2 0x31 SWAP2 SWAP1 PUSH2 0x15F JUMP JUMPDEST PUSH1 0x1 PUSH0 DUP2 SWAP1 SSTORE POP DUP3 PUSH1 0x1 PUSH0 PUSH2 0x100 EXP DUP2 SLOAD DUP2 PUSH20 0xFFFFFFFFFFFFFFFFFFFFFFFFFFFFFFFFFFFFFFFF MUL NOT AND SWAP1 DUP4 PUSH20 0xFFFFFFFFFFFFFFFFFFFFFFFFFFFFFFFFFFFFFFFF AND MUL OR SWAP1 SSTORE POP DUP2 PUSH1 0x2 PUSH0 PUSH2 0x100 EXP DUP2 SLOAD DUP2 PUSH20 0xFFFFFFFFFFFFFFFFFFFFFFFFFFFFFFFFFFFFFFFF MUL NOT AND SWAP1 DUP4 PUSH20 0xFFFFFFFFFFFFFFFFFFFFFFFFFFFFFFFFFFFFFFFF AND MUL OR SWAP1 SSTORE POP DUP1 PUSH1 0x3 DUP2 SWAP1 SSTORE POP TIMESTAMP PUSH1 0x5 DUP2 SWAP1 SSTORE POP POP POP POP PUSH2 0x1AF JUMP JUMPDEST PUSH0 PUSH0 REVERT JUMPDEST PUSH0 PUSH20 0xFFFFFFFFFFFFFFFFFFFFFFFFFFFFFFFFFFFFFFFF DUP3 AND SWAP1 POP SWAP2 SWAP1 POP JUMP JUMPDEST PUSH0 PUSH2 0xFB DUP3 PUSH2 0xD2 JUMP JUMPDEST SWAP1 POP SWAP2 SWAP1 POP JUMP JUMPDEST PUSH2 0x10B DUP2 PUSH2 0xF1 JUMP JUMPDEST DUP2 EQ PUSH2 0x115 JUMPI PUSH0 PUSH0 REVERT JUMPDEST POP JUMP JUMPDEST PUSH0 DUP2 MLOAD SWAP1 POP PUSH2 0x126 DUP2 PUSH2 0x102 JUMP JUMPDEST SWAP3 SWAP2 POP POP JUMP JUMPDEST PUSH0 DUP2 SWAP1 POP SWAP2 SWAP1 POP JUMP JUMPDEST PUSH2 0x13E DUP2 PUSH2 0x12C JUMP JUMPDEST DUP2 EQ PUSH2 0x148 JUMPI PUSH0 PUSH0 REVERT JUMPDEST POP JUMP JUMPDEST PUSH0 DUP2 MLOAD SWAP1 POP PUSH2 0x159 DUP2 PUSH2 0x135 JUMP JUMPDEST SWAP3 SWAP2 POP POP JUMP JUMPDEST PUSH0 PUSH0 PUSH0 PUSH1 0x60 DUP5 DUP7 SUB SLT ISZERO PUSH2 0x176 JUMPI PUSH2 0x175 PUSH2 0xCE JUMP JUMPDEST JUMPDEST PUSH0 PUSH2 0x183 DUP7 DUP3 DUP8 ADD PUSH2 0x118 JUMP JUMPDEST SWAP4 POP POP PUSH1 0x20 PUSH2 0x194 DUP7 DUP3 DUP8 ADD PUSH2 0x118 JUMP JUMPDEST SWAP3 POP POP PUSH1 0x40 PUSH2 0x1A5 DUP7 DUP3 DUP8 ADD PUSH2 0x14B JUMP JUMPDEST SWAP2 POP POP SWAP3 POP SWAP3 POP SWAP3 JUMP JUMPDEST PUSH2 0x13B7 DUP1 PUSH2 0x1BC PUSH0 CODECOPY PUSH0 RETURN INVALID PUSH1 0x80 PUSH1 0x40 MSTORE CALLVALUE DUP1 ISZERO PUSH2 0xF JUMPI PUSH0 PUSH0 REVERT JUMPDEST POP PUSH1 0x4 CALLDATASIZE LT PUSH2 0xFD JUMPI PUSH0 CALLDATALOAD PUSH1 0xE0 SHR DUP1 PUSH4 0x8B876347 GT PUSH2 0x95 JUMPI DUP1 PUSH4 0xCD3DAF9D GT PUSH2 0x64 JUMPI DUP1 PUSH4 0xCD3DAF9D EQ PUSH2 0x299 JUMPI DUP1 PUSH4 0xDF136D65 EQ PUSH2 0x2B7 JUMPI DUP1 PUSH4 0xE9FAD8EE EQ PUSH2 0x2D5 JUMPI DUP1 PUSH4 0xF7C618C1 EQ PUSH2 0x2DF JUMPI PUSH2 0xFD JUMP JUMPDEST DUP1 PUSH4 0x8B876347 EQ PUSH2 0x225 JUMPI DUP1 PUSH4 0xA694FC3A EQ PUSH2 0x255 JUMPI DUP1 PUSH4 0xB88A802F EQ PUSH2 0x271 JUMPI DUP1 PUSH4 0xC8F33C91 EQ PUSH2 0x27B JUMPI PUSH2 0xFD JUMP JUMPDEST DUP1 PUSH4 0x72F702F3 GT PUSH2 0xD1 JUMPI DUP1 PUSH4 0x72F702F3 EQ PUSH2 0x1AD JUMPI DUP1 PUSH4 0x7B0A47EE EQ PUSH2 0x1CB JUMPI DUP1 PUSH4 0x80FAA57D EQ PUSH2 0x1E9 JUMPI DUP1 PUSH4 0x817B1CD2 EQ PUSH2 0x207 JUMPI PUSH2 0xFD JUMP JUMPDEST DUP1 PUSH3 0x8CC262 EQ PUSH2 0x101 JUMPI DUP1 PUSH4 0x700037D EQ PUSH2 0x131 JUMPI DUP1 PUSH4 0x27E235E3 EQ PUSH2 0x161 JUMPI DUP1 PUSH4 0x2E1A7D4D EQ PUSH2 0x191 JUMPI JUMPDEST PUSH0 PUSH0 REVERT JUMPDEST PUSH2 0x11B PUSH1 0x4 DUP1 CALLDATASIZE SUB DUP2 ADD SWAP1 PUSH2 0x116 SWAP2 SWAP1 PUSH2 0xE48 JUMP JUMPDEST PUSH2 0x2FD JUMP JUMPDEST PUSH1 0x40 MLOAD PUSH2 0x128 SWAP2 SWAP1 PUSH2 0xE8B JUMP JUMPDEST PUSH1 0x40 MLOAD DUP1 SWAP2 SUB SWAP1 RETURN JUMPDEST PUSH2 0x14B PUSH1 0x4 DUP1 CALLDATASIZE SUB DUP2 ADD SWAP1 PUSH2 0x146 SWAP2 SWAP1 PUSH2 0xE48 JUMP JUMPDEST PUSH2 0x3F8 JUMP JUMPDEST PUSH1 0x40 MLOAD PUSH2 0x158 SWAP2 SWAP1 PUSH2 0xE8B JUMP JUMPDEST PUSH1 0x40 MLOAD DUP1 SWAP2 SUB SWAP1 RETURN JUMPDEST PUSH2 0x17B PUSH1 0x4 DUP1 CALLDATASIZE SUB DUP2 ADD SWAP1 PUSH2 0x176 SWAP2 SWAP1 PUSH2 0xE48 JUMP JUMPDEST PUSH2 0x40D JUMP JUMPDEST PUSH1 0x40 MLOAD PUSH2 0x188 SWAP2 SWAP1 PUSH2 0xE8B JUMP JUMPDEST PUSH1 0x40 MLOAD DUP1 SWAP2 SUB SWAP1 RETURN JUMPDEST PUSH2 0x1AB PUSH1 0x4 DUP1 CALLDATASIZE SUB DUP2 ADD SWAP1 PUSH2 0x1A6 SWAP2 SWAP1 PUSH2 0xECE JUMP JUMPDEST PUSH2 0x422 JUMP JUMPDEST STOP JUMPDEST PUSH2 0x1B5 PUSH2 0x72D JUMP JUMPDEST PUSH1 0x40 MLOAD PUSH2 0x1C2 SWAP2 SWAP1 PUSH2 0xF54 JUMP JUMPDEST PUSH1 0x40 MLOAD DUP1 SWAP2 SUB SWAP1 RETURN JUMPDEST PUSH2 0x1D3 PUSH2 0x752 JUMP JUMPDEST PUSH1 0x40 MLOAD PUSH2 0x1E0 SWAP2 SWAP1 PUSH2 0xE8B JUMP JUMPDEST PUSH1 0x40 MLOAD DUP1 SWAP2 SUB SWAP1 RETURN JUMPDEST PUSH2 0x1F1 PUSH2 0x758 JUMP JUMPDEST PUSH1 0x40 MLOAD PUSH2 0x1FE SWAP2 SWAP1 PUSH2 0xE8B JUMP JUMPDEST PUSH1 0x40 MLOAD DUP1 SWAP2 SUB SWAP1 RETURN JUMPDEST PUSH2 0x20F PUSH2 0x75F JUMP JUMPDEST PUSH1 0x40 MLOAD PUSH2 0x21C SWAP2 SWAP1 PUSH2 0xE8B JUMP JUMPDEST PUSH1 0x40 MLOAD DUP1 SWAP2 SUB SWAP1 RETURN JUMPDEST PUSH2 0x23F PUSH1 0x4 DUP1 CALLDATASIZE SUB DUP2 ADD SWAP1 PUSH2 0x23A SWAP2 SWAP1 PUSH2 0xE48 JUMP JUMPDEST PUSH2 0x765 JUMP JUMPDEST PUSH1 0x40 MLOAD PUSH2 0x24C SWAP2 SWAP1 PUSH2 0xE8B JUMP JUMPDEST PUSH1 0x40 MLOAD DUP1 SWAP2 SUB SWAP1 RETURN JUMPDEST PUSH2 0x26F PUSH1 0x4 DUP1 CALLDATASIZE SUB DUP2 ADD SWAP1 PUSH2 0x26A SWAP2 SWAP1 PUSH2 0xECE JUMP JUMPDEST PUSH2 0x77A JUMP JUMPDEST STOP JUMPDEST PUSH2 0x279 PUSH2 0xA07 JUMP JUMPDEST STOP JUMPDEST PUSH2 0x283 PUSH2 0xCAA JUMP JUMPDEST PUSH1 0x40 MLOAD PUSH2 0x290 SWAP2 SWAP1 PUSH2 0xE8B JUMP JUMPDEST PUSH1 0x40 MLOAD DUP1 SWAP2 SUB SWAP1 RETURN JUMPDEST PUSH2 0x2A1 PUSH2 0xCB0 JUMP JUMPDEST PUSH1 0x40 MLOAD PUSH2 0x2AE SWAP2 SWAP1 PUSH2 0xE8B JUMP JUMPDEST PUSH1 0x40 MLOAD DUP1 SWAP2 SUB SWAP1 RETURN JUMPDEST PUSH2 0x2BF PUSH2 0xD19 JUMP JUMPDEST PUSH1 0x40 MLOAD PUSH2 0x2CC SWAP2 SWAP1 PUSH2 0xE8B JUMP JUMPDEST PUSH1 0x40 MLOAD DUP1 SWAP2 SUB SWAP1 RETURN JUMPDEST PUSH2 0x2DD PUSH2 0xD1F JUMP JUMPDEST STOP JUMPDEST PUSH2 0x2E7 PUSH2 0xD6F JUMP JUMPDEST PUSH1 0x40 MLOAD PUSH2 0x2F4 SWAP2 SWAP1 PUSH2 0xF54 JUMP JUMPDEST PUSH1 0x40 MLOAD DUP1 SWAP2 SUB SWAP1 RETURN JUMPDEST PUSH0 PUSH1 0x9 PUSH0 DUP4 PUSH20 0xFFFFFFFFFFFFFFFFFFFFFFFFFFFFFFFFFFFFFFFF AND PUSH20 0xFFFFFFFFFFFFFFFFFFFFFFFFFFFFFFFFFFFFFFFF AND DUP2 MSTORE PUSH1 0x20 ADD SWAP1 DUP2 MSTORE PUSH1 0x20 ADD PUSH0 KECCAK256 SLOAD PUSH8 0xDE0B6B3A7640000 PUSH1 0x8 PUSH0 DUP6 PUSH20 0xFFFFFFFFFFFFFFFFFFFFFFFFFFFFFFFFFFFFFFFF AND PUSH20 0xFFFFFFFFFFFFFFFFFFFFFFFFFFFFFFFFFFFFFFFF AND DUP2 MSTORE PUSH1 0x20 ADD SWAP1 DUP2 MSTORE PUSH1 0x20 ADD PUSH0 KECCAK256 SLOAD PUSH2 0x38B PUSH2 0xCB0 JUMP JUMPDEST PUSH2 0x395 SWAP2 SWAP1 PUSH2 0xF9A JUMP JUMPDEST PUSH1 0x7 PUSH0 DUP7 PUSH20 0xFFFFFFFFFFFFFFFFFFFFFFFFFFFFFFFFFFFFFFFF AND PUSH20 0xFFFFFFFFFFFFFFFFFFFFFFFFFFFFFFFFFFFFFFFF AND DUP2 MSTORE PUSH1 0x20 ADD SWAP1 DUP2 MSTORE PUSH1 0x20 ADD PUSH0 KECCAK256 SLOAD PUSH2 0x3DD SWAP2 SWAP1 PUSH2 0xFCD JUMP JUMPDEST PUSH2 0x3E7 SWAP2 SWAP1 PUSH2 0x103B JUMP JUMPDEST PUSH2 0x3F1 SWAP2 SWAP1 PUSH2 0x106B JUMP JUMPDEST SWAP1 POP SWAP2 SWAP1 POP JUMP JUMPDEST PUSH1 0x9 PUSH1 0x20 MSTORE DUP1 PUSH0 MSTORE PUSH1 0x40 PUSH0 KECCAK256 PUSH0 SWAP2 POP SWAP1 POP SLOAD DUP2 JUMP JUMPDEST PUSH1 0x7 PUSH1 0x20 MSTORE DUP1 PUSH0 MSTORE PUSH1 0x40 PUSH0 KECCAK256 PUSH0 SWAP2 POP SWAP1 POP SLOAD DUP2 JUMP JUMPDEST PUSH2 0x42A PUSH2 0xD94 JUMP JUMPDEST CALLER PUSH2 0x433 PUSH2 0xCB0 JUMP JUMPDEST PUSH1 0x6 DUP2 SWAP1 SSTORE POP PUSH2 0x441 PUSH2 0x758 JUMP JUMPDEST PUSH1 0x5 DUP2 SWAP1 SSTORE POP PUSH0 PUSH20 0xFFFFFFFFFFFFFFFFFFFFFFFFFFFFFFFFFFFFFFFF AND DUP2 PUSH20 0xFFFFFFFFFFFFFFFFFFFFFFFFFFFFFFFFFFFFFFFF AND EQ PUSH2 0x509 JUMPI PUSH2 0x483 DUP2 PUSH2 0x2FD JUMP JUMPDEST PUSH1 0x9 PUSH0 DUP4 PUSH20 0xFFFFFFFFFFFFFFFFFFFFFFFFFFFFFFFFFFFFFFFF AND PUSH20 0xFFFFFFFFFFFFFFFFFFFFFFFFFFFFFFFFFFFFFFFF AND DUP2 MSTORE PUSH1 0x20 ADD SWAP1 DUP2 MSTORE PUSH1 0x20 ADD PUSH0 KECCAK256 DUP2 SWAP1 SSTORE POP PUSH1 0x6 SLOAD PUSH1 0x8 PUSH0 DUP4 PUSH20 0xFFFFFFFFFFFFFFFFFFFFFFFFFFFFFFFFFFFFFFFF AND PUSH20 0xFFFFFFFFFFFFFFFFFFFFFFFFFFFFFFFFFFFFFFFF AND DUP2 MSTORE PUSH1 0x20 ADD SWAP1 DUP2 MSTORE PUSH1 0x20 ADD PUSH0 KECCAK256 DUP2 SWAP1 SSTORE POP JUMPDEST PUSH0 DUP3 GT PUSH2 0x54B JUMPI PUSH1 0x40 MLOAD PUSH32 0x8C379A000000000000000000000000000000000000000000000000000000000 DUP2 MSTORE PUSH1 0x4 ADD PUSH2 0x542 SWAP1 PUSH2 0x10F8 JUMP JUMPDEST PUSH1 0x40 MLOAD DUP1 SWAP2 SUB SWAP1 REVERT JUMPDEST DUP2 PUSH1 0x7 PUSH0 CALLER PUSH20 0xFFFFFFFFFFFFFFFFFFFFFFFFFFFFFFFFFFFFFFFF AND PUSH20 0xFFFFFFFFFFFFFFFFFFFFFFFFFFFFFFFFFFFFFFFF AND DUP2 MSTORE PUSH1 0x20 ADD SWAP1 DUP2 MSTORE PUSH1 0x20 ADD PUSH0 KECCAK256 SLOAD LT ISZERO PUSH2 0x5CB JUMPI PUSH1 0x40 MLOAD PUSH32 0x8C379A000000000000000000000000000000000000000000000000000000000 DUP2 MSTORE PUSH1 0x4 ADD PUSH2 0x5C2 SWAP1 PUSH2 0x1160 JUMP JUMPDEST PUSH1 0x40 MLOAD DUP1 SWAP2 SUB SWAP1 REVERT JUMPDEST DUP2 PUSH1 0x4 PUSH0 DUP3 DUP3 SLOAD PUSH2 0x5DC SWAP2 SWAP1 PUSH2 0xF9A JUMP JUMPDEST SWAP3 POP POP DUP2 SWAP1 SSTORE POP DUP2 PUSH1 0x7 PUSH0 CALLER PUSH20 0xFFFFFFFFFFFFFFFFFFFFFFFFFFFFFFFFFFFFFFFF AND PUSH20 0xFFFFFFFFFFFFFFFFFFFFFFFFFFFFFFFFFFFFFFFF AND DUP2 MSTORE PUSH1 0x20 ADD SWAP1 DUP2 MSTORE PUSH1 0x20 ADD PUSH0 KECCAK256 PUSH0 DUP3 DUP3 SLOAD PUSH2 0x62F SWAP2 SWAP1 PUSH2 0xF9A JUMP JUMPDEST SWAP3 POP POP DUP2 SWAP1 SSTORE POP PUSH1 0x1 PUSH0 SWAP1 SLOAD SWAP1 PUSH2 0x100 EXP SWAP1 DIV PUSH20 0xFFFFFFFFFFFFFFFFFFFFFFFFFFFFFFFFFFFFFFFF AND PUSH20 0xFFFFFFFFFFFFFFFFFFFFFFFFFFFFFFFFFFFFFFFF AND PUSH4 0xA9059CBB CALLER DUP5 PUSH1 0x40 MLOAD DUP4 PUSH4 0xFFFFFFFF AND PUSH1 0xE0 SHL DUP2 MSTORE PUSH1 0x4 ADD PUSH2 0x692 SWAP3 SWAP2 SWAP1 PUSH2 0x118D JUMP JUMPDEST PUSH1 0x20 PUSH1 0x40 MLOAD DUP1 DUP4 SUB DUP2 PUSH0 DUP8 GAS CALL ISZERO DUP1 ISZERO PUSH2 0x6AE JUMPI RETURNDATASIZE PUSH0 PUSH0 RETURNDATACOPY RETURNDATASIZE PUSH0 REVERT JUMPDEST POP POP POP POP PUSH1 0x40 MLOAD RETURNDATASIZE PUSH1 0x1F NOT PUSH1 0x1F DUP3 ADD AND DUP3 ADD DUP1 PUSH1 0x40 MSTORE POP DUP2 ADD SWAP1 PUSH2 0x6D2 SWAP2 SWAP1 PUSH2 0x11E9 JUMP JUMPDEST POP CALLER PUSH20 0xFFFFFFFFFFFFFFFFFFFFFFFFFFFFFFFFFFFFFFFF AND PUSH32 0x7084F5476618D8E60B11EF0D7D3F06914655ADB8793E28FF7F018D4C76D505D5 DUP4 PUSH1 0x40 MLOAD PUSH2 0x719 SWAP2 SWAP1 PUSH2 0xE8B JUMP JUMPDEST PUSH1 0x40 MLOAD DUP1 SWAP2 SUB SWAP1 LOG2 POP PUSH2 0x72A PUSH2 0xDE1 JUMP JUMPDEST POP JUMP JUMPDEST PUSH1 0x1 PUSH0 SWAP1 SLOAD SWAP1 PUSH2 0x100 EXP SWAP1 DIV PUSH20 0xFFFFFFFFFFFFFFFFFFFFFFFFFFFFFFFFFFFFFFFF AND DUP2 JUMP JUMPDEST PUSH1 0x3 SLOAD DUP2 JUMP JUMPDEST PUSH0 TIMESTAMP SWAP1 POP SWAP1 JUMP JUMPDEST PUSH1 0x4 SLOAD DUP2 JUMP JUMPDEST PUSH1 0x8 PUSH1 0x20 MSTORE DUP1 PUSH0 MSTORE PUSH1 0x40 PUSH0 KECCAK256 PUSH0 SWAP2 POP SWAP1 POP SLOAD DUP2 JUMP JUMPDEST PUSH2 0x782 PUSH2 0xD94 JUMP JUMPDEST CALLER PUSH2 0x78B PUSH2 0xCB0 JUMP JUMPDEST PUSH1 0x6 DUP2 SWAP1 SSTORE POP PUSH2 0x799 PUSH2 0x758 JUMP JUMPDEST PUSH1 0x5 DUP2 SWAP1 SSTORE POP PUSH0 PUSH20 0xFFFFFFFFFFFFFFFFFFFFFFFFFFFFFFFFFFFFFFFF AND DUP2 PUSH20 0xFFFFFFFFFFFFFFFFFFFFFFFFFFFFFFFFFFFFFFFF AND EQ PUSH2 0x861 JUMPI PUSH2 0x7DB DUP2 PUSH2 0x2FD JUMP JUMPDEST PUSH1 0x9 PUSH0 DUP4 PUSH20 0xFFFFFFFFFFFFFFFFFFFFFFFFFFFFFFFFFFFFFFFF AND PUSH20 0xFFFFFFFFFFFFFFFFFFFFFFFFFFFFFFFFFFFFFFFF AND DUP2 MSTORE PUSH1 0x20 ADD SWAP1 DUP2 MSTORE PUSH1 0x20 ADD PUSH0 KECCAK256 DUP2 SWAP1 SSTORE POP PUSH1 0x6 SLOAD PUSH1 0x8 PUSH0 DUP4 PUSH20 0xFFFFFFFFFFFFFFFFFFFFFFFFFFFFFFFFFFFFFFFF AND PUSH20 0xFFFFFFFFFFFFFFFFFFFFFFFFFFFFFFFFFFFFFFFF AND DUP2 MSTORE PUSH1 0x20 ADD SWAP1 DUP2 MSTORE PUSH1 0x20 ADD PUSH0 KECCAK256 DUP2 SWAP1 SSTORE POP JUMPDEST PUSH0 DUP3 GT PUSH2 0x8A3 JUMPI PUSH1 0x40 MLOAD PUSH32 0x8C379A000000000000000000000000000000000000000000000000000000000 DUP2 MSTORE PUSH1 0x4 ADD PUSH2 0x89A SWAP1 PUSH2 0x125E JUMP JUMPDEST PUSH1 0x40 MLOAD DUP1 SWAP2 SUB SWAP1 REVERT JUMPDEST DUP2 PUSH1 0x4 PUSH0 DUP3 DUP3 SLOAD PUSH2 0x8B4 SWAP2 SWAP1 PUSH2 0x106B JUMP JUMPDEST SWAP3 POP POP DUP2 SWAP1 SSTORE POP DUP2 PUSH1 0x7 PUSH0 CALLER PUSH20 0xFFFFFFFFFFFFFFFFFFFFFFFFFFFFFFFFFFFFFFFF AND PUSH20 0xFFFFFFFFFFFFFFFFFFFFFFFFFFFFFFFFFFFFFFFF AND DUP2 MSTORE PUSH1 0x20 ADD SWAP1 DUP2 MSTORE PUSH1 0x20 ADD PUSH0 KECCAK256 PUSH0 DUP3 DUP3 SLOAD PUSH2 0x907 SWAP2 SWAP1 PUSH2 0x106B JUMP JUMPDEST SWAP3 POP POP DUP2 SWAP1 SSTORE POP PUSH1 0x1 PUSH0 SWAP1 SLOAD SWAP1 PUSH2 0x100 EXP SWAP1 DIV PUSH20 0xFFFFFFFFFFFFFFFFFFFFFFFFFFFFFFFFFFFFFFFF AND PUSH20 0xFFFFFFFFFFFFFFFFFFFFFFFFFFFFFFFFFFFFFFFF AND PUSH4 0x23B872DD CALLER ADDRESS DUP6 PUSH1 0x40 MLOAD DUP5 PUSH4 0xFFFFFFFF AND PUSH1 0xE0 SHL DUP2 MSTORE PUSH1 0x4 ADD PUSH2 0x96C SWAP4 SWAP3 SWAP2 SWAP1 PUSH2 0x127C JUMP JUMPDEST PUSH1 0x20 PUSH1 0x40 MLOAD DUP1 DUP4 SUB DUP2 PUSH0 DUP8 GAS CALL ISZERO DUP1 ISZERO PUSH2 0x988 JUMPI RETURNDATASIZE PUSH0 PUSH0 RETURNDATACOPY RETURNDATASIZE PUSH0 REVERT JUMPDEST POP POP POP POP PUSH1 0x40 MLOAD RETURNDATASIZE PUSH1 0x1F NOT PUSH1 0x1F DUP3 ADD AND DUP3 ADD DUP1 PUSH1 0x40 MSTORE POP DUP2 ADD SWAP1 PUSH2 0x9AC SWAP2 SWAP1 PUSH2 0x11E9 JUMP JUMPDEST POP CALLER PUSH20 0xFFFFFFFFFFFFFFFFFFFFFFFFFFFFFFFFFFFFFFFF AND PUSH32 0x9E71BC8EEA02A63969F509818F2DAFB9254532904319F9DBDA79B67BD34A5F3D DUP4 PUSH1 0x40 MLOAD PUSH2 0x9F3 SWAP2 SWAP1 PUSH2 0xE8B JUMP JUMPDEST PUSH1 0x40 MLOAD DUP1 SWAP2 SUB SWAP1 LOG2 POP PUSH2 0xA04 PUSH2 0xDE1 JUMP JUMPDEST POP JUMP JUMPDEST PUSH2 0xA0F PUSH2 0xD94 JUMP JUMPDEST CALLER PUSH2 0xA18 PUSH2 0xCB0 JUMP JUMPDEST PUSH1 0x6 DUP2 SWAP1 SSTORE POP PUSH2 0xA26 PUSH2 0x758 JUMP JUMPDEST PUSH1 0x5 DUP2 SWAP1 SSTORE POP PUSH0 PUSH20 0xFFFFFFFFFFFFFFFFFFFFFFFFFFFFFFFFFFFFFFFF AND DUP2 PUSH20 0xFFFFFFFFFFFFFFFFFFFFFFFFFFFFFFFFFFFFFFFF AND EQ PUSH2 0xAEE JUMPI PUSH2 0xA68 DUP2 PUSH2 0x2FD JUMP JUMPDEST PUSH1 0x9 PUSH0 DUP4 PUSH20 0xFFFFFFFFFFFFFFFFFFFFFFFFFFFFFFFFFFFFFFFF AND PUSH20 0xFFFFFFFFFFFFFFFFFFFFFFFFFFFFFFFFFFFFFFFF AND DUP2 MSTORE PUSH1 0x20 ADD SWAP1 DUP2 MSTORE PUSH1 0x20 ADD PUSH0 KECCAK256 DUP2 SWAP1 SSTORE POP PUSH1 0x6 SLOAD PUSH1 0x8 PUSH0 DUP4 PUSH20 0xFFFFFFFFFFFFFFFFFFFFFFFFFFFFFFFFFFFFFFFF AND PUSH20 0xFFFFFFFFFFFFFFFFFFFFFFFFFFFFFFFFFFFFFFFF AND DUP2 MSTORE PUSH1 0x20 ADD SWAP1 DUP2 MSTORE PUSH1 0x20 ADD PUSH0 KECCAK256 DUP2 SWAP1 SSTORE POP JUMPDEST PUSH0 PUSH1 0x9 PUSH0 CALLER PUSH20 0xFFFFFFFFFFFFFFFFFFFFFFFFFFFFFFFFFFFFFFFF AND PUSH20 0xFFFFFFFFFFFFFFFFFFFFFFFFFFFFFFFFFFFFFFFF AND DUP2 MSTORE PUSH1 0x20 ADD SWAP1 DUP2 MSTORE PUSH1 0x20 ADD PUSH0 KECCAK256 SLOAD SWAP1 POP PUSH0 DUP2 GT PUSH2 0xB71 JUMPI PUSH1 0x40 MLOAD PUSH32 0x8C379A000000000000000000000000000000000000000000000000000000000 DUP2 MSTORE PUSH1 0x4 ADD PUSH2 0xB68 SWAP1 PUSH2 0x12FB JUMP JUMPDEST PUSH1 0x40 MLOAD DUP1 SWAP2 SUB SWAP1 REVERT JUMPDEST PUSH0 PUSH1 0x9 PUSH0 CALLER PUSH20 0xFFFFFFFFFFFFFFFFFFFFFFFFFFFFFFFFFFFFFFFF AND PUSH20 0xFFFFFFFFFFFFFFFFFFFFFFFFFFFFFFFFFFFFFFFF AND DUP2 MSTORE PUSH1 0x20 ADD SWAP1 DUP2 MSTORE PUSH1 0x20 ADD PUSH0 KECCAK256 DUP2 SWAP1 SSTORE POP PUSH1 0x2 PUSH0 SWAP1 SLOAD SWAP1 PUSH2 0x100 EXP SWAP1 DIV PUSH20 0xFFFFFFFFFFFFFFFFFFFFFFFFFFFFFFFFFFFFFFFF AND PUSH20 0xFFFFFFFFFFFFFFFFFFFFFFFFFFFFFFFFFFFFFFFF AND PUSH4 0xA9059CBB CALLER DUP4 PUSH1 0x40 MLOAD DUP4 PUSH4 0xFFFFFFFF AND PUSH1 0xE0 SHL DUP2 MSTORE PUSH1 0x4 ADD PUSH2 0xC0F SWAP3 SWAP2 SWAP1 PUSH2 0x118D JUMP JUMPDEST PUSH1 0x20 PUSH1 0x40 MLOAD DUP1 DUP4 SUB DUP2 PUSH0 DUP8 GAS CALL ISZERO DUP1 ISZERO PUSH2 0xC2B JUMPI RETURNDATASIZE PUSH0 PUSH0 RETURNDATACOPY RETURNDATASIZE PUSH0 REVERT JUMPDEST POP POP POP POP PUSH1 0x40 MLOAD RETURNDATASIZE PUSH1 0x1F NOT PUSH1 0x1F DUP3 ADD AND DUP3 ADD DUP1 PUSH1 0x40 MSTORE POP DUP2 ADD SWAP1 PUSH2 0xC4F SWAP2 SWAP1 PUSH2 0x11E9 JUMP JUMPDEST POP CALLER PUSH20 0xFFFFFFFFFFFFFFFFFFFFFFFFFFFFFFFFFFFFFFFF AND PUSH32 0xE2403640BA68FED3A2F88B7557551D1993F84B99BB10FF833F0CF8DB0C5E0486 DUP3 PUSH1 0x40 MLOAD PUSH2 0xC96 SWAP2 SWAP1 PUSH2 0xE8B JUMP JUMPDEST PUSH1 0x40 MLOAD DUP1 SWAP2 SUB SWAP1 LOG2 POP POP PUSH2 0xCA8 PUSH2 0xDE1 JUMP JUMPDEST JUMP JUMPDEST PUSH1 0x5 SLOAD DUP2 JUMP JUMPDEST PUSH0 PUSH0 PUSH1 0x4 SLOAD SUB PUSH2 0xCC4 JUMPI PUSH1 0x6 SLOAD SWAP1 POP PUSH2 0xD16 JUMP JUMPDEST PUSH1 0x4 SLOAD PUSH8 0xDE0B6B3A7640000 PUSH1 0x3 SLOAD PUSH1 0x5 SLOAD PUSH2 0xCDE PUSH2 0x758 JUMP JUMPDEST PUSH2 0xCE8 SWAP2 SWAP1 PUSH2 0xF9A JUMP JUMPDEST PUSH2 0xCF2 SWAP2 SWAP1 PUSH2 0xFCD JUMP JUMPDEST PUSH2 0xCFC SWAP2 SWAP1 PUSH2 0xFCD JUMP JUMPDEST PUSH2 0xD06 SWAP2 SWAP1 PUSH2 0x103B JUMP JUMPDEST PUSH1 0x6 SLOAD PUSH2 0xD13 SWAP2 SWAP1 PUSH2 0x106B JUMP JUMPDEST SWAP1 POP JUMPDEST SWAP1 JUMP JUMPDEST PUSH1 0x6 SLOAD DUP2 JUMP JUMPDEST PUSH2 0xD65 PUSH1 0x7 PUSH0 CALLER PUSH20 0xFFFFFFFFFFFFFFFFFFFFFFFFFFFFFFFFFFFFFFFF AND PUSH20 0xFFFFFFFFFFFFFFFFFFFFFFFFFFFFFFFFFFFFFFFF AND DUP2 MSTORE PUSH1 0x20 ADD SWAP1 DUP2 MSTORE PUSH1 0x20 ADD PUSH0 KECCAK256 SLOAD PUSH2 0x422 JUMP JUMPDEST PUSH2 0xD6D PUSH2 0xA07 JUMP JUMPDEST JUMP JUMPDEST PUSH1 0x2 PUSH0 SWAP1 SLOAD SWAP1 PUSH2 0x100 EXP SWAP1 DIV PUSH20 0xFFFFFFFFFFFFFFFFFFFFFFFFFFFFFFFFFFFFFFFF AND DUP2 JUMP JUMPDEST PUSH1 0x2 PUSH0 SLOAD SUB PUSH2 0xDD8 JUMPI PUSH1 0x40 MLOAD PUSH32 0x8C379A000000000000000000000000000000000000000000000000000000000 DUP2 MSTORE PUSH1 0x4 ADD PUSH2 0xDCF SWAP1 PUSH2 0x1363 JUMP JUMPDEST PUSH1 0x40 MLOAD DUP1 SWAP2 SUB SWAP1 REVERT JUMPDEST PUSH1 0x2 PUSH0 DUP2 SWAP1 SSTORE POP JUMP JUMPDEST PUSH1 0x1 PUSH0 DUP2 SWAP1 SSTORE POP JUMP JUMPDEST PUSH0 PUSH0 REVERT JUMPDEST PUSH0 PUSH20 0xFFFFFFFFFFFFFFFFFFFFFFFFFFFFFFFFFFFFFFFF DUP3 AND SWAP1 POP SWAP2 SWAP1 POP JUMP JUMPDEST PUSH0 PUSH2 0xE17 DUP3 PUSH2 0xDEE JUMP JUMPDEST SWAP1 POP SWAP2 SWAP1 POP JUMP JUMPDEST PUSH2 0xE27 DUP2 PUSH2 0xE0D JUMP JUMPDEST DUP2 EQ PUSH2 0xE31 JUMPI PUSH0 PUSH0 REVERT JUMPDEST POP JUMP JUMPDEST PUSH0 DUP2 CALLDATALOAD SWAP1 POP PUSH2 0xE42 DUP2 PUSH2 0xE1E JUMP JUMPDEST SWAP3 SWAP2 POP POP JUMP JUMPDEST PUSH0 PUSH1 0x20 DUP3 DUP5 SUB SLT ISZERO PUSH2 0xE5D JUMPI PUSH2 0xE5C PUSH2 0xDEA JUMP JUMPDEST JUMPDEST PUSH0 PUSH2 0xE6A DUP5 DUP3 DUP6 ADD PUSH2 0xE34 JUMP JUMPDEST SWAP2 POP POP SWAP3 SWAP2 POP POP JUMP JUMPDEST PUSH0 DUP2 SWAP1 POP SWAP2 SWAP1 POP JUMP JUMPDEST PUSH2 0xE85 DUP2 PUSH2 0xE73 JUMP JUMPDEST DUP3 MSTORE POP POP JUMP JUMPDEST PUSH0 PUSH1 0x20 DUP3 ADD SWAP1 POP PUSH2 0xE9E PUSH0 DUP4 ADD DUP5 PUSH2 0xE7C JUMP JUMPDEST SWAP3 SWAP2 POP POP JUMP JUMPDEST PUSH2 0xEAD DUP2 PUSH2 0xE73 JUMP JUMPDEST DUP2 EQ PUSH2 0xEB7 JUMPI PUSH0 PUSH0 REVERT JUMPDEST POP JUMP JUMPDEST PUSH0 DUP2 CALLDATALOAD SWAP1 POP PUSH2 0xEC8 DUP2 PUSH2 0xEA4 JUMP JUMPDEST SWAP3 SWAP2 POP POP JUMP JUMPDEST PUSH0 PUSH1 0x20 DUP3 DUP5 SUB SLT ISZERO PUSH2 0xEE3 JUMPI PUSH2 0xEE2 PUSH2 0xDEA JUMP JUMPDEST JUMPDEST PUSH0 PUSH2 0xEF0 DUP5 DUP3 DUP6 ADD PUSH2 0xEBA JUMP JUMPDEST SWAP2 POP POP SWAP3 SWAP2 POP POP JUMP JUMPDEST PUSH0 DUP2 SWAP1 POP SWAP2 SWAP1 POP JUMP JUMPDEST PUSH0 PUSH2 0xF1C PUSH2 0xF17 PUSH2 0xF12 DUP5 PUSH2 0xDEE JUMP JUMPDEST PUSH2 0xEF9 JUMP JUMPDEST PUSH2 0xDEE JUMP JUMPDEST SWAP1 POP SWAP2 SWAP1 POP JUMP JUMPDEST PUSH0 PUSH2 0xF2D DUP3 PUSH2 0xF02 JUMP JUMPDEST SWAP1 POP SWAP2 SWAP1 POP JUMP JUMPDEST PUSH0 PUSH2 0xF3E DUP3 PUSH2 0xF23 JUMP JUMPDEST SWAP1 POP SWAP2 SWAP1 POP JUMP JUMPDEST PUSH2 0xF4E DUP2 PUSH2 0xF34 JUMP JUMPDEST DUP3 MSTORE POP POP JUMP JUMPDEST PUSH0 PUSH1 0x20 DUP3 ADD SWAP1 POP PUSH2 0xF67 PUSH0 DUP4 ADD DUP5 PUSH2 0xF45 JUMP JUMPDEST SWAP3 SWAP2 POP POP JUMP JUMPDEST PUSH32 0x4E487B7100000000000000000000000000000000000000000000000000000000 PUSH0 MSTORE PUSH1 0x11 PUSH1 0x4 MSTORE PUSH1 0x24 PUSH0 REVERT JUMPDEST PUSH0 PUSH2 0xFA4 DUP3 PUSH2 0xE73 JUMP JUMPDEST SWAP2 POP PUSH2 0xFAF DUP4 PUSH2 0xE73 JUMP JUMPDEST SWAP3 POP DUP3 DUP3 SUB SWAP1 POP DUP2 DUP2 GT ISZERO PUSH2 0xFC7 JUMPI PUSH2 0xFC6 PUSH2 0xF6D JUMP JUMPDEST JUMPDEST SWAP3 SWAP2 POP POP JUMP JUMPDEST PUSH0 PUSH2 0xFD7 DUP3 PUSH2 0xE73 JUMP JUMPDEST SWAP2 POP PUSH2 0xFE2 DUP4 PUSH2 0xE73 JUMP JUMPDEST SWAP3 POP DUP3 DUP3 MUL PUSH2 0xFF0 DUP2 PUSH2 0xE73 JUMP JUMPDEST SWAP2 POP DUP3 DUP3 DIV DUP5 EQ DUP4 ISZERO OR PUSH2 0x1007 JUMPI PUSH2 0x1006 PUSH2 0xF6D JUMP JUMPDEST JUMPDEST POP SWAP3 SWAP2 POP POP JUMP JUMPDEST PUSH32 0x4E487B7100000000000000000000000000000000000000000000000000000000 PUSH0 MSTORE PUSH1 0x12 PUSH1 0x4 MSTORE PUSH1 0x24 PUSH0 REVERT JUMPDEST PUSH0 PUSH2 0x1045 DUP3 PUSH2 0xE73 JUMP JUMPDEST SWAP2 POP PUSH2 0x1050 DUP4 PUSH2 0xE73 JUMP JUMPDEST SWAP3 POP DUP3 PUSH2 0x1060 JUMPI PUSH2 0x105F PUSH2 0x100E JUMP JUMPDEST JUMPDEST DUP3 DUP3 DIV SWAP1 POP SWAP3 SWAP2 POP POP JUMP JUMPDEST PUSH0 PUSH2 0x1075 DUP3 PUSH2 0xE73 JUMP JUMPDEST SWAP2 POP PUSH2 0x1080 DUP4 PUSH2 0xE73 JUMP JUMPDEST SWAP3 POP DUP3 DUP3 ADD SWAP1 POP DUP1 DUP3 GT ISZERO PUSH2 0x1098 JUMPI PUSH2 0x1097 PUSH2 0xF6D JUMP JUMPDEST JUMPDEST SWAP3 SWAP2 POP POP JUMP JUMPDEST PUSH0 DUP3 DUP3 MSTORE PUSH1 0x20 DUP3 ADD SWAP1 POP SWAP3 SWAP2 POP POP JUMP JUMPDEST PUSH32 0x43616E6E6F74207769746864726177207A65726F000000000000000000000000 PUSH0 DUP3 ADD MSTORE POP JUMP JUMPDEST PUSH0 PUSH2 0x10E2 PUSH1 0x14 DUP4 PUSH2 0x109E JUMP JUMPDEST SWAP2 POP PUSH2 0x10ED DUP3 PUSH2 0x10AE JUMP JUMPDEST PUSH1 0x20 DUP3 ADD SWAP1 POP SWAP2 SWAP1 POP JUMP JUMPDEST PUSH0 PUSH1 0x20 DUP3 ADD SWAP1 POP DUP2 DUP2 SUB PUSH0 DUP4 ADD MSTORE PUSH2 0x110F DUP2 PUSH2 0x10D6 JUMP JUMPDEST SWAP1 POP SWAP2 SWAP1 POP JUMP JUMPDEST PUSH32 0x496E73756666696369656E742062616C616E6365000000000000000000000000 PUSH0 DUP3 ADD MSTORE POP JUMP JUMPDEST PUSH0 PUSH2 0x114A PUSH1 0x14 DUP4 PUSH2 0x109E JUMP JUMPDEST SWAP2 POP PUSH2 0x1155 DUP3 PUSH2 0x1116 JUMP JUMPDEST PUSH1 0x20 DUP3 ADD SWAP1 POP SWAP2 SWAP1 POP JUMP JUMPDEST PUSH0 PUSH1 0x20 DUP3 ADD SWAP1 POP DUP2 DUP2 SUB PUSH0 DUP4 ADD MSTORE PUSH2 0x1177 DUP2 PUSH2 0x113E JUMP JUMPDEST SWAP1 POP SWAP2 SWAP1 POP JUMP JUMPDEST PUSH2 0x1187 DUP2 PUSH2 0xE0D JUMP JUMPDEST DUP3 MSTORE POP POP JUMP JUMPDEST PUSH0 PUSH1 0x40 DUP3 ADD SWAP1 POP PUSH2 0x11A0 PUSH0 DUP4 ADD DUP6 PUSH2 0x117E JUMP JUMPDEST PUSH2 0x11AD PUSH1 0x20 DUP4 ADD DUP5 PUSH2 0xE7C JUMP JUMPDEST SWAP4 SWAP3 POP POP POP JUMP JUMPDEST PUSH0 DUP2 ISZERO ISZERO SWAP1 POP SWAP2 SWAP1 POP JUMP JUMPDEST PUSH2 0x11C8 DUP2 PUSH2 0x11B4 JUMP JUMPDEST DUP2 EQ PUSH2 0x11D2 JUMPI PUSH0 PUSH0 REVERT JUMPDEST POP JUMP JUMPDEST PUSH0 DUP2 MLOAD SWAP1 POP PUSH2 0x11E3 DUP2 PUSH2 0x11BF JUMP JUMPDEST SWAP3 SWAP2 POP POP JUMP JUMPDEST PUSH0 PUSH1 0x20 DUP3 DUP5 SUB SLT ISZERO PUSH2 0x11FE JUMPI PUSH2 0x11FD PUSH2 0xDEA JUMP JUMPDEST JUMPDEST PUSH0 PUSH2 0x120B DUP5 DUP3 DUP6 ADD PUSH2 0x11D5 JUMP JUMPDEST SWAP2 POP POP SWAP3 SWAP2 POP POP JUMP JUMPDEST PUSH32 0x43616E6E6F74207374616B65207A65726F000000000000000000000000000000 PUSH0 DUP3 ADD MSTORE POP JUMP JUMPDEST PUSH0 PUSH2 0x1248 PUSH1 0x11 DUP4 PUSH2 0x109E JUMP JUMPDEST SWAP2 POP PUSH2 0x1253 DUP3 PUSH2 0x1214 JUMP JUMPDEST PUSH1 0x20 DUP3 ADD SWAP1 POP SWAP2 SWAP1 POP JUMP JUMPDEST PUSH0 PUSH1 0x20 DUP3 ADD SWAP1 POP DUP2 DUP2 SUB PUSH0 DUP4 ADD MSTORE PUSH2 0x1275 DUP2 PUSH2 0x123C JUMP JUMPDEST SWAP1 POP SWAP2 SWAP1 POP JUMP JUMPDEST PUSH0 PUSH1 0x60 DUP3 ADD SWAP1 POP PUSH2 0x128F PUSH0 DUP4 ADD DUP7 PUSH2 0x117E JUMP JUMPDEST PUSH2 0x129C PUSH1 0x20 DUP4 ADD DUP6 PUSH2 0x117E JUMP JUMPDEST PUSH2 0x12A9 PUSH1 0x40 DUP4 ADD DUP5 PUSH2 0xE7C JUMP JUMPDEST SWAP5 SWAP4 POP POP POP POP JUMP JUMPDEST PUSH32 0x4E6F207265776172647300000000000000000000000000000000000000000000 PUSH0 DUP3 ADD MSTORE POP JUMP JUMPDEST PUSH0 PUSH2 0x12E5 PUSH1 0xA DUP4 PUSH2 0x109E JUMP JUMPDEST SWAP2 POP PUSH2 0x12F0 DUP3 PUSH2 0x12B1 JUMP JUMPDEST PUSH1 0x20 DUP3 ADD SWAP1 POP SWAP2 SWAP1 POP JUMP JUMPDEST PUSH0 PUSH1 0x20 DUP3 ADD SWAP1 POP DUP2 DUP2 SUB PUSH0 DUP4 ADD MSTORE PUSH2 0x1312 DUP2 PUSH2 0x12D9 JUMP JUMPDEST SWAP1 POP SWAP2 SWAP1 POP JUMP JUMPDEST PUSH32 0x5265656E7472616E637947756172643A207265656E7472616E742063616C6C00 PUSH0 DUP3 ADD MSTORE POP JUMP JUMPDEST PUSH0 PUSH2 0x134D PUSH1 0x1F DUP4 PUSH2 0x109E JUMP JUMPDEST SWAP2 POP PUSH2 0x1358 DUP3 PUSH2 0x1319 JUMP JUMPDEST PUSH1 0x20 DUP3 ADD SWAP1 POP SWAP2 SWAP1 POP JUMP JUMPDEST PUSH0 PUSH1 0x20 DUP3 ADD SWAP1 POP DUP2 DUP2 SUB PUSH0 DUP4 ADD MSTORE PUSH2 0x137A DUP2 PUSH2 0x1341 JUMP JUMPDEST SWAP1 POP SWAP2 SWAP1 POP JUMP INVALID LOG2 PUSH5 0x6970667358 0x22 SLT KECCAK256 0xE8 PUSH8 0xA1C9D6091B1FA6D7 SDIV PUSH1 0x4C LOG2 0xED 0x28 NUMBER 0x22 MLOAD 0xEF DUP15 0xF SSTORE 0xB8 0xDC EXP 0xED PUSH27 0xEA7A69D164736F6C634300081E0033000000000000000000000000 "
				},
				"gasEstimates": {
					"creation": {
						"codeDepositCost": "1009400",
						"executionCost": "infinite",
						"totalCost": "infinite"
					},
					"external": {
						"balances(address)": "2870",
						"claimReward()": "infinite",
						"earned(address)": "infinite",
						"exit()": "infinite",
						"lastTimeRewardApplicable()": "398",
						"lastUpdateTime()": "2514",
						"rewardPerToken()": "infinite",
						"rewardPerTokenStored()": "2469",
						"rewardRate()": "2470",
						"rewardToken()": "infinite",
						"rewards(address)": "2848",
						"stake(uint256)": "infinite",
						"stakingToken()": "infinite",
						"totalStaked()": "2514",
						"userRewardPerTokenPaid(address)": "2825",
						"withdraw(uint256)": "infinite"
					}
				},
				"methodIdentifiers": {
					"balances(address)": "27e235e3",
					"claimReward()": "b88a802f",
					"earned(address)": "008cc262",
					"exit()": "e9fad8ee",
					"lastTimeRewardApplicable()": "80faa57d",
					"lastUpdateTime()": "c8f33c91",
					"rewardPerToken()": "cd3daf9d",
					"rewardPerTokenStored()": "df136d65",
					"rewardRate()": "7b0a47ee",
					"rewardToken()": "f7c618c1",
					"rewards(address)": "0700037d",
					"stake(uint256)": "a694fc3a",
					"stakingToken()": "72f702f3",
					"totalStaked()": "817b1cd2",
					"userRewardPerTokenPaid(address)": "8b876347",
					"withdraw(uint256)": "2e1a7d4d"
				}
			},
			"storageLayout": {
				"storage": [
					{
						"astId": 355,
						"contract": "Smart Contracts/13_YieldFarm.sol:YieldFarming",
						"label": "_status",
						"offset": 0,
						"slot": "0",
						"type": "t_uint256"
					},
					{
						"astId": 8,
						"contract": "Smart Contracts/13_YieldFarm.sol:YieldFarming",
						"label": "stakingToken",
						"offset": 0,
						"slot": "1",
						"type": "t_contract(IERC20)487"
					},
					{
						"astId": 11,
						"contract": "Smart Contracts/13_YieldFarm.sol:YieldFarming",
						"label": "rewardToken",
						"offset": 0,
						"slot": "2",
						"type": "t_contract(IERC20)487"
					},
					{
						"astId": 13,
						"contract": "Smart Contracts/13_YieldFarm.sol:YieldFarming",
						"label": "rewardRate",
						"offset": 0,
						"slot": "3",
						"type": "t_uint256"
					},
					{
						"astId": 15,
						"contract": "Smart Contracts/13_YieldFarm.sol:YieldFarming",
						"label": "totalStaked",
						"offset": 0,
						"slot": "4",
						"type": "t_uint256"
					},
					{
						"astId": 17,
						"contract": "Smart Contracts/13_YieldFarm.sol:YieldFarming",
						"label": "lastUpdateTime",
						"offset": 0,
						"slot": "5",
						"type": "t_uint256"
					},
					{
						"astId": 19,
						"contract": "Smart Contracts/13_YieldFarm.sol:YieldFarming",
						"label": "rewardPerTokenStored",
						"offset": 0,
						"slot": "6",
						"type": "t_uint256"
					},
					{
						"astId": 23,
						"contract": "Smart Contracts/13_YieldFarm.sol:YieldFarming",
						"label": "balances",
						"offset": 0,
						"slot": "7",
						"type": "t_mapping(t_address,t_uint256)"
					},
					{
						"astId": 27,
						"contract": "Smart Contracts/13_YieldFarm.sol:YieldFarming",
						"label": "userRewardPerTokenPaid",
						"offset": 0,
						"slot": "8",
						"type": "t_mapping(t_address,t_uint256)"
					},
					{
						"astId": 31,
						"contract": "Smart Contracts/13_YieldFarm.sol:YieldFarming",
						"label": "rewards",
						"offset": 0,
						"slot": "9",
						"type": "t_mapping(t_address,t_uint256)"
					}
				],
				"types": {
					"t_address": {
						"encoding": "inplace",
						"label": "address",
						"numberOfBytes": "20"
					},
					"t_contract(IERC20)487": {
						"encoding": "inplace",
						"label": "contract IERC20",
						"numberOfBytes": "20"
					},
					"t_mapping(t_address,t_uint256)": {
						"encoding": "mapping",
						"key": "t_address",
						"label": "mapping(address => uint256)",
						"numberOfBytes": "32",
						"value": "t_uint256"
					},
					"t_uint256": {
						"encoding": "inplace",
						"label": "uint256",
						"numberOfBytes": "32"
					}
				}
			},
			"userdoc": {
				"kind": "user",
				"methods": {},
				"version": 1
			}
		}
	}
}