{
	"Smart Contracts/21_DecentralizedLending.sol": {
		"DecentralizedLending": {
			"abi": [
				{
					"anonymous": false,
					"inputs": [
						{
							"indexed": true,
							"internalType": "address",
							"name": "user",
							"type": "address"
						},
						{
							"indexed": false,
							"internalType": "uint256",
							"name": "amount",
							"type": "uint256"
						}
					],
					"name": "Borrowed",
					"type": "event"
				},
				{
					"anonymous": false,
					"inputs": [
						{
							"indexed": true,
							"internalType": "address",
							"name": "user",
							"type": "address"
						},
						{
							"indexed": false,
							"internalType": "uint256",
							"name": "amount",
							"type": "uint256"
						}
					],
					"name": "Deposited",
					"type": "event"
				},
				{
					"anonymous": false,
					"inputs": [
						{
							"indexed": true,
							"internalType": "address",
							"name": "borrower",
							"type": "address"
						},
						{
							"indexed": true,
							"internalType": "address",
							"name": "liquidator",
							"type": "address"
						}
					],
					"name": "Liquidated",
					"type": "event"
				},
				{
					"anonymous": false,
					"inputs": [
						{
							"indexed": true,
							"internalType": "address",
							"name": "user",
							"type": "address"
						},
						{
							"indexed": false,
							"internalType": "uint256",
							"name": "amount",
							"type": "uint256"
						}
					],
					"name": "Repaid",
					"type": "event"
				},
				{
					"inputs": [],
					"name": "LIQUIDATION_BONUS",
					"outputs": [
						{
							"internalType": "uint256",
							"name": "",
							"type": "uint256"
						}
					],
					"stateMutability": "view",
					"type": "function"
				},
				{
					"inputs": [],
					"name": "LIQUIDATION_THRESHOLD",
					"outputs": [
						{
							"internalType": "uint256",
							"name": "",
							"type": "uint256"
						}
					],
					"stateMutability": "view",
					"type": "function"
				},
				{
					"inputs": [],
					"name": "LTV",
					"outputs": [
						{
							"internalType": "uint256",
							"name": "",
							"type": "uint256"
						}
					],
					"stateMutability": "view",
					"type": "function"
				},
				{
					"inputs": [
						{
							"internalType": "uint256",
							"name": "amount",
							"type": "uint256"
						}
					],
					"name": "borrow",
					"outputs": [],
					"stateMutability": "nonpayable",
					"type": "function"
				},
				{
					"inputs": [
						{
							"internalType": "address",
							"name": "",
							"type": "address"
						}
					],
					"name": "borrows",
					"outputs": [
						{
							"internalType": "uint256",
							"name": "",
							"type": "uint256"
						}
					],
					"stateMutability": "view",
					"type": "function"
				},
				{
					"inputs": [
						{
							"internalType": "address",
							"name": "",
							"type": "address"
						}
					],
					"name": "collateral",
					"outputs": [
						{
							"internalType": "uint256",
							"name": "",
							"type": "uint256"
						}
					],
					"stateMutability": "view",
					"type": "function"
				},
				{
					"inputs": [],
					"name": "deposit",
					"outputs": [],
					"stateMutability": "payable",
					"type": "function"
				},
				{
					"inputs": [
						{
							"internalType": "address",
							"name": "",
							"type": "address"
						}
					],
					"name": "deposits",
					"outputs": [
						{
							"internalType": "uint256",
							"name": "",
							"type": "uint256"
						}
					],
					"stateMutability": "view",
					"type": "function"
				},
				{
					"inputs": [
						{
							"internalType": "address",
							"name": "user",
							"type": "address"
						}
					],
					"name": "healthFactor",
					"outputs": [
						{
							"internalType": "uint256",
							"name": "",
							"type": "uint256"
						}
					],
					"stateMutability": "view",
					"type": "function"
				},
				{
					"inputs": [
						{
							"internalType": "address",
							"name": "borrower",
							"type": "address"
						}
					],
					"name": "liquidate",
					"outputs": [],
					"stateMutability": "nonpayable",
					"type": "function"
				},
				{
					"inputs": [],
					"name": "lockCollateral",
					"outputs": [],
					"stateMutability": "payable",
					"type": "function"
				},
				{
					"inputs": [],
					"name": "repay",
					"outputs": [],
					"stateMutability": "payable",
					"type": "function"
				},
				{
					"inputs": [],
					"name": "totalBorrows",
					"outputs": [
						{
							"internalType": "uint256",
							"name": "",
							"type": "uint256"
						}
					],
					"stateMutability": "view",
					"type": "function"
				},
				{
					"inputs": [],
					"name": "totalDeposits",
					"outputs": [
						{
							"internalType": "uint256",
							"name": "",
							"type": "uint256"
						}
					],
					"stateMutability": "view",
					"type": "function"
				},
				{
					"stateMutability": "payable",
					"type": "receive"
				}
			],
			"devdoc": {
				"kind": "dev",
				"methods": {},
				"version": 1
			},
			"evm": {
				"assembly": "    /* \"Smart Contracts/21_DecentralizedLending.sol\":61:2790  contract DecentralizedLending {... */\n  mstore(0x40, 0x80)\n  callvalue\n  dup1\n  iszero\n  tag_1\n  jumpi\n  revert(0x00, 0x00)\ntag_1:\n  pop\n  dataSize(sub_0)\n  dup1\n  dataOffset(sub_0)\n  0x00\n  codecopy\n  0x00\n  return\nstop\n\nsub_0: assembly {\n        /* \"Smart Contracts/21_DecentralizedLending.sol\":61:2790  contract DecentralizedLending {... */\n      mstore(0x40, 0x80)\n      jumpi(tag_1, lt(calldatasize, 0x04))\n      shr(0xe0, calldataload(0x00))\n      dup1\n      0x70a88735\n      gt\n      tag_17\n      jumpi\n      dup1\n      0xa5fdc5de\n      gt\n      tag_18\n      jumpi\n      dup1\n      0xa5fdc5de\n      eq\n      tag_13\n      jumpi\n      dup1\n      0xc5ebeaec\n      eq\n      tag_14\n      jumpi\n      dup1\n      0xd0e30db0\n      eq\n      tag_15\n      jumpi\n      dup1\n      0xfc7e286d\n      eq\n      tag_16\n      jumpi\n      jump(tag_2)\n    tag_18:\n      dup1\n      0x70a88735\n      eq\n      tag_10\n      jumpi\n      dup1\n      0x7d882097\n      eq\n      tag_11\n      jumpi\n      dup1\n      0x90a8ae9b\n      eq\n      tag_12\n      jumpi\n      jump(tag_2)\n    tag_17:\n      dup1\n      0x47bd3718\n      gt\n      tag_19\n      jumpi\n      dup1\n      0x47bd3718\n      eq\n      tag_6\n      jumpi\n      dup1\n      0x54a5706f\n      eq\n      tag_7\n      jumpi\n      dup1\n      0x62965d8e\n      eq\n      tag_8\n      jumpi\n      dup1\n      0x6ad9f9df\n      eq\n      tag_9\n      jumpi\n      jump(tag_2)\n    tag_19:\n      dup1\n      0x2f865568\n      eq\n      tag_3\n      jumpi\n      dup1\n      0x3574d4c4\n      eq\n      tag_4\n      jumpi\n      dup1\n      0x402d8883\n      eq\n      tag_5\n      jumpi\n      jump(tag_2)\n    tag_1:\n      jumpi(tag_2, calldatasize)\n      stop\n    tag_2:\n      revert(0x00, 0x00)\n        /* \"Smart Contracts/21_DecentralizedLending.sol\":2305:2750  function liquidate(address borrower) external {... */\n    tag_3:\n      callvalue\n      dup1\n      iszero\n      tag_22\n      jumpi\n      revert(0x00, 0x00)\n    tag_22:\n      pop\n      tag_23\n      0x04\n      dup1\n      calldatasize\n      sub\n      dup2\n      add\n      swap1\n      tag_24\n      swap2\n      swap1\n      tag_25\n      jump\t// in\n    tag_24:\n      tag_26\n      jump\t// in\n    tag_23:\n      stop\n        /* \"Smart Contracts/21_DecentralizedLending.sol\":421:467  uint256 public constant LIQUIDATION_BONUS = 10 */\n    tag_4:\n      callvalue\n      dup1\n      iszero\n      tag_27\n      jumpi\n      revert(0x00, 0x00)\n    tag_27:\n      pop\n      tag_28\n      tag_29\n      jump\t// in\n    tag_28:\n      mload(0x40)\n      tag_30\n      swap2\n      swap1\n      tag_31\n      jump\t// in\n    tag_30:\n      mload(0x40)\n      dup1\n      swap2\n      sub\n      swap1\n      return\n        /* \"Smart Contracts/21_DecentralizedLending.sol\":1703:1990  function repay() external payable {... */\n    tag_5:\n      tag_32\n      tag_33\n      jump\t// in\n    tag_32:\n      stop\n        /* \"Smart Contracts/21_DecentralizedLending.sol\":288:315  uint256 public totalBorrows */\n    tag_6:\n      callvalue\n      dup1\n      iszero\n      tag_34\n      jumpi\n      revert(0x00, 0x00)\n    tag_34:\n      pop\n      tag_35\n      tag_36\n      jump\t// in\n    tag_35:\n      mload(0x40)\n      tag_37\n      swap2\n      swap1\n      tag_31\n      jump\t// in\n    tag_37:\n      mload(0x40)\n      dup1\n      swap2\n      sub\n      swap1\n      return\n        /* \"Smart Contracts/21_DecentralizedLending.sol\":150:192  mapping(address => uint256) public borrows */\n    tag_7:\n      callvalue\n      dup1\n      iszero\n      tag_38\n      jumpi\n      revert(0x00, 0x00)\n    tag_38:\n      pop\n      tag_39\n      0x04\n      dup1\n      calldatasize\n      sub\n      dup2\n      add\n      swap1\n      tag_40\n      swap2\n      swap1\n      tag_25\n      jump\t// in\n    tag_40:\n      tag_41\n      jump\t// in\n    tag_39:\n      mload(0x40)\n      tag_42\n      swap2\n      swap1\n      tag_31\n      jump\t// in\n    tag_42:\n      mload(0x40)\n      dup1\n      swap2\n      sub\n      swap1\n      return\n        /* \"Smart Contracts/21_DecentralizedLending.sol\":324:356  uint256 public constant LTV = 70 */\n    tag_8:\n      callvalue\n      dup1\n      iszero\n      tag_43\n      jumpi\n      revert(0x00, 0x00)\n    tag_43:\n      pop\n      tag_44\n      tag_45\n      jump\t// in\n    tag_44:\n      mload(0x40)\n      tag_46\n      swap2\n      swap1\n      tag_31\n      jump\t// in\n    tag_46:\n      mload(0x40)\n      dup1\n      swap2\n      sub\n      swap1\n      return\n        /* \"Smart Contracts/21_DecentralizedLending.sol\":1998:2297  function healthFactor(address user) public view returns (uint256) {... */\n    tag_9:\n      callvalue\n      dup1\n      iszero\n      tag_47\n      jumpi\n      revert(0x00, 0x00)\n    tag_47:\n      pop\n      tag_48\n      0x04\n      dup1\n      calldatasize\n      sub\n      dup2\n      add\n      swap1\n      tag_49\n      swap2\n      swap1\n      tag_25\n      jump\t// in\n    tag_49:\n      tag_50\n      jump\t// in\n    tag_48:\n      mload(0x40)\n      tag_51\n      swap2\n      swap1\n      tag_31\n      jump\t// in\n    tag_51:\n      mload(0x40)\n      dup1\n      swap2\n      sub\n      swap1\n      return\n        /* \"Smart Contracts/21_DecentralizedLending.sol\":972:1121  function lockCollateral() external payable {... */\n    tag_10:\n      tag_52\n      tag_53\n      jump\t// in\n    tag_52:\n      stop\n        /* \"Smart Contracts/21_DecentralizedLending.sol\":253:281  uint256 public totalDeposits */\n    tag_11:\n      callvalue\n      dup1\n      iszero\n      tag_54\n      jumpi\n      revert(0x00, 0x00)\n    tag_54:\n      pop\n      tag_55\n      tag_56\n      jump\t// in\n    tag_55:\n      mload(0x40)\n      tag_57\n      swap2\n      swap1\n      tag_31\n      jump\t// in\n    tag_57:\n      mload(0x40)\n      dup1\n      swap2\n      sub\n      swap1\n      return\n        /* \"Smart Contracts/21_DecentralizedLending.sol\":364:414  uint256 public constant LIQUIDATION_THRESHOLD = 75 */\n    tag_12:\n      callvalue\n      dup1\n      iszero\n      tag_58\n      jumpi\n      revert(0x00, 0x00)\n    tag_58:\n      pop\n      tag_59\n      tag_60\n      jump\t// in\n    tag_59:\n      mload(0x40)\n      tag_61\n      swap2\n      swap1\n      tag_31\n      jump\t// in\n    tag_61:\n      mload(0x40)\n      dup1\n      swap2\n      sub\n      swap1\n      return\n        /* \"Smart Contracts/21_DecentralizedLending.sol\":199:244  mapping(address => uint256) public collateral */\n    tag_13:\n      callvalue\n      dup1\n      iszero\n      tag_62\n      jumpi\n      revert(0x00, 0x00)\n    tag_62:\n      pop\n      tag_63\n      0x04\n      dup1\n      calldatasize\n      sub\n      dup2\n      add\n      swap1\n      tag_64\n      swap2\n      swap1\n      tag_25\n      jump\t// in\n    tag_64:\n      tag_65\n      jump\t// in\n    tag_63:\n      mload(0x40)\n      tag_66\n      swap2\n      swap1\n      tag_31\n      jump\t// in\n    tag_66:\n      mload(0x40)\n      dup1\n      swap2\n      sub\n      swap1\n      return\n        /* \"Smart Contracts/21_DecentralizedLending.sol\":1129:1695  function borrow(uint256 amount) external {... */\n    tag_14:\n      callvalue\n      dup1\n      iszero\n      tag_67\n      jumpi\n      revert(0x00, 0x00)\n    tag_67:\n      pop\n      tag_68\n      0x04\n      dup1\n      calldatasize\n      sub\n      dup2\n      add\n      swap1\n      tag_69\n      swap2\n      swap1\n      tag_70\n      jump\t// in\n    tag_69:\n      tag_71\n      jump\t// in\n    tag_68:\n      stop\n        /* \"Smart Contracts/21_DecentralizedLending.sol\":738:964  function deposit() external payable {... */\n    tag_15:\n      tag_72\n      tag_73\n      jump\t// in\n    tag_72:\n      stop\n        /* \"Smart Contracts/21_DecentralizedLending.sol\":100:143  mapping(address => uint256) public deposits */\n    tag_16:\n      callvalue\n      dup1\n      iszero\n      tag_74\n      jumpi\n      revert(0x00, 0x00)\n    tag_74:\n      pop\n      tag_75\n      0x04\n      dup1\n      calldatasize\n      sub\n      dup2\n      add\n      swap1\n      tag_76\n      swap2\n      swap1\n      tag_25\n      jump\t// in\n    tag_76:\n      tag_77\n      jump\t// in\n    tag_75:\n      mload(0x40)\n      tag_78\n      swap2\n      swap1\n      tag_31\n      jump\t// in\n    tag_78:\n      mload(0x40)\n      dup1\n      swap2\n      sub\n      swap1\n      return\n        /* \"Smart Contracts/21_DecentralizedLending.sol\":2305:2750  function liquidate(address borrower) external {... */\n    tag_26:\n        /* \"Smart Contracts/21_DecentralizedLending.sol\":2395:2399  1e18 */\n      0x0de0b6b3a7640000\n        /* \"Smart Contracts/21_DecentralizedLending.sol\":2370:2392  healthFactor(borrower) */\n      tag_80\n        /* \"Smart Contracts/21_DecentralizedLending.sol\":2383:2391  borrower */\n      dup3\n        /* \"Smart Contracts/21_DecentralizedLending.sol\":2370:2382  healthFactor */\n      tag_50\n        /* \"Smart Contracts/21_DecentralizedLending.sol\":2370:2392  healthFactor(borrower) */\n      jump\t// in\n    tag_80:\n        /* \"Smart Contracts/21_DecentralizedLending.sol\":2370:2399  healthFactor(borrower) < 1e18 */\n      lt\n        /* \"Smart Contracts/21_DecentralizedLending.sol\":2362:2419  require(healthFactor(borrower) < 1e18, \"Loan is healthy\") */\n      tag_81\n      jumpi\n      mload(0x40)\n      0x08c379a000000000000000000000000000000000000000000000000000000000\n      dup2\n      mstore\n      0x04\n      add\n      tag_82\n      swap1\n      tag_83\n      jump\t// in\n    tag_82:\n      mload(0x40)\n      dup1\n      swap2\n      sub\n      swap1\n      revert\n    tag_81:\n        /* \"Smart Contracts/21_DecentralizedLending.sol\":2432:2456  uint256 collateralAmount */\n      0x00\n        /* \"Smart Contracts/21_DecentralizedLending.sol\":2459:2469  collateral */\n      0x02\n        /* \"Smart Contracts/21_DecentralizedLending.sol\":2459:2479  collateral[borrower] */\n      0x00\n        /* \"Smart Contracts/21_DecentralizedLending.sol\":2470:2478  borrower */\n      dup4\n        /* \"Smart Contracts/21_DecentralizedLending.sol\":2459:2479  collateral[borrower] */\n      0xffffffffffffffffffffffffffffffffffffffff\n      and\n      0xffffffffffffffffffffffffffffffffffffffff\n      and\n      dup2\n      mstore\n      0x20\n      add\n      swap1\n      dup2\n      mstore\n      0x20\n      add\n      0x00\n      keccak256\n      sload\n        /* \"Smart Contracts/21_DecentralizedLending.sol\":2432:2479  uint256 collateralAmount = collateral[borrower] */\n      swap1\n      pop\n        /* \"Smart Contracts/21_DecentralizedLending.sol\":2512:2513  0 */\n      0x00\n        /* \"Smart Contracts/21_DecentralizedLending.sol\":2492:2499  borrows */\n      0x01\n        /* \"Smart Contracts/21_DecentralizedLending.sol\":2492:2509  borrows[borrower] */\n      0x00\n        /* \"Smart Contracts/21_DecentralizedLending.sol\":2500:2508  borrower */\n      dup5\n        /* \"Smart Contracts/21_DecentralizedLending.sol\":2492:2509  borrows[borrower] */\n      0xffffffffffffffffffffffffffffffffffffffff\n      and\n      0xffffffffffffffffffffffffffffffffffffffff\n      and\n      dup2\n      mstore\n      0x20\n      add\n      swap1\n      dup2\n      mstore\n      0x20\n      add\n      0x00\n      keccak256\n        /* \"Smart Contracts/21_DecentralizedLending.sol\":2492:2513  borrows[borrower] = 0 */\n      dup2\n      swap1\n      sstore\n      pop\n        /* \"Smart Contracts/21_DecentralizedLending.sol\":2547:2548  0 */\n      0x00\n        /* \"Smart Contracts/21_DecentralizedLending.sol\":2524:2534  collateral */\n      0x02\n        /* \"Smart Contracts/21_DecentralizedLending.sol\":2524:2544  collateral[borrower] */\n      0x00\n        /* \"Smart Contracts/21_DecentralizedLending.sol\":2535:2543  borrower */\n      dup5\n        /* \"Smart Contracts/21_DecentralizedLending.sol\":2524:2544  collateral[borrower] */\n      0xffffffffffffffffffffffffffffffffffffffff\n      and\n      0xffffffffffffffffffffffffffffffffffffffff\n      and\n      dup2\n      mstore\n      0x20\n      add\n      swap1\n      dup2\n      mstore\n      0x20\n      add\n      0x00\n      keccak256\n        /* \"Smart Contracts/21_DecentralizedLending.sol\":2524:2548  collateral[borrower] = 0 */\n      dup2\n      swap1\n      sstore\n      pop\n        /* \"Smart Contracts/21_DecentralizedLending.sol\":2561:2575  uint256 reward */\n      0x00\n        /* \"Smart Contracts/21_DecentralizedLending.sol\":2640:2643  100 */\n      0x64\n        /* \"Smart Contracts/21_DecentralizedLending.sol\":465:467  10 */\n      0x0a\n        /* \"Smart Contracts/21_DecentralizedLending.sol\":2612:2615  100 */\n      0x64\n        /* \"Smart Contracts/21_DecentralizedLending.sol\":2612:2635  100 + LIQUIDATION_BONUS */\n      tag_84\n      swap2\n      swap1\n      tag_85\n      jump\t// in\n    tag_84:\n        /* \"Smart Contracts/21_DecentralizedLending.sol\":2592:2608  collateralAmount */\n      dup4\n        /* \"Smart Contracts/21_DecentralizedLending.sol\":2592:2636  collateralAmount * (100 + LIQUIDATION_BONUS) */\n      tag_86\n      swap2\n      swap1\n      tag_87\n      jump\t// in\n    tag_86:\n        /* \"Smart Contracts/21_DecentralizedLending.sol\":2591:2643  (collateralAmount * (100 + LIQUIDATION_BONUS)) / 100 */\n      tag_88\n      swap2\n      swap1\n      tag_89\n      jump\t// in\n    tag_88:\n        /* \"Smart Contracts/21_DecentralizedLending.sol\":2561:2643  uint256 reward =... */\n      swap1\n      pop\n        /* \"Smart Contracts/21_DecentralizedLending.sol\":2664:2674  msg.sender */\n      caller\n        /* \"Smart Contracts/21_DecentralizedLending.sol\":2656:2684  payable(msg.sender).transfer */\n      0xffffffffffffffffffffffffffffffffffffffff\n      and\n        /* \"Smart Contracts/21_DecentralizedLending.sol\":2656:2692  payable(msg.sender).transfer(reward) */\n      0x08fc\n        /* \"Smart Contracts/21_DecentralizedLending.sol\":2685:2691  reward */\n      dup3\n        /* \"Smart Contracts/21_DecentralizedLending.sol\":2656:2692  payable(msg.sender).transfer(reward) */\n      swap1\n      dup2\n      iszero\n      mul\n      swap1\n      mload(0x40)\n      0x00\n      mload(0x40)\n      dup1\n      dup4\n      sub\n      dup2\n      dup6\n      dup9\n      dup9\n      call\n      swap4\n      pop\n      pop\n      pop\n      pop\n      iszero\n      dup1\n      iszero\n      tag_91\n      jumpi\n      returndatacopy(0x00, 0x00, returndatasize)\n      revert(0x00, returndatasize)\n    tag_91:\n      pop\n        /* \"Smart Contracts/21_DecentralizedLending.sol\":2731:2741  msg.sender */\n      caller\n        /* \"Smart Contracts/21_DecentralizedLending.sol\":2710:2742  Liquidated(borrower, msg.sender) */\n      0xffffffffffffffffffffffffffffffffffffffff\n      and\n        /* \"Smart Contracts/21_DecentralizedLending.sol\":2721:2729  borrower */\n      dup4\n        /* \"Smart Contracts/21_DecentralizedLending.sol\":2710:2742  Liquidated(borrower, msg.sender) */\n      0xffffffffffffffffffffffffffffffffffffffff\n      and\n      0xacd74f5a0eb0d086de0eebe2d1e70d5742838c88cb2cf492fc201d39e056f7e0\n      mload(0x40)\n      mload(0x40)\n      dup1\n      swap2\n      sub\n      swap1\n      log3\n        /* \"Smart Contracts/21_DecentralizedLending.sol\":2351:2750  {... */\n      pop\n      pop\n        /* \"Smart Contracts/21_DecentralizedLending.sol\":2305:2750  function liquidate(address borrower) external {... */\n      pop\n      jump\t// out\n        /* \"Smart Contracts/21_DecentralizedLending.sol\":421:467  uint256 public constant LIQUIDATION_BONUS = 10 */\n    tag_29:\n        /* \"Smart Contracts/21_DecentralizedLending.sol\":465:467  10 */\n      0x0a\n        /* \"Smart Contracts/21_DecentralizedLending.sol\":421:467  uint256 public constant LIQUIDATION_BONUS = 10 */\n      dup2\n      jump\t// out\n        /* \"Smart Contracts/21_DecentralizedLending.sol\":1703:1990  function repay() external payable {... */\n    tag_33:\n        /* \"Smart Contracts/21_DecentralizedLending.sol\":1778:1779  0 */\n      0x00\n        /* \"Smart Contracts/21_DecentralizedLending.sol\":1756:1763  borrows */\n      0x01\n        /* \"Smart Contracts/21_DecentralizedLending.sol\":1756:1775  borrows[msg.sender] */\n      0x00\n        /* \"Smart Contracts/21_DecentralizedLending.sol\":1764:1774  msg.sender */\n      caller\n        /* \"Smart Contracts/21_DecentralizedLending.sol\":1756:1775  borrows[msg.sender] */\n      0xffffffffffffffffffffffffffffffffffffffff\n      and\n      0xffffffffffffffffffffffffffffffffffffffff\n      and\n      dup2\n      mstore\n      0x20\n      add\n      swap1\n      dup2\n      mstore\n      0x20\n      add\n      0x00\n      keccak256\n      sload\n        /* \"Smart Contracts/21_DecentralizedLending.sol\":1756:1779  borrows[msg.sender] > 0 */\n      gt\n        /* \"Smart Contracts/21_DecentralizedLending.sol\":1748:1791  require(borrows[msg.sender] > 0, \"No debt\") */\n      tag_93\n      jumpi\n      mload(0x40)\n      0x08c379a000000000000000000000000000000000000000000000000000000000\n      dup2\n      mstore\n      0x04\n      add\n      tag_94\n      swap1\n      tag_95\n      jump\t// in\n    tag_94:\n      mload(0x40)\n      dup1\n      swap2\n      sub\n      swap1\n      revert\n    tag_93:\n        /* \"Smart Contracts/21_DecentralizedLending.sol\":1823:1830  borrows */\n      0x01\n        /* \"Smart Contracts/21_DecentralizedLending.sol\":1823:1842  borrows[msg.sender] */\n      0x00\n        /* \"Smart Contracts/21_DecentralizedLending.sol\":1831:1841  msg.sender */\n      caller\n        /* \"Smart Contracts/21_DecentralizedLending.sol\":1823:1842  borrows[msg.sender] */\n      0xffffffffffffffffffffffffffffffffffffffff\n      and\n      0xffffffffffffffffffffffffffffffffffffffff\n      and\n      dup2\n      mstore\n      0x20\n      add\n      swap1\n      dup2\n      mstore\n      0x20\n      add\n      0x00\n      keccak256\n      sload\n        /* \"Smart Contracts/21_DecentralizedLending.sol\":1810:1819  msg.value */\n      callvalue\n        /* \"Smart Contracts/21_DecentralizedLending.sol\":1810:1842  msg.value <= borrows[msg.sender] */\n      gt\n      iszero\n        /* \"Smart Contracts/21_DecentralizedLending.sol\":1802:1854  require(msg.value <= borrows[msg.sender], \"Overpay\") */\n      tag_96\n      jumpi\n      mload(0x40)\n      0x08c379a000000000000000000000000000000000000000000000000000000000\n      dup2\n      mstore\n      0x04\n      add\n      tag_97\n      swap1\n      tag_98\n      jump\t// in\n    tag_97:\n      mload(0x40)\n      dup1\n      swap2\n      sub\n      swap1\n      revert\n    tag_96:\n        /* \"Smart Contracts/21_DecentralizedLending.sol\":1890:1899  msg.value */\n      callvalue\n        /* \"Smart Contracts/21_DecentralizedLending.sol\":1867:1874  borrows */\n      0x01\n        /* \"Smart Contracts/21_DecentralizedLending.sol\":1867:1886  borrows[msg.sender] */\n      0x00\n        /* \"Smart Contracts/21_DecentralizedLending.sol\":1875:1885  msg.sender */\n      caller\n        /* \"Smart Contracts/21_DecentralizedLending.sol\":1867:1886  borrows[msg.sender] */\n      0xffffffffffffffffffffffffffffffffffffffff\n      and\n      0xffffffffffffffffffffffffffffffffffffffff\n      and\n      dup2\n      mstore\n      0x20\n      add\n      swap1\n      dup2\n      mstore\n      0x20\n      add\n      0x00\n      keccak256\n      0x00\n        /* \"Smart Contracts/21_DecentralizedLending.sol\":1867:1899  borrows[msg.sender] -= msg.value */\n      dup3\n      dup3\n      sload\n      tag_99\n      swap2\n      swap1\n      tag_100\n      jump\t// in\n    tag_99:\n      swap3\n      pop\n      pop\n      dup2\n      swap1\n      sstore\n      pop\n        /* \"Smart Contracts/21_DecentralizedLending.sol\":1926:1935  msg.value */\n      callvalue\n        /* \"Smart Contracts/21_DecentralizedLending.sol\":1910:1922  totalBorrows */\n      0x04\n      0x00\n        /* \"Smart Contracts/21_DecentralizedLending.sol\":1910:1935  totalBorrows -= msg.value */\n      dup3\n      dup3\n      sload\n      tag_101\n      swap2\n      swap1\n      tag_100\n      jump\t// in\n    tag_101:\n      swap3\n      pop\n      pop\n      dup2\n      swap1\n      sstore\n      pop\n        /* \"Smart Contracts/21_DecentralizedLending.sol\":1960:1970  msg.sender */\n      caller\n        /* \"Smart Contracts/21_DecentralizedLending.sol\":1953:1982  Repaid(msg.sender, msg.value) */\n      0xffffffffffffffffffffffffffffffffffffffff\n      and\n      0x0516911bcc3a0a7412a44601057c0a0a1ec628bde049a84284bc428866534488\n        /* \"Smart Contracts/21_DecentralizedLending.sol\":1972:1981  msg.value */\n      callvalue\n        /* \"Smart Contracts/21_DecentralizedLending.sol\":1953:1982  Repaid(msg.sender, msg.value) */\n      mload(0x40)\n      tag_102\n      swap2\n      swap1\n      tag_31\n      jump\t// in\n    tag_102:\n      mload(0x40)\n      dup1\n      swap2\n      sub\n      swap1\n      log2\n        /* \"Smart Contracts/21_DecentralizedLending.sol\":1703:1990  function repay() external payable {... */\n      jump\t// out\n        /* \"Smart Contracts/21_DecentralizedLending.sol\":288:315  uint256 public totalBorrows */\n    tag_36:\n      sload(0x04)\n      dup2\n      jump\t// out\n        /* \"Smart Contracts/21_DecentralizedLending.sol\":150:192  mapping(address => uint256) public borrows */\n    tag_41:\n      mstore(0x20, 0x01)\n      dup1\n      0x00\n      mstore\n      keccak256(0x00, 0x40)\n      0x00\n      swap2\n      pop\n      swap1\n      pop\n      sload\n      dup2\n      jump\t// out\n        /* \"Smart Contracts/21_DecentralizedLending.sol\":324:356  uint256 public constant LTV = 70 */\n    tag_45:\n        /* \"Smart Contracts/21_DecentralizedLending.sol\":354:356  70 */\n      0x46\n        /* \"Smart Contracts/21_DecentralizedLending.sol\":324:356  uint256 public constant LTV = 70 */\n      dup2\n      jump\t// out\n        /* \"Smart Contracts/21_DecentralizedLending.sol\":1998:2297  function healthFactor(address user) public view returns (uint256) {... */\n    tag_50:\n        /* \"Smart Contracts/21_DecentralizedLending.sol\":2055:2062  uint256 */\n      0x00\n        /* \"Smart Contracts/21_DecentralizedLending.sol\":2096:2097  0 */\n      0x00\n        /* \"Smart Contracts/21_DecentralizedLending.sol\":2079:2086  borrows */\n      0x01\n        /* \"Smart Contracts/21_DecentralizedLending.sol\":2079:2092  borrows[user] */\n      0x00\n        /* \"Smart Contracts/21_DecentralizedLending.sol\":2087:2091  user */\n      dup5\n        /* \"Smart Contracts/21_DecentralizedLending.sol\":2079:2092  borrows[user] */\n      0xffffffffffffffffffffffffffffffffffffffff\n      and\n      0xffffffffffffffffffffffffffffffffffffffff\n      and\n      dup2\n      mstore\n      0x20\n      add\n      swap1\n      dup2\n      mstore\n      0x20\n      add\n      0x00\n      keccak256\n      sload\n        /* \"Smart Contracts/21_DecentralizedLending.sol\":2079:2097  borrows[user] == 0 */\n      sub\n        /* \"Smart Contracts/21_DecentralizedLending.sol\":2075:2123  if (borrows[user] == 0) return type(uint256).max */\n      tag_104\n      jumpi\n        /* \"Smart Contracts/21_DecentralizedLending.sol\":2106:2123  type(uint256).max */\n      0xffffffffffffffffffffffffffffffffffffffffffffffffffffffffffffffff\n        /* \"Smart Contracts/21_DecentralizedLending.sol\":2099:2123  return type(uint256).max */\n      swap1\n      pop\n      jump(tag_103)\n        /* \"Smart Contracts/21_DecentralizedLending.sol\":2075:2123  if (borrows[user] == 0) return type(uint256).max */\n    tag_104:\n        /* \"Smart Contracts/21_DecentralizedLending.sol\":2136:2162  uint256 adjustedCollateral */\n      0x00\n        /* \"Smart Contracts/21_DecentralizedLending.sol\":2223:2226  100 */\n      0x64\n        /* \"Smart Contracts/21_DecentralizedLending.sol\":412:414  75 */\n      0x4b\n        /* \"Smart Contracts/21_DecentralizedLending.sol\":2179:2189  collateral */\n      0x02\n        /* \"Smart Contracts/21_DecentralizedLending.sol\":2179:2195  collateral[user] */\n      0x00\n        /* \"Smart Contracts/21_DecentralizedLending.sol\":2190:2194  user */\n      dup7\n        /* \"Smart Contracts/21_DecentralizedLending.sol\":2179:2195  collateral[user] */\n      0xffffffffffffffffffffffffffffffffffffffff\n      and\n      0xffffffffffffffffffffffffffffffffffffffff\n      and\n      dup2\n      mstore\n      0x20\n      add\n      swap1\n      dup2\n      mstore\n      0x20\n      add\n      0x00\n      keccak256\n      sload\n        /* \"Smart Contracts/21_DecentralizedLending.sol\":2179:2219  collateral[user] * LIQUIDATION_THRESHOLD */\n      tag_105\n      swap2\n      swap1\n      tag_87\n      jump\t// in\n    tag_105:\n        /* \"Smart Contracts/21_DecentralizedLending.sol\":2178:2226  (collateral[user] * LIQUIDATION_THRESHOLD) / 100 */\n      tag_106\n      swap2\n      swap1\n      tag_89\n      jump\t// in\n    tag_106:\n        /* \"Smart Contracts/21_DecentralizedLending.sol\":2136:2226  uint256 adjustedCollateral =... */\n      swap1\n      pop\n        /* \"Smart Contracts/21_DecentralizedLending.sol\":2276:2283  borrows */\n      0x01\n        /* \"Smart Contracts/21_DecentralizedLending.sol\":2276:2289  borrows[user] */\n      0x00\n        /* \"Smart Contracts/21_DecentralizedLending.sol\":2284:2288  user */\n      dup5\n        /* \"Smart Contracts/21_DecentralizedLending.sol\":2276:2289  borrows[user] */\n      0xffffffffffffffffffffffffffffffffffffffff\n      and\n      0xffffffffffffffffffffffffffffffffffffffff\n      and\n      dup2\n      mstore\n      0x20\n      add\n      swap1\n      dup2\n      mstore\n      0x20\n      add\n      0x00\n      keccak256\n      sload\n        /* \"Smart Contracts/21_DecentralizedLending.sol\":2268:2272  1e18 */\n      0x0de0b6b3a7640000\n        /* \"Smart Contracts/21_DecentralizedLending.sol\":2247:2265  adjustedCollateral */\n      dup3\n        /* \"Smart Contracts/21_DecentralizedLending.sol\":2247:2272  adjustedCollateral * 1e18 */\n      tag_107\n      swap2\n      swap1\n      tag_87\n      jump\t// in\n    tag_107:\n        /* \"Smart Contracts/21_DecentralizedLending.sol\":2246:2289  (adjustedCollateral * 1e18) / borrows[user] */\n      tag_108\n      swap2\n      swap1\n      tag_89\n      jump\t// in\n    tag_108:\n        /* \"Smart Contracts/21_DecentralizedLending.sol\":2239:2289  return (adjustedCollateral * 1e18) / borrows[user] */\n      swap2\n      pop\n      pop\n        /* \"Smart Contracts/21_DecentralizedLending.sol\":1998:2297  function healthFactor(address user) public view returns (uint256) {... */\n    tag_103:\n      swap2\n      swap1\n      pop\n      jump\t// out\n        /* \"Smart Contracts/21_DecentralizedLending.sol\":972:1121  function lockCollateral() external payable {... */\n    tag_53:\n        /* \"Smart Contracts/21_DecentralizedLending.sol\":1046:1047  0 */\n      0x00\n        /* \"Smart Contracts/21_DecentralizedLending.sol\":1034:1043  msg.value */\n      callvalue\n        /* \"Smart Contracts/21_DecentralizedLending.sol\":1034:1047  msg.value > 0 */\n      gt\n        /* \"Smart Contracts/21_DecentralizedLending.sol\":1026:1067  require(msg.value > 0, \"Zero collateral\") */\n      tag_110\n      jumpi\n      mload(0x40)\n      0x08c379a000000000000000000000000000000000000000000000000000000000\n      dup2\n      mstore\n      0x04\n      add\n      tag_111\n      swap1\n      tag_112\n      jump\t// in\n    tag_111:\n      mload(0x40)\n      dup1\n      swap2\n      sub\n      swap1\n      revert\n    tag_110:\n        /* \"Smart Contracts/21_DecentralizedLending.sol\":1104:1113  msg.value */\n      callvalue\n        /* \"Smart Contracts/21_DecentralizedLending.sol\":1078:1088  collateral */\n      0x02\n        /* \"Smart Contracts/21_DecentralizedLending.sol\":1078:1100  collateral[msg.sender] */\n      0x00\n        /* \"Smart Contracts/21_DecentralizedLending.sol\":1089:1099  msg.sender */\n      caller\n        /* \"Smart Contracts/21_DecentralizedLending.sol\":1078:1100  collateral[msg.sender] */\n      0xffffffffffffffffffffffffffffffffffffffff\n      and\n      0xffffffffffffffffffffffffffffffffffffffff\n      and\n      dup2\n      mstore\n      0x20\n      add\n      swap1\n      dup2\n      mstore\n      0x20\n      add\n      0x00\n      keccak256\n      0x00\n        /* \"Smart Contracts/21_DecentralizedLending.sol\":1078:1113  collateral[msg.sender] += msg.value */\n      dup3\n      dup3\n      sload\n      tag_113\n      swap2\n      swap1\n      tag_85\n      jump\t// in\n    tag_113:\n      swap3\n      pop\n      pop\n      dup2\n      swap1\n      sstore\n      pop\n        /* \"Smart Contracts/21_DecentralizedLending.sol\":972:1121  function lockCollateral() external payable {... */\n      jump\t// out\n        /* \"Smart Contracts/21_DecentralizedLending.sol\":253:281  uint256 public totalDeposits */\n    tag_56:\n      sload(0x03)\n      dup2\n      jump\t// out\n        /* \"Smart Contracts/21_DecentralizedLending.sol\":364:414  uint256 public constant LIQUIDATION_THRESHOLD = 75 */\n    tag_60:\n        /* \"Smart Contracts/21_DecentralizedLending.sol\":412:414  75 */\n      0x4b\n        /* \"Smart Contracts/21_DecentralizedLending.sol\":364:414  uint256 public constant LIQUIDATION_THRESHOLD = 75 */\n      dup2\n      jump\t// out\n        /* \"Smart Contracts/21_DecentralizedLending.sol\":199:244  mapping(address => uint256) public collateral */\n    tag_65:\n      mstore(0x20, 0x02)\n      dup1\n      0x00\n      mstore\n      keccak256(0x00, 0x40)\n      0x00\n      swap2\n      pop\n      swap1\n      pop\n      sload\n      dup2\n      jump\t// out\n        /* \"Smart Contracts/21_DecentralizedLending.sol\":1129:1695  function borrow(uint256 amount) external {... */\n    tag_71:\n        /* \"Smart Contracts/21_DecentralizedLending.sol\":1181:1204  uint256 collateralValue */\n      0x00\n        /* \"Smart Contracts/21_DecentralizedLending.sol\":1207:1217  collateral */\n      0x02\n        /* \"Smart Contracts/21_DecentralizedLending.sol\":1207:1229  collateral[msg.sender] */\n      0x00\n        /* \"Smart Contracts/21_DecentralizedLending.sol\":1218:1228  msg.sender */\n      caller\n        /* \"Smart Contracts/21_DecentralizedLending.sol\":1207:1229  collateral[msg.sender] */\n      0xffffffffffffffffffffffffffffffffffffffff\n      and\n      0xffffffffffffffffffffffffffffffffffffffff\n      and\n      dup2\n      mstore\n      0x20\n      add\n      swap1\n      dup2\n      mstore\n      0x20\n      add\n      0x00\n      keccak256\n      sload\n        /* \"Smart Contracts/21_DecentralizedLending.sol\":1181:1229  uint256 collateralValue = collateral[msg.sender] */\n      swap1\n      pop\n        /* \"Smart Contracts/21_DecentralizedLending.sol\":1266:1267  0 */\n      0x00\n        /* \"Smart Contracts/21_DecentralizedLending.sol\":1248:1263  collateralValue */\n      dup2\n        /* \"Smart Contracts/21_DecentralizedLending.sol\":1248:1267  collateralValue > 0 */\n      gt\n        /* \"Smart Contracts/21_DecentralizedLending.sol\":1240:1285  require(collateralValue > 0, \"No collateral\") */\n      tag_115\n      jumpi\n      mload(0x40)\n      0x08c379a000000000000000000000000000000000000000000000000000000000\n      dup2\n      mstore\n      0x04\n      add\n      tag_116\n      swap1\n      tag_117\n      jump\t// in\n    tag_116:\n      mload(0x40)\n      dup1\n      swap2\n      sub\n      swap1\n      revert\n    tag_115:\n        /* \"Smart Contracts/21_DecentralizedLending.sol\":1298:1315  uint256 maxBorrow */\n      0x00\n        /* \"Smart Contracts/21_DecentralizedLending.sol\":1357:1360  100 */\n      0x64\n        /* \"Smart Contracts/21_DecentralizedLending.sol\":354:356  70 */\n      0x46\n        /* \"Smart Contracts/21_DecentralizedLending.sol\":1332:1347  collateralValue */\n      dup4\n        /* \"Smart Contracts/21_DecentralizedLending.sol\":1332:1353  collateralValue * LTV */\n      tag_118\n      swap2\n      swap1\n      tag_87\n      jump\t// in\n    tag_118:\n        /* \"Smart Contracts/21_DecentralizedLending.sol\":1331:1360  (collateralValue * LTV) / 100 */\n      tag_119\n      swap2\n      swap1\n      tag_89\n      jump\t// in\n    tag_119:\n        /* \"Smart Contracts/21_DecentralizedLending.sol\":1298:1360  uint256 maxBorrow =... */\n      swap1\n      pop\n        /* \"Smart Contracts/21_DecentralizedLending.sol\":1413:1422  maxBorrow */\n      dup1\n        /* \"Smart Contracts/21_DecentralizedLending.sol\":1403:1409  amount */\n      dup4\n        /* \"Smart Contracts/21_DecentralizedLending.sol\":1381:1388  borrows */\n      0x01\n        /* \"Smart Contracts/21_DecentralizedLending.sol\":1381:1400  borrows[msg.sender] */\n      0x00\n        /* \"Smart Contracts/21_DecentralizedLending.sol\":1389:1399  msg.sender */\n      caller\n        /* \"Smart Contracts/21_DecentralizedLending.sol\":1381:1400  borrows[msg.sender] */\n      0xffffffffffffffffffffffffffffffffffffffff\n      and\n      0xffffffffffffffffffffffffffffffffffffffff\n      and\n      dup2\n      mstore\n      0x20\n      add\n      swap1\n      dup2\n      mstore\n      0x20\n      add\n      0x00\n      keccak256\n      sload\n        /* \"Smart Contracts/21_DecentralizedLending.sol\":1381:1409  borrows[msg.sender] + amount */\n      tag_120\n      swap2\n      swap1\n      tag_85\n      jump\t// in\n    tag_120:\n        /* \"Smart Contracts/21_DecentralizedLending.sol\":1381:1422  borrows[msg.sender] + amount <= maxBorrow */\n      gt\n      iszero\n        /* \"Smart Contracts/21_DecentralizedLending.sol\":1373:1440  require(borrows[msg.sender] + amount <= maxBorrow, \"Exceeds limit\") */\n      tag_121\n      jumpi\n      mload(0x40)\n      0x08c379a000000000000000000000000000000000000000000000000000000000\n      dup2\n      mstore\n      0x04\n      add\n      tag_122\n      swap1\n      tag_123\n      jump\t// in\n    tag_122:\n      mload(0x40)\n      dup1\n      swap2\n      sub\n      swap1\n      revert\n    tag_121:\n        /* \"Smart Contracts/21_DecentralizedLending.sol\":1484:1490  amount */\n      dup3\n        /* \"Smart Contracts/21_DecentralizedLending.sol\":1459:1480  address(this).balance */\n      selfbalance\n        /* \"Smart Contracts/21_DecentralizedLending.sol\":1459:1490  address(this).balance >= amount */\n      lt\n      iszero\n        /* \"Smart Contracts/21_DecentralizedLending.sol\":1451:1517  require(address(this).balance >= amount, \"Insufficient liquidity\") */\n      tag_124\n      jumpi\n      mload(0x40)\n      0x08c379a000000000000000000000000000000000000000000000000000000000\n      dup2\n      mstore\n      0x04\n      add\n      tag_125\n      swap1\n      tag_126\n      jump\t// in\n    tag_125:\n      mload(0x40)\n      dup1\n      swap2\n      sub\n      swap1\n      revert\n    tag_124:\n        /* \"Smart Contracts/21_DecentralizedLending.sol\":1553:1559  amount */\n      dup3\n        /* \"Smart Contracts/21_DecentralizedLending.sol\":1530:1537  borrows */\n      0x01\n        /* \"Smart Contracts/21_DecentralizedLending.sol\":1530:1549  borrows[msg.sender] */\n      0x00\n        /* \"Smart Contracts/21_DecentralizedLending.sol\":1538:1548  msg.sender */\n      caller\n        /* \"Smart Contracts/21_DecentralizedLending.sol\":1530:1549  borrows[msg.sender] */\n      0xffffffffffffffffffffffffffffffffffffffff\n      and\n      0xffffffffffffffffffffffffffffffffffffffff\n      and\n      dup2\n      mstore\n      0x20\n      add\n      swap1\n      dup2\n      mstore\n      0x20\n      add\n      0x00\n      keccak256\n      0x00\n        /* \"Smart Contracts/21_DecentralizedLending.sol\":1530:1559  borrows[msg.sender] += amount */\n      dup3\n      dup3\n      sload\n      tag_127\n      swap2\n      swap1\n      tag_85\n      jump\t// in\n    tag_127:\n      swap3\n      pop\n      pop\n      dup2\n      swap1\n      sstore\n      pop\n        /* \"Smart Contracts/21_DecentralizedLending.sol\":1586:1592  amount */\n      dup3\n        /* \"Smart Contracts/21_DecentralizedLending.sol\":1570:1582  totalBorrows */\n      0x04\n      0x00\n        /* \"Smart Contracts/21_DecentralizedLending.sol\":1570:1592  totalBorrows += amount */\n      dup3\n      dup3\n      sload\n      tag_128\n      swap2\n      swap1\n      tag_85\n      jump\t// in\n    tag_128:\n      swap3\n      pop\n      pop\n      dup2\n      swap1\n      sstore\n      pop\n        /* \"Smart Contracts/21_DecentralizedLending.sol\":1613:1623  msg.sender */\n      caller\n        /* \"Smart Contracts/21_DecentralizedLending.sol\":1605:1633  payable(msg.sender).transfer */\n      0xffffffffffffffffffffffffffffffffffffffff\n      and\n        /* \"Smart Contracts/21_DecentralizedLending.sol\":1605:1641  payable(msg.sender).transfer(amount) */\n      0x08fc\n        /* \"Smart Contracts/21_DecentralizedLending.sol\":1634:1640  amount */\n      dup5\n        /* \"Smart Contracts/21_DecentralizedLending.sol\":1605:1641  payable(msg.sender).transfer(amount) */\n      swap1\n      dup2\n      iszero\n      mul\n      swap1\n      mload(0x40)\n      0x00\n      mload(0x40)\n      dup1\n      dup4\n      sub\n      dup2\n      dup6\n      dup9\n      dup9\n      call\n      swap4\n      pop\n      pop\n      pop\n      pop\n      iszero\n      dup1\n      iszero\n      tag_130\n      jumpi\n      returndatacopy(0x00, 0x00, returndatasize)\n      revert(0x00, returndatasize)\n    tag_130:\n      pop\n        /* \"Smart Contracts/21_DecentralizedLending.sol\":1668:1678  msg.sender */\n      caller\n        /* \"Smart Contracts/21_DecentralizedLending.sol\":1659:1687  Borrowed(msg.sender, amount) */\n      0xffffffffffffffffffffffffffffffffffffffff\n      and\n      0xac59582e5396aca512fa873a2047e7f4c80f8f55d4a06cb34a78a0187f62719f\n        /* \"Smart Contracts/21_DecentralizedLending.sol\":1680:1686  amount */\n      dup5\n        /* \"Smart Contracts/21_DecentralizedLending.sol\":1659:1687  Borrowed(msg.sender, amount) */\n      mload(0x40)\n      tag_131\n      swap2\n      swap1\n      tag_31\n      jump\t// in\n    tag_131:\n      mload(0x40)\n      dup1\n      swap2\n      sub\n      swap1\n      log2\n        /* \"Smart Contracts/21_DecentralizedLending.sol\":1170:1695  {... */\n      pop\n      pop\n        /* \"Smart Contracts/21_DecentralizedLending.sol\":1129:1695  function borrow(uint256 amount) external {... */\n      pop\n      jump\t// out\n        /* \"Smart Contracts/21_DecentralizedLending.sol\":738:964  function deposit() external payable {... */\n    tag_73:\n        /* \"Smart Contracts/21_DecentralizedLending.sol\":805:806  0 */\n      0x00\n        /* \"Smart Contracts/21_DecentralizedLending.sol\":793:802  msg.value */\n      callvalue\n        /* \"Smart Contracts/21_DecentralizedLending.sol\":793:806  msg.value > 0 */\n      gt\n        /* \"Smart Contracts/21_DecentralizedLending.sol\":785:823  require(msg.value > 0, \"Zero deposit\") */\n      tag_133\n      jumpi\n      mload(0x40)\n      0x08c379a000000000000000000000000000000000000000000000000000000000\n      dup2\n      mstore\n      0x04\n      add\n      tag_134\n      swap1\n      tag_135\n      jump\t// in\n    tag_134:\n      mload(0x40)\n      dup1\n      swap2\n      sub\n      swap1\n      revert\n    tag_133:\n        /* \"Smart Contracts/21_DecentralizedLending.sol\":860:869  msg.value */\n      callvalue\n        /* \"Smart Contracts/21_DecentralizedLending.sol\":836:844  deposits */\n      0x00\n        /* \"Smart Contracts/21_DecentralizedLending.sol\":836:856  deposits[msg.sender] */\n      0x00\n        /* \"Smart Contracts/21_DecentralizedLending.sol\":845:855  msg.sender */\n      caller\n        /* \"Smart Contracts/21_DecentralizedLending.sol\":836:856  deposits[msg.sender] */\n      0xffffffffffffffffffffffffffffffffffffffff\n      and\n      0xffffffffffffffffffffffffffffffffffffffff\n      and\n      dup2\n      mstore\n      0x20\n      add\n      swap1\n      dup2\n      mstore\n      0x20\n      add\n      0x00\n      keccak256\n      0x00\n        /* \"Smart Contracts/21_DecentralizedLending.sol\":836:869  deposits[msg.sender] += msg.value */\n      dup3\n      dup3\n      sload\n      tag_136\n      swap2\n      swap1\n      tag_85\n      jump\t// in\n    tag_136:\n      swap3\n      pop\n      pop\n      dup2\n      swap1\n      sstore\n      pop\n        /* \"Smart Contracts/21_DecentralizedLending.sol\":897:906  msg.value */\n      callvalue\n        /* \"Smart Contracts/21_DecentralizedLending.sol\":880:893  totalDeposits */\n      0x03\n      0x00\n        /* \"Smart Contracts/21_DecentralizedLending.sol\":880:906  totalDeposits += msg.value */\n      dup3\n      dup3\n      sload\n      tag_137\n      swap2\n      swap1\n      tag_85\n      jump\t// in\n    tag_137:\n      swap3\n      pop\n      pop\n      dup2\n      swap1\n      sstore\n      pop\n        /* \"Smart Contracts/21_DecentralizedLending.sol\":934:944  msg.sender */\n      caller\n        /* \"Smart Contracts/21_DecentralizedLending.sol\":924:956  Deposited(msg.sender, msg.value) */\n      0xffffffffffffffffffffffffffffffffffffffff\n      and\n      0x2da466a7b24304f47e87fa2e1e5a81b9831ce54fec19055ce277ca2f39ba42c4\n        /* \"Smart Contracts/21_DecentralizedLending.sol\":946:955  msg.value */\n      callvalue\n        /* \"Smart Contracts/21_DecentralizedLending.sol\":924:956  Deposited(msg.sender, msg.value) */\n      mload(0x40)\n      tag_138\n      swap2\n      swap1\n      tag_31\n      jump\t// in\n    tag_138:\n      mload(0x40)\n      dup1\n      swap2\n      sub\n      swap1\n      log2\n        /* \"Smart Contracts/21_DecentralizedLending.sol\":738:964  function deposit() external payable {... */\n      jump\t// out\n        /* \"Smart Contracts/21_DecentralizedLending.sol\":100:143  mapping(address => uint256) public deposits */\n    tag_77:\n      mstore(0x20, 0x00)\n      dup1\n      0x00\n      mstore\n      keccak256(0x00, 0x40)\n      0x00\n      swap2\n      pop\n      swap1\n      pop\n      sload\n      dup2\n      jump\t// out\n        /* \"#utility.yul\":88:205   */\n    tag_140:\n        /* \"#utility.yul\":197:198   */\n      0x00\n        /* \"#utility.yul\":194:195   */\n      0x00\n        /* \"#utility.yul\":187:199   */\n      revert\n        /* \"#utility.yul\":334:460   */\n    tag_142:\n        /* \"#utility.yul\":371:378   */\n      0x00\n        /* \"#utility.yul\":411:453   */\n      0xffffffffffffffffffffffffffffffffffffffff\n        /* \"#utility.yul\":404:409   */\n      dup3\n        /* \"#utility.yul\":400:454   */\n      and\n        /* \"#utility.yul\":389:454   */\n      swap1\n      pop\n        /* \"#utility.yul\":334:460   */\n      swap2\n      swap1\n      pop\n      jump\t// out\n        /* \"#utility.yul\":466:562   */\n    tag_143:\n        /* \"#utility.yul\":503:510   */\n      0x00\n        /* \"#utility.yul\":532:556   */\n      tag_175\n        /* \"#utility.yul\":550:555   */\n      dup3\n        /* \"#utility.yul\":532:556   */\n      tag_142\n      jump\t// in\n    tag_175:\n        /* \"#utility.yul\":521:556   */\n      swap1\n      pop\n        /* \"#utility.yul\":466:562   */\n      swap2\n      swap1\n      pop\n      jump\t// out\n        /* \"#utility.yul\":568:690   */\n    tag_144:\n        /* \"#utility.yul\":641:665   */\n      tag_177\n        /* \"#utility.yul\":659:664   */\n      dup2\n        /* \"#utility.yul\":641:665   */\n      tag_143\n      jump\t// in\n    tag_177:\n        /* \"#utility.yul\":634:639   */\n      dup2\n        /* \"#utility.yul\":631:666   */\n      eq\n        /* \"#utility.yul\":621:684   */\n      tag_178\n      jumpi\n        /* \"#utility.yul\":680:681   */\n      0x00\n        /* \"#utility.yul\":677:678   */\n      0x00\n        /* \"#utility.yul\":670:682   */\n      revert\n        /* \"#utility.yul\":621:684   */\n    tag_178:\n        /* \"#utility.yul\":568:690   */\n      pop\n      jump\t// out\n        /* \"#utility.yul\":696:835   */\n    tag_145:\n        /* \"#utility.yul\":742:747   */\n      0x00\n        /* \"#utility.yul\":780:786   */\n      dup2\n        /* \"#utility.yul\":767:787   */\n      calldataload\n        /* \"#utility.yul\":758:787   */\n      swap1\n      pop\n        /* \"#utility.yul\":796:829   */\n      tag_180\n        /* \"#utility.yul\":823:828   */\n      dup2\n        /* \"#utility.yul\":796:829   */\n      tag_144\n      jump\t// in\n    tag_180:\n        /* \"#utility.yul\":696:835   */\n      swap3\n      swap2\n      pop\n      pop\n      jump\t// out\n        /* \"#utility.yul\":841:1170   */\n    tag_25:\n        /* \"#utility.yul\":900:906   */\n      0x00\n        /* \"#utility.yul\":949:951   */\n      0x20\n        /* \"#utility.yul\":937:946   */\n      dup3\n        /* \"#utility.yul\":928:935   */\n      dup5\n        /* \"#utility.yul\":924:947   */\n      sub\n        /* \"#utility.yul\":920:952   */\n      slt\n        /* \"#utility.yul\":917:1036   */\n      iszero\n      tag_182\n      jumpi\n        /* \"#utility.yul\":955:1034   */\n      tag_183\n      tag_140\n      jump\t// in\n    tag_183:\n        /* \"#utility.yul\":917:1036   */\n    tag_182:\n        /* \"#utility.yul\":1075:1076   */\n      0x00\n        /* \"#utility.yul\":1100:1153   */\n      tag_184\n        /* \"#utility.yul\":1145:1152   */\n      dup5\n        /* \"#utility.yul\":1136:1142   */\n      dup3\n        /* \"#utility.yul\":1125:1134   */\n      dup6\n        /* \"#utility.yul\":1121:1143   */\n      add\n        /* \"#utility.yul\":1100:1153   */\n      tag_145\n      jump\t// in\n    tag_184:\n        /* \"#utility.yul\":1090:1153   */\n      swap2\n      pop\n        /* \"#utility.yul\":1046:1163   */\n      pop\n        /* \"#utility.yul\":841:1170   */\n      swap3\n      swap2\n      pop\n      pop\n      jump\t// out\n        /* \"#utility.yul\":1176:1253   */\n    tag_146:\n        /* \"#utility.yul\":1213:1220   */\n      0x00\n        /* \"#utility.yul\":1242:1247   */\n      dup2\n        /* \"#utility.yul\":1231:1247   */\n      swap1\n      pop\n        /* \"#utility.yul\":1176:1253   */\n      swap2\n      swap1\n      pop\n      jump\t// out\n        /* \"#utility.yul\":1259:1377   */\n    tag_147:\n        /* \"#utility.yul\":1346:1370   */\n      tag_187\n        /* \"#utility.yul\":1364:1369   */\n      dup2\n        /* \"#utility.yul\":1346:1370   */\n      tag_146\n      jump\t// in\n    tag_187:\n        /* \"#utility.yul\":1341:1344   */\n      dup3\n        /* \"#utility.yul\":1334:1371   */\n      mstore\n        /* \"#utility.yul\":1259:1377   */\n      pop\n      pop\n      jump\t// out\n        /* \"#utility.yul\":1383:1605   */\n    tag_31:\n        /* \"#utility.yul\":1476:1480   */\n      0x00\n        /* \"#utility.yul\":1514:1516   */\n      0x20\n        /* \"#utility.yul\":1503:1512   */\n      dup3\n        /* \"#utility.yul\":1499:1517   */\n      add\n        /* \"#utility.yul\":1491:1517   */\n      swap1\n      pop\n        /* \"#utility.yul\":1527:1598   */\n      tag_189\n        /* \"#utility.yul\":1595:1596   */\n      0x00\n        /* \"#utility.yul\":1584:1593   */\n      dup4\n        /* \"#utility.yul\":1580:1597   */\n      add\n        /* \"#utility.yul\":1571:1577   */\n      dup5\n        /* \"#utility.yul\":1527:1598   */\n      tag_147\n      jump\t// in\n    tag_189:\n        /* \"#utility.yul\":1383:1605   */\n      swap3\n      swap2\n      pop\n      pop\n      jump\t// out\n        /* \"#utility.yul\":1611:1733   */\n    tag_148:\n        /* \"#utility.yul\":1684:1708   */\n      tag_191\n        /* \"#utility.yul\":1702:1707   */\n      dup2\n        /* \"#utility.yul\":1684:1708   */\n      tag_146\n      jump\t// in\n    tag_191:\n        /* \"#utility.yul\":1677:1682   */\n      dup2\n        /* \"#utility.yul\":1674:1709   */\n      eq\n        /* \"#utility.yul\":1664:1727   */\n      tag_192\n      jumpi\n        /* \"#utility.yul\":1723:1724   */\n      0x00\n        /* \"#utility.yul\":1720:1721   */\n      0x00\n        /* \"#utility.yul\":1713:1725   */\n      revert\n        /* \"#utility.yul\":1664:1727   */\n    tag_192:\n        /* \"#utility.yul\":1611:1733   */\n      pop\n      jump\t// out\n        /* \"#utility.yul\":1739:1878   */\n    tag_149:\n        /* \"#utility.yul\":1785:1790   */\n      0x00\n        /* \"#utility.yul\":1823:1829   */\n      dup2\n        /* \"#utility.yul\":1810:1830   */\n      calldataload\n        /* \"#utility.yul\":1801:1830   */\n      swap1\n      pop\n        /* \"#utility.yul\":1839:1872   */\n      tag_194\n        /* \"#utility.yul\":1866:1871   */\n      dup2\n        /* \"#utility.yul\":1839:1872   */\n      tag_148\n      jump\t// in\n    tag_194:\n        /* \"#utility.yul\":1739:1878   */\n      swap3\n      swap2\n      pop\n      pop\n      jump\t// out\n        /* \"#utility.yul\":1884:2213   */\n    tag_70:\n        /* \"#utility.yul\":1943:1949   */\n      0x00\n        /* \"#utility.yul\":1992:1994   */\n      0x20\n        /* \"#utility.yul\":1980:1989   */\n      dup3\n        /* \"#utility.yul\":1971:1978   */\n      dup5\n        /* \"#utility.yul\":1967:1990   */\n      sub\n        /* \"#utility.yul\":1963:1995   */\n      slt\n        /* \"#utility.yul\":1960:2079   */\n      iszero\n      tag_196\n      jumpi\n        /* \"#utility.yul\":1998:2077   */\n      tag_197\n      tag_140\n      jump\t// in\n    tag_197:\n        /* \"#utility.yul\":1960:2079   */\n    tag_196:\n        /* \"#utility.yul\":2118:2119   */\n      0x00\n        /* \"#utility.yul\":2143:2196   */\n      tag_198\n        /* \"#utility.yul\":2188:2195   */\n      dup5\n        /* \"#utility.yul\":2179:2185   */\n      dup3\n        /* \"#utility.yul\":2168:2177   */\n      dup6\n        /* \"#utility.yul\":2164:2186   */\n      add\n        /* \"#utility.yul\":2143:2196   */\n      tag_149\n      jump\t// in\n    tag_198:\n        /* \"#utility.yul\":2133:2196   */\n      swap2\n      pop\n        /* \"#utility.yul\":2089:2206   */\n      pop\n        /* \"#utility.yul\":1884:2213   */\n      swap3\n      swap2\n      pop\n      pop\n      jump\t// out\n        /* \"#utility.yul\":2219:2388   */\n    tag_150:\n        /* \"#utility.yul\":2303:2314   */\n      0x00\n        /* \"#utility.yul\":2337:2343   */\n      dup3\n        /* \"#utility.yul\":2332:2335   */\n      dup3\n        /* \"#utility.yul\":2325:2344   */\n      mstore\n        /* \"#utility.yul\":2377:2381   */\n      0x20\n        /* \"#utility.yul\":2372:2375   */\n      dup3\n        /* \"#utility.yul\":2368:2382   */\n      add\n        /* \"#utility.yul\":2353:2382   */\n      swap1\n      pop\n        /* \"#utility.yul\":2219:2388   */\n      swap3\n      swap2\n      pop\n      pop\n      jump\t// out\n        /* \"#utility.yul\":2394:2559   */\n    tag_151:\n        /* \"#utility.yul\":2534:2551   */\n      0x4c6f616e206973206865616c7468790000000000000000000000000000000000\n        /* \"#utility.yul\":2530:2531   */\n      0x00\n        /* \"#utility.yul\":2522:2528   */\n      dup3\n        /* \"#utility.yul\":2518:2532   */\n      add\n        /* \"#utility.yul\":2511:2552   */\n      mstore\n        /* \"#utility.yul\":2394:2559   */\n      pop\n      jump\t// out\n        /* \"#utility.yul\":2565:2931   */\n    tag_152:\n        /* \"#utility.yul\":2707:2710   */\n      0x00\n        /* \"#utility.yul\":2728:2795   */\n      tag_202\n        /* \"#utility.yul\":2792:2794   */\n      0x0f\n        /* \"#utility.yul\":2787:2790   */\n      dup4\n        /* \"#utility.yul\":2728:2795   */\n      tag_150\n      jump\t// in\n    tag_202:\n        /* \"#utility.yul\":2721:2795   */\n      swap2\n      pop\n        /* \"#utility.yul\":2804:2897   */\n      tag_203\n        /* \"#utility.yul\":2893:2896   */\n      dup3\n        /* \"#utility.yul\":2804:2897   */\n      tag_151\n      jump\t// in\n    tag_203:\n        /* \"#utility.yul\":2922:2924   */\n      0x20\n        /* \"#utility.yul\":2917:2920   */\n      dup3\n        /* \"#utility.yul\":2913:2925   */\n      add\n        /* \"#utility.yul\":2906:2925   */\n      swap1\n      pop\n        /* \"#utility.yul\":2565:2931   */\n      swap2\n      swap1\n      pop\n      jump\t// out\n        /* \"#utility.yul\":2937:3356   */\n    tag_83:\n        /* \"#utility.yul\":3103:3107   */\n      0x00\n        /* \"#utility.yul\":3141:3143   */\n      0x20\n        /* \"#utility.yul\":3130:3139   */\n      dup3\n        /* \"#utility.yul\":3126:3144   */\n      add\n        /* \"#utility.yul\":3118:3144   */\n      swap1\n      pop\n        /* \"#utility.yul\":3190:3199   */\n      dup2\n        /* \"#utility.yul\":3184:3188   */\n      dup2\n        /* \"#utility.yul\":3180:3200   */\n      sub\n        /* \"#utility.yul\":3176:3177   */\n      0x00\n        /* \"#utility.yul\":3165:3174   */\n      dup4\n        /* \"#utility.yul\":3161:3178   */\n      add\n        /* \"#utility.yul\":3154:3201   */\n      mstore\n        /* \"#utility.yul\":3218:3349   */\n      tag_205\n        /* \"#utility.yul\":3344:3348   */\n      dup2\n        /* \"#utility.yul\":3218:3349   */\n      tag_152\n      jump\t// in\n    tag_205:\n        /* \"#utility.yul\":3210:3349   */\n      swap1\n      pop\n        /* \"#utility.yul\":2937:3356   */\n      swap2\n      swap1\n      pop\n      jump\t// out\n        /* \"#utility.yul\":3362:3542   */\n    tag_153:\n        /* \"#utility.yul\":3410:3487   */\n      0x4e487b7100000000000000000000000000000000000000000000000000000000\n        /* \"#utility.yul\":3407:3408   */\n      0x00\n        /* \"#utility.yul\":3400:3488   */\n      mstore\n        /* \"#utility.yul\":3507:3511   */\n      0x11\n        /* \"#utility.yul\":3504:3505   */\n      0x04\n        /* \"#utility.yul\":3497:3512   */\n      mstore\n        /* \"#utility.yul\":3531:3535   */\n      0x24\n        /* \"#utility.yul\":3528:3529   */\n      0x00\n        /* \"#utility.yul\":3521:3536   */\n      revert\n        /* \"#utility.yul\":3548:3739   */\n    tag_85:\n        /* \"#utility.yul\":3588:3591   */\n      0x00\n        /* \"#utility.yul\":3607:3627   */\n      tag_208\n        /* \"#utility.yul\":3625:3626   */\n      dup3\n        /* \"#utility.yul\":3607:3627   */\n      tag_146\n      jump\t// in\n    tag_208:\n        /* \"#utility.yul\":3602:3627   */\n      swap2\n      pop\n        /* \"#utility.yul\":3641:3661   */\n      tag_209\n        /* \"#utility.yul\":3659:3660   */\n      dup4\n        /* \"#utility.yul\":3641:3661   */\n      tag_146\n      jump\t// in\n    tag_209:\n        /* \"#utility.yul\":3636:3661   */\n      swap3\n      pop\n        /* \"#utility.yul\":3684:3685   */\n      dup3\n        /* \"#utility.yul\":3681:3682   */\n      dup3\n        /* \"#utility.yul\":3677:3686   */\n      add\n        /* \"#utility.yul\":3670:3686   */\n      swap1\n      pop\n        /* \"#utility.yul\":3705:3708   */\n      dup1\n        /* \"#utility.yul\":3702:3703   */\n      dup3\n        /* \"#utility.yul\":3699:3709   */\n      gt\n        /* \"#utility.yul\":3696:3732   */\n      iszero\n      tag_210\n      jumpi\n        /* \"#utility.yul\":3712:3730   */\n      tag_211\n      tag_153\n      jump\t// in\n    tag_211:\n        /* \"#utility.yul\":3696:3732   */\n    tag_210:\n        /* \"#utility.yul\":3548:3739   */\n      swap3\n      swap2\n      pop\n      pop\n      jump\t// out\n        /* \"#utility.yul\":3745:4155   */\n    tag_87:\n        /* \"#utility.yul\":3785:3792   */\n      0x00\n        /* \"#utility.yul\":3808:3828   */\n      tag_213\n        /* \"#utility.yul\":3826:3827   */\n      dup3\n        /* \"#utility.yul\":3808:3828   */\n      tag_146\n      jump\t// in\n    tag_213:\n        /* \"#utility.yul\":3803:3828   */\n      swap2\n      pop\n        /* \"#utility.yul\":3842:3862   */\n      tag_214\n        /* \"#utility.yul\":3860:3861   */\n      dup4\n        /* \"#utility.yul\":3842:3862   */\n      tag_146\n      jump\t// in\n    tag_214:\n        /* \"#utility.yul\":3837:3862   */\n      swap3\n      pop\n        /* \"#utility.yul\":3897:3898   */\n      dup3\n        /* \"#utility.yul\":3894:3895   */\n      dup3\n        /* \"#utility.yul\":3890:3899   */\n      mul\n        /* \"#utility.yul\":3919:3949   */\n      tag_215\n        /* \"#utility.yul\":3937:3948   */\n      dup2\n        /* \"#utility.yul\":3919:3949   */\n      tag_146\n      jump\t// in\n    tag_215:\n        /* \"#utility.yul\":3908:3949   */\n      swap2\n      pop\n        /* \"#utility.yul\":4098:4099   */\n      dup3\n        /* \"#utility.yul\":4089:4096   */\n      dup3\n        /* \"#utility.yul\":4085:4100   */\n      div\n        /* \"#utility.yul\":4082:4083   */\n      dup5\n        /* \"#utility.yul\":4079:4101   */\n      eq\n        /* \"#utility.yul\":4059:4060   */\n      dup4\n        /* \"#utility.yul\":4052:4061   */\n      iszero\n        /* \"#utility.yul\":4032:4115   */\n      or\n        /* \"#utility.yul\":4009:4148   */\n      tag_216\n      jumpi\n        /* \"#utility.yul\":4128:4146   */\n      tag_217\n      tag_153\n      jump\t// in\n    tag_217:\n        /* \"#utility.yul\":4009:4148   */\n    tag_216:\n        /* \"#utility.yul\":3793:4155   */\n      pop\n        /* \"#utility.yul\":3745:4155   */\n      swap3\n      swap2\n      pop\n      pop\n      jump\t// out\n        /* \"#utility.yul\":4161:4341   */\n    tag_154:\n        /* \"#utility.yul\":4209:4286   */\n      0x4e487b7100000000000000000000000000000000000000000000000000000000\n        /* \"#utility.yul\":4206:4207   */\n      0x00\n        /* \"#utility.yul\":4199:4287   */\n      mstore\n        /* \"#utility.yul\":4306:4310   */\n      0x12\n        /* \"#utility.yul\":4303:4304   */\n      0x04\n        /* \"#utility.yul\":4296:4311   */\n      mstore\n        /* \"#utility.yul\":4330:4334   */\n      0x24\n        /* \"#utility.yul\":4327:4328   */\n      0x00\n        /* \"#utility.yul\":4320:4335   */\n      revert\n        /* \"#utility.yul\":4347:4532   */\n    tag_89:\n        /* \"#utility.yul\":4387:4388   */\n      0x00\n        /* \"#utility.yul\":4404:4424   */\n      tag_220\n        /* \"#utility.yul\":4422:4423   */\n      dup3\n        /* \"#utility.yul\":4404:4424   */\n      tag_146\n      jump\t// in\n    tag_220:\n        /* \"#utility.yul\":4399:4424   */\n      swap2\n      pop\n        /* \"#utility.yul\":4438:4458   */\n      tag_221\n        /* \"#utility.yul\":4456:4457   */\n      dup4\n        /* \"#utility.yul\":4438:4458   */\n      tag_146\n      jump\t// in\n    tag_221:\n        /* \"#utility.yul\":4433:4458   */\n      swap3\n      pop\n        /* \"#utility.yul\":4477:4478   */\n      dup3\n        /* \"#utility.yul\":4467:4502   */\n      tag_222\n      jumpi\n        /* \"#utility.yul\":4482:4500   */\n      tag_223\n      tag_154\n      jump\t// in\n    tag_223:\n        /* \"#utility.yul\":4467:4502   */\n    tag_222:\n        /* \"#utility.yul\":4524:4525   */\n      dup3\n        /* \"#utility.yul\":4521:4522   */\n      dup3\n        /* \"#utility.yul\":4517:4526   */\n      div\n        /* \"#utility.yul\":4512:4526   */\n      swap1\n      pop\n        /* \"#utility.yul\":4347:4532   */\n      swap3\n      swap2\n      pop\n      pop\n      jump\t// out\n        /* \"#utility.yul\":4538:4695   */\n    tag_155:\n        /* \"#utility.yul\":4678:4687   */\n      0x4e6f206465627400000000000000000000000000000000000000000000000000\n        /* \"#utility.yul\":4674:4675   */\n      0x00\n        /* \"#utility.yul\":4666:4672   */\n      dup3\n        /* \"#utility.yul\":4662:4676   */\n      add\n        /* \"#utility.yul\":4655:4688   */\n      mstore\n        /* \"#utility.yul\":4538:4695   */\n      pop\n      jump\t// out\n        /* \"#utility.yul\":4701:5066   */\n    tag_156:\n        /* \"#utility.yul\":4843:4846   */\n      0x00\n        /* \"#utility.yul\":4864:4930   */\n      tag_226\n        /* \"#utility.yul\":4928:4929   */\n      0x07\n        /* \"#utility.yul\":4923:4926   */\n      dup4\n        /* \"#utility.yul\":4864:4930   */\n      tag_150\n      jump\t// in\n    tag_226:\n        /* \"#utility.yul\":4857:4930   */\n      swap2\n      pop\n        /* \"#utility.yul\":4939:5032   */\n      tag_227\n        /* \"#utility.yul\":5028:5031   */\n      dup3\n        /* \"#utility.yul\":4939:5032   */\n      tag_155\n      jump\t// in\n    tag_227:\n        /* \"#utility.yul\":5057:5059   */\n      0x20\n        /* \"#utility.yul\":5052:5055   */\n      dup3\n        /* \"#utility.yul\":5048:5060   */\n      add\n        /* \"#utility.yul\":5041:5060   */\n      swap1\n      pop\n        /* \"#utility.yul\":4701:5066   */\n      swap2\n      swap1\n      pop\n      jump\t// out\n        /* \"#utility.yul\":5072:5491   */\n    tag_95:\n        /* \"#utility.yul\":5238:5242   */\n      0x00\n        /* \"#utility.yul\":5276:5278   */\n      0x20\n        /* \"#utility.yul\":5265:5274   */\n      dup3\n        /* \"#utility.yul\":5261:5279   */\n      add\n        /* \"#utility.yul\":5253:5279   */\n      swap1\n      pop\n        /* \"#utility.yul\":5325:5334   */\n      dup2\n        /* \"#utility.yul\":5319:5323   */\n      dup2\n        /* \"#utility.yul\":5315:5335   */\n      sub\n        /* \"#utility.yul\":5311:5312   */\n      0x00\n        /* \"#utility.yul\":5300:5309   */\n      dup4\n        /* \"#utility.yul\":5296:5313   */\n      add\n        /* \"#utility.yul\":5289:5336   */\n      mstore\n        /* \"#utility.yul\":5353:5484   */\n      tag_229\n        /* \"#utility.yul\":5479:5483   */\n      dup2\n        /* \"#utility.yul\":5353:5484   */\n      tag_156\n      jump\t// in\n    tag_229:\n        /* \"#utility.yul\":5345:5484   */\n      swap1\n      pop\n        /* \"#utility.yul\":5072:5491   */\n      swap2\n      swap1\n      pop\n      jump\t// out\n        /* \"#utility.yul\":5497:5654   */\n    tag_157:\n        /* \"#utility.yul\":5637:5646   */\n      0x4f76657270617900000000000000000000000000000000000000000000000000\n        /* \"#utility.yul\":5633:5634   */\n      0x00\n        /* \"#utility.yul\":5625:5631   */\n      dup3\n        /* \"#utility.yul\":5621:5635   */\n      add\n        /* \"#utility.yul\":5614:5647   */\n      mstore\n        /* \"#utility.yul\":5497:5654   */\n      pop\n      jump\t// out\n        /* \"#utility.yul\":5660:6025   */\n    tag_158:\n        /* \"#utility.yul\":5802:5805   */\n      0x00\n        /* \"#utility.yul\":5823:5889   */\n      tag_232\n        /* \"#utility.yul\":5887:5888   */\n      0x07\n        /* \"#utility.yul\":5882:5885   */\n      dup4\n        /* \"#utility.yul\":5823:5889   */\n      tag_150\n      jump\t// in\n    tag_232:\n        /* \"#utility.yul\":5816:5889   */\n      swap2\n      pop\n        /* \"#utility.yul\":5898:5991   */\n      tag_233\n        /* \"#utility.yul\":5987:5990   */\n      dup3\n        /* \"#utility.yul\":5898:5991   */\n      tag_157\n      jump\t// in\n    tag_233:\n        /* \"#utility.yul\":6016:6018   */\n      0x20\n        /* \"#utility.yul\":6011:6014   */\n      dup3\n        /* \"#utility.yul\":6007:6019   */\n      add\n        /* \"#utility.yul\":6000:6019   */\n      swap1\n      pop\n        /* \"#utility.yul\":5660:6025   */\n      swap2\n      swap1\n      pop\n      jump\t// out\n        /* \"#utility.yul\":6031:6450   */\n    tag_98:\n        /* \"#utility.yul\":6197:6201   */\n      0x00\n        /* \"#utility.yul\":6235:6237   */\n      0x20\n        /* \"#utility.yul\":6224:6233   */\n      dup3\n        /* \"#utility.yul\":6220:6238   */\n      add\n        /* \"#utility.yul\":6212:6238   */\n      swap1\n      pop\n        /* \"#utility.yul\":6284:6293   */\n      dup2\n        /* \"#utility.yul\":6278:6282   */\n      dup2\n        /* \"#utility.yul\":6274:6294   */\n      sub\n        /* \"#utility.yul\":6270:6271   */\n      0x00\n        /* \"#utility.yul\":6259:6268   */\n      dup4\n        /* \"#utility.yul\":6255:6272   */\n      add\n        /* \"#utility.yul\":6248:6295   */\n      mstore\n        /* \"#utility.yul\":6312:6443   */\n      tag_235\n        /* \"#utility.yul\":6438:6442   */\n      dup2\n        /* \"#utility.yul\":6312:6443   */\n      tag_158\n      jump\t// in\n    tag_235:\n        /* \"#utility.yul\":6304:6443   */\n      swap1\n      pop\n        /* \"#utility.yul\":6031:6450   */\n      swap2\n      swap1\n      pop\n      jump\t// out\n        /* \"#utility.yul\":6456:6650   */\n    tag_100:\n        /* \"#utility.yul\":6496:6500   */\n      0x00\n        /* \"#utility.yul\":6516:6536   */\n      tag_237\n        /* \"#utility.yul\":6534:6535   */\n      dup3\n        /* \"#utility.yul\":6516:6536   */\n      tag_146\n      jump\t// in\n    tag_237:\n        /* \"#utility.yul\":6511:6536   */\n      swap2\n      pop\n        /* \"#utility.yul\":6550:6570   */\n      tag_238\n        /* \"#utility.yul\":6568:6569   */\n      dup4\n        /* \"#utility.yul\":6550:6570   */\n      tag_146\n      jump\t// in\n    tag_238:\n        /* \"#utility.yul\":6545:6570   */\n      swap3\n      pop\n        /* \"#utility.yul\":6594:6595   */\n      dup3\n        /* \"#utility.yul\":6591:6592   */\n      dup3\n        /* \"#utility.yul\":6587:6596   */\n      sub\n        /* \"#utility.yul\":6579:6596   */\n      swap1\n      pop\n        /* \"#utility.yul\":6618:6619   */\n      dup2\n        /* \"#utility.yul\":6612:6616   */\n      dup2\n        /* \"#utility.yul\":6609:6620   */\n      gt\n        /* \"#utility.yul\":6606:6643   */\n      iszero\n      tag_239\n      jumpi\n        /* \"#utility.yul\":6623:6641   */\n      tag_240\n      tag_153\n      jump\t// in\n    tag_240:\n        /* \"#utility.yul\":6606:6643   */\n    tag_239:\n        /* \"#utility.yul\":6456:6650   */\n      swap3\n      swap2\n      pop\n      pop\n      jump\t// out\n        /* \"#utility.yul\":6656:6821   */\n    tag_159:\n        /* \"#utility.yul\":6796:6813   */\n      0x5a65726f20636f6c6c61746572616c0000000000000000000000000000000000\n        /* \"#utility.yul\":6792:6793   */\n      0x00\n        /* \"#utility.yul\":6784:6790   */\n      dup3\n        /* \"#utility.yul\":6780:6794   */\n      add\n        /* \"#utility.yul\":6773:6814   */\n      mstore\n        /* \"#utility.yul\":6656:6821   */\n      pop\n      jump\t// out\n        /* \"#utility.yul\":6827:7193   */\n    tag_160:\n        /* \"#utility.yul\":6969:6972   */\n      0x00\n        /* \"#utility.yul\":6990:7057   */\n      tag_243\n        /* \"#utility.yul\":7054:7056   */\n      0x0f\n        /* \"#utility.yul\":7049:7052   */\n      dup4\n        /* \"#utility.yul\":6990:7057   */\n      tag_150\n      jump\t// in\n    tag_243:\n        /* \"#utility.yul\":6983:7057   */\n      swap2\n      pop\n        /* \"#utility.yul\":7066:7159   */\n      tag_244\n        /* \"#utility.yul\":7155:7158   */\n      dup3\n        /* \"#utility.yul\":7066:7159   */\n      tag_159\n      jump\t// in\n    tag_244:\n        /* \"#utility.yul\":7184:7186   */\n      0x20\n        /* \"#utility.yul\":7179:7182   */\n      dup3\n        /* \"#utility.yul\":7175:7187   */\n      add\n        /* \"#utility.yul\":7168:7187   */\n      swap1\n      pop\n        /* \"#utility.yul\":6827:7193   */\n      swap2\n      swap1\n      pop\n      jump\t// out\n        /* \"#utility.yul\":7199:7618   */\n    tag_112:\n        /* \"#utility.yul\":7365:7369   */\n      0x00\n        /* \"#utility.yul\":7403:7405   */\n      0x20\n        /* \"#utility.yul\":7392:7401   */\n      dup3\n        /* \"#utility.yul\":7388:7406   */\n      add\n        /* \"#utility.yul\":7380:7406   */\n      swap1\n      pop\n        /* \"#utility.yul\":7452:7461   */\n      dup2\n        /* \"#utility.yul\":7446:7450   */\n      dup2\n        /* \"#utility.yul\":7442:7462   */\n      sub\n        /* \"#utility.yul\":7438:7439   */\n      0x00\n        /* \"#utility.yul\":7427:7436   */\n      dup4\n        /* \"#utility.yul\":7423:7440   */\n      add\n        /* \"#utility.yul\":7416:7463   */\n      mstore\n        /* \"#utility.yul\":7480:7611   */\n      tag_246\n        /* \"#utility.yul\":7606:7610   */\n      dup2\n        /* \"#utility.yul\":7480:7611   */\n      tag_160\n      jump\t// in\n    tag_246:\n        /* \"#utility.yul\":7472:7611   */\n      swap1\n      pop\n        /* \"#utility.yul\":7199:7618   */\n      swap2\n      swap1\n      pop\n      jump\t// out\n        /* \"#utility.yul\":7624:7787   */\n    tag_161:\n        /* \"#utility.yul\":7764:7779   */\n      0x4e6f20636f6c6c61746572616c00000000000000000000000000000000000000\n        /* \"#utility.yul\":7760:7761   */\n      0x00\n        /* \"#utility.yul\":7752:7758   */\n      dup3\n        /* \"#utility.yul\":7748:7762   */\n      add\n        /* \"#utility.yul\":7741:7780   */\n      mstore\n        /* \"#utility.yul\":7624:7787   */\n      pop\n      jump\t// out\n        /* \"#utility.yul\":7793:8159   */\n    tag_162:\n        /* \"#utility.yul\":7935:7938   */\n      0x00\n        /* \"#utility.yul\":7956:8023   */\n      tag_249\n        /* \"#utility.yul\":8020:8022   */\n      0x0d\n        /* \"#utility.yul\":8015:8018   */\n      dup4\n        /* \"#utility.yul\":7956:8023   */\n      tag_150\n      jump\t// in\n    tag_249:\n        /* \"#utility.yul\":7949:8023   */\n      swap2\n      pop\n        /* \"#utility.yul\":8032:8125   */\n      tag_250\n        /* \"#utility.yul\":8121:8124   */\n      dup3\n        /* \"#utility.yul\":8032:8125   */\n      tag_161\n      jump\t// in\n    tag_250:\n        /* \"#utility.yul\":8150:8152   */\n      0x20\n        /* \"#utility.yul\":8145:8148   */\n      dup3\n        /* \"#utility.yul\":8141:8153   */\n      add\n        /* \"#utility.yul\":8134:8153   */\n      swap1\n      pop\n        /* \"#utility.yul\":7793:8159   */\n      swap2\n      swap1\n      pop\n      jump\t// out\n        /* \"#utility.yul\":8165:8584   */\n    tag_117:\n        /* \"#utility.yul\":8331:8335   */\n      0x00\n        /* \"#utility.yul\":8369:8371   */\n      0x20\n        /* \"#utility.yul\":8358:8367   */\n      dup3\n        /* \"#utility.yul\":8354:8372   */\n      add\n        /* \"#utility.yul\":8346:8372   */\n      swap1\n      pop\n        /* \"#utility.yul\":8418:8427   */\n      dup2\n        /* \"#utility.yul\":8412:8416   */\n      dup2\n        /* \"#utility.yul\":8408:8428   */\n      sub\n        /* \"#utility.yul\":8404:8405   */\n      0x00\n        /* \"#utility.yul\":8393:8402   */\n      dup4\n        /* \"#utility.yul\":8389:8406   */\n      add\n        /* \"#utility.yul\":8382:8429   */\n      mstore\n        /* \"#utility.yul\":8446:8577   */\n      tag_252\n        /* \"#utility.yul\":8572:8576   */\n      dup2\n        /* \"#utility.yul\":8446:8577   */\n      tag_162\n      jump\t// in\n    tag_252:\n        /* \"#utility.yul\":8438:8577   */\n      swap1\n      pop\n        /* \"#utility.yul\":8165:8584   */\n      swap2\n      swap1\n      pop\n      jump\t// out\n        /* \"#utility.yul\":8590:8753   */\n    tag_163:\n        /* \"#utility.yul\":8730:8745   */\n      0x45786365656473206c696d697400000000000000000000000000000000000000\n        /* \"#utility.yul\":8726:8727   */\n      0x00\n        /* \"#utility.yul\":8718:8724   */\n      dup3\n        /* \"#utility.yul\":8714:8728   */\n      add\n        /* \"#utility.yul\":8707:8746   */\n      mstore\n        /* \"#utility.yul\":8590:8753   */\n      pop\n      jump\t// out\n        /* \"#utility.yul\":8759:9125   */\n    tag_164:\n        /* \"#utility.yul\":8901:8904   */\n      0x00\n        /* \"#utility.yul\":8922:8989   */\n      tag_255\n        /* \"#utility.yul\":8986:8988   */\n      0x0d\n        /* \"#utility.yul\":8981:8984   */\n      dup4\n        /* \"#utility.yul\":8922:8989   */\n      tag_150\n      jump\t// in\n    tag_255:\n        /* \"#utility.yul\":8915:8989   */\n      swap2\n      pop\n        /* \"#utility.yul\":8998:9091   */\n      tag_256\n        /* \"#utility.yul\":9087:9090   */\n      dup3\n        /* \"#utility.yul\":8998:9091   */\n      tag_163\n      jump\t// in\n    tag_256:\n        /* \"#utility.yul\":9116:9118   */\n      0x20\n        /* \"#utility.yul\":9111:9114   */\n      dup3\n        /* \"#utility.yul\":9107:9119   */\n      add\n        /* \"#utility.yul\":9100:9119   */\n      swap1\n      pop\n        /* \"#utility.yul\":8759:9125   */\n      swap2\n      swap1\n      pop\n      jump\t// out\n        /* \"#utility.yul\":9131:9550   */\n    tag_123:\n        /* \"#utility.yul\":9297:9301   */\n      0x00\n        /* \"#utility.yul\":9335:9337   */\n      0x20\n        /* \"#utility.yul\":9324:9333   */\n      dup3\n        /* \"#utility.yul\":9320:9338   */\n      add\n        /* \"#utility.yul\":9312:9338   */\n      swap1\n      pop\n        /* \"#utility.yul\":9384:9393   */\n      dup2\n        /* \"#utility.yul\":9378:9382   */\n      dup2\n        /* \"#utility.yul\":9374:9394   */\n      sub\n        /* \"#utility.yul\":9370:9371   */\n      0x00\n        /* \"#utility.yul\":9359:9368   */\n      dup4\n        /* \"#utility.yul\":9355:9372   */\n      add\n        /* \"#utility.yul\":9348:9395   */\n      mstore\n        /* \"#utility.yul\":9412:9543   */\n      tag_258\n        /* \"#utility.yul\":9538:9542   */\n      dup2\n        /* \"#utility.yul\":9412:9543   */\n      tag_164\n      jump\t// in\n    tag_258:\n        /* \"#utility.yul\":9404:9543   */\n      swap1\n      pop\n        /* \"#utility.yul\":9131:9550   */\n      swap2\n      swap1\n      pop\n      jump\t// out\n        /* \"#utility.yul\":9556:9728   */\n    tag_165:\n        /* \"#utility.yul\":9696:9720   */\n      0x496e73756666696369656e74206c697175696469747900000000000000000000\n        /* \"#utility.yul\":9692:9693   */\n      0x00\n        /* \"#utility.yul\":9684:9690   */\n      dup3\n        /* \"#utility.yul\":9680:9694   */\n      add\n        /* \"#utility.yul\":9673:9721   */\n      mstore\n        /* \"#utility.yul\":9556:9728   */\n      pop\n      jump\t// out\n        /* \"#utility.yul\":9734:10100   */\n    tag_166:\n        /* \"#utility.yul\":9876:9879   */\n      0x00\n        /* \"#utility.yul\":9897:9964   */\n      tag_261\n        /* \"#utility.yul\":9961:9963   */\n      0x16\n        /* \"#utility.yul\":9956:9959   */\n      dup4\n        /* \"#utility.yul\":9897:9964   */\n      tag_150\n      jump\t// in\n    tag_261:\n        /* \"#utility.yul\":9890:9964   */\n      swap2\n      pop\n        /* \"#utility.yul\":9973:10066   */\n      tag_262\n        /* \"#utility.yul\":10062:10065   */\n      dup3\n        /* \"#utility.yul\":9973:10066   */\n      tag_165\n      jump\t// in\n    tag_262:\n        /* \"#utility.yul\":10091:10093   */\n      0x20\n        /* \"#utility.yul\":10086:10089   */\n      dup3\n        /* \"#utility.yul\":10082:10094   */\n      add\n        /* \"#utility.yul\":10075:10094   */\n      swap1\n      pop\n        /* \"#utility.yul\":9734:10100   */\n      swap2\n      swap1\n      pop\n      jump\t// out\n        /* \"#utility.yul\":10106:10525   */\n    tag_126:\n        /* \"#utility.yul\":10272:10276   */\n      0x00\n        /* \"#utility.yul\":10310:10312   */\n      0x20\n        /* \"#utility.yul\":10299:10308   */\n      dup3\n        /* \"#utility.yul\":10295:10313   */\n      add\n        /* \"#utility.yul\":10287:10313   */\n      swap1\n      pop\n        /* \"#utility.yul\":10359:10368   */\n      dup2\n        /* \"#utility.yul\":10353:10357   */\n      dup2\n        /* \"#utility.yul\":10349:10369   */\n      sub\n        /* \"#utility.yul\":10345:10346   */\n      0x00\n        /* \"#utility.yul\":10334:10343   */\n      dup4\n        /* \"#utility.yul\":10330:10347   */\n      add\n        /* \"#utility.yul\":10323:10370   */\n      mstore\n        /* \"#utility.yul\":10387:10518   */\n      tag_264\n        /* \"#utility.yul\":10513:10517   */\n      dup2\n        /* \"#utility.yul\":10387:10518   */\n      tag_166\n      jump\t// in\n    tag_264:\n        /* \"#utility.yul\":10379:10518   */\n      swap1\n      pop\n        /* \"#utility.yul\":10106:10525   */\n      swap2\n      swap1\n      pop\n      jump\t// out\n        /* \"#utility.yul\":10531:10693   */\n    tag_167:\n        /* \"#utility.yul\":10671:10685   */\n      0x5a65726f206465706f7369740000000000000000000000000000000000000000\n        /* \"#utility.yul\":10667:10668   */\n      0x00\n        /* \"#utility.yul\":10659:10665   */\n      dup3\n        /* \"#utility.yul\":10655:10669   */\n      add\n        /* \"#utility.yul\":10648:10686   */\n      mstore\n        /* \"#utility.yul\":10531:10693   */\n      pop\n      jump\t// out\n        /* \"#utility.yul\":10699:11065   */\n    tag_168:\n        /* \"#utility.yul\":10841:10844   */\n      0x00\n        /* \"#utility.yul\":10862:10929   */\n      tag_267\n        /* \"#utility.yul\":10926:10928   */\n      0x0c\n        /* \"#utility.yul\":10921:10924   */\n      dup4\n        /* \"#utility.yul\":10862:10929   */\n      tag_150\n      jump\t// in\n    tag_267:\n        /* \"#utility.yul\":10855:10929   */\n      swap2\n      pop\n        /* \"#utility.yul\":10938:11031   */\n      tag_268\n        /* \"#utility.yul\":11027:11030   */\n      dup3\n        /* \"#utility.yul\":10938:11031   */\n      tag_167\n      jump\t// in\n    tag_268:\n        /* \"#utility.yul\":11056:11058   */\n      0x20\n        /* \"#utility.yul\":11051:11054   */\n      dup3\n        /* \"#utility.yul\":11047:11059   */\n      add\n        /* \"#utility.yul\":11040:11059   */\n      swap1\n      pop\n        /* \"#utility.yul\":10699:11065   */\n      swap2\n      swap1\n      pop\n      jump\t// out\n        /* \"#utility.yul\":11071:11490   */\n    tag_135:\n        /* \"#utility.yul\":11237:11241   */\n      0x00\n        /* \"#utility.yul\":11275:11277   */\n      0x20\n        /* \"#utility.yul\":11264:11273   */\n      dup3\n        /* \"#utility.yul\":11260:11278   */\n      add\n        /* \"#utility.yul\":11252:11278   */\n      swap1\n      pop\n        /* \"#utility.yul\":11324:11333   */\n      dup2\n        /* \"#utility.yul\":11318:11322   */\n      dup2\n        /* \"#utility.yul\":11314:11334   */\n      sub\n        /* \"#utility.yul\":11310:11311   */\n      0x00\n        /* \"#utility.yul\":11299:11308   */\n      dup4\n        /* \"#utility.yul\":11295:11312   */\n      add\n        /* \"#utility.yul\":11288:11335   */\n      mstore\n        /* \"#utility.yul\":11352:11483   */\n      tag_270\n        /* \"#utility.yul\":11478:11482   */\n      dup2\n        /* \"#utility.yul\":11352:11483   */\n      tag_168\n      jump\t// in\n    tag_270:\n        /* \"#utility.yul\":11344:11483   */\n      swap1\n      pop\n        /* \"#utility.yul\":11071:11490   */\n      swap2\n      swap1\n      pop\n      jump\t// out\n\n    auxdata: 0xa2646970667358221220b4f2c7803f2689b1d7196c26861c907bef06420006b0bd3b67ad15c3a3d1734e64736f6c634300081e0033\n}\n",
				"bytecode": {
					"linkReferences": {},
					"object": "6080604052348015600e575f5ffd5b506112038061001c5f395ff3fe6080604052600436106100e0575f3560e01c806370a887351161007e578063a5fdc5de11610058578063a5fdc5de14610271578063c5ebeaec146102ad578063d0e30db0146102d5578063fc7e286d146102df576100e7565b806370a88735146102135780637d8820971461021d57806390a8ae9b14610247576100e7565b806347bd3718116100ba57806347bd37181461014757806354a5706f1461017157806362965d8e146101ad5780636ad9f9df146101d7576100e7565b80632f865568146100eb5780633574d4c414610113578063402d88831461013d576100e7565b366100e757005b5f5ffd5b3480156100f6575f5ffd5b50610111600480360381019061010c9190610c9b565b61031b565b005b34801561011e575f5ffd5b506101276104fd565b6040516101349190610cde565b60405180910390f35b610145610502565b005b348015610152575f5ffd5b5061015b6106bc565b6040516101689190610cde565b60405180910390f35b34801561017c575f5ffd5b5061019760048036038101906101929190610c9b565b6106c2565b6040516101a49190610cde565b60405180910390f35b3480156101b8575f5ffd5b506101c16106d7565b6040516101ce9190610cde565b60405180910390f35b3480156101e2575f5ffd5b506101fd60048036038101906101f89190610c9b565b6106dc565b60405161020a9190610cde565b60405180910390f35b61021b610807565b005b348015610228575f5ffd5b5061023161089e565b60405161023e9190610cde565b60405180910390f35b348015610252575f5ffd5b5061025b6108a4565b6040516102689190610cde565b60405180910390f35b34801561027c575f5ffd5b5061029760048036038101906102929190610c9b565b6108a9565b6040516102a49190610cde565b60405180910390f35b3480156102b8575f5ffd5b506102d360048036038101906102ce9190610d21565b6108be565b005b6102dd610b2d565b005b3480156102ea575f5ffd5b5061030560048036038101906103009190610c9b565b610c29565b6040516103129190610cde565b60405180910390f35b670de0b6b3a764000061032d826106dc565b1061036d576040517f08c379a000000000000000000000000000000000000000000000000000000000815260040161036490610da6565b60405180910390fd5b5f60025f8373ffffffffffffffffffffffffffffffffffffffff1673ffffffffffffffffffffffffffffffffffffffff1681526020019081526020015f205490505f60015f8473ffffffffffffffffffffffffffffffffffffffff1673ffffffffffffffffffffffffffffffffffffffff1681526020019081526020015f20819055505f60025f8473ffffffffffffffffffffffffffffffffffffffff1673ffffffffffffffffffffffffffffffffffffffff1681526020019081526020015f20819055505f6064600a60646104439190610df1565b8361044e9190610e24565b6104589190610e92565b90503373ffffffffffffffffffffffffffffffffffffffff166108fc8290811502906040515f60405180830381858888f1935050505015801561049d573d5f5f3e3d5ffd5b503373ffffffffffffffffffffffffffffffffffffffff168373ffffffffffffffffffffffffffffffffffffffff167facd74f5a0eb0d086de0eebe2d1e70d5742838c88cb2cf492fc201d39e056f7e060405160405180910390a3505050565b600a81565b5f60015f3373ffffffffffffffffffffffffffffffffffffffff1673ffffffffffffffffffffffffffffffffffffffff1681526020019081526020015f205411610581576040517f08c379a000000000000000000000000000000000000000000000000000000000815260040161057890610f0c565b60405180910390fd5b60015f3373ffffffffffffffffffffffffffffffffffffffff1673ffffffffffffffffffffffffffffffffffffffff1681526020019081526020015f2054341115610601576040517f08c379a00000000000000000000000000000000000000000000000000000000081526004016105f890610f74565b60405180910390fd5b3460015f3373ffffffffffffffffffffffffffffffffffffffff1673ffffffffffffffffffffffffffffffffffffffff1681526020019081526020015f205f82825461064d9190610f92565b925050819055503460045f8282546106659190610f92565b925050819055503373ffffffffffffffffffffffffffffffffffffffff167f0516911bcc3a0a7412a44601057c0a0a1ec628bde049a84284bc428866534488346040516106b29190610cde565b60405180910390a2565b60045481565b6001602052805f5260405f205f915090505481565b604681565b5f5f60015f8473ffffffffffffffffffffffffffffffffffffffff1673ffffffffffffffffffffffffffffffffffffffff1681526020019081526020015f205403610749577fffffffffffffffffffffffffffffffffffffffffffffffffffffffffffffffff9050610802565b5f6064604b60025f8673ffffffffffffffffffffffffffffffffffffffff1673ffffffffffffffffffffffffffffffffffffffff1681526020019081526020015f20546107969190610e24565b6107a09190610e92565b905060015f8473ffffffffffffffffffffffffffffffffffffffff1673ffffffffffffffffffffffffffffffffffffffff1681526020019081526020015f2054670de0b6b3a7640000826107f49190610e24565b6107fe9190610e92565b9150505b919050565b5f3411610849576040517f08c379a00000000000000000000000000000000000000000000000000000000081526004016108409061100f565b60405180910390fd5b3460025f3373ffffffffffffffffffffffffffffffffffffffff1673ffffffffffffffffffffffffffffffffffffffff1681526020019081526020015f205f8282546108959190610df1565b92505081905550565b60035481565b604b81565b6002602052805f5260405f205f915090505481565b5f60025f3373ffffffffffffffffffffffffffffffffffffffff1673ffffffffffffffffffffffffffffffffffffffff1681526020019081526020015f205490505f8111610941576040517f08c379a000000000000000000000000000000000000000000000000000000000815260040161093890611077565b60405180910390fd5b5f60646046836109519190610e24565b61095b9190610e92565b9050808360015f3373ffffffffffffffffffffffffffffffffffffffff1673ffffffffffffffffffffffffffffffffffffffff1681526020019081526020015f20546109a79190610df1565b11156109e8576040517f08c379a00000000000000000000000000000000000000000000000000000000081526004016109df906110df565b60405180910390fd5b82471015610a2b576040517f08c379a0000000000000000000000000000000000000000000000000000000008152600401610a2290611147565b60405180910390fd5b8260015f3373ffffffffffffffffffffffffffffffffffffffff1673ffffffffffffffffffffffffffffffffffffffff1681526020019081526020015f205f828254610a779190610df1565b925050819055508260045f828254610a8f9190610df1565b925050819055503373ffffffffffffffffffffffffffffffffffffffff166108fc8490811502906040515f60405180830381858888f19350505050158015610ad9573d5f5f3e3d5ffd5b503373ffffffffffffffffffffffffffffffffffffffff167fac59582e5396aca512fa873a2047e7f4c80f8f55d4a06cb34a78a0187f62719f84604051610b209190610cde565b60405180910390a2505050565b5f3411610b6f576040517f08c379a0000000000000000000000000000000000000000000000000000000008152600401610b66906111af565b60405180910390fd5b345f5f3373ffffffffffffffffffffffffffffffffffffffff1673ffffffffffffffffffffffffffffffffffffffff1681526020019081526020015f205f828254610bba9190610df1565b925050819055503460035f828254610bd29190610df1565b925050819055503373ffffffffffffffffffffffffffffffffffffffff167f2da466a7b24304f47e87fa2e1e5a81b9831ce54fec19055ce277ca2f39ba42c434604051610c1f9190610cde565b60405180910390a2565b5f602052805f5260405f205f915090505481565b5f5ffd5b5f73ffffffffffffffffffffffffffffffffffffffff82169050919050565b5f610c6a82610c41565b9050919050565b610c7a81610c60565b8114610c84575f5ffd5b50565b5f81359050610c9581610c71565b92915050565b5f60208284031215610cb057610caf610c3d565b5b5f610cbd84828501610c87565b91505092915050565b5f819050919050565b610cd881610cc6565b82525050565b5f602082019050610cf15f830184610ccf565b92915050565b610d0081610cc6565b8114610d0a575f5ffd5b50565b5f81359050610d1b81610cf7565b92915050565b5f60208284031215610d3657610d35610c3d565b5b5f610d4384828501610d0d565b91505092915050565b5f82825260208201905092915050565b7f4c6f616e206973206865616c74687900000000000000000000000000000000005f82015250565b5f610d90600f83610d4c565b9150610d9b82610d5c565b602082019050919050565b5f6020820190508181035f830152610dbd81610d84565b9050919050565b7f4e487b71000000000000000000000000000000000000000000000000000000005f52601160045260245ffd5b5f610dfb82610cc6565b9150610e0683610cc6565b9250828201905080821115610e1e57610e1d610dc4565b5b92915050565b5f610e2e82610cc6565b9150610e3983610cc6565b9250828202610e4781610cc6565b91508282048414831517610e5e57610e5d610dc4565b5b5092915050565b7f4e487b71000000000000000000000000000000000000000000000000000000005f52601260045260245ffd5b5f610e9c82610cc6565b9150610ea783610cc6565b925082610eb757610eb6610e65565b5b828204905092915050565b7f4e6f2064656274000000000000000000000000000000000000000000000000005f82015250565b5f610ef6600783610d4c565b9150610f0182610ec2565b602082019050919050565b5f6020820190508181035f830152610f2381610eea565b9050919050565b7f4f766572706179000000000000000000000000000000000000000000000000005f82015250565b5f610f5e600783610d4c565b9150610f6982610f2a565b602082019050919050565b5f6020820190508181035f830152610f8b81610f52565b9050919050565b5f610f9c82610cc6565b9150610fa783610cc6565b9250828203905081811115610fbf57610fbe610dc4565b5b92915050565b7f5a65726f20636f6c6c61746572616c00000000000000000000000000000000005f82015250565b5f610ff9600f83610d4c565b915061100482610fc5565b602082019050919050565b5f6020820190508181035f83015261102681610fed565b9050919050565b7f4e6f20636f6c6c61746572616c000000000000000000000000000000000000005f82015250565b5f611061600d83610d4c565b915061106c8261102d565b602082019050919050565b5f6020820190508181035f83015261108e81611055565b9050919050565b7f45786365656473206c696d6974000000000000000000000000000000000000005f82015250565b5f6110c9600d83610d4c565b91506110d482611095565b602082019050919050565b5f6020820190508181035f8301526110f6816110bd565b9050919050565b7f496e73756666696369656e74206c6971756964697479000000000000000000005f82015250565b5f611131601683610d4c565b915061113c826110fd565b602082019050919050565b5f6020820190508181035f83015261115e81611125565b9050919050565b7f5a65726f206465706f73697400000000000000000000000000000000000000005f82015250565b5f611199600c83610d4c565b91506111a482611165565b602082019050919050565b5f6020820190508181035f8301526111c68161118d565b905091905056fea2646970667358221220b4f2c7803f2689b1d7196c26861c907bef06420006b0bd3b67ad15c3a3d1734e64736f6c634300081e0033",
					"opcodes": "PUSH1 0x80 PUSH1 0x40 MSTORE CALLVALUE DUP1 ISZERO PUSH1 0xE JUMPI PUSH0 PUSH0 REVERT JUMPDEST POP PUSH2 0x1203 DUP1 PUSH2 0x1C PUSH0 CODECOPY PUSH0 RETURN INVALID PUSH1 0x80 PUSH1 0x40 MSTORE PUSH1 0x4 CALLDATASIZE LT PUSH2 0xE0 JUMPI PUSH0 CALLDATALOAD PUSH1 0xE0 SHR DUP1 PUSH4 0x70A88735 GT PUSH2 0x7E JUMPI DUP1 PUSH4 0xA5FDC5DE GT PUSH2 0x58 JUMPI DUP1 PUSH4 0xA5FDC5DE EQ PUSH2 0x271 JUMPI DUP1 PUSH4 0xC5EBEAEC EQ PUSH2 0x2AD JUMPI DUP1 PUSH4 0xD0E30DB0 EQ PUSH2 0x2D5 JUMPI DUP1 PUSH4 0xFC7E286D EQ PUSH2 0x2DF JUMPI PUSH2 0xE7 JUMP JUMPDEST DUP1 PUSH4 0x70A88735 EQ PUSH2 0x213 JUMPI DUP1 PUSH4 0x7D882097 EQ PUSH2 0x21D JUMPI DUP1 PUSH4 0x90A8AE9B EQ PUSH2 0x247 JUMPI PUSH2 0xE7 JUMP JUMPDEST DUP1 PUSH4 0x47BD3718 GT PUSH2 0xBA JUMPI DUP1 PUSH4 0x47BD3718 EQ PUSH2 0x147 JUMPI DUP1 PUSH4 0x54A5706F EQ PUSH2 0x171 JUMPI DUP1 PUSH4 0x62965D8E EQ PUSH2 0x1AD JUMPI DUP1 PUSH4 0x6AD9F9DF EQ PUSH2 0x1D7 JUMPI PUSH2 0xE7 JUMP JUMPDEST DUP1 PUSH4 0x2F865568 EQ PUSH2 0xEB JUMPI DUP1 PUSH4 0x3574D4C4 EQ PUSH2 0x113 JUMPI DUP1 PUSH4 0x402D8883 EQ PUSH2 0x13D JUMPI PUSH2 0xE7 JUMP JUMPDEST CALLDATASIZE PUSH2 0xE7 JUMPI STOP JUMPDEST PUSH0 PUSH0 REVERT JUMPDEST CALLVALUE DUP1 ISZERO PUSH2 0xF6 JUMPI PUSH0 PUSH0 REVERT JUMPDEST POP PUSH2 0x111 PUSH1 0x4 DUP1 CALLDATASIZE SUB DUP2 ADD SWAP1 PUSH2 0x10C SWAP2 SWAP1 PUSH2 0xC9B JUMP JUMPDEST PUSH2 0x31B JUMP JUMPDEST STOP JUMPDEST CALLVALUE DUP1 ISZERO PUSH2 0x11E JUMPI PUSH0 PUSH0 REVERT JUMPDEST POP PUSH2 0x127 PUSH2 0x4FD JUMP JUMPDEST PUSH1 0x40 MLOAD PUSH2 0x134 SWAP2 SWAP1 PUSH2 0xCDE JUMP JUMPDEST PUSH1 0x40 MLOAD DUP1 SWAP2 SUB SWAP1 RETURN JUMPDEST PUSH2 0x145 PUSH2 0x502 JUMP JUMPDEST STOP JUMPDEST CALLVALUE DUP1 ISZERO PUSH2 0x152 JUMPI PUSH0 PUSH0 REVERT JUMPDEST POP PUSH2 0x15B PUSH2 0x6BC JUMP JUMPDEST PUSH1 0x40 MLOAD PUSH2 0x168 SWAP2 SWAP1 PUSH2 0xCDE JUMP JUMPDEST PUSH1 0x40 MLOAD DUP1 SWAP2 SUB SWAP1 RETURN JUMPDEST CALLVALUE DUP1 ISZERO PUSH2 0x17C JUMPI PUSH0 PUSH0 REVERT JUMPDEST POP PUSH2 0x197 PUSH1 0x4 DUP1 CALLDATASIZE SUB DUP2 ADD SWAP1 PUSH2 0x192 SWAP2 SWAP1 PUSH2 0xC9B JUMP JUMPDEST PUSH2 0x6C2 JUMP JUMPDEST PUSH1 0x40 MLOAD PUSH2 0x1A4 SWAP2 SWAP1 PUSH2 0xCDE JUMP JUMPDEST PUSH1 0x40 MLOAD DUP1 SWAP2 SUB SWAP1 RETURN JUMPDEST CALLVALUE DUP1 ISZERO PUSH2 0x1B8 JUMPI PUSH0 PUSH0 REVERT JUMPDEST POP PUSH2 0x1C1 PUSH2 0x6D7 JUMP JUMPDEST PUSH1 0x40 MLOAD PUSH2 0x1CE SWAP2 SWAP1 PUSH2 0xCDE JUMP JUMPDEST PUSH1 0x40 MLOAD DUP1 SWAP2 SUB SWAP1 RETURN JUMPDEST CALLVALUE DUP1 ISZERO PUSH2 0x1E2 JUMPI PUSH0 PUSH0 REVERT JUMPDEST POP PUSH2 0x1FD PUSH1 0x4 DUP1 CALLDATASIZE SUB DUP2 ADD SWAP1 PUSH2 0x1F8 SWAP2 SWAP1 PUSH2 0xC9B JUMP JUMPDEST PUSH2 0x6DC JUMP JUMPDEST PUSH1 0x40 MLOAD PUSH2 0x20A SWAP2 SWAP1 PUSH2 0xCDE JUMP JUMPDEST PUSH1 0x40 MLOAD DUP1 SWAP2 SUB SWAP1 RETURN JUMPDEST PUSH2 0x21B PUSH2 0x807 JUMP JUMPDEST STOP JUMPDEST CALLVALUE DUP1 ISZERO PUSH2 0x228 JUMPI PUSH0 PUSH0 REVERT JUMPDEST POP PUSH2 0x231 PUSH2 0x89E JUMP JUMPDEST PUSH1 0x40 MLOAD PUSH2 0x23E SWAP2 SWAP1 PUSH2 0xCDE JUMP JUMPDEST PUSH1 0x40 MLOAD DUP1 SWAP2 SUB SWAP1 RETURN JUMPDEST CALLVALUE DUP1 ISZERO PUSH2 0x252 JUMPI PUSH0 PUSH0 REVERT JUMPDEST POP PUSH2 0x25B PUSH2 0x8A4 JUMP JUMPDEST PUSH1 0x40 MLOAD PUSH2 0x268 SWAP2 SWAP1 PUSH2 0xCDE JUMP JUMPDEST PUSH1 0x40 MLOAD DUP1 SWAP2 SUB SWAP1 RETURN JUMPDEST CALLVALUE DUP1 ISZERO PUSH2 0x27C JUMPI PUSH0 PUSH0 REVERT JUMPDEST POP PUSH2 0x297 PUSH1 0x4 DUP1 CALLDATASIZE SUB DUP2 ADD SWAP1 PUSH2 0x292 SWAP2 SWAP1 PUSH2 0xC9B JUMP JUMPDEST PUSH2 0x8A9 JUMP JUMPDEST PUSH1 0x40 MLOAD PUSH2 0x2A4 SWAP2 SWAP1 PUSH2 0xCDE JUMP JUMPDEST PUSH1 0x40 MLOAD DUP1 SWAP2 SUB SWAP1 RETURN JUMPDEST CALLVALUE DUP1 ISZERO PUSH2 0x2B8 JUMPI PUSH0 PUSH0 REVERT JUMPDEST POP PUSH2 0x2D3 PUSH1 0x4 DUP1 CALLDATASIZE SUB DUP2 ADD SWAP1 PUSH2 0x2CE SWAP2 SWAP1 PUSH2 0xD21 JUMP JUMPDEST PUSH2 0x8BE JUMP JUMPDEST STOP JUMPDEST PUSH2 0x2DD PUSH2 0xB2D JUMP JUMPDEST STOP JUMPDEST CALLVALUE DUP1 ISZERO PUSH2 0x2EA JUMPI PUSH0 PUSH0 REVERT JUMPDEST POP PUSH2 0x305 PUSH1 0x4 DUP1 CALLDATASIZE SUB DUP2 ADD SWAP1 PUSH2 0x300 SWAP2 SWAP1 PUSH2 0xC9B JUMP JUMPDEST PUSH2 0xC29 JUMP JUMPDEST PUSH1 0x40 MLOAD PUSH2 0x312 SWAP2 SWAP1 PUSH2 0xCDE JUMP JUMPDEST PUSH1 0x40 MLOAD DUP1 SWAP2 SUB SWAP1 RETURN JUMPDEST PUSH8 0xDE0B6B3A7640000 PUSH2 0x32D DUP3 PUSH2 0x6DC JUMP JUMPDEST LT PUSH2 0x36D JUMPI PUSH1 0x40 MLOAD PUSH32 0x8C379A000000000000000000000000000000000000000000000000000000000 DUP2 MSTORE PUSH1 0x4 ADD PUSH2 0x364 SWAP1 PUSH2 0xDA6 JUMP JUMPDEST PUSH1 0x40 MLOAD DUP1 SWAP2 SUB SWAP1 REVERT JUMPDEST PUSH0 PUSH1 0x2 PUSH0 DUP4 PUSH20 0xFFFFFFFFFFFFFFFFFFFFFFFFFFFFFFFFFFFFFFFF AND PUSH20 0xFFFFFFFFFFFFFFFFFFFFFFFFFFFFFFFFFFFFFFFF AND DUP2 MSTORE PUSH1 0x20 ADD SWAP1 DUP2 MSTORE PUSH1 0x20 ADD PUSH0 KECCAK256 SLOAD SWAP1 POP PUSH0 PUSH1 0x1 PUSH0 DUP5 PUSH20 0xFFFFFFFFFFFFFFFFFFFFFFFFFFFFFFFFFFFFFFFF AND PUSH20 0xFFFFFFFFFFFFFFFFFFFFFFFFFFFFFFFFFFFFFFFF AND DUP2 MSTORE PUSH1 0x20 ADD SWAP1 DUP2 MSTORE PUSH1 0x20 ADD PUSH0 KECCAK256 DUP2 SWAP1 SSTORE POP PUSH0 PUSH1 0x2 PUSH0 DUP5 PUSH20 0xFFFFFFFFFFFFFFFFFFFFFFFFFFFFFFFFFFFFFFFF AND PUSH20 0xFFFFFFFFFFFFFFFFFFFFFFFFFFFFFFFFFFFFFFFF AND DUP2 MSTORE PUSH1 0x20 ADD SWAP1 DUP2 MSTORE PUSH1 0x20 ADD PUSH0 KECCAK256 DUP2 SWAP1 SSTORE POP PUSH0 PUSH1 0x64 PUSH1 0xA PUSH1 0x64 PUSH2 0x443 SWAP2 SWAP1 PUSH2 0xDF1 JUMP JUMPDEST DUP4 PUSH2 0x44E SWAP2 SWAP1 PUSH2 0xE24 JUMP JUMPDEST PUSH2 0x458 SWAP2 SWAP1 PUSH2 0xE92 JUMP JUMPDEST SWAP1 POP CALLER PUSH20 0xFFFFFFFFFFFFFFFFFFFFFFFFFFFFFFFFFFFFFFFF AND PUSH2 0x8FC DUP3 SWAP1 DUP2 ISZERO MUL SWAP1 PUSH1 0x40 MLOAD PUSH0 PUSH1 0x40 MLOAD DUP1 DUP4 SUB DUP2 DUP6 DUP9 DUP9 CALL SWAP4 POP POP POP POP ISZERO DUP1 ISZERO PUSH2 0x49D JUMPI RETURNDATASIZE PUSH0 PUSH0 RETURNDATACOPY RETURNDATASIZE PUSH0 REVERT JUMPDEST POP CALLER PUSH20 0xFFFFFFFFFFFFFFFFFFFFFFFFFFFFFFFFFFFFFFFF AND DUP4 PUSH20 0xFFFFFFFFFFFFFFFFFFFFFFFFFFFFFFFFFFFFFFFF AND PUSH32 0xACD74F5A0EB0D086DE0EEBE2D1E70D5742838C88CB2CF492FC201D39E056F7E0 PUSH1 0x40 MLOAD PUSH1 0x40 MLOAD DUP1 SWAP2 SUB SWAP1 LOG3 POP POP POP JUMP JUMPDEST PUSH1 0xA DUP2 JUMP JUMPDEST PUSH0 PUSH1 0x1 PUSH0 CALLER PUSH20 0xFFFFFFFFFFFFFFFFFFFFFFFFFFFFFFFFFFFFFFFF AND PUSH20 0xFFFFFFFFFFFFFFFFFFFFFFFFFFFFFFFFFFFFFFFF AND DUP2 MSTORE PUSH1 0x20 ADD SWAP1 DUP2 MSTORE PUSH1 0x20 ADD PUSH0 KECCAK256 SLOAD GT PUSH2 0x581 JUMPI PUSH1 0x40 MLOAD PUSH32 0x8C379A000000000000000000000000000000000000000000000000000000000 DUP2 MSTORE PUSH1 0x4 ADD PUSH2 0x578 SWAP1 PUSH2 0xF0C JUMP JUMPDEST PUSH1 0x40 MLOAD DUP1 SWAP2 SUB SWAP1 REVERT JUMPDEST PUSH1 0x1 PUSH0 CALLER PUSH20 0xFFFFFFFFFFFFFFFFFFFFFFFFFFFFFFFFFFFFFFFF AND PUSH20 0xFFFFFFFFFFFFFFFFFFFFFFFFFFFFFFFFFFFFFFFF AND DUP2 MSTORE PUSH1 0x20 ADD SWAP1 DUP2 MSTORE PUSH1 0x20 ADD PUSH0 KECCAK256 SLOAD CALLVALUE GT ISZERO PUSH2 0x601 JUMPI PUSH1 0x40 MLOAD PUSH32 0x8C379A000000000000000000000000000000000000000000000000000000000 DUP2 MSTORE PUSH1 0x4 ADD PUSH2 0x5F8 SWAP1 PUSH2 0xF74 JUMP JUMPDEST PUSH1 0x40 MLOAD DUP1 SWAP2 SUB SWAP1 REVERT JUMPDEST CALLVALUE PUSH1 0x1 PUSH0 CALLER PUSH20 0xFFFFFFFFFFFFFFFFFFFFFFFFFFFFFFFFFFFFFFFF AND PUSH20 0xFFFFFFFFFFFFFFFFFFFFFFFFFFFFFFFFFFFFFFFF AND DUP2 MSTORE PUSH1 0x20 ADD SWAP1 DUP2 MSTORE PUSH1 0x20 ADD PUSH0 KECCAK256 PUSH0 DUP3 DUP3 SLOAD PUSH2 0x64D SWAP2 SWAP1 PUSH2 0xF92 JUMP JUMPDEST SWAP3 POP POP DUP2 SWAP1 SSTORE POP CALLVALUE PUSH1 0x4 PUSH0 DUP3 DUP3 SLOAD PUSH2 0x665 SWAP2 SWAP1 PUSH2 0xF92 JUMP JUMPDEST SWAP3 POP POP DUP2 SWAP1 SSTORE POP CALLER PUSH20 0xFFFFFFFFFFFFFFFFFFFFFFFFFFFFFFFFFFFFFFFF AND PUSH32 0x516911BCC3A0A7412A44601057C0A0A1EC628BDE049A84284BC428866534488 CALLVALUE PUSH1 0x40 MLOAD PUSH2 0x6B2 SWAP2 SWAP1 PUSH2 0xCDE JUMP JUMPDEST PUSH1 0x40 MLOAD DUP1 SWAP2 SUB SWAP1 LOG2 JUMP JUMPDEST PUSH1 0x4 SLOAD DUP2 JUMP JUMPDEST PUSH1 0x1 PUSH1 0x20 MSTORE DUP1 PUSH0 MSTORE PUSH1 0x40 PUSH0 KECCAK256 PUSH0 SWAP2 POP SWAP1 POP SLOAD DUP2 JUMP JUMPDEST PUSH1 0x46 DUP2 JUMP JUMPDEST PUSH0 PUSH0 PUSH1 0x1 PUSH0 DUP5 PUSH20 0xFFFFFFFFFFFFFFFFFFFFFFFFFFFFFFFFFFFFFFFF AND PUSH20 0xFFFFFFFFFFFFFFFFFFFFFFFFFFFFFFFFFFFFFFFF AND DUP2 MSTORE PUSH1 0x20 ADD SWAP1 DUP2 MSTORE PUSH1 0x20 ADD PUSH0 KECCAK256 SLOAD SUB PUSH2 0x749 JUMPI PUSH32 0xFFFFFFFFFFFFFFFFFFFFFFFFFFFFFFFFFFFFFFFFFFFFFFFFFFFFFFFFFFFFFFFF SWAP1 POP PUSH2 0x802 JUMP JUMPDEST PUSH0 PUSH1 0x64 PUSH1 0x4B PUSH1 0x2 PUSH0 DUP7 PUSH20 0xFFFFFFFFFFFFFFFFFFFFFFFFFFFFFFFFFFFFFFFF AND PUSH20 0xFFFFFFFFFFFFFFFFFFFFFFFFFFFFFFFFFFFFFFFF AND DUP2 MSTORE PUSH1 0x20 ADD SWAP1 DUP2 MSTORE PUSH1 0x20 ADD PUSH0 KECCAK256 SLOAD PUSH2 0x796 SWAP2 SWAP1 PUSH2 0xE24 JUMP JUMPDEST PUSH2 0x7A0 SWAP2 SWAP1 PUSH2 0xE92 JUMP JUMPDEST SWAP1 POP PUSH1 0x1 PUSH0 DUP5 PUSH20 0xFFFFFFFFFFFFFFFFFFFFFFFFFFFFFFFFFFFFFFFF AND PUSH20 0xFFFFFFFFFFFFFFFFFFFFFFFFFFFFFFFFFFFFFFFF AND DUP2 MSTORE PUSH1 0x20 ADD SWAP1 DUP2 MSTORE PUSH1 0x20 ADD PUSH0 KECCAK256 SLOAD PUSH8 0xDE0B6B3A7640000 DUP3 PUSH2 0x7F4 SWAP2 SWAP1 PUSH2 0xE24 JUMP JUMPDEST PUSH2 0x7FE SWAP2 SWAP1 PUSH2 0xE92 JUMP JUMPDEST SWAP2 POP POP JUMPDEST SWAP2 SWAP1 POP JUMP JUMPDEST PUSH0 CALLVALUE GT PUSH2 0x849 JUMPI PUSH1 0x40 MLOAD PUSH32 0x8C379A000000000000000000000000000000000000000000000000000000000 DUP2 MSTORE PUSH1 0x4 ADD PUSH2 0x840 SWAP1 PUSH2 0x100F JUMP JUMPDEST PUSH1 0x40 MLOAD DUP1 SWAP2 SUB SWAP1 REVERT JUMPDEST CALLVALUE PUSH1 0x2 PUSH0 CALLER PUSH20 0xFFFFFFFFFFFFFFFFFFFFFFFFFFFFFFFFFFFFFFFF AND PUSH20 0xFFFFFFFFFFFFFFFFFFFFFFFFFFFFFFFFFFFFFFFF AND DUP2 MSTORE PUSH1 0x20 ADD SWAP1 DUP2 MSTORE PUSH1 0x20 ADD PUSH0 KECCAK256 PUSH0 DUP3 DUP3 SLOAD PUSH2 0x895 SWAP2 SWAP1 PUSH2 0xDF1 JUMP JUMPDEST SWAP3 POP POP DUP2 SWAP1 SSTORE POP JUMP JUMPDEST PUSH1 0x3 SLOAD DUP2 JUMP JUMPDEST PUSH1 0x4B DUP2 JUMP JUMPDEST PUSH1 0x2 PUSH1 0x20 MSTORE DUP1 PUSH0 MSTORE PUSH1 0x40 PUSH0 KECCAK256 PUSH0 SWAP2 POP SWAP1 POP SLOAD DUP2 JUMP JUMPDEST PUSH0 PUSH1 0x2 PUSH0 CALLER PUSH20 0xFFFFFFFFFFFFFFFFFFFFFFFFFFFFFFFFFFFFFFFF AND PUSH20 0xFFFFFFFFFFFFFFFFFFFFFFFFFFFFFFFFFFFFFFFF AND DUP2 MSTORE PUSH1 0x20 ADD SWAP1 DUP2 MSTORE PUSH1 0x20 ADD PUSH0 KECCAK256 SLOAD SWAP1 POP PUSH0 DUP2 GT PUSH2 0x941 JUMPI PUSH1 0x40 MLOAD PUSH32 0x8C379A000000000000000000000000000000000000000000000000000000000 DUP2 MSTORE PUSH1 0x4 ADD PUSH2 0x938 SWAP1 PUSH2 0x1077 JUMP JUMPDEST PUSH1 0x40 MLOAD DUP1 SWAP2 SUB SWAP1 REVERT JUMPDEST PUSH0 PUSH1 0x64 PUSH1 0x46 DUP4 PUSH2 0x951 SWAP2 SWAP1 PUSH2 0xE24 JUMP JUMPDEST PUSH2 0x95B SWAP2 SWAP1 PUSH2 0xE92 JUMP JUMPDEST SWAP1 POP DUP1 DUP4 PUSH1 0x1 PUSH0 CALLER PUSH20 0xFFFFFFFFFFFFFFFFFFFFFFFFFFFFFFFFFFFFFFFF AND PUSH20 0xFFFFFFFFFFFFFFFFFFFFFFFFFFFFFFFFFFFFFFFF AND DUP2 MSTORE PUSH1 0x20 ADD SWAP1 DUP2 MSTORE PUSH1 0x20 ADD PUSH0 KECCAK256 SLOAD PUSH2 0x9A7 SWAP2 SWAP1 PUSH2 0xDF1 JUMP JUMPDEST GT ISZERO PUSH2 0x9E8 JUMPI PUSH1 0x40 MLOAD PUSH32 0x8C379A000000000000000000000000000000000000000000000000000000000 DUP2 MSTORE PUSH1 0x4 ADD PUSH2 0x9DF SWAP1 PUSH2 0x10DF JUMP JUMPDEST PUSH1 0x40 MLOAD DUP1 SWAP2 SUB SWAP1 REVERT JUMPDEST DUP3 SELFBALANCE LT ISZERO PUSH2 0xA2B JUMPI PUSH1 0x40 MLOAD PUSH32 0x8C379A000000000000000000000000000000000000000000000000000000000 DUP2 MSTORE PUSH1 0x4 ADD PUSH2 0xA22 SWAP1 PUSH2 0x1147 JUMP JUMPDEST PUSH1 0x40 MLOAD DUP1 SWAP2 SUB SWAP1 REVERT JUMPDEST DUP3 PUSH1 0x1 PUSH0 CALLER PUSH20 0xFFFFFFFFFFFFFFFFFFFFFFFFFFFFFFFFFFFFFFFF AND PUSH20 0xFFFFFFFFFFFFFFFFFFFFFFFFFFFFFFFFFFFFFFFF AND DUP2 MSTORE PUSH1 0x20 ADD SWAP1 DUP2 MSTORE PUSH1 0x20 ADD PUSH0 KECCAK256 PUSH0 DUP3 DUP3 SLOAD PUSH2 0xA77 SWAP2 SWAP1 PUSH2 0xDF1 JUMP JUMPDEST SWAP3 POP POP DUP2 SWAP1 SSTORE POP DUP3 PUSH1 0x4 PUSH0 DUP3 DUP3 SLOAD PUSH2 0xA8F SWAP2 SWAP1 PUSH2 0xDF1 JUMP JUMPDEST SWAP3 POP POP DUP2 SWAP1 SSTORE POP CALLER PUSH20 0xFFFFFFFFFFFFFFFFFFFFFFFFFFFFFFFFFFFFFFFF AND PUSH2 0x8FC DUP5 SWAP1 DUP2 ISZERO MUL SWAP1 PUSH1 0x40 MLOAD PUSH0 PUSH1 0x40 MLOAD DUP1 DUP4 SUB DUP2 DUP6 DUP9 DUP9 CALL SWAP4 POP POP POP POP ISZERO DUP1 ISZERO PUSH2 0xAD9 JUMPI RETURNDATASIZE PUSH0 PUSH0 RETURNDATACOPY RETURNDATASIZE PUSH0 REVERT JUMPDEST POP CALLER PUSH20 0xFFFFFFFFFFFFFFFFFFFFFFFFFFFFFFFFFFFFFFFF AND PUSH32 0xAC59582E5396ACA512FA873A2047E7F4C80F8F55D4A06CB34A78A0187F62719F DUP5 PUSH1 0x40 MLOAD PUSH2 0xB20 SWAP2 SWAP1 PUSH2 0xCDE JUMP JUMPDEST PUSH1 0x40 MLOAD DUP1 SWAP2 SUB SWAP1 LOG2 POP POP POP JUMP JUMPDEST PUSH0 CALLVALUE GT PUSH2 0xB6F JUMPI PUSH1 0x40 MLOAD PUSH32 0x8C379A000000000000000000000000000000000000000000000000000000000 DUP2 MSTORE PUSH1 0x4 ADD PUSH2 0xB66 SWAP1 PUSH2 0x11AF JUMP JUMPDEST PUSH1 0x40 MLOAD DUP1 SWAP2 SUB SWAP1 REVERT JUMPDEST CALLVALUE PUSH0 PUSH0 CALLER PUSH20 0xFFFFFFFFFFFFFFFFFFFFFFFFFFFFFFFFFFFFFFFF AND PUSH20 0xFFFFFFFFFFFFFFFFFFFFFFFFFFFFFFFFFFFFFFFF AND DUP2 MSTORE PUSH1 0x20 ADD SWAP1 DUP2 MSTORE PUSH1 0x20 ADD PUSH0 KECCAK256 PUSH0 DUP3 DUP3 SLOAD PUSH2 0xBBA SWAP2 SWAP1 PUSH2 0xDF1 JUMP JUMPDEST SWAP3 POP POP DUP2 SWAP1 SSTORE POP CALLVALUE PUSH1 0x3 PUSH0 DUP3 DUP3 SLOAD PUSH2 0xBD2 SWAP2 SWAP1 PUSH2 0xDF1 JUMP JUMPDEST SWAP3 POP POP DUP2 SWAP1 SSTORE POP CALLER PUSH20 0xFFFFFFFFFFFFFFFFFFFFFFFFFFFFFFFFFFFFFFFF AND PUSH32 0x2DA466A7B24304F47E87FA2E1E5A81B9831CE54FEC19055CE277CA2F39BA42C4 CALLVALUE PUSH1 0x40 MLOAD PUSH2 0xC1F SWAP2 SWAP1 PUSH2 0xCDE JUMP JUMPDEST PUSH1 0x40 MLOAD DUP1 SWAP2 SUB SWAP1 LOG2 JUMP JUMPDEST PUSH0 PUSH1 0x20 MSTORE DUP1 PUSH0 MSTORE PUSH1 0x40 PUSH0 KECCAK256 PUSH0 SWAP2 POP SWAP1 POP SLOAD DUP2 JUMP JUMPDEST PUSH0 PUSH0 REVERT JUMPDEST PUSH0 PUSH20 0xFFFFFFFFFFFFFFFFFFFFFFFFFFFFFFFFFFFFFFFF DUP3 AND SWAP1 POP SWAP2 SWAP1 POP JUMP JUMPDEST PUSH0 PUSH2 0xC6A DUP3 PUSH2 0xC41 JUMP JUMPDEST SWAP1 POP SWAP2 SWAP1 POP JUMP JUMPDEST PUSH2 0xC7A DUP2 PUSH2 0xC60 JUMP JUMPDEST DUP2 EQ PUSH2 0xC84 JUMPI PUSH0 PUSH0 REVERT JUMPDEST POP JUMP JUMPDEST PUSH0 DUP2 CALLDATALOAD SWAP1 POP PUSH2 0xC95 DUP2 PUSH2 0xC71 JUMP JUMPDEST SWAP3 SWAP2 POP POP JUMP JUMPDEST PUSH0 PUSH1 0x20 DUP3 DUP5 SUB SLT ISZERO PUSH2 0xCB0 JUMPI PUSH2 0xCAF PUSH2 0xC3D JUMP JUMPDEST JUMPDEST PUSH0 PUSH2 0xCBD DUP5 DUP3 DUP6 ADD PUSH2 0xC87 JUMP JUMPDEST SWAP2 POP POP SWAP3 SWAP2 POP POP JUMP JUMPDEST PUSH0 DUP2 SWAP1 POP SWAP2 SWAP1 POP JUMP JUMPDEST PUSH2 0xCD8 DUP2 PUSH2 0xCC6 JUMP JUMPDEST DUP3 MSTORE POP POP JUMP JUMPDEST PUSH0 PUSH1 0x20 DUP3 ADD SWAP1 POP PUSH2 0xCF1 PUSH0 DUP4 ADD DUP5 PUSH2 0xCCF JUMP JUMPDEST SWAP3 SWAP2 POP POP JUMP JUMPDEST PUSH2 0xD00 DUP2 PUSH2 0xCC6 JUMP JUMPDEST DUP2 EQ PUSH2 0xD0A JUMPI PUSH0 PUSH0 REVERT JUMPDEST POP JUMP JUMPDEST PUSH0 DUP2 CALLDATALOAD SWAP1 POP PUSH2 0xD1B DUP2 PUSH2 0xCF7 JUMP JUMPDEST SWAP3 SWAP2 POP POP JUMP JUMPDEST PUSH0 PUSH1 0x20 DUP3 DUP5 SUB SLT ISZERO PUSH2 0xD36 JUMPI PUSH2 0xD35 PUSH2 0xC3D JUMP JUMPDEST JUMPDEST PUSH0 PUSH2 0xD43 DUP5 DUP3 DUP6 ADD PUSH2 0xD0D JUMP JUMPDEST SWAP2 POP POP SWAP3 SWAP2 POP POP JUMP JUMPDEST PUSH0 DUP3 DUP3 MSTORE PUSH1 0x20 DUP3 ADD SWAP1 POP SWAP3 SWAP2 POP POP JUMP JUMPDEST PUSH32 0x4C6F616E206973206865616C7468790000000000000000000000000000000000 PUSH0 DUP3 ADD MSTORE POP JUMP JUMPDEST PUSH0 PUSH2 0xD90 PUSH1 0xF DUP4 PUSH2 0xD4C JUMP JUMPDEST SWAP2 POP PUSH2 0xD9B DUP3 PUSH2 0xD5C JUMP JUMPDEST PUSH1 0x20 DUP3 ADD SWAP1 POP SWAP2 SWAP1 POP JUMP JUMPDEST PUSH0 PUSH1 0x20 DUP3 ADD SWAP1 POP DUP2 DUP2 SUB PUSH0 DUP4 ADD MSTORE PUSH2 0xDBD DUP2 PUSH2 0xD84 JUMP JUMPDEST SWAP1 POP SWAP2 SWAP1 POP JUMP JUMPDEST PUSH32 0x4E487B7100000000000000000000000000000000000000000000000000000000 PUSH0 MSTORE PUSH1 0x11 PUSH1 0x4 MSTORE PUSH1 0x24 PUSH0 REVERT JUMPDEST PUSH0 PUSH2 0xDFB DUP3 PUSH2 0xCC6 JUMP JUMPDEST SWAP2 POP PUSH2 0xE06 DUP4 PUSH2 0xCC6 JUMP JUMPDEST SWAP3 POP DUP3 DUP3 ADD SWAP1 POP DUP1 DUP3 GT ISZERO PUSH2 0xE1E JUMPI PUSH2 0xE1D PUSH2 0xDC4 JUMP JUMPDEST JUMPDEST SWAP3 SWAP2 POP POP JUMP JUMPDEST PUSH0 PUSH2 0xE2E DUP3 PUSH2 0xCC6 JUMP JUMPDEST SWAP2 POP PUSH2 0xE39 DUP4 PUSH2 0xCC6 JUMP JUMPDEST SWAP3 POP DUP3 DUP3 MUL PUSH2 0xE47 DUP2 PUSH2 0xCC6 JUMP JUMPDEST SWAP2 POP DUP3 DUP3 DIV DUP5 EQ DUP4 ISZERO OR PUSH2 0xE5E JUMPI PUSH2 0xE5D PUSH2 0xDC4 JUMP JUMPDEST JUMPDEST POP SWAP3 SWAP2 POP POP JUMP JUMPDEST PUSH32 0x4E487B7100000000000000000000000000000000000000000000000000000000 PUSH0 MSTORE PUSH1 0x12 PUSH1 0x4 MSTORE PUSH1 0x24 PUSH0 REVERT JUMPDEST PUSH0 PUSH2 0xE9C DUP3 PUSH2 0xCC6 JUMP JUMPDEST SWAP2 POP PUSH2 0xEA7 DUP4 PUSH2 0xCC6 JUMP JUMPDEST SWAP3 POP DUP3 PUSH2 0xEB7 JUMPI PUSH2 0xEB6 PUSH2 0xE65 JUMP JUMPDEST JUMPDEST DUP3 DUP3 DIV SWAP1 POP SWAP3 SWAP2 POP POP JUMP JUMPDEST PUSH32 0x4E6F206465627400000000000000000000000000000000000000000000000000 PUSH0 DUP3 ADD MSTORE POP JUMP JUMPDEST PUSH0 PUSH2 0xEF6 PUSH1 0x7 DUP4 PUSH2 0xD4C JUMP JUMPDEST SWAP2 POP PUSH2 0xF01 DUP3 PUSH2 0xEC2 JUMP JUMPDEST PUSH1 0x20 DUP3 ADD SWAP1 POP SWAP2 SWAP1 POP JUMP JUMPDEST PUSH0 PUSH1 0x20 DUP3 ADD SWAP1 POP DUP2 DUP2 SUB PUSH0 DUP4 ADD MSTORE PUSH2 0xF23 DUP2 PUSH2 0xEEA JUMP JUMPDEST SWAP1 POP SWAP2 SWAP1 POP JUMP JUMPDEST PUSH32 0x4F76657270617900000000000000000000000000000000000000000000000000 PUSH0 DUP3 ADD MSTORE POP JUMP JUMPDEST PUSH0 PUSH2 0xF5E PUSH1 0x7 DUP4 PUSH2 0xD4C JUMP JUMPDEST SWAP2 POP PUSH2 0xF69 DUP3 PUSH2 0xF2A JUMP JUMPDEST PUSH1 0x20 DUP3 ADD SWAP1 POP SWAP2 SWAP1 POP JUMP JUMPDEST PUSH0 PUSH1 0x20 DUP3 ADD SWAP1 POP DUP2 DUP2 SUB PUSH0 DUP4 ADD MSTORE PUSH2 0xF8B DUP2 PUSH2 0xF52 JUMP JUMPDEST SWAP1 POP SWAP2 SWAP1 POP JUMP JUMPDEST PUSH0 PUSH2 0xF9C DUP3 PUSH2 0xCC6 JUMP JUMPDEST SWAP2 POP PUSH2 0xFA7 DUP4 PUSH2 0xCC6 JUMP JUMPDEST SWAP3 POP DUP3 DUP3 SUB SWAP1 POP DUP2 DUP2 GT ISZERO PUSH2 0xFBF JUMPI PUSH2 0xFBE PUSH2 0xDC4 JUMP JUMPDEST JUMPDEST SWAP3 SWAP2 POP POP JUMP JUMPDEST PUSH32 0x5A65726F20636F6C6C61746572616C0000000000000000000000000000000000 PUSH0 DUP3 ADD MSTORE POP JUMP JUMPDEST PUSH0 PUSH2 0xFF9 PUSH1 0xF DUP4 PUSH2 0xD4C JUMP JUMPDEST SWAP2 POP PUSH2 0x1004 DUP3 PUSH2 0xFC5 JUMP JUMPDEST PUSH1 0x20 DUP3 ADD SWAP1 POP SWAP2 SWAP1 POP JUMP JUMPDEST PUSH0 PUSH1 0x20 DUP3 ADD SWAP1 POP DUP2 DUP2 SUB PUSH0 DUP4 ADD MSTORE PUSH2 0x1026 DUP2 PUSH2 0xFED JUMP JUMPDEST SWAP1 POP SWAP2 SWAP1 POP JUMP JUMPDEST PUSH32 0x4E6F20636F6C6C61746572616C00000000000000000000000000000000000000 PUSH0 DUP3 ADD MSTORE POP JUMP JUMPDEST PUSH0 PUSH2 0x1061 PUSH1 0xD DUP4 PUSH2 0xD4C JUMP JUMPDEST SWAP2 POP PUSH2 0x106C DUP3 PUSH2 0x102D JUMP JUMPDEST PUSH1 0x20 DUP3 ADD SWAP1 POP SWAP2 SWAP1 POP JUMP JUMPDEST PUSH0 PUSH1 0x20 DUP3 ADD SWAP1 POP DUP2 DUP2 SUB PUSH0 DUP4 ADD MSTORE PUSH2 0x108E DUP2 PUSH2 0x1055 JUMP JUMPDEST SWAP1 POP SWAP2 SWAP1 POP JUMP JUMPDEST PUSH32 0x45786365656473206C696D697400000000000000000000000000000000000000 PUSH0 DUP3 ADD MSTORE POP JUMP JUMPDEST PUSH0 PUSH2 0x10C9 PUSH1 0xD DUP4 PUSH2 0xD4C JUMP JUMPDEST SWAP2 POP PUSH2 0x10D4 DUP3 PUSH2 0x1095 JUMP JUMPDEST PUSH1 0x20 DUP3 ADD SWAP1 POP SWAP2 SWAP1 POP JUMP JUMPDEST PUSH0 PUSH1 0x20 DUP3 ADD SWAP1 POP DUP2 DUP2 SUB PUSH0 DUP4 ADD MSTORE PUSH2 0x10F6 DUP2 PUSH2 0x10BD JUMP JUMPDEST SWAP1 POP SWAP2 SWAP1 POP JUMP JUMPDEST PUSH32 0x496E73756666696369656E74206C697175696469747900000000000000000000 PUSH0 DUP3 ADD MSTORE POP JUMP JUMPDEST PUSH0 PUSH2 0x1131 PUSH1 0x16 DUP4 PUSH2 0xD4C JUMP JUMPDEST SWAP2 POP PUSH2 0x113C DUP3 PUSH2 0x10FD JUMP JUMPDEST PUSH1 0x20 DUP3 ADD SWAP1 POP SWAP2 SWAP1 POP JUMP JUMPDEST PUSH0 PUSH1 0x20 DUP3 ADD SWAP1 POP DUP2 DUP2 SUB PUSH0 DUP4 ADD MSTORE PUSH2 0x115E DUP2 PUSH2 0x1125 JUMP JUMPDEST SWAP1 POP SWAP2 SWAP1 POP JUMP JUMPDEST PUSH32 0x5A65726F206465706F7369740000000000000000000000000000000000000000 PUSH0 DUP3 ADD MSTORE POP JUMP JUMPDEST PUSH0 PUSH2 0x1199 PUSH1 0xC DUP4 PUSH2 0xD4C JUMP JUMPDEST SWAP2 POP PUSH2 0x11A4 DUP3 PUSH2 0x1165 JUMP JUMPDEST PUSH1 0x20 DUP3 ADD SWAP1 POP SWAP2 SWAP1 POP JUMP JUMPDEST PUSH0 PUSH1 0x20 DUP3 ADD SWAP1 POP DUP2 DUP2 SUB PUSH0 DUP4 ADD MSTORE PUSH2 0x11C6 DUP2 PUSH2 0x118D JUMP JUMPDEST SWAP1 POP SWAP2 SWAP1 POP JUMP INVALID LOG2 PUSH5 0x6970667358 0x22 SLT KECCAK256 0xB4 CALLCODE 0xC7 DUP1 EXTCODEHASH 0x26 DUP10 0xB1 0xD7 NOT PUSH13 0x26861C907BEF06420006B0BD3B PUSH8 0xAD15C3A3D1734E64 PUSH20 0x6F6C634300081E00330000000000000000000000 "
				},
				"gasEstimates": {
					"creation": {
						"codeDepositCost": "922200",
						"executionCost": "960",
						"totalCost": "923160"
					},
					"external": {
						"LIQUIDATION_BONUS()": "371",
						"LIQUIDATION_THRESHOLD()": "392",
						"LTV()": "392",
						"borrow(uint256)": "infinite",
						"borrows(address)": "2847",
						"collateral(address)": "2824",
						"deposit()": "infinite",
						"deposits(address)": "2889",
						"healthFactor(address)": "infinite",
						"liquidate(address)": "infinite",
						"lockCollateral()": "infinite",
						"repay()": "infinite",
						"totalBorrows()": "2448",
						"totalDeposits()": "2470"
					}
				},
				"methodIdentifiers": {
					"LIQUIDATION_BONUS()": "3574d4c4",
					"LIQUIDATION_THRESHOLD()": "90a8ae9b",
					"LTV()": "62965d8e",
					"borrow(uint256)": "c5ebeaec",
					"borrows(address)": "54a5706f",
					"collateral(address)": "a5fdc5de",
					"deposit()": "d0e30db0",
					"deposits(address)": "fc7e286d",
					"healthFactor(address)": "6ad9f9df",
					"liquidate(address)": "2f865568",
					"lockCollateral()": "70a88735",
					"repay()": "402d8883",
					"totalBorrows()": "47bd3718",
					"totalDeposits()": "7d882097"
				}
			},
			"storageLayout": {
				"storage": [
					{
						"astId": 5,
						"contract": "Smart Contracts/21_DecentralizedLending.sol:DecentralizedLending",
						"label": "deposits",
						"offset": 0,
						"slot": "0",
						"type": "t_mapping(t_address,t_uint256)"
					},
					{
						"astId": 9,
						"contract": "Smart Contracts/21_DecentralizedLending.sol:DecentralizedLending",
						"label": "borrows",
						"offset": 0,
						"slot": "1",
						"type": "t_mapping(t_address,t_uint256)"
					},
					{
						"astId": 13,
						"contract": "Smart Contracts/21_DecentralizedLending.sol:DecentralizedLending",
						"label": "collateral",
						"offset": 0,
						"slot": "2",
						"type": "t_mapping(t_address,t_uint256)"
					},
					{
						"astId": 15,
						"contract": "Smart Contracts/21_DecentralizedLending.sol:DecentralizedLending",
						"label": "totalDeposits",
						"offset": 0,
						"slot": "3",
						"type": "t_uint256"
					},
					{
						"astId": 17,
						"contract": "Smart Contracts/21_DecentralizedLending.sol:DecentralizedLending",
						"label": "totalBorrows",
						"offset": 0,
						"slot": "4",
						"type": "t_uint256"
					}
				],
				"types": {
					"t_address": {
						"encoding": "inplace",
						"label": "address",
						"numberOfBytes": "20"
					},
					"t_mapping(t_address,t_uint256)": {
						"encoding": "mapping",
						"key": "t_address",
						"label": "mapping(address => uint256)",
						"numberOfBytes": "32",
						"value": "t_uint256"
					},
					"t_uint256": {
						"encoding": "inplace",
						"label": "uint256",
						"numberOfBytes": "32"
					}
				}
			},
			"userdoc": {
				"kind": "user",
				"methods": {},
				"version": 1
			}
		}
	}
}