{
	"Smart Contracts/12_Staking.sol": {
		"Staking": {
			"abi": [
				{
					"inputs": [
						{
							"internalType": "address",
							"name": "_stakingToken",
							"type": "address"
						},
						{
							"internalType": "address",
							"name": "_rewardToken",
							"type": "address"
						},
						{
							"internalType": "uint256",
							"name": "_rewardRate",
							"type": "uint256"
						}
					],
					"stateMutability": "nonpayable",
					"type": "constructor"
				},
				{
					"inputs": [],
					"name": "ReentrancyGuardReentrantCall",
					"type": "error"
				},
				{
					"inputs": [],
					"name": "claimRewards",
					"outputs": [],
					"stateMutability": "nonpayable",
					"type": "function"
				},
				{
					"inputs": [
						{
							"internalType": "address",
							"name": "user",
							"type": "address"
						}
					],
					"name": "earned",
					"outputs": [
						{
							"internalType": "uint256",
							"name": "",
							"type": "uint256"
						}
					],
					"stateMutability": "view",
					"type": "function"
				},
				{
					"inputs": [
						{
							"internalType": "address",
							"name": "",
							"type": "address"
						}
					],
					"name": "lastUpdateTime",
					"outputs": [
						{
							"internalType": "uint256",
							"name": "",
							"type": "uint256"
						}
					],
					"stateMutability": "view",
					"type": "function"
				},
				{
					"inputs": [],
					"name": "rewardRate",
					"outputs": [
						{
							"internalType": "uint256",
							"name": "",
							"type": "uint256"
						}
					],
					"stateMutability": "view",
					"type": "function"
				},
				{
					"inputs": [],
					"name": "rewardToken",
					"outputs": [
						{
							"internalType": "contract IERC20",
							"name": "",
							"type": "address"
						}
					],
					"stateMutability": "view",
					"type": "function"
				},
				{
					"inputs": [
						{
							"internalType": "address",
							"name": "",
							"type": "address"
						}
					],
					"name": "rewards",
					"outputs": [
						{
							"internalType": "uint256",
							"name": "",
							"type": "uint256"
						}
					],
					"stateMutability": "view",
					"type": "function"
				},
				{
					"inputs": [
						{
							"internalType": "uint256",
							"name": "amount",
							"type": "uint256"
						}
					],
					"name": "stake",
					"outputs": [],
					"stateMutability": "nonpayable",
					"type": "function"
				},
				{
					"inputs": [
						{
							"internalType": "address",
							"name": "",
							"type": "address"
						}
					],
					"name": "stakedBalance",
					"outputs": [
						{
							"internalType": "uint256",
							"name": "",
							"type": "uint256"
						}
					],
					"stateMutability": "view",
					"type": "function"
				},
				{
					"inputs": [],
					"name": "stakingToken",
					"outputs": [
						{
							"internalType": "contract IERC20",
							"name": "",
							"type": "address"
						}
					],
					"stateMutability": "view",
					"type": "function"
				},
				{
					"inputs": [],
					"name": "totalStaked",
					"outputs": [
						{
							"internalType": "uint256",
							"name": "",
							"type": "uint256"
						}
					],
					"stateMutability": "view",
					"type": "function"
				},
				{
					"inputs": [
						{
							"internalType": "uint256",
							"name": "amount",
							"type": "uint256"
						}
					],
					"name": "unstake",
					"outputs": [],
					"stateMutability": "nonpayable",
					"type": "function"
				}
			],
			"devdoc": {
				"errors": {
					"ReentrancyGuardReentrantCall()": [
						{
							"details": "Unauthorized reentrant call."
						}
					]
				},
				"kind": "dev",
				"methods": {},
				"version": 1
			},
			"evm": {
				"assembly": "    /* \"Smart Contracts/12_Staking.sol\":287:2173  contract Staking is ReentrancyGuard{... */\n  mstore(0x40, 0x80)\n    /* \"Smart Contracts/12_Staking.sol\":625:837  constructor(address _stakingToken, address _rewardToken, uint256 _rewardRate){... */\n  callvalue\n  dup1\n  iszero\n  tag_1\n  jumpi\n  revert(0x00, 0x00)\ntag_1:\n  pop\n  mload(0x40)\n  sub(codesize, bytecodeSize)\n  dup1\n  bytecodeSize\n  dup4\n  codecopy\n  dup2\n  dup2\n  add\n  0x40\n  mstore\n  dup2\n  add\n  swap1\n  tag_2\n  swap2\n  swap1\n  tag_3\n  jump\t// in\ntag_2:\n    /* \"https://github.com/OpenZeppelin/openzeppelin-contracts/blob/v5.0.1/contracts/utils/ReentrancyGuard.sol\":1713:1714  1 */\n  0x01\n    /* \"https://github.com/OpenZeppelin/openzeppelin-contracts/blob/v5.0.1/contracts/utils/ReentrancyGuard.sol\":1917:1924  _status */\n  0x00\n    /* \"https://github.com/OpenZeppelin/openzeppelin-contracts/blob/v5.0.1/contracts/utils/ReentrancyGuard.sol\":1917:1938  _status = NOT_ENTERED */\n  dup2\n  swap1\n  sstore\n  pop\n    /* \"Smart Contracts/12_Staking.sol\":735:748  _stakingToken */\n  dup3\n    /* \"Smart Contracts/12_Staking.sol\":713:725  stakingToken */\n  0x01\n  0x00\n    /* \"Smart Contracts/12_Staking.sol\":713:749  stakingToken = IERC20(_stakingToken) */\n  0x0100\n  exp\n  dup2\n  sload\n  dup2\n  0xffffffffffffffffffffffffffffffffffffffff\n  mul\n  not\n  and\n  swap1\n  dup4\n  0xffffffffffffffffffffffffffffffffffffffff\n  and\n  mul\n  or\n  swap1\n  sstore\n  pop\n    /* \"Smart Contracts/12_Staking.sol\":781:793  _rewardToken */\n  dup2\n    /* \"Smart Contracts/12_Staking.sol\":760:771  rewardToken */\n  0x02\n  0x00\n    /* \"Smart Contracts/12_Staking.sol\":760:794  rewardToken = IERC20(_rewardToken) */\n  0x0100\n  exp\n  dup2\n  sload\n  dup2\n  0xffffffffffffffffffffffffffffffffffffffff\n  mul\n  not\n  and\n  swap1\n  dup4\n  0xffffffffffffffffffffffffffffffffffffffff\n  and\n  mul\n  or\n  swap1\n  sstore\n  pop\n    /* \"Smart Contracts/12_Staking.sol\":818:829  _rewardRate */\n  dup1\n    /* \"Smart Contracts/12_Staking.sol\":805:815  rewardRate */\n  0x03\n    /* \"Smart Contracts/12_Staking.sol\":805:829  rewardRate = _rewardRate */\n  dup2\n  swap1\n  sstore\n  pop\n    /* \"Smart Contracts/12_Staking.sol\":625:837  constructor(address _stakingToken, address _rewardToken, uint256 _rewardRate){... */\n  pop\n  pop\n  pop\n    /* \"Smart Contracts/12_Staking.sol\":287:2173  contract Staking is ReentrancyGuard{... */\n  jump(tag_8)\n    /* \"#utility.yul\":88:205   */\ntag_10:\n    /* \"#utility.yul\":197:198   */\n  0x00\n    /* \"#utility.yul\":194:195   */\n  0x00\n    /* \"#utility.yul\":187:199   */\n  revert\n    /* \"#utility.yul\":334:460   */\ntag_12:\n    /* \"#utility.yul\":371:378   */\n  0x00\n    /* \"#utility.yul\":411:453   */\n  0xffffffffffffffffffffffffffffffffffffffff\n    /* \"#utility.yul\":404:409   */\n  dup3\n    /* \"#utility.yul\":400:454   */\n  and\n    /* \"#utility.yul\":389:454   */\n  swap1\n  pop\n    /* \"#utility.yul\":334:460   */\n  swap2\n  swap1\n  pop\n  jump\t// out\n    /* \"#utility.yul\":466:562   */\ntag_13:\n    /* \"#utility.yul\":503:510   */\n  0x00\n    /* \"#utility.yul\":532:556   */\n  tag_25\n    /* \"#utility.yul\":550:555   */\n  dup3\n    /* \"#utility.yul\":532:556   */\n  tag_12\n  jump\t// in\ntag_25:\n    /* \"#utility.yul\":521:556   */\n  swap1\n  pop\n    /* \"#utility.yul\":466:562   */\n  swap2\n  swap1\n  pop\n  jump\t// out\n    /* \"#utility.yul\":568:690   */\ntag_14:\n    /* \"#utility.yul\":641:665   */\n  tag_27\n    /* \"#utility.yul\":659:664   */\n  dup2\n    /* \"#utility.yul\":641:665   */\n  tag_13\n  jump\t// in\ntag_27:\n    /* \"#utility.yul\":634:639   */\n  dup2\n    /* \"#utility.yul\":631:666   */\n  eq\n    /* \"#utility.yul\":621:684   */\n  tag_28\n  jumpi\n    /* \"#utility.yul\":680:681   */\n  0x00\n    /* \"#utility.yul\":677:678   */\n  0x00\n    /* \"#utility.yul\":670:682   */\n  revert\n    /* \"#utility.yul\":621:684   */\ntag_28:\n    /* \"#utility.yul\":568:690   */\n  pop\n  jump\t// out\n    /* \"#utility.yul\":696:839   */\ntag_15:\n    /* \"#utility.yul\":753:758   */\n  0x00\n    /* \"#utility.yul\":784:790   */\n  dup2\n    /* \"#utility.yul\":778:791   */\n  mload\n    /* \"#utility.yul\":769:791   */\n  swap1\n  pop\n    /* \"#utility.yul\":800:833   */\n  tag_30\n    /* \"#utility.yul\":827:832   */\n  dup2\n    /* \"#utility.yul\":800:833   */\n  tag_14\n  jump\t// in\ntag_30:\n    /* \"#utility.yul\":696:839   */\n  swap3\n  swap2\n  pop\n  pop\n  jump\t// out\n    /* \"#utility.yul\":845:922   */\ntag_16:\n    /* \"#utility.yul\":882:889   */\n  0x00\n    /* \"#utility.yul\":911:916   */\n  dup2\n    /* \"#utility.yul\":900:916   */\n  swap1\n  pop\n    /* \"#utility.yul\":845:922   */\n  swap2\n  swap1\n  pop\n  jump\t// out\n    /* \"#utility.yul\":928:1050   */\ntag_17:\n    /* \"#utility.yul\":1001:1025   */\n  tag_33\n    /* \"#utility.yul\":1019:1024   */\n  dup2\n    /* \"#utility.yul\":1001:1025   */\n  tag_16\n  jump\t// in\ntag_33:\n    /* \"#utility.yul\":994:999   */\n  dup2\n    /* \"#utility.yul\":991:1026   */\n  eq\n    /* \"#utility.yul\":981:1044   */\n  tag_34\n  jumpi\n    /* \"#utility.yul\":1040:1041   */\n  0x00\n    /* \"#utility.yul\":1037:1038   */\n  0x00\n    /* \"#utility.yul\":1030:1042   */\n  revert\n    /* \"#utility.yul\":981:1044   */\ntag_34:\n    /* \"#utility.yul\":928:1050   */\n  pop\n  jump\t// out\n    /* \"#utility.yul\":1056:1199   */\ntag_18:\n    /* \"#utility.yul\":1113:1118   */\n  0x00\n    /* \"#utility.yul\":1144:1150   */\n  dup2\n    /* \"#utility.yul\":1138:1151   */\n  mload\n    /* \"#utility.yul\":1129:1151   */\n  swap1\n  pop\n    /* \"#utility.yul\":1160:1193   */\n  tag_36\n    /* \"#utility.yul\":1187:1192   */\n  dup2\n    /* \"#utility.yul\":1160:1193   */\n  tag_17\n  jump\t// in\ntag_36:\n    /* \"#utility.yul\":1056:1199   */\n  swap3\n  swap2\n  pop\n  pop\n  jump\t// out\n    /* \"#utility.yul\":1205:1868   */\ntag_3:\n    /* \"#utility.yul\":1293:1299   */\n  0x00\n    /* \"#utility.yul\":1301:1307   */\n  0x00\n    /* \"#utility.yul\":1309:1315   */\n  0x00\n    /* \"#utility.yul\":1358:1360   */\n  0x60\n    /* \"#utility.yul\":1346:1355   */\n  dup5\n    /* \"#utility.yul\":1337:1344   */\n  dup7\n    /* \"#utility.yul\":1333:1356   */\n  sub\n    /* \"#utility.yul\":1329:1361   */\n  slt\n    /* \"#utility.yul\":1326:1445   */\n  iszero\n  tag_38\n  jumpi\n    /* \"#utility.yul\":1364:1443   */\n  tag_39\n  tag_10\n  jump\t// in\ntag_39:\n    /* \"#utility.yul\":1326:1445   */\ntag_38:\n    /* \"#utility.yul\":1484:1485   */\n  0x00\n    /* \"#utility.yul\":1509:1573   */\n  tag_40\n    /* \"#utility.yul\":1565:1572   */\n  dup7\n    /* \"#utility.yul\":1556:1562   */\n  dup3\n    /* \"#utility.yul\":1545:1554   */\n  dup8\n    /* \"#utility.yul\":1541:1563   */\n  add\n    /* \"#utility.yul\":1509:1573   */\n  tag_15\n  jump\t// in\ntag_40:\n    /* \"#utility.yul\":1499:1573   */\n  swap4\n  pop\n    /* \"#utility.yul\":1455:1583   */\n  pop\n    /* \"#utility.yul\":1622:1624   */\n  0x20\n    /* \"#utility.yul\":1648:1712   */\n  tag_41\n    /* \"#utility.yul\":1704:1711   */\n  dup7\n    /* \"#utility.yul\":1695:1701   */\n  dup3\n    /* \"#utility.yul\":1684:1693   */\n  dup8\n    /* \"#utility.yul\":1680:1702   */\n  add\n    /* \"#utility.yul\":1648:1712   */\n  tag_15\n  jump\t// in\ntag_41:\n    /* \"#utility.yul\":1638:1712   */\n  swap3\n  pop\n    /* \"#utility.yul\":1593:1722   */\n  pop\n    /* \"#utility.yul\":1761:1763   */\n  0x40\n    /* \"#utility.yul\":1787:1851   */\n  tag_42\n    /* \"#utility.yul\":1843:1850   */\n  dup7\n    /* \"#utility.yul\":1834:1840   */\n  dup3\n    /* \"#utility.yul\":1823:1832   */\n  dup8\n    /* \"#utility.yul\":1819:1841   */\n  add\n    /* \"#utility.yul\":1787:1851   */\n  tag_18\n  jump\t// in\ntag_42:\n    /* \"#utility.yul\":1777:1851   */\n  swap2\n  pop\n    /* \"#utility.yul\":1732:1861   */\n  pop\n    /* \"#utility.yul\":1205:1868   */\n  swap3\n  pop\n  swap3\n  pop\n  swap3\n  jump\t// out\n    /* \"Smart Contracts/12_Staking.sol\":287:2173  contract Staking is ReentrancyGuard{... */\ntag_8:\n  dataSize(sub_0)\n  dup1\n  dataOffset(sub_0)\n  0x00\n  codecopy\n  0x00\n  return\nstop\n\nsub_0: assembly {\n        /* \"Smart Contracts/12_Staking.sol\":287:2173  contract Staking is ReentrancyGuard{... */\n      mstore(0x40, 0x80)\n      callvalue\n      dup1\n      iszero\n      tag_1\n      jumpi\n      revert(0x00, 0x00)\n    tag_1:\n      pop\n      jumpi(tag_2, lt(calldatasize, 0x04))\n      shr(0xe0, calldataload(0x00))\n      dup1\n      0x60217267\n      gt\n      tag_14\n      jumpi\n      dup1\n      0x60217267\n      eq\n      tag_8\n      jumpi\n      dup1\n      0x72f702f3\n      eq\n      tag_9\n      jumpi\n      dup1\n      0x7b0a47ee\n      eq\n      tag_10\n      jumpi\n      dup1\n      0x817b1cd2\n      eq\n      tag_11\n      jumpi\n      dup1\n      0xa694fc3a\n      eq\n      tag_12\n      jumpi\n      dup1\n      0xf7c618c1\n      eq\n      tag_13\n      jumpi\n      jump(tag_2)\n    tag_14:\n      dup1\n      0x8cc262\n      eq\n      tag_3\n      jumpi\n      dup1\n      0x0700037d\n      eq\n      tag_4\n      jumpi\n      dup1\n      0x2ce9aead\n      eq\n      tag_5\n      jumpi\n      dup1\n      0x2e17de78\n      eq\n      tag_6\n      jumpi\n      dup1\n      0x372500ab\n      eq\n      tag_7\n      jumpi\n    tag_2:\n      revert(0x00, 0x00)\n        /* \"Smart Contracts/12_Staking.sol\":845:1050  function earned(address user) public view returns (uint256){... */\n    tag_3:\n      tag_15\n      0x04\n      dup1\n      calldatasize\n      sub\n      dup2\n      add\n      swap1\n      tag_16\n      swap2\n      swap1\n      tag_17\n      jump\t// in\n    tag_16:\n      tag_18\n      jump\t// in\n    tag_15:\n      mload(0x40)\n      tag_19\n      swap2\n      swap1\n      tag_20\n      jump\t// in\n    tag_19:\n      mload(0x40)\n      dup1\n      swap2\n      sub\n      swap1\n      return\n        /* \"Smart Contracts/12_Staking.sol\":574:616  mapping(address => uint256) public rewards */\n    tag_4:\n      tag_21\n      0x04\n      dup1\n      calldatasize\n      sub\n      dup2\n      add\n      swap1\n      tag_22\n      swap2\n      swap1\n      tag_17\n      jump\t// in\n    tag_22:\n      tag_23\n      jump\t// in\n    tag_21:\n      mload(0x40)\n      tag_24\n      swap2\n      swap1\n      tag_20\n      jump\t// in\n    tag_24:\n      mload(0x40)\n      dup1\n      swap2\n      sub\n      swap1\n      return\n        /* \"Smart Contracts/12_Staking.sol\":518:567  mapping(address => uint256) public lastUpdateTime */\n    tag_5:\n      tag_25\n      0x04\n      dup1\n      calldatasize\n      sub\n      dup2\n      add\n      swap1\n      tag_26\n      swap2\n      swap1\n      tag_17\n      jump\t// in\n    tag_26:\n      tag_27\n      jump\t// in\n    tag_25:\n      mload(0x40)\n      tag_28\n      swap2\n      swap1\n      tag_20\n      jump\t// in\n    tag_28:\n      mload(0x40)\n      dup1\n      swap2\n      sub\n      swap1\n      return\n        /* \"Smart Contracts/12_Staking.sol\":1556:1905  function unstake(uint256 amount) external nonReentrant updateReward(msg.sender) {... */\n    tag_6:\n      tag_29\n      0x04\n      dup1\n      calldatasize\n      sub\n      dup2\n      add\n      swap1\n      tag_30\n      swap2\n      swap1\n      tag_31\n      jump\t// in\n    tag_30:\n      tag_32\n      jump\t// in\n    tag_29:\n      stop\n        /* \"Smart Contracts/12_Staking.sol\":1913:2170  function claimRewards() external nonReentrant updateReward(msg.sender) {... */\n    tag_7:\n      tag_33\n      tag_34\n      jump\t// in\n    tag_33:\n      stop\n        /* \"Smart Contracts/12_Staking.sol\":463:511  mapping(address => uint256) public stakedBalance */\n    tag_8:\n      tag_35\n      0x04\n      dup1\n      calldatasize\n      sub\n      dup2\n      add\n      swap1\n      tag_36\n      swap2\n      swap1\n      tag_17\n      jump\t// in\n    tag_36:\n      tag_37\n      jump\t// in\n    tag_35:\n      mload(0x40)\n      tag_38\n      swap2\n      swap1\n      tag_20\n      jump\t// in\n    tag_38:\n      mload(0x40)\n      dup1\n      swap2\n      sub\n      swap1\n      return\n        /* \"Smart Contracts/12_Staking.sol\":329:355  IERC20 public stakingToken */\n    tag_9:\n      tag_39\n      tag_40\n      jump\t// in\n    tag_39:\n      mload(0x40)\n      tag_41\n      swap2\n      swap1\n      tag_42\n      jump\t// in\n    tag_41:\n      mload(0x40)\n      dup1\n      swap2\n      sub\n      swap1\n      return\n        /* \"Smart Contracts/12_Staking.sol\":396:421  uint256 public rewardRate */\n    tag_10:\n      tag_43\n      tag_44\n      jump\t// in\n    tag_43:\n      mload(0x40)\n      tag_45\n      swap2\n      swap1\n      tag_20\n      jump\t// in\n    tag_45:\n      mload(0x40)\n      dup1\n      swap2\n      sub\n      swap1\n      return\n        /* \"Smart Contracts/12_Staking.sol\":428:454  uint256 public totalStaked */\n    tag_11:\n      tag_46\n      tag_47\n      jump\t// in\n    tag_46:\n      mload(0x40)\n      tag_48\n      swap2\n      swap1\n      tag_20\n      jump\t// in\n    tag_48:\n      mload(0x40)\n      dup1\n      swap2\n      sub\n      swap1\n      return\n        /* \"Smart Contracts/12_Staking.sol\":1264:1548  function stake(uint256 amount) external nonReentrant updateReward(msg.sender){... */\n    tag_12:\n      tag_49\n      0x04\n      dup1\n      calldatasize\n      sub\n      dup2\n      add\n      swap1\n      tag_50\n      swap2\n      swap1\n      tag_31\n      jump\t// in\n    tag_50:\n      tag_51\n      jump\t// in\n    tag_49:\n      stop\n        /* \"Smart Contracts/12_Staking.sol\":362:387  IERC20 public rewardToken */\n    tag_13:\n      tag_52\n      tag_53\n      jump\t// in\n    tag_52:\n      mload(0x40)\n      tag_54\n      swap2\n      swap1\n      tag_42\n      jump\t// in\n    tag_54:\n      mload(0x40)\n      dup1\n      swap2\n      sub\n      swap1\n      return\n        /* \"Smart Contracts/12_Staking.sol\":845:1050  function earned(address user) public view returns (uint256){... */\n    tag_18:\n        /* \"Smart Contracts/12_Staking.sol\":896:903  uint256 */\n      0x00\n        /* \"Smart Contracts/12_Staking.sol\":915:931  uint256 timeDiff */\n      0x00\n        /* \"Smart Contracts/12_Staking.sol\":952:966  lastUpdateTime */\n      0x06\n        /* \"Smart Contracts/12_Staking.sol\":952:972  lastUpdateTime[user] */\n      0x00\n        /* \"Smart Contracts/12_Staking.sol\":967:971  user */\n      dup5\n        /* \"Smart Contracts/12_Staking.sol\":952:972  lastUpdateTime[user] */\n      0xffffffffffffffffffffffffffffffffffffffff\n      and\n      0xffffffffffffffffffffffffffffffffffffffff\n      and\n      dup2\n      mstore\n      0x20\n      add\n      swap1\n      dup2\n      mstore\n      0x20\n      add\n      0x00\n      keccak256\n      sload\n        /* \"Smart Contracts/12_Staking.sol\":934:949  block.timestamp */\n      timestamp\n        /* \"Smart Contracts/12_Staking.sol\":934:972  block.timestamp - lastUpdateTime[user] */\n      tag_56\n      swap2\n      swap1\n      tag_57\n      jump\t// in\n    tag_56:\n        /* \"Smart Contracts/12_Staking.sol\":915:972  uint256 timeDiff = block.timestamp - lastUpdateTime[user] */\n      swap1\n      pop\n        /* \"Smart Contracts/12_Staking.sol\":1038:1042  1e18 */\n      0x0de0b6b3a7640000\n        /* \"Smart Contracts/12_Staking.sol\":1026:1034  timeDiff */\n      dup2\n        /* \"Smart Contracts/12_Staking.sol\":1013:1023  rewardRate */\n      sload(0x03)\n        /* \"Smart Contracts/12_Staking.sol\":991:1004  stakedBalance */\n      0x05\n        /* \"Smart Contracts/12_Staking.sol\":991:1010  stakedBalance[user] */\n      0x00\n        /* \"Smart Contracts/12_Staking.sol\":1005:1009  user */\n      dup8\n        /* \"Smart Contracts/12_Staking.sol\":991:1010  stakedBalance[user] */\n      0xffffffffffffffffffffffffffffffffffffffff\n      and\n      0xffffffffffffffffffffffffffffffffffffffff\n      and\n      dup2\n      mstore\n      0x20\n      add\n      swap1\n      dup2\n      mstore\n      0x20\n      add\n      0x00\n      keccak256\n      sload\n        /* \"Smart Contracts/12_Staking.sol\":991:1023  stakedBalance[user] * rewardRate */\n      tag_58\n      swap2\n      swap1\n      tag_59\n      jump\t// in\n    tag_58:\n        /* \"Smart Contracts/12_Staking.sol\":991:1034  stakedBalance[user] * rewardRate * timeDiff */\n      tag_60\n      swap2\n      swap1\n      tag_59\n      jump\t// in\n    tag_60:\n        /* \"Smart Contracts/12_Staking.sol\":990:1042  (stakedBalance[user] * rewardRate * timeDiff) / 1e18 */\n      tag_61\n      swap2\n      swap1\n      tag_62\n      jump\t// in\n    tag_61:\n        /* \"Smart Contracts/12_Staking.sol\":983:1042  return (stakedBalance[user] * rewardRate * timeDiff) / 1e18 */\n      swap2\n      pop\n      pop\n        /* \"Smart Contracts/12_Staking.sol\":845:1050  function earned(address user) public view returns (uint256){... */\n      swap2\n      swap1\n      pop\n      jump\t// out\n        /* \"Smart Contracts/12_Staking.sol\":574:616  mapping(address => uint256) public rewards */\n    tag_23:\n      mstore(0x20, 0x07)\n      dup1\n      0x00\n      mstore\n      keccak256(0x00, 0x40)\n      0x00\n      swap2\n      pop\n      swap1\n      pop\n      sload\n      dup2\n      jump\t// out\n        /* \"Smart Contracts/12_Staking.sol\":518:567  mapping(address => uint256) public lastUpdateTime */\n    tag_27:\n      mstore(0x20, 0x06)\n      dup1\n      0x00\n      mstore\n      keccak256(0x00, 0x40)\n      0x00\n      swap2\n      pop\n      swap1\n      pop\n      sload\n      dup2\n      jump\t// out\n        /* \"Smart Contracts/12_Staking.sol\":1556:1905  function unstake(uint256 amount) external nonReentrant updateReward(msg.sender) {... */\n    tag_32:\n        /* \"https://github.com/OpenZeppelin/openzeppelin-contracts/blob/v5.0.1/contracts/utils/ReentrancyGuard.sol\":2356:2377  _nonReentrantBefore() */\n      tag_64\n        /* \"https://github.com/OpenZeppelin/openzeppelin-contracts/blob/v5.0.1/contracts/utils/ReentrancyGuard.sol\":2356:2375  _nonReentrantBefore */\n      tag_65\n        /* \"https://github.com/OpenZeppelin/openzeppelin-contracts/blob/v5.0.1/contracts/utils/ReentrancyGuard.sol\":2356:2377  _nonReentrantBefore() */\n      jump\t// in\n    tag_64:\n        /* \"Smart Contracts/12_Staking.sol\":1624:1634  msg.sender */\n      caller\n        /* \"Smart Contracts/12_Staking.sol\":1124:1125  0 */\n      0x00\n        /* \"Smart Contracts/12_Staking.sol\":1108:1126  user != address(0) */\n      0xffffffffffffffffffffffffffffffffffffffff\n      and\n        /* \"Smart Contracts/12_Staking.sol\":1108:1112  user */\n      dup2\n        /* \"Smart Contracts/12_Staking.sol\":1108:1126  user != address(0) */\n      0xffffffffffffffffffffffffffffffffffffffff\n      and\n      eq\n        /* \"Smart Contracts/12_Staking.sol\":1104:1237  if (user != address(0)) {... */\n      tag_67\n      jumpi\n        /* \"Smart Contracts/12_Staking.sol\":1160:1172  earned(user) */\n      tag_68\n        /* \"Smart Contracts/12_Staking.sol\":1167:1171  user */\n      dup2\n        /* \"Smart Contracts/12_Staking.sol\":1160:1166  earned */\n      tag_18\n        /* \"Smart Contracts/12_Staking.sol\":1160:1172  earned(user) */\n      jump\t// in\n    tag_68:\n        /* \"Smart Contracts/12_Staking.sol\":1143:1150  rewards */\n      0x07\n        /* \"Smart Contracts/12_Staking.sol\":1143:1156  rewards[user] */\n      0x00\n        /* \"Smart Contracts/12_Staking.sol\":1151:1155  user */\n      dup4\n        /* \"Smart Contracts/12_Staking.sol\":1143:1156  rewards[user] */\n      0xffffffffffffffffffffffffffffffffffffffff\n      and\n      0xffffffffffffffffffffffffffffffffffffffff\n      and\n      dup2\n      mstore\n      0x20\n      add\n      swap1\n      dup2\n      mstore\n      0x20\n      add\n      0x00\n      keccak256\n      0x00\n        /* \"Smart Contracts/12_Staking.sol\":1143:1172  rewards[user] += earned(user) */\n      dup3\n      dup3\n      sload\n      tag_69\n      swap2\n      swap1\n      tag_70\n      jump\t// in\n    tag_69:\n      swap3\n      pop\n      pop\n      dup2\n      swap1\n      sstore\n      pop\n        /* \"Smart Contracts/12_Staking.sol\":1210:1225  block.timestamp */\n      timestamp\n        /* \"Smart Contracts/12_Staking.sol\":1187:1201  lastUpdateTime */\n      0x06\n        /* \"Smart Contracts/12_Staking.sol\":1187:1207  lastUpdateTime[user] */\n      0x00\n        /* \"Smart Contracts/12_Staking.sol\":1202:1206  user */\n      dup4\n        /* \"Smart Contracts/12_Staking.sol\":1187:1207  lastUpdateTime[user] */\n      0xffffffffffffffffffffffffffffffffffffffff\n      and\n      0xffffffffffffffffffffffffffffffffffffffff\n      and\n      dup2\n      mstore\n      0x20\n      add\n      swap1\n      dup2\n      mstore\n      0x20\n      add\n      0x00\n      keccak256\n        /* \"Smart Contracts/12_Staking.sol\":1187:1225  lastUpdateTime[user] = block.timestamp */\n      dup2\n      swap1\n      sstore\n      pop\n        /* \"Smart Contracts/12_Staking.sol\":1104:1237  if (user != address(0)) {... */\n    tag_67:\n        /* \"Smart Contracts/12_Staking.sol\":1664:1665  0 */\n      0x00\n        /* \"Smart Contracts/12_Staking.sol\":1655:1661  amount */\n      dup3\n        /* \"Smart Contracts/12_Staking.sol\":1655:1665  amount > 0 */\n      gt\n        /* \"Smart Contracts/12_Staking.sol\":1647:1686  require(amount > 0, \"Cannot unstake 0\") */\n      tag_72\n      jumpi\n      mload(0x40)\n      0x08c379a000000000000000000000000000000000000000000000000000000000\n      dup2\n      mstore\n      0x04\n      add\n      tag_73\n      swap1\n      tag_74\n      jump\t// in\n    tag_73:\n      mload(0x40)\n      dup1\n      swap2\n      sub\n      swap1\n      revert\n    tag_72:\n        /* \"Smart Contracts/12_Staking.sol\":1734:1740  amount */\n      dup2\n        /* \"Smart Contracts/12_Staking.sol\":1705:1718  stakedBalance */\n      0x05\n        /* \"Smart Contracts/12_Staking.sol\":1705:1730  stakedBalance[msg.sender] */\n      0x00\n        /* \"Smart Contracts/12_Staking.sol\":1719:1729  msg.sender */\n      caller\n        /* \"Smart Contracts/12_Staking.sol\":1705:1730  stakedBalance[msg.sender] */\n      0xffffffffffffffffffffffffffffffffffffffff\n      and\n      0xffffffffffffffffffffffffffffffffffffffff\n      and\n      dup2\n      mstore\n      0x20\n      add\n      swap1\n      dup2\n      mstore\n      0x20\n      add\n      0x00\n      keccak256\n      sload\n        /* \"Smart Contracts/12_Staking.sol\":1705:1740  stakedBalance[msg.sender] >= amount */\n      lt\n      iszero\n        /* \"Smart Contracts/12_Staking.sol\":1697:1763  require(stakedBalance[msg.sender] >= amount, \"Insufficient stake\") */\n      tag_75\n      jumpi\n      mload(0x40)\n      0x08c379a000000000000000000000000000000000000000000000000000000000\n      dup2\n      mstore\n      0x04\n      add\n      tag_76\n      swap1\n      tag_77\n      jump\t// in\n    tag_76:\n      mload(0x40)\n      dup1\n      swap2\n      sub\n      swap1\n      revert\n    tag_75:\n        /* \"Smart Contracts/12_Staking.sol\":1805:1811  amount */\n      dup2\n        /* \"Smart Contracts/12_Staking.sol\":1776:1789  stakedBalance */\n      0x05\n        /* \"Smart Contracts/12_Staking.sol\":1776:1801  stakedBalance[msg.sender] */\n      0x00\n        /* \"Smart Contracts/12_Staking.sol\":1790:1800  msg.sender */\n      caller\n        /* \"Smart Contracts/12_Staking.sol\":1776:1801  stakedBalance[msg.sender] */\n      0xffffffffffffffffffffffffffffffffffffffff\n      and\n      0xffffffffffffffffffffffffffffffffffffffff\n      and\n      dup2\n      mstore\n      0x20\n      add\n      swap1\n      dup2\n      mstore\n      0x20\n      add\n      0x00\n      keccak256\n      0x00\n        /* \"Smart Contracts/12_Staking.sol\":1776:1811  stakedBalance[msg.sender] -= amount */\n      dup3\n      dup3\n      sload\n      tag_78\n      swap2\n      swap1\n      tag_57\n      jump\t// in\n    tag_78:\n      swap3\n      pop\n      pop\n      dup2\n      swap1\n      sstore\n      pop\n        /* \"Smart Contracts/12_Staking.sol\":1837:1843  amount */\n      dup2\n        /* \"Smart Contracts/12_Staking.sol\":1822:1833  totalStaked */\n      0x04\n      0x00\n        /* \"Smart Contracts/12_Staking.sol\":1822:1843  totalStaked -= amount */\n      dup3\n      dup3\n      sload\n      tag_79\n      swap2\n      swap1\n      tag_57\n      jump\t// in\n    tag_79:\n      swap3\n      pop\n      pop\n      dup2\n      swap1\n      sstore\n      pop\n        /* \"Smart Contracts/12_Staking.sol\":1856:1868  stakingToken */\n      0x01\n      0x00\n      swap1\n      sload\n      swap1\n      0x0100\n      exp\n      swap1\n      div\n      0xffffffffffffffffffffffffffffffffffffffff\n      and\n        /* \"Smart Contracts/12_Staking.sol\":1856:1877  stakingToken.transfer */\n      0xffffffffffffffffffffffffffffffffffffffff\n      and\n      0xa9059cbb\n        /* \"Smart Contracts/12_Staking.sol\":1878:1888  msg.sender */\n      caller\n        /* \"Smart Contracts/12_Staking.sol\":1890:1896  amount */\n      dup5\n        /* \"Smart Contracts/12_Staking.sol\":1856:1897  stakingToken.transfer(msg.sender, amount) */\n      mload(0x40)\n      dup4\n      0xffffffff\n      and\n      0xe0\n      shl\n      dup2\n      mstore\n      0x04\n      add\n      tag_80\n      swap3\n      swap2\n      swap1\n      tag_81\n      jump\t// in\n    tag_80:\n      0x20\n      mload(0x40)\n      dup1\n      dup4\n      sub\n      dup2\n      0x00\n      dup8\n      gas\n      call\n      iszero\n      dup1\n      iszero\n      tag_83\n      jumpi\n      returndatacopy(0x00, 0x00, returndatasize)\n      revert(0x00, returndatasize)\n    tag_83:\n      pop\n      pop\n      pop\n      pop\n      mload(0x40)\n      returndatasize\n      not(0x1f)\n      0x1f\n      dup3\n      add\n      and\n      dup3\n      add\n      dup1\n      0x40\n      mstore\n      pop\n      dup2\n      add\n      swap1\n      tag_84\n      swap2\n      swap1\n      tag_85\n      jump\t// in\n    tag_84:\n      pop\n        /* \"https://github.com/OpenZeppelin/openzeppelin-contracts/blob/v5.0.1/contracts/utils/ReentrancyGuard.sol\":2387:2388  _ */\n      pop\n        /* \"https://github.com/OpenZeppelin/openzeppelin-contracts/blob/v5.0.1/contracts/utils/ReentrancyGuard.sol\":2398:2418  _nonReentrantAfter() */\n      tag_86\n        /* \"https://github.com/OpenZeppelin/openzeppelin-contracts/blob/v5.0.1/contracts/utils/ReentrancyGuard.sol\":2398:2416  _nonReentrantAfter */\n      tag_87\n        /* \"https://github.com/OpenZeppelin/openzeppelin-contracts/blob/v5.0.1/contracts/utils/ReentrancyGuard.sol\":2398:2418  _nonReentrantAfter() */\n      jump\t// in\n    tag_86:\n        /* \"Smart Contracts/12_Staking.sol\":1556:1905  function unstake(uint256 amount) external nonReentrant updateReward(msg.sender) {... */\n      pop\n      jump\t// out\n        /* \"Smart Contracts/12_Staking.sol\":1913:2170  function claimRewards() external nonReentrant updateReward(msg.sender) {... */\n    tag_34:\n        /* \"https://github.com/OpenZeppelin/openzeppelin-contracts/blob/v5.0.1/contracts/utils/ReentrancyGuard.sol\":2356:2377  _nonReentrantBefore() */\n      tag_89\n        /* \"https://github.com/OpenZeppelin/openzeppelin-contracts/blob/v5.0.1/contracts/utils/ReentrancyGuard.sol\":2356:2375  _nonReentrantBefore */\n      tag_65\n        /* \"https://github.com/OpenZeppelin/openzeppelin-contracts/blob/v5.0.1/contracts/utils/ReentrancyGuard.sol\":2356:2377  _nonReentrantBefore() */\n      jump\t// in\n    tag_89:\n        /* \"Smart Contracts/12_Staking.sol\":1972:1982  msg.sender */\n      caller\n        /* \"Smart Contracts/12_Staking.sol\":1124:1125  0 */\n      0x00\n        /* \"Smart Contracts/12_Staking.sol\":1108:1126  user != address(0) */\n      0xffffffffffffffffffffffffffffffffffffffff\n      and\n        /* \"Smart Contracts/12_Staking.sol\":1108:1112  user */\n      dup2\n        /* \"Smart Contracts/12_Staking.sol\":1108:1126  user != address(0) */\n      0xffffffffffffffffffffffffffffffffffffffff\n      and\n      eq\n        /* \"Smart Contracts/12_Staking.sol\":1104:1237  if (user != address(0)) {... */\n      tag_91\n      jumpi\n        /* \"Smart Contracts/12_Staking.sol\":1160:1172  earned(user) */\n      tag_92\n        /* \"Smart Contracts/12_Staking.sol\":1167:1171  user */\n      dup2\n        /* \"Smart Contracts/12_Staking.sol\":1160:1166  earned */\n      tag_18\n        /* \"Smart Contracts/12_Staking.sol\":1160:1172  earned(user) */\n      jump\t// in\n    tag_92:\n        /* \"Smart Contracts/12_Staking.sol\":1143:1150  rewards */\n      0x07\n        /* \"Smart Contracts/12_Staking.sol\":1143:1156  rewards[user] */\n      0x00\n        /* \"Smart Contracts/12_Staking.sol\":1151:1155  user */\n      dup4\n        /* \"Smart Contracts/12_Staking.sol\":1143:1156  rewards[user] */\n      0xffffffffffffffffffffffffffffffffffffffff\n      and\n      0xffffffffffffffffffffffffffffffffffffffff\n      and\n      dup2\n      mstore\n      0x20\n      add\n      swap1\n      dup2\n      mstore\n      0x20\n      add\n      0x00\n      keccak256\n      0x00\n        /* \"Smart Contracts/12_Staking.sol\":1143:1172  rewards[user] += earned(user) */\n      dup3\n      dup3\n      sload\n      tag_93\n      swap2\n      swap1\n      tag_70\n      jump\t// in\n    tag_93:\n      swap3\n      pop\n      pop\n      dup2\n      swap1\n      sstore\n      pop\n        /* \"Smart Contracts/12_Staking.sol\":1210:1225  block.timestamp */\n      timestamp\n        /* \"Smart Contracts/12_Staking.sol\":1187:1201  lastUpdateTime */\n      0x06\n        /* \"Smart Contracts/12_Staking.sol\":1187:1207  lastUpdateTime[user] */\n      0x00\n        /* \"Smart Contracts/12_Staking.sol\":1202:1206  user */\n      dup4\n        /* \"Smart Contracts/12_Staking.sol\":1187:1207  lastUpdateTime[user] */\n      0xffffffffffffffffffffffffffffffffffffffff\n      and\n      0xffffffffffffffffffffffffffffffffffffffff\n      and\n      dup2\n      mstore\n      0x20\n      add\n      swap1\n      dup2\n      mstore\n      0x20\n      add\n      0x00\n      keccak256\n        /* \"Smart Contracts/12_Staking.sol\":1187:1225  lastUpdateTime[user] = block.timestamp */\n      dup2\n      swap1\n      sstore\n      pop\n        /* \"Smart Contracts/12_Staking.sol\":1104:1237  if (user != address(0)) {... */\n    tag_91:\n        /* \"Smart Contracts/12_Staking.sol\":1995:2009  uint256 reward */\n      0x00\n        /* \"Smart Contracts/12_Staking.sol\":2012:2019  rewards */\n      0x07\n        /* \"Smart Contracts/12_Staking.sol\":2012:2031  rewards[msg.sender] */\n      0x00\n        /* \"Smart Contracts/12_Staking.sol\":2020:2030  msg.sender */\n      caller\n        /* \"Smart Contracts/12_Staking.sol\":2012:2031  rewards[msg.sender] */\n      0xffffffffffffffffffffffffffffffffffffffff\n      and\n      0xffffffffffffffffffffffffffffffffffffffff\n      and\n      dup2\n      mstore\n      0x20\n      add\n      swap1\n      dup2\n      mstore\n      0x20\n      add\n      0x00\n      keccak256\n      sload\n        /* \"Smart Contracts/12_Staking.sol\":1995:2031  uint256 reward = rewards[msg.sender] */\n      swap1\n      pop\n        /* \"Smart Contracts/12_Staking.sol\":2059:2060  0 */\n      0x00\n        /* \"Smart Contracts/12_Staking.sol\":2050:2056  reward */\n      dup2\n        /* \"Smart Contracts/12_Staking.sol\":2050:2060  reward > 0 */\n      gt\n        /* \"Smart Contracts/12_Staking.sol\":2042:2075  require(reward > 0, \"No rewards\") */\n      tag_95\n      jumpi\n      mload(0x40)\n      0x08c379a000000000000000000000000000000000000000000000000000000000\n      dup2\n      mstore\n      0x04\n      add\n      tag_96\n      swap1\n      tag_97\n      jump\t// in\n    tag_96:\n      mload(0x40)\n      dup1\n      swap2\n      sub\n      swap1\n      revert\n    tag_95:\n        /* \"Smart Contracts/12_Staking.sol\":2110:2111  0 */\n      0x00\n        /* \"Smart Contracts/12_Staking.sol\":2088:2095  rewards */\n      0x07\n        /* \"Smart Contracts/12_Staking.sol\":2088:2107  rewards[msg.sender] */\n      0x00\n        /* \"Smart Contracts/12_Staking.sol\":2096:2106  msg.sender */\n      caller\n        /* \"Smart Contracts/12_Staking.sol\":2088:2107  rewards[msg.sender] */\n      0xffffffffffffffffffffffffffffffffffffffff\n      and\n      0xffffffffffffffffffffffffffffffffffffffff\n      and\n      dup2\n      mstore\n      0x20\n      add\n      swap1\n      dup2\n      mstore\n      0x20\n      add\n      0x00\n      keccak256\n        /* \"Smart Contracts/12_Staking.sol\":2088:2111  rewards[msg.sender] = 0 */\n      dup2\n      swap1\n      sstore\n      pop\n        /* \"Smart Contracts/12_Staking.sol\":2122:2133  rewardToken */\n      0x02\n      0x00\n      swap1\n      sload\n      swap1\n      0x0100\n      exp\n      swap1\n      div\n      0xffffffffffffffffffffffffffffffffffffffff\n      and\n        /* \"Smart Contracts/12_Staking.sol\":2122:2142  rewardToken.transfer */\n      0xffffffffffffffffffffffffffffffffffffffff\n      and\n      0xa9059cbb\n        /* \"Smart Contracts/12_Staking.sol\":2143:2153  msg.sender */\n      caller\n        /* \"Smart Contracts/12_Staking.sol\":2155:2161  reward */\n      dup4\n        /* \"Smart Contracts/12_Staking.sol\":2122:2162  rewardToken.transfer(msg.sender, reward) */\n      mload(0x40)\n      dup4\n      0xffffffff\n      and\n      0xe0\n      shl\n      dup2\n      mstore\n      0x04\n      add\n      tag_98\n      swap3\n      swap2\n      swap1\n      tag_81\n      jump\t// in\n    tag_98:\n      0x20\n      mload(0x40)\n      dup1\n      dup4\n      sub\n      dup2\n      0x00\n      dup8\n      gas\n      call\n      iszero\n      dup1\n      iszero\n      tag_100\n      jumpi\n      returndatacopy(0x00, 0x00, returndatasize)\n      revert(0x00, returndatasize)\n    tag_100:\n      pop\n      pop\n      pop\n      pop\n      mload(0x40)\n      returndatasize\n      not(0x1f)\n      0x1f\n      dup3\n      add\n      and\n      dup3\n      add\n      dup1\n      0x40\n      mstore\n      pop\n      dup2\n      add\n      swap1\n      tag_101\n      swap2\n      swap1\n      tag_85\n      jump\t// in\n    tag_101:\n      pop\n        /* \"Smart Contracts/12_Staking.sol\":1984:2170  {... */\n      pop\n        /* \"https://github.com/OpenZeppelin/openzeppelin-contracts/blob/v5.0.1/contracts/utils/ReentrancyGuard.sol\":2387:2388  _ */\n      pop\n        /* \"https://github.com/OpenZeppelin/openzeppelin-contracts/blob/v5.0.1/contracts/utils/ReentrancyGuard.sol\":2398:2418  _nonReentrantAfter() */\n      tag_102\n        /* \"https://github.com/OpenZeppelin/openzeppelin-contracts/blob/v5.0.1/contracts/utils/ReentrancyGuard.sol\":2398:2416  _nonReentrantAfter */\n      tag_87\n        /* \"https://github.com/OpenZeppelin/openzeppelin-contracts/blob/v5.0.1/contracts/utils/ReentrancyGuard.sol\":2398:2418  _nonReentrantAfter() */\n      jump\t// in\n    tag_102:\n        /* \"Smart Contracts/12_Staking.sol\":1913:2170  function claimRewards() external nonReentrant updateReward(msg.sender) {... */\n      jump\t// out\n        /* \"Smart Contracts/12_Staking.sol\":463:511  mapping(address => uint256) public stakedBalance */\n    tag_37:\n      mstore(0x20, 0x05)\n      dup1\n      0x00\n      mstore\n      keccak256(0x00, 0x40)\n      0x00\n      swap2\n      pop\n      swap1\n      pop\n      sload\n      dup2\n      jump\t// out\n        /* \"Smart Contracts/12_Staking.sol\":329:355  IERC20 public stakingToken */\n    tag_40:\n      0x01\n      0x00\n      swap1\n      sload\n      swap1\n      0x0100\n      exp\n      swap1\n      div\n      0xffffffffffffffffffffffffffffffffffffffff\n      and\n      dup2\n      jump\t// out\n        /* \"Smart Contracts/12_Staking.sol\":396:421  uint256 public rewardRate */\n    tag_44:\n      sload(0x03)\n      dup2\n      jump\t// out\n        /* \"Smart Contracts/12_Staking.sol\":428:454  uint256 public totalStaked */\n    tag_47:\n      sload(0x04)\n      dup2\n      jump\t// out\n        /* \"Smart Contracts/12_Staking.sol\":1264:1548  function stake(uint256 amount) external nonReentrant updateReward(msg.sender){... */\n    tag_51:\n        /* \"https://github.com/OpenZeppelin/openzeppelin-contracts/blob/v5.0.1/contracts/utils/ReentrancyGuard.sol\":2356:2377  _nonReentrantBefore() */\n      tag_104\n        /* \"https://github.com/OpenZeppelin/openzeppelin-contracts/blob/v5.0.1/contracts/utils/ReentrancyGuard.sol\":2356:2375  _nonReentrantBefore */\n      tag_65\n        /* \"https://github.com/OpenZeppelin/openzeppelin-contracts/blob/v5.0.1/contracts/utils/ReentrancyGuard.sol\":2356:2377  _nonReentrantBefore() */\n      jump\t// in\n    tag_104:\n        /* \"Smart Contracts/12_Staking.sol\":1330:1340  msg.sender */\n      caller\n        /* \"Smart Contracts/12_Staking.sol\":1124:1125  0 */\n      0x00\n        /* \"Smart Contracts/12_Staking.sol\":1108:1126  user != address(0) */\n      0xffffffffffffffffffffffffffffffffffffffff\n      and\n        /* \"Smart Contracts/12_Staking.sol\":1108:1112  user */\n      dup2\n        /* \"Smart Contracts/12_Staking.sol\":1108:1126  user != address(0) */\n      0xffffffffffffffffffffffffffffffffffffffff\n      and\n      eq\n        /* \"Smart Contracts/12_Staking.sol\":1104:1237  if (user != address(0)) {... */\n      tag_106\n      jumpi\n        /* \"Smart Contracts/12_Staking.sol\":1160:1172  earned(user) */\n      tag_107\n        /* \"Smart Contracts/12_Staking.sol\":1167:1171  user */\n      dup2\n        /* \"Smart Contracts/12_Staking.sol\":1160:1166  earned */\n      tag_18\n        /* \"Smart Contracts/12_Staking.sol\":1160:1172  earned(user) */\n      jump\t// in\n    tag_107:\n        /* \"Smart Contracts/12_Staking.sol\":1143:1150  rewards */\n      0x07\n        /* \"Smart Contracts/12_Staking.sol\":1143:1156  rewards[user] */\n      0x00\n        /* \"Smart Contracts/12_Staking.sol\":1151:1155  user */\n      dup4\n        /* \"Smart Contracts/12_Staking.sol\":1143:1156  rewards[user] */\n      0xffffffffffffffffffffffffffffffffffffffff\n      and\n      0xffffffffffffffffffffffffffffffffffffffff\n      and\n      dup2\n      mstore\n      0x20\n      add\n      swap1\n      dup2\n      mstore\n      0x20\n      add\n      0x00\n      keccak256\n      0x00\n        /* \"Smart Contracts/12_Staking.sol\":1143:1172  rewards[user] += earned(user) */\n      dup3\n      dup3\n      sload\n      tag_108\n      swap2\n      swap1\n      tag_70\n      jump\t// in\n    tag_108:\n      swap3\n      pop\n      pop\n      dup2\n      swap1\n      sstore\n      pop\n        /* \"Smart Contracts/12_Staking.sol\":1210:1225  block.timestamp */\n      timestamp\n        /* \"Smart Contracts/12_Staking.sol\":1187:1201  lastUpdateTime */\n      0x06\n        /* \"Smart Contracts/12_Staking.sol\":1187:1207  lastUpdateTime[user] */\n      0x00\n        /* \"Smart Contracts/12_Staking.sol\":1202:1206  user */\n      dup4\n        /* \"Smart Contracts/12_Staking.sol\":1187:1207  lastUpdateTime[user] */\n      0xffffffffffffffffffffffffffffffffffffffff\n      and\n      0xffffffffffffffffffffffffffffffffffffffff\n      and\n      dup2\n      mstore\n      0x20\n      add\n      swap1\n      dup2\n      mstore\n      0x20\n      add\n      0x00\n      keccak256\n        /* \"Smart Contracts/12_Staking.sol\":1187:1225  lastUpdateTime[user] = block.timestamp */\n      dup2\n      swap1\n      sstore\n      pop\n        /* \"Smart Contracts/12_Staking.sol\":1104:1237  if (user != address(0)) {... */\n    tag_106:\n        /* \"Smart Contracts/12_Staking.sol\":1369:1370  0 */\n      0x00\n        /* \"Smart Contracts/12_Staking.sol\":1360:1366  amount */\n      dup3\n        /* \"Smart Contracts/12_Staking.sol\":1360:1370  amount > 0 */\n      gt\n        /* \"Smart Contracts/12_Staking.sol\":1352:1389  require(amount > 0, \"Cannot stake 0\") */\n      tag_110\n      jumpi\n      mload(0x40)\n      0x08c379a000000000000000000000000000000000000000000000000000000000\n      dup2\n      mstore\n      0x04\n      add\n      tag_111\n      swap1\n      tag_112\n      jump\t// in\n    tag_111:\n      mload(0x40)\n      dup1\n      swap2\n      sub\n      swap1\n      revert\n    tag_110:\n        /* \"Smart Contracts/12_Staking.sol\":1400:1412  stakingToken */\n      0x01\n      0x00\n      swap1\n      sload\n      swap1\n      0x0100\n      exp\n      swap1\n      div\n      0xffffffffffffffffffffffffffffffffffffffff\n      and\n        /* \"Smart Contracts/12_Staking.sol\":1400:1425  stakingToken.transferFrom */\n      0xffffffffffffffffffffffffffffffffffffffff\n      and\n      0x23b872dd\n        /* \"Smart Contracts/12_Staking.sol\":1426:1436  msg.sender */\n      caller\n        /* \"Smart Contracts/12_Staking.sol\":1446:1450  this */\n      address\n        /* \"Smart Contracts/12_Staking.sol\":1453:1459  amount */\n      dup6\n        /* \"Smart Contracts/12_Staking.sol\":1400:1460  stakingToken.transferFrom(msg.sender, address(this), amount) */\n      mload(0x40)\n      dup5\n      0xffffffff\n      and\n      0xe0\n      shl\n      dup2\n      mstore\n      0x04\n      add\n      tag_113\n      swap4\n      swap3\n      swap2\n      swap1\n      tag_114\n      jump\t// in\n    tag_113:\n      0x20\n      mload(0x40)\n      dup1\n      dup4\n      sub\n      dup2\n      0x00\n      dup8\n      gas\n      call\n      iszero\n      dup1\n      iszero\n      tag_116\n      jumpi\n      returndatacopy(0x00, 0x00, returndatasize)\n      revert(0x00, returndatasize)\n    tag_116:\n      pop\n      pop\n      pop\n      pop\n      mload(0x40)\n      returndatasize\n      not(0x1f)\n      0x1f\n      dup3\n      add\n      and\n      dup3\n      add\n      dup1\n      0x40\n      mstore\n      pop\n      dup2\n      add\n      swap1\n      tag_117\n      swap2\n      swap1\n      tag_85\n      jump\t// in\n    tag_117:\n      pop\n        /* \"Smart Contracts/12_Staking.sol\":1502:1508  amount */\n      dup2\n        /* \"Smart Contracts/12_Staking.sol\":1473:1486  stakedBalance */\n      0x05\n        /* \"Smart Contracts/12_Staking.sol\":1473:1498  stakedBalance[msg.sender] */\n      0x00\n        /* \"Smart Contracts/12_Staking.sol\":1487:1497  msg.sender */\n      caller\n        /* \"Smart Contracts/12_Staking.sol\":1473:1498  stakedBalance[msg.sender] */\n      0xffffffffffffffffffffffffffffffffffffffff\n      and\n      0xffffffffffffffffffffffffffffffffffffffff\n      and\n      dup2\n      mstore\n      0x20\n      add\n      swap1\n      dup2\n      mstore\n      0x20\n      add\n      0x00\n      keccak256\n      0x00\n        /* \"Smart Contracts/12_Staking.sol\":1473:1508  stakedBalance[msg.sender] += amount */\n      dup3\n      dup3\n      sload\n      tag_118\n      swap2\n      swap1\n      tag_70\n      jump\t// in\n    tag_118:\n      swap3\n      pop\n      pop\n      dup2\n      swap1\n      sstore\n      pop\n        /* \"Smart Contracts/12_Staking.sol\":1534:1540  amount */\n      dup2\n        /* \"Smart Contracts/12_Staking.sol\":1519:1530  totalStaked */\n      0x04\n      0x00\n        /* \"Smart Contracts/12_Staking.sol\":1519:1540  totalStaked += amount */\n      dup3\n      dup3\n      sload\n      tag_119\n      swap2\n      swap1\n      tag_70\n      jump\t// in\n    tag_119:\n      swap3\n      pop\n      pop\n      dup2\n      swap1\n      sstore\n      pop\n        /* \"https://github.com/OpenZeppelin/openzeppelin-contracts/blob/v5.0.1/contracts/utils/ReentrancyGuard.sol\":2387:2388  _ */\n      pop\n        /* \"https://github.com/OpenZeppelin/openzeppelin-contracts/blob/v5.0.1/contracts/utils/ReentrancyGuard.sol\":2398:2418  _nonReentrantAfter() */\n      tag_120\n        /* \"https://github.com/OpenZeppelin/openzeppelin-contracts/blob/v5.0.1/contracts/utils/ReentrancyGuard.sol\":2398:2416  _nonReentrantAfter */\n      tag_87\n        /* \"https://github.com/OpenZeppelin/openzeppelin-contracts/blob/v5.0.1/contracts/utils/ReentrancyGuard.sol\":2398:2418  _nonReentrantAfter() */\n      jump\t// in\n    tag_120:\n        /* \"Smart Contracts/12_Staking.sol\":1264:1548  function stake(uint256 amount) external nonReentrant updateReward(msg.sender){... */\n      pop\n      jump\t// out\n        /* \"Smart Contracts/12_Staking.sol\":362:387  IERC20 public rewardToken */\n    tag_53:\n      0x02\n      0x00\n      swap1\n      sload\n      swap1\n      0x0100\n      exp\n      swap1\n      div\n      0xffffffffffffffffffffffffffffffffffffffff\n      and\n      dup2\n      jump\t// out\n        /* \"https://github.com/OpenZeppelin/openzeppelin-contracts/blob/v5.0.1/contracts/utils/ReentrancyGuard.sol\":2431:2738  function _nonReentrantBefore() private {... */\n    tag_65:\n        /* \"https://github.com/OpenZeppelin/openzeppelin-contracts/blob/v5.0.1/contracts/utils/ReentrancyGuard.sol\":1755:1756  2 */\n      0x02\n        /* \"https://github.com/OpenZeppelin/openzeppelin-contracts/blob/v5.0.1/contracts/utils/ReentrancyGuard.sol\":2558:2565  _status */\n      sload(0x00)\n        /* \"https://github.com/OpenZeppelin/openzeppelin-contracts/blob/v5.0.1/contracts/utils/ReentrancyGuard.sol\":2558:2576  _status == ENTERED */\n      sub\n        /* \"https://github.com/OpenZeppelin/openzeppelin-contracts/blob/v5.0.1/contracts/utils/ReentrancyGuard.sol\":2554:2640  if (_status == ENTERED) {... */\n      tag_122\n      jumpi\n        /* \"https://github.com/OpenZeppelin/openzeppelin-contracts/blob/v5.0.1/contracts/utils/ReentrancyGuard.sol\":2599:2629  ReentrancyGuardReentrantCall() */\n      mload(0x40)\n      0x3ee5aeb500000000000000000000000000000000000000000000000000000000\n      dup2\n      mstore\n      0x04\n      add\n      mload(0x40)\n      dup1\n      swap2\n      sub\n      swap1\n      revert\n        /* \"https://github.com/OpenZeppelin/openzeppelin-contracts/blob/v5.0.1/contracts/utils/ReentrancyGuard.sol\":2554:2640  if (_status == ENTERED) {... */\n    tag_122:\n        /* \"https://github.com/OpenZeppelin/openzeppelin-contracts/blob/v5.0.1/contracts/utils/ReentrancyGuard.sol\":1755:1756  2 */\n      0x02\n        /* \"https://github.com/OpenZeppelin/openzeppelin-contracts/blob/v5.0.1/contracts/utils/ReentrancyGuard.sol\":2714:2721  _status */\n      0x00\n        /* \"https://github.com/OpenZeppelin/openzeppelin-contracts/blob/v5.0.1/contracts/utils/ReentrancyGuard.sol\":2714:2731  _status = ENTERED */\n      dup2\n      swap1\n      sstore\n      pop\n        /* \"https://github.com/OpenZeppelin/openzeppelin-contracts/blob/v5.0.1/contracts/utils/ReentrancyGuard.sol\":2431:2738  function _nonReentrantBefore() private {... */\n      jump\t// out\n        /* \"https://github.com/OpenZeppelin/openzeppelin-contracts/blob/v5.0.1/contracts/utils/ReentrancyGuard.sol\":2744:2952  function _nonReentrantAfter() private {... */\n    tag_87:\n        /* \"https://github.com/OpenZeppelin/openzeppelin-contracts/blob/v5.0.1/contracts/utils/ReentrancyGuard.sol\":1713:1714  1 */\n      0x01\n        /* \"https://github.com/OpenZeppelin/openzeppelin-contracts/blob/v5.0.1/contracts/utils/ReentrancyGuard.sol\":2924:2931  _status */\n      0x00\n        /* \"https://github.com/OpenZeppelin/openzeppelin-contracts/blob/v5.0.1/contracts/utils/ReentrancyGuard.sol\":2924:2945  _status = NOT_ENTERED */\n      dup2\n      swap1\n      sstore\n      pop\n        /* \"https://github.com/OpenZeppelin/openzeppelin-contracts/blob/v5.0.1/contracts/utils/ReentrancyGuard.sol\":2744:2952  function _nonReentrantAfter() private {... */\n      jump\t// out\n        /* \"#utility.yul\":88:205   */\n    tag_125:\n        /* \"#utility.yul\":197:198   */\n      0x00\n        /* \"#utility.yul\":194:195   */\n      0x00\n        /* \"#utility.yul\":187:199   */\n      revert\n        /* \"#utility.yul\":334:460   */\n    tag_127:\n        /* \"#utility.yul\":371:378   */\n      0x00\n        /* \"#utility.yul\":411:453   */\n      0xffffffffffffffffffffffffffffffffffffffff\n        /* \"#utility.yul\":404:409   */\n      dup3\n        /* \"#utility.yul\":400:454   */\n      and\n        /* \"#utility.yul\":389:454   */\n      swap1\n      pop\n        /* \"#utility.yul\":334:460   */\n      swap2\n      swap1\n      pop\n      jump\t// out\n        /* \"#utility.yul\":466:562   */\n    tag_128:\n        /* \"#utility.yul\":503:510   */\n      0x00\n        /* \"#utility.yul\":532:556   */\n      tag_161\n        /* \"#utility.yul\":550:555   */\n      dup3\n        /* \"#utility.yul\":532:556   */\n      tag_127\n      jump\t// in\n    tag_161:\n        /* \"#utility.yul\":521:556   */\n      swap1\n      pop\n        /* \"#utility.yul\":466:562   */\n      swap2\n      swap1\n      pop\n      jump\t// out\n        /* \"#utility.yul\":568:690   */\n    tag_129:\n        /* \"#utility.yul\":641:665   */\n      tag_163\n        /* \"#utility.yul\":659:664   */\n      dup2\n        /* \"#utility.yul\":641:665   */\n      tag_128\n      jump\t// in\n    tag_163:\n        /* \"#utility.yul\":634:639   */\n      dup2\n        /* \"#utility.yul\":631:666   */\n      eq\n        /* \"#utility.yul\":621:684   */\n      tag_164\n      jumpi\n        /* \"#utility.yul\":680:681   */\n      0x00\n        /* \"#utility.yul\":677:678   */\n      0x00\n        /* \"#utility.yul\":670:682   */\n      revert\n        /* \"#utility.yul\":621:684   */\n    tag_164:\n        /* \"#utility.yul\":568:690   */\n      pop\n      jump\t// out\n        /* \"#utility.yul\":696:835   */\n    tag_130:\n        /* \"#utility.yul\":742:747   */\n      0x00\n        /* \"#utility.yul\":780:786   */\n      dup2\n        /* \"#utility.yul\":767:787   */\n      calldataload\n        /* \"#utility.yul\":758:787   */\n      swap1\n      pop\n        /* \"#utility.yul\":796:829   */\n      tag_166\n        /* \"#utility.yul\":823:828   */\n      dup2\n        /* \"#utility.yul\":796:829   */\n      tag_129\n      jump\t// in\n    tag_166:\n        /* \"#utility.yul\":696:835   */\n      swap3\n      swap2\n      pop\n      pop\n      jump\t// out\n        /* \"#utility.yul\":841:1170   */\n    tag_17:\n        /* \"#utility.yul\":900:906   */\n      0x00\n        /* \"#utility.yul\":949:951   */\n      0x20\n        /* \"#utility.yul\":937:946   */\n      dup3\n        /* \"#utility.yul\":928:935   */\n      dup5\n        /* \"#utility.yul\":924:947   */\n      sub\n        /* \"#utility.yul\":920:952   */\n      slt\n        /* \"#utility.yul\":917:1036   */\n      iszero\n      tag_168\n      jumpi\n        /* \"#utility.yul\":955:1034   */\n      tag_169\n      tag_125\n      jump\t// in\n    tag_169:\n        /* \"#utility.yul\":917:1036   */\n    tag_168:\n        /* \"#utility.yul\":1075:1076   */\n      0x00\n        /* \"#utility.yul\":1100:1153   */\n      tag_170\n        /* \"#utility.yul\":1145:1152   */\n      dup5\n        /* \"#utility.yul\":1136:1142   */\n      dup3\n        /* \"#utility.yul\":1125:1134   */\n      dup6\n        /* \"#utility.yul\":1121:1143   */\n      add\n        /* \"#utility.yul\":1100:1153   */\n      tag_130\n      jump\t// in\n    tag_170:\n        /* \"#utility.yul\":1090:1153   */\n      swap2\n      pop\n        /* \"#utility.yul\":1046:1163   */\n      pop\n        /* \"#utility.yul\":841:1170   */\n      swap3\n      swap2\n      pop\n      pop\n      jump\t// out\n        /* \"#utility.yul\":1176:1253   */\n    tag_131:\n        /* \"#utility.yul\":1213:1220   */\n      0x00\n        /* \"#utility.yul\":1242:1247   */\n      dup2\n        /* \"#utility.yul\":1231:1247   */\n      swap1\n      pop\n        /* \"#utility.yul\":1176:1253   */\n      swap2\n      swap1\n      pop\n      jump\t// out\n        /* \"#utility.yul\":1259:1377   */\n    tag_132:\n        /* \"#utility.yul\":1346:1370   */\n      tag_173\n        /* \"#utility.yul\":1364:1369   */\n      dup2\n        /* \"#utility.yul\":1346:1370   */\n      tag_131\n      jump\t// in\n    tag_173:\n        /* \"#utility.yul\":1341:1344   */\n      dup3\n        /* \"#utility.yul\":1334:1371   */\n      mstore\n        /* \"#utility.yul\":1259:1377   */\n      pop\n      pop\n      jump\t// out\n        /* \"#utility.yul\":1383:1605   */\n    tag_20:\n        /* \"#utility.yul\":1476:1480   */\n      0x00\n        /* \"#utility.yul\":1514:1516   */\n      0x20\n        /* \"#utility.yul\":1503:1512   */\n      dup3\n        /* \"#utility.yul\":1499:1517   */\n      add\n        /* \"#utility.yul\":1491:1517   */\n      swap1\n      pop\n        /* \"#utility.yul\":1527:1598   */\n      tag_175\n        /* \"#utility.yul\":1595:1596   */\n      0x00\n        /* \"#utility.yul\":1584:1593   */\n      dup4\n        /* \"#utility.yul\":1580:1597   */\n      add\n        /* \"#utility.yul\":1571:1577   */\n      dup5\n        /* \"#utility.yul\":1527:1598   */\n      tag_132\n      jump\t// in\n    tag_175:\n        /* \"#utility.yul\":1383:1605   */\n      swap3\n      swap2\n      pop\n      pop\n      jump\t// out\n        /* \"#utility.yul\":1611:1733   */\n    tag_133:\n        /* \"#utility.yul\":1684:1708   */\n      tag_177\n        /* \"#utility.yul\":1702:1707   */\n      dup2\n        /* \"#utility.yul\":1684:1708   */\n      tag_131\n      jump\t// in\n    tag_177:\n        /* \"#utility.yul\":1677:1682   */\n      dup2\n        /* \"#utility.yul\":1674:1709   */\n      eq\n        /* \"#utility.yul\":1664:1727   */\n      tag_178\n      jumpi\n        /* \"#utility.yul\":1723:1724   */\n      0x00\n        /* \"#utility.yul\":1720:1721   */\n      0x00\n        /* \"#utility.yul\":1713:1725   */\n      revert\n        /* \"#utility.yul\":1664:1727   */\n    tag_178:\n        /* \"#utility.yul\":1611:1733   */\n      pop\n      jump\t// out\n        /* \"#utility.yul\":1739:1878   */\n    tag_134:\n        /* \"#utility.yul\":1785:1790   */\n      0x00\n        /* \"#utility.yul\":1823:1829   */\n      dup2\n        /* \"#utility.yul\":1810:1830   */\n      calldataload\n        /* \"#utility.yul\":1801:1830   */\n      swap1\n      pop\n        /* \"#utility.yul\":1839:1872   */\n      tag_180\n        /* \"#utility.yul\":1866:1871   */\n      dup2\n        /* \"#utility.yul\":1839:1872   */\n      tag_133\n      jump\t// in\n    tag_180:\n        /* \"#utility.yul\":1739:1878   */\n      swap3\n      swap2\n      pop\n      pop\n      jump\t// out\n        /* \"#utility.yul\":1884:2213   */\n    tag_31:\n        /* \"#utility.yul\":1943:1949   */\n      0x00\n        /* \"#utility.yul\":1992:1994   */\n      0x20\n        /* \"#utility.yul\":1980:1989   */\n      dup3\n        /* \"#utility.yul\":1971:1978   */\n      dup5\n        /* \"#utility.yul\":1967:1990   */\n      sub\n        /* \"#utility.yul\":1963:1995   */\n      slt\n        /* \"#utility.yul\":1960:2079   */\n      iszero\n      tag_182\n      jumpi\n        /* \"#utility.yul\":1998:2077   */\n      tag_183\n      tag_125\n      jump\t// in\n    tag_183:\n        /* \"#utility.yul\":1960:2079   */\n    tag_182:\n        /* \"#utility.yul\":2118:2119   */\n      0x00\n        /* \"#utility.yul\":2143:2196   */\n      tag_184\n        /* \"#utility.yul\":2188:2195   */\n      dup5\n        /* \"#utility.yul\":2179:2185   */\n      dup3\n        /* \"#utility.yul\":2168:2177   */\n      dup6\n        /* \"#utility.yul\":2164:2186   */\n      add\n        /* \"#utility.yul\":2143:2196   */\n      tag_134\n      jump\t// in\n    tag_184:\n        /* \"#utility.yul\":2133:2196   */\n      swap2\n      pop\n        /* \"#utility.yul\":2089:2206   */\n      pop\n        /* \"#utility.yul\":1884:2213   */\n      swap3\n      swap2\n      pop\n      pop\n      jump\t// out\n        /* \"#utility.yul\":2219:2279   */\n    tag_135:\n        /* \"#utility.yul\":2247:2250   */\n      0x00\n        /* \"#utility.yul\":2268:2273   */\n      dup2\n        /* \"#utility.yul\":2261:2273   */\n      swap1\n      pop\n        /* \"#utility.yul\":2219:2279   */\n      swap2\n      swap1\n      pop\n      jump\t// out\n        /* \"#utility.yul\":2285:2427   */\n    tag_136:\n        /* \"#utility.yul\":2335:2344   */\n      0x00\n        /* \"#utility.yul\":2368:2421   */\n      tag_187\n        /* \"#utility.yul\":2386:2420   */\n      tag_188\n        /* \"#utility.yul\":2395:2419   */\n      tag_189\n        /* \"#utility.yul\":2413:2418   */\n      dup5\n        /* \"#utility.yul\":2395:2419   */\n      tag_127\n      jump\t// in\n    tag_189:\n        /* \"#utility.yul\":2386:2420   */\n      tag_135\n      jump\t// in\n    tag_188:\n        /* \"#utility.yul\":2368:2421   */\n      tag_127\n      jump\t// in\n    tag_187:\n        /* \"#utility.yul\":2355:2421   */\n      swap1\n      pop\n        /* \"#utility.yul\":2285:2427   */\n      swap2\n      swap1\n      pop\n      jump\t// out\n        /* \"#utility.yul\":2433:2559   */\n    tag_137:\n        /* \"#utility.yul\":2483:2492   */\n      0x00\n        /* \"#utility.yul\":2516:2553   */\n      tag_191\n        /* \"#utility.yul\":2547:2552   */\n      dup3\n        /* \"#utility.yul\":2516:2553   */\n      tag_136\n      jump\t// in\n    tag_191:\n        /* \"#utility.yul\":2503:2553   */\n      swap1\n      pop\n        /* \"#utility.yul\":2433:2559   */\n      swap2\n      swap1\n      pop\n      jump\t// out\n        /* \"#utility.yul\":2565:2705   */\n    tag_138:\n        /* \"#utility.yul\":2629:2638   */\n      0x00\n        /* \"#utility.yul\":2662:2699   */\n      tag_193\n        /* \"#utility.yul\":2693:2698   */\n      dup3\n        /* \"#utility.yul\":2662:2699   */\n      tag_137\n      jump\t// in\n    tag_193:\n        /* \"#utility.yul\":2649:2699   */\n      swap1\n      pop\n        /* \"#utility.yul\":2565:2705   */\n      swap2\n      swap1\n      pop\n      jump\t// out\n        /* \"#utility.yul\":2711:2870   */\n    tag_139:\n        /* \"#utility.yul\":2812:2863   */\n      tag_195\n        /* \"#utility.yul\":2857:2862   */\n      dup2\n        /* \"#utility.yul\":2812:2863   */\n      tag_138\n      jump\t// in\n    tag_195:\n        /* \"#utility.yul\":2807:2810   */\n      dup3\n        /* \"#utility.yul\":2800:2864   */\n      mstore\n        /* \"#utility.yul\":2711:2870   */\n      pop\n      pop\n      jump\t// out\n        /* \"#utility.yul\":2876:3126   */\n    tag_42:\n        /* \"#utility.yul\":2983:2987   */\n      0x00\n        /* \"#utility.yul\":3021:3023   */\n      0x20\n        /* \"#utility.yul\":3010:3019   */\n      dup3\n        /* \"#utility.yul\":3006:3024   */\n      add\n        /* \"#utility.yul\":2998:3024   */\n      swap1\n      pop\n        /* \"#utility.yul\":3034:3119   */\n      tag_197\n        /* \"#utility.yul\":3116:3117   */\n      0x00\n        /* \"#utility.yul\":3105:3114   */\n      dup4\n        /* \"#utility.yul\":3101:3118   */\n      add\n        /* \"#utility.yul\":3092:3098   */\n      dup5\n        /* \"#utility.yul\":3034:3119   */\n      tag_139\n      jump\t// in\n    tag_197:\n        /* \"#utility.yul\":2876:3126   */\n      swap3\n      swap2\n      pop\n      pop\n      jump\t// out\n        /* \"#utility.yul\":3132:3312   */\n    tag_140:\n        /* \"#utility.yul\":3180:3257   */\n      0x4e487b7100000000000000000000000000000000000000000000000000000000\n        /* \"#utility.yul\":3177:3178   */\n      0x00\n        /* \"#utility.yul\":3170:3258   */\n      mstore\n        /* \"#utility.yul\":3277:3281   */\n      0x11\n        /* \"#utility.yul\":3274:3275   */\n      0x04\n        /* \"#utility.yul\":3267:3282   */\n      mstore\n        /* \"#utility.yul\":3301:3305   */\n      0x24\n        /* \"#utility.yul\":3298:3299   */\n      0x00\n        /* \"#utility.yul\":3291:3306   */\n      revert\n        /* \"#utility.yul\":3318:3512   */\n    tag_57:\n        /* \"#utility.yul\":3358:3362   */\n      0x00\n        /* \"#utility.yul\":3378:3398   */\n      tag_200\n        /* \"#utility.yul\":3396:3397   */\n      dup3\n        /* \"#utility.yul\":3378:3398   */\n      tag_131\n      jump\t// in\n    tag_200:\n        /* \"#utility.yul\":3373:3398   */\n      swap2\n      pop\n        /* \"#utility.yul\":3412:3432   */\n      tag_201\n        /* \"#utility.yul\":3430:3431   */\n      dup4\n        /* \"#utility.yul\":3412:3432   */\n      tag_131\n      jump\t// in\n    tag_201:\n        /* \"#utility.yul\":3407:3432   */\n      swap3\n      pop\n        /* \"#utility.yul\":3456:3457   */\n      dup3\n        /* \"#utility.yul\":3453:3454   */\n      dup3\n        /* \"#utility.yul\":3449:3458   */\n      sub\n        /* \"#utility.yul\":3441:3458   */\n      swap1\n      pop\n        /* \"#utility.yul\":3480:3481   */\n      dup2\n        /* \"#utility.yul\":3474:3478   */\n      dup2\n        /* \"#utility.yul\":3471:3482   */\n      gt\n        /* \"#utility.yul\":3468:3505   */\n      iszero\n      tag_202\n      jumpi\n        /* \"#utility.yul\":3485:3503   */\n      tag_203\n      tag_140\n      jump\t// in\n    tag_203:\n        /* \"#utility.yul\":3468:3505   */\n    tag_202:\n        /* \"#utility.yul\":3318:3512   */\n      swap3\n      swap2\n      pop\n      pop\n      jump\t// out\n        /* \"#utility.yul\":3518:3928   */\n    tag_59:\n        /* \"#utility.yul\":3558:3565   */\n      0x00\n        /* \"#utility.yul\":3581:3601   */\n      tag_205\n        /* \"#utility.yul\":3599:3600   */\n      dup3\n        /* \"#utility.yul\":3581:3601   */\n      tag_131\n      jump\t// in\n    tag_205:\n        /* \"#utility.yul\":3576:3601   */\n      swap2\n      pop\n        /* \"#utility.yul\":3615:3635   */\n      tag_206\n        /* \"#utility.yul\":3633:3634   */\n      dup4\n        /* \"#utility.yul\":3615:3635   */\n      tag_131\n      jump\t// in\n    tag_206:\n        /* \"#utility.yul\":3610:3635   */\n      swap3\n      pop\n        /* \"#utility.yul\":3670:3671   */\n      dup3\n        /* \"#utility.yul\":3667:3668   */\n      dup3\n        /* \"#utility.yul\":3663:3672   */\n      mul\n        /* \"#utility.yul\":3692:3722   */\n      tag_207\n        /* \"#utility.yul\":3710:3721   */\n      dup2\n        /* \"#utility.yul\":3692:3722   */\n      tag_131\n      jump\t// in\n    tag_207:\n        /* \"#utility.yul\":3681:3722   */\n      swap2\n      pop\n        /* \"#utility.yul\":3871:3872   */\n      dup3\n        /* \"#utility.yul\":3862:3869   */\n      dup3\n        /* \"#utility.yul\":3858:3873   */\n      div\n        /* \"#utility.yul\":3855:3856   */\n      dup5\n        /* \"#utility.yul\":3852:3874   */\n      eq\n        /* \"#utility.yul\":3832:3833   */\n      dup4\n        /* \"#utility.yul\":3825:3834   */\n      iszero\n        /* \"#utility.yul\":3805:3888   */\n      or\n        /* \"#utility.yul\":3782:3921   */\n      tag_208\n      jumpi\n        /* \"#utility.yul\":3901:3919   */\n      tag_209\n      tag_140\n      jump\t// in\n    tag_209:\n        /* \"#utility.yul\":3782:3921   */\n    tag_208:\n        /* \"#utility.yul\":3566:3928   */\n      pop\n        /* \"#utility.yul\":3518:3928   */\n      swap3\n      swap2\n      pop\n      pop\n      jump\t// out\n        /* \"#utility.yul\":3934:4114   */\n    tag_141:\n        /* \"#utility.yul\":3982:4059   */\n      0x4e487b7100000000000000000000000000000000000000000000000000000000\n        /* \"#utility.yul\":3979:3980   */\n      0x00\n        /* \"#utility.yul\":3972:4060   */\n      mstore\n        /* \"#utility.yul\":4079:4083   */\n      0x12\n        /* \"#utility.yul\":4076:4077   */\n      0x04\n        /* \"#utility.yul\":4069:4084   */\n      mstore\n        /* \"#utility.yul\":4103:4107   */\n      0x24\n        /* \"#utility.yul\":4100:4101   */\n      0x00\n        /* \"#utility.yul\":4093:4108   */\n      revert\n        /* \"#utility.yul\":4120:4305   */\n    tag_62:\n        /* \"#utility.yul\":4160:4161   */\n      0x00\n        /* \"#utility.yul\":4177:4197   */\n      tag_212\n        /* \"#utility.yul\":4195:4196   */\n      dup3\n        /* \"#utility.yul\":4177:4197   */\n      tag_131\n      jump\t// in\n    tag_212:\n        /* \"#utility.yul\":4172:4197   */\n      swap2\n      pop\n        /* \"#utility.yul\":4211:4231   */\n      tag_213\n        /* \"#utility.yul\":4229:4230   */\n      dup4\n        /* \"#utility.yul\":4211:4231   */\n      tag_131\n      jump\t// in\n    tag_213:\n        /* \"#utility.yul\":4206:4231   */\n      swap3\n      pop\n        /* \"#utility.yul\":4250:4251   */\n      dup3\n        /* \"#utility.yul\":4240:4275   */\n      tag_214\n      jumpi\n        /* \"#utility.yul\":4255:4273   */\n      tag_215\n      tag_141\n      jump\t// in\n    tag_215:\n        /* \"#utility.yul\":4240:4275   */\n    tag_214:\n        /* \"#utility.yul\":4297:4298   */\n      dup3\n        /* \"#utility.yul\":4294:4295   */\n      dup3\n        /* \"#utility.yul\":4290:4299   */\n      div\n        /* \"#utility.yul\":4285:4299   */\n      swap1\n      pop\n        /* \"#utility.yul\":4120:4305   */\n      swap3\n      swap2\n      pop\n      pop\n      jump\t// out\n        /* \"#utility.yul\":4311:4502   */\n    tag_70:\n        /* \"#utility.yul\":4351:4354   */\n      0x00\n        /* \"#utility.yul\":4370:4390   */\n      tag_217\n        /* \"#utility.yul\":4388:4389   */\n      dup3\n        /* \"#utility.yul\":4370:4390   */\n      tag_131\n      jump\t// in\n    tag_217:\n        /* \"#utility.yul\":4365:4390   */\n      swap2\n      pop\n        /* \"#utility.yul\":4404:4424   */\n      tag_218\n        /* \"#utility.yul\":4422:4423   */\n      dup4\n        /* \"#utility.yul\":4404:4424   */\n      tag_131\n      jump\t// in\n    tag_218:\n        /* \"#utility.yul\":4399:4424   */\n      swap3\n      pop\n        /* \"#utility.yul\":4447:4448   */\n      dup3\n        /* \"#utility.yul\":4444:4445   */\n      dup3\n        /* \"#utility.yul\":4440:4449   */\n      add\n        /* \"#utility.yul\":4433:4449   */\n      swap1\n      pop\n        /* \"#utility.yul\":4468:4471   */\n      dup1\n        /* \"#utility.yul\":4465:4466   */\n      dup3\n        /* \"#utility.yul\":4462:4472   */\n      gt\n        /* \"#utility.yul\":4459:4495   */\n      iszero\n      tag_219\n      jumpi\n        /* \"#utility.yul\":4475:4493   */\n      tag_220\n      tag_140\n      jump\t// in\n    tag_220:\n        /* \"#utility.yul\":4459:4495   */\n    tag_219:\n        /* \"#utility.yul\":4311:4502   */\n      swap3\n      swap2\n      pop\n      pop\n      jump\t// out\n        /* \"#utility.yul\":4508:4677   */\n    tag_142:\n        /* \"#utility.yul\":4592:4603   */\n      0x00\n        /* \"#utility.yul\":4626:4632   */\n      dup3\n        /* \"#utility.yul\":4621:4624   */\n      dup3\n        /* \"#utility.yul\":4614:4633   */\n      mstore\n        /* \"#utility.yul\":4666:4670   */\n      0x20\n        /* \"#utility.yul\":4661:4664   */\n      dup3\n        /* \"#utility.yul\":4657:4671   */\n      add\n        /* \"#utility.yul\":4642:4671   */\n      swap1\n      pop\n        /* \"#utility.yul\":4508:4677   */\n      swap3\n      swap2\n      pop\n      pop\n      jump\t// out\n        /* \"#utility.yul\":4683:4849   */\n    tag_143:\n        /* \"#utility.yul\":4823:4841   */\n      0x43616e6e6f7420756e7374616b65203000000000000000000000000000000000\n        /* \"#utility.yul\":4819:4820   */\n      0x00\n        /* \"#utility.yul\":4811:4817   */\n      dup3\n        /* \"#utility.yul\":4807:4821   */\n      add\n        /* \"#utility.yul\":4800:4842   */\n      mstore\n        /* \"#utility.yul\":4683:4849   */\n      pop\n      jump\t// out\n        /* \"#utility.yul\":4855:5221   */\n    tag_144:\n        /* \"#utility.yul\":4997:5000   */\n      0x00\n        /* \"#utility.yul\":5018:5085   */\n      tag_224\n        /* \"#utility.yul\":5082:5084   */\n      0x10\n        /* \"#utility.yul\":5077:5080   */\n      dup4\n        /* \"#utility.yul\":5018:5085   */\n      tag_142\n      jump\t// in\n    tag_224:\n        /* \"#utility.yul\":5011:5085   */\n      swap2\n      pop\n        /* \"#utility.yul\":5094:5187   */\n      tag_225\n        /* \"#utility.yul\":5183:5186   */\n      dup3\n        /* \"#utility.yul\":5094:5187   */\n      tag_143\n      jump\t// in\n    tag_225:\n        /* \"#utility.yul\":5212:5214   */\n      0x20\n        /* \"#utility.yul\":5207:5210   */\n      dup3\n        /* \"#utility.yul\":5203:5215   */\n      add\n        /* \"#utility.yul\":5196:5215   */\n      swap1\n      pop\n        /* \"#utility.yul\":4855:5221   */\n      swap2\n      swap1\n      pop\n      jump\t// out\n        /* \"#utility.yul\":5227:5646   */\n    tag_74:\n        /* \"#utility.yul\":5393:5397   */\n      0x00\n        /* \"#utility.yul\":5431:5433   */\n      0x20\n        /* \"#utility.yul\":5420:5429   */\n      dup3\n        /* \"#utility.yul\":5416:5434   */\n      add\n        /* \"#utility.yul\":5408:5434   */\n      swap1\n      pop\n        /* \"#utility.yul\":5480:5489   */\n      dup2\n        /* \"#utility.yul\":5474:5478   */\n      dup2\n        /* \"#utility.yul\":5470:5490   */\n      sub\n        /* \"#utility.yul\":5466:5467   */\n      0x00\n        /* \"#utility.yul\":5455:5464   */\n      dup4\n        /* \"#utility.yul\":5451:5468   */\n      add\n        /* \"#utility.yul\":5444:5491   */\n      mstore\n        /* \"#utility.yul\":5508:5639   */\n      tag_227\n        /* \"#utility.yul\":5634:5638   */\n      dup2\n        /* \"#utility.yul\":5508:5639   */\n      tag_144\n      jump\t// in\n    tag_227:\n        /* \"#utility.yul\":5500:5639   */\n      swap1\n      pop\n        /* \"#utility.yul\":5227:5646   */\n      swap2\n      swap1\n      pop\n      jump\t// out\n        /* \"#utility.yul\":5652:5820   */\n    tag_145:\n        /* \"#utility.yul\":5792:5812   */\n      0x496e73756666696369656e74207374616b650000000000000000000000000000\n        /* \"#utility.yul\":5788:5789   */\n      0x00\n        /* \"#utility.yul\":5780:5786   */\n      dup3\n        /* \"#utility.yul\":5776:5790   */\n      add\n        /* \"#utility.yul\":5769:5813   */\n      mstore\n        /* \"#utility.yul\":5652:5820   */\n      pop\n      jump\t// out\n        /* \"#utility.yul\":5826:6192   */\n    tag_146:\n        /* \"#utility.yul\":5968:5971   */\n      0x00\n        /* \"#utility.yul\":5989:6056   */\n      tag_230\n        /* \"#utility.yul\":6053:6055   */\n      0x12\n        /* \"#utility.yul\":6048:6051   */\n      dup4\n        /* \"#utility.yul\":5989:6056   */\n      tag_142\n      jump\t// in\n    tag_230:\n        /* \"#utility.yul\":5982:6056   */\n      swap2\n      pop\n        /* \"#utility.yul\":6065:6158   */\n      tag_231\n        /* \"#utility.yul\":6154:6157   */\n      dup3\n        /* \"#utility.yul\":6065:6158   */\n      tag_145\n      jump\t// in\n    tag_231:\n        /* \"#utility.yul\":6183:6185   */\n      0x20\n        /* \"#utility.yul\":6178:6181   */\n      dup3\n        /* \"#utility.yul\":6174:6186   */\n      add\n        /* \"#utility.yul\":6167:6186   */\n      swap1\n      pop\n        /* \"#utility.yul\":5826:6192   */\n      swap2\n      swap1\n      pop\n      jump\t// out\n        /* \"#utility.yul\":6198:6617   */\n    tag_77:\n        /* \"#utility.yul\":6364:6368   */\n      0x00\n        /* \"#utility.yul\":6402:6404   */\n      0x20\n        /* \"#utility.yul\":6391:6400   */\n      dup3\n        /* \"#utility.yul\":6387:6405   */\n      add\n        /* \"#utility.yul\":6379:6405   */\n      swap1\n      pop\n        /* \"#utility.yul\":6451:6460   */\n      dup2\n        /* \"#utility.yul\":6445:6449   */\n      dup2\n        /* \"#utility.yul\":6441:6461   */\n      sub\n        /* \"#utility.yul\":6437:6438   */\n      0x00\n        /* \"#utility.yul\":6426:6435   */\n      dup4\n        /* \"#utility.yul\":6422:6439   */\n      add\n        /* \"#utility.yul\":6415:6462   */\n      mstore\n        /* \"#utility.yul\":6479:6610   */\n      tag_233\n        /* \"#utility.yul\":6605:6609   */\n      dup2\n        /* \"#utility.yul\":6479:6610   */\n      tag_146\n      jump\t// in\n    tag_233:\n        /* \"#utility.yul\":6471:6610   */\n      swap1\n      pop\n        /* \"#utility.yul\":6198:6617   */\n      swap2\n      swap1\n      pop\n      jump\t// out\n        /* \"#utility.yul\":6623:6741   */\n    tag_147:\n        /* \"#utility.yul\":6710:6734   */\n      tag_235\n        /* \"#utility.yul\":6728:6733   */\n      dup2\n        /* \"#utility.yul\":6710:6734   */\n      tag_128\n      jump\t// in\n    tag_235:\n        /* \"#utility.yul\":6705:6708   */\n      dup3\n        /* \"#utility.yul\":6698:6735   */\n      mstore\n        /* \"#utility.yul\":6623:6741   */\n      pop\n      pop\n      jump\t// out\n        /* \"#utility.yul\":6747:7079   */\n    tag_81:\n        /* \"#utility.yul\":6868:6872   */\n      0x00\n        /* \"#utility.yul\":6906:6908   */\n      0x40\n        /* \"#utility.yul\":6895:6904   */\n      dup3\n        /* \"#utility.yul\":6891:6909   */\n      add\n        /* \"#utility.yul\":6883:6909   */\n      swap1\n      pop\n        /* \"#utility.yul\":6919:6990   */\n      tag_237\n        /* \"#utility.yul\":6987:6988   */\n      0x00\n        /* \"#utility.yul\":6976:6985   */\n      dup4\n        /* \"#utility.yul\":6972:6989   */\n      add\n        /* \"#utility.yul\":6963:6969   */\n      dup6\n        /* \"#utility.yul\":6919:6990   */\n      tag_147\n      jump\t// in\n    tag_237:\n        /* \"#utility.yul\":7000:7072   */\n      tag_238\n        /* \"#utility.yul\":7068:7070   */\n      0x20\n        /* \"#utility.yul\":7057:7066   */\n      dup4\n        /* \"#utility.yul\":7053:7071   */\n      add\n        /* \"#utility.yul\":7044:7050   */\n      dup5\n        /* \"#utility.yul\":7000:7072   */\n      tag_132\n      jump\t// in\n    tag_238:\n        /* \"#utility.yul\":6747:7079   */\n      swap4\n      swap3\n      pop\n      pop\n      pop\n      jump\t// out\n        /* \"#utility.yul\":7085:7175   */\n    tag_148:\n        /* \"#utility.yul\":7119:7126   */\n      0x00\n        /* \"#utility.yul\":7162:7167   */\n      dup2\n        /* \"#utility.yul\":7155:7168   */\n      iszero\n        /* \"#utility.yul\":7148:7169   */\n      iszero\n        /* \"#utility.yul\":7137:7169   */\n      swap1\n      pop\n        /* \"#utility.yul\":7085:7175   */\n      swap2\n      swap1\n      pop\n      jump\t// out\n        /* \"#utility.yul\":7181:7297   */\n    tag_149:\n        /* \"#utility.yul\":7251:7272   */\n      tag_241\n        /* \"#utility.yul\":7266:7271   */\n      dup2\n        /* \"#utility.yul\":7251:7272   */\n      tag_148\n      jump\t// in\n    tag_241:\n        /* \"#utility.yul\":7244:7249   */\n      dup2\n        /* \"#utility.yul\":7241:7273   */\n      eq\n        /* \"#utility.yul\":7231:7291   */\n      tag_242\n      jumpi\n        /* \"#utility.yul\":7287:7288   */\n      0x00\n        /* \"#utility.yul\":7284:7285   */\n      0x00\n        /* \"#utility.yul\":7277:7289   */\n      revert\n        /* \"#utility.yul\":7231:7291   */\n    tag_242:\n        /* \"#utility.yul\":7181:7297   */\n      pop\n      jump\t// out\n        /* \"#utility.yul\":7303:7440   */\n    tag_150:\n        /* \"#utility.yul\":7357:7362   */\n      0x00\n        /* \"#utility.yul\":7388:7394   */\n      dup2\n        /* \"#utility.yul\":7382:7395   */\n      mload\n        /* \"#utility.yul\":7373:7395   */\n      swap1\n      pop\n        /* \"#utility.yul\":7404:7434   */\n      tag_244\n        /* \"#utility.yul\":7428:7433   */\n      dup2\n        /* \"#utility.yul\":7404:7434   */\n      tag_149\n      jump\t// in\n    tag_244:\n        /* \"#utility.yul\":7303:7440   */\n      swap3\n      swap2\n      pop\n      pop\n      jump\t// out\n        /* \"#utility.yul\":7446:7791   */\n    tag_85:\n        /* \"#utility.yul\":7513:7519   */\n      0x00\n        /* \"#utility.yul\":7562:7564   */\n      0x20\n        /* \"#utility.yul\":7550:7559   */\n      dup3\n        /* \"#utility.yul\":7541:7548   */\n      dup5\n        /* \"#utility.yul\":7537:7560   */\n      sub\n        /* \"#utility.yul\":7533:7565   */\n      slt\n        /* \"#utility.yul\":7530:7649   */\n      iszero\n      tag_246\n      jumpi\n        /* \"#utility.yul\":7568:7647   */\n      tag_247\n      tag_125\n      jump\t// in\n    tag_247:\n        /* \"#utility.yul\":7530:7649   */\n    tag_246:\n        /* \"#utility.yul\":7688:7689   */\n      0x00\n        /* \"#utility.yul\":7713:7774   */\n      tag_248\n        /* \"#utility.yul\":7766:7773   */\n      dup5\n        /* \"#utility.yul\":7757:7763   */\n      dup3\n        /* \"#utility.yul\":7746:7755   */\n      dup6\n        /* \"#utility.yul\":7742:7764   */\n      add\n        /* \"#utility.yul\":7713:7774   */\n      tag_150\n      jump\t// in\n    tag_248:\n        /* \"#utility.yul\":7703:7774   */\n      swap2\n      pop\n        /* \"#utility.yul\":7659:7784   */\n      pop\n        /* \"#utility.yul\":7446:7791   */\n      swap3\n      swap2\n      pop\n      pop\n      jump\t// out\n        /* \"#utility.yul\":7797:7957   */\n    tag_151:\n        /* \"#utility.yul\":7937:7949   */\n      0x4e6f207265776172647300000000000000000000000000000000000000000000\n        /* \"#utility.yul\":7933:7934   */\n      0x00\n        /* \"#utility.yul\":7925:7931   */\n      dup3\n        /* \"#utility.yul\":7921:7935   */\n      add\n        /* \"#utility.yul\":7914:7950   */\n      mstore\n        /* \"#utility.yul\":7797:7957   */\n      pop\n      jump\t// out\n        /* \"#utility.yul\":7963:8329   */\n    tag_152:\n        /* \"#utility.yul\":8105:8108   */\n      0x00\n        /* \"#utility.yul\":8126:8193   */\n      tag_251\n        /* \"#utility.yul\":8190:8192   */\n      0x0a\n        /* \"#utility.yul\":8185:8188   */\n      dup4\n        /* \"#utility.yul\":8126:8193   */\n      tag_142\n      jump\t// in\n    tag_251:\n        /* \"#utility.yul\":8119:8193   */\n      swap2\n      pop\n        /* \"#utility.yul\":8202:8295   */\n      tag_252\n        /* \"#utility.yul\":8291:8294   */\n      dup3\n        /* \"#utility.yul\":8202:8295   */\n      tag_151\n      jump\t// in\n    tag_252:\n        /* \"#utility.yul\":8320:8322   */\n      0x20\n        /* \"#utility.yul\":8315:8318   */\n      dup3\n        /* \"#utility.yul\":8311:8323   */\n      add\n        /* \"#utility.yul\":8304:8323   */\n      swap1\n      pop\n        /* \"#utility.yul\":7963:8329   */\n      swap2\n      swap1\n      pop\n      jump\t// out\n        /* \"#utility.yul\":8335:8754   */\n    tag_97:\n        /* \"#utility.yul\":8501:8505   */\n      0x00\n        /* \"#utility.yul\":8539:8541   */\n      0x20\n        /* \"#utility.yul\":8528:8537   */\n      dup3\n        /* \"#utility.yul\":8524:8542   */\n      add\n        /* \"#utility.yul\":8516:8542   */\n      swap1\n      pop\n        /* \"#utility.yul\":8588:8597   */\n      dup2\n        /* \"#utility.yul\":8582:8586   */\n      dup2\n        /* \"#utility.yul\":8578:8598   */\n      sub\n        /* \"#utility.yul\":8574:8575   */\n      0x00\n        /* \"#utility.yul\":8563:8572   */\n      dup4\n        /* \"#utility.yul\":8559:8576   */\n      add\n        /* \"#utility.yul\":8552:8599   */\n      mstore\n        /* \"#utility.yul\":8616:8747   */\n      tag_254\n        /* \"#utility.yul\":8742:8746   */\n      dup2\n        /* \"#utility.yul\":8616:8747   */\n      tag_152\n      jump\t// in\n    tag_254:\n        /* \"#utility.yul\":8608:8747   */\n      swap1\n      pop\n        /* \"#utility.yul\":8335:8754   */\n      swap2\n      swap1\n      pop\n      jump\t// out\n        /* \"#utility.yul\":8760:8924   */\n    tag_153:\n        /* \"#utility.yul\":8900:8916   */\n      0x43616e6e6f74207374616b652030000000000000000000000000000000000000\n        /* \"#utility.yul\":8896:8897   */\n      0x00\n        /* \"#utility.yul\":8888:8894   */\n      dup3\n        /* \"#utility.yul\":8884:8898   */\n      add\n        /* \"#utility.yul\":8877:8917   */\n      mstore\n        /* \"#utility.yul\":8760:8924   */\n      pop\n      jump\t// out\n        /* \"#utility.yul\":8930:9296   */\n    tag_154:\n        /* \"#utility.yul\":9072:9075   */\n      0x00\n        /* \"#utility.yul\":9093:9160   */\n      tag_257\n        /* \"#utility.yul\":9157:9159   */\n      0x0e\n        /* \"#utility.yul\":9152:9155   */\n      dup4\n        /* \"#utility.yul\":9093:9160   */\n      tag_142\n      jump\t// in\n    tag_257:\n        /* \"#utility.yul\":9086:9160   */\n      swap2\n      pop\n        /* \"#utility.yul\":9169:9262   */\n      tag_258\n        /* \"#utility.yul\":9258:9261   */\n      dup3\n        /* \"#utility.yul\":9169:9262   */\n      tag_153\n      jump\t// in\n    tag_258:\n        /* \"#utility.yul\":9287:9289   */\n      0x20\n        /* \"#utility.yul\":9282:9285   */\n      dup3\n        /* \"#utility.yul\":9278:9290   */\n      add\n        /* \"#utility.yul\":9271:9290   */\n      swap1\n      pop\n        /* \"#utility.yul\":8930:9296   */\n      swap2\n      swap1\n      pop\n      jump\t// out\n        /* \"#utility.yul\":9302:9721   */\n    tag_112:\n        /* \"#utility.yul\":9468:9472   */\n      0x00\n        /* \"#utility.yul\":9506:9508   */\n      0x20\n        /* \"#utility.yul\":9495:9504   */\n      dup3\n        /* \"#utility.yul\":9491:9509   */\n      add\n        /* \"#utility.yul\":9483:9509   */\n      swap1\n      pop\n        /* \"#utility.yul\":9555:9564   */\n      dup2\n        /* \"#utility.yul\":9549:9553   */\n      dup2\n        /* \"#utility.yul\":9545:9565   */\n      sub\n        /* \"#utility.yul\":9541:9542   */\n      0x00\n        /* \"#utility.yul\":9530:9539   */\n      dup4\n        /* \"#utility.yul\":9526:9543   */\n      add\n        /* \"#utility.yul\":9519:9566   */\n      mstore\n        /* \"#utility.yul\":9583:9714   */\n      tag_260\n        /* \"#utility.yul\":9709:9713   */\n      dup2\n        /* \"#utility.yul\":9583:9714   */\n      tag_154\n      jump\t// in\n    tag_260:\n        /* \"#utility.yul\":9575:9714   */\n      swap1\n      pop\n        /* \"#utility.yul\":9302:9721   */\n      swap2\n      swap1\n      pop\n      jump\t// out\n        /* \"#utility.yul\":9727:10169   */\n    tag_114:\n        /* \"#utility.yul\":9876:9880   */\n      0x00\n        /* \"#utility.yul\":9914:9916   */\n      0x60\n        /* \"#utility.yul\":9903:9912   */\n      dup3\n        /* \"#utility.yul\":9899:9917   */\n      add\n        /* \"#utility.yul\":9891:9917   */\n      swap1\n      pop\n        /* \"#utility.yul\":9927:9998   */\n      tag_262\n        /* \"#utility.yul\":9995:9996   */\n      0x00\n        /* \"#utility.yul\":9984:9993   */\n      dup4\n        /* \"#utility.yul\":9980:9997   */\n      add\n        /* \"#utility.yul\":9971:9977   */\n      dup7\n        /* \"#utility.yul\":9927:9998   */\n      tag_147\n      jump\t// in\n    tag_262:\n        /* \"#utility.yul\":10008:10080   */\n      tag_263\n        /* \"#utility.yul\":10076:10078   */\n      0x20\n        /* \"#utility.yul\":10065:10074   */\n      dup4\n        /* \"#utility.yul\":10061:10079   */\n      add\n        /* \"#utility.yul\":10052:10058   */\n      dup6\n        /* \"#utility.yul\":10008:10080   */\n      tag_147\n      jump\t// in\n    tag_263:\n        /* \"#utility.yul\":10090:10162   */\n      tag_264\n        /* \"#utility.yul\":10158:10160   */\n      0x40\n        /* \"#utility.yul\":10147:10156   */\n      dup4\n        /* \"#utility.yul\":10143:10161   */\n      add\n        /* \"#utility.yul\":10134:10140   */\n      dup5\n        /* \"#utility.yul\":10090:10162   */\n      tag_132\n      jump\t// in\n    tag_264:\n        /* \"#utility.yul\":9727:10169   */\n      swap5\n      swap4\n      pop\n      pop\n      pop\n      pop\n      jump\t// out\n\n    auxdata: 0xa26469706673582212201dc3ba3a30543cdd44bdc65d4ef1b974bfb55dbac5ef146228ed8a83b2c9fa0664736f6c634300081e0033\n}\n",
				"bytecode": {
					"linkReferences": {},
					"object": "608060405234801561000f575f5ffd5b5060405161120838038061120883398181016040528101906100319190610158565b60015f819055508260015f6101000a81548173ffffffffffffffffffffffffffffffffffffffff021916908373ffffffffffffffffffffffffffffffffffffffff1602179055508160025f6101000a81548173ffffffffffffffffffffffffffffffffffffffff021916908373ffffffffffffffffffffffffffffffffffffffff160217905550806003819055505050506101a8565b5f5ffd5b5f73ffffffffffffffffffffffffffffffffffffffff82169050919050565b5f6100f4826100cb565b9050919050565b610104816100ea565b811461010e575f5ffd5b50565b5f8151905061011f816100fb565b92915050565b5f819050919050565b61013781610125565b8114610141575f5ffd5b50565b5f815190506101528161012e565b92915050565b5f5f5f6060848603121561016f5761016e6100c7565b5b5f61017c86828701610111565b935050602061018d86828701610111565b925050604061019e86828701610144565b9150509250925092565b611053806101b55f395ff3fe608060405234801561000f575f5ffd5b50600436106100a6575f3560e01c8063602172671161006f578063602172671461016057806372f702f3146101905780637b0a47ee146101ae578063817b1cd2146101cc578063a694fc3a146101ea578063f7c618c114610206576100a6565b80628cc262146100aa5780630700037d146100da5780632ce9aead1461010a5780632e17de781461013a578063372500ab14610156575b5f5ffd5b6100c460048036038101906100bf9190610b4c565b610224565b6040516100d19190610b8f565b60405180910390f35b6100f460048036038101906100ef9190610b4c565b6102e2565b6040516101019190610b8f565b60405180910390f35b610124600480360381019061011f9190610b4c565b6102f7565b6040516101319190610b8f565b60405180910390f35b610154600480360381019061014f9190610bd2565b61030c565b005b61015e6105bc565b005b61017a60048036038101906101759190610b4c565b610804565b6040516101879190610b8f565b60405180910390f35b610198610819565b6040516101a59190610c58565b60405180910390f35b6101b661083e565b6040516101c39190610b8f565b60405180910390f35b6101d4610844565b6040516101e19190610b8f565b60405180910390f35b61020460048036038101906101ff9190610bd2565b61084a565b005b61020e610a7c565b60405161021b9190610c58565b60405180910390f35b5f5f60065f8473ffffffffffffffffffffffffffffffffffffffff1673ffffffffffffffffffffffffffffffffffffffff1681526020019081526020015f20544261026f9190610c9e565b9050670de0b6b3a76400008160035460055f8773ffffffffffffffffffffffffffffffffffffffff1673ffffffffffffffffffffffffffffffffffffffff1681526020019081526020015f20546102c69190610cd1565b6102d09190610cd1565b6102da9190610d3f565b915050919050565b6007602052805f5260405f205f915090505481565b6006602052805f5260405f205f915090505481565b610314610aa1565b335f73ffffffffffffffffffffffffffffffffffffffff168173ffffffffffffffffffffffffffffffffffffffff16146103e65761035181610224565b60075f8373ffffffffffffffffffffffffffffffffffffffff1673ffffffffffffffffffffffffffffffffffffffff1681526020019081526020015f205f82825461039c9190610d6f565b925050819055504260065f8373ffffffffffffffffffffffffffffffffffffffff1673ffffffffffffffffffffffffffffffffffffffff1681526020019081526020015f20819055505b5f8211610428576040517f08c379a000000000000000000000000000000000000000000000000000000000815260040161041f90610dfc565b60405180910390fd5b8160055f3373ffffffffffffffffffffffffffffffffffffffff1673ffffffffffffffffffffffffffffffffffffffff1681526020019081526020015f205410156104a8576040517f08c379a000000000000000000000000000000000000000000000000000000000815260040161049f90610e64565b60405180910390fd5b8160055f3373ffffffffffffffffffffffffffffffffffffffff1673ffffffffffffffffffffffffffffffffffffffff1681526020019081526020015f205f8282546104f49190610c9e565b925050819055508160045f82825461050c9190610c9e565b9250508190555060015f9054906101000a900473ffffffffffffffffffffffffffffffffffffffff1673ffffffffffffffffffffffffffffffffffffffff1663a9059cbb33846040518363ffffffff1660e01b815260040161056f929190610e91565b6020604051808303815f875af115801561058b573d5f5f3e3d5ffd5b505050506040513d601f19601f820116820180604052508101906105af9190610eed565b50506105b9610ae5565b50565b6105c4610aa1565b335f73ffffffffffffffffffffffffffffffffffffffff168173ffffffffffffffffffffffffffffffffffffffff16146106965761060181610224565b60075f8373ffffffffffffffffffffffffffffffffffffffff1673ffffffffffffffffffffffffffffffffffffffff1681526020019081526020015f205f82825461064c9190610d6f565b925050819055504260065f8373ffffffffffffffffffffffffffffffffffffffff1673ffffffffffffffffffffffffffffffffffffffff1681526020019081526020015f20819055505b5f60075f3373ffffffffffffffffffffffffffffffffffffffff1673ffffffffffffffffffffffffffffffffffffffff1681526020019081526020015f205490505f8111610719576040517f08c379a000000000000000000000000000000000000000000000000000000000815260040161071090610f62565b60405180910390fd5b5f60075f3373ffffffffffffffffffffffffffffffffffffffff1673ffffffffffffffffffffffffffffffffffffffff1681526020019081526020015f208190555060025f9054906101000a900473ffffffffffffffffffffffffffffffffffffffff1673ffffffffffffffffffffffffffffffffffffffff1663a9059cbb33836040518363ffffffff1660e01b81526004016107b7929190610e91565b6020604051808303815f875af11580156107d3573d5f5f3e3d5ffd5b505050506040513d601f19601f820116820180604052508101906107f79190610eed565b505050610802610ae5565b565b6005602052805f5260405f205f915090505481565b60015f9054906101000a900473ffffffffffffffffffffffffffffffffffffffff1681565b60035481565b60045481565b610852610aa1565b335f73ffffffffffffffffffffffffffffffffffffffff168173ffffffffffffffffffffffffffffffffffffffff16146109245761088f81610224565b60075f8373ffffffffffffffffffffffffffffffffffffffff1673ffffffffffffffffffffffffffffffffffffffff1681526020019081526020015f205f8282546108da9190610d6f565b925050819055504260065f8373ffffffffffffffffffffffffffffffffffffffff1673ffffffffffffffffffffffffffffffffffffffff1681526020019081526020015f20819055505b5f8211610966576040517f08c379a000000000000000000000000000000000000000000000000000000000815260040161095d90610fca565b60405180910390fd5b60015f9054906101000a900473ffffffffffffffffffffffffffffffffffffffff1673ffffffffffffffffffffffffffffffffffffffff166323b872dd3330856040518463ffffffff1660e01b81526004016109c493929190610fe8565b6020604051808303815f875af11580156109e0573d5f5f3e3d5ffd5b505050506040513d601f19601f82011682018060405250810190610a049190610eed565b508160055f3373ffffffffffffffffffffffffffffffffffffffff1673ffffffffffffffffffffffffffffffffffffffff1681526020019081526020015f205f828254610a519190610d6f565b925050819055508160045f828254610a699190610d6f565b9250508190555050610a79610ae5565b50565b60025f9054906101000a900473ffffffffffffffffffffffffffffffffffffffff1681565b60025f5403610adc576040517f3ee5aeb500000000000000000000000000000000000000000000000000000000815260040160405180910390fd5b60025f81905550565b60015f81905550565b5f5ffd5b5f73ffffffffffffffffffffffffffffffffffffffff82169050919050565b5f610b1b82610af2565b9050919050565b610b2b81610b11565b8114610b35575f5ffd5b50565b5f81359050610b4681610b22565b92915050565b5f60208284031215610b6157610b60610aee565b5b5f610b6e84828501610b38565b91505092915050565b5f819050919050565b610b8981610b77565b82525050565b5f602082019050610ba25f830184610b80565b92915050565b610bb181610b77565b8114610bbb575f5ffd5b50565b5f81359050610bcc81610ba8565b92915050565b5f60208284031215610be757610be6610aee565b5b5f610bf484828501610bbe565b91505092915050565b5f819050919050565b5f610c20610c1b610c1684610af2565b610bfd565b610af2565b9050919050565b5f610c3182610c06565b9050919050565b5f610c4282610c27565b9050919050565b610c5281610c38565b82525050565b5f602082019050610c6b5f830184610c49565b92915050565b7f4e487b71000000000000000000000000000000000000000000000000000000005f52601160045260245ffd5b5f610ca882610b77565b9150610cb383610b77565b9250828203905081811115610ccb57610cca610c71565b5b92915050565b5f610cdb82610b77565b9150610ce683610b77565b9250828202610cf481610b77565b91508282048414831517610d0b57610d0a610c71565b5b5092915050565b7f4e487b71000000000000000000000000000000000000000000000000000000005f52601260045260245ffd5b5f610d4982610b77565b9150610d5483610b77565b925082610d6457610d63610d12565b5b828204905092915050565b5f610d7982610b77565b9150610d8483610b77565b9250828201905080821115610d9c57610d9b610c71565b5b92915050565b5f82825260208201905092915050565b7f43616e6e6f7420756e7374616b652030000000000000000000000000000000005f82015250565b5f610de6601083610da2565b9150610df182610db2565b602082019050919050565b5f6020820190508181035f830152610e1381610dda565b9050919050565b7f496e73756666696369656e74207374616b6500000000000000000000000000005f82015250565b5f610e4e601283610da2565b9150610e5982610e1a565b602082019050919050565b5f6020820190508181035f830152610e7b81610e42565b9050919050565b610e8b81610b11565b82525050565b5f604082019050610ea45f830185610e82565b610eb16020830184610b80565b9392505050565b5f8115159050919050565b610ecc81610eb8565b8114610ed6575f5ffd5b50565b5f81519050610ee781610ec3565b92915050565b5f60208284031215610f0257610f01610aee565b5b5f610f0f84828501610ed9565b91505092915050565b7f4e6f2072657761726473000000000000000000000000000000000000000000005f82015250565b5f610f4c600a83610da2565b9150610f5782610f18565b602082019050919050565b5f6020820190508181035f830152610f7981610f40565b9050919050565b7f43616e6e6f74207374616b6520300000000000000000000000000000000000005f82015250565b5f610fb4600e83610da2565b9150610fbf82610f80565b602082019050919050565b5f6020820190508181035f830152610fe181610fa8565b9050919050565b5f606082019050610ffb5f830186610e82565b6110086020830185610e82565b6110156040830184610b80565b94935050505056fea26469706673582212201dc3ba3a30543cdd44bdc65d4ef1b974bfb55dbac5ef146228ed8a83b2c9fa0664736f6c634300081e0033",
					"opcodes": "PUSH1 0x80 PUSH1 0x40 MSTORE CALLVALUE DUP1 ISZERO PUSH2 0xF JUMPI PUSH0 PUSH0 REVERT JUMPDEST POP PUSH1 0x40 MLOAD PUSH2 0x1208 CODESIZE SUB DUP1 PUSH2 0x1208 DUP4 CODECOPY DUP2 DUP2 ADD PUSH1 0x40 MSTORE DUP2 ADD SWAP1 PUSH2 0x31 SWAP2 SWAP1 PUSH2 0x158 JUMP JUMPDEST PUSH1 0x1 PUSH0 DUP2 SWAP1 SSTORE POP DUP3 PUSH1 0x1 PUSH0 PUSH2 0x100 EXP DUP2 SLOAD DUP2 PUSH20 0xFFFFFFFFFFFFFFFFFFFFFFFFFFFFFFFFFFFFFFFF MUL NOT AND SWAP1 DUP4 PUSH20 0xFFFFFFFFFFFFFFFFFFFFFFFFFFFFFFFFFFFFFFFF AND MUL OR SWAP1 SSTORE POP DUP2 PUSH1 0x2 PUSH0 PUSH2 0x100 EXP DUP2 SLOAD DUP2 PUSH20 0xFFFFFFFFFFFFFFFFFFFFFFFFFFFFFFFFFFFFFFFF MUL NOT AND SWAP1 DUP4 PUSH20 0xFFFFFFFFFFFFFFFFFFFFFFFFFFFFFFFFFFFFFFFF AND MUL OR SWAP1 SSTORE POP DUP1 PUSH1 0x3 DUP2 SWAP1 SSTORE POP POP POP POP PUSH2 0x1A8 JUMP JUMPDEST PUSH0 PUSH0 REVERT JUMPDEST PUSH0 PUSH20 0xFFFFFFFFFFFFFFFFFFFFFFFFFFFFFFFFFFFFFFFF DUP3 AND SWAP1 POP SWAP2 SWAP1 POP JUMP JUMPDEST PUSH0 PUSH2 0xF4 DUP3 PUSH2 0xCB JUMP JUMPDEST SWAP1 POP SWAP2 SWAP1 POP JUMP JUMPDEST PUSH2 0x104 DUP2 PUSH2 0xEA JUMP JUMPDEST DUP2 EQ PUSH2 0x10E JUMPI PUSH0 PUSH0 REVERT JUMPDEST POP JUMP JUMPDEST PUSH0 DUP2 MLOAD SWAP1 POP PUSH2 0x11F DUP2 PUSH2 0xFB JUMP JUMPDEST SWAP3 SWAP2 POP POP JUMP JUMPDEST PUSH0 DUP2 SWAP1 POP SWAP2 SWAP1 POP JUMP JUMPDEST PUSH2 0x137 DUP2 PUSH2 0x125 JUMP JUMPDEST DUP2 EQ PUSH2 0x141 JUMPI PUSH0 PUSH0 REVERT JUMPDEST POP JUMP JUMPDEST PUSH0 DUP2 MLOAD SWAP1 POP PUSH2 0x152 DUP2 PUSH2 0x12E JUMP JUMPDEST SWAP3 SWAP2 POP POP JUMP JUMPDEST PUSH0 PUSH0 PUSH0 PUSH1 0x60 DUP5 DUP7 SUB SLT ISZERO PUSH2 0x16F JUMPI PUSH2 0x16E PUSH2 0xC7 JUMP JUMPDEST JUMPDEST PUSH0 PUSH2 0x17C DUP7 DUP3 DUP8 ADD PUSH2 0x111 JUMP JUMPDEST SWAP4 POP POP PUSH1 0x20 PUSH2 0x18D DUP7 DUP3 DUP8 ADD PUSH2 0x111 JUMP JUMPDEST SWAP3 POP POP PUSH1 0x40 PUSH2 0x19E DUP7 DUP3 DUP8 ADD PUSH2 0x144 JUMP JUMPDEST SWAP2 POP POP SWAP3 POP SWAP3 POP SWAP3 JUMP JUMPDEST PUSH2 0x1053 DUP1 PUSH2 0x1B5 PUSH0 CODECOPY PUSH0 RETURN INVALID PUSH1 0x80 PUSH1 0x40 MSTORE CALLVALUE DUP1 ISZERO PUSH2 0xF JUMPI PUSH0 PUSH0 REVERT JUMPDEST POP PUSH1 0x4 CALLDATASIZE LT PUSH2 0xA6 JUMPI PUSH0 CALLDATALOAD PUSH1 0xE0 SHR DUP1 PUSH4 0x60217267 GT PUSH2 0x6F JUMPI DUP1 PUSH4 0x60217267 EQ PUSH2 0x160 JUMPI DUP1 PUSH4 0x72F702F3 EQ PUSH2 0x190 JUMPI DUP1 PUSH4 0x7B0A47EE EQ PUSH2 0x1AE JUMPI DUP1 PUSH4 0x817B1CD2 EQ PUSH2 0x1CC JUMPI DUP1 PUSH4 0xA694FC3A EQ PUSH2 0x1EA JUMPI DUP1 PUSH4 0xF7C618C1 EQ PUSH2 0x206 JUMPI PUSH2 0xA6 JUMP JUMPDEST DUP1 PUSH3 0x8CC262 EQ PUSH2 0xAA JUMPI DUP1 PUSH4 0x700037D EQ PUSH2 0xDA JUMPI DUP1 PUSH4 0x2CE9AEAD EQ PUSH2 0x10A JUMPI DUP1 PUSH4 0x2E17DE78 EQ PUSH2 0x13A JUMPI DUP1 PUSH4 0x372500AB EQ PUSH2 0x156 JUMPI JUMPDEST PUSH0 PUSH0 REVERT JUMPDEST PUSH2 0xC4 PUSH1 0x4 DUP1 CALLDATASIZE SUB DUP2 ADD SWAP1 PUSH2 0xBF SWAP2 SWAP1 PUSH2 0xB4C JUMP JUMPDEST PUSH2 0x224 JUMP JUMPDEST PUSH1 0x40 MLOAD PUSH2 0xD1 SWAP2 SWAP1 PUSH2 0xB8F JUMP JUMPDEST PUSH1 0x40 MLOAD DUP1 SWAP2 SUB SWAP1 RETURN JUMPDEST PUSH2 0xF4 PUSH1 0x4 DUP1 CALLDATASIZE SUB DUP2 ADD SWAP1 PUSH2 0xEF SWAP2 SWAP1 PUSH2 0xB4C JUMP JUMPDEST PUSH2 0x2E2 JUMP JUMPDEST PUSH1 0x40 MLOAD PUSH2 0x101 SWAP2 SWAP1 PUSH2 0xB8F JUMP JUMPDEST PUSH1 0x40 MLOAD DUP1 SWAP2 SUB SWAP1 RETURN JUMPDEST PUSH2 0x124 PUSH1 0x4 DUP1 CALLDATASIZE SUB DUP2 ADD SWAP1 PUSH2 0x11F SWAP2 SWAP1 PUSH2 0xB4C JUMP JUMPDEST PUSH2 0x2F7 JUMP JUMPDEST PUSH1 0x40 MLOAD PUSH2 0x131 SWAP2 SWAP1 PUSH2 0xB8F JUMP JUMPDEST PUSH1 0x40 MLOAD DUP1 SWAP2 SUB SWAP1 RETURN JUMPDEST PUSH2 0x154 PUSH1 0x4 DUP1 CALLDATASIZE SUB DUP2 ADD SWAP1 PUSH2 0x14F SWAP2 SWAP1 PUSH2 0xBD2 JUMP JUMPDEST PUSH2 0x30C JUMP JUMPDEST STOP JUMPDEST PUSH2 0x15E PUSH2 0x5BC JUMP JUMPDEST STOP JUMPDEST PUSH2 0x17A PUSH1 0x4 DUP1 CALLDATASIZE SUB DUP2 ADD SWAP1 PUSH2 0x175 SWAP2 SWAP1 PUSH2 0xB4C JUMP JUMPDEST PUSH2 0x804 JUMP JUMPDEST PUSH1 0x40 MLOAD PUSH2 0x187 SWAP2 SWAP1 PUSH2 0xB8F JUMP JUMPDEST PUSH1 0x40 MLOAD DUP1 SWAP2 SUB SWAP1 RETURN JUMPDEST PUSH2 0x198 PUSH2 0x819 JUMP JUMPDEST PUSH1 0x40 MLOAD PUSH2 0x1A5 SWAP2 SWAP1 PUSH2 0xC58 JUMP JUMPDEST PUSH1 0x40 MLOAD DUP1 SWAP2 SUB SWAP1 RETURN JUMPDEST PUSH2 0x1B6 PUSH2 0x83E JUMP JUMPDEST PUSH1 0x40 MLOAD PUSH2 0x1C3 SWAP2 SWAP1 PUSH2 0xB8F JUMP JUMPDEST PUSH1 0x40 MLOAD DUP1 SWAP2 SUB SWAP1 RETURN JUMPDEST PUSH2 0x1D4 PUSH2 0x844 JUMP JUMPDEST PUSH1 0x40 MLOAD PUSH2 0x1E1 SWAP2 SWAP1 PUSH2 0xB8F JUMP JUMPDEST PUSH1 0x40 MLOAD DUP1 SWAP2 SUB SWAP1 RETURN JUMPDEST PUSH2 0x204 PUSH1 0x4 DUP1 CALLDATASIZE SUB DUP2 ADD SWAP1 PUSH2 0x1FF SWAP2 SWAP1 PUSH2 0xBD2 JUMP JUMPDEST PUSH2 0x84A JUMP JUMPDEST STOP JUMPDEST PUSH2 0x20E PUSH2 0xA7C JUMP JUMPDEST PUSH1 0x40 MLOAD PUSH2 0x21B SWAP2 SWAP1 PUSH2 0xC58 JUMP JUMPDEST PUSH1 0x40 MLOAD DUP1 SWAP2 SUB SWAP1 RETURN JUMPDEST PUSH0 PUSH0 PUSH1 0x6 PUSH0 DUP5 PUSH20 0xFFFFFFFFFFFFFFFFFFFFFFFFFFFFFFFFFFFFFFFF AND PUSH20 0xFFFFFFFFFFFFFFFFFFFFFFFFFFFFFFFFFFFFFFFF AND DUP2 MSTORE PUSH1 0x20 ADD SWAP1 DUP2 MSTORE PUSH1 0x20 ADD PUSH0 KECCAK256 SLOAD TIMESTAMP PUSH2 0x26F SWAP2 SWAP1 PUSH2 0xC9E JUMP JUMPDEST SWAP1 POP PUSH8 0xDE0B6B3A7640000 DUP2 PUSH1 0x3 SLOAD PUSH1 0x5 PUSH0 DUP8 PUSH20 0xFFFFFFFFFFFFFFFFFFFFFFFFFFFFFFFFFFFFFFFF AND PUSH20 0xFFFFFFFFFFFFFFFFFFFFFFFFFFFFFFFFFFFFFFFF AND DUP2 MSTORE PUSH1 0x20 ADD SWAP1 DUP2 MSTORE PUSH1 0x20 ADD PUSH0 KECCAK256 SLOAD PUSH2 0x2C6 SWAP2 SWAP1 PUSH2 0xCD1 JUMP JUMPDEST PUSH2 0x2D0 SWAP2 SWAP1 PUSH2 0xCD1 JUMP JUMPDEST PUSH2 0x2DA SWAP2 SWAP1 PUSH2 0xD3F JUMP JUMPDEST SWAP2 POP POP SWAP2 SWAP1 POP JUMP JUMPDEST PUSH1 0x7 PUSH1 0x20 MSTORE DUP1 PUSH0 MSTORE PUSH1 0x40 PUSH0 KECCAK256 PUSH0 SWAP2 POP SWAP1 POP SLOAD DUP2 JUMP JUMPDEST PUSH1 0x6 PUSH1 0x20 MSTORE DUP1 PUSH0 MSTORE PUSH1 0x40 PUSH0 KECCAK256 PUSH0 SWAP2 POP SWAP1 POP SLOAD DUP2 JUMP JUMPDEST PUSH2 0x314 PUSH2 0xAA1 JUMP JUMPDEST CALLER PUSH0 PUSH20 0xFFFFFFFFFFFFFFFFFFFFFFFFFFFFFFFFFFFFFFFF AND DUP2 PUSH20 0xFFFFFFFFFFFFFFFFFFFFFFFFFFFFFFFFFFFFFFFF AND EQ PUSH2 0x3E6 JUMPI PUSH2 0x351 DUP2 PUSH2 0x224 JUMP JUMPDEST PUSH1 0x7 PUSH0 DUP4 PUSH20 0xFFFFFFFFFFFFFFFFFFFFFFFFFFFFFFFFFFFFFFFF AND PUSH20 0xFFFFFFFFFFFFFFFFFFFFFFFFFFFFFFFFFFFFFFFF AND DUP2 MSTORE PUSH1 0x20 ADD SWAP1 DUP2 MSTORE PUSH1 0x20 ADD PUSH0 KECCAK256 PUSH0 DUP3 DUP3 SLOAD PUSH2 0x39C SWAP2 SWAP1 PUSH2 0xD6F JUMP JUMPDEST SWAP3 POP POP DUP2 SWAP1 SSTORE POP TIMESTAMP PUSH1 0x6 PUSH0 DUP4 PUSH20 0xFFFFFFFFFFFFFFFFFFFFFFFFFFFFFFFFFFFFFFFF AND PUSH20 0xFFFFFFFFFFFFFFFFFFFFFFFFFFFFFFFFFFFFFFFF AND DUP2 MSTORE PUSH1 0x20 ADD SWAP1 DUP2 MSTORE PUSH1 0x20 ADD PUSH0 KECCAK256 DUP2 SWAP1 SSTORE POP JUMPDEST PUSH0 DUP3 GT PUSH2 0x428 JUMPI PUSH1 0x40 MLOAD PUSH32 0x8C379A000000000000000000000000000000000000000000000000000000000 DUP2 MSTORE PUSH1 0x4 ADD PUSH2 0x41F SWAP1 PUSH2 0xDFC JUMP JUMPDEST PUSH1 0x40 MLOAD DUP1 SWAP2 SUB SWAP1 REVERT JUMPDEST DUP2 PUSH1 0x5 PUSH0 CALLER PUSH20 0xFFFFFFFFFFFFFFFFFFFFFFFFFFFFFFFFFFFFFFFF AND PUSH20 0xFFFFFFFFFFFFFFFFFFFFFFFFFFFFFFFFFFFFFFFF AND DUP2 MSTORE PUSH1 0x20 ADD SWAP1 DUP2 MSTORE PUSH1 0x20 ADD PUSH0 KECCAK256 SLOAD LT ISZERO PUSH2 0x4A8 JUMPI PUSH1 0x40 MLOAD PUSH32 0x8C379A000000000000000000000000000000000000000000000000000000000 DUP2 MSTORE PUSH1 0x4 ADD PUSH2 0x49F SWAP1 PUSH2 0xE64 JUMP JUMPDEST PUSH1 0x40 MLOAD DUP1 SWAP2 SUB SWAP1 REVERT JUMPDEST DUP2 PUSH1 0x5 PUSH0 CALLER PUSH20 0xFFFFFFFFFFFFFFFFFFFFFFFFFFFFFFFFFFFFFFFF AND PUSH20 0xFFFFFFFFFFFFFFFFFFFFFFFFFFFFFFFFFFFFFFFF AND DUP2 MSTORE PUSH1 0x20 ADD SWAP1 DUP2 MSTORE PUSH1 0x20 ADD PUSH0 KECCAK256 PUSH0 DUP3 DUP3 SLOAD PUSH2 0x4F4 SWAP2 SWAP1 PUSH2 0xC9E JUMP JUMPDEST SWAP3 POP POP DUP2 SWAP1 SSTORE POP DUP2 PUSH1 0x4 PUSH0 DUP3 DUP3 SLOAD PUSH2 0x50C SWAP2 SWAP1 PUSH2 0xC9E JUMP JUMPDEST SWAP3 POP POP DUP2 SWAP1 SSTORE POP PUSH1 0x1 PUSH0 SWAP1 SLOAD SWAP1 PUSH2 0x100 EXP SWAP1 DIV PUSH20 0xFFFFFFFFFFFFFFFFFFFFFFFFFFFFFFFFFFFFFFFF AND PUSH20 0xFFFFFFFFFFFFFFFFFFFFFFFFFFFFFFFFFFFFFFFF AND PUSH4 0xA9059CBB CALLER DUP5 PUSH1 0x40 MLOAD DUP4 PUSH4 0xFFFFFFFF AND PUSH1 0xE0 SHL DUP2 MSTORE PUSH1 0x4 ADD PUSH2 0x56F SWAP3 SWAP2 SWAP1 PUSH2 0xE91 JUMP JUMPDEST PUSH1 0x20 PUSH1 0x40 MLOAD DUP1 DUP4 SUB DUP2 PUSH0 DUP8 GAS CALL ISZERO DUP1 ISZERO PUSH2 0x58B JUMPI RETURNDATASIZE PUSH0 PUSH0 RETURNDATACOPY RETURNDATASIZE PUSH0 REVERT JUMPDEST POP POP POP POP PUSH1 0x40 MLOAD RETURNDATASIZE PUSH1 0x1F NOT PUSH1 0x1F DUP3 ADD AND DUP3 ADD DUP1 PUSH1 0x40 MSTORE POP DUP2 ADD SWAP1 PUSH2 0x5AF SWAP2 SWAP1 PUSH2 0xEED JUMP JUMPDEST POP POP PUSH2 0x5B9 PUSH2 0xAE5 JUMP JUMPDEST POP JUMP JUMPDEST PUSH2 0x5C4 PUSH2 0xAA1 JUMP JUMPDEST CALLER PUSH0 PUSH20 0xFFFFFFFFFFFFFFFFFFFFFFFFFFFFFFFFFFFFFFFF AND DUP2 PUSH20 0xFFFFFFFFFFFFFFFFFFFFFFFFFFFFFFFFFFFFFFFF AND EQ PUSH2 0x696 JUMPI PUSH2 0x601 DUP2 PUSH2 0x224 JUMP JUMPDEST PUSH1 0x7 PUSH0 DUP4 PUSH20 0xFFFFFFFFFFFFFFFFFFFFFFFFFFFFFFFFFFFFFFFF AND PUSH20 0xFFFFFFFFFFFFFFFFFFFFFFFFFFFFFFFFFFFFFFFF AND DUP2 MSTORE PUSH1 0x20 ADD SWAP1 DUP2 MSTORE PUSH1 0x20 ADD PUSH0 KECCAK256 PUSH0 DUP3 DUP3 SLOAD PUSH2 0x64C SWAP2 SWAP1 PUSH2 0xD6F JUMP JUMPDEST SWAP3 POP POP DUP2 SWAP1 SSTORE POP TIMESTAMP PUSH1 0x6 PUSH0 DUP4 PUSH20 0xFFFFFFFFFFFFFFFFFFFFFFFFFFFFFFFFFFFFFFFF AND PUSH20 0xFFFFFFFFFFFFFFFFFFFFFFFFFFFFFFFFFFFFFFFF AND DUP2 MSTORE PUSH1 0x20 ADD SWAP1 DUP2 MSTORE PUSH1 0x20 ADD PUSH0 KECCAK256 DUP2 SWAP1 SSTORE POP JUMPDEST PUSH0 PUSH1 0x7 PUSH0 CALLER PUSH20 0xFFFFFFFFFFFFFFFFFFFFFFFFFFFFFFFFFFFFFFFF AND PUSH20 0xFFFFFFFFFFFFFFFFFFFFFFFFFFFFFFFFFFFFFFFF AND DUP2 MSTORE PUSH1 0x20 ADD SWAP1 DUP2 MSTORE PUSH1 0x20 ADD PUSH0 KECCAK256 SLOAD SWAP1 POP PUSH0 DUP2 GT PUSH2 0x719 JUMPI PUSH1 0x40 MLOAD PUSH32 0x8C379A000000000000000000000000000000000000000000000000000000000 DUP2 MSTORE PUSH1 0x4 ADD PUSH2 0x710 SWAP1 PUSH2 0xF62 JUMP JUMPDEST PUSH1 0x40 MLOAD DUP1 SWAP2 SUB SWAP1 REVERT JUMPDEST PUSH0 PUSH1 0x7 PUSH0 CALLER PUSH20 0xFFFFFFFFFFFFFFFFFFFFFFFFFFFFFFFFFFFFFFFF AND PUSH20 0xFFFFFFFFFFFFFFFFFFFFFFFFFFFFFFFFFFFFFFFF AND DUP2 MSTORE PUSH1 0x20 ADD SWAP1 DUP2 MSTORE PUSH1 0x20 ADD PUSH0 KECCAK256 DUP2 SWAP1 SSTORE POP PUSH1 0x2 PUSH0 SWAP1 SLOAD SWAP1 PUSH2 0x100 EXP SWAP1 DIV PUSH20 0xFFFFFFFFFFFFFFFFFFFFFFFFFFFFFFFFFFFFFFFF AND PUSH20 0xFFFFFFFFFFFFFFFFFFFFFFFFFFFFFFFFFFFFFFFF AND PUSH4 0xA9059CBB CALLER DUP4 PUSH1 0x40 MLOAD DUP4 PUSH4 0xFFFFFFFF AND PUSH1 0xE0 SHL DUP2 MSTORE PUSH1 0x4 ADD PUSH2 0x7B7 SWAP3 SWAP2 SWAP1 PUSH2 0xE91 JUMP JUMPDEST PUSH1 0x20 PUSH1 0x40 MLOAD DUP1 DUP4 SUB DUP2 PUSH0 DUP8 GAS CALL ISZERO DUP1 ISZERO PUSH2 0x7D3 JUMPI RETURNDATASIZE PUSH0 PUSH0 RETURNDATACOPY RETURNDATASIZE PUSH0 REVERT JUMPDEST POP POP POP POP PUSH1 0x40 MLOAD RETURNDATASIZE PUSH1 0x1F NOT PUSH1 0x1F DUP3 ADD AND DUP3 ADD DUP1 PUSH1 0x40 MSTORE POP DUP2 ADD SWAP1 PUSH2 0x7F7 SWAP2 SWAP1 PUSH2 0xEED JUMP JUMPDEST POP POP POP PUSH2 0x802 PUSH2 0xAE5 JUMP JUMPDEST JUMP JUMPDEST PUSH1 0x5 PUSH1 0x20 MSTORE DUP1 PUSH0 MSTORE PUSH1 0x40 PUSH0 KECCAK256 PUSH0 SWAP2 POP SWAP1 POP SLOAD DUP2 JUMP JUMPDEST PUSH1 0x1 PUSH0 SWAP1 SLOAD SWAP1 PUSH2 0x100 EXP SWAP1 DIV PUSH20 0xFFFFFFFFFFFFFFFFFFFFFFFFFFFFFFFFFFFFFFFF AND DUP2 JUMP JUMPDEST PUSH1 0x3 SLOAD DUP2 JUMP JUMPDEST PUSH1 0x4 SLOAD DUP2 JUMP JUMPDEST PUSH2 0x852 PUSH2 0xAA1 JUMP JUMPDEST CALLER PUSH0 PUSH20 0xFFFFFFFFFFFFFFFFFFFFFFFFFFFFFFFFFFFFFFFF AND DUP2 PUSH20 0xFFFFFFFFFFFFFFFFFFFFFFFFFFFFFFFFFFFFFFFF AND EQ PUSH2 0x924 JUMPI PUSH2 0x88F DUP2 PUSH2 0x224 JUMP JUMPDEST PUSH1 0x7 PUSH0 DUP4 PUSH20 0xFFFFFFFFFFFFFFFFFFFFFFFFFFFFFFFFFFFFFFFF AND PUSH20 0xFFFFFFFFFFFFFFFFFFFFFFFFFFFFFFFFFFFFFFFF AND DUP2 MSTORE PUSH1 0x20 ADD SWAP1 DUP2 MSTORE PUSH1 0x20 ADD PUSH0 KECCAK256 PUSH0 DUP3 DUP3 SLOAD PUSH2 0x8DA SWAP2 SWAP1 PUSH2 0xD6F JUMP JUMPDEST SWAP3 POP POP DUP2 SWAP1 SSTORE POP TIMESTAMP PUSH1 0x6 PUSH0 DUP4 PUSH20 0xFFFFFFFFFFFFFFFFFFFFFFFFFFFFFFFFFFFFFFFF AND PUSH20 0xFFFFFFFFFFFFFFFFFFFFFFFFFFFFFFFFFFFFFFFF AND DUP2 MSTORE PUSH1 0x20 ADD SWAP1 DUP2 MSTORE PUSH1 0x20 ADD PUSH0 KECCAK256 DUP2 SWAP1 SSTORE POP JUMPDEST PUSH0 DUP3 GT PUSH2 0x966 JUMPI PUSH1 0x40 MLOAD PUSH32 0x8C379A000000000000000000000000000000000000000000000000000000000 DUP2 MSTORE PUSH1 0x4 ADD PUSH2 0x95D SWAP1 PUSH2 0xFCA JUMP JUMPDEST PUSH1 0x40 MLOAD DUP1 SWAP2 SUB SWAP1 REVERT JUMPDEST PUSH1 0x1 PUSH0 SWAP1 SLOAD SWAP1 PUSH2 0x100 EXP SWAP1 DIV PUSH20 0xFFFFFFFFFFFFFFFFFFFFFFFFFFFFFFFFFFFFFFFF AND PUSH20 0xFFFFFFFFFFFFFFFFFFFFFFFFFFFFFFFFFFFFFFFF AND PUSH4 0x23B872DD CALLER ADDRESS DUP6 PUSH1 0x40 MLOAD DUP5 PUSH4 0xFFFFFFFF AND PUSH1 0xE0 SHL DUP2 MSTORE PUSH1 0x4 ADD PUSH2 0x9C4 SWAP4 SWAP3 SWAP2 SWAP1 PUSH2 0xFE8 JUMP JUMPDEST PUSH1 0x20 PUSH1 0x40 MLOAD DUP1 DUP4 SUB DUP2 PUSH0 DUP8 GAS CALL ISZERO DUP1 ISZERO PUSH2 0x9E0 JUMPI RETURNDATASIZE PUSH0 PUSH0 RETURNDATACOPY RETURNDATASIZE PUSH0 REVERT JUMPDEST POP POP POP POP PUSH1 0x40 MLOAD RETURNDATASIZE PUSH1 0x1F NOT PUSH1 0x1F DUP3 ADD AND DUP3 ADD DUP1 PUSH1 0x40 MSTORE POP DUP2 ADD SWAP1 PUSH2 0xA04 SWAP2 SWAP1 PUSH2 0xEED JUMP JUMPDEST POP DUP2 PUSH1 0x5 PUSH0 CALLER PUSH20 0xFFFFFFFFFFFFFFFFFFFFFFFFFFFFFFFFFFFFFFFF AND PUSH20 0xFFFFFFFFFFFFFFFFFFFFFFFFFFFFFFFFFFFFFFFF AND DUP2 MSTORE PUSH1 0x20 ADD SWAP1 DUP2 MSTORE PUSH1 0x20 ADD PUSH0 KECCAK256 PUSH0 DUP3 DUP3 SLOAD PUSH2 0xA51 SWAP2 SWAP1 PUSH2 0xD6F JUMP JUMPDEST SWAP3 POP POP DUP2 SWAP1 SSTORE POP DUP2 PUSH1 0x4 PUSH0 DUP3 DUP3 SLOAD PUSH2 0xA69 SWAP2 SWAP1 PUSH2 0xD6F JUMP JUMPDEST SWAP3 POP POP DUP2 SWAP1 SSTORE POP POP PUSH2 0xA79 PUSH2 0xAE5 JUMP JUMPDEST POP JUMP JUMPDEST PUSH1 0x2 PUSH0 SWAP1 SLOAD SWAP1 PUSH2 0x100 EXP SWAP1 DIV PUSH20 0xFFFFFFFFFFFFFFFFFFFFFFFFFFFFFFFFFFFFFFFF AND DUP2 JUMP JUMPDEST PUSH1 0x2 PUSH0 SLOAD SUB PUSH2 0xADC JUMPI PUSH1 0x40 MLOAD PUSH32 0x3EE5AEB500000000000000000000000000000000000000000000000000000000 DUP2 MSTORE PUSH1 0x4 ADD PUSH1 0x40 MLOAD DUP1 SWAP2 SUB SWAP1 REVERT JUMPDEST PUSH1 0x2 PUSH0 DUP2 SWAP1 SSTORE POP JUMP JUMPDEST PUSH1 0x1 PUSH0 DUP2 SWAP1 SSTORE POP JUMP JUMPDEST PUSH0 PUSH0 REVERT JUMPDEST PUSH0 PUSH20 0xFFFFFFFFFFFFFFFFFFFFFFFFFFFFFFFFFFFFFFFF DUP3 AND SWAP1 POP SWAP2 SWAP1 POP JUMP JUMPDEST PUSH0 PUSH2 0xB1B DUP3 PUSH2 0xAF2 JUMP JUMPDEST SWAP1 POP SWAP2 SWAP1 POP JUMP JUMPDEST PUSH2 0xB2B DUP2 PUSH2 0xB11 JUMP JUMPDEST DUP2 EQ PUSH2 0xB35 JUMPI PUSH0 PUSH0 REVERT JUMPDEST POP JUMP JUMPDEST PUSH0 DUP2 CALLDATALOAD SWAP1 POP PUSH2 0xB46 DUP2 PUSH2 0xB22 JUMP JUMPDEST SWAP3 SWAP2 POP POP JUMP JUMPDEST PUSH0 PUSH1 0x20 DUP3 DUP5 SUB SLT ISZERO PUSH2 0xB61 JUMPI PUSH2 0xB60 PUSH2 0xAEE JUMP JUMPDEST JUMPDEST PUSH0 PUSH2 0xB6E DUP5 DUP3 DUP6 ADD PUSH2 0xB38 JUMP JUMPDEST SWAP2 POP POP SWAP3 SWAP2 POP POP JUMP JUMPDEST PUSH0 DUP2 SWAP1 POP SWAP2 SWAP1 POP JUMP JUMPDEST PUSH2 0xB89 DUP2 PUSH2 0xB77 JUMP JUMPDEST DUP3 MSTORE POP POP JUMP JUMPDEST PUSH0 PUSH1 0x20 DUP3 ADD SWAP1 POP PUSH2 0xBA2 PUSH0 DUP4 ADD DUP5 PUSH2 0xB80 JUMP JUMPDEST SWAP3 SWAP2 POP POP JUMP JUMPDEST PUSH2 0xBB1 DUP2 PUSH2 0xB77 JUMP JUMPDEST DUP2 EQ PUSH2 0xBBB JUMPI PUSH0 PUSH0 REVERT JUMPDEST POP JUMP JUMPDEST PUSH0 DUP2 CALLDATALOAD SWAP1 POP PUSH2 0xBCC DUP2 PUSH2 0xBA8 JUMP JUMPDEST SWAP3 SWAP2 POP POP JUMP JUMPDEST PUSH0 PUSH1 0x20 DUP3 DUP5 SUB SLT ISZERO PUSH2 0xBE7 JUMPI PUSH2 0xBE6 PUSH2 0xAEE JUMP JUMPDEST JUMPDEST PUSH0 PUSH2 0xBF4 DUP5 DUP3 DUP6 ADD PUSH2 0xBBE JUMP JUMPDEST SWAP2 POP POP SWAP3 SWAP2 POP POP JUMP JUMPDEST PUSH0 DUP2 SWAP1 POP SWAP2 SWAP1 POP JUMP JUMPDEST PUSH0 PUSH2 0xC20 PUSH2 0xC1B PUSH2 0xC16 DUP5 PUSH2 0xAF2 JUMP JUMPDEST PUSH2 0xBFD JUMP JUMPDEST PUSH2 0xAF2 JUMP JUMPDEST SWAP1 POP SWAP2 SWAP1 POP JUMP JUMPDEST PUSH0 PUSH2 0xC31 DUP3 PUSH2 0xC06 JUMP JUMPDEST SWAP1 POP SWAP2 SWAP1 POP JUMP JUMPDEST PUSH0 PUSH2 0xC42 DUP3 PUSH2 0xC27 JUMP JUMPDEST SWAP1 POP SWAP2 SWAP1 POP JUMP JUMPDEST PUSH2 0xC52 DUP2 PUSH2 0xC38 JUMP JUMPDEST DUP3 MSTORE POP POP JUMP JUMPDEST PUSH0 PUSH1 0x20 DUP3 ADD SWAP1 POP PUSH2 0xC6B PUSH0 DUP4 ADD DUP5 PUSH2 0xC49 JUMP JUMPDEST SWAP3 SWAP2 POP POP JUMP JUMPDEST PUSH32 0x4E487B7100000000000000000000000000000000000000000000000000000000 PUSH0 MSTORE PUSH1 0x11 PUSH1 0x4 MSTORE PUSH1 0x24 PUSH0 REVERT JUMPDEST PUSH0 PUSH2 0xCA8 DUP3 PUSH2 0xB77 JUMP JUMPDEST SWAP2 POP PUSH2 0xCB3 DUP4 PUSH2 0xB77 JUMP JUMPDEST SWAP3 POP DUP3 DUP3 SUB SWAP1 POP DUP2 DUP2 GT ISZERO PUSH2 0xCCB JUMPI PUSH2 0xCCA PUSH2 0xC71 JUMP JUMPDEST JUMPDEST SWAP3 SWAP2 POP POP JUMP JUMPDEST PUSH0 PUSH2 0xCDB DUP3 PUSH2 0xB77 JUMP JUMPDEST SWAP2 POP PUSH2 0xCE6 DUP4 PUSH2 0xB77 JUMP JUMPDEST SWAP3 POP DUP3 DUP3 MUL PUSH2 0xCF4 DUP2 PUSH2 0xB77 JUMP JUMPDEST SWAP2 POP DUP3 DUP3 DIV DUP5 EQ DUP4 ISZERO OR PUSH2 0xD0B JUMPI PUSH2 0xD0A PUSH2 0xC71 JUMP JUMPDEST JUMPDEST POP SWAP3 SWAP2 POP POP JUMP JUMPDEST PUSH32 0x4E487B7100000000000000000000000000000000000000000000000000000000 PUSH0 MSTORE PUSH1 0x12 PUSH1 0x4 MSTORE PUSH1 0x24 PUSH0 REVERT JUMPDEST PUSH0 PUSH2 0xD49 DUP3 PUSH2 0xB77 JUMP JUMPDEST SWAP2 POP PUSH2 0xD54 DUP4 PUSH2 0xB77 JUMP JUMPDEST SWAP3 POP DUP3 PUSH2 0xD64 JUMPI PUSH2 0xD63 PUSH2 0xD12 JUMP JUMPDEST JUMPDEST DUP3 DUP3 DIV SWAP1 POP SWAP3 SWAP2 POP POP JUMP JUMPDEST PUSH0 PUSH2 0xD79 DUP3 PUSH2 0xB77 JUMP JUMPDEST SWAP2 POP PUSH2 0xD84 DUP4 PUSH2 0xB77 JUMP JUMPDEST SWAP3 POP DUP3 DUP3 ADD SWAP1 POP DUP1 DUP3 GT ISZERO PUSH2 0xD9C JUMPI PUSH2 0xD9B PUSH2 0xC71 JUMP JUMPDEST JUMPDEST SWAP3 SWAP2 POP POP JUMP JUMPDEST PUSH0 DUP3 DUP3 MSTORE PUSH1 0x20 DUP3 ADD SWAP1 POP SWAP3 SWAP2 POP POP JUMP JUMPDEST PUSH32 0x43616E6E6F7420756E7374616B65203000000000000000000000000000000000 PUSH0 DUP3 ADD MSTORE POP JUMP JUMPDEST PUSH0 PUSH2 0xDE6 PUSH1 0x10 DUP4 PUSH2 0xDA2 JUMP JUMPDEST SWAP2 POP PUSH2 0xDF1 DUP3 PUSH2 0xDB2 JUMP JUMPDEST PUSH1 0x20 DUP3 ADD SWAP1 POP SWAP2 SWAP1 POP JUMP JUMPDEST PUSH0 PUSH1 0x20 DUP3 ADD SWAP1 POP DUP2 DUP2 SUB PUSH0 DUP4 ADD MSTORE PUSH2 0xE13 DUP2 PUSH2 0xDDA JUMP JUMPDEST SWAP1 POP SWAP2 SWAP1 POP JUMP JUMPDEST PUSH32 0x496E73756666696369656E74207374616B650000000000000000000000000000 PUSH0 DUP3 ADD MSTORE POP JUMP JUMPDEST PUSH0 PUSH2 0xE4E PUSH1 0x12 DUP4 PUSH2 0xDA2 JUMP JUMPDEST SWAP2 POP PUSH2 0xE59 DUP3 PUSH2 0xE1A JUMP JUMPDEST PUSH1 0x20 DUP3 ADD SWAP1 POP SWAP2 SWAP1 POP JUMP JUMPDEST PUSH0 PUSH1 0x20 DUP3 ADD SWAP1 POP DUP2 DUP2 SUB PUSH0 DUP4 ADD MSTORE PUSH2 0xE7B DUP2 PUSH2 0xE42 JUMP JUMPDEST SWAP1 POP SWAP2 SWAP1 POP JUMP JUMPDEST PUSH2 0xE8B DUP2 PUSH2 0xB11 JUMP JUMPDEST DUP3 MSTORE POP POP JUMP JUMPDEST PUSH0 PUSH1 0x40 DUP3 ADD SWAP1 POP PUSH2 0xEA4 PUSH0 DUP4 ADD DUP6 PUSH2 0xE82 JUMP JUMPDEST PUSH2 0xEB1 PUSH1 0x20 DUP4 ADD DUP5 PUSH2 0xB80 JUMP JUMPDEST SWAP4 SWAP3 POP POP POP JUMP JUMPDEST PUSH0 DUP2 ISZERO ISZERO SWAP1 POP SWAP2 SWAP1 POP JUMP JUMPDEST PUSH2 0xECC DUP2 PUSH2 0xEB8 JUMP JUMPDEST DUP2 EQ PUSH2 0xED6 JUMPI PUSH0 PUSH0 REVERT JUMPDEST POP JUMP JUMPDEST PUSH0 DUP2 MLOAD SWAP1 POP PUSH2 0xEE7 DUP2 PUSH2 0xEC3 JUMP JUMPDEST SWAP3 SWAP2 POP POP JUMP JUMPDEST PUSH0 PUSH1 0x20 DUP3 DUP5 SUB SLT ISZERO PUSH2 0xF02 JUMPI PUSH2 0xF01 PUSH2 0xAEE JUMP JUMPDEST JUMPDEST PUSH0 PUSH2 0xF0F DUP5 DUP3 DUP6 ADD PUSH2 0xED9 JUMP JUMPDEST SWAP2 POP POP SWAP3 SWAP2 POP POP JUMP JUMPDEST PUSH32 0x4E6F207265776172647300000000000000000000000000000000000000000000 PUSH0 DUP3 ADD MSTORE POP JUMP JUMPDEST PUSH0 PUSH2 0xF4C PUSH1 0xA DUP4 PUSH2 0xDA2 JUMP JUMPDEST SWAP2 POP PUSH2 0xF57 DUP3 PUSH2 0xF18 JUMP JUMPDEST PUSH1 0x20 DUP3 ADD SWAP1 POP SWAP2 SWAP1 POP JUMP JUMPDEST PUSH0 PUSH1 0x20 DUP3 ADD SWAP1 POP DUP2 DUP2 SUB PUSH0 DUP4 ADD MSTORE PUSH2 0xF79 DUP2 PUSH2 0xF40 JUMP JUMPDEST SWAP1 POP SWAP2 SWAP1 POP JUMP JUMPDEST PUSH32 0x43616E6E6F74207374616B652030000000000000000000000000000000000000 PUSH0 DUP3 ADD MSTORE POP JUMP JUMPDEST PUSH0 PUSH2 0xFB4 PUSH1 0xE DUP4 PUSH2 0xDA2 JUMP JUMPDEST SWAP2 POP PUSH2 0xFBF DUP3 PUSH2 0xF80 JUMP JUMPDEST PUSH1 0x20 DUP3 ADD SWAP1 POP SWAP2 SWAP1 POP JUMP JUMPDEST PUSH0 PUSH1 0x20 DUP3 ADD SWAP1 POP DUP2 DUP2 SUB PUSH0 DUP4 ADD MSTORE PUSH2 0xFE1 DUP2 PUSH2 0xFA8 JUMP JUMPDEST SWAP1 POP SWAP2 SWAP1 POP JUMP JUMPDEST PUSH0 PUSH1 0x60 DUP3 ADD SWAP1 POP PUSH2 0xFFB PUSH0 DUP4 ADD DUP7 PUSH2 0xE82 JUMP JUMPDEST PUSH2 0x1008 PUSH1 0x20 DUP4 ADD DUP6 PUSH2 0xE82 JUMP JUMPDEST PUSH2 0x1015 PUSH1 0x40 DUP4 ADD DUP5 PUSH2 0xB80 JUMP JUMPDEST SWAP5 SWAP4 POP POP POP POP JUMP INVALID LOG2 PUSH5 0x6970667358 0x22 SLT KECCAK256 SAR 0xC3 0xBA GASPRICE ADDRESS SLOAD EXTCODECOPY 0xDD PREVRANDAO 0xBD 0xC6 TSTORE 0x4E CALL 0xB9 PUSH21 0xBFB55DBAC5EF146228ED8A83B2C9FA0664736F6C63 NUMBER STOP ADDMOD 0x1E STOP CALLER "
				},
				"gasEstimates": {
					"creation": {
						"codeDepositCost": "835800",
						"executionCost": "infinite",
						"totalCost": "infinite"
					},
					"external": {
						"claimRewards()": "infinite",
						"earned(address)": "infinite",
						"lastUpdateTime(address)": "2847",
						"rewardRate()": "2469",
						"rewardToken()": "infinite",
						"rewards(address)": "2825",
						"stake(uint256)": "infinite",
						"stakedBalance(address)": "2802",
						"stakingToken()": "infinite",
						"totalStaked()": "2491",
						"unstake(uint256)": "infinite"
					}
				},
				"methodIdentifiers": {
					"claimRewards()": "372500ab",
					"earned(address)": "008cc262",
					"lastUpdateTime(address)": "2ce9aead",
					"rewardRate()": "7b0a47ee",
					"rewardToken()": "f7c618c1",
					"rewards(address)": "0700037d",
					"stake(uint256)": "a694fc3a",
					"stakedBalance(address)": "60217267",
					"stakingToken()": "72f702f3",
					"totalStaked()": "817b1cd2",
					"unstake(uint256)": "2e17de78"
				}
			},
			"storageLayout": {
				"storage": [
					{
						"astId": 329,
						"contract": "Smart Contracts/12_Staking.sol:Staking",
						"label": "_status",
						"offset": 0,
						"slot": "0",
						"type": "t_uint256"
					},
					{
						"astId": 8,
						"contract": "Smart Contracts/12_Staking.sol:Staking",
						"label": "stakingToken",
						"offset": 0,
						"slot": "1",
						"type": "t_contract(IERC20)318"
					},
					{
						"astId": 11,
						"contract": "Smart Contracts/12_Staking.sol:Staking",
						"label": "rewardToken",
						"offset": 0,
						"slot": "2",
						"type": "t_contract(IERC20)318"
					},
					{
						"astId": 13,
						"contract": "Smart Contracts/12_Staking.sol:Staking",
						"label": "rewardRate",
						"offset": 0,
						"slot": "3",
						"type": "t_uint256"
					},
					{
						"astId": 15,
						"contract": "Smart Contracts/12_Staking.sol:Staking",
						"label": "totalStaked",
						"offset": 0,
						"slot": "4",
						"type": "t_uint256"
					},
					{
						"astId": 19,
						"contract": "Smart Contracts/12_Staking.sol:Staking",
						"label": "stakedBalance",
						"offset": 0,
						"slot": "5",
						"type": "t_mapping(t_address,t_uint256)"
					},
					{
						"astId": 23,
						"contract": "Smart Contracts/12_Staking.sol:Staking",
						"label": "lastUpdateTime",
						"offset": 0,
						"slot": "6",
						"type": "t_mapping(t_address,t_uint256)"
					},
					{
						"astId": 27,
						"contract": "Smart Contracts/12_Staking.sol:Staking",
						"label": "rewards",
						"offset": 0,
						"slot": "7",
						"type": "t_mapping(t_address,t_uint256)"
					}
				],
				"types": {
					"t_address": {
						"encoding": "inplace",
						"label": "address",
						"numberOfBytes": "20"
					},
					"t_contract(IERC20)318": {
						"encoding": "inplace",
						"label": "contract IERC20",
						"numberOfBytes": "20"
					},
					"t_mapping(t_address,t_uint256)": {
						"encoding": "mapping",
						"key": "t_address",
						"label": "mapping(address => uint256)",
						"numberOfBytes": "32",
						"value": "t_uint256"
					},
					"t_uint256": {
						"encoding": "inplace",
						"label": "uint256",
						"numberOfBytes": "32"
					}
				}
			},
			"userdoc": {
				"kind": "user",
				"methods": {},
				"version": 1
			}
		}
	}
}