{
	"10_MultiSignature.sol": {
		"MultiSigWallet": {
			"abi": [
				{
					"inputs": [
						{
							"internalType": "address[]",
							"name": "_owners",
							"type": "address[]"
						},
						{
							"internalType": "uint256",
							"name": "_requestedApprovals",
							"type": "uint256"
						}
					],
					"stateMutability": "payable",
					"type": "constructor"
				},
				{
					"anonymous": false,
					"inputs": [
						{
							"indexed": true,
							"internalType": "address",
							"name": "owner",
							"type": "address"
						},
						{
							"indexed": false,
							"internalType": "uint256",
							"name": "amount",
							"type": "uint256"
						}
					],
					"name": "Deposit",
					"type": "event"
				},
				{
					"anonymous": false,
					"inputs": [
						{
							"indexed": true,
							"internalType": "address",
							"name": "owner",
							"type": "address"
						},
						{
							"indexed": true,
							"internalType": "uint256",
							"name": "txId",
							"type": "uint256"
						}
					],
					"name": "TransactionApproved",
					"type": "event"
				},
				{
					"anonymous": false,
					"inputs": [
						{
							"indexed": true,
							"internalType": "uint256",
							"name": "txId",
							"type": "uint256"
						}
					],
					"name": "TransactionExecuted",
					"type": "event"
				},
				{
					"anonymous": false,
					"inputs": [
						{
							"indexed": true,
							"internalType": "uint256",
							"name": "txId",
							"type": "uint256"
						},
						{
							"indexed": true,
							"internalType": "address",
							"name": "to",
							"type": "address"
						},
						{
							"indexed": false,
							"internalType": "uint256",
							"name": "value",
							"type": "uint256"
						},
						{
							"indexed": false,
							"internalType": "bytes",
							"name": "data",
							"type": "bytes"
						}
					],
					"name": "TransactionSubmitted",
					"type": "event"
				},
				{
					"inputs": [
						{
							"internalType": "uint256",
							"name": "txId",
							"type": "uint256"
						}
					],
					"name": "approveTransaction",
					"outputs": [],
					"stateMutability": "nonpayable",
					"type": "function"
				},
				{
					"inputs": [
						{
							"internalType": "uint256",
							"name": "",
							"type": "uint256"
						},
						{
							"internalType": "address",
							"name": "",
							"type": "address"
						}
					],
					"name": "approved",
					"outputs": [
						{
							"internalType": "bool",
							"name": "",
							"type": "bool"
						}
					],
					"stateMutability": "view",
					"type": "function"
				},
				{
					"inputs": [
						{
							"internalType": "uint256",
							"name": "txId",
							"type": "uint256"
						}
					],
					"name": "executeTransaction",
					"outputs": [],
					"stateMutability": "nonpayable",
					"type": "function"
				},
				{
					"inputs": [],
					"name": "getOwners",
					"outputs": [
						{
							"internalType": "address[]",
							"name": "",
							"type": "address[]"
						}
					],
					"stateMutability": "view",
					"type": "function"
				},
				{
					"inputs": [
						{
							"internalType": "uint256",
							"name": "_txId",
							"type": "uint256"
						}
					],
					"name": "getTransaction",
					"outputs": [
						{
							"internalType": "address",
							"name": "to",
							"type": "address"
						},
						{
							"internalType": "uint256",
							"name": "value",
							"type": "uint256"
						},
						{
							"internalType": "bytes",
							"name": "data",
							"type": "bytes"
						},
						{
							"internalType": "bool",
							"name": "executed",
							"type": "bool"
						},
						{
							"internalType": "uint256",
							"name": "approvalCount",
							"type": "uint256"
						}
					],
					"stateMutability": "view",
					"type": "function"
				},
				{
					"inputs": [],
					"name": "getTransactionCount",
					"outputs": [
						{
							"internalType": "uint256",
							"name": "",
							"type": "uint256"
						}
					],
					"stateMutability": "view",
					"type": "function"
				},
				{
					"inputs": [
						{
							"internalType": "address",
							"name": "",
							"type": "address"
						}
					],
					"name": "isOwner",
					"outputs": [
						{
							"internalType": "bool",
							"name": "",
							"type": "bool"
						}
					],
					"stateMutability": "view",
					"type": "function"
				},
				{
					"inputs": [
						{
							"internalType": "uint256",
							"name": "",
							"type": "uint256"
						}
					],
					"name": "owners",
					"outputs": [
						{
							"internalType": "address",
							"name": "",
							"type": "address"
						}
					],
					"stateMutability": "view",
					"type": "function"
				},
				{
					"inputs": [
						{
							"internalType": "address",
							"name": "_to",
							"type": "address"
						},
						{
							"internalType": "uint256",
							"name": "_value",
							"type": "uint256"
						},
						{
							"internalType": "bytes",
							"name": "_data",
							"type": "bytes"
						}
					],
					"name": "transactionSubmit",
					"outputs": [],
					"stateMutability": "nonpayable",
					"type": "function"
				},
				{
					"inputs": [
						{
							"internalType": "uint256",
							"name": "",
							"type": "uint256"
						}
					],
					"name": "transactions",
					"outputs": [
						{
							"internalType": "address",
							"name": "to",
							"type": "address"
						},
						{
							"internalType": "uint256",
							"name": "value",
							"type": "uint256"
						},
						{
							"internalType": "bytes",
							"name": "data",
							"type": "bytes"
						},
						{
							"internalType": "bool",
							"name": "executed",
							"type": "bool"
						},
						{
							"internalType": "uint256",
							"name": "approvalCount",
							"type": "uint256"
						}
					],
					"stateMutability": "view",
					"type": "function"
				},
				{
					"stateMutability": "payable",
					"type": "receive"
				}
			],
			"devdoc": {
				"kind": "dev",
				"methods": {},
				"version": 1
			},
			"evm": {
				"assembly": "    /* \"10_MultiSignature.sol\":61:3574  contract MultiSigWallet {... */\n  mstore(0x40, 0x80)\n    /* \"10_MultiSignature.sol\":1272:1866  constructor(address[] memory _owners, uint _requestedApprovals) payable{... */\n  mload(0x40)\n  sub(codesize, bytecodeSize)\n  dup1\n  bytecodeSize\n  dup4\n  codecopy\n  dup2\n  dup2\n  add\n  0x40\n  mstore\n  dup2\n  add\n  swap1\n  tag_1\n  swap2\n  swap1\n  tag_2\n  jump\t// in\ntag_1:\n    /* \"10_MultiSignature.sol\":1379:1380  0 */\n  0x00\n    /* \"10_MultiSignature.sol\":1362:1369  _owners */\n  dup3\n    /* \"10_MultiSignature.sol\":1362:1376  _owners.length */\n  mload\n    /* \"10_MultiSignature.sol\":1362:1380  _owners.length > 0 */\n  gt\n    /* \"10_MultiSignature.sol\":1354:1400  require(_owners.length > 0, \"Owners required\") */\n  tag_5\n  jumpi\n  mload(0x40)\n  0x08c379a000000000000000000000000000000000000000000000000000000000\n  dup2\n  mstore\n  0x04\n  add\n  tag_6\n  swap1\n  tag_7\n  jump\t// in\ntag_6:\n  mload(0x40)\n  dup1\n  swap2\n  sub\n  swap1\n  revert\ntag_5:\n    /* \"10_MultiSignature.sol\":1441:1442  0 */\n  0x00\n    /* \"10_MultiSignature.sol\":1419:1438  _requestedApprovals */\n  dup2\n    /* \"10_MultiSignature.sol\":1419:1442  _requestedApprovals > 0 */\n  gt\n    /* \"10_MultiSignature.sol\":1419:1483  _requestedApprovals > 0 && _requestedApprovals <= _owners.length */\n  dup1\n  iszero\n  tag_8\n  jumpi\n  pop\n    /* \"10_MultiSignature.sol\":1469:1476  _owners */\n  dup2\n    /* \"10_MultiSignature.sol\":1469:1483  _owners.length */\n  mload\n    /* \"10_MultiSignature.sol\":1446:1465  _requestedApprovals */\n  dup2\n    /* \"10_MultiSignature.sol\":1446:1483  _requestedApprovals <= _owners.length */\n  gt\n  iszero\n    /* \"10_MultiSignature.sol\":1419:1483  _requestedApprovals > 0 && _requestedApprovals <= _owners.length */\ntag_8:\n    /* \"10_MultiSignature.sol\":1411:1517  require(_requestedApprovals > 0 && _requestedApprovals <= _owners.length, \"Invalid approval requirements\") */\n  tag_9\n  jumpi\n  mload(0x40)\n  0x08c379a000000000000000000000000000000000000000000000000000000000\n  dup2\n  mstore\n  0x04\n  add\n  tag_10\n  swap1\n  tag_11\n  jump\t// in\ntag_10:\n  mload(0x40)\n  dup1\n  swap2\n  sub\n  swap1\n  revert\ntag_9:\n    /* \"10_MultiSignature.sol\":1532:1538  uint i */\n  0x00\n    /* \"10_MultiSignature.sol\":1541:1542  0 */\n  0x00\n    /* \"10_MultiSignature.sol\":1532:1542  uint i = 0 */\n  swap1\n  pop\n    /* \"10_MultiSignature.sol\":1528:1808  for(uint i = 0; i < _owners.length; i++){... */\ntag_12:\n    /* \"10_MultiSignature.sol\":1548:1555  _owners */\n  dup3\n    /* \"10_MultiSignature.sol\":1548:1562  _owners.length */\n  mload\n    /* \"10_MultiSignature.sol\":1544:1545  i */\n  dup2\n    /* \"10_MultiSignature.sol\":1544:1562  i < _owners.length */\n  lt\n    /* \"10_MultiSignature.sol\":1528:1808  for(uint i = 0; i < _owners.length; i++){... */\n  iszero\n  tag_13\n  jumpi\n    /* \"10_MultiSignature.sol\":1583:1596  address owner */\n  0x00\n    /* \"10_MultiSignature.sol\":1599:1606  _owners */\n  dup4\n    /* \"10_MultiSignature.sol\":1607:1608  i */\n  dup3\n    /* \"10_MultiSignature.sol\":1599:1609  _owners[i] */\n  dup2\n  mload\n  dup2\n  lt\n  tag_15\n  jumpi\n  tag_16\n  tag_17\n  jump\t// in\ntag_16:\ntag_15:\n  0x20\n  mul\n  0x20\n  add\n  add\n  mload\n    /* \"10_MultiSignature.sol\":1583:1609  address owner = _owners[i] */\n  swap1\n  pop\n    /* \"10_MultiSignature.sol\":1649:1650  0 */\n  0x00\n    /* \"10_MultiSignature.sol\":1632:1651  owner != address(0) */\n  0xffffffffffffffffffffffffffffffffffffffff\n  and\n    /* \"10_MultiSignature.sol\":1632:1637  owner */\n  dup2\n    /* \"10_MultiSignature.sol\":1632:1651  owner != address(0) */\n  0xffffffffffffffffffffffffffffffffffffffff\n  and\n  sub\n    /* \"10_MultiSignature.sol\":1624:1669  require(owner != address(0), \"Invalid owner\") */\n  tag_18\n  jumpi\n  mload(0x40)\n  0x08c379a000000000000000000000000000000000000000000000000000000000\n  dup2\n  mstore\n  0x04\n  add\n  tag_19\n  swap1\n  tag_20\n  jump\t// in\ntag_19:\n  mload(0x40)\n  dup1\n  swap2\n  sub\n  swap1\n  revert\ntag_18:\n    /* \"10_MultiSignature.sol\":1693:1700  isOwner */\n  0x01\n    /* \"10_MultiSignature.sol\":1693:1707  isOwner[owner] */\n  0x00\n    /* \"10_MultiSignature.sol\":1701:1706  owner */\n  dup3\n    /* \"10_MultiSignature.sol\":1693:1707  isOwner[owner] */\n  0xffffffffffffffffffffffffffffffffffffffff\n  and\n  0xffffffffffffffffffffffffffffffffffffffff\n  and\n  dup2\n  mstore\n  0x20\n  add\n  swap1\n  dup2\n  mstore\n  0x20\n  add\n  0x00\n  keccak256\n  0x00\n  swap1\n  sload\n  swap1\n  0x0100\n  exp\n  swap1\n  div\n  0xff\n  and\n    /* \"10_MultiSignature.sol\":1692:1707  !isOwner[owner] */\n  iszero\n    /* \"10_MultiSignature.sol\":1684:1727  require(!isOwner[owner], \"Duplicate owner\") */\n  tag_21\n  jumpi\n  mload(0x40)\n  0x08c379a000000000000000000000000000000000000000000000000000000000\n  dup2\n  mstore\n  0x04\n  add\n  tag_22\n  swap1\n  tag_23\n  jump\t// in\ntag_22:\n  mload(0x40)\n  dup1\n  swap2\n  sub\n  swap1\n  revert\ntag_21:\n    /* \"10_MultiSignature.sol\":1759:1763  true */\n  0x01\n    /* \"10_MultiSignature.sol\":1742:1749  isOwner */\n  dup1\n    /* \"10_MultiSignature.sol\":1742:1756  isOwner[owner] */\n  0x00\n    /* \"10_MultiSignature.sol\":1750:1755  owner */\n  dup4\n    /* \"10_MultiSignature.sol\":1742:1756  isOwner[owner] */\n  0xffffffffffffffffffffffffffffffffffffffff\n  and\n  0xffffffffffffffffffffffffffffffffffffffff\n  and\n  dup2\n  mstore\n  0x20\n  add\n  swap1\n  dup2\n  mstore\n  0x20\n  add\n  0x00\n  keccak256\n  0x00\n    /* \"10_MultiSignature.sol\":1742:1763  isOwner[owner] = true */\n  0x0100\n  exp\n  dup2\n  sload\n  dup2\n  0xff\n  mul\n  not\n  and\n  swap1\n  dup4\n  iszero\n  iszero\n  mul\n  or\n  swap1\n  sstore\n  pop\n    /* \"10_MultiSignature.sol\":1778:1784  owners */\n  0x00\n    /* \"10_MultiSignature.sol\":1790:1795  owner */\n  dup2\n    /* \"10_MultiSignature.sol\":1778:1796  owners.push(owner) */\n  swap1\n  dup1\n  0x01\n  dup2\n  sload\n  add\n  dup1\n  dup3\n  sstore\n  dup1\n  swap2\n  pop\n  pop\n  0x01\n  swap1\n  sub\n  swap1\n  0x00\n  mstore\n  keccak256(0x00, 0x20)\n  add\n  0x00\n  swap1\n  swap2\n  swap1\n  swap2\n  swap1\n  swap2\n  0x0100\n  exp\n  dup2\n  sload\n  dup2\n  0xffffffffffffffffffffffffffffffffffffffff\n  mul\n  not\n  and\n  swap1\n  dup4\n  0xffffffffffffffffffffffffffffffffffffffff\n  and\n  mul\n  or\n  swap1\n  sstore\n  pop\n    /* \"10_MultiSignature.sol\":1568:1808  {... */\n  pop\n    /* \"10_MultiSignature.sol\":1564:1567  i++ */\n  dup1\n  dup1\n  0x01\n  add\n  swap2\n  pop\n  pop\n    /* \"10_MultiSignature.sol\":1528:1808  for(uint i = 0; i < _owners.length; i++){... */\n  jump(tag_12)\ntag_13:\n  pop\n    /* \"10_MultiSignature.sol\":1839:1858  _requestedApprovals */\n  dup1\n    /* \"10_MultiSignature.sol\":1818:1836  requestedApprovals */\n  0x02\n    /* \"10_MultiSignature.sol\":1818:1858  requestedApprovals = _requestedApprovals */\n  dup2\n  swap1\n  sstore\n  pop\n    /* \"10_MultiSignature.sol\":1272:1866  constructor(address[] memory _owners, uint _requestedApprovals) payable{... */\n  pop\n  pop\n    /* \"10_MultiSignature.sol\":61:3574  contract MultiSigWallet {... */\n  jump(tag_25)\n    /* \"#utility.yul\":7:82   */\ntag_26:\n    /* \"#utility.yul\":40:46   */\n  0x00\n    /* \"#utility.yul\":73:75   */\n  0x40\n    /* \"#utility.yul\":67:76   */\n  mload\n    /* \"#utility.yul\":57:76   */\n  swap1\n  pop\n    /* \"#utility.yul\":7:82   */\n  swap1\n  jump\t// out\n    /* \"#utility.yul\":88:205   */\ntag_27:\n    /* \"#utility.yul\":197:198   */\n  0x00\n    /* \"#utility.yul\":194:195   */\n  0x00\n    /* \"#utility.yul\":187:199   */\n  revert\n    /* \"#utility.yul\":211:328   */\ntag_28:\n    /* \"#utility.yul\":320:321   */\n  0x00\n    /* \"#utility.yul\":317:318   */\n  0x00\n    /* \"#utility.yul\":310:322   */\n  revert\n    /* \"#utility.yul\":334:451   */\ntag_29:\n    /* \"#utility.yul\":443:444   */\n  0x00\n    /* \"#utility.yul\":440:441   */\n  0x00\n    /* \"#utility.yul\":433:445   */\n  revert\n    /* \"#utility.yul\":457:559   */\ntag_30:\n    /* \"#utility.yul\":498:504   */\n  0x00\n    /* \"#utility.yul\":549:551   */\n  0x1f\n    /* \"#utility.yul\":545:552   */\n  not\n    /* \"#utility.yul\":540:542   */\n  0x1f\n    /* \"#utility.yul\":533:538   */\n  dup4\n    /* \"#utility.yul\":529:543   */\n  add\n    /* \"#utility.yul\":525:553   */\n  and\n    /* \"#utility.yul\":515:553   */\n  swap1\n  pop\n    /* \"#utility.yul\":457:559   */\n  swap2\n  swap1\n  pop\n  jump\t// out\n    /* \"#utility.yul\":565:745   */\ntag_31:\n    /* \"#utility.yul\":613:690   */\n  0x4e487b7100000000000000000000000000000000000000000000000000000000\n    /* \"#utility.yul\":610:611   */\n  0x00\n    /* \"#utility.yul\":603:691   */\n  mstore\n    /* \"#utility.yul\":710:714   */\n  0x41\n    /* \"#utility.yul\":707:708   */\n  0x04\n    /* \"#utility.yul\":700:715   */\n  mstore\n    /* \"#utility.yul\":734:738   */\n  0x24\n    /* \"#utility.yul\":731:732   */\n  0x00\n    /* \"#utility.yul\":724:739   */\n  revert\n    /* \"#utility.yul\":751:1032   */\ntag_32:\n    /* \"#utility.yul\":834:861   */\n  tag_62\n    /* \"#utility.yul\":856:860   */\n  dup3\n    /* \"#utility.yul\":834:861   */\n  tag_30\n  jump\t// in\ntag_62:\n    /* \"#utility.yul\":826:832   */\n  dup2\n    /* \"#utility.yul\":822:862   */\n  add\n    /* \"#utility.yul\":964:970   */\n  dup2\n    /* \"#utility.yul\":952:962   */\n  dup2\n    /* \"#utility.yul\":949:971   */\n  lt\n    /* \"#utility.yul\":928:946   */\n  0xffffffffffffffff\n    /* \"#utility.yul\":916:926   */\n  dup3\n    /* \"#utility.yul\":913:947   */\n  gt\n    /* \"#utility.yul\":910:972   */\n  or\n    /* \"#utility.yul\":907:995   */\n  iszero\n  tag_63\n  jumpi\n    /* \"#utility.yul\":975:993   */\n  tag_64\n  tag_31\n  jump\t// in\ntag_64:\n    /* \"#utility.yul\":907:995   */\ntag_63:\n    /* \"#utility.yul\":1015:1025   */\n  dup1\n    /* \"#utility.yul\":1011:1013   */\n  0x40\n    /* \"#utility.yul\":1004:1026   */\n  mstore\n    /* \"#utility.yul\":794:1032   */\n  pop\n    /* \"#utility.yul\":751:1032   */\n  pop\n  pop\n  jump\t// out\n    /* \"#utility.yul\":1038:1167   */\ntag_33:\n    /* \"#utility.yul\":1072:1078   */\n  0x00\n    /* \"#utility.yul\":1099:1119   */\n  tag_66\n  tag_26\n  jump\t// in\ntag_66:\n    /* \"#utility.yul\":1089:1119   */\n  swap1\n  pop\n    /* \"#utility.yul\":1128:1161   */\n  tag_67\n    /* \"#utility.yul\":1156:1160   */\n  dup3\n    /* \"#utility.yul\":1148:1154   */\n  dup3\n    /* \"#utility.yul\":1128:1161   */\n  tag_32\n  jump\t// in\ntag_67:\n    /* \"#utility.yul\":1038:1167   */\n  swap2\n  swap1\n  pop\n  jump\t// out\n    /* \"#utility.yul\":1173:1484   */\ntag_34:\n    /* \"#utility.yul\":1250:1254   */\n  0x00\n    /* \"#utility.yul\":1340:1358   */\n  0xffffffffffffffff\n    /* \"#utility.yul\":1332:1338   */\n  dup3\n    /* \"#utility.yul\":1329:1359   */\n  gt\n    /* \"#utility.yul\":1326:1382   */\n  iszero\n  tag_69\n  jumpi\n    /* \"#utility.yul\":1362:1380   */\n  tag_70\n  tag_31\n  jump\t// in\ntag_70:\n    /* \"#utility.yul\":1326:1382   */\ntag_69:\n    /* \"#utility.yul\":1412:1416   */\n  0x20\n    /* \"#utility.yul\":1404:1410   */\n  dup3\n    /* \"#utility.yul\":1400:1417   */\n  mul\n    /* \"#utility.yul\":1392:1417   */\n  swap1\n  pop\n    /* \"#utility.yul\":1472:1476   */\n  0x20\n    /* \"#utility.yul\":1466:1470   */\n  dup2\n    /* \"#utility.yul\":1462:1477   */\n  add\n    /* \"#utility.yul\":1454:1477   */\n  swap1\n  pop\n    /* \"#utility.yul\":1173:1484   */\n  swap2\n  swap1\n  pop\n  jump\t// out\n    /* \"#utility.yul\":1490:1607   */\ntag_35:\n    /* \"#utility.yul\":1599:1600   */\n  0x00\n    /* \"#utility.yul\":1596:1597   */\n  0x00\n    /* \"#utility.yul\":1589:1601   */\n  revert\n    /* \"#utility.yul\":1613:1739   */\ntag_36:\n    /* \"#utility.yul\":1650:1657   */\n  0x00\n    /* \"#utility.yul\":1690:1732   */\n  0xffffffffffffffffffffffffffffffffffffffff\n    /* \"#utility.yul\":1683:1688   */\n  dup3\n    /* \"#utility.yul\":1679:1733   */\n  and\n    /* \"#utility.yul\":1668:1733   */\n  swap1\n  pop\n    /* \"#utility.yul\":1613:1739   */\n  swap2\n  swap1\n  pop\n  jump\t// out\n    /* \"#utility.yul\":1745:1841   */\ntag_37:\n    /* \"#utility.yul\":1782:1789   */\n  0x00\n    /* \"#utility.yul\":1811:1835   */\n  tag_74\n    /* \"#utility.yul\":1829:1834   */\n  dup3\n    /* \"#utility.yul\":1811:1835   */\n  tag_36\n  jump\t// in\ntag_74:\n    /* \"#utility.yul\":1800:1835   */\n  swap1\n  pop\n    /* \"#utility.yul\":1745:1841   */\n  swap2\n  swap1\n  pop\n  jump\t// out\n    /* \"#utility.yul\":1847:1969   */\ntag_38:\n    /* \"#utility.yul\":1920:1944   */\n  tag_76\n    /* \"#utility.yul\":1938:1943   */\n  dup2\n    /* \"#utility.yul\":1920:1944   */\n  tag_37\n  jump\t// in\ntag_76:\n    /* \"#utility.yul\":1913:1918   */\n  dup2\n    /* \"#utility.yul\":1910:1945   */\n  eq\n    /* \"#utility.yul\":1900:1963   */\n  tag_77\n  jumpi\n    /* \"#utility.yul\":1959:1960   */\n  0x00\n    /* \"#utility.yul\":1956:1957   */\n  0x00\n    /* \"#utility.yul\":1949:1961   */\n  revert\n    /* \"#utility.yul\":1900:1963   */\ntag_77:\n    /* \"#utility.yul\":1847:1969   */\n  pop\n  jump\t// out\n    /* \"#utility.yul\":1975:2118   */\ntag_39:\n    /* \"#utility.yul\":2032:2037   */\n  0x00\n    /* \"#utility.yul\":2063:2069   */\n  dup2\n    /* \"#utility.yul\":2057:2070   */\n  mload\n    /* \"#utility.yul\":2048:2070   */\n  swap1\n  pop\n    /* \"#utility.yul\":2079:2112   */\n  tag_79\n    /* \"#utility.yul\":2106:2111   */\n  dup2\n    /* \"#utility.yul\":2079:2112   */\n  tag_38\n  jump\t// in\ntag_79:\n    /* \"#utility.yul\":1975:2118   */\n  swap3\n  swap2\n  pop\n  pop\n  jump\t// out\n    /* \"#utility.yul\":2141:2873   */\ntag_40:\n    /* \"#utility.yul\":2248:2253   */\n  0x00\n    /* \"#utility.yul\":2273:2354   */\n  tag_81\n    /* \"#utility.yul\":2289:2353   */\n  tag_82\n    /* \"#utility.yul\":2346:2352   */\n  dup5\n    /* \"#utility.yul\":2289:2353   */\n  tag_34\n  jump\t// in\ntag_82:\n    /* \"#utility.yul\":2273:2354   */\n  tag_33\n  jump\t// in\ntag_81:\n    /* \"#utility.yul\":2264:2354   */\n  swap1\n  pop\n    /* \"#utility.yul\":2374:2379   */\n  dup1\n    /* \"#utility.yul\":2403:2409   */\n  dup4\n    /* \"#utility.yul\":2396:2401   */\n  dup3\n    /* \"#utility.yul\":2389:2410   */\n  mstore\n    /* \"#utility.yul\":2437:2441   */\n  0x20\n    /* \"#utility.yul\":2430:2435   */\n  dup3\n    /* \"#utility.yul\":2426:2442   */\n  add\n    /* \"#utility.yul\":2419:2442   */\n  swap1\n  pop\n    /* \"#utility.yul\":2490:2494   */\n  0x20\n    /* \"#utility.yul\":2482:2488   */\n  dup5\n    /* \"#utility.yul\":2478:2495   */\n  mul\n    /* \"#utility.yul\":2470:2476   */\n  dup4\n    /* \"#utility.yul\":2466:2496   */\n  add\n    /* \"#utility.yul\":2519:2522   */\n  dup6\n    /* \"#utility.yul\":2511:2517   */\n  dup2\n    /* \"#utility.yul\":2508:2523   */\n  gt\n    /* \"#utility.yul\":2505:2627   */\n  iszero\n  tag_83\n  jumpi\n    /* \"#utility.yul\":2538:2617   */\n  tag_84\n  tag_35\n  jump\t// in\ntag_84:\n    /* \"#utility.yul\":2505:2627   */\ntag_83:\n    /* \"#utility.yul\":2653:2659   */\n  dup4\n    /* \"#utility.yul\":2636:2867   */\ntag_85:\n    /* \"#utility.yul\":2670:2676   */\n  dup2\n    /* \"#utility.yul\":2665:2668   */\n  dup2\n    /* \"#utility.yul\":2662:2677   */\n  lt\n    /* \"#utility.yul\":2636:2867   */\n  iszero\n  tag_87\n  jumpi\n    /* \"#utility.yul\":2745:2748   */\n  dup1\n    /* \"#utility.yul\":2774:2822   */\n  tag_88\n    /* \"#utility.yul\":2818:2821   */\n  dup9\n    /* \"#utility.yul\":2806:2816   */\n  dup3\n    /* \"#utility.yul\":2774:2822   */\n  tag_39\n  jump\t// in\ntag_88:\n    /* \"#utility.yul\":2769:2772   */\n  dup5\n    /* \"#utility.yul\":2762:2823   */\n  mstore\n    /* \"#utility.yul\":2852:2856   */\n  0x20\n    /* \"#utility.yul\":2847:2850   */\n  dup5\n    /* \"#utility.yul\":2843:2857   */\n  add\n    /* \"#utility.yul\":2836:2857   */\n  swap4\n  pop\n    /* \"#utility.yul\":2712:2867   */\n  pop\n    /* \"#utility.yul\":2696:2700   */\n  0x20\n    /* \"#utility.yul\":2691:2694   */\n  dup2\n    /* \"#utility.yul\":2687:2701   */\n  add\n    /* \"#utility.yul\":2680:2701   */\n  swap1\n  pop\n    /* \"#utility.yul\":2636:2867   */\n  jump(tag_85)\ntag_87:\n    /* \"#utility.yul\":2640:2661   */\n  pop\n    /* \"#utility.yul\":2254:2873   */\n  pop\n  pop\n    /* \"#utility.yul\":2141:2873   */\n  swap4\n  swap3\n  pop\n  pop\n  pop\n  jump\t// out\n    /* \"#utility.yul\":2896:3281   */\ntag_41:\n    /* \"#utility.yul\":2978:2983   */\n  0x00\n    /* \"#utility.yul\":3027:3030   */\n  dup3\n    /* \"#utility.yul\":3020:3024   */\n  0x1f\n    /* \"#utility.yul\":3012:3018   */\n  dup4\n    /* \"#utility.yul\":3008:3025   */\n  add\n    /* \"#utility.yul\":3004:3031   */\n  slt\n    /* \"#utility.yul\":2994:3116   */\n  tag_90\n  jumpi\n    /* \"#utility.yul\":3035:3114   */\n  tag_91\n  tag_29\n  jump\t// in\ntag_91:\n    /* \"#utility.yul\":2994:3116   */\ntag_90:\n    /* \"#utility.yul\":3145:3151   */\n  dup2\n    /* \"#utility.yul\":3139:3152   */\n  mload\n    /* \"#utility.yul\":3170:3275   */\n  tag_92\n    /* \"#utility.yul\":3271:3274   */\n  dup5\n    /* \"#utility.yul\":3263:3269   */\n  dup3\n    /* \"#utility.yul\":3256:3260   */\n  0x20\n    /* \"#utility.yul\":3248:3254   */\n  dup7\n    /* \"#utility.yul\":3244:3261   */\n  add\n    /* \"#utility.yul\":3170:3275   */\n  tag_40\n  jump\t// in\ntag_92:\n    /* \"#utility.yul\":3161:3275   */\n  swap2\n  pop\n    /* \"#utility.yul\":2984:3281   */\n  pop\n    /* \"#utility.yul\":2896:3281   */\n  swap3\n  swap2\n  pop\n  pop\n  jump\t// out\n    /* \"#utility.yul\":3287:3364   */\ntag_42:\n    /* \"#utility.yul\":3324:3331   */\n  0x00\n    /* \"#utility.yul\":3353:3358   */\n  dup2\n    /* \"#utility.yul\":3342:3358   */\n  swap1\n  pop\n    /* \"#utility.yul\":3287:3364   */\n  swap2\n  swap1\n  pop\n  jump\t// out\n    /* \"#utility.yul\":3370:3492   */\ntag_43:\n    /* \"#utility.yul\":3443:3467   */\n  tag_95\n    /* \"#utility.yul\":3461:3466   */\n  dup2\n    /* \"#utility.yul\":3443:3467   */\n  tag_42\n  jump\t// in\ntag_95:\n    /* \"#utility.yul\":3436:3441   */\n  dup2\n    /* \"#utility.yul\":3433:3468   */\n  eq\n    /* \"#utility.yul\":3423:3486   */\n  tag_96\n  jumpi\n    /* \"#utility.yul\":3482:3483   */\n  0x00\n    /* \"#utility.yul\":3479:3480   */\n  0x00\n    /* \"#utility.yul\":3472:3484   */\n  revert\n    /* \"#utility.yul\":3423:3486   */\ntag_96:\n    /* \"#utility.yul\":3370:3492   */\n  pop\n  jump\t// out\n    /* \"#utility.yul\":3498:3641   */\ntag_44:\n    /* \"#utility.yul\":3555:3560   */\n  0x00\n    /* \"#utility.yul\":3586:3592   */\n  dup2\n    /* \"#utility.yul\":3580:3593   */\n  mload\n    /* \"#utility.yul\":3571:3593   */\n  swap1\n  pop\n    /* \"#utility.yul\":3602:3635   */\n  tag_98\n    /* \"#utility.yul\":3629:3634   */\n  dup2\n    /* \"#utility.yul\":3602:3635   */\n  tag_43\n  jump\t// in\ntag_98:\n    /* \"#utility.yul\":3498:3641   */\n  swap3\n  swap2\n  pop\n  pop\n  jump\t// out\n    /* \"#utility.yul\":3647:4357   */\ntag_2:\n    /* \"#utility.yul\":3751:3757   */\n  0x00\n    /* \"#utility.yul\":3759:3765   */\n  0x00\n    /* \"#utility.yul\":3808:3810   */\n  0x40\n    /* \"#utility.yul\":3796:3805   */\n  dup4\n    /* \"#utility.yul\":3787:3794   */\n  dup6\n    /* \"#utility.yul\":3783:3806   */\n  sub\n    /* \"#utility.yul\":3779:3811   */\n  slt\n    /* \"#utility.yul\":3776:3895   */\n  iszero\n  tag_100\n  jumpi\n    /* \"#utility.yul\":3814:3893   */\n  tag_101\n  tag_27\n  jump\t// in\ntag_101:\n    /* \"#utility.yul\":3776:3895   */\ntag_100:\n    /* \"#utility.yul\":3955:3956   */\n  0x00\n    /* \"#utility.yul\":3944:3953   */\n  dup4\n    /* \"#utility.yul\":3940:3957   */\n  add\n    /* \"#utility.yul\":3934:3958   */\n  mload\n    /* \"#utility.yul\":3985:4003   */\n  0xffffffffffffffff\n    /* \"#utility.yul\":3977:3983   */\n  dup2\n    /* \"#utility.yul\":3974:4004   */\n  gt\n    /* \"#utility.yul\":3971:4088   */\n  iszero\n  tag_102\n  jumpi\n    /* \"#utility.yul\":4007:4086   */\n  tag_103\n  tag_28\n  jump\t// in\ntag_103:\n    /* \"#utility.yul\":3971:4088   */\ntag_102:\n    /* \"#utility.yul\":4112:4201   */\n  tag_104\n    /* \"#utility.yul\":4193:4200   */\n  dup6\n    /* \"#utility.yul\":4184:4190   */\n  dup3\n    /* \"#utility.yul\":4173:4182   */\n  dup7\n    /* \"#utility.yul\":4169:4191   */\n  add\n    /* \"#utility.yul\":4112:4201   */\n  tag_41\n  jump\t// in\ntag_104:\n    /* \"#utility.yul\":4102:4201   */\n  swap3\n  pop\n    /* \"#utility.yul\":3905:4211   */\n  pop\n    /* \"#utility.yul\":4250:4252   */\n  0x20\n    /* \"#utility.yul\":4276:4340   */\n  tag_105\n    /* \"#utility.yul\":4332:4339   */\n  dup6\n    /* \"#utility.yul\":4323:4329   */\n  dup3\n    /* \"#utility.yul\":4312:4321   */\n  dup7\n    /* \"#utility.yul\":4308:4330   */\n  add\n    /* \"#utility.yul\":4276:4340   */\n  tag_44\n  jump\t// in\ntag_105:\n    /* \"#utility.yul\":4266:4340   */\n  swap2\n  pop\n    /* \"#utility.yul\":4221:4350   */\n  pop\n    /* \"#utility.yul\":3647:4357   */\n  swap3\n  pop\n  swap3\n  swap1\n  pop\n  jump\t// out\n    /* \"#utility.yul\":4363:4532   */\ntag_45:\n    /* \"#utility.yul\":4447:4458   */\n  0x00\n    /* \"#utility.yul\":4481:4487   */\n  dup3\n    /* \"#utility.yul\":4476:4479   */\n  dup3\n    /* \"#utility.yul\":4469:4488   */\n  mstore\n    /* \"#utility.yul\":4521:4525   */\n  0x20\n    /* \"#utility.yul\":4516:4519   */\n  dup3\n    /* \"#utility.yul\":4512:4526   */\n  add\n    /* \"#utility.yul\":4497:4526   */\n  swap1\n  pop\n    /* \"#utility.yul\":4363:4532   */\n  swap3\n  swap2\n  pop\n  pop\n  jump\t// out\n    /* \"#utility.yul\":4538:4703   */\ntag_46:\n    /* \"#utility.yul\":4678:4695   */\n  0x4f776e6572732072657175697265640000000000000000000000000000000000\n    /* \"#utility.yul\":4674:4675   */\n  0x00\n    /* \"#utility.yul\":4666:4672   */\n  dup3\n    /* \"#utility.yul\":4662:4676   */\n  add\n    /* \"#utility.yul\":4655:4696   */\n  mstore\n    /* \"#utility.yul\":4538:4703   */\n  pop\n  jump\t// out\n    /* \"#utility.yul\":4709:5075   */\ntag_47:\n    /* \"#utility.yul\":4851:4854   */\n  0x00\n    /* \"#utility.yul\":4872:4939   */\n  tag_109\n    /* \"#utility.yul\":4936:4938   */\n  0x0f\n    /* \"#utility.yul\":4931:4934   */\n  dup4\n    /* \"#utility.yul\":4872:4939   */\n  tag_45\n  jump\t// in\ntag_109:\n    /* \"#utility.yul\":4865:4939   */\n  swap2\n  pop\n    /* \"#utility.yul\":4948:5041   */\n  tag_110\n    /* \"#utility.yul\":5037:5040   */\n  dup3\n    /* \"#utility.yul\":4948:5041   */\n  tag_46\n  jump\t// in\ntag_110:\n    /* \"#utility.yul\":5066:5068   */\n  0x20\n    /* \"#utility.yul\":5061:5064   */\n  dup3\n    /* \"#utility.yul\":5057:5069   */\n  add\n    /* \"#utility.yul\":5050:5069   */\n  swap1\n  pop\n    /* \"#utility.yul\":4709:5075   */\n  swap2\n  swap1\n  pop\n  jump\t// out\n    /* \"#utility.yul\":5081:5500   */\ntag_7:\n    /* \"#utility.yul\":5247:5251   */\n  0x00\n    /* \"#utility.yul\":5285:5287   */\n  0x20\n    /* \"#utility.yul\":5274:5283   */\n  dup3\n    /* \"#utility.yul\":5270:5288   */\n  add\n    /* \"#utility.yul\":5262:5288   */\n  swap1\n  pop\n    /* \"#utility.yul\":5334:5343   */\n  dup2\n    /* \"#utility.yul\":5328:5332   */\n  dup2\n    /* \"#utility.yul\":5324:5344   */\n  sub\n    /* \"#utility.yul\":5320:5321   */\n  0x00\n    /* \"#utility.yul\":5309:5318   */\n  dup4\n    /* \"#utility.yul\":5305:5322   */\n  add\n    /* \"#utility.yul\":5298:5345   */\n  mstore\n    /* \"#utility.yul\":5362:5493   */\n  tag_112\n    /* \"#utility.yul\":5488:5492   */\n  dup2\n    /* \"#utility.yul\":5362:5493   */\n  tag_47\n  jump\t// in\ntag_112:\n    /* \"#utility.yul\":5354:5493   */\n  swap1\n  pop\n    /* \"#utility.yul\":5081:5500   */\n  swap2\n  swap1\n  pop\n  jump\t// out\n    /* \"#utility.yul\":5506:5685   */\ntag_48:\n    /* \"#utility.yul\":5646:5677   */\n  0x496e76616c696420617070726f76616c20726571756972656d656e7473000000\n    /* \"#utility.yul\":5642:5643   */\n  0x00\n    /* \"#utility.yul\":5634:5640   */\n  dup3\n    /* \"#utility.yul\":5630:5644   */\n  add\n    /* \"#utility.yul\":5623:5678   */\n  mstore\n    /* \"#utility.yul\":5506:5685   */\n  pop\n  jump\t// out\n    /* \"#utility.yul\":5691:6057   */\ntag_49:\n    /* \"#utility.yul\":5833:5836   */\n  0x00\n    /* \"#utility.yul\":5854:5921   */\n  tag_115\n    /* \"#utility.yul\":5918:5920   */\n  0x1d\n    /* \"#utility.yul\":5913:5916   */\n  dup4\n    /* \"#utility.yul\":5854:5921   */\n  tag_45\n  jump\t// in\ntag_115:\n    /* \"#utility.yul\":5847:5921   */\n  swap2\n  pop\n    /* \"#utility.yul\":5930:6023   */\n  tag_116\n    /* \"#utility.yul\":6019:6022   */\n  dup3\n    /* \"#utility.yul\":5930:6023   */\n  tag_48\n  jump\t// in\ntag_116:\n    /* \"#utility.yul\":6048:6050   */\n  0x20\n    /* \"#utility.yul\":6043:6046   */\n  dup3\n    /* \"#utility.yul\":6039:6051   */\n  add\n    /* \"#utility.yul\":6032:6051   */\n  swap1\n  pop\n    /* \"#utility.yul\":5691:6057   */\n  swap2\n  swap1\n  pop\n  jump\t// out\n    /* \"#utility.yul\":6063:6482   */\ntag_11:\n    /* \"#utility.yul\":6229:6233   */\n  0x00\n    /* \"#utility.yul\":6267:6269   */\n  0x20\n    /* \"#utility.yul\":6256:6265   */\n  dup3\n    /* \"#utility.yul\":6252:6270   */\n  add\n    /* \"#utility.yul\":6244:6270   */\n  swap1\n  pop\n    /* \"#utility.yul\":6316:6325   */\n  dup2\n    /* \"#utility.yul\":6310:6314   */\n  dup2\n    /* \"#utility.yul\":6306:6326   */\n  sub\n    /* \"#utility.yul\":6302:6303   */\n  0x00\n    /* \"#utility.yul\":6291:6300   */\n  dup4\n    /* \"#utility.yul\":6287:6304   */\n  add\n    /* \"#utility.yul\":6280:6327   */\n  mstore\n    /* \"#utility.yul\":6344:6475   */\n  tag_118\n    /* \"#utility.yul\":6470:6474   */\n  dup2\n    /* \"#utility.yul\":6344:6475   */\n  tag_49\n  jump\t// in\ntag_118:\n    /* \"#utility.yul\":6336:6475   */\n  swap1\n  pop\n    /* \"#utility.yul\":6063:6482   */\n  swap2\n  swap1\n  pop\n  jump\t// out\n    /* \"#utility.yul\":6488:6668   */\ntag_17:\n    /* \"#utility.yul\":6536:6613   */\n  0x4e487b7100000000000000000000000000000000000000000000000000000000\n    /* \"#utility.yul\":6533:6534   */\n  0x00\n    /* \"#utility.yul\":6526:6614   */\n  mstore\n    /* \"#utility.yul\":6633:6637   */\n  0x32\n    /* \"#utility.yul\":6630:6631   */\n  0x04\n    /* \"#utility.yul\":6623:6638   */\n  mstore\n    /* \"#utility.yul\":6657:6661   */\n  0x24\n    /* \"#utility.yul\":6654:6655   */\n  0x00\n    /* \"#utility.yul\":6647:6662   */\n  revert\n    /* \"#utility.yul\":6674:6837   */\ntag_50:\n    /* \"#utility.yul\":6814:6829   */\n  0x496e76616c6964206f776e657200000000000000000000000000000000000000\n    /* \"#utility.yul\":6810:6811   */\n  0x00\n    /* \"#utility.yul\":6802:6808   */\n  dup3\n    /* \"#utility.yul\":6798:6812   */\n  add\n    /* \"#utility.yul\":6791:6830   */\n  mstore\n    /* \"#utility.yul\":6674:6837   */\n  pop\n  jump\t// out\n    /* \"#utility.yul\":6843:7209   */\ntag_51:\n    /* \"#utility.yul\":6985:6988   */\n  0x00\n    /* \"#utility.yul\":7006:7073   */\n  tag_122\n    /* \"#utility.yul\":7070:7072   */\n  0x0d\n    /* \"#utility.yul\":7065:7068   */\n  dup4\n    /* \"#utility.yul\":7006:7073   */\n  tag_45\n  jump\t// in\ntag_122:\n    /* \"#utility.yul\":6999:7073   */\n  swap2\n  pop\n    /* \"#utility.yul\":7082:7175   */\n  tag_123\n    /* \"#utility.yul\":7171:7174   */\n  dup3\n    /* \"#utility.yul\":7082:7175   */\n  tag_50\n  jump\t// in\ntag_123:\n    /* \"#utility.yul\":7200:7202   */\n  0x20\n    /* \"#utility.yul\":7195:7198   */\n  dup3\n    /* \"#utility.yul\":7191:7203   */\n  add\n    /* \"#utility.yul\":7184:7203   */\n  swap1\n  pop\n    /* \"#utility.yul\":6843:7209   */\n  swap2\n  swap1\n  pop\n  jump\t// out\n    /* \"#utility.yul\":7215:7634   */\ntag_20:\n    /* \"#utility.yul\":7381:7385   */\n  0x00\n    /* \"#utility.yul\":7419:7421   */\n  0x20\n    /* \"#utility.yul\":7408:7417   */\n  dup3\n    /* \"#utility.yul\":7404:7422   */\n  add\n    /* \"#utility.yul\":7396:7422   */\n  swap1\n  pop\n    /* \"#utility.yul\":7468:7477   */\n  dup2\n    /* \"#utility.yul\":7462:7466   */\n  dup2\n    /* \"#utility.yul\":7458:7478   */\n  sub\n    /* \"#utility.yul\":7454:7455   */\n  0x00\n    /* \"#utility.yul\":7443:7452   */\n  dup4\n    /* \"#utility.yul\":7439:7456   */\n  add\n    /* \"#utility.yul\":7432:7479   */\n  mstore\n    /* \"#utility.yul\":7496:7627   */\n  tag_125\n    /* \"#utility.yul\":7622:7626   */\n  dup2\n    /* \"#utility.yul\":7496:7627   */\n  tag_51\n  jump\t// in\ntag_125:\n    /* \"#utility.yul\":7488:7627   */\n  swap1\n  pop\n    /* \"#utility.yul\":7215:7634   */\n  swap2\n  swap1\n  pop\n  jump\t// out\n    /* \"#utility.yul\":7640:7805   */\ntag_52:\n    /* \"#utility.yul\":7780:7797   */\n  0x4475706c6963617465206f776e65720000000000000000000000000000000000\n    /* \"#utility.yul\":7776:7777   */\n  0x00\n    /* \"#utility.yul\":7768:7774   */\n  dup3\n    /* \"#utility.yul\":7764:7778   */\n  add\n    /* \"#utility.yul\":7757:7798   */\n  mstore\n    /* \"#utility.yul\":7640:7805   */\n  pop\n  jump\t// out\n    /* \"#utility.yul\":7811:8177   */\ntag_53:\n    /* \"#utility.yul\":7953:7956   */\n  0x00\n    /* \"#utility.yul\":7974:8041   */\n  tag_128\n    /* \"#utility.yul\":8038:8040   */\n  0x0f\n    /* \"#utility.yul\":8033:8036   */\n  dup4\n    /* \"#utility.yul\":7974:8041   */\n  tag_45\n  jump\t// in\ntag_128:\n    /* \"#utility.yul\":7967:8041   */\n  swap2\n  pop\n    /* \"#utility.yul\":8050:8143   */\n  tag_129\n    /* \"#utility.yul\":8139:8142   */\n  dup3\n    /* \"#utility.yul\":8050:8143   */\n  tag_52\n  jump\t// in\ntag_129:\n    /* \"#utility.yul\":8168:8170   */\n  0x20\n    /* \"#utility.yul\":8163:8166   */\n  dup3\n    /* \"#utility.yul\":8159:8171   */\n  add\n    /* \"#utility.yul\":8152:8171   */\n  swap1\n  pop\n    /* \"#utility.yul\":7811:8177   */\n  swap2\n  swap1\n  pop\n  jump\t// out\n    /* \"#utility.yul\":8183:8602   */\ntag_23:\n    /* \"#utility.yul\":8349:8353   */\n  0x00\n    /* \"#utility.yul\":8387:8389   */\n  0x20\n    /* \"#utility.yul\":8376:8385   */\n  dup3\n    /* \"#utility.yul\":8372:8390   */\n  add\n    /* \"#utility.yul\":8364:8390   */\n  swap1\n  pop\n    /* \"#utility.yul\":8436:8445   */\n  dup2\n    /* \"#utility.yul\":8430:8434   */\n  dup2\n    /* \"#utility.yul\":8426:8446   */\n  sub\n    /* \"#utility.yul\":8422:8423   */\n  0x00\n    /* \"#utility.yul\":8411:8420   */\n  dup4\n    /* \"#utility.yul\":8407:8424   */\n  add\n    /* \"#utility.yul\":8400:8447   */\n  mstore\n    /* \"#utility.yul\":8464:8595   */\n  tag_131\n    /* \"#utility.yul\":8590:8594   */\n  dup2\n    /* \"#utility.yul\":8464:8595   */\n  tag_53\n  jump\t// in\ntag_131:\n    /* \"#utility.yul\":8456:8595   */\n  swap1\n  pop\n    /* \"#utility.yul\":8183:8602   */\n  swap2\n  swap1\n  pop\n  jump\t// out\n    /* \"10_MultiSignature.sol\":61:3574  contract MultiSigWallet {... */\ntag_25:\n  dataSize(sub_0)\n  dup1\n  dataOffset(sub_0)\n  0x00\n  codecopy\n  0x00\n  return\nstop\n\nsub_0: assembly {\n        /* \"10_MultiSignature.sol\":61:3574  contract MultiSigWallet {... */\n      mstore(0x40, 0x80)\n      jumpi(tag_1, lt(calldatasize, 0x04))\n      shr(0xe0, calldataload(0x00))\n      dup1\n      0x3e4445ae\n      gt\n      tag_13\n      jumpi\n      dup1\n      0x3e4445ae\n      eq\n      tag_8\n      jumpi\n      dup1\n      0x8253951a\n      eq\n      tag_9\n      jumpi\n      dup1\n      0x9ace38c2\n      eq\n      tag_10\n      jumpi\n      dup1\n      0xa0e67e2b\n      eq\n      tag_11\n      jumpi\n      dup1\n      0xee22610b\n      eq\n      tag_12\n      jumpi\n      jump(tag_2)\n    tag_13:\n      dup1\n      0x025e7c27\n      eq\n      tag_3\n      jumpi\n      dup1\n      0x242232d1\n      eq\n      tag_4\n      jumpi\n      dup1\n      0x2e7700f0\n      eq\n      tag_5\n      jumpi\n      dup1\n      0x2f54bf6e\n      eq\n      tag_6\n      jumpi\n      dup1\n      0x33ea3dc8\n      eq\n      tag_7\n      jumpi\n      jump(tag_2)\n    tag_1:\n      jumpi(tag_2, calldatasize)\n        /* \"10_MultiSignature.sol\":1926:1936  msg.sender */\n      caller\n        /* \"10_MultiSignature.sol\":1918:1948  Deposit(msg.sender, msg.value) */\n      0xffffffffffffffffffffffffffffffffffffffff\n      and\n      0xe1fffcc4923d04b559f4d29a8bfc6cda04eb5b0d3c460751c2402c5c5cc9109c\n        /* \"10_MultiSignature.sol\":1938:1947  msg.value */\n      callvalue\n        /* \"10_MultiSignature.sol\":1918:1948  Deposit(msg.sender, msg.value) */\n      mload(0x40)\n      tag_16\n      swap2\n      swap1\n      tag_17\n      jump\t// in\n    tag_16:\n      mload(0x40)\n      dup1\n      swap2\n      sub\n      swap1\n      log2\n        /* \"10_MultiSignature.sol\":61:3574  contract MultiSigWallet {... */\n      stop\n    tag_2:\n      revert(0x00, 0x00)\n        /* \"10_MultiSignature.sol\":417:440  address[] public owners */\n    tag_3:\n      callvalue\n      dup1\n      iszero\n      tag_18\n      jumpi\n      revert(0x00, 0x00)\n    tag_18:\n      pop\n      tag_19\n      0x04\n      dup1\n      calldatasize\n      sub\n      dup2\n      add\n      swap1\n      tag_20\n      swap2\n      swap1\n      tag_21\n      jump\t// in\n    tag_20:\n      tag_22\n      jump\t// in\n    tag_19:\n      mload(0x40)\n      tag_23\n      swap2\n      swap1\n      tag_24\n      jump\t// in\n    tag_23:\n      mload(0x40)\n      dup1\n      swap2\n      sub\n      swap1\n      return\n        /* \"10_MultiSignature.sol\":2368:2630  function approveTransaction(uint txId) external onlyOwner notApproved(txId) notExecuted(txId) txExists(txId) {... */\n    tag_4:\n      callvalue\n      dup1\n      iszero\n      tag_25\n      jumpi\n      revert(0x00, 0x00)\n    tag_25:\n      pop\n      tag_26\n      0x04\n      dup1\n      calldatasize\n      sub\n      dup2\n      add\n      swap1\n      tag_27\n      swap2\n      swap1\n      tag_21\n      jump\t// in\n    tag_27:\n      tag_28\n      jump\t// in\n    tag_26:\n      stop\n        /* \"10_MultiSignature.sol\":3177:3282  function getTransactionCount() external view returns (uint) {... */\n    tag_5:\n      callvalue\n      dup1\n      iszero\n      tag_29\n      jumpi\n      revert(0x00, 0x00)\n    tag_29:\n      pop\n      tag_30\n      tag_31\n      jump\t// in\n    tag_30:\n      mload(0x40)\n      tag_32\n      swap2\n      swap1\n      tag_17\n      jump\t// in\n    tag_32:\n      mload(0x40)\n      dup1\n      swap2\n      sub\n      swap1\n      return\n        /* \"10_MultiSignature.sol\":447:486  mapping(address => bool) public isOwner */\n    tag_6:\n      callvalue\n      dup1\n      iszero\n      tag_33\n      jumpi\n      revert(0x00, 0x00)\n    tag_33:\n      pop\n      tag_34\n      0x04\n      dup1\n      calldatasize\n      sub\n      dup2\n      add\n      swap1\n      tag_35\n      swap2\n      swap1\n      tag_36\n      jump\t// in\n    tag_35:\n      tag_37\n      jump\t// in\n    tag_34:\n      mload(0x40)\n      tag_38\n      swap2\n      swap1\n      tag_39\n      jump\t// in\n    tag_38:\n      mload(0x40)\n      dup1\n      swap2\n      sub\n      swap1\n      return\n        /* \"10_MultiSignature.sol\":3290:3571  function getTransaction(uint _txId) external view returns (address to, uint value, bytes memory data, bool executed, uint approvalCount) {... */\n    tag_7:\n      callvalue\n      dup1\n      iszero\n      tag_40\n      jumpi\n      revert(0x00, 0x00)\n    tag_40:\n      pop\n      tag_41\n      0x04\n      dup1\n      calldatasize\n      sub\n      dup2\n      add\n      swap1\n      tag_42\n      swap2\n      swap1\n      tag_21\n      jump\t// in\n    tag_42:\n      tag_43\n      jump\t// in\n    tag_41:\n      mload(0x40)\n      tag_44\n      swap6\n      swap5\n      swap4\n      swap3\n      swap2\n      swap1\n      tag_45\n      jump\t// in\n    tag_44:\n      mload(0x40)\n      dup1\n      swap2\n      sub\n      swap1\n      return\n        /* \"10_MultiSignature.sol\":1964:2360  function transactionSubmit(address _to, uint _value, bytes calldata _data) external onlyOwner{... */\n    tag_8:\n      callvalue\n      dup1\n      iszero\n      tag_46\n      jumpi\n      revert(0x00, 0x00)\n    tag_46:\n      pop\n      tag_47\n      0x04\n      dup1\n      calldatasize\n      sub\n      dup2\n      add\n      swap1\n      tag_48\n      swap2\n      swap1\n      tag_49\n      jump\t// in\n    tag_48:\n      tag_50\n      jump\t// in\n    tag_47:\n      stop\n        /* \"10_MultiSignature.sol\":716:774  mapping (uint => mapping(address => bool)) public approved */\n    tag_9:\n      callvalue\n      dup1\n      iszero\n      tag_51\n      jumpi\n      revert(0x00, 0x00)\n    tag_51:\n      pop\n      tag_52\n      0x04\n      dup1\n      calldatasize\n      sub\n      dup2\n      add\n      swap1\n      tag_53\n      swap2\n      swap1\n      tag_54\n      jump\t// in\n    tag_53:\n      tag_55\n      jump\t// in\n    tag_52:\n      mload(0x40)\n      tag_56\n      swap2\n      swap1\n      tag_39\n      jump\t// in\n    tag_56:\n      mload(0x40)\n      dup1\n      swap2\n      sub\n      swap1\n      return\n        /* \"10_MultiSignature.sol\":676:709  Transaction[] public transactions */\n    tag_10:\n      callvalue\n      dup1\n      iszero\n      tag_57\n      jumpi\n      revert(0x00, 0x00)\n    tag_57:\n      pop\n      tag_58\n      0x04\n      dup1\n      calldatasize\n      sub\n      dup2\n      add\n      swap1\n      tag_59\n      swap2\n      swap1\n      tag_21\n      jump\t// in\n    tag_59:\n      tag_60\n      jump\t// in\n    tag_58:\n      mload(0x40)\n      tag_61\n      swap6\n      swap5\n      swap4\n      swap3\n      swap2\n      swap1\n      tag_45\n      jump\t// in\n    tag_61:\n      mload(0x40)\n      dup1\n      swap2\n      sub\n      swap1\n      return\n        /* \"10_MultiSignature.sol\":3075:3169  function getOwners() external view returns (address[] memory) {... */\n    tag_11:\n      callvalue\n      dup1\n      iszero\n      tag_62\n      jumpi\n      revert(0x00, 0x00)\n    tag_62:\n      pop\n      tag_63\n      tag_64\n      jump\t// in\n    tag_63:\n      mload(0x40)\n      tag_65\n      swap2\n      swap1\n      tag_66\n      jump\t// in\n    tag_65:\n      mload(0x40)\n      dup1\n      swap2\n      sub\n      swap1\n      return\n        /* \"10_MultiSignature.sol\":2638:3067  function executeTransaction(uint txId) external onlyOwner txExists(txId) notExecuted(txId) {... */\n    tag_12:\n      callvalue\n      dup1\n      iszero\n      tag_67\n      jumpi\n      revert(0x00, 0x00)\n    tag_67:\n      pop\n      tag_68\n      0x04\n      dup1\n      calldatasize\n      sub\n      dup2\n      add\n      swap1\n      tag_69\n      swap2\n      swap1\n      tag_21\n      jump\t// in\n    tag_69:\n      tag_70\n      jump\t// in\n    tag_68:\n      stop\n        /* \"10_MultiSignature.sol\":417:440  address[] public owners */\n    tag_22:\n      0x00\n      dup2\n      dup2\n      sload\n      dup2\n      lt\n      tag_71\n      jumpi\n      0x00\n      dup1\n      revert\n    tag_71:\n      swap1\n      0x00\n      mstore\n      keccak256(0x00, 0x20)\n      add\n      0x00\n      swap2\n      pop\n      sload\n      swap1\n      0x0100\n      exp\n      swap1\n      div\n      0xffffffffffffffffffffffffffffffffffffffff\n      and\n      dup2\n      jump\t// out\n        /* \"10_MultiSignature.sol\":2368:2630  function approveTransaction(uint txId) external onlyOwner notApproved(txId) notExecuted(txId) txExists(txId) {... */\n    tag_28:\n        /* \"10_MultiSignature.sol\":821:828  isOwner */\n      0x01\n        /* \"10_MultiSignature.sol\":821:840  isOwner[msg.sender] */\n      0x00\n        /* \"10_MultiSignature.sol\":829:839  msg.sender */\n      caller\n        /* \"10_MultiSignature.sol\":821:840  isOwner[msg.sender] */\n      0xffffffffffffffffffffffffffffffffffffffff\n      and\n      0xffffffffffffffffffffffffffffffffffffffff\n      and\n      dup2\n      mstore\n      0x20\n      add\n      swap1\n      dup2\n      mstore\n      0x20\n      add\n      0x00\n      keccak256\n      0x00\n      swap1\n      sload\n      swap1\n      0x0100\n      exp\n      swap1\n      div\n      0xff\n      and\n        /* \"10_MultiSignature.sol\":813:857  require(isOwner[msg.sender], \"Not an Owner\") */\n      tag_74\n      jumpi\n      mload(0x40)\n      0x08c379a000000000000000000000000000000000000000000000000000000000\n      dup2\n      mstore\n      0x04\n      add\n      tag_75\n      swap1\n      tag_76\n      jump\t// in\n    tag_75:\n      mload(0x40)\n      dup1\n      swap2\n      sub\n      swap1\n      revert\n    tag_74:\n        /* \"10_MultiSignature.sol\":2438:2442  txId */\n      dup1\n        /* \"10_MultiSignature.sol\":1191:1199  approved */\n      0x04\n        /* \"10_MultiSignature.sol\":1191:1203  approved[id] */\n      0x00\n        /* \"10_MultiSignature.sol\":1200:1202  id */\n      dup3\n        /* \"10_MultiSignature.sol\":1191:1203  approved[id] */\n      dup2\n      mstore\n      0x20\n      add\n      swap1\n      dup2\n      mstore\n      0x20\n      add\n      0x00\n      keccak256\n        /* \"10_MultiSignature.sol\":1191:1215  approved[id][msg.sender] */\n      0x00\n        /* \"10_MultiSignature.sol\":1204:1214  msg.sender */\n      caller\n        /* \"10_MultiSignature.sol\":1191:1215  approved[id][msg.sender] */\n      0xffffffffffffffffffffffffffffffffffffffff\n      and\n      0xffffffffffffffffffffffffffffffffffffffff\n      and\n      dup2\n      mstore\n      0x20\n      add\n      swap1\n      dup2\n      mstore\n      0x20\n      add\n      0x00\n      keccak256\n      0x00\n      swap1\n      sload\n      swap1\n      0x0100\n      exp\n      swap1\n      div\n      0xff\n      and\n        /* \"10_MultiSignature.sol\":1190:1215  !approved[id][msg.sender] */\n      iszero\n        /* \"10_MultiSignature.sol\":1182:1244  require(!approved[id][msg.sender], \"Transaction not approved\") */\n      tag_78\n      jumpi\n      mload(0x40)\n      0x08c379a000000000000000000000000000000000000000000000000000000000\n      dup2\n      mstore\n      0x04\n      add\n      tag_79\n      swap1\n      tag_80\n      jump\t// in\n    tag_79:\n      mload(0x40)\n      dup1\n      swap2\n      sub\n      swap1\n      revert\n    tag_78:\n        /* \"10_MultiSignature.sol\":2456:2460  txId */\n      dup2\n        /* \"10_MultiSignature.sol\":1059:1071  transactions */\n      0x03\n        /* \"10_MultiSignature.sol\":1072:1074  id */\n      dup2\n        /* \"10_MultiSignature.sol\":1059:1075  transactions[id] */\n      dup2\n      sload\n      dup2\n      lt\n      tag_82\n      jumpi\n      tag_83\n      tag_84\n      jump\t// in\n    tag_83:\n    tag_82:\n      swap1\n      0x00\n      mstore\n      keccak256(0x00, 0x20)\n      swap1\n      0x05\n      mul\n      add\n        /* \"10_MultiSignature.sol\":1059:1084  transactions[id].executed */\n      0x03\n      add\n      0x00\n      swap1\n      sload\n      swap1\n      0x0100\n      exp\n      swap1\n      div\n      0xff\n      and\n        /* \"10_MultiSignature.sol\":1058:1084  !transactions[id].executed */\n      iszero\n        /* \"10_MultiSignature.sol\":1050:1113  require(!transactions[id].executed, \"Transaction not executed\") */\n      tag_86\n      jumpi\n      mload(0x40)\n      0x08c379a000000000000000000000000000000000000000000000000000000000\n      dup2\n      mstore\n      0x04\n      add\n      tag_87\n      swap1\n      tag_88\n      jump\t// in\n    tag_87:\n      mload(0x40)\n      dup1\n      swap2\n      sub\n      swap1\n      revert\n    tag_86:\n        /* \"10_MultiSignature.sol\":2471:2475  txId */\n      dup3\n        /* \"10_MultiSignature.sol\":936:948  transactions */\n      0x03\n        /* \"10_MultiSignature.sol\":936:955  transactions.length */\n      dup1\n      sload\n      swap1\n      pop\n        /* \"10_MultiSignature.sol\":931:933  id */\n      dup2\n        /* \"10_MultiSignature.sol\":931:955  id < transactions.length */\n      lt\n        /* \"10_MultiSignature.sol\":923:982  require(id < transactions.length, \"Transaction not exists\") */\n      tag_90\n      jumpi\n      mload(0x40)\n      0x08c379a000000000000000000000000000000000000000000000000000000000\n      dup2\n      mstore\n      0x04\n      add\n      tag_91\n      swap1\n      tag_92\n      jump\t// in\n    tag_91:\n      mload(0x40)\n      dup1\n      swap2\n      sub\n      swap1\n      revert\n    tag_90:\n        /* \"10_MultiSignature.sol\":2517:2521  true */\n      0x01\n        /* \"10_MultiSignature.sol\":2488:2496  approved */\n      0x04\n        /* \"10_MultiSignature.sol\":2488:2502  approved[txId] */\n      0x00\n        /* \"10_MultiSignature.sol\":2497:2501  txId */\n      dup7\n        /* \"10_MultiSignature.sol\":2488:2502  approved[txId] */\n      dup2\n      mstore\n      0x20\n      add\n      swap1\n      dup2\n      mstore\n      0x20\n      add\n      0x00\n      keccak256\n        /* \"10_MultiSignature.sol\":2488:2514  approved[txId][msg.sender] */\n      0x00\n        /* \"10_MultiSignature.sol\":2503:2513  msg.sender */\n      caller\n        /* \"10_MultiSignature.sol\":2488:2514  approved[txId][msg.sender] */\n      0xffffffffffffffffffffffffffffffffffffffff\n      and\n      0xffffffffffffffffffffffffffffffffffffffff\n      and\n      dup2\n      mstore\n      0x20\n      add\n      swap1\n      dup2\n      mstore\n      0x20\n      add\n      0x00\n      keccak256\n      0x00\n        /* \"10_MultiSignature.sol\":2488:2521  approved[txId][msg.sender] = true */\n      0x0100\n      exp\n      dup2\n      sload\n      dup2\n      0xff\n      mul\n      not\n      and\n      swap1\n      dup4\n      iszero\n      iszero\n      mul\n      or\n      swap1\n      sstore\n      pop\n        /* \"10_MultiSignature.sol\":2568:2569  1 */\n      0x01\n        /* \"10_MultiSignature.sol\":2532:2544  transactions */\n      0x03\n        /* \"10_MultiSignature.sol\":2545:2549  txId */\n      dup6\n        /* \"10_MultiSignature.sol\":2532:2550  transactions[txId] */\n      dup2\n      sload\n      dup2\n      lt\n      tag_94\n      jumpi\n      tag_95\n      tag_84\n      jump\t// in\n    tag_95:\n    tag_94:\n      swap1\n      0x00\n      mstore\n      keccak256(0x00, 0x20)\n      swap1\n      0x05\n      mul\n      add\n        /* \"10_MultiSignature.sol\":2532:2564  transactions[txId].approvalCount */\n      0x04\n      add\n      0x00\n        /* \"10_MultiSignature.sol\":2532:2569  transactions[txId].approvalCount += 1 */\n      dup3\n      dup3\n      sload\n      tag_97\n      swap2\n      swap1\n      tag_98\n      jump\t// in\n    tag_97:\n      swap3\n      pop\n      pop\n      dup2\n      swap1\n      sstore\n      pop\n        /* \"10_MultiSignature.sol\":2617:2621  txId */\n      dup4\n        /* \"10_MultiSignature.sol\":2605:2615  msg.sender */\n      caller\n        /* \"10_MultiSignature.sol\":2585:2622  TransactionApproved(msg.sender, txId) */\n      0xffffffffffffffffffffffffffffffffffffffff\n      and\n      0x7b19c08b12f940ea76949b68d355070966056a862ad2c1aa6676ecbcc9538a61\n      mload(0x40)\n      mload(0x40)\n      dup1\n      swap2\n      sub\n      swap1\n      log3\n        /* \"10_MultiSignature.sol\":1124:1125  _ */\n      pop\n        /* \"10_MultiSignature.sol\":1255:1256  _ */\n      pop\n        /* \"10_MultiSignature.sol\":868:869  _ */\n      pop\n        /* \"10_MultiSignature.sol\":2368:2630  function approveTransaction(uint txId) external onlyOwner notApproved(txId) notExecuted(txId) txExists(txId) {... */\n      pop\n      jump\t// out\n        /* \"10_MultiSignature.sol\":3177:3282  function getTransactionCount() external view returns (uint) {... */\n    tag_31:\n        /* \"10_MultiSignature.sol\":3231:3235  uint */\n      0x00\n        /* \"10_MultiSignature.sol\":3255:3267  transactions */\n      0x03\n        /* \"10_MultiSignature.sol\":3255:3274  transactions.length */\n      dup1\n      sload\n      swap1\n      pop\n        /* \"10_MultiSignature.sol\":3248:3274  return transactions.length */\n      swap1\n      pop\n        /* \"10_MultiSignature.sol\":3177:3282  function getTransactionCount() external view returns (uint) {... */\n      swap1\n      jump\t// out\n        /* \"10_MultiSignature.sol\":447:486  mapping(address => bool) public isOwner */\n    tag_37:\n      mstore(0x20, 0x01)\n      dup1\n      0x00\n      mstore\n      keccak256(0x00, 0x40)\n      0x00\n      swap2\n      pop\n      sload\n      swap1\n      0x0100\n      exp\n      swap1\n      div\n      0xff\n      and\n      dup2\n      jump\t// out\n        /* \"10_MultiSignature.sol\":3290:3571  function getTransaction(uint _txId) external view returns (address to, uint value, bytes memory data, bool executed, uint approvalCount) {... */\n    tag_43:\n        /* \"10_MultiSignature.sol\":3349:3359  address to */\n      0x00\n        /* \"10_MultiSignature.sol\":3361:3371  uint value */\n      0x00\n        /* \"10_MultiSignature.sol\":3373:3390  bytes memory data */\n      0x60\n        /* \"10_MultiSignature.sol\":3392:3405  bool executed */\n      0x00\n        /* \"10_MultiSignature.sol\":3407:3425  uint approvalCount */\n      0x00\n        /* \"10_MultiSignature.sol\":3438:3461  Transaction storage txn */\n      0x00\n        /* \"10_MultiSignature.sol\":3464:3476  transactions */\n      0x03\n        /* \"10_MultiSignature.sol\":3477:3482  _txId */\n      dup8\n        /* \"10_MultiSignature.sol\":3464:3483  transactions[_txId] */\n      dup2\n      sload\n      dup2\n      lt\n      tag_101\n      jumpi\n      tag_102\n      tag_84\n      jump\t// in\n    tag_102:\n    tag_101:\n      swap1\n      0x00\n      mstore\n      keccak256(0x00, 0x20)\n      swap1\n      0x05\n      mul\n      add\n        /* \"10_MultiSignature.sol\":3438:3483  Transaction storage txn = transactions[_txId] */\n      swap1\n      pop\n        /* \"10_MultiSignature.sol\":3502:3505  txn */\n      dup1\n        /* \"10_MultiSignature.sol\":3502:3508  txn.to */\n      0x00\n      add\n      0x00\n      swap1\n      sload\n      swap1\n      0x0100\n      exp\n      swap1\n      div\n      0xffffffffffffffffffffffffffffffffffffffff\n      and\n        /* \"10_MultiSignature.sol\":3510:3513  txn */\n      dup2\n        /* \"10_MultiSignature.sol\":3510:3519  txn.value */\n      0x01\n      add\n      sload\n        /* \"10_MultiSignature.sol\":3521:3524  txn */\n      dup3\n        /* \"10_MultiSignature.sol\":3521:3529  txn.data */\n      0x02\n      add\n        /* \"10_MultiSignature.sol\":3531:3534  txn */\n      dup4\n        /* \"10_MultiSignature.sol\":3531:3543  txn.executed */\n      0x03\n      add\n      0x00\n      swap1\n      sload\n      swap1\n      0x0100\n      exp\n      swap1\n      div\n      0xff\n      and\n        /* \"10_MultiSignature.sol\":3545:3548  txn */\n      dup5\n        /* \"10_MultiSignature.sol\":3545:3562  txn.approvalCount */\n      0x04\n      add\n      sload\n        /* \"10_MultiSignature.sol\":3494:3563  return (txn.to, txn.value, txn.data, txn.executed, txn.approvalCount) */\n      dup3\n      dup1\n      sload\n      tag_104\n      swap1\n      tag_105\n      jump\t// in\n    tag_104:\n      dup1\n      0x1f\n      add\n      0x20\n      dup1\n      swap2\n      div\n      mul\n      0x20\n      add\n      mload(0x40)\n      swap1\n      dup2\n      add\n      0x40\n      mstore\n      dup1\n      swap3\n      swap2\n      swap1\n      dup2\n      dup2\n      mstore\n      0x20\n      add\n      dup3\n      dup1\n      sload\n      tag_106\n      swap1\n      tag_105\n      jump\t// in\n    tag_106:\n      dup1\n      iszero\n      tag_107\n      jumpi\n      dup1\n      0x1f\n      lt\n      tag_108\n      jumpi\n      0x0100\n      dup1\n      dup4\n      sload\n      div\n      mul\n      dup4\n      mstore\n      swap2\n      0x20\n      add\n      swap2\n      jump(tag_107)\n    tag_108:\n      dup3\n      add\n      swap2\n      swap1\n      0x00\n      mstore\n      keccak256(0x00, 0x20)\n      swap1\n    tag_109:\n      dup2\n      sload\n      dup2\n      mstore\n      swap1\n      0x01\n      add\n      swap1\n      0x20\n      add\n      dup1\n      dup4\n      gt\n      tag_109\n      jumpi\n      dup3\n      swap1\n      sub\n      0x1f\n      and\n      dup3\n      add\n      swap2\n    tag_107:\n      pop\n      pop\n      pop\n      pop\n      pop\n      swap3\n      pop\n      swap6\n      pop\n      swap6\n      pop\n      swap6\n      pop\n      swap6\n      pop\n      swap6\n      pop\n      pop\n        /* \"10_MultiSignature.sol\":3290:3571  function getTransaction(uint _txId) external view returns (address to, uint value, bytes memory data, bool executed, uint approvalCount) {... */\n      swap2\n      swap4\n      swap6\n      swap1\n      swap3\n      swap5\n      pop\n      jump\t// out\n        /* \"10_MultiSignature.sol\":1964:2360  function transactionSubmit(address _to, uint _value, bytes calldata _data) external onlyOwner{... */\n    tag_50:\n        /* \"10_MultiSignature.sol\":821:828  isOwner */\n      0x01\n        /* \"10_MultiSignature.sol\":821:840  isOwner[msg.sender] */\n      0x00\n        /* \"10_MultiSignature.sol\":829:839  msg.sender */\n      caller\n        /* \"10_MultiSignature.sol\":821:840  isOwner[msg.sender] */\n      0xffffffffffffffffffffffffffffffffffffffff\n      and\n      0xffffffffffffffffffffffffffffffffffffffff\n      and\n      dup2\n      mstore\n      0x20\n      add\n      swap1\n      dup2\n      mstore\n      0x20\n      add\n      0x00\n      keccak256\n      0x00\n      swap1\n      sload\n      swap1\n      0x0100\n      exp\n      swap1\n      div\n      0xff\n      and\n        /* \"10_MultiSignature.sol\":813:857  require(isOwner[msg.sender], \"Not an Owner\") */\n      tag_111\n      jumpi\n      mload(0x40)\n      0x08c379a000000000000000000000000000000000000000000000000000000000\n      dup2\n      mstore\n      0x04\n      add\n      tag_112\n      swap1\n      tag_76\n      jump\t// in\n    tag_112:\n      mload(0x40)\n      dup1\n      swap2\n      sub\n      swap1\n      revert\n    tag_111:\n        /* \"10_MultiSignature.sol\":2068:2077  uint txId */\n      0x00\n        /* \"10_MultiSignature.sol\":2080:2092  transactions */\n      0x03\n        /* \"10_MultiSignature.sol\":2080:2099  transactions.length */\n      dup1\n      sload\n      swap1\n      pop\n        /* \"10_MultiSignature.sol\":2068:2099  uint txId = transactions.length */\n      swap1\n      pop\n        /* \"10_MultiSignature.sol\":2110:2122  transactions */\n      0x03\n        /* \"10_MultiSignature.sol\":2128:2289  Transaction({... */\n      mload(0x40)\n      dup1\n      0xa0\n      add\n      0x40\n      mstore\n      dup1\n        /* \"10_MultiSignature.sol\":2159:2162  _to */\n      dup8\n        /* \"10_MultiSignature.sol\":2128:2289  Transaction({... */\n      0xffffffffffffffffffffffffffffffffffffffff\n      and\n      dup2\n      mstore\n      0x20\n      add\n        /* \"10_MultiSignature.sol\":2184:2190  _value */\n      dup7\n        /* \"10_MultiSignature.sol\":2128:2289  Transaction({... */\n      dup2\n      mstore\n      0x20\n      add\n        /* \"10_MultiSignature.sol\":2211:2216  _data */\n      dup6\n      dup6\n        /* \"10_MultiSignature.sol\":2128:2289  Transaction({... */\n      dup1\n      dup1\n      0x1f\n      add\n      0x20\n      dup1\n      swap2\n      div\n      mul\n      0x20\n      add\n      mload(0x40)\n      swap1\n      dup2\n      add\n      0x40\n      mstore\n      dup1\n      swap4\n      swap3\n      swap2\n      swap1\n      dup2\n      dup2\n      mstore\n      0x20\n      add\n      dup4\n      dup4\n      dup1\n      dup3\n      dup5\n      calldatacopy\n      0x00\n      dup2\n      dup5\n      add\n      mstore\n      not(0x1f)\n      0x1f\n      dup3\n      add\n      and\n      swap1\n      pop\n      dup1\n      dup4\n      add\n      swap3\n      pop\n      pop\n      pop\n      pop\n      pop\n      pop\n      pop\n      dup2\n      mstore\n      0x20\n      add\n        /* \"10_MultiSignature.sol\":2241:2246  false */\n      0x00\n        /* \"10_MultiSignature.sol\":2128:2289  Transaction({... */\n      iszero\n      iszero\n      dup2\n      mstore\n      0x20\n      add\n        /* \"10_MultiSignature.sol\":2276:2277  0 */\n      0x00\n        /* \"10_MultiSignature.sol\":2128:2289  Transaction({... */\n      dup2\n      mstore\n      pop\n        /* \"10_MultiSignature.sol\":2110:2290  transactions.push(Transaction({... */\n      swap1\n      dup1\n      0x01\n      dup2\n      sload\n      add\n      dup1\n      dup3\n      sstore\n      dup1\n      swap2\n      pop\n      pop\n      0x01\n      swap1\n      sub\n      swap1\n      0x00\n      mstore\n      keccak256(0x00, 0x20)\n      swap1\n      0x05\n      mul\n      add\n      0x00\n      swap1\n      swap2\n      swap1\n      swap2\n      swap1\n      swap2\n      pop\n      0x00\n      dup3\n      add\n      mload\n      dup2\n      0x00\n      add\n      exp(0x0100, 0x00)\n      dup2\n      sload\n      dup2\n      0xffffffffffffffffffffffffffffffffffffffff\n      mul\n      not\n      and\n      swap1\n      dup4\n      0xffffffffffffffffffffffffffffffffffffffff\n      and\n      mul\n      or\n      swap1\n      sstore\n      pop\n      0x20\n      dup3\n      add\n      mload\n      dup2\n      0x01\n      add\n      sstore\n      0x40\n      dup3\n      add\n      mload\n      dup2\n      0x02\n      add\n      swap1\n      dup2\n      tag_115\n      swap2\n      swap1\n      tag_116\n      jump\t// in\n    tag_115:\n      pop\n      0x60\n      dup3\n      add\n      mload\n      dup2\n      0x03\n      add\n      exp(0x0100, 0x00)\n      dup2\n      sload\n      dup2\n      0xff\n      mul\n      not\n      and\n      swap1\n      dup4\n      iszero\n      iszero\n      mul\n      or\n      swap1\n      sstore\n      pop\n      0x80\n      dup3\n      add\n      mload\n      dup2\n      0x04\n      add\n      sstore\n      pop\n      pop\n        /* \"10_MultiSignature.sol\":2333:2336  _to */\n      dup5\n        /* \"10_MultiSignature.sol\":2306:2352  TransactionSubmitted(txId, _to, _value, _data) */\n      0xffffffffffffffffffffffffffffffffffffffff\n      and\n        /* \"10_MultiSignature.sol\":2327:2331  txId */\n      dup2\n        /* \"10_MultiSignature.sol\":2306:2352  TransactionSubmitted(txId, _to, _value, _data) */\n      0x3f6db45da5513bd4fe9f8a31e60ea668bdd4bca57e30a85a9a26f90c9fbcb56c\n        /* \"10_MultiSignature.sol\":2338:2344  _value */\n      dup7\n        /* \"10_MultiSignature.sol\":2346:2351  _data */\n      dup7\n      dup7\n        /* \"10_MultiSignature.sol\":2306:2352  TransactionSubmitted(txId, _to, _value, _data) */\n      mload(0x40)\n      tag_117\n      swap4\n      swap3\n      swap2\n      swap1\n      tag_118\n      jump\t// in\n    tag_117:\n      mload(0x40)\n      dup1\n      swap2\n      sub\n      swap1\n      log3\n        /* \"10_MultiSignature.sol\":2057:2360  {... */\n      pop\n        /* \"10_MultiSignature.sol\":1964:2360  function transactionSubmit(address _to, uint _value, bytes calldata _data) external onlyOwner{... */\n      pop\n      pop\n      pop\n      pop\n      jump\t// out\n        /* \"10_MultiSignature.sol\":716:774  mapping (uint => mapping(address => bool)) public approved */\n    tag_55:\n      mstore(0x20, 0x04)\n      dup2\n      0x00\n      mstore\n      mstore(0x20, keccak256(0x00, 0x40))\n      dup1\n      0x00\n      mstore\n      keccak256(0x00, 0x40)\n      0x00\n      swap2\n      pop\n      swap2\n      pop\n      swap1\n      sload\n      swap1\n      0x0100\n      exp\n      swap1\n      div\n      0xff\n      and\n      dup2\n      jump\t// out\n        /* \"10_MultiSignature.sol\":676:709  Transaction[] public transactions */\n    tag_60:\n      0x03\n      dup2\n      dup2\n      sload\n      dup2\n      lt\n      tag_119\n      jumpi\n      0x00\n      dup1\n      revert\n    tag_119:\n      swap1\n      0x00\n      mstore\n      keccak256(0x00, 0x20)\n      swap1\n      0x05\n      mul\n      add\n      0x00\n      swap2\n      pop\n      swap1\n      pop\n      dup1\n      0x00\n      add\n      0x00\n      swap1\n      sload\n      swap1\n      0x0100\n      exp\n      swap1\n      div\n      0xffffffffffffffffffffffffffffffffffffffff\n      and\n      swap1\n      dup1\n      0x01\n      add\n      sload\n      swap1\n      dup1\n      0x02\n      add\n      dup1\n      sload\n      tag_121\n      swap1\n      tag_105\n      jump\t// in\n    tag_121:\n      dup1\n      0x1f\n      add\n      0x20\n      dup1\n      swap2\n      div\n      mul\n      0x20\n      add\n      mload(0x40)\n      swap1\n      dup2\n      add\n      0x40\n      mstore\n      dup1\n      swap3\n      swap2\n      swap1\n      dup2\n      dup2\n      mstore\n      0x20\n      add\n      dup3\n      dup1\n      sload\n      tag_122\n      swap1\n      tag_105\n      jump\t// in\n    tag_122:\n      dup1\n      iszero\n      tag_123\n      jumpi\n      dup1\n      0x1f\n      lt\n      tag_124\n      jumpi\n      0x0100\n      dup1\n      dup4\n      sload\n      div\n      mul\n      dup4\n      mstore\n      swap2\n      0x20\n      add\n      swap2\n      jump(tag_123)\n    tag_124:\n      dup3\n      add\n      swap2\n      swap1\n      0x00\n      mstore\n      keccak256(0x00, 0x20)\n      swap1\n    tag_125:\n      dup2\n      sload\n      dup2\n      mstore\n      swap1\n      0x01\n      add\n      swap1\n      0x20\n      add\n      dup1\n      dup4\n      gt\n      tag_125\n      jumpi\n      dup3\n      swap1\n      sub\n      0x1f\n      and\n      dup3\n      add\n      swap2\n    tag_123:\n      pop\n      pop\n      pop\n      pop\n      pop\n      swap1\n      dup1\n      0x03\n      add\n      0x00\n      swap1\n      sload\n      swap1\n      0x0100\n      exp\n      swap1\n      div\n      0xff\n      and\n      swap1\n      dup1\n      0x04\n      add\n      sload\n      swap1\n      pop\n      dup6\n      jump\t// out\n        /* \"10_MultiSignature.sol\":3075:3169  function getOwners() external view returns (address[] memory) {... */\n    tag_64:\n        /* \"10_MultiSignature.sol\":3119:3135  address[] memory */\n      0x60\n        /* \"10_MultiSignature.sol\":3155:3161  owners */\n      0x00\n        /* \"10_MultiSignature.sol\":3148:3161  return owners */\n      dup1\n      sload\n      dup1\n      0x20\n      mul\n      0x20\n      add\n      mload(0x40)\n      swap1\n      dup2\n      add\n      0x40\n      mstore\n      dup1\n      swap3\n      swap2\n      swap1\n      dup2\n      dup2\n      mstore\n      0x20\n      add\n      dup3\n      dup1\n      sload\n      dup1\n      iszero\n      tag_127\n      jumpi\n      0x20\n      mul\n      dup3\n      add\n      swap2\n      swap1\n      0x00\n      mstore\n      keccak256(0x00, 0x20)\n      swap1\n    tag_128:\n      dup2\n      0x00\n      swap1\n      sload\n      swap1\n      0x0100\n      exp\n      swap1\n      div\n      0xffffffffffffffffffffffffffffffffffffffff\n      and\n      0xffffffffffffffffffffffffffffffffffffffff\n      and\n      dup2\n      mstore\n      0x20\n      add\n      swap1\n      0x01\n      add\n      swap1\n      dup1\n      dup4\n      gt\n      tag_128\n      jumpi\n    tag_127:\n      pop\n      pop\n      pop\n      pop\n      pop\n      swap1\n      pop\n        /* \"10_MultiSignature.sol\":3075:3169  function getOwners() external view returns (address[] memory) {... */\n      swap1\n      jump\t// out\n        /* \"10_MultiSignature.sol\":2638:3067  function executeTransaction(uint txId) external onlyOwner txExists(txId) notExecuted(txId) {... */\n    tag_70:\n        /* \"10_MultiSignature.sol\":821:828  isOwner */\n      0x01\n        /* \"10_MultiSignature.sol\":821:840  isOwner[msg.sender] */\n      0x00\n        /* \"10_MultiSignature.sol\":829:839  msg.sender */\n      caller\n        /* \"10_MultiSignature.sol\":821:840  isOwner[msg.sender] */\n      0xffffffffffffffffffffffffffffffffffffffff\n      and\n      0xffffffffffffffffffffffffffffffffffffffff\n      and\n      dup2\n      mstore\n      0x20\n      add\n      swap1\n      dup2\n      mstore\n      0x20\n      add\n      0x00\n      keccak256\n      0x00\n      swap1\n      sload\n      swap1\n      0x0100\n      exp\n      swap1\n      div\n      0xff\n      and\n        /* \"10_MultiSignature.sol\":813:857  require(isOwner[msg.sender], \"Not an Owner\") */\n      tag_130\n      jumpi\n      mload(0x40)\n      0x08c379a000000000000000000000000000000000000000000000000000000000\n      dup2\n      mstore\n      0x04\n      add\n      tag_131\n      swap1\n      tag_76\n      jump\t// in\n    tag_131:\n      mload(0x40)\n      dup1\n      swap2\n      sub\n      swap1\n      revert\n    tag_130:\n        /* \"10_MultiSignature.sol\":2705:2709  txId */\n      dup1\n        /* \"10_MultiSignature.sol\":936:948  transactions */\n      0x03\n        /* \"10_MultiSignature.sol\":936:955  transactions.length */\n      dup1\n      sload\n      swap1\n      pop\n        /* \"10_MultiSignature.sol\":931:933  id */\n      dup2\n        /* \"10_MultiSignature.sol\":931:955  id < transactions.length */\n      lt\n        /* \"10_MultiSignature.sol\":923:982  require(id < transactions.length, \"Transaction not exists\") */\n      tag_133\n      jumpi\n      mload(0x40)\n      0x08c379a000000000000000000000000000000000000000000000000000000000\n      dup2\n      mstore\n      0x04\n      add\n      tag_134\n      swap1\n      tag_92\n      jump\t// in\n    tag_134:\n      mload(0x40)\n      dup1\n      swap2\n      sub\n      swap1\n      revert\n    tag_133:\n        /* \"10_MultiSignature.sol\":2723:2727  txId */\n      dup2\n        /* \"10_MultiSignature.sol\":1059:1071  transactions */\n      0x03\n        /* \"10_MultiSignature.sol\":1072:1074  id */\n      dup2\n        /* \"10_MultiSignature.sol\":1059:1075  transactions[id] */\n      dup2\n      sload\n      dup2\n      lt\n      tag_136\n      jumpi\n      tag_137\n      tag_84\n      jump\t// in\n    tag_137:\n    tag_136:\n      swap1\n      0x00\n      mstore\n      keccak256(0x00, 0x20)\n      swap1\n      0x05\n      mul\n      add\n        /* \"10_MultiSignature.sol\":1059:1084  transactions[id].executed */\n      0x03\n      add\n      0x00\n      swap1\n      sload\n      swap1\n      0x0100\n      exp\n      swap1\n      div\n      0xff\n      and\n        /* \"10_MultiSignature.sol\":1058:1084  !transactions[id].executed */\n      iszero\n        /* \"10_MultiSignature.sol\":1050:1113  require(!transactions[id].executed, \"Transaction not executed\") */\n      tag_139\n      jumpi\n      mload(0x40)\n      0x08c379a000000000000000000000000000000000000000000000000000000000\n      dup2\n      mstore\n      0x04\n      add\n      tag_140\n      swap1\n      tag_88\n      jump\t// in\n    tag_140:\n      mload(0x40)\n      dup1\n      swap2\n      sub\n      swap1\n      revert\n    tag_139:\n        /* \"10_MultiSignature.sol\":2740:2763  Transaction storage txn */\n      0x00\n        /* \"10_MultiSignature.sol\":2766:2778  transactions */\n      0x03\n        /* \"10_MultiSignature.sol\":2779:2783  txId */\n      dup5\n        /* \"10_MultiSignature.sol\":2766:2784  transactions[txId] */\n      dup2\n      sload\n      dup2\n      lt\n      tag_142\n      jumpi\n      tag_143\n      tag_84\n      jump\t// in\n    tag_143:\n    tag_142:\n      swap1\n      0x00\n      mstore\n      keccak256(0x00, 0x20)\n      swap1\n      0x05\n      mul\n      add\n        /* \"10_MultiSignature.sol\":2740:2784  Transaction storage txn = transactions[txId] */\n      swap1\n      pop\n        /* \"10_MultiSignature.sol\":2824:2842  requestedApprovals */\n      sload(0x02)\n        /* \"10_MultiSignature.sol\":2803:2806  txn */\n      dup2\n        /* \"10_MultiSignature.sol\":2803:2820  txn.approvalCount */\n      0x04\n      add\n      sload\n        /* \"10_MultiSignature.sol\":2803:2842  txn.approvalCount >= requestedApprovals */\n      lt\n      iszero\n        /* \"10_MultiSignature.sol\":2795:2869  require(txn.approvalCount >= requestedApprovals, \"Insufficient Approvals\") */\n      tag_145\n      jumpi\n      mload(0x40)\n      0x08c379a000000000000000000000000000000000000000000000000000000000\n      dup2\n      mstore\n      0x04\n      add\n      tag_146\n      swap1\n      tag_147\n      jump\t// in\n    tag_146:\n      mload(0x40)\n      dup1\n      swap2\n      sub\n      swap1\n      revert\n    tag_145:\n        /* \"10_MultiSignature.sol\":2895:2899  true */\n      0x01\n        /* \"10_MultiSignature.sol\":2880:2883  txn */\n      dup2\n        /* \"10_MultiSignature.sol\":2880:2892  txn.executed */\n      0x03\n      add\n      0x00\n        /* \"10_MultiSignature.sol\":2880:2899  txn.executed = true */\n      0x0100\n      exp\n      dup2\n      sload\n      dup2\n      0xff\n      mul\n      not\n      and\n      swap1\n      dup4\n      iszero\n      iszero\n      mul\n      or\n      swap1\n      sstore\n      pop\n        /* \"10_MultiSignature.sol\":2911:2923  bool success */\n      0x00\n        /* \"10_MultiSignature.sol\":2928:2931  txn */\n      dup2\n        /* \"10_MultiSignature.sol\":2928:2934  txn.to */\n      0x00\n      add\n      0x00\n      swap1\n      sload\n      swap1\n      0x0100\n      exp\n      swap1\n      div\n      0xffffffffffffffffffffffffffffffffffffffff\n      and\n        /* \"10_MultiSignature.sol\":2928:2939  txn.to.call */\n      0xffffffffffffffffffffffffffffffffffffffff\n      and\n        /* \"10_MultiSignature.sol\":2947:2950  txn */\n      dup3\n        /* \"10_MultiSignature.sol\":2947:2956  txn.value */\n      0x01\n      add\n      sload\n        /* \"10_MultiSignature.sol\":2958:2961  txn */\n      dup4\n        /* \"10_MultiSignature.sol\":2958:2966  txn.data */\n      0x02\n      add\n        /* \"10_MultiSignature.sol\":2928:2967  txn.to.call{value: txn.value}(txn.data) */\n      mload(0x40)\n      tag_148\n      swap2\n      swap1\n      tag_149\n      jump\t// in\n    tag_148:\n      0x00\n      mload(0x40)\n      dup1\n      dup4\n      sub\n      dup2\n      dup6\n      dup8\n      gas\n      call\n      swap3\n      pop\n      pop\n      pop\n      returndatasize\n      dup1\n      0x00\n      dup2\n      eq\n      tag_152\n      jumpi\n      mload(0x40)\n      swap2\n      pop\n      and(add(returndatasize, 0x3f), not(0x1f))\n      dup3\n      add\n      0x40\n      mstore\n      returndatasize\n      dup3\n      mstore\n      returndatasize\n      0x00\n      0x20\n      dup5\n      add\n      returndatacopy\n      jump(tag_151)\n    tag_152:\n      0x60\n      swap2\n      pop\n    tag_151:\n      pop\n        /* \"10_MultiSignature.sol\":2910:2967  (bool success,) = txn.to.call{value: txn.value}(txn.data) */\n      pop\n      swap1\n      pop\n        /* \"10_MultiSignature.sol\":2986:2993  success */\n      dup1\n        /* \"10_MultiSignature.sol\":2978:3016  require(success, \"Transaction failed\") */\n      tag_153\n      jumpi\n      mload(0x40)\n      0x08c379a000000000000000000000000000000000000000000000000000000000\n      dup2\n      mstore\n      0x04\n      add\n      tag_154\n      swap1\n      tag_155\n      jump\t// in\n    tag_154:\n      mload(0x40)\n      dup1\n      swap2\n      sub\n      swap1\n      revert\n    tag_153:\n        /* \"10_MultiSignature.sol\":3054:3058  txId */\n      dup5\n        /* \"10_MultiSignature.sol\":3034:3059  TransactionExecuted(txId) */\n      0x15ed165a284872ea7017f03df402a0cadfbfab588320ffaf83f160c2f82781c7\n      mload(0x40)\n      mload(0x40)\n      dup1\n      swap2\n      sub\n      swap1\n      log2\n        /* \"10_MultiSignature.sol\":2729:3067  {... */\n      pop\n      pop\n        /* \"10_MultiSignature.sol\":993:994  _ */\n      pop\n        /* \"10_MultiSignature.sol\":868:869  _ */\n      pop\n        /* \"10_MultiSignature.sol\":2638:3067  function executeTransaction(uint txId) external onlyOwner txExists(txId) notExecuted(txId) {... */\n      pop\n      jump\t// out\n        /* \"#utility.yul\":7:84   */\n    tag_156:\n        /* \"#utility.yul\":44:51   */\n      0x00\n        /* \"#utility.yul\":73:78   */\n      dup2\n        /* \"#utility.yul\":62:78   */\n      swap1\n      pop\n        /* \"#utility.yul\":7:84   */\n      swap2\n      swap1\n      pop\n      jump\t// out\n        /* \"#utility.yul\":90:208   */\n    tag_157:\n        /* \"#utility.yul\":177:201   */\n      tag_224\n        /* \"#utility.yul\":195:200   */\n      dup2\n        /* \"#utility.yul\":177:201   */\n      tag_156\n      jump\t// in\n    tag_224:\n        /* \"#utility.yul\":172:175   */\n      dup3\n        /* \"#utility.yul\":165:202   */\n      mstore\n        /* \"#utility.yul\":90:208   */\n      pop\n      pop\n      jump\t// out\n        /* \"#utility.yul\":214:436   */\n    tag_17:\n        /* \"#utility.yul\":307:311   */\n      0x00\n        /* \"#utility.yul\":345:347   */\n      0x20\n        /* \"#utility.yul\":334:343   */\n      dup3\n        /* \"#utility.yul\":330:348   */\n      add\n        /* \"#utility.yul\":322:348   */\n      swap1\n      pop\n        /* \"#utility.yul\":358:429   */\n      tag_226\n        /* \"#utility.yul\":426:427   */\n      0x00\n        /* \"#utility.yul\":415:424   */\n      dup4\n        /* \"#utility.yul\":411:428   */\n      add\n        /* \"#utility.yul\":402:408   */\n      dup5\n        /* \"#utility.yul\":358:429   */\n      tag_157\n      jump\t// in\n    tag_226:\n        /* \"#utility.yul\":214:436   */\n      swap3\n      swap2\n      pop\n      pop\n      jump\t// out\n        /* \"#utility.yul\":523:640   */\n    tag_159:\n        /* \"#utility.yul\":632:633   */\n      0x00\n        /* \"#utility.yul\":629:630   */\n      0x00\n        /* \"#utility.yul\":622:634   */\n      revert\n        /* \"#utility.yul\":646:763   */\n    tag_160:\n        /* \"#utility.yul\":755:756   */\n      0x00\n        /* \"#utility.yul\":752:753   */\n      0x00\n        /* \"#utility.yul\":745:757   */\n      revert\n        /* \"#utility.yul\":769:891   */\n    tag_161:\n        /* \"#utility.yul\":842:866   */\n      tag_231\n        /* \"#utility.yul\":860:865   */\n      dup2\n        /* \"#utility.yul\":842:866   */\n      tag_156\n      jump\t// in\n    tag_231:\n        /* \"#utility.yul\":835:840   */\n      dup2\n        /* \"#utility.yul\":832:867   */\n      eq\n        /* \"#utility.yul\":822:885   */\n      tag_232\n      jumpi\n        /* \"#utility.yul\":881:882   */\n      0x00\n        /* \"#utility.yul\":878:879   */\n      0x00\n        /* \"#utility.yul\":871:883   */\n      revert\n        /* \"#utility.yul\":822:885   */\n    tag_232:\n        /* \"#utility.yul\":769:891   */\n      pop\n      jump\t// out\n        /* \"#utility.yul\":897:1036   */\n    tag_162:\n        /* \"#utility.yul\":943:948   */\n      0x00\n        /* \"#utility.yul\":981:987   */\n      dup2\n        /* \"#utility.yul\":968:988   */\n      calldataload\n        /* \"#utility.yul\":959:988   */\n      swap1\n      pop\n        /* \"#utility.yul\":997:1030   */\n      tag_234\n        /* \"#utility.yul\":1024:1029   */\n      dup2\n        /* \"#utility.yul\":997:1030   */\n      tag_161\n      jump\t// in\n    tag_234:\n        /* \"#utility.yul\":897:1036   */\n      swap3\n      swap2\n      pop\n      pop\n      jump\t// out\n        /* \"#utility.yul\":1042:1371   */\n    tag_21:\n        /* \"#utility.yul\":1101:1107   */\n      0x00\n        /* \"#utility.yul\":1150:1152   */\n      0x20\n        /* \"#utility.yul\":1138:1147   */\n      dup3\n        /* \"#utility.yul\":1129:1136   */\n      dup5\n        /* \"#utility.yul\":1125:1148   */\n      sub\n        /* \"#utility.yul\":1121:1153   */\n      slt\n        /* \"#utility.yul\":1118:1237   */\n      iszero\n      tag_236\n      jumpi\n        /* \"#utility.yul\":1156:1235   */\n      tag_237\n      tag_159\n      jump\t// in\n    tag_237:\n        /* \"#utility.yul\":1118:1237   */\n    tag_236:\n        /* \"#utility.yul\":1276:1277   */\n      0x00\n        /* \"#utility.yul\":1301:1354   */\n      tag_238\n        /* \"#utility.yul\":1346:1353   */\n      dup5\n        /* \"#utility.yul\":1337:1343   */\n      dup3\n        /* \"#utility.yul\":1326:1335   */\n      dup6\n        /* \"#utility.yul\":1322:1344   */\n      add\n        /* \"#utility.yul\":1301:1354   */\n      tag_162\n      jump\t// in\n    tag_238:\n        /* \"#utility.yul\":1291:1354   */\n      swap2\n      pop\n        /* \"#utility.yul\":1247:1364   */\n      pop\n        /* \"#utility.yul\":1042:1371   */\n      swap3\n      swap2\n      pop\n      pop\n      jump\t// out\n        /* \"#utility.yul\":1377:1503   */\n    tag_163:\n        /* \"#utility.yul\":1414:1421   */\n      0x00\n        /* \"#utility.yul\":1454:1496   */\n      0xffffffffffffffffffffffffffffffffffffffff\n        /* \"#utility.yul\":1447:1452   */\n      dup3\n        /* \"#utility.yul\":1443:1497   */\n      and\n        /* \"#utility.yul\":1432:1497   */\n      swap1\n      pop\n        /* \"#utility.yul\":1377:1503   */\n      swap2\n      swap1\n      pop\n      jump\t// out\n        /* \"#utility.yul\":1509:1605   */\n    tag_164:\n        /* \"#utility.yul\":1546:1553   */\n      0x00\n        /* \"#utility.yul\":1575:1599   */\n      tag_241\n        /* \"#utility.yul\":1593:1598   */\n      dup3\n        /* \"#utility.yul\":1575:1599   */\n      tag_163\n      jump\t// in\n    tag_241:\n        /* \"#utility.yul\":1564:1599   */\n      swap1\n      pop\n        /* \"#utility.yul\":1509:1605   */\n      swap2\n      swap1\n      pop\n      jump\t// out\n        /* \"#utility.yul\":1611:1729   */\n    tag_165:\n        /* \"#utility.yul\":1698:1722   */\n      tag_243\n        /* \"#utility.yul\":1716:1721   */\n      dup2\n        /* \"#utility.yul\":1698:1722   */\n      tag_164\n      jump\t// in\n    tag_243:\n        /* \"#utility.yul\":1693:1696   */\n      dup3\n        /* \"#utility.yul\":1686:1723   */\n      mstore\n        /* \"#utility.yul\":1611:1729   */\n      pop\n      pop\n      jump\t// out\n        /* \"#utility.yul\":1735:1957   */\n    tag_24:\n        /* \"#utility.yul\":1828:1832   */\n      0x00\n        /* \"#utility.yul\":1866:1868   */\n      0x20\n        /* \"#utility.yul\":1855:1864   */\n      dup3\n        /* \"#utility.yul\":1851:1869   */\n      add\n        /* \"#utility.yul\":1843:1869   */\n      swap1\n      pop\n        /* \"#utility.yul\":1879:1950   */\n      tag_245\n        /* \"#utility.yul\":1947:1948   */\n      0x00\n        /* \"#utility.yul\":1936:1945   */\n      dup4\n        /* \"#utility.yul\":1932:1949   */\n      add\n        /* \"#utility.yul\":1923:1929   */\n      dup5\n        /* \"#utility.yul\":1879:1950   */\n      tag_165\n      jump\t// in\n    tag_245:\n        /* \"#utility.yul\":1735:1957   */\n      swap3\n      swap2\n      pop\n      pop\n      jump\t// out\n        /* \"#utility.yul\":1963:2085   */\n    tag_166:\n        /* \"#utility.yul\":2036:2060   */\n      tag_247\n        /* \"#utility.yul\":2054:2059   */\n      dup2\n        /* \"#utility.yul\":2036:2060   */\n      tag_164\n      jump\t// in\n    tag_247:\n        /* \"#utility.yul\":2029:2034   */\n      dup2\n        /* \"#utility.yul\":2026:2061   */\n      eq\n        /* \"#utility.yul\":2016:2079   */\n      tag_248\n      jumpi\n        /* \"#utility.yul\":2075:2076   */\n      0x00\n        /* \"#utility.yul\":2072:2073   */\n      0x00\n        /* \"#utility.yul\":2065:2077   */\n      revert\n        /* \"#utility.yul\":2016:2079   */\n    tag_248:\n        /* \"#utility.yul\":1963:2085   */\n      pop\n      jump\t// out\n        /* \"#utility.yul\":2091:2230   */\n    tag_167:\n        /* \"#utility.yul\":2137:2142   */\n      0x00\n        /* \"#utility.yul\":2175:2181   */\n      dup2\n        /* \"#utility.yul\":2162:2182   */\n      calldataload\n        /* \"#utility.yul\":2153:2182   */\n      swap1\n      pop\n        /* \"#utility.yul\":2191:2224   */\n      tag_250\n        /* \"#utility.yul\":2218:2223   */\n      dup2\n        /* \"#utility.yul\":2191:2224   */\n      tag_166\n      jump\t// in\n    tag_250:\n        /* \"#utility.yul\":2091:2230   */\n      swap3\n      swap2\n      pop\n      pop\n      jump\t// out\n        /* \"#utility.yul\":2236:2565   */\n    tag_36:\n        /* \"#utility.yul\":2295:2301   */\n      0x00\n        /* \"#utility.yul\":2344:2346   */\n      0x20\n        /* \"#utility.yul\":2332:2341   */\n      dup3\n        /* \"#utility.yul\":2323:2330   */\n      dup5\n        /* \"#utility.yul\":2319:2342   */\n      sub\n        /* \"#utility.yul\":2315:2347   */\n      slt\n        /* \"#utility.yul\":2312:2431   */\n      iszero\n      tag_252\n      jumpi\n        /* \"#utility.yul\":2350:2429   */\n      tag_253\n      tag_159\n      jump\t// in\n    tag_253:\n        /* \"#utility.yul\":2312:2431   */\n    tag_252:\n        /* \"#utility.yul\":2470:2471   */\n      0x00\n        /* \"#utility.yul\":2495:2548   */\n      tag_254\n        /* \"#utility.yul\":2540:2547   */\n      dup5\n        /* \"#utility.yul\":2531:2537   */\n      dup3\n        /* \"#utility.yul\":2520:2529   */\n      dup6\n        /* \"#utility.yul\":2516:2538   */\n      add\n        /* \"#utility.yul\":2495:2548   */\n      tag_167\n      jump\t// in\n    tag_254:\n        /* \"#utility.yul\":2485:2548   */\n      swap2\n      pop\n        /* \"#utility.yul\":2441:2558   */\n      pop\n        /* \"#utility.yul\":2236:2565   */\n      swap3\n      swap2\n      pop\n      pop\n      jump\t// out\n        /* \"#utility.yul\":2571:2661   */\n    tag_168:\n        /* \"#utility.yul\":2605:2612   */\n      0x00\n        /* \"#utility.yul\":2648:2653   */\n      dup2\n        /* \"#utility.yul\":2641:2654   */\n      iszero\n        /* \"#utility.yul\":2634:2655   */\n      iszero\n        /* \"#utility.yul\":2623:2655   */\n      swap1\n      pop\n        /* \"#utility.yul\":2571:2661   */\n      swap2\n      swap1\n      pop\n      jump\t// out\n        /* \"#utility.yul\":2667:2776   */\n    tag_169:\n        /* \"#utility.yul\":2748:2769   */\n      tag_257\n        /* \"#utility.yul\":2763:2768   */\n      dup2\n        /* \"#utility.yul\":2748:2769   */\n      tag_168\n      jump\t// in\n    tag_257:\n        /* \"#utility.yul\":2743:2746   */\n      dup3\n        /* \"#utility.yul\":2736:2770   */\n      mstore\n        /* \"#utility.yul\":2667:2776   */\n      pop\n      pop\n      jump\t// out\n        /* \"#utility.yul\":2782:2992   */\n    tag_39:\n        /* \"#utility.yul\":2869:2873   */\n      0x00\n        /* \"#utility.yul\":2907:2909   */\n      0x20\n        /* \"#utility.yul\":2896:2905   */\n      dup3\n        /* \"#utility.yul\":2892:2910   */\n      add\n        /* \"#utility.yul\":2884:2910   */\n      swap1\n      pop\n        /* \"#utility.yul\":2920:2985   */\n      tag_259\n        /* \"#utility.yul\":2982:2983   */\n      0x00\n        /* \"#utility.yul\":2971:2980   */\n      dup4\n        /* \"#utility.yul\":2967:2984   */\n      add\n        /* \"#utility.yul\":2958:2964   */\n      dup5\n        /* \"#utility.yul\":2920:2985   */\n      tag_169\n      jump\t// in\n    tag_259:\n        /* \"#utility.yul\":2782:2992   */\n      swap3\n      swap2\n      pop\n      pop\n      jump\t// out\n        /* \"#utility.yul\":2998:3096   */\n    tag_170:\n        /* \"#utility.yul\":3049:3055   */\n      0x00\n        /* \"#utility.yul\":3083:3088   */\n      dup2\n        /* \"#utility.yul\":3077:3089   */\n      mload\n        /* \"#utility.yul\":3067:3089   */\n      swap1\n      pop\n        /* \"#utility.yul\":2998:3096   */\n      swap2\n      swap1\n      pop\n      jump\t// out\n        /* \"#utility.yul\":3102:3270   */\n    tag_171:\n        /* \"#utility.yul\":3185:3196   */\n      0x00\n        /* \"#utility.yul\":3219:3225   */\n      dup3\n        /* \"#utility.yul\":3214:3217   */\n      dup3\n        /* \"#utility.yul\":3207:3226   */\n      mstore\n        /* \"#utility.yul\":3259:3263   */\n      0x20\n        /* \"#utility.yul\":3254:3257   */\n      dup3\n        /* \"#utility.yul\":3250:3264   */\n      add\n        /* \"#utility.yul\":3235:3264   */\n      swap1\n      pop\n        /* \"#utility.yul\":3102:3270   */\n      swap3\n      swap2\n      pop\n      pop\n      jump\t// out\n        /* \"#utility.yul\":3276:3415   */\n    tag_172:\n        /* \"#utility.yul\":3365:3371   */\n      dup3\n        /* \"#utility.yul\":3360:3363   */\n      dup2\n        /* \"#utility.yul\":3355:3358   */\n      dup4\n        /* \"#utility.yul\":3349:3372   */\n      mcopy\n        /* \"#utility.yul\":3406:3407   */\n      0x00\n        /* \"#utility.yul\":3397:3403   */\n      dup4\n        /* \"#utility.yul\":3392:3395   */\n      dup4\n        /* \"#utility.yul\":3388:3404   */\n      add\n        /* \"#utility.yul\":3381:3408   */\n      mstore\n        /* \"#utility.yul\":3276:3415   */\n      pop\n      pop\n      pop\n      jump\t// out\n        /* \"#utility.yul\":3421:3523   */\n    tag_173:\n        /* \"#utility.yul\":3462:3468   */\n      0x00\n        /* \"#utility.yul\":3513:3515   */\n      0x1f\n        /* \"#utility.yul\":3509:3516   */\n      not\n        /* \"#utility.yul\":3504:3506   */\n      0x1f\n        /* \"#utility.yul\":3497:3502   */\n      dup4\n        /* \"#utility.yul\":3493:3507   */\n      add\n        /* \"#utility.yul\":3489:3517   */\n      and\n        /* \"#utility.yul\":3479:3517   */\n      swap1\n      pop\n        /* \"#utility.yul\":3421:3523   */\n      swap2\n      swap1\n      pop\n      jump\t// out\n        /* \"#utility.yul\":3529:3902   */\n    tag_174:\n        /* \"#utility.yul\":3615:3618   */\n      0x00\n        /* \"#utility.yul\":3643:3681   */\n      tag_265\n        /* \"#utility.yul\":3675:3680   */\n      dup3\n        /* \"#utility.yul\":3643:3681   */\n      tag_170\n      jump\t// in\n    tag_265:\n        /* \"#utility.yul\":3697:3767   */\n      tag_266\n        /* \"#utility.yul\":3760:3766   */\n      dup2\n        /* \"#utility.yul\":3755:3758   */\n      dup6\n        /* \"#utility.yul\":3697:3767   */\n      tag_171\n      jump\t// in\n    tag_266:\n        /* \"#utility.yul\":3690:3767   */\n      swap4\n      pop\n        /* \"#utility.yul\":3776:3841   */\n      tag_267\n        /* \"#utility.yul\":3834:3840   */\n      dup2\n        /* \"#utility.yul\":3829:3832   */\n      dup6\n        /* \"#utility.yul\":3822:3826   */\n      0x20\n        /* \"#utility.yul\":3815:3820   */\n      dup7\n        /* \"#utility.yul\":3811:3827   */\n      add\n        /* \"#utility.yul\":3776:3841   */\n      tag_172\n      jump\t// in\n    tag_267:\n        /* \"#utility.yul\":3866:3895   */\n      tag_268\n        /* \"#utility.yul\":3888:3894   */\n      dup2\n        /* \"#utility.yul\":3866:3895   */\n      tag_173\n      jump\t// in\n    tag_268:\n        /* \"#utility.yul\":3861:3864   */\n      dup5\n        /* \"#utility.yul\":3857:3896   */\n      add\n        /* \"#utility.yul\":3850:3896   */\n      swap2\n      pop\n        /* \"#utility.yul\":3619:3902   */\n      pop\n        /* \"#utility.yul\":3529:3902   */\n      swap3\n      swap2\n      pop\n      pop\n      jump\t// out\n        /* \"#utility.yul\":3908:4647   */\n    tag_45:\n        /* \"#utility.yul\":4125:4129   */\n      0x00\n        /* \"#utility.yul\":4163:4166   */\n      0xa0\n        /* \"#utility.yul\":4152:4161   */\n      dup3\n        /* \"#utility.yul\":4148:4167   */\n      add\n        /* \"#utility.yul\":4140:4167   */\n      swap1\n      pop\n        /* \"#utility.yul\":4177:4248   */\n      tag_270\n        /* \"#utility.yul\":4245:4246   */\n      0x00\n        /* \"#utility.yul\":4234:4243   */\n      dup4\n        /* \"#utility.yul\":4230:4247   */\n      add\n        /* \"#utility.yul\":4221:4227   */\n      dup9\n        /* \"#utility.yul\":4177:4248   */\n      tag_165\n      jump\t// in\n    tag_270:\n        /* \"#utility.yul\":4258:4330   */\n      tag_271\n        /* \"#utility.yul\":4326:4328   */\n      0x20\n        /* \"#utility.yul\":4315:4324   */\n      dup4\n        /* \"#utility.yul\":4311:4329   */\n      add\n        /* \"#utility.yul\":4302:4308   */\n      dup8\n        /* \"#utility.yul\":4258:4330   */\n      tag_157\n      jump\t// in\n    tag_271:\n        /* \"#utility.yul\":4377:4386   */\n      dup2\n        /* \"#utility.yul\":4371:4375   */\n      dup2\n        /* \"#utility.yul\":4367:4387   */\n      sub\n        /* \"#utility.yul\":4362:4364   */\n      0x40\n        /* \"#utility.yul\":4351:4360   */\n      dup4\n        /* \"#utility.yul\":4347:4365   */\n      add\n        /* \"#utility.yul\":4340:4388   */\n      mstore\n        /* \"#utility.yul\":4405:4481   */\n      tag_272\n        /* \"#utility.yul\":4476:4480   */\n      dup2\n        /* \"#utility.yul\":4467:4473   */\n      dup7\n        /* \"#utility.yul\":4405:4481   */\n      tag_174\n      jump\t// in\n    tag_272:\n        /* \"#utility.yul\":4397:4481   */\n      swap1\n      pop\n        /* \"#utility.yul\":4491:4557   */\n      tag_273\n        /* \"#utility.yul\":4553:4555   */\n      0x60\n        /* \"#utility.yul\":4542:4551   */\n      dup4\n        /* \"#utility.yul\":4538:4556   */\n      add\n        /* \"#utility.yul\":4529:4535   */\n      dup6\n        /* \"#utility.yul\":4491:4557   */\n      tag_169\n      jump\t// in\n    tag_273:\n        /* \"#utility.yul\":4567:4640   */\n      tag_274\n        /* \"#utility.yul\":4635:4638   */\n      0x80\n        /* \"#utility.yul\":4624:4633   */\n      dup4\n        /* \"#utility.yul\":4620:4639   */\n      add\n        /* \"#utility.yul\":4611:4617   */\n      dup5\n        /* \"#utility.yul\":4567:4640   */\n      tag_157\n      jump\t// in\n    tag_274:\n        /* \"#utility.yul\":3908:4647   */\n      swap7\n      swap6\n      pop\n      pop\n      pop\n      pop\n      pop\n      pop\n      jump\t// out\n        /* \"#utility.yul\":4653:4770   */\n    tag_175:\n        /* \"#utility.yul\":4762:4763   */\n      0x00\n        /* \"#utility.yul\":4759:4760   */\n      0x00\n        /* \"#utility.yul\":4752:4764   */\n      revert\n        /* \"#utility.yul\":4776:4893   */\n    tag_176:\n        /* \"#utility.yul\":4885:4886   */\n      0x00\n        /* \"#utility.yul\":4882:4883   */\n      0x00\n        /* \"#utility.yul\":4875:4887   */\n      revert\n        /* \"#utility.yul\":4899:5016   */\n    tag_177:\n        /* \"#utility.yul\":5008:5009   */\n      0x00\n        /* \"#utility.yul\":5005:5006   */\n      0x00\n        /* \"#utility.yul\":4998:5010   */\n      revert\n        /* \"#utility.yul\":5035:5587   */\n    tag_178:\n        /* \"#utility.yul\":5092:5100   */\n      0x00\n        /* \"#utility.yul\":5102:5108   */\n      0x00\n        /* \"#utility.yul\":5152:5155   */\n      dup4\n        /* \"#utility.yul\":5145:5149   */\n      0x1f\n        /* \"#utility.yul\":5137:5143   */\n      dup5\n        /* \"#utility.yul\":5133:5150   */\n      add\n        /* \"#utility.yul\":5129:5156   */\n      slt\n        /* \"#utility.yul\":5119:5241   */\n      tag_279\n      jumpi\n        /* \"#utility.yul\":5160:5239   */\n      tag_280\n      tag_175\n      jump\t// in\n    tag_280:\n        /* \"#utility.yul\":5119:5241   */\n    tag_279:\n        /* \"#utility.yul\":5273:5279   */\n      dup3\n        /* \"#utility.yul\":5260:5280   */\n      calldataload\n        /* \"#utility.yul\":5250:5280   */\n      swap1\n      pop\n        /* \"#utility.yul\":5303:5321   */\n      0xffffffffffffffff\n        /* \"#utility.yul\":5295:5301   */\n      dup2\n        /* \"#utility.yul\":5292:5322   */\n      gt\n        /* \"#utility.yul\":5289:5406   */\n      iszero\n      tag_281\n      jumpi\n        /* \"#utility.yul\":5325:5404   */\n      tag_282\n      tag_176\n      jump\t// in\n    tag_282:\n        /* \"#utility.yul\":5289:5406   */\n    tag_281:\n        /* \"#utility.yul\":5439:5443   */\n      0x20\n        /* \"#utility.yul\":5431:5437   */\n      dup4\n        /* \"#utility.yul\":5427:5444   */\n      add\n        /* \"#utility.yul\":5415:5444   */\n      swap2\n      pop\n        /* \"#utility.yul\":5493:5496   */\n      dup4\n        /* \"#utility.yul\":5485:5489   */\n      0x01\n        /* \"#utility.yul\":5477:5483   */\n      dup3\n        /* \"#utility.yul\":5473:5490   */\n      mul\n        /* \"#utility.yul\":5463:5471   */\n      dup4\n        /* \"#utility.yul\":5459:5491   */\n      add\n        /* \"#utility.yul\":5456:5497   */\n      gt\n        /* \"#utility.yul\":5453:5581   */\n      iszero\n      tag_283\n      jumpi\n        /* \"#utility.yul\":5500:5579   */\n      tag_284\n      tag_177\n      jump\t// in\n    tag_284:\n        /* \"#utility.yul\":5453:5581   */\n    tag_283:\n        /* \"#utility.yul\":5035:5587   */\n      swap3\n      pop\n      swap3\n      swap1\n      pop\n      jump\t// out\n        /* \"#utility.yul\":5593:6410   */\n    tag_49:\n        /* \"#utility.yul\":5681:5687   */\n      0x00\n        /* \"#utility.yul\":5689:5695   */\n      0x00\n        /* \"#utility.yul\":5697:5703   */\n      0x00\n        /* \"#utility.yul\":5705:5711   */\n      0x00\n        /* \"#utility.yul\":5754:5756   */\n      0x60\n        /* \"#utility.yul\":5742:5751   */\n      dup6\n        /* \"#utility.yul\":5733:5740   */\n      dup8\n        /* \"#utility.yul\":5729:5752   */\n      sub\n        /* \"#utility.yul\":5725:5757   */\n      slt\n        /* \"#utility.yul\":5722:5841   */\n      iszero\n      tag_286\n      jumpi\n        /* \"#utility.yul\":5760:5839   */\n      tag_287\n      tag_159\n      jump\t// in\n    tag_287:\n        /* \"#utility.yul\":5722:5841   */\n    tag_286:\n        /* \"#utility.yul\":5880:5881   */\n      0x00\n        /* \"#utility.yul\":5905:5958   */\n      tag_288\n        /* \"#utility.yul\":5950:5957   */\n      dup8\n        /* \"#utility.yul\":5941:5947   */\n      dup3\n        /* \"#utility.yul\":5930:5939   */\n      dup9\n        /* \"#utility.yul\":5926:5948   */\n      add\n        /* \"#utility.yul\":5905:5958   */\n      tag_167\n      jump\t// in\n    tag_288:\n        /* \"#utility.yul\":5895:5958   */\n      swap5\n      pop\n        /* \"#utility.yul\":5851:5968   */\n      pop\n        /* \"#utility.yul\":6007:6009   */\n      0x20\n        /* \"#utility.yul\":6033:6086   */\n      tag_289\n        /* \"#utility.yul\":6078:6085   */\n      dup8\n        /* \"#utility.yul\":6069:6075   */\n      dup3\n        /* \"#utility.yul\":6058:6067   */\n      dup9\n        /* \"#utility.yul\":6054:6076   */\n      add\n        /* \"#utility.yul\":6033:6086   */\n      tag_162\n      jump\t// in\n    tag_289:\n        /* \"#utility.yul\":6023:6086   */\n      swap4\n      pop\n        /* \"#utility.yul\":5978:6096   */\n      pop\n        /* \"#utility.yul\":6163:6165   */\n      0x40\n        /* \"#utility.yul\":6152:6161   */\n      dup6\n        /* \"#utility.yul\":6148:6166   */\n      add\n        /* \"#utility.yul\":6135:6167   */\n      calldataload\n        /* \"#utility.yul\":6194:6212   */\n      0xffffffffffffffff\n        /* \"#utility.yul\":6186:6192   */\n      dup2\n        /* \"#utility.yul\":6183:6213   */\n      gt\n        /* \"#utility.yul\":6180:6297   */\n      iszero\n      tag_290\n      jumpi\n        /* \"#utility.yul\":6216:6295   */\n      tag_291\n      tag_160\n      jump\t// in\n    tag_291:\n        /* \"#utility.yul\":6180:6297   */\n    tag_290:\n        /* \"#utility.yul\":6329:6393   */\n      tag_292\n        /* \"#utility.yul\":6385:6392   */\n      dup8\n        /* \"#utility.yul\":6376:6382   */\n      dup3\n        /* \"#utility.yul\":6365:6374   */\n      dup9\n        /* \"#utility.yul\":6361:6383   */\n      add\n        /* \"#utility.yul\":6329:6393   */\n      tag_178\n      jump\t// in\n    tag_292:\n        /* \"#utility.yul\":6311:6393   */\n      swap3\n      pop\n      swap3\n      pop\n        /* \"#utility.yul\":6106:6403   */\n      pop\n        /* \"#utility.yul\":5593:6410   */\n      swap3\n      swap6\n      swap2\n      swap5\n      pop\n      swap3\n      pop\n      jump\t// out\n        /* \"#utility.yul\":6416:6890   */\n    tag_54:\n        /* \"#utility.yul\":6484:6490   */\n      0x00\n        /* \"#utility.yul\":6492:6498   */\n      0x00\n        /* \"#utility.yul\":6541:6543   */\n      0x40\n        /* \"#utility.yul\":6529:6538   */\n      dup4\n        /* \"#utility.yul\":6520:6527   */\n      dup6\n        /* \"#utility.yul\":6516:6539   */\n      sub\n        /* \"#utility.yul\":6512:6544   */\n      slt\n        /* \"#utility.yul\":6509:6628   */\n      iszero\n      tag_294\n      jumpi\n        /* \"#utility.yul\":6547:6626   */\n      tag_295\n      tag_159\n      jump\t// in\n    tag_295:\n        /* \"#utility.yul\":6509:6628   */\n    tag_294:\n        /* \"#utility.yul\":6667:6668   */\n      0x00\n        /* \"#utility.yul\":6692:6745   */\n      tag_296\n        /* \"#utility.yul\":6737:6744   */\n      dup6\n        /* \"#utility.yul\":6728:6734   */\n      dup3\n        /* \"#utility.yul\":6717:6726   */\n      dup7\n        /* \"#utility.yul\":6713:6735   */\n      add\n        /* \"#utility.yul\":6692:6745   */\n      tag_162\n      jump\t// in\n    tag_296:\n        /* \"#utility.yul\":6682:6745   */\n      swap3\n      pop\n        /* \"#utility.yul\":6638:6755   */\n      pop\n        /* \"#utility.yul\":6794:6796   */\n      0x20\n        /* \"#utility.yul\":6820:6873   */\n      tag_297\n        /* \"#utility.yul\":6865:6872   */\n      dup6\n        /* \"#utility.yul\":6856:6862   */\n      dup3\n        /* \"#utility.yul\":6845:6854   */\n      dup7\n        /* \"#utility.yul\":6841:6863   */\n      add\n        /* \"#utility.yul\":6820:6873   */\n      tag_167\n      jump\t// in\n    tag_297:\n        /* \"#utility.yul\":6810:6873   */\n      swap2\n      pop\n        /* \"#utility.yul\":6765:6883   */\n      pop\n        /* \"#utility.yul\":6416:6890   */\n      swap3\n      pop\n      swap3\n      swap1\n      pop\n      jump\t// out\n        /* \"#utility.yul\":6896:7010   */\n    tag_179:\n        /* \"#utility.yul\":6963:6969   */\n      0x00\n        /* \"#utility.yul\":6997:7002   */\n      dup2\n        /* \"#utility.yul\":6991:7003   */\n      mload\n        /* \"#utility.yul\":6981:7003   */\n      swap1\n      pop\n        /* \"#utility.yul\":6896:7010   */\n      swap2\n      swap1\n      pop\n      jump\t// out\n        /* \"#utility.yul\":7016:7200   */\n    tag_180:\n        /* \"#utility.yul\":7115:7126   */\n      0x00\n        /* \"#utility.yul\":7149:7155   */\n      dup3\n        /* \"#utility.yul\":7144:7147   */\n      dup3\n        /* \"#utility.yul\":7137:7156   */\n      mstore\n        /* \"#utility.yul\":7189:7193   */\n      0x20\n        /* \"#utility.yul\":7184:7187   */\n      dup3\n        /* \"#utility.yul\":7180:7194   */\n      add\n        /* \"#utility.yul\":7165:7194   */\n      swap1\n      pop\n        /* \"#utility.yul\":7016:7200   */\n      swap3\n      swap2\n      pop\n      pop\n      jump\t// out\n        /* \"#utility.yul\":7206:7338   */\n    tag_181:\n        /* \"#utility.yul\":7273:7277   */\n      0x00\n        /* \"#utility.yul\":7296:7299   */\n      dup2\n        /* \"#utility.yul\":7288:7299   */\n      swap1\n      pop\n        /* \"#utility.yul\":7326:7330   */\n      0x20\n        /* \"#utility.yul\":7321:7324   */\n      dup3\n        /* \"#utility.yul\":7317:7331   */\n      add\n        /* \"#utility.yul\":7309:7331   */\n      swap1\n      pop\n        /* \"#utility.yul\":7206:7338   */\n      swap2\n      swap1\n      pop\n      jump\t// out\n        /* \"#utility.yul\":7344:7452   */\n    tag_182:\n        /* \"#utility.yul\":7421:7445   */\n      tag_302\n        /* \"#utility.yul\":7439:7444   */\n      dup2\n        /* \"#utility.yul\":7421:7445   */\n      tag_164\n      jump\t// in\n    tag_302:\n        /* \"#utility.yul\":7416:7419   */\n      dup3\n        /* \"#utility.yul\":7409:7446   */\n      mstore\n        /* \"#utility.yul\":7344:7452   */\n      pop\n      pop\n      jump\t// out\n        /* \"#utility.yul\":7458:7637   */\n    tag_183:\n        /* \"#utility.yul\":7527:7537   */\n      0x00\n        /* \"#utility.yul\":7548:7594   */\n      tag_304\n        /* \"#utility.yul\":7590:7593   */\n      dup4\n        /* \"#utility.yul\":7582:7588   */\n      dup4\n        /* \"#utility.yul\":7548:7594   */\n      tag_182\n      jump\t// in\n    tag_304:\n        /* \"#utility.yul\":7626:7630   */\n      0x20\n        /* \"#utility.yul\":7621:7624   */\n      dup4\n        /* \"#utility.yul\":7617:7631   */\n      add\n        /* \"#utility.yul\":7603:7631   */\n      swap1\n      pop\n        /* \"#utility.yul\":7458:7637   */\n      swap3\n      swap2\n      pop\n      pop\n      jump\t// out\n        /* \"#utility.yul\":7643:7756   */\n    tag_184:\n        /* \"#utility.yul\":7713:7717   */\n      0x00\n        /* \"#utility.yul\":7745:7749   */\n      0x20\n        /* \"#utility.yul\":7740:7743   */\n      dup3\n        /* \"#utility.yul\":7736:7750   */\n      add\n        /* \"#utility.yul\":7728:7750   */\n      swap1\n      pop\n        /* \"#utility.yul\":7643:7756   */\n      swap2\n      swap1\n      pop\n      jump\t// out\n        /* \"#utility.yul\":7792:8524   */\n    tag_185:\n        /* \"#utility.yul\":7911:7914   */\n      0x00\n        /* \"#utility.yul\":7940:7994   */\n      tag_307\n        /* \"#utility.yul\":7988:7993   */\n      dup3\n        /* \"#utility.yul\":7940:7994   */\n      tag_179\n      jump\t// in\n    tag_307:\n        /* \"#utility.yul\":8010:8096   */\n      tag_308\n        /* \"#utility.yul\":8089:8095   */\n      dup2\n        /* \"#utility.yul\":8084:8087   */\n      dup6\n        /* \"#utility.yul\":8010:8096   */\n      tag_180\n      jump\t// in\n    tag_308:\n        /* \"#utility.yul\":8003:8096   */\n      swap4\n      pop\n        /* \"#utility.yul\":8120:8176   */\n      tag_309\n        /* \"#utility.yul\":8170:8175   */\n      dup4\n        /* \"#utility.yul\":8120:8176   */\n      tag_181\n      jump\t// in\n    tag_309:\n        /* \"#utility.yul\":8199:8206   */\n      dup1\n        /* \"#utility.yul\":8230:8231   */\n      0x00\n        /* \"#utility.yul\":8215:8499   */\n    tag_310:\n        /* \"#utility.yul\":8240:8246   */\n      dup4\n        /* \"#utility.yul\":8237:8238   */\n      dup2\n        /* \"#utility.yul\":8234:8247   */\n      lt\n        /* \"#utility.yul\":8215:8499   */\n      iszero\n      tag_312\n      jumpi\n        /* \"#utility.yul\":8316:8322   */\n      dup2\n        /* \"#utility.yul\":8310:8323   */\n      mload\n        /* \"#utility.yul\":8343:8406   */\n      tag_313\n        /* \"#utility.yul\":8402:8405   */\n      dup9\n        /* \"#utility.yul\":8387:8400   */\n      dup3\n        /* \"#utility.yul\":8343:8406   */\n      tag_183\n      jump\t// in\n    tag_313:\n        /* \"#utility.yul\":8336:8406   */\n      swap8\n      pop\n        /* \"#utility.yul\":8429:8489   */\n      tag_314\n        /* \"#utility.yul\":8482:8488   */\n      dup4\n        /* \"#utility.yul\":8429:8489   */\n      tag_184\n      jump\t// in\n    tag_314:\n        /* \"#utility.yul\":8419:8489   */\n      swap3\n      pop\n        /* \"#utility.yul\":8275:8499   */\n      pop\n        /* \"#utility.yul\":8262:8263   */\n      0x01\n        /* \"#utility.yul\":8259:8260   */\n      dup2\n        /* \"#utility.yul\":8255:8264   */\n      add\n        /* \"#utility.yul\":8250:8264   */\n      swap1\n      pop\n        /* \"#utility.yul\":8215:8499   */\n      jump(tag_310)\n    tag_312:\n        /* \"#utility.yul\":8219:8233   */\n      pop\n        /* \"#utility.yul\":8515:8518   */\n      dup6\n        /* \"#utility.yul\":8508:8518   */\n      swap4\n      pop\n        /* \"#utility.yul\":7916:8524   */\n      pop\n      pop\n      pop\n        /* \"#utility.yul\":7792:8524   */\n      swap3\n      swap2\n      pop\n      pop\n      jump\t// out\n        /* \"#utility.yul\":8530:8903   */\n    tag_66:\n        /* \"#utility.yul\":8673:8677   */\n      0x00\n        /* \"#utility.yul\":8711:8713   */\n      0x20\n        /* \"#utility.yul\":8700:8709   */\n      dup3\n        /* \"#utility.yul\":8696:8714   */\n      add\n        /* \"#utility.yul\":8688:8714   */\n      swap1\n      pop\n        /* \"#utility.yul\":8760:8769   */\n      dup2\n        /* \"#utility.yul\":8754:8758   */\n      dup2\n        /* \"#utility.yul\":8750:8770   */\n      sub\n        /* \"#utility.yul\":8746:8747   */\n      0x00\n        /* \"#utility.yul\":8735:8744   */\n      dup4\n        /* \"#utility.yul\":8731:8748   */\n      add\n        /* \"#utility.yul\":8724:8771   */\n      mstore\n        /* \"#utility.yul\":8788:8896   */\n      tag_316\n        /* \"#utility.yul\":8891:8895   */\n      dup2\n        /* \"#utility.yul\":8882:8888   */\n      dup5\n        /* \"#utility.yul\":8788:8896   */\n      tag_185\n      jump\t// in\n    tag_316:\n        /* \"#utility.yul\":8780:8896   */\n      swap1\n      pop\n        /* \"#utility.yul\":8530:8903   */\n      swap3\n      swap2\n      pop\n      pop\n      jump\t// out\n        /* \"#utility.yul\":8909:9078   */\n    tag_186:\n        /* \"#utility.yul\":8993:9004   */\n      0x00\n        /* \"#utility.yul\":9027:9033   */\n      dup3\n        /* \"#utility.yul\":9022:9025   */\n      dup3\n        /* \"#utility.yul\":9015:9034   */\n      mstore\n        /* \"#utility.yul\":9067:9071   */\n      0x20\n        /* \"#utility.yul\":9062:9065   */\n      dup3\n        /* \"#utility.yul\":9058:9072   */\n      add\n        /* \"#utility.yul\":9043:9072   */\n      swap1\n      pop\n        /* \"#utility.yul\":8909:9078   */\n      swap3\n      swap2\n      pop\n      pop\n      jump\t// out\n        /* \"#utility.yul\":9084:9246   */\n    tag_187:\n        /* \"#utility.yul\":9224:9238   */\n      0x4e6f7420616e204f776e65720000000000000000000000000000000000000000\n        /* \"#utility.yul\":9220:9221   */\n      0x00\n        /* \"#utility.yul\":9212:9218   */\n      dup3\n        /* \"#utility.yul\":9208:9222   */\n      add\n        /* \"#utility.yul\":9201:9239   */\n      mstore\n        /* \"#utility.yul\":9084:9246   */\n      pop\n      jump\t// out\n        /* \"#utility.yul\":9252:9618   */\n    tag_188:\n        /* \"#utility.yul\":9394:9397   */\n      0x00\n        /* \"#utility.yul\":9415:9482   */\n      tag_320\n        /* \"#utility.yul\":9479:9481   */\n      0x0c\n        /* \"#utility.yul\":9474:9477   */\n      dup4\n        /* \"#utility.yul\":9415:9482   */\n      tag_186\n      jump\t// in\n    tag_320:\n        /* \"#utility.yul\":9408:9482   */\n      swap2\n      pop\n        /* \"#utility.yul\":9491:9584   */\n      tag_321\n        /* \"#utility.yul\":9580:9583   */\n      dup3\n        /* \"#utility.yul\":9491:9584   */\n      tag_187\n      jump\t// in\n    tag_321:\n        /* \"#utility.yul\":9609:9611   */\n      0x20\n        /* \"#utility.yul\":9604:9607   */\n      dup3\n        /* \"#utility.yul\":9600:9612   */\n      add\n        /* \"#utility.yul\":9593:9612   */\n      swap1\n      pop\n        /* \"#utility.yul\":9252:9618   */\n      swap2\n      swap1\n      pop\n      jump\t// out\n        /* \"#utility.yul\":9624:10043   */\n    tag_76:\n        /* \"#utility.yul\":9790:9794   */\n      0x00\n        /* \"#utility.yul\":9828:9830   */\n      0x20\n        /* \"#utility.yul\":9817:9826   */\n      dup3\n        /* \"#utility.yul\":9813:9831   */\n      add\n        /* \"#utility.yul\":9805:9831   */\n      swap1\n      pop\n        /* \"#utility.yul\":9877:9886   */\n      dup2\n        /* \"#utility.yul\":9871:9875   */\n      dup2\n        /* \"#utility.yul\":9867:9887   */\n      sub\n        /* \"#utility.yul\":9863:9864   */\n      0x00\n        /* \"#utility.yul\":9852:9861   */\n      dup4\n        /* \"#utility.yul\":9848:9865   */\n      add\n        /* \"#utility.yul\":9841:9888   */\n      mstore\n        /* \"#utility.yul\":9905:10036   */\n      tag_323\n        /* \"#utility.yul\":10031:10035   */\n      dup2\n        /* \"#utility.yul\":9905:10036   */\n      tag_188\n      jump\t// in\n    tag_323:\n        /* \"#utility.yul\":9897:10036   */\n      swap1\n      pop\n        /* \"#utility.yul\":9624:10043   */\n      swap2\n      swap1\n      pop\n      jump\t// out\n        /* \"#utility.yul\":10049:10223   */\n    tag_189:\n        /* \"#utility.yul\":10189:10215   */\n      0x5472616e73616374696f6e206e6f7420617070726f7665640000000000000000\n        /* \"#utility.yul\":10185:10186   */\n      0x00\n        /* \"#utility.yul\":10177:10183   */\n      dup3\n        /* \"#utility.yul\":10173:10187   */\n      add\n        /* \"#utility.yul\":10166:10216   */\n      mstore\n        /* \"#utility.yul\":10049:10223   */\n      pop\n      jump\t// out\n        /* \"#utility.yul\":10229:10595   */\n    tag_190:\n        /* \"#utility.yul\":10371:10374   */\n      0x00\n        /* \"#utility.yul\":10392:10459   */\n      tag_326\n        /* \"#utility.yul\":10456:10458   */\n      0x18\n        /* \"#utility.yul\":10451:10454   */\n      dup4\n        /* \"#utility.yul\":10392:10459   */\n      tag_186\n      jump\t// in\n    tag_326:\n        /* \"#utility.yul\":10385:10459   */\n      swap2\n      pop\n        /* \"#utility.yul\":10468:10561   */\n      tag_327\n        /* \"#utility.yul\":10557:10560   */\n      dup3\n        /* \"#utility.yul\":10468:10561   */\n      tag_189\n      jump\t// in\n    tag_327:\n        /* \"#utility.yul\":10586:10588   */\n      0x20\n        /* \"#utility.yul\":10581:10584   */\n      dup3\n        /* \"#utility.yul\":10577:10589   */\n      add\n        /* \"#utility.yul\":10570:10589   */\n      swap1\n      pop\n        /* \"#utility.yul\":10229:10595   */\n      swap2\n      swap1\n      pop\n      jump\t// out\n        /* \"#utility.yul\":10601:11020   */\n    tag_80:\n        /* \"#utility.yul\":10767:10771   */\n      0x00\n        /* \"#utility.yul\":10805:10807   */\n      0x20\n        /* \"#utility.yul\":10794:10803   */\n      dup3\n        /* \"#utility.yul\":10790:10808   */\n      add\n        /* \"#utility.yul\":10782:10808   */\n      swap1\n      pop\n        /* \"#utility.yul\":10854:10863   */\n      dup2\n        /* \"#utility.yul\":10848:10852   */\n      dup2\n        /* \"#utility.yul\":10844:10864   */\n      sub\n        /* \"#utility.yul\":10840:10841   */\n      0x00\n        /* \"#utility.yul\":10829:10838   */\n      dup4\n        /* \"#utility.yul\":10825:10842   */\n      add\n        /* \"#utility.yul\":10818:10865   */\n      mstore\n        /* \"#utility.yul\":10882:11013   */\n      tag_329\n        /* \"#utility.yul\":11008:11012   */\n      dup2\n        /* \"#utility.yul\":10882:11013   */\n      tag_190\n      jump\t// in\n    tag_329:\n        /* \"#utility.yul\":10874:11013   */\n      swap1\n      pop\n        /* \"#utility.yul\":10601:11020   */\n      swap2\n      swap1\n      pop\n      jump\t// out\n        /* \"#utility.yul\":11026:11206   */\n    tag_84:\n        /* \"#utility.yul\":11074:11151   */\n      0x4e487b7100000000000000000000000000000000000000000000000000000000\n        /* \"#utility.yul\":11071:11072   */\n      0x00\n        /* \"#utility.yul\":11064:11152   */\n      mstore\n        /* \"#utility.yul\":11171:11175   */\n      0x32\n        /* \"#utility.yul\":11168:11169   */\n      0x04\n        /* \"#utility.yul\":11161:11176   */\n      mstore\n        /* \"#utility.yul\":11195:11199   */\n      0x24\n        /* \"#utility.yul\":11192:11193   */\n      0x00\n        /* \"#utility.yul\":11185:11200   */\n      revert\n        /* \"#utility.yul\":11212:11386   */\n    tag_191:\n        /* \"#utility.yul\":11352:11378   */\n      0x5472616e73616374696f6e206e6f742065786563757465640000000000000000\n        /* \"#utility.yul\":11348:11349   */\n      0x00\n        /* \"#utility.yul\":11340:11346   */\n      dup3\n        /* \"#utility.yul\":11336:11350   */\n      add\n        /* \"#utility.yul\":11329:11379   */\n      mstore\n        /* \"#utility.yul\":11212:11386   */\n      pop\n      jump\t// out\n        /* \"#utility.yul\":11392:11758   */\n    tag_192:\n        /* \"#utility.yul\":11534:11537   */\n      0x00\n        /* \"#utility.yul\":11555:11622   */\n      tag_333\n        /* \"#utility.yul\":11619:11621   */\n      0x18\n        /* \"#utility.yul\":11614:11617   */\n      dup4\n        /* \"#utility.yul\":11555:11622   */\n      tag_186\n      jump\t// in\n    tag_333:\n        /* \"#utility.yul\":11548:11622   */\n      swap2\n      pop\n        /* \"#utility.yul\":11631:11724   */\n      tag_334\n        /* \"#utility.yul\":11720:11723   */\n      dup3\n        /* \"#utility.yul\":11631:11724   */\n      tag_191\n      jump\t// in\n    tag_334:\n        /* \"#utility.yul\":11749:11751   */\n      0x20\n        /* \"#utility.yul\":11744:11747   */\n      dup3\n        /* \"#utility.yul\":11740:11752   */\n      add\n        /* \"#utility.yul\":11733:11752   */\n      swap1\n      pop\n        /* \"#utility.yul\":11392:11758   */\n      swap2\n      swap1\n      pop\n      jump\t// out\n        /* \"#utility.yul\":11764:12183   */\n    tag_88:\n        /* \"#utility.yul\":11930:11934   */\n      0x00\n        /* \"#utility.yul\":11968:11970   */\n      0x20\n        /* \"#utility.yul\":11957:11966   */\n      dup3\n        /* \"#utility.yul\":11953:11971   */\n      add\n        /* \"#utility.yul\":11945:11971   */\n      swap1\n      pop\n        /* \"#utility.yul\":12017:12026   */\n      dup2\n        /* \"#utility.yul\":12011:12015   */\n      dup2\n        /* \"#utility.yul\":12007:12027   */\n      sub\n        /* \"#utility.yul\":12003:12004   */\n      0x00\n        /* \"#utility.yul\":11992:12001   */\n      dup4\n        /* \"#utility.yul\":11988:12005   */\n      add\n        /* \"#utility.yul\":11981:12028   */\n      mstore\n        /* \"#utility.yul\":12045:12176   */\n      tag_336\n        /* \"#utility.yul\":12171:12175   */\n      dup2\n        /* \"#utility.yul\":12045:12176   */\n      tag_192\n      jump\t// in\n    tag_336:\n        /* \"#utility.yul\":12037:12176   */\n      swap1\n      pop\n        /* \"#utility.yul\":11764:12183   */\n      swap2\n      swap1\n      pop\n      jump\t// out\n        /* \"#utility.yul\":12189:12361   */\n    tag_193:\n        /* \"#utility.yul\":12329:12353   */\n      0x5472616e73616374696f6e206e6f742065786973747300000000000000000000\n        /* \"#utility.yul\":12325:12326   */\n      0x00\n        /* \"#utility.yul\":12317:12323   */\n      dup3\n        /* \"#utility.yul\":12313:12327   */\n      add\n        /* \"#utility.yul\":12306:12354   */\n      mstore\n        /* \"#utility.yul\":12189:12361   */\n      pop\n      jump\t// out\n        /* \"#utility.yul\":12367:12733   */\n    tag_194:\n        /* \"#utility.yul\":12509:12512   */\n      0x00\n        /* \"#utility.yul\":12530:12597   */\n      tag_339\n        /* \"#utility.yul\":12594:12596   */\n      0x16\n        /* \"#utility.yul\":12589:12592   */\n      dup4\n        /* \"#utility.yul\":12530:12597   */\n      tag_186\n      jump\t// in\n    tag_339:\n        /* \"#utility.yul\":12523:12597   */\n      swap2\n      pop\n        /* \"#utility.yul\":12606:12699   */\n      tag_340\n        /* \"#utility.yul\":12695:12698   */\n      dup3\n        /* \"#utility.yul\":12606:12699   */\n      tag_193\n      jump\t// in\n    tag_340:\n        /* \"#utility.yul\":12724:12726   */\n      0x20\n        /* \"#utility.yul\":12719:12722   */\n      dup3\n        /* \"#utility.yul\":12715:12727   */\n      add\n        /* \"#utility.yul\":12708:12727   */\n      swap1\n      pop\n        /* \"#utility.yul\":12367:12733   */\n      swap2\n      swap1\n      pop\n      jump\t// out\n        /* \"#utility.yul\":12739:13158   */\n    tag_92:\n        /* \"#utility.yul\":12905:12909   */\n      0x00\n        /* \"#utility.yul\":12943:12945   */\n      0x20\n        /* \"#utility.yul\":12932:12941   */\n      dup3\n        /* \"#utility.yul\":12928:12946   */\n      add\n        /* \"#utility.yul\":12920:12946   */\n      swap1\n      pop\n        /* \"#utility.yul\":12992:13001   */\n      dup2\n        /* \"#utility.yul\":12986:12990   */\n      dup2\n        /* \"#utility.yul\":12982:13002   */\n      sub\n        /* \"#utility.yul\":12978:12979   */\n      0x00\n        /* \"#utility.yul\":12967:12976   */\n      dup4\n        /* \"#utility.yul\":12963:12980   */\n      add\n        /* \"#utility.yul\":12956:13003   */\n      mstore\n        /* \"#utility.yul\":13020:13151   */\n      tag_342\n        /* \"#utility.yul\":13146:13150   */\n      dup2\n        /* \"#utility.yul\":13020:13151   */\n      tag_194\n      jump\t// in\n    tag_342:\n        /* \"#utility.yul\":13012:13151   */\n      swap1\n      pop\n        /* \"#utility.yul\":12739:13158   */\n      swap2\n      swap1\n      pop\n      jump\t// out\n        /* \"#utility.yul\":13164:13344   */\n    tag_195:\n        /* \"#utility.yul\":13212:13289   */\n      0x4e487b7100000000000000000000000000000000000000000000000000000000\n        /* \"#utility.yul\":13209:13210   */\n      0x00\n        /* \"#utility.yul\":13202:13290   */\n      mstore\n        /* \"#utility.yul\":13309:13313   */\n      0x11\n        /* \"#utility.yul\":13306:13307   */\n      0x04\n        /* \"#utility.yul\":13299:13314   */\n      mstore\n        /* \"#utility.yul\":13333:13337   */\n      0x24\n        /* \"#utility.yul\":13330:13331   */\n      0x00\n        /* \"#utility.yul\":13323:13338   */\n      revert\n        /* \"#utility.yul\":13350:13541   */\n    tag_98:\n        /* \"#utility.yul\":13390:13393   */\n      0x00\n        /* \"#utility.yul\":13409:13429   */\n      tag_345\n        /* \"#utility.yul\":13427:13428   */\n      dup3\n        /* \"#utility.yul\":13409:13429   */\n      tag_156\n      jump\t// in\n    tag_345:\n        /* \"#utility.yul\":13404:13429   */\n      swap2\n      pop\n        /* \"#utility.yul\":13443:13463   */\n      tag_346\n        /* \"#utility.yul\":13461:13462   */\n      dup4\n        /* \"#utility.yul\":13443:13463   */\n      tag_156\n      jump\t// in\n    tag_346:\n        /* \"#utility.yul\":13438:13463   */\n      swap3\n      pop\n        /* \"#utility.yul\":13486:13487   */\n      dup3\n        /* \"#utility.yul\":13483:13484   */\n      dup3\n        /* \"#utility.yul\":13479:13488   */\n      add\n        /* \"#utility.yul\":13472:13488   */\n      swap1\n      pop\n        /* \"#utility.yul\":13507:13510   */\n      dup1\n        /* \"#utility.yul\":13504:13505   */\n      dup3\n        /* \"#utility.yul\":13501:13511   */\n      gt\n        /* \"#utility.yul\":13498:13534   */\n      iszero\n      tag_347\n      jumpi\n        /* \"#utility.yul\":13514:13532   */\n      tag_348\n      tag_195\n      jump\t// in\n    tag_348:\n        /* \"#utility.yul\":13498:13534   */\n    tag_347:\n        /* \"#utility.yul\":13350:13541   */\n      swap3\n      swap2\n      pop\n      pop\n      jump\t// out\n        /* \"#utility.yul\":13547:13727   */\n    tag_196:\n        /* \"#utility.yul\":13595:13672   */\n      0x4e487b7100000000000000000000000000000000000000000000000000000000\n        /* \"#utility.yul\":13592:13593   */\n      0x00\n        /* \"#utility.yul\":13585:13673   */\n      mstore\n        /* \"#utility.yul\":13692:13696   */\n      0x22\n        /* \"#utility.yul\":13689:13690   */\n      0x04\n        /* \"#utility.yul\":13682:13697   */\n      mstore\n        /* \"#utility.yul\":13716:13720   */\n      0x24\n        /* \"#utility.yul\":13713:13714   */\n      0x00\n        /* \"#utility.yul\":13706:13721   */\n      revert\n        /* \"#utility.yul\":13733:14053   */\n    tag_105:\n        /* \"#utility.yul\":13777:13783   */\n      0x00\n        /* \"#utility.yul\":13814:13815   */\n      0x02\n        /* \"#utility.yul\":13808:13812   */\n      dup3\n        /* \"#utility.yul\":13804:13816   */\n      div\n        /* \"#utility.yul\":13794:13816   */\n      swap1\n      pop\n        /* \"#utility.yul\":13861:13862   */\n      0x01\n        /* \"#utility.yul\":13855:13859   */\n      dup3\n        /* \"#utility.yul\":13851:13863   */\n      and\n        /* \"#utility.yul\":13882:13900   */\n      dup1\n        /* \"#utility.yul\":13872:13953   */\n      tag_351\n      jumpi\n        /* \"#utility.yul\":13938:13942   */\n      0x7f\n        /* \"#utility.yul\":13930:13936   */\n      dup3\n        /* \"#utility.yul\":13926:13943   */\n      and\n        /* \"#utility.yul\":13916:13943   */\n      swap2\n      pop\n        /* \"#utility.yul\":13872:13953   */\n    tag_351:\n        /* \"#utility.yul\":14000:14002   */\n      0x20\n        /* \"#utility.yul\":13992:13998   */\n      dup3\n        /* \"#utility.yul\":13989:14003   */\n      lt\n        /* \"#utility.yul\":13969:13987   */\n      dup2\n        /* \"#utility.yul\":13966:14004   */\n      sub\n        /* \"#utility.yul\":13963:14047   */\n      tag_352\n      jumpi\n        /* \"#utility.yul\":14019:14037   */\n      tag_353\n      tag_196\n      jump\t// in\n    tag_353:\n        /* \"#utility.yul\":13963:14047   */\n    tag_352:\n        /* \"#utility.yul\":13784:14053   */\n      pop\n        /* \"#utility.yul\":13733:14053   */\n      swap2\n      swap1\n      pop\n      jump\t// out\n        /* \"#utility.yul\":14059:14239   */\n    tag_197:\n        /* \"#utility.yul\":14107:14184   */\n      0x4e487b7100000000000000000000000000000000000000000000000000000000\n        /* \"#utility.yul\":14104:14105   */\n      0x00\n        /* \"#utility.yul\":14097:14185   */\n      mstore\n        /* \"#utility.yul\":14204:14208   */\n      0x41\n        /* \"#utility.yul\":14201:14202   */\n      0x04\n        /* \"#utility.yul\":14194:14209   */\n      mstore\n        /* \"#utility.yul\":14228:14232   */\n      0x24\n        /* \"#utility.yul\":14225:14226   */\n      0x00\n        /* \"#utility.yul\":14218:14233   */\n      revert\n        /* \"#utility.yul\":14245:14385   */\n    tag_198:\n        /* \"#utility.yul\":14293:14297   */\n      0x00\n        /* \"#utility.yul\":14316:14319   */\n      dup2\n        /* \"#utility.yul\":14308:14319   */\n      swap1\n      pop\n        /* \"#utility.yul\":14339:14342   */\n      dup2\n        /* \"#utility.yul\":14336:14337   */\n      0x00\n        /* \"#utility.yul\":14329:14343   */\n      mstore\n        /* \"#utility.yul\":14373:14377   */\n      0x20\n        /* \"#utility.yul\":14370:14371   */\n      0x00\n        /* \"#utility.yul\":14360:14378   */\n      keccak256\n        /* \"#utility.yul\":14352:14378   */\n      swap1\n      pop\n        /* \"#utility.yul\":14245:14385   */\n      swap2\n      swap1\n      pop\n      jump\t// out\n        /* \"#utility.yul\":14391:14484   */\n    tag_199:\n        /* \"#utility.yul\":14428:14434   */\n      0x00\n        /* \"#utility.yul\":14475:14477   */\n      0x20\n        /* \"#utility.yul\":14470:14472   */\n      0x1f\n        /* \"#utility.yul\":14463:14468   */\n      dup4\n        /* \"#utility.yul\":14459:14473   */\n      add\n        /* \"#utility.yul\":14455:14478   */\n      div\n        /* \"#utility.yul\":14445:14478   */\n      swap1\n      pop\n        /* \"#utility.yul\":14391:14484   */\n      swap2\n      swap1\n      pop\n      jump\t// out\n        /* \"#utility.yul\":14490:14597   */\n    tag_200:\n        /* \"#utility.yul\":14534:14542   */\n      0x00\n        /* \"#utility.yul\":14584:14589   */\n      dup3\n        /* \"#utility.yul\":14578:14582   */\n      dup3\n        /* \"#utility.yul\":14574:14590   */\n      shl\n        /* \"#utility.yul\":14553:14590   */\n      swap1\n      pop\n        /* \"#utility.yul\":14490:14597   */\n      swap3\n      swap2\n      pop\n      pop\n      jump\t// out\n        /* \"#utility.yul\":14603:14996   */\n    tag_201:\n        /* \"#utility.yul\":14672:14678   */\n      0x00\n        /* \"#utility.yul\":14722:14723   */\n      0x08\n        /* \"#utility.yul\":14710:14720   */\n      dup4\n        /* \"#utility.yul\":14706:14724   */\n      mul\n        /* \"#utility.yul\":14745:14842   */\n      tag_359\n        /* \"#utility.yul\":14775:14841   */\n      0xffffffffffffffffffffffffffffffffffffffffffffffffffffffffffffffff\n        /* \"#utility.yul\":14764:14773   */\n      dup3\n        /* \"#utility.yul\":14745:14842   */\n      tag_200\n      jump\t// in\n    tag_359:\n        /* \"#utility.yul\":14863:14902   */\n      tag_360\n        /* \"#utility.yul\":14893:14901   */\n      dup7\n        /* \"#utility.yul\":14882:14891   */\n      dup4\n        /* \"#utility.yul\":14863:14902   */\n      tag_200\n      jump\t// in\n    tag_360:\n        /* \"#utility.yul\":14851:14902   */\n      swap6\n      pop\n        /* \"#utility.yul\":14935:14939   */\n      dup1\n        /* \"#utility.yul\":14931:14940   */\n      not\n        /* \"#utility.yul\":14924:14929   */\n      dup5\n        /* \"#utility.yul\":14920:14941   */\n      and\n        /* \"#utility.yul\":14911:14941   */\n      swap4\n      pop\n        /* \"#utility.yul\":14984:14988   */\n      dup1\n        /* \"#utility.yul\":14974:14982   */\n      dup7\n        /* \"#utility.yul\":14970:14989   */\n      and\n        /* \"#utility.yul\":14963:14968   */\n      dup5\n        /* \"#utility.yul\":14960:14990   */\n      or\n        /* \"#utility.yul\":14950:14990   */\n      swap3\n      pop\n        /* \"#utility.yul\":14679:14996   */\n      pop\n      pop\n        /* \"#utility.yul\":14603:14996   */\n      swap4\n      swap3\n      pop\n      pop\n      pop\n      jump\t// out\n        /* \"#utility.yul\":15002:15062   */\n    tag_202:\n        /* \"#utility.yul\":15030:15033   */\n      0x00\n        /* \"#utility.yul\":15051:15056   */\n      dup2\n        /* \"#utility.yul\":15044:15056   */\n      swap1\n      pop\n        /* \"#utility.yul\":15002:15062   */\n      swap2\n      swap1\n      pop\n      jump\t// out\n        /* \"#utility.yul\":15068:15210   */\n    tag_203:\n        /* \"#utility.yul\":15118:15127   */\n      0x00\n        /* \"#utility.yul\":15151:15204   */\n      tag_363\n        /* \"#utility.yul\":15169:15203   */\n      tag_364\n        /* \"#utility.yul\":15178:15202   */\n      tag_365\n        /* \"#utility.yul\":15196:15201   */\n      dup5\n        /* \"#utility.yul\":15178:15202   */\n      tag_156\n      jump\t// in\n    tag_365:\n        /* \"#utility.yul\":15169:15203   */\n      tag_202\n      jump\t// in\n    tag_364:\n        /* \"#utility.yul\":15151:15204   */\n      tag_156\n      jump\t// in\n    tag_363:\n        /* \"#utility.yul\":15138:15204   */\n      swap1\n      pop\n        /* \"#utility.yul\":15068:15210   */\n      swap2\n      swap1\n      pop\n      jump\t// out\n        /* \"#utility.yul\":15216:15291   */\n    tag_204:\n        /* \"#utility.yul\":15259:15262   */\n      0x00\n        /* \"#utility.yul\":15280:15285   */\n      dup2\n        /* \"#utility.yul\":15273:15285   */\n      swap1\n      pop\n        /* \"#utility.yul\":15216:15291   */\n      swap2\n      swap1\n      pop\n      jump\t// out\n        /* \"#utility.yul\":15297:15566   */\n    tag_205:\n        /* \"#utility.yul\":15407:15446   */\n      tag_368\n        /* \"#utility.yul\":15438:15445   */\n      dup4\n        /* \"#utility.yul\":15407:15446   */\n      tag_203\n      jump\t// in\n    tag_368:\n        /* \"#utility.yul\":15468:15559   */\n      tag_369\n        /* \"#utility.yul\":15517:15558   */\n      tag_370\n        /* \"#utility.yul\":15541:15557   */\n      dup3\n        /* \"#utility.yul\":15517:15558   */\n      tag_204\n      jump\t// in\n    tag_370:\n        /* \"#utility.yul\":15509:15515   */\n      dup5\n        /* \"#utility.yul\":15502:15506   */\n      dup5\n        /* \"#utility.yul\":15496:15507   */\n      sload\n        /* \"#utility.yul\":15468:15559   */\n      tag_201\n      jump\t// in\n    tag_369:\n        /* \"#utility.yul\":15462:15466   */\n      dup3\n        /* \"#utility.yul\":15455:15560   */\n      sstore\n        /* \"#utility.yul\":15373:15566   */\n      pop\n        /* \"#utility.yul\":15297:15566   */\n      pop\n      pop\n      pop\n      jump\t// out\n        /* \"#utility.yul\":15572:15645   */\n    tag_206:\n        /* \"#utility.yul\":15617:15620   */\n      0x00\n        /* \"#utility.yul\":15638:15639   */\n      0x00\n        /* \"#utility.yul\":15631:15639   */\n      swap1\n      pop\n        /* \"#utility.yul\":15572:15645   */\n      swap1\n      jump\t// out\n        /* \"#utility.yul\":15651:15840   */\n    tag_207:\n        /* \"#utility.yul\":15728:15760   */\n      tag_373\n      tag_206\n      jump\t// in\n    tag_373:\n        /* \"#utility.yul\":15769:15834   */\n      tag_374\n        /* \"#utility.yul\":15827:15833   */\n      dup2\n        /* \"#utility.yul\":15819:15825   */\n      dup5\n        /* \"#utility.yul\":15813:15817   */\n      dup5\n        /* \"#utility.yul\":15769:15834   */\n      tag_205\n      jump\t// in\n    tag_374:\n        /* \"#utility.yul\":15704:15840   */\n      pop\n        /* \"#utility.yul\":15651:15840   */\n      pop\n      pop\n      jump\t// out\n        /* \"#utility.yul\":15846:16032   */\n    tag_208:\n        /* \"#utility.yul\":15906:16026   */\n    tag_376:\n        /* \"#utility.yul\":15923:15926   */\n      dup2\n        /* \"#utility.yul\":15916:15921   */\n      dup2\n        /* \"#utility.yul\":15913:15927   */\n      lt\n        /* \"#utility.yul\":15906:16026   */\n      iszero\n      tag_378\n      jumpi\n        /* \"#utility.yul\":15977:16016   */\n      tag_379\n        /* \"#utility.yul\":16014:16015   */\n      0x00\n        /* \"#utility.yul\":16007:16012   */\n      dup3\n        /* \"#utility.yul\":15977:16016   */\n      tag_207\n      jump\t// in\n    tag_379:\n        /* \"#utility.yul\":15950:15951   */\n      0x01\n        /* \"#utility.yul\":15943:15948   */\n      dup2\n        /* \"#utility.yul\":15939:15952   */\n      add\n        /* \"#utility.yul\":15930:15952   */\n      swap1\n      pop\n        /* \"#utility.yul\":15906:16026   */\n      jump(tag_376)\n    tag_378:\n        /* \"#utility.yul\":15846:16032   */\n      pop\n      pop\n      jump\t// out\n        /* \"#utility.yul\":16038:16579   */\n    tag_209:\n        /* \"#utility.yul\":16138:16140   */\n      0x1f\n        /* \"#utility.yul\":16133:16136   */\n      dup3\n        /* \"#utility.yul\":16130:16141   */\n      gt\n        /* \"#utility.yul\":16127:16572   */\n      iszero\n      tag_381\n      jumpi\n        /* \"#utility.yul\":16172:16209   */\n      tag_382\n        /* \"#utility.yul\":16203:16208   */\n      dup2\n        /* \"#utility.yul\":16172:16209   */\n      tag_198\n      jump\t// in\n    tag_382:\n        /* \"#utility.yul\":16255:16284   */\n      tag_383\n        /* \"#utility.yul\":16273:16283   */\n      dup5\n        /* \"#utility.yul\":16255:16284   */\n      tag_199\n      jump\t// in\n    tag_383:\n        /* \"#utility.yul\":16245:16253   */\n      dup2\n        /* \"#utility.yul\":16241:16285   */\n      add\n        /* \"#utility.yul\":16438:16440   */\n      0x20\n        /* \"#utility.yul\":16426:16436   */\n      dup6\n        /* \"#utility.yul\":16423:16441   */\n      lt\n        /* \"#utility.yul\":16420:16469   */\n      iszero\n      tag_384\n      jumpi\n        /* \"#utility.yul\":16459:16467   */\n      dup2\n        /* \"#utility.yul\":16444:16467   */\n      swap1\n      pop\n        /* \"#utility.yul\":16420:16469   */\n    tag_384:\n        /* \"#utility.yul\":16482:16562   */\n      tag_385\n        /* \"#utility.yul\":16538:16560   */\n      tag_386\n        /* \"#utility.yul\":16556:16559   */\n      dup6\n        /* \"#utility.yul\":16538:16560   */\n      tag_199\n      jump\t// in\n    tag_386:\n        /* \"#utility.yul\":16528:16536   */\n      dup4\n        /* \"#utility.yul\":16524:16561   */\n      add\n        /* \"#utility.yul\":16511:16522   */\n      dup3\n        /* \"#utility.yul\":16482:16562   */\n      tag_208\n      jump\t// in\n    tag_385:\n        /* \"#utility.yul\":16142:16572   */\n      pop\n      pop\n        /* \"#utility.yul\":16127:16572   */\n    tag_381:\n        /* \"#utility.yul\":16038:16579   */\n      pop\n      pop\n      pop\n      jump\t// out\n        /* \"#utility.yul\":16585:16702   */\n    tag_210:\n        /* \"#utility.yul\":16639:16647   */\n      0x00\n        /* \"#utility.yul\":16689:16694   */\n      dup3\n        /* \"#utility.yul\":16683:16687   */\n      dup3\n        /* \"#utility.yul\":16679:16695   */\n      shr\n        /* \"#utility.yul\":16658:16695   */\n      swap1\n      pop\n        /* \"#utility.yul\":16585:16702   */\n      swap3\n      swap2\n      pop\n      pop\n      jump\t// out\n        /* \"#utility.yul\":16708:16877   */\n    tag_211:\n        /* \"#utility.yul\":16752:16758   */\n      0x00\n        /* \"#utility.yul\":16785:16836   */\n      tag_389\n        /* \"#utility.yul\":16833:16834   */\n      0x00\n        /* \"#utility.yul\":16829:16835   */\n      not\n        /* \"#utility.yul\":16821:16826   */\n      dup5\n        /* \"#utility.yul\":16818:16819   */\n      0x08\n        /* \"#utility.yul\":16814:16827   */\n      mul\n        /* \"#utility.yul\":16785:16836   */\n      tag_210\n      jump\t// in\n    tag_389:\n        /* \"#utility.yul\":16781:16837   */\n      not\n        /* \"#utility.yul\":16866:16870   */\n      dup1\n        /* \"#utility.yul\":16860:16864   */\n      dup4\n        /* \"#utility.yul\":16856:16871   */\n      and\n        /* \"#utility.yul\":16846:16871   */\n      swap2\n      pop\n        /* \"#utility.yul\":16759:16877   */\n      pop\n        /* \"#utility.yul\":16708:16877   */\n      swap3\n      swap2\n      pop\n      pop\n      jump\t// out\n        /* \"#utility.yul\":16882:17177   */\n    tag_212:\n        /* \"#utility.yul\":16958:16962   */\n      0x00\n        /* \"#utility.yul\":17104:17133   */\n      tag_391\n        /* \"#utility.yul\":17129:17132   */\n      dup4\n        /* \"#utility.yul\":17123:17127   */\n      dup4\n        /* \"#utility.yul\":17104:17133   */\n      tag_211\n      jump\t// in\n    tag_391:\n        /* \"#utility.yul\":17096:17133   */\n      swap2\n      pop\n        /* \"#utility.yul\":17166:17169   */\n      dup3\n        /* \"#utility.yul\":17163:17164   */\n      0x02\n        /* \"#utility.yul\":17159:17170   */\n      mul\n        /* \"#utility.yul\":17153:17157   */\n      dup3\n        /* \"#utility.yul\":17150:17171   */\n      or\n        /* \"#utility.yul\":17142:17171   */\n      swap1\n      pop\n        /* \"#utility.yul\":16882:17177   */\n      swap3\n      swap2\n      pop\n      pop\n      jump\t// out\n        /* \"#utility.yul\":17182:18572   */\n    tag_116:\n        /* \"#utility.yul\":17297:17333   */\n      tag_393\n        /* \"#utility.yul\":17329:17332   */\n      dup3\n        /* \"#utility.yul\":17297:17333   */\n      tag_170\n      jump\t// in\n    tag_393:\n        /* \"#utility.yul\":17398:17416   */\n      0xffffffffffffffff\n        /* \"#utility.yul\":17390:17396   */\n      dup2\n        /* \"#utility.yul\":17387:17417   */\n      gt\n        /* \"#utility.yul\":17384:17440   */\n      iszero\n      tag_394\n      jumpi\n        /* \"#utility.yul\":17420:17438   */\n      tag_395\n      tag_197\n      jump\t// in\n    tag_395:\n        /* \"#utility.yul\":17384:17440   */\n    tag_394:\n        /* \"#utility.yul\":17464:17502   */\n      tag_396\n        /* \"#utility.yul\":17496:17500   */\n      dup3\n        /* \"#utility.yul\":17490:17501   */\n      sload\n        /* \"#utility.yul\":17464:17502   */\n      tag_105\n      jump\t// in\n    tag_396:\n        /* \"#utility.yul\":17549:17615   */\n      tag_397\n        /* \"#utility.yul\":17608:17614   */\n      dup3\n        /* \"#utility.yul\":17600:17606   */\n      dup3\n        /* \"#utility.yul\":17594:17598   */\n      dup6\n        /* \"#utility.yul\":17549:17615   */\n      tag_209\n      jump\t// in\n    tag_397:\n        /* \"#utility.yul\":17642:17643   */\n      0x00\n        /* \"#utility.yul\":17666:17670   */\n      0x20\n        /* \"#utility.yul\":17653:17670   */\n      swap1\n      pop\n        /* \"#utility.yul\":17698:17700   */\n      0x1f\n        /* \"#utility.yul\":17690:17696   */\n      dup4\n        /* \"#utility.yul\":17687:17701   */\n      gt\n        /* \"#utility.yul\":17715:17716   */\n      0x01\n        /* \"#utility.yul\":17710:18327   */\n      dup2\n      eq\n      tag_399\n      jumpi\n        /* \"#utility.yul\":18371:18372   */\n      0x00\n        /* \"#utility.yul\":18388:18394   */\n      dup5\n        /* \"#utility.yul\":18385:18462   */\n      iszero\n      tag_400\n      jumpi\n        /* \"#utility.yul\":18437:18446   */\n      dup3\n        /* \"#utility.yul\":18432:18435   */\n      dup8\n        /* \"#utility.yul\":18428:18447   */\n      add\n        /* \"#utility.yul\":18422:18448   */\n      mload\n        /* \"#utility.yul\":18413:18448   */\n      swap1\n      pop\n        /* \"#utility.yul\":18385:18462   */\n    tag_400:\n        /* \"#utility.yul\":18488:18555   */\n      tag_401\n        /* \"#utility.yul\":18548:18554   */\n      dup6\n        /* \"#utility.yul\":18541:18546   */\n      dup3\n        /* \"#utility.yul\":18488:18555   */\n      tag_212\n      jump\t// in\n    tag_401:\n        /* \"#utility.yul\":18482:18486   */\n      dup7\n        /* \"#utility.yul\":18475:18556   */\n      sstore\n        /* \"#utility.yul\":18344:18566   */\n      pop\n        /* \"#utility.yul\":17680:18566   */\n      jump(tag_398)\n        /* \"#utility.yul\":17710:18327   */\n    tag_399:\n        /* \"#utility.yul\":17762:17766   */\n      0x1f\n        /* \"#utility.yul\":17758:17767   */\n      not\n        /* \"#utility.yul\":17750:17756   */\n      dup5\n        /* \"#utility.yul\":17746:17768   */\n      and\n        /* \"#utility.yul\":17796:17832   */\n      tag_402\n        /* \"#utility.yul\":17827:17831   */\n      dup7\n        /* \"#utility.yul\":17796:17832   */\n      tag_198\n      jump\t// in\n    tag_402:\n        /* \"#utility.yul\":17854:17855   */\n      0x00\n        /* \"#utility.yul\":17868:18076   */\n    tag_403:\n        /* \"#utility.yul\":17882:17889   */\n      dup3\n        /* \"#utility.yul\":17879:17880   */\n      dup2\n        /* \"#utility.yul\":17876:17890   */\n      lt\n        /* \"#utility.yul\":17868:18076   */\n      iszero\n      tag_405\n      jumpi\n        /* \"#utility.yul\":17961:17970   */\n      dup5\n        /* \"#utility.yul\":17956:17959   */\n      dup10\n        /* \"#utility.yul\":17952:17971   */\n      add\n        /* \"#utility.yul\":17946:17972   */\n      mload\n        /* \"#utility.yul\":17938:17944   */\n      dup3\n        /* \"#utility.yul\":17931:17973   */\n      sstore\n        /* \"#utility.yul\":18012:18013   */\n      0x01\n        /* \"#utility.yul\":18004:18010   */\n      dup3\n        /* \"#utility.yul\":18000:18014   */\n      add\n        /* \"#utility.yul\":17990:18014   */\n      swap2\n      pop\n        /* \"#utility.yul\":18059:18061   */\n      0x20\n        /* \"#utility.yul\":18048:18057   */\n      dup6\n        /* \"#utility.yul\":18044:18062   */\n      add\n        /* \"#utility.yul\":18031:18062   */\n      swap5\n      pop\n        /* \"#utility.yul\":17905:17909   */\n      0x20\n        /* \"#utility.yul\":17902:17903   */\n      dup2\n        /* \"#utility.yul\":17898:17910   */\n      add\n        /* \"#utility.yul\":17893:17910   */\n      swap1\n      pop\n        /* \"#utility.yul\":17868:18076   */\n      jump(tag_403)\n    tag_405:\n        /* \"#utility.yul\":18104:18110   */\n      dup7\n        /* \"#utility.yul\":18095:18102   */\n      dup4\n        /* \"#utility.yul\":18092:18111   */\n      lt\n        /* \"#utility.yul\":18089:18268   */\n      iszero\n      tag_406\n      jumpi\n        /* \"#utility.yul\":18162:18171   */\n      dup5\n        /* \"#utility.yul\":18157:18160   */\n      dup10\n        /* \"#utility.yul\":18153:18172   */\n      add\n        /* \"#utility.yul\":18147:18173   */\n      mload\n        /* \"#utility.yul\":18205:18253   */\n      tag_407\n        /* \"#utility.yul\":18247:18251   */\n      0x1f\n        /* \"#utility.yul\":18239:18245   */\n      dup10\n        /* \"#utility.yul\":18235:18252   */\n      and\n        /* \"#utility.yul\":18224:18233   */\n      dup3\n        /* \"#utility.yul\":18205:18253   */\n      tag_211\n      jump\t// in\n    tag_407:\n        /* \"#utility.yul\":18197:18203   */\n      dup4\n        /* \"#utility.yul\":18190:18254   */\n      sstore\n        /* \"#utility.yul\":18112:18268   */\n      pop\n        /* \"#utility.yul\":18089:18268   */\n    tag_406:\n        /* \"#utility.yul\":18314:18315   */\n      0x01\n        /* \"#utility.yul\":18310:18311   */\n      0x02\n        /* \"#utility.yul\":18302:18308   */\n      dup9\n        /* \"#utility.yul\":18298:18312   */\n      mul\n        /* \"#utility.yul\":18294:18316   */\n      add\n        /* \"#utility.yul\":18288:18292   */\n      dup9\n        /* \"#utility.yul\":18281:18317   */\n      sstore\n        /* \"#utility.yul\":17717:18327   */\n      pop\n      pop\n      pop\n        /* \"#utility.yul\":17680:18566   */\n    tag_398:\n      pop\n        /* \"#utility.yul\":17272:18572   */\n      pop\n      pop\n      pop\n        /* \"#utility.yul\":17182:18572   */\n      pop\n      pop\n      jump\t// out\n        /* \"#utility.yul\":18578:18726   */\n    tag_213:\n        /* \"#utility.yul\":18676:18682   */\n      dup3\n        /* \"#utility.yul\":18671:18674   */\n      dup2\n        /* \"#utility.yul\":18666:18669   */\n      dup4\n        /* \"#utility.yul\":18653:18683   */\n      calldatacopy\n        /* \"#utility.yul\":18717:18718   */\n      0x00\n        /* \"#utility.yul\":18708:18714   */\n      dup4\n        /* \"#utility.yul\":18703:18706   */\n      dup4\n        /* \"#utility.yul\":18699:18715   */\n      add\n        /* \"#utility.yul\":18692:18719   */\n      mstore\n        /* \"#utility.yul\":18578:18726   */\n      pop\n      pop\n      pop\n      jump\t// out\n        /* \"#utility.yul\":18754:19068   */\n    tag_214:\n        /* \"#utility.yul\":18850:18853   */\n      0x00\n        /* \"#utility.yul\":18871:18941   */\n      tag_410\n        /* \"#utility.yul\":18934:18940   */\n      dup4\n        /* \"#utility.yul\":18929:18932   */\n      dup6\n        /* \"#utility.yul\":18871:18941   */\n      tag_171\n      jump\t// in\n    tag_410:\n        /* \"#utility.yul\":18864:18941   */\n      swap4\n      pop\n        /* \"#utility.yul\":18951:19007   */\n      tag_411\n        /* \"#utility.yul\":19000:19006   */\n      dup4\n        /* \"#utility.yul\":18995:18998   */\n      dup6\n        /* \"#utility.yul\":18988:18993   */\n      dup5\n        /* \"#utility.yul\":18951:19007   */\n      tag_213\n      jump\t// in\n    tag_411:\n        /* \"#utility.yul\":19032:19061   */\n      tag_412\n        /* \"#utility.yul\":19054:19060   */\n      dup4\n        /* \"#utility.yul\":19032:19061   */\n      tag_173\n      jump\t// in\n    tag_412:\n        /* \"#utility.yul\":19027:19030   */\n      dup5\n        /* \"#utility.yul\":19023:19062   */\n      add\n        /* \"#utility.yul\":19016:19062   */\n      swap1\n      pop\n        /* \"#utility.yul\":18754:19068   */\n      swap4\n      swap3\n      pop\n      pop\n      pop\n      jump\t// out\n        /* \"#utility.yul\":19074:19513   */\n    tag_118:\n        /* \"#utility.yul\":19223:19227   */\n      0x00\n        /* \"#utility.yul\":19261:19263   */\n      0x40\n        /* \"#utility.yul\":19250:19259   */\n      dup3\n        /* \"#utility.yul\":19246:19264   */\n      add\n        /* \"#utility.yul\":19238:19264   */\n      swap1\n      pop\n        /* \"#utility.yul\":19274:19345   */\n      tag_414\n        /* \"#utility.yul\":19342:19343   */\n      0x00\n        /* \"#utility.yul\":19331:19340   */\n      dup4\n        /* \"#utility.yul\":19327:19344   */\n      add\n        /* \"#utility.yul\":19318:19324   */\n      dup7\n        /* \"#utility.yul\":19274:19345   */\n      tag_157\n      jump\t// in\n    tag_414:\n        /* \"#utility.yul\":19392:19401   */\n      dup2\n        /* \"#utility.yul\":19386:19390   */\n      dup2\n        /* \"#utility.yul\":19382:19402   */\n      sub\n        /* \"#utility.yul\":19377:19379   */\n      0x20\n        /* \"#utility.yul\":19366:19375   */\n      dup4\n        /* \"#utility.yul\":19362:19380   */\n      add\n        /* \"#utility.yul\":19355:19403   */\n      mstore\n        /* \"#utility.yul\":19420:19506   */\n      tag_415\n        /* \"#utility.yul\":19501:19505   */\n      dup2\n        /* \"#utility.yul\":19492:19498   */\n      dup5\n        /* \"#utility.yul\":19484:19490   */\n      dup7\n        /* \"#utility.yul\":19420:19506   */\n      tag_214\n      jump\t// in\n    tag_415:\n        /* \"#utility.yul\":19412:19506   */\n      swap1\n      pop\n        /* \"#utility.yul\":19074:19513   */\n      swap5\n      swap4\n      pop\n      pop\n      pop\n      pop\n      jump\t// out\n        /* \"#utility.yul\":19519:19691   */\n    tag_215:\n        /* \"#utility.yul\":19659:19683   */\n      0x496e73756666696369656e7420417070726f76616c7300000000000000000000\n        /* \"#utility.yul\":19655:19656   */\n      0x00\n        /* \"#utility.yul\":19647:19653   */\n      dup3\n        /* \"#utility.yul\":19643:19657   */\n      add\n        /* \"#utility.yul\":19636:19684   */\n      mstore\n        /* \"#utility.yul\":19519:19691   */\n      pop\n      jump\t// out\n        /* \"#utility.yul\":19697:20063   */\n    tag_216:\n        /* \"#utility.yul\":19839:19842   */\n      0x00\n        /* \"#utility.yul\":19860:19927   */\n      tag_418\n        /* \"#utility.yul\":19924:19926   */\n      0x16\n        /* \"#utility.yul\":19919:19922   */\n      dup4\n        /* \"#utility.yul\":19860:19927   */\n      tag_186\n      jump\t// in\n    tag_418:\n        /* \"#utility.yul\":19853:19927   */\n      swap2\n      pop\n        /* \"#utility.yul\":19936:20029   */\n      tag_419\n        /* \"#utility.yul\":20025:20028   */\n      dup3\n        /* \"#utility.yul\":19936:20029   */\n      tag_215\n      jump\t// in\n    tag_419:\n        /* \"#utility.yul\":20054:20056   */\n      0x20\n        /* \"#utility.yul\":20049:20052   */\n      dup3\n        /* \"#utility.yul\":20045:20057   */\n      add\n        /* \"#utility.yul\":20038:20057   */\n      swap1\n      pop\n        /* \"#utility.yul\":19697:20063   */\n      swap2\n      swap1\n      pop\n      jump\t// out\n        /* \"#utility.yul\":20069:20488   */\n    tag_147:\n        /* \"#utility.yul\":20235:20239   */\n      0x00\n        /* \"#utility.yul\":20273:20275   */\n      0x20\n        /* \"#utility.yul\":20262:20271   */\n      dup3\n        /* \"#utility.yul\":20258:20276   */\n      add\n        /* \"#utility.yul\":20250:20276   */\n      swap1\n      pop\n        /* \"#utility.yul\":20322:20331   */\n      dup2\n        /* \"#utility.yul\":20316:20320   */\n      dup2\n        /* \"#utility.yul\":20312:20332   */\n      sub\n        /* \"#utility.yul\":20308:20309   */\n      0x00\n        /* \"#utility.yul\":20297:20306   */\n      dup4\n        /* \"#utility.yul\":20293:20310   */\n      add\n        /* \"#utility.yul\":20286:20333   */\n      mstore\n        /* \"#utility.yul\":20350:20481   */\n      tag_421\n        /* \"#utility.yul\":20476:20480   */\n      dup2\n        /* \"#utility.yul\":20350:20481   */\n      tag_216\n      jump\t// in\n    tag_421:\n        /* \"#utility.yul\":20342:20481   */\n      swap1\n      pop\n        /* \"#utility.yul\":20069:20488   */\n      swap2\n      swap1\n      pop\n      jump\t// out\n        /* \"#utility.yul\":20494:20641   */\n    tag_217:\n        /* \"#utility.yul\":20595:20606   */\n      0x00\n        /* \"#utility.yul\":20632:20635   */\n      dup2\n        /* \"#utility.yul\":20617:20635   */\n      swap1\n      pop\n        /* \"#utility.yul\":20494:20641   */\n      swap3\n      swap2\n      pop\n      pop\n      jump\t// out\n        /* \"#utility.yul\":20669:21539   */\n    tag_218:\n        /* \"#utility.yul\":20770:20773   */\n      0x00\n        /* \"#utility.yul\":20807:20812   */\n      dup2\n        /* \"#utility.yul\":20801:20813   */\n      sload\n        /* \"#utility.yul\":20836:20872   */\n      tag_424\n        /* \"#utility.yul\":20862:20871   */\n      dup2\n        /* \"#utility.yul\":20836:20872   */\n      tag_105\n      jump\t// in\n    tag_424:\n        /* \"#utility.yul\":20888:20976   */\n      tag_425\n        /* \"#utility.yul\":20969:20975   */\n      dup2\n        /* \"#utility.yul\":20964:20967   */\n      dup7\n        /* \"#utility.yul\":20888:20976   */\n      tag_217\n      jump\t// in\n    tag_425:\n        /* \"#utility.yul\":20881:20976   */\n      swap5\n      pop\n        /* \"#utility.yul\":21007:21008   */\n      0x01\n        /* \"#utility.yul\":20996:21005   */\n      dup3\n        /* \"#utility.yul\":20992:21009   */\n      and\n        /* \"#utility.yul\":21023:21024   */\n      0x00\n        /* \"#utility.yul\":21018:21184   */\n      dup2\n      eq\n      tag_427\n      jumpi\n        /* \"#utility.yul\":21198:21199   */\n      0x01\n        /* \"#utility.yul\":21193:21533   */\n      dup2\n      eq\n      tag_428\n      jumpi\n        /* \"#utility.yul\":20985:21533   */\n      jump(tag_426)\n        /* \"#utility.yul\":21018:21184   */\n    tag_427:\n        /* \"#utility.yul\":21102:21106   */\n      0xff\n        /* \"#utility.yul\":21098:21107   */\n      not\n        /* \"#utility.yul\":21087:21096   */\n      dup4\n        /* \"#utility.yul\":21083:21108   */\n      and\n        /* \"#utility.yul\":21078:21081   */\n      dup7\n        /* \"#utility.yul\":21071:21109   */\n      mstore\n        /* \"#utility.yul\":21164:21170   */\n      dup2\n        /* \"#utility.yul\":21157:21171   */\n      iszero\n        /* \"#utility.yul\":21150:21172   */\n      iszero\n        /* \"#utility.yul\":21142:21148   */\n      dup3\n        /* \"#utility.yul\":21138:21173   */\n      mul\n        /* \"#utility.yul\":21133:21136   */\n      dup7\n        /* \"#utility.yul\":21129:21174   */\n      add\n        /* \"#utility.yul\":21122:21174   */\n      swap4\n      pop\n        /* \"#utility.yul\":21018:21184   */\n      jump(tag_426)\n        /* \"#utility.yul\":21193:21533   */\n    tag_428:\n        /* \"#utility.yul\":21260:21297   */\n      tag_429\n        /* \"#utility.yul\":21291:21296   */\n      dup6\n        /* \"#utility.yul\":21260:21297   */\n      tag_198\n      jump\t// in\n    tag_429:\n        /* \"#utility.yul\":21319:21320   */\n      0x00\n        /* \"#utility.yul\":21333:21487   */\n    tag_430:\n        /* \"#utility.yul\":21347:21353   */\n      dup4\n        /* \"#utility.yul\":21344:21345   */\n      dup2\n        /* \"#utility.yul\":21341:21354   */\n      lt\n        /* \"#utility.yul\":21333:21487   */\n      iszero\n      tag_432\n      jumpi\n        /* \"#utility.yul\":21421:21428   */\n      dup2\n        /* \"#utility.yul\":21415:21429   */\n      sload\n        /* \"#utility.yul\":21411:21412   */\n      dup2\n        /* \"#utility.yul\":21406:21409   */\n      dup10\n        /* \"#utility.yul\":21402:21413   */\n      add\n        /* \"#utility.yul\":21395:21430   */\n      mstore\n        /* \"#utility.yul\":21471:21472   */\n      0x01\n        /* \"#utility.yul\":21462:21469   */\n      dup3\n        /* \"#utility.yul\":21458:21473   */\n      add\n        /* \"#utility.yul\":21447:21473   */\n      swap2\n      pop\n        /* \"#utility.yul\":21369:21373   */\n      0x20\n        /* \"#utility.yul\":21366:21367   */\n      dup2\n        /* \"#utility.yul\":21362:21374   */\n      add\n        /* \"#utility.yul\":21357:21374   */\n      swap1\n      pop\n        /* \"#utility.yul\":21333:21487   */\n      jump(tag_430)\n    tag_432:\n        /* \"#utility.yul\":21516:21522   */\n      dup4\n        /* \"#utility.yul\":21511:21514   */\n      dup9\n        /* \"#utility.yul\":21507:21523   */\n      add\n        /* \"#utility.yul\":21500:21523   */\n      swap6\n      pop\n        /* \"#utility.yul\":21200:21533   */\n      pop\n      pop\n        /* \"#utility.yul\":20985:21533   */\n    tag_426:\n      pop\n        /* \"#utility.yul\":20774:21539   */\n      pop\n      pop\n        /* \"#utility.yul\":20669:21539   */\n      swap3\n      swap2\n      pop\n      pop\n      jump\t// out\n        /* \"#utility.yul\":21545:21810   */\n    tag_149:\n        /* \"#utility.yul\":21672:21675   */\n      0x00\n        /* \"#utility.yul\":21694:21784   */\n      tag_434\n        /* \"#utility.yul\":21780:21783   */\n      dup3\n        /* \"#utility.yul\":21771:21777   */\n      dup5\n        /* \"#utility.yul\":21694:21784   */\n      tag_218\n      jump\t// in\n    tag_434:\n        /* \"#utility.yul\":21687:21784   */\n      swap2\n      pop\n        /* \"#utility.yul\":21801:21804   */\n      dup2\n        /* \"#utility.yul\":21794:21804   */\n      swap1\n      pop\n        /* \"#utility.yul\":21545:21810   */\n      swap3\n      swap2\n      pop\n      pop\n      jump\t// out\n        /* \"#utility.yul\":21816:21984   */\n    tag_219:\n        /* \"#utility.yul\":21956:21976   */\n      0x5472616e73616374696f6e206661696c65640000000000000000000000000000\n        /* \"#utility.yul\":21952:21953   */\n      0x00\n        /* \"#utility.yul\":21944:21950   */\n      dup3\n        /* \"#utility.yul\":21940:21954   */\n      add\n        /* \"#utility.yul\":21933:21977   */\n      mstore\n        /* \"#utility.yul\":21816:21984   */\n      pop\n      jump\t// out\n        /* \"#utility.yul\":21990:22356   */\n    tag_220:\n        /* \"#utility.yul\":22132:22135   */\n      0x00\n        /* \"#utility.yul\":22153:22220   */\n      tag_437\n        /* \"#utility.yul\":22217:22219   */\n      0x12\n        /* \"#utility.yul\":22212:22215   */\n      dup4\n        /* \"#utility.yul\":22153:22220   */\n      tag_186\n      jump\t// in\n    tag_437:\n        /* \"#utility.yul\":22146:22220   */\n      swap2\n      pop\n        /* \"#utility.yul\":22229:22322   */\n      tag_438\n        /* \"#utility.yul\":22318:22321   */\n      dup3\n        /* \"#utility.yul\":22229:22322   */\n      tag_219\n      jump\t// in\n    tag_438:\n        /* \"#utility.yul\":22347:22349   */\n      0x20\n        /* \"#utility.yul\":22342:22345   */\n      dup3\n        /* \"#utility.yul\":22338:22350   */\n      add\n        /* \"#utility.yul\":22331:22350   */\n      swap1\n      pop\n        /* \"#utility.yul\":21990:22356   */\n      swap2\n      swap1\n      pop\n      jump\t// out\n        /* \"#utility.yul\":22362:22781   */\n    tag_155:\n        /* \"#utility.yul\":22528:22532   */\n      0x00\n        /* \"#utility.yul\":22566:22568   */\n      0x20\n        /* \"#utility.yul\":22555:22564   */\n      dup3\n        /* \"#utility.yul\":22551:22569   */\n      add\n        /* \"#utility.yul\":22543:22569   */\n      swap1\n      pop\n        /* \"#utility.yul\":22615:22624   */\n      dup2\n        /* \"#utility.yul\":22609:22613   */\n      dup2\n        /* \"#utility.yul\":22605:22625   */\n      sub\n        /* \"#utility.yul\":22601:22602   */\n      0x00\n        /* \"#utility.yul\":22590:22599   */\n      dup4\n        /* \"#utility.yul\":22586:22603   */\n      add\n        /* \"#utility.yul\":22579:22626   */\n      mstore\n        /* \"#utility.yul\":22643:22774   */\n      tag_440\n        /* \"#utility.yul\":22769:22773   */\n      dup2\n        /* \"#utility.yul\":22643:22774   */\n      tag_220\n      jump\t// in\n    tag_440:\n        /* \"#utility.yul\":22635:22774   */\n      swap1\n      pop\n        /* \"#utility.yul\":22362:22781   */\n      swap2\n      swap1\n      pop\n      jump\t// out\n\n    auxdata: 0xa26469706673582212200ea1035925480f91de839de5e4ff4a7d6f1f302893e1e8798b4a4a1673d85fa764736f6c634300081e0033\n}\n",
				"bytecode": {
					"linkReferences": {},
					"object": "6080604052604051611ff9380380611ff983398181016040528101906100259190610499565b5f825111610068576040517f08c379a000000000000000000000000000000000000000000000000000000000815260040161005f9061054d565b60405180910390fd5b5f81118015610078575081518111155b6100b7576040517f08c379a00000000000000000000000000000000000000000000000000000000081526004016100ae906105b5565b60405180910390fd5b5f5f90505b825181101561029c575f8382815181106100d9576100d86105d3565b5b602002602001015190505f73ffffffffffffffffffffffffffffffffffffffff168173ffffffffffffffffffffffffffffffffffffffff1603610151576040517f08c379a00000000000000000000000000000000000000000000000000000000081526004016101489061064a565b60405180910390fd5b60015f8273ffffffffffffffffffffffffffffffffffffffff1673ffffffffffffffffffffffffffffffffffffffff1681526020019081526020015f205f9054906101000a900460ff16156101db576040517f08c379a00000000000000000000000000000000000000000000000000000000081526004016101d2906106b2565b60405180910390fd5b6001805f8373ffffffffffffffffffffffffffffffffffffffff1673ffffffffffffffffffffffffffffffffffffffff1681526020019081526020015f205f6101000a81548160ff0219169083151502179055505f81908060018154018082558091505060019003905f5260205f20015f9091909190916101000a81548173ffffffffffffffffffffffffffffffffffffffff021916908373ffffffffffffffffffffffffffffffffffffffff1602179055505080806001019150506100bc565b508060028190555050506106d0565b5f604051905090565b5f5ffd5b5f5ffd5b5f5ffd5b5f601f19601f8301169050919050565b7f4e487b71000000000000000000000000000000000000000000000000000000005f52604160045260245ffd5b610306826102c0565b810181811067ffffffffffffffff82111715610325576103246102d0565b5b80604052505050565b5f6103376102ab565b905061034382826102fd565b919050565b5f67ffffffffffffffff821115610362576103616102d0565b5b602082029050602081019050919050565b5f5ffd5b5f73ffffffffffffffffffffffffffffffffffffffff82169050919050565b5f6103a082610377565b9050919050565b6103b081610396565b81146103ba575f5ffd5b50565b5f815190506103cb816103a7565b92915050565b5f6103e36103de84610348565b61032e565b9050808382526020820190506020840283018581111561040657610405610373565b5b835b8181101561042f578061041b88826103bd565b845260208401935050602081019050610408565b5050509392505050565b5f82601f83011261044d5761044c6102bc565b5b815161045d8482602086016103d1565b91505092915050565b5f819050919050565b61047881610466565b8114610482575f5ffd5b50565b5f815190506104938161046f565b92915050565b5f5f604083850312156104af576104ae6102b4565b5b5f83015167ffffffffffffffff8111156104cc576104cb6102b8565b5b6104d885828601610439565b92505060206104e985828601610485565b9150509250929050565b5f82825260208201905092915050565b7f4f776e65727320726571756972656400000000000000000000000000000000005f82015250565b5f610537600f836104f3565b915061054282610503565b602082019050919050565b5f6020820190508181035f8301526105648161052b565b9050919050565b7f496e76616c696420617070726f76616c20726571756972656d656e74730000005f82015250565b5f61059f601d836104f3565b91506105aa8261056b565b602082019050919050565b5f6020820190508181035f8301526105cc81610593565b9050919050565b7f4e487b71000000000000000000000000000000000000000000000000000000005f52603260045260245ffd5b7f496e76616c6964206f776e6572000000000000000000000000000000000000005f82015250565b5f610634600d836104f3565b915061063f82610600565b602082019050919050565b5f6020820190508181035f83015261066181610628565b9050919050565b7f4475706c6963617465206f776e657200000000000000000000000000000000005f82015250565b5f61069c600f836104f3565b91506106a782610668565b602082019050919050565b5f6020820190508181035f8301526106c981610690565b9050919050565b61191c806106dd5f395ff3fe608060405260043610610094575f3560e01c80633e4445ae116100585780633e4445ae146101f75780638253951a1461021f5780639ace38c21461025b578063a0e67e2b1461029b578063ee22610b146102c5576100e9565b8063025e7c27146100ed578063242232d1146101295780632e7700f0146101515780632f54bf6e1461017b57806333ea3dc8146101b7576100e9565b366100e9573373ffffffffffffffffffffffffffffffffffffffff167fe1fffcc4923d04b559f4d29a8bfc6cda04eb5b0d3c460751c2402c5c5cc9109c346040516100df9190610dd1565b60405180910390a2005b5f5ffd5b3480156100f8575f5ffd5b50610113600480360381019061010e9190610e1c565b6102ed565b6040516101209190610e86565b60405180910390f35b348015610134575f5ffd5b5061014f600480360381019061014a9190610e1c565b610327565b005b34801561015c575f5ffd5b506101656105eb565b6040516101729190610dd1565b60405180910390f35b348015610186575f5ffd5b506101a1600480360381019061019c9190610ec9565b6105f7565b6040516101ae9190610f0e565b60405180910390f35b3480156101c2575f5ffd5b506101dd60048036038101906101d89190610e1c565b610614565b6040516101ee959493929190610f97565b60405180910390f35b348015610202575f5ffd5b5061021d60048036038101906102189190611050565b61071d565b005b34801561022a575f5ffd5b50610245600480360381019061024091906110c1565b610942565b6040516102529190610f0e565b60405180910390f35b348015610266575f5ffd5b50610281600480360381019061027c9190610e1c565b61096c565b604051610292959493929190610f97565b60405180910390f35b3480156102a6575f5ffd5b506102af610a5e565b6040516102bc91906111b6565b60405180910390f35b3480156102d0575f5ffd5b506102eb60048036038101906102e69190610e1c565b610ae8565b005b5f81815481106102fb575f80fd5b905f5260205f20015f915054906101000a900473ffffffffffffffffffffffffffffffffffffffff1681565b60015f3373ffffffffffffffffffffffffffffffffffffffff1673ffffffffffffffffffffffffffffffffffffffff1681526020019081526020015f205f9054906101000a900460ff166103b0576040517f08c379a00000000000000000000000000000000000000000000000000000000081526004016103a790611230565b60405180910390fd5b8060045f8281526020019081526020015f205f3373ffffffffffffffffffffffffffffffffffffffff1673ffffffffffffffffffffffffffffffffffffffff1681526020019081526020015f205f9054906101000a900460ff161561044a576040517f08c379a000000000000000000000000000000000000000000000000000000000815260040161044190611298565b60405180910390fd5b816003818154811061045f5761045e6112b6565b5b905f5260205f2090600502016003015f9054906101000a900460ff16156104bb576040517f08c379a00000000000000000000000000000000000000000000000000000000081526004016104b29061132d565b60405180910390fd5b826003805490508110610503576040517f08c379a00000000000000000000000000000000000000000000000000000000081526004016104fa90611395565b60405180910390fd5b600160045f8681526020019081526020015f205f3373ffffffffffffffffffffffffffffffffffffffff1673ffffffffffffffffffffffffffffffffffffffff1681526020019081526020015f205f6101000a81548160ff02191690831515021790555060016003858154811061057d5761057c6112b6565b5b905f5260205f2090600502016004015f82825461059a91906113e0565b92505081905550833373ffffffffffffffffffffffffffffffffffffffff167f7b19c08b12f940ea76949b68d355070966056a862ad2c1aa6676ecbcc9538a6160405160405180910390a350505050565b5f600380549050905090565b6001602052805f5260405f205f915054906101000a900460ff1681565b5f5f60605f5f5f6003878154811061062f5761062e6112b6565b5b905f5260205f2090600502019050805f015f9054906101000a900473ffffffffffffffffffffffffffffffffffffffff16816001015482600201836003015f9054906101000a900460ff16846004015482805461068b90611440565b80601f01602080910402602001604051908101604052809291908181526020018280546106b790611440565b80156107025780601f106106d957610100808354040283529160200191610702565b820191905f5260205f20905b8154815290600101906020018083116106e557829003601f168201915b50505050509250955095509550955095505091939590929450565b60015f3373ffffffffffffffffffffffffffffffffffffffff1673ffffffffffffffffffffffffffffffffffffffff1681526020019081526020015f205f9054906101000a900460ff166107a6576040517f08c379a000000000000000000000000000000000000000000000000000000000815260040161079d90611230565b60405180910390fd5b5f600380549050905060036040518060a001604052808773ffffffffffffffffffffffffffffffffffffffff16815260200186815260200185858080601f0160208091040260200160405190810160405280939291908181526020018383808284375f81840152601f19601f8201169050808301925050505050505081526020015f151581526020015f815250908060018154018082558091505060019003905f5260205f2090600502015f909190919091505f820151815f015f6101000a81548173ffffffffffffffffffffffffffffffffffffffff021916908373ffffffffffffffffffffffffffffffffffffffff1602179055506020820151816001015560408201518160020190816108bc919061163d565b506060820151816003015f6101000a81548160ff0219169083151502179055506080820151816004015550508473ffffffffffffffffffffffffffffffffffffffff16817f3f6db45da5513bd4fe9f8a31e60ea668bdd4bca57e30a85a9a26f90c9fbcb56c86868660405161093393929190611746565b60405180910390a35050505050565b6004602052815f5260405f20602052805f5260405f205f915091509054906101000a900460ff1681565b6003818154811061097b575f80fd5b905f5260205f2090600502015f91509050805f015f9054906101000a900473ffffffffffffffffffffffffffffffffffffffff16908060010154908060020180546109c590611440565b80601f01602080910402602001604051908101604052809291908181526020018280546109f190611440565b8015610a3c5780601f10610a1357610100808354040283529160200191610a3c565b820191905f5260205f20905b815481529060010190602001808311610a1f57829003601f168201915b505050505090806003015f9054906101000a900460ff16908060040154905085565b60605f805480602002602001604051908101604052809291908181526020018280548015610ade57602002820191905f5260205f20905b815f9054906101000a900473ffffffffffffffffffffffffffffffffffffffff1673ffffffffffffffffffffffffffffffffffffffff1681526020019060010190808311610a95575b5050505050905090565b60015f3373ffffffffffffffffffffffffffffffffffffffff1673ffffffffffffffffffffffffffffffffffffffff1681526020019081526020015f205f9054906101000a900460ff16610b71576040517f08c379a0000000000000000000000000000000000000000000000000000000008152600401610b6890611230565b60405180910390fd5b806003805490508110610bb9576040517f08c379a0000000000000000000000000000000000000000000000000000000008152600401610bb090611395565b60405180910390fd5b8160038181548110610bce57610bcd6112b6565b5b905f5260205f2090600502016003015f9054906101000a900460ff1615610c2a576040517f08c379a0000000000000000000000000000000000000000000000000000000008152600401610c219061132d565b60405180910390fd5b5f60038481548110610c3f57610c3e6112b6565b5b905f5260205f209060050201905060025481600401541015610c96576040517f08c379a0000000000000000000000000000000000000000000000000000000008152600401610c8d906117c0565b60405180910390fd5b6001816003015f6101000a81548160ff0219169083151502179055505f815f015f9054906101000a900473ffffffffffffffffffffffffffffffffffffffff1673ffffffffffffffffffffffffffffffffffffffff16826001015483600201604051610d029190611868565b5f6040518083038185875af1925050503d805f8114610d3c576040519150601f19603f3d011682016040523d82523d5f602084013e610d41565b606091505b5050905080610d85576040517f08c379a0000000000000000000000000000000000000000000000000000000008152600401610d7c906118c8565b60405180910390fd5b847f15ed165a284872ea7017f03df402a0cadfbfab588320ffaf83f160c2f82781c760405160405180910390a25050505050565b5f819050919050565b610dcb81610db9565b82525050565b5f602082019050610de45f830184610dc2565b92915050565b5f5ffd5b5f5ffd5b610dfb81610db9565b8114610e05575f5ffd5b50565b5f81359050610e1681610df2565b92915050565b5f60208284031215610e3157610e30610dea565b5b5f610e3e84828501610e08565b91505092915050565b5f73ffffffffffffffffffffffffffffffffffffffff82169050919050565b5f610e7082610e47565b9050919050565b610e8081610e66565b82525050565b5f602082019050610e995f830184610e77565b92915050565b610ea881610e66565b8114610eb2575f5ffd5b50565b5f81359050610ec381610e9f565b92915050565b5f60208284031215610ede57610edd610dea565b5b5f610eeb84828501610eb5565b91505092915050565b5f8115159050919050565b610f0881610ef4565b82525050565b5f602082019050610f215f830184610eff565b92915050565b5f81519050919050565b5f82825260208201905092915050565b8281835e5f83830152505050565b5f601f19601f8301169050919050565b5f610f6982610f27565b610f738185610f31565b9350610f83818560208601610f41565b610f8c81610f4f565b840191505092915050565b5f60a082019050610faa5f830188610e77565b610fb76020830187610dc2565b8181036040830152610fc98186610f5f565b9050610fd86060830185610eff565b610fe56080830184610dc2565b9695505050505050565b5f5ffd5b5f5ffd5b5f5ffd5b5f5f83601f8401126110105761100f610fef565b5b8235905067ffffffffffffffff81111561102d5761102c610ff3565b5b60208301915083600182028301111561104957611048610ff7565b5b9250929050565b5f5f5f5f6060858703121561106857611067610dea565b5b5f61107587828801610eb5565b945050602061108687828801610e08565b935050604085013567ffffffffffffffff8111156110a7576110a6610dee565b5b6110b387828801610ffb565b925092505092959194509250565b5f5f604083850312156110d7576110d6610dea565b5b5f6110e485828601610e08565b92505060206110f585828601610eb5565b9150509250929050565b5f81519050919050565b5f82825260208201905092915050565b5f819050602082019050919050565b61113181610e66565b82525050565b5f6111428383611128565b60208301905092915050565b5f602082019050919050565b5f611164826110ff565b61116e8185611109565b935061117983611119565b805f5b838110156111a95781516111908882611137565b975061119b8361114e565b92505060018101905061117c565b5085935050505092915050565b5f6020820190508181035f8301526111ce818461115a565b905092915050565b5f82825260208201905092915050565b7f4e6f7420616e204f776e657200000000000000000000000000000000000000005f82015250565b5f61121a600c836111d6565b9150611225826111e6565b602082019050919050565b5f6020820190508181035f8301526112478161120e565b9050919050565b7f5472616e73616374696f6e206e6f7420617070726f76656400000000000000005f82015250565b5f6112826018836111d6565b915061128d8261124e565b602082019050919050565b5f6020820190508181035f8301526112af81611276565b9050919050565b7f4e487b71000000000000000000000000000000000000000000000000000000005f52603260045260245ffd5b7f5472616e73616374696f6e206e6f7420657865637574656400000000000000005f82015250565b5f6113176018836111d6565b9150611322826112e3565b602082019050919050565b5f6020820190508181035f8301526113448161130b565b9050919050565b7f5472616e73616374696f6e206e6f7420657869737473000000000000000000005f82015250565b5f61137f6016836111d6565b915061138a8261134b565b602082019050919050565b5f6020820190508181035f8301526113ac81611373565b9050919050565b7f4e487b71000000000000000000000000000000000000000000000000000000005f52601160045260245ffd5b5f6113ea82610db9565b91506113f583610db9565b925082820190508082111561140d5761140c6113b3565b5b92915050565b7f4e487b71000000000000000000000000000000000000000000000000000000005f52602260045260245ffd5b5f600282049050600182168061145757607f821691505b60208210810361146a57611469611413565b5b50919050565b7f4e487b71000000000000000000000000000000000000000000000000000000005f52604160045260245ffd5b5f819050815f5260205f209050919050565b5f6020601f8301049050919050565b5f82821b905092915050565b5f600883026114f97fffffffffffffffffffffffffffffffffffffffffffffffffffffffffffffffff826114be565b61150386836114be565b95508019841693508086168417925050509392505050565b5f819050919050565b5f61153e61153961153484610db9565b61151b565b610db9565b9050919050565b5f819050919050565b61155783611524565b61156b61156382611545565b8484546114ca565b825550505050565b5f5f905090565b611582611573565b61158d81848461154e565b505050565b5b818110156115b0576115a55f8261157a565b600181019050611593565b5050565b601f8211156115f5576115c68161149d565b6115cf846114af565b810160208510156115de578190505b6115f26115ea856114af565b830182611592565b50505b505050565b5f82821c905092915050565b5f6116155f19846008026115fa565b1980831691505092915050565b5f61162d8383611606565b9150826002028217905092915050565b61164682610f27565b67ffffffffffffffff81111561165f5761165e611470565b5b6116698254611440565b6116748282856115b4565b5f60209050601f8311600181146116a5575f8415611693578287015190505b61169d8582611622565b865550611704565b601f1984166116b38661149d565b5f5b828110156116da578489015182556001820191506020850194506020810190506116b5565b868310156116f757848901516116f3601f891682611606565b8355505b6001600288020188555050505b505050505050565b828183375f83830152505050565b5f6117258385610f31565b935061173283858461170c565b61173b83610f4f565b840190509392505050565b5f6040820190506117595f830186610dc2565b818103602083015261176c81848661171a565b9050949350505050565b7f496e73756666696369656e7420417070726f76616c73000000000000000000005f82015250565b5f6117aa6016836111d6565b91506117b582611776565b602082019050919050565b5f6020820190508181035f8301526117d78161179e565b9050919050565b5f81905092915050565b5f81546117f481611440565b6117fe81866117de565b9450600182165f8114611818576001811461182d5761185f565b60ff198316865281151582028601935061185f565b6118368561149d565b5f5b8381101561185757815481890152600182019150602081019050611838565b838801955050505b50505092915050565b5f61187382846117e8565b915081905092915050565b7f5472616e73616374696f6e206661696c656400000000000000000000000000005f82015250565b5f6118b26012836111d6565b91506118bd8261187e565b602082019050919050565b5f6020820190508181035f8301526118df816118a6565b905091905056fea26469706673582212200ea1035925480f91de839de5e4ff4a7d6f1f302893e1e8798b4a4a1673d85fa764736f6c634300081e0033",
					"opcodes": "PUSH1 0x80 PUSH1 0x40 MSTORE PUSH1 0x40 MLOAD PUSH2 0x1FF9 CODESIZE SUB DUP1 PUSH2 0x1FF9 DUP4 CODECOPY DUP2 DUP2 ADD PUSH1 0x40 MSTORE DUP2 ADD SWAP1 PUSH2 0x25 SWAP2 SWAP1 PUSH2 0x499 JUMP JUMPDEST PUSH0 DUP3 MLOAD GT PUSH2 0x68 JUMPI PUSH1 0x40 MLOAD PUSH32 0x8C379A000000000000000000000000000000000000000000000000000000000 DUP2 MSTORE PUSH1 0x4 ADD PUSH2 0x5F SWAP1 PUSH2 0x54D JUMP JUMPDEST PUSH1 0x40 MLOAD DUP1 SWAP2 SUB SWAP1 REVERT JUMPDEST PUSH0 DUP2 GT DUP1 ISZERO PUSH2 0x78 JUMPI POP DUP2 MLOAD DUP2 GT ISZERO JUMPDEST PUSH2 0xB7 JUMPI PUSH1 0x40 MLOAD PUSH32 0x8C379A000000000000000000000000000000000000000000000000000000000 DUP2 MSTORE PUSH1 0x4 ADD PUSH2 0xAE SWAP1 PUSH2 0x5B5 JUMP JUMPDEST PUSH1 0x40 MLOAD DUP1 SWAP2 SUB SWAP1 REVERT JUMPDEST PUSH0 PUSH0 SWAP1 POP JUMPDEST DUP3 MLOAD DUP2 LT ISZERO PUSH2 0x29C JUMPI PUSH0 DUP4 DUP3 DUP2 MLOAD DUP2 LT PUSH2 0xD9 JUMPI PUSH2 0xD8 PUSH2 0x5D3 JUMP JUMPDEST JUMPDEST PUSH1 0x20 MUL PUSH1 0x20 ADD ADD MLOAD SWAP1 POP PUSH0 PUSH20 0xFFFFFFFFFFFFFFFFFFFFFFFFFFFFFFFFFFFFFFFF AND DUP2 PUSH20 0xFFFFFFFFFFFFFFFFFFFFFFFFFFFFFFFFFFFFFFFF AND SUB PUSH2 0x151 JUMPI PUSH1 0x40 MLOAD PUSH32 0x8C379A000000000000000000000000000000000000000000000000000000000 DUP2 MSTORE PUSH1 0x4 ADD PUSH2 0x148 SWAP1 PUSH2 0x64A JUMP JUMPDEST PUSH1 0x40 MLOAD DUP1 SWAP2 SUB SWAP1 REVERT JUMPDEST PUSH1 0x1 PUSH0 DUP3 PUSH20 0xFFFFFFFFFFFFFFFFFFFFFFFFFFFFFFFFFFFFFFFF AND PUSH20 0xFFFFFFFFFFFFFFFFFFFFFFFFFFFFFFFFFFFFFFFF AND DUP2 MSTORE PUSH1 0x20 ADD SWAP1 DUP2 MSTORE PUSH1 0x20 ADD PUSH0 KECCAK256 PUSH0 SWAP1 SLOAD SWAP1 PUSH2 0x100 EXP SWAP1 DIV PUSH1 0xFF AND ISZERO PUSH2 0x1DB JUMPI PUSH1 0x40 MLOAD PUSH32 0x8C379A000000000000000000000000000000000000000000000000000000000 DUP2 MSTORE PUSH1 0x4 ADD PUSH2 0x1D2 SWAP1 PUSH2 0x6B2 JUMP JUMPDEST PUSH1 0x40 MLOAD DUP1 SWAP2 SUB SWAP1 REVERT JUMPDEST PUSH1 0x1 DUP1 PUSH0 DUP4 PUSH20 0xFFFFFFFFFFFFFFFFFFFFFFFFFFFFFFFFFFFFFFFF AND PUSH20 0xFFFFFFFFFFFFFFFFFFFFFFFFFFFFFFFFFFFFFFFF AND DUP2 MSTORE PUSH1 0x20 ADD SWAP1 DUP2 MSTORE PUSH1 0x20 ADD PUSH0 KECCAK256 PUSH0 PUSH2 0x100 EXP DUP2 SLOAD DUP2 PUSH1 0xFF MUL NOT AND SWAP1 DUP4 ISZERO ISZERO MUL OR SWAP1 SSTORE POP PUSH0 DUP2 SWAP1 DUP1 PUSH1 0x1 DUP2 SLOAD ADD DUP1 DUP3 SSTORE DUP1 SWAP2 POP POP PUSH1 0x1 SWAP1 SUB SWAP1 PUSH0 MSTORE PUSH1 0x20 PUSH0 KECCAK256 ADD PUSH0 SWAP1 SWAP2 SWAP1 SWAP2 SWAP1 SWAP2 PUSH2 0x100 EXP DUP2 SLOAD DUP2 PUSH20 0xFFFFFFFFFFFFFFFFFFFFFFFFFFFFFFFFFFFFFFFF MUL NOT AND SWAP1 DUP4 PUSH20 0xFFFFFFFFFFFFFFFFFFFFFFFFFFFFFFFFFFFFFFFF AND MUL OR SWAP1 SSTORE POP POP DUP1 DUP1 PUSH1 0x1 ADD SWAP2 POP POP PUSH2 0xBC JUMP JUMPDEST POP DUP1 PUSH1 0x2 DUP2 SWAP1 SSTORE POP POP POP PUSH2 0x6D0 JUMP JUMPDEST PUSH0 PUSH1 0x40 MLOAD SWAP1 POP SWAP1 JUMP JUMPDEST PUSH0 PUSH0 REVERT JUMPDEST PUSH0 PUSH0 REVERT JUMPDEST PUSH0 PUSH0 REVERT JUMPDEST PUSH0 PUSH1 0x1F NOT PUSH1 0x1F DUP4 ADD AND SWAP1 POP SWAP2 SWAP1 POP JUMP JUMPDEST PUSH32 0x4E487B7100000000000000000000000000000000000000000000000000000000 PUSH0 MSTORE PUSH1 0x41 PUSH1 0x4 MSTORE PUSH1 0x24 PUSH0 REVERT JUMPDEST PUSH2 0x306 DUP3 PUSH2 0x2C0 JUMP JUMPDEST DUP2 ADD DUP2 DUP2 LT PUSH8 0xFFFFFFFFFFFFFFFF DUP3 GT OR ISZERO PUSH2 0x325 JUMPI PUSH2 0x324 PUSH2 0x2D0 JUMP JUMPDEST JUMPDEST DUP1 PUSH1 0x40 MSTORE POP POP POP JUMP JUMPDEST PUSH0 PUSH2 0x337 PUSH2 0x2AB JUMP JUMPDEST SWAP1 POP PUSH2 0x343 DUP3 DUP3 PUSH2 0x2FD JUMP JUMPDEST SWAP2 SWAP1 POP JUMP JUMPDEST PUSH0 PUSH8 0xFFFFFFFFFFFFFFFF DUP3 GT ISZERO PUSH2 0x362 JUMPI PUSH2 0x361 PUSH2 0x2D0 JUMP JUMPDEST JUMPDEST PUSH1 0x20 DUP3 MUL SWAP1 POP PUSH1 0x20 DUP2 ADD SWAP1 POP SWAP2 SWAP1 POP JUMP JUMPDEST PUSH0 PUSH0 REVERT JUMPDEST PUSH0 PUSH20 0xFFFFFFFFFFFFFFFFFFFFFFFFFFFFFFFFFFFFFFFF DUP3 AND SWAP1 POP SWAP2 SWAP1 POP JUMP JUMPDEST PUSH0 PUSH2 0x3A0 DUP3 PUSH2 0x377 JUMP JUMPDEST SWAP1 POP SWAP2 SWAP1 POP JUMP JUMPDEST PUSH2 0x3B0 DUP2 PUSH2 0x396 JUMP JUMPDEST DUP2 EQ PUSH2 0x3BA JUMPI PUSH0 PUSH0 REVERT JUMPDEST POP JUMP JUMPDEST PUSH0 DUP2 MLOAD SWAP1 POP PUSH2 0x3CB DUP2 PUSH2 0x3A7 JUMP JUMPDEST SWAP3 SWAP2 POP POP JUMP JUMPDEST PUSH0 PUSH2 0x3E3 PUSH2 0x3DE DUP5 PUSH2 0x348 JUMP JUMPDEST PUSH2 0x32E JUMP JUMPDEST SWAP1 POP DUP1 DUP4 DUP3 MSTORE PUSH1 0x20 DUP3 ADD SWAP1 POP PUSH1 0x20 DUP5 MUL DUP4 ADD DUP6 DUP2 GT ISZERO PUSH2 0x406 JUMPI PUSH2 0x405 PUSH2 0x373 JUMP JUMPDEST JUMPDEST DUP4 JUMPDEST DUP2 DUP2 LT ISZERO PUSH2 0x42F JUMPI DUP1 PUSH2 0x41B DUP9 DUP3 PUSH2 0x3BD JUMP JUMPDEST DUP5 MSTORE PUSH1 0x20 DUP5 ADD SWAP4 POP POP PUSH1 0x20 DUP2 ADD SWAP1 POP PUSH2 0x408 JUMP JUMPDEST POP POP POP SWAP4 SWAP3 POP POP POP JUMP JUMPDEST PUSH0 DUP3 PUSH1 0x1F DUP4 ADD SLT PUSH2 0x44D JUMPI PUSH2 0x44C PUSH2 0x2BC JUMP JUMPDEST JUMPDEST DUP2 MLOAD PUSH2 0x45D DUP5 DUP3 PUSH1 0x20 DUP7 ADD PUSH2 0x3D1 JUMP JUMPDEST SWAP2 POP POP SWAP3 SWAP2 POP POP JUMP JUMPDEST PUSH0 DUP2 SWAP1 POP SWAP2 SWAP1 POP JUMP JUMPDEST PUSH2 0x478 DUP2 PUSH2 0x466 JUMP JUMPDEST DUP2 EQ PUSH2 0x482 JUMPI PUSH0 PUSH0 REVERT JUMPDEST POP JUMP JUMPDEST PUSH0 DUP2 MLOAD SWAP1 POP PUSH2 0x493 DUP2 PUSH2 0x46F JUMP JUMPDEST SWAP3 SWAP2 POP POP JUMP JUMPDEST PUSH0 PUSH0 PUSH1 0x40 DUP4 DUP6 SUB SLT ISZERO PUSH2 0x4AF JUMPI PUSH2 0x4AE PUSH2 0x2B4 JUMP JUMPDEST JUMPDEST PUSH0 DUP4 ADD MLOAD PUSH8 0xFFFFFFFFFFFFFFFF DUP2 GT ISZERO PUSH2 0x4CC JUMPI PUSH2 0x4CB PUSH2 0x2B8 JUMP JUMPDEST JUMPDEST PUSH2 0x4D8 DUP6 DUP3 DUP7 ADD PUSH2 0x439 JUMP JUMPDEST SWAP3 POP POP PUSH1 0x20 PUSH2 0x4E9 DUP6 DUP3 DUP7 ADD PUSH2 0x485 JUMP JUMPDEST SWAP2 POP POP SWAP3 POP SWAP3 SWAP1 POP JUMP JUMPDEST PUSH0 DUP3 DUP3 MSTORE PUSH1 0x20 DUP3 ADD SWAP1 POP SWAP3 SWAP2 POP POP JUMP JUMPDEST PUSH32 0x4F776E6572732072657175697265640000000000000000000000000000000000 PUSH0 DUP3 ADD MSTORE POP JUMP JUMPDEST PUSH0 PUSH2 0x537 PUSH1 0xF DUP4 PUSH2 0x4F3 JUMP JUMPDEST SWAP2 POP PUSH2 0x542 DUP3 PUSH2 0x503 JUMP JUMPDEST PUSH1 0x20 DUP3 ADD SWAP1 POP SWAP2 SWAP1 POP JUMP JUMPDEST PUSH0 PUSH1 0x20 DUP3 ADD SWAP1 POP DUP2 DUP2 SUB PUSH0 DUP4 ADD MSTORE PUSH2 0x564 DUP2 PUSH2 0x52B JUMP JUMPDEST SWAP1 POP SWAP2 SWAP1 POP JUMP JUMPDEST PUSH32 0x496E76616C696420617070726F76616C20726571756972656D656E7473000000 PUSH0 DUP3 ADD MSTORE POP JUMP JUMPDEST PUSH0 PUSH2 0x59F PUSH1 0x1D DUP4 PUSH2 0x4F3 JUMP JUMPDEST SWAP2 POP PUSH2 0x5AA DUP3 PUSH2 0x56B JUMP JUMPDEST PUSH1 0x20 DUP3 ADD SWAP1 POP SWAP2 SWAP1 POP JUMP JUMPDEST PUSH0 PUSH1 0x20 DUP3 ADD SWAP1 POP DUP2 DUP2 SUB PUSH0 DUP4 ADD MSTORE PUSH2 0x5CC DUP2 PUSH2 0x593 JUMP JUMPDEST SWAP1 POP SWAP2 SWAP1 POP JUMP JUMPDEST PUSH32 0x4E487B7100000000000000000000000000000000000000000000000000000000 PUSH0 MSTORE PUSH1 0x32 PUSH1 0x4 MSTORE PUSH1 0x24 PUSH0 REVERT JUMPDEST PUSH32 0x496E76616C6964206F776E657200000000000000000000000000000000000000 PUSH0 DUP3 ADD MSTORE POP JUMP JUMPDEST PUSH0 PUSH2 0x634 PUSH1 0xD DUP4 PUSH2 0x4F3 JUMP JUMPDEST SWAP2 POP PUSH2 0x63F DUP3 PUSH2 0x600 JUMP JUMPDEST PUSH1 0x20 DUP3 ADD SWAP1 POP SWAP2 SWAP1 POP JUMP JUMPDEST PUSH0 PUSH1 0x20 DUP3 ADD SWAP1 POP DUP2 DUP2 SUB PUSH0 DUP4 ADD MSTORE PUSH2 0x661 DUP2 PUSH2 0x628 JUMP JUMPDEST SWAP1 POP SWAP2 SWAP1 POP JUMP JUMPDEST PUSH32 0x4475706C6963617465206F776E65720000000000000000000000000000000000 PUSH0 DUP3 ADD MSTORE POP JUMP JUMPDEST PUSH0 PUSH2 0x69C PUSH1 0xF DUP4 PUSH2 0x4F3 JUMP JUMPDEST SWAP2 POP PUSH2 0x6A7 DUP3 PUSH2 0x668 JUMP JUMPDEST PUSH1 0x20 DUP3 ADD SWAP1 POP SWAP2 SWAP1 POP JUMP JUMPDEST PUSH0 PUSH1 0x20 DUP3 ADD SWAP1 POP DUP2 DUP2 SUB PUSH0 DUP4 ADD MSTORE PUSH2 0x6C9 DUP2 PUSH2 0x690 JUMP JUMPDEST SWAP1 POP SWAP2 SWAP1 POP JUMP JUMPDEST PUSH2 0x191C DUP1 PUSH2 0x6DD PUSH0 CODECOPY PUSH0 RETURN INVALID PUSH1 0x80 PUSH1 0x40 MSTORE PUSH1 0x4 CALLDATASIZE LT PUSH2 0x94 JUMPI PUSH0 CALLDATALOAD PUSH1 0xE0 SHR DUP1 PUSH4 0x3E4445AE GT PUSH2 0x58 JUMPI DUP1 PUSH4 0x3E4445AE EQ PUSH2 0x1F7 JUMPI DUP1 PUSH4 0x8253951A EQ PUSH2 0x21F JUMPI DUP1 PUSH4 0x9ACE38C2 EQ PUSH2 0x25B JUMPI DUP1 PUSH4 0xA0E67E2B EQ PUSH2 0x29B JUMPI DUP1 PUSH4 0xEE22610B EQ PUSH2 0x2C5 JUMPI PUSH2 0xE9 JUMP JUMPDEST DUP1 PUSH4 0x25E7C27 EQ PUSH2 0xED JUMPI DUP1 PUSH4 0x242232D1 EQ PUSH2 0x129 JUMPI DUP1 PUSH4 0x2E7700F0 EQ PUSH2 0x151 JUMPI DUP1 PUSH4 0x2F54BF6E EQ PUSH2 0x17B JUMPI DUP1 PUSH4 0x33EA3DC8 EQ PUSH2 0x1B7 JUMPI PUSH2 0xE9 JUMP JUMPDEST CALLDATASIZE PUSH2 0xE9 JUMPI CALLER PUSH20 0xFFFFFFFFFFFFFFFFFFFFFFFFFFFFFFFFFFFFFFFF AND PUSH32 0xE1FFFCC4923D04B559F4D29A8BFC6CDA04EB5B0D3C460751C2402C5C5CC9109C CALLVALUE PUSH1 0x40 MLOAD PUSH2 0xDF SWAP2 SWAP1 PUSH2 0xDD1 JUMP JUMPDEST PUSH1 0x40 MLOAD DUP1 SWAP2 SUB SWAP1 LOG2 STOP JUMPDEST PUSH0 PUSH0 REVERT JUMPDEST CALLVALUE DUP1 ISZERO PUSH2 0xF8 JUMPI PUSH0 PUSH0 REVERT JUMPDEST POP PUSH2 0x113 PUSH1 0x4 DUP1 CALLDATASIZE SUB DUP2 ADD SWAP1 PUSH2 0x10E SWAP2 SWAP1 PUSH2 0xE1C JUMP JUMPDEST PUSH2 0x2ED JUMP JUMPDEST PUSH1 0x40 MLOAD PUSH2 0x120 SWAP2 SWAP1 PUSH2 0xE86 JUMP JUMPDEST PUSH1 0x40 MLOAD DUP1 SWAP2 SUB SWAP1 RETURN JUMPDEST CALLVALUE DUP1 ISZERO PUSH2 0x134 JUMPI PUSH0 PUSH0 REVERT JUMPDEST POP PUSH2 0x14F PUSH1 0x4 DUP1 CALLDATASIZE SUB DUP2 ADD SWAP1 PUSH2 0x14A SWAP2 SWAP1 PUSH2 0xE1C JUMP JUMPDEST PUSH2 0x327 JUMP JUMPDEST STOP JUMPDEST CALLVALUE DUP1 ISZERO PUSH2 0x15C JUMPI PUSH0 PUSH0 REVERT JUMPDEST POP PUSH2 0x165 PUSH2 0x5EB JUMP JUMPDEST PUSH1 0x40 MLOAD PUSH2 0x172 SWAP2 SWAP1 PUSH2 0xDD1 JUMP JUMPDEST PUSH1 0x40 MLOAD DUP1 SWAP2 SUB SWAP1 RETURN JUMPDEST CALLVALUE DUP1 ISZERO PUSH2 0x186 JUMPI PUSH0 PUSH0 REVERT JUMPDEST POP PUSH2 0x1A1 PUSH1 0x4 DUP1 CALLDATASIZE SUB DUP2 ADD SWAP1 PUSH2 0x19C SWAP2 SWAP1 PUSH2 0xEC9 JUMP JUMPDEST PUSH2 0x5F7 JUMP JUMPDEST PUSH1 0x40 MLOAD PUSH2 0x1AE SWAP2 SWAP1 PUSH2 0xF0E JUMP JUMPDEST PUSH1 0x40 MLOAD DUP1 SWAP2 SUB SWAP1 RETURN JUMPDEST CALLVALUE DUP1 ISZERO PUSH2 0x1C2 JUMPI PUSH0 PUSH0 REVERT JUMPDEST POP PUSH2 0x1DD PUSH1 0x4 DUP1 CALLDATASIZE SUB DUP2 ADD SWAP1 PUSH2 0x1D8 SWAP2 SWAP1 PUSH2 0xE1C JUMP JUMPDEST PUSH2 0x614 JUMP JUMPDEST PUSH1 0x40 MLOAD PUSH2 0x1EE SWAP6 SWAP5 SWAP4 SWAP3 SWAP2 SWAP1 PUSH2 0xF97 JUMP JUMPDEST PUSH1 0x40 MLOAD DUP1 SWAP2 SUB SWAP1 RETURN JUMPDEST CALLVALUE DUP1 ISZERO PUSH2 0x202 JUMPI PUSH0 PUSH0 REVERT JUMPDEST POP PUSH2 0x21D PUSH1 0x4 DUP1 CALLDATASIZE SUB DUP2 ADD SWAP1 PUSH2 0x218 SWAP2 SWAP1 PUSH2 0x1050 JUMP JUMPDEST PUSH2 0x71D JUMP JUMPDEST STOP JUMPDEST CALLVALUE DUP1 ISZERO PUSH2 0x22A JUMPI PUSH0 PUSH0 REVERT JUMPDEST POP PUSH2 0x245 PUSH1 0x4 DUP1 CALLDATASIZE SUB DUP2 ADD SWAP1 PUSH2 0x240 SWAP2 SWAP1 PUSH2 0x10C1 JUMP JUMPDEST PUSH2 0x942 JUMP JUMPDEST PUSH1 0x40 MLOAD PUSH2 0x252 SWAP2 SWAP1 PUSH2 0xF0E JUMP JUMPDEST PUSH1 0x40 MLOAD DUP1 SWAP2 SUB SWAP1 RETURN JUMPDEST CALLVALUE DUP1 ISZERO PUSH2 0x266 JUMPI PUSH0 PUSH0 REVERT JUMPDEST POP PUSH2 0x281 PUSH1 0x4 DUP1 CALLDATASIZE SUB DUP2 ADD SWAP1 PUSH2 0x27C SWAP2 SWAP1 PUSH2 0xE1C JUMP JUMPDEST PUSH2 0x96C JUMP JUMPDEST PUSH1 0x40 MLOAD PUSH2 0x292 SWAP6 SWAP5 SWAP4 SWAP3 SWAP2 SWAP1 PUSH2 0xF97 JUMP JUMPDEST PUSH1 0x40 MLOAD DUP1 SWAP2 SUB SWAP1 RETURN JUMPDEST CALLVALUE DUP1 ISZERO PUSH2 0x2A6 JUMPI PUSH0 PUSH0 REVERT JUMPDEST POP PUSH2 0x2AF PUSH2 0xA5E JUMP JUMPDEST PUSH1 0x40 MLOAD PUSH2 0x2BC SWAP2 SWAP1 PUSH2 0x11B6 JUMP JUMPDEST PUSH1 0x40 MLOAD DUP1 SWAP2 SUB SWAP1 RETURN JUMPDEST CALLVALUE DUP1 ISZERO PUSH2 0x2D0 JUMPI PUSH0 PUSH0 REVERT JUMPDEST POP PUSH2 0x2EB PUSH1 0x4 DUP1 CALLDATASIZE SUB DUP2 ADD SWAP1 PUSH2 0x2E6 SWAP2 SWAP1 PUSH2 0xE1C JUMP JUMPDEST PUSH2 0xAE8 JUMP JUMPDEST STOP JUMPDEST PUSH0 DUP2 DUP2 SLOAD DUP2 LT PUSH2 0x2FB JUMPI PUSH0 DUP1 REVERT JUMPDEST SWAP1 PUSH0 MSTORE PUSH1 0x20 PUSH0 KECCAK256 ADD PUSH0 SWAP2 POP SLOAD SWAP1 PUSH2 0x100 EXP SWAP1 DIV PUSH20 0xFFFFFFFFFFFFFFFFFFFFFFFFFFFFFFFFFFFFFFFF AND DUP2 JUMP JUMPDEST PUSH1 0x1 PUSH0 CALLER PUSH20 0xFFFFFFFFFFFFFFFFFFFFFFFFFFFFFFFFFFFFFFFF AND PUSH20 0xFFFFFFFFFFFFFFFFFFFFFFFFFFFFFFFFFFFFFFFF AND DUP2 MSTORE PUSH1 0x20 ADD SWAP1 DUP2 MSTORE PUSH1 0x20 ADD PUSH0 KECCAK256 PUSH0 SWAP1 SLOAD SWAP1 PUSH2 0x100 EXP SWAP1 DIV PUSH1 0xFF AND PUSH2 0x3B0 JUMPI PUSH1 0x40 MLOAD PUSH32 0x8C379A000000000000000000000000000000000000000000000000000000000 DUP2 MSTORE PUSH1 0x4 ADD PUSH2 0x3A7 SWAP1 PUSH2 0x1230 JUMP JUMPDEST PUSH1 0x40 MLOAD DUP1 SWAP2 SUB SWAP1 REVERT JUMPDEST DUP1 PUSH1 0x4 PUSH0 DUP3 DUP2 MSTORE PUSH1 0x20 ADD SWAP1 DUP2 MSTORE PUSH1 0x20 ADD PUSH0 KECCAK256 PUSH0 CALLER PUSH20 0xFFFFFFFFFFFFFFFFFFFFFFFFFFFFFFFFFFFFFFFF AND PUSH20 0xFFFFFFFFFFFFFFFFFFFFFFFFFFFFFFFFFFFFFFFF AND DUP2 MSTORE PUSH1 0x20 ADD SWAP1 DUP2 MSTORE PUSH1 0x20 ADD PUSH0 KECCAK256 PUSH0 SWAP1 SLOAD SWAP1 PUSH2 0x100 EXP SWAP1 DIV PUSH1 0xFF AND ISZERO PUSH2 0x44A JUMPI PUSH1 0x40 MLOAD PUSH32 0x8C379A000000000000000000000000000000000000000000000000000000000 DUP2 MSTORE PUSH1 0x4 ADD PUSH2 0x441 SWAP1 PUSH2 0x1298 JUMP JUMPDEST PUSH1 0x40 MLOAD DUP1 SWAP2 SUB SWAP1 REVERT JUMPDEST DUP2 PUSH1 0x3 DUP2 DUP2 SLOAD DUP2 LT PUSH2 0x45F JUMPI PUSH2 0x45E PUSH2 0x12B6 JUMP JUMPDEST JUMPDEST SWAP1 PUSH0 MSTORE PUSH1 0x20 PUSH0 KECCAK256 SWAP1 PUSH1 0x5 MUL ADD PUSH1 0x3 ADD PUSH0 SWAP1 SLOAD SWAP1 PUSH2 0x100 EXP SWAP1 DIV PUSH1 0xFF AND ISZERO PUSH2 0x4BB JUMPI PUSH1 0x40 MLOAD PUSH32 0x8C379A000000000000000000000000000000000000000000000000000000000 DUP2 MSTORE PUSH1 0x4 ADD PUSH2 0x4B2 SWAP1 PUSH2 0x132D JUMP JUMPDEST PUSH1 0x40 MLOAD DUP1 SWAP2 SUB SWAP1 REVERT JUMPDEST DUP3 PUSH1 0x3 DUP1 SLOAD SWAP1 POP DUP2 LT PUSH2 0x503 JUMPI PUSH1 0x40 MLOAD PUSH32 0x8C379A000000000000000000000000000000000000000000000000000000000 DUP2 MSTORE PUSH1 0x4 ADD PUSH2 0x4FA SWAP1 PUSH2 0x1395 JUMP JUMPDEST PUSH1 0x40 MLOAD DUP1 SWAP2 SUB SWAP1 REVERT JUMPDEST PUSH1 0x1 PUSH1 0x4 PUSH0 DUP7 DUP2 MSTORE PUSH1 0x20 ADD SWAP1 DUP2 MSTORE PUSH1 0x20 ADD PUSH0 KECCAK256 PUSH0 CALLER PUSH20 0xFFFFFFFFFFFFFFFFFFFFFFFFFFFFFFFFFFFFFFFF AND PUSH20 0xFFFFFFFFFFFFFFFFFFFFFFFFFFFFFFFFFFFFFFFF AND DUP2 MSTORE PUSH1 0x20 ADD SWAP1 DUP2 MSTORE PUSH1 0x20 ADD PUSH0 KECCAK256 PUSH0 PUSH2 0x100 EXP DUP2 SLOAD DUP2 PUSH1 0xFF MUL NOT AND SWAP1 DUP4 ISZERO ISZERO MUL OR SWAP1 SSTORE POP PUSH1 0x1 PUSH1 0x3 DUP6 DUP2 SLOAD DUP2 LT PUSH2 0x57D JUMPI PUSH2 0x57C PUSH2 0x12B6 JUMP JUMPDEST JUMPDEST SWAP1 PUSH0 MSTORE PUSH1 0x20 PUSH0 KECCAK256 SWAP1 PUSH1 0x5 MUL ADD PUSH1 0x4 ADD PUSH0 DUP3 DUP3 SLOAD PUSH2 0x59A SWAP2 SWAP1 PUSH2 0x13E0 JUMP JUMPDEST SWAP3 POP POP DUP2 SWAP1 SSTORE POP DUP4 CALLER PUSH20 0xFFFFFFFFFFFFFFFFFFFFFFFFFFFFFFFFFFFFFFFF AND PUSH32 0x7B19C08B12F940EA76949B68D355070966056A862AD2C1AA6676ECBCC9538A61 PUSH1 0x40 MLOAD PUSH1 0x40 MLOAD DUP1 SWAP2 SUB SWAP1 LOG3 POP POP POP POP JUMP JUMPDEST PUSH0 PUSH1 0x3 DUP1 SLOAD SWAP1 POP SWAP1 POP SWAP1 JUMP JUMPDEST PUSH1 0x1 PUSH1 0x20 MSTORE DUP1 PUSH0 MSTORE PUSH1 0x40 PUSH0 KECCAK256 PUSH0 SWAP2 POP SLOAD SWAP1 PUSH2 0x100 EXP SWAP1 DIV PUSH1 0xFF AND DUP2 JUMP JUMPDEST PUSH0 PUSH0 PUSH1 0x60 PUSH0 PUSH0 PUSH0 PUSH1 0x3 DUP8 DUP2 SLOAD DUP2 LT PUSH2 0x62F JUMPI PUSH2 0x62E PUSH2 0x12B6 JUMP JUMPDEST JUMPDEST SWAP1 PUSH0 MSTORE PUSH1 0x20 PUSH0 KECCAK256 SWAP1 PUSH1 0x5 MUL ADD SWAP1 POP DUP1 PUSH0 ADD PUSH0 SWAP1 SLOAD SWAP1 PUSH2 0x100 EXP SWAP1 DIV PUSH20 0xFFFFFFFFFFFFFFFFFFFFFFFFFFFFFFFFFFFFFFFF AND DUP2 PUSH1 0x1 ADD SLOAD DUP3 PUSH1 0x2 ADD DUP4 PUSH1 0x3 ADD PUSH0 SWAP1 SLOAD SWAP1 PUSH2 0x100 EXP SWAP1 DIV PUSH1 0xFF AND DUP5 PUSH1 0x4 ADD SLOAD DUP3 DUP1 SLOAD PUSH2 0x68B SWAP1 PUSH2 0x1440 JUMP JUMPDEST DUP1 PUSH1 0x1F ADD PUSH1 0x20 DUP1 SWAP2 DIV MUL PUSH1 0x20 ADD PUSH1 0x40 MLOAD SWAP1 DUP2 ADD PUSH1 0x40 MSTORE DUP1 SWAP3 SWAP2 SWAP1 DUP2 DUP2 MSTORE PUSH1 0x20 ADD DUP3 DUP1 SLOAD PUSH2 0x6B7 SWAP1 PUSH2 0x1440 JUMP JUMPDEST DUP1 ISZERO PUSH2 0x702 JUMPI DUP1 PUSH1 0x1F LT PUSH2 0x6D9 JUMPI PUSH2 0x100 DUP1 DUP4 SLOAD DIV MUL DUP4 MSTORE SWAP2 PUSH1 0x20 ADD SWAP2 PUSH2 0x702 JUMP JUMPDEST DUP3 ADD SWAP2 SWAP1 PUSH0 MSTORE PUSH1 0x20 PUSH0 KECCAK256 SWAP1 JUMPDEST DUP2 SLOAD DUP2 MSTORE SWAP1 PUSH1 0x1 ADD SWAP1 PUSH1 0x20 ADD DUP1 DUP4 GT PUSH2 0x6E5 JUMPI DUP3 SWAP1 SUB PUSH1 0x1F AND DUP3 ADD SWAP2 JUMPDEST POP POP POP POP POP SWAP3 POP SWAP6 POP SWAP6 POP SWAP6 POP SWAP6 POP SWAP6 POP POP SWAP2 SWAP4 SWAP6 SWAP1 SWAP3 SWAP5 POP JUMP JUMPDEST PUSH1 0x1 PUSH0 CALLER PUSH20 0xFFFFFFFFFFFFFFFFFFFFFFFFFFFFFFFFFFFFFFFF AND PUSH20 0xFFFFFFFFFFFFFFFFFFFFFFFFFFFFFFFFFFFFFFFF AND DUP2 MSTORE PUSH1 0x20 ADD SWAP1 DUP2 MSTORE PUSH1 0x20 ADD PUSH0 KECCAK256 PUSH0 SWAP1 SLOAD SWAP1 PUSH2 0x100 EXP SWAP1 DIV PUSH1 0xFF AND PUSH2 0x7A6 JUMPI PUSH1 0x40 MLOAD PUSH32 0x8C379A000000000000000000000000000000000000000000000000000000000 DUP2 MSTORE PUSH1 0x4 ADD PUSH2 0x79D SWAP1 PUSH2 0x1230 JUMP JUMPDEST PUSH1 0x40 MLOAD DUP1 SWAP2 SUB SWAP1 REVERT JUMPDEST PUSH0 PUSH1 0x3 DUP1 SLOAD SWAP1 POP SWAP1 POP PUSH1 0x3 PUSH1 0x40 MLOAD DUP1 PUSH1 0xA0 ADD PUSH1 0x40 MSTORE DUP1 DUP8 PUSH20 0xFFFFFFFFFFFFFFFFFFFFFFFFFFFFFFFFFFFFFFFF AND DUP2 MSTORE PUSH1 0x20 ADD DUP7 DUP2 MSTORE PUSH1 0x20 ADD DUP6 DUP6 DUP1 DUP1 PUSH1 0x1F ADD PUSH1 0x20 DUP1 SWAP2 DIV MUL PUSH1 0x20 ADD PUSH1 0x40 MLOAD SWAP1 DUP2 ADD PUSH1 0x40 MSTORE DUP1 SWAP4 SWAP3 SWAP2 SWAP1 DUP2 DUP2 MSTORE PUSH1 0x20 ADD DUP4 DUP4 DUP1 DUP3 DUP5 CALLDATACOPY PUSH0 DUP2 DUP5 ADD MSTORE PUSH1 0x1F NOT PUSH1 0x1F DUP3 ADD AND SWAP1 POP DUP1 DUP4 ADD SWAP3 POP POP POP POP POP POP POP DUP2 MSTORE PUSH1 0x20 ADD PUSH0 ISZERO ISZERO DUP2 MSTORE PUSH1 0x20 ADD PUSH0 DUP2 MSTORE POP SWAP1 DUP1 PUSH1 0x1 DUP2 SLOAD ADD DUP1 DUP3 SSTORE DUP1 SWAP2 POP POP PUSH1 0x1 SWAP1 SUB SWAP1 PUSH0 MSTORE PUSH1 0x20 PUSH0 KECCAK256 SWAP1 PUSH1 0x5 MUL ADD PUSH0 SWAP1 SWAP2 SWAP1 SWAP2 SWAP1 SWAP2 POP PUSH0 DUP3 ADD MLOAD DUP2 PUSH0 ADD PUSH0 PUSH2 0x100 EXP DUP2 SLOAD DUP2 PUSH20 0xFFFFFFFFFFFFFFFFFFFFFFFFFFFFFFFFFFFFFFFF MUL NOT AND SWAP1 DUP4 PUSH20 0xFFFFFFFFFFFFFFFFFFFFFFFFFFFFFFFFFFFFFFFF AND MUL OR SWAP1 SSTORE POP PUSH1 0x20 DUP3 ADD MLOAD DUP2 PUSH1 0x1 ADD SSTORE PUSH1 0x40 DUP3 ADD MLOAD DUP2 PUSH1 0x2 ADD SWAP1 DUP2 PUSH2 0x8BC SWAP2 SWAP1 PUSH2 0x163D JUMP JUMPDEST POP PUSH1 0x60 DUP3 ADD MLOAD DUP2 PUSH1 0x3 ADD PUSH0 PUSH2 0x100 EXP DUP2 SLOAD DUP2 PUSH1 0xFF MUL NOT AND SWAP1 DUP4 ISZERO ISZERO MUL OR SWAP1 SSTORE POP PUSH1 0x80 DUP3 ADD MLOAD DUP2 PUSH1 0x4 ADD SSTORE POP POP DUP5 PUSH20 0xFFFFFFFFFFFFFFFFFFFFFFFFFFFFFFFFFFFFFFFF AND DUP2 PUSH32 0x3F6DB45DA5513BD4FE9F8A31E60EA668BDD4BCA57E30A85A9A26F90C9FBCB56C DUP7 DUP7 DUP7 PUSH1 0x40 MLOAD PUSH2 0x933 SWAP4 SWAP3 SWAP2 SWAP1 PUSH2 0x1746 JUMP JUMPDEST PUSH1 0x40 MLOAD DUP1 SWAP2 SUB SWAP1 LOG3 POP POP POP POP POP JUMP JUMPDEST PUSH1 0x4 PUSH1 0x20 MSTORE DUP2 PUSH0 MSTORE PUSH1 0x40 PUSH0 KECCAK256 PUSH1 0x20 MSTORE DUP1 PUSH0 MSTORE PUSH1 0x40 PUSH0 KECCAK256 PUSH0 SWAP2 POP SWAP2 POP SWAP1 SLOAD SWAP1 PUSH2 0x100 EXP SWAP1 DIV PUSH1 0xFF AND DUP2 JUMP JUMPDEST PUSH1 0x3 DUP2 DUP2 SLOAD DUP2 LT PUSH2 0x97B JUMPI PUSH0 DUP1 REVERT JUMPDEST SWAP1 PUSH0 MSTORE PUSH1 0x20 PUSH0 KECCAK256 SWAP1 PUSH1 0x5 MUL ADD PUSH0 SWAP2 POP SWAP1 POP DUP1 PUSH0 ADD PUSH0 SWAP1 SLOAD SWAP1 PUSH2 0x100 EXP SWAP1 DIV PUSH20 0xFFFFFFFFFFFFFFFFFFFFFFFFFFFFFFFFFFFFFFFF AND SWAP1 DUP1 PUSH1 0x1 ADD SLOAD SWAP1 DUP1 PUSH1 0x2 ADD DUP1 SLOAD PUSH2 0x9C5 SWAP1 PUSH2 0x1440 JUMP JUMPDEST DUP1 PUSH1 0x1F ADD PUSH1 0x20 DUP1 SWAP2 DIV MUL PUSH1 0x20 ADD PUSH1 0x40 MLOAD SWAP1 DUP2 ADD PUSH1 0x40 MSTORE DUP1 SWAP3 SWAP2 SWAP1 DUP2 DUP2 MSTORE PUSH1 0x20 ADD DUP3 DUP1 SLOAD PUSH2 0x9F1 SWAP1 PUSH2 0x1440 JUMP JUMPDEST DUP1 ISZERO PUSH2 0xA3C JUMPI DUP1 PUSH1 0x1F LT PUSH2 0xA13 JUMPI PUSH2 0x100 DUP1 DUP4 SLOAD DIV MUL DUP4 MSTORE SWAP2 PUSH1 0x20 ADD SWAP2 PUSH2 0xA3C JUMP JUMPDEST DUP3 ADD SWAP2 SWAP1 PUSH0 MSTORE PUSH1 0x20 PUSH0 KECCAK256 SWAP1 JUMPDEST DUP2 SLOAD DUP2 MSTORE SWAP1 PUSH1 0x1 ADD SWAP1 PUSH1 0x20 ADD DUP1 DUP4 GT PUSH2 0xA1F JUMPI DUP3 SWAP1 SUB PUSH1 0x1F AND DUP3 ADD SWAP2 JUMPDEST POP POP POP POP POP SWAP1 DUP1 PUSH1 0x3 ADD PUSH0 SWAP1 SLOAD SWAP1 PUSH2 0x100 EXP SWAP1 DIV PUSH1 0xFF AND SWAP1 DUP1 PUSH1 0x4 ADD SLOAD SWAP1 POP DUP6 JUMP JUMPDEST PUSH1 0x60 PUSH0 DUP1 SLOAD DUP1 PUSH1 0x20 MUL PUSH1 0x20 ADD PUSH1 0x40 MLOAD SWAP1 DUP2 ADD PUSH1 0x40 MSTORE DUP1 SWAP3 SWAP2 SWAP1 DUP2 DUP2 MSTORE PUSH1 0x20 ADD DUP3 DUP1 SLOAD DUP1 ISZERO PUSH2 0xADE JUMPI PUSH1 0x20 MUL DUP3 ADD SWAP2 SWAP1 PUSH0 MSTORE PUSH1 0x20 PUSH0 KECCAK256 SWAP1 JUMPDEST DUP2 PUSH0 SWAP1 SLOAD SWAP1 PUSH2 0x100 EXP SWAP1 DIV PUSH20 0xFFFFFFFFFFFFFFFFFFFFFFFFFFFFFFFFFFFFFFFF AND PUSH20 0xFFFFFFFFFFFFFFFFFFFFFFFFFFFFFFFFFFFFFFFF AND DUP2 MSTORE PUSH1 0x20 ADD SWAP1 PUSH1 0x1 ADD SWAP1 DUP1 DUP4 GT PUSH2 0xA95 JUMPI JUMPDEST POP POP POP POP POP SWAP1 POP SWAP1 JUMP JUMPDEST PUSH1 0x1 PUSH0 CALLER PUSH20 0xFFFFFFFFFFFFFFFFFFFFFFFFFFFFFFFFFFFFFFFF AND PUSH20 0xFFFFFFFFFFFFFFFFFFFFFFFFFFFFFFFFFFFFFFFF AND DUP2 MSTORE PUSH1 0x20 ADD SWAP1 DUP2 MSTORE PUSH1 0x20 ADD PUSH0 KECCAK256 PUSH0 SWAP1 SLOAD SWAP1 PUSH2 0x100 EXP SWAP1 DIV PUSH1 0xFF AND PUSH2 0xB71 JUMPI PUSH1 0x40 MLOAD PUSH32 0x8C379A000000000000000000000000000000000000000000000000000000000 DUP2 MSTORE PUSH1 0x4 ADD PUSH2 0xB68 SWAP1 PUSH2 0x1230 JUMP JUMPDEST PUSH1 0x40 MLOAD DUP1 SWAP2 SUB SWAP1 REVERT JUMPDEST DUP1 PUSH1 0x3 DUP1 SLOAD SWAP1 POP DUP2 LT PUSH2 0xBB9 JUMPI PUSH1 0x40 MLOAD PUSH32 0x8C379A000000000000000000000000000000000000000000000000000000000 DUP2 MSTORE PUSH1 0x4 ADD PUSH2 0xBB0 SWAP1 PUSH2 0x1395 JUMP JUMPDEST PUSH1 0x40 MLOAD DUP1 SWAP2 SUB SWAP1 REVERT JUMPDEST DUP2 PUSH1 0x3 DUP2 DUP2 SLOAD DUP2 LT PUSH2 0xBCE JUMPI PUSH2 0xBCD PUSH2 0x12B6 JUMP JUMPDEST JUMPDEST SWAP1 PUSH0 MSTORE PUSH1 0x20 PUSH0 KECCAK256 SWAP1 PUSH1 0x5 MUL ADD PUSH1 0x3 ADD PUSH0 SWAP1 SLOAD SWAP1 PUSH2 0x100 EXP SWAP1 DIV PUSH1 0xFF AND ISZERO PUSH2 0xC2A JUMPI PUSH1 0x40 MLOAD PUSH32 0x8C379A000000000000000000000000000000000000000000000000000000000 DUP2 MSTORE PUSH1 0x4 ADD PUSH2 0xC21 SWAP1 PUSH2 0x132D JUMP JUMPDEST PUSH1 0x40 MLOAD DUP1 SWAP2 SUB SWAP1 REVERT JUMPDEST PUSH0 PUSH1 0x3 DUP5 DUP2 SLOAD DUP2 LT PUSH2 0xC3F JUMPI PUSH2 0xC3E PUSH2 0x12B6 JUMP JUMPDEST JUMPDEST SWAP1 PUSH0 MSTORE PUSH1 0x20 PUSH0 KECCAK256 SWAP1 PUSH1 0x5 MUL ADD SWAP1 POP PUSH1 0x2 SLOAD DUP2 PUSH1 0x4 ADD SLOAD LT ISZERO PUSH2 0xC96 JUMPI PUSH1 0x40 MLOAD PUSH32 0x8C379A000000000000000000000000000000000000000000000000000000000 DUP2 MSTORE PUSH1 0x4 ADD PUSH2 0xC8D SWAP1 PUSH2 0x17C0 JUMP JUMPDEST PUSH1 0x40 MLOAD DUP1 SWAP2 SUB SWAP1 REVERT JUMPDEST PUSH1 0x1 DUP2 PUSH1 0x3 ADD PUSH0 PUSH2 0x100 EXP DUP2 SLOAD DUP2 PUSH1 0xFF MUL NOT AND SWAP1 DUP4 ISZERO ISZERO MUL OR SWAP1 SSTORE POP PUSH0 DUP2 PUSH0 ADD PUSH0 SWAP1 SLOAD SWAP1 PUSH2 0x100 EXP SWAP1 DIV PUSH20 0xFFFFFFFFFFFFFFFFFFFFFFFFFFFFFFFFFFFFFFFF AND PUSH20 0xFFFFFFFFFFFFFFFFFFFFFFFFFFFFFFFFFFFFFFFF AND DUP3 PUSH1 0x1 ADD SLOAD DUP4 PUSH1 0x2 ADD PUSH1 0x40 MLOAD PUSH2 0xD02 SWAP2 SWAP1 PUSH2 0x1868 JUMP JUMPDEST PUSH0 PUSH1 0x40 MLOAD DUP1 DUP4 SUB DUP2 DUP6 DUP8 GAS CALL SWAP3 POP POP POP RETURNDATASIZE DUP1 PUSH0 DUP2 EQ PUSH2 0xD3C JUMPI PUSH1 0x40 MLOAD SWAP2 POP PUSH1 0x1F NOT PUSH1 0x3F RETURNDATASIZE ADD AND DUP3 ADD PUSH1 0x40 MSTORE RETURNDATASIZE DUP3 MSTORE RETURNDATASIZE PUSH0 PUSH1 0x20 DUP5 ADD RETURNDATACOPY PUSH2 0xD41 JUMP JUMPDEST PUSH1 0x60 SWAP2 POP JUMPDEST POP POP SWAP1 POP DUP1 PUSH2 0xD85 JUMPI PUSH1 0x40 MLOAD PUSH32 0x8C379A000000000000000000000000000000000000000000000000000000000 DUP2 MSTORE PUSH1 0x4 ADD PUSH2 0xD7C SWAP1 PUSH2 0x18C8 JUMP JUMPDEST PUSH1 0x40 MLOAD DUP1 SWAP2 SUB SWAP1 REVERT JUMPDEST DUP5 PUSH32 0x15ED165A284872EA7017F03DF402A0CADFBFAB588320FFAF83F160C2F82781C7 PUSH1 0x40 MLOAD PUSH1 0x40 MLOAD DUP1 SWAP2 SUB SWAP1 LOG2 POP POP POP POP POP JUMP JUMPDEST PUSH0 DUP2 SWAP1 POP SWAP2 SWAP1 POP JUMP JUMPDEST PUSH2 0xDCB DUP2 PUSH2 0xDB9 JUMP JUMPDEST DUP3 MSTORE POP POP JUMP JUMPDEST PUSH0 PUSH1 0x20 DUP3 ADD SWAP1 POP PUSH2 0xDE4 PUSH0 DUP4 ADD DUP5 PUSH2 0xDC2 JUMP JUMPDEST SWAP3 SWAP2 POP POP JUMP JUMPDEST PUSH0 PUSH0 REVERT JUMPDEST PUSH0 PUSH0 REVERT JUMPDEST PUSH2 0xDFB DUP2 PUSH2 0xDB9 JUMP JUMPDEST DUP2 EQ PUSH2 0xE05 JUMPI PUSH0 PUSH0 REVERT JUMPDEST POP JUMP JUMPDEST PUSH0 DUP2 CALLDATALOAD SWAP1 POP PUSH2 0xE16 DUP2 PUSH2 0xDF2 JUMP JUMPDEST SWAP3 SWAP2 POP POP JUMP JUMPDEST PUSH0 PUSH1 0x20 DUP3 DUP5 SUB SLT ISZERO PUSH2 0xE31 JUMPI PUSH2 0xE30 PUSH2 0xDEA JUMP JUMPDEST JUMPDEST PUSH0 PUSH2 0xE3E DUP5 DUP3 DUP6 ADD PUSH2 0xE08 JUMP JUMPDEST SWAP2 POP POP SWAP3 SWAP2 POP POP JUMP JUMPDEST PUSH0 PUSH20 0xFFFFFFFFFFFFFFFFFFFFFFFFFFFFFFFFFFFFFFFF DUP3 AND SWAP1 POP SWAP2 SWAP1 POP JUMP JUMPDEST PUSH0 PUSH2 0xE70 DUP3 PUSH2 0xE47 JUMP JUMPDEST SWAP1 POP SWAP2 SWAP1 POP JUMP JUMPDEST PUSH2 0xE80 DUP2 PUSH2 0xE66 JUMP JUMPDEST DUP3 MSTORE POP POP JUMP JUMPDEST PUSH0 PUSH1 0x20 DUP3 ADD SWAP1 POP PUSH2 0xE99 PUSH0 DUP4 ADD DUP5 PUSH2 0xE77 JUMP JUMPDEST SWAP3 SWAP2 POP POP JUMP JUMPDEST PUSH2 0xEA8 DUP2 PUSH2 0xE66 JUMP JUMPDEST DUP2 EQ PUSH2 0xEB2 JUMPI PUSH0 PUSH0 REVERT JUMPDEST POP JUMP JUMPDEST PUSH0 DUP2 CALLDATALOAD SWAP1 POP PUSH2 0xEC3 DUP2 PUSH2 0xE9F JUMP JUMPDEST SWAP3 SWAP2 POP POP JUMP JUMPDEST PUSH0 PUSH1 0x20 DUP3 DUP5 SUB SLT ISZERO PUSH2 0xEDE JUMPI PUSH2 0xEDD PUSH2 0xDEA JUMP JUMPDEST JUMPDEST PUSH0 PUSH2 0xEEB DUP5 DUP3 DUP6 ADD PUSH2 0xEB5 JUMP JUMPDEST SWAP2 POP POP SWAP3 SWAP2 POP POP JUMP JUMPDEST PUSH0 DUP2 ISZERO ISZERO SWAP1 POP SWAP2 SWAP1 POP JUMP JUMPDEST PUSH2 0xF08 DUP2 PUSH2 0xEF4 JUMP JUMPDEST DUP3 MSTORE POP POP JUMP JUMPDEST PUSH0 PUSH1 0x20 DUP3 ADD SWAP1 POP PUSH2 0xF21 PUSH0 DUP4 ADD DUP5 PUSH2 0xEFF JUMP JUMPDEST SWAP3 SWAP2 POP POP JUMP JUMPDEST PUSH0 DUP2 MLOAD SWAP1 POP SWAP2 SWAP1 POP JUMP JUMPDEST PUSH0 DUP3 DUP3 MSTORE PUSH1 0x20 DUP3 ADD SWAP1 POP SWAP3 SWAP2 POP POP JUMP JUMPDEST DUP3 DUP2 DUP4 MCOPY PUSH0 DUP4 DUP4 ADD MSTORE POP POP POP JUMP JUMPDEST PUSH0 PUSH1 0x1F NOT PUSH1 0x1F DUP4 ADD AND SWAP1 POP SWAP2 SWAP1 POP JUMP JUMPDEST PUSH0 PUSH2 0xF69 DUP3 PUSH2 0xF27 JUMP JUMPDEST PUSH2 0xF73 DUP2 DUP6 PUSH2 0xF31 JUMP JUMPDEST SWAP4 POP PUSH2 0xF83 DUP2 DUP6 PUSH1 0x20 DUP7 ADD PUSH2 0xF41 JUMP JUMPDEST PUSH2 0xF8C DUP2 PUSH2 0xF4F JUMP JUMPDEST DUP5 ADD SWAP2 POP POP SWAP3 SWAP2 POP POP JUMP JUMPDEST PUSH0 PUSH1 0xA0 DUP3 ADD SWAP1 POP PUSH2 0xFAA PUSH0 DUP4 ADD DUP9 PUSH2 0xE77 JUMP JUMPDEST PUSH2 0xFB7 PUSH1 0x20 DUP4 ADD DUP8 PUSH2 0xDC2 JUMP JUMPDEST DUP2 DUP2 SUB PUSH1 0x40 DUP4 ADD MSTORE PUSH2 0xFC9 DUP2 DUP7 PUSH2 0xF5F JUMP JUMPDEST SWAP1 POP PUSH2 0xFD8 PUSH1 0x60 DUP4 ADD DUP6 PUSH2 0xEFF JUMP JUMPDEST PUSH2 0xFE5 PUSH1 0x80 DUP4 ADD DUP5 PUSH2 0xDC2 JUMP JUMPDEST SWAP7 SWAP6 POP POP POP POP POP POP JUMP JUMPDEST PUSH0 PUSH0 REVERT JUMPDEST PUSH0 PUSH0 REVERT JUMPDEST PUSH0 PUSH0 REVERT JUMPDEST PUSH0 PUSH0 DUP4 PUSH1 0x1F DUP5 ADD SLT PUSH2 0x1010 JUMPI PUSH2 0x100F PUSH2 0xFEF JUMP JUMPDEST JUMPDEST DUP3 CALLDATALOAD SWAP1 POP PUSH8 0xFFFFFFFFFFFFFFFF DUP2 GT ISZERO PUSH2 0x102D JUMPI PUSH2 0x102C PUSH2 0xFF3 JUMP JUMPDEST JUMPDEST PUSH1 0x20 DUP4 ADD SWAP2 POP DUP4 PUSH1 0x1 DUP3 MUL DUP4 ADD GT ISZERO PUSH2 0x1049 JUMPI PUSH2 0x1048 PUSH2 0xFF7 JUMP JUMPDEST JUMPDEST SWAP3 POP SWAP3 SWAP1 POP JUMP JUMPDEST PUSH0 PUSH0 PUSH0 PUSH0 PUSH1 0x60 DUP6 DUP8 SUB SLT ISZERO PUSH2 0x1068 JUMPI PUSH2 0x1067 PUSH2 0xDEA JUMP JUMPDEST JUMPDEST PUSH0 PUSH2 0x1075 DUP8 DUP3 DUP9 ADD PUSH2 0xEB5 JUMP JUMPDEST SWAP5 POP POP PUSH1 0x20 PUSH2 0x1086 DUP8 DUP3 DUP9 ADD PUSH2 0xE08 JUMP JUMPDEST SWAP4 POP POP PUSH1 0x40 DUP6 ADD CALLDATALOAD PUSH8 0xFFFFFFFFFFFFFFFF DUP2 GT ISZERO PUSH2 0x10A7 JUMPI PUSH2 0x10A6 PUSH2 0xDEE JUMP JUMPDEST JUMPDEST PUSH2 0x10B3 DUP8 DUP3 DUP9 ADD PUSH2 0xFFB JUMP JUMPDEST SWAP3 POP SWAP3 POP POP SWAP3 SWAP6 SWAP2 SWAP5 POP SWAP3 POP JUMP JUMPDEST PUSH0 PUSH0 PUSH1 0x40 DUP4 DUP6 SUB SLT ISZERO PUSH2 0x10D7 JUMPI PUSH2 0x10D6 PUSH2 0xDEA JUMP JUMPDEST JUMPDEST PUSH0 PUSH2 0x10E4 DUP6 DUP3 DUP7 ADD PUSH2 0xE08 JUMP JUMPDEST SWAP3 POP POP PUSH1 0x20 PUSH2 0x10F5 DUP6 DUP3 DUP7 ADD PUSH2 0xEB5 JUMP JUMPDEST SWAP2 POP POP SWAP3 POP SWAP3 SWAP1 POP JUMP JUMPDEST PUSH0 DUP2 MLOAD SWAP1 POP SWAP2 SWAP1 POP JUMP JUMPDEST PUSH0 DUP3 DUP3 MSTORE PUSH1 0x20 DUP3 ADD SWAP1 POP SWAP3 SWAP2 POP POP JUMP JUMPDEST PUSH0 DUP2 SWAP1 POP PUSH1 0x20 DUP3 ADD SWAP1 POP SWAP2 SWAP1 POP JUMP JUMPDEST PUSH2 0x1131 DUP2 PUSH2 0xE66 JUMP JUMPDEST DUP3 MSTORE POP POP JUMP JUMPDEST PUSH0 PUSH2 0x1142 DUP4 DUP4 PUSH2 0x1128 JUMP JUMPDEST PUSH1 0x20 DUP4 ADD SWAP1 POP SWAP3 SWAP2 POP POP JUMP JUMPDEST PUSH0 PUSH1 0x20 DUP3 ADD SWAP1 POP SWAP2 SWAP1 POP JUMP JUMPDEST PUSH0 PUSH2 0x1164 DUP3 PUSH2 0x10FF JUMP JUMPDEST PUSH2 0x116E DUP2 DUP6 PUSH2 0x1109 JUMP JUMPDEST SWAP4 POP PUSH2 0x1179 DUP4 PUSH2 0x1119 JUMP JUMPDEST DUP1 PUSH0 JUMPDEST DUP4 DUP2 LT ISZERO PUSH2 0x11A9 JUMPI DUP2 MLOAD PUSH2 0x1190 DUP9 DUP3 PUSH2 0x1137 JUMP JUMPDEST SWAP8 POP PUSH2 0x119B DUP4 PUSH2 0x114E JUMP JUMPDEST SWAP3 POP POP PUSH1 0x1 DUP2 ADD SWAP1 POP PUSH2 0x117C JUMP JUMPDEST POP DUP6 SWAP4 POP POP POP POP SWAP3 SWAP2 POP POP JUMP JUMPDEST PUSH0 PUSH1 0x20 DUP3 ADD SWAP1 POP DUP2 DUP2 SUB PUSH0 DUP4 ADD MSTORE PUSH2 0x11CE DUP2 DUP5 PUSH2 0x115A JUMP JUMPDEST SWAP1 POP SWAP3 SWAP2 POP POP JUMP JUMPDEST PUSH0 DUP3 DUP3 MSTORE PUSH1 0x20 DUP3 ADD SWAP1 POP SWAP3 SWAP2 POP POP JUMP JUMPDEST PUSH32 0x4E6F7420616E204F776E65720000000000000000000000000000000000000000 PUSH0 DUP3 ADD MSTORE POP JUMP JUMPDEST PUSH0 PUSH2 0x121A PUSH1 0xC DUP4 PUSH2 0x11D6 JUMP JUMPDEST SWAP2 POP PUSH2 0x1225 DUP3 PUSH2 0x11E6 JUMP JUMPDEST PUSH1 0x20 DUP3 ADD SWAP1 POP SWAP2 SWAP1 POP JUMP JUMPDEST PUSH0 PUSH1 0x20 DUP3 ADD SWAP1 POP DUP2 DUP2 SUB PUSH0 DUP4 ADD MSTORE PUSH2 0x1247 DUP2 PUSH2 0x120E JUMP JUMPDEST SWAP1 POP SWAP2 SWAP1 POP JUMP JUMPDEST PUSH32 0x5472616E73616374696F6E206E6F7420617070726F7665640000000000000000 PUSH0 DUP3 ADD MSTORE POP JUMP JUMPDEST PUSH0 PUSH2 0x1282 PUSH1 0x18 DUP4 PUSH2 0x11D6 JUMP JUMPDEST SWAP2 POP PUSH2 0x128D DUP3 PUSH2 0x124E JUMP JUMPDEST PUSH1 0x20 DUP3 ADD SWAP1 POP SWAP2 SWAP1 POP JUMP JUMPDEST PUSH0 PUSH1 0x20 DUP3 ADD SWAP1 POP DUP2 DUP2 SUB PUSH0 DUP4 ADD MSTORE PUSH2 0x12AF DUP2 PUSH2 0x1276 JUMP JUMPDEST SWAP1 POP SWAP2 SWAP1 POP JUMP JUMPDEST PUSH32 0x4E487B7100000000000000000000000000000000000000000000000000000000 PUSH0 MSTORE PUSH1 0x32 PUSH1 0x4 MSTORE PUSH1 0x24 PUSH0 REVERT JUMPDEST PUSH32 0x5472616E73616374696F6E206E6F742065786563757465640000000000000000 PUSH0 DUP3 ADD MSTORE POP JUMP JUMPDEST PUSH0 PUSH2 0x1317 PUSH1 0x18 DUP4 PUSH2 0x11D6 JUMP JUMPDEST SWAP2 POP PUSH2 0x1322 DUP3 PUSH2 0x12E3 JUMP JUMPDEST PUSH1 0x20 DUP3 ADD SWAP1 POP SWAP2 SWAP1 POP JUMP JUMPDEST PUSH0 PUSH1 0x20 DUP3 ADD SWAP1 POP DUP2 DUP2 SUB PUSH0 DUP4 ADD MSTORE PUSH2 0x1344 DUP2 PUSH2 0x130B JUMP JUMPDEST SWAP1 POP SWAP2 SWAP1 POP JUMP JUMPDEST PUSH32 0x5472616E73616374696F6E206E6F742065786973747300000000000000000000 PUSH0 DUP3 ADD MSTORE POP JUMP JUMPDEST PUSH0 PUSH2 0x137F PUSH1 0x16 DUP4 PUSH2 0x11D6 JUMP JUMPDEST SWAP2 POP PUSH2 0x138A DUP3 PUSH2 0x134B JUMP JUMPDEST PUSH1 0x20 DUP3 ADD SWAP1 POP SWAP2 SWAP1 POP JUMP JUMPDEST PUSH0 PUSH1 0x20 DUP3 ADD SWAP1 POP DUP2 DUP2 SUB PUSH0 DUP4 ADD MSTORE PUSH2 0x13AC DUP2 PUSH2 0x1373 JUMP JUMPDEST SWAP1 POP SWAP2 SWAP1 POP JUMP JUMPDEST PUSH32 0x4E487B7100000000000000000000000000000000000000000000000000000000 PUSH0 MSTORE PUSH1 0x11 PUSH1 0x4 MSTORE PUSH1 0x24 PUSH0 REVERT JUMPDEST PUSH0 PUSH2 0x13EA DUP3 PUSH2 0xDB9 JUMP JUMPDEST SWAP2 POP PUSH2 0x13F5 DUP4 PUSH2 0xDB9 JUMP JUMPDEST SWAP3 POP DUP3 DUP3 ADD SWAP1 POP DUP1 DUP3 GT ISZERO PUSH2 0x140D JUMPI PUSH2 0x140C PUSH2 0x13B3 JUMP JUMPDEST JUMPDEST SWAP3 SWAP2 POP POP JUMP JUMPDEST PUSH32 0x4E487B7100000000000000000000000000000000000000000000000000000000 PUSH0 MSTORE PUSH1 0x22 PUSH1 0x4 MSTORE PUSH1 0x24 PUSH0 REVERT JUMPDEST PUSH0 PUSH1 0x2 DUP3 DIV SWAP1 POP PUSH1 0x1 DUP3 AND DUP1 PUSH2 0x1457 JUMPI PUSH1 0x7F DUP3 AND SWAP2 POP JUMPDEST PUSH1 0x20 DUP3 LT DUP2 SUB PUSH2 0x146A JUMPI PUSH2 0x1469 PUSH2 0x1413 JUMP JUMPDEST JUMPDEST POP SWAP2 SWAP1 POP JUMP JUMPDEST PUSH32 0x4E487B7100000000000000000000000000000000000000000000000000000000 PUSH0 MSTORE PUSH1 0x41 PUSH1 0x4 MSTORE PUSH1 0x24 PUSH0 REVERT JUMPDEST PUSH0 DUP2 SWAP1 POP DUP2 PUSH0 MSTORE PUSH1 0x20 PUSH0 KECCAK256 SWAP1 POP SWAP2 SWAP1 POP JUMP JUMPDEST PUSH0 PUSH1 0x20 PUSH1 0x1F DUP4 ADD DIV SWAP1 POP SWAP2 SWAP1 POP JUMP JUMPDEST PUSH0 DUP3 DUP3 SHL SWAP1 POP SWAP3 SWAP2 POP POP JUMP JUMPDEST PUSH0 PUSH1 0x8 DUP4 MUL PUSH2 0x14F9 PUSH32 0xFFFFFFFFFFFFFFFFFFFFFFFFFFFFFFFFFFFFFFFFFFFFFFFFFFFFFFFFFFFFFFFF DUP3 PUSH2 0x14BE JUMP JUMPDEST PUSH2 0x1503 DUP7 DUP4 PUSH2 0x14BE JUMP JUMPDEST SWAP6 POP DUP1 NOT DUP5 AND SWAP4 POP DUP1 DUP7 AND DUP5 OR SWAP3 POP POP POP SWAP4 SWAP3 POP POP POP JUMP JUMPDEST PUSH0 DUP2 SWAP1 POP SWAP2 SWAP1 POP JUMP JUMPDEST PUSH0 PUSH2 0x153E PUSH2 0x1539 PUSH2 0x1534 DUP5 PUSH2 0xDB9 JUMP JUMPDEST PUSH2 0x151B JUMP JUMPDEST PUSH2 0xDB9 JUMP JUMPDEST SWAP1 POP SWAP2 SWAP1 POP JUMP JUMPDEST PUSH0 DUP2 SWAP1 POP SWAP2 SWAP1 POP JUMP JUMPDEST PUSH2 0x1557 DUP4 PUSH2 0x1524 JUMP JUMPDEST PUSH2 0x156B PUSH2 0x1563 DUP3 PUSH2 0x1545 JUMP JUMPDEST DUP5 DUP5 SLOAD PUSH2 0x14CA JUMP JUMPDEST DUP3 SSTORE POP POP POP POP JUMP JUMPDEST PUSH0 PUSH0 SWAP1 POP SWAP1 JUMP JUMPDEST PUSH2 0x1582 PUSH2 0x1573 JUMP JUMPDEST PUSH2 0x158D DUP2 DUP5 DUP5 PUSH2 0x154E JUMP JUMPDEST POP POP POP JUMP JUMPDEST JUMPDEST DUP2 DUP2 LT ISZERO PUSH2 0x15B0 JUMPI PUSH2 0x15A5 PUSH0 DUP3 PUSH2 0x157A JUMP JUMPDEST PUSH1 0x1 DUP2 ADD SWAP1 POP PUSH2 0x1593 JUMP JUMPDEST POP POP JUMP JUMPDEST PUSH1 0x1F DUP3 GT ISZERO PUSH2 0x15F5 JUMPI PUSH2 0x15C6 DUP2 PUSH2 0x149D JUMP JUMPDEST PUSH2 0x15CF DUP5 PUSH2 0x14AF JUMP JUMPDEST DUP2 ADD PUSH1 0x20 DUP6 LT ISZERO PUSH2 0x15DE JUMPI DUP2 SWAP1 POP JUMPDEST PUSH2 0x15F2 PUSH2 0x15EA DUP6 PUSH2 0x14AF JUMP JUMPDEST DUP4 ADD DUP3 PUSH2 0x1592 JUMP JUMPDEST POP POP JUMPDEST POP POP POP JUMP JUMPDEST PUSH0 DUP3 DUP3 SHR SWAP1 POP SWAP3 SWAP2 POP POP JUMP JUMPDEST PUSH0 PUSH2 0x1615 PUSH0 NOT DUP5 PUSH1 0x8 MUL PUSH2 0x15FA JUMP JUMPDEST NOT DUP1 DUP4 AND SWAP2 POP POP SWAP3 SWAP2 POP POP JUMP JUMPDEST PUSH0 PUSH2 0x162D DUP4 DUP4 PUSH2 0x1606 JUMP JUMPDEST SWAP2 POP DUP3 PUSH1 0x2 MUL DUP3 OR SWAP1 POP SWAP3 SWAP2 POP POP JUMP JUMPDEST PUSH2 0x1646 DUP3 PUSH2 0xF27 JUMP JUMPDEST PUSH8 0xFFFFFFFFFFFFFFFF DUP2 GT ISZERO PUSH2 0x165F JUMPI PUSH2 0x165E PUSH2 0x1470 JUMP JUMPDEST JUMPDEST PUSH2 0x1669 DUP3 SLOAD PUSH2 0x1440 JUMP JUMPDEST PUSH2 0x1674 DUP3 DUP3 DUP6 PUSH2 0x15B4 JUMP JUMPDEST PUSH0 PUSH1 0x20 SWAP1 POP PUSH1 0x1F DUP4 GT PUSH1 0x1 DUP2 EQ PUSH2 0x16A5 JUMPI PUSH0 DUP5 ISZERO PUSH2 0x1693 JUMPI DUP3 DUP8 ADD MLOAD SWAP1 POP JUMPDEST PUSH2 0x169D DUP6 DUP3 PUSH2 0x1622 JUMP JUMPDEST DUP7 SSTORE POP PUSH2 0x1704 JUMP JUMPDEST PUSH1 0x1F NOT DUP5 AND PUSH2 0x16B3 DUP7 PUSH2 0x149D JUMP JUMPDEST PUSH0 JUMPDEST DUP3 DUP2 LT ISZERO PUSH2 0x16DA JUMPI DUP5 DUP10 ADD MLOAD DUP3 SSTORE PUSH1 0x1 DUP3 ADD SWAP2 POP PUSH1 0x20 DUP6 ADD SWAP5 POP PUSH1 0x20 DUP2 ADD SWAP1 POP PUSH2 0x16B5 JUMP JUMPDEST DUP7 DUP4 LT ISZERO PUSH2 0x16F7 JUMPI DUP5 DUP10 ADD MLOAD PUSH2 0x16F3 PUSH1 0x1F DUP10 AND DUP3 PUSH2 0x1606 JUMP JUMPDEST DUP4 SSTORE POP JUMPDEST PUSH1 0x1 PUSH1 0x2 DUP9 MUL ADD DUP9 SSTORE POP POP POP JUMPDEST POP POP POP POP POP POP JUMP JUMPDEST DUP3 DUP2 DUP4 CALLDATACOPY PUSH0 DUP4 DUP4 ADD MSTORE POP POP POP JUMP JUMPDEST PUSH0 PUSH2 0x1725 DUP4 DUP6 PUSH2 0xF31 JUMP JUMPDEST SWAP4 POP PUSH2 0x1732 DUP4 DUP6 DUP5 PUSH2 0x170C JUMP JUMPDEST PUSH2 0x173B DUP4 PUSH2 0xF4F JUMP JUMPDEST DUP5 ADD SWAP1 POP SWAP4 SWAP3 POP POP POP JUMP JUMPDEST PUSH0 PUSH1 0x40 DUP3 ADD SWAP1 POP PUSH2 0x1759 PUSH0 DUP4 ADD DUP7 PUSH2 0xDC2 JUMP JUMPDEST DUP2 DUP2 SUB PUSH1 0x20 DUP4 ADD MSTORE PUSH2 0x176C DUP2 DUP5 DUP7 PUSH2 0x171A JUMP JUMPDEST SWAP1 POP SWAP5 SWAP4 POP POP POP POP JUMP JUMPDEST PUSH32 0x496E73756666696369656E7420417070726F76616C7300000000000000000000 PUSH0 DUP3 ADD MSTORE POP JUMP JUMPDEST PUSH0 PUSH2 0x17AA PUSH1 0x16 DUP4 PUSH2 0x11D6 JUMP JUMPDEST SWAP2 POP PUSH2 0x17B5 DUP3 PUSH2 0x1776 JUMP JUMPDEST PUSH1 0x20 DUP3 ADD SWAP1 POP SWAP2 SWAP1 POP JUMP JUMPDEST PUSH0 PUSH1 0x20 DUP3 ADD SWAP1 POP DUP2 DUP2 SUB PUSH0 DUP4 ADD MSTORE PUSH2 0x17D7 DUP2 PUSH2 0x179E JUMP JUMPDEST SWAP1 POP SWAP2 SWAP1 POP JUMP JUMPDEST PUSH0 DUP2 SWAP1 POP SWAP3 SWAP2 POP POP JUMP JUMPDEST PUSH0 DUP2 SLOAD PUSH2 0x17F4 DUP2 PUSH2 0x1440 JUMP JUMPDEST PUSH2 0x17FE DUP2 DUP7 PUSH2 0x17DE JUMP JUMPDEST SWAP5 POP PUSH1 0x1 DUP3 AND PUSH0 DUP2 EQ PUSH2 0x1818 JUMPI PUSH1 0x1 DUP2 EQ PUSH2 0x182D JUMPI PUSH2 0x185F JUMP JUMPDEST PUSH1 0xFF NOT DUP4 AND DUP7 MSTORE DUP2 ISZERO ISZERO DUP3 MUL DUP7 ADD SWAP4 POP PUSH2 0x185F JUMP JUMPDEST PUSH2 0x1836 DUP6 PUSH2 0x149D JUMP JUMPDEST PUSH0 JUMPDEST DUP4 DUP2 LT ISZERO PUSH2 0x1857 JUMPI DUP2 SLOAD DUP2 DUP10 ADD MSTORE PUSH1 0x1 DUP3 ADD SWAP2 POP PUSH1 0x20 DUP2 ADD SWAP1 POP PUSH2 0x1838 JUMP JUMPDEST DUP4 DUP9 ADD SWAP6 POP POP POP JUMPDEST POP POP POP SWAP3 SWAP2 POP POP JUMP JUMPDEST PUSH0 PUSH2 0x1873 DUP3 DUP5 PUSH2 0x17E8 JUMP JUMPDEST SWAP2 POP DUP2 SWAP1 POP SWAP3 SWAP2 POP POP JUMP JUMPDEST PUSH32 0x5472616E73616374696F6E206661696C65640000000000000000000000000000 PUSH0 DUP3 ADD MSTORE POP JUMP JUMPDEST PUSH0 PUSH2 0x18B2 PUSH1 0x12 DUP4 PUSH2 0x11D6 JUMP JUMPDEST SWAP2 POP PUSH2 0x18BD DUP3 PUSH2 0x187E JUMP JUMPDEST PUSH1 0x20 DUP3 ADD SWAP1 POP SWAP2 SWAP1 POP JUMP JUMPDEST PUSH0 PUSH1 0x20 DUP3 ADD SWAP1 POP DUP2 DUP2 SUB PUSH0 DUP4 ADD MSTORE PUSH2 0x18DF DUP2 PUSH2 0x18A6 JUMP JUMPDEST SWAP1 POP SWAP2 SWAP1 POP JUMP INVALID LOG2 PUSH5 0x6970667358 0x22 SLT KECCAK256 0xE LOG1 SUB MSIZE 0x25 BASEFEE 0xF SWAP2 0xDE DUP4 SWAP14 JUMPF 0xE4FF BLOBBASEFEE PUSH30 0x6F1F302893E1E8798B4A4A1673D85FA764736F6C634300081E0033000000 "
				},
				"gasEstimates": {
					"creation": {
						"codeDepositCost": "1285600",
						"executionCost": "infinite",
						"totalCost": "infinite"
					},
					"external": {
						"approveTransaction(uint256)": "infinite",
						"approved(uint256,address)": "3092",
						"executeTransaction(uint256)": "infinite",
						"getOwners()": "infinite",
						"getTransaction(uint256)": "infinite",
						"getTransactionCount()": "2485",
						"isOwner(address)": "2900",
						"owners(uint256)": "4944",
						"transactionSubmit(address,uint256,bytes)": "infinite",
						"transactions(uint256)": "infinite"
					}
				},
				"methodIdentifiers": {
					"approveTransaction(uint256)": "242232d1",
					"approved(uint256,address)": "8253951a",
					"executeTransaction(uint256)": "ee22610b",
					"getOwners()": "a0e67e2b",
					"getTransaction(uint256)": "33ea3dc8",
					"getTransactionCount()": "2e7700f0",
					"isOwner(address)": "2f54bf6e",
					"owners(uint256)": "025e7c27",
					"transactionSubmit(address,uint256,bytes)": "3e4445ae",
					"transactions(uint256)": "9ace38c2"
				}
			},
			"storageLayout": {
				"storage": [
					{
						"astId": 30,
						"contract": "10_MultiSignature.sol:MultiSigWallet",
						"label": "owners",
						"offset": 0,
						"slot": "0",
						"type": "t_array(t_address)dyn_storage"
					},
					{
						"astId": 34,
						"contract": "10_MultiSignature.sol:MultiSigWallet",
						"label": "isOwner",
						"offset": 0,
						"slot": "1",
						"type": "t_mapping(t_address,t_bool)"
					},
					{
						"astId": 36,
						"contract": "10_MultiSignature.sol:MultiSigWallet",
						"label": "requestedApprovals",
						"offset": 0,
						"slot": "2",
						"type": "t_uint256"
					},
					{
						"astId": 51,
						"contract": "10_MultiSignature.sol:MultiSigWallet",
						"label": "transactions",
						"offset": 0,
						"slot": "3",
						"type": "t_array(t_struct(Transaction)47_storage)dyn_storage"
					},
					{
						"astId": 57,
						"contract": "10_MultiSignature.sol:MultiSigWallet",
						"label": "approved",
						"offset": 0,
						"slot": "4",
						"type": "t_mapping(t_uint256,t_mapping(t_address,t_bool))"
					}
				],
				"types": {
					"t_address": {
						"encoding": "inplace",
						"label": "address",
						"numberOfBytes": "20"
					},
					"t_array(t_address)dyn_storage": {
						"base": "t_address",
						"encoding": "dynamic_array",
						"label": "address[]",
						"numberOfBytes": "32"
					},
					"t_array(t_struct(Transaction)47_storage)dyn_storage": {
						"base": "t_struct(Transaction)47_storage",
						"encoding": "dynamic_array",
						"label": "struct MultiSigWallet.Transaction[]",
						"numberOfBytes": "32"
					},
					"t_bool": {
						"encoding": "inplace",
						"label": "bool",
						"numberOfBytes": "1"
					},
					"t_bytes_storage": {
						"encoding": "bytes",
						"label": "bytes",
						"numberOfBytes": "32"
					},
					"t_mapping(t_address,t_bool)": {
						"encoding": "mapping",
						"key": "t_address",
						"label": "mapping(address => bool)",
						"numberOfBytes": "32",
						"value": "t_bool"
					},
					"t_mapping(t_uint256,t_mapping(t_address,t_bool))": {
						"encoding": "mapping",
						"key": "t_uint256",
						"label": "mapping(uint256 => mapping(address => bool))",
						"numberOfBytes": "32",
						"value": "t_mapping(t_address,t_bool)"
					},
					"t_struct(Transaction)47_storage": {
						"encoding": "inplace",
						"label": "struct MultiSigWallet.Transaction",
						"members": [
							{
								"astId": 38,
								"contract": "10_MultiSignature.sol:MultiSigWallet",
								"label": "to",
								"offset": 0,
								"slot": "0",
								"type": "t_address"
							},
							{
								"astId": 40,
								"contract": "10_MultiSignature.sol:MultiSigWallet",
								"label": "value",
								"offset": 0,
								"slot": "1",
								"type": "t_uint256"
							},
							{
								"astId": 42,
								"contract": "10_MultiSignature.sol:MultiSigWallet",
								"label": "data",
								"offset": 0,
								"slot": "2",
								"type": "t_bytes_storage"
							},
							{
								"astId": 44,
								"contract": "10_MultiSignature.sol:MultiSigWallet",
								"label": "executed",
								"offset": 0,
								"slot": "3",
								"type": "t_bool"
							},
							{
								"astId": 46,
								"contract": "10_MultiSignature.sol:MultiSigWallet",
								"label": "approvalCount",
								"offset": 0,
								"slot": "4",
								"type": "t_uint256"
							}
						],
						"numberOfBytes": "160"
					},
					"t_uint256": {
						"encoding": "inplace",
						"label": "uint256",
						"numberOfBytes": "32"
					}
				}
			},
			"userdoc": {
				"kind": "user",
				"methods": {},
				"version": 1
			}
		}
	}
}