{
	"data": {
		"bytecode": {
			"linkReferences": {},
			"object": "608060405234801561000f575f5ffd5b5060405161248e38038061248e83398101604081905261002e916102d9565b338061005457604051631e4fbdf760e01b81525f60048201526024015b60405180910390fd5b61005d8161022e565b5060016002556001600160a01b0382166100ae5760405162461bcd60e51b81526020600482015260126024820152714645455f524543495049454e545f5a45524f60701b604482015260640161004b565b60c861ffff821611156100f25760405162461bcd60e51b815260206004820152600c60248201526b08c8a8abea89e9ebe90928e960a31b604482015260640161004b565b600580546001600160b01b031916620100006001600160a01b0385160261ffff19161761ffff83161790555f5b83518110156101e357600160045f86848151811061013f5761013f6103c4565b60200260200101516001600160a01b03166001600160a01b031681526020019081526020015f205f6101000a81548160ff02191690831515021790555083818151811061018e5761018e6103c4565b60200260200101516001600160a01b03167f5ae067a93e2af6193017728cb7e9ef5af1d750a5beb7b16a05b54d56f6f355e360016040516101d3911515815260200190565b60405180910390a260010161011f565b5060405161ffff821681526001600160a01b038316907f25db41e00c7b58ea3222b515559a00f3af8f16b0f955b784582f23c554176d6f9060200160405180910390a25050506103d8565b600180546001600160a01b03191690556102478161024a565b50565b5f80546001600160a01b038381166001600160a01b0319831681178455604051919092169283917f8be0079c531659141344cd1fd0a4f28419497f9722a3daafe3b4186f6b6457e09190a35050565b634e487b7160e01b5f52604160045260245ffd5b80516001600160a01b03811681146102c3575f5ffd5b919050565b805161ffff811681146102c3575f5ffd5b5f5f5f606084860312156102eb575f5ffd5b83516001600160401b03811115610300575f5ffd5b8401601f81018613610310575f5ffd5b80516001600160401b0381111561032957610329610299565b604051600582901b90603f8201601f191681016001600160401b038111828210171561035757610357610299565b604052918252602081840181019290810189841115610374575f5ffd5b6020850194505b8385101561039a5761038c856102ad565b81526020948501940161037b565b5095506103ad92505050602085016102ad565b91506103bb604085016102c8565b90509250925092565b634e487b7160e01b5f52603260045260245ffd5b6120a9806103e55f395ff3fe608060405260043610610134575f3560e01c806379ba5097116100a8578063e30c39781161006d578063e30c3978146103e4578063e5711e8b14610401578063f2fde38b14610420578063f87b098c1461043f578063fdd5791e1461045e578063ff7551e314610489575f5ffd5b806379ba50971461035e5780638456cb59146103725780638da5cb5b14610386578063c226c4bb146103a2578063d55be8c6146103d0575f5ffd5b806346904840116100f9578063469048401461024557806352fd5099146102825780635b7499b5146102db5780635c975abb146102fa5780636bdc40a61461031d578063715018a61461034a575f5ffd5b806323dd7f3914610173578063350e9756146101c457806335659fb8146101e557806339a5b0cd146102125780633f4ba83a14610231575f5ffd5b3661016f5760405162461bcd60e51b815260206004820152600660248201526509c9ebe8aa8960d31b60448201526064015b60405180910390fd5b5f5ffd5b34801561017e575f5ffd5b506101a761018d366004611b5a565b60076020525f90815260409020546001600160401b031681565b6040516001600160401b0390911681526020015b60405180910390f35b3480156101cf575f5ffd5b506101e36101de366004611b7a565b61049d565b005b3480156101f0575f5ffd5b506005546101ff9061ffff1681565b60405161ffff90911681526020016101bb565b34801561021d575f5ffd5b506101e361022c366004611bb5565b6105a0565b34801561023c575f5ffd5b506101e36105ff565b348015610250575f5ffd5b5060055461026a906201000090046001600160a01b031681565b6040516001600160a01b0390911681526020016101bb565b34801561028d575f5ffd5b506102a161029c366004611c23565b61063b565b6040805195151586526001600160a01b039485166020870152929093169184019190915261ffff166060830152608082015260a0016101bb565b3480156102e6575f5ffd5b506101e36102f5366004611c9a565b610775565b348015610305575f5ffd5b5060035460ff165b60405190151581526020016101bb565b348015610328575f5ffd5b5061033c610337366004611cb1565b6107e6565b6040519081526020016101bb565b348015610355575f5ffd5b506101e3610998565b348015610369575f5ffd5b506101e36109ab565b34801561037d575f5ffd5b506101e36109ef565b348015610391575f5ffd5b505f546001600160a01b031661026a565b3480156103ad575f5ffd5b5061030d6103bc366004611b5a565b60046020525f908152604090205460ff1681565b3480156103db575f5ffd5b506101ff60c881565b3480156103ef575f5ffd5b506001546001600160a01b031661026a565b34801561040c575f5ffd5b506101e361041b366004611d3f565b610a2b565b34801561042b575f5ffd5b506101e361043a366004611b5a565b610a4c565b34801561044a575f5ffd5b5061033c610459366004611d79565b610abc565b348015610469575f5ffd5b5061033c610478366004611b5a565b60066020525f908152604090205481565b348015610494575f5ffd5b506101e3610d85565b6104a5610dd7565b6001600160a01b0382166104f05760405162461bcd60e51b81526020600482015260126024820152714645455f524543495049454e545f5a45524f60701b6044820152606401610166565b60c861ffff821611156105345760405162461bcd60e51b815260206004820152600c60248201526b08c8a8abea89e9ebe90928e960a31b6044820152606401610166565b600580546001600160b01b031916620100006001600160a01b03851690810261ffff19169190911761ffff8416908117909255604051918252907f25db41e00c7b58ea3222b515559a00f3af8f16b0f955b784582f23c554176d6f906020015b60405180910390a25050565b6105a8610dd7565b6001600160a01b0382165f81815260046020908152604091829020805460ff191685151590811790915591519182527f5ae067a93e2af6193017728cb7e9ef5af1d750a5beb7b16a05b54d56f6f355e39101610594565b610607610dd7565b61060f610e03565b60405133907f71f955adbef5dbb4e16ecd587d398f94155edd0a14295fc23975b92a95b793f7905f90a2565b5f80808080600286101561067c5760405162461bcd60e51b81526020600482015260086024820152670848288bea082a8960c31b6044820152606401610166565b6001881080159061068e575060058811155b6106cb5760405162461bcd60e51b815260206004820152600e60248201526d524f55544552535f315f544f5f3560901b6044820152606401610166565b5f5f6106da8c8c8c8c8c610e55565b915091505f6106ec8d8d8d8d8d610f20565b60408101519091506001600160a01b031661071557505f96509094508593508392509050610768565b5f5f61072b8f845f015185604001518f8f611086565b915091508381111561075557825160409093015160019a5092985091965094509250610768915050565b505f985092965087955085945090925050505b9550955095509550959050565b61077d61117b565b335f8181526006602090815260408083208590556007825291829020805467ffffffffffffffff1916436001600160401b031617905590518381527fbc18d35ebc445de56fb4b050fcab7487b4d634bedb37fdd73db4a87bb17e508e910160405180910390a250565b5f6107ef61119f565b6107f761117b565b5f338a8a8a8a8a8a8a8a60405160200161081999989796959493929190611e47565b60408051601f198184030181529181528151602092830120335f90815260069093529120549091506108795760405162461bcd60e51b81526020600482015260096024820152681393d7d0d3d353525560ba1b6044820152606401610166565b335f9081526006602052604090205481146108c35760405162461bcd60e51b815260206004820152600a60248201526910905117d0d3d353525560b21b6044820152606401610166565b335f908152600760205260409020546001600160401b034381169116106109205760405162461bcd60e51b815260206004820152601160248201527052455645414c5f4e4558545f424c4f434b60781b6044820152606401610166565b335f8181526006602090815260408083208390556007909152808220805467ffffffffffffffff19169055517f1987e6a4ce537a918d38185d7c3a5a6beaf7ab33a80362f59eab4ec9fdd43ed59190a261097f8a8a8a8a8a8a8a610abc565b91505061098c6001600255565b98975050505050505050565b6109a0610dd7565b6109a95f6111c7565b565b60015433906001600160a01b031681146109e35760405163118cdaa760e01b81526001600160a01b0382166004820152602401610166565b6109ec816111c7565b50565b6109f7610dd7565b6109ff6111e0565b60405133907f314364159151b7b18f5ebe5ff7560d5d2bda61579a0b674a2967e01cd7686955905f90a2565b610a33610dd7565b610a476001600160a01b038416838361121d565b505050565b610a54610dd7565b600180546001600160a01b0383166001600160a01b03199091168117909155610a845f546001600160a01b031690565b6001600160a01b03167f38d16b8cac22d99fc7c124b9cd0de2d3fa1faef420bfe791d8c362d765e2270060405160405180910390a350565b5f610ac561119f565b610acd61117b565b6002831015610b095760405162461bcd60e51b81526020600482015260086024820152670848288bea082a8960c31b6044820152606401610166565b60018510801590610b1b575060058511155b610b585760405162461bcd60e51b815260206004820152600e60248201526d524f55544552535f315f544f5f3560901b6044820152606401610166565b81421115610b9a5760405162461bcd60e51b815260206004820152600f60248201526e111150511312539157d41054d4d151608a1b6044820152606401610166565b5f5b85811015610c335760045f888884818110610bb957610bb9611ea0565b9050602002016020810190610bce9190611b5a565b6001600160a01b0316815260208101919091526040015f205460ff16610c2b5760405162461bcd60e51b81526020600482015260126024820152711493d555115497d393d517d0531313d5d15160721b6044820152606401610166565b600101610b9c565b50604080516080810182525f80825260208201819052918101829052606081019190915284845f818110610c6957610c69611ea0565b9050602002016020810190610c7e9190611b5a565b6001600160a01b031681528484610c96600182611ec8565b818110610ca557610ca5611ea0565b9050602002016020810190610cba9190611b5a565b6001600160a01b03166020820152604081018390526060810188905280515f90610ce590338c61127c565b90505f8111610d205760405162461bcd60e51b81526020600482015260076024820152662d22a927afa4a760c91b6044820152606401610166565b5f610d2e828a8a8a8a61137b565b8051909150610d4f57610d48838260200151848a8a611467565b9350610d6d565b610d6a83826020015183604001518585606001518c8c611500565b93505b505050610d7a6001600255565b979650505050505050565b335f8181526006602090815260408083208390556007909152808220805467ffffffffffffffff19169055517f1987e6a4ce537a918d38185d7c3a5a6beaf7ab33a80362f59eab4ec9fdd43ed59190a2565b5f546001600160a01b031633146109a95760405163118cdaa760e01b8152336004820152602401610166565b610e0b61160e565b6003805460ff191690557f5db9ee0a495bf2e6ff9c91a7834c1ba4fdd244a5e8aa4e537bd38aeae4b073aa335b6040516001600160a01b03909116815260200160405180910390a1565b5f80805b85811015610ed4575f610e94888884818110610e7757610e77611ea0565b9050602002016020810190610e8c9190611b5a565b8a8888611631565b905082811115610ecb57809250878783818110610eb357610eb3611ea0565b9050602002016020810190610ec89190611b5a565b93505b50600101610e59565b506001600160a01b038216610f165760405162461bcd60e51b81526020600482015260086024820152674e4f5f524f55544560c01b6044820152606401610166565b9550959350505050565b604080516080810182525f8082526020820181905291810182905260608101829052905b8481101561107c575f610f7f878784818110610f6257610f62611ea0565b9050602002016020810190610f779190611b5a565b898787611631565b90508260200151811115610fe55782516001600160a01b0316604084015260208301516060840152868683818110610fb957610fb9611ea0565b9050602002016020810190610fce9190611b5a565b6001600160a01b0316835260208301819052611073565b826060015181118015611031575082516001600160a01b031687878481811061101057611010611ea0565b90506020020160208101906110259190611b5a565b6001600160a01b031614155b156110735786868381811061104857611048611ea0565b905060200201602081019061105d9190611b5a565b6001600160a01b03166040840152606083018190525b50600101610f44565b5095945050505050565b6040805160a081018252612710808252611d4c6020830152611388928201929092526109c460608201525f6080820181905290815b600581101561116f575f8282600581106110d7576110d7611ea0565b602002015190505f6127106110f061ffff84168d611edb565b6110fa9190611ef2565b90505f611107828d611ec8565b90505f82156111215761111c8c848c8c611631565b611123565b5f5b90505f821561113d576111388c848d8d611631565b61113f565b5f5b90505f61114c8284611f11565b90508881111561115d578098508599505b5050600190940193506110bb92505050565b50509550959350505050565b60035460ff16156109a95760405163d93c066560e01b815260040160405180910390fd5b60028054036111c157604051633ee5aeb560e01b815260040160405180910390fd5b60028055565b600180546001600160a01b03191690556109ec816116ed565b6111e861117b565b6003805460ff191660011790557f62e78cea01bee320cd4e420270b5ea74000d11b0c9f74754ebdbfc544b05a258610e383390565b6040516001600160a01b03838116602483015260448201839052610a4791859182169063a9059cbb906064015b604051602081830303815290604052915060e01b6020820180516001600160e01b03838183161783525050505061173c565b6040516370a0823160e01b81523060048201525f9081906001600160a01b038616906370a0823190602401602060405180830381865afa1580156112c2573d5f5f3e3d5ffd5b505050506040513d601f19601f820116820180604052508101906112e69190611f24565b90506112fd6001600160a01b0386168530866117ae565b6040516370a0823160e01b81523060048201525f906001600160a01b038716906370a0823190602401602060405180830381865afa158015611341573d5f5f3e3d5ffd5b505050506040513d601f19601f820116820180604052508101906113659190611f24565b90506113718282611ec8565b9695505050505050565b6040805160a0810182525f80825260208201819052918101829052606081018290526080810182905290806113b38888888888610e55565b915091505f6113c58989898989610f20565b5f8086526001600160a01b038086166020880152604080880183905260608801929092526080870185905290820151919250161561145b575f5f6114138b845f015185604001518b8b611086565b915091508560800151811115611458576001865282516001600160a01b0390811660208801526040808501519091169087015261ffff82166060870152608086018190525b50505b50505095945050505050565b5f5f61147b87878787878c606001516117e7565b905086606001518110156114c55760405162461bcd60e51b81526020600482015260116024820152700a69892a0a0828e8abea89e9ebe90928e9607b1b6044820152606401610166565b5f5f6114d5896020015184611973565b60208b015191935091506114f3906001600160a01b0316338361121d565b61098c89898984866119e8565b5f8061271061151361ffff871688611edb565b61151d9190611ef2565b90505f61152a8288611ec8565b905061154d60405180606001604052805f81526020015f81526020015f81525090565b61155b8b8b8589895f6117e7565b815261156b8b8a8489895f6117e7565b60208201819052815161157e9190611f11565b6040820181905260608c015111156115cc5760405162461bcd60e51b81526020600482015260116024820152700a69892a0a0828e8abea89e9ebe90928e9607b1b6044820152606401610166565b5f5f6115e08d602001518460400151611973565b60208f015191935091506115fe906001600160a01b0316338361121d565b9c9b505050505050505050505050565b60035460ff166109a957604051638dfc202b60e01b815260040160405180910390fd5b60405163d06ca61f60e01b81525f906001600160a01b0386169063d06ca61f9061166390879087908790600401611f3b565b5f60405180830381865afa92505050801561169f57506040513d5f823e601f3d908101601f1916820160405261169c9190810190611f71565b60015b6116aa57505f6116e5565b8051156116e05780600182516116c09190611ec8565b815181106116d0576116d0611ea0565b60200260200101519150506116e5565b5f9150505b949350505050565b5f80546001600160a01b038381166001600160a01b0319831681178455604051919092169283917f8be0079c531659141344cd1fd0a4f28419497f9722a3daafe3b4186f6b6457e09190a35050565b5f5f60205f8451602086015f885af18061175b576040513d5f823e3d81fd5b50505f513d9150811561177257806001141561177f565b6001600160a01b0384163b155b156117a857604051635274afe760e01b81526001600160a01b0385166004820152602401610166565b50505050565b6040516001600160a01b0384811660248301528381166044830152606482018390526117a89186918216906323b872dd9060840161124a565b5f845f036117f657505f611371565b8651611803908787611a59565b60208701516040516370a0823160e01b81523060048201525f916001600160a01b0316906370a0823190602401602060405180830381865afa15801561184b573d5f5f3e3d5ffd5b505050506040513d601f19601f8201168201806040525081019061186f9190611f24565b9050866001600160a01b03166338ed173987858888308e604001516040518763ffffffff1660e01b81526004016118ab96959493929190612036565b5f604051808303815f875af11580156118c6573d5f5f3e3d5ffd5b505050506040513d5f823e601f3d908101601f191682016040526118ed9190810190611f71565b5060208801516040516370a0823160e01b81523060048201525f916001600160a01b0316906370a0823190602401602060405180830381865afa158015611936573d5f5f3e3d5ffd5b505050506040513d601f19601f8201168201806040525081019061195a9190611f24565b90506119668282611ec8565b9998505050505050505050565b6005545f90819061ffff16810361198e57505f9050816119e1565b600554612710906119a39061ffff1685611edb565b6119ad9190611ef2565b91506119b98284611ec8565b905081156119e1576005546119e1906001600160a01b0386811691620100009004168461121d565b9250929050565b8451602080870151604080516001600160a01b0394851681529184169282019290925290810185905260608101849052608081018390529085169033907fa3c755d4452dec05c2f66980b0a74a215e95dd31bef2194bebce30f397fb6e2e9060a00160405180910390a35050505050565b604080516001600160a01b03848116602483015260448083018590528351808403909101815260649092019092526020810180516001600160e01b031663095ea7b360e01b179052610a479185169084908490611ab68482611af4565b6117a8576040516001600160a01b0384811660248301525f6044830152611aea91869182169063095ea7b39060640161124a565b6117a8848261173c565b5f5f5f5f60205f8651602088015f8a5af192503d91505f519050828015611b3357508115611b255780600114611b33565b5f866001600160a01b03163b115b93505050505b92915050565b80356001600160a01b0381168114611b55575f5ffd5b919050565b5f60208284031215611b6a575f5ffd5b611b7382611b3f565b9392505050565b5f5f60408385031215611b8b575f5ffd5b611b9483611b3f565b9150602083013561ffff81168114611baa575f5ffd5b809150509250929050565b5f5f60408385031215611bc6575f5ffd5b611bcf83611b3f565b915060208301358015158114611baa575f5ffd5b5f5f83601f840112611bf3575f5ffd5b5081356001600160401b03811115611c09575f5ffd5b6020830191508360208260051b85010111156119e1575f5ffd5b5f5f5f5f5f60608688031215611c37575f5ffd5b8535945060208601356001600160401b03811115611c53575f5ffd5b611c5f88828901611be3565b90955093505060408601356001600160401b03811115611c7d575f5ffd5b611c8988828901611be3565b969995985093965092949392505050565b5f60208284031215611caa575f5ffd5b5035919050565b5f5f5f5f5f5f5f5f60c0898b031215611cc8575f5ffd5b883597506020890135965060408901356001600160401b03811115611ceb575f5ffd5b611cf78b828c01611be3565b90975095505060608901356001600160401b03811115611d15575f5ffd5b611d218b828c01611be3565b999c989b5096999598969760808701359660a0013595509350505050565b5f5f5f60608486031215611d51575f5ffd5b611d5a84611b3f565b9250611d6860208501611b3f565b929592945050506040919091013590565b5f5f5f5f5f5f5f60a0888a031215611d8f575f5ffd5b873596506020880135955060408801356001600160401b03811115611db2575f5ffd5b611dbe8a828b01611be3565b90965094505060608801356001600160401b03811115611ddc575f5ffd5b611de88a828b01611be3565b989b979a50959894979596608090950135949350505050565b8183526020830192505f815f5b84811015611e3d576001600160a01b03611e2783611b3f565b1686526020958601959190910190600101611e0e565b5093949350505050565b60018060a01b038a16815288602082015287604082015260e060608201525f611e7460e08301888a611e01565b8281036080840152611e87818789611e01565b60a0840195909552505060c00152979650505050505050565b634e487b7160e01b5f52603260045260245ffd5b634e487b7160e01b5f52601160045260245ffd5b81810381811115611b3957611b39611eb4565b8082028115828204841417611b3957611b39611eb4565b5f82611f0c57634e487b7160e01b5f52601260045260245ffd5b500490565b80820180821115611b3957611b39611eb4565b5f60208284031215611f34575f5ffd5b5051919050565b838152604060208201525f611f54604083018486611e01565b95945050505050565b634e487b7160e01b5f52604160045260245ffd5b5f60208284031215611f81575f5ffd5b81516001600160401b03811115611f96575f5ffd5b8201601f81018413611fa6575f5ffd5b80516001600160401b03811115611fbf57611fbf611f5d565b8060051b604051601f19603f83011681018181106001600160401b0382111715611feb57611feb611f5d565b604052918252602081840181019290810187841115612008575f5ffd5b6020850194505b8385101561202b5784518082526020958601959093500161200f565b509695505050505050565b86815285602082015260a060408201525f61205560a083018688611e01565b6001600160a01b03949094166060830152506080015294935050505056fea26469706673582212203047489f4598ccb017260df5cba3eb00c5666afc72a242e9e5dab52e4af43e4964736f6c634300081e0033",
			"opcodes": "PUSH1 0x80 PUSH1 0x40 MSTORE CALLVALUE DUP1 ISZERO PUSH2 0xF JUMPI PUSH0 PUSH0 REVERT JUMPDEST POP PUSH1 0x40 MLOAD PUSH2 0x248E CODESIZE SUB DUP1 PUSH2 0x248E DUP4 CODECOPY DUP2 ADD PUSH1 0x40 DUP2 SWAP1 MSTORE PUSH2 0x2E SWAP2 PUSH2 0x2D9 JUMP JUMPDEST CALLER DUP1 PUSH2 0x54 JUMPI PUSH1 0x40 MLOAD PUSH4 0x1E4FBDF7 PUSH1 0xE0 SHL DUP2 MSTORE PUSH0 PUSH1 0x4 DUP3 ADD MSTORE PUSH1 0x24 ADD JUMPDEST PUSH1 0x40 MLOAD DUP1 SWAP2 SUB SWAP1 REVERT JUMPDEST PUSH2 0x5D DUP2 PUSH2 0x22E JUMP JUMPDEST POP PUSH1 0x1 PUSH1 0x2 SSTORE PUSH1 0x1 PUSH1 0x1 PUSH1 0xA0 SHL SUB DUP3 AND PUSH2 0xAE JUMPI PUSH1 0x40 MLOAD PUSH3 0x461BCD PUSH1 0xE5 SHL DUP2 MSTORE PUSH1 0x20 PUSH1 0x4 DUP3 ADD MSTORE PUSH1 0x12 PUSH1 0x24 DUP3 ADD MSTORE PUSH18 0x4645455F524543495049454E545F5A45524F PUSH1 0x70 SHL PUSH1 0x44 DUP3 ADD MSTORE PUSH1 0x64 ADD PUSH2 0x4B JUMP JUMPDEST PUSH1 0xC8 PUSH2 0xFFFF DUP3 AND GT ISZERO PUSH2 0xF2 JUMPI PUSH1 0x40 MLOAD PUSH3 0x461BCD PUSH1 0xE5 SHL DUP2 MSTORE PUSH1 0x20 PUSH1 0x4 DUP3 ADD MSTORE PUSH1 0xC PUSH1 0x24 DUP3 ADD MSTORE PUSH12 0x8C8A8ABEA89E9EBE90928E9 PUSH1 0xA3 SHL PUSH1 0x44 DUP3 ADD MSTORE PUSH1 0x64 ADD PUSH2 0x4B JUMP JUMPDEST PUSH1 0x5 DUP1 SLOAD PUSH1 0x1 PUSH1 0x1 PUSH1 0xB0 SHL SUB NOT AND PUSH3 0x10000 PUSH1 0x1 PUSH1 0x1 PUSH1 0xA0 SHL SUB DUP6 AND MUL PUSH2 0xFFFF NOT AND OR PUSH2 0xFFFF DUP4 AND OR SWAP1 SSTORE PUSH0 JUMPDEST DUP4 MLOAD DUP2 LT ISZERO PUSH2 0x1E3 JUMPI PUSH1 0x1 PUSH1 0x4 PUSH0 DUP7 DUP5 DUP2 MLOAD DUP2 LT PUSH2 0x13F JUMPI PUSH2 0x13F PUSH2 0x3C4 JUMP JUMPDEST PUSH1 0x20 MUL PUSH1 0x20 ADD ADD MLOAD PUSH1 0x1 PUSH1 0x1 PUSH1 0xA0 SHL SUB AND PUSH1 0x1 PUSH1 0x1 PUSH1 0xA0 SHL SUB AND DUP2 MSTORE PUSH1 0x20 ADD SWAP1 DUP2 MSTORE PUSH1 0x20 ADD PUSH0 KECCAK256 PUSH0 PUSH2 0x100 EXP DUP2 SLOAD DUP2 PUSH1 0xFF MUL NOT AND SWAP1 DUP4 ISZERO ISZERO MUL OR SWAP1 SSTORE POP DUP4 DUP2 DUP2 MLOAD DUP2 LT PUSH2 0x18E JUMPI PUSH2 0x18E PUSH2 0x3C4 JUMP JUMPDEST PUSH1 0x20 MUL PUSH1 0x20 ADD ADD MLOAD PUSH1 0x1 PUSH1 0x1 PUSH1 0xA0 SHL SUB AND PUSH32 0x5AE067A93E2AF6193017728CB7E9EF5AF1D750A5BEB7B16A05B54D56F6F355E3 PUSH1 0x1 PUSH1 0x40 MLOAD PUSH2 0x1D3 SWAP2 ISZERO ISZERO DUP2 MSTORE PUSH1 0x20 ADD SWAP1 JUMP JUMPDEST PUSH1 0x40 MLOAD DUP1 SWAP2 SUB SWAP1 LOG2 PUSH1 0x1 ADD PUSH2 0x11F JUMP JUMPDEST POP PUSH1 0x40 MLOAD PUSH2 0xFFFF DUP3 AND DUP2 MSTORE PUSH1 0x1 PUSH1 0x1 PUSH1 0xA0 SHL SUB DUP4 AND SWAP1 PUSH32 0x25DB41E00C7B58EA3222B515559A00F3AF8F16B0F955B784582F23C554176D6F SWAP1 PUSH1 0x20 ADD PUSH1 0x40 MLOAD DUP1 SWAP2 SUB SWAP1 LOG2 POP POP POP PUSH2 0x3D8 JUMP JUMPDEST PUSH1 0x1 DUP1 SLOAD PUSH1 0x1 PUSH1 0x1 PUSH1 0xA0 SHL SUB NOT AND SWAP1 SSTORE PUSH2 0x247 DUP2 PUSH2 0x24A JUMP JUMPDEST POP JUMP JUMPDEST PUSH0 DUP1 SLOAD PUSH1 0x1 PUSH1 0x1 PUSH1 0xA0 SHL SUB DUP4 DUP2 AND PUSH1 0x1 PUSH1 0x1 PUSH1 0xA0 SHL SUB NOT DUP4 AND DUP2 OR DUP5 SSTORE PUSH1 0x40 MLOAD SWAP2 SWAP1 SWAP3 AND SWAP3 DUP4 SWAP2 PUSH32 0x8BE0079C531659141344CD1FD0A4F28419497F9722A3DAAFE3B4186F6B6457E0 SWAP2 SWAP1 LOG3 POP POP JUMP JUMPDEST PUSH4 0x4E487B71 PUSH1 0xE0 SHL PUSH0 MSTORE PUSH1 0x41 PUSH1 0x4 MSTORE PUSH1 0x24 PUSH0 REVERT JUMPDEST DUP1 MLOAD PUSH1 0x1 PUSH1 0x1 PUSH1 0xA0 SHL SUB DUP2 AND DUP2 EQ PUSH2 0x2C3 JUMPI PUSH0 PUSH0 REVERT JUMPDEST SWAP2 SWAP1 POP JUMP JUMPDEST DUP1 MLOAD PUSH2 0xFFFF DUP2 AND DUP2 EQ PUSH2 0x2C3 JUMPI PUSH0 PUSH0 REVERT JUMPDEST PUSH0 PUSH0 PUSH0 PUSH1 0x60 DUP5 DUP7 SUB SLT ISZERO PUSH2 0x2EB JUMPI PUSH0 PUSH0 REVERT JUMPDEST DUP4 MLOAD PUSH1 0x1 PUSH1 0x1 PUSH1 0x40 SHL SUB DUP2 GT ISZERO PUSH2 0x300 JUMPI PUSH0 PUSH0 REVERT JUMPDEST DUP5 ADD PUSH1 0x1F DUP2 ADD DUP7 SGT PUSH2 0x310 JUMPI PUSH0 PUSH0 REVERT JUMPDEST DUP1 MLOAD PUSH1 0x1 PUSH1 0x1 PUSH1 0x40 SHL SUB DUP2 GT ISZERO PUSH2 0x329 JUMPI PUSH2 0x329 PUSH2 0x299 JUMP JUMPDEST PUSH1 0x40 MLOAD PUSH1 0x5 DUP3 SWAP1 SHL SWAP1 PUSH1 0x3F DUP3 ADD PUSH1 0x1F NOT AND DUP2 ADD PUSH1 0x1 PUSH1 0x1 PUSH1 0x40 SHL SUB DUP2 GT DUP3 DUP3 LT OR ISZERO PUSH2 0x357 JUMPI PUSH2 0x357 PUSH2 0x299 JUMP JUMPDEST PUSH1 0x40 MSTORE SWAP2 DUP3 MSTORE PUSH1 0x20 DUP2 DUP5 ADD DUP2 ADD SWAP3 SWAP1 DUP2 ADD DUP10 DUP5 GT ISZERO PUSH2 0x374 JUMPI PUSH0 PUSH0 REVERT JUMPDEST PUSH1 0x20 DUP6 ADD SWAP5 POP JUMPDEST DUP4 DUP6 LT ISZERO PUSH2 0x39A JUMPI PUSH2 0x38C DUP6 PUSH2 0x2AD JUMP JUMPDEST DUP2 MSTORE PUSH1 0x20 SWAP5 DUP6 ADD SWAP5 ADD PUSH2 0x37B JUMP JUMPDEST POP SWAP6 POP PUSH2 0x3AD SWAP3 POP POP POP PUSH1 0x20 DUP6 ADD PUSH2 0x2AD JUMP JUMPDEST SWAP2 POP PUSH2 0x3BB PUSH1 0x40 DUP6 ADD PUSH2 0x2C8 JUMP JUMPDEST SWAP1 POP SWAP3 POP SWAP3 POP SWAP3 JUMP JUMPDEST PUSH4 0x4E487B71 PUSH1 0xE0 SHL PUSH0 MSTORE PUSH1 0x32 PUSH1 0x4 MSTORE PUSH1 0x24 PUSH0 REVERT JUMPDEST PUSH2 0x20A9 DUP1 PUSH2 0x3E5 PUSH0 CODECOPY PUSH0 RETURN INVALID PUSH1 0x80 PUSH1 0x40 MSTORE PUSH1 0x4 CALLDATASIZE LT PUSH2 0x134 JUMPI PUSH0 CALLDATALOAD PUSH1 0xE0 SHR DUP1 PUSH4 0x79BA5097 GT PUSH2 0xA8 JUMPI DUP1 PUSH4 0xE30C3978 GT PUSH2 0x6D JUMPI DUP1 PUSH4 0xE30C3978 EQ PUSH2 0x3E4 JUMPI DUP1 PUSH4 0xE5711E8B EQ PUSH2 0x401 JUMPI DUP1 PUSH4 0xF2FDE38B EQ PUSH2 0x420 JUMPI DUP1 PUSH4 0xF87B098C EQ PUSH2 0x43F JUMPI DUP1 PUSH4 0xFDD5791E EQ PUSH2 0x45E JUMPI DUP1 PUSH4 0xFF7551E3 EQ PUSH2 0x489 JUMPI PUSH0 PUSH0 REVERT JUMPDEST DUP1 PUSH4 0x79BA5097 EQ PUSH2 0x35E JUMPI DUP1 PUSH4 0x8456CB59 EQ PUSH2 0x372 JUMPI DUP1 PUSH4 0x8DA5CB5B EQ PUSH2 0x386 JUMPI DUP1 PUSH4 0xC226C4BB EQ PUSH2 0x3A2 JUMPI DUP1 PUSH4 0xD55BE8C6 EQ PUSH2 0x3D0 JUMPI PUSH0 PUSH0 REVERT JUMPDEST DUP1 PUSH4 0x46904840 GT PUSH2 0xF9 JUMPI DUP1 PUSH4 0x46904840 EQ PUSH2 0x245 JUMPI DUP1 PUSH4 0x52FD5099 EQ PUSH2 0x282 JUMPI DUP1 PUSH4 0x5B7499B5 EQ PUSH2 0x2DB JUMPI DUP1 PUSH4 0x5C975ABB EQ PUSH2 0x2FA JUMPI DUP1 PUSH4 0x6BDC40A6 EQ PUSH2 0x31D JUMPI DUP1 PUSH4 0x715018A6 EQ PUSH2 0x34A JUMPI PUSH0 PUSH0 REVERT JUMPDEST DUP1 PUSH4 0x23DD7F39 EQ PUSH2 0x173 JUMPI DUP1 PUSH4 0x350E9756 EQ PUSH2 0x1C4 JUMPI DUP1 PUSH4 0x35659FB8 EQ PUSH2 0x1E5 JUMPI DUP1 PUSH4 0x39A5B0CD EQ PUSH2 0x212 JUMPI DUP1 PUSH4 0x3F4BA83A EQ PUSH2 0x231 JUMPI PUSH0 PUSH0 REVERT JUMPDEST CALLDATASIZE PUSH2 0x16F JUMPI PUSH1 0x40 MLOAD PUSH3 0x461BCD PUSH1 0xE5 SHL DUP2 MSTORE PUSH1 0x20 PUSH1 0x4 DUP3 ADD MSTORE PUSH1 0x6 PUSH1 0x24 DUP3 ADD MSTORE PUSH6 0x9C9EBE8AA89 PUSH1 0xD3 SHL PUSH1 0x44 DUP3 ADD MSTORE PUSH1 0x64 ADD JUMPDEST PUSH1 0x40 MLOAD DUP1 SWAP2 SUB SWAP1 REVERT JUMPDEST PUSH0 PUSH0 REVERT JUMPDEST CALLVALUE DUP1 ISZERO PUSH2 0x17E JUMPI PUSH0 PUSH0 REVERT JUMPDEST POP PUSH2 0x1A7 PUSH2 0x18D CALLDATASIZE PUSH1 0x4 PUSH2 0x1B5A JUMP JUMPDEST PUSH1 0x7 PUSH1 0x20 MSTORE PUSH0 SWAP1 DUP2 MSTORE PUSH1 0x40 SWAP1 KECCAK256 SLOAD PUSH1 0x1 PUSH1 0x1 PUSH1 0x40 SHL SUB AND DUP2 JUMP JUMPDEST PUSH1 0x40 MLOAD PUSH1 0x1 PUSH1 0x1 PUSH1 0x40 SHL SUB SWAP1 SWAP2 AND DUP2 MSTORE PUSH1 0x20 ADD JUMPDEST PUSH1 0x40 MLOAD DUP1 SWAP2 SUB SWAP1 RETURN JUMPDEST CALLVALUE DUP1 ISZERO PUSH2 0x1CF JUMPI PUSH0 PUSH0 REVERT JUMPDEST POP PUSH2 0x1E3 PUSH2 0x1DE CALLDATASIZE PUSH1 0x4 PUSH2 0x1B7A JUMP JUMPDEST PUSH2 0x49D JUMP JUMPDEST STOP JUMPDEST CALLVALUE DUP1 ISZERO PUSH2 0x1F0 JUMPI PUSH0 PUSH0 REVERT JUMPDEST POP PUSH1 0x5 SLOAD PUSH2 0x1FF SWAP1 PUSH2 0xFFFF AND DUP2 JUMP JUMPDEST PUSH1 0x40 MLOAD PUSH2 0xFFFF SWAP1 SWAP2 AND DUP2 MSTORE PUSH1 0x20 ADD PUSH2 0x1BB JUMP JUMPDEST CALLVALUE DUP1 ISZERO PUSH2 0x21D JUMPI PUSH0 PUSH0 REVERT JUMPDEST POP PUSH2 0x1E3 PUSH2 0x22C CALLDATASIZE PUSH1 0x4 PUSH2 0x1BB5 JUMP JUMPDEST PUSH2 0x5A0 JUMP JUMPDEST CALLVALUE DUP1 ISZERO PUSH2 0x23C JUMPI PUSH0 PUSH0 REVERT JUMPDEST POP PUSH2 0x1E3 PUSH2 0x5FF JUMP JUMPDEST CALLVALUE DUP1 ISZERO PUSH2 0x250 JUMPI PUSH0 PUSH0 REVERT JUMPDEST POP PUSH1 0x5 SLOAD PUSH2 0x26A SWAP1 PUSH3 0x10000 SWAP1 DIV PUSH1 0x1 PUSH1 0x1 PUSH1 0xA0 SHL SUB AND DUP2 JUMP JUMPDEST PUSH1 0x40 MLOAD PUSH1 0x1 PUSH1 0x1 PUSH1 0xA0 SHL SUB SWAP1 SWAP2 AND DUP2 MSTORE PUSH1 0x20 ADD PUSH2 0x1BB JUMP JUMPDEST CALLVALUE DUP1 ISZERO PUSH2 0x28D JUMPI PUSH0 PUSH0 REVERT JUMPDEST POP PUSH2 0x2A1 PUSH2 0x29C CALLDATASIZE PUSH1 0x4 PUSH2 0x1C23 JUMP JUMPDEST PUSH2 0x63B JUMP JUMPDEST PUSH1 0x40 DUP1 MLOAD SWAP6 ISZERO ISZERO DUP7 MSTORE PUSH1 0x1 PUSH1 0x1 PUSH1 0xA0 SHL SUB SWAP5 DUP6 AND PUSH1 0x20 DUP8 ADD MSTORE SWAP3 SWAP1 SWAP4 AND SWAP2 DUP5 ADD SWAP2 SWAP1 SWAP2 MSTORE PUSH2 0xFFFF AND PUSH1 0x60 DUP4 ADD MSTORE PUSH1 0x80 DUP3 ADD MSTORE PUSH1 0xA0 ADD PUSH2 0x1BB JUMP JUMPDEST CALLVALUE DUP1 ISZERO PUSH2 0x2E6 JUMPI PUSH0 PUSH0 REVERT JUMPDEST POP PUSH2 0x1E3 PUSH2 0x2F5 CALLDATASIZE PUSH1 0x4 PUSH2 0x1C9A JUMP JUMPDEST PUSH2 0x775 JUMP JUMPDEST CALLVALUE DUP1 ISZERO PUSH2 0x305 JUMPI PUSH0 PUSH0 REVERT JUMPDEST POP PUSH1 0x3 SLOAD PUSH1 0xFF AND JUMPDEST PUSH1 0x40 MLOAD SWAP1 ISZERO ISZERO DUP2 MSTORE PUSH1 0x20 ADD PUSH2 0x1BB JUMP JUMPDEST CALLVALUE DUP1 ISZERO PUSH2 0x328 JUMPI PUSH0 PUSH0 REVERT JUMPDEST POP PUSH2 0x33C PUSH2 0x337 CALLDATASIZE PUSH1 0x4 PUSH2 0x1CB1 JUMP JUMPDEST PUSH2 0x7E6 JUMP JUMPDEST PUSH1 0x40 MLOAD SWAP1 DUP2 MSTORE PUSH1 0x20 ADD PUSH2 0x1BB JUMP JUMPDEST CALLVALUE DUP1 ISZERO PUSH2 0x355 JUMPI PUSH0 PUSH0 REVERT JUMPDEST POP PUSH2 0x1E3 PUSH2 0x998 JUMP JUMPDEST CALLVALUE DUP1 ISZERO PUSH2 0x369 JUMPI PUSH0 PUSH0 REVERT JUMPDEST POP PUSH2 0x1E3 PUSH2 0x9AB JUMP JUMPDEST CALLVALUE DUP1 ISZERO PUSH2 0x37D JUMPI PUSH0 PUSH0 REVERT JUMPDEST POP PUSH2 0x1E3 PUSH2 0x9EF JUMP JUMPDEST CALLVALUE DUP1 ISZERO PUSH2 0x391 JUMPI PUSH0 PUSH0 REVERT JUMPDEST POP PUSH0 SLOAD PUSH1 0x1 PUSH1 0x1 PUSH1 0xA0 SHL SUB AND PUSH2 0x26A JUMP JUMPDEST CALLVALUE DUP1 ISZERO PUSH2 0x3AD JUMPI PUSH0 PUSH0 REVERT JUMPDEST POP PUSH2 0x30D PUSH2 0x3BC CALLDATASIZE PUSH1 0x4 PUSH2 0x1B5A JUMP JUMPDEST PUSH1 0x4 PUSH1 0x20 MSTORE PUSH0 SWAP1 DUP2 MSTORE PUSH1 0x40 SWAP1 KECCAK256 SLOAD PUSH1 0xFF AND DUP2 JUMP JUMPDEST CALLVALUE DUP1 ISZERO PUSH2 0x3DB JUMPI PUSH0 PUSH0 REVERT JUMPDEST POP PUSH2 0x1FF PUSH1 0xC8 DUP2 JUMP JUMPDEST CALLVALUE DUP1 ISZERO PUSH2 0x3EF JUMPI PUSH0 PUSH0 REVERT JUMPDEST POP PUSH1 0x1 SLOAD PUSH1 0x1 PUSH1 0x1 PUSH1 0xA0 SHL SUB AND PUSH2 0x26A JUMP JUMPDEST CALLVALUE DUP1 ISZERO PUSH2 0x40C JUMPI PUSH0 PUSH0 REVERT JUMPDEST POP PUSH2 0x1E3 PUSH2 0x41B CALLDATASIZE PUSH1 0x4 PUSH2 0x1D3F JUMP JUMPDEST PUSH2 0xA2B JUMP JUMPDEST CALLVALUE DUP1 ISZERO PUSH2 0x42B JUMPI PUSH0 PUSH0 REVERT JUMPDEST POP PUSH2 0x1E3 PUSH2 0x43A CALLDATASIZE PUSH1 0x4 PUSH2 0x1B5A JUMP JUMPDEST PUSH2 0xA4C JUMP JUMPDEST CALLVALUE DUP1 ISZERO PUSH2 0x44A JUMPI PUSH0 PUSH0 REVERT JUMPDEST POP PUSH2 0x33C PUSH2 0x459 CALLDATASIZE PUSH1 0x4 PUSH2 0x1D79 JUMP JUMPDEST PUSH2 0xABC JUMP JUMPDEST CALLVALUE DUP1 ISZERO PUSH2 0x469 JUMPI PUSH0 PUSH0 REVERT JUMPDEST POP PUSH2 0x33C PUSH2 0x478 CALLDATASIZE PUSH1 0x4 PUSH2 0x1B5A JUMP JUMPDEST PUSH1 0x6 PUSH1 0x20 MSTORE PUSH0 SWAP1 DUP2 MSTORE PUSH1 0x40 SWAP1 KECCAK256 SLOAD DUP2 JUMP JUMPDEST CALLVALUE DUP1 ISZERO PUSH2 0x494 JUMPI PUSH0 PUSH0 REVERT JUMPDEST POP PUSH2 0x1E3 PUSH2 0xD85 JUMP JUMPDEST PUSH2 0x4A5 PUSH2 0xDD7 JUMP JUMPDEST PUSH1 0x1 PUSH1 0x1 PUSH1 0xA0 SHL SUB DUP3 AND PUSH2 0x4F0 JUMPI PUSH1 0x40 MLOAD PUSH3 0x461BCD PUSH1 0xE5 SHL DUP2 MSTORE PUSH1 0x20 PUSH1 0x4 DUP3 ADD MSTORE PUSH1 0x12 PUSH1 0x24 DUP3 ADD MSTORE PUSH18 0x4645455F524543495049454E545F5A45524F PUSH1 0x70 SHL PUSH1 0x44 DUP3 ADD MSTORE PUSH1 0x64 ADD PUSH2 0x166 JUMP JUMPDEST PUSH1 0xC8 PUSH2 0xFFFF DUP3 AND GT ISZERO PUSH2 0x534 JUMPI PUSH1 0x40 MLOAD PUSH3 0x461BCD PUSH1 0xE5 SHL DUP2 MSTORE PUSH1 0x20 PUSH1 0x4 DUP3 ADD MSTORE PUSH1 0xC PUSH1 0x24 DUP3 ADD MSTORE PUSH12 0x8C8A8ABEA89E9EBE90928E9 PUSH1 0xA3 SHL PUSH1 0x44 DUP3 ADD MSTORE PUSH1 0x64 ADD PUSH2 0x166 JUMP JUMPDEST PUSH1 0x5 DUP1 SLOAD PUSH1 0x1 PUSH1 0x1 PUSH1 0xB0 SHL SUB NOT AND PUSH3 0x10000 PUSH1 0x1 PUSH1 0x1 PUSH1 0xA0 SHL SUB DUP6 AND SWAP1 DUP2 MUL PUSH2 0xFFFF NOT AND SWAP2 SWAP1 SWAP2 OR PUSH2 0xFFFF DUP5 AND SWAP1 DUP2 OR SWAP1 SWAP3 SSTORE PUSH1 0x40 MLOAD SWAP2 DUP3 MSTORE SWAP1 PUSH32 0x25DB41E00C7B58EA3222B515559A00F3AF8F16B0F955B784582F23C554176D6F SWAP1 PUSH1 0x20 ADD JUMPDEST PUSH1 0x40 MLOAD DUP1 SWAP2 SUB SWAP1 LOG2 POP POP JUMP JUMPDEST PUSH2 0x5A8 PUSH2 0xDD7 JUMP JUMPDEST PUSH1 0x1 PUSH1 0x1 PUSH1 0xA0 SHL SUB DUP3 AND PUSH0 DUP2 DUP2 MSTORE PUSH1 0x4 PUSH1 0x20 SWAP1 DUP2 MSTORE PUSH1 0x40 SWAP2 DUP3 SWAP1 KECCAK256 DUP1 SLOAD PUSH1 0xFF NOT AND DUP6 ISZERO ISZERO SWAP1 DUP2 OR SWAP1 SWAP2 SSTORE SWAP2 MLOAD SWAP2 DUP3 MSTORE PUSH32 0x5AE067A93E2AF6193017728CB7E9EF5AF1D750A5BEB7B16A05B54D56F6F355E3 SWAP2 ADD PUSH2 0x594 JUMP JUMPDEST PUSH2 0x607 PUSH2 0xDD7 JUMP JUMPDEST PUSH2 0x60F PUSH2 0xE03 JUMP JUMPDEST PUSH1 0x40 MLOAD CALLER SWAP1 PUSH32 0x71F955ADBEF5DBB4E16ECD587D398F94155EDD0A14295FC23975B92A95B793F7 SWAP1 PUSH0 SWAP1 LOG2 JUMP JUMPDEST PUSH0 DUP1 DUP1 DUP1 DUP1 PUSH1 0x2 DUP7 LT ISZERO PUSH2 0x67C JUMPI PUSH1 0x40 MLOAD PUSH3 0x461BCD PUSH1 0xE5 SHL DUP2 MSTORE PUSH1 0x20 PUSH1 0x4 DUP3 ADD MSTORE PUSH1 0x8 PUSH1 0x24 DUP3 ADD MSTORE PUSH8 0x848288BEA082A89 PUSH1 0xC3 SHL PUSH1 0x44 DUP3 ADD MSTORE PUSH1 0x64 ADD PUSH2 0x166 JUMP JUMPDEST PUSH1 0x1 DUP9 LT DUP1 ISZERO SWAP1 PUSH2 0x68E JUMPI POP PUSH1 0x5 DUP9 GT ISZERO JUMPDEST PUSH2 0x6CB JUMPI PUSH1 0x40 MLOAD PUSH3 0x461BCD PUSH1 0xE5 SHL DUP2 MSTORE PUSH1 0x20 PUSH1 0x4 DUP3 ADD MSTORE PUSH1 0xE PUSH1 0x24 DUP3 ADD MSTORE PUSH14 0x524F55544552535F315F544F5F35 PUSH1 0x90 SHL PUSH1 0x44 DUP3 ADD MSTORE PUSH1 0x64 ADD PUSH2 0x166 JUMP JUMPDEST PUSH0 PUSH0 PUSH2 0x6DA DUP13 DUP13 DUP13 DUP13 DUP13 PUSH2 0xE55 JUMP JUMPDEST SWAP2 POP SWAP2 POP PUSH0 PUSH2 0x6EC DUP14 DUP14 DUP14 DUP14 DUP14 PUSH2 0xF20 JUMP JUMPDEST PUSH1 0x40 DUP2 ADD MLOAD SWAP1 SWAP2 POP PUSH1 0x1 PUSH1 0x1 PUSH1 0xA0 SHL SUB AND PUSH2 0x715 JUMPI POP PUSH0 SWAP7 POP SWAP1 SWAP5 POP DUP6 SWAP4 POP DUP4 SWAP3 POP SWAP1 POP PUSH2 0x768 JUMP JUMPDEST PUSH0 PUSH0 PUSH2 0x72B DUP16 DUP5 PUSH0 ADD MLOAD DUP6 PUSH1 0x40 ADD MLOAD DUP16 DUP16 PUSH2 0x1086 JUMP JUMPDEST SWAP2 POP SWAP2 POP DUP4 DUP2 GT ISZERO PUSH2 0x755 JUMPI DUP3 MLOAD PUSH1 0x40 SWAP1 SWAP4 ADD MLOAD PUSH1 0x1 SWAP11 POP SWAP3 SWAP9 POP SWAP2 SWAP7 POP SWAP5 POP SWAP3 POP PUSH2 0x768 SWAP2 POP POP JUMP JUMPDEST POP PUSH0 SWAP9 POP SWAP3 SWAP7 POP DUP8 SWAP6 POP DUP6 SWAP5 POP SWAP1 SWAP3 POP POP POP JUMPDEST SWAP6 POP SWAP6 POP SWAP6 POP SWAP6 POP SWAP6 SWAP1 POP JUMP JUMPDEST PUSH2 0x77D PUSH2 0x117B JUMP JUMPDEST CALLER PUSH0 DUP2 DUP2 MSTORE PUSH1 0x6 PUSH1 0x20 SWAP1 DUP2 MSTORE PUSH1 0x40 DUP1 DUP4 KECCAK256 DUP6 SWAP1 SSTORE PUSH1 0x7 DUP3 MSTORE SWAP2 DUP3 SWAP1 KECCAK256 DUP1 SLOAD PUSH8 0xFFFFFFFFFFFFFFFF NOT AND NUMBER PUSH1 0x1 PUSH1 0x1 PUSH1 0x40 SHL SUB AND OR SWAP1 SSTORE SWAP1 MLOAD DUP4 DUP2 MSTORE PUSH32 0xBC18D35EBC445DE56FB4B050FCAB7487B4D634BEDB37FDD73DB4A87BB17E508E SWAP2 ADD PUSH1 0x40 MLOAD DUP1 SWAP2 SUB SWAP1 LOG2 POP JUMP JUMPDEST PUSH0 PUSH2 0x7EF PUSH2 0x119F JUMP JUMPDEST PUSH2 0x7F7 PUSH2 0x117B JUMP JUMPDEST PUSH0 CALLER DUP11 DUP11 DUP11 DUP11 DUP11 DUP11 DUP11 DUP11 PUSH1 0x40 MLOAD PUSH1 0x20 ADD PUSH2 0x819 SWAP10 SWAP9 SWAP8 SWAP7 SWAP6 SWAP5 SWAP4 SWAP3 SWAP2 SWAP1 PUSH2 0x1E47 JUMP JUMPDEST PUSH1 0x40 DUP1 MLOAD PUSH1 0x1F NOT DUP2 DUP5 SUB ADD DUP2 MSTORE SWAP2 DUP2 MSTORE DUP2 MLOAD PUSH1 0x20 SWAP3 DUP4 ADD KECCAK256 CALLER PUSH0 SWAP1 DUP2 MSTORE PUSH1 0x6 SWAP1 SWAP4 MSTORE SWAP2 KECCAK256 SLOAD SWAP1 SWAP2 POP PUSH2 0x879 JUMPI PUSH1 0x40 MLOAD PUSH3 0x461BCD PUSH1 0xE5 SHL DUP2 MSTORE PUSH1 0x20 PUSH1 0x4 DUP3 ADD MSTORE PUSH1 0x9 PUSH1 0x24 DUP3 ADD MSTORE PUSH9 0x1393D7D0D3D3535255 PUSH1 0xBA SHL PUSH1 0x44 DUP3 ADD MSTORE PUSH1 0x64 ADD PUSH2 0x166 JUMP JUMPDEST CALLER PUSH0 SWAP1 DUP2 MSTORE PUSH1 0x6 PUSH1 0x20 MSTORE PUSH1 0x40 SWAP1 KECCAK256 SLOAD DUP2 EQ PUSH2 0x8C3 JUMPI PUSH1 0x40 MLOAD PUSH3 0x461BCD PUSH1 0xE5 SHL DUP2 MSTORE PUSH1 0x20 PUSH1 0x4 DUP3 ADD MSTORE PUSH1 0xA PUSH1 0x24 DUP3 ADD MSTORE PUSH10 0x10905117D0D3D3535255 PUSH1 0xB2 SHL PUSH1 0x44 DUP3 ADD MSTORE PUSH1 0x64 ADD PUSH2 0x166 JUMP JUMPDEST CALLER PUSH0 SWAP1 DUP2 MSTORE PUSH1 0x7 PUSH1 0x20 MSTORE PUSH1 0x40 SWAP1 KECCAK256 SLOAD PUSH1 0x1 PUSH1 0x1 PUSH1 0x40 SHL SUB NUMBER DUP2 AND SWAP2 AND LT PUSH2 0x920 JUMPI PUSH1 0x40 MLOAD PUSH3 0x461BCD PUSH1 0xE5 SHL DUP2 MSTORE PUSH1 0x20 PUSH1 0x4 DUP3 ADD MSTORE PUSH1 0x11 PUSH1 0x24 DUP3 ADD MSTORE PUSH17 0x52455645414C5F4E4558545F424C4F434B PUSH1 0x78 SHL PUSH1 0x44 DUP3 ADD MSTORE PUSH1 0x64 ADD PUSH2 0x166 JUMP JUMPDEST CALLER PUSH0 DUP2 DUP2 MSTORE PUSH1 0x6 PUSH1 0x20 SWAP1 DUP2 MSTORE PUSH1 0x40 DUP1 DUP4 KECCAK256 DUP4 SWAP1 SSTORE PUSH1 0x7 SWAP1 SWAP2 MSTORE DUP1 DUP3 KECCAK256 DUP1 SLOAD PUSH8 0xFFFFFFFFFFFFFFFF NOT AND SWAP1 SSTORE MLOAD PUSH32 0x1987E6A4CE537A918D38185D7C3A5A6BEAF7AB33A80362F59EAB4EC9FDD43ED5 SWAP2 SWAP1 LOG2 PUSH2 0x97F DUP11 DUP11 DUP11 DUP11 DUP11 DUP11 DUP11 PUSH2 0xABC JUMP JUMPDEST SWAP2 POP POP PUSH2 0x98C PUSH1 0x1 PUSH1 0x2 SSTORE JUMP JUMPDEST SWAP9 SWAP8 POP POP POP POP POP POP POP POP JUMP JUMPDEST PUSH2 0x9A0 PUSH2 0xDD7 JUMP JUMPDEST PUSH2 0x9A9 PUSH0 PUSH2 0x11C7 JUMP JUMPDEST JUMP JUMPDEST PUSH1 0x1 SLOAD CALLER SWAP1 PUSH1 0x1 PUSH1 0x1 PUSH1 0xA0 SHL SUB AND DUP2 EQ PUSH2 0x9E3 JUMPI PUSH1 0x40 MLOAD PUSH4 0x118CDAA7 PUSH1 0xE0 SHL DUP2 MSTORE PUSH1 0x1 PUSH1 0x1 PUSH1 0xA0 SHL SUB DUP3 AND PUSH1 0x4 DUP3 ADD MSTORE PUSH1 0x24 ADD PUSH2 0x166 JUMP JUMPDEST PUSH2 0x9EC DUP2 PUSH2 0x11C7 JUMP JUMPDEST POP JUMP JUMPDEST PUSH2 0x9F7 PUSH2 0xDD7 JUMP JUMPDEST PUSH2 0x9FF PUSH2 0x11E0 JUMP JUMPDEST PUSH1 0x40 MLOAD CALLER SWAP1 PUSH32 0x314364159151B7B18F5EBE5FF7560D5D2BDA61579A0B674A2967E01CD7686955 SWAP1 PUSH0 SWAP1 LOG2 JUMP JUMPDEST PUSH2 0xA33 PUSH2 0xDD7 JUMP JUMPDEST PUSH2 0xA47 PUSH1 0x1 PUSH1 0x1 PUSH1 0xA0 SHL SUB DUP5 AND DUP4 DUP4 PUSH2 0x121D JUMP JUMPDEST POP POP POP JUMP JUMPDEST PUSH2 0xA54 PUSH2 0xDD7 JUMP JUMPDEST PUSH1 0x1 DUP1 SLOAD PUSH1 0x1 PUSH1 0x1 PUSH1 0xA0 SHL SUB DUP4 AND PUSH1 0x1 PUSH1 0x1 PUSH1 0xA0 SHL SUB NOT SWAP1 SWAP2 AND DUP2 OR SWAP1 SWAP2 SSTORE PUSH2 0xA84 PUSH0 SLOAD PUSH1 0x1 PUSH1 0x1 PUSH1 0xA0 SHL SUB AND SWAP1 JUMP JUMPDEST PUSH1 0x1 PUSH1 0x1 PUSH1 0xA0 SHL SUB AND PUSH32 0x38D16B8CAC22D99FC7C124B9CD0DE2D3FA1FAEF420BFE791D8C362D765E22700 PUSH1 0x40 MLOAD PUSH1 0x40 MLOAD DUP1 SWAP2 SUB SWAP1 LOG3 POP JUMP JUMPDEST PUSH0 PUSH2 0xAC5 PUSH2 0x119F JUMP JUMPDEST PUSH2 0xACD PUSH2 0x117B JUMP JUMPDEST PUSH1 0x2 DUP4 LT ISZERO PUSH2 0xB09 JUMPI PUSH1 0x40 MLOAD PUSH3 0x461BCD PUSH1 0xE5 SHL DUP2 MSTORE PUSH1 0x20 PUSH1 0x4 DUP3 ADD MSTORE PUSH1 0x8 PUSH1 0x24 DUP3 ADD MSTORE PUSH8 0x848288BEA082A89 PUSH1 0xC3 SHL PUSH1 0x44 DUP3 ADD MSTORE PUSH1 0x64 ADD PUSH2 0x166 JUMP JUMPDEST PUSH1 0x1 DUP6 LT DUP1 ISZERO SWAP1 PUSH2 0xB1B JUMPI POP PUSH1 0x5 DUP6 GT ISZERO JUMPDEST PUSH2 0xB58 JUMPI PUSH1 0x40 MLOAD PUSH3 0x461BCD PUSH1 0xE5 SHL DUP2 MSTORE PUSH1 0x20 PUSH1 0x4 DUP3 ADD MSTORE PUSH1 0xE PUSH1 0x24 DUP3 ADD MSTORE PUSH14 0x524F55544552535F315F544F5F35 PUSH1 0x90 SHL PUSH1 0x44 DUP3 ADD MSTORE PUSH1 0x64 ADD PUSH2 0x166 JUMP JUMPDEST DUP2 TIMESTAMP GT ISZERO PUSH2 0xB9A JUMPI PUSH1 0x40 MLOAD PUSH3 0x461BCD PUSH1 0xE5 SHL DUP2 MSTORE PUSH1 0x20 PUSH1 0x4 DUP3 ADD MSTORE PUSH1 0xF PUSH1 0x24 DUP3 ADD MSTORE PUSH15 0x111150511312539157D41054D4D151 PUSH1 0x8A SHL PUSH1 0x44 DUP3 ADD MSTORE PUSH1 0x64 ADD PUSH2 0x166 JUMP JUMPDEST PUSH0 JUMPDEST DUP6 DUP2 LT ISZERO PUSH2 0xC33 JUMPI PUSH1 0x4 PUSH0 DUP9 DUP9 DUP5 DUP2 DUP2 LT PUSH2 0xBB9 JUMPI PUSH2 0xBB9 PUSH2 0x1EA0 JUMP JUMPDEST SWAP1 POP PUSH1 0x20 MUL ADD PUSH1 0x20 DUP2 ADD SWAP1 PUSH2 0xBCE SWAP2 SWAP1 PUSH2 0x1B5A JUMP JUMPDEST PUSH1 0x1 PUSH1 0x1 PUSH1 0xA0 SHL SUB AND DUP2 MSTORE PUSH1 0x20 DUP2 ADD SWAP2 SWAP1 SWAP2 MSTORE PUSH1 0x40 ADD PUSH0 KECCAK256 SLOAD PUSH1 0xFF AND PUSH2 0xC2B JUMPI PUSH1 0x40 MLOAD PUSH3 0x461BCD PUSH1 0xE5 SHL DUP2 MSTORE PUSH1 0x20 PUSH1 0x4 DUP3 ADD MSTORE PUSH1 0x12 PUSH1 0x24 DUP3 ADD MSTORE PUSH18 0x1493D555115497D393D517D0531313D5D151 PUSH1 0x72 SHL PUSH1 0x44 DUP3 ADD MSTORE PUSH1 0x64 ADD PUSH2 0x166 JUMP JUMPDEST PUSH1 0x1 ADD PUSH2 0xB9C JUMP JUMPDEST POP PUSH1 0x40 DUP1 MLOAD PUSH1 0x80 DUP2 ADD DUP3 MSTORE PUSH0 DUP1 DUP3 MSTORE PUSH1 0x20 DUP3 ADD DUP2 SWAP1 MSTORE SWAP2 DUP2 ADD DUP3 SWAP1 MSTORE PUSH1 0x60 DUP2 ADD SWAP2 SWAP1 SWAP2 MSTORE DUP5 DUP5 PUSH0 DUP2 DUP2 LT PUSH2 0xC69 JUMPI PUSH2 0xC69 PUSH2 0x1EA0 JUMP JUMPDEST SWAP1 POP PUSH1 0x20 MUL ADD PUSH1 0x20 DUP2 ADD SWAP1 PUSH2 0xC7E SWAP2 SWAP1 PUSH2 0x1B5A JUMP JUMPDEST PUSH1 0x1 PUSH1 0x1 PUSH1 0xA0 SHL SUB AND DUP2 MSTORE DUP5 DUP5 PUSH2 0xC96 PUSH1 0x1 DUP3 PUSH2 0x1EC8 JUMP JUMPDEST DUP2 DUP2 LT PUSH2 0xCA5 JUMPI PUSH2 0xCA5 PUSH2 0x1EA0 JUMP JUMPDEST SWAP1 POP PUSH1 0x20 MUL ADD PUSH1 0x20 DUP2 ADD SWAP1 PUSH2 0xCBA SWAP2 SWAP1 PUSH2 0x1B5A JUMP JUMPDEST PUSH1 0x1 PUSH1 0x1 PUSH1 0xA0 SHL SUB AND PUSH1 0x20 DUP3 ADD MSTORE PUSH1 0x40 DUP2 ADD DUP4 SWAP1 MSTORE PUSH1 0x60 DUP2 ADD DUP9 SWAP1 MSTORE DUP1 MLOAD PUSH0 SWAP1 PUSH2 0xCE5 SWAP1 CALLER DUP13 PUSH2 0x127C JUMP JUMPDEST SWAP1 POP PUSH0 DUP2 GT PUSH2 0xD20 JUMPI PUSH1 0x40 MLOAD PUSH3 0x461BCD PUSH1 0xE5 SHL DUP2 MSTORE PUSH1 0x20 PUSH1 0x4 DUP3 ADD MSTORE PUSH1 0x7 PUSH1 0x24 DUP3 ADD MSTORE PUSH7 0x2D22A927AFA4A7 PUSH1 0xC9 SHL PUSH1 0x44 DUP3 ADD MSTORE PUSH1 0x64 ADD PUSH2 0x166 JUMP JUMPDEST PUSH0 PUSH2 0xD2E DUP3 DUP11 DUP11 DUP11 DUP11 PUSH2 0x137B JUMP JUMPDEST DUP1 MLOAD SWAP1 SWAP2 POP PUSH2 0xD4F JUMPI PUSH2 0xD48 DUP4 DUP3 PUSH1 0x20 ADD MLOAD DUP5 DUP11 DUP11 PUSH2 0x1467 JUMP JUMPDEST SWAP4 POP PUSH2 0xD6D JUMP JUMPDEST PUSH2 0xD6A DUP4 DUP3 PUSH1 0x20 ADD MLOAD DUP4 PUSH1 0x40 ADD MLOAD DUP6 DUP6 PUSH1 0x60 ADD MLOAD DUP13 DUP13 PUSH2 0x1500 JUMP JUMPDEST SWAP4 POP JUMPDEST POP POP POP PUSH2 0xD7A PUSH1 0x1 PUSH1 0x2 SSTORE JUMP JUMPDEST SWAP8 SWAP7 POP POP POP POP POP POP POP JUMP JUMPDEST CALLER PUSH0 DUP2 DUP2 MSTORE PUSH1 0x6 PUSH1 0x20 SWAP1 DUP2 MSTORE PUSH1 0x40 DUP1 DUP4 KECCAK256 DUP4 SWAP1 SSTORE PUSH1 0x7 SWAP1 SWAP2 MSTORE DUP1 DUP3 KECCAK256 DUP1 SLOAD PUSH8 0xFFFFFFFFFFFFFFFF NOT AND SWAP1 SSTORE MLOAD PUSH32 0x1987E6A4CE537A918D38185D7C3A5A6BEAF7AB33A80362F59EAB4EC9FDD43ED5 SWAP2 SWAP1 LOG2 JUMP JUMPDEST PUSH0 SLOAD PUSH1 0x1 PUSH1 0x1 PUSH1 0xA0 SHL SUB AND CALLER EQ PUSH2 0x9A9 JUMPI PUSH1 0x40 MLOAD PUSH4 0x118CDAA7 PUSH1 0xE0 SHL DUP2 MSTORE CALLER PUSH1 0x4 DUP3 ADD MSTORE PUSH1 0x24 ADD PUSH2 0x166 JUMP JUMPDEST PUSH2 0xE0B PUSH2 0x160E JUMP JUMPDEST PUSH1 0x3 DUP1 SLOAD PUSH1 0xFF NOT AND SWAP1 SSTORE PUSH32 0x5DB9EE0A495BF2E6FF9C91A7834C1BA4FDD244A5E8AA4E537BD38AEAE4B073AA CALLER JUMPDEST PUSH1 0x40 MLOAD PUSH1 0x1 PUSH1 0x1 PUSH1 0xA0 SHL SUB SWAP1 SWAP2 AND DUP2 MSTORE PUSH1 0x20 ADD PUSH1 0x40 MLOAD DUP1 SWAP2 SUB SWAP1 LOG1 JUMP JUMPDEST PUSH0 DUP1 DUP1 JUMPDEST DUP6 DUP2 LT ISZERO PUSH2 0xED4 JUMPI PUSH0 PUSH2 0xE94 DUP9 DUP9 DUP5 DUP2 DUP2 LT PUSH2 0xE77 JUMPI PUSH2 0xE77 PUSH2 0x1EA0 JUMP JUMPDEST SWAP1 POP PUSH1 0x20 MUL ADD PUSH1 0x20 DUP2 ADD SWAP1 PUSH2 0xE8C SWAP2 SWAP1 PUSH2 0x1B5A JUMP JUMPDEST DUP11 DUP9 DUP9 PUSH2 0x1631 JUMP JUMPDEST SWAP1 POP DUP3 DUP2 GT ISZERO PUSH2 0xECB JUMPI DUP1 SWAP3 POP DUP8 DUP8 DUP4 DUP2 DUP2 LT PUSH2 0xEB3 JUMPI PUSH2 0xEB3 PUSH2 0x1EA0 JUMP JUMPDEST SWAP1 POP PUSH1 0x20 MUL ADD PUSH1 0x20 DUP2 ADD SWAP1 PUSH2 0xEC8 SWAP2 SWAP1 PUSH2 0x1B5A JUMP JUMPDEST SWAP4 POP JUMPDEST POP PUSH1 0x1 ADD PUSH2 0xE59 JUMP JUMPDEST POP PUSH1 0x1 PUSH1 0x1 PUSH1 0xA0 SHL SUB DUP3 AND PUSH2 0xF16 JUMPI PUSH1 0x40 MLOAD PUSH3 0x461BCD PUSH1 0xE5 SHL DUP2 MSTORE PUSH1 0x20 PUSH1 0x4 DUP3 ADD MSTORE PUSH1 0x8 PUSH1 0x24 DUP3 ADD MSTORE PUSH8 0x4E4F5F524F555445 PUSH1 0xC0 SHL PUSH1 0x44 DUP3 ADD MSTORE PUSH1 0x64 ADD PUSH2 0x166 JUMP JUMPDEST SWAP6 POP SWAP6 SWAP4 POP POP POP POP JUMP JUMPDEST PUSH1 0x40 DUP1 MLOAD PUSH1 0x80 DUP2 ADD DUP3 MSTORE PUSH0 DUP1 DUP3 MSTORE PUSH1 0x20 DUP3 ADD DUP2 SWAP1 MSTORE SWAP2 DUP2 ADD DUP3 SWAP1 MSTORE PUSH1 0x60 DUP2 ADD DUP3 SWAP1 MSTORE SWAP1 JUMPDEST DUP5 DUP2 LT ISZERO PUSH2 0x107C JUMPI PUSH0 PUSH2 0xF7F DUP8 DUP8 DUP5 DUP2 DUP2 LT PUSH2 0xF62 JUMPI PUSH2 0xF62 PUSH2 0x1EA0 JUMP JUMPDEST SWAP1 POP PUSH1 0x20 MUL ADD PUSH1 0x20 DUP2 ADD SWAP1 PUSH2 0xF77 SWAP2 SWAP1 PUSH2 0x1B5A JUMP JUMPDEST DUP10 DUP8 DUP8 PUSH2 0x1631 JUMP JUMPDEST SWAP1 POP DUP3 PUSH1 0x20 ADD MLOAD DUP2 GT ISZERO PUSH2 0xFE5 JUMPI DUP3 MLOAD PUSH1 0x1 PUSH1 0x1 PUSH1 0xA0 SHL SUB AND PUSH1 0x40 DUP5 ADD MSTORE PUSH1 0x20 DUP4 ADD MLOAD PUSH1 0x60 DUP5 ADD MSTORE DUP7 DUP7 DUP4 DUP2 DUP2 LT PUSH2 0xFB9 JUMPI PUSH2 0xFB9 PUSH2 0x1EA0 JUMP JUMPDEST SWAP1 POP PUSH1 0x20 MUL ADD PUSH1 0x20 DUP2 ADD SWAP1 PUSH2 0xFCE SWAP2 SWAP1 PUSH2 0x1B5A JUMP JUMPDEST PUSH1 0x1 PUSH1 0x1 PUSH1 0xA0 SHL SUB AND DUP4 MSTORE PUSH1 0x20 DUP4 ADD DUP2 SWAP1 MSTORE PUSH2 0x1073 JUMP JUMPDEST DUP3 PUSH1 0x60 ADD MLOAD DUP2 GT DUP1 ISZERO PUSH2 0x1031 JUMPI POP DUP3 MLOAD PUSH1 0x1 PUSH1 0x1 PUSH1 0xA0 SHL SUB AND DUP8 DUP8 DUP5 DUP2 DUP2 LT PUSH2 0x1010 JUMPI PUSH2 0x1010 PUSH2 0x1EA0 JUMP JUMPDEST SWAP1 POP PUSH1 0x20 MUL ADD PUSH1 0x20 DUP2 ADD SWAP1 PUSH2 0x1025 SWAP2 SWAP1 PUSH2 0x1B5A JUMP JUMPDEST PUSH1 0x1 PUSH1 0x1 PUSH1 0xA0 SHL SUB AND EQ ISZERO JUMPDEST ISZERO PUSH2 0x1073 JUMPI DUP7 DUP7 DUP4 DUP2 DUP2 LT PUSH2 0x1048 JUMPI PUSH2 0x1048 PUSH2 0x1EA0 JUMP JUMPDEST SWAP1 POP PUSH1 0x20 MUL ADD PUSH1 0x20 DUP2 ADD SWAP1 PUSH2 0x105D SWAP2 SWAP1 PUSH2 0x1B5A JUMP JUMPDEST PUSH1 0x1 PUSH1 0x1 PUSH1 0xA0 SHL SUB AND PUSH1 0x40 DUP5 ADD MSTORE PUSH1 0x60 DUP4 ADD DUP2 SWAP1 MSTORE JUMPDEST POP PUSH1 0x1 ADD PUSH2 0xF44 JUMP JUMPDEST POP SWAP6 SWAP5 POP POP POP POP POP JUMP JUMPDEST PUSH1 0x40 DUP1 MLOAD PUSH1 0xA0 DUP2 ADD DUP3 MSTORE PUSH2 0x2710 DUP1 DUP3 MSTORE PUSH2 0x1D4C PUSH1 0x20 DUP4 ADD MSTORE PUSH2 0x1388 SWAP3 DUP3 ADD SWAP3 SWAP1 SWAP3 MSTORE PUSH2 0x9C4 PUSH1 0x60 DUP3 ADD MSTORE PUSH0 PUSH1 0x80 DUP3 ADD DUP2 SWAP1 MSTORE SWAP1 DUP2 JUMPDEST PUSH1 0x5 DUP2 LT ISZERO PUSH2 0x116F JUMPI PUSH0 DUP3 DUP3 PUSH1 0x5 DUP2 LT PUSH2 0x10D7 JUMPI PUSH2 0x10D7 PUSH2 0x1EA0 JUMP JUMPDEST PUSH1 0x20 MUL ADD MLOAD SWAP1 POP PUSH0 PUSH2 0x2710 PUSH2 0x10F0 PUSH2 0xFFFF DUP5 AND DUP14 PUSH2 0x1EDB JUMP JUMPDEST PUSH2 0x10FA SWAP2 SWAP1 PUSH2 0x1EF2 JUMP JUMPDEST SWAP1 POP PUSH0 PUSH2 0x1107 DUP3 DUP14 PUSH2 0x1EC8 JUMP JUMPDEST SWAP1 POP PUSH0 DUP3 ISZERO PUSH2 0x1121 JUMPI PUSH2 0x111C DUP13 DUP5 DUP13 DUP13 PUSH2 0x1631 JUMP JUMPDEST PUSH2 0x1123 JUMP JUMPDEST PUSH0 JUMPDEST SWAP1 POP PUSH0 DUP3 ISZERO PUSH2 0x113D JUMPI PUSH2 0x1138 DUP13 DUP5 DUP14 DUP14 PUSH2 0x1631 JUMP JUMPDEST PUSH2 0x113F JUMP JUMPDEST PUSH0 JUMPDEST SWAP1 POP PUSH0 PUSH2 0x114C DUP3 DUP5 PUSH2 0x1F11 JUMP JUMPDEST SWAP1 POP DUP9 DUP2 GT ISZERO PUSH2 0x115D JUMPI DUP1 SWAP9 POP DUP6 SWAP10 POP JUMPDEST POP POP PUSH1 0x1 SWAP1 SWAP5 ADD SWAP4 POP PUSH2 0x10BB SWAP3 POP POP POP JUMP JUMPDEST POP POP SWAP6 POP SWAP6 SWAP4 POP POP POP POP JUMP JUMPDEST PUSH1 0x3 SLOAD PUSH1 0xFF AND ISZERO PUSH2 0x9A9 JUMPI PUSH1 0x40 MLOAD PUSH4 0xD93C0665 PUSH1 0xE0 SHL DUP2 MSTORE PUSH1 0x4 ADD PUSH1 0x40 MLOAD DUP1 SWAP2 SUB SWAP1 REVERT JUMPDEST PUSH1 0x2 DUP1 SLOAD SUB PUSH2 0x11C1 JUMPI PUSH1 0x40 MLOAD PUSH4 0x3EE5AEB5 PUSH1 0xE0 SHL DUP2 MSTORE PUSH1 0x4 ADD PUSH1 0x40 MLOAD DUP1 SWAP2 SUB SWAP1 REVERT JUMPDEST PUSH1 0x2 DUP1 SSTORE JUMP JUMPDEST PUSH1 0x1 DUP1 SLOAD PUSH1 0x1 PUSH1 0x1 PUSH1 0xA0 SHL SUB NOT AND SWAP1 SSTORE PUSH2 0x9EC DUP2 PUSH2 0x16ED JUMP JUMPDEST PUSH2 0x11E8 PUSH2 0x117B JUMP JUMPDEST PUSH1 0x3 DUP1 SLOAD PUSH1 0xFF NOT AND PUSH1 0x1 OR SWAP1 SSTORE PUSH32 0x62E78CEA01BEE320CD4E420270B5EA74000D11B0C9F74754EBDBFC544B05A258 PUSH2 0xE38 CALLER SWAP1 JUMP JUMPDEST PUSH1 0x40 MLOAD PUSH1 0x1 PUSH1 0x1 PUSH1 0xA0 SHL SUB DUP4 DUP2 AND PUSH1 0x24 DUP4 ADD MSTORE PUSH1 0x44 DUP3 ADD DUP4 SWAP1 MSTORE PUSH2 0xA47 SWAP2 DUP6 SWAP2 DUP3 AND SWAP1 PUSH4 0xA9059CBB SWAP1 PUSH1 0x64 ADD JUMPDEST PUSH1 0x40 MLOAD PUSH1 0x20 DUP2 DUP4 SUB SUB DUP2 MSTORE SWAP1 PUSH1 0x40 MSTORE SWAP2 POP PUSH1 0xE0 SHL PUSH1 0x20 DUP3 ADD DUP1 MLOAD PUSH1 0x1 PUSH1 0x1 PUSH1 0xE0 SHL SUB DUP4 DUP2 DUP4 AND OR DUP4 MSTORE POP POP POP POP PUSH2 0x173C JUMP JUMPDEST PUSH1 0x40 MLOAD PUSH4 0x70A08231 PUSH1 0xE0 SHL DUP2 MSTORE ADDRESS PUSH1 0x4 DUP3 ADD MSTORE PUSH0 SWAP1 DUP2 SWAP1 PUSH1 0x1 PUSH1 0x1 PUSH1 0xA0 SHL SUB DUP7 AND SWAP1 PUSH4 0x70A08231 SWAP1 PUSH1 0x24 ADD PUSH1 0x20 PUSH1 0x40 MLOAD DUP1 DUP4 SUB DUP2 DUP7 GAS STATICCALL ISZERO DUP1 ISZERO PUSH2 0x12C2 JUMPI RETURNDATASIZE PUSH0 PUSH0 RETURNDATACOPY RETURNDATASIZE PUSH0 REVERT JUMPDEST POP POP POP POP PUSH1 0x40 MLOAD RETURNDATASIZE PUSH1 0x1F NOT PUSH1 0x1F DUP3 ADD AND DUP3 ADD DUP1 PUSH1 0x40 MSTORE POP DUP2 ADD SWAP1 PUSH2 0x12E6 SWAP2 SWAP1 PUSH2 0x1F24 JUMP JUMPDEST SWAP1 POP PUSH2 0x12FD PUSH1 0x1 PUSH1 0x1 PUSH1 0xA0 SHL SUB DUP7 AND DUP6 ADDRESS DUP7 PUSH2 0x17AE JUMP JUMPDEST PUSH1 0x40 MLOAD PUSH4 0x70A08231 PUSH1 0xE0 SHL DUP2 MSTORE ADDRESS PUSH1 0x4 DUP3 ADD MSTORE PUSH0 SWAP1 PUSH1 0x1 PUSH1 0x1 PUSH1 0xA0 SHL SUB DUP8 AND SWAP1 PUSH4 0x70A08231 SWAP1 PUSH1 0x24 ADD PUSH1 0x20 PUSH1 0x40 MLOAD DUP1 DUP4 SUB DUP2 DUP7 GAS STATICCALL ISZERO DUP1 ISZERO PUSH2 0x1341 JUMPI RETURNDATASIZE PUSH0 PUSH0 RETURNDATACOPY RETURNDATASIZE PUSH0 REVERT JUMPDEST POP POP POP POP PUSH1 0x40 MLOAD RETURNDATASIZE PUSH1 0x1F NOT PUSH1 0x1F DUP3 ADD AND DUP3 ADD DUP1 PUSH1 0x40 MSTORE POP DUP2 ADD SWAP1 PUSH2 0x1365 SWAP2 SWAP1 PUSH2 0x1F24 JUMP JUMPDEST SWAP1 POP PUSH2 0x1371 DUP3 DUP3 PUSH2 0x1EC8 JUMP JUMPDEST SWAP7 SWAP6 POP POP POP POP POP POP JUMP JUMPDEST PUSH1 0x40 DUP1 MLOAD PUSH1 0xA0 DUP2 ADD DUP3 MSTORE PUSH0 DUP1 DUP3 MSTORE PUSH1 0x20 DUP3 ADD DUP2 SWAP1 MSTORE SWAP2 DUP2 ADD DUP3 SWAP1 MSTORE PUSH1 0x60 DUP2 ADD DUP3 SWAP1 MSTORE PUSH1 0x80 DUP2 ADD DUP3 SWAP1 MSTORE SWAP1 DUP1 PUSH2 0x13B3 DUP9 DUP9 DUP9 DUP9 DUP9 PUSH2 0xE55 JUMP JUMPDEST SWAP2 POP SWAP2 POP PUSH0 PUSH2 0x13C5 DUP10 DUP10 DUP10 DUP10 DUP10 PUSH2 0xF20 JUMP JUMPDEST PUSH0 DUP1 DUP7 MSTORE PUSH1 0x1 PUSH1 0x1 PUSH1 0xA0 SHL SUB DUP1 DUP7 AND PUSH1 0x20 DUP9 ADD MSTORE PUSH1 0x40 DUP1 DUP9 ADD DUP4 SWAP1 MSTORE PUSH1 0x60 DUP9 ADD SWAP3 SWAP1 SWAP3 MSTORE PUSH1 0x80 DUP8 ADD DUP6 SWAP1 MSTORE SWAP1 DUP3 ADD MLOAD SWAP2 SWAP3 POP AND ISZERO PUSH2 0x145B JUMPI PUSH0 PUSH0 PUSH2 0x1413 DUP12 DUP5 PUSH0 ADD MLOAD DUP6 PUSH1 0x40 ADD MLOAD DUP12 DUP12 PUSH2 0x1086 JUMP JUMPDEST SWAP2 POP SWAP2 POP DUP6 PUSH1 0x80 ADD MLOAD DUP2 GT ISZERO PUSH2 0x1458 JUMPI PUSH1 0x1 DUP7 MSTORE DUP3 MLOAD PUSH1 0x1 PUSH1 0x1 PUSH1 0xA0 SHL SUB SWAP1 DUP2 AND PUSH1 0x20 DUP9 ADD MSTORE PUSH1 0x40 DUP1 DUP6 ADD MLOAD SWAP1 SWAP2 AND SWAP1 DUP8 ADD MSTORE PUSH2 0xFFFF DUP3 AND PUSH1 0x60 DUP8 ADD MSTORE PUSH1 0x80 DUP7 ADD DUP2 SWAP1 MSTORE JUMPDEST POP POP JUMPDEST POP POP POP SWAP6 SWAP5 POP POP POP POP POP JUMP JUMPDEST PUSH0 PUSH0 PUSH2 0x147B DUP8 DUP8 DUP8 DUP8 DUP8 DUP13 PUSH1 0x60 ADD MLOAD PUSH2 0x17E7 JUMP JUMPDEST SWAP1 POP DUP7 PUSH1 0x60 ADD MLOAD DUP2 LT ISZERO PUSH2 0x14C5 JUMPI PUSH1 0x40 MLOAD PUSH3 0x461BCD PUSH1 0xE5 SHL DUP2 MSTORE PUSH1 0x20 PUSH1 0x4 DUP3 ADD MSTORE PUSH1 0x11 PUSH1 0x24 DUP3 ADD MSTORE PUSH17 0xA69892A0A0828E8ABEA89E9EBE90928E9 PUSH1 0x7B SHL PUSH1 0x44 DUP3 ADD MSTORE PUSH1 0x64 ADD PUSH2 0x166 JUMP JUMPDEST PUSH0 PUSH0 PUSH2 0x14D5 DUP10 PUSH1 0x20 ADD MLOAD DUP5 PUSH2 0x1973 JUMP JUMPDEST PUSH1 0x20 DUP12 ADD MLOAD SWAP2 SWAP4 POP SWAP2 POP PUSH2 0x14F3 SWAP1 PUSH1 0x1 PUSH1 0x1 PUSH1 0xA0 SHL SUB AND CALLER DUP4 PUSH2 0x121D JUMP JUMPDEST PUSH2 0x98C DUP10 DUP10 DUP10 DUP5 DUP7 PUSH2 0x19E8 JUMP JUMPDEST PUSH0 DUP1 PUSH2 0x2710 PUSH2 0x1513 PUSH2 0xFFFF DUP8 AND DUP9 PUSH2 0x1EDB JUMP JUMPDEST PUSH2 0x151D SWAP2 SWAP1 PUSH2 0x1EF2 JUMP JUMPDEST SWAP1 POP PUSH0 PUSH2 0x152A DUP3 DUP9 PUSH2 0x1EC8 JUMP JUMPDEST SWAP1 POP PUSH2 0x154D PUSH1 0x40 MLOAD DUP1 PUSH1 0x60 ADD PUSH1 0x40 MSTORE DUP1 PUSH0 DUP2 MSTORE PUSH1 0x20 ADD PUSH0 DUP2 MSTORE PUSH1 0x20 ADD PUSH0 DUP2 MSTORE POP SWAP1 JUMP JUMPDEST PUSH2 0x155B DUP12 DUP12 DUP6 DUP10 DUP10 PUSH0 PUSH2 0x17E7 JUMP JUMPDEST DUP2 MSTORE PUSH2 0x156B DUP12 DUP11 DUP5 DUP10 DUP10 PUSH0 PUSH2 0x17E7 JUMP JUMPDEST PUSH1 0x20 DUP3 ADD DUP2 SWAP1 MSTORE DUP2 MLOAD PUSH2 0x157E SWAP2 SWAP1 PUSH2 0x1F11 JUMP JUMPDEST PUSH1 0x40 DUP3 ADD DUP2 SWAP1 MSTORE PUSH1 0x60 DUP13 ADD MLOAD GT ISZERO PUSH2 0x15CC JUMPI PUSH1 0x40 MLOAD PUSH3 0x461BCD PUSH1 0xE5 SHL DUP2 MSTORE PUSH1 0x20 PUSH1 0x4 DUP3 ADD MSTORE PUSH1 0x11 PUSH1 0x24 DUP3 ADD MSTORE PUSH17 0xA69892A0A0828E8ABEA89E9EBE90928E9 PUSH1 0x7B SHL PUSH1 0x44 DUP3 ADD MSTORE PUSH1 0x64 ADD PUSH2 0x166 JUMP JUMPDEST PUSH0 PUSH0 PUSH2 0x15E0 DUP14 PUSH1 0x20 ADD MLOAD DUP5 PUSH1 0x40 ADD MLOAD PUSH2 0x1973 JUMP JUMPDEST PUSH1 0x20 DUP16 ADD MLOAD SWAP2 SWAP4 POP SWAP2 POP PUSH2 0x15FE SWAP1 PUSH1 0x1 PUSH1 0x1 PUSH1 0xA0 SHL SUB AND CALLER DUP4 PUSH2 0x121D JUMP JUMPDEST SWAP13 SWAP12 POP POP POP POP POP POP POP POP POP POP POP POP JUMP JUMPDEST PUSH1 0x3 SLOAD PUSH1 0xFF AND PUSH2 0x9A9 JUMPI PUSH1 0x40 MLOAD PUSH4 0x8DFC202B PUSH1 0xE0 SHL DUP2 MSTORE PUSH1 0x4 ADD PUSH1 0x40 MLOAD DUP1 SWAP2 SUB SWAP1 REVERT JUMPDEST PUSH1 0x40 MLOAD PUSH4 0xD06CA61F PUSH1 0xE0 SHL DUP2 MSTORE PUSH0 SWAP1 PUSH1 0x1 PUSH1 0x1 PUSH1 0xA0 SHL SUB DUP7 AND SWAP1 PUSH4 0xD06CA61F SWAP1 PUSH2 0x1663 SWAP1 DUP8 SWAP1 DUP8 SWAP1 DUP8 SWAP1 PUSH1 0x4 ADD PUSH2 0x1F3B JUMP JUMPDEST PUSH0 PUSH1 0x40 MLOAD DUP1 DUP4 SUB DUP2 DUP7 GAS STATICCALL SWAP3 POP POP POP DUP1 ISZERO PUSH2 0x169F JUMPI POP PUSH1 0x40 MLOAD RETURNDATASIZE PUSH0 DUP3 RETURNDATACOPY PUSH1 0x1F RETURNDATASIZE SWAP1 DUP2 ADD PUSH1 0x1F NOT AND DUP3 ADD PUSH1 0x40 MSTORE PUSH2 0x169C SWAP2 SWAP1 DUP2 ADD SWAP1 PUSH2 0x1F71 JUMP JUMPDEST PUSH1 0x1 JUMPDEST PUSH2 0x16AA JUMPI POP PUSH0 PUSH2 0x16E5 JUMP JUMPDEST DUP1 MLOAD ISZERO PUSH2 0x16E0 JUMPI DUP1 PUSH1 0x1 DUP3 MLOAD PUSH2 0x16C0 SWAP2 SWAP1 PUSH2 0x1EC8 JUMP JUMPDEST DUP2 MLOAD DUP2 LT PUSH2 0x16D0 JUMPI PUSH2 0x16D0 PUSH2 0x1EA0 JUMP JUMPDEST PUSH1 0x20 MUL PUSH1 0x20 ADD ADD MLOAD SWAP2 POP POP PUSH2 0x16E5 JUMP JUMPDEST PUSH0 SWAP2 POP POP JUMPDEST SWAP5 SWAP4 POP POP POP POP JUMP JUMPDEST PUSH0 DUP1 SLOAD PUSH1 0x1 PUSH1 0x1 PUSH1 0xA0 SHL SUB DUP4 DUP2 AND PUSH1 0x1 PUSH1 0x1 PUSH1 0xA0 SHL SUB NOT DUP4 AND DUP2 OR DUP5 SSTORE PUSH1 0x40 MLOAD SWAP2 SWAP1 SWAP3 AND SWAP3 DUP4 SWAP2 PUSH32 0x8BE0079C531659141344CD1FD0A4F28419497F9722A3DAAFE3B4186F6B6457E0 SWAP2 SWAP1 LOG3 POP POP JUMP JUMPDEST PUSH0 PUSH0 PUSH1 0x20 PUSH0 DUP5 MLOAD PUSH1 0x20 DUP7 ADD PUSH0 DUP9 GAS CALL DUP1 PUSH2 0x175B JUMPI PUSH1 0x40 MLOAD RETURNDATASIZE PUSH0 DUP3 RETURNDATACOPY RETURNDATASIZE DUP2 REVERT JUMPDEST POP POP PUSH0 MLOAD RETURNDATASIZE SWAP2 POP DUP2 ISZERO PUSH2 0x1772 JUMPI DUP1 PUSH1 0x1 EQ ISZERO PUSH2 0x177F JUMP JUMPDEST PUSH1 0x1 PUSH1 0x1 PUSH1 0xA0 SHL SUB DUP5 AND EXTCODESIZE ISZERO JUMPDEST ISZERO PUSH2 0x17A8 JUMPI PUSH1 0x40 MLOAD PUSH4 0x5274AFE7 PUSH1 0xE0 SHL DUP2 MSTORE PUSH1 0x1 PUSH1 0x1 PUSH1 0xA0 SHL SUB DUP6 AND PUSH1 0x4 DUP3 ADD MSTORE PUSH1 0x24 ADD PUSH2 0x166 JUMP JUMPDEST POP POP POP POP JUMP JUMPDEST PUSH1 0x40 MLOAD PUSH1 0x1 PUSH1 0x1 PUSH1 0xA0 SHL SUB DUP5 DUP2 AND PUSH1 0x24 DUP4 ADD MSTORE DUP4 DUP2 AND PUSH1 0x44 DUP4 ADD MSTORE PUSH1 0x64 DUP3 ADD DUP4 SWAP1 MSTORE PUSH2 0x17A8 SWAP2 DUP7 SWAP2 DUP3 AND SWAP1 PUSH4 0x23B872DD SWAP1 PUSH1 0x84 ADD PUSH2 0x124A JUMP JUMPDEST PUSH0 DUP5 PUSH0 SUB PUSH2 0x17F6 JUMPI POP PUSH0 PUSH2 0x1371 JUMP JUMPDEST DUP7 MLOAD PUSH2 0x1803 SWAP1 DUP8 DUP8 PUSH2 0x1A59 JUMP JUMPDEST PUSH1 0x20 DUP8 ADD MLOAD PUSH1 0x40 MLOAD PUSH4 0x70A08231 PUSH1 0xE0 SHL DUP2 MSTORE ADDRESS PUSH1 0x4 DUP3 ADD MSTORE PUSH0 SWAP2 PUSH1 0x1 PUSH1 0x1 PUSH1 0xA0 SHL SUB AND SWAP1 PUSH4 0x70A08231 SWAP1 PUSH1 0x24 ADD PUSH1 0x20 PUSH1 0x40 MLOAD DUP1 DUP4 SUB DUP2 DUP7 GAS STATICCALL ISZERO DUP1 ISZERO PUSH2 0x184B JUMPI RETURNDATASIZE PUSH0 PUSH0 RETURNDATACOPY RETURNDATASIZE PUSH0 REVERT JUMPDEST POP POP POP POP PUSH1 0x40 MLOAD RETURNDATASIZE PUSH1 0x1F NOT PUSH1 0x1F DUP3 ADD AND DUP3 ADD DUP1 PUSH1 0x40 MSTORE POP DUP2 ADD SWAP1 PUSH2 0x186F SWAP2 SWAP1 PUSH2 0x1F24 JUMP JUMPDEST SWAP1 POP DUP7 PUSH1 0x1 PUSH1 0x1 PUSH1 0xA0 SHL SUB AND PUSH4 0x38ED1739 DUP8 DUP6 DUP9 DUP9 ADDRESS DUP15 PUSH1 0x40 ADD MLOAD PUSH1 0x40 MLOAD DUP8 PUSH4 0xFFFFFFFF AND PUSH1 0xE0 SHL DUP2 MSTORE PUSH1 0x4 ADD PUSH2 0x18AB SWAP7 SWAP6 SWAP5 SWAP4 SWAP3 SWAP2 SWAP1 PUSH2 0x2036 JUMP JUMPDEST PUSH0 PUSH1 0x40 MLOAD DUP1 DUP4 SUB DUP2 PUSH0 DUP8 GAS CALL ISZERO DUP1 ISZERO PUSH2 0x18C6 JUMPI RETURNDATASIZE PUSH0 PUSH0 RETURNDATACOPY RETURNDATASIZE PUSH0 REVERT JUMPDEST POP POP POP POP PUSH1 0x40 MLOAD RETURNDATASIZE PUSH0 DUP3 RETURNDATACOPY PUSH1 0x1F RETURNDATASIZE SWAP1 DUP2 ADD PUSH1 0x1F NOT AND DUP3 ADD PUSH1 0x40 MSTORE PUSH2 0x18ED SWAP2 SWAP1 DUP2 ADD SWAP1 PUSH2 0x1F71 JUMP JUMPDEST POP PUSH1 0x20 DUP9 ADD MLOAD PUSH1 0x40 MLOAD PUSH4 0x70A08231 PUSH1 0xE0 SHL DUP2 MSTORE ADDRESS PUSH1 0x4 DUP3 ADD MSTORE PUSH0 SWAP2 PUSH1 0x1 PUSH1 0x1 PUSH1 0xA0 SHL SUB AND SWAP1 PUSH4 0x70A08231 SWAP1 PUSH1 0x24 ADD PUSH1 0x20 PUSH1 0x40 MLOAD DUP1 DUP4 SUB DUP2 DUP7 GAS STATICCALL ISZERO DUP1 ISZERO PUSH2 0x1936 JUMPI RETURNDATASIZE PUSH0 PUSH0 RETURNDATACOPY RETURNDATASIZE PUSH0 REVERT JUMPDEST POP POP POP POP PUSH1 0x40 MLOAD RETURNDATASIZE PUSH1 0x1F NOT PUSH1 0x1F DUP3 ADD AND DUP3 ADD DUP1 PUSH1 0x40 MSTORE POP DUP2 ADD SWAP1 PUSH2 0x195A SWAP2 SWAP1 PUSH2 0x1F24 JUMP JUMPDEST SWAP1 POP PUSH2 0x1966 DUP3 DUP3 PUSH2 0x1EC8 JUMP JUMPDEST SWAP10 SWAP9 POP POP POP POP POP POP POP POP POP JUMP JUMPDEST PUSH1 0x5 SLOAD PUSH0 SWAP1 DUP2 SWAP1 PUSH2 0xFFFF AND DUP2 SUB PUSH2 0x198E JUMPI POP PUSH0 SWAP1 POP DUP2 PUSH2 0x19E1 JUMP JUMPDEST PUSH1 0x5 SLOAD PUSH2 0x2710 SWAP1 PUSH2 0x19A3 SWAP1 PUSH2 0xFFFF AND DUP6 PUSH2 0x1EDB JUMP JUMPDEST PUSH2 0x19AD SWAP2 SWAP1 PUSH2 0x1EF2 JUMP JUMPDEST SWAP2 POP PUSH2 0x19B9 DUP3 DUP5 PUSH2 0x1EC8 JUMP JUMPDEST SWAP1 POP DUP2 ISZERO PUSH2 0x19E1 JUMPI PUSH1 0x5 SLOAD PUSH2 0x19E1 SWAP1 PUSH1 0x1 PUSH1 0x1 PUSH1 0xA0 SHL SUB DUP7 DUP2 AND SWAP2 PUSH3 0x10000 SWAP1 DIV AND DUP5 PUSH2 0x121D JUMP JUMPDEST SWAP3 POP SWAP3 SWAP1 POP JUMP JUMPDEST DUP5 MLOAD PUSH1 0x20 DUP1 DUP8 ADD MLOAD PUSH1 0x40 DUP1 MLOAD PUSH1 0x1 PUSH1 0x1 PUSH1 0xA0 SHL SUB SWAP5 DUP6 AND DUP2 MSTORE SWAP2 DUP5 AND SWAP3 DUP3 ADD SWAP3 SWAP1 SWAP3 MSTORE SWAP1 DUP2 ADD DUP6 SWAP1 MSTORE PUSH1 0x60 DUP2 ADD DUP5 SWAP1 MSTORE PUSH1 0x80 DUP2 ADD DUP4 SWAP1 MSTORE SWAP1 DUP6 AND SWAP1 CALLER SWAP1 PUSH32 0xA3C755D4452DEC05C2F66980B0A74A215E95DD31BEF2194BEBCE30F397FB6E2E SWAP1 PUSH1 0xA0 ADD PUSH1 0x40 MLOAD DUP1 SWAP2 SUB SWAP1 LOG3 POP POP POP POP POP JUMP JUMPDEST PUSH1 0x40 DUP1 MLOAD PUSH1 0x1 PUSH1 0x1 PUSH1 0xA0 SHL SUB DUP5 DUP2 AND PUSH1 0x24 DUP4 ADD MSTORE PUSH1 0x44 DUP1 DUP4 ADD DUP6 SWAP1 MSTORE DUP4 MLOAD DUP1 DUP5 SUB SWAP1 SWAP2 ADD DUP2 MSTORE PUSH1 0x64 SWAP1 SWAP3 ADD SWAP1 SWAP3 MSTORE PUSH1 0x20 DUP2 ADD DUP1 MLOAD PUSH1 0x1 PUSH1 0x1 PUSH1 0xE0 SHL SUB AND PUSH4 0x95EA7B3 PUSH1 0xE0 SHL OR SWAP1 MSTORE PUSH2 0xA47 SWAP2 DUP6 AND SWAP1 DUP5 SWAP1 DUP5 SWAP1 PUSH2 0x1AB6 DUP5 DUP3 PUSH2 0x1AF4 JUMP JUMPDEST PUSH2 0x17A8 JUMPI PUSH1 0x40 MLOAD PUSH1 0x1 PUSH1 0x1 PUSH1 0xA0 SHL SUB DUP5 DUP2 AND PUSH1 0x24 DUP4 ADD MSTORE PUSH0 PUSH1 0x44 DUP4 ADD MSTORE PUSH2 0x1AEA SWAP2 DUP7 SWAP2 DUP3 AND SWAP1 PUSH4 0x95EA7B3 SWAP1 PUSH1 0x64 ADD PUSH2 0x124A JUMP JUMPDEST PUSH2 0x17A8 DUP5 DUP3 PUSH2 0x173C JUMP JUMPDEST PUSH0 PUSH0 PUSH0 PUSH0 PUSH1 0x20 PUSH0 DUP7 MLOAD PUSH1 0x20 DUP9 ADD PUSH0 DUP11 GAS CALL SWAP3 POP RETURNDATASIZE SWAP2 POP PUSH0 MLOAD SWAP1 POP DUP3 DUP1 ISZERO PUSH2 0x1B33 JUMPI POP DUP2 ISZERO PUSH2 0x1B25 JUMPI DUP1 PUSH1 0x1 EQ PUSH2 0x1B33 JUMP JUMPDEST PUSH0 DUP7 PUSH1 0x1 PUSH1 0x1 PUSH1 0xA0 SHL SUB AND EXTCODESIZE GT JUMPDEST SWAP4 POP POP POP POP JUMPDEST SWAP3 SWAP2 POP POP JUMP JUMPDEST DUP1 CALLDATALOAD PUSH1 0x1 PUSH1 0x1 PUSH1 0xA0 SHL SUB DUP2 AND DUP2 EQ PUSH2 0x1B55 JUMPI PUSH0 PUSH0 REVERT JUMPDEST SWAP2 SWAP1 POP JUMP JUMPDEST PUSH0 PUSH1 0x20 DUP3 DUP5 SUB SLT ISZERO PUSH2 0x1B6A JUMPI PUSH0 PUSH0 REVERT JUMPDEST PUSH2 0x1B73 DUP3 PUSH2 0x1B3F JUMP JUMPDEST SWAP4 SWAP3 POP POP POP JUMP JUMPDEST PUSH0 PUSH0 PUSH1 0x40 DUP4 DUP6 SUB SLT ISZERO PUSH2 0x1B8B JUMPI PUSH0 PUSH0 REVERT JUMPDEST PUSH2 0x1B94 DUP4 PUSH2 0x1B3F JUMP JUMPDEST SWAP2 POP PUSH1 0x20 DUP4 ADD CALLDATALOAD PUSH2 0xFFFF DUP2 AND DUP2 EQ PUSH2 0x1BAA JUMPI PUSH0 PUSH0 REVERT JUMPDEST DUP1 SWAP2 POP POP SWAP3 POP SWAP3 SWAP1 POP JUMP JUMPDEST PUSH0 PUSH0 PUSH1 0x40 DUP4 DUP6 SUB SLT ISZERO PUSH2 0x1BC6 JUMPI PUSH0 PUSH0 REVERT JUMPDEST PUSH2 0x1BCF DUP4 PUSH2 0x1B3F JUMP JUMPDEST SWAP2 POP PUSH1 0x20 DUP4 ADD CALLDATALOAD DUP1 ISZERO ISZERO DUP2 EQ PUSH2 0x1BAA JUMPI PUSH0 PUSH0 REVERT JUMPDEST PUSH0 PUSH0 DUP4 PUSH1 0x1F DUP5 ADD SLT PUSH2 0x1BF3 JUMPI PUSH0 PUSH0 REVERT JUMPDEST POP DUP2 CALLDATALOAD PUSH1 0x1 PUSH1 0x1 PUSH1 0x40 SHL SUB DUP2 GT ISZERO PUSH2 0x1C09 JUMPI PUSH0 PUSH0 REVERT JUMPDEST PUSH1 0x20 DUP4 ADD SWAP2 POP DUP4 PUSH1 0x20 DUP3 PUSH1 0x5 SHL DUP6 ADD ADD GT ISZERO PUSH2 0x19E1 JUMPI PUSH0 PUSH0 REVERT JUMPDEST PUSH0 PUSH0 PUSH0 PUSH0 PUSH0 PUSH1 0x60 DUP7 DUP9 SUB SLT ISZERO PUSH2 0x1C37 JUMPI PUSH0 PUSH0 REVERT JUMPDEST DUP6 CALLDATALOAD SWAP5 POP PUSH1 0x20 DUP7 ADD CALLDATALOAD PUSH1 0x1 PUSH1 0x1 PUSH1 0x40 SHL SUB DUP2 GT ISZERO PUSH2 0x1C53 JUMPI PUSH0 PUSH0 REVERT JUMPDEST PUSH2 0x1C5F DUP9 DUP3 DUP10 ADD PUSH2 0x1BE3 JUMP JUMPDEST SWAP1 SWAP6 POP SWAP4 POP POP PUSH1 0x40 DUP7 ADD CALLDATALOAD PUSH1 0x1 PUSH1 0x1 PUSH1 0x40 SHL SUB DUP2 GT ISZERO PUSH2 0x1C7D JUMPI PUSH0 PUSH0 REVERT JUMPDEST PUSH2 0x1C89 DUP9 DUP3 DUP10 ADD PUSH2 0x1BE3 JUMP JUMPDEST SWAP7 SWAP10 SWAP6 SWAP9 POP SWAP4 SWAP7 POP SWAP3 SWAP5 SWAP4 SWAP3 POP POP POP JUMP JUMPDEST PUSH0 PUSH1 0x20 DUP3 DUP5 SUB SLT ISZERO PUSH2 0x1CAA JUMPI PUSH0 PUSH0 REVERT JUMPDEST POP CALLDATALOAD SWAP2 SWAP1 POP JUMP JUMPDEST PUSH0 PUSH0 PUSH0 PUSH0 PUSH0 PUSH0 PUSH0 PUSH0 PUSH1 0xC0 DUP10 DUP12 SUB SLT ISZERO PUSH2 0x1CC8 JUMPI PUSH0 PUSH0 REVERT JUMPDEST DUP9 CALLDATALOAD SWAP8 POP PUSH1 0x20 DUP10 ADD CALLDATALOAD SWAP7 POP PUSH1 0x40 DUP10 ADD CALLDATALOAD PUSH1 0x1 PUSH1 0x1 PUSH1 0x40 SHL SUB DUP2 GT ISZERO PUSH2 0x1CEB JUMPI PUSH0 PUSH0 REVERT JUMPDEST PUSH2 0x1CF7 DUP12 DUP3 DUP13 ADD PUSH2 0x1BE3 JUMP JUMPDEST SWAP1 SWAP8 POP SWAP6 POP POP PUSH1 0x60 DUP10 ADD CALLDATALOAD PUSH1 0x1 PUSH1 0x1 PUSH1 0x40 SHL SUB DUP2 GT ISZERO PUSH2 0x1D15 JUMPI PUSH0 PUSH0 REVERT JUMPDEST PUSH2 0x1D21 DUP12 DUP3 DUP13 ADD PUSH2 0x1BE3 JUMP JUMPDEST SWAP10 SWAP13 SWAP9 SWAP12 POP SWAP7 SWAP10 SWAP6 SWAP9 SWAP7 SWAP8 PUSH1 0x80 DUP8 ADD CALLDATALOAD SWAP7 PUSH1 0xA0 ADD CALLDATALOAD SWAP6 POP SWAP4 POP POP POP POP JUMP JUMPDEST PUSH0 PUSH0 PUSH0 PUSH1 0x60 DUP5 DUP7 SUB SLT ISZERO PUSH2 0x1D51 JUMPI PUSH0 PUSH0 REVERT JUMPDEST PUSH2 0x1D5A DUP5 PUSH2 0x1B3F JUMP JUMPDEST SWAP3 POP PUSH2 0x1D68 PUSH1 0x20 DUP6 ADD PUSH2 0x1B3F JUMP JUMPDEST SWAP3 SWAP6 SWAP3 SWAP5 POP POP POP PUSH1 0x40 SWAP2 SWAP1 SWAP2 ADD CALLDATALOAD SWAP1 JUMP JUMPDEST PUSH0 PUSH0 PUSH0 PUSH0 PUSH0 PUSH0 PUSH0 PUSH1 0xA0 DUP9 DUP11 SUB SLT ISZERO PUSH2 0x1D8F JUMPI PUSH0 PUSH0 REVERT JUMPDEST DUP8 CALLDATALOAD SWAP7 POP PUSH1 0x20 DUP9 ADD CALLDATALOAD SWAP6 POP PUSH1 0x40 DUP9 ADD CALLDATALOAD PUSH1 0x1 PUSH1 0x1 PUSH1 0x40 SHL SUB DUP2 GT ISZERO PUSH2 0x1DB2 JUMPI PUSH0 PUSH0 REVERT JUMPDEST PUSH2 0x1DBE DUP11 DUP3 DUP12 ADD PUSH2 0x1BE3 JUMP JUMPDEST SWAP1 SWAP7 POP SWAP5 POP POP PUSH1 0x60 DUP9 ADD CALLDATALOAD PUSH1 0x1 PUSH1 0x1 PUSH1 0x40 SHL SUB DUP2 GT ISZERO PUSH2 0x1DDC JUMPI PUSH0 PUSH0 REVERT JUMPDEST PUSH2 0x1DE8 DUP11 DUP3 DUP12 ADD PUSH2 0x1BE3 JUMP JUMPDEST SWAP9 SWAP12 SWAP8 SWAP11 POP SWAP6 SWAP9 SWAP5 SWAP8 SWAP6 SWAP7 PUSH1 0x80 SWAP1 SWAP6 ADD CALLDATALOAD SWAP5 SWAP4 POP POP POP POP JUMP JUMPDEST DUP2 DUP4 MSTORE PUSH1 0x20 DUP4 ADD SWAP3 POP PUSH0 DUP2 PUSH0 JUMPDEST DUP5 DUP2 LT ISZERO PUSH2 0x1E3D JUMPI PUSH1 0x1 PUSH1 0x1 PUSH1 0xA0 SHL SUB PUSH2 0x1E27 DUP4 PUSH2 0x1B3F JUMP JUMPDEST AND DUP7 MSTORE PUSH1 0x20 SWAP6 DUP7 ADD SWAP6 SWAP2 SWAP1 SWAP2 ADD SWAP1 PUSH1 0x1 ADD PUSH2 0x1E0E JUMP JUMPDEST POP SWAP4 SWAP5 SWAP4 POP POP POP POP JUMP JUMPDEST PUSH1 0x1 DUP1 PUSH1 0xA0 SHL SUB DUP11 AND DUP2 MSTORE DUP9 PUSH1 0x20 DUP3 ADD MSTORE DUP8 PUSH1 0x40 DUP3 ADD MSTORE PUSH1 0xE0 PUSH1 0x60 DUP3 ADD MSTORE PUSH0 PUSH2 0x1E74 PUSH1 0xE0 DUP4 ADD DUP9 DUP11 PUSH2 0x1E01 JUMP JUMPDEST DUP3 DUP2 SUB PUSH1 0x80 DUP5 ADD MSTORE PUSH2 0x1E87 DUP2 DUP8 DUP10 PUSH2 0x1E01 JUMP JUMPDEST PUSH1 0xA0 DUP5 ADD SWAP6 SWAP1 SWAP6 MSTORE POP POP PUSH1 0xC0 ADD MSTORE SWAP8 SWAP7 POP POP POP POP POP POP POP JUMP JUMPDEST PUSH4 0x4E487B71 PUSH1 0xE0 SHL PUSH0 MSTORE PUSH1 0x32 PUSH1 0x4 MSTORE PUSH1 0x24 PUSH0 REVERT JUMPDEST PUSH4 0x4E487B71 PUSH1 0xE0 SHL PUSH0 MSTORE PUSH1 0x11 PUSH1 0x4 MSTORE PUSH1 0x24 PUSH0 REVERT JUMPDEST DUP2 DUP2 SUB DUP2 DUP2 GT ISZERO PUSH2 0x1B39 JUMPI PUSH2 0x1B39 PUSH2 0x1EB4 JUMP JUMPDEST DUP1 DUP3 MUL DUP2 ISZERO DUP3 DUP3 DIV DUP5 EQ OR PUSH2 0x1B39 JUMPI PUSH2 0x1B39 PUSH2 0x1EB4 JUMP JUMPDEST PUSH0 DUP3 PUSH2 0x1F0C JUMPI PUSH4 0x4E487B71 PUSH1 0xE0 SHL PUSH0 MSTORE PUSH1 0x12 PUSH1 0x4 MSTORE PUSH1 0x24 PUSH0 REVERT JUMPDEST POP DIV SWAP1 JUMP JUMPDEST DUP1 DUP3 ADD DUP1 DUP3 GT ISZERO PUSH2 0x1B39 JUMPI PUSH2 0x1B39 PUSH2 0x1EB4 JUMP JUMPDEST PUSH0 PUSH1 0x20 DUP3 DUP5 SUB SLT ISZERO PUSH2 0x1F34 JUMPI PUSH0 PUSH0 REVERT JUMPDEST POP MLOAD SWAP2 SWAP1 POP JUMP JUMPDEST DUP4 DUP2 MSTORE PUSH1 0x40 PUSH1 0x20 DUP3 ADD MSTORE PUSH0 PUSH2 0x1F54 PUSH1 0x40 DUP4 ADD DUP5 DUP7 PUSH2 0x1E01 JUMP JUMPDEST SWAP6 SWAP5 POP POP POP POP POP JUMP JUMPDEST PUSH4 0x4E487B71 PUSH1 0xE0 SHL PUSH0 MSTORE PUSH1 0x41 PUSH1 0x4 MSTORE PUSH1 0x24 PUSH0 REVERT JUMPDEST PUSH0 PUSH1 0x20 DUP3 DUP5 SUB SLT ISZERO PUSH2 0x1F81 JUMPI PUSH0 PUSH0 REVERT JUMPDEST DUP2 MLOAD PUSH1 0x1 PUSH1 0x1 PUSH1 0x40 SHL SUB DUP2 GT ISZERO PUSH2 0x1F96 JUMPI PUSH0 PUSH0 REVERT JUMPDEST DUP3 ADD PUSH1 0x1F DUP2 ADD DUP5 SGT PUSH2 0x1FA6 JUMPI PUSH0 PUSH0 REVERT JUMPDEST DUP1 MLOAD PUSH1 0x1 PUSH1 0x1 PUSH1 0x40 SHL SUB DUP2 GT ISZERO PUSH2 0x1FBF JUMPI PUSH2 0x1FBF PUSH2 0x1F5D JUMP JUMPDEST DUP1 PUSH1 0x5 SHL PUSH1 0x40 MLOAD PUSH1 0x1F NOT PUSH1 0x3F DUP4 ADD AND DUP2 ADD DUP2 DUP2 LT PUSH1 0x1 PUSH1 0x1 PUSH1 0x40 SHL SUB DUP3 GT OR ISZERO PUSH2 0x1FEB JUMPI PUSH2 0x1FEB PUSH2 0x1F5D JUMP JUMPDEST PUSH1 0x40 MSTORE SWAP2 DUP3 MSTORE PUSH1 0x20 DUP2 DUP5 ADD DUP2 ADD SWAP3 SWAP1 DUP2 ADD DUP8 DUP5 GT ISZERO PUSH2 0x2008 JUMPI PUSH0 PUSH0 REVERT JUMPDEST PUSH1 0x20 DUP6 ADD SWAP5 POP JUMPDEST DUP4 DUP6 LT ISZERO PUSH2 0x202B JUMPI DUP5 MLOAD DUP1 DUP3 MSTORE PUSH1 0x20 SWAP6 DUP7 ADD SWAP6 SWAP1 SWAP4 POP ADD PUSH2 0x200F JUMP JUMPDEST POP SWAP7 SWAP6 POP POP POP POP POP POP JUMP JUMPDEST DUP7 DUP2 MSTORE DUP6 PUSH1 0x20 DUP3 ADD MSTORE PUSH1 0xA0 PUSH1 0x40 DUP3 ADD MSTORE PUSH0 PUSH2 0x2055 PUSH1 0xA0 DUP4 ADD DUP7 DUP9 PUSH2 0x1E01 JUMP JUMPDEST PUSH1 0x1 PUSH1 0x1 PUSH1 0xA0 SHL SUB SWAP5 SWAP1 SWAP5 AND PUSH1 0x60 DUP4 ADD MSTORE POP PUSH1 0x80 ADD MSTORE SWAP5 SWAP4 POP POP POP POP JUMP INVALID LOG2 PUSH5 0x6970667358 0x22 SLT KECCAK256 ADDRESS SELFBALANCE BASEFEE SWAP16 GASLIMIT SWAP9 0xCC 0xB0 OR 0x26 0xD CREATE2 0xCB LOG3 0xEB STOP 0xC5 PUSH7 0x6AFC72A242E9E5 0xDA 0xB5 0x2E BLOBBASEFEE DELEGATECALL RETURNDATACOPY BLOBHASH PUSH5 0x736F6C6343 STOP ADDMOD 0x1E STOP CALLER "
		},
		"gasEstimates": {
			"creation": {
				"codeDepositCost": "1672200",
				"executionCost": "infinite",
				"totalCost": "infinite"
			},
			"external": {
				"MAX_FEE_BPS()": "314",
				"acceptOwnership()": "infinite",
				"clearCommit()": "30772",
				"commitBlock(address)": "2568",
				"commitOf(address)": "2626",
				"commitSwap(bytes32)": "50350",
				"feeRecipient()": "2370",
				"isAllowedRouter(address)": "2617",
				"owner()": "2396",
				"pause()": "infinite",
				"paused()": "2381",
				"pendingOwner()": "2352",
				"protocolFeeBps()": "2380",
				"quoteBest(uint256,address[],address[])": "infinite",
				"renounceOwnership()": "infinite",
				"rescueToken(address,address,uint256)": "infinite",
				"setAllowedRouter(address,bool)": "28394",
				"setFeeConfig(address,uint16)": "28382",
				"swapBest(uint256,uint256,address[],address[],uint256)": "infinite",
				"swapBestReveal(uint256,uint256,address[],address[],uint256,bytes32)": "infinite",
				"transferOwnership(address)": "30477",
				"unpause()": "infinite"
			},
			"internal": {
				"_approveExact(address,address,uint256)": "infinite",
				"_bestSingleQuote(uint256,address[] calldata,address[] calldata)": "infinite",
				"_bestSplitQuote(uint256,address,address,address[] calldata)": "infinite",
				"_decideBest(uint256,address[] calldata,address[] calldata)": "infinite",
				"_emitSwapBestSingle(struct AdvancedDexAggregator.ExecCtx memory,address,uint256,uint256,uint256)": "infinite",
				"_emitSwapBestSplit(struct AdvancedDexAggregator.ExecCtx memory,address,address,uint256,uint256,uint256,uint256,uint256,uint256)": "infinite",
				"_execSingle(struct AdvancedDexAggregator.ExecCtx memory,address,uint256,address[] calldata)": "infinite",
				"_execSplit(struct AdvancedDexAggregator.ExecCtx memory,address,address,uint256,uint16,address[] calldata)": "infinite",
				"_pullTokenIn(address,address,uint256)": "infinite",
				"_safeAmountsOut(address,uint256,address[] calldata)": "infinite",
				"_swapToSelf(struct AdvancedDexAggregator.ExecCtx memory,address,uint256,address[] calldata,uint256)": "infinite",
				"_takeFee(address,uint256)": "infinite",
				"_topTwoRouters(uint256,address[] calldata,address[] calldata)": "infinite"
			}
		},
		"methodIdentifiers": {
			"MAX_FEE_BPS()": "d55be8c6",
			"acceptOwnership()": "79ba5097",
			"clearCommit()": "ff7551e3",
			"commitBlock(address)": "23dd7f39",
			"commitOf(address)": "fdd5791e",
			"commitSwap(bytes32)": "5b7499b5",
			"feeRecipient()": "46904840",
			"isAllowedRouter(address)": "c226c4bb",
			"owner()": "8da5cb5b",
			"pause()": "8456cb59",
			"paused()": "5c975abb",
			"pendingOwner()": "e30c3978",
			"protocolFeeBps()": "35659fb8",
			"quoteBest(uint256,address[],address[])": "52fd5099",
			"renounceOwnership()": "715018a6",
			"rescueToken(address,address,uint256)": "e5711e8b",
			"setAllowedRouter(address,bool)": "39a5b0cd",
			"setFeeConfig(address,uint16)": "350e9756",
			"swapBest(uint256,uint256,address[],address[],uint256)": "f87b098c",
			"swapBestReveal(uint256,uint256,address[],address[],uint256,bytes32)": "6bdc40a6",
			"transferOwnership(address)": "f2fde38b",
			"unpause()": "3f4ba83a"
		}
	},
	"abi": [
		{
			"inputs": [
				{
					"internalType": "address[]",
					"name": "initialRouters",
					"type": "address[]"
				},
				{
					"internalType": "address",
					"name": "_feeRecipient",
					"type": "address"
				},
				{
					"internalType": "uint16",
					"name": "_feeBps",
					"type": "uint16"
				}
			],
			"stateMutability": "nonpayable",
			"type": "constructor"
		},
		{
			"inputs": [],
			"name": "EnforcedPause",
			"type": "error"
		},
		{
			"inputs": [],
			"name": "ExpectedPause",
			"type": "error"
		},
		{
			"inputs": [
				{
					"internalType": "address",
					"name": "owner",
					"type": "address"
				}
			],
			"name": "OwnableInvalidOwner",
			"type": "error"
		},
		{
			"inputs": [
				{
					"internalType": "address",
					"name": "account",
					"type": "address"
				}
			],
			"name": "OwnableUnauthorizedAccount",
			"type": "error"
		},
		{
			"inputs": [],
			"name": "ReentrancyGuardReentrantCall",
			"type": "error"
		},
		{
			"inputs": [
				{
					"internalType": "address",
					"name": "token",
					"type": "address"
				}
			],
			"name": "SafeERC20FailedOperation",
			"type": "error"
		},
		{
			"anonymous": false,
			"inputs": [
				{
					"indexed": false,
					"internalType": "uint16",
					"name": "feeBps",
					"type": "uint16"
				},
				{
					"indexed": true,
					"internalType": "address",
					"name": "recipient",
					"type": "address"
				}
			],
			"name": "FeeConfigUpdated",
			"type": "event"
		},
		{
			"anonymous": false,
			"inputs": [
				{
					"indexed": true,
					"internalType": "address",
					"name": "previousOwner",
					"type": "address"
				},
				{
					"indexed": true,
					"internalType": "address",
					"name": "newOwner",
					"type": "address"
				}
			],
			"name": "OwnershipTransferStarted",
			"type": "event"
		},
		{
			"anonymous": false,
			"inputs": [
				{
					"indexed": true,
					"internalType": "address",
					"name": "previousOwner",
					"type": "address"
				},
				{
					"indexed": true,
					"internalType": "address",
					"name": "newOwner",
					"type": "address"
				}
			],
			"name": "OwnershipTransferred",
			"type": "event"
		},
		{
			"anonymous": false,
			"inputs": [
				{
					"indexed": false,
					"internalType": "address",
					"name": "account",
					"type": "address"
				}
			],
			"name": "Paused",
			"type": "event"
		},
		{
			"anonymous": false,
			"inputs": [
				{
					"indexed": true,
					"internalType": "address",
					"name": "by",
					"type": "address"
				}
			],
			"name": "PausedBy",
			"type": "event"
		},
		{
			"anonymous": false,
			"inputs": [
				{
					"indexed": true,
					"internalType": "address",
					"name": "router",
					"type": "address"
				},
				{
					"indexed": false,
					"internalType": "bool",
					"name": "allowed",
					"type": "bool"
				}
			],
			"name": "RouterAllowed",
			"type": "event"
		},
		{
			"anonymous": false,
			"inputs": [
				{
					"indexed": true,
					"internalType": "address",
					"name": "user",
					"type": "address"
				},
				{
					"indexed": true,
					"internalType": "address",
					"name": "router",
					"type": "address"
				},
				{
					"indexed": false,
					"internalType": "address",
					"name": "tokenIn",
					"type": "address"
				},
				{
					"indexed": false,
					"internalType": "address",
					"name": "tokenOut",
					"type": "address"
				},
				{
					"indexed": false,
					"internalType": "uint256",
					"name": "amountInActual",
					"type": "uint256"
				},
				{
					"indexed": false,
					"internalType": "uint256",
					"name": "amountOut",
					"type": "uint256"
				},
				{
					"indexed": false,
					"internalType": "uint256",
					"name": "feeTaken",
					"type": "uint256"
				}
			],
			"name": "SwapBestSingle",
			"type": "event"
		},
		{
			"anonymous": false,
			"inputs": [
				{
					"indexed": true,
					"internalType": "address",
					"name": "user",
					"type": "address"
				},
				{
					"indexed": true,
					"internalType": "address",
					"name": "routerA",
					"type": "address"
				},
				{
					"indexed": true,
					"internalType": "address",
					"name": "routerB",
					"type": "address"
				},
				{
					"indexed": false,
					"internalType": "address",
					"name": "tokenIn",
					"type": "address"
				},
				{
					"indexed": false,
					"internalType": "address",
					"name": "tokenOut",
					"type": "address"
				},
				{
					"indexed": false,
					"internalType": "uint256",
					"name": "amountInActual",
					"type": "uint256"
				},
				{
					"indexed": false,
					"internalType": "uint256",
					"name": "amountOutTotal",
					"type": "uint256"
				},
				{
					"indexed": false,
					"internalType": "uint256",
					"name": "outA",
					"type": "uint256"
				},
				{
					"indexed": false,
					"internalType": "uint256",
					"name": "outB",
					"type": "uint256"
				},
				{
					"indexed": false,
					"internalType": "uint256",
					"name": "splitBpsToA",
					"type": "uint256"
				},
				{
					"indexed": false,
					"internalType": "uint256",
					"name": "feeTaken",
					"type": "uint256"
				}
			],
			"name": "SwapBestSplit",
			"type": "event"
		},
		{
			"anonymous": false,
			"inputs": [
				{
					"indexed": true,
					"internalType": "address",
					"name": "user",
					"type": "address"
				}
			],
			"name": "SwapCommitCleared",
			"type": "event"
		},
		{
			"anonymous": false,
			"inputs": [
				{
					"indexed": true,
					"internalType": "address",
					"name": "user",
					"type": "address"
				},
				{
					"indexed": false,
					"internalType": "bytes32",
					"name": "commitment",
					"type": "bytes32"
				}
			],
			"name": "SwapCommitted",
			"type": "event"
		},
		{
			"anonymous": false,
			"inputs": [
				{
					"indexed": false,
					"internalType": "address",
					"name": "account",
					"type": "address"
				}
			],
			"name": "Unpaused",
			"type": "event"
		},
		{
			"anonymous": false,
			"inputs": [
				{
					"indexed": true,
					"internalType": "address",
					"name": "by",
					"type": "address"
				}
			],
			"name": "UnpausedBy",
			"type": "event"
		},
		{
			"inputs": [],
			"name": "MAX_FEE_BPS",
			"outputs": [
				{
					"internalType": "uint16",
					"name": "",
					"type": "uint16"
				}
			],
			"stateMutability": "view",
			"type": "function"
		},
		{
			"inputs": [],
			"name": "acceptOwnership",
			"outputs": [],
			"stateMutability": "nonpayable",
			"type": "function"
		},
		{
			"inputs": [],
			"name": "clearCommit",
			"outputs": [],
			"stateMutability": "nonpayable",
			"type": "function"
		},
		{
			"inputs": [
				{
					"internalType": "address",
					"name": "",
					"type": "address"
				}
			],
			"name": "commitBlock",
			"outputs": [
				{
					"internalType": "uint64",
					"name": "",
					"type": "uint64"
				}
			],
			"stateMutability": "view",
			"type": "function"
		},
		{
			"inputs": [
				{
					"internalType": "address",
					"name": "",
					"type": "address"
				}
			],
			"name": "commitOf",
			"outputs": [
				{
					"internalType": "bytes32",
					"name": "",
					"type": "bytes32"
				}
			],
			"stateMutability": "view",
			"type": "function"
		},
		{
			"inputs": [
				{
					"internalType": "bytes32",
					"name": "commitment",
					"type": "bytes32"
				}
			],
			"name": "commitSwap",
			"outputs": [],
			"stateMutability": "nonpayable",
			"type": "function"
		},
		{
			"inputs": [],
			"name": "feeRecipient",
			"outputs": [
				{
					"internalType": "address",
					"name": "",
					"type": "address"
				}
			],
			"stateMutability": "view",
			"type": "function"
		},
		{
			"inputs": [
				{
					"internalType": "address",
					"name": "",
					"type": "address"
				}
			],
			"name": "isAllowedRouter",
			"outputs": [
				{
					"internalType": "bool",
					"name": "",
					"type": "bool"
				}
			],
			"stateMutability": "view",
			"type": "function"
		},
		{
			"inputs": [],
			"name": "owner",
			"outputs": [
				{
					"internalType": "address",
					"name": "",
					"type": "address"
				}
			],
			"stateMutability": "view",
			"type": "function"
		},
		{
			"inputs": [],
			"name": "pause",
			"outputs": [],
			"stateMutability": "nonpayable",
			"type": "function"
		},
		{
			"inputs": [],
			"name": "paused",
			"outputs": [
				{
					"internalType": "bool",
					"name": "",
					"type": "bool"
				}
			],
			"stateMutability": "view",
			"type": "function"
		},
		{
			"inputs": [],
			"name": "pendingOwner",
			"outputs": [
				{
					"internalType": "address",
					"name": "",
					"type": "address"
				}
			],
			"stateMutability": "view",
			"type": "function"
		},
		{
			"inputs": [],
			"name": "protocolFeeBps",
			"outputs": [
				{
					"internalType": "uint16",
					"name": "",
					"type": "uint16"
				}
			],
			"stateMutability": "view",
			"type": "function"
		},
		{
			"inputs": [
				{
					"internalType": "uint256",
					"name": "amountIn",
					"type": "uint256"
				},
				{
					"internalType": "address[]",
					"name": "routers",
					"type": "address[]"
				},
				{
					"internalType": "address[]",
					"name": "path",
					"type": "address[]"
				}
			],
			"name": "quoteBest",
			"outputs": [
				{
					"internalType": "bool",
					"name": "isSplit",
					"type": "bool"
				},
				{
					"internalType": "address",
					"name": "bestRouterOrA",
					"type": "address"
				},
				{
					"internalType": "address",
					"name": "routerB",
					"type": "address"
				},
				{
					"internalType": "uint16",
					"name": "splitBpsToA",
					"type": "uint16"
				},
				{
					"internalType": "uint256",
					"name": "bestOut",
					"type": "uint256"
				}
			],
			"stateMutability": "view",
			"type": "function"
		},
		{
			"inputs": [],
			"name": "renounceOwnership",
			"outputs": [],
			"stateMutability": "nonpayable",
			"type": "function"
		},
		{
			"inputs": [
				{
					"internalType": "address",
					"name": "token",
					"type": "address"
				},
				{
					"internalType": "address",
					"name": "to",
					"type": "address"
				},
				{
					"internalType": "uint256",
					"name": "amount",
					"type": "uint256"
				}
			],
			"name": "rescueToken",
			"outputs": [],
			"stateMutability": "nonpayable",
			"type": "function"
		},
		{
			"inputs": [
				{
					"internalType": "address",
					"name": "router",
					"type": "address"
				},
				{
					"internalType": "bool",
					"name": "allowed",
					"type": "bool"
				}
			],
			"name": "setAllowedRouter",
			"outputs": [],
			"stateMutability": "nonpayable",
			"type": "function"
		},
		{
			"inputs": [
				{
					"internalType": "address",
					"name": "_recipient",
					"type": "address"
				},
				{
					"internalType": "uint16",
					"name": "_feeBps",
					"type": "uint16"
				}
			],
			"name": "setFeeConfig",
			"outputs": [],
			"stateMutability": "nonpayable",
			"type": "function"
		},
		{
			"inputs": [
				{
					"internalType": "uint256",
					"name": "amountIn",
					"type": "uint256"
				},
				{
					"internalType": "uint256",
					"name": "minOutTotal",
					"type": "uint256"
				},
				{
					"internalType": "address[]",
					"name": "routers",
					"type": "address[]"
				},
				{
					"internalType": "address[]",
					"name": "path",
					"type": "address[]"
				},
				{
					"internalType": "uint256",
					"name": "deadline",
					"type": "uint256"
				}
			],
			"name": "swapBest",
			"outputs": [
				{
					"internalType": "uint256",
					"name": "outToUser",
					"type": "uint256"
				}
			],
			"stateMutability": "nonpayable",
			"type": "function"
		},
		{
			"inputs": [
				{
					"internalType": "uint256",
					"name": "amountIn",
					"type": "uint256"
				},
				{
					"internalType": "uint256",
					"name": "minOutTotal",
					"type": "uint256"
				},
				{
					"internalType": "address[]",
					"name": "routers",
					"type": "address[]"
				},
				{
					"internalType": "address[]",
					"name": "path",
					"type": "address[]"
				},
				{
					"internalType": "uint256",
					"name": "deadline",
					"type": "uint256"
				},
				{
					"internalType": "bytes32",
					"name": "salt",
					"type": "bytes32"
				}
			],
			"name": "swapBestReveal",
			"outputs": [
				{
					"internalType": "uint256",
					"name": "outToUser",
					"type": "uint256"
				}
			],
			"stateMutability": "nonpayable",
			"type": "function"
		},
		{
			"inputs": [
				{
					"internalType": "address",
					"name": "newOwner",
					"type": "address"
				}
			],
			"name": "transferOwnership",
			"outputs": [],
			"stateMutability": "nonpayable",
			"type": "function"
		},
		{
			"inputs": [],
			"name": "unpause",
			"outputs": [],
			"stateMutability": "nonpayable",
			"type": "function"
		},
		{
			"stateMutability": "payable",
			"type": "receive"
		}
	]
}