{
	"data": {
		"bytecode": {
			"linkReferences": {},
			"object": "60a06040523073ffffffffffffffffffffffffffffffffffffffff1660809073ffffffffffffffffffffffffffffffffffffffff168152503480156041575f5ffd5b506080516133a36100685f395f81816118ae015281816119030152611abd01526133a35ff3fe60806040526004361061011e575f3560e01c80638da5cb5b1161009f578063bc063e1a11610063578063bc063e1a14610383578063c4d66de8146103ad578063ec979082146103d5578063f2fde38b146103ff578063fc0c546a146104275761011e565b80638da5cb5b1461029c578063a611f359146102c6578063ad3cb1cc146102ee578063ae169a5014610318578063b1283e77146103405761011e565b806352d1902d116100e657806352d1902d146101f45780635c975abb1461021e5780636399d03d14610248578063715018a6146102705780638456cb59146102865761011e565b8063155e4b82146101225780631a38cac61461015e578063354c6199146101865780633f4ba83a146101c25780634f1ef286146101d8575b5f5ffd5b34801561012d575f5ffd5b5061014860048036038101906101439190612552565b610451565b604051610155919061259f565b60405180910390f35b348015610169575f5ffd5b50610184600480360381019061017f91906125ed565b610471565b005b348015610191575f5ffd5b506101ac60048036038101906101a79190612552565b6107b5565b6040516101b9919061259f565b60405180910390f35b3480156101cd575f5ffd5b506101d66107d5565b005b6101f260048036038101906101ed9190612779565b6107e7565b005b3480156101ff575f5ffd5b50610208610806565b60405161021591906127eb565b60405180910390f35b348015610229575f5ffd5b50610232610837565b60405161023f9190612813565b60405180910390f35b348015610253575f5ffd5b5061026e6004803603810190610269919061282c565b61084c565b005b34801561027b575f5ffd5b50610284610a94565b005b348015610291575f5ffd5b5061029a610aa7565b005b3480156102a7575f5ffd5b506102b0610ab9565b6040516102bd9190612866565b60405180910390f35b3480156102d1575f5ffd5b506102ec60048036038101906102e79190612926565b610aee565b005b3480156102f9575f5ffd5b50610302610e22565b60405161030f91906129ea565b60405180910390f35b348015610323575f5ffd5b5061033e6004803603810190610339919061282c565b610e5b565b005b34801561034b575f5ffd5b506103666004803603810190610361919061282c565b611339565b60405161037a989796959493929190612ad4565b60405180910390f35b34801561038e575f5ffd5b5061039761140e565b6040516103a49190612b50565b60405180910390f35b3480156103b8575f5ffd5b506103d360048036038101906103ce9190612b69565b611413565b005b3480156103e0575f5ffd5b506103e96115ec565b6040516103f6919061259f565b60405180910390f35b34801561040a575f5ffd5b5061042560048036038101906104209190612b69565b6115f2565b005b348015610432575f5ffd5b5061043b611676565b6040516104489190612bef565b60405180910390f35b6068602052815f5260405f20602052805f5260405f205f91509150505481565b61047961169b565b6104816116e8565b5f60665f8581526020019081526020015f209050806001015f9054906101000a900467ffffffffffffffff1667ffffffffffffffff1642106104ef576040517f0b5f6bf000000000000000000000000000000000000000000000000000000000815260040160405180910390fd5b80600101600a9054906101000a900460ff1615610538576040517faa43cb2d00000000000000000000000000000000000000000000000000000000815260040160405180910390fd5b5f8203610571576040517f2c5211c600000000000000000000000000000000000000000000000000000000815260040160405180910390fd5b6105bf33308460645f9054906101000a900473ffffffffffffffffffffffffffffffffffffffff1673ffffffffffffffffffffffffffffffffffffffff16611732909392919063ffffffff16565b821561068f578160675f8681526020019081526020015f205f3373ffffffffffffffffffffffffffffffffffffffff1673ffffffffffffffffffffffffffffffffffffffff1681526020019081526020015f205f8282546106209190612c35565b9250508190555081815f015f8282829054906101000a90046fffffffffffffffffffffffffffffffff166106549190612c68565b92506101000a8154816fffffffffffffffffffffffffffffffff02191690836fffffffffffffffffffffffffffffffff160217905550610756565b8160685f8681526020019081526020015f205f3373ffffffffffffffffffffffffffffffffffffffff1673ffffffffffffffffffffffffffffffffffffffff1681526020019081526020015f205f8282546106ea9190612c35565b9250508190555081815f0160108282829054906101000a90046fffffffffffffffffffffffffffffffff1661071f9190612c68565b92506101000a8154816fffffffffffffffffffffffffffffffff02191690836fffffffffffffffffffffffffffffffff1602179055505b3373ffffffffffffffffffffffffffffffffffffffff16847f4af71b021e799c62c158bd54636ca8da2fa26115a21a2dc6efe486ec104fd15f858560405161079f929190612cab565b60405180910390a3506107b06117bb565b505050565b6067602052815f5260405f20602052805f5260405f205f91509150505481565b6107dd6117c4565b6107e561184b565b565b6107ef6118ac565b6107f882611992565b610802828261199d565b5050565b5f61080f611abb565b7f360894a13ba1a3210667c828492db98dca3e2076cc3735a920a3ca505d382bbc5f1b905090565b5f60325f9054906101000a900460ff16905090565b61085461169b565b5f60665f8381526020019081526020015f209050806001015f9054906101000a900467ffffffffffffffff1667ffffffffffffffff164210156108c3576040517f0b55ac7400000000000000000000000000000000000000000000000000000000815260040160405180910390fd5b80600101600a9054906101000a900460ff161561090c576040517faa43cb2d00000000000000000000000000000000000000000000000000000000815260040160405180910390fd5b5f81600101600c9054906101000a900473ffffffffffffffffffffffffffffffffffffffff1673ffffffffffffffffffffffffffffffffffffffff1663feaf968c6040518163ffffffff1660e01b815260040160a060405180830381865afa15801561097a573d5f5f3e3d5ffd5b505050506040513d601f19601f8201168201806040525081019061099e9190612d39565b505050915050600182600101600a6101000a81548160ff021916908315150217905550816002015481126109fe57600182600101600b6101000a81548160ff021916908360038111156109f4576109f3612a52565b5b0217905550610a2c565b600282600101600b6101000a81548160ff02191690836003811115610a2657610a25612a52565b5b02179055505b827f739f283563fb51ab6b89ee95d937b2e63a6cfcb83c385dbebb629f9d97bd43e683600101600b9054906101000a900460ff166003811115610a7257610a71612a52565b5b604051610a7f9190612dcb565b60405180910390a25050610a916117bb565b50565b610a9c6117c4565b610aa55f611b42565b565b610aaf6117c4565b610ab7611c13565b565b5f5f610ac3611c75565b9050805f015f9054906101000a900473ffffffffffffffffffffffffffffffffffffffff1691505090565b610af66117c4565b600a61ffff168361ffff161115610b39576040517fcd4e616700000000000000000000000000000000000000000000000000000000815260040160405180910390fd5b5f73ffffffffffffffffffffffffffffffffffffffff168273ffffffffffffffffffffffffffffffffffffffff1603610b9e576040517f9589a27d00000000000000000000000000000000000000000000000000000000815260040160405180910390fd5b6040518061010001604052805f6fffffffffffffffffffffffffffffffff1681526020015f6fffffffffffffffffffffffffffffffff1681526020018567ffffffffffffffff1642610bf09190612c35565b67ffffffffffffffff1681526020018461ffff1681526020015f151581526020015f6003811115610c2457610c23612a52565b5b81526020018373ffffffffffffffffffffffffffffffffffffffff1681526020018281525060665f60655481526020019081526020015f205f820151815f015f6101000a8154816fffffffffffffffffffffffffffffffff02191690836fffffffffffffffffffffffffffffffff1602179055506020820151815f0160106101000a8154816fffffffffffffffffffffffffffffffff02191690836fffffffffffffffffffffffffffffffff1602179055506040820151816001015f6101000a81548167ffffffffffffffff021916908367ffffffffffffffff16021790555060608201518160010160086101000a81548161ffff021916908361ffff160217905550608082015181600101600a6101000a81548160ff02191690831515021790555060a082015181600101600b6101000a81548160ff02191690836003811115610d7257610d71612a52565b5b021790555060c082015181600101600c6101000a81548173ffffffffffffffffffffffffffffffffffffffff021916908373ffffffffffffffffffffffffffffffffffffffff16021790555060e082015181600201559050506065547fb466446070e4bf49a6413e2bbfaf36e4ef8be12140dd09e3fa50af78e0941e6982604051610dfd9190612de4565b60405180910390a260655f815480929190610e1790612dfd565b919050555050505050565b6040518060400160405280600581526020017f352e302e3000000000000000000000000000000000000000000000000000000081525081565b610e6361169b565b5f60665f8381526020019081526020015f20905080600101600a9054906101000a900460ff16610ebf576040517f2e96c72600000000000000000000000000000000000000000000000000000000815260040160405180910390fd5b5f5f60016003811115610ed557610ed4612a52565b5b83600101600b9054906101000a900460ff166003811115610ef957610ef8612a52565b5b0361102e5760675f8581526020019081526020015f205f3373ffffffffffffffffffffffffffffffffffffffff1673ffffffffffffffffffffffffffffffffffffffff1681526020019081526020015f205491505f8203610f86576040517f618c724200000000000000000000000000000000000000000000000000000000815260040160405180910390fd5b825f015f9054906101000a90046fffffffffffffffffffffffffffffffff166fffffffffffffffffffffffffffffffff16835f0160109054906101000a90046fffffffffffffffffffffffffffffffff16845f015f9054906101000a90046fffffffffffffffffffffffffffffffff166110009190612c68565b6fffffffffffffffffffffffffffffffff168361101d9190612e44565b6110279190612eb2565b905061115b565b60685f8581526020019081526020015f205f3373ffffffffffffffffffffffffffffffffffffffff1673ffffffffffffffffffffffffffffffffffffffff1681526020019081526020015f205491505f82036110b6576040517f618c724200000000000000000000000000000000000000000000000000000000815260040160405180910390fd5b825f0160109054906101000a90046fffffffffffffffffffffffffffffffff166fffffffffffffffffffffffffffffffff16835f0160109054906101000a90046fffffffffffffffffffffffffffffffff16845f015f9054906101000a90046fffffffffffffffffffffffffffffffff166111319190612c68565b6fffffffffffffffffffffffffffffffff168361114e9190612e44565b6111589190612eb2565b90505b5f60648460010160089054906101000a900461ffff1661ffff16836111809190612e44565b61118a9190612eb2565b905080826111989190612ee2565b91505f60675f8781526020019081526020015f205f3373ffffffffffffffffffffffffffffffffffffffff1673ffffffffffffffffffffffffffffffffffffffff1681526020019081526020015f20819055505f60685f8781526020019081526020015f205f3373ffffffffffffffffffffffffffffffffffffffff1673ffffffffffffffffffffffffffffffffffffffff1681526020019081526020015f208190555061128f611247610ab9565b8260645f9054906101000a900473ffffffffffffffffffffffffffffffffffffffff1673ffffffffffffffffffffffffffffffffffffffff16611c9c9092919063ffffffff16565b6112db338360645f9054906101000a900473ffffffffffffffffffffffffffffffffffffffff1673ffffffffffffffffffffffffffffffffffffffff16611c9c9092919063ffffffff16565b3373ffffffffffffffffffffffffffffffffffffffff16857f24b5efa61dd1cfc659205a97fb8ed868f3cb8c81922bab2b96423e5de1de2cb784604051611322919061259f565b60405180910390a3505050506113366117bb565b50565b6066602052805f5260405f205f91509050805f015f9054906101000a90046fffffffffffffffffffffffffffffffff1690805f0160109054906101000a90046fffffffffffffffffffffffffffffffff1690806001015f9054906101000a900467ffffffffffffffff16908060010160089054906101000a900461ffff169080600101600a9054906101000a900460ff169080600101600b9054906101000a900460ff169080600101600c9054906101000a900473ffffffffffffffffffffffffffffffffffffffff16908060020154905088565b600a81565b5f61141c611d22565b90505f815f0160089054906101000a900460ff161590505f825f015f9054906101000a900467ffffffffffffffff1690505f5f8267ffffffffffffffff161480156114645750825b90505f60018367ffffffffffffffff1614801561149757505f3073ffffffffffffffffffffffffffffffffffffffff163b145b9050811580156114a5575080155b156114dc576040517ff92ee8a900000000000000000000000000000000000000000000000000000000815260040160405180910390fd5b6001855f015f6101000a81548167ffffffffffffffff021916908367ffffffffffffffff1602179055508315611529576001855f0160086101000a81548160ff0219169083151502179055505b61153233611d35565b61153a611d49565b611542611d5b565b61154a611d6d565b8560645f6101000a81548173ffffffffffffffffffffffffffffffffffffffff021916908373ffffffffffffffffffffffffffffffffffffffff16021790555083156115e4575f855f0160086101000a81548160ff0219169083151502179055507fc7f505b2f371ae2175ee4913f4499e1f2633a7b5936321eed1cdaeb6115181d260016040516115db9190612f4e565b60405180910390a15b505050505050565b60655481565b6115fa6117c4565b5f73ffffffffffffffffffffffffffffffffffffffff168173ffffffffffffffffffffffffffffffffffffffff160361166a575f6040517f1e4fbdf70000000000000000000000000000000000000000000000000000000081526004016116619190612866565b60405180910390fd5b61167381611b42565b50565b60645f9054906101000a900473ffffffffffffffffffffffffffffffffffffffff1681565b60025f54036116df576040517f08c379a00000000000000000000000000000000000000000000000000000000081526004016116d690612fb1565b60405180910390fd5b60025f81905550565b6116f0610837565b15611730576040517f08c379a000000000000000000000000000000000000000000000000000000000815260040161172790613019565b60405180910390fd5b565b6117b5846323b872dd60e01b85858560405160240161175393929190613037565b604051602081830303815290604052907bffffffffffffffffffffffffffffffffffffffffffffffffffffffff19166020820180517bffffffffffffffffffffffffffffffffffffffffffffffffffffffff8381831617835250505050611d77565b50505050565b60015f81905550565b6117cc611e3d565b73ffffffffffffffffffffffffffffffffffffffff166117ea610ab9565b73ffffffffffffffffffffffffffffffffffffffff16146118495761180d611e3d565b6040517f118cdaa70000000000000000000000000000000000000000000000000000000081526004016118409190612866565b60405180910390fd5b565b611853611e44565b5f60325f6101000a81548160ff0219169083151502179055507f5db9ee0a495bf2e6ff9c91a7834c1ba4fdd244a5e8aa4e537bd38aeae4b073aa611895611e3d565b6040516118a29190612866565b60405180910390a1565b7f000000000000000000000000000000000000000000000000000000000000000073ffffffffffffffffffffffffffffffffffffffff163073ffffffffffffffffffffffffffffffffffffffff16148061195957507f000000000000000000000000000000000000000000000000000000000000000073ffffffffffffffffffffffffffffffffffffffff16611940611e8d565b73ffffffffffffffffffffffffffffffffffffffff1614155b15611990576040517fe07c8dba00000000000000000000000000000000000000000000000000000000815260040160405180910390fd5b565b61199a6117c4565b50565b8173ffffffffffffffffffffffffffffffffffffffff166352d1902d6040518163ffffffff1660e01b8152600401602060405180830381865afa925050508015611a0557506040513d601f19601f82011682018060405250810190611a029190613096565b60015b611a4657816040517f4c9c8ce3000000000000000000000000000000000000000000000000000000008152600401611a3d9190612866565b60405180910390fd5b7f360894a13ba1a3210667c828492db98dca3e2076cc3735a920a3ca505d382bbc5f1b8114611aac57806040517faa1d49a4000000000000000000000000000000000000000000000000000000008152600401611aa391906127eb565b60405180910390fd5b611ab68383611ee0565b505050565b7f000000000000000000000000000000000000000000000000000000000000000073ffffffffffffffffffffffffffffffffffffffff163073ffffffffffffffffffffffffffffffffffffffff1614611b40576040517fe07c8dba00000000000000000000000000000000000000000000000000000000815260040160405180910390fd5b565b5f611b4b611c75565b90505f815f015f9054906101000a900473ffffffffffffffffffffffffffffffffffffffff16905082825f015f6101000a81548173ffffffffffffffffffffffffffffffffffffffff021916908373ffffffffffffffffffffffffffffffffffffffff1602179055508273ffffffffffffffffffffffffffffffffffffffff168173ffffffffffffffffffffffffffffffffffffffff167f8be0079c531659141344cd1fd0a4f28419497f9722a3daafe3b4186f6b6457e060405160405180910390a3505050565b611c1b6116e8565b600160325f6101000a81548160ff0219169083151502179055507f62e78cea01bee320cd4e420270b5ea74000d11b0c9f74754ebdbfc544b05a258611c5e611e3d565b604051611c6b9190612866565b60405180910390a1565b5f7f9016d09d72d40fdae2fd8ceac6b6234c7706214fd39c1cd1e609a0528c199300905090565b611d1d8363a9059cbb60e01b8484604051602401611cbb9291906130c1565b604051602081830303815290604052907bffffffffffffffffffffffffffffffffffffffffffffffffffffffff19166020820180517bffffffffffffffffffffffffffffffffffffffffffffffffffffffff8381831617835250505050611d77565b505050565b5f5f611d2c611f52565b90508091505090565b611d3d611f7b565b611d4681611fbb565b50565b611d51611f7b565b611d5961203f565b565b611d63611f7b565b611d6b612050565b565b611d75611f7b565b565b5f611dd8826040518060400160405280602081526020017f5361666545524332303a206c6f772d6c6576656c2063616c6c206661696c65648152508573ffffffffffffffffffffffffffffffffffffffff166120739092919063ffffffff16565b90505f81511480611df9575080806020019051810190611df891906130fc565b5b611e38576040517f08c379a0000000000000000000000000000000000000000000000000000000008152600401611e2f90613197565b60405180910390fd5b505050565b5f33905090565b611e4c610837565b611e8b576040517f08c379a0000000000000000000000000000000000000000000000000000000008152600401611e82906131ff565b60405180910390fd5b565b5f611eb97f360894a13ba1a3210667c828492db98dca3e2076cc3735a920a3ca505d382bbc5f1b61208a565b5f015f9054906101000a900473ffffffffffffffffffffffffffffffffffffffff16905090565b611ee982612093565b8173ffffffffffffffffffffffffffffffffffffffff167fbc7cd75a20ee27fd9adebab32041f755214dbc6bffa90cc0225b39da2e5c2d3b60405160405180910390a25f81511115611f4557611f3f828261215c565b50611f4e565b611f4d6121dc565b5b5050565b5f7ff0c57e16840df040f15088dc2f81fe391c3923bec73e23a9662efc9c229c6a005f1b905090565b611f83612218565b611fb9576040517fd7e6bcf800000000000000000000000000000000000000000000000000000000815260040160405180910390fd5b565b611fc3611f7b565b5f73ffffffffffffffffffffffffffffffffffffffff168173ffffffffffffffffffffffffffffffffffffffff1603612033575f6040517f1e4fbdf700000000000000000000000000000000000000000000000000000000815260040161202a9190612866565b60405180910390fd5b61203c81611b42565b50565b612047611f7b565b60015f81905550565b612058611f7b565b5f60325f6101000a81548160ff021916908315150217905550565b606061208184845f85612236565b90509392505050565b5f819050919050565b5f8173ffffffffffffffffffffffffffffffffffffffff163b036120ee57806040517f4c9c8ce30000000000000000000000000000000000000000000000000000000081526004016120e59190612866565b60405180910390fd5b8061211a7f360894a13ba1a3210667c828492db98dca3e2076cc3735a920a3ca505d382bbc5f1b61208a565b5f015f6101000a81548173ffffffffffffffffffffffffffffffffffffffff021916908373ffffffffffffffffffffffffffffffffffffffff16021790555050565b60605f5f8473ffffffffffffffffffffffffffffffffffffffff16846040516121859190613261565b5f60405180830381855af49150503d805f81146121bd576040519150601f19603f3d011682016040523d82523d5f602084013e6121c2565b606091505b50915091506121d28583836122ff565b9250505092915050565b5f341115612216576040517fb398979f00000000000000000000000000000000000000000000000000000000815260040160405180910390fd5b565b5f612221611d22565b5f0160089054906101000a900460ff16905090565b60608247101561227b576040517f08c379a0000000000000000000000000000000000000000000000000000000008152600401612272906132e7565b60405180910390fd5b5f5f8673ffffffffffffffffffffffffffffffffffffffff1685876040516122a39190613261565b5f6040518083038185875af1925050503d805f81146122dd576040519150601f19603f3d011682016040523d82523d5f602084013e6122e2565b606091505b50915091506122f38783838761238c565b92505050949350505050565b6060826123145761230f82612400565b612384565b5f825114801561233a57505f8473ffffffffffffffffffffffffffffffffffffffff163b145b1561237c57836040517f9996b3150000000000000000000000000000000000000000000000000000000081526004016123739190612866565b60405180910390fd5b819050612385565b5b9392505050565b606083156123ed575f8351036123e5576123a585612443565b6123e4576040517f08c379a00000000000000000000000000000000000000000000000000000000081526004016123db9061334f565b60405180910390fd5b5b8290506123f8565b6123f78383612465565b5b949350505050565b5f8151111561241157805160208201fd5b6040517fd6bda27500000000000000000000000000000000000000000000000000000000815260040160405180910390fd5b5f5f8273ffffffffffffffffffffffffffffffffffffffff163b119050919050565b5f825111156124775781518083602001fd5b806040517f08c379a00000000000000000000000000000000000000000000000000000000081526004016124ab91906129ea565b60405180910390fd5b5f604051905090565b5f5ffd5b5f5ffd5b5f819050919050565b6124d7816124c5565b81146124e1575f5ffd5b50565b5f813590506124f2816124ce565b92915050565b5f73ffffffffffffffffffffffffffffffffffffffff82169050919050565b5f612521826124f8565b9050919050565b61253181612517565b811461253b575f5ffd5b50565b5f8135905061254c81612528565b92915050565b5f5f60408385031215612568576125676124bd565b5b5f612575858286016124e4565b92505060206125868582860161253e565b9150509250929050565b612599816124c5565b82525050565b5f6020820190506125b25f830184612590565b92915050565b5f8115159050919050565b6125cc816125b8565b81146125d6575f5ffd5b50565b5f813590506125e7816125c3565b92915050565b5f5f5f60608486031215612604576126036124bd565b5b5f612611868287016124e4565b9350506020612622868287016125d9565b9250506040612633868287016124e4565b9150509250925092565b5f5ffd5b5f5ffd5b5f601f19601f8301169050919050565b7f4e487b71000000000000000000000000000000000000000000000000000000005f52604160045260245ffd5b61268b82612645565b810181811067ffffffffffffffff821117156126aa576126a9612655565b5b80604052505050565b5f6126bc6124b4565b90506126c88282612682565b919050565b5f67ffffffffffffffff8211156126e7576126e6612655565b5b6126f082612645565b9050602081019050919050565b828183375f83830152505050565b5f61271d612718846126cd565b6126b3565b90508281526020810184848401111561273957612738612641565b5b6127448482856126fd565b509392505050565b5f82601f8301126127605761275f61263d565b5b813561277084826020860161270b565b91505092915050565b5f5f6040838503121561278f5761278e6124bd565b5b5f61279c8582860161253e565b925050602083013567ffffffffffffffff8111156127bd576127bc6124c1565b5b6127c98582860161274c565b9150509250929050565b5f819050919050565b6127e5816127d3565b82525050565b5f6020820190506127fe5f8301846127dc565b92915050565b61280d816125b8565b82525050565b5f6020820190506128265f830184612804565b92915050565b5f60208284031215612841576128406124bd565b5b5f61284e848285016124e4565b91505092915050565b61286081612517565b82525050565b5f6020820190506128795f830184612857565b92915050565b5f67ffffffffffffffff82169050919050565b61289b8161287f565b81146128a5575f5ffd5b50565b5f813590506128b681612892565b92915050565b5f61ffff82169050919050565b6128d2816128bc565b81146128dc575f5ffd5b50565b5f813590506128ed816128c9565b92915050565b5f819050919050565b612905816128f3565b811461290f575f5ffd5b50565b5f81359050612920816128fc565b92915050565b5f5f5f5f6080858703121561293e5761293d6124bd565b5b5f61294b878288016128a8565b945050602061295c878288016128df565b935050604061296d8782880161253e565b925050606061297e87828801612912565b91505092959194509250565b5f81519050919050565b5f82825260208201905092915050565b8281835e5f83830152505050565b5f6129bc8261298a565b6129c68185612994565b93506129d68185602086016129a4565b6129df81612645565b840191505092915050565b5f6020820190508181035f830152612a0281846129b2565b905092915050565b5f6fffffffffffffffffffffffffffffffff82169050919050565b612a2e81612a0a565b82525050565b612a3d8161287f565b82525050565b612a4c816128bc565b82525050565b7f4e487b71000000000000000000000000000000000000000000000000000000005f52602160045260245ffd5b60048110612a9057612a8f612a52565b5b50565b5f819050612aa082612a7f565b919050565b5f612aaf82612a93565b9050919050565b612abf81612aa5565b82525050565b612ace816128f3565b82525050565b5f61010082019050612ae85f83018b612a25565b612af5602083018a612a25565b612b026040830189612a34565b612b0f6060830188612a43565b612b1c6080830187612804565b612b2960a0830186612ab6565b612b3660c0830185612857565b612b4360e0830184612ac5565b9998505050505050505050565b5f602082019050612b635f830184612a43565b92915050565b5f60208284031215612b7e57612b7d6124bd565b5b5f612b8b8482850161253e565b91505092915050565b5f819050919050565b5f612bb7612bb2612bad846124f8565b612b94565b6124f8565b9050919050565b5f612bc882612b9d565b9050919050565b5f612bd982612bbe565b9050919050565b612be981612bcf565b82525050565b5f602082019050612c025f830184612be0565b92915050565b7f4e487b71000000000000000000000000000000000000000000000000000000005f52601160045260245ffd5b5f612c3f826124c5565b9150612c4a836124c5565b9250828201905080821115612c6257612c61612c08565b5b92915050565b5f612c7282612a0a565b9150612c7d83612a0a565b925082820190506fffffffffffffffffffffffffffffffff811115612ca557612ca4612c08565b5b92915050565b5f604082019050612cbe5f830185612804565b612ccb6020830184612590565b9392505050565b5f69ffffffffffffffffffff82169050919050565b612cf081612cd2565b8114612cfa575f5ffd5b50565b5f81519050612d0b81612ce7565b92915050565b5f81519050612d1f816128fc565b92915050565b5f81519050612d33816124ce565b92915050565b5f5f5f5f5f60a08688031215612d5257612d516124bd565b5b5f612d5f88828901612cfd565b9550506020612d7088828901612d11565b9450506040612d8188828901612d25565b9350506060612d9288828901612d25565b9250506080612da388828901612cfd565b9150509295509295909350565b5f60ff82169050919050565b612dc581612db0565b82525050565b5f602082019050612dde5f830184612dbc565b92915050565b5f602082019050612df75f830184612ac5565b92915050565b5f612e07826124c5565b91507fffffffffffffffffffffffffffffffffffffffffffffffffffffffffffffffff8203612e3957612e38612c08565b5b600182019050919050565b5f612e4e826124c5565b9150612e59836124c5565b9250828202612e67816124c5565b91508282048414831517612e7e57612e7d612c08565b5b5092915050565b7f4e487b71000000000000000000000000000000000000000000000000000000005f52601260045260245ffd5b5f612ebc826124c5565b9150612ec7836124c5565b925082612ed757612ed6612e85565b5b828204905092915050565b5f612eec826124c5565b9150612ef7836124c5565b9250828203905081811115612f0f57612f0e612c08565b5b92915050565b5f819050919050565b5f612f38612f33612f2e84612f15565b612b94565b61287f565b9050919050565b612f4881612f1e565b82525050565b5f602082019050612f615f830184612f3f565b92915050565b7f5265656e7472616e637947756172643a207265656e7472616e742063616c6c005f82015250565b5f612f9b601f83612994565b9150612fa682612f67565b602082019050919050565b5f6020820190508181035f830152612fc881612f8f565b9050919050565b7f5061757361626c653a20706175736564000000000000000000000000000000005f82015250565b5f613003601083612994565b915061300e82612fcf565b602082019050919050565b5f6020820190508181035f83015261303081612ff7565b9050919050565b5f60608201905061304a5f830186612857565b6130576020830185612857565b6130646040830184612590565b949350505050565b613075816127d3565b811461307f575f5ffd5b50565b5f815190506130908161306c565b92915050565b5f602082840312156130ab576130aa6124bd565b5b5f6130b884828501613082565b91505092915050565b5f6040820190506130d45f830185612857565b6130e16020830184612590565b9392505050565b5f815190506130f6816125c3565b92915050565b5f60208284031215613111576131106124bd565b5b5f61311e848285016130e8565b91505092915050565b7f5361666545524332303a204552433230206f7065726174696f6e20646964206e5f8201527f6f74207375636365656400000000000000000000000000000000000000000000602082015250565b5f613181602a83612994565b915061318c82613127565b604082019050919050565b5f6020820190508181035f8301526131ae81613175565b9050919050565b7f5061757361626c653a206e6f74207061757365640000000000000000000000005f82015250565b5f6131e9601483612994565b91506131f4826131b5565b602082019050919050565b5f6020820190508181035f830152613216816131dd565b9050919050565b5f81519050919050565b5f81905092915050565b5f61323b8261321d565b6132458185613227565b93506132558185602086016129a4565b80840191505092915050565b5f61326c8284613231565b915081905092915050565b7f416464726573733a20696e73756666696369656e742062616c616e636520666f5f8201527f722063616c6c0000000000000000000000000000000000000000000000000000602082015250565b5f6132d1602683612994565b91506132dc82613277565b604082019050919050565b5f6020820190508181035f8301526132fe816132c5565b9050919050565b7f416464726573733a2063616c6c20746f206e6f6e2d636f6e74726163740000005f82015250565b5f613339601d83612994565b915061334482613305565b602082019050919050565b5f6020820190508181035f8301526133668161332d565b905091905056fea2646970667358221220d3f95bf10efbe9bb811d252bfe9f0a55fa3b8c0f507a6a2332ce068a92e65ebd64736f6c634300081e0033",
			"opcodes": "PUSH1 0xA0 PUSH1 0x40 MSTORE ADDRESS PUSH20 0xFFFFFFFFFFFFFFFFFFFFFFFFFFFFFFFFFFFFFFFF AND PUSH1 0x80 SWAP1 PUSH20 0xFFFFFFFFFFFFFFFFFFFFFFFFFFFFFFFFFFFFFFFF AND DUP2 MSTORE POP CALLVALUE DUP1 ISZERO PUSH1 0x41 JUMPI PUSH0 PUSH0 REVERT JUMPDEST POP PUSH1 0x80 MLOAD PUSH2 0x33A3 PUSH2 0x68 PUSH0 CODECOPY PUSH0 DUP2 DUP2 PUSH2 0x18AE ADD MSTORE DUP2 DUP2 PUSH2 0x1903 ADD MSTORE PUSH2 0x1ABD ADD MSTORE PUSH2 0x33A3 PUSH0 RETURN INVALID PUSH1 0x80 PUSH1 0x40 MSTORE PUSH1 0x4 CALLDATASIZE LT PUSH2 0x11E JUMPI PUSH0 CALLDATALOAD PUSH1 0xE0 SHR DUP1 PUSH4 0x8DA5CB5B GT PUSH2 0x9F JUMPI DUP1 PUSH4 0xBC063E1A GT PUSH2 0x63 JUMPI DUP1 PUSH4 0xBC063E1A EQ PUSH2 0x383 JUMPI DUP1 PUSH4 0xC4D66DE8 EQ PUSH2 0x3AD JUMPI DUP1 PUSH4 0xEC979082 EQ PUSH2 0x3D5 JUMPI DUP1 PUSH4 0xF2FDE38B EQ PUSH2 0x3FF JUMPI DUP1 PUSH4 0xFC0C546A EQ PUSH2 0x427 JUMPI PUSH2 0x11E JUMP JUMPDEST DUP1 PUSH4 0x8DA5CB5B EQ PUSH2 0x29C JUMPI DUP1 PUSH4 0xA611F359 EQ PUSH2 0x2C6 JUMPI DUP1 PUSH4 0xAD3CB1CC EQ PUSH2 0x2EE JUMPI DUP1 PUSH4 0xAE169A50 EQ PUSH2 0x318 JUMPI DUP1 PUSH4 0xB1283E77 EQ PUSH2 0x340 JUMPI PUSH2 0x11E JUMP JUMPDEST DUP1 PUSH4 0x52D1902D GT PUSH2 0xE6 JUMPI DUP1 PUSH4 0x52D1902D EQ PUSH2 0x1F4 JUMPI DUP1 PUSH4 0x5C975ABB EQ PUSH2 0x21E JUMPI DUP1 PUSH4 0x6399D03D EQ PUSH2 0x248 JUMPI DUP1 PUSH4 0x715018A6 EQ PUSH2 0x270 JUMPI DUP1 PUSH4 0x8456CB59 EQ PUSH2 0x286 JUMPI PUSH2 0x11E JUMP JUMPDEST DUP1 PUSH4 0x155E4B82 EQ PUSH2 0x122 JUMPI DUP1 PUSH4 0x1A38CAC6 EQ PUSH2 0x15E JUMPI DUP1 PUSH4 0x354C6199 EQ PUSH2 0x186 JUMPI DUP1 PUSH4 0x3F4BA83A EQ PUSH2 0x1C2 JUMPI DUP1 PUSH4 0x4F1EF286 EQ PUSH2 0x1D8 JUMPI JUMPDEST PUSH0 PUSH0 REVERT JUMPDEST CALLVALUE DUP1 ISZERO PUSH2 0x12D JUMPI PUSH0 PUSH0 REVERT JUMPDEST POP PUSH2 0x148 PUSH1 0x4 DUP1 CALLDATASIZE SUB DUP2 ADD SWAP1 PUSH2 0x143 SWAP2 SWAP1 PUSH2 0x2552 JUMP JUMPDEST PUSH2 0x451 JUMP JUMPDEST PUSH1 0x40 MLOAD PUSH2 0x155 SWAP2 SWAP1 PUSH2 0x259F JUMP JUMPDEST PUSH1 0x40 MLOAD DUP1 SWAP2 SUB SWAP1 RETURN JUMPDEST CALLVALUE DUP1 ISZERO PUSH2 0x169 JUMPI PUSH0 PUSH0 REVERT JUMPDEST POP PUSH2 0x184 PUSH1 0x4 DUP1 CALLDATASIZE SUB DUP2 ADD SWAP1 PUSH2 0x17F SWAP2 SWAP1 PUSH2 0x25ED JUMP JUMPDEST PUSH2 0x471 JUMP JUMPDEST STOP JUMPDEST CALLVALUE DUP1 ISZERO PUSH2 0x191 JUMPI PUSH0 PUSH0 REVERT JUMPDEST POP PUSH2 0x1AC PUSH1 0x4 DUP1 CALLDATASIZE SUB DUP2 ADD SWAP1 PUSH2 0x1A7 SWAP2 SWAP1 PUSH2 0x2552 JUMP JUMPDEST PUSH2 0x7B5 JUMP JUMPDEST PUSH1 0x40 MLOAD PUSH2 0x1B9 SWAP2 SWAP1 PUSH2 0x259F JUMP JUMPDEST PUSH1 0x40 MLOAD DUP1 SWAP2 SUB SWAP1 RETURN JUMPDEST CALLVALUE DUP1 ISZERO PUSH2 0x1CD JUMPI PUSH0 PUSH0 REVERT JUMPDEST POP PUSH2 0x1D6 PUSH2 0x7D5 JUMP JUMPDEST STOP JUMPDEST PUSH2 0x1F2 PUSH1 0x4 DUP1 CALLDATASIZE SUB DUP2 ADD SWAP1 PUSH2 0x1ED SWAP2 SWAP1 PUSH2 0x2779 JUMP JUMPDEST PUSH2 0x7E7 JUMP JUMPDEST STOP JUMPDEST CALLVALUE DUP1 ISZERO PUSH2 0x1FF JUMPI PUSH0 PUSH0 REVERT JUMPDEST POP PUSH2 0x208 PUSH2 0x806 JUMP JUMPDEST PUSH1 0x40 MLOAD PUSH2 0x215 SWAP2 SWAP1 PUSH2 0x27EB JUMP JUMPDEST PUSH1 0x40 MLOAD DUP1 SWAP2 SUB SWAP1 RETURN JUMPDEST CALLVALUE DUP1 ISZERO PUSH2 0x229 JUMPI PUSH0 PUSH0 REVERT JUMPDEST POP PUSH2 0x232 PUSH2 0x837 JUMP JUMPDEST PUSH1 0x40 MLOAD PUSH2 0x23F SWAP2 SWAP1 PUSH2 0x2813 JUMP JUMPDEST PUSH1 0x40 MLOAD DUP1 SWAP2 SUB SWAP1 RETURN JUMPDEST CALLVALUE DUP1 ISZERO PUSH2 0x253 JUMPI PUSH0 PUSH0 REVERT JUMPDEST POP PUSH2 0x26E PUSH1 0x4 DUP1 CALLDATASIZE SUB DUP2 ADD SWAP1 PUSH2 0x269 SWAP2 SWAP1 PUSH2 0x282C JUMP JUMPDEST PUSH2 0x84C JUMP JUMPDEST STOP JUMPDEST CALLVALUE DUP1 ISZERO PUSH2 0x27B JUMPI PUSH0 PUSH0 REVERT JUMPDEST POP PUSH2 0x284 PUSH2 0xA94 JUMP JUMPDEST STOP JUMPDEST CALLVALUE DUP1 ISZERO PUSH2 0x291 JUMPI PUSH0 PUSH0 REVERT JUMPDEST POP PUSH2 0x29A PUSH2 0xAA7 JUMP JUMPDEST STOP JUMPDEST CALLVALUE DUP1 ISZERO PUSH2 0x2A7 JUMPI PUSH0 PUSH0 REVERT JUMPDEST POP PUSH2 0x2B0 PUSH2 0xAB9 JUMP JUMPDEST PUSH1 0x40 MLOAD PUSH2 0x2BD SWAP2 SWAP1 PUSH2 0x2866 JUMP JUMPDEST PUSH1 0x40 MLOAD DUP1 SWAP2 SUB SWAP1 RETURN JUMPDEST CALLVALUE DUP1 ISZERO PUSH2 0x2D1 JUMPI PUSH0 PUSH0 REVERT JUMPDEST POP PUSH2 0x2EC PUSH1 0x4 DUP1 CALLDATASIZE SUB DUP2 ADD SWAP1 PUSH2 0x2E7 SWAP2 SWAP1 PUSH2 0x2926 JUMP JUMPDEST PUSH2 0xAEE JUMP JUMPDEST STOP JUMPDEST CALLVALUE DUP1 ISZERO PUSH2 0x2F9 JUMPI PUSH0 PUSH0 REVERT JUMPDEST POP PUSH2 0x302 PUSH2 0xE22 JUMP JUMPDEST PUSH1 0x40 MLOAD PUSH2 0x30F SWAP2 SWAP1 PUSH2 0x29EA JUMP JUMPDEST PUSH1 0x40 MLOAD DUP1 SWAP2 SUB SWAP1 RETURN JUMPDEST CALLVALUE DUP1 ISZERO PUSH2 0x323 JUMPI PUSH0 PUSH0 REVERT JUMPDEST POP PUSH2 0x33E PUSH1 0x4 DUP1 CALLDATASIZE SUB DUP2 ADD SWAP1 PUSH2 0x339 SWAP2 SWAP1 PUSH2 0x282C JUMP JUMPDEST PUSH2 0xE5B JUMP JUMPDEST STOP JUMPDEST CALLVALUE DUP1 ISZERO PUSH2 0x34B JUMPI PUSH0 PUSH0 REVERT JUMPDEST POP PUSH2 0x366 PUSH1 0x4 DUP1 CALLDATASIZE SUB DUP2 ADD SWAP1 PUSH2 0x361 SWAP2 SWAP1 PUSH2 0x282C JUMP JUMPDEST PUSH2 0x1339 JUMP JUMPDEST PUSH1 0x40 MLOAD PUSH2 0x37A SWAP9 SWAP8 SWAP7 SWAP6 SWAP5 SWAP4 SWAP3 SWAP2 SWAP1 PUSH2 0x2AD4 JUMP JUMPDEST PUSH1 0x40 MLOAD DUP1 SWAP2 SUB SWAP1 RETURN JUMPDEST CALLVALUE DUP1 ISZERO PUSH2 0x38E JUMPI PUSH0 PUSH0 REVERT JUMPDEST POP PUSH2 0x397 PUSH2 0x140E JUMP JUMPDEST PUSH1 0x40 MLOAD PUSH2 0x3A4 SWAP2 SWAP1 PUSH2 0x2B50 JUMP JUMPDEST PUSH1 0x40 MLOAD DUP1 SWAP2 SUB SWAP1 RETURN JUMPDEST CALLVALUE DUP1 ISZERO PUSH2 0x3B8 JUMPI PUSH0 PUSH0 REVERT JUMPDEST POP PUSH2 0x3D3 PUSH1 0x4 DUP1 CALLDATASIZE SUB DUP2 ADD SWAP1 PUSH2 0x3CE SWAP2 SWAP1 PUSH2 0x2B69 JUMP JUMPDEST PUSH2 0x1413 JUMP JUMPDEST STOP JUMPDEST CALLVALUE DUP1 ISZERO PUSH2 0x3E0 JUMPI PUSH0 PUSH0 REVERT JUMPDEST POP PUSH2 0x3E9 PUSH2 0x15EC JUMP JUMPDEST PUSH1 0x40 MLOAD PUSH2 0x3F6 SWAP2 SWAP1 PUSH2 0x259F JUMP JUMPDEST PUSH1 0x40 MLOAD DUP1 SWAP2 SUB SWAP1 RETURN JUMPDEST CALLVALUE DUP1 ISZERO PUSH2 0x40A JUMPI PUSH0 PUSH0 REVERT JUMPDEST POP PUSH2 0x425 PUSH1 0x4 DUP1 CALLDATASIZE SUB DUP2 ADD SWAP1 PUSH2 0x420 SWAP2 SWAP1 PUSH2 0x2B69 JUMP JUMPDEST PUSH2 0x15F2 JUMP JUMPDEST STOP JUMPDEST CALLVALUE DUP1 ISZERO PUSH2 0x432 JUMPI PUSH0 PUSH0 REVERT JUMPDEST POP PUSH2 0x43B PUSH2 0x1676 JUMP JUMPDEST PUSH1 0x40 MLOAD PUSH2 0x448 SWAP2 SWAP1 PUSH2 0x2BEF JUMP JUMPDEST PUSH1 0x40 MLOAD DUP1 SWAP2 SUB SWAP1 RETURN JUMPDEST PUSH1 0x68 PUSH1 0x20 MSTORE DUP2 PUSH0 MSTORE PUSH1 0x40 PUSH0 KECCAK256 PUSH1 0x20 MSTORE DUP1 PUSH0 MSTORE PUSH1 0x40 PUSH0 KECCAK256 PUSH0 SWAP2 POP SWAP2 POP POP SLOAD DUP2 JUMP JUMPDEST PUSH2 0x479 PUSH2 0x169B JUMP JUMPDEST PUSH2 0x481 PUSH2 0x16E8 JUMP JUMPDEST PUSH0 PUSH1 0x66 PUSH0 DUP6 DUP2 MSTORE PUSH1 0x20 ADD SWAP1 DUP2 MSTORE PUSH1 0x20 ADD PUSH0 KECCAK256 SWAP1 POP DUP1 PUSH1 0x1 ADD PUSH0 SWAP1 SLOAD SWAP1 PUSH2 0x100 EXP SWAP1 DIV PUSH8 0xFFFFFFFFFFFFFFFF AND PUSH8 0xFFFFFFFFFFFFFFFF AND TIMESTAMP LT PUSH2 0x4EF JUMPI PUSH1 0x40 MLOAD PUSH32 0xB5F6BF000000000000000000000000000000000000000000000000000000000 DUP2 MSTORE PUSH1 0x4 ADD PUSH1 0x40 MLOAD DUP1 SWAP2 SUB SWAP1 REVERT JUMPDEST DUP1 PUSH1 0x1 ADD PUSH1 0xA SWAP1 SLOAD SWAP1 PUSH2 0x100 EXP SWAP1 DIV PUSH1 0xFF AND ISZERO PUSH2 0x538 JUMPI PUSH1 0x40 MLOAD PUSH32 0xAA43CB2D00000000000000000000000000000000000000000000000000000000 DUP2 MSTORE PUSH1 0x4 ADD PUSH1 0x40 MLOAD DUP1 SWAP2 SUB SWAP1 REVERT JUMPDEST PUSH0 DUP3 SUB PUSH2 0x571 JUMPI PUSH1 0x40 MLOAD PUSH32 0x2C5211C600000000000000000000000000000000000000000000000000000000 DUP2 MSTORE PUSH1 0x4 ADD PUSH1 0x40 MLOAD DUP1 SWAP2 SUB SWAP1 REVERT JUMPDEST PUSH2 0x5BF CALLER ADDRESS DUP5 PUSH1 0x64 PUSH0 SWAP1 SLOAD SWAP1 PUSH2 0x100 EXP SWAP1 DIV PUSH20 0xFFFFFFFFFFFFFFFFFFFFFFFFFFFFFFFFFFFFFFFF AND PUSH20 0xFFFFFFFFFFFFFFFFFFFFFFFFFFFFFFFFFFFFFFFF AND PUSH2 0x1732 SWAP1 SWAP4 SWAP3 SWAP2 SWAP1 PUSH4 0xFFFFFFFF AND JUMP JUMPDEST DUP3 ISZERO PUSH2 0x68F JUMPI DUP2 PUSH1 0x67 PUSH0 DUP7 DUP2 MSTORE PUSH1 0x20 ADD SWAP1 DUP2 MSTORE PUSH1 0x20 ADD PUSH0 KECCAK256 PUSH0 CALLER PUSH20 0xFFFFFFFFFFFFFFFFFFFFFFFFFFFFFFFFFFFFFFFF AND PUSH20 0xFFFFFFFFFFFFFFFFFFFFFFFFFFFFFFFFFFFFFFFF AND DUP2 MSTORE PUSH1 0x20 ADD SWAP1 DUP2 MSTORE PUSH1 0x20 ADD PUSH0 KECCAK256 PUSH0 DUP3 DUP3 SLOAD PUSH2 0x620 SWAP2 SWAP1 PUSH2 0x2C35 JUMP JUMPDEST SWAP3 POP POP DUP2 SWAP1 SSTORE POP DUP2 DUP2 PUSH0 ADD PUSH0 DUP3 DUP3 DUP3 SWAP1 SLOAD SWAP1 PUSH2 0x100 EXP SWAP1 DIV PUSH16 0xFFFFFFFFFFFFFFFFFFFFFFFFFFFFFFFF AND PUSH2 0x654 SWAP2 SWAP1 PUSH2 0x2C68 JUMP JUMPDEST SWAP3 POP PUSH2 0x100 EXP DUP2 SLOAD DUP2 PUSH16 0xFFFFFFFFFFFFFFFFFFFFFFFFFFFFFFFF MUL NOT AND SWAP1 DUP4 PUSH16 0xFFFFFFFFFFFFFFFFFFFFFFFFFFFFFFFF AND MUL OR SWAP1 SSTORE POP PUSH2 0x756 JUMP JUMPDEST DUP2 PUSH1 0x68 PUSH0 DUP7 DUP2 MSTORE PUSH1 0x20 ADD SWAP1 DUP2 MSTORE PUSH1 0x20 ADD PUSH0 KECCAK256 PUSH0 CALLER PUSH20 0xFFFFFFFFFFFFFFFFFFFFFFFFFFFFFFFFFFFFFFFF AND PUSH20 0xFFFFFFFFFFFFFFFFFFFFFFFFFFFFFFFFFFFFFFFF AND DUP2 MSTORE PUSH1 0x20 ADD SWAP1 DUP2 MSTORE PUSH1 0x20 ADD PUSH0 KECCAK256 PUSH0 DUP3 DUP3 SLOAD PUSH2 0x6EA SWAP2 SWAP1 PUSH2 0x2C35 JUMP JUMPDEST SWAP3 POP POP DUP2 SWAP1 SSTORE POP DUP2 DUP2 PUSH0 ADD PUSH1 0x10 DUP3 DUP3 DUP3 SWAP1 SLOAD SWAP1 PUSH2 0x100 EXP SWAP1 DIV PUSH16 0xFFFFFFFFFFFFFFFFFFFFFFFFFFFFFFFF AND PUSH2 0x71F SWAP2 SWAP1 PUSH2 0x2C68 JUMP JUMPDEST SWAP3 POP PUSH2 0x100 EXP DUP2 SLOAD DUP2 PUSH16 0xFFFFFFFFFFFFFFFFFFFFFFFFFFFFFFFF MUL NOT AND SWAP1 DUP4 PUSH16 0xFFFFFFFFFFFFFFFFFFFFFFFFFFFFFFFF AND MUL OR SWAP1 SSTORE POP JUMPDEST CALLER PUSH20 0xFFFFFFFFFFFFFFFFFFFFFFFFFFFFFFFFFFFFFFFF AND DUP5 PUSH32 0x4AF71B021E799C62C158BD54636CA8DA2FA26115A21A2DC6EFE486EC104FD15F DUP6 DUP6 PUSH1 0x40 MLOAD PUSH2 0x79F SWAP3 SWAP2 SWAP1 PUSH2 0x2CAB JUMP JUMPDEST PUSH1 0x40 MLOAD DUP1 SWAP2 SUB SWAP1 LOG3 POP PUSH2 0x7B0 PUSH2 0x17BB JUMP JUMPDEST POP POP POP JUMP JUMPDEST PUSH1 0x67 PUSH1 0x20 MSTORE DUP2 PUSH0 MSTORE PUSH1 0x40 PUSH0 KECCAK256 PUSH1 0x20 MSTORE DUP1 PUSH0 MSTORE PUSH1 0x40 PUSH0 KECCAK256 PUSH0 SWAP2 POP SWAP2 POP POP SLOAD DUP2 JUMP JUMPDEST PUSH2 0x7DD PUSH2 0x17C4 JUMP JUMPDEST PUSH2 0x7E5 PUSH2 0x184B JUMP JUMPDEST JUMP JUMPDEST PUSH2 0x7EF PUSH2 0x18AC JUMP JUMPDEST PUSH2 0x7F8 DUP3 PUSH2 0x1992 JUMP JUMPDEST PUSH2 0x802 DUP3 DUP3 PUSH2 0x199D JUMP JUMPDEST POP POP JUMP JUMPDEST PUSH0 PUSH2 0x80F PUSH2 0x1ABB JUMP JUMPDEST PUSH32 0x360894A13BA1A3210667C828492DB98DCA3E2076CC3735A920A3CA505D382BBC PUSH0 SHL SWAP1 POP SWAP1 JUMP JUMPDEST PUSH0 PUSH1 0x32 PUSH0 SWAP1 SLOAD SWAP1 PUSH2 0x100 EXP SWAP1 DIV PUSH1 0xFF AND SWAP1 POP SWAP1 JUMP JUMPDEST PUSH2 0x854 PUSH2 0x169B JUMP JUMPDEST PUSH0 PUSH1 0x66 PUSH0 DUP4 DUP2 MSTORE PUSH1 0x20 ADD SWAP1 DUP2 MSTORE PUSH1 0x20 ADD PUSH0 KECCAK256 SWAP1 POP DUP1 PUSH1 0x1 ADD PUSH0 SWAP1 SLOAD SWAP1 PUSH2 0x100 EXP SWAP1 DIV PUSH8 0xFFFFFFFFFFFFFFFF AND PUSH8 0xFFFFFFFFFFFFFFFF AND TIMESTAMP LT ISZERO PUSH2 0x8C3 JUMPI PUSH1 0x40 MLOAD PUSH32 0xB55AC7400000000000000000000000000000000000000000000000000000000 DUP2 MSTORE PUSH1 0x4 ADD PUSH1 0x40 MLOAD DUP1 SWAP2 SUB SWAP1 REVERT JUMPDEST DUP1 PUSH1 0x1 ADD PUSH1 0xA SWAP1 SLOAD SWAP1 PUSH2 0x100 EXP SWAP1 DIV PUSH1 0xFF AND ISZERO PUSH2 0x90C JUMPI PUSH1 0x40 MLOAD PUSH32 0xAA43CB2D00000000000000000000000000000000000000000000000000000000 DUP2 MSTORE PUSH1 0x4 ADD PUSH1 0x40 MLOAD DUP1 SWAP2 SUB SWAP1 REVERT JUMPDEST PUSH0 DUP2 PUSH1 0x1 ADD PUSH1 0xC SWAP1 SLOAD SWAP1 PUSH2 0x100 EXP SWAP1 DIV PUSH20 0xFFFFFFFFFFFFFFFFFFFFFFFFFFFFFFFFFFFFFFFF AND PUSH20 0xFFFFFFFFFFFFFFFFFFFFFFFFFFFFFFFFFFFFFFFF AND PUSH4 0xFEAF968C PUSH1 0x40 MLOAD DUP2 PUSH4 0xFFFFFFFF AND PUSH1 0xE0 SHL DUP2 MSTORE PUSH1 0x4 ADD PUSH1 0xA0 PUSH1 0x40 MLOAD DUP1 DUP4 SUB DUP2 DUP7 GAS STATICCALL ISZERO DUP1 ISZERO PUSH2 0x97A JUMPI RETURNDATASIZE PUSH0 PUSH0 RETURNDATACOPY RETURNDATASIZE PUSH0 REVERT JUMPDEST POP POP POP POP PUSH1 0x40 MLOAD RETURNDATASIZE PUSH1 0x1F NOT PUSH1 0x1F DUP3 ADD AND DUP3 ADD DUP1 PUSH1 0x40 MSTORE POP DUP2 ADD SWAP1 PUSH2 0x99E SWAP2 SWAP1 PUSH2 0x2D39 JUMP JUMPDEST POP POP POP SWAP2 POP POP PUSH1 0x1 DUP3 PUSH1 0x1 ADD PUSH1 0xA PUSH2 0x100 EXP DUP2 SLOAD DUP2 PUSH1 0xFF MUL NOT AND SWAP1 DUP4 ISZERO ISZERO MUL OR SWAP1 SSTORE POP DUP2 PUSH1 0x2 ADD SLOAD DUP2 SLT PUSH2 0x9FE JUMPI PUSH1 0x1 DUP3 PUSH1 0x1 ADD PUSH1 0xB PUSH2 0x100 EXP DUP2 SLOAD DUP2 PUSH1 0xFF MUL NOT AND SWAP1 DUP4 PUSH1 0x3 DUP2 GT ISZERO PUSH2 0x9F4 JUMPI PUSH2 0x9F3 PUSH2 0x2A52 JUMP JUMPDEST JUMPDEST MUL OR SWAP1 SSTORE POP PUSH2 0xA2C JUMP JUMPDEST PUSH1 0x2 DUP3 PUSH1 0x1 ADD PUSH1 0xB PUSH2 0x100 EXP DUP2 SLOAD DUP2 PUSH1 0xFF MUL NOT AND SWAP1 DUP4 PUSH1 0x3 DUP2 GT ISZERO PUSH2 0xA26 JUMPI PUSH2 0xA25 PUSH2 0x2A52 JUMP JUMPDEST JUMPDEST MUL OR SWAP1 SSTORE POP JUMPDEST DUP3 PUSH32 0x739F283563FB51AB6B89EE95D937B2E63A6CFCB83C385DBEBB629F9D97BD43E6 DUP4 PUSH1 0x1 ADD PUSH1 0xB SWAP1 SLOAD SWAP1 PUSH2 0x100 EXP SWAP1 DIV PUSH1 0xFF AND PUSH1 0x3 DUP2 GT ISZERO PUSH2 0xA72 JUMPI PUSH2 0xA71 PUSH2 0x2A52 JUMP JUMPDEST JUMPDEST PUSH1 0x40 MLOAD PUSH2 0xA7F SWAP2 SWAP1 PUSH2 0x2DCB JUMP JUMPDEST PUSH1 0x40 MLOAD DUP1 SWAP2 SUB SWAP1 LOG2 POP POP PUSH2 0xA91 PUSH2 0x17BB JUMP JUMPDEST POP JUMP JUMPDEST PUSH2 0xA9C PUSH2 0x17C4 JUMP JUMPDEST PUSH2 0xAA5 PUSH0 PUSH2 0x1B42 JUMP JUMPDEST JUMP JUMPDEST PUSH2 0xAAF PUSH2 0x17C4 JUMP JUMPDEST PUSH2 0xAB7 PUSH2 0x1C13 JUMP JUMPDEST JUMP JUMPDEST PUSH0 PUSH0 PUSH2 0xAC3 PUSH2 0x1C75 JUMP JUMPDEST SWAP1 POP DUP1 PUSH0 ADD PUSH0 SWAP1 SLOAD SWAP1 PUSH2 0x100 EXP SWAP1 DIV PUSH20 0xFFFFFFFFFFFFFFFFFFFFFFFFFFFFFFFFFFFFFFFF AND SWAP2 POP POP SWAP1 JUMP JUMPDEST PUSH2 0xAF6 PUSH2 0x17C4 JUMP JUMPDEST PUSH1 0xA PUSH2 0xFFFF AND DUP4 PUSH2 0xFFFF AND GT ISZERO PUSH2 0xB39 JUMPI PUSH1 0x40 MLOAD PUSH32 0xCD4E616700000000000000000000000000000000000000000000000000000000 DUP2 MSTORE PUSH1 0x4 ADD PUSH1 0x40 MLOAD DUP1 SWAP2 SUB SWAP1 REVERT JUMPDEST PUSH0 PUSH20 0xFFFFFFFFFFFFFFFFFFFFFFFFFFFFFFFFFFFFFFFF AND DUP3 PUSH20 0xFFFFFFFFFFFFFFFFFFFFFFFFFFFFFFFFFFFFFFFF AND SUB PUSH2 0xB9E JUMPI PUSH1 0x40 MLOAD PUSH32 0x9589A27D00000000000000000000000000000000000000000000000000000000 DUP2 MSTORE PUSH1 0x4 ADD PUSH1 0x40 MLOAD DUP1 SWAP2 SUB SWAP1 REVERT JUMPDEST PUSH1 0x40 MLOAD DUP1 PUSH2 0x100 ADD PUSH1 0x40 MSTORE DUP1 PUSH0 PUSH16 0xFFFFFFFFFFFFFFFFFFFFFFFFFFFFFFFF AND DUP2 MSTORE PUSH1 0x20 ADD PUSH0 PUSH16 0xFFFFFFFFFFFFFFFFFFFFFFFFFFFFFFFF AND DUP2 MSTORE PUSH1 0x20 ADD DUP6 PUSH8 0xFFFFFFFFFFFFFFFF AND TIMESTAMP PUSH2 0xBF0 SWAP2 SWAP1 PUSH2 0x2C35 JUMP JUMPDEST PUSH8 0xFFFFFFFFFFFFFFFF AND DUP2 MSTORE PUSH1 0x20 ADD DUP5 PUSH2 0xFFFF AND DUP2 MSTORE PUSH1 0x20 ADD PUSH0 ISZERO ISZERO DUP2 MSTORE PUSH1 0x20 ADD PUSH0 PUSH1 0x3 DUP2 GT ISZERO PUSH2 0xC24 JUMPI PUSH2 0xC23 PUSH2 0x2A52 JUMP JUMPDEST JUMPDEST DUP2 MSTORE PUSH1 0x20 ADD DUP4 PUSH20 0xFFFFFFFFFFFFFFFFFFFFFFFFFFFFFFFFFFFFFFFF AND DUP2 MSTORE PUSH1 0x20 ADD DUP3 DUP2 MSTORE POP PUSH1 0x66 PUSH0 PUSH1 0x65 SLOAD DUP2 MSTORE PUSH1 0x20 ADD SWAP1 DUP2 MSTORE PUSH1 0x20 ADD PUSH0 KECCAK256 PUSH0 DUP3 ADD MLOAD DUP2 PUSH0 ADD PUSH0 PUSH2 0x100 EXP DUP2 SLOAD DUP2 PUSH16 0xFFFFFFFFFFFFFFFFFFFFFFFFFFFFFFFF MUL NOT AND SWAP1 DUP4 PUSH16 0xFFFFFFFFFFFFFFFFFFFFFFFFFFFFFFFF AND MUL OR SWAP1 SSTORE POP PUSH1 0x20 DUP3 ADD MLOAD DUP2 PUSH0 ADD PUSH1 0x10 PUSH2 0x100 EXP DUP2 SLOAD DUP2 PUSH16 0xFFFFFFFFFFFFFFFFFFFFFFFFFFFFFFFF MUL NOT AND SWAP1 DUP4 PUSH16 0xFFFFFFFFFFFFFFFFFFFFFFFFFFFFFFFF AND MUL OR SWAP1 SSTORE POP PUSH1 0x40 DUP3 ADD MLOAD DUP2 PUSH1 0x1 ADD PUSH0 PUSH2 0x100 EXP DUP2 SLOAD DUP2 PUSH8 0xFFFFFFFFFFFFFFFF MUL NOT AND SWAP1 DUP4 PUSH8 0xFFFFFFFFFFFFFFFF AND MUL OR SWAP1 SSTORE POP PUSH1 0x60 DUP3 ADD MLOAD DUP2 PUSH1 0x1 ADD PUSH1 0x8 PUSH2 0x100 EXP DUP2 SLOAD DUP2 PUSH2 0xFFFF MUL NOT AND SWAP1 DUP4 PUSH2 0xFFFF AND MUL OR SWAP1 SSTORE POP PUSH1 0x80 DUP3 ADD MLOAD DUP2 PUSH1 0x1 ADD PUSH1 0xA PUSH2 0x100 EXP DUP2 SLOAD DUP2 PUSH1 0xFF MUL NOT AND SWAP1 DUP4 ISZERO ISZERO MUL OR SWAP1 SSTORE POP PUSH1 0xA0 DUP3 ADD MLOAD DUP2 PUSH1 0x1 ADD PUSH1 0xB PUSH2 0x100 EXP DUP2 SLOAD DUP2 PUSH1 0xFF MUL NOT AND SWAP1 DUP4 PUSH1 0x3 DUP2 GT ISZERO PUSH2 0xD72 JUMPI PUSH2 0xD71 PUSH2 0x2A52 JUMP JUMPDEST JUMPDEST MUL OR SWAP1 SSTORE POP PUSH1 0xC0 DUP3 ADD MLOAD DUP2 PUSH1 0x1 ADD PUSH1 0xC PUSH2 0x100 EXP DUP2 SLOAD DUP2 PUSH20 0xFFFFFFFFFFFFFFFFFFFFFFFFFFFFFFFFFFFFFFFF MUL NOT AND SWAP1 DUP4 PUSH20 0xFFFFFFFFFFFFFFFFFFFFFFFFFFFFFFFFFFFFFFFF AND MUL OR SWAP1 SSTORE POP PUSH1 0xE0 DUP3 ADD MLOAD DUP2 PUSH1 0x2 ADD SSTORE SWAP1 POP POP PUSH1 0x65 SLOAD PUSH32 0xB466446070E4BF49A6413E2BBFAF36E4EF8BE12140DD09E3FA50AF78E0941E69 DUP3 PUSH1 0x40 MLOAD PUSH2 0xDFD SWAP2 SWAP1 PUSH2 0x2DE4 JUMP JUMPDEST PUSH1 0x40 MLOAD DUP1 SWAP2 SUB SWAP1 LOG2 PUSH1 0x65 PUSH0 DUP2 SLOAD DUP1 SWAP3 SWAP2 SWAP1 PUSH2 0xE17 SWAP1 PUSH2 0x2DFD JUMP JUMPDEST SWAP2 SWAP1 POP SSTORE POP POP POP POP POP JUMP JUMPDEST PUSH1 0x40 MLOAD DUP1 PUSH1 0x40 ADD PUSH1 0x40 MSTORE DUP1 PUSH1 0x5 DUP2 MSTORE PUSH1 0x20 ADD PUSH32 0x352E302E30000000000000000000000000000000000000000000000000000000 DUP2 MSTORE POP DUP2 JUMP JUMPDEST PUSH2 0xE63 PUSH2 0x169B JUMP JUMPDEST PUSH0 PUSH1 0x66 PUSH0 DUP4 DUP2 MSTORE PUSH1 0x20 ADD SWAP1 DUP2 MSTORE PUSH1 0x20 ADD PUSH0 KECCAK256 SWAP1 POP DUP1 PUSH1 0x1 ADD PUSH1 0xA SWAP1 SLOAD SWAP1 PUSH2 0x100 EXP SWAP1 DIV PUSH1 0xFF AND PUSH2 0xEBF JUMPI PUSH1 0x40 MLOAD PUSH32 0x2E96C72600000000000000000000000000000000000000000000000000000000 DUP2 MSTORE PUSH1 0x4 ADD PUSH1 0x40 MLOAD DUP1 SWAP2 SUB SWAP1 REVERT JUMPDEST PUSH0 PUSH0 PUSH1 0x1 PUSH1 0x3 DUP2 GT ISZERO PUSH2 0xED5 JUMPI PUSH2 0xED4 PUSH2 0x2A52 JUMP JUMPDEST JUMPDEST DUP4 PUSH1 0x1 ADD PUSH1 0xB SWAP1 SLOAD SWAP1 PUSH2 0x100 EXP SWAP1 DIV PUSH1 0xFF AND PUSH1 0x3 DUP2 GT ISZERO PUSH2 0xEF9 JUMPI PUSH2 0xEF8 PUSH2 0x2A52 JUMP JUMPDEST JUMPDEST SUB PUSH2 0x102E JUMPI PUSH1 0x67 PUSH0 DUP6 DUP2 MSTORE PUSH1 0x20 ADD SWAP1 DUP2 MSTORE PUSH1 0x20 ADD PUSH0 KECCAK256 PUSH0 CALLER PUSH20 0xFFFFFFFFFFFFFFFFFFFFFFFFFFFFFFFFFFFFFFFF AND PUSH20 0xFFFFFFFFFFFFFFFFFFFFFFFFFFFFFFFFFFFFFFFF AND DUP2 MSTORE PUSH1 0x20 ADD SWAP1 DUP2 MSTORE PUSH1 0x20 ADD PUSH0 KECCAK256 SLOAD SWAP2 POP PUSH0 DUP3 SUB PUSH2 0xF86 JUMPI PUSH1 0x40 MLOAD PUSH32 0x618C724200000000000000000000000000000000000000000000000000000000 DUP2 MSTORE PUSH1 0x4 ADD PUSH1 0x40 MLOAD DUP1 SWAP2 SUB SWAP1 REVERT JUMPDEST DUP3 PUSH0 ADD PUSH0 SWAP1 SLOAD SWAP1 PUSH2 0x100 EXP SWAP1 DIV PUSH16 0xFFFFFFFFFFFFFFFFFFFFFFFFFFFFFFFF AND PUSH16 0xFFFFFFFFFFFFFFFFFFFFFFFFFFFFFFFF AND DUP4 PUSH0 ADD PUSH1 0x10 SWAP1 SLOAD SWAP1 PUSH2 0x100 EXP SWAP1 DIV PUSH16 0xFFFFFFFFFFFFFFFFFFFFFFFFFFFFFFFF AND DUP5 PUSH0 ADD PUSH0 SWAP1 SLOAD SWAP1 PUSH2 0x100 EXP SWAP1 DIV PUSH16 0xFFFFFFFFFFFFFFFFFFFFFFFFFFFFFFFF AND PUSH2 0x1000 SWAP2 SWAP1 PUSH2 0x2C68 JUMP JUMPDEST PUSH16 0xFFFFFFFFFFFFFFFFFFFFFFFFFFFFFFFF AND DUP4 PUSH2 0x101D SWAP2 SWAP1 PUSH2 0x2E44 JUMP JUMPDEST PUSH2 0x1027 SWAP2 SWAP1 PUSH2 0x2EB2 JUMP JUMPDEST SWAP1 POP PUSH2 0x115B JUMP JUMPDEST PUSH1 0x68 PUSH0 DUP6 DUP2 MSTORE PUSH1 0x20 ADD SWAP1 DUP2 MSTORE PUSH1 0x20 ADD PUSH0 KECCAK256 PUSH0 CALLER PUSH20 0xFFFFFFFFFFFFFFFFFFFFFFFFFFFFFFFFFFFFFFFF AND PUSH20 0xFFFFFFFFFFFFFFFFFFFFFFFFFFFFFFFFFFFFFFFF AND DUP2 MSTORE PUSH1 0x20 ADD SWAP1 DUP2 MSTORE PUSH1 0x20 ADD PUSH0 KECCAK256 SLOAD SWAP2 POP PUSH0 DUP3 SUB PUSH2 0x10B6 JUMPI PUSH1 0x40 MLOAD PUSH32 0x618C724200000000000000000000000000000000000000000000000000000000 DUP2 MSTORE PUSH1 0x4 ADD PUSH1 0x40 MLOAD DUP1 SWAP2 SUB SWAP1 REVERT JUMPDEST DUP3 PUSH0 ADD PUSH1 0x10 SWAP1 SLOAD SWAP1 PUSH2 0x100 EXP SWAP1 DIV PUSH16 0xFFFFFFFFFFFFFFFFFFFFFFFFFFFFFFFF AND PUSH16 0xFFFFFFFFFFFFFFFFFFFFFFFFFFFFFFFF AND DUP4 PUSH0 ADD PUSH1 0x10 SWAP1 SLOAD SWAP1 PUSH2 0x100 EXP SWAP1 DIV PUSH16 0xFFFFFFFFFFFFFFFFFFFFFFFFFFFFFFFF AND DUP5 PUSH0 ADD PUSH0 SWAP1 SLOAD SWAP1 PUSH2 0x100 EXP SWAP1 DIV PUSH16 0xFFFFFFFFFFFFFFFFFFFFFFFFFFFFFFFF AND PUSH2 0x1131 SWAP2 SWAP1 PUSH2 0x2C68 JUMP JUMPDEST PUSH16 0xFFFFFFFFFFFFFFFFFFFFFFFFFFFFFFFF AND DUP4 PUSH2 0x114E SWAP2 SWAP1 PUSH2 0x2E44 JUMP JUMPDEST PUSH2 0x1158 SWAP2 SWAP1 PUSH2 0x2EB2 JUMP JUMPDEST SWAP1 POP JUMPDEST PUSH0 PUSH1 0x64 DUP5 PUSH1 0x1 ADD PUSH1 0x8 SWAP1 SLOAD SWAP1 PUSH2 0x100 EXP SWAP1 DIV PUSH2 0xFFFF AND PUSH2 0xFFFF AND DUP4 PUSH2 0x1180 SWAP2 SWAP1 PUSH2 0x2E44 JUMP JUMPDEST PUSH2 0x118A SWAP2 SWAP1 PUSH2 0x2EB2 JUMP JUMPDEST SWAP1 POP DUP1 DUP3 PUSH2 0x1198 SWAP2 SWAP1 PUSH2 0x2EE2 JUMP JUMPDEST SWAP2 POP PUSH0 PUSH1 0x67 PUSH0 DUP8 DUP2 MSTORE PUSH1 0x20 ADD SWAP1 DUP2 MSTORE PUSH1 0x20 ADD PUSH0 KECCAK256 PUSH0 CALLER PUSH20 0xFFFFFFFFFFFFFFFFFFFFFFFFFFFFFFFFFFFFFFFF AND PUSH20 0xFFFFFFFFFFFFFFFFFFFFFFFFFFFFFFFFFFFFFFFF AND DUP2 MSTORE PUSH1 0x20 ADD SWAP1 DUP2 MSTORE PUSH1 0x20 ADD PUSH0 KECCAK256 DUP2 SWAP1 SSTORE POP PUSH0 PUSH1 0x68 PUSH0 DUP8 DUP2 MSTORE PUSH1 0x20 ADD SWAP1 DUP2 MSTORE PUSH1 0x20 ADD PUSH0 KECCAK256 PUSH0 CALLER PUSH20 0xFFFFFFFFFFFFFFFFFFFFFFFFFFFFFFFFFFFFFFFF AND PUSH20 0xFFFFFFFFFFFFFFFFFFFFFFFFFFFFFFFFFFFFFFFF AND DUP2 MSTORE PUSH1 0x20 ADD SWAP1 DUP2 MSTORE PUSH1 0x20 ADD PUSH0 KECCAK256 DUP2 SWAP1 SSTORE POP PUSH2 0x128F PUSH2 0x1247 PUSH2 0xAB9 JUMP JUMPDEST DUP3 PUSH1 0x64 PUSH0 SWAP1 SLOAD SWAP1 PUSH2 0x100 EXP SWAP1 DIV PUSH20 0xFFFFFFFFFFFFFFFFFFFFFFFFFFFFFFFFFFFFFFFF AND PUSH20 0xFFFFFFFFFFFFFFFFFFFFFFFFFFFFFFFFFFFFFFFF AND PUSH2 0x1C9C SWAP1 SWAP3 SWAP2 SWAP1 PUSH4 0xFFFFFFFF AND JUMP JUMPDEST PUSH2 0x12DB CALLER DUP4 PUSH1 0x64 PUSH0 SWAP1 SLOAD SWAP1 PUSH2 0x100 EXP SWAP1 DIV PUSH20 0xFFFFFFFFFFFFFFFFFFFFFFFFFFFFFFFFFFFFFFFF AND PUSH20 0xFFFFFFFFFFFFFFFFFFFFFFFFFFFFFFFFFFFFFFFF AND PUSH2 0x1C9C SWAP1 SWAP3 SWAP2 SWAP1 PUSH4 0xFFFFFFFF AND JUMP JUMPDEST CALLER PUSH20 0xFFFFFFFFFFFFFFFFFFFFFFFFFFFFFFFFFFFFFFFF AND DUP6 PUSH32 0x24B5EFA61DD1CFC659205A97FB8ED868F3CB8C81922BAB2B96423E5DE1DE2CB7 DUP5 PUSH1 0x40 MLOAD PUSH2 0x1322 SWAP2 SWAP1 PUSH2 0x259F JUMP JUMPDEST PUSH1 0x40 MLOAD DUP1 SWAP2 SUB SWAP1 LOG3 POP POP POP POP PUSH2 0x1336 PUSH2 0x17BB JUMP JUMPDEST POP JUMP JUMPDEST PUSH1 0x66 PUSH1 0x20 MSTORE DUP1 PUSH0 MSTORE PUSH1 0x40 PUSH0 KECCAK256 PUSH0 SWAP2 POP SWAP1 POP DUP1 PUSH0 ADD PUSH0 SWAP1 SLOAD SWAP1 PUSH2 0x100 EXP SWAP1 DIV PUSH16 0xFFFFFFFFFFFFFFFFFFFFFFFFFFFFFFFF AND SWAP1 DUP1 PUSH0 ADD PUSH1 0x10 SWAP1 SLOAD SWAP1 PUSH2 0x100 EXP SWAP1 DIV PUSH16 0xFFFFFFFFFFFFFFFFFFFFFFFFFFFFFFFF AND SWAP1 DUP1 PUSH1 0x1 ADD PUSH0 SWAP1 SLOAD SWAP1 PUSH2 0x100 EXP SWAP1 DIV PUSH8 0xFFFFFFFFFFFFFFFF AND SWAP1 DUP1 PUSH1 0x1 ADD PUSH1 0x8 SWAP1 SLOAD SWAP1 PUSH2 0x100 EXP SWAP1 DIV PUSH2 0xFFFF AND SWAP1 DUP1 PUSH1 0x1 ADD PUSH1 0xA SWAP1 SLOAD SWAP1 PUSH2 0x100 EXP SWAP1 DIV PUSH1 0xFF AND SWAP1 DUP1 PUSH1 0x1 ADD PUSH1 0xB SWAP1 SLOAD SWAP1 PUSH2 0x100 EXP SWAP1 DIV PUSH1 0xFF AND SWAP1 DUP1 PUSH1 0x1 ADD PUSH1 0xC SWAP1 SLOAD SWAP1 PUSH2 0x100 EXP SWAP1 DIV PUSH20 0xFFFFFFFFFFFFFFFFFFFFFFFFFFFFFFFFFFFFFFFF AND SWAP1 DUP1 PUSH1 0x2 ADD SLOAD SWAP1 POP DUP9 JUMP JUMPDEST PUSH1 0xA DUP2 JUMP JUMPDEST PUSH0 PUSH2 0x141C PUSH2 0x1D22 JUMP JUMPDEST SWAP1 POP PUSH0 DUP2 PUSH0 ADD PUSH1 0x8 SWAP1 SLOAD SWAP1 PUSH2 0x100 EXP SWAP1 DIV PUSH1 0xFF AND ISZERO SWAP1 POP PUSH0 DUP3 PUSH0 ADD PUSH0 SWAP1 SLOAD SWAP1 PUSH2 0x100 EXP SWAP1 DIV PUSH8 0xFFFFFFFFFFFFFFFF AND SWAP1 POP PUSH0 PUSH0 DUP3 PUSH8 0xFFFFFFFFFFFFFFFF AND EQ DUP1 ISZERO PUSH2 0x1464 JUMPI POP DUP3 JUMPDEST SWAP1 POP PUSH0 PUSH1 0x1 DUP4 PUSH8 0xFFFFFFFFFFFFFFFF AND EQ DUP1 ISZERO PUSH2 0x1497 JUMPI POP PUSH0 ADDRESS PUSH20 0xFFFFFFFFFFFFFFFFFFFFFFFFFFFFFFFFFFFFFFFF AND EXTCODESIZE EQ JUMPDEST SWAP1 POP DUP2 ISZERO DUP1 ISZERO PUSH2 0x14A5 JUMPI POP DUP1 ISZERO JUMPDEST ISZERO PUSH2 0x14DC JUMPI PUSH1 0x40 MLOAD PUSH32 0xF92EE8A900000000000000000000000000000000000000000000000000000000 DUP2 MSTORE PUSH1 0x4 ADD PUSH1 0x40 MLOAD DUP1 SWAP2 SUB SWAP1 REVERT JUMPDEST PUSH1 0x1 DUP6 PUSH0 ADD PUSH0 PUSH2 0x100 EXP DUP2 SLOAD DUP2 PUSH8 0xFFFFFFFFFFFFFFFF MUL NOT AND SWAP1 DUP4 PUSH8 0xFFFFFFFFFFFFFFFF AND MUL OR SWAP1 SSTORE POP DUP4 ISZERO PUSH2 0x1529 JUMPI PUSH1 0x1 DUP6 PUSH0 ADD PUSH1 0x8 PUSH2 0x100 EXP DUP2 SLOAD DUP2 PUSH1 0xFF MUL NOT AND SWAP1 DUP4 ISZERO ISZERO MUL OR SWAP1 SSTORE POP JUMPDEST PUSH2 0x1532 CALLER PUSH2 0x1D35 JUMP JUMPDEST PUSH2 0x153A PUSH2 0x1D49 JUMP JUMPDEST PUSH2 0x1542 PUSH2 0x1D5B JUMP JUMPDEST PUSH2 0x154A PUSH2 0x1D6D JUMP JUMPDEST DUP6 PUSH1 0x64 PUSH0 PUSH2 0x100 EXP DUP2 SLOAD DUP2 PUSH20 0xFFFFFFFFFFFFFFFFFFFFFFFFFFFFFFFFFFFFFFFF MUL NOT AND SWAP1 DUP4 PUSH20 0xFFFFFFFFFFFFFFFFFFFFFFFFFFFFFFFFFFFFFFFF AND MUL OR SWAP1 SSTORE POP DUP4 ISZERO PUSH2 0x15E4 JUMPI PUSH0 DUP6 PUSH0 ADD PUSH1 0x8 PUSH2 0x100 EXP DUP2 SLOAD DUP2 PUSH1 0xFF MUL NOT AND SWAP1 DUP4 ISZERO ISZERO MUL OR SWAP1 SSTORE POP PUSH32 0xC7F505B2F371AE2175EE4913F4499E1F2633A7B5936321EED1CDAEB6115181D2 PUSH1 0x1 PUSH1 0x40 MLOAD PUSH2 0x15DB SWAP2 SWAP1 PUSH2 0x2F4E JUMP JUMPDEST PUSH1 0x40 MLOAD DUP1 SWAP2 SUB SWAP1 LOG1 JUMPDEST POP POP POP POP POP POP JUMP JUMPDEST PUSH1 0x65 SLOAD DUP2 JUMP JUMPDEST PUSH2 0x15FA PUSH2 0x17C4 JUMP JUMPDEST PUSH0 PUSH20 0xFFFFFFFFFFFFFFFFFFFFFFFFFFFFFFFFFFFFFFFF AND DUP2 PUSH20 0xFFFFFFFFFFFFFFFFFFFFFFFFFFFFFFFFFFFFFFFF AND SUB PUSH2 0x166A JUMPI PUSH0 PUSH1 0x40 MLOAD PUSH32 0x1E4FBDF700000000000000000000000000000000000000000000000000000000 DUP2 MSTORE PUSH1 0x4 ADD PUSH2 0x1661 SWAP2 SWAP1 PUSH2 0x2866 JUMP JUMPDEST PUSH1 0x40 MLOAD DUP1 SWAP2 SUB SWAP1 REVERT JUMPDEST PUSH2 0x1673 DUP2 PUSH2 0x1B42 JUMP JUMPDEST POP JUMP JUMPDEST PUSH1 0x64 PUSH0 SWAP1 SLOAD SWAP1 PUSH2 0x100 EXP SWAP1 DIV PUSH20 0xFFFFFFFFFFFFFFFFFFFFFFFFFFFFFFFFFFFFFFFF AND DUP2 JUMP JUMPDEST PUSH1 0x2 PUSH0 SLOAD SUB PUSH2 0x16DF JUMPI PUSH1 0x40 MLOAD PUSH32 0x8C379A000000000000000000000000000000000000000000000000000000000 DUP2 MSTORE PUSH1 0x4 ADD PUSH2 0x16D6 SWAP1 PUSH2 0x2FB1 JUMP JUMPDEST PUSH1 0x40 MLOAD DUP1 SWAP2 SUB SWAP1 REVERT JUMPDEST PUSH1 0x2 PUSH0 DUP2 SWAP1 SSTORE POP JUMP JUMPDEST PUSH2 0x16F0 PUSH2 0x837 JUMP JUMPDEST ISZERO PUSH2 0x1730 JUMPI PUSH1 0x40 MLOAD PUSH32 0x8C379A000000000000000000000000000000000000000000000000000000000 DUP2 MSTORE PUSH1 0x4 ADD PUSH2 0x1727 SWAP1 PUSH2 0x3019 JUMP JUMPDEST PUSH1 0x40 MLOAD DUP1 SWAP2 SUB SWAP1 REVERT JUMPDEST JUMP JUMPDEST PUSH2 0x17B5 DUP5 PUSH4 0x23B872DD PUSH1 0xE0 SHL DUP6 DUP6 DUP6 PUSH1 0x40 MLOAD PUSH1 0x24 ADD PUSH2 0x1753 SWAP4 SWAP3 SWAP2 SWAP1 PUSH2 0x3037 JUMP JUMPDEST PUSH1 0x40 MLOAD PUSH1 0x20 DUP2 DUP4 SUB SUB DUP2 MSTORE SWAP1 PUSH1 0x40 MSTORE SWAP1 PUSH28 0xFFFFFFFFFFFFFFFFFFFFFFFFFFFFFFFFFFFFFFFFFFFFFFFFFFFFFFFF NOT AND PUSH1 0x20 DUP3 ADD DUP1 MLOAD PUSH28 0xFFFFFFFFFFFFFFFFFFFFFFFFFFFFFFFFFFFFFFFFFFFFFFFFFFFFFFFF DUP4 DUP2 DUP4 AND OR DUP4 MSTORE POP POP POP POP PUSH2 0x1D77 JUMP JUMPDEST POP POP POP POP JUMP JUMPDEST PUSH1 0x1 PUSH0 DUP2 SWAP1 SSTORE POP JUMP JUMPDEST PUSH2 0x17CC PUSH2 0x1E3D JUMP JUMPDEST PUSH20 0xFFFFFFFFFFFFFFFFFFFFFFFFFFFFFFFFFFFFFFFF AND PUSH2 0x17EA PUSH2 0xAB9 JUMP JUMPDEST PUSH20 0xFFFFFFFFFFFFFFFFFFFFFFFFFFFFFFFFFFFFFFFF AND EQ PUSH2 0x1849 JUMPI PUSH2 0x180D PUSH2 0x1E3D JUMP JUMPDEST PUSH1 0x40 MLOAD PUSH32 0x118CDAA700000000000000000000000000000000000000000000000000000000 DUP2 MSTORE PUSH1 0x4 ADD PUSH2 0x1840 SWAP2 SWAP1 PUSH2 0x2866 JUMP JUMPDEST PUSH1 0x40 MLOAD DUP1 SWAP2 SUB SWAP1 REVERT JUMPDEST JUMP JUMPDEST PUSH2 0x1853 PUSH2 0x1E44 JUMP JUMPDEST PUSH0 PUSH1 0x32 PUSH0 PUSH2 0x100 EXP DUP2 SLOAD DUP2 PUSH1 0xFF MUL NOT AND SWAP1 DUP4 ISZERO ISZERO MUL OR SWAP1 SSTORE POP PUSH32 0x5DB9EE0A495BF2E6FF9C91A7834C1BA4FDD244A5E8AA4E537BD38AEAE4B073AA PUSH2 0x1895 PUSH2 0x1E3D JUMP JUMPDEST PUSH1 0x40 MLOAD PUSH2 0x18A2 SWAP2 SWAP1 PUSH2 0x2866 JUMP JUMPDEST PUSH1 0x40 MLOAD DUP1 SWAP2 SUB SWAP1 LOG1 JUMP JUMPDEST PUSH32 0x0 PUSH20 0xFFFFFFFFFFFFFFFFFFFFFFFFFFFFFFFFFFFFFFFF AND ADDRESS PUSH20 0xFFFFFFFFFFFFFFFFFFFFFFFFFFFFFFFFFFFFFFFF AND EQ DUP1 PUSH2 0x1959 JUMPI POP PUSH32 0x0 PUSH20 0xFFFFFFFFFFFFFFFFFFFFFFFFFFFFFFFFFFFFFFFF AND PUSH2 0x1940 PUSH2 0x1E8D JUMP JUMPDEST PUSH20 0xFFFFFFFFFFFFFFFFFFFFFFFFFFFFFFFFFFFFFFFF AND EQ ISZERO JUMPDEST ISZERO PUSH2 0x1990 JUMPI PUSH1 0x40 MLOAD PUSH32 0xE07C8DBA00000000000000000000000000000000000000000000000000000000 DUP2 MSTORE PUSH1 0x4 ADD PUSH1 0x40 MLOAD DUP1 SWAP2 SUB SWAP1 REVERT JUMPDEST JUMP JUMPDEST PUSH2 0x199A PUSH2 0x17C4 JUMP JUMPDEST POP JUMP JUMPDEST DUP2 PUSH20 0xFFFFFFFFFFFFFFFFFFFFFFFFFFFFFFFFFFFFFFFF AND PUSH4 0x52D1902D PUSH1 0x40 MLOAD DUP2 PUSH4 0xFFFFFFFF AND PUSH1 0xE0 SHL DUP2 MSTORE PUSH1 0x4 ADD PUSH1 0x20 PUSH1 0x40 MLOAD DUP1 DUP4 SUB DUP2 DUP7 GAS STATICCALL SWAP3 POP POP POP DUP1 ISZERO PUSH2 0x1A05 JUMPI POP PUSH1 0x40 MLOAD RETURNDATASIZE PUSH1 0x1F NOT PUSH1 0x1F DUP3 ADD AND DUP3 ADD DUP1 PUSH1 0x40 MSTORE POP DUP2 ADD SWAP1 PUSH2 0x1A02 SWAP2 SWAP1 PUSH2 0x3096 JUMP JUMPDEST PUSH1 0x1 JUMPDEST PUSH2 0x1A46 JUMPI DUP2 PUSH1 0x40 MLOAD PUSH32 0x4C9C8CE300000000000000000000000000000000000000000000000000000000 DUP2 MSTORE PUSH1 0x4 ADD PUSH2 0x1A3D SWAP2 SWAP1 PUSH2 0x2866 JUMP JUMPDEST PUSH1 0x40 MLOAD DUP1 SWAP2 SUB SWAP1 REVERT JUMPDEST PUSH32 0x360894A13BA1A3210667C828492DB98DCA3E2076CC3735A920A3CA505D382BBC PUSH0 SHL DUP2 EQ PUSH2 0x1AAC JUMPI DUP1 PUSH1 0x40 MLOAD PUSH32 0xAA1D49A400000000000000000000000000000000000000000000000000000000 DUP2 MSTORE PUSH1 0x4 ADD PUSH2 0x1AA3 SWAP2 SWAP1 PUSH2 0x27EB JUMP JUMPDEST PUSH1 0x40 MLOAD DUP1 SWAP2 SUB SWAP1 REVERT JUMPDEST PUSH2 0x1AB6 DUP4 DUP4 PUSH2 0x1EE0 JUMP JUMPDEST POP POP POP JUMP JUMPDEST PUSH32 0x0 PUSH20 0xFFFFFFFFFFFFFFFFFFFFFFFFFFFFFFFFFFFFFFFF AND ADDRESS PUSH20 0xFFFFFFFFFFFFFFFFFFFFFFFFFFFFFFFFFFFFFFFF AND EQ PUSH2 0x1B40 JUMPI PUSH1 0x40 MLOAD PUSH32 0xE07C8DBA00000000000000000000000000000000000000000000000000000000 DUP2 MSTORE PUSH1 0x4 ADD PUSH1 0x40 MLOAD DUP1 SWAP2 SUB SWAP1 REVERT JUMPDEST JUMP JUMPDEST PUSH0 PUSH2 0x1B4B PUSH2 0x1C75 JUMP JUMPDEST SWAP1 POP PUSH0 DUP2 PUSH0 ADD PUSH0 SWAP1 SLOAD SWAP1 PUSH2 0x100 EXP SWAP1 DIV PUSH20 0xFFFFFFFFFFFFFFFFFFFFFFFFFFFFFFFFFFFFFFFF AND SWAP1 POP DUP3 DUP3 PUSH0 ADD PUSH0 PUSH2 0x100 EXP DUP2 SLOAD DUP2 PUSH20 0xFFFFFFFFFFFFFFFFFFFFFFFFFFFFFFFFFFFFFFFF MUL NOT AND SWAP1 DUP4 PUSH20 0xFFFFFFFFFFFFFFFFFFFFFFFFFFFFFFFFFFFFFFFF AND MUL OR SWAP1 SSTORE POP DUP3 PUSH20 0xFFFFFFFFFFFFFFFFFFFFFFFFFFFFFFFFFFFFFFFF AND DUP2 PUSH20 0xFFFFFFFFFFFFFFFFFFFFFFFFFFFFFFFFFFFFFFFF AND PUSH32 0x8BE0079C531659141344CD1FD0A4F28419497F9722A3DAAFE3B4186F6B6457E0 PUSH1 0x40 MLOAD PUSH1 0x40 MLOAD DUP1 SWAP2 SUB SWAP1 LOG3 POP POP POP JUMP JUMPDEST PUSH2 0x1C1B PUSH2 0x16E8 JUMP JUMPDEST PUSH1 0x1 PUSH1 0x32 PUSH0 PUSH2 0x100 EXP DUP2 SLOAD DUP2 PUSH1 0xFF MUL NOT AND SWAP1 DUP4 ISZERO ISZERO MUL OR SWAP1 SSTORE POP PUSH32 0x62E78CEA01BEE320CD4E420270B5EA74000D11B0C9F74754EBDBFC544B05A258 PUSH2 0x1C5E PUSH2 0x1E3D JUMP JUMPDEST PUSH1 0x40 MLOAD PUSH2 0x1C6B SWAP2 SWAP1 PUSH2 0x2866 JUMP JUMPDEST PUSH1 0x40 MLOAD DUP1 SWAP2 SUB SWAP1 LOG1 JUMP JUMPDEST PUSH0 PUSH32 0x9016D09D72D40FDAE2FD8CEAC6B6234C7706214FD39C1CD1E609A0528C199300 SWAP1 POP SWAP1 JUMP JUMPDEST PUSH2 0x1D1D DUP4 PUSH4 0xA9059CBB PUSH1 0xE0 SHL DUP5 DUP5 PUSH1 0x40 MLOAD PUSH1 0x24 ADD PUSH2 0x1CBB SWAP3 SWAP2 SWAP1 PUSH2 0x30C1 JUMP JUMPDEST PUSH1 0x40 MLOAD PUSH1 0x20 DUP2 DUP4 SUB SUB DUP2 MSTORE SWAP1 PUSH1 0x40 MSTORE SWAP1 PUSH28 0xFFFFFFFFFFFFFFFFFFFFFFFFFFFFFFFFFFFFFFFFFFFFFFFFFFFFFFFF NOT AND PUSH1 0x20 DUP3 ADD DUP1 MLOAD PUSH28 0xFFFFFFFFFFFFFFFFFFFFFFFFFFFFFFFFFFFFFFFFFFFFFFFFFFFFFFFF DUP4 DUP2 DUP4 AND OR DUP4 MSTORE POP POP POP POP PUSH2 0x1D77 JUMP JUMPDEST POP POP POP JUMP JUMPDEST PUSH0 PUSH0 PUSH2 0x1D2C PUSH2 0x1F52 JUMP JUMPDEST SWAP1 POP DUP1 SWAP2 POP POP SWAP1 JUMP JUMPDEST PUSH2 0x1D3D PUSH2 0x1F7B JUMP JUMPDEST PUSH2 0x1D46 DUP2 PUSH2 0x1FBB JUMP JUMPDEST POP JUMP JUMPDEST PUSH2 0x1D51 PUSH2 0x1F7B JUMP JUMPDEST PUSH2 0x1D59 PUSH2 0x203F JUMP JUMPDEST JUMP JUMPDEST PUSH2 0x1D63 PUSH2 0x1F7B JUMP JUMPDEST PUSH2 0x1D6B PUSH2 0x2050 JUMP JUMPDEST JUMP JUMPDEST PUSH2 0x1D75 PUSH2 0x1F7B JUMP JUMPDEST JUMP JUMPDEST PUSH0 PUSH2 0x1DD8 DUP3 PUSH1 0x40 MLOAD DUP1 PUSH1 0x40 ADD PUSH1 0x40 MSTORE DUP1 PUSH1 0x20 DUP2 MSTORE PUSH1 0x20 ADD PUSH32 0x5361666545524332303A206C6F772D6C6576656C2063616C6C206661696C6564 DUP2 MSTORE POP DUP6 PUSH20 0xFFFFFFFFFFFFFFFFFFFFFFFFFFFFFFFFFFFFFFFF AND PUSH2 0x2073 SWAP1 SWAP3 SWAP2 SWAP1 PUSH4 0xFFFFFFFF AND JUMP JUMPDEST SWAP1 POP PUSH0 DUP2 MLOAD EQ DUP1 PUSH2 0x1DF9 JUMPI POP DUP1 DUP1 PUSH1 0x20 ADD SWAP1 MLOAD DUP2 ADD SWAP1 PUSH2 0x1DF8 SWAP2 SWAP1 PUSH2 0x30FC JUMP JUMPDEST JUMPDEST PUSH2 0x1E38 JUMPI PUSH1 0x40 MLOAD PUSH32 0x8C379A000000000000000000000000000000000000000000000000000000000 DUP2 MSTORE PUSH1 0x4 ADD PUSH2 0x1E2F SWAP1 PUSH2 0x3197 JUMP JUMPDEST PUSH1 0x40 MLOAD DUP1 SWAP2 SUB SWAP1 REVERT JUMPDEST POP POP POP JUMP JUMPDEST PUSH0 CALLER SWAP1 POP SWAP1 JUMP JUMPDEST PUSH2 0x1E4C PUSH2 0x837 JUMP JUMPDEST PUSH2 0x1E8B JUMPI PUSH1 0x40 MLOAD PUSH32 0x8C379A000000000000000000000000000000000000000000000000000000000 DUP2 MSTORE PUSH1 0x4 ADD PUSH2 0x1E82 SWAP1 PUSH2 0x31FF JUMP JUMPDEST PUSH1 0x40 MLOAD DUP1 SWAP2 SUB SWAP1 REVERT JUMPDEST JUMP JUMPDEST PUSH0 PUSH2 0x1EB9 PUSH32 0x360894A13BA1A3210667C828492DB98DCA3E2076CC3735A920A3CA505D382BBC PUSH0 SHL PUSH2 0x208A JUMP JUMPDEST PUSH0 ADD PUSH0 SWAP1 SLOAD SWAP1 PUSH2 0x100 EXP SWAP1 DIV PUSH20 0xFFFFFFFFFFFFFFFFFFFFFFFFFFFFFFFFFFFFFFFF AND SWAP1 POP SWAP1 JUMP JUMPDEST PUSH2 0x1EE9 DUP3 PUSH2 0x2093 JUMP JUMPDEST DUP2 PUSH20 0xFFFFFFFFFFFFFFFFFFFFFFFFFFFFFFFFFFFFFFFF AND PUSH32 0xBC7CD75A20EE27FD9ADEBAB32041F755214DBC6BFFA90CC0225B39DA2E5C2D3B PUSH1 0x40 MLOAD PUSH1 0x40 MLOAD DUP1 SWAP2 SUB SWAP1 LOG2 PUSH0 DUP2 MLOAD GT ISZERO PUSH2 0x1F45 JUMPI PUSH2 0x1F3F DUP3 DUP3 PUSH2 0x215C JUMP JUMPDEST POP PUSH2 0x1F4E JUMP JUMPDEST PUSH2 0x1F4D PUSH2 0x21DC JUMP JUMPDEST JUMPDEST POP POP JUMP JUMPDEST PUSH0 PUSH32 0xF0C57E16840DF040F15088DC2F81FE391C3923BEC73E23A9662EFC9C229C6A00 PUSH0 SHL SWAP1 POP SWAP1 JUMP JUMPDEST PUSH2 0x1F83 PUSH2 0x2218 JUMP JUMPDEST PUSH2 0x1FB9 JUMPI PUSH1 0x40 MLOAD PUSH32 0xD7E6BCF800000000000000000000000000000000000000000000000000000000 DUP2 MSTORE PUSH1 0x4 ADD PUSH1 0x40 MLOAD DUP1 SWAP2 SUB SWAP1 REVERT JUMPDEST JUMP JUMPDEST PUSH2 0x1FC3 PUSH2 0x1F7B JUMP JUMPDEST PUSH0 PUSH20 0xFFFFFFFFFFFFFFFFFFFFFFFFFFFFFFFFFFFFFFFF AND DUP2 PUSH20 0xFFFFFFFFFFFFFFFFFFFFFFFFFFFFFFFFFFFFFFFF AND SUB PUSH2 0x2033 JUMPI PUSH0 PUSH1 0x40 MLOAD PUSH32 0x1E4FBDF700000000000000000000000000000000000000000000000000000000 DUP2 MSTORE PUSH1 0x4 ADD PUSH2 0x202A SWAP2 SWAP1 PUSH2 0x2866 JUMP JUMPDEST PUSH1 0x40 MLOAD DUP1 SWAP2 SUB SWAP1 REVERT JUMPDEST PUSH2 0x203C DUP2 PUSH2 0x1B42 JUMP JUMPDEST POP JUMP JUMPDEST PUSH2 0x2047 PUSH2 0x1F7B JUMP JUMPDEST PUSH1 0x1 PUSH0 DUP2 SWAP1 SSTORE POP JUMP JUMPDEST PUSH2 0x2058 PUSH2 0x1F7B JUMP JUMPDEST PUSH0 PUSH1 0x32 PUSH0 PUSH2 0x100 EXP DUP2 SLOAD DUP2 PUSH1 0xFF MUL NOT AND SWAP1 DUP4 ISZERO ISZERO MUL OR SWAP1 SSTORE POP JUMP JUMPDEST PUSH1 0x60 PUSH2 0x2081 DUP5 DUP5 PUSH0 DUP6 PUSH2 0x2236 JUMP JUMPDEST SWAP1 POP SWAP4 SWAP3 POP POP POP JUMP JUMPDEST PUSH0 DUP2 SWAP1 POP SWAP2 SWAP1 POP JUMP JUMPDEST PUSH0 DUP2 PUSH20 0xFFFFFFFFFFFFFFFFFFFFFFFFFFFFFFFFFFFFFFFF AND EXTCODESIZE SUB PUSH2 0x20EE JUMPI DUP1 PUSH1 0x40 MLOAD PUSH32 0x4C9C8CE300000000000000000000000000000000000000000000000000000000 DUP2 MSTORE PUSH1 0x4 ADD PUSH2 0x20E5 SWAP2 SWAP1 PUSH2 0x2866 JUMP JUMPDEST PUSH1 0x40 MLOAD DUP1 SWAP2 SUB SWAP1 REVERT JUMPDEST DUP1 PUSH2 0x211A PUSH32 0x360894A13BA1A3210667C828492DB98DCA3E2076CC3735A920A3CA505D382BBC PUSH0 SHL PUSH2 0x208A JUMP JUMPDEST PUSH0 ADD PUSH0 PUSH2 0x100 EXP DUP2 SLOAD DUP2 PUSH20 0xFFFFFFFFFFFFFFFFFFFFFFFFFFFFFFFFFFFFFFFF MUL NOT AND SWAP1 DUP4 PUSH20 0xFFFFFFFFFFFFFFFFFFFFFFFFFFFFFFFFFFFFFFFF AND MUL OR SWAP1 SSTORE POP POP JUMP JUMPDEST PUSH1 0x60 PUSH0 PUSH0 DUP5 PUSH20 0xFFFFFFFFFFFFFFFFFFFFFFFFFFFFFFFFFFFFFFFF AND DUP5 PUSH1 0x40 MLOAD PUSH2 0x2185 SWAP2 SWAP1 PUSH2 0x3261 JUMP JUMPDEST PUSH0 PUSH1 0x40 MLOAD DUP1 DUP4 SUB DUP2 DUP6 GAS DELEGATECALL SWAP2 POP POP RETURNDATASIZE DUP1 PUSH0 DUP2 EQ PUSH2 0x21BD JUMPI PUSH1 0x40 MLOAD SWAP2 POP PUSH1 0x1F NOT PUSH1 0x3F RETURNDATASIZE ADD AND DUP3 ADD PUSH1 0x40 MSTORE RETURNDATASIZE DUP3 MSTORE RETURNDATASIZE PUSH0 PUSH1 0x20 DUP5 ADD RETURNDATACOPY PUSH2 0x21C2 JUMP JUMPDEST PUSH1 0x60 SWAP2 POP JUMPDEST POP SWAP2 POP SWAP2 POP PUSH2 0x21D2 DUP6 DUP4 DUP4 PUSH2 0x22FF JUMP JUMPDEST SWAP3 POP POP POP SWAP3 SWAP2 POP POP JUMP JUMPDEST PUSH0 CALLVALUE GT ISZERO PUSH2 0x2216 JUMPI PUSH1 0x40 MLOAD PUSH32 0xB398979F00000000000000000000000000000000000000000000000000000000 DUP2 MSTORE PUSH1 0x4 ADD PUSH1 0x40 MLOAD DUP1 SWAP2 SUB SWAP1 REVERT JUMPDEST JUMP JUMPDEST PUSH0 PUSH2 0x2221 PUSH2 0x1D22 JUMP JUMPDEST PUSH0 ADD PUSH1 0x8 SWAP1 SLOAD SWAP1 PUSH2 0x100 EXP SWAP1 DIV PUSH1 0xFF AND SWAP1 POP SWAP1 JUMP JUMPDEST PUSH1 0x60 DUP3 SELFBALANCE LT ISZERO PUSH2 0x227B JUMPI PUSH1 0x40 MLOAD PUSH32 0x8C379A000000000000000000000000000000000000000000000000000000000 DUP2 MSTORE PUSH1 0x4 ADD PUSH2 0x2272 SWAP1 PUSH2 0x32E7 JUMP JUMPDEST PUSH1 0x40 MLOAD DUP1 SWAP2 SUB SWAP1 REVERT JUMPDEST PUSH0 PUSH0 DUP7 PUSH20 0xFFFFFFFFFFFFFFFFFFFFFFFFFFFFFFFFFFFFFFFF AND DUP6 DUP8 PUSH1 0x40 MLOAD PUSH2 0x22A3 SWAP2 SWAP1 PUSH2 0x3261 JUMP JUMPDEST PUSH0 PUSH1 0x40 MLOAD DUP1 DUP4 SUB DUP2 DUP6 DUP8 GAS CALL SWAP3 POP POP POP RETURNDATASIZE DUP1 PUSH0 DUP2 EQ PUSH2 0x22DD JUMPI PUSH1 0x40 MLOAD SWAP2 POP PUSH1 0x1F NOT PUSH1 0x3F RETURNDATASIZE ADD AND DUP3 ADD PUSH1 0x40 MSTORE RETURNDATASIZE DUP3 MSTORE RETURNDATASIZE PUSH0 PUSH1 0x20 DUP5 ADD RETURNDATACOPY PUSH2 0x22E2 JUMP JUMPDEST PUSH1 0x60 SWAP2 POP JUMPDEST POP SWAP2 POP SWAP2 POP PUSH2 0x22F3 DUP8 DUP4 DUP4 DUP8 PUSH2 0x238C JUMP JUMPDEST SWAP3 POP POP POP SWAP5 SWAP4 POP POP POP POP JUMP JUMPDEST PUSH1 0x60 DUP3 PUSH2 0x2314 JUMPI PUSH2 0x230F DUP3 PUSH2 0x2400 JUMP JUMPDEST PUSH2 0x2384 JUMP JUMPDEST PUSH0 DUP3 MLOAD EQ DUP1 ISZERO PUSH2 0x233A JUMPI POP PUSH0 DUP5 PUSH20 0xFFFFFFFFFFFFFFFFFFFFFFFFFFFFFFFFFFFFFFFF AND EXTCODESIZE EQ JUMPDEST ISZERO PUSH2 0x237C JUMPI DUP4 PUSH1 0x40 MLOAD PUSH32 0x9996B31500000000000000000000000000000000000000000000000000000000 DUP2 MSTORE PUSH1 0x4 ADD PUSH2 0x2373 SWAP2 SWAP1 PUSH2 0x2866 JUMP JUMPDEST PUSH1 0x40 MLOAD DUP1 SWAP2 SUB SWAP1 REVERT JUMPDEST DUP2 SWAP1 POP PUSH2 0x2385 JUMP JUMPDEST JUMPDEST SWAP4 SWAP3 POP POP POP JUMP JUMPDEST PUSH1 0x60 DUP4 ISZERO PUSH2 0x23ED JUMPI PUSH0 DUP4 MLOAD SUB PUSH2 0x23E5 JUMPI PUSH2 0x23A5 DUP6 PUSH2 0x2443 JUMP JUMPDEST PUSH2 0x23E4 JUMPI PUSH1 0x40 MLOAD PUSH32 0x8C379A000000000000000000000000000000000000000000000000000000000 DUP2 MSTORE PUSH1 0x4 ADD PUSH2 0x23DB SWAP1 PUSH2 0x334F JUMP JUMPDEST PUSH1 0x40 MLOAD DUP1 SWAP2 SUB SWAP1 REVERT JUMPDEST JUMPDEST DUP3 SWAP1 POP PUSH2 0x23F8 JUMP JUMPDEST PUSH2 0x23F7 DUP4 DUP4 PUSH2 0x2465 JUMP JUMPDEST JUMPDEST SWAP5 SWAP4 POP POP POP POP JUMP JUMPDEST PUSH0 DUP2 MLOAD GT ISZERO PUSH2 0x2411 JUMPI DUP1 MLOAD PUSH1 0x20 DUP3 ADD REVERT JUMPDEST PUSH1 0x40 MLOAD PUSH32 0xD6BDA27500000000000000000000000000000000000000000000000000000000 DUP2 MSTORE PUSH1 0x4 ADD PUSH1 0x40 MLOAD DUP1 SWAP2 SUB SWAP1 REVERT JUMPDEST PUSH0 PUSH0 DUP3 PUSH20 0xFFFFFFFFFFFFFFFFFFFFFFFFFFFFFFFFFFFFFFFF AND EXTCODESIZE GT SWAP1 POP SWAP2 SWAP1 POP JUMP JUMPDEST PUSH0 DUP3 MLOAD GT ISZERO PUSH2 0x2477 JUMPI DUP2 MLOAD DUP1 DUP4 PUSH1 0x20 ADD REVERT JUMPDEST DUP1 PUSH1 0x40 MLOAD PUSH32 0x8C379A000000000000000000000000000000000000000000000000000000000 DUP2 MSTORE PUSH1 0x4 ADD PUSH2 0x24AB SWAP2 SWAP1 PUSH2 0x29EA JUMP JUMPDEST PUSH1 0x40 MLOAD DUP1 SWAP2 SUB SWAP1 REVERT JUMPDEST PUSH0 PUSH1 0x40 MLOAD SWAP1 POP SWAP1 JUMP JUMPDEST PUSH0 PUSH0 REVERT JUMPDEST PUSH0 PUSH0 REVERT JUMPDEST PUSH0 DUP2 SWAP1 POP SWAP2 SWAP1 POP JUMP JUMPDEST PUSH2 0x24D7 DUP2 PUSH2 0x24C5 JUMP JUMPDEST DUP2 EQ PUSH2 0x24E1 JUMPI PUSH0 PUSH0 REVERT JUMPDEST POP JUMP JUMPDEST PUSH0 DUP2 CALLDATALOAD SWAP1 POP PUSH2 0x24F2 DUP2 PUSH2 0x24CE JUMP JUMPDEST SWAP3 SWAP2 POP POP JUMP JUMPDEST PUSH0 PUSH20 0xFFFFFFFFFFFFFFFFFFFFFFFFFFFFFFFFFFFFFFFF DUP3 AND SWAP1 POP SWAP2 SWAP1 POP JUMP JUMPDEST PUSH0 PUSH2 0x2521 DUP3 PUSH2 0x24F8 JUMP JUMPDEST SWAP1 POP SWAP2 SWAP1 POP JUMP JUMPDEST PUSH2 0x2531 DUP2 PUSH2 0x2517 JUMP JUMPDEST DUP2 EQ PUSH2 0x253B JUMPI PUSH0 PUSH0 REVERT JUMPDEST POP JUMP JUMPDEST PUSH0 DUP2 CALLDATALOAD SWAP1 POP PUSH2 0x254C DUP2 PUSH2 0x2528 JUMP JUMPDEST SWAP3 SWAP2 POP POP JUMP JUMPDEST PUSH0 PUSH0 PUSH1 0x40 DUP4 DUP6 SUB SLT ISZERO PUSH2 0x2568 JUMPI PUSH2 0x2567 PUSH2 0x24BD JUMP JUMPDEST JUMPDEST PUSH0 PUSH2 0x2575 DUP6 DUP3 DUP7 ADD PUSH2 0x24E4 JUMP JUMPDEST SWAP3 POP POP PUSH1 0x20 PUSH2 0x2586 DUP6 DUP3 DUP7 ADD PUSH2 0x253E JUMP JUMPDEST SWAP2 POP POP SWAP3 POP SWAP3 SWAP1 POP JUMP JUMPDEST PUSH2 0x2599 DUP2 PUSH2 0x24C5 JUMP JUMPDEST DUP3 MSTORE POP POP JUMP JUMPDEST PUSH0 PUSH1 0x20 DUP3 ADD SWAP1 POP PUSH2 0x25B2 PUSH0 DUP4 ADD DUP5 PUSH2 0x2590 JUMP JUMPDEST SWAP3 SWAP2 POP POP JUMP JUMPDEST PUSH0 DUP2 ISZERO ISZERO SWAP1 POP SWAP2 SWAP1 POP JUMP JUMPDEST PUSH2 0x25CC DUP2 PUSH2 0x25B8 JUMP JUMPDEST DUP2 EQ PUSH2 0x25D6 JUMPI PUSH0 PUSH0 REVERT JUMPDEST POP JUMP JUMPDEST PUSH0 DUP2 CALLDATALOAD SWAP1 POP PUSH2 0x25E7 DUP2 PUSH2 0x25C3 JUMP JUMPDEST SWAP3 SWAP2 POP POP JUMP JUMPDEST PUSH0 PUSH0 PUSH0 PUSH1 0x60 DUP5 DUP7 SUB SLT ISZERO PUSH2 0x2604 JUMPI PUSH2 0x2603 PUSH2 0x24BD JUMP JUMPDEST JUMPDEST PUSH0 PUSH2 0x2611 DUP7 DUP3 DUP8 ADD PUSH2 0x24E4 JUMP JUMPDEST SWAP4 POP POP PUSH1 0x20 PUSH2 0x2622 DUP7 DUP3 DUP8 ADD PUSH2 0x25D9 JUMP JUMPDEST SWAP3 POP POP PUSH1 0x40 PUSH2 0x2633 DUP7 DUP3 DUP8 ADD PUSH2 0x24E4 JUMP JUMPDEST SWAP2 POP POP SWAP3 POP SWAP3 POP SWAP3 JUMP JUMPDEST PUSH0 PUSH0 REVERT JUMPDEST PUSH0 PUSH0 REVERT JUMPDEST PUSH0 PUSH1 0x1F NOT PUSH1 0x1F DUP4 ADD AND SWAP1 POP SWAP2 SWAP1 POP JUMP JUMPDEST PUSH32 0x4E487B7100000000000000000000000000000000000000000000000000000000 PUSH0 MSTORE PUSH1 0x41 PUSH1 0x4 MSTORE PUSH1 0x24 PUSH0 REVERT JUMPDEST PUSH2 0x268B DUP3 PUSH2 0x2645 JUMP JUMPDEST DUP2 ADD DUP2 DUP2 LT PUSH8 0xFFFFFFFFFFFFFFFF DUP3 GT OR ISZERO PUSH2 0x26AA JUMPI PUSH2 0x26A9 PUSH2 0x2655 JUMP JUMPDEST JUMPDEST DUP1 PUSH1 0x40 MSTORE POP POP POP JUMP JUMPDEST PUSH0 PUSH2 0x26BC PUSH2 0x24B4 JUMP JUMPDEST SWAP1 POP PUSH2 0x26C8 DUP3 DUP3 PUSH2 0x2682 JUMP JUMPDEST SWAP2 SWAP1 POP JUMP JUMPDEST PUSH0 PUSH8 0xFFFFFFFFFFFFFFFF DUP3 GT ISZERO PUSH2 0x26E7 JUMPI PUSH2 0x26E6 PUSH2 0x2655 JUMP JUMPDEST JUMPDEST PUSH2 0x26F0 DUP3 PUSH2 0x2645 JUMP JUMPDEST SWAP1 POP PUSH1 0x20 DUP2 ADD SWAP1 POP SWAP2 SWAP1 POP JUMP JUMPDEST DUP3 DUP2 DUP4 CALLDATACOPY PUSH0 DUP4 DUP4 ADD MSTORE POP POP POP JUMP JUMPDEST PUSH0 PUSH2 0x271D PUSH2 0x2718 DUP5 PUSH2 0x26CD JUMP JUMPDEST PUSH2 0x26B3 JUMP JUMPDEST SWAP1 POP DUP3 DUP2 MSTORE PUSH1 0x20 DUP2 ADD DUP5 DUP5 DUP5 ADD GT ISZERO PUSH2 0x2739 JUMPI PUSH2 0x2738 PUSH2 0x2641 JUMP JUMPDEST JUMPDEST PUSH2 0x2744 DUP5 DUP3 DUP6 PUSH2 0x26FD JUMP JUMPDEST POP SWAP4 SWAP3 POP POP POP JUMP JUMPDEST PUSH0 DUP3 PUSH1 0x1F DUP4 ADD SLT PUSH2 0x2760 JUMPI PUSH2 0x275F PUSH2 0x263D JUMP JUMPDEST JUMPDEST DUP2 CALLDATALOAD PUSH2 0x2770 DUP5 DUP3 PUSH1 0x20 DUP7 ADD PUSH2 0x270B JUMP JUMPDEST SWAP2 POP POP SWAP3 SWAP2 POP POP JUMP JUMPDEST PUSH0 PUSH0 PUSH1 0x40 DUP4 DUP6 SUB SLT ISZERO PUSH2 0x278F JUMPI PUSH2 0x278E PUSH2 0x24BD JUMP JUMPDEST JUMPDEST PUSH0 PUSH2 0x279C DUP6 DUP3 DUP7 ADD PUSH2 0x253E JUMP JUMPDEST SWAP3 POP POP PUSH1 0x20 DUP4 ADD CALLDATALOAD PUSH8 0xFFFFFFFFFFFFFFFF DUP2 GT ISZERO PUSH2 0x27BD JUMPI PUSH2 0x27BC PUSH2 0x24C1 JUMP JUMPDEST JUMPDEST PUSH2 0x27C9 DUP6 DUP3 DUP7 ADD PUSH2 0x274C JUMP JUMPDEST SWAP2 POP POP SWAP3 POP SWAP3 SWAP1 POP JUMP JUMPDEST PUSH0 DUP2 SWAP1 POP SWAP2 SWAP1 POP JUMP JUMPDEST PUSH2 0x27E5 DUP2 PUSH2 0x27D3 JUMP JUMPDEST DUP3 MSTORE POP POP JUMP JUMPDEST PUSH0 PUSH1 0x20 DUP3 ADD SWAP1 POP PUSH2 0x27FE PUSH0 DUP4 ADD DUP5 PUSH2 0x27DC JUMP JUMPDEST SWAP3 SWAP2 POP POP JUMP JUMPDEST PUSH2 0x280D DUP2 PUSH2 0x25B8 JUMP JUMPDEST DUP3 MSTORE POP POP JUMP JUMPDEST PUSH0 PUSH1 0x20 DUP3 ADD SWAP1 POP PUSH2 0x2826 PUSH0 DUP4 ADD DUP5 PUSH2 0x2804 JUMP JUMPDEST SWAP3 SWAP2 POP POP JUMP JUMPDEST PUSH0 PUSH1 0x20 DUP3 DUP5 SUB SLT ISZERO PUSH2 0x2841 JUMPI PUSH2 0x2840 PUSH2 0x24BD JUMP JUMPDEST JUMPDEST PUSH0 PUSH2 0x284E DUP5 DUP3 DUP6 ADD PUSH2 0x24E4 JUMP JUMPDEST SWAP2 POP POP SWAP3 SWAP2 POP POP JUMP JUMPDEST PUSH2 0x2860 DUP2 PUSH2 0x2517 JUMP JUMPDEST DUP3 MSTORE POP POP JUMP JUMPDEST PUSH0 PUSH1 0x20 DUP3 ADD SWAP1 POP PUSH2 0x2879 PUSH0 DUP4 ADD DUP5 PUSH2 0x2857 JUMP JUMPDEST SWAP3 SWAP2 POP POP JUMP JUMPDEST PUSH0 PUSH8 0xFFFFFFFFFFFFFFFF DUP3 AND SWAP1 POP SWAP2 SWAP1 POP JUMP JUMPDEST PUSH2 0x289B DUP2 PUSH2 0x287F JUMP JUMPDEST DUP2 EQ PUSH2 0x28A5 JUMPI PUSH0 PUSH0 REVERT JUMPDEST POP JUMP JUMPDEST PUSH0 DUP2 CALLDATALOAD SWAP1 POP PUSH2 0x28B6 DUP2 PUSH2 0x2892 JUMP JUMPDEST SWAP3 SWAP2 POP POP JUMP JUMPDEST PUSH0 PUSH2 0xFFFF DUP3 AND SWAP1 POP SWAP2 SWAP1 POP JUMP JUMPDEST PUSH2 0x28D2 DUP2 PUSH2 0x28BC JUMP JUMPDEST DUP2 EQ PUSH2 0x28DC JUMPI PUSH0 PUSH0 REVERT JUMPDEST POP JUMP JUMPDEST PUSH0 DUP2 CALLDATALOAD SWAP1 POP PUSH2 0x28ED DUP2 PUSH2 0x28C9 JUMP JUMPDEST SWAP3 SWAP2 POP POP JUMP JUMPDEST PUSH0 DUP2 SWAP1 POP SWAP2 SWAP1 POP JUMP JUMPDEST PUSH2 0x2905 DUP2 PUSH2 0x28F3 JUMP JUMPDEST DUP2 EQ PUSH2 0x290F JUMPI PUSH0 PUSH0 REVERT JUMPDEST POP JUMP JUMPDEST PUSH0 DUP2 CALLDATALOAD SWAP1 POP PUSH2 0x2920 DUP2 PUSH2 0x28FC JUMP JUMPDEST SWAP3 SWAP2 POP POP JUMP JUMPDEST PUSH0 PUSH0 PUSH0 PUSH0 PUSH1 0x80 DUP6 DUP8 SUB SLT ISZERO PUSH2 0x293E JUMPI PUSH2 0x293D PUSH2 0x24BD JUMP JUMPDEST JUMPDEST PUSH0 PUSH2 0x294B DUP8 DUP3 DUP9 ADD PUSH2 0x28A8 JUMP JUMPDEST SWAP5 POP POP PUSH1 0x20 PUSH2 0x295C DUP8 DUP3 DUP9 ADD PUSH2 0x28DF JUMP JUMPDEST SWAP4 POP POP PUSH1 0x40 PUSH2 0x296D DUP8 DUP3 DUP9 ADD PUSH2 0x253E JUMP JUMPDEST SWAP3 POP POP PUSH1 0x60 PUSH2 0x297E DUP8 DUP3 DUP9 ADD PUSH2 0x2912 JUMP JUMPDEST SWAP2 POP POP SWAP3 SWAP6 SWAP2 SWAP5 POP SWAP3 POP JUMP JUMPDEST PUSH0 DUP2 MLOAD SWAP1 POP SWAP2 SWAP1 POP JUMP JUMPDEST PUSH0 DUP3 DUP3 MSTORE PUSH1 0x20 DUP3 ADD SWAP1 POP SWAP3 SWAP2 POP POP JUMP JUMPDEST DUP3 DUP2 DUP4 MCOPY PUSH0 DUP4 DUP4 ADD MSTORE POP POP POP JUMP JUMPDEST PUSH0 PUSH2 0x29BC DUP3 PUSH2 0x298A JUMP JUMPDEST PUSH2 0x29C6 DUP2 DUP6 PUSH2 0x2994 JUMP JUMPDEST SWAP4 POP PUSH2 0x29D6 DUP2 DUP6 PUSH1 0x20 DUP7 ADD PUSH2 0x29A4 JUMP JUMPDEST PUSH2 0x29DF DUP2 PUSH2 0x2645 JUMP JUMPDEST DUP5 ADD SWAP2 POP POP SWAP3 SWAP2 POP POP JUMP JUMPDEST PUSH0 PUSH1 0x20 DUP3 ADD SWAP1 POP DUP2 DUP2 SUB PUSH0 DUP4 ADD MSTORE PUSH2 0x2A02 DUP2 DUP5 PUSH2 0x29B2 JUMP JUMPDEST SWAP1 POP SWAP3 SWAP2 POP POP JUMP JUMPDEST PUSH0 PUSH16 0xFFFFFFFFFFFFFFFFFFFFFFFFFFFFFFFF DUP3 AND SWAP1 POP SWAP2 SWAP1 POP JUMP JUMPDEST PUSH2 0x2A2E DUP2 PUSH2 0x2A0A JUMP JUMPDEST DUP3 MSTORE POP POP JUMP JUMPDEST PUSH2 0x2A3D DUP2 PUSH2 0x287F JUMP JUMPDEST DUP3 MSTORE POP POP JUMP JUMPDEST PUSH2 0x2A4C DUP2 PUSH2 0x28BC JUMP JUMPDEST DUP3 MSTORE POP POP JUMP JUMPDEST PUSH32 0x4E487B7100000000000000000000000000000000000000000000000000000000 PUSH0 MSTORE PUSH1 0x21 PUSH1 0x4 MSTORE PUSH1 0x24 PUSH0 REVERT JUMPDEST PUSH1 0x4 DUP2 LT PUSH2 0x2A90 JUMPI PUSH2 0x2A8F PUSH2 0x2A52 JUMP JUMPDEST JUMPDEST POP JUMP JUMPDEST PUSH0 DUP2 SWAP1 POP PUSH2 0x2AA0 DUP3 PUSH2 0x2A7F JUMP JUMPDEST SWAP2 SWAP1 POP JUMP JUMPDEST PUSH0 PUSH2 0x2AAF DUP3 PUSH2 0x2A93 JUMP JUMPDEST SWAP1 POP SWAP2 SWAP1 POP JUMP JUMPDEST PUSH2 0x2ABF DUP2 PUSH2 0x2AA5 JUMP JUMPDEST DUP3 MSTORE POP POP JUMP JUMPDEST PUSH2 0x2ACE DUP2 PUSH2 0x28F3 JUMP JUMPDEST DUP3 MSTORE POP POP JUMP JUMPDEST PUSH0 PUSH2 0x100 DUP3 ADD SWAP1 POP PUSH2 0x2AE8 PUSH0 DUP4 ADD DUP12 PUSH2 0x2A25 JUMP JUMPDEST PUSH2 0x2AF5 PUSH1 0x20 DUP4 ADD DUP11 PUSH2 0x2A25 JUMP JUMPDEST PUSH2 0x2B02 PUSH1 0x40 DUP4 ADD DUP10 PUSH2 0x2A34 JUMP JUMPDEST PUSH2 0x2B0F PUSH1 0x60 DUP4 ADD DUP9 PUSH2 0x2A43 JUMP JUMPDEST PUSH2 0x2B1C PUSH1 0x80 DUP4 ADD DUP8 PUSH2 0x2804 JUMP JUMPDEST PUSH2 0x2B29 PUSH1 0xA0 DUP4 ADD DUP7 PUSH2 0x2AB6 JUMP JUMPDEST PUSH2 0x2B36 PUSH1 0xC0 DUP4 ADD DUP6 PUSH2 0x2857 JUMP JUMPDEST PUSH2 0x2B43 PUSH1 0xE0 DUP4 ADD DUP5 PUSH2 0x2AC5 JUMP JUMPDEST SWAP10 SWAP9 POP POP POP POP POP POP POP POP POP JUMP JUMPDEST PUSH0 PUSH1 0x20 DUP3 ADD SWAP1 POP PUSH2 0x2B63 PUSH0 DUP4 ADD DUP5 PUSH2 0x2A43 JUMP JUMPDEST SWAP3 SWAP2 POP POP JUMP JUMPDEST PUSH0 PUSH1 0x20 DUP3 DUP5 SUB SLT ISZERO PUSH2 0x2B7E JUMPI PUSH2 0x2B7D PUSH2 0x24BD JUMP JUMPDEST JUMPDEST PUSH0 PUSH2 0x2B8B DUP5 DUP3 DUP6 ADD PUSH2 0x253E JUMP JUMPDEST SWAP2 POP POP SWAP3 SWAP2 POP POP JUMP JUMPDEST PUSH0 DUP2 SWAP1 POP SWAP2 SWAP1 POP JUMP JUMPDEST PUSH0 PUSH2 0x2BB7 PUSH2 0x2BB2 PUSH2 0x2BAD DUP5 PUSH2 0x24F8 JUMP JUMPDEST PUSH2 0x2B94 JUMP JUMPDEST PUSH2 0x24F8 JUMP JUMPDEST SWAP1 POP SWAP2 SWAP1 POP JUMP JUMPDEST PUSH0 PUSH2 0x2BC8 DUP3 PUSH2 0x2B9D JUMP JUMPDEST SWAP1 POP SWAP2 SWAP1 POP JUMP JUMPDEST PUSH0 PUSH2 0x2BD9 DUP3 PUSH2 0x2BBE JUMP JUMPDEST SWAP1 POP SWAP2 SWAP1 POP JUMP JUMPDEST PUSH2 0x2BE9 DUP2 PUSH2 0x2BCF JUMP JUMPDEST DUP3 MSTORE POP POP JUMP JUMPDEST PUSH0 PUSH1 0x20 DUP3 ADD SWAP1 POP PUSH2 0x2C02 PUSH0 DUP4 ADD DUP5 PUSH2 0x2BE0 JUMP JUMPDEST SWAP3 SWAP2 POP POP JUMP JUMPDEST PUSH32 0x4E487B7100000000000000000000000000000000000000000000000000000000 PUSH0 MSTORE PUSH1 0x11 PUSH1 0x4 MSTORE PUSH1 0x24 PUSH0 REVERT JUMPDEST PUSH0 PUSH2 0x2C3F DUP3 PUSH2 0x24C5 JUMP JUMPDEST SWAP2 POP PUSH2 0x2C4A DUP4 PUSH2 0x24C5 JUMP JUMPDEST SWAP3 POP DUP3 DUP3 ADD SWAP1 POP DUP1 DUP3 GT ISZERO PUSH2 0x2C62 JUMPI PUSH2 0x2C61 PUSH2 0x2C08 JUMP JUMPDEST JUMPDEST SWAP3 SWAP2 POP POP JUMP JUMPDEST PUSH0 PUSH2 0x2C72 DUP3 PUSH2 0x2A0A JUMP JUMPDEST SWAP2 POP PUSH2 0x2C7D DUP4 PUSH2 0x2A0A JUMP JUMPDEST SWAP3 POP DUP3 DUP3 ADD SWAP1 POP PUSH16 0xFFFFFFFFFFFFFFFFFFFFFFFFFFFFFFFF DUP2 GT ISZERO PUSH2 0x2CA5 JUMPI PUSH2 0x2CA4 PUSH2 0x2C08 JUMP JUMPDEST JUMPDEST SWAP3 SWAP2 POP POP JUMP JUMPDEST PUSH0 PUSH1 0x40 DUP3 ADD SWAP1 POP PUSH2 0x2CBE PUSH0 DUP4 ADD DUP6 PUSH2 0x2804 JUMP JUMPDEST PUSH2 0x2CCB PUSH1 0x20 DUP4 ADD DUP5 PUSH2 0x2590 JUMP JUMPDEST SWAP4 SWAP3 POP POP POP JUMP JUMPDEST PUSH0 PUSH10 0xFFFFFFFFFFFFFFFFFFFF DUP3 AND SWAP1 POP SWAP2 SWAP1 POP JUMP JUMPDEST PUSH2 0x2CF0 DUP2 PUSH2 0x2CD2 JUMP JUMPDEST DUP2 EQ PUSH2 0x2CFA JUMPI PUSH0 PUSH0 REVERT JUMPDEST POP JUMP JUMPDEST PUSH0 DUP2 MLOAD SWAP1 POP PUSH2 0x2D0B DUP2 PUSH2 0x2CE7 JUMP JUMPDEST SWAP3 SWAP2 POP POP JUMP JUMPDEST PUSH0 DUP2 MLOAD SWAP1 POP PUSH2 0x2D1F DUP2 PUSH2 0x28FC JUMP JUMPDEST SWAP3 SWAP2 POP POP JUMP JUMPDEST PUSH0 DUP2 MLOAD SWAP1 POP PUSH2 0x2D33 DUP2 PUSH2 0x24CE JUMP JUMPDEST SWAP3 SWAP2 POP POP JUMP JUMPDEST PUSH0 PUSH0 PUSH0 PUSH0 PUSH0 PUSH1 0xA0 DUP7 DUP9 SUB SLT ISZERO PUSH2 0x2D52 JUMPI PUSH2 0x2D51 PUSH2 0x24BD JUMP JUMPDEST JUMPDEST PUSH0 PUSH2 0x2D5F DUP9 DUP3 DUP10 ADD PUSH2 0x2CFD JUMP JUMPDEST SWAP6 POP POP PUSH1 0x20 PUSH2 0x2D70 DUP9 DUP3 DUP10 ADD PUSH2 0x2D11 JUMP JUMPDEST SWAP5 POP POP PUSH1 0x40 PUSH2 0x2D81 DUP9 DUP3 DUP10 ADD PUSH2 0x2D25 JUMP JUMPDEST SWAP4 POP POP PUSH1 0x60 PUSH2 0x2D92 DUP9 DUP3 DUP10 ADD PUSH2 0x2D25 JUMP JUMPDEST SWAP3 POP POP PUSH1 0x80 PUSH2 0x2DA3 DUP9 DUP3 DUP10 ADD PUSH2 0x2CFD JUMP JUMPDEST SWAP2 POP POP SWAP3 SWAP6 POP SWAP3 SWAP6 SWAP1 SWAP4 POP JUMP JUMPDEST PUSH0 PUSH1 0xFF DUP3 AND SWAP1 POP SWAP2 SWAP1 POP JUMP JUMPDEST PUSH2 0x2DC5 DUP2 PUSH2 0x2DB0 JUMP JUMPDEST DUP3 MSTORE POP POP JUMP JUMPDEST PUSH0 PUSH1 0x20 DUP3 ADD SWAP1 POP PUSH2 0x2DDE PUSH0 DUP4 ADD DUP5 PUSH2 0x2DBC JUMP JUMPDEST SWAP3 SWAP2 POP POP JUMP JUMPDEST PUSH0 PUSH1 0x20 DUP3 ADD SWAP1 POP PUSH2 0x2DF7 PUSH0 DUP4 ADD DUP5 PUSH2 0x2AC5 JUMP JUMPDEST SWAP3 SWAP2 POP POP JUMP JUMPDEST PUSH0 PUSH2 0x2E07 DUP3 PUSH2 0x24C5 JUMP JUMPDEST SWAP2 POP PUSH32 0xFFFFFFFFFFFFFFFFFFFFFFFFFFFFFFFFFFFFFFFFFFFFFFFFFFFFFFFFFFFFFFFF DUP3 SUB PUSH2 0x2E39 JUMPI PUSH2 0x2E38 PUSH2 0x2C08 JUMP JUMPDEST JUMPDEST PUSH1 0x1 DUP3 ADD SWAP1 POP SWAP2 SWAP1 POP JUMP JUMPDEST PUSH0 PUSH2 0x2E4E DUP3 PUSH2 0x24C5 JUMP JUMPDEST SWAP2 POP PUSH2 0x2E59 DUP4 PUSH2 0x24C5 JUMP JUMPDEST SWAP3 POP DUP3 DUP3 MUL PUSH2 0x2E67 DUP2 PUSH2 0x24C5 JUMP JUMPDEST SWAP2 POP DUP3 DUP3 DIV DUP5 EQ DUP4 ISZERO OR PUSH2 0x2E7E JUMPI PUSH2 0x2E7D PUSH2 0x2C08 JUMP JUMPDEST JUMPDEST POP SWAP3 SWAP2 POP POP JUMP JUMPDEST PUSH32 0x4E487B7100000000000000000000000000000000000000000000000000000000 PUSH0 MSTORE PUSH1 0x12 PUSH1 0x4 MSTORE PUSH1 0x24 PUSH0 REVERT JUMPDEST PUSH0 PUSH2 0x2EBC DUP3 PUSH2 0x24C5 JUMP JUMPDEST SWAP2 POP PUSH2 0x2EC7 DUP4 PUSH2 0x24C5 JUMP JUMPDEST SWAP3 POP DUP3 PUSH2 0x2ED7 JUMPI PUSH2 0x2ED6 PUSH2 0x2E85 JUMP JUMPDEST JUMPDEST DUP3 DUP3 DIV SWAP1 POP SWAP3 SWAP2 POP POP JUMP JUMPDEST PUSH0 PUSH2 0x2EEC DUP3 PUSH2 0x24C5 JUMP JUMPDEST SWAP2 POP PUSH2 0x2EF7 DUP4 PUSH2 0x24C5 JUMP JUMPDEST SWAP3 POP DUP3 DUP3 SUB SWAP1 POP DUP2 DUP2 GT ISZERO PUSH2 0x2F0F JUMPI PUSH2 0x2F0E PUSH2 0x2C08 JUMP JUMPDEST JUMPDEST SWAP3 SWAP2 POP POP JUMP JUMPDEST PUSH0 DUP2 SWAP1 POP SWAP2 SWAP1 POP JUMP JUMPDEST PUSH0 PUSH2 0x2F38 PUSH2 0x2F33 PUSH2 0x2F2E DUP5 PUSH2 0x2F15 JUMP JUMPDEST PUSH2 0x2B94 JUMP JUMPDEST PUSH2 0x287F JUMP JUMPDEST SWAP1 POP SWAP2 SWAP1 POP JUMP JUMPDEST PUSH2 0x2F48 DUP2 PUSH2 0x2F1E JUMP JUMPDEST DUP3 MSTORE POP POP JUMP JUMPDEST PUSH0 PUSH1 0x20 DUP3 ADD SWAP1 POP PUSH2 0x2F61 PUSH0 DUP4 ADD DUP5 PUSH2 0x2F3F JUMP JUMPDEST SWAP3 SWAP2 POP POP JUMP JUMPDEST PUSH32 0x5265656E7472616E637947756172643A207265656E7472616E742063616C6C00 PUSH0 DUP3 ADD MSTORE POP JUMP JUMPDEST PUSH0 PUSH2 0x2F9B PUSH1 0x1F DUP4 PUSH2 0x2994 JUMP JUMPDEST SWAP2 POP PUSH2 0x2FA6 DUP3 PUSH2 0x2F67 JUMP JUMPDEST PUSH1 0x20 DUP3 ADD SWAP1 POP SWAP2 SWAP1 POP JUMP JUMPDEST PUSH0 PUSH1 0x20 DUP3 ADD SWAP1 POP DUP2 DUP2 SUB PUSH0 DUP4 ADD MSTORE PUSH2 0x2FC8 DUP2 PUSH2 0x2F8F JUMP JUMPDEST SWAP1 POP SWAP2 SWAP1 POP JUMP JUMPDEST PUSH32 0x5061757361626C653A2070617573656400000000000000000000000000000000 PUSH0 DUP3 ADD MSTORE POP JUMP JUMPDEST PUSH0 PUSH2 0x3003 PUSH1 0x10 DUP4 PUSH2 0x2994 JUMP JUMPDEST SWAP2 POP PUSH2 0x300E DUP3 PUSH2 0x2FCF JUMP JUMPDEST PUSH1 0x20 DUP3 ADD SWAP1 POP SWAP2 SWAP1 POP JUMP JUMPDEST PUSH0 PUSH1 0x20 DUP3 ADD SWAP1 POP DUP2 DUP2 SUB PUSH0 DUP4 ADD MSTORE PUSH2 0x3030 DUP2 PUSH2 0x2FF7 JUMP JUMPDEST SWAP1 POP SWAP2 SWAP1 POP JUMP JUMPDEST PUSH0 PUSH1 0x60 DUP3 ADD SWAP1 POP PUSH2 0x304A PUSH0 DUP4 ADD DUP7 PUSH2 0x2857 JUMP JUMPDEST PUSH2 0x3057 PUSH1 0x20 DUP4 ADD DUP6 PUSH2 0x2857 JUMP JUMPDEST PUSH2 0x3064 PUSH1 0x40 DUP4 ADD DUP5 PUSH2 0x2590 JUMP JUMPDEST SWAP5 SWAP4 POP POP POP POP JUMP JUMPDEST PUSH2 0x3075 DUP2 PUSH2 0x27D3 JUMP JUMPDEST DUP2 EQ PUSH2 0x307F JUMPI PUSH0 PUSH0 REVERT JUMPDEST POP JUMP JUMPDEST PUSH0 DUP2 MLOAD SWAP1 POP PUSH2 0x3090 DUP2 PUSH2 0x306C JUMP JUMPDEST SWAP3 SWAP2 POP POP JUMP JUMPDEST PUSH0 PUSH1 0x20 DUP3 DUP5 SUB SLT ISZERO PUSH2 0x30AB JUMPI PUSH2 0x30AA PUSH2 0x24BD JUMP JUMPDEST JUMPDEST PUSH0 PUSH2 0x30B8 DUP5 DUP3 DUP6 ADD PUSH2 0x3082 JUMP JUMPDEST SWAP2 POP POP SWAP3 SWAP2 POP POP JUMP JUMPDEST PUSH0 PUSH1 0x40 DUP3 ADD SWAP1 POP PUSH2 0x30D4 PUSH0 DUP4 ADD DUP6 PUSH2 0x2857 JUMP JUMPDEST PUSH2 0x30E1 PUSH1 0x20 DUP4 ADD DUP5 PUSH2 0x2590 JUMP JUMPDEST SWAP4 SWAP3 POP POP POP JUMP JUMPDEST PUSH0 DUP2 MLOAD SWAP1 POP PUSH2 0x30F6 DUP2 PUSH2 0x25C3 JUMP JUMPDEST SWAP3 SWAP2 POP POP JUMP JUMPDEST PUSH0 PUSH1 0x20 DUP3 DUP5 SUB SLT ISZERO PUSH2 0x3111 JUMPI PUSH2 0x3110 PUSH2 0x24BD JUMP JUMPDEST JUMPDEST PUSH0 PUSH2 0x311E DUP5 DUP3 DUP6 ADD PUSH2 0x30E8 JUMP JUMPDEST SWAP2 POP POP SWAP3 SWAP2 POP POP JUMP JUMPDEST PUSH32 0x5361666545524332303A204552433230206F7065726174696F6E20646964206E PUSH0 DUP3 ADD MSTORE PUSH32 0x6F74207375636365656400000000000000000000000000000000000000000000 PUSH1 0x20 DUP3 ADD MSTORE POP JUMP JUMPDEST PUSH0 PUSH2 0x3181 PUSH1 0x2A DUP4 PUSH2 0x2994 JUMP JUMPDEST SWAP2 POP PUSH2 0x318C DUP3 PUSH2 0x3127 JUMP JUMPDEST PUSH1 0x40 DUP3 ADD SWAP1 POP SWAP2 SWAP1 POP JUMP JUMPDEST PUSH0 PUSH1 0x20 DUP3 ADD SWAP1 POP DUP2 DUP2 SUB PUSH0 DUP4 ADD MSTORE PUSH2 0x31AE DUP2 PUSH2 0x3175 JUMP JUMPDEST SWAP1 POP SWAP2 SWAP1 POP JUMP JUMPDEST PUSH32 0x5061757361626C653A206E6F7420706175736564000000000000000000000000 PUSH0 DUP3 ADD MSTORE POP JUMP JUMPDEST PUSH0 PUSH2 0x31E9 PUSH1 0x14 DUP4 PUSH2 0x2994 JUMP JUMPDEST SWAP2 POP PUSH2 0x31F4 DUP3 PUSH2 0x31B5 JUMP JUMPDEST PUSH1 0x20 DUP3 ADD SWAP1 POP SWAP2 SWAP1 POP JUMP JUMPDEST PUSH0 PUSH1 0x20 DUP3 ADD SWAP1 POP DUP2 DUP2 SUB PUSH0 DUP4 ADD MSTORE PUSH2 0x3216 DUP2 PUSH2 0x31DD JUMP JUMPDEST SWAP1 POP SWAP2 SWAP1 POP JUMP JUMPDEST PUSH0 DUP2 MLOAD SWAP1 POP SWAP2 SWAP1 POP JUMP JUMPDEST PUSH0 DUP2 SWAP1 POP SWAP3 SWAP2 POP POP JUMP JUMPDEST PUSH0 PUSH2 0x323B DUP3 PUSH2 0x321D JUMP JUMPDEST PUSH2 0x3245 DUP2 DUP6 PUSH2 0x3227 JUMP JUMPDEST SWAP4 POP PUSH2 0x3255 DUP2 DUP6 PUSH1 0x20 DUP7 ADD PUSH2 0x29A4 JUMP JUMPDEST DUP1 DUP5 ADD SWAP2 POP POP SWAP3 SWAP2 POP POP JUMP JUMPDEST PUSH0 PUSH2 0x326C DUP3 DUP5 PUSH2 0x3231 JUMP JUMPDEST SWAP2 POP DUP2 SWAP1 POP SWAP3 SWAP2 POP POP JUMP JUMPDEST PUSH32 0x416464726573733A20696E73756666696369656E742062616C616E636520666F PUSH0 DUP3 ADD MSTORE PUSH32 0x722063616C6C0000000000000000000000000000000000000000000000000000 PUSH1 0x20 DUP3 ADD MSTORE POP JUMP JUMPDEST PUSH0 PUSH2 0x32D1 PUSH1 0x26 DUP4 PUSH2 0x2994 JUMP JUMPDEST SWAP2 POP PUSH2 0x32DC DUP3 PUSH2 0x3277 JUMP JUMPDEST PUSH1 0x40 DUP3 ADD SWAP1 POP SWAP2 SWAP1 POP JUMP JUMPDEST PUSH0 PUSH1 0x20 DUP3 ADD SWAP1 POP DUP2 DUP2 SUB PUSH0 DUP4 ADD MSTORE PUSH2 0x32FE DUP2 PUSH2 0x32C5 JUMP JUMPDEST SWAP1 POP SWAP2 SWAP1 POP JUMP JUMPDEST PUSH32 0x416464726573733A2063616C6C20746F206E6F6E2D636F6E7472616374000000 PUSH0 DUP3 ADD MSTORE POP JUMP JUMPDEST PUSH0 PUSH2 0x3339 PUSH1 0x1D DUP4 PUSH2 0x2994 JUMP JUMPDEST SWAP2 POP PUSH2 0x3344 DUP3 PUSH2 0x3305 JUMP JUMPDEST PUSH1 0x20 DUP3 ADD SWAP1 POP SWAP2 SWAP1 POP JUMP JUMPDEST PUSH0 PUSH1 0x20 DUP3 ADD SWAP1 POP DUP2 DUP2 SUB PUSH0 DUP4 ADD MSTORE PUSH2 0x3366 DUP2 PUSH2 0x332D JUMP JUMPDEST SWAP1 POP SWAP2 SWAP1 POP JUMP INVALID LOG2 PUSH5 0x6970667358 0x22 SLT KECCAK256 0xD3 EXTDELEGATECALL JUMPDEST CALL 0xE EXTSTATICCALL 0xE9 0xBB DUP2 SAR 0x25 0x2B INVALID SWAP16 EXP SSTORE STATICCALL EXTCODESIZE DUP13 0xF POP PUSH27 0x6A2332CE068A92E65EBD64736F6C634300081E0033000000000000 "
		},
		"gasEstimates": {
			"creation": {
				"codeDepositCost": "2643800",
				"executionCost": "infinite",
				"totalCost": "infinite"
			},
			"external": {
				"MAX_FEE()": "353",
				"UPGRADE_INTERFACE_VERSION()": "infinite",
				"claimReward(uint256)": "infinite",
				"createMarket(uint64,uint16,address,int256)": "infinite",
				"initialize(address)": "infinite",
				"marketCount()": "2491",
				"markets(uint256)": "infinite",
				"noBets(uint256,address)": "infinite",
				"owner()": "2589",
				"pause()": "infinite",
				"paused()": "2518",
				"placeBet(uint256,bool,uint256)": "infinite",
				"proxiableUUID()": "infinite",
				"renounceOwnership()": "infinite",
				"resolveMarket(uint256)": "infinite",
				"token()": "infinite",
				"transferOwnership(address)": "infinite",
				"unpause()": "infinite",
				"upgradeToAndCall(address,bytes)": "infinite",
				"yesBets(uint256,address)": "infinite"
			},
			"internal": {
				"_authorizeUpgrade(address)": "infinite"
			}
		},
		"methodIdentifiers": {
			"MAX_FEE()": "bc063e1a",
			"UPGRADE_INTERFACE_VERSION()": "ad3cb1cc",
			"claimReward(uint256)": "ae169a50",
			"createMarket(uint64,uint16,address,int256)": "a611f359",
			"initialize(address)": "c4d66de8",
			"marketCount()": "ec979082",
			"markets(uint256)": "b1283e77",
			"noBets(uint256,address)": "155e4b82",
			"owner()": "8da5cb5b",
			"pause()": "8456cb59",
			"paused()": "5c975abb",
			"placeBet(uint256,bool,uint256)": "1a38cac6",
			"proxiableUUID()": "52d1902d",
			"renounceOwnership()": "715018a6",
			"resolveMarket(uint256)": "6399d03d",
			"token()": "fc0c546a",
			"transferOwnership(address)": "f2fde38b",
			"unpause()": "3f4ba83a",
			"upgradeToAndCall(address,bytes)": "4f1ef286",
			"yesBets(uint256,address)": "354c6199"
		}
	},
	"abi": [
		{
			"inputs": [
				{
					"internalType": "address",
					"name": "target",
					"type": "address"
				}
			],
			"name": "AddressEmptyCode",
			"type": "error"
		},
		{
			"inputs": [
				{
					"internalType": "uint256",
					"name": "marketId",
					"type": "uint256"
				}
			],
			"name": "claimReward",
			"outputs": [],
			"stateMutability": "nonpayable",
			"type": "function"
		},
		{
			"inputs": [
				{
					"internalType": "uint64",
					"name": "duration",
					"type": "uint64"
				},
				{
					"internalType": "uint16",
					"name": "feePercent",
					"type": "uint16"
				},
				{
					"internalType": "address",
					"name": "oracle",
					"type": "address"
				},
				{
					"internalType": "int256",
					"name": "targetPrice",
					"type": "int256"
				}
			],
			"name": "createMarket",
			"outputs": [],
			"stateMutability": "nonpayable",
			"type": "function"
		},
		{
			"inputs": [
				{
					"internalType": "address",
					"name": "implementation",
					"type": "address"
				}
			],
			"name": "ERC1967InvalidImplementation",
			"type": "error"
		},
		{
			"inputs": [],
			"name": "ERC1967NonPayable",
			"type": "error"
		},
		{
			"inputs": [],
			"name": "FailedCall",
			"type": "error"
		},
		{
			"inputs": [],
			"name": "FeeTooHigh",
			"type": "error"
		},
		{
			"inputs": [
				{
					"internalType": "address",
					"name": "_token",
					"type": "address"
				}
			],
			"name": "initialize",
			"outputs": [],
			"stateMutability": "nonpayable",
			"type": "function"
		},
		{
			"inputs": [],
			"name": "InvalidAmount",
			"type": "error"
		},
		{
			"inputs": [],
			"name": "InvalidInitialization",
			"type": "error"
		},
		{
			"inputs": [],
			"name": "InvalidOracle",
			"type": "error"
		},
		{
			"inputs": [],
			"name": "MarketAlreadyResolved",
			"type": "error"
		},
		{
			"inputs": [],
			"name": "MarketClosed",
			"type": "error"
		},
		{
			"inputs": [],
			"name": "MarketNotEnded",
			"type": "error"
		},
		{
			"inputs": [],
			"name": "MarketNotResolved",
			"type": "error"
		},
		{
			"inputs": [],
			"name": "NotInitializing",
			"type": "error"
		},
		{
			"inputs": [],
			"name": "NotWinner",
			"type": "error"
		},
		{
			"inputs": [
				{
					"internalType": "address",
					"name": "owner",
					"type": "address"
				}
			],
			"name": "OwnableInvalidOwner",
			"type": "error"
		},
		{
			"inputs": [
				{
					"internalType": "address",
					"name": "account",
					"type": "address"
				}
			],
			"name": "OwnableUnauthorizedAccount",
			"type": "error"
		},
		{
			"inputs": [
				{
					"internalType": "uint256",
					"name": "marketId",
					"type": "uint256"
				},
				{
					"internalType": "bool",
					"name": "isYes",
					"type": "bool"
				},
				{
					"internalType": "uint256",
					"name": "amount",
					"type": "uint256"
				}
			],
			"name": "placeBet",
			"outputs": [],
			"stateMutability": "nonpayable",
			"type": "function"
		},
		{
			"inputs": [],
			"name": "renounceOwnership",
			"outputs": [],
			"stateMutability": "nonpayable",
			"type": "function"
		},
		{
			"inputs": [
				{
					"internalType": "address",
					"name": "newOwner",
					"type": "address"
				}
			],
			"name": "transferOwnership",
			"outputs": [],
			"stateMutability": "nonpayable",
			"type": "function"
		},
		{
			"inputs": [],
			"name": "unpause",
			"outputs": [],
			"stateMutability": "nonpayable",
			"type": "function"
		},
		{
			"inputs": [],
			"name": "UUPSUnauthorizedCallContext",
			"type": "error"
		},
		{
			"inputs": [
				{
					"internalType": "bytes32",
					"name": "slot",
					"type": "bytes32"
				}
			],
			"name": "UUPSUnsupportedProxiableUUID",
			"type": "error"
		},
		{
			"anonymous": false,
			"inputs": [
				{
					"indexed": true,
					"internalType": "uint256",
					"name": "id",
					"type": "uint256"
				},
				{
					"indexed": true,
					"internalType": "address",
					"name": "user",
					"type": "address"
				},
				{
					"indexed": false,
					"internalType": "bool",
					"name": "side",
					"type": "bool"
				},
				{
					"indexed": false,
					"internalType": "uint256",
					"name": "amount",
					"type": "uint256"
				}
			],
			"name": "BetPlaced",
			"type": "event"
		},
		{
			"anonymous": false,
			"inputs": [
				{
					"indexed": false,
					"internalType": "uint64",
					"name": "version",
					"type": "uint64"
				}
			],
			"name": "Initialized",
			"type": "event"
		},
		{
			"anonymous": false,
			"inputs": [
				{
					"indexed": true,
					"internalType": "uint256",
					"name": "id",
					"type": "uint256"
				},
				{
					"indexed": false,
					"internalType": "int256",
					"name": "targetPrice",
					"type": "int256"
				}
			],
			"name": "MarketCreated",
			"type": "event"
		},
		{
			"anonymous": false,
			"inputs": [
				{
					"indexed": true,
					"internalType": "uint256",
					"name": "id",
					"type": "uint256"
				},
				{
					"indexed": false,
					"internalType": "uint8",
					"name": "result",
					"type": "uint8"
				}
			],
			"name": "MarketResolved",
			"type": "event"
		},
		{
			"anonymous": false,
			"inputs": [
				{
					"indexed": true,
					"internalType": "address",
					"name": "previousOwner",
					"type": "address"
				},
				{
					"indexed": true,
					"internalType": "address",
					"name": "newOwner",
					"type": "address"
				}
			],
			"name": "OwnershipTransferred",
			"type": "event"
		},
		{
			"inputs": [],
			"name": "pause",
			"outputs": [],
			"stateMutability": "nonpayable",
			"type": "function"
		},
		{
			"anonymous": false,
			"inputs": [
				{
					"indexed": false,
					"internalType": "address",
					"name": "account",
					"type": "address"
				}
			],
			"name": "Paused",
			"type": "event"
		},
		{
			"inputs": [
				{
					"internalType": "uint256",
					"name": "marketId",
					"type": "uint256"
				}
			],
			"name": "resolveMarket",
			"outputs": [],
			"stateMutability": "nonpayable",
			"type": "function"
		},
		{
			"anonymous": false,
			"inputs": [
				{
					"indexed": true,
					"internalType": "uint256",
					"name": "id",
					"type": "uint256"
				},
				{
					"indexed": true,
					"internalType": "address",
					"name": "user",
					"type": "address"
				},
				{
					"indexed": false,
					"internalType": "uint256",
					"name": "reward",
					"type": "uint256"
				}
			],
			"name": "RewardClaimed",
			"type": "event"
		},
		{
			"anonymous": false,
			"inputs": [
				{
					"indexed": false,
					"internalType": "address",
					"name": "account",
					"type": "address"
				}
			],
			"name": "Unpaused",
			"type": "event"
		},
		{
			"anonymous": false,
			"inputs": [
				{
					"indexed": true,
					"internalType": "address",
					"name": "implementation",
					"type": "address"
				}
			],
			"name": "Upgraded",
			"type": "event"
		},
		{
			"inputs": [
				{
					"internalType": "address",
					"name": "newImplementation",
					"type": "address"
				},
				{
					"internalType": "bytes",
					"name": "data",
					"type": "bytes"
				}
			],
			"name": "upgradeToAndCall",
			"outputs": [],
			"stateMutability": "payable",
			"type": "function"
		},
		{
			"inputs": [],
			"name": "marketCount",
			"outputs": [
				{
					"internalType": "uint256",
					"name": "",
					"type": "uint256"
				}
			],
			"stateMutability": "view",
			"type": "function"
		},
		{
			"inputs": [
				{
					"internalType": "uint256",
					"name": "",
					"type": "uint256"
				}
			],
			"name": "markets",
			"outputs": [
				{
					"internalType": "uint128",
					"name": "totalYes",
					"type": "uint128"
				},
				{
					"internalType": "uint128",
					"name": "totalNo",
					"type": "uint128"
				},
				{
					"internalType": "uint64",
					"name": "deadline",
					"type": "uint64"
				},
				{
					"internalType": "uint16",
					"name": "feePercent",
					"type": "uint16"
				},
				{
					"internalType": "bool",
					"name": "resolved",
					"type": "bool"
				},
				{
					"internalType": "enum AdvancedPredictionMarket.Outcome",
					"name": "result",
					"type": "uint8"
				},
				{
					"internalType": "address",
					"name": "oracle",
					"type": "address"
				},
				{
					"internalType": "int256",
					"name": "targetPrice",
					"type": "int256"
				}
			],
			"stateMutability": "view",
			"type": "function"
		},
		{
			"inputs": [],
			"name": "MAX_FEE",
			"outputs": [
				{
					"internalType": "uint16",
					"name": "",
					"type": "uint16"
				}
			],
			"stateMutability": "view",
			"type": "function"
		},
		{
			"inputs": [
				{
					"internalType": "uint256",
					"name": "",
					"type": "uint256"
				},
				{
					"internalType": "address",
					"name": "",
					"type": "address"
				}
			],
			"name": "noBets",
			"outputs": [
				{
					"internalType": "uint256",
					"name": "",
					"type": "uint256"
				}
			],
			"stateMutability": "view",
			"type": "function"
		},
		{
			"inputs": [],
			"name": "owner",
			"outputs": [
				{
					"internalType": "address",
					"name": "",
					"type": "address"
				}
			],
			"stateMutability": "view",
			"type": "function"
		},
		{
			"inputs": [],
			"name": "paused",
			"outputs": [
				{
					"internalType": "bool",
					"name": "",
					"type": "bool"
				}
			],
			"stateMutability": "view",
			"type": "function"
		},
		{
			"inputs": [],
			"name": "proxiableUUID",
			"outputs": [
				{
					"internalType": "bytes32",
					"name": "",
					"type": "bytes32"
				}
			],
			"stateMutability": "view",
			"type": "function"
		},
		{
			"inputs": [],
			"name": "token",
			"outputs": [
				{
					"internalType": "contract IERC20Upgradeable",
					"name": "",
					"type": "address"
				}
			],
			"stateMutability": "view",
			"type": "function"
		},
		{
			"inputs": [],
			"name": "UPGRADE_INTERFACE_VERSION",
			"outputs": [
				{
					"internalType": "string",
					"name": "",
					"type": "string"
				}
			],
			"stateMutability": "view",
			"type": "function"
		},
		{
			"inputs": [
				{
					"internalType": "uint256",
					"name": "",
					"type": "uint256"
				},
				{
					"internalType": "address",
					"name": "",
					"type": "address"
				}
			],
			"name": "yesBets",
			"outputs": [
				{
					"internalType": "uint256",
					"name": "",
					"type": "uint256"
				}
			],
			"stateMutability": "view",
			"type": "function"
		}
	]
}