{
	"data": {
		"bytecode": {
			"linkReferences": {},
			"object": "60a06040523073ffffffffffffffffffffffffffffffffffffffff1660809073ffffffffffffffffffffffffffffffffffffffff168152503480156041575f5ffd5b506080516113366100685f395f81816105390152818161058e015261074801526113365ff3fe608060405260043610610090575f3560e01c80638129fc1c116100585780638129fc1c146101305780638da5cb5b14610146578063ad3cb1cc14610170578063d09de08a1461019a578063f2fde38b146101b057610090565b806306661abd146100945780632baeceb7146100be5780634f1ef286146100d457806352d1902d146100f0578063715018a61461011a575b5f5ffd5b34801561009f575f5ffd5b506100a86101d8565b6040516100b59190610dca565b60405180910390f35b3480156100c9575f5ffd5b506100d26101dd565b005b6100ee60048036038101906100e99190610f8a565b61023a565b005b3480156100fb575f5ffd5b50610104610259565b6040516101119190610ffc565b60405180910390f35b348015610125575f5ffd5b5061012e61028a565b005b34801561013b575f5ffd5b5061014461029d565b005b348015610151575f5ffd5b5061015a61042b565b6040516101679190611024565b60405180910390f35b34801561017b575f5ffd5b50610184610460565b604051610191919061109d565b60405180910390f35b3480156101a5575f5ffd5b506101ae610499565b005b3480156101bb575f5ffd5b506101d660048036038101906101d191906110bd565b6104b3565b005b5f5481565b5f5f5411610220576040517f08c379a000000000000000000000000000000000000000000000000000000000815260040161021790611132565b60405180910390fd5b60015f5f828254610231919061117d565b92505081905550565b610242610537565b61024b8261061d565b6102558282610628565b5050565b5f610262610746565b7f360894a13ba1a3210667c828492db98dca3e2076cc3735a920a3ca505d382bbc5f1b905090565b6102926107cd565b61029b5f610854565b565b5f6102a6610925565b90505f815f0160089054906101000a900460ff161590505f825f015f9054906101000a900467ffffffffffffffff1690505f5f8267ffffffffffffffff161480156102ee5750825b90505f60018367ffffffffffffffff1614801561032157505f3073ffffffffffffffffffffffffffffffffffffffff163b145b90508115801561032f575080155b15610366576040517ff92ee8a900000000000000000000000000000000000000000000000000000000815260040160405180910390fd5b6001855f015f6101000a81548167ffffffffffffffff021916908367ffffffffffffffff16021790555083156103b3576001855f0160086101000a81548160ff0219169083151502179055505b6103bc33610938565b6103c461094c565b5f5f819055508315610424575f855f0160086101000a81548160ff0219169083151502179055507fc7f505b2f371ae2175ee4913f4499e1f2633a7b5936321eed1cdaeb6115181d2600160405161041b9190611205565b60405180910390a15b5050505050565b5f5f610435610956565b9050805f015f9054906101000a900473ffffffffffffffffffffffffffffffffffffffff1691505090565b6040518060400160405280600581526020017f352e302e3000000000000000000000000000000000000000000000000000000081525081565b60015f5f8282546104aa919061121e565b92505081905550565b6104bb6107cd565b5f73ffffffffffffffffffffffffffffffffffffffff168173ffffffffffffffffffffffffffffffffffffffff160361052b575f6040517f1e4fbdf70000000000000000000000000000000000000000000000000000000081526004016105229190611024565b60405180910390fd5b61053481610854565b50565b7f000000000000000000000000000000000000000000000000000000000000000073ffffffffffffffffffffffffffffffffffffffff163073ffffffffffffffffffffffffffffffffffffffff1614806105e457507f000000000000000000000000000000000000000000000000000000000000000073ffffffffffffffffffffffffffffffffffffffff166105cb61097d565b73ffffffffffffffffffffffffffffffffffffffff1614155b1561061b576040517fe07c8dba00000000000000000000000000000000000000000000000000000000815260040160405180910390fd5b565b6106256107cd565b50565b8173ffffffffffffffffffffffffffffffffffffffff166352d1902d6040518163ffffffff1660e01b8152600401602060405180830381865afa92505050801561069057506040513d601f19601f8201168201806040525081019061068d919061127b565b60015b6106d157816040517f4c9c8ce30000000000000000000000000000000000000000000000000000000081526004016106c89190611024565b60405180910390fd5b7f360894a13ba1a3210667c828492db98dca3e2076cc3735a920a3ca505d382bbc5f1b811461073757806040517faa1d49a400000000000000000000000000000000000000000000000000000000815260040161072e9190610ffc565b60405180910390fd5b61074183836109d0565b505050565b7f000000000000000000000000000000000000000000000000000000000000000073ffffffffffffffffffffffffffffffffffffffff163073ffffffffffffffffffffffffffffffffffffffff16146107cb576040517fe07c8dba00000000000000000000000000000000000000000000000000000000815260040160405180910390fd5b565b6107d5610a42565b73ffffffffffffffffffffffffffffffffffffffff166107f361042b565b73ffffffffffffffffffffffffffffffffffffffff161461085257610816610a42565b6040517f118cdaa70000000000000000000000000000000000000000000000000000000081526004016108499190611024565b60405180910390fd5b565b5f61085d610956565b90505f815f015f9054906101000a900473ffffffffffffffffffffffffffffffffffffffff16905082825f015f6101000a81548173ffffffffffffffffffffffffffffffffffffffff021916908373ffffffffffffffffffffffffffffffffffffffff1602179055508273ffffffffffffffffffffffffffffffffffffffff168173ffffffffffffffffffffffffffffffffffffffff167f8be0079c531659141344cd1fd0a4f28419497f9722a3daafe3b4186f6b6457e060405160405180910390a3505050565b5f5f61092f610a49565b90508091505090565b610940610a72565b61094981610ab2565b50565b610954610a72565b565b5f7f9016d09d72d40fdae2fd8ceac6b6234c7706214fd39c1cd1e609a0528c199300905090565b5f6109a97f360894a13ba1a3210667c828492db98dca3e2076cc3735a920a3ca505d382bbc5f1b610b36565b5f015f9054906101000a900473ffffffffffffffffffffffffffffffffffffffff16905090565b6109d982610b3f565b8173ffffffffffffffffffffffffffffffffffffffff167fbc7cd75a20ee27fd9adebab32041f755214dbc6bffa90cc0225b39da2e5c2d3b60405160405180910390a25f81511115610a3557610a2f8282610c08565b50610a3e565b610a3d610c88565b5b5050565b5f33905090565b5f7ff0c57e16840df040f15088dc2f81fe391c3923bec73e23a9662efc9c229c6a005f1b905090565b610a7a610cc4565b610ab0576040517fd7e6bcf800000000000000000000000000000000000000000000000000000000815260040160405180910390fd5b565b610aba610a72565b5f73ffffffffffffffffffffffffffffffffffffffff168173ffffffffffffffffffffffffffffffffffffffff1603610b2a575f6040517f1e4fbdf7000000000000000000000000000000000000000000000000000000008152600401610b219190611024565b60405180910390fd5b610b3381610854565b50565b5f819050919050565b5f8173ffffffffffffffffffffffffffffffffffffffff163b03610b9a57806040517f4c9c8ce3000000000000000000000000000000000000000000000000000000008152600401610b919190611024565b60405180910390fd5b80610bc67f360894a13ba1a3210667c828492db98dca3e2076cc3735a920a3ca505d382bbc5f1b610b36565b5f015f6101000a81548173ffffffffffffffffffffffffffffffffffffffff021916908373ffffffffffffffffffffffffffffffffffffffff16021790555050565b60605f5f8473ffffffffffffffffffffffffffffffffffffffff1684604051610c3191906112ea565b5f60405180830381855af49150503d805f8114610c69576040519150601f19603f3d011682016040523d82523d5f602084013e610c6e565b606091505b5091509150610c7e858383610ce2565b9250505092915050565b5f341115610cc2576040517fb398979f00000000000000000000000000000000000000000000000000000000815260040160405180910390fd5b565b5f610ccd610925565b5f0160089054906101000a900460ff16905090565b606082610cf757610cf282610d6f565b610d67565b5f8251148015610d1d57505f8473ffffffffffffffffffffffffffffffffffffffff163b145b15610d5f57836040517f9996b315000000000000000000000000000000000000000000000000000000008152600401610d569190611024565b60405180910390fd5b819050610d68565b5b9392505050565b5f81511115610d8057805160208201fd5b6040517fd6bda27500000000000000000000000000000000000000000000000000000000815260040160405180910390fd5b5f819050919050565b610dc481610db2565b82525050565b5f602082019050610ddd5f830184610dbb565b92915050565b5f604051905090565b5f5ffd5b5f5ffd5b5f73ffffffffffffffffffffffffffffffffffffffff82169050919050565b5f610e1d82610df4565b9050919050565b610e2d81610e13565b8114610e37575f5ffd5b50565b5f81359050610e4881610e24565b92915050565b5f5ffd5b5f5ffd5b5f601f19601f8301169050919050565b7f4e487b71000000000000000000000000000000000000000000000000000000005f52604160045260245ffd5b610e9c82610e56565b810181811067ffffffffffffffff82111715610ebb57610eba610e66565b5b80604052505050565b5f610ecd610de3565b9050610ed98282610e93565b919050565b5f67ffffffffffffffff821115610ef857610ef7610e66565b5b610f0182610e56565b9050602081019050919050565b828183375f83830152505050565b5f610f2e610f2984610ede565b610ec4565b905082815260208101848484011115610f4a57610f49610e52565b5b610f55848285610f0e565b509392505050565b5f82601f830112610f7157610f70610e4e565b5b8135610f81848260208601610f1c565b91505092915050565b5f5f60408385031215610fa057610f9f610dec565b5b5f610fad85828601610e3a565b925050602083013567ffffffffffffffff811115610fce57610fcd610df0565b5b610fda85828601610f5d565b9150509250929050565b5f819050919050565b610ff681610fe4565b82525050565b5f60208201905061100f5f830184610fed565b92915050565b61101e81610e13565b82525050565b5f6020820190506110375f830184611015565b92915050565b5f81519050919050565b5f82825260208201905092915050565b8281835e5f83830152505050565b5f61106f8261103d565b6110798185611047565b9350611089818560208601611057565b61109281610e56565b840191505092915050565b5f6020820190508181035f8301526110b58184611065565b905092915050565b5f602082840312156110d2576110d1610dec565b5b5f6110df84828501610e3a565b91505092915050565b7f416c7265616479207a65726f00000000000000000000000000000000000000005f82015250565b5f61111c600c83611047565b9150611127826110e8565b602082019050919050565b5f6020820190508181035f83015261114981611110565b9050919050565b7f4e487b71000000000000000000000000000000000000000000000000000000005f52601160045260245ffd5b5f61118782610db2565b915061119283610db2565b92508282039050818111156111aa576111a9611150565b5b92915050565b5f819050919050565b5f67ffffffffffffffff82169050919050565b5f819050919050565b5f6111ef6111ea6111e5846111b0565b6111cc565b6111b9565b9050919050565b6111ff816111d5565b82525050565b5f6020820190506112185f8301846111f6565b92915050565b5f61122882610db2565b915061123383610db2565b925082820190508082111561124b5761124a611150565b5b92915050565b61125a81610fe4565b8114611264575f5ffd5b50565b5f8151905061127581611251565b92915050565b5f602082840312156112905761128f610dec565b5b5f61129d84828501611267565b91505092915050565b5f81519050919050565b5f81905092915050565b5f6112c4826112a6565b6112ce81856112b0565b93506112de818560208601611057565b80840191505092915050565b5f6112f582846112ba565b91508190509291505056fea2646970667358221220f77798d4ca3470e5f384b78d15bc8c448484f9f2be9777a04bec35791a8a09fb64736f6c634300081e0033",
			"opcodes": "PUSH1 0xA0 PUSH1 0x40 MSTORE ADDRESS PUSH20 0xFFFFFFFFFFFFFFFFFFFFFFFFFFFFFFFFFFFFFFFF AND PUSH1 0x80 SWAP1 PUSH20 0xFFFFFFFFFFFFFFFFFFFFFFFFFFFFFFFFFFFFFFFF AND DUP2 MSTORE POP CALLVALUE DUP1 ISZERO PUSH1 0x41 JUMPI PUSH0 PUSH0 REVERT JUMPDEST POP PUSH1 0x80 MLOAD PUSH2 0x1336 PUSH2 0x68 PUSH0 CODECOPY PUSH0 DUP2 DUP2 PUSH2 0x539 ADD MSTORE DUP2 DUP2 PUSH2 0x58E ADD MSTORE PUSH2 0x748 ADD MSTORE PUSH2 0x1336 PUSH0 RETURN INVALID PUSH1 0x80 PUSH1 0x40 MSTORE PUSH1 0x4 CALLDATASIZE LT PUSH2 0x90 JUMPI PUSH0 CALLDATALOAD PUSH1 0xE0 SHR DUP1 PUSH4 0x8129FC1C GT PUSH2 0x58 JUMPI DUP1 PUSH4 0x8129FC1C EQ PUSH2 0x130 JUMPI DUP1 PUSH4 0x8DA5CB5B EQ PUSH2 0x146 JUMPI DUP1 PUSH4 0xAD3CB1CC EQ PUSH2 0x170 JUMPI DUP1 PUSH4 0xD09DE08A EQ PUSH2 0x19A JUMPI DUP1 PUSH4 0xF2FDE38B EQ PUSH2 0x1B0 JUMPI PUSH2 0x90 JUMP JUMPDEST DUP1 PUSH4 0x6661ABD EQ PUSH2 0x94 JUMPI DUP1 PUSH4 0x2BAECEB7 EQ PUSH2 0xBE JUMPI DUP1 PUSH4 0x4F1EF286 EQ PUSH2 0xD4 JUMPI DUP1 PUSH4 0x52D1902D EQ PUSH2 0xF0 JUMPI DUP1 PUSH4 0x715018A6 EQ PUSH2 0x11A JUMPI JUMPDEST PUSH0 PUSH0 REVERT JUMPDEST CALLVALUE DUP1 ISZERO PUSH2 0x9F JUMPI PUSH0 PUSH0 REVERT JUMPDEST POP PUSH2 0xA8 PUSH2 0x1D8 JUMP JUMPDEST PUSH1 0x40 MLOAD PUSH2 0xB5 SWAP2 SWAP1 PUSH2 0xDCA JUMP JUMPDEST PUSH1 0x40 MLOAD DUP1 SWAP2 SUB SWAP1 RETURN JUMPDEST CALLVALUE DUP1 ISZERO PUSH2 0xC9 JUMPI PUSH0 PUSH0 REVERT JUMPDEST POP PUSH2 0xD2 PUSH2 0x1DD JUMP JUMPDEST STOP JUMPDEST PUSH2 0xEE PUSH1 0x4 DUP1 CALLDATASIZE SUB DUP2 ADD SWAP1 PUSH2 0xE9 SWAP2 SWAP1 PUSH2 0xF8A JUMP JUMPDEST PUSH2 0x23A JUMP JUMPDEST STOP JUMPDEST CALLVALUE DUP1 ISZERO PUSH2 0xFB JUMPI PUSH0 PUSH0 REVERT JUMPDEST POP PUSH2 0x104 PUSH2 0x259 JUMP JUMPDEST PUSH1 0x40 MLOAD PUSH2 0x111 SWAP2 SWAP1 PUSH2 0xFFC JUMP JUMPDEST PUSH1 0x40 MLOAD DUP1 SWAP2 SUB SWAP1 RETURN JUMPDEST CALLVALUE DUP1 ISZERO PUSH2 0x125 JUMPI PUSH0 PUSH0 REVERT JUMPDEST POP PUSH2 0x12E PUSH2 0x28A JUMP JUMPDEST STOP JUMPDEST CALLVALUE DUP1 ISZERO PUSH2 0x13B JUMPI PUSH0 PUSH0 REVERT JUMPDEST POP PUSH2 0x144 PUSH2 0x29D JUMP JUMPDEST STOP JUMPDEST CALLVALUE DUP1 ISZERO PUSH2 0x151 JUMPI PUSH0 PUSH0 REVERT JUMPDEST POP PUSH2 0x15A PUSH2 0x42B JUMP JUMPDEST PUSH1 0x40 MLOAD PUSH2 0x167 SWAP2 SWAP1 PUSH2 0x1024 JUMP JUMPDEST PUSH1 0x40 MLOAD DUP1 SWAP2 SUB SWAP1 RETURN JUMPDEST CALLVALUE DUP1 ISZERO PUSH2 0x17B JUMPI PUSH0 PUSH0 REVERT JUMPDEST POP PUSH2 0x184 PUSH2 0x460 JUMP JUMPDEST PUSH1 0x40 MLOAD PUSH2 0x191 SWAP2 SWAP1 PUSH2 0x109D JUMP JUMPDEST PUSH1 0x40 MLOAD DUP1 SWAP2 SUB SWAP1 RETURN JUMPDEST CALLVALUE DUP1 ISZERO PUSH2 0x1A5 JUMPI PUSH0 PUSH0 REVERT JUMPDEST POP PUSH2 0x1AE PUSH2 0x499 JUMP JUMPDEST STOP JUMPDEST CALLVALUE DUP1 ISZERO PUSH2 0x1BB JUMPI PUSH0 PUSH0 REVERT JUMPDEST POP PUSH2 0x1D6 PUSH1 0x4 DUP1 CALLDATASIZE SUB DUP2 ADD SWAP1 PUSH2 0x1D1 SWAP2 SWAP1 PUSH2 0x10BD JUMP JUMPDEST PUSH2 0x4B3 JUMP JUMPDEST STOP JUMPDEST PUSH0 SLOAD DUP2 JUMP JUMPDEST PUSH0 PUSH0 SLOAD GT PUSH2 0x220 JUMPI PUSH1 0x40 MLOAD PUSH32 0x8C379A000000000000000000000000000000000000000000000000000000000 DUP2 MSTORE PUSH1 0x4 ADD PUSH2 0x217 SWAP1 PUSH2 0x1132 JUMP JUMPDEST PUSH1 0x40 MLOAD DUP1 SWAP2 SUB SWAP1 REVERT JUMPDEST PUSH1 0x1 PUSH0 PUSH0 DUP3 DUP3 SLOAD PUSH2 0x231 SWAP2 SWAP1 PUSH2 0x117D JUMP JUMPDEST SWAP3 POP POP DUP2 SWAP1 SSTORE POP JUMP JUMPDEST PUSH2 0x242 PUSH2 0x537 JUMP JUMPDEST PUSH2 0x24B DUP3 PUSH2 0x61D JUMP JUMPDEST PUSH2 0x255 DUP3 DUP3 PUSH2 0x628 JUMP JUMPDEST POP POP JUMP JUMPDEST PUSH0 PUSH2 0x262 PUSH2 0x746 JUMP JUMPDEST PUSH32 0x360894A13BA1A3210667C828492DB98DCA3E2076CC3735A920A3CA505D382BBC PUSH0 SHL SWAP1 POP SWAP1 JUMP JUMPDEST PUSH2 0x292 PUSH2 0x7CD JUMP JUMPDEST PUSH2 0x29B PUSH0 PUSH2 0x854 JUMP JUMPDEST JUMP JUMPDEST PUSH0 PUSH2 0x2A6 PUSH2 0x925 JUMP JUMPDEST SWAP1 POP PUSH0 DUP2 PUSH0 ADD PUSH1 0x8 SWAP1 SLOAD SWAP1 PUSH2 0x100 EXP SWAP1 DIV PUSH1 0xFF AND ISZERO SWAP1 POP PUSH0 DUP3 PUSH0 ADD PUSH0 SWAP1 SLOAD SWAP1 PUSH2 0x100 EXP SWAP1 DIV PUSH8 0xFFFFFFFFFFFFFFFF AND SWAP1 POP PUSH0 PUSH0 DUP3 PUSH8 0xFFFFFFFFFFFFFFFF AND EQ DUP1 ISZERO PUSH2 0x2EE JUMPI POP DUP3 JUMPDEST SWAP1 POP PUSH0 PUSH1 0x1 DUP4 PUSH8 0xFFFFFFFFFFFFFFFF AND EQ DUP1 ISZERO PUSH2 0x321 JUMPI POP PUSH0 ADDRESS PUSH20 0xFFFFFFFFFFFFFFFFFFFFFFFFFFFFFFFFFFFFFFFF AND EXTCODESIZE EQ JUMPDEST SWAP1 POP DUP2 ISZERO DUP1 ISZERO PUSH2 0x32F JUMPI POP DUP1 ISZERO JUMPDEST ISZERO PUSH2 0x366 JUMPI PUSH1 0x40 MLOAD PUSH32 0xF92EE8A900000000000000000000000000000000000000000000000000000000 DUP2 MSTORE PUSH1 0x4 ADD PUSH1 0x40 MLOAD DUP1 SWAP2 SUB SWAP1 REVERT JUMPDEST PUSH1 0x1 DUP6 PUSH0 ADD PUSH0 PUSH2 0x100 EXP DUP2 SLOAD DUP2 PUSH8 0xFFFFFFFFFFFFFFFF MUL NOT AND SWAP1 DUP4 PUSH8 0xFFFFFFFFFFFFFFFF AND MUL OR SWAP1 SSTORE POP DUP4 ISZERO PUSH2 0x3B3 JUMPI PUSH1 0x1 DUP6 PUSH0 ADD PUSH1 0x8 PUSH2 0x100 EXP DUP2 SLOAD DUP2 PUSH1 0xFF MUL NOT AND SWAP1 DUP4 ISZERO ISZERO MUL OR SWAP1 SSTORE POP JUMPDEST PUSH2 0x3BC CALLER PUSH2 0x938 JUMP JUMPDEST PUSH2 0x3C4 PUSH2 0x94C JUMP JUMPDEST PUSH0 PUSH0 DUP2 SWAP1 SSTORE POP DUP4 ISZERO PUSH2 0x424 JUMPI PUSH0 DUP6 PUSH0 ADD PUSH1 0x8 PUSH2 0x100 EXP DUP2 SLOAD DUP2 PUSH1 0xFF MUL NOT AND SWAP1 DUP4 ISZERO ISZERO MUL OR SWAP1 SSTORE POP PUSH32 0xC7F505B2F371AE2175EE4913F4499E1F2633A7B5936321EED1CDAEB6115181D2 PUSH1 0x1 PUSH1 0x40 MLOAD PUSH2 0x41B SWAP2 SWAP1 PUSH2 0x1205 JUMP JUMPDEST PUSH1 0x40 MLOAD DUP1 SWAP2 SUB SWAP1 LOG1 JUMPDEST POP POP POP POP POP JUMP JUMPDEST PUSH0 PUSH0 PUSH2 0x435 PUSH2 0x956 JUMP JUMPDEST SWAP1 POP DUP1 PUSH0 ADD PUSH0 SWAP1 SLOAD SWAP1 PUSH2 0x100 EXP SWAP1 DIV PUSH20 0xFFFFFFFFFFFFFFFFFFFFFFFFFFFFFFFFFFFFFFFF AND SWAP2 POP POP SWAP1 JUMP JUMPDEST PUSH1 0x40 MLOAD DUP1 PUSH1 0x40 ADD PUSH1 0x40 MSTORE DUP1 PUSH1 0x5 DUP2 MSTORE PUSH1 0x20 ADD PUSH32 0x352E302E30000000000000000000000000000000000000000000000000000000 DUP2 MSTORE POP DUP2 JUMP JUMPDEST PUSH1 0x1 PUSH0 PUSH0 DUP3 DUP3 SLOAD PUSH2 0x4AA SWAP2 SWAP1 PUSH2 0x121E JUMP JUMPDEST SWAP3 POP POP DUP2 SWAP1 SSTORE POP JUMP JUMPDEST PUSH2 0x4BB PUSH2 0x7CD JUMP JUMPDEST PUSH0 PUSH20 0xFFFFFFFFFFFFFFFFFFFFFFFFFFFFFFFFFFFFFFFF AND DUP2 PUSH20 0xFFFFFFFFFFFFFFFFFFFFFFFFFFFFFFFFFFFFFFFF AND SUB PUSH2 0x52B JUMPI PUSH0 PUSH1 0x40 MLOAD PUSH32 0x1E4FBDF700000000000000000000000000000000000000000000000000000000 DUP2 MSTORE PUSH1 0x4 ADD PUSH2 0x522 SWAP2 SWAP1 PUSH2 0x1024 JUMP JUMPDEST PUSH1 0x40 MLOAD DUP1 SWAP2 SUB SWAP1 REVERT JUMPDEST PUSH2 0x534 DUP2 PUSH2 0x854 JUMP JUMPDEST POP JUMP JUMPDEST PUSH32 0x0 PUSH20 0xFFFFFFFFFFFFFFFFFFFFFFFFFFFFFFFFFFFFFFFF AND ADDRESS PUSH20 0xFFFFFFFFFFFFFFFFFFFFFFFFFFFFFFFFFFFFFFFF AND EQ DUP1 PUSH2 0x5E4 JUMPI POP PUSH32 0x0 PUSH20 0xFFFFFFFFFFFFFFFFFFFFFFFFFFFFFFFFFFFFFFFF AND PUSH2 0x5CB PUSH2 0x97D JUMP JUMPDEST PUSH20 0xFFFFFFFFFFFFFFFFFFFFFFFFFFFFFFFFFFFFFFFF AND EQ ISZERO JUMPDEST ISZERO PUSH2 0x61B JUMPI PUSH1 0x40 MLOAD PUSH32 0xE07C8DBA00000000000000000000000000000000000000000000000000000000 DUP2 MSTORE PUSH1 0x4 ADD PUSH1 0x40 MLOAD DUP1 SWAP2 SUB SWAP1 REVERT JUMPDEST JUMP JUMPDEST PUSH2 0x625 PUSH2 0x7CD JUMP JUMPDEST POP JUMP JUMPDEST DUP2 PUSH20 0xFFFFFFFFFFFFFFFFFFFFFFFFFFFFFFFFFFFFFFFF AND PUSH4 0x52D1902D PUSH1 0x40 MLOAD DUP2 PUSH4 0xFFFFFFFF AND PUSH1 0xE0 SHL DUP2 MSTORE PUSH1 0x4 ADD PUSH1 0x20 PUSH1 0x40 MLOAD DUP1 DUP4 SUB DUP2 DUP7 GAS STATICCALL SWAP3 POP POP POP DUP1 ISZERO PUSH2 0x690 JUMPI POP PUSH1 0x40 MLOAD RETURNDATASIZE PUSH1 0x1F NOT PUSH1 0x1F DUP3 ADD AND DUP3 ADD DUP1 PUSH1 0x40 MSTORE POP DUP2 ADD SWAP1 PUSH2 0x68D SWAP2 SWAP1 PUSH2 0x127B JUMP JUMPDEST PUSH1 0x1 JUMPDEST PUSH2 0x6D1 JUMPI DUP2 PUSH1 0x40 MLOAD PUSH32 0x4C9C8CE300000000000000000000000000000000000000000000000000000000 DUP2 MSTORE PUSH1 0x4 ADD PUSH2 0x6C8 SWAP2 SWAP1 PUSH2 0x1024 JUMP JUMPDEST PUSH1 0x40 MLOAD DUP1 SWAP2 SUB SWAP1 REVERT JUMPDEST PUSH32 0x360894A13BA1A3210667C828492DB98DCA3E2076CC3735A920A3CA505D382BBC PUSH0 SHL DUP2 EQ PUSH2 0x737 JUMPI DUP1 PUSH1 0x40 MLOAD PUSH32 0xAA1D49A400000000000000000000000000000000000000000000000000000000 DUP2 MSTORE PUSH1 0x4 ADD PUSH2 0x72E SWAP2 SWAP1 PUSH2 0xFFC JUMP JUMPDEST PUSH1 0x40 MLOAD DUP1 SWAP2 SUB SWAP1 REVERT JUMPDEST PUSH2 0x741 DUP4 DUP4 PUSH2 0x9D0 JUMP JUMPDEST POP POP POP JUMP JUMPDEST PUSH32 0x0 PUSH20 0xFFFFFFFFFFFFFFFFFFFFFFFFFFFFFFFFFFFFFFFF AND ADDRESS PUSH20 0xFFFFFFFFFFFFFFFFFFFFFFFFFFFFFFFFFFFFFFFF AND EQ PUSH2 0x7CB JUMPI PUSH1 0x40 MLOAD PUSH32 0xE07C8DBA00000000000000000000000000000000000000000000000000000000 DUP2 MSTORE PUSH1 0x4 ADD PUSH1 0x40 MLOAD DUP1 SWAP2 SUB SWAP1 REVERT JUMPDEST JUMP JUMPDEST PUSH2 0x7D5 PUSH2 0xA42 JUMP JUMPDEST PUSH20 0xFFFFFFFFFFFFFFFFFFFFFFFFFFFFFFFFFFFFFFFF AND PUSH2 0x7F3 PUSH2 0x42B JUMP JUMPDEST PUSH20 0xFFFFFFFFFFFFFFFFFFFFFFFFFFFFFFFFFFFFFFFF AND EQ PUSH2 0x852 JUMPI PUSH2 0x816 PUSH2 0xA42 JUMP JUMPDEST PUSH1 0x40 MLOAD PUSH32 0x118CDAA700000000000000000000000000000000000000000000000000000000 DUP2 MSTORE PUSH1 0x4 ADD PUSH2 0x849 SWAP2 SWAP1 PUSH2 0x1024 JUMP JUMPDEST PUSH1 0x40 MLOAD DUP1 SWAP2 SUB SWAP1 REVERT JUMPDEST JUMP JUMPDEST PUSH0 PUSH2 0x85D PUSH2 0x956 JUMP JUMPDEST SWAP1 POP PUSH0 DUP2 PUSH0 ADD PUSH0 SWAP1 SLOAD SWAP1 PUSH2 0x100 EXP SWAP1 DIV PUSH20 0xFFFFFFFFFFFFFFFFFFFFFFFFFFFFFFFFFFFFFFFF AND SWAP1 POP DUP3 DUP3 PUSH0 ADD PUSH0 PUSH2 0x100 EXP DUP2 SLOAD DUP2 PUSH20 0xFFFFFFFFFFFFFFFFFFFFFFFFFFFFFFFFFFFFFFFF MUL NOT AND SWAP1 DUP4 PUSH20 0xFFFFFFFFFFFFFFFFFFFFFFFFFFFFFFFFFFFFFFFF AND MUL OR SWAP1 SSTORE POP DUP3 PUSH20 0xFFFFFFFFFFFFFFFFFFFFFFFFFFFFFFFFFFFFFFFF AND DUP2 PUSH20 0xFFFFFFFFFFFFFFFFFFFFFFFFFFFFFFFFFFFFFFFF AND PUSH32 0x8BE0079C531659141344CD1FD0A4F28419497F9722A3DAAFE3B4186F6B6457E0 PUSH1 0x40 MLOAD PUSH1 0x40 MLOAD DUP1 SWAP2 SUB SWAP1 LOG3 POP POP POP JUMP JUMPDEST PUSH0 PUSH0 PUSH2 0x92F PUSH2 0xA49 JUMP JUMPDEST SWAP1 POP DUP1 SWAP2 POP POP SWAP1 JUMP JUMPDEST PUSH2 0x940 PUSH2 0xA72 JUMP JUMPDEST PUSH2 0x949 DUP2 PUSH2 0xAB2 JUMP JUMPDEST POP JUMP JUMPDEST PUSH2 0x954 PUSH2 0xA72 JUMP JUMPDEST JUMP JUMPDEST PUSH0 PUSH32 0x9016D09D72D40FDAE2FD8CEAC6B6234C7706214FD39C1CD1E609A0528C199300 SWAP1 POP SWAP1 JUMP JUMPDEST PUSH0 PUSH2 0x9A9 PUSH32 0x360894A13BA1A3210667C828492DB98DCA3E2076CC3735A920A3CA505D382BBC PUSH0 SHL PUSH2 0xB36 JUMP JUMPDEST PUSH0 ADD PUSH0 SWAP1 SLOAD SWAP1 PUSH2 0x100 EXP SWAP1 DIV PUSH20 0xFFFFFFFFFFFFFFFFFFFFFFFFFFFFFFFFFFFFFFFF AND SWAP1 POP SWAP1 JUMP JUMPDEST PUSH2 0x9D9 DUP3 PUSH2 0xB3F JUMP JUMPDEST DUP2 PUSH20 0xFFFFFFFFFFFFFFFFFFFFFFFFFFFFFFFFFFFFFFFF AND PUSH32 0xBC7CD75A20EE27FD9ADEBAB32041F755214DBC6BFFA90CC0225B39DA2E5C2D3B PUSH1 0x40 MLOAD PUSH1 0x40 MLOAD DUP1 SWAP2 SUB SWAP1 LOG2 PUSH0 DUP2 MLOAD GT ISZERO PUSH2 0xA35 JUMPI PUSH2 0xA2F DUP3 DUP3 PUSH2 0xC08 JUMP JUMPDEST POP PUSH2 0xA3E JUMP JUMPDEST PUSH2 0xA3D PUSH2 0xC88 JUMP JUMPDEST JUMPDEST POP POP JUMP JUMPDEST PUSH0 CALLER SWAP1 POP SWAP1 JUMP JUMPDEST PUSH0 PUSH32 0xF0C57E16840DF040F15088DC2F81FE391C3923BEC73E23A9662EFC9C229C6A00 PUSH0 SHL SWAP1 POP SWAP1 JUMP JUMPDEST PUSH2 0xA7A PUSH2 0xCC4 JUMP JUMPDEST PUSH2 0xAB0 JUMPI PUSH1 0x40 MLOAD PUSH32 0xD7E6BCF800000000000000000000000000000000000000000000000000000000 DUP2 MSTORE PUSH1 0x4 ADD PUSH1 0x40 MLOAD DUP1 SWAP2 SUB SWAP1 REVERT JUMPDEST JUMP JUMPDEST PUSH2 0xABA PUSH2 0xA72 JUMP JUMPDEST PUSH0 PUSH20 0xFFFFFFFFFFFFFFFFFFFFFFFFFFFFFFFFFFFFFFFF AND DUP2 PUSH20 0xFFFFFFFFFFFFFFFFFFFFFFFFFFFFFFFFFFFFFFFF AND SUB PUSH2 0xB2A JUMPI PUSH0 PUSH1 0x40 MLOAD PUSH32 0x1E4FBDF700000000000000000000000000000000000000000000000000000000 DUP2 MSTORE PUSH1 0x4 ADD PUSH2 0xB21 SWAP2 SWAP1 PUSH2 0x1024 JUMP JUMPDEST PUSH1 0x40 MLOAD DUP1 SWAP2 SUB SWAP1 REVERT JUMPDEST PUSH2 0xB33 DUP2 PUSH2 0x854 JUMP JUMPDEST POP JUMP JUMPDEST PUSH0 DUP2 SWAP1 POP SWAP2 SWAP1 POP JUMP JUMPDEST PUSH0 DUP2 PUSH20 0xFFFFFFFFFFFFFFFFFFFFFFFFFFFFFFFFFFFFFFFF AND EXTCODESIZE SUB PUSH2 0xB9A JUMPI DUP1 PUSH1 0x40 MLOAD PUSH32 0x4C9C8CE300000000000000000000000000000000000000000000000000000000 DUP2 MSTORE PUSH1 0x4 ADD PUSH2 0xB91 SWAP2 SWAP1 PUSH2 0x1024 JUMP JUMPDEST PUSH1 0x40 MLOAD DUP1 SWAP2 SUB SWAP1 REVERT JUMPDEST DUP1 PUSH2 0xBC6 PUSH32 0x360894A13BA1A3210667C828492DB98DCA3E2076CC3735A920A3CA505D382BBC PUSH0 SHL PUSH2 0xB36 JUMP JUMPDEST PUSH0 ADD PUSH0 PUSH2 0x100 EXP DUP2 SLOAD DUP2 PUSH20 0xFFFFFFFFFFFFFFFFFFFFFFFFFFFFFFFFFFFFFFFF MUL NOT AND SWAP1 DUP4 PUSH20 0xFFFFFFFFFFFFFFFFFFFFFFFFFFFFFFFFFFFFFFFF AND MUL OR SWAP1 SSTORE POP POP JUMP JUMPDEST PUSH1 0x60 PUSH0 PUSH0 DUP5 PUSH20 0xFFFFFFFFFFFFFFFFFFFFFFFFFFFFFFFFFFFFFFFF AND DUP5 PUSH1 0x40 MLOAD PUSH2 0xC31 SWAP2 SWAP1 PUSH2 0x12EA JUMP JUMPDEST PUSH0 PUSH1 0x40 MLOAD DUP1 DUP4 SUB DUP2 DUP6 GAS DELEGATECALL SWAP2 POP POP RETURNDATASIZE DUP1 PUSH0 DUP2 EQ PUSH2 0xC69 JUMPI PUSH1 0x40 MLOAD SWAP2 POP PUSH1 0x1F NOT PUSH1 0x3F RETURNDATASIZE ADD AND DUP3 ADD PUSH1 0x40 MSTORE RETURNDATASIZE DUP3 MSTORE RETURNDATASIZE PUSH0 PUSH1 0x20 DUP5 ADD RETURNDATACOPY PUSH2 0xC6E JUMP JUMPDEST PUSH1 0x60 SWAP2 POP JUMPDEST POP SWAP2 POP SWAP2 POP PUSH2 0xC7E DUP6 DUP4 DUP4 PUSH2 0xCE2 JUMP JUMPDEST SWAP3 POP POP POP SWAP3 SWAP2 POP POP JUMP JUMPDEST PUSH0 CALLVALUE GT ISZERO PUSH2 0xCC2 JUMPI PUSH1 0x40 MLOAD PUSH32 0xB398979F00000000000000000000000000000000000000000000000000000000 DUP2 MSTORE PUSH1 0x4 ADD PUSH1 0x40 MLOAD DUP1 SWAP2 SUB SWAP1 REVERT JUMPDEST JUMP JUMPDEST PUSH0 PUSH2 0xCCD PUSH2 0x925 JUMP JUMPDEST PUSH0 ADD PUSH1 0x8 SWAP1 SLOAD SWAP1 PUSH2 0x100 EXP SWAP1 DIV PUSH1 0xFF AND SWAP1 POP SWAP1 JUMP JUMPDEST PUSH1 0x60 DUP3 PUSH2 0xCF7 JUMPI PUSH2 0xCF2 DUP3 PUSH2 0xD6F JUMP JUMPDEST PUSH2 0xD67 JUMP JUMPDEST PUSH0 DUP3 MLOAD EQ DUP1 ISZERO PUSH2 0xD1D JUMPI POP PUSH0 DUP5 PUSH20 0xFFFFFFFFFFFFFFFFFFFFFFFFFFFFFFFFFFFFFFFF AND EXTCODESIZE EQ JUMPDEST ISZERO PUSH2 0xD5F JUMPI DUP4 PUSH1 0x40 MLOAD PUSH32 0x9996B31500000000000000000000000000000000000000000000000000000000 DUP2 MSTORE PUSH1 0x4 ADD PUSH2 0xD56 SWAP2 SWAP1 PUSH2 0x1024 JUMP JUMPDEST PUSH1 0x40 MLOAD DUP1 SWAP2 SUB SWAP1 REVERT JUMPDEST DUP2 SWAP1 POP PUSH2 0xD68 JUMP JUMPDEST JUMPDEST SWAP4 SWAP3 POP POP POP JUMP JUMPDEST PUSH0 DUP2 MLOAD GT ISZERO PUSH2 0xD80 JUMPI DUP1 MLOAD PUSH1 0x20 DUP3 ADD REVERT JUMPDEST PUSH1 0x40 MLOAD PUSH32 0xD6BDA27500000000000000000000000000000000000000000000000000000000 DUP2 MSTORE PUSH1 0x4 ADD PUSH1 0x40 MLOAD DUP1 SWAP2 SUB SWAP1 REVERT JUMPDEST PUSH0 DUP2 SWAP1 POP SWAP2 SWAP1 POP JUMP JUMPDEST PUSH2 0xDC4 DUP2 PUSH2 0xDB2 JUMP JUMPDEST DUP3 MSTORE POP POP JUMP JUMPDEST PUSH0 PUSH1 0x20 DUP3 ADD SWAP1 POP PUSH2 0xDDD PUSH0 DUP4 ADD DUP5 PUSH2 0xDBB JUMP JUMPDEST SWAP3 SWAP2 POP POP JUMP JUMPDEST PUSH0 PUSH1 0x40 MLOAD SWAP1 POP SWAP1 JUMP JUMPDEST PUSH0 PUSH0 REVERT JUMPDEST PUSH0 PUSH0 REVERT JUMPDEST PUSH0 PUSH20 0xFFFFFFFFFFFFFFFFFFFFFFFFFFFFFFFFFFFFFFFF DUP3 AND SWAP1 POP SWAP2 SWAP1 POP JUMP JUMPDEST PUSH0 PUSH2 0xE1D DUP3 PUSH2 0xDF4 JUMP JUMPDEST SWAP1 POP SWAP2 SWAP1 POP JUMP JUMPDEST PUSH2 0xE2D DUP2 PUSH2 0xE13 JUMP JUMPDEST DUP2 EQ PUSH2 0xE37 JUMPI PUSH0 PUSH0 REVERT JUMPDEST POP JUMP JUMPDEST PUSH0 DUP2 CALLDATALOAD SWAP1 POP PUSH2 0xE48 DUP2 PUSH2 0xE24 JUMP JUMPDEST SWAP3 SWAP2 POP POP JUMP JUMPDEST PUSH0 PUSH0 REVERT JUMPDEST PUSH0 PUSH0 REVERT JUMPDEST PUSH0 PUSH1 0x1F NOT PUSH1 0x1F DUP4 ADD AND SWAP1 POP SWAP2 SWAP1 POP JUMP JUMPDEST PUSH32 0x4E487B7100000000000000000000000000000000000000000000000000000000 PUSH0 MSTORE PUSH1 0x41 PUSH1 0x4 MSTORE PUSH1 0x24 PUSH0 REVERT JUMPDEST PUSH2 0xE9C DUP3 PUSH2 0xE56 JUMP JUMPDEST DUP2 ADD DUP2 DUP2 LT PUSH8 0xFFFFFFFFFFFFFFFF DUP3 GT OR ISZERO PUSH2 0xEBB JUMPI PUSH2 0xEBA PUSH2 0xE66 JUMP JUMPDEST JUMPDEST DUP1 PUSH1 0x40 MSTORE POP POP POP JUMP JUMPDEST PUSH0 PUSH2 0xECD PUSH2 0xDE3 JUMP JUMPDEST SWAP1 POP PUSH2 0xED9 DUP3 DUP3 PUSH2 0xE93 JUMP JUMPDEST SWAP2 SWAP1 POP JUMP JUMPDEST PUSH0 PUSH8 0xFFFFFFFFFFFFFFFF DUP3 GT ISZERO PUSH2 0xEF8 JUMPI PUSH2 0xEF7 PUSH2 0xE66 JUMP JUMPDEST JUMPDEST PUSH2 0xF01 DUP3 PUSH2 0xE56 JUMP JUMPDEST SWAP1 POP PUSH1 0x20 DUP2 ADD SWAP1 POP SWAP2 SWAP1 POP JUMP JUMPDEST DUP3 DUP2 DUP4 CALLDATACOPY PUSH0 DUP4 DUP4 ADD MSTORE POP POP POP JUMP JUMPDEST PUSH0 PUSH2 0xF2E PUSH2 0xF29 DUP5 PUSH2 0xEDE JUMP JUMPDEST PUSH2 0xEC4 JUMP JUMPDEST SWAP1 POP DUP3 DUP2 MSTORE PUSH1 0x20 DUP2 ADD DUP5 DUP5 DUP5 ADD GT ISZERO PUSH2 0xF4A JUMPI PUSH2 0xF49 PUSH2 0xE52 JUMP JUMPDEST JUMPDEST PUSH2 0xF55 DUP5 DUP3 DUP6 PUSH2 0xF0E JUMP JUMPDEST POP SWAP4 SWAP3 POP POP POP JUMP JUMPDEST PUSH0 DUP3 PUSH1 0x1F DUP4 ADD SLT PUSH2 0xF71 JUMPI PUSH2 0xF70 PUSH2 0xE4E JUMP JUMPDEST JUMPDEST DUP2 CALLDATALOAD PUSH2 0xF81 DUP5 DUP3 PUSH1 0x20 DUP7 ADD PUSH2 0xF1C JUMP JUMPDEST SWAP2 POP POP SWAP3 SWAP2 POP POP JUMP JUMPDEST PUSH0 PUSH0 PUSH1 0x40 DUP4 DUP6 SUB SLT ISZERO PUSH2 0xFA0 JUMPI PUSH2 0xF9F PUSH2 0xDEC JUMP JUMPDEST JUMPDEST PUSH0 PUSH2 0xFAD DUP6 DUP3 DUP7 ADD PUSH2 0xE3A JUMP JUMPDEST SWAP3 POP POP PUSH1 0x20 DUP4 ADD CALLDATALOAD PUSH8 0xFFFFFFFFFFFFFFFF DUP2 GT ISZERO PUSH2 0xFCE JUMPI PUSH2 0xFCD PUSH2 0xDF0 JUMP JUMPDEST JUMPDEST PUSH2 0xFDA DUP6 DUP3 DUP7 ADD PUSH2 0xF5D JUMP JUMPDEST SWAP2 POP POP SWAP3 POP SWAP3 SWAP1 POP JUMP JUMPDEST PUSH0 DUP2 SWAP1 POP SWAP2 SWAP1 POP JUMP JUMPDEST PUSH2 0xFF6 DUP2 PUSH2 0xFE4 JUMP JUMPDEST DUP3 MSTORE POP POP JUMP JUMPDEST PUSH0 PUSH1 0x20 DUP3 ADD SWAP1 POP PUSH2 0x100F PUSH0 DUP4 ADD DUP5 PUSH2 0xFED JUMP JUMPDEST SWAP3 SWAP2 POP POP JUMP JUMPDEST PUSH2 0x101E DUP2 PUSH2 0xE13 JUMP JUMPDEST DUP3 MSTORE POP POP JUMP JUMPDEST PUSH0 PUSH1 0x20 DUP3 ADD SWAP1 POP PUSH2 0x1037 PUSH0 DUP4 ADD DUP5 PUSH2 0x1015 JUMP JUMPDEST SWAP3 SWAP2 POP POP JUMP JUMPDEST PUSH0 DUP2 MLOAD SWAP1 POP SWAP2 SWAP1 POP JUMP JUMPDEST PUSH0 DUP3 DUP3 MSTORE PUSH1 0x20 DUP3 ADD SWAP1 POP SWAP3 SWAP2 POP POP JUMP JUMPDEST DUP3 DUP2 DUP4 MCOPY PUSH0 DUP4 DUP4 ADD MSTORE POP POP POP JUMP JUMPDEST PUSH0 PUSH2 0x106F DUP3 PUSH2 0x103D JUMP JUMPDEST PUSH2 0x1079 DUP2 DUP6 PUSH2 0x1047 JUMP JUMPDEST SWAP4 POP PUSH2 0x1089 DUP2 DUP6 PUSH1 0x20 DUP7 ADD PUSH2 0x1057 JUMP JUMPDEST PUSH2 0x1092 DUP2 PUSH2 0xE56 JUMP JUMPDEST DUP5 ADD SWAP2 POP POP SWAP3 SWAP2 POP POP JUMP JUMPDEST PUSH0 PUSH1 0x20 DUP3 ADD SWAP1 POP DUP2 DUP2 SUB PUSH0 DUP4 ADD MSTORE PUSH2 0x10B5 DUP2 DUP5 PUSH2 0x1065 JUMP JUMPDEST SWAP1 POP SWAP3 SWAP2 POP POP JUMP JUMPDEST PUSH0 PUSH1 0x20 DUP3 DUP5 SUB SLT ISZERO PUSH2 0x10D2 JUMPI PUSH2 0x10D1 PUSH2 0xDEC JUMP JUMPDEST JUMPDEST PUSH0 PUSH2 0x10DF DUP5 DUP3 DUP6 ADD PUSH2 0xE3A JUMP JUMPDEST SWAP2 POP POP SWAP3 SWAP2 POP POP JUMP JUMPDEST PUSH32 0x416C7265616479207A65726F0000000000000000000000000000000000000000 PUSH0 DUP3 ADD MSTORE POP JUMP JUMPDEST PUSH0 PUSH2 0x111C PUSH1 0xC DUP4 PUSH2 0x1047 JUMP JUMPDEST SWAP2 POP PUSH2 0x1127 DUP3 PUSH2 0x10E8 JUMP JUMPDEST PUSH1 0x20 DUP3 ADD SWAP1 POP SWAP2 SWAP1 POP JUMP JUMPDEST PUSH0 PUSH1 0x20 DUP3 ADD SWAP1 POP DUP2 DUP2 SUB PUSH0 DUP4 ADD MSTORE PUSH2 0x1149 DUP2 PUSH2 0x1110 JUMP JUMPDEST SWAP1 POP SWAP2 SWAP1 POP JUMP JUMPDEST PUSH32 0x4E487B7100000000000000000000000000000000000000000000000000000000 PUSH0 MSTORE PUSH1 0x11 PUSH1 0x4 MSTORE PUSH1 0x24 PUSH0 REVERT JUMPDEST PUSH0 PUSH2 0x1187 DUP3 PUSH2 0xDB2 JUMP JUMPDEST SWAP2 POP PUSH2 0x1192 DUP4 PUSH2 0xDB2 JUMP JUMPDEST SWAP3 POP DUP3 DUP3 SUB SWAP1 POP DUP2 DUP2 GT ISZERO PUSH2 0x11AA JUMPI PUSH2 0x11A9 PUSH2 0x1150 JUMP JUMPDEST JUMPDEST SWAP3 SWAP2 POP POP JUMP JUMPDEST PUSH0 DUP2 SWAP1 POP SWAP2 SWAP1 POP JUMP JUMPDEST PUSH0 PUSH8 0xFFFFFFFFFFFFFFFF DUP3 AND SWAP1 POP SWAP2 SWAP1 POP JUMP JUMPDEST PUSH0 DUP2 SWAP1 POP SWAP2 SWAP1 POP JUMP JUMPDEST PUSH0 PUSH2 0x11EF PUSH2 0x11EA PUSH2 0x11E5 DUP5 PUSH2 0x11B0 JUMP JUMPDEST PUSH2 0x11CC JUMP JUMPDEST PUSH2 0x11B9 JUMP JUMPDEST SWAP1 POP SWAP2 SWAP1 POP JUMP JUMPDEST PUSH2 0x11FF DUP2 PUSH2 0x11D5 JUMP JUMPDEST DUP3 MSTORE POP POP JUMP JUMPDEST PUSH0 PUSH1 0x20 DUP3 ADD SWAP1 POP PUSH2 0x1218 PUSH0 DUP4 ADD DUP5 PUSH2 0x11F6 JUMP JUMPDEST SWAP3 SWAP2 POP POP JUMP JUMPDEST PUSH0 PUSH2 0x1228 DUP3 PUSH2 0xDB2 JUMP JUMPDEST SWAP2 POP PUSH2 0x1233 DUP4 PUSH2 0xDB2 JUMP JUMPDEST SWAP3 POP DUP3 DUP3 ADD SWAP1 POP DUP1 DUP3 GT ISZERO PUSH2 0x124B JUMPI PUSH2 0x124A PUSH2 0x1150 JUMP JUMPDEST JUMPDEST SWAP3 SWAP2 POP POP JUMP JUMPDEST PUSH2 0x125A DUP2 PUSH2 0xFE4 JUMP JUMPDEST DUP2 EQ PUSH2 0x1264 JUMPI PUSH0 PUSH0 REVERT JUMPDEST POP JUMP JUMPDEST PUSH0 DUP2 MLOAD SWAP1 POP PUSH2 0x1275 DUP2 PUSH2 0x1251 JUMP JUMPDEST SWAP3 SWAP2 POP POP JUMP JUMPDEST PUSH0 PUSH1 0x20 DUP3 DUP5 SUB SLT ISZERO PUSH2 0x1290 JUMPI PUSH2 0x128F PUSH2 0xDEC JUMP JUMPDEST JUMPDEST PUSH0 PUSH2 0x129D DUP5 DUP3 DUP6 ADD PUSH2 0x1267 JUMP JUMPDEST SWAP2 POP POP SWAP3 SWAP2 POP POP JUMP JUMPDEST PUSH0 DUP2 MLOAD SWAP1 POP SWAP2 SWAP1 POP JUMP JUMPDEST PUSH0 DUP2 SWAP1 POP SWAP3 SWAP2 POP POP JUMP JUMPDEST PUSH0 PUSH2 0x12C4 DUP3 PUSH2 0x12A6 JUMP JUMPDEST PUSH2 0x12CE DUP2 DUP6 PUSH2 0x12B0 JUMP JUMPDEST SWAP4 POP PUSH2 0x12DE DUP2 DUP6 PUSH1 0x20 DUP7 ADD PUSH2 0x1057 JUMP JUMPDEST DUP1 DUP5 ADD SWAP2 POP POP SWAP3 SWAP2 POP POP JUMP JUMPDEST PUSH0 PUSH2 0x12F5 DUP3 DUP5 PUSH2 0x12BA JUMP JUMPDEST SWAP2 POP DUP2 SWAP1 POP SWAP3 SWAP2 POP POP JUMP INVALID LOG2 PUSH5 0x6970667358 0x22 SLT KECCAK256 0xF7 PUSH24 0x98D4CA3470E5F384B78D15BC8C448484F9F2BE9777A04BEC CALLDATALOAD PUSH26 0x1A8A09FB64736F6C634300081E00330000000000000000000000 "
		},
		"gasEstimates": {
			"creation": {
				"codeDepositCost": "983600",
				"executionCost": "infinite",
				"totalCost": "infinite"
			},
			"external": {
				"UPGRADE_INTERFACE_VERSION()": "infinite",
				"count()": "2425",
				"decrement()": "infinite",
				"increment()": "infinite",
				"initialize()": "infinite",
				"owner()": "2588",
				"proxiableUUID()": "infinite",
				"renounceOwnership()": "infinite",
				"transferOwnership(address)": "infinite",
				"upgradeToAndCall(address,bytes)": "infinite"
			}
		},
		"methodIdentifiers": {
			"UPGRADE_INTERFACE_VERSION()": "ad3cb1cc",
			"count()": "06661abd",
			"decrement()": "2baeceb7",
			"increment()": "d09de08a",
			"initialize()": "8129fc1c",
			"owner()": "8da5cb5b",
			"proxiableUUID()": "52d1902d",
			"renounceOwnership()": "715018a6",
			"transferOwnership(address)": "f2fde38b",
			"upgradeToAndCall(address,bytes)": "4f1ef286"
		}
	},
	"abi": [
		{
			"inputs": [
				{
					"internalType": "address",
					"name": "target",
					"type": "address"
				}
			],
			"name": "AddressEmptyCode",
			"type": "error"
		},
		{
			"inputs": [
				{
					"internalType": "address",
					"name": "implementation",
					"type": "address"
				}
			],
			"name": "ERC1967InvalidImplementation",
			"type": "error"
		},
		{
			"inputs": [],
			"name": "ERC1967NonPayable",
			"type": "error"
		},
		{
			"inputs": [],
			"name": "FailedCall",
			"type": "error"
		},
		{
			"inputs": [],
			"name": "InvalidInitialization",
			"type": "error"
		},
		{
			"inputs": [],
			"name": "NotInitializing",
			"type": "error"
		},
		{
			"inputs": [
				{
					"internalType": "address",
					"name": "owner",
					"type": "address"
				}
			],
			"name": "OwnableInvalidOwner",
			"type": "error"
		},
		{
			"inputs": [
				{
					"internalType": "address",
					"name": "account",
					"type": "address"
				}
			],
			"name": "OwnableUnauthorizedAccount",
			"type": "error"
		},
		{
			"inputs": [],
			"name": "UUPSUnauthorizedCallContext",
			"type": "error"
		},
		{
			"inputs": [
				{
					"internalType": "bytes32",
					"name": "slot",
					"type": "bytes32"
				}
			],
			"name": "UUPSUnsupportedProxiableUUID",
			"type": "error"
		},
		{
			"anonymous": false,
			"inputs": [
				{
					"indexed": false,
					"internalType": "uint64",
					"name": "version",
					"type": "uint64"
				}
			],
			"name": "Initialized",
			"type": "event"
		},
		{
			"anonymous": false,
			"inputs": [
				{
					"indexed": true,
					"internalType": "address",
					"name": "previousOwner",
					"type": "address"
				},
				{
					"indexed": true,
					"internalType": "address",
					"name": "newOwner",
					"type": "address"
				}
			],
			"name": "OwnershipTransferred",
			"type": "event"
		},
		{
			"anonymous": false,
			"inputs": [
				{
					"indexed": true,
					"internalType": "address",
					"name": "implementation",
					"type": "address"
				}
			],
			"name": "Upgraded",
			"type": "event"
		},
		{
			"inputs": [],
			"name": "UPGRADE_INTERFACE_VERSION",
			"outputs": [
				{
					"internalType": "string",
					"name": "",
					"type": "string"
				}
			],
			"stateMutability": "view",
			"type": "function"
		},
		{
			"inputs": [],
			"name": "count",
			"outputs": [
				{
					"internalType": "uint256",
					"name": "",
					"type": "uint256"
				}
			],
			"stateMutability": "view",
			"type": "function"
		},
		{
			"inputs": [],
			"name": "decrement",
			"outputs": [],
			"stateMutability": "nonpayable",
			"type": "function"
		},
		{
			"inputs": [],
			"name": "increment",
			"outputs": [],
			"stateMutability": "nonpayable",
			"type": "function"
		},
		{
			"inputs": [],
			"name": "initialize",
			"outputs": [],
			"stateMutability": "nonpayable",
			"type": "function"
		},
		{
			"inputs": [],
			"name": "owner",
			"outputs": [
				{
					"internalType": "address",
					"name": "",
					"type": "address"
				}
			],
			"stateMutability": "view",
			"type": "function"
		},
		{
			"inputs": [],
			"name": "proxiableUUID",
			"outputs": [
				{
					"internalType": "bytes32",
					"name": "",
					"type": "bytes32"
				}
			],
			"stateMutability": "view",
			"type": "function"
		},
		{
			"inputs": [],
			"name": "renounceOwnership",
			"outputs": [],
			"stateMutability": "nonpayable",
			"type": "function"
		},
		{
			"inputs": [
				{
					"internalType": "address",
					"name": "newOwner",
					"type": "address"
				}
			],
			"name": "transferOwnership",
			"outputs": [],
			"stateMutability": "nonpayable",
			"type": "function"
		},
		{
			"inputs": [
				{
					"internalType": "address",
					"name": "newImplementation",
					"type": "address"
				},
				{
					"internalType": "bytes",
					"name": "data",
					"type": "bytes"
				}
			],
			"name": "upgradeToAndCall",
			"outputs": [],
			"stateMutability": "payable",
			"type": "function"
		}
	]
}