{
	"data": {
		"bytecode": {
			"linkReferences": {},
			"object": "6080604052348015600e575f5ffd5b50610f928061001c5f395ff3fe608060405260043610610054575f3560e01c8063141961bc14610058578063155dd5ee1461009957806322502268146100c1578063278ecde1146100e95780637274e30d14610111578063f14faf6f1461013b575b5f5ffd5b348015610063575f5ffd5b5061007e600480360381019061007991906108fb565b610157565b6040516100909695949392919061098e565b60405180910390f35b3480156100a4575f5ffd5b506100bf60048036038101906100ba91906108fb565b6101c7565b005b3480156100cc575f5ffd5b506100e760048036038101906100e291906109ed565b61045e565b005b3480156100f4575f5ffd5b5061010f600480360381019061010a91906108fb565b61052e565b005b34801561011c575f5ffd5b5061012561078b565b6040516101329190610a2b565b60405180910390f35b610155600480360381019061015091906108fb565b610790565b005b6001602052805f5260405f205f91509050805f015f9054906101000a900473ffffffffffffffffffffffffffffffffffffffff1690806001015490806002015490806003015490806004015f9054906101000a900460ff16908060040160019054906101000a900460ff16905086565b5f60015f8381526020019081526020015f209050805f015f9054906101000a900473ffffffffffffffffffffffffffffffffffffffff1673ffffffffffffffffffffffffffffffffffffffff163373ffffffffffffffffffffffffffffffffffffffff161461026b576040517f08c379a000000000000000000000000000000000000000000000000000000000815260040161026290610a9e565b60405180910390fd5b806004015f9054906101000a900460ff166102bb576040517f08c379a00000000000000000000000000000000000000000000000000000000081526004016102b290610b06565b60405180910390fd5b8060040160019054906101000a900460ff161561030d576040517f08c379a000000000000000000000000000000000000000000000000000000000815260040161030490610b6e565b60405180910390fd5b60018160040160016101000a81548160ff0219169083151502179055505f815f015f9054906101000a900473ffffffffffffffffffffffffffffffffffffffff1673ffffffffffffffffffffffffffffffffffffffff16826003015460405161037590610bb9565b5f6040518083038185875af1925050503d805f81146103af576040519150601f19603f3d011682016040523d82523d5f602084013e6103b4565b606091505b50509050806103f8576040517f08c379a00000000000000000000000000000000000000000000000000000000081526004016103ef90610c17565b60405180910390fd5b7ff440aec6b52895984d061d622e6edeba6210f7c3e059be920663140c084560d783835f015f9054906101000a900473ffffffffffffffffffffffffffffffffffffffff16846003015460405161045193929190610c35565b60405180910390a1505050565b5f5f81548092919061046f90610c97565b91905055505f60015f5f5481526020019081526020015f20905033815f015f6101000a81548173ffffffffffffffffffffffffffffffffffffffff021916908373ffffffffffffffffffffffffffffffffffffffff16021790555082816001018190555081426104df9190610cde565b81600201819055507f91b289a829e71d811b8c69e4a24ba2d40d115d8a236e9a724cb3bb2d43cf72235f54338584600201546040516105219493929190610d11565b60405180910390a1505050565b5f60015f8381526020019081526020015f20905080600201544211610588576040517f08c379a000000000000000000000000000000000000000000000000000000000815260040161057f90610d9e565b60405180910390fd5b806004015f9054906101000a900460ff16156105d9576040517f08c379a00000000000000000000000000000000000000000000000000000000081526004016105d090610e06565b60405180910390fd5b5f816005015f3373ffffffffffffffffffffffffffffffffffffffff1673ffffffffffffffffffffffffffffffffffffffff1681526020019081526020015f205490505f811161065e576040517f08c379a000000000000000000000000000000000000000000000000000000000815260040161065590610e6e565b60405180910390fd5b5f826005015f3373ffffffffffffffffffffffffffffffffffffffff1673ffffffffffffffffffffffffffffffffffffffff1681526020019081526020015f20819055505f3373ffffffffffffffffffffffffffffffffffffffff16826040516106c790610bb9565b5f6040518083038185875af1925050503d805f8114610701576040519150601f19603f3d011682016040523d82523d5f602084013e610706565b606091505b505090508061074a576040517f08c379a000000000000000000000000000000000000000000000000000000000815260040161074190610ed6565b60405180910390fd5b7f7a482fdeb6bc9a1376f597068a214a7a39472bb2eff1b8cad21ba04f49ddca1b84338460405161077d93929190610c35565b60405180910390a150505050565b5f5481565b5f60015f8381526020019081526020015f209050806002015442106107ea576040517f08c379a00000000000000000000000000000000000000000000000000000000081526004016107e190610f3e565b60405180910390fd5b34816003015f8282546107fd9190610cde565b9250508190555034816005015f3373ffffffffffffffffffffffffffffffffffffffff1673ffffffffffffffffffffffffffffffffffffffff1681526020019081526020015f205f8282546108529190610cde565b925050819055508060010154816003015410610885576001816004015f6101000a81548160ff0219169083151502179055505b7f0b5b4c52969ff7329ecf7ee536409fda87812b15a8622bc6e8cdeab3aee14a268233346040516108b893929190610c35565b60405180910390a15050565b5f5ffd5b5f819050919050565b6108da816108c8565b81146108e4575f5ffd5b50565b5f813590506108f5816108d1565b92915050565b5f602082840312156109105761090f6108c4565b5b5f61091d848285016108e7565b91505092915050565b5f73ffffffffffffffffffffffffffffffffffffffff82169050919050565b5f61094f82610926565b9050919050565b61095f81610945565b82525050565b61096e816108c8565b82525050565b5f8115159050919050565b61098881610974565b82525050565b5f60c0820190506109a15f830189610956565b6109ae6020830188610965565b6109bb6040830187610965565b6109c86060830186610965565b6109d5608083018561097f565b6109e260a083018461097f565b979650505050505050565b5f5f60408385031215610a0357610a026108c4565b5b5f610a10858286016108e7565b9250506020610a21858286016108e7565b9150509250929050565b5f602082019050610a3e5f830184610965565b92915050565b5f82825260208201905092915050565b7f4e6f742063616d706169676e206f776e657200000000000000000000000000005f82015250565b5f610a88601283610a44565b9150610a9382610a54565b602082019050919050565b5f6020820190508181035f830152610ab581610a7c565b9050919050565b7f476f616c206e6f742072656163686564000000000000000000000000000000005f82015250565b5f610af0601083610a44565b9150610afb82610abc565b602082019050919050565b5f6020820190508181035f830152610b1d81610ae4565b9050919050565b7f416c72656164792077697468647261776e0000000000000000000000000000005f82015250565b5f610b58601183610a44565b9150610b6382610b24565b602082019050919050565b5f6020820190508181035f830152610b8581610b4c565b9050919050565b5f81905092915050565b50565b5f610ba45f83610b8c565b9150610baf82610b96565b5f82019050919050565b5f610bc382610b99565b9150819050919050565b7f5472616e73666572206661696c656400000000000000000000000000000000005f82015250565b5f610c01600f83610a44565b9150610c0c82610bcd565b602082019050919050565b5f6020820190508181035f830152610c2e81610bf5565b9050919050565b5f606082019050610c485f830186610965565b610c556020830185610956565b610c626040830184610965565b949350505050565b7f4e487b71000000000000000000000000000000000000000000000000000000005f52601160045260245ffd5b5f610ca1826108c8565b91507fffffffffffffffffffffffffffffffffffffffffffffffffffffffffffffffff8203610cd357610cd2610c6a565b5b600182019050919050565b5f610ce8826108c8565b9150610cf3836108c8565b9250828201905080821115610d0b57610d0a610c6a565b5b92915050565b5f608082019050610d245f830187610965565b610d316020830186610956565b610d3e6040830185610965565b610d4b6060830184610965565b95945050505050565b7f43616d706169676e2061637469766500000000000000000000000000000000005f82015250565b5f610d88600f83610a44565b9150610d9382610d54565b602082019050919050565b5f6020820190508181035f830152610db581610d7c565b9050919050565b7f476f616c207265616368656400000000000000000000000000000000000000005f82015250565b5f610df0600c83610a44565b9150610dfb82610dbc565b602082019050919050565b5f6020820190508181035f830152610e1d81610de4565b9050919050565b7f4e6f20636f6e747269627574696f6e00000000000000000000000000000000005f82015250565b5f610e58600f83610a44565b9150610e6382610e24565b602082019050919050565b5f6020820190508181035f830152610e8581610e4c565b9050919050565b7f526566756e64206661696c6564000000000000000000000000000000000000005f82015250565b5f610ec0600d83610a44565b9150610ecb82610e8c565b602082019050919050565b5f6020820190508181035f830152610eed81610eb4565b9050919050565b7f43616d706169676e20656e6465640000000000000000000000000000000000005f82015250565b5f610f28600e83610a44565b9150610f3382610ef4565b602082019050919050565b5f6020820190508181035f830152610f5581610f1c565b905091905056fea2646970667358221220f8f444fdc75e7c556628d0d693d845cab55004d87ab45a6e58f8d91813aec43564736f6c634300081e0033",
			"opcodes": "PUSH1 0x80 PUSH1 0x40 MSTORE CALLVALUE DUP1 ISZERO PUSH1 0xE JUMPI PUSH0 PUSH0 REVERT JUMPDEST POP PUSH2 0xF92 DUP1 PUSH2 0x1C PUSH0 CODECOPY PUSH0 RETURN INVALID PUSH1 0x80 PUSH1 0x40 MSTORE PUSH1 0x4 CALLDATASIZE LT PUSH2 0x54 JUMPI PUSH0 CALLDATALOAD PUSH1 0xE0 SHR DUP1 PUSH4 0x141961BC EQ PUSH2 0x58 JUMPI DUP1 PUSH4 0x155DD5EE EQ PUSH2 0x99 JUMPI DUP1 PUSH4 0x22502268 EQ PUSH2 0xC1 JUMPI DUP1 PUSH4 0x278ECDE1 EQ PUSH2 0xE9 JUMPI DUP1 PUSH4 0x7274E30D EQ PUSH2 0x111 JUMPI DUP1 PUSH4 0xF14FAF6F EQ PUSH2 0x13B JUMPI JUMPDEST PUSH0 PUSH0 REVERT JUMPDEST CALLVALUE DUP1 ISZERO PUSH2 0x63 JUMPI PUSH0 PUSH0 REVERT JUMPDEST POP PUSH2 0x7E PUSH1 0x4 DUP1 CALLDATASIZE SUB DUP2 ADD SWAP1 PUSH2 0x79 SWAP2 SWAP1 PUSH2 0x8FB JUMP JUMPDEST PUSH2 0x157 JUMP JUMPDEST PUSH1 0x40 MLOAD PUSH2 0x90 SWAP7 SWAP6 SWAP5 SWAP4 SWAP3 SWAP2 SWAP1 PUSH2 0x98E JUMP JUMPDEST PUSH1 0x40 MLOAD DUP1 SWAP2 SUB SWAP1 RETURN JUMPDEST CALLVALUE DUP1 ISZERO PUSH2 0xA4 JUMPI PUSH0 PUSH0 REVERT JUMPDEST POP PUSH2 0xBF PUSH1 0x4 DUP1 CALLDATASIZE SUB DUP2 ADD SWAP1 PUSH2 0xBA SWAP2 SWAP1 PUSH2 0x8FB JUMP JUMPDEST PUSH2 0x1C7 JUMP JUMPDEST STOP JUMPDEST CALLVALUE DUP1 ISZERO PUSH2 0xCC JUMPI PUSH0 PUSH0 REVERT JUMPDEST POP PUSH2 0xE7 PUSH1 0x4 DUP1 CALLDATASIZE SUB DUP2 ADD SWAP1 PUSH2 0xE2 SWAP2 SWAP1 PUSH2 0x9ED JUMP JUMPDEST PUSH2 0x45E JUMP JUMPDEST STOP JUMPDEST CALLVALUE DUP1 ISZERO PUSH2 0xF4 JUMPI PUSH0 PUSH0 REVERT JUMPDEST POP PUSH2 0x10F PUSH1 0x4 DUP1 CALLDATASIZE SUB DUP2 ADD SWAP1 PUSH2 0x10A SWAP2 SWAP1 PUSH2 0x8FB JUMP JUMPDEST PUSH2 0x52E JUMP JUMPDEST STOP JUMPDEST CALLVALUE DUP1 ISZERO PUSH2 0x11C JUMPI PUSH0 PUSH0 REVERT JUMPDEST POP PUSH2 0x125 PUSH2 0x78B JUMP JUMPDEST PUSH1 0x40 MLOAD PUSH2 0x132 SWAP2 SWAP1 PUSH2 0xA2B JUMP JUMPDEST PUSH1 0x40 MLOAD DUP1 SWAP2 SUB SWAP1 RETURN JUMPDEST PUSH2 0x155 PUSH1 0x4 DUP1 CALLDATASIZE SUB DUP2 ADD SWAP1 PUSH2 0x150 SWAP2 SWAP1 PUSH2 0x8FB JUMP JUMPDEST PUSH2 0x790 JUMP JUMPDEST STOP JUMPDEST PUSH1 0x1 PUSH1 0x20 MSTORE DUP1 PUSH0 MSTORE PUSH1 0x40 PUSH0 KECCAK256 PUSH0 SWAP2 POP SWAP1 POP DUP1 PUSH0 ADD PUSH0 SWAP1 SLOAD SWAP1 PUSH2 0x100 EXP SWAP1 DIV PUSH20 0xFFFFFFFFFFFFFFFFFFFFFFFFFFFFFFFFFFFFFFFF AND SWAP1 DUP1 PUSH1 0x1 ADD SLOAD SWAP1 DUP1 PUSH1 0x2 ADD SLOAD SWAP1 DUP1 PUSH1 0x3 ADD SLOAD SWAP1 DUP1 PUSH1 0x4 ADD PUSH0 SWAP1 SLOAD SWAP1 PUSH2 0x100 EXP SWAP1 DIV PUSH1 0xFF AND SWAP1 DUP1 PUSH1 0x4 ADD PUSH1 0x1 SWAP1 SLOAD SWAP1 PUSH2 0x100 EXP SWAP1 DIV PUSH1 0xFF AND SWAP1 POP DUP7 JUMP JUMPDEST PUSH0 PUSH1 0x1 PUSH0 DUP4 DUP2 MSTORE PUSH1 0x20 ADD SWAP1 DUP2 MSTORE PUSH1 0x20 ADD PUSH0 KECCAK256 SWAP1 POP DUP1 PUSH0 ADD PUSH0 SWAP1 SLOAD SWAP1 PUSH2 0x100 EXP SWAP1 DIV PUSH20 0xFFFFFFFFFFFFFFFFFFFFFFFFFFFFFFFFFFFFFFFF AND PUSH20 0xFFFFFFFFFFFFFFFFFFFFFFFFFFFFFFFFFFFFFFFF AND CALLER PUSH20 0xFFFFFFFFFFFFFFFFFFFFFFFFFFFFFFFFFFFFFFFF AND EQ PUSH2 0x26B JUMPI PUSH1 0x40 MLOAD PUSH32 0x8C379A000000000000000000000000000000000000000000000000000000000 DUP2 MSTORE PUSH1 0x4 ADD PUSH2 0x262 SWAP1 PUSH2 0xA9E JUMP JUMPDEST PUSH1 0x40 MLOAD DUP1 SWAP2 SUB SWAP1 REVERT JUMPDEST DUP1 PUSH1 0x4 ADD PUSH0 SWAP1 SLOAD SWAP1 PUSH2 0x100 EXP SWAP1 DIV PUSH1 0xFF AND PUSH2 0x2BB JUMPI PUSH1 0x40 MLOAD PUSH32 0x8C379A000000000000000000000000000000000000000000000000000000000 DUP2 MSTORE PUSH1 0x4 ADD PUSH2 0x2B2 SWAP1 PUSH2 0xB06 JUMP JUMPDEST PUSH1 0x40 MLOAD DUP1 SWAP2 SUB SWAP1 REVERT JUMPDEST DUP1 PUSH1 0x4 ADD PUSH1 0x1 SWAP1 SLOAD SWAP1 PUSH2 0x100 EXP SWAP1 DIV PUSH1 0xFF AND ISZERO PUSH2 0x30D JUMPI PUSH1 0x40 MLOAD PUSH32 0x8C379A000000000000000000000000000000000000000000000000000000000 DUP2 MSTORE PUSH1 0x4 ADD PUSH2 0x304 SWAP1 PUSH2 0xB6E JUMP JUMPDEST PUSH1 0x40 MLOAD DUP1 SWAP2 SUB SWAP1 REVERT JUMPDEST PUSH1 0x1 DUP2 PUSH1 0x4 ADD PUSH1 0x1 PUSH2 0x100 EXP DUP2 SLOAD DUP2 PUSH1 0xFF MUL NOT AND SWAP1 DUP4 ISZERO ISZERO MUL OR SWAP1 SSTORE POP PUSH0 DUP2 PUSH0 ADD PUSH0 SWAP1 SLOAD SWAP1 PUSH2 0x100 EXP SWAP1 DIV PUSH20 0xFFFFFFFFFFFFFFFFFFFFFFFFFFFFFFFFFFFFFFFF AND PUSH20 0xFFFFFFFFFFFFFFFFFFFFFFFFFFFFFFFFFFFFFFFF AND DUP3 PUSH1 0x3 ADD SLOAD PUSH1 0x40 MLOAD PUSH2 0x375 SWAP1 PUSH2 0xBB9 JUMP JUMPDEST PUSH0 PUSH1 0x40 MLOAD DUP1 DUP4 SUB DUP2 DUP6 DUP8 GAS CALL SWAP3 POP POP POP RETURNDATASIZE DUP1 PUSH0 DUP2 EQ PUSH2 0x3AF JUMPI PUSH1 0x40 MLOAD SWAP2 POP PUSH1 0x1F NOT PUSH1 0x3F RETURNDATASIZE ADD AND DUP3 ADD PUSH1 0x40 MSTORE RETURNDATASIZE DUP3 MSTORE RETURNDATASIZE PUSH0 PUSH1 0x20 DUP5 ADD RETURNDATACOPY PUSH2 0x3B4 JUMP JUMPDEST PUSH1 0x60 SWAP2 POP JUMPDEST POP POP SWAP1 POP DUP1 PUSH2 0x3F8 JUMPI PUSH1 0x40 MLOAD PUSH32 0x8C379A000000000000000000000000000000000000000000000000000000000 DUP2 MSTORE PUSH1 0x4 ADD PUSH2 0x3EF SWAP1 PUSH2 0xC17 JUMP JUMPDEST PUSH1 0x40 MLOAD DUP1 SWAP2 SUB SWAP1 REVERT JUMPDEST PUSH32 0xF440AEC6B52895984D061D622E6EDEBA6210F7C3E059BE920663140C084560D7 DUP4 DUP4 PUSH0 ADD PUSH0 SWAP1 SLOAD SWAP1 PUSH2 0x100 EXP SWAP1 DIV PUSH20 0xFFFFFFFFFFFFFFFFFFFFFFFFFFFFFFFFFFFFFFFF AND DUP5 PUSH1 0x3 ADD SLOAD PUSH1 0x40 MLOAD PUSH2 0x451 SWAP4 SWAP3 SWAP2 SWAP1 PUSH2 0xC35 JUMP JUMPDEST PUSH1 0x40 MLOAD DUP1 SWAP2 SUB SWAP1 LOG1 POP POP POP JUMP JUMPDEST PUSH0 PUSH0 DUP2 SLOAD DUP1 SWAP3 SWAP2 SWAP1 PUSH2 0x46F SWAP1 PUSH2 0xC97 JUMP JUMPDEST SWAP2 SWAP1 POP SSTORE POP PUSH0 PUSH1 0x1 PUSH0 PUSH0 SLOAD DUP2 MSTORE PUSH1 0x20 ADD SWAP1 DUP2 MSTORE PUSH1 0x20 ADD PUSH0 KECCAK256 SWAP1 POP CALLER DUP2 PUSH0 ADD PUSH0 PUSH2 0x100 EXP DUP2 SLOAD DUP2 PUSH20 0xFFFFFFFFFFFFFFFFFFFFFFFFFFFFFFFFFFFFFFFF MUL NOT AND SWAP1 DUP4 PUSH20 0xFFFFFFFFFFFFFFFFFFFFFFFFFFFFFFFFFFFFFFFF AND MUL OR SWAP1 SSTORE POP DUP3 DUP2 PUSH1 0x1 ADD DUP2 SWAP1 SSTORE POP DUP2 TIMESTAMP PUSH2 0x4DF SWAP2 SWAP1 PUSH2 0xCDE JUMP JUMPDEST DUP2 PUSH1 0x2 ADD DUP2 SWAP1 SSTORE POP PUSH32 0x91B289A829E71D811B8C69E4A24BA2D40D115D8A236E9A724CB3BB2D43CF7223 PUSH0 SLOAD CALLER DUP6 DUP5 PUSH1 0x2 ADD SLOAD PUSH1 0x40 MLOAD PUSH2 0x521 SWAP5 SWAP4 SWAP3 SWAP2 SWAP1 PUSH2 0xD11 JUMP JUMPDEST PUSH1 0x40 MLOAD DUP1 SWAP2 SUB SWAP1 LOG1 POP POP POP JUMP JUMPDEST PUSH0 PUSH1 0x1 PUSH0 DUP4 DUP2 MSTORE PUSH1 0x20 ADD SWAP1 DUP2 MSTORE PUSH1 0x20 ADD PUSH0 KECCAK256 SWAP1 POP DUP1 PUSH1 0x2 ADD SLOAD TIMESTAMP GT PUSH2 0x588 JUMPI PUSH1 0x40 MLOAD PUSH32 0x8C379A000000000000000000000000000000000000000000000000000000000 DUP2 MSTORE PUSH1 0x4 ADD PUSH2 0x57F SWAP1 PUSH2 0xD9E JUMP JUMPDEST PUSH1 0x40 MLOAD DUP1 SWAP2 SUB SWAP1 REVERT JUMPDEST DUP1 PUSH1 0x4 ADD PUSH0 SWAP1 SLOAD SWAP1 PUSH2 0x100 EXP SWAP1 DIV PUSH1 0xFF AND ISZERO PUSH2 0x5D9 JUMPI PUSH1 0x40 MLOAD PUSH32 0x8C379A000000000000000000000000000000000000000000000000000000000 DUP2 MSTORE PUSH1 0x4 ADD PUSH2 0x5D0 SWAP1 PUSH2 0xE06 JUMP JUMPDEST PUSH1 0x40 MLOAD DUP1 SWAP2 SUB SWAP1 REVERT JUMPDEST PUSH0 DUP2 PUSH1 0x5 ADD PUSH0 CALLER PUSH20 0xFFFFFFFFFFFFFFFFFFFFFFFFFFFFFFFFFFFFFFFF AND PUSH20 0xFFFFFFFFFFFFFFFFFFFFFFFFFFFFFFFFFFFFFFFF AND DUP2 MSTORE PUSH1 0x20 ADD SWAP1 DUP2 MSTORE PUSH1 0x20 ADD PUSH0 KECCAK256 SLOAD SWAP1 POP PUSH0 DUP2 GT PUSH2 0x65E JUMPI PUSH1 0x40 MLOAD PUSH32 0x8C379A000000000000000000000000000000000000000000000000000000000 DUP2 MSTORE PUSH1 0x4 ADD PUSH2 0x655 SWAP1 PUSH2 0xE6E JUMP JUMPDEST PUSH1 0x40 MLOAD DUP1 SWAP2 SUB SWAP1 REVERT JUMPDEST PUSH0 DUP3 PUSH1 0x5 ADD PUSH0 CALLER PUSH20 0xFFFFFFFFFFFFFFFFFFFFFFFFFFFFFFFFFFFFFFFF AND PUSH20 0xFFFFFFFFFFFFFFFFFFFFFFFFFFFFFFFFFFFFFFFF AND DUP2 MSTORE PUSH1 0x20 ADD SWAP1 DUP2 MSTORE PUSH1 0x20 ADD PUSH0 KECCAK256 DUP2 SWAP1 SSTORE POP PUSH0 CALLER PUSH20 0xFFFFFFFFFFFFFFFFFFFFFFFFFFFFFFFFFFFFFFFF AND DUP3 PUSH1 0x40 MLOAD PUSH2 0x6C7 SWAP1 PUSH2 0xBB9 JUMP JUMPDEST PUSH0 PUSH1 0x40 MLOAD DUP1 DUP4 SUB DUP2 DUP6 DUP8 GAS CALL SWAP3 POP POP POP RETURNDATASIZE DUP1 PUSH0 DUP2 EQ PUSH2 0x701 JUMPI PUSH1 0x40 MLOAD SWAP2 POP PUSH1 0x1F NOT PUSH1 0x3F RETURNDATASIZE ADD AND DUP3 ADD PUSH1 0x40 MSTORE RETURNDATASIZE DUP3 MSTORE RETURNDATASIZE PUSH0 PUSH1 0x20 DUP5 ADD RETURNDATACOPY PUSH2 0x706 JUMP JUMPDEST PUSH1 0x60 SWAP2 POP JUMPDEST POP POP SWAP1 POP DUP1 PUSH2 0x74A JUMPI PUSH1 0x40 MLOAD PUSH32 0x8C379A000000000000000000000000000000000000000000000000000000000 DUP2 MSTORE PUSH1 0x4 ADD PUSH2 0x741 SWAP1 PUSH2 0xED6 JUMP JUMPDEST PUSH1 0x40 MLOAD DUP1 SWAP2 SUB SWAP1 REVERT JUMPDEST PUSH32 0x7A482FDEB6BC9A1376F597068A214A7A39472BB2EFF1B8CAD21BA04F49DDCA1B DUP5 CALLER DUP5 PUSH1 0x40 MLOAD PUSH2 0x77D SWAP4 SWAP3 SWAP2 SWAP1 PUSH2 0xC35 JUMP JUMPDEST PUSH1 0x40 MLOAD DUP1 SWAP2 SUB SWAP1 LOG1 POP POP POP POP JUMP JUMPDEST PUSH0 SLOAD DUP2 JUMP JUMPDEST PUSH0 PUSH1 0x1 PUSH0 DUP4 DUP2 MSTORE PUSH1 0x20 ADD SWAP1 DUP2 MSTORE PUSH1 0x20 ADD PUSH0 KECCAK256 SWAP1 POP DUP1 PUSH1 0x2 ADD SLOAD TIMESTAMP LT PUSH2 0x7EA JUMPI PUSH1 0x40 MLOAD PUSH32 0x8C379A000000000000000000000000000000000000000000000000000000000 DUP2 MSTORE PUSH1 0x4 ADD PUSH2 0x7E1 SWAP1 PUSH2 0xF3E JUMP JUMPDEST PUSH1 0x40 MLOAD DUP1 SWAP2 SUB SWAP1 REVERT JUMPDEST CALLVALUE DUP2 PUSH1 0x3 ADD PUSH0 DUP3 DUP3 SLOAD PUSH2 0x7FD SWAP2 SWAP1 PUSH2 0xCDE JUMP JUMPDEST SWAP3 POP POP DUP2 SWAP1 SSTORE POP CALLVALUE DUP2 PUSH1 0x5 ADD PUSH0 CALLER PUSH20 0xFFFFFFFFFFFFFFFFFFFFFFFFFFFFFFFFFFFFFFFF AND PUSH20 0xFFFFFFFFFFFFFFFFFFFFFFFFFFFFFFFFFFFFFFFF AND DUP2 MSTORE PUSH1 0x20 ADD SWAP1 DUP2 MSTORE PUSH1 0x20 ADD PUSH0 KECCAK256 PUSH0 DUP3 DUP3 SLOAD PUSH2 0x852 SWAP2 SWAP1 PUSH2 0xCDE JUMP JUMPDEST SWAP3 POP POP DUP2 SWAP1 SSTORE POP DUP1 PUSH1 0x1 ADD SLOAD DUP2 PUSH1 0x3 ADD SLOAD LT PUSH2 0x885 JUMPI PUSH1 0x1 DUP2 PUSH1 0x4 ADD PUSH0 PUSH2 0x100 EXP DUP2 SLOAD DUP2 PUSH1 0xFF MUL NOT AND SWAP1 DUP4 ISZERO ISZERO MUL OR SWAP1 SSTORE POP JUMPDEST PUSH32 0xB5B4C52969FF7329ECF7EE536409FDA87812B15A8622BC6E8CDEAB3AEE14A26 DUP3 CALLER CALLVALUE PUSH1 0x40 MLOAD PUSH2 0x8B8 SWAP4 SWAP3 SWAP2 SWAP1 PUSH2 0xC35 JUMP JUMPDEST PUSH1 0x40 MLOAD DUP1 SWAP2 SUB SWAP1 LOG1 POP POP JUMP JUMPDEST PUSH0 PUSH0 REVERT JUMPDEST PUSH0 DUP2 SWAP1 POP SWAP2 SWAP1 POP JUMP JUMPDEST PUSH2 0x8DA DUP2 PUSH2 0x8C8 JUMP JUMPDEST DUP2 EQ PUSH2 0x8E4 JUMPI PUSH0 PUSH0 REVERT JUMPDEST POP JUMP JUMPDEST PUSH0 DUP2 CALLDATALOAD SWAP1 POP PUSH2 0x8F5 DUP2 PUSH2 0x8D1 JUMP JUMPDEST SWAP3 SWAP2 POP POP JUMP JUMPDEST PUSH0 PUSH1 0x20 DUP3 DUP5 SUB SLT ISZERO PUSH2 0x910 JUMPI PUSH2 0x90F PUSH2 0x8C4 JUMP JUMPDEST JUMPDEST PUSH0 PUSH2 0x91D DUP5 DUP3 DUP6 ADD PUSH2 0x8E7 JUMP JUMPDEST SWAP2 POP POP SWAP3 SWAP2 POP POP JUMP JUMPDEST PUSH0 PUSH20 0xFFFFFFFFFFFFFFFFFFFFFFFFFFFFFFFFFFFFFFFF DUP3 AND SWAP1 POP SWAP2 SWAP1 POP JUMP JUMPDEST PUSH0 PUSH2 0x94F DUP3 PUSH2 0x926 JUMP JUMPDEST SWAP1 POP SWAP2 SWAP1 POP JUMP JUMPDEST PUSH2 0x95F DUP2 PUSH2 0x945 JUMP JUMPDEST DUP3 MSTORE POP POP JUMP JUMPDEST PUSH2 0x96E DUP2 PUSH2 0x8C8 JUMP JUMPDEST DUP3 MSTORE POP POP JUMP JUMPDEST PUSH0 DUP2 ISZERO ISZERO SWAP1 POP SWAP2 SWAP1 POP JUMP JUMPDEST PUSH2 0x988 DUP2 PUSH2 0x974 JUMP JUMPDEST DUP3 MSTORE POP POP JUMP JUMPDEST PUSH0 PUSH1 0xC0 DUP3 ADD SWAP1 POP PUSH2 0x9A1 PUSH0 DUP4 ADD DUP10 PUSH2 0x956 JUMP JUMPDEST PUSH2 0x9AE PUSH1 0x20 DUP4 ADD DUP9 PUSH2 0x965 JUMP JUMPDEST PUSH2 0x9BB PUSH1 0x40 DUP4 ADD DUP8 PUSH2 0x965 JUMP JUMPDEST PUSH2 0x9C8 PUSH1 0x60 DUP4 ADD DUP7 PUSH2 0x965 JUMP JUMPDEST PUSH2 0x9D5 PUSH1 0x80 DUP4 ADD DUP6 PUSH2 0x97F JUMP JUMPDEST PUSH2 0x9E2 PUSH1 0xA0 DUP4 ADD DUP5 PUSH2 0x97F JUMP JUMPDEST SWAP8 SWAP7 POP POP POP POP POP POP POP JUMP JUMPDEST PUSH0 PUSH0 PUSH1 0x40 DUP4 DUP6 SUB SLT ISZERO PUSH2 0xA03 JUMPI PUSH2 0xA02 PUSH2 0x8C4 JUMP JUMPDEST JUMPDEST PUSH0 PUSH2 0xA10 DUP6 DUP3 DUP7 ADD PUSH2 0x8E7 JUMP JUMPDEST SWAP3 POP POP PUSH1 0x20 PUSH2 0xA21 DUP6 DUP3 DUP7 ADD PUSH2 0x8E7 JUMP JUMPDEST SWAP2 POP POP SWAP3 POP SWAP3 SWAP1 POP JUMP JUMPDEST PUSH0 PUSH1 0x20 DUP3 ADD SWAP1 POP PUSH2 0xA3E PUSH0 DUP4 ADD DUP5 PUSH2 0x965 JUMP JUMPDEST SWAP3 SWAP2 POP POP JUMP JUMPDEST PUSH0 DUP3 DUP3 MSTORE PUSH1 0x20 DUP3 ADD SWAP1 POP SWAP3 SWAP2 POP POP JUMP JUMPDEST PUSH32 0x4E6F742063616D706169676E206F776E65720000000000000000000000000000 PUSH0 DUP3 ADD MSTORE POP JUMP JUMPDEST PUSH0 PUSH2 0xA88 PUSH1 0x12 DUP4 PUSH2 0xA44 JUMP JUMPDEST SWAP2 POP PUSH2 0xA93 DUP3 PUSH2 0xA54 JUMP JUMPDEST PUSH1 0x20 DUP3 ADD SWAP1 POP SWAP2 SWAP1 POP JUMP JUMPDEST PUSH0 PUSH1 0x20 DUP3 ADD SWAP1 POP DUP2 DUP2 SUB PUSH0 DUP4 ADD MSTORE PUSH2 0xAB5 DUP2 PUSH2 0xA7C JUMP JUMPDEST SWAP1 POP SWAP2 SWAP1 POP JUMP JUMPDEST PUSH32 0x476F616C206E6F74207265616368656400000000000000000000000000000000 PUSH0 DUP3 ADD MSTORE POP JUMP JUMPDEST PUSH0 PUSH2 0xAF0 PUSH1 0x10 DUP4 PUSH2 0xA44 JUMP JUMPDEST SWAP2 POP PUSH2 0xAFB DUP3 PUSH2 0xABC JUMP JUMPDEST PUSH1 0x20 DUP3 ADD SWAP1 POP SWAP2 SWAP1 POP JUMP JUMPDEST PUSH0 PUSH1 0x20 DUP3 ADD SWAP1 POP DUP2 DUP2 SUB PUSH0 DUP4 ADD MSTORE PUSH2 0xB1D DUP2 PUSH2 0xAE4 JUMP JUMPDEST SWAP1 POP SWAP2 SWAP1 POP JUMP JUMPDEST PUSH32 0x416C72656164792077697468647261776E000000000000000000000000000000 PUSH0 DUP3 ADD MSTORE POP JUMP JUMPDEST PUSH0 PUSH2 0xB58 PUSH1 0x11 DUP4 PUSH2 0xA44 JUMP JUMPDEST SWAP2 POP PUSH2 0xB63 DUP3 PUSH2 0xB24 JUMP JUMPDEST PUSH1 0x20 DUP3 ADD SWAP1 POP SWAP2 SWAP1 POP JUMP JUMPDEST PUSH0 PUSH1 0x20 DUP3 ADD SWAP1 POP DUP2 DUP2 SUB PUSH0 DUP4 ADD MSTORE PUSH2 0xB85 DUP2 PUSH2 0xB4C JUMP JUMPDEST SWAP1 POP SWAP2 SWAP1 POP JUMP JUMPDEST PUSH0 DUP2 SWAP1 POP SWAP3 SWAP2 POP POP JUMP JUMPDEST POP JUMP JUMPDEST PUSH0 PUSH2 0xBA4 PUSH0 DUP4 PUSH2 0xB8C JUMP JUMPDEST SWAP2 POP PUSH2 0xBAF DUP3 PUSH2 0xB96 JUMP JUMPDEST PUSH0 DUP3 ADD SWAP1 POP SWAP2 SWAP1 POP JUMP JUMPDEST PUSH0 PUSH2 0xBC3 DUP3 PUSH2 0xB99 JUMP JUMPDEST SWAP2 POP DUP2 SWAP1 POP SWAP2 SWAP1 POP JUMP JUMPDEST PUSH32 0x5472616E73666572206661696C65640000000000000000000000000000000000 PUSH0 DUP3 ADD MSTORE POP JUMP JUMPDEST PUSH0 PUSH2 0xC01 PUSH1 0xF DUP4 PUSH2 0xA44 JUMP JUMPDEST SWAP2 POP PUSH2 0xC0C DUP3 PUSH2 0xBCD JUMP JUMPDEST PUSH1 0x20 DUP3 ADD SWAP1 POP SWAP2 SWAP1 POP JUMP JUMPDEST PUSH0 PUSH1 0x20 DUP3 ADD SWAP1 POP DUP2 DUP2 SUB PUSH0 DUP4 ADD MSTORE PUSH2 0xC2E DUP2 PUSH2 0xBF5 JUMP JUMPDEST SWAP1 POP SWAP2 SWAP1 POP JUMP JUMPDEST PUSH0 PUSH1 0x60 DUP3 ADD SWAP1 POP PUSH2 0xC48 PUSH0 DUP4 ADD DUP7 PUSH2 0x965 JUMP JUMPDEST PUSH2 0xC55 PUSH1 0x20 DUP4 ADD DUP6 PUSH2 0x956 JUMP JUMPDEST PUSH2 0xC62 PUSH1 0x40 DUP4 ADD DUP5 PUSH2 0x965 JUMP JUMPDEST SWAP5 SWAP4 POP POP POP POP JUMP JUMPDEST PUSH32 0x4E487B7100000000000000000000000000000000000000000000000000000000 PUSH0 MSTORE PUSH1 0x11 PUSH1 0x4 MSTORE PUSH1 0x24 PUSH0 REVERT JUMPDEST PUSH0 PUSH2 0xCA1 DUP3 PUSH2 0x8C8 JUMP JUMPDEST SWAP2 POP PUSH32 0xFFFFFFFFFFFFFFFFFFFFFFFFFFFFFFFFFFFFFFFFFFFFFFFFFFFFFFFFFFFFFFFF DUP3 SUB PUSH2 0xCD3 JUMPI PUSH2 0xCD2 PUSH2 0xC6A JUMP JUMPDEST JUMPDEST PUSH1 0x1 DUP3 ADD SWAP1 POP SWAP2 SWAP1 POP JUMP JUMPDEST PUSH0 PUSH2 0xCE8 DUP3 PUSH2 0x8C8 JUMP JUMPDEST SWAP2 POP PUSH2 0xCF3 DUP4 PUSH2 0x8C8 JUMP JUMPDEST SWAP3 POP DUP3 DUP3 ADD SWAP1 POP DUP1 DUP3 GT ISZERO PUSH2 0xD0B JUMPI PUSH2 0xD0A PUSH2 0xC6A JUMP JUMPDEST JUMPDEST SWAP3 SWAP2 POP POP JUMP JUMPDEST PUSH0 PUSH1 0x80 DUP3 ADD SWAP1 POP PUSH2 0xD24 PUSH0 DUP4 ADD DUP8 PUSH2 0x965 JUMP JUMPDEST PUSH2 0xD31 PUSH1 0x20 DUP4 ADD DUP7 PUSH2 0x956 JUMP JUMPDEST PUSH2 0xD3E PUSH1 0x40 DUP4 ADD DUP6 PUSH2 0x965 JUMP JUMPDEST PUSH2 0xD4B PUSH1 0x60 DUP4 ADD DUP5 PUSH2 0x965 JUMP JUMPDEST SWAP6 SWAP5 POP POP POP POP POP JUMP JUMPDEST PUSH32 0x43616D706169676E206163746976650000000000000000000000000000000000 PUSH0 DUP3 ADD MSTORE POP JUMP JUMPDEST PUSH0 PUSH2 0xD88 PUSH1 0xF DUP4 PUSH2 0xA44 JUMP JUMPDEST SWAP2 POP PUSH2 0xD93 DUP3 PUSH2 0xD54 JUMP JUMPDEST PUSH1 0x20 DUP3 ADD SWAP1 POP SWAP2 SWAP1 POP JUMP JUMPDEST PUSH0 PUSH1 0x20 DUP3 ADD SWAP1 POP DUP2 DUP2 SUB PUSH0 DUP4 ADD MSTORE PUSH2 0xDB5 DUP2 PUSH2 0xD7C JUMP JUMPDEST SWAP1 POP SWAP2 SWAP1 POP JUMP JUMPDEST PUSH32 0x476F616C20726561636865640000000000000000000000000000000000000000 PUSH0 DUP3 ADD MSTORE POP JUMP JUMPDEST PUSH0 PUSH2 0xDF0 PUSH1 0xC DUP4 PUSH2 0xA44 JUMP JUMPDEST SWAP2 POP PUSH2 0xDFB DUP3 PUSH2 0xDBC JUMP JUMPDEST PUSH1 0x20 DUP3 ADD SWAP1 POP SWAP2 SWAP1 POP JUMP JUMPDEST PUSH0 PUSH1 0x20 DUP3 ADD SWAP1 POP DUP2 DUP2 SUB PUSH0 DUP4 ADD MSTORE PUSH2 0xE1D DUP2 PUSH2 0xDE4 JUMP JUMPDEST SWAP1 POP SWAP2 SWAP1 POP JUMP JUMPDEST PUSH32 0x4E6F20636F6E747269627574696F6E0000000000000000000000000000000000 PUSH0 DUP3 ADD MSTORE POP JUMP JUMPDEST PUSH0 PUSH2 0xE58 PUSH1 0xF DUP4 PUSH2 0xA44 JUMP JUMPDEST SWAP2 POP PUSH2 0xE63 DUP3 PUSH2 0xE24 JUMP JUMPDEST PUSH1 0x20 DUP3 ADD SWAP1 POP SWAP2 SWAP1 POP JUMP JUMPDEST PUSH0 PUSH1 0x20 DUP3 ADD SWAP1 POP DUP2 DUP2 SUB PUSH0 DUP4 ADD MSTORE PUSH2 0xE85 DUP2 PUSH2 0xE4C JUMP JUMPDEST SWAP1 POP SWAP2 SWAP1 POP JUMP JUMPDEST PUSH32 0x526566756E64206661696C656400000000000000000000000000000000000000 PUSH0 DUP3 ADD MSTORE POP JUMP JUMPDEST PUSH0 PUSH2 0xEC0 PUSH1 0xD DUP4 PUSH2 0xA44 JUMP JUMPDEST SWAP2 POP PUSH2 0xECB DUP3 PUSH2 0xE8C JUMP JUMPDEST PUSH1 0x20 DUP3 ADD SWAP1 POP SWAP2 SWAP1 POP JUMP JUMPDEST PUSH0 PUSH1 0x20 DUP3 ADD SWAP1 POP DUP2 DUP2 SUB PUSH0 DUP4 ADD MSTORE PUSH2 0xEED DUP2 PUSH2 0xEB4 JUMP JUMPDEST SWAP1 POP SWAP2 SWAP1 POP JUMP JUMPDEST PUSH32 0x43616D706169676E20656E646564000000000000000000000000000000000000 PUSH0 DUP3 ADD MSTORE POP JUMP JUMPDEST PUSH0 PUSH2 0xF28 PUSH1 0xE DUP4 PUSH2 0xA44 JUMP JUMPDEST SWAP2 POP PUSH2 0xF33 DUP3 PUSH2 0xEF4 JUMP JUMPDEST PUSH1 0x20 DUP3 ADD SWAP1 POP SWAP2 SWAP1 POP JUMP JUMPDEST PUSH0 PUSH1 0x20 DUP3 ADD SWAP1 POP DUP2 DUP2 SUB PUSH0 DUP4 ADD MSTORE PUSH2 0xF55 DUP2 PUSH2 0xF1C JUMP JUMPDEST SWAP1 POP SWAP2 SWAP1 POP JUMP INVALID LOG2 PUSH5 0x6970667358 0x22 SLT KECCAK256 EXTCALL DELEGATECALL PREVRANDAO REVERT 0xC7 MCOPY PUSH29 0x556628D0D693D845CAB55004D87AB45A6E58F8D91813AEC43564736F6C PUSH4 0x4300081E STOP CALLER "
		},
		"gasEstimates": {
			"creation": {
				"codeDepositCost": "797200",
				"executionCost": "829",
				"totalCost": "798029"
			},
			"external": {
				"campaignCount()": "2490",
				"campaigns(uint256)": "infinite",
				"createCampaign(uint256,uint256)": "infinite",
				"donate(uint256)": "infinite",
				"refund(uint256)": "infinite",
				"withdrawFunds(uint256)": "infinite"
			}
		},
		"methodIdentifiers": {
			"campaignCount()": "7274e30d",
			"campaigns(uint256)": "141961bc",
			"createCampaign(uint256,uint256)": "22502268",
			"donate(uint256)": "f14faf6f",
			"refund(uint256)": "278ecde1",
			"withdrawFunds(uint256)": "155dd5ee"
		}
	},
	"abi": [
		{
			"anonymous": false,
			"inputs": [
				{
					"indexed": false,
					"internalType": "uint256",
					"name": "campaignId",
					"type": "uint256"
				},
				{
					"indexed": false,
					"internalType": "address",
					"name": "owner",
					"type": "address"
				},
				{
					"indexed": false,
					"internalType": "uint256",
					"name": "goalAmount",
					"type": "uint256"
				},
				{
					"indexed": false,
					"internalType": "uint256",
					"name": "deadline",
					"type": "uint256"
				}
			],
			"name": "CampaignCreated",
			"type": "event"
		},
		{
			"anonymous": false,
			"inputs": [
				{
					"indexed": false,
					"internalType": "uint256",
					"name": "campaignId",
					"type": "uint256"
				},
				{
					"indexed": false,
					"internalType": "address",
					"name": "donor",
					"type": "address"
				},
				{
					"indexed": false,
					"internalType": "uint256",
					"name": "amount",
					"type": "uint256"
				}
			],
			"name": "DonationReceived",
			"type": "event"
		},
		{
			"anonymous": false,
			"inputs": [
				{
					"indexed": false,
					"internalType": "uint256",
					"name": "campaignId",
					"type": "uint256"
				},
				{
					"indexed": false,
					"internalType": "address",
					"name": "owner",
					"type": "address"
				},
				{
					"indexed": false,
					"internalType": "uint256",
					"name": "amount",
					"type": "uint256"
				}
			],
			"name": "FundsWithdrawn",
			"type": "event"
		},
		{
			"anonymous": false,
			"inputs": [
				{
					"indexed": false,
					"internalType": "uint256",
					"name": "campaignId",
					"type": "uint256"
				},
				{
					"indexed": false,
					"internalType": "address",
					"name": "donor",
					"type": "address"
				},
				{
					"indexed": false,
					"internalType": "uint256",
					"name": "amount",
					"type": "uint256"
				}
			],
			"name": "RefundIssued",
			"type": "event"
		},
		{
			"inputs": [],
			"name": "campaignCount",
			"outputs": [
				{
					"internalType": "uint256",
					"name": "",
					"type": "uint256"
				}
			],
			"stateMutability": "view",
			"type": "function"
		},
		{
			"inputs": [
				{
					"internalType": "uint256",
					"name": "",
					"type": "uint256"
				}
			],
			"name": "campaigns",
			"outputs": [
				{
					"internalType": "address",
					"name": "owner",
					"type": "address"
				},
				{
					"internalType": "uint256",
					"name": "goalAmount",
					"type": "uint256"
				},
				{
					"internalType": "uint256",
					"name": "deadline",
					"type": "uint256"
				},
				{
					"internalType": "uint256",
					"name": "amountRaised",
					"type": "uint256"
				},
				{
					"internalType": "bool",
					"name": "goalReached",
					"type": "bool"
				},
				{
					"internalType": "bool",
					"name": "fundsWithdrawn",
					"type": "bool"
				}
			],
			"stateMutability": "view",
			"type": "function"
		},
		{
			"inputs": [
				{
					"internalType": "uint256",
					"name": "_goalAmount",
					"type": "uint256"
				},
				{
					"internalType": "uint256",
					"name": "_durationInSeconds",
					"type": "uint256"
				}
			],
			"name": "createCampaign",
			"outputs": [],
			"stateMutability": "nonpayable",
			"type": "function"
		},
		{
			"inputs": [
				{
					"internalType": "uint256",
					"name": "_campaignId",
					"type": "uint256"
				}
			],
			"name": "donate",
			"outputs": [],
			"stateMutability": "payable",
			"type": "function"
		},
		{
			"inputs": [
				{
					"internalType": "uint256",
					"name": "_campaignId",
					"type": "uint256"
				}
			],
			"name": "refund",
			"outputs": [],
			"stateMutability": "nonpayable",
			"type": "function"
		},
		{
			"inputs": [
				{
					"internalType": "uint256",
					"name": "_campaignId",
					"type": "uint256"
				}
			],
			"name": "withdrawFunds",
			"outputs": [],
			"stateMutability": "nonpayable",
			"type": "function"
		}
	]
}