{
	"data": {
		"bytecode": {
			"linkReferences": {},
			"object": "6101e060405234801562000011575f80fd5b5060405162004b7438038062004b74833981016040819052620000349162000632565b848187604051806040016040528060118152602001704f6e436861696e476f7665726e616e636560781b81525080620000726200018060201b60201c565b6200007e825f6200019b565b610120526200008f8160016200019b565b61014052815160208084019190912060e052815190820120610100524660a0526200011c60e05161010051604080517f8b73c3c69bb8fe3d512ecc4cf759cc79239f7b179b0ffacaa9a75d522b39400f60208201529081019290925260608201524660808201523060a08201525f9060c00160405160208183030381529060405280519060200120905090565b60805250503060c05260036200013382826200074b565b50506001600160a01b0316610160526200014d81620001d3565b50620001598162000276565b505065ffffffffffff9092166101805263ffffffff166101a0526101c05250620008c59050565b6040805180820190915260018152603160f81b602082015290565b5f602083511015620001ba57620001b283620002df565b9050620001cd565b81620001c784826200074b565b5060ff90505b92915050565b606480821115620002065760405163243e544560e01b815260048101839052602481018290526044015b60405180910390fd5b5f6200021162000321565b905062000236620002216200033c565b6200022c85620003bd565b60089190620003f6565b505060408051828152602081018590527f0553476bf02ef2726e8ce5ced78d63e26e602e4a2257b1f559418e24b4633997910160405180910390a1505050565b600954604080516001600160a01b03928316815291831660208301527f08f74ea46ef7894f65eabfb5e6e695de773a000b47c529ab559178069b226401910160405180910390a1600980546001600160a01b0319166001600160a01b0392909216919091179055565b5f80829050601f815111156200030c578260405163305a27a960e01b8152600401620001fd919062000817565b8051620003198262000865565b179392505050565b5f6200032e600862000412565b6001600160d01b0316905090565b5f620003486101605190565b6001600160a01b03166391ddadf46040518163ffffffff1660e01b8152600401602060405180830381865afa925050508015620003a4575060408051601f3d908101601f19168201909252620003a19181019062000889565b60015b620003b857620003b36200045f565b905090565b919050565b5f6001600160d01b03821115620003f2576040516306dfcc6560e41b815260d0600482015260248101839052604401620001fd565b5090565b5f80620004058585856200046b565b915091505b935093915050565b80545f90801562000456576200043c836200042f600184620008a5565b5f91825260209091200190565b54660100000000000090046001600160d01b031662000458565b5f5b9392505050565b5f620003b343620005d0565b82545f908190801562000572575f6200048b876200042f600185620008a5565b805490915065ffffffffffff80821691660100000000000090046001600160d01b0316908816821115620004d257604051632520601d60e01b815260040160405180910390fd5b8765ffffffffffff168265ffffffffffff16036200051057825465ffffffffffff1666010000000000006001600160d01b0389160217835562000563565b6040805180820190915265ffffffffffff808a1682526001600160d01b03808a1660208085019182528d54600181018f555f8f815291909120945191519092166601000000000000029216919091179101555b94508593506200040a92505050565b50506040805180820190915265ffffffffffff80851682526001600160d01b0380851660208085019182528854600181018a555f8a81529182209551925190931666010000000000000291909316179201919091559050816200040a565b5f65ffffffffffff821115620003f2576040516306dfcc6560e41b81526030600482015260248101839052604401620001fd565b6001600160a01b038116811462000619575f80fd5b50565b805165ffffffffffff81168114620003b8575f80fd5b5f805f805f8060c0878903121562000648575f80fd5b8651620006558162000604565b6020880151909650620006688162000604565b945062000678604088016200061c565b9350606087015163ffffffff8116811462000691575f80fd5b809350506080870151915060a087015190509295509295509295565b634e487b7160e01b5f52604160045260245ffd5b600181811c90821680620006d657607f821691505b602082108103620006f557634e487b7160e01b5f52602260045260245ffd5b50919050565b601f8211156200074657805f5260205f20601f840160051c81016020851015620007225750805b601f840160051c820191505b8181101562000743575f81556001016200072e565b50505b505050565b81516001600160401b03811115620007675762000767620006ad565b6200077f81620007788454620006c1565b84620006fb565b602080601f831160018114620007b5575f84156200079d5750858301515b5f19600386901b1c1916600185901b1785556200080f565b5f85815260208120601f198616915b82811015620007e557888601518255948401946001909101908401620007c4565b50858210156200080357878501515f19600388901b60f8161c191681555b505060018460011b0185555b505050505050565b5f602080835283518060208501525f5b81811015620008455785810183015185820160400152820162000827565b505f604082860101526040601f19601f8301168501019250505092915050565b80516020808301519190811015620006f5575f1960209190910360031b1b16919050565b5f602082840312156200089a575f80fd5b62000458826200061c565b81810381811115620001cd57634e487b7160e01b5f52601160045260245ffd5b60805160a05160c05160e05161010051610120516101405161016051610180516101a0516101c051614204620009705f395f81816107fb015261102801525f81816102f50152611b5601525f818161047f0152611b1001525f818161098f01528181610d890152818161115b01528181611d960152611f1301525f611cda01525f611cae01525f612c7001525f612c4801525f612ba301525f612bcd01525f612bf701526142045ff3fe608060405260043610610278575f3560e01c80637ecebe001161014a578063b58131b0116100be578063dd4e2ba511610078578063dd4e2ba5146108ac578063deaaa7cc146108f1578063eb9019d414610924578063f23a6e6114610943578063f8ce560a14610962578063fc0c546a14610981575f80fd5b8063b58131b0146107ed578063bc197c811461081f578063c01f9e371461083e578063c28bc2fa1461085d578063c59057e414610870578063d33219b41461088f575f80fd5b80639a802a6d1161010f5780639a802a6d14610727578063a7713a7014610746578063a890c9101461075a578063a8f8a66814610779578063a9a9529414610798578063ab58fb8e146107b7575f80fd5b80637ecebe001461066f57806384b0196e146106a35780638ff262e3146106ca57806391ddadf4146106e957806397c3d33414610714575f80fd5b80633e4f49e6116101ec57806356781388116101a657806356781388146105b55780635b8d0e0d146105d45780635f398a14146105f357806360c4247f146106125780637b3c71d3146106315780637d5e81e214610650575f80fd5b80633e4f49e6146104ab57806343859632146104d7578063452115d61461051f5780634bf5d7e91461053e578063544ffc9c1461055257806354fd4d501461058c575f80fd5b8063150b7a021161023d578063150b7a02146103b5578063160cbed7146103ed5780632656227d1461040c5780632d63f6931461041f5780632fe3e2611461043e5780633932abb114610471575f80fd5b806301ffc9a7146102b357806302a251a3146102e757806306f3f9e61461032957806306fdde0314610348578063143489d014610369575f80fd5b366102af57306102866109b3565b6001600160a01b0316146102ad57604051637485328f60e11b815260040160405180910390fd5b005b5f80fd5b3480156102be575f80fd5b506102d26102cd366004613231565b6109cb565b60405190151581526020015b60405180910390f35b3480156102f2575f80fd5b507f000000000000000000000000000000000000000000000000000000000000000063ffffffff165b6040519081526020016102de565b348015610334575f80fd5b506102ad610343366004613258565b6109db565b348015610353575f80fd5b5061035c6109ef565b6040516102de91906132bc565b348015610374575f80fd5b5061039d610383366004613258565b5f908152600460205260409020546001600160a01b031690565b6040516001600160a01b0390911681526020016102de565b3480156103c0575f80fd5b506103d46103cf3660046133a5565b610a7f565b6040516001600160e01b031990911681526020016102de565b3480156103f8575f80fd5b5061031b610407366004613574565b610ac1565b61031b61041a366004613574565b610b8d565b34801561042a575f80fd5b5061031b610439366004613258565b610cf5565b348015610449575f80fd5b5061031b7f3e83946653575f9a39005e1545185629e92736b7528ab20ca3816f315424a81181565b34801561047c575f80fd5b507f000000000000000000000000000000000000000000000000000000000000000065ffffffffffff1661031b565b3480156104b6575f80fd5b506104ca6104c5366004613258565b610d15565b6040516102de9190613631565b3480156104e2575f80fd5b506102d26104f136600461363f565b5f8281526007602090815260408083206001600160a01b038516845260030190915290205460ff1692915050565b34801561052a575f80fd5b5061031b610539366004613574565b610d1f565b348015610549575f80fd5b5061035c610d85565b34801561055d575f80fd5b5061057161056c366004613258565b610e45565b604080519384526020840192909252908201526060016102de565b348015610597575f80fd5b506040805180820190915260018152603160f81b602082015261035c565b3480156105c0575f80fd5b5061031b6105cf36600461367d565b610e6a565b3480156105df575f80fd5b5061031b6105ee3660046136eb565b610e91565b3480156105fe575f80fd5b5061031b61060d36600461379d565b610f4e565b34801561061d575f80fd5b5061031b61062c366004613258565b610f96565b34801561063c575f80fd5b5061031b61064b36600461381a565b610fa2565b34801561065b575f80fd5b5061031b61066a36600461386f565b610ff2565b34801561067a575f80fd5b5061031b61068936600461391b565b6001600160a01b03165f9081526002602052604090205490565b3480156106ae575f80fd5b506106b76110be565b6040516102de9796959493929190613970565b3480156106d5575f80fd5b5061031b6106e43660046139df565b611100565b3480156106f4575f80fd5b506106fd611158565b60405165ffffffffffff90911681526020016102de565b34801561071f575f80fd5b50606461031b565b348015610732575f80fd5b5061031b610741366004613a2c565b6111df565b348015610751575f80fd5b5061031b6111f5565b348015610765575f80fd5b506102ad61077436600461391b565b61120e565b348015610784575f80fd5b5061031b610793366004613574565b61121f565b3480156107a3575f80fd5b506102d26107b2366004613258565b61122c565b3480156107c2575f80fd5b5061031b6107d1366004613258565b5f9081526004602052604090206001015465ffffffffffff1690565b3480156107f8575f80fd5b507f000000000000000000000000000000000000000000000000000000000000000061031b565b34801561082a575f80fd5b506103d4610839366004613a80565b611234565b348015610849575f80fd5b5061031b610858366004613258565b611277565b6102ad61086b366004613b0c565b6112b9565b34801561087b575f80fd5b5061031b61088a366004613574565b611335565b34801561089a575f80fd5b506009546001600160a01b031661039d565b3480156108b7575f80fd5b506040805180820190915260208082527f737570706f72743d627261766f2671756f72756d3d666f722c6162737461696e9082015261035c565b3480156108fc575f80fd5b5061031b7ff2aad550cf55f045cb27e9c559f9889fdfb6e6cdaa032301d6ea397784ae51d781565b34801561092f575f80fd5b5061031b61093e366004613b4b565b61136e565b34801561094e575f80fd5b506103d461095d366004613b75565b61138d565b34801561096d575f80fd5b5061031b61097c366004613258565b6113d0565b34801561098c575f80fd5b507f000000000000000000000000000000000000000000000000000000000000000061039d565b5f6109c66009546001600160a01b031690565b905090565b5f6109d5826113da565b92915050565b6109e3611444565b6109ec816114bd565b50565b6060600380546109fe90613bd8565b80601f0160208091040260200160405190810160405280929190818152602001828054610a2a90613bd8565b8015610a755780601f10610a4c57610100808354040283529160200191610a75565b820191905f5260205f20905b815481529060010190602001808311610a5857829003601f168201915b5050505050905090565b5f30610a896109b3565b6001600160a01b031614610ab057604051637485328f60e11b815260040160405180910390fd5b50630a85bd0160e11b949350505050565b5f80610acf8686868661121f565b9050610ae481610adf6004611552565b611574565b505f610af382888888886115b1565b905065ffffffffffff811615610b6a575f82815260046020908152604091829020600101805465ffffffffffff191665ffffffffffff85169081179091558251858152918201527f9a2e42fd6722813d69113e7d0079d3d940171428df7373df9c7f7617cfda2892910160405180910390a1610b83565b604051634844252360e11b815260040160405180910390fd5b5095945050505050565b5f80610b9b8686868661121f565b9050610bbb81610bab6005611552565b610bb56004611552565b17611574565b505f818152600460205260409020805460ff60f01b1916600160f01b17905530610be36109b3565b6001600160a01b031614610c6c575f5b8651811015610c6a57306001600160a01b0316878281518110610c1857610c18613c10565b60200260200101516001600160a01b031603610c6257610c62858281518110610c4357610c43613c10565b60200260200101518051906020012060056115bf90919063ffffffff16565b600101610bf3565b505b610c798187878787611620565b30610c826109b3565b6001600160a01b031614158015610cae57506005546001600160801b03808216600160801b9092041614155b15610cb8575f6005555b6040518181527f712ae1383f79ac853f8d882153778e0260ef8f03b504e2866e0593e04d2b291f906020015b60405180910390a195945050505050565b5f90815260046020526040902054600160a01b900465ffffffffffff1690565b5f6109d582611634565b5f80610d2d8686868661121f565b905033610d3a828261176d565b610d6e57604051638fe5d8a960e01b8152600481018390526001600160a01b03821660248201526044015b60405180910390fd5b610d7a878787876117b2565b979650505050505050565b60607f00000000000000000000000000000000000000000000000000000000000000006001600160a01b0316634bf5d7e96040518163ffffffff1660e01b81526004015f60405180830381865afa925050508015610e0457506040513d5f823e601f3d908101601f19168201604052610e019190810190613c24565b60015b610e40575060408051808201909152601d81527f6d6f64653d626c6f636b6e756d6265722666726f6d3d64656661756c74000000602082015290565b919050565b5f818152600760205260409020805460018201546002909201549091905b9193909250565b5f80339050610e8984828560405180602001604052805f8152506117bf565b949350505050565b5f610ed788888888888080601f0160208091040260200160405190810160405280939291908181526020018383808284375f920191909152508a92508991506117e09050565b610eff576040516394ab6c0760e01b81526001600160a01b0387166004820152602401610d65565b610f4288878988888080601f0160208091040260200160405190810160405280939291908181526020018383808284375f920191909152508a92506118ad915050565b98975050505050505050565b5f80339050610d7a87828888888080601f0160208091040260200160405190810160405280939291908181526020018383808284375f920191909152508a92506118ad915050565b5f6109d560088361198b565b5f80339050610fe886828787878080601f0160208091040260200160405190810160405280939291908181526020018383808284375f920191909152506117bf92505050565b9695505050505050565b5f33610ffe81846119d8565b6110265760405163d9b3955760e01b81526001600160a01b0382166004820152602401610d65565b7f000000000000000000000000000000000000000000000000000000000000000080156110b1575f61107383600161105c611158565b6110669190613ca0565b65ffffffffffff1661136e565b9050818110156110af57604051636121770b60e11b81526001600160a01b03841660048201526024810182905260448101839052606401610d65565b505b610d7a8787878786611a5c565b5f6060805f805f60606110cf611ca7565b6110d7611cd3565b604080515f80825260208201909252600f60f81b9b939a50919850469750309650945092509050565b5f61110d85858585611d00565b611135576040516394ab6c0760e01b81526001600160a01b0384166004820152602401610d65565b61114f85848660405180602001604052805f8152506117bf565b95945050505050565b5f7f00000000000000000000000000000000000000000000000000000000000000006001600160a01b03166391ddadf46040518163ffffffff1660e01b8152600401602060405180830381865afa9250505080156111d3575060408051601f3d908101601f191682019092526111d091810190613cc6565b60015b610e40576109c6611d89565b5f6111eb848484611d93565b90505b9392505050565b5f6112006008611e26565b6001600160d01b0316905090565b611216611444565b6109ec81611e6a565b5f61114f85858585611335565b5f60016109d5565b5f3061123e6109b3565b6001600160a01b03161461126557604051637485328f60e11b815260040160405180910390fd5b5063bc197c8160e01b95945050505050565b5f818152600460205260408120546112ab90600160d01b810463ffffffff1690600160a01b900465ffffffffffff16613ceb565b65ffffffffffff1692915050565b6112c1611444565b5f80856001600160a01b03168585856040516112de929190613d0a565b5f6040518083038185875af1925050503d805f8114611318576040519150601f19603f3d011682016040523d82523d5f602084013e61131d565b606091505b509150915061132c8282611ed3565b50505050505050565b5f8484848460405160200161134d9493929190613da9565b60408051601f19818403018152919052805160209091012095945050505050565b5f6111ee838361138860408051602081019091525f815290565b611d93565b5f306113976109b3565b6001600160a01b0316146113be57604051637485328f60e11b815260040160405180910390fd5b5063f23a6e6160e01b95945050505050565b5f6109d582611eef565b5f6001600160e01b031982166366defe7760e11b148061140a57506001600160e01b031982166332a2ad4360e11b145b8061142557506001600160e01b03198216630271189760e51b145b806109d557506301ffc9a760e01b6001600160e01b03198316146109d5565b3361144d6109b3565b6001600160a01b031614611476576040516347096e4760e01b8152336004820152602401610d65565b3061147f6109b3565b6001600160a01b0316146114bb575f803660405161149e929190613d0a565b604051809103902090505b806114b46005611f8c565b036114a957505b565b6064808211156114ea5760405163243e544560e01b81526004810183905260248101829052604401610d65565b5f6114f36111f5565b9050611512611500611158565b61150985611ff9565b60089190612030565b505060408051828152602081018590527f0553476bf02ef2726e8ce5ced78d63e26e602e4a2257b1f559418e24b4633997910160405180910390a1505050565b5f816007811115611565576115656135fd565b600160ff919091161b92915050565b5f8061157f84610d15565b90505f8361158c83611552565b16036111ee578381846040516331b75e4d60e01b8152600401610d6593929190613df3565b5f610fe8868686868661204a565b81546001600160801b03600160801b8204811691811660018301909116036115eb576115eb60416121db565b6001600160801b038082165f90815260018086016020526040909120939093558354919092018216600160801b029116179055565b61162d85858585856121ec565b5050505050565b5f8061163f8361227c565b90506005816007811115611655576116556135fd565b146116605792915050565b5f838152600a602052604090819020546009549151632c258a9f60e11b81526004810182905290916001600160a01b03169063584b153e90602401602060405180830381865afa1580156116b6573d5f803e3d5ffd5b505050506040513d601f19601f820116820180604052508101906116da9190613e15565b156116e9575060059392505050565b600954604051632ab0f52960e01b8152600481018390526001600160a01b0390911690632ab0f52990602401602060405180830381865afa158015611730573d5f803e3d5ffd5b505050506040513d601f19601f820116820180604052508101906117549190613e15565b15611763575060079392505050565b5060029392505050565b5f8061177884610d15565b6007811115611789576117896135fd565b1480156111ee5750505f91825260046020526040909120546001600160a01b0391821691161490565b5f61114f858585856123ad565b5f61114f858585856117db60408051602081019091525f815290565b6118ad565b5f610d7a856118a77f3e83946653575f9a39005e1545185629e92736b7528ab20ca3816f315424a8118a8a8a6118328c6001600160a01b03165f90815260026020526040902080546001810190915590565b8b516020808e01919091208c518d83012060405161188c98979695949301968752602087019590955260ff9390931660408601526001600160a01b03919091166060850152608084015260a083015260c082015260e00190565b60405160208183030381529060405280519060200120612444565b84612470565b5f6118bc86610adf6001611552565b505f6118d1866118cb89610cf5565b85611d93565b90505f6118e188888885886124e0565b905083515f0361193757866001600160a01b03167fb8e138887d0aa13bab447e82de9d5c1777041ecd21ca36ba824ff1e6c07ddda48988848960405161192a9493929190613e34565b60405180910390a2610d7a565b866001600160a01b03167fe2babfbac5889a709b63bb7f598b324e08bc5a4fb9ec647fb3cbc9ec07eb87128988848989604051611978959493929190613e5b565b60405180910390a2979650505050505050565b5f805f611997856125dc565b9250925050838265ffffffffffff1611156119c4576119bf6119b885612634565b8690612666565b6119c6565b805b6001600160d01b031695945050505050565b80515f9060348110156119ef5760019150506109d5565b60131981840101516001600160b01b03198116692370726f706f7365723d60b01b14611a20576001925050506109d5565b5f80611a3086602a860386612708565b91509150811580610d7a5750866001600160a01b0316816001600160a01b031614979650505050505050565b5f611a70868686868051906020012061121f565b905084518651141580611a8557508351865114155b80611a8f57508551155b15611ac457855184518651604051630447b05d60e41b8152600481019390935260248301919091526044820152606401610d65565b5f81815260046020526040902054600160a01b900465ffffffffffff1615611b0d5780611af082610d15565b6040516331b75e4d60e01b8152610d659291905f90600401613df3565b5f7f000000000000000000000000000000000000000000000000000000000000000065ffffffffffff16611b3f611158565b65ffffffffffff16611b519190613e94565b90505f7f000000000000000000000000000000000000000000000000000000000000000063ffffffff165f84815260046020526040902080546001600160a01b0319166001600160a01b038716178155909150611bad83612634565b815465ffffffffffff91909116600160a01b0265ffffffffffff60a01b19909116178155611bda826127b1565b815463ffffffff91909116600160d01b0263ffffffff60d01b1990911617815588517f7d84a6263ae0d98d3329bd7b46bb4e8d6f98cd35a7adb45c274c8b7fd5ebd5e090859087908c908c906001600160401b03811115611c3d57611c3d6132e2565b604051908082528060200260200182016040528015611c7057816020015b6060815260200190600190039081611c5b5790505b508c89611c7d8a82613e94565b8e604051611c9399989796959493929190613ea7565b60405180910390a150505095945050505050565b60606109c67f00000000000000000000000000000000000000000000000000000000000000005f6127e1565b60606109c67f000000000000000000000000000000000000000000000000000000000000000060016127e1565b5f61114f836118a77ff2aad550cf55f045cb27e9c559f9889fdfb6e6cdaa032301d6ea397784ae51d7888888611d528a6001600160a01b03165f90815260026020526040902080546001810190915590565b60408051602081019690965285019390935260ff90911660608401526001600160a01b0316608083015260a082015260c00161188c565b5f6109c643612634565b5f7f0000000000000000000000000000000000000000000000000000000000000000604051630748d63560e31b81526001600160a01b038681166004830152602482018690529190911690633a46b1a890604401602060405180830381865afa158015611e02573d5f803e3d5ffd5b505050506040513d601f19601f820116820180604052508101906111eb9190613f7c565b80545f908015611e6257611e4c83611e3f600184613f93565b5f91825260209091200190565b54600160301b90046001600160d01b03166111ee565b5f9392505050565b600954604080516001600160a01b03928316815291831660208301527f08f74ea46ef7894f65eabfb5e6e695de773a000b47c529ab559178069b226401910160405180910390a1600980546001600160a01b0319166001600160a01b0392909216919091179055565b606082611ee857611ee38261288a565b6109d5565b50806109d5565b604051632394e7a360e21b8152600481018290525f906109d5906001600160a01b037f00000000000000000000000000000000000000000000000000000000000000001690638e539e8c90602401602060405180830381865afa158015611f58573d5f803e3d5ffd5b505050506040513d601f19601f82011682018060405250810190611f7c9190613f7c565b611f8584610f96565b60646128b2565b80545f906001600160801b0380821691600160801b9004168103611fb457611fb460316121db565b6001600160801b038181165f908152600185810160205260408220805492905585546fffffffffffffffffffffffffffffffff19169301909116919091179092555090565b5f6001600160d01b0382111561202c576040516306dfcc6560e41b815260d0600482015260248101839052604401610d65565b5090565b5f8061203d858585612962565b915091505b935093915050565b5f8060095f9054906101000a90046001600160a01b03166001600160a01b031663f27a0c926040518163ffffffff1660e01b8152600401602060405180830381865afa15801561209c573d5f803e3d5ffd5b505050506040513d601f19601f820116820180604052508101906120c09190613f7c565b90505f3060601b6bffffffffffffffffffffffff1916841860095460405163b1c5f42760e01b81529192506001600160a01b03169063b1c5f42790612111908a908a908a905f908890600401613fa6565b602060405180830381865afa15801561212c573d5f803e3d5ffd5b505050506040513d601f19601f820116820180604052508101906121509190613f7c565b5f898152600a60205260408082209290925560095491516308f2a0bb60e41b81526001600160a01b0390921691638f2a0bb09161219a918b918b918b919088908a90600401613ff3565b5f604051808303815f87803b1580156121b1575f80fd5b505af11580156121c3573d5f803e3d5ffd5b50505050610f4282426121d69190613e94565b612634565b634e487b715f52806020526024601cfd5b6009546001600160a01b031663e38335e5348686865f3060601b6bffffffffffffffffffffffff191688186040518763ffffffff1660e01b8152600401612237959493929190613fa6565b5f604051808303818588803b15801561224e575f80fd5b505af1158015612260573d5f803e3d5ffd5b5050505f9687525050600a602052505060408320929092555050565b5f818152600460205260408120805460ff600160f01b8204811691600160f81b90041681156122b057506007949350505050565b80156122c157506002949350505050565b5f6122cb86610cf5565b9050805f036122f057604051636ad0607560e01b815260048101879052602401610d65565b5f6122f9611158565b65ffffffffffff16905080821061231657505f9695505050505050565b5f61232088611277565b905081811061233757506001979650505050505050565b61234088612ab2565b158061235f57505f888152600760205260409020805460019091015411155b1561237257506003979650505050505050565b5f8881526004602052604090206001015465ffffffffffff165f0361239f57506004979650505050505050565b506005979650505050505050565b5f806123bb86868686612ae8565b5f818152600a60205260409020549091508015610b835760095460405163c4d252f560e01b8152600481018390526001600160a01b039091169063c4d252f5906024015f604051808303815f87803b158015612415575f80fd5b505af1158015612427573d5f803e3d5ffd5b5050505f838152600a602052604081205550509050949350505050565b5f6109d5612450612b97565b8360405161190160f01b8152600281019290925260228201526042902090565b5f836001600160a01b03163b5f036124ce575f8061248e8585612cc0565b5090925090505f8160038111156124a7576124a76135fd565b1480156124c55750856001600160a01b0316826001600160a01b0316145b925050506111ee565b6124d9848484612d09565b90506111ee565b5f8581526007602090815260408083206001600160a01b03881684526003810190925282205460ff1615612532576040516371c6af4960e01b81526001600160a01b0387166004820152602401610d65565b6001600160a01b0386165f9081526003820160205260409020805460ff1916600117905560ff851661257b5783815f015f8282546125709190613e94565b909155506125d19050565b5f1960ff8616016125995783816001015f8282546125709190613e94565b60011960ff8616016125b85783816002015f8282546125709190613e94565b6040516303599be160e11b815260040160405180910390fd5b509195945050505050565b80545f90819081908082036125fa575f805f93509350935050610e63565b5f61260a86611e3f600185613f93565b546001955065ffffffffffff81169450600160301b90046001600160d01b03169250610e63915050565b5f65ffffffffffff82111561202c576040516306dfcc6560e41b81526030600482015260248101839052604401610d65565b81545f90818160058111156126c2575f61267f84612ddf565b6126899085613f93565b5f8881526020902090915081015465ffffffffffff90811690871610156126b2578091506126c0565b6126bd816001613e94565b92505b505b5f6126cf87878585612f37565b905080156126fc576126e687611e3f600184613f93565b54600160301b90046001600160d01b0316610d7a565b505f9695505050505050565b5f80845183118061271857508284115b1561272757505f905080612042565b5f612733856001613e94565b8411801561275b575061060f60f31b61274f8787016020015190565b6001600160f01b031916145b90505f61276b821515600261404a565b612776906028613e94565b9050806127838787613f93565b036127a4575f80612795898989612f96565b90965094506120429350505050565b5f80935093505050612042565b5f63ffffffff82111561202c576040516306dfcc6560e41b81526020600482015260248101839052604401610d65565b606060ff83146127fb576127f483613057565b90506109d5565b81805461280790613bd8565b80601f016020809104026020016040519081016040528092919081815260200182805461283390613bd8565b801561287e5780601f106128555761010080835404028352916020019161287e565b820191905f5260205f20905b81548152906001019060200180831161286157829003601f168201915b505050505090506109d5565b80511561289957805160208201fd5b60405163d6bda27560e01b815260040160405180910390fd5b5f805f6128bf8686613094565b91509150815f036128e3578381816128d9576128d9614061565b04925050506111ee565b8184116128fa576128fa60038515026011186121db565b5f848688095f868103871696879004966002600389028118808a02820302808a02820302808a02820302808a02820302808a02820302808a02909103029181900381900460010185841190960395909502919093039390930492909217029150509392505050565b82545f9081908015612a58575f61297e87611e3f600185613f93565b805490915065ffffffffffff80821691600160301b90046001600160d01b03169088168211156129c157604051632520601d60e01b815260040160405180910390fd5b8765ffffffffffff168265ffffffffffff16036129fa57825465ffffffffffff16600160301b6001600160d01b03891602178355612a4a565b6040805180820190915265ffffffffffff808a1682526001600160d01b03808a1660208085019182528d54600181018f555f8f81529190912094519151909216600160301b029216919091179101555b945085935061204292505050565b50506040805180820190915265ffffffffffff80851682526001600160d01b0380851660208085019182528854600181018a555f8a815291822095519251909316600160301b029190931617920191909155905081612042565b5f81815260076020526040812060028101546001820154612ad39190613e94565b612adf61097c85610cf5565b11159392505050565b5f80612af68686868661121f565b9050612b4481612b066007611552565b612b106006611552565b612b1a6002611552565b6001612b27600782614075565b612b3290600261416e565b612b3c9190613f93565b181818611574565b505f818152600460205260409081902080546001600160f81b0316600160f81b179055517f789cf55be980739dad1d0699b93b58e806b51c9d96619bfa8fe0a28abaa7b30c90610ce49083815260200190565b5f306001600160a01b037f000000000000000000000000000000000000000000000000000000000000000016148015612bef57507f000000000000000000000000000000000000000000000000000000000000000046145b15612c1957507f000000000000000000000000000000000000000000000000000000000000000090565b6109c6604080517f8b73c3c69bb8fe3d512ecc4cf759cc79239f7b179b0ffacaa9a75d522b39400f60208201527f0000000000000000000000000000000000000000000000000000000000000000918101919091527f000000000000000000000000000000000000000000000000000000000000000060608201524660808201523060a08201525f9060c00160405160208183030381529060405280519060200120905090565b5f805f8351604103612cf7576020840151604085015160608601515f1a612ce9888285856130b0565b955095509550505050612d02565b505081515f91506002905b9250925092565b5f805f856001600160a01b03168585604051602401612d2992919061417c565b60408051601f198184030181529181526020820180516001600160e01b0316630b135d3f60e11b17905251612d5e9190614194565b5f60405180830381855afa9150503d805f8114612d96576040519150601f19603f3d011682016040523d82523d5f602084013e612d9b565b606091505b5091509150818015612daf57506020815110155b8015610fe857508051630b135d3f60e11b90612dd49083016020908101908401613f7c565b149695505050505050565b5f60018211612dec575090565b816001600160801b8210612e055760809190911c9060401b5b680100000000000000008210612e205760409190911c9060201b5b6401000000008210612e375760209190911c9060101b5b620100008210612e4c5760109190911c9060081b5b6101008210612e605760089190911c9060041b5b60108210612e735760049190911c9060021b5b60048210612e7f5760011b5b600302600190811c90818581612e9757612e97614061565b048201901c90506001818581612eaf57612eaf614061565b048201901c90506001818581612ec757612ec7614061565b048201901c90506001818581612edf57612edf614061565b048201901c90506001818581612ef757612ef7614061565b048201901c90506001818581612f0f57612f0f614061565b048201901c9050612f2e818581612f2857612f28614061565b04821190565b90039392505050565b5f5b81831015612f8e575f612f4c8484613178565b5f8781526020902090915065ffffffffffff86169082015465ffffffffffff161115612f7a57809250612f88565b612f85816001613e94565b93505b50612f39565b509392505050565b5f808481612fa5866001613e94565b85118015612fcd575061060f60f31b612fc18388016020015190565b6001600160f01b031916145b90505f612fdd821515600261404a565b90505f80612feb838a613e94565b90505b87811015613046575f61300c6130078784016020015190565b613192565b9050600f8160ff16111561302b575f8097509750505050505050612042565b61303660108461404a565b60ff909116019150600101612fee565b506001999098509650505050505050565b60605f6130638361320a565b6040805160208082528183019092529192505f91906020820181803683375050509182525060208101929092525090565b5f805f1983850993909202808410938190039390930393915050565b5f80807f7fffffffffffffffffffffffffffffff5d576e7357a4501ddfe92f46681b20a08411156130e957505f9150600390508261316e565b604080515f808252602082018084528a905260ff891692820192909252606081018790526080810186905260019060a0016020604051602081039080840390855afa15801561313a573d5f803e3d5ffd5b5050604051601f1901519150506001600160a01b03811661316557505f92506001915082905061316e565b92505f91508190505b9450945094915050565b5f61318660028484186141af565b6111ee90848416613e94565b5f60f882901c602f811180156131ab5750603a8160ff16105b156131b957602f19016109d5565b60608160ff161180156131cf575060678160ff16105b156131dd57605619016109d5565b60408160ff161180156131f3575060478160ff16105b1561320157603619016109d5565b5060ff92915050565b5f60ff8216601f8111156109d557604051632cd44ac360e21b815260040160405180910390fd5b5f60208284031215613241575f80fd5b81356001600160e01b0319811681146111ee575f80fd5b5f60208284031215613268575f80fd5b5035919050565b5f5b83811015613289578181015183820152602001613271565b50505f910152565b5f81518084526132a881602086016020860161326f565b601f01601f19169290920160200192915050565b602081525f6111ee6020830184613291565b6001600160a01b03811681146109ec575f80fd5b634e487b7160e01b5f52604160045260245ffd5b604051601f8201601f191681016001600160401b038111828210171561331e5761331e6132e2565b604052919050565b5f6001600160401b0382111561333e5761333e6132e2565b50601f01601f191660200190565b5f61335e61335984613326565b6132f6565b9050828152838383011115613371575f80fd5b828260208301375f602084830101529392505050565b5f82601f830112613396575f80fd5b6111ee8383356020850161334c565b5f805f80608085870312156133b8575f80fd5b84356133c3816132ce565b935060208501356133d3816132ce565b92506040850135915060608501356001600160401b038111156133f4575f80fd5b61340087828801613387565b91505092959194509250565b5f6001600160401b03821115613424576134246132e2565b5060051b60200190565b5f82601f83011261343d575f80fd5b8135602061344d6133598361340c565b8083825260208201915060208460051b87010193508684111561346e575f80fd5b602086015b84811015613493578035613486816132ce565b8352918301918301613473565b509695505050505050565b5f82601f8301126134ad575f80fd5b813560206134bd6133598361340c565b8083825260208201915060208460051b8701019350868411156134de575f80fd5b602086015b8481101561349357803583529183019183016134e3565b5f82601f830112613509575f80fd5b813560206135196133598361340c565b82815260059290921b84018101918181019086841115613537575f80fd5b8286015b848110156134935780356001600160401b03811115613558575f80fd5b6135668986838b0101613387565b84525091830191830161353b565b5f805f8060808587031215613587575f80fd5b84356001600160401b038082111561359d575f80fd5b6135a98883890161342e565b955060208701359150808211156135be575f80fd5b6135ca8883890161349e565b945060408701359150808211156135df575f80fd5b506135ec878288016134fa565b949793965093946060013593505050565b634e487b7160e01b5f52602160045260245ffd5b6008811061362d57634e487b7160e01b5f52602160045260245ffd5b9052565b602081016109d58284613611565b5f8060408385031215613650575f80fd5b823591506020830135613662816132ce565b809150509250929050565b803560ff81168114610e40575f80fd5b5f806040838503121561368e575f80fd5b8235915061369e6020840161366d565b90509250929050565b5f8083601f8401126136b7575f80fd5b5081356001600160401b038111156136cd575f80fd5b6020830191508360208285010111156136e4575f80fd5b9250929050565b5f805f805f805f60c0888a031215613701575f80fd5b873596506137116020890161366d565b95506040880135613721816132ce565b945060608801356001600160401b038082111561373c575f80fd5b6137488b838c016136a7565b909650945060808a0135915080821115613760575f80fd5b61376c8b838c01613387565b935060a08a0135915080821115613781575f80fd5b5061378e8a828b01613387565b91505092959891949750929550565b5f805f805f608086880312156137b1575f80fd5b853594506137c16020870161366d565b935060408601356001600160401b03808211156137dc575f80fd5b6137e889838a016136a7565b90955093506060880135915080821115613800575f80fd5b5061380d88828901613387565b9150509295509295909350565b5f805f806060858703121561382d575f80fd5b8435935061383d6020860161366d565b925060408501356001600160401b03811115613857575f80fd5b613863878288016136a7565b95989497509550505050565b5f805f8060808587031215613882575f80fd5b84356001600160401b0380821115613898575f80fd5b6138a48883890161342e565b955060208701359150808211156138b9575f80fd5b6138c58883890161349e565b945060408701359150808211156138da575f80fd5b6138e6888389016134fa565b935060608701359150808211156138fb575f80fd5b508501601f8101871361390c575f80fd5b6134008782356020840161334c565b5f6020828403121561392b575f80fd5b81356111ee816132ce565b5f815180845260208085019450602084015f5b8381101561396557815187529582019590820190600101613949565b509495945050505050565b60ff60f81b8816815260e060208201525f61398e60e0830189613291565b82810360408401526139a08189613291565b606084018890526001600160a01b038716608085015260a0840186905283810360c085015290506139d18185613936565b9a9950505050505050505050565b5f805f80608085870312156139f2575f80fd5b84359350613a026020860161366d565b92506040850135613a12816132ce565b915060608501356001600160401b038111156133f4575f80fd5b5f805f60608486031215613a3e575f80fd5b8335613a49816132ce565b92506020840135915060408401356001600160401b03811115613a6a575f80fd5b613a7686828701613387565b9150509250925092565b5f805f805f60a08688031215613a94575f80fd5b8535613a9f816132ce565b94506020860135613aaf816132ce565b935060408601356001600160401b0380821115613aca575f80fd5b613ad689838a0161349e565b94506060880135915080821115613aeb575f80fd5b613af789838a0161349e565b93506080880135915080821115613800575f80fd5b5f805f8060608587031215613b1f575f80fd5b8435613b2a816132ce565b93506020850135925060408501356001600160401b03811115613857575f80fd5b5f8060408385031215613b5c575f80fd5b8235613b67816132ce565b946020939093013593505050565b5f805f805f60a08688031215613b89575f80fd5b8535613b94816132ce565b94506020860135613ba4816132ce565b9350604086013592506060860135915060808601356001600160401b03811115613bcc575f80fd5b61380d88828901613387565b600181811c90821680613bec57607f821691505b602082108103613c0a57634e487b7160e01b5f52602260045260245ffd5b50919050565b634e487b7160e01b5f52603260045260245ffd5b5f60208284031215613c34575f80fd5b81516001600160401b03811115613c49575f80fd5b8201601f81018413613c59575f80fd5b8051613c6761335982613326565b818152856020838501011115613c7b575f80fd5b61114f82602083016020860161326f565b634e487b7160e01b5f52601160045260245ffd5b65ffffffffffff828116828216039080821115613cbf57613cbf613c8c565b5092915050565b5f60208284031215613cd6575f80fd5b815165ffffffffffff811681146111ee575f80fd5b65ffffffffffff818116838216019080821115613cbf57613cbf613c8c565b818382375f9101908152919050565b5f815180845260208085019450602084015f5b838110156139655781516001600160a01b031687529582019590820190600101613d2c565b5f8282518085526020808601955060208260051b840101602086015f5b84811015613d9c57601f19868403018952613d8a838351613291565b98840198925090830190600101613d6e565b5090979650505050505050565b608081525f613dbb6080830187613d19565b8281036020840152613dcd8187613936565b90508281036040840152613de18186613d51565b91505082606083015295945050505050565b83815260608101613e076020830185613611565b826040830152949350505050565b5f60208284031215613e25575f80fd5b815180151581146111ee575f80fd5b84815260ff84166020820152826040820152608060608201525f610fe86080830184613291565b85815260ff8516602082015283604082015260a060608201525f613e8260a0830185613291565b8281036080840152610f428185613291565b808201808211156109d5576109d5613c8c565b5f6101208b8352602060018060a01b038c1681850152816040850152613ecf8285018c613d19565b91508382036060850152613ee3828b613936565b915083820360808501528189518084528284019150828160051b850101838c015f5b83811015613f3357601f19878403018552613f21838351613291565b94860194925090850190600101613f05565b505086810360a0880152613f47818c613d51565b9450505050508560c08401528460e0840152828103610100840152613f6c8185613291565b9c9b505050505050505050505050565b5f60208284031215613f8c575f80fd5b5051919050565b818103818111156109d5576109d5613c8c565b60a081525f613fb860a0830188613d19565b8281036020840152613fca8188613936565b90508281036040840152613fde8187613d51565b60608401959095525050608001529392505050565b60c081525f61400560c0830189613d19565b82810360208401526140178189613936565b9050828103604084015261402b8188613d51565b60608401969096525050608081019290925260a0909101529392505050565b80820281158282048414176109d5576109d5613c8c565b634e487b7160e01b5f52601260045260245ffd5b60ff81811683821601908111156109d5576109d5613c8c565b600181815b808511156140c857815f19048211156140ae576140ae613c8c565b808516156140bb57918102915b93841c9390800290614093565b509250929050565b5f826140de575060016109d5565b816140ea57505f6109d5565b8160018114614100576002811461410a57614126565b60019150506109d5565b60ff84111561411b5761411b613c8c565b50506001821b6109d5565b5060208310610133831016604e8410600b8410161715614149575081810a6109d5565b614153838361408e565b805f190482111561416657614166613c8c565b029392505050565b5f6111ee60ff8416836140d0565b828152604060208201525f6111eb6040830184613291565b5f82516141a581846020870161326f565b9190910192915050565b5f826141c957634e487b7160e01b5f52601260045260245ffd5b50049056fea2646970667358221220a5610e86438e4e82573c131c404d01efb6d23c548be7feba032ecda09c8c156f64736f6c63430008180033",
			"opcodes": "PUSH2 0x1E0 PUSH1 0x40 MSTORE CALLVALUE DUP1 ISZERO PUSH3 0x11 JUMPI PUSH0 DUP1 REVERT JUMPDEST POP PUSH1 0x40 MLOAD PUSH3 0x4B74 CODESIZE SUB DUP1 PUSH3 0x4B74 DUP4 CODECOPY DUP2 ADD PUSH1 0x40 DUP2 SWAP1 MSTORE PUSH3 0x34 SWAP2 PUSH3 0x632 JUMP JUMPDEST DUP5 DUP2 DUP8 PUSH1 0x40 MLOAD DUP1 PUSH1 0x40 ADD PUSH1 0x40 MSTORE DUP1 PUSH1 0x11 DUP2 MSTORE PUSH1 0x20 ADD PUSH17 0x4F6E436861696E476F7665726E616E6365 PUSH1 0x78 SHL DUP2 MSTORE POP DUP1 PUSH3 0x72 PUSH3 0x180 PUSH1 0x20 SHL PUSH1 0x20 SHR JUMP JUMPDEST PUSH3 0x7E DUP3 PUSH0 PUSH3 0x19B JUMP JUMPDEST PUSH2 0x120 MSTORE PUSH3 0x8F DUP2 PUSH1 0x1 PUSH3 0x19B JUMP JUMPDEST PUSH2 0x140 MSTORE DUP2 MLOAD PUSH1 0x20 DUP1 DUP5 ADD SWAP2 SWAP1 SWAP2 KECCAK256 PUSH1 0xE0 MSTORE DUP2 MLOAD SWAP1 DUP3 ADD KECCAK256 PUSH2 0x100 MSTORE CHAINID PUSH1 0xA0 MSTORE PUSH3 0x11C PUSH1 0xE0 MLOAD PUSH2 0x100 MLOAD PUSH1 0x40 DUP1 MLOAD PUSH32 0x8B73C3C69BB8FE3D512ECC4CF759CC79239F7B179B0FFACAA9A75D522B39400F PUSH1 0x20 DUP3 ADD MSTORE SWAP1 DUP2 ADD SWAP3 SWAP1 SWAP3 MSTORE PUSH1 0x60 DUP3 ADD MSTORE CHAINID PUSH1 0x80 DUP3 ADD MSTORE ADDRESS PUSH1 0xA0 DUP3 ADD MSTORE PUSH0 SWAP1 PUSH1 0xC0 ADD PUSH1 0x40 MLOAD PUSH1 0x20 DUP2 DUP4 SUB SUB DUP2 MSTORE SWAP1 PUSH1 0x40 MSTORE DUP1 MLOAD SWAP1 PUSH1 0x20 ADD KECCAK256 SWAP1 POP SWAP1 JUMP JUMPDEST PUSH1 0x80 MSTORE POP POP ADDRESS PUSH1 0xC0 MSTORE PUSH1 0x3 PUSH3 0x133 DUP3 DUP3 PUSH3 0x74B JUMP JUMPDEST POP POP PUSH1 0x1 PUSH1 0x1 PUSH1 0xA0 SHL SUB AND PUSH2 0x160 MSTORE PUSH3 0x14D DUP2 PUSH3 0x1D3 JUMP JUMPDEST POP PUSH3 0x159 DUP2 PUSH3 0x276 JUMP JUMPDEST POP POP PUSH6 0xFFFFFFFFFFFF SWAP1 SWAP3 AND PUSH2 0x180 MSTORE PUSH4 0xFFFFFFFF AND PUSH2 0x1A0 MSTORE PUSH2 0x1C0 MSTORE POP PUSH3 0x8C5 SWAP1 POP JUMP JUMPDEST PUSH1 0x40 DUP1 MLOAD DUP1 DUP3 ADD SWAP1 SWAP2 MSTORE PUSH1 0x1 DUP2 MSTORE PUSH1 0x31 PUSH1 0xF8 SHL PUSH1 0x20 DUP3 ADD MSTORE SWAP1 JUMP JUMPDEST PUSH0 PUSH1 0x20 DUP4 MLOAD LT ISZERO PUSH3 0x1BA JUMPI PUSH3 0x1B2 DUP4 PUSH3 0x2DF JUMP JUMPDEST SWAP1 POP PUSH3 0x1CD JUMP JUMPDEST DUP2 PUSH3 0x1C7 DUP5 DUP3 PUSH3 0x74B JUMP JUMPDEST POP PUSH1 0xFF SWAP1 POP JUMPDEST SWAP3 SWAP2 POP POP JUMP JUMPDEST PUSH1 0x64 DUP1 DUP3 GT ISZERO PUSH3 0x206 JUMPI PUSH1 0x40 MLOAD PUSH4 0x243E5445 PUSH1 0xE0 SHL DUP2 MSTORE PUSH1 0x4 DUP2 ADD DUP4 SWAP1 MSTORE PUSH1 0x24 DUP2 ADD DUP3 SWAP1 MSTORE PUSH1 0x44 ADD JUMPDEST PUSH1 0x40 MLOAD DUP1 SWAP2 SUB SWAP1 REVERT JUMPDEST PUSH0 PUSH3 0x211 PUSH3 0x321 JUMP JUMPDEST SWAP1 POP PUSH3 0x236 PUSH3 0x221 PUSH3 0x33C JUMP JUMPDEST PUSH3 0x22C DUP6 PUSH3 0x3BD JUMP JUMPDEST PUSH1 0x8 SWAP2 SWAP1 PUSH3 0x3F6 JUMP JUMPDEST POP POP PUSH1 0x40 DUP1 MLOAD DUP3 DUP2 MSTORE PUSH1 0x20 DUP2 ADD DUP6 SWAP1 MSTORE PUSH32 0x553476BF02EF2726E8CE5CED78D63E26E602E4A2257B1F559418E24B4633997 SWAP2 ADD PUSH1 0x40 MLOAD DUP1 SWAP2 SUB SWAP1 LOG1 POP POP POP JUMP JUMPDEST PUSH1 0x9 SLOAD PUSH1 0x40 DUP1 MLOAD PUSH1 0x1 PUSH1 0x1 PUSH1 0xA0 SHL SUB SWAP3 DUP4 AND DUP2 MSTORE SWAP2 DUP4 AND PUSH1 0x20 DUP4 ADD MSTORE PUSH32 0x8F74EA46EF7894F65EABFB5E6E695DE773A000B47C529AB559178069B226401 SWAP2 ADD PUSH1 0x40 MLOAD DUP1 SWAP2 SUB SWAP1 LOG1 PUSH1 0x9 DUP1 SLOAD PUSH1 0x1 PUSH1 0x1 PUSH1 0xA0 SHL SUB NOT AND PUSH1 0x1 PUSH1 0x1 PUSH1 0xA0 SHL SUB SWAP3 SWAP1 SWAP3 AND SWAP2 SWAP1 SWAP2 OR SWAP1 SSTORE JUMP JUMPDEST PUSH0 DUP1 DUP3 SWAP1 POP PUSH1 0x1F DUP2 MLOAD GT ISZERO PUSH3 0x30C JUMPI DUP3 PUSH1 0x40 MLOAD PUSH4 0x305A27A9 PUSH1 0xE0 SHL DUP2 MSTORE PUSH1 0x4 ADD PUSH3 0x1FD SWAP2 SWAP1 PUSH3 0x817 JUMP JUMPDEST DUP1 MLOAD PUSH3 0x319 DUP3 PUSH3 0x865 JUMP JUMPDEST OR SWAP4 SWAP3 POP POP POP JUMP JUMPDEST PUSH0 PUSH3 0x32E PUSH1 0x8 PUSH3 0x412 JUMP JUMPDEST PUSH1 0x1 PUSH1 0x1 PUSH1 0xD0 SHL SUB AND SWAP1 POP SWAP1 JUMP JUMPDEST PUSH0 PUSH3 0x348 PUSH2 0x160 MLOAD SWAP1 JUMP JUMPDEST PUSH1 0x1 PUSH1 0x1 PUSH1 0xA0 SHL SUB AND PUSH4 0x91DDADF4 PUSH1 0x40 MLOAD DUP2 PUSH4 0xFFFFFFFF AND PUSH1 0xE0 SHL DUP2 MSTORE PUSH1 0x4 ADD PUSH1 0x20 PUSH1 0x40 MLOAD DUP1 DUP4 SUB DUP2 DUP7 GAS STATICCALL SWAP3 POP POP POP DUP1 ISZERO PUSH3 0x3A4 JUMPI POP PUSH1 0x40 DUP1 MLOAD PUSH1 0x1F RETURNDATASIZE SWAP1 DUP2 ADD PUSH1 0x1F NOT AND DUP3 ADD SWAP1 SWAP3 MSTORE PUSH3 0x3A1 SWAP2 DUP2 ADD SWAP1 PUSH3 0x889 JUMP JUMPDEST PUSH1 0x1 JUMPDEST PUSH3 0x3B8 JUMPI PUSH3 0x3B3 PUSH3 0x45F JUMP JUMPDEST SWAP1 POP SWAP1 JUMP JUMPDEST SWAP2 SWAP1 POP JUMP JUMPDEST PUSH0 PUSH1 0x1 PUSH1 0x1 PUSH1 0xD0 SHL SUB DUP3 GT ISZERO PUSH3 0x3F2 JUMPI PUSH1 0x40 MLOAD PUSH4 0x6DFCC65 PUSH1 0xE4 SHL DUP2 MSTORE PUSH1 0xD0 PUSH1 0x4 DUP3 ADD MSTORE PUSH1 0x24 DUP2 ADD DUP4 SWAP1 MSTORE PUSH1 0x44 ADD PUSH3 0x1FD JUMP JUMPDEST POP SWAP1 JUMP JUMPDEST PUSH0 DUP1 PUSH3 0x405 DUP6 DUP6 DUP6 PUSH3 0x46B JUMP JUMPDEST SWAP2 POP SWAP2 POP JUMPDEST SWAP4 POP SWAP4 SWAP2 POP POP JUMP JUMPDEST DUP1 SLOAD PUSH0 SWAP1 DUP1 ISZERO PUSH3 0x456 JUMPI PUSH3 0x43C DUP4 PUSH3 0x42F PUSH1 0x1 DUP5 PUSH3 0x8A5 JUMP JUMPDEST PUSH0 SWAP2 DUP3 MSTORE PUSH1 0x20 SWAP1 SWAP2 KECCAK256 ADD SWAP1 JUMP JUMPDEST SLOAD PUSH7 0x1000000000000 SWAP1 DIV PUSH1 0x1 PUSH1 0x1 PUSH1 0xD0 SHL SUB AND PUSH3 0x458 JUMP JUMPDEST PUSH0 JUMPDEST SWAP4 SWAP3 POP POP POP JUMP JUMPDEST PUSH0 PUSH3 0x3B3 NUMBER PUSH3 0x5D0 JUMP JUMPDEST DUP3 SLOAD PUSH0 SWAP1 DUP2 SWAP1 DUP1 ISZERO PUSH3 0x572 JUMPI PUSH0 PUSH3 0x48B DUP8 PUSH3 0x42F PUSH1 0x1 DUP6 PUSH3 0x8A5 JUMP JUMPDEST DUP1 SLOAD SWAP1 SWAP2 POP PUSH6 0xFFFFFFFFFFFF DUP1 DUP3 AND SWAP2 PUSH7 0x1000000000000 SWAP1 DIV PUSH1 0x1 PUSH1 0x1 PUSH1 0xD0 SHL SUB AND SWAP1 DUP9 AND DUP3 GT ISZERO PUSH3 0x4D2 JUMPI PUSH1 0x40 MLOAD PUSH4 0x2520601D PUSH1 0xE0 SHL DUP2 MSTORE PUSH1 0x4 ADD PUSH1 0x40 MLOAD DUP1 SWAP2 SUB SWAP1 REVERT JUMPDEST DUP8 PUSH6 0xFFFFFFFFFFFF AND DUP3 PUSH6 0xFFFFFFFFFFFF AND SUB PUSH3 0x510 JUMPI DUP3 SLOAD PUSH6 0xFFFFFFFFFFFF AND PUSH7 0x1000000000000 PUSH1 0x1 PUSH1 0x1 PUSH1 0xD0 SHL SUB DUP10 AND MUL OR DUP4 SSTORE PUSH3 0x563 JUMP JUMPDEST PUSH1 0x40 DUP1 MLOAD DUP1 DUP3 ADD SWAP1 SWAP2 MSTORE PUSH6 0xFFFFFFFFFFFF DUP1 DUP11 AND DUP3 MSTORE PUSH1 0x1 PUSH1 0x1 PUSH1 0xD0 SHL SUB DUP1 DUP11 AND PUSH1 0x20 DUP1 DUP6 ADD SWAP2 DUP3 MSTORE DUP14 SLOAD PUSH1 0x1 DUP2 ADD DUP16 SSTORE PUSH0 DUP16 DUP2 MSTORE SWAP2 SWAP1 SWAP2 KECCAK256 SWAP5 MLOAD SWAP2 MLOAD SWAP1 SWAP3 AND PUSH7 0x1000000000000 MUL SWAP3 AND SWAP2 SWAP1 SWAP2 OR SWAP2 ADD SSTORE JUMPDEST SWAP5 POP DUP6 SWAP4 POP PUSH3 0x40A SWAP3 POP POP POP JUMP JUMPDEST POP POP PUSH1 0x40 DUP1 MLOAD DUP1 DUP3 ADD SWAP1 SWAP2 MSTORE PUSH6 0xFFFFFFFFFFFF DUP1 DUP6 AND DUP3 MSTORE PUSH1 0x1 PUSH1 0x1 PUSH1 0xD0 SHL SUB DUP1 DUP6 AND PUSH1 0x20 DUP1 DUP6 ADD SWAP2 DUP3 MSTORE DUP9 SLOAD PUSH1 0x1 DUP2 ADD DUP11 SSTORE PUSH0 DUP11 DUP2 MSTORE SWAP2 DUP3 KECCAK256 SWAP6 MLOAD SWAP3 MLOAD SWAP1 SWAP4 AND PUSH7 0x1000000000000 MUL SWAP2 SWAP1 SWAP4 AND OR SWAP3 ADD SWAP2 SWAP1 SWAP2 SSTORE SWAP1 POP DUP2 PUSH3 0x40A JUMP JUMPDEST PUSH0 PUSH6 0xFFFFFFFFFFFF DUP3 GT ISZERO PUSH3 0x3F2 JUMPI PUSH1 0x40 MLOAD PUSH4 0x6DFCC65 PUSH1 0xE4 SHL DUP2 MSTORE PUSH1 0x30 PUSH1 0x4 DUP3 ADD MSTORE PUSH1 0x24 DUP2 ADD DUP4 SWAP1 MSTORE PUSH1 0x44 ADD PUSH3 0x1FD JUMP JUMPDEST PUSH1 0x1 PUSH1 0x1 PUSH1 0xA0 SHL SUB DUP2 AND DUP2 EQ PUSH3 0x619 JUMPI PUSH0 DUP1 REVERT JUMPDEST POP JUMP JUMPDEST DUP1 MLOAD PUSH6 0xFFFFFFFFFFFF DUP2 AND DUP2 EQ PUSH3 0x3B8 JUMPI PUSH0 DUP1 REVERT JUMPDEST PUSH0 DUP1 PUSH0 DUP1 PUSH0 DUP1 PUSH1 0xC0 DUP8 DUP10 SUB SLT ISZERO PUSH3 0x648 JUMPI PUSH0 DUP1 REVERT JUMPDEST DUP7 MLOAD PUSH3 0x655 DUP2 PUSH3 0x604 JUMP JUMPDEST PUSH1 0x20 DUP9 ADD MLOAD SWAP1 SWAP7 POP PUSH3 0x668 DUP2 PUSH3 0x604 JUMP JUMPDEST SWAP5 POP PUSH3 0x678 PUSH1 0x40 DUP9 ADD PUSH3 0x61C JUMP JUMPDEST SWAP4 POP PUSH1 0x60 DUP8 ADD MLOAD PUSH4 0xFFFFFFFF DUP2 AND DUP2 EQ PUSH3 0x691 JUMPI PUSH0 DUP1 REVERT JUMPDEST DUP1 SWAP4 POP POP PUSH1 0x80 DUP8 ADD MLOAD SWAP2 POP PUSH1 0xA0 DUP8 ADD MLOAD SWAP1 POP SWAP3 SWAP6 POP SWAP3 SWAP6 POP SWAP3 SWAP6 JUMP JUMPDEST PUSH4 0x4E487B71 PUSH1 0xE0 SHL PUSH0 MSTORE PUSH1 0x41 PUSH1 0x4 MSTORE PUSH1 0x24 PUSH0 REVERT JUMPDEST PUSH1 0x1 DUP2 DUP2 SHR SWAP1 DUP3 AND DUP1 PUSH3 0x6D6 JUMPI PUSH1 0x7F DUP3 AND SWAP2 POP JUMPDEST PUSH1 0x20 DUP3 LT DUP2 SUB PUSH3 0x6F5 JUMPI PUSH4 0x4E487B71 PUSH1 0xE0 SHL PUSH0 MSTORE PUSH1 0x22 PUSH1 0x4 MSTORE PUSH1 0x24 PUSH0 REVERT JUMPDEST POP SWAP2 SWAP1 POP JUMP JUMPDEST PUSH1 0x1F DUP3 GT ISZERO PUSH3 0x746 JUMPI DUP1 PUSH0 MSTORE PUSH1 0x20 PUSH0 KECCAK256 PUSH1 0x1F DUP5 ADD PUSH1 0x5 SHR DUP2 ADD PUSH1 0x20 DUP6 LT ISZERO PUSH3 0x722 JUMPI POP DUP1 JUMPDEST PUSH1 0x1F DUP5 ADD PUSH1 0x5 SHR DUP3 ADD SWAP2 POP JUMPDEST DUP2 DUP2 LT ISZERO PUSH3 0x743 JUMPI PUSH0 DUP2 SSTORE PUSH1 0x1 ADD PUSH3 0x72E JUMP JUMPDEST POP POP JUMPDEST POP POP POP JUMP JUMPDEST DUP2 MLOAD PUSH1 0x1 PUSH1 0x1 PUSH1 0x40 SHL SUB DUP2 GT ISZERO PUSH3 0x767 JUMPI PUSH3 0x767 PUSH3 0x6AD JUMP JUMPDEST PUSH3 0x77F DUP2 PUSH3 0x778 DUP5 SLOAD PUSH3 0x6C1 JUMP JUMPDEST DUP5 PUSH3 0x6FB JUMP JUMPDEST PUSH1 0x20 DUP1 PUSH1 0x1F DUP4 GT PUSH1 0x1 DUP2 EQ PUSH3 0x7B5 JUMPI PUSH0 DUP5 ISZERO PUSH3 0x79D JUMPI POP DUP6 DUP4 ADD MLOAD JUMPDEST PUSH0 NOT PUSH1 0x3 DUP7 SWAP1 SHL SHR NOT AND PUSH1 0x1 DUP6 SWAP1 SHL OR DUP6 SSTORE PUSH3 0x80F JUMP JUMPDEST PUSH0 DUP6 DUP2 MSTORE PUSH1 0x20 DUP2 KECCAK256 PUSH1 0x1F NOT DUP7 AND SWAP2 JUMPDEST DUP3 DUP2 LT ISZERO PUSH3 0x7E5 JUMPI DUP9 DUP7 ADD MLOAD DUP3 SSTORE SWAP5 DUP5 ADD SWAP5 PUSH1 0x1 SWAP1 SWAP2 ADD SWAP1 DUP5 ADD PUSH3 0x7C4 JUMP JUMPDEST POP DUP6 DUP3 LT ISZERO PUSH3 0x803 JUMPI DUP8 DUP6 ADD MLOAD PUSH0 NOT PUSH1 0x3 DUP9 SWAP1 SHL PUSH1 0xF8 AND SHR NOT AND DUP2 SSTORE JUMPDEST POP POP PUSH1 0x1 DUP5 PUSH1 0x1 SHL ADD DUP6 SSTORE JUMPDEST POP POP POP POP POP POP JUMP JUMPDEST PUSH0 PUSH1 0x20 DUP1 DUP4 MSTORE DUP4 MLOAD DUP1 PUSH1 0x20 DUP6 ADD MSTORE PUSH0 JUMPDEST DUP2 DUP2 LT ISZERO PUSH3 0x845 JUMPI DUP6 DUP2 ADD DUP4 ADD MLOAD DUP6 DUP3 ADD PUSH1 0x40 ADD MSTORE DUP3 ADD PUSH3 0x827 JUMP JUMPDEST POP PUSH0 PUSH1 0x40 DUP3 DUP7 ADD ADD MSTORE PUSH1 0x40 PUSH1 0x1F NOT PUSH1 0x1F DUP4 ADD AND DUP6 ADD ADD SWAP3 POP POP POP SWAP3 SWAP2 POP POP JUMP JUMPDEST DUP1 MLOAD PUSH1 0x20 DUP1 DUP4 ADD MLOAD SWAP2 SWAP1 DUP2 LT ISZERO PUSH3 0x6F5 JUMPI PUSH0 NOT PUSH1 0x20 SWAP2 SWAP1 SWAP2 SUB PUSH1 0x3 SHL SHL AND SWAP2 SWAP1 POP JUMP JUMPDEST PUSH0 PUSH1 0x20 DUP3 DUP5 SUB SLT ISZERO PUSH3 0x89A JUMPI PUSH0 DUP1 REVERT JUMPDEST PUSH3 0x458 DUP3 PUSH3 0x61C JUMP JUMPDEST DUP2 DUP2 SUB DUP2 DUP2 GT ISZERO PUSH3 0x1CD JUMPI PUSH4 0x4E487B71 PUSH1 0xE0 SHL PUSH0 MSTORE PUSH1 0x11 PUSH1 0x4 MSTORE PUSH1 0x24 PUSH0 REVERT JUMPDEST PUSH1 0x80 MLOAD PUSH1 0xA0 MLOAD PUSH1 0xC0 MLOAD PUSH1 0xE0 MLOAD PUSH2 0x100 MLOAD PUSH2 0x120 MLOAD PUSH2 0x140 MLOAD PUSH2 0x160 MLOAD PUSH2 0x180 MLOAD PUSH2 0x1A0 MLOAD PUSH2 0x1C0 MLOAD PUSH2 0x4204 PUSH3 0x970 PUSH0 CODECOPY PUSH0 DUP2 DUP2 PUSH2 0x7FB ADD MSTORE PUSH2 0x1028 ADD MSTORE PUSH0 DUP2 DUP2 PUSH2 0x2F5 ADD MSTORE PUSH2 0x1B56 ADD MSTORE PUSH0 DUP2 DUP2 PUSH2 0x47F ADD MSTORE PUSH2 0x1B10 ADD MSTORE PUSH0 DUP2 DUP2 PUSH2 0x98F ADD MSTORE DUP2 DUP2 PUSH2 0xD89 ADD MSTORE DUP2 DUP2 PUSH2 0x115B ADD MSTORE DUP2 DUP2 PUSH2 0x1D96 ADD MSTORE PUSH2 0x1F13 ADD MSTORE PUSH0 PUSH2 0x1CDA ADD MSTORE PUSH0 PUSH2 0x1CAE ADD MSTORE PUSH0 PUSH2 0x2C70 ADD MSTORE PUSH0 PUSH2 0x2C48 ADD MSTORE PUSH0 PUSH2 0x2BA3 ADD MSTORE PUSH0 PUSH2 0x2BCD ADD MSTORE PUSH0 PUSH2 0x2BF7 ADD MSTORE PUSH2 0x4204 PUSH0 RETURN INVALID PUSH1 0x80 PUSH1 0x40 MSTORE PUSH1 0x4 CALLDATASIZE LT PUSH2 0x278 JUMPI PUSH0 CALLDATALOAD PUSH1 0xE0 SHR DUP1 PUSH4 0x7ECEBE00 GT PUSH2 0x14A JUMPI DUP1 PUSH4 0xB58131B0 GT PUSH2 0xBE JUMPI DUP1 PUSH4 0xDD4E2BA5 GT PUSH2 0x78 JUMPI DUP1 PUSH4 0xDD4E2BA5 EQ PUSH2 0x8AC JUMPI DUP1 PUSH4 0xDEAAA7CC EQ PUSH2 0x8F1 JUMPI DUP1 PUSH4 0xEB9019D4 EQ PUSH2 0x924 JUMPI DUP1 PUSH4 0xF23A6E61 EQ PUSH2 0x943 JUMPI DUP1 PUSH4 0xF8CE560A EQ PUSH2 0x962 JUMPI DUP1 PUSH4 0xFC0C546A EQ PUSH2 0x981 JUMPI PUSH0 DUP1 REVERT JUMPDEST DUP1 PUSH4 0xB58131B0 EQ PUSH2 0x7ED JUMPI DUP1 PUSH4 0xBC197C81 EQ PUSH2 0x81F JUMPI DUP1 PUSH4 0xC01F9E37 EQ PUSH2 0x83E JUMPI DUP1 PUSH4 0xC28BC2FA EQ PUSH2 0x85D JUMPI DUP1 PUSH4 0xC59057E4 EQ PUSH2 0x870 JUMPI DUP1 PUSH4 0xD33219B4 EQ PUSH2 0x88F JUMPI PUSH0 DUP1 REVERT JUMPDEST DUP1 PUSH4 0x9A802A6D GT PUSH2 0x10F JUMPI DUP1 PUSH4 0x9A802A6D EQ PUSH2 0x727 JUMPI DUP1 PUSH4 0xA7713A70 EQ PUSH2 0x746 JUMPI DUP1 PUSH4 0xA890C910 EQ PUSH2 0x75A JUMPI DUP1 PUSH4 0xA8F8A668 EQ PUSH2 0x779 JUMPI DUP1 PUSH4 0xA9A95294 EQ PUSH2 0x798 JUMPI DUP1 PUSH4 0xAB58FB8E EQ PUSH2 0x7B7 JUMPI PUSH0 DUP1 REVERT JUMPDEST DUP1 PUSH4 0x7ECEBE00 EQ PUSH2 0x66F JUMPI DUP1 PUSH4 0x84B0196E EQ PUSH2 0x6A3 JUMPI DUP1 PUSH4 0x8FF262E3 EQ PUSH2 0x6CA JUMPI DUP1 PUSH4 0x91DDADF4 EQ PUSH2 0x6E9 JUMPI DUP1 PUSH4 0x97C3D334 EQ PUSH2 0x714 JUMPI PUSH0 DUP1 REVERT JUMPDEST DUP1 PUSH4 0x3E4F49E6 GT PUSH2 0x1EC JUMPI DUP1 PUSH4 0x56781388 GT PUSH2 0x1A6 JUMPI DUP1 PUSH4 0x56781388 EQ PUSH2 0x5B5 JUMPI DUP1 PUSH4 0x5B8D0E0D EQ PUSH2 0x5D4 JUMPI DUP1 PUSH4 0x5F398A14 EQ PUSH2 0x5F3 JUMPI DUP1 PUSH4 0x60C4247F EQ PUSH2 0x612 JUMPI DUP1 PUSH4 0x7B3C71D3 EQ PUSH2 0x631 JUMPI DUP1 PUSH4 0x7D5E81E2 EQ PUSH2 0x650 JUMPI PUSH0 DUP1 REVERT JUMPDEST DUP1 PUSH4 0x3E4F49E6 EQ PUSH2 0x4AB JUMPI DUP1 PUSH4 0x43859632 EQ PUSH2 0x4D7 JUMPI DUP1 PUSH4 0x452115D6 EQ PUSH2 0x51F JUMPI DUP1 PUSH4 0x4BF5D7E9 EQ PUSH2 0x53E JUMPI DUP1 PUSH4 0x544FFC9C EQ PUSH2 0x552 JUMPI DUP1 PUSH4 0x54FD4D50 EQ PUSH2 0x58C JUMPI PUSH0 DUP1 REVERT JUMPDEST DUP1 PUSH4 0x150B7A02 GT PUSH2 0x23D JUMPI DUP1 PUSH4 0x150B7A02 EQ PUSH2 0x3B5 JUMPI DUP1 PUSH4 0x160CBED7 EQ PUSH2 0x3ED JUMPI DUP1 PUSH4 0x2656227D EQ PUSH2 0x40C JUMPI DUP1 PUSH4 0x2D63F693 EQ PUSH2 0x41F JUMPI DUP1 PUSH4 0x2FE3E261 EQ PUSH2 0x43E JUMPI DUP1 PUSH4 0x3932ABB1 EQ PUSH2 0x471 JUMPI PUSH0 DUP1 REVERT JUMPDEST DUP1 PUSH4 0x1FFC9A7 EQ PUSH2 0x2B3 JUMPI DUP1 PUSH4 0x2A251A3 EQ PUSH2 0x2E7 JUMPI DUP1 PUSH4 0x6F3F9E6 EQ PUSH2 0x329 JUMPI DUP1 PUSH4 0x6FDDE03 EQ PUSH2 0x348 JUMPI DUP1 PUSH4 0x143489D0 EQ PUSH2 0x369 JUMPI PUSH0 DUP1 REVERT JUMPDEST CALLDATASIZE PUSH2 0x2AF JUMPI ADDRESS PUSH2 0x286 PUSH2 0x9B3 JUMP JUMPDEST PUSH1 0x1 PUSH1 0x1 PUSH1 0xA0 SHL SUB AND EQ PUSH2 0x2AD JUMPI PUSH1 0x40 MLOAD PUSH4 0x7485328F PUSH1 0xE1 SHL DUP2 MSTORE PUSH1 0x4 ADD PUSH1 0x40 MLOAD DUP1 SWAP2 SUB SWAP1 REVERT JUMPDEST STOP JUMPDEST PUSH0 DUP1 REVERT JUMPDEST CALLVALUE DUP1 ISZERO PUSH2 0x2BE JUMPI PUSH0 DUP1 REVERT JUMPDEST POP PUSH2 0x2D2 PUSH2 0x2CD CALLDATASIZE PUSH1 0x4 PUSH2 0x3231 JUMP JUMPDEST PUSH2 0x9CB JUMP JUMPDEST PUSH1 0x40 MLOAD SWAP1 ISZERO ISZERO DUP2 MSTORE PUSH1 0x20 ADD JUMPDEST PUSH1 0x40 MLOAD DUP1 SWAP2 SUB SWAP1 RETURN JUMPDEST CALLVALUE DUP1 ISZERO PUSH2 0x2F2 JUMPI PUSH0 DUP1 REVERT JUMPDEST POP PUSH32 0x0 PUSH4 0xFFFFFFFF AND JUMPDEST PUSH1 0x40 MLOAD SWAP1 DUP2 MSTORE PUSH1 0x20 ADD PUSH2 0x2DE JUMP JUMPDEST CALLVALUE DUP1 ISZERO PUSH2 0x334 JUMPI PUSH0 DUP1 REVERT JUMPDEST POP PUSH2 0x2AD PUSH2 0x343 CALLDATASIZE PUSH1 0x4 PUSH2 0x3258 JUMP JUMPDEST PUSH2 0x9DB JUMP JUMPDEST CALLVALUE DUP1 ISZERO PUSH2 0x353 JUMPI PUSH0 DUP1 REVERT JUMPDEST POP PUSH2 0x35C PUSH2 0x9EF JUMP JUMPDEST PUSH1 0x40 MLOAD PUSH2 0x2DE SWAP2 SWAP1 PUSH2 0x32BC JUMP JUMPDEST CALLVALUE DUP1 ISZERO PUSH2 0x374 JUMPI PUSH0 DUP1 REVERT JUMPDEST POP PUSH2 0x39D PUSH2 0x383 CALLDATASIZE PUSH1 0x4 PUSH2 0x3258 JUMP JUMPDEST PUSH0 SWAP1 DUP2 MSTORE PUSH1 0x4 PUSH1 0x20 MSTORE PUSH1 0x40 SWAP1 KECCAK256 SLOAD PUSH1 0x1 PUSH1 0x1 PUSH1 0xA0 SHL SUB AND SWAP1 JUMP JUMPDEST PUSH1 0x40 MLOAD PUSH1 0x1 PUSH1 0x1 PUSH1 0xA0 SHL SUB SWAP1 SWAP2 AND DUP2 MSTORE PUSH1 0x20 ADD PUSH2 0x2DE JUMP JUMPDEST CALLVALUE DUP1 ISZERO PUSH2 0x3C0 JUMPI PUSH0 DUP1 REVERT JUMPDEST POP PUSH2 0x3D4 PUSH2 0x3CF CALLDATASIZE PUSH1 0x4 PUSH2 0x33A5 JUMP JUMPDEST PUSH2 0xA7F JUMP JUMPDEST PUSH1 0x40 MLOAD PUSH1 0x1 PUSH1 0x1 PUSH1 0xE0 SHL SUB NOT SWAP1 SWAP2 AND DUP2 MSTORE PUSH1 0x20 ADD PUSH2 0x2DE JUMP JUMPDEST CALLVALUE DUP1 ISZERO PUSH2 0x3F8 JUMPI PUSH0 DUP1 REVERT JUMPDEST POP PUSH2 0x31B PUSH2 0x407 CALLDATASIZE PUSH1 0x4 PUSH2 0x3574 JUMP JUMPDEST PUSH2 0xAC1 JUMP JUMPDEST PUSH2 0x31B PUSH2 0x41A CALLDATASIZE PUSH1 0x4 PUSH2 0x3574 JUMP JUMPDEST PUSH2 0xB8D JUMP JUMPDEST CALLVALUE DUP1 ISZERO PUSH2 0x42A JUMPI PUSH0 DUP1 REVERT JUMPDEST POP PUSH2 0x31B PUSH2 0x439 CALLDATASIZE PUSH1 0x4 PUSH2 0x3258 JUMP JUMPDEST PUSH2 0xCF5 JUMP JUMPDEST CALLVALUE DUP1 ISZERO PUSH2 0x449 JUMPI PUSH0 DUP1 REVERT JUMPDEST POP PUSH2 0x31B PUSH32 0x3E83946653575F9A39005E1545185629E92736B7528AB20CA3816F315424A811 DUP2 JUMP JUMPDEST CALLVALUE DUP1 ISZERO PUSH2 0x47C JUMPI PUSH0 DUP1 REVERT JUMPDEST POP PUSH32 0x0 PUSH6 0xFFFFFFFFFFFF AND PUSH2 0x31B JUMP JUMPDEST CALLVALUE DUP1 ISZERO PUSH2 0x4B6 JUMPI PUSH0 DUP1 REVERT JUMPDEST POP PUSH2 0x4CA PUSH2 0x4C5 CALLDATASIZE PUSH1 0x4 PUSH2 0x3258 JUMP JUMPDEST PUSH2 0xD15 JUMP JUMPDEST PUSH1 0x40 MLOAD PUSH2 0x2DE SWAP2 SWAP1 PUSH2 0x3631 JUMP JUMPDEST CALLVALUE DUP1 ISZERO PUSH2 0x4E2 JUMPI PUSH0 DUP1 REVERT JUMPDEST POP PUSH2 0x2D2 PUSH2 0x4F1 CALLDATASIZE PUSH1 0x4 PUSH2 0x363F JUMP JUMPDEST PUSH0 DUP3 DUP2 MSTORE PUSH1 0x7 PUSH1 0x20 SWAP1 DUP2 MSTORE PUSH1 0x40 DUP1 DUP4 KECCAK256 PUSH1 0x1 PUSH1 0x1 PUSH1 0xA0 SHL SUB DUP6 AND DUP5 MSTORE PUSH1 0x3 ADD SWAP1 SWAP2 MSTORE SWAP1 KECCAK256 SLOAD PUSH1 0xFF AND SWAP3 SWAP2 POP POP JUMP JUMPDEST CALLVALUE DUP1 ISZERO PUSH2 0x52A JUMPI PUSH0 DUP1 REVERT JUMPDEST POP PUSH2 0x31B PUSH2 0x539 CALLDATASIZE PUSH1 0x4 PUSH2 0x3574 JUMP JUMPDEST PUSH2 0xD1F JUMP JUMPDEST CALLVALUE DUP1 ISZERO PUSH2 0x549 JUMPI PUSH0 DUP1 REVERT JUMPDEST POP PUSH2 0x35C PUSH2 0xD85 JUMP JUMPDEST CALLVALUE DUP1 ISZERO PUSH2 0x55D JUMPI PUSH0 DUP1 REVERT JUMPDEST POP PUSH2 0x571 PUSH2 0x56C CALLDATASIZE PUSH1 0x4 PUSH2 0x3258 JUMP JUMPDEST PUSH2 0xE45 JUMP JUMPDEST PUSH1 0x40 DUP1 MLOAD SWAP4 DUP5 MSTORE PUSH1 0x20 DUP5 ADD SWAP3 SWAP1 SWAP3 MSTORE SWAP1 DUP3 ADD MSTORE PUSH1 0x60 ADD PUSH2 0x2DE JUMP JUMPDEST CALLVALUE DUP1 ISZERO PUSH2 0x597 JUMPI PUSH0 DUP1 REVERT JUMPDEST POP PUSH1 0x40 DUP1 MLOAD DUP1 DUP3 ADD SWAP1 SWAP2 MSTORE PUSH1 0x1 DUP2 MSTORE PUSH1 0x31 PUSH1 0xF8 SHL PUSH1 0x20 DUP3 ADD MSTORE PUSH2 0x35C JUMP JUMPDEST CALLVALUE DUP1 ISZERO PUSH2 0x5C0 JUMPI PUSH0 DUP1 REVERT JUMPDEST POP PUSH2 0x31B PUSH2 0x5CF CALLDATASIZE PUSH1 0x4 PUSH2 0x367D JUMP JUMPDEST PUSH2 0xE6A JUMP JUMPDEST CALLVALUE DUP1 ISZERO PUSH2 0x5DF JUMPI PUSH0 DUP1 REVERT JUMPDEST POP PUSH2 0x31B PUSH2 0x5EE CALLDATASIZE PUSH1 0x4 PUSH2 0x36EB JUMP JUMPDEST PUSH2 0xE91 JUMP JUMPDEST CALLVALUE DUP1 ISZERO PUSH2 0x5FE JUMPI PUSH0 DUP1 REVERT JUMPDEST POP PUSH2 0x31B PUSH2 0x60D CALLDATASIZE PUSH1 0x4 PUSH2 0x379D JUMP JUMPDEST PUSH2 0xF4E JUMP JUMPDEST CALLVALUE DUP1 ISZERO PUSH2 0x61D JUMPI PUSH0 DUP1 REVERT JUMPDEST POP PUSH2 0x31B PUSH2 0x62C CALLDATASIZE PUSH1 0x4 PUSH2 0x3258 JUMP JUMPDEST PUSH2 0xF96 JUMP JUMPDEST CALLVALUE DUP1 ISZERO PUSH2 0x63C JUMPI PUSH0 DUP1 REVERT JUMPDEST POP PUSH2 0x31B PUSH2 0x64B CALLDATASIZE PUSH1 0x4 PUSH2 0x381A JUMP JUMPDEST PUSH2 0xFA2 JUMP JUMPDEST CALLVALUE DUP1 ISZERO PUSH2 0x65B JUMPI PUSH0 DUP1 REVERT JUMPDEST POP PUSH2 0x31B PUSH2 0x66A CALLDATASIZE PUSH1 0x4 PUSH2 0x386F JUMP JUMPDEST PUSH2 0xFF2 JUMP JUMPDEST CALLVALUE DUP1 ISZERO PUSH2 0x67A JUMPI PUSH0 DUP1 REVERT JUMPDEST POP PUSH2 0x31B PUSH2 0x689 CALLDATASIZE PUSH1 0x4 PUSH2 0x391B JUMP JUMPDEST PUSH1 0x1 PUSH1 0x1 PUSH1 0xA0 SHL SUB AND PUSH0 SWAP1 DUP2 MSTORE PUSH1 0x2 PUSH1 0x20 MSTORE PUSH1 0x40 SWAP1 KECCAK256 SLOAD SWAP1 JUMP JUMPDEST CALLVALUE DUP1 ISZERO PUSH2 0x6AE JUMPI PUSH0 DUP1 REVERT JUMPDEST POP PUSH2 0x6B7 PUSH2 0x10BE JUMP JUMPDEST PUSH1 0x40 MLOAD PUSH2 0x2DE SWAP8 SWAP7 SWAP6 SWAP5 SWAP4 SWAP3 SWAP2 SWAP1 PUSH2 0x3970 JUMP JUMPDEST CALLVALUE DUP1 ISZERO PUSH2 0x6D5 JUMPI PUSH0 DUP1 REVERT JUMPDEST POP PUSH2 0x31B PUSH2 0x6E4 CALLDATASIZE PUSH1 0x4 PUSH2 0x39DF JUMP JUMPDEST PUSH2 0x1100 JUMP JUMPDEST CALLVALUE DUP1 ISZERO PUSH2 0x6F4 JUMPI PUSH0 DUP1 REVERT JUMPDEST POP PUSH2 0x6FD PUSH2 0x1158 JUMP JUMPDEST PUSH1 0x40 MLOAD PUSH6 0xFFFFFFFFFFFF SWAP1 SWAP2 AND DUP2 MSTORE PUSH1 0x20 ADD PUSH2 0x2DE JUMP JUMPDEST CALLVALUE DUP1 ISZERO PUSH2 0x71F JUMPI PUSH0 DUP1 REVERT JUMPDEST POP PUSH1 0x64 PUSH2 0x31B JUMP JUMPDEST CALLVALUE DUP1 ISZERO PUSH2 0x732 JUMPI PUSH0 DUP1 REVERT JUMPDEST POP PUSH2 0x31B PUSH2 0x741 CALLDATASIZE PUSH1 0x4 PUSH2 0x3A2C JUMP JUMPDEST PUSH2 0x11DF JUMP JUMPDEST CALLVALUE DUP1 ISZERO PUSH2 0x751 JUMPI PUSH0 DUP1 REVERT JUMPDEST POP PUSH2 0x31B PUSH2 0x11F5 JUMP JUMPDEST CALLVALUE DUP1 ISZERO PUSH2 0x765 JUMPI PUSH0 DUP1 REVERT JUMPDEST POP PUSH2 0x2AD PUSH2 0x774 CALLDATASIZE PUSH1 0x4 PUSH2 0x391B JUMP JUMPDEST PUSH2 0x120E JUMP JUMPDEST CALLVALUE DUP1 ISZERO PUSH2 0x784 JUMPI PUSH0 DUP1 REVERT JUMPDEST POP PUSH2 0x31B PUSH2 0x793 CALLDATASIZE PUSH1 0x4 PUSH2 0x3574 JUMP JUMPDEST PUSH2 0x121F JUMP JUMPDEST CALLVALUE DUP1 ISZERO PUSH2 0x7A3 JUMPI PUSH0 DUP1 REVERT JUMPDEST POP PUSH2 0x2D2 PUSH2 0x7B2 CALLDATASIZE PUSH1 0x4 PUSH2 0x3258 JUMP JUMPDEST PUSH2 0x122C JUMP JUMPDEST CALLVALUE DUP1 ISZERO PUSH2 0x7C2 JUMPI PUSH0 DUP1 REVERT JUMPDEST POP PUSH2 0x31B PUSH2 0x7D1 CALLDATASIZE PUSH1 0x4 PUSH2 0x3258 JUMP JUMPDEST PUSH0 SWAP1 DUP2 MSTORE PUSH1 0x4 PUSH1 0x20 MSTORE PUSH1 0x40 SWAP1 KECCAK256 PUSH1 0x1 ADD SLOAD PUSH6 0xFFFFFFFFFFFF AND SWAP1 JUMP JUMPDEST CALLVALUE DUP1 ISZERO PUSH2 0x7F8 JUMPI PUSH0 DUP1 REVERT JUMPDEST POP PUSH32 0x0 PUSH2 0x31B JUMP JUMPDEST CALLVALUE DUP1 ISZERO PUSH2 0x82A JUMPI PUSH0 DUP1 REVERT JUMPDEST POP PUSH2 0x3D4 PUSH2 0x839 CALLDATASIZE PUSH1 0x4 PUSH2 0x3A80 JUMP JUMPDEST PUSH2 0x1234 JUMP JUMPDEST CALLVALUE DUP1 ISZERO PUSH2 0x849 JUMPI PUSH0 DUP1 REVERT JUMPDEST POP PUSH2 0x31B PUSH2 0x858 CALLDATASIZE PUSH1 0x4 PUSH2 0x3258 JUMP JUMPDEST PUSH2 0x1277 JUMP JUMPDEST PUSH2 0x2AD PUSH2 0x86B CALLDATASIZE PUSH1 0x4 PUSH2 0x3B0C JUMP JUMPDEST PUSH2 0x12B9 JUMP JUMPDEST CALLVALUE DUP1 ISZERO PUSH2 0x87B JUMPI PUSH0 DUP1 REVERT JUMPDEST POP PUSH2 0x31B PUSH2 0x88A CALLDATASIZE PUSH1 0x4 PUSH2 0x3574 JUMP JUMPDEST PUSH2 0x1335 JUMP JUMPDEST CALLVALUE DUP1 ISZERO PUSH2 0x89A JUMPI PUSH0 DUP1 REVERT JUMPDEST POP PUSH1 0x9 SLOAD PUSH1 0x1 PUSH1 0x1 PUSH1 0xA0 SHL SUB AND PUSH2 0x39D JUMP JUMPDEST CALLVALUE DUP1 ISZERO PUSH2 0x8B7 JUMPI PUSH0 DUP1 REVERT JUMPDEST POP PUSH1 0x40 DUP1 MLOAD DUP1 DUP3 ADD SWAP1 SWAP2 MSTORE PUSH1 0x20 DUP1 DUP3 MSTORE PUSH32 0x737570706F72743D627261766F2671756F72756D3D666F722C6162737461696E SWAP1 DUP3 ADD MSTORE PUSH2 0x35C JUMP JUMPDEST CALLVALUE DUP1 ISZERO PUSH2 0x8FC JUMPI PUSH0 DUP1 REVERT JUMPDEST POP PUSH2 0x31B PUSH32 0xF2AAD550CF55F045CB27E9C559F9889FDFB6E6CDAA032301D6EA397784AE51D7 DUP2 JUMP JUMPDEST CALLVALUE DUP1 ISZERO PUSH2 0x92F JUMPI PUSH0 DUP1 REVERT JUMPDEST POP PUSH2 0x31B PUSH2 0x93E CALLDATASIZE PUSH1 0x4 PUSH2 0x3B4B JUMP JUMPDEST PUSH2 0x136E JUMP JUMPDEST CALLVALUE DUP1 ISZERO PUSH2 0x94E JUMPI PUSH0 DUP1 REVERT JUMPDEST POP PUSH2 0x3D4 PUSH2 0x95D CALLDATASIZE PUSH1 0x4 PUSH2 0x3B75 JUMP JUMPDEST PUSH2 0x138D JUMP JUMPDEST CALLVALUE DUP1 ISZERO PUSH2 0x96D JUMPI PUSH0 DUP1 REVERT JUMPDEST POP PUSH2 0x31B PUSH2 0x97C CALLDATASIZE PUSH1 0x4 PUSH2 0x3258 JUMP JUMPDEST PUSH2 0x13D0 JUMP JUMPDEST CALLVALUE DUP1 ISZERO PUSH2 0x98C JUMPI PUSH0 DUP1 REVERT JUMPDEST POP PUSH32 0x0 PUSH2 0x39D JUMP JUMPDEST PUSH0 PUSH2 0x9C6 PUSH1 0x9 SLOAD PUSH1 0x1 PUSH1 0x1 PUSH1 0xA0 SHL SUB AND SWAP1 JUMP JUMPDEST SWAP1 POP SWAP1 JUMP JUMPDEST PUSH0 PUSH2 0x9D5 DUP3 PUSH2 0x13DA JUMP JUMPDEST SWAP3 SWAP2 POP POP JUMP JUMPDEST PUSH2 0x9E3 PUSH2 0x1444 JUMP JUMPDEST PUSH2 0x9EC DUP2 PUSH2 0x14BD JUMP JUMPDEST POP JUMP JUMPDEST PUSH1 0x60 PUSH1 0x3 DUP1 SLOAD PUSH2 0x9FE SWAP1 PUSH2 0x3BD8 JUMP JUMPDEST DUP1 PUSH1 0x1F ADD PUSH1 0x20 DUP1 SWAP2 DIV MUL PUSH1 0x20 ADD PUSH1 0x40 MLOAD SWAP1 DUP2 ADD PUSH1 0x40 MSTORE DUP1 SWAP3 SWAP2 SWAP1 DUP2 DUP2 MSTORE PUSH1 0x20 ADD DUP3 DUP1 SLOAD PUSH2 0xA2A SWAP1 PUSH2 0x3BD8 JUMP JUMPDEST DUP1 ISZERO PUSH2 0xA75 JUMPI DUP1 PUSH1 0x1F LT PUSH2 0xA4C JUMPI PUSH2 0x100 DUP1 DUP4 SLOAD DIV MUL DUP4 MSTORE SWAP2 PUSH1 0x20 ADD SWAP2 PUSH2 0xA75 JUMP JUMPDEST DUP3 ADD SWAP2 SWAP1 PUSH0 MSTORE PUSH1 0x20 PUSH0 KECCAK256 SWAP1 JUMPDEST DUP2 SLOAD DUP2 MSTORE SWAP1 PUSH1 0x1 ADD SWAP1 PUSH1 0x20 ADD DUP1 DUP4 GT PUSH2 0xA58 JUMPI DUP3 SWAP1 SUB PUSH1 0x1F AND DUP3 ADD SWAP2 JUMPDEST POP POP POP POP POP SWAP1 POP SWAP1 JUMP JUMPDEST PUSH0 ADDRESS PUSH2 0xA89 PUSH2 0x9B3 JUMP JUMPDEST PUSH1 0x1 PUSH1 0x1 PUSH1 0xA0 SHL SUB AND EQ PUSH2 0xAB0 JUMPI PUSH1 0x40 MLOAD PUSH4 0x7485328F PUSH1 0xE1 SHL DUP2 MSTORE PUSH1 0x4 ADD PUSH1 0x40 MLOAD DUP1 SWAP2 SUB SWAP1 REVERT JUMPDEST POP PUSH4 0xA85BD01 PUSH1 0xE1 SHL SWAP5 SWAP4 POP POP POP POP JUMP JUMPDEST PUSH0 DUP1 PUSH2 0xACF DUP7 DUP7 DUP7 DUP7 PUSH2 0x121F JUMP JUMPDEST SWAP1 POP PUSH2 0xAE4 DUP2 PUSH2 0xADF PUSH1 0x4 PUSH2 0x1552 JUMP JUMPDEST PUSH2 0x1574 JUMP JUMPDEST POP PUSH0 PUSH2 0xAF3 DUP3 DUP9 DUP9 DUP9 DUP9 PUSH2 0x15B1 JUMP JUMPDEST SWAP1 POP PUSH6 0xFFFFFFFFFFFF DUP2 AND ISZERO PUSH2 0xB6A JUMPI PUSH0 DUP3 DUP2 MSTORE PUSH1 0x4 PUSH1 0x20 SWAP1 DUP2 MSTORE PUSH1 0x40 SWAP2 DUP3 SWAP1 KECCAK256 PUSH1 0x1 ADD DUP1 SLOAD PUSH6 0xFFFFFFFFFFFF NOT AND PUSH6 0xFFFFFFFFFFFF DUP6 AND SWAP1 DUP2 OR SWAP1 SWAP2 SSTORE DUP3 MLOAD DUP6 DUP2 MSTORE SWAP2 DUP3 ADD MSTORE PUSH32 0x9A2E42FD6722813D69113E7D0079D3D940171428DF7373DF9C7F7617CFDA2892 SWAP2 ADD PUSH1 0x40 MLOAD DUP1 SWAP2 SUB SWAP1 LOG1 PUSH2 0xB83 JUMP JUMPDEST PUSH1 0x40 MLOAD PUSH4 0x48442523 PUSH1 0xE1 SHL DUP2 MSTORE PUSH1 0x4 ADD PUSH1 0x40 MLOAD DUP1 SWAP2 SUB SWAP1 REVERT JUMPDEST POP SWAP6 SWAP5 POP POP POP POP POP JUMP JUMPDEST PUSH0 DUP1 PUSH2 0xB9B DUP7 DUP7 DUP7 DUP7 PUSH2 0x121F JUMP JUMPDEST SWAP1 POP PUSH2 0xBBB DUP2 PUSH2 0xBAB PUSH1 0x5 PUSH2 0x1552 JUMP JUMPDEST PUSH2 0xBB5 PUSH1 0x4 PUSH2 0x1552 JUMP JUMPDEST OR PUSH2 0x1574 JUMP JUMPDEST POP PUSH0 DUP2 DUP2 MSTORE PUSH1 0x4 PUSH1 0x20 MSTORE PUSH1 0x40 SWAP1 KECCAK256 DUP1 SLOAD PUSH1 0xFF PUSH1 0xF0 SHL NOT AND PUSH1 0x1 PUSH1 0xF0 SHL OR SWAP1 SSTORE ADDRESS PUSH2 0xBE3 PUSH2 0x9B3 JUMP JUMPDEST PUSH1 0x1 PUSH1 0x1 PUSH1 0xA0 SHL SUB AND EQ PUSH2 0xC6C JUMPI PUSH0 JUMPDEST DUP7 MLOAD DUP2 LT ISZERO PUSH2 0xC6A JUMPI ADDRESS PUSH1 0x1 PUSH1 0x1 PUSH1 0xA0 SHL SUB AND DUP8 DUP3 DUP2 MLOAD DUP2 LT PUSH2 0xC18 JUMPI PUSH2 0xC18 PUSH2 0x3C10 JUMP JUMPDEST PUSH1 0x20 MUL PUSH1 0x20 ADD ADD MLOAD PUSH1 0x1 PUSH1 0x1 PUSH1 0xA0 SHL SUB AND SUB PUSH2 0xC62 JUMPI PUSH2 0xC62 DUP6 DUP3 DUP2 MLOAD DUP2 LT PUSH2 0xC43 JUMPI PUSH2 0xC43 PUSH2 0x3C10 JUMP JUMPDEST PUSH1 0x20 MUL PUSH1 0x20 ADD ADD MLOAD DUP1 MLOAD SWAP1 PUSH1 0x20 ADD KECCAK256 PUSH1 0x5 PUSH2 0x15BF SWAP1 SWAP2 SWAP1 PUSH4 0xFFFFFFFF AND JUMP JUMPDEST PUSH1 0x1 ADD PUSH2 0xBF3 JUMP JUMPDEST POP JUMPDEST PUSH2 0xC79 DUP2 DUP8 DUP8 DUP8 DUP8 PUSH2 0x1620 JUMP JUMPDEST ADDRESS PUSH2 0xC82 PUSH2 0x9B3 JUMP JUMPDEST PUSH1 0x1 PUSH1 0x1 PUSH1 0xA0 SHL SUB AND EQ ISZERO DUP1 ISZERO PUSH2 0xCAE JUMPI POP PUSH1 0x5 SLOAD PUSH1 0x1 PUSH1 0x1 PUSH1 0x80 SHL SUB DUP1 DUP3 AND PUSH1 0x1 PUSH1 0x80 SHL SWAP1 SWAP3 DIV AND EQ ISZERO JUMPDEST ISZERO PUSH2 0xCB8 JUMPI PUSH0 PUSH1 0x5 SSTORE JUMPDEST PUSH1 0x40 MLOAD DUP2 DUP2 MSTORE PUSH32 0x712AE1383F79AC853F8D882153778E0260EF8F03B504E2866E0593E04D2B291F SWAP1 PUSH1 0x20 ADD JUMPDEST PUSH1 0x40 MLOAD DUP1 SWAP2 SUB SWAP1 LOG1 SWAP6 SWAP5 POP POP POP POP POP JUMP JUMPDEST PUSH0 SWAP1 DUP2 MSTORE PUSH1 0x4 PUSH1 0x20 MSTORE PUSH1 0x40 SWAP1 KECCAK256 SLOAD PUSH1 0x1 PUSH1 0xA0 SHL SWAP1 DIV PUSH6 0xFFFFFFFFFFFF AND SWAP1 JUMP JUMPDEST PUSH0 PUSH2 0x9D5 DUP3 PUSH2 0x1634 JUMP JUMPDEST PUSH0 DUP1 PUSH2 0xD2D DUP7 DUP7 DUP7 DUP7 PUSH2 0x121F JUMP JUMPDEST SWAP1 POP CALLER PUSH2 0xD3A DUP3 DUP3 PUSH2 0x176D JUMP JUMPDEST PUSH2 0xD6E JUMPI PUSH1 0x40 MLOAD PUSH4 0x8FE5D8A9 PUSH1 0xE0 SHL DUP2 MSTORE PUSH1 0x4 DUP2 ADD DUP4 SWAP1 MSTORE PUSH1 0x1 PUSH1 0x1 PUSH1 0xA0 SHL SUB DUP3 AND PUSH1 0x24 DUP3 ADD MSTORE PUSH1 0x44 ADD JUMPDEST PUSH1 0x40 MLOAD DUP1 SWAP2 SUB SWAP1 REVERT JUMPDEST PUSH2 0xD7A DUP8 DUP8 DUP8 DUP8 PUSH2 0x17B2 JUMP JUMPDEST SWAP8 SWAP7 POP POP POP POP POP POP POP JUMP JUMPDEST PUSH1 0x60 PUSH32 0x0 PUSH1 0x1 PUSH1 0x1 PUSH1 0xA0 SHL SUB AND PUSH4 0x4BF5D7E9 PUSH1 0x40 MLOAD DUP2 PUSH4 0xFFFFFFFF AND PUSH1 0xE0 SHL DUP2 MSTORE PUSH1 0x4 ADD PUSH0 PUSH1 0x40 MLOAD DUP1 DUP4 SUB DUP2 DUP7 GAS STATICCALL SWAP3 POP POP POP DUP1 ISZERO PUSH2 0xE04 JUMPI POP PUSH1 0x40 MLOAD RETURNDATASIZE PUSH0 DUP3 RETURNDATACOPY PUSH1 0x1F RETURNDATASIZE SWAP1 DUP2 ADD PUSH1 0x1F NOT AND DUP3 ADD PUSH1 0x40 MSTORE PUSH2 0xE01 SWAP2 SWAP1 DUP2 ADD SWAP1 PUSH2 0x3C24 JUMP JUMPDEST PUSH1 0x1 JUMPDEST PUSH2 0xE40 JUMPI POP PUSH1 0x40 DUP1 MLOAD DUP1 DUP3 ADD SWAP1 SWAP2 MSTORE PUSH1 0x1D DUP2 MSTORE PUSH32 0x6D6F64653D626C6F636B6E756D6265722666726F6D3D64656661756C74000000 PUSH1 0x20 DUP3 ADD MSTORE SWAP1 JUMP JUMPDEST SWAP2 SWAP1 POP JUMP JUMPDEST PUSH0 DUP2 DUP2 MSTORE PUSH1 0x7 PUSH1 0x20 MSTORE PUSH1 0x40 SWAP1 KECCAK256 DUP1 SLOAD PUSH1 0x1 DUP3 ADD SLOAD PUSH1 0x2 SWAP1 SWAP3 ADD SLOAD SWAP1 SWAP2 SWAP1 JUMPDEST SWAP2 SWAP4 SWAP1 SWAP3 POP JUMP JUMPDEST PUSH0 DUP1 CALLER SWAP1 POP PUSH2 0xE89 DUP5 DUP3 DUP6 PUSH1 0x40 MLOAD DUP1 PUSH1 0x20 ADD PUSH1 0x40 MSTORE DUP1 PUSH0 DUP2 MSTORE POP PUSH2 0x17BF JUMP JUMPDEST SWAP5 SWAP4 POP POP POP POP JUMP JUMPDEST PUSH0 PUSH2 0xED7 DUP9 DUP9 DUP9 DUP9 DUP9 DUP1 DUP1 PUSH1 0x1F ADD PUSH1 0x20 DUP1 SWAP2 DIV MUL PUSH1 0x20 ADD PUSH1 0x40 MLOAD SWAP1 DUP2 ADD PUSH1 0x40 MSTORE DUP1 SWAP4 SWAP3 SWAP2 SWAP1 DUP2 DUP2 MSTORE PUSH1 0x20 ADD DUP4 DUP4 DUP1 DUP3 DUP5 CALLDATACOPY PUSH0 SWAP3 ADD SWAP2 SWAP1 SWAP2 MSTORE POP DUP11 SWAP3 POP DUP10 SWAP2 POP PUSH2 0x17E0 SWAP1 POP JUMP JUMPDEST PUSH2 0xEFF JUMPI PUSH1 0x40 MLOAD PUSH4 0x94AB6C07 PUSH1 0xE0 SHL DUP2 MSTORE PUSH1 0x1 PUSH1 0x1 PUSH1 0xA0 SHL SUB DUP8 AND PUSH1 0x4 DUP3 ADD MSTORE PUSH1 0x24 ADD PUSH2 0xD65 JUMP JUMPDEST PUSH2 0xF42 DUP9 DUP8 DUP10 DUP9 DUP9 DUP1 DUP1 PUSH1 0x1F ADD PUSH1 0x20 DUP1 SWAP2 DIV MUL PUSH1 0x20 ADD PUSH1 0x40 MLOAD SWAP1 DUP2 ADD PUSH1 0x40 MSTORE DUP1 SWAP4 SWAP3 SWAP2 SWAP1 DUP2 DUP2 MSTORE PUSH1 0x20 ADD DUP4 DUP4 DUP1 DUP3 DUP5 CALLDATACOPY PUSH0 SWAP3 ADD SWAP2 SWAP1 SWAP2 MSTORE POP DUP11 SWAP3 POP PUSH2 0x18AD SWAP2 POP POP JUMP JUMPDEST SWAP9 SWAP8 POP POP POP POP POP POP POP POP JUMP JUMPDEST PUSH0 DUP1 CALLER SWAP1 POP PUSH2 0xD7A DUP8 DUP3 DUP9 DUP9 DUP9 DUP1 DUP1 PUSH1 0x1F ADD PUSH1 0x20 DUP1 SWAP2 DIV MUL PUSH1 0x20 ADD PUSH1 0x40 MLOAD SWAP1 DUP2 ADD PUSH1 0x40 MSTORE DUP1 SWAP4 SWAP3 SWAP2 SWAP1 DUP2 DUP2 MSTORE PUSH1 0x20 ADD DUP4 DUP4 DUP1 DUP3 DUP5 CALLDATACOPY PUSH0 SWAP3 ADD SWAP2 SWAP1 SWAP2 MSTORE POP DUP11 SWAP3 POP PUSH2 0x18AD SWAP2 POP POP JUMP JUMPDEST PUSH0 PUSH2 0x9D5 PUSH1 0x8 DUP4 PUSH2 0x198B JUMP JUMPDEST PUSH0 DUP1 CALLER SWAP1 POP PUSH2 0xFE8 DUP7 DUP3 DUP8 DUP8 DUP8 DUP1 DUP1 PUSH1 0x1F ADD PUSH1 0x20 DUP1 SWAP2 DIV MUL PUSH1 0x20 ADD PUSH1 0x40 MLOAD SWAP1 DUP2 ADD PUSH1 0x40 MSTORE DUP1 SWAP4 SWAP3 SWAP2 SWAP1 DUP2 DUP2 MSTORE PUSH1 0x20 ADD DUP4 DUP4 DUP1 DUP3 DUP5 CALLDATACOPY PUSH0 SWAP3 ADD SWAP2 SWAP1 SWAP2 MSTORE POP PUSH2 0x17BF SWAP3 POP POP POP JUMP JUMPDEST SWAP7 SWAP6 POP POP POP POP POP POP JUMP JUMPDEST PUSH0 CALLER PUSH2 0xFFE DUP2 DUP5 PUSH2 0x19D8 JUMP JUMPDEST PUSH2 0x1026 JUMPI PUSH1 0x40 MLOAD PUSH4 0xD9B39557 PUSH1 0xE0 SHL DUP2 MSTORE PUSH1 0x1 PUSH1 0x1 PUSH1 0xA0 SHL SUB DUP3 AND PUSH1 0x4 DUP3 ADD MSTORE PUSH1 0x24 ADD PUSH2 0xD65 JUMP JUMPDEST PUSH32 0x0 DUP1 ISZERO PUSH2 0x10B1 JUMPI PUSH0 PUSH2 0x1073 DUP4 PUSH1 0x1 PUSH2 0x105C PUSH2 0x1158 JUMP JUMPDEST PUSH2 0x1066 SWAP2 SWAP1 PUSH2 0x3CA0 JUMP JUMPDEST PUSH6 0xFFFFFFFFFFFF AND PUSH2 0x136E JUMP JUMPDEST SWAP1 POP DUP2 DUP2 LT ISZERO PUSH2 0x10AF JUMPI PUSH1 0x40 MLOAD PUSH4 0x6121770B PUSH1 0xE1 SHL DUP2 MSTORE PUSH1 0x1 PUSH1 0x1 PUSH1 0xA0 SHL SUB DUP5 AND PUSH1 0x4 DUP3 ADD MSTORE PUSH1 0x24 DUP2 ADD DUP3 SWAP1 MSTORE PUSH1 0x44 DUP2 ADD DUP4 SWAP1 MSTORE PUSH1 0x64 ADD PUSH2 0xD65 JUMP JUMPDEST POP JUMPDEST PUSH2 0xD7A DUP8 DUP8 DUP8 DUP8 DUP7 PUSH2 0x1A5C JUMP JUMPDEST PUSH0 PUSH1 0x60 DUP1 PUSH0 DUP1 PUSH0 PUSH1 0x60 PUSH2 0x10CF PUSH2 0x1CA7 JUMP JUMPDEST PUSH2 0x10D7 PUSH2 0x1CD3 JUMP JUMPDEST PUSH1 0x40 DUP1 MLOAD PUSH0 DUP1 DUP3 MSTORE PUSH1 0x20 DUP3 ADD SWAP1 SWAP3 MSTORE PUSH1 0xF PUSH1 0xF8 SHL SWAP12 SWAP4 SWAP11 POP SWAP2 SWAP9 POP CHAINID SWAP8 POP ADDRESS SWAP7 POP SWAP5 POP SWAP3 POP SWAP1 POP JUMP JUMPDEST PUSH0 PUSH2 0x110D DUP6 DUP6 DUP6 DUP6 PUSH2 0x1D00 JUMP JUMPDEST PUSH2 0x1135 JUMPI PUSH1 0x40 MLOAD PUSH4 0x94AB6C07 PUSH1 0xE0 SHL DUP2 MSTORE PUSH1 0x1 PUSH1 0x1 PUSH1 0xA0 SHL SUB DUP5 AND PUSH1 0x4 DUP3 ADD MSTORE PUSH1 0x24 ADD PUSH2 0xD65 JUMP JUMPDEST PUSH2 0x114F DUP6 DUP5 DUP7 PUSH1 0x40 MLOAD DUP1 PUSH1 0x20 ADD PUSH1 0x40 MSTORE DUP1 PUSH0 DUP2 MSTORE POP PUSH2 0x17BF JUMP JUMPDEST SWAP6 SWAP5 POP POP POP POP POP JUMP JUMPDEST PUSH0 PUSH32 0x0 PUSH1 0x1 PUSH1 0x1 PUSH1 0xA0 SHL SUB AND PUSH4 0x91DDADF4 PUSH1 0x40 MLOAD DUP2 PUSH4 0xFFFFFFFF AND PUSH1 0xE0 SHL DUP2 MSTORE PUSH1 0x4 ADD PUSH1 0x20 PUSH1 0x40 MLOAD DUP1 DUP4 SUB DUP2 DUP7 GAS STATICCALL SWAP3 POP POP POP DUP1 ISZERO PUSH2 0x11D3 JUMPI POP PUSH1 0x40 DUP1 MLOAD PUSH1 0x1F RETURNDATASIZE SWAP1 DUP2 ADD PUSH1 0x1F NOT AND DUP3 ADD SWAP1 SWAP3 MSTORE PUSH2 0x11D0 SWAP2 DUP2 ADD SWAP1 PUSH2 0x3CC6 JUMP JUMPDEST PUSH1 0x1 JUMPDEST PUSH2 0xE40 JUMPI PUSH2 0x9C6 PUSH2 0x1D89 JUMP JUMPDEST PUSH0 PUSH2 0x11EB DUP5 DUP5 DUP5 PUSH2 0x1D93 JUMP JUMPDEST SWAP1 POP JUMPDEST SWAP4 SWAP3 POP POP POP JUMP JUMPDEST PUSH0 PUSH2 0x1200 PUSH1 0x8 PUSH2 0x1E26 JUMP JUMPDEST PUSH1 0x1 PUSH1 0x1 PUSH1 0xD0 SHL SUB AND SWAP1 POP SWAP1 JUMP JUMPDEST PUSH2 0x1216 PUSH2 0x1444 JUMP JUMPDEST PUSH2 0x9EC DUP2 PUSH2 0x1E6A JUMP JUMPDEST PUSH0 PUSH2 0x114F DUP6 DUP6 DUP6 DUP6 PUSH2 0x1335 JUMP JUMPDEST PUSH0 PUSH1 0x1 PUSH2 0x9D5 JUMP JUMPDEST PUSH0 ADDRESS PUSH2 0x123E PUSH2 0x9B3 JUMP JUMPDEST PUSH1 0x1 PUSH1 0x1 PUSH1 0xA0 SHL SUB AND EQ PUSH2 0x1265 JUMPI PUSH1 0x40 MLOAD PUSH4 0x7485328F PUSH1 0xE1 SHL DUP2 MSTORE PUSH1 0x4 ADD PUSH1 0x40 MLOAD DUP1 SWAP2 SUB SWAP1 REVERT JUMPDEST POP PUSH4 0xBC197C81 PUSH1 0xE0 SHL SWAP6 SWAP5 POP POP POP POP POP JUMP JUMPDEST PUSH0 DUP2 DUP2 MSTORE PUSH1 0x4 PUSH1 0x20 MSTORE PUSH1 0x40 DUP2 KECCAK256 SLOAD PUSH2 0x12AB SWAP1 PUSH1 0x1 PUSH1 0xD0 SHL DUP2 DIV PUSH4 0xFFFFFFFF AND SWAP1 PUSH1 0x1 PUSH1 0xA0 SHL SWAP1 DIV PUSH6 0xFFFFFFFFFFFF AND PUSH2 0x3CEB JUMP JUMPDEST PUSH6 0xFFFFFFFFFFFF AND SWAP3 SWAP2 POP POP JUMP JUMPDEST PUSH2 0x12C1 PUSH2 0x1444 JUMP JUMPDEST PUSH0 DUP1 DUP6 PUSH1 0x1 PUSH1 0x1 PUSH1 0xA0 SHL SUB AND DUP6 DUP6 DUP6 PUSH1 0x40 MLOAD PUSH2 0x12DE SWAP3 SWAP2 SWAP1 PUSH2 0x3D0A JUMP JUMPDEST PUSH0 PUSH1 0x40 MLOAD DUP1 DUP4 SUB DUP2 DUP6 DUP8 GAS CALL SWAP3 POP POP POP RETURNDATASIZE DUP1 PUSH0 DUP2 EQ PUSH2 0x1318 JUMPI PUSH1 0x40 MLOAD SWAP2 POP PUSH1 0x1F NOT PUSH1 0x3F RETURNDATASIZE ADD AND DUP3 ADD PUSH1 0x40 MSTORE RETURNDATASIZE DUP3 MSTORE RETURNDATASIZE PUSH0 PUSH1 0x20 DUP5 ADD RETURNDATACOPY PUSH2 0x131D JUMP JUMPDEST PUSH1 0x60 SWAP2 POP JUMPDEST POP SWAP2 POP SWAP2 POP PUSH2 0x132C DUP3 DUP3 PUSH2 0x1ED3 JUMP JUMPDEST POP POP POP POP POP POP POP JUMP JUMPDEST PUSH0 DUP5 DUP5 DUP5 DUP5 PUSH1 0x40 MLOAD PUSH1 0x20 ADD PUSH2 0x134D SWAP5 SWAP4 SWAP3 SWAP2 SWAP1 PUSH2 0x3DA9 JUMP JUMPDEST PUSH1 0x40 DUP1 MLOAD PUSH1 0x1F NOT DUP2 DUP5 SUB ADD DUP2 MSTORE SWAP2 SWAP1 MSTORE DUP1 MLOAD PUSH1 0x20 SWAP1 SWAP2 ADD KECCAK256 SWAP6 SWAP5 POP POP POP POP POP JUMP JUMPDEST PUSH0 PUSH2 0x11EE DUP4 DUP4 PUSH2 0x1388 PUSH1 0x40 DUP1 MLOAD PUSH1 0x20 DUP2 ADD SWAP1 SWAP2 MSTORE PUSH0 DUP2 MSTORE SWAP1 JUMP JUMPDEST PUSH2 0x1D93 JUMP JUMPDEST PUSH0 ADDRESS PUSH2 0x1397 PUSH2 0x9B3 JUMP JUMPDEST PUSH1 0x1 PUSH1 0x1 PUSH1 0xA0 SHL SUB AND EQ PUSH2 0x13BE JUMPI PUSH1 0x40 MLOAD PUSH4 0x7485328F PUSH1 0xE1 SHL DUP2 MSTORE PUSH1 0x4 ADD PUSH1 0x40 MLOAD DUP1 SWAP2 SUB SWAP1 REVERT JUMPDEST POP PUSH4 0xF23A6E61 PUSH1 0xE0 SHL SWAP6 SWAP5 POP POP POP POP POP JUMP JUMPDEST PUSH0 PUSH2 0x9D5 DUP3 PUSH2 0x1EEF JUMP JUMPDEST PUSH0 PUSH1 0x1 PUSH1 0x1 PUSH1 0xE0 SHL SUB NOT DUP3 AND PUSH4 0x66DEFE77 PUSH1 0xE1 SHL EQ DUP1 PUSH2 0x140A JUMPI POP PUSH1 0x1 PUSH1 0x1 PUSH1 0xE0 SHL SUB NOT DUP3 AND PUSH4 0x32A2AD43 PUSH1 0xE1 SHL EQ JUMPDEST DUP1 PUSH2 0x1425 JUMPI POP PUSH1 0x1 PUSH1 0x1 PUSH1 0xE0 SHL SUB NOT DUP3 AND PUSH4 0x2711897 PUSH1 0xE5 SHL EQ JUMPDEST DUP1 PUSH2 0x9D5 JUMPI POP PUSH4 0x1FFC9A7 PUSH1 0xE0 SHL PUSH1 0x1 PUSH1 0x1 PUSH1 0xE0 SHL SUB NOT DUP4 AND EQ PUSH2 0x9D5 JUMP JUMPDEST CALLER PUSH2 0x144D PUSH2 0x9B3 JUMP JUMPDEST PUSH1 0x1 PUSH1 0x1 PUSH1 0xA0 SHL SUB AND EQ PUSH2 0x1476 JUMPI PUSH1 0x40 MLOAD PUSH4 0x47096E47 PUSH1 0xE0 SHL DUP2 MSTORE CALLER PUSH1 0x4 DUP3 ADD MSTORE PUSH1 0x24 ADD PUSH2 0xD65 JUMP JUMPDEST ADDRESS PUSH2 0x147F PUSH2 0x9B3 JUMP JUMPDEST PUSH1 0x1 PUSH1 0x1 PUSH1 0xA0 SHL SUB AND EQ PUSH2 0x14BB JUMPI PUSH0 DUP1 CALLDATASIZE PUSH1 0x40 MLOAD PUSH2 0x149E SWAP3 SWAP2 SWAP1 PUSH2 0x3D0A JUMP JUMPDEST PUSH1 0x40 MLOAD DUP1 SWAP2 SUB SWAP1 KECCAK256 SWAP1 POP JUMPDEST DUP1 PUSH2 0x14B4 PUSH1 0x5 PUSH2 0x1F8C JUMP JUMPDEST SUB PUSH2 0x14A9 JUMPI POP JUMPDEST JUMP JUMPDEST PUSH1 0x64 DUP1 DUP3 GT ISZERO PUSH2 0x14EA JUMPI PUSH1 0x40 MLOAD PUSH4 0x243E5445 PUSH1 0xE0 SHL DUP2 MSTORE PUSH1 0x4 DUP2 ADD DUP4 SWAP1 MSTORE PUSH1 0x24 DUP2 ADD DUP3 SWAP1 MSTORE PUSH1 0x44 ADD PUSH2 0xD65 JUMP JUMPDEST PUSH0 PUSH2 0x14F3 PUSH2 0x11F5 JUMP JUMPDEST SWAP1 POP PUSH2 0x1512 PUSH2 0x1500 PUSH2 0x1158 JUMP JUMPDEST PUSH2 0x1509 DUP6 PUSH2 0x1FF9 JUMP JUMPDEST PUSH1 0x8 SWAP2 SWAP1 PUSH2 0x2030 JUMP JUMPDEST POP POP PUSH1 0x40 DUP1 MLOAD DUP3 DUP2 MSTORE PUSH1 0x20 DUP2 ADD DUP6 SWAP1 MSTORE PUSH32 0x553476BF02EF2726E8CE5CED78D63E26E602E4A2257B1F559418E24B4633997 SWAP2 ADD PUSH1 0x40 MLOAD DUP1 SWAP2 SUB SWAP1 LOG1 POP POP POP JUMP JUMPDEST PUSH0 DUP2 PUSH1 0x7 DUP2 GT ISZERO PUSH2 0x1565 JUMPI PUSH2 0x1565 PUSH2 0x35FD JUMP JUMPDEST PUSH1 0x1 PUSH1 0xFF SWAP2 SWAP1 SWAP2 AND SHL SWAP3 SWAP2 POP POP JUMP JUMPDEST PUSH0 DUP1 PUSH2 0x157F DUP5 PUSH2 0xD15 JUMP JUMPDEST SWAP1 POP PUSH0 DUP4 PUSH2 0x158C DUP4 PUSH2 0x1552 JUMP JUMPDEST AND SUB PUSH2 0x11EE JUMPI DUP4 DUP2 DUP5 PUSH1 0x40 MLOAD PUSH4 0x31B75E4D PUSH1 0xE0 SHL DUP2 MSTORE PUSH1 0x4 ADD PUSH2 0xD65 SWAP4 SWAP3 SWAP2 SWAP1 PUSH2 0x3DF3 JUMP JUMPDEST PUSH0 PUSH2 0xFE8 DUP7 DUP7 DUP7 DUP7 DUP7 PUSH2 0x204A JUMP JUMPDEST DUP2 SLOAD PUSH1 0x1 PUSH1 0x1 PUSH1 0x80 SHL SUB PUSH1 0x1 PUSH1 0x80 SHL DUP3 DIV DUP2 AND SWAP2 DUP2 AND PUSH1 0x1 DUP4 ADD SWAP1 SWAP2 AND SUB PUSH2 0x15EB JUMPI PUSH2 0x15EB PUSH1 0x41 PUSH2 0x21DB JUMP JUMPDEST PUSH1 0x1 PUSH1 0x1 PUSH1 0x80 SHL SUB DUP1 DUP3 AND PUSH0 SWAP1 DUP2 MSTORE PUSH1 0x1 DUP1 DUP7 ADD PUSH1 0x20 MSTORE PUSH1 0x40 SWAP1 SWAP2 KECCAK256 SWAP4 SWAP1 SWAP4 SSTORE DUP4 SLOAD SWAP2 SWAP1 SWAP3 ADD DUP3 AND PUSH1 0x1 PUSH1 0x80 SHL MUL SWAP2 AND OR SWAP1 SSTORE JUMP JUMPDEST PUSH2 0x162D DUP6 DUP6 DUP6 DUP6 DUP6 PUSH2 0x21EC JUMP JUMPDEST POP POP POP POP POP JUMP JUMPDEST PUSH0 DUP1 PUSH2 0x163F DUP4 PUSH2 0x227C JUMP JUMPDEST SWAP1 POP PUSH1 0x5 DUP2 PUSH1 0x7 DUP2 GT ISZERO PUSH2 0x1655 JUMPI PUSH2 0x1655 PUSH2 0x35FD JUMP JUMPDEST EQ PUSH2 0x1660 JUMPI SWAP3 SWAP2 POP POP JUMP JUMPDEST PUSH0 DUP4 DUP2 MSTORE PUSH1 0xA PUSH1 0x20 MSTORE PUSH1 0x40 SWAP1 DUP2 SWAP1 KECCAK256 SLOAD PUSH1 0x9 SLOAD SWAP2 MLOAD PUSH4 0x2C258A9F PUSH1 0xE1 SHL DUP2 MSTORE PUSH1 0x4 DUP2 ADD DUP3 SWAP1 MSTORE SWAP1 SWAP2 PUSH1 0x1 PUSH1 0x1 PUSH1 0xA0 SHL SUB AND SWAP1 PUSH4 0x584B153E SWAP1 PUSH1 0x24 ADD PUSH1 0x20 PUSH1 0x40 MLOAD DUP1 DUP4 SUB DUP2 DUP7 GAS STATICCALL ISZERO DUP1 ISZERO PUSH2 0x16B6 JUMPI RETURNDATASIZE PUSH0 DUP1 RETURNDATACOPY RETURNDATASIZE PUSH0 REVERT JUMPDEST POP POP POP POP PUSH1 0x40 MLOAD RETURNDATASIZE PUSH1 0x1F NOT PUSH1 0x1F DUP3 ADD AND DUP3 ADD DUP1 PUSH1 0x40 MSTORE POP DUP2 ADD SWAP1 PUSH2 0x16DA SWAP2 SWAP1 PUSH2 0x3E15 JUMP JUMPDEST ISZERO PUSH2 0x16E9 JUMPI POP PUSH1 0x5 SWAP4 SWAP3 POP POP POP JUMP JUMPDEST PUSH1 0x9 SLOAD PUSH1 0x40 MLOAD PUSH4 0x2AB0F529 PUSH1 0xE0 SHL DUP2 MSTORE PUSH1 0x4 DUP2 ADD DUP4 SWAP1 MSTORE PUSH1 0x1 PUSH1 0x1 PUSH1 0xA0 SHL SUB SWAP1 SWAP2 AND SWAP1 PUSH4 0x2AB0F529 SWAP1 PUSH1 0x24 ADD PUSH1 0x20 PUSH1 0x40 MLOAD DUP1 DUP4 SUB DUP2 DUP7 GAS STATICCALL ISZERO DUP1 ISZERO PUSH2 0x1730 JUMPI RETURNDATASIZE PUSH0 DUP1 RETURNDATACOPY RETURNDATASIZE PUSH0 REVERT JUMPDEST POP POP POP POP PUSH1 0x40 MLOAD RETURNDATASIZE PUSH1 0x1F NOT PUSH1 0x1F DUP3 ADD AND DUP3 ADD DUP1 PUSH1 0x40 MSTORE POP DUP2 ADD SWAP1 PUSH2 0x1754 SWAP2 SWAP1 PUSH2 0x3E15 JUMP JUMPDEST ISZERO PUSH2 0x1763 JUMPI POP PUSH1 0x7 SWAP4 SWAP3 POP POP POP JUMP JUMPDEST POP PUSH1 0x2 SWAP4 SWAP3 POP POP POP JUMP JUMPDEST PUSH0 DUP1 PUSH2 0x1778 DUP5 PUSH2 0xD15 JUMP JUMPDEST PUSH1 0x7 DUP2 GT ISZERO PUSH2 0x1789 JUMPI PUSH2 0x1789 PUSH2 0x35FD JUMP JUMPDEST EQ DUP1 ISZERO PUSH2 0x11EE JUMPI POP POP PUSH0 SWAP2 DUP3 MSTORE PUSH1 0x4 PUSH1 0x20 MSTORE PUSH1 0x40 SWAP1 SWAP2 KECCAK256 SLOAD PUSH1 0x1 PUSH1 0x1 PUSH1 0xA0 SHL SUB SWAP2 DUP3 AND SWAP2 AND EQ SWAP1 JUMP JUMPDEST PUSH0 PUSH2 0x114F DUP6 DUP6 DUP6 DUP6 PUSH2 0x23AD JUMP JUMPDEST PUSH0 PUSH2 0x114F DUP6 DUP6 DUP6 DUP6 PUSH2 0x17DB PUSH1 0x40 DUP1 MLOAD PUSH1 0x20 DUP2 ADD SWAP1 SWAP2 MSTORE PUSH0 DUP2 MSTORE SWAP1 JUMP JUMPDEST PUSH2 0x18AD JUMP JUMPDEST PUSH0 PUSH2 0xD7A DUP6 PUSH2 0x18A7 PUSH32 0x3E83946653575F9A39005E1545185629E92736B7528AB20CA3816F315424A811 DUP11 DUP11 DUP11 PUSH2 0x1832 DUP13 PUSH1 0x1 PUSH1 0x1 PUSH1 0xA0 SHL SUB AND PUSH0 SWAP1 DUP2 MSTORE PUSH1 0x2 PUSH1 0x20 MSTORE PUSH1 0x40 SWAP1 KECCAK256 DUP1 SLOAD PUSH1 0x1 DUP2 ADD SWAP1 SWAP2 SSTORE SWAP1 JUMP JUMPDEST DUP12 MLOAD PUSH1 0x20 DUP1 DUP15 ADD SWAP2 SWAP1 SWAP2 KECCAK256 DUP13 MLOAD DUP14 DUP4 ADD KECCAK256 PUSH1 0x40 MLOAD PUSH2 0x188C SWAP9 SWAP8 SWAP7 SWAP6 SWAP5 SWAP4 ADD SWAP7 DUP8 MSTORE PUSH1 0x20 DUP8 ADD SWAP6 SWAP1 SWAP6 MSTORE PUSH1 0xFF SWAP4 SWAP1 SWAP4 AND PUSH1 0x40 DUP7 ADD MSTORE PUSH1 0x1 PUSH1 0x1 PUSH1 0xA0 SHL SUB SWAP2 SWAP1 SWAP2 AND PUSH1 0x60 DUP6 ADD MSTORE PUSH1 0x80 DUP5 ADD MSTORE PUSH1 0xA0 DUP4 ADD MSTORE PUSH1 0xC0 DUP3 ADD MSTORE PUSH1 0xE0 ADD SWAP1 JUMP JUMPDEST PUSH1 0x40 MLOAD PUSH1 0x20 DUP2 DUP4 SUB SUB DUP2 MSTORE SWAP1 PUSH1 0x40 MSTORE DUP1 MLOAD SWAP1 PUSH1 0x20 ADD KECCAK256 PUSH2 0x2444 JUMP JUMPDEST DUP5 PUSH2 0x2470 JUMP JUMPDEST PUSH0 PUSH2 0x18BC DUP7 PUSH2 0xADF PUSH1 0x1 PUSH2 0x1552 JUMP JUMPDEST POP PUSH0 PUSH2 0x18D1 DUP7 PUSH2 0x18CB DUP10 PUSH2 0xCF5 JUMP JUMPDEST DUP6 PUSH2 0x1D93 JUMP JUMPDEST SWAP1 POP PUSH0 PUSH2 0x18E1 DUP9 DUP9 DUP9 DUP6 DUP9 PUSH2 0x24E0 JUMP JUMPDEST SWAP1 POP DUP4 MLOAD PUSH0 SUB PUSH2 0x1937 JUMPI DUP7 PUSH1 0x1 PUSH1 0x1 PUSH1 0xA0 SHL SUB AND PUSH32 0xB8E138887D0AA13BAB447E82DE9D5C1777041ECD21CA36BA824FF1E6C07DDDA4 DUP10 DUP9 DUP5 DUP10 PUSH1 0x40 MLOAD PUSH2 0x192A SWAP5 SWAP4 SWAP3 SWAP2 SWAP1 PUSH2 0x3E34 JUMP JUMPDEST PUSH1 0x40 MLOAD DUP1 SWAP2 SUB SWAP1 LOG2 PUSH2 0xD7A JUMP JUMPDEST DUP7 PUSH1 0x1 PUSH1 0x1 PUSH1 0xA0 SHL SUB AND PUSH32 0xE2BABFBAC5889A709B63BB7F598B324E08BC5A4FB9EC647FB3CBC9EC07EB8712 DUP10 DUP9 DUP5 DUP10 DUP10 PUSH1 0x40 MLOAD PUSH2 0x1978 SWAP6 SWAP5 SWAP4 SWAP3 SWAP2 SWAP1 PUSH2 0x3E5B JUMP JUMPDEST PUSH1 0x40 MLOAD DUP1 SWAP2 SUB SWAP1 LOG2 SWAP8 SWAP7 POP POP POP POP POP POP POP JUMP JUMPDEST PUSH0 DUP1 PUSH0 PUSH2 0x1997 DUP6 PUSH2 0x25DC JUMP JUMPDEST SWAP3 POP SWAP3 POP POP DUP4 DUP3 PUSH6 0xFFFFFFFFFFFF AND GT ISZERO PUSH2 0x19C4 JUMPI PUSH2 0x19BF PUSH2 0x19B8 DUP6 PUSH2 0x2634 JUMP JUMPDEST DUP7 SWAP1 PUSH2 0x2666 JUMP JUMPDEST PUSH2 0x19C6 JUMP JUMPDEST DUP1 JUMPDEST PUSH1 0x1 PUSH1 0x1 PUSH1 0xD0 SHL SUB AND SWAP6 SWAP5 POP POP POP POP POP JUMP JUMPDEST DUP1 MLOAD PUSH0 SWAP1 PUSH1 0x34 DUP2 LT ISZERO PUSH2 0x19EF JUMPI PUSH1 0x1 SWAP2 POP POP PUSH2 0x9D5 JUMP JUMPDEST PUSH1 0x13 NOT DUP2 DUP5 ADD ADD MLOAD PUSH1 0x1 PUSH1 0x1 PUSH1 0xB0 SHL SUB NOT DUP2 AND PUSH10 0x2370726F706F7365723D PUSH1 0xB0 SHL EQ PUSH2 0x1A20 JUMPI PUSH1 0x1 SWAP3 POP POP POP PUSH2 0x9D5 JUMP JUMPDEST PUSH0 DUP1 PUSH2 0x1A30 DUP7 PUSH1 0x2A DUP7 SUB DUP7 PUSH2 0x2708 JUMP JUMPDEST SWAP2 POP SWAP2 POP DUP2 ISZERO DUP1 PUSH2 0xD7A JUMPI POP DUP7 PUSH1 0x1 PUSH1 0x1 PUSH1 0xA0 SHL SUB AND DUP2 PUSH1 0x1 PUSH1 0x1 PUSH1 0xA0 SHL SUB AND EQ SWAP8 SWAP7 POP POP POP POP POP POP POP JUMP JUMPDEST PUSH0 PUSH2 0x1A70 DUP7 DUP7 DUP7 DUP7 DUP1 MLOAD SWAP1 PUSH1 0x20 ADD KECCAK256 PUSH2 0x121F JUMP JUMPDEST SWAP1 POP DUP5 MLOAD DUP7 MLOAD EQ ISZERO DUP1 PUSH2 0x1A85 JUMPI POP DUP4 MLOAD DUP7 MLOAD EQ ISZERO JUMPDEST DUP1 PUSH2 0x1A8F JUMPI POP DUP6 MLOAD ISZERO JUMPDEST ISZERO PUSH2 0x1AC4 JUMPI DUP6 MLOAD DUP5 MLOAD DUP7 MLOAD PUSH1 0x40 MLOAD PUSH4 0x447B05D PUSH1 0xE4 SHL DUP2 MSTORE PUSH1 0x4 DUP2 ADD SWAP4 SWAP1 SWAP4 MSTORE PUSH1 0x24 DUP4 ADD SWAP2 SWAP1 SWAP2 MSTORE PUSH1 0x44 DUP3 ADD MSTORE PUSH1 0x64 ADD PUSH2 0xD65 JUMP JUMPDEST PUSH0 DUP2 DUP2 MSTORE PUSH1 0x4 PUSH1 0x20 MSTORE PUSH1 0x40 SWAP1 KECCAK256 SLOAD PUSH1 0x1 PUSH1 0xA0 SHL SWAP1 DIV PUSH6 0xFFFFFFFFFFFF AND ISZERO PUSH2 0x1B0D JUMPI DUP1 PUSH2 0x1AF0 DUP3 PUSH2 0xD15 JUMP JUMPDEST PUSH1 0x40 MLOAD PUSH4 0x31B75E4D PUSH1 0xE0 SHL DUP2 MSTORE PUSH2 0xD65 SWAP3 SWAP2 SWAP1 PUSH0 SWAP1 PUSH1 0x4 ADD PUSH2 0x3DF3 JUMP JUMPDEST PUSH0 PUSH32 0x0 PUSH6 0xFFFFFFFFFFFF AND PUSH2 0x1B3F PUSH2 0x1158 JUMP JUMPDEST PUSH6 0xFFFFFFFFFFFF AND PUSH2 0x1B51 SWAP2 SWAP1 PUSH2 0x3E94 JUMP JUMPDEST SWAP1 POP PUSH0 PUSH32 0x0 PUSH4 0xFFFFFFFF AND PUSH0 DUP5 DUP2 MSTORE PUSH1 0x4 PUSH1 0x20 MSTORE PUSH1 0x40 SWAP1 KECCAK256 DUP1 SLOAD PUSH1 0x1 PUSH1 0x1 PUSH1 0xA0 SHL SUB NOT AND PUSH1 0x1 PUSH1 0x1 PUSH1 0xA0 SHL SUB DUP8 AND OR DUP2 SSTORE SWAP1 SWAP2 POP PUSH2 0x1BAD DUP4 PUSH2 0x2634 JUMP JUMPDEST DUP2 SLOAD PUSH6 0xFFFFFFFFFFFF SWAP2 SWAP1 SWAP2 AND PUSH1 0x1 PUSH1 0xA0 SHL MUL PUSH6 0xFFFFFFFFFFFF PUSH1 0xA0 SHL NOT SWAP1 SWAP2 AND OR DUP2 SSTORE PUSH2 0x1BDA DUP3 PUSH2 0x27B1 JUMP JUMPDEST DUP2 SLOAD PUSH4 0xFFFFFFFF SWAP2 SWAP1 SWAP2 AND PUSH1 0x1 PUSH1 0xD0 SHL MUL PUSH4 0xFFFFFFFF PUSH1 0xD0 SHL NOT SWAP1 SWAP2 AND OR DUP2 SSTORE DUP9 MLOAD PUSH32 0x7D84A6263AE0D98D3329BD7B46BB4E8D6F98CD35A7ADB45C274C8B7FD5EBD5E0 SWAP1 DUP6 SWAP1 DUP8 SWAP1 DUP13 SWAP1 DUP13 SWAP1 PUSH1 0x1 PUSH1 0x1 PUSH1 0x40 SHL SUB DUP2 GT ISZERO PUSH2 0x1C3D JUMPI PUSH2 0x1C3D PUSH2 0x32E2 JUMP JUMPDEST PUSH1 0x40 MLOAD SWAP1 DUP1 DUP3 MSTORE DUP1 PUSH1 0x20 MUL PUSH1 0x20 ADD DUP3 ADD PUSH1 0x40 MSTORE DUP1 ISZERO PUSH2 0x1C70 JUMPI DUP2 PUSH1 0x20 ADD JUMPDEST PUSH1 0x60 DUP2 MSTORE PUSH1 0x20 ADD SWAP1 PUSH1 0x1 SWAP1 SUB SWAP1 DUP2 PUSH2 0x1C5B JUMPI SWAP1 POP JUMPDEST POP DUP13 DUP10 PUSH2 0x1C7D DUP11 DUP3 PUSH2 0x3E94 JUMP JUMPDEST DUP15 PUSH1 0x40 MLOAD PUSH2 0x1C93 SWAP10 SWAP9 SWAP8 SWAP7 SWAP6 SWAP5 SWAP4 SWAP3 SWAP2 SWAP1 PUSH2 0x3EA7 JUMP JUMPDEST PUSH1 0x40 MLOAD DUP1 SWAP2 SUB SWAP1 LOG1 POP POP POP SWAP6 SWAP5 POP POP POP POP POP JUMP JUMPDEST PUSH1 0x60 PUSH2 0x9C6 PUSH32 0x0 PUSH0 PUSH2 0x27E1 JUMP JUMPDEST PUSH1 0x60 PUSH2 0x9C6 PUSH32 0x0 PUSH1 0x1 PUSH2 0x27E1 JUMP JUMPDEST PUSH0 PUSH2 0x114F DUP4 PUSH2 0x18A7 PUSH32 0xF2AAD550CF55F045CB27E9C559F9889FDFB6E6CDAA032301D6EA397784AE51D7 DUP9 DUP9 DUP9 PUSH2 0x1D52 DUP11 PUSH1 0x1 PUSH1 0x1 PUSH1 0xA0 SHL SUB AND PUSH0 SWAP1 DUP2 MSTORE PUSH1 0x2 PUSH1 0x20 MSTORE PUSH1 0x40 SWAP1 KECCAK256 DUP1 SLOAD PUSH1 0x1 DUP2 ADD SWAP1 SWAP2 SSTORE SWAP1 JUMP JUMPDEST PUSH1 0x40 DUP1 MLOAD PUSH1 0x20 DUP2 ADD SWAP7 SWAP1 SWAP7 MSTORE DUP6 ADD SWAP4 SWAP1 SWAP4 MSTORE PUSH1 0xFF SWAP1 SWAP2 AND PUSH1 0x60 DUP5 ADD MSTORE PUSH1 0x1 PUSH1 0x1 PUSH1 0xA0 SHL SUB AND PUSH1 0x80 DUP4 ADD MSTORE PUSH1 0xA0 DUP3 ADD MSTORE PUSH1 0xC0 ADD PUSH2 0x188C JUMP JUMPDEST PUSH0 PUSH2 0x9C6 NUMBER PUSH2 0x2634 JUMP JUMPDEST PUSH0 PUSH32 0x0 PUSH1 0x40 MLOAD PUSH4 0x748D635 PUSH1 0xE3 SHL DUP2 MSTORE PUSH1 0x1 PUSH1 0x1 PUSH1 0xA0 SHL SUB DUP7 DUP2 AND PUSH1 0x4 DUP4 ADD MSTORE PUSH1 0x24 DUP3 ADD DUP7 SWAP1 MSTORE SWAP2 SWAP1 SWAP2 AND SWAP1 PUSH4 0x3A46B1A8 SWAP1 PUSH1 0x44 ADD PUSH1 0x20 PUSH1 0x40 MLOAD DUP1 DUP4 SUB DUP2 DUP7 GAS STATICCALL ISZERO DUP1 ISZERO PUSH2 0x1E02 JUMPI RETURNDATASIZE PUSH0 DUP1 RETURNDATACOPY RETURNDATASIZE PUSH0 REVERT JUMPDEST POP POP POP POP PUSH1 0x40 MLOAD RETURNDATASIZE PUSH1 0x1F NOT PUSH1 0x1F DUP3 ADD AND DUP3 ADD DUP1 PUSH1 0x40 MSTORE POP DUP2 ADD SWAP1 PUSH2 0x11EB SWAP2 SWAP1 PUSH2 0x3F7C JUMP JUMPDEST DUP1 SLOAD PUSH0 SWAP1 DUP1 ISZERO PUSH2 0x1E62 JUMPI PUSH2 0x1E4C DUP4 PUSH2 0x1E3F PUSH1 0x1 DUP5 PUSH2 0x3F93 JUMP JUMPDEST PUSH0 SWAP2 DUP3 MSTORE PUSH1 0x20 SWAP1 SWAP2 KECCAK256 ADD SWAP1 JUMP JUMPDEST SLOAD PUSH1 0x1 PUSH1 0x30 SHL SWAP1 DIV PUSH1 0x1 PUSH1 0x1 PUSH1 0xD0 SHL SUB AND PUSH2 0x11EE JUMP JUMPDEST PUSH0 SWAP4 SWAP3 POP POP POP JUMP JUMPDEST PUSH1 0x9 SLOAD PUSH1 0x40 DUP1 MLOAD PUSH1 0x1 PUSH1 0x1 PUSH1 0xA0 SHL SUB SWAP3 DUP4 AND DUP2 MSTORE SWAP2 DUP4 AND PUSH1 0x20 DUP4 ADD MSTORE PUSH32 0x8F74EA46EF7894F65EABFB5E6E695DE773A000B47C529AB559178069B226401 SWAP2 ADD PUSH1 0x40 MLOAD DUP1 SWAP2 SUB SWAP1 LOG1 PUSH1 0x9 DUP1 SLOAD PUSH1 0x1 PUSH1 0x1 PUSH1 0xA0 SHL SUB NOT AND PUSH1 0x1 PUSH1 0x1 PUSH1 0xA0 SHL SUB SWAP3 SWAP1 SWAP3 AND SWAP2 SWAP1 SWAP2 OR SWAP1 SSTORE JUMP JUMPDEST PUSH1 0x60 DUP3 PUSH2 0x1EE8 JUMPI PUSH2 0x1EE3 DUP3 PUSH2 0x288A JUMP JUMPDEST PUSH2 0x9D5 JUMP JUMPDEST POP DUP1 PUSH2 0x9D5 JUMP JUMPDEST PUSH1 0x40 MLOAD PUSH4 0x2394E7A3 PUSH1 0xE2 SHL DUP2 MSTORE PUSH1 0x4 DUP2 ADD DUP3 SWAP1 MSTORE PUSH0 SWAP1 PUSH2 0x9D5 SWAP1 PUSH1 0x1 PUSH1 0x1 PUSH1 0xA0 SHL SUB PUSH32 0x0 AND SWAP1 PUSH4 0x8E539E8C SWAP1 PUSH1 0x24 ADD PUSH1 0x20 PUSH1 0x40 MLOAD DUP1 DUP4 SUB DUP2 DUP7 GAS STATICCALL ISZERO DUP1 ISZERO PUSH2 0x1F58 JUMPI RETURNDATASIZE PUSH0 DUP1 RETURNDATACOPY RETURNDATASIZE PUSH0 REVERT JUMPDEST POP POP POP POP PUSH1 0x40 MLOAD RETURNDATASIZE PUSH1 0x1F NOT PUSH1 0x1F DUP3 ADD AND DUP3 ADD DUP1 PUSH1 0x40 MSTORE POP DUP2 ADD SWAP1 PUSH2 0x1F7C SWAP2 SWAP1 PUSH2 0x3F7C JUMP JUMPDEST PUSH2 0x1F85 DUP5 PUSH2 0xF96 JUMP JUMPDEST PUSH1 0x64 PUSH2 0x28B2 JUMP JUMPDEST DUP1 SLOAD PUSH0 SWAP1 PUSH1 0x1 PUSH1 0x1 PUSH1 0x80 SHL SUB DUP1 DUP3 AND SWAP2 PUSH1 0x1 PUSH1 0x80 SHL SWAP1 DIV AND DUP2 SUB PUSH2 0x1FB4 JUMPI PUSH2 0x1FB4 PUSH1 0x31 PUSH2 0x21DB JUMP JUMPDEST PUSH1 0x1 PUSH1 0x1 PUSH1 0x80 SHL SUB DUP2 DUP2 AND PUSH0 SWAP1 DUP2 MSTORE PUSH1 0x1 DUP6 DUP2 ADD PUSH1 0x20 MSTORE PUSH1 0x40 DUP3 KECCAK256 DUP1 SLOAD SWAP3 SWAP1 SSTORE DUP6 SLOAD PUSH16 0xFFFFFFFFFFFFFFFFFFFFFFFFFFFFFFFF NOT AND SWAP4 ADD SWAP1 SWAP2 AND SWAP2 SWAP1 SWAP2 OR SWAP1 SWAP3 SSTORE POP SWAP1 JUMP JUMPDEST PUSH0 PUSH1 0x1 PUSH1 0x1 PUSH1 0xD0 SHL SUB DUP3 GT ISZERO PUSH2 0x202C JUMPI PUSH1 0x40 MLOAD PUSH4 0x6DFCC65 PUSH1 0xE4 SHL DUP2 MSTORE PUSH1 0xD0 PUSH1 0x4 DUP3 ADD MSTORE PUSH1 0x24 DUP2 ADD DUP4 SWAP1 MSTORE PUSH1 0x44 ADD PUSH2 0xD65 JUMP JUMPDEST POP SWAP1 JUMP JUMPDEST PUSH0 DUP1 PUSH2 0x203D DUP6 DUP6 DUP6 PUSH2 0x2962 JUMP JUMPDEST SWAP2 POP SWAP2 POP JUMPDEST SWAP4 POP SWAP4 SWAP2 POP POP JUMP JUMPDEST PUSH0 DUP1 PUSH1 0x9 PUSH0 SWAP1 SLOAD SWAP1 PUSH2 0x100 EXP SWAP1 DIV PUSH1 0x1 PUSH1 0x1 PUSH1 0xA0 SHL SUB AND PUSH1 0x1 PUSH1 0x1 PUSH1 0xA0 SHL SUB AND PUSH4 0xF27A0C92 PUSH1 0x40 MLOAD DUP2 PUSH4 0xFFFFFFFF AND PUSH1 0xE0 SHL DUP2 MSTORE PUSH1 0x4 ADD PUSH1 0x20 PUSH1 0x40 MLOAD DUP1 DUP4 SUB DUP2 DUP7 GAS STATICCALL ISZERO DUP1 ISZERO PUSH2 0x209C JUMPI RETURNDATASIZE PUSH0 DUP1 RETURNDATACOPY RETURNDATASIZE PUSH0 REVERT JUMPDEST POP POP POP POP PUSH1 0x40 MLOAD RETURNDATASIZE PUSH1 0x1F NOT PUSH1 0x1F DUP3 ADD AND DUP3 ADD DUP1 PUSH1 0x40 MSTORE POP DUP2 ADD SWAP1 PUSH2 0x20C0 SWAP2 SWAP1 PUSH2 0x3F7C JUMP JUMPDEST SWAP1 POP PUSH0 ADDRESS PUSH1 0x60 SHL PUSH12 0xFFFFFFFFFFFFFFFFFFFFFFFF NOT AND DUP5 XOR PUSH1 0x9 SLOAD PUSH1 0x40 MLOAD PUSH4 0xB1C5F427 PUSH1 0xE0 SHL DUP2 MSTORE SWAP2 SWAP3 POP PUSH1 0x1 PUSH1 0x1 PUSH1 0xA0 SHL SUB AND SWAP1 PUSH4 0xB1C5F427 SWAP1 PUSH2 0x2111 SWAP1 DUP11 SWAP1 DUP11 SWAP1 DUP11 SWAP1 PUSH0 SWAP1 DUP9 SWAP1 PUSH1 0x4 ADD PUSH2 0x3FA6 JUMP JUMPDEST PUSH1 0x20 PUSH1 0x40 MLOAD DUP1 DUP4 SUB DUP2 DUP7 GAS STATICCALL ISZERO DUP1 ISZERO PUSH2 0x212C JUMPI RETURNDATASIZE PUSH0 DUP1 RETURNDATACOPY RETURNDATASIZE PUSH0 REVERT JUMPDEST POP POP POP POP PUSH1 0x40 MLOAD RETURNDATASIZE PUSH1 0x1F NOT PUSH1 0x1F DUP3 ADD AND DUP3 ADD DUP1 PUSH1 0x40 MSTORE POP DUP2 ADD SWAP1 PUSH2 0x2150 SWAP2 SWAP1 PUSH2 0x3F7C JUMP JUMPDEST PUSH0 DUP10 DUP2 MSTORE PUSH1 0xA PUSH1 0x20 MSTORE PUSH1 0x40 DUP1 DUP3 KECCAK256 SWAP3 SWAP1 SWAP3 SSTORE PUSH1 0x9 SLOAD SWAP2 MLOAD PUSH4 0x8F2A0BB PUSH1 0xE4 SHL DUP2 MSTORE PUSH1 0x1 PUSH1 0x1 PUSH1 0xA0 SHL SUB SWAP1 SWAP3 AND SWAP2 PUSH4 0x8F2A0BB0 SWAP2 PUSH2 0x219A SWAP2 DUP12 SWAP2 DUP12 SWAP2 DUP12 SWAP2 SWAP1 DUP9 SWAP1 DUP11 SWAP1 PUSH1 0x4 ADD PUSH2 0x3FF3 JUMP JUMPDEST PUSH0 PUSH1 0x40 MLOAD DUP1 DUP4 SUB DUP2 PUSH0 DUP8 DUP1 EXTCODESIZE ISZERO DUP1 ISZERO PUSH2 0x21B1 JUMPI PUSH0 DUP1 REVERT JUMPDEST POP GAS CALL ISZERO DUP1 ISZERO PUSH2 0x21C3 JUMPI RETURNDATASIZE PUSH0 DUP1 RETURNDATACOPY RETURNDATASIZE PUSH0 REVERT JUMPDEST POP POP POP POP PUSH2 0xF42 DUP3 TIMESTAMP PUSH2 0x21D6 SWAP2 SWAP1 PUSH2 0x3E94 JUMP JUMPDEST PUSH2 0x2634 JUMP JUMPDEST PUSH4 0x4E487B71 PUSH0 MSTORE DUP1 PUSH1 0x20 MSTORE PUSH1 0x24 PUSH1 0x1C REVERT JUMPDEST PUSH1 0x9 SLOAD PUSH1 0x1 PUSH1 0x1 PUSH1 0xA0 SHL SUB AND PUSH4 0xE38335E5 CALLVALUE DUP7 DUP7 DUP7 PUSH0 ADDRESS PUSH1 0x60 SHL PUSH12 0xFFFFFFFFFFFFFFFFFFFFFFFF NOT AND DUP9 XOR PUSH1 0x40 MLOAD DUP8 PUSH4 0xFFFFFFFF AND PUSH1 0xE0 SHL DUP2 MSTORE PUSH1 0x4 ADD PUSH2 0x2237 SWAP6 SWAP5 SWAP4 SWAP3 SWAP2 SWAP1 PUSH2 0x3FA6 JUMP JUMPDEST PUSH0 PUSH1 0x40 MLOAD DUP1 DUP4 SUB DUP2 DUP6 DUP9 DUP1 EXTCODESIZE ISZERO DUP1 ISZERO PUSH2 0x224E JUMPI PUSH0 DUP1 REVERT JUMPDEST POP GAS CALL ISZERO DUP1 ISZERO PUSH2 0x2260 JUMPI RETURNDATASIZE PUSH0 DUP1 RETURNDATACOPY RETURNDATASIZE PUSH0 REVERT JUMPDEST POP POP POP PUSH0 SWAP7 DUP8 MSTORE POP POP PUSH1 0xA PUSH1 0x20 MSTORE POP POP PUSH1 0x40 DUP4 KECCAK256 SWAP3 SWAP1 SWAP3 SSTORE POP POP JUMP JUMPDEST PUSH0 DUP2 DUP2 MSTORE PUSH1 0x4 PUSH1 0x20 MSTORE PUSH1 0x40 DUP2 KECCAK256 DUP1 SLOAD PUSH1 0xFF PUSH1 0x1 PUSH1 0xF0 SHL DUP3 DIV DUP2 AND SWAP2 PUSH1 0x1 PUSH1 0xF8 SHL SWAP1 DIV AND DUP2 ISZERO PUSH2 0x22B0 JUMPI POP PUSH1 0x7 SWAP5 SWAP4 POP POP POP POP JUMP JUMPDEST DUP1 ISZERO PUSH2 0x22C1 JUMPI POP PUSH1 0x2 SWAP5 SWAP4 POP POP POP POP JUMP JUMPDEST PUSH0 PUSH2 0x22CB DUP7 PUSH2 0xCF5 JUMP JUMPDEST SWAP1 POP DUP1 PUSH0 SUB PUSH2 0x22F0 JUMPI PUSH1 0x40 MLOAD PUSH4 0x6AD06075 PUSH1 0xE0 SHL DUP2 MSTORE PUSH1 0x4 DUP2 ADD DUP8 SWAP1 MSTORE PUSH1 0x24 ADD PUSH2 0xD65 JUMP JUMPDEST PUSH0 PUSH2 0x22F9 PUSH2 0x1158 JUMP JUMPDEST PUSH6 0xFFFFFFFFFFFF AND SWAP1 POP DUP1 DUP3 LT PUSH2 0x2316 JUMPI POP PUSH0 SWAP7 SWAP6 POP POP POP POP POP POP JUMP JUMPDEST PUSH0 PUSH2 0x2320 DUP9 PUSH2 0x1277 JUMP JUMPDEST SWAP1 POP DUP2 DUP2 LT PUSH2 0x2337 JUMPI POP PUSH1 0x1 SWAP8 SWAP7 POP POP POP POP POP POP POP JUMP JUMPDEST PUSH2 0x2340 DUP9 PUSH2 0x2AB2 JUMP JUMPDEST ISZERO DUP1 PUSH2 0x235F JUMPI POP PUSH0 DUP9 DUP2 MSTORE PUSH1 0x7 PUSH1 0x20 MSTORE PUSH1 0x40 SWAP1 KECCAK256 DUP1 SLOAD PUSH1 0x1 SWAP1 SWAP2 ADD SLOAD GT ISZERO JUMPDEST ISZERO PUSH2 0x2372 JUMPI POP PUSH1 0x3 SWAP8 SWAP7 POP POP POP POP POP POP POP JUMP JUMPDEST PUSH0 DUP9 DUP2 MSTORE PUSH1 0x4 PUSH1 0x20 MSTORE PUSH1 0x40 SWAP1 KECCAK256 PUSH1 0x1 ADD SLOAD PUSH6 0xFFFFFFFFFFFF AND PUSH0 SUB PUSH2 0x239F JUMPI POP PUSH1 0x4 SWAP8 SWAP7 POP POP POP POP POP POP POP JUMP JUMPDEST POP PUSH1 0x5 SWAP8 SWAP7 POP POP POP POP POP POP POP JUMP JUMPDEST PUSH0 DUP1 PUSH2 0x23BB DUP7 DUP7 DUP7 DUP7 PUSH2 0x2AE8 JUMP JUMPDEST PUSH0 DUP2 DUP2 MSTORE PUSH1 0xA PUSH1 0x20 MSTORE PUSH1 0x40 SWAP1 KECCAK256 SLOAD SWAP1 SWAP2 POP DUP1 ISZERO PUSH2 0xB83 JUMPI PUSH1 0x9 SLOAD PUSH1 0x40 MLOAD PUSH4 0xC4D252F5 PUSH1 0xE0 SHL DUP2 MSTORE PUSH1 0x4 DUP2 ADD DUP4 SWAP1 MSTORE PUSH1 0x1 PUSH1 0x1 PUSH1 0xA0 SHL SUB SWAP1 SWAP2 AND SWAP1 PUSH4 0xC4D252F5 SWAP1 PUSH1 0x24 ADD PUSH0 PUSH1 0x40 MLOAD DUP1 DUP4 SUB DUP2 PUSH0 DUP8 DUP1 EXTCODESIZE ISZERO DUP1 ISZERO PUSH2 0x2415 JUMPI PUSH0 DUP1 REVERT JUMPDEST POP GAS CALL ISZERO DUP1 ISZERO PUSH2 0x2427 JUMPI RETURNDATASIZE PUSH0 DUP1 RETURNDATACOPY RETURNDATASIZE PUSH0 REVERT JUMPDEST POP POP POP PUSH0 DUP4 DUP2 MSTORE PUSH1 0xA PUSH1 0x20 MSTORE PUSH1 0x40 DUP2 KECCAK256 SSTORE POP POP SWAP1 POP SWAP5 SWAP4 POP POP POP POP JUMP JUMPDEST PUSH0 PUSH2 0x9D5 PUSH2 0x2450 PUSH2 0x2B97 JUMP JUMPDEST DUP4 PUSH1 0x40 MLOAD PUSH2 0x1901 PUSH1 0xF0 SHL DUP2 MSTORE PUSH1 0x2 DUP2 ADD SWAP3 SWAP1 SWAP3 MSTORE PUSH1 0x22 DUP3 ADD MSTORE PUSH1 0x42 SWAP1 KECCAK256 SWAP1 JUMP JUMPDEST PUSH0 DUP4 PUSH1 0x1 PUSH1 0x1 PUSH1 0xA0 SHL SUB AND EXTCODESIZE PUSH0 SUB PUSH2 0x24CE JUMPI PUSH0 DUP1 PUSH2 0x248E DUP6 DUP6 PUSH2 0x2CC0 JUMP JUMPDEST POP SWAP1 SWAP3 POP SWAP1 POP PUSH0 DUP2 PUSH1 0x3 DUP2 GT ISZERO PUSH2 0x24A7 JUMPI PUSH2 0x24A7 PUSH2 0x35FD JUMP JUMPDEST EQ DUP1 ISZERO PUSH2 0x24C5 JUMPI POP DUP6 PUSH1 0x1 PUSH1 0x1 PUSH1 0xA0 SHL SUB AND DUP3 PUSH1 0x1 PUSH1 0x1 PUSH1 0xA0 SHL SUB AND EQ JUMPDEST SWAP3 POP POP POP PUSH2 0x11EE JUMP JUMPDEST PUSH2 0x24D9 DUP5 DUP5 DUP5 PUSH2 0x2D09 JUMP JUMPDEST SWAP1 POP PUSH2 0x11EE JUMP JUMPDEST PUSH0 DUP6 DUP2 MSTORE PUSH1 0x7 PUSH1 0x20 SWAP1 DUP2 MSTORE PUSH1 0x40 DUP1 DUP4 KECCAK256 PUSH1 0x1 PUSH1 0x1 PUSH1 0xA0 SHL SUB DUP9 AND DUP5 MSTORE PUSH1 0x3 DUP2 ADD SWAP1 SWAP3 MSTORE DUP3 KECCAK256 SLOAD PUSH1 0xFF AND ISZERO PUSH2 0x2532 JUMPI PUSH1 0x40 MLOAD PUSH4 0x71C6AF49 PUSH1 0xE0 SHL DUP2 MSTORE PUSH1 0x1 PUSH1 0x1 PUSH1 0xA0 SHL SUB DUP8 AND PUSH1 0x4 DUP3 ADD MSTORE PUSH1 0x24 ADD PUSH2 0xD65 JUMP JUMPDEST PUSH1 0x1 PUSH1 0x1 PUSH1 0xA0 SHL SUB DUP7 AND PUSH0 SWAP1 DUP2 MSTORE PUSH1 0x3 DUP3 ADD PUSH1 0x20 MSTORE PUSH1 0x40 SWAP1 KECCAK256 DUP1 SLOAD PUSH1 0xFF NOT AND PUSH1 0x1 OR SWAP1 SSTORE PUSH1 0xFF DUP6 AND PUSH2 0x257B JUMPI DUP4 DUP2 PUSH0 ADD PUSH0 DUP3 DUP3 SLOAD PUSH2 0x2570 SWAP2 SWAP1 PUSH2 0x3E94 JUMP JUMPDEST SWAP1 SWAP2 SSTORE POP PUSH2 0x25D1 SWAP1 POP JUMP JUMPDEST PUSH0 NOT PUSH1 0xFF DUP7 AND ADD PUSH2 0x2599 JUMPI DUP4 DUP2 PUSH1 0x1 ADD PUSH0 DUP3 DUP3 SLOAD PUSH2 0x2570 SWAP2 SWAP1 PUSH2 0x3E94 JUMP JUMPDEST PUSH1 0x1 NOT PUSH1 0xFF DUP7 AND ADD PUSH2 0x25B8 JUMPI DUP4 DUP2 PUSH1 0x2 ADD PUSH0 DUP3 DUP3 SLOAD PUSH2 0x2570 SWAP2 SWAP1 PUSH2 0x3E94 JUMP JUMPDEST PUSH1 0x40 MLOAD PUSH4 0x3599BE1 PUSH1 0xE1 SHL DUP2 MSTORE PUSH1 0x4 ADD PUSH1 0x40 MLOAD DUP1 SWAP2 SUB SWAP1 REVERT JUMPDEST POP SWAP2 SWAP6 SWAP5 POP POP POP POP POP JUMP JUMPDEST DUP1 SLOAD PUSH0 SWAP1 DUP2 SWAP1 DUP2 SWAP1 DUP1 DUP3 SUB PUSH2 0x25FA JUMPI PUSH0 DUP1 PUSH0 SWAP4 POP SWAP4 POP SWAP4 POP POP PUSH2 0xE63 JUMP JUMPDEST PUSH0 PUSH2 0x260A DUP7 PUSH2 0x1E3F PUSH1 0x1 DUP6 PUSH2 0x3F93 JUMP JUMPDEST SLOAD PUSH1 0x1 SWAP6 POP PUSH6 0xFFFFFFFFFFFF DUP2 AND SWAP5 POP PUSH1 0x1 PUSH1 0x30 SHL SWAP1 DIV PUSH1 0x1 PUSH1 0x1 PUSH1 0xD0 SHL SUB AND SWAP3 POP PUSH2 0xE63 SWAP2 POP POP JUMP JUMPDEST PUSH0 PUSH6 0xFFFFFFFFFFFF DUP3 GT ISZERO PUSH2 0x202C JUMPI PUSH1 0x40 MLOAD PUSH4 0x6DFCC65 PUSH1 0xE4 SHL DUP2 MSTORE PUSH1 0x30 PUSH1 0x4 DUP3 ADD MSTORE PUSH1 0x24 DUP2 ADD DUP4 SWAP1 MSTORE PUSH1 0x44 ADD PUSH2 0xD65 JUMP JUMPDEST DUP2 SLOAD PUSH0 SWAP1 DUP2 DUP2 PUSH1 0x5 DUP2 GT ISZERO PUSH2 0x26C2 JUMPI PUSH0 PUSH2 0x267F DUP5 PUSH2 0x2DDF JUMP JUMPDEST PUSH2 0x2689 SWAP1 DUP6 PUSH2 0x3F93 JUMP JUMPDEST PUSH0 DUP9 DUP2 MSTORE PUSH1 0x20 SWAP1 KECCAK256 SWAP1 SWAP2 POP DUP2 ADD SLOAD PUSH6 0xFFFFFFFFFFFF SWAP1 DUP2 AND SWAP1 DUP8 AND LT ISZERO PUSH2 0x26B2 JUMPI DUP1 SWAP2 POP PUSH2 0x26C0 JUMP JUMPDEST PUSH2 0x26BD DUP2 PUSH1 0x1 PUSH2 0x3E94 JUMP JUMPDEST SWAP3 POP JUMPDEST POP JUMPDEST PUSH0 PUSH2 0x26CF DUP8 DUP8 DUP6 DUP6 PUSH2 0x2F37 JUMP JUMPDEST SWAP1 POP DUP1 ISZERO PUSH2 0x26FC JUMPI PUSH2 0x26E6 DUP8 PUSH2 0x1E3F PUSH1 0x1 DUP5 PUSH2 0x3F93 JUMP JUMPDEST SLOAD PUSH1 0x1 PUSH1 0x30 SHL SWAP1 DIV PUSH1 0x1 PUSH1 0x1 PUSH1 0xD0 SHL SUB AND PUSH2 0xD7A JUMP JUMPDEST POP PUSH0 SWAP7 SWAP6 POP POP POP POP POP POP JUMP JUMPDEST PUSH0 DUP1 DUP5 MLOAD DUP4 GT DUP1 PUSH2 0x2718 JUMPI POP DUP3 DUP5 GT JUMPDEST ISZERO PUSH2 0x2727 JUMPI POP PUSH0 SWAP1 POP DUP1 PUSH2 0x2042 JUMP JUMPDEST PUSH0 PUSH2 0x2733 DUP6 PUSH1 0x1 PUSH2 0x3E94 JUMP JUMPDEST DUP5 GT DUP1 ISZERO PUSH2 0x275B JUMPI POP PUSH2 0x60F PUSH1 0xF3 SHL PUSH2 0x274F DUP8 DUP8 ADD PUSH1 0x20 ADD MLOAD SWAP1 JUMP JUMPDEST PUSH1 0x1 PUSH1 0x1 PUSH1 0xF0 SHL SUB NOT AND EQ JUMPDEST SWAP1 POP PUSH0 PUSH2 0x276B DUP3 ISZERO ISZERO PUSH1 0x2 PUSH2 0x404A JUMP JUMPDEST PUSH2 0x2776 SWAP1 PUSH1 0x28 PUSH2 0x3E94 JUMP JUMPDEST SWAP1 POP DUP1 PUSH2 0x2783 DUP8 DUP8 PUSH2 0x3F93 JUMP JUMPDEST SUB PUSH2 0x27A4 JUMPI PUSH0 DUP1 PUSH2 0x2795 DUP10 DUP10 DUP10 PUSH2 0x2F96 JUMP JUMPDEST SWAP1 SWAP7 POP SWAP5 POP PUSH2 0x2042 SWAP4 POP POP POP POP JUMP JUMPDEST PUSH0 DUP1 SWAP4 POP SWAP4 POP POP POP PUSH2 0x2042 JUMP JUMPDEST PUSH0 PUSH4 0xFFFFFFFF DUP3 GT ISZERO PUSH2 0x202C JUMPI PUSH1 0x40 MLOAD PUSH4 0x6DFCC65 PUSH1 0xE4 SHL DUP2 MSTORE PUSH1 0x20 PUSH1 0x4 DUP3 ADD MSTORE PUSH1 0x24 DUP2 ADD DUP4 SWAP1 MSTORE PUSH1 0x44 ADD PUSH2 0xD65 JUMP JUMPDEST PUSH1 0x60 PUSH1 0xFF DUP4 EQ PUSH2 0x27FB JUMPI PUSH2 0x27F4 DUP4 PUSH2 0x3057 JUMP JUMPDEST SWAP1 POP PUSH2 0x9D5 JUMP JUMPDEST DUP2 DUP1 SLOAD PUSH2 0x2807 SWAP1 PUSH2 0x3BD8 JUMP JUMPDEST DUP1 PUSH1 0x1F ADD PUSH1 0x20 DUP1 SWAP2 DIV MUL PUSH1 0x20 ADD PUSH1 0x40 MLOAD SWAP1 DUP2 ADD PUSH1 0x40 MSTORE DUP1 SWAP3 SWAP2 SWAP1 DUP2 DUP2 MSTORE PUSH1 0x20 ADD DUP3 DUP1 SLOAD PUSH2 0x2833 SWAP1 PUSH2 0x3BD8 JUMP JUMPDEST DUP1 ISZERO PUSH2 0x287E JUMPI DUP1 PUSH1 0x1F LT PUSH2 0x2855 JUMPI PUSH2 0x100 DUP1 DUP4 SLOAD DIV MUL DUP4 MSTORE SWAP2 PUSH1 0x20 ADD SWAP2 PUSH2 0x287E JUMP JUMPDEST DUP3 ADD SWAP2 SWAP1 PUSH0 MSTORE PUSH1 0x20 PUSH0 KECCAK256 SWAP1 JUMPDEST DUP2 SLOAD DUP2 MSTORE SWAP1 PUSH1 0x1 ADD SWAP1 PUSH1 0x20 ADD DUP1 DUP4 GT PUSH2 0x2861 JUMPI DUP3 SWAP1 SUB PUSH1 0x1F AND DUP3 ADD SWAP2 JUMPDEST POP POP POP POP POP SWAP1 POP PUSH2 0x9D5 JUMP JUMPDEST DUP1 MLOAD ISZERO PUSH2 0x2899 JUMPI DUP1 MLOAD PUSH1 0x20 DUP3 ADD REVERT JUMPDEST PUSH1 0x40 MLOAD PUSH4 0xD6BDA275 PUSH1 0xE0 SHL DUP2 MSTORE PUSH1 0x4 ADD PUSH1 0x40 MLOAD DUP1 SWAP2 SUB SWAP1 REVERT JUMPDEST PUSH0 DUP1 PUSH0 PUSH2 0x28BF DUP7 DUP7 PUSH2 0x3094 JUMP JUMPDEST SWAP2 POP SWAP2 POP DUP2 PUSH0 SUB PUSH2 0x28E3 JUMPI DUP4 DUP2 DUP2 PUSH2 0x28D9 JUMPI PUSH2 0x28D9 PUSH2 0x4061 JUMP JUMPDEST DIV SWAP3 POP POP POP PUSH2 0x11EE JUMP JUMPDEST DUP2 DUP5 GT PUSH2 0x28FA JUMPI PUSH2 0x28FA PUSH1 0x3 DUP6 ISZERO MUL PUSH1 0x11 XOR PUSH2 0x21DB JUMP JUMPDEST PUSH0 DUP5 DUP7 DUP9 MULMOD PUSH0 DUP7 DUP2 SUB DUP8 AND SWAP7 DUP8 SWAP1 DIV SWAP7 PUSH1 0x2 PUSH1 0x3 DUP10 MUL DUP2 XOR DUP1 DUP11 MUL DUP3 SUB MUL DUP1 DUP11 MUL DUP3 SUB MUL DUP1 DUP11 MUL DUP3 SUB MUL DUP1 DUP11 MUL DUP3 SUB MUL DUP1 DUP11 MUL DUP3 SUB MUL DUP1 DUP11 MUL SWAP1 SWAP2 SUB MUL SWAP2 DUP2 SWAP1 SUB DUP2 SWAP1 DIV PUSH1 0x1 ADD DUP6 DUP5 GT SWAP1 SWAP7 SUB SWAP6 SWAP1 SWAP6 MUL SWAP2 SWAP1 SWAP4 SUB SWAP4 SWAP1 SWAP4 DIV SWAP3 SWAP1 SWAP3 OR MUL SWAP2 POP POP SWAP4 SWAP3 POP POP POP JUMP JUMPDEST DUP3 SLOAD PUSH0 SWAP1 DUP2 SWAP1 DUP1 ISZERO PUSH2 0x2A58 JUMPI PUSH0 PUSH2 0x297E DUP8 PUSH2 0x1E3F PUSH1 0x1 DUP6 PUSH2 0x3F93 JUMP JUMPDEST DUP1 SLOAD SWAP1 SWAP2 POP PUSH6 0xFFFFFFFFFFFF DUP1 DUP3 AND SWAP2 PUSH1 0x1 PUSH1 0x30 SHL SWAP1 DIV PUSH1 0x1 PUSH1 0x1 PUSH1 0xD0 SHL SUB AND SWAP1 DUP9 AND DUP3 GT ISZERO PUSH2 0x29C1 JUMPI PUSH1 0x40 MLOAD PUSH4 0x2520601D PUSH1 0xE0 SHL DUP2 MSTORE PUSH1 0x4 ADD PUSH1 0x40 MLOAD DUP1 SWAP2 SUB SWAP1 REVERT JUMPDEST DUP8 PUSH6 0xFFFFFFFFFFFF AND DUP3 PUSH6 0xFFFFFFFFFFFF AND SUB PUSH2 0x29FA JUMPI DUP3 SLOAD PUSH6 0xFFFFFFFFFFFF AND PUSH1 0x1 PUSH1 0x30 SHL PUSH1 0x1 PUSH1 0x1 PUSH1 0xD0 SHL SUB DUP10 AND MUL OR DUP4 SSTORE PUSH2 0x2A4A JUMP JUMPDEST PUSH1 0x40 DUP1 MLOAD DUP1 DUP3 ADD SWAP1 SWAP2 MSTORE PUSH6 0xFFFFFFFFFFFF DUP1 DUP11 AND DUP3 MSTORE PUSH1 0x1 PUSH1 0x1 PUSH1 0xD0 SHL SUB DUP1 DUP11 AND PUSH1 0x20 DUP1 DUP6 ADD SWAP2 DUP3 MSTORE DUP14 SLOAD PUSH1 0x1 DUP2 ADD DUP16 SSTORE PUSH0 DUP16 DUP2 MSTORE SWAP2 SWAP1 SWAP2 KECCAK256 SWAP5 MLOAD SWAP2 MLOAD SWAP1 SWAP3 AND PUSH1 0x1 PUSH1 0x30 SHL MUL SWAP3 AND SWAP2 SWAP1 SWAP2 OR SWAP2 ADD SSTORE JUMPDEST SWAP5 POP DUP6 SWAP4 POP PUSH2 0x2042 SWAP3 POP POP POP JUMP JUMPDEST POP POP PUSH1 0x40 DUP1 MLOAD DUP1 DUP3 ADD SWAP1 SWAP2 MSTORE PUSH6 0xFFFFFFFFFFFF DUP1 DUP6 AND DUP3 MSTORE PUSH1 0x1 PUSH1 0x1 PUSH1 0xD0 SHL SUB DUP1 DUP6 AND PUSH1 0x20 DUP1 DUP6 ADD SWAP2 DUP3 MSTORE DUP9 SLOAD PUSH1 0x1 DUP2 ADD DUP11 SSTORE PUSH0 DUP11 DUP2 MSTORE SWAP2 DUP3 KECCAK256 SWAP6 MLOAD SWAP3 MLOAD SWAP1 SWAP4 AND PUSH1 0x1 PUSH1 0x30 SHL MUL SWAP2 SWAP1 SWAP4 AND OR SWAP3 ADD SWAP2 SWAP1 SWAP2 SSTORE SWAP1 POP DUP2 PUSH2 0x2042 JUMP JUMPDEST PUSH0 DUP2 DUP2 MSTORE PUSH1 0x7 PUSH1 0x20 MSTORE PUSH1 0x40 DUP2 KECCAK256 PUSH1 0x2 DUP2 ADD SLOAD PUSH1 0x1 DUP3 ADD SLOAD PUSH2 0x2AD3 SWAP2 SWAP1 PUSH2 0x3E94 JUMP JUMPDEST PUSH2 0x2ADF PUSH2 0x97C DUP6 PUSH2 0xCF5 JUMP JUMPDEST GT ISZERO SWAP4 SWAP3 POP POP POP JUMP JUMPDEST PUSH0 DUP1 PUSH2 0x2AF6 DUP7 DUP7 DUP7 DUP7 PUSH2 0x121F JUMP JUMPDEST SWAP1 POP PUSH2 0x2B44 DUP2 PUSH2 0x2B06 PUSH1 0x7 PUSH2 0x1552 JUMP JUMPDEST PUSH2 0x2B10 PUSH1 0x6 PUSH2 0x1552 JUMP JUMPDEST PUSH2 0x2B1A PUSH1 0x2 PUSH2 0x1552 JUMP JUMPDEST PUSH1 0x1 PUSH2 0x2B27 PUSH1 0x7 DUP3 PUSH2 0x4075 JUMP JUMPDEST PUSH2 0x2B32 SWAP1 PUSH1 0x2 PUSH2 0x416E JUMP JUMPDEST PUSH2 0x2B3C SWAP2 SWAP1 PUSH2 0x3F93 JUMP JUMPDEST XOR XOR XOR PUSH2 0x1574 JUMP JUMPDEST POP PUSH0 DUP2 DUP2 MSTORE PUSH1 0x4 PUSH1 0x20 MSTORE PUSH1 0x40 SWAP1 DUP2 SWAP1 KECCAK256 DUP1 SLOAD PUSH1 0x1 PUSH1 0x1 PUSH1 0xF8 SHL SUB AND PUSH1 0x1 PUSH1 0xF8 SHL OR SWAP1 SSTORE MLOAD PUSH32 0x789CF55BE980739DAD1D0699B93B58E806B51C9D96619BFA8FE0A28ABAA7B30C SWAP1 PUSH2 0xCE4 SWAP1 DUP4 DUP2 MSTORE PUSH1 0x20 ADD SWAP1 JUMP JUMPDEST PUSH0 ADDRESS PUSH1 0x1 PUSH1 0x1 PUSH1 0xA0 SHL SUB PUSH32 0x0 AND EQ DUP1 ISZERO PUSH2 0x2BEF JUMPI POP PUSH32 0x0 CHAINID EQ JUMPDEST ISZERO PUSH2 0x2C19 JUMPI POP PUSH32 0x0 SWAP1 JUMP JUMPDEST PUSH2 0x9C6 PUSH1 0x40 DUP1 MLOAD PUSH32 0x8B73C3C69BB8FE3D512ECC4CF759CC79239F7B179B0FFACAA9A75D522B39400F PUSH1 0x20 DUP3 ADD MSTORE PUSH32 0x0 SWAP2 DUP2 ADD SWAP2 SWAP1 SWAP2 MSTORE PUSH32 0x0 PUSH1 0x60 DUP3 ADD MSTORE CHAINID PUSH1 0x80 DUP3 ADD MSTORE ADDRESS PUSH1 0xA0 DUP3 ADD MSTORE PUSH0 SWAP1 PUSH1 0xC0 ADD PUSH1 0x40 MLOAD PUSH1 0x20 DUP2 DUP4 SUB SUB DUP2 MSTORE SWAP1 PUSH1 0x40 MSTORE DUP1 MLOAD SWAP1 PUSH1 0x20 ADD KECCAK256 SWAP1 POP SWAP1 JUMP JUMPDEST PUSH0 DUP1 PUSH0 DUP4 MLOAD PUSH1 0x41 SUB PUSH2 0x2CF7 JUMPI PUSH1 0x20 DUP5 ADD MLOAD PUSH1 0x40 DUP6 ADD MLOAD PUSH1 0x60 DUP7 ADD MLOAD PUSH0 BYTE PUSH2 0x2CE9 DUP9 DUP3 DUP6 DUP6 PUSH2 0x30B0 JUMP JUMPDEST SWAP6 POP SWAP6 POP SWAP6 POP POP POP POP PUSH2 0x2D02 JUMP JUMPDEST POP POP DUP2 MLOAD PUSH0 SWAP2 POP PUSH1 0x2 SWAP1 JUMPDEST SWAP3 POP SWAP3 POP SWAP3 JUMP JUMPDEST PUSH0 DUP1 PUSH0 DUP6 PUSH1 0x1 PUSH1 0x1 PUSH1 0xA0 SHL SUB AND DUP6 DUP6 PUSH1 0x40 MLOAD PUSH1 0x24 ADD PUSH2 0x2D29 SWAP3 SWAP2 SWAP1 PUSH2 0x417C JUMP JUMPDEST PUSH1 0x40 DUP1 MLOAD PUSH1 0x1F NOT DUP2 DUP5 SUB ADD DUP2 MSTORE SWAP2 DUP2 MSTORE PUSH1 0x20 DUP3 ADD DUP1 MLOAD PUSH1 0x1 PUSH1 0x1 PUSH1 0xE0 SHL SUB AND PUSH4 0xB135D3F PUSH1 0xE1 SHL OR SWAP1 MSTORE MLOAD PUSH2 0x2D5E SWAP2 SWAP1 PUSH2 0x4194 JUMP JUMPDEST PUSH0 PUSH1 0x40 MLOAD DUP1 DUP4 SUB DUP2 DUP6 GAS STATICCALL SWAP2 POP POP RETURNDATASIZE DUP1 PUSH0 DUP2 EQ PUSH2 0x2D96 JUMPI PUSH1 0x40 MLOAD SWAP2 POP PUSH1 0x1F NOT PUSH1 0x3F RETURNDATASIZE ADD AND DUP3 ADD PUSH1 0x40 MSTORE RETURNDATASIZE DUP3 MSTORE RETURNDATASIZE PUSH0 PUSH1 0x20 DUP5 ADD RETURNDATACOPY PUSH2 0x2D9B JUMP JUMPDEST PUSH1 0x60 SWAP2 POP JUMPDEST POP SWAP2 POP SWAP2 POP DUP2 DUP1 ISZERO PUSH2 0x2DAF JUMPI POP PUSH1 0x20 DUP2 MLOAD LT ISZERO JUMPDEST DUP1 ISZERO PUSH2 0xFE8 JUMPI POP DUP1 MLOAD PUSH4 0xB135D3F PUSH1 0xE1 SHL SWAP1 PUSH2 0x2DD4 SWAP1 DUP4 ADD PUSH1 0x20 SWAP1 DUP2 ADD SWAP1 DUP5 ADD PUSH2 0x3F7C JUMP JUMPDEST EQ SWAP7 SWAP6 POP POP POP POP POP POP JUMP JUMPDEST PUSH0 PUSH1 0x1 DUP3 GT PUSH2 0x2DEC JUMPI POP SWAP1 JUMP JUMPDEST DUP2 PUSH1 0x1 PUSH1 0x1 PUSH1 0x80 SHL DUP3 LT PUSH2 0x2E05 JUMPI PUSH1 0x80 SWAP2 SWAP1 SWAP2 SHR SWAP1 PUSH1 0x40 SHL JUMPDEST PUSH9 0x10000000000000000 DUP3 LT PUSH2 0x2E20 JUMPI PUSH1 0x40 SWAP2 SWAP1 SWAP2 SHR SWAP1 PUSH1 0x20 SHL JUMPDEST PUSH5 0x100000000 DUP3 LT PUSH2 0x2E37 JUMPI PUSH1 0x20 SWAP2 SWAP1 SWAP2 SHR SWAP1 PUSH1 0x10 SHL JUMPDEST PUSH3 0x10000 DUP3 LT PUSH2 0x2E4C JUMPI PUSH1 0x10 SWAP2 SWAP1 SWAP2 SHR SWAP1 PUSH1 0x8 SHL JUMPDEST PUSH2 0x100 DUP3 LT PUSH2 0x2E60 JUMPI PUSH1 0x8 SWAP2 SWAP1 SWAP2 SHR SWAP1 PUSH1 0x4 SHL JUMPDEST PUSH1 0x10 DUP3 LT PUSH2 0x2E73 JUMPI PUSH1 0x4 SWAP2 SWAP1 SWAP2 SHR SWAP1 PUSH1 0x2 SHL JUMPDEST PUSH1 0x4 DUP3 LT PUSH2 0x2E7F JUMPI PUSH1 0x1 SHL JUMPDEST PUSH1 0x3 MUL PUSH1 0x1 SWAP1 DUP2 SHR SWAP1 DUP2 DUP6 DUP2 PUSH2 0x2E97 JUMPI PUSH2 0x2E97 PUSH2 0x4061 JUMP JUMPDEST DIV DUP3 ADD SWAP1 SHR SWAP1 POP PUSH1 0x1 DUP2 DUP6 DUP2 PUSH2 0x2EAF JUMPI PUSH2 0x2EAF PUSH2 0x4061 JUMP JUMPDEST DIV DUP3 ADD SWAP1 SHR SWAP1 POP PUSH1 0x1 DUP2 DUP6 DUP2 PUSH2 0x2EC7 JUMPI PUSH2 0x2EC7 PUSH2 0x4061 JUMP JUMPDEST DIV DUP3 ADD SWAP1 SHR SWAP1 POP PUSH1 0x1 DUP2 DUP6 DUP2 PUSH2 0x2EDF JUMPI PUSH2 0x2EDF PUSH2 0x4061 JUMP JUMPDEST DIV DUP3 ADD SWAP1 SHR SWAP1 POP PUSH1 0x1 DUP2 DUP6 DUP2 PUSH2 0x2EF7 JUMPI PUSH2 0x2EF7 PUSH2 0x4061 JUMP JUMPDEST DIV DUP3 ADD SWAP1 SHR SWAP1 POP PUSH1 0x1 DUP2 DUP6 DUP2 PUSH2 0x2F0F JUMPI PUSH2 0x2F0F PUSH2 0x4061 JUMP JUMPDEST DIV DUP3 ADD SWAP1 SHR SWAP1 POP PUSH2 0x2F2E DUP2 DUP6 DUP2 PUSH2 0x2F28 JUMPI PUSH2 0x2F28 PUSH2 0x4061 JUMP JUMPDEST DIV DUP3 GT SWAP1 JUMP JUMPDEST SWAP1 SUB SWAP4 SWAP3 POP POP POP JUMP JUMPDEST PUSH0 JUMPDEST DUP2 DUP4 LT ISZERO PUSH2 0x2F8E JUMPI PUSH0 PUSH2 0x2F4C DUP5 DUP5 PUSH2 0x3178 JUMP JUMPDEST PUSH0 DUP8 DUP2 MSTORE PUSH1 0x20 SWAP1 KECCAK256 SWAP1 SWAP2 POP PUSH6 0xFFFFFFFFFFFF DUP7 AND SWAP1 DUP3 ADD SLOAD PUSH6 0xFFFFFFFFFFFF AND GT ISZERO PUSH2 0x2F7A JUMPI DUP1 SWAP3 POP PUSH2 0x2F88 JUMP JUMPDEST PUSH2 0x2F85 DUP2 PUSH1 0x1 PUSH2 0x3E94 JUMP JUMPDEST SWAP4 POP JUMPDEST POP PUSH2 0x2F39 JUMP JUMPDEST POP SWAP4 SWAP3 POP POP POP JUMP JUMPDEST PUSH0 DUP1 DUP5 DUP2 PUSH2 0x2FA5 DUP7 PUSH1 0x1 PUSH2 0x3E94 JUMP JUMPDEST DUP6 GT DUP1 ISZERO PUSH2 0x2FCD JUMPI POP PUSH2 0x60F PUSH1 0xF3 SHL PUSH2 0x2FC1 DUP4 DUP9 ADD PUSH1 0x20 ADD MLOAD SWAP1 JUMP JUMPDEST PUSH1 0x1 PUSH1 0x1 PUSH1 0xF0 SHL SUB NOT AND EQ JUMPDEST SWAP1 POP PUSH0 PUSH2 0x2FDD DUP3 ISZERO ISZERO PUSH1 0x2 PUSH2 0x404A JUMP JUMPDEST SWAP1 POP PUSH0 DUP1 PUSH2 0x2FEB DUP4 DUP11 PUSH2 0x3E94 JUMP JUMPDEST SWAP1 POP JUMPDEST DUP8 DUP2 LT ISZERO PUSH2 0x3046 JUMPI PUSH0 PUSH2 0x300C PUSH2 0x3007 DUP8 DUP5 ADD PUSH1 0x20 ADD MLOAD SWAP1 JUMP JUMPDEST PUSH2 0x3192 JUMP JUMPDEST SWAP1 POP PUSH1 0xF DUP2 PUSH1 0xFF AND GT ISZERO PUSH2 0x302B JUMPI PUSH0 DUP1 SWAP8 POP SWAP8 POP POP POP POP POP POP POP PUSH2 0x2042 JUMP JUMPDEST PUSH2 0x3036 PUSH1 0x10 DUP5 PUSH2 0x404A JUMP JUMPDEST PUSH1 0xFF SWAP1 SWAP2 AND ADD SWAP2 POP PUSH1 0x1 ADD PUSH2 0x2FEE JUMP JUMPDEST POP PUSH1 0x1 SWAP10 SWAP1 SWAP9 POP SWAP7 POP POP POP POP POP POP POP JUMP JUMPDEST PUSH1 0x60 PUSH0 PUSH2 0x3063 DUP4 PUSH2 0x320A JUMP JUMPDEST PUSH1 0x40 DUP1 MLOAD PUSH1 0x20 DUP1 DUP3 MSTORE DUP2 DUP4 ADD SWAP1 SWAP3 MSTORE SWAP2 SWAP3 POP PUSH0 SWAP2 SWAP1 PUSH1 0x20 DUP3 ADD DUP2 DUP1 CALLDATASIZE DUP4 CALLDATACOPY POP POP POP SWAP2 DUP3 MSTORE POP PUSH1 0x20 DUP2 ADD SWAP3 SWAP1 SWAP3 MSTORE POP SWAP1 JUMP JUMPDEST PUSH0 DUP1 PUSH0 NOT DUP4 DUP6 MULMOD SWAP4 SWAP1 SWAP3 MUL DUP1 DUP5 LT SWAP4 DUP2 SWAP1 SUB SWAP4 SWAP1 SWAP4 SUB SWAP4 SWAP2 POP POP JUMP JUMPDEST PUSH0 DUP1 DUP1 PUSH32 0x7FFFFFFFFFFFFFFFFFFFFFFFFFFFFFFF5D576E7357A4501DDFE92F46681B20A0 DUP5 GT ISZERO PUSH2 0x30E9 JUMPI POP PUSH0 SWAP2 POP PUSH1 0x3 SWAP1 POP DUP3 PUSH2 0x316E JUMP JUMPDEST PUSH1 0x40 DUP1 MLOAD PUSH0 DUP1 DUP3 MSTORE PUSH1 0x20 DUP3 ADD DUP1 DUP5 MSTORE DUP11 SWAP1 MSTORE PUSH1 0xFF DUP10 AND SWAP3 DUP3 ADD SWAP3 SWAP1 SWAP3 MSTORE PUSH1 0x60 DUP2 ADD DUP8 SWAP1 MSTORE PUSH1 0x80 DUP2 ADD DUP7 SWAP1 MSTORE PUSH1 0x1 SWAP1 PUSH1 0xA0 ADD PUSH1 0x20 PUSH1 0x40 MLOAD PUSH1 0x20 DUP2 SUB SWAP1 DUP1 DUP5 SUB SWAP1 DUP6 GAS STATICCALL ISZERO DUP1 ISZERO PUSH2 0x313A JUMPI RETURNDATASIZE PUSH0 DUP1 RETURNDATACOPY RETURNDATASIZE PUSH0 REVERT JUMPDEST POP POP PUSH1 0x40 MLOAD PUSH1 0x1F NOT ADD MLOAD SWAP2 POP POP PUSH1 0x1 PUSH1 0x1 PUSH1 0xA0 SHL SUB DUP2 AND PUSH2 0x3165 JUMPI POP PUSH0 SWAP3 POP PUSH1 0x1 SWAP2 POP DUP3 SWAP1 POP PUSH2 0x316E JUMP JUMPDEST SWAP3 POP PUSH0 SWAP2 POP DUP2 SWAP1 POP JUMPDEST SWAP5 POP SWAP5 POP SWAP5 SWAP2 POP POP JUMP JUMPDEST PUSH0 PUSH2 0x3186 PUSH1 0x2 DUP5 DUP5 XOR PUSH2 0x41AF JUMP JUMPDEST PUSH2 0x11EE SWAP1 DUP5 DUP5 AND PUSH2 0x3E94 JUMP JUMPDEST PUSH0 PUSH1 0xF8 DUP3 SWAP1 SHR PUSH1 0x2F DUP2 GT DUP1 ISZERO PUSH2 0x31AB JUMPI POP PUSH1 0x3A DUP2 PUSH1 0xFF AND LT JUMPDEST ISZERO PUSH2 0x31B9 JUMPI PUSH1 0x2F NOT ADD PUSH2 0x9D5 JUMP JUMPDEST PUSH1 0x60 DUP2 PUSH1 0xFF AND GT DUP1 ISZERO PUSH2 0x31CF JUMPI POP PUSH1 0x67 DUP2 PUSH1 0xFF AND LT JUMPDEST ISZERO PUSH2 0x31DD JUMPI PUSH1 0x56 NOT ADD PUSH2 0x9D5 JUMP JUMPDEST PUSH1 0x40 DUP2 PUSH1 0xFF AND GT DUP1 ISZERO PUSH2 0x31F3 JUMPI POP PUSH1 0x47 DUP2 PUSH1 0xFF AND LT JUMPDEST ISZERO PUSH2 0x3201 JUMPI PUSH1 0x36 NOT ADD PUSH2 0x9D5 JUMP JUMPDEST POP PUSH1 0xFF SWAP3 SWAP2 POP POP JUMP JUMPDEST PUSH0 PUSH1 0xFF DUP3 AND PUSH1 0x1F DUP2 GT ISZERO PUSH2 0x9D5 JUMPI PUSH1 0x40 MLOAD PUSH4 0x2CD44AC3 PUSH1 0xE2 SHL DUP2 MSTORE PUSH1 0x4 ADD PUSH1 0x40 MLOAD DUP1 SWAP2 SUB SWAP1 REVERT JUMPDEST PUSH0 PUSH1 0x20 DUP3 DUP5 SUB SLT ISZERO PUSH2 0x3241 JUMPI PUSH0 DUP1 REVERT JUMPDEST DUP2 CALLDATALOAD PUSH1 0x1 PUSH1 0x1 PUSH1 0xE0 SHL SUB NOT DUP2 AND DUP2 EQ PUSH2 0x11EE JUMPI PUSH0 DUP1 REVERT JUMPDEST PUSH0 PUSH1 0x20 DUP3 DUP5 SUB SLT ISZERO PUSH2 0x3268 JUMPI PUSH0 DUP1 REVERT JUMPDEST POP CALLDATALOAD SWAP2 SWAP1 POP JUMP JUMPDEST PUSH0 JUMPDEST DUP4 DUP2 LT ISZERO PUSH2 0x3289 JUMPI DUP2 DUP2 ADD MLOAD DUP4 DUP3 ADD MSTORE PUSH1 0x20 ADD PUSH2 0x3271 JUMP JUMPDEST POP POP PUSH0 SWAP2 ADD MSTORE JUMP JUMPDEST PUSH0 DUP2 MLOAD DUP1 DUP5 MSTORE PUSH2 0x32A8 DUP2 PUSH1 0x20 DUP7 ADD PUSH1 0x20 DUP7 ADD PUSH2 0x326F JUMP JUMPDEST PUSH1 0x1F ADD PUSH1 0x1F NOT AND SWAP3 SWAP1 SWAP3 ADD PUSH1 0x20 ADD SWAP3 SWAP2 POP POP JUMP JUMPDEST PUSH1 0x20 DUP2 MSTORE PUSH0 PUSH2 0x11EE PUSH1 0x20 DUP4 ADD DUP5 PUSH2 0x3291 JUMP JUMPDEST PUSH1 0x1 PUSH1 0x1 PUSH1 0xA0 SHL SUB DUP2 AND DUP2 EQ PUSH2 0x9EC JUMPI PUSH0 DUP1 REVERT JUMPDEST PUSH4 0x4E487B71 PUSH1 0xE0 SHL PUSH0 MSTORE PUSH1 0x41 PUSH1 0x4 MSTORE PUSH1 0x24 PUSH0 REVERT JUMPDEST PUSH1 0x40 MLOAD PUSH1 0x1F DUP3 ADD PUSH1 0x1F NOT AND DUP2 ADD PUSH1 0x1 PUSH1 0x1 PUSH1 0x40 SHL SUB DUP2 GT DUP3 DUP3 LT OR ISZERO PUSH2 0x331E JUMPI PUSH2 0x331E PUSH2 0x32E2 JUMP JUMPDEST PUSH1 0x40 MSTORE SWAP2 SWAP1 POP JUMP JUMPDEST PUSH0 PUSH1 0x1 PUSH1 0x1 PUSH1 0x40 SHL SUB DUP3 GT ISZERO PUSH2 0x333E JUMPI PUSH2 0x333E PUSH2 0x32E2 JUMP JUMPDEST POP PUSH1 0x1F ADD PUSH1 0x1F NOT AND PUSH1 0x20 ADD SWAP1 JUMP JUMPDEST PUSH0 PUSH2 0x335E PUSH2 0x3359 DUP5 PUSH2 0x3326 JUMP JUMPDEST PUSH2 0x32F6 JUMP JUMPDEST SWAP1 POP DUP3 DUP2 MSTORE DUP4 DUP4 DUP4 ADD GT ISZERO PUSH2 0x3371 JUMPI PUSH0 DUP1 REVERT JUMPDEST DUP3 DUP3 PUSH1 0x20 DUP4 ADD CALLDATACOPY PUSH0 PUSH1 0x20 DUP5 DUP4 ADD ADD MSTORE SWAP4 SWAP3 POP POP POP JUMP JUMPDEST PUSH0 DUP3 PUSH1 0x1F DUP4 ADD SLT PUSH2 0x3396 JUMPI PUSH0 DUP1 REVERT JUMPDEST PUSH2 0x11EE DUP4 DUP4 CALLDATALOAD PUSH1 0x20 DUP6 ADD PUSH2 0x334C JUMP JUMPDEST PUSH0 DUP1 PUSH0 DUP1 PUSH1 0x80 DUP6 DUP8 SUB SLT ISZERO PUSH2 0x33B8 JUMPI PUSH0 DUP1 REVERT JUMPDEST DUP5 CALLDATALOAD PUSH2 0x33C3 DUP2 PUSH2 0x32CE JUMP JUMPDEST SWAP4 POP PUSH1 0x20 DUP6 ADD CALLDATALOAD PUSH2 0x33D3 DUP2 PUSH2 0x32CE JUMP JUMPDEST SWAP3 POP PUSH1 0x40 DUP6 ADD CALLDATALOAD SWAP2 POP PUSH1 0x60 DUP6 ADD CALLDATALOAD PUSH1 0x1 PUSH1 0x1 PUSH1 0x40 SHL SUB DUP2 GT ISZERO PUSH2 0x33F4 JUMPI PUSH0 DUP1 REVERT JUMPDEST PUSH2 0x3400 DUP8 DUP3 DUP9 ADD PUSH2 0x3387 JUMP JUMPDEST SWAP2 POP POP SWAP3 SWAP6 SWAP2 SWAP5 POP SWAP3 POP JUMP JUMPDEST PUSH0 PUSH1 0x1 PUSH1 0x1 PUSH1 0x40 SHL SUB DUP3 GT ISZERO PUSH2 0x3424 JUMPI PUSH2 0x3424 PUSH2 0x32E2 JUMP JUMPDEST POP PUSH1 0x5 SHL PUSH1 0x20 ADD SWAP1 JUMP JUMPDEST PUSH0 DUP3 PUSH1 0x1F DUP4 ADD SLT PUSH2 0x343D JUMPI PUSH0 DUP1 REVERT JUMPDEST DUP2 CALLDATALOAD PUSH1 0x20 PUSH2 0x344D PUSH2 0x3359 DUP4 PUSH2 0x340C JUMP JUMPDEST DUP1 DUP4 DUP3 MSTORE PUSH1 0x20 DUP3 ADD SWAP2 POP PUSH1 0x20 DUP5 PUSH1 0x5 SHL DUP8 ADD ADD SWAP4 POP DUP7 DUP5 GT ISZERO PUSH2 0x346E JUMPI PUSH0 DUP1 REVERT JUMPDEST PUSH1 0x20 DUP7 ADD JUMPDEST DUP5 DUP2 LT ISZERO PUSH2 0x3493 JUMPI DUP1 CALLDATALOAD PUSH2 0x3486 DUP2 PUSH2 0x32CE JUMP JUMPDEST DUP4 MSTORE SWAP2 DUP4 ADD SWAP2 DUP4 ADD PUSH2 0x3473 JUMP JUMPDEST POP SWAP7 SWAP6 POP POP POP POP POP POP JUMP JUMPDEST PUSH0 DUP3 PUSH1 0x1F DUP4 ADD SLT PUSH2 0x34AD JUMPI PUSH0 DUP1 REVERT JUMPDEST DUP2 CALLDATALOAD PUSH1 0x20 PUSH2 0x34BD PUSH2 0x3359 DUP4 PUSH2 0x340C JUMP JUMPDEST DUP1 DUP4 DUP3 MSTORE PUSH1 0x20 DUP3 ADD SWAP2 POP PUSH1 0x20 DUP5 PUSH1 0x5 SHL DUP8 ADD ADD SWAP4 POP DUP7 DUP5 GT ISZERO PUSH2 0x34DE JUMPI PUSH0 DUP1 REVERT JUMPDEST PUSH1 0x20 DUP7 ADD JUMPDEST DUP5 DUP2 LT ISZERO PUSH2 0x3493 JUMPI DUP1 CALLDATALOAD DUP4 MSTORE SWAP2 DUP4 ADD SWAP2 DUP4 ADD PUSH2 0x34E3 JUMP JUMPDEST PUSH0 DUP3 PUSH1 0x1F DUP4 ADD SLT PUSH2 0x3509 JUMPI PUSH0 DUP1 REVERT JUMPDEST DUP2 CALLDATALOAD PUSH1 0x20 PUSH2 0x3519 PUSH2 0x3359 DUP4 PUSH2 0x340C JUMP JUMPDEST DUP3 DUP2 MSTORE PUSH1 0x5 SWAP3 SWAP1 SWAP3 SHL DUP5 ADD DUP2 ADD SWAP2 DUP2 DUP2 ADD SWAP1 DUP7 DUP5 GT ISZERO PUSH2 0x3537 JUMPI PUSH0 DUP1 REVERT JUMPDEST DUP3 DUP7 ADD JUMPDEST DUP5 DUP2 LT ISZERO PUSH2 0x3493 JUMPI DUP1 CALLDATALOAD PUSH1 0x1 PUSH1 0x1 PUSH1 0x40 SHL SUB DUP2 GT ISZERO PUSH2 0x3558 JUMPI PUSH0 DUP1 REVERT JUMPDEST PUSH2 0x3566 DUP10 DUP7 DUP4 DUP12 ADD ADD PUSH2 0x3387 JUMP JUMPDEST DUP5 MSTORE POP SWAP2 DUP4 ADD SWAP2 DUP4 ADD PUSH2 0x353B JUMP JUMPDEST PUSH0 DUP1 PUSH0 DUP1 PUSH1 0x80 DUP6 DUP8 SUB SLT ISZERO PUSH2 0x3587 JUMPI PUSH0 DUP1 REVERT JUMPDEST DUP5 CALLDATALOAD PUSH1 0x1 PUSH1 0x1 PUSH1 0x40 SHL SUB DUP1 DUP3 GT ISZERO PUSH2 0x359D JUMPI PUSH0 DUP1 REVERT JUMPDEST PUSH2 0x35A9 DUP9 DUP4 DUP10 ADD PUSH2 0x342E JUMP JUMPDEST SWAP6 POP PUSH1 0x20 DUP8 ADD CALLDATALOAD SWAP2 POP DUP1 DUP3 GT ISZERO PUSH2 0x35BE JUMPI PUSH0 DUP1 REVERT JUMPDEST PUSH2 0x35CA DUP9 DUP4 DUP10 ADD PUSH2 0x349E JUMP JUMPDEST SWAP5 POP PUSH1 0x40 DUP8 ADD CALLDATALOAD SWAP2 POP DUP1 DUP3 GT ISZERO PUSH2 0x35DF JUMPI PUSH0 DUP1 REVERT JUMPDEST POP PUSH2 0x35EC DUP8 DUP3 DUP9 ADD PUSH2 0x34FA JUMP JUMPDEST SWAP5 SWAP8 SWAP4 SWAP7 POP SWAP4 SWAP5 PUSH1 0x60 ADD CALLDATALOAD SWAP4 POP POP POP JUMP JUMPDEST PUSH4 0x4E487B71 PUSH1 0xE0 SHL PUSH0 MSTORE PUSH1 0x21 PUSH1 0x4 MSTORE PUSH1 0x24 PUSH0 REVERT JUMPDEST PUSH1 0x8 DUP2 LT PUSH2 0x362D JUMPI PUSH4 0x4E487B71 PUSH1 0xE0 SHL PUSH0 MSTORE PUSH1 0x21 PUSH1 0x4 MSTORE PUSH1 0x24 PUSH0 REVERT JUMPDEST SWAP1 MSTORE JUMP JUMPDEST PUSH1 0x20 DUP2 ADD PUSH2 0x9D5 DUP3 DUP5 PUSH2 0x3611 JUMP JUMPDEST PUSH0 DUP1 PUSH1 0x40 DUP4 DUP6 SUB SLT ISZERO PUSH2 0x3650 JUMPI PUSH0 DUP1 REVERT JUMPDEST DUP3 CALLDATALOAD SWAP2 POP PUSH1 0x20 DUP4 ADD CALLDATALOAD PUSH2 0x3662 DUP2 PUSH2 0x32CE JUMP JUMPDEST DUP1 SWAP2 POP POP SWAP3 POP SWAP3 SWAP1 POP JUMP JUMPDEST DUP1 CALLDATALOAD PUSH1 0xFF DUP2 AND DUP2 EQ PUSH2 0xE40 JUMPI PUSH0 DUP1 REVERT JUMPDEST PUSH0 DUP1 PUSH1 0x40 DUP4 DUP6 SUB SLT ISZERO PUSH2 0x368E JUMPI PUSH0 DUP1 REVERT JUMPDEST DUP3 CALLDATALOAD SWAP2 POP PUSH2 0x369E PUSH1 0x20 DUP5 ADD PUSH2 0x366D JUMP JUMPDEST SWAP1 POP SWAP3 POP SWAP3 SWAP1 POP JUMP JUMPDEST PUSH0 DUP1 DUP4 PUSH1 0x1F DUP5 ADD SLT PUSH2 0x36B7 JUMPI PUSH0 DUP1 REVERT JUMPDEST POP DUP2 CALLDATALOAD PUSH1 0x1 PUSH1 0x1 PUSH1 0x40 SHL SUB DUP2 GT ISZERO PUSH2 0x36CD JUMPI PUSH0 DUP1 REVERT JUMPDEST PUSH1 0x20 DUP4 ADD SWAP2 POP DUP4 PUSH1 0x20 DUP3 DUP6 ADD ADD GT ISZERO PUSH2 0x36E4 JUMPI PUSH0 DUP1 REVERT JUMPDEST SWAP3 POP SWAP3 SWAP1 POP JUMP JUMPDEST PUSH0 DUP1 PUSH0 DUP1 PUSH0 DUP1 PUSH0 PUSH1 0xC0 DUP9 DUP11 SUB SLT ISZERO PUSH2 0x3701 JUMPI PUSH0 DUP1 REVERT JUMPDEST DUP8 CALLDATALOAD SWAP7 POP PUSH2 0x3711 PUSH1 0x20 DUP10 ADD PUSH2 0x366D JUMP JUMPDEST SWAP6 POP PUSH1 0x40 DUP9 ADD CALLDATALOAD PUSH2 0x3721 DUP2 PUSH2 0x32CE JUMP JUMPDEST SWAP5 POP PUSH1 0x60 DUP9 ADD CALLDATALOAD PUSH1 0x1 PUSH1 0x1 PUSH1 0x40 SHL SUB DUP1 DUP3 GT ISZERO PUSH2 0x373C JUMPI PUSH0 DUP1 REVERT JUMPDEST PUSH2 0x3748 DUP12 DUP4 DUP13 ADD PUSH2 0x36A7 JUMP JUMPDEST SWAP1 SWAP7 POP SWAP5 POP PUSH1 0x80 DUP11 ADD CALLDATALOAD SWAP2 POP DUP1 DUP3 GT ISZERO PUSH2 0x3760 JUMPI PUSH0 DUP1 REVERT JUMPDEST PUSH2 0x376C DUP12 DUP4 DUP13 ADD PUSH2 0x3387 JUMP JUMPDEST SWAP4 POP PUSH1 0xA0 DUP11 ADD CALLDATALOAD SWAP2 POP DUP1 DUP3 GT ISZERO PUSH2 0x3781 JUMPI PUSH0 DUP1 REVERT JUMPDEST POP PUSH2 0x378E DUP11 DUP3 DUP12 ADD PUSH2 0x3387 JUMP JUMPDEST SWAP2 POP POP SWAP3 SWAP6 SWAP9 SWAP2 SWAP5 SWAP8 POP SWAP3 SWAP6 POP JUMP JUMPDEST PUSH0 DUP1 PUSH0 DUP1 PUSH0 PUSH1 0x80 DUP7 DUP9 SUB SLT ISZERO PUSH2 0x37B1 JUMPI PUSH0 DUP1 REVERT JUMPDEST DUP6 CALLDATALOAD SWAP5 POP PUSH2 0x37C1 PUSH1 0x20 DUP8 ADD PUSH2 0x366D JUMP JUMPDEST SWAP4 POP PUSH1 0x40 DUP7 ADD CALLDATALOAD PUSH1 0x1 PUSH1 0x1 PUSH1 0x40 SHL SUB DUP1 DUP3 GT ISZERO PUSH2 0x37DC JUMPI PUSH0 DUP1 REVERT JUMPDEST PUSH2 0x37E8 DUP10 DUP4 DUP11 ADD PUSH2 0x36A7 JUMP JUMPDEST SWAP1 SWAP6 POP SWAP4 POP PUSH1 0x60 DUP9 ADD CALLDATALOAD SWAP2 POP DUP1 DUP3 GT ISZERO PUSH2 0x3800 JUMPI PUSH0 DUP1 REVERT JUMPDEST POP PUSH2 0x380D DUP9 DUP3 DUP10 ADD PUSH2 0x3387 JUMP JUMPDEST SWAP2 POP POP SWAP3 SWAP6 POP SWAP3 SWAP6 SWAP1 SWAP4 POP JUMP JUMPDEST PUSH0 DUP1 PUSH0 DUP1 PUSH1 0x60 DUP6 DUP8 SUB SLT ISZERO PUSH2 0x382D JUMPI PUSH0 DUP1 REVERT JUMPDEST DUP5 CALLDATALOAD SWAP4 POP PUSH2 0x383D PUSH1 0x20 DUP7 ADD PUSH2 0x366D JUMP JUMPDEST SWAP3 POP PUSH1 0x40 DUP6 ADD CALLDATALOAD PUSH1 0x1 PUSH1 0x1 PUSH1 0x40 SHL SUB DUP2 GT ISZERO PUSH2 0x3857 JUMPI PUSH0 DUP1 REVERT JUMPDEST PUSH2 0x3863 DUP8 DUP3 DUP9 ADD PUSH2 0x36A7 JUMP JUMPDEST SWAP6 SWAP9 SWAP5 SWAP8 POP SWAP6 POP POP POP POP JUMP JUMPDEST PUSH0 DUP1 PUSH0 DUP1 PUSH1 0x80 DUP6 DUP8 SUB SLT ISZERO PUSH2 0x3882 JUMPI PUSH0 DUP1 REVERT JUMPDEST DUP5 CALLDATALOAD PUSH1 0x1 PUSH1 0x1 PUSH1 0x40 SHL SUB DUP1 DUP3 GT ISZERO PUSH2 0x3898 JUMPI PUSH0 DUP1 REVERT JUMPDEST PUSH2 0x38A4 DUP9 DUP4 DUP10 ADD PUSH2 0x342E JUMP JUMPDEST SWAP6 POP PUSH1 0x20 DUP8 ADD CALLDATALOAD SWAP2 POP DUP1 DUP3 GT ISZERO PUSH2 0x38B9 JUMPI PUSH0 DUP1 REVERT JUMPDEST PUSH2 0x38C5 DUP9 DUP4 DUP10 ADD PUSH2 0x349E JUMP JUMPDEST SWAP5 POP PUSH1 0x40 DUP8 ADD CALLDATALOAD SWAP2 POP DUP1 DUP3 GT ISZERO PUSH2 0x38DA JUMPI PUSH0 DUP1 REVERT JUMPDEST PUSH2 0x38E6 DUP9 DUP4 DUP10 ADD PUSH2 0x34FA JUMP JUMPDEST SWAP4 POP PUSH1 0x60 DUP8 ADD CALLDATALOAD SWAP2 POP DUP1 DUP3 GT ISZERO PUSH2 0x38FB JUMPI PUSH0 DUP1 REVERT JUMPDEST POP DUP6 ADD PUSH1 0x1F DUP2 ADD DUP8 SGT PUSH2 0x390C JUMPI PUSH0 DUP1 REVERT JUMPDEST PUSH2 0x3400 DUP8 DUP3 CALLDATALOAD PUSH1 0x20 DUP5 ADD PUSH2 0x334C JUMP JUMPDEST PUSH0 PUSH1 0x20 DUP3 DUP5 SUB SLT ISZERO PUSH2 0x392B JUMPI PUSH0 DUP1 REVERT JUMPDEST DUP2 CALLDATALOAD PUSH2 0x11EE DUP2 PUSH2 0x32CE JUMP JUMPDEST PUSH0 DUP2 MLOAD DUP1 DUP5 MSTORE PUSH1 0x20 DUP1 DUP6 ADD SWAP5 POP PUSH1 0x20 DUP5 ADD PUSH0 JUMPDEST DUP4 DUP2 LT ISZERO PUSH2 0x3965 JUMPI DUP2 MLOAD DUP8 MSTORE SWAP6 DUP3 ADD SWAP6 SWAP1 DUP3 ADD SWAP1 PUSH1 0x1 ADD PUSH2 0x3949 JUMP JUMPDEST POP SWAP5 SWAP6 SWAP5 POP POP POP POP POP JUMP JUMPDEST PUSH1 0xFF PUSH1 0xF8 SHL DUP9 AND DUP2 MSTORE PUSH1 0xE0 PUSH1 0x20 DUP3 ADD MSTORE PUSH0 PUSH2 0x398E PUSH1 0xE0 DUP4 ADD DUP10 PUSH2 0x3291 JUMP JUMPDEST DUP3 DUP2 SUB PUSH1 0x40 DUP5 ADD MSTORE PUSH2 0x39A0 DUP2 DUP10 PUSH2 0x3291 JUMP JUMPDEST PUSH1 0x60 DUP5 ADD DUP9 SWAP1 MSTORE PUSH1 0x1 PUSH1 0x1 PUSH1 0xA0 SHL SUB DUP8 AND PUSH1 0x80 DUP6 ADD MSTORE PUSH1 0xA0 DUP5 ADD DUP7 SWAP1 MSTORE DUP4 DUP2 SUB PUSH1 0xC0 DUP6 ADD MSTORE SWAP1 POP PUSH2 0x39D1 DUP2 DUP6 PUSH2 0x3936 JUMP JUMPDEST SWAP11 SWAP10 POP POP POP POP POP POP POP POP POP POP JUMP JUMPDEST PUSH0 DUP1 PUSH0 DUP1 PUSH1 0x80 DUP6 DUP8 SUB SLT ISZERO PUSH2 0x39F2 JUMPI PUSH0 DUP1 REVERT JUMPDEST DUP5 CALLDATALOAD SWAP4 POP PUSH2 0x3A02 PUSH1 0x20 DUP7 ADD PUSH2 0x366D JUMP JUMPDEST SWAP3 POP PUSH1 0x40 DUP6 ADD CALLDATALOAD PUSH2 0x3A12 DUP2 PUSH2 0x32CE JUMP JUMPDEST SWAP2 POP PUSH1 0x60 DUP6 ADD CALLDATALOAD PUSH1 0x1 PUSH1 0x1 PUSH1 0x40 SHL SUB DUP2 GT ISZERO PUSH2 0x33F4 JUMPI PUSH0 DUP1 REVERT JUMPDEST PUSH0 DUP1 PUSH0 PUSH1 0x60 DUP5 DUP7 SUB SLT ISZERO PUSH2 0x3A3E JUMPI PUSH0 DUP1 REVERT JUMPDEST DUP4 CALLDATALOAD PUSH2 0x3A49 DUP2 PUSH2 0x32CE JUMP JUMPDEST SWAP3 POP PUSH1 0x20 DUP5 ADD CALLDATALOAD SWAP2 POP PUSH1 0x40 DUP5 ADD CALLDATALOAD PUSH1 0x1 PUSH1 0x1 PUSH1 0x40 SHL SUB DUP2 GT ISZERO PUSH2 0x3A6A JUMPI PUSH0 DUP1 REVERT JUMPDEST PUSH2 0x3A76 DUP7 DUP3 DUP8 ADD PUSH2 0x3387 JUMP JUMPDEST SWAP2 POP POP SWAP3 POP SWAP3 POP SWAP3 JUMP JUMPDEST PUSH0 DUP1 PUSH0 DUP1 PUSH0 PUSH1 0xA0 DUP7 DUP9 SUB SLT ISZERO PUSH2 0x3A94 JUMPI PUSH0 DUP1 REVERT JUMPDEST DUP6 CALLDATALOAD PUSH2 0x3A9F DUP2 PUSH2 0x32CE JUMP JUMPDEST SWAP5 POP PUSH1 0x20 DUP7 ADD CALLDATALOAD PUSH2 0x3AAF DUP2 PUSH2 0x32CE JUMP JUMPDEST SWAP4 POP PUSH1 0x40 DUP7 ADD CALLDATALOAD PUSH1 0x1 PUSH1 0x1 PUSH1 0x40 SHL SUB DUP1 DUP3 GT ISZERO PUSH2 0x3ACA JUMPI PUSH0 DUP1 REVERT JUMPDEST PUSH2 0x3AD6 DUP10 DUP4 DUP11 ADD PUSH2 0x349E JUMP JUMPDEST SWAP5 POP PUSH1 0x60 DUP9 ADD CALLDATALOAD SWAP2 POP DUP1 DUP3 GT ISZERO PUSH2 0x3AEB JUMPI PUSH0 DUP1 REVERT JUMPDEST PUSH2 0x3AF7 DUP10 DUP4 DUP11 ADD PUSH2 0x349E JUMP JUMPDEST SWAP4 POP PUSH1 0x80 DUP9 ADD CALLDATALOAD SWAP2 POP DUP1 DUP3 GT ISZERO PUSH2 0x3800 JUMPI PUSH0 DUP1 REVERT JUMPDEST PUSH0 DUP1 PUSH0 DUP1 PUSH1 0x60 DUP6 DUP8 SUB SLT ISZERO PUSH2 0x3B1F JUMPI PUSH0 DUP1 REVERT JUMPDEST DUP5 CALLDATALOAD PUSH2 0x3B2A DUP2 PUSH2 0x32CE JUMP JUMPDEST SWAP4 POP PUSH1 0x20 DUP6 ADD CALLDATALOAD SWAP3 POP PUSH1 0x40 DUP6 ADD CALLDATALOAD PUSH1 0x1 PUSH1 0x1 PUSH1 0x40 SHL SUB DUP2 GT ISZERO PUSH2 0x3857 JUMPI PUSH0 DUP1 REVERT JUMPDEST PUSH0 DUP1 PUSH1 0x40 DUP4 DUP6 SUB SLT ISZERO PUSH2 0x3B5C JUMPI PUSH0 DUP1 REVERT JUMPDEST DUP3 CALLDATALOAD PUSH2 0x3B67 DUP2 PUSH2 0x32CE JUMP JUMPDEST SWAP5 PUSH1 0x20 SWAP4 SWAP1 SWAP4 ADD CALLDATALOAD SWAP4 POP POP POP JUMP JUMPDEST PUSH0 DUP1 PUSH0 DUP1 PUSH0 PUSH1 0xA0 DUP7 DUP9 SUB SLT ISZERO PUSH2 0x3B89 JUMPI PUSH0 DUP1 REVERT JUMPDEST DUP6 CALLDATALOAD PUSH2 0x3B94 DUP2 PUSH2 0x32CE JUMP JUMPDEST SWAP5 POP PUSH1 0x20 DUP7 ADD CALLDATALOAD PUSH2 0x3BA4 DUP2 PUSH2 0x32CE JUMP JUMPDEST SWAP4 POP PUSH1 0x40 DUP7 ADD CALLDATALOAD SWAP3 POP PUSH1 0x60 DUP7 ADD CALLDATALOAD SWAP2 POP PUSH1 0x80 DUP7 ADD CALLDATALOAD PUSH1 0x1 PUSH1 0x1 PUSH1 0x40 SHL SUB DUP2 GT ISZERO PUSH2 0x3BCC JUMPI PUSH0 DUP1 REVERT JUMPDEST PUSH2 0x380D DUP9 DUP3 DUP10 ADD PUSH2 0x3387 JUMP JUMPDEST PUSH1 0x1 DUP2 DUP2 SHR SWAP1 DUP3 AND DUP1 PUSH2 0x3BEC JUMPI PUSH1 0x7F DUP3 AND SWAP2 POP JUMPDEST PUSH1 0x20 DUP3 LT DUP2 SUB PUSH2 0x3C0A JUMPI PUSH4 0x4E487B71 PUSH1 0xE0 SHL PUSH0 MSTORE PUSH1 0x22 PUSH1 0x4 MSTORE PUSH1 0x24 PUSH0 REVERT JUMPDEST POP SWAP2 SWAP1 POP JUMP JUMPDEST PUSH4 0x4E487B71 PUSH1 0xE0 SHL PUSH0 MSTORE PUSH1 0x32 PUSH1 0x4 MSTORE PUSH1 0x24 PUSH0 REVERT JUMPDEST PUSH0 PUSH1 0x20 DUP3 DUP5 SUB SLT ISZERO PUSH2 0x3C34 JUMPI PUSH0 DUP1 REVERT JUMPDEST DUP2 MLOAD PUSH1 0x1 PUSH1 0x1 PUSH1 0x40 SHL SUB DUP2 GT ISZERO PUSH2 0x3C49 JUMPI PUSH0 DUP1 REVERT JUMPDEST DUP3 ADD PUSH1 0x1F DUP2 ADD DUP5 SGT PUSH2 0x3C59 JUMPI PUSH0 DUP1 REVERT JUMPDEST DUP1 MLOAD PUSH2 0x3C67 PUSH2 0x3359 DUP3 PUSH2 0x3326 JUMP JUMPDEST DUP2 DUP2 MSTORE DUP6 PUSH1 0x20 DUP4 DUP6 ADD ADD GT ISZERO PUSH2 0x3C7B JUMPI PUSH0 DUP1 REVERT JUMPDEST PUSH2 0x114F DUP3 PUSH1 0x20 DUP4 ADD PUSH1 0x20 DUP7 ADD PUSH2 0x326F JUMP JUMPDEST PUSH4 0x4E487B71 PUSH1 0xE0 SHL PUSH0 MSTORE PUSH1 0x11 PUSH1 0x4 MSTORE PUSH1 0x24 PUSH0 REVERT JUMPDEST PUSH6 0xFFFFFFFFFFFF DUP3 DUP2 AND DUP3 DUP3 AND SUB SWAP1 DUP1 DUP3 GT ISZERO PUSH2 0x3CBF JUMPI PUSH2 0x3CBF PUSH2 0x3C8C JUMP JUMPDEST POP SWAP3 SWAP2 POP POP JUMP JUMPDEST PUSH0 PUSH1 0x20 DUP3 DUP5 SUB SLT ISZERO PUSH2 0x3CD6 JUMPI PUSH0 DUP1 REVERT JUMPDEST DUP2 MLOAD PUSH6 0xFFFFFFFFFFFF DUP2 AND DUP2 EQ PUSH2 0x11EE JUMPI PUSH0 DUP1 REVERT JUMPDEST PUSH6 0xFFFFFFFFFFFF DUP2 DUP2 AND DUP4 DUP3 AND ADD SWAP1 DUP1 DUP3 GT ISZERO PUSH2 0x3CBF JUMPI PUSH2 0x3CBF PUSH2 0x3C8C JUMP JUMPDEST DUP2 DUP4 DUP3 CALLDATACOPY PUSH0 SWAP2 ADD SWAP1 DUP2 MSTORE SWAP2 SWAP1 POP JUMP JUMPDEST PUSH0 DUP2 MLOAD DUP1 DUP5 MSTORE PUSH1 0x20 DUP1 DUP6 ADD SWAP5 POP PUSH1 0x20 DUP5 ADD PUSH0 JUMPDEST DUP4 DUP2 LT ISZERO PUSH2 0x3965 JUMPI DUP2 MLOAD PUSH1 0x1 PUSH1 0x1 PUSH1 0xA0 SHL SUB AND DUP8 MSTORE SWAP6 DUP3 ADD SWAP6 SWAP1 DUP3 ADD SWAP1 PUSH1 0x1 ADD PUSH2 0x3D2C JUMP JUMPDEST PUSH0 DUP3 DUP3 MLOAD DUP1 DUP6 MSTORE PUSH1 0x20 DUP1 DUP7 ADD SWAP6 POP PUSH1 0x20 DUP3 PUSH1 0x5 SHL DUP5 ADD ADD PUSH1 0x20 DUP7 ADD PUSH0 JUMPDEST DUP5 DUP2 LT ISZERO PUSH2 0x3D9C JUMPI PUSH1 0x1F NOT DUP7 DUP5 SUB ADD DUP10 MSTORE PUSH2 0x3D8A DUP4 DUP4 MLOAD PUSH2 0x3291 JUMP JUMPDEST SWAP9 DUP5 ADD SWAP9 SWAP3 POP SWAP1 DUP4 ADD SWAP1 PUSH1 0x1 ADD PUSH2 0x3D6E JUMP JUMPDEST POP SWAP1 SWAP8 SWAP7 POP POP POP POP POP POP POP JUMP JUMPDEST PUSH1 0x80 DUP2 MSTORE PUSH0 PUSH2 0x3DBB PUSH1 0x80 DUP4 ADD DUP8 PUSH2 0x3D19 JUMP JUMPDEST DUP3 DUP2 SUB PUSH1 0x20 DUP5 ADD MSTORE PUSH2 0x3DCD DUP2 DUP8 PUSH2 0x3936 JUMP JUMPDEST SWAP1 POP DUP3 DUP2 SUB PUSH1 0x40 DUP5 ADD MSTORE PUSH2 0x3DE1 DUP2 DUP7 PUSH2 0x3D51 JUMP JUMPDEST SWAP2 POP POP DUP3 PUSH1 0x60 DUP4 ADD MSTORE SWAP6 SWAP5 POP POP POP POP POP JUMP JUMPDEST DUP4 DUP2 MSTORE PUSH1 0x60 DUP2 ADD PUSH2 0x3E07 PUSH1 0x20 DUP4 ADD DUP6 PUSH2 0x3611 JUMP JUMPDEST DUP3 PUSH1 0x40 DUP4 ADD MSTORE SWAP5 SWAP4 POP POP POP POP JUMP JUMPDEST PUSH0 PUSH1 0x20 DUP3 DUP5 SUB SLT ISZERO PUSH2 0x3E25 JUMPI PUSH0 DUP1 REVERT JUMPDEST DUP2 MLOAD DUP1 ISZERO ISZERO DUP2 EQ PUSH2 0x11EE JUMPI PUSH0 DUP1 REVERT JUMPDEST DUP5 DUP2 MSTORE PUSH1 0xFF DUP5 AND PUSH1 0x20 DUP3 ADD MSTORE DUP3 PUSH1 0x40 DUP3 ADD MSTORE PUSH1 0x80 PUSH1 0x60 DUP3 ADD MSTORE PUSH0 PUSH2 0xFE8 PUSH1 0x80 DUP4 ADD DUP5 PUSH2 0x3291 JUMP JUMPDEST DUP6 DUP2 MSTORE PUSH1 0xFF DUP6 AND PUSH1 0x20 DUP3 ADD MSTORE DUP4 PUSH1 0x40 DUP3 ADD MSTORE PUSH1 0xA0 PUSH1 0x60 DUP3 ADD MSTORE PUSH0 PUSH2 0x3E82 PUSH1 0xA0 DUP4 ADD DUP6 PUSH2 0x3291 JUMP JUMPDEST DUP3 DUP2 SUB PUSH1 0x80 DUP5 ADD MSTORE PUSH2 0xF42 DUP2 DUP6 PUSH2 0x3291 JUMP JUMPDEST DUP1 DUP3 ADD DUP1 DUP3 GT ISZERO PUSH2 0x9D5 JUMPI PUSH2 0x9D5 PUSH2 0x3C8C JUMP JUMPDEST PUSH0 PUSH2 0x120 DUP12 DUP4 MSTORE PUSH1 0x20 PUSH1 0x1 DUP1 PUSH1 0xA0 SHL SUB DUP13 AND DUP2 DUP6 ADD MSTORE DUP2 PUSH1 0x40 DUP6 ADD MSTORE PUSH2 0x3ECF DUP3 DUP6 ADD DUP13 PUSH2 0x3D19 JUMP JUMPDEST SWAP2 POP DUP4 DUP3 SUB PUSH1 0x60 DUP6 ADD MSTORE PUSH2 0x3EE3 DUP3 DUP12 PUSH2 0x3936 JUMP JUMPDEST SWAP2 POP DUP4 DUP3 SUB PUSH1 0x80 DUP6 ADD MSTORE DUP2 DUP10 MLOAD DUP1 DUP5 MSTORE DUP3 DUP5 ADD SWAP2 POP DUP3 DUP2 PUSH1 0x5 SHL DUP6 ADD ADD DUP4 DUP13 ADD PUSH0 JUMPDEST DUP4 DUP2 LT ISZERO PUSH2 0x3F33 JUMPI PUSH1 0x1F NOT DUP8 DUP5 SUB ADD DUP6 MSTORE PUSH2 0x3F21 DUP4 DUP4 MLOAD PUSH2 0x3291 JUMP JUMPDEST SWAP5 DUP7 ADD SWAP5 SWAP3 POP SWAP1 DUP6 ADD SWAP1 PUSH1 0x1 ADD PUSH2 0x3F05 JUMP JUMPDEST POP POP DUP7 DUP2 SUB PUSH1 0xA0 DUP9 ADD MSTORE PUSH2 0x3F47 DUP2 DUP13 PUSH2 0x3D51 JUMP JUMPDEST SWAP5 POP POP POP POP POP DUP6 PUSH1 0xC0 DUP5 ADD MSTORE DUP5 PUSH1 0xE0 DUP5 ADD MSTORE DUP3 DUP2 SUB PUSH2 0x100 DUP5 ADD MSTORE PUSH2 0x3F6C DUP2 DUP6 PUSH2 0x3291 JUMP JUMPDEST SWAP13 SWAP12 POP POP POP POP POP POP POP POP POP POP POP POP JUMP JUMPDEST PUSH0 PUSH1 0x20 DUP3 DUP5 SUB SLT ISZERO PUSH2 0x3F8C JUMPI PUSH0 DUP1 REVERT JUMPDEST POP MLOAD SWAP2 SWAP1 POP JUMP JUMPDEST DUP2 DUP2 SUB DUP2 DUP2 GT ISZERO PUSH2 0x9D5 JUMPI PUSH2 0x9D5 PUSH2 0x3C8C JUMP JUMPDEST PUSH1 0xA0 DUP2 MSTORE PUSH0 PUSH2 0x3FB8 PUSH1 0xA0 DUP4 ADD DUP9 PUSH2 0x3D19 JUMP JUMPDEST DUP3 DUP2 SUB PUSH1 0x20 DUP5 ADD MSTORE PUSH2 0x3FCA DUP2 DUP9 PUSH2 0x3936 JUMP JUMPDEST SWAP1 POP DUP3 DUP2 SUB PUSH1 0x40 DUP5 ADD MSTORE PUSH2 0x3FDE DUP2 DUP8 PUSH2 0x3D51 JUMP JUMPDEST PUSH1 0x60 DUP5 ADD SWAP6 SWAP1 SWAP6 MSTORE POP POP PUSH1 0x80 ADD MSTORE SWAP4 SWAP3 POP POP POP JUMP JUMPDEST PUSH1 0xC0 DUP2 MSTORE PUSH0 PUSH2 0x4005 PUSH1 0xC0 DUP4 ADD DUP10 PUSH2 0x3D19 JUMP JUMPDEST DUP3 DUP2 SUB PUSH1 0x20 DUP5 ADD MSTORE PUSH2 0x4017 DUP2 DUP10 PUSH2 0x3936 JUMP JUMPDEST SWAP1 POP DUP3 DUP2 SUB PUSH1 0x40 DUP5 ADD MSTORE PUSH2 0x402B DUP2 DUP9 PUSH2 0x3D51 JUMP JUMPDEST PUSH1 0x60 DUP5 ADD SWAP7 SWAP1 SWAP7 MSTORE POP POP PUSH1 0x80 DUP2 ADD SWAP3 SWAP1 SWAP3 MSTORE PUSH1 0xA0 SWAP1 SWAP2 ADD MSTORE SWAP4 SWAP3 POP POP POP JUMP JUMPDEST DUP1 DUP3 MUL DUP2 ISZERO DUP3 DUP3 DIV DUP5 EQ OR PUSH2 0x9D5 JUMPI PUSH2 0x9D5 PUSH2 0x3C8C JUMP JUMPDEST PUSH4 0x4E487B71 PUSH1 0xE0 SHL PUSH0 MSTORE PUSH1 0x12 PUSH1 0x4 MSTORE PUSH1 0x24 PUSH0 REVERT JUMPDEST PUSH1 0xFF DUP2 DUP2 AND DUP4 DUP3 AND ADD SWAP1 DUP2 GT ISZERO PUSH2 0x9D5 JUMPI PUSH2 0x9D5 PUSH2 0x3C8C JUMP JUMPDEST PUSH1 0x1 DUP2 DUP2 JUMPDEST DUP1 DUP6 GT ISZERO PUSH2 0x40C8 JUMPI DUP2 PUSH0 NOT DIV DUP3 GT ISZERO PUSH2 0x40AE JUMPI PUSH2 0x40AE PUSH2 0x3C8C JUMP JUMPDEST DUP1 DUP6 AND ISZERO PUSH2 0x40BB JUMPI SWAP2 DUP2 MUL SWAP2 JUMPDEST SWAP4 DUP5 SHR SWAP4 SWAP1 DUP1 MUL SWAP1 PUSH2 0x4093 JUMP JUMPDEST POP SWAP3 POP SWAP3 SWAP1 POP JUMP JUMPDEST PUSH0 DUP3 PUSH2 0x40DE JUMPI POP PUSH1 0x1 PUSH2 0x9D5 JUMP JUMPDEST DUP2 PUSH2 0x40EA JUMPI POP PUSH0 PUSH2 0x9D5 JUMP JUMPDEST DUP2 PUSH1 0x1 DUP2 EQ PUSH2 0x4100 JUMPI PUSH1 0x2 DUP2 EQ PUSH2 0x410A JUMPI PUSH2 0x4126 JUMP JUMPDEST PUSH1 0x1 SWAP2 POP POP PUSH2 0x9D5 JUMP JUMPDEST PUSH1 0xFF DUP5 GT ISZERO PUSH2 0x411B JUMPI PUSH2 0x411B PUSH2 0x3C8C JUMP JUMPDEST POP POP PUSH1 0x1 DUP3 SHL PUSH2 0x9D5 JUMP JUMPDEST POP PUSH1 0x20 DUP4 LT PUSH2 0x133 DUP4 LT AND PUSH1 0x4E DUP5 LT PUSH1 0xB DUP5 LT AND OR ISZERO PUSH2 0x4149 JUMPI POP DUP2 DUP2 EXP PUSH2 0x9D5 JUMP JUMPDEST PUSH2 0x4153 DUP4 DUP4 PUSH2 0x408E JUMP JUMPDEST DUP1 PUSH0 NOT DIV DUP3 GT ISZERO PUSH2 0x4166 JUMPI PUSH2 0x4166 PUSH2 0x3C8C JUMP JUMPDEST MUL SWAP4 SWAP3 POP POP POP JUMP JUMPDEST PUSH0 PUSH2 0x11EE PUSH1 0xFF DUP5 AND DUP4 PUSH2 0x40D0 JUMP JUMPDEST DUP3 DUP2 MSTORE PUSH1 0x40 PUSH1 0x20 DUP3 ADD MSTORE PUSH0 PUSH2 0x11EB PUSH1 0x40 DUP4 ADD DUP5 PUSH2 0x3291 JUMP JUMPDEST PUSH0 DUP3 MLOAD PUSH2 0x41A5 DUP2 DUP5 PUSH1 0x20 DUP8 ADD PUSH2 0x326F JUMP JUMPDEST SWAP2 SWAP1 SWAP2 ADD SWAP3 SWAP2 POP POP JUMP JUMPDEST PUSH0 DUP3 PUSH2 0x41C9 JUMPI PUSH4 0x4E487B71 PUSH1 0xE0 SHL PUSH0 MSTORE PUSH1 0x12 PUSH1 0x4 MSTORE PUSH1 0x24 PUSH0 REVERT JUMPDEST POP DIV SWAP1 JUMP INVALID LOG2 PUSH5 0x6970667358 0x22 SLT KECCAK256 0xA5 PUSH2 0xE86 NUMBER DUP15 0x4E DUP3 JUMPI EXTCODECOPY SGT SHR BLOCKHASH 0x4D ADD 0xEF 0xB6 0xD2 EXTCODECOPY SLOAD DUP12 0xE7 INVALID 0xBA SUB 0x2E 0xCD LOG0 SWAP13 DUP13 ISZERO PUSH16 0x64736F6C634300081800330000000000 "
		},
		"gasEstimates": {
			"creation": {
				"codeDepositCost": "3380000",
				"executionCost": "infinite",
				"totalCost": "infinite"
			},
			"external": {
				"BALLOT_TYPEHASH()": "260",
				"CLOCK_MODE()": "infinite",
				"COUNTING_MODE()": "infinite",
				"EXTENDED_BALLOT_TYPEHASH()": "328",
				"cancel(address[],uint256[],bytes[],bytes32)": "infinite",
				"castVote(uint256,uint8)": "infinite",
				"castVoteBySig(uint256,uint8,address,bytes)": "infinite",
				"castVoteWithReason(uint256,uint8,string)": "infinite",
				"castVoteWithReasonAndParams(uint256,uint8,string,bytes)": "infinite",
				"castVoteWithReasonAndParamsBySig(uint256,uint8,address,string,bytes,bytes)": "infinite",
				"clock()": "infinite",
				"eip712Domain()": "infinite",
				"execute(address[],uint256[],bytes[],bytes32)": "infinite",
				"getProposalId(address[],uint256[],bytes[],bytes32)": "infinite",
				"getVotes(address,uint256)": "infinite",
				"getVotesWithParams(address,uint256,bytes)": "infinite",
				"hasVoted(uint256,address)": "2713",
				"hashProposal(address[],uint256[],bytes[],bytes32)": "infinite",
				"name()": "infinite",
				"nonces(address)": "2574",
				"onERC1155BatchReceived(address,address,uint256[],uint256[],bytes)": "infinite",
				"onERC1155Received(address,address,uint256,uint256,bytes)": "infinite",
				"onERC721Received(address,address,uint256,bytes)": "infinite",
				"proposalDeadline(uint256)": "2690",
				"proposalEta(uint256)": "2602",
				"proposalNeedsQueuing(uint256)": "431",
				"proposalProposer(uint256)": "2609",
				"proposalSnapshot(uint256)": "2582",
				"proposalThreshold()": "infinite",
				"proposalVotes(uint256)": "6868",
				"propose(address[],uint256[],bytes[],string)": "infinite",
				"queue(address[],uint256[],bytes[],bytes32)": "infinite",
				"quorum(uint256)": "infinite",
				"quorumDenominator()": "325",
				"quorumNumerator()": "4760",
				"quorumNumerator(uint256)": "2737",
				"relay(address,uint256,bytes)": "infinite",
				"state(uint256)": "infinite",
				"supportsInterface(bytes4)": "infinite",
				"timelock()": "2485",
				"token()": "infinite",
				"updateQuorumNumerator(uint256)": "infinite",
				"updateTimelock(address)": "infinite",
				"version()": "infinite",
				"votingDelay()": "infinite",
				"votingPeriod()": "infinite"
			},
			"internal": {
				"_cancel(address[] memory,uint256[] memory,bytes memory[] memory,bytes32)": "infinite",
				"_executeOperations(uint256,address[] memory,uint256[] memory,bytes memory[] memory,bytes32)": "infinite",
				"_executor()": "2155",
				"_queueOperations(uint256,address[] memory,uint256[] memory,bytes memory[] memory,bytes32)": "infinite"
			}
		},
		"methodIdentifiers": {
			"BALLOT_TYPEHASH()": "deaaa7cc",
			"CLOCK_MODE()": "4bf5d7e9",
			"COUNTING_MODE()": "dd4e2ba5",
			"EXTENDED_BALLOT_TYPEHASH()": "2fe3e261",
			"cancel(address[],uint256[],bytes[],bytes32)": "452115d6",
			"castVote(uint256,uint8)": "56781388",
			"castVoteBySig(uint256,uint8,address,bytes)": "8ff262e3",
			"castVoteWithReason(uint256,uint8,string)": "7b3c71d3",
			"castVoteWithReasonAndParams(uint256,uint8,string,bytes)": "5f398a14",
			"castVoteWithReasonAndParamsBySig(uint256,uint8,address,string,bytes,bytes)": "5b8d0e0d",
			"clock()": "91ddadf4",
			"eip712Domain()": "84b0196e",
			"execute(address[],uint256[],bytes[],bytes32)": "2656227d",
			"getProposalId(address[],uint256[],bytes[],bytes32)": "a8f8a668",
			"getVotes(address,uint256)": "eb9019d4",
			"getVotesWithParams(address,uint256,bytes)": "9a802a6d",
			"hasVoted(uint256,address)": "43859632",
			"hashProposal(address[],uint256[],bytes[],bytes32)": "c59057e4",
			"name()": "06fdde03",
			"nonces(address)": "7ecebe00",
			"onERC1155BatchReceived(address,address,uint256[],uint256[],bytes)": "bc197c81",
			"onERC1155Received(address,address,uint256,uint256,bytes)": "f23a6e61",
			"onERC721Received(address,address,uint256,bytes)": "150b7a02",
			"proposalDeadline(uint256)": "c01f9e37",
			"proposalEta(uint256)": "ab58fb8e",
			"proposalNeedsQueuing(uint256)": "a9a95294",
			"proposalProposer(uint256)": "143489d0",
			"proposalSnapshot(uint256)": "2d63f693",
			"proposalThreshold()": "b58131b0",
			"proposalVotes(uint256)": "544ffc9c",
			"propose(address[],uint256[],bytes[],string)": "7d5e81e2",
			"queue(address[],uint256[],bytes[],bytes32)": "160cbed7",
			"quorum(uint256)": "f8ce560a",
			"quorumDenominator()": "97c3d334",
			"quorumNumerator()": "a7713a70",
			"quorumNumerator(uint256)": "60c4247f",
			"relay(address,uint256,bytes)": "c28bc2fa",
			"state(uint256)": "3e4f49e6",
			"supportsInterface(bytes4)": "01ffc9a7",
			"timelock()": "d33219b4",
			"token()": "fc0c546a",
			"updateQuorumNumerator(uint256)": "06f3f9e6",
			"updateTimelock(address)": "a890c910",
			"version()": "54fd4d50",
			"votingDelay()": "3932abb1",
			"votingPeriod()": "02a251a3"
		}
	},
	"abi": [
		{
			"inputs": [
				{
					"internalType": "contract IVotes",
					"name": "votesToken",
					"type": "address"
				},
				{
					"internalType": "contract TimelockController",
					"name": "timelock",
					"type": "address"
				},
				{
					"internalType": "uint48",
					"name": "votingDelayBlocks",
					"type": "uint48"
				},
				{
					"internalType": "uint32",
					"name": "votingPeriodBlocks",
					"type": "uint32"
				},
				{
					"internalType": "uint256",
					"name": "proposalThresholdVotes",
					"type": "uint256"
				},
				{
					"internalType": "uint256",
					"name": "quorumPercent",
					"type": "uint256"
				}
			],
			"stateMutability": "nonpayable",
			"type": "constructor"
		},
		{
			"inputs": [],
			"name": "CheckpointUnorderedInsertion",
			"type": "error"
		},
		{
			"inputs": [],
			"name": "FailedCall",
			"type": "error"
		},
		{
			"inputs": [
				{
					"internalType": "address",
					"name": "voter",
					"type": "address"
				}
			],
			"name": "GovernorAlreadyCastVote",
			"type": "error"
		},
		{
			"inputs": [
				{
					"internalType": "uint256",
					"name": "proposalId",
					"type": "uint256"
				}
			],
			"name": "GovernorAlreadyQueuedProposal",
			"type": "error"
		},
		{
			"inputs": [],
			"name": "GovernorDisabledDeposit",
			"type": "error"
		},
		{
			"inputs": [
				{
					"internalType": "address",
					"name": "proposer",
					"type": "address"
				},
				{
					"internalType": "uint256",
					"name": "votes",
					"type": "uint256"
				},
				{
					"internalType": "uint256",
					"name": "threshold",
					"type": "uint256"
				}
			],
			"name": "GovernorInsufficientProposerVotes",
			"type": "error"
		},
		{
			"inputs": [
				{
					"internalType": "uint256",
					"name": "targets",
					"type": "uint256"
				},
				{
					"internalType": "uint256",
					"name": "calldatas",
					"type": "uint256"
				},
				{
					"internalType": "uint256",
					"name": "values",
					"type": "uint256"
				}
			],
			"name": "GovernorInvalidProposalLength",
			"type": "error"
		},
		{
			"inputs": [
				{
					"internalType": "uint256",
					"name": "quorumNumerator",
					"type": "uint256"
				},
				{
					"internalType": "uint256",
					"name": "quorumDenominator",
					"type": "uint256"
				}
			],
			"name": "GovernorInvalidQuorumFraction",
			"type": "error"
		},
		{
			"inputs": [
				{
					"internalType": "address",
					"name": "voter",
					"type": "address"
				}
			],
			"name": "GovernorInvalidSignature",
			"type": "error"
		},
		{
			"inputs": [],
			"name": "GovernorInvalidVoteParams",
			"type": "error"
		},
		{
			"inputs": [],
			"name": "GovernorInvalidVoteType",
			"type": "error"
		},
		{
			"inputs": [
				{
					"internalType": "uint256",
					"name": "votingPeriod",
					"type": "uint256"
				}
			],
			"name": "GovernorInvalidVotingPeriod",
			"type": "error"
		},
		{
			"inputs": [
				{
					"internalType": "uint256",
					"name": "proposalId",
					"type": "uint256"
				}
			],
			"name": "GovernorNonexistentProposal",
			"type": "error"
		},
		{
			"inputs": [
				{
					"internalType": "uint256",
					"name": "proposalId",
					"type": "uint256"
				}
			],
			"name": "GovernorNotQueuedProposal",
			"type": "error"
		},
		{
			"inputs": [
				{
					"internalType": "address",
					"name": "account",
					"type": "address"
				}
			],
			"name": "GovernorOnlyExecutor",
			"type": "error"
		},
		{
			"inputs": [],
			"name": "GovernorQueueNotImplemented",
			"type": "error"
		},
		{
			"inputs": [
				{
					"internalType": "address",
					"name": "proposer",
					"type": "address"
				}
			],
			"name": "GovernorRestrictedProposer",
			"type": "error"
		},
		{
			"inputs": [
				{
					"internalType": "uint256",
					"name": "proposalId",
					"type": "uint256"
				},
				{
					"internalType": "address",
					"name": "account",
					"type": "address"
				}
			],
			"name": "GovernorUnableToCancel",
			"type": "error"
		},
		{
			"inputs": [
				{
					"internalType": "uint256",
					"name": "proposalId",
					"type": "uint256"
				},
				{
					"internalType": "enum IGovernor.ProposalState",
					"name": "current",
					"type": "uint8"
				},
				{
					"internalType": "bytes32",
					"name": "expectedStates",
					"type": "bytes32"
				}
			],
			"name": "GovernorUnexpectedProposalState",
			"type": "error"
		},
		{
			"inputs": [
				{
					"internalType": "address",
					"name": "account",
					"type": "address"
				},
				{
					"internalType": "uint256",
					"name": "currentNonce",
					"type": "uint256"
				}
			],
			"name": "InvalidAccountNonce",
			"type": "error"
		},
		{
			"inputs": [],
			"name": "InvalidShortString",
			"type": "error"
		},
		{
			"inputs": [
				{
					"internalType": "uint8",
					"name": "bits",
					"type": "uint8"
				},
				{
					"internalType": "uint256",
					"name": "value",
					"type": "uint256"
				}
			],
			"name": "SafeCastOverflowedUintDowncast",
			"type": "error"
		},
		{
			"inputs": [
				{
					"internalType": "string",
					"name": "str",
					"type": "string"
				}
			],
			"name": "StringTooLong",
			"type": "error"
		},
		{
			"anonymous": false,
			"inputs": [],
			"name": "EIP712DomainChanged",
			"type": "event"
		},
		{
			"anonymous": false,
			"inputs": [
				{
					"indexed": false,
					"internalType": "uint256",
					"name": "proposalId",
					"type": "uint256"
				}
			],
			"name": "ProposalCanceled",
			"type": "event"
		},
		{
			"anonymous": false,
			"inputs": [
				{
					"indexed": false,
					"internalType": "uint256",
					"name": "proposalId",
					"type": "uint256"
				},
				{
					"indexed": false,
					"internalType": "address",
					"name": "proposer",
					"type": "address"
				},
				{
					"indexed": false,
					"internalType": "address[]",
					"name": "targets",
					"type": "address[]"
				},
				{
					"indexed": false,
					"internalType": "uint256[]",
					"name": "values",
					"type": "uint256[]"
				},
				{
					"indexed": false,
					"internalType": "string[]",
					"name": "signatures",
					"type": "string[]"
				},
				{
					"indexed": false,
					"internalType": "bytes[]",
					"name": "calldatas",
					"type": "bytes[]"
				},
				{
					"indexed": false,
					"internalType": "uint256",
					"name": "voteStart",
					"type": "uint256"
				},
				{
					"indexed": false,
					"internalType": "uint256",
					"name": "voteEnd",
					"type": "uint256"
				},
				{
					"indexed": false,
					"internalType": "string",
					"name": "description",
					"type": "string"
				}
			],
			"name": "ProposalCreated",
			"type": "event"
		},
		{
			"anonymous": false,
			"inputs": [
				{
					"indexed": false,
					"internalType": "uint256",
					"name": "proposalId",
					"type": "uint256"
				}
			],
			"name": "ProposalExecuted",
			"type": "event"
		},
		{
			"anonymous": false,
			"inputs": [
				{
					"indexed": false,
					"internalType": "uint256",
					"name": "proposalId",
					"type": "uint256"
				},
				{
					"indexed": false,
					"internalType": "uint256",
					"name": "etaSeconds",
					"type": "uint256"
				}
			],
			"name": "ProposalQueued",
			"type": "event"
		},
		{
			"anonymous": false,
			"inputs": [
				{
					"indexed": false,
					"internalType": "uint256",
					"name": "oldQuorumNumerator",
					"type": "uint256"
				},
				{
					"indexed": false,
					"internalType": "uint256",
					"name": "newQuorumNumerator",
					"type": "uint256"
				}
			],
			"name": "QuorumNumeratorUpdated",
			"type": "event"
		},
		{
			"anonymous": false,
			"inputs": [
				{
					"indexed": false,
					"internalType": "address",
					"name": "oldTimelock",
					"type": "address"
				},
				{
					"indexed": false,
					"internalType": "address",
					"name": "newTimelock",
					"type": "address"
				}
			],
			"name": "TimelockChange",
			"type": "event"
		},
		{
			"anonymous": false,
			"inputs": [
				{
					"indexed": true,
					"internalType": "address",
					"name": "voter",
					"type": "address"
				},
				{
					"indexed": false,
					"internalType": "uint256",
					"name": "proposalId",
					"type": "uint256"
				},
				{
					"indexed": false,
					"internalType": "uint8",
					"name": "support",
					"type": "uint8"
				},
				{
					"indexed": false,
					"internalType": "uint256",
					"name": "weight",
					"type": "uint256"
				},
				{
					"indexed": false,
					"internalType": "string",
					"name": "reason",
					"type": "string"
				}
			],
			"name": "VoteCast",
			"type": "event"
		},
		{
			"anonymous": false,
			"inputs": [
				{
					"indexed": true,
					"internalType": "address",
					"name": "voter",
					"type": "address"
				},
				{
					"indexed": false,
					"internalType": "uint256",
					"name": "proposalId",
					"type": "uint256"
				},
				{
					"indexed": false,
					"internalType": "uint8",
					"name": "support",
					"type": "uint8"
				},
				{
					"indexed": false,
					"internalType": "uint256",
					"name": "weight",
					"type": "uint256"
				},
				{
					"indexed": false,
					"internalType": "string",
					"name": "reason",
					"type": "string"
				},
				{
					"indexed": false,
					"internalType": "bytes",
					"name": "params",
					"type": "bytes"
				}
			],
			"name": "VoteCastWithParams",
			"type": "event"
		},
		{
			"inputs": [],
			"name": "BALLOT_TYPEHASH",
			"outputs": [
				{
					"internalType": "bytes32",
					"name": "",
					"type": "bytes32"
				}
			],
			"stateMutability": "view",
			"type": "function"
		},
		{
			"inputs": [],
			"name": "CLOCK_MODE",
			"outputs": [
				{
					"internalType": "string",
					"name": "",
					"type": "string"
				}
			],
			"stateMutability": "view",
			"type": "function"
		},
		{
			"inputs": [],
			"name": "COUNTING_MODE",
			"outputs": [
				{
					"internalType": "string",
					"name": "",
					"type": "string"
				}
			],
			"stateMutability": "pure",
			"type": "function"
		},
		{
			"inputs": [],
			"name": "EXTENDED_BALLOT_TYPEHASH",
			"outputs": [
				{
					"internalType": "bytes32",
					"name": "",
					"type": "bytes32"
				}
			],
			"stateMutability": "view",
			"type": "function"
		},
		{
			"inputs": [
				{
					"internalType": "address[]",
					"name": "targets",
					"type": "address[]"
				},
				{
					"internalType": "uint256[]",
					"name": "values",
					"type": "uint256[]"
				},
				{
					"internalType": "bytes[]",
					"name": "calldatas",
					"type": "bytes[]"
				},
				{
					"internalType": "bytes32",
					"name": "descriptionHash",
					"type": "bytes32"
				}
			],
			"name": "cancel",
			"outputs": [
				{
					"internalType": "uint256",
					"name": "",
					"type": "uint256"
				}
			],
			"stateMutability": "nonpayable",
			"type": "function"
		},
		{
			"inputs": [
				{
					"internalType": "uint256",
					"name": "proposalId",
					"type": "uint256"
				},
				{
					"internalType": "uint8",
					"name": "support",
					"type": "uint8"
				}
			],
			"name": "castVote",
			"outputs": [
				{
					"internalType": "uint256",
					"name": "",
					"type": "uint256"
				}
			],
			"stateMutability": "nonpayable",
			"type": "function"
		},
		{
			"inputs": [
				{
					"internalType": "uint256",
					"name": "proposalId",
					"type": "uint256"
				},
				{
					"internalType": "uint8",
					"name": "support",
					"type": "uint8"
				},
				{
					"internalType": "address",
					"name": "voter",
					"type": "address"
				},
				{
					"internalType": "bytes",
					"name": "signature",
					"type": "bytes"
				}
			],
			"name": "castVoteBySig",
			"outputs": [
				{
					"internalType": "uint256",
					"name": "",
					"type": "uint256"
				}
			],
			"stateMutability": "nonpayable",
			"type": "function"
		},
		{
			"inputs": [
				{
					"internalType": "uint256",
					"name": "proposalId",
					"type": "uint256"
				},
				{
					"internalType": "uint8",
					"name": "support",
					"type": "uint8"
				},
				{
					"internalType": "string",
					"name": "reason",
					"type": "string"
				}
			],
			"name": "castVoteWithReason",
			"outputs": [
				{
					"internalType": "uint256",
					"name": "",
					"type": "uint256"
				}
			],
			"stateMutability": "nonpayable",
			"type": "function"
		},
		{
			"inputs": [
				{
					"internalType": "uint256",
					"name": "proposalId",
					"type": "uint256"
				},
				{
					"internalType": "uint8",
					"name": "support",
					"type": "uint8"
				},
				{
					"internalType": "string",
					"name": "reason",
					"type": "string"
				},
				{
					"internalType": "bytes",
					"name": "params",
					"type": "bytes"
				}
			],
			"name": "castVoteWithReasonAndParams",
			"outputs": [
				{
					"internalType": "uint256",
					"name": "",
					"type": "uint256"
				}
			],
			"stateMutability": "nonpayable",
			"type": "function"
		},
		{
			"inputs": [
				{
					"internalType": "uint256",
					"name": "proposalId",
					"type": "uint256"
				},
				{
					"internalType": "uint8",
					"name": "support",
					"type": "uint8"
				},
				{
					"internalType": "address",
					"name": "voter",
					"type": "address"
				},
				{
					"internalType": "string",
					"name": "reason",
					"type": "string"
				},
				{
					"internalType": "bytes",
					"name": "params",
					"type": "bytes"
				},
				{
					"internalType": "bytes",
					"name": "signature",
					"type": "bytes"
				}
			],
			"name": "castVoteWithReasonAndParamsBySig",
			"outputs": [
				{
					"internalType": "uint256",
					"name": "",
					"type": "uint256"
				}
			],
			"stateMutability": "nonpayable",
			"type": "function"
		},
		{
			"inputs": [],
			"name": "clock",
			"outputs": [
				{
					"internalType": "uint48",
					"name": "",
					"type": "uint48"
				}
			],
			"stateMutability": "view",
			"type": "function"
		},
		{
			"inputs": [],
			"name": "eip712Domain",
			"outputs": [
				{
					"internalType": "bytes1",
					"name": "fields",
					"type": "bytes1"
				},
				{
					"internalType": "string",
					"name": "name",
					"type": "string"
				},
				{
					"internalType": "string",
					"name": "version",
					"type": "string"
				},
				{
					"internalType": "uint256",
					"name": "chainId",
					"type": "uint256"
				},
				{
					"internalType": "address",
					"name": "verifyingContract",
					"type": "address"
				},
				{
					"internalType": "bytes32",
					"name": "salt",
					"type": "bytes32"
				},
				{
					"internalType": "uint256[]",
					"name": "extensions",
					"type": "uint256[]"
				}
			],
			"stateMutability": "view",
			"type": "function"
		},
		{
			"inputs": [
				{
					"internalType": "address[]",
					"name": "targets",
					"type": "address[]"
				},
				{
					"internalType": "uint256[]",
					"name": "values",
					"type": "uint256[]"
				},
				{
					"internalType": "bytes[]",
					"name": "calldatas",
					"type": "bytes[]"
				},
				{
					"internalType": "bytes32",
					"name": "descriptionHash",
					"type": "bytes32"
				}
			],
			"name": "execute",
			"outputs": [
				{
					"internalType": "uint256",
					"name": "",
					"type": "uint256"
				}
			],
			"stateMutability": "payable",
			"type": "function"
		},
		{
			"inputs": [
				{
					"internalType": "address[]",
					"name": "targets",
					"type": "address[]"
				},
				{
					"internalType": "uint256[]",
					"name": "values",
					"type": "uint256[]"
				},
				{
					"internalType": "bytes[]",
					"name": "calldatas",
					"type": "bytes[]"
				},
				{
					"internalType": "bytes32",
					"name": "descriptionHash",
					"type": "bytes32"
				}
			],
			"name": "getProposalId",
			"outputs": [
				{
					"internalType": "uint256",
					"name": "",
					"type": "uint256"
				}
			],
			"stateMutability": "view",
			"type": "function"
		},
		{
			"inputs": [
				{
					"internalType": "address",
					"name": "account",
					"type": "address"
				},
				{
					"internalType": "uint256",
					"name": "timepoint",
					"type": "uint256"
				}
			],
			"name": "getVotes",
			"outputs": [
				{
					"internalType": "uint256",
					"name": "",
					"type": "uint256"
				}
			],
			"stateMutability": "view",
			"type": "function"
		},
		{
			"inputs": [
				{
					"internalType": "address",
					"name": "account",
					"type": "address"
				},
				{
					"internalType": "uint256",
					"name": "timepoint",
					"type": "uint256"
				},
				{
					"internalType": "bytes",
					"name": "params",
					"type": "bytes"
				}
			],
			"name": "getVotesWithParams",
			"outputs": [
				{
					"internalType": "uint256",
					"name": "",
					"type": "uint256"
				}
			],
			"stateMutability": "view",
			"type": "function"
		},
		{
			"inputs": [
				{
					"internalType": "uint256",
					"name": "proposalId",
					"type": "uint256"
				},
				{
					"internalType": "address",
					"name": "account",
					"type": "address"
				}
			],
			"name": "hasVoted",
			"outputs": [
				{
					"internalType": "bool",
					"name": "",
					"type": "bool"
				}
			],
			"stateMutability": "view",
			"type": "function"
		},
		{
			"inputs": [
				{
					"internalType": "address[]",
					"name": "targets",
					"type": "address[]"
				},
				{
					"internalType": "uint256[]",
					"name": "values",
					"type": "uint256[]"
				},
				{
					"internalType": "bytes[]",
					"name": "calldatas",
					"type": "bytes[]"
				},
				{
					"internalType": "bytes32",
					"name": "descriptionHash",
					"type": "bytes32"
				}
			],
			"name": "hashProposal",
			"outputs": [
				{
					"internalType": "uint256",
					"name": "",
					"type": "uint256"
				}
			],
			"stateMutability": "pure",
			"type": "function"
		},
		{
			"inputs": [],
			"name": "name",
			"outputs": [
				{
					"internalType": "string",
					"name": "",
					"type": "string"
				}
			],
			"stateMutability": "view",
			"type": "function"
		},
		{
			"inputs": [
				{
					"internalType": "address",
					"name": "owner",
					"type": "address"
				}
			],
			"name": "nonces",
			"outputs": [
				{
					"internalType": "uint256",
					"name": "",
					"type": "uint256"
				}
			],
			"stateMutability": "view",
			"type": "function"
		},
		{
			"inputs": [
				{
					"internalType": "address",
					"name": "",
					"type": "address"
				},
				{
					"internalType": "address",
					"name": "",
					"type": "address"
				},
				{
					"internalType": "uint256[]",
					"name": "",
					"type": "uint256[]"
				},
				{
					"internalType": "uint256[]",
					"name": "",
					"type": "uint256[]"
				},
				{
					"internalType": "bytes",
					"name": "",
					"type": "bytes"
				}
			],
			"name": "onERC1155BatchReceived",
			"outputs": [
				{
					"internalType": "bytes4",
					"name": "",
					"type": "bytes4"
				}
			],
			"stateMutability": "nonpayable",
			"type": "function"
		},
		{
			"inputs": [
				{
					"internalType": "address",
					"name": "",
					"type": "address"
				},
				{
					"internalType": "address",
					"name": "",
					"type": "address"
				},
				{
					"internalType": "uint256",
					"name": "",
					"type": "uint256"
				},
				{
					"internalType": "uint256",
					"name": "",
					"type": "uint256"
				},
				{
					"internalType": "bytes",
					"name": "",
					"type": "bytes"
				}
			],
			"name": "onERC1155Received",
			"outputs": [
				{
					"internalType": "bytes4",
					"name": "",
					"type": "bytes4"
				}
			],
			"stateMutability": "nonpayable",
			"type": "function"
		},
		{
			"inputs": [
				{
					"internalType": "address",
					"name": "",
					"type": "address"
				},
				{
					"internalType": "address",
					"name": "",
					"type": "address"
				},
				{
					"internalType": "uint256",
					"name": "",
					"type": "uint256"
				},
				{
					"internalType": "bytes",
					"name": "",
					"type": "bytes"
				}
			],
			"name": "onERC721Received",
			"outputs": [
				{
					"internalType": "bytes4",
					"name": "",
					"type": "bytes4"
				}
			],
			"stateMutability": "nonpayable",
			"type": "function"
		},
		{
			"inputs": [
				{
					"internalType": "uint256",
					"name": "proposalId",
					"type": "uint256"
				}
			],
			"name": "proposalDeadline",
			"outputs": [
				{
					"internalType": "uint256",
					"name": "",
					"type": "uint256"
				}
			],
			"stateMutability": "view",
			"type": "function"
		},
		{
			"inputs": [
				{
					"internalType": "uint256",
					"name": "proposalId",
					"type": "uint256"
				}
			],
			"name": "proposalEta",
			"outputs": [
				{
					"internalType": "uint256",
					"name": "",
					"type": "uint256"
				}
			],
			"stateMutability": "view",
			"type": "function"
		},
		{
			"inputs": [
				{
					"internalType": "uint256",
					"name": "proposalId",
					"type": "uint256"
				}
			],
			"name": "proposalNeedsQueuing",
			"outputs": [
				{
					"internalType": "bool",
					"name": "",
					"type": "bool"
				}
			],
			"stateMutability": "view",
			"type": "function"
		},
		{
			"inputs": [
				{
					"internalType": "uint256",
					"name": "proposalId",
					"type": "uint256"
				}
			],
			"name": "proposalProposer",
			"outputs": [
				{
					"internalType": "address",
					"name": "",
					"type": "address"
				}
			],
			"stateMutability": "view",
			"type": "function"
		},
		{
			"inputs": [
				{
					"internalType": "uint256",
					"name": "proposalId",
					"type": "uint256"
				}
			],
			"name": "proposalSnapshot",
			"outputs": [
				{
					"internalType": "uint256",
					"name": "",
					"type": "uint256"
				}
			],
			"stateMutability": "view",
			"type": "function"
		},
		{
			"inputs": [],
			"name": "proposalThreshold",
			"outputs": [
				{
					"internalType": "uint256",
					"name": "",
					"type": "uint256"
				}
			],
			"stateMutability": "view",
			"type": "function"
		},
		{
			"inputs": [
				{
					"internalType": "uint256",
					"name": "proposalId",
					"type": "uint256"
				}
			],
			"name": "proposalVotes",
			"outputs": [
				{
					"internalType": "uint256",
					"name": "againstVotes",
					"type": "uint256"
				},
				{
					"internalType": "uint256",
					"name": "forVotes",
					"type": "uint256"
				},
				{
					"internalType": "uint256",
					"name": "abstainVotes",
					"type": "uint256"
				}
			],
			"stateMutability": "view",
			"type": "function"
		},
		{
			"inputs": [
				{
					"internalType": "address[]",
					"name": "targets",
					"type": "address[]"
				},
				{
					"internalType": "uint256[]",
					"name": "values",
					"type": "uint256[]"
				},
				{
					"internalType": "bytes[]",
					"name": "calldatas",
					"type": "bytes[]"
				},
				{
					"internalType": "string",
					"name": "description",
					"type": "string"
				}
			],
			"name": "propose",
			"outputs": [
				{
					"internalType": "uint256",
					"name": "",
					"type": "uint256"
				}
			],
			"stateMutability": "nonpayable",
			"type": "function"
		},
		{
			"inputs": [
				{
					"internalType": "address[]",
					"name": "targets",
					"type": "address[]"
				},
				{
					"internalType": "uint256[]",
					"name": "values",
					"type": "uint256[]"
				},
				{
					"internalType": "bytes[]",
					"name": "calldatas",
					"type": "bytes[]"
				},
				{
					"internalType": "bytes32",
					"name": "descriptionHash",
					"type": "bytes32"
				}
			],
			"name": "queue",
			"outputs": [
				{
					"internalType": "uint256",
					"name": "",
					"type": "uint256"
				}
			],
			"stateMutability": "nonpayable",
			"type": "function"
		},
		{
			"inputs": [
				{
					"internalType": "uint256",
					"name": "timepoint",
					"type": "uint256"
				}
			],
			"name": "quorum",
			"outputs": [
				{
					"internalType": "uint256",
					"name": "",
					"type": "uint256"
				}
			],
			"stateMutability": "view",
			"type": "function"
		},
		{
			"inputs": [],
			"name": "quorumDenominator",
			"outputs": [
				{
					"internalType": "uint256",
					"name": "",
					"type": "uint256"
				}
			],
			"stateMutability": "view",
			"type": "function"
		},
		{
			"inputs": [
				{
					"internalType": "uint256",
					"name": "timepoint",
					"type": "uint256"
				}
			],
			"name": "quorumNumerator",
			"outputs": [
				{
					"internalType": "uint256",
					"name": "",
					"type": "uint256"
				}
			],
			"stateMutability": "view",
			"type": "function"
		},
		{
			"inputs": [],
			"name": "quorumNumerator",
			"outputs": [
				{
					"internalType": "uint256",
					"name": "",
					"type": "uint256"
				}
			],
			"stateMutability": "view",
			"type": "function"
		},
		{
			"inputs": [
				{
					"internalType": "address",
					"name": "target",
					"type": "address"
				},
				{
					"internalType": "uint256",
					"name": "value",
					"type": "uint256"
				},
				{
					"internalType": "bytes",
					"name": "data",
					"type": "bytes"
				}
			],
			"name": "relay",
			"outputs": [],
			"stateMutability": "payable",
			"type": "function"
		},
		{
			"inputs": [
				{
					"internalType": "uint256",
					"name": "proposalId",
					"type": "uint256"
				}
			],
			"name": "state",
			"outputs": [
				{
					"internalType": "enum IGovernor.ProposalState",
					"name": "",
					"type": "uint8"
				}
			],
			"stateMutability": "view",
			"type": "function"
		},
		{
			"inputs": [
				{
					"internalType": "bytes4",
					"name": "interfaceId",
					"type": "bytes4"
				}
			],
			"name": "supportsInterface",
			"outputs": [
				{
					"internalType": "bool",
					"name": "",
					"type": "bool"
				}
			],
			"stateMutability": "view",
			"type": "function"
		},
		{
			"inputs": [],
			"name": "timelock",
			"outputs": [
				{
					"internalType": "address",
					"name": "",
					"type": "address"
				}
			],
			"stateMutability": "view",
			"type": "function"
		},
		{
			"inputs": [],
			"name": "token",
			"outputs": [
				{
					"internalType": "contract IERC5805",
					"name": "",
					"type": "address"
				}
			],
			"stateMutability": "view",
			"type": "function"
		},
		{
			"inputs": [
				{
					"internalType": "uint256",
					"name": "newQuorumNumerator",
					"type": "uint256"
				}
			],
			"name": "updateQuorumNumerator",
			"outputs": [],
			"stateMutability": "nonpayable",
			"type": "function"
		},
		{
			"inputs": [
				{
					"internalType": "contract TimelockController",
					"name": "newTimelock",
					"type": "address"
				}
			],
			"name": "updateTimelock",
			"outputs": [],
			"stateMutability": "nonpayable",
			"type": "function"
		},
		{
			"inputs": [],
			"name": "version",
			"outputs": [
				{
					"internalType": "string",
					"name": "",
					"type": "string"
				}
			],
			"stateMutability": "view",
			"type": "function"
		},
		{
			"inputs": [],
			"name": "votingDelay",
			"outputs": [
				{
					"internalType": "uint256",
					"name": "",
					"type": "uint256"
				}
			],
			"stateMutability": "view",
			"type": "function"
		},
		{
			"inputs": [],
			"name": "votingPeriod",
			"outputs": [
				{
					"internalType": "uint256",
					"name": "",
					"type": "uint256"
				}
			],
			"stateMutability": "view",
			"type": "function"
		},
		{
			"stateMutability": "payable",
			"type": "receive"
		}
	]
}