{
	"data": {
		"bytecode": {
			"linkReferences": {},
			"object": "608060405234801562000010575f80fd5b5060405162001d5338038062001d53833981016040819052620000339162000328565b83838383620000435f306200019f565b506001600160a01b038116156200006257620000605f826200019f565b505b5f5b83518110156200010157620000bc7fb09aa5aeb3702cfd50b6b62bc4532604938f21248a27a1d5ca736082b6819cc1858381518110620000a857620000a8620003aa565b60200260200101516200019f60201b60201c565b50620000f77ffd643c72710c63c0180259aba6b2d05451e3591a24e58b62239378085726f783858381518110620000a857620000a8620003aa565b5060010162000064565b505f5b82518110156200015257620001487fd8aa0f3194971a2a116679f7c2090f6939c8d4e01a2a8d7e41d55e5351469e63848381518110620000a857620000a8620003aa565b5060010162000104565b506002849055604080515f8152602081018690527f11c24f4ead16507c69ac467fbd5e4eed5fb5c699626d2cc6d66421df253886d5910160405180910390a15050505050505050620003be565b5f828152602081815260408083206001600160a01b038516845290915281205460ff1662000242575f838152602081815260408083206001600160a01b03861684529091529020805460ff19166001179055620001f93390565b6001600160a01b0316826001600160a01b0316847f2f8788117e7eff1d82e926ec794901d17c78024a50270940304540a733656f0d60405160405180910390a450600162000245565b505f5b92915050565b634e487b7160e01b5f52604160045260245ffd5b80516001600160a01b038116811462000276575f80fd5b919050565b5f82601f8301126200028b575f80fd5b815160206001600160401b0380831115620002aa57620002aa6200024b565b8260051b604051601f19603f83011681018181108482111715620002d257620002d26200024b565b6040529384526020818701810194908101925087851115620002f2575f80fd5b6020870191505b848210156200031d576200030d826200025f565b83529183019190830190620002f9565b979650505050505050565b5f805f80608085870312156200033c575f80fd5b845160208601519094506001600160401b03808211156200035b575f80fd5b62000369888389016200027b565b945060408701519150808211156200037f575f80fd5b506200038e878288016200027b565b9250506200039f606086016200025f565b905092959194509250565b634e487b7160e01b5f52603260045260245ffd5b61198780620003cc5f395ff3fe6080604052600436106101b2575f3560e01c80638065657f116100e7578063bc197c8111610087578063d547741f11610062578063d547741f14610546578063e38335e514610565578063f23a6e6114610578578063f27a0c92146105a3575f80fd5b8063bc197c81146104d1578063c4d252f5146104fc578063d45c44351461051b575f80fd5b806391d14854116100c257806391d148541461044d578063a217fddf1461046c578063b08e51c01461047f578063b1c5f427146104b2575f80fd5b80638065657f146103dc5780638f2a0bb0146103fb5780638f61f4f51461041a575f80fd5b80632ab0f5291161015257806336568abe1161012d57806336568abe14610353578063584b153e1461037257806364d62353146103915780637958004c146103b0575f80fd5b80632ab0f529146102f65780632f2ff15d1461031557806331d5075014610334575f80fd5b8063134008d31161018d578063134008d31461025357806313bc9f2014610266578063150b7a0214610285578063248a9ca3146102c8575f80fd5b806301d5062a146101bd57806301ffc9a7146101de57806307bd026514610212575f80fd5b366101b957005b5f80fd5b3480156101c8575f80fd5b506101dc6101d7366004611162565b6105b7565b005b3480156101e9575f80fd5b506101fd6101f83660046111d0565b61068b565b60405190151581526020015b60405180910390f35b34801561021d575f80fd5b506102457fd8aa0f3194971a2a116679f7c2090f6939c8d4e01a2a8d7e41d55e5351469e6381565b604051908152602001610209565b6101dc6102613660046111f7565b61069b565b348015610271575f80fd5b506101fd61028036600461125d565b61074d565b348015610290575f80fd5b506102af61029f366004611323565b630a85bd0160e11b949350505050565b6040516001600160e01b03199091168152602001610209565b3480156102d3575f80fd5b506102456102e236600461125d565b5f9081526020819052604090206001015490565b348015610301575f80fd5b506101fd61031036600461125d565b610772565b348015610320575f80fd5b506101dc61032f366004611386565b61077a565b34801561033f575f80fd5b506101fd61034e36600461125d565b6107a4565b34801561035e575f80fd5b506101dc61036d366004611386565b6107c8565b34801561037d575f80fd5b506101fd61038c36600461125d565b610800565b34801561039c575f80fd5b506101dc6103ab36600461125d565b610845565b3480156103bb575f80fd5b506103cf6103ca36600461125d565b6108b8565b60405161020991906113c4565b3480156103e7575f80fd5b506102456103f63660046111f7565b610900565b348015610406575f80fd5b506101dc61041536600461142a565b61093e565b348015610425575f80fd5b506102457fb09aa5aeb3702cfd50b6b62bc4532604938f21248a27a1d5ca736082b6819cc181565b348015610458575f80fd5b506101fd610467366004611386565b610aca565b348015610477575f80fd5b506102455f81565b34801561048a575f80fd5b506102457ffd643c72710c63c0180259aba6b2d05451e3591a24e58b62239378085726f78381565b3480156104bd575f80fd5b506102456104cc3660046114d2565b610af2565b3480156104dc575f80fd5b506102af6104eb3660046115ee565b63bc197c8160e01b95945050505050565b348015610507575f80fd5b506101dc61051636600461125d565b610b36565b348015610526575f80fd5b5061024561053536600461125d565b5f9081526001602052604090205490565b348015610551575f80fd5b506101dc610560366004611386565b610be0565b6101dc6105733660046114d2565b610c04565b348015610583575f80fd5b506102af610592366004611690565b63f23a6e6160e01b95945050505050565b3480156105ae575f80fd5b50600254610245565b7fb09aa5aeb3702cfd50b6b62bc4532604938f21248a27a1d5ca736082b6819cc16105e181610d85565b5f6105f0898989898989610900565b90506105fc8184610d92565b5f817f4cf4410cc57040e44862ef0f45f3dd5a5e02db8eb8add648d4b0e236f1d07dca8b8b8b8b8b8a60405161063796959493929190611717565b60405180910390a3831561068057807f20fda5fd27a1ea7bf5b9567f143ac5470bb059374a27e8f67cb44f946f6d03878560405161067791815260200190565b60405180910390a25b505050505050505050565b5f61069582610e23565b92915050565b7fd8aa0f3194971a2a116679f7c2090f6939c8d4e01a2a8d7e41d55e5351469e636106c6815f610aca565b6106d4576106d48133610e47565b5f6106e3888888888888610900565b90506106ef8185610e84565b6106fb88888888610ed2565b5f817fc2617efa69bab66782fa219543714338489c4e9e178271560a91b82c3f612b588a8a8a8a6040516107329493929190611753565b60405180910390a361074381610f46565b5050505050505050565b5f60025b61075a836108b8565b600381111561076b5761076b6113b0565b1492915050565b5f6003610751565b5f8281526020819052604090206001015461079481610d85565b61079e8383610f71565b50505050565b5f806107af836108b8565b60038111156107c0576107c06113b0565b141592915050565b6001600160a01b03811633146107f15760405163334bd91960e11b815260040160405180910390fd5b6107fb8282611000565b505050565b5f8061080b836108b8565b90506001816003811115610821576108216113b0565b148061083e5750600281600381111561083c5761083c6113b0565b145b9392505050565b333081146108765760405163e2850c5960e01b81526001600160a01b03821660048201526024015b60405180910390fd5b60025460408051918252602082018490527f11c24f4ead16507c69ac467fbd5e4eed5fb5c699626d2cc6d66421df253886d5910160405180910390a150600255565b5f81815260016020526040812054805f036108d557505f92915050565b600181036108e65750600392915050565b428111156108f75750600192915050565b50600292915050565b5f86868686868660405160200161091c96959493929190611717565b6040516020818303038152906040528051906020012090509695505050505050565b7fb09aa5aeb3702cfd50b6b62bc4532604938f21248a27a1d5ca736082b6819cc161096881610d85565b88871415806109775750888514155b156109a9576040516001624fcdef60e01b03198152600481018a9052602481018690526044810188905260640161086d565b5f6109ba8b8b8b8b8b8b8b8b610af2565b90506109c68184610d92565b5f5b8a811015610a7b5780827f4cf4410cc57040e44862ef0f45f3dd5a5e02db8eb8add648d4b0e236f1d07dca8e8e85818110610a0557610a05611784565b9050602002016020810190610a1a9190611798565b8d8d86818110610a2c57610a2c611784565b905060200201358c8c87818110610a4557610a45611784565b9050602002810190610a5791906117b1565b8c8b604051610a6b96959493929190611717565b60405180910390a36001016109c8565b508315610abd57807f20fda5fd27a1ea7bf5b9567f143ac5470bb059374a27e8f67cb44f946f6d038785604051610ab491815260200190565b60405180910390a25b5050505050505050505050565b5f918252602082815260408084206001600160a01b0393909316845291905290205460ff1690565b5f8888888888888888604051602001610b12989796959493929190611884565b60405160208183030381529060405280519060200120905098975050505050505050565b7ffd643c72710c63c0180259aba6b2d05451e3591a24e58b62239378085726f783610b6081610d85565b610b6982610800565b610ba55781610b786002611069565b610b826001611069565b604051635ead8eb560e01b8152600481019390935217602482015260440161086d565b5f828152600160205260408082208290555183917fbaa1eb22f2a492ba1a5fea61b8df4d27c6c8b5f3971e63bb58fa14ff72eedb7091a25050565b5f82815260208190526040902060010154610bfa81610d85565b61079e8383611000565b7fd8aa0f3194971a2a116679f7c2090f6939c8d4e01a2a8d7e41d55e5351469e63610c2f815f610aca565b610c3d57610c3d8133610e47565b8786141580610c4c5750878414155b15610c7e576040516001624fcdef60e01b0319815260048101899052602481018590526044810187905260640161086d565b5f610c8f8a8a8a8a8a8a8a8a610af2565b9050610c9b8185610e84565b5f5b89811015610d6f575f8b8b83818110610cb857610cb8611784565b9050602002016020810190610ccd9190611798565b90505f8a8a84818110610ce257610ce2611784565b905060200201359050365f8a8a86818110610cff57610cff611784565b9050602002810190610d1191906117b1565b91509150610d2184848484610ed2565b84867fc2617efa69bab66782fa219543714338489c4e9e178271560a91b82c3f612b5886868686604051610d589493929190611753565b60405180910390a350505050806001019050610c9d565b50610d7981610f46565b50505050505050505050565b610d8f8133610e47565b50565b610d9b826107a4565b15610dcc5781610daa5f611069565b604051635ead8eb560e01b81526004810192909252602482015260440161086d565b5f610dd660025490565b905080821015610e0357604051635433660960e01b8152600481018390526024810182905260440161086d565b610e0d8242611923565b5f93845260016020526040909320929092555050565b5f6001600160e01b03198216630271189760e51b148061069557506106958261108b565b610e518282610aca565b610e805760405163e2517d3f60e01b81526001600160a01b03821660048201526024810183905260440161086d565b5050565b610e8d8261074d565b610e9c5781610daa6002611069565b8015801590610eb15750610eaf81610772565b155b15610e805760405163121534c360e31b81526004810182905260240161086d565b5f80856001600160a01b0316858585604051610eef929190611942565b5f6040518083038185875af1925050503d805f8114610f29576040519150601f19603f3d011682016040523d82523d5f602084013e610f2e565b606091505b5091509150610f3d82826110bf565b50505050505050565b610f4f8161074d565b610f5e5780610daa6002611069565b5f90815260016020819052604090912055565b5f610f7c8383610aca565b610ff9575f838152602081815260408083206001600160a01b03861684529091529020805460ff19166001179055610fb13390565b6001600160a01b0316826001600160a01b0316847f2f8788117e7eff1d82e926ec794901d17c78024a50270940304540a733656f0d60405160405180910390a4506001610695565b505f610695565b5f61100b8383610aca565b15610ff9575f838152602081815260408083206001600160a01b0386168085529252808320805460ff1916905551339286917ff6391f5c32d9c69d2a47ea670b442974b53935d1edc7fd64eb21e047a839171b9190a4506001610695565b5f81600381111561107c5761107c6113b0565b600160ff919091161b92915050565b5f6001600160e01b03198216637965db0b60e01b148061069557506301ffc9a760e01b6001600160e01b0319831614610695565b6060826110d4576110cf826110db565b610695565b5080610695565b8051156110ea57805160208201fd5b60405163d6bda27560e01b815260040160405180910390fd5b80356001600160a01b0381168114611119575f80fd5b919050565b5f8083601f84011261112e575f80fd5b5081356001600160401b03811115611144575f80fd5b60208301915083602082850101111561115b575f80fd5b9250929050565b5f805f805f805f60c0888a031215611178575f80fd5b61118188611103565b96506020880135955060408801356001600160401b038111156111a2575f80fd5b6111ae8a828b0161111e565b989b979a50986060810135976080820135975060a09091013595509350505050565b5f602082840312156111e0575f80fd5b81356001600160e01b03198116811461083e575f80fd5b5f805f805f8060a0878903121561120c575f80fd5b61121587611103565b95506020870135945060408701356001600160401b03811115611236575f80fd5b61124289828a0161111e565b979a9699509760608101359660809091013595509350505050565b5f6020828403121561126d575f80fd5b5035919050565b634e487b7160e01b5f52604160045260245ffd5b604051601f8201601f191681016001600160401b03811182821017156112b0576112b0611274565b604052919050565b5f82601f8301126112c7575f80fd5b81356001600160401b038111156112e0576112e0611274565b6112f3601f8201601f1916602001611288565b818152846020838601011115611307575f80fd5b816020850160208301375f918101602001919091529392505050565b5f805f8060808587031215611336575f80fd5b61133f85611103565b935061134d60208601611103565b92506040850135915060608501356001600160401b0381111561136e575f80fd5b61137a878288016112b8565b91505092959194509250565b5f8060408385031215611397575f80fd5b823591506113a760208401611103565b90509250929050565b634e487b7160e01b5f52602160045260245ffd5b60208101600483106113e457634e487b7160e01b5f52602160045260245ffd5b91905290565b5f8083601f8401126113fa575f80fd5b5081356001600160401b03811115611410575f80fd5b6020830191508360208260051b850101111561115b575f80fd5b5f805f805f805f805f60c08a8c031215611442575f80fd5b89356001600160401b0380821115611458575f80fd5b6114648d838e016113ea565b909b50995060208c013591508082111561147c575f80fd5b6114888d838e016113ea565b909950975060408c01359150808211156114a0575f80fd5b506114ad8c828d016113ea565b9a9d999c50979a969997986060880135976080810135975060a0013595509350505050565b5f805f805f805f8060a0898b0312156114e9575f80fd5b88356001600160401b03808211156114ff575f80fd5b61150b8c838d016113ea565b909a50985060208b0135915080821115611523575f80fd5b61152f8c838d016113ea565b909850965060408b0135915080821115611547575f80fd5b506115548b828c016113ea565b999c989b509699959896976060870135966080013595509350505050565b5f82601f830112611581575f80fd5b813560206001600160401b0382111561159c5761159c611274565b8160051b6115ab828201611288565b92835284810182019282810190878511156115c4575f80fd5b83870192505b848310156115e3578235825291830191908301906115ca565b979650505050505050565b5f805f805f60a08688031215611602575f80fd5b61160b86611103565b945061161960208701611103565b935060408601356001600160401b0380821115611634575f80fd5b61164089838a01611572565b94506060880135915080821115611655575f80fd5b61166189838a01611572565b93506080880135915080821115611676575f80fd5b50611683888289016112b8565b9150509295509295909350565b5f805f805f60a086880312156116a4575f80fd5b6116ad86611103565b94506116bb60208701611103565b9350604086013592506060860135915060808601356001600160401b038111156116e3575f80fd5b611683888289016112b8565b81835281816020850137505f828201602090810191909152601f909101601f19169091010190565b60018060a01b038716815285602082015260a060408201525f61173e60a0830186886116ef565b60608301949094525060800152949350505050565b60018060a01b0385168152836020820152606060408201525f61177a6060830184866116ef565b9695505050505050565b634e487b7160e01b5f52603260045260245ffd5b5f602082840312156117a8575f80fd5b61083e82611103565b5f808335601e198436030181126117c6575f80fd5b8301803591506001600160401b038211156117df575f80fd5b60200191503681900382131561115b575f80fd5b5f838385526020808601955060208560051b830101845f5b8781101561187757848303601f19018952813536889003601e19018112611830575f80fd5b870184810190356001600160401b0381111561184a575f80fd5b803603821315611858575f80fd5b6118638582846116ef565b9a86019a945050509083019060010161180b565b5090979650505050505050565b60a080825281018890525f8960c08301825b8b8110156118c4576001600160a01b036118af84611103565b16825260209283019290910190600101611896565b5083810360208501528881526001600160fb1b038911156118e3575f80fd5b8860051b9150818a6020830137018281036020908101604085015261190b90820187896117f3565b60608401959095525050608001529695505050505050565b8082018082111561069557634e487b7160e01b5f52601160045260245ffd5b818382375f910190815291905056fea26469706673582212203737996676da80de1a42f5708445cff93f1cc64b5cfb7cd1a951ce9ac167109064736f6c63430008180033",
			"opcodes": "PUSH1 0x80 PUSH1 0x40 MSTORE CALLVALUE DUP1 ISZERO PUSH3 0x10 JUMPI PUSH0 DUP1 REVERT JUMPDEST POP PUSH1 0x40 MLOAD PUSH3 0x1D53 CODESIZE SUB DUP1 PUSH3 0x1D53 DUP4 CODECOPY DUP2 ADD PUSH1 0x40 DUP2 SWAP1 MSTORE PUSH3 0x33 SWAP2 PUSH3 0x328 JUMP JUMPDEST DUP4 DUP4 DUP4 DUP4 PUSH3 0x43 PUSH0 ADDRESS PUSH3 0x19F JUMP JUMPDEST POP PUSH1 0x1 PUSH1 0x1 PUSH1 0xA0 SHL SUB DUP2 AND ISZERO PUSH3 0x62 JUMPI PUSH3 0x60 PUSH0 DUP3 PUSH3 0x19F JUMP JUMPDEST POP JUMPDEST PUSH0 JUMPDEST DUP4 MLOAD DUP2 LT ISZERO PUSH3 0x101 JUMPI PUSH3 0xBC PUSH32 0xB09AA5AEB3702CFD50B6B62BC4532604938F21248A27A1D5CA736082B6819CC1 DUP6 DUP4 DUP2 MLOAD DUP2 LT PUSH3 0xA8 JUMPI PUSH3 0xA8 PUSH3 0x3AA JUMP JUMPDEST PUSH1 0x20 MUL PUSH1 0x20 ADD ADD MLOAD PUSH3 0x19F PUSH1 0x20 SHL PUSH1 0x20 SHR JUMP JUMPDEST POP PUSH3 0xF7 PUSH32 0xFD643C72710C63C0180259ABA6B2D05451E3591A24E58B62239378085726F783 DUP6 DUP4 DUP2 MLOAD DUP2 LT PUSH3 0xA8 JUMPI PUSH3 0xA8 PUSH3 0x3AA JUMP JUMPDEST POP PUSH1 0x1 ADD PUSH3 0x64 JUMP JUMPDEST POP PUSH0 JUMPDEST DUP3 MLOAD DUP2 LT ISZERO PUSH3 0x152 JUMPI PUSH3 0x148 PUSH32 0xD8AA0F3194971A2A116679F7C2090F6939C8D4E01A2A8D7E41D55E5351469E63 DUP5 DUP4 DUP2 MLOAD DUP2 LT PUSH3 0xA8 JUMPI PUSH3 0xA8 PUSH3 0x3AA JUMP JUMPDEST POP PUSH1 0x1 ADD PUSH3 0x104 JUMP JUMPDEST POP PUSH1 0x2 DUP5 SWAP1 SSTORE PUSH1 0x40 DUP1 MLOAD PUSH0 DUP2 MSTORE PUSH1 0x20 DUP2 ADD DUP7 SWAP1 MSTORE PUSH32 0x11C24F4EAD16507C69AC467FBD5E4EED5FB5C699626D2CC6D66421DF253886D5 SWAP2 ADD PUSH1 0x40 MLOAD DUP1 SWAP2 SUB SWAP1 LOG1 POP POP POP POP POP POP POP POP PUSH3 0x3BE JUMP JUMPDEST PUSH0 DUP3 DUP2 MSTORE PUSH1 0x20 DUP2 DUP2 MSTORE PUSH1 0x40 DUP1 DUP4 KECCAK256 PUSH1 0x1 PUSH1 0x1 PUSH1 0xA0 SHL SUB DUP6 AND DUP5 MSTORE SWAP1 SWAP2 MSTORE DUP2 KECCAK256 SLOAD PUSH1 0xFF AND PUSH3 0x242 JUMPI PUSH0 DUP4 DUP2 MSTORE PUSH1 0x20 DUP2 DUP2 MSTORE PUSH1 0x40 DUP1 DUP4 KECCAK256 PUSH1 0x1 PUSH1 0x1 PUSH1 0xA0 SHL SUB DUP7 AND DUP5 MSTORE SWAP1 SWAP2 MSTORE SWAP1 KECCAK256 DUP1 SLOAD PUSH1 0xFF NOT AND PUSH1 0x1 OR SWAP1 SSTORE PUSH3 0x1F9 CALLER SWAP1 JUMP JUMPDEST PUSH1 0x1 PUSH1 0x1 PUSH1 0xA0 SHL SUB AND DUP3 PUSH1 0x1 PUSH1 0x1 PUSH1 0xA0 SHL SUB AND DUP5 PUSH32 0x2F8788117E7EFF1D82E926EC794901D17C78024A50270940304540A733656F0D PUSH1 0x40 MLOAD PUSH1 0x40 MLOAD DUP1 SWAP2 SUB SWAP1 LOG4 POP PUSH1 0x1 PUSH3 0x245 JUMP JUMPDEST POP PUSH0 JUMPDEST SWAP3 SWAP2 POP POP JUMP JUMPDEST PUSH4 0x4E487B71 PUSH1 0xE0 SHL PUSH0 MSTORE PUSH1 0x41 PUSH1 0x4 MSTORE PUSH1 0x24 PUSH0 REVERT JUMPDEST DUP1 MLOAD PUSH1 0x1 PUSH1 0x1 PUSH1 0xA0 SHL SUB DUP2 AND DUP2 EQ PUSH3 0x276 JUMPI PUSH0 DUP1 REVERT JUMPDEST SWAP2 SWAP1 POP JUMP JUMPDEST PUSH0 DUP3 PUSH1 0x1F DUP4 ADD SLT PUSH3 0x28B JUMPI PUSH0 DUP1 REVERT JUMPDEST DUP2 MLOAD PUSH1 0x20 PUSH1 0x1 PUSH1 0x1 PUSH1 0x40 SHL SUB DUP1 DUP4 GT ISZERO PUSH3 0x2AA JUMPI PUSH3 0x2AA PUSH3 0x24B JUMP JUMPDEST DUP3 PUSH1 0x5 SHL PUSH1 0x40 MLOAD PUSH1 0x1F NOT PUSH1 0x3F DUP4 ADD AND DUP2 ADD DUP2 DUP2 LT DUP5 DUP3 GT OR ISZERO PUSH3 0x2D2 JUMPI PUSH3 0x2D2 PUSH3 0x24B JUMP JUMPDEST PUSH1 0x40 MSTORE SWAP4 DUP5 MSTORE PUSH1 0x20 DUP2 DUP8 ADD DUP2 ADD SWAP5 SWAP1 DUP2 ADD SWAP3 POP DUP8 DUP6 GT ISZERO PUSH3 0x2F2 JUMPI PUSH0 DUP1 REVERT JUMPDEST PUSH1 0x20 DUP8 ADD SWAP2 POP JUMPDEST DUP5 DUP3 LT ISZERO PUSH3 0x31D JUMPI PUSH3 0x30D DUP3 PUSH3 0x25F JUMP JUMPDEST DUP4 MSTORE SWAP2 DUP4 ADD SWAP2 SWAP1 DUP4 ADD SWAP1 PUSH3 0x2F9 JUMP JUMPDEST SWAP8 SWAP7 POP POP POP POP POP POP POP JUMP JUMPDEST PUSH0 DUP1 PUSH0 DUP1 PUSH1 0x80 DUP6 DUP8 SUB SLT ISZERO PUSH3 0x33C JUMPI PUSH0 DUP1 REVERT JUMPDEST DUP5 MLOAD PUSH1 0x20 DUP7 ADD MLOAD SWAP1 SWAP5 POP PUSH1 0x1 PUSH1 0x1 PUSH1 0x40 SHL SUB DUP1 DUP3 GT ISZERO PUSH3 0x35B JUMPI PUSH0 DUP1 REVERT JUMPDEST PUSH3 0x369 DUP9 DUP4 DUP10 ADD PUSH3 0x27B JUMP JUMPDEST SWAP5 POP PUSH1 0x40 DUP8 ADD MLOAD SWAP2 POP DUP1 DUP3 GT ISZERO PUSH3 0x37F JUMPI PUSH0 DUP1 REVERT JUMPDEST POP PUSH3 0x38E DUP8 DUP3 DUP9 ADD PUSH3 0x27B JUMP JUMPDEST SWAP3 POP POP PUSH3 0x39F PUSH1 0x60 DUP7 ADD PUSH3 0x25F JUMP JUMPDEST SWAP1 POP SWAP3 SWAP6 SWAP2 SWAP5 POP SWAP3 POP JUMP JUMPDEST PUSH4 0x4E487B71 PUSH1 0xE0 SHL PUSH0 MSTORE PUSH1 0x32 PUSH1 0x4 MSTORE PUSH1 0x24 PUSH0 REVERT JUMPDEST PUSH2 0x1987 DUP1 PUSH3 0x3CC PUSH0 CODECOPY PUSH0 RETURN INVALID PUSH1 0x80 PUSH1 0x40 MSTORE PUSH1 0x4 CALLDATASIZE LT PUSH2 0x1B2 JUMPI PUSH0 CALLDATALOAD PUSH1 0xE0 SHR DUP1 PUSH4 0x8065657F GT PUSH2 0xE7 JUMPI DUP1 PUSH4 0xBC197C81 GT PUSH2 0x87 JUMPI DUP1 PUSH4 0xD547741F GT PUSH2 0x62 JUMPI DUP1 PUSH4 0xD547741F EQ PUSH2 0x546 JUMPI DUP1 PUSH4 0xE38335E5 EQ PUSH2 0x565 JUMPI DUP1 PUSH4 0xF23A6E61 EQ PUSH2 0x578 JUMPI DUP1 PUSH4 0xF27A0C92 EQ PUSH2 0x5A3 JUMPI PUSH0 DUP1 REVERT JUMPDEST DUP1 PUSH4 0xBC197C81 EQ PUSH2 0x4D1 JUMPI DUP1 PUSH4 0xC4D252F5 EQ PUSH2 0x4FC JUMPI DUP1 PUSH4 0xD45C4435 EQ PUSH2 0x51B JUMPI PUSH0 DUP1 REVERT JUMPDEST DUP1 PUSH4 0x91D14854 GT PUSH2 0xC2 JUMPI DUP1 PUSH4 0x91D14854 EQ PUSH2 0x44D JUMPI DUP1 PUSH4 0xA217FDDF EQ PUSH2 0x46C JUMPI DUP1 PUSH4 0xB08E51C0 EQ PUSH2 0x47F JUMPI DUP1 PUSH4 0xB1C5F427 EQ PUSH2 0x4B2 JUMPI PUSH0 DUP1 REVERT JUMPDEST DUP1 PUSH4 0x8065657F EQ PUSH2 0x3DC JUMPI DUP1 PUSH4 0x8F2A0BB0 EQ PUSH2 0x3FB JUMPI DUP1 PUSH4 0x8F61F4F5 EQ PUSH2 0x41A JUMPI PUSH0 DUP1 REVERT JUMPDEST DUP1 PUSH4 0x2AB0F529 GT PUSH2 0x152 JUMPI DUP1 PUSH4 0x36568ABE GT PUSH2 0x12D JUMPI DUP1 PUSH4 0x36568ABE EQ PUSH2 0x353 JUMPI DUP1 PUSH4 0x584B153E EQ PUSH2 0x372 JUMPI DUP1 PUSH4 0x64D62353 EQ PUSH2 0x391 JUMPI DUP1 PUSH4 0x7958004C EQ PUSH2 0x3B0 JUMPI PUSH0 DUP1 REVERT JUMPDEST DUP1 PUSH4 0x2AB0F529 EQ PUSH2 0x2F6 JUMPI DUP1 PUSH4 0x2F2FF15D EQ PUSH2 0x315 JUMPI DUP1 PUSH4 0x31D50750 EQ PUSH2 0x334 JUMPI PUSH0 DUP1 REVERT JUMPDEST DUP1 PUSH4 0x134008D3 GT PUSH2 0x18D JUMPI DUP1 PUSH4 0x134008D3 EQ PUSH2 0x253 JUMPI DUP1 PUSH4 0x13BC9F20 EQ PUSH2 0x266 JUMPI DUP1 PUSH4 0x150B7A02 EQ PUSH2 0x285 JUMPI DUP1 PUSH4 0x248A9CA3 EQ PUSH2 0x2C8 JUMPI PUSH0 DUP1 REVERT JUMPDEST DUP1 PUSH4 0x1D5062A EQ PUSH2 0x1BD JUMPI DUP1 PUSH4 0x1FFC9A7 EQ PUSH2 0x1DE JUMPI DUP1 PUSH4 0x7BD0265 EQ PUSH2 0x212 JUMPI PUSH0 DUP1 REVERT JUMPDEST CALLDATASIZE PUSH2 0x1B9 JUMPI STOP JUMPDEST PUSH0 DUP1 REVERT JUMPDEST CALLVALUE DUP1 ISZERO PUSH2 0x1C8 JUMPI PUSH0 DUP1 REVERT JUMPDEST POP PUSH2 0x1DC PUSH2 0x1D7 CALLDATASIZE PUSH1 0x4 PUSH2 0x1162 JUMP JUMPDEST PUSH2 0x5B7 JUMP JUMPDEST STOP JUMPDEST CALLVALUE DUP1 ISZERO PUSH2 0x1E9 JUMPI PUSH0 DUP1 REVERT JUMPDEST POP PUSH2 0x1FD PUSH2 0x1F8 CALLDATASIZE PUSH1 0x4 PUSH2 0x11D0 JUMP JUMPDEST PUSH2 0x68B JUMP JUMPDEST PUSH1 0x40 MLOAD SWAP1 ISZERO ISZERO DUP2 MSTORE PUSH1 0x20 ADD JUMPDEST PUSH1 0x40 MLOAD DUP1 SWAP2 SUB SWAP1 RETURN JUMPDEST CALLVALUE DUP1 ISZERO PUSH2 0x21D JUMPI PUSH0 DUP1 REVERT JUMPDEST POP PUSH2 0x245 PUSH32 0xD8AA0F3194971A2A116679F7C2090F6939C8D4E01A2A8D7E41D55E5351469E63 DUP2 JUMP JUMPDEST PUSH1 0x40 MLOAD SWAP1 DUP2 MSTORE PUSH1 0x20 ADD PUSH2 0x209 JUMP JUMPDEST PUSH2 0x1DC PUSH2 0x261 CALLDATASIZE PUSH1 0x4 PUSH2 0x11F7 JUMP JUMPDEST PUSH2 0x69B JUMP JUMPDEST CALLVALUE DUP1 ISZERO PUSH2 0x271 JUMPI PUSH0 DUP1 REVERT JUMPDEST POP PUSH2 0x1FD PUSH2 0x280 CALLDATASIZE PUSH1 0x4 PUSH2 0x125D JUMP JUMPDEST PUSH2 0x74D JUMP JUMPDEST CALLVALUE DUP1 ISZERO PUSH2 0x290 JUMPI PUSH0 DUP1 REVERT JUMPDEST POP PUSH2 0x2AF PUSH2 0x29F CALLDATASIZE PUSH1 0x4 PUSH2 0x1323 JUMP JUMPDEST PUSH4 0xA85BD01 PUSH1 0xE1 SHL SWAP5 SWAP4 POP POP POP POP JUMP JUMPDEST PUSH1 0x40 MLOAD PUSH1 0x1 PUSH1 0x1 PUSH1 0xE0 SHL SUB NOT SWAP1 SWAP2 AND DUP2 MSTORE PUSH1 0x20 ADD PUSH2 0x209 JUMP JUMPDEST CALLVALUE DUP1 ISZERO PUSH2 0x2D3 JUMPI PUSH0 DUP1 REVERT JUMPDEST POP PUSH2 0x245 PUSH2 0x2E2 CALLDATASIZE PUSH1 0x4 PUSH2 0x125D JUMP JUMPDEST PUSH0 SWAP1 DUP2 MSTORE PUSH1 0x20 DUP2 SWAP1 MSTORE PUSH1 0x40 SWAP1 KECCAK256 PUSH1 0x1 ADD SLOAD SWAP1 JUMP JUMPDEST CALLVALUE DUP1 ISZERO PUSH2 0x301 JUMPI PUSH0 DUP1 REVERT JUMPDEST POP PUSH2 0x1FD PUSH2 0x310 CALLDATASIZE PUSH1 0x4 PUSH2 0x125D JUMP JUMPDEST PUSH2 0x772 JUMP JUMPDEST CALLVALUE DUP1 ISZERO PUSH2 0x320 JUMPI PUSH0 DUP1 REVERT JUMPDEST POP PUSH2 0x1DC PUSH2 0x32F CALLDATASIZE PUSH1 0x4 PUSH2 0x1386 JUMP JUMPDEST PUSH2 0x77A JUMP JUMPDEST CALLVALUE DUP1 ISZERO PUSH2 0x33F JUMPI PUSH0 DUP1 REVERT JUMPDEST POP PUSH2 0x1FD PUSH2 0x34E CALLDATASIZE PUSH1 0x4 PUSH2 0x125D JUMP JUMPDEST PUSH2 0x7A4 JUMP JUMPDEST CALLVALUE DUP1 ISZERO PUSH2 0x35E JUMPI PUSH0 DUP1 REVERT JUMPDEST POP PUSH2 0x1DC PUSH2 0x36D CALLDATASIZE PUSH1 0x4 PUSH2 0x1386 JUMP JUMPDEST PUSH2 0x7C8 JUMP JUMPDEST CALLVALUE DUP1 ISZERO PUSH2 0x37D JUMPI PUSH0 DUP1 REVERT JUMPDEST POP PUSH2 0x1FD PUSH2 0x38C CALLDATASIZE PUSH1 0x4 PUSH2 0x125D JUMP JUMPDEST PUSH2 0x800 JUMP JUMPDEST CALLVALUE DUP1 ISZERO PUSH2 0x39C JUMPI PUSH0 DUP1 REVERT JUMPDEST POP PUSH2 0x1DC PUSH2 0x3AB CALLDATASIZE PUSH1 0x4 PUSH2 0x125D JUMP JUMPDEST PUSH2 0x845 JUMP JUMPDEST CALLVALUE DUP1 ISZERO PUSH2 0x3BB JUMPI PUSH0 DUP1 REVERT JUMPDEST POP PUSH2 0x3CF PUSH2 0x3CA CALLDATASIZE PUSH1 0x4 PUSH2 0x125D JUMP JUMPDEST PUSH2 0x8B8 JUMP JUMPDEST PUSH1 0x40 MLOAD PUSH2 0x209 SWAP2 SWAP1 PUSH2 0x13C4 JUMP JUMPDEST CALLVALUE DUP1 ISZERO PUSH2 0x3E7 JUMPI PUSH0 DUP1 REVERT JUMPDEST POP PUSH2 0x245 PUSH2 0x3F6 CALLDATASIZE PUSH1 0x4 PUSH2 0x11F7 JUMP JUMPDEST PUSH2 0x900 JUMP JUMPDEST CALLVALUE DUP1 ISZERO PUSH2 0x406 JUMPI PUSH0 DUP1 REVERT JUMPDEST POP PUSH2 0x1DC PUSH2 0x415 CALLDATASIZE PUSH1 0x4 PUSH2 0x142A JUMP JUMPDEST PUSH2 0x93E JUMP JUMPDEST CALLVALUE DUP1 ISZERO PUSH2 0x425 JUMPI PUSH0 DUP1 REVERT JUMPDEST POP PUSH2 0x245 PUSH32 0xB09AA5AEB3702CFD50B6B62BC4532604938F21248A27A1D5CA736082B6819CC1 DUP2 JUMP JUMPDEST CALLVALUE DUP1 ISZERO PUSH2 0x458 JUMPI PUSH0 DUP1 REVERT JUMPDEST POP PUSH2 0x1FD PUSH2 0x467 CALLDATASIZE PUSH1 0x4 PUSH2 0x1386 JUMP JUMPDEST PUSH2 0xACA JUMP JUMPDEST CALLVALUE DUP1 ISZERO PUSH2 0x477 JUMPI PUSH0 DUP1 REVERT JUMPDEST POP PUSH2 0x245 PUSH0 DUP2 JUMP JUMPDEST CALLVALUE DUP1 ISZERO PUSH2 0x48A JUMPI PUSH0 DUP1 REVERT JUMPDEST POP PUSH2 0x245 PUSH32 0xFD643C72710C63C0180259ABA6B2D05451E3591A24E58B62239378085726F783 DUP2 JUMP JUMPDEST CALLVALUE DUP1 ISZERO PUSH2 0x4BD JUMPI PUSH0 DUP1 REVERT JUMPDEST POP PUSH2 0x245 PUSH2 0x4CC CALLDATASIZE PUSH1 0x4 PUSH2 0x14D2 JUMP JUMPDEST PUSH2 0xAF2 JUMP JUMPDEST CALLVALUE DUP1 ISZERO PUSH2 0x4DC JUMPI PUSH0 DUP1 REVERT JUMPDEST POP PUSH2 0x2AF PUSH2 0x4EB CALLDATASIZE PUSH1 0x4 PUSH2 0x15EE JUMP JUMPDEST PUSH4 0xBC197C81 PUSH1 0xE0 SHL SWAP6 SWAP5 POP POP POP POP POP JUMP JUMPDEST CALLVALUE DUP1 ISZERO PUSH2 0x507 JUMPI PUSH0 DUP1 REVERT JUMPDEST POP PUSH2 0x1DC PUSH2 0x516 CALLDATASIZE PUSH1 0x4 PUSH2 0x125D JUMP JUMPDEST PUSH2 0xB36 JUMP JUMPDEST CALLVALUE DUP1 ISZERO PUSH2 0x526 JUMPI PUSH0 DUP1 REVERT JUMPDEST POP PUSH2 0x245 PUSH2 0x535 CALLDATASIZE PUSH1 0x4 PUSH2 0x125D JUMP JUMPDEST PUSH0 SWAP1 DUP2 MSTORE PUSH1 0x1 PUSH1 0x20 MSTORE PUSH1 0x40 SWAP1 KECCAK256 SLOAD SWAP1 JUMP JUMPDEST CALLVALUE DUP1 ISZERO PUSH2 0x551 JUMPI PUSH0 DUP1 REVERT JUMPDEST POP PUSH2 0x1DC PUSH2 0x560 CALLDATASIZE PUSH1 0x4 PUSH2 0x1386 JUMP JUMPDEST PUSH2 0xBE0 JUMP JUMPDEST PUSH2 0x1DC PUSH2 0x573 CALLDATASIZE PUSH1 0x4 PUSH2 0x14D2 JUMP JUMPDEST PUSH2 0xC04 JUMP JUMPDEST CALLVALUE DUP1 ISZERO PUSH2 0x583 JUMPI PUSH0 DUP1 REVERT JUMPDEST POP PUSH2 0x2AF PUSH2 0x592 CALLDATASIZE PUSH1 0x4 PUSH2 0x1690 JUMP JUMPDEST PUSH4 0xF23A6E61 PUSH1 0xE0 SHL SWAP6 SWAP5 POP POP POP POP POP JUMP JUMPDEST CALLVALUE DUP1 ISZERO PUSH2 0x5AE JUMPI PUSH0 DUP1 REVERT JUMPDEST POP PUSH1 0x2 SLOAD PUSH2 0x245 JUMP JUMPDEST PUSH32 0xB09AA5AEB3702CFD50B6B62BC4532604938F21248A27A1D5CA736082B6819CC1 PUSH2 0x5E1 DUP2 PUSH2 0xD85 JUMP JUMPDEST PUSH0 PUSH2 0x5F0 DUP10 DUP10 DUP10 DUP10 DUP10 DUP10 PUSH2 0x900 JUMP JUMPDEST SWAP1 POP PUSH2 0x5FC DUP2 DUP5 PUSH2 0xD92 JUMP JUMPDEST PUSH0 DUP2 PUSH32 0x4CF4410CC57040E44862EF0F45F3DD5A5E02DB8EB8ADD648D4B0E236F1D07DCA DUP12 DUP12 DUP12 DUP12 DUP12 DUP11 PUSH1 0x40 MLOAD PUSH2 0x637 SWAP7 SWAP6 SWAP5 SWAP4 SWAP3 SWAP2 SWAP1 PUSH2 0x1717 JUMP JUMPDEST PUSH1 0x40 MLOAD DUP1 SWAP2 SUB SWAP1 LOG3 DUP4 ISZERO PUSH2 0x680 JUMPI DUP1 PUSH32 0x20FDA5FD27A1EA7BF5B9567F143AC5470BB059374A27E8F67CB44F946F6D0387 DUP6 PUSH1 0x40 MLOAD PUSH2 0x677 SWAP2 DUP2 MSTORE PUSH1 0x20 ADD SWAP1 JUMP JUMPDEST PUSH1 0x40 MLOAD DUP1 SWAP2 SUB SWAP1 LOG2 JUMPDEST POP POP POP POP POP POP POP POP POP JUMP JUMPDEST PUSH0 PUSH2 0x695 DUP3 PUSH2 0xE23 JUMP JUMPDEST SWAP3 SWAP2 POP POP JUMP JUMPDEST PUSH32 0xD8AA0F3194971A2A116679F7C2090F6939C8D4E01A2A8D7E41D55E5351469E63 PUSH2 0x6C6 DUP2 PUSH0 PUSH2 0xACA JUMP JUMPDEST PUSH2 0x6D4 JUMPI PUSH2 0x6D4 DUP2 CALLER PUSH2 0xE47 JUMP JUMPDEST PUSH0 PUSH2 0x6E3 DUP9 DUP9 DUP9 DUP9 DUP9 DUP9 PUSH2 0x900 JUMP JUMPDEST SWAP1 POP PUSH2 0x6EF DUP2 DUP6 PUSH2 0xE84 JUMP JUMPDEST PUSH2 0x6FB DUP9 DUP9 DUP9 DUP9 PUSH2 0xED2 JUMP JUMPDEST PUSH0 DUP2 PUSH32 0xC2617EFA69BAB66782FA219543714338489C4E9E178271560A91B82C3F612B58 DUP11 DUP11 DUP11 DUP11 PUSH1 0x40 MLOAD PUSH2 0x732 SWAP5 SWAP4 SWAP3 SWAP2 SWAP1 PUSH2 0x1753 JUMP JUMPDEST PUSH1 0x40 MLOAD DUP1 SWAP2 SUB SWAP1 LOG3 PUSH2 0x743 DUP2 PUSH2 0xF46 JUMP JUMPDEST POP POP POP POP POP POP POP POP JUMP JUMPDEST PUSH0 PUSH1 0x2 JUMPDEST PUSH2 0x75A DUP4 PUSH2 0x8B8 JUMP JUMPDEST PUSH1 0x3 DUP2 GT ISZERO PUSH2 0x76B JUMPI PUSH2 0x76B PUSH2 0x13B0 JUMP JUMPDEST EQ SWAP3 SWAP2 POP POP JUMP JUMPDEST PUSH0 PUSH1 0x3 PUSH2 0x751 JUMP JUMPDEST PUSH0 DUP3 DUP2 MSTORE PUSH1 0x20 DUP2 SWAP1 MSTORE PUSH1 0x40 SWAP1 KECCAK256 PUSH1 0x1 ADD SLOAD PUSH2 0x794 DUP2 PUSH2 0xD85 JUMP JUMPDEST PUSH2 0x79E DUP4 DUP4 PUSH2 0xF71 JUMP JUMPDEST POP POP POP POP JUMP JUMPDEST PUSH0 DUP1 PUSH2 0x7AF DUP4 PUSH2 0x8B8 JUMP JUMPDEST PUSH1 0x3 DUP2 GT ISZERO PUSH2 0x7C0 JUMPI PUSH2 0x7C0 PUSH2 0x13B0 JUMP JUMPDEST EQ ISZERO SWAP3 SWAP2 POP POP JUMP JUMPDEST PUSH1 0x1 PUSH1 0x1 PUSH1 0xA0 SHL SUB DUP2 AND CALLER EQ PUSH2 0x7F1 JUMPI PUSH1 0x40 MLOAD PUSH4 0x334BD919 PUSH1 0xE1 SHL DUP2 MSTORE PUSH1 0x4 ADD PUSH1 0x40 MLOAD DUP1 SWAP2 SUB SWAP1 REVERT JUMPDEST PUSH2 0x7FB DUP3 DUP3 PUSH2 0x1000 JUMP JUMPDEST POP POP POP JUMP JUMPDEST PUSH0 DUP1 PUSH2 0x80B DUP4 PUSH2 0x8B8 JUMP JUMPDEST SWAP1 POP PUSH1 0x1 DUP2 PUSH1 0x3 DUP2 GT ISZERO PUSH2 0x821 JUMPI PUSH2 0x821 PUSH2 0x13B0 JUMP JUMPDEST EQ DUP1 PUSH2 0x83E JUMPI POP PUSH1 0x2 DUP2 PUSH1 0x3 DUP2 GT ISZERO PUSH2 0x83C JUMPI PUSH2 0x83C PUSH2 0x13B0 JUMP JUMPDEST EQ JUMPDEST SWAP4 SWAP3 POP POP POP JUMP JUMPDEST CALLER ADDRESS DUP2 EQ PUSH2 0x876 JUMPI PUSH1 0x40 MLOAD PUSH4 0xE2850C59 PUSH1 0xE0 SHL DUP2 MSTORE PUSH1 0x1 PUSH1 0x1 PUSH1 0xA0 SHL SUB DUP3 AND PUSH1 0x4 DUP3 ADD MSTORE PUSH1 0x24 ADD JUMPDEST PUSH1 0x40 MLOAD DUP1 SWAP2 SUB SWAP1 REVERT JUMPDEST PUSH1 0x2 SLOAD PUSH1 0x40 DUP1 MLOAD SWAP2 DUP3 MSTORE PUSH1 0x20 DUP3 ADD DUP5 SWAP1 MSTORE PUSH32 0x11C24F4EAD16507C69AC467FBD5E4EED5FB5C699626D2CC6D66421DF253886D5 SWAP2 ADD PUSH1 0x40 MLOAD DUP1 SWAP2 SUB SWAP1 LOG1 POP PUSH1 0x2 SSTORE JUMP JUMPDEST PUSH0 DUP2 DUP2 MSTORE PUSH1 0x1 PUSH1 0x20 MSTORE PUSH1 0x40 DUP2 KECCAK256 SLOAD DUP1 PUSH0 SUB PUSH2 0x8D5 JUMPI POP PUSH0 SWAP3 SWAP2 POP POP JUMP JUMPDEST PUSH1 0x1 DUP2 SUB PUSH2 0x8E6 JUMPI POP PUSH1 0x3 SWAP3 SWAP2 POP POP JUMP JUMPDEST TIMESTAMP DUP2 GT ISZERO PUSH2 0x8F7 JUMPI POP PUSH1 0x1 SWAP3 SWAP2 POP POP JUMP JUMPDEST POP PUSH1 0x2 SWAP3 SWAP2 POP POP JUMP JUMPDEST PUSH0 DUP7 DUP7 DUP7 DUP7 DUP7 DUP7 PUSH1 0x40 MLOAD PUSH1 0x20 ADD PUSH2 0x91C SWAP7 SWAP6 SWAP5 SWAP4 SWAP3 SWAP2 SWAP1 PUSH2 0x1717 JUMP JUMPDEST PUSH1 0x40 MLOAD PUSH1 0x20 DUP2 DUP4 SUB SUB DUP2 MSTORE SWAP1 PUSH1 0x40 MSTORE DUP1 MLOAD SWAP1 PUSH1 0x20 ADD KECCAK256 SWAP1 POP SWAP7 SWAP6 POP POP POP POP POP POP JUMP JUMPDEST PUSH32 0xB09AA5AEB3702CFD50B6B62BC4532604938F21248A27A1D5CA736082B6819CC1 PUSH2 0x968 DUP2 PUSH2 0xD85 JUMP JUMPDEST DUP9 DUP8 EQ ISZERO DUP1 PUSH2 0x977 JUMPI POP DUP9 DUP6 EQ ISZERO JUMPDEST ISZERO PUSH2 0x9A9 JUMPI PUSH1 0x40 MLOAD PUSH1 0x1 PUSH3 0x4FCDEF PUSH1 0xE0 SHL SUB NOT DUP2 MSTORE PUSH1 0x4 DUP2 ADD DUP11 SWAP1 MSTORE PUSH1 0x24 DUP2 ADD DUP7 SWAP1 MSTORE PUSH1 0x44 DUP2 ADD DUP9 SWAP1 MSTORE PUSH1 0x64 ADD PUSH2 0x86D JUMP JUMPDEST PUSH0 PUSH2 0x9BA DUP12 DUP12 DUP12 DUP12 DUP12 DUP12 DUP12 DUP12 PUSH2 0xAF2 JUMP JUMPDEST SWAP1 POP PUSH2 0x9C6 DUP2 DUP5 PUSH2 0xD92 JUMP JUMPDEST PUSH0 JUMPDEST DUP11 DUP2 LT ISZERO PUSH2 0xA7B JUMPI DUP1 DUP3 PUSH32 0x4CF4410CC57040E44862EF0F45F3DD5A5E02DB8EB8ADD648D4B0E236F1D07DCA DUP15 DUP15 DUP6 DUP2 DUP2 LT PUSH2 0xA05 JUMPI PUSH2 0xA05 PUSH2 0x1784 JUMP JUMPDEST SWAP1 POP PUSH1 0x20 MUL ADD PUSH1 0x20 DUP2 ADD SWAP1 PUSH2 0xA1A SWAP2 SWAP1 PUSH2 0x1798 JUMP JUMPDEST DUP14 DUP14 DUP7 DUP2 DUP2 LT PUSH2 0xA2C JUMPI PUSH2 0xA2C PUSH2 0x1784 JUMP JUMPDEST SWAP1 POP PUSH1 0x20 MUL ADD CALLDATALOAD DUP13 DUP13 DUP8 DUP2 DUP2 LT PUSH2 0xA45 JUMPI PUSH2 0xA45 PUSH2 0x1784 JUMP JUMPDEST SWAP1 POP PUSH1 0x20 MUL DUP2 ADD SWAP1 PUSH2 0xA57 SWAP2 SWAP1 PUSH2 0x17B1 JUMP JUMPDEST DUP13 DUP12 PUSH1 0x40 MLOAD PUSH2 0xA6B SWAP7 SWAP6 SWAP5 SWAP4 SWAP3 SWAP2 SWAP1 PUSH2 0x1717 JUMP JUMPDEST PUSH1 0x40 MLOAD DUP1 SWAP2 SUB SWAP1 LOG3 PUSH1 0x1 ADD PUSH2 0x9C8 JUMP JUMPDEST POP DUP4 ISZERO PUSH2 0xABD JUMPI DUP1 PUSH32 0x20FDA5FD27A1EA7BF5B9567F143AC5470BB059374A27E8F67CB44F946F6D0387 DUP6 PUSH1 0x40 MLOAD PUSH2 0xAB4 SWAP2 DUP2 MSTORE PUSH1 0x20 ADD SWAP1 JUMP JUMPDEST PUSH1 0x40 MLOAD DUP1 SWAP2 SUB SWAP1 LOG2 JUMPDEST POP POP POP POP POP POP POP POP POP POP POP JUMP JUMPDEST PUSH0 SWAP2 DUP3 MSTORE PUSH1 0x20 DUP3 DUP2 MSTORE PUSH1 0x40 DUP1 DUP5 KECCAK256 PUSH1 0x1 PUSH1 0x1 PUSH1 0xA0 SHL SUB SWAP4 SWAP1 SWAP4 AND DUP5 MSTORE SWAP2 SWAP1 MSTORE SWAP1 KECCAK256 SLOAD PUSH1 0xFF AND SWAP1 JUMP JUMPDEST PUSH0 DUP9 DUP9 DUP9 DUP9 DUP9 DUP9 DUP9 DUP9 PUSH1 0x40 MLOAD PUSH1 0x20 ADD PUSH2 0xB12 SWAP9 SWAP8 SWAP7 SWAP6 SWAP5 SWAP4 SWAP3 SWAP2 SWAP1 PUSH2 0x1884 JUMP JUMPDEST PUSH1 0x40 MLOAD PUSH1 0x20 DUP2 DUP4 SUB SUB DUP2 MSTORE SWAP1 PUSH1 0x40 MSTORE DUP1 MLOAD SWAP1 PUSH1 0x20 ADD KECCAK256 SWAP1 POP SWAP9 SWAP8 POP POP POP POP POP POP POP POP JUMP JUMPDEST PUSH32 0xFD643C72710C63C0180259ABA6B2D05451E3591A24E58B62239378085726F783 PUSH2 0xB60 DUP2 PUSH2 0xD85 JUMP JUMPDEST PUSH2 0xB69 DUP3 PUSH2 0x800 JUMP JUMPDEST PUSH2 0xBA5 JUMPI DUP2 PUSH2 0xB78 PUSH1 0x2 PUSH2 0x1069 JUMP JUMPDEST PUSH2 0xB82 PUSH1 0x1 PUSH2 0x1069 JUMP JUMPDEST PUSH1 0x40 MLOAD PUSH4 0x5EAD8EB5 PUSH1 0xE0 SHL DUP2 MSTORE PUSH1 0x4 DUP2 ADD SWAP4 SWAP1 SWAP4 MSTORE OR PUSH1 0x24 DUP3 ADD MSTORE PUSH1 0x44 ADD PUSH2 0x86D JUMP JUMPDEST PUSH0 DUP3 DUP2 MSTORE PUSH1 0x1 PUSH1 0x20 MSTORE PUSH1 0x40 DUP1 DUP3 KECCAK256 DUP3 SWAP1 SSTORE MLOAD DUP4 SWAP2 PUSH32 0xBAA1EB22F2A492BA1A5FEA61B8DF4D27C6C8B5F3971E63BB58FA14FF72EEDB70 SWAP2 LOG2 POP POP JUMP JUMPDEST PUSH0 DUP3 DUP2 MSTORE PUSH1 0x20 DUP2 SWAP1 MSTORE PUSH1 0x40 SWAP1 KECCAK256 PUSH1 0x1 ADD SLOAD PUSH2 0xBFA DUP2 PUSH2 0xD85 JUMP JUMPDEST PUSH2 0x79E DUP4 DUP4 PUSH2 0x1000 JUMP JUMPDEST PUSH32 0xD8AA0F3194971A2A116679F7C2090F6939C8D4E01A2A8D7E41D55E5351469E63 PUSH2 0xC2F DUP2 PUSH0 PUSH2 0xACA JUMP JUMPDEST PUSH2 0xC3D JUMPI PUSH2 0xC3D DUP2 CALLER PUSH2 0xE47 JUMP JUMPDEST DUP8 DUP7 EQ ISZERO DUP1 PUSH2 0xC4C JUMPI POP DUP8 DUP5 EQ ISZERO JUMPDEST ISZERO PUSH2 0xC7E JUMPI PUSH1 0x40 MLOAD PUSH1 0x1 PUSH3 0x4FCDEF PUSH1 0xE0 SHL SUB NOT DUP2 MSTORE PUSH1 0x4 DUP2 ADD DUP10 SWAP1 MSTORE PUSH1 0x24 DUP2 ADD DUP6 SWAP1 MSTORE PUSH1 0x44 DUP2 ADD DUP8 SWAP1 MSTORE PUSH1 0x64 ADD PUSH2 0x86D JUMP JUMPDEST PUSH0 PUSH2 0xC8F DUP11 DUP11 DUP11 DUP11 DUP11 DUP11 DUP11 DUP11 PUSH2 0xAF2 JUMP JUMPDEST SWAP1 POP PUSH2 0xC9B DUP2 DUP6 PUSH2 0xE84 JUMP JUMPDEST PUSH0 JUMPDEST DUP10 DUP2 LT ISZERO PUSH2 0xD6F JUMPI PUSH0 DUP12 DUP12 DUP4 DUP2 DUP2 LT PUSH2 0xCB8 JUMPI PUSH2 0xCB8 PUSH2 0x1784 JUMP JUMPDEST SWAP1 POP PUSH1 0x20 MUL ADD PUSH1 0x20 DUP2 ADD SWAP1 PUSH2 0xCCD SWAP2 SWAP1 PUSH2 0x1798 JUMP JUMPDEST SWAP1 POP PUSH0 DUP11 DUP11 DUP5 DUP2 DUP2 LT PUSH2 0xCE2 JUMPI PUSH2 0xCE2 PUSH2 0x1784 JUMP JUMPDEST SWAP1 POP PUSH1 0x20 MUL ADD CALLDATALOAD SWAP1 POP CALLDATASIZE PUSH0 DUP11 DUP11 DUP7 DUP2 DUP2 LT PUSH2 0xCFF JUMPI PUSH2 0xCFF PUSH2 0x1784 JUMP JUMPDEST SWAP1 POP PUSH1 0x20 MUL DUP2 ADD SWAP1 PUSH2 0xD11 SWAP2 SWAP1 PUSH2 0x17B1 JUMP JUMPDEST SWAP2 POP SWAP2 POP PUSH2 0xD21 DUP5 DUP5 DUP5 DUP5 PUSH2 0xED2 JUMP JUMPDEST DUP5 DUP7 PUSH32 0xC2617EFA69BAB66782FA219543714338489C4E9E178271560A91B82C3F612B58 DUP7 DUP7 DUP7 DUP7 PUSH1 0x40 MLOAD PUSH2 0xD58 SWAP5 SWAP4 SWAP3 SWAP2 SWAP1 PUSH2 0x1753 JUMP JUMPDEST PUSH1 0x40 MLOAD DUP1 SWAP2 SUB SWAP1 LOG3 POP POP POP POP DUP1 PUSH1 0x1 ADD SWAP1 POP PUSH2 0xC9D JUMP JUMPDEST POP PUSH2 0xD79 DUP2 PUSH2 0xF46 JUMP JUMPDEST POP POP POP POP POP POP POP POP POP POP JUMP JUMPDEST PUSH2 0xD8F DUP2 CALLER PUSH2 0xE47 JUMP JUMPDEST POP JUMP JUMPDEST PUSH2 0xD9B DUP3 PUSH2 0x7A4 JUMP JUMPDEST ISZERO PUSH2 0xDCC JUMPI DUP2 PUSH2 0xDAA PUSH0 PUSH2 0x1069 JUMP JUMPDEST PUSH1 0x40 MLOAD PUSH4 0x5EAD8EB5 PUSH1 0xE0 SHL DUP2 MSTORE PUSH1 0x4 DUP2 ADD SWAP3 SWAP1 SWAP3 MSTORE PUSH1 0x24 DUP3 ADD MSTORE PUSH1 0x44 ADD PUSH2 0x86D JUMP JUMPDEST PUSH0 PUSH2 0xDD6 PUSH1 0x2 SLOAD SWAP1 JUMP JUMPDEST SWAP1 POP DUP1 DUP3 LT ISZERO PUSH2 0xE03 JUMPI PUSH1 0x40 MLOAD PUSH4 0x54336609 PUSH1 0xE0 SHL DUP2 MSTORE PUSH1 0x4 DUP2 ADD DUP4 SWAP1 MSTORE PUSH1 0x24 DUP2 ADD DUP3 SWAP1 MSTORE PUSH1 0x44 ADD PUSH2 0x86D JUMP JUMPDEST PUSH2 0xE0D DUP3 TIMESTAMP PUSH2 0x1923 JUMP JUMPDEST PUSH0 SWAP4 DUP5 MSTORE PUSH1 0x1 PUSH1 0x20 MSTORE PUSH1 0x40 SWAP1 SWAP4 KECCAK256 SWAP3 SWAP1 SWAP3 SSTORE POP POP JUMP JUMPDEST PUSH0 PUSH1 0x1 PUSH1 0x1 PUSH1 0xE0 SHL SUB NOT DUP3 AND PUSH4 0x2711897 PUSH1 0xE5 SHL EQ DUP1 PUSH2 0x695 JUMPI POP PUSH2 0x695 DUP3 PUSH2 0x108B JUMP JUMPDEST PUSH2 0xE51 DUP3 DUP3 PUSH2 0xACA JUMP JUMPDEST PUSH2 0xE80 JUMPI PUSH1 0x40 MLOAD PUSH4 0xE2517D3F PUSH1 0xE0 SHL DUP2 MSTORE PUSH1 0x1 PUSH1 0x1 PUSH1 0xA0 SHL SUB DUP3 AND PUSH1 0x4 DUP3 ADD MSTORE PUSH1 0x24 DUP2 ADD DUP4 SWAP1 MSTORE PUSH1 0x44 ADD PUSH2 0x86D JUMP JUMPDEST POP POP JUMP JUMPDEST PUSH2 0xE8D DUP3 PUSH2 0x74D JUMP JUMPDEST PUSH2 0xE9C JUMPI DUP2 PUSH2 0xDAA PUSH1 0x2 PUSH2 0x1069 JUMP JUMPDEST DUP1 ISZERO DUP1 ISZERO SWAP1 PUSH2 0xEB1 JUMPI POP PUSH2 0xEAF DUP2 PUSH2 0x772 JUMP JUMPDEST ISZERO JUMPDEST ISZERO PUSH2 0xE80 JUMPI PUSH1 0x40 MLOAD PUSH4 0x121534C3 PUSH1 0xE3 SHL DUP2 MSTORE PUSH1 0x4 DUP2 ADD DUP3 SWAP1 MSTORE PUSH1 0x24 ADD PUSH2 0x86D JUMP JUMPDEST PUSH0 DUP1 DUP6 PUSH1 0x1 PUSH1 0x1 PUSH1 0xA0 SHL SUB AND DUP6 DUP6 DUP6 PUSH1 0x40 MLOAD PUSH2 0xEEF SWAP3 SWAP2 SWAP1 PUSH2 0x1942 JUMP JUMPDEST PUSH0 PUSH1 0x40 MLOAD DUP1 DUP4 SUB DUP2 DUP6 DUP8 GAS CALL SWAP3 POP POP POP RETURNDATASIZE DUP1 PUSH0 DUP2 EQ PUSH2 0xF29 JUMPI PUSH1 0x40 MLOAD SWAP2 POP PUSH1 0x1F NOT PUSH1 0x3F RETURNDATASIZE ADD AND DUP3 ADD PUSH1 0x40 MSTORE RETURNDATASIZE DUP3 MSTORE RETURNDATASIZE PUSH0 PUSH1 0x20 DUP5 ADD RETURNDATACOPY PUSH2 0xF2E JUMP JUMPDEST PUSH1 0x60 SWAP2 POP JUMPDEST POP SWAP2 POP SWAP2 POP PUSH2 0xF3D DUP3 DUP3 PUSH2 0x10BF JUMP JUMPDEST POP POP POP POP POP POP POP JUMP JUMPDEST PUSH2 0xF4F DUP2 PUSH2 0x74D JUMP JUMPDEST PUSH2 0xF5E JUMPI DUP1 PUSH2 0xDAA PUSH1 0x2 PUSH2 0x1069 JUMP JUMPDEST PUSH0 SWAP1 DUP2 MSTORE PUSH1 0x1 PUSH1 0x20 DUP2 SWAP1 MSTORE PUSH1 0x40 SWAP1 SWAP2 KECCAK256 SSTORE JUMP JUMPDEST PUSH0 PUSH2 0xF7C DUP4 DUP4 PUSH2 0xACA JUMP JUMPDEST PUSH2 0xFF9 JUMPI PUSH0 DUP4 DUP2 MSTORE PUSH1 0x20 DUP2 DUP2 MSTORE PUSH1 0x40 DUP1 DUP4 KECCAK256 PUSH1 0x1 PUSH1 0x1 PUSH1 0xA0 SHL SUB DUP7 AND DUP5 MSTORE SWAP1 SWAP2 MSTORE SWAP1 KECCAK256 DUP1 SLOAD PUSH1 0xFF NOT AND PUSH1 0x1 OR SWAP1 SSTORE PUSH2 0xFB1 CALLER SWAP1 JUMP JUMPDEST PUSH1 0x1 PUSH1 0x1 PUSH1 0xA0 SHL SUB AND DUP3 PUSH1 0x1 PUSH1 0x1 PUSH1 0xA0 SHL SUB AND DUP5 PUSH32 0x2F8788117E7EFF1D82E926EC794901D17C78024A50270940304540A733656F0D PUSH1 0x40 MLOAD PUSH1 0x40 MLOAD DUP1 SWAP2 SUB SWAP1 LOG4 POP PUSH1 0x1 PUSH2 0x695 JUMP JUMPDEST POP PUSH0 PUSH2 0x695 JUMP JUMPDEST PUSH0 PUSH2 0x100B DUP4 DUP4 PUSH2 0xACA JUMP JUMPDEST ISZERO PUSH2 0xFF9 JUMPI PUSH0 DUP4 DUP2 MSTORE PUSH1 0x20 DUP2 DUP2 MSTORE PUSH1 0x40 DUP1 DUP4 KECCAK256 PUSH1 0x1 PUSH1 0x1 PUSH1 0xA0 SHL SUB DUP7 AND DUP1 DUP6 MSTORE SWAP3 MSTORE DUP1 DUP4 KECCAK256 DUP1 SLOAD PUSH1 0xFF NOT AND SWAP1 SSTORE MLOAD CALLER SWAP3 DUP7 SWAP2 PUSH32 0xF6391F5C32D9C69D2A47EA670B442974B53935D1EDC7FD64EB21E047A839171B SWAP2 SWAP1 LOG4 POP PUSH1 0x1 PUSH2 0x695 JUMP JUMPDEST PUSH0 DUP2 PUSH1 0x3 DUP2 GT ISZERO PUSH2 0x107C JUMPI PUSH2 0x107C PUSH2 0x13B0 JUMP JUMPDEST PUSH1 0x1 PUSH1 0xFF SWAP2 SWAP1 SWAP2 AND SHL SWAP3 SWAP2 POP POP JUMP JUMPDEST PUSH0 PUSH1 0x1 PUSH1 0x1 PUSH1 0xE0 SHL SUB NOT DUP3 AND PUSH4 0x7965DB0B PUSH1 0xE0 SHL EQ DUP1 PUSH2 0x695 JUMPI POP PUSH4 0x1FFC9A7 PUSH1 0xE0 SHL PUSH1 0x1 PUSH1 0x1 PUSH1 0xE0 SHL SUB NOT DUP4 AND EQ PUSH2 0x695 JUMP JUMPDEST PUSH1 0x60 DUP3 PUSH2 0x10D4 JUMPI PUSH2 0x10CF DUP3 PUSH2 0x10DB JUMP JUMPDEST PUSH2 0x695 JUMP JUMPDEST POP DUP1 PUSH2 0x695 JUMP JUMPDEST DUP1 MLOAD ISZERO PUSH2 0x10EA JUMPI DUP1 MLOAD PUSH1 0x20 DUP3 ADD REVERT JUMPDEST PUSH1 0x40 MLOAD PUSH4 0xD6BDA275 PUSH1 0xE0 SHL DUP2 MSTORE PUSH1 0x4 ADD PUSH1 0x40 MLOAD DUP1 SWAP2 SUB SWAP1 REVERT JUMPDEST DUP1 CALLDATALOAD PUSH1 0x1 PUSH1 0x1 PUSH1 0xA0 SHL SUB DUP2 AND DUP2 EQ PUSH2 0x1119 JUMPI PUSH0 DUP1 REVERT JUMPDEST SWAP2 SWAP1 POP JUMP JUMPDEST PUSH0 DUP1 DUP4 PUSH1 0x1F DUP5 ADD SLT PUSH2 0x112E JUMPI PUSH0 DUP1 REVERT JUMPDEST POP DUP2 CALLDATALOAD PUSH1 0x1 PUSH1 0x1 PUSH1 0x40 SHL SUB DUP2 GT ISZERO PUSH2 0x1144 JUMPI PUSH0 DUP1 REVERT JUMPDEST PUSH1 0x20 DUP4 ADD SWAP2 POP DUP4 PUSH1 0x20 DUP3 DUP6 ADD ADD GT ISZERO PUSH2 0x115B JUMPI PUSH0 DUP1 REVERT JUMPDEST SWAP3 POP SWAP3 SWAP1 POP JUMP JUMPDEST PUSH0 DUP1 PUSH0 DUP1 PUSH0 DUP1 PUSH0 PUSH1 0xC0 DUP9 DUP11 SUB SLT ISZERO PUSH2 0x1178 JUMPI PUSH0 DUP1 REVERT JUMPDEST PUSH2 0x1181 DUP9 PUSH2 0x1103 JUMP JUMPDEST SWAP7 POP PUSH1 0x20 DUP9 ADD CALLDATALOAD SWAP6 POP PUSH1 0x40 DUP9 ADD CALLDATALOAD PUSH1 0x1 PUSH1 0x1 PUSH1 0x40 SHL SUB DUP2 GT ISZERO PUSH2 0x11A2 JUMPI PUSH0 DUP1 REVERT JUMPDEST PUSH2 0x11AE DUP11 DUP3 DUP12 ADD PUSH2 0x111E JUMP JUMPDEST SWAP9 SWAP12 SWAP8 SWAP11 POP SWAP9 PUSH1 0x60 DUP2 ADD CALLDATALOAD SWAP8 PUSH1 0x80 DUP3 ADD CALLDATALOAD SWAP8 POP PUSH1 0xA0 SWAP1 SWAP2 ADD CALLDATALOAD SWAP6 POP SWAP4 POP POP POP POP JUMP JUMPDEST PUSH0 PUSH1 0x20 DUP3 DUP5 SUB SLT ISZERO PUSH2 0x11E0 JUMPI PUSH0 DUP1 REVERT JUMPDEST DUP2 CALLDATALOAD PUSH1 0x1 PUSH1 0x1 PUSH1 0xE0 SHL SUB NOT DUP2 AND DUP2 EQ PUSH2 0x83E JUMPI PUSH0 DUP1 REVERT JUMPDEST PUSH0 DUP1 PUSH0 DUP1 PUSH0 DUP1 PUSH1 0xA0 DUP8 DUP10 SUB SLT ISZERO PUSH2 0x120C JUMPI PUSH0 DUP1 REVERT JUMPDEST PUSH2 0x1215 DUP8 PUSH2 0x1103 JUMP JUMPDEST SWAP6 POP PUSH1 0x20 DUP8 ADD CALLDATALOAD SWAP5 POP PUSH1 0x40 DUP8 ADD CALLDATALOAD PUSH1 0x1 PUSH1 0x1 PUSH1 0x40 SHL SUB DUP2 GT ISZERO PUSH2 0x1236 JUMPI PUSH0 DUP1 REVERT JUMPDEST PUSH2 0x1242 DUP10 DUP3 DUP11 ADD PUSH2 0x111E JUMP JUMPDEST SWAP8 SWAP11 SWAP7 SWAP10 POP SWAP8 PUSH1 0x60 DUP2 ADD CALLDATALOAD SWAP7 PUSH1 0x80 SWAP1 SWAP2 ADD CALLDATALOAD SWAP6 POP SWAP4 POP POP POP POP JUMP JUMPDEST PUSH0 PUSH1 0x20 DUP3 DUP5 SUB SLT ISZERO PUSH2 0x126D JUMPI PUSH0 DUP1 REVERT JUMPDEST POP CALLDATALOAD SWAP2 SWAP1 POP JUMP JUMPDEST PUSH4 0x4E487B71 PUSH1 0xE0 SHL PUSH0 MSTORE PUSH1 0x41 PUSH1 0x4 MSTORE PUSH1 0x24 PUSH0 REVERT JUMPDEST PUSH1 0x40 MLOAD PUSH1 0x1F DUP3 ADD PUSH1 0x1F NOT AND DUP2 ADD PUSH1 0x1 PUSH1 0x1 PUSH1 0x40 SHL SUB DUP2 GT DUP3 DUP3 LT OR ISZERO PUSH2 0x12B0 JUMPI PUSH2 0x12B0 PUSH2 0x1274 JUMP JUMPDEST PUSH1 0x40 MSTORE SWAP2 SWAP1 POP JUMP JUMPDEST PUSH0 DUP3 PUSH1 0x1F DUP4 ADD SLT PUSH2 0x12C7 JUMPI PUSH0 DUP1 REVERT JUMPDEST DUP2 CALLDATALOAD PUSH1 0x1 PUSH1 0x1 PUSH1 0x40 SHL SUB DUP2 GT ISZERO PUSH2 0x12E0 JUMPI PUSH2 0x12E0 PUSH2 0x1274 JUMP JUMPDEST PUSH2 0x12F3 PUSH1 0x1F DUP3 ADD PUSH1 0x1F NOT AND PUSH1 0x20 ADD PUSH2 0x1288 JUMP JUMPDEST DUP2 DUP2 MSTORE DUP5 PUSH1 0x20 DUP4 DUP7 ADD ADD GT ISZERO PUSH2 0x1307 JUMPI PUSH0 DUP1 REVERT JUMPDEST DUP2 PUSH1 0x20 DUP6 ADD PUSH1 0x20 DUP4 ADD CALLDATACOPY PUSH0 SWAP2 DUP2 ADD PUSH1 0x20 ADD SWAP2 SWAP1 SWAP2 MSTORE SWAP4 SWAP3 POP POP POP JUMP JUMPDEST PUSH0 DUP1 PUSH0 DUP1 PUSH1 0x80 DUP6 DUP8 SUB SLT ISZERO PUSH2 0x1336 JUMPI PUSH0 DUP1 REVERT JUMPDEST PUSH2 0x133F DUP6 PUSH2 0x1103 JUMP JUMPDEST SWAP4 POP PUSH2 0x134D PUSH1 0x20 DUP7 ADD PUSH2 0x1103 JUMP JUMPDEST SWAP3 POP PUSH1 0x40 DUP6 ADD CALLDATALOAD SWAP2 POP PUSH1 0x60 DUP6 ADD CALLDATALOAD PUSH1 0x1 PUSH1 0x1 PUSH1 0x40 SHL SUB DUP2 GT ISZERO PUSH2 0x136E JUMPI PUSH0 DUP1 REVERT JUMPDEST PUSH2 0x137A DUP8 DUP3 DUP9 ADD PUSH2 0x12B8 JUMP JUMPDEST SWAP2 POP POP SWAP3 SWAP6 SWAP2 SWAP5 POP SWAP3 POP JUMP JUMPDEST PUSH0 DUP1 PUSH1 0x40 DUP4 DUP6 SUB SLT ISZERO PUSH2 0x1397 JUMPI PUSH0 DUP1 REVERT JUMPDEST DUP3 CALLDATALOAD SWAP2 POP PUSH2 0x13A7 PUSH1 0x20 DUP5 ADD PUSH2 0x1103 JUMP JUMPDEST SWAP1 POP SWAP3 POP SWAP3 SWAP1 POP JUMP JUMPDEST PUSH4 0x4E487B71 PUSH1 0xE0 SHL PUSH0 MSTORE PUSH1 0x21 PUSH1 0x4 MSTORE PUSH1 0x24 PUSH0 REVERT JUMPDEST PUSH1 0x20 DUP2 ADD PUSH1 0x4 DUP4 LT PUSH2 0x13E4 JUMPI PUSH4 0x4E487B71 PUSH1 0xE0 SHL PUSH0 MSTORE PUSH1 0x21 PUSH1 0x4 MSTORE PUSH1 0x24 PUSH0 REVERT JUMPDEST SWAP2 SWAP1 MSTORE SWAP1 JUMP JUMPDEST PUSH0 DUP1 DUP4 PUSH1 0x1F DUP5 ADD SLT PUSH2 0x13FA JUMPI PUSH0 DUP1 REVERT JUMPDEST POP DUP2 CALLDATALOAD PUSH1 0x1 PUSH1 0x1 PUSH1 0x40 SHL SUB DUP2 GT ISZERO PUSH2 0x1410 JUMPI PUSH0 DUP1 REVERT JUMPDEST PUSH1 0x20 DUP4 ADD SWAP2 POP DUP4 PUSH1 0x20 DUP3 PUSH1 0x5 SHL DUP6 ADD ADD GT ISZERO PUSH2 0x115B JUMPI PUSH0 DUP1 REVERT JUMPDEST PUSH0 DUP1 PUSH0 DUP1 PUSH0 DUP1 PUSH0 DUP1 PUSH0 PUSH1 0xC0 DUP11 DUP13 SUB SLT ISZERO PUSH2 0x1442 JUMPI PUSH0 DUP1 REVERT JUMPDEST DUP10 CALLDATALOAD PUSH1 0x1 PUSH1 0x1 PUSH1 0x40 SHL SUB DUP1 DUP3 GT ISZERO PUSH2 0x1458 JUMPI PUSH0 DUP1 REVERT JUMPDEST PUSH2 0x1464 DUP14 DUP4 DUP15 ADD PUSH2 0x13EA JUMP JUMPDEST SWAP1 SWAP12 POP SWAP10 POP PUSH1 0x20 DUP13 ADD CALLDATALOAD SWAP2 POP DUP1 DUP3 GT ISZERO PUSH2 0x147C JUMPI PUSH0 DUP1 REVERT JUMPDEST PUSH2 0x1488 DUP14 DUP4 DUP15 ADD PUSH2 0x13EA JUMP JUMPDEST SWAP1 SWAP10 POP SWAP8 POP PUSH1 0x40 DUP13 ADD CALLDATALOAD SWAP2 POP DUP1 DUP3 GT ISZERO PUSH2 0x14A0 JUMPI PUSH0 DUP1 REVERT JUMPDEST POP PUSH2 0x14AD DUP13 DUP3 DUP14 ADD PUSH2 0x13EA JUMP JUMPDEST SWAP11 SWAP14 SWAP10 SWAP13 POP SWAP8 SWAP11 SWAP7 SWAP10 SWAP8 SWAP9 PUSH1 0x60 DUP9 ADD CALLDATALOAD SWAP8 PUSH1 0x80 DUP2 ADD CALLDATALOAD SWAP8 POP PUSH1 0xA0 ADD CALLDATALOAD SWAP6 POP SWAP4 POP POP POP POP JUMP JUMPDEST PUSH0 DUP1 PUSH0 DUP1 PUSH0 DUP1 PUSH0 DUP1 PUSH1 0xA0 DUP10 DUP12 SUB SLT ISZERO PUSH2 0x14E9 JUMPI PUSH0 DUP1 REVERT JUMPDEST DUP9 CALLDATALOAD PUSH1 0x1 PUSH1 0x1 PUSH1 0x40 SHL SUB DUP1 DUP3 GT ISZERO PUSH2 0x14FF JUMPI PUSH0 DUP1 REVERT JUMPDEST PUSH2 0x150B DUP13 DUP4 DUP14 ADD PUSH2 0x13EA JUMP JUMPDEST SWAP1 SWAP11 POP SWAP9 POP PUSH1 0x20 DUP12 ADD CALLDATALOAD SWAP2 POP DUP1 DUP3 GT ISZERO PUSH2 0x1523 JUMPI PUSH0 DUP1 REVERT JUMPDEST PUSH2 0x152F DUP13 DUP4 DUP14 ADD PUSH2 0x13EA JUMP JUMPDEST SWAP1 SWAP9 POP SWAP7 POP PUSH1 0x40 DUP12 ADD CALLDATALOAD SWAP2 POP DUP1 DUP3 GT ISZERO PUSH2 0x1547 JUMPI PUSH0 DUP1 REVERT JUMPDEST POP PUSH2 0x1554 DUP12 DUP3 DUP13 ADD PUSH2 0x13EA JUMP JUMPDEST SWAP10 SWAP13 SWAP9 SWAP12 POP SWAP7 SWAP10 SWAP6 SWAP9 SWAP7 SWAP8 PUSH1 0x60 DUP8 ADD CALLDATALOAD SWAP7 PUSH1 0x80 ADD CALLDATALOAD SWAP6 POP SWAP4 POP POP POP POP JUMP JUMPDEST PUSH0 DUP3 PUSH1 0x1F DUP4 ADD SLT PUSH2 0x1581 JUMPI PUSH0 DUP1 REVERT JUMPDEST DUP2 CALLDATALOAD PUSH1 0x20 PUSH1 0x1 PUSH1 0x1 PUSH1 0x40 SHL SUB DUP3 GT ISZERO PUSH2 0x159C JUMPI PUSH2 0x159C PUSH2 0x1274 JUMP JUMPDEST DUP2 PUSH1 0x5 SHL PUSH2 0x15AB DUP3 DUP3 ADD PUSH2 0x1288 JUMP JUMPDEST SWAP3 DUP4 MSTORE DUP5 DUP2 ADD DUP3 ADD SWAP3 DUP3 DUP2 ADD SWAP1 DUP8 DUP6 GT ISZERO PUSH2 0x15C4 JUMPI PUSH0 DUP1 REVERT JUMPDEST DUP4 DUP8 ADD SWAP3 POP JUMPDEST DUP5 DUP4 LT ISZERO PUSH2 0x15E3 JUMPI DUP3 CALLDATALOAD DUP3 MSTORE SWAP2 DUP4 ADD SWAP2 SWAP1 DUP4 ADD SWAP1 PUSH2 0x15CA JUMP JUMPDEST SWAP8 SWAP7 POP POP POP POP POP POP POP JUMP JUMPDEST PUSH0 DUP1 PUSH0 DUP1 PUSH0 PUSH1 0xA0 DUP7 DUP9 SUB SLT ISZERO PUSH2 0x1602 JUMPI PUSH0 DUP1 REVERT JUMPDEST PUSH2 0x160B DUP7 PUSH2 0x1103 JUMP JUMPDEST SWAP5 POP PUSH2 0x1619 PUSH1 0x20 DUP8 ADD PUSH2 0x1103 JUMP JUMPDEST SWAP4 POP PUSH1 0x40 DUP7 ADD CALLDATALOAD PUSH1 0x1 PUSH1 0x1 PUSH1 0x40 SHL SUB DUP1 DUP3 GT ISZERO PUSH2 0x1634 JUMPI PUSH0 DUP1 REVERT JUMPDEST PUSH2 0x1640 DUP10 DUP4 DUP11 ADD PUSH2 0x1572 JUMP JUMPDEST SWAP5 POP PUSH1 0x60 DUP9 ADD CALLDATALOAD SWAP2 POP DUP1 DUP3 GT ISZERO PUSH2 0x1655 JUMPI PUSH0 DUP1 REVERT JUMPDEST PUSH2 0x1661 DUP10 DUP4 DUP11 ADD PUSH2 0x1572 JUMP JUMPDEST SWAP4 POP PUSH1 0x80 DUP9 ADD CALLDATALOAD SWAP2 POP DUP1 DUP3 GT ISZERO PUSH2 0x1676 JUMPI PUSH0 DUP1 REVERT JUMPDEST POP PUSH2 0x1683 DUP9 DUP3 DUP10 ADD PUSH2 0x12B8 JUMP JUMPDEST SWAP2 POP POP SWAP3 SWAP6 POP SWAP3 SWAP6 SWAP1 SWAP4 POP JUMP JUMPDEST PUSH0 DUP1 PUSH0 DUP1 PUSH0 PUSH1 0xA0 DUP7 DUP9 SUB SLT ISZERO PUSH2 0x16A4 JUMPI PUSH0 DUP1 REVERT JUMPDEST PUSH2 0x16AD DUP7 PUSH2 0x1103 JUMP JUMPDEST SWAP5 POP PUSH2 0x16BB PUSH1 0x20 DUP8 ADD PUSH2 0x1103 JUMP JUMPDEST SWAP4 POP PUSH1 0x40 DUP7 ADD CALLDATALOAD SWAP3 POP PUSH1 0x60 DUP7 ADD CALLDATALOAD SWAP2 POP PUSH1 0x80 DUP7 ADD CALLDATALOAD PUSH1 0x1 PUSH1 0x1 PUSH1 0x40 SHL SUB DUP2 GT ISZERO PUSH2 0x16E3 JUMPI PUSH0 DUP1 REVERT JUMPDEST PUSH2 0x1683 DUP9 DUP3 DUP10 ADD PUSH2 0x12B8 JUMP JUMPDEST DUP2 DUP4 MSTORE DUP2 DUP2 PUSH1 0x20 DUP6 ADD CALLDATACOPY POP PUSH0 DUP3 DUP3 ADD PUSH1 0x20 SWAP1 DUP2 ADD SWAP2 SWAP1 SWAP2 MSTORE PUSH1 0x1F SWAP1 SWAP2 ADD PUSH1 0x1F NOT AND SWAP1 SWAP2 ADD ADD SWAP1 JUMP JUMPDEST PUSH1 0x1 DUP1 PUSH1 0xA0 SHL SUB DUP8 AND DUP2 MSTORE DUP6 PUSH1 0x20 DUP3 ADD MSTORE PUSH1 0xA0 PUSH1 0x40 DUP3 ADD MSTORE PUSH0 PUSH2 0x173E PUSH1 0xA0 DUP4 ADD DUP7 DUP9 PUSH2 0x16EF JUMP JUMPDEST PUSH1 0x60 DUP4 ADD SWAP5 SWAP1 SWAP5 MSTORE POP PUSH1 0x80 ADD MSTORE SWAP5 SWAP4 POP POP POP POP JUMP JUMPDEST PUSH1 0x1 DUP1 PUSH1 0xA0 SHL SUB DUP6 AND DUP2 MSTORE DUP4 PUSH1 0x20 DUP3 ADD MSTORE PUSH1 0x60 PUSH1 0x40 DUP3 ADD MSTORE PUSH0 PUSH2 0x177A PUSH1 0x60 DUP4 ADD DUP5 DUP7 PUSH2 0x16EF JUMP JUMPDEST SWAP7 SWAP6 POP POP POP POP POP POP JUMP JUMPDEST PUSH4 0x4E487B71 PUSH1 0xE0 SHL PUSH0 MSTORE PUSH1 0x32 PUSH1 0x4 MSTORE PUSH1 0x24 PUSH0 REVERT JUMPDEST PUSH0 PUSH1 0x20 DUP3 DUP5 SUB SLT ISZERO PUSH2 0x17A8 JUMPI PUSH0 DUP1 REVERT JUMPDEST PUSH2 0x83E DUP3 PUSH2 0x1103 JUMP JUMPDEST PUSH0 DUP1 DUP4 CALLDATALOAD PUSH1 0x1E NOT DUP5 CALLDATASIZE SUB ADD DUP2 SLT PUSH2 0x17C6 JUMPI PUSH0 DUP1 REVERT JUMPDEST DUP4 ADD DUP1 CALLDATALOAD SWAP2 POP PUSH1 0x1 PUSH1 0x1 PUSH1 0x40 SHL SUB DUP3 GT ISZERO PUSH2 0x17DF JUMPI PUSH0 DUP1 REVERT JUMPDEST PUSH1 0x20 ADD SWAP2 POP CALLDATASIZE DUP2 SWAP1 SUB DUP3 SGT ISZERO PUSH2 0x115B JUMPI PUSH0 DUP1 REVERT JUMPDEST PUSH0 DUP4 DUP4 DUP6 MSTORE PUSH1 0x20 DUP1 DUP7 ADD SWAP6 POP PUSH1 0x20 DUP6 PUSH1 0x5 SHL DUP4 ADD ADD DUP5 PUSH0 JUMPDEST DUP8 DUP2 LT ISZERO PUSH2 0x1877 JUMPI DUP5 DUP4 SUB PUSH1 0x1F NOT ADD DUP10 MSTORE DUP2 CALLDATALOAD CALLDATASIZE DUP9 SWAP1 SUB PUSH1 0x1E NOT ADD DUP2 SLT PUSH2 0x1830 JUMPI PUSH0 DUP1 REVERT JUMPDEST DUP8 ADD DUP5 DUP2 ADD SWAP1 CALLDATALOAD PUSH1 0x1 PUSH1 0x1 PUSH1 0x40 SHL SUB DUP2 GT ISZERO PUSH2 0x184A JUMPI PUSH0 DUP1 REVERT JUMPDEST DUP1 CALLDATASIZE SUB DUP3 SGT ISZERO PUSH2 0x1858 JUMPI PUSH0 DUP1 REVERT JUMPDEST PUSH2 0x1863 DUP6 DUP3 DUP5 PUSH2 0x16EF JUMP JUMPDEST SWAP11 DUP7 ADD SWAP11 SWAP5 POP POP POP SWAP1 DUP4 ADD SWAP1 PUSH1 0x1 ADD PUSH2 0x180B JUMP JUMPDEST POP SWAP1 SWAP8 SWAP7 POP POP POP POP POP POP POP JUMP JUMPDEST PUSH1 0xA0 DUP1 DUP3 MSTORE DUP2 ADD DUP9 SWAP1 MSTORE PUSH0 DUP10 PUSH1 0xC0 DUP4 ADD DUP3 JUMPDEST DUP12 DUP2 LT ISZERO PUSH2 0x18C4 JUMPI PUSH1 0x1 PUSH1 0x1 PUSH1 0xA0 SHL SUB PUSH2 0x18AF DUP5 PUSH2 0x1103 JUMP JUMPDEST AND DUP3 MSTORE PUSH1 0x20 SWAP3 DUP4 ADD SWAP3 SWAP1 SWAP2 ADD SWAP1 PUSH1 0x1 ADD PUSH2 0x1896 JUMP JUMPDEST POP DUP4 DUP2 SUB PUSH1 0x20 DUP6 ADD MSTORE DUP9 DUP2 MSTORE PUSH1 0x1 PUSH1 0x1 PUSH1 0xFB SHL SUB DUP10 GT ISZERO PUSH2 0x18E3 JUMPI PUSH0 DUP1 REVERT JUMPDEST DUP9 PUSH1 0x5 SHL SWAP2 POP DUP2 DUP11 PUSH1 0x20 DUP4 ADD CALLDATACOPY ADD DUP3 DUP2 SUB PUSH1 0x20 SWAP1 DUP2 ADD PUSH1 0x40 DUP6 ADD MSTORE PUSH2 0x190B SWAP1 DUP3 ADD DUP8 DUP10 PUSH2 0x17F3 JUMP JUMPDEST PUSH1 0x60 DUP5 ADD SWAP6 SWAP1 SWAP6 MSTORE POP POP PUSH1 0x80 ADD MSTORE SWAP7 SWAP6 POP POP POP POP POP POP JUMP JUMPDEST DUP1 DUP3 ADD DUP1 DUP3 GT ISZERO PUSH2 0x695 JUMPI PUSH4 0x4E487B71 PUSH1 0xE0 SHL PUSH0 MSTORE PUSH1 0x11 PUSH1 0x4 MSTORE PUSH1 0x24 PUSH0 REVERT JUMPDEST DUP2 DUP4 DUP3 CALLDATACOPY PUSH0 SWAP2 ADD SWAP1 DUP2 MSTORE SWAP2 SWAP1 POP JUMP INVALID LOG2 PUSH5 0x6970667358 0x22 SLT KECCAK256 CALLDATACOPY CALLDATACOPY SWAP10 PUSH7 0x76DA80DE1A42F5 PUSH17 0x8445CFF93F1CC64B5CFB7CD1A951CE9AC1 PUSH8 0x109064736F6C6343 STOP ADDMOD XOR STOP CALLER "
		},
		"gasEstimates": {
			"creation": {
				"codeDepositCost": "1307000",
				"executionCost": "infinite",
				"totalCost": "infinite"
			},
			"external": {
				"CANCELLER_ROLE()": "283",
				"DEFAULT_ADMIN_ROLE()": "260",
				"EXECUTOR_ROLE()": "285",
				"PROPOSER_ROLE()": "284",
				"cancel(bytes32)": "11318",
				"execute(address,uint256,bytes,bytes32,bytes32)": "infinite",
				"executeBatch(address[],uint256[],bytes[],bytes32,bytes32)": "infinite",
				"getMinDelay()": "2401",
				"getOperationState(bytes32)": "2687",
				"getRoleAdmin(bytes32)": "2556",
				"getTimestamp(bytes32)": "2524",
				"grantRole(bytes32,address)": "infinite",
				"hasRole(bytes32,address)": "2693",
				"hashOperation(address,uint256,bytes,bytes32,bytes32)": "infinite",
				"hashOperationBatch(address[],uint256[],bytes[],bytes32,bytes32)": "infinite",
				"isOperation(bytes32)": "2688",
				"isOperationDone(bytes32)": "2653",
				"isOperationPending(bytes32)": "2729",
				"isOperationReady(bytes32)": "2664",
				"onERC1155BatchReceived(address,address,uint256[],uint256[],bytes)": "infinite",
				"onERC1155Received(address,address,uint256,uint256,bytes)": "infinite",
				"onERC721Received(address,address,uint256,bytes)": "infinite",
				"renounceRole(bytes32,address)": "29063",
				"revokeRole(bytes32,address)": "infinite",
				"schedule(address,uint256,bytes,bytes32,bytes32,uint256)": "infinite",
				"scheduleBatch(address[],uint256[],bytes[],bytes32,bytes32,uint256)": "infinite",
				"supportsInterface(bytes4)": "infinite",
				"updateDelay(uint256)": "25874"
			}
		},
		"methodIdentifiers": {
			"CANCELLER_ROLE()": "b08e51c0",
			"DEFAULT_ADMIN_ROLE()": "a217fddf",
			"EXECUTOR_ROLE()": "07bd0265",
			"PROPOSER_ROLE()": "8f61f4f5",
			"cancel(bytes32)": "c4d252f5",
			"execute(address,uint256,bytes,bytes32,bytes32)": "134008d3",
			"executeBatch(address[],uint256[],bytes[],bytes32,bytes32)": "e38335e5",
			"getMinDelay()": "f27a0c92",
			"getOperationState(bytes32)": "7958004c",
			"getRoleAdmin(bytes32)": "248a9ca3",
			"getTimestamp(bytes32)": "d45c4435",
			"grantRole(bytes32,address)": "2f2ff15d",
			"hasRole(bytes32,address)": "91d14854",
			"hashOperation(address,uint256,bytes,bytes32,bytes32)": "8065657f",
			"hashOperationBatch(address[],uint256[],bytes[],bytes32,bytes32)": "b1c5f427",
			"isOperation(bytes32)": "31d50750",
			"isOperationDone(bytes32)": "2ab0f529",
			"isOperationPending(bytes32)": "584b153e",
			"isOperationReady(bytes32)": "13bc9f20",
			"onERC1155BatchReceived(address,address,uint256[],uint256[],bytes)": "bc197c81",
			"onERC1155Received(address,address,uint256,uint256,bytes)": "f23a6e61",
			"onERC721Received(address,address,uint256,bytes)": "150b7a02",
			"renounceRole(bytes32,address)": "36568abe",
			"revokeRole(bytes32,address)": "d547741f",
			"schedule(address,uint256,bytes,bytes32,bytes32,uint256)": "01d5062a",
			"scheduleBatch(address[],uint256[],bytes[],bytes32,bytes32,uint256)": "8f2a0bb0",
			"supportsInterface(bytes4)": "01ffc9a7",
			"updateDelay(uint256)": "64d62353"
		}
	},
	"abi": [
		{
			"inputs": [
				{
					"internalType": "uint256",
					"name": "minDelaySeconds",
					"type": "uint256"
				},
				{
					"internalType": "address[]",
					"name": "proposers",
					"type": "address[]"
				},
				{
					"internalType": "address[]",
					"name": "executors",
					"type": "address[]"
				},
				{
					"internalType": "address",
					"name": "admin",
					"type": "address"
				}
			],
			"stateMutability": "nonpayable",
			"type": "constructor"
		},
		{
			"inputs": [],
			"name": "AccessControlBadConfirmation",
			"type": "error"
		},
		{
			"inputs": [
				{
					"internalType": "address",
					"name": "account",
					"type": "address"
				},
				{
					"internalType": "bytes32",
					"name": "neededRole",
					"type": "bytes32"
				}
			],
			"name": "AccessControlUnauthorizedAccount",
			"type": "error"
		},
		{
			"inputs": [],
			"name": "FailedCall",
			"type": "error"
		},
		{
			"inputs": [
				{
					"internalType": "uint256",
					"name": "delay",
					"type": "uint256"
				},
				{
					"internalType": "uint256",
					"name": "minDelay",
					"type": "uint256"
				}
			],
			"name": "TimelockInsufficientDelay",
			"type": "error"
		},
		{
			"inputs": [
				{
					"internalType": "uint256",
					"name": "targets",
					"type": "uint256"
				},
				{
					"internalType": "uint256",
					"name": "payloads",
					"type": "uint256"
				},
				{
					"internalType": "uint256",
					"name": "values",
					"type": "uint256"
				}
			],
			"name": "TimelockInvalidOperationLength",
			"type": "error"
		},
		{
			"inputs": [
				{
					"internalType": "address",
					"name": "caller",
					"type": "address"
				}
			],
			"name": "TimelockUnauthorizedCaller",
			"type": "error"
		},
		{
			"inputs": [
				{
					"internalType": "bytes32",
					"name": "predecessorId",
					"type": "bytes32"
				}
			],
			"name": "TimelockUnexecutedPredecessor",
			"type": "error"
		},
		{
			"inputs": [
				{
					"internalType": "bytes32",
					"name": "operationId",
					"type": "bytes32"
				},
				{
					"internalType": "bytes32",
					"name": "expectedStates",
					"type": "bytes32"
				}
			],
			"name": "TimelockUnexpectedOperationState",
			"type": "error"
		},
		{
			"anonymous": false,
			"inputs": [
				{
					"indexed": true,
					"internalType": "bytes32",
					"name": "id",
					"type": "bytes32"
				},
				{
					"indexed": true,
					"internalType": "uint256",
					"name": "index",
					"type": "uint256"
				},
				{
					"indexed": false,
					"internalType": "address",
					"name": "target",
					"type": "address"
				},
				{
					"indexed": false,
					"internalType": "uint256",
					"name": "value",
					"type": "uint256"
				},
				{
					"indexed": false,
					"internalType": "bytes",
					"name": "data",
					"type": "bytes"
				}
			],
			"name": "CallExecuted",
			"type": "event"
		},
		{
			"anonymous": false,
			"inputs": [
				{
					"indexed": true,
					"internalType": "bytes32",
					"name": "id",
					"type": "bytes32"
				},
				{
					"indexed": false,
					"internalType": "bytes32",
					"name": "salt",
					"type": "bytes32"
				}
			],
			"name": "CallSalt",
			"type": "event"
		},
		{
			"anonymous": false,
			"inputs": [
				{
					"indexed": true,
					"internalType": "bytes32",
					"name": "id",
					"type": "bytes32"
				},
				{
					"indexed": true,
					"internalType": "uint256",
					"name": "index",
					"type": "uint256"
				},
				{
					"indexed": false,
					"internalType": "address",
					"name": "target",
					"type": "address"
				},
				{
					"indexed": false,
					"internalType": "uint256",
					"name": "value",
					"type": "uint256"
				},
				{
					"indexed": false,
					"internalType": "bytes",
					"name": "data",
					"type": "bytes"
				},
				{
					"indexed": false,
					"internalType": "bytes32",
					"name": "predecessor",
					"type": "bytes32"
				},
				{
					"indexed": false,
					"internalType": "uint256",
					"name": "delay",
					"type": "uint256"
				}
			],
			"name": "CallScheduled",
			"type": "event"
		},
		{
			"anonymous": false,
			"inputs": [
				{
					"indexed": true,
					"internalType": "bytes32",
					"name": "id",
					"type": "bytes32"
				}
			],
			"name": "Cancelled",
			"type": "event"
		},
		{
			"anonymous": false,
			"inputs": [
				{
					"indexed": false,
					"internalType": "uint256",
					"name": "oldDuration",
					"type": "uint256"
				},
				{
					"indexed": false,
					"internalType": "uint256",
					"name": "newDuration",
					"type": "uint256"
				}
			],
			"name": "MinDelayChange",
			"type": "event"
		},
		{
			"anonymous": false,
			"inputs": [
				{
					"indexed": true,
					"internalType": "bytes32",
					"name": "role",
					"type": "bytes32"
				},
				{
					"indexed": true,
					"internalType": "bytes32",
					"name": "previousAdminRole",
					"type": "bytes32"
				},
				{
					"indexed": true,
					"internalType": "bytes32",
					"name": "newAdminRole",
					"type": "bytes32"
				}
			],
			"name": "RoleAdminChanged",
			"type": "event"
		},
		{
			"anonymous": false,
			"inputs": [
				{
					"indexed": true,
					"internalType": "bytes32",
					"name": "role",
					"type": "bytes32"
				},
				{
					"indexed": true,
					"internalType": "address",
					"name": "account",
					"type": "address"
				},
				{
					"indexed": true,
					"internalType": "address",
					"name": "sender",
					"type": "address"
				}
			],
			"name": "RoleGranted",
			"type": "event"
		},
		{
			"anonymous": false,
			"inputs": [
				{
					"indexed": true,
					"internalType": "bytes32",
					"name": "role",
					"type": "bytes32"
				},
				{
					"indexed": true,
					"internalType": "address",
					"name": "account",
					"type": "address"
				},
				{
					"indexed": true,
					"internalType": "address",
					"name": "sender",
					"type": "address"
				}
			],
			"name": "RoleRevoked",
			"type": "event"
		},
		{
			"inputs": [],
			"name": "CANCELLER_ROLE",
			"outputs": [
				{
					"internalType": "bytes32",
					"name": "",
					"type": "bytes32"
				}
			],
			"stateMutability": "view",
			"type": "function"
		},
		{
			"inputs": [],
			"name": "DEFAULT_ADMIN_ROLE",
			"outputs": [
				{
					"internalType": "bytes32",
					"name": "",
					"type": "bytes32"
				}
			],
			"stateMutability": "view",
			"type": "function"
		},
		{
			"inputs": [],
			"name": "EXECUTOR_ROLE",
			"outputs": [
				{
					"internalType": "bytes32",
					"name": "",
					"type": "bytes32"
				}
			],
			"stateMutability": "view",
			"type": "function"
		},
		{
			"inputs": [],
			"name": "PROPOSER_ROLE",
			"outputs": [
				{
					"internalType": "bytes32",
					"name": "",
					"type": "bytes32"
				}
			],
			"stateMutability": "view",
			"type": "function"
		},
		{
			"inputs": [
				{
					"internalType": "bytes32",
					"name": "id",
					"type": "bytes32"
				}
			],
			"name": "cancel",
			"outputs": [],
			"stateMutability": "nonpayable",
			"type": "function"
		},
		{
			"inputs": [
				{
					"internalType": "address",
					"name": "target",
					"type": "address"
				},
				{
					"internalType": "uint256",
					"name": "value",
					"type": "uint256"
				},
				{
					"internalType": "bytes",
					"name": "payload",
					"type": "bytes"
				},
				{
					"internalType": "bytes32",
					"name": "predecessor",
					"type": "bytes32"
				},
				{
					"internalType": "bytes32",
					"name": "salt",
					"type": "bytes32"
				}
			],
			"name": "execute",
			"outputs": [],
			"stateMutability": "payable",
			"type": "function"
		},
		{
			"inputs": [
				{
					"internalType": "address[]",
					"name": "targets",
					"type": "address[]"
				},
				{
					"internalType": "uint256[]",
					"name": "values",
					"type": "uint256[]"
				},
				{
					"internalType": "bytes[]",
					"name": "payloads",
					"type": "bytes[]"
				},
				{
					"internalType": "bytes32",
					"name": "predecessor",
					"type": "bytes32"
				},
				{
					"internalType": "bytes32",
					"name": "salt",
					"type": "bytes32"
				}
			],
			"name": "executeBatch",
			"outputs": [],
			"stateMutability": "payable",
			"type": "function"
		},
		{
			"inputs": [],
			"name": "getMinDelay",
			"outputs": [
				{
					"internalType": "uint256",
					"name": "",
					"type": "uint256"
				}
			],
			"stateMutability": "view",
			"type": "function"
		},
		{
			"inputs": [
				{
					"internalType": "bytes32",
					"name": "id",
					"type": "bytes32"
				}
			],
			"name": "getOperationState",
			"outputs": [
				{
					"internalType": "enum TimelockController.OperationState",
					"name": "",
					"type": "uint8"
				}
			],
			"stateMutability": "view",
			"type": "function"
		},
		{
			"inputs": [
				{
					"internalType": "bytes32",
					"name": "role",
					"type": "bytes32"
				}
			],
			"name": "getRoleAdmin",
			"outputs": [
				{
					"internalType": "bytes32",
					"name": "",
					"type": "bytes32"
				}
			],
			"stateMutability": "view",
			"type": "function"
		},
		{
			"inputs": [
				{
					"internalType": "bytes32",
					"name": "id",
					"type": "bytes32"
				}
			],
			"name": "getTimestamp",
			"outputs": [
				{
					"internalType": "uint256",
					"name": "",
					"type": "uint256"
				}
			],
			"stateMutability": "view",
			"type": "function"
		},
		{
			"inputs": [
				{
					"internalType": "bytes32",
					"name": "role",
					"type": "bytes32"
				},
				{
					"internalType": "address",
					"name": "account",
					"type": "address"
				}
			],
			"name": "grantRole",
			"outputs": [],
			"stateMutability": "nonpayable",
			"type": "function"
		},
		{
			"inputs": [
				{
					"internalType": "bytes32",
					"name": "role",
					"type": "bytes32"
				},
				{
					"internalType": "address",
					"name": "account",
					"type": "address"
				}
			],
			"name": "hasRole",
			"outputs": [
				{
					"internalType": "bool",
					"name": "",
					"type": "bool"
				}
			],
			"stateMutability": "view",
			"type": "function"
		},
		{
			"inputs": [
				{
					"internalType": "address",
					"name": "target",
					"type": "address"
				},
				{
					"internalType": "uint256",
					"name": "value",
					"type": "uint256"
				},
				{
					"internalType": "bytes",
					"name": "data",
					"type": "bytes"
				},
				{
					"internalType": "bytes32",
					"name": "predecessor",
					"type": "bytes32"
				},
				{
					"internalType": "bytes32",
					"name": "salt",
					"type": "bytes32"
				}
			],
			"name": "hashOperation",
			"outputs": [
				{
					"internalType": "bytes32",
					"name": "",
					"type": "bytes32"
				}
			],
			"stateMutability": "pure",
			"type": "function"
		},
		{
			"inputs": [
				{
					"internalType": "address[]",
					"name": "targets",
					"type": "address[]"
				},
				{
					"internalType": "uint256[]",
					"name": "values",
					"type": "uint256[]"
				},
				{
					"internalType": "bytes[]",
					"name": "payloads",
					"type": "bytes[]"
				},
				{
					"internalType": "bytes32",
					"name": "predecessor",
					"type": "bytes32"
				},
				{
					"internalType": "bytes32",
					"name": "salt",
					"type": "bytes32"
				}
			],
			"name": "hashOperationBatch",
			"outputs": [
				{
					"internalType": "bytes32",
					"name": "",
					"type": "bytes32"
				}
			],
			"stateMutability": "pure",
			"type": "function"
		},
		{
			"inputs": [
				{
					"internalType": "bytes32",
					"name": "id",
					"type": "bytes32"
				}
			],
			"name": "isOperation",
			"outputs": [
				{
					"internalType": "bool",
					"name": "",
					"type": "bool"
				}
			],
			"stateMutability": "view",
			"type": "function"
		},
		{
			"inputs": [
				{
					"internalType": "bytes32",
					"name": "id",
					"type": "bytes32"
				}
			],
			"name": "isOperationDone",
			"outputs": [
				{
					"internalType": "bool",
					"name": "",
					"type": "bool"
				}
			],
			"stateMutability": "view",
			"type": "function"
		},
		{
			"inputs": [
				{
					"internalType": "bytes32",
					"name": "id",
					"type": "bytes32"
				}
			],
			"name": "isOperationPending",
			"outputs": [
				{
					"internalType": "bool",
					"name": "",
					"type": "bool"
				}
			],
			"stateMutability": "view",
			"type": "function"
		},
		{
			"inputs": [
				{
					"internalType": "bytes32",
					"name": "id",
					"type": "bytes32"
				}
			],
			"name": "isOperationReady",
			"outputs": [
				{
					"internalType": "bool",
					"name": "",
					"type": "bool"
				}
			],
			"stateMutability": "view",
			"type": "function"
		},
		{
			"inputs": [
				{
					"internalType": "address",
					"name": "",
					"type": "address"
				},
				{
					"internalType": "address",
					"name": "",
					"type": "address"
				},
				{
					"internalType": "uint256[]",
					"name": "",
					"type": "uint256[]"
				},
				{
					"internalType": "uint256[]",
					"name": "",
					"type": "uint256[]"
				},
				{
					"internalType": "bytes",
					"name": "",
					"type": "bytes"
				}
			],
			"name": "onERC1155BatchReceived",
			"outputs": [
				{
					"internalType": "bytes4",
					"name": "",
					"type": "bytes4"
				}
			],
			"stateMutability": "nonpayable",
			"type": "function"
		},
		{
			"inputs": [
				{
					"internalType": "address",
					"name": "",
					"type": "address"
				},
				{
					"internalType": "address",
					"name": "",
					"type": "address"
				},
				{
					"internalType": "uint256",
					"name": "",
					"type": "uint256"
				},
				{
					"internalType": "uint256",
					"name": "",
					"type": "uint256"
				},
				{
					"internalType": "bytes",
					"name": "",
					"type": "bytes"
				}
			],
			"name": "onERC1155Received",
			"outputs": [
				{
					"internalType": "bytes4",
					"name": "",
					"type": "bytes4"
				}
			],
			"stateMutability": "nonpayable",
			"type": "function"
		},
		{
			"inputs": [
				{
					"internalType": "address",
					"name": "",
					"type": "address"
				},
				{
					"internalType": "address",
					"name": "",
					"type": "address"
				},
				{
					"internalType": "uint256",
					"name": "",
					"type": "uint256"
				},
				{
					"internalType": "bytes",
					"name": "",
					"type": "bytes"
				}
			],
			"name": "onERC721Received",
			"outputs": [
				{
					"internalType": "bytes4",
					"name": "",
					"type": "bytes4"
				}
			],
			"stateMutability": "nonpayable",
			"type": "function"
		},
		{
			"inputs": [
				{
					"internalType": "bytes32",
					"name": "role",
					"type": "bytes32"
				},
				{
					"internalType": "address",
					"name": "callerConfirmation",
					"type": "address"
				}
			],
			"name": "renounceRole",
			"outputs": [],
			"stateMutability": "nonpayable",
			"type": "function"
		},
		{
			"inputs": [
				{
					"internalType": "bytes32",
					"name": "role",
					"type": "bytes32"
				},
				{
					"internalType": "address",
					"name": "account",
					"type": "address"
				}
			],
			"name": "revokeRole",
			"outputs": [],
			"stateMutability": "nonpayable",
			"type": "function"
		},
		{
			"inputs": [
				{
					"internalType": "address",
					"name": "target",
					"type": "address"
				},
				{
					"internalType": "uint256",
					"name": "value",
					"type": "uint256"
				},
				{
					"internalType": "bytes",
					"name": "data",
					"type": "bytes"
				},
				{
					"internalType": "bytes32",
					"name": "predecessor",
					"type": "bytes32"
				},
				{
					"internalType": "bytes32",
					"name": "salt",
					"type": "bytes32"
				},
				{
					"internalType": "uint256",
					"name": "delay",
					"type": "uint256"
				}
			],
			"name": "schedule",
			"outputs": [],
			"stateMutability": "nonpayable",
			"type": "function"
		},
		{
			"inputs": [
				{
					"internalType": "address[]",
					"name": "targets",
					"type": "address[]"
				},
				{
					"internalType": "uint256[]",
					"name": "values",
					"type": "uint256[]"
				},
				{
					"internalType": "bytes[]",
					"name": "payloads",
					"type": "bytes[]"
				},
				{
					"internalType": "bytes32",
					"name": "predecessor",
					"type": "bytes32"
				},
				{
					"internalType": "bytes32",
					"name": "salt",
					"type": "bytes32"
				},
				{
					"internalType": "uint256",
					"name": "delay",
					"type": "uint256"
				}
			],
			"name": "scheduleBatch",
			"outputs": [],
			"stateMutability": "nonpayable",
			"type": "function"
		},
		{
			"inputs": [
				{
					"internalType": "bytes4",
					"name": "interfaceId",
					"type": "bytes4"
				}
			],
			"name": "supportsInterface",
			"outputs": [
				{
					"internalType": "bool",
					"name": "",
					"type": "bool"
				}
			],
			"stateMutability": "view",
			"type": "function"
		},
		{
			"inputs": [
				{
					"internalType": "uint256",
					"name": "newDelay",
					"type": "uint256"
				}
			],
			"name": "updateDelay",
			"outputs": [],
			"stateMutability": "nonpayable",
			"type": "function"
		},
		{
			"stateMutability": "payable",
			"type": "receive"
		}
	]
}