{
	"data": {
		"bytecode": {
			"linkReferences": {},
			"object": "60806040526040518060400160405280600581526020017f4d594e46540000000000000000000000000000000000000000000000000000008152505f908161004791906102df565b506040518060400160405280600381526020017f4e465400000000000000000000000000000000000000000000000000000000008152506001908161008c91906102df565b505f60025534801561009c575f5ffd5b506103ae565b5f81519050919050565b7f4e487b71000000000000000000000000000000000000000000000000000000005f52604160045260245ffd5b7f4e487b71000000000000000000000000000000000000000000000000000000005f52602260045260245ffd5b5f600282049050600182168061011d57607f821691505b6020821081036101305761012f6100d9565b5b50919050565b5f819050815f5260205f209050919050565b5f6020601f8301049050919050565b5f82821b905092915050565b5f600883026101927fffffffffffffffffffffffffffffffffffffffffffffffffffffffffffffffff82610157565b61019c8683610157565b95508019841693508086168417925050509392505050565b5f819050919050565b5f819050919050565b5f6101e06101db6101d6846101b4565b6101bd565b6101b4565b9050919050565b5f819050919050565b6101f9836101c6565b61020d610205826101e7565b848454610163565b825550505050565b5f5f905090565b610224610215565b61022f8184846101f0565b505050565b5b81811015610252576102475f8261021c565b600181019050610235565b5050565b601f8211156102975761026881610136565b61027184610148565b81016020851015610280578190505b61029461028c85610148565b830182610234565b50505b505050565b5f82821c905092915050565b5f6102b75f198460080261029c565b1980831691505092915050565b5f6102cf83836102a8565b9150826002028217905092915050565b6102e8826100a2565b67ffffffffffffffff811115610301576103006100ac565b5b61030b8254610106565b610316828285610256565b5f60209050601f831160018114610347575f8415610335578287015190505b61033f85826102c4565b8655506103a6565b601f19841661035586610136565b5f5b8281101561037c57848901518255600182019150602085019450602081019050610357565b868310156103995784890151610395601f8916826102a8565b8355505b6001600288020188555050505b505050505050565b6112ad806103bb5f395ff3fe608060405234801561000f575f5ffd5b5060043610610086575f3560e01c8063a5c42ef111610059578063a5c42ef114610112578063c57ac5d614610130578063c66130d714610160578063d85d3d271461019057610086565b806306fdde031461008a57806323b872dd146100a85780633969a1a5146100c457806395d89b41146100f4575b5f5ffd5b6100926101ac565b60405161009f91906109e1565b60405180910390f35b6100c260048036038101906100bd9190610a9f565b610237565b005b6100de60048036038101906100d99190610aef565b610504565b6040516100eb91906109e1565b60405180910390f35b6100fc610643565b60405161010991906109e1565b60405180910390f35b61011a6106cf565b6040516101279190610b29565b60405180910390f35b61014a60048036038101906101459190610aef565b6106d5565b6040516101579190610b51565b60405180910390f35b61017a60048036038101906101759190610b6a565b610781565b6040516101879190610b29565b60405180910390f35b6101aa60048036038101906101a59190610cc1565b610835565b005b5f80546101b890610d35565b80601f01602080910402602001604051908101604052809291908181526020018280546101e490610d35565b801561022f5780601f106102065761010080835404028352916020019161022f565b820191905f5260205f20905b81548152906001019060200180831161021257829003601f168201915b505050505081565b8273ffffffffffffffffffffffffffffffffffffffff1660035f8381526020019081526020015f205f9054906101000a900473ffffffffffffffffffffffffffffffffffffffff1673ffffffffffffffffffffffffffffffffffffffff16146102d5576040517f08c379a00000000000000000000000000000000000000000000000000000000081526004016102cc90610daf565b60405180910390fd5b5f73ffffffffffffffffffffffffffffffffffffffff168273ffffffffffffffffffffffffffffffffffffffff1603610343576040517f08c379a000000000000000000000000000000000000000000000000000000000815260040161033a90610e17565b60405180910390fd5b8273ffffffffffffffffffffffffffffffffffffffff163373ffffffffffffffffffffffffffffffffffffffff16146103b1576040517f08c379a00000000000000000000000000000000000000000000000000000000081526004016103a890610e7f565b60405180910390fd5b60045f8473ffffffffffffffffffffffffffffffffffffffff1673ffffffffffffffffffffffffffffffffffffffff1681526020019081526020015f205f8154809291906103fe90610eca565b919050555060045f8373ffffffffffffffffffffffffffffffffffffffff1673ffffffffffffffffffffffffffffffffffffffff1681526020019081526020015f205f81548092919061045090610ef1565b91905055508160035f8381526020019081526020015f205f6101000a81548173ffffffffffffffffffffffffffffffffffffffff021916908373ffffffffffffffffffffffffffffffffffffffff160217905550808273ffffffffffffffffffffffffffffffffffffffff168473ffffffffffffffffffffffffffffffffffffffff167f5d439cf3a1f6215b41908e5b0b300f39679a3ff1cc010691c1d4ec4d0e2a4ebb60405160405180910390a4505050565b60605f73ffffffffffffffffffffffffffffffffffffffff1660035f8481526020019081526020015f205f9054906101000a900473ffffffffffffffffffffffffffffffffffffffff1673ffffffffffffffffffffffffffffffffffffffff16036105a4576040517f08c379a000000000000000000000000000000000000000000000000000000000815260040161059b90610f82565b60405180910390fd5b60055f8381526020019081526020015f2080546105c090610d35565b80601f01602080910402602001604051908101604052809291908181526020018280546105ec90610d35565b80156106375780601f1061060e57610100808354040283529160200191610637565b820191905f5260205f20905b81548152906001019060200180831161061a57829003601f168201915b50505050509050919050565b6001805461065090610d35565b80601f016020809104026020016040519081016040528092919081815260200182805461067c90610d35565b80156106c75780601f1061069e576101008083540402835291602001916106c7565b820191905f5260205f20905b8154815290600101906020018083116106aa57829003601f168201915b505050505081565b60025481565b5f5f60035f8481526020019081526020015f205f9054906101000a900473ffffffffffffffffffffffffffffffffffffffff1690505f73ffffffffffffffffffffffffffffffffffffffff168173ffffffffffffffffffffffffffffffffffffffff1603610778576040517f08c379a000000000000000000000000000000000000000000000000000000000815260040161076f90610fea565b60405180910390fd5b80915050919050565b5f5f73ffffffffffffffffffffffffffffffffffffffff168273ffffffffffffffffffffffffffffffffffffffff16036107f0576040517f08c379a00000000000000000000000000000000000000000000000000000000081526004016107e790610e17565b60405180910390fd5b60045f8373ffffffffffffffffffffffffffffffffffffffff1673ffffffffffffffffffffffffffffffffffffffff1681526020019081526020015f20549050919050565b60025f81548092919061084790610ef1565b91905055505f60025490503360035f8381526020019081526020015f205f6101000a81548173ffffffffffffffffffffffffffffffffffffffff021916908373ffffffffffffffffffffffffffffffffffffffff16021790555060045f3373ffffffffffffffffffffffffffffffffffffffff1673ffffffffffffffffffffffffffffffffffffffff1681526020019081526020015f205f8154809291906108ee90610ef1565b91905055508160055f8381526020019081526020015f20908161091191906111a8565b50803373ffffffffffffffffffffffffffffffffffffffff165f73ffffffffffffffffffffffffffffffffffffffff167f5d439cf3a1f6215b41908e5b0b300f39679a3ff1cc010691c1d4ec4d0e2a4ebb60405160405180910390a45050565b5f81519050919050565b5f82825260208201905092915050565b8281835e5f83830152505050565b5f601f19601f8301169050919050565b5f6109b382610971565b6109bd818561097b565b93506109cd81856020860161098b565b6109d681610999565b840191505092915050565b5f6020820190508181035f8301526109f981846109a9565b905092915050565b5f604051905090565b5f5ffd5b5f5ffd5b5f73ffffffffffffffffffffffffffffffffffffffff82169050919050565b5f610a3b82610a12565b9050919050565b610a4b81610a31565b8114610a55575f5ffd5b50565b5f81359050610a6681610a42565b92915050565b5f819050919050565b610a7e81610a6c565b8114610a88575f5ffd5b50565b5f81359050610a9981610a75565b92915050565b5f5f5f60608486031215610ab657610ab5610a0a565b5b5f610ac386828701610a58565b9350506020610ad486828701610a58565b9250506040610ae586828701610a8b565b9150509250925092565b5f60208284031215610b0457610b03610a0a565b5b5f610b1184828501610a8b565b91505092915050565b610b2381610a6c565b82525050565b5f602082019050610b3c5f830184610b1a565b92915050565b610b4b81610a31565b82525050565b5f602082019050610b645f830184610b42565b92915050565b5f60208284031215610b7f57610b7e610a0a565b5b5f610b8c84828501610a58565b91505092915050565b5f5ffd5b5f5ffd5b7f4e487b71000000000000000000000000000000000000000000000000000000005f52604160045260245ffd5b610bd382610999565b810181811067ffffffffffffffff82111715610bf257610bf1610b9d565b5b80604052505050565b5f610c04610a01565b9050610c108282610bca565b919050565b5f67ffffffffffffffff821115610c2f57610c2e610b9d565b5b610c3882610999565b9050602081019050919050565b828183375f83830152505050565b5f610c65610c6084610c15565b610bfb565b905082815260208101848484011115610c8157610c80610b99565b5b610c8c848285610c45565b509392505050565b5f82601f830112610ca857610ca7610b95565b5b8135610cb8848260208601610c53565b91505092915050565b5f60208284031215610cd657610cd5610a0a565b5b5f82013567ffffffffffffffff811115610cf357610cf2610a0e565b5b610cff84828501610c94565b91505092915050565b7f4e487b71000000000000000000000000000000000000000000000000000000005f52602260045260245ffd5b5f6002820490506001821680610d4c57607f821691505b602082108103610d5f57610d5e610d08565b5b50919050565b7f4e6f74204e4654206f776e6572000000000000000000000000000000000000005f82015250565b5f610d99600d8361097b565b9150610da482610d65565b602082019050919050565b5f6020820190508181035f830152610dc681610d8d565b9050919050565b7f496e76616c6964206164647265737300000000000000000000000000000000005f82015250565b5f610e01600f8361097b565b9150610e0c82610dcd565b602082019050919050565b5f6020820190508181035f830152610e2e81610df5565b9050919050565b7f4e6f7420617574686f72697a65640000000000000000000000000000000000005f82015250565b5f610e69600e8361097b565b9150610e7482610e35565b602082019050919050565b5f6020820190508181035f830152610e9681610e5d565b9050919050565b7f4e487b71000000000000000000000000000000000000000000000000000000005f52601160045260245ffd5b5f610ed482610a6c565b91505f8203610ee657610ee5610e9d565b5b600182039050919050565b5f610efb82610a6c565b91507fffffffffffffffffffffffffffffffffffffffffffffffffffffffffffffffff8203610f2d57610f2c610e9d565b5b600182019050919050565b7f4e465420646f6573206e6f7420657869737400000000000000000000000000005f82015250565b5f610f6c60128361097b565b9150610f7782610f38565b602082019050919050565b5f6020820190508181035f830152610f9981610f60565b9050919050565b7f4e465420646f65736e27742065786973740000000000000000000000000000005f82015250565b5f610fd460118361097b565b9150610fdf82610fa0565b602082019050919050565b5f6020820190508181035f83015261100181610fc8565b9050919050565b5f819050815f5260205f209050919050565b5f6020601f8301049050919050565b5f82821b905092915050565b5f600883026110647fffffffffffffffffffffffffffffffffffffffffffffffffffffffffffffffff82611029565b61106e8683611029565b95508019841693508086168417925050509392505050565b5f819050919050565b5f6110a96110a461109f84610a6c565b611086565b610a6c565b9050919050565b5f819050919050565b6110c28361108f565b6110d66110ce826110b0565b848454611035565b825550505050565b5f5f905090565b6110ed6110de565b6110f88184846110b9565b505050565b5b8181101561111b576111105f826110e5565b6001810190506110fe565b5050565b601f8211156111605761113181611008565b61113a8461101a565b81016020851015611149578190505b61115d6111558561101a565b8301826110fd565b50505b505050565b5f82821c905092915050565b5f6111805f1984600802611165565b1980831691505092915050565b5f6111988383611171565b9150826002028217905092915050565b6111b182610971565b67ffffffffffffffff8111156111ca576111c9610b9d565b5b6111d48254610d35565b6111df82828561111f565b5f60209050601f831160018114611210575f84156111fe578287015190505b611208858261118d565b86555061126f565b601f19841661121e86611008565b5f5b8281101561124557848901518255600182019150602085019450602081019050611220565b86831015611262578489015161125e601f891682611171565b8355505b6001600288020188555050505b50505050505056fea26469706673582212201183e45e8f90e59bcb12235b5a36e0a6e9648bc71ac5ee7a6b278fb8e667418764736f6c634300081e0033",
			"opcodes": "PUSH1 0x80 PUSH1 0x40 MSTORE PUSH1 0x40 MLOAD DUP1 PUSH1 0x40 ADD PUSH1 0x40 MSTORE DUP1 PUSH1 0x5 DUP2 MSTORE PUSH1 0x20 ADD PUSH32 0x4D594E4654000000000000000000000000000000000000000000000000000000 DUP2 MSTORE POP PUSH0 SWAP1 DUP2 PUSH2 0x47 SWAP2 SWAP1 PUSH2 0x2DF JUMP JUMPDEST POP PUSH1 0x40 MLOAD DUP1 PUSH1 0x40 ADD PUSH1 0x40 MSTORE DUP1 PUSH1 0x3 DUP2 MSTORE PUSH1 0x20 ADD PUSH32 0x4E46540000000000000000000000000000000000000000000000000000000000 DUP2 MSTORE POP PUSH1 0x1 SWAP1 DUP2 PUSH2 0x8C SWAP2 SWAP1 PUSH2 0x2DF JUMP JUMPDEST POP PUSH0 PUSH1 0x2 SSTORE CALLVALUE DUP1 ISZERO PUSH2 0x9C JUMPI PUSH0 PUSH0 REVERT JUMPDEST POP PUSH2 0x3AE JUMP JUMPDEST PUSH0 DUP2 MLOAD SWAP1 POP SWAP2 SWAP1 POP JUMP JUMPDEST PUSH32 0x4E487B7100000000000000000000000000000000000000000000000000000000 PUSH0 MSTORE PUSH1 0x41 PUSH1 0x4 MSTORE PUSH1 0x24 PUSH0 REVERT JUMPDEST PUSH32 0x4E487B7100000000000000000000000000000000000000000000000000000000 PUSH0 MSTORE PUSH1 0x22 PUSH1 0x4 MSTORE PUSH1 0x24 PUSH0 REVERT JUMPDEST PUSH0 PUSH1 0x2 DUP3 DIV SWAP1 POP PUSH1 0x1 DUP3 AND DUP1 PUSH2 0x11D JUMPI PUSH1 0x7F DUP3 AND SWAP2 POP JUMPDEST PUSH1 0x20 DUP3 LT DUP2 SUB PUSH2 0x130 JUMPI PUSH2 0x12F PUSH2 0xD9 JUMP JUMPDEST JUMPDEST POP SWAP2 SWAP1 POP JUMP JUMPDEST PUSH0 DUP2 SWAP1 POP DUP2 PUSH0 MSTORE PUSH1 0x20 PUSH0 KECCAK256 SWAP1 POP SWAP2 SWAP1 POP JUMP JUMPDEST PUSH0 PUSH1 0x20 PUSH1 0x1F DUP4 ADD DIV SWAP1 POP SWAP2 SWAP1 POP JUMP JUMPDEST PUSH0 DUP3 DUP3 SHL SWAP1 POP SWAP3 SWAP2 POP POP JUMP JUMPDEST PUSH0 PUSH1 0x8 DUP4 MUL PUSH2 0x192 PUSH32 0xFFFFFFFFFFFFFFFFFFFFFFFFFFFFFFFFFFFFFFFFFFFFFFFFFFFFFFFFFFFFFFFF DUP3 PUSH2 0x157 JUMP JUMPDEST PUSH2 0x19C DUP7 DUP4 PUSH2 0x157 JUMP JUMPDEST SWAP6 POP DUP1 NOT DUP5 AND SWAP4 POP DUP1 DUP7 AND DUP5 OR SWAP3 POP POP POP SWAP4 SWAP3 POP POP POP JUMP JUMPDEST PUSH0 DUP2 SWAP1 POP SWAP2 SWAP1 POP JUMP JUMPDEST PUSH0 DUP2 SWAP1 POP SWAP2 SWAP1 POP JUMP JUMPDEST PUSH0 PUSH2 0x1E0 PUSH2 0x1DB PUSH2 0x1D6 DUP5 PUSH2 0x1B4 JUMP JUMPDEST PUSH2 0x1BD JUMP JUMPDEST PUSH2 0x1B4 JUMP JUMPDEST SWAP1 POP SWAP2 SWAP1 POP JUMP JUMPDEST PUSH0 DUP2 SWAP1 POP SWAP2 SWAP1 POP JUMP JUMPDEST PUSH2 0x1F9 DUP4 PUSH2 0x1C6 JUMP JUMPDEST PUSH2 0x20D PUSH2 0x205 DUP3 PUSH2 0x1E7 JUMP JUMPDEST DUP5 DUP5 SLOAD PUSH2 0x163 JUMP JUMPDEST DUP3 SSTORE POP POP POP POP JUMP JUMPDEST PUSH0 PUSH0 SWAP1 POP SWAP1 JUMP JUMPDEST PUSH2 0x224 PUSH2 0x215 JUMP JUMPDEST PUSH2 0x22F DUP2 DUP5 DUP5 PUSH2 0x1F0 JUMP JUMPDEST POP POP POP JUMP JUMPDEST JUMPDEST DUP2 DUP2 LT ISZERO PUSH2 0x252 JUMPI PUSH2 0x247 PUSH0 DUP3 PUSH2 0x21C JUMP JUMPDEST PUSH1 0x1 DUP2 ADD SWAP1 POP PUSH2 0x235 JUMP JUMPDEST POP POP JUMP JUMPDEST PUSH1 0x1F DUP3 GT ISZERO PUSH2 0x297 JUMPI PUSH2 0x268 DUP2 PUSH2 0x136 JUMP JUMPDEST PUSH2 0x271 DUP5 PUSH2 0x148 JUMP JUMPDEST DUP2 ADD PUSH1 0x20 DUP6 LT ISZERO PUSH2 0x280 JUMPI DUP2 SWAP1 POP JUMPDEST PUSH2 0x294 PUSH2 0x28C DUP6 PUSH2 0x148 JUMP JUMPDEST DUP4 ADD DUP3 PUSH2 0x234 JUMP JUMPDEST POP POP JUMPDEST POP POP POP JUMP JUMPDEST PUSH0 DUP3 DUP3 SHR SWAP1 POP SWAP3 SWAP2 POP POP JUMP JUMPDEST PUSH0 PUSH2 0x2B7 PUSH0 NOT DUP5 PUSH1 0x8 MUL PUSH2 0x29C JUMP JUMPDEST NOT DUP1 DUP4 AND SWAP2 POP POP SWAP3 SWAP2 POP POP JUMP JUMPDEST PUSH0 PUSH2 0x2CF DUP4 DUP4 PUSH2 0x2A8 JUMP JUMPDEST SWAP2 POP DUP3 PUSH1 0x2 MUL DUP3 OR SWAP1 POP SWAP3 SWAP2 POP POP JUMP JUMPDEST PUSH2 0x2E8 DUP3 PUSH2 0xA2 JUMP JUMPDEST PUSH8 0xFFFFFFFFFFFFFFFF DUP2 GT ISZERO PUSH2 0x301 JUMPI PUSH2 0x300 PUSH2 0xAC JUMP JUMPDEST JUMPDEST PUSH2 0x30B DUP3 SLOAD PUSH2 0x106 JUMP JUMPDEST PUSH2 0x316 DUP3 DUP3 DUP6 PUSH2 0x256 JUMP JUMPDEST PUSH0 PUSH1 0x20 SWAP1 POP PUSH1 0x1F DUP4 GT PUSH1 0x1 DUP2 EQ PUSH2 0x347 JUMPI PUSH0 DUP5 ISZERO PUSH2 0x335 JUMPI DUP3 DUP8 ADD MLOAD SWAP1 POP JUMPDEST PUSH2 0x33F DUP6 DUP3 PUSH2 0x2C4 JUMP JUMPDEST DUP7 SSTORE POP PUSH2 0x3A6 JUMP JUMPDEST PUSH1 0x1F NOT DUP5 AND PUSH2 0x355 DUP7 PUSH2 0x136 JUMP JUMPDEST PUSH0 JUMPDEST DUP3 DUP2 LT ISZERO PUSH2 0x37C JUMPI DUP5 DUP10 ADD MLOAD DUP3 SSTORE PUSH1 0x1 DUP3 ADD SWAP2 POP PUSH1 0x20 DUP6 ADD SWAP5 POP PUSH1 0x20 DUP2 ADD SWAP1 POP PUSH2 0x357 JUMP JUMPDEST DUP7 DUP4 LT ISZERO PUSH2 0x399 JUMPI DUP5 DUP10 ADD MLOAD PUSH2 0x395 PUSH1 0x1F DUP10 AND DUP3 PUSH2 0x2A8 JUMP JUMPDEST DUP4 SSTORE POP JUMPDEST PUSH1 0x1 PUSH1 0x2 DUP9 MUL ADD DUP9 SSTORE POP POP POP JUMPDEST POP POP POP POP POP POP JUMP JUMPDEST PUSH2 0x12AD DUP1 PUSH2 0x3BB PUSH0 CODECOPY PUSH0 RETURN INVALID PUSH1 0x80 PUSH1 0x40 MSTORE CALLVALUE DUP1 ISZERO PUSH2 0xF JUMPI PUSH0 PUSH0 REVERT JUMPDEST POP PUSH1 0x4 CALLDATASIZE LT PUSH2 0x86 JUMPI PUSH0 CALLDATALOAD PUSH1 0xE0 SHR DUP1 PUSH4 0xA5C42EF1 GT PUSH2 0x59 JUMPI DUP1 PUSH4 0xA5C42EF1 EQ PUSH2 0x112 JUMPI DUP1 PUSH4 0xC57AC5D6 EQ PUSH2 0x130 JUMPI DUP1 PUSH4 0xC66130D7 EQ PUSH2 0x160 JUMPI DUP1 PUSH4 0xD85D3D27 EQ PUSH2 0x190 JUMPI PUSH2 0x86 JUMP JUMPDEST DUP1 PUSH4 0x6FDDE03 EQ PUSH2 0x8A JUMPI DUP1 PUSH4 0x23B872DD EQ PUSH2 0xA8 JUMPI DUP1 PUSH4 0x3969A1A5 EQ PUSH2 0xC4 JUMPI DUP1 PUSH4 0x95D89B41 EQ PUSH2 0xF4 JUMPI JUMPDEST PUSH0 PUSH0 REVERT JUMPDEST PUSH2 0x92 PUSH2 0x1AC JUMP JUMPDEST PUSH1 0x40 MLOAD PUSH2 0x9F SWAP2 SWAP1 PUSH2 0x9E1 JUMP JUMPDEST PUSH1 0x40 MLOAD DUP1 SWAP2 SUB SWAP1 RETURN JUMPDEST PUSH2 0xC2 PUSH1 0x4 DUP1 CALLDATASIZE SUB DUP2 ADD SWAP1 PUSH2 0xBD SWAP2 SWAP1 PUSH2 0xA9F JUMP JUMPDEST PUSH2 0x237 JUMP JUMPDEST STOP JUMPDEST PUSH2 0xDE PUSH1 0x4 DUP1 CALLDATASIZE SUB DUP2 ADD SWAP1 PUSH2 0xD9 SWAP2 SWAP1 PUSH2 0xAEF JUMP JUMPDEST PUSH2 0x504 JUMP JUMPDEST PUSH1 0x40 MLOAD PUSH2 0xEB SWAP2 SWAP1 PUSH2 0x9E1 JUMP JUMPDEST PUSH1 0x40 MLOAD DUP1 SWAP2 SUB SWAP1 RETURN JUMPDEST PUSH2 0xFC PUSH2 0x643 JUMP JUMPDEST PUSH1 0x40 MLOAD PUSH2 0x109 SWAP2 SWAP1 PUSH2 0x9E1 JUMP JUMPDEST PUSH1 0x40 MLOAD DUP1 SWAP2 SUB SWAP1 RETURN JUMPDEST PUSH2 0x11A PUSH2 0x6CF JUMP JUMPDEST PUSH1 0x40 MLOAD PUSH2 0x127 SWAP2 SWAP1 PUSH2 0xB29 JUMP JUMPDEST PUSH1 0x40 MLOAD DUP1 SWAP2 SUB SWAP1 RETURN JUMPDEST PUSH2 0x14A PUSH1 0x4 DUP1 CALLDATASIZE SUB DUP2 ADD SWAP1 PUSH2 0x145 SWAP2 SWAP1 PUSH2 0xAEF JUMP JUMPDEST PUSH2 0x6D5 JUMP JUMPDEST PUSH1 0x40 MLOAD PUSH2 0x157 SWAP2 SWAP1 PUSH2 0xB51 JUMP JUMPDEST PUSH1 0x40 MLOAD DUP1 SWAP2 SUB SWAP1 RETURN JUMPDEST PUSH2 0x17A PUSH1 0x4 DUP1 CALLDATASIZE SUB DUP2 ADD SWAP1 PUSH2 0x175 SWAP2 SWAP1 PUSH2 0xB6A JUMP JUMPDEST PUSH2 0x781 JUMP JUMPDEST PUSH1 0x40 MLOAD PUSH2 0x187 SWAP2 SWAP1 PUSH2 0xB29 JUMP JUMPDEST PUSH1 0x40 MLOAD DUP1 SWAP2 SUB SWAP1 RETURN JUMPDEST PUSH2 0x1AA PUSH1 0x4 DUP1 CALLDATASIZE SUB DUP2 ADD SWAP1 PUSH2 0x1A5 SWAP2 SWAP1 PUSH2 0xCC1 JUMP JUMPDEST PUSH2 0x835 JUMP JUMPDEST STOP JUMPDEST PUSH0 DUP1 SLOAD PUSH2 0x1B8 SWAP1 PUSH2 0xD35 JUMP JUMPDEST DUP1 PUSH1 0x1F ADD PUSH1 0x20 DUP1 SWAP2 DIV MUL PUSH1 0x20 ADD PUSH1 0x40 MLOAD SWAP1 DUP2 ADD PUSH1 0x40 MSTORE DUP1 SWAP3 SWAP2 SWAP1 DUP2 DUP2 MSTORE PUSH1 0x20 ADD DUP3 DUP1 SLOAD PUSH2 0x1E4 SWAP1 PUSH2 0xD35 JUMP JUMPDEST DUP1 ISZERO PUSH2 0x22F JUMPI DUP1 PUSH1 0x1F LT PUSH2 0x206 JUMPI PUSH2 0x100 DUP1 DUP4 SLOAD DIV MUL DUP4 MSTORE SWAP2 PUSH1 0x20 ADD SWAP2 PUSH2 0x22F JUMP JUMPDEST DUP3 ADD SWAP2 SWAP1 PUSH0 MSTORE PUSH1 0x20 PUSH0 KECCAK256 SWAP1 JUMPDEST DUP2 SLOAD DUP2 MSTORE SWAP1 PUSH1 0x1 ADD SWAP1 PUSH1 0x20 ADD DUP1 DUP4 GT PUSH2 0x212 JUMPI DUP3 SWAP1 SUB PUSH1 0x1F AND DUP3 ADD SWAP2 JUMPDEST POP POP POP POP POP DUP2 JUMP JUMPDEST DUP3 PUSH20 0xFFFFFFFFFFFFFFFFFFFFFFFFFFFFFFFFFFFFFFFF AND PUSH1 0x3 PUSH0 DUP4 DUP2 MSTORE PUSH1 0x20 ADD SWAP1 DUP2 MSTORE PUSH1 0x20 ADD PUSH0 KECCAK256 PUSH0 SWAP1 SLOAD SWAP1 PUSH2 0x100 EXP SWAP1 DIV PUSH20 0xFFFFFFFFFFFFFFFFFFFFFFFFFFFFFFFFFFFFFFFF AND PUSH20 0xFFFFFFFFFFFFFFFFFFFFFFFFFFFFFFFFFFFFFFFF AND EQ PUSH2 0x2D5 JUMPI PUSH1 0x40 MLOAD PUSH32 0x8C379A000000000000000000000000000000000000000000000000000000000 DUP2 MSTORE PUSH1 0x4 ADD PUSH2 0x2CC SWAP1 PUSH2 0xDAF JUMP JUMPDEST PUSH1 0x40 MLOAD DUP1 SWAP2 SUB SWAP1 REVERT JUMPDEST PUSH0 PUSH20 0xFFFFFFFFFFFFFFFFFFFFFFFFFFFFFFFFFFFFFFFF AND DUP3 PUSH20 0xFFFFFFFFFFFFFFFFFFFFFFFFFFFFFFFFFFFFFFFF AND SUB PUSH2 0x343 JUMPI PUSH1 0x40 MLOAD PUSH32 0x8C379A000000000000000000000000000000000000000000000000000000000 DUP2 MSTORE PUSH1 0x4 ADD PUSH2 0x33A SWAP1 PUSH2 0xE17 JUMP JUMPDEST PUSH1 0x40 MLOAD DUP1 SWAP2 SUB SWAP1 REVERT JUMPDEST DUP3 PUSH20 0xFFFFFFFFFFFFFFFFFFFFFFFFFFFFFFFFFFFFFFFF AND CALLER PUSH20 0xFFFFFFFFFFFFFFFFFFFFFFFFFFFFFFFFFFFFFFFF AND EQ PUSH2 0x3B1 JUMPI PUSH1 0x40 MLOAD PUSH32 0x8C379A000000000000000000000000000000000000000000000000000000000 DUP2 MSTORE PUSH1 0x4 ADD PUSH2 0x3A8 SWAP1 PUSH2 0xE7F JUMP JUMPDEST PUSH1 0x40 MLOAD DUP1 SWAP2 SUB SWAP1 REVERT JUMPDEST PUSH1 0x4 PUSH0 DUP5 PUSH20 0xFFFFFFFFFFFFFFFFFFFFFFFFFFFFFFFFFFFFFFFF AND PUSH20 0xFFFFFFFFFFFFFFFFFFFFFFFFFFFFFFFFFFFFFFFF AND DUP2 MSTORE PUSH1 0x20 ADD SWAP1 DUP2 MSTORE PUSH1 0x20 ADD PUSH0 KECCAK256 PUSH0 DUP2 SLOAD DUP1 SWAP3 SWAP2 SWAP1 PUSH2 0x3FE SWAP1 PUSH2 0xECA JUMP JUMPDEST SWAP2 SWAP1 POP SSTORE POP PUSH1 0x4 PUSH0 DUP4 PUSH20 0xFFFFFFFFFFFFFFFFFFFFFFFFFFFFFFFFFFFFFFFF AND PUSH20 0xFFFFFFFFFFFFFFFFFFFFFFFFFFFFFFFFFFFFFFFF AND DUP2 MSTORE PUSH1 0x20 ADD SWAP1 DUP2 MSTORE PUSH1 0x20 ADD PUSH0 KECCAK256 PUSH0 DUP2 SLOAD DUP1 SWAP3 SWAP2 SWAP1 PUSH2 0x450 SWAP1 PUSH2 0xEF1 JUMP JUMPDEST SWAP2 SWAP1 POP SSTORE POP DUP2 PUSH1 0x3 PUSH0 DUP4 DUP2 MSTORE PUSH1 0x20 ADD SWAP1 DUP2 MSTORE PUSH1 0x20 ADD PUSH0 KECCAK256 PUSH0 PUSH2 0x100 EXP DUP2 SLOAD DUP2 PUSH20 0xFFFFFFFFFFFFFFFFFFFFFFFFFFFFFFFFFFFFFFFF MUL NOT AND SWAP1 DUP4 PUSH20 0xFFFFFFFFFFFFFFFFFFFFFFFFFFFFFFFFFFFFFFFF AND MUL OR SWAP1 SSTORE POP DUP1 DUP3 PUSH20 0xFFFFFFFFFFFFFFFFFFFFFFFFFFFFFFFFFFFFFFFF AND DUP5 PUSH20 0xFFFFFFFFFFFFFFFFFFFFFFFFFFFFFFFFFFFFFFFF AND PUSH32 0x5D439CF3A1F6215B41908E5B0B300F39679A3FF1CC010691C1D4EC4D0E2A4EBB PUSH1 0x40 MLOAD PUSH1 0x40 MLOAD DUP1 SWAP2 SUB SWAP1 LOG4 POP POP POP JUMP JUMPDEST PUSH1 0x60 PUSH0 PUSH20 0xFFFFFFFFFFFFFFFFFFFFFFFFFFFFFFFFFFFFFFFF AND PUSH1 0x3 PUSH0 DUP5 DUP2 MSTORE PUSH1 0x20 ADD SWAP1 DUP2 MSTORE PUSH1 0x20 ADD PUSH0 KECCAK256 PUSH0 SWAP1 SLOAD SWAP1 PUSH2 0x100 EXP SWAP1 DIV PUSH20 0xFFFFFFFFFFFFFFFFFFFFFFFFFFFFFFFFFFFFFFFF AND PUSH20 0xFFFFFFFFFFFFFFFFFFFFFFFFFFFFFFFFFFFFFFFF AND SUB PUSH2 0x5A4 JUMPI PUSH1 0x40 MLOAD PUSH32 0x8C379A000000000000000000000000000000000000000000000000000000000 DUP2 MSTORE PUSH1 0x4 ADD PUSH2 0x59B SWAP1 PUSH2 0xF82 JUMP JUMPDEST PUSH1 0x40 MLOAD DUP1 SWAP2 SUB SWAP1 REVERT JUMPDEST PUSH1 0x5 PUSH0 DUP4 DUP2 MSTORE PUSH1 0x20 ADD SWAP1 DUP2 MSTORE PUSH1 0x20 ADD PUSH0 KECCAK256 DUP1 SLOAD PUSH2 0x5C0 SWAP1 PUSH2 0xD35 JUMP JUMPDEST DUP1 PUSH1 0x1F ADD PUSH1 0x20 DUP1 SWAP2 DIV MUL PUSH1 0x20 ADD PUSH1 0x40 MLOAD SWAP1 DUP2 ADD PUSH1 0x40 MSTORE DUP1 SWAP3 SWAP2 SWAP1 DUP2 DUP2 MSTORE PUSH1 0x20 ADD DUP3 DUP1 SLOAD PUSH2 0x5EC SWAP1 PUSH2 0xD35 JUMP JUMPDEST DUP1 ISZERO PUSH2 0x637 JUMPI DUP1 PUSH1 0x1F LT PUSH2 0x60E JUMPI PUSH2 0x100 DUP1 DUP4 SLOAD DIV MUL DUP4 MSTORE SWAP2 PUSH1 0x20 ADD SWAP2 PUSH2 0x637 JUMP JUMPDEST DUP3 ADD SWAP2 SWAP1 PUSH0 MSTORE PUSH1 0x20 PUSH0 KECCAK256 SWAP1 JUMPDEST DUP2 SLOAD DUP2 MSTORE SWAP1 PUSH1 0x1 ADD SWAP1 PUSH1 0x20 ADD DUP1 DUP4 GT PUSH2 0x61A JUMPI DUP3 SWAP1 SUB PUSH1 0x1F AND DUP3 ADD SWAP2 JUMPDEST POP POP POP POP POP SWAP1 POP SWAP2 SWAP1 POP JUMP JUMPDEST PUSH1 0x1 DUP1 SLOAD PUSH2 0x650 SWAP1 PUSH2 0xD35 JUMP JUMPDEST DUP1 PUSH1 0x1F ADD PUSH1 0x20 DUP1 SWAP2 DIV MUL PUSH1 0x20 ADD PUSH1 0x40 MLOAD SWAP1 DUP2 ADD PUSH1 0x40 MSTORE DUP1 SWAP3 SWAP2 SWAP1 DUP2 DUP2 MSTORE PUSH1 0x20 ADD DUP3 DUP1 SLOAD PUSH2 0x67C SWAP1 PUSH2 0xD35 JUMP JUMPDEST DUP1 ISZERO PUSH2 0x6C7 JUMPI DUP1 PUSH1 0x1F LT PUSH2 0x69E JUMPI PUSH2 0x100 DUP1 DUP4 SLOAD DIV MUL DUP4 MSTORE SWAP2 PUSH1 0x20 ADD SWAP2 PUSH2 0x6C7 JUMP JUMPDEST DUP3 ADD SWAP2 SWAP1 PUSH0 MSTORE PUSH1 0x20 PUSH0 KECCAK256 SWAP1 JUMPDEST DUP2 SLOAD DUP2 MSTORE SWAP1 PUSH1 0x1 ADD SWAP1 PUSH1 0x20 ADD DUP1 DUP4 GT PUSH2 0x6AA JUMPI DUP3 SWAP1 SUB PUSH1 0x1F AND DUP3 ADD SWAP2 JUMPDEST POP POP POP POP POP DUP2 JUMP JUMPDEST PUSH1 0x2 SLOAD DUP2 JUMP JUMPDEST PUSH0 PUSH0 PUSH1 0x3 PUSH0 DUP5 DUP2 MSTORE PUSH1 0x20 ADD SWAP1 DUP2 MSTORE PUSH1 0x20 ADD PUSH0 KECCAK256 PUSH0 SWAP1 SLOAD SWAP1 PUSH2 0x100 EXP SWAP1 DIV PUSH20 0xFFFFFFFFFFFFFFFFFFFFFFFFFFFFFFFFFFFFFFFF AND SWAP1 POP PUSH0 PUSH20 0xFFFFFFFFFFFFFFFFFFFFFFFFFFFFFFFFFFFFFFFF AND DUP2 PUSH20 0xFFFFFFFFFFFFFFFFFFFFFFFFFFFFFFFFFFFFFFFF AND SUB PUSH2 0x778 JUMPI PUSH1 0x40 MLOAD PUSH32 0x8C379A000000000000000000000000000000000000000000000000000000000 DUP2 MSTORE PUSH1 0x4 ADD PUSH2 0x76F SWAP1 PUSH2 0xFEA JUMP JUMPDEST PUSH1 0x40 MLOAD DUP1 SWAP2 SUB SWAP1 REVERT JUMPDEST DUP1 SWAP2 POP POP SWAP2 SWAP1 POP JUMP JUMPDEST PUSH0 PUSH0 PUSH20 0xFFFFFFFFFFFFFFFFFFFFFFFFFFFFFFFFFFFFFFFF AND DUP3 PUSH20 0xFFFFFFFFFFFFFFFFFFFFFFFFFFFFFFFFFFFFFFFF AND SUB PUSH2 0x7F0 JUMPI PUSH1 0x40 MLOAD PUSH32 0x8C379A000000000000000000000000000000000000000000000000000000000 DUP2 MSTORE PUSH1 0x4 ADD PUSH2 0x7E7 SWAP1 PUSH2 0xE17 JUMP JUMPDEST PUSH1 0x40 MLOAD DUP1 SWAP2 SUB SWAP1 REVERT JUMPDEST PUSH1 0x4 PUSH0 DUP4 PUSH20 0xFFFFFFFFFFFFFFFFFFFFFFFFFFFFFFFFFFFFFFFF AND PUSH20 0xFFFFFFFFFFFFFFFFFFFFFFFFFFFFFFFFFFFFFFFF AND DUP2 MSTORE PUSH1 0x20 ADD SWAP1 DUP2 MSTORE PUSH1 0x20 ADD PUSH0 KECCAK256 SLOAD SWAP1 POP SWAP2 SWAP1 POP JUMP JUMPDEST PUSH1 0x2 PUSH0 DUP2 SLOAD DUP1 SWAP3 SWAP2 SWAP1 PUSH2 0x847 SWAP1 PUSH2 0xEF1 JUMP JUMPDEST SWAP2 SWAP1 POP SSTORE POP PUSH0 PUSH1 0x2 SLOAD SWAP1 POP CALLER PUSH1 0x3 PUSH0 DUP4 DUP2 MSTORE PUSH1 0x20 ADD SWAP1 DUP2 MSTORE PUSH1 0x20 ADD PUSH0 KECCAK256 PUSH0 PUSH2 0x100 EXP DUP2 SLOAD DUP2 PUSH20 0xFFFFFFFFFFFFFFFFFFFFFFFFFFFFFFFFFFFFFFFF MUL NOT AND SWAP1 DUP4 PUSH20 0xFFFFFFFFFFFFFFFFFFFFFFFFFFFFFFFFFFFFFFFF AND MUL OR SWAP1 SSTORE POP PUSH1 0x4 PUSH0 CALLER PUSH20 0xFFFFFFFFFFFFFFFFFFFFFFFFFFFFFFFFFFFFFFFF AND PUSH20 0xFFFFFFFFFFFFFFFFFFFFFFFFFFFFFFFFFFFFFFFF AND DUP2 MSTORE PUSH1 0x20 ADD SWAP1 DUP2 MSTORE PUSH1 0x20 ADD PUSH0 KECCAK256 PUSH0 DUP2 SLOAD DUP1 SWAP3 SWAP2 SWAP1 PUSH2 0x8EE SWAP1 PUSH2 0xEF1 JUMP JUMPDEST SWAP2 SWAP1 POP SSTORE POP DUP2 PUSH1 0x5 PUSH0 DUP4 DUP2 MSTORE PUSH1 0x20 ADD SWAP1 DUP2 MSTORE PUSH1 0x20 ADD PUSH0 KECCAK256 SWAP1 DUP2 PUSH2 0x911 SWAP2 SWAP1 PUSH2 0x11A8 JUMP JUMPDEST POP DUP1 CALLER PUSH20 0xFFFFFFFFFFFFFFFFFFFFFFFFFFFFFFFFFFFFFFFF AND PUSH0 PUSH20 0xFFFFFFFFFFFFFFFFFFFFFFFFFFFFFFFFFFFFFFFF AND PUSH32 0x5D439CF3A1F6215B41908E5B0B300F39679A3FF1CC010691C1D4EC4D0E2A4EBB PUSH1 0x40 MLOAD PUSH1 0x40 MLOAD DUP1 SWAP2 SUB SWAP1 LOG4 POP POP JUMP JUMPDEST PUSH0 DUP2 MLOAD SWAP1 POP SWAP2 SWAP1 POP JUMP JUMPDEST PUSH0 DUP3 DUP3 MSTORE PUSH1 0x20 DUP3 ADD SWAP1 POP SWAP3 SWAP2 POP POP JUMP JUMPDEST DUP3 DUP2 DUP4 MCOPY PUSH0 DUP4 DUP4 ADD MSTORE POP POP POP JUMP JUMPDEST PUSH0 PUSH1 0x1F NOT PUSH1 0x1F DUP4 ADD AND SWAP1 POP SWAP2 SWAP1 POP JUMP JUMPDEST PUSH0 PUSH2 0x9B3 DUP3 PUSH2 0x971 JUMP JUMPDEST PUSH2 0x9BD DUP2 DUP6 PUSH2 0x97B JUMP JUMPDEST SWAP4 POP PUSH2 0x9CD DUP2 DUP6 PUSH1 0x20 DUP7 ADD PUSH2 0x98B JUMP JUMPDEST PUSH2 0x9D6 DUP2 PUSH2 0x999 JUMP JUMPDEST DUP5 ADD SWAP2 POP POP SWAP3 SWAP2 POP POP JUMP JUMPDEST PUSH0 PUSH1 0x20 DUP3 ADD SWAP1 POP DUP2 DUP2 SUB PUSH0 DUP4 ADD MSTORE PUSH2 0x9F9 DUP2 DUP5 PUSH2 0x9A9 JUMP JUMPDEST SWAP1 POP SWAP3 SWAP2 POP POP JUMP JUMPDEST PUSH0 PUSH1 0x40 MLOAD SWAP1 POP SWAP1 JUMP JUMPDEST PUSH0 PUSH0 REVERT JUMPDEST PUSH0 PUSH0 REVERT JUMPDEST PUSH0 PUSH20 0xFFFFFFFFFFFFFFFFFFFFFFFFFFFFFFFFFFFFFFFF DUP3 AND SWAP1 POP SWAP2 SWAP1 POP JUMP JUMPDEST PUSH0 PUSH2 0xA3B DUP3 PUSH2 0xA12 JUMP JUMPDEST SWAP1 POP SWAP2 SWAP1 POP JUMP JUMPDEST PUSH2 0xA4B DUP2 PUSH2 0xA31 JUMP JUMPDEST DUP2 EQ PUSH2 0xA55 JUMPI PUSH0 PUSH0 REVERT JUMPDEST POP JUMP JUMPDEST PUSH0 DUP2 CALLDATALOAD SWAP1 POP PUSH2 0xA66 DUP2 PUSH2 0xA42 JUMP JUMPDEST SWAP3 SWAP2 POP POP JUMP JUMPDEST PUSH0 DUP2 SWAP1 POP SWAP2 SWAP1 POP JUMP JUMPDEST PUSH2 0xA7E DUP2 PUSH2 0xA6C JUMP JUMPDEST DUP2 EQ PUSH2 0xA88 JUMPI PUSH0 PUSH0 REVERT JUMPDEST POP JUMP JUMPDEST PUSH0 DUP2 CALLDATALOAD SWAP1 POP PUSH2 0xA99 DUP2 PUSH2 0xA75 JUMP JUMPDEST SWAP3 SWAP2 POP POP JUMP JUMPDEST PUSH0 PUSH0 PUSH0 PUSH1 0x60 DUP5 DUP7 SUB SLT ISZERO PUSH2 0xAB6 JUMPI PUSH2 0xAB5 PUSH2 0xA0A JUMP JUMPDEST JUMPDEST PUSH0 PUSH2 0xAC3 DUP7 DUP3 DUP8 ADD PUSH2 0xA58 JUMP JUMPDEST SWAP4 POP POP PUSH1 0x20 PUSH2 0xAD4 DUP7 DUP3 DUP8 ADD PUSH2 0xA58 JUMP JUMPDEST SWAP3 POP POP PUSH1 0x40 PUSH2 0xAE5 DUP7 DUP3 DUP8 ADD PUSH2 0xA8B JUMP JUMPDEST SWAP2 POP POP SWAP3 POP SWAP3 POP SWAP3 JUMP JUMPDEST PUSH0 PUSH1 0x20 DUP3 DUP5 SUB SLT ISZERO PUSH2 0xB04 JUMPI PUSH2 0xB03 PUSH2 0xA0A JUMP JUMPDEST JUMPDEST PUSH0 PUSH2 0xB11 DUP5 DUP3 DUP6 ADD PUSH2 0xA8B JUMP JUMPDEST SWAP2 POP POP SWAP3 SWAP2 POP POP JUMP JUMPDEST PUSH2 0xB23 DUP2 PUSH2 0xA6C JUMP JUMPDEST DUP3 MSTORE POP POP JUMP JUMPDEST PUSH0 PUSH1 0x20 DUP3 ADD SWAP1 POP PUSH2 0xB3C PUSH0 DUP4 ADD DUP5 PUSH2 0xB1A JUMP JUMPDEST SWAP3 SWAP2 POP POP JUMP JUMPDEST PUSH2 0xB4B DUP2 PUSH2 0xA31 JUMP JUMPDEST DUP3 MSTORE POP POP JUMP JUMPDEST PUSH0 PUSH1 0x20 DUP3 ADD SWAP1 POP PUSH2 0xB64 PUSH0 DUP4 ADD DUP5 PUSH2 0xB42 JUMP JUMPDEST SWAP3 SWAP2 POP POP JUMP JUMPDEST PUSH0 PUSH1 0x20 DUP3 DUP5 SUB SLT ISZERO PUSH2 0xB7F JUMPI PUSH2 0xB7E PUSH2 0xA0A JUMP JUMPDEST JUMPDEST PUSH0 PUSH2 0xB8C DUP5 DUP3 DUP6 ADD PUSH2 0xA58 JUMP JUMPDEST SWAP2 POP POP SWAP3 SWAP2 POP POP JUMP JUMPDEST PUSH0 PUSH0 REVERT JUMPDEST PUSH0 PUSH0 REVERT JUMPDEST PUSH32 0x4E487B7100000000000000000000000000000000000000000000000000000000 PUSH0 MSTORE PUSH1 0x41 PUSH1 0x4 MSTORE PUSH1 0x24 PUSH0 REVERT JUMPDEST PUSH2 0xBD3 DUP3 PUSH2 0x999 JUMP JUMPDEST DUP2 ADD DUP2 DUP2 LT PUSH8 0xFFFFFFFFFFFFFFFF DUP3 GT OR ISZERO PUSH2 0xBF2 JUMPI PUSH2 0xBF1 PUSH2 0xB9D JUMP JUMPDEST JUMPDEST DUP1 PUSH1 0x40 MSTORE POP POP POP JUMP JUMPDEST PUSH0 PUSH2 0xC04 PUSH2 0xA01 JUMP JUMPDEST SWAP1 POP PUSH2 0xC10 DUP3 DUP3 PUSH2 0xBCA JUMP JUMPDEST SWAP2 SWAP1 POP JUMP JUMPDEST PUSH0 PUSH8 0xFFFFFFFFFFFFFFFF DUP3 GT ISZERO PUSH2 0xC2F JUMPI PUSH2 0xC2E PUSH2 0xB9D JUMP JUMPDEST JUMPDEST PUSH2 0xC38 DUP3 PUSH2 0x999 JUMP JUMPDEST SWAP1 POP PUSH1 0x20 DUP2 ADD SWAP1 POP SWAP2 SWAP1 POP JUMP JUMPDEST DUP3 DUP2 DUP4 CALLDATACOPY PUSH0 DUP4 DUP4 ADD MSTORE POP POP POP JUMP JUMPDEST PUSH0 PUSH2 0xC65 PUSH2 0xC60 DUP5 PUSH2 0xC15 JUMP JUMPDEST PUSH2 0xBFB JUMP JUMPDEST SWAP1 POP DUP3 DUP2 MSTORE PUSH1 0x20 DUP2 ADD DUP5 DUP5 DUP5 ADD GT ISZERO PUSH2 0xC81 JUMPI PUSH2 0xC80 PUSH2 0xB99 JUMP JUMPDEST JUMPDEST PUSH2 0xC8C DUP5 DUP3 DUP6 PUSH2 0xC45 JUMP JUMPDEST POP SWAP4 SWAP3 POP POP POP JUMP JUMPDEST PUSH0 DUP3 PUSH1 0x1F DUP4 ADD SLT PUSH2 0xCA8 JUMPI PUSH2 0xCA7 PUSH2 0xB95 JUMP JUMPDEST JUMPDEST DUP2 CALLDATALOAD PUSH2 0xCB8 DUP5 DUP3 PUSH1 0x20 DUP7 ADD PUSH2 0xC53 JUMP JUMPDEST SWAP2 POP POP SWAP3 SWAP2 POP POP JUMP JUMPDEST PUSH0 PUSH1 0x20 DUP3 DUP5 SUB SLT ISZERO PUSH2 0xCD6 JUMPI PUSH2 0xCD5 PUSH2 0xA0A JUMP JUMPDEST JUMPDEST PUSH0 DUP3 ADD CALLDATALOAD PUSH8 0xFFFFFFFFFFFFFFFF DUP2 GT ISZERO PUSH2 0xCF3 JUMPI PUSH2 0xCF2 PUSH2 0xA0E JUMP JUMPDEST JUMPDEST PUSH2 0xCFF DUP5 DUP3 DUP6 ADD PUSH2 0xC94 JUMP JUMPDEST SWAP2 POP POP SWAP3 SWAP2 POP POP JUMP JUMPDEST PUSH32 0x4E487B7100000000000000000000000000000000000000000000000000000000 PUSH0 MSTORE PUSH1 0x22 PUSH1 0x4 MSTORE PUSH1 0x24 PUSH0 REVERT JUMPDEST PUSH0 PUSH1 0x2 DUP3 DIV SWAP1 POP PUSH1 0x1 DUP3 AND DUP1 PUSH2 0xD4C JUMPI PUSH1 0x7F DUP3 AND SWAP2 POP JUMPDEST PUSH1 0x20 DUP3 LT DUP2 SUB PUSH2 0xD5F JUMPI PUSH2 0xD5E PUSH2 0xD08 JUMP JUMPDEST JUMPDEST POP SWAP2 SWAP1 POP JUMP JUMPDEST PUSH32 0x4E6F74204E4654206F776E657200000000000000000000000000000000000000 PUSH0 DUP3 ADD MSTORE POP JUMP JUMPDEST PUSH0 PUSH2 0xD99 PUSH1 0xD DUP4 PUSH2 0x97B JUMP JUMPDEST SWAP2 POP PUSH2 0xDA4 DUP3 PUSH2 0xD65 JUMP JUMPDEST PUSH1 0x20 DUP3 ADD SWAP1 POP SWAP2 SWAP1 POP JUMP JUMPDEST PUSH0 PUSH1 0x20 DUP3 ADD SWAP1 POP DUP2 DUP2 SUB PUSH0 DUP4 ADD MSTORE PUSH2 0xDC6 DUP2 PUSH2 0xD8D JUMP JUMPDEST SWAP1 POP SWAP2 SWAP1 POP JUMP JUMPDEST PUSH32 0x496E76616C696420616464726573730000000000000000000000000000000000 PUSH0 DUP3 ADD MSTORE POP JUMP JUMPDEST PUSH0 PUSH2 0xE01 PUSH1 0xF DUP4 PUSH2 0x97B JUMP JUMPDEST SWAP2 POP PUSH2 0xE0C DUP3 PUSH2 0xDCD JUMP JUMPDEST PUSH1 0x20 DUP3 ADD SWAP1 POP SWAP2 SWAP1 POP JUMP JUMPDEST PUSH0 PUSH1 0x20 DUP3 ADD SWAP1 POP DUP2 DUP2 SUB PUSH0 DUP4 ADD MSTORE PUSH2 0xE2E DUP2 PUSH2 0xDF5 JUMP JUMPDEST SWAP1 POP SWAP2 SWAP1 POP JUMP JUMPDEST PUSH32 0x4E6F7420617574686F72697A6564000000000000000000000000000000000000 PUSH0 DUP3 ADD MSTORE POP JUMP JUMPDEST PUSH0 PUSH2 0xE69 PUSH1 0xE DUP4 PUSH2 0x97B JUMP JUMPDEST SWAP2 POP PUSH2 0xE74 DUP3 PUSH2 0xE35 JUMP JUMPDEST PUSH1 0x20 DUP3 ADD SWAP1 POP SWAP2 SWAP1 POP JUMP JUMPDEST PUSH0 PUSH1 0x20 DUP3 ADD SWAP1 POP DUP2 DUP2 SUB PUSH0 DUP4 ADD MSTORE PUSH2 0xE96 DUP2 PUSH2 0xE5D JUMP JUMPDEST SWAP1 POP SWAP2 SWAP1 POP JUMP JUMPDEST PUSH32 0x4E487B7100000000000000000000000000000000000000000000000000000000 PUSH0 MSTORE PUSH1 0x11 PUSH1 0x4 MSTORE PUSH1 0x24 PUSH0 REVERT JUMPDEST PUSH0 PUSH2 0xED4 DUP3 PUSH2 0xA6C JUMP JUMPDEST SWAP2 POP PUSH0 DUP3 SUB PUSH2 0xEE6 JUMPI PUSH2 0xEE5 PUSH2 0xE9D JUMP JUMPDEST JUMPDEST PUSH1 0x1 DUP3 SUB SWAP1 POP SWAP2 SWAP1 POP JUMP JUMPDEST PUSH0 PUSH2 0xEFB DUP3 PUSH2 0xA6C JUMP JUMPDEST SWAP2 POP PUSH32 0xFFFFFFFFFFFFFFFFFFFFFFFFFFFFFFFFFFFFFFFFFFFFFFFFFFFFFFFFFFFFFFFF DUP3 SUB PUSH2 0xF2D JUMPI PUSH2 0xF2C PUSH2 0xE9D JUMP JUMPDEST JUMPDEST PUSH1 0x1 DUP3 ADD SWAP1 POP SWAP2 SWAP1 POP JUMP JUMPDEST PUSH32 0x4E465420646F6573206E6F742065786973740000000000000000000000000000 PUSH0 DUP3 ADD MSTORE POP JUMP JUMPDEST PUSH0 PUSH2 0xF6C PUSH1 0x12 DUP4 PUSH2 0x97B JUMP JUMPDEST SWAP2 POP PUSH2 0xF77 DUP3 PUSH2 0xF38 JUMP JUMPDEST PUSH1 0x20 DUP3 ADD SWAP1 POP SWAP2 SWAP1 POP JUMP JUMPDEST PUSH0 PUSH1 0x20 DUP3 ADD SWAP1 POP DUP2 DUP2 SUB PUSH0 DUP4 ADD MSTORE PUSH2 0xF99 DUP2 PUSH2 0xF60 JUMP JUMPDEST SWAP1 POP SWAP2 SWAP1 POP JUMP JUMPDEST PUSH32 0x4E465420646F65736E2774206578697374000000000000000000000000000000 PUSH0 DUP3 ADD MSTORE POP JUMP JUMPDEST PUSH0 PUSH2 0xFD4 PUSH1 0x11 DUP4 PUSH2 0x97B JUMP JUMPDEST SWAP2 POP PUSH2 0xFDF DUP3 PUSH2 0xFA0 JUMP JUMPDEST PUSH1 0x20 DUP3 ADD SWAP1 POP SWAP2 SWAP1 POP JUMP JUMPDEST PUSH0 PUSH1 0x20 DUP3 ADD SWAP1 POP DUP2 DUP2 SUB PUSH0 DUP4 ADD MSTORE PUSH2 0x1001 DUP2 PUSH2 0xFC8 JUMP JUMPDEST SWAP1 POP SWAP2 SWAP1 POP JUMP JUMPDEST PUSH0 DUP2 SWAP1 POP DUP2 PUSH0 MSTORE PUSH1 0x20 PUSH0 KECCAK256 SWAP1 POP SWAP2 SWAP1 POP JUMP JUMPDEST PUSH0 PUSH1 0x20 PUSH1 0x1F DUP4 ADD DIV SWAP1 POP SWAP2 SWAP1 POP JUMP JUMPDEST PUSH0 DUP3 DUP3 SHL SWAP1 POP SWAP3 SWAP2 POP POP JUMP JUMPDEST PUSH0 PUSH1 0x8 DUP4 MUL PUSH2 0x1064 PUSH32 0xFFFFFFFFFFFFFFFFFFFFFFFFFFFFFFFFFFFFFFFFFFFFFFFFFFFFFFFFFFFFFFFF DUP3 PUSH2 0x1029 JUMP JUMPDEST PUSH2 0x106E DUP7 DUP4 PUSH2 0x1029 JUMP JUMPDEST SWAP6 POP DUP1 NOT DUP5 AND SWAP4 POP DUP1 DUP7 AND DUP5 OR SWAP3 POP POP POP SWAP4 SWAP3 POP POP POP JUMP JUMPDEST PUSH0 DUP2 SWAP1 POP SWAP2 SWAP1 POP JUMP JUMPDEST PUSH0 PUSH2 0x10A9 PUSH2 0x10A4 PUSH2 0x109F DUP5 PUSH2 0xA6C JUMP JUMPDEST PUSH2 0x1086 JUMP JUMPDEST PUSH2 0xA6C JUMP JUMPDEST SWAP1 POP SWAP2 SWAP1 POP JUMP JUMPDEST PUSH0 DUP2 SWAP1 POP SWAP2 SWAP1 POP JUMP JUMPDEST PUSH2 0x10C2 DUP4 PUSH2 0x108F JUMP JUMPDEST PUSH2 0x10D6 PUSH2 0x10CE DUP3 PUSH2 0x10B0 JUMP JUMPDEST DUP5 DUP5 SLOAD PUSH2 0x1035 JUMP JUMPDEST DUP3 SSTORE POP POP POP POP JUMP JUMPDEST PUSH0 PUSH0 SWAP1 POP SWAP1 JUMP JUMPDEST PUSH2 0x10ED PUSH2 0x10DE JUMP JUMPDEST PUSH2 0x10F8 DUP2 DUP5 DUP5 PUSH2 0x10B9 JUMP JUMPDEST POP POP POP JUMP JUMPDEST JUMPDEST DUP2 DUP2 LT ISZERO PUSH2 0x111B JUMPI PUSH2 0x1110 PUSH0 DUP3 PUSH2 0x10E5 JUMP JUMPDEST PUSH1 0x1 DUP2 ADD SWAP1 POP PUSH2 0x10FE JUMP JUMPDEST POP POP JUMP JUMPDEST PUSH1 0x1F DUP3 GT ISZERO PUSH2 0x1160 JUMPI PUSH2 0x1131 DUP2 PUSH2 0x1008 JUMP JUMPDEST PUSH2 0x113A DUP5 PUSH2 0x101A JUMP JUMPDEST DUP2 ADD PUSH1 0x20 DUP6 LT ISZERO PUSH2 0x1149 JUMPI DUP2 SWAP1 POP JUMPDEST PUSH2 0x115D PUSH2 0x1155 DUP6 PUSH2 0x101A JUMP JUMPDEST DUP4 ADD DUP3 PUSH2 0x10FD JUMP JUMPDEST POP POP JUMPDEST POP POP POP JUMP JUMPDEST PUSH0 DUP3 DUP3 SHR SWAP1 POP SWAP3 SWAP2 POP POP JUMP JUMPDEST PUSH0 PUSH2 0x1180 PUSH0 NOT DUP5 PUSH1 0x8 MUL PUSH2 0x1165 JUMP JUMPDEST NOT DUP1 DUP4 AND SWAP2 POP POP SWAP3 SWAP2 POP POP JUMP JUMPDEST PUSH0 PUSH2 0x1198 DUP4 DUP4 PUSH2 0x1171 JUMP JUMPDEST SWAP2 POP DUP3 PUSH1 0x2 MUL DUP3 OR SWAP1 POP SWAP3 SWAP2 POP POP JUMP JUMPDEST PUSH2 0x11B1 DUP3 PUSH2 0x971 JUMP JUMPDEST PUSH8 0xFFFFFFFFFFFFFFFF DUP2 GT ISZERO PUSH2 0x11CA JUMPI PUSH2 0x11C9 PUSH2 0xB9D JUMP JUMPDEST JUMPDEST PUSH2 0x11D4 DUP3 SLOAD PUSH2 0xD35 JUMP JUMPDEST PUSH2 0x11DF DUP3 DUP3 DUP6 PUSH2 0x111F JUMP JUMPDEST PUSH0 PUSH1 0x20 SWAP1 POP PUSH1 0x1F DUP4 GT PUSH1 0x1 DUP2 EQ PUSH2 0x1210 JUMPI PUSH0 DUP5 ISZERO PUSH2 0x11FE JUMPI DUP3 DUP8 ADD MLOAD SWAP1 POP JUMPDEST PUSH2 0x1208 DUP6 DUP3 PUSH2 0x118D JUMP JUMPDEST DUP7 SSTORE POP PUSH2 0x126F JUMP JUMPDEST PUSH1 0x1F NOT DUP5 AND PUSH2 0x121E DUP7 PUSH2 0x1008 JUMP JUMPDEST PUSH0 JUMPDEST DUP3 DUP2 LT ISZERO PUSH2 0x1245 JUMPI DUP5 DUP10 ADD MLOAD DUP3 SSTORE PUSH1 0x1 DUP3 ADD SWAP2 POP PUSH1 0x20 DUP6 ADD SWAP5 POP PUSH1 0x20 DUP2 ADD SWAP1 POP PUSH2 0x1220 JUMP JUMPDEST DUP7 DUP4 LT ISZERO PUSH2 0x1262 JUMPI DUP5 DUP10 ADD MLOAD PUSH2 0x125E PUSH1 0x1F DUP10 AND DUP3 PUSH2 0x1171 JUMP JUMPDEST DUP4 SSTORE POP JUMPDEST PUSH1 0x1 PUSH1 0x2 DUP9 MUL ADD DUP9 SSTORE POP POP POP JUMPDEST POP POP POP POP POP POP JUMP INVALID LOG2 PUSH5 0x6970667358 0x22 SLT KECCAK256 GT DUP4 RETF MCOPY DUP16 SWAP1 JUMPF 0x9BCB SLT 0x23 JUMPDEST GAS CALLDATASIZE RJUMP 0xA6E9 PUSH5 0x8BC71AC5EE PUSH27 0x6B278FB8E667418764736F6C634300081E00330000000000000000 "
		},
		"gasEstimates": {
			"creation": {
				"codeDepositCost": "956200",
				"executionCost": "infinite",
				"totalCost": "infinite"
			},
			"external": {
				"balanceOfOwner(address)": "2907",
				"mint(string)": "infinite",
				"name()": "infinite",
				"ownerOfToken(uint256)": "2962",
				"symbol()": "infinite",
				"tokenContent(uint256)": "infinite",
				"tokenID()": "2425",
				"transferFrom(address,address,uint256)": "infinite"
			}
		},
		"methodIdentifiers": {
			"balanceOfOwner(address)": "c66130d7",
			"mint(string)": "d85d3d27",
			"name()": "06fdde03",
			"ownerOfToken(uint256)": "c57ac5d6",
			"symbol()": "95d89b41",
			"tokenContent(uint256)": "3969a1a5",
			"tokenID()": "a5c42ef1",
			"transferFrom(address,address,uint256)": "23b872dd"
		}
	},
	"abi": [
		{
			"anonymous": false,
			"inputs": [
				{
					"indexed": true,
					"internalType": "address",
					"name": "from",
					"type": "address"
				},
				{
					"indexed": true,
					"internalType": "address",
					"name": "to",
					"type": "address"
				},
				{
					"indexed": true,
					"internalType": "uint256",
					"name": "tokenID",
					"type": "uint256"
				}
			],
			"name": "transferEvent",
			"type": "event"
		},
		{
			"inputs": [
				{
					"internalType": "address",
					"name": "ownerAddress",
					"type": "address"
				}
			],
			"name": "balanceOfOwner",
			"outputs": [
				{
					"internalType": "uint256",
					"name": "",
					"type": "uint256"
				}
			],
			"stateMutability": "view",
			"type": "function"
		},
		{
			"inputs": [
				{
					"internalType": "string",
					"name": "tokenURIValue",
					"type": "string"
				}
			],
			"name": "mint",
			"outputs": [],
			"stateMutability": "nonpayable",
			"type": "function"
		},
		{
			"inputs": [],
			"name": "name",
			"outputs": [
				{
					"internalType": "string",
					"name": "",
					"type": "string"
				}
			],
			"stateMutability": "view",
			"type": "function"
		},
		{
			"inputs": [
				{
					"internalType": "uint256",
					"name": "tokenIDValue",
					"type": "uint256"
				}
			],
			"name": "ownerOfToken",
			"outputs": [
				{
					"internalType": "address",
					"name": "",
					"type": "address"
				}
			],
			"stateMutability": "view",
			"type": "function"
		},
		{
			"inputs": [],
			"name": "symbol",
			"outputs": [
				{
					"internalType": "string",
					"name": "",
					"type": "string"
				}
			],
			"stateMutability": "view",
			"type": "function"
		},
		{
			"inputs": [
				{
					"internalType": "uint256",
					"name": "tokenIDValue",
					"type": "uint256"
				}
			],
			"name": "tokenContent",
			"outputs": [
				{
					"internalType": "string",
					"name": "",
					"type": "string"
				}
			],
			"stateMutability": "view",
			"type": "function"
		},
		{
			"inputs": [],
			"name": "tokenID",
			"outputs": [
				{
					"internalType": "uint256",
					"name": "",
					"type": "uint256"
				}
			],
			"stateMutability": "view",
			"type": "function"
		},
		{
			"inputs": [
				{
					"internalType": "address",
					"name": "from",
					"type": "address"
				},
				{
					"internalType": "address",
					"name": "to",
					"type": "address"
				},
				{
					"internalType": "uint256",
					"name": "tokenIDValue",
					"type": "uint256"
				}
			],
			"name": "transferFrom",
			"outputs": [],
			"stateMutability": "nonpayable",
			"type": "function"
		}
	]
}