{
	"data": {
		"bytecode": {
			"linkReferences": {},
			"object": "608060405234801561000f575f5ffd5b506040516138153803806138158339818101604052810190610031919061036c565b335f73ffffffffffffffffffffffffffffffffffffffff168173ffffffffffffffffffffffffffffffffffffffff16036100a2575f6040517f1e4fbdf70000000000000000000000000000000000000000000000000000000081526004016100999190610404565b60405180910390fd5b6100b1816101e760201b60201c565b505f5f60146101000a81548160ff021916908315150217905550600180819055505f73ffffffffffffffffffffffffffffffffffffffff168673ffffffffffffffffffffffffffffffffffffffff1603610140576040517f08c379a000000000000000000000000000000000000000000000000000000000815260040161013790610477565b60405180910390fd5b8560025f6101000a81548173ffffffffffffffffffffffffffffffffffffffff021916908373ffffffffffffffffffffffffffffffffffffffff1602179055508460035f6101000a81548173ffffffffffffffffffffffffffffffffffffffff021916908373ffffffffffffffffffffffffffffffffffffffff16021790555083600681905550826004819055508160058190555080600a81905550505050505050610495565b5f5f5f9054906101000a900473ffffffffffffffffffffffffffffffffffffffff169050815f5f6101000a81548173ffffffffffffffffffffffffffffffffffffffff021916908373ffffffffffffffffffffffffffffffffffffffff1602179055508173ffffffffffffffffffffffffffffffffffffffff168173ffffffffffffffffffffffffffffffffffffffff167f8be0079c531659141344cd1fd0a4f28419497f9722a3daafe3b4186f6b6457e060405160405180910390a35050565b5f5ffd5b5f73ffffffffffffffffffffffffffffffffffffffff82169050919050565b5f6102d5826102ac565b9050919050565b6102e5816102cb565b81146102ef575f5ffd5b50565b5f81519050610300816102dc565b92915050565b5f819050919050565b61031881610306565b8114610322575f5ffd5b50565b5f815190506103338161030f565b92915050565b5f819050919050565b61034b81610339565b8114610355575f5ffd5b50565b5f8151905061036681610342565b92915050565b5f5f5f5f5f5f60c08789031215610386576103856102a8565b5b5f61039389828a016102f2565b96505060206103a489828a016102f2565b95505060406103b589828a01610325565b94505060606103c689828a01610325565b93505060806103d789828a01610325565b92505060a06103e889828a01610358565b9150509295509295509295565b6103fe816102cb565b82525050565b5f6020820190506104175f8301846103f5565b92915050565b5f82825260208201905092915050565b7f5a45524f5f53455155454e4345520000000000000000000000000000000000005f82015250565b5f610461600e8361041d565b915061046c8261042d565b602082019050919050565b5f6020820190508181035f83015261048e81610455565b9050919050565b613373806104a25f395ff3fe6080604052600436106101d0575f3560e01c80637b6605c5116100f6578063ac2eba9811610094578063e7b417a611610063578063e7b417a6146105f7578063f2fde38b1461061f578063f6326fb314610647578063fe10d77414610651576101d7565b8063ac2eba9814610538578063b32c4d8d14610562578063de35f5cb146105a5578063e33491a7146105cf576101d7565b80638da5cb5b116100d05780638da5cb5b146104945780638fe0c544146104be57806397feb926146104e6578063a8608d181461050e576101d7565b80637b6605c51461042c5780638456cb5914610454578063861a14121461046a576101d7565b80635a0ce6761161016e57806364c9ec6f1161013d57806364c9ec6f146103ba57806367f4f4eb146103c457806368ccdc86146103ec578063715018a614610416576101d7565b80635a0ce676146103145780635c0b2cd31461033c5780635c1bba38146103665780635c975abb14610390576101d7565b806327de9e32116101aa57806327de9e32146102705780633f4ba83a146102985780634d4e7019146102ae57806357348b83146102d8576101d7565b8063129d8000146101db578063147e4e8f146102035780632547fa3e14610248576101d7565b366101d757005b5f5ffd5b3480156101e6575f5ffd5b5061020160048036038101906101fc91906126e0565b61068d565b005b34801561020e575f5ffd5b5061022960048036038101906102249190612776565b610a5b565b60405161023f9a999897969594939291906127f1565b60405180910390f35b348015610253575f5ffd5b5061026e6004803603810190610269919061288b565b610b9c565b005b34801561027b575f5ffd5b5061029660048036038101906102919190612776565b610cd0565b005b3480156102a3575f5ffd5b506102ac610eac565b005b3480156102b9575f5ffd5b506102c2610ebe565b6040516102cf91906128b6565b60405180910390f35b3480156102e3575f5ffd5b506102fe60048036038101906102f991906128f9565b610ec4565b60405161030b9190612937565b60405180910390f35b34801561031f575f5ffd5b5061033a60048036038101906103359190612950565b610eee565b005b348015610347575f5ffd5b50610350610f4b565b60405161035d91906129fb565b60405180910390f35b348015610371575f5ffd5b5061037a610f70565b6040516103879190612a14565b60405180910390f35b34801561039b575f5ffd5b506103a4610f95565b6040516103b19190612937565b60405180910390f35b6103c2610faa565b005b3480156103cf575f5ffd5b506103ea60048036038101906103e59190612a2d565b61108e565b005b3480156103f7575f5ffd5b506104006112b1565b60405161040d91906128b6565b60405180910390f35b348015610421575f5ffd5b5061042a6112b7565b005b348015610437575f5ffd5b50610452600480360381019061044d9190612ad2565b6112ca565b005b34801561045f575f5ffd5b506104686118ad565b005b348015610475575f5ffd5b5061047e6118bf565b60405161048b91906128b6565b60405180910390f35b34801561049f575f5ffd5b506104a86118c5565b6040516104b59190612a14565b60405180910390f35b3480156104c9575f5ffd5b506104e460048036038101906104df9190612776565b6118ec565b005b3480156104f1575f5ffd5b5061050c60048036038101906105079190612b2f565b611b86565b005b348015610519575f5ffd5b50610522611c76565b60405161052f91906128b6565b60405180910390f35b348015610543575f5ffd5b5061054c611c7c565b6040516105599190612b6d565b60405180910390f35b34801561056d575f5ffd5b5061058860048036038101906105839190612776565b611c82565b60405161059c989796959493929190612ba8565b60405180910390f35b3480156105b0575f5ffd5b506105b9611d13565b6040516105c691906128b6565b60405180910390f35b3480156105da575f5ffd5b506105f560048036038101906105f09190612776565b611d19565b005b348015610602575f5ffd5b5061061d6004803603810190610618919061288b565b611edb565b005b34801561062a575f5ffd5b506106456004803603810190610640919061288b565b611f69565b005b61064f611fed565b005b34801561065c575f5ffd5b506106776004803603810190610672919061288b565b612097565b60405161068491906128b6565b60405180910390f35b6106956120ac565b61069d6120f6565b5f60095f8881526020019081526020015f2090505f816004015f9054906101000a900467ffffffffffffffff1667ffffffffffffffff160361070b576040517f9e15e1bc00000000000000000000000000000000000000000000000000000000815260040160405180910390fd5b8060040160099054906101000a900460ff16610753576040517f5565870f00000000000000000000000000000000000000000000000000000000815260040160405180910390fd5b5f850361078c576040517f1f2a200500000000000000000000000000000000000000000000000000000000815260040160405180910390fd5b5f338787876040516020016107a49493929190612c89565b604051602081830303815290604052805190602001209050600c5f8981526020019081526020015f205f8281526020019081526020015f205f9054906101000a900460ff1615610820576040517f2f29b3db00000000000000000000000000000000000000000000000000000000815260040160405180910390fd5b61086f8484808060200260200160405190810160405280939291908181526020018383602002808284375f81840152601f19601f82011690508083019250505050505050836003015483612145565b6108a5576040517f09bde33900000000000000000000000000000000000000000000000000000000815260040160405180910390fd5b6001600c5f8a81526020019081526020015f205f8381526020019081526020015f205f6101000a81548160ff0219169083151502179055505f73ffffffffffffffffffffffffffffffffffffffff168773ffffffffffffffffffffffffffffffffffffffff16036109b5575f3373ffffffffffffffffffffffffffffffffffffffff168760405161093590612d03565b5f6040518083038185875af1925050503d805f811461096f576040519150601f19603f3d011682016040523d82523d5f602084013e610974565b606091505b50509050806109af576040517f90b8ec1800000000000000000000000000000000000000000000000000000000815260040160405180910390fd5b506109e1565b6109e033878973ffffffffffffffffffffffffffffffffffffffff1661215b9092919063ffffffff16565b5b8673ffffffffffffffffffffffffffffffffffffffff163373ffffffffffffffffffffffffffffffffffffffff16897f8c6f1f453248546230edca559f3fcddbea2f6c7c33a0f7899c403d78dfb642f28989604051610a41929190612d17565b60405180910390a45050610a536121da565b505050505050565b5f5f5f5f5f5f5f5f5f5f5f60095f8d81526020019081526020015f2090505f816004015f9054906101000a900467ffffffffffffffff1667ffffffffffffffff1614159a508060040160089054906101000a900460ff1699508060040160099054906101000a900460ff169850806004015f9054906101000a900467ffffffffffffffff1667ffffffffffffffff1697505f816004015f9054906101000a900467ffffffffffffffff1667ffffffffffffffff1614610b4857600654816004015f9054906101000a900467ffffffffffffffff1667ffffffffffffffff16610b439190612d6b565b610b4a565b5f5b9650805f0154955080600101549450806002015493508060030154925080600401600a9054906101000a900473ffffffffffffffffffffffffffffffffffffffff169150509193959799509193959799565b610ba46121e3565b5f73ffffffffffffffffffffffffffffffffffffffff168173ffffffffffffffffffffffffffffffffffffffff1603610c12576040517f08c379a0000000000000000000000000000000000000000000000000000000008152600401610c0990612df8565b60405180910390fd5b8073ffffffffffffffffffffffffffffffffffffffff1660025f9054906101000a900473ffffffffffffffffffffffffffffffffffffffff1673ffffffffffffffffffffffffffffffffffffffff167fcd58b762453bd126b48db83f2cecd464f5281dd7e5e6824b528c09d0482984d660405160405180910390a38060025f6101000a81548173ffffffffffffffffffffffffffffffffffffffff021916908373ffffffffffffffffffffffffffffffffffffffff16021790555050565b610cd86120ac565b610ce06120f6565b8060075f3373ffffffffffffffffffffffffffffffffffffffff1673ffffffffffffffffffffffffffffffffffffffff1681526020019081526020015f20541015610d60576040517f08c379a0000000000000000000000000000000000000000000000000000000008152600401610d5790612e60565b60405180910390fd5b8060075f3373ffffffffffffffffffffffffffffffffffffffff1673ffffffffffffffffffffffffffffffffffffffff1681526020019081526020015f205f828254610dac9190612e7e565b925050819055505f3373ffffffffffffffffffffffffffffffffffffffff1682604051610dd890612d03565b5f6040518083038185875af1925050503d805f8114610e12576040519150601f19603f3d011682016040523d82523d5f602084013e610e17565b606091505b5050905080610e52576040517f90b8ec1800000000000000000000000000000000000000000000000000000000815260040160405180910390fd5b3373ffffffffffffffffffffffffffffffffffffffff167fd24dbf5e9299ce53c3aa9f7227ff1cc8441c2faae04509aa370ca3703385d6b483604051610e9891906128b6565b60405180910390a250610ea96121da565b50565b610eb46121e3565b610ebc61226a565b565b60085481565b600c602052815f5260405f20602052805f5260405f205f915091509054906101000a900460ff1681565b610ef66121e3565b8260068190555081600481905550806005819055507f0cba168cfa7900657e5f8cc53d6f52ebbfa3a9f568941b465cc4f731c60c95b2838383604051610f3e93929190612eb1565b60405180910390a1505050565b60035f9054906101000a900473ffffffffffffffffffffffffffffffffffffffff1681565b60025f9054906101000a900473ffffffffffffffffffffffffffffffffffffffff1681565b5f5f60149054906101000a900460ff16905090565b610fb26120ac565b5f3403610feb576040517f1f2a200500000000000000000000000000000000000000000000000000000000815260040160405180910390fd5b3460075f3373ffffffffffffffffffffffffffffffffffffffff1673ffffffffffffffffffffffffffffffffffffffff1681526020019081526020015f205f8282546110379190612d6b565b925050819055503373ffffffffffffffffffffffffffffffffffffffff167fd0a009034e24a39106653c4903cf28b1947b8a9964d03206648e0f0a5de74a463460405161108491906128b6565b60405180910390a2565b6110966120ac565b60025f9054906101000a900473ffffffffffffffffffffffffffffffffffffffff1673ffffffffffffffffffffffffffffffffffffffff163373ffffffffffffffffffffffffffffffffffffffff161461111c576040517f53e2827c00000000000000000000000000000000000000000000000000000000815260040160405180910390fd5b60045460075f3373ffffffffffffffffffffffffffffffffffffffff1673ffffffffffffffffffffffffffffffffffffffff1681526020019081526020015f2054101561119e576040517f08c379a000000000000000000000000000000000000000000000000000000000815260040161119590612f30565b60405180910390fd5b5f5f1b8314806111af57505f5f1b82145b156111e6576040517f86bdc25c00000000000000000000000000000000000000000000000000000000815260040160405180910390fd5b5f60085f81546111f590612f4e565b91905081905590505f60095f8381526020019081526020015f209050600a54815f018190555084816001018190555083816002018190555082816003018190555042816004015f6101000a81548167ffffffffffffffff021916908367ffffffffffffffff1602179055508060010154815f0154837f65300ce317ab79e5474eefcb0c14e8d429b3e59746933dbb8e07f051347c4190878760405161129b929190612f95565b60405180910390a484600a819055505050505050565b60055481565b6112bf6121e3565b6112c85f6122cb565b565b6112d26120ac565b5f60095f8581526020019081526020015f2090505f816004015f9054906101000a900467ffffffffffffffff1667ffffffffffffffff1603611340576040517f9e15e1bc00000000000000000000000000000000000000000000000000000000815260040160405180910390fd5b8060040160089054906101000a900460ff16611388576040517fd44be46e00000000000000000000000000000000000000000000000000000000815260040160405180910390fd5b8060040160099054906101000a900460ff16156113d1576040517f8a66d60700000000000000000000000000000000000000000000000000000000815260040160405180910390fd5b80600401600a9054906101000a900473ffffffffffffffffffffffffffffffffffffffff1673ffffffffffffffffffffffffffffffffffffffff163373ffffffffffffffffffffffffffffffffffffffff161415801561146457506114346118c5565b73ffffffffffffffffffffffffffffffffffffffff163373ffffffffffffffffffffffffffffffffffffffff1614155b1561149b576040517fd44be46e00000000000000000000000000000000000000000000000000000000815260040160405180910390fd5b5f73ffffffffffffffffffffffffffffffffffffffff1660035f9054906101000a900473ffffffffffffffffffffffffffffffffffffffff1673ffffffffffffffffffffffffffffffffffffffff1603611521576040517f09bde33900000000000000000000000000000000000000000000000000000000815260040160405180910390fd5b5f60035f9054906101000a900473ffffffffffffffffffffffffffffffffffffffff1673ffffffffffffffffffffffffffffffffffffffff16638606d48885858560020154865f015487600101546040518663ffffffff1660e01b815260040161158f959493929190613016565b602060405180830381865afa1580156115aa573d5f5f3e3d5ffd5b505050506040513d601f19601f820116820180604052508101906115ce919061308c565b90508015611752575f60026004546115e691906130e4565b90505f60075f60025f9054906101000a900473ffffffffffffffffffffffffffffffffffffffff1673ffffffffffffffffffffffffffffffffffffffff1673ffffffffffffffffffffffffffffffffffffffff1681526020019081526020015f205490505f818311611658578261165a565b815b90505f81111561174a5780826116709190612e7e565b60075f60025f9054906101000a900473ffffffffffffffffffffffffffffffffffffffff1673ffffffffffffffffffffffffffffffffffffffff1673ffffffffffffffffffffffffffffffffffffffff1681526020019081526020015f20819055508060075f87600401600a9054906101000a900473ffffffffffffffffffffffffffffffffffffffff1673ffffffffffffffffffffffffffffffffffffffff1673ffffffffffffffffffffffffffffffffffffffff1681526020019081526020015f205f8282546117429190612d6b565b925050819055505b505050611852565b5f600a60055461176291906130e4565b90505f60075f85600401600a9054906101000a900473ffffffffffffffffffffffffffffffffffffffff1673ffffffffffffffffffffffffffffffffffffffff1673ffffffffffffffffffffffffffffffffffffffff1681526020019081526020015f205490505f821180156117d85750818110155b1561184f5781816117e99190612e7e565b60075f86600401600a9054906101000a900473ffffffffffffffffffffffffffffffffffffffff1673ffffffffffffffffffffffffffffffffffffffff1673ffffffffffffffffffffffffffffffffffffffff1681526020019081526020015f20819055505b50505b5f8260040160086101000a81548160ff021916908315150217905550847f1c13286911ea61ab9e07cf462b69b2c12954593a03380a618afdf62d227021ae8260405161189e9190612937565b60405180910390a25050505050565b6118b56121e3565b6118bd61238c565b565b60065481565b5f5f5f9054906101000a900473ffffffffffffffffffffffffffffffffffffffff16905090565b6118f46120ac565b5f60095f8381526020019081526020015f2090505f816004015f9054906101000a900467ffffffffffffffff1667ffffffffffffffff1603611962576040517f9e15e1bc00000000000000000000000000000000000000000000000000000000815260040160405180910390fd5b8060040160099054906101000a900460ff16156119ab576040517f8a66d60700000000000000000000000000000000000000000000000000000000815260040160405180910390fd5b8060040160089054906101000a900460ff16156119f4576040517ff1082a9300000000000000000000000000000000000000000000000000000000815260040160405180910390fd5b600654816004015f9054906101000a900467ffffffffffffffff1667ffffffffffffffff16611a239190612d6b565b421115611a5c576040517ff541751000000000000000000000000000000000000000000000000000000000815260040160405180910390fd5b60055460075f3373ffffffffffffffffffffffffffffffffffffffff1673ffffffffffffffffffffffffffffffffffffffff1681526020019081526020015f20541015611ade576040517f08c379a0000000000000000000000000000000000000000000000000000000008152600401611ad59061315e565b60405180910390fd5b60018160040160086101000a81548160ff0219169083151502179055503381600401600a6101000a81548173ffffffffffffffffffffffffffffffffffffffff021916908373ffffffffffffffffffffffffffffffffffffffff1602179055503373ffffffffffffffffffffffffffffffffffffffff16827f341905abd65f49eb35219139a0ccdce4a6d57d73972347db266f11adcb5a8c8960405160405180910390a35050565b611b8e6120ac565b5f8103611bc7576040517f1f2a200500000000000000000000000000000000000000000000000000000000815260040160405180910390fd5b611bf43330838573ffffffffffffffffffffffffffffffffffffffff166123ee909392919063ffffffff16565b5f600b5f8154611c0390612f4e565b9190508190559050808373ffffffffffffffffffffffffffffffffffffffff163373ffffffffffffffffffffffffffffffffffffffff167f228adef123a7fe6b727889b4d24b39b39de663428214fd757c6c501fb98d849485604051611c6991906128b6565b60405180910390a4505050565b60045481565b600a5481565b6009602052805f5260405f205f91509050805f015490806001015490806002015490806003015490806004015f9054906101000a900467ffffffffffffffff16908060040160089054906101000a900460ff16908060040160099054906101000a900460ff169080600401600a9054906101000a900473ffffffffffffffffffffffffffffffffffffffff16905088565b600b5481565b611d216120ac565b5f60095f8381526020019081526020015f2090505f816004015f9054906101000a900467ffffffffffffffff1667ffffffffffffffff1603611d8f576040517f9e15e1bc00000000000000000000000000000000000000000000000000000000815260040160405180910390fd5b8060040160099054906101000a900460ff1615611dd8576040517f8a66d60700000000000000000000000000000000000000000000000000000000815260040160405180910390fd5b600654816004015f9054906101000a900467ffffffffffffffff1667ffffffffffffffff16611e079190612d6b565b4211611e3f576040517fc970363200000000000000000000000000000000000000000000000000000000815260040160405180910390fd5b8060040160089054906101000a900460ff1615611e88576040517ff1082a9300000000000000000000000000000000000000000000000000000000815260040160405180910390fd5b60018160040160096101000a81548160ff0219169083151502179055508060010154827fa3ea0288fb824a30cae7f7d72a9e887bd0926c40c8438c43b49cfca687b0df5260405160405180910390a35050565b611ee36121e3565b8060035f6101000a81548173ffffffffffffffffffffffffffffffffffffffff021916908373ffffffffffffffffffffffffffffffffffffffff1602179055508073ffffffffffffffffffffffffffffffffffffffff167f8f188b15032cf36df69a7f5f4bd1583e05704dbb1504feabf2a98d125fc9b23560405160405180910390a250565b611f716121e3565b5f73ffffffffffffffffffffffffffffffffffffffff168173ffffffffffffffffffffffffffffffffffffffff1603611fe1575f6040517f1e4fbdf7000000000000000000000000000000000000000000000000000000008152600401611fd89190612a14565b60405180910390fd5b611fea816122cb565b50565b611ff56120ac565b5f340361202e576040517f1f2a200500000000000000000000000000000000000000000000000000000000815260040160405180910390fd5b5f600b5f815461203d90612f4e565b9190508190559050803373ffffffffffffffffffffffffffffffffffffffff167f57e8e547a3ef8d890c570ca885b0a8c441be3070e36b7ad4c7d6b9d9316ff2ce3460405161208c91906128b6565b60405180910390a350565b6007602052805f5260405f205f915090505481565b6120b4610f95565b156120f4576040517f08c379a00000000000000000000000000000000000000000000000000000000081526004016120eb906131c6565b60405180910390fd5b565b60026001540361213b576040517f08c379a00000000000000000000000000000000000000000000000000000000081526004016121329061322e565b60405180910390fd5b6002600181905550565b5f826121518584612470565b1490509392505050565b6121d5838473ffffffffffffffffffffffffffffffffffffffff1663a9059cbb858560405160240161218e92919061324c565b604051602081830303815290604052915060e01b6020820180517bffffffffffffffffffffffffffffffffffffffffffffffffffffffff83818316178352505050506124c1565b505050565b60018081905550565b6121eb61255c565b73ffffffffffffffffffffffffffffffffffffffff166122096118c5565b73ffffffffffffffffffffffffffffffffffffffff16146122685761222c61255c565b6040517f118cdaa700000000000000000000000000000000000000000000000000000000815260040161225f9190612a14565b60405180910390fd5b565b612272612563565b5f5f60146101000a81548160ff0219169083151502179055507f5db9ee0a495bf2e6ff9c91a7834c1ba4fdd244a5e8aa4e537bd38aeae4b073aa6122b461255c565b6040516122c19190612a14565b60405180910390a1565b5f5f5f9054906101000a900473ffffffffffffffffffffffffffffffffffffffff169050815f5f6101000a81548173ffffffffffffffffffffffffffffffffffffffff021916908373ffffffffffffffffffffffffffffffffffffffff1602179055508173ffffffffffffffffffffffffffffffffffffffff168173ffffffffffffffffffffffffffffffffffffffff167f8be0079c531659141344cd1fd0a4f28419497f9722a3daafe3b4186f6b6457e060405160405180910390a35050565b6123946120ac565b60015f60146101000a81548160ff0219169083151502179055507f62e78cea01bee320cd4e420270b5ea74000d11b0c9f74754ebdbfc544b05a2586123d761255c565b6040516123e49190612a14565b60405180910390a1565b61246a848573ffffffffffffffffffffffffffffffffffffffff166323b872dd86868660405160240161242393929190613273565b604051602081830303815290604052915060e01b6020820180517bffffffffffffffffffffffffffffffffffffffffffffffffffffffff83818316178352505050506124c1565b50505050565b5f5f8290505f5f90505b84518110156124b6576124a78286838151811061249a576124996132a8565b5b60200260200101516125ac565b9150808060010191505061247a565b508091505092915050565b5f5f60205f8451602086015f885af1806124e0576040513d5f823e3d81fd5b3d92505f519150505f82146124f9576001811415612514565b5f8473ffffffffffffffffffffffffffffffffffffffff163b145b1561255657836040517f5274afe700000000000000000000000000000000000000000000000000000000815260040161254d9190612a14565b60405180910390fd5b50505050565b5f33905090565b61256b610f95565b6125aa576040517f08c379a00000000000000000000000000000000000000000000000000000000081526004016125a19061331f565b60405180910390fd5b565b5f8183106125c3576125be82846125d6565b6125ce565b6125cd83836125d6565b5b905092915050565b5f825f528160205260405f20905092915050565b5f5ffd5b5f5ffd5b5f819050919050565b612604816125f2565b811461260e575f5ffd5b50565b5f8135905061261f816125fb565b92915050565b5f73ffffffffffffffffffffffffffffffffffffffff82169050919050565b5f61264e82612625565b9050919050565b61265e81612644565b8114612668575f5ffd5b50565b5f8135905061267981612655565b92915050565b5f5ffd5b5f5ffd5b5f5ffd5b5f5f83601f8401126126a05761269f61267f565b5b8235905067ffffffffffffffff8111156126bd576126bc612683565b5b6020830191508360208202830111156126d9576126d8612687565b5b9250929050565b5f5f5f5f5f5f60a087890312156126fa576126f96125ea565b5b5f61270789828a01612611565b965050602061271889828a0161266b565b955050604061272989828a01612611565b945050606061273a89828a01612611565b935050608087013567ffffffffffffffff81111561275b5761275a6125ee565b5b61276789828a0161268b565b92509250509295509295509295565b5f6020828403121561278b5761278a6125ea565b5b5f61279884828501612611565b91505092915050565b5f8115159050919050565b6127b5816127a1565b82525050565b6127c4816125f2565b82525050565b5f819050919050565b6127dc816127ca565b82525050565b6127eb81612644565b82525050565b5f610140820190506128055f83018d6127ac565b612812602083018c6127ac565b61281f604083018b6127ac565b61282c606083018a6127bb565b61283960808301896127bb565b61284660a08301886127d3565b61285360c08301876127d3565b61286060e08301866127d3565b61286e6101008301856127d3565b61287c6101208301846127e2565b9b9a5050505050505050505050565b5f602082840312156128a05761289f6125ea565b5b5f6128ad8482850161266b565b91505092915050565b5f6020820190506128c95f8301846127bb565b92915050565b6128d8816127ca565b81146128e2575f5ffd5b50565b5f813590506128f3816128cf565b92915050565b5f5f6040838503121561290f5761290e6125ea565b5b5f61291c85828601612611565b925050602061292d858286016128e5565b9150509250929050565b5f60208201905061294a5f8301846127ac565b92915050565b5f5f5f60608486031215612967576129666125ea565b5b5f61297486828701612611565b935050602061298586828701612611565b925050604061299686828701612611565b9150509250925092565b5f819050919050565b5f6129c36129be6129b984612625565b6129a0565b612625565b9050919050565b5f6129d4826129a9565b9050919050565b5f6129e5826129ca565b9050919050565b6129f5816129db565b82525050565b5f602082019050612a0e5f8301846129ec565b92915050565b5f602082019050612a275f8301846127e2565b92915050565b5f5f5f60608486031215612a4457612a436125ea565b5b5f612a51868287016128e5565b9350506020612a62868287016128e5565b9250506040612a73868287016128e5565b9150509250925092565b5f5f83601f840112612a9257612a9161267f565b5b8235905067ffffffffffffffff811115612aaf57612aae612683565b5b602083019150836001820283011115612acb57612aca612687565b5b9250929050565b5f5f5f60408486031215612ae957612ae86125ea565b5b5f612af686828701612611565b935050602084013567ffffffffffffffff811115612b1757612b166125ee565b5b612b2386828701612a7d565b92509250509250925092565b5f5f60408385031215612b4557612b446125ea565b5b5f612b528582860161266b565b9250506020612b6385828601612611565b9150509250929050565b5f602082019050612b805f8301846127d3565b92915050565b5f67ffffffffffffffff82169050919050565b612ba281612b86565b82525050565b5f61010082019050612bbc5f83018b6127d3565b612bc9602083018a6127d3565b612bd660408301896127d3565b612be360608301886127d3565b612bf06080830187612b99565b612bfd60a08301866127ac565b612c0a60c08301856127ac565b612c1760e08301846127e2565b9998505050505050505050565b5f8160601b9050919050565b5f612c3a82612c24565b9050919050565b5f612c4b82612c30565b9050919050565b612c63612c5e82612644565b612c41565b82525050565b5f819050919050565b612c83612c7e826125f2565b612c69565b82525050565b5f612c948287612c52565b601482019150612ca48286612c52565b601482019150612cb48285612c72565b602082019150612cc48284612c72565b60208201915081905095945050505050565b5f81905092915050565b50565b5f612cee5f83612cd6565b9150612cf982612ce0565b5f82019050919050565b5f612d0d82612ce3565b9150819050919050565b5f604082019050612d2a5f8301856127bb565b612d3760208301846127bb565b9392505050565b7f4e487b71000000000000000000000000000000000000000000000000000000005f52601160045260245ffd5b5f612d75826125f2565b9150612d80836125f2565b9250828201905080821115612d9857612d97612d3e565b5b92915050565b5f82825260208201905092915050565b7f5a45524f5f4144445200000000000000000000000000000000000000000000005f82015250565b5f612de2600983612d9e565b9150612ded82612dae565b602082019050919050565b5f6020820190508181035f830152612e0f81612dd6565b9050919050565b7f494e53554646494349454e545f424f4e440000000000000000000000000000005f82015250565b5f612e4a601183612d9e565b9150612e5582612e16565b602082019050919050565b5f6020820190508181035f830152612e7781612e3e565b9050919050565b5f612e88826125f2565b9150612e93836125f2565b9250828203905081811115612eab57612eaa612d3e565b5b92915050565b5f606082019050612ec45f8301866127bb565b612ed160208301856127bb565b612ede60408301846127bb565b949350505050565b7f53455155454e4345525f424f4e445f4c4f5700000000000000000000000000005f82015250565b5f612f1a601283612d9e565b9150612f2582612ee6565b602082019050919050565b5f6020820190508181035f830152612f4781612f0e565b9050919050565b5f612f58826125f2565b91507fffffffffffffffffffffffffffffffffffffffffffffffffffffffffffffffff8203612f8a57612f89612d3e565b5b600182019050919050565b5f604082019050612fa85f8301856127d3565b612fb560208301846127d3565b9392505050565b5f82825260208201905092915050565b828183375f83830152505050565b5f601f19601f8301169050919050565b5f612ff58385612fbc565b9350613002838584612fcc565b61300b83612fda565b840190509392505050565b5f6080820190508181035f83015261302f818789612fea565b905061303e60208301866127d3565b61304b60408301856127d3565b61305860608301846127d3565b9695505050505050565b61306b816127a1565b8114613075575f5ffd5b50565b5f8151905061308681613062565b92915050565b5f602082840312156130a1576130a06125ea565b5b5f6130ae84828501613078565b91505092915050565b7f4e487b71000000000000000000000000000000000000000000000000000000005f52601260045260245ffd5b5f6130ee826125f2565b91506130f9836125f2565b925082613109576131086130b7565b5b828204905092915050565b7f4348414c4c454e4745525f424f4e445f4c4f57000000000000000000000000005f82015250565b5f613148601383612d9e565b915061315382613114565b602082019050919050565b5f6020820190508181035f8301526131758161313c565b9050919050565b7f5061757361626c653a20706175736564000000000000000000000000000000005f82015250565b5f6131b0601083612d9e565b91506131bb8261317c565b602082019050919050565b5f6020820190508181035f8301526131dd816131a4565b9050919050565b7f5265656e7472616e637947756172643a207265656e7472616e742063616c6c005f82015250565b5f613218601f83612d9e565b9150613223826131e4565b602082019050919050565b5f6020820190508181035f8301526132458161320c565b9050919050565b5f60408201905061325f5f8301856127e2565b61326c60208301846127bb565b9392505050565b5f6060820190506132865f8301866127e2565b61329360208301856127e2565b6132a060408301846127bb565b949350505050565b7f4e487b71000000000000000000000000000000000000000000000000000000005f52603260045260245ffd5b7f5061757361626c653a206e6f74207061757365640000000000000000000000005f82015250565b5f613309601483612d9e565b9150613314826132d5565b602082019050919050565b5f6020820190508181035f830152613336816132fd565b905091905056fea264697066735822122032f30b9008de80e6e0a0886a2777a8e58c583064b60aa81da317eadb478286d364736f6c634300081e0033",
			"opcodes": "PUSH1 0x80 PUSH1 0x40 MSTORE CALLVALUE DUP1 ISZERO PUSH2 0xF JUMPI PUSH0 PUSH0 REVERT JUMPDEST POP PUSH1 0x40 MLOAD PUSH2 0x3815 CODESIZE SUB DUP1 PUSH2 0x3815 DUP4 CODECOPY DUP2 DUP2 ADD PUSH1 0x40 MSTORE DUP2 ADD SWAP1 PUSH2 0x31 SWAP2 SWAP1 PUSH2 0x36C JUMP JUMPDEST CALLER PUSH0 PUSH20 0xFFFFFFFFFFFFFFFFFFFFFFFFFFFFFFFFFFFFFFFF AND DUP2 PUSH20 0xFFFFFFFFFFFFFFFFFFFFFFFFFFFFFFFFFFFFFFFF AND SUB PUSH2 0xA2 JUMPI PUSH0 PUSH1 0x40 MLOAD PUSH32 0x1E4FBDF700000000000000000000000000000000000000000000000000000000 DUP2 MSTORE PUSH1 0x4 ADD PUSH2 0x99 SWAP2 SWAP1 PUSH2 0x404 JUMP JUMPDEST PUSH1 0x40 MLOAD DUP1 SWAP2 SUB SWAP1 REVERT JUMPDEST PUSH2 0xB1 DUP2 PUSH2 0x1E7 PUSH1 0x20 SHL PUSH1 0x20 SHR JUMP JUMPDEST POP PUSH0 PUSH0 PUSH1 0x14 PUSH2 0x100 EXP DUP2 SLOAD DUP2 PUSH1 0xFF MUL NOT AND SWAP1 DUP4 ISZERO ISZERO MUL OR SWAP1 SSTORE POP PUSH1 0x1 DUP1 DUP2 SWAP1 SSTORE POP PUSH0 PUSH20 0xFFFFFFFFFFFFFFFFFFFFFFFFFFFFFFFFFFFFFFFF AND DUP7 PUSH20 0xFFFFFFFFFFFFFFFFFFFFFFFFFFFFFFFFFFFFFFFF AND SUB PUSH2 0x140 JUMPI PUSH1 0x40 MLOAD PUSH32 0x8C379A000000000000000000000000000000000000000000000000000000000 DUP2 MSTORE PUSH1 0x4 ADD PUSH2 0x137 SWAP1 PUSH2 0x477 JUMP JUMPDEST PUSH1 0x40 MLOAD DUP1 SWAP2 SUB SWAP1 REVERT JUMPDEST DUP6 PUSH1 0x2 PUSH0 PUSH2 0x100 EXP DUP2 SLOAD DUP2 PUSH20 0xFFFFFFFFFFFFFFFFFFFFFFFFFFFFFFFFFFFFFFFF MUL NOT AND SWAP1 DUP4 PUSH20 0xFFFFFFFFFFFFFFFFFFFFFFFFFFFFFFFFFFFFFFFF AND MUL OR SWAP1 SSTORE POP DUP5 PUSH1 0x3 PUSH0 PUSH2 0x100 EXP DUP2 SLOAD DUP2 PUSH20 0xFFFFFFFFFFFFFFFFFFFFFFFFFFFFFFFFFFFFFFFF MUL NOT AND SWAP1 DUP4 PUSH20 0xFFFFFFFFFFFFFFFFFFFFFFFFFFFFFFFFFFFFFFFF AND MUL OR SWAP1 SSTORE POP DUP4 PUSH1 0x6 DUP2 SWAP1 SSTORE POP DUP3 PUSH1 0x4 DUP2 SWAP1 SSTORE POP DUP2 PUSH1 0x5 DUP2 SWAP1 SSTORE POP DUP1 PUSH1 0xA DUP2 SWAP1 SSTORE POP POP POP POP POP POP POP PUSH2 0x495 JUMP JUMPDEST PUSH0 PUSH0 PUSH0 SWAP1 SLOAD SWAP1 PUSH2 0x100 EXP SWAP1 DIV PUSH20 0xFFFFFFFFFFFFFFFFFFFFFFFFFFFFFFFFFFFFFFFF AND SWAP1 POP DUP2 PUSH0 PUSH0 PUSH2 0x100 EXP DUP2 SLOAD DUP2 PUSH20 0xFFFFFFFFFFFFFFFFFFFFFFFFFFFFFFFFFFFFFFFF MUL NOT AND SWAP1 DUP4 PUSH20 0xFFFFFFFFFFFFFFFFFFFFFFFFFFFFFFFFFFFFFFFF AND MUL OR SWAP1 SSTORE POP DUP2 PUSH20 0xFFFFFFFFFFFFFFFFFFFFFFFFFFFFFFFFFFFFFFFF AND DUP2 PUSH20 0xFFFFFFFFFFFFFFFFFFFFFFFFFFFFFFFFFFFFFFFF AND PUSH32 0x8BE0079C531659141344CD1FD0A4F28419497F9722A3DAAFE3B4186F6B6457E0 PUSH1 0x40 MLOAD PUSH1 0x40 MLOAD DUP1 SWAP2 SUB SWAP1 LOG3 POP POP JUMP JUMPDEST PUSH0 PUSH0 REVERT JUMPDEST PUSH0 PUSH20 0xFFFFFFFFFFFFFFFFFFFFFFFFFFFFFFFFFFFFFFFF DUP3 AND SWAP1 POP SWAP2 SWAP1 POP JUMP JUMPDEST PUSH0 PUSH2 0x2D5 DUP3 PUSH2 0x2AC JUMP JUMPDEST SWAP1 POP SWAP2 SWAP1 POP JUMP JUMPDEST PUSH2 0x2E5 DUP2 PUSH2 0x2CB JUMP JUMPDEST DUP2 EQ PUSH2 0x2EF JUMPI PUSH0 PUSH0 REVERT JUMPDEST POP JUMP JUMPDEST PUSH0 DUP2 MLOAD SWAP1 POP PUSH2 0x300 DUP2 PUSH2 0x2DC JUMP JUMPDEST SWAP3 SWAP2 POP POP JUMP JUMPDEST PUSH0 DUP2 SWAP1 POP SWAP2 SWAP1 POP JUMP JUMPDEST PUSH2 0x318 DUP2 PUSH2 0x306 JUMP JUMPDEST DUP2 EQ PUSH2 0x322 JUMPI PUSH0 PUSH0 REVERT JUMPDEST POP JUMP JUMPDEST PUSH0 DUP2 MLOAD SWAP1 POP PUSH2 0x333 DUP2 PUSH2 0x30F JUMP JUMPDEST SWAP3 SWAP2 POP POP JUMP JUMPDEST PUSH0 DUP2 SWAP1 POP SWAP2 SWAP1 POP JUMP JUMPDEST PUSH2 0x34B DUP2 PUSH2 0x339 JUMP JUMPDEST DUP2 EQ PUSH2 0x355 JUMPI PUSH0 PUSH0 REVERT JUMPDEST POP JUMP JUMPDEST PUSH0 DUP2 MLOAD SWAP1 POP PUSH2 0x366 DUP2 PUSH2 0x342 JUMP JUMPDEST SWAP3 SWAP2 POP POP JUMP JUMPDEST PUSH0 PUSH0 PUSH0 PUSH0 PUSH0 PUSH0 PUSH1 0xC0 DUP8 DUP10 SUB SLT ISZERO PUSH2 0x386 JUMPI PUSH2 0x385 PUSH2 0x2A8 JUMP JUMPDEST JUMPDEST PUSH0 PUSH2 0x393 DUP10 DUP3 DUP11 ADD PUSH2 0x2F2 JUMP JUMPDEST SWAP7 POP POP PUSH1 0x20 PUSH2 0x3A4 DUP10 DUP3 DUP11 ADD PUSH2 0x2F2 JUMP JUMPDEST SWAP6 POP POP PUSH1 0x40 PUSH2 0x3B5 DUP10 DUP3 DUP11 ADD PUSH2 0x325 JUMP JUMPDEST SWAP5 POP POP PUSH1 0x60 PUSH2 0x3C6 DUP10 DUP3 DUP11 ADD PUSH2 0x325 JUMP JUMPDEST SWAP4 POP POP PUSH1 0x80 PUSH2 0x3D7 DUP10 DUP3 DUP11 ADD PUSH2 0x325 JUMP JUMPDEST SWAP3 POP POP PUSH1 0xA0 PUSH2 0x3E8 DUP10 DUP3 DUP11 ADD PUSH2 0x358 JUMP JUMPDEST SWAP2 POP POP SWAP3 SWAP6 POP SWAP3 SWAP6 POP SWAP3 SWAP6 JUMP JUMPDEST PUSH2 0x3FE DUP2 PUSH2 0x2CB JUMP JUMPDEST DUP3 MSTORE POP POP JUMP JUMPDEST PUSH0 PUSH1 0x20 DUP3 ADD SWAP1 POP PUSH2 0x417 PUSH0 DUP4 ADD DUP5 PUSH2 0x3F5 JUMP JUMPDEST SWAP3 SWAP2 POP POP JUMP JUMPDEST PUSH0 DUP3 DUP3 MSTORE PUSH1 0x20 DUP3 ADD SWAP1 POP SWAP3 SWAP2 POP POP JUMP JUMPDEST PUSH32 0x5A45524F5F53455155454E434552000000000000000000000000000000000000 PUSH0 DUP3 ADD MSTORE POP JUMP JUMPDEST PUSH0 PUSH2 0x461 PUSH1 0xE DUP4 PUSH2 0x41D JUMP JUMPDEST SWAP2 POP PUSH2 0x46C DUP3 PUSH2 0x42D JUMP JUMPDEST PUSH1 0x20 DUP3 ADD SWAP1 POP SWAP2 SWAP1 POP JUMP JUMPDEST PUSH0 PUSH1 0x20 DUP3 ADD SWAP1 POP DUP2 DUP2 SUB PUSH0 DUP4 ADD MSTORE PUSH2 0x48E DUP2 PUSH2 0x455 JUMP JUMPDEST SWAP1 POP SWAP2 SWAP1 POP JUMP JUMPDEST PUSH2 0x3373 DUP1 PUSH2 0x4A2 PUSH0 CODECOPY PUSH0 RETURN INVALID PUSH1 0x80 PUSH1 0x40 MSTORE PUSH1 0x4 CALLDATASIZE LT PUSH2 0x1D0 JUMPI PUSH0 CALLDATALOAD PUSH1 0xE0 SHR DUP1 PUSH4 0x7B6605C5 GT PUSH2 0xF6 JUMPI DUP1 PUSH4 0xAC2EBA98 GT PUSH2 0x94 JUMPI DUP1 PUSH4 0xE7B417A6 GT PUSH2 0x63 JUMPI DUP1 PUSH4 0xE7B417A6 EQ PUSH2 0x5F7 JUMPI DUP1 PUSH4 0xF2FDE38B EQ PUSH2 0x61F JUMPI DUP1 PUSH4 0xF6326FB3 EQ PUSH2 0x647 JUMPI DUP1 PUSH4 0xFE10D774 EQ PUSH2 0x651 JUMPI PUSH2 0x1D7 JUMP JUMPDEST DUP1 PUSH4 0xAC2EBA98 EQ PUSH2 0x538 JUMPI DUP1 PUSH4 0xB32C4D8D EQ PUSH2 0x562 JUMPI DUP1 PUSH4 0xDE35F5CB EQ PUSH2 0x5A5 JUMPI DUP1 PUSH4 0xE33491A7 EQ PUSH2 0x5CF JUMPI PUSH2 0x1D7 JUMP JUMPDEST DUP1 PUSH4 0x8DA5CB5B GT PUSH2 0xD0 JUMPI DUP1 PUSH4 0x8DA5CB5B EQ PUSH2 0x494 JUMPI DUP1 PUSH4 0x8FE0C544 EQ PUSH2 0x4BE JUMPI DUP1 PUSH4 0x97FEB926 EQ PUSH2 0x4E6 JUMPI DUP1 PUSH4 0xA8608D18 EQ PUSH2 0x50E JUMPI PUSH2 0x1D7 JUMP JUMPDEST DUP1 PUSH4 0x7B6605C5 EQ PUSH2 0x42C JUMPI DUP1 PUSH4 0x8456CB59 EQ PUSH2 0x454 JUMPI DUP1 PUSH4 0x861A1412 EQ PUSH2 0x46A JUMPI PUSH2 0x1D7 JUMP JUMPDEST DUP1 PUSH4 0x5A0CE676 GT PUSH2 0x16E JUMPI DUP1 PUSH4 0x64C9EC6F GT PUSH2 0x13D JUMPI DUP1 PUSH4 0x64C9EC6F EQ PUSH2 0x3BA JUMPI DUP1 PUSH4 0x67F4F4EB EQ PUSH2 0x3C4 JUMPI DUP1 PUSH4 0x68CCDC86 EQ PUSH2 0x3EC JUMPI DUP1 PUSH4 0x715018A6 EQ PUSH2 0x416 JUMPI PUSH2 0x1D7 JUMP JUMPDEST DUP1 PUSH4 0x5A0CE676 EQ PUSH2 0x314 JUMPI DUP1 PUSH4 0x5C0B2CD3 EQ PUSH2 0x33C JUMPI DUP1 PUSH4 0x5C1BBA38 EQ PUSH2 0x366 JUMPI DUP1 PUSH4 0x5C975ABB EQ PUSH2 0x390 JUMPI PUSH2 0x1D7 JUMP JUMPDEST DUP1 PUSH4 0x27DE9E32 GT PUSH2 0x1AA JUMPI DUP1 PUSH4 0x27DE9E32 EQ PUSH2 0x270 JUMPI DUP1 PUSH4 0x3F4BA83A EQ PUSH2 0x298 JUMPI DUP1 PUSH4 0x4D4E7019 EQ PUSH2 0x2AE JUMPI DUP1 PUSH4 0x57348B83 EQ PUSH2 0x2D8 JUMPI PUSH2 0x1D7 JUMP JUMPDEST DUP1 PUSH4 0x129D8000 EQ PUSH2 0x1DB JUMPI DUP1 PUSH4 0x147E4E8F EQ PUSH2 0x203 JUMPI DUP1 PUSH4 0x2547FA3E EQ PUSH2 0x248 JUMPI PUSH2 0x1D7 JUMP JUMPDEST CALLDATASIZE PUSH2 0x1D7 JUMPI STOP JUMPDEST PUSH0 PUSH0 REVERT JUMPDEST CALLVALUE DUP1 ISZERO PUSH2 0x1E6 JUMPI PUSH0 PUSH0 REVERT JUMPDEST POP PUSH2 0x201 PUSH1 0x4 DUP1 CALLDATASIZE SUB DUP2 ADD SWAP1 PUSH2 0x1FC SWAP2 SWAP1 PUSH2 0x26E0 JUMP JUMPDEST PUSH2 0x68D JUMP JUMPDEST STOP JUMPDEST CALLVALUE DUP1 ISZERO PUSH2 0x20E JUMPI PUSH0 PUSH0 REVERT JUMPDEST POP PUSH2 0x229 PUSH1 0x4 DUP1 CALLDATASIZE SUB DUP2 ADD SWAP1 PUSH2 0x224 SWAP2 SWAP1 PUSH2 0x2776 JUMP JUMPDEST PUSH2 0xA5B JUMP JUMPDEST PUSH1 0x40 MLOAD PUSH2 0x23F SWAP11 SWAP10 SWAP9 SWAP8 SWAP7 SWAP6 SWAP5 SWAP4 SWAP3 SWAP2 SWAP1 PUSH2 0x27F1 JUMP JUMPDEST PUSH1 0x40 MLOAD DUP1 SWAP2 SUB SWAP1 RETURN JUMPDEST CALLVALUE DUP1 ISZERO PUSH2 0x253 JUMPI PUSH0 PUSH0 REVERT JUMPDEST POP PUSH2 0x26E PUSH1 0x4 DUP1 CALLDATASIZE SUB DUP2 ADD SWAP1 PUSH2 0x269 SWAP2 SWAP1 PUSH2 0x288B JUMP JUMPDEST PUSH2 0xB9C JUMP JUMPDEST STOP JUMPDEST CALLVALUE DUP1 ISZERO PUSH2 0x27B JUMPI PUSH0 PUSH0 REVERT JUMPDEST POP PUSH2 0x296 PUSH1 0x4 DUP1 CALLDATASIZE SUB DUP2 ADD SWAP1 PUSH2 0x291 SWAP2 SWAP1 PUSH2 0x2776 JUMP JUMPDEST PUSH2 0xCD0 JUMP JUMPDEST STOP JUMPDEST CALLVALUE DUP1 ISZERO PUSH2 0x2A3 JUMPI PUSH0 PUSH0 REVERT JUMPDEST POP PUSH2 0x2AC PUSH2 0xEAC JUMP JUMPDEST STOP JUMPDEST CALLVALUE DUP1 ISZERO PUSH2 0x2B9 JUMPI PUSH0 PUSH0 REVERT JUMPDEST POP PUSH2 0x2C2 PUSH2 0xEBE JUMP JUMPDEST PUSH1 0x40 MLOAD PUSH2 0x2CF SWAP2 SWAP1 PUSH2 0x28B6 JUMP JUMPDEST PUSH1 0x40 MLOAD DUP1 SWAP2 SUB SWAP1 RETURN JUMPDEST CALLVALUE DUP1 ISZERO PUSH2 0x2E3 JUMPI PUSH0 PUSH0 REVERT JUMPDEST POP PUSH2 0x2FE PUSH1 0x4 DUP1 CALLDATASIZE SUB DUP2 ADD SWAP1 PUSH2 0x2F9 SWAP2 SWAP1 PUSH2 0x28F9 JUMP JUMPDEST PUSH2 0xEC4 JUMP JUMPDEST PUSH1 0x40 MLOAD PUSH2 0x30B SWAP2 SWAP1 PUSH2 0x2937 JUMP JUMPDEST PUSH1 0x40 MLOAD DUP1 SWAP2 SUB SWAP1 RETURN JUMPDEST CALLVALUE DUP1 ISZERO PUSH2 0x31F JUMPI PUSH0 PUSH0 REVERT JUMPDEST POP PUSH2 0x33A PUSH1 0x4 DUP1 CALLDATASIZE SUB DUP2 ADD SWAP1 PUSH2 0x335 SWAP2 SWAP1 PUSH2 0x2950 JUMP JUMPDEST PUSH2 0xEEE JUMP JUMPDEST STOP JUMPDEST CALLVALUE DUP1 ISZERO PUSH2 0x347 JUMPI PUSH0 PUSH0 REVERT JUMPDEST POP PUSH2 0x350 PUSH2 0xF4B JUMP JUMPDEST PUSH1 0x40 MLOAD PUSH2 0x35D SWAP2 SWAP1 PUSH2 0x29FB JUMP JUMPDEST PUSH1 0x40 MLOAD DUP1 SWAP2 SUB SWAP1 RETURN JUMPDEST CALLVALUE DUP1 ISZERO PUSH2 0x371 JUMPI PUSH0 PUSH0 REVERT JUMPDEST POP PUSH2 0x37A PUSH2 0xF70 JUMP JUMPDEST PUSH1 0x40 MLOAD PUSH2 0x387 SWAP2 SWAP1 PUSH2 0x2A14 JUMP JUMPDEST PUSH1 0x40 MLOAD DUP1 SWAP2 SUB SWAP1 RETURN JUMPDEST CALLVALUE DUP1 ISZERO PUSH2 0x39B JUMPI PUSH0 PUSH0 REVERT JUMPDEST POP PUSH2 0x3A4 PUSH2 0xF95 JUMP JUMPDEST PUSH1 0x40 MLOAD PUSH2 0x3B1 SWAP2 SWAP1 PUSH2 0x2937 JUMP JUMPDEST PUSH1 0x40 MLOAD DUP1 SWAP2 SUB SWAP1 RETURN JUMPDEST PUSH2 0x3C2 PUSH2 0xFAA JUMP JUMPDEST STOP JUMPDEST CALLVALUE DUP1 ISZERO PUSH2 0x3CF JUMPI PUSH0 PUSH0 REVERT JUMPDEST POP PUSH2 0x3EA PUSH1 0x4 DUP1 CALLDATASIZE SUB DUP2 ADD SWAP1 PUSH2 0x3E5 SWAP2 SWAP1 PUSH2 0x2A2D JUMP JUMPDEST PUSH2 0x108E JUMP JUMPDEST STOP JUMPDEST CALLVALUE DUP1 ISZERO PUSH2 0x3F7 JUMPI PUSH0 PUSH0 REVERT JUMPDEST POP PUSH2 0x400 PUSH2 0x12B1 JUMP JUMPDEST PUSH1 0x40 MLOAD PUSH2 0x40D SWAP2 SWAP1 PUSH2 0x28B6 JUMP JUMPDEST PUSH1 0x40 MLOAD DUP1 SWAP2 SUB SWAP1 RETURN JUMPDEST CALLVALUE DUP1 ISZERO PUSH2 0x421 JUMPI PUSH0 PUSH0 REVERT JUMPDEST POP PUSH2 0x42A PUSH2 0x12B7 JUMP JUMPDEST STOP JUMPDEST CALLVALUE DUP1 ISZERO PUSH2 0x437 JUMPI PUSH0 PUSH0 REVERT JUMPDEST POP PUSH2 0x452 PUSH1 0x4 DUP1 CALLDATASIZE SUB DUP2 ADD SWAP1 PUSH2 0x44D SWAP2 SWAP1 PUSH2 0x2AD2 JUMP JUMPDEST PUSH2 0x12CA JUMP JUMPDEST STOP JUMPDEST CALLVALUE DUP1 ISZERO PUSH2 0x45F JUMPI PUSH0 PUSH0 REVERT JUMPDEST POP PUSH2 0x468 PUSH2 0x18AD JUMP JUMPDEST STOP JUMPDEST CALLVALUE DUP1 ISZERO PUSH2 0x475 JUMPI PUSH0 PUSH0 REVERT JUMPDEST POP PUSH2 0x47E PUSH2 0x18BF JUMP JUMPDEST PUSH1 0x40 MLOAD PUSH2 0x48B SWAP2 SWAP1 PUSH2 0x28B6 JUMP JUMPDEST PUSH1 0x40 MLOAD DUP1 SWAP2 SUB SWAP1 RETURN JUMPDEST CALLVALUE DUP1 ISZERO PUSH2 0x49F JUMPI PUSH0 PUSH0 REVERT JUMPDEST POP PUSH2 0x4A8 PUSH2 0x18C5 JUMP JUMPDEST PUSH1 0x40 MLOAD PUSH2 0x4B5 SWAP2 SWAP1 PUSH2 0x2A14 JUMP JUMPDEST PUSH1 0x40 MLOAD DUP1 SWAP2 SUB SWAP1 RETURN JUMPDEST CALLVALUE DUP1 ISZERO PUSH2 0x4C9 JUMPI PUSH0 PUSH0 REVERT JUMPDEST POP PUSH2 0x4E4 PUSH1 0x4 DUP1 CALLDATASIZE SUB DUP2 ADD SWAP1 PUSH2 0x4DF SWAP2 SWAP1 PUSH2 0x2776 JUMP JUMPDEST PUSH2 0x18EC JUMP JUMPDEST STOP JUMPDEST CALLVALUE DUP1 ISZERO PUSH2 0x4F1 JUMPI PUSH0 PUSH0 REVERT JUMPDEST POP PUSH2 0x50C PUSH1 0x4 DUP1 CALLDATASIZE SUB DUP2 ADD SWAP1 PUSH2 0x507 SWAP2 SWAP1 PUSH2 0x2B2F JUMP JUMPDEST PUSH2 0x1B86 JUMP JUMPDEST STOP JUMPDEST CALLVALUE DUP1 ISZERO PUSH2 0x519 JUMPI PUSH0 PUSH0 REVERT JUMPDEST POP PUSH2 0x522 PUSH2 0x1C76 JUMP JUMPDEST PUSH1 0x40 MLOAD PUSH2 0x52F SWAP2 SWAP1 PUSH2 0x28B6 JUMP JUMPDEST PUSH1 0x40 MLOAD DUP1 SWAP2 SUB SWAP1 RETURN JUMPDEST CALLVALUE DUP1 ISZERO PUSH2 0x543 JUMPI PUSH0 PUSH0 REVERT JUMPDEST POP PUSH2 0x54C PUSH2 0x1C7C JUMP JUMPDEST PUSH1 0x40 MLOAD PUSH2 0x559 SWAP2 SWAP1 PUSH2 0x2B6D JUMP JUMPDEST PUSH1 0x40 MLOAD DUP1 SWAP2 SUB SWAP1 RETURN JUMPDEST CALLVALUE DUP1 ISZERO PUSH2 0x56D JUMPI PUSH0 PUSH0 REVERT JUMPDEST POP PUSH2 0x588 PUSH1 0x4 DUP1 CALLDATASIZE SUB DUP2 ADD SWAP1 PUSH2 0x583 SWAP2 SWAP1 PUSH2 0x2776 JUMP JUMPDEST PUSH2 0x1C82 JUMP JUMPDEST PUSH1 0x40 MLOAD PUSH2 0x59C SWAP9 SWAP8 SWAP7 SWAP6 SWAP5 SWAP4 SWAP3 SWAP2 SWAP1 PUSH2 0x2BA8 JUMP JUMPDEST PUSH1 0x40 MLOAD DUP1 SWAP2 SUB SWAP1 RETURN JUMPDEST CALLVALUE DUP1 ISZERO PUSH2 0x5B0 JUMPI PUSH0 PUSH0 REVERT JUMPDEST POP PUSH2 0x5B9 PUSH2 0x1D13 JUMP JUMPDEST PUSH1 0x40 MLOAD PUSH2 0x5C6 SWAP2 SWAP1 PUSH2 0x28B6 JUMP JUMPDEST PUSH1 0x40 MLOAD DUP1 SWAP2 SUB SWAP1 RETURN JUMPDEST CALLVALUE DUP1 ISZERO PUSH2 0x5DA JUMPI PUSH0 PUSH0 REVERT JUMPDEST POP PUSH2 0x5F5 PUSH1 0x4 DUP1 CALLDATASIZE SUB DUP2 ADD SWAP1 PUSH2 0x5F0 SWAP2 SWAP1 PUSH2 0x2776 JUMP JUMPDEST PUSH2 0x1D19 JUMP JUMPDEST STOP JUMPDEST CALLVALUE DUP1 ISZERO PUSH2 0x602 JUMPI PUSH0 PUSH0 REVERT JUMPDEST POP PUSH2 0x61D PUSH1 0x4 DUP1 CALLDATASIZE SUB DUP2 ADD SWAP1 PUSH2 0x618 SWAP2 SWAP1 PUSH2 0x288B JUMP JUMPDEST PUSH2 0x1EDB JUMP JUMPDEST STOP JUMPDEST CALLVALUE DUP1 ISZERO PUSH2 0x62A JUMPI PUSH0 PUSH0 REVERT JUMPDEST POP PUSH2 0x645 PUSH1 0x4 DUP1 CALLDATASIZE SUB DUP2 ADD SWAP1 PUSH2 0x640 SWAP2 SWAP1 PUSH2 0x288B JUMP JUMPDEST PUSH2 0x1F69 JUMP JUMPDEST STOP JUMPDEST PUSH2 0x64F PUSH2 0x1FED JUMP JUMPDEST STOP JUMPDEST CALLVALUE DUP1 ISZERO PUSH2 0x65C JUMPI PUSH0 PUSH0 REVERT JUMPDEST POP PUSH2 0x677 PUSH1 0x4 DUP1 CALLDATASIZE SUB DUP2 ADD SWAP1 PUSH2 0x672 SWAP2 SWAP1 PUSH2 0x288B JUMP JUMPDEST PUSH2 0x2097 JUMP JUMPDEST PUSH1 0x40 MLOAD PUSH2 0x684 SWAP2 SWAP1 PUSH2 0x28B6 JUMP JUMPDEST PUSH1 0x40 MLOAD DUP1 SWAP2 SUB SWAP1 RETURN JUMPDEST PUSH2 0x695 PUSH2 0x20AC JUMP JUMPDEST PUSH2 0x69D PUSH2 0x20F6 JUMP JUMPDEST PUSH0 PUSH1 0x9 PUSH0 DUP9 DUP2 MSTORE PUSH1 0x20 ADD SWAP1 DUP2 MSTORE PUSH1 0x20 ADD PUSH0 KECCAK256 SWAP1 POP PUSH0 DUP2 PUSH1 0x4 ADD PUSH0 SWAP1 SLOAD SWAP1 PUSH2 0x100 EXP SWAP1 DIV PUSH8 0xFFFFFFFFFFFFFFFF AND PUSH8 0xFFFFFFFFFFFFFFFF AND SUB PUSH2 0x70B JUMPI PUSH1 0x40 MLOAD PUSH32 0x9E15E1BC00000000000000000000000000000000000000000000000000000000 DUP2 MSTORE PUSH1 0x4 ADD PUSH1 0x40 MLOAD DUP1 SWAP2 SUB SWAP1 REVERT JUMPDEST DUP1 PUSH1 0x4 ADD PUSH1 0x9 SWAP1 SLOAD SWAP1 PUSH2 0x100 EXP SWAP1 DIV PUSH1 0xFF AND PUSH2 0x753 JUMPI PUSH1 0x40 MLOAD PUSH32 0x5565870F00000000000000000000000000000000000000000000000000000000 DUP2 MSTORE PUSH1 0x4 ADD PUSH1 0x40 MLOAD DUP1 SWAP2 SUB SWAP1 REVERT JUMPDEST PUSH0 DUP6 SUB PUSH2 0x78C JUMPI PUSH1 0x40 MLOAD PUSH32 0x1F2A200500000000000000000000000000000000000000000000000000000000 DUP2 MSTORE PUSH1 0x4 ADD PUSH1 0x40 MLOAD DUP1 SWAP2 SUB SWAP1 REVERT JUMPDEST PUSH0 CALLER DUP8 DUP8 DUP8 PUSH1 0x40 MLOAD PUSH1 0x20 ADD PUSH2 0x7A4 SWAP5 SWAP4 SWAP3 SWAP2 SWAP1 PUSH2 0x2C89 JUMP JUMPDEST PUSH1 0x40 MLOAD PUSH1 0x20 DUP2 DUP4 SUB SUB DUP2 MSTORE SWAP1 PUSH1 0x40 MSTORE DUP1 MLOAD SWAP1 PUSH1 0x20 ADD KECCAK256 SWAP1 POP PUSH1 0xC PUSH0 DUP10 DUP2 MSTORE PUSH1 0x20 ADD SWAP1 DUP2 MSTORE PUSH1 0x20 ADD PUSH0 KECCAK256 PUSH0 DUP3 DUP2 MSTORE PUSH1 0x20 ADD SWAP1 DUP2 MSTORE PUSH1 0x20 ADD PUSH0 KECCAK256 PUSH0 SWAP1 SLOAD SWAP1 PUSH2 0x100 EXP SWAP1 DIV PUSH1 0xFF AND ISZERO PUSH2 0x820 JUMPI PUSH1 0x40 MLOAD PUSH32 0x2F29B3DB00000000000000000000000000000000000000000000000000000000 DUP2 MSTORE PUSH1 0x4 ADD PUSH1 0x40 MLOAD DUP1 SWAP2 SUB SWAP1 REVERT JUMPDEST PUSH2 0x86F DUP5 DUP5 DUP1 DUP1 PUSH1 0x20 MUL PUSH1 0x20 ADD PUSH1 0x40 MLOAD SWAP1 DUP2 ADD PUSH1 0x40 MSTORE DUP1 SWAP4 SWAP3 SWAP2 SWAP1 DUP2 DUP2 MSTORE PUSH1 0x20 ADD DUP4 DUP4 PUSH1 0x20 MUL DUP1 DUP3 DUP5 CALLDATACOPY PUSH0 DUP2 DUP5 ADD MSTORE PUSH1 0x1F NOT PUSH1 0x1F DUP3 ADD AND SWAP1 POP DUP1 DUP4 ADD SWAP3 POP POP POP POP POP POP POP DUP4 PUSH1 0x3 ADD SLOAD DUP4 PUSH2 0x2145 JUMP JUMPDEST PUSH2 0x8A5 JUMPI PUSH1 0x40 MLOAD PUSH32 0x9BDE33900000000000000000000000000000000000000000000000000000000 DUP2 MSTORE PUSH1 0x4 ADD PUSH1 0x40 MLOAD DUP1 SWAP2 SUB SWAP1 REVERT JUMPDEST PUSH1 0x1 PUSH1 0xC PUSH0 DUP11 DUP2 MSTORE PUSH1 0x20 ADD SWAP1 DUP2 MSTORE PUSH1 0x20 ADD PUSH0 KECCAK256 PUSH0 DUP4 DUP2 MSTORE PUSH1 0x20 ADD SWAP1 DUP2 MSTORE PUSH1 0x20 ADD PUSH0 KECCAK256 PUSH0 PUSH2 0x100 EXP DUP2 SLOAD DUP2 PUSH1 0xFF MUL NOT AND SWAP1 DUP4 ISZERO ISZERO MUL OR SWAP1 SSTORE POP PUSH0 PUSH20 0xFFFFFFFFFFFFFFFFFFFFFFFFFFFFFFFFFFFFFFFF AND DUP8 PUSH20 0xFFFFFFFFFFFFFFFFFFFFFFFFFFFFFFFFFFFFFFFF AND SUB PUSH2 0x9B5 JUMPI PUSH0 CALLER PUSH20 0xFFFFFFFFFFFFFFFFFFFFFFFFFFFFFFFFFFFFFFFF AND DUP8 PUSH1 0x40 MLOAD PUSH2 0x935 SWAP1 PUSH2 0x2D03 JUMP JUMPDEST PUSH0 PUSH1 0x40 MLOAD DUP1 DUP4 SUB DUP2 DUP6 DUP8 GAS CALL SWAP3 POP POP POP RETURNDATASIZE DUP1 PUSH0 DUP2 EQ PUSH2 0x96F JUMPI PUSH1 0x40 MLOAD SWAP2 POP PUSH1 0x1F NOT PUSH1 0x3F RETURNDATASIZE ADD AND DUP3 ADD PUSH1 0x40 MSTORE RETURNDATASIZE DUP3 MSTORE RETURNDATASIZE PUSH0 PUSH1 0x20 DUP5 ADD RETURNDATACOPY PUSH2 0x974 JUMP JUMPDEST PUSH1 0x60 SWAP2 POP JUMPDEST POP POP SWAP1 POP DUP1 PUSH2 0x9AF JUMPI PUSH1 0x40 MLOAD PUSH32 0x90B8EC1800000000000000000000000000000000000000000000000000000000 DUP2 MSTORE PUSH1 0x4 ADD PUSH1 0x40 MLOAD DUP1 SWAP2 SUB SWAP1 REVERT JUMPDEST POP PUSH2 0x9E1 JUMP JUMPDEST PUSH2 0x9E0 CALLER DUP8 DUP10 PUSH20 0xFFFFFFFFFFFFFFFFFFFFFFFFFFFFFFFFFFFFFFFF AND PUSH2 0x215B SWAP1 SWAP3 SWAP2 SWAP1 PUSH4 0xFFFFFFFF AND JUMP JUMPDEST JUMPDEST DUP7 PUSH20 0xFFFFFFFFFFFFFFFFFFFFFFFFFFFFFFFFFFFFFFFF AND CALLER PUSH20 0xFFFFFFFFFFFFFFFFFFFFFFFFFFFFFFFFFFFFFFFF AND DUP10 PUSH32 0x8C6F1F453248546230EDCA559F3FCDDBEA2F6C7C33A0F7899C403D78DFB642F2 DUP10 DUP10 PUSH1 0x40 MLOAD PUSH2 0xA41 SWAP3 SWAP2 SWAP1 PUSH2 0x2D17 JUMP JUMPDEST PUSH1 0x40 MLOAD DUP1 SWAP2 SUB SWAP1 LOG4 POP POP PUSH2 0xA53 PUSH2 0x21DA JUMP JUMPDEST POP POP POP POP POP POP JUMP JUMPDEST PUSH0 PUSH0 PUSH0 PUSH0 PUSH0 PUSH0 PUSH0 PUSH0 PUSH0 PUSH0 PUSH0 PUSH1 0x9 PUSH0 DUP14 DUP2 MSTORE PUSH1 0x20 ADD SWAP1 DUP2 MSTORE PUSH1 0x20 ADD PUSH0 KECCAK256 SWAP1 POP PUSH0 DUP2 PUSH1 0x4 ADD PUSH0 SWAP1 SLOAD SWAP1 PUSH2 0x100 EXP SWAP1 DIV PUSH8 0xFFFFFFFFFFFFFFFF AND PUSH8 0xFFFFFFFFFFFFFFFF AND EQ ISZERO SWAP11 POP DUP1 PUSH1 0x4 ADD PUSH1 0x8 SWAP1 SLOAD SWAP1 PUSH2 0x100 EXP SWAP1 DIV PUSH1 0xFF AND SWAP10 POP DUP1 PUSH1 0x4 ADD PUSH1 0x9 SWAP1 SLOAD SWAP1 PUSH2 0x100 EXP SWAP1 DIV PUSH1 0xFF AND SWAP9 POP DUP1 PUSH1 0x4 ADD PUSH0 SWAP1 SLOAD SWAP1 PUSH2 0x100 EXP SWAP1 DIV PUSH8 0xFFFFFFFFFFFFFFFF AND PUSH8 0xFFFFFFFFFFFFFFFF AND SWAP8 POP PUSH0 DUP2 PUSH1 0x4 ADD PUSH0 SWAP1 SLOAD SWAP1 PUSH2 0x100 EXP SWAP1 DIV PUSH8 0xFFFFFFFFFFFFFFFF AND PUSH8 0xFFFFFFFFFFFFFFFF AND EQ PUSH2 0xB48 JUMPI PUSH1 0x6 SLOAD DUP2 PUSH1 0x4 ADD PUSH0 SWAP1 SLOAD SWAP1 PUSH2 0x100 EXP SWAP1 DIV PUSH8 0xFFFFFFFFFFFFFFFF AND PUSH8 0xFFFFFFFFFFFFFFFF AND PUSH2 0xB43 SWAP2 SWAP1 PUSH2 0x2D6B JUMP JUMPDEST PUSH2 0xB4A JUMP JUMPDEST PUSH0 JUMPDEST SWAP7 POP DUP1 PUSH0 ADD SLOAD SWAP6 POP DUP1 PUSH1 0x1 ADD SLOAD SWAP5 POP DUP1 PUSH1 0x2 ADD SLOAD SWAP4 POP DUP1 PUSH1 0x3 ADD SLOAD SWAP3 POP DUP1 PUSH1 0x4 ADD PUSH1 0xA SWAP1 SLOAD SWAP1 PUSH2 0x100 EXP SWAP1 DIV PUSH20 0xFFFFFFFFFFFFFFFFFFFFFFFFFFFFFFFFFFFFFFFF AND SWAP2 POP POP SWAP2 SWAP4 SWAP6 SWAP8 SWAP10 POP SWAP2 SWAP4 SWAP6 SWAP8 SWAP10 JUMP JUMPDEST PUSH2 0xBA4 PUSH2 0x21E3 JUMP JUMPDEST PUSH0 PUSH20 0xFFFFFFFFFFFFFFFFFFFFFFFFFFFFFFFFFFFFFFFF AND DUP2 PUSH20 0xFFFFFFFFFFFFFFFFFFFFFFFFFFFFFFFFFFFFFFFF AND SUB PUSH2 0xC12 JUMPI PUSH1 0x40 MLOAD PUSH32 0x8C379A000000000000000000000000000000000000000000000000000000000 DUP2 MSTORE PUSH1 0x4 ADD PUSH2 0xC09 SWAP1 PUSH2 0x2DF8 JUMP JUMPDEST PUSH1 0x40 MLOAD DUP1 SWAP2 SUB SWAP1 REVERT JUMPDEST DUP1 PUSH20 0xFFFFFFFFFFFFFFFFFFFFFFFFFFFFFFFFFFFFFFFF AND PUSH1 0x2 PUSH0 SWAP1 SLOAD SWAP1 PUSH2 0x100 EXP SWAP1 DIV PUSH20 0xFFFFFFFFFFFFFFFFFFFFFFFFFFFFFFFFFFFFFFFF AND PUSH20 0xFFFFFFFFFFFFFFFFFFFFFFFFFFFFFFFFFFFFFFFF AND PUSH32 0xCD58B762453BD126B48DB83F2CECD464F5281DD7E5E6824B528C09D0482984D6 PUSH1 0x40 MLOAD PUSH1 0x40 MLOAD DUP1 SWAP2 SUB SWAP1 LOG3 DUP1 PUSH1 0x2 PUSH0 PUSH2 0x100 EXP DUP2 SLOAD DUP2 PUSH20 0xFFFFFFFFFFFFFFFFFFFFFFFFFFFFFFFFFFFFFFFF MUL NOT AND SWAP1 DUP4 PUSH20 0xFFFFFFFFFFFFFFFFFFFFFFFFFFFFFFFFFFFFFFFF AND MUL OR SWAP1 SSTORE POP POP JUMP JUMPDEST PUSH2 0xCD8 PUSH2 0x20AC JUMP JUMPDEST PUSH2 0xCE0 PUSH2 0x20F6 JUMP JUMPDEST DUP1 PUSH1 0x7 PUSH0 CALLER PUSH20 0xFFFFFFFFFFFFFFFFFFFFFFFFFFFFFFFFFFFFFFFF AND PUSH20 0xFFFFFFFFFFFFFFFFFFFFFFFFFFFFFFFFFFFFFFFF AND DUP2 MSTORE PUSH1 0x20 ADD SWAP1 DUP2 MSTORE PUSH1 0x20 ADD PUSH0 KECCAK256 SLOAD LT ISZERO PUSH2 0xD60 JUMPI PUSH1 0x40 MLOAD PUSH32 0x8C379A000000000000000000000000000000000000000000000000000000000 DUP2 MSTORE PUSH1 0x4 ADD PUSH2 0xD57 SWAP1 PUSH2 0x2E60 JUMP JUMPDEST PUSH1 0x40 MLOAD DUP1 SWAP2 SUB SWAP1 REVERT JUMPDEST DUP1 PUSH1 0x7 PUSH0 CALLER PUSH20 0xFFFFFFFFFFFFFFFFFFFFFFFFFFFFFFFFFFFFFFFF AND PUSH20 0xFFFFFFFFFFFFFFFFFFFFFFFFFFFFFFFFFFFFFFFF AND DUP2 MSTORE PUSH1 0x20 ADD SWAP1 DUP2 MSTORE PUSH1 0x20 ADD PUSH0 KECCAK256 PUSH0 DUP3 DUP3 SLOAD PUSH2 0xDAC SWAP2 SWAP1 PUSH2 0x2E7E JUMP JUMPDEST SWAP3 POP POP DUP2 SWAP1 SSTORE POP PUSH0 CALLER PUSH20 0xFFFFFFFFFFFFFFFFFFFFFFFFFFFFFFFFFFFFFFFF AND DUP3 PUSH1 0x40 MLOAD PUSH2 0xDD8 SWAP1 PUSH2 0x2D03 JUMP JUMPDEST PUSH0 PUSH1 0x40 MLOAD DUP1 DUP4 SUB DUP2 DUP6 DUP8 GAS CALL SWAP3 POP POP POP RETURNDATASIZE DUP1 PUSH0 DUP2 EQ PUSH2 0xE12 JUMPI PUSH1 0x40 MLOAD SWAP2 POP PUSH1 0x1F NOT PUSH1 0x3F RETURNDATASIZE ADD AND DUP3 ADD PUSH1 0x40 MSTORE RETURNDATASIZE DUP3 MSTORE RETURNDATASIZE PUSH0 PUSH1 0x20 DUP5 ADD RETURNDATACOPY PUSH2 0xE17 JUMP JUMPDEST PUSH1 0x60 SWAP2 POP JUMPDEST POP POP SWAP1 POP DUP1 PUSH2 0xE52 JUMPI PUSH1 0x40 MLOAD PUSH32 0x90B8EC1800000000000000000000000000000000000000000000000000000000 DUP2 MSTORE PUSH1 0x4 ADD PUSH1 0x40 MLOAD DUP1 SWAP2 SUB SWAP1 REVERT JUMPDEST CALLER PUSH20 0xFFFFFFFFFFFFFFFFFFFFFFFFFFFFFFFFFFFFFFFF AND PUSH32 0xD24DBF5E9299CE53C3AA9F7227FF1CC8441C2FAAE04509AA370CA3703385D6B4 DUP4 PUSH1 0x40 MLOAD PUSH2 0xE98 SWAP2 SWAP1 PUSH2 0x28B6 JUMP JUMPDEST PUSH1 0x40 MLOAD DUP1 SWAP2 SUB SWAP1 LOG2 POP PUSH2 0xEA9 PUSH2 0x21DA JUMP JUMPDEST POP JUMP JUMPDEST PUSH2 0xEB4 PUSH2 0x21E3 JUMP JUMPDEST PUSH2 0xEBC PUSH2 0x226A JUMP JUMPDEST JUMP JUMPDEST PUSH1 0x8 SLOAD DUP2 JUMP JUMPDEST PUSH1 0xC PUSH1 0x20 MSTORE DUP2 PUSH0 MSTORE PUSH1 0x40 PUSH0 KECCAK256 PUSH1 0x20 MSTORE DUP1 PUSH0 MSTORE PUSH1 0x40 PUSH0 KECCAK256 PUSH0 SWAP2 POP SWAP2 POP SWAP1 SLOAD SWAP1 PUSH2 0x100 EXP SWAP1 DIV PUSH1 0xFF AND DUP2 JUMP JUMPDEST PUSH2 0xEF6 PUSH2 0x21E3 JUMP JUMPDEST DUP3 PUSH1 0x6 DUP2 SWAP1 SSTORE POP DUP2 PUSH1 0x4 DUP2 SWAP1 SSTORE POP DUP1 PUSH1 0x5 DUP2 SWAP1 SSTORE POP PUSH32 0xCBA168CFA7900657E5F8CC53D6F52EBBFA3A9F568941B465CC4F731C60C95B2 DUP4 DUP4 DUP4 PUSH1 0x40 MLOAD PUSH2 0xF3E SWAP4 SWAP3 SWAP2 SWAP1 PUSH2 0x2EB1 JUMP JUMPDEST PUSH1 0x40 MLOAD DUP1 SWAP2 SUB SWAP1 LOG1 POP POP POP JUMP JUMPDEST PUSH1 0x3 PUSH0 SWAP1 SLOAD SWAP1 PUSH2 0x100 EXP SWAP1 DIV PUSH20 0xFFFFFFFFFFFFFFFFFFFFFFFFFFFFFFFFFFFFFFFF AND DUP2 JUMP JUMPDEST PUSH1 0x2 PUSH0 SWAP1 SLOAD SWAP1 PUSH2 0x100 EXP SWAP1 DIV PUSH20 0xFFFFFFFFFFFFFFFFFFFFFFFFFFFFFFFFFFFFFFFF AND DUP2 JUMP JUMPDEST PUSH0 PUSH0 PUSH1 0x14 SWAP1 SLOAD SWAP1 PUSH2 0x100 EXP SWAP1 DIV PUSH1 0xFF AND SWAP1 POP SWAP1 JUMP JUMPDEST PUSH2 0xFB2 PUSH2 0x20AC JUMP JUMPDEST PUSH0 CALLVALUE SUB PUSH2 0xFEB JUMPI PUSH1 0x40 MLOAD PUSH32 0x1F2A200500000000000000000000000000000000000000000000000000000000 DUP2 MSTORE PUSH1 0x4 ADD PUSH1 0x40 MLOAD DUP1 SWAP2 SUB SWAP1 REVERT JUMPDEST CALLVALUE PUSH1 0x7 PUSH0 CALLER PUSH20 0xFFFFFFFFFFFFFFFFFFFFFFFFFFFFFFFFFFFFFFFF AND PUSH20 0xFFFFFFFFFFFFFFFFFFFFFFFFFFFFFFFFFFFFFFFF AND DUP2 MSTORE PUSH1 0x20 ADD SWAP1 DUP2 MSTORE PUSH1 0x20 ADD PUSH0 KECCAK256 PUSH0 DUP3 DUP3 SLOAD PUSH2 0x1037 SWAP2 SWAP1 PUSH2 0x2D6B JUMP JUMPDEST SWAP3 POP POP DUP2 SWAP1 SSTORE POP CALLER PUSH20 0xFFFFFFFFFFFFFFFFFFFFFFFFFFFFFFFFFFFFFFFF AND PUSH32 0xD0A009034E24A39106653C4903CF28B1947B8A9964D03206648E0F0A5DE74A46 CALLVALUE PUSH1 0x40 MLOAD PUSH2 0x1084 SWAP2 SWAP1 PUSH2 0x28B6 JUMP JUMPDEST PUSH1 0x40 MLOAD DUP1 SWAP2 SUB SWAP1 LOG2 JUMP JUMPDEST PUSH2 0x1096 PUSH2 0x20AC JUMP JUMPDEST PUSH1 0x2 PUSH0 SWAP1 SLOAD SWAP1 PUSH2 0x100 EXP SWAP1 DIV PUSH20 0xFFFFFFFFFFFFFFFFFFFFFFFFFFFFFFFFFFFFFFFF AND PUSH20 0xFFFFFFFFFFFFFFFFFFFFFFFFFFFFFFFFFFFFFFFF AND CALLER PUSH20 0xFFFFFFFFFFFFFFFFFFFFFFFFFFFFFFFFFFFFFFFF AND EQ PUSH2 0x111C JUMPI PUSH1 0x40 MLOAD PUSH32 0x53E2827C00000000000000000000000000000000000000000000000000000000 DUP2 MSTORE PUSH1 0x4 ADD PUSH1 0x40 MLOAD DUP1 SWAP2 SUB SWAP1 REVERT JUMPDEST PUSH1 0x4 SLOAD PUSH1 0x7 PUSH0 CALLER PUSH20 0xFFFFFFFFFFFFFFFFFFFFFFFFFFFFFFFFFFFFFFFF AND PUSH20 0xFFFFFFFFFFFFFFFFFFFFFFFFFFFFFFFFFFFFFFFF AND DUP2 MSTORE PUSH1 0x20 ADD SWAP1 DUP2 MSTORE PUSH1 0x20 ADD PUSH0 KECCAK256 SLOAD LT ISZERO PUSH2 0x119E JUMPI PUSH1 0x40 MLOAD PUSH32 0x8C379A000000000000000000000000000000000000000000000000000000000 DUP2 MSTORE PUSH1 0x4 ADD PUSH2 0x1195 SWAP1 PUSH2 0x2F30 JUMP JUMPDEST PUSH1 0x40 MLOAD DUP1 SWAP2 SUB SWAP1 REVERT JUMPDEST PUSH0 PUSH0 SHL DUP4 EQ DUP1 PUSH2 0x11AF JUMPI POP PUSH0 PUSH0 SHL DUP3 EQ JUMPDEST ISZERO PUSH2 0x11E6 JUMPI PUSH1 0x40 MLOAD PUSH32 0x86BDC25C00000000000000000000000000000000000000000000000000000000 DUP2 MSTORE PUSH1 0x4 ADD PUSH1 0x40 MLOAD DUP1 SWAP2 SUB SWAP1 REVERT JUMPDEST PUSH0 PUSH1 0x8 PUSH0 DUP2 SLOAD PUSH2 0x11F5 SWAP1 PUSH2 0x2F4E JUMP JUMPDEST SWAP2 SWAP1 POP DUP2 SWAP1 SSTORE SWAP1 POP PUSH0 PUSH1 0x9 PUSH0 DUP4 DUP2 MSTORE PUSH1 0x20 ADD SWAP1 DUP2 MSTORE PUSH1 0x20 ADD PUSH0 KECCAK256 SWAP1 POP PUSH1 0xA SLOAD DUP2 PUSH0 ADD DUP2 SWAP1 SSTORE POP DUP5 DUP2 PUSH1 0x1 ADD DUP2 SWAP1 SSTORE POP DUP4 DUP2 PUSH1 0x2 ADD DUP2 SWAP1 SSTORE POP DUP3 DUP2 PUSH1 0x3 ADD DUP2 SWAP1 SSTORE POP TIMESTAMP DUP2 PUSH1 0x4 ADD PUSH0 PUSH2 0x100 EXP DUP2 SLOAD DUP2 PUSH8 0xFFFFFFFFFFFFFFFF MUL NOT AND SWAP1 DUP4 PUSH8 0xFFFFFFFFFFFFFFFF AND MUL OR SWAP1 SSTORE POP DUP1 PUSH1 0x1 ADD SLOAD DUP2 PUSH0 ADD SLOAD DUP4 PUSH32 0x65300CE317AB79E5474EEFCB0C14E8D429B3E59746933DBB8E07F051347C4190 DUP8 DUP8 PUSH1 0x40 MLOAD PUSH2 0x129B SWAP3 SWAP2 SWAP1 PUSH2 0x2F95 JUMP JUMPDEST PUSH1 0x40 MLOAD DUP1 SWAP2 SUB SWAP1 LOG4 DUP5 PUSH1 0xA DUP2 SWAP1 SSTORE POP POP POP POP POP POP JUMP JUMPDEST PUSH1 0x5 SLOAD DUP2 JUMP JUMPDEST PUSH2 0x12BF PUSH2 0x21E3 JUMP JUMPDEST PUSH2 0x12C8 PUSH0 PUSH2 0x22CB JUMP JUMPDEST JUMP JUMPDEST PUSH2 0x12D2 PUSH2 0x20AC JUMP JUMPDEST PUSH0 PUSH1 0x9 PUSH0 DUP6 DUP2 MSTORE PUSH1 0x20 ADD SWAP1 DUP2 MSTORE PUSH1 0x20 ADD PUSH0 KECCAK256 SWAP1 POP PUSH0 DUP2 PUSH1 0x4 ADD PUSH0 SWAP1 SLOAD SWAP1 PUSH2 0x100 EXP SWAP1 DIV PUSH8 0xFFFFFFFFFFFFFFFF AND PUSH8 0xFFFFFFFFFFFFFFFF AND SUB PUSH2 0x1340 JUMPI PUSH1 0x40 MLOAD PUSH32 0x9E15E1BC00000000000000000000000000000000000000000000000000000000 DUP2 MSTORE PUSH1 0x4 ADD PUSH1 0x40 MLOAD DUP1 SWAP2 SUB SWAP1 REVERT JUMPDEST DUP1 PUSH1 0x4 ADD PUSH1 0x8 SWAP1 SLOAD SWAP1 PUSH2 0x100 EXP SWAP1 DIV PUSH1 0xFF AND PUSH2 0x1388 JUMPI PUSH1 0x40 MLOAD PUSH32 0xD44BE46E00000000000000000000000000000000000000000000000000000000 DUP2 MSTORE PUSH1 0x4 ADD PUSH1 0x40 MLOAD DUP1 SWAP2 SUB SWAP1 REVERT JUMPDEST DUP1 PUSH1 0x4 ADD PUSH1 0x9 SWAP1 SLOAD SWAP1 PUSH2 0x100 EXP SWAP1 DIV PUSH1 0xFF AND ISZERO PUSH2 0x13D1 JUMPI PUSH1 0x40 MLOAD PUSH32 0x8A66D60700000000000000000000000000000000000000000000000000000000 DUP2 MSTORE PUSH1 0x4 ADD PUSH1 0x40 MLOAD DUP1 SWAP2 SUB SWAP1 REVERT JUMPDEST DUP1 PUSH1 0x4 ADD PUSH1 0xA SWAP1 SLOAD SWAP1 PUSH2 0x100 EXP SWAP1 DIV PUSH20 0xFFFFFFFFFFFFFFFFFFFFFFFFFFFFFFFFFFFFFFFF AND PUSH20 0xFFFFFFFFFFFFFFFFFFFFFFFFFFFFFFFFFFFFFFFF AND CALLER PUSH20 0xFFFFFFFFFFFFFFFFFFFFFFFFFFFFFFFFFFFFFFFF AND EQ ISZERO DUP1 ISZERO PUSH2 0x1464 JUMPI POP PUSH2 0x1434 PUSH2 0x18C5 JUMP JUMPDEST PUSH20 0xFFFFFFFFFFFFFFFFFFFFFFFFFFFFFFFFFFFFFFFF AND CALLER PUSH20 0xFFFFFFFFFFFFFFFFFFFFFFFFFFFFFFFFFFFFFFFF AND EQ ISZERO JUMPDEST ISZERO PUSH2 0x149B JUMPI PUSH1 0x40 MLOAD PUSH32 0xD44BE46E00000000000000000000000000000000000000000000000000000000 DUP2 MSTORE PUSH1 0x4 ADD PUSH1 0x40 MLOAD DUP1 SWAP2 SUB SWAP1 REVERT JUMPDEST PUSH0 PUSH20 0xFFFFFFFFFFFFFFFFFFFFFFFFFFFFFFFFFFFFFFFF AND PUSH1 0x3 PUSH0 SWAP1 SLOAD SWAP1 PUSH2 0x100 EXP SWAP1 DIV PUSH20 0xFFFFFFFFFFFFFFFFFFFFFFFFFFFFFFFFFFFFFFFF AND PUSH20 0xFFFFFFFFFFFFFFFFFFFFFFFFFFFFFFFFFFFFFFFF AND SUB PUSH2 0x1521 JUMPI PUSH1 0x40 MLOAD PUSH32 0x9BDE33900000000000000000000000000000000000000000000000000000000 DUP2 MSTORE PUSH1 0x4 ADD PUSH1 0x40 MLOAD DUP1 SWAP2 SUB SWAP1 REVERT JUMPDEST PUSH0 PUSH1 0x3 PUSH0 SWAP1 SLOAD SWAP1 PUSH2 0x100 EXP SWAP1 DIV PUSH20 0xFFFFFFFFFFFFFFFFFFFFFFFFFFFFFFFFFFFFFFFF AND PUSH20 0xFFFFFFFFFFFFFFFFFFFFFFFFFFFFFFFFFFFFFFFF AND PUSH4 0x8606D488 DUP6 DUP6 DUP6 PUSH1 0x2 ADD SLOAD DUP7 PUSH0 ADD SLOAD DUP8 PUSH1 0x1 ADD SLOAD PUSH1 0x40 MLOAD DUP7 PUSH4 0xFFFFFFFF AND PUSH1 0xE0 SHL DUP2 MSTORE PUSH1 0x4 ADD PUSH2 0x158F SWAP6 SWAP5 SWAP4 SWAP3 SWAP2 SWAP1 PUSH2 0x3016 JUMP JUMPDEST PUSH1 0x20 PUSH1 0x40 MLOAD DUP1 DUP4 SUB DUP2 DUP7 GAS STATICCALL ISZERO DUP1 ISZERO PUSH2 0x15AA JUMPI RETURNDATASIZE PUSH0 PUSH0 RETURNDATACOPY RETURNDATASIZE PUSH0 REVERT JUMPDEST POP POP POP POP PUSH1 0x40 MLOAD RETURNDATASIZE PUSH1 0x1F NOT PUSH1 0x1F DUP3 ADD AND DUP3 ADD DUP1 PUSH1 0x40 MSTORE POP DUP2 ADD SWAP1 PUSH2 0x15CE SWAP2 SWAP1 PUSH2 0x308C JUMP JUMPDEST SWAP1 POP DUP1 ISZERO PUSH2 0x1752 JUMPI PUSH0 PUSH1 0x2 PUSH1 0x4 SLOAD PUSH2 0x15E6 SWAP2 SWAP1 PUSH2 0x30E4 JUMP JUMPDEST SWAP1 POP PUSH0 PUSH1 0x7 PUSH0 PUSH1 0x2 PUSH0 SWAP1 SLOAD SWAP1 PUSH2 0x100 EXP SWAP1 DIV PUSH20 0xFFFFFFFFFFFFFFFFFFFFFFFFFFFFFFFFFFFFFFFF AND PUSH20 0xFFFFFFFFFFFFFFFFFFFFFFFFFFFFFFFFFFFFFFFF AND PUSH20 0xFFFFFFFFFFFFFFFFFFFFFFFFFFFFFFFFFFFFFFFF AND DUP2 MSTORE PUSH1 0x20 ADD SWAP1 DUP2 MSTORE PUSH1 0x20 ADD PUSH0 KECCAK256 SLOAD SWAP1 POP PUSH0 DUP2 DUP4 GT PUSH2 0x1658 JUMPI DUP3 PUSH2 0x165A JUMP JUMPDEST DUP2 JUMPDEST SWAP1 POP PUSH0 DUP2 GT ISZERO PUSH2 0x174A JUMPI DUP1 DUP3 PUSH2 0x1670 SWAP2 SWAP1 PUSH2 0x2E7E JUMP JUMPDEST PUSH1 0x7 PUSH0 PUSH1 0x2 PUSH0 SWAP1 SLOAD SWAP1 PUSH2 0x100 EXP SWAP1 DIV PUSH20 0xFFFFFFFFFFFFFFFFFFFFFFFFFFFFFFFFFFFFFFFF AND PUSH20 0xFFFFFFFFFFFFFFFFFFFFFFFFFFFFFFFFFFFFFFFF AND PUSH20 0xFFFFFFFFFFFFFFFFFFFFFFFFFFFFFFFFFFFFFFFF AND DUP2 MSTORE PUSH1 0x20 ADD SWAP1 DUP2 MSTORE PUSH1 0x20 ADD PUSH0 KECCAK256 DUP2 SWAP1 SSTORE POP DUP1 PUSH1 0x7 PUSH0 DUP8 PUSH1 0x4 ADD PUSH1 0xA SWAP1 SLOAD SWAP1 PUSH2 0x100 EXP SWAP1 DIV PUSH20 0xFFFFFFFFFFFFFFFFFFFFFFFFFFFFFFFFFFFFFFFF AND PUSH20 0xFFFFFFFFFFFFFFFFFFFFFFFFFFFFFFFFFFFFFFFF AND PUSH20 0xFFFFFFFFFFFFFFFFFFFFFFFFFFFFFFFFFFFFFFFF AND DUP2 MSTORE PUSH1 0x20 ADD SWAP1 DUP2 MSTORE PUSH1 0x20 ADD PUSH0 KECCAK256 PUSH0 DUP3 DUP3 SLOAD PUSH2 0x1742 SWAP2 SWAP1 PUSH2 0x2D6B JUMP JUMPDEST SWAP3 POP POP DUP2 SWAP1 SSTORE POP JUMPDEST POP POP POP PUSH2 0x1852 JUMP JUMPDEST PUSH0 PUSH1 0xA PUSH1 0x5 SLOAD PUSH2 0x1762 SWAP2 SWAP1 PUSH2 0x30E4 JUMP JUMPDEST SWAP1 POP PUSH0 PUSH1 0x7 PUSH0 DUP6 PUSH1 0x4 ADD PUSH1 0xA SWAP1 SLOAD SWAP1 PUSH2 0x100 EXP SWAP1 DIV PUSH20 0xFFFFFFFFFFFFFFFFFFFFFFFFFFFFFFFFFFFFFFFF AND PUSH20 0xFFFFFFFFFFFFFFFFFFFFFFFFFFFFFFFFFFFFFFFF AND PUSH20 0xFFFFFFFFFFFFFFFFFFFFFFFFFFFFFFFFFFFFFFFF AND DUP2 MSTORE PUSH1 0x20 ADD SWAP1 DUP2 MSTORE PUSH1 0x20 ADD PUSH0 KECCAK256 SLOAD SWAP1 POP PUSH0 DUP3 GT DUP1 ISZERO PUSH2 0x17D8 JUMPI POP DUP2 DUP2 LT ISZERO JUMPDEST ISZERO PUSH2 0x184F JUMPI DUP2 DUP2 PUSH2 0x17E9 SWAP2 SWAP1 PUSH2 0x2E7E JUMP JUMPDEST PUSH1 0x7 PUSH0 DUP7 PUSH1 0x4 ADD PUSH1 0xA SWAP1 SLOAD SWAP1 PUSH2 0x100 EXP SWAP1 DIV PUSH20 0xFFFFFFFFFFFFFFFFFFFFFFFFFFFFFFFFFFFFFFFF AND PUSH20 0xFFFFFFFFFFFFFFFFFFFFFFFFFFFFFFFFFFFFFFFF AND PUSH20 0xFFFFFFFFFFFFFFFFFFFFFFFFFFFFFFFFFFFFFFFF AND DUP2 MSTORE PUSH1 0x20 ADD SWAP1 DUP2 MSTORE PUSH1 0x20 ADD PUSH0 KECCAK256 DUP2 SWAP1 SSTORE POP JUMPDEST POP POP JUMPDEST PUSH0 DUP3 PUSH1 0x4 ADD PUSH1 0x8 PUSH2 0x100 EXP DUP2 SLOAD DUP2 PUSH1 0xFF MUL NOT AND SWAP1 DUP4 ISZERO ISZERO MUL OR SWAP1 SSTORE POP DUP5 PUSH32 0x1C13286911EA61AB9E07CF462B69B2C12954593A03380A618AFDF62D227021AE DUP3 PUSH1 0x40 MLOAD PUSH2 0x189E SWAP2 SWAP1 PUSH2 0x2937 JUMP JUMPDEST PUSH1 0x40 MLOAD DUP1 SWAP2 SUB SWAP1 LOG2 POP POP POP POP POP JUMP JUMPDEST PUSH2 0x18B5 PUSH2 0x21E3 JUMP JUMPDEST PUSH2 0x18BD PUSH2 0x238C JUMP JUMPDEST JUMP JUMPDEST PUSH1 0x6 SLOAD DUP2 JUMP JUMPDEST PUSH0 PUSH0 PUSH0 SWAP1 SLOAD SWAP1 PUSH2 0x100 EXP SWAP1 DIV PUSH20 0xFFFFFFFFFFFFFFFFFFFFFFFFFFFFFFFFFFFFFFFF AND SWAP1 POP SWAP1 JUMP JUMPDEST PUSH2 0x18F4 PUSH2 0x20AC JUMP JUMPDEST PUSH0 PUSH1 0x9 PUSH0 DUP4 DUP2 MSTORE PUSH1 0x20 ADD SWAP1 DUP2 MSTORE PUSH1 0x20 ADD PUSH0 KECCAK256 SWAP1 POP PUSH0 DUP2 PUSH1 0x4 ADD PUSH0 SWAP1 SLOAD SWAP1 PUSH2 0x100 EXP SWAP1 DIV PUSH8 0xFFFFFFFFFFFFFFFF AND PUSH8 0xFFFFFFFFFFFFFFFF AND SUB PUSH2 0x1962 JUMPI PUSH1 0x40 MLOAD PUSH32 0x9E15E1BC00000000000000000000000000000000000000000000000000000000 DUP2 MSTORE PUSH1 0x4 ADD PUSH1 0x40 MLOAD DUP1 SWAP2 SUB SWAP1 REVERT JUMPDEST DUP1 PUSH1 0x4 ADD PUSH1 0x9 SWAP1 SLOAD SWAP1 PUSH2 0x100 EXP SWAP1 DIV PUSH1 0xFF AND ISZERO PUSH2 0x19AB JUMPI PUSH1 0x40 MLOAD PUSH32 0x8A66D60700000000000000000000000000000000000000000000000000000000 DUP2 MSTORE PUSH1 0x4 ADD PUSH1 0x40 MLOAD DUP1 SWAP2 SUB SWAP1 REVERT JUMPDEST DUP1 PUSH1 0x4 ADD PUSH1 0x8 SWAP1 SLOAD SWAP1 PUSH2 0x100 EXP SWAP1 DIV PUSH1 0xFF AND ISZERO PUSH2 0x19F4 JUMPI PUSH1 0x40 MLOAD PUSH32 0xF1082A9300000000000000000000000000000000000000000000000000000000 DUP2 MSTORE PUSH1 0x4 ADD PUSH1 0x40 MLOAD DUP1 SWAP2 SUB SWAP1 REVERT JUMPDEST PUSH1 0x6 SLOAD DUP2 PUSH1 0x4 ADD PUSH0 SWAP1 SLOAD SWAP1 PUSH2 0x100 EXP SWAP1 DIV PUSH8 0xFFFFFFFFFFFFFFFF AND PUSH8 0xFFFFFFFFFFFFFFFF AND PUSH2 0x1A23 SWAP2 SWAP1 PUSH2 0x2D6B JUMP JUMPDEST TIMESTAMP GT ISZERO PUSH2 0x1A5C JUMPI PUSH1 0x40 MLOAD PUSH32 0xF541751000000000000000000000000000000000000000000000000000000000 DUP2 MSTORE PUSH1 0x4 ADD PUSH1 0x40 MLOAD DUP1 SWAP2 SUB SWAP1 REVERT JUMPDEST PUSH1 0x5 SLOAD PUSH1 0x7 PUSH0 CALLER PUSH20 0xFFFFFFFFFFFFFFFFFFFFFFFFFFFFFFFFFFFFFFFF AND PUSH20 0xFFFFFFFFFFFFFFFFFFFFFFFFFFFFFFFFFFFFFFFF AND DUP2 MSTORE PUSH1 0x20 ADD SWAP1 DUP2 MSTORE PUSH1 0x20 ADD PUSH0 KECCAK256 SLOAD LT ISZERO PUSH2 0x1ADE JUMPI PUSH1 0x40 MLOAD PUSH32 0x8C379A000000000000000000000000000000000000000000000000000000000 DUP2 MSTORE PUSH1 0x4 ADD PUSH2 0x1AD5 SWAP1 PUSH2 0x315E JUMP JUMPDEST PUSH1 0x40 MLOAD DUP1 SWAP2 SUB SWAP1 REVERT JUMPDEST PUSH1 0x1 DUP2 PUSH1 0x4 ADD PUSH1 0x8 PUSH2 0x100 EXP DUP2 SLOAD DUP2 PUSH1 0xFF MUL NOT AND SWAP1 DUP4 ISZERO ISZERO MUL OR SWAP1 SSTORE POP CALLER DUP2 PUSH1 0x4 ADD PUSH1 0xA PUSH2 0x100 EXP DUP2 SLOAD DUP2 PUSH20 0xFFFFFFFFFFFFFFFFFFFFFFFFFFFFFFFFFFFFFFFF MUL NOT AND SWAP1 DUP4 PUSH20 0xFFFFFFFFFFFFFFFFFFFFFFFFFFFFFFFFFFFFFFFF AND MUL OR SWAP1 SSTORE POP CALLER PUSH20 0xFFFFFFFFFFFFFFFFFFFFFFFFFFFFFFFFFFFFFFFF AND DUP3 PUSH32 0x341905ABD65F49EB35219139A0CCDCE4A6D57D73972347DB266F11ADCB5A8C89 PUSH1 0x40 MLOAD PUSH1 0x40 MLOAD DUP1 SWAP2 SUB SWAP1 LOG3 POP POP JUMP JUMPDEST PUSH2 0x1B8E PUSH2 0x20AC JUMP JUMPDEST PUSH0 DUP2 SUB PUSH2 0x1BC7 JUMPI PUSH1 0x40 MLOAD PUSH32 0x1F2A200500000000000000000000000000000000000000000000000000000000 DUP2 MSTORE PUSH1 0x4 ADD PUSH1 0x40 MLOAD DUP1 SWAP2 SUB SWAP1 REVERT JUMPDEST PUSH2 0x1BF4 CALLER ADDRESS DUP4 DUP6 PUSH20 0xFFFFFFFFFFFFFFFFFFFFFFFFFFFFFFFFFFFFFFFF AND PUSH2 0x23EE SWAP1 SWAP4 SWAP3 SWAP2 SWAP1 PUSH4 0xFFFFFFFF AND JUMP JUMPDEST PUSH0 PUSH1 0xB PUSH0 DUP2 SLOAD PUSH2 0x1C03 SWAP1 PUSH2 0x2F4E JUMP JUMPDEST SWAP2 SWAP1 POP DUP2 SWAP1 SSTORE SWAP1 POP DUP1 DUP4 PUSH20 0xFFFFFFFFFFFFFFFFFFFFFFFFFFFFFFFFFFFFFFFF AND CALLER PUSH20 0xFFFFFFFFFFFFFFFFFFFFFFFFFFFFFFFFFFFFFFFF AND PUSH32 0x228ADEF123A7FE6B727889B4D24B39B39DE663428214FD757C6C501FB98D8494 DUP6 PUSH1 0x40 MLOAD PUSH2 0x1C69 SWAP2 SWAP1 PUSH2 0x28B6 JUMP JUMPDEST PUSH1 0x40 MLOAD DUP1 SWAP2 SUB SWAP1 LOG4 POP POP POP JUMP JUMPDEST PUSH1 0x4 SLOAD DUP2 JUMP JUMPDEST PUSH1 0xA SLOAD DUP2 JUMP JUMPDEST PUSH1 0x9 PUSH1 0x20 MSTORE DUP1 PUSH0 MSTORE PUSH1 0x40 PUSH0 KECCAK256 PUSH0 SWAP2 POP SWAP1 POP DUP1 PUSH0 ADD SLOAD SWAP1 DUP1 PUSH1 0x1 ADD SLOAD SWAP1 DUP1 PUSH1 0x2 ADD SLOAD SWAP1 DUP1 PUSH1 0x3 ADD SLOAD SWAP1 DUP1 PUSH1 0x4 ADD PUSH0 SWAP1 SLOAD SWAP1 PUSH2 0x100 EXP SWAP1 DIV PUSH8 0xFFFFFFFFFFFFFFFF AND SWAP1 DUP1 PUSH1 0x4 ADD PUSH1 0x8 SWAP1 SLOAD SWAP1 PUSH2 0x100 EXP SWAP1 DIV PUSH1 0xFF AND SWAP1 DUP1 PUSH1 0x4 ADD PUSH1 0x9 SWAP1 SLOAD SWAP1 PUSH2 0x100 EXP SWAP1 DIV PUSH1 0xFF AND SWAP1 DUP1 PUSH1 0x4 ADD PUSH1 0xA SWAP1 SLOAD SWAP1 PUSH2 0x100 EXP SWAP1 DIV PUSH20 0xFFFFFFFFFFFFFFFFFFFFFFFFFFFFFFFFFFFFFFFF AND SWAP1 POP DUP9 JUMP JUMPDEST PUSH1 0xB SLOAD DUP2 JUMP JUMPDEST PUSH2 0x1D21 PUSH2 0x20AC JUMP JUMPDEST PUSH0 PUSH1 0x9 PUSH0 DUP4 DUP2 MSTORE PUSH1 0x20 ADD SWAP1 DUP2 MSTORE PUSH1 0x20 ADD PUSH0 KECCAK256 SWAP1 POP PUSH0 DUP2 PUSH1 0x4 ADD PUSH0 SWAP1 SLOAD SWAP1 PUSH2 0x100 EXP SWAP1 DIV PUSH8 0xFFFFFFFFFFFFFFFF AND PUSH8 0xFFFFFFFFFFFFFFFF AND SUB PUSH2 0x1D8F JUMPI PUSH1 0x40 MLOAD PUSH32 0x9E15E1BC00000000000000000000000000000000000000000000000000000000 DUP2 MSTORE PUSH1 0x4 ADD PUSH1 0x40 MLOAD DUP1 SWAP2 SUB SWAP1 REVERT JUMPDEST DUP1 PUSH1 0x4 ADD PUSH1 0x9 SWAP1 SLOAD SWAP1 PUSH2 0x100 EXP SWAP1 DIV PUSH1 0xFF AND ISZERO PUSH2 0x1DD8 JUMPI PUSH1 0x40 MLOAD PUSH32 0x8A66D60700000000000000000000000000000000000000000000000000000000 DUP2 MSTORE PUSH1 0x4 ADD PUSH1 0x40 MLOAD DUP1 SWAP2 SUB SWAP1 REVERT JUMPDEST PUSH1 0x6 SLOAD DUP2 PUSH1 0x4 ADD PUSH0 SWAP1 SLOAD SWAP1 PUSH2 0x100 EXP SWAP1 DIV PUSH8 0xFFFFFFFFFFFFFFFF AND PUSH8 0xFFFFFFFFFFFFFFFF AND PUSH2 0x1E07 SWAP2 SWAP1 PUSH2 0x2D6B JUMP JUMPDEST TIMESTAMP GT PUSH2 0x1E3F JUMPI PUSH1 0x40 MLOAD PUSH32 0xC970363200000000000000000000000000000000000000000000000000000000 DUP2 MSTORE PUSH1 0x4 ADD PUSH1 0x40 MLOAD DUP1 SWAP2 SUB SWAP1 REVERT JUMPDEST DUP1 PUSH1 0x4 ADD PUSH1 0x8 SWAP1 SLOAD SWAP1 PUSH2 0x100 EXP SWAP1 DIV PUSH1 0xFF AND ISZERO PUSH2 0x1E88 JUMPI PUSH1 0x40 MLOAD PUSH32 0xF1082A9300000000000000000000000000000000000000000000000000000000 DUP2 MSTORE PUSH1 0x4 ADD PUSH1 0x40 MLOAD DUP1 SWAP2 SUB SWAP1 REVERT JUMPDEST PUSH1 0x1 DUP2 PUSH1 0x4 ADD PUSH1 0x9 PUSH2 0x100 EXP DUP2 SLOAD DUP2 PUSH1 0xFF MUL NOT AND SWAP1 DUP4 ISZERO ISZERO MUL OR SWAP1 SSTORE POP DUP1 PUSH1 0x1 ADD SLOAD DUP3 PUSH32 0xA3EA0288FB824A30CAE7F7D72A9E887BD0926C40C8438C43B49CFCA687B0DF52 PUSH1 0x40 MLOAD PUSH1 0x40 MLOAD DUP1 SWAP2 SUB SWAP1 LOG3 POP POP JUMP JUMPDEST PUSH2 0x1EE3 PUSH2 0x21E3 JUMP JUMPDEST DUP1 PUSH1 0x3 PUSH0 PUSH2 0x100 EXP DUP2 SLOAD DUP2 PUSH20 0xFFFFFFFFFFFFFFFFFFFFFFFFFFFFFFFFFFFFFFFF MUL NOT AND SWAP1 DUP4 PUSH20 0xFFFFFFFFFFFFFFFFFFFFFFFFFFFFFFFFFFFFFFFF AND MUL OR SWAP1 SSTORE POP DUP1 PUSH20 0xFFFFFFFFFFFFFFFFFFFFFFFFFFFFFFFFFFFFFFFF AND PUSH32 0x8F188B15032CF36DF69A7F5F4BD1583E05704DBB1504FEABF2A98D125FC9B235 PUSH1 0x40 MLOAD PUSH1 0x40 MLOAD DUP1 SWAP2 SUB SWAP1 LOG2 POP JUMP JUMPDEST PUSH2 0x1F71 PUSH2 0x21E3 JUMP JUMPDEST PUSH0 PUSH20 0xFFFFFFFFFFFFFFFFFFFFFFFFFFFFFFFFFFFFFFFF AND DUP2 PUSH20 0xFFFFFFFFFFFFFFFFFFFFFFFFFFFFFFFFFFFFFFFF AND SUB PUSH2 0x1FE1 JUMPI PUSH0 PUSH1 0x40 MLOAD PUSH32 0x1E4FBDF700000000000000000000000000000000000000000000000000000000 DUP2 MSTORE PUSH1 0x4 ADD PUSH2 0x1FD8 SWAP2 SWAP1 PUSH2 0x2A14 JUMP JUMPDEST PUSH1 0x40 MLOAD DUP1 SWAP2 SUB SWAP1 REVERT JUMPDEST PUSH2 0x1FEA DUP2 PUSH2 0x22CB JUMP JUMPDEST POP JUMP JUMPDEST PUSH2 0x1FF5 PUSH2 0x20AC JUMP JUMPDEST PUSH0 CALLVALUE SUB PUSH2 0x202E JUMPI PUSH1 0x40 MLOAD PUSH32 0x1F2A200500000000000000000000000000000000000000000000000000000000 DUP2 MSTORE PUSH1 0x4 ADD PUSH1 0x40 MLOAD DUP1 SWAP2 SUB SWAP1 REVERT JUMPDEST PUSH0 PUSH1 0xB PUSH0 DUP2 SLOAD PUSH2 0x203D SWAP1 PUSH2 0x2F4E JUMP JUMPDEST SWAP2 SWAP1 POP DUP2 SWAP1 SSTORE SWAP1 POP DUP1 CALLER PUSH20 0xFFFFFFFFFFFFFFFFFFFFFFFFFFFFFFFFFFFFFFFF AND PUSH32 0x57E8E547A3EF8D890C570CA885B0A8C441BE3070E36B7AD4C7D6B9D9316FF2CE CALLVALUE PUSH1 0x40 MLOAD PUSH2 0x208C SWAP2 SWAP1 PUSH2 0x28B6 JUMP JUMPDEST PUSH1 0x40 MLOAD DUP1 SWAP2 SUB SWAP1 LOG3 POP JUMP JUMPDEST PUSH1 0x7 PUSH1 0x20 MSTORE DUP1 PUSH0 MSTORE PUSH1 0x40 PUSH0 KECCAK256 PUSH0 SWAP2 POP SWAP1 POP SLOAD DUP2 JUMP JUMPDEST PUSH2 0x20B4 PUSH2 0xF95 JUMP JUMPDEST ISZERO PUSH2 0x20F4 JUMPI PUSH1 0x40 MLOAD PUSH32 0x8C379A000000000000000000000000000000000000000000000000000000000 DUP2 MSTORE PUSH1 0x4 ADD PUSH2 0x20EB SWAP1 PUSH2 0x31C6 JUMP JUMPDEST PUSH1 0x40 MLOAD DUP1 SWAP2 SUB SWAP1 REVERT JUMPDEST JUMP JUMPDEST PUSH1 0x2 PUSH1 0x1 SLOAD SUB PUSH2 0x213B JUMPI PUSH1 0x40 MLOAD PUSH32 0x8C379A000000000000000000000000000000000000000000000000000000000 DUP2 MSTORE PUSH1 0x4 ADD PUSH2 0x2132 SWAP1 PUSH2 0x322E JUMP JUMPDEST PUSH1 0x40 MLOAD DUP1 SWAP2 SUB SWAP1 REVERT JUMPDEST PUSH1 0x2 PUSH1 0x1 DUP2 SWAP1 SSTORE POP JUMP JUMPDEST PUSH0 DUP3 PUSH2 0x2151 DUP6 DUP5 PUSH2 0x2470 JUMP JUMPDEST EQ SWAP1 POP SWAP4 SWAP3 POP POP POP JUMP JUMPDEST PUSH2 0x21D5 DUP4 DUP5 PUSH20 0xFFFFFFFFFFFFFFFFFFFFFFFFFFFFFFFFFFFFFFFF AND PUSH4 0xA9059CBB DUP6 DUP6 PUSH1 0x40 MLOAD PUSH1 0x24 ADD PUSH2 0x218E SWAP3 SWAP2 SWAP1 PUSH2 0x324C JUMP JUMPDEST PUSH1 0x40 MLOAD PUSH1 0x20 DUP2 DUP4 SUB SUB DUP2 MSTORE SWAP1 PUSH1 0x40 MSTORE SWAP2 POP PUSH1 0xE0 SHL PUSH1 0x20 DUP3 ADD DUP1 MLOAD PUSH28 0xFFFFFFFFFFFFFFFFFFFFFFFFFFFFFFFFFFFFFFFFFFFFFFFFFFFFFFFF DUP4 DUP2 DUP4 AND OR DUP4 MSTORE POP POP POP POP PUSH2 0x24C1 JUMP JUMPDEST POP POP POP JUMP JUMPDEST PUSH1 0x1 DUP1 DUP2 SWAP1 SSTORE POP JUMP JUMPDEST PUSH2 0x21EB PUSH2 0x255C JUMP JUMPDEST PUSH20 0xFFFFFFFFFFFFFFFFFFFFFFFFFFFFFFFFFFFFFFFF AND PUSH2 0x2209 PUSH2 0x18C5 JUMP JUMPDEST PUSH20 0xFFFFFFFFFFFFFFFFFFFFFFFFFFFFFFFFFFFFFFFF AND EQ PUSH2 0x2268 JUMPI PUSH2 0x222C PUSH2 0x255C JUMP JUMPDEST PUSH1 0x40 MLOAD PUSH32 0x118CDAA700000000000000000000000000000000000000000000000000000000 DUP2 MSTORE PUSH1 0x4 ADD PUSH2 0x225F SWAP2 SWAP1 PUSH2 0x2A14 JUMP JUMPDEST PUSH1 0x40 MLOAD DUP1 SWAP2 SUB SWAP1 REVERT JUMPDEST JUMP JUMPDEST PUSH2 0x2272 PUSH2 0x2563 JUMP JUMPDEST PUSH0 PUSH0 PUSH1 0x14 PUSH2 0x100 EXP DUP2 SLOAD DUP2 PUSH1 0xFF MUL NOT AND SWAP1 DUP4 ISZERO ISZERO MUL OR SWAP1 SSTORE POP PUSH32 0x5DB9EE0A495BF2E6FF9C91A7834C1BA4FDD244A5E8AA4E537BD38AEAE4B073AA PUSH2 0x22B4 PUSH2 0x255C JUMP JUMPDEST PUSH1 0x40 MLOAD PUSH2 0x22C1 SWAP2 SWAP1 PUSH2 0x2A14 JUMP JUMPDEST PUSH1 0x40 MLOAD DUP1 SWAP2 SUB SWAP1 LOG1 JUMP JUMPDEST PUSH0 PUSH0 PUSH0 SWAP1 SLOAD SWAP1 PUSH2 0x100 EXP SWAP1 DIV PUSH20 0xFFFFFFFFFFFFFFFFFFFFFFFFFFFFFFFFFFFFFFFF AND SWAP1 POP DUP2 PUSH0 PUSH0 PUSH2 0x100 EXP DUP2 SLOAD DUP2 PUSH20 0xFFFFFFFFFFFFFFFFFFFFFFFFFFFFFFFFFFFFFFFF MUL NOT AND SWAP1 DUP4 PUSH20 0xFFFFFFFFFFFFFFFFFFFFFFFFFFFFFFFFFFFFFFFF AND MUL OR SWAP1 SSTORE POP DUP2 PUSH20 0xFFFFFFFFFFFFFFFFFFFFFFFFFFFFFFFFFFFFFFFF AND DUP2 PUSH20 0xFFFFFFFFFFFFFFFFFFFFFFFFFFFFFFFFFFFFFFFF AND PUSH32 0x8BE0079C531659141344CD1FD0A4F28419497F9722A3DAAFE3B4186F6B6457E0 PUSH1 0x40 MLOAD PUSH1 0x40 MLOAD DUP1 SWAP2 SUB SWAP1 LOG3 POP POP JUMP JUMPDEST PUSH2 0x2394 PUSH2 0x20AC JUMP JUMPDEST PUSH1 0x1 PUSH0 PUSH1 0x14 PUSH2 0x100 EXP DUP2 SLOAD DUP2 PUSH1 0xFF MUL NOT AND SWAP1 DUP4 ISZERO ISZERO MUL OR SWAP1 SSTORE POP PUSH32 0x62E78CEA01BEE320CD4E420270B5EA74000D11B0C9F74754EBDBFC544B05A258 PUSH2 0x23D7 PUSH2 0x255C JUMP JUMPDEST PUSH1 0x40 MLOAD PUSH2 0x23E4 SWAP2 SWAP1 PUSH2 0x2A14 JUMP JUMPDEST PUSH1 0x40 MLOAD DUP1 SWAP2 SUB SWAP1 LOG1 JUMP JUMPDEST PUSH2 0x246A DUP5 DUP6 PUSH20 0xFFFFFFFFFFFFFFFFFFFFFFFFFFFFFFFFFFFFFFFF AND PUSH4 0x23B872DD DUP7 DUP7 DUP7 PUSH1 0x40 MLOAD PUSH1 0x24 ADD PUSH2 0x2423 SWAP4 SWAP3 SWAP2 SWAP1 PUSH2 0x3273 JUMP JUMPDEST PUSH1 0x40 MLOAD PUSH1 0x20 DUP2 DUP4 SUB SUB DUP2 MSTORE SWAP1 PUSH1 0x40 MSTORE SWAP2 POP PUSH1 0xE0 SHL PUSH1 0x20 DUP3 ADD DUP1 MLOAD PUSH28 0xFFFFFFFFFFFFFFFFFFFFFFFFFFFFFFFFFFFFFFFFFFFFFFFFFFFFFFFF DUP4 DUP2 DUP4 AND OR DUP4 MSTORE POP POP POP POP PUSH2 0x24C1 JUMP JUMPDEST POP POP POP POP JUMP JUMPDEST PUSH0 PUSH0 DUP3 SWAP1 POP PUSH0 PUSH0 SWAP1 POP JUMPDEST DUP5 MLOAD DUP2 LT ISZERO PUSH2 0x24B6 JUMPI PUSH2 0x24A7 DUP3 DUP7 DUP4 DUP2 MLOAD DUP2 LT PUSH2 0x249A JUMPI PUSH2 0x2499 PUSH2 0x32A8 JUMP JUMPDEST JUMPDEST PUSH1 0x20 MUL PUSH1 0x20 ADD ADD MLOAD PUSH2 0x25AC JUMP JUMPDEST SWAP2 POP DUP1 DUP1 PUSH1 0x1 ADD SWAP2 POP POP PUSH2 0x247A JUMP JUMPDEST POP DUP1 SWAP2 POP POP SWAP3 SWAP2 POP POP JUMP JUMPDEST PUSH0 PUSH0 PUSH1 0x20 PUSH0 DUP5 MLOAD PUSH1 0x20 DUP7 ADD PUSH0 DUP9 GAS CALL DUP1 PUSH2 0x24E0 JUMPI PUSH1 0x40 MLOAD RETURNDATASIZE PUSH0 DUP3 RETURNDATACOPY RETURNDATASIZE DUP2 REVERT JUMPDEST RETURNDATASIZE SWAP3 POP PUSH0 MLOAD SWAP2 POP POP PUSH0 DUP3 EQ PUSH2 0x24F9 JUMPI PUSH1 0x1 DUP2 EQ ISZERO PUSH2 0x2514 JUMP JUMPDEST PUSH0 DUP5 PUSH20 0xFFFFFFFFFFFFFFFFFFFFFFFFFFFFFFFFFFFFFFFF AND EXTCODESIZE EQ JUMPDEST ISZERO PUSH2 0x2556 JUMPI DUP4 PUSH1 0x40 MLOAD PUSH32 0x5274AFE700000000000000000000000000000000000000000000000000000000 DUP2 MSTORE PUSH1 0x4 ADD PUSH2 0x254D SWAP2 SWAP1 PUSH2 0x2A14 JUMP JUMPDEST PUSH1 0x40 MLOAD DUP1 SWAP2 SUB SWAP1 REVERT JUMPDEST POP POP POP POP JUMP JUMPDEST PUSH0 CALLER SWAP1 POP SWAP1 JUMP JUMPDEST PUSH2 0x256B PUSH2 0xF95 JUMP JUMPDEST PUSH2 0x25AA JUMPI PUSH1 0x40 MLOAD PUSH32 0x8C379A000000000000000000000000000000000000000000000000000000000 DUP2 MSTORE PUSH1 0x4 ADD PUSH2 0x25A1 SWAP1 PUSH2 0x331F JUMP JUMPDEST PUSH1 0x40 MLOAD DUP1 SWAP2 SUB SWAP1 REVERT JUMPDEST JUMP JUMPDEST PUSH0 DUP2 DUP4 LT PUSH2 0x25C3 JUMPI PUSH2 0x25BE DUP3 DUP5 PUSH2 0x25D6 JUMP JUMPDEST PUSH2 0x25CE JUMP JUMPDEST PUSH2 0x25CD DUP4 DUP4 PUSH2 0x25D6 JUMP JUMPDEST JUMPDEST SWAP1 POP SWAP3 SWAP2 POP POP JUMP JUMPDEST PUSH0 DUP3 PUSH0 MSTORE DUP2 PUSH1 0x20 MSTORE PUSH1 0x40 PUSH0 KECCAK256 SWAP1 POP SWAP3 SWAP2 POP POP JUMP JUMPDEST PUSH0 PUSH0 REVERT JUMPDEST PUSH0 PUSH0 REVERT JUMPDEST PUSH0 DUP2 SWAP1 POP SWAP2 SWAP1 POP JUMP JUMPDEST PUSH2 0x2604 DUP2 PUSH2 0x25F2 JUMP JUMPDEST DUP2 EQ PUSH2 0x260E JUMPI PUSH0 PUSH0 REVERT JUMPDEST POP JUMP JUMPDEST PUSH0 DUP2 CALLDATALOAD SWAP1 POP PUSH2 0x261F DUP2 PUSH2 0x25FB JUMP JUMPDEST SWAP3 SWAP2 POP POP JUMP JUMPDEST PUSH0 PUSH20 0xFFFFFFFFFFFFFFFFFFFFFFFFFFFFFFFFFFFFFFFF DUP3 AND SWAP1 POP SWAP2 SWAP1 POP JUMP JUMPDEST PUSH0 PUSH2 0x264E DUP3 PUSH2 0x2625 JUMP JUMPDEST SWAP1 POP SWAP2 SWAP1 POP JUMP JUMPDEST PUSH2 0x265E DUP2 PUSH2 0x2644 JUMP JUMPDEST DUP2 EQ PUSH2 0x2668 JUMPI PUSH0 PUSH0 REVERT JUMPDEST POP JUMP JUMPDEST PUSH0 DUP2 CALLDATALOAD SWAP1 POP PUSH2 0x2679 DUP2 PUSH2 0x2655 JUMP JUMPDEST SWAP3 SWAP2 POP POP JUMP JUMPDEST PUSH0 PUSH0 REVERT JUMPDEST PUSH0 PUSH0 REVERT JUMPDEST PUSH0 PUSH0 REVERT JUMPDEST PUSH0 PUSH0 DUP4 PUSH1 0x1F DUP5 ADD SLT PUSH2 0x26A0 JUMPI PUSH2 0x269F PUSH2 0x267F JUMP JUMPDEST JUMPDEST DUP3 CALLDATALOAD SWAP1 POP PUSH8 0xFFFFFFFFFFFFFFFF DUP2 GT ISZERO PUSH2 0x26BD JUMPI PUSH2 0x26BC PUSH2 0x2683 JUMP JUMPDEST JUMPDEST PUSH1 0x20 DUP4 ADD SWAP2 POP DUP4 PUSH1 0x20 DUP3 MUL DUP4 ADD GT ISZERO PUSH2 0x26D9 JUMPI PUSH2 0x26D8 PUSH2 0x2687 JUMP JUMPDEST JUMPDEST SWAP3 POP SWAP3 SWAP1 POP JUMP JUMPDEST PUSH0 PUSH0 PUSH0 PUSH0 PUSH0 PUSH0 PUSH1 0xA0 DUP8 DUP10 SUB SLT ISZERO PUSH2 0x26FA JUMPI PUSH2 0x26F9 PUSH2 0x25EA JUMP JUMPDEST JUMPDEST PUSH0 PUSH2 0x2707 DUP10 DUP3 DUP11 ADD PUSH2 0x2611 JUMP JUMPDEST SWAP7 POP POP PUSH1 0x20 PUSH2 0x2718 DUP10 DUP3 DUP11 ADD PUSH2 0x266B JUMP JUMPDEST SWAP6 POP POP PUSH1 0x40 PUSH2 0x2729 DUP10 DUP3 DUP11 ADD PUSH2 0x2611 JUMP JUMPDEST SWAP5 POP POP PUSH1 0x60 PUSH2 0x273A DUP10 DUP3 DUP11 ADD PUSH2 0x2611 JUMP JUMPDEST SWAP4 POP POP PUSH1 0x80 DUP8 ADD CALLDATALOAD PUSH8 0xFFFFFFFFFFFFFFFF DUP2 GT ISZERO PUSH2 0x275B JUMPI PUSH2 0x275A PUSH2 0x25EE JUMP JUMPDEST JUMPDEST PUSH2 0x2767 DUP10 DUP3 DUP11 ADD PUSH2 0x268B JUMP JUMPDEST SWAP3 POP SWAP3 POP POP SWAP3 SWAP6 POP SWAP3 SWAP6 POP SWAP3 SWAP6 JUMP JUMPDEST PUSH0 PUSH1 0x20 DUP3 DUP5 SUB SLT ISZERO PUSH2 0x278B JUMPI PUSH2 0x278A PUSH2 0x25EA JUMP JUMPDEST JUMPDEST PUSH0 PUSH2 0x2798 DUP5 DUP3 DUP6 ADD PUSH2 0x2611 JUMP JUMPDEST SWAP2 POP POP SWAP3 SWAP2 POP POP JUMP JUMPDEST PUSH0 DUP2 ISZERO ISZERO SWAP1 POP SWAP2 SWAP1 POP JUMP JUMPDEST PUSH2 0x27B5 DUP2 PUSH2 0x27A1 JUMP JUMPDEST DUP3 MSTORE POP POP JUMP JUMPDEST PUSH2 0x27C4 DUP2 PUSH2 0x25F2 JUMP JUMPDEST DUP3 MSTORE POP POP JUMP JUMPDEST PUSH0 DUP2 SWAP1 POP SWAP2 SWAP1 POP JUMP JUMPDEST PUSH2 0x27DC DUP2 PUSH2 0x27CA JUMP JUMPDEST DUP3 MSTORE POP POP JUMP JUMPDEST PUSH2 0x27EB DUP2 PUSH2 0x2644 JUMP JUMPDEST DUP3 MSTORE POP POP JUMP JUMPDEST PUSH0 PUSH2 0x140 DUP3 ADD SWAP1 POP PUSH2 0x2805 PUSH0 DUP4 ADD DUP14 PUSH2 0x27AC JUMP JUMPDEST PUSH2 0x2812 PUSH1 0x20 DUP4 ADD DUP13 PUSH2 0x27AC JUMP JUMPDEST PUSH2 0x281F PUSH1 0x40 DUP4 ADD DUP12 PUSH2 0x27AC JUMP JUMPDEST PUSH2 0x282C PUSH1 0x60 DUP4 ADD DUP11 PUSH2 0x27BB JUMP JUMPDEST PUSH2 0x2839 PUSH1 0x80 DUP4 ADD DUP10 PUSH2 0x27BB JUMP JUMPDEST PUSH2 0x2846 PUSH1 0xA0 DUP4 ADD DUP9 PUSH2 0x27D3 JUMP JUMPDEST PUSH2 0x2853 PUSH1 0xC0 DUP4 ADD DUP8 PUSH2 0x27D3 JUMP JUMPDEST PUSH2 0x2860 PUSH1 0xE0 DUP4 ADD DUP7 PUSH2 0x27D3 JUMP JUMPDEST PUSH2 0x286E PUSH2 0x100 DUP4 ADD DUP6 PUSH2 0x27D3 JUMP JUMPDEST PUSH2 0x287C PUSH2 0x120 DUP4 ADD DUP5 PUSH2 0x27E2 JUMP JUMPDEST SWAP12 SWAP11 POP POP POP POP POP POP POP POP POP POP POP JUMP JUMPDEST PUSH0 PUSH1 0x20 DUP3 DUP5 SUB SLT ISZERO PUSH2 0x28A0 JUMPI PUSH2 0x289F PUSH2 0x25EA JUMP JUMPDEST JUMPDEST PUSH0 PUSH2 0x28AD DUP5 DUP3 DUP6 ADD PUSH2 0x266B JUMP JUMPDEST SWAP2 POP POP SWAP3 SWAP2 POP POP JUMP JUMPDEST PUSH0 PUSH1 0x20 DUP3 ADD SWAP1 POP PUSH2 0x28C9 PUSH0 DUP4 ADD DUP5 PUSH2 0x27BB JUMP JUMPDEST SWAP3 SWAP2 POP POP JUMP JUMPDEST PUSH2 0x28D8 DUP2 PUSH2 0x27CA JUMP JUMPDEST DUP2 EQ PUSH2 0x28E2 JUMPI PUSH0 PUSH0 REVERT JUMPDEST POP JUMP JUMPDEST PUSH0 DUP2 CALLDATALOAD SWAP1 POP PUSH2 0x28F3 DUP2 PUSH2 0x28CF JUMP JUMPDEST SWAP3 SWAP2 POP POP JUMP JUMPDEST PUSH0 PUSH0 PUSH1 0x40 DUP4 DUP6 SUB SLT ISZERO PUSH2 0x290F JUMPI PUSH2 0x290E PUSH2 0x25EA JUMP JUMPDEST JUMPDEST PUSH0 PUSH2 0x291C DUP6 DUP3 DUP7 ADD PUSH2 0x2611 JUMP JUMPDEST SWAP3 POP POP PUSH1 0x20 PUSH2 0x292D DUP6 DUP3 DUP7 ADD PUSH2 0x28E5 JUMP JUMPDEST SWAP2 POP POP SWAP3 POP SWAP3 SWAP1 POP JUMP JUMPDEST PUSH0 PUSH1 0x20 DUP3 ADD SWAP1 POP PUSH2 0x294A PUSH0 DUP4 ADD DUP5 PUSH2 0x27AC JUMP JUMPDEST SWAP3 SWAP2 POP POP JUMP JUMPDEST PUSH0 PUSH0 PUSH0 PUSH1 0x60 DUP5 DUP7 SUB SLT ISZERO PUSH2 0x2967 JUMPI PUSH2 0x2966 PUSH2 0x25EA JUMP JUMPDEST JUMPDEST PUSH0 PUSH2 0x2974 DUP7 DUP3 DUP8 ADD PUSH2 0x2611 JUMP JUMPDEST SWAP4 POP POP PUSH1 0x20 PUSH2 0x2985 DUP7 DUP3 DUP8 ADD PUSH2 0x2611 JUMP JUMPDEST SWAP3 POP POP PUSH1 0x40 PUSH2 0x2996 DUP7 DUP3 DUP8 ADD PUSH2 0x2611 JUMP JUMPDEST SWAP2 POP POP SWAP3 POP SWAP3 POP SWAP3 JUMP JUMPDEST PUSH0 DUP2 SWAP1 POP SWAP2 SWAP1 POP JUMP JUMPDEST PUSH0 PUSH2 0x29C3 PUSH2 0x29BE PUSH2 0x29B9 DUP5 PUSH2 0x2625 JUMP JUMPDEST PUSH2 0x29A0 JUMP JUMPDEST PUSH2 0x2625 JUMP JUMPDEST SWAP1 POP SWAP2 SWAP1 POP JUMP JUMPDEST PUSH0 PUSH2 0x29D4 DUP3 PUSH2 0x29A9 JUMP JUMPDEST SWAP1 POP SWAP2 SWAP1 POP JUMP JUMPDEST PUSH0 PUSH2 0x29E5 DUP3 PUSH2 0x29CA JUMP JUMPDEST SWAP1 POP SWAP2 SWAP1 POP JUMP JUMPDEST PUSH2 0x29F5 DUP2 PUSH2 0x29DB JUMP JUMPDEST DUP3 MSTORE POP POP JUMP JUMPDEST PUSH0 PUSH1 0x20 DUP3 ADD SWAP1 POP PUSH2 0x2A0E PUSH0 DUP4 ADD DUP5 PUSH2 0x29EC JUMP JUMPDEST SWAP3 SWAP2 POP POP JUMP JUMPDEST PUSH0 PUSH1 0x20 DUP3 ADD SWAP1 POP PUSH2 0x2A27 PUSH0 DUP4 ADD DUP5 PUSH2 0x27E2 JUMP JUMPDEST SWAP3 SWAP2 POP POP JUMP JUMPDEST PUSH0 PUSH0 PUSH0 PUSH1 0x60 DUP5 DUP7 SUB SLT ISZERO PUSH2 0x2A44 JUMPI PUSH2 0x2A43 PUSH2 0x25EA JUMP JUMPDEST JUMPDEST PUSH0 PUSH2 0x2A51 DUP7 DUP3 DUP8 ADD PUSH2 0x28E5 JUMP JUMPDEST SWAP4 POP POP PUSH1 0x20 PUSH2 0x2A62 DUP7 DUP3 DUP8 ADD PUSH2 0x28E5 JUMP JUMPDEST SWAP3 POP POP PUSH1 0x40 PUSH2 0x2A73 DUP7 DUP3 DUP8 ADD PUSH2 0x28E5 JUMP JUMPDEST SWAP2 POP POP SWAP3 POP SWAP3 POP SWAP3 JUMP JUMPDEST PUSH0 PUSH0 DUP4 PUSH1 0x1F DUP5 ADD SLT PUSH2 0x2A92 JUMPI PUSH2 0x2A91 PUSH2 0x267F JUMP JUMPDEST JUMPDEST DUP3 CALLDATALOAD SWAP1 POP PUSH8 0xFFFFFFFFFFFFFFFF DUP2 GT ISZERO PUSH2 0x2AAF JUMPI PUSH2 0x2AAE PUSH2 0x2683 JUMP JUMPDEST JUMPDEST PUSH1 0x20 DUP4 ADD SWAP2 POP DUP4 PUSH1 0x1 DUP3 MUL DUP4 ADD GT ISZERO PUSH2 0x2ACB JUMPI PUSH2 0x2ACA PUSH2 0x2687 JUMP JUMPDEST JUMPDEST SWAP3 POP SWAP3 SWAP1 POP JUMP JUMPDEST PUSH0 PUSH0 PUSH0 PUSH1 0x40 DUP5 DUP7 SUB SLT ISZERO PUSH2 0x2AE9 JUMPI PUSH2 0x2AE8 PUSH2 0x25EA JUMP JUMPDEST JUMPDEST PUSH0 PUSH2 0x2AF6 DUP7 DUP3 DUP8 ADD PUSH2 0x2611 JUMP JUMPDEST SWAP4 POP POP PUSH1 0x20 DUP5 ADD CALLDATALOAD PUSH8 0xFFFFFFFFFFFFFFFF DUP2 GT ISZERO PUSH2 0x2B17 JUMPI PUSH2 0x2B16 PUSH2 0x25EE JUMP JUMPDEST JUMPDEST PUSH2 0x2B23 DUP7 DUP3 DUP8 ADD PUSH2 0x2A7D JUMP JUMPDEST SWAP3 POP SWAP3 POP POP SWAP3 POP SWAP3 POP SWAP3 JUMP JUMPDEST PUSH0 PUSH0 PUSH1 0x40 DUP4 DUP6 SUB SLT ISZERO PUSH2 0x2B45 JUMPI PUSH2 0x2B44 PUSH2 0x25EA JUMP JUMPDEST JUMPDEST PUSH0 PUSH2 0x2B52 DUP6 DUP3 DUP7 ADD PUSH2 0x266B JUMP JUMPDEST SWAP3 POP POP PUSH1 0x20 PUSH2 0x2B63 DUP6 DUP3 DUP7 ADD PUSH2 0x2611 JUMP JUMPDEST SWAP2 POP POP SWAP3 POP SWAP3 SWAP1 POP JUMP JUMPDEST PUSH0 PUSH1 0x20 DUP3 ADD SWAP1 POP PUSH2 0x2B80 PUSH0 DUP4 ADD DUP5 PUSH2 0x27D3 JUMP JUMPDEST SWAP3 SWAP2 POP POP JUMP JUMPDEST PUSH0 PUSH8 0xFFFFFFFFFFFFFFFF DUP3 AND SWAP1 POP SWAP2 SWAP1 POP JUMP JUMPDEST PUSH2 0x2BA2 DUP2 PUSH2 0x2B86 JUMP JUMPDEST DUP3 MSTORE POP POP JUMP JUMPDEST PUSH0 PUSH2 0x100 DUP3 ADD SWAP1 POP PUSH2 0x2BBC PUSH0 DUP4 ADD DUP12 PUSH2 0x27D3 JUMP JUMPDEST PUSH2 0x2BC9 PUSH1 0x20 DUP4 ADD DUP11 PUSH2 0x27D3 JUMP JUMPDEST PUSH2 0x2BD6 PUSH1 0x40 DUP4 ADD DUP10 PUSH2 0x27D3 JUMP JUMPDEST PUSH2 0x2BE3 PUSH1 0x60 DUP4 ADD DUP9 PUSH2 0x27D3 JUMP JUMPDEST PUSH2 0x2BF0 PUSH1 0x80 DUP4 ADD DUP8 PUSH2 0x2B99 JUMP JUMPDEST PUSH2 0x2BFD PUSH1 0xA0 DUP4 ADD DUP7 PUSH2 0x27AC JUMP JUMPDEST PUSH2 0x2C0A PUSH1 0xC0 DUP4 ADD DUP6 PUSH2 0x27AC JUMP JUMPDEST PUSH2 0x2C17 PUSH1 0xE0 DUP4 ADD DUP5 PUSH2 0x27E2 JUMP JUMPDEST SWAP10 SWAP9 POP POP POP POP POP POP POP POP POP JUMP JUMPDEST PUSH0 DUP2 PUSH1 0x60 SHL SWAP1 POP SWAP2 SWAP1 POP JUMP JUMPDEST PUSH0 PUSH2 0x2C3A DUP3 PUSH2 0x2C24 JUMP JUMPDEST SWAP1 POP SWAP2 SWAP1 POP JUMP JUMPDEST PUSH0 PUSH2 0x2C4B DUP3 PUSH2 0x2C30 JUMP JUMPDEST SWAP1 POP SWAP2 SWAP1 POP JUMP JUMPDEST PUSH2 0x2C63 PUSH2 0x2C5E DUP3 PUSH2 0x2644 JUMP JUMPDEST PUSH2 0x2C41 JUMP JUMPDEST DUP3 MSTORE POP POP JUMP JUMPDEST PUSH0 DUP2 SWAP1 POP SWAP2 SWAP1 POP JUMP JUMPDEST PUSH2 0x2C83 PUSH2 0x2C7E DUP3 PUSH2 0x25F2 JUMP JUMPDEST PUSH2 0x2C69 JUMP JUMPDEST DUP3 MSTORE POP POP JUMP JUMPDEST PUSH0 PUSH2 0x2C94 DUP3 DUP8 PUSH2 0x2C52 JUMP JUMPDEST PUSH1 0x14 DUP3 ADD SWAP2 POP PUSH2 0x2CA4 DUP3 DUP7 PUSH2 0x2C52 JUMP JUMPDEST PUSH1 0x14 DUP3 ADD SWAP2 POP PUSH2 0x2CB4 DUP3 DUP6 PUSH2 0x2C72 JUMP JUMPDEST PUSH1 0x20 DUP3 ADD SWAP2 POP PUSH2 0x2CC4 DUP3 DUP5 PUSH2 0x2C72 JUMP JUMPDEST PUSH1 0x20 DUP3 ADD SWAP2 POP DUP2 SWAP1 POP SWAP6 SWAP5 POP POP POP POP POP JUMP JUMPDEST PUSH0 DUP2 SWAP1 POP SWAP3 SWAP2 POP POP JUMP JUMPDEST POP JUMP JUMPDEST PUSH0 PUSH2 0x2CEE PUSH0 DUP4 PUSH2 0x2CD6 JUMP JUMPDEST SWAP2 POP PUSH2 0x2CF9 DUP3 PUSH2 0x2CE0 JUMP JUMPDEST PUSH0 DUP3 ADD SWAP1 POP SWAP2 SWAP1 POP JUMP JUMPDEST PUSH0 PUSH2 0x2D0D DUP3 PUSH2 0x2CE3 JUMP JUMPDEST SWAP2 POP DUP2 SWAP1 POP SWAP2 SWAP1 POP JUMP JUMPDEST PUSH0 PUSH1 0x40 DUP3 ADD SWAP1 POP PUSH2 0x2D2A PUSH0 DUP4 ADD DUP6 PUSH2 0x27BB JUMP JUMPDEST PUSH2 0x2D37 PUSH1 0x20 DUP4 ADD DUP5 PUSH2 0x27BB JUMP JUMPDEST SWAP4 SWAP3 POP POP POP JUMP JUMPDEST PUSH32 0x4E487B7100000000000000000000000000000000000000000000000000000000 PUSH0 MSTORE PUSH1 0x11 PUSH1 0x4 MSTORE PUSH1 0x24 PUSH0 REVERT JUMPDEST PUSH0 PUSH2 0x2D75 DUP3 PUSH2 0x25F2 JUMP JUMPDEST SWAP2 POP PUSH2 0x2D80 DUP4 PUSH2 0x25F2 JUMP JUMPDEST SWAP3 POP DUP3 DUP3 ADD SWAP1 POP DUP1 DUP3 GT ISZERO PUSH2 0x2D98 JUMPI PUSH2 0x2D97 PUSH2 0x2D3E JUMP JUMPDEST JUMPDEST SWAP3 SWAP2 POP POP JUMP JUMPDEST PUSH0 DUP3 DUP3 MSTORE PUSH1 0x20 DUP3 ADD SWAP1 POP SWAP3 SWAP2 POP POP JUMP JUMPDEST PUSH32 0x5A45524F5F414444520000000000000000000000000000000000000000000000 PUSH0 DUP3 ADD MSTORE POP JUMP JUMPDEST PUSH0 PUSH2 0x2DE2 PUSH1 0x9 DUP4 PUSH2 0x2D9E JUMP JUMPDEST SWAP2 POP PUSH2 0x2DED DUP3 PUSH2 0x2DAE JUMP JUMPDEST PUSH1 0x20 DUP3 ADD SWAP1 POP SWAP2 SWAP1 POP JUMP JUMPDEST PUSH0 PUSH1 0x20 DUP3 ADD SWAP1 POP DUP2 DUP2 SUB PUSH0 DUP4 ADD MSTORE PUSH2 0x2E0F DUP2 PUSH2 0x2DD6 JUMP JUMPDEST SWAP1 POP SWAP2 SWAP1 POP JUMP JUMPDEST PUSH32 0x494E53554646494349454E545F424F4E44000000000000000000000000000000 PUSH0 DUP3 ADD MSTORE POP JUMP JUMPDEST PUSH0 PUSH2 0x2E4A PUSH1 0x11 DUP4 PUSH2 0x2D9E JUMP JUMPDEST SWAP2 POP PUSH2 0x2E55 DUP3 PUSH2 0x2E16 JUMP JUMPDEST PUSH1 0x20 DUP3 ADD SWAP1 POP SWAP2 SWAP1 POP JUMP JUMPDEST PUSH0 PUSH1 0x20 DUP3 ADD SWAP1 POP DUP2 DUP2 SUB PUSH0 DUP4 ADD MSTORE PUSH2 0x2E77 DUP2 PUSH2 0x2E3E JUMP JUMPDEST SWAP1 POP SWAP2 SWAP1 POP JUMP JUMPDEST PUSH0 PUSH2 0x2E88 DUP3 PUSH2 0x25F2 JUMP JUMPDEST SWAP2 POP PUSH2 0x2E93 DUP4 PUSH2 0x25F2 JUMP JUMPDEST SWAP3 POP DUP3 DUP3 SUB SWAP1 POP DUP2 DUP2 GT ISZERO PUSH2 0x2EAB JUMPI PUSH2 0x2EAA PUSH2 0x2D3E JUMP JUMPDEST JUMPDEST SWAP3 SWAP2 POP POP JUMP JUMPDEST PUSH0 PUSH1 0x60 DUP3 ADD SWAP1 POP PUSH2 0x2EC4 PUSH0 DUP4 ADD DUP7 PUSH2 0x27BB JUMP JUMPDEST PUSH2 0x2ED1 PUSH1 0x20 DUP4 ADD DUP6 PUSH2 0x27BB JUMP JUMPDEST PUSH2 0x2EDE PUSH1 0x40 DUP4 ADD DUP5 PUSH2 0x27BB JUMP JUMPDEST SWAP5 SWAP4 POP POP POP POP JUMP JUMPDEST PUSH32 0x53455155454E4345525F424F4E445F4C4F570000000000000000000000000000 PUSH0 DUP3 ADD MSTORE POP JUMP JUMPDEST PUSH0 PUSH2 0x2F1A PUSH1 0x12 DUP4 PUSH2 0x2D9E JUMP JUMPDEST SWAP2 POP PUSH2 0x2F25 DUP3 PUSH2 0x2EE6 JUMP JUMPDEST PUSH1 0x20 DUP3 ADD SWAP1 POP SWAP2 SWAP1 POP JUMP JUMPDEST PUSH0 PUSH1 0x20 DUP3 ADD SWAP1 POP DUP2 DUP2 SUB PUSH0 DUP4 ADD MSTORE PUSH2 0x2F47 DUP2 PUSH2 0x2F0E JUMP JUMPDEST SWAP1 POP SWAP2 SWAP1 POP JUMP JUMPDEST PUSH0 PUSH2 0x2F58 DUP3 PUSH2 0x25F2 JUMP JUMPDEST SWAP2 POP PUSH32 0xFFFFFFFFFFFFFFFFFFFFFFFFFFFFFFFFFFFFFFFFFFFFFFFFFFFFFFFFFFFFFFFF DUP3 SUB PUSH2 0x2F8A JUMPI PUSH2 0x2F89 PUSH2 0x2D3E JUMP JUMPDEST JUMPDEST PUSH1 0x1 DUP3 ADD SWAP1 POP SWAP2 SWAP1 POP JUMP JUMPDEST PUSH0 PUSH1 0x40 DUP3 ADD SWAP1 POP PUSH2 0x2FA8 PUSH0 DUP4 ADD DUP6 PUSH2 0x27D3 JUMP JUMPDEST PUSH2 0x2FB5 PUSH1 0x20 DUP4 ADD DUP5 PUSH2 0x27D3 JUMP JUMPDEST SWAP4 SWAP3 POP POP POP JUMP JUMPDEST PUSH0 DUP3 DUP3 MSTORE PUSH1 0x20 DUP3 ADD SWAP1 POP SWAP3 SWAP2 POP POP JUMP JUMPDEST DUP3 DUP2 DUP4 CALLDATACOPY PUSH0 DUP4 DUP4 ADD MSTORE POP POP POP JUMP JUMPDEST PUSH0 PUSH1 0x1F NOT PUSH1 0x1F DUP4 ADD AND SWAP1 POP SWAP2 SWAP1 POP JUMP JUMPDEST PUSH0 PUSH2 0x2FF5 DUP4 DUP6 PUSH2 0x2FBC JUMP JUMPDEST SWAP4 POP PUSH2 0x3002 DUP4 DUP6 DUP5 PUSH2 0x2FCC JUMP JUMPDEST PUSH2 0x300B DUP4 PUSH2 0x2FDA JUMP JUMPDEST DUP5 ADD SWAP1 POP SWAP4 SWAP3 POP POP POP JUMP JUMPDEST PUSH0 PUSH1 0x80 DUP3 ADD SWAP1 POP DUP2 DUP2 SUB PUSH0 DUP4 ADD MSTORE PUSH2 0x302F DUP2 DUP8 DUP10 PUSH2 0x2FEA JUMP JUMPDEST SWAP1 POP PUSH2 0x303E PUSH1 0x20 DUP4 ADD DUP7 PUSH2 0x27D3 JUMP JUMPDEST PUSH2 0x304B PUSH1 0x40 DUP4 ADD DUP6 PUSH2 0x27D3 JUMP JUMPDEST PUSH2 0x3058 PUSH1 0x60 DUP4 ADD DUP5 PUSH2 0x27D3 JUMP JUMPDEST SWAP7 SWAP6 POP POP POP POP POP POP JUMP JUMPDEST PUSH2 0x306B DUP2 PUSH2 0x27A1 JUMP JUMPDEST DUP2 EQ PUSH2 0x3075 JUMPI PUSH0 PUSH0 REVERT JUMPDEST POP JUMP JUMPDEST PUSH0 DUP2 MLOAD SWAP1 POP PUSH2 0x3086 DUP2 PUSH2 0x3062 JUMP JUMPDEST SWAP3 SWAP2 POP POP JUMP JUMPDEST PUSH0 PUSH1 0x20 DUP3 DUP5 SUB SLT ISZERO PUSH2 0x30A1 JUMPI PUSH2 0x30A0 PUSH2 0x25EA JUMP JUMPDEST JUMPDEST PUSH0 PUSH2 0x30AE DUP5 DUP3 DUP6 ADD PUSH2 0x3078 JUMP JUMPDEST SWAP2 POP POP SWAP3 SWAP2 POP POP JUMP JUMPDEST PUSH32 0x4E487B7100000000000000000000000000000000000000000000000000000000 PUSH0 MSTORE PUSH1 0x12 PUSH1 0x4 MSTORE PUSH1 0x24 PUSH0 REVERT JUMPDEST PUSH0 PUSH2 0x30EE DUP3 PUSH2 0x25F2 JUMP JUMPDEST SWAP2 POP PUSH2 0x30F9 DUP4 PUSH2 0x25F2 JUMP JUMPDEST SWAP3 POP DUP3 PUSH2 0x3109 JUMPI PUSH2 0x3108 PUSH2 0x30B7 JUMP JUMPDEST JUMPDEST DUP3 DUP3 DIV SWAP1 POP SWAP3 SWAP2 POP POP JUMP JUMPDEST PUSH32 0x4348414C4C454E4745525F424F4E445F4C4F5700000000000000000000000000 PUSH0 DUP3 ADD MSTORE POP JUMP JUMPDEST PUSH0 PUSH2 0x3148 PUSH1 0x13 DUP4 PUSH2 0x2D9E JUMP JUMPDEST SWAP2 POP PUSH2 0x3153 DUP3 PUSH2 0x3114 JUMP JUMPDEST PUSH1 0x20 DUP3 ADD SWAP1 POP SWAP2 SWAP1 POP JUMP JUMPDEST PUSH0 PUSH1 0x20 DUP3 ADD SWAP1 POP DUP2 DUP2 SUB PUSH0 DUP4 ADD MSTORE PUSH2 0x3175 DUP2 PUSH2 0x313C JUMP JUMPDEST SWAP1 POP SWAP2 SWAP1 POP JUMP JUMPDEST PUSH32 0x5061757361626C653A2070617573656400000000000000000000000000000000 PUSH0 DUP3 ADD MSTORE POP JUMP JUMPDEST PUSH0 PUSH2 0x31B0 PUSH1 0x10 DUP4 PUSH2 0x2D9E JUMP JUMPDEST SWAP2 POP PUSH2 0x31BB DUP3 PUSH2 0x317C JUMP JUMPDEST PUSH1 0x20 DUP3 ADD SWAP1 POP SWAP2 SWAP1 POP JUMP JUMPDEST PUSH0 PUSH1 0x20 DUP3 ADD SWAP1 POP DUP2 DUP2 SUB PUSH0 DUP4 ADD MSTORE PUSH2 0x31DD DUP2 PUSH2 0x31A4 JUMP JUMPDEST SWAP1 POP SWAP2 SWAP1 POP JUMP JUMPDEST PUSH32 0x5265656E7472616E637947756172643A207265656E7472616E742063616C6C00 PUSH0 DUP3 ADD MSTORE POP JUMP JUMPDEST PUSH0 PUSH2 0x3218 PUSH1 0x1F DUP4 PUSH2 0x2D9E JUMP JUMPDEST SWAP2 POP PUSH2 0x3223 DUP3 PUSH2 0x31E4 JUMP JUMPDEST PUSH1 0x20 DUP3 ADD SWAP1 POP SWAP2 SWAP1 POP JUMP JUMPDEST PUSH0 PUSH1 0x20 DUP3 ADD SWAP1 POP DUP2 DUP2 SUB PUSH0 DUP4 ADD MSTORE PUSH2 0x3245 DUP2 PUSH2 0x320C JUMP JUMPDEST SWAP1 POP SWAP2 SWAP1 POP JUMP JUMPDEST PUSH0 PUSH1 0x40 DUP3 ADD SWAP1 POP PUSH2 0x325F PUSH0 DUP4 ADD DUP6 PUSH2 0x27E2 JUMP JUMPDEST PUSH2 0x326C PUSH1 0x20 DUP4 ADD DUP5 PUSH2 0x27BB JUMP JUMPDEST SWAP4 SWAP3 POP POP POP JUMP JUMPDEST PUSH0 PUSH1 0x60 DUP3 ADD SWAP1 POP PUSH2 0x3286 PUSH0 DUP4 ADD DUP7 PUSH2 0x27E2 JUMP JUMPDEST PUSH2 0x3293 PUSH1 0x20 DUP4 ADD DUP6 PUSH2 0x27E2 JUMP JUMPDEST PUSH2 0x32A0 PUSH1 0x40 DUP4 ADD DUP5 PUSH2 0x27BB JUMP JUMPDEST SWAP5 SWAP4 POP POP POP POP JUMP JUMPDEST PUSH32 0x4E487B7100000000000000000000000000000000000000000000000000000000 PUSH0 MSTORE PUSH1 0x32 PUSH1 0x4 MSTORE PUSH1 0x24 PUSH0 REVERT JUMPDEST PUSH32 0x5061757361626C653A206E6F7420706175736564000000000000000000000000 PUSH0 DUP3 ADD MSTORE POP JUMP JUMPDEST PUSH0 PUSH2 0x3309 PUSH1 0x14 DUP4 PUSH2 0x2D9E JUMP JUMPDEST SWAP2 POP PUSH2 0x3314 DUP3 PUSH2 0x32D5 JUMP JUMPDEST PUSH1 0x20 DUP3 ADD SWAP1 POP SWAP2 SWAP1 POP JUMP JUMPDEST PUSH0 PUSH1 0x20 DUP3 ADD SWAP1 POP DUP2 DUP2 SUB PUSH0 DUP4 ADD MSTORE PUSH2 0x3336 DUP2 PUSH2 0x32FD JUMP JUMPDEST SWAP1 POP SWAP2 SWAP1 POP JUMP INVALID LOG2 PUSH5 0x6970667358 0x22 SLT KECCAK256 ORIGIN RETURN SIGNEXTEND SWAP1 ADDMOD 0xDE DUP1 DUPN 0xE0 LOG0 DUP9 PUSH11 0x2777A8E58C583064B60AA8 SAR LOG3 OR 0xEA 0xDB SELFBALANCE DUP3 DUP7 0xD3 PUSH5 0x736F6C6343 STOP ADDMOD 0x1E STOP CALLER "
		},
		"gasEstimates": {
			"creation": {
				"codeDepositCost": "2634200",
				"executionCost": "infinite",
				"totalCost": "infinite"
			},
			"external": {
				"batchStatus(uint256)": "infinite",
				"batches(uint256)": "infinite",
				"bond()": "infinite",
				"bonds(address)": "2912",
				"challengeBatch(uint256)": "infinite",
				"challengeWindow()": "2515",
				"challengerBond()": "2514",
				"claimWithdrawal(uint256,address,uint256,uint256,bytes32[])": "infinite",
				"currentStateRoot()": "2470",
				"depositERC20(address,uint256)": "infinite",
				"depositETH()": "infinite",
				"depositNonce()": "2514",
				"finalizeBatch(uint256)": "infinite",
				"fraudVerifier()": "infinite",
				"latestBatchId()": "2515",
				"owner()": "2559",
				"pause()": "infinite",
				"paused()": "2635",
				"renounceOwnership()": "infinite",
				"resolveChallenge(uint256,bytes)": "infinite",
				"sequencer()": "2598",
				"sequencerBond()": "2536",
				"setFraudVerifier(address)": "infinite",
				"setParams(uint256,uint256,uint256)": "infinite",
				"setSequencer(address)": "infinite",
				"submitBatch(bytes32,bytes32,bytes32)": "infinite",
				"transferOwnership(address)": "infinite",
				"unbond(uint256)": "infinite",
				"unpause()": "infinite",
				"withdrawalClaimed(uint256,bytes32)": "3134"
			}
		},
		"methodIdentifiers": {
			"batchStatus(uint256)": "147e4e8f",
			"batches(uint256)": "b32c4d8d",
			"bond()": "64c9ec6f",
			"bonds(address)": "fe10d774",
			"challengeBatch(uint256)": "8fe0c544",
			"challengeWindow()": "861a1412",
			"challengerBond()": "68ccdc86",
			"claimWithdrawal(uint256,address,uint256,uint256,bytes32[])": "129d8000",
			"currentStateRoot()": "ac2eba98",
			"depositERC20(address,uint256)": "97feb926",
			"depositETH()": "f6326fb3",
			"depositNonce()": "de35f5cb",
			"finalizeBatch(uint256)": "e33491a7",
			"fraudVerifier()": "5c0b2cd3",
			"latestBatchId()": "4d4e7019",
			"owner()": "8da5cb5b",
			"pause()": "8456cb59",
			"paused()": "5c975abb",
			"renounceOwnership()": "715018a6",
			"resolveChallenge(uint256,bytes)": "7b6605c5",
			"sequencer()": "5c1bba38",
			"sequencerBond()": "a8608d18",
			"setFraudVerifier(address)": "e7b417a6",
			"setParams(uint256,uint256,uint256)": "5a0ce676",
			"setSequencer(address)": "2547fa3e",
			"submitBatch(bytes32,bytes32,bytes32)": "67f4f4eb",
			"transferOwnership(address)": "f2fde38b",
			"unbond(uint256)": "27de9e32",
			"unpause()": "3f4ba83a",
			"withdrawalClaimed(uint256,bytes32)": "57348b83"
		}
	},
	"abi": [
		{
			"inputs": [
				{
					"internalType": "address",
					"name": "initialSequencer",
					"type": "address"
				},
				{
					"internalType": "address",
					"name": "initialFraudVerifier",
					"type": "address"
				},
				{
					"internalType": "uint256",
					"name": "_challengeWindow",
					"type": "uint256"
				},
				{
					"internalType": "uint256",
					"name": "_sequencerBond",
					"type": "uint256"
				},
				{
					"internalType": "uint256",
					"name": "_challengerBond",
					"type": "uint256"
				},
				{
					"internalType": "bytes32",
					"name": "genesisStateRoot",
					"type": "bytes32"
				}
			],
			"stateMutability": "nonpayable",
			"type": "constructor"
		},
		{
			"inputs": [],
			"name": "AlreadyChallenged",
			"type": "error"
		},
		{
			"inputs": [],
			"name": "BadBatch",
			"type": "error"
		},
		{
			"inputs": [],
			"name": "BatchAlreadyFinalized",
			"type": "error"
		},
		{
			"inputs": [],
			"name": "BatchNotFinalized",
			"type": "error"
		},
		{
			"inputs": [],
			"name": "BatchNotFound",
			"type": "error"
		},
		{
			"inputs": [],
			"name": "ChallengePeriodActive",
			"type": "error"
		},
		{
			"inputs": [],
			"name": "ChallengePeriodOver",
			"type": "error"
		},
		{
			"inputs": [],
			"name": "InvalidProof",
			"type": "error"
		},
		{
			"inputs": [],
			"name": "NotChallenger",
			"type": "error"
		},
		{
			"inputs": [],
			"name": "NotSequencer",
			"type": "error"
		},
		{
			"inputs": [
				{
					"internalType": "address",
					"name": "owner",
					"type": "address"
				}
			],
			"name": "OwnableInvalidOwner",
			"type": "error"
		},
		{
			"inputs": [
				{
					"internalType": "address",
					"name": "account",
					"type": "address"
				}
			],
			"name": "OwnableUnauthorizedAccount",
			"type": "error"
		},
		{
			"inputs": [
				{
					"internalType": "address",
					"name": "token",
					"type": "address"
				}
			],
			"name": "SafeERC20FailedOperation",
			"type": "error"
		},
		{
			"inputs": [],
			"name": "TransferFailed",
			"type": "error"
		},
		{
			"inputs": [],
			"name": "WithdrawalAlreadyClaimed",
			"type": "error"
		},
		{
			"inputs": [],
			"name": "ZeroAmount",
			"type": "error"
		},
		{
			"anonymous": false,
			"inputs": [
				{
					"indexed": true,
					"internalType": "uint256",
					"name": "batchId",
					"type": "uint256"
				},
				{
					"indexed": true,
					"internalType": "address",
					"name": "challenger",
					"type": "address"
				}
			],
			"name": "BatchChallenged",
			"type": "event"
		},
		{
			"anonymous": false,
			"inputs": [
				{
					"indexed": true,
					"internalType": "uint256",
					"name": "batchId",
					"type": "uint256"
				},
				{
					"indexed": true,
					"internalType": "bytes32",
					"name": "newStateRoot",
					"type": "bytes32"
				}
			],
			"name": "BatchFinalized",
			"type": "event"
		},
		{
			"anonymous": false,
			"inputs": [
				{
					"indexed": true,
					"internalType": "uint256",
					"name": "batchId",
					"type": "uint256"
				},
				{
					"indexed": true,
					"internalType": "bytes32",
					"name": "prevStateRoot",
					"type": "bytes32"
				},
				{
					"indexed": true,
					"internalType": "bytes32",
					"name": "newStateRoot",
					"type": "bytes32"
				},
				{
					"indexed": false,
					"internalType": "bytes32",
					"name": "txDataHash",
					"type": "bytes32"
				},
				{
					"indexed": false,
					"internalType": "bytes32",
					"name": "withdrawalRoot",
					"type": "bytes32"
				}
			],
			"name": "BatchSubmitted",
			"type": "event"
		},
		{
			"anonymous": false,
			"inputs": [
				{
					"indexed": true,
					"internalType": "address",
					"name": "who",
					"type": "address"
				},
				{
					"indexed": false,
					"internalType": "uint256",
					"name": "amount",
					"type": "uint256"
				}
			],
			"name": "Bonded",
			"type": "event"
		},
		{
			"anonymous": false,
			"inputs": [
				{
					"indexed": true,
					"internalType": "uint256",
					"name": "batchId",
					"type": "uint256"
				},
				{
					"indexed": false,
					"internalType": "bool",
					"name": "fraudProven",
					"type": "bool"
				}
			],
			"name": "ChallengeResolved",
			"type": "event"
		},
		{
			"anonymous": false,
			"inputs": [
				{
					"indexed": true,
					"internalType": "address",
					"name": "user",
					"type": "address"
				},
				{
					"indexed": true,
					"internalType": "address",
					"name": "token",
					"type": "address"
				},
				{
					"indexed": false,
					"internalType": "uint256",
					"name": "amount",
					"type": "uint256"
				},
				{
					"indexed": true,
					"internalType": "uint256",
					"name": "nonce",
					"type": "uint256"
				}
			],
			"name": "DepositERC20",
			"type": "event"
		},
		{
			"anonymous": false,
			"inputs": [
				{
					"indexed": true,
					"internalType": "address",
					"name": "user",
					"type": "address"
				},
				{
					"indexed": false,
					"internalType": "uint256",
					"name": "amount",
					"type": "uint256"
				},
				{
					"indexed": true,
					"internalType": "uint256",
					"name": "nonce",
					"type": "uint256"
				}
			],
			"name": "DepositETH",
			"type": "event"
		},
		{
			"anonymous": false,
			"inputs": [
				{
					"indexed": true,
					"internalType": "address",
					"name": "verifier",
					"type": "address"
				}
			],
			"name": "FraudVerifierUpdated",
			"type": "event"
		},
		{
			"anonymous": false,
			"inputs": [
				{
					"indexed": true,
					"internalType": "address",
					"name": "previousOwner",
					"type": "address"
				},
				{
					"indexed": true,
					"internalType": "address",
					"name": "newOwner",
					"type": "address"
				}
			],
			"name": "OwnershipTransferred",
			"type": "event"
		},
		{
			"anonymous": false,
			"inputs": [
				{
					"indexed": false,
					"internalType": "uint256",
					"name": "challengeWindow",
					"type": "uint256"
				},
				{
					"indexed": false,
					"internalType": "uint256",
					"name": "sequencerBond",
					"type": "uint256"
				},
				{
					"indexed": false,
					"internalType": "uint256",
					"name": "challengerBond",
					"type": "uint256"
				}
			],
			"name": "ParamsUpdated",
			"type": "event"
		},
		{
			"anonymous": false,
			"inputs": [
				{
					"indexed": false,
					"internalType": "address",
					"name": "account",
					"type": "address"
				}
			],
			"name": "Paused",
			"type": "event"
		},
		{
			"anonymous": false,
			"inputs": [
				{
					"indexed": true,
					"internalType": "address",
					"name": "oldSequencer",
					"type": "address"
				},
				{
					"indexed": true,
					"internalType": "address",
					"name": "newSequencer",
					"type": "address"
				}
			],
			"name": "SequencerUpdated",
			"type": "event"
		},
		{
			"anonymous": false,
			"inputs": [
				{
					"indexed": true,
					"internalType": "address",
					"name": "who",
					"type": "address"
				},
				{
					"indexed": false,
					"internalType": "uint256",
					"name": "amount",
					"type": "uint256"
				}
			],
			"name": "Unbonded",
			"type": "event"
		},
		{
			"anonymous": false,
			"inputs": [
				{
					"indexed": false,
					"internalType": "address",
					"name": "account",
					"type": "address"
				}
			],
			"name": "Unpaused",
			"type": "event"
		},
		{
			"anonymous": false,
			"inputs": [
				{
					"indexed": true,
					"internalType": "uint256",
					"name": "batchId",
					"type": "uint256"
				},
				{
					"indexed": true,
					"internalType": "address",
					"name": "user",
					"type": "address"
				},
				{
					"indexed": true,
					"internalType": "address",
					"name": "token",
					"type": "address"
				},
				{
					"indexed": false,
					"internalType": "uint256",
					"name": "amount",
					"type": "uint256"
				},
				{
					"indexed": false,
					"internalType": "uint256",
					"name": "nonce",
					"type": "uint256"
				}
			],
			"name": "WithdrawalClaimed",
			"type": "event"
		},
		{
			"inputs": [
				{
					"internalType": "uint256",
					"name": "batchId",
					"type": "uint256"
				}
			],
			"name": "batchStatus",
			"outputs": [
				{
					"internalType": "bool",
					"name": "exists",
					"type": "bool"
				},
				{
					"internalType": "bool",
					"name": "challenged",
					"type": "bool"
				},
				{
					"internalType": "bool",
					"name": "finalized",
					"type": "bool"
				},
				{
					"internalType": "uint256",
					"name": "submittedAt",
					"type": "uint256"
				},
				{
					"internalType": "uint256",
					"name": "challengeEndsAt",
					"type": "uint256"
				},
				{
					"internalType": "bytes32",
					"name": "prevRoot",
					"type": "bytes32"
				},
				{
					"internalType": "bytes32",
					"name": "newRoot",
					"type": "bytes32"
				},
				{
					"internalType": "bytes32",
					"name": "txHash",
					"type": "bytes32"
				},
				{
					"internalType": "bytes32",
					"name": "withdrawalRoot",
					"type": "bytes32"
				},
				{
					"internalType": "address",
					"name": "challenger",
					"type": "address"
				}
			],
			"stateMutability": "view",
			"type": "function"
		},
		{
			"inputs": [
				{
					"internalType": "uint256",
					"name": "",
					"type": "uint256"
				}
			],
			"name": "batches",
			"outputs": [
				{
					"internalType": "bytes32",
					"name": "prevStateRoot",
					"type": "bytes32"
				},
				{
					"internalType": "bytes32",
					"name": "newStateRoot",
					"type": "bytes32"
				},
				{
					"internalType": "bytes32",
					"name": "txDataHash",
					"type": "bytes32"
				},
				{
					"internalType": "bytes32",
					"name": "withdrawalRoot",
					"type": "bytes32"
				},
				{
					"internalType": "uint64",
					"name": "submittedAt",
					"type": "uint64"
				},
				{
					"internalType": "bool",
					"name": "challenged",
					"type": "bool"
				},
				{
					"internalType": "bool",
					"name": "finalized",
					"type": "bool"
				},
				{
					"internalType": "address",
					"name": "challenger",
					"type": "address"
				}
			],
			"stateMutability": "view",
			"type": "function"
		},
		{
			"inputs": [],
			"name": "bond",
			"outputs": [],
			"stateMutability": "payable",
			"type": "function"
		},
		{
			"inputs": [
				{
					"internalType": "address",
					"name": "",
					"type": "address"
				}
			],
			"name": "bonds",
			"outputs": [
				{
					"internalType": "uint256",
					"name": "",
					"type": "uint256"
				}
			],
			"stateMutability": "view",
			"type": "function"
		},
		{
			"inputs": [
				{
					"internalType": "uint256",
					"name": "batchId",
					"type": "uint256"
				}
			],
			"name": "challengeBatch",
			"outputs": [],
			"stateMutability": "nonpayable",
			"type": "function"
		},
		{
			"inputs": [],
			"name": "challengeWindow",
			"outputs": [
				{
					"internalType": "uint256",
					"name": "",
					"type": "uint256"
				}
			],
			"stateMutability": "view",
			"type": "function"
		},
		{
			"inputs": [],
			"name": "challengerBond",
			"outputs": [
				{
					"internalType": "uint256",
					"name": "",
					"type": "uint256"
				}
			],
			"stateMutability": "view",
			"type": "function"
		},
		{
			"inputs": [
				{
					"internalType": "uint256",
					"name": "batchId",
					"type": "uint256"
				},
				{
					"internalType": "address",
					"name": "token",
					"type": "address"
				},
				{
					"internalType": "uint256",
					"name": "amount",
					"type": "uint256"
				},
				{
					"internalType": "uint256",
					"name": "nonce",
					"type": "uint256"
				},
				{
					"internalType": "bytes32[]",
					"name": "merkleProof",
					"type": "bytes32[]"
				}
			],
			"name": "claimWithdrawal",
			"outputs": [],
			"stateMutability": "nonpayable",
			"type": "function"
		},
		{
			"inputs": [],
			"name": "currentStateRoot",
			"outputs": [
				{
					"internalType": "bytes32",
					"name": "",
					"type": "bytes32"
				}
			],
			"stateMutability": "view",
			"type": "function"
		},
		{
			"inputs": [
				{
					"internalType": "address",
					"name": "token",
					"type": "address"
				},
				{
					"internalType": "uint256",
					"name": "amount",
					"type": "uint256"
				}
			],
			"name": "depositERC20",
			"outputs": [],
			"stateMutability": "nonpayable",
			"type": "function"
		},
		{
			"inputs": [],
			"name": "depositETH",
			"outputs": [],
			"stateMutability": "payable",
			"type": "function"
		},
		{
			"inputs": [],
			"name": "depositNonce",
			"outputs": [
				{
					"internalType": "uint256",
					"name": "",
					"type": "uint256"
				}
			],
			"stateMutability": "view",
			"type": "function"
		},
		{
			"inputs": [
				{
					"internalType": "uint256",
					"name": "batchId",
					"type": "uint256"
				}
			],
			"name": "finalizeBatch",
			"outputs": [],
			"stateMutability": "nonpayable",
			"type": "function"
		},
		{
			"inputs": [],
			"name": "fraudVerifier",
			"outputs": [
				{
					"internalType": "contract IFraudProofVerifier",
					"name": "",
					"type": "address"
				}
			],
			"stateMutability": "view",
			"type": "function"
		},
		{
			"inputs": [],
			"name": "latestBatchId",
			"outputs": [
				{
					"internalType": "uint256",
					"name": "",
					"type": "uint256"
				}
			],
			"stateMutability": "view",
			"type": "function"
		},
		{
			"inputs": [],
			"name": "owner",
			"outputs": [
				{
					"internalType": "address",
					"name": "",
					"type": "address"
				}
			],
			"stateMutability": "view",
			"type": "function"
		},
		{
			"inputs": [],
			"name": "pause",
			"outputs": [],
			"stateMutability": "nonpayable",
			"type": "function"
		},
		{
			"inputs": [],
			"name": "paused",
			"outputs": [
				{
					"internalType": "bool",
					"name": "",
					"type": "bool"
				}
			],
			"stateMutability": "view",
			"type": "function"
		},
		{
			"inputs": [],
			"name": "renounceOwnership",
			"outputs": [],
			"stateMutability": "nonpayable",
			"type": "function"
		},
		{
			"inputs": [
				{
					"internalType": "uint256",
					"name": "batchId",
					"type": "uint256"
				},
				{
					"internalType": "bytes",
					"name": "proof",
					"type": "bytes"
				}
			],
			"name": "resolveChallenge",
			"outputs": [],
			"stateMutability": "nonpayable",
			"type": "function"
		},
		{
			"inputs": [],
			"name": "sequencer",
			"outputs": [
				{
					"internalType": "address",
					"name": "",
					"type": "address"
				}
			],
			"stateMutability": "view",
			"type": "function"
		},
		{
			"inputs": [],
			"name": "sequencerBond",
			"outputs": [
				{
					"internalType": "uint256",
					"name": "",
					"type": "uint256"
				}
			],
			"stateMutability": "view",
			"type": "function"
		},
		{
			"inputs": [
				{
					"internalType": "address",
					"name": "verifier",
					"type": "address"
				}
			],
			"name": "setFraudVerifier",
			"outputs": [],
			"stateMutability": "nonpayable",
			"type": "function"
		},
		{
			"inputs": [
				{
					"internalType": "uint256",
					"name": "_challengeWindow",
					"type": "uint256"
				},
				{
					"internalType": "uint256",
					"name": "_sequencerBond",
					"type": "uint256"
				},
				{
					"internalType": "uint256",
					"name": "_challengerBond",
					"type": "uint256"
				}
			],
			"name": "setParams",
			"outputs": [],
			"stateMutability": "nonpayable",
			"type": "function"
		},
		{
			"inputs": [
				{
					"internalType": "address",
					"name": "newSequencer",
					"type": "address"
				}
			],
			"name": "setSequencer",
			"outputs": [],
			"stateMutability": "nonpayable",
			"type": "function"
		},
		{
			"inputs": [
				{
					"internalType": "bytes32",
					"name": "newStateRoot",
					"type": "bytes32"
				},
				{
					"internalType": "bytes32",
					"name": "txDataHash",
					"type": "bytes32"
				},
				{
					"internalType": "bytes32",
					"name": "withdrawalRoot",
					"type": "bytes32"
				}
			],
			"name": "submitBatch",
			"outputs": [],
			"stateMutability": "nonpayable",
			"type": "function"
		},
		{
			"inputs": [
				{
					"internalType": "address",
					"name": "newOwner",
					"type": "address"
				}
			],
			"name": "transferOwnership",
			"outputs": [],
			"stateMutability": "nonpayable",
			"type": "function"
		},
		{
			"inputs": [
				{
					"internalType": "uint256",
					"name": "amount",
					"type": "uint256"
				}
			],
			"name": "unbond",
			"outputs": [],
			"stateMutability": "nonpayable",
			"type": "function"
		},
		{
			"inputs": [],
			"name": "unpause",
			"outputs": [],
			"stateMutability": "nonpayable",
			"type": "function"
		},
		{
			"inputs": [
				{
					"internalType": "uint256",
					"name": "",
					"type": "uint256"
				},
				{
					"internalType": "bytes32",
					"name": "",
					"type": "bytes32"
				}
			],
			"name": "withdrawalClaimed",
			"outputs": [
				{
					"internalType": "bool",
					"name": "",
					"type": "bool"
				}
			],
			"stateMutability": "view",
			"type": "function"
		},
		{
			"stateMutability": "payable",
			"type": "receive"
		}
	]
}